{
	"data": {
		"bytecode": {
			"linkReferences": {},
			"object": "60806040523480156200001157600080fd5b50600160009081556002805460ff191690556200003890620000326200009c565b620000a0565b620000677f2ce8d04a9c35987429af538825cd2438cc5c5bb5dc427955f84daaa3ea105016620000326200009c565b620000967f65d7a28e3265b37a6474929f336521b332c1681b933f6cb9f3376673440d862a620000326200009c565b620001b2565b3390565b620000ac8282620000b0565b5050565b6000828152600160209081526040909120620000d7918390620017656200012b821b17901c565b15620000ac57620000e76200009c565b6001600160a01b0316816001600160a01b0316837f2f8788117e7eff1d82e926ec794901d17c78024a50270940304540a733656f0d60405160405180910390a45050565b600062000142836001600160a01b0384166200014b565b90505b92915050565b60006200015983836200019a565b620001915750815460018181018455600084815260208082209093018490558454848252828601909352604090209190915562000145565b50600062000145565b60009081526001919091016020526040902054151590565b613aa880620001c26000396000f3fe608060405234801561001057600080fd5b50600436106101735760003560e01c80635c975abb116100de57806392ba3da611610097578063d547741f11610071578063d547741f14610306578063d6b02ecf14610319578063e63ab1e91461032c578063e8b416531461033457610173565b806392ba3da6146102d8578063a217fddf146102eb578063ca15c873146102f357610173565b80635c975abb146102625780635db1674f146102775780638456cb591461028a5780638b40d5a3146102925780639010d07c146102a557806391d14854146102c557610173565b806332fd1dae1161013057806332fd1dae146102065780633530d1141461021957806336568abe1461022c5780633b21fd681461023f5780633f4ba83a14610247578063440e7a7e1461024f57610173565b806313d1ad30146101785780631429db5f146101a1578063150b7a02146101b65780631da03312146101d6578063248a9ca3146101de5780632f2ff15d146101f1575b600080fd5b61018b6101863660046129f8565b61033c565b6040516101989190613957565b60405180910390f35b6101a9610597565b6040516101989190612d5b565b6101c96101c436600461286f565b6105bb565b6040516101989190612dea565b6101a96105cc565b6101a96101ec366004612934565b6105de565b6102046101ff36600461294c565b6105f6565b005b61018b61021436600461297b565b61063e565b610204610227366004612a30565b610815565b61020461023a36600461294c565b6108e7565b6101a9610929565b61020461092f565b61020461025d366004612909565b610981565b61026a610a61565b6040516101989190612d50565b61018b61028536600461299c565b610a6a565b610204610c91565b6102046102a03660046129c7565b610ce1565b6102b86102b336600461297b565b610eb1565b6040516101989190612c9c565b61026a6102d336600461294c565b610ed2565b6102046102e6366004612909565b610eea565b6101a9610fb7565b6101a9610301366004612934565b610fbc565b61020461031436600461294c565b610fd3565b610204610327366004612837565b61100d565b6101a961108b565b6102046110af565b60006002600054141561036a5760405162461bcd60e51b81526004016103619061382d565b60405180910390fd5b6002600055610377610a61565b156103945760405162461bcd60e51b815260040161036190613292565b6009546040516331a9108f60e11b81528591829130916001600160a01b031690636352211e906103c8908590600401612d5b565b602060405180830381600087803b1580156103e257600080fd5b505af11580156103f6573d6000803e3d6000fd5b505050506040513d601f19601f8201168201806040525081019061041a9190612853565b6001600160a01b0316146104405760405162461bcd60e51b81526004016103619061366c565b600061044b8761177a565b905060006104588661180d565b905060038160ff161061047d5760405162461bcd60e51b815260040161036190613434565b60008160ff161180156104935750600a8160ff16105b6104af5760405162461bcd60e51b8152600401610361906138a6565b816000015160ff16600514806104cc5750816000015160ff166037145b806104de5750816000015160ff166046145b6104fa5760405162461bcd60e51b8152600401610361906132bc565b60aa602083015260008252610180820187905260035460405163315017c360e11b81526001600160a01b03909116906362a02f869061053f908b908a90600401612dd6565b600060405180830381600087803b15801561055957600080fd5b505af115801561056d573d6000803e3d6000fd5b5050505061057b88836118bf565b61058686600161196a565b505160016000559695505050505050565b7f7f1e4e9f3d9ba0452a25cfef4cd4c6ffc86158d06ed2f585fa0093e12dec429c81565b630a85bd0160e11b95945050505050565b600080516020613a5383398151915281565b6000818152600160205260409020600201545b919050565b600082815260016020526040902060020154610614906102d3611b3a565b6106305760405162461bcd60e51b815260040161036190612ef6565b61063a8282611b3e565b5050565b6000600260005414156106635760405162461bcd60e51b81526004016103619061382d565b6002600055610670610a61565b1561068d5760405162461bcd60e51b815260040161036190613292565b6009546040516331a9108f60e11b81528491829130916001600160a01b031690636352211e906106c1908590600401612d5b565b602060405180830381600087803b1580156106db57600080fd5b505af11580156106ef573d6000803e3d6000fd5b505050506040513d601f19601f820116820180604052508101906107139190612853565b6001600160a01b0316146107395760405162461bcd60e51b81526004016103619061366c565b60006107448661177a565b90506000610755826080015161180d565b90508060ff1660011461077a5760405162461bcd60e51b81526004016103619061371d565b815161078590611ba7565b60ff16156107a55760405162461bcd60e51b815260040161036190613145565b81516107b090611bf6565b60ff16156107d05760405162461bcd60e51b8152600401610361906133b1565b60aa6020830181905260608301526000825261018082018690526107f487836118bf565b6108038260800151600661196a565b505060016000555060aa949350505050565b600260005414156108385760405162461bcd60e51b81526004016103619061382d565b6002600055610845610a61565b156108625760405162461bcd60e51b815260040161036190613292565b600061086d8361180d565b905060008160ff161180156108855750600a8160ff16105b6108a15760405162461bcd60e51b815260040161036190613044565b60058160ff16106108c45760405162461bcd60e51b815260040161036190612f73565b6108d085858585611c3a565b6108db83600161196a565b50506001600055505050565b6108ef611b3a565b6001600160a01b0316816001600160a01b03161461091f5760405162461bcd60e51b8152600401610361906138dd565b61063a82826121a9565b60001981565b61095b7f65d7a28e3265b37a6474929f336521b332c1681b933f6cb9f3376673440d862a6102d3611b3a565b6109775760405162461bcd60e51b815260040161036190613203565b61097f612212565b565b600260005414156109a45760405162461bcd60e51b81526004016103619061382d565b60026000556109d57f7f1e4e9f3d9ba0452a25cfef4cd4c6ffc86158d06ed2f585fa0093e12dec429c6102d3611b3a565b6109f15760405162461bcd60e51b815260040161036190613319565b600954604051632142170760e11b815282916001600160a01b0316906342842e0e90610a2590309087908690600401612cb0565b600060405180830381600087803b158015610a3f57600080fd5b505af1158015610a53573d6000803e3d6000fd5b505060016000555050505050565b60025460ff1690565b600060026000541415610a8f5760405162461bcd60e51b81526004016103619061382d565b6002600055610a9c610a61565b15610ab95760405162461bcd60e51b815260040161036190613292565b6009546040516331a9108f60e11b81528591829130916001600160a01b031690636352211e90610aed908590600401612d5b565b602060405180830381600087803b158015610b0757600080fd5b505af1158015610b1b573d6000803e3d6000fd5b505050506040513d601f19601f82011682018060405250810190610b3f9190612853565b6001600160a01b031614610b655760405162461bcd60e51b81526004016103619061366c565b6000610b708761177a565b90506000610b81826080015161180d565b905060008160ff16118015610b995750600a8160ff16105b610bb55760405162461bcd60e51b81526004016103619061317c565b6031826000015160ff161180610bce575060058160ff16105b610bea5760405162461bcd60e51b8152600401610361906136b0565b816000015160ff1660011480610c075750816000015160ff166033145b610c235760405162461bcd60e51b81526004016103619061336f565b8682610180015114610c475760405162461bcd60e51b815260040161036190613754565b60aa606083015285610c5d576005825260001995505b6101808201869052610c6f88836118bf565b610c7e8260800151600261196a565b505060016000555060aa95945050505050565b610cbd7f65d7a28e3265b37a6474929f336521b332c1681b933f6cb9f3376673440d862a6102d3611b3a565b610cd95760405162461bcd60e51b815260040161036190613203565b61097f612280565b60026000541415610d045760405162461bcd60e51b81526004016103619061382d565b6002600055610d11610a61565b15610d2e5760405162461bcd60e51b815260040161036190613292565b6009546040516331a9108f60e11b81528591829130916001600160a01b031690636352211e90610d62908590600401612d5b565b602060405180830381600087803b158015610d7c57600080fd5b505af1158015610d90573d6000803e3d6000fd5b505050506040513d601f19601f82011682018060405250810190610db49190612853565b6001600160a01b031614610dda5760405162461bcd60e51b81526004016103619061366c565b6000610de58761177a565b90506000610df6826080015161180d565b905060008160ff16118015610e0e5750600a8160ff16105b610e2a5760405162461bcd60e51b81526004016103619061347e565b8151610e3590611bf6565b60ff1615610e555760405162461bcd60e51b815260040161036190612ebf565b8682610180015114610e795760405162461bcd60e51b815260040161036190613099565b61012082018690526101608201859052610e9388836122db565b610ea28260800151600361196a565b50506001600055505050505050565b6000828152600160205260408120610ec9908361233c565b90505b92915050565b6000828152600160205260408120610ec99083612348565b610f04600080516020613a538339815191526102d3611b3a565b610f205760405162461bcd60e51b815260040161036190612e78565b60026000541415610f435760405162461bcd60e51b81526004016103619061382d565b6002600055600b54604051632142170760e11b81526001600160a01b03909116906342842e0e90610f7c90309086908690600401612cb0565b600060405180830381600087803b158015610f9657600080fd5b505af1158015610faa573d6000803e3d6000fd5b5050600160005550505050565b600081565b6000818152600160205260408120610ecc9061235d565b600082815260016020526040902060020154610ff1906102d3611b3a565b61091f5760405162461bcd60e51b8152600401610361906131b3565b611027600080516020613a538339815191526102d3611b3a565b6110435760405162461bcd60e51b815260040161036190612e78565b6001600160a01b0381166110695760405162461bcd60e51b8152600401610361906133e8565b600380546001600160a01b0319166001600160a01b0392909216919091179055565b7f65d7a28e3265b37a6474929f336521b332c1681b933f6cb9f3376673440d862a81565b600260005414156110d25760405162461bcd60e51b81526004016103619061382d565b60026000556110f1600080516020613a538339815191526102d3611b3a565b61110d5760405162461bcd60e51b815260040161036190612e78565b6003546040516363b8d4c160e11b81526001600160a01b039091169063c771a9829061113b90600401613414565b60206040518083038186803b15801561115357600080fd5b505afa158015611167573d6000803e3d6000fd5b505050506040513d601f19601f8201168201806040525081019061118b9190612853565b600a80546001600160a01b039283166001600160a01b03199182161791829055600b80549091169183169190911790556003546040516363b8d4c160e11b815291169063c771a982906111e090600401613886565b60206040518083038186803b1580156111f857600080fd5b505afa15801561120c573d6000803e3d6000fd5b505050506040513d601f19601f820116820180604052508101906112309190612853565b600480546001600160a01b039283166001600160a01b031991821617808355600580549092169084161790556003546040516363b8d4c160e11b815292169163c771a9829161127f9101613864565b60206040518083038186803b15801561129757600080fd5b505afa1580156112ab573d6000803e3d6000fd5b505050506040513d601f19601f820116820180604052508101906112cf9190612853565b600680546001600160a01b039283166001600160a01b03199182161791829055600780549091169183169190911790556003546040516363b8d4c160e11b815291169063c771a9829061132490600401613350565b60206040518083038186803b15801561133c57600080fd5b505afa158015611350573d6000803e3d6000fd5b505050506040513d601f19601f820116820180604052508101906113749190612853565b600880546001600160a01b039283166001600160a01b03199182161791829055600980549091169183169190911790556003546040516363b8d4c160e11b815291169063c771a982906113c9906004016136fd565b60206040518083038186803b1580156113e157600080fd5b505afa1580156113f5573d6000803e3d6000fd5b505050506040513d601f19601f820116820180604052508101906114199190612853565b600c80546001600160a01b039283166001600160a01b03199182161791829055600d80549091169183169190911790556003546040516363b8d4c160e11b815291169063c771a9829061146e906004016137a2565b60206040518083038186803b15801561148657600080fd5b505afa15801561149a573d6000803e3d6000fd5b505050506040513d601f19601f820116820180604052508101906114be9190612853565b600e80546001600160a01b039283166001600160a01b03199182161791829055600f80549091169183169190911790556003546040516363b8d4c160e11b815291169063c771a9829061151390600401613027565b60206040518083038186803b15801561152b57600080fd5b505afa15801561153f573d6000803e3d6000fd5b505050506040513d601f19601f820116820180604052508101906115639190612853565b601280546001600160a01b039283166001600160a01b03199182161791829055601380549091169183169190911790556003546040516363b8d4c160e11b815291169063c771a982906115b89060040161307b565b60206040518083038186803b1580156115d057600080fd5b505afa1580156115e4573d6000803e3d6000fd5b505050506040513d601f19601f820116820180604052508101906116089190612853565b601080546001600160a01b039283166001600160a01b03199182161791829055601180549091169183169190911790556003546040516363b8d4c160e11b815291169063c771a9829061165d9060040161364c565b60206040518083038186803b15801561167557600080fd5b505afa158015611689573d6000803e3d6000fd5b505050506040513d601f19601f820116820180604052508101906116ad9190612853565b601480546001600160a01b0319166001600160a01b039283161790556003546040516363b8d4c160e11b815291169063c771a982906116ee90600401613811565b60206040518083038186803b15801561170657600080fd5b505afa15801561171a573d6000803e3d6000fd5b505050506040513d601f19601f8201168201806040525081019061173e9190612853565b601780546001600160a01b0319166001600160a01b03929092169190911790556001600055565b6000610ec9836001600160a01b038416612368565b611782612704565b6003546040516338923cb160e21b81526000916001600160a01b03169063e248f2c4906117b3908690600401612d5b565b6101a060405180830381600087803b1580156117ce57600080fd5b505af11580156117e2573d6000803e3d6000fd5b505050506040513d601f19601f820116820180604052508101906118069190612ae4565b9392505050565b60055460009081906001600160a01b0316639d2c7cee61182b611b3a565b60405160200161183b9190612c7f565b60405160208183030381529060405280519060200120856040518363ffffffff1660e01b815260040161186f929190612dd6565b60206040518083038186803b15801561188757600080fd5b505afa15801561189b573d6000803e3d6000fd5b505050506040513d601f19601f820116820180604052508101906118069190612c65565b6118c7610a61565b156118e45760405162461bcd60e51b815260040161036190613292565b600354610180820151825160a0840151602085015160608601516040516331aeaa7f60e11b81526001600160a01b039096169563635d54fe95611934958a95919490939192909190600401612d9e565b600060405180830381600087803b15801561194e57600080fd5b505af1158015611962573d6000803e3d6000fd5b505050505050565b611972610a61565b1561198f5760405162461bcd60e51b815260040161036190613292565b611997612770565b60055460405163042324e360e11b81526000916064916001600160a01b039091169063084649c6906119cd90889060040161392c565b60206040518083038186803b1580156119e557600080fd5b505afa1580156119f9573d6000803e3d6000fd5b505050506040513d601f19601f82011682018060405250810190611a1d9190612bdc565b63ffffffff16611a2d91906139bc565b90506064811115611a505760405162461bcd60e51b8152600401610361906134b5565b60055460405163859f08db60e01b81526001600160a01b039091169063859f08db90611a82908790879060040161393d565b60a06040518083038186803b158015611a9a57600080fd5b505afa158015611aae573d6000803e3d6000fd5b505050506040513d601f19601f82011682018060405250810190611ad29190612a79565b9150600060648360800151611ae791906139bc565b90506000611af582846139dc565b90506000818560800151611b0991906139fb565b608086018390526060860151909150611b239082906139a4565b6060860152611b31856123b2565b50505050505050565b3390565b6000828152600160205260409020611b569082611765565b1561063a57611b63611b3a565b6001600160a01b0316816001600160a01b0316837f2f8788117e7eff1d82e926ec794901d17c78024a50270940304540a733656f0d60405160405180910390a45050565b60008160ff16600314158015611bc157508160ff16600414155b8015611bd157508160ff16603514155b8015611be157508160ff16603614155b15611bee575060006105f1565b5060aa6105f1565b60008160ff16600514158015611c1057508160ff16603714155b8015611c2057508160ff16604614155b8015611be157508160ff16603c14611bee575060006105f1565b836000611c4684612493565b60095460405162491fcf60e11b81529192506001600160a01b03169062923f9e90611c75908590600401612d5b565b60206040518083038186803b158015611c8d57600080fd5b505afa158015611ca1573d6000803e3d6000fd5b505050506040513d601f19601f82011682018060405250810190611cc59190612c65565b60ff1615611ce55760405162461bcd60e51b815260040161036190612dff565b806040015160ff1660031415611d0d5760405162461bcd60e51b8152600401610361906137c3565b6005816060015160ff1610611d345760405162461bcd60e51b815260040161036190612fbe565b806040015160ff16600114611fab57806060015160ff1660011480611d605750806060015160ff166002145b15611e1757611d6d611b3a565b600b546040516331a9108f60e11b81526001600160a01b039283169290911690636352211e90611da190889060040161392c565b60206040518083038186803b158015611db957600080fd5b505afa158015611dcd573d6000803e3d6000fd5b505050506040513d601f19601f82011682018060405250810190611df19190612853565b6001600160a01b031614611e175760405162461bcd60e51b815260040161036190613507565b806060015160ff1660031415611ef6576005546001600160a01b0316639d2c7cee611e40611b3a565b604051602001611e509190612c7f565b60405160208183030381529060405280519060200120866040518363ffffffff1660e01b8152600401611e84929190612dd6565b60206040518083038186803b158015611e9c57600080fd5b505afa158015611eb0573d6000803e3d6000fd5b505050506040513d601f19601f82011682018060405250810190611ed49190612c65565b60ff16600114611ef65760405162461bcd60e51b8152600401610361906135ef565b806060015160ff1660041415611fab57600d546009906001600160a01b0316638a00091a611f22611b3a565b6040518263ffffffff1660e01b8152600401611f3e9190612c9c565b60206040518083038186803b158015611f5657600080fd5b505afa158015611f6a573d6000803e3d6000fd5b505050506040513d601f19601f82011682018060405250810190611f8e9190612bc4565b11611fab5760405162461bcd60e51b8152600401610361906130e8565b806040015160ff1660011480611fc85750806040015160ff166002145b80611fda5750806040015160ff166004145b611ff65760405162461bcd60e51b81526004016103619061357a565b806040015160ff166001141561208c576009546040516354a19c2b60e01b81526001600160a01b03909116906354a19c2b906120389030908690600401612d28565b602060405180830381600087803b15801561205257600080fd5b505af1158015612066573d6000803e3d6000fd5b505050506040513d601f19601f8201168201806040525081019061208a9190612bc4565b505b806040015160ff16600214806120a95750806040015160ff166004145b15612139576009546001600160a01b03166354a19c2b6120c7611b3a565b846040518363ffffffff1660e01b81526004016120e5929190612d28565b602060405180830381600087803b1580156120ff57600080fd5b505af1158015612113573d6000803e3d6000fd5b505050506040513d601f19601f820116820180604052508101906121379190612bc4565b505b600354604051630d4c344560e21b81526001600160a01b0390911690633530d1149061216f908990899089908990600401612d7a565b600060405180830381600087803b15801561218957600080fd5b505af115801561219d573d6000803e3d6000fd5b50505050505050505050565b60008281526001602052604090206121c1908261255d565b1561063a576121ce611b3a565b6001600160a01b0316816001600160a01b0316837ff6391f5c32d9c69d2a47ea670b442974b53935d1edc7fd64eb21e047a839171b60405160405180910390a45050565b61221a610a61565b6122365760405162461bcd60e51b815260040161036190612f45565b6002805460ff191690557f5db9ee0a495bf2e6ff9c91a7834c1ba4fdd244a5e8aa4e537bd38aeae4b073aa612269611b3a565b6040516122769190612c9c565b60405180910390a1565b612288610a61565b156122a55760405162461bcd60e51b815260040161036190613292565b6002805460ff191660011790557f62e78cea01bee320cd4e420270b5ea74000d11b0c9f74754ebdbfc544b05a258612269611b3a565b6122e3610a61565b156123005760405162461bcd60e51b815260040161036190613292565b600354610120820151610160830151604051630f8d9d2f60e01b81526001600160a01b0390931692630f8d9d2f92611934928792600401612d64565b6000610ec98383612572565b6000610ec9836001600160a01b0384166125cb565b6000610ecc826125e3565b600061237483836125cb565b6123aa57508154600181810184556000848152602080822090930184905584548482528286019093526040902091909155610ecc565b506000610ecc565b6123ba610a61565b156123d75760405162461bcd60e51b815260040161036190613292565b60208101516001600160a01b03166124015760405162461bcd60e51b815260040161036190613249565b60408101516001600160a01b03166124275760208101516001600160a01b031660408201525b6007546001600160a01b03166328db9da6612440611b3a565b836040518363ffffffff1660e01b815260040161245e929190612cd4565b600060405180830381600087803b15801561247857600080fd5b505af115801561248c573d6000803e3d6000fd5b5050505050565b61249b61279e565b6124a361279e565b600554604051630f24350160e41b81526001600160a01b039091169063f2435010906124d390869060040161392c565b60a060405180830381600087803b1580156124ed57600080fd5b505af1158015612501573d6000803e3d6000fd5b505050506040513d601f19601f820116820180604052508101906125259190612bf8565b6001600160a01b031660c086015263ffffffff90811660a086015260ff91821660608601529116604084015216602082015292915050565b6000610ec9836001600160a01b0384166125e7565b815460009082106125955760405162461bcd60e51b815260040161036190612e36565b8260000182815481106125b857634e487b7160e01b600052603260045260246000fd5b9060005260206000200154905092915050565b60009081526001919091016020526040902054151590565b5490565b600081815260018301602052604081205480156126fa57600061260b6001836139fb565b855490915060009061261f906001906139fb565b9050600086600001828154811061264657634e487b7160e01b600052603260045260246000fd5b906000526020600020015490508087600001848154811061267757634e487b7160e01b600052603260045260246000fd5b60009182526020909120015561268e8360016139a4565b600082815260018901602052604090205586548790806126be57634e487b7160e01b600052603160045260246000fd5b60019003818190600052602060002001600090559055866001016000878152602001908152602001600020600090556001945050505050610ecc565b6000915050610ecc565b604080516101a081018252600080825260208201819052918101829052606081018290526080810182905260a0810182905260c0810182905260e08101829052610100810182905261012081018290526101408101829052610160810182905261018081019190915290565b6040805160a08101825260008082526020820181905291810182905260608101829052608081019190915290565b6040805161012081018252606080825260006020830181905292820183905281018290526080810182905260a0810182905260c0810182905260e0810182905261010081019190915290565b80516effffffffffffffffffffffffffffff811681146105f157600080fd5b805161ffff811681146105f157600080fd5b80516105f181613a40565b805160ff811681146105f157600080fd5b600060208284031215612848578081fd5b813561180681613a28565b600060208284031215612864578081fd5b815161180681613a28565b600080600080600060808688031215612886578081fd5b853561289181613a28565b945060208601356128a181613a28565b935060408601359250606086013567ffffffffffffffff808211156128c4578283fd5b818801915088601f8301126128d7578283fd5b8135818111156128e5578384fd5b8960208285010111156128f6578384fd5b9699959850939650602001949392505050565b6000806040838503121561291b578182fd5b823561292681613a28565b946020939093013593505050565b600060208284031215612945578081fd5b5035919050565b6000806040838503121561295e578182fd5b82359150602083013561297081613a28565b809150509250929050565b6000806040838503121561298d578182fd5b50508035926020909101359150565b6000806000606084860312156129b0578081fd5b505081359360208301359350604090920135919050565b600080600080608085870312156129dc578182fd5b5050823594602084013594506040840135936060013592509050565b600080600060608486031215612a0c578081fd5b83359250602084013591506040840135612a2581613a40565b809150509250925092565b60008060008060808587031215612a45578182fd5b84359350602085013592506040850135612a5e81613a40565b91506060850135612a6e81613a40565b939692955090935050565b600060a08284031215612a8a578081fd5b612a9460a0613965565b8251612a9f81613a40565b81526020830151612aaf81613a28565b60208201526040830151612ac281613a28565b6040820152606083810151908201526080928301519281019290925250919050565b60006101a0808385031215612af7578182fd5b612b0081613965565b9050612b0b83612826565b8152612b1960208401612826565b6020820152612b2a60408401612826565b6040820152612b3b60608401612809565b6060820152612b4c6080840161281b565b6080820152612b5d60a0840161281b565b60a0820152612b6e60c0840161281b565b60c0820152612b7f60e084016127ea565b60e08201526101008381015190820152610120808401519082015261014080840151908201526101608084015190820152610180928301519281019290925250919050565b600060208284031215612bd5578081fd5b5051919050565b600060208284031215612bed578081fd5b815161180681613a40565b600080600080600060a08688031215612c0f578283fd5b8551612c1a81613a40565b9450612c2860208701612826565b9350612c3660408701612826565b92506060860151612c4681613a40565b6080870151909250612c5781613a28565b809150509295509295909350565b600060208284031215612c76578081fd5b610ec982612826565b60609190911b6bffffffffffffffffffffffff1916815260140190565b6001600160a01b0391909116815260200190565b6001600160a01b039384168152919092166020820152604081019190915260600190565b6001600160a01b039283168152815163ffffffff166020808301919091528201518316604080830191909152820151909216606080840191909152810151608080840191909152015160a082015260c00190565b6001600160a01b03929092168252602082015260606040820181905260009082015260800190565b901515815260200190565b90815260200190565b9283526020830191909152604082015260600190565b938452602084019290925263ffffffff908116604084015216606082015260800190565b958652602086019490945260ff928316604086015263ffffffff91909116606085015216608083015261ffff1660a082015260c00190565b91825263ffffffff16602082015260400190565b6001600160e01b031991909116815260200190565b6020808252601f908201527f433a43523a417373657420746f6b656e20616c72656164792065786973747300604082015260600190565b60208082526022908201527f456e756d657261626c655365743a20696e646578206f7574206f6620626f756e604082015261647360f01b606082015260800190565b60208082526027908201527f423a4d4f443a2d4941444d2063616c6c65722021434f4e54524143545f41444d604082015266494e5f524f4c4560c81b606082015260800190565b6020808252601d908201527f413a49323a204173736574206e656564732072652d696d706f72746564000000604082015260600190565b6020808252602f908201527f416363657373436f6e74726f6c3a2073656e646572206d75737420626520616e60408201526e0818591b5a5b881d1bc819dc985b9d608a1b606082015260800190565b60208082526014908201527314185d5cd8589b194e881b9bdd081c185d5cd95960621b604082015260600190565b6020808252602b908201527f413a4e523a2055736572206e6f7420617574686f72697a656420746f2063726560408201526a617465207265636f72647360a81b606082015260800190565b60208082526043908201527f433a43523a436f6e747261637420646f6573206e6f7420737570706f7274206d60408201527f616e6167656d656e74207479706573203e2034206f72204143206973206c6f636060820152621ad95960ea1b608082015260a00190565b60208082526003908201526204150560ec1b604082015260600190565b60208082526019908201527f413a4e523a2055736572206e6f74206175746820696e20414300000000000000604082015260600190565b6020808252600490820152632921a62960e11b604082015260600190565b6020808252602f908201527f413a49323a20526967687473686f6c64657220646f6573206e6f74206d61746360408201526e6820737570706c696564206461746160881b606082015260800190565b60208082526037908201527f433a43523a43616c6c657220646f6573206e6f7420686f6c642073756666696360408201527f69656e746c792074727573746564204944202831302b29000000000000000000606082015260800190565b60208082526017908201527f413a464d523a204173736574206d61726b6564204c2f53000000000000000000604082015260600190565b60208082526019908201527f413a54413a2055736572206e6f74206175746820696e20414300000000000000604082015260600190565b60208082526030908201527f416363657373436f6e74726f6c3a2073656e646572206d75737420626520616e60408201526f2061646d696e20746f207265766f6b6560801b606082015260800190565b60208082526026908201527f423a4d4f442d49503a43616c6c696e672061646472657373206973206e6f74206040820152653830bab9b2b960d11b606082015260800190565b60208082526029908201527f433a44503a20726f6f74207061796d656e7420616472657373206973207a65726040820152686f206164647265737360b81b606082015260800190565b60208082526010908201526f14185d5cd8589b194e881c185d5cd95960821b604082015260600190565b60208082526039908201527f413a49413a204f6e6c79205472616e73666572726564206f72206578706f727460408201527f6564206173736574732063616e20626520696d706f7274656400000000000000606082015260800190565b6020808252601e908201527f423a54583a4d75737420686176652041535345545f545846525f524f4c450000604082015260600190565b60208082526005908201526420afaa25a760d91b604082015260600190565b60208082526022908201527f413a54413a41737365742073746174757320213d207472616e736665727261626040820152616c6560f01b606082015260800190565b6020808252601e908201527f413a464d523a204173736574206e656564732072652d696d706f727465640000604082015260600190565b6020808252601290820152710423a5353433a2041646472657373203d20360741b604082015260600190565b60208082526006908201526520a1afaa25a760d11b604082015260600190565b6020808252602a908201527f413a49413a2055736572206e6f7420617574686f72697a656420746f20696d706040820152696f72742061737365747360b01b606082015260800190565b60208082526019908201527f413a49323a2055736572206e6f74206175746820696e20414300000000000000604082015260600190565b60208082526032908201527f433a4453433a696e76616c696420646973636f756e742076616c756520666f7260408201527110383934b1b29031b0b631bab630ba34b7b760711b606082015260800190565b6020808252604d908201527f433a43523a43616e6e6f742063726561746520617373657420696e204143206d60408201527f676d74207479706520317c7c32202d2063616c6c657220646f6573206e6f742060608201526c3437b6321020a1903a37b5b2b760991b608082015260a00190565b6020808252604f908201527f433a43523a43616e6e6f7420637265617465206173736574202d20636f6e747260408201527f616374206e6f7420617574686f72697a656420666f7220617373657420636c6160608201526e737320637573746f6479207479706560881b608082015260a00190565b60208082526038908201527f433a43523a43616e6e6f7420637265617465206173736574202d2063616c6c6560408201527f722061646472657373206e6f7420617574686f72697a65640000000000000000606082015260800190565b6020808252600690820152654150505f4e4360d01b604082015260600190565b60208082526024908201527f413a4d4f442d49413a2041505020636f6e74726163742021746f6b656e20686f604082015263363232b960e11b606082015260800190565b6020808252602d908201527f413a54413a4f6e6c79207573657274797065203c20352063616e206368616e6760408201526c06520737461747573203c20353609c1b606082015260800190565b60208082526006908201526524a22faa25a760d11b604082015260600190565b6020808252601a908201527f413a464d523a2055736572206e6f74206175746820696e204143000000000000604082015260600190565b6020808252602e908201527f413a54413a526967687473686f6c64657220646f6573206e6f74206d6174636860408201526d20737570706c696564206461746160901b606082015260800190565b60208082526007908201526622a1a92fa6a3a960c91b604082015260600190565b6020808252602e908201527f433a43523a43616e6e6f742063726561746520617373657420696e206120726f60408201526d6f7420617373657420636c61737360901b606082015260800190565b60208082526002908201526104e560f41b604082015260600190565b6020808252601f908201527f5265656e7472616e637947756172643a207265656e7472616e742063616c6c00604082015260600190565b6020808252600890820152672aaa24a62faa25a760c11b604082015260600190565b60208082526006908201526520a1afa6a3a960d11b604082015260600190565b60208082526019908201527f413a49413a2055736572206e6f74206175746820696e20414300000000000000604082015260600190565b6020808252602f908201527f416363657373436f6e74726f6c3a2063616e206f6e6c792072656e6f756e636560408201526e103937b632b9903337b91039b2b63360891b606082015260800190565b63ffffffff91909116815260200190565b63ffffffff92909216825261ffff16602082015260400190565b60ff91909116815260200190565b604051601f8201601f1916810167ffffffffffffffff8111828210171561399c57634e487b7160e01b600052604160045260246000fd5b604052919050565b600082198211156139b7576139b7613a12565b500190565b6000826139d757634e487b7160e01b81526012600452602481fd5b500490565b60008160001904831182151516156139f6576139f6613a12565b500290565b600082821015613a0d57613a0d613a12565b500390565b634e487b7160e01b600052601160045260246000fd5b6001600160a01b0381168114613a3d57600080fd5b50565b63ffffffff81168114613a3d57600080fdfe2ce8d04a9c35987429af538825cd2438cc5c5bb5dc427955f84daaa3ea105016a26469706673582212205c7da29fa69f5577f1a6a63093624a92af3424e6535f8c30f441907768e86c2c64736f6c63430008010033",
			"opcodes": "PUSH1 0x80 PUSH1 0x40 MSTORE CALLVALUE DUP1 ISZERO PUSH3 0x11 JUMPI PUSH1 0x0 DUP1 REVERT JUMPDEST POP PUSH1 0x1 PUSH1 0x0 SWAP1 DUP2 SSTORE PUSH1 0x2 DUP1 SLOAD PUSH1 0xFF NOT AND SWAP1 SSTORE PUSH3 0x38 SWAP1 PUSH3 0x32 PUSH3 0x9C JUMP JUMPDEST PUSH3 0xA0 JUMP JUMPDEST PUSH3 0x67 PUSH32 0x2CE8D04A9C35987429AF538825CD2438CC5C5BB5DC427955F84DAAA3EA105016 PUSH3 0x32 PUSH3 0x9C JUMP JUMPDEST PUSH3 0x96 PUSH32 0x65D7A28E3265B37A6474929F336521B332C1681B933F6CB9F3376673440D862A PUSH3 0x32 PUSH3 0x9C JUMP JUMPDEST PUSH3 0x1B2 JUMP JUMPDEST CALLER SWAP1 JUMP JUMPDEST PUSH3 0xAC DUP3 DUP3 PUSH3 0xB0 JUMP JUMPDEST POP POP JUMP JUMPDEST PUSH1 0x0 DUP3 DUP2 MSTORE PUSH1 0x1 PUSH1 0x20 SWAP1 DUP2 MSTORE PUSH1 0x40 SWAP1 SWAP2 KECCAK256 PUSH3 0xD7 SWAP2 DUP4 SWAP1 PUSH3 0x1765 PUSH3 0x12B DUP3 SHL OR SWAP1 SHR JUMP JUMPDEST ISZERO PUSH3 0xAC JUMPI PUSH3 0xE7 PUSH3 0x9C JUMP JUMPDEST PUSH1 0x1 PUSH1 0x1 PUSH1 0xA0 SHL SUB AND DUP2 PUSH1 0x1 PUSH1 0x1 PUSH1 0xA0 SHL SUB AND DUP4 PUSH32 0x2F8788117E7EFF1D82E926EC794901D17C78024A50270940304540A733656F0D PUSH1 0x40 MLOAD PUSH1 0x40 MLOAD DUP1 SWAP2 SUB SWAP1 LOG4 POP POP JUMP JUMPDEST PUSH1 0x0 PUSH3 0x142 DUP4 PUSH1 0x1 PUSH1 0x1 PUSH1 0xA0 SHL SUB DUP5 AND PUSH3 0x14B JUMP JUMPDEST SWAP1 POP JUMPDEST SWAP3 SWAP2 POP POP JUMP JUMPDEST PUSH1 0x0 PUSH3 0x159 DUP4 DUP4 PUSH3 0x19A JUMP JUMPDEST PUSH3 0x191 JUMPI POP DUP2 SLOAD PUSH1 0x1 DUP2 DUP2 ADD DUP5 SSTORE PUSH1 0x0 DUP5 DUP2 MSTORE PUSH1 0x20 DUP1 DUP3 KECCAK256 SWAP1 SWAP4 ADD DUP5 SWAP1 SSTORE DUP5 SLOAD DUP5 DUP3 MSTORE DUP3 DUP7 ADD SWAP1 SWAP4 MSTORE PUSH1 0x40 SWAP1 KECCAK256 SWAP2 SWAP1 SWAP2 SSTORE PUSH3 0x145 JUMP JUMPDEST POP PUSH1 0x0 PUSH3 0x145 JUMP JUMPDEST PUSH1 0x0 SWAP1 DUP2 MSTORE PUSH1 0x1 SWAP2 SWAP1 SWAP2 ADD PUSH1 0x20 MSTORE PUSH1 0x40 SWAP1 KECCAK256 SLOAD ISZERO ISZERO SWAP1 JUMP JUMPDEST PUSH2 0x3AA8 DUP1 PUSH3 0x1C2 PUSH1 0x0 CODECOPY PUSH1 0x0 RETURN INVALID PUSH1 0x80 PUSH1 0x40 MSTORE CALLVALUE DUP1 ISZERO PUSH2 0x10 JUMPI PUSH1 0x0 DUP1 REVERT JUMPDEST POP PUSH1 0x4 CALLDATASIZE LT PUSH2 0x173 JUMPI PUSH1 0x0 CALLDATALOAD PUSH1 0xE0 SHR DUP1 PUSH4 0x5C975ABB GT PUSH2 0xDE JUMPI DUP1 PUSH4 0x92BA3DA6 GT PUSH2 0x97 JUMPI DUP1 PUSH4 0xD547741F GT PUSH2 0x71 JUMPI DUP1 PUSH4 0xD547741F EQ PUSH2 0x306 JUMPI DUP1 PUSH4 0xD6B02ECF EQ PUSH2 0x319 JUMPI DUP1 PUSH4 0xE63AB1E9 EQ PUSH2 0x32C JUMPI DUP1 PUSH4 0xE8B41653 EQ PUSH2 0x334 JUMPI PUSH2 0x173 JUMP JUMPDEST DUP1 PUSH4 0x92BA3DA6 EQ PUSH2 0x2D8 JUMPI DUP1 PUSH4 0xA217FDDF EQ PUSH2 0x2EB JUMPI DUP1 PUSH4 0xCA15C873 EQ PUSH2 0x2F3 JUMPI PUSH2 0x173 JUMP JUMPDEST DUP1 PUSH4 0x5C975ABB EQ PUSH2 0x262 JUMPI DUP1 PUSH4 0x5DB1674F EQ PUSH2 0x277 JUMPI DUP1 PUSH4 0x8456CB59 EQ PUSH2 0x28A JUMPI DUP1 PUSH4 0x8B40D5A3 EQ PUSH2 0x292 JUMPI DUP1 PUSH4 0x9010D07C EQ PUSH2 0x2A5 JUMPI DUP1 PUSH4 0x91D14854 EQ PUSH2 0x2C5 JUMPI PUSH2 0x173 JUMP JUMPDEST DUP1 PUSH4 0x32FD1DAE GT PUSH2 0x130 JUMPI DUP1 PUSH4 0x32FD1DAE EQ PUSH2 0x206 JUMPI DUP1 PUSH4 0x3530D114 EQ PUSH2 0x219 JUMPI DUP1 PUSH4 0x36568ABE EQ PUSH2 0x22C JUMPI DUP1 PUSH4 0x3B21FD68 EQ PUSH2 0x23F JUMPI DUP1 PUSH4 0x3F4BA83A EQ PUSH2 0x247 JUMPI DUP1 PUSH4 0x440E7A7E EQ PUSH2 0x24F JUMPI PUSH2 0x173 JUMP JUMPDEST DUP1 PUSH4 0x13D1AD30 EQ PUSH2 0x178 JUMPI DUP1 PUSH4 0x1429DB5F EQ PUSH2 0x1A1 JUMPI DUP1 PUSH4 0x150B7A02 EQ PUSH2 0x1B6 JUMPI DUP1 PUSH4 0x1DA03312 EQ PUSH2 0x1D6 JUMPI DUP1 PUSH4 0x248A9CA3 EQ PUSH2 0x1DE JUMPI DUP1 PUSH4 0x2F2FF15D EQ PUSH2 0x1F1 JUMPI JUMPDEST PUSH1 0x0 DUP1 REVERT JUMPDEST PUSH2 0x18B PUSH2 0x186 CALLDATASIZE PUSH1 0x4 PUSH2 0x29F8 JUMP JUMPDEST PUSH2 0x33C JUMP JUMPDEST PUSH1 0x40 MLOAD PUSH2 0x198 SWAP2 SWAP1 PUSH2 0x3957 JUMP JUMPDEST PUSH1 0x40 MLOAD DUP1 SWAP2 SUB SWAP1 RETURN JUMPDEST PUSH2 0x1A9 PUSH2 0x597 JUMP JUMPDEST PUSH1 0x40 MLOAD PUSH2 0x198 SWAP2 SWAP1 PUSH2 0x2D5B JUMP JUMPDEST PUSH2 0x1C9 PUSH2 0x1C4 CALLDATASIZE PUSH1 0x4 PUSH2 0x286F JUMP JUMPDEST PUSH2 0x5BB JUMP JUMPDEST PUSH1 0x40 MLOAD PUSH2 0x198 SWAP2 SWAP1 PUSH2 0x2DEA JUMP JUMPDEST PUSH2 0x1A9 PUSH2 0x5CC JUMP JUMPDEST PUSH2 0x1A9 PUSH2 0x1EC CALLDATASIZE PUSH1 0x4 PUSH2 0x2934 JUMP JUMPDEST PUSH2 0x5DE JUMP JUMPDEST PUSH2 0x204 PUSH2 0x1FF CALLDATASIZE PUSH1 0x4 PUSH2 0x294C JUMP JUMPDEST PUSH2 0x5F6 JUMP JUMPDEST STOP JUMPDEST PUSH2 0x18B PUSH2 0x214 CALLDATASIZE PUSH1 0x4 PUSH2 0x297B JUMP JUMPDEST PUSH2 0x63E JUMP JUMPDEST PUSH2 0x204 PUSH2 0x227 CALLDATASIZE PUSH1 0x4 PUSH2 0x2A30 JUMP JUMPDEST PUSH2 0x815 JUMP JUMPDEST PUSH2 0x204 PUSH2 0x23A CALLDATASIZE PUSH1 0x4 PUSH2 0x294C JUMP JUMPDEST PUSH2 0x8E7 JUMP JUMPDEST PUSH2 0x1A9 PUSH2 0x929 JUMP JUMPDEST PUSH2 0x204 PUSH2 0x92F JUMP JUMPDEST PUSH2 0x204 PUSH2 0x25D CALLDATASIZE PUSH1 0x4 PUSH2 0x2909 JUMP JUMPDEST PUSH2 0x981 JUMP JUMPDEST PUSH2 0x26A PUSH2 0xA61 JUMP JUMPDEST PUSH1 0x40 MLOAD PUSH2 0x198 SWAP2 SWAP1 PUSH2 0x2D50 JUMP JUMPDEST PUSH2 0x18B PUSH2 0x285 CALLDATASIZE PUSH1 0x4 PUSH2 0x299C JUMP JUMPDEST PUSH2 0xA6A JUMP JUMPDEST PUSH2 0x204 PUSH2 0xC91 JUMP JUMPDEST PUSH2 0x204 PUSH2 0x2A0 CALLDATASIZE PUSH1 0x4 PUSH2 0x29C7 JUMP JUMPDEST PUSH2 0xCE1 JUMP JUMPDEST PUSH2 0x2B8 PUSH2 0x2B3 CALLDATASIZE PUSH1 0x4 PUSH2 0x297B JUMP JUMPDEST PUSH2 0xEB1 JUMP JUMPDEST PUSH1 0x40 MLOAD PUSH2 0x198 SWAP2 SWAP1 PUSH2 0x2C9C JUMP JUMPDEST PUSH2 0x26A PUSH2 0x2D3 CALLDATASIZE PUSH1 0x4 PUSH2 0x294C JUMP JUMPDEST PUSH2 0xED2 JUMP JUMPDEST PUSH2 0x204 PUSH2 0x2E6 CALLDATASIZE PUSH1 0x4 PUSH2 0x2909 JUMP JUMPDEST PUSH2 0xEEA JUMP JUMPDEST PUSH2 0x1A9 PUSH2 0xFB7 JUMP JUMPDEST PUSH2 0x1A9 PUSH2 0x301 CALLDATASIZE PUSH1 0x4 PUSH2 0x2934 JUMP JUMPDEST PUSH2 0xFBC JUMP JUMPDEST PUSH2 0x204 PUSH2 0x314 CALLDATASIZE PUSH1 0x4 PUSH2 0x294C JUMP JUMPDEST PUSH2 0xFD3 JUMP JUMPDEST PUSH2 0x204 PUSH2 0x327 CALLDATASIZE PUSH1 0x4 PUSH2 0x2837 JUMP JUMPDEST PUSH2 0x100D JUMP JUMPDEST PUSH2 0x1A9 PUSH2 0x108B JUMP JUMPDEST PUSH2 0x204 PUSH2 0x10AF JUMP JUMPDEST PUSH1 0x0 PUSH1 0x2 PUSH1 0x0 SLOAD EQ ISZERO PUSH2 0x36A JUMPI PUSH1 0x40 MLOAD PUSH3 0x461BCD PUSH1 0xE5 SHL DUP2 MSTORE PUSH1 0x4 ADD PUSH2 0x361 SWAP1 PUSH2 0x382D JUMP JUMPDEST PUSH1 0x40 MLOAD DUP1 SWAP2 SUB SWAP1 REVERT JUMPDEST PUSH1 0x2 PUSH1 0x0 SSTORE PUSH2 0x377 PUSH2 0xA61 JUMP JUMPDEST ISZERO PUSH2 0x394 JUMPI PUSH1 0x40 MLOAD PUSH3 0x461BCD PUSH1 0xE5 SHL DUP2 MSTORE PUSH1 0x4 ADD PUSH2 0x361 SWAP1 PUSH2 0x3292 JUMP JUMPDEST PUSH1 0x9 SLOAD PUSH1 0x40 MLOAD PUSH4 0x31A9108F PUSH1 0xE1 SHL DUP2 MSTORE DUP6 SWAP2 DUP3 SWAP2 ADDRESS SWAP2 PUSH1 0x1 PUSH1 0x1 PUSH1 0xA0 SHL SUB AND SWAP1 PUSH4 0x6352211E SWAP1 PUSH2 0x3C8 SWAP1 DUP6 SWAP1 PUSH1 0x4 ADD PUSH2 0x2D5B JUMP JUMPDEST PUSH1 0x20 PUSH1 0x40 MLOAD DUP1 DUP4 SUB DUP2 PUSH1 0x0 DUP8 DUP1 EXTCODESIZE ISZERO DUP1 ISZERO PUSH2 0x3E2 JUMPI PUSH1 0x0 DUP1 REVERT JUMPDEST POP GAS CALL ISZERO DUP1 ISZERO PUSH2 0x3F6 JUMPI RETURNDATASIZE PUSH1 0x0 DUP1 RETURNDATACOPY RETURNDATASIZE PUSH1 0x0 REVERT JUMPDEST POP POP POP POP PUSH1 0x40 MLOAD RETURNDATASIZE PUSH1 0x1F NOT PUSH1 0x1F DUP3 ADD AND DUP3 ADD DUP1 PUSH1 0x40 MSTORE POP DUP2 ADD SWAP1 PUSH2 0x41A SWAP2 SWAP1 PUSH2 0x2853 JUMP JUMPDEST PUSH1 0x1 PUSH1 0x1 PUSH1 0xA0 SHL SUB AND EQ PUSH2 0x440 JUMPI PUSH1 0x40 MLOAD PUSH3 0x461BCD PUSH1 0xE5 SHL DUP2 MSTORE PUSH1 0x4 ADD PUSH2 0x361 SWAP1 PUSH2 0x366C JUMP JUMPDEST PUSH1 0x0 PUSH2 0x44B DUP8 PUSH2 0x177A JUMP JUMPDEST SWAP1 POP PUSH1 0x0 PUSH2 0x458 DUP7 PUSH2 0x180D JUMP JUMPDEST SWAP1 POP PUSH1 0x3 DUP2 PUSH1 0xFF AND LT PUSH2 0x47D JUMPI PUSH1 0x40 MLOAD PUSH3 0x461BCD PUSH1 0xE5 SHL DUP2 MSTORE PUSH1 0x4 ADD PUSH2 0x361 SWAP1 PUSH2 0x3434 JUMP JUMPDEST PUSH1 0x0 DUP2 PUSH1 0xFF AND GT DUP1 ISZERO PUSH2 0x493 JUMPI POP PUSH1 0xA DUP2 PUSH1 0xFF AND LT JUMPDEST PUSH2 0x4AF JUMPI PUSH1 0x40 MLOAD PUSH3 0x461BCD PUSH1 0xE5 SHL DUP2 MSTORE PUSH1 0x4 ADD PUSH2 0x361 SWAP1 PUSH2 0x38A6 JUMP JUMPDEST DUP2 PUSH1 0x0 ADD MLOAD PUSH1 0xFF AND PUSH1 0x5 EQ DUP1 PUSH2 0x4CC JUMPI POP DUP2 PUSH1 0x0 ADD MLOAD PUSH1 0xFF AND PUSH1 0x37 EQ JUMPDEST DUP1 PUSH2 0x4DE JUMPI POP DUP2 PUSH1 0x0 ADD MLOAD PUSH1 0xFF AND PUSH1 0x46 EQ JUMPDEST PUSH2 0x4FA JUMPI PUSH1 0x40 MLOAD PUSH3 0x461BCD PUSH1 0xE5 SHL DUP2 MSTORE PUSH1 0x4 ADD PUSH2 0x361 SWAP1 PUSH2 0x32BC JUMP JUMPDEST PUSH1 0xAA PUSH1 0x20 DUP4 ADD MSTORE PUSH1 0x0 DUP3 MSTORE PUSH2 0x180 DUP3 ADD DUP8 SWAP1 MSTORE PUSH1 0x3 SLOAD PUSH1 0x40 MLOAD PUSH4 0x315017C3 PUSH1 0xE1 SHL DUP2 MSTORE PUSH1 0x1 PUSH1 0x1 PUSH1 0xA0 SHL SUB SWAP1 SWAP2 AND SWAP1 PUSH4 0x62A02F86 SWAP1 PUSH2 0x53F SWAP1 DUP12 SWAP1 DUP11 SWAP1 PUSH1 0x4 ADD PUSH2 0x2DD6 JUMP JUMPDEST PUSH1 0x0 PUSH1 0x40 MLOAD DUP1 DUP4 SUB DUP2 PUSH1 0x0 DUP8 DUP1 EXTCODESIZE ISZERO DUP1 ISZERO PUSH2 0x559 JUMPI PUSH1 0x0 DUP1 REVERT JUMPDEST POP GAS CALL ISZERO DUP1 ISZERO PUSH2 0x56D JUMPI RETURNDATASIZE PUSH1 0x0 DUP1 RETURNDATACOPY RETURNDATASIZE PUSH1 0x0 REVERT JUMPDEST POP POP POP POP PUSH2 0x57B DUP9 DUP4 PUSH2 0x18BF JUMP JUMPDEST PUSH2 0x586 DUP7 PUSH1 0x1 PUSH2 0x196A JUMP JUMPDEST POP MLOAD PUSH1 0x1 PUSH1 0x0 SSTORE SWAP7 SWAP6 POP POP POP POP POP POP JUMP JUMPDEST PUSH32 0x7F1E4E9F3D9BA0452A25CFEF4CD4C6FFC86158D06ED2F585FA0093E12DEC429C DUP2 JUMP JUMPDEST PUSH4 0xA85BD01 PUSH1 0xE1 SHL SWAP6 SWAP5 POP POP POP POP POP JUMP JUMPDEST PUSH1 0x0 DUP1 MLOAD PUSH1 0x20 PUSH2 0x3A53 DUP4 CODECOPY DUP2 MLOAD SWAP2 MSTORE DUP2 JUMP JUMPDEST PUSH1 0x0 DUP2 DUP2 MSTORE PUSH1 0x1 PUSH1 0x20 MSTORE PUSH1 0x40 SWAP1 KECCAK256 PUSH1 0x2 ADD SLOAD JUMPDEST SWAP2 SWAP1 POP JUMP JUMPDEST PUSH1 0x0 DUP3 DUP2 MSTORE PUSH1 0x1 PUSH1 0x20 MSTORE PUSH1 0x40 SWAP1 KECCAK256 PUSH1 0x2 ADD SLOAD PUSH2 0x614 SWAP1 PUSH2 0x2D3 PUSH2 0x1B3A JUMP JUMPDEST PUSH2 0x630 JUMPI PUSH1 0x40 MLOAD PUSH3 0x461BCD PUSH1 0xE5 SHL DUP2 MSTORE PUSH1 0x4 ADD PUSH2 0x361 SWAP1 PUSH2 0x2EF6 JUMP JUMPDEST PUSH2 0x63A DUP3 DUP3 PUSH2 0x1B3E JUMP JUMPDEST POP POP JUMP JUMPDEST PUSH1 0x0 PUSH1 0x2 PUSH1 0x0 SLOAD EQ ISZERO PUSH2 0x663 JUMPI PUSH1 0x40 MLOAD PUSH3 0x461BCD PUSH1 0xE5 SHL DUP2 MSTORE PUSH1 0x4 ADD PUSH2 0x361 SWAP1 PUSH2 0x382D JUMP JUMPDEST PUSH1 0x2 PUSH1 0x0 SSTORE PUSH2 0x670 PUSH2 0xA61 JUMP JUMPDEST ISZERO PUSH2 0x68D JUMPI PUSH1 0x40 MLOAD PUSH3 0x461BCD PUSH1 0xE5 SHL DUP2 MSTORE PUSH1 0x4 ADD PUSH2 0x361 SWAP1 PUSH2 0x3292 JUMP JUMPDEST PUSH1 0x9 SLOAD PUSH1 0x40 MLOAD PUSH4 0x31A9108F PUSH1 0xE1 SHL DUP2 MSTORE DUP5 SWAP2 DUP3 SWAP2 ADDRESS SWAP2 PUSH1 0x1 PUSH1 0x1 PUSH1 0xA0 SHL SUB AND SWAP1 PUSH4 0x6352211E SWAP1 PUSH2 0x6C1 SWAP1 DUP6 SWAP1 PUSH1 0x4 ADD PUSH2 0x2D5B JUMP JUMPDEST PUSH1 0x20 PUSH1 0x40 MLOAD DUP1 DUP4 SUB DUP2 PUSH1 0x0 DUP8 DUP1 EXTCODESIZE ISZERO DUP1 ISZERO PUSH2 0x6DB JUMPI PUSH1 0x0 DUP1 REVERT JUMPDEST POP GAS CALL ISZERO DUP1 ISZERO PUSH2 0x6EF JUMPI RETURNDATASIZE PUSH1 0x0 DUP1 RETURNDATACOPY RETURNDATASIZE PUSH1 0x0 REVERT JUMPDEST POP POP POP POP PUSH1 0x40 MLOAD RETURNDATASIZE PUSH1 0x1F NOT PUSH1 0x1F DUP3 ADD AND DUP3 ADD DUP1 PUSH1 0x40 MSTORE POP DUP2 ADD SWAP1 PUSH2 0x713 SWAP2 SWAP1 PUSH2 0x2853 JUMP JUMPDEST PUSH1 0x1 PUSH1 0x1 PUSH1 0xA0 SHL SUB AND EQ PUSH2 0x739 JUMPI PUSH1 0x40 MLOAD PUSH3 0x461BCD PUSH1 0xE5 SHL DUP2 MSTORE PUSH1 0x4 ADD PUSH2 0x361 SWAP1 PUSH2 0x366C JUMP JUMPDEST PUSH1 0x0 PUSH2 0x744 DUP7 PUSH2 0x177A JUMP JUMPDEST SWAP1 POP PUSH1 0x0 PUSH2 0x755 DUP3 PUSH1 0x80 ADD MLOAD PUSH2 0x180D JUMP JUMPDEST SWAP1 POP DUP1 PUSH1 0xFF AND PUSH1 0x1 EQ PUSH2 0x77A JUMPI PUSH1 0x40 MLOAD PUSH3 0x461BCD PUSH1 0xE5 SHL DUP2 MSTORE PUSH1 0x4 ADD PUSH2 0x361 SWAP1 PUSH2 0x371D JUMP JUMPDEST DUP2 MLOAD PUSH2 0x785 SWAP1 PUSH2 0x1BA7 JUMP JUMPDEST PUSH1 0xFF AND ISZERO PUSH2 0x7A5 JUMPI PUSH1 0x40 MLOAD PUSH3 0x461BCD PUSH1 0xE5 SHL DUP2 MSTORE PUSH1 0x4 ADD PUSH2 0x361 SWAP1 PUSH2 0x3145 JUMP JUMPDEST DUP2 MLOAD PUSH2 0x7B0 SWAP1 PUSH2 0x1BF6 JUMP JUMPDEST PUSH1 0xFF AND ISZERO PUSH2 0x7D0 JUMPI PUSH1 0x40 MLOAD PUSH3 0x461BCD PUSH1 0xE5 SHL DUP2 MSTORE PUSH1 0x4 ADD PUSH2 0x361 SWAP1 PUSH2 0x33B1 JUMP JUMPDEST PUSH1 0xAA PUSH1 0x20 DUP4 ADD DUP2 SWAP1 MSTORE PUSH1 0x60 DUP4 ADD MSTORE PUSH1 0x0 DUP3 MSTORE PUSH2 0x180 DUP3 ADD DUP7 SWAP1 MSTORE PUSH2 0x7F4 DUP8 DUP4 PUSH2 0x18BF JUMP JUMPDEST PUSH2 0x803 DUP3 PUSH1 0x80 ADD MLOAD PUSH1 0x6 PUSH2 0x196A JUMP JUMPDEST POP POP PUSH1 0x1 PUSH1 0x0 SSTORE POP PUSH1 0xAA SWAP5 SWAP4 POP POP POP POP JUMP JUMPDEST PUSH1 0x2 PUSH1 0x0 SLOAD EQ ISZERO PUSH2 0x838 JUMPI PUSH1 0x40 MLOAD PUSH3 0x461BCD PUSH1 0xE5 SHL DUP2 MSTORE PUSH1 0x4 ADD PUSH2 0x361 SWAP1 PUSH2 0x382D JUMP JUMPDEST PUSH1 0x2 PUSH1 0x0 SSTORE PUSH2 0x845 PUSH2 0xA61 JUMP JUMPDEST ISZERO PUSH2 0x862 JUMPI PUSH1 0x40 MLOAD PUSH3 0x461BCD PUSH1 0xE5 SHL DUP2 MSTORE PUSH1 0x4 ADD PUSH2 0x361 SWAP1 PUSH2 0x3292 JUMP JUMPDEST PUSH1 0x0 PUSH2 0x86D DUP4 PUSH2 0x180D JUMP JUMPDEST SWAP1 POP PUSH1 0x0 DUP2 PUSH1 0xFF AND GT DUP1 ISZERO PUSH2 0x885 JUMPI POP PUSH1 0xA DUP2 PUSH1 0xFF AND LT JUMPDEST PUSH2 0x8A1 JUMPI PUSH1 0x40 MLOAD PUSH3 0x461BCD PUSH1 0xE5 SHL DUP2 MSTORE PUSH1 0x4 ADD PUSH2 0x361 SWAP1 PUSH2 0x3044 JUMP JUMPDEST PUSH1 0x5 DUP2 PUSH1 0xFF AND LT PUSH2 0x8C4 JUMPI PUSH1 0x40 MLOAD PUSH3 0x461BCD PUSH1 0xE5 SHL DUP2 MSTORE PUSH1 0x4 ADD PUSH2 0x361 SWAP1 PUSH2 0x2F73 JUMP JUMPDEST PUSH2 0x8D0 DUP6 DUP6 DUP6 DUP6 PUSH2 0x1C3A JUMP JUMPDEST PUSH2 0x8DB DUP4 PUSH1 0x1 PUSH2 0x196A JUMP JUMPDEST POP POP PUSH1 0x1 PUSH1 0x0 SSTORE POP POP POP JUMP JUMPDEST PUSH2 0x8EF PUSH2 0x1B3A JUMP JUMPDEST PUSH1 0x1 PUSH1 0x1 PUSH1 0xA0 SHL SUB AND DUP2 PUSH1 0x1 PUSH1 0x1 PUSH1 0xA0 SHL SUB AND EQ PUSH2 0x91F JUMPI PUSH1 0x40 MLOAD PUSH3 0x461BCD PUSH1 0xE5 SHL DUP2 MSTORE PUSH1 0x4 ADD PUSH2 0x361 SWAP1 PUSH2 0x38DD JUMP JUMPDEST PUSH2 0x63A DUP3 DUP3 PUSH2 0x21A9 JUMP JUMPDEST PUSH1 0x0 NOT DUP2 JUMP JUMPDEST PUSH2 0x95B PUSH32 0x65D7A28E3265B37A6474929F336521B332C1681B933F6CB9F3376673440D862A PUSH2 0x2D3 PUSH2 0x1B3A JUMP JUMPDEST PUSH2 0x977 JUMPI PUSH1 0x40 MLOAD PUSH3 0x461BCD PUSH1 0xE5 SHL DUP2 MSTORE PUSH1 0x4 ADD PUSH2 0x361 SWAP1 PUSH2 0x3203 JUMP JUMPDEST PUSH2 0x97F PUSH2 0x2212 JUMP JUMPDEST JUMP JUMPDEST PUSH1 0x2 PUSH1 0x0 SLOAD EQ ISZERO PUSH2 0x9A4 JUMPI PUSH1 0x40 MLOAD PUSH3 0x461BCD PUSH1 0xE5 SHL DUP2 MSTORE PUSH1 0x4 ADD PUSH2 0x361 SWAP1 PUSH2 0x382D JUMP JUMPDEST PUSH1 0x2 PUSH1 0x0 SSTORE PUSH2 0x9D5 PUSH32 0x7F1E4E9F3D9BA0452A25CFEF4CD4C6FFC86158D06ED2F585FA0093E12DEC429C PUSH2 0x2D3 PUSH2 0x1B3A JUMP JUMPDEST PUSH2 0x9F1 JUMPI PUSH1 0x40 MLOAD PUSH3 0x461BCD PUSH1 0xE5 SHL DUP2 MSTORE PUSH1 0x4 ADD PUSH2 0x361 SWAP1 PUSH2 0x3319 JUMP JUMPDEST PUSH1 0x9 SLOAD PUSH1 0x40 MLOAD PUSH4 0x21421707 PUSH1 0xE1 SHL DUP2 MSTORE DUP3 SWAP2 PUSH1 0x1 PUSH1 0x1 PUSH1 0xA0 SHL SUB AND SWAP1 PUSH4 0x42842E0E SWAP1 PUSH2 0xA25 SWAP1 ADDRESS SWAP1 DUP8 SWAP1 DUP7 SWAP1 PUSH1 0x4 ADD PUSH2 0x2CB0 JUMP JUMPDEST PUSH1 0x0 PUSH1 0x40 MLOAD DUP1 DUP4 SUB DUP2 PUSH1 0x0 DUP8 DUP1 EXTCODESIZE ISZERO DUP1 ISZERO PUSH2 0xA3F JUMPI PUSH1 0x0 DUP1 REVERT JUMPDEST POP GAS CALL ISZERO DUP1 ISZERO PUSH2 0xA53 JUMPI RETURNDATASIZE PUSH1 0x0 DUP1 RETURNDATACOPY RETURNDATASIZE PUSH1 0x0 REVERT JUMPDEST POP POP PUSH1 0x1 PUSH1 0x0 SSTORE POP POP POP POP POP JUMP JUMPDEST PUSH1 0x2 SLOAD PUSH1 0xFF AND SWAP1 JUMP JUMPDEST PUSH1 0x0 PUSH1 0x2 PUSH1 0x0 SLOAD EQ ISZERO PUSH2 0xA8F JUMPI PUSH1 0x40 MLOAD PUSH3 0x461BCD PUSH1 0xE5 SHL DUP2 MSTORE PUSH1 0x4 ADD PUSH2 0x361 SWAP1 PUSH2 0x382D JUMP JUMPDEST PUSH1 0x2 PUSH1 0x0 SSTORE PUSH2 0xA9C PUSH2 0xA61 JUMP JUMPDEST ISZERO PUSH2 0xAB9 JUMPI PUSH1 0x40 MLOAD PUSH3 0x461BCD PUSH1 0xE5 SHL DUP2 MSTORE PUSH1 0x4 ADD PUSH2 0x361 SWAP1 PUSH2 0x3292 JUMP JUMPDEST PUSH1 0x9 SLOAD PUSH1 0x40 MLOAD PUSH4 0x31A9108F PUSH1 0xE1 SHL DUP2 MSTORE DUP6 SWAP2 DUP3 SWAP2 ADDRESS SWAP2 PUSH1 0x1 PUSH1 0x1 PUSH1 0xA0 SHL SUB AND SWAP1 PUSH4 0x6352211E SWAP1 PUSH2 0xAED SWAP1 DUP6 SWAP1 PUSH1 0x4 ADD PUSH2 0x2D5B JUMP JUMPDEST PUSH1 0x20 PUSH1 0x40 MLOAD DUP1 DUP4 SUB DUP2 PUSH1 0x0 DUP8 DUP1 EXTCODESIZE ISZERO DUP1 ISZERO PUSH2 0xB07 JUMPI PUSH1 0x0 DUP1 REVERT JUMPDEST POP GAS CALL ISZERO DUP1 ISZERO PUSH2 0xB1B JUMPI RETURNDATASIZE PUSH1 0x0 DUP1 RETURNDATACOPY RETURNDATASIZE PUSH1 0x0 REVERT JUMPDEST POP POP POP POP PUSH1 0x40 MLOAD RETURNDATASIZE PUSH1 0x1F NOT PUSH1 0x1F DUP3 ADD AND DUP3 ADD DUP1 PUSH1 0x40 MSTORE POP DUP2 ADD SWAP1 PUSH2 0xB3F SWAP2 SWAP1 PUSH2 0x2853 JUMP JUMPDEST PUSH1 0x1 PUSH1 0x1 PUSH1 0xA0 SHL SUB AND EQ PUSH2 0xB65 JUMPI PUSH1 0x40 MLOAD PUSH3 0x461BCD PUSH1 0xE5 SHL DUP2 MSTORE PUSH1 0x4 ADD PUSH2 0x361 SWAP1 PUSH2 0x366C JUMP JUMPDEST PUSH1 0x0 PUSH2 0xB70 DUP8 PUSH2 0x177A JUMP JUMPDEST SWAP1 POP PUSH1 0x0 PUSH2 0xB81 DUP3 PUSH1 0x80 ADD MLOAD PUSH2 0x180D JUMP JUMPDEST SWAP1 POP PUSH1 0x0 DUP2 PUSH1 0xFF AND GT DUP1 ISZERO PUSH2 0xB99 JUMPI POP PUSH1 0xA DUP2 PUSH1 0xFF AND LT JUMPDEST PUSH2 0xBB5 JUMPI PUSH1 0x40 MLOAD PUSH3 0x461BCD PUSH1 0xE5 SHL DUP2 MSTORE PUSH1 0x4 ADD PUSH2 0x361 SWAP1 PUSH2 0x317C JUMP JUMPDEST PUSH1 0x31 DUP3 PUSH1 0x0 ADD MLOAD PUSH1 0xFF AND GT DUP1 PUSH2 0xBCE JUMPI POP PUSH1 0x5 DUP2 PUSH1 0xFF AND LT JUMPDEST PUSH2 0xBEA JUMPI PUSH1 0x40 MLOAD PUSH3 0x461BCD PUSH1 0xE5 SHL DUP2 MSTORE PUSH1 0x4 ADD PUSH2 0x361 SWAP1 PUSH2 0x36B0 JUMP JUMPDEST DUP2 PUSH1 0x0 ADD MLOAD PUSH1 0xFF AND PUSH1 0x1 EQ DUP1 PUSH2 0xC07 JUMPI POP DUP2 PUSH1 0x0 ADD MLOAD PUSH1 0xFF AND PUSH1 0x33 EQ JUMPDEST PUSH2 0xC23 JUMPI PUSH1 0x40 MLOAD PUSH3 0x461BCD PUSH1 0xE5 SHL DUP2 MSTORE PUSH1 0x4 ADD PUSH2 0x361 SWAP1 PUSH2 0x336F JUMP JUMPDEST DUP7 DUP3 PUSH2 0x180 ADD MLOAD EQ PUSH2 0xC47 JUMPI PUSH1 0x40 MLOAD PUSH3 0x461BCD PUSH1 0xE5 SHL DUP2 MSTORE PUSH1 0x4 ADD PUSH2 0x361 SWAP1 PUSH2 0x3754 JUMP JUMPDEST PUSH1 0xAA PUSH1 0x60 DUP4 ADD MSTORE DUP6 PUSH2 0xC5D JUMPI PUSH1 0x5 DUP3 MSTORE PUSH1 0x0 NOT SWAP6 POP JUMPDEST PUSH2 0x180 DUP3 ADD DUP7 SWAP1 MSTORE PUSH2 0xC6F DUP9 DUP4 PUSH2 0x18BF JUMP JUMPDEST PUSH2 0xC7E DUP3 PUSH1 0x80 ADD MLOAD PUSH1 0x2 PUSH2 0x196A JUMP JUMPDEST POP POP PUSH1 0x1 PUSH1 0x0 SSTORE POP PUSH1 0xAA SWAP6 SWAP5 POP POP POP POP POP JUMP JUMPDEST PUSH2 0xCBD PUSH32 0x65D7A28E3265B37A6474929F336521B332C1681B933F6CB9F3376673440D862A PUSH2 0x2D3 PUSH2 0x1B3A JUMP JUMPDEST PUSH2 0xCD9 JUMPI PUSH1 0x40 MLOAD PUSH3 0x461BCD PUSH1 0xE5 SHL DUP2 MSTORE PUSH1 0x4 ADD PUSH2 0x361 SWAP1 PUSH2 0x3203 JUMP JUMPDEST PUSH2 0x97F PUSH2 0x2280 JUMP JUMPDEST PUSH1 0x2 PUSH1 0x0 SLOAD EQ ISZERO PUSH2 0xD04 JUMPI PUSH1 0x40 MLOAD PUSH3 0x461BCD PUSH1 0xE5 SHL DUP2 MSTORE PUSH1 0x4 ADD PUSH2 0x361 SWAP1 PUSH2 0x382D JUMP JUMPDEST PUSH1 0x2 PUSH1 0x0 SSTORE PUSH2 0xD11 PUSH2 0xA61 JUMP JUMPDEST ISZERO PUSH2 0xD2E JUMPI PUSH1 0x40 MLOAD PUSH3 0x461BCD PUSH1 0xE5 SHL DUP2 MSTORE PUSH1 0x4 ADD PUSH2 0x361 SWAP1 PUSH2 0x3292 JUMP JUMPDEST PUSH1 0x9 SLOAD PUSH1 0x40 MLOAD PUSH4 0x31A9108F PUSH1 0xE1 SHL DUP2 MSTORE DUP6 SWAP2 DUP3 SWAP2 ADDRESS SWAP2 PUSH1 0x1 PUSH1 0x1 PUSH1 0xA0 SHL SUB AND SWAP1 PUSH4 0x6352211E SWAP1 PUSH2 0xD62 SWAP1 DUP6 SWAP1 PUSH1 0x4 ADD PUSH2 0x2D5B JUMP JUMPDEST PUSH1 0x20 PUSH1 0x40 MLOAD DUP1 DUP4 SUB DUP2 PUSH1 0x0 DUP8 DUP1 EXTCODESIZE ISZERO DUP1 ISZERO PUSH2 0xD7C JUMPI PUSH1 0x0 DUP1 REVERT JUMPDEST POP GAS CALL ISZERO DUP1 ISZERO PUSH2 0xD90 JUMPI RETURNDATASIZE PUSH1 0x0 DUP1 RETURNDATACOPY RETURNDATASIZE PUSH1 0x0 REVERT JUMPDEST POP POP POP POP PUSH1 0x40 MLOAD RETURNDATASIZE PUSH1 0x1F NOT PUSH1 0x1F DUP3 ADD AND DUP3 ADD DUP1 PUSH1 0x40 MSTORE POP DUP2 ADD SWAP1 PUSH2 0xDB4 SWAP2 SWAP1 PUSH2 0x2853 JUMP JUMPDEST PUSH1 0x1 PUSH1 0x1 PUSH1 0xA0 SHL SUB AND EQ PUSH2 0xDDA JUMPI PUSH1 0x40 MLOAD PUSH3 0x461BCD PUSH1 0xE5 SHL DUP2 MSTORE PUSH1 0x4 ADD PUSH2 0x361 SWAP1 PUSH2 0x366C JUMP JUMPDEST PUSH1 0x0 PUSH2 0xDE5 DUP8 PUSH2 0x177A JUMP JUMPDEST SWAP1 POP PUSH1 0x0 PUSH2 0xDF6 DUP3 PUSH1 0x80 ADD MLOAD PUSH2 0x180D JUMP JUMPDEST SWAP1 POP PUSH1 0x0 DUP2 PUSH1 0xFF AND GT DUP1 ISZERO PUSH2 0xE0E JUMPI POP PUSH1 0xA DUP2 PUSH1 0xFF AND LT JUMPDEST PUSH2 0xE2A JUMPI PUSH1 0x40 MLOAD PUSH3 0x461BCD PUSH1 0xE5 SHL DUP2 MSTORE PUSH1 0x4 ADD PUSH2 0x361 SWAP1 PUSH2 0x347E JUMP JUMPDEST DUP2 MLOAD PUSH2 0xE35 SWAP1 PUSH2 0x1BF6 JUMP JUMPDEST PUSH1 0xFF AND ISZERO PUSH2 0xE55 JUMPI PUSH1 0x40 MLOAD PUSH3 0x461BCD PUSH1 0xE5 SHL DUP2 MSTORE PUSH1 0x4 ADD PUSH2 0x361 SWAP1 PUSH2 0x2EBF JUMP JUMPDEST DUP7 DUP3 PUSH2 0x180 ADD MLOAD EQ PUSH2 0xE79 JUMPI PUSH1 0x40 MLOAD PUSH3 0x461BCD PUSH1 0xE5 SHL DUP2 MSTORE PUSH1 0x4 ADD PUSH2 0x361 SWAP1 PUSH2 0x3099 JUMP JUMPDEST PUSH2 0x120 DUP3 ADD DUP7 SWAP1 MSTORE PUSH2 0x160 DUP3 ADD DUP6 SWAP1 MSTORE PUSH2 0xE93 DUP9 DUP4 PUSH2 0x22DB JUMP JUMPDEST PUSH2 0xEA2 DUP3 PUSH1 0x80 ADD MLOAD PUSH1 0x3 PUSH2 0x196A JUMP JUMPDEST POP POP PUSH1 0x1 PUSH1 0x0 SSTORE POP POP POP POP POP POP JUMP JUMPDEST PUSH1 0x0 DUP3 DUP2 MSTORE PUSH1 0x1 PUSH1 0x20 MSTORE PUSH1 0x40 DUP2 KECCAK256 PUSH2 0xEC9 SWAP1 DUP4 PUSH2 0x233C JUMP JUMPDEST SWAP1 POP JUMPDEST SWAP3 SWAP2 POP POP JUMP JUMPDEST PUSH1 0x0 DUP3 DUP2 MSTORE PUSH1 0x1 PUSH1 0x20 MSTORE PUSH1 0x40 DUP2 KECCAK256 PUSH2 0xEC9 SWAP1 DUP4 PUSH2 0x2348 JUMP JUMPDEST PUSH2 0xF04 PUSH1 0x0 DUP1 MLOAD PUSH1 0x20 PUSH2 0x3A53 DUP4 CODECOPY DUP2 MLOAD SWAP2 MSTORE PUSH2 0x2D3 PUSH2 0x1B3A JUMP JUMPDEST PUSH2 0xF20 JUMPI PUSH1 0x40 MLOAD PUSH3 0x461BCD PUSH1 0xE5 SHL DUP2 MSTORE PUSH1 0x4 ADD PUSH2 0x361 SWAP1 PUSH2 0x2E78 JUMP JUMPDEST PUSH1 0x2 PUSH1 0x0 SLOAD EQ ISZERO PUSH2 0xF43 JUMPI PUSH1 0x40 MLOAD PUSH3 0x461BCD PUSH1 0xE5 SHL DUP2 MSTORE PUSH1 0x4 ADD PUSH2 0x361 SWAP1 PUSH2 0x382D JUMP JUMPDEST PUSH1 0x2 PUSH1 0x0 SSTORE PUSH1 0xB SLOAD PUSH1 0x40 MLOAD PUSH4 0x21421707 PUSH1 0xE1 SHL DUP2 MSTORE PUSH1 0x1 PUSH1 0x1 PUSH1 0xA0 SHL SUB SWAP1 SWAP2 AND SWAP1 PUSH4 0x42842E0E SWAP1 PUSH2 0xF7C SWAP1 ADDRESS SWAP1 DUP7 SWAP1 DUP7 SWAP1 PUSH1 0x4 ADD PUSH2 0x2CB0 JUMP JUMPDEST PUSH1 0x0 PUSH1 0x40 MLOAD DUP1 DUP4 SUB DUP2 PUSH1 0x0 DUP8 DUP1 EXTCODESIZE ISZERO DUP1 ISZERO PUSH2 0xF96 JUMPI PUSH1 0x0 DUP1 REVERT JUMPDEST POP GAS CALL ISZERO DUP1 ISZERO PUSH2 0xFAA JUMPI RETURNDATASIZE PUSH1 0x0 DUP1 RETURNDATACOPY RETURNDATASIZE PUSH1 0x0 REVERT JUMPDEST POP POP PUSH1 0x1 PUSH1 0x0 SSTORE POP POP POP POP JUMP JUMPDEST PUSH1 0x0 DUP2 JUMP JUMPDEST PUSH1 0x0 DUP2 DUP2 MSTORE PUSH1 0x1 PUSH1 0x20 MSTORE PUSH1 0x40 DUP2 KECCAK256 PUSH2 0xECC SWAP1 PUSH2 0x235D JUMP JUMPDEST PUSH1 0x0 DUP3 DUP2 MSTORE PUSH1 0x1 PUSH1 0x20 MSTORE PUSH1 0x40 SWAP1 KECCAK256 PUSH1 0x2 ADD SLOAD PUSH2 0xFF1 SWAP1 PUSH2 0x2D3 PUSH2 0x1B3A JUMP JUMPDEST PUSH2 0x91F JUMPI PUSH1 0x40 MLOAD PUSH3 0x461BCD PUSH1 0xE5 SHL DUP2 MSTORE PUSH1 0x4 ADD PUSH2 0x361 SWAP1 PUSH2 0x31B3 JUMP JUMPDEST PUSH2 0x1027 PUSH1 0x0 DUP1 MLOAD PUSH1 0x20 PUSH2 0x3A53 DUP4 CODECOPY DUP2 MLOAD SWAP2 MSTORE PUSH2 0x2D3 PUSH2 0x1B3A JUMP JUMPDEST PUSH2 0x1043 JUMPI PUSH1 0x40 MLOAD PUSH3 0x461BCD PUSH1 0xE5 SHL DUP2 MSTORE PUSH1 0x4 ADD PUSH2 0x361 SWAP1 PUSH2 0x2E78 JUMP JUMPDEST PUSH1 0x1 PUSH1 0x1 PUSH1 0xA0 SHL SUB DUP2 AND PUSH2 0x1069 JUMPI PUSH1 0x40 MLOAD PUSH3 0x461BCD PUSH1 0xE5 SHL DUP2 MSTORE PUSH1 0x4 ADD PUSH2 0x361 SWAP1 PUSH2 0x33E8 JUMP JUMPDEST PUSH1 0x3 DUP1 SLOAD PUSH1 0x1 PUSH1 0x1 PUSH1 0xA0 SHL SUB NOT AND PUSH1 0x1 PUSH1 0x1 PUSH1 0xA0 SHL SUB SWAP3 SWAP1 SWAP3 AND SWAP2 SWAP1 SWAP2 OR SWAP1 SSTORE JUMP JUMPDEST PUSH32 0x65D7A28E3265B37A6474929F336521B332C1681B933F6CB9F3376673440D862A DUP2 JUMP JUMPDEST PUSH1 0x2 PUSH1 0x0 SLOAD EQ ISZERO PUSH2 0x10D2 JUMPI PUSH1 0x40 MLOAD PUSH3 0x461BCD PUSH1 0xE5 SHL DUP2 MSTORE PUSH1 0x4 ADD PUSH2 0x361 SWAP1 PUSH2 0x382D JUMP JUMPDEST PUSH1 0x2 PUSH1 0x0 SSTORE PUSH2 0x10F1 PUSH1 0x0 DUP1 MLOAD PUSH1 0x20 PUSH2 0x3A53 DUP4 CODECOPY DUP2 MLOAD SWAP2 MSTORE PUSH2 0x2D3 PUSH2 0x1B3A JUMP JUMPDEST PUSH2 0x110D JUMPI PUSH1 0x40 MLOAD PUSH3 0x461BCD PUSH1 0xE5 SHL DUP2 MSTORE PUSH1 0x4 ADD PUSH2 0x361 SWAP1 PUSH2 0x2E78 JUMP JUMPDEST PUSH1 0x3 SLOAD PUSH1 0x40 MLOAD PUSH4 0x63B8D4C1 PUSH1 0xE1 SHL DUP2 MSTORE PUSH1 0x1 PUSH1 0x1 PUSH1 0xA0 SHL SUB SWAP1 SWAP2 AND SWAP1 PUSH4 0xC771A982 SWAP1 PUSH2 0x113B SWAP1 PUSH1 0x4 ADD PUSH2 0x3414 JUMP JUMPDEST PUSH1 0x20 PUSH1 0x40 MLOAD DUP1 DUP4 SUB DUP2 DUP7 DUP1 EXTCODESIZE ISZERO DUP1 ISZERO PUSH2 0x1153 JUMPI PUSH1 0x0 DUP1 REVERT JUMPDEST POP GAS STATICCALL ISZERO DUP1 ISZERO PUSH2 0x1167 JUMPI RETURNDATASIZE PUSH1 0x0 DUP1 RETURNDATACOPY RETURNDATASIZE PUSH1 0x0 REVERT JUMPDEST POP POP POP POP PUSH1 0x40 MLOAD RETURNDATASIZE PUSH1 0x1F NOT PUSH1 0x1F DUP3 ADD AND DUP3 ADD DUP1 PUSH1 0x40 MSTORE POP DUP2 ADD SWAP1 PUSH2 0x118B SWAP2 SWAP1 PUSH2 0x2853 JUMP JUMPDEST PUSH1 0xA DUP1 SLOAD PUSH1 0x1 PUSH1 0x1 PUSH1 0xA0 SHL SUB SWAP3 DUP4 AND PUSH1 0x1 PUSH1 0x1 PUSH1 0xA0 SHL SUB NOT SWAP2 DUP3 AND OR SWAP2 DUP3 SWAP1 SSTORE PUSH1 0xB DUP1 SLOAD SWAP1 SWAP2 AND SWAP2 DUP4 AND SWAP2 SWAP1 SWAP2 OR SWAP1 SSTORE PUSH1 0x3 SLOAD PUSH1 0x40 MLOAD PUSH4 0x63B8D4C1 PUSH1 0xE1 SHL DUP2 MSTORE SWAP2 AND SWAP1 PUSH4 0xC771A982 SWAP1 PUSH2 0x11E0 SWAP1 PUSH1 0x4 ADD PUSH2 0x3886 JUMP JUMPDEST PUSH1 0x20 PUSH1 0x40 MLOAD DUP1 DUP4 SUB DUP2 DUP7 DUP1 EXTCODESIZE ISZERO DUP1 ISZERO PUSH2 0x11F8 JUMPI PUSH1 0x0 DUP1 REVERT JUMPDEST POP GAS STATICCALL ISZERO DUP1 ISZERO PUSH2 0x120C JUMPI RETURNDATASIZE PUSH1 0x0 DUP1 RETURNDATACOPY RETURNDATASIZE PUSH1 0x0 REVERT JUMPDEST POP POP POP POP PUSH1 0x40 MLOAD RETURNDATASIZE PUSH1 0x1F NOT PUSH1 0x1F DUP3 ADD AND DUP3 ADD DUP1 PUSH1 0x40 MSTORE POP DUP2 ADD SWAP1 PUSH2 0x1230 SWAP2 SWAP1 PUSH2 0x2853 JUMP JUMPDEST PUSH1 0x4 DUP1 SLOAD PUSH1 0x1 PUSH1 0x1 PUSH1 0xA0 SHL SUB SWAP3 DUP4 AND PUSH1 0x1 PUSH1 0x1 PUSH1 0xA0 SHL SUB NOT SWAP2 DUP3 AND OR DUP1 DUP4 SSTORE PUSH1 0x5 DUP1 SLOAD SWAP1 SWAP3 AND SWAP1 DUP5 AND OR SWAP1 SSTORE PUSH1 0x3 SLOAD PUSH1 0x40 MLOAD PUSH4 0x63B8D4C1 PUSH1 0xE1 SHL DUP2 MSTORE SWAP3 AND SWAP2 PUSH4 0xC771A982 SWAP2 PUSH2 0x127F SWAP2 ADD PUSH2 0x3864 JUMP JUMPDEST PUSH1 0x20 PUSH1 0x40 MLOAD DUP1 DUP4 SUB DUP2 DUP7 DUP1 EXTCODESIZE ISZERO DUP1 ISZERO PUSH2 0x1297 JUMPI PUSH1 0x0 DUP1 REVERT JUMPDEST POP GAS STATICCALL ISZERO DUP1 ISZERO PUSH2 0x12AB JUMPI RETURNDATASIZE PUSH1 0x0 DUP1 RETURNDATACOPY RETURNDATASIZE PUSH1 0x0 REVERT JUMPDEST POP POP POP POP PUSH1 0x40 MLOAD RETURNDATASIZE PUSH1 0x1F NOT PUSH1 0x1F DUP3 ADD AND DUP3 ADD DUP1 PUSH1 0x40 MSTORE POP DUP2 ADD SWAP1 PUSH2 0x12CF SWAP2 SWAP1 PUSH2 0x2853 JUMP JUMPDEST PUSH1 0x6 DUP1 SLOAD PUSH1 0x1 PUSH1 0x1 PUSH1 0xA0 SHL SUB SWAP3 DUP4 AND PUSH1 0x1 PUSH1 0x1 PUSH1 0xA0 SHL SUB NOT SWAP2 DUP3 AND OR SWAP2 DUP3 SWAP1 SSTORE PUSH1 0x7 DUP1 SLOAD SWAP1 SWAP2 AND SWAP2 DUP4 AND SWAP2 SWAP1 SWAP2 OR SWAP1 SSTORE PUSH1 0x3 SLOAD PUSH1 0x40 MLOAD PUSH4 0x63B8D4C1 PUSH1 0xE1 SHL DUP2 MSTORE SWAP2 AND SWAP1 PUSH4 0xC771A982 SWAP1 PUSH2 0x1324 SWAP1 PUSH1 0x4 ADD PUSH2 0x3350 JUMP JUMPDEST PUSH1 0x20 PUSH1 0x40 MLOAD DUP1 DUP4 SUB DUP2 DUP7 DUP1 EXTCODESIZE ISZERO DUP1 ISZERO PUSH2 0x133C JUMPI PUSH1 0x0 DUP1 REVERT JUMPDEST POP GAS STATICCALL ISZERO DUP1 ISZERO PUSH2 0x1350 JUMPI RETURNDATASIZE PUSH1 0x0 DUP1 RETURNDATACOPY RETURNDATASIZE PUSH1 0x0 REVERT JUMPDEST POP POP POP POP PUSH1 0x40 MLOAD RETURNDATASIZE PUSH1 0x1F NOT PUSH1 0x1F DUP3 ADD AND DUP3 ADD DUP1 PUSH1 0x40 MSTORE POP DUP2 ADD SWAP1 PUSH2 0x1374 SWAP2 SWAP1 PUSH2 0x2853 JUMP JUMPDEST PUSH1 0x8 DUP1 SLOAD PUSH1 0x1 PUSH1 0x1 PUSH1 0xA0 SHL SUB SWAP3 DUP4 AND PUSH1 0x1 PUSH1 0x1 PUSH1 0xA0 SHL SUB NOT SWAP2 DUP3 AND OR SWAP2 DUP3 SWAP1 SSTORE PUSH1 0x9 DUP1 SLOAD SWAP1 SWAP2 AND SWAP2 DUP4 AND SWAP2 SWAP1 SWAP2 OR SWAP1 SSTORE PUSH1 0x3 SLOAD PUSH1 0x40 MLOAD PUSH4 0x63B8D4C1 PUSH1 0xE1 SHL DUP2 MSTORE SWAP2 AND SWAP1 PUSH4 0xC771A982 SWAP1 PUSH2 0x13C9 SWAP1 PUSH1 0x4 ADD PUSH2 0x36FD JUMP JUMPDEST PUSH1 0x20 PUSH1 0x40 MLOAD DUP1 DUP4 SUB DUP2 DUP7 DUP1 EXTCODESIZE ISZERO DUP1 ISZERO PUSH2 0x13E1 JUMPI PUSH1 0x0 DUP1 REVERT JUMPDEST POP GAS STATICCALL ISZERO DUP1 ISZERO PUSH2 0x13F5 JUMPI RETURNDATASIZE PUSH1 0x0 DUP1 RETURNDATACOPY RETURNDATASIZE PUSH1 0x0 REVERT JUMPDEST POP POP POP POP PUSH1 0x40 MLOAD RETURNDATASIZE PUSH1 0x1F NOT PUSH1 0x1F DUP3 ADD AND DUP3 ADD DUP1 PUSH1 0x40 MSTORE POP DUP2 ADD SWAP1 PUSH2 0x1419 SWAP2 SWAP1 PUSH2 0x2853 JUMP JUMPDEST PUSH1 0xC DUP1 SLOAD PUSH1 0x1 PUSH1 0x1 PUSH1 0xA0 SHL SUB SWAP3 DUP4 AND PUSH1 0x1 PUSH1 0x1 PUSH1 0xA0 SHL SUB NOT SWAP2 DUP3 AND OR SWAP2 DUP3 SWAP1 SSTORE PUSH1 0xD DUP1 SLOAD SWAP1 SWAP2 AND SWAP2 DUP4 AND SWAP2 SWAP1 SWAP2 OR SWAP1 SSTORE PUSH1 0x3 SLOAD PUSH1 0x40 MLOAD PUSH4 0x63B8D4C1 PUSH1 0xE1 SHL DUP2 MSTORE SWAP2 AND SWAP1 PUSH4 0xC771A982 SWAP1 PUSH2 0x146E SWAP1 PUSH1 0x4 ADD PUSH2 0x37A2 JUMP JUMPDEST PUSH1 0x20 PUSH1 0x40 MLOAD DUP1 DUP4 SUB DUP2 DUP7 DUP1 EXTCODESIZE ISZERO DUP1 ISZERO PUSH2 0x1486 JUMPI PUSH1 0x0 DUP1 REVERT JUMPDEST POP GAS STATICCALL ISZERO DUP1 ISZERO PUSH2 0x149A JUMPI RETURNDATASIZE PUSH1 0x0 DUP1 RETURNDATACOPY RETURNDATASIZE PUSH1 0x0 REVERT JUMPDEST POP POP POP POP PUSH1 0x40 MLOAD RETURNDATASIZE PUSH1 0x1F NOT PUSH1 0x1F DUP3 ADD AND DUP3 ADD DUP1 PUSH1 0x40 MSTORE POP DUP2 ADD SWAP1 PUSH2 0x14BE SWAP2 SWAP1 PUSH2 0x2853 JUMP JUMPDEST PUSH1 0xE DUP1 SLOAD PUSH1 0x1 PUSH1 0x1 PUSH1 0xA0 SHL SUB SWAP3 DUP4 AND PUSH1 0x1 PUSH1 0x1 PUSH1 0xA0 SHL SUB NOT SWAP2 DUP3 AND OR SWAP2 DUP3 SWAP1 SSTORE PUSH1 0xF DUP1 SLOAD SWAP1 SWAP2 AND SWAP2 DUP4 AND SWAP2 SWAP1 SWAP2 OR SWAP1 SSTORE PUSH1 0x3 SLOAD PUSH1 0x40 MLOAD PUSH4 0x63B8D4C1 PUSH1 0xE1 SHL DUP2 MSTORE SWAP2 AND SWAP1 PUSH4 0xC771A982 SWAP1 PUSH2 0x1513 SWAP1 PUSH1 0x4 ADD PUSH2 0x3027 JUMP JUMPDEST PUSH1 0x20 PUSH1 0x40 MLOAD DUP1 DUP4 SUB DUP2 DUP7 DUP1 EXTCODESIZE ISZERO DUP1 ISZERO PUSH2 0x152B JUMPI PUSH1 0x0 DUP1 REVERT JUMPDEST POP GAS STATICCALL ISZERO DUP1 ISZERO PUSH2 0x153F JUMPI RETURNDATASIZE PUSH1 0x0 DUP1 RETURNDATACOPY RETURNDATASIZE PUSH1 0x0 REVERT JUMPDEST POP POP POP POP PUSH1 0x40 MLOAD RETURNDATASIZE PUSH1 0x1F NOT PUSH1 0x1F DUP3 ADD AND DUP3 ADD DUP1 PUSH1 0x40 MSTORE POP DUP2 ADD SWAP1 PUSH2 0x1563 SWAP2 SWAP1 PUSH2 0x2853 JUMP JUMPDEST PUSH1 0x12 DUP1 SLOAD PUSH1 0x1 PUSH1 0x1 PUSH1 0xA0 SHL SUB SWAP3 DUP4 AND PUSH1 0x1 PUSH1 0x1 PUSH1 0xA0 SHL SUB NOT SWAP2 DUP3 AND OR SWAP2 DUP3 SWAP1 SSTORE PUSH1 0x13 DUP1 SLOAD SWAP1 SWAP2 AND SWAP2 DUP4 AND SWAP2 SWAP1 SWAP2 OR SWAP1 SSTORE PUSH1 0x3 SLOAD PUSH1 0x40 MLOAD PUSH4 0x63B8D4C1 PUSH1 0xE1 SHL DUP2 MSTORE SWAP2 AND SWAP1 PUSH4 0xC771A982 SWAP1 PUSH2 0x15B8 SWAP1 PUSH1 0x4 ADD PUSH2 0x307B JUMP JUMPDEST PUSH1 0x20 PUSH1 0x40 MLOAD DUP1 DUP4 SUB DUP2 DUP7 DUP1 EXTCODESIZE ISZERO DUP1 ISZERO PUSH2 0x15D0 JUMPI PUSH1 0x0 DUP1 REVERT JUMPDEST POP GAS STATICCALL ISZERO DUP1 ISZERO PUSH2 0x15E4 JUMPI RETURNDATASIZE PUSH1 0x0 DUP1 RETURNDATACOPY RETURNDATASIZE PUSH1 0x0 REVERT JUMPDEST POP POP POP POP PUSH1 0x40 MLOAD RETURNDATASIZE PUSH1 0x1F NOT PUSH1 0x1F DUP3 ADD AND DUP3 ADD DUP1 PUSH1 0x40 MSTORE POP DUP2 ADD SWAP1 PUSH2 0x1608 SWAP2 SWAP1 PUSH2 0x2853 JUMP JUMPDEST PUSH1 0x10 DUP1 SLOAD PUSH1 0x1 PUSH1 0x1 PUSH1 0xA0 SHL SUB SWAP3 DUP4 AND PUSH1 0x1 PUSH1 0x1 PUSH1 0xA0 SHL SUB NOT SWAP2 DUP3 AND OR SWAP2 DUP3 SWAP1 SSTORE PUSH1 0x11 DUP1 SLOAD SWAP1 SWAP2 AND SWAP2 DUP4 AND SWAP2 SWAP1 SWAP2 OR SWAP1 SSTORE PUSH1 0x3 SLOAD PUSH1 0x40 MLOAD PUSH4 0x63B8D4C1 PUSH1 0xE1 SHL DUP2 MSTORE SWAP2 AND SWAP1 PUSH4 0xC771A982 SWAP1 PUSH2 0x165D SWAP1 PUSH1 0x4 ADD PUSH2 0x364C JUMP JUMPDEST PUSH1 0x20 PUSH1 0x40 MLOAD DUP1 DUP4 SUB DUP2 DUP7 DUP1 EXTCODESIZE ISZERO DUP1 ISZERO PUSH2 0x1675 JUMPI PUSH1 0x0 DUP1 REVERT JUMPDEST POP GAS STATICCALL ISZERO DUP1 ISZERO PUSH2 0x1689 JUMPI RETURNDATASIZE PUSH1 0x0 DUP1 RETURNDATACOPY RETURNDATASIZE PUSH1 0x0 REVERT JUMPDEST POP POP POP POP PUSH1 0x40 MLOAD RETURNDATASIZE PUSH1 0x1F NOT PUSH1 0x1F DUP3 ADD AND DUP3 ADD DUP1 PUSH1 0x40 MSTORE POP DUP2 ADD SWAP1 PUSH2 0x16AD SWAP2 SWAP1 PUSH2 0x2853 JUMP JUMPDEST PUSH1 0x14 DUP1 SLOAD PUSH1 0x1 PUSH1 0x1 PUSH1 0xA0 SHL SUB NOT AND PUSH1 0x1 PUSH1 0x1 PUSH1 0xA0 SHL SUB SWAP3 DUP4 AND OR SWAP1 SSTORE PUSH1 0x3 SLOAD PUSH1 0x40 MLOAD PUSH4 0x63B8D4C1 PUSH1 0xE1 SHL DUP2 MSTORE SWAP2 AND SWAP1 PUSH4 0xC771A982 SWAP1 PUSH2 0x16EE SWAP1 PUSH1 0x4 ADD PUSH2 0x3811 JUMP JUMPDEST PUSH1 0x20 PUSH1 0x40 MLOAD DUP1 DUP4 SUB DUP2 DUP7 DUP1 EXTCODESIZE ISZERO DUP1 ISZERO PUSH2 0x1706 JUMPI PUSH1 0x0 DUP1 REVERT JUMPDEST POP GAS STATICCALL ISZERO DUP1 ISZERO PUSH2 0x171A JUMPI RETURNDATASIZE PUSH1 0x0 DUP1 RETURNDATACOPY RETURNDATASIZE PUSH1 0x0 REVERT JUMPDEST POP POP POP POP PUSH1 0x40 MLOAD RETURNDATASIZE PUSH1 0x1F NOT PUSH1 0x1F DUP3 ADD AND DUP3 ADD DUP1 PUSH1 0x40 MSTORE POP DUP2 ADD SWAP1 PUSH2 0x173E SWAP2 SWAP1 PUSH2 0x2853 JUMP JUMPDEST PUSH1 0x17 DUP1 SLOAD PUSH1 0x1 PUSH1 0x1 PUSH1 0xA0 SHL SUB NOT AND PUSH1 0x1 PUSH1 0x1 PUSH1 0xA0 SHL SUB SWAP3 SWAP1 SWAP3 AND SWAP2 SWAP1 SWAP2 OR SWAP1 SSTORE PUSH1 0x1 PUSH1 0x0 SSTORE JUMP JUMPDEST PUSH1 0x0 PUSH2 0xEC9 DUP4 PUSH1 0x1 PUSH1 0x1 PUSH1 0xA0 SHL SUB DUP5 AND PUSH2 0x2368 JUMP JUMPDEST PUSH2 0x1782 PUSH2 0x2704 JUMP JUMPDEST PUSH1 0x3 SLOAD PUSH1 0x40 MLOAD PUSH4 0x38923CB1 PUSH1 0xE2 SHL DUP2 MSTORE PUSH1 0x0 SWAP2 PUSH1 0x1 PUSH1 0x1 PUSH1 0xA0 SHL SUB AND SWAP1 PUSH4 0xE248F2C4 SWAP1 PUSH2 0x17B3 SWAP1 DUP7 SWAP1 PUSH1 0x4 ADD PUSH2 0x2D5B JUMP JUMPDEST PUSH2 0x1A0 PUSH1 0x40 MLOAD DUP1 DUP4 SUB DUP2 PUSH1 0x0 DUP8 DUP1 EXTCODESIZE ISZERO DUP1 ISZERO PUSH2 0x17CE JUMPI PUSH1 0x0 DUP1 REVERT JUMPDEST POP GAS CALL ISZERO DUP1 ISZERO PUSH2 0x17E2 JUMPI RETURNDATASIZE PUSH1 0x0 DUP1 RETURNDATACOPY RETURNDATASIZE PUSH1 0x0 REVERT JUMPDEST POP POP POP POP PUSH1 0x40 MLOAD RETURNDATASIZE PUSH1 0x1F NOT PUSH1 0x1F DUP3 ADD AND DUP3 ADD DUP1 PUSH1 0x40 MSTORE POP DUP2 ADD SWAP1 PUSH2 0x1806 SWAP2 SWAP1 PUSH2 0x2AE4 JUMP JUMPDEST SWAP4 SWAP3 POP POP POP JUMP JUMPDEST PUSH1 0x5 SLOAD PUSH1 0x0 SWAP1 DUP2 SWAP1 PUSH1 0x1 PUSH1 0x1 PUSH1 0xA0 SHL SUB AND PUSH4 0x9D2C7CEE PUSH2 0x182B PUSH2 0x1B3A JUMP JUMPDEST PUSH1 0x40 MLOAD PUSH1 0x20 ADD PUSH2 0x183B SWAP2 SWAP1 PUSH2 0x2C7F JUMP JUMPDEST PUSH1 0x40 MLOAD PUSH1 0x20 DUP2 DUP4 SUB SUB DUP2 MSTORE SWAP1 PUSH1 0x40 MSTORE DUP1 MLOAD SWAP1 PUSH1 0x20 ADD KECCAK256 DUP6 PUSH1 0x40 MLOAD DUP4 PUSH4 0xFFFFFFFF AND PUSH1 0xE0 SHL DUP2 MSTORE PUSH1 0x4 ADD PUSH2 0x186F SWAP3 SWAP2 SWAP1 PUSH2 0x2DD6 JUMP JUMPDEST PUSH1 0x20 PUSH1 0x40 MLOAD DUP1 DUP4 SUB DUP2 DUP7 DUP1 EXTCODESIZE ISZERO DUP1 ISZERO PUSH2 0x1887 JUMPI PUSH1 0x0 DUP1 REVERT JUMPDEST POP GAS STATICCALL ISZERO DUP1 ISZERO PUSH2 0x189B JUMPI RETURNDATASIZE PUSH1 0x0 DUP1 RETURNDATACOPY RETURNDATASIZE PUSH1 0x0 REVERT JUMPDEST POP POP POP POP PUSH1 0x40 MLOAD RETURNDATASIZE PUSH1 0x1F NOT PUSH1 0x1F DUP3 ADD AND DUP3 ADD DUP1 PUSH1 0x40 MSTORE POP DUP2 ADD SWAP1 PUSH2 0x1806 SWAP2 SWAP1 PUSH2 0x2C65 JUMP JUMPDEST PUSH2 0x18C7 PUSH2 0xA61 JUMP JUMPDEST ISZERO PUSH2 0x18E4 JUMPI PUSH1 0x40 MLOAD PUSH3 0x461BCD PUSH1 0xE5 SHL DUP2 MSTORE PUSH1 0x4 ADD PUSH2 0x361 SWAP1 PUSH2 0x3292 JUMP JUMPDEST PUSH1 0x3 SLOAD PUSH2 0x180 DUP3 ADD MLOAD DUP3 MLOAD PUSH1 0xA0 DUP5 ADD MLOAD PUSH1 0x20 DUP6 ADD MLOAD PUSH1 0x60 DUP7 ADD MLOAD PUSH1 0x40 MLOAD PUSH4 0x31AEAA7F PUSH1 0xE1 SHL DUP2 MSTORE PUSH1 0x1 PUSH1 0x1 PUSH1 0xA0 SHL SUB SWAP1 SWAP7 AND SWAP6 PUSH4 0x635D54FE SWAP6 PUSH2 0x1934 SWAP6 DUP11 SWAP6 SWAP2 SWAP5 SWAP1 SWAP4 SWAP2 SWAP3 SWAP1 SWAP2 SWAP1 PUSH1 0x4 ADD PUSH2 0x2D9E JUMP JUMPDEST PUSH1 0x0 PUSH1 0x40 MLOAD DUP1 DUP4 SUB DUP2 PUSH1 0x0 DUP8 DUP1 EXTCODESIZE ISZERO DUP1 ISZERO PUSH2 0x194E JUMPI PUSH1 0x0 DUP1 REVERT JUMPDEST POP GAS CALL ISZERO DUP1 ISZERO PUSH2 0x1962 JUMPI RETURNDATASIZE PUSH1 0x0 DUP1 RETURNDATACOPY RETURNDATASIZE PUSH1 0x0 REVERT JUMPDEST POP POP POP POP POP POP JUMP JUMPDEST PUSH2 0x1972 PUSH2 0xA61 JUMP JUMPDEST ISZERO PUSH2 0x198F JUMPI PUSH1 0x40 MLOAD PUSH3 0x461BCD PUSH1 0xE5 SHL DUP2 MSTORE PUSH1 0x4 ADD PUSH2 0x361 SWAP1 PUSH2 0x3292 JUMP JUMPDEST PUSH2 0x1997 PUSH2 0x2770 JUMP JUMPDEST PUSH1 0x5 SLOAD PUSH1 0x40 MLOAD PUSH4 0x42324E3 PUSH1 0xE1 SHL DUP2 MSTORE PUSH1 0x0 SWAP2 PUSH1 0x64 SWAP2 PUSH1 0x1 PUSH1 0x1 PUSH1 0xA0 SHL SUB SWAP1 SWAP2 AND SWAP1 PUSH4 0x84649C6 SWAP1 PUSH2 0x19CD SWAP1 DUP9 SWAP1 PUSH1 0x4 ADD PUSH2 0x392C JUMP JUMPDEST PUSH1 0x20 PUSH1 0x40 MLOAD DUP1 DUP4 SUB DUP2 DUP7 DUP1 EXTCODESIZE ISZERO DUP1 ISZERO PUSH2 0x19E5 JUMPI PUSH1 0x0 DUP1 REVERT JUMPDEST POP GAS STATICCALL ISZERO DUP1 ISZERO PUSH2 0x19F9 JUMPI RETURNDATASIZE PUSH1 0x0 DUP1 RETURNDATACOPY RETURNDATASIZE PUSH1 0x0 REVERT JUMPDEST POP POP POP POP PUSH1 0x40 MLOAD RETURNDATASIZE PUSH1 0x1F NOT PUSH1 0x1F DUP3 ADD AND DUP3 ADD DUP1 PUSH1 0x40 MSTORE POP DUP2 ADD SWAP1 PUSH2 0x1A1D SWAP2 SWAP1 PUSH2 0x2BDC JUMP JUMPDEST PUSH4 0xFFFFFFFF AND PUSH2 0x1A2D SWAP2 SWAP1 PUSH2 0x39BC JUMP JUMPDEST SWAP1 POP PUSH1 0x64 DUP2 GT ISZERO PUSH2 0x1A50 JUMPI PUSH1 0x40 MLOAD PUSH3 0x461BCD PUSH1 0xE5 SHL DUP2 MSTORE PUSH1 0x4 ADD PUSH2 0x361 SWAP1 PUSH2 0x34B5 JUMP JUMPDEST PUSH1 0x5 SLOAD PUSH1 0x40 MLOAD PUSH4 0x859F08DB PUSH1 0xE0 SHL DUP2 MSTORE PUSH1 0x1 PUSH1 0x1 PUSH1 0xA0 SHL SUB SWAP1 SWAP2 AND SWAP1 PUSH4 0x859F08DB SWAP1 PUSH2 0x1A82 SWAP1 DUP8 SWAP1 DUP8 SWAP1 PUSH1 0x4 ADD PUSH2 0x393D JUMP JUMPDEST PUSH1 0xA0 PUSH1 0x40 MLOAD DUP1 DUP4 SUB DUP2 DUP7 DUP1 EXTCODESIZE ISZERO DUP1 ISZERO PUSH2 0x1A9A JUMPI PUSH1 0x0 DUP1 REVERT JUMPDEST POP GAS STATICCALL ISZERO DUP1 ISZERO PUSH2 0x1AAE JUMPI RETURNDATASIZE PUSH1 0x0 DUP1 RETURNDATACOPY RETURNDATASIZE PUSH1 0x0 REVERT JUMPDEST POP POP POP POP PUSH1 0x40 MLOAD RETURNDATASIZE PUSH1 0x1F NOT PUSH1 0x1F DUP3 ADD AND DUP3 ADD DUP1 PUSH1 0x40 MSTORE POP DUP2 ADD SWAP1 PUSH2 0x1AD2 SWAP2 SWAP1 PUSH2 0x2A79 JUMP JUMPDEST SWAP2 POP PUSH1 0x0 PUSH1 0x64 DUP4 PUSH1 0x80 ADD MLOAD PUSH2 0x1AE7 SWAP2 SWAP1 PUSH2 0x39BC JUMP JUMPDEST SWAP1 POP PUSH1 0x0 PUSH2 0x1AF5 DUP3 DUP5 PUSH2 0x39DC JUMP JUMPDEST SWAP1 POP PUSH1 0x0 DUP2 DUP6 PUSH1 0x80 ADD MLOAD PUSH2 0x1B09 SWAP2 SWAP1 PUSH2 0x39FB JUMP JUMPDEST PUSH1 0x80 DUP7 ADD DUP4 SWAP1 MSTORE PUSH1 0x60 DUP7 ADD MLOAD SWAP1 SWAP2 POP PUSH2 0x1B23 SWAP1 DUP3 SWAP1 PUSH2 0x39A4 JUMP JUMPDEST PUSH1 0x60 DUP7 ADD MSTORE PUSH2 0x1B31 DUP6 PUSH2 0x23B2 JUMP JUMPDEST POP POP POP POP POP POP POP JUMP JUMPDEST CALLER SWAP1 JUMP JUMPDEST PUSH1 0x0 DUP3 DUP2 MSTORE PUSH1 0x1 PUSH1 0x20 MSTORE PUSH1 0x40 SWAP1 KECCAK256 PUSH2 0x1B56 SWAP1 DUP3 PUSH2 0x1765 JUMP JUMPDEST ISZERO PUSH2 0x63A JUMPI PUSH2 0x1B63 PUSH2 0x1B3A JUMP JUMPDEST PUSH1 0x1 PUSH1 0x1 PUSH1 0xA0 SHL SUB AND DUP2 PUSH1 0x1 PUSH1 0x1 PUSH1 0xA0 SHL SUB AND DUP4 PUSH32 0x2F8788117E7EFF1D82E926EC794901D17C78024A50270940304540A733656F0D PUSH1 0x40 MLOAD PUSH1 0x40 MLOAD DUP1 SWAP2 SUB SWAP1 LOG4 POP POP JUMP JUMPDEST PUSH1 0x0 DUP2 PUSH1 0xFF AND PUSH1 0x3 EQ ISZERO DUP1 ISZERO PUSH2 0x1BC1 JUMPI POP DUP2 PUSH1 0xFF AND PUSH1 0x4 EQ ISZERO JUMPDEST DUP1 ISZERO PUSH2 0x1BD1 JUMPI POP DUP2 PUSH1 0xFF AND PUSH1 0x35 EQ ISZERO JUMPDEST DUP1 ISZERO PUSH2 0x1BE1 JUMPI POP DUP2 PUSH1 0xFF AND PUSH1 0x36 EQ ISZERO JUMPDEST ISZERO PUSH2 0x1BEE JUMPI POP PUSH1 0x0 PUSH2 0x5F1 JUMP JUMPDEST POP PUSH1 0xAA PUSH2 0x5F1 JUMP JUMPDEST PUSH1 0x0 DUP2 PUSH1 0xFF AND PUSH1 0x5 EQ ISZERO DUP1 ISZERO PUSH2 0x1C10 JUMPI POP DUP2 PUSH1 0xFF AND PUSH1 0x37 EQ ISZERO JUMPDEST DUP1 ISZERO PUSH2 0x1C20 JUMPI POP DUP2 PUSH1 0xFF AND PUSH1 0x46 EQ ISZERO JUMPDEST DUP1 ISZERO PUSH2 0x1BE1 JUMPI POP DUP2 PUSH1 0xFF AND PUSH1 0x3C EQ PUSH2 0x1BEE JUMPI POP PUSH1 0x0 PUSH2 0x5F1 JUMP JUMPDEST DUP4 PUSH1 0x0 PUSH2 0x1C46 DUP5 PUSH2 0x2493 JUMP JUMPDEST PUSH1 0x9 SLOAD PUSH1 0x40 MLOAD PUSH3 0x491FCF PUSH1 0xE1 SHL DUP2 MSTORE SWAP2 SWAP3 POP PUSH1 0x1 PUSH1 0x1 PUSH1 0xA0 SHL SUB AND SWAP1 PUSH3 0x923F9E SWAP1 PUSH2 0x1C75 SWAP1 DUP6 SWAP1 PUSH1 0x4 ADD PUSH2 0x2D5B JUMP JUMPDEST PUSH1 0x20 PUSH1 0x40 MLOAD DUP1 DUP4 SUB DUP2 DUP7 DUP1 EXTCODESIZE ISZERO DUP1 ISZERO PUSH2 0x1C8D JUMPI PUSH1 0x0 DUP1 REVERT JUMPDEST POP GAS STATICCALL ISZERO DUP1 ISZERO PUSH2 0x1CA1 JUMPI RETURNDATASIZE PUSH1 0x0 DUP1 RETURNDATACOPY RETURNDATASIZE PUSH1 0x0 REVERT JUMPDEST POP POP POP POP PUSH1 0x40 MLOAD RETURNDATASIZE PUSH1 0x1F NOT PUSH1 0x1F DUP3 ADD AND DUP3 ADD DUP1 PUSH1 0x40 MSTORE POP DUP2 ADD SWAP1 PUSH2 0x1CC5 SWAP2 SWAP1 PUSH2 0x2C65 JUMP JUMPDEST PUSH1 0xFF AND ISZERO PUSH2 0x1CE5 JUMPI PUSH1 0x40 MLOAD PUSH3 0x461BCD PUSH1 0xE5 SHL DUP2 MSTORE PUSH1 0x4 ADD PUSH2 0x361 SWAP1 PUSH2 0x2DFF JUMP JUMPDEST DUP1 PUSH1 0x40 ADD MLOAD PUSH1 0xFF AND PUSH1 0x3 EQ ISZERO PUSH2 0x1D0D JUMPI PUSH1 0x40 MLOAD PUSH3 0x461BCD PUSH1 0xE5 SHL DUP2 MSTORE PUSH1 0x4 ADD PUSH2 0x361 SWAP1 PUSH2 0x37C3 JUMP JUMPDEST PUSH1 0x5 DUP2 PUSH1 0x60 ADD MLOAD PUSH1 0xFF AND LT PUSH2 0x1D34 JUMPI PUSH1 0x40 MLOAD PUSH3 0x461BCD PUSH1 0xE5 SHL DUP2 MSTORE PUSH1 0x4 ADD PUSH2 0x361 SWAP1 PUSH2 0x2FBE JUMP JUMPDEST DUP1 PUSH1 0x40 ADD MLOAD PUSH1 0xFF AND PUSH1 0x1 EQ PUSH2 0x1FAB JUMPI DUP1 PUSH1 0x60 ADD MLOAD PUSH1 0xFF AND PUSH1 0x1 EQ DUP1 PUSH2 0x1D60 JUMPI POP DUP1 PUSH1 0x60 ADD MLOAD PUSH1 0xFF AND PUSH1 0x2 EQ JUMPDEST ISZERO PUSH2 0x1E17 JUMPI PUSH2 0x1D6D PUSH2 0x1B3A JUMP JUMPDEST PUSH1 0xB SLOAD PUSH1 0x40 MLOAD PUSH4 0x31A9108F PUSH1 0xE1 SHL DUP2 MSTORE PUSH1 0x1 PUSH1 0x1 PUSH1 0xA0 SHL SUB SWAP3 DUP4 AND SWAP3 SWAP1 SWAP2 AND SWAP1 PUSH4 0x6352211E SWAP1 PUSH2 0x1DA1 SWAP1 DUP9 SWAP1 PUSH1 0x4 ADD PUSH2 0x392C JUMP JUMPDEST PUSH1 0x20 PUSH1 0x40 MLOAD DUP1 DUP4 SUB DUP2 DUP7 DUP1 EXTCODESIZE ISZERO DUP1 ISZERO PUSH2 0x1DB9 JUMPI PUSH1 0x0 DUP1 REVERT JUMPDEST POP GAS STATICCALL ISZERO DUP1 ISZERO PUSH2 0x1DCD JUMPI RETURNDATASIZE PUSH1 0x0 DUP1 RETURNDATACOPY RETURNDATASIZE PUSH1 0x0 REVERT JUMPDEST POP POP POP POP PUSH1 0x40 MLOAD RETURNDATASIZE PUSH1 0x1F NOT PUSH1 0x1F DUP3 ADD AND DUP3 ADD DUP1 PUSH1 0x40 MSTORE POP DUP2 ADD SWAP1 PUSH2 0x1DF1 SWAP2 SWAP1 PUSH2 0x2853 JUMP JUMPDEST PUSH1 0x1 PUSH1 0x1 PUSH1 0xA0 SHL SUB AND EQ PUSH2 0x1E17 JUMPI PUSH1 0x40 MLOAD PUSH3 0x461BCD PUSH1 0xE5 SHL DUP2 MSTORE PUSH1 0x4 ADD PUSH2 0x361 SWAP1 PUSH2 0x3507 JUMP JUMPDEST DUP1 PUSH1 0x60 ADD MLOAD PUSH1 0xFF AND PUSH1 0x3 EQ ISZERO PUSH2 0x1EF6 JUMPI PUSH1 0x5 SLOAD PUSH1 0x1 PUSH1 0x1 PUSH1 0xA0 SHL SUB AND PUSH4 0x9D2C7CEE PUSH2 0x1E40 PUSH2 0x1B3A JUMP JUMPDEST PUSH1 0x40 MLOAD PUSH1 0x20 ADD PUSH2 0x1E50 SWAP2 SWAP1 PUSH2 0x2C7F JUMP JUMPDEST PUSH1 0x40 MLOAD PUSH1 0x20 DUP2 DUP4 SUB SUB DUP2 MSTORE SWAP1 PUSH1 0x40 MSTORE DUP1 MLOAD SWAP1 PUSH1 0x20 ADD KECCAK256 DUP7 PUSH1 0x40 MLOAD DUP4 PUSH4 0xFFFFFFFF AND PUSH1 0xE0 SHL DUP2 MSTORE PUSH1 0x4 ADD PUSH2 0x1E84 SWAP3 SWAP2 SWAP1 PUSH2 0x2DD6 JUMP JUMPDEST PUSH1 0x20 PUSH1 0x40 MLOAD DUP1 DUP4 SUB DUP2 DUP7 DUP1 EXTCODESIZE ISZERO DUP1 ISZERO PUSH2 0x1E9C JUMPI PUSH1 0x0 DUP1 REVERT JUMPDEST POP GAS STATICCALL ISZERO DUP1 ISZERO PUSH2 0x1EB0 JUMPI RETURNDATASIZE PUSH1 0x0 DUP1 RETURNDATACOPY RETURNDATASIZE PUSH1 0x0 REVERT JUMPDEST POP POP POP POP PUSH1 0x40 MLOAD RETURNDATASIZE PUSH1 0x1F NOT PUSH1 0x1F DUP3 ADD AND DUP3 ADD DUP1 PUSH1 0x40 MSTORE POP DUP2 ADD SWAP1 PUSH2 0x1ED4 SWAP2 SWAP1 PUSH2 0x2C65 JUMP JUMPDEST PUSH1 0xFF AND PUSH1 0x1 EQ PUSH2 0x1EF6 JUMPI PUSH1 0x40 MLOAD PUSH3 0x461BCD PUSH1 0xE5 SHL DUP2 MSTORE PUSH1 0x4 ADD PUSH2 0x361 SWAP1 PUSH2 0x35EF JUMP JUMPDEST DUP1 PUSH1 0x60 ADD MLOAD PUSH1 0xFF AND PUSH1 0x4 EQ ISZERO PUSH2 0x1FAB JUMPI PUSH1 0xD SLOAD PUSH1 0x9 SWAP1 PUSH1 0x1 PUSH1 0x1 PUSH1 0xA0 SHL SUB AND PUSH4 0x8A00091A PUSH2 0x1F22 PUSH2 0x1B3A JUMP JUMPDEST PUSH1 0x40 MLOAD DUP3 PUSH4 0xFFFFFFFF AND PUSH1 0xE0 SHL DUP2 MSTORE PUSH1 0x4 ADD PUSH2 0x1F3E SWAP2 SWAP1 PUSH2 0x2C9C JUMP JUMPDEST PUSH1 0x20 PUSH1 0x40 MLOAD DUP1 DUP4 SUB DUP2 DUP7 DUP1 EXTCODESIZE ISZERO DUP1 ISZERO PUSH2 0x1F56 JUMPI PUSH1 0x0 DUP1 REVERT JUMPDEST POP GAS STATICCALL ISZERO DUP1 ISZERO PUSH2 0x1F6A JUMPI RETURNDATASIZE PUSH1 0x0 DUP1 RETURNDATACOPY RETURNDATASIZE PUSH1 0x0 REVERT JUMPDEST POP POP POP POP PUSH1 0x40 MLOAD RETURNDATASIZE PUSH1 0x1F NOT PUSH1 0x1F DUP3 ADD AND DUP3 ADD DUP1 PUSH1 0x40 MSTORE POP DUP2 ADD SWAP1 PUSH2 0x1F8E SWAP2 SWAP1 PUSH2 0x2BC4 JUMP JUMPDEST GT PUSH2 0x1FAB JUMPI PUSH1 0x40 MLOAD PUSH3 0x461BCD PUSH1 0xE5 SHL DUP2 MSTORE PUSH1 0x4 ADD PUSH2 0x361 SWAP1 PUSH2 0x30E8 JUMP JUMPDEST DUP1 PUSH1 0x40 ADD MLOAD PUSH1 0xFF AND PUSH1 0x1 EQ DUP1 PUSH2 0x1FC8 JUMPI POP DUP1 PUSH1 0x40 ADD MLOAD PUSH1 0xFF AND PUSH1 0x2 EQ JUMPDEST DUP1 PUSH2 0x1FDA JUMPI POP DUP1 PUSH1 0x40 ADD MLOAD PUSH1 0xFF AND PUSH1 0x4 EQ JUMPDEST PUSH2 0x1FF6 JUMPI PUSH1 0x40 MLOAD PUSH3 0x461BCD PUSH1 0xE5 SHL DUP2 MSTORE PUSH1 0x4 ADD PUSH2 0x361 SWAP1 PUSH2 0x357A JUMP JUMPDEST DUP1 PUSH1 0x40 ADD MLOAD PUSH1 0xFF AND PUSH1 0x1 EQ ISZERO PUSH2 0x208C JUMPI PUSH1 0x9 SLOAD PUSH1 0x40 MLOAD PUSH4 0x54A19C2B PUSH1 0xE0 SHL DUP2 MSTORE PUSH1 0x1 PUSH1 0x1 PUSH1 0xA0 SHL SUB SWAP1 SWAP2 AND SWAP1 PUSH4 0x54A19C2B SWAP1 PUSH2 0x2038 SWAP1 ADDRESS SWAP1 DUP7 SWAP1 PUSH1 0x4 ADD PUSH2 0x2D28 JUMP JUMPDEST PUSH1 0x20 PUSH1 0x40 MLOAD DUP1 DUP4 SUB DUP2 PUSH1 0x0 DUP8 DUP1 EXTCODESIZE ISZERO DUP1 ISZERO PUSH2 0x2052 JUMPI PUSH1 0x0 DUP1 REVERT JUMPDEST POP GAS CALL ISZERO DUP1 ISZERO PUSH2 0x2066 JUMPI RETURNDATASIZE PUSH1 0x0 DUP1 RETURNDATACOPY RETURNDATASIZE PUSH1 0x0 REVERT JUMPDEST POP POP POP POP PUSH1 0x40 MLOAD RETURNDATASIZE PUSH1 0x1F NOT PUSH1 0x1F DUP3 ADD AND DUP3 ADD DUP1 PUSH1 0x40 MSTORE POP DUP2 ADD SWAP1 PUSH2 0x208A SWAP2 SWAP1 PUSH2 0x2BC4 JUMP JUMPDEST POP JUMPDEST DUP1 PUSH1 0x40 ADD MLOAD PUSH1 0xFF AND PUSH1 0x2 EQ DUP1 PUSH2 0x20A9 JUMPI POP DUP1 PUSH1 0x40 ADD MLOAD PUSH1 0xFF AND PUSH1 0x4 EQ JUMPDEST ISZERO PUSH2 0x2139 JUMPI PUSH1 0x9 SLOAD PUSH1 0x1 PUSH1 0x1 PUSH1 0xA0 SHL SUB AND PUSH4 0x54A19C2B PUSH2 0x20C7 PUSH2 0x1B3A JUMP JUMPDEST DUP5 PUSH1 0x40 MLOAD DUP4 PUSH4 0xFFFFFFFF AND PUSH1 0xE0 SHL DUP2 MSTORE PUSH1 0x4 ADD PUSH2 0x20E5 SWAP3 SWAP2 SWAP1 PUSH2 0x2D28 JUMP JUMPDEST PUSH1 0x20 PUSH1 0x40 MLOAD DUP1 DUP4 SUB DUP2 PUSH1 0x0 DUP8 DUP1 EXTCODESIZE ISZERO DUP1 ISZERO PUSH2 0x20FF JUMPI PUSH1 0x0 DUP1 REVERT JUMPDEST POP GAS CALL ISZERO DUP1 ISZERO PUSH2 0x2113 JUMPI RETURNDATASIZE PUSH1 0x0 DUP1 RETURNDATACOPY RETURNDATASIZE PUSH1 0x0 REVERT JUMPDEST POP POP POP POP PUSH1 0x40 MLOAD RETURNDATASIZE PUSH1 0x1F NOT PUSH1 0x1F DUP3 ADD AND DUP3 ADD DUP1 PUSH1 0x40 MSTORE POP DUP2 ADD SWAP1 PUSH2 0x2137 SWAP2 SWAP1 PUSH2 0x2BC4 JUMP JUMPDEST POP JUMPDEST PUSH1 0x3 SLOAD PUSH1 0x40 MLOAD PUSH4 0xD4C3445 PUSH1 0xE2 SHL DUP2 MSTORE PUSH1 0x1 PUSH1 0x1 PUSH1 0xA0 SHL SUB SWAP1 SWAP2 AND SWAP1 PUSH4 0x3530D114 SWAP1 PUSH2 0x216F SWAP1 DUP10 SWAP1 DUP10 SWAP1 DUP10 SWAP1 DUP10 SWAP1 PUSH1 0x4 ADD PUSH2 0x2D7A JUMP JUMPDEST PUSH1 0x0 PUSH1 0x40 MLOAD DUP1 DUP4 SUB DUP2 PUSH1 0x0 DUP8 DUP1 EXTCODESIZE ISZERO DUP1 ISZERO PUSH2 0x2189 JUMPI PUSH1 0x0 DUP1 REVERT JUMPDEST POP GAS CALL ISZERO DUP1 ISZERO PUSH2 0x219D JUMPI RETURNDATASIZE PUSH1 0x0 DUP1 RETURNDATACOPY RETURNDATASIZE PUSH1 0x0 REVERT JUMPDEST POP POP POP POP POP POP POP POP POP POP JUMP JUMPDEST PUSH1 0x0 DUP3 DUP2 MSTORE PUSH1 0x1 PUSH1 0x20 MSTORE PUSH1 0x40 SWAP1 KECCAK256 PUSH2 0x21C1 SWAP1 DUP3 PUSH2 0x255D JUMP JUMPDEST ISZERO PUSH2 0x63A JUMPI PUSH2 0x21CE PUSH2 0x1B3A JUMP JUMPDEST PUSH1 0x1 PUSH1 0x1 PUSH1 0xA0 SHL SUB AND DUP2 PUSH1 0x1 PUSH1 0x1 PUSH1 0xA0 SHL SUB AND DUP4 PUSH32 0xF6391F5C32D9C69D2A47EA670B442974B53935D1EDC7FD64EB21E047A839171B PUSH1 0x40 MLOAD PUSH1 0x40 MLOAD DUP1 SWAP2 SUB SWAP1 LOG4 POP POP JUMP JUMPDEST PUSH2 0x221A PUSH2 0xA61 JUMP JUMPDEST PUSH2 0x2236 JUMPI PUSH1 0x40 MLOAD PUSH3 0x461BCD PUSH1 0xE5 SHL DUP2 MSTORE PUSH1 0x4 ADD PUSH2 0x361 SWAP1 PUSH2 0x2F45 JUMP JUMPDEST PUSH1 0x2 DUP1 SLOAD PUSH1 0xFF NOT AND SWAP1 SSTORE PUSH32 0x5DB9EE0A495BF2E6FF9C91A7834C1BA4FDD244A5E8AA4E537BD38AEAE4B073AA PUSH2 0x2269 PUSH2 0x1B3A JUMP JUMPDEST PUSH1 0x40 MLOAD PUSH2 0x2276 SWAP2 SWAP1 PUSH2 0x2C9C JUMP JUMPDEST PUSH1 0x40 MLOAD DUP1 SWAP2 SUB SWAP1 LOG1 JUMP JUMPDEST PUSH2 0x2288 PUSH2 0xA61 JUMP JUMPDEST ISZERO PUSH2 0x22A5 JUMPI PUSH1 0x40 MLOAD PUSH3 0x461BCD PUSH1 0xE5 SHL DUP2 MSTORE PUSH1 0x4 ADD PUSH2 0x361 SWAP1 PUSH2 0x3292 JUMP JUMPDEST PUSH1 0x2 DUP1 SLOAD PUSH1 0xFF NOT AND PUSH1 0x1 OR SWAP1 SSTORE PUSH32 0x62E78CEA01BEE320CD4E420270B5EA74000D11B0C9F74754EBDBFC544B05A258 PUSH2 0x2269 PUSH2 0x1B3A JUMP JUMPDEST PUSH2 0x22E3 PUSH2 0xA61 JUMP JUMPDEST ISZERO PUSH2 0x2300 JUMPI PUSH1 0x40 MLOAD PUSH3 0x461BCD PUSH1 0xE5 SHL DUP2 MSTORE PUSH1 0x4 ADD PUSH2 0x361 SWAP1 PUSH2 0x3292 JUMP JUMPDEST PUSH1 0x3 SLOAD PUSH2 0x120 DUP3 ADD MLOAD PUSH2 0x160 DUP4 ADD MLOAD PUSH1 0x40 MLOAD PUSH4 0xF8D9D2F PUSH1 0xE0 SHL DUP2 MSTORE PUSH1 0x1 PUSH1 0x1 PUSH1 0xA0 SHL SUB SWAP1 SWAP4 AND SWAP3 PUSH4 0xF8D9D2F SWAP3 PUSH2 0x1934 SWAP3 DUP8 SWAP3 PUSH1 0x4 ADD PUSH2 0x2D64 JUMP JUMPDEST PUSH1 0x0 PUSH2 0xEC9 DUP4 DUP4 PUSH2 0x2572 JUMP JUMPDEST PUSH1 0x0 PUSH2 0xEC9 DUP4 PUSH1 0x1 PUSH1 0x1 PUSH1 0xA0 SHL SUB DUP5 AND PUSH2 0x25CB JUMP JUMPDEST PUSH1 0x0 PUSH2 0xECC DUP3 PUSH2 0x25E3 JUMP JUMPDEST PUSH1 0x0 PUSH2 0x2374 DUP4 DUP4 PUSH2 0x25CB JUMP JUMPDEST PUSH2 0x23AA JUMPI POP DUP2 SLOAD PUSH1 0x1 DUP2 DUP2 ADD DUP5 SSTORE PUSH1 0x0 DUP5 DUP2 MSTORE PUSH1 0x20 DUP1 DUP3 KECCAK256 SWAP1 SWAP4 ADD DUP5 SWAP1 SSTORE DUP5 SLOAD DUP5 DUP3 MSTORE DUP3 DUP7 ADD SWAP1 SWAP4 MSTORE PUSH1 0x40 SWAP1 KECCAK256 SWAP2 SWAP1 SWAP2 SSTORE PUSH2 0xECC JUMP JUMPDEST POP PUSH1 0x0 PUSH2 0xECC JUMP JUMPDEST PUSH2 0x23BA PUSH2 0xA61 JUMP JUMPDEST ISZERO PUSH2 0x23D7 JUMPI PUSH1 0x40 MLOAD PUSH3 0x461BCD PUSH1 0xE5 SHL DUP2 MSTORE PUSH1 0x4 ADD PUSH2 0x361 SWAP1 PUSH2 0x3292 JUMP JUMPDEST PUSH1 0x20 DUP2 ADD MLOAD PUSH1 0x1 PUSH1 0x1 PUSH1 0xA0 SHL SUB AND PUSH2 0x2401 JUMPI PUSH1 0x40 MLOAD PUSH3 0x461BCD PUSH1 0xE5 SHL DUP2 MSTORE PUSH1 0x4 ADD PUSH2 0x361 SWAP1 PUSH2 0x3249 JUMP JUMPDEST PUSH1 0x40 DUP2 ADD MLOAD PUSH1 0x1 PUSH1 0x1 PUSH1 0xA0 SHL SUB AND PUSH2 0x2427 JUMPI PUSH1 0x20 DUP2 ADD MLOAD PUSH1 0x1 PUSH1 0x1 PUSH1 0xA0 SHL SUB AND PUSH1 0x40 DUP3 ADD MSTORE JUMPDEST PUSH1 0x7 SLOAD PUSH1 0x1 PUSH1 0x1 PUSH1 0xA0 SHL SUB AND PUSH4 0x28DB9DA6 PUSH2 0x2440 PUSH2 0x1B3A JUMP JUMPDEST DUP4 PUSH1 0x40 MLOAD DUP4 PUSH4 0xFFFFFFFF AND PUSH1 0xE0 SHL DUP2 MSTORE PUSH1 0x4 ADD PUSH2 0x245E SWAP3 SWAP2 SWAP1 PUSH2 0x2CD4 JUMP JUMPDEST PUSH1 0x0 PUSH1 0x40 MLOAD DUP1 DUP4 SUB DUP2 PUSH1 0x0 DUP8 DUP1 EXTCODESIZE ISZERO DUP1 ISZERO PUSH2 0x2478 JUMPI PUSH1 0x0 DUP1 REVERT JUMPDEST POP GAS CALL ISZERO DUP1 ISZERO PUSH2 0x248C JUMPI RETURNDATASIZE PUSH1 0x0 DUP1 RETURNDATACOPY RETURNDATASIZE PUSH1 0x0 REVERT JUMPDEST POP POP POP POP POP JUMP JUMPDEST PUSH2 0x249B PUSH2 0x279E JUMP JUMPDEST PUSH2 0x24A3 PUSH2 0x279E JUMP JUMPDEST PUSH1 0x5 SLOAD PUSH1 0x40 MLOAD PUSH4 0xF243501 PUSH1 0xE4 SHL DUP2 MSTORE PUSH1 0x1 PUSH1 0x1 PUSH1 0xA0 SHL SUB SWAP1 SWAP2 AND SWAP1 PUSH4 0xF2435010 SWAP1 PUSH2 0x24D3 SWAP1 DUP7 SWAP1 PUSH1 0x4 ADD PUSH2 0x392C JUMP JUMPDEST PUSH1 0xA0 PUSH1 0x40 MLOAD DUP1 DUP4 SUB DUP2 PUSH1 0x0 DUP8 DUP1 EXTCODESIZE ISZERO DUP1 ISZERO PUSH2 0x24ED JUMPI PUSH1 0x0 DUP1 REVERT JUMPDEST POP GAS CALL ISZERO DUP1 ISZERO PUSH2 0x2501 JUMPI RETURNDATASIZE PUSH1 0x0 DUP1 RETURNDATACOPY RETURNDATASIZE PUSH1 0x0 REVERT JUMPDEST POP POP POP POP PUSH1 0x40 MLOAD RETURNDATASIZE PUSH1 0x1F NOT PUSH1 0x1F DUP3 ADD AND DUP3 ADD DUP1 PUSH1 0x40 MSTORE POP DUP2 ADD SWAP1 PUSH2 0x2525 SWAP2 SWAP1 PUSH2 0x2BF8 JUMP JUMPDEST PUSH1 0x1 PUSH1 0x1 PUSH1 0xA0 SHL SUB AND PUSH1 0xC0 DUP7 ADD MSTORE PUSH4 0xFFFFFFFF SWAP1 DUP2 AND PUSH1 0xA0 DUP7 ADD MSTORE PUSH1 0xFF SWAP2 DUP3 AND PUSH1 0x60 DUP7 ADD MSTORE SWAP2 AND PUSH1 0x40 DUP5 ADD MSTORE AND PUSH1 0x20 DUP3 ADD MSTORE SWAP3 SWAP2 POP POP JUMP JUMPDEST PUSH1 0x0 PUSH2 0xEC9 DUP4 PUSH1 0x1 PUSH1 0x1 PUSH1 0xA0 SHL SUB DUP5 AND PUSH2 0x25E7 JUMP JUMPDEST DUP2 SLOAD PUSH1 0x0 SWAP1 DUP3 LT PUSH2 0x2595 JUMPI PUSH1 0x40 MLOAD PUSH3 0x461BCD PUSH1 0xE5 SHL DUP2 MSTORE PUSH1 0x4 ADD PUSH2 0x361 SWAP1 PUSH2 0x2E36 JUMP JUMPDEST DUP3 PUSH1 0x0 ADD DUP3 DUP2 SLOAD DUP2 LT PUSH2 0x25B8 JUMPI PUSH4 0x4E487B71 PUSH1 0xE0 SHL PUSH1 0x0 MSTORE PUSH1 0x32 PUSH1 0x4 MSTORE PUSH1 0x24 PUSH1 0x0 REVERT JUMPDEST SWAP1 PUSH1 0x0 MSTORE PUSH1 0x20 PUSH1 0x0 KECCAK256 ADD SLOAD SWAP1 POP SWAP3 SWAP2 POP POP JUMP JUMPDEST PUSH1 0x0 SWAP1 DUP2 MSTORE PUSH1 0x1 SWAP2 SWAP1 SWAP2 ADD PUSH1 0x20 MSTORE PUSH1 0x40 SWAP1 KECCAK256 SLOAD ISZERO ISZERO SWAP1 JUMP JUMPDEST SLOAD SWAP1 JUMP JUMPDEST PUSH1 0x0 DUP2 DUP2 MSTORE PUSH1 0x1 DUP4 ADD PUSH1 0x20 MSTORE PUSH1 0x40 DUP2 KECCAK256 SLOAD DUP1 ISZERO PUSH2 0x26FA JUMPI PUSH1 0x0 PUSH2 0x260B PUSH1 0x1 DUP4 PUSH2 0x39FB JUMP JUMPDEST DUP6 SLOAD SWAP1 SWAP2 POP PUSH1 0x0 SWAP1 PUSH2 0x261F SWAP1 PUSH1 0x1 SWAP1 PUSH2 0x39FB JUMP JUMPDEST SWAP1 POP PUSH1 0x0 DUP7 PUSH1 0x0 ADD DUP3 DUP2 SLOAD DUP2 LT PUSH2 0x2646 JUMPI PUSH4 0x4E487B71 PUSH1 0xE0 SHL PUSH1 0x0 MSTORE PUSH1 0x32 PUSH1 0x4 MSTORE PUSH1 0x24 PUSH1 0x0 REVERT JUMPDEST SWAP1 PUSH1 0x0 MSTORE PUSH1 0x20 PUSH1 0x0 KECCAK256 ADD SLOAD SWAP1 POP DUP1 DUP8 PUSH1 0x0 ADD DUP5 DUP2 SLOAD DUP2 LT PUSH2 0x2677 JUMPI PUSH4 0x4E487B71 PUSH1 0xE0 SHL PUSH1 0x0 MSTORE PUSH1 0x32 PUSH1 0x4 MSTORE PUSH1 0x24 PUSH1 0x0 REVERT JUMPDEST PUSH1 0x0 SWAP2 DUP3 MSTORE PUSH1 0x20 SWAP1 SWAP2 KECCAK256 ADD SSTORE PUSH2 0x268E DUP4 PUSH1 0x1 PUSH2 0x39A4 JUMP JUMPDEST PUSH1 0x0 DUP3 DUP2 MSTORE PUSH1 0x1 DUP10 ADD PUSH1 0x20 MSTORE PUSH1 0x40 SWAP1 KECCAK256 SSTORE DUP7 SLOAD DUP8 SWAP1 DUP1 PUSH2 0x26BE JUMPI PUSH4 0x4E487B71 PUSH1 0xE0 SHL PUSH1 0x0 MSTORE PUSH1 0x31 PUSH1 0x4 MSTORE PUSH1 0x24 PUSH1 0x0 REVERT JUMPDEST PUSH1 0x1 SWAP1 SUB DUP2 DUP2 SWAP1 PUSH1 0x0 MSTORE PUSH1 0x20 PUSH1 0x0 KECCAK256 ADD PUSH1 0x0 SWAP1 SSTORE SWAP1 SSTORE DUP7 PUSH1 0x1 ADD PUSH1 0x0 DUP8 DUP2 MSTORE PUSH1 0x20 ADD SWAP1 DUP2 MSTORE PUSH1 0x20 ADD PUSH1 0x0 KECCAK256 PUSH1 0x0 SWAP1 SSTORE PUSH1 0x1 SWAP5 POP POP POP POP POP PUSH2 0xECC JUMP JUMPDEST PUSH1 0x0 SWAP2 POP POP PUSH2 0xECC JUMP JUMPDEST PUSH1 0x40 DUP1 MLOAD PUSH2 0x1A0 DUP2 ADD DUP3 MSTORE PUSH1 0x0 DUP1 DUP3 MSTORE PUSH1 0x20 DUP3 ADD DUP2 SWAP1 MSTORE SWAP2 DUP2 ADD DUP3 SWAP1 MSTORE PUSH1 0x60 DUP2 ADD DUP3 SWAP1 MSTORE PUSH1 0x80 DUP2 ADD DUP3 SWAP1 MSTORE PUSH1 0xA0 DUP2 ADD DUP3 SWAP1 MSTORE PUSH1 0xC0 DUP2 ADD DUP3 SWAP1 MSTORE PUSH1 0xE0 DUP2 ADD DUP3 SWAP1 MSTORE PUSH2 0x100 DUP2 ADD DUP3 SWAP1 MSTORE PUSH2 0x120 DUP2 ADD DUP3 SWAP1 MSTORE PUSH2 0x140 DUP2 ADD DUP3 SWAP1 MSTORE PUSH2 0x160 DUP2 ADD DUP3 SWAP1 MSTORE PUSH2 0x180 DUP2 ADD SWAP2 SWAP1 SWAP2 MSTORE SWAP1 JUMP JUMPDEST PUSH1 0x40 DUP1 MLOAD PUSH1 0xA0 DUP2 ADD DUP3 MSTORE PUSH1 0x0 DUP1 DUP3 MSTORE PUSH1 0x20 DUP3 ADD DUP2 SWAP1 MSTORE SWAP2 DUP2 ADD DUP3 SWAP1 MSTORE PUSH1 0x60 DUP2 ADD DUP3 SWAP1 MSTORE PUSH1 0x80 DUP2 ADD SWAP2 SWAP1 SWAP2 MSTORE SWAP1 JUMP JUMPDEST PUSH1 0x40 DUP1 MLOAD PUSH2 0x120 DUP2 ADD DUP3 MSTORE PUSH1 0x60 DUP1 DUP3 MSTORE PUSH1 0x0 PUSH1 0x20 DUP4 ADD DUP2 SWAP1 MSTORE SWAP3 DUP3 ADD DUP4 SWAP1 MSTORE DUP2 ADD DUP3 SWAP1 MSTORE PUSH1 0x80 DUP2 ADD DUP3 SWAP1 MSTORE PUSH1 0xA0 DUP2 ADD DUP3 SWAP1 MSTORE PUSH1 0xC0 DUP2 ADD DUP3 SWAP1 MSTORE PUSH1 0xE0 DUP2 ADD DUP3 SWAP1 MSTORE PUSH2 0x100 DUP2 ADD SWAP2 SWAP1 SWAP2 MSTORE SWAP1 JUMP JUMPDEST DUP1 MLOAD PUSH15 0xFFFFFFFFFFFFFFFFFFFFFFFFFFFFFF DUP2 AND DUP2 EQ PUSH2 0x5F1 JUMPI PUSH1 0x0 DUP1 REVERT JUMPDEST DUP1 MLOAD PUSH2 0xFFFF DUP2 AND DUP2 EQ PUSH2 0x5F1 JUMPI PUSH1 0x0 DUP1 REVERT JUMPDEST DUP1 MLOAD PUSH2 0x5F1 DUP2 PUSH2 0x3A40 JUMP JUMPDEST DUP1 MLOAD PUSH1 0xFF DUP2 AND DUP2 EQ PUSH2 0x5F1 JUMPI PUSH1 0x0 DUP1 REVERT JUMPDEST PUSH1 0x0 PUSH1 0x20 DUP3 DUP5 SUB SLT ISZERO PUSH2 0x2848 JUMPI DUP1 DUP2 REVERT JUMPDEST DUP2 CALLDATALOAD PUSH2 0x1806 DUP2 PUSH2 0x3A28 JUMP JUMPDEST PUSH1 0x0 PUSH1 0x20 DUP3 DUP5 SUB SLT ISZERO PUSH2 0x2864 JUMPI DUP1 DUP2 REVERT JUMPDEST DUP2 MLOAD PUSH2 0x1806 DUP2 PUSH2 0x3A28 JUMP JUMPDEST PUSH1 0x0 DUP1 PUSH1 0x0 DUP1 PUSH1 0x0 PUSH1 0x80 DUP7 DUP9 SUB SLT ISZERO PUSH2 0x2886 JUMPI DUP1 DUP2 REVERT JUMPDEST DUP6 CALLDATALOAD PUSH2 0x2891 DUP2 PUSH2 0x3A28 JUMP JUMPDEST SWAP5 POP PUSH1 0x20 DUP7 ADD CALLDATALOAD PUSH2 0x28A1 DUP2 PUSH2 0x3A28 JUMP JUMPDEST SWAP4 POP PUSH1 0x40 DUP7 ADD CALLDATALOAD SWAP3 POP PUSH1 0x60 DUP7 ADD CALLDATALOAD PUSH8 0xFFFFFFFFFFFFFFFF DUP1 DUP3 GT ISZERO PUSH2 0x28C4 JUMPI DUP3 DUP4 REVERT JUMPDEST DUP2 DUP9 ADD SWAP2 POP DUP9 PUSH1 0x1F DUP4 ADD SLT PUSH2 0x28D7 JUMPI DUP3 DUP4 REVERT JUMPDEST DUP2 CALLDATALOAD DUP2 DUP2 GT ISZERO PUSH2 0x28E5 JUMPI DUP4 DUP5 REVERT JUMPDEST DUP10 PUSH1 0x20 DUP3 DUP6 ADD ADD GT ISZERO PUSH2 0x28F6 JUMPI DUP4 DUP5 REVERT JUMPDEST SWAP7 SWAP10 SWAP6 SWAP9 POP SWAP4 SWAP7 POP PUSH1 0x20 ADD SWAP5 SWAP4 SWAP3 POP POP POP JUMP JUMPDEST PUSH1 0x0 DUP1 PUSH1 0x40 DUP4 DUP6 SUB SLT ISZERO PUSH2 0x291B JUMPI DUP2 DUP3 REVERT JUMPDEST DUP3 CALLDATALOAD PUSH2 0x2926 DUP2 PUSH2 0x3A28 JUMP JUMPDEST SWAP5 PUSH1 0x20 SWAP4 SWAP1 SWAP4 ADD CALLDATALOAD SWAP4 POP POP POP JUMP JUMPDEST PUSH1 0x0 PUSH1 0x20 DUP3 DUP5 SUB SLT ISZERO PUSH2 0x2945 JUMPI DUP1 DUP2 REVERT JUMPDEST POP CALLDATALOAD SWAP2 SWAP1 POP JUMP JUMPDEST PUSH1 0x0 DUP1 PUSH1 0x40 DUP4 DUP6 SUB SLT ISZERO PUSH2 0x295E JUMPI DUP2 DUP3 REVERT JUMPDEST DUP3 CALLDATALOAD SWAP2 POP PUSH1 0x20 DUP4 ADD CALLDATALOAD PUSH2 0x2970 DUP2 PUSH2 0x3A28 JUMP JUMPDEST DUP1 SWAP2 POP POP SWAP3 POP SWAP3 SWAP1 POP JUMP JUMPDEST PUSH1 0x0 DUP1 PUSH1 0x40 DUP4 DUP6 SUB SLT ISZERO PUSH2 0x298D JUMPI DUP2 DUP3 REVERT JUMPDEST POP POP DUP1 CALLDATALOAD SWAP3 PUSH1 0x20 SWAP1 SWAP2 ADD CALLDATALOAD SWAP2 POP JUMP JUMPDEST PUSH1 0x0 DUP1 PUSH1 0x0 PUSH1 0x60 DUP5 DUP7 SUB SLT ISZERO PUSH2 0x29B0 JUMPI DUP1 DUP2 REVERT JUMPDEST POP POP DUP2 CALLDATALOAD SWAP4 PUSH1 0x20 DUP4 ADD CALLDATALOAD SWAP4 POP PUSH1 0x40 SWAP1 SWAP3 ADD CALLDATALOAD SWAP2 SWAP1 POP JUMP JUMPDEST PUSH1 0x0 DUP1 PUSH1 0x0 DUP1 PUSH1 0x80 DUP6 DUP8 SUB SLT ISZERO PUSH2 0x29DC JUMPI DUP2 DUP3 REVERT JUMPDEST POP POP DUP3 CALLDATALOAD SWAP5 PUSH1 0x20 DUP5 ADD CALLDATALOAD SWAP5 POP PUSH1 0x40 DUP5 ADD CALLDATALOAD SWAP4 PUSH1 0x60 ADD CALLDATALOAD SWAP3 POP SWAP1 POP JUMP JUMPDEST PUSH1 0x0 DUP1 PUSH1 0x0 PUSH1 0x60 DUP5 DUP7 SUB SLT ISZERO PUSH2 0x2A0C JUMPI DUP1 DUP2 REVERT JUMPDEST DUP4 CALLDATALOAD SWAP3 POP PUSH1 0x20 DUP5 ADD CALLDATALOAD SWAP2 POP PUSH1 0x40 DUP5 ADD CALLDATALOAD PUSH2 0x2A25 DUP2 PUSH2 0x3A40 JUMP JUMPDEST DUP1 SWAP2 POP POP SWAP3 POP SWAP3 POP SWAP3 JUMP JUMPDEST PUSH1 0x0 DUP1 PUSH1 0x0 DUP1 PUSH1 0x80 DUP6 DUP8 SUB SLT ISZERO PUSH2 0x2A45 JUMPI DUP2 DUP3 REVERT JUMPDEST DUP5 CALLDATALOAD SWAP4 POP PUSH1 0x20 DUP6 ADD CALLDATALOAD SWAP3 POP PUSH1 0x40 DUP6 ADD CALLDATALOAD PUSH2 0x2A5E DUP2 PUSH2 0x3A40 JUMP JUMPDEST SWAP2 POP PUSH1 0x60 DUP6 ADD CALLDATALOAD PUSH2 0x2A6E DUP2 PUSH2 0x3A40 JUMP JUMPDEST SWAP4 SWAP7 SWAP3 SWAP6 POP SWAP1 SWAP4 POP POP JUMP JUMPDEST PUSH1 0x0 PUSH1 0xA0 DUP3 DUP5 SUB SLT ISZERO PUSH2 0x2A8A JUMPI DUP1 DUP2 REVERT JUMPDEST PUSH2 0x2A94 PUSH1 0xA0 PUSH2 0x3965 JUMP JUMPDEST DUP3 MLOAD PUSH2 0x2A9F DUP2 PUSH2 0x3A40 JUMP JUMPDEST DUP2 MSTORE PUSH1 0x20 DUP4 ADD MLOAD PUSH2 0x2AAF DUP2 PUSH2 0x3A28 JUMP JUMPDEST PUSH1 0x20 DUP3 ADD MSTORE PUSH1 0x40 DUP4 ADD MLOAD PUSH2 0x2AC2 DUP2 PUSH2 0x3A28 JUMP JUMPDEST PUSH1 0x40 DUP3 ADD MSTORE PUSH1 0x60 DUP4 DUP2 ADD MLOAD SWAP1 DUP3 ADD MSTORE PUSH1 0x80 SWAP3 DUP4 ADD MLOAD SWAP3 DUP2 ADD SWAP3 SWAP1 SWAP3 MSTORE POP SWAP2 SWAP1 POP JUMP JUMPDEST PUSH1 0x0 PUSH2 0x1A0 DUP1 DUP4 DUP6 SUB SLT ISZERO PUSH2 0x2AF7 JUMPI DUP2 DUP3 REVERT JUMPDEST PUSH2 0x2B00 DUP2 PUSH2 0x3965 JUMP JUMPDEST SWAP1 POP PUSH2 0x2B0B DUP4 PUSH2 0x2826 JUMP JUMPDEST DUP2 MSTORE PUSH2 0x2B19 PUSH1 0x20 DUP5 ADD PUSH2 0x2826 JUMP JUMPDEST PUSH1 0x20 DUP3 ADD MSTORE PUSH2 0x2B2A PUSH1 0x40 DUP5 ADD PUSH2 0x2826 JUMP JUMPDEST PUSH1 0x40 DUP3 ADD MSTORE PUSH2 0x2B3B PUSH1 0x60 DUP5 ADD PUSH2 0x2809 JUMP JUMPDEST PUSH1 0x60 DUP3 ADD MSTORE PUSH2 0x2B4C PUSH1 0x80 DUP5 ADD PUSH2 0x281B JUMP JUMPDEST PUSH1 0x80 DUP3 ADD MSTORE PUSH2 0x2B5D PUSH1 0xA0 DUP5 ADD PUSH2 0x281B JUMP JUMPDEST PUSH1 0xA0 DUP3 ADD MSTORE PUSH2 0x2B6E PUSH1 0xC0 DUP5 ADD PUSH2 0x281B JUMP JUMPDEST PUSH1 0xC0 DUP3 ADD MSTORE PUSH2 0x2B7F PUSH1 0xE0 DUP5 ADD PUSH2 0x27EA JUMP JUMPDEST PUSH1 0xE0 DUP3 ADD MSTORE PUSH2 0x100 DUP4 DUP2 ADD MLOAD SWAP1 DUP3 ADD MSTORE PUSH2 0x120 DUP1 DUP5 ADD MLOAD SWAP1 DUP3 ADD MSTORE PUSH2 0x140 DUP1 DUP5 ADD MLOAD SWAP1 DUP3 ADD MSTORE PUSH2 0x160 DUP1 DUP5 ADD MLOAD SWAP1 DUP3 ADD MSTORE PUSH2 0x180 SWAP3 DUP4 ADD MLOAD SWAP3 DUP2 ADD SWAP3 SWAP1 SWAP3 MSTORE POP SWAP2 SWAP1 POP JUMP JUMPDEST PUSH1 0x0 PUSH1 0x20 DUP3 DUP5 SUB SLT ISZERO PUSH2 0x2BD5 JUMPI DUP1 DUP2 REVERT JUMPDEST POP MLOAD SWAP2 SWAP1 POP JUMP JUMPDEST PUSH1 0x0 PUSH1 0x20 DUP3 DUP5 SUB SLT ISZERO PUSH2 0x2BED JUMPI DUP1 DUP2 REVERT JUMPDEST DUP2 MLOAD PUSH2 0x1806 DUP2 PUSH2 0x3A40 JUMP JUMPDEST PUSH1 0x0 DUP1 PUSH1 0x0 DUP1 PUSH1 0x0 PUSH1 0xA0 DUP7 DUP9 SUB SLT ISZERO PUSH2 0x2C0F JUMPI DUP3 DUP4 REVERT JUMPDEST DUP6 MLOAD PUSH2 0x2C1A DUP2 PUSH2 0x3A40 JUMP JUMPDEST SWAP5 POP PUSH2 0x2C28 PUSH1 0x20 DUP8 ADD PUSH2 0x2826 JUMP JUMPDEST SWAP4 POP PUSH2 0x2C36 PUSH1 0x40 DUP8 ADD PUSH2 0x2826 JUMP JUMPDEST SWAP3 POP PUSH1 0x60 DUP7 ADD MLOAD PUSH2 0x2C46 DUP2 PUSH2 0x3A40 JUMP JUMPDEST PUSH1 0x80 DUP8 ADD MLOAD SWAP1 SWAP3 POP PUSH2 0x2C57 DUP2 PUSH2 0x3A28 JUMP JUMPDEST DUP1 SWAP2 POP POP SWAP3 SWAP6 POP SWAP3 SWAP6 SWAP1 SWAP4 POP JUMP JUMPDEST PUSH1 0x0 PUSH1 0x20 DUP3 DUP5 SUB SLT ISZERO PUSH2 0x2C76 JUMPI DUP1 DUP2 REVERT JUMPDEST PUSH2 0xEC9 DUP3 PUSH2 0x2826 JUMP JUMPDEST PUSH1 0x60 SWAP2 SWAP1 SWAP2 SHL PUSH12 0xFFFFFFFFFFFFFFFFFFFFFFFF NOT AND DUP2 MSTORE PUSH1 0x14 ADD SWAP1 JUMP JUMPDEST PUSH1 0x1 PUSH1 0x1 PUSH1 0xA0 SHL SUB SWAP2 SWAP1 SWAP2 AND DUP2 MSTORE PUSH1 0x20 ADD SWAP1 JUMP JUMPDEST PUSH1 0x1 PUSH1 0x1 PUSH1 0xA0 SHL SUB SWAP4 DUP5 AND DUP2 MSTORE SWAP2 SWAP1 SWAP3 AND PUSH1 0x20 DUP3 ADD MSTORE PUSH1 0x40 DUP2 ADD SWAP2 SWAP1 SWAP2 MSTORE PUSH1 0x60 ADD SWAP1 JUMP JUMPDEST PUSH1 0x1 PUSH1 0x1 PUSH1 0xA0 SHL SUB SWAP3 DUP4 AND DUP2 MSTORE DUP2 MLOAD PUSH4 0xFFFFFFFF AND PUSH1 0x20 DUP1 DUP4 ADD SWAP2 SWAP1 SWAP2 MSTORE DUP3 ADD MLOAD DUP4 AND PUSH1 0x40 DUP1 DUP4 ADD SWAP2 SWAP1 SWAP2 MSTORE DUP3 ADD MLOAD SWAP1 SWAP3 AND PUSH1 0x60 DUP1 DUP5 ADD SWAP2 SWAP1 SWAP2 MSTORE DUP2 ADD MLOAD PUSH1 0x80 DUP1 DUP5 ADD SWAP2 SWAP1 SWAP2 MSTORE ADD MLOAD PUSH1 0xA0 DUP3 ADD MSTORE PUSH1 0xC0 ADD SWAP1 JUMP JUMPDEST PUSH1 0x1 PUSH1 0x1 PUSH1 0xA0 SHL SUB SWAP3 SWAP1 SWAP3 AND DUP3 MSTORE PUSH1 0x20 DUP3 ADD MSTORE PUSH1 0x60 PUSH1 0x40 DUP3 ADD DUP2 SWAP1 MSTORE PUSH1 0x0 SWAP1 DUP3 ADD MSTORE PUSH1 0x80 ADD SWAP1 JUMP JUMPDEST SWAP1 ISZERO ISZERO DUP2 MSTORE PUSH1 0x20 ADD SWAP1 JUMP JUMPDEST SWAP1 DUP2 MSTORE PUSH1 0x20 ADD SWAP1 JUMP JUMPDEST SWAP3 DUP4 MSTORE PUSH1 0x20 DUP4 ADD SWAP2 SWAP1 SWAP2 MSTORE PUSH1 0x40 DUP3 ADD MSTORE PUSH1 0x60 ADD SWAP1 JUMP JUMPDEST SWAP4 DUP5 MSTORE PUSH1 0x20 DUP5 ADD SWAP3 SWAP1 SWAP3 MSTORE PUSH4 0xFFFFFFFF SWAP1 DUP2 AND PUSH1 0x40 DUP5 ADD MSTORE AND PUSH1 0x60 DUP3 ADD MSTORE PUSH1 0x80 ADD SWAP1 JUMP JUMPDEST SWAP6 DUP7 MSTORE PUSH1 0x20 DUP7 ADD SWAP5 SWAP1 SWAP5 MSTORE PUSH1 0xFF SWAP3 DUP4 AND PUSH1 0x40 DUP7 ADD MSTORE PUSH4 0xFFFFFFFF SWAP2 SWAP1 SWAP2 AND PUSH1 0x60 DUP6 ADD MSTORE AND PUSH1 0x80 DUP4 ADD MSTORE PUSH2 0xFFFF AND PUSH1 0xA0 DUP3 ADD MSTORE PUSH1 0xC0 ADD SWAP1 JUMP JUMPDEST SWAP2 DUP3 MSTORE PUSH4 0xFFFFFFFF AND PUSH1 0x20 DUP3 ADD MSTORE PUSH1 0x40 ADD SWAP1 JUMP JUMPDEST PUSH1 0x1 PUSH1 0x1 PUSH1 0xE0 SHL SUB NOT SWAP2 SWAP1 SWAP2 AND DUP2 MSTORE PUSH1 0x20 ADD SWAP1 JUMP JUMPDEST PUSH1 0x20 DUP1 DUP3 MSTORE PUSH1 0x1F SWAP1 DUP3 ADD MSTORE PUSH32 0x433A43523A417373657420746F6B656E20616C72656164792065786973747300 PUSH1 0x40 DUP3 ADD MSTORE PUSH1 0x60 ADD SWAP1 JUMP JUMPDEST PUSH1 0x20 DUP1 DUP3 MSTORE PUSH1 0x22 SWAP1 DUP3 ADD MSTORE PUSH32 0x456E756D657261626C655365743A20696E646578206F7574206F6620626F756E PUSH1 0x40 DUP3 ADD MSTORE PUSH2 0x6473 PUSH1 0xF0 SHL PUSH1 0x60 DUP3 ADD MSTORE PUSH1 0x80 ADD SWAP1 JUMP JUMPDEST PUSH1 0x20 DUP1 DUP3 MSTORE PUSH1 0x27 SWAP1 DUP3 ADD MSTORE PUSH32 0x423A4D4F443A2D4941444D2063616C6C65722021434F4E54524143545F41444D PUSH1 0x40 DUP3 ADD MSTORE PUSH7 0x494E5F524F4C45 PUSH1 0xC8 SHL PUSH1 0x60 DUP3 ADD MSTORE PUSH1 0x80 ADD SWAP1 JUMP JUMPDEST PUSH1 0x20 DUP1 DUP3 MSTORE PUSH1 0x1D SWAP1 DUP3 ADD MSTORE PUSH32 0x413A49323A204173736574206E656564732072652D696D706F72746564000000 PUSH1 0x40 DUP3 ADD MSTORE PUSH1 0x60 ADD SWAP1 JUMP JUMPDEST PUSH1 0x20 DUP1 DUP3 MSTORE PUSH1 0x2F SWAP1 DUP3 ADD MSTORE PUSH32 0x416363657373436F6E74726F6C3A2073656E646572206D75737420626520616E PUSH1 0x40 DUP3 ADD MSTORE PUSH15 0x818591B5A5B881D1BC819DC985B9D PUSH1 0x8A SHL PUSH1 0x60 DUP3 ADD MSTORE PUSH1 0x80 ADD SWAP1 JUMP JUMPDEST PUSH1 0x20 DUP1 DUP3 MSTORE PUSH1 0x14 SWAP1 DUP3 ADD MSTORE PUSH20 0x14185D5CD8589B194E881B9BDD081C185D5CD959 PUSH1 0x62 SHL PUSH1 0x40 DUP3 ADD MSTORE PUSH1 0x60 ADD SWAP1 JUMP JUMPDEST PUSH1 0x20 DUP1 DUP3 MSTORE PUSH1 0x2B SWAP1 DUP3 ADD MSTORE PUSH32 0x413A4E523A2055736572206E6F7420617574686F72697A656420746F20637265 PUSH1 0x40 DUP3 ADD MSTORE PUSH11 0x617465207265636F726473 PUSH1 0xA8 SHL PUSH1 0x60 DUP3 ADD MSTORE PUSH1 0x80 ADD SWAP1 JUMP JUMPDEST PUSH1 0x20 DUP1 DUP3 MSTORE PUSH1 0x43 SWAP1 DUP3 ADD MSTORE PUSH32 0x433A43523A436F6E747261637420646F6573206E6F7420737570706F7274206D PUSH1 0x40 DUP3 ADD MSTORE PUSH32 0x616E6167656D656E74207479706573203E2034206F72204143206973206C6F63 PUSH1 0x60 DUP3 ADD MSTORE PUSH3 0x1AD959 PUSH1 0xEA SHL PUSH1 0x80 DUP3 ADD MSTORE PUSH1 0xA0 ADD SWAP1 JUMP JUMPDEST PUSH1 0x20 DUP1 DUP3 MSTORE PUSH1 0x3 SWAP1 DUP3 ADD MSTORE PUSH3 0x41505 PUSH1 0xEC SHL PUSH1 0x40 DUP3 ADD MSTORE PUSH1 0x60 ADD SWAP1 JUMP JUMPDEST PUSH1 0x20 DUP1 DUP3 MSTORE PUSH1 0x19 SWAP1 DUP3 ADD MSTORE PUSH32 0x413A4E523A2055736572206E6F74206175746820696E20414300000000000000 PUSH1 0x40 DUP3 ADD MSTORE PUSH1 0x60 ADD SWAP1 JUMP JUMPDEST PUSH1 0x20 DUP1 DUP3 MSTORE PUSH1 0x4 SWAP1 DUP3 ADD MSTORE PUSH4 0x2921A629 PUSH1 0xE1 SHL PUSH1 0x40 DUP3 ADD MSTORE PUSH1 0x60 ADD SWAP1 JUMP JUMPDEST PUSH1 0x20 DUP1 DUP3 MSTORE PUSH1 0x2F SWAP1 DUP3 ADD MSTORE PUSH32 0x413A49323A20526967687473686F6C64657220646F6573206E6F74206D617463 PUSH1 0x40 DUP3 ADD MSTORE PUSH15 0x6820737570706C6965642064617461 PUSH1 0x88 SHL PUSH1 0x60 DUP3 ADD MSTORE PUSH1 0x80 ADD SWAP1 JUMP JUMPDEST PUSH1 0x20 DUP1 DUP3 MSTORE PUSH1 0x37 SWAP1 DUP3 ADD MSTORE PUSH32 0x433A43523A43616C6C657220646F6573206E6F7420686F6C6420737566666963 PUSH1 0x40 DUP3 ADD MSTORE PUSH32 0x69656E746C792074727573746564204944202831302B29000000000000000000 PUSH1 0x60 DUP3 ADD MSTORE PUSH1 0x80 ADD SWAP1 JUMP JUMPDEST PUSH1 0x20 DUP1 DUP3 MSTORE PUSH1 0x17 SWAP1 DUP3 ADD MSTORE PUSH32 0x413A464D523A204173736574206D61726B6564204C2F53000000000000000000 PUSH1 0x40 DUP3 ADD MSTORE PUSH1 0x60 ADD SWAP1 JUMP JUMPDEST PUSH1 0x20 DUP1 DUP3 MSTORE PUSH1 0x19 SWAP1 DUP3 ADD MSTORE PUSH32 0x413A54413A2055736572206E6F74206175746820696E20414300000000000000 PUSH1 0x40 DUP3 ADD MSTORE PUSH1 0x60 ADD SWAP1 JUMP JUMPDEST PUSH1 0x20 DUP1 DUP3 MSTORE PUSH1 0x30 SWAP1 DUP3 ADD MSTORE PUSH32 0x416363657373436F6E74726F6C3A2073656E646572206D75737420626520616E PUSH1 0x40 DUP3 ADD MSTORE PUSH16 0x2061646D696E20746F207265766F6B65 PUSH1 0x80 SHL PUSH1 0x60 DUP3 ADD MSTORE PUSH1 0x80 ADD SWAP1 JUMP JUMPDEST PUSH1 0x20 DUP1 DUP3 MSTORE PUSH1 0x26 SWAP1 DUP3 ADD MSTORE PUSH32 0x423A4D4F442D49503A43616C6C696E672061646472657373206973206E6F7420 PUSH1 0x40 DUP3 ADD MSTORE PUSH6 0x3830BAB9B2B9 PUSH1 0xD1 SHL PUSH1 0x60 DUP3 ADD MSTORE PUSH1 0x80 ADD SWAP1 JUMP JUMPDEST PUSH1 0x20 DUP1 DUP3 MSTORE PUSH1 0x29 SWAP1 DUP3 ADD MSTORE PUSH32 0x433A44503A20726F6F74207061796D656E7420616472657373206973207A6572 PUSH1 0x40 DUP3 ADD MSTORE PUSH9 0x6F2061646472657373 PUSH1 0xB8 SHL PUSH1 0x60 DUP3 ADD MSTORE PUSH1 0x80 ADD SWAP1 JUMP JUMPDEST PUSH1 0x20 DUP1 DUP3 MSTORE PUSH1 0x10 SWAP1 DUP3 ADD MSTORE PUSH16 0x14185D5CD8589B194E881C185D5CD959 PUSH1 0x82 SHL PUSH1 0x40 DUP3 ADD MSTORE PUSH1 0x60 ADD SWAP1 JUMP JUMPDEST PUSH1 0x20 DUP1 DUP3 MSTORE PUSH1 0x39 SWAP1 DUP3 ADD MSTORE PUSH32 0x413A49413A204F6E6C79205472616E73666572726564206F72206578706F7274 PUSH1 0x40 DUP3 ADD MSTORE PUSH32 0x6564206173736574732063616E20626520696D706F7274656400000000000000 PUSH1 0x60 DUP3 ADD MSTORE PUSH1 0x80 ADD SWAP1 JUMP JUMPDEST PUSH1 0x20 DUP1 DUP3 MSTORE PUSH1 0x1E SWAP1 DUP3 ADD MSTORE PUSH32 0x423A54583A4D75737420686176652041535345545F545846525F524F4C450000 PUSH1 0x40 DUP3 ADD MSTORE PUSH1 0x60 ADD SWAP1 JUMP JUMPDEST PUSH1 0x20 DUP1 DUP3 MSTORE PUSH1 0x5 SWAP1 DUP3 ADD MSTORE PUSH5 0x20AFAA25A7 PUSH1 0xD9 SHL PUSH1 0x40 DUP3 ADD MSTORE PUSH1 0x60 ADD SWAP1 JUMP JUMPDEST PUSH1 0x20 DUP1 DUP3 MSTORE PUSH1 0x22 SWAP1 DUP3 ADD MSTORE PUSH32 0x413A54413A41737365742073746174757320213D207472616E73666572726162 PUSH1 0x40 DUP3 ADD MSTORE PUSH2 0x6C65 PUSH1 0xF0 SHL PUSH1 0x60 DUP3 ADD MSTORE PUSH1 0x80 ADD SWAP1 JUMP JUMPDEST PUSH1 0x20 DUP1 DUP3 MSTORE PUSH1 0x1E SWAP1 DUP3 ADD MSTORE PUSH32 0x413A464D523A204173736574206E656564732072652D696D706F727465640000 PUSH1 0x40 DUP3 ADD MSTORE PUSH1 0x60 ADD SWAP1 JUMP JUMPDEST PUSH1 0x20 DUP1 DUP3 MSTORE PUSH1 0x12 SWAP1 DUP3 ADD MSTORE PUSH18 0x423A5353433A2041646472657373203D203 PUSH1 0x74 SHL PUSH1 0x40 DUP3 ADD MSTORE PUSH1 0x60 ADD SWAP1 JUMP JUMPDEST PUSH1 0x20 DUP1 DUP3 MSTORE PUSH1 0x6 SWAP1 DUP3 ADD MSTORE PUSH6 0x20A1AFAA25A7 PUSH1 0xD1 SHL PUSH1 0x40 DUP3 ADD MSTORE PUSH1 0x60 ADD SWAP1 JUMP JUMPDEST PUSH1 0x20 DUP1 DUP3 MSTORE PUSH1 0x2A SWAP1 DUP3 ADD MSTORE PUSH32 0x413A49413A2055736572206E6F7420617574686F72697A656420746F20696D70 PUSH1 0x40 DUP3 ADD MSTORE PUSH10 0x6F727420617373657473 PUSH1 0xB0 SHL PUSH1 0x60 DUP3 ADD MSTORE PUSH1 0x80 ADD SWAP1 JUMP JUMPDEST PUSH1 0x20 DUP1 DUP3 MSTORE PUSH1 0x19 SWAP1 DUP3 ADD MSTORE PUSH32 0x413A49323A2055736572206E6F74206175746820696E20414300000000000000 PUSH1 0x40 DUP3 ADD MSTORE PUSH1 0x60 ADD SWAP1 JUMP JUMPDEST PUSH1 0x20 DUP1 DUP3 MSTORE PUSH1 0x32 SWAP1 DUP3 ADD MSTORE PUSH32 0x433A4453433A696E76616C696420646973636F756E742076616C756520666F72 PUSH1 0x40 DUP3 ADD MSTORE PUSH18 0x10383934B1B29031B0B631BAB630BA34B7B7 PUSH1 0x71 SHL PUSH1 0x60 DUP3 ADD MSTORE PUSH1 0x80 ADD SWAP1 JUMP JUMPDEST PUSH1 0x20 DUP1 DUP3 MSTORE PUSH1 0x4D SWAP1 DUP3 ADD MSTORE PUSH32 0x433A43523A43616E6E6F742063726561746520617373657420696E204143206D PUSH1 0x40 DUP3 ADD MSTORE PUSH32 0x676D74207479706520317C7C32202D2063616C6C657220646F6573206E6F7420 PUSH1 0x60 DUP3 ADD MSTORE PUSH13 0x3437B6321020A1903A37B5B2B7 PUSH1 0x99 SHL PUSH1 0x80 DUP3 ADD MSTORE PUSH1 0xA0 ADD SWAP1 JUMP JUMPDEST PUSH1 0x20 DUP1 DUP3 MSTORE PUSH1 0x4F SWAP1 DUP3 ADD MSTORE PUSH32 0x433A43523A43616E6E6F7420637265617465206173736574202D20636F6E7472 PUSH1 0x40 DUP3 ADD MSTORE PUSH32 0x616374206E6F7420617574686F72697A656420666F7220617373657420636C61 PUSH1 0x60 DUP3 ADD MSTORE PUSH15 0x737320637573746F64792074797065 PUSH1 0x88 SHL PUSH1 0x80 DUP3 ADD MSTORE PUSH1 0xA0 ADD SWAP1 JUMP JUMPDEST PUSH1 0x20 DUP1 DUP3 MSTORE PUSH1 0x38 SWAP1 DUP3 ADD MSTORE PUSH32 0x433A43523A43616E6E6F7420637265617465206173736574202D2063616C6C65 PUSH1 0x40 DUP3 ADD MSTORE PUSH32 0x722061646472657373206E6F7420617574686F72697A65640000000000000000 PUSH1 0x60 DUP3 ADD MSTORE PUSH1 0x80 ADD SWAP1 JUMP JUMPDEST PUSH1 0x20 DUP1 DUP3 MSTORE PUSH1 0x6 SWAP1 DUP3 ADD MSTORE PUSH6 0x4150505F4E43 PUSH1 0xD0 SHL PUSH1 0x40 DUP3 ADD MSTORE PUSH1 0x60 ADD SWAP1 JUMP JUMPDEST PUSH1 0x20 DUP1 DUP3 MSTORE PUSH1 0x24 SWAP1 DUP3 ADD MSTORE PUSH32 0x413A4D4F442D49413A2041505020636F6E74726163742021746F6B656E20686F PUSH1 0x40 DUP3 ADD MSTORE PUSH4 0x363232B9 PUSH1 0xE1 SHL PUSH1 0x60 DUP3 ADD MSTORE PUSH1 0x80 ADD SWAP1 JUMP JUMPDEST PUSH1 0x20 DUP1 DUP3 MSTORE PUSH1 0x2D SWAP1 DUP3 ADD MSTORE PUSH32 0x413A54413A4F6E6C79207573657274797065203C20352063616E206368616E67 PUSH1 0x40 DUP3 ADD MSTORE PUSH13 0x6520737461747573203C20353 PUSH1 0x9C SHL PUSH1 0x60 DUP3 ADD MSTORE PUSH1 0x80 ADD SWAP1 JUMP JUMPDEST PUSH1 0x20 DUP1 DUP3 MSTORE PUSH1 0x6 SWAP1 DUP3 ADD MSTORE PUSH6 0x24A22FAA25A7 PUSH1 0xD1 SHL PUSH1 0x40 DUP3 ADD MSTORE PUSH1 0x60 ADD SWAP1 JUMP JUMPDEST PUSH1 0x20 DUP1 DUP3 MSTORE PUSH1 0x1A SWAP1 DUP3 ADD MSTORE PUSH32 0x413A464D523A2055736572206E6F74206175746820696E204143000000000000 PUSH1 0x40 DUP3 ADD MSTORE PUSH1 0x60 ADD SWAP1 JUMP JUMPDEST PUSH1 0x20 DUP1 DUP3 MSTORE PUSH1 0x2E SWAP1 DUP3 ADD MSTORE PUSH32 0x413A54413A526967687473686F6C64657220646F6573206E6F74206D61746368 PUSH1 0x40 DUP3 ADD MSTORE PUSH14 0x20737570706C6965642064617461 PUSH1 0x90 SHL PUSH1 0x60 DUP3 ADD MSTORE PUSH1 0x80 ADD SWAP1 JUMP JUMPDEST PUSH1 0x20 DUP1 DUP3 MSTORE PUSH1 0x7 SWAP1 DUP3 ADD MSTORE PUSH7 0x22A1A92FA6A3A9 PUSH1 0xC9 SHL PUSH1 0x40 DUP3 ADD MSTORE PUSH1 0x60 ADD SWAP1 JUMP JUMPDEST PUSH1 0x20 DUP1 DUP3 MSTORE PUSH1 0x2E SWAP1 DUP3 ADD MSTORE PUSH32 0x433A43523A43616E6E6F742063726561746520617373657420696E206120726F PUSH1 0x40 DUP3 ADD MSTORE PUSH14 0x6F7420617373657420636C617373 PUSH1 0x90 SHL PUSH1 0x60 DUP3 ADD MSTORE PUSH1 0x80 ADD SWAP1 JUMP JUMPDEST PUSH1 0x20 DUP1 DUP3 MSTORE PUSH1 0x2 SWAP1 DUP3 ADD MSTORE PUSH2 0x4E5 PUSH1 0xF4 SHL PUSH1 0x40 DUP3 ADD MSTORE PUSH1 0x60 ADD SWAP1 JUMP JUMPDEST PUSH1 0x20 DUP1 DUP3 MSTORE PUSH1 0x1F SWAP1 DUP3 ADD MSTORE PUSH32 0x5265656E7472616E637947756172643A207265656E7472616E742063616C6C00 PUSH1 0x40 DUP3 ADD MSTORE PUSH1 0x60 ADD SWAP1 JUMP JUMPDEST PUSH1 0x20 DUP1 DUP3 MSTORE PUSH1 0x8 SWAP1 DUP3 ADD MSTORE PUSH8 0x2AAA24A62FAA25A7 PUSH1 0xC1 SHL PUSH1 0x40 DUP3 ADD MSTORE PUSH1 0x60 ADD SWAP1 JUMP JUMPDEST PUSH1 0x20 DUP1 DUP3 MSTORE PUSH1 0x6 SWAP1 DUP3 ADD MSTORE PUSH6 0x20A1AFA6A3A9 PUSH1 0xD1 SHL PUSH1 0x40 DUP3 ADD MSTORE PUSH1 0x60 ADD SWAP1 JUMP JUMPDEST PUSH1 0x20 DUP1 DUP3 MSTORE PUSH1 0x19 SWAP1 DUP3 ADD MSTORE PUSH32 0x413A49413A2055736572206E6F74206175746820696E20414300000000000000 PUSH1 0x40 DUP3 ADD MSTORE PUSH1 0x60 ADD SWAP1 JUMP JUMPDEST PUSH1 0x20 DUP1 DUP3 MSTORE PUSH1 0x2F SWAP1 DUP3 ADD MSTORE PUSH32 0x416363657373436F6E74726F6C3A2063616E206F6E6C792072656E6F756E6365 PUSH1 0x40 DUP3 ADD MSTORE PUSH15 0x103937B632B9903337B91039B2B633 PUSH1 0x89 SHL PUSH1 0x60 DUP3 ADD MSTORE PUSH1 0x80 ADD SWAP1 JUMP JUMPDEST PUSH4 0xFFFFFFFF SWAP2 SWAP1 SWAP2 AND DUP2 MSTORE PUSH1 0x20 ADD SWAP1 JUMP JUMPDEST PUSH4 0xFFFFFFFF SWAP3 SWAP1 SWAP3 AND DUP3 MSTORE PUSH2 0xFFFF AND PUSH1 0x20 DUP3 ADD MSTORE PUSH1 0x40 ADD SWAP1 JUMP JUMPDEST PUSH1 0xFF SWAP2 SWAP1 SWAP2 AND DUP2 MSTORE PUSH1 0x20 ADD SWAP1 JUMP JUMPDEST PUSH1 0x40 MLOAD PUSH1 0x1F DUP3 ADD PUSH1 0x1F NOT AND DUP2 ADD PUSH8 0xFFFFFFFFFFFFFFFF DUP2 GT DUP3 DUP3 LT OR ISZERO PUSH2 0x399C JUMPI PUSH4 0x4E487B71 PUSH1 0xE0 SHL PUSH1 0x0 MSTORE PUSH1 0x41 PUSH1 0x4 MSTORE PUSH1 0x24 PUSH1 0x0 REVERT JUMPDEST PUSH1 0x40 MSTORE SWAP2 SWAP1 POP JUMP JUMPDEST PUSH1 0x0 DUP3 NOT DUP3 GT ISZERO PUSH2 0x39B7 JUMPI PUSH2 0x39B7 PUSH2 0x3A12 JUMP JUMPDEST POP ADD SWAP1 JUMP JUMPDEST PUSH1 0x0 DUP3 PUSH2 0x39D7 JUMPI PUSH4 0x4E487B71 PUSH1 0xE0 SHL DUP2 MSTORE PUSH1 0x12 PUSH1 0x4 MSTORE PUSH1 0x24 DUP2 REVERT JUMPDEST POP DIV SWAP1 JUMP JUMPDEST PUSH1 0x0 DUP2 PUSH1 0x0 NOT DIV DUP4 GT DUP3 ISZERO ISZERO AND ISZERO PUSH2 0x39F6 JUMPI PUSH2 0x39F6 PUSH2 0x3A12 JUMP JUMPDEST POP MUL SWAP1 JUMP JUMPDEST PUSH1 0x0 DUP3 DUP3 LT ISZERO PUSH2 0x3A0D JUMPI PUSH2 0x3A0D PUSH2 0x3A12 JUMP JUMPDEST POP SUB SWAP1 JUMP JUMPDEST PUSH4 0x4E487B71 PUSH1 0xE0 SHL PUSH1 0x0 MSTORE PUSH1 0x11 PUSH1 0x4 MSTORE PUSH1 0x24 PUSH1 0x0 REVERT JUMPDEST PUSH1 0x1 PUSH1 0x1 PUSH1 0xA0 SHL SUB DUP2 AND DUP2 EQ PUSH2 0x3A3D JUMPI PUSH1 0x0 DUP1 REVERT JUMPDEST POP JUMP JUMPDEST PUSH4 0xFFFFFFFF DUP2 AND DUP2 EQ PUSH2 0x3A3D JUMPI PUSH1 0x0 DUP1 REVERT INVALID 0x2C 0xE8 0xD0 0x4A SWAP13 CALLDATALOAD SWAP9 PUSH21 0x29AF538825CD2438CC5C5BB5DC427955F84DAAA3EA LT POP AND LOG2 PUSH5 0x6970667358 0x22 SLT KECCAK256 0x5C PUSH30 0xA29FA69F5577F1A6A63093624A92AF3424E6535F8C30F441907768E86C2C PUSH5 0x736F6C6343 STOP ADDMOD ADD STOP CALLER "
		},
		"gasEstimates": {
			"creation": {
				"codeDepositCost": "3003200",
				"executionCost": "infinite",
				"totalCost": "infinite"
			},
			"external": {
				"ASSET_TXFR_ROLE()": "274",
				"B320xF_()": "320",
				"CONTRACT_ADMIN_ROLE()": "infinite",
				"DEFAULT_ADMIN_ROLE()": "295",
				"OO_resolveContractAddresses()": "infinite",
				"OO_setStorageContract(address)": "infinite",
				"OO_transferACToken(address,uint256)": "infinite",
				"PAUSER_ROLE()": "316",
				"addIpfs2Note(bytes32,bytes32,bytes32,bytes32)": "infinite",
				"forceModRecord(bytes32,bytes32)": "infinite",
				"getRoleAdmin(bytes32)": "1295",
				"getRoleMember(bytes32,uint256)": "infinite",
				"getRoleMemberCount(bytes32)": "infinite",
				"grantRole(bytes32,address)": "infinite",
				"hasRole(bytes32,address)": "infinite",
				"importAsset(bytes32,bytes32,uint32)": "infinite",
				"newRecord(bytes32,bytes32,uint32,uint32)": "infinite",
				"onERC721Received(address,address,uint256,bytes)": "infinite",
				"pause()": "infinite",
				"paused()": "1063",
				"renounceRole(bytes32,address)": "infinite",
				"revokeRole(bytes32,address)": "infinite",
				"transferAsset(bytes32,bytes32,bytes32)": "infinite",
				"transferAssetToken(address,bytes32)": "infinite",
				"unpause()": "infinite"
			}
		},
		"methodIdentifiers": {
			"ASSET_TXFR_ROLE()": "1429db5f",
			"B320xF_()": "3b21fd68",
			"CONTRACT_ADMIN_ROLE()": "1da03312",
			"DEFAULT_ADMIN_ROLE()": "a217fddf",
			"OO_resolveContractAddresses()": "e8b41653",
			"OO_setStorageContract(address)": "d6b02ecf",
			"OO_transferACToken(address,uint256)": "92ba3da6",
			"PAUSER_ROLE()": "e63ab1e9",
			"addIpfs2Note(bytes32,bytes32,bytes32,bytes32)": "8b40d5a3",
			"forceModRecord(bytes32,bytes32)": "32fd1dae",
			"getRoleAdmin(bytes32)": "248a9ca3",
			"getRoleMember(bytes32,uint256)": "9010d07c",
			"getRoleMemberCount(bytes32)": "ca15c873",
			"grantRole(bytes32,address)": "2f2ff15d",
			"hasRole(bytes32,address)": "91d14854",
			"importAsset(bytes32,bytes32,uint32)": "13d1ad30",
			"newRecord(bytes32,bytes32,uint32,uint32)": "3530d114",
			"onERC721Received(address,address,uint256,bytes)": "150b7a02",
			"pause()": "8456cb59",
			"paused()": "5c975abb",
			"renounceRole(bytes32,address)": "36568abe",
			"revokeRole(bytes32,address)": "d547741f",
			"transferAsset(bytes32,bytes32,bytes32)": "5db1674f",
			"transferAssetToken(address,bytes32)": "440e7a7e",
			"unpause()": "3f4ba83a"
		}
	},
	"abi": [
		{
			"anonymous": false,
			"inputs": [
				{
					"indexed": false,
					"internalType": "address",
					"name": "account",
					"type": "address"
				}
			],
			"name": "Paused",
			"type": "event"
		},
		{
			"anonymous": false,
			"inputs": [
				{
					"indexed": false,
					"internalType": "string",
					"name": "_msg",
					"type": "string"
				}
			],
			"name": "REPORT",
			"type": "event"
		},
		{
			"anonymous": false,
			"inputs": [
				{
					"indexed": true,
					"internalType": "bytes32",
					"name": "role",
					"type": "bytes32"
				},
				{
					"indexed": true,
					"internalType": "bytes32",
					"name": "previousAdminRole",
					"type": "bytes32"
				},
				{
					"indexed": true,
					"internalType": "bytes32",
					"name": "newAdminRole",
					"type": "bytes32"
				}
			],
			"name": "RoleAdminChanged",
			"type": "event"
		},
		{
			"anonymous": false,
			"inputs": [
				{
					"indexed": true,
					"internalType": "bytes32",
					"name": "role",
					"type": "bytes32"
				},
				{
					"indexed": true,
					"internalType": "address",
					"name": "account",
					"type": "address"
				},
				{
					"indexed": true,
					"internalType": "address",
					"name": "sender",
					"type": "address"
				}
			],
			"name": "RoleGranted",
			"type": "event"
		},
		{
			"anonymous": false,
			"inputs": [
				{
					"indexed": true,
					"internalType": "bytes32",
					"name": "role",
					"type": "bytes32"
				},
				{
					"indexed": true,
					"internalType": "address",
					"name": "account",
					"type": "address"
				},
				{
					"indexed": true,
					"internalType": "address",
					"name": "sender",
					"type": "address"
				}
			],
			"name": "RoleRevoked",
			"type": "event"
		},
		{
			"anonymous": false,
			"inputs": [
				{
					"indexed": false,
					"internalType": "address",
					"name": "account",
					"type": "address"
				}
			],
			"name": "Unpaused",
			"type": "event"
		},
		{
			"inputs": [],
			"name": "ASSET_TXFR_ROLE",
			"outputs": [
				{
					"internalType": "bytes32",
					"name": "",
					"type": "bytes32"
				}
			],
			"stateMutability": "view",
			"type": "function"
		},
		{
			"inputs": [],
			"name": "B320xF_",
			"outputs": [
				{
					"internalType": "bytes32",
					"name": "",
					"type": "bytes32"
				}
			],
			"stateMutability": "view",
			"type": "function"
		},
		{
			"inputs": [],
			"name": "CONTRACT_ADMIN_ROLE",
			"outputs": [
				{
					"internalType": "bytes32",
					"name": "",
					"type": "bytes32"
				}
			],
			"stateMutability": "view",
			"type": "function"
		},
		{
			"inputs": [],
			"name": "DEFAULT_ADMIN_ROLE",
			"outputs": [
				{
					"internalType": "bytes32",
					"name": "",
					"type": "bytes32"
				}
			],
			"stateMutability": "view",
			"type": "function"
		},
		{
			"inputs": [],
			"name": "OO_resolveContractAddresses",
			"outputs": [],
			"stateMutability": "nonpayable",
			"type": "function"
		},
		{
			"inputs": [
				{
					"internalType": "address",
					"name": "_storageAddress",
					"type": "address"
				}
			],
			"name": "OO_setStorageContract",
			"outputs": [],
			"stateMutability": "nonpayable",
			"type": "function"
		},
		{
			"inputs": [
				{
					"internalType": "address",
					"name": "_to",
					"type": "address"
				},
				{
					"internalType": "uint256",
					"name": "_tokenID",
					"type": "uint256"
				}
			],
			"name": "OO_transferACToken",
			"outputs": [],
			"stateMutability": "nonpayable",
			"type": "function"
		},
		{
			"inputs": [],
			"name": "PAUSER_ROLE",
			"outputs": [
				{
					"internalType": "bytes32",
					"name": "",
					"type": "bytes32"
				}
			],
			"stateMutability": "view",
			"type": "function"
		},
		{
			"inputs": [
				{
					"internalType": "bytes32",
					"name": "_idxHash",
					"type": "bytes32"
				},
				{
					"internalType": "bytes32",
					"name": "_rgtHash",
					"type": "bytes32"
				},
				{
					"internalType": "bytes32",
					"name": "_Ipfs2a",
					"type": "bytes32"
				},
				{
					"internalType": "bytes32",
					"name": "_Ipfs2b",
					"type": "bytes32"
				}
			],
			"name": "addIpfs2Note",
			"outputs": [],
			"stateMutability": "nonpayable",
			"type": "function"
		},
		{
			"inputs": [
				{
					"internalType": "bytes32",
					"name": "_idxHash",
					"type": "bytes32"
				},
				{
					"internalType": "bytes32",
					"name": "_rgtHash",
					"type": "bytes32"
				}
			],
			"name": "forceModRecord",
			"outputs": [
				{
					"internalType": "uint8",
					"name": "",
					"type": "uint8"
				}
			],
			"stateMutability": "nonpayable",
			"type": "function"
		},
		{
			"inputs": [
				{
					"internalType": "bytes32",
					"name": "role",
					"type": "bytes32"
				}
			],
			"name": "getRoleAdmin",
			"outputs": [
				{
					"internalType": "bytes32",
					"name": "",
					"type": "bytes32"
				}
			],
			"stateMutability": "view",
			"type": "function"
		},
		{
			"inputs": [
				{
					"internalType": "bytes32",
					"name": "role",
					"type": "bytes32"
				},
				{
					"internalType": "uint256",
					"name": "index",
					"type": "uint256"
				}
			],
			"name": "getRoleMember",
			"outputs": [
				{
					"internalType": "address",
					"name": "",
					"type": "address"
				}
			],
			"stateMutability": "view",
			"type": "function"
		},
		{
			"inputs": [
				{
					"internalType": "bytes32",
					"name": "role",
					"type": "bytes32"
				}
			],
			"name": "getRoleMemberCount",
			"outputs": [
				{
					"internalType": "uint256",
					"name": "",
					"type": "uint256"
				}
			],
			"stateMutability": "view",
			"type": "function"
		},
		{
			"inputs": [
				{
					"internalType": "bytes32",
					"name": "role",
					"type": "bytes32"
				},
				{
					"internalType": "address",
					"name": "account",
					"type": "address"
				}
			],
			"name": "grantRole",
			"outputs": [],
			"stateMutability": "nonpayable",
			"type": "function"
		},
		{
			"inputs": [
				{
					"internalType": "bytes32",
					"name": "role",
					"type": "bytes32"
				},
				{
					"internalType": "address",
					"name": "account",
					"type": "address"
				}
			],
			"name": "hasRole",
			"outputs": [
				{
					"internalType": "bool",
					"name": "",
					"type": "bool"
				}
			],
			"stateMutability": "view",
			"type": "function"
		},
		{
			"inputs": [
				{
					"internalType": "bytes32",
					"name": "_idxHash",
					"type": "bytes32"
				},
				{
					"internalType": "bytes32",
					"name": "_newRgtHash",
					"type": "bytes32"
				},
				{
					"internalType": "uint32",
					"name": "_newAssetClass",
					"type": "uint32"
				}
			],
			"name": "importAsset",
			"outputs": [
				{
					"internalType": "uint8",
					"name": "",
					"type": "uint8"
				}
			],
			"stateMutability": "nonpayable",
			"type": "function"
		},
		{
			"inputs": [
				{
					"internalType": "bytes32",
					"name": "_idxHash",
					"type": "bytes32"
				},
				{
					"internalType": "bytes32",
					"name": "_rgtHash",
					"type": "bytes32"
				},
				{
					"internalType": "uint32",
					"name": "_assetClass",
					"type": "uint32"
				},
				{
					"internalType": "uint32",
					"name": "_countDownStart",
					"type": "uint32"
				}
			],
			"name": "newRecord",
			"outputs": [],
			"stateMutability": "nonpayable",
			"type": "function"
		},
		{
			"inputs": [
				{
					"internalType": "address",
					"name": "",
					"type": "address"
				},
				{
					"internalType": "address",
					"name": "",
					"type": "address"
				},
				{
					"internalType": "uint256",
					"name": "",
					"type": "uint256"
				},
				{
					"internalType": "bytes",
					"name": "",
					"type": "bytes"
				}
			],
			"name": "onERC721Received",
			"outputs": [
				{
					"internalType": "bytes4",
					"name": "",
					"type": "bytes4"
				}
			],
			"stateMutability": "nonpayable",
			"type": "function"
		},
		{
			"inputs": [],
			"name": "pause",
			"outputs": [],
			"stateMutability": "nonpayable",
			"type": "function"
		},
		{
			"inputs": [],
			"name": "paused",
			"outputs": [
				{
					"internalType": "bool",
					"name": "",
					"type": "bool"
				}
			],
			"stateMutability": "view",
			"type": "function"
		},
		{
			"inputs": [
				{
					"internalType": "bytes32",
					"name": "role",
					"type": "bytes32"
				},
				{
					"internalType": "address",
					"name": "account",
					"type": "address"
				}
			],
			"name": "renounceRole",
			"outputs": [],
			"stateMutability": "nonpayable",
			"type": "function"
		},
		{
			"inputs": [
				{
					"internalType": "bytes32",
					"name": "role",
					"type": "bytes32"
				},
				{
					"internalType": "address",
					"name": "account",
					"type": "address"
				}
			],
			"name": "revokeRole",
			"outputs": [],
			"stateMutability": "nonpayable",
			"type": "function"
		},
		{
			"inputs": [
				{
					"internalType": "bytes32",
					"name": "_idxHash",
					"type": "bytes32"
				},
				{
					"internalType": "bytes32",
					"name": "_rgtHash",
					"type": "bytes32"
				},
				{
					"internalType": "bytes32",
					"name": "_newrgtHash",
					"type": "bytes32"
				}
			],
			"name": "transferAsset",
			"outputs": [
				{
					"internalType": "uint8",
					"name": "",
					"type": "uint8"
				}
			],
			"stateMutability": "nonpayable",
			"type": "function"
		},
		{
			"inputs": [
				{
					"internalType": "address",
					"name": "_to",
					"type": "address"
				},
				{
					"internalType": "bytes32",
					"name": "_idxHash",
					"type": "bytes32"
				}
			],
			"name": "transferAssetToken",
			"outputs": [],
			"stateMutability": "nonpayable",
			"type": "function"
		},
		{
			"inputs": [],
			"name": "unpause",
			"outputs": [],
			"stateMutability": "nonpayable",
			"type": "function"
		}
	]
}