{
	"data": {
		"bytecode": {
			"linkReferences": {},
			"object": "60806040523480156200001157600080fd5b50600160009081556002805460ff191690556200003890620000326200009c565b620000a0565b620000677f2ce8d04a9c35987429af538825cd2438cc5c5bb5dc427955f84daaa3ea105016620000326200009c565b620000967f65d7a28e3265b37a6474929f336521b332c1681b933f6cb9f3376673440d862a620000326200009c565b620001b2565b3390565b620000ac8282620000b0565b5050565b6000828152600160209081526040909120620000d7918390620011a66200012b821b17901c565b15620000ac57620000e76200009c565b6001600160a01b0316816001600160a01b0316837f2f8788117e7eff1d82e926ec794901d17c78024a50270940304540a733656f0d60405160405180910390a45050565b600062000142836001600160a01b0384166200014b565b90505b92915050565b60006200015983836200019a565b620001915750815460018181018455600084815260208082209093018490558454848252828601909352604090209190915562000145565b50600062000145565b60009081526001919091016020526040902054151590565b6123c080620001c26000396000f3fe608060405234801561001057600080fd5b50600436106101375760003560e01c80639010d07c116100b8578063ca15c8731161007c578063ca15c87314610256578063d547741f14610269578063d6b02ecf1461027c578063e63ab1e91461028f578063e8b4165314610297578063e8e1152c1461029f57610137565b80639010d07c146101f557806391d148541461021557806392ba3da614610228578063a217fddf1461023b578063b29c39591461024357610137565b806336568abe116100ff57806336568abe146101aa5780633f4ba83a146101bd578063440e7a7e146101c55780635c975abb146101d85780638456cb59146101ed57610137565b80631429db5f1461013c578063150b7a021461015a5780631da033121461017a578063248a9ca3146101825780632f2ff15d14610195575b600080fd5b6101446102b2565b6040516101519190611c43565b60405180910390f35b61016d6101683660046118f5565b6102d6565b6040516101519190611c6a565b6101446102e7565b6101446101903660046119ba565b6102f9565b6101a86101a33660046119ea565b610311565b005b6101a86101b83660046119ea565b610362565b6101a86103a4565b6101a86101d336600461198f565b6103f6565b6101e06104d6565b6040516101519190611c38565b6101a86104df565b610208610203366004611a59565b61052f565b6040516101519190611be1565b6101e06102233660046119ea565b610550565b6101a861023636600461198f565b610568565b610144610635565b6101a8610251366004611a19565b61063a565b6101446102643660046119ba565b610800565b6101a86102773660046119ea565b610817565b6101a861028a3660046118bd565b610851565b6101446108cf565b6101a86108f3565b6101a86102ad3660046119ba565b610fa9565b7f7f1e4e9f3d9ba0452a25cfef4cd4c6ffc86158d06ed2f585fa0093e12dec429c81565b630a85bd0160e11b95945050505050565b60008051602061236b83398151915281565b6000818152600160205260409020600201545b919050565b60008281526001602052604090206002015461032f906102236111bb565b6103545760405162461bcd60e51b815260040161034b90611d08565b60405180910390fd5b61035e82826111bf565b5050565b61036a6111bb565b6001600160a01b0316816001600160a01b03161461039a5760405162461bcd60e51b815260040161034b9061218c565b61035e8282611228565b6103d07f65d7a28e3265b37a6474929f336521b332c1681b933f6cb9f3376673440d862a6102236111bb565b6103ec5760405162461bcd60e51b815260040161034b90611ea4565b6103f4611291565b565b600260005414156104195760405162461bcd60e51b815260040161034b90612113565b600260005561044a7f7f1e4e9f3d9ba0452a25cfef4cd4c6ffc86158d06ed2f585fa0093e12dec429c6102236111bb565b6104665760405162461bcd60e51b815260040161034b90611f14565b600954604051632142170760e11b815282916001600160a01b0316906342842e0e9061049a90309087908690600401611bf5565b600060405180830381600087803b1580156104b457600080fd5b505af11580156104c8573d6000803e3d6000fd5b505060016000555050505050565b60025460ff1690565b61050b7f65d7a28e3265b37a6474929f336521b332c1681b933f6cb9f3376673440d862a6102236111bb565b6105275760405162461bcd60e51b815260040161034b90611ea4565b6103f46112ff565b6000828152600160205260408120610547908361135a565b90505b92915050565b60008281526001602052604081206105479083611366565b61058260008051602061236b8339815191526102236111bb565b61059e5760405162461bcd60e51b815260040161034b90611cc1565b600260005414156105c15760405162461bcd60e51b815260040161034b90612113565b6002600055600b54604051632142170760e11b81526001600160a01b03909116906342842e0e906105fa90309086908690600401611bf5565b600060405180830381600087803b15801561061457600080fd5b505af1158015610628573d6000803e3d6000fd5b5050600160005550505050565b600081565b6002600054141561065d5760405162461bcd60e51b815260040161034b90612113565b6002600055838061066c6111bb565b6009546040516331a9108f60e11b81526001600160a01b039283169290911690636352211e906106a0908590600401611c43565b602060405180830381600087803b1580156106ba57600080fd5b505af11580156106ce573d6000803e3d6000fd5b505050506040513d601f19601f820116820180604052508101906106f291906118d9565b6001600160a01b0316146107185760405162461bcd60e51b815260040161034b90612228565b60006107238761137b565b9050600061073186426122fe565b905060008061074430856080015161140e565b805190915060ff166107685760405162461bcd60e51b815260040161034b90611dc0565b6031846000015160ff161161078f5760405162461bcd60e51b815260040161034b90611fed565b428310156107af5760405162461bcd60e51b815260040161034b9061226e565b8660ff16603214806107c457508660ff166038145b6107e05760405162461bcd60e51b815260040161034b906121db565b8691506107ef8a838b866114b0565b505060016000555050505050505050565b600081815260016020526040812061054a90611543565b600082815260016020526040902060020154610835906102236111bb565b61039a5760405162461bcd60e51b815260040161034b90611df7565b61086b60008051602061236b8339815191526102236111bb565b6108875760405162461bcd60e51b815260040161034b90611cc1565b6001600160a01b0381166108ad5760405162461bcd60e51b815260040161034b90611fa1565b600380546001600160a01b0319166001600160a01b0392909216919091179055565b7f65d7a28e3265b37a6474929f336521b332c1681b933f6cb9f3376673440d862a81565b600260005414156109165760405162461bcd60e51b815260040161034b90612113565b600260005561093560008051602061236b8339815191526102236111bb565b6109515760405162461bcd60e51b815260040161034b90611cc1565b6003546040516363b8d4c160e11b81526001600160a01b039091169063c771a9829061097f90600401611fcd565b60206040518083038186803b15801561099757600080fd5b505afa1580156109ab573d6000803e3d6000fd5b505050506040513d601f19601f820116820180604052508101906109cf91906118d9565b600a80546001600160a01b039283166001600160a01b03199182161791829055600b80549091169183169190911790556003546040516363b8d4c160e11b815291169063c771a98290610a249060040161216c565b60206040518083038186803b158015610a3c57600080fd5b505afa158015610a50573d6000803e3d6000fd5b505050506040513d601f19601f82011682018060405250810190610a7491906118d9565b600480546001600160a01b039283166001600160a01b031991821617808355600580549092169084161790556003546040516363b8d4c160e11b815292169163c771a98291610ac3910161214a565b60206040518083038186803b158015610adb57600080fd5b505afa158015610aef573d6000803e3d6000fd5b505050506040513d601f19601f82011682018060405250810190610b1391906118d9565b600680546001600160a01b039283166001600160a01b03199182161791829055600780549091169183169190911790556003546040516363b8d4c160e11b815291169063c771a98290610b6890600401611f4b565b60206040518083038186803b158015610b8057600080fd5b505afa158015610b94573d6000803e3d6000fd5b505050506040513d601f19601f82011682018060405250810190610bb891906118d9565b600880546001600160a01b039283166001600160a01b03199182161791829055600980549091169183169190911790556003546040516363b8d4c160e11b815291169063c771a98290610c0d906004016120b6565b60206040518083038186803b158015610c2557600080fd5b505afa158015610c39573d6000803e3d6000fd5b505050506040513d601f19601f82011682018060405250810190610c5d91906118d9565b600c80546001600160a01b039283166001600160a01b03199182161791829055600d80549091169183169190911790556003546040516363b8d4c160e11b815291169063c771a98290610cb2906004016120d6565b60206040518083038186803b158015610cca57600080fd5b505afa158015610cde573d6000803e3d6000fd5b505050506040513d601f19601f82011682018060405250810190610d0291906118d9565b600e80546001600160a01b039283166001600160a01b03199182161791829055600f80549091169183169190911790556003546040516363b8d4c160e11b815291169063c771a98290610d5790600401611d85565b60206040518083038186803b158015610d6f57600080fd5b505afa158015610d83573d6000803e3d6000fd5b505050506040513d601f19601f82011682018060405250810190610da791906118d9565b601280546001600160a01b039283166001600160a01b03199182161791829055601380549091169183169190911790556003546040516363b8d4c160e11b815291169063c771a98290610dfc90600401611da2565b60206040518083038186803b158015610e1457600080fd5b505afa158015610e28573d6000803e3d6000fd5b505050506040513d601f19601f82011682018060405250810190610e4c91906118d9565b601080546001600160a01b039283166001600160a01b03199182161791829055601180549091169183169190911790556003546040516363b8d4c160e11b815291169063c771a98290610ea190600401612096565b60206040518083038186803b158015610eb957600080fd5b505afa158015610ecd573d6000803e3d6000fd5b505050506040513d601f19601f82011682018060405250810190610ef191906118d9565b601480546001600160a01b0319166001600160a01b039283161790556003546040516363b8d4c160e11b815291169063c771a98290610f32906004016120f7565b60206040518083038186803b158015610f4a57600080fd5b505afa158015610f5e573d6000803e3d6000fd5b505050506040513d601f19601f82011682018060405250810190610f8291906118d9565b601780546001600160a01b0319166001600160a01b03929092169190911790556001600055565b60026000541415610fcc5760405162461bcd60e51b815260040161034b90612113565b60026000908155600f5460405163019b0f5f60e01b81526001600160a01b039091169063019b0f5f90611003908590600401611c43565b602060405180830381600087803b15801561101d57600080fd5b505af1158015611031573d6000803e3d6000fd5b505050506040513d601f19601f8201168201806040525081019061105591906119d2565b905060006110628361137b565b9050600061106f8461154e565b9050600061108130846080015161140e565b805190915060ff166110a55760405162461bcd60e51b815260040161034b90611f6a565b826000015160ff16603214806110c25750826000015160ff166038145b6110de5760405162461bcd60e51b815260040161034b9061204a565b428260400151108061111c5750836110f46111bb565b6040516020016111049190611bc4565b60405160208183030381529060405280519060200120145b6111385760405162461bcd60e51b815260040161034b90611e47565b600f54604051633a38454b60e21b81526001600160a01b039091169063e8e1152c90611168908890600401611c43565b600060405180830381600087803b15801561118257600080fd5b505af1158015611196573d6000803e3d6000fd5b5050600160005550505050505050565b6000610547836001600160a01b0384166115d9565b3390565b60008281526001602052604090206111d790826111a6565b1561035e576111e46111bb565b6001600160a01b0316816001600160a01b0316837f2f8788117e7eff1d82e926ec794901d17c78024a50270940304540a733656f0d60405160405180910390a45050565b60008281526001602052604090206112409082611623565b1561035e5761124d6111bb565b6001600160a01b0316816001600160a01b0316837ff6391f5c32d9c69d2a47ea670b442974b53935d1edc7fd64eb21e047a839171b60405160405180910390a45050565b6112996104d6565b6112b55760405162461bcd60e51b815260040161034b90611d57565b6002805460ff191690557f5db9ee0a495bf2e6ff9c91a7834c1ba4fdd244a5e8aa4e537bd38aeae4b073aa6112e86111bb565b6040516112f59190611be1565b60405180910390a1565b6113076104d6565b156113245760405162461bcd60e51b815260040161034b90611eea565b6002805460ff191660011790557f62e78cea01bee320cd4e420270b5ea74000d11b0c9f74754ebdbfc544b05a2586112e86111bb565b60006105478383611638565b6000610547836001600160a01b038416611691565b6113836117ca565b6003546040516338923cb160e21b81526000916001600160a01b03169063e248f2c4906113b4908690600401611c43565b6101a060405180830381600087803b1580156113cf57600080fd5b505af11580156113e3573d6000803e3d6000fd5b505050506040513d601f19601f820116820180604052508101906114079190611a7a565b9392505050565b611416611836565b61141e611836565b600354604051636fcfb49b60e11b81526001600160a01b039091169063df9f6936906114509087908790600401611c19565b604080518083038186803b15801561146757600080fd5b505afa15801561147b573d6000803e3d6000fd5b505050506040513d601f19601f8201168201806040525081019061149f9190611b97565b602083015260ff1681529392505050565b6114b86104d6565b156114d55760405162461bcd60e51b815260040161034b90611eea565b600f54604051637318462b60e11b81526001600160a01b039091169063e6308c569061150b908790879087908790600401611c4c565b600060405180830381600087803b15801561152557600080fd5b505af1158015611539573d6000803e3d6000fd5b5050505050505050565b600061054a826116a9565b61155661184d565b600f54604051630a3b3fe560e41b81526000916001600160a01b03169063a3b3fe5090611587908690600401611c43565b606060405180830381600087803b1580156115a157600080fd5b505af11580156115b5573d6000803e3d6000fd5b505050506040513d601f19601f820116820180604052508101906114079190611b5a565b60006115e58383611691565b61161b5750815460018181018455600084815260208082209093018490558454848252828601909352604090209190915561054a565b50600061054a565b6000610547836001600160a01b0384166116ad565b8154600090821061165b5760405162461bcd60e51b815260040161034b90611c7f565b82600001828154811061167e57634e487b7160e01b600052603260045260246000fd5b9060005260206000200154905092915050565b60009081526001919091016020526040902054151590565b5490565b600081815260018301602052604081205480156117c05760006116d1600183612316565b85549091506000906116e590600190612316565b9050600086600001828154811061170c57634e487b7160e01b600052603260045260246000fd5b906000526020600020015490508087600001848154811061173d57634e487b7160e01b600052603260045260246000fd5b6000918252602090912001556117548360016122fe565b6000828152600189016020526040902055865487908061178457634e487b7160e01b600052603160045260246000fd5b6001900381819060005260206000200160009055905586600101600087815260200190815260200160002060009055600194505050505061054a565b600091505061054a565b604080516101a081018252600080825260208201819052918101829052606081018290526080810182905260a0810182905260c0810182905260e08101829052610100810182905261012081018290526101408101829052610160810182905261018081019190915290565b604080518082019091526000808252602082015290565b604080516060810182526000808252602082018190529181019190915290565b80516effffffffffffffffffffffffffffff8116811461030c57600080fd5b805161ffff8116811461030c57600080fd5b805163ffffffff8116811461030c57600080fd5b805161030c8161235b565b6000602082840312156118ce578081fd5b813561140781612343565b6000602082840312156118ea578081fd5b815161140781612343565b60008060008060006080868803121561190c578081fd5b853561191781612343565b9450602086013561192781612343565b935060408601359250606086013567ffffffffffffffff8082111561194a578283fd5b818801915088601f83011261195d578283fd5b81358181111561196b578384fd5b89602082850101111561197c578384fd5b9699959850939650602001949392505050565b600080604083850312156119a1578182fd5b82356119ac81612343565b946020939093013593505050565b6000602082840312156119cb578081fd5b5035919050565b6000602082840312156119e3578081fd5b5051919050565b600080604083850312156119fc578182fd5b823591506020830135611a0e81612343565b809150509250929050565b60008060008060808587031215611a2e578384fd5b8435935060208501359250604085013591506060850135611a4e8161235b565b939692955090935050565b60008060408385031215611a6b578182fd5b50508035926020909101359150565b60006101a0808385031215611a8d578182fd5b611a96816122bf565b9050611aa1836118b2565b8152611aaf602084016118b2565b6020820152611ac0604084016118b2565b6040820152611ad16060840161188c565b6060820152611ae26080840161189e565b6080820152611af360a0840161189e565b60a0820152611b0460c0840161189e565b60c0820152611b1560e0840161186d565b60e08201526101008381015190820152610120808401519082015261014080840151908201526101608084015190820152610180928301519281019290925250919050565b600060608284031215611b6b578081fd5b611b7560606122bf565b8251815260208301516020820152604083015160408201528091505092915050565b60008060408385031215611ba9578182fd5b8251611bb48161235b565b6020939093015192949293505050565b60609190911b6bffffffffffffffffffffffff1916815260140190565b6001600160a01b0391909116815260200190565b6001600160a01b039384168152919092166020820152604081019190915260600190565b6001600160a01b0392909216825263ffffffff16602082015260400190565b901515815260200190565b90815260200190565b93845260ff9290921660208401526040830152606082015260800190565b6001600160e01b031991909116815260200190565b60208082526022908201527f456e756d657261626c655365743a20696e646578206f7574206f6620626f756e604082015261647360f01b606082015260800190565b60208082526027908201527f423a4d4f443a2d4941444d2063616c6c65722021434f4e54524143545f41444d604082015266494e5f524f4c4560c81b606082015260800190565b6020808252602f908201527f416363657373436f6e74726f6c3a2073656e646572206d75737420626520616e60408201526e0818591b5a5b881d1bc819dc985b9d608a1b606082015260800190565b60208082526014908201527314185d5cd8589b194e881b9bdd081c185d5cd95960621b604082015260600190565b60208082526003908201526204150560ec1b604082015260600190565b6020808252600490820152632921a62960e11b604082015260600190565b6020808252601b908201527f454e433a53453a20454e43206e6f74206175746820666f722041430000000000604082015260600190565b60208082526030908201527f416363657373436f6e74726f6c3a2073656e646572206d75737420626520616e60408201526f2061646d696e20746f207265766f6b6560801b606082015260800190565b6020808252603e908201527f454e433a45453a20457363726f7720706572696f64206e6f7420656e6465642060408201527f616e642063616c6c6572206973206e6f7420657363726f77206f776e65720000606082015260800190565b60208082526026908201527f423a4d4f442d49503a43616c6c696e672061646472657373206973206e6f74206040820152653830bab9b2b960d11b606082015260800190565b60208082526010908201526f14185d5cd8589b194e881c185d5cd95960821b604082015260600190565b6020808252601e908201527f423a54583a4d75737420686176652041535345545f545846525f524f4c450000604082015260600190565b60208082526005908201526420afaa25a760d91b604082015260600190565b6020808252601b908201527f454e433a45453a20454e43206e6f74206175746820666f722041430000000000604082015260600190565b6020808252601290820152710423a5353433a2041646472657373203d20360741b604082015260600190565b60208082526006908201526520a1afaa25a760d11b604082015260600190565b6020808252603b908201527f454e433a53453a204f6e6c7920414361646d696e20617574686f72697a65642060408201527f757365722063616e206368616e676520737461747573203c2035300000000000606082015260800190565b6020808252602c908201527f454e433a45453a205265636f7264206d75737420626520696e20657363726f7760408201526b20737461747573203e20343960a01b606082015260800190565b6020808252600690820152654150505f4e4360d01b604082015260600190565b60208082526006908201526524a22faa25a760d11b604082015260600190565b60208082526007908201526622a1a92fa6a3a960c91b604082015260600190565b60208082526002908201526104e560f41b604082015260600190565b6020808252601f908201527f5265656e7472616e637947756172643a207265656e7472616e742063616c6c00604082015260600190565b6020808252600890820152672aaa24a62faa25a760c11b604082015260600190565b60208082526006908201526520a1afa6a3a960d11b604082015260600190565b6020808252602f908201527f416363657373436f6e74726f6c3a2063616e206f6e6c792072656e6f756e636560408201526e103937b632b9903337b91039b2b63360891b606082015260800190565b6020808252602d908201527f454e433a53453a4d757374207370656369667920612076616c6964206573637260408201526c6f7720737461747573203e343960981b606082015260800190565b60208082526026908201527f454e433a4d4f442d49413a2043616c6c657220646f6573206e6f7420686f6c64604082015265103a37b5b2b760d11b606082015260800190565b60208082526031908201527f454e433a53453a457363726f77206d7573742062652073657420746f20612074604082015270696d6520696e207468652066757475726560781b606082015260800190565b604051601f8201601f1916810167ffffffffffffffff811182821017156122f657634e487b7160e01b600052604160045260246000fd5b604052919050565b600082198211156123115761231161232d565b500190565b6000828210156123285761232861232d565b500390565b634e487b7160e01b600052601160045260246000fd5b6001600160a01b038116811461235857600080fd5b50565b60ff8116811461235857600080fdfe2ce8d04a9c35987429af538825cd2438cc5c5bb5dc427955f84daaa3ea105016a26469706673582212209a45ab630d938e8d06080eebcd1ebeb80c1f035fa02fe0bbe2bcb89e4748677164736f6c63430008010033",
			"opcodes": "PUSH1 0x80 PUSH1 0x40 MSTORE CALLVALUE DUP1 ISZERO PUSH3 0x11 JUMPI PUSH1 0x0 DUP1 REVERT JUMPDEST POP PUSH1 0x1 PUSH1 0x0 SWAP1 DUP2 SSTORE PUSH1 0x2 DUP1 SLOAD PUSH1 0xFF NOT AND SWAP1 SSTORE PUSH3 0x38 SWAP1 PUSH3 0x32 PUSH3 0x9C JUMP JUMPDEST PUSH3 0xA0 JUMP JUMPDEST PUSH3 0x67 PUSH32 0x2CE8D04A9C35987429AF538825CD2438CC5C5BB5DC427955F84DAAA3EA105016 PUSH3 0x32 PUSH3 0x9C JUMP JUMPDEST PUSH3 0x96 PUSH32 0x65D7A28E3265B37A6474929F336521B332C1681B933F6CB9F3376673440D862A PUSH3 0x32 PUSH3 0x9C JUMP JUMPDEST PUSH3 0x1B2 JUMP JUMPDEST CALLER SWAP1 JUMP JUMPDEST PUSH3 0xAC DUP3 DUP3 PUSH3 0xB0 JUMP JUMPDEST POP POP JUMP JUMPDEST PUSH1 0x0 DUP3 DUP2 MSTORE PUSH1 0x1 PUSH1 0x20 SWAP1 DUP2 MSTORE PUSH1 0x40 SWAP1 SWAP2 KECCAK256 PUSH3 0xD7 SWAP2 DUP4 SWAP1 PUSH3 0x11A6 PUSH3 0x12B DUP3 SHL OR SWAP1 SHR JUMP JUMPDEST ISZERO PUSH3 0xAC JUMPI PUSH3 0xE7 PUSH3 0x9C JUMP JUMPDEST PUSH1 0x1 PUSH1 0x1 PUSH1 0xA0 SHL SUB AND DUP2 PUSH1 0x1 PUSH1 0x1 PUSH1 0xA0 SHL SUB AND DUP4 PUSH32 0x2F8788117E7EFF1D82E926EC794901D17C78024A50270940304540A733656F0D PUSH1 0x40 MLOAD PUSH1 0x40 MLOAD DUP1 SWAP2 SUB SWAP1 LOG4 POP POP JUMP JUMPDEST PUSH1 0x0 PUSH3 0x142 DUP4 PUSH1 0x1 PUSH1 0x1 PUSH1 0xA0 SHL SUB DUP5 AND PUSH3 0x14B JUMP JUMPDEST SWAP1 POP JUMPDEST SWAP3 SWAP2 POP POP JUMP JUMPDEST PUSH1 0x0 PUSH3 0x159 DUP4 DUP4 PUSH3 0x19A JUMP JUMPDEST PUSH3 0x191 JUMPI POP DUP2 SLOAD PUSH1 0x1 DUP2 DUP2 ADD DUP5 SSTORE PUSH1 0x0 DUP5 DUP2 MSTORE PUSH1 0x20 DUP1 DUP3 KECCAK256 SWAP1 SWAP4 ADD DUP5 SWAP1 SSTORE DUP5 SLOAD DUP5 DUP3 MSTORE DUP3 DUP7 ADD SWAP1 SWAP4 MSTORE PUSH1 0x40 SWAP1 KECCAK256 SWAP2 SWAP1 SWAP2 SSTORE PUSH3 0x145 JUMP JUMPDEST POP PUSH1 0x0 PUSH3 0x145 JUMP JUMPDEST PUSH1 0x0 SWAP1 DUP2 MSTORE PUSH1 0x1 SWAP2 SWAP1 SWAP2 ADD PUSH1 0x20 MSTORE PUSH1 0x40 SWAP1 KECCAK256 SLOAD ISZERO ISZERO SWAP1 JUMP JUMPDEST PUSH2 0x23C0 DUP1 PUSH3 0x1C2 PUSH1 0x0 CODECOPY PUSH1 0x0 RETURN INVALID PUSH1 0x80 PUSH1 0x40 MSTORE CALLVALUE DUP1 ISZERO PUSH2 0x10 JUMPI PUSH1 0x0 DUP1 REVERT JUMPDEST POP PUSH1 0x4 CALLDATASIZE LT PUSH2 0x137 JUMPI PUSH1 0x0 CALLDATALOAD PUSH1 0xE0 SHR DUP1 PUSH4 0x9010D07C GT PUSH2 0xB8 JUMPI DUP1 PUSH4 0xCA15C873 GT PUSH2 0x7C JUMPI DUP1 PUSH4 0xCA15C873 EQ PUSH2 0x256 JUMPI DUP1 PUSH4 0xD547741F EQ PUSH2 0x269 JUMPI DUP1 PUSH4 0xD6B02ECF EQ PUSH2 0x27C JUMPI DUP1 PUSH4 0xE63AB1E9 EQ PUSH2 0x28F JUMPI DUP1 PUSH4 0xE8B41653 EQ PUSH2 0x297 JUMPI DUP1 PUSH4 0xE8E1152C EQ PUSH2 0x29F JUMPI PUSH2 0x137 JUMP JUMPDEST DUP1 PUSH4 0x9010D07C EQ PUSH2 0x1F5 JUMPI DUP1 PUSH4 0x91D14854 EQ PUSH2 0x215 JUMPI DUP1 PUSH4 0x92BA3DA6 EQ PUSH2 0x228 JUMPI DUP1 PUSH4 0xA217FDDF EQ PUSH2 0x23B JUMPI DUP1 PUSH4 0xB29C3959 EQ PUSH2 0x243 JUMPI PUSH2 0x137 JUMP JUMPDEST DUP1 PUSH4 0x36568ABE GT PUSH2 0xFF JUMPI DUP1 PUSH4 0x36568ABE EQ PUSH2 0x1AA JUMPI DUP1 PUSH4 0x3F4BA83A EQ PUSH2 0x1BD JUMPI DUP1 PUSH4 0x440E7A7E EQ PUSH2 0x1C5 JUMPI DUP1 PUSH4 0x5C975ABB EQ PUSH2 0x1D8 JUMPI DUP1 PUSH4 0x8456CB59 EQ PUSH2 0x1ED JUMPI PUSH2 0x137 JUMP JUMPDEST DUP1 PUSH4 0x1429DB5F EQ PUSH2 0x13C JUMPI DUP1 PUSH4 0x150B7A02 EQ PUSH2 0x15A JUMPI DUP1 PUSH4 0x1DA03312 EQ PUSH2 0x17A JUMPI DUP1 PUSH4 0x248A9CA3 EQ PUSH2 0x182 JUMPI DUP1 PUSH4 0x2F2FF15D EQ PUSH2 0x195 JUMPI JUMPDEST PUSH1 0x0 DUP1 REVERT JUMPDEST PUSH2 0x144 PUSH2 0x2B2 JUMP JUMPDEST PUSH1 0x40 MLOAD PUSH2 0x151 SWAP2 SWAP1 PUSH2 0x1C43 JUMP JUMPDEST PUSH1 0x40 MLOAD DUP1 SWAP2 SUB SWAP1 RETURN JUMPDEST PUSH2 0x16D PUSH2 0x168 CALLDATASIZE PUSH1 0x4 PUSH2 0x18F5 JUMP JUMPDEST PUSH2 0x2D6 JUMP JUMPDEST PUSH1 0x40 MLOAD PUSH2 0x151 SWAP2 SWAP1 PUSH2 0x1C6A JUMP JUMPDEST PUSH2 0x144 PUSH2 0x2E7 JUMP JUMPDEST PUSH2 0x144 PUSH2 0x190 CALLDATASIZE PUSH1 0x4 PUSH2 0x19BA JUMP JUMPDEST PUSH2 0x2F9 JUMP JUMPDEST PUSH2 0x1A8 PUSH2 0x1A3 CALLDATASIZE PUSH1 0x4 PUSH2 0x19EA JUMP JUMPDEST PUSH2 0x311 JUMP JUMPDEST STOP JUMPDEST PUSH2 0x1A8 PUSH2 0x1B8 CALLDATASIZE PUSH1 0x4 PUSH2 0x19EA JUMP JUMPDEST PUSH2 0x362 JUMP JUMPDEST PUSH2 0x1A8 PUSH2 0x3A4 JUMP JUMPDEST PUSH2 0x1A8 PUSH2 0x1D3 CALLDATASIZE PUSH1 0x4 PUSH2 0x198F JUMP JUMPDEST PUSH2 0x3F6 JUMP JUMPDEST PUSH2 0x1E0 PUSH2 0x4D6 JUMP JUMPDEST PUSH1 0x40 MLOAD PUSH2 0x151 SWAP2 SWAP1 PUSH2 0x1C38 JUMP JUMPDEST PUSH2 0x1A8 PUSH2 0x4DF JUMP JUMPDEST PUSH2 0x208 PUSH2 0x203 CALLDATASIZE PUSH1 0x4 PUSH2 0x1A59 JUMP JUMPDEST PUSH2 0x52F JUMP JUMPDEST PUSH1 0x40 MLOAD PUSH2 0x151 SWAP2 SWAP1 PUSH2 0x1BE1 JUMP JUMPDEST PUSH2 0x1E0 PUSH2 0x223 CALLDATASIZE PUSH1 0x4 PUSH2 0x19EA JUMP JUMPDEST PUSH2 0x550 JUMP JUMPDEST PUSH2 0x1A8 PUSH2 0x236 CALLDATASIZE PUSH1 0x4 PUSH2 0x198F JUMP JUMPDEST PUSH2 0x568 JUMP JUMPDEST PUSH2 0x144 PUSH2 0x635 JUMP JUMPDEST PUSH2 0x1A8 PUSH2 0x251 CALLDATASIZE PUSH1 0x4 PUSH2 0x1A19 JUMP JUMPDEST PUSH2 0x63A JUMP JUMPDEST PUSH2 0x144 PUSH2 0x264 CALLDATASIZE PUSH1 0x4 PUSH2 0x19BA JUMP JUMPDEST PUSH2 0x800 JUMP JUMPDEST PUSH2 0x1A8 PUSH2 0x277 CALLDATASIZE PUSH1 0x4 PUSH2 0x19EA JUMP JUMPDEST PUSH2 0x817 JUMP JUMPDEST PUSH2 0x1A8 PUSH2 0x28A CALLDATASIZE PUSH1 0x4 PUSH2 0x18BD JUMP JUMPDEST PUSH2 0x851 JUMP JUMPDEST PUSH2 0x144 PUSH2 0x8CF JUMP JUMPDEST PUSH2 0x1A8 PUSH2 0x8F3 JUMP JUMPDEST PUSH2 0x1A8 PUSH2 0x2AD CALLDATASIZE PUSH1 0x4 PUSH2 0x19BA JUMP JUMPDEST PUSH2 0xFA9 JUMP JUMPDEST PUSH32 0x7F1E4E9F3D9BA0452A25CFEF4CD4C6FFC86158D06ED2F585FA0093E12DEC429C DUP2 JUMP JUMPDEST PUSH4 0xA85BD01 PUSH1 0xE1 SHL SWAP6 SWAP5 POP POP POP POP POP JUMP JUMPDEST PUSH1 0x0 DUP1 MLOAD PUSH1 0x20 PUSH2 0x236B DUP4 CODECOPY DUP2 MLOAD SWAP2 MSTORE DUP2 JUMP JUMPDEST PUSH1 0x0 DUP2 DUP2 MSTORE PUSH1 0x1 PUSH1 0x20 MSTORE PUSH1 0x40 SWAP1 KECCAK256 PUSH1 0x2 ADD SLOAD JUMPDEST SWAP2 SWAP1 POP JUMP JUMPDEST PUSH1 0x0 DUP3 DUP2 MSTORE PUSH1 0x1 PUSH1 0x20 MSTORE PUSH1 0x40 SWAP1 KECCAK256 PUSH1 0x2 ADD SLOAD PUSH2 0x32F SWAP1 PUSH2 0x223 PUSH2 0x11BB JUMP JUMPDEST PUSH2 0x354 JUMPI PUSH1 0x40 MLOAD PUSH3 0x461BCD PUSH1 0xE5 SHL DUP2 MSTORE PUSH1 0x4 ADD PUSH2 0x34B SWAP1 PUSH2 0x1D08 JUMP JUMPDEST PUSH1 0x40 MLOAD DUP1 SWAP2 SUB SWAP1 REVERT JUMPDEST PUSH2 0x35E DUP3 DUP3 PUSH2 0x11BF JUMP JUMPDEST POP POP JUMP JUMPDEST PUSH2 0x36A PUSH2 0x11BB JUMP JUMPDEST PUSH1 0x1 PUSH1 0x1 PUSH1 0xA0 SHL SUB AND DUP2 PUSH1 0x1 PUSH1 0x1 PUSH1 0xA0 SHL SUB AND EQ PUSH2 0x39A JUMPI PUSH1 0x40 MLOAD PUSH3 0x461BCD PUSH1 0xE5 SHL DUP2 MSTORE PUSH1 0x4 ADD PUSH2 0x34B SWAP1 PUSH2 0x218C JUMP JUMPDEST PUSH2 0x35E DUP3 DUP3 PUSH2 0x1228 JUMP JUMPDEST PUSH2 0x3D0 PUSH32 0x65D7A28E3265B37A6474929F336521B332C1681B933F6CB9F3376673440D862A PUSH2 0x223 PUSH2 0x11BB JUMP JUMPDEST PUSH2 0x3EC JUMPI PUSH1 0x40 MLOAD PUSH3 0x461BCD PUSH1 0xE5 SHL DUP2 MSTORE PUSH1 0x4 ADD PUSH2 0x34B SWAP1 PUSH2 0x1EA4 JUMP JUMPDEST PUSH2 0x3F4 PUSH2 0x1291 JUMP JUMPDEST JUMP JUMPDEST PUSH1 0x2 PUSH1 0x0 SLOAD EQ ISZERO PUSH2 0x419 JUMPI PUSH1 0x40 MLOAD PUSH3 0x461BCD PUSH1 0xE5 SHL DUP2 MSTORE PUSH1 0x4 ADD PUSH2 0x34B SWAP1 PUSH2 0x2113 JUMP JUMPDEST PUSH1 0x2 PUSH1 0x0 SSTORE PUSH2 0x44A PUSH32 0x7F1E4E9F3D9BA0452A25CFEF4CD4C6FFC86158D06ED2F585FA0093E12DEC429C PUSH2 0x223 PUSH2 0x11BB JUMP JUMPDEST PUSH2 0x466 JUMPI PUSH1 0x40 MLOAD PUSH3 0x461BCD PUSH1 0xE5 SHL DUP2 MSTORE PUSH1 0x4 ADD PUSH2 0x34B SWAP1 PUSH2 0x1F14 JUMP JUMPDEST PUSH1 0x9 SLOAD PUSH1 0x40 MLOAD PUSH4 0x21421707 PUSH1 0xE1 SHL DUP2 MSTORE DUP3 SWAP2 PUSH1 0x1 PUSH1 0x1 PUSH1 0xA0 SHL SUB AND SWAP1 PUSH4 0x42842E0E SWAP1 PUSH2 0x49A SWAP1 ADDRESS SWAP1 DUP8 SWAP1 DUP7 SWAP1 PUSH1 0x4 ADD PUSH2 0x1BF5 JUMP JUMPDEST PUSH1 0x0 PUSH1 0x40 MLOAD DUP1 DUP4 SUB DUP2 PUSH1 0x0 DUP8 DUP1 EXTCODESIZE ISZERO DUP1 ISZERO PUSH2 0x4B4 JUMPI PUSH1 0x0 DUP1 REVERT JUMPDEST POP GAS CALL ISZERO DUP1 ISZERO PUSH2 0x4C8 JUMPI RETURNDATASIZE PUSH1 0x0 DUP1 RETURNDATACOPY RETURNDATASIZE PUSH1 0x0 REVERT JUMPDEST POP POP PUSH1 0x1 PUSH1 0x0 SSTORE POP POP POP POP POP JUMP JUMPDEST PUSH1 0x2 SLOAD PUSH1 0xFF AND SWAP1 JUMP JUMPDEST PUSH2 0x50B PUSH32 0x65D7A28E3265B37A6474929F336521B332C1681B933F6CB9F3376673440D862A PUSH2 0x223 PUSH2 0x11BB JUMP JUMPDEST PUSH2 0x527 JUMPI PUSH1 0x40 MLOAD PUSH3 0x461BCD PUSH1 0xE5 SHL DUP2 MSTORE PUSH1 0x4 ADD PUSH2 0x34B SWAP1 PUSH2 0x1EA4 JUMP JUMPDEST PUSH2 0x3F4 PUSH2 0x12FF JUMP JUMPDEST PUSH1 0x0 DUP3 DUP2 MSTORE PUSH1 0x1 PUSH1 0x20 MSTORE PUSH1 0x40 DUP2 KECCAK256 PUSH2 0x547 SWAP1 DUP4 PUSH2 0x135A JUMP JUMPDEST SWAP1 POP JUMPDEST SWAP3 SWAP2 POP POP JUMP JUMPDEST PUSH1 0x0 DUP3 DUP2 MSTORE PUSH1 0x1 PUSH1 0x20 MSTORE PUSH1 0x40 DUP2 KECCAK256 PUSH2 0x547 SWAP1 DUP4 PUSH2 0x1366 JUMP JUMPDEST PUSH2 0x582 PUSH1 0x0 DUP1 MLOAD PUSH1 0x20 PUSH2 0x236B DUP4 CODECOPY DUP2 MLOAD SWAP2 MSTORE PUSH2 0x223 PUSH2 0x11BB JUMP JUMPDEST PUSH2 0x59E JUMPI PUSH1 0x40 MLOAD PUSH3 0x461BCD PUSH1 0xE5 SHL DUP2 MSTORE PUSH1 0x4 ADD PUSH2 0x34B SWAP1 PUSH2 0x1CC1 JUMP JUMPDEST PUSH1 0x2 PUSH1 0x0 SLOAD EQ ISZERO PUSH2 0x5C1 JUMPI PUSH1 0x40 MLOAD PUSH3 0x461BCD PUSH1 0xE5 SHL DUP2 MSTORE PUSH1 0x4 ADD PUSH2 0x34B SWAP1 PUSH2 0x2113 JUMP JUMPDEST PUSH1 0x2 PUSH1 0x0 SSTORE PUSH1 0xB SLOAD PUSH1 0x40 MLOAD PUSH4 0x21421707 PUSH1 0xE1 SHL DUP2 MSTORE PUSH1 0x1 PUSH1 0x1 PUSH1 0xA0 SHL SUB SWAP1 SWAP2 AND SWAP1 PUSH4 0x42842E0E SWAP1 PUSH2 0x5FA SWAP1 ADDRESS SWAP1 DUP7 SWAP1 DUP7 SWAP1 PUSH1 0x4 ADD PUSH2 0x1BF5 JUMP JUMPDEST PUSH1 0x0 PUSH1 0x40 MLOAD DUP1 DUP4 SUB DUP2 PUSH1 0x0 DUP8 DUP1 EXTCODESIZE ISZERO DUP1 ISZERO PUSH2 0x614 JUMPI PUSH1 0x0 DUP1 REVERT JUMPDEST POP GAS CALL ISZERO DUP1 ISZERO PUSH2 0x628 JUMPI RETURNDATASIZE PUSH1 0x0 DUP1 RETURNDATACOPY RETURNDATASIZE PUSH1 0x0 REVERT JUMPDEST POP POP PUSH1 0x1 PUSH1 0x0 SSTORE POP POP POP POP JUMP JUMPDEST PUSH1 0x0 DUP2 JUMP JUMPDEST PUSH1 0x2 PUSH1 0x0 SLOAD EQ ISZERO PUSH2 0x65D JUMPI PUSH1 0x40 MLOAD PUSH3 0x461BCD PUSH1 0xE5 SHL DUP2 MSTORE PUSH1 0x4 ADD PUSH2 0x34B SWAP1 PUSH2 0x2113 JUMP JUMPDEST PUSH1 0x2 PUSH1 0x0 SSTORE DUP4 DUP1 PUSH2 0x66C PUSH2 0x11BB JUMP JUMPDEST PUSH1 0x9 SLOAD PUSH1 0x40 MLOAD PUSH4 0x31A9108F PUSH1 0xE1 SHL DUP2 MSTORE PUSH1 0x1 PUSH1 0x1 PUSH1 0xA0 SHL SUB SWAP3 DUP4 AND SWAP3 SWAP1 SWAP2 AND SWAP1 PUSH4 0x6352211E SWAP1 PUSH2 0x6A0 SWAP1 DUP6 SWAP1 PUSH1 0x4 ADD PUSH2 0x1C43 JUMP JUMPDEST PUSH1 0x20 PUSH1 0x40 MLOAD DUP1 DUP4 SUB DUP2 PUSH1 0x0 DUP8 DUP1 EXTCODESIZE ISZERO DUP1 ISZERO PUSH2 0x6BA JUMPI PUSH1 0x0 DUP1 REVERT JUMPDEST POP GAS CALL ISZERO DUP1 ISZERO PUSH2 0x6CE JUMPI RETURNDATASIZE PUSH1 0x0 DUP1 RETURNDATACOPY RETURNDATASIZE PUSH1 0x0 REVERT JUMPDEST POP POP POP POP PUSH1 0x40 MLOAD RETURNDATASIZE PUSH1 0x1F NOT PUSH1 0x1F DUP3 ADD AND DUP3 ADD DUP1 PUSH1 0x40 MSTORE POP DUP2 ADD SWAP1 PUSH2 0x6F2 SWAP2 SWAP1 PUSH2 0x18D9 JUMP JUMPDEST PUSH1 0x1 PUSH1 0x1 PUSH1 0xA0 SHL SUB AND EQ PUSH2 0x718 JUMPI PUSH1 0x40 MLOAD PUSH3 0x461BCD PUSH1 0xE5 SHL DUP2 MSTORE PUSH1 0x4 ADD PUSH2 0x34B SWAP1 PUSH2 0x2228 JUMP JUMPDEST PUSH1 0x0 PUSH2 0x723 DUP8 PUSH2 0x137B JUMP JUMPDEST SWAP1 POP PUSH1 0x0 PUSH2 0x731 DUP7 TIMESTAMP PUSH2 0x22FE JUMP JUMPDEST SWAP1 POP PUSH1 0x0 DUP1 PUSH2 0x744 ADDRESS DUP6 PUSH1 0x80 ADD MLOAD PUSH2 0x140E JUMP JUMPDEST DUP1 MLOAD SWAP1 SWAP2 POP PUSH1 0xFF AND PUSH2 0x768 JUMPI PUSH1 0x40 MLOAD PUSH3 0x461BCD PUSH1 0xE5 SHL DUP2 MSTORE PUSH1 0x4 ADD PUSH2 0x34B SWAP1 PUSH2 0x1DC0 JUMP JUMPDEST PUSH1 0x31 DUP5 PUSH1 0x0 ADD MLOAD PUSH1 0xFF AND GT PUSH2 0x78F JUMPI PUSH1 0x40 MLOAD PUSH3 0x461BCD PUSH1 0xE5 SHL DUP2 MSTORE PUSH1 0x4 ADD PUSH2 0x34B SWAP1 PUSH2 0x1FED JUMP JUMPDEST TIMESTAMP DUP4 LT ISZERO PUSH2 0x7AF JUMPI PUSH1 0x40 MLOAD PUSH3 0x461BCD PUSH1 0xE5 SHL DUP2 MSTORE PUSH1 0x4 ADD PUSH2 0x34B SWAP1 PUSH2 0x226E JUMP JUMPDEST DUP7 PUSH1 0xFF AND PUSH1 0x32 EQ DUP1 PUSH2 0x7C4 JUMPI POP DUP7 PUSH1 0xFF AND PUSH1 0x38 EQ JUMPDEST PUSH2 0x7E0 JUMPI PUSH1 0x40 MLOAD PUSH3 0x461BCD PUSH1 0xE5 SHL DUP2 MSTORE PUSH1 0x4 ADD PUSH2 0x34B SWAP1 PUSH2 0x21DB JUMP JUMPDEST DUP7 SWAP2 POP PUSH2 0x7EF DUP11 DUP4 DUP12 DUP7 PUSH2 0x14B0 JUMP JUMPDEST POP POP PUSH1 0x1 PUSH1 0x0 SSTORE POP POP POP POP POP POP POP POP JUMP JUMPDEST PUSH1 0x0 DUP2 DUP2 MSTORE PUSH1 0x1 PUSH1 0x20 MSTORE PUSH1 0x40 DUP2 KECCAK256 PUSH2 0x54A SWAP1 PUSH2 0x1543 JUMP JUMPDEST PUSH1 0x0 DUP3 DUP2 MSTORE PUSH1 0x1 PUSH1 0x20 MSTORE PUSH1 0x40 SWAP1 KECCAK256 PUSH1 0x2 ADD SLOAD PUSH2 0x835 SWAP1 PUSH2 0x223 PUSH2 0x11BB JUMP JUMPDEST PUSH2 0x39A JUMPI PUSH1 0x40 MLOAD PUSH3 0x461BCD PUSH1 0xE5 SHL DUP2 MSTORE PUSH1 0x4 ADD PUSH2 0x34B SWAP1 PUSH2 0x1DF7 JUMP JUMPDEST PUSH2 0x86B PUSH1 0x0 DUP1 MLOAD PUSH1 0x20 PUSH2 0x236B DUP4 CODECOPY DUP2 MLOAD SWAP2 MSTORE PUSH2 0x223 PUSH2 0x11BB JUMP JUMPDEST PUSH2 0x887 JUMPI PUSH1 0x40 MLOAD PUSH3 0x461BCD PUSH1 0xE5 SHL DUP2 MSTORE PUSH1 0x4 ADD PUSH2 0x34B SWAP1 PUSH2 0x1CC1 JUMP JUMPDEST PUSH1 0x1 PUSH1 0x1 PUSH1 0xA0 SHL SUB DUP2 AND PUSH2 0x8AD JUMPI PUSH1 0x40 MLOAD PUSH3 0x461BCD PUSH1 0xE5 SHL DUP2 MSTORE PUSH1 0x4 ADD PUSH2 0x34B SWAP1 PUSH2 0x1FA1 JUMP JUMPDEST PUSH1 0x3 DUP1 SLOAD PUSH1 0x1 PUSH1 0x1 PUSH1 0xA0 SHL SUB NOT AND PUSH1 0x1 PUSH1 0x1 PUSH1 0xA0 SHL SUB SWAP3 SWAP1 SWAP3 AND SWAP2 SWAP1 SWAP2 OR SWAP1 SSTORE JUMP JUMPDEST PUSH32 0x65D7A28E3265B37A6474929F336521B332C1681B933F6CB9F3376673440D862A DUP2 JUMP JUMPDEST PUSH1 0x2 PUSH1 0x0 SLOAD EQ ISZERO PUSH2 0x916 JUMPI PUSH1 0x40 MLOAD PUSH3 0x461BCD PUSH1 0xE5 SHL DUP2 MSTORE PUSH1 0x4 ADD PUSH2 0x34B SWAP1 PUSH2 0x2113 JUMP JUMPDEST PUSH1 0x2 PUSH1 0x0 SSTORE PUSH2 0x935 PUSH1 0x0 DUP1 MLOAD PUSH1 0x20 PUSH2 0x236B DUP4 CODECOPY DUP2 MLOAD SWAP2 MSTORE PUSH2 0x223 PUSH2 0x11BB JUMP JUMPDEST PUSH2 0x951 JUMPI PUSH1 0x40 MLOAD PUSH3 0x461BCD PUSH1 0xE5 SHL DUP2 MSTORE PUSH1 0x4 ADD PUSH2 0x34B SWAP1 PUSH2 0x1CC1 JUMP JUMPDEST PUSH1 0x3 SLOAD PUSH1 0x40 MLOAD PUSH4 0x63B8D4C1 PUSH1 0xE1 SHL DUP2 MSTORE PUSH1 0x1 PUSH1 0x1 PUSH1 0xA0 SHL SUB SWAP1 SWAP2 AND SWAP1 PUSH4 0xC771A982 SWAP1 PUSH2 0x97F SWAP1 PUSH1 0x4 ADD PUSH2 0x1FCD JUMP JUMPDEST PUSH1 0x20 PUSH1 0x40 MLOAD DUP1 DUP4 SUB DUP2 DUP7 DUP1 EXTCODESIZE ISZERO DUP1 ISZERO PUSH2 0x997 JUMPI PUSH1 0x0 DUP1 REVERT JUMPDEST POP GAS STATICCALL ISZERO DUP1 ISZERO PUSH2 0x9AB JUMPI RETURNDATASIZE PUSH1 0x0 DUP1 RETURNDATACOPY RETURNDATASIZE PUSH1 0x0 REVERT JUMPDEST POP POP POP POP PUSH1 0x40 MLOAD RETURNDATASIZE PUSH1 0x1F NOT PUSH1 0x1F DUP3 ADD AND DUP3 ADD DUP1 PUSH1 0x40 MSTORE POP DUP2 ADD SWAP1 PUSH2 0x9CF SWAP2 SWAP1 PUSH2 0x18D9 JUMP JUMPDEST PUSH1 0xA DUP1 SLOAD PUSH1 0x1 PUSH1 0x1 PUSH1 0xA0 SHL SUB SWAP3 DUP4 AND PUSH1 0x1 PUSH1 0x1 PUSH1 0xA0 SHL SUB NOT SWAP2 DUP3 AND OR SWAP2 DUP3 SWAP1 SSTORE PUSH1 0xB DUP1 SLOAD SWAP1 SWAP2 AND SWAP2 DUP4 AND SWAP2 SWAP1 SWAP2 OR SWAP1 SSTORE PUSH1 0x3 SLOAD PUSH1 0x40 MLOAD PUSH4 0x63B8D4C1 PUSH1 0xE1 SHL DUP2 MSTORE SWAP2 AND SWAP1 PUSH4 0xC771A982 SWAP1 PUSH2 0xA24 SWAP1 PUSH1 0x4 ADD PUSH2 0x216C JUMP JUMPDEST PUSH1 0x20 PUSH1 0x40 MLOAD DUP1 DUP4 SUB DUP2 DUP7 DUP1 EXTCODESIZE ISZERO DUP1 ISZERO PUSH2 0xA3C JUMPI PUSH1 0x0 DUP1 REVERT JUMPDEST POP GAS STATICCALL ISZERO DUP1 ISZERO PUSH2 0xA50 JUMPI RETURNDATASIZE PUSH1 0x0 DUP1 RETURNDATACOPY RETURNDATASIZE PUSH1 0x0 REVERT JUMPDEST POP POP POP POP PUSH1 0x40 MLOAD RETURNDATASIZE PUSH1 0x1F NOT PUSH1 0x1F DUP3 ADD AND DUP3 ADD DUP1 PUSH1 0x40 MSTORE POP DUP2 ADD SWAP1 PUSH2 0xA74 SWAP2 SWAP1 PUSH2 0x18D9 JUMP JUMPDEST PUSH1 0x4 DUP1 SLOAD PUSH1 0x1 PUSH1 0x1 PUSH1 0xA0 SHL SUB SWAP3 DUP4 AND PUSH1 0x1 PUSH1 0x1 PUSH1 0xA0 SHL SUB NOT SWAP2 DUP3 AND OR DUP1 DUP4 SSTORE PUSH1 0x5 DUP1 SLOAD SWAP1 SWAP3 AND SWAP1 DUP5 AND OR SWAP1 SSTORE PUSH1 0x3 SLOAD PUSH1 0x40 MLOAD PUSH4 0x63B8D4C1 PUSH1 0xE1 SHL DUP2 MSTORE SWAP3 AND SWAP2 PUSH4 0xC771A982 SWAP2 PUSH2 0xAC3 SWAP2 ADD PUSH2 0x214A JUMP JUMPDEST PUSH1 0x20 PUSH1 0x40 MLOAD DUP1 DUP4 SUB DUP2 DUP7 DUP1 EXTCODESIZE ISZERO DUP1 ISZERO PUSH2 0xADB JUMPI PUSH1 0x0 DUP1 REVERT JUMPDEST POP GAS STATICCALL ISZERO DUP1 ISZERO PUSH2 0xAEF JUMPI RETURNDATASIZE PUSH1 0x0 DUP1 RETURNDATACOPY RETURNDATASIZE PUSH1 0x0 REVERT JUMPDEST POP POP POP POP PUSH1 0x40 MLOAD RETURNDATASIZE PUSH1 0x1F NOT PUSH1 0x1F DUP3 ADD AND DUP3 ADD DUP1 PUSH1 0x40 MSTORE POP DUP2 ADD SWAP1 PUSH2 0xB13 SWAP2 SWAP1 PUSH2 0x18D9 JUMP JUMPDEST PUSH1 0x6 DUP1 SLOAD PUSH1 0x1 PUSH1 0x1 PUSH1 0xA0 SHL SUB SWAP3 DUP4 AND PUSH1 0x1 PUSH1 0x1 PUSH1 0xA0 SHL SUB NOT SWAP2 DUP3 AND OR SWAP2 DUP3 SWAP1 SSTORE PUSH1 0x7 DUP1 SLOAD SWAP1 SWAP2 AND SWAP2 DUP4 AND SWAP2 SWAP1 SWAP2 OR SWAP1 SSTORE PUSH1 0x3 SLOAD PUSH1 0x40 MLOAD PUSH4 0x63B8D4C1 PUSH1 0xE1 SHL DUP2 MSTORE SWAP2 AND SWAP1 PUSH4 0xC771A982 SWAP1 PUSH2 0xB68 SWAP1 PUSH1 0x4 ADD PUSH2 0x1F4B JUMP JUMPDEST PUSH1 0x20 PUSH1 0x40 MLOAD DUP1 DUP4 SUB DUP2 DUP7 DUP1 EXTCODESIZE ISZERO DUP1 ISZERO PUSH2 0xB80 JUMPI PUSH1 0x0 DUP1 REVERT JUMPDEST POP GAS STATICCALL ISZERO DUP1 ISZERO PUSH2 0xB94 JUMPI RETURNDATASIZE PUSH1 0x0 DUP1 RETURNDATACOPY RETURNDATASIZE PUSH1 0x0 REVERT JUMPDEST POP POP POP POP PUSH1 0x40 MLOAD RETURNDATASIZE PUSH1 0x1F NOT PUSH1 0x1F DUP3 ADD AND DUP3 ADD DUP1 PUSH1 0x40 MSTORE POP DUP2 ADD SWAP1 PUSH2 0xBB8 SWAP2 SWAP1 PUSH2 0x18D9 JUMP JUMPDEST PUSH1 0x8 DUP1 SLOAD PUSH1 0x1 PUSH1 0x1 PUSH1 0xA0 SHL SUB SWAP3 DUP4 AND PUSH1 0x1 PUSH1 0x1 PUSH1 0xA0 SHL SUB NOT SWAP2 DUP3 AND OR SWAP2 DUP3 SWAP1 SSTORE PUSH1 0x9 DUP1 SLOAD SWAP1 SWAP2 AND SWAP2 DUP4 AND SWAP2 SWAP1 SWAP2 OR SWAP1 SSTORE PUSH1 0x3 SLOAD PUSH1 0x40 MLOAD PUSH4 0x63B8D4C1 PUSH1 0xE1 SHL DUP2 MSTORE SWAP2 AND SWAP1 PUSH4 0xC771A982 SWAP1 PUSH2 0xC0D SWAP1 PUSH1 0x4 ADD PUSH2 0x20B6 JUMP JUMPDEST PUSH1 0x20 PUSH1 0x40 MLOAD DUP1 DUP4 SUB DUP2 DUP7 DUP1 EXTCODESIZE ISZERO DUP1 ISZERO PUSH2 0xC25 JUMPI PUSH1 0x0 DUP1 REVERT JUMPDEST POP GAS STATICCALL ISZERO DUP1 ISZERO PUSH2 0xC39 JUMPI RETURNDATASIZE PUSH1 0x0 DUP1 RETURNDATACOPY RETURNDATASIZE PUSH1 0x0 REVERT JUMPDEST POP POP POP POP PUSH1 0x40 MLOAD RETURNDATASIZE PUSH1 0x1F NOT PUSH1 0x1F DUP3 ADD AND DUP3 ADD DUP1 PUSH1 0x40 MSTORE POP DUP2 ADD SWAP1 PUSH2 0xC5D SWAP2 SWAP1 PUSH2 0x18D9 JUMP JUMPDEST PUSH1 0xC DUP1 SLOAD PUSH1 0x1 PUSH1 0x1 PUSH1 0xA0 SHL SUB SWAP3 DUP4 AND PUSH1 0x1 PUSH1 0x1 PUSH1 0xA0 SHL SUB NOT SWAP2 DUP3 AND OR SWAP2 DUP3 SWAP1 SSTORE PUSH1 0xD DUP1 SLOAD SWAP1 SWAP2 AND SWAP2 DUP4 AND SWAP2 SWAP1 SWAP2 OR SWAP1 SSTORE PUSH1 0x3 SLOAD PUSH1 0x40 MLOAD PUSH4 0x63B8D4C1 PUSH1 0xE1 SHL DUP2 MSTORE SWAP2 AND SWAP1 PUSH4 0xC771A982 SWAP1 PUSH2 0xCB2 SWAP1 PUSH1 0x4 ADD PUSH2 0x20D6 JUMP JUMPDEST PUSH1 0x20 PUSH1 0x40 MLOAD DUP1 DUP4 SUB DUP2 DUP7 DUP1 EXTCODESIZE ISZERO DUP1 ISZERO PUSH2 0xCCA JUMPI PUSH1 0x0 DUP1 REVERT JUMPDEST POP GAS STATICCALL ISZERO DUP1 ISZERO PUSH2 0xCDE JUMPI RETURNDATASIZE PUSH1 0x0 DUP1 RETURNDATACOPY RETURNDATASIZE PUSH1 0x0 REVERT JUMPDEST POP POP POP POP PUSH1 0x40 MLOAD RETURNDATASIZE PUSH1 0x1F NOT PUSH1 0x1F DUP3 ADD AND DUP3 ADD DUP1 PUSH1 0x40 MSTORE POP DUP2 ADD SWAP1 PUSH2 0xD02 SWAP2 SWAP1 PUSH2 0x18D9 JUMP JUMPDEST PUSH1 0xE DUP1 SLOAD PUSH1 0x1 PUSH1 0x1 PUSH1 0xA0 SHL SUB SWAP3 DUP4 AND PUSH1 0x1 PUSH1 0x1 PUSH1 0xA0 SHL SUB NOT SWAP2 DUP3 AND OR SWAP2 DUP3 SWAP1 SSTORE PUSH1 0xF DUP1 SLOAD SWAP1 SWAP2 AND SWAP2 DUP4 AND SWAP2 SWAP1 SWAP2 OR SWAP1 SSTORE PUSH1 0x3 SLOAD PUSH1 0x40 MLOAD PUSH4 0x63B8D4C1 PUSH1 0xE1 SHL DUP2 MSTORE SWAP2 AND SWAP1 PUSH4 0xC771A982 SWAP1 PUSH2 0xD57 SWAP1 PUSH1 0x4 ADD PUSH2 0x1D85 JUMP JUMPDEST PUSH1 0x20 PUSH1 0x40 MLOAD DUP1 DUP4 SUB DUP2 DUP7 DUP1 EXTCODESIZE ISZERO DUP1 ISZERO PUSH2 0xD6F JUMPI PUSH1 0x0 DUP1 REVERT JUMPDEST POP GAS STATICCALL ISZERO DUP1 ISZERO PUSH2 0xD83 JUMPI RETURNDATASIZE PUSH1 0x0 DUP1 RETURNDATACOPY RETURNDATASIZE PUSH1 0x0 REVERT JUMPDEST POP POP POP POP PUSH1 0x40 MLOAD RETURNDATASIZE PUSH1 0x1F NOT PUSH1 0x1F DUP3 ADD AND DUP3 ADD DUP1 PUSH1 0x40 MSTORE POP DUP2 ADD SWAP1 PUSH2 0xDA7 SWAP2 SWAP1 PUSH2 0x18D9 JUMP JUMPDEST PUSH1 0x12 DUP1 SLOAD PUSH1 0x1 PUSH1 0x1 PUSH1 0xA0 SHL SUB SWAP3 DUP4 AND PUSH1 0x1 PUSH1 0x1 PUSH1 0xA0 SHL SUB NOT SWAP2 DUP3 AND OR SWAP2 DUP3 SWAP1 SSTORE PUSH1 0x13 DUP1 SLOAD SWAP1 SWAP2 AND SWAP2 DUP4 AND SWAP2 SWAP1 SWAP2 OR SWAP1 SSTORE PUSH1 0x3 SLOAD PUSH1 0x40 MLOAD PUSH4 0x63B8D4C1 PUSH1 0xE1 SHL DUP2 MSTORE SWAP2 AND SWAP1 PUSH4 0xC771A982 SWAP1 PUSH2 0xDFC SWAP1 PUSH1 0x4 ADD PUSH2 0x1DA2 JUMP JUMPDEST PUSH1 0x20 PUSH1 0x40 MLOAD DUP1 DUP4 SUB DUP2 DUP7 DUP1 EXTCODESIZE ISZERO DUP1 ISZERO PUSH2 0xE14 JUMPI PUSH1 0x0 DUP1 REVERT JUMPDEST POP GAS STATICCALL ISZERO DUP1 ISZERO PUSH2 0xE28 JUMPI RETURNDATASIZE PUSH1 0x0 DUP1 RETURNDATACOPY RETURNDATASIZE PUSH1 0x0 REVERT JUMPDEST POP POP POP POP PUSH1 0x40 MLOAD RETURNDATASIZE PUSH1 0x1F NOT PUSH1 0x1F DUP3 ADD AND DUP3 ADD DUP1 PUSH1 0x40 MSTORE POP DUP2 ADD SWAP1 PUSH2 0xE4C SWAP2 SWAP1 PUSH2 0x18D9 JUMP JUMPDEST PUSH1 0x10 DUP1 SLOAD PUSH1 0x1 PUSH1 0x1 PUSH1 0xA0 SHL SUB SWAP3 DUP4 AND PUSH1 0x1 PUSH1 0x1 PUSH1 0xA0 SHL SUB NOT SWAP2 DUP3 AND OR SWAP2 DUP3 SWAP1 SSTORE PUSH1 0x11 DUP1 SLOAD SWAP1 SWAP2 AND SWAP2 DUP4 AND SWAP2 SWAP1 SWAP2 OR SWAP1 SSTORE PUSH1 0x3 SLOAD PUSH1 0x40 MLOAD PUSH4 0x63B8D4C1 PUSH1 0xE1 SHL DUP2 MSTORE SWAP2 AND SWAP1 PUSH4 0xC771A982 SWAP1 PUSH2 0xEA1 SWAP1 PUSH1 0x4 ADD PUSH2 0x2096 JUMP JUMPDEST PUSH1 0x20 PUSH1 0x40 MLOAD DUP1 DUP4 SUB DUP2 DUP7 DUP1 EXTCODESIZE ISZERO DUP1 ISZERO PUSH2 0xEB9 JUMPI PUSH1 0x0 DUP1 REVERT JUMPDEST POP GAS STATICCALL ISZERO DUP1 ISZERO PUSH2 0xECD JUMPI RETURNDATASIZE PUSH1 0x0 DUP1 RETURNDATACOPY RETURNDATASIZE PUSH1 0x0 REVERT JUMPDEST POP POP POP POP PUSH1 0x40 MLOAD RETURNDATASIZE PUSH1 0x1F NOT PUSH1 0x1F DUP3 ADD AND DUP3 ADD DUP1 PUSH1 0x40 MSTORE POP DUP2 ADD SWAP1 PUSH2 0xEF1 SWAP2 SWAP1 PUSH2 0x18D9 JUMP JUMPDEST PUSH1 0x14 DUP1 SLOAD PUSH1 0x1 PUSH1 0x1 PUSH1 0xA0 SHL SUB NOT AND PUSH1 0x1 PUSH1 0x1 PUSH1 0xA0 SHL SUB SWAP3 DUP4 AND OR SWAP1 SSTORE PUSH1 0x3 SLOAD PUSH1 0x40 MLOAD PUSH4 0x63B8D4C1 PUSH1 0xE1 SHL DUP2 MSTORE SWAP2 AND SWAP1 PUSH4 0xC771A982 SWAP1 PUSH2 0xF32 SWAP1 PUSH1 0x4 ADD PUSH2 0x20F7 JUMP JUMPDEST PUSH1 0x20 PUSH1 0x40 MLOAD DUP1 DUP4 SUB DUP2 DUP7 DUP1 EXTCODESIZE ISZERO DUP1 ISZERO PUSH2 0xF4A JUMPI PUSH1 0x0 DUP1 REVERT JUMPDEST POP GAS STATICCALL ISZERO DUP1 ISZERO PUSH2 0xF5E JUMPI RETURNDATASIZE PUSH1 0x0 DUP1 RETURNDATACOPY RETURNDATASIZE PUSH1 0x0 REVERT JUMPDEST POP POP POP POP PUSH1 0x40 MLOAD RETURNDATASIZE PUSH1 0x1F NOT PUSH1 0x1F DUP3 ADD AND DUP3 ADD DUP1 PUSH1 0x40 MSTORE POP DUP2 ADD SWAP1 PUSH2 0xF82 SWAP2 SWAP1 PUSH2 0x18D9 JUMP JUMPDEST PUSH1 0x17 DUP1 SLOAD PUSH1 0x1 PUSH1 0x1 PUSH1 0xA0 SHL SUB NOT AND PUSH1 0x1 PUSH1 0x1 PUSH1 0xA0 SHL SUB SWAP3 SWAP1 SWAP3 AND SWAP2 SWAP1 SWAP2 OR SWAP1 SSTORE PUSH1 0x1 PUSH1 0x0 SSTORE JUMP JUMPDEST PUSH1 0x2 PUSH1 0x0 SLOAD EQ ISZERO PUSH2 0xFCC JUMPI PUSH1 0x40 MLOAD PUSH3 0x461BCD PUSH1 0xE5 SHL DUP2 MSTORE PUSH1 0x4 ADD PUSH2 0x34B SWAP1 PUSH2 0x2113 JUMP JUMPDEST PUSH1 0x2 PUSH1 0x0 SWAP1 DUP2 SSTORE PUSH1 0xF SLOAD PUSH1 0x40 MLOAD PUSH4 0x19B0F5F PUSH1 0xE0 SHL DUP2 MSTORE PUSH1 0x1 PUSH1 0x1 PUSH1 0xA0 SHL SUB SWAP1 SWAP2 AND SWAP1 PUSH4 0x19B0F5F SWAP1 PUSH2 0x1003 SWAP1 DUP6 SWAP1 PUSH1 0x4 ADD PUSH2 0x1C43 JUMP JUMPDEST PUSH1 0x20 PUSH1 0x40 MLOAD DUP1 DUP4 SUB DUP2 PUSH1 0x0 DUP8 DUP1 EXTCODESIZE ISZERO DUP1 ISZERO PUSH2 0x101D JUMPI PUSH1 0x0 DUP1 REVERT JUMPDEST POP GAS CALL ISZERO DUP1 ISZERO PUSH2 0x1031 JUMPI RETURNDATASIZE PUSH1 0x0 DUP1 RETURNDATACOPY RETURNDATASIZE PUSH1 0x0 REVERT JUMPDEST POP POP POP POP PUSH1 0x40 MLOAD RETURNDATASIZE PUSH1 0x1F NOT PUSH1 0x1F DUP3 ADD AND DUP3 ADD DUP1 PUSH1 0x40 MSTORE POP DUP2 ADD SWAP1 PUSH2 0x1055 SWAP2 SWAP1 PUSH2 0x19D2 JUMP JUMPDEST SWAP1 POP PUSH1 0x0 PUSH2 0x1062 DUP4 PUSH2 0x137B JUMP JUMPDEST SWAP1 POP PUSH1 0x0 PUSH2 0x106F DUP5 PUSH2 0x154E JUMP JUMPDEST SWAP1 POP PUSH1 0x0 PUSH2 0x1081 ADDRESS DUP5 PUSH1 0x80 ADD MLOAD PUSH2 0x140E JUMP JUMPDEST DUP1 MLOAD SWAP1 SWAP2 POP PUSH1 0xFF AND PUSH2 0x10A5 JUMPI PUSH1 0x40 MLOAD PUSH3 0x461BCD PUSH1 0xE5 SHL DUP2 MSTORE PUSH1 0x4 ADD PUSH2 0x34B SWAP1 PUSH2 0x1F6A JUMP JUMPDEST DUP3 PUSH1 0x0 ADD MLOAD PUSH1 0xFF AND PUSH1 0x32 EQ DUP1 PUSH2 0x10C2 JUMPI POP DUP3 PUSH1 0x0 ADD MLOAD PUSH1 0xFF AND PUSH1 0x38 EQ JUMPDEST PUSH2 0x10DE JUMPI PUSH1 0x40 MLOAD PUSH3 0x461BCD PUSH1 0xE5 SHL DUP2 MSTORE PUSH1 0x4 ADD PUSH2 0x34B SWAP1 PUSH2 0x204A JUMP JUMPDEST TIMESTAMP DUP3 PUSH1 0x40 ADD MLOAD LT DUP1 PUSH2 0x111C JUMPI POP DUP4 PUSH2 0x10F4 PUSH2 0x11BB JUMP JUMPDEST PUSH1 0x40 MLOAD PUSH1 0x20 ADD PUSH2 0x1104 SWAP2 SWAP1 PUSH2 0x1BC4 JUMP JUMPDEST PUSH1 0x40 MLOAD PUSH1 0x20 DUP2 DUP4 SUB SUB DUP2 MSTORE SWAP1 PUSH1 0x40 MSTORE DUP1 MLOAD SWAP1 PUSH1 0x20 ADD KECCAK256 EQ JUMPDEST PUSH2 0x1138 JUMPI PUSH1 0x40 MLOAD PUSH3 0x461BCD PUSH1 0xE5 SHL DUP2 MSTORE PUSH1 0x4 ADD PUSH2 0x34B SWAP1 PUSH2 0x1E47 JUMP JUMPDEST PUSH1 0xF SLOAD PUSH1 0x40 MLOAD PUSH4 0x3A38454B PUSH1 0xE2 SHL DUP2 MSTORE PUSH1 0x1 PUSH1 0x1 PUSH1 0xA0 SHL SUB SWAP1 SWAP2 AND SWAP1 PUSH4 0xE8E1152C SWAP1 PUSH2 0x1168 SWAP1 DUP9 SWAP1 PUSH1 0x4 ADD PUSH2 0x1C43 JUMP JUMPDEST PUSH1 0x0 PUSH1 0x40 MLOAD DUP1 DUP4 SUB DUP2 PUSH1 0x0 DUP8 DUP1 EXTCODESIZE ISZERO DUP1 ISZERO PUSH2 0x1182 JUMPI PUSH1 0x0 DUP1 REVERT JUMPDEST POP GAS CALL ISZERO DUP1 ISZERO PUSH2 0x1196 JUMPI RETURNDATASIZE PUSH1 0x0 DUP1 RETURNDATACOPY RETURNDATASIZE PUSH1 0x0 REVERT JUMPDEST POP POP PUSH1 0x1 PUSH1 0x0 SSTORE POP POP POP POP POP POP POP JUMP JUMPDEST PUSH1 0x0 PUSH2 0x547 DUP4 PUSH1 0x1 PUSH1 0x1 PUSH1 0xA0 SHL SUB DUP5 AND PUSH2 0x15D9 JUMP JUMPDEST CALLER SWAP1 JUMP JUMPDEST PUSH1 0x0 DUP3 DUP2 MSTORE PUSH1 0x1 PUSH1 0x20 MSTORE PUSH1 0x40 SWAP1 KECCAK256 PUSH2 0x11D7 SWAP1 DUP3 PUSH2 0x11A6 JUMP JUMPDEST ISZERO PUSH2 0x35E JUMPI PUSH2 0x11E4 PUSH2 0x11BB JUMP JUMPDEST PUSH1 0x1 PUSH1 0x1 PUSH1 0xA0 SHL SUB AND DUP2 PUSH1 0x1 PUSH1 0x1 PUSH1 0xA0 SHL SUB AND DUP4 PUSH32 0x2F8788117E7EFF1D82E926EC794901D17C78024A50270940304540A733656F0D PUSH1 0x40 MLOAD PUSH1 0x40 MLOAD DUP1 SWAP2 SUB SWAP1 LOG4 POP POP JUMP JUMPDEST PUSH1 0x0 DUP3 DUP2 MSTORE PUSH1 0x1 PUSH1 0x20 MSTORE PUSH1 0x40 SWAP1 KECCAK256 PUSH2 0x1240 SWAP1 DUP3 PUSH2 0x1623 JUMP JUMPDEST ISZERO PUSH2 0x35E JUMPI PUSH2 0x124D PUSH2 0x11BB JUMP JUMPDEST PUSH1 0x1 PUSH1 0x1 PUSH1 0xA0 SHL SUB AND DUP2 PUSH1 0x1 PUSH1 0x1 PUSH1 0xA0 SHL SUB AND DUP4 PUSH32 0xF6391F5C32D9C69D2A47EA670B442974B53935D1EDC7FD64EB21E047A839171B PUSH1 0x40 MLOAD PUSH1 0x40 MLOAD DUP1 SWAP2 SUB SWAP1 LOG4 POP POP JUMP JUMPDEST PUSH2 0x1299 PUSH2 0x4D6 JUMP JUMPDEST PUSH2 0x12B5 JUMPI PUSH1 0x40 MLOAD PUSH3 0x461BCD PUSH1 0xE5 SHL DUP2 MSTORE PUSH1 0x4 ADD PUSH2 0x34B SWAP1 PUSH2 0x1D57 JUMP JUMPDEST PUSH1 0x2 DUP1 SLOAD PUSH1 0xFF NOT AND SWAP1 SSTORE PUSH32 0x5DB9EE0A495BF2E6FF9C91A7834C1BA4FDD244A5E8AA4E537BD38AEAE4B073AA PUSH2 0x12E8 PUSH2 0x11BB JUMP JUMPDEST PUSH1 0x40 MLOAD PUSH2 0x12F5 SWAP2 SWAP1 PUSH2 0x1BE1 JUMP JUMPDEST PUSH1 0x40 MLOAD DUP1 SWAP2 SUB SWAP1 LOG1 JUMP JUMPDEST PUSH2 0x1307 PUSH2 0x4D6 JUMP JUMPDEST ISZERO PUSH2 0x1324 JUMPI PUSH1 0x40 MLOAD PUSH3 0x461BCD PUSH1 0xE5 SHL DUP2 MSTORE PUSH1 0x4 ADD PUSH2 0x34B SWAP1 PUSH2 0x1EEA JUMP JUMPDEST PUSH1 0x2 DUP1 SLOAD PUSH1 0xFF NOT AND PUSH1 0x1 OR SWAP1 SSTORE PUSH32 0x62E78CEA01BEE320CD4E420270B5EA74000D11B0C9F74754EBDBFC544B05A258 PUSH2 0x12E8 PUSH2 0x11BB JUMP JUMPDEST PUSH1 0x0 PUSH2 0x547 DUP4 DUP4 PUSH2 0x1638 JUMP JUMPDEST PUSH1 0x0 PUSH2 0x547 DUP4 PUSH1 0x1 PUSH1 0x1 PUSH1 0xA0 SHL SUB DUP5 AND PUSH2 0x1691 JUMP JUMPDEST PUSH2 0x1383 PUSH2 0x17CA JUMP JUMPDEST PUSH1 0x3 SLOAD PUSH1 0x40 MLOAD PUSH4 0x38923CB1 PUSH1 0xE2 SHL DUP2 MSTORE PUSH1 0x0 SWAP2 PUSH1 0x1 PUSH1 0x1 PUSH1 0xA0 SHL SUB AND SWAP1 PUSH4 0xE248F2C4 SWAP1 PUSH2 0x13B4 SWAP1 DUP7 SWAP1 PUSH1 0x4 ADD PUSH2 0x1C43 JUMP JUMPDEST PUSH2 0x1A0 PUSH1 0x40 MLOAD DUP1 DUP4 SUB DUP2 PUSH1 0x0 DUP8 DUP1 EXTCODESIZE ISZERO DUP1 ISZERO PUSH2 0x13CF JUMPI PUSH1 0x0 DUP1 REVERT JUMPDEST POP GAS CALL ISZERO DUP1 ISZERO PUSH2 0x13E3 JUMPI RETURNDATASIZE PUSH1 0x0 DUP1 RETURNDATACOPY RETURNDATASIZE PUSH1 0x0 REVERT JUMPDEST POP POP POP POP PUSH1 0x40 MLOAD RETURNDATASIZE PUSH1 0x1F NOT PUSH1 0x1F DUP3 ADD AND DUP3 ADD DUP1 PUSH1 0x40 MSTORE POP DUP2 ADD SWAP1 PUSH2 0x1407 SWAP2 SWAP1 PUSH2 0x1A7A JUMP JUMPDEST SWAP4 SWAP3 POP POP POP JUMP JUMPDEST PUSH2 0x1416 PUSH2 0x1836 JUMP JUMPDEST PUSH2 0x141E PUSH2 0x1836 JUMP JUMPDEST PUSH1 0x3 SLOAD PUSH1 0x40 MLOAD PUSH4 0x6FCFB49B PUSH1 0xE1 SHL DUP2 MSTORE PUSH1 0x1 PUSH1 0x1 PUSH1 0xA0 SHL SUB SWAP1 SWAP2 AND SWAP1 PUSH4 0xDF9F6936 SWAP1 PUSH2 0x1450 SWAP1 DUP8 SWAP1 DUP8 SWAP1 PUSH1 0x4 ADD PUSH2 0x1C19 JUMP JUMPDEST PUSH1 0x40 DUP1 MLOAD DUP1 DUP4 SUB DUP2 DUP7 DUP1 EXTCODESIZE ISZERO DUP1 ISZERO PUSH2 0x1467 JUMPI PUSH1 0x0 DUP1 REVERT JUMPDEST POP GAS STATICCALL ISZERO DUP1 ISZERO PUSH2 0x147B JUMPI RETURNDATASIZE PUSH1 0x0 DUP1 RETURNDATACOPY RETURNDATASIZE PUSH1 0x0 REVERT JUMPDEST POP POP POP POP PUSH1 0x40 MLOAD RETURNDATASIZE PUSH1 0x1F NOT PUSH1 0x1F DUP3 ADD AND DUP3 ADD DUP1 PUSH1 0x40 MSTORE POP DUP2 ADD SWAP1 PUSH2 0x149F SWAP2 SWAP1 PUSH2 0x1B97 JUMP JUMPDEST PUSH1 0x20 DUP4 ADD MSTORE PUSH1 0xFF AND DUP2 MSTORE SWAP4 SWAP3 POP POP POP JUMP JUMPDEST PUSH2 0x14B8 PUSH2 0x4D6 JUMP JUMPDEST ISZERO PUSH2 0x14D5 JUMPI PUSH1 0x40 MLOAD PUSH3 0x461BCD PUSH1 0xE5 SHL DUP2 MSTORE PUSH1 0x4 ADD PUSH2 0x34B SWAP1 PUSH2 0x1EEA JUMP JUMPDEST PUSH1 0xF SLOAD PUSH1 0x40 MLOAD PUSH4 0x7318462B PUSH1 0xE1 SHL DUP2 MSTORE PUSH1 0x1 PUSH1 0x1 PUSH1 0xA0 SHL SUB SWAP1 SWAP2 AND SWAP1 PUSH4 0xE6308C56 SWAP1 PUSH2 0x150B SWAP1 DUP8 SWAP1 DUP8 SWAP1 DUP8 SWAP1 DUP8 SWAP1 PUSH1 0x4 ADD PUSH2 0x1C4C JUMP JUMPDEST PUSH1 0x0 PUSH1 0x40 MLOAD DUP1 DUP4 SUB DUP2 PUSH1 0x0 DUP8 DUP1 EXTCODESIZE ISZERO DUP1 ISZERO PUSH2 0x1525 JUMPI PUSH1 0x0 DUP1 REVERT JUMPDEST POP GAS CALL ISZERO DUP1 ISZERO PUSH2 0x1539 JUMPI RETURNDATASIZE PUSH1 0x0 DUP1 RETURNDATACOPY RETURNDATASIZE PUSH1 0x0 REVERT JUMPDEST POP POP POP POP POP POP POP POP JUMP JUMPDEST PUSH1 0x0 PUSH2 0x54A DUP3 PUSH2 0x16A9 JUMP JUMPDEST PUSH2 0x1556 PUSH2 0x184D JUMP JUMPDEST PUSH1 0xF SLOAD PUSH1 0x40 MLOAD PUSH4 0xA3B3FE5 PUSH1 0xE4 SHL DUP2 MSTORE PUSH1 0x0 SWAP2 PUSH1 0x1 PUSH1 0x1 PUSH1 0xA0 SHL SUB AND SWAP1 PUSH4 0xA3B3FE50 SWAP1 PUSH2 0x1587 SWAP1 DUP7 SWAP1 PUSH1 0x4 ADD PUSH2 0x1C43 JUMP JUMPDEST PUSH1 0x60 PUSH1 0x40 MLOAD DUP1 DUP4 SUB DUP2 PUSH1 0x0 DUP8 DUP1 EXTCODESIZE ISZERO DUP1 ISZERO PUSH2 0x15A1 JUMPI PUSH1 0x0 DUP1 REVERT JUMPDEST POP GAS CALL ISZERO DUP1 ISZERO PUSH2 0x15B5 JUMPI RETURNDATASIZE PUSH1 0x0 DUP1 RETURNDATACOPY RETURNDATASIZE PUSH1 0x0 REVERT JUMPDEST POP POP POP POP PUSH1 0x40 MLOAD RETURNDATASIZE PUSH1 0x1F NOT PUSH1 0x1F DUP3 ADD AND DUP3 ADD DUP1 PUSH1 0x40 MSTORE POP DUP2 ADD SWAP1 PUSH2 0x1407 SWAP2 SWAP1 PUSH2 0x1B5A JUMP JUMPDEST PUSH1 0x0 PUSH2 0x15E5 DUP4 DUP4 PUSH2 0x1691 JUMP JUMPDEST PUSH2 0x161B JUMPI POP DUP2 SLOAD PUSH1 0x1 DUP2 DUP2 ADD DUP5 SSTORE PUSH1 0x0 DUP5 DUP2 MSTORE PUSH1 0x20 DUP1 DUP3 KECCAK256 SWAP1 SWAP4 ADD DUP5 SWAP1 SSTORE DUP5 SLOAD DUP5 DUP3 MSTORE DUP3 DUP7 ADD SWAP1 SWAP4 MSTORE PUSH1 0x40 SWAP1 KECCAK256 SWAP2 SWAP1 SWAP2 SSTORE PUSH2 0x54A JUMP JUMPDEST POP PUSH1 0x0 PUSH2 0x54A JUMP JUMPDEST PUSH1 0x0 PUSH2 0x547 DUP4 PUSH1 0x1 PUSH1 0x1 PUSH1 0xA0 SHL SUB DUP5 AND PUSH2 0x16AD JUMP JUMPDEST DUP2 SLOAD PUSH1 0x0 SWAP1 DUP3 LT PUSH2 0x165B JUMPI PUSH1 0x40 MLOAD PUSH3 0x461BCD PUSH1 0xE5 SHL DUP2 MSTORE PUSH1 0x4 ADD PUSH2 0x34B SWAP1 PUSH2 0x1C7F JUMP JUMPDEST DUP3 PUSH1 0x0 ADD DUP3 DUP2 SLOAD DUP2 LT PUSH2 0x167E JUMPI PUSH4 0x4E487B71 PUSH1 0xE0 SHL PUSH1 0x0 MSTORE PUSH1 0x32 PUSH1 0x4 MSTORE PUSH1 0x24 PUSH1 0x0 REVERT JUMPDEST SWAP1 PUSH1 0x0 MSTORE PUSH1 0x20 PUSH1 0x0 KECCAK256 ADD SLOAD SWAP1 POP SWAP3 SWAP2 POP POP JUMP JUMPDEST PUSH1 0x0 SWAP1 DUP2 MSTORE PUSH1 0x1 SWAP2 SWAP1 SWAP2 ADD PUSH1 0x20 MSTORE PUSH1 0x40 SWAP1 KECCAK256 SLOAD ISZERO ISZERO SWAP1 JUMP JUMPDEST SLOAD SWAP1 JUMP JUMPDEST PUSH1 0x0 DUP2 DUP2 MSTORE PUSH1 0x1 DUP4 ADD PUSH1 0x20 MSTORE PUSH1 0x40 DUP2 KECCAK256 SLOAD DUP1 ISZERO PUSH2 0x17C0 JUMPI PUSH1 0x0 PUSH2 0x16D1 PUSH1 0x1 DUP4 PUSH2 0x2316 JUMP JUMPDEST DUP6 SLOAD SWAP1 SWAP2 POP PUSH1 0x0 SWAP1 PUSH2 0x16E5 SWAP1 PUSH1 0x1 SWAP1 PUSH2 0x2316 JUMP JUMPDEST SWAP1 POP PUSH1 0x0 DUP7 PUSH1 0x0 ADD DUP3 DUP2 SLOAD DUP2 LT PUSH2 0x170C JUMPI PUSH4 0x4E487B71 PUSH1 0xE0 SHL PUSH1 0x0 MSTORE PUSH1 0x32 PUSH1 0x4 MSTORE PUSH1 0x24 PUSH1 0x0 REVERT JUMPDEST SWAP1 PUSH1 0x0 MSTORE PUSH1 0x20 PUSH1 0x0 KECCAK256 ADD SLOAD SWAP1 POP DUP1 DUP8 PUSH1 0x0 ADD DUP5 DUP2 SLOAD DUP2 LT PUSH2 0x173D JUMPI PUSH4 0x4E487B71 PUSH1 0xE0 SHL PUSH1 0x0 MSTORE PUSH1 0x32 PUSH1 0x4 MSTORE PUSH1 0x24 PUSH1 0x0 REVERT JUMPDEST PUSH1 0x0 SWAP2 DUP3 MSTORE PUSH1 0x20 SWAP1 SWAP2 KECCAK256 ADD SSTORE PUSH2 0x1754 DUP4 PUSH1 0x1 PUSH2 0x22FE JUMP JUMPDEST PUSH1 0x0 DUP3 DUP2 MSTORE PUSH1 0x1 DUP10 ADD PUSH1 0x20 MSTORE PUSH1 0x40 SWAP1 KECCAK256 SSTORE DUP7 SLOAD DUP8 SWAP1 DUP1 PUSH2 0x1784 JUMPI PUSH4 0x4E487B71 PUSH1 0xE0 SHL PUSH1 0x0 MSTORE PUSH1 0x31 PUSH1 0x4 MSTORE PUSH1 0x24 PUSH1 0x0 REVERT JUMPDEST PUSH1 0x1 SWAP1 SUB DUP2 DUP2 SWAP1 PUSH1 0x0 MSTORE PUSH1 0x20 PUSH1 0x0 KECCAK256 ADD PUSH1 0x0 SWAP1 SSTORE SWAP1 SSTORE DUP7 PUSH1 0x1 ADD PUSH1 0x0 DUP8 DUP2 MSTORE PUSH1 0x20 ADD SWAP1 DUP2 MSTORE PUSH1 0x20 ADD PUSH1 0x0 KECCAK256 PUSH1 0x0 SWAP1 SSTORE PUSH1 0x1 SWAP5 POP POP POP POP POP PUSH2 0x54A JUMP JUMPDEST PUSH1 0x0 SWAP2 POP POP PUSH2 0x54A JUMP JUMPDEST PUSH1 0x40 DUP1 MLOAD PUSH2 0x1A0 DUP2 ADD DUP3 MSTORE PUSH1 0x0 DUP1 DUP3 MSTORE PUSH1 0x20 DUP3 ADD DUP2 SWAP1 MSTORE SWAP2 DUP2 ADD DUP3 SWAP1 MSTORE PUSH1 0x60 DUP2 ADD DUP3 SWAP1 MSTORE PUSH1 0x80 DUP2 ADD DUP3 SWAP1 MSTORE PUSH1 0xA0 DUP2 ADD DUP3 SWAP1 MSTORE PUSH1 0xC0 DUP2 ADD DUP3 SWAP1 MSTORE PUSH1 0xE0 DUP2 ADD DUP3 SWAP1 MSTORE PUSH2 0x100 DUP2 ADD DUP3 SWAP1 MSTORE PUSH2 0x120 DUP2 ADD DUP3 SWAP1 MSTORE PUSH2 0x140 DUP2 ADD DUP3 SWAP1 MSTORE PUSH2 0x160 DUP2 ADD DUP3 SWAP1 MSTORE PUSH2 0x180 DUP2 ADD SWAP2 SWAP1 SWAP2 MSTORE SWAP1 JUMP JUMPDEST PUSH1 0x40 DUP1 MLOAD DUP1 DUP3 ADD SWAP1 SWAP2 MSTORE PUSH1 0x0 DUP1 DUP3 MSTORE PUSH1 0x20 DUP3 ADD MSTORE SWAP1 JUMP JUMPDEST PUSH1 0x40 DUP1 MLOAD PUSH1 0x60 DUP2 ADD DUP3 MSTORE PUSH1 0x0 DUP1 DUP3 MSTORE PUSH1 0x20 DUP3 ADD DUP2 SWAP1 MSTORE SWAP2 DUP2 ADD SWAP2 SWAP1 SWAP2 MSTORE SWAP1 JUMP JUMPDEST DUP1 MLOAD PUSH15 0xFFFFFFFFFFFFFFFFFFFFFFFFFFFFFF DUP2 AND DUP2 EQ PUSH2 0x30C JUMPI PUSH1 0x0 DUP1 REVERT JUMPDEST DUP1 MLOAD PUSH2 0xFFFF DUP2 AND DUP2 EQ PUSH2 0x30C JUMPI PUSH1 0x0 DUP1 REVERT JUMPDEST DUP1 MLOAD PUSH4 0xFFFFFFFF DUP2 AND DUP2 EQ PUSH2 0x30C JUMPI PUSH1 0x0 DUP1 REVERT JUMPDEST DUP1 MLOAD PUSH2 0x30C DUP2 PUSH2 0x235B JUMP JUMPDEST PUSH1 0x0 PUSH1 0x20 DUP3 DUP5 SUB SLT ISZERO PUSH2 0x18CE JUMPI DUP1 DUP2 REVERT JUMPDEST DUP2 CALLDATALOAD PUSH2 0x1407 DUP2 PUSH2 0x2343 JUMP JUMPDEST PUSH1 0x0 PUSH1 0x20 DUP3 DUP5 SUB SLT ISZERO PUSH2 0x18EA JUMPI DUP1 DUP2 REVERT JUMPDEST DUP2 MLOAD PUSH2 0x1407 DUP2 PUSH2 0x2343 JUMP JUMPDEST PUSH1 0x0 DUP1 PUSH1 0x0 DUP1 PUSH1 0x0 PUSH1 0x80 DUP7 DUP9 SUB SLT ISZERO PUSH2 0x190C JUMPI DUP1 DUP2 REVERT JUMPDEST DUP6 CALLDATALOAD PUSH2 0x1917 DUP2 PUSH2 0x2343 JUMP JUMPDEST SWAP5 POP PUSH1 0x20 DUP7 ADD CALLDATALOAD PUSH2 0x1927 DUP2 PUSH2 0x2343 JUMP JUMPDEST SWAP4 POP PUSH1 0x40 DUP7 ADD CALLDATALOAD SWAP3 POP PUSH1 0x60 DUP7 ADD CALLDATALOAD PUSH8 0xFFFFFFFFFFFFFFFF DUP1 DUP3 GT ISZERO PUSH2 0x194A JUMPI DUP3 DUP4 REVERT JUMPDEST DUP2 DUP9 ADD SWAP2 POP DUP9 PUSH1 0x1F DUP4 ADD SLT PUSH2 0x195D JUMPI DUP3 DUP4 REVERT JUMPDEST DUP2 CALLDATALOAD DUP2 DUP2 GT ISZERO PUSH2 0x196B JUMPI DUP4 DUP5 REVERT JUMPDEST DUP10 PUSH1 0x20 DUP3 DUP6 ADD ADD GT ISZERO PUSH2 0x197C JUMPI DUP4 DUP5 REVERT JUMPDEST SWAP7 SWAP10 SWAP6 SWAP9 POP SWAP4 SWAP7 POP PUSH1 0x20 ADD SWAP5 SWAP4 SWAP3 POP POP POP JUMP JUMPDEST PUSH1 0x0 DUP1 PUSH1 0x40 DUP4 DUP6 SUB SLT ISZERO PUSH2 0x19A1 JUMPI DUP2 DUP3 REVERT JUMPDEST DUP3 CALLDATALOAD PUSH2 0x19AC DUP2 PUSH2 0x2343 JUMP JUMPDEST SWAP5 PUSH1 0x20 SWAP4 SWAP1 SWAP4 ADD CALLDATALOAD SWAP4 POP POP POP JUMP JUMPDEST PUSH1 0x0 PUSH1 0x20 DUP3 DUP5 SUB SLT ISZERO PUSH2 0x19CB JUMPI DUP1 DUP2 REVERT JUMPDEST POP CALLDATALOAD SWAP2 SWAP1 POP JUMP JUMPDEST PUSH1 0x0 PUSH1 0x20 DUP3 DUP5 SUB SLT ISZERO PUSH2 0x19E3 JUMPI DUP1 DUP2 REVERT JUMPDEST POP MLOAD SWAP2 SWAP1 POP JUMP JUMPDEST PUSH1 0x0 DUP1 PUSH1 0x40 DUP4 DUP6 SUB SLT ISZERO PUSH2 0x19FC JUMPI DUP2 DUP3 REVERT JUMPDEST DUP3 CALLDATALOAD SWAP2 POP PUSH1 0x20 DUP4 ADD CALLDATALOAD PUSH2 0x1A0E DUP2 PUSH2 0x2343 JUMP JUMPDEST DUP1 SWAP2 POP POP SWAP3 POP SWAP3 SWAP1 POP JUMP JUMPDEST PUSH1 0x0 DUP1 PUSH1 0x0 DUP1 PUSH1 0x80 DUP6 DUP8 SUB SLT ISZERO PUSH2 0x1A2E JUMPI DUP4 DUP5 REVERT JUMPDEST DUP5 CALLDATALOAD SWAP4 POP PUSH1 0x20 DUP6 ADD CALLDATALOAD SWAP3 POP PUSH1 0x40 DUP6 ADD CALLDATALOAD SWAP2 POP PUSH1 0x60 DUP6 ADD CALLDATALOAD PUSH2 0x1A4E DUP2 PUSH2 0x235B JUMP JUMPDEST SWAP4 SWAP7 SWAP3 SWAP6 POP SWAP1 SWAP4 POP POP JUMP JUMPDEST PUSH1 0x0 DUP1 PUSH1 0x40 DUP4 DUP6 SUB SLT ISZERO PUSH2 0x1A6B JUMPI DUP2 DUP3 REVERT JUMPDEST POP POP DUP1 CALLDATALOAD SWAP3 PUSH1 0x20 SWAP1 SWAP2 ADD CALLDATALOAD SWAP2 POP JUMP JUMPDEST PUSH1 0x0 PUSH2 0x1A0 DUP1 DUP4 DUP6 SUB SLT ISZERO PUSH2 0x1A8D JUMPI DUP2 DUP3 REVERT JUMPDEST PUSH2 0x1A96 DUP2 PUSH2 0x22BF JUMP JUMPDEST SWAP1 POP PUSH2 0x1AA1 DUP4 PUSH2 0x18B2 JUMP JUMPDEST DUP2 MSTORE PUSH2 0x1AAF PUSH1 0x20 DUP5 ADD PUSH2 0x18B2 JUMP JUMPDEST PUSH1 0x20 DUP3 ADD MSTORE PUSH2 0x1AC0 PUSH1 0x40 DUP5 ADD PUSH2 0x18B2 JUMP JUMPDEST PUSH1 0x40 DUP3 ADD MSTORE PUSH2 0x1AD1 PUSH1 0x60 DUP5 ADD PUSH2 0x188C JUMP JUMPDEST PUSH1 0x60 DUP3 ADD MSTORE PUSH2 0x1AE2 PUSH1 0x80 DUP5 ADD PUSH2 0x189E JUMP JUMPDEST PUSH1 0x80 DUP3 ADD MSTORE PUSH2 0x1AF3 PUSH1 0xA0 DUP5 ADD PUSH2 0x189E JUMP JUMPDEST PUSH1 0xA0 DUP3 ADD MSTORE PUSH2 0x1B04 PUSH1 0xC0 DUP5 ADD PUSH2 0x189E JUMP JUMPDEST PUSH1 0xC0 DUP3 ADD MSTORE PUSH2 0x1B15 PUSH1 0xE0 DUP5 ADD PUSH2 0x186D JUMP JUMPDEST PUSH1 0xE0 DUP3 ADD MSTORE PUSH2 0x100 DUP4 DUP2 ADD MLOAD SWAP1 DUP3 ADD MSTORE PUSH2 0x120 DUP1 DUP5 ADD MLOAD SWAP1 DUP3 ADD MSTORE PUSH2 0x140 DUP1 DUP5 ADD MLOAD SWAP1 DUP3 ADD MSTORE PUSH2 0x160 DUP1 DUP5 ADD MLOAD SWAP1 DUP3 ADD MSTORE PUSH2 0x180 SWAP3 DUP4 ADD MLOAD SWAP3 DUP2 ADD SWAP3 SWAP1 SWAP3 MSTORE POP SWAP2 SWAP1 POP JUMP JUMPDEST PUSH1 0x0 PUSH1 0x60 DUP3 DUP5 SUB SLT ISZERO PUSH2 0x1B6B JUMPI DUP1 DUP2 REVERT JUMPDEST PUSH2 0x1B75 PUSH1 0x60 PUSH2 0x22BF JUMP JUMPDEST DUP3 MLOAD DUP2 MSTORE PUSH1 0x20 DUP4 ADD MLOAD PUSH1 0x20 DUP3 ADD MSTORE PUSH1 0x40 DUP4 ADD MLOAD PUSH1 0x40 DUP3 ADD MSTORE DUP1 SWAP2 POP POP SWAP3 SWAP2 POP POP JUMP JUMPDEST PUSH1 0x0 DUP1 PUSH1 0x40 DUP4 DUP6 SUB SLT ISZERO PUSH2 0x1BA9 JUMPI DUP2 DUP3 REVERT JUMPDEST DUP3 MLOAD PUSH2 0x1BB4 DUP2 PUSH2 0x235B JUMP JUMPDEST PUSH1 0x20 SWAP4 SWAP1 SWAP4 ADD MLOAD SWAP3 SWAP5 SWAP3 SWAP4 POP POP POP JUMP JUMPDEST PUSH1 0x60 SWAP2 SWAP1 SWAP2 SHL PUSH12 0xFFFFFFFFFFFFFFFFFFFFFFFF NOT AND DUP2 MSTORE PUSH1 0x14 ADD SWAP1 JUMP JUMPDEST PUSH1 0x1 PUSH1 0x1 PUSH1 0xA0 SHL SUB SWAP2 SWAP1 SWAP2 AND DUP2 MSTORE PUSH1 0x20 ADD SWAP1 JUMP JUMPDEST PUSH1 0x1 PUSH1 0x1 PUSH1 0xA0 SHL SUB SWAP4 DUP5 AND DUP2 MSTORE SWAP2 SWAP1 SWAP3 AND PUSH1 0x20 DUP3 ADD MSTORE PUSH1 0x40 DUP2 ADD SWAP2 SWAP1 SWAP2 MSTORE PUSH1 0x60 ADD SWAP1 JUMP JUMPDEST PUSH1 0x1 PUSH1 0x1 PUSH1 0xA0 SHL SUB SWAP3 SWAP1 SWAP3 AND DUP3 MSTORE PUSH4 0xFFFFFFFF AND PUSH1 0x20 DUP3 ADD MSTORE PUSH1 0x40 ADD SWAP1 JUMP JUMPDEST SWAP1 ISZERO ISZERO DUP2 MSTORE PUSH1 0x20 ADD SWAP1 JUMP JUMPDEST SWAP1 DUP2 MSTORE PUSH1 0x20 ADD SWAP1 JUMP JUMPDEST SWAP4 DUP5 MSTORE PUSH1 0xFF SWAP3 SWAP1 SWAP3 AND PUSH1 0x20 DUP5 ADD MSTORE PUSH1 0x40 DUP4 ADD MSTORE PUSH1 0x60 DUP3 ADD MSTORE PUSH1 0x80 ADD SWAP1 JUMP JUMPDEST PUSH1 0x1 PUSH1 0x1 PUSH1 0xE0 SHL SUB NOT SWAP2 SWAP1 SWAP2 AND DUP2 MSTORE PUSH1 0x20 ADD SWAP1 JUMP JUMPDEST PUSH1 0x20 DUP1 DUP3 MSTORE PUSH1 0x22 SWAP1 DUP3 ADD MSTORE PUSH32 0x456E756D657261626C655365743A20696E646578206F7574206F6620626F756E PUSH1 0x40 DUP3 ADD MSTORE PUSH2 0x6473 PUSH1 0xF0 SHL PUSH1 0x60 DUP3 ADD MSTORE PUSH1 0x80 ADD SWAP1 JUMP JUMPDEST PUSH1 0x20 DUP1 DUP3 MSTORE PUSH1 0x27 SWAP1 DUP3 ADD MSTORE PUSH32 0x423A4D4F443A2D4941444D2063616C6C65722021434F4E54524143545F41444D PUSH1 0x40 DUP3 ADD MSTORE PUSH7 0x494E5F524F4C45 PUSH1 0xC8 SHL PUSH1 0x60 DUP3 ADD MSTORE PUSH1 0x80 ADD SWAP1 JUMP JUMPDEST PUSH1 0x20 DUP1 DUP3 MSTORE PUSH1 0x2F SWAP1 DUP3 ADD MSTORE PUSH32 0x416363657373436F6E74726F6C3A2073656E646572206D75737420626520616E PUSH1 0x40 DUP3 ADD MSTORE PUSH15 0x818591B5A5B881D1BC819DC985B9D PUSH1 0x8A SHL PUSH1 0x60 DUP3 ADD MSTORE PUSH1 0x80 ADD SWAP1 JUMP JUMPDEST PUSH1 0x20 DUP1 DUP3 MSTORE PUSH1 0x14 SWAP1 DUP3 ADD MSTORE PUSH20 0x14185D5CD8589B194E881B9BDD081C185D5CD959 PUSH1 0x62 SHL PUSH1 0x40 DUP3 ADD MSTORE PUSH1 0x60 ADD SWAP1 JUMP JUMPDEST PUSH1 0x20 DUP1 DUP3 MSTORE PUSH1 0x3 SWAP1 DUP3 ADD MSTORE PUSH3 0x41505 PUSH1 0xEC SHL PUSH1 0x40 DUP3 ADD MSTORE PUSH1 0x60 ADD SWAP1 JUMP JUMPDEST PUSH1 0x20 DUP1 DUP3 MSTORE PUSH1 0x4 SWAP1 DUP3 ADD MSTORE PUSH4 0x2921A629 PUSH1 0xE1 SHL PUSH1 0x40 DUP3 ADD MSTORE PUSH1 0x60 ADD SWAP1 JUMP JUMPDEST PUSH1 0x20 DUP1 DUP3 MSTORE PUSH1 0x1B SWAP1 DUP3 ADD MSTORE PUSH32 0x454E433A53453A20454E43206E6F74206175746820666F722041430000000000 PUSH1 0x40 DUP3 ADD MSTORE PUSH1 0x60 ADD SWAP1 JUMP JUMPDEST PUSH1 0x20 DUP1 DUP3 MSTORE PUSH1 0x30 SWAP1 DUP3 ADD MSTORE PUSH32 0x416363657373436F6E74726F6C3A2073656E646572206D75737420626520616E PUSH1 0x40 DUP3 ADD MSTORE PUSH16 0x2061646D696E20746F207265766F6B65 PUSH1 0x80 SHL PUSH1 0x60 DUP3 ADD MSTORE PUSH1 0x80 ADD SWAP1 JUMP JUMPDEST PUSH1 0x20 DUP1 DUP3 MSTORE PUSH1 0x3E SWAP1 DUP3 ADD MSTORE PUSH32 0x454E433A45453A20457363726F7720706572696F64206E6F7420656E64656420 PUSH1 0x40 DUP3 ADD MSTORE PUSH32 0x616E642063616C6C6572206973206E6F7420657363726F77206F776E65720000 PUSH1 0x60 DUP3 ADD MSTORE PUSH1 0x80 ADD SWAP1 JUMP JUMPDEST PUSH1 0x20 DUP1 DUP3 MSTORE PUSH1 0x26 SWAP1 DUP3 ADD MSTORE PUSH32 0x423A4D4F442D49503A43616C6C696E672061646472657373206973206E6F7420 PUSH1 0x40 DUP3 ADD MSTORE PUSH6 0x3830BAB9B2B9 PUSH1 0xD1 SHL PUSH1 0x60 DUP3 ADD MSTORE PUSH1 0x80 ADD SWAP1 JUMP JUMPDEST PUSH1 0x20 DUP1 DUP3 MSTORE PUSH1 0x10 SWAP1 DUP3 ADD MSTORE PUSH16 0x14185D5CD8589B194E881C185D5CD959 PUSH1 0x82 SHL PUSH1 0x40 DUP3 ADD MSTORE PUSH1 0x60 ADD SWAP1 JUMP JUMPDEST PUSH1 0x20 DUP1 DUP3 MSTORE PUSH1 0x1E SWAP1 DUP3 ADD MSTORE PUSH32 0x423A54583A4D75737420686176652041535345545F545846525F524F4C450000 PUSH1 0x40 DUP3 ADD MSTORE PUSH1 0x60 ADD SWAP1 JUMP JUMPDEST PUSH1 0x20 DUP1 DUP3 MSTORE PUSH1 0x5 SWAP1 DUP3 ADD MSTORE PUSH5 0x20AFAA25A7 PUSH1 0xD9 SHL PUSH1 0x40 DUP3 ADD MSTORE PUSH1 0x60 ADD SWAP1 JUMP JUMPDEST PUSH1 0x20 DUP1 DUP3 MSTORE PUSH1 0x1B SWAP1 DUP3 ADD MSTORE PUSH32 0x454E433A45453A20454E43206E6F74206175746820666F722041430000000000 PUSH1 0x40 DUP3 ADD MSTORE PUSH1 0x60 ADD SWAP1 JUMP JUMPDEST PUSH1 0x20 DUP1 DUP3 MSTORE PUSH1 0x12 SWAP1 DUP3 ADD MSTORE PUSH18 0x423A5353433A2041646472657373203D203 PUSH1 0x74 SHL PUSH1 0x40 DUP3 ADD MSTORE PUSH1 0x60 ADD SWAP1 JUMP JUMPDEST PUSH1 0x20 DUP1 DUP3 MSTORE PUSH1 0x6 SWAP1 DUP3 ADD MSTORE PUSH6 0x20A1AFAA25A7 PUSH1 0xD1 SHL PUSH1 0x40 DUP3 ADD MSTORE PUSH1 0x60 ADD SWAP1 JUMP JUMPDEST PUSH1 0x20 DUP1 DUP3 MSTORE PUSH1 0x3B SWAP1 DUP3 ADD MSTORE PUSH32 0x454E433A53453A204F6E6C7920414361646D696E20617574686F72697A656420 PUSH1 0x40 DUP3 ADD MSTORE PUSH32 0x757365722063616E206368616E676520737461747573203C2035300000000000 PUSH1 0x60 DUP3 ADD MSTORE PUSH1 0x80 ADD SWAP1 JUMP JUMPDEST PUSH1 0x20 DUP1 DUP3 MSTORE PUSH1 0x2C SWAP1 DUP3 ADD MSTORE PUSH32 0x454E433A45453A205265636F7264206D75737420626520696E20657363726F77 PUSH1 0x40 DUP3 ADD MSTORE PUSH12 0x20737461747573203E203439 PUSH1 0xA0 SHL PUSH1 0x60 DUP3 ADD MSTORE PUSH1 0x80 ADD SWAP1 JUMP JUMPDEST PUSH1 0x20 DUP1 DUP3 MSTORE PUSH1 0x6 SWAP1 DUP3 ADD MSTORE PUSH6 0x4150505F4E43 PUSH1 0xD0 SHL PUSH1 0x40 DUP3 ADD MSTORE PUSH1 0x60 ADD SWAP1 JUMP JUMPDEST PUSH1 0x20 DUP1 DUP3 MSTORE PUSH1 0x6 SWAP1 DUP3 ADD MSTORE PUSH6 0x24A22FAA25A7 PUSH1 0xD1 SHL PUSH1 0x40 DUP3 ADD MSTORE PUSH1 0x60 ADD SWAP1 JUMP JUMPDEST PUSH1 0x20 DUP1 DUP3 MSTORE PUSH1 0x7 SWAP1 DUP3 ADD MSTORE PUSH7 0x22A1A92FA6A3A9 PUSH1 0xC9 SHL PUSH1 0x40 DUP3 ADD MSTORE PUSH1 0x60 ADD SWAP1 JUMP JUMPDEST PUSH1 0x20 DUP1 DUP3 MSTORE PUSH1 0x2 SWAP1 DUP3 ADD MSTORE PUSH2 0x4E5 PUSH1 0xF4 SHL PUSH1 0x40 DUP3 ADD MSTORE PUSH1 0x60 ADD SWAP1 JUMP JUMPDEST PUSH1 0x20 DUP1 DUP3 MSTORE PUSH1 0x1F SWAP1 DUP3 ADD MSTORE PUSH32 0x5265656E7472616E637947756172643A207265656E7472616E742063616C6C00 PUSH1 0x40 DUP3 ADD MSTORE PUSH1 0x60 ADD SWAP1 JUMP JUMPDEST PUSH1 0x20 DUP1 DUP3 MSTORE PUSH1 0x8 SWAP1 DUP3 ADD MSTORE PUSH8 0x2AAA24A62FAA25A7 PUSH1 0xC1 SHL PUSH1 0x40 DUP3 ADD MSTORE PUSH1 0x60 ADD SWAP1 JUMP JUMPDEST PUSH1 0x20 DUP1 DUP3 MSTORE PUSH1 0x6 SWAP1 DUP3 ADD MSTORE PUSH6 0x20A1AFA6A3A9 PUSH1 0xD1 SHL PUSH1 0x40 DUP3 ADD MSTORE PUSH1 0x60 ADD SWAP1 JUMP JUMPDEST PUSH1 0x20 DUP1 DUP3 MSTORE PUSH1 0x2F SWAP1 DUP3 ADD MSTORE PUSH32 0x416363657373436F6E74726F6C3A2063616E206F6E6C792072656E6F756E6365 PUSH1 0x40 DUP3 ADD MSTORE PUSH15 0x103937B632B9903337B91039B2B633 PUSH1 0x89 SHL PUSH1 0x60 DUP3 ADD MSTORE PUSH1 0x80 ADD SWAP1 JUMP JUMPDEST PUSH1 0x20 DUP1 DUP3 MSTORE PUSH1 0x2D SWAP1 DUP3 ADD MSTORE PUSH32 0x454E433A53453A4D757374207370656369667920612076616C69642065736372 PUSH1 0x40 DUP3 ADD MSTORE PUSH13 0x6F7720737461747573203E3439 PUSH1 0x98 SHL PUSH1 0x60 DUP3 ADD MSTORE PUSH1 0x80 ADD SWAP1 JUMP JUMPDEST PUSH1 0x20 DUP1 DUP3 MSTORE PUSH1 0x26 SWAP1 DUP3 ADD MSTORE PUSH32 0x454E433A4D4F442D49413A2043616C6C657220646F6573206E6F7420686F6C64 PUSH1 0x40 DUP3 ADD MSTORE PUSH6 0x103A37B5B2B7 PUSH1 0xD1 SHL PUSH1 0x60 DUP3 ADD MSTORE PUSH1 0x80 ADD SWAP1 JUMP JUMPDEST PUSH1 0x20 DUP1 DUP3 MSTORE PUSH1 0x31 SWAP1 DUP3 ADD MSTORE PUSH32 0x454E433A53453A457363726F77206D7573742062652073657420746F20612074 PUSH1 0x40 DUP3 ADD MSTORE PUSH17 0x696D6520696E2074686520667574757265 PUSH1 0x78 SHL PUSH1 0x60 DUP3 ADD MSTORE PUSH1 0x80 ADD SWAP1 JUMP JUMPDEST PUSH1 0x40 MLOAD PUSH1 0x1F DUP3 ADD PUSH1 0x1F NOT AND DUP2 ADD PUSH8 0xFFFFFFFFFFFFFFFF DUP2 GT DUP3 DUP3 LT OR ISZERO PUSH2 0x22F6 JUMPI PUSH4 0x4E487B71 PUSH1 0xE0 SHL PUSH1 0x0 MSTORE PUSH1 0x41 PUSH1 0x4 MSTORE PUSH1 0x24 PUSH1 0x0 REVERT JUMPDEST PUSH1 0x40 MSTORE SWAP2 SWAP1 POP JUMP JUMPDEST PUSH1 0x0 DUP3 NOT DUP3 GT ISZERO PUSH2 0x2311 JUMPI PUSH2 0x2311 PUSH2 0x232D JUMP JUMPDEST POP ADD SWAP1 JUMP JUMPDEST PUSH1 0x0 DUP3 DUP3 LT ISZERO PUSH2 0x2328 JUMPI PUSH2 0x2328 PUSH2 0x232D JUMP JUMPDEST POP SUB SWAP1 JUMP JUMPDEST PUSH4 0x4E487B71 PUSH1 0xE0 SHL PUSH1 0x0 MSTORE PUSH1 0x11 PUSH1 0x4 MSTORE PUSH1 0x24 PUSH1 0x0 REVERT JUMPDEST PUSH1 0x1 PUSH1 0x1 PUSH1 0xA0 SHL SUB DUP2 AND DUP2 EQ PUSH2 0x2358 JUMPI PUSH1 0x0 DUP1 REVERT JUMPDEST POP JUMP JUMPDEST PUSH1 0xFF DUP2 AND DUP2 EQ PUSH2 0x2358 JUMPI PUSH1 0x0 DUP1 REVERT INVALID 0x2C 0xE8 0xD0 0x4A SWAP13 CALLDATALOAD SWAP9 PUSH21 0x29AF538825CD2438CC5C5BB5DC427955F84DAAA3EA LT POP AND LOG2 PUSH5 0x6970667358 0x22 SLT KECCAK256 SWAP11 GASLIMIT 0xAB PUSH4 0xD938E8D MOD ADDMOD 0xE 0xEB 0xCD 0x1E 0xBE 0xB8 0xC 0x1F SUB 0x5F LOG0 0x2F 0xE0 0xBB 0xE2 0xBC 0xB8 SWAP15 SELFBALANCE 0x48 PUSH8 0x7164736F6C634300 ADDMOD ADD STOP CALLER "
		},
		"gasEstimates": {
			"creation": {
				"codeDepositCost": "1830400",
				"executionCost": "infinite",
				"totalCost": "infinite"
			},
			"external": {
				"ASSET_TXFR_ROLE()": "252",
				"CONTRACT_ADMIN_ROLE()": "infinite",
				"DEFAULT_ADMIN_ROLE()": "317",
				"OO_resolveContractAddresses()": "infinite",
				"OO_setStorageContract(address)": "infinite",
				"OO_transferACToken(address,uint256)": "infinite",
				"PAUSER_ROLE()": "316",
				"endEscrow(bytes32)": "infinite",
				"getRoleAdmin(bytes32)": "1273",
				"getRoleMember(bytes32,uint256)": "infinite",
				"getRoleMemberCount(bytes32)": "infinite",
				"grantRole(bytes32,address)": "infinite",
				"hasRole(bytes32,address)": "infinite",
				"onERC721Received(address,address,uint256,bytes)": "infinite",
				"pause()": "infinite",
				"paused()": "1129",
				"renounceRole(bytes32,address)": "infinite",
				"revokeRole(bytes32,address)": "infinite",
				"setEscrow(bytes32,bytes32,uint256,uint8)": "infinite",
				"transferAssetToken(address,bytes32)": "infinite",
				"unpause()": "infinite"
			}
		},
		"methodIdentifiers": {
			"ASSET_TXFR_ROLE()": "1429db5f",
			"CONTRACT_ADMIN_ROLE()": "1da03312",
			"DEFAULT_ADMIN_ROLE()": "a217fddf",
			"OO_resolveContractAddresses()": "e8b41653",
			"OO_setStorageContract(address)": "d6b02ecf",
			"OO_transferACToken(address,uint256)": "92ba3da6",
			"PAUSER_ROLE()": "e63ab1e9",
			"endEscrow(bytes32)": "e8e1152c",
			"getRoleAdmin(bytes32)": "248a9ca3",
			"getRoleMember(bytes32,uint256)": "9010d07c",
			"getRoleMemberCount(bytes32)": "ca15c873",
			"grantRole(bytes32,address)": "2f2ff15d",
			"hasRole(bytes32,address)": "91d14854",
			"onERC721Received(address,address,uint256,bytes)": "150b7a02",
			"pause()": "8456cb59",
			"paused()": "5c975abb",
			"renounceRole(bytes32,address)": "36568abe",
			"revokeRole(bytes32,address)": "d547741f",
			"setEscrow(bytes32,bytes32,uint256,uint8)": "b29c3959",
			"transferAssetToken(address,bytes32)": "440e7a7e",
			"unpause()": "3f4ba83a"
		}
	},
	"abi": [
		{
			"anonymous": false,
			"inputs": [
				{
					"indexed": false,
					"internalType": "address",
					"name": "account",
					"type": "address"
				}
			],
			"name": "Paused",
			"type": "event"
		},
		{
			"anonymous": false,
			"inputs": [
				{
					"indexed": false,
					"internalType": "string",
					"name": "_msg",
					"type": "string"
				}
			],
			"name": "REPORT",
			"type": "event"
		},
		{
			"anonymous": false,
			"inputs": [
				{
					"indexed": true,
					"internalType": "bytes32",
					"name": "role",
					"type": "bytes32"
				},
				{
					"indexed": true,
					"internalType": "bytes32",
					"name": "previousAdminRole",
					"type": "bytes32"
				},
				{
					"indexed": true,
					"internalType": "bytes32",
					"name": "newAdminRole",
					"type": "bytes32"
				}
			],
			"name": "RoleAdminChanged",
			"type": "event"
		},
		{
			"anonymous": false,
			"inputs": [
				{
					"indexed": true,
					"internalType": "bytes32",
					"name": "role",
					"type": "bytes32"
				},
				{
					"indexed": true,
					"internalType": "address",
					"name": "account",
					"type": "address"
				},
				{
					"indexed": true,
					"internalType": "address",
					"name": "sender",
					"type": "address"
				}
			],
			"name": "RoleGranted",
			"type": "event"
		},
		{
			"anonymous": false,
			"inputs": [
				{
					"indexed": true,
					"internalType": "bytes32",
					"name": "role",
					"type": "bytes32"
				},
				{
					"indexed": true,
					"internalType": "address",
					"name": "account",
					"type": "address"
				},
				{
					"indexed": true,
					"internalType": "address",
					"name": "sender",
					"type": "address"
				}
			],
			"name": "RoleRevoked",
			"type": "event"
		},
		{
			"anonymous": false,
			"inputs": [
				{
					"indexed": false,
					"internalType": "address",
					"name": "account",
					"type": "address"
				}
			],
			"name": "Unpaused",
			"type": "event"
		},
		{
			"inputs": [],
			"name": "ASSET_TXFR_ROLE",
			"outputs": [
				{
					"internalType": "bytes32",
					"name": "",
					"type": "bytes32"
				}
			],
			"stateMutability": "view",
			"type": "function"
		},
		{
			"inputs": [],
			"name": "CONTRACT_ADMIN_ROLE",
			"outputs": [
				{
					"internalType": "bytes32",
					"name": "",
					"type": "bytes32"
				}
			],
			"stateMutability": "view",
			"type": "function"
		},
		{
			"inputs": [],
			"name": "DEFAULT_ADMIN_ROLE",
			"outputs": [
				{
					"internalType": "bytes32",
					"name": "",
					"type": "bytes32"
				}
			],
			"stateMutability": "view",
			"type": "function"
		},
		{
			"inputs": [],
			"name": "OO_resolveContractAddresses",
			"outputs": [],
			"stateMutability": "nonpayable",
			"type": "function"
		},
		{
			"inputs": [
				{
					"internalType": "address",
					"name": "_storageAddress",
					"type": "address"
				}
			],
			"name": "OO_setStorageContract",
			"outputs": [],
			"stateMutability": "nonpayable",
			"type": "function"
		},
		{
			"inputs": [
				{
					"internalType": "address",
					"name": "_to",
					"type": "address"
				},
				{
					"internalType": "uint256",
					"name": "_tokenID",
					"type": "uint256"
				}
			],
			"name": "OO_transferACToken",
			"outputs": [],
			"stateMutability": "nonpayable",
			"type": "function"
		},
		{
			"inputs": [],
			"name": "PAUSER_ROLE",
			"outputs": [
				{
					"internalType": "bytes32",
					"name": "",
					"type": "bytes32"
				}
			],
			"stateMutability": "view",
			"type": "function"
		},
		{
			"inputs": [
				{
					"internalType": "bytes32",
					"name": "_idxHash",
					"type": "bytes32"
				}
			],
			"name": "endEscrow",
			"outputs": [],
			"stateMutability": "nonpayable",
			"type": "function"
		},
		{
			"inputs": [
				{
					"internalType": "bytes32",
					"name": "role",
					"type": "bytes32"
				}
			],
			"name": "getRoleAdmin",
			"outputs": [
				{
					"internalType": "bytes32",
					"name": "",
					"type": "bytes32"
				}
			],
			"stateMutability": "view",
			"type": "function"
		},
		{
			"inputs": [
				{
					"internalType": "bytes32",
					"name": "role",
					"type": "bytes32"
				},
				{
					"internalType": "uint256",
					"name": "index",
					"type": "uint256"
				}
			],
			"name": "getRoleMember",
			"outputs": [
				{
					"internalType": "address",
					"name": "",
					"type": "address"
				}
			],
			"stateMutability": "view",
			"type": "function"
		},
		{
			"inputs": [
				{
					"internalType": "bytes32",
					"name": "role",
					"type": "bytes32"
				}
			],
			"name": "getRoleMemberCount",
			"outputs": [
				{
					"internalType": "uint256",
					"name": "",
					"type": "uint256"
				}
			],
			"stateMutability": "view",
			"type": "function"
		},
		{
			"inputs": [
				{
					"internalType": "bytes32",
					"name": "role",
					"type": "bytes32"
				},
				{
					"internalType": "address",
					"name": "account",
					"type": "address"
				}
			],
			"name": "grantRole",
			"outputs": [],
			"stateMutability": "nonpayable",
			"type": "function"
		},
		{
			"inputs": [
				{
					"internalType": "bytes32",
					"name": "role",
					"type": "bytes32"
				},
				{
					"internalType": "address",
					"name": "account",
					"type": "address"
				}
			],
			"name": "hasRole",
			"outputs": [
				{
					"internalType": "bool",
					"name": "",
					"type": "bool"
				}
			],
			"stateMutability": "view",
			"type": "function"
		},
		{
			"inputs": [
				{
					"internalType": "address",
					"name": "",
					"type": "address"
				},
				{
					"internalType": "address",
					"name": "",
					"type": "address"
				},
				{
					"internalType": "uint256",
					"name": "",
					"type": "uint256"
				},
				{
					"internalType": "bytes",
					"name": "",
					"type": "bytes"
				}
			],
			"name": "onERC721Received",
			"outputs": [
				{
					"internalType": "bytes4",
					"name": "",
					"type": "bytes4"
				}
			],
			"stateMutability": "nonpayable",
			"type": "function"
		},
		{
			"inputs": [],
			"name": "pause",
			"outputs": [],
			"stateMutability": "nonpayable",
			"type": "function"
		},
		{
			"inputs": [],
			"name": "paused",
			"outputs": [
				{
					"internalType": "bool",
					"name": "",
					"type": "bool"
				}
			],
			"stateMutability": "view",
			"type": "function"
		},
		{
			"inputs": [
				{
					"internalType": "bytes32",
					"name": "role",
					"type": "bytes32"
				},
				{
					"internalType": "address",
					"name": "account",
					"type": "address"
				}
			],
			"name": "renounceRole",
			"outputs": [],
			"stateMutability": "nonpayable",
			"type": "function"
		},
		{
			"inputs": [
				{
					"internalType": "bytes32",
					"name": "role",
					"type": "bytes32"
				},
				{
					"internalType": "address",
					"name": "account",
					"type": "address"
				}
			],
			"name": "revokeRole",
			"outputs": [],
			"stateMutability": "nonpayable",
			"type": "function"
		},
		{
			"inputs": [
				{
					"internalType": "bytes32",
					"name": "_idxHash",
					"type": "bytes32"
				},
				{
					"internalType": "bytes32",
					"name": "_escrowOwnerHash",
					"type": "bytes32"
				},
				{
					"internalType": "uint256",
					"name": "_escrowTime",
					"type": "uint256"
				},
				{
					"internalType": "uint8",
					"name": "_escrowStatus",
					"type": "uint8"
				}
			],
			"name": "setEscrow",
			"outputs": [],
			"stateMutability": "nonpayable",
			"type": "function"
		},
		{
			"inputs": [
				{
					"internalType": "address",
					"name": "_to",
					"type": "address"
				},
				{
					"internalType": "bytes32",
					"name": "_idxHash",
					"type": "bytes32"
				}
			],
			"name": "transferAssetToken",
			"outputs": [],
			"stateMutability": "nonpayable",
			"type": "function"
		},
		{
			"inputs": [],
			"name": "unpause",
			"outputs": [],
			"stateMutability": "nonpayable",
			"type": "function"
		}
	]
}