{
	"data": {
		"bytecode": {
			"linkReferences": {},
			"object": "60806040523480156200001157600080fd5b50600160009081556002805460ff191690556200003890620000326200009c565b620000a0565b620000677f2ce8d04a9c35987429af538825cd2438cc5c5bb5dc427955f84daaa3ea105016620000326200009c565b620000967f65d7a28e3265b37a6474929f336521b332c1681b933f6cb9f3376673440d862a620000326200009c565b620001b2565b3390565b620000ac8282620000b0565b5050565b6000828152600160209081526040909120620000d7918390620016256200012b821b17901c565b15620000ac57620000e76200009c565b6001600160a01b0316816001600160a01b0316837f2f8788117e7eff1d82e926ec794901d17c78024a50270940304540a733656f0d60405160405180910390a45050565b600062000142836001600160a01b0384166200014b565b90505b92915050565b60006200015983836200019a565b620001915750815460018181018455600084815260208082209093018490558454848252828601909352604090209190915562000145565b50600062000145565b60009081526001919091016020526040902054151590565b612af580620001c26000396000f3fe608060405234801561001057600080fd5b50600436106101c45760003560e01c806391d14854116100f9578063d6b02ecf11610097578063e6308c5611610071578063e6308c56146103b5578063e63ab1e9146103c8578063e8b41653146103d0578063e8e1152c146103d8576101c4565b8063d6b02ecf1461037c578063dbd95ba31461038f578063df7518d2146103a2576101c4565b8063a3b3fe50116100d3578063a3b3fe5014610316578063ca15c87314610336578063ca4bc33e14610349578063d547741f14610369576101c4565b806391d14854146102e857806392ba3da6146102fb578063a217fddf1461030e576101c4565b80633f4ba83a1161016657806375855a5b1161014057806375855a5b1461028d578063826cdff9146102ad5780638456cb59146102c05780639010d07c146102c8576101c4565b80633f4ba83a1461025d578063440e7a7e146102655780635c975abb14610278576101c4565b80631da03312116101a25780631da033121461021a578063248a9ca3146102225780632f2ff15d1461023557806336568abe1461024a576101c4565b8063019b0f5f146101c95780631429db5f146101f2578063150b7a02146101fa575b600080fd5b6101dc6101d7366004611dbd565b6103eb565b6040516101e9919061201c565b60405180910390f35b6101dc610403565b61020d610208366004611cf8565b610427565b6040516101e99190612036565b6101dc610438565b6101dc610230366004611dbd565b61044a565b610248610243366004611dd5565b61045f565b005b610248610258366004611dd5565b6104b0565b6102486104f2565b610248610273366004611d92565b610544565b610280610624565b6040516101e99190612011565b6102a061029b366004611dbd565b61062d565b6040516101e991906126d4565b6102486102bb366004611e04565b6106d0565b6102486107cc565b6102db6102d6366004611e31565b61081c565b6040516101e99190611fba565b6102806102f6366004611dd5565b61083d565b610248610309366004611d92565b610855565b6101dc610915565b610329610324366004611dbd565b61091a565b6040516101e99190612751565b6101dc610344366004611dbd565b61095b565b61035c610357366004611dbd565b610972565b6040516101e99190612667565b610248610377366004611dd5565b610a04565b61024861038a366004611cc0565b610a3e565b61024861039d366004611e04565b610abc565b6102486103b0366004611dbd565b610ba1565b6102486103c3366004611e52565b610cda565b6101dc610dff565b610248610e23565b6102486103e6366004611dbd565b6114d9565b6000818152601860205260409020600101545b919050565b7f7f1e4e9f3d9ba0452a25cfef4cd4c6ffc86158d06ed2f585fa0093e12dec429c81565b630a85bd0160e11b95945050505050565b600080516020612aa083398151915281565b60009081526001602052604090206002015490565b60008281526001602052604090206002015461047d906102f661163a565b6104a25760405162461bcd60e51b8152600401610499906120d4565b60405180910390fd5b6104ac828261163e565b5050565b6104b861163a565b6001600160a01b0316816001600160a01b0316146104e85760405162461bcd60e51b8152600401610499906125bb565b6104ac82826116a7565b61051e7f65d7a28e3265b37a6474929f336521b332c1681b933f6cb9f3376673440d862a6102f661163a565b61053a5760405162461bcd60e51b815260040161049990612270565b610542611710565b565b600260005414156105675760405162461bcd60e51b8152600401610499906124ef565b60026000556105987f7f1e4e9f3d9ba0452a25cfef4cd4c6ffc86158d06ed2f585fa0093e12dec429c6102f661163a565b6105b45760405162461bcd60e51b8152600401610499906122e0565b600954604051632142170760e11b815282916001600160a01b0316906342842e0e906105e890309087908690600401611fce565b600060405180830381600087803b15801561060257600080fd5b505af1158015610616573d6000803e3d6000fd5b505060016000555050505050565b60025460ff1690565b610635611b81565b5060009081526019602090815260409182902082516101008082018552915460ff808216835292810483169382019390935262010000830482169381019390935263010000008204166060830152640100000000810461ffff9081166080840152660100000000000082041660a0830152600160401b810463ffffffff1660c0830152600160601b90046001600160a01b031660e082015290565b600260005414156106f35760405162461bcd60e51b8152600401610499906124ef565b6002600055610700610624565b1561071d5760405162461bcd60e51b8152600401610499906122b6565b60006107288361177e565b9050600061074161073761163a565b8360800151611811565b905061075082600001516118b3565b60ff1660aa146107725760405162461bcd60e51b815260040161049990612336565b60008481526018602090815260409091205490820151146107a55760405162461bcd60e51b8152600401610499906123c5565b600084815260196020526040902083906107bf82826128b8565b5050600160005550505050565b6107f87f65d7a28e3265b37a6474929f336521b332c1681b933f6cb9f3376673440d862a6102f661163a565b6108145760405162461bcd60e51b815260040161049990612270565b610542611902565b6000828152600160205260408120610834908361195d565b90505b92915050565b60008281526001602052604081206108349083611969565b61086f600080516020612aa08339815191526102f661163a565b61088b5760405162461bcd60e51b81526004016104999061208d565b600260005414156108ae5760405162461bcd60e51b8152600401610499906124ef565b6002600055600b54604051632142170760e11b81526001600160a01b03909116906342842e0e906108e790309086908690600401611fce565b600060405180830381600087803b15801561090157600080fd5b505af11580156107bf573d6000803e3d6000fd5b600081565b610922611bc5565b50600090815260186020908152604091829020825160608101845281548152600182015492810192909252600201549181019190915290565b60008181526001602052604081206108379061197e565b61097a611b81565b506000908152601a6020908152604091829020825161010081018452815463ffffffff80821683526401000000008204811694830194909452600160401b810490931693810193909352600160601b9091046001600160a01b0316606083015260018101546080830152600281015460a0830152600381015460c08301526004015460e082015290565b600082815260016020526040902060020154610a22906102f661163a565b6104e85760405162461bcd60e51b815260040161049990612220565b610a58600080516020612aa08339815191526102f661163a565b610a745760405162461bcd60e51b81526004016104999061208d565b6001600160a01b038116610a9a5760405162461bcd60e51b815260040161049990612379565b600380546001600160a01b0319166001600160a01b0392909216919091179055565b60026000541415610adf5760405162461bcd60e51b8152600401610499906124ef565b6002600055610aec610624565b15610b095760405162461bcd60e51b8152600401610499906122b6565b6000610b148361177e565b90506000610b2361073761163a565b9050610b3282600001516118b3565b60ff1660aa14610b545760405162461bcd60e51b815260040161049990612336565b6000848152601860209081526040909120549082015114610b875760405162461bcd60e51b8152600401610499906123c5565b6000848152601a6020526040902083906107bf828261282a565b60026000541415610bc45760405162461bcd60e51b8152600401610499906124ef565b6002600055610bd1610624565b15610bee5760405162461bcd60e51b8152600401610499906122b6565b6000818152601860205260409020600201544211610c1e5760405162461bcd60e51b81526004016104999061216e565b60008181526019602052604090205460c860ff90911610610c515760405162461bcd60e51b815260040161049990612548565b60008181526018602052604080822082815560018101839055600201919091556003549051633a38454b60e21b81526001600160a01b039091169063e8e1152c90610ca090849060040161201c565b600060405180830381600087803b158015610cba57600080fd5b505af1158015610cce573d6000803e3d6000fd5b50506001600055505050565b60026000541415610cfd5760405162461bcd60e51b8152600401610499906124ef565b6002600055610d0a610624565b15610d275760405162461bcd60e51b8152600401610499906122b6565b6000610d328561177e565b90506000610d4161073761163a565b602081015181519192509060ff16600314610d6e5760405162461bcd60e51b8152600401610499906121c3565b600087815260186020526040908190208281556001810187905560020185905560035490516316bf0f2d60e21b81526001600160a01b0390911690635afc3cb490610dbf908a908a90600401612025565b600060405180830381600087803b158015610dd957600080fd5b505af1158015610ded573d6000803e3d6000fd5b50506001600055505050505050505050565b7f65d7a28e3265b37a6474929f336521b332c1681b933f6cb9f3376673440d862a81565b60026000541415610e465760405162461bcd60e51b8152600401610499906124ef565b6002600055610e65600080516020612aa08339815191526102f661163a565b610e815760405162461bcd60e51b81526004016104999061208d565b6003546040516363b8d4c160e11b81526001600160a01b039091169063c771a98290610eaf906004016123a5565b60206040518083038186803b158015610ec757600080fd5b505afa158015610edb573d6000803e3d6000fd5b505050506040513d601f19601f82011682018060405250810190610eff9190611cdc565b600a80546001600160a01b039283166001600160a01b03199182161791829055600b80549091169183169190911790556003546040516363b8d4c160e11b815291169063c771a98290610f549060040161259b565b60206040518083038186803b158015610f6c57600080fd5b505afa158015610f80573d6000803e3d6000fd5b505050506040513d601f19601f82011682018060405250810190610fa49190611cdc565b600480546001600160a01b039283166001600160a01b031991821617808355600580549092169084161790556003546040516363b8d4c160e11b815292169163c771a98291610ff39101612526565b60206040518083038186803b15801561100b57600080fd5b505afa15801561101f573d6000803e3d6000fd5b505050506040513d601f19601f820116820180604052508101906110439190611cdc565b600680546001600160a01b039283166001600160a01b03199182161791829055600780549091169183169190911790556003546040516363b8d4c160e11b815291169063c771a9829061109890600401612317565b60206040518083038186803b1580156110b057600080fd5b505afa1580156110c4573d6000803e3d6000fd5b505050506040513d601f19601f820116820180604052508101906110e89190611cdc565b600880546001600160a01b039283166001600160a01b03199182161791829055600980549091169183169190911790556003546040516363b8d4c160e11b815291169063c771a9829061113d90600401612492565b60206040518083038186803b15801561115557600080fd5b505afa158015611169573d6000803e3d6000fd5b505050506040513d601f19601f8201168201806040525081019061118d9190611cdc565b600c80546001600160a01b039283166001600160a01b03199182161791829055600d80549091169183169190911790556003546040516363b8d4c160e11b815291169063c771a982906111e2906004016124b2565b60206040518083038186803b1580156111fa57600080fd5b505afa15801561120e573d6000803e3d6000fd5b505050506040513d601f19601f820116820180604052508101906112329190611cdc565b600e80546001600160a01b039283166001600160a01b03199182161791829055600f80549091169183169190911790556003546040516363b8d4c160e11b815291169063c771a9829061128790600401612151565b60206040518083038186803b15801561129f57600080fd5b505afa1580156112b3573d6000803e3d6000fd5b505050506040513d601f19601f820116820180604052508101906112d79190611cdc565b601280546001600160a01b039283166001600160a01b03199182161791829055601380549091169183169190911790556003546040516363b8d4c160e11b815291169063c771a9829061132c906004016121a5565b60206040518083038186803b15801561134457600080fd5b505afa158015611358573d6000803e3d6000fd5b505050506040513d601f19601f8201168201806040525081019061137c9190611cdc565b601080546001600160a01b039283166001600160a01b03199182161791829055601180549091169183169190911790556003546040516363b8d4c160e11b815291169063c771a982906113d190600401612431565b60206040518083038186803b1580156113e957600080fd5b505afa1580156113fd573d6000803e3d6000fd5b505050506040513d601f19601f820116820180604052508101906114219190611cdc565b601480546001600160a01b0319166001600160a01b039283161790556003546040516363b8d4c160e11b815291169063c771a98290611462906004016124d3565b60206040518083038186803b15801561147a57600080fd5b505afa15801561148e573d6000803e3d6000fd5b505050506040513d601f19601f820116820180604052508101906114b29190611cdc565b601780546001600160a01b0319166001600160a01b03929092169190911790556001600055565b600260005414156114fc5760405162461bcd60e51b8152600401610499906124ef565b6002600055611509610624565b156115265760405162461bcd60e51b8152600401610499906122b6565b60006115318261177e565b9050600061154061073761163a565b905061154f82600001516118b3565b60ff1660aa146115715760405162461bcd60e51b815260040161049990612451565b60008381526018602090815260409091205490820151146115a45760405162461bcd60e51b81526004016104999061260a565b60008381526018602090815260408083208381556001808201859055600291820185905560198452828520859055601a9093528184208481559283018490558201839055600380830184905560049283019390935591549151633a38454b60e21b81526001600160a01b039092169163e8e1152c916105e89187910161201c565b6000610834836001600160a01b038416611989565b3390565b60008281526001602052604090206116569082611625565b156104ac5761166361163a565b6001600160a01b0316816001600160a01b0316837f2f8788117e7eff1d82e926ec794901d17c78024a50270940304540a733656f0d60405160405180910390a45050565b60008281526001602052604090206116bf90826119d3565b156104ac576116cc61163a565b6001600160a01b0316816001600160a01b0316837ff6391f5c32d9c69d2a47ea670b442974b53935d1edc7fd64eb21e047a839171b60405160405180910390a45050565b611718610624565b6117345760405162461bcd60e51b815260040161049990612123565b6002805460ff191690557f5db9ee0a495bf2e6ff9c91a7834c1ba4fdd244a5e8aa4e537bd38aeae4b073aa61176761163a565b6040516117749190611fba565b60405180910390a1565b611786611be5565b6003546040516338923cb160e21b81526000916001600160a01b03169063e248f2c4906117b790869060040161201c565b6101a060405180830381600087803b1580156117d257600080fd5b505af11580156117e6573d6000803e3d6000fd5b505050506040513d601f19601f8201168201806040525081019061180a9190611e8e565b9392505050565b611819611c51565b611821611c51565b600354604051636fcfb49b60e11b81526001600160a01b039091169063df9f6936906118539087908790600401611ff2565b604080518083038186803b15801561186a57600080fd5b505afa15801561187e573d6000803e3d6000fd5b505050506040513d601f19601f820116820180604052508101906118a29190611f6e565b602083015260ff1681529392505050565b60008160ff166006141580156118cd57508160ff16603214155b80156118dd57508160ff16603814155b80156118ed57508160ff16603c14155b156118fa575060006103fe565b5060aa6103fe565b61190a610624565b156119275760405162461bcd60e51b8152600401610499906122b6565b6002805460ff191660011790557f62e78cea01bee320cd4e420270b5ea74000d11b0c9f74754ebdbfc544b05a25861176761163a565b600061083483836119e8565b6000610834836001600160a01b038416611a41565b600061083782611a59565b60006119958383611a41565b6119cb57508154600181810184556000848152602080822090930184905584548482528286019093526040902091909155610837565b506000610837565b6000610834836001600160a01b038416611a5d565b81546000908210611a0b5760405162461bcd60e51b81526004016104999061204b565b826000018281548110611a2e57634e487b7160e01b600052603260045260246000fd5b9060005260206000200154905092915050565b60009081526001919091016020526040902054151590565b5490565b60008181526001830160205260408120548015611b70576000611a816001836127c9565b8554909150600090611a95906001906127c9565b90506000866000018281548110611abc57634e487b7160e01b600052603260045260246000fd5b9060005260206000200154905080876000018481548110611aed57634e487b7160e01b600052603260045260246000fd5b600091825260209091200155611b048360016127b1565b60008281526001890160205260409020558654879080611b3457634e487b7160e01b600052603160045260246000fd5b60019003818190600052602060002001600090559055866001016000878152602001908152602001600020600090556001945050505050610837565b6000915050610837565b5092915050565b6040805161010081018252600080825260208201819052918101829052606081018290526080810182905260a0810182905260c0810182905260e081019190915290565b604080516060810182526000808252602082018190529181019190915290565b604080516101a081018252600080825260208201819052918101829052606081018290526080810182905260a0810182905260c0810182905260e08101829052610100810182905261012081018290526101408101829052610160810182905261018081019190915290565b604080518082019091526000808252602082015290565b60006101008284031215611c7a578081fd5b50919050565b80516effffffffffffffffffffffffffffff811681146103fe57600080fd5b80516103fe81612a6e565b80516103fe81612a7e565b80516103fe81612a90565b600060208284031215611cd1578081fd5b813561180a81612a56565b600060208284031215611ced578081fd5b815161180a81612a56565b600080600080600060808688031215611d0f578081fd5b8535611d1a81612a56565b94506020860135611d2a81612a56565b935060408601359250606086013567ffffffffffffffff80821115611d4d578283fd5b818801915088601f830112611d60578283fd5b813581811115611d6e578384fd5b896020828501011115611d7f578384fd5b9699959850939650602001949392505050565b60008060408385031215611da4578182fd5b8235611daf81612a56565b946020939093013593505050565b600060208284031215611dce578081fd5b5035919050565b60008060408385031215611de7578182fd5b823591506020830135611df981612a56565b809150509250929050565b6000806101208385031215611e17578182fd5b82359150611e288460208501611c68565b90509250929050565b60008060408385031215611e43578182fd5b50508035926020909101359150565b60008060008060808587031215611e67578182fd5b843593506020850135611e7981612a90565b93969395505050506040820135916060013590565b60006101a0808385031215611ea1578182fd5b611eaa81612772565b9050611eb583611cb5565b8152611ec360208401611cb5565b6020820152611ed460408401611cb5565b6040820152611ee560608401611c9f565b6060820152611ef660808401611caa565b6080820152611f0760a08401611caa565b60a0820152611f1860c08401611caa565b60c0820152611f2960e08401611c80565b60e08201526101008381015190820152610120808401519082015261014080840151908201526101608084015190820152610180928301519281019290925250919050565b60008060408385031215611f80578182fd5b8251611f8b81612a90565b6020939093015192949293505050565b6001600160a01b03169052565b61ffff169052565b63ffffffff169052565b6001600160a01b0391909116815260200190565b6001600160a01b039384168152919092166020820152604081019190915260600190565b6001600160a01b0392909216825263ffffffff16602082015260400190565b901515815260200190565b90815260200190565b91825260ff16602082015260400190565b6001600160e01b031991909116815260200190565b60208082526022908201527f456e756d657261626c655365743a20696e646578206f7574206f6620626f756e604082015261647360f01b606082015260800190565b60208082526027908201527f423a4d4f443a2d4941444d2063616c6c65722021434f4e54524143545f41444d604082015266494e5f524f4c4560c81b606082015260800190565b6020808252602f908201527f416363657373436f6e74726f6c3a2073656e646572206d75737420626520616e60408201526e0818591b5a5b881d1bc819dc985b9d608a1b606082015260800190565b60208082526014908201527314185d5cd8589b194e881b9bdd081c185d5cd95960621b604082015260600190565b60208082526003908201526204150560ec1b604082015260600190565b6020808252601a908201527f454d3a5045453a20457363726f77206e6f742065787069726564000000000000604082015260600190565b6020808252600490820152632921a62960e11b604082015260600190565b6020808252603e908201527f454d3a53453a20457363726f772063616e206f6e6c792062652073657420627960408201527f20616e20617574686f72697a656420657363726f7720636f6e74726163740000606082015260800190565b60208082526030908201527f416363657373436f6e74726f6c3a2073656e646572206d75737420626520616e60408201526f2061646d696e20746f207265766f6b6560801b606082015260800190565b60208082526026908201527f423a4d4f442d49503a43616c6c696e672061646472657373206973206e6f74206040820152653830bab9b2b960d11b606082015260800190565b60208082526010908201526f14185d5cd8589b194e881c185d5cd95960821b604082015260600190565b6020808252601e908201527f423a54583a4d75737420686176652041535345545f545846525f524f4c450000604082015260600190565b60208082526005908201526420afaa25a760d91b604082015260600190565b60208082526023908201527f454d3a5345444c3a204173736574206e6f7420696e20657363726f772073746160408201526274757360e81b606082015260800190565b6020808252601290820152710423a5353433a2041646472657373203d20360741b604082015260600190565b60208082526006908201526520a1afaa25a760d11b604082015260600190565b60208082526046908201527f454d3a5345444c3a204f6e6c7920636f6e747261637420776974682073616d6560408201527f206e616d65206173207365747465722063616e206d6f6469667920657363726f60608201526577206461746160d01b608082015260a00190565b6020808252600690820152654150505f4e4360d01b604082015260600190565b60208082526021908201527f454d3a45453a204173736574206e6f7420696e20657363726f772073746174756040820152607360f81b606082015260800190565b60208082526006908201526524a22faa25a760d11b604082015260600190565b60208082526007908201526622a1a92fa6a3a960c91b604082015260600190565b60208082526002908201526104e560f41b604082015260600190565b6020808252601f908201527f5265656e7472616e637947756172643a207265656e7472616e742063616c6c00604082015260600190565b6020808252600890820152672aaa24a62faa25a760c11b604082015260600190565b60208082526033908201527f454d3a5045453a20457363726f77206e6f7420656e6461626c652077697468206040820152727065726d697373697665456e64457363726f7760681b606082015260800190565b60208082526006908201526520a1afa6a3a960d11b604082015260600190565b6020808252602f908201527f416363657373436f6e74726f6c3a2063616e206f6e6c792072656e6f756e636560408201526e103937b632b9903337b91039b2b63360891b606082015260800190565b6020808252603c908201527f454d3a45453a204f6e6c7920636f6e747261637420776974682073616d65206e60408201527f616d65206173207365747465722063616e20656e6420657363726f7700000000606082015260800190565b60006101008201905063ffffffff8084511683528060208501511660208401528060408501511660408401525060018060a01b0360608401511660608301526080830151608083015260a083015160a083015260c083015160c083015260e083015160e083015292915050565b60006101008201905060ff835116825260ff602084015116602083015260ff604084015116604083015260ff606084015116606083015261ffff608084015116608083015260a083015161272b60a0840182611fa8565b5060c083015161273e60c0840182611fb0565b5060e0830151611b7a60e0840182611f9b565b81518152602080830151908201526040918201519181019190915260600190565b604051601f8201601f1916810167ffffffffffffffff811182821017156127a957634e487b7160e01b600052604160045260246000fd5b604052919050565b600082198211156127c4576127c46127e0565b500190565b6000828210156127db576127db6127e0565b500390565b634e487b7160e01b600052601160045260246000fd5b6000813561083781612a56565b6000813561083781612a6e565b6000813561083781612a7e565b6000813561083781612a90565b813561283581612a7e565b63ffffffff811663ffffffff1983541617825550602082013561285781612a7e565b61286181836129ec565b5061287761287160408401612810565b82612a34565b61288c612886606084016127f6565b8261296a565b6080820135600182015560a0820135600282015560c0820135600382015560e082013560048201555050565b81356128c381612a90565b815460ff191660ff919091161780825560208301356128e181612a90565b61ff008160081b1661ff001983161783555050604082013561290281612a90565b61290c8183612996565b5061292261291c6060840161281d565b826129b0565b61293761293160808401612803565b826129cc565b61294c61294660a08401612803565b82612a10565b61295b61287160c08401612810565b6104ac61288660e084016127f6565b80546bffffffffffffffffffffffff198360601b166bffffffffffffffffffffffff8216178255505050565b805462ff00008360101b1662ff0000198216178255505050565b805463ff0000008360181b1663ff000000198216178255505050565b805465ffff000000008360201b1665ffff00000000198216178255505050565b805467ffffffff000000008360201b1667ffffffff00000000198216178255505050565b805467ffff0000000000008360301b1667ffff000000000000198216178255505050565b805463ffffffff60401b8360401b1663ffffffff60401b198216178255505050565b6001600160a01b0381168114612a6b57600080fd5b50565b61ffff81168114612a6b57600080fd5b63ffffffff81168114612a6b57600080fd5b60ff81168114612a6b57600080fdfe2ce8d04a9c35987429af538825cd2438cc5c5bb5dc427955f84daaa3ea105016a2646970667358221220536dcc9e4e873eff7dc22f5d2837ecbbc99af7e67969c34f80c024a4bef2294964736f6c63430008010033",
			"opcodes": "PUSH1 0x80 PUSH1 0x40 MSTORE CALLVALUE DUP1 ISZERO PUSH3 0x11 JUMPI PUSH1 0x0 DUP1 REVERT JUMPDEST POP PUSH1 0x1 PUSH1 0x0 SWAP1 DUP2 SSTORE PUSH1 0x2 DUP1 SLOAD PUSH1 0xFF NOT AND SWAP1 SSTORE PUSH3 0x38 SWAP1 PUSH3 0x32 PUSH3 0x9C JUMP JUMPDEST PUSH3 0xA0 JUMP JUMPDEST PUSH3 0x67 PUSH32 0x2CE8D04A9C35987429AF538825CD2438CC5C5BB5DC427955F84DAAA3EA105016 PUSH3 0x32 PUSH3 0x9C JUMP JUMPDEST PUSH3 0x96 PUSH32 0x65D7A28E3265B37A6474929F336521B332C1681B933F6CB9F3376673440D862A PUSH3 0x32 PUSH3 0x9C JUMP JUMPDEST PUSH3 0x1B2 JUMP JUMPDEST CALLER SWAP1 JUMP JUMPDEST PUSH3 0xAC DUP3 DUP3 PUSH3 0xB0 JUMP JUMPDEST POP POP JUMP JUMPDEST PUSH1 0x0 DUP3 DUP2 MSTORE PUSH1 0x1 PUSH1 0x20 SWAP1 DUP2 MSTORE PUSH1 0x40 SWAP1 SWAP2 KECCAK256 PUSH3 0xD7 SWAP2 DUP4 SWAP1 PUSH3 0x1625 PUSH3 0x12B DUP3 SHL OR SWAP1 SHR JUMP JUMPDEST ISZERO PUSH3 0xAC JUMPI PUSH3 0xE7 PUSH3 0x9C JUMP JUMPDEST PUSH1 0x1 PUSH1 0x1 PUSH1 0xA0 SHL SUB AND DUP2 PUSH1 0x1 PUSH1 0x1 PUSH1 0xA0 SHL SUB AND DUP4 PUSH32 0x2F8788117E7EFF1D82E926EC794901D17C78024A50270940304540A733656F0D PUSH1 0x40 MLOAD PUSH1 0x40 MLOAD DUP1 SWAP2 SUB SWAP1 LOG4 POP POP JUMP JUMPDEST PUSH1 0x0 PUSH3 0x142 DUP4 PUSH1 0x1 PUSH1 0x1 PUSH1 0xA0 SHL SUB DUP5 AND PUSH3 0x14B JUMP JUMPDEST SWAP1 POP JUMPDEST SWAP3 SWAP2 POP POP JUMP JUMPDEST PUSH1 0x0 PUSH3 0x159 DUP4 DUP4 PUSH3 0x19A JUMP JUMPDEST PUSH3 0x191 JUMPI POP DUP2 SLOAD PUSH1 0x1 DUP2 DUP2 ADD DUP5 SSTORE PUSH1 0x0 DUP5 DUP2 MSTORE PUSH1 0x20 DUP1 DUP3 KECCAK256 SWAP1 SWAP4 ADD DUP5 SWAP1 SSTORE DUP5 SLOAD DUP5 DUP3 MSTORE DUP3 DUP7 ADD SWAP1 SWAP4 MSTORE PUSH1 0x40 SWAP1 KECCAK256 SWAP2 SWAP1 SWAP2 SSTORE PUSH3 0x145 JUMP JUMPDEST POP PUSH1 0x0 PUSH3 0x145 JUMP JUMPDEST PUSH1 0x0 SWAP1 DUP2 MSTORE PUSH1 0x1 SWAP2 SWAP1 SWAP2 ADD PUSH1 0x20 MSTORE PUSH1 0x40 SWAP1 KECCAK256 SLOAD ISZERO ISZERO SWAP1 JUMP JUMPDEST PUSH2 0x2AF5 DUP1 PUSH3 0x1C2 PUSH1 0x0 CODECOPY PUSH1 0x0 RETURN INVALID PUSH1 0x80 PUSH1 0x40 MSTORE CALLVALUE DUP1 ISZERO PUSH2 0x10 JUMPI PUSH1 0x0 DUP1 REVERT JUMPDEST POP PUSH1 0x4 CALLDATASIZE LT PUSH2 0x1C4 JUMPI PUSH1 0x0 CALLDATALOAD PUSH1 0xE0 SHR DUP1 PUSH4 0x91D14854 GT PUSH2 0xF9 JUMPI DUP1 PUSH4 0xD6B02ECF GT PUSH2 0x97 JUMPI DUP1 PUSH4 0xE6308C56 GT PUSH2 0x71 JUMPI DUP1 PUSH4 0xE6308C56 EQ PUSH2 0x3B5 JUMPI DUP1 PUSH4 0xE63AB1E9 EQ PUSH2 0x3C8 JUMPI DUP1 PUSH4 0xE8B41653 EQ PUSH2 0x3D0 JUMPI DUP1 PUSH4 0xE8E1152C EQ PUSH2 0x3D8 JUMPI PUSH2 0x1C4 JUMP JUMPDEST DUP1 PUSH4 0xD6B02ECF EQ PUSH2 0x37C JUMPI DUP1 PUSH4 0xDBD95BA3 EQ PUSH2 0x38F JUMPI DUP1 PUSH4 0xDF7518D2 EQ PUSH2 0x3A2 JUMPI PUSH2 0x1C4 JUMP JUMPDEST DUP1 PUSH4 0xA3B3FE50 GT PUSH2 0xD3 JUMPI DUP1 PUSH4 0xA3B3FE50 EQ PUSH2 0x316 JUMPI DUP1 PUSH4 0xCA15C873 EQ PUSH2 0x336 JUMPI DUP1 PUSH4 0xCA4BC33E EQ PUSH2 0x349 JUMPI DUP1 PUSH4 0xD547741F EQ PUSH2 0x369 JUMPI PUSH2 0x1C4 JUMP JUMPDEST DUP1 PUSH4 0x91D14854 EQ PUSH2 0x2E8 JUMPI DUP1 PUSH4 0x92BA3DA6 EQ PUSH2 0x2FB JUMPI DUP1 PUSH4 0xA217FDDF EQ PUSH2 0x30E JUMPI PUSH2 0x1C4 JUMP JUMPDEST DUP1 PUSH4 0x3F4BA83A GT PUSH2 0x166 JUMPI DUP1 PUSH4 0x75855A5B GT PUSH2 0x140 JUMPI DUP1 PUSH4 0x75855A5B EQ PUSH2 0x28D JUMPI DUP1 PUSH4 0x826CDFF9 EQ PUSH2 0x2AD JUMPI DUP1 PUSH4 0x8456CB59 EQ PUSH2 0x2C0 JUMPI DUP1 PUSH4 0x9010D07C EQ PUSH2 0x2C8 JUMPI PUSH2 0x1C4 JUMP JUMPDEST DUP1 PUSH4 0x3F4BA83A EQ PUSH2 0x25D JUMPI DUP1 PUSH4 0x440E7A7E EQ PUSH2 0x265 JUMPI DUP1 PUSH4 0x5C975ABB EQ PUSH2 0x278 JUMPI PUSH2 0x1C4 JUMP JUMPDEST DUP1 PUSH4 0x1DA03312 GT PUSH2 0x1A2 JUMPI DUP1 PUSH4 0x1DA03312 EQ PUSH2 0x21A JUMPI DUP1 PUSH4 0x248A9CA3 EQ PUSH2 0x222 JUMPI DUP1 PUSH4 0x2F2FF15D EQ PUSH2 0x235 JUMPI DUP1 PUSH4 0x36568ABE EQ PUSH2 0x24A JUMPI PUSH2 0x1C4 JUMP JUMPDEST DUP1 PUSH4 0x19B0F5F EQ PUSH2 0x1C9 JUMPI DUP1 PUSH4 0x1429DB5F EQ PUSH2 0x1F2 JUMPI DUP1 PUSH4 0x150B7A02 EQ PUSH2 0x1FA JUMPI JUMPDEST PUSH1 0x0 DUP1 REVERT JUMPDEST PUSH2 0x1DC PUSH2 0x1D7 CALLDATASIZE PUSH1 0x4 PUSH2 0x1DBD JUMP JUMPDEST PUSH2 0x3EB JUMP JUMPDEST PUSH1 0x40 MLOAD PUSH2 0x1E9 SWAP2 SWAP1 PUSH2 0x201C JUMP JUMPDEST PUSH1 0x40 MLOAD DUP1 SWAP2 SUB SWAP1 RETURN JUMPDEST PUSH2 0x1DC PUSH2 0x403 JUMP JUMPDEST PUSH2 0x20D PUSH2 0x208 CALLDATASIZE PUSH1 0x4 PUSH2 0x1CF8 JUMP JUMPDEST PUSH2 0x427 JUMP JUMPDEST PUSH1 0x40 MLOAD PUSH2 0x1E9 SWAP2 SWAP1 PUSH2 0x2036 JUMP JUMPDEST PUSH2 0x1DC PUSH2 0x438 JUMP JUMPDEST PUSH2 0x1DC PUSH2 0x230 CALLDATASIZE PUSH1 0x4 PUSH2 0x1DBD JUMP JUMPDEST PUSH2 0x44A JUMP JUMPDEST PUSH2 0x248 PUSH2 0x243 CALLDATASIZE PUSH1 0x4 PUSH2 0x1DD5 JUMP JUMPDEST PUSH2 0x45F JUMP JUMPDEST STOP JUMPDEST PUSH2 0x248 PUSH2 0x258 CALLDATASIZE PUSH1 0x4 PUSH2 0x1DD5 JUMP JUMPDEST PUSH2 0x4B0 JUMP JUMPDEST PUSH2 0x248 PUSH2 0x4F2 JUMP JUMPDEST PUSH2 0x248 PUSH2 0x273 CALLDATASIZE PUSH1 0x4 PUSH2 0x1D92 JUMP JUMPDEST PUSH2 0x544 JUMP JUMPDEST PUSH2 0x280 PUSH2 0x624 JUMP JUMPDEST PUSH1 0x40 MLOAD PUSH2 0x1E9 SWAP2 SWAP1 PUSH2 0x2011 JUMP JUMPDEST PUSH2 0x2A0 PUSH2 0x29B CALLDATASIZE PUSH1 0x4 PUSH2 0x1DBD JUMP JUMPDEST PUSH2 0x62D JUMP JUMPDEST PUSH1 0x40 MLOAD PUSH2 0x1E9 SWAP2 SWAP1 PUSH2 0x26D4 JUMP JUMPDEST PUSH2 0x248 PUSH2 0x2BB CALLDATASIZE PUSH1 0x4 PUSH2 0x1E04 JUMP JUMPDEST PUSH2 0x6D0 JUMP JUMPDEST PUSH2 0x248 PUSH2 0x7CC JUMP JUMPDEST PUSH2 0x2DB PUSH2 0x2D6 CALLDATASIZE PUSH1 0x4 PUSH2 0x1E31 JUMP JUMPDEST PUSH2 0x81C JUMP JUMPDEST PUSH1 0x40 MLOAD PUSH2 0x1E9 SWAP2 SWAP1 PUSH2 0x1FBA JUMP JUMPDEST PUSH2 0x280 PUSH2 0x2F6 CALLDATASIZE PUSH1 0x4 PUSH2 0x1DD5 JUMP JUMPDEST PUSH2 0x83D JUMP JUMPDEST PUSH2 0x248 PUSH2 0x309 CALLDATASIZE PUSH1 0x4 PUSH2 0x1D92 JUMP JUMPDEST PUSH2 0x855 JUMP JUMPDEST PUSH2 0x1DC PUSH2 0x915 JUMP JUMPDEST PUSH2 0x329 PUSH2 0x324 CALLDATASIZE PUSH1 0x4 PUSH2 0x1DBD JUMP JUMPDEST PUSH2 0x91A JUMP JUMPDEST PUSH1 0x40 MLOAD PUSH2 0x1E9 SWAP2 SWAP1 PUSH2 0x2751 JUMP JUMPDEST PUSH2 0x1DC PUSH2 0x344 CALLDATASIZE PUSH1 0x4 PUSH2 0x1DBD JUMP JUMPDEST PUSH2 0x95B JUMP JUMPDEST PUSH2 0x35C PUSH2 0x357 CALLDATASIZE PUSH1 0x4 PUSH2 0x1DBD JUMP JUMPDEST PUSH2 0x972 JUMP JUMPDEST PUSH1 0x40 MLOAD PUSH2 0x1E9 SWAP2 SWAP1 PUSH2 0x2667 JUMP JUMPDEST PUSH2 0x248 PUSH2 0x377 CALLDATASIZE PUSH1 0x4 PUSH2 0x1DD5 JUMP JUMPDEST PUSH2 0xA04 JUMP JUMPDEST PUSH2 0x248 PUSH2 0x38A CALLDATASIZE PUSH1 0x4 PUSH2 0x1CC0 JUMP JUMPDEST PUSH2 0xA3E JUMP JUMPDEST PUSH2 0x248 PUSH2 0x39D CALLDATASIZE PUSH1 0x4 PUSH2 0x1E04 JUMP JUMPDEST PUSH2 0xABC JUMP JUMPDEST PUSH2 0x248 PUSH2 0x3B0 CALLDATASIZE PUSH1 0x4 PUSH2 0x1DBD JUMP JUMPDEST PUSH2 0xBA1 JUMP JUMPDEST PUSH2 0x248 PUSH2 0x3C3 CALLDATASIZE PUSH1 0x4 PUSH2 0x1E52 JUMP JUMPDEST PUSH2 0xCDA JUMP JUMPDEST PUSH2 0x1DC PUSH2 0xDFF JUMP JUMPDEST PUSH2 0x248 PUSH2 0xE23 JUMP JUMPDEST PUSH2 0x248 PUSH2 0x3E6 CALLDATASIZE PUSH1 0x4 PUSH2 0x1DBD JUMP JUMPDEST PUSH2 0x14D9 JUMP JUMPDEST PUSH1 0x0 DUP2 DUP2 MSTORE PUSH1 0x18 PUSH1 0x20 MSTORE PUSH1 0x40 SWAP1 KECCAK256 PUSH1 0x1 ADD SLOAD JUMPDEST SWAP2 SWAP1 POP JUMP JUMPDEST PUSH32 0x7F1E4E9F3D9BA0452A25CFEF4CD4C6FFC86158D06ED2F585FA0093E12DEC429C DUP2 JUMP JUMPDEST PUSH4 0xA85BD01 PUSH1 0xE1 SHL SWAP6 SWAP5 POP POP POP POP POP JUMP JUMPDEST PUSH1 0x0 DUP1 MLOAD PUSH1 0x20 PUSH2 0x2AA0 DUP4 CODECOPY DUP2 MLOAD SWAP2 MSTORE DUP2 JUMP JUMPDEST PUSH1 0x0 SWAP1 DUP2 MSTORE PUSH1 0x1 PUSH1 0x20 MSTORE PUSH1 0x40 SWAP1 KECCAK256 PUSH1 0x2 ADD SLOAD SWAP1 JUMP JUMPDEST PUSH1 0x0 DUP3 DUP2 MSTORE PUSH1 0x1 PUSH1 0x20 MSTORE PUSH1 0x40 SWAP1 KECCAK256 PUSH1 0x2 ADD SLOAD PUSH2 0x47D SWAP1 PUSH2 0x2F6 PUSH2 0x163A JUMP JUMPDEST PUSH2 0x4A2 JUMPI PUSH1 0x40 MLOAD PUSH3 0x461BCD PUSH1 0xE5 SHL DUP2 MSTORE PUSH1 0x4 ADD PUSH2 0x499 SWAP1 PUSH2 0x20D4 JUMP JUMPDEST PUSH1 0x40 MLOAD DUP1 SWAP2 SUB SWAP1 REVERT JUMPDEST PUSH2 0x4AC DUP3 DUP3 PUSH2 0x163E JUMP JUMPDEST POP POP JUMP JUMPDEST PUSH2 0x4B8 PUSH2 0x163A JUMP JUMPDEST PUSH1 0x1 PUSH1 0x1 PUSH1 0xA0 SHL SUB AND DUP2 PUSH1 0x1 PUSH1 0x1 PUSH1 0xA0 SHL SUB AND EQ PUSH2 0x4E8 JUMPI PUSH1 0x40 MLOAD PUSH3 0x461BCD PUSH1 0xE5 SHL DUP2 MSTORE PUSH1 0x4 ADD PUSH2 0x499 SWAP1 PUSH2 0x25BB JUMP JUMPDEST PUSH2 0x4AC DUP3 DUP3 PUSH2 0x16A7 JUMP JUMPDEST PUSH2 0x51E PUSH32 0x65D7A28E3265B37A6474929F336521B332C1681B933F6CB9F3376673440D862A PUSH2 0x2F6 PUSH2 0x163A JUMP JUMPDEST PUSH2 0x53A JUMPI PUSH1 0x40 MLOAD PUSH3 0x461BCD PUSH1 0xE5 SHL DUP2 MSTORE PUSH1 0x4 ADD PUSH2 0x499 SWAP1 PUSH2 0x2270 JUMP JUMPDEST PUSH2 0x542 PUSH2 0x1710 JUMP JUMPDEST JUMP JUMPDEST PUSH1 0x2 PUSH1 0x0 SLOAD EQ ISZERO PUSH2 0x567 JUMPI PUSH1 0x40 MLOAD PUSH3 0x461BCD PUSH1 0xE5 SHL DUP2 MSTORE PUSH1 0x4 ADD PUSH2 0x499 SWAP1 PUSH2 0x24EF JUMP JUMPDEST PUSH1 0x2 PUSH1 0x0 SSTORE PUSH2 0x598 PUSH32 0x7F1E4E9F3D9BA0452A25CFEF4CD4C6FFC86158D06ED2F585FA0093E12DEC429C PUSH2 0x2F6 PUSH2 0x163A JUMP JUMPDEST PUSH2 0x5B4 JUMPI PUSH1 0x40 MLOAD PUSH3 0x461BCD PUSH1 0xE5 SHL DUP2 MSTORE PUSH1 0x4 ADD PUSH2 0x499 SWAP1 PUSH2 0x22E0 JUMP JUMPDEST PUSH1 0x9 SLOAD PUSH1 0x40 MLOAD PUSH4 0x21421707 PUSH1 0xE1 SHL DUP2 MSTORE DUP3 SWAP2 PUSH1 0x1 PUSH1 0x1 PUSH1 0xA0 SHL SUB AND SWAP1 PUSH4 0x42842E0E SWAP1 PUSH2 0x5E8 SWAP1 ADDRESS SWAP1 DUP8 SWAP1 DUP7 SWAP1 PUSH1 0x4 ADD PUSH2 0x1FCE JUMP JUMPDEST PUSH1 0x0 PUSH1 0x40 MLOAD DUP1 DUP4 SUB DUP2 PUSH1 0x0 DUP8 DUP1 EXTCODESIZE ISZERO DUP1 ISZERO PUSH2 0x602 JUMPI PUSH1 0x0 DUP1 REVERT JUMPDEST POP GAS CALL ISZERO DUP1 ISZERO PUSH2 0x616 JUMPI RETURNDATASIZE PUSH1 0x0 DUP1 RETURNDATACOPY RETURNDATASIZE PUSH1 0x0 REVERT JUMPDEST POP POP PUSH1 0x1 PUSH1 0x0 SSTORE POP POP POP POP POP JUMP JUMPDEST PUSH1 0x2 SLOAD PUSH1 0xFF AND SWAP1 JUMP JUMPDEST PUSH2 0x635 PUSH2 0x1B81 JUMP JUMPDEST POP PUSH1 0x0 SWAP1 DUP2 MSTORE PUSH1 0x19 PUSH1 0x20 SWAP1 DUP2 MSTORE PUSH1 0x40 SWAP2 DUP3 SWAP1 KECCAK256 DUP3 MLOAD PUSH2 0x100 DUP1 DUP3 ADD DUP6 MSTORE SWAP2 SLOAD PUSH1 0xFF DUP1 DUP3 AND DUP4 MSTORE SWAP3 DUP2 DIV DUP4 AND SWAP4 DUP3 ADD SWAP4 SWAP1 SWAP4 MSTORE PUSH3 0x10000 DUP4 DIV DUP3 AND SWAP4 DUP2 ADD SWAP4 SWAP1 SWAP4 MSTORE PUSH4 0x1000000 DUP3 DIV AND PUSH1 0x60 DUP4 ADD MSTORE PUSH5 0x100000000 DUP2 DIV PUSH2 0xFFFF SWAP1 DUP2 AND PUSH1 0x80 DUP5 ADD MSTORE PUSH7 0x1000000000000 DUP3 DIV AND PUSH1 0xA0 DUP4 ADD MSTORE PUSH1 0x1 PUSH1 0x40 SHL DUP2 DIV PUSH4 0xFFFFFFFF AND PUSH1 0xC0 DUP4 ADD MSTORE PUSH1 0x1 PUSH1 0x60 SHL SWAP1 DIV PUSH1 0x1 PUSH1 0x1 PUSH1 0xA0 SHL SUB AND PUSH1 0xE0 DUP3 ADD MSTORE SWAP1 JUMP JUMPDEST PUSH1 0x2 PUSH1 0x0 SLOAD EQ ISZERO PUSH2 0x6F3 JUMPI PUSH1 0x40 MLOAD PUSH3 0x461BCD PUSH1 0xE5 SHL DUP2 MSTORE PUSH1 0x4 ADD PUSH2 0x499 SWAP1 PUSH2 0x24EF JUMP JUMPDEST PUSH1 0x2 PUSH1 0x0 SSTORE PUSH2 0x700 PUSH2 0x624 JUMP JUMPDEST ISZERO PUSH2 0x71D JUMPI PUSH1 0x40 MLOAD PUSH3 0x461BCD PUSH1 0xE5 SHL DUP2 MSTORE PUSH1 0x4 ADD PUSH2 0x499 SWAP1 PUSH2 0x22B6 JUMP JUMPDEST PUSH1 0x0 PUSH2 0x728 DUP4 PUSH2 0x177E JUMP JUMPDEST SWAP1 POP PUSH1 0x0 PUSH2 0x741 PUSH2 0x737 PUSH2 0x163A JUMP JUMPDEST DUP4 PUSH1 0x80 ADD MLOAD PUSH2 0x1811 JUMP JUMPDEST SWAP1 POP PUSH2 0x750 DUP3 PUSH1 0x0 ADD MLOAD PUSH2 0x18B3 JUMP JUMPDEST PUSH1 0xFF AND PUSH1 0xAA EQ PUSH2 0x772 JUMPI PUSH1 0x40 MLOAD PUSH3 0x461BCD PUSH1 0xE5 SHL DUP2 MSTORE PUSH1 0x4 ADD PUSH2 0x499 SWAP1 PUSH2 0x2336 JUMP JUMPDEST PUSH1 0x0 DUP5 DUP2 MSTORE PUSH1 0x18 PUSH1 0x20 SWAP1 DUP2 MSTORE PUSH1 0x40 SWAP1 SWAP2 KECCAK256 SLOAD SWAP1 DUP3 ADD MLOAD EQ PUSH2 0x7A5 JUMPI PUSH1 0x40 MLOAD PUSH3 0x461BCD PUSH1 0xE5 SHL DUP2 MSTORE PUSH1 0x4 ADD PUSH2 0x499 SWAP1 PUSH2 0x23C5 JUMP JUMPDEST PUSH1 0x0 DUP5 DUP2 MSTORE PUSH1 0x19 PUSH1 0x20 MSTORE PUSH1 0x40 SWAP1 KECCAK256 DUP4 SWAP1 PUSH2 0x7BF DUP3 DUP3 PUSH2 0x28B8 JUMP JUMPDEST POP POP PUSH1 0x1 PUSH1 0x0 SSTORE POP POP POP POP JUMP JUMPDEST PUSH2 0x7F8 PUSH32 0x65D7A28E3265B37A6474929F336521B332C1681B933F6CB9F3376673440D862A PUSH2 0x2F6 PUSH2 0x163A JUMP JUMPDEST PUSH2 0x814 JUMPI PUSH1 0x40 MLOAD PUSH3 0x461BCD PUSH1 0xE5 SHL DUP2 MSTORE PUSH1 0x4 ADD PUSH2 0x499 SWAP1 PUSH2 0x2270 JUMP JUMPDEST PUSH2 0x542 PUSH2 0x1902 JUMP JUMPDEST PUSH1 0x0 DUP3 DUP2 MSTORE PUSH1 0x1 PUSH1 0x20 MSTORE PUSH1 0x40 DUP2 KECCAK256 PUSH2 0x834 SWAP1 DUP4 PUSH2 0x195D JUMP JUMPDEST SWAP1 POP JUMPDEST SWAP3 SWAP2 POP POP JUMP JUMPDEST PUSH1 0x0 DUP3 DUP2 MSTORE PUSH1 0x1 PUSH1 0x20 MSTORE PUSH1 0x40 DUP2 KECCAK256 PUSH2 0x834 SWAP1 DUP4 PUSH2 0x1969 JUMP JUMPDEST PUSH2 0x86F PUSH1 0x0 DUP1 MLOAD PUSH1 0x20 PUSH2 0x2AA0 DUP4 CODECOPY DUP2 MLOAD SWAP2 MSTORE PUSH2 0x2F6 PUSH2 0x163A JUMP JUMPDEST PUSH2 0x88B JUMPI PUSH1 0x40 MLOAD PUSH3 0x461BCD PUSH1 0xE5 SHL DUP2 MSTORE PUSH1 0x4 ADD PUSH2 0x499 SWAP1 PUSH2 0x208D JUMP JUMPDEST PUSH1 0x2 PUSH1 0x0 SLOAD EQ ISZERO PUSH2 0x8AE JUMPI PUSH1 0x40 MLOAD PUSH3 0x461BCD PUSH1 0xE5 SHL DUP2 MSTORE PUSH1 0x4 ADD PUSH2 0x499 SWAP1 PUSH2 0x24EF JUMP JUMPDEST PUSH1 0x2 PUSH1 0x0 SSTORE PUSH1 0xB SLOAD PUSH1 0x40 MLOAD PUSH4 0x21421707 PUSH1 0xE1 SHL DUP2 MSTORE PUSH1 0x1 PUSH1 0x1 PUSH1 0xA0 SHL SUB SWAP1 SWAP2 AND SWAP1 PUSH4 0x42842E0E SWAP1 PUSH2 0x8E7 SWAP1 ADDRESS SWAP1 DUP7 SWAP1 DUP7 SWAP1 PUSH1 0x4 ADD PUSH2 0x1FCE JUMP JUMPDEST PUSH1 0x0 PUSH1 0x40 MLOAD DUP1 DUP4 SUB DUP2 PUSH1 0x0 DUP8 DUP1 EXTCODESIZE ISZERO DUP1 ISZERO PUSH2 0x901 JUMPI PUSH1 0x0 DUP1 REVERT JUMPDEST POP GAS CALL ISZERO DUP1 ISZERO PUSH2 0x7BF JUMPI RETURNDATASIZE PUSH1 0x0 DUP1 RETURNDATACOPY RETURNDATASIZE PUSH1 0x0 REVERT JUMPDEST PUSH1 0x0 DUP2 JUMP JUMPDEST PUSH2 0x922 PUSH2 0x1BC5 JUMP JUMPDEST POP PUSH1 0x0 SWAP1 DUP2 MSTORE PUSH1 0x18 PUSH1 0x20 SWAP1 DUP2 MSTORE PUSH1 0x40 SWAP2 DUP3 SWAP1 KECCAK256 DUP3 MLOAD PUSH1 0x60 DUP2 ADD DUP5 MSTORE DUP2 SLOAD DUP2 MSTORE PUSH1 0x1 DUP3 ADD SLOAD SWAP3 DUP2 ADD SWAP3 SWAP1 SWAP3 MSTORE PUSH1 0x2 ADD SLOAD SWAP2 DUP2 ADD SWAP2 SWAP1 SWAP2 MSTORE SWAP1 JUMP JUMPDEST PUSH1 0x0 DUP2 DUP2 MSTORE PUSH1 0x1 PUSH1 0x20 MSTORE PUSH1 0x40 DUP2 KECCAK256 PUSH2 0x837 SWAP1 PUSH2 0x197E JUMP JUMPDEST PUSH2 0x97A PUSH2 0x1B81 JUMP JUMPDEST POP PUSH1 0x0 SWAP1 DUP2 MSTORE PUSH1 0x1A PUSH1 0x20 SWAP1 DUP2 MSTORE PUSH1 0x40 SWAP2 DUP3 SWAP1 KECCAK256 DUP3 MLOAD PUSH2 0x100 DUP2 ADD DUP5 MSTORE DUP2 SLOAD PUSH4 0xFFFFFFFF DUP1 DUP3 AND DUP4 MSTORE PUSH5 0x100000000 DUP3 DIV DUP2 AND SWAP5 DUP4 ADD SWAP5 SWAP1 SWAP5 MSTORE PUSH1 0x1 PUSH1 0x40 SHL DUP2 DIV SWAP1 SWAP4 AND SWAP4 DUP2 ADD SWAP4 SWAP1 SWAP4 MSTORE PUSH1 0x1 PUSH1 0x60 SHL SWAP1 SWAP2 DIV PUSH1 0x1 PUSH1 0x1 PUSH1 0xA0 SHL SUB AND PUSH1 0x60 DUP4 ADD MSTORE PUSH1 0x1 DUP2 ADD SLOAD PUSH1 0x80 DUP4 ADD MSTORE PUSH1 0x2 DUP2 ADD SLOAD PUSH1 0xA0 DUP4 ADD MSTORE PUSH1 0x3 DUP2 ADD SLOAD PUSH1 0xC0 DUP4 ADD MSTORE PUSH1 0x4 ADD SLOAD PUSH1 0xE0 DUP3 ADD MSTORE SWAP1 JUMP JUMPDEST PUSH1 0x0 DUP3 DUP2 MSTORE PUSH1 0x1 PUSH1 0x20 MSTORE PUSH1 0x40 SWAP1 KECCAK256 PUSH1 0x2 ADD SLOAD PUSH2 0xA22 SWAP1 PUSH2 0x2F6 PUSH2 0x163A JUMP JUMPDEST PUSH2 0x4E8 JUMPI PUSH1 0x40 MLOAD PUSH3 0x461BCD PUSH1 0xE5 SHL DUP2 MSTORE PUSH1 0x4 ADD PUSH2 0x499 SWAP1 PUSH2 0x2220 JUMP JUMPDEST PUSH2 0xA58 PUSH1 0x0 DUP1 MLOAD PUSH1 0x20 PUSH2 0x2AA0 DUP4 CODECOPY DUP2 MLOAD SWAP2 MSTORE PUSH2 0x2F6 PUSH2 0x163A JUMP JUMPDEST PUSH2 0xA74 JUMPI PUSH1 0x40 MLOAD PUSH3 0x461BCD PUSH1 0xE5 SHL DUP2 MSTORE PUSH1 0x4 ADD PUSH2 0x499 SWAP1 PUSH2 0x208D JUMP JUMPDEST PUSH1 0x1 PUSH1 0x1 PUSH1 0xA0 SHL SUB DUP2 AND PUSH2 0xA9A JUMPI PUSH1 0x40 MLOAD PUSH3 0x461BCD PUSH1 0xE5 SHL DUP2 MSTORE PUSH1 0x4 ADD PUSH2 0x499 SWAP1 PUSH2 0x2379 JUMP JUMPDEST PUSH1 0x3 DUP1 SLOAD PUSH1 0x1 PUSH1 0x1 PUSH1 0xA0 SHL SUB NOT AND PUSH1 0x1 PUSH1 0x1 PUSH1 0xA0 SHL SUB SWAP3 SWAP1 SWAP3 AND SWAP2 SWAP1 SWAP2 OR SWAP1 SSTORE JUMP JUMPDEST PUSH1 0x2 PUSH1 0x0 SLOAD EQ ISZERO PUSH2 0xADF JUMPI PUSH1 0x40 MLOAD PUSH3 0x461BCD PUSH1 0xE5 SHL DUP2 MSTORE PUSH1 0x4 ADD PUSH2 0x499 SWAP1 PUSH2 0x24EF JUMP JUMPDEST PUSH1 0x2 PUSH1 0x0 SSTORE PUSH2 0xAEC PUSH2 0x624 JUMP JUMPDEST ISZERO PUSH2 0xB09 JUMPI PUSH1 0x40 MLOAD PUSH3 0x461BCD PUSH1 0xE5 SHL DUP2 MSTORE PUSH1 0x4 ADD PUSH2 0x499 SWAP1 PUSH2 0x22B6 JUMP JUMPDEST PUSH1 0x0 PUSH2 0xB14 DUP4 PUSH2 0x177E JUMP JUMPDEST SWAP1 POP PUSH1 0x0 PUSH2 0xB23 PUSH2 0x737 PUSH2 0x163A JUMP JUMPDEST SWAP1 POP PUSH2 0xB32 DUP3 PUSH1 0x0 ADD MLOAD PUSH2 0x18B3 JUMP JUMPDEST PUSH1 0xFF AND PUSH1 0xAA EQ PUSH2 0xB54 JUMPI PUSH1 0x40 MLOAD PUSH3 0x461BCD PUSH1 0xE5 SHL DUP2 MSTORE PUSH1 0x4 ADD PUSH2 0x499 SWAP1 PUSH2 0x2336 JUMP JUMPDEST PUSH1 0x0 DUP5 DUP2 MSTORE PUSH1 0x18 PUSH1 0x20 SWAP1 DUP2 MSTORE PUSH1 0x40 SWAP1 SWAP2 KECCAK256 SLOAD SWAP1 DUP3 ADD MLOAD EQ PUSH2 0xB87 JUMPI PUSH1 0x40 MLOAD PUSH3 0x461BCD PUSH1 0xE5 SHL DUP2 MSTORE PUSH1 0x4 ADD PUSH2 0x499 SWAP1 PUSH2 0x23C5 JUMP JUMPDEST PUSH1 0x0 DUP5 DUP2 MSTORE PUSH1 0x1A PUSH1 0x20 MSTORE PUSH1 0x40 SWAP1 KECCAK256 DUP4 SWAP1 PUSH2 0x7BF DUP3 DUP3 PUSH2 0x282A JUMP JUMPDEST PUSH1 0x2 PUSH1 0x0 SLOAD EQ ISZERO PUSH2 0xBC4 JUMPI PUSH1 0x40 MLOAD PUSH3 0x461BCD PUSH1 0xE5 SHL DUP2 MSTORE PUSH1 0x4 ADD PUSH2 0x499 SWAP1 PUSH2 0x24EF JUMP JUMPDEST PUSH1 0x2 PUSH1 0x0 SSTORE PUSH2 0xBD1 PUSH2 0x624 JUMP JUMPDEST ISZERO PUSH2 0xBEE JUMPI PUSH1 0x40 MLOAD PUSH3 0x461BCD PUSH1 0xE5 SHL DUP2 MSTORE PUSH1 0x4 ADD PUSH2 0x499 SWAP1 PUSH2 0x22B6 JUMP JUMPDEST PUSH1 0x0 DUP2 DUP2 MSTORE PUSH1 0x18 PUSH1 0x20 MSTORE PUSH1 0x40 SWAP1 KECCAK256 PUSH1 0x2 ADD SLOAD TIMESTAMP GT PUSH2 0xC1E JUMPI PUSH1 0x40 MLOAD PUSH3 0x461BCD PUSH1 0xE5 SHL DUP2 MSTORE PUSH1 0x4 ADD PUSH2 0x499 SWAP1 PUSH2 0x216E JUMP JUMPDEST PUSH1 0x0 DUP2 DUP2 MSTORE PUSH1 0x19 PUSH1 0x20 MSTORE PUSH1 0x40 SWAP1 KECCAK256 SLOAD PUSH1 0xC8 PUSH1 0xFF SWAP1 SWAP2 AND LT PUSH2 0xC51 JUMPI PUSH1 0x40 MLOAD PUSH3 0x461BCD PUSH1 0xE5 SHL DUP2 MSTORE PUSH1 0x4 ADD PUSH2 0x499 SWAP1 PUSH2 0x2548 JUMP JUMPDEST PUSH1 0x0 DUP2 DUP2 MSTORE PUSH1 0x18 PUSH1 0x20 MSTORE PUSH1 0x40 DUP1 DUP3 KECCAK256 DUP3 DUP2 SSTORE PUSH1 0x1 DUP2 ADD DUP4 SWAP1 SSTORE PUSH1 0x2 ADD SWAP2 SWAP1 SWAP2 SSTORE PUSH1 0x3 SLOAD SWAP1 MLOAD PUSH4 0x3A38454B PUSH1 0xE2 SHL DUP2 MSTORE PUSH1 0x1 PUSH1 0x1 PUSH1 0xA0 SHL SUB SWAP1 SWAP2 AND SWAP1 PUSH4 0xE8E1152C SWAP1 PUSH2 0xCA0 SWAP1 DUP5 SWAP1 PUSH1 0x4 ADD PUSH2 0x201C JUMP JUMPDEST PUSH1 0x0 PUSH1 0x40 MLOAD DUP1 DUP4 SUB DUP2 PUSH1 0x0 DUP8 DUP1 EXTCODESIZE ISZERO DUP1 ISZERO PUSH2 0xCBA JUMPI PUSH1 0x0 DUP1 REVERT JUMPDEST POP GAS CALL ISZERO DUP1 ISZERO PUSH2 0xCCE JUMPI RETURNDATASIZE PUSH1 0x0 DUP1 RETURNDATACOPY RETURNDATASIZE PUSH1 0x0 REVERT JUMPDEST POP POP PUSH1 0x1 PUSH1 0x0 SSTORE POP POP POP JUMP JUMPDEST PUSH1 0x2 PUSH1 0x0 SLOAD EQ ISZERO PUSH2 0xCFD JUMPI PUSH1 0x40 MLOAD PUSH3 0x461BCD PUSH1 0xE5 SHL DUP2 MSTORE PUSH1 0x4 ADD PUSH2 0x499 SWAP1 PUSH2 0x24EF JUMP JUMPDEST PUSH1 0x2 PUSH1 0x0 SSTORE PUSH2 0xD0A PUSH2 0x624 JUMP JUMPDEST ISZERO PUSH2 0xD27 JUMPI PUSH1 0x40 MLOAD PUSH3 0x461BCD PUSH1 0xE5 SHL DUP2 MSTORE PUSH1 0x4 ADD PUSH2 0x499 SWAP1 PUSH2 0x22B6 JUMP JUMPDEST PUSH1 0x0 PUSH2 0xD32 DUP6 PUSH2 0x177E JUMP JUMPDEST SWAP1 POP PUSH1 0x0 PUSH2 0xD41 PUSH2 0x737 PUSH2 0x163A JUMP JUMPDEST PUSH1 0x20 DUP2 ADD MLOAD DUP2 MLOAD SWAP2 SWAP3 POP SWAP1 PUSH1 0xFF AND PUSH1 0x3 EQ PUSH2 0xD6E JUMPI PUSH1 0x40 MLOAD PUSH3 0x461BCD PUSH1 0xE5 SHL DUP2 MSTORE PUSH1 0x4 ADD PUSH2 0x499 SWAP1 PUSH2 0x21C3 JUMP JUMPDEST PUSH1 0x0 DUP8 DUP2 MSTORE PUSH1 0x18 PUSH1 0x20 MSTORE PUSH1 0x40 SWAP1 DUP2 SWAP1 KECCAK256 DUP3 DUP2 SSTORE PUSH1 0x1 DUP2 ADD DUP8 SWAP1 SSTORE PUSH1 0x2 ADD DUP6 SWAP1 SSTORE PUSH1 0x3 SLOAD SWAP1 MLOAD PUSH4 0x16BF0F2D PUSH1 0xE2 SHL DUP2 MSTORE PUSH1 0x1 PUSH1 0x1 PUSH1 0xA0 SHL SUB SWAP1 SWAP2 AND SWAP1 PUSH4 0x5AFC3CB4 SWAP1 PUSH2 0xDBF SWAP1 DUP11 SWAP1 DUP11 SWAP1 PUSH1 0x4 ADD PUSH2 0x2025 JUMP JUMPDEST PUSH1 0x0 PUSH1 0x40 MLOAD DUP1 DUP4 SUB DUP2 PUSH1 0x0 DUP8 DUP1 EXTCODESIZE ISZERO DUP1 ISZERO PUSH2 0xDD9 JUMPI PUSH1 0x0 DUP1 REVERT JUMPDEST POP GAS CALL ISZERO DUP1 ISZERO PUSH2 0xDED JUMPI RETURNDATASIZE PUSH1 0x0 DUP1 RETURNDATACOPY RETURNDATASIZE PUSH1 0x0 REVERT JUMPDEST POP POP PUSH1 0x1 PUSH1 0x0 SSTORE POP POP POP POP POP POP POP POP POP JUMP JUMPDEST PUSH32 0x65D7A28E3265B37A6474929F336521B332C1681B933F6CB9F3376673440D862A DUP2 JUMP JUMPDEST PUSH1 0x2 PUSH1 0x0 SLOAD EQ ISZERO PUSH2 0xE46 JUMPI PUSH1 0x40 MLOAD PUSH3 0x461BCD PUSH1 0xE5 SHL DUP2 MSTORE PUSH1 0x4 ADD PUSH2 0x499 SWAP1 PUSH2 0x24EF JUMP JUMPDEST PUSH1 0x2 PUSH1 0x0 SSTORE PUSH2 0xE65 PUSH1 0x0 DUP1 MLOAD PUSH1 0x20 PUSH2 0x2AA0 DUP4 CODECOPY DUP2 MLOAD SWAP2 MSTORE PUSH2 0x2F6 PUSH2 0x163A JUMP JUMPDEST PUSH2 0xE81 JUMPI PUSH1 0x40 MLOAD PUSH3 0x461BCD PUSH1 0xE5 SHL DUP2 MSTORE PUSH1 0x4 ADD PUSH2 0x499 SWAP1 PUSH2 0x208D JUMP JUMPDEST PUSH1 0x3 SLOAD PUSH1 0x40 MLOAD PUSH4 0x63B8D4C1 PUSH1 0xE1 SHL DUP2 MSTORE PUSH1 0x1 PUSH1 0x1 PUSH1 0xA0 SHL SUB SWAP1 SWAP2 AND SWAP1 PUSH4 0xC771A982 SWAP1 PUSH2 0xEAF SWAP1 PUSH1 0x4 ADD PUSH2 0x23A5 JUMP JUMPDEST PUSH1 0x20 PUSH1 0x40 MLOAD DUP1 DUP4 SUB DUP2 DUP7 DUP1 EXTCODESIZE ISZERO DUP1 ISZERO PUSH2 0xEC7 JUMPI PUSH1 0x0 DUP1 REVERT JUMPDEST POP GAS STATICCALL ISZERO DUP1 ISZERO PUSH2 0xEDB JUMPI RETURNDATASIZE PUSH1 0x0 DUP1 RETURNDATACOPY RETURNDATASIZE PUSH1 0x0 REVERT JUMPDEST POP POP POP POP PUSH1 0x40 MLOAD RETURNDATASIZE PUSH1 0x1F NOT PUSH1 0x1F DUP3 ADD AND DUP3 ADD DUP1 PUSH1 0x40 MSTORE POP DUP2 ADD SWAP1 PUSH2 0xEFF SWAP2 SWAP1 PUSH2 0x1CDC JUMP JUMPDEST PUSH1 0xA DUP1 SLOAD PUSH1 0x1 PUSH1 0x1 PUSH1 0xA0 SHL SUB SWAP3 DUP4 AND PUSH1 0x1 PUSH1 0x1 PUSH1 0xA0 SHL SUB NOT SWAP2 DUP3 AND OR SWAP2 DUP3 SWAP1 SSTORE PUSH1 0xB DUP1 SLOAD SWAP1 SWAP2 AND SWAP2 DUP4 AND SWAP2 SWAP1 SWAP2 OR SWAP1 SSTORE PUSH1 0x3 SLOAD PUSH1 0x40 MLOAD PUSH4 0x63B8D4C1 PUSH1 0xE1 SHL DUP2 MSTORE SWAP2 AND SWAP1 PUSH4 0xC771A982 SWAP1 PUSH2 0xF54 SWAP1 PUSH1 0x4 ADD PUSH2 0x259B JUMP JUMPDEST PUSH1 0x20 PUSH1 0x40 MLOAD DUP1 DUP4 SUB DUP2 DUP7 DUP1 EXTCODESIZE ISZERO DUP1 ISZERO PUSH2 0xF6C JUMPI PUSH1 0x0 DUP1 REVERT JUMPDEST POP GAS STATICCALL ISZERO DUP1 ISZERO PUSH2 0xF80 JUMPI RETURNDATASIZE PUSH1 0x0 DUP1 RETURNDATACOPY RETURNDATASIZE PUSH1 0x0 REVERT JUMPDEST POP POP POP POP PUSH1 0x40 MLOAD RETURNDATASIZE PUSH1 0x1F NOT PUSH1 0x1F DUP3 ADD AND DUP3 ADD DUP1 PUSH1 0x40 MSTORE POP DUP2 ADD SWAP1 PUSH2 0xFA4 SWAP2 SWAP1 PUSH2 0x1CDC JUMP JUMPDEST PUSH1 0x4 DUP1 SLOAD PUSH1 0x1 PUSH1 0x1 PUSH1 0xA0 SHL SUB SWAP3 DUP4 AND PUSH1 0x1 PUSH1 0x1 PUSH1 0xA0 SHL SUB NOT SWAP2 DUP3 AND OR DUP1 DUP4 SSTORE PUSH1 0x5 DUP1 SLOAD SWAP1 SWAP3 AND SWAP1 DUP5 AND OR SWAP1 SSTORE PUSH1 0x3 SLOAD PUSH1 0x40 MLOAD PUSH4 0x63B8D4C1 PUSH1 0xE1 SHL DUP2 MSTORE SWAP3 AND SWAP2 PUSH4 0xC771A982 SWAP2 PUSH2 0xFF3 SWAP2 ADD PUSH2 0x2526 JUMP JUMPDEST PUSH1 0x20 PUSH1 0x40 MLOAD DUP1 DUP4 SUB DUP2 DUP7 DUP1 EXTCODESIZE ISZERO DUP1 ISZERO PUSH2 0x100B JUMPI PUSH1 0x0 DUP1 REVERT JUMPDEST POP GAS STATICCALL ISZERO DUP1 ISZERO PUSH2 0x101F JUMPI RETURNDATASIZE PUSH1 0x0 DUP1 RETURNDATACOPY RETURNDATASIZE PUSH1 0x0 REVERT JUMPDEST POP POP POP POP PUSH1 0x40 MLOAD RETURNDATASIZE PUSH1 0x1F NOT PUSH1 0x1F DUP3 ADD AND DUP3 ADD DUP1 PUSH1 0x40 MSTORE POP DUP2 ADD SWAP1 PUSH2 0x1043 SWAP2 SWAP1 PUSH2 0x1CDC JUMP JUMPDEST PUSH1 0x6 DUP1 SLOAD PUSH1 0x1 PUSH1 0x1 PUSH1 0xA0 SHL SUB SWAP3 DUP4 AND PUSH1 0x1 PUSH1 0x1 PUSH1 0xA0 SHL SUB NOT SWAP2 DUP3 AND OR SWAP2 DUP3 SWAP1 SSTORE PUSH1 0x7 DUP1 SLOAD SWAP1 SWAP2 AND SWAP2 DUP4 AND SWAP2 SWAP1 SWAP2 OR SWAP1 SSTORE PUSH1 0x3 SLOAD PUSH1 0x40 MLOAD PUSH4 0x63B8D4C1 PUSH1 0xE1 SHL DUP2 MSTORE SWAP2 AND SWAP1 PUSH4 0xC771A982 SWAP1 PUSH2 0x1098 SWAP1 PUSH1 0x4 ADD PUSH2 0x2317 JUMP JUMPDEST PUSH1 0x20 PUSH1 0x40 MLOAD DUP1 DUP4 SUB DUP2 DUP7 DUP1 EXTCODESIZE ISZERO DUP1 ISZERO PUSH2 0x10B0 JUMPI PUSH1 0x0 DUP1 REVERT JUMPDEST POP GAS STATICCALL ISZERO DUP1 ISZERO PUSH2 0x10C4 JUMPI RETURNDATASIZE PUSH1 0x0 DUP1 RETURNDATACOPY RETURNDATASIZE PUSH1 0x0 REVERT JUMPDEST POP POP POP POP PUSH1 0x40 MLOAD RETURNDATASIZE PUSH1 0x1F NOT PUSH1 0x1F DUP3 ADD AND DUP3 ADD DUP1 PUSH1 0x40 MSTORE POP DUP2 ADD SWAP1 PUSH2 0x10E8 SWAP2 SWAP1 PUSH2 0x1CDC JUMP JUMPDEST PUSH1 0x8 DUP1 SLOAD PUSH1 0x1 PUSH1 0x1 PUSH1 0xA0 SHL SUB SWAP3 DUP4 AND PUSH1 0x1 PUSH1 0x1 PUSH1 0xA0 SHL SUB NOT SWAP2 DUP3 AND OR SWAP2 DUP3 SWAP1 SSTORE PUSH1 0x9 DUP1 SLOAD SWAP1 SWAP2 AND SWAP2 DUP4 AND SWAP2 SWAP1 SWAP2 OR SWAP1 SSTORE PUSH1 0x3 SLOAD PUSH1 0x40 MLOAD PUSH4 0x63B8D4C1 PUSH1 0xE1 SHL DUP2 MSTORE SWAP2 AND SWAP1 PUSH4 0xC771A982 SWAP1 PUSH2 0x113D SWAP1 PUSH1 0x4 ADD PUSH2 0x2492 JUMP JUMPDEST PUSH1 0x20 PUSH1 0x40 MLOAD DUP1 DUP4 SUB DUP2 DUP7 DUP1 EXTCODESIZE ISZERO DUP1 ISZERO PUSH2 0x1155 JUMPI PUSH1 0x0 DUP1 REVERT JUMPDEST POP GAS STATICCALL ISZERO DUP1 ISZERO PUSH2 0x1169 JUMPI RETURNDATASIZE PUSH1 0x0 DUP1 RETURNDATACOPY RETURNDATASIZE PUSH1 0x0 REVERT JUMPDEST POP POP POP POP PUSH1 0x40 MLOAD RETURNDATASIZE PUSH1 0x1F NOT PUSH1 0x1F DUP3 ADD AND DUP3 ADD DUP1 PUSH1 0x40 MSTORE POP DUP2 ADD SWAP1 PUSH2 0x118D SWAP2 SWAP1 PUSH2 0x1CDC JUMP JUMPDEST PUSH1 0xC DUP1 SLOAD PUSH1 0x1 PUSH1 0x1 PUSH1 0xA0 SHL SUB SWAP3 DUP4 AND PUSH1 0x1 PUSH1 0x1 PUSH1 0xA0 SHL SUB NOT SWAP2 DUP3 AND OR SWAP2 DUP3 SWAP1 SSTORE PUSH1 0xD DUP1 SLOAD SWAP1 SWAP2 AND SWAP2 DUP4 AND SWAP2 SWAP1 SWAP2 OR SWAP1 SSTORE PUSH1 0x3 SLOAD PUSH1 0x40 MLOAD PUSH4 0x63B8D4C1 PUSH1 0xE1 SHL DUP2 MSTORE SWAP2 AND SWAP1 PUSH4 0xC771A982 SWAP1 PUSH2 0x11E2 SWAP1 PUSH1 0x4 ADD PUSH2 0x24B2 JUMP JUMPDEST PUSH1 0x20 PUSH1 0x40 MLOAD DUP1 DUP4 SUB DUP2 DUP7 DUP1 EXTCODESIZE ISZERO DUP1 ISZERO PUSH2 0x11FA JUMPI PUSH1 0x0 DUP1 REVERT JUMPDEST POP GAS STATICCALL ISZERO DUP1 ISZERO PUSH2 0x120E JUMPI RETURNDATASIZE PUSH1 0x0 DUP1 RETURNDATACOPY RETURNDATASIZE PUSH1 0x0 REVERT JUMPDEST POP POP POP POP PUSH1 0x40 MLOAD RETURNDATASIZE PUSH1 0x1F NOT PUSH1 0x1F DUP3 ADD AND DUP3 ADD DUP1 PUSH1 0x40 MSTORE POP DUP2 ADD SWAP1 PUSH2 0x1232 SWAP2 SWAP1 PUSH2 0x1CDC JUMP JUMPDEST PUSH1 0xE DUP1 SLOAD PUSH1 0x1 PUSH1 0x1 PUSH1 0xA0 SHL SUB SWAP3 DUP4 AND PUSH1 0x1 PUSH1 0x1 PUSH1 0xA0 SHL SUB NOT SWAP2 DUP3 AND OR SWAP2 DUP3 SWAP1 SSTORE PUSH1 0xF DUP1 SLOAD SWAP1 SWAP2 AND SWAP2 DUP4 AND SWAP2 SWAP1 SWAP2 OR SWAP1 SSTORE PUSH1 0x3 SLOAD PUSH1 0x40 MLOAD PUSH4 0x63B8D4C1 PUSH1 0xE1 SHL DUP2 MSTORE SWAP2 AND SWAP1 PUSH4 0xC771A982 SWAP1 PUSH2 0x1287 SWAP1 PUSH1 0x4 ADD PUSH2 0x2151 JUMP JUMPDEST PUSH1 0x20 PUSH1 0x40 MLOAD DUP1 DUP4 SUB DUP2 DUP7 DUP1 EXTCODESIZE ISZERO DUP1 ISZERO PUSH2 0x129F JUMPI PUSH1 0x0 DUP1 REVERT JUMPDEST POP GAS STATICCALL ISZERO DUP1 ISZERO PUSH2 0x12B3 JUMPI RETURNDATASIZE PUSH1 0x0 DUP1 RETURNDATACOPY RETURNDATASIZE PUSH1 0x0 REVERT JUMPDEST POP POP POP POP PUSH1 0x40 MLOAD RETURNDATASIZE PUSH1 0x1F NOT PUSH1 0x1F DUP3 ADD AND DUP3 ADD DUP1 PUSH1 0x40 MSTORE POP DUP2 ADD SWAP1 PUSH2 0x12D7 SWAP2 SWAP1 PUSH2 0x1CDC JUMP JUMPDEST PUSH1 0x12 DUP1 SLOAD PUSH1 0x1 PUSH1 0x1 PUSH1 0xA0 SHL SUB SWAP3 DUP4 AND PUSH1 0x1 PUSH1 0x1 PUSH1 0xA0 SHL SUB NOT SWAP2 DUP3 AND OR SWAP2 DUP3 SWAP1 SSTORE PUSH1 0x13 DUP1 SLOAD SWAP1 SWAP2 AND SWAP2 DUP4 AND SWAP2 SWAP1 SWAP2 OR SWAP1 SSTORE PUSH1 0x3 SLOAD PUSH1 0x40 MLOAD PUSH4 0x63B8D4C1 PUSH1 0xE1 SHL DUP2 MSTORE SWAP2 AND SWAP1 PUSH4 0xC771A982 SWAP1 PUSH2 0x132C SWAP1 PUSH1 0x4 ADD PUSH2 0x21A5 JUMP JUMPDEST PUSH1 0x20 PUSH1 0x40 MLOAD DUP1 DUP4 SUB DUP2 DUP7 DUP1 EXTCODESIZE ISZERO DUP1 ISZERO PUSH2 0x1344 JUMPI PUSH1 0x0 DUP1 REVERT JUMPDEST POP GAS STATICCALL ISZERO DUP1 ISZERO PUSH2 0x1358 JUMPI RETURNDATASIZE PUSH1 0x0 DUP1 RETURNDATACOPY RETURNDATASIZE PUSH1 0x0 REVERT JUMPDEST POP POP POP POP PUSH1 0x40 MLOAD RETURNDATASIZE PUSH1 0x1F NOT PUSH1 0x1F DUP3 ADD AND DUP3 ADD DUP1 PUSH1 0x40 MSTORE POP DUP2 ADD SWAP1 PUSH2 0x137C SWAP2 SWAP1 PUSH2 0x1CDC JUMP JUMPDEST PUSH1 0x10 DUP1 SLOAD PUSH1 0x1 PUSH1 0x1 PUSH1 0xA0 SHL SUB SWAP3 DUP4 AND PUSH1 0x1 PUSH1 0x1 PUSH1 0xA0 SHL SUB NOT SWAP2 DUP3 AND OR SWAP2 DUP3 SWAP1 SSTORE PUSH1 0x11 DUP1 SLOAD SWAP1 SWAP2 AND SWAP2 DUP4 AND SWAP2 SWAP1 SWAP2 OR SWAP1 SSTORE PUSH1 0x3 SLOAD PUSH1 0x40 MLOAD PUSH4 0x63B8D4C1 PUSH1 0xE1 SHL DUP2 MSTORE SWAP2 AND SWAP1 PUSH4 0xC771A982 SWAP1 PUSH2 0x13D1 SWAP1 PUSH1 0x4 ADD PUSH2 0x2431 JUMP JUMPDEST PUSH1 0x20 PUSH1 0x40 MLOAD DUP1 DUP4 SUB DUP2 DUP7 DUP1 EXTCODESIZE ISZERO DUP1 ISZERO PUSH2 0x13E9 JUMPI PUSH1 0x0 DUP1 REVERT JUMPDEST POP GAS STATICCALL ISZERO DUP1 ISZERO PUSH2 0x13FD JUMPI RETURNDATASIZE PUSH1 0x0 DUP1 RETURNDATACOPY RETURNDATASIZE PUSH1 0x0 REVERT JUMPDEST POP POP POP POP PUSH1 0x40 MLOAD RETURNDATASIZE PUSH1 0x1F NOT PUSH1 0x1F DUP3 ADD AND DUP3 ADD DUP1 PUSH1 0x40 MSTORE POP DUP2 ADD SWAP1 PUSH2 0x1421 SWAP2 SWAP1 PUSH2 0x1CDC JUMP JUMPDEST PUSH1 0x14 DUP1 SLOAD PUSH1 0x1 PUSH1 0x1 PUSH1 0xA0 SHL SUB NOT AND PUSH1 0x1 PUSH1 0x1 PUSH1 0xA0 SHL SUB SWAP3 DUP4 AND OR SWAP1 SSTORE PUSH1 0x3 SLOAD PUSH1 0x40 MLOAD PUSH4 0x63B8D4C1 PUSH1 0xE1 SHL DUP2 MSTORE SWAP2 AND SWAP1 PUSH4 0xC771A982 SWAP1 PUSH2 0x1462 SWAP1 PUSH1 0x4 ADD PUSH2 0x24D3 JUMP JUMPDEST PUSH1 0x20 PUSH1 0x40 MLOAD DUP1 DUP4 SUB DUP2 DUP7 DUP1 EXTCODESIZE ISZERO DUP1 ISZERO PUSH2 0x147A JUMPI PUSH1 0x0 DUP1 REVERT JUMPDEST POP GAS STATICCALL ISZERO DUP1 ISZERO PUSH2 0x148E JUMPI RETURNDATASIZE PUSH1 0x0 DUP1 RETURNDATACOPY RETURNDATASIZE PUSH1 0x0 REVERT JUMPDEST POP POP POP POP PUSH1 0x40 MLOAD RETURNDATASIZE PUSH1 0x1F NOT PUSH1 0x1F DUP3 ADD AND DUP3 ADD DUP1 PUSH1 0x40 MSTORE POP DUP2 ADD SWAP1 PUSH2 0x14B2 SWAP2 SWAP1 PUSH2 0x1CDC JUMP JUMPDEST PUSH1 0x17 DUP1 SLOAD PUSH1 0x1 PUSH1 0x1 PUSH1 0xA0 SHL SUB NOT AND PUSH1 0x1 PUSH1 0x1 PUSH1 0xA0 SHL SUB SWAP3 SWAP1 SWAP3 AND SWAP2 SWAP1 SWAP2 OR SWAP1 SSTORE PUSH1 0x1 PUSH1 0x0 SSTORE JUMP JUMPDEST PUSH1 0x2 PUSH1 0x0 SLOAD EQ ISZERO PUSH2 0x14FC JUMPI PUSH1 0x40 MLOAD PUSH3 0x461BCD PUSH1 0xE5 SHL DUP2 MSTORE PUSH1 0x4 ADD PUSH2 0x499 SWAP1 PUSH2 0x24EF JUMP JUMPDEST PUSH1 0x2 PUSH1 0x0 SSTORE PUSH2 0x1509 PUSH2 0x624 JUMP JUMPDEST ISZERO PUSH2 0x1526 JUMPI PUSH1 0x40 MLOAD PUSH3 0x461BCD PUSH1 0xE5 SHL DUP2 MSTORE PUSH1 0x4 ADD PUSH2 0x499 SWAP1 PUSH2 0x22B6 JUMP JUMPDEST PUSH1 0x0 PUSH2 0x1531 DUP3 PUSH2 0x177E JUMP JUMPDEST SWAP1 POP PUSH1 0x0 PUSH2 0x1540 PUSH2 0x737 PUSH2 0x163A JUMP JUMPDEST SWAP1 POP PUSH2 0x154F DUP3 PUSH1 0x0 ADD MLOAD PUSH2 0x18B3 JUMP JUMPDEST PUSH1 0xFF AND PUSH1 0xAA EQ PUSH2 0x1571 JUMPI PUSH1 0x40 MLOAD PUSH3 0x461BCD PUSH1 0xE5 SHL DUP2 MSTORE PUSH1 0x4 ADD PUSH2 0x499 SWAP1 PUSH2 0x2451 JUMP JUMPDEST PUSH1 0x0 DUP4 DUP2 MSTORE PUSH1 0x18 PUSH1 0x20 SWAP1 DUP2 MSTORE PUSH1 0x40 SWAP1 SWAP2 KECCAK256 SLOAD SWAP1 DUP3 ADD MLOAD EQ PUSH2 0x15A4 JUMPI PUSH1 0x40 MLOAD PUSH3 0x461BCD PUSH1 0xE5 SHL DUP2 MSTORE PUSH1 0x4 ADD PUSH2 0x499 SWAP1 PUSH2 0x260A JUMP JUMPDEST PUSH1 0x0 DUP4 DUP2 MSTORE PUSH1 0x18 PUSH1 0x20 SWAP1 DUP2 MSTORE PUSH1 0x40 DUP1 DUP4 KECCAK256 DUP4 DUP2 SSTORE PUSH1 0x1 DUP1 DUP3 ADD DUP6 SWAP1 SSTORE PUSH1 0x2 SWAP2 DUP3 ADD DUP6 SWAP1 SSTORE PUSH1 0x19 DUP5 MSTORE DUP3 DUP6 KECCAK256 DUP6 SWAP1 SSTORE PUSH1 0x1A SWAP1 SWAP4 MSTORE DUP2 DUP5 KECCAK256 DUP5 DUP2 SSTORE SWAP3 DUP4 ADD DUP5 SWAP1 SSTORE DUP3 ADD DUP4 SWAP1 SSTORE PUSH1 0x3 DUP1 DUP4 ADD DUP5 SWAP1 SSTORE PUSH1 0x4 SWAP3 DUP4 ADD SWAP4 SWAP1 SWAP4 SSTORE SWAP2 SLOAD SWAP2 MLOAD PUSH4 0x3A38454B PUSH1 0xE2 SHL DUP2 MSTORE PUSH1 0x1 PUSH1 0x1 PUSH1 0xA0 SHL SUB SWAP1 SWAP3 AND SWAP2 PUSH4 0xE8E1152C SWAP2 PUSH2 0x5E8 SWAP2 DUP8 SWAP2 ADD PUSH2 0x201C JUMP JUMPDEST PUSH1 0x0 PUSH2 0x834 DUP4 PUSH1 0x1 PUSH1 0x1 PUSH1 0xA0 SHL SUB DUP5 AND PUSH2 0x1989 JUMP JUMPDEST CALLER SWAP1 JUMP JUMPDEST PUSH1 0x0 DUP3 DUP2 MSTORE PUSH1 0x1 PUSH1 0x20 MSTORE PUSH1 0x40 SWAP1 KECCAK256 PUSH2 0x1656 SWAP1 DUP3 PUSH2 0x1625 JUMP JUMPDEST ISZERO PUSH2 0x4AC JUMPI PUSH2 0x1663 PUSH2 0x163A JUMP JUMPDEST PUSH1 0x1 PUSH1 0x1 PUSH1 0xA0 SHL SUB AND DUP2 PUSH1 0x1 PUSH1 0x1 PUSH1 0xA0 SHL SUB AND DUP4 PUSH32 0x2F8788117E7EFF1D82E926EC794901D17C78024A50270940304540A733656F0D PUSH1 0x40 MLOAD PUSH1 0x40 MLOAD DUP1 SWAP2 SUB SWAP1 LOG4 POP POP JUMP JUMPDEST PUSH1 0x0 DUP3 DUP2 MSTORE PUSH1 0x1 PUSH1 0x20 MSTORE PUSH1 0x40 SWAP1 KECCAK256 PUSH2 0x16BF SWAP1 DUP3 PUSH2 0x19D3 JUMP JUMPDEST ISZERO PUSH2 0x4AC JUMPI PUSH2 0x16CC PUSH2 0x163A JUMP JUMPDEST PUSH1 0x1 PUSH1 0x1 PUSH1 0xA0 SHL SUB AND DUP2 PUSH1 0x1 PUSH1 0x1 PUSH1 0xA0 SHL SUB AND DUP4 PUSH32 0xF6391F5C32D9C69D2A47EA670B442974B53935D1EDC7FD64EB21E047A839171B PUSH1 0x40 MLOAD PUSH1 0x40 MLOAD DUP1 SWAP2 SUB SWAP1 LOG4 POP POP JUMP JUMPDEST PUSH2 0x1718 PUSH2 0x624 JUMP JUMPDEST PUSH2 0x1734 JUMPI PUSH1 0x40 MLOAD PUSH3 0x461BCD PUSH1 0xE5 SHL DUP2 MSTORE PUSH1 0x4 ADD PUSH2 0x499 SWAP1 PUSH2 0x2123 JUMP JUMPDEST PUSH1 0x2 DUP1 SLOAD PUSH1 0xFF NOT AND SWAP1 SSTORE PUSH32 0x5DB9EE0A495BF2E6FF9C91A7834C1BA4FDD244A5E8AA4E537BD38AEAE4B073AA PUSH2 0x1767 PUSH2 0x163A JUMP JUMPDEST PUSH1 0x40 MLOAD PUSH2 0x1774 SWAP2 SWAP1 PUSH2 0x1FBA JUMP JUMPDEST PUSH1 0x40 MLOAD DUP1 SWAP2 SUB SWAP1 LOG1 JUMP JUMPDEST PUSH2 0x1786 PUSH2 0x1BE5 JUMP JUMPDEST PUSH1 0x3 SLOAD PUSH1 0x40 MLOAD PUSH4 0x38923CB1 PUSH1 0xE2 SHL DUP2 MSTORE PUSH1 0x0 SWAP2 PUSH1 0x1 PUSH1 0x1 PUSH1 0xA0 SHL SUB AND SWAP1 PUSH4 0xE248F2C4 SWAP1 PUSH2 0x17B7 SWAP1 DUP7 SWAP1 PUSH1 0x4 ADD PUSH2 0x201C JUMP JUMPDEST PUSH2 0x1A0 PUSH1 0x40 MLOAD DUP1 DUP4 SUB DUP2 PUSH1 0x0 DUP8 DUP1 EXTCODESIZE ISZERO DUP1 ISZERO PUSH2 0x17D2 JUMPI PUSH1 0x0 DUP1 REVERT JUMPDEST POP GAS CALL ISZERO DUP1 ISZERO PUSH2 0x17E6 JUMPI RETURNDATASIZE PUSH1 0x0 DUP1 RETURNDATACOPY RETURNDATASIZE PUSH1 0x0 REVERT JUMPDEST POP POP POP POP PUSH1 0x40 MLOAD RETURNDATASIZE PUSH1 0x1F NOT PUSH1 0x1F DUP3 ADD AND DUP3 ADD DUP1 PUSH1 0x40 MSTORE POP DUP2 ADD SWAP1 PUSH2 0x180A SWAP2 SWAP1 PUSH2 0x1E8E JUMP JUMPDEST SWAP4 SWAP3 POP POP POP JUMP JUMPDEST PUSH2 0x1819 PUSH2 0x1C51 JUMP JUMPDEST PUSH2 0x1821 PUSH2 0x1C51 JUMP JUMPDEST PUSH1 0x3 SLOAD PUSH1 0x40 MLOAD PUSH4 0x6FCFB49B PUSH1 0xE1 SHL DUP2 MSTORE PUSH1 0x1 PUSH1 0x1 PUSH1 0xA0 SHL SUB SWAP1 SWAP2 AND SWAP1 PUSH4 0xDF9F6936 SWAP1 PUSH2 0x1853 SWAP1 DUP8 SWAP1 DUP8 SWAP1 PUSH1 0x4 ADD PUSH2 0x1FF2 JUMP JUMPDEST PUSH1 0x40 DUP1 MLOAD DUP1 DUP4 SUB DUP2 DUP7 DUP1 EXTCODESIZE ISZERO DUP1 ISZERO PUSH2 0x186A JUMPI PUSH1 0x0 DUP1 REVERT JUMPDEST POP GAS STATICCALL ISZERO DUP1 ISZERO PUSH2 0x187E JUMPI RETURNDATASIZE PUSH1 0x0 DUP1 RETURNDATACOPY RETURNDATASIZE PUSH1 0x0 REVERT JUMPDEST POP POP POP POP PUSH1 0x40 MLOAD RETURNDATASIZE PUSH1 0x1F NOT PUSH1 0x1F DUP3 ADD AND DUP3 ADD DUP1 PUSH1 0x40 MSTORE POP DUP2 ADD SWAP1 PUSH2 0x18A2 SWAP2 SWAP1 PUSH2 0x1F6E JUMP JUMPDEST PUSH1 0x20 DUP4 ADD MSTORE PUSH1 0xFF AND DUP2 MSTORE SWAP4 SWAP3 POP POP POP JUMP JUMPDEST PUSH1 0x0 DUP2 PUSH1 0xFF AND PUSH1 0x6 EQ ISZERO DUP1 ISZERO PUSH2 0x18CD JUMPI POP DUP2 PUSH1 0xFF AND PUSH1 0x32 EQ ISZERO JUMPDEST DUP1 ISZERO PUSH2 0x18DD JUMPI POP DUP2 PUSH1 0xFF AND PUSH1 0x38 EQ ISZERO JUMPDEST DUP1 ISZERO PUSH2 0x18ED JUMPI POP DUP2 PUSH1 0xFF AND PUSH1 0x3C EQ ISZERO JUMPDEST ISZERO PUSH2 0x18FA JUMPI POP PUSH1 0x0 PUSH2 0x3FE JUMP JUMPDEST POP PUSH1 0xAA PUSH2 0x3FE JUMP JUMPDEST PUSH2 0x190A PUSH2 0x624 JUMP JUMPDEST ISZERO PUSH2 0x1927 JUMPI PUSH1 0x40 MLOAD PUSH3 0x461BCD PUSH1 0xE5 SHL DUP2 MSTORE PUSH1 0x4 ADD PUSH2 0x499 SWAP1 PUSH2 0x22B6 JUMP JUMPDEST PUSH1 0x2 DUP1 SLOAD PUSH1 0xFF NOT AND PUSH1 0x1 OR SWAP1 SSTORE PUSH32 0x62E78CEA01BEE320CD4E420270B5EA74000D11B0C9F74754EBDBFC544B05A258 PUSH2 0x1767 PUSH2 0x163A JUMP JUMPDEST PUSH1 0x0 PUSH2 0x834 DUP4 DUP4 PUSH2 0x19E8 JUMP JUMPDEST PUSH1 0x0 PUSH2 0x834 DUP4 PUSH1 0x1 PUSH1 0x1 PUSH1 0xA0 SHL SUB DUP5 AND PUSH2 0x1A41 JUMP JUMPDEST PUSH1 0x0 PUSH2 0x837 DUP3 PUSH2 0x1A59 JUMP JUMPDEST PUSH1 0x0 PUSH2 0x1995 DUP4 DUP4 PUSH2 0x1A41 JUMP JUMPDEST PUSH2 0x19CB JUMPI POP DUP2 SLOAD PUSH1 0x1 DUP2 DUP2 ADD DUP5 SSTORE PUSH1 0x0 DUP5 DUP2 MSTORE PUSH1 0x20 DUP1 DUP3 KECCAK256 SWAP1 SWAP4 ADD DUP5 SWAP1 SSTORE DUP5 SLOAD DUP5 DUP3 MSTORE DUP3 DUP7 ADD SWAP1 SWAP4 MSTORE PUSH1 0x40 SWAP1 KECCAK256 SWAP2 SWAP1 SWAP2 SSTORE PUSH2 0x837 JUMP JUMPDEST POP PUSH1 0x0 PUSH2 0x837 JUMP JUMPDEST PUSH1 0x0 PUSH2 0x834 DUP4 PUSH1 0x1 PUSH1 0x1 PUSH1 0xA0 SHL SUB DUP5 AND PUSH2 0x1A5D JUMP JUMPDEST DUP2 SLOAD PUSH1 0x0 SWAP1 DUP3 LT PUSH2 0x1A0B JUMPI PUSH1 0x40 MLOAD PUSH3 0x461BCD PUSH1 0xE5 SHL DUP2 MSTORE PUSH1 0x4 ADD PUSH2 0x499 SWAP1 PUSH2 0x204B JUMP JUMPDEST DUP3 PUSH1 0x0 ADD DUP3 DUP2 SLOAD DUP2 LT PUSH2 0x1A2E JUMPI PUSH4 0x4E487B71 PUSH1 0xE0 SHL PUSH1 0x0 MSTORE PUSH1 0x32 PUSH1 0x4 MSTORE PUSH1 0x24 PUSH1 0x0 REVERT JUMPDEST SWAP1 PUSH1 0x0 MSTORE PUSH1 0x20 PUSH1 0x0 KECCAK256 ADD SLOAD SWAP1 POP SWAP3 SWAP2 POP POP JUMP JUMPDEST PUSH1 0x0 SWAP1 DUP2 MSTORE PUSH1 0x1 SWAP2 SWAP1 SWAP2 ADD PUSH1 0x20 MSTORE PUSH1 0x40 SWAP1 KECCAK256 SLOAD ISZERO ISZERO SWAP1 JUMP JUMPDEST SLOAD SWAP1 JUMP JUMPDEST PUSH1 0x0 DUP2 DUP2 MSTORE PUSH1 0x1 DUP4 ADD PUSH1 0x20 MSTORE PUSH1 0x40 DUP2 KECCAK256 SLOAD DUP1 ISZERO PUSH2 0x1B70 JUMPI PUSH1 0x0 PUSH2 0x1A81 PUSH1 0x1 DUP4 PUSH2 0x27C9 JUMP JUMPDEST DUP6 SLOAD SWAP1 SWAP2 POP PUSH1 0x0 SWAP1 PUSH2 0x1A95 SWAP1 PUSH1 0x1 SWAP1 PUSH2 0x27C9 JUMP JUMPDEST SWAP1 POP PUSH1 0x0 DUP7 PUSH1 0x0 ADD DUP3 DUP2 SLOAD DUP2 LT PUSH2 0x1ABC JUMPI PUSH4 0x4E487B71 PUSH1 0xE0 SHL PUSH1 0x0 MSTORE PUSH1 0x32 PUSH1 0x4 MSTORE PUSH1 0x24 PUSH1 0x0 REVERT JUMPDEST SWAP1 PUSH1 0x0 MSTORE PUSH1 0x20 PUSH1 0x0 KECCAK256 ADD SLOAD SWAP1 POP DUP1 DUP8 PUSH1 0x0 ADD DUP5 DUP2 SLOAD DUP2 LT PUSH2 0x1AED JUMPI PUSH4 0x4E487B71 PUSH1 0xE0 SHL PUSH1 0x0 MSTORE PUSH1 0x32 PUSH1 0x4 MSTORE PUSH1 0x24 PUSH1 0x0 REVERT JUMPDEST PUSH1 0x0 SWAP2 DUP3 MSTORE PUSH1 0x20 SWAP1 SWAP2 KECCAK256 ADD SSTORE PUSH2 0x1B04 DUP4 PUSH1 0x1 PUSH2 0x27B1 JUMP JUMPDEST PUSH1 0x0 DUP3 DUP2 MSTORE PUSH1 0x1 DUP10 ADD PUSH1 0x20 MSTORE PUSH1 0x40 SWAP1 KECCAK256 SSTORE DUP7 SLOAD DUP8 SWAP1 DUP1 PUSH2 0x1B34 JUMPI PUSH4 0x4E487B71 PUSH1 0xE0 SHL PUSH1 0x0 MSTORE PUSH1 0x31 PUSH1 0x4 MSTORE PUSH1 0x24 PUSH1 0x0 REVERT JUMPDEST PUSH1 0x1 SWAP1 SUB DUP2 DUP2 SWAP1 PUSH1 0x0 MSTORE PUSH1 0x20 PUSH1 0x0 KECCAK256 ADD PUSH1 0x0 SWAP1 SSTORE SWAP1 SSTORE DUP7 PUSH1 0x1 ADD PUSH1 0x0 DUP8 DUP2 MSTORE PUSH1 0x20 ADD SWAP1 DUP2 MSTORE PUSH1 0x20 ADD PUSH1 0x0 KECCAK256 PUSH1 0x0 SWAP1 SSTORE PUSH1 0x1 SWAP5 POP POP POP POP POP PUSH2 0x837 JUMP JUMPDEST PUSH1 0x0 SWAP2 POP POP PUSH2 0x837 JUMP JUMPDEST POP SWAP3 SWAP2 POP POP JUMP JUMPDEST PUSH1 0x40 DUP1 MLOAD PUSH2 0x100 DUP2 ADD DUP3 MSTORE PUSH1 0x0 DUP1 DUP3 MSTORE PUSH1 0x20 DUP3 ADD DUP2 SWAP1 MSTORE SWAP2 DUP2 ADD DUP3 SWAP1 MSTORE PUSH1 0x60 DUP2 ADD DUP3 SWAP1 MSTORE PUSH1 0x80 DUP2 ADD DUP3 SWAP1 MSTORE PUSH1 0xA0 DUP2 ADD DUP3 SWAP1 MSTORE PUSH1 0xC0 DUP2 ADD DUP3 SWAP1 MSTORE PUSH1 0xE0 DUP2 ADD SWAP2 SWAP1 SWAP2 MSTORE SWAP1 JUMP JUMPDEST PUSH1 0x40 DUP1 MLOAD PUSH1 0x60 DUP2 ADD DUP3 MSTORE PUSH1 0x0 DUP1 DUP3 MSTORE PUSH1 0x20 DUP3 ADD DUP2 SWAP1 MSTORE SWAP2 DUP2 ADD SWAP2 SWAP1 SWAP2 MSTORE SWAP1 JUMP JUMPDEST PUSH1 0x40 DUP1 MLOAD PUSH2 0x1A0 DUP2 ADD DUP3 MSTORE PUSH1 0x0 DUP1 DUP3 MSTORE PUSH1 0x20 DUP3 ADD DUP2 SWAP1 MSTORE SWAP2 DUP2 ADD DUP3 SWAP1 MSTORE PUSH1 0x60 DUP2 ADD DUP3 SWAP1 MSTORE PUSH1 0x80 DUP2 ADD DUP3 SWAP1 MSTORE PUSH1 0xA0 DUP2 ADD DUP3 SWAP1 MSTORE PUSH1 0xC0 DUP2 ADD DUP3 SWAP1 MSTORE PUSH1 0xE0 DUP2 ADD DUP3 SWAP1 MSTORE PUSH2 0x100 DUP2 ADD DUP3 SWAP1 MSTORE PUSH2 0x120 DUP2 ADD DUP3 SWAP1 MSTORE PUSH2 0x140 DUP2 ADD DUP3 SWAP1 MSTORE PUSH2 0x160 DUP2 ADD DUP3 SWAP1 MSTORE PUSH2 0x180 DUP2 ADD SWAP2 SWAP1 SWAP2 MSTORE SWAP1 JUMP JUMPDEST PUSH1 0x40 DUP1 MLOAD DUP1 DUP3 ADD SWAP1 SWAP2 MSTORE PUSH1 0x0 DUP1 DUP3 MSTORE PUSH1 0x20 DUP3 ADD MSTORE SWAP1 JUMP JUMPDEST PUSH1 0x0 PUSH2 0x100 DUP3 DUP5 SUB SLT ISZERO PUSH2 0x1C7A JUMPI DUP1 DUP2 REVERT JUMPDEST POP SWAP2 SWAP1 POP JUMP JUMPDEST DUP1 MLOAD PUSH15 0xFFFFFFFFFFFFFFFFFFFFFFFFFFFFFF DUP2 AND DUP2 EQ PUSH2 0x3FE JUMPI PUSH1 0x0 DUP1 REVERT JUMPDEST DUP1 MLOAD PUSH2 0x3FE DUP2 PUSH2 0x2A6E JUMP JUMPDEST DUP1 MLOAD PUSH2 0x3FE DUP2 PUSH2 0x2A7E JUMP JUMPDEST DUP1 MLOAD PUSH2 0x3FE DUP2 PUSH2 0x2A90 JUMP JUMPDEST PUSH1 0x0 PUSH1 0x20 DUP3 DUP5 SUB SLT ISZERO PUSH2 0x1CD1 JUMPI DUP1 DUP2 REVERT JUMPDEST DUP2 CALLDATALOAD PUSH2 0x180A DUP2 PUSH2 0x2A56 JUMP JUMPDEST PUSH1 0x0 PUSH1 0x20 DUP3 DUP5 SUB SLT ISZERO PUSH2 0x1CED JUMPI DUP1 DUP2 REVERT JUMPDEST DUP2 MLOAD PUSH2 0x180A DUP2 PUSH2 0x2A56 JUMP JUMPDEST PUSH1 0x0 DUP1 PUSH1 0x0 DUP1 PUSH1 0x0 PUSH1 0x80 DUP7 DUP9 SUB SLT ISZERO PUSH2 0x1D0F JUMPI DUP1 DUP2 REVERT JUMPDEST DUP6 CALLDATALOAD PUSH2 0x1D1A DUP2 PUSH2 0x2A56 JUMP JUMPDEST SWAP5 POP PUSH1 0x20 DUP7 ADD CALLDATALOAD PUSH2 0x1D2A DUP2 PUSH2 0x2A56 JUMP JUMPDEST SWAP4 POP PUSH1 0x40 DUP7 ADD CALLDATALOAD SWAP3 POP PUSH1 0x60 DUP7 ADD CALLDATALOAD PUSH8 0xFFFFFFFFFFFFFFFF DUP1 DUP3 GT ISZERO PUSH2 0x1D4D JUMPI DUP3 DUP4 REVERT JUMPDEST DUP2 DUP9 ADD SWAP2 POP DUP9 PUSH1 0x1F DUP4 ADD SLT PUSH2 0x1D60 JUMPI DUP3 DUP4 REVERT JUMPDEST DUP2 CALLDATALOAD DUP2 DUP2 GT ISZERO PUSH2 0x1D6E JUMPI DUP4 DUP5 REVERT JUMPDEST DUP10 PUSH1 0x20 DUP3 DUP6 ADD ADD GT ISZERO PUSH2 0x1D7F JUMPI DUP4 DUP5 REVERT JUMPDEST SWAP7 SWAP10 SWAP6 SWAP9 POP SWAP4 SWAP7 POP PUSH1 0x20 ADD SWAP5 SWAP4 SWAP3 POP POP POP JUMP JUMPDEST PUSH1 0x0 DUP1 PUSH1 0x40 DUP4 DUP6 SUB SLT ISZERO PUSH2 0x1DA4 JUMPI DUP2 DUP3 REVERT JUMPDEST DUP3 CALLDATALOAD PUSH2 0x1DAF DUP2 PUSH2 0x2A56 JUMP JUMPDEST SWAP5 PUSH1 0x20 SWAP4 SWAP1 SWAP4 ADD CALLDATALOAD SWAP4 POP POP POP JUMP JUMPDEST PUSH1 0x0 PUSH1 0x20 DUP3 DUP5 SUB SLT ISZERO PUSH2 0x1DCE JUMPI DUP1 DUP2 REVERT JUMPDEST POP CALLDATALOAD SWAP2 SWAP1 POP JUMP JUMPDEST PUSH1 0x0 DUP1 PUSH1 0x40 DUP4 DUP6 SUB SLT ISZERO PUSH2 0x1DE7 JUMPI DUP2 DUP3 REVERT JUMPDEST DUP3 CALLDATALOAD SWAP2 POP PUSH1 0x20 DUP4 ADD CALLDATALOAD PUSH2 0x1DF9 DUP2 PUSH2 0x2A56 JUMP JUMPDEST DUP1 SWAP2 POP POP SWAP3 POP SWAP3 SWAP1 POP JUMP JUMPDEST PUSH1 0x0 DUP1 PUSH2 0x120 DUP4 DUP6 SUB SLT ISZERO PUSH2 0x1E17 JUMPI DUP2 DUP3 REVERT JUMPDEST DUP3 CALLDATALOAD SWAP2 POP PUSH2 0x1E28 DUP5 PUSH1 0x20 DUP6 ADD PUSH2 0x1C68 JUMP JUMPDEST SWAP1 POP SWAP3 POP SWAP3 SWAP1 POP JUMP JUMPDEST PUSH1 0x0 DUP1 PUSH1 0x40 DUP4 DUP6 SUB SLT ISZERO PUSH2 0x1E43 JUMPI DUP2 DUP3 REVERT JUMPDEST POP POP DUP1 CALLDATALOAD SWAP3 PUSH1 0x20 SWAP1 SWAP2 ADD CALLDATALOAD SWAP2 POP JUMP JUMPDEST PUSH1 0x0 DUP1 PUSH1 0x0 DUP1 PUSH1 0x80 DUP6 DUP8 SUB SLT ISZERO PUSH2 0x1E67 JUMPI DUP2 DUP3 REVERT JUMPDEST DUP5 CALLDATALOAD SWAP4 POP PUSH1 0x20 DUP6 ADD CALLDATALOAD PUSH2 0x1E79 DUP2 PUSH2 0x2A90 JUMP JUMPDEST SWAP4 SWAP7 SWAP4 SWAP6 POP POP POP POP PUSH1 0x40 DUP3 ADD CALLDATALOAD SWAP2 PUSH1 0x60 ADD CALLDATALOAD SWAP1 JUMP JUMPDEST PUSH1 0x0 PUSH2 0x1A0 DUP1 DUP4 DUP6 SUB SLT ISZERO PUSH2 0x1EA1 JUMPI DUP2 DUP3 REVERT JUMPDEST PUSH2 0x1EAA DUP2 PUSH2 0x2772 JUMP JUMPDEST SWAP1 POP PUSH2 0x1EB5 DUP4 PUSH2 0x1CB5 JUMP JUMPDEST DUP2 MSTORE PUSH2 0x1EC3 PUSH1 0x20 DUP5 ADD PUSH2 0x1CB5 JUMP JUMPDEST PUSH1 0x20 DUP3 ADD MSTORE PUSH2 0x1ED4 PUSH1 0x40 DUP5 ADD PUSH2 0x1CB5 JUMP JUMPDEST PUSH1 0x40 DUP3 ADD MSTORE PUSH2 0x1EE5 PUSH1 0x60 DUP5 ADD PUSH2 0x1C9F JUMP JUMPDEST PUSH1 0x60 DUP3 ADD MSTORE PUSH2 0x1EF6 PUSH1 0x80 DUP5 ADD PUSH2 0x1CAA JUMP JUMPDEST PUSH1 0x80 DUP3 ADD MSTORE PUSH2 0x1F07 PUSH1 0xA0 DUP5 ADD PUSH2 0x1CAA JUMP JUMPDEST PUSH1 0xA0 DUP3 ADD MSTORE PUSH2 0x1F18 PUSH1 0xC0 DUP5 ADD PUSH2 0x1CAA JUMP JUMPDEST PUSH1 0xC0 DUP3 ADD MSTORE PUSH2 0x1F29 PUSH1 0xE0 DUP5 ADD PUSH2 0x1C80 JUMP JUMPDEST PUSH1 0xE0 DUP3 ADD MSTORE PUSH2 0x100 DUP4 DUP2 ADD MLOAD SWAP1 DUP3 ADD MSTORE PUSH2 0x120 DUP1 DUP5 ADD MLOAD SWAP1 DUP3 ADD MSTORE PUSH2 0x140 DUP1 DUP5 ADD MLOAD SWAP1 DUP3 ADD MSTORE PUSH2 0x160 DUP1 DUP5 ADD MLOAD SWAP1 DUP3 ADD MSTORE PUSH2 0x180 SWAP3 DUP4 ADD MLOAD SWAP3 DUP2 ADD SWAP3 SWAP1 SWAP3 MSTORE POP SWAP2 SWAP1 POP JUMP JUMPDEST PUSH1 0x0 DUP1 PUSH1 0x40 DUP4 DUP6 SUB SLT ISZERO PUSH2 0x1F80 JUMPI DUP2 DUP3 REVERT JUMPDEST DUP3 MLOAD PUSH2 0x1F8B DUP2 PUSH2 0x2A90 JUMP JUMPDEST PUSH1 0x20 SWAP4 SWAP1 SWAP4 ADD MLOAD SWAP3 SWAP5 SWAP3 SWAP4 POP POP POP JUMP JUMPDEST PUSH1 0x1 PUSH1 0x1 PUSH1 0xA0 SHL SUB AND SWAP1 MSTORE JUMP JUMPDEST PUSH2 0xFFFF AND SWAP1 MSTORE JUMP JUMPDEST PUSH4 0xFFFFFFFF AND SWAP1 MSTORE JUMP JUMPDEST PUSH1 0x1 PUSH1 0x1 PUSH1 0xA0 SHL SUB SWAP2 SWAP1 SWAP2 AND DUP2 MSTORE PUSH1 0x20 ADD SWAP1 JUMP JUMPDEST PUSH1 0x1 PUSH1 0x1 PUSH1 0xA0 SHL SUB SWAP4 DUP5 AND DUP2 MSTORE SWAP2 SWAP1 SWAP3 AND PUSH1 0x20 DUP3 ADD MSTORE PUSH1 0x40 DUP2 ADD SWAP2 SWAP1 SWAP2 MSTORE PUSH1 0x60 ADD SWAP1 JUMP JUMPDEST PUSH1 0x1 PUSH1 0x1 PUSH1 0xA0 SHL SUB SWAP3 SWAP1 SWAP3 AND DUP3 MSTORE PUSH4 0xFFFFFFFF AND PUSH1 0x20 DUP3 ADD MSTORE PUSH1 0x40 ADD SWAP1 JUMP JUMPDEST SWAP1 ISZERO ISZERO DUP2 MSTORE PUSH1 0x20 ADD SWAP1 JUMP JUMPDEST SWAP1 DUP2 MSTORE PUSH1 0x20 ADD SWAP1 JUMP JUMPDEST SWAP2 DUP3 MSTORE PUSH1 0xFF AND PUSH1 0x20 DUP3 ADD MSTORE PUSH1 0x40 ADD SWAP1 JUMP JUMPDEST PUSH1 0x1 PUSH1 0x1 PUSH1 0xE0 SHL SUB NOT SWAP2 SWAP1 SWAP2 AND DUP2 MSTORE PUSH1 0x20 ADD SWAP1 JUMP JUMPDEST PUSH1 0x20 DUP1 DUP3 MSTORE PUSH1 0x22 SWAP1 DUP3 ADD MSTORE PUSH32 0x456E756D657261626C655365743A20696E646578206F7574206F6620626F756E PUSH1 0x40 DUP3 ADD MSTORE PUSH2 0x6473 PUSH1 0xF0 SHL PUSH1 0x60 DUP3 ADD MSTORE PUSH1 0x80 ADD SWAP1 JUMP JUMPDEST PUSH1 0x20 DUP1 DUP3 MSTORE PUSH1 0x27 SWAP1 DUP3 ADD MSTORE PUSH32 0x423A4D4F443A2D4941444D2063616C6C65722021434F4E54524143545F41444D PUSH1 0x40 DUP3 ADD MSTORE PUSH7 0x494E5F524F4C45 PUSH1 0xC8 SHL PUSH1 0x60 DUP3 ADD MSTORE PUSH1 0x80 ADD SWAP1 JUMP JUMPDEST PUSH1 0x20 DUP1 DUP3 MSTORE PUSH1 0x2F SWAP1 DUP3 ADD MSTORE PUSH32 0x416363657373436F6E74726F6C3A2073656E646572206D75737420626520616E PUSH1 0x40 DUP3 ADD MSTORE PUSH15 0x818591B5A5B881D1BC819DC985B9D PUSH1 0x8A SHL PUSH1 0x60 DUP3 ADD MSTORE PUSH1 0x80 ADD SWAP1 JUMP JUMPDEST PUSH1 0x20 DUP1 DUP3 MSTORE PUSH1 0x14 SWAP1 DUP3 ADD MSTORE PUSH20 0x14185D5CD8589B194E881B9BDD081C185D5CD959 PUSH1 0x62 SHL PUSH1 0x40 DUP3 ADD MSTORE PUSH1 0x60 ADD SWAP1 JUMP JUMPDEST PUSH1 0x20 DUP1 DUP3 MSTORE PUSH1 0x3 SWAP1 DUP3 ADD MSTORE PUSH3 0x41505 PUSH1 0xEC SHL PUSH1 0x40 DUP3 ADD MSTORE PUSH1 0x60 ADD SWAP1 JUMP JUMPDEST PUSH1 0x20 DUP1 DUP3 MSTORE PUSH1 0x1A SWAP1 DUP3 ADD MSTORE PUSH32 0x454D3A5045453A20457363726F77206E6F742065787069726564000000000000 PUSH1 0x40 DUP3 ADD MSTORE PUSH1 0x60 ADD SWAP1 JUMP JUMPDEST PUSH1 0x20 DUP1 DUP3 MSTORE PUSH1 0x4 SWAP1 DUP3 ADD MSTORE PUSH4 0x2921A629 PUSH1 0xE1 SHL PUSH1 0x40 DUP3 ADD MSTORE PUSH1 0x60 ADD SWAP1 JUMP JUMPDEST PUSH1 0x20 DUP1 DUP3 MSTORE PUSH1 0x3E SWAP1 DUP3 ADD MSTORE PUSH32 0x454D3A53453A20457363726F772063616E206F6E6C7920626520736574206279 PUSH1 0x40 DUP3 ADD MSTORE PUSH32 0x20616E20617574686F72697A656420657363726F7720636F6E74726163740000 PUSH1 0x60 DUP3 ADD MSTORE PUSH1 0x80 ADD SWAP1 JUMP JUMPDEST PUSH1 0x20 DUP1 DUP3 MSTORE PUSH1 0x30 SWAP1 DUP3 ADD MSTORE PUSH32 0x416363657373436F6E74726F6C3A2073656E646572206D75737420626520616E PUSH1 0x40 DUP3 ADD MSTORE PUSH16 0x2061646D696E20746F207265766F6B65 PUSH1 0x80 SHL PUSH1 0x60 DUP3 ADD MSTORE PUSH1 0x80 ADD SWAP1 JUMP JUMPDEST PUSH1 0x20 DUP1 DUP3 MSTORE PUSH1 0x26 SWAP1 DUP3 ADD MSTORE PUSH32 0x423A4D4F442D49503A43616C6C696E672061646472657373206973206E6F7420 PUSH1 0x40 DUP3 ADD MSTORE PUSH6 0x3830BAB9B2B9 PUSH1 0xD1 SHL PUSH1 0x60 DUP3 ADD MSTORE PUSH1 0x80 ADD SWAP1 JUMP JUMPDEST PUSH1 0x20 DUP1 DUP3 MSTORE PUSH1 0x10 SWAP1 DUP3 ADD MSTORE PUSH16 0x14185D5CD8589B194E881C185D5CD959 PUSH1 0x82 SHL PUSH1 0x40 DUP3 ADD MSTORE PUSH1 0x60 ADD SWAP1 JUMP JUMPDEST PUSH1 0x20 DUP1 DUP3 MSTORE PUSH1 0x1E SWAP1 DUP3 ADD MSTORE PUSH32 0x423A54583A4D75737420686176652041535345545F545846525F524F4C450000 PUSH1 0x40 DUP3 ADD MSTORE PUSH1 0x60 ADD SWAP1 JUMP JUMPDEST PUSH1 0x20 DUP1 DUP3 MSTORE PUSH1 0x5 SWAP1 DUP3 ADD MSTORE PUSH5 0x20AFAA25A7 PUSH1 0xD9 SHL PUSH1 0x40 DUP3 ADD MSTORE PUSH1 0x60 ADD SWAP1 JUMP JUMPDEST PUSH1 0x20 DUP1 DUP3 MSTORE PUSH1 0x23 SWAP1 DUP3 ADD MSTORE PUSH32 0x454D3A5345444C3A204173736574206E6F7420696E20657363726F7720737461 PUSH1 0x40 DUP3 ADD MSTORE PUSH3 0x747573 PUSH1 0xE8 SHL PUSH1 0x60 DUP3 ADD MSTORE PUSH1 0x80 ADD SWAP1 JUMP JUMPDEST PUSH1 0x20 DUP1 DUP3 MSTORE PUSH1 0x12 SWAP1 DUP3 ADD MSTORE PUSH18 0x423A5353433A2041646472657373203D203 PUSH1 0x74 SHL PUSH1 0x40 DUP3 ADD MSTORE PUSH1 0x60 ADD SWAP1 JUMP JUMPDEST PUSH1 0x20 DUP1 DUP3 MSTORE PUSH1 0x6 SWAP1 DUP3 ADD MSTORE PUSH6 0x20A1AFAA25A7 PUSH1 0xD1 SHL PUSH1 0x40 DUP3 ADD MSTORE PUSH1 0x60 ADD SWAP1 JUMP JUMPDEST PUSH1 0x20 DUP1 DUP3 MSTORE PUSH1 0x46 SWAP1 DUP3 ADD MSTORE PUSH32 0x454D3A5345444C3A204F6E6C7920636F6E747261637420776974682073616D65 PUSH1 0x40 DUP3 ADD MSTORE PUSH32 0x206E616D65206173207365747465722063616E206D6F6469667920657363726F PUSH1 0x60 DUP3 ADD MSTORE PUSH6 0x772064617461 PUSH1 0xD0 SHL PUSH1 0x80 DUP3 ADD MSTORE PUSH1 0xA0 ADD SWAP1 JUMP JUMPDEST PUSH1 0x20 DUP1 DUP3 MSTORE PUSH1 0x6 SWAP1 DUP3 ADD MSTORE PUSH6 0x4150505F4E43 PUSH1 0xD0 SHL PUSH1 0x40 DUP3 ADD MSTORE PUSH1 0x60 ADD SWAP1 JUMP JUMPDEST PUSH1 0x20 DUP1 DUP3 MSTORE PUSH1 0x21 SWAP1 DUP3 ADD MSTORE PUSH32 0x454D3A45453A204173736574206E6F7420696E20657363726F77207374617475 PUSH1 0x40 DUP3 ADD MSTORE PUSH1 0x73 PUSH1 0xF8 SHL PUSH1 0x60 DUP3 ADD MSTORE PUSH1 0x80 ADD SWAP1 JUMP JUMPDEST PUSH1 0x20 DUP1 DUP3 MSTORE PUSH1 0x6 SWAP1 DUP3 ADD MSTORE PUSH6 0x24A22FAA25A7 PUSH1 0xD1 SHL PUSH1 0x40 DUP3 ADD MSTORE PUSH1 0x60 ADD SWAP1 JUMP JUMPDEST PUSH1 0x20 DUP1 DUP3 MSTORE PUSH1 0x7 SWAP1 DUP3 ADD MSTORE PUSH7 0x22A1A92FA6A3A9 PUSH1 0xC9 SHL PUSH1 0x40 DUP3 ADD MSTORE PUSH1 0x60 ADD SWAP1 JUMP JUMPDEST PUSH1 0x20 DUP1 DUP3 MSTORE PUSH1 0x2 SWAP1 DUP3 ADD MSTORE PUSH2 0x4E5 PUSH1 0xF4 SHL PUSH1 0x40 DUP3 ADD MSTORE PUSH1 0x60 ADD SWAP1 JUMP JUMPDEST PUSH1 0x20 DUP1 DUP3 MSTORE PUSH1 0x1F SWAP1 DUP3 ADD MSTORE PUSH32 0x5265656E7472616E637947756172643A207265656E7472616E742063616C6C00 PUSH1 0x40 DUP3 ADD MSTORE PUSH1 0x60 ADD SWAP1 JUMP JUMPDEST PUSH1 0x20 DUP1 DUP3 MSTORE PUSH1 0x8 SWAP1 DUP3 ADD MSTORE PUSH8 0x2AAA24A62FAA25A7 PUSH1 0xC1 SHL PUSH1 0x40 DUP3 ADD MSTORE PUSH1 0x60 ADD SWAP1 JUMP JUMPDEST PUSH1 0x20 DUP1 DUP3 MSTORE PUSH1 0x33 SWAP1 DUP3 ADD MSTORE PUSH32 0x454D3A5045453A20457363726F77206E6F7420656E6461626C65207769746820 PUSH1 0x40 DUP3 ADD MSTORE PUSH19 0x7065726D697373697665456E64457363726F77 PUSH1 0x68 SHL PUSH1 0x60 DUP3 ADD MSTORE PUSH1 0x80 ADD SWAP1 JUMP JUMPDEST PUSH1 0x20 DUP1 DUP3 MSTORE PUSH1 0x6 SWAP1 DUP3 ADD MSTORE PUSH6 0x20A1AFA6A3A9 PUSH1 0xD1 SHL PUSH1 0x40 DUP3 ADD MSTORE PUSH1 0x60 ADD SWAP1 JUMP JUMPDEST PUSH1 0x20 DUP1 DUP3 MSTORE PUSH1 0x2F SWAP1 DUP3 ADD MSTORE PUSH32 0x416363657373436F6E74726F6C3A2063616E206F6E6C792072656E6F756E6365 PUSH1 0x40 DUP3 ADD MSTORE PUSH15 0x103937B632B9903337B91039B2B633 PUSH1 0x89 SHL PUSH1 0x60 DUP3 ADD MSTORE PUSH1 0x80 ADD SWAP1 JUMP JUMPDEST PUSH1 0x20 DUP1 DUP3 MSTORE PUSH1 0x3C SWAP1 DUP3 ADD MSTORE PUSH32 0x454D3A45453A204F6E6C7920636F6E747261637420776974682073616D65206E PUSH1 0x40 DUP3 ADD MSTORE PUSH32 0x616D65206173207365747465722063616E20656E6420657363726F7700000000 PUSH1 0x60 DUP3 ADD MSTORE PUSH1 0x80 ADD SWAP1 JUMP JUMPDEST PUSH1 0x0 PUSH2 0x100 DUP3 ADD SWAP1 POP PUSH4 0xFFFFFFFF DUP1 DUP5 MLOAD AND DUP4 MSTORE DUP1 PUSH1 0x20 DUP6 ADD MLOAD AND PUSH1 0x20 DUP5 ADD MSTORE DUP1 PUSH1 0x40 DUP6 ADD MLOAD AND PUSH1 0x40 DUP5 ADD MSTORE POP PUSH1 0x1 DUP1 PUSH1 0xA0 SHL SUB PUSH1 0x60 DUP5 ADD MLOAD AND PUSH1 0x60 DUP4 ADD MSTORE PUSH1 0x80 DUP4 ADD MLOAD PUSH1 0x80 DUP4 ADD MSTORE PUSH1 0xA0 DUP4 ADD MLOAD PUSH1 0xA0 DUP4 ADD MSTORE PUSH1 0xC0 DUP4 ADD MLOAD PUSH1 0xC0 DUP4 ADD MSTORE PUSH1 0xE0 DUP4 ADD MLOAD PUSH1 0xE0 DUP4 ADD MSTORE SWAP3 SWAP2 POP POP JUMP JUMPDEST PUSH1 0x0 PUSH2 0x100 DUP3 ADD SWAP1 POP PUSH1 0xFF DUP4 MLOAD AND DUP3 MSTORE PUSH1 0xFF PUSH1 0x20 DUP5 ADD MLOAD AND PUSH1 0x20 DUP4 ADD MSTORE PUSH1 0xFF PUSH1 0x40 DUP5 ADD MLOAD AND PUSH1 0x40 DUP4 ADD MSTORE PUSH1 0xFF PUSH1 0x60 DUP5 ADD MLOAD AND PUSH1 0x60 DUP4 ADD MSTORE PUSH2 0xFFFF PUSH1 0x80 DUP5 ADD MLOAD AND PUSH1 0x80 DUP4 ADD MSTORE PUSH1 0xA0 DUP4 ADD MLOAD PUSH2 0x272B PUSH1 0xA0 DUP5 ADD DUP3 PUSH2 0x1FA8 JUMP JUMPDEST POP PUSH1 0xC0 DUP4 ADD MLOAD PUSH2 0x273E PUSH1 0xC0 DUP5 ADD DUP3 PUSH2 0x1FB0 JUMP JUMPDEST POP PUSH1 0xE0 DUP4 ADD MLOAD PUSH2 0x1B7A PUSH1 0xE0 DUP5 ADD DUP3 PUSH2 0x1F9B JUMP JUMPDEST DUP2 MLOAD DUP2 MSTORE PUSH1 0x20 DUP1 DUP4 ADD MLOAD SWAP1 DUP3 ADD MSTORE PUSH1 0x40 SWAP2 DUP3 ADD MLOAD SWAP2 DUP2 ADD SWAP2 SWAP1 SWAP2 MSTORE PUSH1 0x60 ADD SWAP1 JUMP JUMPDEST PUSH1 0x40 MLOAD PUSH1 0x1F DUP3 ADD PUSH1 0x1F NOT AND DUP2 ADD PUSH8 0xFFFFFFFFFFFFFFFF DUP2 GT DUP3 DUP3 LT OR ISZERO PUSH2 0x27A9 JUMPI PUSH4 0x4E487B71 PUSH1 0xE0 SHL PUSH1 0x0 MSTORE PUSH1 0x41 PUSH1 0x4 MSTORE PUSH1 0x24 PUSH1 0x0 REVERT JUMPDEST PUSH1 0x40 MSTORE SWAP2 SWAP1 POP JUMP JUMPDEST PUSH1 0x0 DUP3 NOT DUP3 GT ISZERO PUSH2 0x27C4 JUMPI PUSH2 0x27C4 PUSH2 0x27E0 JUMP JUMPDEST POP ADD SWAP1 JUMP JUMPDEST PUSH1 0x0 DUP3 DUP3 LT ISZERO PUSH2 0x27DB JUMPI PUSH2 0x27DB PUSH2 0x27E0 JUMP JUMPDEST POP SUB SWAP1 JUMP JUMPDEST PUSH4 0x4E487B71 PUSH1 0xE0 SHL PUSH1 0x0 MSTORE PUSH1 0x11 PUSH1 0x4 MSTORE PUSH1 0x24 PUSH1 0x0 REVERT JUMPDEST PUSH1 0x0 DUP2 CALLDATALOAD PUSH2 0x837 DUP2 PUSH2 0x2A56 JUMP JUMPDEST PUSH1 0x0 DUP2 CALLDATALOAD PUSH2 0x837 DUP2 PUSH2 0x2A6E JUMP JUMPDEST PUSH1 0x0 DUP2 CALLDATALOAD PUSH2 0x837 DUP2 PUSH2 0x2A7E JUMP JUMPDEST PUSH1 0x0 DUP2 CALLDATALOAD PUSH2 0x837 DUP2 PUSH2 0x2A90 JUMP JUMPDEST DUP2 CALLDATALOAD PUSH2 0x2835 DUP2 PUSH2 0x2A7E JUMP JUMPDEST PUSH4 0xFFFFFFFF DUP2 AND PUSH4 0xFFFFFFFF NOT DUP4 SLOAD AND OR DUP3 SSTORE POP PUSH1 0x20 DUP3 ADD CALLDATALOAD PUSH2 0x2857 DUP2 PUSH2 0x2A7E JUMP JUMPDEST PUSH2 0x2861 DUP2 DUP4 PUSH2 0x29EC JUMP JUMPDEST POP PUSH2 0x2877 PUSH2 0x2871 PUSH1 0x40 DUP5 ADD PUSH2 0x2810 JUMP JUMPDEST DUP3 PUSH2 0x2A34 JUMP JUMPDEST PUSH2 0x288C PUSH2 0x2886 PUSH1 0x60 DUP5 ADD PUSH2 0x27F6 JUMP JUMPDEST DUP3 PUSH2 0x296A JUMP JUMPDEST PUSH1 0x80 DUP3 ADD CALLDATALOAD PUSH1 0x1 DUP3 ADD SSTORE PUSH1 0xA0 DUP3 ADD CALLDATALOAD PUSH1 0x2 DUP3 ADD SSTORE PUSH1 0xC0 DUP3 ADD CALLDATALOAD PUSH1 0x3 DUP3 ADD SSTORE PUSH1 0xE0 DUP3 ADD CALLDATALOAD PUSH1 0x4 DUP3 ADD SSTORE POP POP JUMP JUMPDEST DUP2 CALLDATALOAD PUSH2 0x28C3 DUP2 PUSH2 0x2A90 JUMP JUMPDEST DUP2 SLOAD PUSH1 0xFF NOT AND PUSH1 0xFF SWAP2 SWAP1 SWAP2 AND OR DUP1 DUP3 SSTORE PUSH1 0x20 DUP4 ADD CALLDATALOAD PUSH2 0x28E1 DUP2 PUSH2 0x2A90 JUMP JUMPDEST PUSH2 0xFF00 DUP2 PUSH1 0x8 SHL AND PUSH2 0xFF00 NOT DUP4 AND OR DUP4 SSTORE POP POP PUSH1 0x40 DUP3 ADD CALLDATALOAD PUSH2 0x2902 DUP2 PUSH2 0x2A90 JUMP JUMPDEST PUSH2 0x290C DUP2 DUP4 PUSH2 0x2996 JUMP JUMPDEST POP PUSH2 0x2922 PUSH2 0x291C PUSH1 0x60 DUP5 ADD PUSH2 0x281D JUMP JUMPDEST DUP3 PUSH2 0x29B0 JUMP JUMPDEST PUSH2 0x2937 PUSH2 0x2931 PUSH1 0x80 DUP5 ADD PUSH2 0x2803 JUMP JUMPDEST DUP3 PUSH2 0x29CC JUMP JUMPDEST PUSH2 0x294C PUSH2 0x2946 PUSH1 0xA0 DUP5 ADD PUSH2 0x2803 JUMP JUMPDEST DUP3 PUSH2 0x2A10 JUMP JUMPDEST PUSH2 0x295B PUSH2 0x2871 PUSH1 0xC0 DUP5 ADD PUSH2 0x2810 JUMP JUMPDEST PUSH2 0x4AC PUSH2 0x2886 PUSH1 0xE0 DUP5 ADD PUSH2 0x27F6 JUMP JUMPDEST DUP1 SLOAD PUSH12 0xFFFFFFFFFFFFFFFFFFFFFFFF NOT DUP4 PUSH1 0x60 SHL AND PUSH12 0xFFFFFFFFFFFFFFFFFFFFFFFF DUP3 AND OR DUP3 SSTORE POP POP POP JUMP JUMPDEST DUP1 SLOAD PUSH3 0xFF0000 DUP4 PUSH1 0x10 SHL AND PUSH3 0xFF0000 NOT DUP3 AND OR DUP3 SSTORE POP POP POP JUMP JUMPDEST DUP1 SLOAD PUSH4 0xFF000000 DUP4 PUSH1 0x18 SHL AND PUSH4 0xFF000000 NOT DUP3 AND OR DUP3 SSTORE POP POP POP JUMP JUMPDEST DUP1 SLOAD PUSH6 0xFFFF00000000 DUP4 PUSH1 0x20 SHL AND PUSH6 0xFFFF00000000 NOT DUP3 AND OR DUP3 SSTORE POP POP POP JUMP JUMPDEST DUP1 SLOAD PUSH8 0xFFFFFFFF00000000 DUP4 PUSH1 0x20 SHL AND PUSH8 0xFFFFFFFF00000000 NOT DUP3 AND OR DUP3 SSTORE POP POP POP JUMP JUMPDEST DUP1 SLOAD PUSH8 0xFFFF000000000000 DUP4 PUSH1 0x30 SHL AND PUSH8 0xFFFF000000000000 NOT DUP3 AND OR DUP3 SSTORE POP POP POP JUMP JUMPDEST DUP1 SLOAD PUSH4 0xFFFFFFFF PUSH1 0x40 SHL DUP4 PUSH1 0x40 SHL AND PUSH4 0xFFFFFFFF PUSH1 0x40 SHL NOT DUP3 AND OR DUP3 SSTORE POP POP POP JUMP JUMPDEST PUSH1 0x1 PUSH1 0x1 PUSH1 0xA0 SHL SUB DUP2 AND DUP2 EQ PUSH2 0x2A6B JUMPI PUSH1 0x0 DUP1 REVERT JUMPDEST POP JUMP JUMPDEST PUSH2 0xFFFF DUP2 AND DUP2 EQ PUSH2 0x2A6B JUMPI PUSH1 0x0 DUP1 REVERT JUMPDEST PUSH4 0xFFFFFFFF DUP2 AND DUP2 EQ PUSH2 0x2A6B JUMPI PUSH1 0x0 DUP1 REVERT JUMPDEST PUSH1 0xFF DUP2 AND DUP2 EQ PUSH2 0x2A6B JUMPI PUSH1 0x0 DUP1 REVERT INVALID 0x2C 0xE8 0xD0 0x4A SWAP13 CALLDATALOAD SWAP9 PUSH21 0x29AF538825CD2438CC5C5BB5DC427955F84DAAA3EA LT POP AND LOG2 PUSH5 0x6970667358 0x22 SLT KECCAK256 MSTORE8 PUSH14 0xCC9E4E873EFF7DC22F5D2837ECBB 0xC9 SWAP11 0xF7 0xE6 PUSH26 0x69C34F80C024A4BEF2294964736F6C6343000801003300000000 "
		},
		"gasEstimates": {
			"creation": {
				"codeDepositCost": "2199400",
				"executionCost": "infinite",
				"totalCost": "infinite"
			},
			"external": {
				"ASSET_TXFR_ROLE()": "297",
				"CONTRACT_ADMIN_ROLE()": "infinite",
				"DEFAULT_ADMIN_ROLE()": "318",
				"OO_resolveContractAddresses()": "infinite",
				"OO_setStorageContract(address)": "infinite",
				"OO_transferACToken(address,uint256)": "infinite",
				"PAUSER_ROLE()": "294",
				"endEscrow(bytes32)": "infinite",
				"getRoleAdmin(bytes32)": "1245",
				"getRoleMember(bytes32,uint256)": "infinite",
				"getRoleMemberCount(bytes32)": "infinite",
				"grantRole(bytes32,address)": "infinite",
				"hasRole(bytes32,address)": "infinite",
				"onERC721Received(address,address,uint256,bytes)": "infinite",
				"pause()": "infinite",
				"paused()": "1130",
				"permissiveEndEscrow(bytes32)": "infinite",
				"renounceRole(bytes32,address)": "infinite",
				"retrieveEscrowData(bytes32)": "3109",
				"retrieveEscrowDataHeavy(bytes32)": "5224",
				"retrieveEscrowDataLight(bytes32)": "2127",
				"retrieveEscrowOwner(bytes32)": "1230",
				"revokeRole(bytes32,address)": "infinite",
				"setEscrow(bytes32,uint8,bytes32,uint256)": "infinite",
				"setEscrowDataHeavy(bytes32,(uint32,uint32,uint32,address,bytes32,bytes32,uint256,uint256))": "infinite",
				"setEscrowDataLight(bytes32,(uint8,uint8,uint8,uint8,uint16,uint16,uint32,address))": "infinite",
				"transferAssetToken(address,bytes32)": "infinite",
				"unpause()": "infinite"
			},
			"internal": {
				"isEscrow(uint8)": "192",
				"isLostOrStolen(uint8)": "infinite"
			}
		},
		"methodIdentifiers": {
			"ASSET_TXFR_ROLE()": "1429db5f",
			"CONTRACT_ADMIN_ROLE()": "1da03312",
			"DEFAULT_ADMIN_ROLE()": "a217fddf",
			"OO_resolveContractAddresses()": "e8b41653",
			"OO_setStorageContract(address)": "d6b02ecf",
			"OO_transferACToken(address,uint256)": "92ba3da6",
			"PAUSER_ROLE()": "e63ab1e9",
			"endEscrow(bytes32)": "e8e1152c",
			"getRoleAdmin(bytes32)": "248a9ca3",
			"getRoleMember(bytes32,uint256)": "9010d07c",
			"getRoleMemberCount(bytes32)": "ca15c873",
			"grantRole(bytes32,address)": "2f2ff15d",
			"hasRole(bytes32,address)": "91d14854",
			"onERC721Received(address,address,uint256,bytes)": "150b7a02",
			"pause()": "8456cb59",
			"paused()": "5c975abb",
			"permissiveEndEscrow(bytes32)": "df7518d2",
			"renounceRole(bytes32,address)": "36568abe",
			"retrieveEscrowData(bytes32)": "a3b3fe50",
			"retrieveEscrowDataHeavy(bytes32)": "ca4bc33e",
			"retrieveEscrowDataLight(bytes32)": "75855a5b",
			"retrieveEscrowOwner(bytes32)": "019b0f5f",
			"revokeRole(bytes32,address)": "d547741f",
			"setEscrow(bytes32,uint8,bytes32,uint256)": "e6308c56",
			"setEscrowDataHeavy(bytes32,(uint32,uint32,uint32,address,bytes32,bytes32,uint256,uint256))": "dbd95ba3",
			"setEscrowDataLight(bytes32,(uint8,uint8,uint8,uint8,uint16,uint16,uint32,address))": "826cdff9",
			"transferAssetToken(address,bytes32)": "440e7a7e",
			"unpause()": "3f4ba83a"
		}
	},
	"abi": [
		{
			"anonymous": false,
			"inputs": [
				{
					"indexed": false,
					"internalType": "address",
					"name": "account",
					"type": "address"
				}
			],
			"name": "Paused",
			"type": "event"
		},
		{
			"anonymous": false,
			"inputs": [
				{
					"indexed": false,
					"internalType": "string",
					"name": "_msg",
					"type": "string"
				}
			],
			"name": "REPORT",
			"type": "event"
		},
		{
			"anonymous": false,
			"inputs": [
				{
					"indexed": true,
					"internalType": "bytes32",
					"name": "role",
					"type": "bytes32"
				},
				{
					"indexed": true,
					"internalType": "bytes32",
					"name": "previousAdminRole",
					"type": "bytes32"
				},
				{
					"indexed": true,
					"internalType": "bytes32",
					"name": "newAdminRole",
					"type": "bytes32"
				}
			],
			"name": "RoleAdminChanged",
			"type": "event"
		},
		{
			"anonymous": false,
			"inputs": [
				{
					"indexed": true,
					"internalType": "bytes32",
					"name": "role",
					"type": "bytes32"
				},
				{
					"indexed": true,
					"internalType": "address",
					"name": "account",
					"type": "address"
				},
				{
					"indexed": true,
					"internalType": "address",
					"name": "sender",
					"type": "address"
				}
			],
			"name": "RoleGranted",
			"type": "event"
		},
		{
			"anonymous": false,
			"inputs": [
				{
					"indexed": true,
					"internalType": "bytes32",
					"name": "role",
					"type": "bytes32"
				},
				{
					"indexed": true,
					"internalType": "address",
					"name": "account",
					"type": "address"
				},
				{
					"indexed": true,
					"internalType": "address",
					"name": "sender",
					"type": "address"
				}
			],
			"name": "RoleRevoked",
			"type": "event"
		},
		{
			"anonymous": false,
			"inputs": [
				{
					"indexed": false,
					"internalType": "address",
					"name": "account",
					"type": "address"
				}
			],
			"name": "Unpaused",
			"type": "event"
		},
		{
			"inputs": [],
			"name": "ASSET_TXFR_ROLE",
			"outputs": [
				{
					"internalType": "bytes32",
					"name": "",
					"type": "bytes32"
				}
			],
			"stateMutability": "view",
			"type": "function"
		},
		{
			"inputs": [],
			"name": "CONTRACT_ADMIN_ROLE",
			"outputs": [
				{
					"internalType": "bytes32",
					"name": "",
					"type": "bytes32"
				}
			],
			"stateMutability": "view",
			"type": "function"
		},
		{
			"inputs": [],
			"name": "DEFAULT_ADMIN_ROLE",
			"outputs": [
				{
					"internalType": "bytes32",
					"name": "",
					"type": "bytes32"
				}
			],
			"stateMutability": "view",
			"type": "function"
		},
		{
			"inputs": [],
			"name": "OO_resolveContractAddresses",
			"outputs": [],
			"stateMutability": "nonpayable",
			"type": "function"
		},
		{
			"inputs": [
				{
					"internalType": "address",
					"name": "_storageAddress",
					"type": "address"
				}
			],
			"name": "OO_setStorageContract",
			"outputs": [],
			"stateMutability": "nonpayable",
			"type": "function"
		},
		{
			"inputs": [
				{
					"internalType": "address",
					"name": "_to",
					"type": "address"
				},
				{
					"internalType": "uint256",
					"name": "_tokenID",
					"type": "uint256"
				}
			],
			"name": "OO_transferACToken",
			"outputs": [],
			"stateMutability": "nonpayable",
			"type": "function"
		},
		{
			"inputs": [],
			"name": "PAUSER_ROLE",
			"outputs": [
				{
					"internalType": "bytes32",
					"name": "",
					"type": "bytes32"
				}
			],
			"stateMutability": "view",
			"type": "function"
		},
		{
			"inputs": [
				{
					"internalType": "bytes32",
					"name": "_idxHash",
					"type": "bytes32"
				}
			],
			"name": "endEscrow",
			"outputs": [],
			"stateMutability": "nonpayable",
			"type": "function"
		},
		{
			"inputs": [
				{
					"internalType": "bytes32",
					"name": "role",
					"type": "bytes32"
				}
			],
			"name": "getRoleAdmin",
			"outputs": [
				{
					"internalType": "bytes32",
					"name": "",
					"type": "bytes32"
				}
			],
			"stateMutability": "view",
			"type": "function"
		},
		{
			"inputs": [
				{
					"internalType": "bytes32",
					"name": "role",
					"type": "bytes32"
				},
				{
					"internalType": "uint256",
					"name": "index",
					"type": "uint256"
				}
			],
			"name": "getRoleMember",
			"outputs": [
				{
					"internalType": "address",
					"name": "",
					"type": "address"
				}
			],
			"stateMutability": "view",
			"type": "function"
		},
		{
			"inputs": [
				{
					"internalType": "bytes32",
					"name": "role",
					"type": "bytes32"
				}
			],
			"name": "getRoleMemberCount",
			"outputs": [
				{
					"internalType": "uint256",
					"name": "",
					"type": "uint256"
				}
			],
			"stateMutability": "view",
			"type": "function"
		},
		{
			"inputs": [
				{
					"internalType": "bytes32",
					"name": "role",
					"type": "bytes32"
				},
				{
					"internalType": "address",
					"name": "account",
					"type": "address"
				}
			],
			"name": "grantRole",
			"outputs": [],
			"stateMutability": "nonpayable",
			"type": "function"
		},
		{
			"inputs": [
				{
					"internalType": "bytes32",
					"name": "role",
					"type": "bytes32"
				},
				{
					"internalType": "address",
					"name": "account",
					"type": "address"
				}
			],
			"name": "hasRole",
			"outputs": [
				{
					"internalType": "bool",
					"name": "",
					"type": "bool"
				}
			],
			"stateMutability": "view",
			"type": "function"
		},
		{
			"inputs": [
				{
					"internalType": "address",
					"name": "",
					"type": "address"
				},
				{
					"internalType": "address",
					"name": "",
					"type": "address"
				},
				{
					"internalType": "uint256",
					"name": "",
					"type": "uint256"
				},
				{
					"internalType": "bytes",
					"name": "",
					"type": "bytes"
				}
			],
			"name": "onERC721Received",
			"outputs": [
				{
					"internalType": "bytes4",
					"name": "",
					"type": "bytes4"
				}
			],
			"stateMutability": "nonpayable",
			"type": "function"
		},
		{
			"inputs": [],
			"name": "pause",
			"outputs": [],
			"stateMutability": "nonpayable",
			"type": "function"
		},
		{
			"inputs": [],
			"name": "paused",
			"outputs": [
				{
					"internalType": "bool",
					"name": "",
					"type": "bool"
				}
			],
			"stateMutability": "view",
			"type": "function"
		},
		{
			"inputs": [
				{
					"internalType": "bytes32",
					"name": "_idxHash",
					"type": "bytes32"
				}
			],
			"name": "permissiveEndEscrow",
			"outputs": [],
			"stateMutability": "nonpayable",
			"type": "function"
		},
		{
			"inputs": [
				{
					"internalType": "bytes32",
					"name": "role",
					"type": "bytes32"
				},
				{
					"internalType": "address",
					"name": "account",
					"type": "address"
				}
			],
			"name": "renounceRole",
			"outputs": [],
			"stateMutability": "nonpayable",
			"type": "function"
		},
		{
			"inputs": [
				{
					"internalType": "bytes32",
					"name": "_idxHash",
					"type": "bytes32"
				}
			],
			"name": "retrieveEscrowData",
			"outputs": [
				{
					"components": [
						{
							"internalType": "bytes32",
							"name": "controllingContractNameHash",
							"type": "bytes32"
						},
						{
							"internalType": "bytes32",
							"name": "escrowOwnerAddressHash",
							"type": "bytes32"
						},
						{
							"internalType": "uint256",
							"name": "timelock",
							"type": "uint256"
						}
					],
					"internalType": "struct escrowData",
					"name": "",
					"type": "tuple"
				}
			],
			"stateMutability": "view",
			"type": "function"
		},
		{
			"inputs": [
				{
					"internalType": "bytes32",
					"name": "_idxHash",
					"type": "bytes32"
				}
			],
			"name": "retrieveEscrowDataHeavy",
			"outputs": [
				{
					"components": [
						{
							"internalType": "uint32",
							"name": "u32_2",
							"type": "uint32"
						},
						{
							"internalType": "uint32",
							"name": "u32_3",
							"type": "uint32"
						},
						{
							"internalType": "uint32",
							"name": "u32_4",
							"type": "uint32"
						},
						{
							"internalType": "address",
							"name": "addr_2",
							"type": "address"
						},
						{
							"internalType": "bytes32",
							"name": "b32_1",
							"type": "bytes32"
						},
						{
							"internalType": "bytes32",
							"name": "b32_2",
							"type": "bytes32"
						},
						{
							"internalType": "uint256",
							"name": "u256_1",
							"type": "uint256"
						},
						{
							"internalType": "uint256",
							"name": "u256_2",
							"type": "uint256"
						}
					],
					"internalType": "struct escrowDataExtHeavy",
					"name": "",
					"type": "tuple"
				}
			],
			"stateMutability": "view",
			"type": "function"
		},
		{
			"inputs": [
				{
					"internalType": "bytes32",
					"name": "_idxHash",
					"type": "bytes32"
				}
			],
			"name": "retrieveEscrowDataLight",
			"outputs": [
				{
					"components": [
						{
							"internalType": "uint8",
							"name": "escrowData",
							"type": "uint8"
						},
						{
							"internalType": "uint8",
							"name": "u8_1",
							"type": "uint8"
						},
						{
							"internalType": "uint8",
							"name": "u8_2",
							"type": "uint8"
						},
						{
							"internalType": "uint8",
							"name": "u8_3",
							"type": "uint8"
						},
						{
							"internalType": "uint16",
							"name": "u16_1",
							"type": "uint16"
						},
						{
							"internalType": "uint16",
							"name": "u16_2",
							"type": "uint16"
						},
						{
							"internalType": "uint32",
							"name": "u32_1",
							"type": "uint32"
						},
						{
							"internalType": "address",
							"name": "addr_1",
							"type": "address"
						}
					],
					"internalType": "struct escrowDataExtLight",
					"name": "",
					"type": "tuple"
				}
			],
			"stateMutability": "view",
			"type": "function"
		},
		{
			"inputs": [
				{
					"internalType": "bytes32",
					"name": "_idxHash",
					"type": "bytes32"
				}
			],
			"name": "retrieveEscrowOwner",
			"outputs": [
				{
					"internalType": "bytes32",
					"name": "",
					"type": "bytes32"
				}
			],
			"stateMutability": "view",
			"type": "function"
		},
		{
			"inputs": [
				{
					"internalType": "bytes32",
					"name": "role",
					"type": "bytes32"
				},
				{
					"internalType": "address",
					"name": "account",
					"type": "address"
				}
			],
			"name": "revokeRole",
			"outputs": [],
			"stateMutability": "nonpayable",
			"type": "function"
		},
		{
			"inputs": [
				{
					"internalType": "bytes32",
					"name": "_idxHash",
					"type": "bytes32"
				},
				{
					"internalType": "uint8",
					"name": "_newAssetStatus",
					"type": "uint8"
				},
				{
					"internalType": "bytes32",
					"name": "_escrowOwnerAddressHash",
					"type": "bytes32"
				},
				{
					"internalType": "uint256",
					"name": "_timelock",
					"type": "uint256"
				}
			],
			"name": "setEscrow",
			"outputs": [],
			"stateMutability": "nonpayable",
			"type": "function"
		},
		{
			"inputs": [
				{
					"internalType": "bytes32",
					"name": "_idxHash",
					"type": "bytes32"
				},
				{
					"components": [
						{
							"internalType": "uint32",
							"name": "u32_2",
							"type": "uint32"
						},
						{
							"internalType": "uint32",
							"name": "u32_3",
							"type": "uint32"
						},
						{
							"internalType": "uint32",
							"name": "u32_4",
							"type": "uint32"
						},
						{
							"internalType": "address",
							"name": "addr_2",
							"type": "address"
						},
						{
							"internalType": "bytes32",
							"name": "b32_1",
							"type": "bytes32"
						},
						{
							"internalType": "bytes32",
							"name": "b32_2",
							"type": "bytes32"
						},
						{
							"internalType": "uint256",
							"name": "u256_1",
							"type": "uint256"
						},
						{
							"internalType": "uint256",
							"name": "u256_2",
							"type": "uint256"
						}
					],
					"internalType": "struct escrowDataExtHeavy",
					"name": "escrowDataHeavy",
					"type": "tuple"
				}
			],
			"name": "setEscrowDataHeavy",
			"outputs": [],
			"stateMutability": "nonpayable",
			"type": "function"
		},
		{
			"inputs": [
				{
					"internalType": "bytes32",
					"name": "_idxHash",
					"type": "bytes32"
				},
				{
					"components": [
						{
							"internalType": "uint8",
							"name": "escrowData",
							"type": "uint8"
						},
						{
							"internalType": "uint8",
							"name": "u8_1",
							"type": "uint8"
						},
						{
							"internalType": "uint8",
							"name": "u8_2",
							"type": "uint8"
						},
						{
							"internalType": "uint8",
							"name": "u8_3",
							"type": "uint8"
						},
						{
							"internalType": "uint16",
							"name": "u16_1",
							"type": "uint16"
						},
						{
							"internalType": "uint16",
							"name": "u16_2",
							"type": "uint16"
						},
						{
							"internalType": "uint32",
							"name": "u32_1",
							"type": "uint32"
						},
						{
							"internalType": "address",
							"name": "addr_1",
							"type": "address"
						}
					],
					"internalType": "struct escrowDataExtLight",
					"name": "_escrowDataLight",
					"type": "tuple"
				}
			],
			"name": "setEscrowDataLight",
			"outputs": [],
			"stateMutability": "nonpayable",
			"type": "function"
		},
		{
			"inputs": [
				{
					"internalType": "address",
					"name": "_to",
					"type": "address"
				},
				{
					"internalType": "bytes32",
					"name": "_idxHash",
					"type": "bytes32"
				}
			],
			"name": "transferAssetToken",
			"outputs": [],
			"stateMutability": "nonpayable",
			"type": "function"
		},
		{
			"inputs": [],
			"name": "unpause",
			"outputs": [],
			"stateMutability": "nonpayable",
			"type": "function"
		}
	]
}