{
	"data": {
		"bytecode": {
			"linkReferences": {},
			"object": "60806040523480156200001157600080fd5b50600160008190555060006200002c620000ec60201b60201c565b905080600160006101000a81548173ffffffffffffffffffffffffffffffffffffffff021916908373ffffffffffffffffffffffffffffffffffffffff1602179055508073ffffffffffffffffffffffffffffffffffffffff16600073ffffffffffffffffffffffffffffffffffffffff167f8be0079c531659141344cd1fd0a4f28419497f9722a3daafe3b4186f6b6457e060405160405180910390a3506000600160146101000a81548160ff021916908315150217905550620000f4565b600033905090565b6144c080620001046000396000f3fe608060405234801561001057600080fd5b50600436106101005760003560e01c8063c84375df11610097578063e8b4165311610066578063e8b4165314610470578063e927244c1461047a578063ee54387b146104d6578063f2fde38b1461052c57610100565b8063c84375df1461035b578063cf2b6f66146103bd578063d6b02ecf146103c7578063e620bf381461040b57610100565b8063715018a6116100d3578063715018a6146102c55780638da5cb5b146102cf578063961e809b14610303578063c79b226e1461030d57610100565b8063150b7a0214610105578063440e7a7e146101fb5780635c975abb146102495780636dcd1f5a14610269575b600080fd5b6101c66004803603608081101561011b57600080fd5b81019080803573ffffffffffffffffffffffffffffffffffffffff169060200190929190803573ffffffffffffffffffffffffffffffffffffffff169060200190929190803590602001909291908035906020019064010000000081111561018257600080fd5b82018360208201111561019457600080fd5b803590602001918460018302840111640100000000831117156101b657600080fd5b9091929391929390505050610570565b60405180827bffffffffffffffffffffffffffffffffffffffffffffffffffffffff1916815260200191505060405180910390f35b6102476004803603604081101561021157600080fd5b81019080803573ffffffffffffffffffffffffffffffffffffffff16906020019092919080359060200190929190505050610585565b005b6102516107c7565b60405180821515815260200191505060405180910390f35b6102ac6004803603606081101561027f57600080fd5b810190808035906020019092919080359060200190929190803560ff1690602001909291905050506107de565b604051808260ff16815260200191505060405180910390f35b6102cd610d63565b005b6102d7610eee565b604051808273ffffffffffffffffffffffffffffffffffffffff16815260200191505060405180910390f35b61030b610f18565b005b6103596004803603604081101561032357600080fd5b81019080803573ffffffffffffffffffffffffffffffffffffffff16906020019092919080359060200190929190505050610fec565b005b6103a16004803603606081101561037157600080fd5b810190808035906020019092919080359060200190929190803563ffffffff169060200190929190505050611215565b604051808263ffffffff16815260200191505060405180910390f35b6103c5611662565b005b610409600480360360208110156103dd57600080fd5b81019080803573ffffffffffffffffffffffffffffffffffffffff169060200190929190505050611736565b005b6104576004803603604081101561042157600080fd5b8101908080359060200190929190803573ffffffffffffffffffffffffffffffffffffffff1690602001909291905050506118ca565b604051808260ff16815260200191505060405180910390f35b610478611dd2565b005b6104bd6004803603606081101561049057600080fd5b810190808035906020019092919080359060200190929190803560ff169060200190929190505050612d75565b604051808260ff16815260200191505060405180910390f35b610516600480360360608110156104ec57600080fd5b81019080803590602001909291908035906020019092919080359060200190929190505050613226565b6040518082815260200191505060405180910390f35b61056e6004803603602081101561054257600080fd5b81019080803573ffffffffffffffffffffffffffffffffffffffff169060200190929190505050613628565b005b600063150b7a0260e01b905095945050505050565b600260005414156105fe576040517f08c379a000000000000000000000000000000000000000000000000000000000815260040180806020018281038252601f8152602001807f5265656e7472616e637947756172643a207265656e7472616e742063616c6c0081525060200191505060405180910390fd5b600260008190555061060e610eee565b73ffffffffffffffffffffffffffffffffffffffff163373ffffffffffffffffffffffffffffffffffffffff1614806106945750601760009054906101000a900473ffffffffffffffffffffffffffffffffffffffff1673ffffffffffffffffffffffffffffffffffffffff163373ffffffffffffffffffffffffffffffffffffffff16145b6106e9576040517f08c379a000000000000000000000000000000000000000000000000000000000815260040180806020018281038252602681526020018061435a6026913960400191505060405180910390fd5b60008160001c9050600960009054906101000a900473ffffffffffffffffffffffffffffffffffffffff1673ffffffffffffffffffffffffffffffffffffffff166342842e0e3085846040518463ffffffff1660e01b8152600401808473ffffffffffffffffffffffffffffffffffffffff1681526020018373ffffffffffffffffffffffffffffffffffffffff1681526020018281526020019350505050600060405180830381600087803b1580156107a257600080fd5b505af11580156107b6573d6000803e3d6000fd5b505050505060016000819055505050565b6000600160149054906101000a900460ff16905090565b600060026000541415610859576040517f08c379a000000000000000000000000000000000000000000000000000000000815260040180806020018281038252601f8152602001807f5265656e7472616e637947756172643a207265656e7472616e742063616c6c0081525060200191505060405180910390fd5b6002600081905550600160149054906101000a900460ff16156108e4576040517f08c379a00000000000000000000000000000000000000000000000000000000081526004018080602001828103825260108152602001807f5061757361626c653a207061757365640000000000000000000000000000000081525060200191505060405180910390fd5b8360008160001c9050601260009054906101000a900473ffffffffffffffffffffffffffffffffffffffff1673ffffffffffffffffffffffffffffffffffffffff16600960009054906101000a900473ffffffffffffffffffffffffffffffffffffffff1673ffffffffffffffffffffffffffffffffffffffff16636352211e836040518263ffffffff1660e01b815260040180828152602001915050602060405180830381600087803b15801561099b57600080fd5b505af11580156109af573d6000803e3d6000fd5b505050506040513d60208110156109c557600080fd5b810190808051906020019092919050505073ffffffffffffffffffffffffffffffffffffffff1614610a42576040517f08c379a00000000000000000000000000000000000000000000000000000000081526004018080602001828103825260318152602001806142ed6031913960400191505060405180910390fd5b610a4a6140cf565b610a5387613838565b90506000610a6482602001516139d4565b905060008160ff16118015610a7c5750600a8160ff16105b610aee576040517f08c379a000000000000000000000000000000000000000000000000000000000815260040180806020018281038252601a8152602001807f4e503a4d533a2055736572206e6f74206175746820696e20414300000000000081525060200191505060405180910390fd5b60078660ff1614158015610b06575060398660ff1614155b8015610b165750603a8660ff1614155b8015610b25575060648660ff16105b610b97576040517f08c379a00000000000000000000000000000000000000000000000000000000081526004018080602001828103825260118152602001807f4e503a4d533a205374617420527372766400000000000000000000000000000081525060200191505060405180910390fd5b6000610ba287613add565b60ff1614610bfb576040517f08c379a00000000000000000000000000000000000000000000000000000000081526004018080602001828103825260588152602001806143c66058913960600191505060405180910390fd5b6000610c0a8360000151613add565b60ff1614610c63576040517f08c379a000000000000000000000000000000000000000000000000000000000815260040180806020018281038252603c81526020018061431e603c913960400191505060405180910390fd5b6031826000015160ff161180610c7c575060058160ff16105b610cd1576040517f08c379a000000000000000000000000000000000000000000000000000000000815260040180806020018281038252602f81526020018061417e602f913960400191505060405180910390fd5b868260c0015114610d2d576040517f08c379a000000000000000000000000000000000000000000000000000000000815260040180806020018281038252603081526020018061445b6030913960400191505060405180910390fd5b85826000019060ff16908160ff1681525050610d498883613b2f565b816000015194505050505060016000819055509392505050565b610d6b613c88565b73ffffffffffffffffffffffffffffffffffffffff16600160009054906101000a900473ffffffffffffffffffffffffffffffffffffffff1673ffffffffffffffffffffffffffffffffffffffff1614610e2d576040517f08c379a00000000000000000000000000000000000000000000000000000000081526004018080602001828103825260208152602001807f4f776e61626c653a2063616c6c6572206973206e6f7420746865206f776e657281525060200191505060405180910390fd5b600073ffffffffffffffffffffffffffffffffffffffff16600160009054906101000a900473ffffffffffffffffffffffffffffffffffffffff1673ffffffffffffffffffffffffffffffffffffffff167f8be0079c531659141344cd1fd0a4f28419497f9722a3daafe3b4186f6b6457e060405160405180910390a36000600160006101000a81548173ffffffffffffffffffffffffffffffffffffffff021916908373ffffffffffffffffffffffffffffffffffffffff160217905550565b6000600160009054906101000a900473ffffffffffffffffffffffffffffffffffffffff16905090565b610f20613c88565b73ffffffffffffffffffffffffffffffffffffffff16600160009054906101000a900473ffffffffffffffffffffffffffffffffffffffff1673ffffffffffffffffffffffffffffffffffffffff1614610fe2576040517f08c379a00000000000000000000000000000000000000000000000000000000081526004018080602001828103825260208152602001807f4f776e61626c653a2063616c6c6572206973206e6f7420746865206f776e657281525060200191505060405180910390fd5b610fea613c90565b565b610ff4613c88565b73ffffffffffffffffffffffffffffffffffffffff16600160009054906101000a900473ffffffffffffffffffffffffffffffffffffffff1673ffffffffffffffffffffffffffffffffffffffff16146110b6576040517f08c379a00000000000000000000000000000000000000000000000000000000081526004018080602001828103825260208152602001807f4f776e61626c653a2063616c6c6572206973206e6f7420746865206f776e657281525060200191505060405180910390fd5b6002600054141561112f576040517f08c379a000000000000000000000000000000000000000000000000000000000815260040180806020018281038252601f8152602001807f5265656e7472616e637947756172643a207265656e7472616e742063616c6c0081525060200191505060405180910390fd5b600260008190555060008160001c9050600b60009054906101000a900473ffffffffffffffffffffffffffffffffffffffff1673ffffffffffffffffffffffffffffffffffffffff166342842e0e3085846040518463ffffffff1660e01b8152600401808473ffffffffffffffffffffffffffffffffffffffff1681526020018373ffffffffffffffffffffffffffffffffffffffff1681526020018281526020019350505050600060405180830381600087803b1580156111f057600080fd5b505af1158015611204573d6000803e3d6000fd5b505050505060016000819055505050565b600060026000541415611290576040517f08c379a000000000000000000000000000000000000000000000000000000000815260040180806020018281038252601f8152602001807f5265656e7472616e637947756172643a207265656e7472616e742063616c6c0081525060200191505060405180910390fd5b6002600081905550600160149054906101000a900460ff161561131b576040517f08c379a00000000000000000000000000000000000000000000000000000000081526004018080602001828103825260108152602001807f5061757361626c653a207061757365640000000000000000000000000000000081525060200191505060405180910390fd5b8360008160001c9050601260009054906101000a900473ffffffffffffffffffffffffffffffffffffffff1673ffffffffffffffffffffffffffffffffffffffff16600960009054906101000a900473ffffffffffffffffffffffffffffffffffffffff1673ffffffffffffffffffffffffffffffffffffffff16636352211e836040518263ffffffff1660e01b815260040180828152602001915050602060405180830381600087803b1580156113d257600080fd5b505af11580156113e6573d6000803e3d6000fd5b505050506040513d60208110156113fc57600080fd5b810190808051906020019092919050505073ffffffffffffffffffffffffffffffffffffffff1614611479576040517f08c379a00000000000000000000000000000000000000000000000000000000081526004018080602001828103825260318152602001806142ed6031913960400191505060405180910390fd5b6114816140cf565b61148a87613838565b9050600061149b82602001516139d4565b905060008160ff161180156114b35750600a8160ff16105b611525576040517f08c379a000000000000000000000000000000000000000000000000000000000815260040180806020018281038252601a8152602001807f4e503a44433a2075736572206e6f74206175746820696e20414300000000000081525060200191505060405180910390fd5b60006115348360000151613add565b60ff161461158d576040517f08c379a000000000000000000000000000000000000000000000000000000000815260040180806020018281038252603b81526020018061425a603b913960400191505060405180910390fd5b868260c00151146115e9576040517f08c379a00000000000000000000000000000000000000000000000000000000081526004018080602001828103825260308152602001806142bd6030913960400191505060405180910390fd5b8563ffffffff16826040015163ffffffff1611156116245785826040015103826040019063ffffffff16908163ffffffff168152505061163e565b6000826040019063ffffffff16908163ffffffff16815250505b6116488883613b2f565b816040015194505050505060016000819055509392505050565b61166a613c88565b73ffffffffffffffffffffffffffffffffffffffff16600160009054906101000a900473ffffffffffffffffffffffffffffffffffffffff1673ffffffffffffffffffffffffffffffffffffffff161461172c576040517f08c379a00000000000000000000000000000000000000000000000000000000081526004018080602001828103825260208152602001807f4f776e61626c653a2063616c6c6572206973206e6f7420746865206f776e657281525060200191505060405180910390fd5b611734613d83565b565b61173e613c88565b73ffffffffffffffffffffffffffffffffffffffff16600160009054906101000a900473ffffffffffffffffffffffffffffffffffffffff1673ffffffffffffffffffffffffffffffffffffffff1614611800576040517f08c379a00000000000000000000000000000000000000000000000000000000081526004018080602001828103825260208152602001807f4f776e61626c653a2063616c6c6572206973206e6f7420746865206f776e657281525060200191505060405180910390fd5b600073ffffffffffffffffffffffffffffffffffffffff168173ffffffffffffffffffffffffffffffffffffffff161415611886576040517f08c379a00000000000000000000000000000000000000000000000000000000081526004018080602001828103825260258152602001806142356025913960400191505060405180910390fd5b80600360006101000a81548173ffffffffffffffffffffffffffffffffffffffff021916908373ffffffffffffffffffffffffffffffffffffffff16021790555050565b600060026000541415611945576040517f08c379a000000000000000000000000000000000000000000000000000000000815260040180806020018281038252601f8152602001807f5265656e7472616e637947756172643a207265656e7472616e742063616c6c0081525060200191505060405180910390fd5b6002600081905550600160149054906101000a900460ff16156119d0576040517f08c379a00000000000000000000000000000000000000000000000000000000081526004018080602001828103825260108152602001807f5061757361626c653a207061757365640000000000000000000000000000000081525060200191505060405180910390fd5b8260008160001c9050601260009054906101000a900473ffffffffffffffffffffffffffffffffffffffff1673ffffffffffffffffffffffffffffffffffffffff16600960009054906101000a900473ffffffffffffffffffffffffffffffffffffffff1673ffffffffffffffffffffffffffffffffffffffff16636352211e836040518263ffffffff1660e01b815260040180828152602001915050602060405180830381600087803b158015611a8757600080fd5b505af1158015611a9b573d6000803e3d6000fd5b505050506040513d6020811015611ab157600080fd5b810190808051906020019092919050505073ffffffffffffffffffffffffffffffffffffffff1614611b2e576040517f08c379a00000000000000000000000000000000000000000000000000000000081526004018080602001828103825260318152602001806142ed6031913960400191505060405180910390fd5b611b366140cf565b611b3f86613838565b90506000611b5082602001516139d4565b9050611b5a614139565b611b678360200151613e76565b905060008260ff16118015611b7f5750600a8260ff16105b611bf1576040517f08c379a000000000000000000000000000000000000000000000000000000000815260040180806020018281038252601a8152602001807f4e503a45413a2075736572206e6f74206175746820696e20414300000000000081525060200191505060405180910390fd5b6033836000015160ff1614611c51576040517f08c379a00000000000000000000000000000000000000000000000000000000081526004018080602001828103825260288152602001806142956028913960400191505060405180910390fd5b6046836000019060ff16908160ff1681525050601360009054906101000a900473ffffffffffffffffffffffffffffffffffffffff1673ffffffffffffffffffffffffffffffffffffffff1663440e7a7e888a6040518363ffffffff1660e01b8152600401808373ffffffffffffffffffffffffffffffffffffffff16815260200182815260200192505050600060405180830381600087803b158015611cf757600080fd5b505af1158015611d0b573d6000803e3d6000fd5b50505050611d198884613b2f565b600360009054906101000a900473ffffffffffffffffffffffffffffffffffffffff1673ffffffffffffffffffffffffffffffffffffffff166362a02f868983602001516040518363ffffffff1660e01b8152600401808381526020018263ffffffff16815260200192505050600060405180830381600087803b158015611da057600080fd5b505af1158015611db4573d6000803e3d6000fd5b50505050826000015195505050505050600160008190555092915050565b60026000541415611e4b576040517f08c379a000000000000000000000000000000000000000000000000000000000815260040180806020018281038252601f8152602001807f5265656e7472616e637947756172643a207265656e7472616e742063616c6c0081525060200191505060405180910390fd5b6002600081905550611e5b613c88565b73ffffffffffffffffffffffffffffffffffffffff16600160009054906101000a900473ffffffffffffffffffffffffffffffffffffffff1673ffffffffffffffffffffffffffffffffffffffff1614611f1d576040517f08c379a00000000000000000000000000000000000000000000000000000000081526004018080602001828103825260208152602001807f4f776e61626c653a2063616c6c6572206973206e6f7420746865206f776e657281525060200191505060405180910390fd5b600360009054906101000a900473ffffffffffffffffffffffffffffffffffffffff1673ffffffffffffffffffffffffffffffffffffffff1663c771a9826040518163ffffffff1660e01b81526004018080602001828103825260068152602001807f41435f544b4e000000000000000000000000000000000000000000000000000081525060200191505060206040518083038186803b158015611fc157600080fd5b505afa158015611fd5573d6000803e3d6000fd5b505050506040513d6020811015611feb57600080fd5b8101908080519060200190929190505050600a60006101000a81548173ffffffffffffffffffffffffffffffffffffffff021916908373ffffffffffffffffffffffffffffffffffffffff160217905550600a60009054906101000a900473ffffffffffffffffffffffffffffffffffffffff16600b60006101000a81548173ffffffffffffffffffffffffffffffffffffffff021916908373ffffffffffffffffffffffffffffffffffffffff160217905550600360009054906101000a900473ffffffffffffffffffffffffffffffffffffffff1673ffffffffffffffffffffffffffffffffffffffff1663c771a9826040518163ffffffff1660e01b81526004018080602001828103825260068152602001807f41435f4d4752000000000000000000000000000000000000000000000000000081525060200191505060206040518083038186803b15801561214357600080fd5b505afa158015612157573d6000803e3d6000fd5b505050506040513d602081101561216d57600080fd5b8101908080519060200190929190505050600460006101000a81548173ffffffffffffffffffffffffffffffffffffffff021916908373ffffffffffffffffffffffffffffffffffffffff160217905550600460009054906101000a900473ffffffffffffffffffffffffffffffffffffffff16600560006101000a81548173ffffffffffffffffffffffffffffffffffffffff021916908373ffffffffffffffffffffffffffffffffffffffff160217905550600360009054906101000a900473ffffffffffffffffffffffffffffffffffffffff1673ffffffffffffffffffffffffffffffffffffffff1663c771a9826040518163ffffffff1660e01b81526004018080602001828103825260088152602001807f5554494c5f544b4e00000000000000000000000000000000000000000000000081525060200191505060206040518083038186803b1580156122c557600080fd5b505afa1580156122d9573d6000803e3d6000fd5b505050506040513d60208110156122ef57600080fd5b8101908080519060200190929190505050600660006101000a81548173ffffffffffffffffffffffffffffffffffffffff021916908373ffffffffffffffffffffffffffffffffffffffff160217905550600660009054906101000a900473ffffffffffffffffffffffffffffffffffffffff16600760006101000a81548173ffffffffffffffffffffffffffffffffffffffff021916908373ffffffffffffffffffffffffffffffffffffffff160217905550600360009054906101000a900473ffffffffffffffffffffffffffffffffffffffff1673ffffffffffffffffffffffffffffffffffffffff1663c771a9826040518163ffffffff1660e01b81526004018080602001828103825260058152602001807f415f544b4e00000000000000000000000000000000000000000000000000000081525060200191505060206040518083038186803b15801561244757600080fd5b505afa15801561245b573d6000803e3d6000fd5b505050506040513d602081101561247157600080fd5b8101908080519060200190929190505050600860006101000a81548173ffffffffffffffffffffffffffffffffffffffff021916908373ffffffffffffffffffffffffffffffffffffffff160217905550600860009054906101000a900473ffffffffffffffffffffffffffffffffffffffff16600960006101000a81548173ffffffffffffffffffffffffffffffffffffffff021916908373ffffffffffffffffffffffffffffffffffffffff160217905550600360009054906101000a900473ffffffffffffffffffffffffffffffffffffffff1673ffffffffffffffffffffffffffffffffffffffff1663c771a9826040518163ffffffff1660e01b81526004018080602001828103825260068152602001807f49445f544b4e000000000000000000000000000000000000000000000000000081525060200191505060206040518083038186803b1580156125c957600080fd5b505afa1580156125dd573d6000803e3d6000fd5b505050506040513d60208110156125f357600080fd5b8101908080519060200190929190505050600c60006101000a81548173ffffffffffffffffffffffffffffffffffffffff021916908373ffffffffffffffffffffffffffffffffffffffff160217905550600c60009054906101000a900473ffffffffffffffffffffffffffffffffffffffff16600d60006101000a81548173ffffffffffffffffffffffffffffffffffffffff021916908373ffffffffffffffffffffffffffffffffffffffff160217905550600360009054906101000a900473ffffffffffffffffffffffffffffffffffffffff1673ffffffffffffffffffffffffffffffffffffffff1663c771a9826040518163ffffffff1660e01b81526004018080602001828103825260078152602001807f4543525f4d47520000000000000000000000000000000000000000000000000081525060200191505060206040518083038186803b15801561274b57600080fd5b505afa15801561275f573d6000803e3d6000fd5b505050506040513d602081101561277557600080fd5b8101908080519060200190929190505050600e60006101000a81548173ffffffffffffffffffffffffffffffffffffffff021916908373ffffffffffffffffffffffffffffffffffffffff160217905550600e60009054906101000a900473ffffffffffffffffffffffffffffffffffffffff16600f60006101000a81548173ffffffffffffffffffffffffffffffffffffffff021916908373ffffffffffffffffffffffffffffffffffffffff160217905550600360009054906101000a900473ffffffffffffffffffffffffffffffffffffffff1673ffffffffffffffffffffffffffffffffffffffff1663c771a9826040518163ffffffff1660e01b81526004018080602001828103825260038152602001807f415050000000000000000000000000000000000000000000000000000000000081525060200191505060206040518083038186803b1580156128cd57600080fd5b505afa1580156128e1573d6000803e3d6000fd5b505050506040513d60208110156128f757600080fd5b8101908080519060200190929190505050601260006101000a81548173ffffffffffffffffffffffffffffffffffffffff021916908373ffffffffffffffffffffffffffffffffffffffff160217905550601260009054906101000a900473ffffffffffffffffffffffffffffffffffffffff16601360006101000a81548173ffffffffffffffffffffffffffffffffffffffff021916908373ffffffffffffffffffffffffffffffffffffffff160217905550600360009054906101000a900473ffffffffffffffffffffffffffffffffffffffff1673ffffffffffffffffffffffffffffffffffffffff1663c771a9826040518163ffffffff1660e01b81526004018080602001828103825260048152602001807f52434c520000000000000000000000000000000000000000000000000000000081525060200191505060206040518083038186803b158015612a4f57600080fd5b505afa158015612a63573d6000803e3d6000fd5b505050506040513d6020811015612a7957600080fd5b8101908080519060200190929190505050601060006101000a81548173ffffffffffffffffffffffffffffffffffffffff021916908373ffffffffffffffffffffffffffffffffffffffff160217905550601060009054906101000a900473ffffffffffffffffffffffffffffffffffffffff16601160006101000a81548173ffffffffffffffffffffffffffffffffffffffff021916908373ffffffffffffffffffffffffffffffffffffffff160217905550600360009054906101000a900473ffffffffffffffffffffffffffffffffffffffff1673ffffffffffffffffffffffffffffffffffffffff1663c771a9826040518163ffffffff1660e01b81526004018080602001828103825260068152602001807f4150505f4e43000000000000000000000000000000000000000000000000000081525060200191505060206040518083038186803b158015612bd157600080fd5b505afa158015612be5573d6000803e3d6000fd5b505050506040513d6020811015612bfb57600080fd5b8101908080519060200190929190505050601460006101000a81548173ffffffffffffffffffffffffffffffffffffffff021916908373ffffffffffffffffffffffffffffffffffffffff160217905550600360009054906101000a900473ffffffffffffffffffffffffffffffffffffffff1673ffffffffffffffffffffffffffffffffffffffff1663c771a9826040518163ffffffff1660e01b81526004018080602001828103825260028152602001807f4e5000000000000000000000000000000000000000000000000000000000000081525060200191505060206040518083038186803b158015612cf057600080fd5b505afa158015612d04573d6000803e3d6000fd5b505050506040513d6020811015612d1a57600080fd5b8101908080519060200190929190505050601760006101000a81548173ffffffffffffffffffffffffffffffffffffffff021916908373ffffffffffffffffffffffffffffffffffffffff1602179055506001600081905550565b600060026000541415612df0576040517f08c379a000000000000000000000000000000000000000000000000000000000815260040180806020018281038252601f8152602001807f5265656e7472616e637947756172643a207265656e7472616e742063616c6c0081525060200191505060405180910390fd5b6002600081905550600160149054906101000a900460ff1615612e7b576040517f08c379a00000000000000000000000000000000000000000000000000000000081526004018080602001828103825260108152602001807f5061757361626c653a207061757365640000000000000000000000000000000081525060200191505060405180910390fd5b8360008160001c9050601260009054906101000a900473ffffffffffffffffffffffffffffffffffffffff1673ffffffffffffffffffffffffffffffffffffffff16600960009054906101000a900473ffffffffffffffffffffffffffffffffffffffff1673ffffffffffffffffffffffffffffffffffffffff16636352211e836040518263ffffffff1660e01b815260040180828152602001915050602060405180830381600087803b158015612f3257600080fd5b505af1158015612f46573d6000803e3d6000fd5b505050506040513d6020811015612f5c57600080fd5b810190808051906020019092919050505073ffffffffffffffffffffffffffffffffffffffff1614612fd9576040517f08c379a00000000000000000000000000000000000000000000000000000000081526004018080602001828103825260318152602001806142ed6031913960400191505060405180910390fd5b612fe16140cf565b612fea87613838565b90506000612ffb82602001516139d4565b905060008160ff161180156130135750600a8160ff16105b613085576040517f08c379a000000000000000000000000000000000000000000000000000000000815260040180806020018281038252601b8152602001807f4e503a534c533a2075736572206e6f74206175746820696e204143000000000081525060200191505060405180910390fd5b6031826000015160ff1611806130ad575060328660ff161080156130ac575060058160ff16105b5b613102576040517f08c379a00000000000000000000000000000000000000000000000000000000081526004018080602001828103825260468152602001806143806046913960600191505060405180910390fd5b868260c001511461315e576040517f08c379a00000000000000000000000000000000000000000000000000000000081526004018080602001828103825260318152602001806141ad6031913960400191505060405180910390fd5b85826000019060ff16908160ff1681525050600360009054906101000a900473ffffffffffffffffffffffffffffffffffffffff1673ffffffffffffffffffffffffffffffffffffffff1663f22354a68984600001516040518363ffffffff1660e01b8152600401808381526020018260ff16815260200192505050600060405180830381600087803b1580156131f457600080fd5b505af1158015613208573d6000803e3d6000fd5b50505050816000015194505050505060016000819055509392505050565b6000600260005414156132a1576040517f08c379a000000000000000000000000000000000000000000000000000000000815260040180806020018281038252601f8152602001807f5265656e7472616e637947756172643a207265656e7472616e742063616c6c0081525060200191505060405180910390fd5b6002600081905550600160149054906101000a900460ff161561332c576040517f08c379a00000000000000000000000000000000000000000000000000000000081526004018080602001828103825260108152602001807f5061757361626c653a207061757365640000000000000000000000000000000081525060200191505060405180910390fd5b8360008160001c9050601260009054906101000a900473ffffffffffffffffffffffffffffffffffffffff1673ffffffffffffffffffffffffffffffffffffffff16600960009054906101000a900473ffffffffffffffffffffffffffffffffffffffff1673ffffffffffffffffffffffffffffffffffffffff16636352211e836040518263ffffffff1660e01b815260040180828152602001915050602060405180830381600087803b1580156133e357600080fd5b505af11580156133f7573d6000803e3d6000fd5b505050506040513d602081101561340d57600080fd5b810190808051906020019092919050505073ffffffffffffffffffffffffffffffffffffffff161461348a576040517f08c379a00000000000000000000000000000000000000000000000000000000081526004018080602001828103825260318152602001806142ed6031913960400191505060405180910390fd5b6134926140cf565b61349b87613838565b905060006134ac82602001516139d4565b905060008160ff161180156134c45750600a8160ff16105b613536576040517f08c379a000000000000000000000000000000000000000000000000000000000815260040180806020018281038252601b8152602001807f4e503a4d49313a2075736572206e6f74206175746820696e204143000000000081525060200191505060405180910390fd5b60006135458360000151613add565b60ff161461359e576040517f08c379a000000000000000000000000000000000000000000000000000000000815260040180806020018281038252603d81526020018061441e603d913960400191505060405180910390fd5b868260c00151146135fa576040517f08c379a00000000000000000000000000000000000000000000000000000000081526004018080602001828103825260318152602001806142046031913960400191505060405180910390fd5b858260e001818152505061360e8883613faf565b8160e0015194505050505060016000819055509392505050565b613630613c88565b73ffffffffffffffffffffffffffffffffffffffff16600160009054906101000a900473ffffffffffffffffffffffffffffffffffffffff1673ffffffffffffffffffffffffffffffffffffffff16146136f2576040517f08c379a00000000000000000000000000000000000000000000000000000000081526004018080602001828103825260208152602001807f4f776e61626c653a2063616c6c6572206973206e6f7420746865206f776e657281525060200191505060405180910390fd5b600073ffffffffffffffffffffffffffffffffffffffff168173ffffffffffffffffffffffffffffffffffffffff161415613778576040517f08c379a00000000000000000000000000000000000000000000000000000000081526004018080602001828103825260268152602001806141de6026913960400191505060405180910390fd5b8073ffffffffffffffffffffffffffffffffffffffff16600160009054906101000a900473ffffffffffffffffffffffffffffffffffffffff1673ffffffffffffffffffffffffffffffffffffffff167f8be0079c531659141344cd1fd0a4f28419497f9722a3daafe3b4186f6b6457e060405160405180910390a380600160006101000a81548173ffffffffffffffffffffffffffffffffffffffff021916908373ffffffffffffffffffffffffffffffffffffffff16021790555050565b6138406140cf565b6138486140cf565b6000806000806000806000600360009054906101000a900473ffffffffffffffffffffffffffffffffffffffff1673ffffffffffffffffffffffffffffffffffffffff1663e248f2c48b6040518263ffffffff1660e01b81526004018082815260200191505060e06040518083038186803b1580156138c657600080fd5b505afa1580156138da573d6000803e3d6000fd5b505050506040513d60e08110156138f057600080fd5b81019080805190602001909291908051906020019092919080519060200190929190805190602001909291908051906020019092919080519060200190929190805190602001909291905050509650965096509650965096509650868860c001818152505085886000019060ff16908160ff168152505084886020019063ffffffff16908163ffffffff168152505083886040019063ffffffff16908163ffffffff168152505082886060019063ffffffff16908163ffffffff1681525050818860e001818152505080886101000181815250505050505050505080915050919050565b600080600560009054906101000a900473ffffffffffffffffffffffffffffffffffffffff1673ffffffffffffffffffffffffffffffffffffffff16639d2c7cee33604051602001808273ffffffffffffffffffffffffffffffffffffffff1660601b815260140191505060405160208183030381529060405280519060200120856040518363ffffffff1660e01b8152600401808381526020018263ffffffff1681526020019250505060206040518083038186803b158015613a9757600080fd5b505afa158015613aab573d6000803e3d6000fd5b505050506040513d6020811015613ac157600080fd5b8101908080519060200190929190505050905080915050919050565b600060058260ff1614158015613af7575060378260ff1614155b8015613b07575060468260ff1614155b8015613b175750603c8260ff1614155b15613b255760009050613b2a565b60aa90505b919050565b600160149054906101000a900460ff1615613bb2576040517f08c379a00000000000000000000000000000000000000000000000000000000081526004018080602001828103825260108152602001807f5061757361626c653a207061757365640000000000000000000000000000000081525060200191505060405180910390fd5b600360009054906101000a900473ffffffffffffffffffffffffffffffffffffffff1673ffffffffffffffffffffffffffffffffffffffff1663635d54fe838360c00151846000015185604001518660a0015187608001516040518763ffffffff1660e01b8152600401808781526020018681526020018560ff1681526020018463ffffffff1681526020018381526020018281526020019650505050505050600060405180830381600087803b158015613c6c57600080fd5b505af1158015613c80573d6000803e3d6000fd5b505050505050565b600033905090565b600160149054906101000a900460ff16613d12576040517f08c379a00000000000000000000000000000000000000000000000000000000081526004018080602001828103825260148152602001807f5061757361626c653a206e6f742070617573656400000000000000000000000081525060200191505060405180910390fd5b6000600160146101000a81548160ff0219169083151502179055507f5db9ee0a495bf2e6ff9c91a7834c1ba4fdd244a5e8aa4e537bd38aeae4b073aa613d56613c88565b604051808273ffffffffffffffffffffffffffffffffffffffff16815260200191505060405180910390a1565b600160149054906101000a900460ff1615613e06576040517f08c379a00000000000000000000000000000000000000000000000000000000081526004018080602001828103825260108152602001807f5061757361626c653a207061757365640000000000000000000000000000000081525060200191505060405180910390fd5b60018060146101000a81548160ff0219169083151502179055507f62e78cea01bee320cd4e420270b5ea74000d11b0c9f74754ebdbfc544b05a258613e49613c88565b604051808273ffffffffffffffffffffffffffffffffffffffff16815260200191505060405180910390a1565b613e7e614139565b613e86614139565b600560009054906101000a900473ffffffffffffffffffffffffffffffffffffffff1673ffffffffffffffffffffffffffffffffffffffff1663f2435010846040518263ffffffff1660e01b8152600401808263ffffffff16815260200191505060806040518083038186803b158015613eff57600080fd5b505afa158015613f13573d6000803e3d6000fd5b505050506040513d6080811015613f2957600080fd5b8101908080519060200190929190805190602001909291908051906020019092919080519060200190929190505050846020018560400186606001876080018463ffffffff1663ffffffff168152508463ffffffff1663ffffffff168152508460ff1660ff168152508463ffffffff1663ffffffff168152505050505080915050919050565b600160149054906101000a900460ff1615614032576040517f08c379a00000000000000000000000000000000000000000000000000000000081526004018080602001828103825260108152602001807f5061757361626c653a207061757365640000000000000000000000000000000081525060200191505060405180910390fd5b600360009054906101000a900473ffffffffffffffffffffffffffffffffffffffff1673ffffffffffffffffffffffffffffffffffffffff166342cdc4a4838360e001516040518363ffffffff1660e01b81526004018083815260200182815260200192505050600060405180830381600087803b1580156140b357600080fd5b505af11580156140c7573d6000803e3d6000fd5b505050505050565b604051806101200160405280600060ff168152602001600063ffffffff168152602001600063ffffffff168152602001600063ffffffff16815260200160008152602001600081526020016000801916815260200160008019168152602001600080191681525090565b6040518060a0016040528060608152602001600063ffffffff168152602001600060ff168152602001600063ffffffff168152602001600063ffffffff168152509056fe4e503a4d533a204f6e6c79207573657274797065203c20352063616e206368616e676520737461747573203c2034394e503a534c533a20526967687473686f6c64657220646f6573206e6f74206d6174636820737570706c69656420646174614f776e61626c653a206e6577206f776e657220697320746865207a65726f20616464726573734e503a4d49313a20526967687473686f6c64657220646f6573206e6f74206d6174636820737570706c6965642064617461423a5353433a2073746f7261676520616464726573732063616e6e6f74206265207a65726f4e503a4443205265636f726420696e20756e726567697374657265642c206578706f727465642c206f7220646973636172646564207374617475734e503a45413a20417373657420737461747573206d75737420626520353120746f206578706f72744e503a44433a20526967687473686f6c64657220646f6573206e6f74206d6174636820737570706c69656420646174614e503a4d4f442d49413a20437573746f6469616c20636f6e747261637420646f6573206e6f7420686f6c6420746f6b656e4e503a4d533a205265636f726420696e20756e726567697374657265642c206578706f727465642c206f722064697363617264656420737461747573423a54583a496e76616c69642063616c6c657220666f72207472616e7366657220746f6b656e4e503a534c533a204f6e6c79207573657274797065203c352063616e206368616e67652061203c34392073746174757320617373657420746f2061203e3439207374617475734e503a4d533a2043616e6e6f7420706c61636520617373657420696e20756e726567697374657265642c206578706f727465642c206f722064697363617264656420737461747573207573696e67206d6f645374617475734e503a4d49313a205265636f726420696e20756e726567697374657265642c206578706f727465642c206f7220646973636172646564207374617475734e503a4d533a20526967687473686f6c64657220646f6573206e6f74206d6174636820737570706c6965642064617461a26469706673582212203bd6c8ead3da50a077b96feb5c6a3feac44191388016bd1e3f7be61315918e3464736f6c634300060c0033",
			"opcodes": "PUSH1 0x80 PUSH1 0x40 MSTORE CALLVALUE DUP1 ISZERO PUSH3 0x11 JUMPI PUSH1 0x0 DUP1 REVERT JUMPDEST POP PUSH1 0x1 PUSH1 0x0 DUP2 SWAP1 SSTORE POP PUSH1 0x0 PUSH3 0x2C PUSH3 0xEC PUSH1 0x20 SHL PUSH1 0x20 SHR JUMP JUMPDEST SWAP1 POP DUP1 PUSH1 0x1 PUSH1 0x0 PUSH2 0x100 EXP DUP2 SLOAD DUP2 PUSH20 0xFFFFFFFFFFFFFFFFFFFFFFFFFFFFFFFFFFFFFFFF MUL NOT AND SWAP1 DUP4 PUSH20 0xFFFFFFFFFFFFFFFFFFFFFFFFFFFFFFFFFFFFFFFF AND MUL OR SWAP1 SSTORE POP DUP1 PUSH20 0xFFFFFFFFFFFFFFFFFFFFFFFFFFFFFFFFFFFFFFFF AND PUSH1 0x0 PUSH20 0xFFFFFFFFFFFFFFFFFFFFFFFFFFFFFFFFFFFFFFFF AND PUSH32 0x8BE0079C531659141344CD1FD0A4F28419497F9722A3DAAFE3B4186F6B6457E0 PUSH1 0x40 MLOAD PUSH1 0x40 MLOAD DUP1 SWAP2 SUB SWAP1 LOG3 POP PUSH1 0x0 PUSH1 0x1 PUSH1 0x14 PUSH2 0x100 EXP DUP2 SLOAD DUP2 PUSH1 0xFF MUL NOT AND SWAP1 DUP4 ISZERO ISZERO MUL OR SWAP1 SSTORE POP PUSH3 0xF4 JUMP JUMPDEST PUSH1 0x0 CALLER SWAP1 POP SWAP1 JUMP JUMPDEST PUSH2 0x44C0 DUP1 PUSH3 0x104 PUSH1 0x0 CODECOPY PUSH1 0x0 RETURN INVALID PUSH1 0x80 PUSH1 0x40 MSTORE CALLVALUE DUP1 ISZERO PUSH2 0x10 JUMPI PUSH1 0x0 DUP1 REVERT JUMPDEST POP PUSH1 0x4 CALLDATASIZE LT PUSH2 0x100 JUMPI PUSH1 0x0 CALLDATALOAD PUSH1 0xE0 SHR DUP1 PUSH4 0xC84375DF GT PUSH2 0x97 JUMPI DUP1 PUSH4 0xE8B41653 GT PUSH2 0x66 JUMPI DUP1 PUSH4 0xE8B41653 EQ PUSH2 0x470 JUMPI DUP1 PUSH4 0xE927244C EQ PUSH2 0x47A JUMPI DUP1 PUSH4 0xEE54387B EQ PUSH2 0x4D6 JUMPI DUP1 PUSH4 0xF2FDE38B EQ PUSH2 0x52C JUMPI PUSH2 0x100 JUMP JUMPDEST DUP1 PUSH4 0xC84375DF EQ PUSH2 0x35B JUMPI DUP1 PUSH4 0xCF2B6F66 EQ PUSH2 0x3BD JUMPI DUP1 PUSH4 0xD6B02ECF EQ PUSH2 0x3C7 JUMPI DUP1 PUSH4 0xE620BF38 EQ PUSH2 0x40B JUMPI PUSH2 0x100 JUMP JUMPDEST DUP1 PUSH4 0x715018A6 GT PUSH2 0xD3 JUMPI DUP1 PUSH4 0x715018A6 EQ PUSH2 0x2C5 JUMPI DUP1 PUSH4 0x8DA5CB5B EQ PUSH2 0x2CF JUMPI DUP1 PUSH4 0x961E809B EQ PUSH2 0x303 JUMPI DUP1 PUSH4 0xC79B226E EQ PUSH2 0x30D JUMPI PUSH2 0x100 JUMP JUMPDEST DUP1 PUSH4 0x150B7A02 EQ PUSH2 0x105 JUMPI DUP1 PUSH4 0x440E7A7E EQ PUSH2 0x1FB JUMPI DUP1 PUSH4 0x5C975ABB EQ PUSH2 0x249 JUMPI DUP1 PUSH4 0x6DCD1F5A EQ PUSH2 0x269 JUMPI JUMPDEST PUSH1 0x0 DUP1 REVERT JUMPDEST PUSH2 0x1C6 PUSH1 0x4 DUP1 CALLDATASIZE SUB PUSH1 0x80 DUP2 LT ISZERO PUSH2 0x11B JUMPI PUSH1 0x0 DUP1 REVERT JUMPDEST DUP2 ADD SWAP1 DUP1 DUP1 CALLDATALOAD PUSH20 0xFFFFFFFFFFFFFFFFFFFFFFFFFFFFFFFFFFFFFFFF AND SWAP1 PUSH1 0x20 ADD SWAP1 SWAP3 SWAP2 SWAP1 DUP1 CALLDATALOAD PUSH20 0xFFFFFFFFFFFFFFFFFFFFFFFFFFFFFFFFFFFFFFFF AND SWAP1 PUSH1 0x20 ADD SWAP1 SWAP3 SWAP2 SWAP1 DUP1 CALLDATALOAD SWAP1 PUSH1 0x20 ADD SWAP1 SWAP3 SWAP2 SWAP1 DUP1 CALLDATALOAD SWAP1 PUSH1 0x20 ADD SWAP1 PUSH5 0x100000000 DUP2 GT ISZERO PUSH2 0x182 JUMPI PUSH1 0x0 DUP1 REVERT JUMPDEST DUP3 ADD DUP4 PUSH1 0x20 DUP3 ADD GT ISZERO PUSH2 0x194 JUMPI PUSH1 0x0 DUP1 REVERT JUMPDEST DUP1 CALLDATALOAD SWAP1 PUSH1 0x20 ADD SWAP2 DUP5 PUSH1 0x1 DUP4 MUL DUP5 ADD GT PUSH5 0x100000000 DUP4 GT OR ISZERO PUSH2 0x1B6 JUMPI PUSH1 0x0 DUP1 REVERT JUMPDEST SWAP1 SWAP2 SWAP3 SWAP4 SWAP2 SWAP3 SWAP4 SWAP1 POP POP POP PUSH2 0x570 JUMP JUMPDEST PUSH1 0x40 MLOAD DUP1 DUP3 PUSH28 0xFFFFFFFFFFFFFFFFFFFFFFFFFFFFFFFFFFFFFFFFFFFFFFFFFFFFFFFF NOT AND DUP2 MSTORE PUSH1 0x20 ADD SWAP2 POP POP PUSH1 0x40 MLOAD DUP1 SWAP2 SUB SWAP1 RETURN JUMPDEST PUSH2 0x247 PUSH1 0x4 DUP1 CALLDATASIZE SUB PUSH1 0x40 DUP2 LT ISZERO PUSH2 0x211 JUMPI PUSH1 0x0 DUP1 REVERT JUMPDEST DUP2 ADD SWAP1 DUP1 DUP1 CALLDATALOAD PUSH20 0xFFFFFFFFFFFFFFFFFFFFFFFFFFFFFFFFFFFFFFFF AND SWAP1 PUSH1 0x20 ADD SWAP1 SWAP3 SWAP2 SWAP1 DUP1 CALLDATALOAD SWAP1 PUSH1 0x20 ADD SWAP1 SWAP3 SWAP2 SWAP1 POP POP POP PUSH2 0x585 JUMP JUMPDEST STOP JUMPDEST PUSH2 0x251 PUSH2 0x7C7 JUMP JUMPDEST PUSH1 0x40 MLOAD DUP1 DUP3 ISZERO ISZERO DUP2 MSTORE PUSH1 0x20 ADD SWAP2 POP POP PUSH1 0x40 MLOAD DUP1 SWAP2 SUB SWAP1 RETURN JUMPDEST PUSH2 0x2AC PUSH1 0x4 DUP1 CALLDATASIZE SUB PUSH1 0x60 DUP2 LT ISZERO PUSH2 0x27F JUMPI PUSH1 0x0 DUP1 REVERT JUMPDEST DUP2 ADD SWAP1 DUP1 DUP1 CALLDATALOAD SWAP1 PUSH1 0x20 ADD SWAP1 SWAP3 SWAP2 SWAP1 DUP1 CALLDATALOAD SWAP1 PUSH1 0x20 ADD SWAP1 SWAP3 SWAP2 SWAP1 DUP1 CALLDATALOAD PUSH1 0xFF AND SWAP1 PUSH1 0x20 ADD SWAP1 SWAP3 SWAP2 SWAP1 POP POP POP PUSH2 0x7DE JUMP JUMPDEST PUSH1 0x40 MLOAD DUP1 DUP3 PUSH1 0xFF AND DUP2 MSTORE PUSH1 0x20 ADD SWAP2 POP POP PUSH1 0x40 MLOAD DUP1 SWAP2 SUB SWAP1 RETURN JUMPDEST PUSH2 0x2CD PUSH2 0xD63 JUMP JUMPDEST STOP JUMPDEST PUSH2 0x2D7 PUSH2 0xEEE JUMP JUMPDEST PUSH1 0x40 MLOAD DUP1 DUP3 PUSH20 0xFFFFFFFFFFFFFFFFFFFFFFFFFFFFFFFFFFFFFFFF AND DUP2 MSTORE PUSH1 0x20 ADD SWAP2 POP POP PUSH1 0x40 MLOAD DUP1 SWAP2 SUB SWAP1 RETURN JUMPDEST PUSH2 0x30B PUSH2 0xF18 JUMP JUMPDEST STOP JUMPDEST PUSH2 0x359 PUSH1 0x4 DUP1 CALLDATASIZE SUB PUSH1 0x40 DUP2 LT ISZERO PUSH2 0x323 JUMPI PUSH1 0x0 DUP1 REVERT JUMPDEST DUP2 ADD SWAP1 DUP1 DUP1 CALLDATALOAD PUSH20 0xFFFFFFFFFFFFFFFFFFFFFFFFFFFFFFFFFFFFFFFF AND SWAP1 PUSH1 0x20 ADD SWAP1 SWAP3 SWAP2 SWAP1 DUP1 CALLDATALOAD SWAP1 PUSH1 0x20 ADD SWAP1 SWAP3 SWAP2 SWAP1 POP POP POP PUSH2 0xFEC JUMP JUMPDEST STOP JUMPDEST PUSH2 0x3A1 PUSH1 0x4 DUP1 CALLDATASIZE SUB PUSH1 0x60 DUP2 LT ISZERO PUSH2 0x371 JUMPI PUSH1 0x0 DUP1 REVERT JUMPDEST DUP2 ADD SWAP1 DUP1 DUP1 CALLDATALOAD SWAP1 PUSH1 0x20 ADD SWAP1 SWAP3 SWAP2 SWAP1 DUP1 CALLDATALOAD SWAP1 PUSH1 0x20 ADD SWAP1 SWAP3 SWAP2 SWAP1 DUP1 CALLDATALOAD PUSH4 0xFFFFFFFF AND SWAP1 PUSH1 0x20 ADD SWAP1 SWAP3 SWAP2 SWAP1 POP POP POP PUSH2 0x1215 JUMP JUMPDEST PUSH1 0x40 MLOAD DUP1 DUP3 PUSH4 0xFFFFFFFF AND DUP2 MSTORE PUSH1 0x20 ADD SWAP2 POP POP PUSH1 0x40 MLOAD DUP1 SWAP2 SUB SWAP1 RETURN JUMPDEST PUSH2 0x3C5 PUSH2 0x1662 JUMP JUMPDEST STOP JUMPDEST PUSH2 0x409 PUSH1 0x4 DUP1 CALLDATASIZE SUB PUSH1 0x20 DUP2 LT ISZERO PUSH2 0x3DD JUMPI PUSH1 0x0 DUP1 REVERT JUMPDEST DUP2 ADD SWAP1 DUP1 DUP1 CALLDATALOAD PUSH20 0xFFFFFFFFFFFFFFFFFFFFFFFFFFFFFFFFFFFFFFFF AND SWAP1 PUSH1 0x20 ADD SWAP1 SWAP3 SWAP2 SWAP1 POP POP POP PUSH2 0x1736 JUMP JUMPDEST STOP JUMPDEST PUSH2 0x457 PUSH1 0x4 DUP1 CALLDATASIZE SUB PUSH1 0x40 DUP2 LT ISZERO PUSH2 0x421 JUMPI PUSH1 0x0 DUP1 REVERT JUMPDEST DUP2 ADD SWAP1 DUP1 DUP1 CALLDATALOAD SWAP1 PUSH1 0x20 ADD SWAP1 SWAP3 SWAP2 SWAP1 DUP1 CALLDATALOAD PUSH20 0xFFFFFFFFFFFFFFFFFFFFFFFFFFFFFFFFFFFFFFFF AND SWAP1 PUSH1 0x20 ADD SWAP1 SWAP3 SWAP2 SWAP1 POP POP POP PUSH2 0x18CA JUMP JUMPDEST PUSH1 0x40 MLOAD DUP1 DUP3 PUSH1 0xFF AND DUP2 MSTORE PUSH1 0x20 ADD SWAP2 POP POP PUSH1 0x40 MLOAD DUP1 SWAP2 SUB SWAP1 RETURN JUMPDEST PUSH2 0x478 PUSH2 0x1DD2 JUMP JUMPDEST STOP JUMPDEST PUSH2 0x4BD PUSH1 0x4 DUP1 CALLDATASIZE SUB PUSH1 0x60 DUP2 LT ISZERO PUSH2 0x490 JUMPI PUSH1 0x0 DUP1 REVERT JUMPDEST DUP2 ADD SWAP1 DUP1 DUP1 CALLDATALOAD SWAP1 PUSH1 0x20 ADD SWAP1 SWAP3 SWAP2 SWAP1 DUP1 CALLDATALOAD SWAP1 PUSH1 0x20 ADD SWAP1 SWAP3 SWAP2 SWAP1 DUP1 CALLDATALOAD PUSH1 0xFF AND SWAP1 PUSH1 0x20 ADD SWAP1 SWAP3 SWAP2 SWAP1 POP POP POP PUSH2 0x2D75 JUMP JUMPDEST PUSH1 0x40 MLOAD DUP1 DUP3 PUSH1 0xFF AND DUP2 MSTORE PUSH1 0x20 ADD SWAP2 POP POP PUSH1 0x40 MLOAD DUP1 SWAP2 SUB SWAP1 RETURN JUMPDEST PUSH2 0x516 PUSH1 0x4 DUP1 CALLDATASIZE SUB PUSH1 0x60 DUP2 LT ISZERO PUSH2 0x4EC JUMPI PUSH1 0x0 DUP1 REVERT JUMPDEST DUP2 ADD SWAP1 DUP1 DUP1 CALLDATALOAD SWAP1 PUSH1 0x20 ADD SWAP1 SWAP3 SWAP2 SWAP1 DUP1 CALLDATALOAD SWAP1 PUSH1 0x20 ADD SWAP1 SWAP3 SWAP2 SWAP1 DUP1 CALLDATALOAD SWAP1 PUSH1 0x20 ADD SWAP1 SWAP3 SWAP2 SWAP1 POP POP POP PUSH2 0x3226 JUMP JUMPDEST PUSH1 0x40 MLOAD DUP1 DUP3 DUP2 MSTORE PUSH1 0x20 ADD SWAP2 POP POP PUSH1 0x40 MLOAD DUP1 SWAP2 SUB SWAP1 RETURN JUMPDEST PUSH2 0x56E PUSH1 0x4 DUP1 CALLDATASIZE SUB PUSH1 0x20 DUP2 LT ISZERO PUSH2 0x542 JUMPI PUSH1 0x0 DUP1 REVERT JUMPDEST DUP2 ADD SWAP1 DUP1 DUP1 CALLDATALOAD PUSH20 0xFFFFFFFFFFFFFFFFFFFFFFFFFFFFFFFFFFFFFFFF AND SWAP1 PUSH1 0x20 ADD SWAP1 SWAP3 SWAP2 SWAP1 POP POP POP PUSH2 0x3628 JUMP JUMPDEST STOP JUMPDEST PUSH1 0x0 PUSH4 0x150B7A02 PUSH1 0xE0 SHL SWAP1 POP SWAP6 SWAP5 POP POP POP POP POP JUMP JUMPDEST PUSH1 0x2 PUSH1 0x0 SLOAD EQ ISZERO PUSH2 0x5FE JUMPI PUSH1 0x40 MLOAD PUSH32 0x8C379A000000000000000000000000000000000000000000000000000000000 DUP2 MSTORE PUSH1 0x4 ADD DUP1 DUP1 PUSH1 0x20 ADD DUP3 DUP2 SUB DUP3 MSTORE PUSH1 0x1F DUP2 MSTORE PUSH1 0x20 ADD DUP1 PUSH32 0x5265656E7472616E637947756172643A207265656E7472616E742063616C6C00 DUP2 MSTORE POP PUSH1 0x20 ADD SWAP2 POP POP PUSH1 0x40 MLOAD DUP1 SWAP2 SUB SWAP1 REVERT JUMPDEST PUSH1 0x2 PUSH1 0x0 DUP2 SWAP1 SSTORE POP PUSH2 0x60E PUSH2 0xEEE JUMP JUMPDEST PUSH20 0xFFFFFFFFFFFFFFFFFFFFFFFFFFFFFFFFFFFFFFFF AND CALLER PUSH20 0xFFFFFFFFFFFFFFFFFFFFFFFFFFFFFFFFFFFFFFFF AND EQ DUP1 PUSH2 0x694 JUMPI POP PUSH1 0x17 PUSH1 0x0 SWAP1 SLOAD SWAP1 PUSH2 0x100 EXP SWAP1 DIV PUSH20 0xFFFFFFFFFFFFFFFFFFFFFFFFFFFFFFFFFFFFFFFF AND PUSH20 0xFFFFFFFFFFFFFFFFFFFFFFFFFFFFFFFFFFFFFFFF AND CALLER PUSH20 0xFFFFFFFFFFFFFFFFFFFFFFFFFFFFFFFFFFFFFFFF AND EQ JUMPDEST PUSH2 0x6E9 JUMPI PUSH1 0x40 MLOAD PUSH32 0x8C379A000000000000000000000000000000000000000000000000000000000 DUP2 MSTORE PUSH1 0x4 ADD DUP1 DUP1 PUSH1 0x20 ADD DUP3 DUP2 SUB DUP3 MSTORE PUSH1 0x26 DUP2 MSTORE PUSH1 0x20 ADD DUP1 PUSH2 0x435A PUSH1 0x26 SWAP2 CODECOPY PUSH1 0x40 ADD SWAP2 POP POP PUSH1 0x40 MLOAD DUP1 SWAP2 SUB SWAP1 REVERT JUMPDEST PUSH1 0x0 DUP2 PUSH1 0x0 SHR SWAP1 POP PUSH1 0x9 PUSH1 0x0 SWAP1 SLOAD SWAP1 PUSH2 0x100 EXP SWAP1 DIV PUSH20 0xFFFFFFFFFFFFFFFFFFFFFFFFFFFFFFFFFFFFFFFF AND PUSH20 0xFFFFFFFFFFFFFFFFFFFFFFFFFFFFFFFFFFFFFFFF AND PUSH4 0x42842E0E ADDRESS DUP6 DUP5 PUSH1 0x40 MLOAD DUP5 PUSH4 0xFFFFFFFF AND PUSH1 0xE0 SHL DUP2 MSTORE PUSH1 0x4 ADD DUP1 DUP5 PUSH20 0xFFFFFFFFFFFFFFFFFFFFFFFFFFFFFFFFFFFFFFFF AND DUP2 MSTORE PUSH1 0x20 ADD DUP4 PUSH20 0xFFFFFFFFFFFFFFFFFFFFFFFFFFFFFFFFFFFFFFFF AND DUP2 MSTORE PUSH1 0x20 ADD DUP3 DUP2 MSTORE PUSH1 0x20 ADD SWAP4 POP POP POP POP PUSH1 0x0 PUSH1 0x40 MLOAD DUP1 DUP4 SUB DUP2 PUSH1 0x0 DUP8 DUP1 EXTCODESIZE ISZERO DUP1 ISZERO PUSH2 0x7A2 JUMPI PUSH1 0x0 DUP1 REVERT JUMPDEST POP GAS CALL ISZERO DUP1 ISZERO PUSH2 0x7B6 JUMPI RETURNDATASIZE PUSH1 0x0 DUP1 RETURNDATACOPY RETURNDATASIZE PUSH1 0x0 REVERT JUMPDEST POP POP POP POP POP PUSH1 0x1 PUSH1 0x0 DUP2 SWAP1 SSTORE POP POP POP JUMP JUMPDEST PUSH1 0x0 PUSH1 0x1 PUSH1 0x14 SWAP1 SLOAD SWAP1 PUSH2 0x100 EXP SWAP1 DIV PUSH1 0xFF AND SWAP1 POP SWAP1 JUMP JUMPDEST PUSH1 0x0 PUSH1 0x2 PUSH1 0x0 SLOAD EQ ISZERO PUSH2 0x859 JUMPI PUSH1 0x40 MLOAD PUSH32 0x8C379A000000000000000000000000000000000000000000000000000000000 DUP2 MSTORE PUSH1 0x4 ADD DUP1 DUP1 PUSH1 0x20 ADD DUP3 DUP2 SUB DUP3 MSTORE PUSH1 0x1F DUP2 MSTORE PUSH1 0x20 ADD DUP1 PUSH32 0x5265656E7472616E637947756172643A207265656E7472616E742063616C6C00 DUP2 MSTORE POP PUSH1 0x20 ADD SWAP2 POP POP PUSH1 0x40 MLOAD DUP1 SWAP2 SUB SWAP1 REVERT JUMPDEST PUSH1 0x2 PUSH1 0x0 DUP2 SWAP1 SSTORE POP PUSH1 0x1 PUSH1 0x14 SWAP1 SLOAD SWAP1 PUSH2 0x100 EXP SWAP1 DIV PUSH1 0xFF AND ISZERO PUSH2 0x8E4 JUMPI PUSH1 0x40 MLOAD PUSH32 0x8C379A000000000000000000000000000000000000000000000000000000000 DUP2 MSTORE PUSH1 0x4 ADD DUP1 DUP1 PUSH1 0x20 ADD DUP3 DUP2 SUB DUP3 MSTORE PUSH1 0x10 DUP2 MSTORE PUSH1 0x20 ADD DUP1 PUSH32 0x5061757361626C653A2070617573656400000000000000000000000000000000 DUP2 MSTORE POP PUSH1 0x20 ADD SWAP2 POP POP PUSH1 0x40 MLOAD DUP1 SWAP2 SUB SWAP1 REVERT JUMPDEST DUP4 PUSH1 0x0 DUP2 PUSH1 0x0 SHR SWAP1 POP PUSH1 0x12 PUSH1 0x0 SWAP1 SLOAD SWAP1 PUSH2 0x100 EXP SWAP1 DIV PUSH20 0xFFFFFFFFFFFFFFFFFFFFFFFFFFFFFFFFFFFFFFFF AND PUSH20 0xFFFFFFFFFFFFFFFFFFFFFFFFFFFFFFFFFFFFFFFF AND PUSH1 0x9 PUSH1 0x0 SWAP1 SLOAD SWAP1 PUSH2 0x100 EXP SWAP1 DIV PUSH20 0xFFFFFFFFFFFFFFFFFFFFFFFFFFFFFFFFFFFFFFFF AND PUSH20 0xFFFFFFFFFFFFFFFFFFFFFFFFFFFFFFFFFFFFFFFF AND PUSH4 0x6352211E DUP4 PUSH1 0x40 MLOAD DUP3 PUSH4 0xFFFFFFFF AND PUSH1 0xE0 SHL DUP2 MSTORE PUSH1 0x4 ADD DUP1 DUP3 DUP2 MSTORE PUSH1 0x20 ADD SWAP2 POP POP PUSH1 0x20 PUSH1 0x40 MLOAD DUP1 DUP4 SUB DUP2 PUSH1 0x0 DUP8 DUP1 EXTCODESIZE ISZERO DUP1 ISZERO PUSH2 0x99B JUMPI PUSH1 0x0 DUP1 REVERT JUMPDEST POP GAS CALL ISZERO DUP1 ISZERO PUSH2 0x9AF JUMPI RETURNDATASIZE PUSH1 0x0 DUP1 RETURNDATACOPY RETURNDATASIZE PUSH1 0x0 REVERT JUMPDEST POP POP POP POP PUSH1 0x40 MLOAD RETURNDATASIZE PUSH1 0x20 DUP2 LT ISZERO PUSH2 0x9C5 JUMPI PUSH1 0x0 DUP1 REVERT JUMPDEST DUP2 ADD SWAP1 DUP1 DUP1 MLOAD SWAP1 PUSH1 0x20 ADD SWAP1 SWAP3 SWAP2 SWAP1 POP POP POP PUSH20 0xFFFFFFFFFFFFFFFFFFFFFFFFFFFFFFFFFFFFFFFF AND EQ PUSH2 0xA42 JUMPI PUSH1 0x40 MLOAD PUSH32 0x8C379A000000000000000000000000000000000000000000000000000000000 DUP2 MSTORE PUSH1 0x4 ADD DUP1 DUP1 PUSH1 0x20 ADD DUP3 DUP2 SUB DUP3 MSTORE PUSH1 0x31 DUP2 MSTORE PUSH1 0x20 ADD DUP1 PUSH2 0x42ED PUSH1 0x31 SWAP2 CODECOPY PUSH1 0x40 ADD SWAP2 POP POP PUSH1 0x40 MLOAD DUP1 SWAP2 SUB SWAP1 REVERT JUMPDEST PUSH2 0xA4A PUSH2 0x40CF JUMP JUMPDEST PUSH2 0xA53 DUP8 PUSH2 0x3838 JUMP JUMPDEST SWAP1 POP PUSH1 0x0 PUSH2 0xA64 DUP3 PUSH1 0x20 ADD MLOAD PUSH2 0x39D4 JUMP JUMPDEST SWAP1 POP PUSH1 0x0 DUP2 PUSH1 0xFF AND GT DUP1 ISZERO PUSH2 0xA7C JUMPI POP PUSH1 0xA DUP2 PUSH1 0xFF AND LT JUMPDEST PUSH2 0xAEE JUMPI PUSH1 0x40 MLOAD PUSH32 0x8C379A000000000000000000000000000000000000000000000000000000000 DUP2 MSTORE PUSH1 0x4 ADD DUP1 DUP1 PUSH1 0x20 ADD DUP3 DUP2 SUB DUP3 MSTORE PUSH1 0x1A DUP2 MSTORE PUSH1 0x20 ADD DUP1 PUSH32 0x4E503A4D533A2055736572206E6F74206175746820696E204143000000000000 DUP2 MSTORE POP PUSH1 0x20 ADD SWAP2 POP POP PUSH1 0x40 MLOAD DUP1 SWAP2 SUB SWAP1 REVERT JUMPDEST PUSH1 0x7 DUP7 PUSH1 0xFF AND EQ ISZERO DUP1 ISZERO PUSH2 0xB06 JUMPI POP PUSH1 0x39 DUP7 PUSH1 0xFF AND EQ ISZERO JUMPDEST DUP1 ISZERO PUSH2 0xB16 JUMPI POP PUSH1 0x3A DUP7 PUSH1 0xFF AND EQ ISZERO JUMPDEST DUP1 ISZERO PUSH2 0xB25 JUMPI POP PUSH1 0x64 DUP7 PUSH1 0xFF AND LT JUMPDEST PUSH2 0xB97 JUMPI PUSH1 0x40 MLOAD PUSH32 0x8C379A000000000000000000000000000000000000000000000000000000000 DUP2 MSTORE PUSH1 0x4 ADD DUP1 DUP1 PUSH1 0x20 ADD DUP3 DUP2 SUB DUP3 MSTORE PUSH1 0x11 DUP2 MSTORE PUSH1 0x20 ADD DUP1 PUSH32 0x4E503A4D533A2053746174205273727664000000000000000000000000000000 DUP2 MSTORE POP PUSH1 0x20 ADD SWAP2 POP POP PUSH1 0x40 MLOAD DUP1 SWAP2 SUB SWAP1 REVERT JUMPDEST PUSH1 0x0 PUSH2 0xBA2 DUP8 PUSH2 0x3ADD JUMP JUMPDEST PUSH1 0xFF AND EQ PUSH2 0xBFB JUMPI PUSH1 0x40 MLOAD PUSH32 0x8C379A000000000000000000000000000000000000000000000000000000000 DUP2 MSTORE PUSH1 0x4 ADD DUP1 DUP1 PUSH1 0x20 ADD DUP3 DUP2 SUB DUP3 MSTORE PUSH1 0x58 DUP2 MSTORE PUSH1 0x20 ADD DUP1 PUSH2 0x43C6 PUSH1 0x58 SWAP2 CODECOPY PUSH1 0x60 ADD SWAP2 POP POP PUSH1 0x40 MLOAD DUP1 SWAP2 SUB SWAP1 REVERT JUMPDEST PUSH1 0x0 PUSH2 0xC0A DUP4 PUSH1 0x0 ADD MLOAD PUSH2 0x3ADD JUMP JUMPDEST PUSH1 0xFF AND EQ PUSH2 0xC63 JUMPI PUSH1 0x40 MLOAD PUSH32 0x8C379A000000000000000000000000000000000000000000000000000000000 DUP2 MSTORE PUSH1 0x4 ADD DUP1 DUP1 PUSH1 0x20 ADD DUP3 DUP2 SUB DUP3 MSTORE PUSH1 0x3C DUP2 MSTORE PUSH1 0x20 ADD DUP1 PUSH2 0x431E PUSH1 0x3C SWAP2 CODECOPY PUSH1 0x40 ADD SWAP2 POP POP PUSH1 0x40 MLOAD DUP1 SWAP2 SUB SWAP1 REVERT JUMPDEST PUSH1 0x31 DUP3 PUSH1 0x0 ADD MLOAD PUSH1 0xFF AND GT DUP1 PUSH2 0xC7C JUMPI POP PUSH1 0x5 DUP2 PUSH1 0xFF AND LT JUMPDEST PUSH2 0xCD1 JUMPI PUSH1 0x40 MLOAD PUSH32 0x8C379A000000000000000000000000000000000000000000000000000000000 DUP2 MSTORE PUSH1 0x4 ADD DUP1 DUP1 PUSH1 0x20 ADD DUP3 DUP2 SUB DUP3 MSTORE PUSH1 0x2F DUP2 MSTORE PUSH1 0x20 ADD DUP1 PUSH2 0x417E PUSH1 0x2F SWAP2 CODECOPY PUSH1 0x40 ADD SWAP2 POP POP PUSH1 0x40 MLOAD DUP1 SWAP2 SUB SWAP1 REVERT JUMPDEST DUP7 DUP3 PUSH1 0xC0 ADD MLOAD EQ PUSH2 0xD2D JUMPI PUSH1 0x40 MLOAD PUSH32 0x8C379A000000000000000000000000000000000000000000000000000000000 DUP2 MSTORE PUSH1 0x4 ADD DUP1 DUP1 PUSH1 0x20 ADD DUP3 DUP2 SUB DUP3 MSTORE PUSH1 0x30 DUP2 MSTORE PUSH1 0x20 ADD DUP1 PUSH2 0x445B PUSH1 0x30 SWAP2 CODECOPY PUSH1 0x40 ADD SWAP2 POP POP PUSH1 0x40 MLOAD DUP1 SWAP2 SUB SWAP1 REVERT JUMPDEST DUP6 DUP3 PUSH1 0x0 ADD SWAP1 PUSH1 0xFF AND SWAP1 DUP2 PUSH1 0xFF AND DUP2 MSTORE POP POP PUSH2 0xD49 DUP9 DUP4 PUSH2 0x3B2F JUMP JUMPDEST DUP2 PUSH1 0x0 ADD MLOAD SWAP5 POP POP POP POP POP PUSH1 0x1 PUSH1 0x0 DUP2 SWAP1 SSTORE POP SWAP4 SWAP3 POP POP POP JUMP JUMPDEST PUSH2 0xD6B PUSH2 0x3C88 JUMP JUMPDEST PUSH20 0xFFFFFFFFFFFFFFFFFFFFFFFFFFFFFFFFFFFFFFFF AND PUSH1 0x1 PUSH1 0x0 SWAP1 SLOAD SWAP1 PUSH2 0x100 EXP SWAP1 DIV PUSH20 0xFFFFFFFFFFFFFFFFFFFFFFFFFFFFFFFFFFFFFFFF AND PUSH20 0xFFFFFFFFFFFFFFFFFFFFFFFFFFFFFFFFFFFFFFFF AND EQ PUSH2 0xE2D JUMPI PUSH1 0x40 MLOAD PUSH32 0x8C379A000000000000000000000000000000000000000000000000000000000 DUP2 MSTORE PUSH1 0x4 ADD DUP1 DUP1 PUSH1 0x20 ADD DUP3 DUP2 SUB DUP3 MSTORE PUSH1 0x20 DUP2 MSTORE PUSH1 0x20 ADD DUP1 PUSH32 0x4F776E61626C653A2063616C6C6572206973206E6F7420746865206F776E6572 DUP2 MSTORE POP PUSH1 0x20 ADD SWAP2 POP POP PUSH1 0x40 MLOAD DUP1 SWAP2 SUB SWAP1 REVERT JUMPDEST PUSH1 0x0 PUSH20 0xFFFFFFFFFFFFFFFFFFFFFFFFFFFFFFFFFFFFFFFF AND PUSH1 0x1 PUSH1 0x0 SWAP1 SLOAD SWAP1 PUSH2 0x100 EXP SWAP1 DIV PUSH20 0xFFFFFFFFFFFFFFFFFFFFFFFFFFFFFFFFFFFFFFFF AND PUSH20 0xFFFFFFFFFFFFFFFFFFFFFFFFFFFFFFFFFFFFFFFF AND PUSH32 0x8BE0079C531659141344CD1FD0A4F28419497F9722A3DAAFE3B4186F6B6457E0 PUSH1 0x40 MLOAD PUSH1 0x40 MLOAD DUP1 SWAP2 SUB SWAP1 LOG3 PUSH1 0x0 PUSH1 0x1 PUSH1 0x0 PUSH2 0x100 EXP DUP2 SLOAD DUP2 PUSH20 0xFFFFFFFFFFFFFFFFFFFFFFFFFFFFFFFFFFFFFFFF MUL NOT AND SWAP1 DUP4 PUSH20 0xFFFFFFFFFFFFFFFFFFFFFFFFFFFFFFFFFFFFFFFF AND MUL OR SWAP1 SSTORE POP JUMP JUMPDEST PUSH1 0x0 PUSH1 0x1 PUSH1 0x0 SWAP1 SLOAD SWAP1 PUSH2 0x100 EXP SWAP1 DIV PUSH20 0xFFFFFFFFFFFFFFFFFFFFFFFFFFFFFFFFFFFFFFFF AND SWAP1 POP SWAP1 JUMP JUMPDEST PUSH2 0xF20 PUSH2 0x3C88 JUMP JUMPDEST PUSH20 0xFFFFFFFFFFFFFFFFFFFFFFFFFFFFFFFFFFFFFFFF AND PUSH1 0x1 PUSH1 0x0 SWAP1 SLOAD SWAP1 PUSH2 0x100 EXP SWAP1 DIV PUSH20 0xFFFFFFFFFFFFFFFFFFFFFFFFFFFFFFFFFFFFFFFF AND PUSH20 0xFFFFFFFFFFFFFFFFFFFFFFFFFFFFFFFFFFFFFFFF AND EQ PUSH2 0xFE2 JUMPI PUSH1 0x40 MLOAD PUSH32 0x8C379A000000000000000000000000000000000000000000000000000000000 DUP2 MSTORE PUSH1 0x4 ADD DUP1 DUP1 PUSH1 0x20 ADD DUP3 DUP2 SUB DUP3 MSTORE PUSH1 0x20 DUP2 MSTORE PUSH1 0x20 ADD DUP1 PUSH32 0x4F776E61626C653A2063616C6C6572206973206E6F7420746865206F776E6572 DUP2 MSTORE POP PUSH1 0x20 ADD SWAP2 POP POP PUSH1 0x40 MLOAD DUP1 SWAP2 SUB SWAP1 REVERT JUMPDEST PUSH2 0xFEA PUSH2 0x3C90 JUMP JUMPDEST JUMP JUMPDEST PUSH2 0xFF4 PUSH2 0x3C88 JUMP JUMPDEST PUSH20 0xFFFFFFFFFFFFFFFFFFFFFFFFFFFFFFFFFFFFFFFF AND PUSH1 0x1 PUSH1 0x0 SWAP1 SLOAD SWAP1 PUSH2 0x100 EXP SWAP1 DIV PUSH20 0xFFFFFFFFFFFFFFFFFFFFFFFFFFFFFFFFFFFFFFFF AND PUSH20 0xFFFFFFFFFFFFFFFFFFFFFFFFFFFFFFFFFFFFFFFF AND EQ PUSH2 0x10B6 JUMPI PUSH1 0x40 MLOAD PUSH32 0x8C379A000000000000000000000000000000000000000000000000000000000 DUP2 MSTORE PUSH1 0x4 ADD DUP1 DUP1 PUSH1 0x20 ADD DUP3 DUP2 SUB DUP3 MSTORE PUSH1 0x20 DUP2 MSTORE PUSH1 0x20 ADD DUP1 PUSH32 0x4F776E61626C653A2063616C6C6572206973206E6F7420746865206F776E6572 DUP2 MSTORE POP PUSH1 0x20 ADD SWAP2 POP POP PUSH1 0x40 MLOAD DUP1 SWAP2 SUB SWAP1 REVERT JUMPDEST PUSH1 0x2 PUSH1 0x0 SLOAD EQ ISZERO PUSH2 0x112F JUMPI PUSH1 0x40 MLOAD PUSH32 0x8C379A000000000000000000000000000000000000000000000000000000000 DUP2 MSTORE PUSH1 0x4 ADD DUP1 DUP1 PUSH1 0x20 ADD DUP3 DUP2 SUB DUP3 MSTORE PUSH1 0x1F DUP2 MSTORE PUSH1 0x20 ADD DUP1 PUSH32 0x5265656E7472616E637947756172643A207265656E7472616E742063616C6C00 DUP2 MSTORE POP PUSH1 0x20 ADD SWAP2 POP POP PUSH1 0x40 MLOAD DUP1 SWAP2 SUB SWAP1 REVERT JUMPDEST PUSH1 0x2 PUSH1 0x0 DUP2 SWAP1 SSTORE POP PUSH1 0x0 DUP2 PUSH1 0x0 SHR SWAP1 POP PUSH1 0xB PUSH1 0x0 SWAP1 SLOAD SWAP1 PUSH2 0x100 EXP SWAP1 DIV PUSH20 0xFFFFFFFFFFFFFFFFFFFFFFFFFFFFFFFFFFFFFFFF AND PUSH20 0xFFFFFFFFFFFFFFFFFFFFFFFFFFFFFFFFFFFFFFFF AND PUSH4 0x42842E0E ADDRESS DUP6 DUP5 PUSH1 0x40 MLOAD DUP5 PUSH4 0xFFFFFFFF AND PUSH1 0xE0 SHL DUP2 MSTORE PUSH1 0x4 ADD DUP1 DUP5 PUSH20 0xFFFFFFFFFFFFFFFFFFFFFFFFFFFFFFFFFFFFFFFF AND DUP2 MSTORE PUSH1 0x20 ADD DUP4 PUSH20 0xFFFFFFFFFFFFFFFFFFFFFFFFFFFFFFFFFFFFFFFF AND DUP2 MSTORE PUSH1 0x20 ADD DUP3 DUP2 MSTORE PUSH1 0x20 ADD SWAP4 POP POP POP POP PUSH1 0x0 PUSH1 0x40 MLOAD DUP1 DUP4 SUB DUP2 PUSH1 0x0 DUP8 DUP1 EXTCODESIZE ISZERO DUP1 ISZERO PUSH2 0x11F0 JUMPI PUSH1 0x0 DUP1 REVERT JUMPDEST POP GAS CALL ISZERO DUP1 ISZERO PUSH2 0x1204 JUMPI RETURNDATASIZE PUSH1 0x0 DUP1 RETURNDATACOPY RETURNDATASIZE PUSH1 0x0 REVERT JUMPDEST POP POP POP POP POP PUSH1 0x1 PUSH1 0x0 DUP2 SWAP1 SSTORE POP POP POP JUMP JUMPDEST PUSH1 0x0 PUSH1 0x2 PUSH1 0x0 SLOAD EQ ISZERO PUSH2 0x1290 JUMPI PUSH1 0x40 MLOAD PUSH32 0x8C379A000000000000000000000000000000000000000000000000000000000 DUP2 MSTORE PUSH1 0x4 ADD DUP1 DUP1 PUSH1 0x20 ADD DUP3 DUP2 SUB DUP3 MSTORE PUSH1 0x1F DUP2 MSTORE PUSH1 0x20 ADD DUP1 PUSH32 0x5265656E7472616E637947756172643A207265656E7472616E742063616C6C00 DUP2 MSTORE POP PUSH1 0x20 ADD SWAP2 POP POP PUSH1 0x40 MLOAD DUP1 SWAP2 SUB SWAP1 REVERT JUMPDEST PUSH1 0x2 PUSH1 0x0 DUP2 SWAP1 SSTORE POP PUSH1 0x1 PUSH1 0x14 SWAP1 SLOAD SWAP1 PUSH2 0x100 EXP SWAP1 DIV PUSH1 0xFF AND ISZERO PUSH2 0x131B JUMPI PUSH1 0x40 MLOAD PUSH32 0x8C379A000000000000000000000000000000000000000000000000000000000 DUP2 MSTORE PUSH1 0x4 ADD DUP1 DUP1 PUSH1 0x20 ADD DUP3 DUP2 SUB DUP3 MSTORE PUSH1 0x10 DUP2 MSTORE PUSH1 0x20 ADD DUP1 PUSH32 0x5061757361626C653A2070617573656400000000000000000000000000000000 DUP2 MSTORE POP PUSH1 0x20 ADD SWAP2 POP POP PUSH1 0x40 MLOAD DUP1 SWAP2 SUB SWAP1 REVERT JUMPDEST DUP4 PUSH1 0x0 DUP2 PUSH1 0x0 SHR SWAP1 POP PUSH1 0x12 PUSH1 0x0 SWAP1 SLOAD SWAP1 PUSH2 0x100 EXP SWAP1 DIV PUSH20 0xFFFFFFFFFFFFFFFFFFFFFFFFFFFFFFFFFFFFFFFF AND PUSH20 0xFFFFFFFFFFFFFFFFFFFFFFFFFFFFFFFFFFFFFFFF AND PUSH1 0x9 PUSH1 0x0 SWAP1 SLOAD SWAP1 PUSH2 0x100 EXP SWAP1 DIV PUSH20 0xFFFFFFFFFFFFFFFFFFFFFFFFFFFFFFFFFFFFFFFF AND PUSH20 0xFFFFFFFFFFFFFFFFFFFFFFFFFFFFFFFFFFFFFFFF AND PUSH4 0x6352211E DUP4 PUSH1 0x40 MLOAD DUP3 PUSH4 0xFFFFFFFF AND PUSH1 0xE0 SHL DUP2 MSTORE PUSH1 0x4 ADD DUP1 DUP3 DUP2 MSTORE PUSH1 0x20 ADD SWAP2 POP POP PUSH1 0x20 PUSH1 0x40 MLOAD DUP1 DUP4 SUB DUP2 PUSH1 0x0 DUP8 DUP1 EXTCODESIZE ISZERO DUP1 ISZERO PUSH2 0x13D2 JUMPI PUSH1 0x0 DUP1 REVERT JUMPDEST POP GAS CALL ISZERO DUP1 ISZERO PUSH2 0x13E6 JUMPI RETURNDATASIZE PUSH1 0x0 DUP1 RETURNDATACOPY RETURNDATASIZE PUSH1 0x0 REVERT JUMPDEST POP POP POP POP PUSH1 0x40 MLOAD RETURNDATASIZE PUSH1 0x20 DUP2 LT ISZERO PUSH2 0x13FC JUMPI PUSH1 0x0 DUP1 REVERT JUMPDEST DUP2 ADD SWAP1 DUP1 DUP1 MLOAD SWAP1 PUSH1 0x20 ADD SWAP1 SWAP3 SWAP2 SWAP1 POP POP POP PUSH20 0xFFFFFFFFFFFFFFFFFFFFFFFFFFFFFFFFFFFFFFFF AND EQ PUSH2 0x1479 JUMPI PUSH1 0x40 MLOAD PUSH32 0x8C379A000000000000000000000000000000000000000000000000000000000 DUP2 MSTORE PUSH1 0x4 ADD DUP1 DUP1 PUSH1 0x20 ADD DUP3 DUP2 SUB DUP3 MSTORE PUSH1 0x31 DUP2 MSTORE PUSH1 0x20 ADD DUP1 PUSH2 0x42ED PUSH1 0x31 SWAP2 CODECOPY PUSH1 0x40 ADD SWAP2 POP POP PUSH1 0x40 MLOAD DUP1 SWAP2 SUB SWAP1 REVERT JUMPDEST PUSH2 0x1481 PUSH2 0x40CF JUMP JUMPDEST PUSH2 0x148A DUP8 PUSH2 0x3838 JUMP JUMPDEST SWAP1 POP PUSH1 0x0 PUSH2 0x149B DUP3 PUSH1 0x20 ADD MLOAD PUSH2 0x39D4 JUMP JUMPDEST SWAP1 POP PUSH1 0x0 DUP2 PUSH1 0xFF AND GT DUP1 ISZERO PUSH2 0x14B3 JUMPI POP PUSH1 0xA DUP2 PUSH1 0xFF AND LT JUMPDEST PUSH2 0x1525 JUMPI PUSH1 0x40 MLOAD PUSH32 0x8C379A000000000000000000000000000000000000000000000000000000000 DUP2 MSTORE PUSH1 0x4 ADD DUP1 DUP1 PUSH1 0x20 ADD DUP3 DUP2 SUB DUP3 MSTORE PUSH1 0x1A DUP2 MSTORE PUSH1 0x20 ADD DUP1 PUSH32 0x4E503A44433A2075736572206E6F74206175746820696E204143000000000000 DUP2 MSTORE POP PUSH1 0x20 ADD SWAP2 POP POP PUSH1 0x40 MLOAD DUP1 SWAP2 SUB SWAP1 REVERT JUMPDEST PUSH1 0x0 PUSH2 0x1534 DUP4 PUSH1 0x0 ADD MLOAD PUSH2 0x3ADD JUMP JUMPDEST PUSH1 0xFF AND EQ PUSH2 0x158D JUMPI PUSH1 0x40 MLOAD PUSH32 0x8C379A000000000000000000000000000000000000000000000000000000000 DUP2 MSTORE PUSH1 0x4 ADD DUP1 DUP1 PUSH1 0x20 ADD DUP3 DUP2 SUB DUP3 MSTORE PUSH1 0x3B DUP2 MSTORE PUSH1 0x20 ADD DUP1 PUSH2 0x425A PUSH1 0x3B SWAP2 CODECOPY PUSH1 0x40 ADD SWAP2 POP POP PUSH1 0x40 MLOAD DUP1 SWAP2 SUB SWAP1 REVERT JUMPDEST DUP7 DUP3 PUSH1 0xC0 ADD MLOAD EQ PUSH2 0x15E9 JUMPI PUSH1 0x40 MLOAD PUSH32 0x8C379A000000000000000000000000000000000000000000000000000000000 DUP2 MSTORE PUSH1 0x4 ADD DUP1 DUP1 PUSH1 0x20 ADD DUP3 DUP2 SUB DUP3 MSTORE PUSH1 0x30 DUP2 MSTORE PUSH1 0x20 ADD DUP1 PUSH2 0x42BD PUSH1 0x30 SWAP2 CODECOPY PUSH1 0x40 ADD SWAP2 POP POP PUSH1 0x40 MLOAD DUP1 SWAP2 SUB SWAP1 REVERT JUMPDEST DUP6 PUSH4 0xFFFFFFFF AND DUP3 PUSH1 0x40 ADD MLOAD PUSH4 0xFFFFFFFF AND GT ISZERO PUSH2 0x1624 JUMPI DUP6 DUP3 PUSH1 0x40 ADD MLOAD SUB DUP3 PUSH1 0x40 ADD SWAP1 PUSH4 0xFFFFFFFF AND SWAP1 DUP2 PUSH4 0xFFFFFFFF AND DUP2 MSTORE POP POP PUSH2 0x163E JUMP JUMPDEST PUSH1 0x0 DUP3 PUSH1 0x40 ADD SWAP1 PUSH4 0xFFFFFFFF AND SWAP1 DUP2 PUSH4 0xFFFFFFFF AND DUP2 MSTORE POP POP JUMPDEST PUSH2 0x1648 DUP9 DUP4 PUSH2 0x3B2F JUMP JUMPDEST DUP2 PUSH1 0x40 ADD MLOAD SWAP5 POP POP POP POP POP PUSH1 0x1 PUSH1 0x0 DUP2 SWAP1 SSTORE POP SWAP4 SWAP3 POP POP POP JUMP JUMPDEST PUSH2 0x166A PUSH2 0x3C88 JUMP JUMPDEST PUSH20 0xFFFFFFFFFFFFFFFFFFFFFFFFFFFFFFFFFFFFFFFF AND PUSH1 0x1 PUSH1 0x0 SWAP1 SLOAD SWAP1 PUSH2 0x100 EXP SWAP1 DIV PUSH20 0xFFFFFFFFFFFFFFFFFFFFFFFFFFFFFFFFFFFFFFFF AND PUSH20 0xFFFFFFFFFFFFFFFFFFFFFFFFFFFFFFFFFFFFFFFF AND EQ PUSH2 0x172C JUMPI PUSH1 0x40 MLOAD PUSH32 0x8C379A000000000000000000000000000000000000000000000000000000000 DUP2 MSTORE PUSH1 0x4 ADD DUP1 DUP1 PUSH1 0x20 ADD DUP3 DUP2 SUB DUP3 MSTORE PUSH1 0x20 DUP2 MSTORE PUSH1 0x20 ADD DUP1 PUSH32 0x4F776E61626C653A2063616C6C6572206973206E6F7420746865206F776E6572 DUP2 MSTORE POP PUSH1 0x20 ADD SWAP2 POP POP PUSH1 0x40 MLOAD DUP1 SWAP2 SUB SWAP1 REVERT JUMPDEST PUSH2 0x1734 PUSH2 0x3D83 JUMP JUMPDEST JUMP JUMPDEST PUSH2 0x173E PUSH2 0x3C88 JUMP JUMPDEST PUSH20 0xFFFFFFFFFFFFFFFFFFFFFFFFFFFFFFFFFFFFFFFF AND PUSH1 0x1 PUSH1 0x0 SWAP1 SLOAD SWAP1 PUSH2 0x100 EXP SWAP1 DIV PUSH20 0xFFFFFFFFFFFFFFFFFFFFFFFFFFFFFFFFFFFFFFFF AND PUSH20 0xFFFFFFFFFFFFFFFFFFFFFFFFFFFFFFFFFFFFFFFF AND EQ PUSH2 0x1800 JUMPI PUSH1 0x40 MLOAD PUSH32 0x8C379A000000000000000000000000000000000000000000000000000000000 DUP2 MSTORE PUSH1 0x4 ADD DUP1 DUP1 PUSH1 0x20 ADD DUP3 DUP2 SUB DUP3 MSTORE PUSH1 0x20 DUP2 MSTORE PUSH1 0x20 ADD DUP1 PUSH32 0x4F776E61626C653A2063616C6C6572206973206E6F7420746865206F776E6572 DUP2 MSTORE POP PUSH1 0x20 ADD SWAP2 POP POP PUSH1 0x40 MLOAD DUP1 SWAP2 SUB SWAP1 REVERT JUMPDEST PUSH1 0x0 PUSH20 0xFFFFFFFFFFFFFFFFFFFFFFFFFFFFFFFFFFFFFFFF AND DUP2 PUSH20 0xFFFFFFFFFFFFFFFFFFFFFFFFFFFFFFFFFFFFFFFF AND EQ ISZERO PUSH2 0x1886 JUMPI PUSH1 0x40 MLOAD PUSH32 0x8C379A000000000000000000000000000000000000000000000000000000000 DUP2 MSTORE PUSH1 0x4 ADD DUP1 DUP1 PUSH1 0x20 ADD DUP3 DUP2 SUB DUP3 MSTORE PUSH1 0x25 DUP2 MSTORE PUSH1 0x20 ADD DUP1 PUSH2 0x4235 PUSH1 0x25 SWAP2 CODECOPY PUSH1 0x40 ADD SWAP2 POP POP PUSH1 0x40 MLOAD DUP1 SWAP2 SUB SWAP1 REVERT JUMPDEST DUP1 PUSH1 0x3 PUSH1 0x0 PUSH2 0x100 EXP DUP2 SLOAD DUP2 PUSH20 0xFFFFFFFFFFFFFFFFFFFFFFFFFFFFFFFFFFFFFFFF MUL NOT AND SWAP1 DUP4 PUSH20 0xFFFFFFFFFFFFFFFFFFFFFFFFFFFFFFFFFFFFFFFF AND MUL OR SWAP1 SSTORE POP POP JUMP JUMPDEST PUSH1 0x0 PUSH1 0x2 PUSH1 0x0 SLOAD EQ ISZERO PUSH2 0x1945 JUMPI PUSH1 0x40 MLOAD PUSH32 0x8C379A000000000000000000000000000000000000000000000000000000000 DUP2 MSTORE PUSH1 0x4 ADD DUP1 DUP1 PUSH1 0x20 ADD DUP3 DUP2 SUB DUP3 MSTORE PUSH1 0x1F DUP2 MSTORE PUSH1 0x20 ADD DUP1 PUSH32 0x5265656E7472616E637947756172643A207265656E7472616E742063616C6C00 DUP2 MSTORE POP PUSH1 0x20 ADD SWAP2 POP POP PUSH1 0x40 MLOAD DUP1 SWAP2 SUB SWAP1 REVERT JUMPDEST PUSH1 0x2 PUSH1 0x0 DUP2 SWAP1 SSTORE POP PUSH1 0x1 PUSH1 0x14 SWAP1 SLOAD SWAP1 PUSH2 0x100 EXP SWAP1 DIV PUSH1 0xFF AND ISZERO PUSH2 0x19D0 JUMPI PUSH1 0x40 MLOAD PUSH32 0x8C379A000000000000000000000000000000000000000000000000000000000 DUP2 MSTORE PUSH1 0x4 ADD DUP1 DUP1 PUSH1 0x20 ADD DUP3 DUP2 SUB DUP3 MSTORE PUSH1 0x10 DUP2 MSTORE PUSH1 0x20 ADD DUP1 PUSH32 0x5061757361626C653A2070617573656400000000000000000000000000000000 DUP2 MSTORE POP PUSH1 0x20 ADD SWAP2 POP POP PUSH1 0x40 MLOAD DUP1 SWAP2 SUB SWAP1 REVERT JUMPDEST DUP3 PUSH1 0x0 DUP2 PUSH1 0x0 SHR SWAP1 POP PUSH1 0x12 PUSH1 0x0 SWAP1 SLOAD SWAP1 PUSH2 0x100 EXP SWAP1 DIV PUSH20 0xFFFFFFFFFFFFFFFFFFFFFFFFFFFFFFFFFFFFFFFF AND PUSH20 0xFFFFFFFFFFFFFFFFFFFFFFFFFFFFFFFFFFFFFFFF AND PUSH1 0x9 PUSH1 0x0 SWAP1 SLOAD SWAP1 PUSH2 0x100 EXP SWAP1 DIV PUSH20 0xFFFFFFFFFFFFFFFFFFFFFFFFFFFFFFFFFFFFFFFF AND PUSH20 0xFFFFFFFFFFFFFFFFFFFFFFFFFFFFFFFFFFFFFFFF AND PUSH4 0x6352211E DUP4 PUSH1 0x40 MLOAD DUP3 PUSH4 0xFFFFFFFF AND PUSH1 0xE0 SHL DUP2 MSTORE PUSH1 0x4 ADD DUP1 DUP3 DUP2 MSTORE PUSH1 0x20 ADD SWAP2 POP POP PUSH1 0x20 PUSH1 0x40 MLOAD DUP1 DUP4 SUB DUP2 PUSH1 0x0 DUP8 DUP1 EXTCODESIZE ISZERO DUP1 ISZERO PUSH2 0x1A87 JUMPI PUSH1 0x0 DUP1 REVERT JUMPDEST POP GAS CALL ISZERO DUP1 ISZERO PUSH2 0x1A9B JUMPI RETURNDATASIZE PUSH1 0x0 DUP1 RETURNDATACOPY RETURNDATASIZE PUSH1 0x0 REVERT JUMPDEST POP POP POP POP PUSH1 0x40 MLOAD RETURNDATASIZE PUSH1 0x20 DUP2 LT ISZERO PUSH2 0x1AB1 JUMPI PUSH1 0x0 DUP1 REVERT JUMPDEST DUP2 ADD SWAP1 DUP1 DUP1 MLOAD SWAP1 PUSH1 0x20 ADD SWAP1 SWAP3 SWAP2 SWAP1 POP POP POP PUSH20 0xFFFFFFFFFFFFFFFFFFFFFFFFFFFFFFFFFFFFFFFF AND EQ PUSH2 0x1B2E JUMPI PUSH1 0x40 MLOAD PUSH32 0x8C379A000000000000000000000000000000000000000000000000000000000 DUP2 MSTORE PUSH1 0x4 ADD DUP1 DUP1 PUSH1 0x20 ADD DUP3 DUP2 SUB DUP3 MSTORE PUSH1 0x31 DUP2 MSTORE PUSH1 0x20 ADD DUP1 PUSH2 0x42ED PUSH1 0x31 SWAP2 CODECOPY PUSH1 0x40 ADD SWAP2 POP POP PUSH1 0x40 MLOAD DUP1 SWAP2 SUB SWAP1 REVERT JUMPDEST PUSH2 0x1B36 PUSH2 0x40CF JUMP JUMPDEST PUSH2 0x1B3F DUP7 PUSH2 0x3838 JUMP JUMPDEST SWAP1 POP PUSH1 0x0 PUSH2 0x1B50 DUP3 PUSH1 0x20 ADD MLOAD PUSH2 0x39D4 JUMP JUMPDEST SWAP1 POP PUSH2 0x1B5A PUSH2 0x4139 JUMP JUMPDEST PUSH2 0x1B67 DUP4 PUSH1 0x20 ADD MLOAD PUSH2 0x3E76 JUMP JUMPDEST SWAP1 POP PUSH1 0x0 DUP3 PUSH1 0xFF AND GT DUP1 ISZERO PUSH2 0x1B7F JUMPI POP PUSH1 0xA DUP3 PUSH1 0xFF AND LT JUMPDEST PUSH2 0x1BF1 JUMPI PUSH1 0x40 MLOAD PUSH32 0x8C379A000000000000000000000000000000000000000000000000000000000 DUP2 MSTORE PUSH1 0x4 ADD DUP1 DUP1 PUSH1 0x20 ADD DUP3 DUP2 SUB DUP3 MSTORE PUSH1 0x1A DUP2 MSTORE PUSH1 0x20 ADD DUP1 PUSH32 0x4E503A45413A2075736572206E6F74206175746820696E204143000000000000 DUP2 MSTORE POP PUSH1 0x20 ADD SWAP2 POP POP PUSH1 0x40 MLOAD DUP1 SWAP2 SUB SWAP1 REVERT JUMPDEST PUSH1 0x33 DUP4 PUSH1 0x0 ADD MLOAD PUSH1 0xFF AND EQ PUSH2 0x1C51 JUMPI PUSH1 0x40 MLOAD PUSH32 0x8C379A000000000000000000000000000000000000000000000000000000000 DUP2 MSTORE PUSH1 0x4 ADD DUP1 DUP1 PUSH1 0x20 ADD DUP3 DUP2 SUB DUP3 MSTORE PUSH1 0x28 DUP2 MSTORE PUSH1 0x20 ADD DUP1 PUSH2 0x4295 PUSH1 0x28 SWAP2 CODECOPY PUSH1 0x40 ADD SWAP2 POP POP PUSH1 0x40 MLOAD DUP1 SWAP2 SUB SWAP1 REVERT JUMPDEST PUSH1 0x46 DUP4 PUSH1 0x0 ADD SWAP1 PUSH1 0xFF AND SWAP1 DUP2 PUSH1 0xFF AND DUP2 MSTORE POP POP PUSH1 0x13 PUSH1 0x0 SWAP1 SLOAD SWAP1 PUSH2 0x100 EXP SWAP1 DIV PUSH20 0xFFFFFFFFFFFFFFFFFFFFFFFFFFFFFFFFFFFFFFFF AND PUSH20 0xFFFFFFFFFFFFFFFFFFFFFFFFFFFFFFFFFFFFFFFF AND PUSH4 0x440E7A7E DUP9 DUP11 PUSH1 0x40 MLOAD DUP4 PUSH4 0xFFFFFFFF AND PUSH1 0xE0 SHL DUP2 MSTORE PUSH1 0x4 ADD DUP1 DUP4 PUSH20 0xFFFFFFFFFFFFFFFFFFFFFFFFFFFFFFFFFFFFFFFF AND DUP2 MSTORE PUSH1 0x20 ADD DUP3 DUP2 MSTORE PUSH1 0x20 ADD SWAP3 POP POP POP PUSH1 0x0 PUSH1 0x40 MLOAD DUP1 DUP4 SUB DUP2 PUSH1 0x0 DUP8 DUP1 EXTCODESIZE ISZERO DUP1 ISZERO PUSH2 0x1CF7 JUMPI PUSH1 0x0 DUP1 REVERT JUMPDEST POP GAS CALL ISZERO DUP1 ISZERO PUSH2 0x1D0B JUMPI RETURNDATASIZE PUSH1 0x0 DUP1 RETURNDATACOPY RETURNDATASIZE PUSH1 0x0 REVERT JUMPDEST POP POP POP POP PUSH2 0x1D19 DUP9 DUP5 PUSH2 0x3B2F JUMP JUMPDEST PUSH1 0x3 PUSH1 0x0 SWAP1 SLOAD SWAP1 PUSH2 0x100 EXP SWAP1 DIV PUSH20 0xFFFFFFFFFFFFFFFFFFFFFFFFFFFFFFFFFFFFFFFF AND PUSH20 0xFFFFFFFFFFFFFFFFFFFFFFFFFFFFFFFFFFFFFFFF AND PUSH4 0x62A02F86 DUP10 DUP4 PUSH1 0x20 ADD MLOAD PUSH1 0x40 MLOAD DUP4 PUSH4 0xFFFFFFFF AND PUSH1 0xE0 SHL DUP2 MSTORE PUSH1 0x4 ADD DUP1 DUP4 DUP2 MSTORE PUSH1 0x20 ADD DUP3 PUSH4 0xFFFFFFFF AND DUP2 MSTORE PUSH1 0x20 ADD SWAP3 POP POP POP PUSH1 0x0 PUSH1 0x40 MLOAD DUP1 DUP4 SUB DUP2 PUSH1 0x0 DUP8 DUP1 EXTCODESIZE ISZERO DUP1 ISZERO PUSH2 0x1DA0 JUMPI PUSH1 0x0 DUP1 REVERT JUMPDEST POP GAS CALL ISZERO DUP1 ISZERO PUSH2 0x1DB4 JUMPI RETURNDATASIZE PUSH1 0x0 DUP1 RETURNDATACOPY RETURNDATASIZE PUSH1 0x0 REVERT JUMPDEST POP POP POP POP DUP3 PUSH1 0x0 ADD MLOAD SWAP6 POP POP POP POP POP POP PUSH1 0x1 PUSH1 0x0 DUP2 SWAP1 SSTORE POP SWAP3 SWAP2 POP POP JUMP JUMPDEST PUSH1 0x2 PUSH1 0x0 SLOAD EQ ISZERO PUSH2 0x1E4B JUMPI PUSH1 0x40 MLOAD PUSH32 0x8C379A000000000000000000000000000000000000000000000000000000000 DUP2 MSTORE PUSH1 0x4 ADD DUP1 DUP1 PUSH1 0x20 ADD DUP3 DUP2 SUB DUP3 MSTORE PUSH1 0x1F DUP2 MSTORE PUSH1 0x20 ADD DUP1 PUSH32 0x5265656E7472616E637947756172643A207265656E7472616E742063616C6C00 DUP2 MSTORE POP PUSH1 0x20 ADD SWAP2 POP POP PUSH1 0x40 MLOAD DUP1 SWAP2 SUB SWAP1 REVERT JUMPDEST PUSH1 0x2 PUSH1 0x0 DUP2 SWAP1 SSTORE POP PUSH2 0x1E5B PUSH2 0x3C88 JUMP JUMPDEST PUSH20 0xFFFFFFFFFFFFFFFFFFFFFFFFFFFFFFFFFFFFFFFF AND PUSH1 0x1 PUSH1 0x0 SWAP1 SLOAD SWAP1 PUSH2 0x100 EXP SWAP1 DIV PUSH20 0xFFFFFFFFFFFFFFFFFFFFFFFFFFFFFFFFFFFFFFFF AND PUSH20 0xFFFFFFFFFFFFFFFFFFFFFFFFFFFFFFFFFFFFFFFF AND EQ PUSH2 0x1F1D JUMPI PUSH1 0x40 MLOAD PUSH32 0x8C379A000000000000000000000000000000000000000000000000000000000 DUP2 MSTORE PUSH1 0x4 ADD DUP1 DUP1 PUSH1 0x20 ADD DUP3 DUP2 SUB DUP3 MSTORE PUSH1 0x20 DUP2 MSTORE PUSH1 0x20 ADD DUP1 PUSH32 0x4F776E61626C653A2063616C6C6572206973206E6F7420746865206F776E6572 DUP2 MSTORE POP PUSH1 0x20 ADD SWAP2 POP POP PUSH1 0x40 MLOAD DUP1 SWAP2 SUB SWAP1 REVERT JUMPDEST PUSH1 0x3 PUSH1 0x0 SWAP1 SLOAD SWAP1 PUSH2 0x100 EXP SWAP1 DIV PUSH20 0xFFFFFFFFFFFFFFFFFFFFFFFFFFFFFFFFFFFFFFFF AND PUSH20 0xFFFFFFFFFFFFFFFFFFFFFFFFFFFFFFFFFFFFFFFF AND PUSH4 0xC771A982 PUSH1 0x40 MLOAD DUP2 PUSH4 0xFFFFFFFF AND PUSH1 0xE0 SHL DUP2 MSTORE PUSH1 0x4 ADD DUP1 DUP1 PUSH1 0x20 ADD DUP3 DUP2 SUB DUP3 MSTORE PUSH1 0x6 DUP2 MSTORE PUSH1 0x20 ADD DUP1 PUSH32 0x41435F544B4E0000000000000000000000000000000000000000000000000000 DUP2 MSTORE POP PUSH1 0x20 ADD SWAP2 POP POP PUSH1 0x20 PUSH1 0x40 MLOAD DUP1 DUP4 SUB DUP2 DUP7 DUP1 EXTCODESIZE ISZERO DUP1 ISZERO PUSH2 0x1FC1 JUMPI PUSH1 0x0 DUP1 REVERT JUMPDEST POP GAS STATICCALL ISZERO DUP1 ISZERO PUSH2 0x1FD5 JUMPI RETURNDATASIZE PUSH1 0x0 DUP1 RETURNDATACOPY RETURNDATASIZE PUSH1 0x0 REVERT JUMPDEST POP POP POP POP PUSH1 0x40 MLOAD RETURNDATASIZE PUSH1 0x20 DUP2 LT ISZERO PUSH2 0x1FEB JUMPI PUSH1 0x0 DUP1 REVERT JUMPDEST DUP2 ADD SWAP1 DUP1 DUP1 MLOAD SWAP1 PUSH1 0x20 ADD SWAP1 SWAP3 SWAP2 SWAP1 POP POP POP PUSH1 0xA PUSH1 0x0 PUSH2 0x100 EXP DUP2 SLOAD DUP2 PUSH20 0xFFFFFFFFFFFFFFFFFFFFFFFFFFFFFFFFFFFFFFFF MUL NOT AND SWAP1 DUP4 PUSH20 0xFFFFFFFFFFFFFFFFFFFFFFFFFFFFFFFFFFFFFFFF AND MUL OR SWAP1 SSTORE POP PUSH1 0xA PUSH1 0x0 SWAP1 SLOAD SWAP1 PUSH2 0x100 EXP SWAP1 DIV PUSH20 0xFFFFFFFFFFFFFFFFFFFFFFFFFFFFFFFFFFFFFFFF AND PUSH1 0xB PUSH1 0x0 PUSH2 0x100 EXP DUP2 SLOAD DUP2 PUSH20 0xFFFFFFFFFFFFFFFFFFFFFFFFFFFFFFFFFFFFFFFF MUL NOT AND SWAP1 DUP4 PUSH20 0xFFFFFFFFFFFFFFFFFFFFFFFFFFFFFFFFFFFFFFFF AND MUL OR SWAP1 SSTORE POP PUSH1 0x3 PUSH1 0x0 SWAP1 SLOAD SWAP1 PUSH2 0x100 EXP SWAP1 DIV PUSH20 0xFFFFFFFFFFFFFFFFFFFFFFFFFFFFFFFFFFFFFFFF AND PUSH20 0xFFFFFFFFFFFFFFFFFFFFFFFFFFFFFFFFFFFFFFFF AND PUSH4 0xC771A982 PUSH1 0x40 MLOAD DUP2 PUSH4 0xFFFFFFFF AND PUSH1 0xE0 SHL DUP2 MSTORE PUSH1 0x4 ADD DUP1 DUP1 PUSH1 0x20 ADD DUP3 DUP2 SUB DUP3 MSTORE PUSH1 0x6 DUP2 MSTORE PUSH1 0x20 ADD DUP1 PUSH32 0x41435F4D47520000000000000000000000000000000000000000000000000000 DUP2 MSTORE POP PUSH1 0x20 ADD SWAP2 POP POP PUSH1 0x20 PUSH1 0x40 MLOAD DUP1 DUP4 SUB DUP2 DUP7 DUP1 EXTCODESIZE ISZERO DUP1 ISZERO PUSH2 0x2143 JUMPI PUSH1 0x0 DUP1 REVERT JUMPDEST POP GAS STATICCALL ISZERO DUP1 ISZERO PUSH2 0x2157 JUMPI RETURNDATASIZE PUSH1 0x0 DUP1 RETURNDATACOPY RETURNDATASIZE PUSH1 0x0 REVERT JUMPDEST POP POP POP POP PUSH1 0x40 MLOAD RETURNDATASIZE PUSH1 0x20 DUP2 LT ISZERO PUSH2 0x216D JUMPI PUSH1 0x0 DUP1 REVERT JUMPDEST DUP2 ADD SWAP1 DUP1 DUP1 MLOAD SWAP1 PUSH1 0x20 ADD SWAP1 SWAP3 SWAP2 SWAP1 POP POP POP PUSH1 0x4 PUSH1 0x0 PUSH2 0x100 EXP DUP2 SLOAD DUP2 PUSH20 0xFFFFFFFFFFFFFFFFFFFFFFFFFFFFFFFFFFFFFFFF MUL NOT AND SWAP1 DUP4 PUSH20 0xFFFFFFFFFFFFFFFFFFFFFFFFFFFFFFFFFFFFFFFF AND MUL OR SWAP1 SSTORE POP PUSH1 0x4 PUSH1 0x0 SWAP1 SLOAD SWAP1 PUSH2 0x100 EXP SWAP1 DIV PUSH20 0xFFFFFFFFFFFFFFFFFFFFFFFFFFFFFFFFFFFFFFFF AND PUSH1 0x5 PUSH1 0x0 PUSH2 0x100 EXP DUP2 SLOAD DUP2 PUSH20 0xFFFFFFFFFFFFFFFFFFFFFFFFFFFFFFFFFFFFFFFF MUL NOT AND SWAP1 DUP4 PUSH20 0xFFFFFFFFFFFFFFFFFFFFFFFFFFFFFFFFFFFFFFFF AND MUL OR SWAP1 SSTORE POP PUSH1 0x3 PUSH1 0x0 SWAP1 SLOAD SWAP1 PUSH2 0x100 EXP SWAP1 DIV PUSH20 0xFFFFFFFFFFFFFFFFFFFFFFFFFFFFFFFFFFFFFFFF AND PUSH20 0xFFFFFFFFFFFFFFFFFFFFFFFFFFFFFFFFFFFFFFFF AND PUSH4 0xC771A982 PUSH1 0x40 MLOAD DUP2 PUSH4 0xFFFFFFFF AND PUSH1 0xE0 SHL DUP2 MSTORE PUSH1 0x4 ADD DUP1 DUP1 PUSH1 0x20 ADD DUP3 DUP2 SUB DUP3 MSTORE PUSH1 0x8 DUP2 MSTORE PUSH1 0x20 ADD DUP1 PUSH32 0x5554494C5F544B4E000000000000000000000000000000000000000000000000 DUP2 MSTORE POP PUSH1 0x20 ADD SWAP2 POP POP PUSH1 0x20 PUSH1 0x40 MLOAD DUP1 DUP4 SUB DUP2 DUP7 DUP1 EXTCODESIZE ISZERO DUP1 ISZERO PUSH2 0x22C5 JUMPI PUSH1 0x0 DUP1 REVERT JUMPDEST POP GAS STATICCALL ISZERO DUP1 ISZERO PUSH2 0x22D9 JUMPI RETURNDATASIZE PUSH1 0x0 DUP1 RETURNDATACOPY RETURNDATASIZE PUSH1 0x0 REVERT JUMPDEST POP POP POP POP PUSH1 0x40 MLOAD RETURNDATASIZE PUSH1 0x20 DUP2 LT ISZERO PUSH2 0x22EF JUMPI PUSH1 0x0 DUP1 REVERT JUMPDEST DUP2 ADD SWAP1 DUP1 DUP1 MLOAD SWAP1 PUSH1 0x20 ADD SWAP1 SWAP3 SWAP2 SWAP1 POP POP POP PUSH1 0x6 PUSH1 0x0 PUSH2 0x100 EXP DUP2 SLOAD DUP2 PUSH20 0xFFFFFFFFFFFFFFFFFFFFFFFFFFFFFFFFFFFFFFFF MUL NOT AND SWAP1 DUP4 PUSH20 0xFFFFFFFFFFFFFFFFFFFFFFFFFFFFFFFFFFFFFFFF AND MUL OR SWAP1 SSTORE POP PUSH1 0x6 PUSH1 0x0 SWAP1 SLOAD SWAP1 PUSH2 0x100 EXP SWAP1 DIV PUSH20 0xFFFFFFFFFFFFFFFFFFFFFFFFFFFFFFFFFFFFFFFF AND PUSH1 0x7 PUSH1 0x0 PUSH2 0x100 EXP DUP2 SLOAD DUP2 PUSH20 0xFFFFFFFFFFFFFFFFFFFFFFFFFFFFFFFFFFFFFFFF MUL NOT AND SWAP1 DUP4 PUSH20 0xFFFFFFFFFFFFFFFFFFFFFFFFFFFFFFFFFFFFFFFF AND MUL OR SWAP1 SSTORE POP PUSH1 0x3 PUSH1 0x0 SWAP1 SLOAD SWAP1 PUSH2 0x100 EXP SWAP1 DIV PUSH20 0xFFFFFFFFFFFFFFFFFFFFFFFFFFFFFFFFFFFFFFFF AND PUSH20 0xFFFFFFFFFFFFFFFFFFFFFFFFFFFFFFFFFFFFFFFF AND PUSH4 0xC771A982 PUSH1 0x40 MLOAD DUP2 PUSH4 0xFFFFFFFF AND PUSH1 0xE0 SHL DUP2 MSTORE PUSH1 0x4 ADD DUP1 DUP1 PUSH1 0x20 ADD DUP3 DUP2 SUB DUP3 MSTORE PUSH1 0x5 DUP2 MSTORE PUSH1 0x20 ADD DUP1 PUSH32 0x415F544B4E000000000000000000000000000000000000000000000000000000 DUP2 MSTORE POP PUSH1 0x20 ADD SWAP2 POP POP PUSH1 0x20 PUSH1 0x40 MLOAD DUP1 DUP4 SUB DUP2 DUP7 DUP1 EXTCODESIZE ISZERO DUP1 ISZERO PUSH2 0x2447 JUMPI PUSH1 0x0 DUP1 REVERT JUMPDEST POP GAS STATICCALL ISZERO DUP1 ISZERO PUSH2 0x245B JUMPI RETURNDATASIZE PUSH1 0x0 DUP1 RETURNDATACOPY RETURNDATASIZE PUSH1 0x0 REVERT JUMPDEST POP POP POP POP PUSH1 0x40 MLOAD RETURNDATASIZE PUSH1 0x20 DUP2 LT ISZERO PUSH2 0x2471 JUMPI PUSH1 0x0 DUP1 REVERT JUMPDEST DUP2 ADD SWAP1 DUP1 DUP1 MLOAD SWAP1 PUSH1 0x20 ADD SWAP1 SWAP3 SWAP2 SWAP1 POP POP POP PUSH1 0x8 PUSH1 0x0 PUSH2 0x100 EXP DUP2 SLOAD DUP2 PUSH20 0xFFFFFFFFFFFFFFFFFFFFFFFFFFFFFFFFFFFFFFFF MUL NOT AND SWAP1 DUP4 PUSH20 0xFFFFFFFFFFFFFFFFFFFFFFFFFFFFFFFFFFFFFFFF AND MUL OR SWAP1 SSTORE POP PUSH1 0x8 PUSH1 0x0 SWAP1 SLOAD SWAP1 PUSH2 0x100 EXP SWAP1 DIV PUSH20 0xFFFFFFFFFFFFFFFFFFFFFFFFFFFFFFFFFFFFFFFF AND PUSH1 0x9 PUSH1 0x0 PUSH2 0x100 EXP DUP2 SLOAD DUP2 PUSH20 0xFFFFFFFFFFFFFFFFFFFFFFFFFFFFFFFFFFFFFFFF MUL NOT AND SWAP1 DUP4 PUSH20 0xFFFFFFFFFFFFFFFFFFFFFFFFFFFFFFFFFFFFFFFF AND MUL OR SWAP1 SSTORE POP PUSH1 0x3 PUSH1 0x0 SWAP1 SLOAD SWAP1 PUSH2 0x100 EXP SWAP1 DIV PUSH20 0xFFFFFFFFFFFFFFFFFFFFFFFFFFFFFFFFFFFFFFFF AND PUSH20 0xFFFFFFFFFFFFFFFFFFFFFFFFFFFFFFFFFFFFFFFF AND PUSH4 0xC771A982 PUSH1 0x40 MLOAD DUP2 PUSH4 0xFFFFFFFF AND PUSH1 0xE0 SHL DUP2 MSTORE PUSH1 0x4 ADD DUP1 DUP1 PUSH1 0x20 ADD DUP3 DUP2 SUB DUP3 MSTORE PUSH1 0x6 DUP2 MSTORE PUSH1 0x20 ADD DUP1 PUSH32 0x49445F544B4E0000000000000000000000000000000000000000000000000000 DUP2 MSTORE POP PUSH1 0x20 ADD SWAP2 POP POP PUSH1 0x20 PUSH1 0x40 MLOAD DUP1 DUP4 SUB DUP2 DUP7 DUP1 EXTCODESIZE ISZERO DUP1 ISZERO PUSH2 0x25C9 JUMPI PUSH1 0x0 DUP1 REVERT JUMPDEST POP GAS STATICCALL ISZERO DUP1 ISZERO PUSH2 0x25DD JUMPI RETURNDATASIZE PUSH1 0x0 DUP1 RETURNDATACOPY RETURNDATASIZE PUSH1 0x0 REVERT JUMPDEST POP POP POP POP PUSH1 0x40 MLOAD RETURNDATASIZE PUSH1 0x20 DUP2 LT ISZERO PUSH2 0x25F3 JUMPI PUSH1 0x0 DUP1 REVERT JUMPDEST DUP2 ADD SWAP1 DUP1 DUP1 MLOAD SWAP1 PUSH1 0x20 ADD SWAP1 SWAP3 SWAP2 SWAP1 POP POP POP PUSH1 0xC PUSH1 0x0 PUSH2 0x100 EXP DUP2 SLOAD DUP2 PUSH20 0xFFFFFFFFFFFFFFFFFFFFFFFFFFFFFFFFFFFFFFFF MUL NOT AND SWAP1 DUP4 PUSH20 0xFFFFFFFFFFFFFFFFFFFFFFFFFFFFFFFFFFFFFFFF AND MUL OR SWAP1 SSTORE POP PUSH1 0xC PUSH1 0x0 SWAP1 SLOAD SWAP1 PUSH2 0x100 EXP SWAP1 DIV PUSH20 0xFFFFFFFFFFFFFFFFFFFFFFFFFFFFFFFFFFFFFFFF AND PUSH1 0xD PUSH1 0x0 PUSH2 0x100 EXP DUP2 SLOAD DUP2 PUSH20 0xFFFFFFFFFFFFFFFFFFFFFFFFFFFFFFFFFFFFFFFF MUL NOT AND SWAP1 DUP4 PUSH20 0xFFFFFFFFFFFFFFFFFFFFFFFFFFFFFFFFFFFFFFFF AND MUL OR SWAP1 SSTORE POP PUSH1 0x3 PUSH1 0x0 SWAP1 SLOAD SWAP1 PUSH2 0x100 EXP SWAP1 DIV PUSH20 0xFFFFFFFFFFFFFFFFFFFFFFFFFFFFFFFFFFFFFFFF AND PUSH20 0xFFFFFFFFFFFFFFFFFFFFFFFFFFFFFFFFFFFFFFFF AND PUSH4 0xC771A982 PUSH1 0x40 MLOAD DUP2 PUSH4 0xFFFFFFFF AND PUSH1 0xE0 SHL DUP2 MSTORE PUSH1 0x4 ADD DUP1 DUP1 PUSH1 0x20 ADD DUP3 DUP2 SUB DUP3 MSTORE PUSH1 0x7 DUP2 MSTORE PUSH1 0x20 ADD DUP1 PUSH32 0x4543525F4D475200000000000000000000000000000000000000000000000000 DUP2 MSTORE POP PUSH1 0x20 ADD SWAP2 POP POP PUSH1 0x20 PUSH1 0x40 MLOAD DUP1 DUP4 SUB DUP2 DUP7 DUP1 EXTCODESIZE ISZERO DUP1 ISZERO PUSH2 0x274B JUMPI PUSH1 0x0 DUP1 REVERT JUMPDEST POP GAS STATICCALL ISZERO DUP1 ISZERO PUSH2 0x275F JUMPI RETURNDATASIZE PUSH1 0x0 DUP1 RETURNDATACOPY RETURNDATASIZE PUSH1 0x0 REVERT JUMPDEST POP POP POP POP PUSH1 0x40 MLOAD RETURNDATASIZE PUSH1 0x20 DUP2 LT ISZERO PUSH2 0x2775 JUMPI PUSH1 0x0 DUP1 REVERT JUMPDEST DUP2 ADD SWAP1 DUP1 DUP1 MLOAD SWAP1 PUSH1 0x20 ADD SWAP1 SWAP3 SWAP2 SWAP1 POP POP POP PUSH1 0xE PUSH1 0x0 PUSH2 0x100 EXP DUP2 SLOAD DUP2 PUSH20 0xFFFFFFFFFFFFFFFFFFFFFFFFFFFFFFFFFFFFFFFF MUL NOT AND SWAP1 DUP4 PUSH20 0xFFFFFFFFFFFFFFFFFFFFFFFFFFFFFFFFFFFFFFFF AND MUL OR SWAP1 SSTORE POP PUSH1 0xE PUSH1 0x0 SWAP1 SLOAD SWAP1 PUSH2 0x100 EXP SWAP1 DIV PUSH20 0xFFFFFFFFFFFFFFFFFFFFFFFFFFFFFFFFFFFFFFFF AND PUSH1 0xF PUSH1 0x0 PUSH2 0x100 EXP DUP2 SLOAD DUP2 PUSH20 0xFFFFFFFFFFFFFFFFFFFFFFFFFFFFFFFFFFFFFFFF MUL NOT AND SWAP1 DUP4 PUSH20 0xFFFFFFFFFFFFFFFFFFFFFFFFFFFFFFFFFFFFFFFF AND MUL OR SWAP1 SSTORE POP PUSH1 0x3 PUSH1 0x0 SWAP1 SLOAD SWAP1 PUSH2 0x100 EXP SWAP1 DIV PUSH20 0xFFFFFFFFFFFFFFFFFFFFFFFFFFFFFFFFFFFFFFFF AND PUSH20 0xFFFFFFFFFFFFFFFFFFFFFFFFFFFFFFFFFFFFFFFF AND PUSH4 0xC771A982 PUSH1 0x40 MLOAD DUP2 PUSH4 0xFFFFFFFF AND PUSH1 0xE0 SHL DUP2 MSTORE PUSH1 0x4 ADD DUP1 DUP1 PUSH1 0x20 ADD DUP3 DUP2 SUB DUP3 MSTORE PUSH1 0x3 DUP2 MSTORE PUSH1 0x20 ADD DUP1 PUSH32 0x4150500000000000000000000000000000000000000000000000000000000000 DUP2 MSTORE POP PUSH1 0x20 ADD SWAP2 POP POP PUSH1 0x20 PUSH1 0x40 MLOAD DUP1 DUP4 SUB DUP2 DUP7 DUP1 EXTCODESIZE ISZERO DUP1 ISZERO PUSH2 0x28CD JUMPI PUSH1 0x0 DUP1 REVERT JUMPDEST POP GAS STATICCALL ISZERO DUP1 ISZERO PUSH2 0x28E1 JUMPI RETURNDATASIZE PUSH1 0x0 DUP1 RETURNDATACOPY RETURNDATASIZE PUSH1 0x0 REVERT JUMPDEST POP POP POP POP PUSH1 0x40 MLOAD RETURNDATASIZE PUSH1 0x20 DUP2 LT ISZERO PUSH2 0x28F7 JUMPI PUSH1 0x0 DUP1 REVERT JUMPDEST DUP2 ADD SWAP1 DUP1 DUP1 MLOAD SWAP1 PUSH1 0x20 ADD SWAP1 SWAP3 SWAP2 SWAP1 POP POP POP PUSH1 0x12 PUSH1 0x0 PUSH2 0x100 EXP DUP2 SLOAD DUP2 PUSH20 0xFFFFFFFFFFFFFFFFFFFFFFFFFFFFFFFFFFFFFFFF MUL NOT AND SWAP1 DUP4 PUSH20 0xFFFFFFFFFFFFFFFFFFFFFFFFFFFFFFFFFFFFFFFF AND MUL OR SWAP1 SSTORE POP PUSH1 0x12 PUSH1 0x0 SWAP1 SLOAD SWAP1 PUSH2 0x100 EXP SWAP1 DIV PUSH20 0xFFFFFFFFFFFFFFFFFFFFFFFFFFFFFFFFFFFFFFFF AND PUSH1 0x13 PUSH1 0x0 PUSH2 0x100 EXP DUP2 SLOAD DUP2 PUSH20 0xFFFFFFFFFFFFFFFFFFFFFFFFFFFFFFFFFFFFFFFF MUL NOT AND SWAP1 DUP4 PUSH20 0xFFFFFFFFFFFFFFFFFFFFFFFFFFFFFFFFFFFFFFFF AND MUL OR SWAP1 SSTORE POP PUSH1 0x3 PUSH1 0x0 SWAP1 SLOAD SWAP1 PUSH2 0x100 EXP SWAP1 DIV PUSH20 0xFFFFFFFFFFFFFFFFFFFFFFFFFFFFFFFFFFFFFFFF AND PUSH20 0xFFFFFFFFFFFFFFFFFFFFFFFFFFFFFFFFFFFFFFFF AND PUSH4 0xC771A982 PUSH1 0x40 MLOAD DUP2 PUSH4 0xFFFFFFFF AND PUSH1 0xE0 SHL DUP2 MSTORE PUSH1 0x4 ADD DUP1 DUP1 PUSH1 0x20 ADD DUP3 DUP2 SUB DUP3 MSTORE PUSH1 0x4 DUP2 MSTORE PUSH1 0x20 ADD DUP1 PUSH32 0x52434C5200000000000000000000000000000000000000000000000000000000 DUP2 MSTORE POP PUSH1 0x20 ADD SWAP2 POP POP PUSH1 0x20 PUSH1 0x40 MLOAD DUP1 DUP4 SUB DUP2 DUP7 DUP1 EXTCODESIZE ISZERO DUP1 ISZERO PUSH2 0x2A4F JUMPI PUSH1 0x0 DUP1 REVERT JUMPDEST POP GAS STATICCALL ISZERO DUP1 ISZERO PUSH2 0x2A63 JUMPI RETURNDATASIZE PUSH1 0x0 DUP1 RETURNDATACOPY RETURNDATASIZE PUSH1 0x0 REVERT JUMPDEST POP POP POP POP PUSH1 0x40 MLOAD RETURNDATASIZE PUSH1 0x20 DUP2 LT ISZERO PUSH2 0x2A79 JUMPI PUSH1 0x0 DUP1 REVERT JUMPDEST DUP2 ADD SWAP1 DUP1 DUP1 MLOAD SWAP1 PUSH1 0x20 ADD SWAP1 SWAP3 SWAP2 SWAP1 POP POP POP PUSH1 0x10 PUSH1 0x0 PUSH2 0x100 EXP DUP2 SLOAD DUP2 PUSH20 0xFFFFFFFFFFFFFFFFFFFFFFFFFFFFFFFFFFFFFFFF MUL NOT AND SWAP1 DUP4 PUSH20 0xFFFFFFFFFFFFFFFFFFFFFFFFFFFFFFFFFFFFFFFF AND MUL OR SWAP1 SSTORE POP PUSH1 0x10 PUSH1 0x0 SWAP1 SLOAD SWAP1 PUSH2 0x100 EXP SWAP1 DIV PUSH20 0xFFFFFFFFFFFFFFFFFFFFFFFFFFFFFFFFFFFFFFFF AND PUSH1 0x11 PUSH1 0x0 PUSH2 0x100 EXP DUP2 SLOAD DUP2 PUSH20 0xFFFFFFFFFFFFFFFFFFFFFFFFFFFFFFFFFFFFFFFF MUL NOT AND SWAP1 DUP4 PUSH20 0xFFFFFFFFFFFFFFFFFFFFFFFFFFFFFFFFFFFFFFFF AND MUL OR SWAP1 SSTORE POP PUSH1 0x3 PUSH1 0x0 SWAP1 SLOAD SWAP1 PUSH2 0x100 EXP SWAP1 DIV PUSH20 0xFFFFFFFFFFFFFFFFFFFFFFFFFFFFFFFFFFFFFFFF AND PUSH20 0xFFFFFFFFFFFFFFFFFFFFFFFFFFFFFFFFFFFFFFFF AND PUSH4 0xC771A982 PUSH1 0x40 MLOAD DUP2 PUSH4 0xFFFFFFFF AND PUSH1 0xE0 SHL DUP2 MSTORE PUSH1 0x4 ADD DUP1 DUP1 PUSH1 0x20 ADD DUP3 DUP2 SUB DUP3 MSTORE PUSH1 0x6 DUP2 MSTORE PUSH1 0x20 ADD DUP1 PUSH32 0x4150505F4E430000000000000000000000000000000000000000000000000000 DUP2 MSTORE POP PUSH1 0x20 ADD SWAP2 POP POP PUSH1 0x20 PUSH1 0x40 MLOAD DUP1 DUP4 SUB DUP2 DUP7 DUP1 EXTCODESIZE ISZERO DUP1 ISZERO PUSH2 0x2BD1 JUMPI PUSH1 0x0 DUP1 REVERT JUMPDEST POP GAS STATICCALL ISZERO DUP1 ISZERO PUSH2 0x2BE5 JUMPI RETURNDATASIZE PUSH1 0x0 DUP1 RETURNDATACOPY RETURNDATASIZE PUSH1 0x0 REVERT JUMPDEST POP POP POP POP PUSH1 0x40 MLOAD RETURNDATASIZE PUSH1 0x20 DUP2 LT ISZERO PUSH2 0x2BFB JUMPI PUSH1 0x0 DUP1 REVERT JUMPDEST DUP2 ADD SWAP1 DUP1 DUP1 MLOAD SWAP1 PUSH1 0x20 ADD SWAP1 SWAP3 SWAP2 SWAP1 POP POP POP PUSH1 0x14 PUSH1 0x0 PUSH2 0x100 EXP DUP2 SLOAD DUP2 PUSH20 0xFFFFFFFFFFFFFFFFFFFFFFFFFFFFFFFFFFFFFFFF MUL NOT AND SWAP1 DUP4 PUSH20 0xFFFFFFFFFFFFFFFFFFFFFFFFFFFFFFFFFFFFFFFF AND MUL OR SWAP1 SSTORE POP PUSH1 0x3 PUSH1 0x0 SWAP1 SLOAD SWAP1 PUSH2 0x100 EXP SWAP1 DIV PUSH20 0xFFFFFFFFFFFFFFFFFFFFFFFFFFFFFFFFFFFFFFFF AND PUSH20 0xFFFFFFFFFFFFFFFFFFFFFFFFFFFFFFFFFFFFFFFF AND PUSH4 0xC771A982 PUSH1 0x40 MLOAD DUP2 PUSH4 0xFFFFFFFF AND PUSH1 0xE0 SHL DUP2 MSTORE PUSH1 0x4 ADD DUP1 DUP1 PUSH1 0x20 ADD DUP3 DUP2 SUB DUP3 MSTORE PUSH1 0x2 DUP2 MSTORE PUSH1 0x20 ADD DUP1 PUSH32 0x4E50000000000000000000000000000000000000000000000000000000000000 DUP2 MSTORE POP PUSH1 0x20 ADD SWAP2 POP POP PUSH1 0x20 PUSH1 0x40 MLOAD DUP1 DUP4 SUB DUP2 DUP7 DUP1 EXTCODESIZE ISZERO DUP1 ISZERO PUSH2 0x2CF0 JUMPI PUSH1 0x0 DUP1 REVERT JUMPDEST POP GAS STATICCALL ISZERO DUP1 ISZERO PUSH2 0x2D04 JUMPI RETURNDATASIZE PUSH1 0x0 DUP1 RETURNDATACOPY RETURNDATASIZE PUSH1 0x0 REVERT JUMPDEST POP POP POP POP PUSH1 0x40 MLOAD RETURNDATASIZE PUSH1 0x20 DUP2 LT ISZERO PUSH2 0x2D1A JUMPI PUSH1 0x0 DUP1 REVERT JUMPDEST DUP2 ADD SWAP1 DUP1 DUP1 MLOAD SWAP1 PUSH1 0x20 ADD SWAP1 SWAP3 SWAP2 SWAP1 POP POP POP PUSH1 0x17 PUSH1 0x0 PUSH2 0x100 EXP DUP2 SLOAD DUP2 PUSH20 0xFFFFFFFFFFFFFFFFFFFFFFFFFFFFFFFFFFFFFFFF MUL NOT AND SWAP1 DUP4 PUSH20 0xFFFFFFFFFFFFFFFFFFFFFFFFFFFFFFFFFFFFFFFF AND MUL OR SWAP1 SSTORE POP PUSH1 0x1 PUSH1 0x0 DUP2 SWAP1 SSTORE POP JUMP JUMPDEST PUSH1 0x0 PUSH1 0x2 PUSH1 0x0 SLOAD EQ ISZERO PUSH2 0x2DF0 JUMPI PUSH1 0x40 MLOAD PUSH32 0x8C379A000000000000000000000000000000000000000000000000000000000 DUP2 MSTORE PUSH1 0x4 ADD DUP1 DUP1 PUSH1 0x20 ADD DUP3 DUP2 SUB DUP3 MSTORE PUSH1 0x1F DUP2 MSTORE PUSH1 0x20 ADD DUP1 PUSH32 0x5265656E7472616E637947756172643A207265656E7472616E742063616C6C00 DUP2 MSTORE POP PUSH1 0x20 ADD SWAP2 POP POP PUSH1 0x40 MLOAD DUP1 SWAP2 SUB SWAP1 REVERT JUMPDEST PUSH1 0x2 PUSH1 0x0 DUP2 SWAP1 SSTORE POP PUSH1 0x1 PUSH1 0x14 SWAP1 SLOAD SWAP1 PUSH2 0x100 EXP SWAP1 DIV PUSH1 0xFF AND ISZERO PUSH2 0x2E7B JUMPI PUSH1 0x40 MLOAD PUSH32 0x8C379A000000000000000000000000000000000000000000000000000000000 DUP2 MSTORE PUSH1 0x4 ADD DUP1 DUP1 PUSH1 0x20 ADD DUP3 DUP2 SUB DUP3 MSTORE PUSH1 0x10 DUP2 MSTORE PUSH1 0x20 ADD DUP1 PUSH32 0x5061757361626C653A2070617573656400000000000000000000000000000000 DUP2 MSTORE POP PUSH1 0x20 ADD SWAP2 POP POP PUSH1 0x40 MLOAD DUP1 SWAP2 SUB SWAP1 REVERT JUMPDEST DUP4 PUSH1 0x0 DUP2 PUSH1 0x0 SHR SWAP1 POP PUSH1 0x12 PUSH1 0x0 SWAP1 SLOAD SWAP1 PUSH2 0x100 EXP SWAP1 DIV PUSH20 0xFFFFFFFFFFFFFFFFFFFFFFFFFFFFFFFFFFFFFFFF AND PUSH20 0xFFFFFFFFFFFFFFFFFFFFFFFFFFFFFFFFFFFFFFFF AND PUSH1 0x9 PUSH1 0x0 SWAP1 SLOAD SWAP1 PUSH2 0x100 EXP SWAP1 DIV PUSH20 0xFFFFFFFFFFFFFFFFFFFFFFFFFFFFFFFFFFFFFFFF AND PUSH20 0xFFFFFFFFFFFFFFFFFFFFFFFFFFFFFFFFFFFFFFFF AND PUSH4 0x6352211E DUP4 PUSH1 0x40 MLOAD DUP3 PUSH4 0xFFFFFFFF AND PUSH1 0xE0 SHL DUP2 MSTORE PUSH1 0x4 ADD DUP1 DUP3 DUP2 MSTORE PUSH1 0x20 ADD SWAP2 POP POP PUSH1 0x20 PUSH1 0x40 MLOAD DUP1 DUP4 SUB DUP2 PUSH1 0x0 DUP8 DUP1 EXTCODESIZE ISZERO DUP1 ISZERO PUSH2 0x2F32 JUMPI PUSH1 0x0 DUP1 REVERT JUMPDEST POP GAS CALL ISZERO DUP1 ISZERO PUSH2 0x2F46 JUMPI RETURNDATASIZE PUSH1 0x0 DUP1 RETURNDATACOPY RETURNDATASIZE PUSH1 0x0 REVERT JUMPDEST POP POP POP POP PUSH1 0x40 MLOAD RETURNDATASIZE PUSH1 0x20 DUP2 LT ISZERO PUSH2 0x2F5C JUMPI PUSH1 0x0 DUP1 REVERT JUMPDEST DUP2 ADD SWAP1 DUP1 DUP1 MLOAD SWAP1 PUSH1 0x20 ADD SWAP1 SWAP3 SWAP2 SWAP1 POP POP POP PUSH20 0xFFFFFFFFFFFFFFFFFFFFFFFFFFFFFFFFFFFFFFFF AND EQ PUSH2 0x2FD9 JUMPI PUSH1 0x40 MLOAD PUSH32 0x8C379A000000000000000000000000000000000000000000000000000000000 DUP2 MSTORE PUSH1 0x4 ADD DUP1 DUP1 PUSH1 0x20 ADD DUP3 DUP2 SUB DUP3 MSTORE PUSH1 0x31 DUP2 MSTORE PUSH1 0x20 ADD DUP1 PUSH2 0x42ED PUSH1 0x31 SWAP2 CODECOPY PUSH1 0x40 ADD SWAP2 POP POP PUSH1 0x40 MLOAD DUP1 SWAP2 SUB SWAP1 REVERT JUMPDEST PUSH2 0x2FE1 PUSH2 0x40CF JUMP JUMPDEST PUSH2 0x2FEA DUP8 PUSH2 0x3838 JUMP JUMPDEST SWAP1 POP PUSH1 0x0 PUSH2 0x2FFB DUP3 PUSH1 0x20 ADD MLOAD PUSH2 0x39D4 JUMP JUMPDEST SWAP1 POP PUSH1 0x0 DUP2 PUSH1 0xFF AND GT DUP1 ISZERO PUSH2 0x3013 JUMPI POP PUSH1 0xA DUP2 PUSH1 0xFF AND LT JUMPDEST PUSH2 0x3085 JUMPI PUSH1 0x40 MLOAD PUSH32 0x8C379A000000000000000000000000000000000000000000000000000000000 DUP2 MSTORE PUSH1 0x4 ADD DUP1 DUP1 PUSH1 0x20 ADD DUP3 DUP2 SUB DUP3 MSTORE PUSH1 0x1B DUP2 MSTORE PUSH1 0x20 ADD DUP1 PUSH32 0x4E503A534C533A2075736572206E6F74206175746820696E2041430000000000 DUP2 MSTORE POP PUSH1 0x20 ADD SWAP2 POP POP PUSH1 0x40 MLOAD DUP1 SWAP2 SUB SWAP1 REVERT JUMPDEST PUSH1 0x31 DUP3 PUSH1 0x0 ADD MLOAD PUSH1 0xFF AND GT DUP1 PUSH2 0x30AD JUMPI POP PUSH1 0x32 DUP7 PUSH1 0xFF AND LT DUP1 ISZERO PUSH2 0x30AC JUMPI POP PUSH1 0x5 DUP2 PUSH1 0xFF AND LT JUMPDEST JUMPDEST PUSH2 0x3102 JUMPI PUSH1 0x40 MLOAD PUSH32 0x8C379A000000000000000000000000000000000000000000000000000000000 DUP2 MSTORE PUSH1 0x4 ADD DUP1 DUP1 PUSH1 0x20 ADD DUP3 DUP2 SUB DUP3 MSTORE PUSH1 0x46 DUP2 MSTORE PUSH1 0x20 ADD DUP1 PUSH2 0x4380 PUSH1 0x46 SWAP2 CODECOPY PUSH1 0x60 ADD SWAP2 POP POP PUSH1 0x40 MLOAD DUP1 SWAP2 SUB SWAP1 REVERT JUMPDEST DUP7 DUP3 PUSH1 0xC0 ADD MLOAD EQ PUSH2 0x315E JUMPI PUSH1 0x40 MLOAD PUSH32 0x8C379A000000000000000000000000000000000000000000000000000000000 DUP2 MSTORE PUSH1 0x4 ADD DUP1 DUP1 PUSH1 0x20 ADD DUP3 DUP2 SUB DUP3 MSTORE PUSH1 0x31 DUP2 MSTORE PUSH1 0x20 ADD DUP1 PUSH2 0x41AD PUSH1 0x31 SWAP2 CODECOPY PUSH1 0x40 ADD SWAP2 POP POP PUSH1 0x40 MLOAD DUP1 SWAP2 SUB SWAP1 REVERT JUMPDEST DUP6 DUP3 PUSH1 0x0 ADD SWAP1 PUSH1 0xFF AND SWAP1 DUP2 PUSH1 0xFF AND DUP2 MSTORE POP POP PUSH1 0x3 PUSH1 0x0 SWAP1 SLOAD SWAP1 PUSH2 0x100 EXP SWAP1 DIV PUSH20 0xFFFFFFFFFFFFFFFFFFFFFFFFFFFFFFFFFFFFFFFF AND PUSH20 0xFFFFFFFFFFFFFFFFFFFFFFFFFFFFFFFFFFFFFFFF AND PUSH4 0xF22354A6 DUP10 DUP5 PUSH1 0x0 ADD MLOAD PUSH1 0x40 MLOAD DUP4 PUSH4 0xFFFFFFFF AND PUSH1 0xE0 SHL DUP2 MSTORE PUSH1 0x4 ADD DUP1 DUP4 DUP2 MSTORE PUSH1 0x20 ADD DUP3 PUSH1 0xFF AND DUP2 MSTORE PUSH1 0x20 ADD SWAP3 POP POP POP PUSH1 0x0 PUSH1 0x40 MLOAD DUP1 DUP4 SUB DUP2 PUSH1 0x0 DUP8 DUP1 EXTCODESIZE ISZERO DUP1 ISZERO PUSH2 0x31F4 JUMPI PUSH1 0x0 DUP1 REVERT JUMPDEST POP GAS CALL ISZERO DUP1 ISZERO PUSH2 0x3208 JUMPI RETURNDATASIZE PUSH1 0x0 DUP1 RETURNDATACOPY RETURNDATASIZE PUSH1 0x0 REVERT JUMPDEST POP POP POP POP DUP2 PUSH1 0x0 ADD MLOAD SWAP5 POP POP POP POP POP PUSH1 0x1 PUSH1 0x0 DUP2 SWAP1 SSTORE POP SWAP4 SWAP3 POP POP POP JUMP JUMPDEST PUSH1 0x0 PUSH1 0x2 PUSH1 0x0 SLOAD EQ ISZERO PUSH2 0x32A1 JUMPI PUSH1 0x40 MLOAD PUSH32 0x8C379A000000000000000000000000000000000000000000000000000000000 DUP2 MSTORE PUSH1 0x4 ADD DUP1 DUP1 PUSH1 0x20 ADD DUP3 DUP2 SUB DUP3 MSTORE PUSH1 0x1F DUP2 MSTORE PUSH1 0x20 ADD DUP1 PUSH32 0x5265656E7472616E637947756172643A207265656E7472616E742063616C6C00 DUP2 MSTORE POP PUSH1 0x20 ADD SWAP2 POP POP PUSH1 0x40 MLOAD DUP1 SWAP2 SUB SWAP1 REVERT JUMPDEST PUSH1 0x2 PUSH1 0x0 DUP2 SWAP1 SSTORE POP PUSH1 0x1 PUSH1 0x14 SWAP1 SLOAD SWAP1 PUSH2 0x100 EXP SWAP1 DIV PUSH1 0xFF AND ISZERO PUSH2 0x332C JUMPI PUSH1 0x40 MLOAD PUSH32 0x8C379A000000000000000000000000000000000000000000000000000000000 DUP2 MSTORE PUSH1 0x4 ADD DUP1 DUP1 PUSH1 0x20 ADD DUP3 DUP2 SUB DUP3 MSTORE PUSH1 0x10 DUP2 MSTORE PUSH1 0x20 ADD DUP1 PUSH32 0x5061757361626C653A2070617573656400000000000000000000000000000000 DUP2 MSTORE POP PUSH1 0x20 ADD SWAP2 POP POP PUSH1 0x40 MLOAD DUP1 SWAP2 SUB SWAP1 REVERT JUMPDEST DUP4 PUSH1 0x0 DUP2 PUSH1 0x0 SHR SWAP1 POP PUSH1 0x12 PUSH1 0x0 SWAP1 SLOAD SWAP1 PUSH2 0x100 EXP SWAP1 DIV PUSH20 0xFFFFFFFFFFFFFFFFFFFFFFFFFFFFFFFFFFFFFFFF AND PUSH20 0xFFFFFFFFFFFFFFFFFFFFFFFFFFFFFFFFFFFFFFFF AND PUSH1 0x9 PUSH1 0x0 SWAP1 SLOAD SWAP1 PUSH2 0x100 EXP SWAP1 DIV PUSH20 0xFFFFFFFFFFFFFFFFFFFFFFFFFFFFFFFFFFFFFFFF AND PUSH20 0xFFFFFFFFFFFFFFFFFFFFFFFFFFFFFFFFFFFFFFFF AND PUSH4 0x6352211E DUP4 PUSH1 0x40 MLOAD DUP3 PUSH4 0xFFFFFFFF AND PUSH1 0xE0 SHL DUP2 MSTORE PUSH1 0x4 ADD DUP1 DUP3 DUP2 MSTORE PUSH1 0x20 ADD SWAP2 POP POP PUSH1 0x20 PUSH1 0x40 MLOAD DUP1 DUP4 SUB DUP2 PUSH1 0x0 DUP8 DUP1 EXTCODESIZE ISZERO DUP1 ISZERO PUSH2 0x33E3 JUMPI PUSH1 0x0 DUP1 REVERT JUMPDEST POP GAS CALL ISZERO DUP1 ISZERO PUSH2 0x33F7 JUMPI RETURNDATASIZE PUSH1 0x0 DUP1 RETURNDATACOPY RETURNDATASIZE PUSH1 0x0 REVERT JUMPDEST POP POP POP POP PUSH1 0x40 MLOAD RETURNDATASIZE PUSH1 0x20 DUP2 LT ISZERO PUSH2 0x340D JUMPI PUSH1 0x0 DUP1 REVERT JUMPDEST DUP2 ADD SWAP1 DUP1 DUP1 MLOAD SWAP1 PUSH1 0x20 ADD SWAP1 SWAP3 SWAP2 SWAP1 POP POP POP PUSH20 0xFFFFFFFFFFFFFFFFFFFFFFFFFFFFFFFFFFFFFFFF AND EQ PUSH2 0x348A JUMPI PUSH1 0x40 MLOAD PUSH32 0x8C379A000000000000000000000000000000000000000000000000000000000 DUP2 MSTORE PUSH1 0x4 ADD DUP1 DUP1 PUSH1 0x20 ADD DUP3 DUP2 SUB DUP3 MSTORE PUSH1 0x31 DUP2 MSTORE PUSH1 0x20 ADD DUP1 PUSH2 0x42ED PUSH1 0x31 SWAP2 CODECOPY PUSH1 0x40 ADD SWAP2 POP POP PUSH1 0x40 MLOAD DUP1 SWAP2 SUB SWAP1 REVERT JUMPDEST PUSH2 0x3492 PUSH2 0x40CF JUMP JUMPDEST PUSH2 0x349B DUP8 PUSH2 0x3838 JUMP JUMPDEST SWAP1 POP PUSH1 0x0 PUSH2 0x34AC DUP3 PUSH1 0x20 ADD MLOAD PUSH2 0x39D4 JUMP JUMPDEST SWAP1 POP PUSH1 0x0 DUP2 PUSH1 0xFF AND GT DUP1 ISZERO PUSH2 0x34C4 JUMPI POP PUSH1 0xA DUP2 PUSH1 0xFF AND LT JUMPDEST PUSH2 0x3536 JUMPI PUSH1 0x40 MLOAD PUSH32 0x8C379A000000000000000000000000000000000000000000000000000000000 DUP2 MSTORE PUSH1 0x4 ADD DUP1 DUP1 PUSH1 0x20 ADD DUP3 DUP2 SUB DUP3 MSTORE PUSH1 0x1B DUP2 MSTORE PUSH1 0x20 ADD DUP1 PUSH32 0x4E503A4D49313A2075736572206E6F74206175746820696E2041430000000000 DUP2 MSTORE POP PUSH1 0x20 ADD SWAP2 POP POP PUSH1 0x40 MLOAD DUP1 SWAP2 SUB SWAP1 REVERT JUMPDEST PUSH1 0x0 PUSH2 0x3545 DUP4 PUSH1 0x0 ADD MLOAD PUSH2 0x3ADD JUMP JUMPDEST PUSH1 0xFF AND EQ PUSH2 0x359E JUMPI PUSH1 0x40 MLOAD PUSH32 0x8C379A000000000000000000000000000000000000000000000000000000000 DUP2 MSTORE PUSH1 0x4 ADD DUP1 DUP1 PUSH1 0x20 ADD DUP3 DUP2 SUB DUP3 MSTORE PUSH1 0x3D DUP2 MSTORE PUSH1 0x20 ADD DUP1 PUSH2 0x441E PUSH1 0x3D SWAP2 CODECOPY PUSH1 0x40 ADD SWAP2 POP POP PUSH1 0x40 MLOAD DUP1 SWAP2 SUB SWAP1 REVERT JUMPDEST DUP7 DUP3 PUSH1 0xC0 ADD MLOAD EQ PUSH2 0x35FA JUMPI PUSH1 0x40 MLOAD PUSH32 0x8C379A000000000000000000000000000000000000000000000000000000000 DUP2 MSTORE PUSH1 0x4 ADD DUP1 DUP1 PUSH1 0x20 ADD DUP3 DUP2 SUB DUP3 MSTORE PUSH1 0x31 DUP2 MSTORE PUSH1 0x20 ADD DUP1 PUSH2 0x4204 PUSH1 0x31 SWAP2 CODECOPY PUSH1 0x40 ADD SWAP2 POP POP PUSH1 0x40 MLOAD DUP1 SWAP2 SUB SWAP1 REVERT JUMPDEST DUP6 DUP3 PUSH1 0xE0 ADD DUP2 DUP2 MSTORE POP POP PUSH2 0x360E DUP9 DUP4 PUSH2 0x3FAF JUMP JUMPDEST DUP2 PUSH1 0xE0 ADD MLOAD SWAP5 POP POP POP POP POP PUSH1 0x1 PUSH1 0x0 DUP2 SWAP1 SSTORE POP SWAP4 SWAP3 POP POP POP JUMP JUMPDEST PUSH2 0x3630 PUSH2 0x3C88 JUMP JUMPDEST PUSH20 0xFFFFFFFFFFFFFFFFFFFFFFFFFFFFFFFFFFFFFFFF AND PUSH1 0x1 PUSH1 0x0 SWAP1 SLOAD SWAP1 PUSH2 0x100 EXP SWAP1 DIV PUSH20 0xFFFFFFFFFFFFFFFFFFFFFFFFFFFFFFFFFFFFFFFF AND PUSH20 0xFFFFFFFFFFFFFFFFFFFFFFFFFFFFFFFFFFFFFFFF AND EQ PUSH2 0x36F2 JUMPI PUSH1 0x40 MLOAD PUSH32 0x8C379A000000000000000000000000000000000000000000000000000000000 DUP2 MSTORE PUSH1 0x4 ADD DUP1 DUP1 PUSH1 0x20 ADD DUP3 DUP2 SUB DUP3 MSTORE PUSH1 0x20 DUP2 MSTORE PUSH1 0x20 ADD DUP1 PUSH32 0x4F776E61626C653A2063616C6C6572206973206E6F7420746865206F776E6572 DUP2 MSTORE POP PUSH1 0x20 ADD SWAP2 POP POP PUSH1 0x40 MLOAD DUP1 SWAP2 SUB SWAP1 REVERT JUMPDEST PUSH1 0x0 PUSH20 0xFFFFFFFFFFFFFFFFFFFFFFFFFFFFFFFFFFFFFFFF AND DUP2 PUSH20 0xFFFFFFFFFFFFFFFFFFFFFFFFFFFFFFFFFFFFFFFF AND EQ ISZERO PUSH2 0x3778 JUMPI PUSH1 0x40 MLOAD PUSH32 0x8C379A000000000000000000000000000000000000000000000000000000000 DUP2 MSTORE PUSH1 0x4 ADD DUP1 DUP1 PUSH1 0x20 ADD DUP3 DUP2 SUB DUP3 MSTORE PUSH1 0x26 DUP2 MSTORE PUSH1 0x20 ADD DUP1 PUSH2 0x41DE PUSH1 0x26 SWAP2 CODECOPY PUSH1 0x40 ADD SWAP2 POP POP PUSH1 0x40 MLOAD DUP1 SWAP2 SUB SWAP1 REVERT JUMPDEST DUP1 PUSH20 0xFFFFFFFFFFFFFFFFFFFFFFFFFFFFFFFFFFFFFFFF AND PUSH1 0x1 PUSH1 0x0 SWAP1 SLOAD SWAP1 PUSH2 0x100 EXP SWAP1 DIV PUSH20 0xFFFFFFFFFFFFFFFFFFFFFFFFFFFFFFFFFFFFFFFF AND PUSH20 0xFFFFFFFFFFFFFFFFFFFFFFFFFFFFFFFFFFFFFFFF AND PUSH32 0x8BE0079C531659141344CD1FD0A4F28419497F9722A3DAAFE3B4186F6B6457E0 PUSH1 0x40 MLOAD PUSH1 0x40 MLOAD DUP1 SWAP2 SUB SWAP1 LOG3 DUP1 PUSH1 0x1 PUSH1 0x0 PUSH2 0x100 EXP DUP2 SLOAD DUP2 PUSH20 0xFFFFFFFFFFFFFFFFFFFFFFFFFFFFFFFFFFFFFFFF MUL NOT AND SWAP1 DUP4 PUSH20 0xFFFFFFFFFFFFFFFFFFFFFFFFFFFFFFFFFFFFFFFF AND MUL OR SWAP1 SSTORE POP POP JUMP JUMPDEST PUSH2 0x3840 PUSH2 0x40CF JUMP JUMPDEST PUSH2 0x3848 PUSH2 0x40CF JUMP JUMPDEST PUSH1 0x0 DUP1 PUSH1 0x0 DUP1 PUSH1 0x0 DUP1 PUSH1 0x0 PUSH1 0x3 PUSH1 0x0 SWAP1 SLOAD SWAP1 PUSH2 0x100 EXP SWAP1 DIV PUSH20 0xFFFFFFFFFFFFFFFFFFFFFFFFFFFFFFFFFFFFFFFF AND PUSH20 0xFFFFFFFFFFFFFFFFFFFFFFFFFFFFFFFFFFFFFFFF AND PUSH4 0xE248F2C4 DUP12 PUSH1 0x40 MLOAD DUP3 PUSH4 0xFFFFFFFF AND PUSH1 0xE0 SHL DUP2 MSTORE PUSH1 0x4 ADD DUP1 DUP3 DUP2 MSTORE PUSH1 0x20 ADD SWAP2 POP POP PUSH1 0xE0 PUSH1 0x40 MLOAD DUP1 DUP4 SUB DUP2 DUP7 DUP1 EXTCODESIZE ISZERO DUP1 ISZERO PUSH2 0x38C6 JUMPI PUSH1 0x0 DUP1 REVERT JUMPDEST POP GAS STATICCALL ISZERO DUP1 ISZERO PUSH2 0x38DA JUMPI RETURNDATASIZE PUSH1 0x0 DUP1 RETURNDATACOPY RETURNDATASIZE PUSH1 0x0 REVERT JUMPDEST POP POP POP POP PUSH1 0x40 MLOAD RETURNDATASIZE PUSH1 0xE0 DUP2 LT ISZERO PUSH2 0x38F0 JUMPI PUSH1 0x0 DUP1 REVERT JUMPDEST DUP2 ADD SWAP1 DUP1 DUP1 MLOAD SWAP1 PUSH1 0x20 ADD SWAP1 SWAP3 SWAP2 SWAP1 DUP1 MLOAD SWAP1 PUSH1 0x20 ADD SWAP1 SWAP3 SWAP2 SWAP1 DUP1 MLOAD SWAP1 PUSH1 0x20 ADD SWAP1 SWAP3 SWAP2 SWAP1 DUP1 MLOAD SWAP1 PUSH1 0x20 ADD SWAP1 SWAP3 SWAP2 SWAP1 DUP1 MLOAD SWAP1 PUSH1 0x20 ADD SWAP1 SWAP3 SWAP2 SWAP1 DUP1 MLOAD SWAP1 PUSH1 0x20 ADD SWAP1 SWAP3 SWAP2 SWAP1 DUP1 MLOAD SWAP1 PUSH1 0x20 ADD SWAP1 SWAP3 SWAP2 SWAP1 POP POP POP SWAP7 POP SWAP7 POP SWAP7 POP SWAP7 POP SWAP7 POP SWAP7 POP SWAP7 POP DUP7 DUP9 PUSH1 0xC0 ADD DUP2 DUP2 MSTORE POP POP DUP6 DUP9 PUSH1 0x0 ADD SWAP1 PUSH1 0xFF AND SWAP1 DUP2 PUSH1 0xFF AND DUP2 MSTORE POP POP DUP5 DUP9 PUSH1 0x20 ADD SWAP1 PUSH4 0xFFFFFFFF AND SWAP1 DUP2 PUSH4 0xFFFFFFFF AND DUP2 MSTORE POP POP DUP4 DUP9 PUSH1 0x40 ADD SWAP1 PUSH4 0xFFFFFFFF AND SWAP1 DUP2 PUSH4 0xFFFFFFFF AND DUP2 MSTORE POP POP DUP3 DUP9 PUSH1 0x60 ADD SWAP1 PUSH4 0xFFFFFFFF AND SWAP1 DUP2 PUSH4 0xFFFFFFFF AND DUP2 MSTORE POP POP DUP2 DUP9 PUSH1 0xE0 ADD DUP2 DUP2 MSTORE POP POP DUP1 DUP9 PUSH2 0x100 ADD DUP2 DUP2 MSTORE POP POP POP POP POP POP POP POP POP DUP1 SWAP2 POP POP SWAP2 SWAP1 POP JUMP JUMPDEST PUSH1 0x0 DUP1 PUSH1 0x5 PUSH1 0x0 SWAP1 SLOAD SWAP1 PUSH2 0x100 EXP SWAP1 DIV PUSH20 0xFFFFFFFFFFFFFFFFFFFFFFFFFFFFFFFFFFFFFFFF AND PUSH20 0xFFFFFFFFFFFFFFFFFFFFFFFFFFFFFFFFFFFFFFFF AND PUSH4 0x9D2C7CEE CALLER PUSH1 0x40 MLOAD PUSH1 0x20 ADD DUP1 DUP3 PUSH20 0xFFFFFFFFFFFFFFFFFFFFFFFFFFFFFFFFFFFFFFFF AND PUSH1 0x60 SHL DUP2 MSTORE PUSH1 0x14 ADD SWAP2 POP POP PUSH1 0x40 MLOAD PUSH1 0x20 DUP2 DUP4 SUB SUB DUP2 MSTORE SWAP1 PUSH1 0x40 MSTORE DUP1 MLOAD SWAP1 PUSH1 0x20 ADD KECCAK256 DUP6 PUSH1 0x40 MLOAD DUP4 PUSH4 0xFFFFFFFF AND PUSH1 0xE0 SHL DUP2 MSTORE PUSH1 0x4 ADD DUP1 DUP4 DUP2 MSTORE PUSH1 0x20 ADD DUP3 PUSH4 0xFFFFFFFF AND DUP2 MSTORE PUSH1 0x20 ADD SWAP3 POP POP POP PUSH1 0x20 PUSH1 0x40 MLOAD DUP1 DUP4 SUB DUP2 DUP7 DUP1 EXTCODESIZE ISZERO DUP1 ISZERO PUSH2 0x3A97 JUMPI PUSH1 0x0 DUP1 REVERT JUMPDEST POP GAS STATICCALL ISZERO DUP1 ISZERO PUSH2 0x3AAB JUMPI RETURNDATASIZE PUSH1 0x0 DUP1 RETURNDATACOPY RETURNDATASIZE PUSH1 0x0 REVERT JUMPDEST POP POP POP POP PUSH1 0x40 MLOAD RETURNDATASIZE PUSH1 0x20 DUP2 LT ISZERO PUSH2 0x3AC1 JUMPI PUSH1 0x0 DUP1 REVERT JUMPDEST DUP2 ADD SWAP1 DUP1 DUP1 MLOAD SWAP1 PUSH1 0x20 ADD SWAP1 SWAP3 SWAP2 SWAP1 POP POP POP SWAP1 POP DUP1 SWAP2 POP POP SWAP2 SWAP1 POP JUMP JUMPDEST PUSH1 0x0 PUSH1 0x5 DUP3 PUSH1 0xFF AND EQ ISZERO DUP1 ISZERO PUSH2 0x3AF7 JUMPI POP PUSH1 0x37 DUP3 PUSH1 0xFF AND EQ ISZERO JUMPDEST DUP1 ISZERO PUSH2 0x3B07 JUMPI POP PUSH1 0x46 DUP3 PUSH1 0xFF AND EQ ISZERO JUMPDEST DUP1 ISZERO PUSH2 0x3B17 JUMPI POP PUSH1 0x3C DUP3 PUSH1 0xFF AND EQ ISZERO JUMPDEST ISZERO PUSH2 0x3B25 JUMPI PUSH1 0x0 SWAP1 POP PUSH2 0x3B2A JUMP JUMPDEST PUSH1 0xAA SWAP1 POP JUMPDEST SWAP2 SWAP1 POP JUMP JUMPDEST PUSH1 0x1 PUSH1 0x14 SWAP1 SLOAD SWAP1 PUSH2 0x100 EXP SWAP1 DIV PUSH1 0xFF AND ISZERO PUSH2 0x3BB2 JUMPI PUSH1 0x40 MLOAD PUSH32 0x8C379A000000000000000000000000000000000000000000000000000000000 DUP2 MSTORE PUSH1 0x4 ADD DUP1 DUP1 PUSH1 0x20 ADD DUP3 DUP2 SUB DUP3 MSTORE PUSH1 0x10 DUP2 MSTORE PUSH1 0x20 ADD DUP1 PUSH32 0x5061757361626C653A2070617573656400000000000000000000000000000000 DUP2 MSTORE POP PUSH1 0x20 ADD SWAP2 POP POP PUSH1 0x40 MLOAD DUP1 SWAP2 SUB SWAP1 REVERT JUMPDEST PUSH1 0x3 PUSH1 0x0 SWAP1 SLOAD SWAP1 PUSH2 0x100 EXP SWAP1 DIV PUSH20 0xFFFFFFFFFFFFFFFFFFFFFFFFFFFFFFFFFFFFFFFF AND PUSH20 0xFFFFFFFFFFFFFFFFFFFFFFFFFFFFFFFFFFFFFFFF AND PUSH4 0x635D54FE DUP4 DUP4 PUSH1 0xC0 ADD MLOAD DUP5 PUSH1 0x0 ADD MLOAD DUP6 PUSH1 0x40 ADD MLOAD DUP7 PUSH1 0xA0 ADD MLOAD DUP8 PUSH1 0x80 ADD MLOAD PUSH1 0x40 MLOAD DUP8 PUSH4 0xFFFFFFFF AND PUSH1 0xE0 SHL DUP2 MSTORE PUSH1 0x4 ADD DUP1 DUP8 DUP2 MSTORE PUSH1 0x20 ADD DUP7 DUP2 MSTORE PUSH1 0x20 ADD DUP6 PUSH1 0xFF AND DUP2 MSTORE PUSH1 0x20 ADD DUP5 PUSH4 0xFFFFFFFF AND DUP2 MSTORE PUSH1 0x20 ADD DUP4 DUP2 MSTORE PUSH1 0x20 ADD DUP3 DUP2 MSTORE PUSH1 0x20 ADD SWAP7 POP POP POP POP POP POP POP PUSH1 0x0 PUSH1 0x40 MLOAD DUP1 DUP4 SUB DUP2 PUSH1 0x0 DUP8 DUP1 EXTCODESIZE ISZERO DUP1 ISZERO PUSH2 0x3C6C JUMPI PUSH1 0x0 DUP1 REVERT JUMPDEST POP GAS CALL ISZERO DUP1 ISZERO PUSH2 0x3C80 JUMPI RETURNDATASIZE PUSH1 0x0 DUP1 RETURNDATACOPY RETURNDATASIZE PUSH1 0x0 REVERT JUMPDEST POP POP POP POP POP POP JUMP JUMPDEST PUSH1 0x0 CALLER SWAP1 POP SWAP1 JUMP JUMPDEST PUSH1 0x1 PUSH1 0x14 SWAP1 SLOAD SWAP1 PUSH2 0x100 EXP SWAP1 DIV PUSH1 0xFF AND PUSH2 0x3D12 JUMPI PUSH1 0x40 MLOAD PUSH32 0x8C379A000000000000000000000000000000000000000000000000000000000 DUP2 MSTORE PUSH1 0x4 ADD DUP1 DUP1 PUSH1 0x20 ADD DUP3 DUP2 SUB DUP3 MSTORE PUSH1 0x14 DUP2 MSTORE PUSH1 0x20 ADD DUP1 PUSH32 0x5061757361626C653A206E6F7420706175736564000000000000000000000000 DUP2 MSTORE POP PUSH1 0x20 ADD SWAP2 POP POP PUSH1 0x40 MLOAD DUP1 SWAP2 SUB SWAP1 REVERT JUMPDEST PUSH1 0x0 PUSH1 0x1 PUSH1 0x14 PUSH2 0x100 EXP DUP2 SLOAD DUP2 PUSH1 0xFF MUL NOT AND SWAP1 DUP4 ISZERO ISZERO MUL OR SWAP1 SSTORE POP PUSH32 0x5DB9EE0A495BF2E6FF9C91A7834C1BA4FDD244A5E8AA4E537BD38AEAE4B073AA PUSH2 0x3D56 PUSH2 0x3C88 JUMP JUMPDEST PUSH1 0x40 MLOAD DUP1 DUP3 PUSH20 0xFFFFFFFFFFFFFFFFFFFFFFFFFFFFFFFFFFFFFFFF AND DUP2 MSTORE PUSH1 0x20 ADD SWAP2 POP POP PUSH1 0x40 MLOAD DUP1 SWAP2 SUB SWAP1 LOG1 JUMP JUMPDEST PUSH1 0x1 PUSH1 0x14 SWAP1 SLOAD SWAP1 PUSH2 0x100 EXP SWAP1 DIV PUSH1 0xFF AND ISZERO PUSH2 0x3E06 JUMPI PUSH1 0x40 MLOAD PUSH32 0x8C379A000000000000000000000000000000000000000000000000000000000 DUP2 MSTORE PUSH1 0x4 ADD DUP1 DUP1 PUSH1 0x20 ADD DUP3 DUP2 SUB DUP3 MSTORE PUSH1 0x10 DUP2 MSTORE PUSH1 0x20 ADD DUP1 PUSH32 0x5061757361626C653A2070617573656400000000000000000000000000000000 DUP2 MSTORE POP PUSH1 0x20 ADD SWAP2 POP POP PUSH1 0x40 MLOAD DUP1 SWAP2 SUB SWAP1 REVERT JUMPDEST PUSH1 0x1 DUP1 PUSH1 0x14 PUSH2 0x100 EXP DUP2 SLOAD DUP2 PUSH1 0xFF MUL NOT AND SWAP1 DUP4 ISZERO ISZERO MUL OR SWAP1 SSTORE POP PUSH32 0x62E78CEA01BEE320CD4E420270B5EA74000D11B0C9F74754EBDBFC544B05A258 PUSH2 0x3E49 PUSH2 0x3C88 JUMP JUMPDEST PUSH1 0x40 MLOAD DUP1 DUP3 PUSH20 0xFFFFFFFFFFFFFFFFFFFFFFFFFFFFFFFFFFFFFFFF AND DUP2 MSTORE PUSH1 0x20 ADD SWAP2 POP POP PUSH1 0x40 MLOAD DUP1 SWAP2 SUB SWAP1 LOG1 JUMP JUMPDEST PUSH2 0x3E7E PUSH2 0x4139 JUMP JUMPDEST PUSH2 0x3E86 PUSH2 0x4139 JUMP JUMPDEST PUSH1 0x5 PUSH1 0x0 SWAP1 SLOAD SWAP1 PUSH2 0x100 EXP SWAP1 DIV PUSH20 0xFFFFFFFFFFFFFFFFFFFFFFFFFFFFFFFFFFFFFFFF AND PUSH20 0xFFFFFFFFFFFFFFFFFFFFFFFFFFFFFFFFFFFFFFFF AND PUSH4 0xF2435010 DUP5 PUSH1 0x40 MLOAD DUP3 PUSH4 0xFFFFFFFF AND PUSH1 0xE0 SHL DUP2 MSTORE PUSH1 0x4 ADD DUP1 DUP3 PUSH4 0xFFFFFFFF AND DUP2 MSTORE PUSH1 0x20 ADD SWAP2 POP POP PUSH1 0x80 PUSH1 0x40 MLOAD DUP1 DUP4 SUB DUP2 DUP7 DUP1 EXTCODESIZE ISZERO DUP1 ISZERO PUSH2 0x3EFF JUMPI PUSH1 0x0 DUP1 REVERT JUMPDEST POP GAS STATICCALL ISZERO DUP1 ISZERO PUSH2 0x3F13 JUMPI RETURNDATASIZE PUSH1 0x0 DUP1 RETURNDATACOPY RETURNDATASIZE PUSH1 0x0 REVERT JUMPDEST POP POP POP POP PUSH1 0x40 MLOAD RETURNDATASIZE PUSH1 0x80 DUP2 LT ISZERO PUSH2 0x3F29 JUMPI PUSH1 0x0 DUP1 REVERT JUMPDEST DUP2 ADD SWAP1 DUP1 DUP1 MLOAD SWAP1 PUSH1 0x20 ADD SWAP1 SWAP3 SWAP2 SWAP1 DUP1 MLOAD SWAP1 PUSH1 0x20 ADD SWAP1 SWAP3 SWAP2 SWAP1 DUP1 MLOAD SWAP1 PUSH1 0x20 ADD SWAP1 SWAP3 SWAP2 SWAP1 DUP1 MLOAD SWAP1 PUSH1 0x20 ADD SWAP1 SWAP3 SWAP2 SWAP1 POP POP POP DUP5 PUSH1 0x20 ADD DUP6 PUSH1 0x40 ADD DUP7 PUSH1 0x60 ADD DUP8 PUSH1 0x80 ADD DUP5 PUSH4 0xFFFFFFFF AND PUSH4 0xFFFFFFFF AND DUP2 MSTORE POP DUP5 PUSH4 0xFFFFFFFF AND PUSH4 0xFFFFFFFF AND DUP2 MSTORE POP DUP5 PUSH1 0xFF AND PUSH1 0xFF AND DUP2 MSTORE POP DUP5 PUSH4 0xFFFFFFFF AND PUSH4 0xFFFFFFFF AND DUP2 MSTORE POP POP POP POP POP DUP1 SWAP2 POP POP SWAP2 SWAP1 POP JUMP JUMPDEST PUSH1 0x1 PUSH1 0x14 SWAP1 SLOAD SWAP1 PUSH2 0x100 EXP SWAP1 DIV PUSH1 0xFF AND ISZERO PUSH2 0x4032 JUMPI PUSH1 0x40 MLOAD PUSH32 0x8C379A000000000000000000000000000000000000000000000000000000000 DUP2 MSTORE PUSH1 0x4 ADD DUP1 DUP1 PUSH1 0x20 ADD DUP3 DUP2 SUB DUP3 MSTORE PUSH1 0x10 DUP2 MSTORE PUSH1 0x20 ADD DUP1 PUSH32 0x5061757361626C653A2070617573656400000000000000000000000000000000 DUP2 MSTORE POP PUSH1 0x20 ADD SWAP2 POP POP PUSH1 0x40 MLOAD DUP1 SWAP2 SUB SWAP1 REVERT JUMPDEST PUSH1 0x3 PUSH1 0x0 SWAP1 SLOAD SWAP1 PUSH2 0x100 EXP SWAP1 DIV PUSH20 0xFFFFFFFFFFFFFFFFFFFFFFFFFFFFFFFFFFFFFFFF AND PUSH20 0xFFFFFFFFFFFFFFFFFFFFFFFFFFFFFFFFFFFFFFFF AND PUSH4 0x42CDC4A4 DUP4 DUP4 PUSH1 0xE0 ADD MLOAD PUSH1 0x40 MLOAD DUP4 PUSH4 0xFFFFFFFF AND PUSH1 0xE0 SHL DUP2 MSTORE PUSH1 0x4 ADD DUP1 DUP4 DUP2 MSTORE PUSH1 0x20 ADD DUP3 DUP2 MSTORE PUSH1 0x20 ADD SWAP3 POP POP POP PUSH1 0x0 PUSH1 0x40 MLOAD DUP1 DUP4 SUB DUP2 PUSH1 0x0 DUP8 DUP1 EXTCODESIZE ISZERO DUP1 ISZERO PUSH2 0x40B3 JUMPI PUSH1 0x0 DUP1 REVERT JUMPDEST POP GAS CALL ISZERO DUP1 ISZERO PUSH2 0x40C7 JUMPI RETURNDATASIZE PUSH1 0x0 DUP1 RETURNDATACOPY RETURNDATASIZE PUSH1 0x0 REVERT JUMPDEST POP POP POP POP POP POP JUMP JUMPDEST PUSH1 0x40 MLOAD DUP1 PUSH2 0x120 ADD PUSH1 0x40 MSTORE DUP1 PUSH1 0x0 PUSH1 0xFF AND DUP2 MSTORE PUSH1 0x20 ADD PUSH1 0x0 PUSH4 0xFFFFFFFF AND DUP2 MSTORE PUSH1 0x20 ADD PUSH1 0x0 PUSH4 0xFFFFFFFF AND DUP2 MSTORE PUSH1 0x20 ADD PUSH1 0x0 PUSH4 0xFFFFFFFF AND DUP2 MSTORE PUSH1 0x20 ADD PUSH1 0x0 DUP2 MSTORE PUSH1 0x20 ADD PUSH1 0x0 DUP2 MSTORE PUSH1 0x20 ADD PUSH1 0x0 DUP1 NOT AND DUP2 MSTORE PUSH1 0x20 ADD PUSH1 0x0 DUP1 NOT AND DUP2 MSTORE PUSH1 0x20 ADD PUSH1 0x0 DUP1 NOT AND DUP2 MSTORE POP SWAP1 JUMP JUMPDEST PUSH1 0x40 MLOAD DUP1 PUSH1 0xA0 ADD PUSH1 0x40 MSTORE DUP1 PUSH1 0x60 DUP2 MSTORE PUSH1 0x20 ADD PUSH1 0x0 PUSH4 0xFFFFFFFF AND DUP2 MSTORE PUSH1 0x20 ADD PUSH1 0x0 PUSH1 0xFF AND DUP2 MSTORE PUSH1 0x20 ADD PUSH1 0x0 PUSH4 0xFFFFFFFF AND DUP2 MSTORE PUSH1 0x20 ADD PUSH1 0x0 PUSH4 0xFFFFFFFF AND DUP2 MSTORE POP SWAP1 JUMP INVALID 0x4E POP GASPRICE 0x4D MSTORE8 GASPRICE KECCAK256 0x4F PUSH15 0x6C79207573657274797065203C2035 KECCAK256 PUSH4 0x616E2063 PUSH9 0x616E67652073746174 PUSH22 0x73203C2034394E503A534C533A20526967687473686F PUSH13 0x64657220646F6573206E6F7420 PUSH14 0x6174636820737570706C69656420 PUSH5 0x6174614F77 PUSH15 0x61626C653A206E6577206F776E6572 KECCAK256 PUSH10 0x7320746865207A65726F KECCAK256 PUSH2 0x6464 PUSH19 0x6573734E503A4D49313A20526967687473686F PUSH13 0x64657220646F6573206E6F7420 PUSH14 0x6174636820737570706C69656420 PUSH5 0x617461423A MSTORE8 MSTORE8 NUMBER GASPRICE KECCAK256 PUSH20 0x746F7261676520616464726573732063616E6E6F PUSH21 0x206265207A65726F4E503A4443205265636F726420 PUSH10 0x6E20756E726567697374 PUSH6 0x7265642C2065 PUSH25 0x706F727465642C206F72206469736361726465642073746174 PUSH22 0x734E503A45413A20417373657420737461747573206D PUSH22 0x737420626520353120746F206578706F72744E503A44 NUMBER GASPRICE KECCAK256 MSTORE PUSH10 0x67687473686F6C646572 KECCAK256 PUSH5 0x6F6573206E PUSH16 0x74206D6174636820737570706C696564 KECCAK256 PUSH5 0x6174614E50 GASPRICE 0x4D 0x4F DIFFICULTY 0x2D 0x49 COINBASE GASPRICE KECCAK256 NUMBER PUSH22 0x73746F6469616C20636F6E747261637420646F657320 PUSH15 0x6F7420686F6C6420746F6B656E4E50 GASPRICE 0x4D MSTORE8 GASPRICE KECCAK256 MSTORE PUSH6 0x636F72642069 PUSH15 0x20756E726567697374657265642C20 PUSH6 0x78706F727465 PUSH5 0x2C206F7220 PUSH5 0x6973636172 PUSH5 0x6564207374 PUSH2 0x7475 PUSH20 0x423A54583A496E76616C69642063616C6C657220 PUSH7 0x6F72207472616E PUSH20 0x66657220746F6B656E4E503A534C533A204F6E6C PUSH26 0x207573657274797065203C352063616E206368616E6765206120 EXTCODECOPY CALLVALUE CODECOPY KECCAK256 PUSH20 0x746174757320617373657420746F2061203E3439 KECCAK256 PUSH20 0x74617475734E503A4D533A2043616E6E6F742070 PUSH13 0x61636520617373657420696E20 PUSH22 0x6E726567697374657265642C206578706F727465642C KECCAK256 PUSH16 0x72206469736361726465642073746174 PUSH22 0x73207573696E67206D6F645374617475734E503A4D49 BALANCE GASPRICE KECCAK256 MSTORE PUSH6 0x636F72642069 PUSH15 0x20756E726567697374657265642C20 PUSH6 0x78706F727465 PUSH5 0x2C206F7220 PUSH5 0x6973636172 PUSH5 0x6564207374 PUSH2 0x7475 PUSH20 0x4E503A4D533A20526967687473686F6C64657220 PUSH5 0x6F6573206E PUSH16 0x74206D6174636820737570706C696564 KECCAK256 PUSH5 0x617461A264 PUSH10 0x706673582212203BD6C8 0xEA 0xD3 0xDA POP LOG0 PUSH24 0xB96FEB5C6A3FEAC44191388016BD1E3F7BE61315918E3464 PUSH20 0x6F6C634300060C00330000000000000000000000 "
		},
		"gasEstimates": {
			"creation": {
				"codeDepositCost": "3520000",
				"executionCost": "infinite",
				"totalCost": "infinite"
			},
			"external": {
				"OO_pause()": "infinite",
				"OO_resolveContractAddresses()": "infinite",
				"OO_setStorageContract(address)": "infinite",
				"OO_transferACToken(address,bytes32)": "infinite",
				"OO_unpause()": "infinite",
				"_decCounter(bytes32,bytes32,uint32)": "infinite",
				"_modIpfs1(bytes32,bytes32,bytes32)": "infinite",
				"_modStatus(bytes32,bytes32,uint8)": "infinite",
				"_setLostOrStolen(bytes32,bytes32,uint8)": "infinite",
				"exportAsset(bytes32,address)": "infinite",
				"onERC721Received(address,address,uint256,bytes)": "589",
				"owner()": "1100",
				"paused()": "1173",
				"renounceOwnership()": "24320",
				"transferAssetToken(address,bytes32)": "infinite",
				"transferOwnership(address)": "infinite"
			}
		},
		"methodIdentifiers": {
			"OO_pause()": "cf2b6f66",
			"OO_resolveContractAddresses()": "e8b41653",
			"OO_setStorageContract(address)": "d6b02ecf",
			"OO_transferACToken(address,bytes32)": "c79b226e",
			"OO_unpause()": "961e809b",
			"_decCounter(bytes32,bytes32,uint32)": "c84375df",
			"_modIpfs1(bytes32,bytes32,bytes32)": "ee54387b",
			"_modStatus(bytes32,bytes32,uint8)": "6dcd1f5a",
			"_setLostOrStolen(bytes32,bytes32,uint8)": "e927244c",
			"exportAsset(bytes32,address)": "e620bf38",
			"onERC721Received(address,address,uint256,bytes)": "150b7a02",
			"owner()": "8da5cb5b",
			"paused()": "5c975abb",
			"renounceOwnership()": "715018a6",
			"transferAssetToken(address,bytes32)": "440e7a7e",
			"transferOwnership(address)": "f2fde38b"
		}
	},
	"abi": [
		{
			"anonymous": false,
			"inputs": [
				{
					"indexed": true,
					"internalType": "address",
					"name": "previousOwner",
					"type": "address"
				},
				{
					"indexed": true,
					"internalType": "address",
					"name": "newOwner",
					"type": "address"
				}
			],
			"name": "OwnershipTransferred",
			"type": "event"
		},
		{
			"anonymous": false,
			"inputs": [
				{
					"indexed": false,
					"internalType": "address",
					"name": "account",
					"type": "address"
				}
			],
			"name": "Paused",
			"type": "event"
		},
		{
			"anonymous": false,
			"inputs": [
				{
					"indexed": false,
					"internalType": "string",
					"name": "_msg",
					"type": "string"
				}
			],
			"name": "REPORT",
			"type": "event"
		},
		{
			"anonymous": false,
			"inputs": [
				{
					"indexed": false,
					"internalType": "address",
					"name": "account",
					"type": "address"
				}
			],
			"name": "Unpaused",
			"type": "event"
		},
		{
			"inputs": [],
			"name": "OO_pause",
			"outputs": [],
			"stateMutability": "nonpayable",
			"type": "function"
		},
		{
			"inputs": [],
			"name": "OO_resolveContractAddresses",
			"outputs": [],
			"stateMutability": "nonpayable",
			"type": "function"
		},
		{
			"inputs": [
				{
					"internalType": "address",
					"name": "_storageAddress",
					"type": "address"
				}
			],
			"name": "OO_setStorageContract",
			"outputs": [],
			"stateMutability": "nonpayable",
			"type": "function"
		},
		{
			"inputs": [
				{
					"internalType": "address",
					"name": "_to",
					"type": "address"
				},
				{
					"internalType": "bytes32",
					"name": "_idxHash",
					"type": "bytes32"
				}
			],
			"name": "OO_transferACToken",
			"outputs": [],
			"stateMutability": "nonpayable",
			"type": "function"
		},
		{
			"inputs": [],
			"name": "OO_unpause",
			"outputs": [],
			"stateMutability": "nonpayable",
			"type": "function"
		},
		{
			"inputs": [
				{
					"internalType": "bytes32",
					"name": "_idxHash",
					"type": "bytes32"
				},
				{
					"internalType": "bytes32",
					"name": "_rgtHash",
					"type": "bytes32"
				},
				{
					"internalType": "uint32",
					"name": "_decAmount",
					"type": "uint32"
				}
			],
			"name": "_decCounter",
			"outputs": [
				{
					"internalType": "uint32",
					"name": "",
					"type": "uint32"
				}
			],
			"stateMutability": "nonpayable",
			"type": "function"
		},
		{
			"inputs": [
				{
					"internalType": "bytes32",
					"name": "_idxHash",
					"type": "bytes32"
				},
				{
					"internalType": "bytes32",
					"name": "_rgtHash",
					"type": "bytes32"
				},
				{
					"internalType": "bytes32",
					"name": "_IpfsHash",
					"type": "bytes32"
				}
			],
			"name": "_modIpfs1",
			"outputs": [
				{
					"internalType": "bytes32",
					"name": "",
					"type": "bytes32"
				}
			],
			"stateMutability": "nonpayable",
			"type": "function"
		},
		{
			"inputs": [
				{
					"internalType": "bytes32",
					"name": "_idxHash",
					"type": "bytes32"
				},
				{
					"internalType": "bytes32",
					"name": "_rgtHash",
					"type": "bytes32"
				},
				{
					"internalType": "uint8",
					"name": "_newAssetStatus",
					"type": "uint8"
				}
			],
			"name": "_modStatus",
			"outputs": [
				{
					"internalType": "uint8",
					"name": "",
					"type": "uint8"
				}
			],
			"stateMutability": "nonpayable",
			"type": "function"
		},
		{
			"inputs": [
				{
					"internalType": "bytes32",
					"name": "_idxHash",
					"type": "bytes32"
				},
				{
					"internalType": "bytes32",
					"name": "_rgtHash",
					"type": "bytes32"
				},
				{
					"internalType": "uint8",
					"name": "_newAssetStatus",
					"type": "uint8"
				}
			],
			"name": "_setLostOrStolen",
			"outputs": [
				{
					"internalType": "uint8",
					"name": "",
					"type": "uint8"
				}
			],
			"stateMutability": "nonpayable",
			"type": "function"
		},
		{
			"inputs": [
				{
					"internalType": "bytes32",
					"name": "_idxHash",
					"type": "bytes32"
				},
				{
					"internalType": "address",
					"name": "_addr",
					"type": "address"
				}
			],
			"name": "exportAsset",
			"outputs": [
				{
					"internalType": "uint8",
					"name": "",
					"type": "uint8"
				}
			],
			"stateMutability": "nonpayable",
			"type": "function"
		},
		{
			"inputs": [
				{
					"internalType": "address",
					"name": "",
					"type": "address"
				},
				{
					"internalType": "address",
					"name": "",
					"type": "address"
				},
				{
					"internalType": "uint256",
					"name": "",
					"type": "uint256"
				},
				{
					"internalType": "bytes",
					"name": "",
					"type": "bytes"
				}
			],
			"name": "onERC721Received",
			"outputs": [
				{
					"internalType": "bytes4",
					"name": "",
					"type": "bytes4"
				}
			],
			"stateMutability": "nonpayable",
			"type": "function"
		},
		{
			"inputs": [],
			"name": "owner",
			"outputs": [
				{
					"internalType": "address",
					"name": "",
					"type": "address"
				}
			],
			"stateMutability": "view",
			"type": "function"
		},
		{
			"inputs": [],
			"name": "paused",
			"outputs": [
				{
					"internalType": "bool",
					"name": "",
					"type": "bool"
				}
			],
			"stateMutability": "view",
			"type": "function"
		},
		{
			"inputs": [],
			"name": "renounceOwnership",
			"outputs": [],
			"stateMutability": "nonpayable",
			"type": "function"
		},
		{
			"inputs": [
				{
					"internalType": "address",
					"name": "_to",
					"type": "address"
				},
				{
					"internalType": "bytes32",
					"name": "_idxHash",
					"type": "bytes32"
				}
			],
			"name": "transferAssetToken",
			"outputs": [],
			"stateMutability": "nonpayable",
			"type": "function"
		},
		{
			"inputs": [
				{
					"internalType": "address",
					"name": "newOwner",
					"type": "address"
				}
			],
			"name": "transferOwnership",
			"outputs": [],
			"stateMutability": "nonpayable",
			"type": "function"
		}
	]
}