{
	"data": {
		"bytecode": {
			"linkReferences": {},
			"object": "60806040523480156200001157600080fd5b50600160009081556002805460ff191690556200003890620000326200009c565b620000a0565b620000677f2ce8d04a9c35987429af538825cd2438cc5c5bb5dc427955f84daaa3ea105016620000326200009c565b620000967f65d7a28e3265b37a6474929f336521b332c1681b933f6cb9f3376673440d862a620000326200009c565b620001b2565b3390565b620000ac8282620000b0565b5050565b6000828152600160209081526040909120620000d7918390620019986200012b821b17901c565b15620000ac57620000e76200009c565b6001600160a01b0316816001600160a01b0316837f2f8788117e7eff1d82e926ec794901d17c78024a50270940304540a733656f0d60405160405180910390a45050565b600062000142836001600160a01b0384166200014b565b90505b92915050565b60006200015983836200019a565b620001915750815460018181018455600084815260208082209093018490558454848252828601909352604090209190915562000145565b50600062000145565b60009081526001919091016020526040902054151590565b61336980620001c26000396000f3fe608060405234801561001057600080fd5b50600436106101735760003560e01c80636580bcce116100de57806392ba3da611610097578063d547741f11610071578063d547741f1461031e578063d6b02ecf14610331578063e63ab1e914610344578063e8b416531461034c57610173565b806392ba3da6146102f0578063a217fddf14610303578063ca15c8731461030b57610173565b80636580bcce1461026f5780637698f98b146102825780638456cb5914610295578063900734921461029d5780639010d07c146102bd57806391d14854146102dd57610173565b806336568abe1161013057806336568abe146101f95780633f4ba83a1461020c578063440e7a7e1461021457806352c8fc881461022757806354de4a3f146102475780635c975abb1461025a57610173565b8063062cf11f146101785780631429db5f146101a1578063150b7a02146101a95780631da03312146101c9578063248a9ca3146101d15780632f2ff15d146101e4575b600080fd5b61018b610186366004612572565b610354565b6040516101989190612837565b60405180910390f35b61018b6104d0565b6101bc6101b7366004612466565b6104f4565b60405161019891906128ab565b61018b610505565b61018b6101df36600461252b565b610517565b6101f76101f2366004612543565b61052f565b005b6101f7610207366004612543565b610577565b6101f76105b9565b6101f7610222366004612500565b61060b565b61023a6102353660046125b7565b6106eb565b60405161019891906131e4565b6101f761025536600461252b565b6108f9565b610262610b5b565b604051610198919061282c565b61018b61027d366004612572565b610b64565b61023a6102903660046125b7565b610cfe565b6101f7610eea565b6102b06102ab366004612593565b610f3a565b60405161019891906131b9565b6102d06102cb366004612572565b6110e4565b60405161019891906127a0565b6102626102eb366004612543565b611105565b6101f76102fe366004612500565b61111d565b61018b6111ea565b61018b61031936600461252b565b6111ef565b6101f761032c366004612543565b611206565b6101f761033f36600461242e565b611240565b61018b6112be565b6101f76112e2565b6000600260005414156103825760405162461bcd60e51b815260040161037990613080565b60405180910390fd5b600260005561038f610b5b565b156103ac5760405162461bcd60e51b815260040161037990612c93565b82806103b66119ad565b6009546040516331a9108f60e11b81526001600160a01b039283169290911690636352211e906103ea908590600401612837565b602060405180830381600087803b15801561040457600080fd5b505af1158015610418573d6000803e3d6000fd5b505050506040513d601f19601f8201168201806040525081019061043c919061244a565b6001600160a01b0316146104625760405162461bcd60e51b815260040161037990612d70565b600061046d866119b1565b905061047c8160000151611a44565b60ff161561049c5760405162461bcd60e51b815260040161037990612d13565b61010081018590526104ae8682611a93565b6104bd81608001516008611b25565b6101000151600160005595945050505050565b7f7f1e4e9f3d9ba0452a25cfef4cd4c6ffc86158d06ed2f585fa0093e12dec429c81565b630a85bd0160e11b95945050505050565b60008051602061331483398151915281565b6000818152600160205260409020600201545b919050565b60008281526001602052604090206002015461054d906102eb6119ad565b6105695760405162461bcd60e51b815260040161037990612949565b6105738282611cf5565b5050565b61057f6119ad565b6001600160a01b0316816001600160a01b0316146105af5760405162461bcd60e51b81526004016103799061316a565b6105738282611d5e565b6105e57f65d7a28e3265b37a6474929f336521b332c1681b933f6cb9f3376673440d862a6102eb6119ad565b6106015760405162461bcd60e51b815260040161037990612c04565b610609611dc7565b565b6002600054141561062e5760405162461bcd60e51b815260040161037990613080565b600260005561065f7f7f1e4e9f3d9ba0452a25cfef4cd4c6ffc86158d06ed2f585fa0093e12dec429c6102eb6119ad565b61067b5760405162461bcd60e51b815260040161037990612cbd565b600954604051632142170760e11b815282916001600160a01b0316906342842e0e906106af903090879086906004016127b4565b600060405180830381600087803b1580156106c957600080fd5b505af11580156106dd573d6000803e3d6000fd5b505060016000555050505050565b6000600260005414156107105760405162461bcd60e51b815260040161037990613080565b600260005561071d610b5b565b1561073a5760405162461bcd60e51b815260040161037990612c93565b82806107446119ad565b6009546040516331a9108f60e11b81526001600160a01b039283169290911690636352211e90610778908590600401612837565b602060405180830381600087803b15801561079257600080fd5b505af11580156107a6573d6000803e3d6000fd5b505050506040513d601f19601f820116820180604052508101906107ca919061244a565b6001600160a01b0316146107f05760405162461bcd60e51b815260040161037990612d70565b60006107fb866119b1565b905060318560ff1611801561081757506031816000015160ff16115b6108335760405162461bcd60e51b815260040161037990612b02565b8460ff1660391415801561084b57508460ff16603a14155b801561085a575060648560ff16105b6108765760405162461bcd60e51b815260040161037990612a23565b61087f85611a44565b60ff161561089f5760405162461bcd60e51b815260040161037990612fa0565b80516108aa90611a44565b60ff16156108ca5760405162461bcd60e51b815260040161037990612f36565b60ff8516815260808101516108e0906005611b25565b6108ea8682611e35565b51600160005595945050505050565b610901610b5b565b1561091e5760405162461bcd60e51b815260040161037990612c93565b80806109286119ad565b6009546040516331a9108f60e11b81526001600160a01b039283169290911690636352211e9061095c908590600401612837565b602060405180830381600087803b15801561097657600080fd5b505af115801561098a573d6000803e3d6000fd5b505050506040513d601f19601f820116820180604052508101906109ae919061244a565b6001600160a01b0316146109d45760405162461bcd60e51b815260040161037990612d70565b60006109df846119b1565b905060006109f08260800151611eaa565b9050816000015160ff16603314610a195760405162461bcd60e51b815260040161037990612e77565b806060015160ff1660011415610ade57610a316119ad565b600b5460808401516040516331a9108f60e11b81526001600160a01b039384169390921691636352211e91610a68916004016131b9565b60206040518083038186803b158015610a8057600080fd5b505afa158015610a94573d6000803e3d6000fd5b505050506040513d601f19601f82011682018060405250810190610ab8919061244a565b6001600160a01b031614610ade5760405162461bcd60e51b815260040161037990612de3565b60468252610aec8583611e35565b600354602082015160405163315017c360e11b81526001600160a01b03909216916362a02f8691610b2291899190600401612886565b600060405180830381600087803b158015610b3c57600080fd5b505af1158015610b50573d6000803e3d6000fd5b505050505050505050565b60025460ff1690565b600060026000541415610b895760405162461bcd60e51b815260040161037990613080565b6002600055610b96610b5b565b15610bb35760405162461bcd60e51b815260040161037990612c93565b8280610bbd6119ad565b6009546040516331a9108f60e11b81526001600160a01b039283169290911690636352211e90610bf1908590600401612837565b602060405180830381600087803b158015610c0b57600080fd5b505af1158015610c1f573d6000803e3d6000fd5b505050506040513d601f19601f82011682018060405250810190610c43919061244a565b6001600160a01b031614610c695760405162461bcd60e51b815260040161037990612d70565b6000610c74866119b1565b9050610c838160000151611f74565b60ff1615610ca35760405162461bcd60e51b815260040161037990612b5f565b8051610cae90611a44565b60ff1615610cce5760405162461bcd60e51b8152600401610379906130f9565b6101408101859052610ce08682611e35565b610cef81608001516006611b25565b50506001600055509192915050565b600060026000541415610d235760405162461bcd60e51b815260040161037990613080565b6002600055610d30610b5b565b15610d4d5760405162461bcd60e51b815260040161037990612c93565b8280610d576119ad565b6009546040516331a9108f60e11b81526001600160a01b039283169290911690636352211e90610d8b908590600401612837565b602060405180830381600087803b158015610da557600080fd5b505af1158015610db9573d6000803e3d6000fd5b505050506040513d601f19601f82011682018060405250810190610ddd919061244a565b6001600160a01b031614610e035760405162461bcd60e51b815260040161037990612d70565b6000610e0e866119b1565b905060318560ff16118015610e2a57506031816000015160ff16115b610e465760405162461bcd60e51b815260040161037990612b02565b8051610e5190611a44565b60ff1615610e715760405162461bcd60e51b815260040161037990612a6d565b60ff8516808252600354604051637911aa5360e11b81526001600160a01b039091169163f22354a691610ea8918a9160040161289a565b600060405180830381600087803b158015610ec257600080fd5b505af1158015610ed6573d6000803e3d6000fd5b505091516001600055979650505050505050565b610f167f65d7a28e3265b37a6474929f336521b332c1681b933f6cb9f3376673440d862a6102eb6119ad565b610f325760405162461bcd60e51b815260040161037990612c04565b610609611fb8565b600060026000541415610f5f5760405162461bcd60e51b815260040161037990613080565b6002600055610f6c610b5b565b15610f895760405162461bcd60e51b815260040161037990612c93565b8280610f936119ad565b6009546040516331a9108f60e11b81526001600160a01b039283169290911690636352211e90610fc7908590600401612837565b602060405180830381600087803b158015610fe157600080fd5b505af1158015610ff5573d6000803e3d6000fd5b505050506040513d601f19601f82011682018060405250810190611019919061244a565b6001600160a01b03161461103f5760405162461bcd60e51b815260040161037990612d70565b600061104a866119b1565b90506110598160000151611a44565b60ff16156110795760405162461bcd60e51b8152600401610379906129c6565b8463ffffffff168160a0015163ffffffff1611156110b157848160a001516110a1919061329f565b63ffffffff1660a08201526110b9565b600060a08201525b6110c38682611e35565b6110d281608001516007611b25565b60a00151600160005595945050505050565b60008281526001602052604081206110fc9083612013565b90505b92915050565b60008281526001602052604081206110fc908361201f565b6111376000805160206133148339815191526102eb6119ad565b6111535760405162461bcd60e51b815260040161037990612902565b600260005414156111765760405162461bcd60e51b815260040161037990613080565b6002600055600b54604051632142170760e11b81526001600160a01b03909116906342842e0e906111af903090869086906004016127b4565b600060405180830381600087803b1580156111c957600080fd5b505af11580156111dd573d6000803e3d6000fd5b5050600160005550505050565b600081565b60008181526001602052604081206110ff90612034565b600082815260016020526040902060020154611224906102eb6119ad565b6105af5760405162461bcd60e51b815260040161037990612bb4565b61125a6000805160206133148339815191526102eb6119ad565b6112765760405162461bcd60e51b815260040161037990612902565b6001600160a01b03811661129c5760405162461bcd60e51b815260040161037990612db7565b600380546001600160a01b0319166001600160a01b0392909216919091179055565b7f65d7a28e3265b37a6474929f336521b332c1681b933f6cb9f3376673440d862a81565b600260005414156113055760405162461bcd60e51b815260040161037990613080565b60026000556113246000805160206133148339815191526102eb6119ad565b6113405760405162461bcd60e51b815260040161037990612902565b6003546040516363b8d4c160e11b81526001600160a01b039091169063c771a9829061136e90600401612e57565b60206040518083038186803b15801561138657600080fd5b505afa15801561139a573d6000803e3d6000fd5b505050506040513d601f19601f820116820180604052508101906113be919061244a565b600a80546001600160a01b039283166001600160a01b03199182161791829055600b80549091169183169190911790556003546040516363b8d4c160e11b815291169063c771a98290611413906004016130d9565b60206040518083038186803b15801561142b57600080fd5b505afa15801561143f573d6000803e3d6000fd5b505050506040513d601f19601f82011682018060405250810190611463919061244a565b600480546001600160a01b039283166001600160a01b031991821617808355600580549092169084161790556003546040516363b8d4c160e11b815292169163c771a982916114b291016130b7565b60206040518083038186803b1580156114ca57600080fd5b505afa1580156114de573d6000803e3d6000fd5b505050506040513d601f19601f82011682018060405250810190611502919061244a565b600680546001600160a01b039283166001600160a01b03199182161791829055600780549091169183169190911790556003546040516363b8d4c160e11b815291169063c771a9829061155790600401612cf4565b60206040518083038186803b15801561156f57600080fd5b505afa158015611583573d6000803e3d6000fd5b505050506040513d601f19601f820116820180604052508101906115a7919061244a565b600880546001600160a01b039283166001600160a01b03199182161791829055600980549091169183169190911790556003546040516363b8d4c160e11b815291169063c771a982906115fc90600401613023565b60206040518083038186803b15801561161457600080fd5b505afa158015611628573d6000803e3d6000fd5b505050506040513d601f19601f8201168201806040525081019061164c919061244a565b600c80546001600160a01b039283166001600160a01b03199182161791829055600d80549091169183169190911790556003546040516363b8d4c160e11b815291169063c771a982906116a190600401613043565b60206040518083038186803b1580156116b957600080fd5b505afa1580156116cd573d6000803e3d6000fd5b505050506040513d601f19601f820116820180604052508101906116f1919061244a565b600e80546001600160a01b039283166001600160a01b03199182161791829055600f80549091169183169190911790556003546040516363b8d4c160e11b815291169063c771a9829061174690600401612a50565b60206040518083038186803b15801561175e57600080fd5b505afa158015611772573d6000803e3d6000fd5b505050506040513d601f19601f82011682018060405250810190611796919061244a565b601280546001600160a01b039283166001600160a01b03199182161791829055601380549091169183169190911790556003546040516363b8d4c160e11b815291169063c771a982906117eb90600401612ae4565b60206040518083038186803b15801561180357600080fd5b505afa158015611817573d6000803e3d6000fd5b505050506040513d601f19601f8201168201806040525081019061183b919061244a565b601080546001600160a01b039283166001600160a01b03199182161791829055601180549091169183169190911790556003546040516363b8d4c160e11b815291169063c771a9829061189090600401612f16565b60206040518083038186803b1580156118a857600080fd5b505afa1580156118bc573d6000803e3d6000fd5b505050506040513d601f19601f820116820180604052508101906118e0919061244a565b601480546001600160a01b0319166001600160a01b039283161790556003546040516363b8d4c160e11b815291169063c771a9829061192190600401613064565b60206040518083038186803b15801561193957600080fd5b505afa15801561194d573d6000803e3d6000fd5b505050506040513d601f19601f82011682018060405250810190611971919061244a565b601780546001600160a01b0319166001600160a01b03929092169190911790556001600055565b60006110fc836001600160a01b03841661203f565b3390565b6119b9612311565b6003546040516338923cb160e21b81526000916001600160a01b03169063e248f2c4906119ea908690600401612837565b61016060405180830381600087803b158015611a0557600080fd5b505af1158015611a19573d6000803e3d6000fd5b505050506040513d601f19601f82011682018060405250810190611a3d9190612646565b9392505050565b60008160ff16600514158015611a5e57508160ff16603714155b8015611a6e57508160ff16604614155b8015611a7e57508160ff16603c14155b15611a8b5750600061052a565b5060aa61052a565b611a9b610b5b565b15611ab85760405162461bcd60e51b815260040161037990612c93565b6003546101008201516040516310b3712960e21b81526001600160a01b03909216916342cdc4a491611aef91869190600401612840565b600060405180830381600087803b158015611b0957600080fd5b505af1158015611b1d573d6000803e3d6000fd5b505050505050565b611b2d610b5b565b15611b4a5760405162461bcd60e51b815260040161037990612c93565b611b5261236d565b60055460405163042324e360e11b81526000916064916001600160a01b039091169063084649c690611b889088906004016131b9565b60206040518083038186803b158015611ba057600080fd5b505afa158015611bb4573d6000803e3d6000fd5b505050506040513d601f19601f82011682018060405250810190611bd89190612710565b63ffffffff16611be89190613249565b90506064811115611c0b5760405162461bcd60e51b815260040161037990612ec4565b60055460405163859f08db60e01b81526001600160a01b039091169063859f08db90611c3d90879087906004016131ca565b60a06040518083038186803b158015611c5557600080fd5b505afa158015611c69573d6000803e3d6000fd5b505050506040513d601f19601f82011682018060405250810190611c8d91906125db565b9150600060648360800151611ca29190613249565b90506000611cb08284613269565b90506000818560800151611cc49190613288565b608086018390526060860151909150611cde908290613231565b6060860152611cec85612089565b50505050505050565b6000828152600160205260409020611d0d9082611998565b1561057357611d1a6119ad565b6001600160a01b0316816001600160a01b0316837f2f8788117e7eff1d82e926ec794901d17c78024a50270940304540a733656f0d60405160405180910390a45050565b6000828152600160205260409020611d76908261216a565b1561057357611d836119ad565b6001600160a01b0316816001600160a01b0316837ff6391f5c32d9c69d2a47ea670b442974b53935d1edc7fd64eb21e047a839171b60405160405180910390a45050565b611dcf610b5b565b611deb5760405162461bcd60e51b815260040161037990612998565b6002805460ff191690557f5db9ee0a495bf2e6ff9c91a7834c1ba4fdd244a5e8aa4e537bd38aeae4b073aa611e1e6119ad565b604051611e2b91906127a0565b60405180910390a1565b611e3d610b5b565b15611e5a5760405162461bcd60e51b815260040161037990612c93565b600354610140820151825160a0840151602085015160608601516040516331aeaa7f60e11b81526001600160a01b039096169563635d54fe95611aef958a9591949093919290919060040161284e565b611eb261239b565b611eba61239b565b600554604051630f24350160e41b81526001600160a01b039091169063f243501090611eea9086906004016131b9565b60a060405180830381600087803b158015611f0457600080fd5b505af1158015611f18573d6000803e3d6000fd5b505050506040513d601f19601f82011682018060405250810190611f3c919061272c565b6001600160a01b031660c086015263ffffffff90811660a086015260ff91821660608601529116604084015216602082015292915050565b60008160ff16600314158015611f8e57508160ff16600414155b8015611f9e57508160ff16603514155b8015611a7e57508160ff16603614611a8b5750600061052a565b611fc0610b5b565b15611fdd5760405162461bcd60e51b815260040161037990612c93565b6002805460ff191660011790557f62e78cea01bee320cd4e420270b5ea74000d11b0c9f74754ebdbfc544b05a258611e1e6119ad565b60006110fc838361217f565b60006110fc836001600160a01b0384166121d8565b60006110ff826121f0565b600061204b83836121d8565b612081575081546001818101845560008481526020808220909301849055845484825282860190935260409020919091556110ff565b5060006110ff565b612091610b5b565b156120ae5760405162461bcd60e51b815260040161037990612c93565b60208101516001600160a01b03166120d85760405162461bcd60e51b815260040161037990612c4a565b60408101516001600160a01b03166120fe5760208101516001600160a01b031660408201525b6007546001600160a01b03166328db9da66121176119ad565b836040518363ffffffff1660e01b81526004016121359291906127d8565b600060405180830381600087803b15801561214f57600080fd5b505af1158015612163573d6000803e3d6000fd5b5050505050565b60006110fc836001600160a01b0384166121f4565b815460009082106121a25760405162461bcd60e51b8152600401610379906128c0565b8260000182815481106121c557634e487b7160e01b600052603260045260246000fd5b9060005260206000200154905092915050565b60009081526001919091016020526040902054151590565b5490565b60008181526001830160205260408120548015612307576000612218600183613288565b855490915060009061222c90600190613288565b9050600086600001828154811061225357634e487b7160e01b600052603260045260246000fd5b906000526020600020015490508087600001848154811061228457634e487b7160e01b600052603260045260246000fd5b60009182526020909120015561229b836001613231565b600082815260018901602052604090205586548790806122cb57634e487b7160e01b600052603160045260246000fd5b600190038181906000526020600020016000905590558660010160008781526020019081526020016000206000905560019450505050506110ff565b60009150506110ff565b6040805161016081018252600080825260208201819052918101829052606081018290526080810182905260a0810182905260c0810182905260e081018290526101008101829052610120810182905261014081019190915290565b6040805160a08101825260008082526020820181905291810182905260608101829052608081019190915290565b6040805161012081018252606080825260006020830181905292820183905281018290526080810182905260a0810182905260c0810182905260e0810182905261010081019190915290565b80516effffffffffffffffffffffffffffff8116811461052a57600080fd5b805161ffff8116811461052a57600080fd5b805161052a816132f2565b805161052a81613304565b60006020828403121561243f578081fd5b8135611a3d816132da565b60006020828403121561245b578081fd5b8151611a3d816132da565b60008060008060006080868803121561247d578081fd5b8535612488816132da565b94506020860135612498816132da565b935060408601359250606086013567ffffffffffffffff808211156124bb578283fd5b818801915088601f8301126124ce578283fd5b8135818111156124dc578384fd5b8960208285010111156124ed578384fd5b9699959850939650602001949392505050565b60008060408385031215612512578182fd5b823561251d816132da565b946020939093013593505050565b60006020828403121561253c578081fd5b5035919050565b60008060408385031215612555578182fd5b823591506020830135612567816132da565b809150509250929050565b60008060408385031215612584578182fd5b50508035926020909101359150565b600080604083850312156125a5578182fd5b823591506020830135612567816132f2565b600080604083850312156125c9578182fd5b82359150602083013561256781613304565b600060a082840312156125ec578081fd5b6125f660a06131f2565b8251612601816132f2565b81526020830151612611816132da565b60208201526040830151612624816132da565b6040820152606083810151908201526080928301519281019290925250919050565b6000610160808385031215612659578182fd5b612662816131f2565b905061266d83612423565b815261267b60208401612423565b602082015261268c60408401612423565b604082015261269d60608401612406565b60608201526126ae60808401612418565b60808201526126bf60a08401612418565b60a08201526126d060c08401612418565b60c08201526126e160e084016123e7565b60e082015261010083810151908201526101208084015190820152610140928301519281019290925250919050565b600060208284031215612721578081fd5b8151611a3d816132f2565b600080600080600060a08688031215612743578283fd5b855161274e816132f2565b602087015190955061275f81613304565b604087015190945061277081613304565b6060870151909350612781816132f2565b6080870151909250612792816132da565b809150509295509295909350565b6001600160a01b0391909116815260200190565b6001600160a01b039384168152919092166020820152604081019190915260600190565b6001600160a01b039283168152815163ffffffff166020808301919091528201518316604080830191909152820151909216606080840191909152810151608080840191909152015160a082015260c00190565b901515815260200190565b90815260200190565b918252602082015260400190565b958652602086019490945260ff928316604086015263ffffffff91909116606085015216608083015261ffff1660a082015260c00190565b91825263ffffffff16602082015260400190565b91825260ff16602082015260400190565b6001600160e01b031991909116815260200190565b60208082526022908201527f456e756d657261626c655365743a20696e646578206f7574206f6620626f756e604082015261647360f01b606082015260800190565b60208082526027908201527f423a4d4f443a2d4941444d2063616c6c65722021434f4e54524143545f41444d604082015266494e5f524f4c4560c81b606082015260800190565b6020808252602f908201527f416363657373436f6e74726f6c3a2073656e646572206d75737420626520616e60408201526e0818591b5a5b881d1bc819dc985b9d608a1b606082015260800190565b60208082526014908201527314185d5cd8589b194e881b9bdd081c185d5cd95960621b604082015260600190565b6020808252603e908201527f4e504e433a44433a205265636f726420696e20756e726567697374657265642c60408201527f206578706f727465642c206f7220646973636172646564207374617475730000606082015260800190565b60208082526013908201527213941390ce9354ce8814dd185d08149cdc9d99606a1b604082015260600190565b60208082526003908201526204150560ec1b604082015260600190565b60208082526051908201527f4e504e433a534c533a205472616e736665727265642c6578706f727465642c6f60408201527f72206469736361726465642061737365742063616e6e6f7420626520736574206060820152703a37903637b9ba1037b91039ba37b632b760791b608082015260a00190565b6020808252600490820152632921a62960e11b604082015260600190565b6020808252603f908201527f4e504e433a534c533a204f6e6c7920637573746f6469616c207573657274797060408201527f652063616e20736574206f72206368616e676520737461747573203c20353000606082015260800190565b60208082526035908201527f4e504e433a43523a2043616e6e6f74206d6f6469667920617373657420696e206040820152746c6f7374206f722073746f6c656e2073746174757360581b606082015260800190565b60208082526030908201527f416363657373436f6e74726f6c3a2073656e646572206d75737420626520616e60408201526f2061646d696e20746f207265766f6b6560801b606082015260800190565b60208082526026908201527f423a4d4f442d49503a43616c6c696e672061646472657373206973206e6f74206040820152653830bab9b2b960d11b606082015260800190565b60208082526029908201527f433a44503a20726f6f74207061796d656e7420616472657373206973207a65726040820152686f206164647265737360b81b606082015260800190565b60208082526010908201526f14185d5cd8589b194e881c185d5cd95960821b604082015260600190565b6020808252601e908201527f423a54583a4d75737420686176652041535345545f545846525f524f4c450000604082015260600190565b60208082526005908201526420afaa25a760d91b604082015260600190565b6020808252603f908201527f4e504e433a4d49313a205265636f726420696e20756e7265676973746572656460408201527f2c206578706f727465642c206f72206469736361726465642073746174757300606082015260800190565b60208082526027908201527f4e504e433a4d4f442d49413a2043616c6c657220646f6573206e6f7420686f6c60408201526632103a37b5b2b760c91b606082015260800190565b6020808252601290820152710423a5353433a2041646472657373203d20360741b604082015260600190565b6020808252604e908201527f4e504e433a45583a20526573747269637465642066726f6d206578706f72746960408201527f6e67206173736574732066726f6d2074686973204143202d20646f6573206e6f60608201526d3a103437b6321020a1ba37b5b2b760911b608082015260a00190565b60208082526006908201526520a1afaa25a760d11b604082015260600190565b6020808252602d908201527f4e504e433a45583a204d75737420626520696e207472616e736665727261626c60408201526c6520737461747573202835312960981b606082015260800190565b60208082526032908201527f433a4453433a696e76616c696420646973636f756e742076616c756520666f7260408201527110383934b1b29031b0b631bab630ba34b7b760711b606082015260800190565b6020808252600690820152654150505f4e4360d01b604082015260600190565b60208082526044908201527f4e504e433a4d533a20417373657420697320696e20616e20756e72656769737460408201527f657265642c206578706f727465642c206f7220646973636172646564207374616060820152633a3ab99760e11b608082015260a00190565b6020808252605a908201527f4e504e433a4d533a2043616e6e6f7420706c61636520617373657420696e207560408201527f6e726567697374657265642c206578706f727465642c206f722064697363617260608201527f64656420737461747573207573696e67206d6f64537461747573000000000000608082015260a00190565b60208082526006908201526524a22faa25a760d11b604082015260600190565b60208082526007908201526622a1a92fa6a3a960c91b604082015260600190565b60208082526002908201526104e560f41b604082015260600190565b6020808252601f908201527f5265656e7472616e637947756172643a207265656e7472616e742063616c6c00604082015260600190565b6020808252600890820152672aaa24a62faa25a760c11b604082015260600190565b60208082526006908201526520a1afa6a3a960d11b604082015260600190565b6020808252604b908201527f4e504e433a43523a2043616e6e6f74206d6f6469667920617373657420696e2060408201527f756e726567697374657265642c206578706f727465642c206f7220646973636160608201526a726465642073746174757360a81b608082015260a00190565b6020808252602f908201527f416363657373436f6e74726f6c3a2063616e206f6e6c792072656e6f756e636560408201526e103937b632b9903337b91039b2b63360891b606082015260800190565b63ffffffff91909116815260200190565b63ffffffff92909216825261ffff16602082015260400190565b60ff91909116815260200190565b604051601f8201601f1916810167ffffffffffffffff8111828210171561322957634e487b7160e01b600052604160045260246000fd5b604052919050565b60008219821115613244576132446132c4565b500190565b60008261326457634e487b7160e01b81526012600452602481fd5b500490565b6000816000190483118215151615613283576132836132c4565b500290565b60008282101561329a5761329a6132c4565b500390565b600063ffffffff838116908316818110156132bc576132bc6132c4565b039392505050565b634e487b7160e01b600052601160045260246000fd5b6001600160a01b03811681146132ef57600080fd5b50565b63ffffffff811681146132ef57600080fd5b60ff811681146132ef57600080fdfe2ce8d04a9c35987429af538825cd2438cc5c5bb5dc427955f84daaa3ea105016a2646970667358221220aad2574cb244a3c5e9e9c5e47025fbfe46394eb99182539ce1dc3ad31cf6070f64736f6c63430008010033",
			"opcodes": "PUSH1 0x80 PUSH1 0x40 MSTORE CALLVALUE DUP1 ISZERO PUSH3 0x11 JUMPI PUSH1 0x0 DUP1 REVERT JUMPDEST POP PUSH1 0x1 PUSH1 0x0 SWAP1 DUP2 SSTORE PUSH1 0x2 DUP1 SLOAD PUSH1 0xFF NOT AND SWAP1 SSTORE PUSH3 0x38 SWAP1 PUSH3 0x32 PUSH3 0x9C JUMP JUMPDEST PUSH3 0xA0 JUMP JUMPDEST PUSH3 0x67 PUSH32 0x2CE8D04A9C35987429AF538825CD2438CC5C5BB5DC427955F84DAAA3EA105016 PUSH3 0x32 PUSH3 0x9C JUMP JUMPDEST PUSH3 0x96 PUSH32 0x65D7A28E3265B37A6474929F336521B332C1681B933F6CB9F3376673440D862A PUSH3 0x32 PUSH3 0x9C JUMP JUMPDEST PUSH3 0x1B2 JUMP JUMPDEST CALLER SWAP1 JUMP JUMPDEST PUSH3 0xAC DUP3 DUP3 PUSH3 0xB0 JUMP JUMPDEST POP POP JUMP JUMPDEST PUSH1 0x0 DUP3 DUP2 MSTORE PUSH1 0x1 PUSH1 0x20 SWAP1 DUP2 MSTORE PUSH1 0x40 SWAP1 SWAP2 KECCAK256 PUSH3 0xD7 SWAP2 DUP4 SWAP1 PUSH3 0x1998 PUSH3 0x12B DUP3 SHL OR SWAP1 SHR JUMP JUMPDEST ISZERO PUSH3 0xAC JUMPI PUSH3 0xE7 PUSH3 0x9C JUMP JUMPDEST PUSH1 0x1 PUSH1 0x1 PUSH1 0xA0 SHL SUB AND DUP2 PUSH1 0x1 PUSH1 0x1 PUSH1 0xA0 SHL SUB AND DUP4 PUSH32 0x2F8788117E7EFF1D82E926EC794901D17C78024A50270940304540A733656F0D PUSH1 0x40 MLOAD PUSH1 0x40 MLOAD DUP1 SWAP2 SUB SWAP1 LOG4 POP POP JUMP JUMPDEST PUSH1 0x0 PUSH3 0x142 DUP4 PUSH1 0x1 PUSH1 0x1 PUSH1 0xA0 SHL SUB DUP5 AND PUSH3 0x14B JUMP JUMPDEST SWAP1 POP JUMPDEST SWAP3 SWAP2 POP POP JUMP JUMPDEST PUSH1 0x0 PUSH3 0x159 DUP4 DUP4 PUSH3 0x19A JUMP JUMPDEST PUSH3 0x191 JUMPI POP DUP2 SLOAD PUSH1 0x1 DUP2 DUP2 ADD DUP5 SSTORE PUSH1 0x0 DUP5 DUP2 MSTORE PUSH1 0x20 DUP1 DUP3 KECCAK256 SWAP1 SWAP4 ADD DUP5 SWAP1 SSTORE DUP5 SLOAD DUP5 DUP3 MSTORE DUP3 DUP7 ADD SWAP1 SWAP4 MSTORE PUSH1 0x40 SWAP1 KECCAK256 SWAP2 SWAP1 SWAP2 SSTORE PUSH3 0x145 JUMP JUMPDEST POP PUSH1 0x0 PUSH3 0x145 JUMP JUMPDEST PUSH1 0x0 SWAP1 DUP2 MSTORE PUSH1 0x1 SWAP2 SWAP1 SWAP2 ADD PUSH1 0x20 MSTORE PUSH1 0x40 SWAP1 KECCAK256 SLOAD ISZERO ISZERO SWAP1 JUMP JUMPDEST PUSH2 0x3369 DUP1 PUSH3 0x1C2 PUSH1 0x0 CODECOPY PUSH1 0x0 RETURN INVALID PUSH1 0x80 PUSH1 0x40 MSTORE CALLVALUE DUP1 ISZERO PUSH2 0x10 JUMPI PUSH1 0x0 DUP1 REVERT JUMPDEST POP PUSH1 0x4 CALLDATASIZE LT PUSH2 0x173 JUMPI PUSH1 0x0 CALLDATALOAD PUSH1 0xE0 SHR DUP1 PUSH4 0x6580BCCE GT PUSH2 0xDE JUMPI DUP1 PUSH4 0x92BA3DA6 GT PUSH2 0x97 JUMPI DUP1 PUSH4 0xD547741F GT PUSH2 0x71 JUMPI DUP1 PUSH4 0xD547741F EQ PUSH2 0x31E JUMPI DUP1 PUSH4 0xD6B02ECF EQ PUSH2 0x331 JUMPI DUP1 PUSH4 0xE63AB1E9 EQ PUSH2 0x344 JUMPI DUP1 PUSH4 0xE8B41653 EQ PUSH2 0x34C JUMPI PUSH2 0x173 JUMP JUMPDEST DUP1 PUSH4 0x92BA3DA6 EQ PUSH2 0x2F0 JUMPI DUP1 PUSH4 0xA217FDDF EQ PUSH2 0x303 JUMPI DUP1 PUSH4 0xCA15C873 EQ PUSH2 0x30B JUMPI PUSH2 0x173 JUMP JUMPDEST DUP1 PUSH4 0x6580BCCE EQ PUSH2 0x26F JUMPI DUP1 PUSH4 0x7698F98B EQ PUSH2 0x282 JUMPI DUP1 PUSH4 0x8456CB59 EQ PUSH2 0x295 JUMPI DUP1 PUSH4 0x90073492 EQ PUSH2 0x29D JUMPI DUP1 PUSH4 0x9010D07C EQ PUSH2 0x2BD JUMPI DUP1 PUSH4 0x91D14854 EQ PUSH2 0x2DD JUMPI PUSH2 0x173 JUMP JUMPDEST DUP1 PUSH4 0x36568ABE GT PUSH2 0x130 JUMPI DUP1 PUSH4 0x36568ABE EQ PUSH2 0x1F9 JUMPI DUP1 PUSH4 0x3F4BA83A EQ PUSH2 0x20C JUMPI DUP1 PUSH4 0x440E7A7E EQ PUSH2 0x214 JUMPI DUP1 PUSH4 0x52C8FC88 EQ PUSH2 0x227 JUMPI DUP1 PUSH4 0x54DE4A3F EQ PUSH2 0x247 JUMPI DUP1 PUSH4 0x5C975ABB EQ PUSH2 0x25A JUMPI PUSH2 0x173 JUMP JUMPDEST DUP1 PUSH4 0x62CF11F EQ PUSH2 0x178 JUMPI DUP1 PUSH4 0x1429DB5F EQ PUSH2 0x1A1 JUMPI DUP1 PUSH4 0x150B7A02 EQ PUSH2 0x1A9 JUMPI DUP1 PUSH4 0x1DA03312 EQ PUSH2 0x1C9 JUMPI DUP1 PUSH4 0x248A9CA3 EQ PUSH2 0x1D1 JUMPI DUP1 PUSH4 0x2F2FF15D EQ PUSH2 0x1E4 JUMPI JUMPDEST PUSH1 0x0 DUP1 REVERT JUMPDEST PUSH2 0x18B PUSH2 0x186 CALLDATASIZE PUSH1 0x4 PUSH2 0x2572 JUMP JUMPDEST PUSH2 0x354 JUMP JUMPDEST PUSH1 0x40 MLOAD PUSH2 0x198 SWAP2 SWAP1 PUSH2 0x2837 JUMP JUMPDEST PUSH1 0x40 MLOAD DUP1 SWAP2 SUB SWAP1 RETURN JUMPDEST PUSH2 0x18B PUSH2 0x4D0 JUMP JUMPDEST PUSH2 0x1BC PUSH2 0x1B7 CALLDATASIZE PUSH1 0x4 PUSH2 0x2466 JUMP JUMPDEST PUSH2 0x4F4 JUMP JUMPDEST PUSH1 0x40 MLOAD PUSH2 0x198 SWAP2 SWAP1 PUSH2 0x28AB JUMP JUMPDEST PUSH2 0x18B PUSH2 0x505 JUMP JUMPDEST PUSH2 0x18B PUSH2 0x1DF CALLDATASIZE PUSH1 0x4 PUSH2 0x252B JUMP JUMPDEST PUSH2 0x517 JUMP JUMPDEST PUSH2 0x1F7 PUSH2 0x1F2 CALLDATASIZE PUSH1 0x4 PUSH2 0x2543 JUMP JUMPDEST PUSH2 0x52F JUMP JUMPDEST STOP JUMPDEST PUSH2 0x1F7 PUSH2 0x207 CALLDATASIZE PUSH1 0x4 PUSH2 0x2543 JUMP JUMPDEST PUSH2 0x577 JUMP JUMPDEST PUSH2 0x1F7 PUSH2 0x5B9 JUMP JUMPDEST PUSH2 0x1F7 PUSH2 0x222 CALLDATASIZE PUSH1 0x4 PUSH2 0x2500 JUMP JUMPDEST PUSH2 0x60B JUMP JUMPDEST PUSH2 0x23A PUSH2 0x235 CALLDATASIZE PUSH1 0x4 PUSH2 0x25B7 JUMP JUMPDEST PUSH2 0x6EB JUMP JUMPDEST PUSH1 0x40 MLOAD PUSH2 0x198 SWAP2 SWAP1 PUSH2 0x31E4 JUMP JUMPDEST PUSH2 0x1F7 PUSH2 0x255 CALLDATASIZE PUSH1 0x4 PUSH2 0x252B JUMP JUMPDEST PUSH2 0x8F9 JUMP JUMPDEST PUSH2 0x262 PUSH2 0xB5B JUMP JUMPDEST PUSH1 0x40 MLOAD PUSH2 0x198 SWAP2 SWAP1 PUSH2 0x282C JUMP JUMPDEST PUSH2 0x18B PUSH2 0x27D CALLDATASIZE PUSH1 0x4 PUSH2 0x2572 JUMP JUMPDEST PUSH2 0xB64 JUMP JUMPDEST PUSH2 0x23A PUSH2 0x290 CALLDATASIZE PUSH1 0x4 PUSH2 0x25B7 JUMP JUMPDEST PUSH2 0xCFE JUMP JUMPDEST PUSH2 0x1F7 PUSH2 0xEEA JUMP JUMPDEST PUSH2 0x2B0 PUSH2 0x2AB CALLDATASIZE PUSH1 0x4 PUSH2 0x2593 JUMP JUMPDEST PUSH2 0xF3A JUMP JUMPDEST PUSH1 0x40 MLOAD PUSH2 0x198 SWAP2 SWAP1 PUSH2 0x31B9 JUMP JUMPDEST PUSH2 0x2D0 PUSH2 0x2CB CALLDATASIZE PUSH1 0x4 PUSH2 0x2572 JUMP JUMPDEST PUSH2 0x10E4 JUMP JUMPDEST PUSH1 0x40 MLOAD PUSH2 0x198 SWAP2 SWAP1 PUSH2 0x27A0 JUMP JUMPDEST PUSH2 0x262 PUSH2 0x2EB CALLDATASIZE PUSH1 0x4 PUSH2 0x2543 JUMP JUMPDEST PUSH2 0x1105 JUMP JUMPDEST PUSH2 0x1F7 PUSH2 0x2FE CALLDATASIZE PUSH1 0x4 PUSH2 0x2500 JUMP JUMPDEST PUSH2 0x111D JUMP JUMPDEST PUSH2 0x18B PUSH2 0x11EA JUMP JUMPDEST PUSH2 0x18B PUSH2 0x319 CALLDATASIZE PUSH1 0x4 PUSH2 0x252B JUMP JUMPDEST PUSH2 0x11EF JUMP JUMPDEST PUSH2 0x1F7 PUSH2 0x32C CALLDATASIZE PUSH1 0x4 PUSH2 0x2543 JUMP JUMPDEST PUSH2 0x1206 JUMP JUMPDEST PUSH2 0x1F7 PUSH2 0x33F CALLDATASIZE PUSH1 0x4 PUSH2 0x242E JUMP JUMPDEST PUSH2 0x1240 JUMP JUMPDEST PUSH2 0x18B PUSH2 0x12BE JUMP JUMPDEST PUSH2 0x1F7 PUSH2 0x12E2 JUMP JUMPDEST PUSH1 0x0 PUSH1 0x2 PUSH1 0x0 SLOAD EQ ISZERO PUSH2 0x382 JUMPI PUSH1 0x40 MLOAD PUSH3 0x461BCD PUSH1 0xE5 SHL DUP2 MSTORE PUSH1 0x4 ADD PUSH2 0x379 SWAP1 PUSH2 0x3080 JUMP JUMPDEST PUSH1 0x40 MLOAD DUP1 SWAP2 SUB SWAP1 REVERT JUMPDEST PUSH1 0x2 PUSH1 0x0 SSTORE PUSH2 0x38F PUSH2 0xB5B JUMP JUMPDEST ISZERO PUSH2 0x3AC JUMPI PUSH1 0x40 MLOAD PUSH3 0x461BCD PUSH1 0xE5 SHL DUP2 MSTORE PUSH1 0x4 ADD PUSH2 0x379 SWAP1 PUSH2 0x2C93 JUMP JUMPDEST DUP3 DUP1 PUSH2 0x3B6 PUSH2 0x19AD JUMP JUMPDEST PUSH1 0x9 SLOAD PUSH1 0x40 MLOAD PUSH4 0x31A9108F PUSH1 0xE1 SHL DUP2 MSTORE PUSH1 0x1 PUSH1 0x1 PUSH1 0xA0 SHL SUB SWAP3 DUP4 AND SWAP3 SWAP1 SWAP2 AND SWAP1 PUSH4 0x6352211E SWAP1 PUSH2 0x3EA SWAP1 DUP6 SWAP1 PUSH1 0x4 ADD PUSH2 0x2837 JUMP JUMPDEST PUSH1 0x20 PUSH1 0x40 MLOAD DUP1 DUP4 SUB DUP2 PUSH1 0x0 DUP8 DUP1 EXTCODESIZE ISZERO DUP1 ISZERO PUSH2 0x404 JUMPI PUSH1 0x0 DUP1 REVERT JUMPDEST POP GAS CALL ISZERO DUP1 ISZERO PUSH2 0x418 JUMPI RETURNDATASIZE PUSH1 0x0 DUP1 RETURNDATACOPY RETURNDATASIZE PUSH1 0x0 REVERT JUMPDEST POP POP POP POP PUSH1 0x40 MLOAD RETURNDATASIZE PUSH1 0x1F NOT PUSH1 0x1F DUP3 ADD AND DUP3 ADD DUP1 PUSH1 0x40 MSTORE POP DUP2 ADD SWAP1 PUSH2 0x43C SWAP2 SWAP1 PUSH2 0x244A JUMP JUMPDEST PUSH1 0x1 PUSH1 0x1 PUSH1 0xA0 SHL SUB AND EQ PUSH2 0x462 JUMPI PUSH1 0x40 MLOAD PUSH3 0x461BCD PUSH1 0xE5 SHL DUP2 MSTORE PUSH1 0x4 ADD PUSH2 0x379 SWAP1 PUSH2 0x2D70 JUMP JUMPDEST PUSH1 0x0 PUSH2 0x46D DUP7 PUSH2 0x19B1 JUMP JUMPDEST SWAP1 POP PUSH2 0x47C DUP2 PUSH1 0x0 ADD MLOAD PUSH2 0x1A44 JUMP JUMPDEST PUSH1 0xFF AND ISZERO PUSH2 0x49C JUMPI PUSH1 0x40 MLOAD PUSH3 0x461BCD PUSH1 0xE5 SHL DUP2 MSTORE PUSH1 0x4 ADD PUSH2 0x379 SWAP1 PUSH2 0x2D13 JUMP JUMPDEST PUSH2 0x100 DUP2 ADD DUP6 SWAP1 MSTORE PUSH2 0x4AE DUP7 DUP3 PUSH2 0x1A93 JUMP JUMPDEST PUSH2 0x4BD DUP2 PUSH1 0x80 ADD MLOAD PUSH1 0x8 PUSH2 0x1B25 JUMP JUMPDEST PUSH2 0x100 ADD MLOAD PUSH1 0x1 PUSH1 0x0 SSTORE SWAP6 SWAP5 POP POP POP POP POP JUMP JUMPDEST PUSH32 0x7F1E4E9F3D9BA0452A25CFEF4CD4C6FFC86158D06ED2F585FA0093E12DEC429C DUP2 JUMP JUMPDEST PUSH4 0xA85BD01 PUSH1 0xE1 SHL SWAP6 SWAP5 POP POP POP POP POP JUMP JUMPDEST PUSH1 0x0 DUP1 MLOAD PUSH1 0x20 PUSH2 0x3314 DUP4 CODECOPY DUP2 MLOAD SWAP2 MSTORE DUP2 JUMP JUMPDEST PUSH1 0x0 DUP2 DUP2 MSTORE PUSH1 0x1 PUSH1 0x20 MSTORE PUSH1 0x40 SWAP1 KECCAK256 PUSH1 0x2 ADD SLOAD JUMPDEST SWAP2 SWAP1 POP JUMP JUMPDEST PUSH1 0x0 DUP3 DUP2 MSTORE PUSH1 0x1 PUSH1 0x20 MSTORE PUSH1 0x40 SWAP1 KECCAK256 PUSH1 0x2 ADD SLOAD PUSH2 0x54D SWAP1 PUSH2 0x2EB PUSH2 0x19AD JUMP JUMPDEST PUSH2 0x569 JUMPI PUSH1 0x40 MLOAD PUSH3 0x461BCD PUSH1 0xE5 SHL DUP2 MSTORE PUSH1 0x4 ADD PUSH2 0x379 SWAP1 PUSH2 0x2949 JUMP JUMPDEST PUSH2 0x573 DUP3 DUP3 PUSH2 0x1CF5 JUMP JUMPDEST POP POP JUMP JUMPDEST PUSH2 0x57F PUSH2 0x19AD JUMP JUMPDEST PUSH1 0x1 PUSH1 0x1 PUSH1 0xA0 SHL SUB AND DUP2 PUSH1 0x1 PUSH1 0x1 PUSH1 0xA0 SHL SUB AND EQ PUSH2 0x5AF JUMPI PUSH1 0x40 MLOAD PUSH3 0x461BCD PUSH1 0xE5 SHL DUP2 MSTORE PUSH1 0x4 ADD PUSH2 0x379 SWAP1 PUSH2 0x316A JUMP JUMPDEST PUSH2 0x573 DUP3 DUP3 PUSH2 0x1D5E JUMP JUMPDEST PUSH2 0x5E5 PUSH32 0x65D7A28E3265B37A6474929F336521B332C1681B933F6CB9F3376673440D862A PUSH2 0x2EB PUSH2 0x19AD JUMP JUMPDEST PUSH2 0x601 JUMPI PUSH1 0x40 MLOAD PUSH3 0x461BCD PUSH1 0xE5 SHL DUP2 MSTORE PUSH1 0x4 ADD PUSH2 0x379 SWAP1 PUSH2 0x2C04 JUMP JUMPDEST PUSH2 0x609 PUSH2 0x1DC7 JUMP JUMPDEST JUMP JUMPDEST PUSH1 0x2 PUSH1 0x0 SLOAD EQ ISZERO PUSH2 0x62E JUMPI PUSH1 0x40 MLOAD PUSH3 0x461BCD PUSH1 0xE5 SHL DUP2 MSTORE PUSH1 0x4 ADD PUSH2 0x379 SWAP1 PUSH2 0x3080 JUMP JUMPDEST PUSH1 0x2 PUSH1 0x0 SSTORE PUSH2 0x65F PUSH32 0x7F1E4E9F3D9BA0452A25CFEF4CD4C6FFC86158D06ED2F585FA0093E12DEC429C PUSH2 0x2EB PUSH2 0x19AD JUMP JUMPDEST PUSH2 0x67B JUMPI PUSH1 0x40 MLOAD PUSH3 0x461BCD PUSH1 0xE5 SHL DUP2 MSTORE PUSH1 0x4 ADD PUSH2 0x379 SWAP1 PUSH2 0x2CBD JUMP JUMPDEST PUSH1 0x9 SLOAD PUSH1 0x40 MLOAD PUSH4 0x21421707 PUSH1 0xE1 SHL DUP2 MSTORE DUP3 SWAP2 PUSH1 0x1 PUSH1 0x1 PUSH1 0xA0 SHL SUB AND SWAP1 PUSH4 0x42842E0E SWAP1 PUSH2 0x6AF SWAP1 ADDRESS SWAP1 DUP8 SWAP1 DUP7 SWAP1 PUSH1 0x4 ADD PUSH2 0x27B4 JUMP JUMPDEST PUSH1 0x0 PUSH1 0x40 MLOAD DUP1 DUP4 SUB DUP2 PUSH1 0x0 DUP8 DUP1 EXTCODESIZE ISZERO DUP1 ISZERO PUSH2 0x6C9 JUMPI PUSH1 0x0 DUP1 REVERT JUMPDEST POP GAS CALL ISZERO DUP1 ISZERO PUSH2 0x6DD JUMPI RETURNDATASIZE PUSH1 0x0 DUP1 RETURNDATACOPY RETURNDATASIZE PUSH1 0x0 REVERT JUMPDEST POP POP PUSH1 0x1 PUSH1 0x0 SSTORE POP POP POP POP POP JUMP JUMPDEST PUSH1 0x0 PUSH1 0x2 PUSH1 0x0 SLOAD EQ ISZERO PUSH2 0x710 JUMPI PUSH1 0x40 MLOAD PUSH3 0x461BCD PUSH1 0xE5 SHL DUP2 MSTORE PUSH1 0x4 ADD PUSH2 0x379 SWAP1 PUSH2 0x3080 JUMP JUMPDEST PUSH1 0x2 PUSH1 0x0 SSTORE PUSH2 0x71D PUSH2 0xB5B JUMP JUMPDEST ISZERO PUSH2 0x73A JUMPI PUSH1 0x40 MLOAD PUSH3 0x461BCD PUSH1 0xE5 SHL DUP2 MSTORE PUSH1 0x4 ADD PUSH2 0x379 SWAP1 PUSH2 0x2C93 JUMP JUMPDEST DUP3 DUP1 PUSH2 0x744 PUSH2 0x19AD JUMP JUMPDEST PUSH1 0x9 SLOAD PUSH1 0x40 MLOAD PUSH4 0x31A9108F PUSH1 0xE1 SHL DUP2 MSTORE PUSH1 0x1 PUSH1 0x1 PUSH1 0xA0 SHL SUB SWAP3 DUP4 AND SWAP3 SWAP1 SWAP2 AND SWAP1 PUSH4 0x6352211E SWAP1 PUSH2 0x778 SWAP1 DUP6 SWAP1 PUSH1 0x4 ADD PUSH2 0x2837 JUMP JUMPDEST PUSH1 0x20 PUSH1 0x40 MLOAD DUP1 DUP4 SUB DUP2 PUSH1 0x0 DUP8 DUP1 EXTCODESIZE ISZERO DUP1 ISZERO PUSH2 0x792 JUMPI PUSH1 0x0 DUP1 REVERT JUMPDEST POP GAS CALL ISZERO DUP1 ISZERO PUSH2 0x7A6 JUMPI RETURNDATASIZE PUSH1 0x0 DUP1 RETURNDATACOPY RETURNDATASIZE PUSH1 0x0 REVERT JUMPDEST POP POP POP POP PUSH1 0x40 MLOAD RETURNDATASIZE PUSH1 0x1F NOT PUSH1 0x1F DUP3 ADD AND DUP3 ADD DUP1 PUSH1 0x40 MSTORE POP DUP2 ADD SWAP1 PUSH2 0x7CA SWAP2 SWAP1 PUSH2 0x244A JUMP JUMPDEST PUSH1 0x1 PUSH1 0x1 PUSH1 0xA0 SHL SUB AND EQ PUSH2 0x7F0 JUMPI PUSH1 0x40 MLOAD PUSH3 0x461BCD PUSH1 0xE5 SHL DUP2 MSTORE PUSH1 0x4 ADD PUSH2 0x379 SWAP1 PUSH2 0x2D70 JUMP JUMPDEST PUSH1 0x0 PUSH2 0x7FB DUP7 PUSH2 0x19B1 JUMP JUMPDEST SWAP1 POP PUSH1 0x31 DUP6 PUSH1 0xFF AND GT DUP1 ISZERO PUSH2 0x817 JUMPI POP PUSH1 0x31 DUP2 PUSH1 0x0 ADD MLOAD PUSH1 0xFF AND GT JUMPDEST PUSH2 0x833 JUMPI PUSH1 0x40 MLOAD PUSH3 0x461BCD PUSH1 0xE5 SHL DUP2 MSTORE PUSH1 0x4 ADD PUSH2 0x379 SWAP1 PUSH2 0x2B02 JUMP JUMPDEST DUP5 PUSH1 0xFF AND PUSH1 0x39 EQ ISZERO DUP1 ISZERO PUSH2 0x84B JUMPI POP DUP5 PUSH1 0xFF AND PUSH1 0x3A EQ ISZERO JUMPDEST DUP1 ISZERO PUSH2 0x85A JUMPI POP PUSH1 0x64 DUP6 PUSH1 0xFF AND LT JUMPDEST PUSH2 0x876 JUMPI PUSH1 0x40 MLOAD PUSH3 0x461BCD PUSH1 0xE5 SHL DUP2 MSTORE PUSH1 0x4 ADD PUSH2 0x379 SWAP1 PUSH2 0x2A23 JUMP JUMPDEST PUSH2 0x87F DUP6 PUSH2 0x1A44 JUMP JUMPDEST PUSH1 0xFF AND ISZERO PUSH2 0x89F JUMPI PUSH1 0x40 MLOAD PUSH3 0x461BCD PUSH1 0xE5 SHL DUP2 MSTORE PUSH1 0x4 ADD PUSH2 0x379 SWAP1 PUSH2 0x2FA0 JUMP JUMPDEST DUP1 MLOAD PUSH2 0x8AA SWAP1 PUSH2 0x1A44 JUMP JUMPDEST PUSH1 0xFF AND ISZERO PUSH2 0x8CA JUMPI PUSH1 0x40 MLOAD PUSH3 0x461BCD PUSH1 0xE5 SHL DUP2 MSTORE PUSH1 0x4 ADD PUSH2 0x379 SWAP1 PUSH2 0x2F36 JUMP JUMPDEST PUSH1 0xFF DUP6 AND DUP2 MSTORE PUSH1 0x80 DUP2 ADD MLOAD PUSH2 0x8E0 SWAP1 PUSH1 0x5 PUSH2 0x1B25 JUMP JUMPDEST PUSH2 0x8EA DUP7 DUP3 PUSH2 0x1E35 JUMP JUMPDEST MLOAD PUSH1 0x1 PUSH1 0x0 SSTORE SWAP6 SWAP5 POP POP POP POP POP JUMP JUMPDEST PUSH2 0x901 PUSH2 0xB5B JUMP JUMPDEST ISZERO PUSH2 0x91E JUMPI PUSH1 0x40 MLOAD PUSH3 0x461BCD PUSH1 0xE5 SHL DUP2 MSTORE PUSH1 0x4 ADD PUSH2 0x379 SWAP1 PUSH2 0x2C93 JUMP JUMPDEST DUP1 DUP1 PUSH2 0x928 PUSH2 0x19AD JUMP JUMPDEST PUSH1 0x9 SLOAD PUSH1 0x40 MLOAD PUSH4 0x31A9108F PUSH1 0xE1 SHL DUP2 MSTORE PUSH1 0x1 PUSH1 0x1 PUSH1 0xA0 SHL SUB SWAP3 DUP4 AND SWAP3 SWAP1 SWAP2 AND SWAP1 PUSH4 0x6352211E SWAP1 PUSH2 0x95C SWAP1 DUP6 SWAP1 PUSH1 0x4 ADD PUSH2 0x2837 JUMP JUMPDEST PUSH1 0x20 PUSH1 0x40 MLOAD DUP1 DUP4 SUB DUP2 PUSH1 0x0 DUP8 DUP1 EXTCODESIZE ISZERO DUP1 ISZERO PUSH2 0x976 JUMPI PUSH1 0x0 DUP1 REVERT JUMPDEST POP GAS CALL ISZERO DUP1 ISZERO PUSH2 0x98A JUMPI RETURNDATASIZE PUSH1 0x0 DUP1 RETURNDATACOPY RETURNDATASIZE PUSH1 0x0 REVERT JUMPDEST POP POP POP POP PUSH1 0x40 MLOAD RETURNDATASIZE PUSH1 0x1F NOT PUSH1 0x1F DUP3 ADD AND DUP3 ADD DUP1 PUSH1 0x40 MSTORE POP DUP2 ADD SWAP1 PUSH2 0x9AE SWAP2 SWAP1 PUSH2 0x244A JUMP JUMPDEST PUSH1 0x1 PUSH1 0x1 PUSH1 0xA0 SHL SUB AND EQ PUSH2 0x9D4 JUMPI PUSH1 0x40 MLOAD PUSH3 0x461BCD PUSH1 0xE5 SHL DUP2 MSTORE PUSH1 0x4 ADD PUSH2 0x379 SWAP1 PUSH2 0x2D70 JUMP JUMPDEST PUSH1 0x0 PUSH2 0x9DF DUP5 PUSH2 0x19B1 JUMP JUMPDEST SWAP1 POP PUSH1 0x0 PUSH2 0x9F0 DUP3 PUSH1 0x80 ADD MLOAD PUSH2 0x1EAA JUMP JUMPDEST SWAP1 POP DUP2 PUSH1 0x0 ADD MLOAD PUSH1 0xFF AND PUSH1 0x33 EQ PUSH2 0xA19 JUMPI PUSH1 0x40 MLOAD PUSH3 0x461BCD PUSH1 0xE5 SHL DUP2 MSTORE PUSH1 0x4 ADD PUSH2 0x379 SWAP1 PUSH2 0x2E77 JUMP JUMPDEST DUP1 PUSH1 0x60 ADD MLOAD PUSH1 0xFF AND PUSH1 0x1 EQ ISZERO PUSH2 0xADE JUMPI PUSH2 0xA31 PUSH2 0x19AD JUMP JUMPDEST PUSH1 0xB SLOAD PUSH1 0x80 DUP5 ADD MLOAD PUSH1 0x40 MLOAD PUSH4 0x31A9108F PUSH1 0xE1 SHL DUP2 MSTORE PUSH1 0x1 PUSH1 0x1 PUSH1 0xA0 SHL SUB SWAP4 DUP5 AND SWAP4 SWAP1 SWAP3 AND SWAP2 PUSH4 0x6352211E SWAP2 PUSH2 0xA68 SWAP2 PUSH1 0x4 ADD PUSH2 0x31B9 JUMP JUMPDEST PUSH1 0x20 PUSH1 0x40 MLOAD DUP1 DUP4 SUB DUP2 DUP7 DUP1 EXTCODESIZE ISZERO DUP1 ISZERO PUSH2 0xA80 JUMPI PUSH1 0x0 DUP1 REVERT JUMPDEST POP GAS STATICCALL ISZERO DUP1 ISZERO PUSH2 0xA94 JUMPI RETURNDATASIZE PUSH1 0x0 DUP1 RETURNDATACOPY RETURNDATASIZE PUSH1 0x0 REVERT JUMPDEST POP POP POP POP PUSH1 0x40 MLOAD RETURNDATASIZE PUSH1 0x1F NOT PUSH1 0x1F DUP3 ADD AND DUP3 ADD DUP1 PUSH1 0x40 MSTORE POP DUP2 ADD SWAP1 PUSH2 0xAB8 SWAP2 SWAP1 PUSH2 0x244A JUMP JUMPDEST PUSH1 0x1 PUSH1 0x1 PUSH1 0xA0 SHL SUB AND EQ PUSH2 0xADE JUMPI PUSH1 0x40 MLOAD PUSH3 0x461BCD PUSH1 0xE5 SHL DUP2 MSTORE PUSH1 0x4 ADD PUSH2 0x379 SWAP1 PUSH2 0x2DE3 JUMP JUMPDEST PUSH1 0x46 DUP3 MSTORE PUSH2 0xAEC DUP6 DUP4 PUSH2 0x1E35 JUMP JUMPDEST PUSH1 0x3 SLOAD PUSH1 0x20 DUP3 ADD MLOAD PUSH1 0x40 MLOAD PUSH4 0x315017C3 PUSH1 0xE1 SHL DUP2 MSTORE PUSH1 0x1 PUSH1 0x1 PUSH1 0xA0 SHL SUB SWAP1 SWAP3 AND SWAP2 PUSH4 0x62A02F86 SWAP2 PUSH2 0xB22 SWAP2 DUP10 SWAP2 SWAP1 PUSH1 0x4 ADD PUSH2 0x2886 JUMP JUMPDEST PUSH1 0x0 PUSH1 0x40 MLOAD DUP1 DUP4 SUB DUP2 PUSH1 0x0 DUP8 DUP1 EXTCODESIZE ISZERO DUP1 ISZERO PUSH2 0xB3C JUMPI PUSH1 0x0 DUP1 REVERT JUMPDEST POP GAS CALL ISZERO DUP1 ISZERO PUSH2 0xB50 JUMPI RETURNDATASIZE PUSH1 0x0 DUP1 RETURNDATACOPY RETURNDATASIZE PUSH1 0x0 REVERT JUMPDEST POP POP POP POP POP POP POP POP POP JUMP JUMPDEST PUSH1 0x2 SLOAD PUSH1 0xFF AND SWAP1 JUMP JUMPDEST PUSH1 0x0 PUSH1 0x2 PUSH1 0x0 SLOAD EQ ISZERO PUSH2 0xB89 JUMPI PUSH1 0x40 MLOAD PUSH3 0x461BCD PUSH1 0xE5 SHL DUP2 MSTORE PUSH1 0x4 ADD PUSH2 0x379 SWAP1 PUSH2 0x3080 JUMP JUMPDEST PUSH1 0x2 PUSH1 0x0 SSTORE PUSH2 0xB96 PUSH2 0xB5B JUMP JUMPDEST ISZERO PUSH2 0xBB3 JUMPI PUSH1 0x40 MLOAD PUSH3 0x461BCD PUSH1 0xE5 SHL DUP2 MSTORE PUSH1 0x4 ADD PUSH2 0x379 SWAP1 PUSH2 0x2C93 JUMP JUMPDEST DUP3 DUP1 PUSH2 0xBBD PUSH2 0x19AD JUMP JUMPDEST PUSH1 0x9 SLOAD PUSH1 0x40 MLOAD PUSH4 0x31A9108F PUSH1 0xE1 SHL DUP2 MSTORE PUSH1 0x1 PUSH1 0x1 PUSH1 0xA0 SHL SUB SWAP3 DUP4 AND SWAP3 SWAP1 SWAP2 AND SWAP1 PUSH4 0x6352211E SWAP1 PUSH2 0xBF1 SWAP1 DUP6 SWAP1 PUSH1 0x4 ADD PUSH2 0x2837 JUMP JUMPDEST PUSH1 0x20 PUSH1 0x40 MLOAD DUP1 DUP4 SUB DUP2 PUSH1 0x0 DUP8 DUP1 EXTCODESIZE ISZERO DUP1 ISZERO PUSH2 0xC0B JUMPI PUSH1 0x0 DUP1 REVERT JUMPDEST POP GAS CALL ISZERO DUP1 ISZERO PUSH2 0xC1F JUMPI RETURNDATASIZE PUSH1 0x0 DUP1 RETURNDATACOPY RETURNDATASIZE PUSH1 0x0 REVERT JUMPDEST POP POP POP POP PUSH1 0x40 MLOAD RETURNDATASIZE PUSH1 0x1F NOT PUSH1 0x1F DUP3 ADD AND DUP3 ADD DUP1 PUSH1 0x40 MSTORE POP DUP2 ADD SWAP1 PUSH2 0xC43 SWAP2 SWAP1 PUSH2 0x244A JUMP JUMPDEST PUSH1 0x1 PUSH1 0x1 PUSH1 0xA0 SHL SUB AND EQ PUSH2 0xC69 JUMPI PUSH1 0x40 MLOAD PUSH3 0x461BCD PUSH1 0xE5 SHL DUP2 MSTORE PUSH1 0x4 ADD PUSH2 0x379 SWAP1 PUSH2 0x2D70 JUMP JUMPDEST PUSH1 0x0 PUSH2 0xC74 DUP7 PUSH2 0x19B1 JUMP JUMPDEST SWAP1 POP PUSH2 0xC83 DUP2 PUSH1 0x0 ADD MLOAD PUSH2 0x1F74 JUMP JUMPDEST PUSH1 0xFF AND ISZERO PUSH2 0xCA3 JUMPI PUSH1 0x40 MLOAD PUSH3 0x461BCD PUSH1 0xE5 SHL DUP2 MSTORE PUSH1 0x4 ADD PUSH2 0x379 SWAP1 PUSH2 0x2B5F JUMP JUMPDEST DUP1 MLOAD PUSH2 0xCAE SWAP1 PUSH2 0x1A44 JUMP JUMPDEST PUSH1 0xFF AND ISZERO PUSH2 0xCCE JUMPI PUSH1 0x40 MLOAD PUSH3 0x461BCD PUSH1 0xE5 SHL DUP2 MSTORE PUSH1 0x4 ADD PUSH2 0x379 SWAP1 PUSH2 0x30F9 JUMP JUMPDEST PUSH2 0x140 DUP2 ADD DUP6 SWAP1 MSTORE PUSH2 0xCE0 DUP7 DUP3 PUSH2 0x1E35 JUMP JUMPDEST PUSH2 0xCEF DUP2 PUSH1 0x80 ADD MLOAD PUSH1 0x6 PUSH2 0x1B25 JUMP JUMPDEST POP POP PUSH1 0x1 PUSH1 0x0 SSTORE POP SWAP2 SWAP3 SWAP2 POP POP JUMP JUMPDEST PUSH1 0x0 PUSH1 0x2 PUSH1 0x0 SLOAD EQ ISZERO PUSH2 0xD23 JUMPI PUSH1 0x40 MLOAD PUSH3 0x461BCD PUSH1 0xE5 SHL DUP2 MSTORE PUSH1 0x4 ADD PUSH2 0x379 SWAP1 PUSH2 0x3080 JUMP JUMPDEST PUSH1 0x2 PUSH1 0x0 SSTORE PUSH2 0xD30 PUSH2 0xB5B JUMP JUMPDEST ISZERO PUSH2 0xD4D JUMPI PUSH1 0x40 MLOAD PUSH3 0x461BCD PUSH1 0xE5 SHL DUP2 MSTORE PUSH1 0x4 ADD PUSH2 0x379 SWAP1 PUSH2 0x2C93 JUMP JUMPDEST DUP3 DUP1 PUSH2 0xD57 PUSH2 0x19AD JUMP JUMPDEST PUSH1 0x9 SLOAD PUSH1 0x40 MLOAD PUSH4 0x31A9108F PUSH1 0xE1 SHL DUP2 MSTORE PUSH1 0x1 PUSH1 0x1 PUSH1 0xA0 SHL SUB SWAP3 DUP4 AND SWAP3 SWAP1 SWAP2 AND SWAP1 PUSH4 0x6352211E SWAP1 PUSH2 0xD8B SWAP1 DUP6 SWAP1 PUSH1 0x4 ADD PUSH2 0x2837 JUMP JUMPDEST PUSH1 0x20 PUSH1 0x40 MLOAD DUP1 DUP4 SUB DUP2 PUSH1 0x0 DUP8 DUP1 EXTCODESIZE ISZERO DUP1 ISZERO PUSH2 0xDA5 JUMPI PUSH1 0x0 DUP1 REVERT JUMPDEST POP GAS CALL ISZERO DUP1 ISZERO PUSH2 0xDB9 JUMPI RETURNDATASIZE PUSH1 0x0 DUP1 RETURNDATACOPY RETURNDATASIZE PUSH1 0x0 REVERT JUMPDEST POP POP POP POP PUSH1 0x40 MLOAD RETURNDATASIZE PUSH1 0x1F NOT PUSH1 0x1F DUP3 ADD AND DUP3 ADD DUP1 PUSH1 0x40 MSTORE POP DUP2 ADD SWAP1 PUSH2 0xDDD SWAP2 SWAP1 PUSH2 0x244A JUMP JUMPDEST PUSH1 0x1 PUSH1 0x1 PUSH1 0xA0 SHL SUB AND EQ PUSH2 0xE03 JUMPI PUSH1 0x40 MLOAD PUSH3 0x461BCD PUSH1 0xE5 SHL DUP2 MSTORE PUSH1 0x4 ADD PUSH2 0x379 SWAP1 PUSH2 0x2D70 JUMP JUMPDEST PUSH1 0x0 PUSH2 0xE0E DUP7 PUSH2 0x19B1 JUMP JUMPDEST SWAP1 POP PUSH1 0x31 DUP6 PUSH1 0xFF AND GT DUP1 ISZERO PUSH2 0xE2A JUMPI POP PUSH1 0x31 DUP2 PUSH1 0x0 ADD MLOAD PUSH1 0xFF AND GT JUMPDEST PUSH2 0xE46 JUMPI PUSH1 0x40 MLOAD PUSH3 0x461BCD PUSH1 0xE5 SHL DUP2 MSTORE PUSH1 0x4 ADD PUSH2 0x379 SWAP1 PUSH2 0x2B02 JUMP JUMPDEST DUP1 MLOAD PUSH2 0xE51 SWAP1 PUSH2 0x1A44 JUMP JUMPDEST PUSH1 0xFF AND ISZERO PUSH2 0xE71 JUMPI PUSH1 0x40 MLOAD PUSH3 0x461BCD PUSH1 0xE5 SHL DUP2 MSTORE PUSH1 0x4 ADD PUSH2 0x379 SWAP1 PUSH2 0x2A6D JUMP JUMPDEST PUSH1 0xFF DUP6 AND DUP1 DUP3 MSTORE PUSH1 0x3 SLOAD PUSH1 0x40 MLOAD PUSH4 0x7911AA53 PUSH1 0xE1 SHL DUP2 MSTORE PUSH1 0x1 PUSH1 0x1 PUSH1 0xA0 SHL SUB SWAP1 SWAP2 AND SWAP2 PUSH4 0xF22354A6 SWAP2 PUSH2 0xEA8 SWAP2 DUP11 SWAP2 PUSH1 0x4 ADD PUSH2 0x289A JUMP JUMPDEST PUSH1 0x0 PUSH1 0x40 MLOAD DUP1 DUP4 SUB DUP2 PUSH1 0x0 DUP8 DUP1 EXTCODESIZE ISZERO DUP1 ISZERO PUSH2 0xEC2 JUMPI PUSH1 0x0 DUP1 REVERT JUMPDEST POP GAS CALL ISZERO DUP1 ISZERO PUSH2 0xED6 JUMPI RETURNDATASIZE PUSH1 0x0 DUP1 RETURNDATACOPY RETURNDATASIZE PUSH1 0x0 REVERT JUMPDEST POP POP SWAP2 MLOAD PUSH1 0x1 PUSH1 0x0 SSTORE SWAP8 SWAP7 POP POP POP POP POP POP POP JUMP JUMPDEST PUSH2 0xF16 PUSH32 0x65D7A28E3265B37A6474929F336521B332C1681B933F6CB9F3376673440D862A PUSH2 0x2EB PUSH2 0x19AD JUMP JUMPDEST PUSH2 0xF32 JUMPI PUSH1 0x40 MLOAD PUSH3 0x461BCD PUSH1 0xE5 SHL DUP2 MSTORE PUSH1 0x4 ADD PUSH2 0x379 SWAP1 PUSH2 0x2C04 JUMP JUMPDEST PUSH2 0x609 PUSH2 0x1FB8 JUMP JUMPDEST PUSH1 0x0 PUSH1 0x2 PUSH1 0x0 SLOAD EQ ISZERO PUSH2 0xF5F JUMPI PUSH1 0x40 MLOAD PUSH3 0x461BCD PUSH1 0xE5 SHL DUP2 MSTORE PUSH1 0x4 ADD PUSH2 0x379 SWAP1 PUSH2 0x3080 JUMP JUMPDEST PUSH1 0x2 PUSH1 0x0 SSTORE PUSH2 0xF6C PUSH2 0xB5B JUMP JUMPDEST ISZERO PUSH2 0xF89 JUMPI PUSH1 0x40 MLOAD PUSH3 0x461BCD PUSH1 0xE5 SHL DUP2 MSTORE PUSH1 0x4 ADD PUSH2 0x379 SWAP1 PUSH2 0x2C93 JUMP JUMPDEST DUP3 DUP1 PUSH2 0xF93 PUSH2 0x19AD JUMP JUMPDEST PUSH1 0x9 SLOAD PUSH1 0x40 MLOAD PUSH4 0x31A9108F PUSH1 0xE1 SHL DUP2 MSTORE PUSH1 0x1 PUSH1 0x1 PUSH1 0xA0 SHL SUB SWAP3 DUP4 AND SWAP3 SWAP1 SWAP2 AND SWAP1 PUSH4 0x6352211E SWAP1 PUSH2 0xFC7 SWAP1 DUP6 SWAP1 PUSH1 0x4 ADD PUSH2 0x2837 JUMP JUMPDEST PUSH1 0x20 PUSH1 0x40 MLOAD DUP1 DUP4 SUB DUP2 PUSH1 0x0 DUP8 DUP1 EXTCODESIZE ISZERO DUP1 ISZERO PUSH2 0xFE1 JUMPI PUSH1 0x0 DUP1 REVERT JUMPDEST POP GAS CALL ISZERO DUP1 ISZERO PUSH2 0xFF5 JUMPI RETURNDATASIZE PUSH1 0x0 DUP1 RETURNDATACOPY RETURNDATASIZE PUSH1 0x0 REVERT JUMPDEST POP POP POP POP PUSH1 0x40 MLOAD RETURNDATASIZE PUSH1 0x1F NOT PUSH1 0x1F DUP3 ADD AND DUP3 ADD DUP1 PUSH1 0x40 MSTORE POP DUP2 ADD SWAP1 PUSH2 0x1019 SWAP2 SWAP1 PUSH2 0x244A JUMP JUMPDEST PUSH1 0x1 PUSH1 0x1 PUSH1 0xA0 SHL SUB AND EQ PUSH2 0x103F JUMPI PUSH1 0x40 MLOAD PUSH3 0x461BCD PUSH1 0xE5 SHL DUP2 MSTORE PUSH1 0x4 ADD PUSH2 0x379 SWAP1 PUSH2 0x2D70 JUMP JUMPDEST PUSH1 0x0 PUSH2 0x104A DUP7 PUSH2 0x19B1 JUMP JUMPDEST SWAP1 POP PUSH2 0x1059 DUP2 PUSH1 0x0 ADD MLOAD PUSH2 0x1A44 JUMP JUMPDEST PUSH1 0xFF AND ISZERO PUSH2 0x1079 JUMPI PUSH1 0x40 MLOAD PUSH3 0x461BCD PUSH1 0xE5 SHL DUP2 MSTORE PUSH1 0x4 ADD PUSH2 0x379 SWAP1 PUSH2 0x29C6 JUMP JUMPDEST DUP5 PUSH4 0xFFFFFFFF AND DUP2 PUSH1 0xA0 ADD MLOAD PUSH4 0xFFFFFFFF AND GT ISZERO PUSH2 0x10B1 JUMPI DUP5 DUP2 PUSH1 0xA0 ADD MLOAD PUSH2 0x10A1 SWAP2 SWAP1 PUSH2 0x329F JUMP JUMPDEST PUSH4 0xFFFFFFFF AND PUSH1 0xA0 DUP3 ADD MSTORE PUSH2 0x10B9 JUMP JUMPDEST PUSH1 0x0 PUSH1 0xA0 DUP3 ADD MSTORE JUMPDEST PUSH2 0x10C3 DUP7 DUP3 PUSH2 0x1E35 JUMP JUMPDEST PUSH2 0x10D2 DUP2 PUSH1 0x80 ADD MLOAD PUSH1 0x7 PUSH2 0x1B25 JUMP JUMPDEST PUSH1 0xA0 ADD MLOAD PUSH1 0x1 PUSH1 0x0 SSTORE SWAP6 SWAP5 POP POP POP POP POP JUMP JUMPDEST PUSH1 0x0 DUP3 DUP2 MSTORE PUSH1 0x1 PUSH1 0x20 MSTORE PUSH1 0x40 DUP2 KECCAK256 PUSH2 0x10FC SWAP1 DUP4 PUSH2 0x2013 JUMP JUMPDEST SWAP1 POP JUMPDEST SWAP3 SWAP2 POP POP JUMP JUMPDEST PUSH1 0x0 DUP3 DUP2 MSTORE PUSH1 0x1 PUSH1 0x20 MSTORE PUSH1 0x40 DUP2 KECCAK256 PUSH2 0x10FC SWAP1 DUP4 PUSH2 0x201F JUMP JUMPDEST PUSH2 0x1137 PUSH1 0x0 DUP1 MLOAD PUSH1 0x20 PUSH2 0x3314 DUP4 CODECOPY DUP2 MLOAD SWAP2 MSTORE PUSH2 0x2EB PUSH2 0x19AD JUMP JUMPDEST PUSH2 0x1153 JUMPI PUSH1 0x40 MLOAD PUSH3 0x461BCD PUSH1 0xE5 SHL DUP2 MSTORE PUSH1 0x4 ADD PUSH2 0x379 SWAP1 PUSH2 0x2902 JUMP JUMPDEST PUSH1 0x2 PUSH1 0x0 SLOAD EQ ISZERO PUSH2 0x1176 JUMPI PUSH1 0x40 MLOAD PUSH3 0x461BCD PUSH1 0xE5 SHL DUP2 MSTORE PUSH1 0x4 ADD PUSH2 0x379 SWAP1 PUSH2 0x3080 JUMP JUMPDEST PUSH1 0x2 PUSH1 0x0 SSTORE PUSH1 0xB SLOAD PUSH1 0x40 MLOAD PUSH4 0x21421707 PUSH1 0xE1 SHL DUP2 MSTORE PUSH1 0x1 PUSH1 0x1 PUSH1 0xA0 SHL SUB SWAP1 SWAP2 AND SWAP1 PUSH4 0x42842E0E SWAP1 PUSH2 0x11AF SWAP1 ADDRESS SWAP1 DUP7 SWAP1 DUP7 SWAP1 PUSH1 0x4 ADD PUSH2 0x27B4 JUMP JUMPDEST PUSH1 0x0 PUSH1 0x40 MLOAD DUP1 DUP4 SUB DUP2 PUSH1 0x0 DUP8 DUP1 EXTCODESIZE ISZERO DUP1 ISZERO PUSH2 0x11C9 JUMPI PUSH1 0x0 DUP1 REVERT JUMPDEST POP GAS CALL ISZERO DUP1 ISZERO PUSH2 0x11DD JUMPI RETURNDATASIZE PUSH1 0x0 DUP1 RETURNDATACOPY RETURNDATASIZE PUSH1 0x0 REVERT JUMPDEST POP POP PUSH1 0x1 PUSH1 0x0 SSTORE POP POP POP POP JUMP JUMPDEST PUSH1 0x0 DUP2 JUMP JUMPDEST PUSH1 0x0 DUP2 DUP2 MSTORE PUSH1 0x1 PUSH1 0x20 MSTORE PUSH1 0x40 DUP2 KECCAK256 PUSH2 0x10FF SWAP1 PUSH2 0x2034 JUMP JUMPDEST PUSH1 0x0 DUP3 DUP2 MSTORE PUSH1 0x1 PUSH1 0x20 MSTORE PUSH1 0x40 SWAP1 KECCAK256 PUSH1 0x2 ADD SLOAD PUSH2 0x1224 SWAP1 PUSH2 0x2EB PUSH2 0x19AD JUMP JUMPDEST PUSH2 0x5AF JUMPI PUSH1 0x40 MLOAD PUSH3 0x461BCD PUSH1 0xE5 SHL DUP2 MSTORE PUSH1 0x4 ADD PUSH2 0x379 SWAP1 PUSH2 0x2BB4 JUMP JUMPDEST PUSH2 0x125A PUSH1 0x0 DUP1 MLOAD PUSH1 0x20 PUSH2 0x3314 DUP4 CODECOPY DUP2 MLOAD SWAP2 MSTORE PUSH2 0x2EB PUSH2 0x19AD JUMP JUMPDEST PUSH2 0x1276 JUMPI PUSH1 0x40 MLOAD PUSH3 0x461BCD PUSH1 0xE5 SHL DUP2 MSTORE PUSH1 0x4 ADD PUSH2 0x379 SWAP1 PUSH2 0x2902 JUMP JUMPDEST PUSH1 0x1 PUSH1 0x1 PUSH1 0xA0 SHL SUB DUP2 AND PUSH2 0x129C JUMPI PUSH1 0x40 MLOAD PUSH3 0x461BCD PUSH1 0xE5 SHL DUP2 MSTORE PUSH1 0x4 ADD PUSH2 0x379 SWAP1 PUSH2 0x2DB7 JUMP JUMPDEST PUSH1 0x3 DUP1 SLOAD PUSH1 0x1 PUSH1 0x1 PUSH1 0xA0 SHL SUB NOT AND PUSH1 0x1 PUSH1 0x1 PUSH1 0xA0 SHL SUB SWAP3 SWAP1 SWAP3 AND SWAP2 SWAP1 SWAP2 OR SWAP1 SSTORE JUMP JUMPDEST PUSH32 0x65D7A28E3265B37A6474929F336521B332C1681B933F6CB9F3376673440D862A DUP2 JUMP JUMPDEST PUSH1 0x2 PUSH1 0x0 SLOAD EQ ISZERO PUSH2 0x1305 JUMPI PUSH1 0x40 MLOAD PUSH3 0x461BCD PUSH1 0xE5 SHL DUP2 MSTORE PUSH1 0x4 ADD PUSH2 0x379 SWAP1 PUSH2 0x3080 JUMP JUMPDEST PUSH1 0x2 PUSH1 0x0 SSTORE PUSH2 0x1324 PUSH1 0x0 DUP1 MLOAD PUSH1 0x20 PUSH2 0x3314 DUP4 CODECOPY DUP2 MLOAD SWAP2 MSTORE PUSH2 0x2EB PUSH2 0x19AD JUMP JUMPDEST PUSH2 0x1340 JUMPI PUSH1 0x40 MLOAD PUSH3 0x461BCD PUSH1 0xE5 SHL DUP2 MSTORE PUSH1 0x4 ADD PUSH2 0x379 SWAP1 PUSH2 0x2902 JUMP JUMPDEST PUSH1 0x3 SLOAD PUSH1 0x40 MLOAD PUSH4 0x63B8D4C1 PUSH1 0xE1 SHL DUP2 MSTORE PUSH1 0x1 PUSH1 0x1 PUSH1 0xA0 SHL SUB SWAP1 SWAP2 AND SWAP1 PUSH4 0xC771A982 SWAP1 PUSH2 0x136E SWAP1 PUSH1 0x4 ADD PUSH2 0x2E57 JUMP JUMPDEST PUSH1 0x20 PUSH1 0x40 MLOAD DUP1 DUP4 SUB DUP2 DUP7 DUP1 EXTCODESIZE ISZERO DUP1 ISZERO PUSH2 0x1386 JUMPI PUSH1 0x0 DUP1 REVERT JUMPDEST POP GAS STATICCALL ISZERO DUP1 ISZERO PUSH2 0x139A JUMPI RETURNDATASIZE PUSH1 0x0 DUP1 RETURNDATACOPY RETURNDATASIZE PUSH1 0x0 REVERT JUMPDEST POP POP POP POP PUSH1 0x40 MLOAD RETURNDATASIZE PUSH1 0x1F NOT PUSH1 0x1F DUP3 ADD AND DUP3 ADD DUP1 PUSH1 0x40 MSTORE POP DUP2 ADD SWAP1 PUSH2 0x13BE SWAP2 SWAP1 PUSH2 0x244A JUMP JUMPDEST PUSH1 0xA DUP1 SLOAD PUSH1 0x1 PUSH1 0x1 PUSH1 0xA0 SHL SUB SWAP3 DUP4 AND PUSH1 0x1 PUSH1 0x1 PUSH1 0xA0 SHL SUB NOT SWAP2 DUP3 AND OR SWAP2 DUP3 SWAP1 SSTORE PUSH1 0xB DUP1 SLOAD SWAP1 SWAP2 AND SWAP2 DUP4 AND SWAP2 SWAP1 SWAP2 OR SWAP1 SSTORE PUSH1 0x3 SLOAD PUSH1 0x40 MLOAD PUSH4 0x63B8D4C1 PUSH1 0xE1 SHL DUP2 MSTORE SWAP2 AND SWAP1 PUSH4 0xC771A982 SWAP1 PUSH2 0x1413 SWAP1 PUSH1 0x4 ADD PUSH2 0x30D9 JUMP JUMPDEST PUSH1 0x20 PUSH1 0x40 MLOAD DUP1 DUP4 SUB DUP2 DUP7 DUP1 EXTCODESIZE ISZERO DUP1 ISZERO PUSH2 0x142B JUMPI PUSH1 0x0 DUP1 REVERT JUMPDEST POP GAS STATICCALL ISZERO DUP1 ISZERO PUSH2 0x143F JUMPI RETURNDATASIZE PUSH1 0x0 DUP1 RETURNDATACOPY RETURNDATASIZE PUSH1 0x0 REVERT JUMPDEST POP POP POP POP PUSH1 0x40 MLOAD RETURNDATASIZE PUSH1 0x1F NOT PUSH1 0x1F DUP3 ADD AND DUP3 ADD DUP1 PUSH1 0x40 MSTORE POP DUP2 ADD SWAP1 PUSH2 0x1463 SWAP2 SWAP1 PUSH2 0x244A JUMP JUMPDEST PUSH1 0x4 DUP1 SLOAD PUSH1 0x1 PUSH1 0x1 PUSH1 0xA0 SHL SUB SWAP3 DUP4 AND PUSH1 0x1 PUSH1 0x1 PUSH1 0xA0 SHL SUB NOT SWAP2 DUP3 AND OR DUP1 DUP4 SSTORE PUSH1 0x5 DUP1 SLOAD SWAP1 SWAP3 AND SWAP1 DUP5 AND OR SWAP1 SSTORE PUSH1 0x3 SLOAD PUSH1 0x40 MLOAD PUSH4 0x63B8D4C1 PUSH1 0xE1 SHL DUP2 MSTORE SWAP3 AND SWAP2 PUSH4 0xC771A982 SWAP2 PUSH2 0x14B2 SWAP2 ADD PUSH2 0x30B7 JUMP JUMPDEST PUSH1 0x20 PUSH1 0x40 MLOAD DUP1 DUP4 SUB DUP2 DUP7 DUP1 EXTCODESIZE ISZERO DUP1 ISZERO PUSH2 0x14CA JUMPI PUSH1 0x0 DUP1 REVERT JUMPDEST POP GAS STATICCALL ISZERO DUP1 ISZERO PUSH2 0x14DE JUMPI RETURNDATASIZE PUSH1 0x0 DUP1 RETURNDATACOPY RETURNDATASIZE PUSH1 0x0 REVERT JUMPDEST POP POP POP POP PUSH1 0x40 MLOAD RETURNDATASIZE PUSH1 0x1F NOT PUSH1 0x1F DUP3 ADD AND DUP3 ADD DUP1 PUSH1 0x40 MSTORE POP DUP2 ADD SWAP1 PUSH2 0x1502 SWAP2 SWAP1 PUSH2 0x244A JUMP JUMPDEST PUSH1 0x6 DUP1 SLOAD PUSH1 0x1 PUSH1 0x1 PUSH1 0xA0 SHL SUB SWAP3 DUP4 AND PUSH1 0x1 PUSH1 0x1 PUSH1 0xA0 SHL SUB NOT SWAP2 DUP3 AND OR SWAP2 DUP3 SWAP1 SSTORE PUSH1 0x7 DUP1 SLOAD SWAP1 SWAP2 AND SWAP2 DUP4 AND SWAP2 SWAP1 SWAP2 OR SWAP1 SSTORE PUSH1 0x3 SLOAD PUSH1 0x40 MLOAD PUSH4 0x63B8D4C1 PUSH1 0xE1 SHL DUP2 MSTORE SWAP2 AND SWAP1 PUSH4 0xC771A982 SWAP1 PUSH2 0x1557 SWAP1 PUSH1 0x4 ADD PUSH2 0x2CF4 JUMP JUMPDEST PUSH1 0x20 PUSH1 0x40 MLOAD DUP1 DUP4 SUB DUP2 DUP7 DUP1 EXTCODESIZE ISZERO DUP1 ISZERO PUSH2 0x156F JUMPI PUSH1 0x0 DUP1 REVERT JUMPDEST POP GAS STATICCALL ISZERO DUP1 ISZERO PUSH2 0x1583 JUMPI RETURNDATASIZE PUSH1 0x0 DUP1 RETURNDATACOPY RETURNDATASIZE PUSH1 0x0 REVERT JUMPDEST POP POP POP POP PUSH1 0x40 MLOAD RETURNDATASIZE PUSH1 0x1F NOT PUSH1 0x1F DUP3 ADD AND DUP3 ADD DUP1 PUSH1 0x40 MSTORE POP DUP2 ADD SWAP1 PUSH2 0x15A7 SWAP2 SWAP1 PUSH2 0x244A JUMP JUMPDEST PUSH1 0x8 DUP1 SLOAD PUSH1 0x1 PUSH1 0x1 PUSH1 0xA0 SHL SUB SWAP3 DUP4 AND PUSH1 0x1 PUSH1 0x1 PUSH1 0xA0 SHL SUB NOT SWAP2 DUP3 AND OR SWAP2 DUP3 SWAP1 SSTORE PUSH1 0x9 DUP1 SLOAD SWAP1 SWAP2 AND SWAP2 DUP4 AND SWAP2 SWAP1 SWAP2 OR SWAP1 SSTORE PUSH1 0x3 SLOAD PUSH1 0x40 MLOAD PUSH4 0x63B8D4C1 PUSH1 0xE1 SHL DUP2 MSTORE SWAP2 AND SWAP1 PUSH4 0xC771A982 SWAP1 PUSH2 0x15FC SWAP1 PUSH1 0x4 ADD PUSH2 0x3023 JUMP JUMPDEST PUSH1 0x20 PUSH1 0x40 MLOAD DUP1 DUP4 SUB DUP2 DUP7 DUP1 EXTCODESIZE ISZERO DUP1 ISZERO PUSH2 0x1614 JUMPI PUSH1 0x0 DUP1 REVERT JUMPDEST POP GAS STATICCALL ISZERO DUP1 ISZERO PUSH2 0x1628 JUMPI RETURNDATASIZE PUSH1 0x0 DUP1 RETURNDATACOPY RETURNDATASIZE PUSH1 0x0 REVERT JUMPDEST POP POP POP POP PUSH1 0x40 MLOAD RETURNDATASIZE PUSH1 0x1F NOT PUSH1 0x1F DUP3 ADD AND DUP3 ADD DUP1 PUSH1 0x40 MSTORE POP DUP2 ADD SWAP1 PUSH2 0x164C SWAP2 SWAP1 PUSH2 0x244A JUMP JUMPDEST PUSH1 0xC DUP1 SLOAD PUSH1 0x1 PUSH1 0x1 PUSH1 0xA0 SHL SUB SWAP3 DUP4 AND PUSH1 0x1 PUSH1 0x1 PUSH1 0xA0 SHL SUB NOT SWAP2 DUP3 AND OR SWAP2 DUP3 SWAP1 SSTORE PUSH1 0xD DUP1 SLOAD SWAP1 SWAP2 AND SWAP2 DUP4 AND SWAP2 SWAP1 SWAP2 OR SWAP1 SSTORE PUSH1 0x3 SLOAD PUSH1 0x40 MLOAD PUSH4 0x63B8D4C1 PUSH1 0xE1 SHL DUP2 MSTORE SWAP2 AND SWAP1 PUSH4 0xC771A982 SWAP1 PUSH2 0x16A1 SWAP1 PUSH1 0x4 ADD PUSH2 0x3043 JUMP JUMPDEST PUSH1 0x20 PUSH1 0x40 MLOAD DUP1 DUP4 SUB DUP2 DUP7 DUP1 EXTCODESIZE ISZERO DUP1 ISZERO PUSH2 0x16B9 JUMPI PUSH1 0x0 DUP1 REVERT JUMPDEST POP GAS STATICCALL ISZERO DUP1 ISZERO PUSH2 0x16CD JUMPI RETURNDATASIZE PUSH1 0x0 DUP1 RETURNDATACOPY RETURNDATASIZE PUSH1 0x0 REVERT JUMPDEST POP POP POP POP PUSH1 0x40 MLOAD RETURNDATASIZE PUSH1 0x1F NOT PUSH1 0x1F DUP3 ADD AND DUP3 ADD DUP1 PUSH1 0x40 MSTORE POP DUP2 ADD SWAP1 PUSH2 0x16F1 SWAP2 SWAP1 PUSH2 0x244A JUMP JUMPDEST PUSH1 0xE DUP1 SLOAD PUSH1 0x1 PUSH1 0x1 PUSH1 0xA0 SHL SUB SWAP3 DUP4 AND PUSH1 0x1 PUSH1 0x1 PUSH1 0xA0 SHL SUB NOT SWAP2 DUP3 AND OR SWAP2 DUP3 SWAP1 SSTORE PUSH1 0xF DUP1 SLOAD SWAP1 SWAP2 AND SWAP2 DUP4 AND SWAP2 SWAP1 SWAP2 OR SWAP1 SSTORE PUSH1 0x3 SLOAD PUSH1 0x40 MLOAD PUSH4 0x63B8D4C1 PUSH1 0xE1 SHL DUP2 MSTORE SWAP2 AND SWAP1 PUSH4 0xC771A982 SWAP1 PUSH2 0x1746 SWAP1 PUSH1 0x4 ADD PUSH2 0x2A50 JUMP JUMPDEST PUSH1 0x20 PUSH1 0x40 MLOAD DUP1 DUP4 SUB DUP2 DUP7 DUP1 EXTCODESIZE ISZERO DUP1 ISZERO PUSH2 0x175E JUMPI PUSH1 0x0 DUP1 REVERT JUMPDEST POP GAS STATICCALL ISZERO DUP1 ISZERO PUSH2 0x1772 JUMPI RETURNDATASIZE PUSH1 0x0 DUP1 RETURNDATACOPY RETURNDATASIZE PUSH1 0x0 REVERT JUMPDEST POP POP POP POP PUSH1 0x40 MLOAD RETURNDATASIZE PUSH1 0x1F NOT PUSH1 0x1F DUP3 ADD AND DUP3 ADD DUP1 PUSH1 0x40 MSTORE POP DUP2 ADD SWAP1 PUSH2 0x1796 SWAP2 SWAP1 PUSH2 0x244A JUMP JUMPDEST PUSH1 0x12 DUP1 SLOAD PUSH1 0x1 PUSH1 0x1 PUSH1 0xA0 SHL SUB SWAP3 DUP4 AND PUSH1 0x1 PUSH1 0x1 PUSH1 0xA0 SHL SUB NOT SWAP2 DUP3 AND OR SWAP2 DUP3 SWAP1 SSTORE PUSH1 0x13 DUP1 SLOAD SWAP1 SWAP2 AND SWAP2 DUP4 AND SWAP2 SWAP1 SWAP2 OR SWAP1 SSTORE PUSH1 0x3 SLOAD PUSH1 0x40 MLOAD PUSH4 0x63B8D4C1 PUSH1 0xE1 SHL DUP2 MSTORE SWAP2 AND SWAP1 PUSH4 0xC771A982 SWAP1 PUSH2 0x17EB SWAP1 PUSH1 0x4 ADD PUSH2 0x2AE4 JUMP JUMPDEST PUSH1 0x20 PUSH1 0x40 MLOAD DUP1 DUP4 SUB DUP2 DUP7 DUP1 EXTCODESIZE ISZERO DUP1 ISZERO PUSH2 0x1803 JUMPI PUSH1 0x0 DUP1 REVERT JUMPDEST POP GAS STATICCALL ISZERO DUP1 ISZERO PUSH2 0x1817 JUMPI RETURNDATASIZE PUSH1 0x0 DUP1 RETURNDATACOPY RETURNDATASIZE PUSH1 0x0 REVERT JUMPDEST POP POP POP POP PUSH1 0x40 MLOAD RETURNDATASIZE PUSH1 0x1F NOT PUSH1 0x1F DUP3 ADD AND DUP3 ADD DUP1 PUSH1 0x40 MSTORE POP DUP2 ADD SWAP1 PUSH2 0x183B SWAP2 SWAP1 PUSH2 0x244A JUMP JUMPDEST PUSH1 0x10 DUP1 SLOAD PUSH1 0x1 PUSH1 0x1 PUSH1 0xA0 SHL SUB SWAP3 DUP4 AND PUSH1 0x1 PUSH1 0x1 PUSH1 0xA0 SHL SUB NOT SWAP2 DUP3 AND OR SWAP2 DUP3 SWAP1 SSTORE PUSH1 0x11 DUP1 SLOAD SWAP1 SWAP2 AND SWAP2 DUP4 AND SWAP2 SWAP1 SWAP2 OR SWAP1 SSTORE PUSH1 0x3 SLOAD PUSH1 0x40 MLOAD PUSH4 0x63B8D4C1 PUSH1 0xE1 SHL DUP2 MSTORE SWAP2 AND SWAP1 PUSH4 0xC771A982 SWAP1 PUSH2 0x1890 SWAP1 PUSH1 0x4 ADD PUSH2 0x2F16 JUMP JUMPDEST PUSH1 0x20 PUSH1 0x40 MLOAD DUP1 DUP4 SUB DUP2 DUP7 DUP1 EXTCODESIZE ISZERO DUP1 ISZERO PUSH2 0x18A8 JUMPI PUSH1 0x0 DUP1 REVERT JUMPDEST POP GAS STATICCALL ISZERO DUP1 ISZERO PUSH2 0x18BC JUMPI RETURNDATASIZE PUSH1 0x0 DUP1 RETURNDATACOPY RETURNDATASIZE PUSH1 0x0 REVERT JUMPDEST POP POP POP POP PUSH1 0x40 MLOAD RETURNDATASIZE PUSH1 0x1F NOT PUSH1 0x1F DUP3 ADD AND DUP3 ADD DUP1 PUSH1 0x40 MSTORE POP DUP2 ADD SWAP1 PUSH2 0x18E0 SWAP2 SWAP1 PUSH2 0x244A JUMP JUMPDEST PUSH1 0x14 DUP1 SLOAD PUSH1 0x1 PUSH1 0x1 PUSH1 0xA0 SHL SUB NOT AND PUSH1 0x1 PUSH1 0x1 PUSH1 0xA0 SHL SUB SWAP3 DUP4 AND OR SWAP1 SSTORE PUSH1 0x3 SLOAD PUSH1 0x40 MLOAD PUSH4 0x63B8D4C1 PUSH1 0xE1 SHL DUP2 MSTORE SWAP2 AND SWAP1 PUSH4 0xC771A982 SWAP1 PUSH2 0x1921 SWAP1 PUSH1 0x4 ADD PUSH2 0x3064 JUMP JUMPDEST PUSH1 0x20 PUSH1 0x40 MLOAD DUP1 DUP4 SUB DUP2 DUP7 DUP1 EXTCODESIZE ISZERO DUP1 ISZERO PUSH2 0x1939 JUMPI PUSH1 0x0 DUP1 REVERT JUMPDEST POP GAS STATICCALL ISZERO DUP1 ISZERO PUSH2 0x194D JUMPI RETURNDATASIZE PUSH1 0x0 DUP1 RETURNDATACOPY RETURNDATASIZE PUSH1 0x0 REVERT JUMPDEST POP POP POP POP PUSH1 0x40 MLOAD RETURNDATASIZE PUSH1 0x1F NOT PUSH1 0x1F DUP3 ADD AND DUP3 ADD DUP1 PUSH1 0x40 MSTORE POP DUP2 ADD SWAP1 PUSH2 0x1971 SWAP2 SWAP1 PUSH2 0x244A JUMP JUMPDEST PUSH1 0x17 DUP1 SLOAD PUSH1 0x1 PUSH1 0x1 PUSH1 0xA0 SHL SUB NOT AND PUSH1 0x1 PUSH1 0x1 PUSH1 0xA0 SHL SUB SWAP3 SWAP1 SWAP3 AND SWAP2 SWAP1 SWAP2 OR SWAP1 SSTORE PUSH1 0x1 PUSH1 0x0 SSTORE JUMP JUMPDEST PUSH1 0x0 PUSH2 0x10FC DUP4 PUSH1 0x1 PUSH1 0x1 PUSH1 0xA0 SHL SUB DUP5 AND PUSH2 0x203F JUMP JUMPDEST CALLER SWAP1 JUMP JUMPDEST PUSH2 0x19B9 PUSH2 0x2311 JUMP JUMPDEST PUSH1 0x3 SLOAD PUSH1 0x40 MLOAD PUSH4 0x38923CB1 PUSH1 0xE2 SHL DUP2 MSTORE PUSH1 0x0 SWAP2 PUSH1 0x1 PUSH1 0x1 PUSH1 0xA0 SHL SUB AND SWAP1 PUSH4 0xE248F2C4 SWAP1 PUSH2 0x19EA SWAP1 DUP7 SWAP1 PUSH1 0x4 ADD PUSH2 0x2837 JUMP JUMPDEST PUSH2 0x160 PUSH1 0x40 MLOAD DUP1 DUP4 SUB DUP2 PUSH1 0x0 DUP8 DUP1 EXTCODESIZE ISZERO DUP1 ISZERO PUSH2 0x1A05 JUMPI PUSH1 0x0 DUP1 REVERT JUMPDEST POP GAS CALL ISZERO DUP1 ISZERO PUSH2 0x1A19 JUMPI RETURNDATASIZE PUSH1 0x0 DUP1 RETURNDATACOPY RETURNDATASIZE PUSH1 0x0 REVERT JUMPDEST POP POP POP POP PUSH1 0x40 MLOAD RETURNDATASIZE PUSH1 0x1F NOT PUSH1 0x1F DUP3 ADD AND DUP3 ADD DUP1 PUSH1 0x40 MSTORE POP DUP2 ADD SWAP1 PUSH2 0x1A3D SWAP2 SWAP1 PUSH2 0x2646 JUMP JUMPDEST SWAP4 SWAP3 POP POP POP JUMP JUMPDEST PUSH1 0x0 DUP2 PUSH1 0xFF AND PUSH1 0x5 EQ ISZERO DUP1 ISZERO PUSH2 0x1A5E JUMPI POP DUP2 PUSH1 0xFF AND PUSH1 0x37 EQ ISZERO JUMPDEST DUP1 ISZERO PUSH2 0x1A6E JUMPI POP DUP2 PUSH1 0xFF AND PUSH1 0x46 EQ ISZERO JUMPDEST DUP1 ISZERO PUSH2 0x1A7E JUMPI POP DUP2 PUSH1 0xFF AND PUSH1 0x3C EQ ISZERO JUMPDEST ISZERO PUSH2 0x1A8B JUMPI POP PUSH1 0x0 PUSH2 0x52A JUMP JUMPDEST POP PUSH1 0xAA PUSH2 0x52A JUMP JUMPDEST PUSH2 0x1A9B PUSH2 0xB5B JUMP JUMPDEST ISZERO PUSH2 0x1AB8 JUMPI PUSH1 0x40 MLOAD PUSH3 0x461BCD PUSH1 0xE5 SHL DUP2 MSTORE PUSH1 0x4 ADD PUSH2 0x379 SWAP1 PUSH2 0x2C93 JUMP JUMPDEST PUSH1 0x3 SLOAD PUSH2 0x100 DUP3 ADD MLOAD PUSH1 0x40 MLOAD PUSH4 0x10B37129 PUSH1 0xE2 SHL DUP2 MSTORE PUSH1 0x1 PUSH1 0x1 PUSH1 0xA0 SHL SUB SWAP1 SWAP3 AND SWAP2 PUSH4 0x42CDC4A4 SWAP2 PUSH2 0x1AEF SWAP2 DUP7 SWAP2 SWAP1 PUSH1 0x4 ADD PUSH2 0x2840 JUMP JUMPDEST PUSH1 0x0 PUSH1 0x40 MLOAD DUP1 DUP4 SUB DUP2 PUSH1 0x0 DUP8 DUP1 EXTCODESIZE ISZERO DUP1 ISZERO PUSH2 0x1B09 JUMPI PUSH1 0x0 DUP1 REVERT JUMPDEST POP GAS CALL ISZERO DUP1 ISZERO PUSH2 0x1B1D JUMPI RETURNDATASIZE PUSH1 0x0 DUP1 RETURNDATACOPY RETURNDATASIZE PUSH1 0x0 REVERT JUMPDEST POP POP POP POP POP POP JUMP JUMPDEST PUSH2 0x1B2D PUSH2 0xB5B JUMP JUMPDEST ISZERO PUSH2 0x1B4A JUMPI PUSH1 0x40 MLOAD PUSH3 0x461BCD PUSH1 0xE5 SHL DUP2 MSTORE PUSH1 0x4 ADD PUSH2 0x379 SWAP1 PUSH2 0x2C93 JUMP JUMPDEST PUSH2 0x1B52 PUSH2 0x236D JUMP JUMPDEST PUSH1 0x5 SLOAD PUSH1 0x40 MLOAD PUSH4 0x42324E3 PUSH1 0xE1 SHL DUP2 MSTORE PUSH1 0x0 SWAP2 PUSH1 0x64 SWAP2 PUSH1 0x1 PUSH1 0x1 PUSH1 0xA0 SHL SUB SWAP1 SWAP2 AND SWAP1 PUSH4 0x84649C6 SWAP1 PUSH2 0x1B88 SWAP1 DUP9 SWAP1 PUSH1 0x4 ADD PUSH2 0x31B9 JUMP JUMPDEST PUSH1 0x20 PUSH1 0x40 MLOAD DUP1 DUP4 SUB DUP2 DUP7 DUP1 EXTCODESIZE ISZERO DUP1 ISZERO PUSH2 0x1BA0 JUMPI PUSH1 0x0 DUP1 REVERT JUMPDEST POP GAS STATICCALL ISZERO DUP1 ISZERO PUSH2 0x1BB4 JUMPI RETURNDATASIZE PUSH1 0x0 DUP1 RETURNDATACOPY RETURNDATASIZE PUSH1 0x0 REVERT JUMPDEST POP POP POP POP PUSH1 0x40 MLOAD RETURNDATASIZE PUSH1 0x1F NOT PUSH1 0x1F DUP3 ADD AND DUP3 ADD DUP1 PUSH1 0x40 MSTORE POP DUP2 ADD SWAP1 PUSH2 0x1BD8 SWAP2 SWAP1 PUSH2 0x2710 JUMP JUMPDEST PUSH4 0xFFFFFFFF AND PUSH2 0x1BE8 SWAP2 SWAP1 PUSH2 0x3249 JUMP JUMPDEST SWAP1 POP PUSH1 0x64 DUP2 GT ISZERO PUSH2 0x1C0B JUMPI PUSH1 0x40 MLOAD PUSH3 0x461BCD PUSH1 0xE5 SHL DUP2 MSTORE PUSH1 0x4 ADD PUSH2 0x379 SWAP1 PUSH2 0x2EC4 JUMP JUMPDEST PUSH1 0x5 SLOAD PUSH1 0x40 MLOAD PUSH4 0x859F08DB PUSH1 0xE0 SHL DUP2 MSTORE PUSH1 0x1 PUSH1 0x1 PUSH1 0xA0 SHL SUB SWAP1 SWAP2 AND SWAP1 PUSH4 0x859F08DB SWAP1 PUSH2 0x1C3D SWAP1 DUP8 SWAP1 DUP8 SWAP1 PUSH1 0x4 ADD PUSH2 0x31CA JUMP JUMPDEST PUSH1 0xA0 PUSH1 0x40 MLOAD DUP1 DUP4 SUB DUP2 DUP7 DUP1 EXTCODESIZE ISZERO DUP1 ISZERO PUSH2 0x1C55 JUMPI PUSH1 0x0 DUP1 REVERT JUMPDEST POP GAS STATICCALL ISZERO DUP1 ISZERO PUSH2 0x1C69 JUMPI RETURNDATASIZE PUSH1 0x0 DUP1 RETURNDATACOPY RETURNDATASIZE PUSH1 0x0 REVERT JUMPDEST POP POP POP POP PUSH1 0x40 MLOAD RETURNDATASIZE PUSH1 0x1F NOT PUSH1 0x1F DUP3 ADD AND DUP3 ADD DUP1 PUSH1 0x40 MSTORE POP DUP2 ADD SWAP1 PUSH2 0x1C8D SWAP2 SWAP1 PUSH2 0x25DB JUMP JUMPDEST SWAP2 POP PUSH1 0x0 PUSH1 0x64 DUP4 PUSH1 0x80 ADD MLOAD PUSH2 0x1CA2 SWAP2 SWAP1 PUSH2 0x3249 JUMP JUMPDEST SWAP1 POP PUSH1 0x0 PUSH2 0x1CB0 DUP3 DUP5 PUSH2 0x3269 JUMP JUMPDEST SWAP1 POP PUSH1 0x0 DUP2 DUP6 PUSH1 0x80 ADD MLOAD PUSH2 0x1CC4 SWAP2 SWAP1 PUSH2 0x3288 JUMP JUMPDEST PUSH1 0x80 DUP7 ADD DUP4 SWAP1 MSTORE PUSH1 0x60 DUP7 ADD MLOAD SWAP1 SWAP2 POP PUSH2 0x1CDE SWAP1 DUP3 SWAP1 PUSH2 0x3231 JUMP JUMPDEST PUSH1 0x60 DUP7 ADD MSTORE PUSH2 0x1CEC DUP6 PUSH2 0x2089 JUMP JUMPDEST POP POP POP POP POP POP POP JUMP JUMPDEST PUSH1 0x0 DUP3 DUP2 MSTORE PUSH1 0x1 PUSH1 0x20 MSTORE PUSH1 0x40 SWAP1 KECCAK256 PUSH2 0x1D0D SWAP1 DUP3 PUSH2 0x1998 JUMP JUMPDEST ISZERO PUSH2 0x573 JUMPI PUSH2 0x1D1A PUSH2 0x19AD JUMP JUMPDEST PUSH1 0x1 PUSH1 0x1 PUSH1 0xA0 SHL SUB AND DUP2 PUSH1 0x1 PUSH1 0x1 PUSH1 0xA0 SHL SUB AND DUP4 PUSH32 0x2F8788117E7EFF1D82E926EC794901D17C78024A50270940304540A733656F0D PUSH1 0x40 MLOAD PUSH1 0x40 MLOAD DUP1 SWAP2 SUB SWAP1 LOG4 POP POP JUMP JUMPDEST PUSH1 0x0 DUP3 DUP2 MSTORE PUSH1 0x1 PUSH1 0x20 MSTORE PUSH1 0x40 SWAP1 KECCAK256 PUSH2 0x1D76 SWAP1 DUP3 PUSH2 0x216A JUMP JUMPDEST ISZERO PUSH2 0x573 JUMPI PUSH2 0x1D83 PUSH2 0x19AD JUMP JUMPDEST PUSH1 0x1 PUSH1 0x1 PUSH1 0xA0 SHL SUB AND DUP2 PUSH1 0x1 PUSH1 0x1 PUSH1 0xA0 SHL SUB AND DUP4 PUSH32 0xF6391F5C32D9C69D2A47EA670B442974B53935D1EDC7FD64EB21E047A839171B PUSH1 0x40 MLOAD PUSH1 0x40 MLOAD DUP1 SWAP2 SUB SWAP1 LOG4 POP POP JUMP JUMPDEST PUSH2 0x1DCF PUSH2 0xB5B JUMP JUMPDEST PUSH2 0x1DEB JUMPI PUSH1 0x40 MLOAD PUSH3 0x461BCD PUSH1 0xE5 SHL DUP2 MSTORE PUSH1 0x4 ADD PUSH2 0x379 SWAP1 PUSH2 0x2998 JUMP JUMPDEST PUSH1 0x2 DUP1 SLOAD PUSH1 0xFF NOT AND SWAP1 SSTORE PUSH32 0x5DB9EE0A495BF2E6FF9C91A7834C1BA4FDD244A5E8AA4E537BD38AEAE4B073AA PUSH2 0x1E1E PUSH2 0x19AD JUMP JUMPDEST PUSH1 0x40 MLOAD PUSH2 0x1E2B SWAP2 SWAP1 PUSH2 0x27A0 JUMP JUMPDEST PUSH1 0x40 MLOAD DUP1 SWAP2 SUB SWAP1 LOG1 JUMP JUMPDEST PUSH2 0x1E3D PUSH2 0xB5B JUMP JUMPDEST ISZERO PUSH2 0x1E5A JUMPI PUSH1 0x40 MLOAD PUSH3 0x461BCD PUSH1 0xE5 SHL DUP2 MSTORE PUSH1 0x4 ADD PUSH2 0x379 SWAP1 PUSH2 0x2C93 JUMP JUMPDEST PUSH1 0x3 SLOAD PUSH2 0x140 DUP3 ADD MLOAD DUP3 MLOAD PUSH1 0xA0 DUP5 ADD MLOAD PUSH1 0x20 DUP6 ADD MLOAD PUSH1 0x60 DUP7 ADD MLOAD PUSH1 0x40 MLOAD PUSH4 0x31AEAA7F PUSH1 0xE1 SHL DUP2 MSTORE PUSH1 0x1 PUSH1 0x1 PUSH1 0xA0 SHL SUB SWAP1 SWAP7 AND SWAP6 PUSH4 0x635D54FE SWAP6 PUSH2 0x1AEF SWAP6 DUP11 SWAP6 SWAP2 SWAP5 SWAP1 SWAP4 SWAP2 SWAP3 SWAP1 SWAP2 SWAP1 PUSH1 0x4 ADD PUSH2 0x284E JUMP JUMPDEST PUSH2 0x1EB2 PUSH2 0x239B JUMP JUMPDEST PUSH2 0x1EBA PUSH2 0x239B JUMP JUMPDEST PUSH1 0x5 SLOAD PUSH1 0x40 MLOAD PUSH4 0xF243501 PUSH1 0xE4 SHL DUP2 MSTORE PUSH1 0x1 PUSH1 0x1 PUSH1 0xA0 SHL SUB SWAP1 SWAP2 AND SWAP1 PUSH4 0xF2435010 SWAP1 PUSH2 0x1EEA SWAP1 DUP7 SWAP1 PUSH1 0x4 ADD PUSH2 0x31B9 JUMP JUMPDEST PUSH1 0xA0 PUSH1 0x40 MLOAD DUP1 DUP4 SUB DUP2 PUSH1 0x0 DUP8 DUP1 EXTCODESIZE ISZERO DUP1 ISZERO PUSH2 0x1F04 JUMPI PUSH1 0x0 DUP1 REVERT JUMPDEST POP GAS CALL ISZERO DUP1 ISZERO PUSH2 0x1F18 JUMPI RETURNDATASIZE PUSH1 0x0 DUP1 RETURNDATACOPY RETURNDATASIZE PUSH1 0x0 REVERT JUMPDEST POP POP POP POP PUSH1 0x40 MLOAD RETURNDATASIZE PUSH1 0x1F NOT PUSH1 0x1F DUP3 ADD AND DUP3 ADD DUP1 PUSH1 0x40 MSTORE POP DUP2 ADD SWAP1 PUSH2 0x1F3C SWAP2 SWAP1 PUSH2 0x272C JUMP JUMPDEST PUSH1 0x1 PUSH1 0x1 PUSH1 0xA0 SHL SUB AND PUSH1 0xC0 DUP7 ADD MSTORE PUSH4 0xFFFFFFFF SWAP1 DUP2 AND PUSH1 0xA0 DUP7 ADD MSTORE PUSH1 0xFF SWAP2 DUP3 AND PUSH1 0x60 DUP7 ADD MSTORE SWAP2 AND PUSH1 0x40 DUP5 ADD MSTORE AND PUSH1 0x20 DUP3 ADD MSTORE SWAP3 SWAP2 POP POP JUMP JUMPDEST PUSH1 0x0 DUP2 PUSH1 0xFF AND PUSH1 0x3 EQ ISZERO DUP1 ISZERO PUSH2 0x1F8E JUMPI POP DUP2 PUSH1 0xFF AND PUSH1 0x4 EQ ISZERO JUMPDEST DUP1 ISZERO PUSH2 0x1F9E JUMPI POP DUP2 PUSH1 0xFF AND PUSH1 0x35 EQ ISZERO JUMPDEST DUP1 ISZERO PUSH2 0x1A7E JUMPI POP DUP2 PUSH1 0xFF AND PUSH1 0x36 EQ PUSH2 0x1A8B JUMPI POP PUSH1 0x0 PUSH2 0x52A JUMP JUMPDEST PUSH2 0x1FC0 PUSH2 0xB5B JUMP JUMPDEST ISZERO PUSH2 0x1FDD JUMPI PUSH1 0x40 MLOAD PUSH3 0x461BCD PUSH1 0xE5 SHL DUP2 MSTORE PUSH1 0x4 ADD PUSH2 0x379 SWAP1 PUSH2 0x2C93 JUMP JUMPDEST PUSH1 0x2 DUP1 SLOAD PUSH1 0xFF NOT AND PUSH1 0x1 OR SWAP1 SSTORE PUSH32 0x62E78CEA01BEE320CD4E420270B5EA74000D11B0C9F74754EBDBFC544B05A258 PUSH2 0x1E1E PUSH2 0x19AD JUMP JUMPDEST PUSH1 0x0 PUSH2 0x10FC DUP4 DUP4 PUSH2 0x217F JUMP JUMPDEST PUSH1 0x0 PUSH2 0x10FC DUP4 PUSH1 0x1 PUSH1 0x1 PUSH1 0xA0 SHL SUB DUP5 AND PUSH2 0x21D8 JUMP JUMPDEST PUSH1 0x0 PUSH2 0x10FF DUP3 PUSH2 0x21F0 JUMP JUMPDEST PUSH1 0x0 PUSH2 0x204B DUP4 DUP4 PUSH2 0x21D8 JUMP JUMPDEST PUSH2 0x2081 JUMPI POP DUP2 SLOAD PUSH1 0x1 DUP2 DUP2 ADD DUP5 SSTORE PUSH1 0x0 DUP5 DUP2 MSTORE PUSH1 0x20 DUP1 DUP3 KECCAK256 SWAP1 SWAP4 ADD DUP5 SWAP1 SSTORE DUP5 SLOAD DUP5 DUP3 MSTORE DUP3 DUP7 ADD SWAP1 SWAP4 MSTORE PUSH1 0x40 SWAP1 KECCAK256 SWAP2 SWAP1 SWAP2 SSTORE PUSH2 0x10FF JUMP JUMPDEST POP PUSH1 0x0 PUSH2 0x10FF JUMP JUMPDEST PUSH2 0x2091 PUSH2 0xB5B JUMP JUMPDEST ISZERO PUSH2 0x20AE JUMPI PUSH1 0x40 MLOAD PUSH3 0x461BCD PUSH1 0xE5 SHL DUP2 MSTORE PUSH1 0x4 ADD PUSH2 0x379 SWAP1 PUSH2 0x2C93 JUMP JUMPDEST PUSH1 0x20 DUP2 ADD MLOAD PUSH1 0x1 PUSH1 0x1 PUSH1 0xA0 SHL SUB AND PUSH2 0x20D8 JUMPI PUSH1 0x40 MLOAD PUSH3 0x461BCD PUSH1 0xE5 SHL DUP2 MSTORE PUSH1 0x4 ADD PUSH2 0x379 SWAP1 PUSH2 0x2C4A JUMP JUMPDEST PUSH1 0x40 DUP2 ADD MLOAD PUSH1 0x1 PUSH1 0x1 PUSH1 0xA0 SHL SUB AND PUSH2 0x20FE JUMPI PUSH1 0x20 DUP2 ADD MLOAD PUSH1 0x1 PUSH1 0x1 PUSH1 0xA0 SHL SUB AND PUSH1 0x40 DUP3 ADD MSTORE JUMPDEST PUSH1 0x7 SLOAD PUSH1 0x1 PUSH1 0x1 PUSH1 0xA0 SHL SUB AND PUSH4 0x28DB9DA6 PUSH2 0x2117 PUSH2 0x19AD JUMP JUMPDEST DUP4 PUSH1 0x40 MLOAD DUP4 PUSH4 0xFFFFFFFF AND PUSH1 0xE0 SHL DUP2 MSTORE PUSH1 0x4 ADD PUSH2 0x2135 SWAP3 SWAP2 SWAP1 PUSH2 0x27D8 JUMP JUMPDEST PUSH1 0x0 PUSH1 0x40 MLOAD DUP1 DUP4 SUB DUP2 PUSH1 0x0 DUP8 DUP1 EXTCODESIZE ISZERO DUP1 ISZERO PUSH2 0x214F JUMPI PUSH1 0x0 DUP1 REVERT JUMPDEST POP GAS CALL ISZERO DUP1 ISZERO PUSH2 0x2163 JUMPI RETURNDATASIZE PUSH1 0x0 DUP1 RETURNDATACOPY RETURNDATASIZE PUSH1 0x0 REVERT JUMPDEST POP POP POP POP POP JUMP JUMPDEST PUSH1 0x0 PUSH2 0x10FC DUP4 PUSH1 0x1 PUSH1 0x1 PUSH1 0xA0 SHL SUB DUP5 AND PUSH2 0x21F4 JUMP JUMPDEST DUP2 SLOAD PUSH1 0x0 SWAP1 DUP3 LT PUSH2 0x21A2 JUMPI PUSH1 0x40 MLOAD PUSH3 0x461BCD PUSH1 0xE5 SHL DUP2 MSTORE PUSH1 0x4 ADD PUSH2 0x379 SWAP1 PUSH2 0x28C0 JUMP JUMPDEST DUP3 PUSH1 0x0 ADD DUP3 DUP2 SLOAD DUP2 LT PUSH2 0x21C5 JUMPI PUSH4 0x4E487B71 PUSH1 0xE0 SHL PUSH1 0x0 MSTORE PUSH1 0x32 PUSH1 0x4 MSTORE PUSH1 0x24 PUSH1 0x0 REVERT JUMPDEST SWAP1 PUSH1 0x0 MSTORE PUSH1 0x20 PUSH1 0x0 KECCAK256 ADD SLOAD SWAP1 POP SWAP3 SWAP2 POP POP JUMP JUMPDEST PUSH1 0x0 SWAP1 DUP2 MSTORE PUSH1 0x1 SWAP2 SWAP1 SWAP2 ADD PUSH1 0x20 MSTORE PUSH1 0x40 SWAP1 KECCAK256 SLOAD ISZERO ISZERO SWAP1 JUMP JUMPDEST SLOAD SWAP1 JUMP JUMPDEST PUSH1 0x0 DUP2 DUP2 MSTORE PUSH1 0x1 DUP4 ADD PUSH1 0x20 MSTORE PUSH1 0x40 DUP2 KECCAK256 SLOAD DUP1 ISZERO PUSH2 0x2307 JUMPI PUSH1 0x0 PUSH2 0x2218 PUSH1 0x1 DUP4 PUSH2 0x3288 JUMP JUMPDEST DUP6 SLOAD SWAP1 SWAP2 POP PUSH1 0x0 SWAP1 PUSH2 0x222C SWAP1 PUSH1 0x1 SWAP1 PUSH2 0x3288 JUMP JUMPDEST SWAP1 POP PUSH1 0x0 DUP7 PUSH1 0x0 ADD DUP3 DUP2 SLOAD DUP2 LT PUSH2 0x2253 JUMPI PUSH4 0x4E487B71 PUSH1 0xE0 SHL PUSH1 0x0 MSTORE PUSH1 0x32 PUSH1 0x4 MSTORE PUSH1 0x24 PUSH1 0x0 REVERT JUMPDEST SWAP1 PUSH1 0x0 MSTORE PUSH1 0x20 PUSH1 0x0 KECCAK256 ADD SLOAD SWAP1 POP DUP1 DUP8 PUSH1 0x0 ADD DUP5 DUP2 SLOAD DUP2 LT PUSH2 0x2284 JUMPI PUSH4 0x4E487B71 PUSH1 0xE0 SHL PUSH1 0x0 MSTORE PUSH1 0x32 PUSH1 0x4 MSTORE PUSH1 0x24 PUSH1 0x0 REVERT JUMPDEST PUSH1 0x0 SWAP2 DUP3 MSTORE PUSH1 0x20 SWAP1 SWAP2 KECCAK256 ADD SSTORE PUSH2 0x229B DUP4 PUSH1 0x1 PUSH2 0x3231 JUMP JUMPDEST PUSH1 0x0 DUP3 DUP2 MSTORE PUSH1 0x1 DUP10 ADD PUSH1 0x20 MSTORE PUSH1 0x40 SWAP1 KECCAK256 SSTORE DUP7 SLOAD DUP8 SWAP1 DUP1 PUSH2 0x22CB JUMPI PUSH4 0x4E487B71 PUSH1 0xE0 SHL PUSH1 0x0 MSTORE PUSH1 0x31 PUSH1 0x4 MSTORE PUSH1 0x24 PUSH1 0x0 REVERT JUMPDEST PUSH1 0x1 SWAP1 SUB DUP2 DUP2 SWAP1 PUSH1 0x0 MSTORE PUSH1 0x20 PUSH1 0x0 KECCAK256 ADD PUSH1 0x0 SWAP1 SSTORE SWAP1 SSTORE DUP7 PUSH1 0x1 ADD PUSH1 0x0 DUP8 DUP2 MSTORE PUSH1 0x20 ADD SWAP1 DUP2 MSTORE PUSH1 0x20 ADD PUSH1 0x0 KECCAK256 PUSH1 0x0 SWAP1 SSTORE PUSH1 0x1 SWAP5 POP POP POP POP POP PUSH2 0x10FF JUMP JUMPDEST PUSH1 0x0 SWAP2 POP POP PUSH2 0x10FF JUMP JUMPDEST PUSH1 0x40 DUP1 MLOAD PUSH2 0x160 DUP2 ADD DUP3 MSTORE PUSH1 0x0 DUP1 DUP3 MSTORE PUSH1 0x20 DUP3 ADD DUP2 SWAP1 MSTORE SWAP2 DUP2 ADD DUP3 SWAP1 MSTORE PUSH1 0x60 DUP2 ADD DUP3 SWAP1 MSTORE PUSH1 0x80 DUP2 ADD DUP3 SWAP1 MSTORE PUSH1 0xA0 DUP2 ADD DUP3 SWAP1 MSTORE PUSH1 0xC0 DUP2 ADD DUP3 SWAP1 MSTORE PUSH1 0xE0 DUP2 ADD DUP3 SWAP1 MSTORE PUSH2 0x100 DUP2 ADD DUP3 SWAP1 MSTORE PUSH2 0x120 DUP2 ADD DUP3 SWAP1 MSTORE PUSH2 0x140 DUP2 ADD SWAP2 SWAP1 SWAP2 MSTORE SWAP1 JUMP JUMPDEST PUSH1 0x40 DUP1 MLOAD PUSH1 0xA0 DUP2 ADD DUP3 MSTORE PUSH1 0x0 DUP1 DUP3 MSTORE PUSH1 0x20 DUP3 ADD DUP2 SWAP1 MSTORE SWAP2 DUP2 ADD DUP3 SWAP1 MSTORE PUSH1 0x60 DUP2 ADD DUP3 SWAP1 MSTORE PUSH1 0x80 DUP2 ADD SWAP2 SWAP1 SWAP2 MSTORE SWAP1 JUMP JUMPDEST PUSH1 0x40 DUP1 MLOAD PUSH2 0x120 DUP2 ADD DUP3 MSTORE PUSH1 0x60 DUP1 DUP3 MSTORE PUSH1 0x0 PUSH1 0x20 DUP4 ADD DUP2 SWAP1 MSTORE SWAP3 DUP3 ADD DUP4 SWAP1 MSTORE DUP2 ADD DUP3 SWAP1 MSTORE PUSH1 0x80 DUP2 ADD DUP3 SWAP1 MSTORE PUSH1 0xA0 DUP2 ADD DUP3 SWAP1 MSTORE PUSH1 0xC0 DUP2 ADD DUP3 SWAP1 MSTORE PUSH1 0xE0 DUP2 ADD DUP3 SWAP1 MSTORE PUSH2 0x100 DUP2 ADD SWAP2 SWAP1 SWAP2 MSTORE SWAP1 JUMP JUMPDEST DUP1 MLOAD PUSH15 0xFFFFFFFFFFFFFFFFFFFFFFFFFFFFFF DUP2 AND DUP2 EQ PUSH2 0x52A JUMPI PUSH1 0x0 DUP1 REVERT JUMPDEST DUP1 MLOAD PUSH2 0xFFFF DUP2 AND DUP2 EQ PUSH2 0x52A JUMPI PUSH1 0x0 DUP1 REVERT JUMPDEST DUP1 MLOAD PUSH2 0x52A DUP2 PUSH2 0x32F2 JUMP JUMPDEST DUP1 MLOAD PUSH2 0x52A DUP2 PUSH2 0x3304 JUMP JUMPDEST PUSH1 0x0 PUSH1 0x20 DUP3 DUP5 SUB SLT ISZERO PUSH2 0x243F JUMPI DUP1 DUP2 REVERT JUMPDEST DUP2 CALLDATALOAD PUSH2 0x1A3D DUP2 PUSH2 0x32DA JUMP JUMPDEST PUSH1 0x0 PUSH1 0x20 DUP3 DUP5 SUB SLT ISZERO PUSH2 0x245B JUMPI DUP1 DUP2 REVERT JUMPDEST DUP2 MLOAD PUSH2 0x1A3D DUP2 PUSH2 0x32DA JUMP JUMPDEST PUSH1 0x0 DUP1 PUSH1 0x0 DUP1 PUSH1 0x0 PUSH1 0x80 DUP7 DUP9 SUB SLT ISZERO PUSH2 0x247D JUMPI DUP1 DUP2 REVERT JUMPDEST DUP6 CALLDATALOAD PUSH2 0x2488 DUP2 PUSH2 0x32DA JUMP JUMPDEST SWAP5 POP PUSH1 0x20 DUP7 ADD CALLDATALOAD PUSH2 0x2498 DUP2 PUSH2 0x32DA JUMP JUMPDEST SWAP4 POP PUSH1 0x40 DUP7 ADD CALLDATALOAD SWAP3 POP PUSH1 0x60 DUP7 ADD CALLDATALOAD PUSH8 0xFFFFFFFFFFFFFFFF DUP1 DUP3 GT ISZERO PUSH2 0x24BB JUMPI DUP3 DUP4 REVERT JUMPDEST DUP2 DUP9 ADD SWAP2 POP DUP9 PUSH1 0x1F DUP4 ADD SLT PUSH2 0x24CE JUMPI DUP3 DUP4 REVERT JUMPDEST DUP2 CALLDATALOAD DUP2 DUP2 GT ISZERO PUSH2 0x24DC JUMPI DUP4 DUP5 REVERT JUMPDEST DUP10 PUSH1 0x20 DUP3 DUP6 ADD ADD GT ISZERO PUSH2 0x24ED JUMPI DUP4 DUP5 REVERT JUMPDEST SWAP7 SWAP10 SWAP6 SWAP9 POP SWAP4 SWAP7 POP PUSH1 0x20 ADD SWAP5 SWAP4 SWAP3 POP POP POP JUMP JUMPDEST PUSH1 0x0 DUP1 PUSH1 0x40 DUP4 DUP6 SUB SLT ISZERO PUSH2 0x2512 JUMPI DUP2 DUP3 REVERT JUMPDEST DUP3 CALLDATALOAD PUSH2 0x251D DUP2 PUSH2 0x32DA JUMP JUMPDEST SWAP5 PUSH1 0x20 SWAP4 SWAP1 SWAP4 ADD CALLDATALOAD SWAP4 POP POP POP JUMP JUMPDEST PUSH1 0x0 PUSH1 0x20 DUP3 DUP5 SUB SLT ISZERO PUSH2 0x253C JUMPI DUP1 DUP2 REVERT JUMPDEST POP CALLDATALOAD SWAP2 SWAP1 POP JUMP JUMPDEST PUSH1 0x0 DUP1 PUSH1 0x40 DUP4 DUP6 SUB SLT ISZERO PUSH2 0x2555 JUMPI DUP2 DUP3 REVERT JUMPDEST DUP3 CALLDATALOAD SWAP2 POP PUSH1 0x20 DUP4 ADD CALLDATALOAD PUSH2 0x2567 DUP2 PUSH2 0x32DA JUMP JUMPDEST DUP1 SWAP2 POP POP SWAP3 POP SWAP3 SWAP1 POP JUMP JUMPDEST PUSH1 0x0 DUP1 PUSH1 0x40 DUP4 DUP6 SUB SLT ISZERO PUSH2 0x2584 JUMPI DUP2 DUP3 REVERT JUMPDEST POP POP DUP1 CALLDATALOAD SWAP3 PUSH1 0x20 SWAP1 SWAP2 ADD CALLDATALOAD SWAP2 POP JUMP JUMPDEST PUSH1 0x0 DUP1 PUSH1 0x40 DUP4 DUP6 SUB SLT ISZERO PUSH2 0x25A5 JUMPI DUP2 DUP3 REVERT JUMPDEST DUP3 CALLDATALOAD SWAP2 POP PUSH1 0x20 DUP4 ADD CALLDATALOAD PUSH2 0x2567 DUP2 PUSH2 0x32F2 JUMP JUMPDEST PUSH1 0x0 DUP1 PUSH1 0x40 DUP4 DUP6 SUB SLT ISZERO PUSH2 0x25C9 JUMPI DUP2 DUP3 REVERT JUMPDEST DUP3 CALLDATALOAD SWAP2 POP PUSH1 0x20 DUP4 ADD CALLDATALOAD PUSH2 0x2567 DUP2 PUSH2 0x3304 JUMP JUMPDEST PUSH1 0x0 PUSH1 0xA0 DUP3 DUP5 SUB SLT ISZERO PUSH2 0x25EC JUMPI DUP1 DUP2 REVERT JUMPDEST PUSH2 0x25F6 PUSH1 0xA0 PUSH2 0x31F2 JUMP JUMPDEST DUP3 MLOAD PUSH2 0x2601 DUP2 PUSH2 0x32F2 JUMP JUMPDEST DUP2 MSTORE PUSH1 0x20 DUP4 ADD MLOAD PUSH2 0x2611 DUP2 PUSH2 0x32DA JUMP JUMPDEST PUSH1 0x20 DUP3 ADD MSTORE PUSH1 0x40 DUP4 ADD MLOAD PUSH2 0x2624 DUP2 PUSH2 0x32DA JUMP JUMPDEST PUSH1 0x40 DUP3 ADD MSTORE PUSH1 0x60 DUP4 DUP2 ADD MLOAD SWAP1 DUP3 ADD MSTORE PUSH1 0x80 SWAP3 DUP4 ADD MLOAD SWAP3 DUP2 ADD SWAP3 SWAP1 SWAP3 MSTORE POP SWAP2 SWAP1 POP JUMP JUMPDEST PUSH1 0x0 PUSH2 0x160 DUP1 DUP4 DUP6 SUB SLT ISZERO PUSH2 0x2659 JUMPI DUP2 DUP3 REVERT JUMPDEST PUSH2 0x2662 DUP2 PUSH2 0x31F2 JUMP JUMPDEST SWAP1 POP PUSH2 0x266D DUP4 PUSH2 0x2423 JUMP JUMPDEST DUP2 MSTORE PUSH2 0x267B PUSH1 0x20 DUP5 ADD PUSH2 0x2423 JUMP JUMPDEST PUSH1 0x20 DUP3 ADD MSTORE PUSH2 0x268C PUSH1 0x40 DUP5 ADD PUSH2 0x2423 JUMP JUMPDEST PUSH1 0x40 DUP3 ADD MSTORE PUSH2 0x269D PUSH1 0x60 DUP5 ADD PUSH2 0x2406 JUMP JUMPDEST PUSH1 0x60 DUP3 ADD MSTORE PUSH2 0x26AE PUSH1 0x80 DUP5 ADD PUSH2 0x2418 JUMP JUMPDEST PUSH1 0x80 DUP3 ADD MSTORE PUSH2 0x26BF PUSH1 0xA0 DUP5 ADD PUSH2 0x2418 JUMP JUMPDEST PUSH1 0xA0 DUP3 ADD MSTORE PUSH2 0x26D0 PUSH1 0xC0 DUP5 ADD PUSH2 0x2418 JUMP JUMPDEST PUSH1 0xC0 DUP3 ADD MSTORE PUSH2 0x26E1 PUSH1 0xE0 DUP5 ADD PUSH2 0x23E7 JUMP JUMPDEST PUSH1 0xE0 DUP3 ADD MSTORE PUSH2 0x100 DUP4 DUP2 ADD MLOAD SWAP1 DUP3 ADD MSTORE PUSH2 0x120 DUP1 DUP5 ADD MLOAD SWAP1 DUP3 ADD MSTORE PUSH2 0x140 SWAP3 DUP4 ADD MLOAD SWAP3 DUP2 ADD SWAP3 SWAP1 SWAP3 MSTORE POP SWAP2 SWAP1 POP JUMP JUMPDEST PUSH1 0x0 PUSH1 0x20 DUP3 DUP5 SUB SLT ISZERO PUSH2 0x2721 JUMPI DUP1 DUP2 REVERT JUMPDEST DUP2 MLOAD PUSH2 0x1A3D DUP2 PUSH2 0x32F2 JUMP JUMPDEST PUSH1 0x0 DUP1 PUSH1 0x0 DUP1 PUSH1 0x0 PUSH1 0xA0 DUP7 DUP9 SUB SLT ISZERO PUSH2 0x2743 JUMPI DUP3 DUP4 REVERT JUMPDEST DUP6 MLOAD PUSH2 0x274E DUP2 PUSH2 0x32F2 JUMP JUMPDEST PUSH1 0x20 DUP8 ADD MLOAD SWAP1 SWAP6 POP PUSH2 0x275F DUP2 PUSH2 0x3304 JUMP JUMPDEST PUSH1 0x40 DUP8 ADD MLOAD SWAP1 SWAP5 POP PUSH2 0x2770 DUP2 PUSH2 0x3304 JUMP JUMPDEST PUSH1 0x60 DUP8 ADD MLOAD SWAP1 SWAP4 POP PUSH2 0x2781 DUP2 PUSH2 0x32F2 JUMP JUMPDEST PUSH1 0x80 DUP8 ADD MLOAD SWAP1 SWAP3 POP PUSH2 0x2792 DUP2 PUSH2 0x32DA JUMP JUMPDEST DUP1 SWAP2 POP POP SWAP3 SWAP6 POP SWAP3 SWAP6 SWAP1 SWAP4 POP JUMP JUMPDEST PUSH1 0x1 PUSH1 0x1 PUSH1 0xA0 SHL SUB SWAP2 SWAP1 SWAP2 AND DUP2 MSTORE PUSH1 0x20 ADD SWAP1 JUMP JUMPDEST PUSH1 0x1 PUSH1 0x1 PUSH1 0xA0 SHL SUB SWAP4 DUP5 AND DUP2 MSTORE SWAP2 SWAP1 SWAP3 AND PUSH1 0x20 DUP3 ADD MSTORE PUSH1 0x40 DUP2 ADD SWAP2 SWAP1 SWAP2 MSTORE PUSH1 0x60 ADD SWAP1 JUMP JUMPDEST PUSH1 0x1 PUSH1 0x1 PUSH1 0xA0 SHL SUB SWAP3 DUP4 AND DUP2 MSTORE DUP2 MLOAD PUSH4 0xFFFFFFFF AND PUSH1 0x20 DUP1 DUP4 ADD SWAP2 SWAP1 SWAP2 MSTORE DUP3 ADD MLOAD DUP4 AND PUSH1 0x40 DUP1 DUP4 ADD SWAP2 SWAP1 SWAP2 MSTORE DUP3 ADD MLOAD SWAP1 SWAP3 AND PUSH1 0x60 DUP1 DUP5 ADD SWAP2 SWAP1 SWAP2 MSTORE DUP2 ADD MLOAD PUSH1 0x80 DUP1 DUP5 ADD SWAP2 SWAP1 SWAP2 MSTORE ADD MLOAD PUSH1 0xA0 DUP3 ADD MSTORE PUSH1 0xC0 ADD SWAP1 JUMP JUMPDEST SWAP1 ISZERO ISZERO DUP2 MSTORE PUSH1 0x20 ADD SWAP1 JUMP JUMPDEST SWAP1 DUP2 MSTORE PUSH1 0x20 ADD SWAP1 JUMP JUMPDEST SWAP2 DUP3 MSTORE PUSH1 0x20 DUP3 ADD MSTORE PUSH1 0x40 ADD SWAP1 JUMP JUMPDEST SWAP6 DUP7 MSTORE PUSH1 0x20 DUP7 ADD SWAP5 SWAP1 SWAP5 MSTORE PUSH1 0xFF SWAP3 DUP4 AND PUSH1 0x40 DUP7 ADD MSTORE PUSH4 0xFFFFFFFF SWAP2 SWAP1 SWAP2 AND PUSH1 0x60 DUP6 ADD MSTORE AND PUSH1 0x80 DUP4 ADD MSTORE PUSH2 0xFFFF AND PUSH1 0xA0 DUP3 ADD MSTORE PUSH1 0xC0 ADD SWAP1 JUMP JUMPDEST SWAP2 DUP3 MSTORE PUSH4 0xFFFFFFFF AND PUSH1 0x20 DUP3 ADD MSTORE PUSH1 0x40 ADD SWAP1 JUMP JUMPDEST SWAP2 DUP3 MSTORE PUSH1 0xFF AND PUSH1 0x20 DUP3 ADD MSTORE PUSH1 0x40 ADD SWAP1 JUMP JUMPDEST PUSH1 0x1 PUSH1 0x1 PUSH1 0xE0 SHL SUB NOT SWAP2 SWAP1 SWAP2 AND DUP2 MSTORE PUSH1 0x20 ADD SWAP1 JUMP JUMPDEST PUSH1 0x20 DUP1 DUP3 MSTORE PUSH1 0x22 SWAP1 DUP3 ADD MSTORE PUSH32 0x456E756D657261626C655365743A20696E646578206F7574206F6620626F756E PUSH1 0x40 DUP3 ADD MSTORE PUSH2 0x6473 PUSH1 0xF0 SHL PUSH1 0x60 DUP3 ADD MSTORE PUSH1 0x80 ADD SWAP1 JUMP JUMPDEST PUSH1 0x20 DUP1 DUP3 MSTORE PUSH1 0x27 SWAP1 DUP3 ADD MSTORE PUSH32 0x423A4D4F443A2D4941444D2063616C6C65722021434F4E54524143545F41444D PUSH1 0x40 DUP3 ADD MSTORE PUSH7 0x494E5F524F4C45 PUSH1 0xC8 SHL PUSH1 0x60 DUP3 ADD MSTORE PUSH1 0x80 ADD SWAP1 JUMP JUMPDEST PUSH1 0x20 DUP1 DUP3 MSTORE PUSH1 0x2F SWAP1 DUP3 ADD MSTORE PUSH32 0x416363657373436F6E74726F6C3A2073656E646572206D75737420626520616E PUSH1 0x40 DUP3 ADD MSTORE PUSH15 0x818591B5A5B881D1BC819DC985B9D PUSH1 0x8A SHL PUSH1 0x60 DUP3 ADD MSTORE PUSH1 0x80 ADD SWAP1 JUMP JUMPDEST PUSH1 0x20 DUP1 DUP3 MSTORE PUSH1 0x14 SWAP1 DUP3 ADD MSTORE PUSH20 0x14185D5CD8589B194E881B9BDD081C185D5CD959 PUSH1 0x62 SHL PUSH1 0x40 DUP3 ADD MSTORE PUSH1 0x60 ADD SWAP1 JUMP JUMPDEST PUSH1 0x20 DUP1 DUP3 MSTORE PUSH1 0x3E SWAP1 DUP3 ADD MSTORE PUSH32 0x4E504E433A44433A205265636F726420696E20756E726567697374657265642C PUSH1 0x40 DUP3 ADD MSTORE PUSH32 0x206578706F727465642C206F7220646973636172646564207374617475730000 PUSH1 0x60 DUP3 ADD MSTORE PUSH1 0x80 ADD SWAP1 JUMP JUMPDEST PUSH1 0x20 DUP1 DUP3 MSTORE PUSH1 0x13 SWAP1 DUP3 ADD MSTORE PUSH19 0x13941390CE9354CE8814DD185D08149CDC9D99 PUSH1 0x6A SHL PUSH1 0x40 DUP3 ADD MSTORE PUSH1 0x60 ADD SWAP1 JUMP JUMPDEST PUSH1 0x20 DUP1 DUP3 MSTORE PUSH1 0x3 SWAP1 DUP3 ADD MSTORE PUSH3 0x41505 PUSH1 0xEC SHL PUSH1 0x40 DUP3 ADD MSTORE PUSH1 0x60 ADD SWAP1 JUMP JUMPDEST PUSH1 0x20 DUP1 DUP3 MSTORE PUSH1 0x51 SWAP1 DUP3 ADD MSTORE PUSH32 0x4E504E433A534C533A205472616E736665727265642C6578706F727465642C6F PUSH1 0x40 DUP3 ADD MSTORE PUSH32 0x72206469736361726465642061737365742063616E6E6F742062652073657420 PUSH1 0x60 DUP3 ADD MSTORE PUSH17 0x3A37903637B9BA1037B91039BA37B632B7 PUSH1 0x79 SHL PUSH1 0x80 DUP3 ADD MSTORE PUSH1 0xA0 ADD SWAP1 JUMP JUMPDEST PUSH1 0x20 DUP1 DUP3 MSTORE PUSH1 0x4 SWAP1 DUP3 ADD MSTORE PUSH4 0x2921A629 PUSH1 0xE1 SHL PUSH1 0x40 DUP3 ADD MSTORE PUSH1 0x60 ADD SWAP1 JUMP JUMPDEST PUSH1 0x20 DUP1 DUP3 MSTORE PUSH1 0x3F SWAP1 DUP3 ADD MSTORE PUSH32 0x4E504E433A534C533A204F6E6C7920637573746F6469616C2075736572747970 PUSH1 0x40 DUP3 ADD MSTORE PUSH32 0x652063616E20736574206F72206368616E676520737461747573203C20353000 PUSH1 0x60 DUP3 ADD MSTORE PUSH1 0x80 ADD SWAP1 JUMP JUMPDEST PUSH1 0x20 DUP1 DUP3 MSTORE PUSH1 0x35 SWAP1 DUP3 ADD MSTORE PUSH32 0x4E504E433A43523A2043616E6E6F74206D6F6469667920617373657420696E20 PUSH1 0x40 DUP3 ADD MSTORE PUSH21 0x6C6F7374206F722073746F6C656E20737461747573 PUSH1 0x58 SHL PUSH1 0x60 DUP3 ADD MSTORE PUSH1 0x80 ADD SWAP1 JUMP JUMPDEST PUSH1 0x20 DUP1 DUP3 MSTORE PUSH1 0x30 SWAP1 DUP3 ADD MSTORE PUSH32 0x416363657373436F6E74726F6C3A2073656E646572206D75737420626520616E PUSH1 0x40 DUP3 ADD MSTORE PUSH16 0x2061646D696E20746F207265766F6B65 PUSH1 0x80 SHL PUSH1 0x60 DUP3 ADD MSTORE PUSH1 0x80 ADD SWAP1 JUMP JUMPDEST PUSH1 0x20 DUP1 DUP3 MSTORE PUSH1 0x26 SWAP1 DUP3 ADD MSTORE PUSH32 0x423A4D4F442D49503A43616C6C696E672061646472657373206973206E6F7420 PUSH1 0x40 DUP3 ADD MSTORE PUSH6 0x3830BAB9B2B9 PUSH1 0xD1 SHL PUSH1 0x60 DUP3 ADD MSTORE PUSH1 0x80 ADD SWAP1 JUMP JUMPDEST PUSH1 0x20 DUP1 DUP3 MSTORE PUSH1 0x29 SWAP1 DUP3 ADD MSTORE PUSH32 0x433A44503A20726F6F74207061796D656E7420616472657373206973207A6572 PUSH1 0x40 DUP3 ADD MSTORE PUSH9 0x6F2061646472657373 PUSH1 0xB8 SHL PUSH1 0x60 DUP3 ADD MSTORE PUSH1 0x80 ADD SWAP1 JUMP JUMPDEST PUSH1 0x20 DUP1 DUP3 MSTORE PUSH1 0x10 SWAP1 DUP3 ADD MSTORE PUSH16 0x14185D5CD8589B194E881C185D5CD959 PUSH1 0x82 SHL PUSH1 0x40 DUP3 ADD MSTORE PUSH1 0x60 ADD SWAP1 JUMP JUMPDEST PUSH1 0x20 DUP1 DUP3 MSTORE PUSH1 0x1E SWAP1 DUP3 ADD MSTORE PUSH32 0x423A54583A4D75737420686176652041535345545F545846525F524F4C450000 PUSH1 0x40 DUP3 ADD MSTORE PUSH1 0x60 ADD SWAP1 JUMP JUMPDEST PUSH1 0x20 DUP1 DUP3 MSTORE PUSH1 0x5 SWAP1 DUP3 ADD MSTORE PUSH5 0x20AFAA25A7 PUSH1 0xD9 SHL PUSH1 0x40 DUP3 ADD MSTORE PUSH1 0x60 ADD SWAP1 JUMP JUMPDEST PUSH1 0x20 DUP1 DUP3 MSTORE PUSH1 0x3F SWAP1 DUP3 ADD MSTORE PUSH32 0x4E504E433A4D49313A205265636F726420696E20756E72656769737465726564 PUSH1 0x40 DUP3 ADD MSTORE PUSH32 0x2C206578706F727465642C206F72206469736361726465642073746174757300 PUSH1 0x60 DUP3 ADD MSTORE PUSH1 0x80 ADD SWAP1 JUMP JUMPDEST PUSH1 0x20 DUP1 DUP3 MSTORE PUSH1 0x27 SWAP1 DUP3 ADD MSTORE PUSH32 0x4E504E433A4D4F442D49413A2043616C6C657220646F6573206E6F7420686F6C PUSH1 0x40 DUP3 ADD MSTORE PUSH7 0x32103A37B5B2B7 PUSH1 0xC9 SHL PUSH1 0x60 DUP3 ADD MSTORE PUSH1 0x80 ADD SWAP1 JUMP JUMPDEST PUSH1 0x20 DUP1 DUP3 MSTORE PUSH1 0x12 SWAP1 DUP3 ADD MSTORE PUSH18 0x423A5353433A2041646472657373203D203 PUSH1 0x74 SHL PUSH1 0x40 DUP3 ADD MSTORE PUSH1 0x60 ADD SWAP1 JUMP JUMPDEST PUSH1 0x20 DUP1 DUP3 MSTORE PUSH1 0x4E SWAP1 DUP3 ADD MSTORE PUSH32 0x4E504E433A45583A20526573747269637465642066726F6D206578706F727469 PUSH1 0x40 DUP3 ADD MSTORE PUSH32 0x6E67206173736574732066726F6D2074686973204143202D20646F6573206E6F PUSH1 0x60 DUP3 ADD MSTORE PUSH14 0x3A103437B6321020A1BA37B5B2B7 PUSH1 0x91 SHL PUSH1 0x80 DUP3 ADD MSTORE PUSH1 0xA0 ADD SWAP1 JUMP JUMPDEST PUSH1 0x20 DUP1 DUP3 MSTORE PUSH1 0x6 SWAP1 DUP3 ADD MSTORE PUSH6 0x20A1AFAA25A7 PUSH1 0xD1 SHL PUSH1 0x40 DUP3 ADD MSTORE PUSH1 0x60 ADD SWAP1 JUMP JUMPDEST PUSH1 0x20 DUP1 DUP3 MSTORE PUSH1 0x2D SWAP1 DUP3 ADD MSTORE PUSH32 0x4E504E433A45583A204D75737420626520696E207472616E736665727261626C PUSH1 0x40 DUP3 ADD MSTORE PUSH13 0x65207374617475732028353129 PUSH1 0x98 SHL PUSH1 0x60 DUP3 ADD MSTORE PUSH1 0x80 ADD SWAP1 JUMP JUMPDEST PUSH1 0x20 DUP1 DUP3 MSTORE PUSH1 0x32 SWAP1 DUP3 ADD MSTORE PUSH32 0x433A4453433A696E76616C696420646973636F756E742076616C756520666F72 PUSH1 0x40 DUP3 ADD MSTORE PUSH18 0x10383934B1B29031B0B631BAB630BA34B7B7 PUSH1 0x71 SHL PUSH1 0x60 DUP3 ADD MSTORE PUSH1 0x80 ADD SWAP1 JUMP JUMPDEST PUSH1 0x20 DUP1 DUP3 MSTORE PUSH1 0x6 SWAP1 DUP3 ADD MSTORE PUSH6 0x4150505F4E43 PUSH1 0xD0 SHL PUSH1 0x40 DUP3 ADD MSTORE PUSH1 0x60 ADD SWAP1 JUMP JUMPDEST PUSH1 0x20 DUP1 DUP3 MSTORE PUSH1 0x44 SWAP1 DUP3 ADD MSTORE PUSH32 0x4E504E433A4D533A20417373657420697320696E20616E20756E726567697374 PUSH1 0x40 DUP3 ADD MSTORE PUSH32 0x657265642C206578706F727465642C206F722064697363617264656420737461 PUSH1 0x60 DUP3 ADD MSTORE PUSH4 0x3A3AB997 PUSH1 0xE1 SHL PUSH1 0x80 DUP3 ADD MSTORE PUSH1 0xA0 ADD SWAP1 JUMP JUMPDEST PUSH1 0x20 DUP1 DUP3 MSTORE PUSH1 0x5A SWAP1 DUP3 ADD MSTORE PUSH32 0x4E504E433A4D533A2043616E6E6F7420706C61636520617373657420696E2075 PUSH1 0x40 DUP3 ADD MSTORE PUSH32 0x6E726567697374657265642C206578706F727465642C206F7220646973636172 PUSH1 0x60 DUP3 ADD MSTORE PUSH32 0x64656420737461747573207573696E67206D6F64537461747573000000000000 PUSH1 0x80 DUP3 ADD MSTORE PUSH1 0xA0 ADD SWAP1 JUMP JUMPDEST PUSH1 0x20 DUP1 DUP3 MSTORE PUSH1 0x6 SWAP1 DUP3 ADD MSTORE PUSH6 0x24A22FAA25A7 PUSH1 0xD1 SHL PUSH1 0x40 DUP3 ADD MSTORE PUSH1 0x60 ADD SWAP1 JUMP JUMPDEST PUSH1 0x20 DUP1 DUP3 MSTORE PUSH1 0x7 SWAP1 DUP3 ADD MSTORE PUSH7 0x22A1A92FA6A3A9 PUSH1 0xC9 SHL PUSH1 0x40 DUP3 ADD MSTORE PUSH1 0x60 ADD SWAP1 JUMP JUMPDEST PUSH1 0x20 DUP1 DUP3 MSTORE PUSH1 0x2 SWAP1 DUP3 ADD MSTORE PUSH2 0x4E5 PUSH1 0xF4 SHL PUSH1 0x40 DUP3 ADD MSTORE PUSH1 0x60 ADD SWAP1 JUMP JUMPDEST PUSH1 0x20 DUP1 DUP3 MSTORE PUSH1 0x1F SWAP1 DUP3 ADD MSTORE PUSH32 0x5265656E7472616E637947756172643A207265656E7472616E742063616C6C00 PUSH1 0x40 DUP3 ADD MSTORE PUSH1 0x60 ADD SWAP1 JUMP JUMPDEST PUSH1 0x20 DUP1 DUP3 MSTORE PUSH1 0x8 SWAP1 DUP3 ADD MSTORE PUSH8 0x2AAA24A62FAA25A7 PUSH1 0xC1 SHL PUSH1 0x40 DUP3 ADD MSTORE PUSH1 0x60 ADD SWAP1 JUMP JUMPDEST PUSH1 0x20 DUP1 DUP3 MSTORE PUSH1 0x6 SWAP1 DUP3 ADD MSTORE PUSH6 0x20A1AFA6A3A9 PUSH1 0xD1 SHL PUSH1 0x40 DUP3 ADD MSTORE PUSH1 0x60 ADD SWAP1 JUMP JUMPDEST PUSH1 0x20 DUP1 DUP3 MSTORE PUSH1 0x4B SWAP1 DUP3 ADD MSTORE PUSH32 0x4E504E433A43523A2043616E6E6F74206D6F6469667920617373657420696E20 PUSH1 0x40 DUP3 ADD MSTORE PUSH32 0x756E726567697374657265642C206578706F727465642C206F72206469736361 PUSH1 0x60 DUP3 ADD MSTORE PUSH11 0x7264656420737461747573 PUSH1 0xA8 SHL PUSH1 0x80 DUP3 ADD MSTORE PUSH1 0xA0 ADD SWAP1 JUMP JUMPDEST PUSH1 0x20 DUP1 DUP3 MSTORE PUSH1 0x2F SWAP1 DUP3 ADD MSTORE PUSH32 0x416363657373436F6E74726F6C3A2063616E206F6E6C792072656E6F756E6365 PUSH1 0x40 DUP3 ADD MSTORE PUSH15 0x103937B632B9903337B91039B2B633 PUSH1 0x89 SHL PUSH1 0x60 DUP3 ADD MSTORE PUSH1 0x80 ADD SWAP1 JUMP JUMPDEST PUSH4 0xFFFFFFFF SWAP2 SWAP1 SWAP2 AND DUP2 MSTORE PUSH1 0x20 ADD SWAP1 JUMP JUMPDEST PUSH4 0xFFFFFFFF SWAP3 SWAP1 SWAP3 AND DUP3 MSTORE PUSH2 0xFFFF AND PUSH1 0x20 DUP3 ADD MSTORE PUSH1 0x40 ADD SWAP1 JUMP JUMPDEST PUSH1 0xFF SWAP2 SWAP1 SWAP2 AND DUP2 MSTORE PUSH1 0x20 ADD SWAP1 JUMP JUMPDEST PUSH1 0x40 MLOAD PUSH1 0x1F DUP3 ADD PUSH1 0x1F NOT AND DUP2 ADD PUSH8 0xFFFFFFFFFFFFFFFF DUP2 GT DUP3 DUP3 LT OR ISZERO PUSH2 0x3229 JUMPI PUSH4 0x4E487B71 PUSH1 0xE0 SHL PUSH1 0x0 MSTORE PUSH1 0x41 PUSH1 0x4 MSTORE PUSH1 0x24 PUSH1 0x0 REVERT JUMPDEST PUSH1 0x40 MSTORE SWAP2 SWAP1 POP JUMP JUMPDEST PUSH1 0x0 DUP3 NOT DUP3 GT ISZERO PUSH2 0x3244 JUMPI PUSH2 0x3244 PUSH2 0x32C4 JUMP JUMPDEST POP ADD SWAP1 JUMP JUMPDEST PUSH1 0x0 DUP3 PUSH2 0x3264 JUMPI PUSH4 0x4E487B71 PUSH1 0xE0 SHL DUP2 MSTORE PUSH1 0x12 PUSH1 0x4 MSTORE PUSH1 0x24 DUP2 REVERT JUMPDEST POP DIV SWAP1 JUMP JUMPDEST PUSH1 0x0 DUP2 PUSH1 0x0 NOT DIV DUP4 GT DUP3 ISZERO ISZERO AND ISZERO PUSH2 0x3283 JUMPI PUSH2 0x3283 PUSH2 0x32C4 JUMP JUMPDEST POP MUL SWAP1 JUMP JUMPDEST PUSH1 0x0 DUP3 DUP3 LT ISZERO PUSH2 0x329A JUMPI PUSH2 0x329A PUSH2 0x32C4 JUMP JUMPDEST POP SUB SWAP1 JUMP JUMPDEST PUSH1 0x0 PUSH4 0xFFFFFFFF DUP4 DUP2 AND SWAP1 DUP4 AND DUP2 DUP2 LT ISZERO PUSH2 0x32BC JUMPI PUSH2 0x32BC PUSH2 0x32C4 JUMP JUMPDEST SUB SWAP4 SWAP3 POP POP POP JUMP JUMPDEST PUSH4 0x4E487B71 PUSH1 0xE0 SHL PUSH1 0x0 MSTORE PUSH1 0x11 PUSH1 0x4 MSTORE PUSH1 0x24 PUSH1 0x0 REVERT JUMPDEST PUSH1 0x1 PUSH1 0x1 PUSH1 0xA0 SHL SUB DUP2 AND DUP2 EQ PUSH2 0x32EF JUMPI PUSH1 0x0 DUP1 REVERT JUMPDEST POP JUMP JUMPDEST PUSH4 0xFFFFFFFF DUP2 AND DUP2 EQ PUSH2 0x32EF JUMPI PUSH1 0x0 DUP1 REVERT JUMPDEST PUSH1 0xFF DUP2 AND DUP2 EQ PUSH2 0x32EF JUMPI PUSH1 0x0 DUP1 REVERT INVALID 0x2C 0xE8 0xD0 0x4A SWAP13 CALLDATALOAD SWAP9 PUSH21 0x29AF538825CD2438CC5C5BB5DC427955F84DAAA3EA LT POP AND LOG2 PUSH5 0x6970667358 0x22 SLT KECCAK256 0xAA 0xD2 JUMPI 0x4C 0xB2 DIFFICULTY LOG3 0xC5 0xE9 0xE9 0xC5 0xE4 PUSH17 0x25FBFE46394EB99182539CE1DC3AD31CF6 SMOD 0xF PUSH5 0x736F6C6343 STOP ADDMOD ADD STOP CALLER "
		},
		"gasEstimates": {
			"creation": {
				"codeDepositCost": "2632200",
				"executionCost": "infinite",
				"totalCost": "infinite"
			},
			"external": {
				"ASSET_TXFR_ROLE()": "274",
				"CONTRACT_ADMIN_ROLE()": "infinite",
				"DEFAULT_ADMIN_ROLE()": "295",
				"OO_resolveContractAddresses()": "infinite",
				"OO_setStorageContract(address)": "infinite",
				"OO_transferACToken(address,uint256)": "infinite",
				"PAUSER_ROLE()": "316",
				"_changeRgt(bytes32,bytes32)": "infinite",
				"_decCounter(bytes32,uint32)": "infinite",
				"_exportNC(bytes32)": "infinite",
				"_modIpfs1(bytes32,bytes32)": "infinite",
				"_modStatus(bytes32,uint8)": "infinite",
				"_setLostOrStolen(bytes32,uint8)": "infinite",
				"getRoleAdmin(bytes32)": "1295",
				"getRoleMember(bytes32,uint256)": "infinite",
				"getRoleMemberCount(bytes32)": "infinite",
				"grantRole(bytes32,address)": "infinite",
				"hasRole(bytes32,address)": "infinite",
				"onERC721Received(address,address,uint256,bytes)": "infinite",
				"pause()": "infinite",
				"paused()": "1173",
				"renounceRole(bytes32,address)": "infinite",
				"revokeRole(bytes32,address)": "infinite",
				"transferAssetToken(address,bytes32)": "infinite",
				"unpause()": "infinite"
			}
		},
		"methodIdentifiers": {
			"ASSET_TXFR_ROLE()": "1429db5f",
			"CONTRACT_ADMIN_ROLE()": "1da03312",
			"DEFAULT_ADMIN_ROLE()": "a217fddf",
			"OO_resolveContractAddresses()": "e8b41653",
			"OO_setStorageContract(address)": "d6b02ecf",
			"OO_transferACToken(address,uint256)": "92ba3da6",
			"PAUSER_ROLE()": "e63ab1e9",
			"_changeRgt(bytes32,bytes32)": "6580bcce",
			"_decCounter(bytes32,uint32)": "90073492",
			"_exportNC(bytes32)": "54de4a3f",
			"_modIpfs1(bytes32,bytes32)": "062cf11f",
			"_modStatus(bytes32,uint8)": "52c8fc88",
			"_setLostOrStolen(bytes32,uint8)": "7698f98b",
			"getRoleAdmin(bytes32)": "248a9ca3",
			"getRoleMember(bytes32,uint256)": "9010d07c",
			"getRoleMemberCount(bytes32)": "ca15c873",
			"grantRole(bytes32,address)": "2f2ff15d",
			"hasRole(bytes32,address)": "91d14854",
			"onERC721Received(address,address,uint256,bytes)": "150b7a02",
			"pause()": "8456cb59",
			"paused()": "5c975abb",
			"renounceRole(bytes32,address)": "36568abe",
			"revokeRole(bytes32,address)": "d547741f",
			"transferAssetToken(address,bytes32)": "440e7a7e",
			"unpause()": "3f4ba83a"
		}
	},
	"abi": [
		{
			"anonymous": false,
			"inputs": [
				{
					"indexed": false,
					"internalType": "address",
					"name": "account",
					"type": "address"
				}
			],
			"name": "Paused",
			"type": "event"
		},
		{
			"anonymous": false,
			"inputs": [
				{
					"indexed": false,
					"internalType": "string",
					"name": "_msg",
					"type": "string"
				}
			],
			"name": "REPORT",
			"type": "event"
		},
		{
			"anonymous": false,
			"inputs": [
				{
					"indexed": true,
					"internalType": "bytes32",
					"name": "role",
					"type": "bytes32"
				},
				{
					"indexed": true,
					"internalType": "bytes32",
					"name": "previousAdminRole",
					"type": "bytes32"
				},
				{
					"indexed": true,
					"internalType": "bytes32",
					"name": "newAdminRole",
					"type": "bytes32"
				}
			],
			"name": "RoleAdminChanged",
			"type": "event"
		},
		{
			"anonymous": false,
			"inputs": [
				{
					"indexed": true,
					"internalType": "bytes32",
					"name": "role",
					"type": "bytes32"
				},
				{
					"indexed": true,
					"internalType": "address",
					"name": "account",
					"type": "address"
				},
				{
					"indexed": true,
					"internalType": "address",
					"name": "sender",
					"type": "address"
				}
			],
			"name": "RoleGranted",
			"type": "event"
		},
		{
			"anonymous": false,
			"inputs": [
				{
					"indexed": true,
					"internalType": "bytes32",
					"name": "role",
					"type": "bytes32"
				},
				{
					"indexed": true,
					"internalType": "address",
					"name": "account",
					"type": "address"
				},
				{
					"indexed": true,
					"internalType": "address",
					"name": "sender",
					"type": "address"
				}
			],
			"name": "RoleRevoked",
			"type": "event"
		},
		{
			"anonymous": false,
			"inputs": [
				{
					"indexed": false,
					"internalType": "address",
					"name": "account",
					"type": "address"
				}
			],
			"name": "Unpaused",
			"type": "event"
		},
		{
			"inputs": [],
			"name": "ASSET_TXFR_ROLE",
			"outputs": [
				{
					"internalType": "bytes32",
					"name": "",
					"type": "bytes32"
				}
			],
			"stateMutability": "view",
			"type": "function"
		},
		{
			"inputs": [],
			"name": "CONTRACT_ADMIN_ROLE",
			"outputs": [
				{
					"internalType": "bytes32",
					"name": "",
					"type": "bytes32"
				}
			],
			"stateMutability": "view",
			"type": "function"
		},
		{
			"inputs": [],
			"name": "DEFAULT_ADMIN_ROLE",
			"outputs": [
				{
					"internalType": "bytes32",
					"name": "",
					"type": "bytes32"
				}
			],
			"stateMutability": "view",
			"type": "function"
		},
		{
			"inputs": [],
			"name": "OO_resolveContractAddresses",
			"outputs": [],
			"stateMutability": "nonpayable",
			"type": "function"
		},
		{
			"inputs": [
				{
					"internalType": "address",
					"name": "_storageAddress",
					"type": "address"
				}
			],
			"name": "OO_setStorageContract",
			"outputs": [],
			"stateMutability": "nonpayable",
			"type": "function"
		},
		{
			"inputs": [
				{
					"internalType": "address",
					"name": "_to",
					"type": "address"
				},
				{
					"internalType": "uint256",
					"name": "_tokenID",
					"type": "uint256"
				}
			],
			"name": "OO_transferACToken",
			"outputs": [],
			"stateMutability": "nonpayable",
			"type": "function"
		},
		{
			"inputs": [],
			"name": "PAUSER_ROLE",
			"outputs": [
				{
					"internalType": "bytes32",
					"name": "",
					"type": "bytes32"
				}
			],
			"stateMutability": "view",
			"type": "function"
		},
		{
			"inputs": [
				{
					"internalType": "bytes32",
					"name": "_idxHash",
					"type": "bytes32"
				},
				{
					"internalType": "bytes32",
					"name": "_newRgtHash",
					"type": "bytes32"
				}
			],
			"name": "_changeRgt",
			"outputs": [
				{
					"internalType": "bytes32",
					"name": "",
					"type": "bytes32"
				}
			],
			"stateMutability": "nonpayable",
			"type": "function"
		},
		{
			"inputs": [
				{
					"internalType": "bytes32",
					"name": "_idxHash",
					"type": "bytes32"
				},
				{
					"internalType": "uint32",
					"name": "_decAmount",
					"type": "uint32"
				}
			],
			"name": "_decCounter",
			"outputs": [
				{
					"internalType": "uint32",
					"name": "",
					"type": "uint32"
				}
			],
			"stateMutability": "nonpayable",
			"type": "function"
		},
		{
			"inputs": [
				{
					"internalType": "bytes32",
					"name": "_idxHash",
					"type": "bytes32"
				}
			],
			"name": "_exportNC",
			"outputs": [],
			"stateMutability": "nonpayable",
			"type": "function"
		},
		{
			"inputs": [
				{
					"internalType": "bytes32",
					"name": "_idxHash",
					"type": "bytes32"
				},
				{
					"internalType": "bytes32",
					"name": "_IpfsHash",
					"type": "bytes32"
				}
			],
			"name": "_modIpfs1",
			"outputs": [
				{
					"internalType": "bytes32",
					"name": "",
					"type": "bytes32"
				}
			],
			"stateMutability": "nonpayable",
			"type": "function"
		},
		{
			"inputs": [
				{
					"internalType": "bytes32",
					"name": "_idxHash",
					"type": "bytes32"
				},
				{
					"internalType": "uint8",
					"name": "_newAssetStatus",
					"type": "uint8"
				}
			],
			"name": "_modStatus",
			"outputs": [
				{
					"internalType": "uint8",
					"name": "",
					"type": "uint8"
				}
			],
			"stateMutability": "nonpayable",
			"type": "function"
		},
		{
			"inputs": [
				{
					"internalType": "bytes32",
					"name": "_idxHash",
					"type": "bytes32"
				},
				{
					"internalType": "uint8",
					"name": "_newAssetStatus",
					"type": "uint8"
				}
			],
			"name": "_setLostOrStolen",
			"outputs": [
				{
					"internalType": "uint8",
					"name": "",
					"type": "uint8"
				}
			],
			"stateMutability": "nonpayable",
			"type": "function"
		},
		{
			"inputs": [
				{
					"internalType": "bytes32",
					"name": "role",
					"type": "bytes32"
				}
			],
			"name": "getRoleAdmin",
			"outputs": [
				{
					"internalType": "bytes32",
					"name": "",
					"type": "bytes32"
				}
			],
			"stateMutability": "view",
			"type": "function"
		},
		{
			"inputs": [
				{
					"internalType": "bytes32",
					"name": "role",
					"type": "bytes32"
				},
				{
					"internalType": "uint256",
					"name": "index",
					"type": "uint256"
				}
			],
			"name": "getRoleMember",
			"outputs": [
				{
					"internalType": "address",
					"name": "",
					"type": "address"
				}
			],
			"stateMutability": "view",
			"type": "function"
		},
		{
			"inputs": [
				{
					"internalType": "bytes32",
					"name": "role",
					"type": "bytes32"
				}
			],
			"name": "getRoleMemberCount",
			"outputs": [
				{
					"internalType": "uint256",
					"name": "",
					"type": "uint256"
				}
			],
			"stateMutability": "view",
			"type": "function"
		},
		{
			"inputs": [
				{
					"internalType": "bytes32",
					"name": "role",
					"type": "bytes32"
				},
				{
					"internalType": "address",
					"name": "account",
					"type": "address"
				}
			],
			"name": "grantRole",
			"outputs": [],
			"stateMutability": "nonpayable",
			"type": "function"
		},
		{
			"inputs": [
				{
					"internalType": "bytes32",
					"name": "role",
					"type": "bytes32"
				},
				{
					"internalType": "address",
					"name": "account",
					"type": "address"
				}
			],
			"name": "hasRole",
			"outputs": [
				{
					"internalType": "bool",
					"name": "",
					"type": "bool"
				}
			],
			"stateMutability": "view",
			"type": "function"
		},
		{
			"inputs": [
				{
					"internalType": "address",
					"name": "",
					"type": "address"
				},
				{
					"internalType": "address",
					"name": "",
					"type": "address"
				},
				{
					"internalType": "uint256",
					"name": "",
					"type": "uint256"
				},
				{
					"internalType": "bytes",
					"name": "",
					"type": "bytes"
				}
			],
			"name": "onERC721Received",
			"outputs": [
				{
					"internalType": "bytes4",
					"name": "",
					"type": "bytes4"
				}
			],
			"stateMutability": "nonpayable",
			"type": "function"
		},
		{
			"inputs": [],
			"name": "pause",
			"outputs": [],
			"stateMutability": "nonpayable",
			"type": "function"
		},
		{
			"inputs": [],
			"name": "paused",
			"outputs": [
				{
					"internalType": "bool",
					"name": "",
					"type": "bool"
				}
			],
			"stateMutability": "view",
			"type": "function"
		},
		{
			"inputs": [
				{
					"internalType": "bytes32",
					"name": "role",
					"type": "bytes32"
				},
				{
					"internalType": "address",
					"name": "account",
					"type": "address"
				}
			],
			"name": "renounceRole",
			"outputs": [],
			"stateMutability": "nonpayable",
			"type": "function"
		},
		{
			"inputs": [
				{
					"internalType": "bytes32",
					"name": "role",
					"type": "bytes32"
				},
				{
					"internalType": "address",
					"name": "account",
					"type": "address"
				}
			],
			"name": "revokeRole",
			"outputs": [],
			"stateMutability": "nonpayable",
			"type": "function"
		},
		{
			"inputs": [
				{
					"internalType": "address",
					"name": "_to",
					"type": "address"
				},
				{
					"internalType": "bytes32",
					"name": "_idxHash",
					"type": "bytes32"
				}
			],
			"name": "transferAssetToken",
			"outputs": [],
			"stateMutability": "nonpayable",
			"type": "function"
		},
		{
			"inputs": [],
			"name": "unpause",
			"outputs": [],
			"stateMutability": "nonpayable",
			"type": "function"
		}
	]
}