{
	"data": {
		"bytecode": {
			"linkReferences": {},
			"object": "60806040523480156200001157600080fd5b50600160009081556002805460ff191690556200003890620000326200009c565b620000a0565b620000677f2ce8d04a9c35987429af538825cd2438cc5c5bb5dc427955f84daaa3ea105016620000326200009c565b620000967f65d7a28e3265b37a6474929f336521b332c1681b933f6cb9f3376673440d862a620000326200009c565b620001b2565b3390565b620000ac8282620000b0565b5050565b6000828152600160209081526040909120620000d7918390620022ff6200012b821b17901c565b15620000ac57620000e76200009c565b6001600160a01b0316816001600160a01b0316837f2f8788117e7eff1d82e926ec794901d17c78024a50270940304540a733656f0d60405160405180910390a45050565b600062000142836001600160a01b0384166200014b565b90505b92915050565b60006200015983836200019a565b620001915750815460018181018455600084815260208082209093018490558454848252828601909352604090209190915562000145565b50600062000145565b60009081526001919091016020526040902054151590565b61300980620001c26000396000f3fe608060405234801561001057600080fd5b50600436106101a35760003560e01c80636580bcce116100ee57806392ba3da611610097578063d547741f11610071578063d547741f14610521578063d6b02ecf1461054d578063e63ab1e914610573578063e8b416531461057b576101a3565b806392ba3da6146104d0578063a217fddf146104fc578063ca15c87314610504576101a3565b806390073492116100c857806390073492146104235780639010d07c1461046557806391d14854146104a4576101a3565b80636580bcce146103d25780637698f98b146103f55780638456cb591461041b576101a3565b806336568abe1161015057806352c8fc881161012a57806352c8fc881461035d57806354de4a3f146103995780635c975abb146103b6576101a3565b806336568abe146102fd5780633f4ba83a14610329578063440e7a7e14610331576101a3565b80631da03312116101815780631da03312146102aa578063248a9ca3146102b25780632f2ff15d146102cf576101a3565b8063062cf11f146101a85780631429db5f146101dd578063150b7a02146101e5575b600080fd5b6101cb600480360360408110156101be57600080fd5b5080359060200135610583565b60408051918252519081900360200190f35b6101cb61077c565b610275600480360360808110156101fb57600080fd5b6001600160a01b0382358116926020810135909116916040820135919081019060808101606082013564010000000081111561023657600080fd5b82018360208201111561024857600080fd5b8035906020019184600183028401116401000000008311171561026a57600080fd5b5090925090506107a0565b604080517fffffffff000000000000000000000000000000000000000000000000000000009092168252519081900360200190f35b6101cb6107ca565b6101cb600480360360208110156102c857600080fd5b50356107ee565b6102fb600480360360408110156102e557600080fd5b50803590602001356001600160a01b0316610806565b005b6102fb6004803603604081101561031357600080fd5b50803590602001356001600160a01b0316610872565b6102fb6108d3565b6102fb6004803603604081101561034757600080fd5b506001600160a01b038135169060200135610944565b6103836004803603604081101561037357600080fd5b508035906020013560ff16610a9e565b6040805160ff9092168252519081900360200190f35b6102fb600480360360208110156103af57600080fd5b5035610db6565b6103be610fe2565b604080519115158252519081900360200190f35b6101cb600480360360408110156103e857600080fd5b5080359060200135610feb565b6103836004803603604081101561040b57600080fd5b508035906020013560ff1661122b565b6102fb6114ef565b61044c6004803603604081101561043957600080fd5b508035906020013563ffffffff1661155e565b6040805163ffffffff9092168252519081900360200190f35b6104886004803603604081101561047b57600080fd5b5080359060200135611786565b604080516001600160a01b039092168252519081900360200190f35b6103be600480360360408110156104ba57600080fd5b50803590602001356001600160a01b03166117a7565b6102fb600480360360408110156104e657600080fd5b506001600160a01b0381351690602001356117bf565b6101cb6118fd565b6101cb6004803603602081101561051a57600080fd5b5035611902565b6102fb6004803603604081101561053757600080fd5b50803590602001356001600160a01b0316611919565b6102fb6004803603602081101561056357600080fd5b50356001600160a01b0316611972565b6101cb611a40565b6102fb611a64565b6000600260005414156105dd576040805162461bcd60e51b815260206004820152601f60248201527f5265656e7472616e637947756172643a207265656e7472616e742063616c6c00604482015290519081900360640190fd5b600260008190555460ff161561062d576040805162461bcd60e51b815260206004820152601060248201526f14185d5cd8589b194e881c185d5cd95960821b604482015290519081900360640190fd5b8280610637612314565b600954604080516331a9108f60e11b81526004810185905290516001600160a01b039384169390921691636352211e916024808201926020929091908290030181600087803b15801561068957600080fd5b505af115801561069d573d6000803e3d6000fd5b505050506040513d60208110156106b357600080fd5b50516001600160a01b0316146106fa5760405162461bcd60e51b8152600401808060200182810382526027815260200180612e416027913960400191505060405180910390fd5b610702612bb1565b61070b86612318565b905061071a816000015161249a565b60ff16156107595760405162461bcd60e51b815260040180806020018281038252603f815260200180612e02603f913960400191505060405180910390fd5b60e0810185905261076a86826124e9565b60e00151600160005595945050505050565b7f7f1e4e9f3d9ba0452a25cfef4cd4c6ffc86158d06ed2f585fa0093e12dec429c81565b7f150b7a020000000000000000000000000000000000000000000000000000000095945050505050565b7f2ce8d04a9c35987429af538825cd2438cc5c5bb5dc427955f84daaa3ea10501681565b6000818152600160205260409020600201545b919050565b60008281526001602052604090206002015461082990610824612314565b6117a7565b6108645760405162461bcd60e51b815260040180806020018281038252602f815260200180612c55602f913960400191505060405180910390fd5b61086e82826125c2565b5050565b61087a612314565b6001600160a01b0316816001600160a01b0316146108c95760405162461bcd60e51b815260040180806020018281038252602f815260200180612fa5602f913960400191505060405180910390fd5b61086e828261262b565b6108ff7f65d7a28e3265b37a6474929f336521b332c1681b933f6cb9f3376673440d862a610824612314565b61093a5760405162461bcd60e51b8152600401808060200182810382526027815260200180612f336027913960400191505060405180910390fd5b610942612694565b565b6002600054141561099c576040805162461bcd60e51b815260206004820152601f60248201527f5265656e7472616e637947756172643a207265656e7472616e742063616c6c00604482015290519081900360640190fd5b60026000556109cd7f7f1e4e9f3d9ba0452a25cfef4cd4c6ffc86158d06ed2f585fa0093e12dec429c610824612314565b610a1e576040805162461bcd60e51b815260206004820152601e60248201527f423a54583a4d75737420686176652041535345545f545846525f524f4c450000604482015290519081900360640190fd5b60095460408051632142170760e11b81523060048201526001600160a01b038581166024830152604482018590529151849392909216916342842e0e9160648082019260009290919082900301818387803b158015610a7c57600080fd5b505af1158015610a90573d6000803e3d6000fd5b505060016000555050505050565b600060026000541415610af8576040805162461bcd60e51b815260206004820152601f60248201527f5265656e7472616e637947756172643a207265656e7472616e742063616c6c00604482015290519081900360640190fd5b600260008190555460ff1615610b48576040805162461bcd60e51b815260206004820152601060248201526f14185d5cd8589b194e881c185d5cd95960821b604482015290519081900360640190fd5b8280610b52612314565b600954604080516331a9108f60e11b81526004810185905290516001600160a01b039384169390921691636352211e916024808201926020929091908290030181600087803b158015610ba457600080fd5b505af1158015610bb8573d6000803e3d6000fd5b505050506040513d6020811015610bce57600080fd5b50516001600160a01b031614610c155760405162461bcd60e51b8152600401808060200182810382526027815260200180612e416027913960400191505060405180910390fd5b610c1d612bb1565b610c2686612318565b90508460ff16600714158015610c4057508460ff16603914155b8015610c5057508460ff16603a14155b8015610c5f575060648560ff16105b610cb0576040805162461bcd60e51b815260206004820152601360248201527f4e504e433a4d533a205374617420527372766400000000000000000000000000604482015290519081900360640190fd5b610cb98561249a565b60ff1615610cf85760405162461bcd60e51b815260040180806020018281038252605a815260200180612ed9605a913960600191505060405180910390fd5b60318560ff16118015610d1257506031816000015160ff16115b610d4d5760405162461bcd60e51b815260040180806020018281038252603f815260200180612d39603f913960400191505060405180910390fd5b8051610d589061249a565b60ff1615610d975760405162461bcd60e51b8152600401808060200182810382526044815260200180612e956044913960600191505060405180910390fd5b60ff85168152610da7868261273b565b51600160005595945050505050565b60025460ff1615610e01576040805162461bcd60e51b815260206004820152601060248201526f14185d5cd8589b194e881c185d5cd95960821b604482015290519081900360640190fd5b8080610e0b612314565b600954604080516331a9108f60e11b81526004810185905290516001600160a01b039384169390921691636352211e916024808201926020929091908290030181600087803b158015610e5d57600080fd5b505af1158015610e71573d6000803e3d6000fd5b505050506040513d6020811015610e8757600080fd5b50516001600160a01b031614610ece5760405162461bcd60e51b8152600401808060200182810382526027815260200180612e416027913960400191505060405180910390fd5b610ed6612bb1565b610edf84612318565b9050610ee9612bfd565b610ef6826020015161282c565b9050816000015160ff16603314610f3e5760405162461bcd60e51b815260040180806020018281038252602d815260200180612e68602d913960400191505060405180910390fd5b60468252610f4c858361273b565b6003546020820151604080517f62a02f860000000000000000000000000000000000000000000000000000000081526004810189905263ffffffff9092166024830152516001600160a01b03909216916362a02f869160448082019260009290919082900301818387803b158015610fc357600080fd5b505af1158015610fd7573d6000803e3d6000fd5b505050505050505050565b60025460ff1690565b600060026000541415611045576040805162461bcd60e51b815260206004820152601f60248201527f5265656e7472616e637947756172643a207265656e7472616e742063616c6c00604482015290519081900360640190fd5b600260008190555460ff1615611095576040805162461bcd60e51b815260206004820152601060248201526f14185d5cd8589b194e881c185d5cd95960821b604482015290519081900360640190fd5b828061109f612314565b600954604080516331a9108f60e11b81526004810185905290516001600160a01b039384169390921691636352211e916024808201926020929091908290030181600087803b1580156110f157600080fd5b505af1158015611105573d6000803e3d6000fd5b505050506040513d602081101561111b57600080fd5b50516001600160a01b0316146111625760405162461bcd60e51b8152600401808060200182810382526027815260200180612e416027913960400191505060405180910390fd5b61116a612bb1565b61117386612318565b9050611182816000015161291b565b60ff16156111c15760405162461bcd60e51b8152600401808060200182810382526035815260200180612d9d6035913960400191505060405180910390fd5b80516111cc9061249a565b60ff161561120b5760405162461bcd60e51b815260040180806020018281038252604b815260200180612f5a604b913960600191505060405180910390fd5b60c0810185905261121c868261273b565b50506001600055509192915050565b600060026000541415611285576040805162461bcd60e51b815260206004820152601f60248201527f5265656e7472616e637947756172643a207265656e7472616e742063616c6c00604482015290519081900360640190fd5b600260008190555460ff16156112d5576040805162461bcd60e51b815260206004820152601060248201526f14185d5cd8589b194e881c185d5cd95960821b604482015290519081900360640190fd5b82806112df612314565b600954604080516331a9108f60e11b81526004810185905290516001600160a01b039384169390921691636352211e916024808201926020929091908290030181600087803b15801561133157600080fd5b505af1158015611345573d6000803e3d6000fd5b505050506040513d602081101561135b57600080fd5b50516001600160a01b0316146113a25760405162461bcd60e51b8152600401808060200182810382526027815260200180612e416027913960400191505060405180910390fd5b6113aa612bb1565b6113b386612318565b905060318560ff161180156113cf57506031816000015160ff16115b61140a5760405162461bcd60e51b815260040180806020018281038252603f815260200180612d39603f913960400191505060405180910390fd5b80516114159061249a565b60ff16156114545760405162461bcd60e51b8152600401808060200182810382526051815260200180612ce86051913960600191505060405180910390fd5b60ff8516808252600354604080517ff22354a6000000000000000000000000000000000000000000000000000000008152600481018a90526024810193909352516001600160a01b039091169163f22354a691604480830192600092919082900301818387803b1580156114c757600080fd5b505af11580156114db573d6000803e3d6000fd5b505091516001600055979650505050505050565b61151b7f65d7a28e3265b37a6474929f336521b332c1681b933f6cb9f3376673440d862a610824612314565b6115565760405162461bcd60e51b8152600401808060200182810382526027815260200180612f336027913960400191505060405180910390fd5b61094261295f565b6000600260005414156115b8576040805162461bcd60e51b815260206004820152601f60248201527f5265656e7472616e637947756172643a207265656e7472616e742063616c6c00604482015290519081900360640190fd5b600260008190555460ff1615611608576040805162461bcd60e51b815260206004820152601060248201526f14185d5cd8589b194e881c185d5cd95960821b604482015290519081900360640190fd5b8280611612612314565b600954604080516331a9108f60e11b81526004810185905290516001600160a01b039384169390921691636352211e916024808201926020929091908290030181600087803b15801561166457600080fd5b505af1158015611678573d6000803e3d6000fd5b505050506040513d602081101561168e57600080fd5b50516001600160a01b0316146116d55760405162461bcd60e51b8152600401808060200182810382526027815260200180612e416027913960400191505060405180910390fd5b6116dd612bb1565b6116e686612318565b90506116f5816000015161249a565b60ff16156117345760405162461bcd60e51b815260040180806020018281038252603e815260200180612c84603e913960400191505060405180910390fd5b8463ffffffff16816040015163ffffffff1611156117625760408101805186900363ffffffff16905261176a565b600060408201525b611774868261273b565b60400151600160005595945050505050565b600082815260016020526040812061179e90836129e0565b90505b92915050565b600082815260016020526040812061179e90836129ec565b6117eb7f2ce8d04a9c35987429af538825cd2438cc5c5bb5dc427955f84daaa3ea105016610824612314565b6118265760405162461bcd60e51b8152600401808060200182810382526026815260200180612cc26026913960400191505060405180910390fd5b6002600054141561187e576040805162461bcd60e51b815260206004820152601f60248201527f5265656e7472616e637947756172643a207265656e7472616e742063616c6c00604482015290519081900360640190fd5b60026000908155600b5460408051632142170760e11b81523060048201526001600160a01b03868116602483015260448201869052915191909216926342842e0e926064808201939182900301818387803b1580156118dc57600080fd5b505af11580156118f0573d6000803e3d6000fd5b5050600160005550505050565b600081565b60008181526001602052604081206117a190612a01565b60008281526001602052604090206002015461193790610824612314565b6108c95760405162461bcd60e51b8152600401808060200182810382526030815260200180612dd26030913960400191505060405180910390fd5b61199e7f2ce8d04a9c35987429af538825cd2438cc5c5bb5dc427955f84daaa3ea105016610824612314565b6119d95760405162461bcd60e51b8152600401808060200182810382526026815260200180612cc26026913960400191505060405180910390fd5b6001600160a01b038116611a1e5760405162461bcd60e51b8152600401808060200182810382526025815260200180612d786025913960400191505060405180910390fd5b600380546001600160a01b0319166001600160a01b0392909216919091179055565b7f65d7a28e3265b37a6474929f336521b332c1681b933f6cb9f3376673440d862a81565b60026000541415611abc576040805162461bcd60e51b815260206004820152601f60248201527f5265656e7472616e637947756172643a207265656e7472616e742063616c6c00604482015290519081900360640190fd5b6002600055611aed7f2ce8d04a9c35987429af538825cd2438cc5c5bb5dc427955f84daaa3ea105016610824612314565b611b285760405162461bcd60e51b8152600401808060200182810382526026815260200180612cc26026913960400191505060405180910390fd5b600354604080516363b8d4c160e11b8152602060048201819052600660248301527f41435f544b4e0000000000000000000000000000000000000000000000000000604483015291516001600160a01b039093169263c771a98292606480840193919291829003018186803b158015611ba057600080fd5b505afa158015611bb4573d6000803e3d6000fd5b505050506040513d6020811015611bca57600080fd5b5051600a80546001600160a01b039283166001600160a01b03199182161791829055600b8054909116918316919091179055600354604080516363b8d4c160e11b8152602060048201819052600660248301527f41435f4d4752000000000000000000000000000000000000000000000000000060448301529151929093169263c771a9829260648083019392829003018186803b158015611c6b57600080fd5b505afa158015611c7f573d6000803e3d6000fd5b505050506040513d6020811015611c9557600080fd5b5051600480546001600160a01b039283166001600160a01b03199182161780835560058054909216908416179055600354604080516363b8d4c160e11b81526020938101849052600860248201527f5554494c5f544b4e00000000000000000000000000000000000000000000000060448201529051919093169263c771a982926064808301939192829003018186803b158015611d3257600080fd5b505afa158015611d46573d6000803e3d6000fd5b505050506040513d6020811015611d5c57600080fd5b5051600680546001600160a01b039283166001600160a01b0319918216179182905560078054909116918316919091179055600354604080516363b8d4c160e11b8152602060048201819052600560248301527f415f544b4e00000000000000000000000000000000000000000000000000000060448301529151929093169263c771a9829260648083019392829003018186803b158015611dfd57600080fd5b505afa158015611e11573d6000803e3d6000fd5b505050506040513d6020811015611e2757600080fd5b5051600880546001600160a01b039283166001600160a01b0319918216179182905560098054909116918316919091179055600354604080516363b8d4c160e11b8152602060048201819052600660248301527f49445f544b4e000000000000000000000000000000000000000000000000000060448301529151929093169263c771a9829260648083019392829003018186803b158015611ec857600080fd5b505afa158015611edc573d6000803e3d6000fd5b505050506040513d6020811015611ef257600080fd5b5051600c80546001600160a01b039283166001600160a01b03199182161791829055600d8054909116918316919091179055600354604080516363b8d4c160e11b8152602060048201819052600760248301527f4543525f4d47520000000000000000000000000000000000000000000000000060448301529151929093169263c771a9829260648083019392829003018186803b158015611f9357600080fd5b505afa158015611fa7573d6000803e3d6000fd5b505050506040513d6020811015611fbd57600080fd5b5051600e80546001600160a01b039283166001600160a01b03199182161791829055600f805490911691831691909117905560038054604080516363b8d4c160e11b815260206004820181905260248201949094527f415050000000000000000000000000000000000000000000000000000000000060448201529051919093169263c771a982926064808301939192829003018186803b15801561206157600080fd5b505afa158015612075573d6000803e3d6000fd5b505050506040513d602081101561208b57600080fd5b5051601280546001600160a01b039283166001600160a01b0319918216179182905560138054909116918316919091179055600354604080516363b8d4c160e11b81526020600480830182905260248301527f52434c520000000000000000000000000000000000000000000000000000000060448301529151929093169263c771a9829260648083019392829003018186803b15801561212b57600080fd5b505afa15801561213f573d6000803e3d6000fd5b505050506040513d602081101561215557600080fd5b5051601080546001600160a01b039283166001600160a01b0319918216179182905560118054909116918316919091179055600354604080516363b8d4c160e11b8152602060048201819052600660248301527f4150505f4e43000000000000000000000000000000000000000000000000000060448301529151929093169263c771a9829260648083019392829003018186803b1580156121f657600080fd5b505afa15801561220a573d6000803e3d6000fd5b505050506040513d602081101561222057600080fd5b5051601480546001600160a01b0319166001600160a01b03928316179055600354604080516363b8d4c160e11b8152602060048201819052600260248301527f4e5000000000000000000000000000000000000000000000000000000000000060448301529151929093169263c771a9829260648083019392829003018186803b1580156122ad57600080fd5b505afa1580156122c1573d6000803e3d6000fd5b505050506040513d60208110156122d757600080fd5b5051601780546001600160a01b0319166001600160a01b039092169190911790556001600055565b600061179e836001600160a01b038416612a0c565b3390565b612320612bb1565b612328612bb1565b6000806000806000806000600360009054906101000a90046001600160a01b03166001600160a01b031663e248f2c48b6040518263ffffffff1660e01b81526004018082815260200191505060e06040518083038186803b15801561238c57600080fd5b505afa1580156123a0573d6000803e3d6000fd5b505050506040513d60e08110156123b657600080fd5b81019080805190602001909291908051906020019092919080519060200190929190805190602001909291908051906020019092919080519060200190929190805190602001909291905050509650965096509650965096509650868860c001818152505085886000019060ff16908160ff168152505084886020019063ffffffff16908163ffffffff168152505083886040019063ffffffff16908163ffffffff168152505082886060019063ffffffff16908163ffffffff1681525050818860e001818152505080886101000181815250505050505050505080915050919050565b60008160ff166005141580156124b457508160ff16603714155b80156124c457508160ff16604614155b80156124d457508160ff16603c14155b156124e157506000610801565b5060aa610801565b60025460ff1615612534576040805162461bcd60e51b815260206004820152601060248201526f14185d5cd8589b194e881c185d5cd95960821b604482015290519081900360640190fd5b60035460e0820151604080517f42cdc4a4000000000000000000000000000000000000000000000000000000008152600481018690526024810192909252516001600160a01b03909216916342cdc4a49160448082019260009290919082900301818387803b1580156125a657600080fd5b505af11580156125ba573d6000803e3d6000fd5b505050505050565b60008281526001602052604090206125da90826122ff565b1561086e576125e7612314565b6001600160a01b0316816001600160a01b0316837f2f8788117e7eff1d82e926ec794901d17c78024a50270940304540a733656f0d60405160405180910390a45050565b60008281526001602052604090206126439082612a56565b1561086e57612650612314565b6001600160a01b0316816001600160a01b0316837ff6391f5c32d9c69d2a47ea670b442974b53935d1edc7fd64eb21e047a839171b60405160405180910390a45050565b60025460ff166126eb576040805162461bcd60e51b815260206004820152601460248201527f5061757361626c653a206e6f7420706175736564000000000000000000000000604482015290519081900360640190fd5b6002805460ff191690557f5db9ee0a495bf2e6ff9c91a7834c1ba4fdd244a5e8aa4e537bd38aeae4b073aa61271e612314565b604080516001600160a01b039092168252519081900360200190a1565b60025460ff1615612786576040805162461bcd60e51b815260206004820152601060248201526f14185d5cd8589b194e881c185d5cd95960821b604482015290519081900360640190fd5b60035460c0820151825160408085015160a0860151608087015183517f635d54fe000000000000000000000000000000000000000000000000000000008152600481018a9052602481019690965260ff909416604486015263ffffffff9091166064850152608484015260a4830191909152516001600160a01b039092169163635d54fe9160c48082019260009290919082900301818387803b1580156125a657600080fd5b612834612bfd565b61283c612bfd565b600554604080517ff243501000000000000000000000000000000000000000000000000000000000815263ffffffff8616600482015290516001600160a01b039092169163f24350109160248082019260a092909190829003018186803b1580156128a657600080fd5b505afa1580156128ba573d6000803e3d6000fd5b505050506040513d60a08110156128d057600080fd5b50805160208083015160408085015160608087015160809788015160a08a015263ffffffff908116978901979097529086169087015260ff9091169085015291169082015292915050565b60008160ff1660031415801561293557508160ff16600414155b801561294557508160ff16603514155b80156124d457508160ff166036146124e157506000610801565b60025460ff16156129aa576040805162461bcd60e51b815260206004820152601060248201526f14185d5cd8589b194e881c185d5cd95960821b604482015290519081900360640190fd5b6002805460ff191660011790557f62e78cea01bee320cd4e420270b5ea74000d11b0c9f74754ebdbfc544b05a25861271e612314565b600061179e8383612a6b565b600061179e836001600160a01b038416612acf565b60006117a182612ae7565b6000612a188383612acf565b612a4e575081546001818101845560008481526020808220909301849055845484825282860190935260409020919091556117a1565b5060006117a1565b600061179e836001600160a01b038416612aeb565b81546000908210612aad5760405162461bcd60e51b8152600401808060200182810382526022815260200180612c336022913960400191505060405180910390fd5b826000018281548110612abc57fe5b9060005260206000200154905092915050565b60009081526001919091016020526040902054151590565b5490565b60008181526001830160205260408120548015612ba75783546000198083019190810190600090879083908110612b1e57fe5b9060005260206000200154905080876000018481548110612b3b57fe5b600091825260208083209091019290925582815260018981019092526040902090840190558654879080612b6b57fe5b600190038181906000526020600020016000905590558660010160008781526020019081526020016000206000905560019450505050506117a1565b60009150506117a1565b6040805161012081018252600080825260208201819052918101829052606081018290526080810182905260a0810182905260c0810182905260e0810182905261010081019190915290565b6040805160c081018252606080825260006020830181905292820183905281018290526080810182905260a08101919091529056fe456e756d657261626c655365743a20696e646578206f7574206f6620626f756e6473416363657373436f6e74726f6c3a2073656e646572206d75737420626520616e2061646d696e20746f206772616e744e504e433a44433a205265636f726420696e20756e726567697374657265642c206578706f727465642c206f72206469736361726465642073746174757350414d3a4d4f443a206d757374206861766520434f4e54524143545f41444d494e5f524f4c454e504e433a534c533a205472616e736665727265642c6578706f727465642c6f72206469736361726465642061737365742063616e6e6f742062652073657420746f206c6f7374206f722073746f6c656e4e504e433a534c533a204f6e6c7920637573746f6469616c2075736572747970652063616e20736574206f72206368616e676520737461747573203c203530423a5353433a2073746f7261676520616464726573732063616e6e6f74206265207a65726f4e504e433a43523a2043616e6e6f74206d6f6469667920617373657420696e206c6f7374206f722073746f6c656e20737461747573416363657373436f6e74726f6c3a2073656e646572206d75737420626520616e2061646d696e20746f207265766f6b654e504e433a4d49313a205265636f726420696e20756e726567697374657265642c206578706f727465642c206f7220646973636172646564207374617475734e504e433a4d4f442d49413a2043616c6c657220646f6573206e6f7420686f6c6420746f6b656e4e504e433a45583a204d75737420626520696e207472616e736665727261626c652073746174757320283531294e504e433a4d533a20417373657420697320696e20616e20756e726567697374657265642c206578706f727465642c206f7220646973636172646564207374617475732e4e504e433a4d533a2043616e6e6f7420706c61636520617373657420696e20756e726567697374657265642c206578706f727465642c206f722064697363617264656420737461747573207573696e67206d6f6453746174757341543a4d4f442d49413a43616c6c696e672061646472657373206973206e6f74207061757365724e504e433a43523a2043616e6e6f74206d6f6469667920617373657420696e20756e726567697374657265642c206578706f727465642c206f722064697363617264656420737461747573416363657373436f6e74726f6c3a2063616e206f6e6c792072656e6f756e636520726f6c657320666f722073656c66a2646970667358221220308b37ab77dce73a73ea6389538bf00aad1d080e4b7df3ec8e1c146dfeff170364736f6c634300060c0033",
			"opcodes": "PUSH1 0x80 PUSH1 0x40 MSTORE CALLVALUE DUP1 ISZERO PUSH3 0x11 JUMPI PUSH1 0x0 DUP1 REVERT JUMPDEST POP PUSH1 0x1 PUSH1 0x0 SWAP1 DUP2 SSTORE PUSH1 0x2 DUP1 SLOAD PUSH1 0xFF NOT AND SWAP1 SSTORE PUSH3 0x38 SWAP1 PUSH3 0x32 PUSH3 0x9C JUMP JUMPDEST PUSH3 0xA0 JUMP JUMPDEST PUSH3 0x67 PUSH32 0x2CE8D04A9C35987429AF538825CD2438CC5C5BB5DC427955F84DAAA3EA105016 PUSH3 0x32 PUSH3 0x9C JUMP JUMPDEST PUSH3 0x96 PUSH32 0x65D7A28E3265B37A6474929F336521B332C1681B933F6CB9F3376673440D862A PUSH3 0x32 PUSH3 0x9C JUMP JUMPDEST PUSH3 0x1B2 JUMP JUMPDEST CALLER SWAP1 JUMP JUMPDEST PUSH3 0xAC DUP3 DUP3 PUSH3 0xB0 JUMP JUMPDEST POP POP JUMP JUMPDEST PUSH1 0x0 DUP3 DUP2 MSTORE PUSH1 0x1 PUSH1 0x20 SWAP1 DUP2 MSTORE PUSH1 0x40 SWAP1 SWAP2 KECCAK256 PUSH3 0xD7 SWAP2 DUP4 SWAP1 PUSH3 0x22FF PUSH3 0x12B DUP3 SHL OR SWAP1 SHR JUMP JUMPDEST ISZERO PUSH3 0xAC JUMPI PUSH3 0xE7 PUSH3 0x9C JUMP JUMPDEST PUSH1 0x1 PUSH1 0x1 PUSH1 0xA0 SHL SUB AND DUP2 PUSH1 0x1 PUSH1 0x1 PUSH1 0xA0 SHL SUB AND DUP4 PUSH32 0x2F8788117E7EFF1D82E926EC794901D17C78024A50270940304540A733656F0D PUSH1 0x40 MLOAD PUSH1 0x40 MLOAD DUP1 SWAP2 SUB SWAP1 LOG4 POP POP JUMP JUMPDEST PUSH1 0x0 PUSH3 0x142 DUP4 PUSH1 0x1 PUSH1 0x1 PUSH1 0xA0 SHL SUB DUP5 AND PUSH3 0x14B JUMP JUMPDEST SWAP1 POP JUMPDEST SWAP3 SWAP2 POP POP JUMP JUMPDEST PUSH1 0x0 PUSH3 0x159 DUP4 DUP4 PUSH3 0x19A JUMP JUMPDEST PUSH3 0x191 JUMPI POP DUP2 SLOAD PUSH1 0x1 DUP2 DUP2 ADD DUP5 SSTORE PUSH1 0x0 DUP5 DUP2 MSTORE PUSH1 0x20 DUP1 DUP3 KECCAK256 SWAP1 SWAP4 ADD DUP5 SWAP1 SSTORE DUP5 SLOAD DUP5 DUP3 MSTORE DUP3 DUP7 ADD SWAP1 SWAP4 MSTORE PUSH1 0x40 SWAP1 KECCAK256 SWAP2 SWAP1 SWAP2 SSTORE PUSH3 0x145 JUMP JUMPDEST POP PUSH1 0x0 PUSH3 0x145 JUMP JUMPDEST PUSH1 0x0 SWAP1 DUP2 MSTORE PUSH1 0x1 SWAP2 SWAP1 SWAP2 ADD PUSH1 0x20 MSTORE PUSH1 0x40 SWAP1 KECCAK256 SLOAD ISZERO ISZERO SWAP1 JUMP JUMPDEST PUSH2 0x3009 DUP1 PUSH3 0x1C2 PUSH1 0x0 CODECOPY PUSH1 0x0 RETURN INVALID PUSH1 0x80 PUSH1 0x40 MSTORE CALLVALUE DUP1 ISZERO PUSH2 0x10 JUMPI PUSH1 0x0 DUP1 REVERT JUMPDEST POP PUSH1 0x4 CALLDATASIZE LT PUSH2 0x1A3 JUMPI PUSH1 0x0 CALLDATALOAD PUSH1 0xE0 SHR DUP1 PUSH4 0x6580BCCE GT PUSH2 0xEE JUMPI DUP1 PUSH4 0x92BA3DA6 GT PUSH2 0x97 JUMPI DUP1 PUSH4 0xD547741F GT PUSH2 0x71 JUMPI DUP1 PUSH4 0xD547741F EQ PUSH2 0x521 JUMPI DUP1 PUSH4 0xD6B02ECF EQ PUSH2 0x54D JUMPI DUP1 PUSH4 0xE63AB1E9 EQ PUSH2 0x573 JUMPI DUP1 PUSH4 0xE8B41653 EQ PUSH2 0x57B JUMPI PUSH2 0x1A3 JUMP JUMPDEST DUP1 PUSH4 0x92BA3DA6 EQ PUSH2 0x4D0 JUMPI DUP1 PUSH4 0xA217FDDF EQ PUSH2 0x4FC JUMPI DUP1 PUSH4 0xCA15C873 EQ PUSH2 0x504 JUMPI PUSH2 0x1A3 JUMP JUMPDEST DUP1 PUSH4 0x90073492 GT PUSH2 0xC8 JUMPI DUP1 PUSH4 0x90073492 EQ PUSH2 0x423 JUMPI DUP1 PUSH4 0x9010D07C EQ PUSH2 0x465 JUMPI DUP1 PUSH4 0x91D14854 EQ PUSH2 0x4A4 JUMPI PUSH2 0x1A3 JUMP JUMPDEST DUP1 PUSH4 0x6580BCCE EQ PUSH2 0x3D2 JUMPI DUP1 PUSH4 0x7698F98B EQ PUSH2 0x3F5 JUMPI DUP1 PUSH4 0x8456CB59 EQ PUSH2 0x41B JUMPI PUSH2 0x1A3 JUMP JUMPDEST DUP1 PUSH4 0x36568ABE GT PUSH2 0x150 JUMPI DUP1 PUSH4 0x52C8FC88 GT PUSH2 0x12A JUMPI DUP1 PUSH4 0x52C8FC88 EQ PUSH2 0x35D JUMPI DUP1 PUSH4 0x54DE4A3F EQ PUSH2 0x399 JUMPI DUP1 PUSH4 0x5C975ABB EQ PUSH2 0x3B6 JUMPI PUSH2 0x1A3 JUMP JUMPDEST DUP1 PUSH4 0x36568ABE EQ PUSH2 0x2FD JUMPI DUP1 PUSH4 0x3F4BA83A EQ PUSH2 0x329 JUMPI DUP1 PUSH4 0x440E7A7E EQ PUSH2 0x331 JUMPI PUSH2 0x1A3 JUMP JUMPDEST DUP1 PUSH4 0x1DA03312 GT PUSH2 0x181 JUMPI DUP1 PUSH4 0x1DA03312 EQ PUSH2 0x2AA JUMPI DUP1 PUSH4 0x248A9CA3 EQ PUSH2 0x2B2 JUMPI DUP1 PUSH4 0x2F2FF15D EQ PUSH2 0x2CF JUMPI PUSH2 0x1A3 JUMP JUMPDEST DUP1 PUSH4 0x62CF11F EQ PUSH2 0x1A8 JUMPI DUP1 PUSH4 0x1429DB5F EQ PUSH2 0x1DD JUMPI DUP1 PUSH4 0x150B7A02 EQ PUSH2 0x1E5 JUMPI JUMPDEST PUSH1 0x0 DUP1 REVERT JUMPDEST PUSH2 0x1CB PUSH1 0x4 DUP1 CALLDATASIZE SUB PUSH1 0x40 DUP2 LT ISZERO PUSH2 0x1BE JUMPI PUSH1 0x0 DUP1 REVERT JUMPDEST POP DUP1 CALLDATALOAD SWAP1 PUSH1 0x20 ADD CALLDATALOAD PUSH2 0x583 JUMP JUMPDEST PUSH1 0x40 DUP1 MLOAD SWAP2 DUP3 MSTORE MLOAD SWAP1 DUP2 SWAP1 SUB PUSH1 0x20 ADD SWAP1 RETURN JUMPDEST PUSH2 0x1CB PUSH2 0x77C JUMP JUMPDEST PUSH2 0x275 PUSH1 0x4 DUP1 CALLDATASIZE SUB PUSH1 0x80 DUP2 LT ISZERO PUSH2 0x1FB JUMPI PUSH1 0x0 DUP1 REVERT JUMPDEST PUSH1 0x1 PUSH1 0x1 PUSH1 0xA0 SHL SUB DUP3 CALLDATALOAD DUP2 AND SWAP3 PUSH1 0x20 DUP2 ADD CALLDATALOAD SWAP1 SWAP2 AND SWAP2 PUSH1 0x40 DUP3 ADD CALLDATALOAD SWAP2 SWAP1 DUP2 ADD SWAP1 PUSH1 0x80 DUP2 ADD PUSH1 0x60 DUP3 ADD CALLDATALOAD PUSH5 0x100000000 DUP2 GT ISZERO PUSH2 0x236 JUMPI PUSH1 0x0 DUP1 REVERT JUMPDEST DUP3 ADD DUP4 PUSH1 0x20 DUP3 ADD GT ISZERO PUSH2 0x248 JUMPI PUSH1 0x0 DUP1 REVERT JUMPDEST DUP1 CALLDATALOAD SWAP1 PUSH1 0x20 ADD SWAP2 DUP5 PUSH1 0x1 DUP4 MUL DUP5 ADD GT PUSH5 0x100000000 DUP4 GT OR ISZERO PUSH2 0x26A JUMPI PUSH1 0x0 DUP1 REVERT JUMPDEST POP SWAP1 SWAP3 POP SWAP1 POP PUSH2 0x7A0 JUMP JUMPDEST PUSH1 0x40 DUP1 MLOAD PUSH32 0xFFFFFFFF00000000000000000000000000000000000000000000000000000000 SWAP1 SWAP3 AND DUP3 MSTORE MLOAD SWAP1 DUP2 SWAP1 SUB PUSH1 0x20 ADD SWAP1 RETURN JUMPDEST PUSH2 0x1CB PUSH2 0x7CA JUMP JUMPDEST PUSH2 0x1CB PUSH1 0x4 DUP1 CALLDATASIZE SUB PUSH1 0x20 DUP2 LT ISZERO PUSH2 0x2C8 JUMPI PUSH1 0x0 DUP1 REVERT JUMPDEST POP CALLDATALOAD PUSH2 0x7EE JUMP JUMPDEST PUSH2 0x2FB PUSH1 0x4 DUP1 CALLDATASIZE SUB PUSH1 0x40 DUP2 LT ISZERO PUSH2 0x2E5 JUMPI PUSH1 0x0 DUP1 REVERT JUMPDEST POP DUP1 CALLDATALOAD SWAP1 PUSH1 0x20 ADD CALLDATALOAD PUSH1 0x1 PUSH1 0x1 PUSH1 0xA0 SHL SUB AND PUSH2 0x806 JUMP JUMPDEST STOP JUMPDEST PUSH2 0x2FB PUSH1 0x4 DUP1 CALLDATASIZE SUB PUSH1 0x40 DUP2 LT ISZERO PUSH2 0x313 JUMPI PUSH1 0x0 DUP1 REVERT JUMPDEST POP DUP1 CALLDATALOAD SWAP1 PUSH1 0x20 ADD CALLDATALOAD PUSH1 0x1 PUSH1 0x1 PUSH1 0xA0 SHL SUB AND PUSH2 0x872 JUMP JUMPDEST PUSH2 0x2FB PUSH2 0x8D3 JUMP JUMPDEST PUSH2 0x2FB PUSH1 0x4 DUP1 CALLDATASIZE SUB PUSH1 0x40 DUP2 LT ISZERO PUSH2 0x347 JUMPI PUSH1 0x0 DUP1 REVERT JUMPDEST POP PUSH1 0x1 PUSH1 0x1 PUSH1 0xA0 SHL SUB DUP2 CALLDATALOAD AND SWAP1 PUSH1 0x20 ADD CALLDATALOAD PUSH2 0x944 JUMP JUMPDEST PUSH2 0x383 PUSH1 0x4 DUP1 CALLDATASIZE SUB PUSH1 0x40 DUP2 LT ISZERO PUSH2 0x373 JUMPI PUSH1 0x0 DUP1 REVERT JUMPDEST POP DUP1 CALLDATALOAD SWAP1 PUSH1 0x20 ADD CALLDATALOAD PUSH1 0xFF AND PUSH2 0xA9E JUMP JUMPDEST PUSH1 0x40 DUP1 MLOAD PUSH1 0xFF SWAP1 SWAP3 AND DUP3 MSTORE MLOAD SWAP1 DUP2 SWAP1 SUB PUSH1 0x20 ADD SWAP1 RETURN JUMPDEST PUSH2 0x2FB PUSH1 0x4 DUP1 CALLDATASIZE SUB PUSH1 0x20 DUP2 LT ISZERO PUSH2 0x3AF JUMPI PUSH1 0x0 DUP1 REVERT JUMPDEST POP CALLDATALOAD PUSH2 0xDB6 JUMP JUMPDEST PUSH2 0x3BE PUSH2 0xFE2 JUMP JUMPDEST PUSH1 0x40 DUP1 MLOAD SWAP2 ISZERO ISZERO DUP3 MSTORE MLOAD SWAP1 DUP2 SWAP1 SUB PUSH1 0x20 ADD SWAP1 RETURN JUMPDEST PUSH2 0x1CB PUSH1 0x4 DUP1 CALLDATASIZE SUB PUSH1 0x40 DUP2 LT ISZERO PUSH2 0x3E8 JUMPI PUSH1 0x0 DUP1 REVERT JUMPDEST POP DUP1 CALLDATALOAD SWAP1 PUSH1 0x20 ADD CALLDATALOAD PUSH2 0xFEB JUMP JUMPDEST PUSH2 0x383 PUSH1 0x4 DUP1 CALLDATASIZE SUB PUSH1 0x40 DUP2 LT ISZERO PUSH2 0x40B JUMPI PUSH1 0x0 DUP1 REVERT JUMPDEST POP DUP1 CALLDATALOAD SWAP1 PUSH1 0x20 ADD CALLDATALOAD PUSH1 0xFF AND PUSH2 0x122B JUMP JUMPDEST PUSH2 0x2FB PUSH2 0x14EF JUMP JUMPDEST PUSH2 0x44C PUSH1 0x4 DUP1 CALLDATASIZE SUB PUSH1 0x40 DUP2 LT ISZERO PUSH2 0x439 JUMPI PUSH1 0x0 DUP1 REVERT JUMPDEST POP DUP1 CALLDATALOAD SWAP1 PUSH1 0x20 ADD CALLDATALOAD PUSH4 0xFFFFFFFF AND PUSH2 0x155E JUMP JUMPDEST PUSH1 0x40 DUP1 MLOAD PUSH4 0xFFFFFFFF SWAP1 SWAP3 AND DUP3 MSTORE MLOAD SWAP1 DUP2 SWAP1 SUB PUSH1 0x20 ADD SWAP1 RETURN JUMPDEST PUSH2 0x488 PUSH1 0x4 DUP1 CALLDATASIZE SUB PUSH1 0x40 DUP2 LT ISZERO PUSH2 0x47B JUMPI PUSH1 0x0 DUP1 REVERT JUMPDEST POP DUP1 CALLDATALOAD SWAP1 PUSH1 0x20 ADD CALLDATALOAD PUSH2 0x1786 JUMP JUMPDEST PUSH1 0x40 DUP1 MLOAD PUSH1 0x1 PUSH1 0x1 PUSH1 0xA0 SHL SUB SWAP1 SWAP3 AND DUP3 MSTORE MLOAD SWAP1 DUP2 SWAP1 SUB PUSH1 0x20 ADD SWAP1 RETURN JUMPDEST PUSH2 0x3BE PUSH1 0x4 DUP1 CALLDATASIZE SUB PUSH1 0x40 DUP2 LT ISZERO PUSH2 0x4BA JUMPI PUSH1 0x0 DUP1 REVERT JUMPDEST POP DUP1 CALLDATALOAD SWAP1 PUSH1 0x20 ADD CALLDATALOAD PUSH1 0x1 PUSH1 0x1 PUSH1 0xA0 SHL SUB AND PUSH2 0x17A7 JUMP JUMPDEST PUSH2 0x2FB PUSH1 0x4 DUP1 CALLDATASIZE SUB PUSH1 0x40 DUP2 LT ISZERO PUSH2 0x4E6 JUMPI PUSH1 0x0 DUP1 REVERT JUMPDEST POP PUSH1 0x1 PUSH1 0x1 PUSH1 0xA0 SHL SUB DUP2 CALLDATALOAD AND SWAP1 PUSH1 0x20 ADD CALLDATALOAD PUSH2 0x17BF JUMP JUMPDEST PUSH2 0x1CB PUSH2 0x18FD JUMP JUMPDEST PUSH2 0x1CB PUSH1 0x4 DUP1 CALLDATASIZE SUB PUSH1 0x20 DUP2 LT ISZERO PUSH2 0x51A JUMPI PUSH1 0x0 DUP1 REVERT JUMPDEST POP CALLDATALOAD PUSH2 0x1902 JUMP JUMPDEST PUSH2 0x2FB PUSH1 0x4 DUP1 CALLDATASIZE SUB PUSH1 0x40 DUP2 LT ISZERO PUSH2 0x537 JUMPI PUSH1 0x0 DUP1 REVERT JUMPDEST POP DUP1 CALLDATALOAD SWAP1 PUSH1 0x20 ADD CALLDATALOAD PUSH1 0x1 PUSH1 0x1 PUSH1 0xA0 SHL SUB AND PUSH2 0x1919 JUMP JUMPDEST PUSH2 0x2FB PUSH1 0x4 DUP1 CALLDATASIZE SUB PUSH1 0x20 DUP2 LT ISZERO PUSH2 0x563 JUMPI PUSH1 0x0 DUP1 REVERT JUMPDEST POP CALLDATALOAD PUSH1 0x1 PUSH1 0x1 PUSH1 0xA0 SHL SUB AND PUSH2 0x1972 JUMP JUMPDEST PUSH2 0x1CB PUSH2 0x1A40 JUMP JUMPDEST PUSH2 0x2FB PUSH2 0x1A64 JUMP JUMPDEST PUSH1 0x0 PUSH1 0x2 PUSH1 0x0 SLOAD EQ ISZERO PUSH2 0x5DD JUMPI PUSH1 0x40 DUP1 MLOAD PUSH3 0x461BCD PUSH1 0xE5 SHL DUP2 MSTORE PUSH1 0x20 PUSH1 0x4 DUP3 ADD MSTORE PUSH1 0x1F PUSH1 0x24 DUP3 ADD MSTORE PUSH32 0x5265656E7472616E637947756172643A207265656E7472616E742063616C6C00 PUSH1 0x44 DUP3 ADD MSTORE SWAP1 MLOAD SWAP1 DUP2 SWAP1 SUB PUSH1 0x64 ADD SWAP1 REVERT JUMPDEST PUSH1 0x2 PUSH1 0x0 DUP2 SWAP1 SSTORE SLOAD PUSH1 0xFF AND ISZERO PUSH2 0x62D JUMPI PUSH1 0x40 DUP1 MLOAD PUSH3 0x461BCD PUSH1 0xE5 SHL DUP2 MSTORE PUSH1 0x20 PUSH1 0x4 DUP3 ADD MSTORE PUSH1 0x10 PUSH1 0x24 DUP3 ADD MSTORE PUSH16 0x14185D5CD8589B194E881C185D5CD959 PUSH1 0x82 SHL PUSH1 0x44 DUP3 ADD MSTORE SWAP1 MLOAD SWAP1 DUP2 SWAP1 SUB PUSH1 0x64 ADD SWAP1 REVERT JUMPDEST DUP3 DUP1 PUSH2 0x637 PUSH2 0x2314 JUMP JUMPDEST PUSH1 0x9 SLOAD PUSH1 0x40 DUP1 MLOAD PUSH4 0x31A9108F PUSH1 0xE1 SHL DUP2 MSTORE PUSH1 0x4 DUP2 ADD DUP6 SWAP1 MSTORE SWAP1 MLOAD PUSH1 0x1 PUSH1 0x1 PUSH1 0xA0 SHL SUB SWAP4 DUP5 AND SWAP4 SWAP1 SWAP3 AND SWAP2 PUSH4 0x6352211E SWAP2 PUSH1 0x24 DUP1 DUP3 ADD SWAP3 PUSH1 0x20 SWAP3 SWAP1 SWAP2 SWAP1 DUP3 SWAP1 SUB ADD DUP2 PUSH1 0x0 DUP8 DUP1 EXTCODESIZE ISZERO DUP1 ISZERO PUSH2 0x689 JUMPI PUSH1 0x0 DUP1 REVERT JUMPDEST POP GAS CALL ISZERO DUP1 ISZERO PUSH2 0x69D JUMPI RETURNDATASIZE PUSH1 0x0 DUP1 RETURNDATACOPY RETURNDATASIZE PUSH1 0x0 REVERT JUMPDEST POP POP POP POP PUSH1 0x40 MLOAD RETURNDATASIZE PUSH1 0x20 DUP2 LT ISZERO PUSH2 0x6B3 JUMPI PUSH1 0x0 DUP1 REVERT JUMPDEST POP MLOAD PUSH1 0x1 PUSH1 0x1 PUSH1 0xA0 SHL SUB AND EQ PUSH2 0x6FA JUMPI PUSH1 0x40 MLOAD PUSH3 0x461BCD PUSH1 0xE5 SHL DUP2 MSTORE PUSH1 0x4 ADD DUP1 DUP1 PUSH1 0x20 ADD DUP3 DUP2 SUB DUP3 MSTORE PUSH1 0x27 DUP2 MSTORE PUSH1 0x20 ADD DUP1 PUSH2 0x2E41 PUSH1 0x27 SWAP2 CODECOPY PUSH1 0x40 ADD SWAP2 POP POP PUSH1 0x40 MLOAD DUP1 SWAP2 SUB SWAP1 REVERT JUMPDEST PUSH2 0x702 PUSH2 0x2BB1 JUMP JUMPDEST PUSH2 0x70B DUP7 PUSH2 0x2318 JUMP JUMPDEST SWAP1 POP PUSH2 0x71A DUP2 PUSH1 0x0 ADD MLOAD PUSH2 0x249A JUMP JUMPDEST PUSH1 0xFF AND ISZERO PUSH2 0x759 JUMPI PUSH1 0x40 MLOAD PUSH3 0x461BCD PUSH1 0xE5 SHL DUP2 MSTORE PUSH1 0x4 ADD DUP1 DUP1 PUSH1 0x20 ADD DUP3 DUP2 SUB DUP3 MSTORE PUSH1 0x3F DUP2 MSTORE PUSH1 0x20 ADD DUP1 PUSH2 0x2E02 PUSH1 0x3F SWAP2 CODECOPY PUSH1 0x40 ADD SWAP2 POP POP PUSH1 0x40 MLOAD DUP1 SWAP2 SUB SWAP1 REVERT JUMPDEST PUSH1 0xE0 DUP2 ADD DUP6 SWAP1 MSTORE PUSH2 0x76A DUP7 DUP3 PUSH2 0x24E9 JUMP JUMPDEST PUSH1 0xE0 ADD MLOAD PUSH1 0x1 PUSH1 0x0 SSTORE SWAP6 SWAP5 POP POP POP POP POP JUMP JUMPDEST PUSH32 0x7F1E4E9F3D9BA0452A25CFEF4CD4C6FFC86158D06ED2F585FA0093E12DEC429C DUP2 JUMP JUMPDEST PUSH32 0x150B7A0200000000000000000000000000000000000000000000000000000000 SWAP6 SWAP5 POP POP POP POP POP JUMP JUMPDEST PUSH32 0x2CE8D04A9C35987429AF538825CD2438CC5C5BB5DC427955F84DAAA3EA105016 DUP2 JUMP JUMPDEST PUSH1 0x0 DUP2 DUP2 MSTORE PUSH1 0x1 PUSH1 0x20 MSTORE PUSH1 0x40 SWAP1 KECCAK256 PUSH1 0x2 ADD SLOAD JUMPDEST SWAP2 SWAP1 POP JUMP JUMPDEST PUSH1 0x0 DUP3 DUP2 MSTORE PUSH1 0x1 PUSH1 0x20 MSTORE PUSH1 0x40 SWAP1 KECCAK256 PUSH1 0x2 ADD SLOAD PUSH2 0x829 SWAP1 PUSH2 0x824 PUSH2 0x2314 JUMP JUMPDEST PUSH2 0x17A7 JUMP JUMPDEST PUSH2 0x864 JUMPI PUSH1 0x40 MLOAD PUSH3 0x461BCD PUSH1 0xE5 SHL DUP2 MSTORE PUSH1 0x4 ADD DUP1 DUP1 PUSH1 0x20 ADD DUP3 DUP2 SUB DUP3 MSTORE PUSH1 0x2F DUP2 MSTORE PUSH1 0x20 ADD DUP1 PUSH2 0x2C55 PUSH1 0x2F SWAP2 CODECOPY PUSH1 0x40 ADD SWAP2 POP POP PUSH1 0x40 MLOAD DUP1 SWAP2 SUB SWAP1 REVERT JUMPDEST PUSH2 0x86E DUP3 DUP3 PUSH2 0x25C2 JUMP JUMPDEST POP POP JUMP JUMPDEST PUSH2 0x87A PUSH2 0x2314 JUMP JUMPDEST PUSH1 0x1 PUSH1 0x1 PUSH1 0xA0 SHL SUB AND DUP2 PUSH1 0x1 PUSH1 0x1 PUSH1 0xA0 SHL SUB AND EQ PUSH2 0x8C9 JUMPI PUSH1 0x40 MLOAD PUSH3 0x461BCD PUSH1 0xE5 SHL DUP2 MSTORE PUSH1 0x4 ADD DUP1 DUP1 PUSH1 0x20 ADD DUP3 DUP2 SUB DUP3 MSTORE PUSH1 0x2F DUP2 MSTORE PUSH1 0x20 ADD DUP1 PUSH2 0x2FA5 PUSH1 0x2F SWAP2 CODECOPY PUSH1 0x40 ADD SWAP2 POP POP PUSH1 0x40 MLOAD DUP1 SWAP2 SUB SWAP1 REVERT JUMPDEST PUSH2 0x86E DUP3 DUP3 PUSH2 0x262B JUMP JUMPDEST PUSH2 0x8FF PUSH32 0x65D7A28E3265B37A6474929F336521B332C1681B933F6CB9F3376673440D862A PUSH2 0x824 PUSH2 0x2314 JUMP JUMPDEST PUSH2 0x93A JUMPI PUSH1 0x40 MLOAD PUSH3 0x461BCD PUSH1 0xE5 SHL DUP2 MSTORE PUSH1 0x4 ADD DUP1 DUP1 PUSH1 0x20 ADD DUP3 DUP2 SUB DUP3 MSTORE PUSH1 0x27 DUP2 MSTORE PUSH1 0x20 ADD DUP1 PUSH2 0x2F33 PUSH1 0x27 SWAP2 CODECOPY PUSH1 0x40 ADD SWAP2 POP POP PUSH1 0x40 MLOAD DUP1 SWAP2 SUB SWAP1 REVERT JUMPDEST PUSH2 0x942 PUSH2 0x2694 JUMP JUMPDEST JUMP JUMPDEST PUSH1 0x2 PUSH1 0x0 SLOAD EQ ISZERO PUSH2 0x99C JUMPI PUSH1 0x40 DUP1 MLOAD PUSH3 0x461BCD PUSH1 0xE5 SHL DUP2 MSTORE PUSH1 0x20 PUSH1 0x4 DUP3 ADD MSTORE PUSH1 0x1F PUSH1 0x24 DUP3 ADD MSTORE PUSH32 0x5265656E7472616E637947756172643A207265656E7472616E742063616C6C00 PUSH1 0x44 DUP3 ADD MSTORE SWAP1 MLOAD SWAP1 DUP2 SWAP1 SUB PUSH1 0x64 ADD SWAP1 REVERT JUMPDEST PUSH1 0x2 PUSH1 0x0 SSTORE PUSH2 0x9CD PUSH32 0x7F1E4E9F3D9BA0452A25CFEF4CD4C6FFC86158D06ED2F585FA0093E12DEC429C PUSH2 0x824 PUSH2 0x2314 JUMP JUMPDEST PUSH2 0xA1E JUMPI PUSH1 0x40 DUP1 MLOAD PUSH3 0x461BCD PUSH1 0xE5 SHL DUP2 MSTORE PUSH1 0x20 PUSH1 0x4 DUP3 ADD MSTORE PUSH1 0x1E PUSH1 0x24 DUP3 ADD MSTORE PUSH32 0x423A54583A4D75737420686176652041535345545F545846525F524F4C450000 PUSH1 0x44 DUP3 ADD MSTORE SWAP1 MLOAD SWAP1 DUP2 SWAP1 SUB PUSH1 0x64 ADD SWAP1 REVERT JUMPDEST PUSH1 0x9 SLOAD PUSH1 0x40 DUP1 MLOAD PUSH4 0x21421707 PUSH1 0xE1 SHL DUP2 MSTORE ADDRESS PUSH1 0x4 DUP3 ADD MSTORE PUSH1 0x1 PUSH1 0x1 PUSH1 0xA0 SHL SUB DUP6 DUP2 AND PUSH1 0x24 DUP4 ADD MSTORE PUSH1 0x44 DUP3 ADD DUP6 SWAP1 MSTORE SWAP2 MLOAD DUP5 SWAP4 SWAP3 SWAP1 SWAP3 AND SWAP2 PUSH4 0x42842E0E SWAP2 PUSH1 0x64 DUP1 DUP3 ADD SWAP3 PUSH1 0x0 SWAP3 SWAP1 SWAP2 SWAP1 DUP3 SWAP1 SUB ADD DUP2 DUP4 DUP8 DUP1 EXTCODESIZE ISZERO DUP1 ISZERO PUSH2 0xA7C JUMPI PUSH1 0x0 DUP1 REVERT JUMPDEST POP GAS CALL ISZERO DUP1 ISZERO PUSH2 0xA90 JUMPI RETURNDATASIZE PUSH1 0x0 DUP1 RETURNDATACOPY RETURNDATASIZE PUSH1 0x0 REVERT JUMPDEST POP POP PUSH1 0x1 PUSH1 0x0 SSTORE POP POP POP POP POP JUMP JUMPDEST PUSH1 0x0 PUSH1 0x2 PUSH1 0x0 SLOAD EQ ISZERO PUSH2 0xAF8 JUMPI PUSH1 0x40 DUP1 MLOAD PUSH3 0x461BCD PUSH1 0xE5 SHL DUP2 MSTORE PUSH1 0x20 PUSH1 0x4 DUP3 ADD MSTORE PUSH1 0x1F PUSH1 0x24 DUP3 ADD MSTORE PUSH32 0x5265656E7472616E637947756172643A207265656E7472616E742063616C6C00 PUSH1 0x44 DUP3 ADD MSTORE SWAP1 MLOAD SWAP1 DUP2 SWAP1 SUB PUSH1 0x64 ADD SWAP1 REVERT JUMPDEST PUSH1 0x2 PUSH1 0x0 DUP2 SWAP1 SSTORE SLOAD PUSH1 0xFF AND ISZERO PUSH2 0xB48 JUMPI PUSH1 0x40 DUP1 MLOAD PUSH3 0x461BCD PUSH1 0xE5 SHL DUP2 MSTORE PUSH1 0x20 PUSH1 0x4 DUP3 ADD MSTORE PUSH1 0x10 PUSH1 0x24 DUP3 ADD MSTORE PUSH16 0x14185D5CD8589B194E881C185D5CD959 PUSH1 0x82 SHL PUSH1 0x44 DUP3 ADD MSTORE SWAP1 MLOAD SWAP1 DUP2 SWAP1 SUB PUSH1 0x64 ADD SWAP1 REVERT JUMPDEST DUP3 DUP1 PUSH2 0xB52 PUSH2 0x2314 JUMP JUMPDEST PUSH1 0x9 SLOAD PUSH1 0x40 DUP1 MLOAD PUSH4 0x31A9108F PUSH1 0xE1 SHL DUP2 MSTORE PUSH1 0x4 DUP2 ADD DUP6 SWAP1 MSTORE SWAP1 MLOAD PUSH1 0x1 PUSH1 0x1 PUSH1 0xA0 SHL SUB SWAP4 DUP5 AND SWAP4 SWAP1 SWAP3 AND SWAP2 PUSH4 0x6352211E SWAP2 PUSH1 0x24 DUP1 DUP3 ADD SWAP3 PUSH1 0x20 SWAP3 SWAP1 SWAP2 SWAP1 DUP3 SWAP1 SUB ADD DUP2 PUSH1 0x0 DUP8 DUP1 EXTCODESIZE ISZERO DUP1 ISZERO PUSH2 0xBA4 JUMPI PUSH1 0x0 DUP1 REVERT JUMPDEST POP GAS CALL ISZERO DUP1 ISZERO PUSH2 0xBB8 JUMPI RETURNDATASIZE PUSH1 0x0 DUP1 RETURNDATACOPY RETURNDATASIZE PUSH1 0x0 REVERT JUMPDEST POP POP POP POP PUSH1 0x40 MLOAD RETURNDATASIZE PUSH1 0x20 DUP2 LT ISZERO PUSH2 0xBCE JUMPI PUSH1 0x0 DUP1 REVERT JUMPDEST POP MLOAD PUSH1 0x1 PUSH1 0x1 PUSH1 0xA0 SHL SUB AND EQ PUSH2 0xC15 JUMPI PUSH1 0x40 MLOAD PUSH3 0x461BCD PUSH1 0xE5 SHL DUP2 MSTORE PUSH1 0x4 ADD DUP1 DUP1 PUSH1 0x20 ADD DUP3 DUP2 SUB DUP3 MSTORE PUSH1 0x27 DUP2 MSTORE PUSH1 0x20 ADD DUP1 PUSH2 0x2E41 PUSH1 0x27 SWAP2 CODECOPY PUSH1 0x40 ADD SWAP2 POP POP PUSH1 0x40 MLOAD DUP1 SWAP2 SUB SWAP1 REVERT JUMPDEST PUSH2 0xC1D PUSH2 0x2BB1 JUMP JUMPDEST PUSH2 0xC26 DUP7 PUSH2 0x2318 JUMP JUMPDEST SWAP1 POP DUP5 PUSH1 0xFF AND PUSH1 0x7 EQ ISZERO DUP1 ISZERO PUSH2 0xC40 JUMPI POP DUP5 PUSH1 0xFF AND PUSH1 0x39 EQ ISZERO JUMPDEST DUP1 ISZERO PUSH2 0xC50 JUMPI POP DUP5 PUSH1 0xFF AND PUSH1 0x3A EQ ISZERO JUMPDEST DUP1 ISZERO PUSH2 0xC5F JUMPI POP PUSH1 0x64 DUP6 PUSH1 0xFF AND LT JUMPDEST PUSH2 0xCB0 JUMPI PUSH1 0x40 DUP1 MLOAD PUSH3 0x461BCD PUSH1 0xE5 SHL DUP2 MSTORE PUSH1 0x20 PUSH1 0x4 DUP3 ADD MSTORE PUSH1 0x13 PUSH1 0x24 DUP3 ADD MSTORE PUSH32 0x4E504E433A4D533A205374617420527372766400000000000000000000000000 PUSH1 0x44 DUP3 ADD MSTORE SWAP1 MLOAD SWAP1 DUP2 SWAP1 SUB PUSH1 0x64 ADD SWAP1 REVERT JUMPDEST PUSH2 0xCB9 DUP6 PUSH2 0x249A JUMP JUMPDEST PUSH1 0xFF AND ISZERO PUSH2 0xCF8 JUMPI PUSH1 0x40 MLOAD PUSH3 0x461BCD PUSH1 0xE5 SHL DUP2 MSTORE PUSH1 0x4 ADD DUP1 DUP1 PUSH1 0x20 ADD DUP3 DUP2 SUB DUP3 MSTORE PUSH1 0x5A DUP2 MSTORE PUSH1 0x20 ADD DUP1 PUSH2 0x2ED9 PUSH1 0x5A SWAP2 CODECOPY PUSH1 0x60 ADD SWAP2 POP POP PUSH1 0x40 MLOAD DUP1 SWAP2 SUB SWAP1 REVERT JUMPDEST PUSH1 0x31 DUP6 PUSH1 0xFF AND GT DUP1 ISZERO PUSH2 0xD12 JUMPI POP PUSH1 0x31 DUP2 PUSH1 0x0 ADD MLOAD PUSH1 0xFF AND GT JUMPDEST PUSH2 0xD4D JUMPI PUSH1 0x40 MLOAD PUSH3 0x461BCD PUSH1 0xE5 SHL DUP2 MSTORE PUSH1 0x4 ADD DUP1 DUP1 PUSH1 0x20 ADD DUP3 DUP2 SUB DUP3 MSTORE PUSH1 0x3F DUP2 MSTORE PUSH1 0x20 ADD DUP1 PUSH2 0x2D39 PUSH1 0x3F SWAP2 CODECOPY PUSH1 0x40 ADD SWAP2 POP POP PUSH1 0x40 MLOAD DUP1 SWAP2 SUB SWAP1 REVERT JUMPDEST DUP1 MLOAD PUSH2 0xD58 SWAP1 PUSH2 0x249A JUMP JUMPDEST PUSH1 0xFF AND ISZERO PUSH2 0xD97 JUMPI PUSH1 0x40 MLOAD PUSH3 0x461BCD PUSH1 0xE5 SHL DUP2 MSTORE PUSH1 0x4 ADD DUP1 DUP1 PUSH1 0x20 ADD DUP3 DUP2 SUB DUP3 MSTORE PUSH1 0x44 DUP2 MSTORE PUSH1 0x20 ADD DUP1 PUSH2 0x2E95 PUSH1 0x44 SWAP2 CODECOPY PUSH1 0x60 ADD SWAP2 POP POP PUSH1 0x40 MLOAD DUP1 SWAP2 SUB SWAP1 REVERT JUMPDEST PUSH1 0xFF DUP6 AND DUP2 MSTORE PUSH2 0xDA7 DUP7 DUP3 PUSH2 0x273B JUMP JUMPDEST MLOAD PUSH1 0x1 PUSH1 0x0 SSTORE SWAP6 SWAP5 POP POP POP POP POP JUMP JUMPDEST PUSH1 0x2 SLOAD PUSH1 0xFF AND ISZERO PUSH2 0xE01 JUMPI PUSH1 0x40 DUP1 MLOAD PUSH3 0x461BCD PUSH1 0xE5 SHL DUP2 MSTORE PUSH1 0x20 PUSH1 0x4 DUP3 ADD MSTORE PUSH1 0x10 PUSH1 0x24 DUP3 ADD MSTORE PUSH16 0x14185D5CD8589B194E881C185D5CD959 PUSH1 0x82 SHL PUSH1 0x44 DUP3 ADD MSTORE SWAP1 MLOAD SWAP1 DUP2 SWAP1 SUB PUSH1 0x64 ADD SWAP1 REVERT JUMPDEST DUP1 DUP1 PUSH2 0xE0B PUSH2 0x2314 JUMP JUMPDEST PUSH1 0x9 SLOAD PUSH1 0x40 DUP1 MLOAD PUSH4 0x31A9108F PUSH1 0xE1 SHL DUP2 MSTORE PUSH1 0x4 DUP2 ADD DUP6 SWAP1 MSTORE SWAP1 MLOAD PUSH1 0x1 PUSH1 0x1 PUSH1 0xA0 SHL SUB SWAP4 DUP5 AND SWAP4 SWAP1 SWAP3 AND SWAP2 PUSH4 0x6352211E SWAP2 PUSH1 0x24 DUP1 DUP3 ADD SWAP3 PUSH1 0x20 SWAP3 SWAP1 SWAP2 SWAP1 DUP3 SWAP1 SUB ADD DUP2 PUSH1 0x0 DUP8 DUP1 EXTCODESIZE ISZERO DUP1 ISZERO PUSH2 0xE5D JUMPI PUSH1 0x0 DUP1 REVERT JUMPDEST POP GAS CALL ISZERO DUP1 ISZERO PUSH2 0xE71 JUMPI RETURNDATASIZE PUSH1 0x0 DUP1 RETURNDATACOPY RETURNDATASIZE PUSH1 0x0 REVERT JUMPDEST POP POP POP POP PUSH1 0x40 MLOAD RETURNDATASIZE PUSH1 0x20 DUP2 LT ISZERO PUSH2 0xE87 JUMPI PUSH1 0x0 DUP1 REVERT JUMPDEST POP MLOAD PUSH1 0x1 PUSH1 0x1 PUSH1 0xA0 SHL SUB AND EQ PUSH2 0xECE JUMPI PUSH1 0x40 MLOAD PUSH3 0x461BCD PUSH1 0xE5 SHL DUP2 MSTORE PUSH1 0x4 ADD DUP1 DUP1 PUSH1 0x20 ADD DUP3 DUP2 SUB DUP3 MSTORE PUSH1 0x27 DUP2 MSTORE PUSH1 0x20 ADD DUP1 PUSH2 0x2E41 PUSH1 0x27 SWAP2 CODECOPY PUSH1 0x40 ADD SWAP2 POP POP PUSH1 0x40 MLOAD DUP1 SWAP2 SUB SWAP1 REVERT JUMPDEST PUSH2 0xED6 PUSH2 0x2BB1 JUMP JUMPDEST PUSH2 0xEDF DUP5 PUSH2 0x2318 JUMP JUMPDEST SWAP1 POP PUSH2 0xEE9 PUSH2 0x2BFD JUMP JUMPDEST PUSH2 0xEF6 DUP3 PUSH1 0x20 ADD MLOAD PUSH2 0x282C JUMP JUMPDEST SWAP1 POP DUP2 PUSH1 0x0 ADD MLOAD PUSH1 0xFF AND PUSH1 0x33 EQ PUSH2 0xF3E JUMPI PUSH1 0x40 MLOAD PUSH3 0x461BCD PUSH1 0xE5 SHL DUP2 MSTORE PUSH1 0x4 ADD DUP1 DUP1 PUSH1 0x20 ADD DUP3 DUP2 SUB DUP3 MSTORE PUSH1 0x2D DUP2 MSTORE PUSH1 0x20 ADD DUP1 PUSH2 0x2E68 PUSH1 0x2D SWAP2 CODECOPY PUSH1 0x40 ADD SWAP2 POP POP PUSH1 0x40 MLOAD DUP1 SWAP2 SUB SWAP1 REVERT JUMPDEST PUSH1 0x46 DUP3 MSTORE PUSH2 0xF4C DUP6 DUP4 PUSH2 0x273B JUMP JUMPDEST PUSH1 0x3 SLOAD PUSH1 0x20 DUP3 ADD MLOAD PUSH1 0x40 DUP1 MLOAD PUSH32 0x62A02F8600000000000000000000000000000000000000000000000000000000 DUP2 MSTORE PUSH1 0x4 DUP2 ADD DUP10 SWAP1 MSTORE PUSH4 0xFFFFFFFF SWAP1 SWAP3 AND PUSH1 0x24 DUP4 ADD MSTORE MLOAD PUSH1 0x1 PUSH1 0x1 PUSH1 0xA0 SHL SUB SWAP1 SWAP3 AND SWAP2 PUSH4 0x62A02F86 SWAP2 PUSH1 0x44 DUP1 DUP3 ADD SWAP3 PUSH1 0x0 SWAP3 SWAP1 SWAP2 SWAP1 DUP3 SWAP1 SUB ADD DUP2 DUP4 DUP8 DUP1 EXTCODESIZE ISZERO DUP1 ISZERO PUSH2 0xFC3 JUMPI PUSH1 0x0 DUP1 REVERT JUMPDEST POP GAS CALL ISZERO DUP1 ISZERO PUSH2 0xFD7 JUMPI RETURNDATASIZE PUSH1 0x0 DUP1 RETURNDATACOPY RETURNDATASIZE PUSH1 0x0 REVERT JUMPDEST POP POP POP POP POP POP POP POP POP JUMP JUMPDEST PUSH1 0x2 SLOAD PUSH1 0xFF AND SWAP1 JUMP JUMPDEST PUSH1 0x0 PUSH1 0x2 PUSH1 0x0 SLOAD EQ ISZERO PUSH2 0x1045 JUMPI PUSH1 0x40 DUP1 MLOAD PUSH3 0x461BCD PUSH1 0xE5 SHL DUP2 MSTORE PUSH1 0x20 PUSH1 0x4 DUP3 ADD MSTORE PUSH1 0x1F PUSH1 0x24 DUP3 ADD MSTORE PUSH32 0x5265656E7472616E637947756172643A207265656E7472616E742063616C6C00 PUSH1 0x44 DUP3 ADD MSTORE SWAP1 MLOAD SWAP1 DUP2 SWAP1 SUB PUSH1 0x64 ADD SWAP1 REVERT JUMPDEST PUSH1 0x2 PUSH1 0x0 DUP2 SWAP1 SSTORE SLOAD PUSH1 0xFF AND ISZERO PUSH2 0x1095 JUMPI PUSH1 0x40 DUP1 MLOAD PUSH3 0x461BCD PUSH1 0xE5 SHL DUP2 MSTORE PUSH1 0x20 PUSH1 0x4 DUP3 ADD MSTORE PUSH1 0x10 PUSH1 0x24 DUP3 ADD MSTORE PUSH16 0x14185D5CD8589B194E881C185D5CD959 PUSH1 0x82 SHL PUSH1 0x44 DUP3 ADD MSTORE SWAP1 MLOAD SWAP1 DUP2 SWAP1 SUB PUSH1 0x64 ADD SWAP1 REVERT JUMPDEST DUP3 DUP1 PUSH2 0x109F PUSH2 0x2314 JUMP JUMPDEST PUSH1 0x9 SLOAD PUSH1 0x40 DUP1 MLOAD PUSH4 0x31A9108F PUSH1 0xE1 SHL DUP2 MSTORE PUSH1 0x4 DUP2 ADD DUP6 SWAP1 MSTORE SWAP1 MLOAD PUSH1 0x1 PUSH1 0x1 PUSH1 0xA0 SHL SUB SWAP4 DUP5 AND SWAP4 SWAP1 SWAP3 AND SWAP2 PUSH4 0x6352211E SWAP2 PUSH1 0x24 DUP1 DUP3 ADD SWAP3 PUSH1 0x20 SWAP3 SWAP1 SWAP2 SWAP1 DUP3 SWAP1 SUB ADD DUP2 PUSH1 0x0 DUP8 DUP1 EXTCODESIZE ISZERO DUP1 ISZERO PUSH2 0x10F1 JUMPI PUSH1 0x0 DUP1 REVERT JUMPDEST POP GAS CALL ISZERO DUP1 ISZERO PUSH2 0x1105 JUMPI RETURNDATASIZE PUSH1 0x0 DUP1 RETURNDATACOPY RETURNDATASIZE PUSH1 0x0 REVERT JUMPDEST POP POP POP POP PUSH1 0x40 MLOAD RETURNDATASIZE PUSH1 0x20 DUP2 LT ISZERO PUSH2 0x111B JUMPI PUSH1 0x0 DUP1 REVERT JUMPDEST POP MLOAD PUSH1 0x1 PUSH1 0x1 PUSH1 0xA0 SHL SUB AND EQ PUSH2 0x1162 JUMPI PUSH1 0x40 MLOAD PUSH3 0x461BCD PUSH1 0xE5 SHL DUP2 MSTORE PUSH1 0x4 ADD DUP1 DUP1 PUSH1 0x20 ADD DUP3 DUP2 SUB DUP3 MSTORE PUSH1 0x27 DUP2 MSTORE PUSH1 0x20 ADD DUP1 PUSH2 0x2E41 PUSH1 0x27 SWAP2 CODECOPY PUSH1 0x40 ADD SWAP2 POP POP PUSH1 0x40 MLOAD DUP1 SWAP2 SUB SWAP1 REVERT JUMPDEST PUSH2 0x116A PUSH2 0x2BB1 JUMP JUMPDEST PUSH2 0x1173 DUP7 PUSH2 0x2318 JUMP JUMPDEST SWAP1 POP PUSH2 0x1182 DUP2 PUSH1 0x0 ADD MLOAD PUSH2 0x291B JUMP JUMPDEST PUSH1 0xFF AND ISZERO PUSH2 0x11C1 JUMPI PUSH1 0x40 MLOAD PUSH3 0x461BCD PUSH1 0xE5 SHL DUP2 MSTORE PUSH1 0x4 ADD DUP1 DUP1 PUSH1 0x20 ADD DUP3 DUP2 SUB DUP3 MSTORE PUSH1 0x35 DUP2 MSTORE PUSH1 0x20 ADD DUP1 PUSH2 0x2D9D PUSH1 0x35 SWAP2 CODECOPY PUSH1 0x40 ADD SWAP2 POP POP PUSH1 0x40 MLOAD DUP1 SWAP2 SUB SWAP1 REVERT JUMPDEST DUP1 MLOAD PUSH2 0x11CC SWAP1 PUSH2 0x249A JUMP JUMPDEST PUSH1 0xFF AND ISZERO PUSH2 0x120B JUMPI PUSH1 0x40 MLOAD PUSH3 0x461BCD PUSH1 0xE5 SHL DUP2 MSTORE PUSH1 0x4 ADD DUP1 DUP1 PUSH1 0x20 ADD DUP3 DUP2 SUB DUP3 MSTORE PUSH1 0x4B DUP2 MSTORE PUSH1 0x20 ADD DUP1 PUSH2 0x2F5A PUSH1 0x4B SWAP2 CODECOPY PUSH1 0x60 ADD SWAP2 POP POP PUSH1 0x40 MLOAD DUP1 SWAP2 SUB SWAP1 REVERT JUMPDEST PUSH1 0xC0 DUP2 ADD DUP6 SWAP1 MSTORE PUSH2 0x121C DUP7 DUP3 PUSH2 0x273B JUMP JUMPDEST POP POP PUSH1 0x1 PUSH1 0x0 SSTORE POP SWAP2 SWAP3 SWAP2 POP POP JUMP JUMPDEST PUSH1 0x0 PUSH1 0x2 PUSH1 0x0 SLOAD EQ ISZERO PUSH2 0x1285 JUMPI PUSH1 0x40 DUP1 MLOAD PUSH3 0x461BCD PUSH1 0xE5 SHL DUP2 MSTORE PUSH1 0x20 PUSH1 0x4 DUP3 ADD MSTORE PUSH1 0x1F PUSH1 0x24 DUP3 ADD MSTORE PUSH32 0x5265656E7472616E637947756172643A207265656E7472616E742063616C6C00 PUSH1 0x44 DUP3 ADD MSTORE SWAP1 MLOAD SWAP1 DUP2 SWAP1 SUB PUSH1 0x64 ADD SWAP1 REVERT JUMPDEST PUSH1 0x2 PUSH1 0x0 DUP2 SWAP1 SSTORE SLOAD PUSH1 0xFF AND ISZERO PUSH2 0x12D5 JUMPI PUSH1 0x40 DUP1 MLOAD PUSH3 0x461BCD PUSH1 0xE5 SHL DUP2 MSTORE PUSH1 0x20 PUSH1 0x4 DUP3 ADD MSTORE PUSH1 0x10 PUSH1 0x24 DUP3 ADD MSTORE PUSH16 0x14185D5CD8589B194E881C185D5CD959 PUSH1 0x82 SHL PUSH1 0x44 DUP3 ADD MSTORE SWAP1 MLOAD SWAP1 DUP2 SWAP1 SUB PUSH1 0x64 ADD SWAP1 REVERT JUMPDEST DUP3 DUP1 PUSH2 0x12DF PUSH2 0x2314 JUMP JUMPDEST PUSH1 0x9 SLOAD PUSH1 0x40 DUP1 MLOAD PUSH4 0x31A9108F PUSH1 0xE1 SHL DUP2 MSTORE PUSH1 0x4 DUP2 ADD DUP6 SWAP1 MSTORE SWAP1 MLOAD PUSH1 0x1 PUSH1 0x1 PUSH1 0xA0 SHL SUB SWAP4 DUP5 AND SWAP4 SWAP1 SWAP3 AND SWAP2 PUSH4 0x6352211E SWAP2 PUSH1 0x24 DUP1 DUP3 ADD SWAP3 PUSH1 0x20 SWAP3 SWAP1 SWAP2 SWAP1 DUP3 SWAP1 SUB ADD DUP2 PUSH1 0x0 DUP8 DUP1 EXTCODESIZE ISZERO DUP1 ISZERO PUSH2 0x1331 JUMPI PUSH1 0x0 DUP1 REVERT JUMPDEST POP GAS CALL ISZERO DUP1 ISZERO PUSH2 0x1345 JUMPI RETURNDATASIZE PUSH1 0x0 DUP1 RETURNDATACOPY RETURNDATASIZE PUSH1 0x0 REVERT JUMPDEST POP POP POP POP PUSH1 0x40 MLOAD RETURNDATASIZE PUSH1 0x20 DUP2 LT ISZERO PUSH2 0x135B JUMPI PUSH1 0x0 DUP1 REVERT JUMPDEST POP MLOAD PUSH1 0x1 PUSH1 0x1 PUSH1 0xA0 SHL SUB AND EQ PUSH2 0x13A2 JUMPI PUSH1 0x40 MLOAD PUSH3 0x461BCD PUSH1 0xE5 SHL DUP2 MSTORE PUSH1 0x4 ADD DUP1 DUP1 PUSH1 0x20 ADD DUP3 DUP2 SUB DUP3 MSTORE PUSH1 0x27 DUP2 MSTORE PUSH1 0x20 ADD DUP1 PUSH2 0x2E41 PUSH1 0x27 SWAP2 CODECOPY PUSH1 0x40 ADD SWAP2 POP POP PUSH1 0x40 MLOAD DUP1 SWAP2 SUB SWAP1 REVERT JUMPDEST PUSH2 0x13AA PUSH2 0x2BB1 JUMP JUMPDEST PUSH2 0x13B3 DUP7 PUSH2 0x2318 JUMP JUMPDEST SWAP1 POP PUSH1 0x31 DUP6 PUSH1 0xFF AND GT DUP1 ISZERO PUSH2 0x13CF JUMPI POP PUSH1 0x31 DUP2 PUSH1 0x0 ADD MLOAD PUSH1 0xFF AND GT JUMPDEST PUSH2 0x140A JUMPI PUSH1 0x40 MLOAD PUSH3 0x461BCD PUSH1 0xE5 SHL DUP2 MSTORE PUSH1 0x4 ADD DUP1 DUP1 PUSH1 0x20 ADD DUP3 DUP2 SUB DUP3 MSTORE PUSH1 0x3F DUP2 MSTORE PUSH1 0x20 ADD DUP1 PUSH2 0x2D39 PUSH1 0x3F SWAP2 CODECOPY PUSH1 0x40 ADD SWAP2 POP POP PUSH1 0x40 MLOAD DUP1 SWAP2 SUB SWAP1 REVERT JUMPDEST DUP1 MLOAD PUSH2 0x1415 SWAP1 PUSH2 0x249A JUMP JUMPDEST PUSH1 0xFF AND ISZERO PUSH2 0x1454 JUMPI PUSH1 0x40 MLOAD PUSH3 0x461BCD PUSH1 0xE5 SHL DUP2 MSTORE PUSH1 0x4 ADD DUP1 DUP1 PUSH1 0x20 ADD DUP3 DUP2 SUB DUP3 MSTORE PUSH1 0x51 DUP2 MSTORE PUSH1 0x20 ADD DUP1 PUSH2 0x2CE8 PUSH1 0x51 SWAP2 CODECOPY PUSH1 0x60 ADD SWAP2 POP POP PUSH1 0x40 MLOAD DUP1 SWAP2 SUB SWAP1 REVERT JUMPDEST PUSH1 0xFF DUP6 AND DUP1 DUP3 MSTORE PUSH1 0x3 SLOAD PUSH1 0x40 DUP1 MLOAD PUSH32 0xF22354A600000000000000000000000000000000000000000000000000000000 DUP2 MSTORE PUSH1 0x4 DUP2 ADD DUP11 SWAP1 MSTORE PUSH1 0x24 DUP2 ADD SWAP4 SWAP1 SWAP4 MSTORE MLOAD PUSH1 0x1 PUSH1 0x1 PUSH1 0xA0 SHL SUB SWAP1 SWAP2 AND SWAP2 PUSH4 0xF22354A6 SWAP2 PUSH1 0x44 DUP1 DUP4 ADD SWAP3 PUSH1 0x0 SWAP3 SWAP2 SWAP1 DUP3 SWAP1 SUB ADD DUP2 DUP4 DUP8 DUP1 EXTCODESIZE ISZERO DUP1 ISZERO PUSH2 0x14C7 JUMPI PUSH1 0x0 DUP1 REVERT JUMPDEST POP GAS CALL ISZERO DUP1 ISZERO PUSH2 0x14DB JUMPI RETURNDATASIZE PUSH1 0x0 DUP1 RETURNDATACOPY RETURNDATASIZE PUSH1 0x0 REVERT JUMPDEST POP POP SWAP2 MLOAD PUSH1 0x1 PUSH1 0x0 SSTORE SWAP8 SWAP7 POP POP POP POP POP POP POP JUMP JUMPDEST PUSH2 0x151B PUSH32 0x65D7A28E3265B37A6474929F336521B332C1681B933F6CB9F3376673440D862A PUSH2 0x824 PUSH2 0x2314 JUMP JUMPDEST PUSH2 0x1556 JUMPI PUSH1 0x40 MLOAD PUSH3 0x461BCD PUSH1 0xE5 SHL DUP2 MSTORE PUSH1 0x4 ADD DUP1 DUP1 PUSH1 0x20 ADD DUP3 DUP2 SUB DUP3 MSTORE PUSH1 0x27 DUP2 MSTORE PUSH1 0x20 ADD DUP1 PUSH2 0x2F33 PUSH1 0x27 SWAP2 CODECOPY PUSH1 0x40 ADD SWAP2 POP POP PUSH1 0x40 MLOAD DUP1 SWAP2 SUB SWAP1 REVERT JUMPDEST PUSH2 0x942 PUSH2 0x295F JUMP JUMPDEST PUSH1 0x0 PUSH1 0x2 PUSH1 0x0 SLOAD EQ ISZERO PUSH2 0x15B8 JUMPI PUSH1 0x40 DUP1 MLOAD PUSH3 0x461BCD PUSH1 0xE5 SHL DUP2 MSTORE PUSH1 0x20 PUSH1 0x4 DUP3 ADD MSTORE PUSH1 0x1F PUSH1 0x24 DUP3 ADD MSTORE PUSH32 0x5265656E7472616E637947756172643A207265656E7472616E742063616C6C00 PUSH1 0x44 DUP3 ADD MSTORE SWAP1 MLOAD SWAP1 DUP2 SWAP1 SUB PUSH1 0x64 ADD SWAP1 REVERT JUMPDEST PUSH1 0x2 PUSH1 0x0 DUP2 SWAP1 SSTORE SLOAD PUSH1 0xFF AND ISZERO PUSH2 0x1608 JUMPI PUSH1 0x40 DUP1 MLOAD PUSH3 0x461BCD PUSH1 0xE5 SHL DUP2 MSTORE PUSH1 0x20 PUSH1 0x4 DUP3 ADD MSTORE PUSH1 0x10 PUSH1 0x24 DUP3 ADD MSTORE PUSH16 0x14185D5CD8589B194E881C185D5CD959 PUSH1 0x82 SHL PUSH1 0x44 DUP3 ADD MSTORE SWAP1 MLOAD SWAP1 DUP2 SWAP1 SUB PUSH1 0x64 ADD SWAP1 REVERT JUMPDEST DUP3 DUP1 PUSH2 0x1612 PUSH2 0x2314 JUMP JUMPDEST PUSH1 0x9 SLOAD PUSH1 0x40 DUP1 MLOAD PUSH4 0x31A9108F PUSH1 0xE1 SHL DUP2 MSTORE PUSH1 0x4 DUP2 ADD DUP6 SWAP1 MSTORE SWAP1 MLOAD PUSH1 0x1 PUSH1 0x1 PUSH1 0xA0 SHL SUB SWAP4 DUP5 AND SWAP4 SWAP1 SWAP3 AND SWAP2 PUSH4 0x6352211E SWAP2 PUSH1 0x24 DUP1 DUP3 ADD SWAP3 PUSH1 0x20 SWAP3 SWAP1 SWAP2 SWAP1 DUP3 SWAP1 SUB ADD DUP2 PUSH1 0x0 DUP8 DUP1 EXTCODESIZE ISZERO DUP1 ISZERO PUSH2 0x1664 JUMPI PUSH1 0x0 DUP1 REVERT JUMPDEST POP GAS CALL ISZERO DUP1 ISZERO PUSH2 0x1678 JUMPI RETURNDATASIZE PUSH1 0x0 DUP1 RETURNDATACOPY RETURNDATASIZE PUSH1 0x0 REVERT JUMPDEST POP POP POP POP PUSH1 0x40 MLOAD RETURNDATASIZE PUSH1 0x20 DUP2 LT ISZERO PUSH2 0x168E JUMPI PUSH1 0x0 DUP1 REVERT JUMPDEST POP MLOAD PUSH1 0x1 PUSH1 0x1 PUSH1 0xA0 SHL SUB AND EQ PUSH2 0x16D5 JUMPI PUSH1 0x40 MLOAD PUSH3 0x461BCD PUSH1 0xE5 SHL DUP2 MSTORE PUSH1 0x4 ADD DUP1 DUP1 PUSH1 0x20 ADD DUP3 DUP2 SUB DUP3 MSTORE PUSH1 0x27 DUP2 MSTORE PUSH1 0x20 ADD DUP1 PUSH2 0x2E41 PUSH1 0x27 SWAP2 CODECOPY PUSH1 0x40 ADD SWAP2 POP POP PUSH1 0x40 MLOAD DUP1 SWAP2 SUB SWAP1 REVERT JUMPDEST PUSH2 0x16DD PUSH2 0x2BB1 JUMP JUMPDEST PUSH2 0x16E6 DUP7 PUSH2 0x2318 JUMP JUMPDEST SWAP1 POP PUSH2 0x16F5 DUP2 PUSH1 0x0 ADD MLOAD PUSH2 0x249A JUMP JUMPDEST PUSH1 0xFF AND ISZERO PUSH2 0x1734 JUMPI PUSH1 0x40 MLOAD PUSH3 0x461BCD PUSH1 0xE5 SHL DUP2 MSTORE PUSH1 0x4 ADD DUP1 DUP1 PUSH1 0x20 ADD DUP3 DUP2 SUB DUP3 MSTORE PUSH1 0x3E DUP2 MSTORE PUSH1 0x20 ADD DUP1 PUSH2 0x2C84 PUSH1 0x3E SWAP2 CODECOPY PUSH1 0x40 ADD SWAP2 POP POP PUSH1 0x40 MLOAD DUP1 SWAP2 SUB SWAP1 REVERT JUMPDEST DUP5 PUSH4 0xFFFFFFFF AND DUP2 PUSH1 0x40 ADD MLOAD PUSH4 0xFFFFFFFF AND GT ISZERO PUSH2 0x1762 JUMPI PUSH1 0x40 DUP2 ADD DUP1 MLOAD DUP7 SWAP1 SUB PUSH4 0xFFFFFFFF AND SWAP1 MSTORE PUSH2 0x176A JUMP JUMPDEST PUSH1 0x0 PUSH1 0x40 DUP3 ADD MSTORE JUMPDEST PUSH2 0x1774 DUP7 DUP3 PUSH2 0x273B JUMP JUMPDEST PUSH1 0x40 ADD MLOAD PUSH1 0x1 PUSH1 0x0 SSTORE SWAP6 SWAP5 POP POP POP POP POP JUMP JUMPDEST PUSH1 0x0 DUP3 DUP2 MSTORE PUSH1 0x1 PUSH1 0x20 MSTORE PUSH1 0x40 DUP2 KECCAK256 PUSH2 0x179E SWAP1 DUP4 PUSH2 0x29E0 JUMP JUMPDEST SWAP1 POP JUMPDEST SWAP3 SWAP2 POP POP JUMP JUMPDEST PUSH1 0x0 DUP3 DUP2 MSTORE PUSH1 0x1 PUSH1 0x20 MSTORE PUSH1 0x40 DUP2 KECCAK256 PUSH2 0x179E SWAP1 DUP4 PUSH2 0x29EC JUMP JUMPDEST PUSH2 0x17EB PUSH32 0x2CE8D04A9C35987429AF538825CD2438CC5C5BB5DC427955F84DAAA3EA105016 PUSH2 0x824 PUSH2 0x2314 JUMP JUMPDEST PUSH2 0x1826 JUMPI PUSH1 0x40 MLOAD PUSH3 0x461BCD PUSH1 0xE5 SHL DUP2 MSTORE PUSH1 0x4 ADD DUP1 DUP1 PUSH1 0x20 ADD DUP3 DUP2 SUB DUP3 MSTORE PUSH1 0x26 DUP2 MSTORE PUSH1 0x20 ADD DUP1 PUSH2 0x2CC2 PUSH1 0x26 SWAP2 CODECOPY PUSH1 0x40 ADD SWAP2 POP POP PUSH1 0x40 MLOAD DUP1 SWAP2 SUB SWAP1 REVERT JUMPDEST PUSH1 0x2 PUSH1 0x0 SLOAD EQ ISZERO PUSH2 0x187E JUMPI PUSH1 0x40 DUP1 MLOAD PUSH3 0x461BCD PUSH1 0xE5 SHL DUP2 MSTORE PUSH1 0x20 PUSH1 0x4 DUP3 ADD MSTORE PUSH1 0x1F PUSH1 0x24 DUP3 ADD MSTORE PUSH32 0x5265656E7472616E637947756172643A207265656E7472616E742063616C6C00 PUSH1 0x44 DUP3 ADD MSTORE SWAP1 MLOAD SWAP1 DUP2 SWAP1 SUB PUSH1 0x64 ADD SWAP1 REVERT JUMPDEST PUSH1 0x2 PUSH1 0x0 SWAP1 DUP2 SSTORE PUSH1 0xB SLOAD PUSH1 0x40 DUP1 MLOAD PUSH4 0x21421707 PUSH1 0xE1 SHL DUP2 MSTORE ADDRESS PUSH1 0x4 DUP3 ADD MSTORE PUSH1 0x1 PUSH1 0x1 PUSH1 0xA0 SHL SUB DUP7 DUP2 AND PUSH1 0x24 DUP4 ADD MSTORE PUSH1 0x44 DUP3 ADD DUP7 SWAP1 MSTORE SWAP2 MLOAD SWAP2 SWAP1 SWAP3 AND SWAP3 PUSH4 0x42842E0E SWAP3 PUSH1 0x64 DUP1 DUP3 ADD SWAP4 SWAP2 DUP3 SWAP1 SUB ADD DUP2 DUP4 DUP8 DUP1 EXTCODESIZE ISZERO DUP1 ISZERO PUSH2 0x18DC JUMPI PUSH1 0x0 DUP1 REVERT JUMPDEST POP GAS CALL ISZERO DUP1 ISZERO PUSH2 0x18F0 JUMPI RETURNDATASIZE PUSH1 0x0 DUP1 RETURNDATACOPY RETURNDATASIZE PUSH1 0x0 REVERT JUMPDEST POP POP PUSH1 0x1 PUSH1 0x0 SSTORE POP POP POP POP JUMP JUMPDEST PUSH1 0x0 DUP2 JUMP JUMPDEST PUSH1 0x0 DUP2 DUP2 MSTORE PUSH1 0x1 PUSH1 0x20 MSTORE PUSH1 0x40 DUP2 KECCAK256 PUSH2 0x17A1 SWAP1 PUSH2 0x2A01 JUMP JUMPDEST PUSH1 0x0 DUP3 DUP2 MSTORE PUSH1 0x1 PUSH1 0x20 MSTORE PUSH1 0x40 SWAP1 KECCAK256 PUSH1 0x2 ADD SLOAD PUSH2 0x1937 SWAP1 PUSH2 0x824 PUSH2 0x2314 JUMP JUMPDEST PUSH2 0x8C9 JUMPI PUSH1 0x40 MLOAD PUSH3 0x461BCD PUSH1 0xE5 SHL DUP2 MSTORE PUSH1 0x4 ADD DUP1 DUP1 PUSH1 0x20 ADD DUP3 DUP2 SUB DUP3 MSTORE PUSH1 0x30 DUP2 MSTORE PUSH1 0x20 ADD DUP1 PUSH2 0x2DD2 PUSH1 0x30 SWAP2 CODECOPY PUSH1 0x40 ADD SWAP2 POP POP PUSH1 0x40 MLOAD DUP1 SWAP2 SUB SWAP1 REVERT JUMPDEST PUSH2 0x199E PUSH32 0x2CE8D04A9C35987429AF538825CD2438CC5C5BB5DC427955F84DAAA3EA105016 PUSH2 0x824 PUSH2 0x2314 JUMP JUMPDEST PUSH2 0x19D9 JUMPI PUSH1 0x40 MLOAD PUSH3 0x461BCD PUSH1 0xE5 SHL DUP2 MSTORE PUSH1 0x4 ADD DUP1 DUP1 PUSH1 0x20 ADD DUP3 DUP2 SUB DUP3 MSTORE PUSH1 0x26 DUP2 MSTORE PUSH1 0x20 ADD DUP1 PUSH2 0x2CC2 PUSH1 0x26 SWAP2 CODECOPY PUSH1 0x40 ADD SWAP2 POP POP PUSH1 0x40 MLOAD DUP1 SWAP2 SUB SWAP1 REVERT JUMPDEST PUSH1 0x1 PUSH1 0x1 PUSH1 0xA0 SHL SUB DUP2 AND PUSH2 0x1A1E JUMPI PUSH1 0x40 MLOAD PUSH3 0x461BCD PUSH1 0xE5 SHL DUP2 MSTORE PUSH1 0x4 ADD DUP1 DUP1 PUSH1 0x20 ADD DUP3 DUP2 SUB DUP3 MSTORE PUSH1 0x25 DUP2 MSTORE PUSH1 0x20 ADD DUP1 PUSH2 0x2D78 PUSH1 0x25 SWAP2 CODECOPY PUSH1 0x40 ADD SWAP2 POP POP PUSH1 0x40 MLOAD DUP1 SWAP2 SUB SWAP1 REVERT JUMPDEST PUSH1 0x3 DUP1 SLOAD PUSH1 0x1 PUSH1 0x1 PUSH1 0xA0 SHL SUB NOT AND PUSH1 0x1 PUSH1 0x1 PUSH1 0xA0 SHL SUB SWAP3 SWAP1 SWAP3 AND SWAP2 SWAP1 SWAP2 OR SWAP1 SSTORE JUMP JUMPDEST PUSH32 0x65D7A28E3265B37A6474929F336521B332C1681B933F6CB9F3376673440D862A DUP2 JUMP JUMPDEST PUSH1 0x2 PUSH1 0x0 SLOAD EQ ISZERO PUSH2 0x1ABC JUMPI PUSH1 0x40 DUP1 MLOAD PUSH3 0x461BCD PUSH1 0xE5 SHL DUP2 MSTORE PUSH1 0x20 PUSH1 0x4 DUP3 ADD MSTORE PUSH1 0x1F PUSH1 0x24 DUP3 ADD MSTORE PUSH32 0x5265656E7472616E637947756172643A207265656E7472616E742063616C6C00 PUSH1 0x44 DUP3 ADD MSTORE SWAP1 MLOAD SWAP1 DUP2 SWAP1 SUB PUSH1 0x64 ADD SWAP1 REVERT JUMPDEST PUSH1 0x2 PUSH1 0x0 SSTORE PUSH2 0x1AED PUSH32 0x2CE8D04A9C35987429AF538825CD2438CC5C5BB5DC427955F84DAAA3EA105016 PUSH2 0x824 PUSH2 0x2314 JUMP JUMPDEST PUSH2 0x1B28 JUMPI PUSH1 0x40 MLOAD PUSH3 0x461BCD PUSH1 0xE5 SHL DUP2 MSTORE PUSH1 0x4 ADD DUP1 DUP1 PUSH1 0x20 ADD DUP3 DUP2 SUB DUP3 MSTORE PUSH1 0x26 DUP2 MSTORE PUSH1 0x20 ADD DUP1 PUSH2 0x2CC2 PUSH1 0x26 SWAP2 CODECOPY PUSH1 0x40 ADD SWAP2 POP POP PUSH1 0x40 MLOAD DUP1 SWAP2 SUB SWAP1 REVERT JUMPDEST PUSH1 0x3 SLOAD PUSH1 0x40 DUP1 MLOAD PUSH4 0x63B8D4C1 PUSH1 0xE1 SHL DUP2 MSTORE PUSH1 0x20 PUSH1 0x4 DUP3 ADD DUP2 SWAP1 MSTORE PUSH1 0x6 PUSH1 0x24 DUP4 ADD MSTORE PUSH32 0x41435F544B4E0000000000000000000000000000000000000000000000000000 PUSH1 0x44 DUP4 ADD MSTORE SWAP2 MLOAD PUSH1 0x1 PUSH1 0x1 PUSH1 0xA0 SHL SUB SWAP1 SWAP4 AND SWAP3 PUSH4 0xC771A982 SWAP3 PUSH1 0x64 DUP1 DUP5 ADD SWAP4 SWAP2 SWAP3 SWAP2 DUP3 SWAP1 SUB ADD DUP2 DUP7 DUP1 EXTCODESIZE ISZERO DUP1 ISZERO PUSH2 0x1BA0 JUMPI PUSH1 0x0 DUP1 REVERT JUMPDEST POP GAS STATICCALL ISZERO DUP1 ISZERO PUSH2 0x1BB4 JUMPI RETURNDATASIZE PUSH1 0x0 DUP1 RETURNDATACOPY RETURNDATASIZE PUSH1 0x0 REVERT JUMPDEST POP POP POP POP PUSH1 0x40 MLOAD RETURNDATASIZE PUSH1 0x20 DUP2 LT ISZERO PUSH2 0x1BCA JUMPI PUSH1 0x0 DUP1 REVERT JUMPDEST POP MLOAD PUSH1 0xA DUP1 SLOAD PUSH1 0x1 PUSH1 0x1 PUSH1 0xA0 SHL SUB SWAP3 DUP4 AND PUSH1 0x1 PUSH1 0x1 PUSH1 0xA0 SHL SUB NOT SWAP2 DUP3 AND OR SWAP2 DUP3 SWAP1 SSTORE PUSH1 0xB DUP1 SLOAD SWAP1 SWAP2 AND SWAP2 DUP4 AND SWAP2 SWAP1 SWAP2 OR SWAP1 SSTORE PUSH1 0x3 SLOAD PUSH1 0x40 DUP1 MLOAD PUSH4 0x63B8D4C1 PUSH1 0xE1 SHL DUP2 MSTORE PUSH1 0x20 PUSH1 0x4 DUP3 ADD DUP2 SWAP1 MSTORE PUSH1 0x6 PUSH1 0x24 DUP4 ADD MSTORE PUSH32 0x41435F4D47520000000000000000000000000000000000000000000000000000 PUSH1 0x44 DUP4 ADD MSTORE SWAP2 MLOAD SWAP3 SWAP1 SWAP4 AND SWAP3 PUSH4 0xC771A982 SWAP3 PUSH1 0x64 DUP1 DUP4 ADD SWAP4 SWAP3 DUP3 SWAP1 SUB ADD DUP2 DUP7 DUP1 EXTCODESIZE ISZERO DUP1 ISZERO PUSH2 0x1C6B JUMPI PUSH1 0x0 DUP1 REVERT JUMPDEST POP GAS STATICCALL ISZERO DUP1 ISZERO PUSH2 0x1C7F JUMPI RETURNDATASIZE PUSH1 0x0 DUP1 RETURNDATACOPY RETURNDATASIZE PUSH1 0x0 REVERT JUMPDEST POP POP POP POP PUSH1 0x40 MLOAD RETURNDATASIZE PUSH1 0x20 DUP2 LT ISZERO PUSH2 0x1C95 JUMPI PUSH1 0x0 DUP1 REVERT JUMPDEST POP MLOAD PUSH1 0x4 DUP1 SLOAD PUSH1 0x1 PUSH1 0x1 PUSH1 0xA0 SHL SUB SWAP3 DUP4 AND PUSH1 0x1 PUSH1 0x1 PUSH1 0xA0 SHL SUB NOT SWAP2 DUP3 AND OR DUP1 DUP4 SSTORE PUSH1 0x5 DUP1 SLOAD SWAP1 SWAP3 AND SWAP1 DUP5 AND OR SWAP1 SSTORE PUSH1 0x3 SLOAD PUSH1 0x40 DUP1 MLOAD PUSH4 0x63B8D4C1 PUSH1 0xE1 SHL DUP2 MSTORE PUSH1 0x20 SWAP4 DUP2 ADD DUP5 SWAP1 MSTORE PUSH1 0x8 PUSH1 0x24 DUP3 ADD MSTORE PUSH32 0x5554494C5F544B4E000000000000000000000000000000000000000000000000 PUSH1 0x44 DUP3 ADD MSTORE SWAP1 MLOAD SWAP2 SWAP1 SWAP4 AND SWAP3 PUSH4 0xC771A982 SWAP3 PUSH1 0x64 DUP1 DUP4 ADD SWAP4 SWAP2 SWAP3 DUP3 SWAP1 SUB ADD DUP2 DUP7 DUP1 EXTCODESIZE ISZERO DUP1 ISZERO PUSH2 0x1D32 JUMPI PUSH1 0x0 DUP1 REVERT JUMPDEST POP GAS STATICCALL ISZERO DUP1 ISZERO PUSH2 0x1D46 JUMPI RETURNDATASIZE PUSH1 0x0 DUP1 RETURNDATACOPY RETURNDATASIZE PUSH1 0x0 REVERT JUMPDEST POP POP POP POP PUSH1 0x40 MLOAD RETURNDATASIZE PUSH1 0x20 DUP2 LT ISZERO PUSH2 0x1D5C JUMPI PUSH1 0x0 DUP1 REVERT JUMPDEST POP MLOAD PUSH1 0x6 DUP1 SLOAD PUSH1 0x1 PUSH1 0x1 PUSH1 0xA0 SHL SUB SWAP3 DUP4 AND PUSH1 0x1 PUSH1 0x1 PUSH1 0xA0 SHL SUB NOT SWAP2 DUP3 AND OR SWAP2 DUP3 SWAP1 SSTORE PUSH1 0x7 DUP1 SLOAD SWAP1 SWAP2 AND SWAP2 DUP4 AND SWAP2 SWAP1 SWAP2 OR SWAP1 SSTORE PUSH1 0x3 SLOAD PUSH1 0x40 DUP1 MLOAD PUSH4 0x63B8D4C1 PUSH1 0xE1 SHL DUP2 MSTORE PUSH1 0x20 PUSH1 0x4 DUP3 ADD DUP2 SWAP1 MSTORE PUSH1 0x5 PUSH1 0x24 DUP4 ADD MSTORE PUSH32 0x415F544B4E000000000000000000000000000000000000000000000000000000 PUSH1 0x44 DUP4 ADD MSTORE SWAP2 MLOAD SWAP3 SWAP1 SWAP4 AND SWAP3 PUSH4 0xC771A982 SWAP3 PUSH1 0x64 DUP1 DUP4 ADD SWAP4 SWAP3 DUP3 SWAP1 SUB ADD DUP2 DUP7 DUP1 EXTCODESIZE ISZERO DUP1 ISZERO PUSH2 0x1DFD JUMPI PUSH1 0x0 DUP1 REVERT JUMPDEST POP GAS STATICCALL ISZERO DUP1 ISZERO PUSH2 0x1E11 JUMPI RETURNDATASIZE PUSH1 0x0 DUP1 RETURNDATACOPY RETURNDATASIZE PUSH1 0x0 REVERT JUMPDEST POP POP POP POP PUSH1 0x40 MLOAD RETURNDATASIZE PUSH1 0x20 DUP2 LT ISZERO PUSH2 0x1E27 JUMPI PUSH1 0x0 DUP1 REVERT JUMPDEST POP MLOAD PUSH1 0x8 DUP1 SLOAD PUSH1 0x1 PUSH1 0x1 PUSH1 0xA0 SHL SUB SWAP3 DUP4 AND PUSH1 0x1 PUSH1 0x1 PUSH1 0xA0 SHL SUB NOT SWAP2 DUP3 AND OR SWAP2 DUP3 SWAP1 SSTORE PUSH1 0x9 DUP1 SLOAD SWAP1 SWAP2 AND SWAP2 DUP4 AND SWAP2 SWAP1 SWAP2 OR SWAP1 SSTORE PUSH1 0x3 SLOAD PUSH1 0x40 DUP1 MLOAD PUSH4 0x63B8D4C1 PUSH1 0xE1 SHL DUP2 MSTORE PUSH1 0x20 PUSH1 0x4 DUP3 ADD DUP2 SWAP1 MSTORE PUSH1 0x6 PUSH1 0x24 DUP4 ADD MSTORE PUSH32 0x49445F544B4E0000000000000000000000000000000000000000000000000000 PUSH1 0x44 DUP4 ADD MSTORE SWAP2 MLOAD SWAP3 SWAP1 SWAP4 AND SWAP3 PUSH4 0xC771A982 SWAP3 PUSH1 0x64 DUP1 DUP4 ADD SWAP4 SWAP3 DUP3 SWAP1 SUB ADD DUP2 DUP7 DUP1 EXTCODESIZE ISZERO DUP1 ISZERO PUSH2 0x1EC8 JUMPI PUSH1 0x0 DUP1 REVERT JUMPDEST POP GAS STATICCALL ISZERO DUP1 ISZERO PUSH2 0x1EDC JUMPI RETURNDATASIZE PUSH1 0x0 DUP1 RETURNDATACOPY RETURNDATASIZE PUSH1 0x0 REVERT JUMPDEST POP POP POP POP PUSH1 0x40 MLOAD RETURNDATASIZE PUSH1 0x20 DUP2 LT ISZERO PUSH2 0x1EF2 JUMPI PUSH1 0x0 DUP1 REVERT JUMPDEST POP MLOAD PUSH1 0xC DUP1 SLOAD PUSH1 0x1 PUSH1 0x1 PUSH1 0xA0 SHL SUB SWAP3 DUP4 AND PUSH1 0x1 PUSH1 0x1 PUSH1 0xA0 SHL SUB NOT SWAP2 DUP3 AND OR SWAP2 DUP3 SWAP1 SSTORE PUSH1 0xD DUP1 SLOAD SWAP1 SWAP2 AND SWAP2 DUP4 AND SWAP2 SWAP1 SWAP2 OR SWAP1 SSTORE PUSH1 0x3 SLOAD PUSH1 0x40 DUP1 MLOAD PUSH4 0x63B8D4C1 PUSH1 0xE1 SHL DUP2 MSTORE PUSH1 0x20 PUSH1 0x4 DUP3 ADD DUP2 SWAP1 MSTORE PUSH1 0x7 PUSH1 0x24 DUP4 ADD MSTORE PUSH32 0x4543525F4D475200000000000000000000000000000000000000000000000000 PUSH1 0x44 DUP4 ADD MSTORE SWAP2 MLOAD SWAP3 SWAP1 SWAP4 AND SWAP3 PUSH4 0xC771A982 SWAP3 PUSH1 0x64 DUP1 DUP4 ADD SWAP4 SWAP3 DUP3 SWAP1 SUB ADD DUP2 DUP7 DUP1 EXTCODESIZE ISZERO DUP1 ISZERO PUSH2 0x1F93 JUMPI PUSH1 0x0 DUP1 REVERT JUMPDEST POP GAS STATICCALL ISZERO DUP1 ISZERO PUSH2 0x1FA7 JUMPI RETURNDATASIZE PUSH1 0x0 DUP1 RETURNDATACOPY RETURNDATASIZE PUSH1 0x0 REVERT JUMPDEST POP POP POP POP PUSH1 0x40 MLOAD RETURNDATASIZE PUSH1 0x20 DUP2 LT ISZERO PUSH2 0x1FBD JUMPI PUSH1 0x0 DUP1 REVERT JUMPDEST POP MLOAD PUSH1 0xE DUP1 SLOAD PUSH1 0x1 PUSH1 0x1 PUSH1 0xA0 SHL SUB SWAP3 DUP4 AND PUSH1 0x1 PUSH1 0x1 PUSH1 0xA0 SHL SUB NOT SWAP2 DUP3 AND OR SWAP2 DUP3 SWAP1 SSTORE PUSH1 0xF DUP1 SLOAD SWAP1 SWAP2 AND SWAP2 DUP4 AND SWAP2 SWAP1 SWAP2 OR SWAP1 SSTORE PUSH1 0x3 DUP1 SLOAD PUSH1 0x40 DUP1 MLOAD PUSH4 0x63B8D4C1 PUSH1 0xE1 SHL DUP2 MSTORE PUSH1 0x20 PUSH1 0x4 DUP3 ADD DUP2 SWAP1 MSTORE PUSH1 0x24 DUP3 ADD SWAP5 SWAP1 SWAP5 MSTORE PUSH32 0x4150500000000000000000000000000000000000000000000000000000000000 PUSH1 0x44 DUP3 ADD MSTORE SWAP1 MLOAD SWAP2 SWAP1 SWAP4 AND SWAP3 PUSH4 0xC771A982 SWAP3 PUSH1 0x64 DUP1 DUP4 ADD SWAP4 SWAP2 SWAP3 DUP3 SWAP1 SUB ADD DUP2 DUP7 DUP1 EXTCODESIZE ISZERO DUP1 ISZERO PUSH2 0x2061 JUMPI PUSH1 0x0 DUP1 REVERT JUMPDEST POP GAS STATICCALL ISZERO DUP1 ISZERO PUSH2 0x2075 JUMPI RETURNDATASIZE PUSH1 0x0 DUP1 RETURNDATACOPY RETURNDATASIZE PUSH1 0x0 REVERT JUMPDEST POP POP POP POP PUSH1 0x40 MLOAD RETURNDATASIZE PUSH1 0x20 DUP2 LT ISZERO PUSH2 0x208B JUMPI PUSH1 0x0 DUP1 REVERT JUMPDEST POP MLOAD PUSH1 0x12 DUP1 SLOAD PUSH1 0x1 PUSH1 0x1 PUSH1 0xA0 SHL SUB SWAP3 DUP4 AND PUSH1 0x1 PUSH1 0x1 PUSH1 0xA0 SHL SUB NOT SWAP2 DUP3 AND OR SWAP2 DUP3 SWAP1 SSTORE PUSH1 0x13 DUP1 SLOAD SWAP1 SWAP2 AND SWAP2 DUP4 AND SWAP2 SWAP1 SWAP2 OR SWAP1 SSTORE PUSH1 0x3 SLOAD PUSH1 0x40 DUP1 MLOAD PUSH4 0x63B8D4C1 PUSH1 0xE1 SHL DUP2 MSTORE PUSH1 0x20 PUSH1 0x4 DUP1 DUP4 ADD DUP3 SWAP1 MSTORE PUSH1 0x24 DUP4 ADD MSTORE PUSH32 0x52434C5200000000000000000000000000000000000000000000000000000000 PUSH1 0x44 DUP4 ADD MSTORE SWAP2 MLOAD SWAP3 SWAP1 SWAP4 AND SWAP3 PUSH4 0xC771A982 SWAP3 PUSH1 0x64 DUP1 DUP4 ADD SWAP4 SWAP3 DUP3 SWAP1 SUB ADD DUP2 DUP7 DUP1 EXTCODESIZE ISZERO DUP1 ISZERO PUSH2 0x212B JUMPI PUSH1 0x0 DUP1 REVERT JUMPDEST POP GAS STATICCALL ISZERO DUP1 ISZERO PUSH2 0x213F JUMPI RETURNDATASIZE PUSH1 0x0 DUP1 RETURNDATACOPY RETURNDATASIZE PUSH1 0x0 REVERT JUMPDEST POP POP POP POP PUSH1 0x40 MLOAD RETURNDATASIZE PUSH1 0x20 DUP2 LT ISZERO PUSH2 0x2155 JUMPI PUSH1 0x0 DUP1 REVERT JUMPDEST POP MLOAD PUSH1 0x10 DUP1 SLOAD PUSH1 0x1 PUSH1 0x1 PUSH1 0xA0 SHL SUB SWAP3 DUP4 AND PUSH1 0x1 PUSH1 0x1 PUSH1 0xA0 SHL SUB NOT SWAP2 DUP3 AND OR SWAP2 DUP3 SWAP1 SSTORE PUSH1 0x11 DUP1 SLOAD SWAP1 SWAP2 AND SWAP2 DUP4 AND SWAP2 SWAP1 SWAP2 OR SWAP1 SSTORE PUSH1 0x3 SLOAD PUSH1 0x40 DUP1 MLOAD PUSH4 0x63B8D4C1 PUSH1 0xE1 SHL DUP2 MSTORE PUSH1 0x20 PUSH1 0x4 DUP3 ADD DUP2 SWAP1 MSTORE PUSH1 0x6 PUSH1 0x24 DUP4 ADD MSTORE PUSH32 0x4150505F4E430000000000000000000000000000000000000000000000000000 PUSH1 0x44 DUP4 ADD MSTORE SWAP2 MLOAD SWAP3 SWAP1 SWAP4 AND SWAP3 PUSH4 0xC771A982 SWAP3 PUSH1 0x64 DUP1 DUP4 ADD SWAP4 SWAP3 DUP3 SWAP1 SUB ADD DUP2 DUP7 DUP1 EXTCODESIZE ISZERO DUP1 ISZERO PUSH2 0x21F6 JUMPI PUSH1 0x0 DUP1 REVERT JUMPDEST POP GAS STATICCALL ISZERO DUP1 ISZERO PUSH2 0x220A JUMPI RETURNDATASIZE PUSH1 0x0 DUP1 RETURNDATACOPY RETURNDATASIZE PUSH1 0x0 REVERT JUMPDEST POP POP POP POP PUSH1 0x40 MLOAD RETURNDATASIZE PUSH1 0x20 DUP2 LT ISZERO PUSH2 0x2220 JUMPI PUSH1 0x0 DUP1 REVERT JUMPDEST POP MLOAD PUSH1 0x14 DUP1 SLOAD PUSH1 0x1 PUSH1 0x1 PUSH1 0xA0 SHL SUB NOT AND PUSH1 0x1 PUSH1 0x1 PUSH1 0xA0 SHL SUB SWAP3 DUP4 AND OR SWAP1 SSTORE PUSH1 0x3 SLOAD PUSH1 0x40 DUP1 MLOAD PUSH4 0x63B8D4C1 PUSH1 0xE1 SHL DUP2 MSTORE PUSH1 0x20 PUSH1 0x4 DUP3 ADD DUP2 SWAP1 MSTORE PUSH1 0x2 PUSH1 0x24 DUP4 ADD MSTORE PUSH32 0x4E50000000000000000000000000000000000000000000000000000000000000 PUSH1 0x44 DUP4 ADD MSTORE SWAP2 MLOAD SWAP3 SWAP1 SWAP4 AND SWAP3 PUSH4 0xC771A982 SWAP3 PUSH1 0x64 DUP1 DUP4 ADD SWAP4 SWAP3 DUP3 SWAP1 SUB ADD DUP2 DUP7 DUP1 EXTCODESIZE ISZERO DUP1 ISZERO PUSH2 0x22AD JUMPI PUSH1 0x0 DUP1 REVERT JUMPDEST POP GAS STATICCALL ISZERO DUP1 ISZERO PUSH2 0x22C1 JUMPI RETURNDATASIZE PUSH1 0x0 DUP1 RETURNDATACOPY RETURNDATASIZE PUSH1 0x0 REVERT JUMPDEST POP POP POP POP PUSH1 0x40 MLOAD RETURNDATASIZE PUSH1 0x20 DUP2 LT ISZERO PUSH2 0x22D7 JUMPI PUSH1 0x0 DUP1 REVERT JUMPDEST POP MLOAD PUSH1 0x17 DUP1 SLOAD PUSH1 0x1 PUSH1 0x1 PUSH1 0xA0 SHL SUB NOT AND PUSH1 0x1 PUSH1 0x1 PUSH1 0xA0 SHL SUB SWAP1 SWAP3 AND SWAP2 SWAP1 SWAP2 OR SWAP1 SSTORE PUSH1 0x1 PUSH1 0x0 SSTORE JUMP JUMPDEST PUSH1 0x0 PUSH2 0x179E DUP4 PUSH1 0x1 PUSH1 0x1 PUSH1 0xA0 SHL SUB DUP5 AND PUSH2 0x2A0C JUMP JUMPDEST CALLER SWAP1 JUMP JUMPDEST PUSH2 0x2320 PUSH2 0x2BB1 JUMP JUMPDEST PUSH2 0x2328 PUSH2 0x2BB1 JUMP JUMPDEST PUSH1 0x0 DUP1 PUSH1 0x0 DUP1 PUSH1 0x0 DUP1 PUSH1 0x0 PUSH1 0x3 PUSH1 0x0 SWAP1 SLOAD SWAP1 PUSH2 0x100 EXP SWAP1 DIV PUSH1 0x1 PUSH1 0x1 PUSH1 0xA0 SHL SUB AND PUSH1 0x1 PUSH1 0x1 PUSH1 0xA0 SHL SUB AND PUSH4 0xE248F2C4 DUP12 PUSH1 0x40 MLOAD DUP3 PUSH4 0xFFFFFFFF AND PUSH1 0xE0 SHL DUP2 MSTORE PUSH1 0x4 ADD DUP1 DUP3 DUP2 MSTORE PUSH1 0x20 ADD SWAP2 POP POP PUSH1 0xE0 PUSH1 0x40 MLOAD DUP1 DUP4 SUB DUP2 DUP7 DUP1 EXTCODESIZE ISZERO DUP1 ISZERO PUSH2 0x238C JUMPI PUSH1 0x0 DUP1 REVERT JUMPDEST POP GAS STATICCALL ISZERO DUP1 ISZERO PUSH2 0x23A0 JUMPI RETURNDATASIZE PUSH1 0x0 DUP1 RETURNDATACOPY RETURNDATASIZE PUSH1 0x0 REVERT JUMPDEST POP POP POP POP PUSH1 0x40 MLOAD RETURNDATASIZE PUSH1 0xE0 DUP2 LT ISZERO PUSH2 0x23B6 JUMPI PUSH1 0x0 DUP1 REVERT JUMPDEST DUP2 ADD SWAP1 DUP1 DUP1 MLOAD SWAP1 PUSH1 0x20 ADD SWAP1 SWAP3 SWAP2 SWAP1 DUP1 MLOAD SWAP1 PUSH1 0x20 ADD SWAP1 SWAP3 SWAP2 SWAP1 DUP1 MLOAD SWAP1 PUSH1 0x20 ADD SWAP1 SWAP3 SWAP2 SWAP1 DUP1 MLOAD SWAP1 PUSH1 0x20 ADD SWAP1 SWAP3 SWAP2 SWAP1 DUP1 MLOAD SWAP1 PUSH1 0x20 ADD SWAP1 SWAP3 SWAP2 SWAP1 DUP1 MLOAD SWAP1 PUSH1 0x20 ADD SWAP1 SWAP3 SWAP2 SWAP1 DUP1 MLOAD SWAP1 PUSH1 0x20 ADD SWAP1 SWAP3 SWAP2 SWAP1 POP POP POP SWAP7 POP SWAP7 POP SWAP7 POP SWAP7 POP SWAP7 POP SWAP7 POP SWAP7 POP DUP7 DUP9 PUSH1 0xC0 ADD DUP2 DUP2 MSTORE POP POP DUP6 DUP9 PUSH1 0x0 ADD SWAP1 PUSH1 0xFF AND SWAP1 DUP2 PUSH1 0xFF AND DUP2 MSTORE POP POP DUP5 DUP9 PUSH1 0x20 ADD SWAP1 PUSH4 0xFFFFFFFF AND SWAP1 DUP2 PUSH4 0xFFFFFFFF AND DUP2 MSTORE POP POP DUP4 DUP9 PUSH1 0x40 ADD SWAP1 PUSH4 0xFFFFFFFF AND SWAP1 DUP2 PUSH4 0xFFFFFFFF AND DUP2 MSTORE POP POP DUP3 DUP9 PUSH1 0x60 ADD SWAP1 PUSH4 0xFFFFFFFF AND SWAP1 DUP2 PUSH4 0xFFFFFFFF AND DUP2 MSTORE POP POP DUP2 DUP9 PUSH1 0xE0 ADD DUP2 DUP2 MSTORE POP POP DUP1 DUP9 PUSH2 0x100 ADD DUP2 DUP2 MSTORE POP POP POP POP POP POP POP POP POP DUP1 SWAP2 POP POP SWAP2 SWAP1 POP JUMP JUMPDEST PUSH1 0x0 DUP2 PUSH1 0xFF AND PUSH1 0x5 EQ ISZERO DUP1 ISZERO PUSH2 0x24B4 JUMPI POP DUP2 PUSH1 0xFF AND PUSH1 0x37 EQ ISZERO JUMPDEST DUP1 ISZERO PUSH2 0x24C4 JUMPI POP DUP2 PUSH1 0xFF AND PUSH1 0x46 EQ ISZERO JUMPDEST DUP1 ISZERO PUSH2 0x24D4 JUMPI POP DUP2 PUSH1 0xFF AND PUSH1 0x3C EQ ISZERO JUMPDEST ISZERO PUSH2 0x24E1 JUMPI POP PUSH1 0x0 PUSH2 0x801 JUMP JUMPDEST POP PUSH1 0xAA PUSH2 0x801 JUMP JUMPDEST PUSH1 0x2 SLOAD PUSH1 0xFF AND ISZERO PUSH2 0x2534 JUMPI PUSH1 0x40 DUP1 MLOAD PUSH3 0x461BCD PUSH1 0xE5 SHL DUP2 MSTORE PUSH1 0x20 PUSH1 0x4 DUP3 ADD MSTORE PUSH1 0x10 PUSH1 0x24 DUP3 ADD MSTORE PUSH16 0x14185D5CD8589B194E881C185D5CD959 PUSH1 0x82 SHL PUSH1 0x44 DUP3 ADD MSTORE SWAP1 MLOAD SWAP1 DUP2 SWAP1 SUB PUSH1 0x64 ADD SWAP1 REVERT JUMPDEST PUSH1 0x3 SLOAD PUSH1 0xE0 DUP3 ADD MLOAD PUSH1 0x40 DUP1 MLOAD PUSH32 0x42CDC4A400000000000000000000000000000000000000000000000000000000 DUP2 MSTORE PUSH1 0x4 DUP2 ADD DUP7 SWAP1 MSTORE PUSH1 0x24 DUP2 ADD SWAP3 SWAP1 SWAP3 MSTORE MLOAD PUSH1 0x1 PUSH1 0x1 PUSH1 0xA0 SHL SUB SWAP1 SWAP3 AND SWAP2 PUSH4 0x42CDC4A4 SWAP2 PUSH1 0x44 DUP1 DUP3 ADD SWAP3 PUSH1 0x0 SWAP3 SWAP1 SWAP2 SWAP1 DUP3 SWAP1 SUB ADD DUP2 DUP4 DUP8 DUP1 EXTCODESIZE ISZERO DUP1 ISZERO PUSH2 0x25A6 JUMPI PUSH1 0x0 DUP1 REVERT JUMPDEST POP GAS CALL ISZERO DUP1 ISZERO PUSH2 0x25BA JUMPI RETURNDATASIZE PUSH1 0x0 DUP1 RETURNDATACOPY RETURNDATASIZE PUSH1 0x0 REVERT JUMPDEST POP POP POP POP POP POP JUMP JUMPDEST PUSH1 0x0 DUP3 DUP2 MSTORE PUSH1 0x1 PUSH1 0x20 MSTORE PUSH1 0x40 SWAP1 KECCAK256 PUSH2 0x25DA SWAP1 DUP3 PUSH2 0x22FF JUMP JUMPDEST ISZERO PUSH2 0x86E JUMPI PUSH2 0x25E7 PUSH2 0x2314 JUMP JUMPDEST PUSH1 0x1 PUSH1 0x1 PUSH1 0xA0 SHL SUB AND DUP2 PUSH1 0x1 PUSH1 0x1 PUSH1 0xA0 SHL SUB AND DUP4 PUSH32 0x2F8788117E7EFF1D82E926EC794901D17C78024A50270940304540A733656F0D PUSH1 0x40 MLOAD PUSH1 0x40 MLOAD DUP1 SWAP2 SUB SWAP1 LOG4 POP POP JUMP JUMPDEST PUSH1 0x0 DUP3 DUP2 MSTORE PUSH1 0x1 PUSH1 0x20 MSTORE PUSH1 0x40 SWAP1 KECCAK256 PUSH2 0x2643 SWAP1 DUP3 PUSH2 0x2A56 JUMP JUMPDEST ISZERO PUSH2 0x86E JUMPI PUSH2 0x2650 PUSH2 0x2314 JUMP JUMPDEST PUSH1 0x1 PUSH1 0x1 PUSH1 0xA0 SHL SUB AND DUP2 PUSH1 0x1 PUSH1 0x1 PUSH1 0xA0 SHL SUB AND DUP4 PUSH32 0xF6391F5C32D9C69D2A47EA670B442974B53935D1EDC7FD64EB21E047A839171B PUSH1 0x40 MLOAD PUSH1 0x40 MLOAD DUP1 SWAP2 SUB SWAP1 LOG4 POP POP JUMP JUMPDEST PUSH1 0x2 SLOAD PUSH1 0xFF AND PUSH2 0x26EB JUMPI PUSH1 0x40 DUP1 MLOAD PUSH3 0x461BCD PUSH1 0xE5 SHL DUP2 MSTORE PUSH1 0x20 PUSH1 0x4 DUP3 ADD MSTORE PUSH1 0x14 PUSH1 0x24 DUP3 ADD MSTORE PUSH32 0x5061757361626C653A206E6F7420706175736564000000000000000000000000 PUSH1 0x44 DUP3 ADD MSTORE SWAP1 MLOAD SWAP1 DUP2 SWAP1 SUB PUSH1 0x64 ADD SWAP1 REVERT JUMPDEST PUSH1 0x2 DUP1 SLOAD PUSH1 0xFF NOT AND SWAP1 SSTORE PUSH32 0x5DB9EE0A495BF2E6FF9C91A7834C1BA4FDD244A5E8AA4E537BD38AEAE4B073AA PUSH2 0x271E PUSH2 0x2314 JUMP JUMPDEST PUSH1 0x40 DUP1 MLOAD PUSH1 0x1 PUSH1 0x1 PUSH1 0xA0 SHL SUB SWAP1 SWAP3 AND DUP3 MSTORE MLOAD SWAP1 DUP2 SWAP1 SUB PUSH1 0x20 ADD SWAP1 LOG1 JUMP JUMPDEST PUSH1 0x2 SLOAD PUSH1 0xFF AND ISZERO PUSH2 0x2786 JUMPI PUSH1 0x40 DUP1 MLOAD PUSH3 0x461BCD PUSH1 0xE5 SHL DUP2 MSTORE PUSH1 0x20 PUSH1 0x4 DUP3 ADD MSTORE PUSH1 0x10 PUSH1 0x24 DUP3 ADD MSTORE PUSH16 0x14185D5CD8589B194E881C185D5CD959 PUSH1 0x82 SHL PUSH1 0x44 DUP3 ADD MSTORE SWAP1 MLOAD SWAP1 DUP2 SWAP1 SUB PUSH1 0x64 ADD SWAP1 REVERT JUMPDEST PUSH1 0x3 SLOAD PUSH1 0xC0 DUP3 ADD MLOAD DUP3 MLOAD PUSH1 0x40 DUP1 DUP6 ADD MLOAD PUSH1 0xA0 DUP7 ADD MLOAD PUSH1 0x80 DUP8 ADD MLOAD DUP4 MLOAD PUSH32 0x635D54FE00000000000000000000000000000000000000000000000000000000 DUP2 MSTORE PUSH1 0x4 DUP2 ADD DUP11 SWAP1 MSTORE PUSH1 0x24 DUP2 ADD SWAP7 SWAP1 SWAP7 MSTORE PUSH1 0xFF SWAP1 SWAP5 AND PUSH1 0x44 DUP7 ADD MSTORE PUSH4 0xFFFFFFFF SWAP1 SWAP2 AND PUSH1 0x64 DUP6 ADD MSTORE PUSH1 0x84 DUP5 ADD MSTORE PUSH1 0xA4 DUP4 ADD SWAP2 SWAP1 SWAP2 MSTORE MLOAD PUSH1 0x1 PUSH1 0x1 PUSH1 0xA0 SHL SUB SWAP1 SWAP3 AND SWAP2 PUSH4 0x635D54FE SWAP2 PUSH1 0xC4 DUP1 DUP3 ADD SWAP3 PUSH1 0x0 SWAP3 SWAP1 SWAP2 SWAP1 DUP3 SWAP1 SUB ADD DUP2 DUP4 DUP8 DUP1 EXTCODESIZE ISZERO DUP1 ISZERO PUSH2 0x25A6 JUMPI PUSH1 0x0 DUP1 REVERT JUMPDEST PUSH2 0x2834 PUSH2 0x2BFD JUMP JUMPDEST PUSH2 0x283C PUSH2 0x2BFD JUMP JUMPDEST PUSH1 0x5 SLOAD PUSH1 0x40 DUP1 MLOAD PUSH32 0xF243501000000000000000000000000000000000000000000000000000000000 DUP2 MSTORE PUSH4 0xFFFFFFFF DUP7 AND PUSH1 0x4 DUP3 ADD MSTORE SWAP1 MLOAD PUSH1 0x1 PUSH1 0x1 PUSH1 0xA0 SHL SUB SWAP1 SWAP3 AND SWAP2 PUSH4 0xF2435010 SWAP2 PUSH1 0x24 DUP1 DUP3 ADD SWAP3 PUSH1 0xA0 SWAP3 SWAP1 SWAP2 SWAP1 DUP3 SWAP1 SUB ADD DUP2 DUP7 DUP1 EXTCODESIZE ISZERO DUP1 ISZERO PUSH2 0x28A6 JUMPI PUSH1 0x0 DUP1 REVERT JUMPDEST POP GAS STATICCALL ISZERO DUP1 ISZERO PUSH2 0x28BA JUMPI RETURNDATASIZE PUSH1 0x0 DUP1 RETURNDATACOPY RETURNDATASIZE PUSH1 0x0 REVERT JUMPDEST POP POP POP POP PUSH1 0x40 MLOAD RETURNDATASIZE PUSH1 0xA0 DUP2 LT ISZERO PUSH2 0x28D0 JUMPI PUSH1 0x0 DUP1 REVERT JUMPDEST POP DUP1 MLOAD PUSH1 0x20 DUP1 DUP4 ADD MLOAD PUSH1 0x40 DUP1 DUP6 ADD MLOAD PUSH1 0x60 DUP1 DUP8 ADD MLOAD PUSH1 0x80 SWAP8 DUP9 ADD MLOAD PUSH1 0xA0 DUP11 ADD MSTORE PUSH4 0xFFFFFFFF SWAP1 DUP2 AND SWAP8 DUP10 ADD SWAP8 SWAP1 SWAP8 MSTORE SWAP1 DUP7 AND SWAP1 DUP8 ADD MSTORE PUSH1 0xFF SWAP1 SWAP2 AND SWAP1 DUP6 ADD MSTORE SWAP2 AND SWAP1 DUP3 ADD MSTORE SWAP3 SWAP2 POP POP JUMP JUMPDEST PUSH1 0x0 DUP2 PUSH1 0xFF AND PUSH1 0x3 EQ ISZERO DUP1 ISZERO PUSH2 0x2935 JUMPI POP DUP2 PUSH1 0xFF AND PUSH1 0x4 EQ ISZERO JUMPDEST DUP1 ISZERO PUSH2 0x2945 JUMPI POP DUP2 PUSH1 0xFF AND PUSH1 0x35 EQ ISZERO JUMPDEST DUP1 ISZERO PUSH2 0x24D4 JUMPI POP DUP2 PUSH1 0xFF AND PUSH1 0x36 EQ PUSH2 0x24E1 JUMPI POP PUSH1 0x0 PUSH2 0x801 JUMP JUMPDEST PUSH1 0x2 SLOAD PUSH1 0xFF AND ISZERO PUSH2 0x29AA JUMPI PUSH1 0x40 DUP1 MLOAD PUSH3 0x461BCD PUSH1 0xE5 SHL DUP2 MSTORE PUSH1 0x20 PUSH1 0x4 DUP3 ADD MSTORE PUSH1 0x10 PUSH1 0x24 DUP3 ADD MSTORE PUSH16 0x14185D5CD8589B194E881C185D5CD959 PUSH1 0x82 SHL PUSH1 0x44 DUP3 ADD MSTORE SWAP1 MLOAD SWAP1 DUP2 SWAP1 SUB PUSH1 0x64 ADD SWAP1 REVERT JUMPDEST PUSH1 0x2 DUP1 SLOAD PUSH1 0xFF NOT AND PUSH1 0x1 OR SWAP1 SSTORE PUSH32 0x62E78CEA01BEE320CD4E420270B5EA74000D11B0C9F74754EBDBFC544B05A258 PUSH2 0x271E PUSH2 0x2314 JUMP JUMPDEST PUSH1 0x0 PUSH2 0x179E DUP4 DUP4 PUSH2 0x2A6B JUMP JUMPDEST PUSH1 0x0 PUSH2 0x179E DUP4 PUSH1 0x1 PUSH1 0x1 PUSH1 0xA0 SHL SUB DUP5 AND PUSH2 0x2ACF JUMP JUMPDEST PUSH1 0x0 PUSH2 0x17A1 DUP3 PUSH2 0x2AE7 JUMP JUMPDEST PUSH1 0x0 PUSH2 0x2A18 DUP4 DUP4 PUSH2 0x2ACF JUMP JUMPDEST PUSH2 0x2A4E JUMPI POP DUP2 SLOAD PUSH1 0x1 DUP2 DUP2 ADD DUP5 SSTORE PUSH1 0x0 DUP5 DUP2 MSTORE PUSH1 0x20 DUP1 DUP3 KECCAK256 SWAP1 SWAP4 ADD DUP5 SWAP1 SSTORE DUP5 SLOAD DUP5 DUP3 MSTORE DUP3 DUP7 ADD SWAP1 SWAP4 MSTORE PUSH1 0x40 SWAP1 KECCAK256 SWAP2 SWAP1 SWAP2 SSTORE PUSH2 0x17A1 JUMP JUMPDEST POP PUSH1 0x0 PUSH2 0x17A1 JUMP JUMPDEST PUSH1 0x0 PUSH2 0x179E DUP4 PUSH1 0x1 PUSH1 0x1 PUSH1 0xA0 SHL SUB DUP5 AND PUSH2 0x2AEB JUMP JUMPDEST DUP2 SLOAD PUSH1 0x0 SWAP1 DUP3 LT PUSH2 0x2AAD JUMPI PUSH1 0x40 MLOAD PUSH3 0x461BCD PUSH1 0xE5 SHL DUP2 MSTORE PUSH1 0x4 ADD DUP1 DUP1 PUSH1 0x20 ADD DUP3 DUP2 SUB DUP3 MSTORE PUSH1 0x22 DUP2 MSTORE PUSH1 0x20 ADD DUP1 PUSH2 0x2C33 PUSH1 0x22 SWAP2 CODECOPY PUSH1 0x40 ADD SWAP2 POP POP PUSH1 0x40 MLOAD DUP1 SWAP2 SUB SWAP1 REVERT JUMPDEST DUP3 PUSH1 0x0 ADD DUP3 DUP2 SLOAD DUP2 LT PUSH2 0x2ABC JUMPI INVALID JUMPDEST SWAP1 PUSH1 0x0 MSTORE PUSH1 0x20 PUSH1 0x0 KECCAK256 ADD SLOAD SWAP1 POP SWAP3 SWAP2 POP POP JUMP JUMPDEST PUSH1 0x0 SWAP1 DUP2 MSTORE PUSH1 0x1 SWAP2 SWAP1 SWAP2 ADD PUSH1 0x20 MSTORE PUSH1 0x40 SWAP1 KECCAK256 SLOAD ISZERO ISZERO SWAP1 JUMP JUMPDEST SLOAD SWAP1 JUMP JUMPDEST PUSH1 0x0 DUP2 DUP2 MSTORE PUSH1 0x1 DUP4 ADD PUSH1 0x20 MSTORE PUSH1 0x40 DUP2 KECCAK256 SLOAD DUP1 ISZERO PUSH2 0x2BA7 JUMPI DUP4 SLOAD PUSH1 0x0 NOT DUP1 DUP4 ADD SWAP2 SWAP1 DUP2 ADD SWAP1 PUSH1 0x0 SWAP1 DUP8 SWAP1 DUP4 SWAP1 DUP2 LT PUSH2 0x2B1E JUMPI INVALID JUMPDEST SWAP1 PUSH1 0x0 MSTORE PUSH1 0x20 PUSH1 0x0 KECCAK256 ADD SLOAD SWAP1 POP DUP1 DUP8 PUSH1 0x0 ADD DUP5 DUP2 SLOAD DUP2 LT PUSH2 0x2B3B JUMPI INVALID JUMPDEST PUSH1 0x0 SWAP2 DUP3 MSTORE PUSH1 0x20 DUP1 DUP4 KECCAK256 SWAP1 SWAP2 ADD SWAP3 SWAP1 SWAP3 SSTORE DUP3 DUP2 MSTORE PUSH1 0x1 DUP10 DUP2 ADD SWAP1 SWAP3 MSTORE PUSH1 0x40 SWAP1 KECCAK256 SWAP1 DUP5 ADD SWAP1 SSTORE DUP7 SLOAD DUP8 SWAP1 DUP1 PUSH2 0x2B6B JUMPI INVALID JUMPDEST PUSH1 0x1 SWAP1 SUB DUP2 DUP2 SWAP1 PUSH1 0x0 MSTORE PUSH1 0x20 PUSH1 0x0 KECCAK256 ADD PUSH1 0x0 SWAP1 SSTORE SWAP1 SSTORE DUP7 PUSH1 0x1 ADD PUSH1 0x0 DUP8 DUP2 MSTORE PUSH1 0x20 ADD SWAP1 DUP2 MSTORE PUSH1 0x20 ADD PUSH1 0x0 KECCAK256 PUSH1 0x0 SWAP1 SSTORE PUSH1 0x1 SWAP5 POP POP POP POP POP PUSH2 0x17A1 JUMP JUMPDEST PUSH1 0x0 SWAP2 POP POP PUSH2 0x17A1 JUMP JUMPDEST PUSH1 0x40 DUP1 MLOAD PUSH2 0x120 DUP2 ADD DUP3 MSTORE PUSH1 0x0 DUP1 DUP3 MSTORE PUSH1 0x20 DUP3 ADD DUP2 SWAP1 MSTORE SWAP2 DUP2 ADD DUP3 SWAP1 MSTORE PUSH1 0x60 DUP2 ADD DUP3 SWAP1 MSTORE PUSH1 0x80 DUP2 ADD DUP3 SWAP1 MSTORE PUSH1 0xA0 DUP2 ADD DUP3 SWAP1 MSTORE PUSH1 0xC0 DUP2 ADD DUP3 SWAP1 MSTORE PUSH1 0xE0 DUP2 ADD DUP3 SWAP1 MSTORE PUSH2 0x100 DUP2 ADD SWAP2 SWAP1 SWAP2 MSTORE SWAP1 JUMP JUMPDEST PUSH1 0x40 DUP1 MLOAD PUSH1 0xC0 DUP2 ADD DUP3 MSTORE PUSH1 0x60 DUP1 DUP3 MSTORE PUSH1 0x0 PUSH1 0x20 DUP4 ADD DUP2 SWAP1 MSTORE SWAP3 DUP3 ADD DUP4 SWAP1 MSTORE DUP2 ADD DUP3 SWAP1 MSTORE PUSH1 0x80 DUP2 ADD DUP3 SWAP1 MSTORE PUSH1 0xA0 DUP2 ADD SWAP2 SWAP1 SWAP2 MSTORE SWAP1 JUMP INVALID GASLIMIT PUSH15 0x756D657261626C655365743A20696E PUSH5 0x6578206F75 PUSH21 0x206F6620626F756E6473416363657373436F6E7472 PUSH16 0x6C3A2073656E646572206D7573742062 PUSH6 0x20616E206164 PUSH14 0x696E20746F206772616E744E504E NUMBER GASPRICE DIFFICULTY NUMBER GASPRICE KECCAK256 MSTORE PUSH6 0x636F72642069 PUSH15 0x20756E726567697374657265642C20 PUSH6 0x78706F727465 PUSH5 0x2C206F7220 PUSH5 0x6973636172 PUSH5 0x6564207374 PUSH2 0x7475 PUSH20 0x50414D3A4D4F443A206D75737420686176652043 0x4F 0x4E SLOAD MSTORE COINBASE NUMBER SLOAD 0x5F COINBASE DIFFICULTY 0x4D 0x49 0x4E 0x5F MSTORE 0x4F 0x4C GASLIMIT 0x4E POP 0x4E NUMBER GASPRICE MSTORE8 0x4C MSTORE8 GASPRICE KECCAK256 SLOAD PUSH19 0x616E736665727265642C6578706F727465642C PUSH16 0x72206469736361726465642061737365 PUSH21 0x2063616E6E6F742062652073657420746F206C6F73 PUSH21 0x206F722073746F6C656E4E504E433A534C533A204F PUSH15 0x6C7920637573746F6469616C207573 PUSH6 0x727479706520 PUSH4 0x616E2073 PUSH6 0x74206F722063 PUSH9 0x616E67652073746174 PUSH22 0x73203C203530423A5353433A2073746F726167652061 PUSH5 0x6472657373 KECCAK256 PUSH4 0x616E6E6F PUSH21 0x206265207A65726F4E504E433A43523A2043616E6E PUSH16 0x74206D6F646966792061737365742069 PUSH15 0x206C6F7374206F722073746F6C656E KECCAK256 PUSH20 0x7461747573416363657373436F6E74726F6C3A20 PUSH20 0x656E646572206D75737420626520616E2061646D PUSH10 0x6E20746F207265766F6B PUSH6 0x4E504E433A4D 0x49 BALANCE GASPRICE KECCAK256 MSTORE PUSH6 0x636F72642069 PUSH15 0x20756E726567697374657265642C20 PUSH6 0x78706F727465 PUSH5 0x2C206F7220 PUSH5 0x6973636172 PUSH5 0x6564207374 PUSH2 0x7475 PUSH20 0x4E504E433A4D4F442D49413A2043616C6C657220 PUSH5 0x6F6573206E PUSH16 0x7420686F6C6420746F6B656E4E504E43 GASPRICE GASLIMIT PC GASPRICE KECCAK256 0x4D PUSH22 0x737420626520696E207472616E736665727261626C65 KECCAK256 PUSH20 0x746174757320283531294E504E433A4D533A2041 PUSH20 0x73657420697320696E20616E20756E7265676973 PUSH21 0x657265642C206578706F727465642C206F72206469 PUSH20 0x636172646564207374617475732E4E504E433A4D MSTORE8 GASPRICE KECCAK256 NUMBER PUSH2 0x6E6E PUSH16 0x7420706C61636520617373657420696E KECCAK256 PUSH22 0x6E726567697374657265642C206578706F727465642C KECCAK256 PUSH16 0x72206469736361726465642073746174 PUSH22 0x73207573696E67206D6F6453746174757341543A4D4F DIFFICULTY 0x2D 0x49 COINBASE GASPRICE NUMBER PUSH2 0x6C6C PUSH10 0x6E672061646472657373 KECCAK256 PUSH10 0x73206E6F742070617573 PUSH6 0x724E504E433A NUMBER MSTORE GASPRICE KECCAK256 NUMBER PUSH2 0x6E6E PUSH16 0x74206D6F646966792061737365742069 PUSH15 0x20756E726567697374657265642C20 PUSH6 0x78706F727465 PUSH5 0x2C206F7220 PUSH5 0x6973636172 PUSH5 0x6564207374 PUSH2 0x7475 PUSH20 0x416363657373436F6E74726F6C3A2063616E206F PUSH15 0x6C792072656E6F756E636520726F6C PUSH6 0x7320666F7220 PUSH20 0x656C66A2646970667358221220308B37AB77DCE7 GASPRICE PUSH20 0xEA6389538BF00AAD1D080E4B7DF3EC8E1C146DFE SELFDESTRUCT OR SUB PUSH5 0x736F6C6343 STOP MOD 0xC STOP CALLER "
		},
		"gasEstimates": {
			"creation": {
				"codeDepositCost": "2459400",
				"executionCost": "infinite",
				"totalCost": "infinite"
			},
			"external": {
				"ASSET_TXFR_ROLE()": "267",
				"CONTRACT_ADMIN_ROLE()": "244",
				"DEFAULT_ADMIN_ROLE()": "265",
				"OO_resolveContractAddresses()": "infinite",
				"OO_setStorageContract(address)": "infinite",
				"OO_transferACToken(address,uint256)": "infinite",
				"PAUSER_ROLE()": "286",
				"_changeRgt(bytes32,bytes32)": "infinite",
				"_decCounter(bytes32,uint32)": "infinite",
				"_exportNC(bytes32)": "infinite",
				"_modIpfs1(bytes32,bytes32)": "infinite",
				"_modStatus(bytes32,uint8)": "infinite",
				"_setLostOrStolen(bytes32,uint8)": "infinite",
				"getRoleAdmin(bytes32)": "1186",
				"getRoleMember(bytes32,uint256)": "infinite",
				"getRoleMemberCount(bytes32)": "infinite",
				"grantRole(bytes32,address)": "infinite",
				"hasRole(bytes32,address)": "infinite",
				"onERC721Received(address,address,uint256,bytes)": "599",
				"pause()": "infinite",
				"paused()": "1099",
				"renounceRole(bytes32,address)": "infinite",
				"revokeRole(bytes32,address)": "infinite",
				"transferAssetToken(address,bytes32)": "infinite",
				"unpause()": "infinite"
			}
		},
		"methodIdentifiers": {
			"ASSET_TXFR_ROLE()": "1429db5f",
			"CONTRACT_ADMIN_ROLE()": "1da03312",
			"DEFAULT_ADMIN_ROLE()": "a217fddf",
			"OO_resolveContractAddresses()": "e8b41653",
			"OO_setStorageContract(address)": "d6b02ecf",
			"OO_transferACToken(address,uint256)": "92ba3da6",
			"PAUSER_ROLE()": "e63ab1e9",
			"_changeRgt(bytes32,bytes32)": "6580bcce",
			"_decCounter(bytes32,uint32)": "90073492",
			"_exportNC(bytes32)": "54de4a3f",
			"_modIpfs1(bytes32,bytes32)": "062cf11f",
			"_modStatus(bytes32,uint8)": "52c8fc88",
			"_setLostOrStolen(bytes32,uint8)": "7698f98b",
			"getRoleAdmin(bytes32)": "248a9ca3",
			"getRoleMember(bytes32,uint256)": "9010d07c",
			"getRoleMemberCount(bytes32)": "ca15c873",
			"grantRole(bytes32,address)": "2f2ff15d",
			"hasRole(bytes32,address)": "91d14854",
			"onERC721Received(address,address,uint256,bytes)": "150b7a02",
			"pause()": "8456cb59",
			"paused()": "5c975abb",
			"renounceRole(bytes32,address)": "36568abe",
			"revokeRole(bytes32,address)": "d547741f",
			"transferAssetToken(address,bytes32)": "440e7a7e",
			"unpause()": "3f4ba83a"
		}
	},
	"abi": [
		{
			"anonymous": false,
			"inputs": [
				{
					"indexed": false,
					"internalType": "address",
					"name": "account",
					"type": "address"
				}
			],
			"name": "Paused",
			"type": "event"
		},
		{
			"anonymous": false,
			"inputs": [
				{
					"indexed": false,
					"internalType": "string",
					"name": "_msg",
					"type": "string"
				}
			],
			"name": "REPORT",
			"type": "event"
		},
		{
			"anonymous": false,
			"inputs": [
				{
					"indexed": true,
					"internalType": "bytes32",
					"name": "role",
					"type": "bytes32"
				},
				{
					"indexed": true,
					"internalType": "bytes32",
					"name": "previousAdminRole",
					"type": "bytes32"
				},
				{
					"indexed": true,
					"internalType": "bytes32",
					"name": "newAdminRole",
					"type": "bytes32"
				}
			],
			"name": "RoleAdminChanged",
			"type": "event"
		},
		{
			"anonymous": false,
			"inputs": [
				{
					"indexed": true,
					"internalType": "bytes32",
					"name": "role",
					"type": "bytes32"
				},
				{
					"indexed": true,
					"internalType": "address",
					"name": "account",
					"type": "address"
				},
				{
					"indexed": true,
					"internalType": "address",
					"name": "sender",
					"type": "address"
				}
			],
			"name": "RoleGranted",
			"type": "event"
		},
		{
			"anonymous": false,
			"inputs": [
				{
					"indexed": true,
					"internalType": "bytes32",
					"name": "role",
					"type": "bytes32"
				},
				{
					"indexed": true,
					"internalType": "address",
					"name": "account",
					"type": "address"
				},
				{
					"indexed": true,
					"internalType": "address",
					"name": "sender",
					"type": "address"
				}
			],
			"name": "RoleRevoked",
			"type": "event"
		},
		{
			"anonymous": false,
			"inputs": [
				{
					"indexed": false,
					"internalType": "address",
					"name": "account",
					"type": "address"
				}
			],
			"name": "Unpaused",
			"type": "event"
		},
		{
			"inputs": [],
			"name": "ASSET_TXFR_ROLE",
			"outputs": [
				{
					"internalType": "bytes32",
					"name": "",
					"type": "bytes32"
				}
			],
			"stateMutability": "view",
			"type": "function"
		},
		{
			"inputs": [],
			"name": "CONTRACT_ADMIN_ROLE",
			"outputs": [
				{
					"internalType": "bytes32",
					"name": "",
					"type": "bytes32"
				}
			],
			"stateMutability": "view",
			"type": "function"
		},
		{
			"inputs": [],
			"name": "DEFAULT_ADMIN_ROLE",
			"outputs": [
				{
					"internalType": "bytes32",
					"name": "",
					"type": "bytes32"
				}
			],
			"stateMutability": "view",
			"type": "function"
		},
		{
			"inputs": [],
			"name": "OO_resolveContractAddresses",
			"outputs": [],
			"stateMutability": "nonpayable",
			"type": "function"
		},
		{
			"inputs": [
				{
					"internalType": "address",
					"name": "_storageAddress",
					"type": "address"
				}
			],
			"name": "OO_setStorageContract",
			"outputs": [],
			"stateMutability": "nonpayable",
			"type": "function"
		},
		{
			"inputs": [
				{
					"internalType": "address",
					"name": "_to",
					"type": "address"
				},
				{
					"internalType": "uint256",
					"name": "_tokenID",
					"type": "uint256"
				}
			],
			"name": "OO_transferACToken",
			"outputs": [],
			"stateMutability": "nonpayable",
			"type": "function"
		},
		{
			"inputs": [],
			"name": "PAUSER_ROLE",
			"outputs": [
				{
					"internalType": "bytes32",
					"name": "",
					"type": "bytes32"
				}
			],
			"stateMutability": "view",
			"type": "function"
		},
		{
			"inputs": [
				{
					"internalType": "bytes32",
					"name": "_idxHash",
					"type": "bytes32"
				},
				{
					"internalType": "bytes32",
					"name": "_newRgtHash",
					"type": "bytes32"
				}
			],
			"name": "_changeRgt",
			"outputs": [
				{
					"internalType": "bytes32",
					"name": "",
					"type": "bytes32"
				}
			],
			"stateMutability": "nonpayable",
			"type": "function"
		},
		{
			"inputs": [
				{
					"internalType": "bytes32",
					"name": "_idxHash",
					"type": "bytes32"
				},
				{
					"internalType": "uint32",
					"name": "_decAmount",
					"type": "uint32"
				}
			],
			"name": "_decCounter",
			"outputs": [
				{
					"internalType": "uint32",
					"name": "",
					"type": "uint32"
				}
			],
			"stateMutability": "nonpayable",
			"type": "function"
		},
		{
			"inputs": [
				{
					"internalType": "bytes32",
					"name": "_idxHash",
					"type": "bytes32"
				}
			],
			"name": "_exportNC",
			"outputs": [],
			"stateMutability": "nonpayable",
			"type": "function"
		},
		{
			"inputs": [
				{
					"internalType": "bytes32",
					"name": "_idxHash",
					"type": "bytes32"
				},
				{
					"internalType": "bytes32",
					"name": "_IpfsHash",
					"type": "bytes32"
				}
			],
			"name": "_modIpfs1",
			"outputs": [
				{
					"internalType": "bytes32",
					"name": "",
					"type": "bytes32"
				}
			],
			"stateMutability": "nonpayable",
			"type": "function"
		},
		{
			"inputs": [
				{
					"internalType": "bytes32",
					"name": "_idxHash",
					"type": "bytes32"
				},
				{
					"internalType": "uint8",
					"name": "_newAssetStatus",
					"type": "uint8"
				}
			],
			"name": "_modStatus",
			"outputs": [
				{
					"internalType": "uint8",
					"name": "",
					"type": "uint8"
				}
			],
			"stateMutability": "nonpayable",
			"type": "function"
		},
		{
			"inputs": [
				{
					"internalType": "bytes32",
					"name": "_idxHash",
					"type": "bytes32"
				},
				{
					"internalType": "uint8",
					"name": "_newAssetStatus",
					"type": "uint8"
				}
			],
			"name": "_setLostOrStolen",
			"outputs": [
				{
					"internalType": "uint8",
					"name": "",
					"type": "uint8"
				}
			],
			"stateMutability": "nonpayable",
			"type": "function"
		},
		{
			"inputs": [
				{
					"internalType": "bytes32",
					"name": "role",
					"type": "bytes32"
				}
			],
			"name": "getRoleAdmin",
			"outputs": [
				{
					"internalType": "bytes32",
					"name": "",
					"type": "bytes32"
				}
			],
			"stateMutability": "view",
			"type": "function"
		},
		{
			"inputs": [
				{
					"internalType": "bytes32",
					"name": "role",
					"type": "bytes32"
				},
				{
					"internalType": "uint256",
					"name": "index",
					"type": "uint256"
				}
			],
			"name": "getRoleMember",
			"outputs": [
				{
					"internalType": "address",
					"name": "",
					"type": "address"
				}
			],
			"stateMutability": "view",
			"type": "function"
		},
		{
			"inputs": [
				{
					"internalType": "bytes32",
					"name": "role",
					"type": "bytes32"
				}
			],
			"name": "getRoleMemberCount",
			"outputs": [
				{
					"internalType": "uint256",
					"name": "",
					"type": "uint256"
				}
			],
			"stateMutability": "view",
			"type": "function"
		},
		{
			"inputs": [
				{
					"internalType": "bytes32",
					"name": "role",
					"type": "bytes32"
				},
				{
					"internalType": "address",
					"name": "account",
					"type": "address"
				}
			],
			"name": "grantRole",
			"outputs": [],
			"stateMutability": "nonpayable",
			"type": "function"
		},
		{
			"inputs": [
				{
					"internalType": "bytes32",
					"name": "role",
					"type": "bytes32"
				},
				{
					"internalType": "address",
					"name": "account",
					"type": "address"
				}
			],
			"name": "hasRole",
			"outputs": [
				{
					"internalType": "bool",
					"name": "",
					"type": "bool"
				}
			],
			"stateMutability": "view",
			"type": "function"
		},
		{
			"inputs": [
				{
					"internalType": "address",
					"name": "",
					"type": "address"
				},
				{
					"internalType": "address",
					"name": "",
					"type": "address"
				},
				{
					"internalType": "uint256",
					"name": "",
					"type": "uint256"
				},
				{
					"internalType": "bytes",
					"name": "",
					"type": "bytes"
				}
			],
			"name": "onERC721Received",
			"outputs": [
				{
					"internalType": "bytes4",
					"name": "",
					"type": "bytes4"
				}
			],
			"stateMutability": "nonpayable",
			"type": "function"
		},
		{
			"inputs": [],
			"name": "pause",
			"outputs": [],
			"stateMutability": "nonpayable",
			"type": "function"
		},
		{
			"inputs": [],
			"name": "paused",
			"outputs": [
				{
					"internalType": "bool",
					"name": "",
					"type": "bool"
				}
			],
			"stateMutability": "view",
			"type": "function"
		},
		{
			"inputs": [
				{
					"internalType": "bytes32",
					"name": "role",
					"type": "bytes32"
				},
				{
					"internalType": "address",
					"name": "account",
					"type": "address"
				}
			],
			"name": "renounceRole",
			"outputs": [],
			"stateMutability": "nonpayable",
			"type": "function"
		},
		{
			"inputs": [
				{
					"internalType": "bytes32",
					"name": "role",
					"type": "bytes32"
				},
				{
					"internalType": "address",
					"name": "account",
					"type": "address"
				}
			],
			"name": "revokeRole",
			"outputs": [],
			"stateMutability": "nonpayable",
			"type": "function"
		},
		{
			"inputs": [
				{
					"internalType": "address",
					"name": "_to",
					"type": "address"
				},
				{
					"internalType": "bytes32",
					"name": "_idxHash",
					"type": "bytes32"
				}
			],
			"name": "transferAssetToken",
			"outputs": [],
			"stateMutability": "nonpayable",
			"type": "function"
		},
		{
			"inputs": [],
			"name": "unpause",
			"outputs": [],
			"stateMutability": "nonpayable",
			"type": "function"
		}
	]
}