{
	"data": {
		"bytecode": {
			"linkReferences": {},
			"object": "60806040523480156200001157600080fd5b5060016000819055506000600260006101000a81548160ff021916908315150217905550620000596000801b6200004d620000e160201b60201c565b620000e960201b60201c565b6200009a7f2ce8d04a9c35987429af538825cd2438cc5c5bb5dc427955f84daaa3ea1050166200008e620000e160201b60201c565b620000e960201b60201c565b620000db7f65d7a28e3265b37a6474929f336521b332c1681b933f6cb9f3376673440d862a620000cf620000e160201b60201c565b620000e960201b60201c565b62000278565b600033905090565b620000fb8282620000ff60201b60201c565b5050565b6200012e8160016000858152602001908152602001600020600001620001a360201b62000f841790919060201c565b156200019f5762000144620000e160201b60201c565b73ffffffffffffffffffffffffffffffffffffffff168173ffffffffffffffffffffffffffffffffffffffff16837f2f8788117e7eff1d82e926ec794901d17c78024a50270940304540a733656f0d60405160405180910390a45b5050565b6000620001d3836000018373ffffffffffffffffffffffffffffffffffffffff1660001b620001db60201b60201c565b905092915050565b6000620001ef83836200025560201b60201c565b6200024a5782600001829080600181540180825580915050600190039060005260206000200160009091909190915055826000018054905083600101600084815260200190815260200160002081905550600190506200024f565b600090505b92915050565b600080836001016000848152602001908152602001600020541415905092915050565b61203080620002886000396000f3fe608060405234801561001057600080fd5b506004361061012c5760003560e01c8063690d9c2c116100ad578063a217fddf11610071578063a217fddf14610309578063ca15c87314610327578063d547741f14610357578063e63ab1e914610373578063edfa127e146103915761012c565b8063690d9c2c146102535780638456cb591461026f5780639010d07c1461027957806391d14854146102a957806394b8075e146102d95761012c565b806336568abe116100f457806336568abe146101d55780633f4ba83a146101f157806345f54485146101fb57806352596a18146102175780635c975abb146102355761012c565b80630d67b75e146101315780631429db5f1461014d5780631da033121461016b578063248a9ca3146101895780632f2ff15d146101b9575b600080fd5b61014b60048036038101906101469190611790565b6103ad565b005b610155610618565b6040516101629190611a1f565b60405180910390f35b61017361063c565b6040516101809190611a1f565b60405180910390f35b6101a3600480360381019061019e91906116c6565b610660565b6040516101b09190611a1f565b60405180910390f35b6101d360048036038101906101ce91906116ef565b610680565b005b6101ef60048036038101906101ea91906116ef565b6106f4565b005b6101f9610777565b005b61021560048036038101906102109190611767565b6107f1565b005b61021f610a92565b60405161022c9190611a1f565b60405180910390f35b61023d610ab6565b60405161024a9190611a04565b60405180910390f35b61026d60048036038101906102689190611612565b610acd565b005b610277610c89565b005b610293600480360381019061028e919061172b565b610d03565b6040516102a09190611989565b60405180910390f35b6102c360048036038101906102be91906116ef565b610d35565b6040516102d09190611a04565b60405180910390f35b6102f360048036038101906102ee9190611767565b610d67565b6040516103009190611b9a565b60405180910390f35b610311610d84565b60405161031e9190611a1f565b60405180910390f35b610341600480360381019061033c91906116c6565b610d8b565b60405161034e9190611b9a565b60405180910390f35b610371600480360381019061036c91906116ef565b610db2565b005b61037b610e26565b6040516103889190611a1f565b60405180910390f35b6103ab60048036038101906103a6919061164e565b610e4a565b005b6103de7f4131a7610c35e48c1361939be95ae3a1ac8c086117e2c07e101ed019715f7e176103d9610fb4565b610d35565b61041d576040517f08c379a000000000000000000000000000000000000000000000000000000000815260040161041490611b3a565b60405180910390fd5b60026000541415610463576040517f08c379a000000000000000000000000000000000000000000000000000000000815260040161045a90611b5a565b60405180910390fd5b6002600081905550610473610ab6565b156104b3576040517f08c379a00000000000000000000000000000000000000000000000000000000081526004016104aa90611afa565b60405180910390fd5b6000600760009054906101000a900473ffffffffffffffffffffffffffffffffffffffff1673ffffffffffffffffffffffffffffffffffffffff16636352211e846040518263ffffffff1660e01b81526004016105109190611b9a565b60206040518083038186803b15801561052857600080fd5b505afa15801561053c573d6000803e3d6000fd5b505050506040513d601f19601f8201168201806040525081019061056091906115e9565b9050600560009054906101000a900473ffffffffffffffffffffffffffffffffffffffff1673ffffffffffffffffffffffffffffffffffffffff16639b30d1e98230856040518463ffffffff1660e01b81526004016105c1939291906119a4565b600060405180830381600087803b1580156105db57600080fd5b505af11580156105ef573d6000803e3d6000fd5b505050508160036000858152602001908152602001600020819055505060016000819055505050565b7f7f1e4e9f3d9ba0452a25cfef4cd4c6ffc86158d06ed2f585fa0093e12dec429c81565b7f2ce8d04a9c35987429af538825cd2438cc5c5bb5dc427955f84daaa3ea10501681565b600060016000838152602001908152602001600020600201549050919050565b6106a760016000848152602001908152602001600020600201546106a2610fb4565b610d35565b6106e6576040517f08c379a00000000000000000000000000000000000000000000000000000000081526004016106dd90611a5a565b60405180910390fd5b6106f08282610fbc565b5050565b6106fc610fb4565b73ffffffffffffffffffffffffffffffffffffffff168173ffffffffffffffffffffffffffffffffffffffff1614610769576040517f08c379a000000000000000000000000000000000000000000000000000000000815260040161076090611b7a565b60405180910390fd5b6107738282611050565b5050565b6107a87f65d7a28e3265b37a6474929f336521b332c1681b933f6cb9f3376673440d862a6107a3610fb4565b610d35565b6107e7576040517f08c379a00000000000000000000000000000000000000000000000000000000081526004016107de90611ada565b60405180910390fd5b6107ef6110e4565b565b6108227f4131a7610c35e48c1361939be95ae3a1ac8c086117e2c07e101ed019715f7e1761081d610fb4565b610d35565b610861576040517f08c379a000000000000000000000000000000000000000000000000000000000815260040161085890611b3a565b60405180910390fd5b600260005414156108a7576040517f08c379a000000000000000000000000000000000000000000000000000000000815260040161089e90611b5a565b60405180910390fd5b60026000819055506108b7610ab6565b156108f7576040517f08c379a00000000000000000000000000000000000000000000000000000000081526004016108ee90611afa565b60405180910390fd5b6000600760009054906101000a900473ffffffffffffffffffffffffffffffffffffffff1673ffffffffffffffffffffffffffffffffffffffff16636352211e836040518263ffffffff1660e01b81526004016109549190611b9a565b60206040518083038186803b15801561096c57600080fd5b505afa158015610980573d6000803e3d6000fd5b505050506040513d601f19601f820116820180604052508101906109a491906115e9565b90506000600360008481526020019081526020016000205490506003600084815260200190815260200160002060009055600560009054906101000a900473ffffffffffffffffffffffffffffffffffffffff1673ffffffffffffffffffffffffffffffffffffffff1663a9059cbb83836040518363ffffffff1660e01b8152600401610a329291906119db565b602060405180830381600087803b158015610a4c57600080fd5b505af1158015610a60573d6000803e3d6000fd5b505050506040513d601f19601f82011682018060405250810190610a84919061169d565b505050600160008190555050565b7f4131a7610c35e48c1361939be95ae3a1ac8c086117e2c07e101ed019715f7e1781565b6000600260009054906101000a900460ff16905090565b610afe7f2ce8d04a9c35987429af538825cd2438cc5c5bb5dc427955f84daaa3ea105016610af9610fb4565b610d35565b610b3d576040517f08c379a0000000000000000000000000000000000000000000000000000000008152600401610b3490611a9a565b60405180910390fd5b81600460006101000a81548173ffffffffffffffffffffffffffffffffffffffff021916908373ffffffffffffffffffffffffffffffffffffffff160217905550600460009054906101000a900473ffffffffffffffffffffffffffffffffffffffff16600560006101000a81548173ffffffffffffffffffffffffffffffffffffffff021916908373ffffffffffffffffffffffffffffffffffffffff16021790555080600660006101000a81548173ffffffffffffffffffffffffffffffffffffffff021916908373ffffffffffffffffffffffffffffffffffffffff160217905550600660009054906101000a900473ffffffffffffffffffffffffffffffffffffffff16600760006101000a81548173ffffffffffffffffffffffffffffffffffffffff021916908373ffffffffffffffffffffffffffffffffffffffff1602179055505050565b610cba7f65d7a28e3265b37a6474929f336521b332c1681b933f6cb9f3376673440d862a610cb5610fb4565b610d35565b610cf9576040517f08c379a0000000000000000000000000000000000000000000000000000000008152600401610cf090611ada565b60405180910390fd5b610d01611186565b565b6000610d2d826001600086815260200190815260200160002060000161122990919063ffffffff16565b905092915050565b6000610d5f826001600086815260200190815260200160002060000161124390919063ffffffff16565b905092915050565b600060036000838152602001908152602001600020549050919050565b6000801b81565b6000610dab60016000848152602001908152602001600020600001611273565b9050919050565b610dd96001600084815260200190815260200160002060020154610dd4610fb4565b610d35565b610e18576040517f08c379a0000000000000000000000000000000000000000000000000000000008152600401610e0f90611aba565b60405180910390fd5b610e228282611050565b5050565b7f65d7a28e3265b37a6474929f336521b332c1681b933f6cb9f3376673440d862a81565b60026000541415610e90576040517f08c379a0000000000000000000000000000000000000000000000000000000008152600401610e8790611b5a565b60405180910390fd5b6002600081905550610ec97f7f1e4e9f3d9ba0452a25cfef4cd4c6ffc86158d06ed2f585fa0093e12dec429c610ec4610fb4565b610d35565b610f08576040517f08c379a0000000000000000000000000000000000000000000000000000000008152600401610eff90611b1a565b60405180910390fd5b8073ffffffffffffffffffffffffffffffffffffffff166342842e0e3085856040518463ffffffff1660e01b8152600401610f45939291906119a4565b600060405180830381600087803b158015610f5f57600080fd5b505af1158015610f73573d6000803e3d6000fd5b505050506001600081905550505050565b6000610fac836000018373ffffffffffffffffffffffffffffffffffffffff1660001b611288565b905092915050565b600033905090565b610fe48160016000858152602001908152602001600020600001610f8490919063ffffffff16565b1561104c57610ff1610fb4565b73ffffffffffffffffffffffffffffffffffffffff168173ffffffffffffffffffffffffffffffffffffffff16837f2f8788117e7eff1d82e926ec794901d17c78024a50270940304540a733656f0d60405160405180910390a45b5050565b61107881600160008581526020019081526020016000206000016112f890919063ffffffff16565b156110e057611085610fb4565b73ffffffffffffffffffffffffffffffffffffffff168173ffffffffffffffffffffffffffffffffffffffff16837ff6391f5c32d9c69d2a47ea670b442974b53935d1edc7fd64eb21e047a839171b60405160405180910390a45b5050565b6110ec610ab6565b61112b576040517f08c379a000000000000000000000000000000000000000000000000000000000815260040161112290611a7a565b60405180910390fd5b6000600260006101000a81548160ff0219169083151502179055507f5db9ee0a495bf2e6ff9c91a7834c1ba4fdd244a5e8aa4e537bd38aeae4b073aa61116f610fb4565b60405161117c9190611989565b60405180910390a1565b61118e610ab6565b156111ce576040517f08c379a00000000000000000000000000000000000000000000000000000000081526004016111c590611afa565b60405180910390fd5b6001600260006101000a81548160ff0219169083151502179055507f62e78cea01bee320cd4e420270b5ea74000d11b0c9f74754ebdbfc544b05a258611212610fb4565b60405161121f9190611989565b60405180910390a1565b60006112388360000183611328565b60001c905092915050565b600061126b836000018373ffffffffffffffffffffffffffffffffffffffff1660001b6113c2565b905092915050565b6000611281826000016113e5565b9050919050565b600061129483836113c2565b6112ed5782600001829080600181540180825580915050600190039060005260206000200160009091909190915055826000018054905083600101600084815260200190815260200160002081905550600190506112f2565b600090505b92915050565b6000611320836000018373ffffffffffffffffffffffffffffffffffffffff1660001b6113f6565b905092915050565b600081836000018054905011611373576040517f08c379a000000000000000000000000000000000000000000000000000000000815260040161136a90611a3a565b60405180910390fd5b8260000182815481106113af577f4e487b7100000000000000000000000000000000000000000000000000000000600052603260045260246000fd5b9060005260206000200154905092915050565b600080836001016000848152602001908152602001600020541415905092915050565b600081600001805490509050919050565b600080836001016000848152602001908152602001600020549050600081146115745760006001826114289190611c1c565b90506000600186600001805490506114409190611c1c565b90506000866000018281548110611480577f4e487b7100000000000000000000000000000000000000000000000000000000600052603260045260246000fd5b90600052602060002001549050808760000184815481106114ca577f4e487b7100000000000000000000000000000000000000000000000000000000600052603260045260246000fd5b90600052602060002001819055506001836114e59190611bc6565b8760010160008381526020019081526020016000208190555086600001805480611538577f4e487b7100000000000000000000000000000000000000000000000000000000600052603160045260246000fd5b6001900381819060005260206000200160009055905586600101600087815260200190815260200160002060009055600194505050505061157a565b60009150505b92915050565b60008135905061158f81611f9e565b92915050565b6000815190506115a481611f9e565b92915050565b6000815190506115b981611fb5565b92915050565b6000813590506115ce81611fcc565b92915050565b6000813590506115e381611fe3565b92915050565b6000602082840312156115fb57600080fd5b600061160984828501611595565b91505092915050565b6000806040838503121561162557600080fd5b600061163385828601611580565b925050602061164485828601611580565b9150509250929050565b60008060006060848603121561166357600080fd5b600061167186828701611580565b9350506020611682868287016115d4565b925050604061169386828701611580565b9150509250925092565b6000602082840312156116af57600080fd5b60006116bd848285016115aa565b91505092915050565b6000602082840312156116d857600080fd5b60006116e6848285016115bf565b91505092915050565b6000806040838503121561170257600080fd5b6000611710858286016115bf565b925050602061172185828601611580565b9150509250929050565b6000806040838503121561173e57600080fd5b600061174c858286016115bf565b925050602061175d858286016115d4565b9150509250929050565b60006020828403121561177957600080fd5b6000611787848285016115d4565b91505092915050565b600080604083850312156117a357600080fd5b60006117b1858286016115d4565b92505060206117c2858286016115d4565b9150509250929050565b6117d581611c50565b82525050565b6117e481611c62565b82525050565b6117f381611c6e565b82525050565b6000611806602283611bb5565b915061181182611cd1565b604082019050919050565b6000611829602f83611bb5565b915061183482611d20565b604082019050919050565b600061184c601483611bb5565b915061185782611d6f565b602082019050919050565b600061186f602783611bb5565b915061187a82611d98565b604082019050919050565b6000611892603083611bb5565b915061189d82611de7565b604082019050919050565b60006118b5602683611bb5565b91506118c082611e36565b604082019050919050565b60006118d8601083611bb5565b91506118e382611e85565b602082019050919050565b60006118fb601e83611bb5565b915061190682611eae565b602082019050919050565b600061191e602483611bb5565b915061192982611ed7565b604082019050919050565b6000611941601f83611bb5565b915061194c82611f26565b602082019050919050565b6000611964602f83611bb5565b915061196f82611f4f565b604082019050919050565b61198381611c98565b82525050565b600060208201905061199e60008301846117cc565b92915050565b60006060820190506119b960008301866117cc565b6119c660208301856117cc565b6119d3604083018461197a565b949350505050565b60006040820190506119f060008301856117cc565b6119fd602083018461197a565b9392505050565b6000602082019050611a1960008301846117db565b92915050565b6000602082019050611a3460008301846117ea565b92915050565b60006020820190508181036000830152611a53816117f9565b9050919050565b60006020820190508181036000830152611a738161181c565b9050919050565b60006020820190508181036000830152611a938161183f565b9050919050565b60006020820190508181036000830152611ab381611862565b9050919050565b60006020820190508181036000830152611ad381611885565b9050919050565b60006020820190508181036000830152611af3816118a8565b9050919050565b60006020820190508181036000830152611b13816118cb565b9050919050565b60006020820190508181036000830152611b33816118ee565b9050919050565b60006020820190508181036000830152611b5381611911565b9050919050565b60006020820190508181036000830152611b7381611934565b9050919050565b60006020820190508181036000830152611b9381611957565b9050919050565b6000602082019050611baf600083018461197a565b92915050565b600082825260208201905092915050565b6000611bd182611c98565b9150611bdc83611c98565b9250827fffffffffffffffffffffffffffffffffffffffffffffffffffffffffffffffff03821115611c1157611c10611ca2565b5b828201905092915050565b6000611c2782611c98565b9150611c3283611c98565b925082821015611c4557611c44611ca2565b5b828203905092915050565b6000611c5b82611c78565b9050919050565b60008115159050919050565b6000819050919050565b600073ffffffffffffffffffffffffffffffffffffffff82169050919050565b6000819050919050565b7f4e487b7100000000000000000000000000000000000000000000000000000000600052601160045260246000fd5b7f456e756d657261626c655365743a20696e646578206f7574206f6620626f756e60008201527f6473000000000000000000000000000000000000000000000000000000000000602082015250565b7f416363657373436f6e74726f6c3a2073656e646572206d75737420626520616e60008201527f2061646d696e20746f206772616e740000000000000000000000000000000000602082015250565b7f5061757361626c653a206e6f7420706175736564000000000000000000000000600082015250565b7f423a4d4f443a2d4941444d2043616c6c65722021434f4e54524143545f41444d60008201527f494e5f524f4c4500000000000000000000000000000000000000000000000000602082015250565b7f416363657373436f6e74726f6c3a2073656e646572206d75737420626520616e60008201527f2061646d696e20746f207265766f6b6500000000000000000000000000000000602082015250565b7f423a4d4f442d49503a43616c6c696e672061646472657373206973206e6f742060008201527f7061757365720000000000000000000000000000000000000000000000000000602082015250565b7f5061757361626c653a2070617573656400000000000000000000000000000000600082015250565b7f423a54583a4d75737420686176652041535345545f545846525f524f4c450000600082015250565b7f423a4d4f443a2d4941444d2043616c6c657220215354414b455f41444d494e5f60008201527f524f4c4500000000000000000000000000000000000000000000000000000000602082015250565b7f5265656e7472616e637947756172643a207265656e7472616e742063616c6c00600082015250565b7f416363657373436f6e74726f6c3a2063616e206f6e6c792072656e6f756e636560008201527f20726f6c657320666f722073656c660000000000000000000000000000000000602082015250565b611fa781611c50565b8114611fb257600080fd5b50565b611fbe81611c62565b8114611fc957600080fd5b50565b611fd581611c6e565b8114611fe057600080fd5b50565b611fec81611c98565b8114611ff757600080fd5b5056fea26469706673582212202aa78ce5244f8a41dcf3ce20a6ca96a10b8e1bcb7e4248bd790bf58874ebc27c64736f6c63430008010033",
			"opcodes": "PUSH1 0x80 PUSH1 0x40 MSTORE CALLVALUE DUP1 ISZERO PUSH3 0x11 JUMPI PUSH1 0x0 DUP1 REVERT JUMPDEST POP PUSH1 0x1 PUSH1 0x0 DUP2 SWAP1 SSTORE POP PUSH1 0x0 PUSH1 0x2 PUSH1 0x0 PUSH2 0x100 EXP DUP2 SLOAD DUP2 PUSH1 0xFF MUL NOT AND SWAP1 DUP4 ISZERO ISZERO MUL OR SWAP1 SSTORE POP PUSH3 0x59 PUSH1 0x0 DUP1 SHL PUSH3 0x4D PUSH3 0xE1 PUSH1 0x20 SHL PUSH1 0x20 SHR JUMP JUMPDEST PUSH3 0xE9 PUSH1 0x20 SHL PUSH1 0x20 SHR JUMP JUMPDEST PUSH3 0x9A PUSH32 0x2CE8D04A9C35987429AF538825CD2438CC5C5BB5DC427955F84DAAA3EA105016 PUSH3 0x8E PUSH3 0xE1 PUSH1 0x20 SHL PUSH1 0x20 SHR JUMP JUMPDEST PUSH3 0xE9 PUSH1 0x20 SHL PUSH1 0x20 SHR JUMP JUMPDEST PUSH3 0xDB PUSH32 0x65D7A28E3265B37A6474929F336521B332C1681B933F6CB9F3376673440D862A PUSH3 0xCF PUSH3 0xE1 PUSH1 0x20 SHL PUSH1 0x20 SHR JUMP JUMPDEST PUSH3 0xE9 PUSH1 0x20 SHL PUSH1 0x20 SHR JUMP JUMPDEST PUSH3 0x278 JUMP JUMPDEST PUSH1 0x0 CALLER SWAP1 POP SWAP1 JUMP JUMPDEST PUSH3 0xFB DUP3 DUP3 PUSH3 0xFF PUSH1 0x20 SHL PUSH1 0x20 SHR JUMP JUMPDEST POP POP JUMP JUMPDEST PUSH3 0x12E DUP2 PUSH1 0x1 PUSH1 0x0 DUP6 DUP2 MSTORE PUSH1 0x20 ADD SWAP1 DUP2 MSTORE PUSH1 0x20 ADD PUSH1 0x0 KECCAK256 PUSH1 0x0 ADD PUSH3 0x1A3 PUSH1 0x20 SHL PUSH3 0xF84 OR SWAP1 SWAP2 SWAP1 PUSH1 0x20 SHR JUMP JUMPDEST ISZERO PUSH3 0x19F JUMPI PUSH3 0x144 PUSH3 0xE1 PUSH1 0x20 SHL PUSH1 0x20 SHR JUMP JUMPDEST PUSH20 0xFFFFFFFFFFFFFFFFFFFFFFFFFFFFFFFFFFFFFFFF AND DUP2 PUSH20 0xFFFFFFFFFFFFFFFFFFFFFFFFFFFFFFFFFFFFFFFF AND DUP4 PUSH32 0x2F8788117E7EFF1D82E926EC794901D17C78024A50270940304540A733656F0D PUSH1 0x40 MLOAD PUSH1 0x40 MLOAD DUP1 SWAP2 SUB SWAP1 LOG4 JUMPDEST POP POP JUMP JUMPDEST PUSH1 0x0 PUSH3 0x1D3 DUP4 PUSH1 0x0 ADD DUP4 PUSH20 0xFFFFFFFFFFFFFFFFFFFFFFFFFFFFFFFFFFFFFFFF AND PUSH1 0x0 SHL PUSH3 0x1DB PUSH1 0x20 SHL PUSH1 0x20 SHR JUMP JUMPDEST SWAP1 POP SWAP3 SWAP2 POP POP JUMP JUMPDEST PUSH1 0x0 PUSH3 0x1EF DUP4 DUP4 PUSH3 0x255 PUSH1 0x20 SHL PUSH1 0x20 SHR JUMP JUMPDEST PUSH3 0x24A JUMPI DUP3 PUSH1 0x0 ADD DUP3 SWAP1 DUP1 PUSH1 0x1 DUP2 SLOAD ADD DUP1 DUP3 SSTORE DUP1 SWAP2 POP POP PUSH1 0x1 SWAP1 SUB SWAP1 PUSH1 0x0 MSTORE PUSH1 0x20 PUSH1 0x0 KECCAK256 ADD PUSH1 0x0 SWAP1 SWAP2 SWAP1 SWAP2 SWAP1 SWAP2 POP SSTORE DUP3 PUSH1 0x0 ADD DUP1 SLOAD SWAP1 POP DUP4 PUSH1 0x1 ADD PUSH1 0x0 DUP5 DUP2 MSTORE PUSH1 0x20 ADD SWAP1 DUP2 MSTORE PUSH1 0x20 ADD PUSH1 0x0 KECCAK256 DUP2 SWAP1 SSTORE POP PUSH1 0x1 SWAP1 POP PUSH3 0x24F JUMP JUMPDEST PUSH1 0x0 SWAP1 POP JUMPDEST SWAP3 SWAP2 POP POP JUMP JUMPDEST PUSH1 0x0 DUP1 DUP4 PUSH1 0x1 ADD PUSH1 0x0 DUP5 DUP2 MSTORE PUSH1 0x20 ADD SWAP1 DUP2 MSTORE PUSH1 0x20 ADD PUSH1 0x0 KECCAK256 SLOAD EQ ISZERO SWAP1 POP SWAP3 SWAP2 POP POP JUMP JUMPDEST PUSH2 0x2030 DUP1 PUSH3 0x288 PUSH1 0x0 CODECOPY PUSH1 0x0 RETURN INVALID PUSH1 0x80 PUSH1 0x40 MSTORE CALLVALUE DUP1 ISZERO PUSH2 0x10 JUMPI PUSH1 0x0 DUP1 REVERT JUMPDEST POP PUSH1 0x4 CALLDATASIZE LT PUSH2 0x12C JUMPI PUSH1 0x0 CALLDATALOAD PUSH1 0xE0 SHR DUP1 PUSH4 0x690D9C2C GT PUSH2 0xAD JUMPI DUP1 PUSH4 0xA217FDDF GT PUSH2 0x71 JUMPI DUP1 PUSH4 0xA217FDDF EQ PUSH2 0x309 JUMPI DUP1 PUSH4 0xCA15C873 EQ PUSH2 0x327 JUMPI DUP1 PUSH4 0xD547741F EQ PUSH2 0x357 JUMPI DUP1 PUSH4 0xE63AB1E9 EQ PUSH2 0x373 JUMPI DUP1 PUSH4 0xEDFA127E EQ PUSH2 0x391 JUMPI PUSH2 0x12C JUMP JUMPDEST DUP1 PUSH4 0x690D9C2C EQ PUSH2 0x253 JUMPI DUP1 PUSH4 0x8456CB59 EQ PUSH2 0x26F JUMPI DUP1 PUSH4 0x9010D07C EQ PUSH2 0x279 JUMPI DUP1 PUSH4 0x91D14854 EQ PUSH2 0x2A9 JUMPI DUP1 PUSH4 0x94B8075E EQ PUSH2 0x2D9 JUMPI PUSH2 0x12C JUMP JUMPDEST DUP1 PUSH4 0x36568ABE GT PUSH2 0xF4 JUMPI DUP1 PUSH4 0x36568ABE EQ PUSH2 0x1D5 JUMPI DUP1 PUSH4 0x3F4BA83A EQ PUSH2 0x1F1 JUMPI DUP1 PUSH4 0x45F54485 EQ PUSH2 0x1FB JUMPI DUP1 PUSH4 0x52596A18 EQ PUSH2 0x217 JUMPI DUP1 PUSH4 0x5C975ABB EQ PUSH2 0x235 JUMPI PUSH2 0x12C JUMP JUMPDEST DUP1 PUSH4 0xD67B75E EQ PUSH2 0x131 JUMPI DUP1 PUSH4 0x1429DB5F EQ PUSH2 0x14D JUMPI DUP1 PUSH4 0x1DA03312 EQ PUSH2 0x16B JUMPI DUP1 PUSH4 0x248A9CA3 EQ PUSH2 0x189 JUMPI DUP1 PUSH4 0x2F2FF15D EQ PUSH2 0x1B9 JUMPI JUMPDEST PUSH1 0x0 DUP1 REVERT JUMPDEST PUSH2 0x14B PUSH1 0x4 DUP1 CALLDATASIZE SUB DUP2 ADD SWAP1 PUSH2 0x146 SWAP2 SWAP1 PUSH2 0x1790 JUMP JUMPDEST PUSH2 0x3AD JUMP JUMPDEST STOP JUMPDEST PUSH2 0x155 PUSH2 0x618 JUMP JUMPDEST PUSH1 0x40 MLOAD PUSH2 0x162 SWAP2 SWAP1 PUSH2 0x1A1F JUMP JUMPDEST PUSH1 0x40 MLOAD DUP1 SWAP2 SUB SWAP1 RETURN JUMPDEST PUSH2 0x173 PUSH2 0x63C JUMP JUMPDEST PUSH1 0x40 MLOAD PUSH2 0x180 SWAP2 SWAP1 PUSH2 0x1A1F JUMP JUMPDEST PUSH1 0x40 MLOAD DUP1 SWAP2 SUB SWAP1 RETURN JUMPDEST PUSH2 0x1A3 PUSH1 0x4 DUP1 CALLDATASIZE SUB DUP2 ADD SWAP1 PUSH2 0x19E SWAP2 SWAP1 PUSH2 0x16C6 JUMP JUMPDEST PUSH2 0x660 JUMP JUMPDEST PUSH1 0x40 MLOAD PUSH2 0x1B0 SWAP2 SWAP1 PUSH2 0x1A1F JUMP JUMPDEST PUSH1 0x40 MLOAD DUP1 SWAP2 SUB SWAP1 RETURN JUMPDEST PUSH2 0x1D3 PUSH1 0x4 DUP1 CALLDATASIZE SUB DUP2 ADD SWAP1 PUSH2 0x1CE SWAP2 SWAP1 PUSH2 0x16EF JUMP JUMPDEST PUSH2 0x680 JUMP JUMPDEST STOP JUMPDEST PUSH2 0x1EF PUSH1 0x4 DUP1 CALLDATASIZE SUB DUP2 ADD SWAP1 PUSH2 0x1EA SWAP2 SWAP1 PUSH2 0x16EF JUMP JUMPDEST PUSH2 0x6F4 JUMP JUMPDEST STOP JUMPDEST PUSH2 0x1F9 PUSH2 0x777 JUMP JUMPDEST STOP JUMPDEST PUSH2 0x215 PUSH1 0x4 DUP1 CALLDATASIZE SUB DUP2 ADD SWAP1 PUSH2 0x210 SWAP2 SWAP1 PUSH2 0x1767 JUMP JUMPDEST PUSH2 0x7F1 JUMP JUMPDEST STOP JUMPDEST PUSH2 0x21F PUSH2 0xA92 JUMP JUMPDEST PUSH1 0x40 MLOAD PUSH2 0x22C SWAP2 SWAP1 PUSH2 0x1A1F JUMP JUMPDEST PUSH1 0x40 MLOAD DUP1 SWAP2 SUB SWAP1 RETURN JUMPDEST PUSH2 0x23D PUSH2 0xAB6 JUMP JUMPDEST PUSH1 0x40 MLOAD PUSH2 0x24A SWAP2 SWAP1 PUSH2 0x1A04 JUMP JUMPDEST PUSH1 0x40 MLOAD DUP1 SWAP2 SUB SWAP1 RETURN JUMPDEST PUSH2 0x26D PUSH1 0x4 DUP1 CALLDATASIZE SUB DUP2 ADD SWAP1 PUSH2 0x268 SWAP2 SWAP1 PUSH2 0x1612 JUMP JUMPDEST PUSH2 0xACD JUMP JUMPDEST STOP JUMPDEST PUSH2 0x277 PUSH2 0xC89 JUMP JUMPDEST STOP JUMPDEST PUSH2 0x293 PUSH1 0x4 DUP1 CALLDATASIZE SUB DUP2 ADD SWAP1 PUSH2 0x28E SWAP2 SWAP1 PUSH2 0x172B JUMP JUMPDEST PUSH2 0xD03 JUMP JUMPDEST PUSH1 0x40 MLOAD PUSH2 0x2A0 SWAP2 SWAP1 PUSH2 0x1989 JUMP JUMPDEST PUSH1 0x40 MLOAD DUP1 SWAP2 SUB SWAP1 RETURN JUMPDEST PUSH2 0x2C3 PUSH1 0x4 DUP1 CALLDATASIZE SUB DUP2 ADD SWAP1 PUSH2 0x2BE SWAP2 SWAP1 PUSH2 0x16EF JUMP JUMPDEST PUSH2 0xD35 JUMP JUMPDEST PUSH1 0x40 MLOAD PUSH2 0x2D0 SWAP2 SWAP1 PUSH2 0x1A04 JUMP JUMPDEST PUSH1 0x40 MLOAD DUP1 SWAP2 SUB SWAP1 RETURN JUMPDEST PUSH2 0x2F3 PUSH1 0x4 DUP1 CALLDATASIZE SUB DUP2 ADD SWAP1 PUSH2 0x2EE SWAP2 SWAP1 PUSH2 0x1767 JUMP JUMPDEST PUSH2 0xD67 JUMP JUMPDEST PUSH1 0x40 MLOAD PUSH2 0x300 SWAP2 SWAP1 PUSH2 0x1B9A JUMP JUMPDEST PUSH1 0x40 MLOAD DUP1 SWAP2 SUB SWAP1 RETURN JUMPDEST PUSH2 0x311 PUSH2 0xD84 JUMP JUMPDEST PUSH1 0x40 MLOAD PUSH2 0x31E SWAP2 SWAP1 PUSH2 0x1A1F JUMP JUMPDEST PUSH1 0x40 MLOAD DUP1 SWAP2 SUB SWAP1 RETURN JUMPDEST PUSH2 0x341 PUSH1 0x4 DUP1 CALLDATASIZE SUB DUP2 ADD SWAP1 PUSH2 0x33C SWAP2 SWAP1 PUSH2 0x16C6 JUMP JUMPDEST PUSH2 0xD8B JUMP JUMPDEST PUSH1 0x40 MLOAD PUSH2 0x34E SWAP2 SWAP1 PUSH2 0x1B9A JUMP JUMPDEST PUSH1 0x40 MLOAD DUP1 SWAP2 SUB SWAP1 RETURN JUMPDEST PUSH2 0x371 PUSH1 0x4 DUP1 CALLDATASIZE SUB DUP2 ADD SWAP1 PUSH2 0x36C SWAP2 SWAP1 PUSH2 0x16EF JUMP JUMPDEST PUSH2 0xDB2 JUMP JUMPDEST STOP JUMPDEST PUSH2 0x37B PUSH2 0xE26 JUMP JUMPDEST PUSH1 0x40 MLOAD PUSH2 0x388 SWAP2 SWAP1 PUSH2 0x1A1F JUMP JUMPDEST PUSH1 0x40 MLOAD DUP1 SWAP2 SUB SWAP1 RETURN JUMPDEST PUSH2 0x3AB PUSH1 0x4 DUP1 CALLDATASIZE SUB DUP2 ADD SWAP1 PUSH2 0x3A6 SWAP2 SWAP1 PUSH2 0x164E JUMP JUMPDEST PUSH2 0xE4A JUMP JUMPDEST STOP JUMPDEST PUSH2 0x3DE PUSH32 0x4131A7610C35E48C1361939BE95AE3A1AC8C086117E2C07E101ED019715F7E17 PUSH2 0x3D9 PUSH2 0xFB4 JUMP JUMPDEST PUSH2 0xD35 JUMP JUMPDEST PUSH2 0x41D JUMPI PUSH1 0x40 MLOAD PUSH32 0x8C379A000000000000000000000000000000000000000000000000000000000 DUP2 MSTORE PUSH1 0x4 ADD PUSH2 0x414 SWAP1 PUSH2 0x1B3A JUMP JUMPDEST PUSH1 0x40 MLOAD DUP1 SWAP2 SUB SWAP1 REVERT JUMPDEST PUSH1 0x2 PUSH1 0x0 SLOAD EQ ISZERO PUSH2 0x463 JUMPI PUSH1 0x40 MLOAD PUSH32 0x8C379A000000000000000000000000000000000000000000000000000000000 DUP2 MSTORE PUSH1 0x4 ADD PUSH2 0x45A SWAP1 PUSH2 0x1B5A JUMP JUMPDEST PUSH1 0x40 MLOAD DUP1 SWAP2 SUB SWAP1 REVERT JUMPDEST PUSH1 0x2 PUSH1 0x0 DUP2 SWAP1 SSTORE POP PUSH2 0x473 PUSH2 0xAB6 JUMP JUMPDEST ISZERO PUSH2 0x4B3 JUMPI PUSH1 0x40 MLOAD PUSH32 0x8C379A000000000000000000000000000000000000000000000000000000000 DUP2 MSTORE PUSH1 0x4 ADD PUSH2 0x4AA SWAP1 PUSH2 0x1AFA JUMP JUMPDEST PUSH1 0x40 MLOAD DUP1 SWAP2 SUB SWAP1 REVERT JUMPDEST PUSH1 0x0 PUSH1 0x7 PUSH1 0x0 SWAP1 SLOAD SWAP1 PUSH2 0x100 EXP SWAP1 DIV PUSH20 0xFFFFFFFFFFFFFFFFFFFFFFFFFFFFFFFFFFFFFFFF AND PUSH20 0xFFFFFFFFFFFFFFFFFFFFFFFFFFFFFFFFFFFFFFFF AND PUSH4 0x6352211E DUP5 PUSH1 0x40 MLOAD DUP3 PUSH4 0xFFFFFFFF AND PUSH1 0xE0 SHL DUP2 MSTORE PUSH1 0x4 ADD PUSH2 0x510 SWAP2 SWAP1 PUSH2 0x1B9A JUMP JUMPDEST PUSH1 0x20 PUSH1 0x40 MLOAD DUP1 DUP4 SUB DUP2 DUP7 DUP1 EXTCODESIZE ISZERO DUP1 ISZERO PUSH2 0x528 JUMPI PUSH1 0x0 DUP1 REVERT JUMPDEST POP GAS STATICCALL ISZERO DUP1 ISZERO PUSH2 0x53C JUMPI RETURNDATASIZE PUSH1 0x0 DUP1 RETURNDATACOPY RETURNDATASIZE PUSH1 0x0 REVERT JUMPDEST POP POP POP POP PUSH1 0x40 MLOAD RETURNDATASIZE PUSH1 0x1F NOT PUSH1 0x1F DUP3 ADD AND DUP3 ADD DUP1 PUSH1 0x40 MSTORE POP DUP2 ADD SWAP1 PUSH2 0x560 SWAP2 SWAP1 PUSH2 0x15E9 JUMP JUMPDEST SWAP1 POP PUSH1 0x5 PUSH1 0x0 SWAP1 SLOAD SWAP1 PUSH2 0x100 EXP SWAP1 DIV PUSH20 0xFFFFFFFFFFFFFFFFFFFFFFFFFFFFFFFFFFFFFFFF AND PUSH20 0xFFFFFFFFFFFFFFFFFFFFFFFFFFFFFFFFFFFFFFFF AND PUSH4 0x9B30D1E9 DUP3 ADDRESS DUP6 PUSH1 0x40 MLOAD DUP5 PUSH4 0xFFFFFFFF AND PUSH1 0xE0 SHL DUP2 MSTORE PUSH1 0x4 ADD PUSH2 0x5C1 SWAP4 SWAP3 SWAP2 SWAP1 PUSH2 0x19A4 JUMP JUMPDEST PUSH1 0x0 PUSH1 0x40 MLOAD DUP1 DUP4 SUB DUP2 PUSH1 0x0 DUP8 DUP1 EXTCODESIZE ISZERO DUP1 ISZERO PUSH2 0x5DB JUMPI PUSH1 0x0 DUP1 REVERT JUMPDEST POP GAS CALL ISZERO DUP1 ISZERO PUSH2 0x5EF JUMPI RETURNDATASIZE PUSH1 0x0 DUP1 RETURNDATACOPY RETURNDATASIZE PUSH1 0x0 REVERT JUMPDEST POP POP POP POP DUP2 PUSH1 0x3 PUSH1 0x0 DUP6 DUP2 MSTORE PUSH1 0x20 ADD SWAP1 DUP2 MSTORE PUSH1 0x20 ADD PUSH1 0x0 KECCAK256 DUP2 SWAP1 SSTORE POP POP PUSH1 0x1 PUSH1 0x0 DUP2 SWAP1 SSTORE POP POP POP JUMP JUMPDEST PUSH32 0x7F1E4E9F3D9BA0452A25CFEF4CD4C6FFC86158D06ED2F585FA0093E12DEC429C DUP2 JUMP JUMPDEST PUSH32 0x2CE8D04A9C35987429AF538825CD2438CC5C5BB5DC427955F84DAAA3EA105016 DUP2 JUMP JUMPDEST PUSH1 0x0 PUSH1 0x1 PUSH1 0x0 DUP4 DUP2 MSTORE PUSH1 0x20 ADD SWAP1 DUP2 MSTORE PUSH1 0x20 ADD PUSH1 0x0 KECCAK256 PUSH1 0x2 ADD SLOAD SWAP1 POP SWAP2 SWAP1 POP JUMP JUMPDEST PUSH2 0x6A7 PUSH1 0x1 PUSH1 0x0 DUP5 DUP2 MSTORE PUSH1 0x20 ADD SWAP1 DUP2 MSTORE PUSH1 0x20 ADD PUSH1 0x0 KECCAK256 PUSH1 0x2 ADD SLOAD PUSH2 0x6A2 PUSH2 0xFB4 JUMP JUMPDEST PUSH2 0xD35 JUMP JUMPDEST PUSH2 0x6E6 JUMPI PUSH1 0x40 MLOAD PUSH32 0x8C379A000000000000000000000000000000000000000000000000000000000 DUP2 MSTORE PUSH1 0x4 ADD PUSH2 0x6DD SWAP1 PUSH2 0x1A5A JUMP JUMPDEST PUSH1 0x40 MLOAD DUP1 SWAP2 SUB SWAP1 REVERT JUMPDEST PUSH2 0x6F0 DUP3 DUP3 PUSH2 0xFBC JUMP JUMPDEST POP POP JUMP JUMPDEST PUSH2 0x6FC PUSH2 0xFB4 JUMP JUMPDEST PUSH20 0xFFFFFFFFFFFFFFFFFFFFFFFFFFFFFFFFFFFFFFFF AND DUP2 PUSH20 0xFFFFFFFFFFFFFFFFFFFFFFFFFFFFFFFFFFFFFFFF AND EQ PUSH2 0x769 JUMPI PUSH1 0x40 MLOAD PUSH32 0x8C379A000000000000000000000000000000000000000000000000000000000 DUP2 MSTORE PUSH1 0x4 ADD PUSH2 0x760 SWAP1 PUSH2 0x1B7A JUMP JUMPDEST PUSH1 0x40 MLOAD DUP1 SWAP2 SUB SWAP1 REVERT JUMPDEST PUSH2 0x773 DUP3 DUP3 PUSH2 0x1050 JUMP JUMPDEST POP POP JUMP JUMPDEST PUSH2 0x7A8 PUSH32 0x65D7A28E3265B37A6474929F336521B332C1681B933F6CB9F3376673440D862A PUSH2 0x7A3 PUSH2 0xFB4 JUMP JUMPDEST PUSH2 0xD35 JUMP JUMPDEST PUSH2 0x7E7 JUMPI PUSH1 0x40 MLOAD PUSH32 0x8C379A000000000000000000000000000000000000000000000000000000000 DUP2 MSTORE PUSH1 0x4 ADD PUSH2 0x7DE SWAP1 PUSH2 0x1ADA JUMP JUMPDEST PUSH1 0x40 MLOAD DUP1 SWAP2 SUB SWAP1 REVERT JUMPDEST PUSH2 0x7EF PUSH2 0x10E4 JUMP JUMPDEST JUMP JUMPDEST PUSH2 0x822 PUSH32 0x4131A7610C35E48C1361939BE95AE3A1AC8C086117E2C07E101ED019715F7E17 PUSH2 0x81D PUSH2 0xFB4 JUMP JUMPDEST PUSH2 0xD35 JUMP JUMPDEST PUSH2 0x861 JUMPI PUSH1 0x40 MLOAD PUSH32 0x8C379A000000000000000000000000000000000000000000000000000000000 DUP2 MSTORE PUSH1 0x4 ADD PUSH2 0x858 SWAP1 PUSH2 0x1B3A JUMP JUMPDEST PUSH1 0x40 MLOAD DUP1 SWAP2 SUB SWAP1 REVERT JUMPDEST PUSH1 0x2 PUSH1 0x0 SLOAD EQ ISZERO PUSH2 0x8A7 JUMPI PUSH1 0x40 MLOAD PUSH32 0x8C379A000000000000000000000000000000000000000000000000000000000 DUP2 MSTORE PUSH1 0x4 ADD PUSH2 0x89E SWAP1 PUSH2 0x1B5A JUMP JUMPDEST PUSH1 0x40 MLOAD DUP1 SWAP2 SUB SWAP1 REVERT JUMPDEST PUSH1 0x2 PUSH1 0x0 DUP2 SWAP1 SSTORE POP PUSH2 0x8B7 PUSH2 0xAB6 JUMP JUMPDEST ISZERO PUSH2 0x8F7 JUMPI PUSH1 0x40 MLOAD PUSH32 0x8C379A000000000000000000000000000000000000000000000000000000000 DUP2 MSTORE PUSH1 0x4 ADD PUSH2 0x8EE SWAP1 PUSH2 0x1AFA JUMP JUMPDEST PUSH1 0x40 MLOAD DUP1 SWAP2 SUB SWAP1 REVERT JUMPDEST PUSH1 0x0 PUSH1 0x7 PUSH1 0x0 SWAP1 SLOAD SWAP1 PUSH2 0x100 EXP SWAP1 DIV PUSH20 0xFFFFFFFFFFFFFFFFFFFFFFFFFFFFFFFFFFFFFFFF AND PUSH20 0xFFFFFFFFFFFFFFFFFFFFFFFFFFFFFFFFFFFFFFFF AND PUSH4 0x6352211E DUP4 PUSH1 0x40 MLOAD DUP3 PUSH4 0xFFFFFFFF AND PUSH1 0xE0 SHL DUP2 MSTORE PUSH1 0x4 ADD PUSH2 0x954 SWAP2 SWAP1 PUSH2 0x1B9A JUMP JUMPDEST PUSH1 0x20 PUSH1 0x40 MLOAD DUP1 DUP4 SUB DUP2 DUP7 DUP1 EXTCODESIZE ISZERO DUP1 ISZERO PUSH2 0x96C JUMPI PUSH1 0x0 DUP1 REVERT JUMPDEST POP GAS STATICCALL ISZERO DUP1 ISZERO PUSH2 0x980 JUMPI RETURNDATASIZE PUSH1 0x0 DUP1 RETURNDATACOPY RETURNDATASIZE PUSH1 0x0 REVERT JUMPDEST POP POP POP POP PUSH1 0x40 MLOAD RETURNDATASIZE PUSH1 0x1F NOT PUSH1 0x1F DUP3 ADD AND DUP3 ADD DUP1 PUSH1 0x40 MSTORE POP DUP2 ADD SWAP1 PUSH2 0x9A4 SWAP2 SWAP1 PUSH2 0x15E9 JUMP JUMPDEST SWAP1 POP PUSH1 0x0 PUSH1 0x3 PUSH1 0x0 DUP5 DUP2 MSTORE PUSH1 0x20 ADD SWAP1 DUP2 MSTORE PUSH1 0x20 ADD PUSH1 0x0 KECCAK256 SLOAD SWAP1 POP PUSH1 0x3 PUSH1 0x0 DUP5 DUP2 MSTORE PUSH1 0x20 ADD SWAP1 DUP2 MSTORE PUSH1 0x20 ADD PUSH1 0x0 KECCAK256 PUSH1 0x0 SWAP1 SSTORE PUSH1 0x5 PUSH1 0x0 SWAP1 SLOAD SWAP1 PUSH2 0x100 EXP SWAP1 DIV PUSH20 0xFFFFFFFFFFFFFFFFFFFFFFFFFFFFFFFFFFFFFFFF AND PUSH20 0xFFFFFFFFFFFFFFFFFFFFFFFFFFFFFFFFFFFFFFFF AND PUSH4 0xA9059CBB DUP4 DUP4 PUSH1 0x40 MLOAD DUP4 PUSH4 0xFFFFFFFF AND PUSH1 0xE0 SHL DUP2 MSTORE PUSH1 0x4 ADD PUSH2 0xA32 SWAP3 SWAP2 SWAP1 PUSH2 0x19DB JUMP JUMPDEST PUSH1 0x20 PUSH1 0x40 MLOAD DUP1 DUP4 SUB DUP2 PUSH1 0x0 DUP8 DUP1 EXTCODESIZE ISZERO DUP1 ISZERO PUSH2 0xA4C JUMPI PUSH1 0x0 DUP1 REVERT JUMPDEST POP GAS CALL ISZERO DUP1 ISZERO PUSH2 0xA60 JUMPI RETURNDATASIZE PUSH1 0x0 DUP1 RETURNDATACOPY RETURNDATASIZE PUSH1 0x0 REVERT JUMPDEST POP POP POP POP PUSH1 0x40 MLOAD RETURNDATASIZE PUSH1 0x1F NOT PUSH1 0x1F DUP3 ADD AND DUP3 ADD DUP1 PUSH1 0x40 MSTORE POP DUP2 ADD SWAP1 PUSH2 0xA84 SWAP2 SWAP1 PUSH2 0x169D JUMP JUMPDEST POP POP POP PUSH1 0x1 PUSH1 0x0 DUP2 SWAP1 SSTORE POP POP JUMP JUMPDEST PUSH32 0x4131A7610C35E48C1361939BE95AE3A1AC8C086117E2C07E101ED019715F7E17 DUP2 JUMP JUMPDEST PUSH1 0x0 PUSH1 0x2 PUSH1 0x0 SWAP1 SLOAD SWAP1 PUSH2 0x100 EXP SWAP1 DIV PUSH1 0xFF AND SWAP1 POP SWAP1 JUMP JUMPDEST PUSH2 0xAFE PUSH32 0x2CE8D04A9C35987429AF538825CD2438CC5C5BB5DC427955F84DAAA3EA105016 PUSH2 0xAF9 PUSH2 0xFB4 JUMP JUMPDEST PUSH2 0xD35 JUMP JUMPDEST PUSH2 0xB3D JUMPI PUSH1 0x40 MLOAD PUSH32 0x8C379A000000000000000000000000000000000000000000000000000000000 DUP2 MSTORE PUSH1 0x4 ADD PUSH2 0xB34 SWAP1 PUSH2 0x1A9A JUMP JUMPDEST PUSH1 0x40 MLOAD DUP1 SWAP2 SUB SWAP1 REVERT JUMPDEST DUP2 PUSH1 0x4 PUSH1 0x0 PUSH2 0x100 EXP DUP2 SLOAD DUP2 PUSH20 0xFFFFFFFFFFFFFFFFFFFFFFFFFFFFFFFFFFFFFFFF MUL NOT AND SWAP1 DUP4 PUSH20 0xFFFFFFFFFFFFFFFFFFFFFFFFFFFFFFFFFFFFFFFF AND MUL OR SWAP1 SSTORE POP PUSH1 0x4 PUSH1 0x0 SWAP1 SLOAD SWAP1 PUSH2 0x100 EXP SWAP1 DIV PUSH20 0xFFFFFFFFFFFFFFFFFFFFFFFFFFFFFFFFFFFFFFFF AND PUSH1 0x5 PUSH1 0x0 PUSH2 0x100 EXP DUP2 SLOAD DUP2 PUSH20 0xFFFFFFFFFFFFFFFFFFFFFFFFFFFFFFFFFFFFFFFF MUL NOT AND SWAP1 DUP4 PUSH20 0xFFFFFFFFFFFFFFFFFFFFFFFFFFFFFFFFFFFFFFFF AND MUL OR SWAP1 SSTORE POP DUP1 PUSH1 0x6 PUSH1 0x0 PUSH2 0x100 EXP DUP2 SLOAD DUP2 PUSH20 0xFFFFFFFFFFFFFFFFFFFFFFFFFFFFFFFFFFFFFFFF MUL NOT AND SWAP1 DUP4 PUSH20 0xFFFFFFFFFFFFFFFFFFFFFFFFFFFFFFFFFFFFFFFF AND MUL OR SWAP1 SSTORE POP PUSH1 0x6 PUSH1 0x0 SWAP1 SLOAD SWAP1 PUSH2 0x100 EXP SWAP1 DIV PUSH20 0xFFFFFFFFFFFFFFFFFFFFFFFFFFFFFFFFFFFFFFFF AND PUSH1 0x7 PUSH1 0x0 PUSH2 0x100 EXP DUP2 SLOAD DUP2 PUSH20 0xFFFFFFFFFFFFFFFFFFFFFFFFFFFFFFFFFFFFFFFF MUL NOT AND SWAP1 DUP4 PUSH20 0xFFFFFFFFFFFFFFFFFFFFFFFFFFFFFFFFFFFFFFFF AND MUL OR SWAP1 SSTORE POP POP POP JUMP JUMPDEST PUSH2 0xCBA PUSH32 0x65D7A28E3265B37A6474929F336521B332C1681B933F6CB9F3376673440D862A PUSH2 0xCB5 PUSH2 0xFB4 JUMP JUMPDEST PUSH2 0xD35 JUMP JUMPDEST PUSH2 0xCF9 JUMPI PUSH1 0x40 MLOAD PUSH32 0x8C379A000000000000000000000000000000000000000000000000000000000 DUP2 MSTORE PUSH1 0x4 ADD PUSH2 0xCF0 SWAP1 PUSH2 0x1ADA JUMP JUMPDEST PUSH1 0x40 MLOAD DUP1 SWAP2 SUB SWAP1 REVERT JUMPDEST PUSH2 0xD01 PUSH2 0x1186 JUMP JUMPDEST JUMP JUMPDEST PUSH1 0x0 PUSH2 0xD2D DUP3 PUSH1 0x1 PUSH1 0x0 DUP7 DUP2 MSTORE PUSH1 0x20 ADD SWAP1 DUP2 MSTORE PUSH1 0x20 ADD PUSH1 0x0 KECCAK256 PUSH1 0x0 ADD PUSH2 0x1229 SWAP1 SWAP2 SWAP1 PUSH4 0xFFFFFFFF AND JUMP JUMPDEST SWAP1 POP SWAP3 SWAP2 POP POP JUMP JUMPDEST PUSH1 0x0 PUSH2 0xD5F DUP3 PUSH1 0x1 PUSH1 0x0 DUP7 DUP2 MSTORE PUSH1 0x20 ADD SWAP1 DUP2 MSTORE PUSH1 0x20 ADD PUSH1 0x0 KECCAK256 PUSH1 0x0 ADD PUSH2 0x1243 SWAP1 SWAP2 SWAP1 PUSH4 0xFFFFFFFF AND JUMP JUMPDEST SWAP1 POP SWAP3 SWAP2 POP POP JUMP JUMPDEST PUSH1 0x0 PUSH1 0x3 PUSH1 0x0 DUP4 DUP2 MSTORE PUSH1 0x20 ADD SWAP1 DUP2 MSTORE PUSH1 0x20 ADD PUSH1 0x0 KECCAK256 SLOAD SWAP1 POP SWAP2 SWAP1 POP JUMP JUMPDEST PUSH1 0x0 DUP1 SHL DUP2 JUMP JUMPDEST PUSH1 0x0 PUSH2 0xDAB PUSH1 0x1 PUSH1 0x0 DUP5 DUP2 MSTORE PUSH1 0x20 ADD SWAP1 DUP2 MSTORE PUSH1 0x20 ADD PUSH1 0x0 KECCAK256 PUSH1 0x0 ADD PUSH2 0x1273 JUMP JUMPDEST SWAP1 POP SWAP2 SWAP1 POP JUMP JUMPDEST PUSH2 0xDD9 PUSH1 0x1 PUSH1 0x0 DUP5 DUP2 MSTORE PUSH1 0x20 ADD SWAP1 DUP2 MSTORE PUSH1 0x20 ADD PUSH1 0x0 KECCAK256 PUSH1 0x2 ADD SLOAD PUSH2 0xDD4 PUSH2 0xFB4 JUMP JUMPDEST PUSH2 0xD35 JUMP JUMPDEST PUSH2 0xE18 JUMPI PUSH1 0x40 MLOAD PUSH32 0x8C379A000000000000000000000000000000000000000000000000000000000 DUP2 MSTORE PUSH1 0x4 ADD PUSH2 0xE0F SWAP1 PUSH2 0x1ABA JUMP JUMPDEST PUSH1 0x40 MLOAD DUP1 SWAP2 SUB SWAP1 REVERT JUMPDEST PUSH2 0xE22 DUP3 DUP3 PUSH2 0x1050 JUMP JUMPDEST POP POP JUMP JUMPDEST PUSH32 0x65D7A28E3265B37A6474929F336521B332C1681B933F6CB9F3376673440D862A DUP2 JUMP JUMPDEST PUSH1 0x2 PUSH1 0x0 SLOAD EQ ISZERO PUSH2 0xE90 JUMPI PUSH1 0x40 MLOAD PUSH32 0x8C379A000000000000000000000000000000000000000000000000000000000 DUP2 MSTORE PUSH1 0x4 ADD PUSH2 0xE87 SWAP1 PUSH2 0x1B5A JUMP JUMPDEST PUSH1 0x40 MLOAD DUP1 SWAP2 SUB SWAP1 REVERT JUMPDEST PUSH1 0x2 PUSH1 0x0 DUP2 SWAP1 SSTORE POP PUSH2 0xEC9 PUSH32 0x7F1E4E9F3D9BA0452A25CFEF4CD4C6FFC86158D06ED2F585FA0093E12DEC429C PUSH2 0xEC4 PUSH2 0xFB4 JUMP JUMPDEST PUSH2 0xD35 JUMP JUMPDEST PUSH2 0xF08 JUMPI PUSH1 0x40 MLOAD PUSH32 0x8C379A000000000000000000000000000000000000000000000000000000000 DUP2 MSTORE PUSH1 0x4 ADD PUSH2 0xEFF SWAP1 PUSH2 0x1B1A JUMP JUMPDEST PUSH1 0x40 MLOAD DUP1 SWAP2 SUB SWAP1 REVERT JUMPDEST DUP1 PUSH20 0xFFFFFFFFFFFFFFFFFFFFFFFFFFFFFFFFFFFFFFFF AND PUSH4 0x42842E0E ADDRESS DUP6 DUP6 PUSH1 0x40 MLOAD DUP5 PUSH4 0xFFFFFFFF AND PUSH1 0xE0 SHL DUP2 MSTORE PUSH1 0x4 ADD PUSH2 0xF45 SWAP4 SWAP3 SWAP2 SWAP1 PUSH2 0x19A4 JUMP JUMPDEST PUSH1 0x0 PUSH1 0x40 MLOAD DUP1 DUP4 SUB DUP2 PUSH1 0x0 DUP8 DUP1 EXTCODESIZE ISZERO DUP1 ISZERO PUSH2 0xF5F JUMPI PUSH1 0x0 DUP1 REVERT JUMPDEST POP GAS CALL ISZERO DUP1 ISZERO PUSH2 0xF73 JUMPI RETURNDATASIZE PUSH1 0x0 DUP1 RETURNDATACOPY RETURNDATASIZE PUSH1 0x0 REVERT JUMPDEST POP POP POP POP PUSH1 0x1 PUSH1 0x0 DUP2 SWAP1 SSTORE POP POP POP POP JUMP JUMPDEST PUSH1 0x0 PUSH2 0xFAC DUP4 PUSH1 0x0 ADD DUP4 PUSH20 0xFFFFFFFFFFFFFFFFFFFFFFFFFFFFFFFFFFFFFFFF AND PUSH1 0x0 SHL PUSH2 0x1288 JUMP JUMPDEST SWAP1 POP SWAP3 SWAP2 POP POP JUMP JUMPDEST PUSH1 0x0 CALLER SWAP1 POP SWAP1 JUMP JUMPDEST PUSH2 0xFE4 DUP2 PUSH1 0x1 PUSH1 0x0 DUP6 DUP2 MSTORE PUSH1 0x20 ADD SWAP1 DUP2 MSTORE PUSH1 0x20 ADD PUSH1 0x0 KECCAK256 PUSH1 0x0 ADD PUSH2 0xF84 SWAP1 SWAP2 SWAP1 PUSH4 0xFFFFFFFF AND JUMP JUMPDEST ISZERO PUSH2 0x104C JUMPI PUSH2 0xFF1 PUSH2 0xFB4 JUMP JUMPDEST PUSH20 0xFFFFFFFFFFFFFFFFFFFFFFFFFFFFFFFFFFFFFFFF AND DUP2 PUSH20 0xFFFFFFFFFFFFFFFFFFFFFFFFFFFFFFFFFFFFFFFF AND DUP4 PUSH32 0x2F8788117E7EFF1D82E926EC794901D17C78024A50270940304540A733656F0D PUSH1 0x40 MLOAD PUSH1 0x40 MLOAD DUP1 SWAP2 SUB SWAP1 LOG4 JUMPDEST POP POP JUMP JUMPDEST PUSH2 0x1078 DUP2 PUSH1 0x1 PUSH1 0x0 DUP6 DUP2 MSTORE PUSH1 0x20 ADD SWAP1 DUP2 MSTORE PUSH1 0x20 ADD PUSH1 0x0 KECCAK256 PUSH1 0x0 ADD PUSH2 0x12F8 SWAP1 SWAP2 SWAP1 PUSH4 0xFFFFFFFF AND JUMP JUMPDEST ISZERO PUSH2 0x10E0 JUMPI PUSH2 0x1085 PUSH2 0xFB4 JUMP JUMPDEST PUSH20 0xFFFFFFFFFFFFFFFFFFFFFFFFFFFFFFFFFFFFFFFF AND DUP2 PUSH20 0xFFFFFFFFFFFFFFFFFFFFFFFFFFFFFFFFFFFFFFFF AND DUP4 PUSH32 0xF6391F5C32D9C69D2A47EA670B442974B53935D1EDC7FD64EB21E047A839171B PUSH1 0x40 MLOAD PUSH1 0x40 MLOAD DUP1 SWAP2 SUB SWAP1 LOG4 JUMPDEST POP POP JUMP JUMPDEST PUSH2 0x10EC PUSH2 0xAB6 JUMP JUMPDEST PUSH2 0x112B JUMPI PUSH1 0x40 MLOAD PUSH32 0x8C379A000000000000000000000000000000000000000000000000000000000 DUP2 MSTORE PUSH1 0x4 ADD PUSH2 0x1122 SWAP1 PUSH2 0x1A7A JUMP JUMPDEST PUSH1 0x40 MLOAD DUP1 SWAP2 SUB SWAP1 REVERT JUMPDEST PUSH1 0x0 PUSH1 0x2 PUSH1 0x0 PUSH2 0x100 EXP DUP2 SLOAD DUP2 PUSH1 0xFF MUL NOT AND SWAP1 DUP4 ISZERO ISZERO MUL OR SWAP1 SSTORE POP PUSH32 0x5DB9EE0A495BF2E6FF9C91A7834C1BA4FDD244A5E8AA4E537BD38AEAE4B073AA PUSH2 0x116F PUSH2 0xFB4 JUMP JUMPDEST PUSH1 0x40 MLOAD PUSH2 0x117C SWAP2 SWAP1 PUSH2 0x1989 JUMP JUMPDEST PUSH1 0x40 MLOAD DUP1 SWAP2 SUB SWAP1 LOG1 JUMP JUMPDEST PUSH2 0x118E PUSH2 0xAB6 JUMP JUMPDEST ISZERO PUSH2 0x11CE JUMPI PUSH1 0x40 MLOAD PUSH32 0x8C379A000000000000000000000000000000000000000000000000000000000 DUP2 MSTORE PUSH1 0x4 ADD PUSH2 0x11C5 SWAP1 PUSH2 0x1AFA JUMP JUMPDEST PUSH1 0x40 MLOAD DUP1 SWAP2 SUB SWAP1 REVERT JUMPDEST PUSH1 0x1 PUSH1 0x2 PUSH1 0x0 PUSH2 0x100 EXP DUP2 SLOAD DUP2 PUSH1 0xFF MUL NOT AND SWAP1 DUP4 ISZERO ISZERO MUL OR SWAP1 SSTORE POP PUSH32 0x62E78CEA01BEE320CD4E420270B5EA74000D11B0C9F74754EBDBFC544B05A258 PUSH2 0x1212 PUSH2 0xFB4 JUMP JUMPDEST PUSH1 0x40 MLOAD PUSH2 0x121F SWAP2 SWAP1 PUSH2 0x1989 JUMP JUMPDEST PUSH1 0x40 MLOAD DUP1 SWAP2 SUB SWAP1 LOG1 JUMP JUMPDEST PUSH1 0x0 PUSH2 0x1238 DUP4 PUSH1 0x0 ADD DUP4 PUSH2 0x1328 JUMP JUMPDEST PUSH1 0x0 SHR SWAP1 POP SWAP3 SWAP2 POP POP JUMP JUMPDEST PUSH1 0x0 PUSH2 0x126B DUP4 PUSH1 0x0 ADD DUP4 PUSH20 0xFFFFFFFFFFFFFFFFFFFFFFFFFFFFFFFFFFFFFFFF AND PUSH1 0x0 SHL PUSH2 0x13C2 JUMP JUMPDEST SWAP1 POP SWAP3 SWAP2 POP POP JUMP JUMPDEST PUSH1 0x0 PUSH2 0x1281 DUP3 PUSH1 0x0 ADD PUSH2 0x13E5 JUMP JUMPDEST SWAP1 POP SWAP2 SWAP1 POP JUMP JUMPDEST PUSH1 0x0 PUSH2 0x1294 DUP4 DUP4 PUSH2 0x13C2 JUMP JUMPDEST PUSH2 0x12ED JUMPI DUP3 PUSH1 0x0 ADD DUP3 SWAP1 DUP1 PUSH1 0x1 DUP2 SLOAD ADD DUP1 DUP3 SSTORE DUP1 SWAP2 POP POP PUSH1 0x1 SWAP1 SUB SWAP1 PUSH1 0x0 MSTORE PUSH1 0x20 PUSH1 0x0 KECCAK256 ADD PUSH1 0x0 SWAP1 SWAP2 SWAP1 SWAP2 SWAP1 SWAP2 POP SSTORE DUP3 PUSH1 0x0 ADD DUP1 SLOAD SWAP1 POP DUP4 PUSH1 0x1 ADD PUSH1 0x0 DUP5 DUP2 MSTORE PUSH1 0x20 ADD SWAP1 DUP2 MSTORE PUSH1 0x20 ADD PUSH1 0x0 KECCAK256 DUP2 SWAP1 SSTORE POP PUSH1 0x1 SWAP1 POP PUSH2 0x12F2 JUMP JUMPDEST PUSH1 0x0 SWAP1 POP JUMPDEST SWAP3 SWAP2 POP POP JUMP JUMPDEST PUSH1 0x0 PUSH2 0x1320 DUP4 PUSH1 0x0 ADD DUP4 PUSH20 0xFFFFFFFFFFFFFFFFFFFFFFFFFFFFFFFFFFFFFFFF AND PUSH1 0x0 SHL PUSH2 0x13F6 JUMP JUMPDEST SWAP1 POP SWAP3 SWAP2 POP POP JUMP JUMPDEST PUSH1 0x0 DUP2 DUP4 PUSH1 0x0 ADD DUP1 SLOAD SWAP1 POP GT PUSH2 0x1373 JUMPI PUSH1 0x40 MLOAD PUSH32 0x8C379A000000000000000000000000000000000000000000000000000000000 DUP2 MSTORE PUSH1 0x4 ADD PUSH2 0x136A SWAP1 PUSH2 0x1A3A JUMP JUMPDEST PUSH1 0x40 MLOAD DUP1 SWAP2 SUB SWAP1 REVERT JUMPDEST DUP3 PUSH1 0x0 ADD DUP3 DUP2 SLOAD DUP2 LT PUSH2 0x13AF JUMPI PUSH32 0x4E487B7100000000000000000000000000000000000000000000000000000000 PUSH1 0x0 MSTORE PUSH1 0x32 PUSH1 0x4 MSTORE PUSH1 0x24 PUSH1 0x0 REVERT JUMPDEST SWAP1 PUSH1 0x0 MSTORE PUSH1 0x20 PUSH1 0x0 KECCAK256 ADD SLOAD SWAP1 POP SWAP3 SWAP2 POP POP JUMP JUMPDEST PUSH1 0x0 DUP1 DUP4 PUSH1 0x1 ADD PUSH1 0x0 DUP5 DUP2 MSTORE PUSH1 0x20 ADD SWAP1 DUP2 MSTORE PUSH1 0x20 ADD PUSH1 0x0 KECCAK256 SLOAD EQ ISZERO SWAP1 POP SWAP3 SWAP2 POP POP JUMP JUMPDEST PUSH1 0x0 DUP2 PUSH1 0x0 ADD DUP1 SLOAD SWAP1 POP SWAP1 POP SWAP2 SWAP1 POP JUMP JUMPDEST PUSH1 0x0 DUP1 DUP4 PUSH1 0x1 ADD PUSH1 0x0 DUP5 DUP2 MSTORE PUSH1 0x20 ADD SWAP1 DUP2 MSTORE PUSH1 0x20 ADD PUSH1 0x0 KECCAK256 SLOAD SWAP1 POP PUSH1 0x0 DUP2 EQ PUSH2 0x1574 JUMPI PUSH1 0x0 PUSH1 0x1 DUP3 PUSH2 0x1428 SWAP2 SWAP1 PUSH2 0x1C1C JUMP JUMPDEST SWAP1 POP PUSH1 0x0 PUSH1 0x1 DUP7 PUSH1 0x0 ADD DUP1 SLOAD SWAP1 POP PUSH2 0x1440 SWAP2 SWAP1 PUSH2 0x1C1C JUMP JUMPDEST SWAP1 POP PUSH1 0x0 DUP7 PUSH1 0x0 ADD DUP3 DUP2 SLOAD DUP2 LT PUSH2 0x1480 JUMPI PUSH32 0x4E487B7100000000000000000000000000000000000000000000000000000000 PUSH1 0x0 MSTORE PUSH1 0x32 PUSH1 0x4 MSTORE PUSH1 0x24 PUSH1 0x0 REVERT JUMPDEST SWAP1 PUSH1 0x0 MSTORE PUSH1 0x20 PUSH1 0x0 KECCAK256 ADD SLOAD SWAP1 POP DUP1 DUP8 PUSH1 0x0 ADD DUP5 DUP2 SLOAD DUP2 LT PUSH2 0x14CA JUMPI PUSH32 0x4E487B7100000000000000000000000000000000000000000000000000000000 PUSH1 0x0 MSTORE PUSH1 0x32 PUSH1 0x4 MSTORE PUSH1 0x24 PUSH1 0x0 REVERT JUMPDEST SWAP1 PUSH1 0x0 MSTORE PUSH1 0x20 PUSH1 0x0 KECCAK256 ADD DUP2 SWAP1 SSTORE POP PUSH1 0x1 DUP4 PUSH2 0x14E5 SWAP2 SWAP1 PUSH2 0x1BC6 JUMP JUMPDEST DUP8 PUSH1 0x1 ADD PUSH1 0x0 DUP4 DUP2 MSTORE PUSH1 0x20 ADD SWAP1 DUP2 MSTORE PUSH1 0x20 ADD PUSH1 0x0 KECCAK256 DUP2 SWAP1 SSTORE POP DUP7 PUSH1 0x0 ADD DUP1 SLOAD DUP1 PUSH2 0x1538 JUMPI PUSH32 0x4E487B7100000000000000000000000000000000000000000000000000000000 PUSH1 0x0 MSTORE PUSH1 0x31 PUSH1 0x4 MSTORE PUSH1 0x24 PUSH1 0x0 REVERT JUMPDEST PUSH1 0x1 SWAP1 SUB DUP2 DUP2 SWAP1 PUSH1 0x0 MSTORE PUSH1 0x20 PUSH1 0x0 KECCAK256 ADD PUSH1 0x0 SWAP1 SSTORE SWAP1 SSTORE DUP7 PUSH1 0x1 ADD PUSH1 0x0 DUP8 DUP2 MSTORE PUSH1 0x20 ADD SWAP1 DUP2 MSTORE PUSH1 0x20 ADD PUSH1 0x0 KECCAK256 PUSH1 0x0 SWAP1 SSTORE PUSH1 0x1 SWAP5 POP POP POP POP POP PUSH2 0x157A JUMP JUMPDEST PUSH1 0x0 SWAP2 POP POP JUMPDEST SWAP3 SWAP2 POP POP JUMP JUMPDEST PUSH1 0x0 DUP2 CALLDATALOAD SWAP1 POP PUSH2 0x158F DUP2 PUSH2 0x1F9E JUMP JUMPDEST SWAP3 SWAP2 POP POP JUMP JUMPDEST PUSH1 0x0 DUP2 MLOAD SWAP1 POP PUSH2 0x15A4 DUP2 PUSH2 0x1F9E JUMP JUMPDEST SWAP3 SWAP2 POP POP JUMP JUMPDEST PUSH1 0x0 DUP2 MLOAD SWAP1 POP PUSH2 0x15B9 DUP2 PUSH2 0x1FB5 JUMP JUMPDEST SWAP3 SWAP2 POP POP JUMP JUMPDEST PUSH1 0x0 DUP2 CALLDATALOAD SWAP1 POP PUSH2 0x15CE DUP2 PUSH2 0x1FCC JUMP JUMPDEST SWAP3 SWAP2 POP POP JUMP JUMPDEST PUSH1 0x0 DUP2 CALLDATALOAD SWAP1 POP PUSH2 0x15E3 DUP2 PUSH2 0x1FE3 JUMP JUMPDEST SWAP3 SWAP2 POP POP JUMP JUMPDEST PUSH1 0x0 PUSH1 0x20 DUP3 DUP5 SUB SLT ISZERO PUSH2 0x15FB JUMPI PUSH1 0x0 DUP1 REVERT JUMPDEST PUSH1 0x0 PUSH2 0x1609 DUP5 DUP3 DUP6 ADD PUSH2 0x1595 JUMP JUMPDEST SWAP2 POP POP SWAP3 SWAP2 POP POP JUMP JUMPDEST PUSH1 0x0 DUP1 PUSH1 0x40 DUP4 DUP6 SUB SLT ISZERO PUSH2 0x1625 JUMPI PUSH1 0x0 DUP1 REVERT JUMPDEST PUSH1 0x0 PUSH2 0x1633 DUP6 DUP3 DUP7 ADD PUSH2 0x1580 JUMP JUMPDEST SWAP3 POP POP PUSH1 0x20 PUSH2 0x1644 DUP6 DUP3 DUP7 ADD PUSH2 0x1580 JUMP JUMPDEST SWAP2 POP POP SWAP3 POP SWAP3 SWAP1 POP JUMP JUMPDEST PUSH1 0x0 DUP1 PUSH1 0x0 PUSH1 0x60 DUP5 DUP7 SUB SLT ISZERO PUSH2 0x1663 JUMPI PUSH1 0x0 DUP1 REVERT JUMPDEST PUSH1 0x0 PUSH2 0x1671 DUP7 DUP3 DUP8 ADD PUSH2 0x1580 JUMP JUMPDEST SWAP4 POP POP PUSH1 0x20 PUSH2 0x1682 DUP7 DUP3 DUP8 ADD PUSH2 0x15D4 JUMP JUMPDEST SWAP3 POP POP PUSH1 0x40 PUSH2 0x1693 DUP7 DUP3 DUP8 ADD PUSH2 0x1580 JUMP JUMPDEST SWAP2 POP POP SWAP3 POP SWAP3 POP SWAP3 JUMP JUMPDEST PUSH1 0x0 PUSH1 0x20 DUP3 DUP5 SUB SLT ISZERO PUSH2 0x16AF JUMPI PUSH1 0x0 DUP1 REVERT JUMPDEST PUSH1 0x0 PUSH2 0x16BD DUP5 DUP3 DUP6 ADD PUSH2 0x15AA JUMP JUMPDEST SWAP2 POP POP SWAP3 SWAP2 POP POP JUMP JUMPDEST PUSH1 0x0 PUSH1 0x20 DUP3 DUP5 SUB SLT ISZERO PUSH2 0x16D8 JUMPI PUSH1 0x0 DUP1 REVERT JUMPDEST PUSH1 0x0 PUSH2 0x16E6 DUP5 DUP3 DUP6 ADD PUSH2 0x15BF JUMP JUMPDEST SWAP2 POP POP SWAP3 SWAP2 POP POP JUMP JUMPDEST PUSH1 0x0 DUP1 PUSH1 0x40 DUP4 DUP6 SUB SLT ISZERO PUSH2 0x1702 JUMPI PUSH1 0x0 DUP1 REVERT JUMPDEST PUSH1 0x0 PUSH2 0x1710 DUP6 DUP3 DUP7 ADD PUSH2 0x15BF JUMP JUMPDEST SWAP3 POP POP PUSH1 0x20 PUSH2 0x1721 DUP6 DUP3 DUP7 ADD PUSH2 0x1580 JUMP JUMPDEST SWAP2 POP POP SWAP3 POP SWAP3 SWAP1 POP JUMP JUMPDEST PUSH1 0x0 DUP1 PUSH1 0x40 DUP4 DUP6 SUB SLT ISZERO PUSH2 0x173E JUMPI PUSH1 0x0 DUP1 REVERT JUMPDEST PUSH1 0x0 PUSH2 0x174C DUP6 DUP3 DUP7 ADD PUSH2 0x15BF JUMP JUMPDEST SWAP3 POP POP PUSH1 0x20 PUSH2 0x175D DUP6 DUP3 DUP7 ADD PUSH2 0x15D4 JUMP JUMPDEST SWAP2 POP POP SWAP3 POP SWAP3 SWAP1 POP JUMP JUMPDEST PUSH1 0x0 PUSH1 0x20 DUP3 DUP5 SUB SLT ISZERO PUSH2 0x1779 JUMPI PUSH1 0x0 DUP1 REVERT JUMPDEST PUSH1 0x0 PUSH2 0x1787 DUP5 DUP3 DUP6 ADD PUSH2 0x15D4 JUMP JUMPDEST SWAP2 POP POP SWAP3 SWAP2 POP POP JUMP JUMPDEST PUSH1 0x0 DUP1 PUSH1 0x40 DUP4 DUP6 SUB SLT ISZERO PUSH2 0x17A3 JUMPI PUSH1 0x0 DUP1 REVERT JUMPDEST PUSH1 0x0 PUSH2 0x17B1 DUP6 DUP3 DUP7 ADD PUSH2 0x15D4 JUMP JUMPDEST SWAP3 POP POP PUSH1 0x20 PUSH2 0x17C2 DUP6 DUP3 DUP7 ADD PUSH2 0x15D4 JUMP JUMPDEST SWAP2 POP POP SWAP3 POP SWAP3 SWAP1 POP JUMP JUMPDEST PUSH2 0x17D5 DUP2 PUSH2 0x1C50 JUMP JUMPDEST DUP3 MSTORE POP POP JUMP JUMPDEST PUSH2 0x17E4 DUP2 PUSH2 0x1C62 JUMP JUMPDEST DUP3 MSTORE POP POP JUMP JUMPDEST PUSH2 0x17F3 DUP2 PUSH2 0x1C6E JUMP JUMPDEST DUP3 MSTORE POP POP JUMP JUMPDEST PUSH1 0x0 PUSH2 0x1806 PUSH1 0x22 DUP4 PUSH2 0x1BB5 JUMP JUMPDEST SWAP2 POP PUSH2 0x1811 DUP3 PUSH2 0x1CD1 JUMP JUMPDEST PUSH1 0x40 DUP3 ADD SWAP1 POP SWAP2 SWAP1 POP JUMP JUMPDEST PUSH1 0x0 PUSH2 0x1829 PUSH1 0x2F DUP4 PUSH2 0x1BB5 JUMP JUMPDEST SWAP2 POP PUSH2 0x1834 DUP3 PUSH2 0x1D20 JUMP JUMPDEST PUSH1 0x40 DUP3 ADD SWAP1 POP SWAP2 SWAP1 POP JUMP JUMPDEST PUSH1 0x0 PUSH2 0x184C PUSH1 0x14 DUP4 PUSH2 0x1BB5 JUMP JUMPDEST SWAP2 POP PUSH2 0x1857 DUP3 PUSH2 0x1D6F JUMP JUMPDEST PUSH1 0x20 DUP3 ADD SWAP1 POP SWAP2 SWAP1 POP JUMP JUMPDEST PUSH1 0x0 PUSH2 0x186F PUSH1 0x27 DUP4 PUSH2 0x1BB5 JUMP JUMPDEST SWAP2 POP PUSH2 0x187A DUP3 PUSH2 0x1D98 JUMP JUMPDEST PUSH1 0x40 DUP3 ADD SWAP1 POP SWAP2 SWAP1 POP JUMP JUMPDEST PUSH1 0x0 PUSH2 0x1892 PUSH1 0x30 DUP4 PUSH2 0x1BB5 JUMP JUMPDEST SWAP2 POP PUSH2 0x189D DUP3 PUSH2 0x1DE7 JUMP JUMPDEST PUSH1 0x40 DUP3 ADD SWAP1 POP SWAP2 SWAP1 POP JUMP JUMPDEST PUSH1 0x0 PUSH2 0x18B5 PUSH1 0x26 DUP4 PUSH2 0x1BB5 JUMP JUMPDEST SWAP2 POP PUSH2 0x18C0 DUP3 PUSH2 0x1E36 JUMP JUMPDEST PUSH1 0x40 DUP3 ADD SWAP1 POP SWAP2 SWAP1 POP JUMP JUMPDEST PUSH1 0x0 PUSH2 0x18D8 PUSH1 0x10 DUP4 PUSH2 0x1BB5 JUMP JUMPDEST SWAP2 POP PUSH2 0x18E3 DUP3 PUSH2 0x1E85 JUMP JUMPDEST PUSH1 0x20 DUP3 ADD SWAP1 POP SWAP2 SWAP1 POP JUMP JUMPDEST PUSH1 0x0 PUSH2 0x18FB PUSH1 0x1E DUP4 PUSH2 0x1BB5 JUMP JUMPDEST SWAP2 POP PUSH2 0x1906 DUP3 PUSH2 0x1EAE JUMP JUMPDEST PUSH1 0x20 DUP3 ADD SWAP1 POP SWAP2 SWAP1 POP JUMP JUMPDEST PUSH1 0x0 PUSH2 0x191E PUSH1 0x24 DUP4 PUSH2 0x1BB5 JUMP JUMPDEST SWAP2 POP PUSH2 0x1929 DUP3 PUSH2 0x1ED7 JUMP JUMPDEST PUSH1 0x40 DUP3 ADD SWAP1 POP SWAP2 SWAP1 POP JUMP JUMPDEST PUSH1 0x0 PUSH2 0x1941 PUSH1 0x1F DUP4 PUSH2 0x1BB5 JUMP JUMPDEST SWAP2 POP PUSH2 0x194C DUP3 PUSH2 0x1F26 JUMP JUMPDEST PUSH1 0x20 DUP3 ADD SWAP1 POP SWAP2 SWAP1 POP JUMP JUMPDEST PUSH1 0x0 PUSH2 0x1964 PUSH1 0x2F DUP4 PUSH2 0x1BB5 JUMP JUMPDEST SWAP2 POP PUSH2 0x196F DUP3 PUSH2 0x1F4F JUMP JUMPDEST PUSH1 0x40 DUP3 ADD SWAP1 POP SWAP2 SWAP1 POP JUMP JUMPDEST PUSH2 0x1983 DUP2 PUSH2 0x1C98 JUMP JUMPDEST DUP3 MSTORE POP POP JUMP JUMPDEST PUSH1 0x0 PUSH1 0x20 DUP3 ADD SWAP1 POP PUSH2 0x199E PUSH1 0x0 DUP4 ADD DUP5 PUSH2 0x17CC JUMP JUMPDEST SWAP3 SWAP2 POP POP JUMP JUMPDEST PUSH1 0x0 PUSH1 0x60 DUP3 ADD SWAP1 POP PUSH2 0x19B9 PUSH1 0x0 DUP4 ADD DUP7 PUSH2 0x17CC JUMP JUMPDEST PUSH2 0x19C6 PUSH1 0x20 DUP4 ADD DUP6 PUSH2 0x17CC JUMP JUMPDEST PUSH2 0x19D3 PUSH1 0x40 DUP4 ADD DUP5 PUSH2 0x197A JUMP JUMPDEST SWAP5 SWAP4 POP POP POP POP JUMP JUMPDEST PUSH1 0x0 PUSH1 0x40 DUP3 ADD SWAP1 POP PUSH2 0x19F0 PUSH1 0x0 DUP4 ADD DUP6 PUSH2 0x17CC JUMP JUMPDEST PUSH2 0x19FD PUSH1 0x20 DUP4 ADD DUP5 PUSH2 0x197A JUMP JUMPDEST SWAP4 SWAP3 POP POP POP JUMP JUMPDEST PUSH1 0x0 PUSH1 0x20 DUP3 ADD SWAP1 POP PUSH2 0x1A19 PUSH1 0x0 DUP4 ADD DUP5 PUSH2 0x17DB JUMP JUMPDEST SWAP3 SWAP2 POP POP JUMP JUMPDEST PUSH1 0x0 PUSH1 0x20 DUP3 ADD SWAP1 POP PUSH2 0x1A34 PUSH1 0x0 DUP4 ADD DUP5 PUSH2 0x17EA JUMP JUMPDEST SWAP3 SWAP2 POP POP JUMP JUMPDEST PUSH1 0x0 PUSH1 0x20 DUP3 ADD SWAP1 POP DUP2 DUP2 SUB PUSH1 0x0 DUP4 ADD MSTORE PUSH2 0x1A53 DUP2 PUSH2 0x17F9 JUMP JUMPDEST SWAP1 POP SWAP2 SWAP1 POP JUMP JUMPDEST PUSH1 0x0 PUSH1 0x20 DUP3 ADD SWAP1 POP DUP2 DUP2 SUB PUSH1 0x0 DUP4 ADD MSTORE PUSH2 0x1A73 DUP2 PUSH2 0x181C JUMP JUMPDEST SWAP1 POP SWAP2 SWAP1 POP JUMP JUMPDEST PUSH1 0x0 PUSH1 0x20 DUP3 ADD SWAP1 POP DUP2 DUP2 SUB PUSH1 0x0 DUP4 ADD MSTORE PUSH2 0x1A93 DUP2 PUSH2 0x183F JUMP JUMPDEST SWAP1 POP SWAP2 SWAP1 POP JUMP JUMPDEST PUSH1 0x0 PUSH1 0x20 DUP3 ADD SWAP1 POP DUP2 DUP2 SUB PUSH1 0x0 DUP4 ADD MSTORE PUSH2 0x1AB3 DUP2 PUSH2 0x1862 JUMP JUMPDEST SWAP1 POP SWAP2 SWAP1 POP JUMP JUMPDEST PUSH1 0x0 PUSH1 0x20 DUP3 ADD SWAP1 POP DUP2 DUP2 SUB PUSH1 0x0 DUP4 ADD MSTORE PUSH2 0x1AD3 DUP2 PUSH2 0x1885 JUMP JUMPDEST SWAP1 POP SWAP2 SWAP1 POP JUMP JUMPDEST PUSH1 0x0 PUSH1 0x20 DUP3 ADD SWAP1 POP DUP2 DUP2 SUB PUSH1 0x0 DUP4 ADD MSTORE PUSH2 0x1AF3 DUP2 PUSH2 0x18A8 JUMP JUMPDEST SWAP1 POP SWAP2 SWAP1 POP JUMP JUMPDEST PUSH1 0x0 PUSH1 0x20 DUP3 ADD SWAP1 POP DUP2 DUP2 SUB PUSH1 0x0 DUP4 ADD MSTORE PUSH2 0x1B13 DUP2 PUSH2 0x18CB JUMP JUMPDEST SWAP1 POP SWAP2 SWAP1 POP JUMP JUMPDEST PUSH1 0x0 PUSH1 0x20 DUP3 ADD SWAP1 POP DUP2 DUP2 SUB PUSH1 0x0 DUP4 ADD MSTORE PUSH2 0x1B33 DUP2 PUSH2 0x18EE JUMP JUMPDEST SWAP1 POP SWAP2 SWAP1 POP JUMP JUMPDEST PUSH1 0x0 PUSH1 0x20 DUP3 ADD SWAP1 POP DUP2 DUP2 SUB PUSH1 0x0 DUP4 ADD MSTORE PUSH2 0x1B53 DUP2 PUSH2 0x1911 JUMP JUMPDEST SWAP1 POP SWAP2 SWAP1 POP JUMP JUMPDEST PUSH1 0x0 PUSH1 0x20 DUP3 ADD SWAP1 POP DUP2 DUP2 SUB PUSH1 0x0 DUP4 ADD MSTORE PUSH2 0x1B73 DUP2 PUSH2 0x1934 JUMP JUMPDEST SWAP1 POP SWAP2 SWAP1 POP JUMP JUMPDEST PUSH1 0x0 PUSH1 0x20 DUP3 ADD SWAP1 POP DUP2 DUP2 SUB PUSH1 0x0 DUP4 ADD MSTORE PUSH2 0x1B93 DUP2 PUSH2 0x1957 JUMP JUMPDEST SWAP1 POP SWAP2 SWAP1 POP JUMP JUMPDEST PUSH1 0x0 PUSH1 0x20 DUP3 ADD SWAP1 POP PUSH2 0x1BAF PUSH1 0x0 DUP4 ADD DUP5 PUSH2 0x197A JUMP JUMPDEST SWAP3 SWAP2 POP POP JUMP JUMPDEST PUSH1 0x0 DUP3 DUP3 MSTORE PUSH1 0x20 DUP3 ADD SWAP1 POP SWAP3 SWAP2 POP POP JUMP JUMPDEST PUSH1 0x0 PUSH2 0x1BD1 DUP3 PUSH2 0x1C98 JUMP JUMPDEST SWAP2 POP PUSH2 0x1BDC DUP4 PUSH2 0x1C98 JUMP JUMPDEST SWAP3 POP DUP3 PUSH32 0xFFFFFFFFFFFFFFFFFFFFFFFFFFFFFFFFFFFFFFFFFFFFFFFFFFFFFFFFFFFFFFFF SUB DUP3 GT ISZERO PUSH2 0x1C11 JUMPI PUSH2 0x1C10 PUSH2 0x1CA2 JUMP JUMPDEST JUMPDEST DUP3 DUP3 ADD SWAP1 POP SWAP3 SWAP2 POP POP JUMP JUMPDEST PUSH1 0x0 PUSH2 0x1C27 DUP3 PUSH2 0x1C98 JUMP JUMPDEST SWAP2 POP PUSH2 0x1C32 DUP4 PUSH2 0x1C98 JUMP JUMPDEST SWAP3 POP DUP3 DUP3 LT ISZERO PUSH2 0x1C45 JUMPI PUSH2 0x1C44 PUSH2 0x1CA2 JUMP JUMPDEST JUMPDEST DUP3 DUP3 SUB SWAP1 POP SWAP3 SWAP2 POP POP JUMP JUMPDEST PUSH1 0x0 PUSH2 0x1C5B DUP3 PUSH2 0x1C78 JUMP JUMPDEST SWAP1 POP SWAP2 SWAP1 POP JUMP JUMPDEST PUSH1 0x0 DUP2 ISZERO ISZERO SWAP1 POP SWAP2 SWAP1 POP JUMP JUMPDEST PUSH1 0x0 DUP2 SWAP1 POP SWAP2 SWAP1 POP JUMP JUMPDEST PUSH1 0x0 PUSH20 0xFFFFFFFFFFFFFFFFFFFFFFFFFFFFFFFFFFFFFFFF DUP3 AND SWAP1 POP SWAP2 SWAP1 POP JUMP JUMPDEST PUSH1 0x0 DUP2 SWAP1 POP SWAP2 SWAP1 POP JUMP JUMPDEST PUSH32 0x4E487B7100000000000000000000000000000000000000000000000000000000 PUSH1 0x0 MSTORE PUSH1 0x11 PUSH1 0x4 MSTORE PUSH1 0x24 PUSH1 0x0 REVERT JUMPDEST PUSH32 0x456E756D657261626C655365743A20696E646578206F7574206F6620626F756E PUSH1 0x0 DUP3 ADD MSTORE PUSH32 0x6473000000000000000000000000000000000000000000000000000000000000 PUSH1 0x20 DUP3 ADD MSTORE POP JUMP JUMPDEST PUSH32 0x416363657373436F6E74726F6C3A2073656E646572206D75737420626520616E PUSH1 0x0 DUP3 ADD MSTORE PUSH32 0x2061646D696E20746F206772616E740000000000000000000000000000000000 PUSH1 0x20 DUP3 ADD MSTORE POP JUMP JUMPDEST PUSH32 0x5061757361626C653A206E6F7420706175736564000000000000000000000000 PUSH1 0x0 DUP3 ADD MSTORE POP JUMP JUMPDEST PUSH32 0x423A4D4F443A2D4941444D2043616C6C65722021434F4E54524143545F41444D PUSH1 0x0 DUP3 ADD MSTORE PUSH32 0x494E5F524F4C4500000000000000000000000000000000000000000000000000 PUSH1 0x20 DUP3 ADD MSTORE POP JUMP JUMPDEST PUSH32 0x416363657373436F6E74726F6C3A2073656E646572206D75737420626520616E PUSH1 0x0 DUP3 ADD MSTORE PUSH32 0x2061646D696E20746F207265766F6B6500000000000000000000000000000000 PUSH1 0x20 DUP3 ADD MSTORE POP JUMP JUMPDEST PUSH32 0x423A4D4F442D49503A43616C6C696E672061646472657373206973206E6F7420 PUSH1 0x0 DUP3 ADD MSTORE PUSH32 0x7061757365720000000000000000000000000000000000000000000000000000 PUSH1 0x20 DUP3 ADD MSTORE POP JUMP JUMPDEST PUSH32 0x5061757361626C653A2070617573656400000000000000000000000000000000 PUSH1 0x0 DUP3 ADD MSTORE POP JUMP JUMPDEST PUSH32 0x423A54583A4D75737420686176652041535345545F545846525F524F4C450000 PUSH1 0x0 DUP3 ADD MSTORE POP JUMP JUMPDEST PUSH32 0x423A4D4F443A2D4941444D2043616C6C657220215354414B455F41444D494E5F PUSH1 0x0 DUP3 ADD MSTORE PUSH32 0x524F4C4500000000000000000000000000000000000000000000000000000000 PUSH1 0x20 DUP3 ADD MSTORE POP JUMP JUMPDEST PUSH32 0x5265656E7472616E637947756172643A207265656E7472616E742063616C6C00 PUSH1 0x0 DUP3 ADD MSTORE POP JUMP JUMPDEST PUSH32 0x416363657373436F6E74726F6C3A2063616E206F6E6C792072656E6F756E6365 PUSH1 0x0 DUP3 ADD MSTORE PUSH32 0x20726F6C657320666F722073656C660000000000000000000000000000000000 PUSH1 0x20 DUP3 ADD MSTORE POP JUMP JUMPDEST PUSH2 0x1FA7 DUP2 PUSH2 0x1C50 JUMP JUMPDEST DUP2 EQ PUSH2 0x1FB2 JUMPI PUSH1 0x0 DUP1 REVERT JUMPDEST POP JUMP JUMPDEST PUSH2 0x1FBE DUP2 PUSH2 0x1C62 JUMP JUMPDEST DUP2 EQ PUSH2 0x1FC9 JUMPI PUSH1 0x0 DUP1 REVERT JUMPDEST POP JUMP JUMPDEST PUSH2 0x1FD5 DUP2 PUSH2 0x1C6E JUMP JUMPDEST DUP2 EQ PUSH2 0x1FE0 JUMPI PUSH1 0x0 DUP1 REVERT JUMPDEST POP JUMP JUMPDEST PUSH2 0x1FEC DUP2 PUSH2 0x1C98 JUMP JUMPDEST DUP2 EQ PUSH2 0x1FF7 JUMPI PUSH1 0x0 DUP1 REVERT JUMPDEST POP JUMP INVALID LOG2 PUSH5 0x6970667358 0x22 SLT KECCAK256 0x2A 0xA7 DUP13 0xE5 0x24 0x4F DUP11 COINBASE 0xDC RETURN 0xCE KECCAK256 0xA6 0xCA SWAP7 LOG1 SIGNEXTEND DUP15 SHL 0xCB PUSH31 0x4248BD790BF58874EBC27C64736F6C63430008010033000000000000000000 "
		},
		"gasEstimates": {
			"creation": {
				"codeDepositCost": "1648000",
				"executionCost": "infinite",
				"totalCost": "infinite"
			},
			"external": {
				"ASSET_TXFR_ROLE()": "375",
				"Admin_setTokenContracts(address,address)": "infinite",
				"CONTRACT_ADMIN_ROLE()": "397",
				"DEFAULT_ADMIN_ROLE()": "357",
				"PAUSER_ROLE()": "417",
				"STAKE_ADMIN_ROLE()": "418",
				"getRoleAdmin(bytes32)": "infinite",
				"getRoleMember(bytes32,uint256)": "infinite",
				"getRoleMemberCount(bytes32)": "1636",
				"grantRole(bytes32,address)": "infinite",
				"hasRole(bytes32,address)": "infinite",
				"pause()": "infinite",
				"paused()": "1290",
				"releaseStake(uint256)": "infinite",
				"renounceRole(bytes32,address)": "infinite",
				"revokeRole(bytes32,address)": "infinite",
				"stakeOfToken(uint256)": "infinite",
				"takeStake(uint256,uint256)": "infinite",
				"transferERC721Token(address,uint256,address)": "infinite",
				"unpause()": "infinite"
			}
		},
		"methodIdentifiers": {
			"ASSET_TXFR_ROLE()": "1429db5f",
			"Admin_setTokenContracts(address,address)": "690d9c2c",
			"CONTRACT_ADMIN_ROLE()": "1da03312",
			"DEFAULT_ADMIN_ROLE()": "a217fddf",
			"PAUSER_ROLE()": "e63ab1e9",
			"STAKE_ADMIN_ROLE()": "52596a18",
			"getRoleAdmin(bytes32)": "248a9ca3",
			"getRoleMember(bytes32,uint256)": "9010d07c",
			"getRoleMemberCount(bytes32)": "ca15c873",
			"grantRole(bytes32,address)": "2f2ff15d",
			"hasRole(bytes32,address)": "91d14854",
			"pause()": "8456cb59",
			"paused()": "5c975abb",
			"releaseStake(uint256)": "45f54485",
			"renounceRole(bytes32,address)": "36568abe",
			"revokeRole(bytes32,address)": "d547741f",
			"stakeOfToken(uint256)": "94b8075e",
			"takeStake(uint256,uint256)": "0d67b75e",
			"transferERC721Token(address,uint256,address)": "edfa127e",
			"unpause()": "3f4ba83a"
		}
	},
	"abi": [
		{
			"inputs": [],
			"stateMutability": "nonpayable",
			"type": "constructor"
		},
		{
			"anonymous": false,
			"inputs": [
				{
					"indexed": false,
					"internalType": "address",
					"name": "account",
					"type": "address"
				}
			],
			"name": "Paused",
			"type": "event"
		},
		{
			"anonymous": false,
			"inputs": [
				{
					"indexed": true,
					"internalType": "bytes32",
					"name": "role",
					"type": "bytes32"
				},
				{
					"indexed": true,
					"internalType": "bytes32",
					"name": "previousAdminRole",
					"type": "bytes32"
				},
				{
					"indexed": true,
					"internalType": "bytes32",
					"name": "newAdminRole",
					"type": "bytes32"
				}
			],
			"name": "RoleAdminChanged",
			"type": "event"
		},
		{
			"anonymous": false,
			"inputs": [
				{
					"indexed": true,
					"internalType": "bytes32",
					"name": "role",
					"type": "bytes32"
				},
				{
					"indexed": true,
					"internalType": "address",
					"name": "account",
					"type": "address"
				},
				{
					"indexed": true,
					"internalType": "address",
					"name": "sender",
					"type": "address"
				}
			],
			"name": "RoleGranted",
			"type": "event"
		},
		{
			"anonymous": false,
			"inputs": [
				{
					"indexed": true,
					"internalType": "bytes32",
					"name": "role",
					"type": "bytes32"
				},
				{
					"indexed": true,
					"internalType": "address",
					"name": "account",
					"type": "address"
				},
				{
					"indexed": true,
					"internalType": "address",
					"name": "sender",
					"type": "address"
				}
			],
			"name": "RoleRevoked",
			"type": "event"
		},
		{
			"anonymous": false,
			"inputs": [
				{
					"indexed": false,
					"internalType": "address",
					"name": "account",
					"type": "address"
				}
			],
			"name": "Unpaused",
			"type": "event"
		},
		{
			"inputs": [],
			"name": "ASSET_TXFR_ROLE",
			"outputs": [
				{
					"internalType": "bytes32",
					"name": "",
					"type": "bytes32"
				}
			],
			"stateMutability": "view",
			"type": "function"
		},
		{
			"inputs": [
				{
					"internalType": "address",
					"name": "_utilAddress",
					"type": "address"
				},
				{
					"internalType": "address",
					"name": "_stakeAddress",
					"type": "address"
				}
			],
			"name": "Admin_setTokenContracts",
			"outputs": [],
			"stateMutability": "nonpayable",
			"type": "function"
		},
		{
			"inputs": [],
			"name": "CONTRACT_ADMIN_ROLE",
			"outputs": [
				{
					"internalType": "bytes32",
					"name": "",
					"type": "bytes32"
				}
			],
			"stateMutability": "view",
			"type": "function"
		},
		{
			"inputs": [],
			"name": "DEFAULT_ADMIN_ROLE",
			"outputs": [
				{
					"internalType": "bytes32",
					"name": "",
					"type": "bytes32"
				}
			],
			"stateMutability": "view",
			"type": "function"
		},
		{
			"inputs": [],
			"name": "PAUSER_ROLE",
			"outputs": [
				{
					"internalType": "bytes32",
					"name": "",
					"type": "bytes32"
				}
			],
			"stateMutability": "view",
			"type": "function"
		},
		{
			"inputs": [],
			"name": "STAKE_ADMIN_ROLE",
			"outputs": [
				{
					"internalType": "bytes32",
					"name": "",
					"type": "bytes32"
				}
			],
			"stateMutability": "view",
			"type": "function"
		},
		{
			"inputs": [
				{
					"internalType": "bytes32",
					"name": "role",
					"type": "bytes32"
				}
			],
			"name": "getRoleAdmin",
			"outputs": [
				{
					"internalType": "bytes32",
					"name": "",
					"type": "bytes32"
				}
			],
			"stateMutability": "view",
			"type": "function"
		},
		{
			"inputs": [
				{
					"internalType": "bytes32",
					"name": "role",
					"type": "bytes32"
				},
				{
					"internalType": "uint256",
					"name": "index",
					"type": "uint256"
				}
			],
			"name": "getRoleMember",
			"outputs": [
				{
					"internalType": "address",
					"name": "",
					"type": "address"
				}
			],
			"stateMutability": "view",
			"type": "function"
		},
		{
			"inputs": [
				{
					"internalType": "bytes32",
					"name": "role",
					"type": "bytes32"
				}
			],
			"name": "getRoleMemberCount",
			"outputs": [
				{
					"internalType": "uint256",
					"name": "",
					"type": "uint256"
				}
			],
			"stateMutability": "view",
			"type": "function"
		},
		{
			"inputs": [
				{
					"internalType": "bytes32",
					"name": "role",
					"type": "bytes32"
				},
				{
					"internalType": "address",
					"name": "account",
					"type": "address"
				}
			],
			"name": "grantRole",
			"outputs": [],
			"stateMutability": "nonpayable",
			"type": "function"
		},
		{
			"inputs": [
				{
					"internalType": "bytes32",
					"name": "role",
					"type": "bytes32"
				},
				{
					"internalType": "address",
					"name": "account",
					"type": "address"
				}
			],
			"name": "hasRole",
			"outputs": [
				{
					"internalType": "bool",
					"name": "",
					"type": "bool"
				}
			],
			"stateMutability": "view",
			"type": "function"
		},
		{
			"inputs": [],
			"name": "pause",
			"outputs": [],
			"stateMutability": "nonpayable",
			"type": "function"
		},
		{
			"inputs": [],
			"name": "paused",
			"outputs": [
				{
					"internalType": "bool",
					"name": "",
					"type": "bool"
				}
			],
			"stateMutability": "view",
			"type": "function"
		},
		{
			"inputs": [
				{
					"internalType": "uint256",
					"name": "_tokenId",
					"type": "uint256"
				}
			],
			"name": "releaseStake",
			"outputs": [],
			"stateMutability": "nonpayable",
			"type": "function"
		},
		{
			"inputs": [
				{
					"internalType": "bytes32",
					"name": "role",
					"type": "bytes32"
				},
				{
					"internalType": "address",
					"name": "account",
					"type": "address"
				}
			],
			"name": "renounceRole",
			"outputs": [],
			"stateMutability": "nonpayable",
			"type": "function"
		},
		{
			"inputs": [
				{
					"internalType": "bytes32",
					"name": "role",
					"type": "bytes32"
				},
				{
					"internalType": "address",
					"name": "account",
					"type": "address"
				}
			],
			"name": "revokeRole",
			"outputs": [],
			"stateMutability": "nonpayable",
			"type": "function"
		},
		{
			"inputs": [
				{
					"internalType": "uint256",
					"name": "_tokenId",
					"type": "uint256"
				}
			],
			"name": "stakeOfToken",
			"outputs": [
				{
					"internalType": "uint256",
					"name": "",
					"type": "uint256"
				}
			],
			"stateMutability": "view",
			"type": "function"
		},
		{
			"inputs": [
				{
					"internalType": "uint256",
					"name": "_tokenId",
					"type": "uint256"
				},
				{
					"internalType": "uint256",
					"name": "_amount",
					"type": "uint256"
				}
			],
			"name": "takeStake",
			"outputs": [],
			"stateMutability": "nonpayable",
			"type": "function"
		},
		{
			"inputs": [
				{
					"internalType": "address",
					"name": "_to",
					"type": "address"
				},
				{
					"internalType": "uint256",
					"name": "_tokenId",
					"type": "uint256"
				},
				{
					"internalType": "address",
					"name": "_ERC721Contract",
					"type": "address"
				}
			],
			"name": "transferERC721Token",
			"outputs": [],
			"stateMutability": "nonpayable",
			"type": "function"
		},
		{
			"inputs": [],
			"name": "unpause",
			"outputs": [],
			"stateMutability": "nonpayable",
			"type": "function"
		}
	]
}