{
	"data": {
		"bytecode": {
			"linkReferences": {},
			"object": "60806040523480156200001157600080fd5b50600180556002805460ff19169055620000366000620000306200009a565b6200009e565b620000657f2ce8d04a9c35987429af538825cd2438cc5c5bb5dc427955f84daaa3ea105016620000306200009a565b620000947f65d7a28e3265b37a6474929f336521b332c1681b933f6cb9f3376673440d862a620000306200009a565b620001ae565b3390565b620000aa8282620000ae565b5050565b600082815260208181526040909120620000d391839062003ea962000127821b17901c565b15620000aa57620000e36200009a565b6001600160a01b0316816001600160a01b0316837f2f8788117e7eff1d82e926ec794901d17c78024a50270940304540a733656f0d60405160405180910390a45050565b60006200013e836001600160a01b03841662000147565b90505b92915050565b600062000155838362000196565b6200018d5750815460018181018455600084815260208082209093018490558454848252828601909352604090209190915562000141565b50600062000141565b60009081526001919091016020526040902054151590565b61457280620001be6000396000f3fe608060405234801561001057600080fd5b50600436106101da5760003560e01c80638d9fc87211610104578063d3dbdbda116100a2578063e63ab1e911610071578063e63ab1e9146106d8578063e8e1152c146106e0578063f22354a6146106fd578063f76b6ac514610723576101da565b8063d3dbdbda146105d9578063d547741f146105fc578063df9f693614610628578063e248f2c414610677576101da565b8063a217fddf116100de578063a217fddf14610521578063a919304514610529578063c771a9821461054c578063ca15c873146105bc576101da565b80638d9fc872146104935780639010d07c146104b657806391d14854146104f5576101da565b806342cdc4a41161017c578063635d54fe1161014b578063635d54fe146103455780636707f6081461038957806379514e5b146103fd5780638456cb591461048b576101da565b806342cdc4a4146102b75780635afc3cb4146102da5780635c975abb1461030057806362a02f861461031c576101da565b80633530d114116101b85780633530d1141461024457806336568abe1461027b5780633b21fd68146102a75780633f4ba83a146102af576101da565b80631da03312146101df578063248a9ca3146101f95780632f2ff15d14610216575b600080fd5b6101e76107a2565b60408051918252519081900360200190f35b6101e76004803603602081101561020f57600080fd5b50356107c6565b6102426004803603604081101561022c57600080fd5b50803590602001356001600160a01b03166107de565b005b6102426004803603608081101561025a57600080fd5b5080359060208101359063ffffffff6040820135811691606001351661084a565b6102426004803603604081101561029157600080fd5b50803590602001356001600160a01b0316610dc2565b6101e7610e23565b610242610e29565b610242600480360360408110156102cd57600080fd5b5080359060200135610eb0565b610242600480360360408110156102f057600080fd5b508035906020013560ff166113e8565b6103086118c1565b604080519115158252519081900360200190f35b6102426004803603604081101561033257600080fd5b508035906020013563ffffffff166118ca565b610242600480360360c081101561035b57600080fd5b5080359060208101359060ff6040820135169063ffffffff6060820135169060808101359060a00135611f5b565b6103a66004803603602081101561039f57600080fd5b5035612586565b6040805160ff998a16815297909816602088015263ffffffff95861687890152938516606087015291909316608085015260a084019290925260c083019190915261ffff1660e08201529051908190036101000190f35b6102426004803603608081101561041357600080fd5b81019060208101813564010000000081111561042e57600080fd5b82018360208201111561044057600080fd5b8035906020019184600183028401116401000000008311171561046257600080fd5b919350915080356001600160a01b031690602081013563ffffffff16906040013560ff16612654565b6102426128c9565b6101e7600480360360408110156104a957600080fd5b508035906020013561294e565b6104d9600480360360408110156104cc57600080fd5b5080359060200135612a45565b604080516001600160a01b039092168252519081900360200190f35b6103086004803603604081101561050b57600080fd5b50803590602001356001600160a01b0316612a64565b6101e7612a7c565b6102426004803603604081101561053f57600080fd5b5080359060200135612a81565b6104d96004803603602081101561056257600080fd5b81019060208101813564010000000081111561057d57600080fd5b82018360208201111561058f57600080fd5b803590602001918460018302840111640100000000831117156105b157600080fd5b509092509050613017565b6101e7600480360360208110156105d257600080fd5b5035613051565b6101e7600480360360408110156105ef57600080fd5b5080359060200135613068565b6102426004803603604081101561061257600080fd5b50803590602001356001600160a01b0316613091565b61065a6004803603604081101561063e57600080fd5b5080356001600160a01b0316906020013563ffffffff166130ea565b6040805160ff909316835260208301919091528051918290030190f35b6106946004803603602081101561068d57600080fd5b5035613237565b6040805197885260ff909616602088015263ffffffff9485168787015292841660608701529216608085015260a084019190915260c0830152519081900360e00190f35b6101e7613425565b610242600480360360208110156106f657600080fd5b5035613449565b6102426004803603604081101561071357600080fd5b508035906020013560ff16613831565b6102426004803603606081101561073957600080fd5b81019060208101813564010000000081111561075457600080fd5b82018360208201111561076657600080fd5b8035906020019184600183028401116401000000008311171561078857600080fd5b9193509150803563ffffffff16906020013560ff16613d12565b7f2ce8d04a9c35987429af538825cd2438cc5c5bb5dc427955f84daaa3ea10501681565b6000818152602081905260409020600201545b919050565b600082815260208190526040902060020154610801906107fc613ebe565b612a64565b61083c5760405162461bcd60e51b815260040180806020018281038252602f81526020018061443e602f913960400191505060405180910390fd5b6108468282613ec2565b5050565b600260015414156108a2576040805162461bcd60e51b815260206004820152601f60248201527f5265656e7472616e637947756172643a207265656e7472616e742063616c6c00604482015290519081900360640190fd5b600260018190555460ff16156108f2576040805162461bcd60e51b815260206004820152601060248201526f14185d5cd8589b194e881c185d5cd95960821b604482015290519081900360640190fd5b816000600360046000336001600160a01b03166001600160a01b0316815260200190815260200160002060405180828054600181600116156101000203166002900480156109775780601f10610955576101008083540402835291820191610977565b820191906000526020600020905b815481529060010190602001808311610963575b50509283525050604080516020928190038301902063ffffffff85166000908152925290205460ff16905080158015906109b4575060058160ff16105b806109c257508060ff16600a145b610a13576040805162461bcd60e51b815260206004820181905260248201527f533a4d4f442d49413a436f6e7472616374206e6f7420617574686f72697a6564604482015290519081900360640190fd5b60008681526006602052604090205460ff16603c1415610a645760405162461bcd60e51b81526004018080602001828103825260258152602001806144e96025913960400191505060405180910390fd5b600086815260066020526040902054640100000000900463ffffffff1615610ad3576040805162461bcd60e51b815260206004820152601760248201527f533a4e523a52656320616c726561647920657869737473000000000000000000604482015290519081900360640190fd5b84610b25576040805162461bcd60e51b815260206004820152600c60248201527f533a4e523a524754203d20300000000000000000000000000000000000000000604482015290519081900360640190fd5b63ffffffff8416610b7d576040805162461bcd60e51b815260206004820152600b60248201527f533a4e523a4143203d2030000000000000000000000000000000000000000000604482015290519081900360640190fd5b610b8561433c565b600360046000610b93613ebe565b6001600160a01b03166001600160a01b031681526020019081526020016000206040518082805460018160011615610100020316600290048015610c0e5780601f10610bec576101008083540402835291820191610c0e565b820191906000526020600020905b815481529060010190602001808311610bfa575b505092835250506040805191829003602090810190922063ffffffff88166000908152925290205460ff1660011415610c4a5760008152610c4f565b603381525b84816060019063ffffffff16908163ffffffff1681525050838160a0019063ffffffff16908163ffffffff168152505083816080019063ffffffff16908163ffffffff16815250508581610100018181525050806006600089815260200190815260200160002060008201518160000160006101000a81548160ff021916908360ff16021790555060208201518160000160016101000a81548160ff021916908360ff16021790555060408201518160000160026101000a81548161ffff021916908361ffff16021790555060608201518160000160046101000a81548163ffffffff021916908363ffffffff16021790555060808201518160000160086101000a81548163ffffffff021916908363ffffffff16021790555060a082015181600001600c6101000a81548163ffffffff021916908363ffffffff16021790555060c0820151816001015560e0820151816002015561010082015181600301559050505050506001808190555050505050565b610dca613ebe565b6001600160a01b0316816001600160a01b031614610e195760405162461bcd60e51b815260040180806020018281038252602f81526020018061450e602f913960400191505060405180910390fd5b6108468282613f2b565b60001981565b610e557f65d7a28e3265b37a6474929f336521b332c1681b933f6cb9f3376673440d862a6107fc613ebe565b610ea6576040805162461bcd60e51b815260206004820152601e60248201527f50414d3a4d4f443a206d7573742068617665205041555345525f524f4c450000604482015290519081900360640190fd5b610eae613f94565b565b60026001541415610f08576040805162461bcd60e51b815260206004820152601f60248201527f5265656e7472616e637947756172643a207265656e7472616e742063616c6c00604482015290519081900360640190fd5b600260018190555460ff1615610f58576040805162461bcd60e51b815260206004820152601060248201526f14185d5cd8589b194e881c185d5cd95960821b604482015290519081900360640190fd5b6000828152600660205260409020548290640100000000900463ffffffff16610fc8576040805162461bcd60e51b815260206004820152601a60248201527f533a4d4f442d453a72656320646f6573206e6f74206578697374000000000000604482015290519081900360640190fd5b60008381526006602090815260408083205433845260049092528083209051815464010000000090930463ffffffff1693926003929190819083906002610100600183161502600019019091160480156110595780601f10611037576101008083540402835291820191611059565b820191906000526020600020905b815481529060010190602001808311611045575b50509283525050604080516020928190038301902063ffffffff85166000908152925290205460ff1690508015801590611096575060058160ff16105b806110a457508060ff16600a145b6110f5576040805162461bcd60e51b815260206004820181905260248201527f533a4d4f442d49413a436f6e7472616374206e6f7420617574686f72697a6564604482015290519081900360640190fd5b60008581526006602052604090205485906111129060ff1661403b565b60ff1615611167576040805162461bcd60e51b815260206004820152601a60248201527f533a4d4f442d4e453a726563206c6f636b656420696e20656372000000000000604482015290519081900360640190fd5b61116f61433c565b50600086815260066020908152604091829020825161012081018452815460ff8082168084526101008084049092169584019590955261ffff620100008304169583019590955263ffffffff640100000000820481166060840152600160401b820481166080840152600160601b9091041660a0820152600182015460c0820152600282015460e0820152600390910154928101929092526112109061408a565b60ff1615611265576040805162461bcd60e51b815260206004820152601260248201527f533a4d49323a2054786672642061737365740000000000000000000000000000604482015290519081900360640190fd5b858160c0015114156112be576040805162461bcd60e51b815260206004820152601660248201527f533a4d49313a204e65772076616c7565203d206f6c6400000000000000000000604482015290519081900360640190fd5b858160c0018181525050806006600089815260200190815260200160002060008201518160000160006101000a81548160ff021916908360ff16021790555060208201518160000160016101000a81548160ff021916908360ff16021790555060408201518160000160026101000a81548161ffff021916908361ffff16021790555060608201518160000160046101000a81548163ffffffff021916908363ffffffff16021790555060808201518160000160086101000a81548163ffffffff021916908363ffffffff16021790555060a082015181600001600c6101000a81548163ffffffff021916908363ffffffff16021790555060c0820151816001015560e0820151816002015561010082015181600301559050505050505050600180819055505050565b60026001541415611440576040805162461bcd60e51b815260206004820152601f60248201527f5265656e7472616e637947756172643a207265656e7472616e742063616c6c00604482015290519081900360640190fd5b600260018190555460ff1615611490576040805162461bcd60e51b815260206004820152601060248201526f14185d5cd8589b194e881c185d5cd95960821b604482015290519081900360640190fd5b604080516622a1a92fa6a3a960c91b8152600560078201529051908190036027019020546001600160a01b03166114c5613ebe565b6001600160a01b031614611520576040805162461bcd60e51b815260206004820152601c60248201527f533a4d4f442d49454d3a43616c6c6572206e6f74204543525f4d475200000000604482015290519081900360640190fd5b6000828152600660205260409020548290640100000000900463ffffffff16611590576040805162461bcd60e51b815260206004820152601a60248201527f533a4d4f442d453a72656320646f6573206e6f74206578697374000000000000604482015290519081900360640190fd5b60008381526006602052604090205483906115ad9060ff1661403b565b60ff1615611602576040805162461bcd60e51b815260206004820152601a60248201527f533a4d4f442d4e453a726563206c6f636b656420696e20656372000000000000604482015290519081900360640190fd5b61160a61433c565b50600084815260066020908152604091829020825161012081018452815460ff80821683526101008083049091169483019490945261ffff620100008204169482019490945263ffffffff640100000000850481166060830152600160401b850481166080830152600160601b90940490931660a0840152600181015460c0840152600281015460e084015260030154908201526116a78461403b565b60ff1660aa146116fe576040805162461bcd60e51b815260206004820152601560248201527f533a53453a2073746174206d757374203d206563720000000000000000000000604482015290519081900360640190fd5b8051611709906140ae565b60ff161561175e576040805162461bcd60e51b815260206004820152600f60248201527f533a4d49323a4c2f532061737365740000000000000000000000000000000000604482015290519081900360640190fd5b80516117699061408a565b60ff16156117be576040805162461bcd60e51b815260206004820152601260248201527f533a4d49323a2054786672642061737365740000000000000000000000000000604482015290519081900360640190fd5b8360ff16603c14156117d4576000196101008201525b60ff93841681526000948552600660209081526040958690208251815492840151978401516060850151608086015160a087015160ff19909616938a169390931761ff0019166101009a9099168a029890981763ffff000019166201000061ffff909216919091021767ffffffff00000000191664010000000063ffffffff98891602176bffffffff00000000000000001916600160401b91881691909102176fffffffff0000000000000000000000001916600160601b969092169590950217845560c081015160018086019190915560e0820151600286015594015160039093019290925550508055565b60025460ff1690565b60026001541415611922576040805162461bcd60e51b815260206004820152601f60248201527f5265656e7472616e637947756172643a207265656e7472616e742063616c6c00604482015290519081900360640190fd5b600260018190555460ff1615611972576040805162461bcd60e51b815260206004820152601060248201526f14185d5cd8589b194e881c185d5cd95960821b604482015290519081900360640190fd5b6000828152600660205260409020548290640100000000900463ffffffff166119e2576040805162461bcd60e51b815260206004820152601a60248201527f533a4d4f442d453a72656320646f6573206e6f74206578697374000000000000604482015290519081900360640190fd5b60008381526006602052604090205483906119ff9060ff1661403b565b60ff1615611a54576040805162461bcd60e51b815260206004820152601a60248201527f533a4d4f442d4e453a726563206c6f636b656420696e20656372000000000000604482015290519081900360640190fd5b600080600360046000336001600160a01b03166001600160a01b031681526020019081526020016000206040518082805460018160011615610100020316600290048015611ad95780601f10611ab7576101008083540402835291820191611ad9565b820191906000526020600020905b815481529060010190602001808311611ac5575b50509283525050604080516020928190038301902063ffffffff85166000908152925290205460ff1690508015801590611b16575060058160ff16105b80611b2457508060ff16600a145b611b75576040805162461bcd60e51b815260206004820181905260248201527f533a4d4f442d49413a436f6e7472616374206e6f7420617574686f72697a6564604482015290519081900360640190fd5b611b7d61433c565b50600086815260066020908152604091829020825161012081018452815460ff80821683526101008083049091169483019490945261ffff620100008204169482019490945263ffffffff640100000000850481166060830152600160401b850481166080830152600160601b909404841660a0820152600182015460c0820152600282015460e082015260039091015491810191909152908616611c69576040805162461bcd60e51b815260206004820152601560248201527f533a4341433a43616e6e6f74207365742041432d300000000000000000000000604482015290519081900360640190fd5b600a546060820151604080517f9852fdeb00000000000000000000000000000000000000000000000000000000815263ffffffff808b1660048301529092166024830152516001600160a01b0390921691639852fdeb91604480820192602092909190829003018186803b158015611ce057600080fd5b505afa158015611cf4573d6000803e3d6000fd5b505050506040513d6020811015611d0a57600080fd5b505160ff1660aa14611d63576040805162461bcd60e51b815260206004820152601f60248201527f533a4341433a43616e6e6f74206d6f6420414320746f206e657720726f6f7400604482015290519081900360640190fd5b8051611d6e906140ae565b60ff1615611dc3576040805162461bcd60e51b815260206004820152600f60248201527f533a4341433a4c2f532061737365740000000000000000000000000000000000604482015290519081900360640190fd5b8051611dce9061408a565b60ff1615611e23576040805162461bcd60e51b815260206004820152601160248201527f533a4341433a5478667264206173736574000000000000000000000000000000604482015290519081900360640190fd5b85816060019063ffffffff16908163ffffffff1681525050806006600089815260200190815260200160002060008201518160000160006101000a81548160ff021916908360ff16021790555060208201518160000160016101000a81548160ff021916908360ff16021790555060408201518160000160026101000a81548161ffff021916908361ffff16021790555060608201518160000160046101000a81548163ffffffff021916908363ffffffff16021790555060808201518160000160086101000a81548163ffffffff021916908363ffffffff16021790555060a082015181600001600c6101000a81548163ffffffff021916908363ffffffff16021790555060c0820151816001015560e0820151816002015561010082015181600301559050505050505050600180819055505050565b60026001541415611fb3576040805162461bcd60e51b815260206004820152601f60248201527f5265656e7472616e637947756172643a207265656e7472616e742063616c6c00604482015290519081900360640190fd5b600260018190555460ff1615612003576040805162461bcd60e51b815260206004820152601060248201526f14185d5cd8589b194e881c185d5cd95960821b604482015290519081900360640190fd5b6000868152600660205260409020548690640100000000900463ffffffff16612073576040805162461bcd60e51b815260206004820152601a60248201527f533a4d4f442d453a72656320646f6573206e6f74206578697374000000000000604482015290519081900360640190fd5b60008781526006602090815260408083205433845260049092528083209051815464010000000090930463ffffffff1693926003929190819083906002610100600183161502600019019091160480156121045780601f106120e2576101008083540402835291820191612104565b820191906000526020600020905b8154815290600101906020018083116120f0575b50509283525050604080516020928190038301902063ffffffff85166000908152925290205460ff1690508015801590612141575060058160ff16105b8061214f57508060ff16600a145b6121a0576040805162461bcd60e51b815260206004820181905260248201527f533a4d4f442d49413a436f6e7472616374206e6f7420617574686f72697a6564604482015290519081900360640190fd5b60008981526006602052604090205489906121bd9060ff1661403b565b60ff1615612212576040805162461bcd60e51b815260206004820152601a60248201527f533a4d4f442d4e453a726563206c6f636b656420696e20656372000000000000604482015290519081900360640190fd5b61221a61433c565b5060008a815260066020908152604091829020825161012081018452815460ff80821683526101008083049091169483019490945261ffff620100008204169482019490945263ffffffff640100000000850481166060830152600160401b8504811660808301819052600160601b909504811660a0830152600183015460c0830152600283015460e08301526003909201549281019290925290918c918a16111561230d576040805162461bcd60e51b815260206004820152601160248201527f533a4d523a636f756e74446f776e202b21000000000000000000000000000000604482015290519081900360640190fd5b6123168a6140ae565b60ff161561236b576040805162461bcd60e51b815260206004820152601160248201527f533a4d523a4d75737420757365204c2f53000000000000000000000000000000604482015290519081900360640190fd5b6123748a61403b565b60ff16156123c9576040805162461bcd60e51b815260206004820152601160248201527f533a4d523a4d7573742075736520454352000000000000000000000000000000604482015290519081900360640190fd5b8a61241b576040805162461bcd60e51b815260206004820152601160248201527f533a4d523a2072677448617368203d2030000000000000000000000000000000604482015290519081900360640190fd5b61010082018b905263ffffffff8916608083015260ff8a16825260aa8814801561244c575060ff826020015160ff16105b156124605760208201805160010160ff1690525b8660aa148015612479575061ffff826040015161ffff16105b1561248e5760408201805160010161ffff1690525b6000908152600660209081526040918290208351815492850151938501516060860151608087015160a088015160ff1990961660ff9485161761ff0019166101009490971684029690961763ffff000019166201000061ffff909316929092029190911767ffffffff00000000191664010000000063ffffffff92831602176bffffffff00000000000000001916600160401b95821695909502949094176fffffffff0000000000000000000000001916600160601b949093169390930291909117815560c083015160018083019190915560e084015160028301559190920151600390920191909155805550505050505050505050565b60008060008060008060008061259a61433c565b5050506000968752505060066020908152604095869020865161012081018852815460ff80821680845261010080840490921695840186905261ffff620100008404169a84018b905263ffffffff6401000000008404811660608601819052600160401b8504821660808701819052600160601b90950490911660a08601819052600187015460c08701819052600288015460e088018190526003909801549490960193909352909b959a90995091975095509093509091565b6126807f2ce8d04a9c35987429af538825cd2438cc5c5bb5dc427955f84daaa3ea1050166107fc613ebe565b6126bb5760405162461bcd60e51b815260040180806020018281038252602681526020018061446d6026913960400191505060405180910390fd5b63ffffffff821615612714576040805162461bcd60e51b815260206004820152600e60248201527f533a41433a204143206e6f742030000000000000000000000000000000000000604482015290519081900360640190fd5b806003868660405180838380828437919091019485525050604080516020948190038501812063ffffffff8916600090815295529320805460ff191660ff95909516949094179093555084915060059087908790808383808284379190910194855250506040805160209481900385019020805473ffffffffffffffffffffffffffffffffffffffff19166001600160a01b03968716179055938716600090815260049093525050206127c8908686614388565b50604080517f41435f544b4e000000000000000000000000000000000000000000000000000081526005600680830182905283519283900360269081018420546008805473ffffffffffffffffffffffffffffffffffffffff199081166001600160a01b03938416179091557f41435f4d4752000000000000000000000000000000000000000000000000000086529285019390935284519384900301832054600a8054909216921691909117905560ff83166020820152818152600481830152634143444160e01b606082015290517f7ee222c270bf2c8f2543ede7193d45d48eac904e416dc38e4604373d183eefbb9181900360800190a15050505050565b6128f57f65d7a28e3265b37a6474929f336521b332c1681b933f6cb9f3376673440d862a6107fc613ebe565b612946576040805162461bcd60e51b815260206004820152601e60248201527f50414d3a4d4f443a206d7573742068617665205041555345525f524f4c450000604482015290519081900360640190fd5b610eae6140f2565b6000828152600660205260408120600301548214156129d5576040805160208101859052818152600f818301527f4d6174636820636f6e6669726d65640000000000000000000000000000000000606082015290517f7ee222c270bf2c8f2543ede7193d45d48eac904e416dc38e4604373d183eefbb9181900360800190a15060aa612a3f565b6040805160208101859052818152600e818301527f446f6573206e6f74206d61746368000000000000000000000000000000000000606082015290517f7ee222c270bf2c8f2543ede7193d45d48eac904e416dc38e4604373d183eefbb9181900360800190a15060005b92915050565b6000828152602081905260408120612a5d9083614173565b9392505050565b6000828152602081905260408120612a5d908361417f565b600081565b60026001541415612ad9576040805162461bcd60e51b815260206004820152601f60248201527f5265656e7472616e637947756172643a207265656e7472616e742063616c6c00604482015290519081900360640190fd5b600260018190555460ff1615612b29576040805162461bcd60e51b815260206004820152601060248201526f14185d5cd8589b194e881c185d5cd95960821b604482015290519081900360640190fd5b6000828152600660205260409020548290640100000000900463ffffffff16612b99576040805162461bcd60e51b815260206004820152601a60248201527f533a4d4f442d453a72656320646f6573206e6f74206578697374000000000000604482015290519081900360640190fd5b60008381526006602090815260408083205433845260049092528083209051815464010000000090930463ffffffff169392600392919081908390600261010060018316150260001901909116048015612c2a5780601f10612c08576101008083540402835291820191612c2a565b820191906000526020600020905b815481529060010190602001808311612c16575b50509283525050604080516020928190038301902063ffffffff85166000908152925290205460ff1690508015801590612c67575060058160ff16105b80612c7557508060ff16600a145b612cc6576040805162461bcd60e51b815260206004820181905260248201527f533a4d4f442d49413a436f6e7472616374206e6f7420617574686f72697a6564604482015290519081900360640190fd5b6000858152600660205260409020548590612ce39060ff1661403b565b60ff1615612d38576040805162461bcd60e51b815260206004820152601a60248201527f533a4d4f442d4e453a726563206c6f636b656420696e20656372000000000000604482015290519081900360640190fd5b612d4061433c565b50600086815260066020908152604091829020825161012081018452815460ff8082168084526101008084049092169584019590955261ffff620100008304169583019590955263ffffffff640100000000820481166060840152600160401b820481166080840152600160601b9091041660a0820152600182015460c0820152600282015460e082015260039091015492810192909252612de1906140ae565b60ff1615612e36576040805162461bcd60e51b815260206004820152600f60248201527f533a4d49323a4c2f532061737365740000000000000000000000000000000000604482015290519081900360640190fd5b8051612e419061408a565b60ff1615612e96576040805162461bcd60e51b815260206004820152601360248201527f533a4d49323a2054786672642e20617373657400000000000000000000000000604482015290519081900360640190fd5b60e081015115612eed576040805162461bcd60e51b815260206004820152601560248201527f533a4d49323a2021206f76657277726974652049320000000000000000000000604482015290519081900360640190fd5b858160e0018181525050806006600089815260200190815260200160002060008201518160000160006101000a81548160ff021916908360ff16021790555060208201518160000160016101000a81548160ff021916908360ff16021790555060408201518160000160026101000a81548161ffff021916908361ffff16021790555060608201518160000160046101000a81548163ffffffff021916908363ffffffff16021790555060808201518160000160086101000a81548163ffffffff021916908363ffffffff16021790555060a082015181600001600c6101000a81548163ffffffff021916908363ffffffff16021790555060c0820151816001015560e0820151816002015561010082015181600301559050505050505050600180819055505050565b6000600583836040518083838082843791909101948552505060405192839003602001909220546001600160a01b03169250505092915050565b6000818152602081905260408120612a3f90614194565b600082815260066020526040812060030154821415613089575060aa612a3f565b506000612a3f565b6000828152602081905260409020600201546130af906107fc613ebe565b610e195760405162461bcd60e51b81526004018080602001828103825260308152602001806144936030913960400191505060405180910390fd5b600080600360046000866001600160a01b03166001600160a01b03168152602001908152602001600020604051808280546001816001161561010002031660029004801561316f5780601f1061314d57610100808354040283529182019161316f565b820191906000526020600020905b81548152906001019060200180831161315b575b50509283525050604080516020928190038301812063ffffffff87166000908152908452828120546001600160a01b038916825260048552929020805460ff909316939092910190819083906002610100600183161502600019019091160480156132115780601f106131ef576101008083540402835291820191613211565b820191906000526020600020905b8154815290600101906020018083116131fd575b505091505060405160208183030381529060405280519060200120915091509250929050565b6000806000806000806000806000600360046000336001600160a01b03166001600160a01b0316815260200190815260200160002060405180828054600181600116156101000203166002900480156132c75780601f106132a55761010080835404028352918201916132c7565b820191906000526020600020905b8154815290600101906020018083116132b3575b50509283525050604080516020928190038301902063ffffffff85166000908152925290205460ff1690508015801590613304575060058160ff16105b8061331257508060ff16600a145b613363576040805162461bcd60e51b815260206004820181905260248201527f533a4d4f442d49413a436f6e7472616374206e6f7420617574686f72697a6564604482015290519081900360640190fd5b61336b61433c565b5050506000978852505060066020908152604096879020875161012081018952815460ff8082168084526101008084049092169584019590955261ffff620100008304169a83019a909a5263ffffffff6401000000008204811660608401819052600160401b8304821660808501819052600160601b90930490911660a08401819052600185015460c08501819052600286015460e086018190526003909601549c9094018c90529a9b949a909950909750955093509150565b7f65d7a28e3265b37a6474929f336521b332c1681b933f6cb9f3376673440d862a81565b600260015414156134a1576040805162461bcd60e51b815260206004820152601f60248201527f5265656e7472616e637947756172643a207265656e7472616e742063616c6c00604482015290519081900360640190fd5b600260018190555460ff16156134f1576040805162461bcd60e51b815260206004820152601060248201526f14185d5cd8589b194e881c185d5cd95960821b604482015290519081900360640190fd5b604080516622a1a92fa6a3a960c91b8152600560078201529051908190036027019020546001600160a01b0316613526613ebe565b6001600160a01b031614613581576040805162461bcd60e51b815260206004820152601c60248201527f533a4d4f442d49454d3a43616c6c6572206e6f74204543525f4d475200000000604482015290519081900360640190fd5b6000818152600660205260409020548190640100000000900463ffffffff166135f1576040805162461bcd60e51b815260206004820152601a60248201527f533a4d4f442d453a72656320646f6573206e6f74206578697374000000000000604482015290519081900360640190fd5b6135f961433c565b50600082815260066020908152604091829020825161012081018452815460ff8082168084526101008084049092169584019590955261ffff620100008304169583019590955263ffffffff640100000000820481166060840152600160401b820481166080840152600160601b9091041660a0820152600182015460c0820152600282015460e08201526003909101549281019290925261369a9061403b565b60ff1660aa146136f1576040805162461bcd60e51b815260206004820152600f60248201527f533a45453a212065637220737461740000000000000000000000000000000000604482015290519081900360640190fd5b806000015160ff166006141561370657600781525b806000015160ff166038141561371b57603981525b806000015160ff166032141561373057603a81525b806000015160ff16603c141561374557603a81525b6000928352600660209081526040938490208251815492840151958401516060850151608086015160a087015160ff1990961660ff9485161761ff0019166101009490991684029890981763ffff000019166201000061ffff909316929092029190911767ffffffff00000000191664010000000063ffffffff92831602176bffffffff00000000000000001916600160401b97821697909702969096176fffffffff0000000000000000000000001916600160601b969093169590950291909117815560c082015160018083019190915560e083015160028301559390910151600390910155508055565b60026001541415613889576040805162461bcd60e51b815260206004820152601f60248201527f5265656e7472616e637947756172643a207265656e7472616e742063616c6c00604482015290519081900360640190fd5b600260018190555460ff16156138d9576040805162461bcd60e51b815260206004820152601060248201526f14185d5cd8589b194e881c185d5cd95960821b604482015290519081900360640190fd5b6000828152600660205260409020548290640100000000900463ffffffff16613949576040805162461bcd60e51b815260206004820152601a60248201527f533a4d4f442d453a72656320646f6573206e6f74206578697374000000000000604482015290519081900360640190fd5b60008381526006602090815260408083205433845260049092528083209051815464010000000090930463ffffffff1693926003929190819083906002610100600183161502600019019091160480156139da5780601f106139b85761010080835404028352918201916139da565b820191906000526020600020905b8154815290600101906020018083116139c6575b50509283525050604080516020928190038301902063ffffffff85166000908152925290205460ff1690508015801590613a17575060058160ff16105b80613a2557508060ff16600a145b613a76576040805162461bcd60e51b815260206004820181905260248201527f533a4d4f442d49413a436f6e7472616374206e6f7420617574686f72697a6564604482015290519081900360640190fd5b613a7e61433c565b50600085815260066020908152604091829020825161012081018452815460ff80821683526101008083049091169483019490945261ffff620100008204169482019490945263ffffffff640100000000850481166060830152600160401b850481166080830152600160601b90940490931660a0840152600181015460c0840152600281015460e08401526003015490820152613b1b856140ae565b60ff1660aa14613b72576040805162461bcd60e51b815260206004820152601560248201527f533a53534c3a4d7573742073657420746f204c2f530000000000000000000000604482015290519081900360640190fd5b806000015160ff16600514158015613b925750806000015160ff16603214155b8015613ba65750806000015160ff16603714155b613be15760405162461bcd60e51b81526004018080602001828103825260268152602001806144c36026913960400191505060405180910390fd5b84816000019060ff16908160ff1681525050806006600088815260200190815260200160002060008201518160000160006101000a81548160ff021916908360ff16021790555060208201518160000160016101000a81548160ff021916908360ff16021790555060408201518160000160026101000a81548161ffff021916908361ffff16021790555060608201518160000160046101000a81548163ffffffff021916908363ffffffff16021790555060808201518160000160086101000a81548163ffffffff021916908363ffffffff16021790555060a082015181600001600c6101000a81548163ffffffff021916908363ffffffff16021790555060c0820151816001015560e08201518160020155610100820151816003015590505050505050600180819055505050565b613d1a613ebe565b600854604080517f6352211e00000000000000000000000000000000000000000000000000000000815263ffffffff8616600482015290516001600160a01b039384169390921691636352211e91602480820192602092909190829003018186803b158015613d8857600080fd5b505afa158015613d9c573d6000803e3d6000fd5b505050506040513d6020811015613db257600080fd5b50516001600160a01b031614613e0f576040805162461bcd60e51b815260206004820181905260248201527f533a45434641433a43616c6c6572206e6f74204143746f6b656e486f6c646572604482015290519081900360640190fd5b806003858560405180838380828437919091019485525050604080516020948190038501812063ffffffff89166000908152908652829020805460ff191660ff978816179055948616938501939093525050808252600482820152634143444160e01b6060830152517f7ee222c270bf2c8f2543ede7193d45d48eac904e416dc38e4604373d183eefbb916080908290030190a150505050565b6000612a5d836001600160a01b03841661419f565b3390565b6000828152602081905260409020613eda9082613ea9565b1561084657613ee7613ebe565b6001600160a01b0316816001600160a01b0316837f2f8788117e7eff1d82e926ec794901d17c78024a50270940304540a733656f0d60405160405180910390a45050565b6000828152602081905260409020613f4390826141e1565b1561084657613f50613ebe565b6001600160a01b0316816001600160a01b0316837ff6391f5c32d9c69d2a47ea670b442974b53935d1edc7fd64eb21e047a839171b60405160405180910390a45050565b60025460ff16613feb576040805162461bcd60e51b815260206004820152601460248201527f5061757361626c653a206e6f7420706175736564000000000000000000000000604482015290519081900360640190fd5b6002805460ff191690557f5db9ee0a495bf2e6ff9c91a7834c1ba4fdd244a5e8aa4e537bd38aeae4b073aa61401e613ebe565b604080516001600160a01b039092168252519081900360200190a1565b60008160ff1660061415801561405557508160ff16603214155b801561406557508160ff16603c14155b801561407557508160ff16603814155b15614082575060006107d9565b5060aa6107d9565b60008160ff1660051415801561407557508160ff16603714614082575060006107d9565b60008160ff166003141580156140c857508160ff16600414155b80156140d857508160ff16603514155b801561407557508160ff16603614614082575060006107d9565b60025460ff161561413d576040805162461bcd60e51b815260206004820152601060248201526f14185d5cd8589b194e881c185d5cd95960821b604482015290519081900360640190fd5b6002805460ff191660011790557f62e78cea01bee320cd4e420270b5ea74000d11b0c9f74754ebdbfc544b05a25861401e613ebe565b6000612a5d83836141f6565b6000612a5d836001600160a01b03841661425a565b6000612a3f82614272565b60006141ab838361425a565b61308957508154600181810184556000848152602080822090930184905584548482528286019093526040902091909155612a3f565b6000612a5d836001600160a01b038416614276565b815460009082106142385760405162461bcd60e51b815260040180806020018281038252602281526020018061441c6022913960400191505060405180910390fd5b82600001828154811061424757fe5b9060005260206000200154905092915050565b60009081526001919091016020526040902054151590565b5490565b6000818152600183016020526040812054801561433257835460001980830191908101906000908790839081106142a957fe5b90600052602060002001549050808760000184815481106142c657fe5b6000918252602080832090910192909255828152600189810190925260409020908401905586548790806142f657fe5b60019003818190600052602060002001600090559055866001016000878152602001908152602001600020600090556001945050505050612a3f565b6000915050612a3f565b6040805161012081018252600080825260208201819052918101829052606081018290526080810182905260a0810182905260c0810182905260e0810182905261010081019190915290565b828054600181600116156101000203166002900490600052602060002090601f016020900481019282601f106143c95782800160ff198235161785556143f6565b828001600101855582156143f6579182015b828111156143f65782358255916020019190600101906143db565b50614402929150614406565b5090565b5b80821115614402576000815560010161440756fe456e756d657261626c655365743a20696e646578206f7574206f6620626f756e6473416363657373436f6e74726f6c3a2073656e646572206d75737420626520616e2061646d696e20746f206772616e7450414d3a4d4f443a206d757374206861766520434f4e54524143545f41444d494e5f524f4c45416363657373436f6e74726f6c3a2073656e646572206d75737420626520616e2061646d696e20746f207265766f6b65533a53534c3a54786672206f72206563722d6c6f636b656420617373657420213d204c2f532e533a4e523a41737365742064697363617264656420757365204150505f4e4320726379636c416363657373436f6e74726f6c3a2063616e206f6e6c792072656e6f756e636520726f6c657320666f722073656c66a2646970667358221220cc351257e46f96b45ee8c4a32f3ebc5527d31e2a240d359a1f2d49a1ca10e0f464736f6c634300060c0033",
			"opcodes": "PUSH1 0x80 PUSH1 0x40 MSTORE CALLVALUE DUP1 ISZERO PUSH3 0x11 JUMPI PUSH1 0x0 DUP1 REVERT JUMPDEST POP PUSH1 0x1 DUP1 SSTORE PUSH1 0x2 DUP1 SLOAD PUSH1 0xFF NOT AND SWAP1 SSTORE PUSH3 0x36 PUSH1 0x0 PUSH3 0x30 PUSH3 0x9A JUMP JUMPDEST PUSH3 0x9E JUMP JUMPDEST PUSH3 0x65 PUSH32 0x2CE8D04A9C35987429AF538825CD2438CC5C5BB5DC427955F84DAAA3EA105016 PUSH3 0x30 PUSH3 0x9A JUMP JUMPDEST PUSH3 0x94 PUSH32 0x65D7A28E3265B37A6474929F336521B332C1681B933F6CB9F3376673440D862A PUSH3 0x30 PUSH3 0x9A JUMP JUMPDEST PUSH3 0x1AE JUMP JUMPDEST CALLER SWAP1 JUMP JUMPDEST PUSH3 0xAA DUP3 DUP3 PUSH3 0xAE JUMP JUMPDEST POP POP JUMP JUMPDEST PUSH1 0x0 DUP3 DUP2 MSTORE PUSH1 0x20 DUP2 DUP2 MSTORE PUSH1 0x40 SWAP1 SWAP2 KECCAK256 PUSH3 0xD3 SWAP2 DUP4 SWAP1 PUSH3 0x3EA9 PUSH3 0x127 DUP3 SHL OR SWAP1 SHR JUMP JUMPDEST ISZERO PUSH3 0xAA JUMPI PUSH3 0xE3 PUSH3 0x9A JUMP JUMPDEST PUSH1 0x1 PUSH1 0x1 PUSH1 0xA0 SHL SUB AND DUP2 PUSH1 0x1 PUSH1 0x1 PUSH1 0xA0 SHL SUB AND DUP4 PUSH32 0x2F8788117E7EFF1D82E926EC794901D17C78024A50270940304540A733656F0D PUSH1 0x40 MLOAD PUSH1 0x40 MLOAD DUP1 SWAP2 SUB SWAP1 LOG4 POP POP JUMP JUMPDEST PUSH1 0x0 PUSH3 0x13E DUP4 PUSH1 0x1 PUSH1 0x1 PUSH1 0xA0 SHL SUB DUP5 AND PUSH3 0x147 JUMP JUMPDEST SWAP1 POP JUMPDEST SWAP3 SWAP2 POP POP JUMP JUMPDEST PUSH1 0x0 PUSH3 0x155 DUP4 DUP4 PUSH3 0x196 JUMP JUMPDEST PUSH3 0x18D JUMPI POP DUP2 SLOAD PUSH1 0x1 DUP2 DUP2 ADD DUP5 SSTORE PUSH1 0x0 DUP5 DUP2 MSTORE PUSH1 0x20 DUP1 DUP3 KECCAK256 SWAP1 SWAP4 ADD DUP5 SWAP1 SSTORE DUP5 SLOAD DUP5 DUP3 MSTORE DUP3 DUP7 ADD SWAP1 SWAP4 MSTORE PUSH1 0x40 SWAP1 KECCAK256 SWAP2 SWAP1 SWAP2 SSTORE PUSH3 0x141 JUMP JUMPDEST POP PUSH1 0x0 PUSH3 0x141 JUMP JUMPDEST PUSH1 0x0 SWAP1 DUP2 MSTORE PUSH1 0x1 SWAP2 SWAP1 SWAP2 ADD PUSH1 0x20 MSTORE PUSH1 0x40 SWAP1 KECCAK256 SLOAD ISZERO ISZERO SWAP1 JUMP JUMPDEST PUSH2 0x4572 DUP1 PUSH3 0x1BE PUSH1 0x0 CODECOPY PUSH1 0x0 RETURN INVALID PUSH1 0x80 PUSH1 0x40 MSTORE CALLVALUE DUP1 ISZERO PUSH2 0x10 JUMPI PUSH1 0x0 DUP1 REVERT JUMPDEST POP PUSH1 0x4 CALLDATASIZE LT PUSH2 0x1DA JUMPI PUSH1 0x0 CALLDATALOAD PUSH1 0xE0 SHR DUP1 PUSH4 0x8D9FC872 GT PUSH2 0x104 JUMPI DUP1 PUSH4 0xD3DBDBDA GT PUSH2 0xA2 JUMPI DUP1 PUSH4 0xE63AB1E9 GT PUSH2 0x71 JUMPI DUP1 PUSH4 0xE63AB1E9 EQ PUSH2 0x6D8 JUMPI DUP1 PUSH4 0xE8E1152C EQ PUSH2 0x6E0 JUMPI DUP1 PUSH4 0xF22354A6 EQ PUSH2 0x6FD JUMPI DUP1 PUSH4 0xF76B6AC5 EQ PUSH2 0x723 JUMPI PUSH2 0x1DA JUMP JUMPDEST DUP1 PUSH4 0xD3DBDBDA EQ PUSH2 0x5D9 JUMPI DUP1 PUSH4 0xD547741F EQ PUSH2 0x5FC JUMPI DUP1 PUSH4 0xDF9F6936 EQ PUSH2 0x628 JUMPI DUP1 PUSH4 0xE248F2C4 EQ PUSH2 0x677 JUMPI PUSH2 0x1DA JUMP JUMPDEST DUP1 PUSH4 0xA217FDDF GT PUSH2 0xDE JUMPI DUP1 PUSH4 0xA217FDDF EQ PUSH2 0x521 JUMPI DUP1 PUSH4 0xA9193045 EQ PUSH2 0x529 JUMPI DUP1 PUSH4 0xC771A982 EQ PUSH2 0x54C JUMPI DUP1 PUSH4 0xCA15C873 EQ PUSH2 0x5BC JUMPI PUSH2 0x1DA JUMP JUMPDEST DUP1 PUSH4 0x8D9FC872 EQ PUSH2 0x493 JUMPI DUP1 PUSH4 0x9010D07C EQ PUSH2 0x4B6 JUMPI DUP1 PUSH4 0x91D14854 EQ PUSH2 0x4F5 JUMPI PUSH2 0x1DA JUMP JUMPDEST DUP1 PUSH4 0x42CDC4A4 GT PUSH2 0x17C JUMPI DUP1 PUSH4 0x635D54FE GT PUSH2 0x14B JUMPI DUP1 PUSH4 0x635D54FE EQ PUSH2 0x345 JUMPI DUP1 PUSH4 0x6707F608 EQ PUSH2 0x389 JUMPI DUP1 PUSH4 0x79514E5B EQ PUSH2 0x3FD JUMPI DUP1 PUSH4 0x8456CB59 EQ PUSH2 0x48B JUMPI PUSH2 0x1DA JUMP JUMPDEST DUP1 PUSH4 0x42CDC4A4 EQ PUSH2 0x2B7 JUMPI DUP1 PUSH4 0x5AFC3CB4 EQ PUSH2 0x2DA JUMPI DUP1 PUSH4 0x5C975ABB EQ PUSH2 0x300 JUMPI DUP1 PUSH4 0x62A02F86 EQ PUSH2 0x31C JUMPI PUSH2 0x1DA JUMP JUMPDEST DUP1 PUSH4 0x3530D114 GT PUSH2 0x1B8 JUMPI DUP1 PUSH4 0x3530D114 EQ PUSH2 0x244 JUMPI DUP1 PUSH4 0x36568ABE EQ PUSH2 0x27B JUMPI DUP1 PUSH4 0x3B21FD68 EQ PUSH2 0x2A7 JUMPI DUP1 PUSH4 0x3F4BA83A EQ PUSH2 0x2AF JUMPI PUSH2 0x1DA JUMP JUMPDEST DUP1 PUSH4 0x1DA03312 EQ PUSH2 0x1DF JUMPI DUP1 PUSH4 0x248A9CA3 EQ PUSH2 0x1F9 JUMPI DUP1 PUSH4 0x2F2FF15D EQ PUSH2 0x216 JUMPI JUMPDEST PUSH1 0x0 DUP1 REVERT JUMPDEST PUSH2 0x1E7 PUSH2 0x7A2 JUMP JUMPDEST PUSH1 0x40 DUP1 MLOAD SWAP2 DUP3 MSTORE MLOAD SWAP1 DUP2 SWAP1 SUB PUSH1 0x20 ADD SWAP1 RETURN JUMPDEST PUSH2 0x1E7 PUSH1 0x4 DUP1 CALLDATASIZE SUB PUSH1 0x20 DUP2 LT ISZERO PUSH2 0x20F JUMPI PUSH1 0x0 DUP1 REVERT JUMPDEST POP CALLDATALOAD PUSH2 0x7C6 JUMP JUMPDEST PUSH2 0x242 PUSH1 0x4 DUP1 CALLDATASIZE SUB PUSH1 0x40 DUP2 LT ISZERO PUSH2 0x22C JUMPI PUSH1 0x0 DUP1 REVERT JUMPDEST POP DUP1 CALLDATALOAD SWAP1 PUSH1 0x20 ADD CALLDATALOAD PUSH1 0x1 PUSH1 0x1 PUSH1 0xA0 SHL SUB AND PUSH2 0x7DE JUMP JUMPDEST STOP JUMPDEST PUSH2 0x242 PUSH1 0x4 DUP1 CALLDATASIZE SUB PUSH1 0x80 DUP2 LT ISZERO PUSH2 0x25A JUMPI PUSH1 0x0 DUP1 REVERT JUMPDEST POP DUP1 CALLDATALOAD SWAP1 PUSH1 0x20 DUP2 ADD CALLDATALOAD SWAP1 PUSH4 0xFFFFFFFF PUSH1 0x40 DUP3 ADD CALLDATALOAD DUP2 AND SWAP2 PUSH1 0x60 ADD CALLDATALOAD AND PUSH2 0x84A JUMP JUMPDEST PUSH2 0x242 PUSH1 0x4 DUP1 CALLDATASIZE SUB PUSH1 0x40 DUP2 LT ISZERO PUSH2 0x291 JUMPI PUSH1 0x0 DUP1 REVERT JUMPDEST POP DUP1 CALLDATALOAD SWAP1 PUSH1 0x20 ADD CALLDATALOAD PUSH1 0x1 PUSH1 0x1 PUSH1 0xA0 SHL SUB AND PUSH2 0xDC2 JUMP JUMPDEST PUSH2 0x1E7 PUSH2 0xE23 JUMP JUMPDEST PUSH2 0x242 PUSH2 0xE29 JUMP JUMPDEST PUSH2 0x242 PUSH1 0x4 DUP1 CALLDATASIZE SUB PUSH1 0x40 DUP2 LT ISZERO PUSH2 0x2CD JUMPI PUSH1 0x0 DUP1 REVERT JUMPDEST POP DUP1 CALLDATALOAD SWAP1 PUSH1 0x20 ADD CALLDATALOAD PUSH2 0xEB0 JUMP JUMPDEST PUSH2 0x242 PUSH1 0x4 DUP1 CALLDATASIZE SUB PUSH1 0x40 DUP2 LT ISZERO PUSH2 0x2F0 JUMPI PUSH1 0x0 DUP1 REVERT JUMPDEST POP DUP1 CALLDATALOAD SWAP1 PUSH1 0x20 ADD CALLDATALOAD PUSH1 0xFF AND PUSH2 0x13E8 JUMP JUMPDEST PUSH2 0x308 PUSH2 0x18C1 JUMP JUMPDEST PUSH1 0x40 DUP1 MLOAD SWAP2 ISZERO ISZERO DUP3 MSTORE MLOAD SWAP1 DUP2 SWAP1 SUB PUSH1 0x20 ADD SWAP1 RETURN JUMPDEST PUSH2 0x242 PUSH1 0x4 DUP1 CALLDATASIZE SUB PUSH1 0x40 DUP2 LT ISZERO PUSH2 0x332 JUMPI PUSH1 0x0 DUP1 REVERT JUMPDEST POP DUP1 CALLDATALOAD SWAP1 PUSH1 0x20 ADD CALLDATALOAD PUSH4 0xFFFFFFFF AND PUSH2 0x18CA JUMP JUMPDEST PUSH2 0x242 PUSH1 0x4 DUP1 CALLDATASIZE SUB PUSH1 0xC0 DUP2 LT ISZERO PUSH2 0x35B JUMPI PUSH1 0x0 DUP1 REVERT JUMPDEST POP DUP1 CALLDATALOAD SWAP1 PUSH1 0x20 DUP2 ADD CALLDATALOAD SWAP1 PUSH1 0xFF PUSH1 0x40 DUP3 ADD CALLDATALOAD AND SWAP1 PUSH4 0xFFFFFFFF PUSH1 0x60 DUP3 ADD CALLDATALOAD AND SWAP1 PUSH1 0x80 DUP2 ADD CALLDATALOAD SWAP1 PUSH1 0xA0 ADD CALLDATALOAD PUSH2 0x1F5B JUMP JUMPDEST PUSH2 0x3A6 PUSH1 0x4 DUP1 CALLDATASIZE SUB PUSH1 0x20 DUP2 LT ISZERO PUSH2 0x39F JUMPI PUSH1 0x0 DUP1 REVERT JUMPDEST POP CALLDATALOAD PUSH2 0x2586 JUMP JUMPDEST PUSH1 0x40 DUP1 MLOAD PUSH1 0xFF SWAP10 DUP11 AND DUP2 MSTORE SWAP8 SWAP1 SWAP9 AND PUSH1 0x20 DUP9 ADD MSTORE PUSH4 0xFFFFFFFF SWAP6 DUP7 AND DUP8 DUP10 ADD MSTORE SWAP4 DUP6 AND PUSH1 0x60 DUP8 ADD MSTORE SWAP2 SWAP1 SWAP4 AND PUSH1 0x80 DUP6 ADD MSTORE PUSH1 0xA0 DUP5 ADD SWAP3 SWAP1 SWAP3 MSTORE PUSH1 0xC0 DUP4 ADD SWAP2 SWAP1 SWAP2 MSTORE PUSH2 0xFFFF AND PUSH1 0xE0 DUP3 ADD MSTORE SWAP1 MLOAD SWAP1 DUP2 SWAP1 SUB PUSH2 0x100 ADD SWAP1 RETURN JUMPDEST PUSH2 0x242 PUSH1 0x4 DUP1 CALLDATASIZE SUB PUSH1 0x80 DUP2 LT ISZERO PUSH2 0x413 JUMPI PUSH1 0x0 DUP1 REVERT JUMPDEST DUP2 ADD SWAP1 PUSH1 0x20 DUP2 ADD DUP2 CALLDATALOAD PUSH5 0x100000000 DUP2 GT ISZERO PUSH2 0x42E JUMPI PUSH1 0x0 DUP1 REVERT JUMPDEST DUP3 ADD DUP4 PUSH1 0x20 DUP3 ADD GT ISZERO PUSH2 0x440 JUMPI PUSH1 0x0 DUP1 REVERT JUMPDEST DUP1 CALLDATALOAD SWAP1 PUSH1 0x20 ADD SWAP2 DUP5 PUSH1 0x1 DUP4 MUL DUP5 ADD GT PUSH5 0x100000000 DUP4 GT OR ISZERO PUSH2 0x462 JUMPI PUSH1 0x0 DUP1 REVERT JUMPDEST SWAP2 SWAP4 POP SWAP2 POP DUP1 CALLDATALOAD PUSH1 0x1 PUSH1 0x1 PUSH1 0xA0 SHL SUB AND SWAP1 PUSH1 0x20 DUP2 ADD CALLDATALOAD PUSH4 0xFFFFFFFF AND SWAP1 PUSH1 0x40 ADD CALLDATALOAD PUSH1 0xFF AND PUSH2 0x2654 JUMP JUMPDEST PUSH2 0x242 PUSH2 0x28C9 JUMP JUMPDEST PUSH2 0x1E7 PUSH1 0x4 DUP1 CALLDATASIZE SUB PUSH1 0x40 DUP2 LT ISZERO PUSH2 0x4A9 JUMPI PUSH1 0x0 DUP1 REVERT JUMPDEST POP DUP1 CALLDATALOAD SWAP1 PUSH1 0x20 ADD CALLDATALOAD PUSH2 0x294E JUMP JUMPDEST PUSH2 0x4D9 PUSH1 0x4 DUP1 CALLDATASIZE SUB PUSH1 0x40 DUP2 LT ISZERO PUSH2 0x4CC JUMPI PUSH1 0x0 DUP1 REVERT JUMPDEST POP DUP1 CALLDATALOAD SWAP1 PUSH1 0x20 ADD CALLDATALOAD PUSH2 0x2A45 JUMP JUMPDEST PUSH1 0x40 DUP1 MLOAD PUSH1 0x1 PUSH1 0x1 PUSH1 0xA0 SHL SUB SWAP1 SWAP3 AND DUP3 MSTORE MLOAD SWAP1 DUP2 SWAP1 SUB PUSH1 0x20 ADD SWAP1 RETURN JUMPDEST PUSH2 0x308 PUSH1 0x4 DUP1 CALLDATASIZE SUB PUSH1 0x40 DUP2 LT ISZERO PUSH2 0x50B JUMPI PUSH1 0x0 DUP1 REVERT JUMPDEST POP DUP1 CALLDATALOAD SWAP1 PUSH1 0x20 ADD CALLDATALOAD PUSH1 0x1 PUSH1 0x1 PUSH1 0xA0 SHL SUB AND PUSH2 0x2A64 JUMP JUMPDEST PUSH2 0x1E7 PUSH2 0x2A7C JUMP JUMPDEST PUSH2 0x242 PUSH1 0x4 DUP1 CALLDATASIZE SUB PUSH1 0x40 DUP2 LT ISZERO PUSH2 0x53F JUMPI PUSH1 0x0 DUP1 REVERT JUMPDEST POP DUP1 CALLDATALOAD SWAP1 PUSH1 0x20 ADD CALLDATALOAD PUSH2 0x2A81 JUMP JUMPDEST PUSH2 0x4D9 PUSH1 0x4 DUP1 CALLDATASIZE SUB PUSH1 0x20 DUP2 LT ISZERO PUSH2 0x562 JUMPI PUSH1 0x0 DUP1 REVERT JUMPDEST DUP2 ADD SWAP1 PUSH1 0x20 DUP2 ADD DUP2 CALLDATALOAD PUSH5 0x100000000 DUP2 GT ISZERO PUSH2 0x57D JUMPI PUSH1 0x0 DUP1 REVERT JUMPDEST DUP3 ADD DUP4 PUSH1 0x20 DUP3 ADD GT ISZERO PUSH2 0x58F JUMPI PUSH1 0x0 DUP1 REVERT JUMPDEST DUP1 CALLDATALOAD SWAP1 PUSH1 0x20 ADD SWAP2 DUP5 PUSH1 0x1 DUP4 MUL DUP5 ADD GT PUSH5 0x100000000 DUP4 GT OR ISZERO PUSH2 0x5B1 JUMPI PUSH1 0x0 DUP1 REVERT JUMPDEST POP SWAP1 SWAP3 POP SWAP1 POP PUSH2 0x3017 JUMP JUMPDEST PUSH2 0x1E7 PUSH1 0x4 DUP1 CALLDATASIZE SUB PUSH1 0x20 DUP2 LT ISZERO PUSH2 0x5D2 JUMPI PUSH1 0x0 DUP1 REVERT JUMPDEST POP CALLDATALOAD PUSH2 0x3051 JUMP JUMPDEST PUSH2 0x1E7 PUSH1 0x4 DUP1 CALLDATASIZE SUB PUSH1 0x40 DUP2 LT ISZERO PUSH2 0x5EF JUMPI PUSH1 0x0 DUP1 REVERT JUMPDEST POP DUP1 CALLDATALOAD SWAP1 PUSH1 0x20 ADD CALLDATALOAD PUSH2 0x3068 JUMP JUMPDEST PUSH2 0x242 PUSH1 0x4 DUP1 CALLDATASIZE SUB PUSH1 0x40 DUP2 LT ISZERO PUSH2 0x612 JUMPI PUSH1 0x0 DUP1 REVERT JUMPDEST POP DUP1 CALLDATALOAD SWAP1 PUSH1 0x20 ADD CALLDATALOAD PUSH1 0x1 PUSH1 0x1 PUSH1 0xA0 SHL SUB AND PUSH2 0x3091 JUMP JUMPDEST PUSH2 0x65A PUSH1 0x4 DUP1 CALLDATASIZE SUB PUSH1 0x40 DUP2 LT ISZERO PUSH2 0x63E JUMPI PUSH1 0x0 DUP1 REVERT JUMPDEST POP DUP1 CALLDATALOAD PUSH1 0x1 PUSH1 0x1 PUSH1 0xA0 SHL SUB AND SWAP1 PUSH1 0x20 ADD CALLDATALOAD PUSH4 0xFFFFFFFF AND PUSH2 0x30EA JUMP JUMPDEST PUSH1 0x40 DUP1 MLOAD PUSH1 0xFF SWAP1 SWAP4 AND DUP4 MSTORE PUSH1 0x20 DUP4 ADD SWAP2 SWAP1 SWAP2 MSTORE DUP1 MLOAD SWAP2 DUP3 SWAP1 SUB ADD SWAP1 RETURN JUMPDEST PUSH2 0x694 PUSH1 0x4 DUP1 CALLDATASIZE SUB PUSH1 0x20 DUP2 LT ISZERO PUSH2 0x68D JUMPI PUSH1 0x0 DUP1 REVERT JUMPDEST POP CALLDATALOAD PUSH2 0x3237 JUMP JUMPDEST PUSH1 0x40 DUP1 MLOAD SWAP8 DUP9 MSTORE PUSH1 0xFF SWAP1 SWAP7 AND PUSH1 0x20 DUP9 ADD MSTORE PUSH4 0xFFFFFFFF SWAP5 DUP6 AND DUP8 DUP8 ADD MSTORE SWAP3 DUP5 AND PUSH1 0x60 DUP8 ADD MSTORE SWAP3 AND PUSH1 0x80 DUP6 ADD MSTORE PUSH1 0xA0 DUP5 ADD SWAP2 SWAP1 SWAP2 MSTORE PUSH1 0xC0 DUP4 ADD MSTORE MLOAD SWAP1 DUP2 SWAP1 SUB PUSH1 0xE0 ADD SWAP1 RETURN JUMPDEST PUSH2 0x1E7 PUSH2 0x3425 JUMP JUMPDEST PUSH2 0x242 PUSH1 0x4 DUP1 CALLDATASIZE SUB PUSH1 0x20 DUP2 LT ISZERO PUSH2 0x6F6 JUMPI PUSH1 0x0 DUP1 REVERT JUMPDEST POP CALLDATALOAD PUSH2 0x3449 JUMP JUMPDEST PUSH2 0x242 PUSH1 0x4 DUP1 CALLDATASIZE SUB PUSH1 0x40 DUP2 LT ISZERO PUSH2 0x713 JUMPI PUSH1 0x0 DUP1 REVERT JUMPDEST POP DUP1 CALLDATALOAD SWAP1 PUSH1 0x20 ADD CALLDATALOAD PUSH1 0xFF AND PUSH2 0x3831 JUMP JUMPDEST PUSH2 0x242 PUSH1 0x4 DUP1 CALLDATASIZE SUB PUSH1 0x60 DUP2 LT ISZERO PUSH2 0x739 JUMPI PUSH1 0x0 DUP1 REVERT JUMPDEST DUP2 ADD SWAP1 PUSH1 0x20 DUP2 ADD DUP2 CALLDATALOAD PUSH5 0x100000000 DUP2 GT ISZERO PUSH2 0x754 JUMPI PUSH1 0x0 DUP1 REVERT JUMPDEST DUP3 ADD DUP4 PUSH1 0x20 DUP3 ADD GT ISZERO PUSH2 0x766 JUMPI PUSH1 0x0 DUP1 REVERT JUMPDEST DUP1 CALLDATALOAD SWAP1 PUSH1 0x20 ADD SWAP2 DUP5 PUSH1 0x1 DUP4 MUL DUP5 ADD GT PUSH5 0x100000000 DUP4 GT OR ISZERO PUSH2 0x788 JUMPI PUSH1 0x0 DUP1 REVERT JUMPDEST SWAP2 SWAP4 POP SWAP2 POP DUP1 CALLDATALOAD PUSH4 0xFFFFFFFF AND SWAP1 PUSH1 0x20 ADD CALLDATALOAD PUSH1 0xFF AND PUSH2 0x3D12 JUMP JUMPDEST PUSH32 0x2CE8D04A9C35987429AF538825CD2438CC5C5BB5DC427955F84DAAA3EA105016 DUP2 JUMP JUMPDEST PUSH1 0x0 DUP2 DUP2 MSTORE PUSH1 0x20 DUP2 SWAP1 MSTORE PUSH1 0x40 SWAP1 KECCAK256 PUSH1 0x2 ADD SLOAD JUMPDEST SWAP2 SWAP1 POP JUMP JUMPDEST PUSH1 0x0 DUP3 DUP2 MSTORE PUSH1 0x20 DUP2 SWAP1 MSTORE PUSH1 0x40 SWAP1 KECCAK256 PUSH1 0x2 ADD SLOAD PUSH2 0x801 SWAP1 PUSH2 0x7FC PUSH2 0x3EBE JUMP JUMPDEST PUSH2 0x2A64 JUMP JUMPDEST PUSH2 0x83C JUMPI PUSH1 0x40 MLOAD PUSH3 0x461BCD PUSH1 0xE5 SHL DUP2 MSTORE PUSH1 0x4 ADD DUP1 DUP1 PUSH1 0x20 ADD DUP3 DUP2 SUB DUP3 MSTORE PUSH1 0x2F DUP2 MSTORE PUSH1 0x20 ADD DUP1 PUSH2 0x443E PUSH1 0x2F SWAP2 CODECOPY PUSH1 0x40 ADD SWAP2 POP POP PUSH1 0x40 MLOAD DUP1 SWAP2 SUB SWAP1 REVERT JUMPDEST PUSH2 0x846 DUP3 DUP3 PUSH2 0x3EC2 JUMP JUMPDEST POP POP JUMP JUMPDEST PUSH1 0x2 PUSH1 0x1 SLOAD EQ ISZERO PUSH2 0x8A2 JUMPI PUSH1 0x40 DUP1 MLOAD PUSH3 0x461BCD PUSH1 0xE5 SHL DUP2 MSTORE PUSH1 0x20 PUSH1 0x4 DUP3 ADD MSTORE PUSH1 0x1F PUSH1 0x24 DUP3 ADD MSTORE PUSH32 0x5265656E7472616E637947756172643A207265656E7472616E742063616C6C00 PUSH1 0x44 DUP3 ADD MSTORE SWAP1 MLOAD SWAP1 DUP2 SWAP1 SUB PUSH1 0x64 ADD SWAP1 REVERT JUMPDEST PUSH1 0x2 PUSH1 0x1 DUP2 SWAP1 SSTORE SLOAD PUSH1 0xFF AND ISZERO PUSH2 0x8F2 JUMPI PUSH1 0x40 DUP1 MLOAD PUSH3 0x461BCD PUSH1 0xE5 SHL DUP2 MSTORE PUSH1 0x20 PUSH1 0x4 DUP3 ADD MSTORE PUSH1 0x10 PUSH1 0x24 DUP3 ADD MSTORE PUSH16 0x14185D5CD8589B194E881C185D5CD959 PUSH1 0x82 SHL PUSH1 0x44 DUP3 ADD MSTORE SWAP1 MLOAD SWAP1 DUP2 SWAP1 SUB PUSH1 0x64 ADD SWAP1 REVERT JUMPDEST DUP2 PUSH1 0x0 PUSH1 0x3 PUSH1 0x4 PUSH1 0x0 CALLER PUSH1 0x1 PUSH1 0x1 PUSH1 0xA0 SHL SUB AND PUSH1 0x1 PUSH1 0x1 PUSH1 0xA0 SHL SUB AND DUP2 MSTORE PUSH1 0x20 ADD SWAP1 DUP2 MSTORE PUSH1 0x20 ADD PUSH1 0x0 KECCAK256 PUSH1 0x40 MLOAD DUP1 DUP3 DUP1 SLOAD PUSH1 0x1 DUP2 PUSH1 0x1 AND ISZERO PUSH2 0x100 MUL SUB AND PUSH1 0x2 SWAP1 DIV DUP1 ISZERO PUSH2 0x977 JUMPI DUP1 PUSH1 0x1F LT PUSH2 0x955 JUMPI PUSH2 0x100 DUP1 DUP4 SLOAD DIV MUL DUP4 MSTORE SWAP2 DUP3 ADD SWAP2 PUSH2 0x977 JUMP JUMPDEST DUP3 ADD SWAP2 SWAP1 PUSH1 0x0 MSTORE PUSH1 0x20 PUSH1 0x0 KECCAK256 SWAP1 JUMPDEST DUP2 SLOAD DUP2 MSTORE SWAP1 PUSH1 0x1 ADD SWAP1 PUSH1 0x20 ADD DUP1 DUP4 GT PUSH2 0x963 JUMPI JUMPDEST POP POP SWAP3 DUP4 MSTORE POP POP PUSH1 0x40 DUP1 MLOAD PUSH1 0x20 SWAP3 DUP2 SWAP1 SUB DUP4 ADD SWAP1 KECCAK256 PUSH4 0xFFFFFFFF DUP6 AND PUSH1 0x0 SWAP1 DUP2 MSTORE SWAP3 MSTORE SWAP1 KECCAK256 SLOAD PUSH1 0xFF AND SWAP1 POP DUP1 ISZERO DUP1 ISZERO SWAP1 PUSH2 0x9B4 JUMPI POP PUSH1 0x5 DUP2 PUSH1 0xFF AND LT JUMPDEST DUP1 PUSH2 0x9C2 JUMPI POP DUP1 PUSH1 0xFF AND PUSH1 0xA EQ JUMPDEST PUSH2 0xA13 JUMPI PUSH1 0x40 DUP1 MLOAD PUSH3 0x461BCD PUSH1 0xE5 SHL DUP2 MSTORE PUSH1 0x20 PUSH1 0x4 DUP3 ADD DUP2 SWAP1 MSTORE PUSH1 0x24 DUP3 ADD MSTORE PUSH32 0x533A4D4F442D49413A436F6E7472616374206E6F7420617574686F72697A6564 PUSH1 0x44 DUP3 ADD MSTORE SWAP1 MLOAD SWAP1 DUP2 SWAP1 SUB PUSH1 0x64 ADD SWAP1 REVERT JUMPDEST PUSH1 0x0 DUP7 DUP2 MSTORE PUSH1 0x6 PUSH1 0x20 MSTORE PUSH1 0x40 SWAP1 KECCAK256 SLOAD PUSH1 0xFF AND PUSH1 0x3C EQ ISZERO PUSH2 0xA64 JUMPI PUSH1 0x40 MLOAD PUSH3 0x461BCD PUSH1 0xE5 SHL DUP2 MSTORE PUSH1 0x4 ADD DUP1 DUP1 PUSH1 0x20 ADD DUP3 DUP2 SUB DUP3 MSTORE PUSH1 0x25 DUP2 MSTORE PUSH1 0x20 ADD DUP1 PUSH2 0x44E9 PUSH1 0x25 SWAP2 CODECOPY PUSH1 0x40 ADD SWAP2 POP POP PUSH1 0x40 MLOAD DUP1 SWAP2 SUB SWAP1 REVERT JUMPDEST PUSH1 0x0 DUP7 DUP2 MSTORE PUSH1 0x6 PUSH1 0x20 MSTORE PUSH1 0x40 SWAP1 KECCAK256 SLOAD PUSH5 0x100000000 SWAP1 DIV PUSH4 0xFFFFFFFF AND ISZERO PUSH2 0xAD3 JUMPI PUSH1 0x40 DUP1 MLOAD PUSH3 0x461BCD PUSH1 0xE5 SHL DUP2 MSTORE PUSH1 0x20 PUSH1 0x4 DUP3 ADD MSTORE PUSH1 0x17 PUSH1 0x24 DUP3 ADD MSTORE PUSH32 0x533A4E523A52656320616C726561647920657869737473000000000000000000 PUSH1 0x44 DUP3 ADD MSTORE SWAP1 MLOAD SWAP1 DUP2 SWAP1 SUB PUSH1 0x64 ADD SWAP1 REVERT JUMPDEST DUP5 PUSH2 0xB25 JUMPI PUSH1 0x40 DUP1 MLOAD PUSH3 0x461BCD PUSH1 0xE5 SHL DUP2 MSTORE PUSH1 0x20 PUSH1 0x4 DUP3 ADD MSTORE PUSH1 0xC PUSH1 0x24 DUP3 ADD MSTORE PUSH32 0x533A4E523A524754203D20300000000000000000000000000000000000000000 PUSH1 0x44 DUP3 ADD MSTORE SWAP1 MLOAD SWAP1 DUP2 SWAP1 SUB PUSH1 0x64 ADD SWAP1 REVERT JUMPDEST PUSH4 0xFFFFFFFF DUP5 AND PUSH2 0xB7D JUMPI PUSH1 0x40 DUP1 MLOAD PUSH3 0x461BCD PUSH1 0xE5 SHL DUP2 MSTORE PUSH1 0x20 PUSH1 0x4 DUP3 ADD MSTORE PUSH1 0xB PUSH1 0x24 DUP3 ADD MSTORE PUSH32 0x533A4E523A4143203D2030000000000000000000000000000000000000000000 PUSH1 0x44 DUP3 ADD MSTORE SWAP1 MLOAD SWAP1 DUP2 SWAP1 SUB PUSH1 0x64 ADD SWAP1 REVERT JUMPDEST PUSH2 0xB85 PUSH2 0x433C JUMP JUMPDEST PUSH1 0x3 PUSH1 0x4 PUSH1 0x0 PUSH2 0xB93 PUSH2 0x3EBE JUMP JUMPDEST PUSH1 0x1 PUSH1 0x1 PUSH1 0xA0 SHL SUB AND PUSH1 0x1 PUSH1 0x1 PUSH1 0xA0 SHL SUB AND DUP2 MSTORE PUSH1 0x20 ADD SWAP1 DUP2 MSTORE PUSH1 0x20 ADD PUSH1 0x0 KECCAK256 PUSH1 0x40 MLOAD DUP1 DUP3 DUP1 SLOAD PUSH1 0x1 DUP2 PUSH1 0x1 AND ISZERO PUSH2 0x100 MUL SUB AND PUSH1 0x2 SWAP1 DIV DUP1 ISZERO PUSH2 0xC0E JUMPI DUP1 PUSH1 0x1F LT PUSH2 0xBEC JUMPI PUSH2 0x100 DUP1 DUP4 SLOAD DIV MUL DUP4 MSTORE SWAP2 DUP3 ADD SWAP2 PUSH2 0xC0E JUMP JUMPDEST DUP3 ADD SWAP2 SWAP1 PUSH1 0x0 MSTORE PUSH1 0x20 PUSH1 0x0 KECCAK256 SWAP1 JUMPDEST DUP2 SLOAD DUP2 MSTORE SWAP1 PUSH1 0x1 ADD SWAP1 PUSH1 0x20 ADD DUP1 DUP4 GT PUSH2 0xBFA JUMPI JUMPDEST POP POP SWAP3 DUP4 MSTORE POP POP PUSH1 0x40 DUP1 MLOAD SWAP2 DUP3 SWAP1 SUB PUSH1 0x20 SWAP1 DUP2 ADD SWAP1 SWAP3 KECCAK256 PUSH4 0xFFFFFFFF DUP9 AND PUSH1 0x0 SWAP1 DUP2 MSTORE SWAP3 MSTORE SWAP1 KECCAK256 SLOAD PUSH1 0xFF AND PUSH1 0x1 EQ ISZERO PUSH2 0xC4A JUMPI PUSH1 0x0 DUP2 MSTORE PUSH2 0xC4F JUMP JUMPDEST PUSH1 0x33 DUP2 MSTORE JUMPDEST DUP5 DUP2 PUSH1 0x60 ADD SWAP1 PUSH4 0xFFFFFFFF AND SWAP1 DUP2 PUSH4 0xFFFFFFFF AND DUP2 MSTORE POP POP DUP4 DUP2 PUSH1 0xA0 ADD SWAP1 PUSH4 0xFFFFFFFF AND SWAP1 DUP2 PUSH4 0xFFFFFFFF AND DUP2 MSTORE POP POP DUP4 DUP2 PUSH1 0x80 ADD SWAP1 PUSH4 0xFFFFFFFF AND SWAP1 DUP2 PUSH4 0xFFFFFFFF AND DUP2 MSTORE POP POP DUP6 DUP2 PUSH2 0x100 ADD DUP2 DUP2 MSTORE POP POP DUP1 PUSH1 0x6 PUSH1 0x0 DUP10 DUP2 MSTORE PUSH1 0x20 ADD SWAP1 DUP2 MSTORE PUSH1 0x20 ADD PUSH1 0x0 KECCAK256 PUSH1 0x0 DUP3 ADD MLOAD DUP2 PUSH1 0x0 ADD PUSH1 0x0 PUSH2 0x100 EXP DUP2 SLOAD DUP2 PUSH1 0xFF MUL NOT AND SWAP1 DUP4 PUSH1 0xFF AND MUL OR SWAP1 SSTORE POP PUSH1 0x20 DUP3 ADD MLOAD DUP2 PUSH1 0x0 ADD PUSH1 0x1 PUSH2 0x100 EXP DUP2 SLOAD DUP2 PUSH1 0xFF MUL NOT AND SWAP1 DUP4 PUSH1 0xFF AND MUL OR SWAP1 SSTORE POP PUSH1 0x40 DUP3 ADD MLOAD DUP2 PUSH1 0x0 ADD PUSH1 0x2 PUSH2 0x100 EXP DUP2 SLOAD DUP2 PUSH2 0xFFFF MUL NOT AND SWAP1 DUP4 PUSH2 0xFFFF AND MUL OR SWAP1 SSTORE POP PUSH1 0x60 DUP3 ADD MLOAD DUP2 PUSH1 0x0 ADD PUSH1 0x4 PUSH2 0x100 EXP DUP2 SLOAD DUP2 PUSH4 0xFFFFFFFF MUL NOT AND SWAP1 DUP4 PUSH4 0xFFFFFFFF AND MUL OR SWAP1 SSTORE POP PUSH1 0x80 DUP3 ADD MLOAD DUP2 PUSH1 0x0 ADD PUSH1 0x8 PUSH2 0x100 EXP DUP2 SLOAD DUP2 PUSH4 0xFFFFFFFF MUL NOT AND SWAP1 DUP4 PUSH4 0xFFFFFFFF AND MUL OR SWAP1 SSTORE POP PUSH1 0xA0 DUP3 ADD MLOAD DUP2 PUSH1 0x0 ADD PUSH1 0xC PUSH2 0x100 EXP DUP2 SLOAD DUP2 PUSH4 0xFFFFFFFF MUL NOT AND SWAP1 DUP4 PUSH4 0xFFFFFFFF AND MUL OR SWAP1 SSTORE POP PUSH1 0xC0 DUP3 ADD MLOAD DUP2 PUSH1 0x1 ADD SSTORE PUSH1 0xE0 DUP3 ADD MLOAD DUP2 PUSH1 0x2 ADD SSTORE PUSH2 0x100 DUP3 ADD MLOAD DUP2 PUSH1 0x3 ADD SSTORE SWAP1 POP POP POP POP POP PUSH1 0x1 DUP1 DUP2 SWAP1 SSTORE POP POP POP POP POP JUMP JUMPDEST PUSH2 0xDCA PUSH2 0x3EBE JUMP JUMPDEST PUSH1 0x1 PUSH1 0x1 PUSH1 0xA0 SHL SUB AND DUP2 PUSH1 0x1 PUSH1 0x1 PUSH1 0xA0 SHL SUB AND EQ PUSH2 0xE19 JUMPI PUSH1 0x40 MLOAD PUSH3 0x461BCD PUSH1 0xE5 SHL DUP2 MSTORE PUSH1 0x4 ADD DUP1 DUP1 PUSH1 0x20 ADD DUP3 DUP2 SUB DUP3 MSTORE PUSH1 0x2F DUP2 MSTORE PUSH1 0x20 ADD DUP1 PUSH2 0x450E PUSH1 0x2F SWAP2 CODECOPY PUSH1 0x40 ADD SWAP2 POP POP PUSH1 0x40 MLOAD DUP1 SWAP2 SUB SWAP1 REVERT JUMPDEST PUSH2 0x846 DUP3 DUP3 PUSH2 0x3F2B JUMP JUMPDEST PUSH1 0x0 NOT DUP2 JUMP JUMPDEST PUSH2 0xE55 PUSH32 0x65D7A28E3265B37A6474929F336521B332C1681B933F6CB9F3376673440D862A PUSH2 0x7FC PUSH2 0x3EBE JUMP JUMPDEST PUSH2 0xEA6 JUMPI PUSH1 0x40 DUP1 MLOAD PUSH3 0x461BCD PUSH1 0xE5 SHL DUP2 MSTORE PUSH1 0x20 PUSH1 0x4 DUP3 ADD MSTORE PUSH1 0x1E PUSH1 0x24 DUP3 ADD MSTORE PUSH32 0x50414D3A4D4F443A206D7573742068617665205041555345525F524F4C450000 PUSH1 0x44 DUP3 ADD MSTORE SWAP1 MLOAD SWAP1 DUP2 SWAP1 SUB PUSH1 0x64 ADD SWAP1 REVERT JUMPDEST PUSH2 0xEAE PUSH2 0x3F94 JUMP JUMPDEST JUMP JUMPDEST PUSH1 0x2 PUSH1 0x1 SLOAD EQ ISZERO PUSH2 0xF08 JUMPI PUSH1 0x40 DUP1 MLOAD PUSH3 0x461BCD PUSH1 0xE5 SHL DUP2 MSTORE PUSH1 0x20 PUSH1 0x4 DUP3 ADD MSTORE PUSH1 0x1F PUSH1 0x24 DUP3 ADD MSTORE PUSH32 0x5265656E7472616E637947756172643A207265656E7472616E742063616C6C00 PUSH1 0x44 DUP3 ADD MSTORE SWAP1 MLOAD SWAP1 DUP2 SWAP1 SUB PUSH1 0x64 ADD SWAP1 REVERT JUMPDEST PUSH1 0x2 PUSH1 0x1 DUP2 SWAP1 SSTORE SLOAD PUSH1 0xFF AND ISZERO PUSH2 0xF58 JUMPI PUSH1 0x40 DUP1 MLOAD PUSH3 0x461BCD PUSH1 0xE5 SHL DUP2 MSTORE PUSH1 0x20 PUSH1 0x4 DUP3 ADD MSTORE PUSH1 0x10 PUSH1 0x24 DUP3 ADD MSTORE PUSH16 0x14185D5CD8589B194E881C185D5CD959 PUSH1 0x82 SHL PUSH1 0x44 DUP3 ADD MSTORE SWAP1 MLOAD SWAP1 DUP2 SWAP1 SUB PUSH1 0x64 ADD SWAP1 REVERT JUMPDEST PUSH1 0x0 DUP3 DUP2 MSTORE PUSH1 0x6 PUSH1 0x20 MSTORE PUSH1 0x40 SWAP1 KECCAK256 SLOAD DUP3 SWAP1 PUSH5 0x100000000 SWAP1 DIV PUSH4 0xFFFFFFFF AND PUSH2 0xFC8 JUMPI PUSH1 0x40 DUP1 MLOAD PUSH3 0x461BCD PUSH1 0xE5 SHL DUP2 MSTORE PUSH1 0x20 PUSH1 0x4 DUP3 ADD MSTORE PUSH1 0x1A PUSH1 0x24 DUP3 ADD MSTORE PUSH32 0x533A4D4F442D453A72656320646F6573206E6F74206578697374000000000000 PUSH1 0x44 DUP3 ADD MSTORE SWAP1 MLOAD SWAP1 DUP2 SWAP1 SUB PUSH1 0x64 ADD SWAP1 REVERT JUMPDEST PUSH1 0x0 DUP4 DUP2 MSTORE PUSH1 0x6 PUSH1 0x20 SWAP1 DUP2 MSTORE PUSH1 0x40 DUP1 DUP4 KECCAK256 SLOAD CALLER DUP5 MSTORE PUSH1 0x4 SWAP1 SWAP3 MSTORE DUP1 DUP4 KECCAK256 SWAP1 MLOAD DUP2 SLOAD PUSH5 0x100000000 SWAP1 SWAP4 DIV PUSH4 0xFFFFFFFF AND SWAP4 SWAP3 PUSH1 0x3 SWAP3 SWAP2 SWAP1 DUP2 SWAP1 DUP4 SWAP1 PUSH1 0x2 PUSH2 0x100 PUSH1 0x1 DUP4 AND ISZERO MUL PUSH1 0x0 NOT ADD SWAP1 SWAP2 AND DIV DUP1 ISZERO PUSH2 0x1059 JUMPI DUP1 PUSH1 0x1F LT PUSH2 0x1037 JUMPI PUSH2 0x100 DUP1 DUP4 SLOAD DIV MUL DUP4 MSTORE SWAP2 DUP3 ADD SWAP2 PUSH2 0x1059 JUMP JUMPDEST DUP3 ADD SWAP2 SWAP1 PUSH1 0x0 MSTORE PUSH1 0x20 PUSH1 0x0 KECCAK256 SWAP1 JUMPDEST DUP2 SLOAD DUP2 MSTORE SWAP1 PUSH1 0x1 ADD SWAP1 PUSH1 0x20 ADD DUP1 DUP4 GT PUSH2 0x1045 JUMPI JUMPDEST POP POP SWAP3 DUP4 MSTORE POP POP PUSH1 0x40 DUP1 MLOAD PUSH1 0x20 SWAP3 DUP2 SWAP1 SUB DUP4 ADD SWAP1 KECCAK256 PUSH4 0xFFFFFFFF DUP6 AND PUSH1 0x0 SWAP1 DUP2 MSTORE SWAP3 MSTORE SWAP1 KECCAK256 SLOAD PUSH1 0xFF AND SWAP1 POP DUP1 ISZERO DUP1 ISZERO SWAP1 PUSH2 0x1096 JUMPI POP PUSH1 0x5 DUP2 PUSH1 0xFF AND LT JUMPDEST DUP1 PUSH2 0x10A4 JUMPI POP DUP1 PUSH1 0xFF AND PUSH1 0xA EQ JUMPDEST PUSH2 0x10F5 JUMPI PUSH1 0x40 DUP1 MLOAD PUSH3 0x461BCD PUSH1 0xE5 SHL DUP2 MSTORE PUSH1 0x20 PUSH1 0x4 DUP3 ADD DUP2 SWAP1 MSTORE PUSH1 0x24 DUP3 ADD MSTORE PUSH32 0x533A4D4F442D49413A436F6E7472616374206E6F7420617574686F72697A6564 PUSH1 0x44 DUP3 ADD MSTORE SWAP1 MLOAD SWAP1 DUP2 SWAP1 SUB PUSH1 0x64 ADD SWAP1 REVERT JUMPDEST PUSH1 0x0 DUP6 DUP2 MSTORE PUSH1 0x6 PUSH1 0x20 MSTORE PUSH1 0x40 SWAP1 KECCAK256 SLOAD DUP6 SWAP1 PUSH2 0x1112 SWAP1 PUSH1 0xFF AND PUSH2 0x403B JUMP JUMPDEST PUSH1 0xFF AND ISZERO PUSH2 0x1167 JUMPI PUSH1 0x40 DUP1 MLOAD PUSH3 0x461BCD PUSH1 0xE5 SHL DUP2 MSTORE PUSH1 0x20 PUSH1 0x4 DUP3 ADD MSTORE PUSH1 0x1A PUSH1 0x24 DUP3 ADD MSTORE PUSH32 0x533A4D4F442D4E453A726563206C6F636B656420696E20656372000000000000 PUSH1 0x44 DUP3 ADD MSTORE SWAP1 MLOAD SWAP1 DUP2 SWAP1 SUB PUSH1 0x64 ADD SWAP1 REVERT JUMPDEST PUSH2 0x116F PUSH2 0x433C JUMP JUMPDEST POP PUSH1 0x0 DUP7 DUP2 MSTORE PUSH1 0x6 PUSH1 0x20 SWAP1 DUP2 MSTORE PUSH1 0x40 SWAP2 DUP3 SWAP1 KECCAK256 DUP3 MLOAD PUSH2 0x120 DUP2 ADD DUP5 MSTORE DUP2 SLOAD PUSH1 0xFF DUP1 DUP3 AND DUP1 DUP5 MSTORE PUSH2 0x100 DUP1 DUP5 DIV SWAP1 SWAP3 AND SWAP6 DUP5 ADD SWAP6 SWAP1 SWAP6 MSTORE PUSH2 0xFFFF PUSH3 0x10000 DUP4 DIV AND SWAP6 DUP4 ADD SWAP6 SWAP1 SWAP6 MSTORE PUSH4 0xFFFFFFFF PUSH5 0x100000000 DUP3 DIV DUP2 AND PUSH1 0x60 DUP5 ADD MSTORE PUSH1 0x1 PUSH1 0x40 SHL DUP3 DIV DUP2 AND PUSH1 0x80 DUP5 ADD MSTORE PUSH1 0x1 PUSH1 0x60 SHL SWAP1 SWAP2 DIV AND PUSH1 0xA0 DUP3 ADD MSTORE PUSH1 0x1 DUP3 ADD SLOAD PUSH1 0xC0 DUP3 ADD MSTORE PUSH1 0x2 DUP3 ADD SLOAD PUSH1 0xE0 DUP3 ADD MSTORE PUSH1 0x3 SWAP1 SWAP2 ADD SLOAD SWAP3 DUP2 ADD SWAP3 SWAP1 SWAP3 MSTORE PUSH2 0x1210 SWAP1 PUSH2 0x408A JUMP JUMPDEST PUSH1 0xFF AND ISZERO PUSH2 0x1265 JUMPI PUSH1 0x40 DUP1 MLOAD PUSH3 0x461BCD PUSH1 0xE5 SHL DUP2 MSTORE PUSH1 0x20 PUSH1 0x4 DUP3 ADD MSTORE PUSH1 0x12 PUSH1 0x24 DUP3 ADD MSTORE PUSH32 0x533A4D49323A2054786672642061737365740000000000000000000000000000 PUSH1 0x44 DUP3 ADD MSTORE SWAP1 MLOAD SWAP1 DUP2 SWAP1 SUB PUSH1 0x64 ADD SWAP1 REVERT JUMPDEST DUP6 DUP2 PUSH1 0xC0 ADD MLOAD EQ ISZERO PUSH2 0x12BE JUMPI PUSH1 0x40 DUP1 MLOAD PUSH3 0x461BCD PUSH1 0xE5 SHL DUP2 MSTORE PUSH1 0x20 PUSH1 0x4 DUP3 ADD MSTORE PUSH1 0x16 PUSH1 0x24 DUP3 ADD MSTORE PUSH32 0x533A4D49313A204E65772076616C7565203D206F6C6400000000000000000000 PUSH1 0x44 DUP3 ADD MSTORE SWAP1 MLOAD SWAP1 DUP2 SWAP1 SUB PUSH1 0x64 ADD SWAP1 REVERT JUMPDEST DUP6 DUP2 PUSH1 0xC0 ADD DUP2 DUP2 MSTORE POP POP DUP1 PUSH1 0x6 PUSH1 0x0 DUP10 DUP2 MSTORE PUSH1 0x20 ADD SWAP1 DUP2 MSTORE PUSH1 0x20 ADD PUSH1 0x0 KECCAK256 PUSH1 0x0 DUP3 ADD MLOAD DUP2 PUSH1 0x0 ADD PUSH1 0x0 PUSH2 0x100 EXP DUP2 SLOAD DUP2 PUSH1 0xFF MUL NOT AND SWAP1 DUP4 PUSH1 0xFF AND MUL OR SWAP1 SSTORE POP PUSH1 0x20 DUP3 ADD MLOAD DUP2 PUSH1 0x0 ADD PUSH1 0x1 PUSH2 0x100 EXP DUP2 SLOAD DUP2 PUSH1 0xFF MUL NOT AND SWAP1 DUP4 PUSH1 0xFF AND MUL OR SWAP1 SSTORE POP PUSH1 0x40 DUP3 ADD MLOAD DUP2 PUSH1 0x0 ADD PUSH1 0x2 PUSH2 0x100 EXP DUP2 SLOAD DUP2 PUSH2 0xFFFF MUL NOT AND SWAP1 DUP4 PUSH2 0xFFFF AND MUL OR SWAP1 SSTORE POP PUSH1 0x60 DUP3 ADD MLOAD DUP2 PUSH1 0x0 ADD PUSH1 0x4 PUSH2 0x100 EXP DUP2 SLOAD DUP2 PUSH4 0xFFFFFFFF MUL NOT AND SWAP1 DUP4 PUSH4 0xFFFFFFFF AND MUL OR SWAP1 SSTORE POP PUSH1 0x80 DUP3 ADD MLOAD DUP2 PUSH1 0x0 ADD PUSH1 0x8 PUSH2 0x100 EXP DUP2 SLOAD DUP2 PUSH4 0xFFFFFFFF MUL NOT AND SWAP1 DUP4 PUSH4 0xFFFFFFFF AND MUL OR SWAP1 SSTORE POP PUSH1 0xA0 DUP3 ADD MLOAD DUP2 PUSH1 0x0 ADD PUSH1 0xC PUSH2 0x100 EXP DUP2 SLOAD DUP2 PUSH4 0xFFFFFFFF MUL NOT AND SWAP1 DUP4 PUSH4 0xFFFFFFFF AND MUL OR SWAP1 SSTORE POP PUSH1 0xC0 DUP3 ADD MLOAD DUP2 PUSH1 0x1 ADD SSTORE PUSH1 0xE0 DUP3 ADD MLOAD DUP2 PUSH1 0x2 ADD SSTORE PUSH2 0x100 DUP3 ADD MLOAD DUP2 PUSH1 0x3 ADD SSTORE SWAP1 POP POP POP POP POP POP POP PUSH1 0x1 DUP1 DUP2 SWAP1 SSTORE POP POP POP JUMP JUMPDEST PUSH1 0x2 PUSH1 0x1 SLOAD EQ ISZERO PUSH2 0x1440 JUMPI PUSH1 0x40 DUP1 MLOAD PUSH3 0x461BCD PUSH1 0xE5 SHL DUP2 MSTORE PUSH1 0x20 PUSH1 0x4 DUP3 ADD MSTORE PUSH1 0x1F PUSH1 0x24 DUP3 ADD MSTORE PUSH32 0x5265656E7472616E637947756172643A207265656E7472616E742063616C6C00 PUSH1 0x44 DUP3 ADD MSTORE SWAP1 MLOAD SWAP1 DUP2 SWAP1 SUB PUSH1 0x64 ADD SWAP1 REVERT JUMPDEST PUSH1 0x2 PUSH1 0x1 DUP2 SWAP1 SSTORE SLOAD PUSH1 0xFF AND ISZERO PUSH2 0x1490 JUMPI PUSH1 0x40 DUP1 MLOAD PUSH3 0x461BCD PUSH1 0xE5 SHL DUP2 MSTORE PUSH1 0x20 PUSH1 0x4 DUP3 ADD MSTORE PUSH1 0x10 PUSH1 0x24 DUP3 ADD MSTORE PUSH16 0x14185D5CD8589B194E881C185D5CD959 PUSH1 0x82 SHL PUSH1 0x44 DUP3 ADD MSTORE SWAP1 MLOAD SWAP1 DUP2 SWAP1 SUB PUSH1 0x64 ADD SWAP1 REVERT JUMPDEST PUSH1 0x40 DUP1 MLOAD PUSH7 0x22A1A92FA6A3A9 PUSH1 0xC9 SHL DUP2 MSTORE PUSH1 0x5 PUSH1 0x7 DUP3 ADD MSTORE SWAP1 MLOAD SWAP1 DUP2 SWAP1 SUB PUSH1 0x27 ADD SWAP1 KECCAK256 SLOAD PUSH1 0x1 PUSH1 0x1 PUSH1 0xA0 SHL SUB AND PUSH2 0x14C5 PUSH2 0x3EBE JUMP JUMPDEST PUSH1 0x1 PUSH1 0x1 PUSH1 0xA0 SHL SUB AND EQ PUSH2 0x1520 JUMPI PUSH1 0x40 DUP1 MLOAD PUSH3 0x461BCD PUSH1 0xE5 SHL DUP2 MSTORE PUSH1 0x20 PUSH1 0x4 DUP3 ADD MSTORE PUSH1 0x1C PUSH1 0x24 DUP3 ADD MSTORE PUSH32 0x533A4D4F442D49454D3A43616C6C6572206E6F74204543525F4D475200000000 PUSH1 0x44 DUP3 ADD MSTORE SWAP1 MLOAD SWAP1 DUP2 SWAP1 SUB PUSH1 0x64 ADD SWAP1 REVERT JUMPDEST PUSH1 0x0 DUP3 DUP2 MSTORE PUSH1 0x6 PUSH1 0x20 MSTORE PUSH1 0x40 SWAP1 KECCAK256 SLOAD DUP3 SWAP1 PUSH5 0x100000000 SWAP1 DIV PUSH4 0xFFFFFFFF AND PUSH2 0x1590 JUMPI PUSH1 0x40 DUP1 MLOAD PUSH3 0x461BCD PUSH1 0xE5 SHL DUP2 MSTORE PUSH1 0x20 PUSH1 0x4 DUP3 ADD MSTORE PUSH1 0x1A PUSH1 0x24 DUP3 ADD MSTORE PUSH32 0x533A4D4F442D453A72656320646F6573206E6F74206578697374000000000000 PUSH1 0x44 DUP3 ADD MSTORE SWAP1 MLOAD SWAP1 DUP2 SWAP1 SUB PUSH1 0x64 ADD SWAP1 REVERT JUMPDEST PUSH1 0x0 DUP4 DUP2 MSTORE PUSH1 0x6 PUSH1 0x20 MSTORE PUSH1 0x40 SWAP1 KECCAK256 SLOAD DUP4 SWAP1 PUSH2 0x15AD SWAP1 PUSH1 0xFF AND PUSH2 0x403B JUMP JUMPDEST PUSH1 0xFF AND ISZERO PUSH2 0x1602 JUMPI PUSH1 0x40 DUP1 MLOAD PUSH3 0x461BCD PUSH1 0xE5 SHL DUP2 MSTORE PUSH1 0x20 PUSH1 0x4 DUP3 ADD MSTORE PUSH1 0x1A PUSH1 0x24 DUP3 ADD MSTORE PUSH32 0x533A4D4F442D4E453A726563206C6F636B656420696E20656372000000000000 PUSH1 0x44 DUP3 ADD MSTORE SWAP1 MLOAD SWAP1 DUP2 SWAP1 SUB PUSH1 0x64 ADD SWAP1 REVERT JUMPDEST PUSH2 0x160A PUSH2 0x433C JUMP JUMPDEST POP PUSH1 0x0 DUP5 DUP2 MSTORE PUSH1 0x6 PUSH1 0x20 SWAP1 DUP2 MSTORE PUSH1 0x40 SWAP2 DUP3 SWAP1 KECCAK256 DUP3 MLOAD PUSH2 0x120 DUP2 ADD DUP5 MSTORE DUP2 SLOAD PUSH1 0xFF DUP1 DUP3 AND DUP4 MSTORE PUSH2 0x100 DUP1 DUP4 DIV SWAP1 SWAP2 AND SWAP5 DUP4 ADD SWAP5 SWAP1 SWAP5 MSTORE PUSH2 0xFFFF PUSH3 0x10000 DUP3 DIV AND SWAP5 DUP3 ADD SWAP5 SWAP1 SWAP5 MSTORE PUSH4 0xFFFFFFFF PUSH5 0x100000000 DUP6 DIV DUP2 AND PUSH1 0x60 DUP4 ADD MSTORE PUSH1 0x1 PUSH1 0x40 SHL DUP6 DIV DUP2 AND PUSH1 0x80 DUP4 ADD MSTORE PUSH1 0x1 PUSH1 0x60 SHL SWAP1 SWAP5 DIV SWAP1 SWAP4 AND PUSH1 0xA0 DUP5 ADD MSTORE PUSH1 0x1 DUP2 ADD SLOAD PUSH1 0xC0 DUP5 ADD MSTORE PUSH1 0x2 DUP2 ADD SLOAD PUSH1 0xE0 DUP5 ADD MSTORE PUSH1 0x3 ADD SLOAD SWAP1 DUP3 ADD MSTORE PUSH2 0x16A7 DUP5 PUSH2 0x403B JUMP JUMPDEST PUSH1 0xFF AND PUSH1 0xAA EQ PUSH2 0x16FE JUMPI PUSH1 0x40 DUP1 MLOAD PUSH3 0x461BCD PUSH1 0xE5 SHL DUP2 MSTORE PUSH1 0x20 PUSH1 0x4 DUP3 ADD MSTORE PUSH1 0x15 PUSH1 0x24 DUP3 ADD MSTORE PUSH32 0x533A53453A2073746174206D757374203D206563720000000000000000000000 PUSH1 0x44 DUP3 ADD MSTORE SWAP1 MLOAD SWAP1 DUP2 SWAP1 SUB PUSH1 0x64 ADD SWAP1 REVERT JUMPDEST DUP1 MLOAD PUSH2 0x1709 SWAP1 PUSH2 0x40AE JUMP JUMPDEST PUSH1 0xFF AND ISZERO PUSH2 0x175E JUMPI PUSH1 0x40 DUP1 MLOAD PUSH3 0x461BCD PUSH1 0xE5 SHL DUP2 MSTORE PUSH1 0x20 PUSH1 0x4 DUP3 ADD MSTORE PUSH1 0xF PUSH1 0x24 DUP3 ADD MSTORE PUSH32 0x533A4D49323A4C2F532061737365740000000000000000000000000000000000 PUSH1 0x44 DUP3 ADD MSTORE SWAP1 MLOAD SWAP1 DUP2 SWAP1 SUB PUSH1 0x64 ADD SWAP1 REVERT JUMPDEST DUP1 MLOAD PUSH2 0x1769 SWAP1 PUSH2 0x408A JUMP JUMPDEST PUSH1 0xFF AND ISZERO PUSH2 0x17BE JUMPI PUSH1 0x40 DUP1 MLOAD PUSH3 0x461BCD PUSH1 0xE5 SHL DUP2 MSTORE PUSH1 0x20 PUSH1 0x4 DUP3 ADD MSTORE PUSH1 0x12 PUSH1 0x24 DUP3 ADD MSTORE PUSH32 0x533A4D49323A2054786672642061737365740000000000000000000000000000 PUSH1 0x44 DUP3 ADD MSTORE SWAP1 MLOAD SWAP1 DUP2 SWAP1 SUB PUSH1 0x64 ADD SWAP1 REVERT JUMPDEST DUP4 PUSH1 0xFF AND PUSH1 0x3C EQ ISZERO PUSH2 0x17D4 JUMPI PUSH1 0x0 NOT PUSH2 0x100 DUP3 ADD MSTORE JUMPDEST PUSH1 0xFF SWAP4 DUP5 AND DUP2 MSTORE PUSH1 0x0 SWAP5 DUP6 MSTORE PUSH1 0x6 PUSH1 0x20 SWAP1 DUP2 MSTORE PUSH1 0x40 SWAP6 DUP7 SWAP1 KECCAK256 DUP3 MLOAD DUP2 SLOAD SWAP3 DUP5 ADD MLOAD SWAP8 DUP5 ADD MLOAD PUSH1 0x60 DUP6 ADD MLOAD PUSH1 0x80 DUP7 ADD MLOAD PUSH1 0xA0 DUP8 ADD MLOAD PUSH1 0xFF NOT SWAP1 SWAP7 AND SWAP4 DUP11 AND SWAP4 SWAP1 SWAP4 OR PUSH2 0xFF00 NOT AND PUSH2 0x100 SWAP11 SWAP1 SWAP10 AND DUP11 MUL SWAP9 SWAP1 SWAP9 OR PUSH4 0xFFFF0000 NOT AND PUSH3 0x10000 PUSH2 0xFFFF SWAP1 SWAP3 AND SWAP2 SWAP1 SWAP2 MUL OR PUSH8 0xFFFFFFFF00000000 NOT AND PUSH5 0x100000000 PUSH4 0xFFFFFFFF SWAP9 DUP10 AND MUL OR PUSH12 0xFFFFFFFF0000000000000000 NOT AND PUSH1 0x1 PUSH1 0x40 SHL SWAP2 DUP9 AND SWAP2 SWAP1 SWAP2 MUL OR PUSH16 0xFFFFFFFF000000000000000000000000 NOT AND PUSH1 0x1 PUSH1 0x60 SHL SWAP7 SWAP1 SWAP3 AND SWAP6 SWAP1 SWAP6 MUL OR DUP5 SSTORE PUSH1 0xC0 DUP2 ADD MLOAD PUSH1 0x1 DUP1 DUP7 ADD SWAP2 SWAP1 SWAP2 SSTORE PUSH1 0xE0 DUP3 ADD MLOAD PUSH1 0x2 DUP7 ADD SSTORE SWAP5 ADD MLOAD PUSH1 0x3 SWAP1 SWAP4 ADD SWAP3 SWAP1 SWAP3 SSTORE POP POP DUP1 SSTORE JUMP JUMPDEST PUSH1 0x2 SLOAD PUSH1 0xFF AND SWAP1 JUMP JUMPDEST PUSH1 0x2 PUSH1 0x1 SLOAD EQ ISZERO PUSH2 0x1922 JUMPI PUSH1 0x40 DUP1 MLOAD PUSH3 0x461BCD PUSH1 0xE5 SHL DUP2 MSTORE PUSH1 0x20 PUSH1 0x4 DUP3 ADD MSTORE PUSH1 0x1F PUSH1 0x24 DUP3 ADD MSTORE PUSH32 0x5265656E7472616E637947756172643A207265656E7472616E742063616C6C00 PUSH1 0x44 DUP3 ADD MSTORE SWAP1 MLOAD SWAP1 DUP2 SWAP1 SUB PUSH1 0x64 ADD SWAP1 REVERT JUMPDEST PUSH1 0x2 PUSH1 0x1 DUP2 SWAP1 SSTORE SLOAD PUSH1 0xFF AND ISZERO PUSH2 0x1972 JUMPI PUSH1 0x40 DUP1 MLOAD PUSH3 0x461BCD PUSH1 0xE5 SHL DUP2 MSTORE PUSH1 0x20 PUSH1 0x4 DUP3 ADD MSTORE PUSH1 0x10 PUSH1 0x24 DUP3 ADD MSTORE PUSH16 0x14185D5CD8589B194E881C185D5CD959 PUSH1 0x82 SHL PUSH1 0x44 DUP3 ADD MSTORE SWAP1 MLOAD SWAP1 DUP2 SWAP1 SUB PUSH1 0x64 ADD SWAP1 REVERT JUMPDEST PUSH1 0x0 DUP3 DUP2 MSTORE PUSH1 0x6 PUSH1 0x20 MSTORE PUSH1 0x40 SWAP1 KECCAK256 SLOAD DUP3 SWAP1 PUSH5 0x100000000 SWAP1 DIV PUSH4 0xFFFFFFFF AND PUSH2 0x19E2 JUMPI PUSH1 0x40 DUP1 MLOAD PUSH3 0x461BCD PUSH1 0xE5 SHL DUP2 MSTORE PUSH1 0x20 PUSH1 0x4 DUP3 ADD MSTORE PUSH1 0x1A PUSH1 0x24 DUP3 ADD MSTORE PUSH32 0x533A4D4F442D453A72656320646F6573206E6F74206578697374000000000000 PUSH1 0x44 DUP3 ADD MSTORE SWAP1 MLOAD SWAP1 DUP2 SWAP1 SUB PUSH1 0x64 ADD SWAP1 REVERT JUMPDEST PUSH1 0x0 DUP4 DUP2 MSTORE PUSH1 0x6 PUSH1 0x20 MSTORE PUSH1 0x40 SWAP1 KECCAK256 SLOAD DUP4 SWAP1 PUSH2 0x19FF SWAP1 PUSH1 0xFF AND PUSH2 0x403B JUMP JUMPDEST PUSH1 0xFF AND ISZERO PUSH2 0x1A54 JUMPI PUSH1 0x40 DUP1 MLOAD PUSH3 0x461BCD PUSH1 0xE5 SHL DUP2 MSTORE PUSH1 0x20 PUSH1 0x4 DUP3 ADD MSTORE PUSH1 0x1A PUSH1 0x24 DUP3 ADD MSTORE PUSH32 0x533A4D4F442D4E453A726563206C6F636B656420696E20656372000000000000 PUSH1 0x44 DUP3 ADD MSTORE SWAP1 MLOAD SWAP1 DUP2 SWAP1 SUB PUSH1 0x64 ADD SWAP1 REVERT JUMPDEST PUSH1 0x0 DUP1 PUSH1 0x3 PUSH1 0x4 PUSH1 0x0 CALLER PUSH1 0x1 PUSH1 0x1 PUSH1 0xA0 SHL SUB AND PUSH1 0x1 PUSH1 0x1 PUSH1 0xA0 SHL SUB AND DUP2 MSTORE PUSH1 0x20 ADD SWAP1 DUP2 MSTORE PUSH1 0x20 ADD PUSH1 0x0 KECCAK256 PUSH1 0x40 MLOAD DUP1 DUP3 DUP1 SLOAD PUSH1 0x1 DUP2 PUSH1 0x1 AND ISZERO PUSH2 0x100 MUL SUB AND PUSH1 0x2 SWAP1 DIV DUP1 ISZERO PUSH2 0x1AD9 JUMPI DUP1 PUSH1 0x1F LT PUSH2 0x1AB7 JUMPI PUSH2 0x100 DUP1 DUP4 SLOAD DIV MUL DUP4 MSTORE SWAP2 DUP3 ADD SWAP2 PUSH2 0x1AD9 JUMP JUMPDEST DUP3 ADD SWAP2 SWAP1 PUSH1 0x0 MSTORE PUSH1 0x20 PUSH1 0x0 KECCAK256 SWAP1 JUMPDEST DUP2 SLOAD DUP2 MSTORE SWAP1 PUSH1 0x1 ADD SWAP1 PUSH1 0x20 ADD DUP1 DUP4 GT PUSH2 0x1AC5 JUMPI JUMPDEST POP POP SWAP3 DUP4 MSTORE POP POP PUSH1 0x40 DUP1 MLOAD PUSH1 0x20 SWAP3 DUP2 SWAP1 SUB DUP4 ADD SWAP1 KECCAK256 PUSH4 0xFFFFFFFF DUP6 AND PUSH1 0x0 SWAP1 DUP2 MSTORE SWAP3 MSTORE SWAP1 KECCAK256 SLOAD PUSH1 0xFF AND SWAP1 POP DUP1 ISZERO DUP1 ISZERO SWAP1 PUSH2 0x1B16 JUMPI POP PUSH1 0x5 DUP2 PUSH1 0xFF AND LT JUMPDEST DUP1 PUSH2 0x1B24 JUMPI POP DUP1 PUSH1 0xFF AND PUSH1 0xA EQ JUMPDEST PUSH2 0x1B75 JUMPI PUSH1 0x40 DUP1 MLOAD PUSH3 0x461BCD PUSH1 0xE5 SHL DUP2 MSTORE PUSH1 0x20 PUSH1 0x4 DUP3 ADD DUP2 SWAP1 MSTORE PUSH1 0x24 DUP3 ADD MSTORE PUSH32 0x533A4D4F442D49413A436F6E7472616374206E6F7420617574686F72697A6564 PUSH1 0x44 DUP3 ADD MSTORE SWAP1 MLOAD SWAP1 DUP2 SWAP1 SUB PUSH1 0x64 ADD SWAP1 REVERT JUMPDEST PUSH2 0x1B7D PUSH2 0x433C JUMP JUMPDEST POP PUSH1 0x0 DUP7 DUP2 MSTORE PUSH1 0x6 PUSH1 0x20 SWAP1 DUP2 MSTORE PUSH1 0x40 SWAP2 DUP3 SWAP1 KECCAK256 DUP3 MLOAD PUSH2 0x120 DUP2 ADD DUP5 MSTORE DUP2 SLOAD PUSH1 0xFF DUP1 DUP3 AND DUP4 MSTORE PUSH2 0x100 DUP1 DUP4 DIV SWAP1 SWAP2 AND SWAP5 DUP4 ADD SWAP5 SWAP1 SWAP5 MSTORE PUSH2 0xFFFF PUSH3 0x10000 DUP3 DIV AND SWAP5 DUP3 ADD SWAP5 SWAP1 SWAP5 MSTORE PUSH4 0xFFFFFFFF PUSH5 0x100000000 DUP6 DIV DUP2 AND PUSH1 0x60 DUP4 ADD MSTORE PUSH1 0x1 PUSH1 0x40 SHL DUP6 DIV DUP2 AND PUSH1 0x80 DUP4 ADD MSTORE PUSH1 0x1 PUSH1 0x60 SHL SWAP1 SWAP5 DIV DUP5 AND PUSH1 0xA0 DUP3 ADD MSTORE PUSH1 0x1 DUP3 ADD SLOAD PUSH1 0xC0 DUP3 ADD MSTORE PUSH1 0x2 DUP3 ADD SLOAD PUSH1 0xE0 DUP3 ADD MSTORE PUSH1 0x3 SWAP1 SWAP2 ADD SLOAD SWAP2 DUP2 ADD SWAP2 SWAP1 SWAP2 MSTORE SWAP1 DUP7 AND PUSH2 0x1C69 JUMPI PUSH1 0x40 DUP1 MLOAD PUSH3 0x461BCD PUSH1 0xE5 SHL DUP2 MSTORE PUSH1 0x20 PUSH1 0x4 DUP3 ADD MSTORE PUSH1 0x15 PUSH1 0x24 DUP3 ADD MSTORE PUSH32 0x533A4341433A43616E6E6F74207365742041432D300000000000000000000000 PUSH1 0x44 DUP3 ADD MSTORE SWAP1 MLOAD SWAP1 DUP2 SWAP1 SUB PUSH1 0x64 ADD SWAP1 REVERT JUMPDEST PUSH1 0xA SLOAD PUSH1 0x60 DUP3 ADD MLOAD PUSH1 0x40 DUP1 MLOAD PUSH32 0x9852FDEB00000000000000000000000000000000000000000000000000000000 DUP2 MSTORE PUSH4 0xFFFFFFFF DUP1 DUP12 AND PUSH1 0x4 DUP4 ADD MSTORE SWAP1 SWAP3 AND PUSH1 0x24 DUP4 ADD MSTORE MLOAD PUSH1 0x1 PUSH1 0x1 PUSH1 0xA0 SHL SUB SWAP1 SWAP3 AND SWAP2 PUSH4 0x9852FDEB SWAP2 PUSH1 0x44 DUP1 DUP3 ADD SWAP3 PUSH1 0x20 SWAP3 SWAP1 SWAP2 SWAP1 DUP3 SWAP1 SUB ADD DUP2 DUP7 DUP1 EXTCODESIZE ISZERO DUP1 ISZERO PUSH2 0x1CE0 JUMPI PUSH1 0x0 DUP1 REVERT JUMPDEST POP GAS STATICCALL ISZERO DUP1 ISZERO PUSH2 0x1CF4 JUMPI RETURNDATASIZE PUSH1 0x0 DUP1 RETURNDATACOPY RETURNDATASIZE PUSH1 0x0 REVERT JUMPDEST POP POP POP POP PUSH1 0x40 MLOAD RETURNDATASIZE PUSH1 0x20 DUP2 LT ISZERO PUSH2 0x1D0A JUMPI PUSH1 0x0 DUP1 REVERT JUMPDEST POP MLOAD PUSH1 0xFF AND PUSH1 0xAA EQ PUSH2 0x1D63 JUMPI PUSH1 0x40 DUP1 MLOAD PUSH3 0x461BCD PUSH1 0xE5 SHL DUP2 MSTORE PUSH1 0x20 PUSH1 0x4 DUP3 ADD MSTORE PUSH1 0x1F PUSH1 0x24 DUP3 ADD MSTORE PUSH32 0x533A4341433A43616E6E6F74206D6F6420414320746F206E657720726F6F7400 PUSH1 0x44 DUP3 ADD MSTORE SWAP1 MLOAD SWAP1 DUP2 SWAP1 SUB PUSH1 0x64 ADD SWAP1 REVERT JUMPDEST DUP1 MLOAD PUSH2 0x1D6E SWAP1 PUSH2 0x40AE JUMP JUMPDEST PUSH1 0xFF AND ISZERO PUSH2 0x1DC3 JUMPI PUSH1 0x40 DUP1 MLOAD PUSH3 0x461BCD PUSH1 0xE5 SHL DUP2 MSTORE PUSH1 0x20 PUSH1 0x4 DUP3 ADD MSTORE PUSH1 0xF PUSH1 0x24 DUP3 ADD MSTORE PUSH32 0x533A4341433A4C2F532061737365740000000000000000000000000000000000 PUSH1 0x44 DUP3 ADD MSTORE SWAP1 MLOAD SWAP1 DUP2 SWAP1 SUB PUSH1 0x64 ADD SWAP1 REVERT JUMPDEST DUP1 MLOAD PUSH2 0x1DCE SWAP1 PUSH2 0x408A JUMP JUMPDEST PUSH1 0xFF AND ISZERO PUSH2 0x1E23 JUMPI PUSH1 0x40 DUP1 MLOAD PUSH3 0x461BCD PUSH1 0xE5 SHL DUP2 MSTORE PUSH1 0x20 PUSH1 0x4 DUP3 ADD MSTORE PUSH1 0x11 PUSH1 0x24 DUP3 ADD MSTORE PUSH32 0x533A4341433A5478667264206173736574000000000000000000000000000000 PUSH1 0x44 DUP3 ADD MSTORE SWAP1 MLOAD SWAP1 DUP2 SWAP1 SUB PUSH1 0x64 ADD SWAP1 REVERT JUMPDEST DUP6 DUP2 PUSH1 0x60 ADD SWAP1 PUSH4 0xFFFFFFFF AND SWAP1 DUP2 PUSH4 0xFFFFFFFF AND DUP2 MSTORE POP POP DUP1 PUSH1 0x6 PUSH1 0x0 DUP10 DUP2 MSTORE PUSH1 0x20 ADD SWAP1 DUP2 MSTORE PUSH1 0x20 ADD PUSH1 0x0 KECCAK256 PUSH1 0x0 DUP3 ADD MLOAD DUP2 PUSH1 0x0 ADD PUSH1 0x0 PUSH2 0x100 EXP DUP2 SLOAD DUP2 PUSH1 0xFF MUL NOT AND SWAP1 DUP4 PUSH1 0xFF AND MUL OR SWAP1 SSTORE POP PUSH1 0x20 DUP3 ADD MLOAD DUP2 PUSH1 0x0 ADD PUSH1 0x1 PUSH2 0x100 EXP DUP2 SLOAD DUP2 PUSH1 0xFF MUL NOT AND SWAP1 DUP4 PUSH1 0xFF AND MUL OR SWAP1 SSTORE POP PUSH1 0x40 DUP3 ADD MLOAD DUP2 PUSH1 0x0 ADD PUSH1 0x2 PUSH2 0x100 EXP DUP2 SLOAD DUP2 PUSH2 0xFFFF MUL NOT AND SWAP1 DUP4 PUSH2 0xFFFF AND MUL OR SWAP1 SSTORE POP PUSH1 0x60 DUP3 ADD MLOAD DUP2 PUSH1 0x0 ADD PUSH1 0x4 PUSH2 0x100 EXP DUP2 SLOAD DUP2 PUSH4 0xFFFFFFFF MUL NOT AND SWAP1 DUP4 PUSH4 0xFFFFFFFF AND MUL OR SWAP1 SSTORE POP PUSH1 0x80 DUP3 ADD MLOAD DUP2 PUSH1 0x0 ADD PUSH1 0x8 PUSH2 0x100 EXP DUP2 SLOAD DUP2 PUSH4 0xFFFFFFFF MUL NOT AND SWAP1 DUP4 PUSH4 0xFFFFFFFF AND MUL OR SWAP1 SSTORE POP PUSH1 0xA0 DUP3 ADD MLOAD DUP2 PUSH1 0x0 ADD PUSH1 0xC PUSH2 0x100 EXP DUP2 SLOAD DUP2 PUSH4 0xFFFFFFFF MUL NOT AND SWAP1 DUP4 PUSH4 0xFFFFFFFF AND MUL OR SWAP1 SSTORE POP PUSH1 0xC0 DUP3 ADD MLOAD DUP2 PUSH1 0x1 ADD SSTORE PUSH1 0xE0 DUP3 ADD MLOAD DUP2 PUSH1 0x2 ADD SSTORE PUSH2 0x100 DUP3 ADD MLOAD DUP2 PUSH1 0x3 ADD SSTORE SWAP1 POP POP POP POP POP POP POP PUSH1 0x1 DUP1 DUP2 SWAP1 SSTORE POP POP POP JUMP JUMPDEST PUSH1 0x2 PUSH1 0x1 SLOAD EQ ISZERO PUSH2 0x1FB3 JUMPI PUSH1 0x40 DUP1 MLOAD PUSH3 0x461BCD PUSH1 0xE5 SHL DUP2 MSTORE PUSH1 0x20 PUSH1 0x4 DUP3 ADD MSTORE PUSH1 0x1F PUSH1 0x24 DUP3 ADD MSTORE PUSH32 0x5265656E7472616E637947756172643A207265656E7472616E742063616C6C00 PUSH1 0x44 DUP3 ADD MSTORE SWAP1 MLOAD SWAP1 DUP2 SWAP1 SUB PUSH1 0x64 ADD SWAP1 REVERT JUMPDEST PUSH1 0x2 PUSH1 0x1 DUP2 SWAP1 SSTORE SLOAD PUSH1 0xFF AND ISZERO PUSH2 0x2003 JUMPI PUSH1 0x40 DUP1 MLOAD PUSH3 0x461BCD PUSH1 0xE5 SHL DUP2 MSTORE PUSH1 0x20 PUSH1 0x4 DUP3 ADD MSTORE PUSH1 0x10 PUSH1 0x24 DUP3 ADD MSTORE PUSH16 0x14185D5CD8589B194E881C185D5CD959 PUSH1 0x82 SHL PUSH1 0x44 DUP3 ADD MSTORE SWAP1 MLOAD SWAP1 DUP2 SWAP1 SUB PUSH1 0x64 ADD SWAP1 REVERT JUMPDEST PUSH1 0x0 DUP7 DUP2 MSTORE PUSH1 0x6 PUSH1 0x20 MSTORE PUSH1 0x40 SWAP1 KECCAK256 SLOAD DUP7 SWAP1 PUSH5 0x100000000 SWAP1 DIV PUSH4 0xFFFFFFFF AND PUSH2 0x2073 JUMPI PUSH1 0x40 DUP1 MLOAD PUSH3 0x461BCD PUSH1 0xE5 SHL DUP2 MSTORE PUSH1 0x20 PUSH1 0x4 DUP3 ADD MSTORE PUSH1 0x1A PUSH1 0x24 DUP3 ADD MSTORE PUSH32 0x533A4D4F442D453A72656320646F6573206E6F74206578697374000000000000 PUSH1 0x44 DUP3 ADD MSTORE SWAP1 MLOAD SWAP1 DUP2 SWAP1 SUB PUSH1 0x64 ADD SWAP1 REVERT JUMPDEST PUSH1 0x0 DUP8 DUP2 MSTORE PUSH1 0x6 PUSH1 0x20 SWAP1 DUP2 MSTORE PUSH1 0x40 DUP1 DUP4 KECCAK256 SLOAD CALLER DUP5 MSTORE PUSH1 0x4 SWAP1 SWAP3 MSTORE DUP1 DUP4 KECCAK256 SWAP1 MLOAD DUP2 SLOAD PUSH5 0x100000000 SWAP1 SWAP4 DIV PUSH4 0xFFFFFFFF AND SWAP4 SWAP3 PUSH1 0x3 SWAP3 SWAP2 SWAP1 DUP2 SWAP1 DUP4 SWAP1 PUSH1 0x2 PUSH2 0x100 PUSH1 0x1 DUP4 AND ISZERO MUL PUSH1 0x0 NOT ADD SWAP1 SWAP2 AND DIV DUP1 ISZERO PUSH2 0x2104 JUMPI DUP1 PUSH1 0x1F LT PUSH2 0x20E2 JUMPI PUSH2 0x100 DUP1 DUP4 SLOAD DIV MUL DUP4 MSTORE SWAP2 DUP3 ADD SWAP2 PUSH2 0x2104 JUMP JUMPDEST DUP3 ADD SWAP2 SWAP1 PUSH1 0x0 MSTORE PUSH1 0x20 PUSH1 0x0 KECCAK256 SWAP1 JUMPDEST DUP2 SLOAD DUP2 MSTORE SWAP1 PUSH1 0x1 ADD SWAP1 PUSH1 0x20 ADD DUP1 DUP4 GT PUSH2 0x20F0 JUMPI JUMPDEST POP POP SWAP3 DUP4 MSTORE POP POP PUSH1 0x40 DUP1 MLOAD PUSH1 0x20 SWAP3 DUP2 SWAP1 SUB DUP4 ADD SWAP1 KECCAK256 PUSH4 0xFFFFFFFF DUP6 AND PUSH1 0x0 SWAP1 DUP2 MSTORE SWAP3 MSTORE SWAP1 KECCAK256 SLOAD PUSH1 0xFF AND SWAP1 POP DUP1 ISZERO DUP1 ISZERO SWAP1 PUSH2 0x2141 JUMPI POP PUSH1 0x5 DUP2 PUSH1 0xFF AND LT JUMPDEST DUP1 PUSH2 0x214F JUMPI POP DUP1 PUSH1 0xFF AND PUSH1 0xA EQ JUMPDEST PUSH2 0x21A0 JUMPI PUSH1 0x40 DUP1 MLOAD PUSH3 0x461BCD PUSH1 0xE5 SHL DUP2 MSTORE PUSH1 0x20 PUSH1 0x4 DUP3 ADD DUP2 SWAP1 MSTORE PUSH1 0x24 DUP3 ADD MSTORE PUSH32 0x533A4D4F442D49413A436F6E7472616374206E6F7420617574686F72697A6564 PUSH1 0x44 DUP3 ADD MSTORE SWAP1 MLOAD SWAP1 DUP2 SWAP1 SUB PUSH1 0x64 ADD SWAP1 REVERT JUMPDEST PUSH1 0x0 DUP10 DUP2 MSTORE PUSH1 0x6 PUSH1 0x20 MSTORE PUSH1 0x40 SWAP1 KECCAK256 SLOAD DUP10 SWAP1 PUSH2 0x21BD SWAP1 PUSH1 0xFF AND PUSH2 0x403B JUMP JUMPDEST PUSH1 0xFF AND ISZERO PUSH2 0x2212 JUMPI PUSH1 0x40 DUP1 MLOAD PUSH3 0x461BCD PUSH1 0xE5 SHL DUP2 MSTORE PUSH1 0x20 PUSH1 0x4 DUP3 ADD MSTORE PUSH1 0x1A PUSH1 0x24 DUP3 ADD MSTORE PUSH32 0x533A4D4F442D4E453A726563206C6F636B656420696E20656372000000000000 PUSH1 0x44 DUP3 ADD MSTORE SWAP1 MLOAD SWAP1 DUP2 SWAP1 SUB PUSH1 0x64 ADD SWAP1 REVERT JUMPDEST PUSH2 0x221A PUSH2 0x433C JUMP JUMPDEST POP PUSH1 0x0 DUP11 DUP2 MSTORE PUSH1 0x6 PUSH1 0x20 SWAP1 DUP2 MSTORE PUSH1 0x40 SWAP2 DUP3 SWAP1 KECCAK256 DUP3 MLOAD PUSH2 0x120 DUP2 ADD DUP5 MSTORE DUP2 SLOAD PUSH1 0xFF DUP1 DUP3 AND DUP4 MSTORE PUSH2 0x100 DUP1 DUP4 DIV SWAP1 SWAP2 AND SWAP5 DUP4 ADD SWAP5 SWAP1 SWAP5 MSTORE PUSH2 0xFFFF PUSH3 0x10000 DUP3 DIV AND SWAP5 DUP3 ADD SWAP5 SWAP1 SWAP5 MSTORE PUSH4 0xFFFFFFFF PUSH5 0x100000000 DUP6 DIV DUP2 AND PUSH1 0x60 DUP4 ADD MSTORE PUSH1 0x1 PUSH1 0x40 SHL DUP6 DIV DUP2 AND PUSH1 0x80 DUP4 ADD DUP2 SWAP1 MSTORE PUSH1 0x1 PUSH1 0x60 SHL SWAP1 SWAP6 DIV DUP2 AND PUSH1 0xA0 DUP4 ADD MSTORE PUSH1 0x1 DUP4 ADD SLOAD PUSH1 0xC0 DUP4 ADD MSTORE PUSH1 0x2 DUP4 ADD SLOAD PUSH1 0xE0 DUP4 ADD MSTORE PUSH1 0x3 SWAP1 SWAP3 ADD SLOAD SWAP3 DUP2 ADD SWAP3 SWAP1 SWAP3 MSTORE SWAP1 SWAP2 DUP13 SWAP2 DUP11 AND GT ISZERO PUSH2 0x230D JUMPI PUSH1 0x40 DUP1 MLOAD PUSH3 0x461BCD PUSH1 0xE5 SHL DUP2 MSTORE PUSH1 0x20 PUSH1 0x4 DUP3 ADD MSTORE PUSH1 0x11 PUSH1 0x24 DUP3 ADD MSTORE PUSH32 0x533A4D523A636F756E74446F776E202B21000000000000000000000000000000 PUSH1 0x44 DUP3 ADD MSTORE SWAP1 MLOAD SWAP1 DUP2 SWAP1 SUB PUSH1 0x64 ADD SWAP1 REVERT JUMPDEST PUSH2 0x2316 DUP11 PUSH2 0x40AE JUMP JUMPDEST PUSH1 0xFF AND ISZERO PUSH2 0x236B JUMPI PUSH1 0x40 DUP1 MLOAD PUSH3 0x461BCD PUSH1 0xE5 SHL DUP2 MSTORE PUSH1 0x20 PUSH1 0x4 DUP3 ADD MSTORE PUSH1 0x11 PUSH1 0x24 DUP3 ADD MSTORE PUSH32 0x533A4D523A4D75737420757365204C2F53000000000000000000000000000000 PUSH1 0x44 DUP3 ADD MSTORE SWAP1 MLOAD SWAP1 DUP2 SWAP1 SUB PUSH1 0x64 ADD SWAP1 REVERT JUMPDEST PUSH2 0x2374 DUP11 PUSH2 0x403B JUMP JUMPDEST PUSH1 0xFF AND ISZERO PUSH2 0x23C9 JUMPI PUSH1 0x40 DUP1 MLOAD PUSH3 0x461BCD PUSH1 0xE5 SHL DUP2 MSTORE PUSH1 0x20 PUSH1 0x4 DUP3 ADD MSTORE PUSH1 0x11 PUSH1 0x24 DUP3 ADD MSTORE PUSH32 0x533A4D523A4D7573742075736520454352000000000000000000000000000000 PUSH1 0x44 DUP3 ADD MSTORE SWAP1 MLOAD SWAP1 DUP2 SWAP1 SUB PUSH1 0x64 ADD SWAP1 REVERT JUMPDEST DUP11 PUSH2 0x241B JUMPI PUSH1 0x40 DUP1 MLOAD PUSH3 0x461BCD PUSH1 0xE5 SHL DUP2 MSTORE PUSH1 0x20 PUSH1 0x4 DUP3 ADD MSTORE PUSH1 0x11 PUSH1 0x24 DUP3 ADD MSTORE PUSH32 0x533A4D523A2072677448617368203D2030000000000000000000000000000000 PUSH1 0x44 DUP3 ADD MSTORE SWAP1 MLOAD SWAP1 DUP2 SWAP1 SUB PUSH1 0x64 ADD SWAP1 REVERT JUMPDEST PUSH2 0x100 DUP3 ADD DUP12 SWAP1 MSTORE PUSH4 0xFFFFFFFF DUP10 AND PUSH1 0x80 DUP4 ADD MSTORE PUSH1 0xFF DUP11 AND DUP3 MSTORE PUSH1 0xAA DUP9 EQ DUP1 ISZERO PUSH2 0x244C JUMPI POP PUSH1 0xFF DUP3 PUSH1 0x20 ADD MLOAD PUSH1 0xFF AND LT JUMPDEST ISZERO PUSH2 0x2460 JUMPI PUSH1 0x20 DUP3 ADD DUP1 MLOAD PUSH1 0x1 ADD PUSH1 0xFF AND SWAP1 MSTORE JUMPDEST DUP7 PUSH1 0xAA EQ DUP1 ISZERO PUSH2 0x2479 JUMPI POP PUSH2 0xFFFF DUP3 PUSH1 0x40 ADD MLOAD PUSH2 0xFFFF AND LT JUMPDEST ISZERO PUSH2 0x248E JUMPI PUSH1 0x40 DUP3 ADD DUP1 MLOAD PUSH1 0x1 ADD PUSH2 0xFFFF AND SWAP1 MSTORE JUMPDEST PUSH1 0x0 SWAP1 DUP2 MSTORE PUSH1 0x6 PUSH1 0x20 SWAP1 DUP2 MSTORE PUSH1 0x40 SWAP2 DUP3 SWAP1 KECCAK256 DUP4 MLOAD DUP2 SLOAD SWAP3 DUP6 ADD MLOAD SWAP4 DUP6 ADD MLOAD PUSH1 0x60 DUP7 ADD MLOAD PUSH1 0x80 DUP8 ADD MLOAD PUSH1 0xA0 DUP9 ADD MLOAD PUSH1 0xFF NOT SWAP1 SWAP7 AND PUSH1 0xFF SWAP5 DUP6 AND OR PUSH2 0xFF00 NOT AND PUSH2 0x100 SWAP5 SWAP1 SWAP8 AND DUP5 MUL SWAP7 SWAP1 SWAP7 OR PUSH4 0xFFFF0000 NOT AND PUSH3 0x10000 PUSH2 0xFFFF SWAP1 SWAP4 AND SWAP3 SWAP1 SWAP3 MUL SWAP2 SWAP1 SWAP2 OR PUSH8 0xFFFFFFFF00000000 NOT AND PUSH5 0x100000000 PUSH4 0xFFFFFFFF SWAP3 DUP4 AND MUL OR PUSH12 0xFFFFFFFF0000000000000000 NOT AND PUSH1 0x1 PUSH1 0x40 SHL SWAP6 DUP3 AND SWAP6 SWAP1 SWAP6 MUL SWAP5 SWAP1 SWAP5 OR PUSH16 0xFFFFFFFF000000000000000000000000 NOT AND PUSH1 0x1 PUSH1 0x60 SHL SWAP5 SWAP1 SWAP4 AND SWAP4 SWAP1 SWAP4 MUL SWAP2 SWAP1 SWAP2 OR DUP2 SSTORE PUSH1 0xC0 DUP4 ADD MLOAD PUSH1 0x1 DUP1 DUP4 ADD SWAP2 SWAP1 SWAP2 SSTORE PUSH1 0xE0 DUP5 ADD MLOAD PUSH1 0x2 DUP4 ADD SSTORE SWAP2 SWAP1 SWAP3 ADD MLOAD PUSH1 0x3 SWAP1 SWAP3 ADD SWAP2 SWAP1 SWAP2 SSTORE DUP1 SSTORE POP POP POP POP POP POP POP POP POP POP JUMP JUMPDEST PUSH1 0x0 DUP1 PUSH1 0x0 DUP1 PUSH1 0x0 DUP1 PUSH1 0x0 DUP1 PUSH2 0x259A PUSH2 0x433C JUMP JUMPDEST POP POP POP PUSH1 0x0 SWAP7 DUP8 MSTORE POP POP PUSH1 0x6 PUSH1 0x20 SWAP1 DUP2 MSTORE PUSH1 0x40 SWAP6 DUP7 SWAP1 KECCAK256 DUP7 MLOAD PUSH2 0x120 DUP2 ADD DUP9 MSTORE DUP2 SLOAD PUSH1 0xFF DUP1 DUP3 AND DUP1 DUP5 MSTORE PUSH2 0x100 DUP1 DUP5 DIV SWAP1 SWAP3 AND SWAP6 DUP5 ADD DUP7 SWAP1 MSTORE PUSH2 0xFFFF PUSH3 0x10000 DUP5 DIV AND SWAP11 DUP5 ADD DUP12 SWAP1 MSTORE PUSH4 0xFFFFFFFF PUSH5 0x100000000 DUP5 DIV DUP2 AND PUSH1 0x60 DUP7 ADD DUP2 SWAP1 MSTORE PUSH1 0x1 PUSH1 0x40 SHL DUP6 DIV DUP3 AND PUSH1 0x80 DUP8 ADD DUP2 SWAP1 MSTORE PUSH1 0x1 PUSH1 0x60 SHL SWAP1 SWAP6 DIV SWAP1 SWAP2 AND PUSH1 0xA0 DUP7 ADD DUP2 SWAP1 MSTORE PUSH1 0x1 DUP8 ADD SLOAD PUSH1 0xC0 DUP8 ADD DUP2 SWAP1 MSTORE PUSH1 0x2 DUP9 ADD SLOAD PUSH1 0xE0 DUP9 ADD DUP2 SWAP1 MSTORE PUSH1 0x3 SWAP1 SWAP9 ADD SLOAD SWAP5 SWAP1 SWAP7 ADD SWAP4 SWAP1 SWAP4 MSTORE SWAP1 SWAP12 SWAP6 SWAP11 SWAP1 SWAP10 POP SWAP2 SWAP8 POP SWAP6 POP SWAP1 SWAP4 POP SWAP1 SWAP2 JUMP JUMPDEST PUSH2 0x2680 PUSH32 0x2CE8D04A9C35987429AF538825CD2438CC5C5BB5DC427955F84DAAA3EA105016 PUSH2 0x7FC PUSH2 0x3EBE JUMP JUMPDEST PUSH2 0x26BB JUMPI PUSH1 0x40 MLOAD PUSH3 0x461BCD PUSH1 0xE5 SHL DUP2 MSTORE PUSH1 0x4 ADD DUP1 DUP1 PUSH1 0x20 ADD DUP3 DUP2 SUB DUP3 MSTORE PUSH1 0x26 DUP2 MSTORE PUSH1 0x20 ADD DUP1 PUSH2 0x446D PUSH1 0x26 SWAP2 CODECOPY PUSH1 0x40 ADD SWAP2 POP POP PUSH1 0x40 MLOAD DUP1 SWAP2 SUB SWAP1 REVERT JUMPDEST PUSH4 0xFFFFFFFF DUP3 AND ISZERO PUSH2 0x2714 JUMPI PUSH1 0x40 DUP1 MLOAD PUSH3 0x461BCD PUSH1 0xE5 SHL DUP2 MSTORE PUSH1 0x20 PUSH1 0x4 DUP3 ADD MSTORE PUSH1 0xE PUSH1 0x24 DUP3 ADD MSTORE PUSH32 0x533A41433A204143206E6F742030000000000000000000000000000000000000 PUSH1 0x44 DUP3 ADD MSTORE SWAP1 MLOAD SWAP1 DUP2 SWAP1 SUB PUSH1 0x64 ADD SWAP1 REVERT JUMPDEST DUP1 PUSH1 0x3 DUP7 DUP7 PUSH1 0x40 MLOAD DUP1 DUP4 DUP4 DUP1 DUP3 DUP5 CALLDATACOPY SWAP2 SWAP1 SWAP2 ADD SWAP5 DUP6 MSTORE POP POP PUSH1 0x40 DUP1 MLOAD PUSH1 0x20 SWAP5 DUP2 SWAP1 SUB DUP6 ADD DUP2 KECCAK256 PUSH4 0xFFFFFFFF DUP10 AND PUSH1 0x0 SWAP1 DUP2 MSTORE SWAP6 MSTORE SWAP4 KECCAK256 DUP1 SLOAD PUSH1 0xFF NOT AND PUSH1 0xFF SWAP6 SWAP1 SWAP6 AND SWAP5 SWAP1 SWAP5 OR SWAP1 SWAP4 SSTORE POP DUP5 SWAP2 POP PUSH1 0x5 SWAP1 DUP8 SWAP1 DUP8 SWAP1 DUP1 DUP4 DUP4 DUP1 DUP3 DUP5 CALLDATACOPY SWAP2 SWAP1 SWAP2 ADD SWAP5 DUP6 MSTORE POP POP PUSH1 0x40 DUP1 MLOAD PUSH1 0x20 SWAP5 DUP2 SWAP1 SUB DUP6 ADD SWAP1 KECCAK256 DUP1 SLOAD PUSH20 0xFFFFFFFFFFFFFFFFFFFFFFFFFFFFFFFFFFFFFFFF NOT AND PUSH1 0x1 PUSH1 0x1 PUSH1 0xA0 SHL SUB SWAP7 DUP8 AND OR SWAP1 SSTORE SWAP4 DUP8 AND PUSH1 0x0 SWAP1 DUP2 MSTORE PUSH1 0x4 SWAP1 SWAP4 MSTORE POP POP KECCAK256 PUSH2 0x27C8 SWAP1 DUP7 DUP7 PUSH2 0x4388 JUMP JUMPDEST POP PUSH1 0x40 DUP1 MLOAD PUSH32 0x41435F544B4E0000000000000000000000000000000000000000000000000000 DUP2 MSTORE PUSH1 0x5 PUSH1 0x6 DUP1 DUP4 ADD DUP3 SWAP1 MSTORE DUP4 MLOAD SWAP3 DUP4 SWAP1 SUB PUSH1 0x26 SWAP1 DUP2 ADD DUP5 KECCAK256 SLOAD PUSH1 0x8 DUP1 SLOAD PUSH20 0xFFFFFFFFFFFFFFFFFFFFFFFFFFFFFFFFFFFFFFFF NOT SWAP1 DUP2 AND PUSH1 0x1 PUSH1 0x1 PUSH1 0xA0 SHL SUB SWAP4 DUP5 AND OR SWAP1 SWAP2 SSTORE PUSH32 0x41435F4D47520000000000000000000000000000000000000000000000000000 DUP7 MSTORE SWAP3 DUP6 ADD SWAP4 SWAP1 SWAP4 MSTORE DUP5 MLOAD SWAP4 DUP5 SWAP1 SUB ADD DUP4 KECCAK256 SLOAD PUSH1 0xA DUP1 SLOAD SWAP1 SWAP3 AND SWAP3 AND SWAP2 SWAP1 SWAP2 OR SWAP1 SSTORE PUSH1 0xFF DUP4 AND PUSH1 0x20 DUP3 ADD MSTORE DUP2 DUP2 MSTORE PUSH1 0x4 DUP2 DUP4 ADD MSTORE PUSH4 0x41434441 PUSH1 0xE0 SHL PUSH1 0x60 DUP3 ADD MSTORE SWAP1 MLOAD PUSH32 0x7EE222C270BF2C8F2543EDE7193D45D48EAC904E416DC38E4604373D183EEFBB SWAP2 DUP2 SWAP1 SUB PUSH1 0x80 ADD SWAP1 LOG1 POP POP POP POP POP JUMP JUMPDEST PUSH2 0x28F5 PUSH32 0x65D7A28E3265B37A6474929F336521B332C1681B933F6CB9F3376673440D862A PUSH2 0x7FC PUSH2 0x3EBE JUMP JUMPDEST PUSH2 0x2946 JUMPI PUSH1 0x40 DUP1 MLOAD PUSH3 0x461BCD PUSH1 0xE5 SHL DUP2 MSTORE PUSH1 0x20 PUSH1 0x4 DUP3 ADD MSTORE PUSH1 0x1E PUSH1 0x24 DUP3 ADD MSTORE PUSH32 0x50414D3A4D4F443A206D7573742068617665205041555345525F524F4C450000 PUSH1 0x44 DUP3 ADD MSTORE SWAP1 MLOAD SWAP1 DUP2 SWAP1 SUB PUSH1 0x64 ADD SWAP1 REVERT JUMPDEST PUSH2 0xEAE PUSH2 0x40F2 JUMP JUMPDEST PUSH1 0x0 DUP3 DUP2 MSTORE PUSH1 0x6 PUSH1 0x20 MSTORE PUSH1 0x40 DUP2 KECCAK256 PUSH1 0x3 ADD SLOAD DUP3 EQ ISZERO PUSH2 0x29D5 JUMPI PUSH1 0x40 DUP1 MLOAD PUSH1 0x20 DUP2 ADD DUP6 SWAP1 MSTORE DUP2 DUP2 MSTORE PUSH1 0xF DUP2 DUP4 ADD MSTORE PUSH32 0x4D6174636820636F6E6669726D65640000000000000000000000000000000000 PUSH1 0x60 DUP3 ADD MSTORE SWAP1 MLOAD PUSH32 0x7EE222C270BF2C8F2543EDE7193D45D48EAC904E416DC38E4604373D183EEFBB SWAP2 DUP2 SWAP1 SUB PUSH1 0x80 ADD SWAP1 LOG1 POP PUSH1 0xAA PUSH2 0x2A3F JUMP JUMPDEST PUSH1 0x40 DUP1 MLOAD PUSH1 0x20 DUP2 ADD DUP6 SWAP1 MSTORE DUP2 DUP2 MSTORE PUSH1 0xE DUP2 DUP4 ADD MSTORE PUSH32 0x446F6573206E6F74206D61746368000000000000000000000000000000000000 PUSH1 0x60 DUP3 ADD MSTORE SWAP1 MLOAD PUSH32 0x7EE222C270BF2C8F2543EDE7193D45D48EAC904E416DC38E4604373D183EEFBB SWAP2 DUP2 SWAP1 SUB PUSH1 0x80 ADD SWAP1 LOG1 POP PUSH1 0x0 JUMPDEST SWAP3 SWAP2 POP POP JUMP JUMPDEST PUSH1 0x0 DUP3 DUP2 MSTORE PUSH1 0x20 DUP2 SWAP1 MSTORE PUSH1 0x40 DUP2 KECCAK256 PUSH2 0x2A5D SWAP1 DUP4 PUSH2 0x4173 JUMP JUMPDEST SWAP4 SWAP3 POP POP POP JUMP JUMPDEST PUSH1 0x0 DUP3 DUP2 MSTORE PUSH1 0x20 DUP2 SWAP1 MSTORE PUSH1 0x40 DUP2 KECCAK256 PUSH2 0x2A5D SWAP1 DUP4 PUSH2 0x417F JUMP JUMPDEST PUSH1 0x0 DUP2 JUMP JUMPDEST PUSH1 0x2 PUSH1 0x1 SLOAD EQ ISZERO PUSH2 0x2AD9 JUMPI PUSH1 0x40 DUP1 MLOAD PUSH3 0x461BCD PUSH1 0xE5 SHL DUP2 MSTORE PUSH1 0x20 PUSH1 0x4 DUP3 ADD MSTORE PUSH1 0x1F PUSH1 0x24 DUP3 ADD MSTORE PUSH32 0x5265656E7472616E637947756172643A207265656E7472616E742063616C6C00 PUSH1 0x44 DUP3 ADD MSTORE SWAP1 MLOAD SWAP1 DUP2 SWAP1 SUB PUSH1 0x64 ADD SWAP1 REVERT JUMPDEST PUSH1 0x2 PUSH1 0x1 DUP2 SWAP1 SSTORE SLOAD PUSH1 0xFF AND ISZERO PUSH2 0x2B29 JUMPI PUSH1 0x40 DUP1 MLOAD PUSH3 0x461BCD PUSH1 0xE5 SHL DUP2 MSTORE PUSH1 0x20 PUSH1 0x4 DUP3 ADD MSTORE PUSH1 0x10 PUSH1 0x24 DUP3 ADD MSTORE PUSH16 0x14185D5CD8589B194E881C185D5CD959 PUSH1 0x82 SHL PUSH1 0x44 DUP3 ADD MSTORE SWAP1 MLOAD SWAP1 DUP2 SWAP1 SUB PUSH1 0x64 ADD SWAP1 REVERT JUMPDEST PUSH1 0x0 DUP3 DUP2 MSTORE PUSH1 0x6 PUSH1 0x20 MSTORE PUSH1 0x40 SWAP1 KECCAK256 SLOAD DUP3 SWAP1 PUSH5 0x100000000 SWAP1 DIV PUSH4 0xFFFFFFFF AND PUSH2 0x2B99 JUMPI PUSH1 0x40 DUP1 MLOAD PUSH3 0x461BCD PUSH1 0xE5 SHL DUP2 MSTORE PUSH1 0x20 PUSH1 0x4 DUP3 ADD MSTORE PUSH1 0x1A PUSH1 0x24 DUP3 ADD MSTORE PUSH32 0x533A4D4F442D453A72656320646F6573206E6F74206578697374000000000000 PUSH1 0x44 DUP3 ADD MSTORE SWAP1 MLOAD SWAP1 DUP2 SWAP1 SUB PUSH1 0x64 ADD SWAP1 REVERT JUMPDEST PUSH1 0x0 DUP4 DUP2 MSTORE PUSH1 0x6 PUSH1 0x20 SWAP1 DUP2 MSTORE PUSH1 0x40 DUP1 DUP4 KECCAK256 SLOAD CALLER DUP5 MSTORE PUSH1 0x4 SWAP1 SWAP3 MSTORE DUP1 DUP4 KECCAK256 SWAP1 MLOAD DUP2 SLOAD PUSH5 0x100000000 SWAP1 SWAP4 DIV PUSH4 0xFFFFFFFF AND SWAP4 SWAP3 PUSH1 0x3 SWAP3 SWAP2 SWAP1 DUP2 SWAP1 DUP4 SWAP1 PUSH1 0x2 PUSH2 0x100 PUSH1 0x1 DUP4 AND ISZERO MUL PUSH1 0x0 NOT ADD SWAP1 SWAP2 AND DIV DUP1 ISZERO PUSH2 0x2C2A JUMPI DUP1 PUSH1 0x1F LT PUSH2 0x2C08 JUMPI PUSH2 0x100 DUP1 DUP4 SLOAD DIV MUL DUP4 MSTORE SWAP2 DUP3 ADD SWAP2 PUSH2 0x2C2A JUMP JUMPDEST DUP3 ADD SWAP2 SWAP1 PUSH1 0x0 MSTORE PUSH1 0x20 PUSH1 0x0 KECCAK256 SWAP1 JUMPDEST DUP2 SLOAD DUP2 MSTORE SWAP1 PUSH1 0x1 ADD SWAP1 PUSH1 0x20 ADD DUP1 DUP4 GT PUSH2 0x2C16 JUMPI JUMPDEST POP POP SWAP3 DUP4 MSTORE POP POP PUSH1 0x40 DUP1 MLOAD PUSH1 0x20 SWAP3 DUP2 SWAP1 SUB DUP4 ADD SWAP1 KECCAK256 PUSH4 0xFFFFFFFF DUP6 AND PUSH1 0x0 SWAP1 DUP2 MSTORE SWAP3 MSTORE SWAP1 KECCAK256 SLOAD PUSH1 0xFF AND SWAP1 POP DUP1 ISZERO DUP1 ISZERO SWAP1 PUSH2 0x2C67 JUMPI POP PUSH1 0x5 DUP2 PUSH1 0xFF AND LT JUMPDEST DUP1 PUSH2 0x2C75 JUMPI POP DUP1 PUSH1 0xFF AND PUSH1 0xA EQ JUMPDEST PUSH2 0x2CC6 JUMPI PUSH1 0x40 DUP1 MLOAD PUSH3 0x461BCD PUSH1 0xE5 SHL DUP2 MSTORE PUSH1 0x20 PUSH1 0x4 DUP3 ADD DUP2 SWAP1 MSTORE PUSH1 0x24 DUP3 ADD MSTORE PUSH32 0x533A4D4F442D49413A436F6E7472616374206E6F7420617574686F72697A6564 PUSH1 0x44 DUP3 ADD MSTORE SWAP1 MLOAD SWAP1 DUP2 SWAP1 SUB PUSH1 0x64 ADD SWAP1 REVERT JUMPDEST PUSH1 0x0 DUP6 DUP2 MSTORE PUSH1 0x6 PUSH1 0x20 MSTORE PUSH1 0x40 SWAP1 KECCAK256 SLOAD DUP6 SWAP1 PUSH2 0x2CE3 SWAP1 PUSH1 0xFF AND PUSH2 0x403B JUMP JUMPDEST PUSH1 0xFF AND ISZERO PUSH2 0x2D38 JUMPI PUSH1 0x40 DUP1 MLOAD PUSH3 0x461BCD PUSH1 0xE5 SHL DUP2 MSTORE PUSH1 0x20 PUSH1 0x4 DUP3 ADD MSTORE PUSH1 0x1A PUSH1 0x24 DUP3 ADD MSTORE PUSH32 0x533A4D4F442D4E453A726563206C6F636B656420696E20656372000000000000 PUSH1 0x44 DUP3 ADD MSTORE SWAP1 MLOAD SWAP1 DUP2 SWAP1 SUB PUSH1 0x64 ADD SWAP1 REVERT JUMPDEST PUSH2 0x2D40 PUSH2 0x433C JUMP JUMPDEST POP PUSH1 0x0 DUP7 DUP2 MSTORE PUSH1 0x6 PUSH1 0x20 SWAP1 DUP2 MSTORE PUSH1 0x40 SWAP2 DUP3 SWAP1 KECCAK256 DUP3 MLOAD PUSH2 0x120 DUP2 ADD DUP5 MSTORE DUP2 SLOAD PUSH1 0xFF DUP1 DUP3 AND DUP1 DUP5 MSTORE PUSH2 0x100 DUP1 DUP5 DIV SWAP1 SWAP3 AND SWAP6 DUP5 ADD SWAP6 SWAP1 SWAP6 MSTORE PUSH2 0xFFFF PUSH3 0x10000 DUP4 DIV AND SWAP6 DUP4 ADD SWAP6 SWAP1 SWAP6 MSTORE PUSH4 0xFFFFFFFF PUSH5 0x100000000 DUP3 DIV DUP2 AND PUSH1 0x60 DUP5 ADD MSTORE PUSH1 0x1 PUSH1 0x40 SHL DUP3 DIV DUP2 AND PUSH1 0x80 DUP5 ADD MSTORE PUSH1 0x1 PUSH1 0x60 SHL SWAP1 SWAP2 DIV AND PUSH1 0xA0 DUP3 ADD MSTORE PUSH1 0x1 DUP3 ADD SLOAD PUSH1 0xC0 DUP3 ADD MSTORE PUSH1 0x2 DUP3 ADD SLOAD PUSH1 0xE0 DUP3 ADD MSTORE PUSH1 0x3 SWAP1 SWAP2 ADD SLOAD SWAP3 DUP2 ADD SWAP3 SWAP1 SWAP3 MSTORE PUSH2 0x2DE1 SWAP1 PUSH2 0x40AE JUMP JUMPDEST PUSH1 0xFF AND ISZERO PUSH2 0x2E36 JUMPI PUSH1 0x40 DUP1 MLOAD PUSH3 0x461BCD PUSH1 0xE5 SHL DUP2 MSTORE PUSH1 0x20 PUSH1 0x4 DUP3 ADD MSTORE PUSH1 0xF PUSH1 0x24 DUP3 ADD MSTORE PUSH32 0x533A4D49323A4C2F532061737365740000000000000000000000000000000000 PUSH1 0x44 DUP3 ADD MSTORE SWAP1 MLOAD SWAP1 DUP2 SWAP1 SUB PUSH1 0x64 ADD SWAP1 REVERT JUMPDEST DUP1 MLOAD PUSH2 0x2E41 SWAP1 PUSH2 0x408A JUMP JUMPDEST PUSH1 0xFF AND ISZERO PUSH2 0x2E96 JUMPI PUSH1 0x40 DUP1 MLOAD PUSH3 0x461BCD PUSH1 0xE5 SHL DUP2 MSTORE PUSH1 0x20 PUSH1 0x4 DUP3 ADD MSTORE PUSH1 0x13 PUSH1 0x24 DUP3 ADD MSTORE PUSH32 0x533A4D49323A2054786672642E20617373657400000000000000000000000000 PUSH1 0x44 DUP3 ADD MSTORE SWAP1 MLOAD SWAP1 DUP2 SWAP1 SUB PUSH1 0x64 ADD SWAP1 REVERT JUMPDEST PUSH1 0xE0 DUP2 ADD MLOAD ISZERO PUSH2 0x2EED JUMPI PUSH1 0x40 DUP1 MLOAD PUSH3 0x461BCD PUSH1 0xE5 SHL DUP2 MSTORE PUSH1 0x20 PUSH1 0x4 DUP3 ADD MSTORE PUSH1 0x15 PUSH1 0x24 DUP3 ADD MSTORE PUSH32 0x533A4D49323A2021206F76657277726974652049320000000000000000000000 PUSH1 0x44 DUP3 ADD MSTORE SWAP1 MLOAD SWAP1 DUP2 SWAP1 SUB PUSH1 0x64 ADD SWAP1 REVERT JUMPDEST DUP6 DUP2 PUSH1 0xE0 ADD DUP2 DUP2 MSTORE POP POP DUP1 PUSH1 0x6 PUSH1 0x0 DUP10 DUP2 MSTORE PUSH1 0x20 ADD SWAP1 DUP2 MSTORE PUSH1 0x20 ADD PUSH1 0x0 KECCAK256 PUSH1 0x0 DUP3 ADD MLOAD DUP2 PUSH1 0x0 ADD PUSH1 0x0 PUSH2 0x100 EXP DUP2 SLOAD DUP2 PUSH1 0xFF MUL NOT AND SWAP1 DUP4 PUSH1 0xFF AND MUL OR SWAP1 SSTORE POP PUSH1 0x20 DUP3 ADD MLOAD DUP2 PUSH1 0x0 ADD PUSH1 0x1 PUSH2 0x100 EXP DUP2 SLOAD DUP2 PUSH1 0xFF MUL NOT AND SWAP1 DUP4 PUSH1 0xFF AND MUL OR SWAP1 SSTORE POP PUSH1 0x40 DUP3 ADD MLOAD DUP2 PUSH1 0x0 ADD PUSH1 0x2 PUSH2 0x100 EXP DUP2 SLOAD DUP2 PUSH2 0xFFFF MUL NOT AND SWAP1 DUP4 PUSH2 0xFFFF AND MUL OR SWAP1 SSTORE POP PUSH1 0x60 DUP3 ADD MLOAD DUP2 PUSH1 0x0 ADD PUSH1 0x4 PUSH2 0x100 EXP DUP2 SLOAD DUP2 PUSH4 0xFFFFFFFF MUL NOT AND SWAP1 DUP4 PUSH4 0xFFFFFFFF AND MUL OR SWAP1 SSTORE POP PUSH1 0x80 DUP3 ADD MLOAD DUP2 PUSH1 0x0 ADD PUSH1 0x8 PUSH2 0x100 EXP DUP2 SLOAD DUP2 PUSH4 0xFFFFFFFF MUL NOT AND SWAP1 DUP4 PUSH4 0xFFFFFFFF AND MUL OR SWAP1 SSTORE POP PUSH1 0xA0 DUP3 ADD MLOAD DUP2 PUSH1 0x0 ADD PUSH1 0xC PUSH2 0x100 EXP DUP2 SLOAD DUP2 PUSH4 0xFFFFFFFF MUL NOT AND SWAP1 DUP4 PUSH4 0xFFFFFFFF AND MUL OR SWAP1 SSTORE POP PUSH1 0xC0 DUP3 ADD MLOAD DUP2 PUSH1 0x1 ADD SSTORE PUSH1 0xE0 DUP3 ADD MLOAD DUP2 PUSH1 0x2 ADD SSTORE PUSH2 0x100 DUP3 ADD MLOAD DUP2 PUSH1 0x3 ADD SSTORE SWAP1 POP POP POP POP POP POP POP PUSH1 0x1 DUP1 DUP2 SWAP1 SSTORE POP POP POP JUMP JUMPDEST PUSH1 0x0 PUSH1 0x5 DUP4 DUP4 PUSH1 0x40 MLOAD DUP1 DUP4 DUP4 DUP1 DUP3 DUP5 CALLDATACOPY SWAP2 SWAP1 SWAP2 ADD SWAP5 DUP6 MSTORE POP POP PUSH1 0x40 MLOAD SWAP3 DUP4 SWAP1 SUB PUSH1 0x20 ADD SWAP1 SWAP3 KECCAK256 SLOAD PUSH1 0x1 PUSH1 0x1 PUSH1 0xA0 SHL SUB AND SWAP3 POP POP POP SWAP3 SWAP2 POP POP JUMP JUMPDEST PUSH1 0x0 DUP2 DUP2 MSTORE PUSH1 0x20 DUP2 SWAP1 MSTORE PUSH1 0x40 DUP2 KECCAK256 PUSH2 0x2A3F SWAP1 PUSH2 0x4194 JUMP JUMPDEST PUSH1 0x0 DUP3 DUP2 MSTORE PUSH1 0x6 PUSH1 0x20 MSTORE PUSH1 0x40 DUP2 KECCAK256 PUSH1 0x3 ADD SLOAD DUP3 EQ ISZERO PUSH2 0x3089 JUMPI POP PUSH1 0xAA PUSH2 0x2A3F JUMP JUMPDEST POP PUSH1 0x0 PUSH2 0x2A3F JUMP JUMPDEST PUSH1 0x0 DUP3 DUP2 MSTORE PUSH1 0x20 DUP2 SWAP1 MSTORE PUSH1 0x40 SWAP1 KECCAK256 PUSH1 0x2 ADD SLOAD PUSH2 0x30AF SWAP1 PUSH2 0x7FC PUSH2 0x3EBE JUMP JUMPDEST PUSH2 0xE19 JUMPI PUSH1 0x40 MLOAD PUSH3 0x461BCD PUSH1 0xE5 SHL DUP2 MSTORE PUSH1 0x4 ADD DUP1 DUP1 PUSH1 0x20 ADD DUP3 DUP2 SUB DUP3 MSTORE PUSH1 0x30 DUP2 MSTORE PUSH1 0x20 ADD DUP1 PUSH2 0x4493 PUSH1 0x30 SWAP2 CODECOPY PUSH1 0x40 ADD SWAP2 POP POP PUSH1 0x40 MLOAD DUP1 SWAP2 SUB SWAP1 REVERT JUMPDEST PUSH1 0x0 DUP1 PUSH1 0x3 PUSH1 0x4 PUSH1 0x0 DUP7 PUSH1 0x1 PUSH1 0x1 PUSH1 0xA0 SHL SUB AND PUSH1 0x1 PUSH1 0x1 PUSH1 0xA0 SHL SUB AND DUP2 MSTORE PUSH1 0x20 ADD SWAP1 DUP2 MSTORE PUSH1 0x20 ADD PUSH1 0x0 KECCAK256 PUSH1 0x40 MLOAD DUP1 DUP3 DUP1 SLOAD PUSH1 0x1 DUP2 PUSH1 0x1 AND ISZERO PUSH2 0x100 MUL SUB AND PUSH1 0x2 SWAP1 DIV DUP1 ISZERO PUSH2 0x316F JUMPI DUP1 PUSH1 0x1F LT PUSH2 0x314D JUMPI PUSH2 0x100 DUP1 DUP4 SLOAD DIV MUL DUP4 MSTORE SWAP2 DUP3 ADD SWAP2 PUSH2 0x316F JUMP JUMPDEST DUP3 ADD SWAP2 SWAP1 PUSH1 0x0 MSTORE PUSH1 0x20 PUSH1 0x0 KECCAK256 SWAP1 JUMPDEST DUP2 SLOAD DUP2 MSTORE SWAP1 PUSH1 0x1 ADD SWAP1 PUSH1 0x20 ADD DUP1 DUP4 GT PUSH2 0x315B JUMPI JUMPDEST POP POP SWAP3 DUP4 MSTORE POP POP PUSH1 0x40 DUP1 MLOAD PUSH1 0x20 SWAP3 DUP2 SWAP1 SUB DUP4 ADD DUP2 KECCAK256 PUSH4 0xFFFFFFFF DUP8 AND PUSH1 0x0 SWAP1 DUP2 MSTORE SWAP1 DUP5 MSTORE DUP3 DUP2 KECCAK256 SLOAD PUSH1 0x1 PUSH1 0x1 PUSH1 0xA0 SHL SUB DUP10 AND DUP3 MSTORE PUSH1 0x4 DUP6 MSTORE SWAP3 SWAP1 KECCAK256 DUP1 SLOAD PUSH1 0xFF SWAP1 SWAP4 AND SWAP4 SWAP1 SWAP3 SWAP2 ADD SWAP1 DUP2 SWAP1 DUP4 SWAP1 PUSH1 0x2 PUSH2 0x100 PUSH1 0x1 DUP4 AND ISZERO MUL PUSH1 0x0 NOT ADD SWAP1 SWAP2 AND DIV DUP1 ISZERO PUSH2 0x3211 JUMPI DUP1 PUSH1 0x1F LT PUSH2 0x31EF JUMPI PUSH2 0x100 DUP1 DUP4 SLOAD DIV MUL DUP4 MSTORE SWAP2 DUP3 ADD SWAP2 PUSH2 0x3211 JUMP JUMPDEST DUP3 ADD SWAP2 SWAP1 PUSH1 0x0 MSTORE PUSH1 0x20 PUSH1 0x0 KECCAK256 SWAP1 JUMPDEST DUP2 SLOAD DUP2 MSTORE SWAP1 PUSH1 0x1 ADD SWAP1 PUSH1 0x20 ADD DUP1 DUP4 GT PUSH2 0x31FD JUMPI JUMPDEST POP POP SWAP2 POP POP PUSH1 0x40 MLOAD PUSH1 0x20 DUP2 DUP4 SUB SUB DUP2 MSTORE SWAP1 PUSH1 0x40 MSTORE DUP1 MLOAD SWAP1 PUSH1 0x20 ADD KECCAK256 SWAP2 POP SWAP2 POP SWAP3 POP SWAP3 SWAP1 POP JUMP JUMPDEST PUSH1 0x0 DUP1 PUSH1 0x0 DUP1 PUSH1 0x0 DUP1 PUSH1 0x0 DUP1 PUSH1 0x0 PUSH1 0x3 PUSH1 0x4 PUSH1 0x0 CALLER PUSH1 0x1 PUSH1 0x1 PUSH1 0xA0 SHL SUB AND PUSH1 0x1 PUSH1 0x1 PUSH1 0xA0 SHL SUB AND DUP2 MSTORE PUSH1 0x20 ADD SWAP1 DUP2 MSTORE PUSH1 0x20 ADD PUSH1 0x0 KECCAK256 PUSH1 0x40 MLOAD DUP1 DUP3 DUP1 SLOAD PUSH1 0x1 DUP2 PUSH1 0x1 AND ISZERO PUSH2 0x100 MUL SUB AND PUSH1 0x2 SWAP1 DIV DUP1 ISZERO PUSH2 0x32C7 JUMPI DUP1 PUSH1 0x1F LT PUSH2 0x32A5 JUMPI PUSH2 0x100 DUP1 DUP4 SLOAD DIV MUL DUP4 MSTORE SWAP2 DUP3 ADD SWAP2 PUSH2 0x32C7 JUMP JUMPDEST DUP3 ADD SWAP2 SWAP1 PUSH1 0x0 MSTORE PUSH1 0x20 PUSH1 0x0 KECCAK256 SWAP1 JUMPDEST DUP2 SLOAD DUP2 MSTORE SWAP1 PUSH1 0x1 ADD SWAP1 PUSH1 0x20 ADD DUP1 DUP4 GT PUSH2 0x32B3 JUMPI JUMPDEST POP POP SWAP3 DUP4 MSTORE POP POP PUSH1 0x40 DUP1 MLOAD PUSH1 0x20 SWAP3 DUP2 SWAP1 SUB DUP4 ADD SWAP1 KECCAK256 PUSH4 0xFFFFFFFF DUP6 AND PUSH1 0x0 SWAP1 DUP2 MSTORE SWAP3 MSTORE SWAP1 KECCAK256 SLOAD PUSH1 0xFF AND SWAP1 POP DUP1 ISZERO DUP1 ISZERO SWAP1 PUSH2 0x3304 JUMPI POP PUSH1 0x5 DUP2 PUSH1 0xFF AND LT JUMPDEST DUP1 PUSH2 0x3312 JUMPI POP DUP1 PUSH1 0xFF AND PUSH1 0xA EQ JUMPDEST PUSH2 0x3363 JUMPI PUSH1 0x40 DUP1 MLOAD PUSH3 0x461BCD PUSH1 0xE5 SHL DUP2 MSTORE PUSH1 0x20 PUSH1 0x4 DUP3 ADD DUP2 SWAP1 MSTORE PUSH1 0x24 DUP3 ADD MSTORE PUSH32 0x533A4D4F442D49413A436F6E7472616374206E6F7420617574686F72697A6564 PUSH1 0x44 DUP3 ADD MSTORE SWAP1 MLOAD SWAP1 DUP2 SWAP1 SUB PUSH1 0x64 ADD SWAP1 REVERT JUMPDEST PUSH2 0x336B PUSH2 0x433C JUMP JUMPDEST POP POP POP PUSH1 0x0 SWAP8 DUP9 MSTORE POP POP PUSH1 0x6 PUSH1 0x20 SWAP1 DUP2 MSTORE PUSH1 0x40 SWAP7 DUP8 SWAP1 KECCAK256 DUP8 MLOAD PUSH2 0x120 DUP2 ADD DUP10 MSTORE DUP2 SLOAD PUSH1 0xFF DUP1 DUP3 AND DUP1 DUP5 MSTORE PUSH2 0x100 DUP1 DUP5 DIV SWAP1 SWAP3 AND SWAP6 DUP5 ADD SWAP6 SWAP1 SWAP6 MSTORE PUSH2 0xFFFF PUSH3 0x10000 DUP4 DIV AND SWAP11 DUP4 ADD SWAP11 SWAP1 SWAP11 MSTORE PUSH4 0xFFFFFFFF PUSH5 0x100000000 DUP3 DIV DUP2 AND PUSH1 0x60 DUP5 ADD DUP2 SWAP1 MSTORE PUSH1 0x1 PUSH1 0x40 SHL DUP4 DIV DUP3 AND PUSH1 0x80 DUP6 ADD DUP2 SWAP1 MSTORE PUSH1 0x1 PUSH1 0x60 SHL SWAP1 SWAP4 DIV SWAP1 SWAP2 AND PUSH1 0xA0 DUP5 ADD DUP2 SWAP1 MSTORE PUSH1 0x1 DUP6 ADD SLOAD PUSH1 0xC0 DUP6 ADD DUP2 SWAP1 MSTORE PUSH1 0x2 DUP7 ADD SLOAD PUSH1 0xE0 DUP7 ADD DUP2 SWAP1 MSTORE PUSH1 0x3 SWAP1 SWAP7 ADD SLOAD SWAP13 SWAP1 SWAP5 ADD DUP13 SWAP1 MSTORE SWAP11 SWAP12 SWAP5 SWAP11 SWAP1 SWAP10 POP SWAP1 SWAP8 POP SWAP6 POP SWAP4 POP SWAP2 POP JUMP JUMPDEST PUSH32 0x65D7A28E3265B37A6474929F336521B332C1681B933F6CB9F3376673440D862A DUP2 JUMP JUMPDEST PUSH1 0x2 PUSH1 0x1 SLOAD EQ ISZERO PUSH2 0x34A1 JUMPI PUSH1 0x40 DUP1 MLOAD PUSH3 0x461BCD PUSH1 0xE5 SHL DUP2 MSTORE PUSH1 0x20 PUSH1 0x4 DUP3 ADD MSTORE PUSH1 0x1F PUSH1 0x24 DUP3 ADD MSTORE PUSH32 0x5265656E7472616E637947756172643A207265656E7472616E742063616C6C00 PUSH1 0x44 DUP3 ADD MSTORE SWAP1 MLOAD SWAP1 DUP2 SWAP1 SUB PUSH1 0x64 ADD SWAP1 REVERT JUMPDEST PUSH1 0x2 PUSH1 0x1 DUP2 SWAP1 SSTORE SLOAD PUSH1 0xFF AND ISZERO PUSH2 0x34F1 JUMPI PUSH1 0x40 DUP1 MLOAD PUSH3 0x461BCD PUSH1 0xE5 SHL DUP2 MSTORE PUSH1 0x20 PUSH1 0x4 DUP3 ADD MSTORE PUSH1 0x10 PUSH1 0x24 DUP3 ADD MSTORE PUSH16 0x14185D5CD8589B194E881C185D5CD959 PUSH1 0x82 SHL PUSH1 0x44 DUP3 ADD MSTORE SWAP1 MLOAD SWAP1 DUP2 SWAP1 SUB PUSH1 0x64 ADD SWAP1 REVERT JUMPDEST PUSH1 0x40 DUP1 MLOAD PUSH7 0x22A1A92FA6A3A9 PUSH1 0xC9 SHL DUP2 MSTORE PUSH1 0x5 PUSH1 0x7 DUP3 ADD MSTORE SWAP1 MLOAD SWAP1 DUP2 SWAP1 SUB PUSH1 0x27 ADD SWAP1 KECCAK256 SLOAD PUSH1 0x1 PUSH1 0x1 PUSH1 0xA0 SHL SUB AND PUSH2 0x3526 PUSH2 0x3EBE JUMP JUMPDEST PUSH1 0x1 PUSH1 0x1 PUSH1 0xA0 SHL SUB AND EQ PUSH2 0x3581 JUMPI PUSH1 0x40 DUP1 MLOAD PUSH3 0x461BCD PUSH1 0xE5 SHL DUP2 MSTORE PUSH1 0x20 PUSH1 0x4 DUP3 ADD MSTORE PUSH1 0x1C PUSH1 0x24 DUP3 ADD MSTORE PUSH32 0x533A4D4F442D49454D3A43616C6C6572206E6F74204543525F4D475200000000 PUSH1 0x44 DUP3 ADD MSTORE SWAP1 MLOAD SWAP1 DUP2 SWAP1 SUB PUSH1 0x64 ADD SWAP1 REVERT JUMPDEST PUSH1 0x0 DUP2 DUP2 MSTORE PUSH1 0x6 PUSH1 0x20 MSTORE PUSH1 0x40 SWAP1 KECCAK256 SLOAD DUP2 SWAP1 PUSH5 0x100000000 SWAP1 DIV PUSH4 0xFFFFFFFF AND PUSH2 0x35F1 JUMPI PUSH1 0x40 DUP1 MLOAD PUSH3 0x461BCD PUSH1 0xE5 SHL DUP2 MSTORE PUSH1 0x20 PUSH1 0x4 DUP3 ADD MSTORE PUSH1 0x1A PUSH1 0x24 DUP3 ADD MSTORE PUSH32 0x533A4D4F442D453A72656320646F6573206E6F74206578697374000000000000 PUSH1 0x44 DUP3 ADD MSTORE SWAP1 MLOAD SWAP1 DUP2 SWAP1 SUB PUSH1 0x64 ADD SWAP1 REVERT JUMPDEST PUSH2 0x35F9 PUSH2 0x433C JUMP JUMPDEST POP PUSH1 0x0 DUP3 DUP2 MSTORE PUSH1 0x6 PUSH1 0x20 SWAP1 DUP2 MSTORE PUSH1 0x40 SWAP2 DUP3 SWAP1 KECCAK256 DUP3 MLOAD PUSH2 0x120 DUP2 ADD DUP5 MSTORE DUP2 SLOAD PUSH1 0xFF DUP1 DUP3 AND DUP1 DUP5 MSTORE PUSH2 0x100 DUP1 DUP5 DIV SWAP1 SWAP3 AND SWAP6 DUP5 ADD SWAP6 SWAP1 SWAP6 MSTORE PUSH2 0xFFFF PUSH3 0x10000 DUP4 DIV AND SWAP6 DUP4 ADD SWAP6 SWAP1 SWAP6 MSTORE PUSH4 0xFFFFFFFF PUSH5 0x100000000 DUP3 DIV DUP2 AND PUSH1 0x60 DUP5 ADD MSTORE PUSH1 0x1 PUSH1 0x40 SHL DUP3 DIV DUP2 AND PUSH1 0x80 DUP5 ADD MSTORE PUSH1 0x1 PUSH1 0x60 SHL SWAP1 SWAP2 DIV AND PUSH1 0xA0 DUP3 ADD MSTORE PUSH1 0x1 DUP3 ADD SLOAD PUSH1 0xC0 DUP3 ADD MSTORE PUSH1 0x2 DUP3 ADD SLOAD PUSH1 0xE0 DUP3 ADD MSTORE PUSH1 0x3 SWAP1 SWAP2 ADD SLOAD SWAP3 DUP2 ADD SWAP3 SWAP1 SWAP3 MSTORE PUSH2 0x369A SWAP1 PUSH2 0x403B JUMP JUMPDEST PUSH1 0xFF AND PUSH1 0xAA EQ PUSH2 0x36F1 JUMPI PUSH1 0x40 DUP1 MLOAD PUSH3 0x461BCD PUSH1 0xE5 SHL DUP2 MSTORE PUSH1 0x20 PUSH1 0x4 DUP3 ADD MSTORE PUSH1 0xF PUSH1 0x24 DUP3 ADD MSTORE PUSH32 0x533A45453A212065637220737461740000000000000000000000000000000000 PUSH1 0x44 DUP3 ADD MSTORE SWAP1 MLOAD SWAP1 DUP2 SWAP1 SUB PUSH1 0x64 ADD SWAP1 REVERT JUMPDEST DUP1 PUSH1 0x0 ADD MLOAD PUSH1 0xFF AND PUSH1 0x6 EQ ISZERO PUSH2 0x3706 JUMPI PUSH1 0x7 DUP2 MSTORE JUMPDEST DUP1 PUSH1 0x0 ADD MLOAD PUSH1 0xFF AND PUSH1 0x38 EQ ISZERO PUSH2 0x371B JUMPI PUSH1 0x39 DUP2 MSTORE JUMPDEST DUP1 PUSH1 0x0 ADD MLOAD PUSH1 0xFF AND PUSH1 0x32 EQ ISZERO PUSH2 0x3730 JUMPI PUSH1 0x3A DUP2 MSTORE JUMPDEST DUP1 PUSH1 0x0 ADD MLOAD PUSH1 0xFF AND PUSH1 0x3C EQ ISZERO PUSH2 0x3745 JUMPI PUSH1 0x3A DUP2 MSTORE JUMPDEST PUSH1 0x0 SWAP3 DUP4 MSTORE PUSH1 0x6 PUSH1 0x20 SWAP1 DUP2 MSTORE PUSH1 0x40 SWAP4 DUP5 SWAP1 KECCAK256 DUP3 MLOAD DUP2 SLOAD SWAP3 DUP5 ADD MLOAD SWAP6 DUP5 ADD MLOAD PUSH1 0x60 DUP6 ADD MLOAD PUSH1 0x80 DUP7 ADD MLOAD PUSH1 0xA0 DUP8 ADD MLOAD PUSH1 0xFF NOT SWAP1 SWAP7 AND PUSH1 0xFF SWAP5 DUP6 AND OR PUSH2 0xFF00 NOT AND PUSH2 0x100 SWAP5 SWAP1 SWAP10 AND DUP5 MUL SWAP9 SWAP1 SWAP9 OR PUSH4 0xFFFF0000 NOT AND PUSH3 0x10000 PUSH2 0xFFFF SWAP1 SWAP4 AND SWAP3 SWAP1 SWAP3 MUL SWAP2 SWAP1 SWAP2 OR PUSH8 0xFFFFFFFF00000000 NOT AND PUSH5 0x100000000 PUSH4 0xFFFFFFFF SWAP3 DUP4 AND MUL OR PUSH12 0xFFFFFFFF0000000000000000 NOT AND PUSH1 0x1 PUSH1 0x40 SHL SWAP8 DUP3 AND SWAP8 SWAP1 SWAP8 MUL SWAP7 SWAP1 SWAP7 OR PUSH16 0xFFFFFFFF000000000000000000000000 NOT AND PUSH1 0x1 PUSH1 0x60 SHL SWAP7 SWAP1 SWAP4 AND SWAP6 SWAP1 SWAP6 MUL SWAP2 SWAP1 SWAP2 OR DUP2 SSTORE PUSH1 0xC0 DUP3 ADD MLOAD PUSH1 0x1 DUP1 DUP4 ADD SWAP2 SWAP1 SWAP2 SSTORE PUSH1 0xE0 DUP4 ADD MLOAD PUSH1 0x2 DUP4 ADD SSTORE SWAP4 SWAP1 SWAP2 ADD MLOAD PUSH1 0x3 SWAP1 SWAP2 ADD SSTORE POP DUP1 SSTORE JUMP JUMPDEST PUSH1 0x2 PUSH1 0x1 SLOAD EQ ISZERO PUSH2 0x3889 JUMPI PUSH1 0x40 DUP1 MLOAD PUSH3 0x461BCD PUSH1 0xE5 SHL DUP2 MSTORE PUSH1 0x20 PUSH1 0x4 DUP3 ADD MSTORE PUSH1 0x1F PUSH1 0x24 DUP3 ADD MSTORE PUSH32 0x5265656E7472616E637947756172643A207265656E7472616E742063616C6C00 PUSH1 0x44 DUP3 ADD MSTORE SWAP1 MLOAD SWAP1 DUP2 SWAP1 SUB PUSH1 0x64 ADD SWAP1 REVERT JUMPDEST PUSH1 0x2 PUSH1 0x1 DUP2 SWAP1 SSTORE SLOAD PUSH1 0xFF AND ISZERO PUSH2 0x38D9 JUMPI PUSH1 0x40 DUP1 MLOAD PUSH3 0x461BCD PUSH1 0xE5 SHL DUP2 MSTORE PUSH1 0x20 PUSH1 0x4 DUP3 ADD MSTORE PUSH1 0x10 PUSH1 0x24 DUP3 ADD MSTORE PUSH16 0x14185D5CD8589B194E881C185D5CD959 PUSH1 0x82 SHL PUSH1 0x44 DUP3 ADD MSTORE SWAP1 MLOAD SWAP1 DUP2 SWAP1 SUB PUSH1 0x64 ADD SWAP1 REVERT JUMPDEST PUSH1 0x0 DUP3 DUP2 MSTORE PUSH1 0x6 PUSH1 0x20 MSTORE PUSH1 0x40 SWAP1 KECCAK256 SLOAD DUP3 SWAP1 PUSH5 0x100000000 SWAP1 DIV PUSH4 0xFFFFFFFF AND PUSH2 0x3949 JUMPI PUSH1 0x40 DUP1 MLOAD PUSH3 0x461BCD PUSH1 0xE5 SHL DUP2 MSTORE PUSH1 0x20 PUSH1 0x4 DUP3 ADD MSTORE PUSH1 0x1A PUSH1 0x24 DUP3 ADD MSTORE PUSH32 0x533A4D4F442D453A72656320646F6573206E6F74206578697374000000000000 PUSH1 0x44 DUP3 ADD MSTORE SWAP1 MLOAD SWAP1 DUP2 SWAP1 SUB PUSH1 0x64 ADD SWAP1 REVERT JUMPDEST PUSH1 0x0 DUP4 DUP2 MSTORE PUSH1 0x6 PUSH1 0x20 SWAP1 DUP2 MSTORE PUSH1 0x40 DUP1 DUP4 KECCAK256 SLOAD CALLER DUP5 MSTORE PUSH1 0x4 SWAP1 SWAP3 MSTORE DUP1 DUP4 KECCAK256 SWAP1 MLOAD DUP2 SLOAD PUSH5 0x100000000 SWAP1 SWAP4 DIV PUSH4 0xFFFFFFFF AND SWAP4 SWAP3 PUSH1 0x3 SWAP3 SWAP2 SWAP1 DUP2 SWAP1 DUP4 SWAP1 PUSH1 0x2 PUSH2 0x100 PUSH1 0x1 DUP4 AND ISZERO MUL PUSH1 0x0 NOT ADD SWAP1 SWAP2 AND DIV DUP1 ISZERO PUSH2 0x39DA JUMPI DUP1 PUSH1 0x1F LT PUSH2 0x39B8 JUMPI PUSH2 0x100 DUP1 DUP4 SLOAD DIV MUL DUP4 MSTORE SWAP2 DUP3 ADD SWAP2 PUSH2 0x39DA JUMP JUMPDEST DUP3 ADD SWAP2 SWAP1 PUSH1 0x0 MSTORE PUSH1 0x20 PUSH1 0x0 KECCAK256 SWAP1 JUMPDEST DUP2 SLOAD DUP2 MSTORE SWAP1 PUSH1 0x1 ADD SWAP1 PUSH1 0x20 ADD DUP1 DUP4 GT PUSH2 0x39C6 JUMPI JUMPDEST POP POP SWAP3 DUP4 MSTORE POP POP PUSH1 0x40 DUP1 MLOAD PUSH1 0x20 SWAP3 DUP2 SWAP1 SUB DUP4 ADD SWAP1 KECCAK256 PUSH4 0xFFFFFFFF DUP6 AND PUSH1 0x0 SWAP1 DUP2 MSTORE SWAP3 MSTORE SWAP1 KECCAK256 SLOAD PUSH1 0xFF AND SWAP1 POP DUP1 ISZERO DUP1 ISZERO SWAP1 PUSH2 0x3A17 JUMPI POP PUSH1 0x5 DUP2 PUSH1 0xFF AND LT JUMPDEST DUP1 PUSH2 0x3A25 JUMPI POP DUP1 PUSH1 0xFF AND PUSH1 0xA EQ JUMPDEST PUSH2 0x3A76 JUMPI PUSH1 0x40 DUP1 MLOAD PUSH3 0x461BCD PUSH1 0xE5 SHL DUP2 MSTORE PUSH1 0x20 PUSH1 0x4 DUP3 ADD DUP2 SWAP1 MSTORE PUSH1 0x24 DUP3 ADD MSTORE PUSH32 0x533A4D4F442D49413A436F6E7472616374206E6F7420617574686F72697A6564 PUSH1 0x44 DUP3 ADD MSTORE SWAP1 MLOAD SWAP1 DUP2 SWAP1 SUB PUSH1 0x64 ADD SWAP1 REVERT JUMPDEST PUSH2 0x3A7E PUSH2 0x433C JUMP JUMPDEST POP PUSH1 0x0 DUP6 DUP2 MSTORE PUSH1 0x6 PUSH1 0x20 SWAP1 DUP2 MSTORE PUSH1 0x40 SWAP2 DUP3 SWAP1 KECCAK256 DUP3 MLOAD PUSH2 0x120 DUP2 ADD DUP5 MSTORE DUP2 SLOAD PUSH1 0xFF DUP1 DUP3 AND DUP4 MSTORE PUSH2 0x100 DUP1 DUP4 DIV SWAP1 SWAP2 AND SWAP5 DUP4 ADD SWAP5 SWAP1 SWAP5 MSTORE PUSH2 0xFFFF PUSH3 0x10000 DUP3 DIV AND SWAP5 DUP3 ADD SWAP5 SWAP1 SWAP5 MSTORE PUSH4 0xFFFFFFFF PUSH5 0x100000000 DUP6 DIV DUP2 AND PUSH1 0x60 DUP4 ADD MSTORE PUSH1 0x1 PUSH1 0x40 SHL DUP6 DIV DUP2 AND PUSH1 0x80 DUP4 ADD MSTORE PUSH1 0x1 PUSH1 0x60 SHL SWAP1 SWAP5 DIV SWAP1 SWAP4 AND PUSH1 0xA0 DUP5 ADD MSTORE PUSH1 0x1 DUP2 ADD SLOAD PUSH1 0xC0 DUP5 ADD MSTORE PUSH1 0x2 DUP2 ADD SLOAD PUSH1 0xE0 DUP5 ADD MSTORE PUSH1 0x3 ADD SLOAD SWAP1 DUP3 ADD MSTORE PUSH2 0x3B1B DUP6 PUSH2 0x40AE JUMP JUMPDEST PUSH1 0xFF AND PUSH1 0xAA EQ PUSH2 0x3B72 JUMPI PUSH1 0x40 DUP1 MLOAD PUSH3 0x461BCD PUSH1 0xE5 SHL DUP2 MSTORE PUSH1 0x20 PUSH1 0x4 DUP3 ADD MSTORE PUSH1 0x15 PUSH1 0x24 DUP3 ADD MSTORE PUSH32 0x533A53534C3A4D7573742073657420746F204C2F530000000000000000000000 PUSH1 0x44 DUP3 ADD MSTORE SWAP1 MLOAD SWAP1 DUP2 SWAP1 SUB PUSH1 0x64 ADD SWAP1 REVERT JUMPDEST DUP1 PUSH1 0x0 ADD MLOAD PUSH1 0xFF AND PUSH1 0x5 EQ ISZERO DUP1 ISZERO PUSH2 0x3B92 JUMPI POP DUP1 PUSH1 0x0 ADD MLOAD PUSH1 0xFF AND PUSH1 0x32 EQ ISZERO JUMPDEST DUP1 ISZERO PUSH2 0x3BA6 JUMPI POP DUP1 PUSH1 0x0 ADD MLOAD PUSH1 0xFF AND PUSH1 0x37 EQ ISZERO JUMPDEST PUSH2 0x3BE1 JUMPI PUSH1 0x40 MLOAD PUSH3 0x461BCD PUSH1 0xE5 SHL DUP2 MSTORE PUSH1 0x4 ADD DUP1 DUP1 PUSH1 0x20 ADD DUP3 DUP2 SUB DUP3 MSTORE PUSH1 0x26 DUP2 MSTORE PUSH1 0x20 ADD DUP1 PUSH2 0x44C3 PUSH1 0x26 SWAP2 CODECOPY PUSH1 0x40 ADD SWAP2 POP POP PUSH1 0x40 MLOAD DUP1 SWAP2 SUB SWAP1 REVERT JUMPDEST DUP5 DUP2 PUSH1 0x0 ADD SWAP1 PUSH1 0xFF AND SWAP1 DUP2 PUSH1 0xFF AND DUP2 MSTORE POP POP DUP1 PUSH1 0x6 PUSH1 0x0 DUP9 DUP2 MSTORE PUSH1 0x20 ADD SWAP1 DUP2 MSTORE PUSH1 0x20 ADD PUSH1 0x0 KECCAK256 PUSH1 0x0 DUP3 ADD MLOAD DUP2 PUSH1 0x0 ADD PUSH1 0x0 PUSH2 0x100 EXP DUP2 SLOAD DUP2 PUSH1 0xFF MUL NOT AND SWAP1 DUP4 PUSH1 0xFF AND MUL OR SWAP1 SSTORE POP PUSH1 0x20 DUP3 ADD MLOAD DUP2 PUSH1 0x0 ADD PUSH1 0x1 PUSH2 0x100 EXP DUP2 SLOAD DUP2 PUSH1 0xFF MUL NOT AND SWAP1 DUP4 PUSH1 0xFF AND MUL OR SWAP1 SSTORE POP PUSH1 0x40 DUP3 ADD MLOAD DUP2 PUSH1 0x0 ADD PUSH1 0x2 PUSH2 0x100 EXP DUP2 SLOAD DUP2 PUSH2 0xFFFF MUL NOT AND SWAP1 DUP4 PUSH2 0xFFFF AND MUL OR SWAP1 SSTORE POP PUSH1 0x60 DUP3 ADD MLOAD DUP2 PUSH1 0x0 ADD PUSH1 0x4 PUSH2 0x100 EXP DUP2 SLOAD DUP2 PUSH4 0xFFFFFFFF MUL NOT AND SWAP1 DUP4 PUSH4 0xFFFFFFFF AND MUL OR SWAP1 SSTORE POP PUSH1 0x80 DUP3 ADD MLOAD DUP2 PUSH1 0x0 ADD PUSH1 0x8 PUSH2 0x100 EXP DUP2 SLOAD DUP2 PUSH4 0xFFFFFFFF MUL NOT AND SWAP1 DUP4 PUSH4 0xFFFFFFFF AND MUL OR SWAP1 SSTORE POP PUSH1 0xA0 DUP3 ADD MLOAD DUP2 PUSH1 0x0 ADD PUSH1 0xC PUSH2 0x100 EXP DUP2 SLOAD DUP2 PUSH4 0xFFFFFFFF MUL NOT AND SWAP1 DUP4 PUSH4 0xFFFFFFFF AND MUL OR SWAP1 SSTORE POP PUSH1 0xC0 DUP3 ADD MLOAD DUP2 PUSH1 0x1 ADD SSTORE PUSH1 0xE0 DUP3 ADD MLOAD DUP2 PUSH1 0x2 ADD SSTORE PUSH2 0x100 DUP3 ADD MLOAD DUP2 PUSH1 0x3 ADD SSTORE SWAP1 POP POP POP POP POP POP PUSH1 0x1 DUP1 DUP2 SWAP1 SSTORE POP POP POP JUMP JUMPDEST PUSH2 0x3D1A PUSH2 0x3EBE JUMP JUMPDEST PUSH1 0x8 SLOAD PUSH1 0x40 DUP1 MLOAD PUSH32 0x6352211E00000000000000000000000000000000000000000000000000000000 DUP2 MSTORE PUSH4 0xFFFFFFFF DUP7 AND PUSH1 0x4 DUP3 ADD MSTORE SWAP1 MLOAD PUSH1 0x1 PUSH1 0x1 PUSH1 0xA0 SHL SUB SWAP4 DUP5 AND SWAP4 SWAP1 SWAP3 AND SWAP2 PUSH4 0x6352211E SWAP2 PUSH1 0x24 DUP1 DUP3 ADD SWAP3 PUSH1 0x20 SWAP3 SWAP1 SWAP2 SWAP1 DUP3 SWAP1 SUB ADD DUP2 DUP7 DUP1 EXTCODESIZE ISZERO DUP1 ISZERO PUSH2 0x3D88 JUMPI PUSH1 0x0 DUP1 REVERT JUMPDEST POP GAS STATICCALL ISZERO DUP1 ISZERO PUSH2 0x3D9C JUMPI RETURNDATASIZE PUSH1 0x0 DUP1 RETURNDATACOPY RETURNDATASIZE PUSH1 0x0 REVERT JUMPDEST POP POP POP POP PUSH1 0x40 MLOAD RETURNDATASIZE PUSH1 0x20 DUP2 LT ISZERO PUSH2 0x3DB2 JUMPI PUSH1 0x0 DUP1 REVERT JUMPDEST POP MLOAD PUSH1 0x1 PUSH1 0x1 PUSH1 0xA0 SHL SUB AND EQ PUSH2 0x3E0F JUMPI PUSH1 0x40 DUP1 MLOAD PUSH3 0x461BCD PUSH1 0xE5 SHL DUP2 MSTORE PUSH1 0x20 PUSH1 0x4 DUP3 ADD DUP2 SWAP1 MSTORE PUSH1 0x24 DUP3 ADD MSTORE PUSH32 0x533A45434641433A43616C6C6572206E6F74204143746F6B656E486F6C646572 PUSH1 0x44 DUP3 ADD MSTORE SWAP1 MLOAD SWAP1 DUP2 SWAP1 SUB PUSH1 0x64 ADD SWAP1 REVERT JUMPDEST DUP1 PUSH1 0x3 DUP6 DUP6 PUSH1 0x40 MLOAD DUP1 DUP4 DUP4 DUP1 DUP3 DUP5 CALLDATACOPY SWAP2 SWAP1 SWAP2 ADD SWAP5 DUP6 MSTORE POP POP PUSH1 0x40 DUP1 MLOAD PUSH1 0x20 SWAP5 DUP2 SWAP1 SUB DUP6 ADD DUP2 KECCAK256 PUSH4 0xFFFFFFFF DUP10 AND PUSH1 0x0 SWAP1 DUP2 MSTORE SWAP1 DUP7 MSTORE DUP3 SWAP1 KECCAK256 DUP1 SLOAD PUSH1 0xFF NOT AND PUSH1 0xFF SWAP8 DUP9 AND OR SWAP1 SSTORE SWAP5 DUP7 AND SWAP4 DUP6 ADD SWAP4 SWAP1 SWAP4 MSTORE POP POP DUP1 DUP3 MSTORE PUSH1 0x4 DUP3 DUP3 ADD MSTORE PUSH4 0x41434441 PUSH1 0xE0 SHL PUSH1 0x60 DUP4 ADD MSTORE MLOAD PUSH32 0x7EE222C270BF2C8F2543EDE7193D45D48EAC904E416DC38E4604373D183EEFBB SWAP2 PUSH1 0x80 SWAP1 DUP3 SWAP1 SUB ADD SWAP1 LOG1 POP POP POP POP JUMP JUMPDEST PUSH1 0x0 PUSH2 0x2A5D DUP4 PUSH1 0x1 PUSH1 0x1 PUSH1 0xA0 SHL SUB DUP5 AND PUSH2 0x419F JUMP JUMPDEST CALLER SWAP1 JUMP JUMPDEST PUSH1 0x0 DUP3 DUP2 MSTORE PUSH1 0x20 DUP2 SWAP1 MSTORE PUSH1 0x40 SWAP1 KECCAK256 PUSH2 0x3EDA SWAP1 DUP3 PUSH2 0x3EA9 JUMP JUMPDEST ISZERO PUSH2 0x846 JUMPI PUSH2 0x3EE7 PUSH2 0x3EBE JUMP JUMPDEST PUSH1 0x1 PUSH1 0x1 PUSH1 0xA0 SHL SUB AND DUP2 PUSH1 0x1 PUSH1 0x1 PUSH1 0xA0 SHL SUB AND DUP4 PUSH32 0x2F8788117E7EFF1D82E926EC794901D17C78024A50270940304540A733656F0D PUSH1 0x40 MLOAD PUSH1 0x40 MLOAD DUP1 SWAP2 SUB SWAP1 LOG4 POP POP JUMP JUMPDEST PUSH1 0x0 DUP3 DUP2 MSTORE PUSH1 0x20 DUP2 SWAP1 MSTORE PUSH1 0x40 SWAP1 KECCAK256 PUSH2 0x3F43 SWAP1 DUP3 PUSH2 0x41E1 JUMP JUMPDEST ISZERO PUSH2 0x846 JUMPI PUSH2 0x3F50 PUSH2 0x3EBE JUMP JUMPDEST PUSH1 0x1 PUSH1 0x1 PUSH1 0xA0 SHL SUB AND DUP2 PUSH1 0x1 PUSH1 0x1 PUSH1 0xA0 SHL SUB AND DUP4 PUSH32 0xF6391F5C32D9C69D2A47EA670B442974B53935D1EDC7FD64EB21E047A839171B PUSH1 0x40 MLOAD PUSH1 0x40 MLOAD DUP1 SWAP2 SUB SWAP1 LOG4 POP POP JUMP JUMPDEST PUSH1 0x2 SLOAD PUSH1 0xFF AND PUSH2 0x3FEB JUMPI PUSH1 0x40 DUP1 MLOAD PUSH3 0x461BCD PUSH1 0xE5 SHL DUP2 MSTORE PUSH1 0x20 PUSH1 0x4 DUP3 ADD MSTORE PUSH1 0x14 PUSH1 0x24 DUP3 ADD MSTORE PUSH32 0x5061757361626C653A206E6F7420706175736564000000000000000000000000 PUSH1 0x44 DUP3 ADD MSTORE SWAP1 MLOAD SWAP1 DUP2 SWAP1 SUB PUSH1 0x64 ADD SWAP1 REVERT JUMPDEST PUSH1 0x2 DUP1 SLOAD PUSH1 0xFF NOT AND SWAP1 SSTORE PUSH32 0x5DB9EE0A495BF2E6FF9C91A7834C1BA4FDD244A5E8AA4E537BD38AEAE4B073AA PUSH2 0x401E PUSH2 0x3EBE JUMP JUMPDEST PUSH1 0x40 DUP1 MLOAD PUSH1 0x1 PUSH1 0x1 PUSH1 0xA0 SHL SUB SWAP1 SWAP3 AND DUP3 MSTORE MLOAD SWAP1 DUP2 SWAP1 SUB PUSH1 0x20 ADD SWAP1 LOG1 JUMP JUMPDEST PUSH1 0x0 DUP2 PUSH1 0xFF AND PUSH1 0x6 EQ ISZERO DUP1 ISZERO PUSH2 0x4055 JUMPI POP DUP2 PUSH1 0xFF AND PUSH1 0x32 EQ ISZERO JUMPDEST DUP1 ISZERO PUSH2 0x4065 JUMPI POP DUP2 PUSH1 0xFF AND PUSH1 0x3C EQ ISZERO JUMPDEST DUP1 ISZERO PUSH2 0x4075 JUMPI POP DUP2 PUSH1 0xFF AND PUSH1 0x38 EQ ISZERO JUMPDEST ISZERO PUSH2 0x4082 JUMPI POP PUSH1 0x0 PUSH2 0x7D9 JUMP JUMPDEST POP PUSH1 0xAA PUSH2 0x7D9 JUMP JUMPDEST PUSH1 0x0 DUP2 PUSH1 0xFF AND PUSH1 0x5 EQ ISZERO DUP1 ISZERO PUSH2 0x4075 JUMPI POP DUP2 PUSH1 0xFF AND PUSH1 0x37 EQ PUSH2 0x4082 JUMPI POP PUSH1 0x0 PUSH2 0x7D9 JUMP JUMPDEST PUSH1 0x0 DUP2 PUSH1 0xFF AND PUSH1 0x3 EQ ISZERO DUP1 ISZERO PUSH2 0x40C8 JUMPI POP DUP2 PUSH1 0xFF AND PUSH1 0x4 EQ ISZERO JUMPDEST DUP1 ISZERO PUSH2 0x40D8 JUMPI POP DUP2 PUSH1 0xFF AND PUSH1 0x35 EQ ISZERO JUMPDEST DUP1 ISZERO PUSH2 0x4075 JUMPI POP DUP2 PUSH1 0xFF AND PUSH1 0x36 EQ PUSH2 0x4082 JUMPI POP PUSH1 0x0 PUSH2 0x7D9 JUMP JUMPDEST PUSH1 0x2 SLOAD PUSH1 0xFF AND ISZERO PUSH2 0x413D JUMPI PUSH1 0x40 DUP1 MLOAD PUSH3 0x461BCD PUSH1 0xE5 SHL DUP2 MSTORE PUSH1 0x20 PUSH1 0x4 DUP3 ADD MSTORE PUSH1 0x10 PUSH1 0x24 DUP3 ADD MSTORE PUSH16 0x14185D5CD8589B194E881C185D5CD959 PUSH1 0x82 SHL PUSH1 0x44 DUP3 ADD MSTORE SWAP1 MLOAD SWAP1 DUP2 SWAP1 SUB PUSH1 0x64 ADD SWAP1 REVERT JUMPDEST PUSH1 0x2 DUP1 SLOAD PUSH1 0xFF NOT AND PUSH1 0x1 OR SWAP1 SSTORE PUSH32 0x62E78CEA01BEE320CD4E420270B5EA74000D11B0C9F74754EBDBFC544B05A258 PUSH2 0x401E PUSH2 0x3EBE JUMP JUMPDEST PUSH1 0x0 PUSH2 0x2A5D DUP4 DUP4 PUSH2 0x41F6 JUMP JUMPDEST PUSH1 0x0 PUSH2 0x2A5D DUP4 PUSH1 0x1 PUSH1 0x1 PUSH1 0xA0 SHL SUB DUP5 AND PUSH2 0x425A JUMP JUMPDEST PUSH1 0x0 PUSH2 0x2A3F DUP3 PUSH2 0x4272 JUMP JUMPDEST PUSH1 0x0 PUSH2 0x41AB DUP4 DUP4 PUSH2 0x425A JUMP JUMPDEST PUSH2 0x3089 JUMPI POP DUP2 SLOAD PUSH1 0x1 DUP2 DUP2 ADD DUP5 SSTORE PUSH1 0x0 DUP5 DUP2 MSTORE PUSH1 0x20 DUP1 DUP3 KECCAK256 SWAP1 SWAP4 ADD DUP5 SWAP1 SSTORE DUP5 SLOAD DUP5 DUP3 MSTORE DUP3 DUP7 ADD SWAP1 SWAP4 MSTORE PUSH1 0x40 SWAP1 KECCAK256 SWAP2 SWAP1 SWAP2 SSTORE PUSH2 0x2A3F JUMP JUMPDEST PUSH1 0x0 PUSH2 0x2A5D DUP4 PUSH1 0x1 PUSH1 0x1 PUSH1 0xA0 SHL SUB DUP5 AND PUSH2 0x4276 JUMP JUMPDEST DUP2 SLOAD PUSH1 0x0 SWAP1 DUP3 LT PUSH2 0x4238 JUMPI PUSH1 0x40 MLOAD PUSH3 0x461BCD PUSH1 0xE5 SHL DUP2 MSTORE PUSH1 0x4 ADD DUP1 DUP1 PUSH1 0x20 ADD DUP3 DUP2 SUB DUP3 MSTORE PUSH1 0x22 DUP2 MSTORE PUSH1 0x20 ADD DUP1 PUSH2 0x441C PUSH1 0x22 SWAP2 CODECOPY PUSH1 0x40 ADD SWAP2 POP POP PUSH1 0x40 MLOAD DUP1 SWAP2 SUB SWAP1 REVERT JUMPDEST DUP3 PUSH1 0x0 ADD DUP3 DUP2 SLOAD DUP2 LT PUSH2 0x4247 JUMPI INVALID JUMPDEST SWAP1 PUSH1 0x0 MSTORE PUSH1 0x20 PUSH1 0x0 KECCAK256 ADD SLOAD SWAP1 POP SWAP3 SWAP2 POP POP JUMP JUMPDEST PUSH1 0x0 SWAP1 DUP2 MSTORE PUSH1 0x1 SWAP2 SWAP1 SWAP2 ADD PUSH1 0x20 MSTORE PUSH1 0x40 SWAP1 KECCAK256 SLOAD ISZERO ISZERO SWAP1 JUMP JUMPDEST SLOAD SWAP1 JUMP JUMPDEST PUSH1 0x0 DUP2 DUP2 MSTORE PUSH1 0x1 DUP4 ADD PUSH1 0x20 MSTORE PUSH1 0x40 DUP2 KECCAK256 SLOAD DUP1 ISZERO PUSH2 0x4332 JUMPI DUP4 SLOAD PUSH1 0x0 NOT DUP1 DUP4 ADD SWAP2 SWAP1 DUP2 ADD SWAP1 PUSH1 0x0 SWAP1 DUP8 SWAP1 DUP4 SWAP1 DUP2 LT PUSH2 0x42A9 JUMPI INVALID JUMPDEST SWAP1 PUSH1 0x0 MSTORE PUSH1 0x20 PUSH1 0x0 KECCAK256 ADD SLOAD SWAP1 POP DUP1 DUP8 PUSH1 0x0 ADD DUP5 DUP2 SLOAD DUP2 LT PUSH2 0x42C6 JUMPI INVALID JUMPDEST PUSH1 0x0 SWAP2 DUP3 MSTORE PUSH1 0x20 DUP1 DUP4 KECCAK256 SWAP1 SWAP2 ADD SWAP3 SWAP1 SWAP3 SSTORE DUP3 DUP2 MSTORE PUSH1 0x1 DUP10 DUP2 ADD SWAP1 SWAP3 MSTORE PUSH1 0x40 SWAP1 KECCAK256 SWAP1 DUP5 ADD SWAP1 SSTORE DUP7 SLOAD DUP8 SWAP1 DUP1 PUSH2 0x42F6 JUMPI INVALID JUMPDEST PUSH1 0x1 SWAP1 SUB DUP2 DUP2 SWAP1 PUSH1 0x0 MSTORE PUSH1 0x20 PUSH1 0x0 KECCAK256 ADD PUSH1 0x0 SWAP1 SSTORE SWAP1 SSTORE DUP7 PUSH1 0x1 ADD PUSH1 0x0 DUP8 DUP2 MSTORE PUSH1 0x20 ADD SWAP1 DUP2 MSTORE PUSH1 0x20 ADD PUSH1 0x0 KECCAK256 PUSH1 0x0 SWAP1 SSTORE PUSH1 0x1 SWAP5 POP POP POP POP POP PUSH2 0x2A3F JUMP JUMPDEST PUSH1 0x0 SWAP2 POP POP PUSH2 0x2A3F JUMP JUMPDEST PUSH1 0x40 DUP1 MLOAD PUSH2 0x120 DUP2 ADD DUP3 MSTORE PUSH1 0x0 DUP1 DUP3 MSTORE PUSH1 0x20 DUP3 ADD DUP2 SWAP1 MSTORE SWAP2 DUP2 ADD DUP3 SWAP1 MSTORE PUSH1 0x60 DUP2 ADD DUP3 SWAP1 MSTORE PUSH1 0x80 DUP2 ADD DUP3 SWAP1 MSTORE PUSH1 0xA0 DUP2 ADD DUP3 SWAP1 MSTORE PUSH1 0xC0 DUP2 ADD DUP3 SWAP1 MSTORE PUSH1 0xE0 DUP2 ADD DUP3 SWAP1 MSTORE PUSH2 0x100 DUP2 ADD SWAP2 SWAP1 SWAP2 MSTORE SWAP1 JUMP JUMPDEST DUP3 DUP1 SLOAD PUSH1 0x1 DUP2 PUSH1 0x1 AND ISZERO PUSH2 0x100 MUL SUB AND PUSH1 0x2 SWAP1 DIV SWAP1 PUSH1 0x0 MSTORE PUSH1 0x20 PUSH1 0x0 KECCAK256 SWAP1 PUSH1 0x1F ADD PUSH1 0x20 SWAP1 DIV DUP2 ADD SWAP3 DUP3 PUSH1 0x1F LT PUSH2 0x43C9 JUMPI DUP3 DUP1 ADD PUSH1 0xFF NOT DUP3 CALLDATALOAD AND OR DUP6 SSTORE PUSH2 0x43F6 JUMP JUMPDEST DUP3 DUP1 ADD PUSH1 0x1 ADD DUP6 SSTORE DUP3 ISZERO PUSH2 0x43F6 JUMPI SWAP2 DUP3 ADD JUMPDEST DUP3 DUP2 GT ISZERO PUSH2 0x43F6 JUMPI DUP3 CALLDATALOAD DUP3 SSTORE SWAP2 PUSH1 0x20 ADD SWAP2 SWAP1 PUSH1 0x1 ADD SWAP1 PUSH2 0x43DB JUMP JUMPDEST POP PUSH2 0x4402 SWAP3 SWAP2 POP PUSH2 0x4406 JUMP JUMPDEST POP SWAP1 JUMP JUMPDEST JUMPDEST DUP1 DUP3 GT ISZERO PUSH2 0x4402 JUMPI PUSH1 0x0 DUP2 SSTORE PUSH1 0x1 ADD PUSH2 0x4407 JUMP INVALID GASLIMIT PUSH15 0x756D657261626C655365743A20696E PUSH5 0x6578206F75 PUSH21 0x206F6620626F756E6473416363657373436F6E7472 PUSH16 0x6C3A2073656E646572206D7573742062 PUSH6 0x20616E206164 PUSH14 0x696E20746F206772616E7450414D GASPRICE 0x4D 0x4F DIFFICULTY GASPRICE KECCAK256 PUSH14 0x757374206861766520434F4E5452 COINBASE NUMBER SLOAD 0x5F COINBASE DIFFICULTY 0x4D 0x49 0x4E 0x5F MSTORE 0x4F 0x4C GASLIMIT COINBASE PUSH4 0x63657373 NUMBER PUSH16 0x6E74726F6C3A2073656E646572206D75 PUSH20 0x7420626520616E2061646D696E20746F20726576 PUSH16 0x6B65533A53534C3A54786672206F7220 PUSH6 0x63722D6C6F63 PUSH12 0x656420617373657420213D20 0x4C 0x2F MSTORE8 0x2E MSTORE8 GASPRICE 0x4E MSTORE GASPRICE COINBASE PUSH20 0x7365742064697363617264656420757365204150 POP 0x5F 0x4E NUMBER KECCAK256 PUSH19 0x6379636C416363657373436F6E74726F6C3A20 PUSH4 0x616E206F PUSH15 0x6C792072656E6F756E636520726F6C PUSH6 0x7320666F7220 PUSH20 0x656C66A2646970667358221220CC351257E46F96 0xB4 0x5E 0xE8 0xC4 LOG3 0x2F RETURNDATACOPY 0xBC SSTORE 0x27 0xD3 0x1E 0x2A 0x24 0xD CALLDATALOAD SWAP11 0x1F 0x2D 0x49 LOG1 0xCA LT 0xE0 DELEGATECALL PUSH5 0x736F6C6343 STOP MOD 0xC STOP CALLER "
		},
		"gasEstimates": {
			"creation": {
				"codeDepositCost": "3555600",
				"executionCost": "infinite",
				"totalCost": "infinite"
			},
			"external": {
				"B320xF_()": "291",
				"CONTRACT_ADMIN_ROLE()": "245",
				"ContractInfoHash(address,uint32)": "infinite",
				"DEFAULT_ADMIN_ROLE()": "243",
				"OO_addContract(string,address,uint32,uint8)": "infinite",
				"PAUSER_ROLE()": "242",
				"_verifyRightsHolder(bytes32,bytes32)": "1219",
				"blockchainVerifyRightsHolder(bytes32,bytes32)": "3098",
				"changeAC(bytes32,uint32)": "24101",
				"enableContractForAC(string,uint32,uint8)": "infinite",
				"endEscrow(bytes32)": "129376",
				"getRoleAdmin(bytes32)": "1190",
				"getRoleMember(bytes32,uint256)": "infinite",
				"getRoleMemberCount(bytes32)": "infinite",
				"grantRole(bytes32,address)": "infinite",
				"hasRole(bytes32,address)": "infinite",
				"modifyIpfs1(bytes32,bytes32)": "infinite",
				"modifyIpfs2(bytes32,bytes32)": "infinite",
				"modifyRecord(bytes32,bytes32,uint8,uint32,uint256,uint256)": "infinite",
				"newRecord(bytes32,bytes32,uint32,uint32)": "infinite",
				"pause()": "infinite",
				"paused()": "1100",
				"renounceRole(bytes32,address)": "infinite",
				"resolveContractAddress(string)": "infinite",
				"retrieveRecord(bytes32)": "infinite",
				"retrieveShortRecord(bytes32)": "4451",
				"revokeRole(bytes32,address)": "infinite",
				"setEscrow(bytes32,uint8)": "25047",
				"setStolenOrLost(bytes32,uint8)": "infinite",
				"unpause()": "infinite"
			},
			"internal": {
				"isEscrow(uint8)": "192",
				"isLostOrStolen(uint8)": "185",
				"isTransferred(uint8)": "105"
			}
		},
		"methodIdentifiers": {
			"B320xF_()": "3b21fd68",
			"CONTRACT_ADMIN_ROLE()": "1da03312",
			"ContractInfoHash(address,uint32)": "df9f6936",
			"DEFAULT_ADMIN_ROLE()": "a217fddf",
			"OO_addContract(string,address,uint32,uint8)": "79514e5b",
			"PAUSER_ROLE()": "e63ab1e9",
			"_verifyRightsHolder(bytes32,bytes32)": "d3dbdbda",
			"blockchainVerifyRightsHolder(bytes32,bytes32)": "8d9fc872",
			"changeAC(bytes32,uint32)": "62a02f86",
			"enableContractForAC(string,uint32,uint8)": "f76b6ac5",
			"endEscrow(bytes32)": "e8e1152c",
			"getRoleAdmin(bytes32)": "248a9ca3",
			"getRoleMember(bytes32,uint256)": "9010d07c",
			"getRoleMemberCount(bytes32)": "ca15c873",
			"grantRole(bytes32,address)": "2f2ff15d",
			"hasRole(bytes32,address)": "91d14854",
			"modifyIpfs1(bytes32,bytes32)": "42cdc4a4",
			"modifyIpfs2(bytes32,bytes32)": "a9193045",
			"modifyRecord(bytes32,bytes32,uint8,uint32,uint256,uint256)": "635d54fe",
			"newRecord(bytes32,bytes32,uint32,uint32)": "3530d114",
			"pause()": "8456cb59",
			"paused()": "5c975abb",
			"renounceRole(bytes32,address)": "36568abe",
			"resolveContractAddress(string)": "c771a982",
			"retrieveRecord(bytes32)": "e248f2c4",
			"retrieveShortRecord(bytes32)": "6707f608",
			"revokeRole(bytes32,address)": "d547741f",
			"setEscrow(bytes32,uint8)": "5afc3cb4",
			"setStolenOrLost(bytes32,uint8)": "f22354a6",
			"unpause()": "3f4ba83a"
		}
	},
	"abi": [
		{
			"inputs": [],
			"stateMutability": "nonpayable",
			"type": "constructor"
		},
		{
			"anonymous": false,
			"inputs": [
				{
					"indexed": false,
					"internalType": "address",
					"name": "account",
					"type": "address"
				}
			],
			"name": "Paused",
			"type": "event"
		},
		{
			"anonymous": false,
			"inputs": [
				{
					"indexed": false,
					"internalType": "string",
					"name": "_msg",
					"type": "string"
				},
				{
					"indexed": false,
					"internalType": "bytes32",
					"name": "b32",
					"type": "bytes32"
				}
			],
			"name": "REPORT",
			"type": "event"
		},
		{
			"anonymous": false,
			"inputs": [
				{
					"indexed": true,
					"internalType": "bytes32",
					"name": "role",
					"type": "bytes32"
				},
				{
					"indexed": true,
					"internalType": "bytes32",
					"name": "previousAdminRole",
					"type": "bytes32"
				},
				{
					"indexed": true,
					"internalType": "bytes32",
					"name": "newAdminRole",
					"type": "bytes32"
				}
			],
			"name": "RoleAdminChanged",
			"type": "event"
		},
		{
			"anonymous": false,
			"inputs": [
				{
					"indexed": true,
					"internalType": "bytes32",
					"name": "role",
					"type": "bytes32"
				},
				{
					"indexed": true,
					"internalType": "address",
					"name": "account",
					"type": "address"
				},
				{
					"indexed": true,
					"internalType": "address",
					"name": "sender",
					"type": "address"
				}
			],
			"name": "RoleGranted",
			"type": "event"
		},
		{
			"anonymous": false,
			"inputs": [
				{
					"indexed": true,
					"internalType": "bytes32",
					"name": "role",
					"type": "bytes32"
				},
				{
					"indexed": true,
					"internalType": "address",
					"name": "account",
					"type": "address"
				},
				{
					"indexed": true,
					"internalType": "address",
					"name": "sender",
					"type": "address"
				}
			],
			"name": "RoleRevoked",
			"type": "event"
		},
		{
			"anonymous": false,
			"inputs": [
				{
					"indexed": false,
					"internalType": "address",
					"name": "account",
					"type": "address"
				}
			],
			"name": "Unpaused",
			"type": "event"
		},
		{
			"inputs": [],
			"name": "B320xF_",
			"outputs": [
				{
					"internalType": "bytes32",
					"name": "",
					"type": "bytes32"
				}
			],
			"stateMutability": "view",
			"type": "function"
		},
		{
			"inputs": [],
			"name": "CONTRACT_ADMIN_ROLE",
			"outputs": [
				{
					"internalType": "bytes32",
					"name": "",
					"type": "bytes32"
				}
			],
			"stateMutability": "view",
			"type": "function"
		},
		{
			"inputs": [
				{
					"internalType": "address",
					"name": "_addr",
					"type": "address"
				},
				{
					"internalType": "uint32",
					"name": "_assetClass",
					"type": "uint32"
				}
			],
			"name": "ContractInfoHash",
			"outputs": [
				{
					"internalType": "uint8",
					"name": "",
					"type": "uint8"
				},
				{
					"internalType": "bytes32",
					"name": "",
					"type": "bytes32"
				}
			],
			"stateMutability": "view",
			"type": "function"
		},
		{
			"inputs": [],
			"name": "DEFAULT_ADMIN_ROLE",
			"outputs": [
				{
					"internalType": "bytes32",
					"name": "",
					"type": "bytes32"
				}
			],
			"stateMutability": "view",
			"type": "function"
		},
		{
			"inputs": [
				{
					"internalType": "string",
					"name": "_name",
					"type": "string"
				},
				{
					"internalType": "address",
					"name": "_addr",
					"type": "address"
				},
				{
					"internalType": "uint32",
					"name": "_assetClass",
					"type": "uint32"
				},
				{
					"internalType": "uint8",
					"name": "_contractAuthLevel",
					"type": "uint8"
				}
			],
			"name": "OO_addContract",
			"outputs": [],
			"stateMutability": "nonpayable",
			"type": "function"
		},
		{
			"inputs": [],
			"name": "PAUSER_ROLE",
			"outputs": [
				{
					"internalType": "bytes32",
					"name": "",
					"type": "bytes32"
				}
			],
			"stateMutability": "view",
			"type": "function"
		},
		{
			"inputs": [
				{
					"internalType": "bytes32",
					"name": "_idxHash",
					"type": "bytes32"
				},
				{
					"internalType": "bytes32",
					"name": "_rgtHash",
					"type": "bytes32"
				}
			],
			"name": "_verifyRightsHolder",
			"outputs": [
				{
					"internalType": "uint256",
					"name": "",
					"type": "uint256"
				}
			],
			"stateMutability": "view",
			"type": "function"
		},
		{
			"inputs": [
				{
					"internalType": "bytes32",
					"name": "_idxHash",
					"type": "bytes32"
				},
				{
					"internalType": "bytes32",
					"name": "_rgtHash",
					"type": "bytes32"
				}
			],
			"name": "blockchainVerifyRightsHolder",
			"outputs": [
				{
					"internalType": "uint256",
					"name": "",
					"type": "uint256"
				}
			],
			"stateMutability": "nonpayable",
			"type": "function"
		},
		{
			"inputs": [
				{
					"internalType": "bytes32",
					"name": "_idxHash",
					"type": "bytes32"
				},
				{
					"internalType": "uint32",
					"name": "_newAssetClass",
					"type": "uint32"
				}
			],
			"name": "changeAC",
			"outputs": [],
			"stateMutability": "nonpayable",
			"type": "function"
		},
		{
			"inputs": [
				{
					"internalType": "string",
					"name": "_name",
					"type": "string"
				},
				{
					"internalType": "uint32",
					"name": "_assetClass",
					"type": "uint32"
				},
				{
					"internalType": "uint8",
					"name": "_contractAuthLevel",
					"type": "uint8"
				}
			],
			"name": "enableContractForAC",
			"outputs": [],
			"stateMutability": "nonpayable",
			"type": "function"
		},
		{
			"inputs": [
				{
					"internalType": "bytes32",
					"name": "_idxHash",
					"type": "bytes32"
				}
			],
			"name": "endEscrow",
			"outputs": [],
			"stateMutability": "nonpayable",
			"type": "function"
		},
		{
			"inputs": [
				{
					"internalType": "bytes32",
					"name": "role",
					"type": "bytes32"
				}
			],
			"name": "getRoleAdmin",
			"outputs": [
				{
					"internalType": "bytes32",
					"name": "",
					"type": "bytes32"
				}
			],
			"stateMutability": "view",
			"type": "function"
		},
		{
			"inputs": [
				{
					"internalType": "bytes32",
					"name": "role",
					"type": "bytes32"
				},
				{
					"internalType": "uint256",
					"name": "index",
					"type": "uint256"
				}
			],
			"name": "getRoleMember",
			"outputs": [
				{
					"internalType": "address",
					"name": "",
					"type": "address"
				}
			],
			"stateMutability": "view",
			"type": "function"
		},
		{
			"inputs": [
				{
					"internalType": "bytes32",
					"name": "role",
					"type": "bytes32"
				}
			],
			"name": "getRoleMemberCount",
			"outputs": [
				{
					"internalType": "uint256",
					"name": "",
					"type": "uint256"
				}
			],
			"stateMutability": "view",
			"type": "function"
		},
		{
			"inputs": [
				{
					"internalType": "bytes32",
					"name": "role",
					"type": "bytes32"
				},
				{
					"internalType": "address",
					"name": "account",
					"type": "address"
				}
			],
			"name": "grantRole",
			"outputs": [],
			"stateMutability": "nonpayable",
			"type": "function"
		},
		{
			"inputs": [
				{
					"internalType": "bytes32",
					"name": "role",
					"type": "bytes32"
				},
				{
					"internalType": "address",
					"name": "account",
					"type": "address"
				}
			],
			"name": "hasRole",
			"outputs": [
				{
					"internalType": "bool",
					"name": "",
					"type": "bool"
				}
			],
			"stateMutability": "view",
			"type": "function"
		},
		{
			"inputs": [
				{
					"internalType": "bytes32",
					"name": "_idxHash",
					"type": "bytes32"
				},
				{
					"internalType": "bytes32",
					"name": "_Ipfs1",
					"type": "bytes32"
				}
			],
			"name": "modifyIpfs1",
			"outputs": [],
			"stateMutability": "nonpayable",
			"type": "function"
		},
		{
			"inputs": [
				{
					"internalType": "bytes32",
					"name": "_idxHash",
					"type": "bytes32"
				},
				{
					"internalType": "bytes32",
					"name": "_Ipfs2",
					"type": "bytes32"
				}
			],
			"name": "modifyIpfs2",
			"outputs": [],
			"stateMutability": "nonpayable",
			"type": "function"
		},
		{
			"inputs": [
				{
					"internalType": "bytes32",
					"name": "_idxHash",
					"type": "bytes32"
				},
				{
					"internalType": "bytes32",
					"name": "_rgtHash",
					"type": "bytes32"
				},
				{
					"internalType": "uint8",
					"name": "_newAssetStatus",
					"type": "uint8"
				},
				{
					"internalType": "uint32",
					"name": "_countDown",
					"type": "uint32"
				},
				{
					"internalType": "uint256",
					"name": "_incrementForceModCount",
					"type": "uint256"
				},
				{
					"internalType": "uint256",
					"name": "_incrementNumberOfTransfers",
					"type": "uint256"
				}
			],
			"name": "modifyRecord",
			"outputs": [],
			"stateMutability": "nonpayable",
			"type": "function"
		},
		{
			"inputs": [
				{
					"internalType": "bytes32",
					"name": "_idxHash",
					"type": "bytes32"
				},
				{
					"internalType": "bytes32",
					"name": "_rgtHash",
					"type": "bytes32"
				},
				{
					"internalType": "uint32",
					"name": "_assetClass",
					"type": "uint32"
				},
				{
					"internalType": "uint32",
					"name": "_countDownStart",
					"type": "uint32"
				}
			],
			"name": "newRecord",
			"outputs": [],
			"stateMutability": "nonpayable",
			"type": "function"
		},
		{
			"inputs": [],
			"name": "pause",
			"outputs": [],
			"stateMutability": "nonpayable",
			"type": "function"
		},
		{
			"inputs": [],
			"name": "paused",
			"outputs": [
				{
					"internalType": "bool",
					"name": "",
					"type": "bool"
				}
			],
			"stateMutability": "view",
			"type": "function"
		},
		{
			"inputs": [
				{
					"internalType": "bytes32",
					"name": "role",
					"type": "bytes32"
				},
				{
					"internalType": "address",
					"name": "account",
					"type": "address"
				}
			],
			"name": "renounceRole",
			"outputs": [],
			"stateMutability": "nonpayable",
			"type": "function"
		},
		{
			"inputs": [
				{
					"internalType": "string",
					"name": "_name",
					"type": "string"
				}
			],
			"name": "resolveContractAddress",
			"outputs": [
				{
					"internalType": "address",
					"name": "",
					"type": "address"
				}
			],
			"stateMutability": "view",
			"type": "function"
		},
		{
			"inputs": [
				{
					"internalType": "bytes32",
					"name": "_idxHash",
					"type": "bytes32"
				}
			],
			"name": "retrieveRecord",
			"outputs": [
				{
					"internalType": "bytes32",
					"name": "",
					"type": "bytes32"
				},
				{
					"internalType": "uint8",
					"name": "",
					"type": "uint8"
				},
				{
					"internalType": "uint32",
					"name": "",
					"type": "uint32"
				},
				{
					"internalType": "uint32",
					"name": "",
					"type": "uint32"
				},
				{
					"internalType": "uint32",
					"name": "",
					"type": "uint32"
				},
				{
					"internalType": "bytes32",
					"name": "",
					"type": "bytes32"
				},
				{
					"internalType": "bytes32",
					"name": "",
					"type": "bytes32"
				}
			],
			"stateMutability": "view",
			"type": "function"
		},
		{
			"inputs": [
				{
					"internalType": "bytes32",
					"name": "_idxHash",
					"type": "bytes32"
				}
			],
			"name": "retrieveShortRecord",
			"outputs": [
				{
					"internalType": "uint8",
					"name": "",
					"type": "uint8"
				},
				{
					"internalType": "uint8",
					"name": "",
					"type": "uint8"
				},
				{
					"internalType": "uint32",
					"name": "",
					"type": "uint32"
				},
				{
					"internalType": "uint32",
					"name": "",
					"type": "uint32"
				},
				{
					"internalType": "uint32",
					"name": "",
					"type": "uint32"
				},
				{
					"internalType": "bytes32",
					"name": "",
					"type": "bytes32"
				},
				{
					"internalType": "bytes32",
					"name": "",
					"type": "bytes32"
				},
				{
					"internalType": "uint16",
					"name": "",
					"type": "uint16"
				}
			],
			"stateMutability": "view",
			"type": "function"
		},
		{
			"inputs": [
				{
					"internalType": "bytes32",
					"name": "role",
					"type": "bytes32"
				},
				{
					"internalType": "address",
					"name": "account",
					"type": "address"
				}
			],
			"name": "revokeRole",
			"outputs": [],
			"stateMutability": "nonpayable",
			"type": "function"
		},
		{
			"inputs": [
				{
					"internalType": "bytes32",
					"name": "_idxHash",
					"type": "bytes32"
				},
				{
					"internalType": "uint8",
					"name": "_newAssetStatus",
					"type": "uint8"
				}
			],
			"name": "setEscrow",
			"outputs": [],
			"stateMutability": "nonpayable",
			"type": "function"
		},
		{
			"inputs": [
				{
					"internalType": "bytes32",
					"name": "_idxHash",
					"type": "bytes32"
				},
				{
					"internalType": "uint8",
					"name": "_newAssetStatus",
					"type": "uint8"
				}
			],
			"name": "setStolenOrLost",
			"outputs": [],
			"stateMutability": "nonpayable",
			"type": "function"
		},
		{
			"inputs": [],
			"name": "unpause",
			"outputs": [],
			"stateMutability": "nonpayable",
			"type": "function"
		}
	]
}