{
	"data": {
		"bytecode": {
			"linkReferences": {},
			"object": "60806040526b0cecb8f27f4200f3a0000000600b55600c80546001600160a01b03191690556001600d553480156200003657600080fd5b506040518060400160405280600c81526020016b50525546204e6574776f726b60a01b8152506040518060400160405280600481526020016328292aa360e11b81525081600490805190602001906200009192919062000271565b508051620000a790600590602084019062000271565b50506006805460ff1916905550620000ca6000620000c46200015d565b62000161565b620000f97f2ce8d04a9c35987429af538825cd2438cc5c5bb5dc427955f84daaa3ea105016620000c46200015d565b620001287f9f2df0fed2c77648de5860a4cc508cd0818c85b8b8a1ab4ceeef8d981c8956a6620000c46200015d565b620001577f65d7a28e3265b37a6474929f336521b332c1681b933f6cb9f3376673440d862a620000c46200015d565b62000354565b3390565b6200016d828262000171565b5050565b6000828152602081815260409091206200019691839062000ff1620001ea821b17901c565b156200016d57620001a66200015d565b6001600160a01b0316816001600160a01b0316837f2f8788117e7eff1d82e926ec794901d17c78024a50270940304540a733656f0d60405160405180910390a45050565b600062000201836001600160a01b0384166200020a565b90505b92915050565b600062000218838362000259565b620002505750815460018181018455600084815260208082209093018490558454848252828601909352604090209190915562000204565b50600062000204565b60009081526001919091016020526040902054151590565b8280546200027f9062000317565b90600052602060002090601f016020900481019282620002a35760008555620002ee565b82601f10620002be57805160ff1916838001178555620002ee565b82800160010185558215620002ee579182015b82811115620002ee578251825591602001919060010190620002d1565b50620002fc92915062000300565b5090565b5b80821115620002fc576000815560010162000301565b6002810460018216806200032c57607f821691505b602082108114156200034e57634e487b7160e01b600052602260045260246000fd5b50919050565b6127f380620003646000396000f3fe608060405234801561001057600080fd5b50600436106102695760003560e01c80637028e2cd11610151578063a457c2d7116100c3578063b3d3d37e11610087578063b3d3d37e146104d4578063ca15c873146104dc578063d5391393146104ef578063d547741f146104f7578063dd62ed3e1461050a578063e63ab1e91461051d57610269565b8063a457c2d71461048b578063a9059cbb1461049e578063ac416253146104b1578063adfcaae0146104c4578063b3b0af6c146104cc57610269565b806391d148541161011557806391d148541461043a57806395d89b411461044d578063981b24d014610455578063992a7176146104685780639b30d1e914610470578063a217fddf1461048357610269565b80637028e2cd146103e457806370a08231146103ec57806379cc6790146103ff5780638456cb59146104125780639010d07c1461041a57610269565b8063313ce567116101ea57806340c10f19116101ae57806340c10f191461037d57806342966c68146103905780634ac3c31b146103a35780634ee2cd7e146103b657806350c7a35c146103c95780635c975abb146103dc57610269565b8063313ce56714610332578063355274ea1461034757806336568abe1461034f57806339509351146103625780633f4ba83a1461037557610269565b806323b872dd1161023157806323b872dd146102de578063248a9ca3146102f15780632670d2161461030457806328db9da61461030c5780632f2ff15d1461031f57610269565b806306fdde031461026e578063095ea7b31461028c578063113e6c0c146102ac57806318160ddd146102c15780631da03312146102d6575b600080fd5b610276610525565b6040516102839190611ccc565b60405180910390f35b61029f61029a366004611c20565b6105b7565b6040516102839190611cb8565b6102bf6102ba366004611c49565b6105d5565b005b6102c9610638565b6040516102839190611cc3565b6102c961063e565b61029f6102ec366004611ba8565b610662565b6102c96102ff366004611c49565b6106f9565b6102bf610711565b6102bf61031a366004611be3565b61073b565b6102bf61032d366004611c61565b6108e1565b61033a610925565b60405161028391906126d1565b6102c961092a565b6102bf61035d366004611c61565b610930565b61029f610370366004611c20565b610972565b6102bf6109c1565b6102bf61038b366004611c20565b610a01565b6102bf61039e366004611c49565b610a53565b6102c96103b1366004611b5c565b610a64565b6102c96103c4366004611c20565b610a7f565b6102bf6103d7366004611b5c565b610ac8565b61029f610b58565b6102c9610b61565b6102c96103fa366004611b5c565b610b85565b6102bf61040d366004611c20565b610ba0565b6102bf610bf5565b61042d610428366004611c83565b610c33565b6040516102839190611ca4565b61029f610448366004611c61565b610c52565b610276610c6a565b6102c9610463366004611c49565b610c79565b6102c9610ca9565b6102bf61047e366004611ba8565b610ccd565b6102c9610d78565b61029f610499366004611c20565b610d7d565b61029f6104ac366004611c20565b610df8565b6102bf6104bf366004611c20565b610e0c565b6102bf610eb6565b6102c9610ec4565b6102c9610ee8565b6102c96104ea366004611c49565b610f3f565b6102c9610f56565b6102bf610505366004611c61565b610f7a565b6102c9610518366004611b76565b610fb4565b6102c9610fdf565b60606004805461053490612722565b80601f016020809104026020016040519081016040528092919081815260200182805461056090612722565b80156105ad5780601f10610582576101008083540402835291602001916105ad565b820191906000526020600020905b81548152906001019060200180831161059057829003601f168201915b5050505050905090565b60006105cb6105c4611006565b848461100a565b5060015b92915050565b6106017f2ce8d04a9c35987429af538825cd2438cc5c5bb5dc427955f84daaa3ea105016610448611006565b6106265760405162461bcd60e51b815260040161061d90612149565b60405180910390fd5b8060aa1415610635576000600d555b50565b60035490565b7f2ce8d04a9c35987429af538825cd2438cc5c5bb5dc427955f84daaa3ea10501681565b600061066f8484846110be565b6001600160a01b038416600090815260026020526040812081610690611006565b6001600160a01b03166001600160a01b03168152602001908152602001600020549050828110156106d35760405162461bcd60e51b815260040161061d90612480565b6106ee856106df611006565b6106e9868561270b565b61100a565b506001949350505050565b6000818152602081905260409020600201545b919050565b6000600e600061071f611006565b6001600160a01b03168152602081019190915260400160002055565b6107677fcdbada398fb3ae55c788123a0c3c0ccb8e69fee2e6b780278b89300b4fc80c90610448611006565b6107835760405162461bcd60e51b815260040161061d90612092565b600d546001146107a55760405162461bcd60e51b815260040161061d90612364565b6001600160a01b0382166000908152600e6020526040902054156107db5760405162461bcd60e51b815260040161061d90611da0565b6107ed608082013560608301356126df565b6107f683610b85565b10156108145760405162461bcd60e51b815260040161061d90611f83565b600c546001600160a01b031661086557610842826108386040840160208501611b5c565b83606001356110be565b610860826108566060840160408501611b5c565b83608001356110be565b6108dd565b6000610876600460608401356126f7565b9050600061088882606085013561270b565b90506108a48461089e6040860160208701611b5c565b836110be565b600c546108bc9085906001600160a01b0316846110be565b6108da846108d06060860160408701611b5c565b85608001356110be565b50505b5050565b6000828152602081905260409020600201546108ff90610448611006565b61091b5760405162461bcd60e51b815260040161061d90611f06565b6108dd82826111e6565b601290565b600b5490565b610938611006565b6001600160a01b0316816001600160a01b0316146109685760405162461bcd60e51b815260040161061d9061264b565b6108dd828261124f565b60006105cb61097f611006565b84846002600061098d611006565b6001600160a01b03908116825260208083019390935260409182016000908120918b16815292529020546106e991906126df565b6109db60008051602061279e833981519152610448611006565b6109f75760405162461bcd60e51b815260040161061d906120d7565b6109ff6112b8565b565b610a2d7f9f2df0fed2c77648de5860a4cc508cd0818c85b8b8a1ab4ceeef8d981c8956a6610448611006565b610a495760405162461bcd60e51b815260040161061d90612449565b6108dd8282611326565b610635610a5e611006565b826113e6565b6001600160a01b03166000908152600e602052604090205490565b6001600160a01b038216600090815260076020526040812081908190610aa69085906114cc565b9150915081610abd57610ab885610b85565b610abf565b805b95945050505050565b610af47f2ce8d04a9c35987429af538825cd2438cc5c5bb5dc427955f84daaa3ea105016610448611006565b610b105760405162461bcd60e51b815260040161061d90612149565b6001600160a01b038116610b365760405162461bcd60e51b815260040161061d906122a1565b600c80546001600160a01b0319166001600160a01b0392909216919091179055565b60065460ff1690565b7f5fdbd35e8da83ee755d5e62a539e5ed7f47126abede0b8b10f9ea43dc6eed07f81565b6001600160a01b031660009081526001602052604090205490565b6000610bae83610518611006565b905081811015610bd05760405162461bcd60e51b815260040161061d906124c8565b610be683610bdc611006565b6106e9858561270b565b610bf083836113e6565b505050565b610c0f60008051602061279e833981519152610448611006565b610c2b5760405162461bcd60e51b815260040161061d906120d7565b6109ff61157a565b6000828152602081905260408120610c4b90836115d5565b9392505050565b6000828152602081905260408120610c4b90836115e1565b60606005805461053490612722565b6000806000610c898460086114cc565b9150915081610c9f57610c9a610638565b610ca1565b805b949350505050565b7feeed90ae47cd1f23b88ce446295f1ca23c5e4f5b894addbe83563fd27494e29481565b610cf97feeed90ae47cd1f23b88ce446295f1ca23c5e4f5b894addbe83563fd27494e294610448611006565b610d155760405162461bcd60e51b815260040161061d90611d1f565b600d54600114610d375760405162461bcd60e51b815260040161061d90611e82565b6001600160a01b0383166000908152600e602052604090205415610d6d5760405162461bcd60e51b815260040161061d9061203e565b610bf08383836110be565b600081565b60008060026000610d8c611006565b6001600160a01b0390811682526020808301939093526040918201600090812091881681529252902054905082811015610dd85760405162461bcd60e51b815260040161061d90612606565b610dee610de3611006565b856106e9868561270b565b5060019392505050565b60006105cb610e05611006565b84846110be565b610e387feeed90ae47cd1f23b88ce446295f1ca23c5e4f5b894addbe83563fd27494e294610448611006565b610e545760405162461bcd60e51b815260040161061d90611d1f565b600d54600114610e765760405162461bcd60e51b815260040161061d90611e82565b6001600160a01b0382166000908152600e602052604090205415610eac5760405162461bcd60e51b815260040161061d9061224d565b6108dd82826113e6565b60aa600e600061071f611006565b7fcdbada398fb3ae55c788123a0c3c0ccb8e69fee2e6b780278b89300b4fc80c9081565b6000610f167f5fdbd35e8da83ee755d5e62a539e5ed7f47126abede0b8b10f9ea43dc6eed07f610448611006565b610f325760405162461bcd60e51b815260040161061d906121db565b610f3a6115f6565b905090565b60008181526020819052604081206105cf9061164c565b7f9f2df0fed2c77648de5860a4cc508cd0818c85b8b8a1ab4ceeef8d981c8956a681565b600082815260208190526040902060020154610f9890610448611006565b6109685760405162461bcd60e51b815260040161061d906122ea565b6001600160a01b03918216600090815260026020908152604080832093909416825291909152205490565b60008051602061279e83398151915281565b6000610c4b836001600160a01b038416611657565b3390565b6001600160a01b0383166110305760405162461bcd60e51b815260040161061d90612592565b6001600160a01b0382166110565760405162461bcd60e51b815260040161061d90611ffc565b6001600160a01b0380841660008181526002602090815260408083209487168084529490915290819020849055517f8c5be1e5ebec7d5bd14f71427d1e84f3dd0314c0f7b2291e5b200ac8c7c3b925906110b1908590611cc3565b60405180910390a3505050565b6001600160a01b0383166110e45760405162461bcd60e51b815260040161061d9061254d565b6001600160a01b03821661110a5760405162461bcd60e51b815260040161061d90611e3f565b6111158383836116a1565b6001600160a01b0383166000908152600160205260409020548181101561114e5760405162461bcd60e51b815260040161061d90612195565b611158828261270b565b6001600160a01b03808616600090815260016020526040808220939093559085168152908120805484929061118e9084906126df565b92505081905550826001600160a01b0316846001600160a01b03167fddf252ad1be2c89b69c2b068fc378daa952ba7f163c4a11628f55a4df523b3ef846040516111d89190611cc3565b60405180910390a350505050565b60008281526020819052604090206111fe9082610ff1565b156108dd5761120b611006565b6001600160a01b0316816001600160a01b0316837f2f8788117e7eff1d82e926ec794901d17c78024a50270940304540a733656f0d60405160405180910390a45050565b60008281526020819052604090206112679082611733565b156108dd57611274611006565b6001600160a01b0316816001600160a01b0316837ff6391f5c32d9c69d2a47ea670b442974b53935d1edc7fd64eb21e047a839171b60405160405180910390a45050565b6112c0610b58565b6112dc5760405162461bcd60e51b815260040161061d90611f55565b6006805460ff191690557f5db9ee0a495bf2e6ff9c91a7834c1ba4fdd244a5e8aa4e537bd38aeae4b073aa61130f611006565b60405161131c9190611ca4565b60405180910390a1565b6001600160a01b03821661134c5760405162461bcd60e51b815260040161061d9061269a565b611358600083836116a1565b806003600082825461136a91906126df565b90915550506001600160a01b038216600090815260016020526040812080548392906113979084906126df565b90915550506040516001600160a01b038316906000907fddf252ad1be2c89b69c2b068fc378daa952ba7f163c4a11628f55a4df523b3ef906113da908590611cc3565b60405180910390a35050565b6001600160a01b03821661140c5760405162461bcd60e51b815260040161061d9061250c565b611418826000836116a1565b6001600160a01b038216600090815260016020526040902054818110156114515760405162461bcd60e51b815260040161061d90611fba565b61145b828261270b565b6001600160a01b0384166000908152600160205260408120919091556003805484929061148990849061270b565b90915550506040516000906001600160a01b038516907fddf252ad1be2c89b69c2b068fc378daa952ba7f163c4a11628f55a4df523b3ef906110b1908690611cc3565b600080600084116114ef5760405162461bcd60e51b815260040161061d906125d6565b6114f9600a611748565b8411156115185760405162461bcd60e51b815260040161061d90611d69565b6000611524848661174c565b845490915081141561153d576000809250925050611573565b600184600101828154811061156257634e487b7160e01b600052603260045260246000fd5b906000526020600020015492509250505b9250929050565b611582610b58565b1561159f5760405162461bcd60e51b815260040161061d9061233a565b6006805460ff191660011790557f62e78cea01bee320cd4e420270b5ea74000d11b0c9f74754ebdbfc544b05a25861130f611006565b6000610c4b838361182b565b6000610c4b836001600160a01b038416611884565b6000611602600a61189c565b600061160e600a611748565b90507f8030e83b04d87bef53480e26263266d6ca66863aa8506aca6f2559d18aa1cb678160405161163f9190611cc3565b60405180910390a1905090565b60006105cf82611748565b60006116638383611884565b611699575081546001818101845560008481526020808220909301849055845484825282860190935260409020919091556105cf565b5060006105cf565b6116ac8383836118a5565b6116b4610b58565b15806116d557506116d560008051602061279e833981519152610448611006565b6116f15760405162461bcd60e51b815260040161061d906123f3565b6001600160a01b038316610bf057600b548161170b610638565b61171591906126df565b1115610bf05760405162461bcd60e51b815260040161061d90612119565b6000610c4b836001600160a01b0384166118fd565b5490565b815460009061175d575060006105cf565b82546000905b808210156117c75760006117778383611a1a565b90508486828154811061179a57634e487b7160e01b600052603260045260246000fd5b906000526020600020015411156117b3578091506117c1565b6117be8160016126df565b92505b50611763565b60008211801561180a575083856117df60018561270b565b815481106117fd57634e487b7160e01b600052603260045260246000fd5b9060005260206000200154145b156118235761181a60018361270b565b925050506105cf565b5090506105cf565b8154600090821061184e5760405162461bcd60e51b815260040161061d90611dfd565b82600001828154811061187157634e487b7160e01b600052603260045260246000fd5b9060005260206000200154905092915050565b60009081526001919091016020526040902054151590565b80546001019055565b6118b0838383610bf0565b6001600160a01b0383166118d4576118c782611a71565b6118cf611a9b565b610bf0565b6001600160a01b0382166118eb576118c783611a71565b6118f483611a71565b610bf082611a71565b60008181526001830160205260408120548015611a1057600061192160018361270b565b85549091506000906119359060019061270b565b9050600086600001828154811061195c57634e487b7160e01b600052603260045260246000fd5b906000526020600020015490508087600001848154811061198d57634e487b7160e01b600052603260045260246000fd5b6000918252602090912001556119a48360016126df565b600082815260018901602052604090205586548790806119d457634e487b7160e01b600052603160045260246000fd5b600190038181906000526020600020016000905590558660010160008781526020019081526020016000206000905560019450505050506105cf565b60009150506105cf565b60006002611a28818461275d565b611a3360028661275d565b611a3d91906126df565b611a4791906126f7565b611a526002846126f7565b611a5d6002866126f7565b611a6791906126df565b610c4b91906126df565b6001600160a01b038116600090815260076020526040902061063590611a9683610b85565b611aa8565b6109ff6008611a96610638565b6000611ab4600a611748565b905080611ac084611af4565b1015610bf0578254600180820185556000858152602080822090930193909355938401805494850181558252902090910155565b8054600090611b055750600061070c565b81548290611b159060019061270b565b81548110611b3357634e487b7160e01b600052603260045260246000fd5b9060005260206000200154905061070c565b80356001600160a01b038116811461070c57600080fd5b600060208284031215611b6d578081fd5b610c4b82611b45565b60008060408385031215611b88578081fd5b611b9183611b45565b9150611b9f60208401611b45565b90509250929050565b600080600060608486031215611bbc578081fd5b611bc584611b45565b9250611bd360208501611b45565b9150604084013590509250925092565b60008082840360c0811215611bf6578283fd5b611bff84611b45565b925060a0601f1982011215611c12578182fd5b506020830190509250929050565b60008060408385031215611c32578182fd5b611c3b83611b45565b946020939093013593505050565b600060208284031215611c5a578081fd5b5035919050565b60008060408385031215611c73578182fd5b82359150611b9f60208401611b45565b60008060408385031215611c95578182fd5b50508035926020909101359150565b6001600160a01b0391909116815260200190565b901515815260200190565b90815260200190565b6000602080835283518082850152825b81811015611cf857858101830151858201604001528201611cdc565b81811115611d095783604083870101525b50601f01601f1916929092016040019392505050565b6020808252602a908201527f505275463a4d4f442d4954413a204d757374206861766520545255535445445f6040820152694147454e545f524f4c4560b01b606082015260800190565b6020808252601d908201527f4552433230536e617073686f743a206e6f6e6578697374656e74206964000000604082015260600190565b6020808252603c908201527f505275463a5046533a20436f6c642057616c6c6574202d20547275737465642060408201527f70617961626c652066756e6374696f6e732070726f6869626974656400000000606082015260800190565b60208082526022908201527f456e756d657261626c655365743a20696e646578206f7574206f6620626f756e604082015261647360f01b606082015260800190565b60208082526023908201527f45524332303a207472616e7366657220746f20746865207a65726f206164647260408201526265737360e81b606082015260800190565b602080825260609082018190527f505275463a4d4f442d4954413a2054727573746564204167656e742066756e6360408301527f74696f6e207065726d616e656e746c792064697361626c6564202d2075736520908201527f616c6c6f77616e6365202f207472616e7366657246726f6d207061747465726e608082015260a00190565b6020808252602f908201527f416363657373436f6e74726f6c3a2073656e646572206d75737420626520616e60408201526e0818591b5a5b881d1bc819dc985b9d608a1b606082015260800190565b60208082526014908201527314185d5cd8589b194e881b9bdd081c185d5cd95960621b604082015260600190565b6020808252601e908201527f505275463a5046533a20496e73756666696369656e742062616c616e63650000604082015260600190565b60208082526022908201527f45524332303a206275726e20616d6f756e7420657863656564732062616c616e604082015261636560f01b606082015260800190565b60208082526022908201527f45524332303a20617070726f766520746f20746865207a65726f206164647265604082015261737360f01b606082015260800190565b60208082526034908201527f505275463a5441543a20436f6c642057616c6c6574202d205472757374656420604082015273199d5b98dd1a5bdb9cc81c1c9bda1a589a5d195960621b606082015260800190565b60208082526025908201527f505275463a4d4f442d495041593a204d75737420686176652050415941424c456040820152645f524f4c4560d81b606082015260800190565b60208082526022908201527f505275463a4d4f442d49503a204d7573742068617665205041555345525f524f6040820152614c4560f01b606082015260800190565b60208082526016908201527514149d518e9095150e8810d85c08195e18d95959195960521b604082015260600190565b6020808252602c908201527f505275463a4d4f442d4941444d3a204d757374206861766520434f4e5452414360408201526b545f41444d494e5f524f4c4560a01b606082015260800190565b60208082526026908201527f45524332303a207472616e7366657220616d6f756e7420657863656564732062604082015265616c616e636560d01b606082015260800190565b6020808252604c908201527f505275463a54533a2045524332305072657365744d696e74657250617573657260408201527f3a206d757374206861766520736e617073686f7420726f6c6520746f2074616b60608201526b194818481cdb985c1cda1bdd60a21b608082015260a00190565b60208082526034908201527f505275463a5441423a20436f6c642057616c6c6574202d205472757374656420604082015273199d5b98dd1a5bdb9cc81c1c9bda1a589a5d195960621b606082015260800190565b60208082526029908201527f505275463a415353413a205061796d656e7420616464726573732063616e6e6f60408201526874206265207a65726f60b81b606082015260800190565b60208082526030908201527f416363657373436f6e74726f6c3a2073656e646572206d75737420626520616e60408201526f2061646d696e20746f207265766f6b6560801b606082015260800190565b60208082526010908201526f14185d5cd8589b194e881c185d5cd95960821b604082015260600190565b60208082526063908201527f505275463a4d4f442d495041593a20547275737465642050617961626c65204660408201527f756e6374696f6e207065726d616e656e746c792064697361626c6564202d207560608201527f736520616c6c6f77616e6365202f207472616e7366657246726f6d207061747460808201526232b93760e91b60a082015260c00190565b60208082526036908201527f505275463a4254543a2046756e6374696f6e20756e617661696c626c652077686040820152751a5b194818dbdb9d1c9858dd081a5cc81c185d5cd95960521b606082015260800190565b6020808252601d908201527f505275463a4d3a204d7573742068617665204d494e5445525f524f4c45000000604082015260600190565b60208082526028908201527f45524332303a207472616e7366657220616d6f756e74206578636565647320616040820152676c6c6f77616e636560c01b606082015260800190565b60208082526024908201527f45524332303a206275726e20616d6f756e74206578636565647320616c6c6f77604082015263616e636560e01b606082015260800190565b60208082526021908201527f45524332303a206275726e2066726f6d20746865207a65726f206164647265736040820152607360f81b606082015260800190565b60208082526025908201527f45524332303a207472616e736665722066726f6d20746865207a65726f206164604082015264647265737360d81b606082015260800190565b60208082526024908201527f45524332303a20617070726f76652066726f6d20746865207a65726f206164646040820152637265737360e01b606082015260800190565b60208082526016908201527504552433230536e617073686f743a20696420697320360541b604082015260600190565b60208082526025908201527f45524332303a2064656372656173656420616c6c6f77616e63652062656c6f77604082015264207a65726f60d81b606082015260800190565b6020808252602f908201527f416363657373436f6e74726f6c3a2063616e206f6e6c792072656e6f756e636560408201526e103937b632b9903337b91039b2b63360891b606082015260800190565b6020808252601f908201527f45524332303a206d696e7420746f20746865207a65726f206164647265737300604082015260600190565b60ff91909116815260200190565b600082198211156126f2576126f2612771565b500190565b60008261270657612706612787565b500490565b60008282101561271d5761271d612771565b500390565b60028104600182168061273657607f821691505b6020821081141561275757634e487b7160e01b600052602260045260246000fd5b50919050565b60008261276c5761276c612787565b500690565b634e487b7160e01b600052601160045260246000fd5b634e487b7160e01b600052601260045260246000fdfe65d7a28e3265b37a6474929f336521b332c1681b933f6cb9f3376673440d862aa2646970667358221220da36636dec203b669bbf43c798ef2b1448e532528f5b80a2115b4aaef2c42db164736f6c63430008010033",
			"opcodes": "PUSH1 0x80 PUSH1 0x40 MSTORE PUSH12 0xCECB8F27F4200F3A0000000 PUSH1 0xB SSTORE PUSH1 0xC DUP1 SLOAD PUSH1 0x1 PUSH1 0x1 PUSH1 0xA0 SHL SUB NOT AND SWAP1 SSTORE PUSH1 0x1 PUSH1 0xD SSTORE CALLVALUE DUP1 ISZERO PUSH3 0x36 JUMPI PUSH1 0x0 DUP1 REVERT JUMPDEST POP PUSH1 0x40 MLOAD DUP1 PUSH1 0x40 ADD PUSH1 0x40 MSTORE DUP1 PUSH1 0xC DUP2 MSTORE PUSH1 0x20 ADD PUSH12 0x50525546204E6574776F726B PUSH1 0xA0 SHL DUP2 MSTORE POP PUSH1 0x40 MLOAD DUP1 PUSH1 0x40 ADD PUSH1 0x40 MSTORE DUP1 PUSH1 0x4 DUP2 MSTORE PUSH1 0x20 ADD PUSH4 0x28292AA3 PUSH1 0xE1 SHL DUP2 MSTORE POP DUP2 PUSH1 0x4 SWAP1 DUP1 MLOAD SWAP1 PUSH1 0x20 ADD SWAP1 PUSH3 0x91 SWAP3 SWAP2 SWAP1 PUSH3 0x271 JUMP JUMPDEST POP DUP1 MLOAD PUSH3 0xA7 SWAP1 PUSH1 0x5 SWAP1 PUSH1 0x20 DUP5 ADD SWAP1 PUSH3 0x271 JUMP JUMPDEST POP POP PUSH1 0x6 DUP1 SLOAD PUSH1 0xFF NOT AND SWAP1 SSTORE POP PUSH3 0xCA PUSH1 0x0 PUSH3 0xC4 PUSH3 0x15D JUMP JUMPDEST PUSH3 0x161 JUMP JUMPDEST PUSH3 0xF9 PUSH32 0x2CE8D04A9C35987429AF538825CD2438CC5C5BB5DC427955F84DAAA3EA105016 PUSH3 0xC4 PUSH3 0x15D JUMP JUMPDEST PUSH3 0x128 PUSH32 0x9F2DF0FED2C77648DE5860A4CC508CD0818C85B8B8A1AB4CEEEF8D981C8956A6 PUSH3 0xC4 PUSH3 0x15D JUMP JUMPDEST PUSH3 0x157 PUSH32 0x65D7A28E3265B37A6474929F336521B332C1681B933F6CB9F3376673440D862A PUSH3 0xC4 PUSH3 0x15D JUMP JUMPDEST PUSH3 0x354 JUMP JUMPDEST CALLER SWAP1 JUMP JUMPDEST PUSH3 0x16D DUP3 DUP3 PUSH3 0x171 JUMP JUMPDEST POP POP JUMP JUMPDEST PUSH1 0x0 DUP3 DUP2 MSTORE PUSH1 0x20 DUP2 DUP2 MSTORE PUSH1 0x40 SWAP1 SWAP2 KECCAK256 PUSH3 0x196 SWAP2 DUP4 SWAP1 PUSH3 0xFF1 PUSH3 0x1EA DUP3 SHL OR SWAP1 SHR JUMP JUMPDEST ISZERO PUSH3 0x16D JUMPI PUSH3 0x1A6 PUSH3 0x15D JUMP JUMPDEST PUSH1 0x1 PUSH1 0x1 PUSH1 0xA0 SHL SUB AND DUP2 PUSH1 0x1 PUSH1 0x1 PUSH1 0xA0 SHL SUB AND DUP4 PUSH32 0x2F8788117E7EFF1D82E926EC794901D17C78024A50270940304540A733656F0D PUSH1 0x40 MLOAD PUSH1 0x40 MLOAD DUP1 SWAP2 SUB SWAP1 LOG4 POP POP JUMP JUMPDEST PUSH1 0x0 PUSH3 0x201 DUP4 PUSH1 0x1 PUSH1 0x1 PUSH1 0xA0 SHL SUB DUP5 AND PUSH3 0x20A JUMP JUMPDEST SWAP1 POP JUMPDEST SWAP3 SWAP2 POP POP JUMP JUMPDEST PUSH1 0x0 PUSH3 0x218 DUP4 DUP4 PUSH3 0x259 JUMP JUMPDEST PUSH3 0x250 JUMPI POP DUP2 SLOAD PUSH1 0x1 DUP2 DUP2 ADD DUP5 SSTORE PUSH1 0x0 DUP5 DUP2 MSTORE PUSH1 0x20 DUP1 DUP3 KECCAK256 SWAP1 SWAP4 ADD DUP5 SWAP1 SSTORE DUP5 SLOAD DUP5 DUP3 MSTORE DUP3 DUP7 ADD SWAP1 SWAP4 MSTORE PUSH1 0x40 SWAP1 KECCAK256 SWAP2 SWAP1 SWAP2 SSTORE PUSH3 0x204 JUMP JUMPDEST POP PUSH1 0x0 PUSH3 0x204 JUMP JUMPDEST PUSH1 0x0 SWAP1 DUP2 MSTORE PUSH1 0x1 SWAP2 SWAP1 SWAP2 ADD PUSH1 0x20 MSTORE PUSH1 0x40 SWAP1 KECCAK256 SLOAD ISZERO ISZERO SWAP1 JUMP JUMPDEST DUP3 DUP1 SLOAD PUSH3 0x27F SWAP1 PUSH3 0x317 JUMP JUMPDEST SWAP1 PUSH1 0x0 MSTORE PUSH1 0x20 PUSH1 0x0 KECCAK256 SWAP1 PUSH1 0x1F ADD PUSH1 0x20 SWAP1 DIV DUP2 ADD SWAP3 DUP3 PUSH3 0x2A3 JUMPI PUSH1 0x0 DUP6 SSTORE PUSH3 0x2EE JUMP JUMPDEST DUP3 PUSH1 0x1F LT PUSH3 0x2BE JUMPI DUP1 MLOAD PUSH1 0xFF NOT AND DUP4 DUP1 ADD OR DUP6 SSTORE PUSH3 0x2EE JUMP JUMPDEST DUP3 DUP1 ADD PUSH1 0x1 ADD DUP6 SSTORE DUP3 ISZERO PUSH3 0x2EE JUMPI SWAP2 DUP3 ADD JUMPDEST DUP3 DUP2 GT ISZERO PUSH3 0x2EE JUMPI DUP3 MLOAD DUP3 SSTORE SWAP2 PUSH1 0x20 ADD SWAP2 SWAP1 PUSH1 0x1 ADD SWAP1 PUSH3 0x2D1 JUMP JUMPDEST POP PUSH3 0x2FC SWAP3 SWAP2 POP PUSH3 0x300 JUMP JUMPDEST POP SWAP1 JUMP JUMPDEST JUMPDEST DUP1 DUP3 GT ISZERO PUSH3 0x2FC JUMPI PUSH1 0x0 DUP2 SSTORE PUSH1 0x1 ADD PUSH3 0x301 JUMP JUMPDEST PUSH1 0x2 DUP2 DIV PUSH1 0x1 DUP3 AND DUP1 PUSH3 0x32C JUMPI PUSH1 0x7F DUP3 AND SWAP2 POP JUMPDEST PUSH1 0x20 DUP3 LT DUP2 EQ ISZERO PUSH3 0x34E JUMPI PUSH4 0x4E487B71 PUSH1 0xE0 SHL PUSH1 0x0 MSTORE PUSH1 0x22 PUSH1 0x4 MSTORE PUSH1 0x24 PUSH1 0x0 REVERT JUMPDEST POP SWAP2 SWAP1 POP JUMP JUMPDEST PUSH2 0x27F3 DUP1 PUSH3 0x364 PUSH1 0x0 CODECOPY PUSH1 0x0 RETURN INVALID PUSH1 0x80 PUSH1 0x40 MSTORE CALLVALUE DUP1 ISZERO PUSH2 0x10 JUMPI PUSH1 0x0 DUP1 REVERT JUMPDEST POP PUSH1 0x4 CALLDATASIZE LT PUSH2 0x269 JUMPI PUSH1 0x0 CALLDATALOAD PUSH1 0xE0 SHR DUP1 PUSH4 0x7028E2CD GT PUSH2 0x151 JUMPI DUP1 PUSH4 0xA457C2D7 GT PUSH2 0xC3 JUMPI DUP1 PUSH4 0xB3D3D37E GT PUSH2 0x87 JUMPI DUP1 PUSH4 0xB3D3D37E EQ PUSH2 0x4D4 JUMPI DUP1 PUSH4 0xCA15C873 EQ PUSH2 0x4DC JUMPI DUP1 PUSH4 0xD5391393 EQ PUSH2 0x4EF JUMPI DUP1 PUSH4 0xD547741F EQ PUSH2 0x4F7 JUMPI DUP1 PUSH4 0xDD62ED3E EQ PUSH2 0x50A JUMPI DUP1 PUSH4 0xE63AB1E9 EQ PUSH2 0x51D JUMPI PUSH2 0x269 JUMP JUMPDEST DUP1 PUSH4 0xA457C2D7 EQ PUSH2 0x48B JUMPI DUP1 PUSH4 0xA9059CBB EQ PUSH2 0x49E JUMPI DUP1 PUSH4 0xAC416253 EQ PUSH2 0x4B1 JUMPI DUP1 PUSH4 0xADFCAAE0 EQ PUSH2 0x4C4 JUMPI DUP1 PUSH4 0xB3B0AF6C EQ PUSH2 0x4CC JUMPI PUSH2 0x269 JUMP JUMPDEST DUP1 PUSH4 0x91D14854 GT PUSH2 0x115 JUMPI DUP1 PUSH4 0x91D14854 EQ PUSH2 0x43A JUMPI DUP1 PUSH4 0x95D89B41 EQ PUSH2 0x44D JUMPI DUP1 PUSH4 0x981B24D0 EQ PUSH2 0x455 JUMPI DUP1 PUSH4 0x992A7176 EQ PUSH2 0x468 JUMPI DUP1 PUSH4 0x9B30D1E9 EQ PUSH2 0x470 JUMPI DUP1 PUSH4 0xA217FDDF EQ PUSH2 0x483 JUMPI PUSH2 0x269 JUMP JUMPDEST DUP1 PUSH4 0x7028E2CD EQ PUSH2 0x3E4 JUMPI DUP1 PUSH4 0x70A08231 EQ PUSH2 0x3EC JUMPI DUP1 PUSH4 0x79CC6790 EQ PUSH2 0x3FF JUMPI DUP1 PUSH4 0x8456CB59 EQ PUSH2 0x412 JUMPI DUP1 PUSH4 0x9010D07C EQ PUSH2 0x41A JUMPI PUSH2 0x269 JUMP JUMPDEST DUP1 PUSH4 0x313CE567 GT PUSH2 0x1EA JUMPI DUP1 PUSH4 0x40C10F19 GT PUSH2 0x1AE JUMPI DUP1 PUSH4 0x40C10F19 EQ PUSH2 0x37D JUMPI DUP1 PUSH4 0x42966C68 EQ PUSH2 0x390 JUMPI DUP1 PUSH4 0x4AC3C31B EQ PUSH2 0x3A3 JUMPI DUP1 PUSH4 0x4EE2CD7E EQ PUSH2 0x3B6 JUMPI DUP1 PUSH4 0x50C7A35C EQ PUSH2 0x3C9 JUMPI DUP1 PUSH4 0x5C975ABB EQ PUSH2 0x3DC JUMPI PUSH2 0x269 JUMP JUMPDEST DUP1 PUSH4 0x313CE567 EQ PUSH2 0x332 JUMPI DUP1 PUSH4 0x355274EA EQ PUSH2 0x347 JUMPI DUP1 PUSH4 0x36568ABE EQ PUSH2 0x34F JUMPI DUP1 PUSH4 0x39509351 EQ PUSH2 0x362 JUMPI DUP1 PUSH4 0x3F4BA83A EQ PUSH2 0x375 JUMPI PUSH2 0x269 JUMP JUMPDEST DUP1 PUSH4 0x23B872DD GT PUSH2 0x231 JUMPI DUP1 PUSH4 0x23B872DD EQ PUSH2 0x2DE JUMPI DUP1 PUSH4 0x248A9CA3 EQ PUSH2 0x2F1 JUMPI DUP1 PUSH4 0x2670D216 EQ PUSH2 0x304 JUMPI DUP1 PUSH4 0x28DB9DA6 EQ PUSH2 0x30C JUMPI DUP1 PUSH4 0x2F2FF15D EQ PUSH2 0x31F JUMPI PUSH2 0x269 JUMP JUMPDEST DUP1 PUSH4 0x6FDDE03 EQ PUSH2 0x26E JUMPI DUP1 PUSH4 0x95EA7B3 EQ PUSH2 0x28C JUMPI DUP1 PUSH4 0x113E6C0C EQ PUSH2 0x2AC JUMPI DUP1 PUSH4 0x18160DDD EQ PUSH2 0x2C1 JUMPI DUP1 PUSH4 0x1DA03312 EQ PUSH2 0x2D6 JUMPI JUMPDEST PUSH1 0x0 DUP1 REVERT JUMPDEST PUSH2 0x276 PUSH2 0x525 JUMP JUMPDEST PUSH1 0x40 MLOAD PUSH2 0x283 SWAP2 SWAP1 PUSH2 0x1CCC JUMP JUMPDEST PUSH1 0x40 MLOAD DUP1 SWAP2 SUB SWAP1 RETURN JUMPDEST PUSH2 0x29F PUSH2 0x29A CALLDATASIZE PUSH1 0x4 PUSH2 0x1C20 JUMP JUMPDEST PUSH2 0x5B7 JUMP JUMPDEST PUSH1 0x40 MLOAD PUSH2 0x283 SWAP2 SWAP1 PUSH2 0x1CB8 JUMP JUMPDEST PUSH2 0x2BF PUSH2 0x2BA CALLDATASIZE PUSH1 0x4 PUSH2 0x1C49 JUMP JUMPDEST PUSH2 0x5D5 JUMP JUMPDEST STOP JUMPDEST PUSH2 0x2C9 PUSH2 0x638 JUMP JUMPDEST PUSH1 0x40 MLOAD PUSH2 0x283 SWAP2 SWAP1 PUSH2 0x1CC3 JUMP JUMPDEST PUSH2 0x2C9 PUSH2 0x63E JUMP JUMPDEST PUSH2 0x29F PUSH2 0x2EC CALLDATASIZE PUSH1 0x4 PUSH2 0x1BA8 JUMP JUMPDEST PUSH2 0x662 JUMP JUMPDEST PUSH2 0x2C9 PUSH2 0x2FF CALLDATASIZE PUSH1 0x4 PUSH2 0x1C49 JUMP JUMPDEST PUSH2 0x6F9 JUMP JUMPDEST PUSH2 0x2BF PUSH2 0x711 JUMP JUMPDEST PUSH2 0x2BF PUSH2 0x31A CALLDATASIZE PUSH1 0x4 PUSH2 0x1BE3 JUMP JUMPDEST PUSH2 0x73B JUMP JUMPDEST PUSH2 0x2BF PUSH2 0x32D CALLDATASIZE PUSH1 0x4 PUSH2 0x1C61 JUMP JUMPDEST PUSH2 0x8E1 JUMP JUMPDEST PUSH2 0x33A PUSH2 0x925 JUMP JUMPDEST PUSH1 0x40 MLOAD PUSH2 0x283 SWAP2 SWAP1 PUSH2 0x26D1 JUMP JUMPDEST PUSH2 0x2C9 PUSH2 0x92A JUMP JUMPDEST PUSH2 0x2BF PUSH2 0x35D CALLDATASIZE PUSH1 0x4 PUSH2 0x1C61 JUMP JUMPDEST PUSH2 0x930 JUMP JUMPDEST PUSH2 0x29F PUSH2 0x370 CALLDATASIZE PUSH1 0x4 PUSH2 0x1C20 JUMP JUMPDEST PUSH2 0x972 JUMP JUMPDEST PUSH2 0x2BF PUSH2 0x9C1 JUMP JUMPDEST PUSH2 0x2BF PUSH2 0x38B CALLDATASIZE PUSH1 0x4 PUSH2 0x1C20 JUMP JUMPDEST PUSH2 0xA01 JUMP JUMPDEST PUSH2 0x2BF PUSH2 0x39E CALLDATASIZE PUSH1 0x4 PUSH2 0x1C49 JUMP JUMPDEST PUSH2 0xA53 JUMP JUMPDEST PUSH2 0x2C9 PUSH2 0x3B1 CALLDATASIZE PUSH1 0x4 PUSH2 0x1B5C JUMP JUMPDEST PUSH2 0xA64 JUMP JUMPDEST PUSH2 0x2C9 PUSH2 0x3C4 CALLDATASIZE PUSH1 0x4 PUSH2 0x1C20 JUMP JUMPDEST PUSH2 0xA7F JUMP JUMPDEST PUSH2 0x2BF PUSH2 0x3D7 CALLDATASIZE PUSH1 0x4 PUSH2 0x1B5C JUMP JUMPDEST PUSH2 0xAC8 JUMP JUMPDEST PUSH2 0x29F PUSH2 0xB58 JUMP JUMPDEST PUSH2 0x2C9 PUSH2 0xB61 JUMP JUMPDEST PUSH2 0x2C9 PUSH2 0x3FA CALLDATASIZE PUSH1 0x4 PUSH2 0x1B5C JUMP JUMPDEST PUSH2 0xB85 JUMP JUMPDEST PUSH2 0x2BF PUSH2 0x40D CALLDATASIZE PUSH1 0x4 PUSH2 0x1C20 JUMP JUMPDEST PUSH2 0xBA0 JUMP JUMPDEST PUSH2 0x2BF PUSH2 0xBF5 JUMP JUMPDEST PUSH2 0x42D PUSH2 0x428 CALLDATASIZE PUSH1 0x4 PUSH2 0x1C83 JUMP JUMPDEST PUSH2 0xC33 JUMP JUMPDEST PUSH1 0x40 MLOAD PUSH2 0x283 SWAP2 SWAP1 PUSH2 0x1CA4 JUMP JUMPDEST PUSH2 0x29F PUSH2 0x448 CALLDATASIZE PUSH1 0x4 PUSH2 0x1C61 JUMP JUMPDEST PUSH2 0xC52 JUMP JUMPDEST PUSH2 0x276 PUSH2 0xC6A JUMP JUMPDEST PUSH2 0x2C9 PUSH2 0x463 CALLDATASIZE PUSH1 0x4 PUSH2 0x1C49 JUMP JUMPDEST PUSH2 0xC79 JUMP JUMPDEST PUSH2 0x2C9 PUSH2 0xCA9 JUMP JUMPDEST PUSH2 0x2BF PUSH2 0x47E CALLDATASIZE PUSH1 0x4 PUSH2 0x1BA8 JUMP JUMPDEST PUSH2 0xCCD JUMP JUMPDEST PUSH2 0x2C9 PUSH2 0xD78 JUMP JUMPDEST PUSH2 0x29F PUSH2 0x499 CALLDATASIZE PUSH1 0x4 PUSH2 0x1C20 JUMP JUMPDEST PUSH2 0xD7D JUMP JUMPDEST PUSH2 0x29F PUSH2 0x4AC CALLDATASIZE PUSH1 0x4 PUSH2 0x1C20 JUMP JUMPDEST PUSH2 0xDF8 JUMP JUMPDEST PUSH2 0x2BF PUSH2 0x4BF CALLDATASIZE PUSH1 0x4 PUSH2 0x1C20 JUMP JUMPDEST PUSH2 0xE0C JUMP JUMPDEST PUSH2 0x2BF PUSH2 0xEB6 JUMP JUMPDEST PUSH2 0x2C9 PUSH2 0xEC4 JUMP JUMPDEST PUSH2 0x2C9 PUSH2 0xEE8 JUMP JUMPDEST PUSH2 0x2C9 PUSH2 0x4EA CALLDATASIZE PUSH1 0x4 PUSH2 0x1C49 JUMP JUMPDEST PUSH2 0xF3F JUMP JUMPDEST PUSH2 0x2C9 PUSH2 0xF56 JUMP JUMPDEST PUSH2 0x2BF PUSH2 0x505 CALLDATASIZE PUSH1 0x4 PUSH2 0x1C61 JUMP JUMPDEST PUSH2 0xF7A JUMP JUMPDEST PUSH2 0x2C9 PUSH2 0x518 CALLDATASIZE PUSH1 0x4 PUSH2 0x1B76 JUMP JUMPDEST PUSH2 0xFB4 JUMP JUMPDEST PUSH2 0x2C9 PUSH2 0xFDF JUMP JUMPDEST PUSH1 0x60 PUSH1 0x4 DUP1 SLOAD PUSH2 0x534 SWAP1 PUSH2 0x2722 JUMP JUMPDEST DUP1 PUSH1 0x1F ADD PUSH1 0x20 DUP1 SWAP2 DIV MUL PUSH1 0x20 ADD PUSH1 0x40 MLOAD SWAP1 DUP2 ADD PUSH1 0x40 MSTORE DUP1 SWAP3 SWAP2 SWAP1 DUP2 DUP2 MSTORE PUSH1 0x20 ADD DUP3 DUP1 SLOAD PUSH2 0x560 SWAP1 PUSH2 0x2722 JUMP JUMPDEST DUP1 ISZERO PUSH2 0x5AD JUMPI DUP1 PUSH1 0x1F LT PUSH2 0x582 JUMPI PUSH2 0x100 DUP1 DUP4 SLOAD DIV MUL DUP4 MSTORE SWAP2 PUSH1 0x20 ADD SWAP2 PUSH2 0x5AD JUMP JUMPDEST DUP3 ADD SWAP2 SWAP1 PUSH1 0x0 MSTORE PUSH1 0x20 PUSH1 0x0 KECCAK256 SWAP1 JUMPDEST DUP2 SLOAD DUP2 MSTORE SWAP1 PUSH1 0x1 ADD SWAP1 PUSH1 0x20 ADD DUP1 DUP4 GT PUSH2 0x590 JUMPI DUP3 SWAP1 SUB PUSH1 0x1F AND DUP3 ADD SWAP2 JUMPDEST POP POP POP POP POP SWAP1 POP SWAP1 JUMP JUMPDEST PUSH1 0x0 PUSH2 0x5CB PUSH2 0x5C4 PUSH2 0x1006 JUMP JUMPDEST DUP5 DUP5 PUSH2 0x100A JUMP JUMPDEST POP PUSH1 0x1 JUMPDEST SWAP3 SWAP2 POP POP JUMP JUMPDEST PUSH2 0x601 PUSH32 0x2CE8D04A9C35987429AF538825CD2438CC5C5BB5DC427955F84DAAA3EA105016 PUSH2 0x448 PUSH2 0x1006 JUMP JUMPDEST PUSH2 0x626 JUMPI PUSH1 0x40 MLOAD PUSH3 0x461BCD PUSH1 0xE5 SHL DUP2 MSTORE PUSH1 0x4 ADD PUSH2 0x61D SWAP1 PUSH2 0x2149 JUMP JUMPDEST PUSH1 0x40 MLOAD DUP1 SWAP2 SUB SWAP1 REVERT JUMPDEST DUP1 PUSH1 0xAA EQ ISZERO PUSH2 0x635 JUMPI PUSH1 0x0 PUSH1 0xD SSTORE JUMPDEST POP JUMP JUMPDEST PUSH1 0x3 SLOAD SWAP1 JUMP JUMPDEST PUSH32 0x2CE8D04A9C35987429AF538825CD2438CC5C5BB5DC427955F84DAAA3EA105016 DUP2 JUMP JUMPDEST PUSH1 0x0 PUSH2 0x66F DUP5 DUP5 DUP5 PUSH2 0x10BE JUMP JUMPDEST PUSH1 0x1 PUSH1 0x1 PUSH1 0xA0 SHL SUB DUP5 AND PUSH1 0x0 SWAP1 DUP2 MSTORE PUSH1 0x2 PUSH1 0x20 MSTORE PUSH1 0x40 DUP2 KECCAK256 DUP2 PUSH2 0x690 PUSH2 0x1006 JUMP JUMPDEST PUSH1 0x1 PUSH1 0x1 PUSH1 0xA0 SHL SUB AND PUSH1 0x1 PUSH1 0x1 PUSH1 0xA0 SHL SUB AND DUP2 MSTORE PUSH1 0x20 ADD SWAP1 DUP2 MSTORE PUSH1 0x20 ADD PUSH1 0x0 KECCAK256 SLOAD SWAP1 POP DUP3 DUP2 LT ISZERO PUSH2 0x6D3 JUMPI PUSH1 0x40 MLOAD PUSH3 0x461BCD PUSH1 0xE5 SHL DUP2 MSTORE PUSH1 0x4 ADD PUSH2 0x61D SWAP1 PUSH2 0x2480 JUMP JUMPDEST PUSH2 0x6EE DUP6 PUSH2 0x6DF PUSH2 0x1006 JUMP JUMPDEST PUSH2 0x6E9 DUP7 DUP6 PUSH2 0x270B JUMP JUMPDEST PUSH2 0x100A JUMP JUMPDEST POP PUSH1 0x1 SWAP5 SWAP4 POP POP POP POP JUMP JUMPDEST PUSH1 0x0 DUP2 DUP2 MSTORE PUSH1 0x20 DUP2 SWAP1 MSTORE PUSH1 0x40 SWAP1 KECCAK256 PUSH1 0x2 ADD SLOAD JUMPDEST SWAP2 SWAP1 POP JUMP JUMPDEST PUSH1 0x0 PUSH1 0xE PUSH1 0x0 PUSH2 0x71F PUSH2 0x1006 JUMP JUMPDEST PUSH1 0x1 PUSH1 0x1 PUSH1 0xA0 SHL SUB AND DUP2 MSTORE PUSH1 0x20 DUP2 ADD SWAP2 SWAP1 SWAP2 MSTORE PUSH1 0x40 ADD PUSH1 0x0 KECCAK256 SSTORE JUMP JUMPDEST PUSH2 0x767 PUSH32 0xCDBADA398FB3AE55C788123A0C3C0CCB8E69FEE2E6B780278B89300B4FC80C90 PUSH2 0x448 PUSH2 0x1006 JUMP JUMPDEST PUSH2 0x783 JUMPI PUSH1 0x40 MLOAD PUSH3 0x461BCD PUSH1 0xE5 SHL DUP2 MSTORE PUSH1 0x4 ADD PUSH2 0x61D SWAP1 PUSH2 0x2092 JUMP JUMPDEST PUSH1 0xD SLOAD PUSH1 0x1 EQ PUSH2 0x7A5 JUMPI PUSH1 0x40 MLOAD PUSH3 0x461BCD PUSH1 0xE5 SHL DUP2 MSTORE PUSH1 0x4 ADD PUSH2 0x61D SWAP1 PUSH2 0x2364 JUMP JUMPDEST PUSH1 0x1 PUSH1 0x1 PUSH1 0xA0 SHL SUB DUP3 AND PUSH1 0x0 SWAP1 DUP2 MSTORE PUSH1 0xE PUSH1 0x20 MSTORE PUSH1 0x40 SWAP1 KECCAK256 SLOAD ISZERO PUSH2 0x7DB JUMPI PUSH1 0x40 MLOAD PUSH3 0x461BCD PUSH1 0xE5 SHL DUP2 MSTORE PUSH1 0x4 ADD PUSH2 0x61D SWAP1 PUSH2 0x1DA0 JUMP JUMPDEST PUSH2 0x7ED PUSH1 0x80 DUP3 ADD CALLDATALOAD PUSH1 0x60 DUP4 ADD CALLDATALOAD PUSH2 0x26DF JUMP JUMPDEST PUSH2 0x7F6 DUP4 PUSH2 0xB85 JUMP JUMPDEST LT ISZERO PUSH2 0x814 JUMPI PUSH1 0x40 MLOAD PUSH3 0x461BCD PUSH1 0xE5 SHL DUP2 MSTORE PUSH1 0x4 ADD PUSH2 0x61D SWAP1 PUSH2 0x1F83 JUMP JUMPDEST PUSH1 0xC SLOAD PUSH1 0x1 PUSH1 0x1 PUSH1 0xA0 SHL SUB AND PUSH2 0x865 JUMPI PUSH2 0x842 DUP3 PUSH2 0x838 PUSH1 0x40 DUP5 ADD PUSH1 0x20 DUP6 ADD PUSH2 0x1B5C JUMP JUMPDEST DUP4 PUSH1 0x60 ADD CALLDATALOAD PUSH2 0x10BE JUMP JUMPDEST PUSH2 0x860 DUP3 PUSH2 0x856 PUSH1 0x60 DUP5 ADD PUSH1 0x40 DUP6 ADD PUSH2 0x1B5C JUMP JUMPDEST DUP4 PUSH1 0x80 ADD CALLDATALOAD PUSH2 0x10BE JUMP JUMPDEST PUSH2 0x8DD JUMP JUMPDEST PUSH1 0x0 PUSH2 0x876 PUSH1 0x4 PUSH1 0x60 DUP5 ADD CALLDATALOAD PUSH2 0x26F7 JUMP JUMPDEST SWAP1 POP PUSH1 0x0 PUSH2 0x888 DUP3 PUSH1 0x60 DUP6 ADD CALLDATALOAD PUSH2 0x270B JUMP JUMPDEST SWAP1 POP PUSH2 0x8A4 DUP5 PUSH2 0x89E PUSH1 0x40 DUP7 ADD PUSH1 0x20 DUP8 ADD PUSH2 0x1B5C JUMP JUMPDEST DUP4 PUSH2 0x10BE JUMP JUMPDEST PUSH1 0xC SLOAD PUSH2 0x8BC SWAP1 DUP6 SWAP1 PUSH1 0x1 PUSH1 0x1 PUSH1 0xA0 SHL SUB AND DUP5 PUSH2 0x10BE JUMP JUMPDEST PUSH2 0x8DA DUP5 PUSH2 0x8D0 PUSH1 0x60 DUP7 ADD PUSH1 0x40 DUP8 ADD PUSH2 0x1B5C JUMP JUMPDEST DUP6 PUSH1 0x80 ADD CALLDATALOAD PUSH2 0x10BE JUMP JUMPDEST POP POP JUMPDEST POP POP JUMP JUMPDEST PUSH1 0x0 DUP3 DUP2 MSTORE PUSH1 0x20 DUP2 SWAP1 MSTORE PUSH1 0x40 SWAP1 KECCAK256 PUSH1 0x2 ADD SLOAD PUSH2 0x8FF SWAP1 PUSH2 0x448 PUSH2 0x1006 JUMP JUMPDEST PUSH2 0x91B JUMPI PUSH1 0x40 MLOAD PUSH3 0x461BCD PUSH1 0xE5 SHL DUP2 MSTORE PUSH1 0x4 ADD PUSH2 0x61D SWAP1 PUSH2 0x1F06 JUMP JUMPDEST PUSH2 0x8DD DUP3 DUP3 PUSH2 0x11E6 JUMP JUMPDEST PUSH1 0x12 SWAP1 JUMP JUMPDEST PUSH1 0xB SLOAD SWAP1 JUMP JUMPDEST PUSH2 0x938 PUSH2 0x1006 JUMP JUMPDEST PUSH1 0x1 PUSH1 0x1 PUSH1 0xA0 SHL SUB AND DUP2 PUSH1 0x1 PUSH1 0x1 PUSH1 0xA0 SHL SUB AND EQ PUSH2 0x968 JUMPI PUSH1 0x40 MLOAD PUSH3 0x461BCD PUSH1 0xE5 SHL DUP2 MSTORE PUSH1 0x4 ADD PUSH2 0x61D SWAP1 PUSH2 0x264B JUMP JUMPDEST PUSH2 0x8DD DUP3 DUP3 PUSH2 0x124F JUMP JUMPDEST PUSH1 0x0 PUSH2 0x5CB PUSH2 0x97F PUSH2 0x1006 JUMP JUMPDEST DUP5 DUP5 PUSH1 0x2 PUSH1 0x0 PUSH2 0x98D PUSH2 0x1006 JUMP JUMPDEST PUSH1 0x1 PUSH1 0x1 PUSH1 0xA0 SHL SUB SWAP1 DUP2 AND DUP3 MSTORE PUSH1 0x20 DUP1 DUP4 ADD SWAP4 SWAP1 SWAP4 MSTORE PUSH1 0x40 SWAP2 DUP3 ADD PUSH1 0x0 SWAP1 DUP2 KECCAK256 SWAP2 DUP12 AND DUP2 MSTORE SWAP3 MSTORE SWAP1 KECCAK256 SLOAD PUSH2 0x6E9 SWAP2 SWAP1 PUSH2 0x26DF JUMP JUMPDEST PUSH2 0x9DB PUSH1 0x0 DUP1 MLOAD PUSH1 0x20 PUSH2 0x279E DUP4 CODECOPY DUP2 MLOAD SWAP2 MSTORE PUSH2 0x448 PUSH2 0x1006 JUMP JUMPDEST PUSH2 0x9F7 JUMPI PUSH1 0x40 MLOAD PUSH3 0x461BCD PUSH1 0xE5 SHL DUP2 MSTORE PUSH1 0x4 ADD PUSH2 0x61D SWAP1 PUSH2 0x20D7 JUMP JUMPDEST PUSH2 0x9FF PUSH2 0x12B8 JUMP JUMPDEST JUMP JUMPDEST PUSH2 0xA2D PUSH32 0x9F2DF0FED2C77648DE5860A4CC508CD0818C85B8B8A1AB4CEEEF8D981C8956A6 PUSH2 0x448 PUSH2 0x1006 JUMP JUMPDEST PUSH2 0xA49 JUMPI PUSH1 0x40 MLOAD PUSH3 0x461BCD PUSH1 0xE5 SHL DUP2 MSTORE PUSH1 0x4 ADD PUSH2 0x61D SWAP1 PUSH2 0x2449 JUMP JUMPDEST PUSH2 0x8DD DUP3 DUP3 PUSH2 0x1326 JUMP JUMPDEST PUSH2 0x635 PUSH2 0xA5E PUSH2 0x1006 JUMP JUMPDEST DUP3 PUSH2 0x13E6 JUMP JUMPDEST PUSH1 0x1 PUSH1 0x1 PUSH1 0xA0 SHL SUB AND PUSH1 0x0 SWAP1 DUP2 MSTORE PUSH1 0xE PUSH1 0x20 MSTORE PUSH1 0x40 SWAP1 KECCAK256 SLOAD SWAP1 JUMP JUMPDEST PUSH1 0x1 PUSH1 0x1 PUSH1 0xA0 SHL SUB DUP3 AND PUSH1 0x0 SWAP1 DUP2 MSTORE PUSH1 0x7 PUSH1 0x20 MSTORE PUSH1 0x40 DUP2 KECCAK256 DUP2 SWAP1 DUP2 SWAP1 PUSH2 0xAA6 SWAP1 DUP6 SWAP1 PUSH2 0x14CC JUMP JUMPDEST SWAP2 POP SWAP2 POP DUP2 PUSH2 0xABD JUMPI PUSH2 0xAB8 DUP6 PUSH2 0xB85 JUMP JUMPDEST PUSH2 0xABF JUMP JUMPDEST DUP1 JUMPDEST SWAP6 SWAP5 POP POP POP POP POP JUMP JUMPDEST PUSH2 0xAF4 PUSH32 0x2CE8D04A9C35987429AF538825CD2438CC5C5BB5DC427955F84DAAA3EA105016 PUSH2 0x448 PUSH2 0x1006 JUMP JUMPDEST PUSH2 0xB10 JUMPI PUSH1 0x40 MLOAD PUSH3 0x461BCD PUSH1 0xE5 SHL DUP2 MSTORE PUSH1 0x4 ADD PUSH2 0x61D SWAP1 PUSH2 0x2149 JUMP JUMPDEST PUSH1 0x1 PUSH1 0x1 PUSH1 0xA0 SHL SUB DUP2 AND PUSH2 0xB36 JUMPI PUSH1 0x40 MLOAD PUSH3 0x461BCD PUSH1 0xE5 SHL DUP2 MSTORE PUSH1 0x4 ADD PUSH2 0x61D SWAP1 PUSH2 0x22A1 JUMP JUMPDEST PUSH1 0xC DUP1 SLOAD PUSH1 0x1 PUSH1 0x1 PUSH1 0xA0 SHL SUB NOT AND PUSH1 0x1 PUSH1 0x1 PUSH1 0xA0 SHL SUB SWAP3 SWAP1 SWAP3 AND SWAP2 SWAP1 SWAP2 OR SWAP1 SSTORE JUMP JUMPDEST PUSH1 0x6 SLOAD PUSH1 0xFF AND SWAP1 JUMP JUMPDEST PUSH32 0x5FDBD35E8DA83EE755D5E62A539E5ED7F47126ABEDE0B8B10F9EA43DC6EED07F DUP2 JUMP JUMPDEST PUSH1 0x1 PUSH1 0x1 PUSH1 0xA0 SHL SUB AND PUSH1 0x0 SWAP1 DUP2 MSTORE PUSH1 0x1 PUSH1 0x20 MSTORE PUSH1 0x40 SWAP1 KECCAK256 SLOAD SWAP1 JUMP JUMPDEST PUSH1 0x0 PUSH2 0xBAE DUP4 PUSH2 0x518 PUSH2 0x1006 JUMP JUMPDEST SWAP1 POP DUP2 DUP2 LT ISZERO PUSH2 0xBD0 JUMPI PUSH1 0x40 MLOAD PUSH3 0x461BCD PUSH1 0xE5 SHL DUP2 MSTORE PUSH1 0x4 ADD PUSH2 0x61D SWAP1 PUSH2 0x24C8 JUMP JUMPDEST PUSH2 0xBE6 DUP4 PUSH2 0xBDC PUSH2 0x1006 JUMP JUMPDEST PUSH2 0x6E9 DUP6 DUP6 PUSH2 0x270B JUMP JUMPDEST PUSH2 0xBF0 DUP4 DUP4 PUSH2 0x13E6 JUMP JUMPDEST POP POP POP JUMP JUMPDEST PUSH2 0xC0F PUSH1 0x0 DUP1 MLOAD PUSH1 0x20 PUSH2 0x279E DUP4 CODECOPY DUP2 MLOAD SWAP2 MSTORE PUSH2 0x448 PUSH2 0x1006 JUMP JUMPDEST PUSH2 0xC2B JUMPI PUSH1 0x40 MLOAD PUSH3 0x461BCD PUSH1 0xE5 SHL DUP2 MSTORE PUSH1 0x4 ADD PUSH2 0x61D SWAP1 PUSH2 0x20D7 JUMP JUMPDEST PUSH2 0x9FF PUSH2 0x157A JUMP JUMPDEST PUSH1 0x0 DUP3 DUP2 MSTORE PUSH1 0x20 DUP2 SWAP1 MSTORE PUSH1 0x40 DUP2 KECCAK256 PUSH2 0xC4B SWAP1 DUP4 PUSH2 0x15D5 JUMP JUMPDEST SWAP4 SWAP3 POP POP POP JUMP JUMPDEST PUSH1 0x0 DUP3 DUP2 MSTORE PUSH1 0x20 DUP2 SWAP1 MSTORE PUSH1 0x40 DUP2 KECCAK256 PUSH2 0xC4B SWAP1 DUP4 PUSH2 0x15E1 JUMP JUMPDEST PUSH1 0x60 PUSH1 0x5 DUP1 SLOAD PUSH2 0x534 SWAP1 PUSH2 0x2722 JUMP JUMPDEST PUSH1 0x0 DUP1 PUSH1 0x0 PUSH2 0xC89 DUP5 PUSH1 0x8 PUSH2 0x14CC JUMP JUMPDEST SWAP2 POP SWAP2 POP DUP2 PUSH2 0xC9F JUMPI PUSH2 0xC9A PUSH2 0x638 JUMP JUMPDEST PUSH2 0xCA1 JUMP JUMPDEST DUP1 JUMPDEST SWAP5 SWAP4 POP POP POP POP JUMP JUMPDEST PUSH32 0xEEED90AE47CD1F23B88CE446295F1CA23C5E4F5B894ADDBE83563FD27494E294 DUP2 JUMP JUMPDEST PUSH2 0xCF9 PUSH32 0xEEED90AE47CD1F23B88CE446295F1CA23C5E4F5B894ADDBE83563FD27494E294 PUSH2 0x448 PUSH2 0x1006 JUMP JUMPDEST PUSH2 0xD15 JUMPI PUSH1 0x40 MLOAD PUSH3 0x461BCD PUSH1 0xE5 SHL DUP2 MSTORE PUSH1 0x4 ADD PUSH2 0x61D SWAP1 PUSH2 0x1D1F JUMP JUMPDEST PUSH1 0xD SLOAD PUSH1 0x1 EQ PUSH2 0xD37 JUMPI PUSH1 0x40 MLOAD PUSH3 0x461BCD PUSH1 0xE5 SHL DUP2 MSTORE PUSH1 0x4 ADD PUSH2 0x61D SWAP1 PUSH2 0x1E82 JUMP JUMPDEST PUSH1 0x1 PUSH1 0x1 PUSH1 0xA0 SHL SUB DUP4 AND PUSH1 0x0 SWAP1 DUP2 MSTORE PUSH1 0xE PUSH1 0x20 MSTORE PUSH1 0x40 SWAP1 KECCAK256 SLOAD ISZERO PUSH2 0xD6D JUMPI PUSH1 0x40 MLOAD PUSH3 0x461BCD PUSH1 0xE5 SHL DUP2 MSTORE PUSH1 0x4 ADD PUSH2 0x61D SWAP1 PUSH2 0x203E JUMP JUMPDEST PUSH2 0xBF0 DUP4 DUP4 DUP4 PUSH2 0x10BE JUMP JUMPDEST PUSH1 0x0 DUP2 JUMP JUMPDEST PUSH1 0x0 DUP1 PUSH1 0x2 PUSH1 0x0 PUSH2 0xD8C PUSH2 0x1006 JUMP JUMPDEST PUSH1 0x1 PUSH1 0x1 PUSH1 0xA0 SHL SUB SWAP1 DUP2 AND DUP3 MSTORE PUSH1 0x20 DUP1 DUP4 ADD SWAP4 SWAP1 SWAP4 MSTORE PUSH1 0x40 SWAP2 DUP3 ADD PUSH1 0x0 SWAP1 DUP2 KECCAK256 SWAP2 DUP9 AND DUP2 MSTORE SWAP3 MSTORE SWAP1 KECCAK256 SLOAD SWAP1 POP DUP3 DUP2 LT ISZERO PUSH2 0xDD8 JUMPI PUSH1 0x40 MLOAD PUSH3 0x461BCD PUSH1 0xE5 SHL DUP2 MSTORE PUSH1 0x4 ADD PUSH2 0x61D SWAP1 PUSH2 0x2606 JUMP JUMPDEST PUSH2 0xDEE PUSH2 0xDE3 PUSH2 0x1006 JUMP JUMPDEST DUP6 PUSH2 0x6E9 DUP7 DUP6 PUSH2 0x270B JUMP JUMPDEST POP PUSH1 0x1 SWAP4 SWAP3 POP POP POP JUMP JUMPDEST PUSH1 0x0 PUSH2 0x5CB PUSH2 0xE05 PUSH2 0x1006 JUMP JUMPDEST DUP5 DUP5 PUSH2 0x10BE JUMP JUMPDEST PUSH2 0xE38 PUSH32 0xEEED90AE47CD1F23B88CE446295F1CA23C5E4F5B894ADDBE83563FD27494E294 PUSH2 0x448 PUSH2 0x1006 JUMP JUMPDEST PUSH2 0xE54 JUMPI PUSH1 0x40 MLOAD PUSH3 0x461BCD PUSH1 0xE5 SHL DUP2 MSTORE PUSH1 0x4 ADD PUSH2 0x61D SWAP1 PUSH2 0x1D1F JUMP JUMPDEST PUSH1 0xD SLOAD PUSH1 0x1 EQ PUSH2 0xE76 JUMPI PUSH1 0x40 MLOAD PUSH3 0x461BCD PUSH1 0xE5 SHL DUP2 MSTORE PUSH1 0x4 ADD PUSH2 0x61D SWAP1 PUSH2 0x1E82 JUMP JUMPDEST PUSH1 0x1 PUSH1 0x1 PUSH1 0xA0 SHL SUB DUP3 AND PUSH1 0x0 SWAP1 DUP2 MSTORE PUSH1 0xE PUSH1 0x20 MSTORE PUSH1 0x40 SWAP1 KECCAK256 SLOAD ISZERO PUSH2 0xEAC JUMPI PUSH1 0x40 MLOAD PUSH3 0x461BCD PUSH1 0xE5 SHL DUP2 MSTORE PUSH1 0x4 ADD PUSH2 0x61D SWAP1 PUSH2 0x224D JUMP JUMPDEST PUSH2 0x8DD DUP3 DUP3 PUSH2 0x13E6 JUMP JUMPDEST PUSH1 0xAA PUSH1 0xE PUSH1 0x0 PUSH2 0x71F PUSH2 0x1006 JUMP JUMPDEST PUSH32 0xCDBADA398FB3AE55C788123A0C3C0CCB8E69FEE2E6B780278B89300B4FC80C90 DUP2 JUMP JUMPDEST PUSH1 0x0 PUSH2 0xF16 PUSH32 0x5FDBD35E8DA83EE755D5E62A539E5ED7F47126ABEDE0B8B10F9EA43DC6EED07F PUSH2 0x448 PUSH2 0x1006 JUMP JUMPDEST PUSH2 0xF32 JUMPI PUSH1 0x40 MLOAD PUSH3 0x461BCD PUSH1 0xE5 SHL DUP2 MSTORE PUSH1 0x4 ADD PUSH2 0x61D SWAP1 PUSH2 0x21DB JUMP JUMPDEST PUSH2 0xF3A PUSH2 0x15F6 JUMP JUMPDEST SWAP1 POP SWAP1 JUMP JUMPDEST PUSH1 0x0 DUP2 DUP2 MSTORE PUSH1 0x20 DUP2 SWAP1 MSTORE PUSH1 0x40 DUP2 KECCAK256 PUSH2 0x5CF SWAP1 PUSH2 0x164C JUMP JUMPDEST PUSH32 0x9F2DF0FED2C77648DE5860A4CC508CD0818C85B8B8A1AB4CEEEF8D981C8956A6 DUP2 JUMP JUMPDEST PUSH1 0x0 DUP3 DUP2 MSTORE PUSH1 0x20 DUP2 SWAP1 MSTORE PUSH1 0x40 SWAP1 KECCAK256 PUSH1 0x2 ADD SLOAD PUSH2 0xF98 SWAP1 PUSH2 0x448 PUSH2 0x1006 JUMP JUMPDEST PUSH2 0x968 JUMPI PUSH1 0x40 MLOAD PUSH3 0x461BCD PUSH1 0xE5 SHL DUP2 MSTORE PUSH1 0x4 ADD PUSH2 0x61D SWAP1 PUSH2 0x22EA JUMP JUMPDEST PUSH1 0x1 PUSH1 0x1 PUSH1 0xA0 SHL SUB SWAP2 DUP3 AND PUSH1 0x0 SWAP1 DUP2 MSTORE PUSH1 0x2 PUSH1 0x20 SWAP1 DUP2 MSTORE PUSH1 0x40 DUP1 DUP4 KECCAK256 SWAP4 SWAP1 SWAP5 AND DUP3 MSTORE SWAP2 SWAP1 SWAP2 MSTORE KECCAK256 SLOAD SWAP1 JUMP JUMPDEST PUSH1 0x0 DUP1 MLOAD PUSH1 0x20 PUSH2 0x279E DUP4 CODECOPY DUP2 MLOAD SWAP2 MSTORE DUP2 JUMP JUMPDEST PUSH1 0x0 PUSH2 0xC4B DUP4 PUSH1 0x1 PUSH1 0x1 PUSH1 0xA0 SHL SUB DUP5 AND PUSH2 0x1657 JUMP JUMPDEST CALLER SWAP1 JUMP JUMPDEST PUSH1 0x1 PUSH1 0x1 PUSH1 0xA0 SHL SUB DUP4 AND PUSH2 0x1030 JUMPI PUSH1 0x40 MLOAD PUSH3 0x461BCD PUSH1 0xE5 SHL DUP2 MSTORE PUSH1 0x4 ADD PUSH2 0x61D SWAP1 PUSH2 0x2592 JUMP JUMPDEST PUSH1 0x1 PUSH1 0x1 PUSH1 0xA0 SHL SUB DUP3 AND PUSH2 0x1056 JUMPI PUSH1 0x40 MLOAD PUSH3 0x461BCD PUSH1 0xE5 SHL DUP2 MSTORE PUSH1 0x4 ADD PUSH2 0x61D SWAP1 PUSH2 0x1FFC JUMP JUMPDEST PUSH1 0x1 PUSH1 0x1 PUSH1 0xA0 SHL SUB DUP1 DUP5 AND PUSH1 0x0 DUP2 DUP2 MSTORE PUSH1 0x2 PUSH1 0x20 SWAP1 DUP2 MSTORE PUSH1 0x40 DUP1 DUP4 KECCAK256 SWAP5 DUP8 AND DUP1 DUP5 MSTORE SWAP5 SWAP1 SWAP2 MSTORE SWAP1 DUP2 SWAP1 KECCAK256 DUP5 SWAP1 SSTORE MLOAD PUSH32 0x8C5BE1E5EBEC7D5BD14F71427D1E84F3DD0314C0F7B2291E5B200AC8C7C3B925 SWAP1 PUSH2 0x10B1 SWAP1 DUP6 SWAP1 PUSH2 0x1CC3 JUMP JUMPDEST PUSH1 0x40 MLOAD DUP1 SWAP2 SUB SWAP1 LOG3 POP POP POP JUMP JUMPDEST PUSH1 0x1 PUSH1 0x1 PUSH1 0xA0 SHL SUB DUP4 AND PUSH2 0x10E4 JUMPI PUSH1 0x40 MLOAD PUSH3 0x461BCD PUSH1 0xE5 SHL DUP2 MSTORE PUSH1 0x4 ADD PUSH2 0x61D SWAP1 PUSH2 0x254D JUMP JUMPDEST PUSH1 0x1 PUSH1 0x1 PUSH1 0xA0 SHL SUB DUP3 AND PUSH2 0x110A JUMPI PUSH1 0x40 MLOAD PUSH3 0x461BCD PUSH1 0xE5 SHL DUP2 MSTORE PUSH1 0x4 ADD PUSH2 0x61D SWAP1 PUSH2 0x1E3F JUMP JUMPDEST PUSH2 0x1115 DUP4 DUP4 DUP4 PUSH2 0x16A1 JUMP JUMPDEST PUSH1 0x1 PUSH1 0x1 PUSH1 0xA0 SHL SUB DUP4 AND PUSH1 0x0 SWAP1 DUP2 MSTORE PUSH1 0x1 PUSH1 0x20 MSTORE PUSH1 0x40 SWAP1 KECCAK256 SLOAD DUP2 DUP2 LT ISZERO PUSH2 0x114E JUMPI PUSH1 0x40 MLOAD PUSH3 0x461BCD PUSH1 0xE5 SHL DUP2 MSTORE PUSH1 0x4 ADD PUSH2 0x61D SWAP1 PUSH2 0x2195 JUMP JUMPDEST PUSH2 0x1158 DUP3 DUP3 PUSH2 0x270B JUMP JUMPDEST PUSH1 0x1 PUSH1 0x1 PUSH1 0xA0 SHL SUB DUP1 DUP7 AND PUSH1 0x0 SWAP1 DUP2 MSTORE PUSH1 0x1 PUSH1 0x20 MSTORE PUSH1 0x40 DUP1 DUP3 KECCAK256 SWAP4 SWAP1 SWAP4 SSTORE SWAP1 DUP6 AND DUP2 MSTORE SWAP1 DUP2 KECCAK256 DUP1 SLOAD DUP5 SWAP3 SWAP1 PUSH2 0x118E SWAP1 DUP5 SWAP1 PUSH2 0x26DF JUMP JUMPDEST SWAP3 POP POP DUP2 SWAP1 SSTORE POP DUP3 PUSH1 0x1 PUSH1 0x1 PUSH1 0xA0 SHL SUB AND DUP5 PUSH1 0x1 PUSH1 0x1 PUSH1 0xA0 SHL SUB AND PUSH32 0xDDF252AD1BE2C89B69C2B068FC378DAA952BA7F163C4A11628F55A4DF523B3EF DUP5 PUSH1 0x40 MLOAD PUSH2 0x11D8 SWAP2 SWAP1 PUSH2 0x1CC3 JUMP JUMPDEST PUSH1 0x40 MLOAD DUP1 SWAP2 SUB SWAP1 LOG3 POP POP POP POP JUMP JUMPDEST PUSH1 0x0 DUP3 DUP2 MSTORE PUSH1 0x20 DUP2 SWAP1 MSTORE PUSH1 0x40 SWAP1 KECCAK256 PUSH2 0x11FE SWAP1 DUP3 PUSH2 0xFF1 JUMP JUMPDEST ISZERO PUSH2 0x8DD JUMPI PUSH2 0x120B PUSH2 0x1006 JUMP JUMPDEST PUSH1 0x1 PUSH1 0x1 PUSH1 0xA0 SHL SUB AND DUP2 PUSH1 0x1 PUSH1 0x1 PUSH1 0xA0 SHL SUB AND DUP4 PUSH32 0x2F8788117E7EFF1D82E926EC794901D17C78024A50270940304540A733656F0D PUSH1 0x40 MLOAD PUSH1 0x40 MLOAD DUP1 SWAP2 SUB SWAP1 LOG4 POP POP JUMP JUMPDEST PUSH1 0x0 DUP3 DUP2 MSTORE PUSH1 0x20 DUP2 SWAP1 MSTORE PUSH1 0x40 SWAP1 KECCAK256 PUSH2 0x1267 SWAP1 DUP3 PUSH2 0x1733 JUMP JUMPDEST ISZERO PUSH2 0x8DD JUMPI PUSH2 0x1274 PUSH2 0x1006 JUMP JUMPDEST PUSH1 0x1 PUSH1 0x1 PUSH1 0xA0 SHL SUB AND DUP2 PUSH1 0x1 PUSH1 0x1 PUSH1 0xA0 SHL SUB AND DUP4 PUSH32 0xF6391F5C32D9C69D2A47EA670B442974B53935D1EDC7FD64EB21E047A839171B PUSH1 0x40 MLOAD PUSH1 0x40 MLOAD DUP1 SWAP2 SUB SWAP1 LOG4 POP POP JUMP JUMPDEST PUSH2 0x12C0 PUSH2 0xB58 JUMP JUMPDEST PUSH2 0x12DC JUMPI PUSH1 0x40 MLOAD PUSH3 0x461BCD PUSH1 0xE5 SHL DUP2 MSTORE PUSH1 0x4 ADD PUSH2 0x61D SWAP1 PUSH2 0x1F55 JUMP JUMPDEST PUSH1 0x6 DUP1 SLOAD PUSH1 0xFF NOT AND SWAP1 SSTORE PUSH32 0x5DB9EE0A495BF2E6FF9C91A7834C1BA4FDD244A5E8AA4E537BD38AEAE4B073AA PUSH2 0x130F PUSH2 0x1006 JUMP JUMPDEST PUSH1 0x40 MLOAD PUSH2 0x131C SWAP2 SWAP1 PUSH2 0x1CA4 JUMP JUMPDEST PUSH1 0x40 MLOAD DUP1 SWAP2 SUB SWAP1 LOG1 JUMP JUMPDEST PUSH1 0x1 PUSH1 0x1 PUSH1 0xA0 SHL SUB DUP3 AND PUSH2 0x134C JUMPI PUSH1 0x40 MLOAD PUSH3 0x461BCD PUSH1 0xE5 SHL DUP2 MSTORE PUSH1 0x4 ADD PUSH2 0x61D SWAP1 PUSH2 0x269A JUMP JUMPDEST PUSH2 0x1358 PUSH1 0x0 DUP4 DUP4 PUSH2 0x16A1 JUMP JUMPDEST DUP1 PUSH1 0x3 PUSH1 0x0 DUP3 DUP3 SLOAD PUSH2 0x136A SWAP2 SWAP1 PUSH2 0x26DF JUMP JUMPDEST SWAP1 SWAP2 SSTORE POP POP PUSH1 0x1 PUSH1 0x1 PUSH1 0xA0 SHL SUB DUP3 AND PUSH1 0x0 SWAP1 DUP2 MSTORE PUSH1 0x1 PUSH1 0x20 MSTORE PUSH1 0x40 DUP2 KECCAK256 DUP1 SLOAD DUP4 SWAP3 SWAP1 PUSH2 0x1397 SWAP1 DUP5 SWAP1 PUSH2 0x26DF JUMP JUMPDEST SWAP1 SWAP2 SSTORE POP POP PUSH1 0x40 MLOAD PUSH1 0x1 PUSH1 0x1 PUSH1 0xA0 SHL SUB DUP4 AND SWAP1 PUSH1 0x0 SWAP1 PUSH32 0xDDF252AD1BE2C89B69C2B068FC378DAA952BA7F163C4A11628F55A4DF523B3EF SWAP1 PUSH2 0x13DA SWAP1 DUP6 SWAP1 PUSH2 0x1CC3 JUMP JUMPDEST PUSH1 0x40 MLOAD DUP1 SWAP2 SUB SWAP1 LOG3 POP POP JUMP JUMPDEST PUSH1 0x1 PUSH1 0x1 PUSH1 0xA0 SHL SUB DUP3 AND PUSH2 0x140C JUMPI PUSH1 0x40 MLOAD PUSH3 0x461BCD PUSH1 0xE5 SHL DUP2 MSTORE PUSH1 0x4 ADD PUSH2 0x61D SWAP1 PUSH2 0x250C JUMP JUMPDEST PUSH2 0x1418 DUP3 PUSH1 0x0 DUP4 PUSH2 0x16A1 JUMP JUMPDEST PUSH1 0x1 PUSH1 0x1 PUSH1 0xA0 SHL SUB DUP3 AND PUSH1 0x0 SWAP1 DUP2 MSTORE PUSH1 0x1 PUSH1 0x20 MSTORE PUSH1 0x40 SWAP1 KECCAK256 SLOAD DUP2 DUP2 LT ISZERO PUSH2 0x1451 JUMPI PUSH1 0x40 MLOAD PUSH3 0x461BCD PUSH1 0xE5 SHL DUP2 MSTORE PUSH1 0x4 ADD PUSH2 0x61D SWAP1 PUSH2 0x1FBA JUMP JUMPDEST PUSH2 0x145B DUP3 DUP3 PUSH2 0x270B JUMP JUMPDEST PUSH1 0x1 PUSH1 0x1 PUSH1 0xA0 SHL SUB DUP5 AND PUSH1 0x0 SWAP1 DUP2 MSTORE PUSH1 0x1 PUSH1 0x20 MSTORE PUSH1 0x40 DUP2 KECCAK256 SWAP2 SWAP1 SWAP2 SSTORE PUSH1 0x3 DUP1 SLOAD DUP5 SWAP3 SWAP1 PUSH2 0x1489 SWAP1 DUP5 SWAP1 PUSH2 0x270B JUMP JUMPDEST SWAP1 SWAP2 SSTORE POP POP PUSH1 0x40 MLOAD PUSH1 0x0 SWAP1 PUSH1 0x1 PUSH1 0x1 PUSH1 0xA0 SHL SUB DUP6 AND SWAP1 PUSH32 0xDDF252AD1BE2C89B69C2B068FC378DAA952BA7F163C4A11628F55A4DF523B3EF SWAP1 PUSH2 0x10B1 SWAP1 DUP7 SWAP1 PUSH2 0x1CC3 JUMP JUMPDEST PUSH1 0x0 DUP1 PUSH1 0x0 DUP5 GT PUSH2 0x14EF JUMPI PUSH1 0x40 MLOAD PUSH3 0x461BCD PUSH1 0xE5 SHL DUP2 MSTORE PUSH1 0x4 ADD PUSH2 0x61D SWAP1 PUSH2 0x25D6 JUMP JUMPDEST PUSH2 0x14F9 PUSH1 0xA PUSH2 0x1748 JUMP JUMPDEST DUP5 GT ISZERO PUSH2 0x1518 JUMPI PUSH1 0x40 MLOAD PUSH3 0x461BCD PUSH1 0xE5 SHL DUP2 MSTORE PUSH1 0x4 ADD PUSH2 0x61D SWAP1 PUSH2 0x1D69 JUMP JUMPDEST PUSH1 0x0 PUSH2 0x1524 DUP5 DUP7 PUSH2 0x174C JUMP JUMPDEST DUP5 SLOAD SWAP1 SWAP2 POP DUP2 EQ ISZERO PUSH2 0x153D JUMPI PUSH1 0x0 DUP1 SWAP3 POP SWAP3 POP POP PUSH2 0x1573 JUMP JUMPDEST PUSH1 0x1 DUP5 PUSH1 0x1 ADD DUP3 DUP2 SLOAD DUP2 LT PUSH2 0x1562 JUMPI PUSH4 0x4E487B71 PUSH1 0xE0 SHL PUSH1 0x0 MSTORE PUSH1 0x32 PUSH1 0x4 MSTORE PUSH1 0x24 PUSH1 0x0 REVERT JUMPDEST SWAP1 PUSH1 0x0 MSTORE PUSH1 0x20 PUSH1 0x0 KECCAK256 ADD SLOAD SWAP3 POP SWAP3 POP POP JUMPDEST SWAP3 POP SWAP3 SWAP1 POP JUMP JUMPDEST PUSH2 0x1582 PUSH2 0xB58 JUMP JUMPDEST ISZERO PUSH2 0x159F JUMPI PUSH1 0x40 MLOAD PUSH3 0x461BCD PUSH1 0xE5 SHL DUP2 MSTORE PUSH1 0x4 ADD PUSH2 0x61D SWAP1 PUSH2 0x233A JUMP JUMPDEST PUSH1 0x6 DUP1 SLOAD PUSH1 0xFF NOT AND PUSH1 0x1 OR SWAP1 SSTORE PUSH32 0x62E78CEA01BEE320CD4E420270B5EA74000D11B0C9F74754EBDBFC544B05A258 PUSH2 0x130F PUSH2 0x1006 JUMP JUMPDEST PUSH1 0x0 PUSH2 0xC4B DUP4 DUP4 PUSH2 0x182B JUMP JUMPDEST PUSH1 0x0 PUSH2 0xC4B DUP4 PUSH1 0x1 PUSH1 0x1 PUSH1 0xA0 SHL SUB DUP5 AND PUSH2 0x1884 JUMP JUMPDEST PUSH1 0x0 PUSH2 0x1602 PUSH1 0xA PUSH2 0x189C JUMP JUMPDEST PUSH1 0x0 PUSH2 0x160E PUSH1 0xA PUSH2 0x1748 JUMP JUMPDEST SWAP1 POP PUSH32 0x8030E83B04D87BEF53480E26263266D6CA66863AA8506ACA6F2559D18AA1CB67 DUP2 PUSH1 0x40 MLOAD PUSH2 0x163F SWAP2 SWAP1 PUSH2 0x1CC3 JUMP JUMPDEST PUSH1 0x40 MLOAD DUP1 SWAP2 SUB SWAP1 LOG1 SWAP1 POP SWAP1 JUMP JUMPDEST PUSH1 0x0 PUSH2 0x5CF DUP3 PUSH2 0x1748 JUMP JUMPDEST PUSH1 0x0 PUSH2 0x1663 DUP4 DUP4 PUSH2 0x1884 JUMP JUMPDEST PUSH2 0x1699 JUMPI POP DUP2 SLOAD PUSH1 0x1 DUP2 DUP2 ADD DUP5 SSTORE PUSH1 0x0 DUP5 DUP2 MSTORE PUSH1 0x20 DUP1 DUP3 KECCAK256 SWAP1 SWAP4 ADD DUP5 SWAP1 SSTORE DUP5 SLOAD DUP5 DUP3 MSTORE DUP3 DUP7 ADD SWAP1 SWAP4 MSTORE PUSH1 0x40 SWAP1 KECCAK256 SWAP2 SWAP1 SWAP2 SSTORE PUSH2 0x5CF JUMP JUMPDEST POP PUSH1 0x0 PUSH2 0x5CF JUMP JUMPDEST PUSH2 0x16AC DUP4 DUP4 DUP4 PUSH2 0x18A5 JUMP JUMPDEST PUSH2 0x16B4 PUSH2 0xB58 JUMP JUMPDEST ISZERO DUP1 PUSH2 0x16D5 JUMPI POP PUSH2 0x16D5 PUSH1 0x0 DUP1 MLOAD PUSH1 0x20 PUSH2 0x279E DUP4 CODECOPY DUP2 MLOAD SWAP2 MSTORE PUSH2 0x448 PUSH2 0x1006 JUMP JUMPDEST PUSH2 0x16F1 JUMPI PUSH1 0x40 MLOAD PUSH3 0x461BCD PUSH1 0xE5 SHL DUP2 MSTORE PUSH1 0x4 ADD PUSH2 0x61D SWAP1 PUSH2 0x23F3 JUMP JUMPDEST PUSH1 0x1 PUSH1 0x1 PUSH1 0xA0 SHL SUB DUP4 AND PUSH2 0xBF0 JUMPI PUSH1 0xB SLOAD DUP2 PUSH2 0x170B PUSH2 0x638 JUMP JUMPDEST PUSH2 0x1715 SWAP2 SWAP1 PUSH2 0x26DF JUMP JUMPDEST GT ISZERO PUSH2 0xBF0 JUMPI PUSH1 0x40 MLOAD PUSH3 0x461BCD PUSH1 0xE5 SHL DUP2 MSTORE PUSH1 0x4 ADD PUSH2 0x61D SWAP1 PUSH2 0x2119 JUMP JUMPDEST PUSH1 0x0 PUSH2 0xC4B DUP4 PUSH1 0x1 PUSH1 0x1 PUSH1 0xA0 SHL SUB DUP5 AND PUSH2 0x18FD JUMP JUMPDEST SLOAD SWAP1 JUMP JUMPDEST DUP2 SLOAD PUSH1 0x0 SWAP1 PUSH2 0x175D JUMPI POP PUSH1 0x0 PUSH2 0x5CF JUMP JUMPDEST DUP3 SLOAD PUSH1 0x0 SWAP1 JUMPDEST DUP1 DUP3 LT ISZERO PUSH2 0x17C7 JUMPI PUSH1 0x0 PUSH2 0x1777 DUP4 DUP4 PUSH2 0x1A1A JUMP JUMPDEST SWAP1 POP DUP5 DUP7 DUP3 DUP2 SLOAD DUP2 LT PUSH2 0x179A JUMPI PUSH4 0x4E487B71 PUSH1 0xE0 SHL PUSH1 0x0 MSTORE PUSH1 0x32 PUSH1 0x4 MSTORE PUSH1 0x24 PUSH1 0x0 REVERT JUMPDEST SWAP1 PUSH1 0x0 MSTORE PUSH1 0x20 PUSH1 0x0 KECCAK256 ADD SLOAD GT ISZERO PUSH2 0x17B3 JUMPI DUP1 SWAP2 POP PUSH2 0x17C1 JUMP JUMPDEST PUSH2 0x17BE DUP2 PUSH1 0x1 PUSH2 0x26DF JUMP JUMPDEST SWAP3 POP JUMPDEST POP PUSH2 0x1763 JUMP JUMPDEST PUSH1 0x0 DUP3 GT DUP1 ISZERO PUSH2 0x180A JUMPI POP DUP4 DUP6 PUSH2 0x17DF PUSH1 0x1 DUP6 PUSH2 0x270B JUMP JUMPDEST DUP2 SLOAD DUP2 LT PUSH2 0x17FD JUMPI PUSH4 0x4E487B71 PUSH1 0xE0 SHL PUSH1 0x0 MSTORE PUSH1 0x32 PUSH1 0x4 MSTORE PUSH1 0x24 PUSH1 0x0 REVERT JUMPDEST SWAP1 PUSH1 0x0 MSTORE PUSH1 0x20 PUSH1 0x0 KECCAK256 ADD SLOAD EQ JUMPDEST ISZERO PUSH2 0x1823 JUMPI PUSH2 0x181A PUSH1 0x1 DUP4 PUSH2 0x270B JUMP JUMPDEST SWAP3 POP POP POP PUSH2 0x5CF JUMP JUMPDEST POP SWAP1 POP PUSH2 0x5CF JUMP JUMPDEST DUP2 SLOAD PUSH1 0x0 SWAP1 DUP3 LT PUSH2 0x184E JUMPI PUSH1 0x40 MLOAD PUSH3 0x461BCD PUSH1 0xE5 SHL DUP2 MSTORE PUSH1 0x4 ADD PUSH2 0x61D SWAP1 PUSH2 0x1DFD JUMP JUMPDEST DUP3 PUSH1 0x0 ADD DUP3 DUP2 SLOAD DUP2 LT PUSH2 0x1871 JUMPI PUSH4 0x4E487B71 PUSH1 0xE0 SHL PUSH1 0x0 MSTORE PUSH1 0x32 PUSH1 0x4 MSTORE PUSH1 0x24 PUSH1 0x0 REVERT JUMPDEST SWAP1 PUSH1 0x0 MSTORE PUSH1 0x20 PUSH1 0x0 KECCAK256 ADD SLOAD SWAP1 POP SWAP3 SWAP2 POP POP JUMP JUMPDEST PUSH1 0x0 SWAP1 DUP2 MSTORE PUSH1 0x1 SWAP2 SWAP1 SWAP2 ADD PUSH1 0x20 MSTORE PUSH1 0x40 SWAP1 KECCAK256 SLOAD ISZERO ISZERO SWAP1 JUMP JUMPDEST DUP1 SLOAD PUSH1 0x1 ADD SWAP1 SSTORE JUMP JUMPDEST PUSH2 0x18B0 DUP4 DUP4 DUP4 PUSH2 0xBF0 JUMP JUMPDEST PUSH1 0x1 PUSH1 0x1 PUSH1 0xA0 SHL SUB DUP4 AND PUSH2 0x18D4 JUMPI PUSH2 0x18C7 DUP3 PUSH2 0x1A71 JUMP JUMPDEST PUSH2 0x18CF PUSH2 0x1A9B JUMP JUMPDEST PUSH2 0xBF0 JUMP JUMPDEST PUSH1 0x1 PUSH1 0x1 PUSH1 0xA0 SHL SUB DUP3 AND PUSH2 0x18EB JUMPI PUSH2 0x18C7 DUP4 PUSH2 0x1A71 JUMP JUMPDEST PUSH2 0x18F4 DUP4 PUSH2 0x1A71 JUMP JUMPDEST PUSH2 0xBF0 DUP3 PUSH2 0x1A71 JUMP JUMPDEST PUSH1 0x0 DUP2 DUP2 MSTORE PUSH1 0x1 DUP4 ADD PUSH1 0x20 MSTORE PUSH1 0x40 DUP2 KECCAK256 SLOAD DUP1 ISZERO PUSH2 0x1A10 JUMPI PUSH1 0x0 PUSH2 0x1921 PUSH1 0x1 DUP4 PUSH2 0x270B JUMP JUMPDEST DUP6 SLOAD SWAP1 SWAP2 POP PUSH1 0x0 SWAP1 PUSH2 0x1935 SWAP1 PUSH1 0x1 SWAP1 PUSH2 0x270B JUMP JUMPDEST SWAP1 POP PUSH1 0x0 DUP7 PUSH1 0x0 ADD DUP3 DUP2 SLOAD DUP2 LT PUSH2 0x195C JUMPI PUSH4 0x4E487B71 PUSH1 0xE0 SHL PUSH1 0x0 MSTORE PUSH1 0x32 PUSH1 0x4 MSTORE PUSH1 0x24 PUSH1 0x0 REVERT JUMPDEST SWAP1 PUSH1 0x0 MSTORE PUSH1 0x20 PUSH1 0x0 KECCAK256 ADD SLOAD SWAP1 POP DUP1 DUP8 PUSH1 0x0 ADD DUP5 DUP2 SLOAD DUP2 LT PUSH2 0x198D JUMPI PUSH4 0x4E487B71 PUSH1 0xE0 SHL PUSH1 0x0 MSTORE PUSH1 0x32 PUSH1 0x4 MSTORE PUSH1 0x24 PUSH1 0x0 REVERT JUMPDEST PUSH1 0x0 SWAP2 DUP3 MSTORE PUSH1 0x20 SWAP1 SWAP2 KECCAK256 ADD SSTORE PUSH2 0x19A4 DUP4 PUSH1 0x1 PUSH2 0x26DF JUMP JUMPDEST PUSH1 0x0 DUP3 DUP2 MSTORE PUSH1 0x1 DUP10 ADD PUSH1 0x20 MSTORE PUSH1 0x40 SWAP1 KECCAK256 SSTORE DUP7 SLOAD DUP8 SWAP1 DUP1 PUSH2 0x19D4 JUMPI PUSH4 0x4E487B71 PUSH1 0xE0 SHL PUSH1 0x0 MSTORE PUSH1 0x31 PUSH1 0x4 MSTORE PUSH1 0x24 PUSH1 0x0 REVERT JUMPDEST PUSH1 0x1 SWAP1 SUB DUP2 DUP2 SWAP1 PUSH1 0x0 MSTORE PUSH1 0x20 PUSH1 0x0 KECCAK256 ADD PUSH1 0x0 SWAP1 SSTORE SWAP1 SSTORE DUP7 PUSH1 0x1 ADD PUSH1 0x0 DUP8 DUP2 MSTORE PUSH1 0x20 ADD SWAP1 DUP2 MSTORE PUSH1 0x20 ADD PUSH1 0x0 KECCAK256 PUSH1 0x0 SWAP1 SSTORE PUSH1 0x1 SWAP5 POP POP POP POP POP PUSH2 0x5CF JUMP JUMPDEST PUSH1 0x0 SWAP2 POP POP PUSH2 0x5CF JUMP JUMPDEST PUSH1 0x0 PUSH1 0x2 PUSH2 0x1A28 DUP2 DUP5 PUSH2 0x275D JUMP JUMPDEST PUSH2 0x1A33 PUSH1 0x2 DUP7 PUSH2 0x275D JUMP JUMPDEST PUSH2 0x1A3D SWAP2 SWAP1 PUSH2 0x26DF JUMP JUMPDEST PUSH2 0x1A47 SWAP2 SWAP1 PUSH2 0x26F7 JUMP JUMPDEST PUSH2 0x1A52 PUSH1 0x2 DUP5 PUSH2 0x26F7 JUMP JUMPDEST PUSH2 0x1A5D PUSH1 0x2 DUP7 PUSH2 0x26F7 JUMP JUMPDEST PUSH2 0x1A67 SWAP2 SWAP1 PUSH2 0x26DF JUMP JUMPDEST PUSH2 0xC4B SWAP2 SWAP1 PUSH2 0x26DF JUMP JUMPDEST PUSH1 0x1 PUSH1 0x1 PUSH1 0xA0 SHL SUB DUP2 AND PUSH1 0x0 SWAP1 DUP2 MSTORE PUSH1 0x7 PUSH1 0x20 MSTORE PUSH1 0x40 SWAP1 KECCAK256 PUSH2 0x635 SWAP1 PUSH2 0x1A96 DUP4 PUSH2 0xB85 JUMP JUMPDEST PUSH2 0x1AA8 JUMP JUMPDEST PUSH2 0x9FF PUSH1 0x8 PUSH2 0x1A96 PUSH2 0x638 JUMP JUMPDEST PUSH1 0x0 PUSH2 0x1AB4 PUSH1 0xA PUSH2 0x1748 JUMP JUMPDEST SWAP1 POP DUP1 PUSH2 0x1AC0 DUP5 PUSH2 0x1AF4 JUMP JUMPDEST LT ISZERO PUSH2 0xBF0 JUMPI DUP3 SLOAD PUSH1 0x1 DUP1 DUP3 ADD DUP6 SSTORE PUSH1 0x0 DUP6 DUP2 MSTORE PUSH1 0x20 DUP1 DUP3 KECCAK256 SWAP1 SWAP4 ADD SWAP4 SWAP1 SWAP4 SSTORE SWAP4 DUP5 ADD DUP1 SLOAD SWAP5 DUP6 ADD DUP2 SSTORE DUP3 MSTORE SWAP1 KECCAK256 SWAP1 SWAP2 ADD SSTORE JUMP JUMPDEST DUP1 SLOAD PUSH1 0x0 SWAP1 PUSH2 0x1B05 JUMPI POP PUSH1 0x0 PUSH2 0x70C JUMP JUMPDEST DUP2 SLOAD DUP3 SWAP1 PUSH2 0x1B15 SWAP1 PUSH1 0x1 SWAP1 PUSH2 0x270B JUMP JUMPDEST DUP2 SLOAD DUP2 LT PUSH2 0x1B33 JUMPI PUSH4 0x4E487B71 PUSH1 0xE0 SHL PUSH1 0x0 MSTORE PUSH1 0x32 PUSH1 0x4 MSTORE PUSH1 0x24 PUSH1 0x0 REVERT JUMPDEST SWAP1 PUSH1 0x0 MSTORE PUSH1 0x20 PUSH1 0x0 KECCAK256 ADD SLOAD SWAP1 POP PUSH2 0x70C JUMP JUMPDEST DUP1 CALLDATALOAD PUSH1 0x1 PUSH1 0x1 PUSH1 0xA0 SHL SUB DUP2 AND DUP2 EQ PUSH2 0x70C JUMPI PUSH1 0x0 DUP1 REVERT JUMPDEST PUSH1 0x0 PUSH1 0x20 DUP3 DUP5 SUB SLT ISZERO PUSH2 0x1B6D JUMPI DUP1 DUP2 REVERT JUMPDEST PUSH2 0xC4B DUP3 PUSH2 0x1B45 JUMP JUMPDEST PUSH1 0x0 DUP1 PUSH1 0x40 DUP4 DUP6 SUB SLT ISZERO PUSH2 0x1B88 JUMPI DUP1 DUP2 REVERT JUMPDEST PUSH2 0x1B91 DUP4 PUSH2 0x1B45 JUMP JUMPDEST SWAP2 POP PUSH2 0x1B9F PUSH1 0x20 DUP5 ADD PUSH2 0x1B45 JUMP JUMPDEST SWAP1 POP SWAP3 POP SWAP3 SWAP1 POP JUMP JUMPDEST PUSH1 0x0 DUP1 PUSH1 0x0 PUSH1 0x60 DUP5 DUP7 SUB SLT ISZERO PUSH2 0x1BBC JUMPI DUP1 DUP2 REVERT JUMPDEST PUSH2 0x1BC5 DUP5 PUSH2 0x1B45 JUMP JUMPDEST SWAP3 POP PUSH2 0x1BD3 PUSH1 0x20 DUP6 ADD PUSH2 0x1B45 JUMP JUMPDEST SWAP2 POP PUSH1 0x40 DUP5 ADD CALLDATALOAD SWAP1 POP SWAP3 POP SWAP3 POP SWAP3 JUMP JUMPDEST PUSH1 0x0 DUP1 DUP3 DUP5 SUB PUSH1 0xC0 DUP2 SLT ISZERO PUSH2 0x1BF6 JUMPI DUP3 DUP4 REVERT JUMPDEST PUSH2 0x1BFF DUP5 PUSH2 0x1B45 JUMP JUMPDEST SWAP3 POP PUSH1 0xA0 PUSH1 0x1F NOT DUP3 ADD SLT ISZERO PUSH2 0x1C12 JUMPI DUP2 DUP3 REVERT JUMPDEST POP PUSH1 0x20 DUP4 ADD SWAP1 POP SWAP3 POP SWAP3 SWAP1 POP JUMP JUMPDEST PUSH1 0x0 DUP1 PUSH1 0x40 DUP4 DUP6 SUB SLT ISZERO PUSH2 0x1C32 JUMPI DUP2 DUP3 REVERT JUMPDEST PUSH2 0x1C3B DUP4 PUSH2 0x1B45 JUMP JUMPDEST SWAP5 PUSH1 0x20 SWAP4 SWAP1 SWAP4 ADD CALLDATALOAD SWAP4 POP POP POP JUMP JUMPDEST PUSH1 0x0 PUSH1 0x20 DUP3 DUP5 SUB SLT ISZERO PUSH2 0x1C5A JUMPI DUP1 DUP2 REVERT JUMPDEST POP CALLDATALOAD SWAP2 SWAP1 POP JUMP JUMPDEST PUSH1 0x0 DUP1 PUSH1 0x40 DUP4 DUP6 SUB SLT ISZERO PUSH2 0x1C73 JUMPI DUP2 DUP3 REVERT JUMPDEST DUP3 CALLDATALOAD SWAP2 POP PUSH2 0x1B9F PUSH1 0x20 DUP5 ADD PUSH2 0x1B45 JUMP JUMPDEST PUSH1 0x0 DUP1 PUSH1 0x40 DUP4 DUP6 SUB SLT ISZERO PUSH2 0x1C95 JUMPI DUP2 DUP3 REVERT JUMPDEST POP POP DUP1 CALLDATALOAD SWAP3 PUSH1 0x20 SWAP1 SWAP2 ADD CALLDATALOAD SWAP2 POP JUMP JUMPDEST PUSH1 0x1 PUSH1 0x1 PUSH1 0xA0 SHL SUB SWAP2 SWAP1 SWAP2 AND DUP2 MSTORE PUSH1 0x20 ADD SWAP1 JUMP JUMPDEST SWAP1 ISZERO ISZERO DUP2 MSTORE PUSH1 0x20 ADD SWAP1 JUMP JUMPDEST SWAP1 DUP2 MSTORE PUSH1 0x20 ADD SWAP1 JUMP JUMPDEST PUSH1 0x0 PUSH1 0x20 DUP1 DUP4 MSTORE DUP4 MLOAD DUP1 DUP3 DUP6 ADD MSTORE DUP3 JUMPDEST DUP2 DUP2 LT ISZERO PUSH2 0x1CF8 JUMPI DUP6 DUP2 ADD DUP4 ADD MLOAD DUP6 DUP3 ADD PUSH1 0x40 ADD MSTORE DUP3 ADD PUSH2 0x1CDC JUMP JUMPDEST DUP2 DUP2 GT ISZERO PUSH2 0x1D09 JUMPI DUP4 PUSH1 0x40 DUP4 DUP8 ADD ADD MSTORE JUMPDEST POP PUSH1 0x1F ADD PUSH1 0x1F NOT AND SWAP3 SWAP1 SWAP3 ADD PUSH1 0x40 ADD SWAP4 SWAP3 POP POP POP JUMP JUMPDEST PUSH1 0x20 DUP1 DUP3 MSTORE PUSH1 0x2A SWAP1 DUP3 ADD MSTORE PUSH32 0x505275463A4D4F442D4954413A204D757374206861766520545255535445445F PUSH1 0x40 DUP3 ADD MSTORE PUSH10 0x4147454E545F524F4C45 PUSH1 0xB0 SHL PUSH1 0x60 DUP3 ADD MSTORE PUSH1 0x80 ADD SWAP1 JUMP JUMPDEST PUSH1 0x20 DUP1 DUP3 MSTORE PUSH1 0x1D SWAP1 DUP3 ADD MSTORE PUSH32 0x4552433230536E617073686F743A206E6F6E6578697374656E74206964000000 PUSH1 0x40 DUP3 ADD MSTORE PUSH1 0x60 ADD SWAP1 JUMP JUMPDEST PUSH1 0x20 DUP1 DUP3 MSTORE PUSH1 0x3C SWAP1 DUP3 ADD MSTORE PUSH32 0x505275463A5046533A20436F6C642057616C6C6574202D205472757374656420 PUSH1 0x40 DUP3 ADD MSTORE PUSH32 0x70617961626C652066756E6374696F6E732070726F6869626974656400000000 PUSH1 0x60 DUP3 ADD MSTORE PUSH1 0x80 ADD SWAP1 JUMP JUMPDEST PUSH1 0x20 DUP1 DUP3 MSTORE PUSH1 0x22 SWAP1 DUP3 ADD MSTORE PUSH32 0x456E756D657261626C655365743A20696E646578206F7574206F6620626F756E PUSH1 0x40 DUP3 ADD MSTORE PUSH2 0x6473 PUSH1 0xF0 SHL PUSH1 0x60 DUP3 ADD MSTORE PUSH1 0x80 ADD SWAP1 JUMP JUMPDEST PUSH1 0x20 DUP1 DUP3 MSTORE PUSH1 0x23 SWAP1 DUP3 ADD MSTORE PUSH32 0x45524332303A207472616E7366657220746F20746865207A65726F2061646472 PUSH1 0x40 DUP3 ADD MSTORE PUSH3 0x657373 PUSH1 0xE8 SHL PUSH1 0x60 DUP3 ADD MSTORE PUSH1 0x80 ADD SWAP1 JUMP JUMPDEST PUSH1 0x20 DUP1 DUP3 MSTORE PUSH1 0x60 SWAP1 DUP3 ADD DUP2 SWAP1 MSTORE PUSH32 0x505275463A4D4F442D4954413A2054727573746564204167656E742066756E63 PUSH1 0x40 DUP4 ADD MSTORE PUSH32 0x74696F6E207065726D616E656E746C792064697361626C6564202D2075736520 SWAP1 DUP3 ADD MSTORE PUSH32 0x616C6C6F77616E6365202F207472616E7366657246726F6D207061747465726E PUSH1 0x80 DUP3 ADD MSTORE PUSH1 0xA0 ADD SWAP1 JUMP JUMPDEST PUSH1 0x20 DUP1 DUP3 MSTORE PUSH1 0x2F SWAP1 DUP3 ADD MSTORE PUSH32 0x416363657373436F6E74726F6C3A2073656E646572206D75737420626520616E PUSH1 0x40 DUP3 ADD MSTORE PUSH15 0x818591B5A5B881D1BC819DC985B9D PUSH1 0x8A SHL PUSH1 0x60 DUP3 ADD MSTORE PUSH1 0x80 ADD SWAP1 JUMP JUMPDEST PUSH1 0x20 DUP1 DUP3 MSTORE PUSH1 0x14 SWAP1 DUP3 ADD MSTORE PUSH20 0x14185D5CD8589B194E881B9BDD081C185D5CD959 PUSH1 0x62 SHL PUSH1 0x40 DUP3 ADD MSTORE PUSH1 0x60 ADD SWAP1 JUMP JUMPDEST PUSH1 0x20 DUP1 DUP3 MSTORE PUSH1 0x1E SWAP1 DUP3 ADD MSTORE PUSH32 0x505275463A5046533A20496E73756666696369656E742062616C616E63650000 PUSH1 0x40 DUP3 ADD MSTORE PUSH1 0x60 ADD SWAP1 JUMP JUMPDEST PUSH1 0x20 DUP1 DUP3 MSTORE PUSH1 0x22 SWAP1 DUP3 ADD MSTORE PUSH32 0x45524332303A206275726E20616D6F756E7420657863656564732062616C616E PUSH1 0x40 DUP3 ADD MSTORE PUSH2 0x6365 PUSH1 0xF0 SHL PUSH1 0x60 DUP3 ADD MSTORE PUSH1 0x80 ADD SWAP1 JUMP JUMPDEST PUSH1 0x20 DUP1 DUP3 MSTORE PUSH1 0x22 SWAP1 DUP3 ADD MSTORE PUSH32 0x45524332303A20617070726F766520746F20746865207A65726F206164647265 PUSH1 0x40 DUP3 ADD MSTORE PUSH2 0x7373 PUSH1 0xF0 SHL PUSH1 0x60 DUP3 ADD MSTORE PUSH1 0x80 ADD SWAP1 JUMP JUMPDEST PUSH1 0x20 DUP1 DUP3 MSTORE PUSH1 0x34 SWAP1 DUP3 ADD MSTORE PUSH32 0x505275463A5441543A20436F6C642057616C6C6574202D205472757374656420 PUSH1 0x40 DUP3 ADD MSTORE PUSH20 0x199D5B98DD1A5BDB9CC81C1C9BDA1A589A5D1959 PUSH1 0x62 SHL PUSH1 0x60 DUP3 ADD MSTORE PUSH1 0x80 ADD SWAP1 JUMP JUMPDEST PUSH1 0x20 DUP1 DUP3 MSTORE PUSH1 0x25 SWAP1 DUP3 ADD MSTORE PUSH32 0x505275463A4D4F442D495041593A204D75737420686176652050415941424C45 PUSH1 0x40 DUP3 ADD MSTORE PUSH5 0x5F524F4C45 PUSH1 0xD8 SHL PUSH1 0x60 DUP3 ADD MSTORE PUSH1 0x80 ADD SWAP1 JUMP JUMPDEST PUSH1 0x20 DUP1 DUP3 MSTORE PUSH1 0x22 SWAP1 DUP3 ADD MSTORE PUSH32 0x505275463A4D4F442D49503A204D7573742068617665205041555345525F524F PUSH1 0x40 DUP3 ADD MSTORE PUSH2 0x4C45 PUSH1 0xF0 SHL PUSH1 0x60 DUP3 ADD MSTORE PUSH1 0x80 ADD SWAP1 JUMP JUMPDEST PUSH1 0x20 DUP1 DUP3 MSTORE PUSH1 0x16 SWAP1 DUP3 ADD MSTORE PUSH22 0x14149D518E9095150E8810D85C08195E18D959591959 PUSH1 0x52 SHL PUSH1 0x40 DUP3 ADD MSTORE PUSH1 0x60 ADD SWAP1 JUMP JUMPDEST PUSH1 0x20 DUP1 DUP3 MSTORE PUSH1 0x2C SWAP1 DUP3 ADD MSTORE PUSH32 0x505275463A4D4F442D4941444D3A204D757374206861766520434F4E54524143 PUSH1 0x40 DUP3 ADD MSTORE PUSH12 0x545F41444D494E5F524F4C45 PUSH1 0xA0 SHL PUSH1 0x60 DUP3 ADD MSTORE PUSH1 0x80 ADD SWAP1 JUMP JUMPDEST PUSH1 0x20 DUP1 DUP3 MSTORE PUSH1 0x26 SWAP1 DUP3 ADD MSTORE PUSH32 0x45524332303A207472616E7366657220616D6F756E7420657863656564732062 PUSH1 0x40 DUP3 ADD MSTORE PUSH6 0x616C616E6365 PUSH1 0xD0 SHL PUSH1 0x60 DUP3 ADD MSTORE PUSH1 0x80 ADD SWAP1 JUMP JUMPDEST PUSH1 0x20 DUP1 DUP3 MSTORE PUSH1 0x4C SWAP1 DUP3 ADD MSTORE PUSH32 0x505275463A54533A2045524332305072657365744D696E746572506175736572 PUSH1 0x40 DUP3 ADD MSTORE PUSH32 0x3A206D757374206861766520736E617073686F7420726F6C6520746F2074616B PUSH1 0x60 DUP3 ADD MSTORE PUSH12 0x194818481CDB985C1CDA1BDD PUSH1 0xA2 SHL PUSH1 0x80 DUP3 ADD MSTORE PUSH1 0xA0 ADD SWAP1 JUMP JUMPDEST PUSH1 0x20 DUP1 DUP3 MSTORE PUSH1 0x34 SWAP1 DUP3 ADD MSTORE PUSH32 0x505275463A5441423A20436F6C642057616C6C6574202D205472757374656420 PUSH1 0x40 DUP3 ADD MSTORE PUSH20 0x199D5B98DD1A5BDB9CC81C1C9BDA1A589A5D1959 PUSH1 0x62 SHL PUSH1 0x60 DUP3 ADD MSTORE PUSH1 0x80 ADD SWAP1 JUMP JUMPDEST PUSH1 0x20 DUP1 DUP3 MSTORE PUSH1 0x29 SWAP1 DUP3 ADD MSTORE PUSH32 0x505275463A415353413A205061796D656E7420616464726573732063616E6E6F PUSH1 0x40 DUP3 ADD MSTORE PUSH9 0x74206265207A65726F PUSH1 0xB8 SHL PUSH1 0x60 DUP3 ADD MSTORE PUSH1 0x80 ADD SWAP1 JUMP JUMPDEST PUSH1 0x20 DUP1 DUP3 MSTORE PUSH1 0x30 SWAP1 DUP3 ADD MSTORE PUSH32 0x416363657373436F6E74726F6C3A2073656E646572206D75737420626520616E PUSH1 0x40 DUP3 ADD MSTORE PUSH16 0x2061646D696E20746F207265766F6B65 PUSH1 0x80 SHL PUSH1 0x60 DUP3 ADD MSTORE PUSH1 0x80 ADD SWAP1 JUMP JUMPDEST PUSH1 0x20 DUP1 DUP3 MSTORE PUSH1 0x10 SWAP1 DUP3 ADD MSTORE PUSH16 0x14185D5CD8589B194E881C185D5CD959 PUSH1 0x82 SHL PUSH1 0x40 DUP3 ADD MSTORE PUSH1 0x60 ADD SWAP1 JUMP JUMPDEST PUSH1 0x20 DUP1 DUP3 MSTORE PUSH1 0x63 SWAP1 DUP3 ADD MSTORE PUSH32 0x505275463A4D4F442D495041593A20547275737465642050617961626C652046 PUSH1 0x40 DUP3 ADD MSTORE PUSH32 0x756E6374696F6E207065726D616E656E746C792064697361626C6564202D2075 PUSH1 0x60 DUP3 ADD MSTORE PUSH32 0x736520616C6C6F77616E6365202F207472616E7366657246726F6D2070617474 PUSH1 0x80 DUP3 ADD MSTORE PUSH3 0x32B937 PUSH1 0xE9 SHL PUSH1 0xA0 DUP3 ADD MSTORE PUSH1 0xC0 ADD SWAP1 JUMP JUMPDEST PUSH1 0x20 DUP1 DUP3 MSTORE PUSH1 0x36 SWAP1 DUP3 ADD MSTORE PUSH32 0x505275463A4254543A2046756E6374696F6E20756E617661696C626C65207768 PUSH1 0x40 DUP3 ADD MSTORE PUSH22 0x1A5B194818DBDB9D1C9858DD081A5CC81C185D5CD959 PUSH1 0x52 SHL PUSH1 0x60 DUP3 ADD MSTORE PUSH1 0x80 ADD SWAP1 JUMP JUMPDEST PUSH1 0x20 DUP1 DUP3 MSTORE PUSH1 0x1D SWAP1 DUP3 ADD MSTORE PUSH32 0x505275463A4D3A204D7573742068617665204D494E5445525F524F4C45000000 PUSH1 0x40 DUP3 ADD MSTORE PUSH1 0x60 ADD SWAP1 JUMP JUMPDEST PUSH1 0x20 DUP1 DUP3 MSTORE PUSH1 0x28 SWAP1 DUP3 ADD MSTORE PUSH32 0x45524332303A207472616E7366657220616D6F756E7420657863656564732061 PUSH1 0x40 DUP3 ADD MSTORE PUSH8 0x6C6C6F77616E6365 PUSH1 0xC0 SHL PUSH1 0x60 DUP3 ADD MSTORE PUSH1 0x80 ADD SWAP1 JUMP JUMPDEST PUSH1 0x20 DUP1 DUP3 MSTORE PUSH1 0x24 SWAP1 DUP3 ADD MSTORE PUSH32 0x45524332303A206275726E20616D6F756E74206578636565647320616C6C6F77 PUSH1 0x40 DUP3 ADD MSTORE PUSH4 0x616E6365 PUSH1 0xE0 SHL PUSH1 0x60 DUP3 ADD MSTORE PUSH1 0x80 ADD SWAP1 JUMP JUMPDEST PUSH1 0x20 DUP1 DUP3 MSTORE PUSH1 0x21 SWAP1 DUP3 ADD MSTORE PUSH32 0x45524332303A206275726E2066726F6D20746865207A65726F20616464726573 PUSH1 0x40 DUP3 ADD MSTORE PUSH1 0x73 PUSH1 0xF8 SHL PUSH1 0x60 DUP3 ADD MSTORE PUSH1 0x80 ADD SWAP1 JUMP JUMPDEST PUSH1 0x20 DUP1 DUP3 MSTORE PUSH1 0x25 SWAP1 DUP3 ADD MSTORE PUSH32 0x45524332303A207472616E736665722066726F6D20746865207A65726F206164 PUSH1 0x40 DUP3 ADD MSTORE PUSH5 0x6472657373 PUSH1 0xD8 SHL PUSH1 0x60 DUP3 ADD MSTORE PUSH1 0x80 ADD SWAP1 JUMP JUMPDEST PUSH1 0x20 DUP1 DUP3 MSTORE PUSH1 0x24 SWAP1 DUP3 ADD MSTORE PUSH32 0x45524332303A20617070726F76652066726F6D20746865207A65726F20616464 PUSH1 0x40 DUP3 ADD MSTORE PUSH4 0x72657373 PUSH1 0xE0 SHL PUSH1 0x60 DUP3 ADD MSTORE PUSH1 0x80 ADD SWAP1 JUMP JUMPDEST PUSH1 0x20 DUP1 DUP3 MSTORE PUSH1 0x16 SWAP1 DUP3 ADD MSTORE PUSH22 0x4552433230536E617073686F743A206964206973203 PUSH1 0x54 SHL PUSH1 0x40 DUP3 ADD MSTORE PUSH1 0x60 ADD SWAP1 JUMP JUMPDEST PUSH1 0x20 DUP1 DUP3 MSTORE PUSH1 0x25 SWAP1 DUP3 ADD MSTORE PUSH32 0x45524332303A2064656372656173656420616C6C6F77616E63652062656C6F77 PUSH1 0x40 DUP3 ADD MSTORE PUSH5 0x207A65726F PUSH1 0xD8 SHL PUSH1 0x60 DUP3 ADD MSTORE PUSH1 0x80 ADD SWAP1 JUMP JUMPDEST PUSH1 0x20 DUP1 DUP3 MSTORE PUSH1 0x2F SWAP1 DUP3 ADD MSTORE PUSH32 0x416363657373436F6E74726F6C3A2063616E206F6E6C792072656E6F756E6365 PUSH1 0x40 DUP3 ADD MSTORE PUSH15 0x103937B632B9903337B91039B2B633 PUSH1 0x89 SHL PUSH1 0x60 DUP3 ADD MSTORE PUSH1 0x80 ADD SWAP1 JUMP JUMPDEST PUSH1 0x20 DUP1 DUP3 MSTORE PUSH1 0x1F SWAP1 DUP3 ADD MSTORE PUSH32 0x45524332303A206D696E7420746F20746865207A65726F206164647265737300 PUSH1 0x40 DUP3 ADD MSTORE PUSH1 0x60 ADD SWAP1 JUMP JUMPDEST PUSH1 0xFF SWAP2 SWAP1 SWAP2 AND DUP2 MSTORE PUSH1 0x20 ADD SWAP1 JUMP JUMPDEST PUSH1 0x0 DUP3 NOT DUP3 GT ISZERO PUSH2 0x26F2 JUMPI PUSH2 0x26F2 PUSH2 0x2771 JUMP JUMPDEST POP ADD SWAP1 JUMP JUMPDEST PUSH1 0x0 DUP3 PUSH2 0x2706 JUMPI PUSH2 0x2706 PUSH2 0x2787 JUMP JUMPDEST POP DIV SWAP1 JUMP JUMPDEST PUSH1 0x0 DUP3 DUP3 LT ISZERO PUSH2 0x271D JUMPI PUSH2 0x271D PUSH2 0x2771 JUMP JUMPDEST POP SUB SWAP1 JUMP JUMPDEST PUSH1 0x2 DUP2 DIV PUSH1 0x1 DUP3 AND DUP1 PUSH2 0x2736 JUMPI PUSH1 0x7F DUP3 AND SWAP2 POP JUMPDEST PUSH1 0x20 DUP3 LT DUP2 EQ ISZERO PUSH2 0x2757 JUMPI PUSH4 0x4E487B71 PUSH1 0xE0 SHL PUSH1 0x0 MSTORE PUSH1 0x22 PUSH1 0x4 MSTORE PUSH1 0x24 PUSH1 0x0 REVERT JUMPDEST POP SWAP2 SWAP1 POP JUMP JUMPDEST PUSH1 0x0 DUP3 PUSH2 0x276C JUMPI PUSH2 0x276C PUSH2 0x2787 JUMP JUMPDEST POP MOD SWAP1 JUMP JUMPDEST PUSH4 0x4E487B71 PUSH1 0xE0 SHL PUSH1 0x0 MSTORE PUSH1 0x11 PUSH1 0x4 MSTORE PUSH1 0x24 PUSH1 0x0 REVERT JUMPDEST PUSH4 0x4E487B71 PUSH1 0xE0 SHL PUSH1 0x0 MSTORE PUSH1 0x12 PUSH1 0x4 MSTORE PUSH1 0x24 PUSH1 0x0 REVERT INVALID PUSH6 0xD7A28E3265B3 PUSH27 0x6474929F336521B332C1681B933F6CB9F3376673440D862AA26469 PUSH17 0x667358221220DA36636DEC203B669BBF43 0xC7 SWAP9 0xEF 0x2B EQ 0x48 0xE5 ORIGIN MSTORE DUP16 JUMPDEST DUP1 LOG2 GT JUMPDEST 0x4A 0xAE CALLCODE 0xC4 0x2D 0xB1 PUSH5 0x736F6C6343 STOP ADDMOD ADD STOP CALLER "
		},
		"gasEstimates": {
			"creation": {
				"codeDepositCost": "2045400",
				"executionCost": "infinite",
				"totalCost": "infinite"
			},
			"external": {
				"AdminSetSharesAddress(address)": "infinite",
				"CONTRACT_ADMIN_ROLE()": "363",
				"DEFAULT_ADMIN_ROLE()": "383",
				"MINTER_ROLE()": "316",
				"PAUSER_ROLE()": "infinite",
				"PAYABLE_ROLE()": "361",
				"SNAPSHOT_ROLE()": "274",
				"TRUSTED_AGENT_ROLE()": "339",
				"adminKillTrustedAgent(uint256)": "infinite",
				"allowance(address,address)": "infinite",
				"approve(address,uint256)": "22653",
				"balanceOf(address)": "1338",
				"balanceOfAt(address,uint256)": "infinite",
				"burn(uint256)": "infinite",
				"burnFrom(address,uint256)": "infinite",
				"cap()": "1096",
				"decimals()": "286",
				"decreaseAllowance(address,uint256)": "infinite",
				"getRoleAdmin(bytes32)": "1254",
				"getRoleMember(bytes32,uint256)": "infinite",
				"getRoleMemberCount(bytes32)": "infinite",
				"grantRole(bytes32,address)": "infinite",
				"hasRole(bytes32,address)": "infinite",
				"increaseAllowance(address,uint256)": "infinite",
				"isColdWallet(address)": "1359",
				"mint(address,uint256)": "infinite",
				"name()": "infinite",
				"pause()": "infinite",
				"paused()": "1195",
				"payForService(address,(uint32,address,address,uint256,uint256))": "infinite",
				"renounceRole(bytes32,address)": "infinite",
				"revokeRole(bytes32,address)": "infinite",
				"setColdWallet()": "20389",
				"symbol()": "infinite",
				"takeSnapshot()": "infinite",
				"totalSupply()": "1141",
				"totalSupplyAt(uint256)": "infinite",
				"transfer(address,uint256)": "infinite",
				"transferFrom(address,address,uint256)": "infinite",
				"trustedAgentBurn(address,uint256)": "infinite",
				"trustedAgentTransfer(address,address,uint256)": "infinite",
				"unSetColdWallet()": "5368",
				"unpause()": "infinite"
			},
			"internal": {
				"_beforeTokenTransfer(address,address,uint256)": "infinite"
			}
		},
		"methodIdentifiers": {
			"AdminSetSharesAddress(address)": "50c7a35c",
			"CONTRACT_ADMIN_ROLE()": "1da03312",
			"DEFAULT_ADMIN_ROLE()": "a217fddf",
			"MINTER_ROLE()": "d5391393",
			"PAUSER_ROLE()": "e63ab1e9",
			"PAYABLE_ROLE()": "b3b0af6c",
			"SNAPSHOT_ROLE()": "7028e2cd",
			"TRUSTED_AGENT_ROLE()": "992a7176",
			"adminKillTrustedAgent(uint256)": "113e6c0c",
			"allowance(address,address)": "dd62ed3e",
			"approve(address,uint256)": "095ea7b3",
			"balanceOf(address)": "70a08231",
			"balanceOfAt(address,uint256)": "4ee2cd7e",
			"burn(uint256)": "42966c68",
			"burnFrom(address,uint256)": "79cc6790",
			"cap()": "355274ea",
			"decimals()": "313ce567",
			"decreaseAllowance(address,uint256)": "a457c2d7",
			"getRoleAdmin(bytes32)": "248a9ca3",
			"getRoleMember(bytes32,uint256)": "9010d07c",
			"getRoleMemberCount(bytes32)": "ca15c873",
			"grantRole(bytes32,address)": "2f2ff15d",
			"hasRole(bytes32,address)": "91d14854",
			"increaseAllowance(address,uint256)": "39509351",
			"isColdWallet(address)": "4ac3c31b",
			"mint(address,uint256)": "40c10f19",
			"name()": "06fdde03",
			"pause()": "8456cb59",
			"paused()": "5c975abb",
			"payForService(address,(uint32,address,address,uint256,uint256))": "28db9da6",
			"renounceRole(bytes32,address)": "36568abe",
			"revokeRole(bytes32,address)": "d547741f",
			"setColdWallet()": "adfcaae0",
			"symbol()": "95d89b41",
			"takeSnapshot()": "b3d3d37e",
			"totalSupply()": "18160ddd",
			"totalSupplyAt(uint256)": "981b24d0",
			"transfer(address,uint256)": "a9059cbb",
			"transferFrom(address,address,uint256)": "23b872dd",
			"trustedAgentBurn(address,uint256)": "ac416253",
			"trustedAgentTransfer(address,address,uint256)": "9b30d1e9",
			"unSetColdWallet()": "2670d216",
			"unpause()": "3f4ba83a"
		}
	},
	"abi": [
		{
			"inputs": [],
			"stateMutability": "nonpayable",
			"type": "constructor"
		},
		{
			"anonymous": false,
			"inputs": [
				{
					"indexed": true,
					"internalType": "address",
					"name": "owner",
					"type": "address"
				},
				{
					"indexed": true,
					"internalType": "address",
					"name": "spender",
					"type": "address"
				},
				{
					"indexed": false,
					"internalType": "uint256",
					"name": "value",
					"type": "uint256"
				}
			],
			"name": "Approval",
			"type": "event"
		},
		{
			"anonymous": false,
			"inputs": [
				{
					"indexed": false,
					"internalType": "address",
					"name": "account",
					"type": "address"
				}
			],
			"name": "Paused",
			"type": "event"
		},
		{
			"anonymous": false,
			"inputs": [
				{
					"indexed": true,
					"internalType": "bytes32",
					"name": "role",
					"type": "bytes32"
				},
				{
					"indexed": true,
					"internalType": "bytes32",
					"name": "previousAdminRole",
					"type": "bytes32"
				},
				{
					"indexed": true,
					"internalType": "bytes32",
					"name": "newAdminRole",
					"type": "bytes32"
				}
			],
			"name": "RoleAdminChanged",
			"type": "event"
		},
		{
			"anonymous": false,
			"inputs": [
				{
					"indexed": true,
					"internalType": "bytes32",
					"name": "role",
					"type": "bytes32"
				},
				{
					"indexed": true,
					"internalType": "address",
					"name": "account",
					"type": "address"
				},
				{
					"indexed": true,
					"internalType": "address",
					"name": "sender",
					"type": "address"
				}
			],
			"name": "RoleGranted",
			"type": "event"
		},
		{
			"anonymous": false,
			"inputs": [
				{
					"indexed": true,
					"internalType": "bytes32",
					"name": "role",
					"type": "bytes32"
				},
				{
					"indexed": true,
					"internalType": "address",
					"name": "account",
					"type": "address"
				},
				{
					"indexed": true,
					"internalType": "address",
					"name": "sender",
					"type": "address"
				}
			],
			"name": "RoleRevoked",
			"type": "event"
		},
		{
			"anonymous": false,
			"inputs": [
				{
					"indexed": false,
					"internalType": "uint256",
					"name": "id",
					"type": "uint256"
				}
			],
			"name": "Snapshot",
			"type": "event"
		},
		{
			"anonymous": false,
			"inputs": [
				{
					"indexed": true,
					"internalType": "address",
					"name": "from",
					"type": "address"
				},
				{
					"indexed": true,
					"internalType": "address",
					"name": "to",
					"type": "address"
				},
				{
					"indexed": false,
					"internalType": "uint256",
					"name": "value",
					"type": "uint256"
				}
			],
			"name": "Transfer",
			"type": "event"
		},
		{
			"anonymous": false,
			"inputs": [
				{
					"indexed": false,
					"internalType": "address",
					"name": "account",
					"type": "address"
				}
			],
			"name": "Unpaused",
			"type": "event"
		},
		{
			"inputs": [
				{
					"internalType": "address",
					"name": "_paymentAddress",
					"type": "address"
				}
			],
			"name": "AdminSetSharesAddress",
			"outputs": [],
			"stateMutability": "nonpayable",
			"type": "function"
		},
		{
			"inputs": [],
			"name": "CONTRACT_ADMIN_ROLE",
			"outputs": [
				{
					"internalType": "bytes32",
					"name": "",
					"type": "bytes32"
				}
			],
			"stateMutability": "view",
			"type": "function"
		},
		{
			"inputs": [],
			"name": "DEFAULT_ADMIN_ROLE",
			"outputs": [
				{
					"internalType": "bytes32",
					"name": "",
					"type": "bytes32"
				}
			],
			"stateMutability": "view",
			"type": "function"
		},
		{
			"inputs": [],
			"name": "MINTER_ROLE",
			"outputs": [
				{
					"internalType": "bytes32",
					"name": "",
					"type": "bytes32"
				}
			],
			"stateMutability": "view",
			"type": "function"
		},
		{
			"inputs": [],
			"name": "PAUSER_ROLE",
			"outputs": [
				{
					"internalType": "bytes32",
					"name": "",
					"type": "bytes32"
				}
			],
			"stateMutability": "view",
			"type": "function"
		},
		{
			"inputs": [],
			"name": "PAYABLE_ROLE",
			"outputs": [
				{
					"internalType": "bytes32",
					"name": "",
					"type": "bytes32"
				}
			],
			"stateMutability": "view",
			"type": "function"
		},
		{
			"inputs": [],
			"name": "SNAPSHOT_ROLE",
			"outputs": [
				{
					"internalType": "bytes32",
					"name": "",
					"type": "bytes32"
				}
			],
			"stateMutability": "view",
			"type": "function"
		},
		{
			"inputs": [],
			"name": "TRUSTED_AGENT_ROLE",
			"outputs": [
				{
					"internalType": "bytes32",
					"name": "",
					"type": "bytes32"
				}
			],
			"stateMutability": "view",
			"type": "function"
		},
		{
			"inputs": [
				{
					"internalType": "uint256",
					"name": "_key",
					"type": "uint256"
				}
			],
			"name": "adminKillTrustedAgent",
			"outputs": [],
			"stateMutability": "nonpayable",
			"type": "function"
		},
		{
			"inputs": [
				{
					"internalType": "address",
					"name": "owner",
					"type": "address"
				},
				{
					"internalType": "address",
					"name": "spender",
					"type": "address"
				}
			],
			"name": "allowance",
			"outputs": [
				{
					"internalType": "uint256",
					"name": "",
					"type": "uint256"
				}
			],
			"stateMutability": "view",
			"type": "function"
		},
		{
			"inputs": [
				{
					"internalType": "address",
					"name": "spender",
					"type": "address"
				},
				{
					"internalType": "uint256",
					"name": "amount",
					"type": "uint256"
				}
			],
			"name": "approve",
			"outputs": [
				{
					"internalType": "bool",
					"name": "",
					"type": "bool"
				}
			],
			"stateMutability": "nonpayable",
			"type": "function"
		},
		{
			"inputs": [
				{
					"internalType": "address",
					"name": "account",
					"type": "address"
				}
			],
			"name": "balanceOf",
			"outputs": [
				{
					"internalType": "uint256",
					"name": "",
					"type": "uint256"
				}
			],
			"stateMutability": "view",
			"type": "function"
		},
		{
			"inputs": [
				{
					"internalType": "address",
					"name": "account",
					"type": "address"
				},
				{
					"internalType": "uint256",
					"name": "snapshotId",
					"type": "uint256"
				}
			],
			"name": "balanceOfAt",
			"outputs": [
				{
					"internalType": "uint256",
					"name": "",
					"type": "uint256"
				}
			],
			"stateMutability": "view",
			"type": "function"
		},
		{
			"inputs": [
				{
					"internalType": "uint256",
					"name": "amount",
					"type": "uint256"
				}
			],
			"name": "burn",
			"outputs": [],
			"stateMutability": "nonpayable",
			"type": "function"
		},
		{
			"inputs": [
				{
					"internalType": "address",
					"name": "account",
					"type": "address"
				},
				{
					"internalType": "uint256",
					"name": "amount",
					"type": "uint256"
				}
			],
			"name": "burnFrom",
			"outputs": [],
			"stateMutability": "nonpayable",
			"type": "function"
		},
		{
			"inputs": [],
			"name": "cap",
			"outputs": [
				{
					"internalType": "uint256",
					"name": "",
					"type": "uint256"
				}
			],
			"stateMutability": "view",
			"type": "function"
		},
		{
			"inputs": [],
			"name": "decimals",
			"outputs": [
				{
					"internalType": "uint8",
					"name": "",
					"type": "uint8"
				}
			],
			"stateMutability": "view",
			"type": "function"
		},
		{
			"inputs": [
				{
					"internalType": "address",
					"name": "spender",
					"type": "address"
				},
				{
					"internalType": "uint256",
					"name": "subtractedValue",
					"type": "uint256"
				}
			],
			"name": "decreaseAllowance",
			"outputs": [
				{
					"internalType": "bool",
					"name": "",
					"type": "bool"
				}
			],
			"stateMutability": "nonpayable",
			"type": "function"
		},
		{
			"inputs": [
				{
					"internalType": "bytes32",
					"name": "role",
					"type": "bytes32"
				}
			],
			"name": "getRoleAdmin",
			"outputs": [
				{
					"internalType": "bytes32",
					"name": "",
					"type": "bytes32"
				}
			],
			"stateMutability": "view",
			"type": "function"
		},
		{
			"inputs": [
				{
					"internalType": "bytes32",
					"name": "role",
					"type": "bytes32"
				},
				{
					"internalType": "uint256",
					"name": "index",
					"type": "uint256"
				}
			],
			"name": "getRoleMember",
			"outputs": [
				{
					"internalType": "address",
					"name": "",
					"type": "address"
				}
			],
			"stateMutability": "view",
			"type": "function"
		},
		{
			"inputs": [
				{
					"internalType": "bytes32",
					"name": "role",
					"type": "bytes32"
				}
			],
			"name": "getRoleMemberCount",
			"outputs": [
				{
					"internalType": "uint256",
					"name": "",
					"type": "uint256"
				}
			],
			"stateMutability": "view",
			"type": "function"
		},
		{
			"inputs": [
				{
					"internalType": "bytes32",
					"name": "role",
					"type": "bytes32"
				},
				{
					"internalType": "address",
					"name": "account",
					"type": "address"
				}
			],
			"name": "grantRole",
			"outputs": [],
			"stateMutability": "nonpayable",
			"type": "function"
		},
		{
			"inputs": [
				{
					"internalType": "bytes32",
					"name": "role",
					"type": "bytes32"
				},
				{
					"internalType": "address",
					"name": "account",
					"type": "address"
				}
			],
			"name": "hasRole",
			"outputs": [
				{
					"internalType": "bool",
					"name": "",
					"type": "bool"
				}
			],
			"stateMutability": "view",
			"type": "function"
		},
		{
			"inputs": [
				{
					"internalType": "address",
					"name": "spender",
					"type": "address"
				},
				{
					"internalType": "uint256",
					"name": "addedValue",
					"type": "uint256"
				}
			],
			"name": "increaseAllowance",
			"outputs": [
				{
					"internalType": "bool",
					"name": "",
					"type": "bool"
				}
			],
			"stateMutability": "nonpayable",
			"type": "function"
		},
		{
			"inputs": [
				{
					"internalType": "address",
					"name": "_addr",
					"type": "address"
				}
			],
			"name": "isColdWallet",
			"outputs": [
				{
					"internalType": "uint256",
					"name": "",
					"type": "uint256"
				}
			],
			"stateMutability": "view",
			"type": "function"
		},
		{
			"inputs": [
				{
					"internalType": "address",
					"name": "to",
					"type": "address"
				},
				{
					"internalType": "uint256",
					"name": "_amount",
					"type": "uint256"
				}
			],
			"name": "mint",
			"outputs": [],
			"stateMutability": "nonpayable",
			"type": "function"
		},
		{
			"inputs": [],
			"name": "name",
			"outputs": [
				{
					"internalType": "string",
					"name": "",
					"type": "string"
				}
			],
			"stateMutability": "view",
			"type": "function"
		},
		{
			"inputs": [],
			"name": "pause",
			"outputs": [],
			"stateMutability": "nonpayable",
			"type": "function"
		},
		{
			"inputs": [],
			"name": "paused",
			"outputs": [
				{
					"internalType": "bool",
					"name": "",
					"type": "bool"
				}
			],
			"stateMutability": "view",
			"type": "function"
		},
		{
			"inputs": [
				{
					"internalType": "address",
					"name": "_senderAddress",
					"type": "address"
				},
				{
					"components": [
						{
							"internalType": "uint32",
							"name": "assetClass",
							"type": "uint32"
						},
						{
							"internalType": "address",
							"name": "rootAddress",
							"type": "address"
						},
						{
							"internalType": "address",
							"name": "ACTHaddress",
							"type": "address"
						},
						{
							"internalType": "uint256",
							"name": "rootPrice",
							"type": "uint256"
						},
						{
							"internalType": "uint256",
							"name": "ACTHprice",
							"type": "uint256"
						}
					],
					"internalType": "struct Invoice",
					"name": "invoice",
					"type": "tuple"
				}
			],
			"name": "payForService",
			"outputs": [],
			"stateMutability": "nonpayable",
			"type": "function"
		},
		{
			"inputs": [
				{
					"internalType": "bytes32",
					"name": "role",
					"type": "bytes32"
				},
				{
					"internalType": "address",
					"name": "account",
					"type": "address"
				}
			],
			"name": "renounceRole",
			"outputs": [],
			"stateMutability": "nonpayable",
			"type": "function"
		},
		{
			"inputs": [
				{
					"internalType": "bytes32",
					"name": "role",
					"type": "bytes32"
				},
				{
					"internalType": "address",
					"name": "account",
					"type": "address"
				}
			],
			"name": "revokeRole",
			"outputs": [],
			"stateMutability": "nonpayable",
			"type": "function"
		},
		{
			"inputs": [],
			"name": "setColdWallet",
			"outputs": [],
			"stateMutability": "nonpayable",
			"type": "function"
		},
		{
			"inputs": [],
			"name": "symbol",
			"outputs": [
				{
					"internalType": "string",
					"name": "",
					"type": "string"
				}
			],
			"stateMutability": "view",
			"type": "function"
		},
		{
			"inputs": [],
			"name": "takeSnapshot",
			"outputs": [
				{
					"internalType": "uint256",
					"name": "",
					"type": "uint256"
				}
			],
			"stateMutability": "nonpayable",
			"type": "function"
		},
		{
			"inputs": [],
			"name": "totalSupply",
			"outputs": [
				{
					"internalType": "uint256",
					"name": "",
					"type": "uint256"
				}
			],
			"stateMutability": "view",
			"type": "function"
		},
		{
			"inputs": [
				{
					"internalType": "uint256",
					"name": "snapshotId",
					"type": "uint256"
				}
			],
			"name": "totalSupplyAt",
			"outputs": [
				{
					"internalType": "uint256",
					"name": "",
					"type": "uint256"
				}
			],
			"stateMutability": "view",
			"type": "function"
		},
		{
			"inputs": [
				{
					"internalType": "address",
					"name": "recipient",
					"type": "address"
				},
				{
					"internalType": "uint256",
					"name": "amount",
					"type": "uint256"
				}
			],
			"name": "transfer",
			"outputs": [
				{
					"internalType": "bool",
					"name": "",
					"type": "bool"
				}
			],
			"stateMutability": "nonpayable",
			"type": "function"
		},
		{
			"inputs": [
				{
					"internalType": "address",
					"name": "sender",
					"type": "address"
				},
				{
					"internalType": "address",
					"name": "recipient",
					"type": "address"
				},
				{
					"internalType": "uint256",
					"name": "amount",
					"type": "uint256"
				}
			],
			"name": "transferFrom",
			"outputs": [
				{
					"internalType": "bool",
					"name": "",
					"type": "bool"
				}
			],
			"stateMutability": "nonpayable",
			"type": "function"
		},
		{
			"inputs": [
				{
					"internalType": "address",
					"name": "_addr",
					"type": "address"
				},
				{
					"internalType": "uint256",
					"name": "_amount",
					"type": "uint256"
				}
			],
			"name": "trustedAgentBurn",
			"outputs": [],
			"stateMutability": "nonpayable",
			"type": "function"
		},
		{
			"inputs": [
				{
					"internalType": "address",
					"name": "_from",
					"type": "address"
				},
				{
					"internalType": "address",
					"name": "_to",
					"type": "address"
				},
				{
					"internalType": "uint256",
					"name": "_amount",
					"type": "uint256"
				}
			],
			"name": "trustedAgentTransfer",
			"outputs": [],
			"stateMutability": "nonpayable",
			"type": "function"
		},
		{
			"inputs": [],
			"name": "unSetColdWallet",
			"outputs": [],
			"stateMutability": "nonpayable",
			"type": "function"
		},
		{
			"inputs": [],
			"name": "unpause",
			"outputs": [],
			"stateMutability": "nonpayable",
			"type": "function"
		}
	]
}