{
	"data": {
		"bytecode": {
			"linkReferences": {},
			"object": "60806040523480156200001157600080fd5b5060016000819055506000600260006101000a81548160ff021916908315150217905550620000596000801b6200004d620000e160201b60201c565b620000e960201b60201c565b6200009a7f2ce8d04a9c35987429af538825cd2438cc5c5bb5dc427955f84daaa3ea1050166200008e620000e160201b60201c565b620000e960201b60201c565b620000db7f65d7a28e3265b37a6474929f336521b332c1681b933f6cb9f3376673440d862a620000cf620000e160201b60201c565b620000e960201b60201c565b62000278565b600033905090565b620000fb8282620000ff60201b60201c565b5050565b6200012e8160016000858152602001908152602001600020600001620001a360201b620020c61790919060201c565b156200019f5762000144620000e160201b60201c565b73ffffffffffffffffffffffffffffffffffffffff168173ffffffffffffffffffffffffffffffffffffffff16837f2f8788117e7eff1d82e926ec794901d17c78024a50270940304540a733656f0d60405160405180910390a45b5050565b6000620001d3836000018373ffffffffffffffffffffffffffffffffffffffff1660001b620001db60201b60201c565b905092915050565b6000620001ef83836200025560201b60201c565b6200024a5782600001829080600181540180825580915050600190039060005260206000200160009091909190915055826000018054905083600101600084815260200190815260200160002081905550600190506200024f565b600090505b92915050565b600080836001016000848152602001908152602001600020541415905092915050565b61566480620002886000396000f3fe608060405234801561001057600080fd5b50600436106101375760003560e01c80639010d07c116100b8578063c0c070a11161007c578063c0c070a114610314578063ca15c87314610330578063d547741f14610360578063d6b02ecf1461037c578063e63ab1e914610398578063e8b41653146103b657610137565b80639010d07c1461025e57806391d148541461028e57806392ba3da6146102be578063a217fddf146102da578063af7cb17f146102f857610137565b806336568abe116100ff57806336568abe146101f45780633f4ba83a14610210578063440e7a7e1461021a5780635c975abb146102365780638456cb591461025457610137565b80631429db5f1461013c578063150b7a021461015a5780631da033121461018a578063248a9ca3146101a85780632f2ff15d146101d8575b600080fd5b6101446103c0565b604051610151919061436a565b60405180910390f35b610174600480360381019061016f91906138ac565b6103e4565b60405161018191906143f3565b60405180910390f35b6101926103f9565b60405161019f919061436a565b60405180910390f35b6101c260048036038101906101bd91906139a4565b61041d565b6040516101cf919061436a565b60405180910390f35b6101f260048036038101906101ed91906139cd565b61043d565b005b61020e600480360381019061020991906139cd565b6104b1565b005b610218610534565b005b610234600480360381019061022f919061392c565b6105ae565b005b61023e610712565b60405161024b919061434f565b60405180910390f35b61025c610729565b005b61027860048036038101906102739190613a09565b6107a3565b6040516102859190614298565b60405180910390f35b6102a860048036038101906102a391906139cd565b6107d5565b6040516102b5919061434f565b60405180910390f35b6102d860048036038101906102d39190613968565b610807565b005b6102e2610962565b6040516102ef919061436a565b60405180910390f35b610312600480360381019061030d9190613a98565b610969565b005b61032e60048036038101906103299190613aea565b610d8f565b005b61034a600480360381019061034591906139a4565b6111e9565b604051610357919061486e565b60405180910390f35b61037a600480360381019061037591906139cd565b611210565b005b6103966004803603810190610391919061385a565b611284565b005b6103a06113a8565b6040516103ad919061436a565b60405180910390f35b6103be6113cc565b005b7f7f1e4e9f3d9ba0452a25cfef4cd4c6ffc86158d06ed2f585fa0093e12dec429c81565b600063150b7a0260e01b905095945050505050565b7f2ce8d04a9c35987429af538825cd2438cc5c5bb5dc427955f84daaa3ea10501681565b600060016000838152602001908152602001600020600201549050919050565b610464600160008481526020019081526020016000206002015461045f6120f6565b6107d5565b6104a3576040517f08c379a000000000000000000000000000000000000000000000000000000000815260040161049a9061444e565b60405180910390fd5b6104ad82826120fe565b5050565b6104b96120f6565b73ffffffffffffffffffffffffffffffffffffffff168173ffffffffffffffffffffffffffffffffffffffff1614610526576040517f08c379a000000000000000000000000000000000000000000000000000000000815260040161051d9061484e565b60405180910390fd5b6105308282612192565b5050565b6105657f65d7a28e3265b37a6474929f336521b332c1681b933f6cb9f3376673440d862a6105606120f6565b6107d5565b6105a4576040517f08c379a000000000000000000000000000000000000000000000000000000000815260040161059b9061450e565b60405180910390fd5b6105ac612226565b565b600260005414156105f4576040517f08c379a00000000000000000000000000000000000000000000000000000000081526004016105eb906147ee565b60405180910390fd5b600260008190555061062d7f7f1e4e9f3d9ba0452a25cfef4cd4c6ffc86158d06ed2f585fa0093e12dec429c6106286120f6565b6107d5565b61066c576040517f08c379a00000000000000000000000000000000000000000000000000000000081526004016106639061458e565b60405180910390fd5b60008160001c9050600960009054906101000a900473ffffffffffffffffffffffffffffffffffffffff1673ffffffffffffffffffffffffffffffffffffffff166342842e0e3085846040518463ffffffff1660e01b81526004016106d3939291906142b3565b600060405180830381600087803b1580156106ed57600080fd5b505af1158015610701573d6000803e3d6000fd5b505050505060016000819055505050565b6000600260009054906101000a900460ff16905090565b61075a7f65d7a28e3265b37a6474929f336521b332c1681b933f6cb9f3376673440d862a6107556120f6565b6107d5565b610799576040517f08c379a00000000000000000000000000000000000000000000000000000000081526004016107909061450e565b60405180910390fd5b6107a16122c8565b565b60006107cd826001600086815260200190815260200160002060000161236b90919063ffffffff16565b905092915050565b60006107ff826001600086815260200190815260200160002060000161238590919063ffffffff16565b905092915050565b6108387f2ce8d04a9c35987429af538825cd2438cc5c5bb5dc427955f84daaa3ea1050166108336120f6565b6107d5565b610877576040517f08c379a000000000000000000000000000000000000000000000000000000000815260040161086e9061442e565b60405180910390fd5b600260005414156108bd576040517f08c379a00000000000000000000000000000000000000000000000000000000081526004016108b4906147ee565b60405180910390fd5b6002600081905550600b60009054906101000a900473ffffffffffffffffffffffffffffffffffffffff1673ffffffffffffffffffffffffffffffffffffffff166342842e0e3084846040518463ffffffff1660e01b8152600401610924939291906142b3565b600060405180830381600087803b15801561093e57600080fd5b505af1158015610952573d6000803e3d6000fd5b5050505060016000819055505050565b6000801b81565b600260005414156109af576040517f08c379a00000000000000000000000000000000000000000000000000000000081526004016109a6906147ee565b60405180910390fd5b60026000819055506109bf610712565b156109ff576040517f08c379a00000000000000000000000000000000000000000000000000000000081526004016109f69061454e565b60405180910390fd5b80600860009054906101000a900473ffffffffffffffffffffffffffffffffffffffff16610a2b6120f6565b73ffffffffffffffffffffffffffffffffffffffff168173ffffffffffffffffffffffffffffffffffffffff16636352211e846040518263ffffffff1660e01b8152600401610a7a919061486e565b60206040518083038186803b158015610a9257600080fd5b505afa158015610aa6573d6000803e3d6000fd5b505050506040513d601f19601f82011682018060405250810190610aca9190613883565b73ffffffffffffffffffffffffffffffffffffffff1614610b20576040517f08c379a0000000000000000000000000000000000000000000000000000000008152600401610b179061468e565b60405180910390fd5b60008360001b90506000610b33826123b5565b90506000610b448260800151612478565b905060006018600088815260200190815260200160002060010160009054906101000a900473ffffffffffffffffffffffffffffffffffffffff1690506000601860008981526020019081526020016000206000015490506005836040015160ff1614610be6576040517f08c379a0000000000000000000000000000000000000000000000000000000008152600401610bdd9061472e565b60405180910390fd5b8173ffffffffffffffffffffffffffffffffffffffff168360c0015173ffffffffffffffffffffffffffffffffffffffff161480610c545750600073ffffffffffffffffffffffffffffffffffffffff168360c0015173ffffffffffffffffffffffffffffffffffffffff16145b610c93576040517f08c379a0000000000000000000000000000000000000000000000000000000008152600401610c8a9061478e565b60405180910390fd5b6033846000015160ff1614610cdd576040517f08c379a0000000000000000000000000000000000000000000000000000000008152600401610cd4906145ce565b60405180910390fd5b600960009054906101000a900473ffffffffffffffffffffffffffffffffffffffff1673ffffffffffffffffffffffffffffffffffffffff1663d0ad0978896040518263ffffffff1660e01b8152600401610d38919061486e565b600060405180830381600087803b158015610d5257600080fd5b505af1158015610d66573d6000803e3d6000fd5b50505050610d7d8230610d776120f6565b846125bb565b50505050505050600160008190555050565b60026000541415610dd5576040517f08c379a0000000000000000000000000000000000000000000000000000000008152600401610dcc906147ee565b60405180910390fd5b6002600081905550610de5610712565b15610e25576040517f08c379a0000000000000000000000000000000000000000000000000000000008152600401610e1c9061454e565b60405180910390fd5b8484610e2f6120f6565b73ffffffffffffffffffffffffffffffffffffffff168173ffffffffffffffffffffffffffffffffffffffff16636352211e846040518263ffffffff1660e01b8152600401610e7e919061486e565b60206040518083038186803b158015610e9657600080fd5b505afa158015610eaa573d6000803e3d6000fd5b505050506040513d601f19601f82011682018060405250810190610ece9190613883565b73ffffffffffffffffffffffffffffffffffffffff1614610f24576040517f08c379a0000000000000000000000000000000000000000000000000000000008152600401610f1b9061468e565b60405180910390fd5b60008787604051602001610f3992919061426c565b6040516020818303038152906040528051906020012090506000610f5c826123b5565b90506000610f6987612478565b905060008360001c90506005826040015160ff1614610fbd576040517f08c379a0000000000000000000000000000000000000000000000000000000008152600401610fb4906146ee565b60405180910390fd5b8973ffffffffffffffffffffffffffffffffffffffff168260c0015173ffffffffffffffffffffffffffffffffffffffff16148061102b5750600073ffffffffffffffffffffffffffffffffffffffff168260c0015173ffffffffffffffffffffffffffffffffffffffff16145b61106a576040517f08c379a00000000000000000000000000000000000000000000000000000000081526004016110619061460e565b60405180910390fd5b8a6018600083815260200190815260200160002060000181905550896018600083815260200190815260200160002060010160006101000a81548173ffffffffffffffffffffffffffffffffffffffff021916908373ffffffffffffffffffffffffffffffffffffffff1602179055506110ed8a6110e66120f6565b308e6125bb565b6000836080015163ffffffff1614156111115761110c848a8a8a612630565b6111c9565b600960009054906101000a900473ffffffffffffffffffffffffffffffffffffffff1673ffffffffffffffffffffffffffffffffffffffff166354a19c2b6111576120f6565b836040518363ffffffff1660e01b8152600401611175929190614313565b602060405180830381600087803b15801561118f57600080fd5b505af11580156111a3573d6000803e3d6000fd5b505050506040513d601f19601f820116820180604052508101906111c79190613ac1565b505b6111d4886001612c91565b50505050505060016000819055505050505050565b600061120960016000848152602001908152602001600020600001612f10565b9050919050565b61123760016000848152602001908152602001600020600201546112326120f6565b6107d5565b611276576040517f08c379a000000000000000000000000000000000000000000000000000000000815260040161126d906144ee565b60405180910390fd5b6112808282612192565b5050565b6112b57f2ce8d04a9c35987429af538825cd2438cc5c5bb5dc427955f84daaa3ea1050166112b06120f6565b6107d5565b6112f4576040517f08c379a00000000000000000000000000000000000000000000000000000000081526004016112eb9061442e565b60405180910390fd5b600073ffffffffffffffffffffffffffffffffffffffff168173ffffffffffffffffffffffffffffffffffffffff161415611364576040517f08c379a000000000000000000000000000000000000000000000000000000000815260040161135b9061462e565b60405180910390fd5b80600360006101000a81548173ffffffffffffffffffffffffffffffffffffffff021916908373ffffffffffffffffffffffffffffffffffffffff16021790555050565b7f65d7a28e3265b37a6474929f336521b332c1681b933f6cb9f3376673440d862a81565b60026000541415611412576040517f08c379a0000000000000000000000000000000000000000000000000000000008152600401611409906147ee565b60405180910390fd5b600260008190555061144b7f2ce8d04a9c35987429af538825cd2438cc5c5bb5dc427955f84daaa3ea1050166114466120f6565b6107d5565b61148a576040517f08c379a00000000000000000000000000000000000000000000000000000000081526004016114819061442e565b60405180910390fd5b600360009054906101000a900473ffffffffffffffffffffffffffffffffffffffff1673ffffffffffffffffffffffffffffffffffffffff1663c771a9826040518163ffffffff1660e01b81526004016114e39061464e565b60206040518083038186803b1580156114fb57600080fd5b505afa15801561150f573d6000803e3d6000fd5b505050506040513d601f19601f820116820180604052508101906115339190613883565b600a60006101000a81548173ffffffffffffffffffffffffffffffffffffffff021916908373ffffffffffffffffffffffffffffffffffffffff160217905550600a60009054906101000a900473ffffffffffffffffffffffffffffffffffffffff16600b60006101000a81548173ffffffffffffffffffffffffffffffffffffffff021916908373ffffffffffffffffffffffffffffffffffffffff160217905550600360009054906101000a900473ffffffffffffffffffffffffffffffffffffffff1673ffffffffffffffffffffffffffffffffffffffff1663c771a9826040518163ffffffff1660e01b815260040161162f9061482e565b60206040518083038186803b15801561164757600080fd5b505afa15801561165b573d6000803e3d6000fd5b505050506040513d601f19601f8201168201806040525081019061167f9190613883565b600460006101000a81548173ffffffffffffffffffffffffffffffffffffffff021916908373ffffffffffffffffffffffffffffffffffffffff160217905550600460009054906101000a900473ffffffffffffffffffffffffffffffffffffffff16600560006101000a81548173ffffffffffffffffffffffffffffffffffffffff021916908373ffffffffffffffffffffffffffffffffffffffff160217905550600360009054906101000a900473ffffffffffffffffffffffffffffffffffffffff1673ffffffffffffffffffffffffffffffffffffffff1663c771a9826040518163ffffffff1660e01b815260040161177b9061480e565b60206040518083038186803b15801561179357600080fd5b505afa1580156117a7573d6000803e3d6000fd5b505050506040513d601f19601f820116820180604052508101906117cb9190613883565b600660006101000a81548173ffffffffffffffffffffffffffffffffffffffff021916908373ffffffffffffffffffffffffffffffffffffffff160217905550600660009054906101000a900473ffffffffffffffffffffffffffffffffffffffff16600760006101000a81548173ffffffffffffffffffffffffffffffffffffffff021916908373ffffffffffffffffffffffffffffffffffffffff160217905550600360009054906101000a900473ffffffffffffffffffffffffffffffffffffffff1673ffffffffffffffffffffffffffffffffffffffff1663c771a9826040518163ffffffff1660e01b81526004016118c7906145ae565b60206040518083038186803b1580156118df57600080fd5b505afa1580156118f3573d6000803e3d6000fd5b505050506040513d601f19601f820116820180604052508101906119179190613883565b600860006101000a81548173ffffffffffffffffffffffffffffffffffffffff021916908373ffffffffffffffffffffffffffffffffffffffff160217905550600860009054906101000a900473ffffffffffffffffffffffffffffffffffffffff16600960006101000a81548173ffffffffffffffffffffffffffffffffffffffff021916908373ffffffffffffffffffffffffffffffffffffffff160217905550600360009054906101000a900473ffffffffffffffffffffffffffffffffffffffff1673ffffffffffffffffffffffffffffffffffffffff1663c771a9826040518163ffffffff1660e01b8152600401611a139061474e565b60206040518083038186803b158015611a2b57600080fd5b505afa158015611a3f573d6000803e3d6000fd5b505050506040513d601f19601f82011682018060405250810190611a639190613883565b600c60006101000a81548173ffffffffffffffffffffffffffffffffffffffff021916908373ffffffffffffffffffffffffffffffffffffffff160217905550600c60009054906101000a900473ffffffffffffffffffffffffffffffffffffffff16600d60006101000a81548173ffffffffffffffffffffffffffffffffffffffff021916908373ffffffffffffffffffffffffffffffffffffffff160217905550600360009054906101000a900473ffffffffffffffffffffffffffffffffffffffff1673ffffffffffffffffffffffffffffffffffffffff1663c771a9826040518163ffffffff1660e01b8152600401611b5f906147ae565b60206040518083038186803b158015611b7757600080fd5b505afa158015611b8b573d6000803e3d6000fd5b505050506040513d601f19601f82011682018060405250810190611baf9190613883565b600e60006101000a81548173ffffffffffffffffffffffffffffffffffffffff021916908373ffffffffffffffffffffffffffffffffffffffff160217905550600e60009054906101000a900473ffffffffffffffffffffffffffffffffffffffff16600f60006101000a81548173ffffffffffffffffffffffffffffffffffffffff021916908373ffffffffffffffffffffffffffffffffffffffff160217905550600360009054906101000a900473ffffffffffffffffffffffffffffffffffffffff1673ffffffffffffffffffffffffffffffffffffffff1663c771a9826040518163ffffffff1660e01b8152600401611cab9061448e565b60206040518083038186803b158015611cc357600080fd5b505afa158015611cd7573d6000803e3d6000fd5b505050506040513d601f19601f82011682018060405250810190611cfb9190613883565b601260006101000a81548173ffffffffffffffffffffffffffffffffffffffff021916908373ffffffffffffffffffffffffffffffffffffffff160217905550601260009054906101000a900473ffffffffffffffffffffffffffffffffffffffff16601360006101000a81548173ffffffffffffffffffffffffffffffffffffffff021916908373ffffffffffffffffffffffffffffffffffffffff160217905550600360009054906101000a900473ffffffffffffffffffffffffffffffffffffffff1673ffffffffffffffffffffffffffffffffffffffff1663c771a9826040518163ffffffff1660e01b8152600401611df7906144ae565b60206040518083038186803b158015611e0f57600080fd5b505afa158015611e23573d6000803e3d6000fd5b505050506040513d601f19601f82011682018060405250810190611e479190613883565b601060006101000a81548173ffffffffffffffffffffffffffffffffffffffff021916908373ffffffffffffffffffffffffffffffffffffffff160217905550601060009054906101000a900473ffffffffffffffffffffffffffffffffffffffff16601160006101000a81548173ffffffffffffffffffffffffffffffffffffffff021916908373ffffffffffffffffffffffffffffffffffffffff160217905550600360009054906101000a900473ffffffffffffffffffffffffffffffffffffffff1673ffffffffffffffffffffffffffffffffffffffff1663c771a9826040518163ffffffff1660e01b8152600401611f439061470e565b60206040518083038186803b158015611f5b57600080fd5b505afa158015611f6f573d6000803e3d6000fd5b505050506040513d601f19601f82011682018060405250810190611f939190613883565b601460006101000a81548173ffffffffffffffffffffffffffffffffffffffff021916908373ffffffffffffffffffffffffffffffffffffffff160217905550600360009054906101000a900473ffffffffffffffffffffffffffffffffffffffff1673ffffffffffffffffffffffffffffffffffffffff1663c771a9826040518163ffffffff1660e01b815260040161202c906147ce565b60206040518083038186803b15801561204457600080fd5b505afa158015612058573d6000803e3d6000fd5b505050506040513d601f19601f8201168201806040525081019061207c9190613883565b601760006101000a81548173ffffffffffffffffffffffffffffffffffffffff021916908373ffffffffffffffffffffffffffffffffffffffff1602179055506001600081905550565b60006120ee836000018373ffffffffffffffffffffffffffffffffffffffff1660001b612f25565b905092915050565b600033905090565b61212681600160008581526020019081526020016000206000016120c690919063ffffffff16565b1561218e576121336120f6565b73ffffffffffffffffffffffffffffffffffffffff168173ffffffffffffffffffffffffffffffffffffffff16837f2f8788117e7eff1d82e926ec794901d17c78024a50270940304540a733656f0d60405160405180910390a45b5050565b6121ba8160016000858152602001908152602001600020600001612f9590919063ffffffff16565b15612222576121c76120f6565b73ffffffffffffffffffffffffffffffffffffffff168173ffffffffffffffffffffffffffffffffffffffff16837ff6391f5c32d9c69d2a47ea670b442974b53935d1edc7fd64eb21e047a839171b60405160405180910390a45b5050565b61222e610712565b61226d576040517f08c379a00000000000000000000000000000000000000000000000000000000081526004016122649061446e565b60405180910390fd5b6000600260006101000a81548160ff0219169083151502179055507f5db9ee0a495bf2e6ff9c91a7834c1ba4fdd244a5e8aa4e537bd38aeae4b073aa6122b16120f6565b6040516122be9190614298565b60405180910390a1565b6122d0610712565b15612310576040517f08c379a00000000000000000000000000000000000000000000000000000000081526004016123079061454e565b60405180910390fd5b6001600260006101000a81548160ff0219169083151502179055507f62e78cea01bee320cd4e420270b5ea74000d11b0c9f74754ebdbfc544b05a2586123546120f6565b6040516123619190614298565b60405180910390a1565b600061237a8360000183612fc5565b60001c905092915050565b60006123ad836000018373ffffffffffffffffffffffffffffffffffffffff1660001b61305f565b905092915050565b6123bd6133e8565b6000600360009054906101000a900473ffffffffffffffffffffffffffffffffffffffff1673ffffffffffffffffffffffffffffffffffffffff1663e248f2c4846040518263ffffffff1660e01b815260040161241a919061436a565b6101a060405180830381600087803b15801561243557600080fd5b505af1158015612449573d6000803e3d6000fd5b505050506040513d601f19601f8201168201806040525081019061246d9190613a6e565b905080915050919050565b61248061348f565b61248861348f565b600560009054906101000a900473ffffffffffffffffffffffffffffffffffffffff1673ffffffffffffffffffffffffffffffffffffffff1663f2435010846040518263ffffffff1660e01b81526004016124e391906148a4565b60a060405180830381600087803b1580156124fd57600080fd5b505af1158015612511573d6000803e3d6000fd5b505050506040513d601f19601f820116820180604052508101906125359190613b8a565b8560200186604001876060018860a0018960c0018573ffffffffffffffffffffffffffffffffffffffff1673ffffffffffffffffffffffffffffffffffffffff168152508563ffffffff1663ffffffff168152508560ff1660ff168152508560ff1660ff168152508563ffffffff1663ffffffff16815250505050505080915050919050565b8373ffffffffffffffffffffffffffffffffffffffff166323b872dd8484846040518463ffffffff1660e01b81526004016125f8939291906142b3565b600060405180830381600087803b15801561261257600080fd5b505af1158015612626573d6000803e3d6000fd5b5050505050505050565b60008460001c9050600061264384612478565b90506000600960009054906101000a900473ffffffffffffffffffffffffffffffffffffffff1673ffffffffffffffffffffffffffffffffffffffff1662923f9e846040518263ffffffff1660e01b81526004016126a1919061486e565b60206040518083038186803b1580156126b957600080fd5b505afa1580156126cd573d6000803e3d6000fd5b505050506040513d601f19601f820116820180604052508101906126f19190613c01565b60ff1614612734576040517f08c379a000000000000000000000000000000000000000000000000000000000815260040161272b9061476e565b60405180910390fd5b6005816040015160ff161461277e576040517f08c379a00000000000000000000000000000000000000000000000000000000081526004016127759061466e565b60405180910390fd5b6005816060015160ff16106127c8576040517f08c379a00000000000000000000000000000000000000000000000000000000081526004016127bf906146ae565b60405180910390fd5b6001816060015160ff1614806127e557506002816060015160ff16145b1561290a576127f26120f6565b73ffffffffffffffffffffffffffffffffffffffff16600b60009054906101000a900473ffffffffffffffffffffffffffffffffffffffff1673ffffffffffffffffffffffffffffffffffffffff16636352211e866040518263ffffffff1660e01b81526004016128639190614889565b60206040518083038186803b15801561287b57600080fd5b505afa15801561288f573d6000803e3d6000fd5b505050506040513d601f19601f820116820180604052508101906128b39190613883565b73ffffffffffffffffffffffffffffffffffffffff1614612909576040517f08c379a0000000000000000000000000000000000000000000000000000000008152600401612900906144ce565b60405180910390fd5b5b6003816060015160ff161415612a3a576001600560009054906101000a900473ffffffffffffffffffffffffffffffffffffffff1673ffffffffffffffffffffffffffffffffffffffff16639d2c7cee6129626120f6565b6040516020016129729190614251565b60405160208183030381529060405280519060200120876040518363ffffffff1660e01b81526004016129a69291906143ca565b60206040518083038186803b1580156129be57600080fd5b505afa1580156129d2573d6000803e3d6000fd5b505050506040513d601f19601f820116820180604052508101906129f69190613c01565b60ff1614612a39576040517f08c379a0000000000000000000000000000000000000000000000000000000008152600401612a309061456e565b60405180910390fd5b5b6004816060015160ff161415612b3f57600a600d60009054906101000a900473ffffffffffffffffffffffffffffffffffffffff1673ffffffffffffffffffffffffffffffffffffffff16638a00091a612a926120f6565b6040518263ffffffff1660e01b8152600401612aae9190614298565b60206040518083038186803b158015612ac657600080fd5b505afa158015612ada573d6000803e3d6000fd5b505050506040513d601f19601f82011682018060405250810190612afe9190613ac1565b11612b3e576040517f08c379a0000000000000000000000000000000000000000000000000000000008152600401612b35906145ee565b60405180910390fd5b5b600960009054906101000a900473ffffffffffffffffffffffffffffffffffffffff1673ffffffffffffffffffffffffffffffffffffffff166354a19c2b612b856120f6565b846040518363ffffffff1660e01b8152600401612ba3929190614313565b602060405180830381600087803b158015612bbd57600080fd5b505af1158015612bd1573d6000803e3d6000fd5b505050506040513d601f19601f82011682018060405250810190612bf59190613ac1565b50600360009054906101000a900473ffffffffffffffffffffffffffffffffffffffff1673ffffffffffffffffffffffffffffffffffffffff16633530d114878787876040518563ffffffff1660e01b8152600401612c579493929190614385565b600060405180830381600087803b158015612c7157600080fd5b505af1158015612c85573d6000803e3d6000fd5b50505050505050505050565b612c99610712565b15612cd9576040517f08c379a0000000000000000000000000000000000000000000000000000000008152600401612cd09061454e565b60405180910390fd5b612ce161350c565b60006064600560009054906101000a900473ffffffffffffffffffffffffffffffffffffffff1673ffffffffffffffffffffffffffffffffffffffff1663084649c6866040518263ffffffff1660e01b8152600401612d4091906148a4565b60206040518083038186803b158015612d5857600080fd5b505afa158015612d6c573d6000803e3d6000fd5b505050506040513d601f19601f82011682018060405250810190612d909190613b61565b63ffffffff16612da09190614974565b905060008110158015612db4575060648111155b612df3576040517f08c379a0000000000000000000000000000000000000000000000000000000008152600401612dea906146ce565b60405180910390fd5b600560009054906101000a900473ffffffffffffffffffffffffffffffffffffffff1673ffffffffffffffffffffffffffffffffffffffff1663859f08db85856040518363ffffffff1660e01b8152600401612e509291906148bf565b60a06040518083038186803b158015612e6857600080fd5b505afa158015612e7c573d6000803e3d6000fd5b505050506040513d601f19601f82011682018060405250810190612ea09190613a45565b9150600060648360800151612eb59190614974565b905060008183612ec591906149a5565b90506000818560800151612ed991906149ff565b905081856080018181525050808560600151612ef5919061491e565b856060018181525050612f0785613082565b50505050505050565b6000612f1e8260000161324d565b9050919050565b6000612f31838361305f565b612f8a578260000182908060018154018082558091505060019003906000526020600020016000909190919091505582600001805490508360010160008481526020019081526020016000208190555060019050612f8f565b600090505b92915050565b6000612fbd836000018373ffffffffffffffffffffffffffffffffffffffff1660001b61325e565b905092915050565b600081836000018054905011613010576040517f08c379a00000000000000000000000000000000000000000000000000000000081526004016130079061440e565b60405180910390fd5b82600001828154811061304c577f4e487b7100000000000000000000000000000000000000000000000000000000600052603260045260246000fd5b9060005260206000200154905092915050565b600080836001016000848152602001908152602001600020541415905092915050565b61308a610712565b156130ca576040517f08c379a00000000000000000000000000000000000000000000000000000000081526004016130c19061454e565b60405180910390fd5b600073ffffffffffffffffffffffffffffffffffffffff16816020015173ffffffffffffffffffffffffffffffffffffffff16141561313e576040517f08c379a00000000000000000000000000000000000000000000000000000000081526004016131359061452e565b60405180910390fd5b600073ffffffffffffffffffffffffffffffffffffffff16816040015173ffffffffffffffffffffffffffffffffffffffff1614156131b4578060200151816040019073ffffffffffffffffffffffffffffffffffffffff16908173ffffffffffffffffffffffffffffffffffffffff16815250505b600760009054906101000a900473ffffffffffffffffffffffffffffffffffffffff1673ffffffffffffffffffffffffffffffffffffffff166328db9da66131fa6120f6565b836040518363ffffffff1660e01b81526004016132189291906142ea565b600060405180830381600087803b15801561323257600080fd5b505af1158015613246573d6000803e3d6000fd5b5050505050565b600081600001805490509050919050565b600080836001016000848152602001908152602001600020549050600081146133dc57600060018261329091906149ff565b90506000600186600001805490506132a891906149ff565b905060008660000182815481106132e8577f4e487b7100000000000000000000000000000000000000000000000000000000600052603260045260246000fd5b9060005260206000200154905080876000018481548110613332577f4e487b7100000000000000000000000000000000000000000000000000000000600052603260045260246000fd5b906000526020600020018190555060018361334d919061491e565b87600101600083815260200190815260200160002081905550866000018054806133a0577f4e487b7100000000000000000000000000000000000000000000000000000000600052603160045260246000fd5b600190038181906000526020600020016000905590558660010160008781526020019081526020016000206000905560019450505050506133e2565b60009150505b92915050565b604051806101a00160405280600060ff168152602001600060ff168152602001600060ff168152602001600061ffff168152602001600063ffffffff168152602001600063ffffffff168152602001600063ffffffff16815260200160006effffffffffffffffffffffffffffff16815260200160008019168152602001600080191681526020016000801916815260200160008019168152602001600080191681525090565b60405180610120016040528060608152602001600063ffffffff168152602001600060ff168152602001600060ff168152602001600060ff168152602001600063ffffffff168152602001600073ffffffffffffffffffffffffffffffffffffffff168152602001600060ff168152602001600080191681525090565b6040518060a00160405280600063ffffffff168152602001600073ffffffffffffffffffffffffffffffffffffffff168152602001600073ffffffffffffffffffffffffffffffffffffffff16815260200160008152602001600081525090565b60008135905061357c8161558d565b92915050565b6000815190506135918161558d565b92915050565b6000813590506135a6816155a4565b92915050565b6000815190506135bb816155a4565b92915050565b60008083601f8401126135d357600080fd5b8235905067ffffffffffffffff8111156135ec57600080fd5b60208301915083600182028301111561360457600080fd5b9250929050565b600060a0828403121561361d57600080fd5b61362760a06148e8565b9050600061363784828501613830565b600083015250602061364b84828501613582565b602083015250604061365f84828501613582565b604083015250606061367384828501613806565b606083015250608061368784828501613806565b60808301525092915050565b60006101a082840312156136a657600080fd5b6136b16101a06148e8565b905060006136c184828501613845565b60008301525060206136d584828501613845565b60208301525060406136e984828501613845565b60408301525060606136fd848285016137dc565b606083015250608061371184828501613830565b60808301525060a061372584828501613830565b60a08301525060c061373984828501613830565b60c08301525060e061374d848285016137c7565b60e083015250610100613762848285016135ac565b61010083015250610120613778848285016135ac565b6101208301525061014061378e848285016135ac565b610140830152506101606137a4848285016135ac565b610160830152506101806137ba848285016135ac565b6101808301525092915050565b6000815190506137d6816155bb565b92915050565b6000815190506137eb816155d2565b92915050565b600081359050613800816155e9565b92915050565b600081519050613815816155e9565b92915050565b60008135905061382a81615600565b92915050565b60008151905061383f81615600565b92915050565b60008151905061385481615617565b92915050565b60006020828403121561386c57600080fd5b600061387a8482850161356d565b91505092915050565b60006020828403121561389557600080fd5b60006138a384828501613582565b91505092915050565b6000806000806000608086880312156138c457600080fd5b60006138d28882890161356d565b95505060206138e38882890161356d565b94505060406138f4888289016137f1565b935050606086013567ffffffffffffffff81111561391157600080fd5b61391d888289016135c1565b92509250509295509295909350565b6000806040838503121561393f57600080fd5b600061394d8582860161356d565b925050602061395e85828601613597565b9150509250929050565b6000806040838503121561397b57600080fd5b60006139898582860161356d565b925050602061399a858286016137f1565b9150509250929050565b6000602082840312156139b657600080fd5b60006139c484828501613597565b91505092915050565b600080604083850312156139e057600080fd5b60006139ee85828601613597565b92505060206139ff8582860161356d565b9150509250929050565b60008060408385031215613a1c57600080fd5b6000613a2a85828601613597565b9250506020613a3b858286016137f1565b9150509250929050565b600060a08284031215613a5757600080fd5b6000613a658482850161360b565b91505092915050565b60006101a08284031215613a8157600080fd5b6000613a8f84828501613693565b91505092915050565b600060208284031215613aaa57600080fd5b6000613ab8848285016137f1565b91505092915050565b600060208284031215613ad357600080fd5b6000613ae184828501613806565b91505092915050565b600080600080600060a08688031215613b0257600080fd5b6000613b10888289016137f1565b9550506020613b218882890161356d565b9450506040613b3288828901613597565b9350506060613b438882890161381b565b9250506080613b548882890161381b565b9150509295509295909350565b600060208284031215613b7357600080fd5b6000613b8184828501613830565b91505092915050565b600080600080600060a08688031215613ba257600080fd5b6000613bb088828901613830565b9550506020613bc188828901613845565b9450506040613bd288828901613845565b9350506060613be388828901613830565b9250506080613bf488828901613582565b9150509295509295909350565b600060208284031215613c1357600080fd5b6000613c2184828501613845565b91505092915050565b613c3381614a33565b82525050565b613c4281614a33565b82525050565b613c59613c5482614a33565b614b3a565b82525050565b613c6881614a45565b82525050565b613c7781614a51565b82525050565b613c8681614a5b565b82525050565b6000613c9960228361490d565b9150613ca482614c13565b604082019050919050565b6000613cbc60278361490d565b9150613cc782614c62565b604082019050919050565b6000613cdf602f8361490d565b9150613cea82614cb1565b604082019050919050565b6000613d0260148361490d565b9150613d0d82614d00565b602082019050919050565b6000613d2560038361490d565b9150613d3082614d29565b602082019050919050565b6000613d4860048361490d565b9150613d5382614d52565b602082019050919050565b6000613d6b604e8361490d565b9150613d7682614d7b565b606082019050919050565b6000613d8e60308361490d565b9150613d9982614df0565b604082019050919050565b6000613db160268361490d565b9150613dbc82614e3f565b604082019050919050565b6000613dd460298361490d565b9150613ddf82614e8e565b604082019050919050565b6000613df760108361490d565b9150613e0282614edd565b602082019050919050565b6000613e1a60388361490d565b9150613e2582614f06565b604082019050919050565b6000613e3d601e8361490d565b9150613e4882614f55565b602082019050919050565b6000613e6060058361490d565b9150613e6b82614f7e565b602082019050919050565b6000613e8360278361490d565b9150613e8e82614fa7565b604082019050919050565b6000613ea660318361490d565b9150613eb182614ff6565b604082019050919050565b6000613ec960458361490d565b9150613ed482615045565b606082019050919050565b6000613eec60128361490d565b9150613ef7826150ba565b602082019050919050565b6000613f0f60068361490d565b9150613f1a826150e3565b602082019050919050565b6000613f3260508361490d565b9150613f3d8261510c565b606082019050919050565b6000613f55602f8361490d565b9150613f6082615181565b604082019050919050565b6000613f7860448361490d565b9150613f83826151d0565b606082019050919050565b6000613f9b60328361490d565b9150613fa682615245565b604082019050919050565b6000613fbe60418361490d565b9150613fc982615294565b606082019050919050565b6000613fe160068361490d565b9150613fec82615309565b602082019050919050565b600061400460228361490d565b915061400f82615332565b604082019050919050565b600061402760068361490d565b915061403282615381565b602082019050919050565b600061404a60208361490d565b9150614055826153aa565b602082019050919050565b600061406d60468361490d565b9150614078826153d3565b606082019050919050565b600061409060078361490d565b915061409b82615448565b602082019050919050565b60006140b360078361490d565b91506140be82615471565b602082019050919050565b60006140d660028361490d565b91506140e18261549a565b602082019050919050565b60006140f9601f8361490d565b9150614104826154c3565b602082019050919050565b600061411c60088361490d565b9150614127826154ec565b602082019050919050565b600061413f60068361490d565b915061414a82615515565b602082019050919050565b6000614162602f8361490d565b915061416d8261553e565b604082019050919050565b60a08201600082015161418e6000850182614233565b5060208201516141a16020850182613c2a565b5060408201516141b46040850182613c2a565b5060608201516141c760608501826141ef565b5060808201516141da60808501826141ef565b50505050565b6141e981614aa2565b82525050565b6141f881614ad0565b82525050565b61420781614ad0565b82525050565b61421e61421982614ad0565b614b5e565b82525050565b61422d81614af7565b82525050565b61423c81614ada565b82525050565b61424b81614ada565b82525050565b600061425d8284613c48565b60148201915081905092915050565b6000614278828561420d565b6020820191506142888284613c48565b6014820191508190509392505050565b60006020820190506142ad6000830184613c39565b92915050565b60006060820190506142c86000830186613c39565b6142d56020830185613c39565b6142e260408301846141fe565b949350505050565b600060c0820190506142ff6000830185613c39565b61430c6020830184614178565b9392505050565b60006060820190506143286000830185613c39565b61433560208301846141fe565b8181036040830152614346816140a6565b90509392505050565b60006020820190506143646000830184613c5f565b92915050565b600060208201905061437f6000830184613c6e565b92915050565b600060808201905061439a6000830187613c6e565b6143a76020830186613c6e565b6143b46040830185614242565b6143c16060830184614242565b95945050505050565b60006040820190506143df6000830185613c6e565b6143ec6020830184614242565b9392505050565b60006020820190506144086000830184613c7d565b92915050565b6000602082019050818103600083015261442781613c8c565b9050919050565b6000602082019050818103600083015261444781613caf565b9050919050565b6000602082019050818103600083015261446781613cd2565b9050919050565b6000602082019050818103600083015261448781613cf5565b9050919050565b600060208201905081810360008301526144a781613d18565b9050919050565b600060208201905081810360008301526144c781613d3b565b9050919050565b600060208201905081810360008301526144e781613d5e565b9050919050565b6000602082019050818103600083015261450781613d81565b9050919050565b6000602082019050818103600083015261452781613da4565b9050919050565b6000602082019050818103600083015261454781613dc7565b9050919050565b6000602082019050818103600083015261456781613dea565b9050919050565b6000602082019050818103600083015261458781613e0d565b9050919050565b600060208201905081810360008301526145a781613e30565b9050919050565b600060208201905081810360008301526145c781613e53565b9050919050565b600060208201905081810360008301526145e781613e76565b9050919050565b6000602082019050818103600083015261460781613e99565b9050919050565b6000602082019050818103600083015261462781613ebc565b9050919050565b6000602082019050818103600083015261464781613edf565b9050919050565b6000602082019050818103600083015261466781613f02565b9050919050565b6000602082019050818103600083015261468781613f25565b9050919050565b600060208201905081810360008301526146a781613f48565b9050919050565b600060208201905081810360008301526146c781613f6b565b9050919050565b600060208201905081810360008301526146e781613f8e565b9050919050565b6000602082019050818103600083015261470781613fb1565b9050919050565b6000602082019050818103600083015261472781613fd4565b9050919050565b6000602082019050818103600083015261474781613ff7565b9050919050565b600060208201905081810360008301526147678161401a565b9050919050565b600060208201905081810360008301526147878161403d565b9050919050565b600060208201905081810360008301526147a781614060565b9050919050565b600060208201905081810360008301526147c781614083565b9050919050565b600060208201905081810360008301526147e7816140c9565b9050919050565b60006020820190508181036000830152614807816140ec565b9050919050565b600060208201905081810360008301526148278161410f565b9050919050565b6000602082019050818103600083015261484781614132565b9050919050565b6000602082019050818103600083015261486781614155565b9050919050565b600060208201905061488360008301846141fe565b92915050565b600060208201905061489e6000830184614224565b92915050565b60006020820190506148b96000830184614242565b92915050565b60006040820190506148d46000830185614242565b6148e160208301846141e0565b9392505050565b60006148f2614903565b90506148fe8282614b09565b919050565b6000604051905090565b600082825260208201905092915050565b600061492982614ad0565b915061493483614ad0565b9250827fffffffffffffffffffffffffffffffffffffffffffffffffffffffffffffffff0382111561496957614968614b68565b5b828201905092915050565b600061497f82614ad0565b915061498a83614ad0565b92508261499a57614999614b97565b5b828204905092915050565b60006149b082614ad0565b91506149bb83614ad0565b9250817fffffffffffffffffffffffffffffffffffffffffffffffffffffffffffffffff04831182151516156149f4576149f3614b68565b5b828202905092915050565b6000614a0a82614ad0565b9150614a1583614ad0565b925082821015614a2857614a27614b68565b5b828203905092915050565b6000614a3e82614ab0565b9050919050565b60008115159050919050565b6000819050919050565b60007fffffffff0000000000000000000000000000000000000000000000000000000082169050919050565b60006effffffffffffffffffffffffffffff82169050919050565b600061ffff82169050919050565b600073ffffffffffffffffffffffffffffffffffffffff82169050919050565b6000819050919050565b600063ffffffff82169050919050565b600060ff82169050919050565b6000614b0282614ada565b9050919050565b614b1282614bf5565b810181811067ffffffffffffffff82111715614b3157614b30614bc6565b5b80604052505050565b6000614b4582614b4c565b9050919050565b6000614b5782614c06565b9050919050565b6000819050919050565b7f4e487b7100000000000000000000000000000000000000000000000000000000600052601160045260246000fd5b7f4e487b7100000000000000000000000000000000000000000000000000000000600052601260045260246000fd5b7f4e487b7100000000000000000000000000000000000000000000000000000000600052604160045260246000fd5b6000601f19601f8301169050919050565b60008160601b9050919050565b7f456e756d657261626c655365743a20696e646578206f7574206f6620626f756e60008201527f6473000000000000000000000000000000000000000000000000000000000000602082015250565b7f423a4d4f443a2d4941444d2063616c6c65722021434f4e54524143545f41444d60008201527f494e5f524f4c4500000000000000000000000000000000000000000000000000602082015250565b7f416363657373436f6e74726f6c3a2073656e646572206d75737420626520616e60008201527f2061646d696e20746f206772616e740000000000000000000000000000000000602082015250565b7f5061757361626c653a206e6f7420706175736564000000000000000000000000600082015250565b7f4150500000000000000000000000000000000000000000000000000000000000600082015250565b7f52434c5200000000000000000000000000000000000000000000000000000000600082015250565b7f573a43523a2043616e6e6f742063726561746520617373657420696e2041432060008201527f6d676d74207479706520317c7c32202d2063616c6c657220646f6573206e6f7460208201527f20686f6c6420414320746f6b656e000000000000000000000000000000000000604082015250565b7f416363657373436f6e74726f6c3a2073656e646572206d75737420626520616e60008201527f2061646d696e20746f207265766f6b6500000000000000000000000000000000602082015250565b7f423a4d4f442d49503a43616c6c696e672061646472657373206973206e6f742060008201527f7061757365720000000000000000000000000000000000000000000000000000602082015250565b7f433a44503a20726f6f74207061796d656e7420616472657373206973207a657260008201527f6f20616464726573730000000000000000000000000000000000000000000000602082015250565b7f5061757361626c653a2070617573656400000000000000000000000000000000600082015250565b7f573a43523a43616e6e6f7420637265617465206173736574202d2063616c6c6560008201527f722061646472657373206e6f7420617574686f72697a65640000000000000000602082015250565b7f423a54583a4d75737420686176652041535345545f545846525f524f4c450000600082015250565b7f415f544b4e000000000000000000000000000000000000000000000000000000600082015250565b7f573a55573a204173736574206e6f7420696e207472616e736665727261626c6560008201527f2073746174757300000000000000000000000000000000000000000000000000602082015250565b7f573a43523a43616c6c657220646f6573206e6f7420686f6c642073756666696360008201527f69656e746c792074727573746564204944000000000000000000000000000000602082015250565b7f573a573a20417373657420636c61737320657874656e6465642064617461206d60008201527f75737420626520273027206f722045524337323120636f6e747261637420616460208201527f6472657373000000000000000000000000000000000000000000000000000000604082015250565b7f423a5353433a2041646472657373203d20300000000000000000000000000000600082015250565b7f41435f544b4e0000000000000000000000000000000000000000000000000000600082015250565b7f573a43523a2043616e6e6f7420637265617465206173736574202d20636f6e7460008201527f72616374206e6f7420617574686f72697a656420666f7220617373657420636c60208201527f61737320637573746f6479207479706500000000000000000000000000000000604082015250565b7f573a4d4f442d4954483a2043616c6c657220646f6573206e6f7420686f6c642060008201527f73706563696669656420746f6b656e0000000000000000000000000000000000602082015250565b7f573a43523a20436f6e747261637420646f6573206e6f7420737570706f72742060008201527f6d616e6167656d656e74207479706573203e2034206f72204143206973206c6f60208201527f636b656400000000000000000000000000000000000000000000000000000000604082015250565b7f433a4453433a696e76616c696420646973636f756e742076616c756520666f7260008201527f2070726963652063616c63756c6174696f6e0000000000000000000000000000602082015250565b7f573a573a20417373657420636c6173732e637573746f647954797065206d757360008201527f7420626520352028777261707065642f6465636f72617465642065726337323160208201527f2900000000000000000000000000000000000000000000000000000000000000604082015250565b7f4150505f4e430000000000000000000000000000000000000000000000000000600082015250565b7f573a55573a20417373657420636c6173732e637573746f64795479706520213d60008201527f2035000000000000000000000000000000000000000000000000000000000000602082015250565b7f49445f544b4e0000000000000000000000000000000000000000000000000000600082015250565b7f573a43523a20417373657420746f6b656e20616c726561647920657869737473600082015250565b7f573a55573a20417373657420636c61737320657874656e64656420646174612060008201527f6d75737420626520273027206f722045524337323120636f6e7472616374206160208201527f6464726573730000000000000000000000000000000000000000000000000000604082015250565b7f4543525f4d475200000000000000000000000000000000000000000000000000600082015250565b7f707275662e696f00000000000000000000000000000000000000000000000000600082015250565b7f4e50000000000000000000000000000000000000000000000000000000000000600082015250565b7f5265656e7472616e637947756172643a207265656e7472616e742063616c6c00600082015250565b7f5554494c5f544b4e000000000000000000000000000000000000000000000000600082015250565b7f41435f4d47520000000000000000000000000000000000000000000000000000600082015250565b7f416363657373436f6e74726f6c3a2063616e206f6e6c792072656e6f756e636560008201527f20726f6c657320666f722073656c660000000000000000000000000000000000602082015250565b61559681614a33565b81146155a157600080fd5b50565b6155ad81614a51565b81146155b857600080fd5b50565b6155c481614a87565b81146155cf57600080fd5b50565b6155db81614aa2565b81146155e657600080fd5b50565b6155f281614ad0565b81146155fd57600080fd5b50565b61560981614ada565b811461561457600080fd5b50565b61562081614aea565b811461562b57600080fd5b5056fea2646970667358221220679557e0205b452f1bf0d59d3214b17e95bc2a7d25f32c3b158d090fe7d011c764736f6c63430008010033",
			"opcodes": "PUSH1 0x80 PUSH1 0x40 MSTORE CALLVALUE DUP1 ISZERO PUSH3 0x11 JUMPI PUSH1 0x0 DUP1 REVERT JUMPDEST POP PUSH1 0x1 PUSH1 0x0 DUP2 SWAP1 SSTORE POP PUSH1 0x0 PUSH1 0x2 PUSH1 0x0 PUSH2 0x100 EXP DUP2 SLOAD DUP2 PUSH1 0xFF MUL NOT AND SWAP1 DUP4 ISZERO ISZERO MUL OR SWAP1 SSTORE POP PUSH3 0x59 PUSH1 0x0 DUP1 SHL PUSH3 0x4D PUSH3 0xE1 PUSH1 0x20 SHL PUSH1 0x20 SHR JUMP JUMPDEST PUSH3 0xE9 PUSH1 0x20 SHL PUSH1 0x20 SHR JUMP JUMPDEST PUSH3 0x9A PUSH32 0x2CE8D04A9C35987429AF538825CD2438CC5C5BB5DC427955F84DAAA3EA105016 PUSH3 0x8E PUSH3 0xE1 PUSH1 0x20 SHL PUSH1 0x20 SHR JUMP JUMPDEST PUSH3 0xE9 PUSH1 0x20 SHL PUSH1 0x20 SHR JUMP JUMPDEST PUSH3 0xDB PUSH32 0x65D7A28E3265B37A6474929F336521B332C1681B933F6CB9F3376673440D862A PUSH3 0xCF PUSH3 0xE1 PUSH1 0x20 SHL PUSH1 0x20 SHR JUMP JUMPDEST PUSH3 0xE9 PUSH1 0x20 SHL PUSH1 0x20 SHR JUMP JUMPDEST PUSH3 0x278 JUMP JUMPDEST PUSH1 0x0 CALLER SWAP1 POP SWAP1 JUMP JUMPDEST PUSH3 0xFB DUP3 DUP3 PUSH3 0xFF PUSH1 0x20 SHL PUSH1 0x20 SHR JUMP JUMPDEST POP POP JUMP JUMPDEST PUSH3 0x12E DUP2 PUSH1 0x1 PUSH1 0x0 DUP6 DUP2 MSTORE PUSH1 0x20 ADD SWAP1 DUP2 MSTORE PUSH1 0x20 ADD PUSH1 0x0 KECCAK256 PUSH1 0x0 ADD PUSH3 0x1A3 PUSH1 0x20 SHL PUSH3 0x20C6 OR SWAP1 SWAP2 SWAP1 PUSH1 0x20 SHR JUMP JUMPDEST ISZERO PUSH3 0x19F JUMPI PUSH3 0x144 PUSH3 0xE1 PUSH1 0x20 SHL PUSH1 0x20 SHR JUMP JUMPDEST PUSH20 0xFFFFFFFFFFFFFFFFFFFFFFFFFFFFFFFFFFFFFFFF AND DUP2 PUSH20 0xFFFFFFFFFFFFFFFFFFFFFFFFFFFFFFFFFFFFFFFF AND DUP4 PUSH32 0x2F8788117E7EFF1D82E926EC794901D17C78024A50270940304540A733656F0D PUSH1 0x40 MLOAD PUSH1 0x40 MLOAD DUP1 SWAP2 SUB SWAP1 LOG4 JUMPDEST POP POP JUMP JUMPDEST PUSH1 0x0 PUSH3 0x1D3 DUP4 PUSH1 0x0 ADD DUP4 PUSH20 0xFFFFFFFFFFFFFFFFFFFFFFFFFFFFFFFFFFFFFFFF AND PUSH1 0x0 SHL PUSH3 0x1DB PUSH1 0x20 SHL PUSH1 0x20 SHR JUMP JUMPDEST SWAP1 POP SWAP3 SWAP2 POP POP JUMP JUMPDEST PUSH1 0x0 PUSH3 0x1EF DUP4 DUP4 PUSH3 0x255 PUSH1 0x20 SHL PUSH1 0x20 SHR JUMP JUMPDEST PUSH3 0x24A JUMPI DUP3 PUSH1 0x0 ADD DUP3 SWAP1 DUP1 PUSH1 0x1 DUP2 SLOAD ADD DUP1 DUP3 SSTORE DUP1 SWAP2 POP POP PUSH1 0x1 SWAP1 SUB SWAP1 PUSH1 0x0 MSTORE PUSH1 0x20 PUSH1 0x0 KECCAK256 ADD PUSH1 0x0 SWAP1 SWAP2 SWAP1 SWAP2 SWAP1 SWAP2 POP SSTORE DUP3 PUSH1 0x0 ADD DUP1 SLOAD SWAP1 POP DUP4 PUSH1 0x1 ADD PUSH1 0x0 DUP5 DUP2 MSTORE PUSH1 0x20 ADD SWAP1 DUP2 MSTORE PUSH1 0x20 ADD PUSH1 0x0 KECCAK256 DUP2 SWAP1 SSTORE POP PUSH1 0x1 SWAP1 POP PUSH3 0x24F JUMP JUMPDEST PUSH1 0x0 SWAP1 POP JUMPDEST SWAP3 SWAP2 POP POP JUMP JUMPDEST PUSH1 0x0 DUP1 DUP4 PUSH1 0x1 ADD PUSH1 0x0 DUP5 DUP2 MSTORE PUSH1 0x20 ADD SWAP1 DUP2 MSTORE PUSH1 0x20 ADD PUSH1 0x0 KECCAK256 SLOAD EQ ISZERO SWAP1 POP SWAP3 SWAP2 POP POP JUMP JUMPDEST PUSH2 0x5664 DUP1 PUSH3 0x288 PUSH1 0x0 CODECOPY PUSH1 0x0 RETURN INVALID PUSH1 0x80 PUSH1 0x40 MSTORE CALLVALUE DUP1 ISZERO PUSH2 0x10 JUMPI PUSH1 0x0 DUP1 REVERT JUMPDEST POP PUSH1 0x4 CALLDATASIZE LT PUSH2 0x137 JUMPI PUSH1 0x0 CALLDATALOAD PUSH1 0xE0 SHR DUP1 PUSH4 0x9010D07C GT PUSH2 0xB8 JUMPI DUP1 PUSH4 0xC0C070A1 GT PUSH2 0x7C JUMPI DUP1 PUSH4 0xC0C070A1 EQ PUSH2 0x314 JUMPI DUP1 PUSH4 0xCA15C873 EQ PUSH2 0x330 JUMPI DUP1 PUSH4 0xD547741F EQ PUSH2 0x360 JUMPI DUP1 PUSH4 0xD6B02ECF EQ PUSH2 0x37C JUMPI DUP1 PUSH4 0xE63AB1E9 EQ PUSH2 0x398 JUMPI DUP1 PUSH4 0xE8B41653 EQ PUSH2 0x3B6 JUMPI PUSH2 0x137 JUMP JUMPDEST DUP1 PUSH4 0x9010D07C EQ PUSH2 0x25E JUMPI DUP1 PUSH4 0x91D14854 EQ PUSH2 0x28E JUMPI DUP1 PUSH4 0x92BA3DA6 EQ PUSH2 0x2BE JUMPI DUP1 PUSH4 0xA217FDDF EQ PUSH2 0x2DA JUMPI DUP1 PUSH4 0xAF7CB17F EQ PUSH2 0x2F8 JUMPI PUSH2 0x137 JUMP JUMPDEST DUP1 PUSH4 0x36568ABE GT PUSH2 0xFF JUMPI DUP1 PUSH4 0x36568ABE EQ PUSH2 0x1F4 JUMPI DUP1 PUSH4 0x3F4BA83A EQ PUSH2 0x210 JUMPI DUP1 PUSH4 0x440E7A7E EQ PUSH2 0x21A JUMPI DUP1 PUSH4 0x5C975ABB EQ PUSH2 0x236 JUMPI DUP1 PUSH4 0x8456CB59 EQ PUSH2 0x254 JUMPI PUSH2 0x137 JUMP JUMPDEST DUP1 PUSH4 0x1429DB5F EQ PUSH2 0x13C JUMPI DUP1 PUSH4 0x150B7A02 EQ PUSH2 0x15A JUMPI DUP1 PUSH4 0x1DA03312 EQ PUSH2 0x18A JUMPI DUP1 PUSH4 0x248A9CA3 EQ PUSH2 0x1A8 JUMPI DUP1 PUSH4 0x2F2FF15D EQ PUSH2 0x1D8 JUMPI JUMPDEST PUSH1 0x0 DUP1 REVERT JUMPDEST PUSH2 0x144 PUSH2 0x3C0 JUMP JUMPDEST PUSH1 0x40 MLOAD PUSH2 0x151 SWAP2 SWAP1 PUSH2 0x436A JUMP JUMPDEST PUSH1 0x40 MLOAD DUP1 SWAP2 SUB SWAP1 RETURN JUMPDEST PUSH2 0x174 PUSH1 0x4 DUP1 CALLDATASIZE SUB DUP2 ADD SWAP1 PUSH2 0x16F SWAP2 SWAP1 PUSH2 0x38AC JUMP JUMPDEST PUSH2 0x3E4 JUMP JUMPDEST PUSH1 0x40 MLOAD PUSH2 0x181 SWAP2 SWAP1 PUSH2 0x43F3 JUMP JUMPDEST PUSH1 0x40 MLOAD DUP1 SWAP2 SUB SWAP1 RETURN JUMPDEST PUSH2 0x192 PUSH2 0x3F9 JUMP JUMPDEST PUSH1 0x40 MLOAD PUSH2 0x19F SWAP2 SWAP1 PUSH2 0x436A JUMP JUMPDEST PUSH1 0x40 MLOAD DUP1 SWAP2 SUB SWAP1 RETURN JUMPDEST PUSH2 0x1C2 PUSH1 0x4 DUP1 CALLDATASIZE SUB DUP2 ADD SWAP1 PUSH2 0x1BD SWAP2 SWAP1 PUSH2 0x39A4 JUMP JUMPDEST PUSH2 0x41D JUMP JUMPDEST PUSH1 0x40 MLOAD PUSH2 0x1CF SWAP2 SWAP1 PUSH2 0x436A JUMP JUMPDEST PUSH1 0x40 MLOAD DUP1 SWAP2 SUB SWAP1 RETURN JUMPDEST PUSH2 0x1F2 PUSH1 0x4 DUP1 CALLDATASIZE SUB DUP2 ADD SWAP1 PUSH2 0x1ED SWAP2 SWAP1 PUSH2 0x39CD JUMP JUMPDEST PUSH2 0x43D JUMP JUMPDEST STOP JUMPDEST PUSH2 0x20E PUSH1 0x4 DUP1 CALLDATASIZE SUB DUP2 ADD SWAP1 PUSH2 0x209 SWAP2 SWAP1 PUSH2 0x39CD JUMP JUMPDEST PUSH2 0x4B1 JUMP JUMPDEST STOP JUMPDEST PUSH2 0x218 PUSH2 0x534 JUMP JUMPDEST STOP JUMPDEST PUSH2 0x234 PUSH1 0x4 DUP1 CALLDATASIZE SUB DUP2 ADD SWAP1 PUSH2 0x22F SWAP2 SWAP1 PUSH2 0x392C JUMP JUMPDEST PUSH2 0x5AE JUMP JUMPDEST STOP JUMPDEST PUSH2 0x23E PUSH2 0x712 JUMP JUMPDEST PUSH1 0x40 MLOAD PUSH2 0x24B SWAP2 SWAP1 PUSH2 0x434F JUMP JUMPDEST PUSH1 0x40 MLOAD DUP1 SWAP2 SUB SWAP1 RETURN JUMPDEST PUSH2 0x25C PUSH2 0x729 JUMP JUMPDEST STOP JUMPDEST PUSH2 0x278 PUSH1 0x4 DUP1 CALLDATASIZE SUB DUP2 ADD SWAP1 PUSH2 0x273 SWAP2 SWAP1 PUSH2 0x3A09 JUMP JUMPDEST PUSH2 0x7A3 JUMP JUMPDEST PUSH1 0x40 MLOAD PUSH2 0x285 SWAP2 SWAP1 PUSH2 0x4298 JUMP JUMPDEST PUSH1 0x40 MLOAD DUP1 SWAP2 SUB SWAP1 RETURN JUMPDEST PUSH2 0x2A8 PUSH1 0x4 DUP1 CALLDATASIZE SUB DUP2 ADD SWAP1 PUSH2 0x2A3 SWAP2 SWAP1 PUSH2 0x39CD JUMP JUMPDEST PUSH2 0x7D5 JUMP JUMPDEST PUSH1 0x40 MLOAD PUSH2 0x2B5 SWAP2 SWAP1 PUSH2 0x434F JUMP JUMPDEST PUSH1 0x40 MLOAD DUP1 SWAP2 SUB SWAP1 RETURN JUMPDEST PUSH2 0x2D8 PUSH1 0x4 DUP1 CALLDATASIZE SUB DUP2 ADD SWAP1 PUSH2 0x2D3 SWAP2 SWAP1 PUSH2 0x3968 JUMP JUMPDEST PUSH2 0x807 JUMP JUMPDEST STOP JUMPDEST PUSH2 0x2E2 PUSH2 0x962 JUMP JUMPDEST PUSH1 0x40 MLOAD PUSH2 0x2EF SWAP2 SWAP1 PUSH2 0x436A JUMP JUMPDEST PUSH1 0x40 MLOAD DUP1 SWAP2 SUB SWAP1 RETURN JUMPDEST PUSH2 0x312 PUSH1 0x4 DUP1 CALLDATASIZE SUB DUP2 ADD SWAP1 PUSH2 0x30D SWAP2 SWAP1 PUSH2 0x3A98 JUMP JUMPDEST PUSH2 0x969 JUMP JUMPDEST STOP JUMPDEST PUSH2 0x32E PUSH1 0x4 DUP1 CALLDATASIZE SUB DUP2 ADD SWAP1 PUSH2 0x329 SWAP2 SWAP1 PUSH2 0x3AEA JUMP JUMPDEST PUSH2 0xD8F JUMP JUMPDEST STOP JUMPDEST PUSH2 0x34A PUSH1 0x4 DUP1 CALLDATASIZE SUB DUP2 ADD SWAP1 PUSH2 0x345 SWAP2 SWAP1 PUSH2 0x39A4 JUMP JUMPDEST PUSH2 0x11E9 JUMP JUMPDEST PUSH1 0x40 MLOAD PUSH2 0x357 SWAP2 SWAP1 PUSH2 0x486E JUMP JUMPDEST PUSH1 0x40 MLOAD DUP1 SWAP2 SUB SWAP1 RETURN JUMPDEST PUSH2 0x37A PUSH1 0x4 DUP1 CALLDATASIZE SUB DUP2 ADD SWAP1 PUSH2 0x375 SWAP2 SWAP1 PUSH2 0x39CD JUMP JUMPDEST PUSH2 0x1210 JUMP JUMPDEST STOP JUMPDEST PUSH2 0x396 PUSH1 0x4 DUP1 CALLDATASIZE SUB DUP2 ADD SWAP1 PUSH2 0x391 SWAP2 SWAP1 PUSH2 0x385A JUMP JUMPDEST PUSH2 0x1284 JUMP JUMPDEST STOP JUMPDEST PUSH2 0x3A0 PUSH2 0x13A8 JUMP JUMPDEST PUSH1 0x40 MLOAD PUSH2 0x3AD SWAP2 SWAP1 PUSH2 0x436A JUMP JUMPDEST PUSH1 0x40 MLOAD DUP1 SWAP2 SUB SWAP1 RETURN JUMPDEST PUSH2 0x3BE PUSH2 0x13CC JUMP JUMPDEST STOP JUMPDEST PUSH32 0x7F1E4E9F3D9BA0452A25CFEF4CD4C6FFC86158D06ED2F585FA0093E12DEC429C DUP2 JUMP JUMPDEST PUSH1 0x0 PUSH4 0x150B7A02 PUSH1 0xE0 SHL SWAP1 POP SWAP6 SWAP5 POP POP POP POP POP JUMP JUMPDEST PUSH32 0x2CE8D04A9C35987429AF538825CD2438CC5C5BB5DC427955F84DAAA3EA105016 DUP2 JUMP JUMPDEST PUSH1 0x0 PUSH1 0x1 PUSH1 0x0 DUP4 DUP2 MSTORE PUSH1 0x20 ADD SWAP1 DUP2 MSTORE PUSH1 0x20 ADD PUSH1 0x0 KECCAK256 PUSH1 0x2 ADD SLOAD SWAP1 POP SWAP2 SWAP1 POP JUMP JUMPDEST PUSH2 0x464 PUSH1 0x1 PUSH1 0x0 DUP5 DUP2 MSTORE PUSH1 0x20 ADD SWAP1 DUP2 MSTORE PUSH1 0x20 ADD PUSH1 0x0 KECCAK256 PUSH1 0x2 ADD SLOAD PUSH2 0x45F PUSH2 0x20F6 JUMP JUMPDEST PUSH2 0x7D5 JUMP JUMPDEST PUSH2 0x4A3 JUMPI PUSH1 0x40 MLOAD PUSH32 0x8C379A000000000000000000000000000000000000000000000000000000000 DUP2 MSTORE PUSH1 0x4 ADD PUSH2 0x49A SWAP1 PUSH2 0x444E JUMP JUMPDEST PUSH1 0x40 MLOAD DUP1 SWAP2 SUB SWAP1 REVERT JUMPDEST PUSH2 0x4AD DUP3 DUP3 PUSH2 0x20FE JUMP JUMPDEST POP POP JUMP JUMPDEST PUSH2 0x4B9 PUSH2 0x20F6 JUMP JUMPDEST PUSH20 0xFFFFFFFFFFFFFFFFFFFFFFFFFFFFFFFFFFFFFFFF AND DUP2 PUSH20 0xFFFFFFFFFFFFFFFFFFFFFFFFFFFFFFFFFFFFFFFF AND EQ PUSH2 0x526 JUMPI PUSH1 0x40 MLOAD PUSH32 0x8C379A000000000000000000000000000000000000000000000000000000000 DUP2 MSTORE PUSH1 0x4 ADD PUSH2 0x51D SWAP1 PUSH2 0x484E JUMP JUMPDEST PUSH1 0x40 MLOAD DUP1 SWAP2 SUB SWAP1 REVERT JUMPDEST PUSH2 0x530 DUP3 DUP3 PUSH2 0x2192 JUMP JUMPDEST POP POP JUMP JUMPDEST PUSH2 0x565 PUSH32 0x65D7A28E3265B37A6474929F336521B332C1681B933F6CB9F3376673440D862A PUSH2 0x560 PUSH2 0x20F6 JUMP JUMPDEST PUSH2 0x7D5 JUMP JUMPDEST PUSH2 0x5A4 JUMPI PUSH1 0x40 MLOAD PUSH32 0x8C379A000000000000000000000000000000000000000000000000000000000 DUP2 MSTORE PUSH1 0x4 ADD PUSH2 0x59B SWAP1 PUSH2 0x450E JUMP JUMPDEST PUSH1 0x40 MLOAD DUP1 SWAP2 SUB SWAP1 REVERT JUMPDEST PUSH2 0x5AC PUSH2 0x2226 JUMP JUMPDEST JUMP JUMPDEST PUSH1 0x2 PUSH1 0x0 SLOAD EQ ISZERO PUSH2 0x5F4 JUMPI PUSH1 0x40 MLOAD PUSH32 0x8C379A000000000000000000000000000000000000000000000000000000000 DUP2 MSTORE PUSH1 0x4 ADD PUSH2 0x5EB SWAP1 PUSH2 0x47EE JUMP JUMPDEST PUSH1 0x40 MLOAD DUP1 SWAP2 SUB SWAP1 REVERT JUMPDEST PUSH1 0x2 PUSH1 0x0 DUP2 SWAP1 SSTORE POP PUSH2 0x62D PUSH32 0x7F1E4E9F3D9BA0452A25CFEF4CD4C6FFC86158D06ED2F585FA0093E12DEC429C PUSH2 0x628 PUSH2 0x20F6 JUMP JUMPDEST PUSH2 0x7D5 JUMP JUMPDEST PUSH2 0x66C JUMPI PUSH1 0x40 MLOAD PUSH32 0x8C379A000000000000000000000000000000000000000000000000000000000 DUP2 MSTORE PUSH1 0x4 ADD PUSH2 0x663 SWAP1 PUSH2 0x458E JUMP JUMPDEST PUSH1 0x40 MLOAD DUP1 SWAP2 SUB SWAP1 REVERT JUMPDEST PUSH1 0x0 DUP2 PUSH1 0x0 SHR SWAP1 POP PUSH1 0x9 PUSH1 0x0 SWAP1 SLOAD SWAP1 PUSH2 0x100 EXP SWAP1 DIV PUSH20 0xFFFFFFFFFFFFFFFFFFFFFFFFFFFFFFFFFFFFFFFF AND PUSH20 0xFFFFFFFFFFFFFFFFFFFFFFFFFFFFFFFFFFFFFFFF AND PUSH4 0x42842E0E ADDRESS DUP6 DUP5 PUSH1 0x40 MLOAD DUP5 PUSH4 0xFFFFFFFF AND PUSH1 0xE0 SHL DUP2 MSTORE PUSH1 0x4 ADD PUSH2 0x6D3 SWAP4 SWAP3 SWAP2 SWAP1 PUSH2 0x42B3 JUMP JUMPDEST PUSH1 0x0 PUSH1 0x40 MLOAD DUP1 DUP4 SUB DUP2 PUSH1 0x0 DUP8 DUP1 EXTCODESIZE ISZERO DUP1 ISZERO PUSH2 0x6ED JUMPI PUSH1 0x0 DUP1 REVERT JUMPDEST POP GAS CALL ISZERO DUP1 ISZERO PUSH2 0x701 JUMPI RETURNDATASIZE PUSH1 0x0 DUP1 RETURNDATACOPY RETURNDATASIZE PUSH1 0x0 REVERT JUMPDEST POP POP POP POP POP PUSH1 0x1 PUSH1 0x0 DUP2 SWAP1 SSTORE POP POP POP JUMP JUMPDEST PUSH1 0x0 PUSH1 0x2 PUSH1 0x0 SWAP1 SLOAD SWAP1 PUSH2 0x100 EXP SWAP1 DIV PUSH1 0xFF AND SWAP1 POP SWAP1 JUMP JUMPDEST PUSH2 0x75A PUSH32 0x65D7A28E3265B37A6474929F336521B332C1681B933F6CB9F3376673440D862A PUSH2 0x755 PUSH2 0x20F6 JUMP JUMPDEST PUSH2 0x7D5 JUMP JUMPDEST PUSH2 0x799 JUMPI PUSH1 0x40 MLOAD PUSH32 0x8C379A000000000000000000000000000000000000000000000000000000000 DUP2 MSTORE PUSH1 0x4 ADD PUSH2 0x790 SWAP1 PUSH2 0x450E JUMP JUMPDEST PUSH1 0x40 MLOAD DUP1 SWAP2 SUB SWAP1 REVERT JUMPDEST PUSH2 0x7A1 PUSH2 0x22C8 JUMP JUMPDEST JUMP JUMPDEST PUSH1 0x0 PUSH2 0x7CD DUP3 PUSH1 0x1 PUSH1 0x0 DUP7 DUP2 MSTORE PUSH1 0x20 ADD SWAP1 DUP2 MSTORE PUSH1 0x20 ADD PUSH1 0x0 KECCAK256 PUSH1 0x0 ADD PUSH2 0x236B SWAP1 SWAP2 SWAP1 PUSH4 0xFFFFFFFF AND JUMP JUMPDEST SWAP1 POP SWAP3 SWAP2 POP POP JUMP JUMPDEST PUSH1 0x0 PUSH2 0x7FF DUP3 PUSH1 0x1 PUSH1 0x0 DUP7 DUP2 MSTORE PUSH1 0x20 ADD SWAP1 DUP2 MSTORE PUSH1 0x20 ADD PUSH1 0x0 KECCAK256 PUSH1 0x0 ADD PUSH2 0x2385 SWAP1 SWAP2 SWAP1 PUSH4 0xFFFFFFFF AND JUMP JUMPDEST SWAP1 POP SWAP3 SWAP2 POP POP JUMP JUMPDEST PUSH2 0x838 PUSH32 0x2CE8D04A9C35987429AF538825CD2438CC5C5BB5DC427955F84DAAA3EA105016 PUSH2 0x833 PUSH2 0x20F6 JUMP JUMPDEST PUSH2 0x7D5 JUMP JUMPDEST PUSH2 0x877 JUMPI PUSH1 0x40 MLOAD PUSH32 0x8C379A000000000000000000000000000000000000000000000000000000000 DUP2 MSTORE PUSH1 0x4 ADD PUSH2 0x86E SWAP1 PUSH2 0x442E JUMP JUMPDEST PUSH1 0x40 MLOAD DUP1 SWAP2 SUB SWAP1 REVERT JUMPDEST PUSH1 0x2 PUSH1 0x0 SLOAD EQ ISZERO PUSH2 0x8BD JUMPI PUSH1 0x40 MLOAD PUSH32 0x8C379A000000000000000000000000000000000000000000000000000000000 DUP2 MSTORE PUSH1 0x4 ADD PUSH2 0x8B4 SWAP1 PUSH2 0x47EE JUMP JUMPDEST PUSH1 0x40 MLOAD DUP1 SWAP2 SUB SWAP1 REVERT JUMPDEST PUSH1 0x2 PUSH1 0x0 DUP2 SWAP1 SSTORE POP PUSH1 0xB PUSH1 0x0 SWAP1 SLOAD SWAP1 PUSH2 0x100 EXP SWAP1 DIV PUSH20 0xFFFFFFFFFFFFFFFFFFFFFFFFFFFFFFFFFFFFFFFF AND PUSH20 0xFFFFFFFFFFFFFFFFFFFFFFFFFFFFFFFFFFFFFFFF AND PUSH4 0x42842E0E ADDRESS DUP5 DUP5 PUSH1 0x40 MLOAD DUP5 PUSH4 0xFFFFFFFF AND PUSH1 0xE0 SHL DUP2 MSTORE PUSH1 0x4 ADD PUSH2 0x924 SWAP4 SWAP3 SWAP2 SWAP1 PUSH2 0x42B3 JUMP JUMPDEST PUSH1 0x0 PUSH1 0x40 MLOAD DUP1 DUP4 SUB DUP2 PUSH1 0x0 DUP8 DUP1 EXTCODESIZE ISZERO DUP1 ISZERO PUSH2 0x93E JUMPI PUSH1 0x0 DUP1 REVERT JUMPDEST POP GAS CALL ISZERO DUP1 ISZERO PUSH2 0x952 JUMPI RETURNDATASIZE PUSH1 0x0 DUP1 RETURNDATACOPY RETURNDATASIZE PUSH1 0x0 REVERT JUMPDEST POP POP POP POP PUSH1 0x1 PUSH1 0x0 DUP2 SWAP1 SSTORE POP POP POP JUMP JUMPDEST PUSH1 0x0 DUP1 SHL DUP2 JUMP JUMPDEST PUSH1 0x2 PUSH1 0x0 SLOAD EQ ISZERO PUSH2 0x9AF JUMPI PUSH1 0x40 MLOAD PUSH32 0x8C379A000000000000000000000000000000000000000000000000000000000 DUP2 MSTORE PUSH1 0x4 ADD PUSH2 0x9A6 SWAP1 PUSH2 0x47EE JUMP JUMPDEST PUSH1 0x40 MLOAD DUP1 SWAP2 SUB SWAP1 REVERT JUMPDEST PUSH1 0x2 PUSH1 0x0 DUP2 SWAP1 SSTORE POP PUSH2 0x9BF PUSH2 0x712 JUMP JUMPDEST ISZERO PUSH2 0x9FF JUMPI PUSH1 0x40 MLOAD PUSH32 0x8C379A000000000000000000000000000000000000000000000000000000000 DUP2 MSTORE PUSH1 0x4 ADD PUSH2 0x9F6 SWAP1 PUSH2 0x454E JUMP JUMPDEST PUSH1 0x40 MLOAD DUP1 SWAP2 SUB SWAP1 REVERT JUMPDEST DUP1 PUSH1 0x8 PUSH1 0x0 SWAP1 SLOAD SWAP1 PUSH2 0x100 EXP SWAP1 DIV PUSH20 0xFFFFFFFFFFFFFFFFFFFFFFFFFFFFFFFFFFFFFFFF AND PUSH2 0xA2B PUSH2 0x20F6 JUMP JUMPDEST PUSH20 0xFFFFFFFFFFFFFFFFFFFFFFFFFFFFFFFFFFFFFFFF AND DUP2 PUSH20 0xFFFFFFFFFFFFFFFFFFFFFFFFFFFFFFFFFFFFFFFF AND PUSH4 0x6352211E DUP5 PUSH1 0x40 MLOAD DUP3 PUSH4 0xFFFFFFFF AND PUSH1 0xE0 SHL DUP2 MSTORE PUSH1 0x4 ADD PUSH2 0xA7A SWAP2 SWAP1 PUSH2 0x486E JUMP JUMPDEST PUSH1 0x20 PUSH1 0x40 MLOAD DUP1 DUP4 SUB DUP2 DUP7 DUP1 EXTCODESIZE ISZERO DUP1 ISZERO PUSH2 0xA92 JUMPI PUSH1 0x0 DUP1 REVERT JUMPDEST POP GAS STATICCALL ISZERO DUP1 ISZERO PUSH2 0xAA6 JUMPI RETURNDATASIZE PUSH1 0x0 DUP1 RETURNDATACOPY RETURNDATASIZE PUSH1 0x0 REVERT JUMPDEST POP POP POP POP PUSH1 0x40 MLOAD RETURNDATASIZE PUSH1 0x1F NOT PUSH1 0x1F DUP3 ADD AND DUP3 ADD DUP1 PUSH1 0x40 MSTORE POP DUP2 ADD SWAP1 PUSH2 0xACA SWAP2 SWAP1 PUSH2 0x3883 JUMP JUMPDEST PUSH20 0xFFFFFFFFFFFFFFFFFFFFFFFFFFFFFFFFFFFFFFFF AND EQ PUSH2 0xB20 JUMPI PUSH1 0x40 MLOAD PUSH32 0x8C379A000000000000000000000000000000000000000000000000000000000 DUP2 MSTORE PUSH1 0x4 ADD PUSH2 0xB17 SWAP1 PUSH2 0x468E JUMP JUMPDEST PUSH1 0x40 MLOAD DUP1 SWAP2 SUB SWAP1 REVERT JUMPDEST PUSH1 0x0 DUP4 PUSH1 0x0 SHL SWAP1 POP PUSH1 0x0 PUSH2 0xB33 DUP3 PUSH2 0x23B5 JUMP JUMPDEST SWAP1 POP PUSH1 0x0 PUSH2 0xB44 DUP3 PUSH1 0x80 ADD MLOAD PUSH2 0x2478 JUMP JUMPDEST SWAP1 POP PUSH1 0x0 PUSH1 0x18 PUSH1 0x0 DUP9 DUP2 MSTORE PUSH1 0x20 ADD SWAP1 DUP2 MSTORE PUSH1 0x20 ADD PUSH1 0x0 KECCAK256 PUSH1 0x1 ADD PUSH1 0x0 SWAP1 SLOAD SWAP1 PUSH2 0x100 EXP SWAP1 DIV PUSH20 0xFFFFFFFFFFFFFFFFFFFFFFFFFFFFFFFFFFFFFFFF AND SWAP1 POP PUSH1 0x0 PUSH1 0x18 PUSH1 0x0 DUP10 DUP2 MSTORE PUSH1 0x20 ADD SWAP1 DUP2 MSTORE PUSH1 0x20 ADD PUSH1 0x0 KECCAK256 PUSH1 0x0 ADD SLOAD SWAP1 POP PUSH1 0x5 DUP4 PUSH1 0x40 ADD MLOAD PUSH1 0xFF AND EQ PUSH2 0xBE6 JUMPI PUSH1 0x40 MLOAD PUSH32 0x8C379A000000000000000000000000000000000000000000000000000000000 DUP2 MSTORE PUSH1 0x4 ADD PUSH2 0xBDD SWAP1 PUSH2 0x472E JUMP JUMPDEST PUSH1 0x40 MLOAD DUP1 SWAP2 SUB SWAP1 REVERT JUMPDEST DUP2 PUSH20 0xFFFFFFFFFFFFFFFFFFFFFFFFFFFFFFFFFFFFFFFF AND DUP4 PUSH1 0xC0 ADD MLOAD PUSH20 0xFFFFFFFFFFFFFFFFFFFFFFFFFFFFFFFFFFFFFFFF AND EQ DUP1 PUSH2 0xC54 JUMPI POP PUSH1 0x0 PUSH20 0xFFFFFFFFFFFFFFFFFFFFFFFFFFFFFFFFFFFFFFFF AND DUP4 PUSH1 0xC0 ADD MLOAD PUSH20 0xFFFFFFFFFFFFFFFFFFFFFFFFFFFFFFFFFFFFFFFF AND EQ JUMPDEST PUSH2 0xC93 JUMPI PUSH1 0x40 MLOAD PUSH32 0x8C379A000000000000000000000000000000000000000000000000000000000 DUP2 MSTORE PUSH1 0x4 ADD PUSH2 0xC8A SWAP1 PUSH2 0x478E JUMP JUMPDEST PUSH1 0x40 MLOAD DUP1 SWAP2 SUB SWAP1 REVERT JUMPDEST PUSH1 0x33 DUP5 PUSH1 0x0 ADD MLOAD PUSH1 0xFF AND EQ PUSH2 0xCDD JUMPI PUSH1 0x40 MLOAD PUSH32 0x8C379A000000000000000000000000000000000000000000000000000000000 DUP2 MSTORE PUSH1 0x4 ADD PUSH2 0xCD4 SWAP1 PUSH2 0x45CE JUMP JUMPDEST PUSH1 0x40 MLOAD DUP1 SWAP2 SUB SWAP1 REVERT JUMPDEST PUSH1 0x9 PUSH1 0x0 SWAP1 SLOAD SWAP1 PUSH2 0x100 EXP SWAP1 DIV PUSH20 0xFFFFFFFFFFFFFFFFFFFFFFFFFFFFFFFFFFFFFFFF AND PUSH20 0xFFFFFFFFFFFFFFFFFFFFFFFFFFFFFFFFFFFFFFFF AND PUSH4 0xD0AD0978 DUP10 PUSH1 0x40 MLOAD DUP3 PUSH4 0xFFFFFFFF AND PUSH1 0xE0 SHL DUP2 MSTORE PUSH1 0x4 ADD PUSH2 0xD38 SWAP2 SWAP1 PUSH2 0x486E JUMP JUMPDEST PUSH1 0x0 PUSH1 0x40 MLOAD DUP1 DUP4 SUB DUP2 PUSH1 0x0 DUP8 DUP1 EXTCODESIZE ISZERO DUP1 ISZERO PUSH2 0xD52 JUMPI PUSH1 0x0 DUP1 REVERT JUMPDEST POP GAS CALL ISZERO DUP1 ISZERO PUSH2 0xD66 JUMPI RETURNDATASIZE PUSH1 0x0 DUP1 RETURNDATACOPY RETURNDATASIZE PUSH1 0x0 REVERT JUMPDEST POP POP POP POP PUSH2 0xD7D DUP3 ADDRESS PUSH2 0xD77 PUSH2 0x20F6 JUMP JUMPDEST DUP5 PUSH2 0x25BB JUMP JUMPDEST POP POP POP POP POP POP POP PUSH1 0x1 PUSH1 0x0 DUP2 SWAP1 SSTORE POP POP JUMP JUMPDEST PUSH1 0x2 PUSH1 0x0 SLOAD EQ ISZERO PUSH2 0xDD5 JUMPI PUSH1 0x40 MLOAD PUSH32 0x8C379A000000000000000000000000000000000000000000000000000000000 DUP2 MSTORE PUSH1 0x4 ADD PUSH2 0xDCC SWAP1 PUSH2 0x47EE JUMP JUMPDEST PUSH1 0x40 MLOAD DUP1 SWAP2 SUB SWAP1 REVERT JUMPDEST PUSH1 0x2 PUSH1 0x0 DUP2 SWAP1 SSTORE POP PUSH2 0xDE5 PUSH2 0x712 JUMP JUMPDEST ISZERO PUSH2 0xE25 JUMPI PUSH1 0x40 MLOAD PUSH32 0x8C379A000000000000000000000000000000000000000000000000000000000 DUP2 MSTORE PUSH1 0x4 ADD PUSH2 0xE1C SWAP1 PUSH2 0x454E JUMP JUMPDEST PUSH1 0x40 MLOAD DUP1 SWAP2 SUB SWAP1 REVERT JUMPDEST DUP5 DUP5 PUSH2 0xE2F PUSH2 0x20F6 JUMP JUMPDEST PUSH20 0xFFFFFFFFFFFFFFFFFFFFFFFFFFFFFFFFFFFFFFFF AND DUP2 PUSH20 0xFFFFFFFFFFFFFFFFFFFFFFFFFFFFFFFFFFFFFFFF AND PUSH4 0x6352211E DUP5 PUSH1 0x40 MLOAD DUP3 PUSH4 0xFFFFFFFF AND PUSH1 0xE0 SHL DUP2 MSTORE PUSH1 0x4 ADD PUSH2 0xE7E SWAP2 SWAP1 PUSH2 0x486E JUMP JUMPDEST PUSH1 0x20 PUSH1 0x40 MLOAD DUP1 DUP4 SUB DUP2 DUP7 DUP1 EXTCODESIZE ISZERO DUP1 ISZERO PUSH2 0xE96 JUMPI PUSH1 0x0 DUP1 REVERT JUMPDEST POP GAS STATICCALL ISZERO DUP1 ISZERO PUSH2 0xEAA JUMPI RETURNDATASIZE PUSH1 0x0 DUP1 RETURNDATACOPY RETURNDATASIZE PUSH1 0x0 REVERT JUMPDEST POP POP POP POP PUSH1 0x40 MLOAD RETURNDATASIZE PUSH1 0x1F NOT PUSH1 0x1F DUP3 ADD AND DUP3 ADD DUP1 PUSH1 0x40 MSTORE POP DUP2 ADD SWAP1 PUSH2 0xECE SWAP2 SWAP1 PUSH2 0x3883 JUMP JUMPDEST PUSH20 0xFFFFFFFFFFFFFFFFFFFFFFFFFFFFFFFFFFFFFFFF AND EQ PUSH2 0xF24 JUMPI PUSH1 0x40 MLOAD PUSH32 0x8C379A000000000000000000000000000000000000000000000000000000000 DUP2 MSTORE PUSH1 0x4 ADD PUSH2 0xF1B SWAP1 PUSH2 0x468E JUMP JUMPDEST PUSH1 0x40 MLOAD DUP1 SWAP2 SUB SWAP1 REVERT JUMPDEST PUSH1 0x0 DUP8 DUP8 PUSH1 0x40 MLOAD PUSH1 0x20 ADD PUSH2 0xF39 SWAP3 SWAP2 SWAP1 PUSH2 0x426C JUMP JUMPDEST PUSH1 0x40 MLOAD PUSH1 0x20 DUP2 DUP4 SUB SUB DUP2 MSTORE SWAP1 PUSH1 0x40 MSTORE DUP1 MLOAD SWAP1 PUSH1 0x20 ADD KECCAK256 SWAP1 POP PUSH1 0x0 PUSH2 0xF5C DUP3 PUSH2 0x23B5 JUMP JUMPDEST SWAP1 POP PUSH1 0x0 PUSH2 0xF69 DUP8 PUSH2 0x2478 JUMP JUMPDEST SWAP1 POP PUSH1 0x0 DUP4 PUSH1 0x0 SHR SWAP1 POP PUSH1 0x5 DUP3 PUSH1 0x40 ADD MLOAD PUSH1 0xFF AND EQ PUSH2 0xFBD JUMPI PUSH1 0x40 MLOAD PUSH32 0x8C379A000000000000000000000000000000000000000000000000000000000 DUP2 MSTORE PUSH1 0x4 ADD PUSH2 0xFB4 SWAP1 PUSH2 0x46EE JUMP JUMPDEST PUSH1 0x40 MLOAD DUP1 SWAP2 SUB SWAP1 REVERT JUMPDEST DUP10 PUSH20 0xFFFFFFFFFFFFFFFFFFFFFFFFFFFFFFFFFFFFFFFF AND DUP3 PUSH1 0xC0 ADD MLOAD PUSH20 0xFFFFFFFFFFFFFFFFFFFFFFFFFFFFFFFFFFFFFFFF AND EQ DUP1 PUSH2 0x102B JUMPI POP PUSH1 0x0 PUSH20 0xFFFFFFFFFFFFFFFFFFFFFFFFFFFFFFFFFFFFFFFF AND DUP3 PUSH1 0xC0 ADD MLOAD PUSH20 0xFFFFFFFFFFFFFFFFFFFFFFFFFFFFFFFFFFFFFFFF AND EQ JUMPDEST PUSH2 0x106A JUMPI PUSH1 0x40 MLOAD PUSH32 0x8C379A000000000000000000000000000000000000000000000000000000000 DUP2 MSTORE PUSH1 0x4 ADD PUSH2 0x1061 SWAP1 PUSH2 0x460E JUMP JUMPDEST PUSH1 0x40 MLOAD DUP1 SWAP2 SUB SWAP1 REVERT JUMPDEST DUP11 PUSH1 0x18 PUSH1 0x0 DUP4 DUP2 MSTORE PUSH1 0x20 ADD SWAP1 DUP2 MSTORE PUSH1 0x20 ADD PUSH1 0x0 KECCAK256 PUSH1 0x0 ADD DUP2 SWAP1 SSTORE POP DUP10 PUSH1 0x18 PUSH1 0x0 DUP4 DUP2 MSTORE PUSH1 0x20 ADD SWAP1 DUP2 MSTORE PUSH1 0x20 ADD PUSH1 0x0 KECCAK256 PUSH1 0x1 ADD PUSH1 0x0 PUSH2 0x100 EXP DUP2 SLOAD DUP2 PUSH20 0xFFFFFFFFFFFFFFFFFFFFFFFFFFFFFFFFFFFFFFFF MUL NOT AND SWAP1 DUP4 PUSH20 0xFFFFFFFFFFFFFFFFFFFFFFFFFFFFFFFFFFFFFFFF AND MUL OR SWAP1 SSTORE POP PUSH2 0x10ED DUP11 PUSH2 0x10E6 PUSH2 0x20F6 JUMP JUMPDEST ADDRESS DUP15 PUSH2 0x25BB JUMP JUMPDEST PUSH1 0x0 DUP4 PUSH1 0x80 ADD MLOAD PUSH4 0xFFFFFFFF AND EQ ISZERO PUSH2 0x1111 JUMPI PUSH2 0x110C DUP5 DUP11 DUP11 DUP11 PUSH2 0x2630 JUMP JUMPDEST PUSH2 0x11C9 JUMP JUMPDEST PUSH1 0x9 PUSH1 0x0 SWAP1 SLOAD SWAP1 PUSH2 0x100 EXP SWAP1 DIV PUSH20 0xFFFFFFFFFFFFFFFFFFFFFFFFFFFFFFFFFFFFFFFF AND PUSH20 0xFFFFFFFFFFFFFFFFFFFFFFFFFFFFFFFFFFFFFFFF AND PUSH4 0x54A19C2B PUSH2 0x1157 PUSH2 0x20F6 JUMP JUMPDEST DUP4 PUSH1 0x40 MLOAD DUP4 PUSH4 0xFFFFFFFF AND PUSH1 0xE0 SHL DUP2 MSTORE PUSH1 0x4 ADD PUSH2 0x1175 SWAP3 SWAP2 SWAP1 PUSH2 0x4313 JUMP JUMPDEST PUSH1 0x20 PUSH1 0x40 MLOAD DUP1 DUP4 SUB DUP2 PUSH1 0x0 DUP8 DUP1 EXTCODESIZE ISZERO DUP1 ISZERO PUSH2 0x118F JUMPI PUSH1 0x0 DUP1 REVERT JUMPDEST POP GAS CALL ISZERO DUP1 ISZERO PUSH2 0x11A3 JUMPI RETURNDATASIZE PUSH1 0x0 DUP1 RETURNDATACOPY RETURNDATASIZE PUSH1 0x0 REVERT JUMPDEST POP POP POP POP PUSH1 0x40 MLOAD RETURNDATASIZE PUSH1 0x1F NOT PUSH1 0x1F DUP3 ADD AND DUP3 ADD DUP1 PUSH1 0x40 MSTORE POP DUP2 ADD SWAP1 PUSH2 0x11C7 SWAP2 SWAP1 PUSH2 0x3AC1 JUMP JUMPDEST POP JUMPDEST PUSH2 0x11D4 DUP9 PUSH1 0x1 PUSH2 0x2C91 JUMP JUMPDEST POP POP POP POP POP POP PUSH1 0x1 PUSH1 0x0 DUP2 SWAP1 SSTORE POP POP POP POP POP POP JUMP JUMPDEST PUSH1 0x0 PUSH2 0x1209 PUSH1 0x1 PUSH1 0x0 DUP5 DUP2 MSTORE PUSH1 0x20 ADD SWAP1 DUP2 MSTORE PUSH1 0x20 ADD PUSH1 0x0 KECCAK256 PUSH1 0x0 ADD PUSH2 0x2F10 JUMP JUMPDEST SWAP1 POP SWAP2 SWAP1 POP JUMP JUMPDEST PUSH2 0x1237 PUSH1 0x1 PUSH1 0x0 DUP5 DUP2 MSTORE PUSH1 0x20 ADD SWAP1 DUP2 MSTORE PUSH1 0x20 ADD PUSH1 0x0 KECCAK256 PUSH1 0x2 ADD SLOAD PUSH2 0x1232 PUSH2 0x20F6 JUMP JUMPDEST PUSH2 0x7D5 JUMP JUMPDEST PUSH2 0x1276 JUMPI PUSH1 0x40 MLOAD PUSH32 0x8C379A000000000000000000000000000000000000000000000000000000000 DUP2 MSTORE PUSH1 0x4 ADD PUSH2 0x126D SWAP1 PUSH2 0x44EE JUMP JUMPDEST PUSH1 0x40 MLOAD DUP1 SWAP2 SUB SWAP1 REVERT JUMPDEST PUSH2 0x1280 DUP3 DUP3 PUSH2 0x2192 JUMP JUMPDEST POP POP JUMP JUMPDEST PUSH2 0x12B5 PUSH32 0x2CE8D04A9C35987429AF538825CD2438CC5C5BB5DC427955F84DAAA3EA105016 PUSH2 0x12B0 PUSH2 0x20F6 JUMP JUMPDEST PUSH2 0x7D5 JUMP JUMPDEST PUSH2 0x12F4 JUMPI PUSH1 0x40 MLOAD PUSH32 0x8C379A000000000000000000000000000000000000000000000000000000000 DUP2 MSTORE PUSH1 0x4 ADD PUSH2 0x12EB SWAP1 PUSH2 0x442E JUMP JUMPDEST PUSH1 0x40 MLOAD DUP1 SWAP2 SUB SWAP1 REVERT JUMPDEST PUSH1 0x0 PUSH20 0xFFFFFFFFFFFFFFFFFFFFFFFFFFFFFFFFFFFFFFFF AND DUP2 PUSH20 0xFFFFFFFFFFFFFFFFFFFFFFFFFFFFFFFFFFFFFFFF AND EQ ISZERO PUSH2 0x1364 JUMPI PUSH1 0x40 MLOAD PUSH32 0x8C379A000000000000000000000000000000000000000000000000000000000 DUP2 MSTORE PUSH1 0x4 ADD PUSH2 0x135B SWAP1 PUSH2 0x462E JUMP JUMPDEST PUSH1 0x40 MLOAD DUP1 SWAP2 SUB SWAP1 REVERT JUMPDEST DUP1 PUSH1 0x3 PUSH1 0x0 PUSH2 0x100 EXP DUP2 SLOAD DUP2 PUSH20 0xFFFFFFFFFFFFFFFFFFFFFFFFFFFFFFFFFFFFFFFF MUL NOT AND SWAP1 DUP4 PUSH20 0xFFFFFFFFFFFFFFFFFFFFFFFFFFFFFFFFFFFFFFFF AND MUL OR SWAP1 SSTORE POP POP JUMP JUMPDEST PUSH32 0x65D7A28E3265B37A6474929F336521B332C1681B933F6CB9F3376673440D862A DUP2 JUMP JUMPDEST PUSH1 0x2 PUSH1 0x0 SLOAD EQ ISZERO PUSH2 0x1412 JUMPI PUSH1 0x40 MLOAD PUSH32 0x8C379A000000000000000000000000000000000000000000000000000000000 DUP2 MSTORE PUSH1 0x4 ADD PUSH2 0x1409 SWAP1 PUSH2 0x47EE JUMP JUMPDEST PUSH1 0x40 MLOAD DUP1 SWAP2 SUB SWAP1 REVERT JUMPDEST PUSH1 0x2 PUSH1 0x0 DUP2 SWAP1 SSTORE POP PUSH2 0x144B PUSH32 0x2CE8D04A9C35987429AF538825CD2438CC5C5BB5DC427955F84DAAA3EA105016 PUSH2 0x1446 PUSH2 0x20F6 JUMP JUMPDEST PUSH2 0x7D5 JUMP JUMPDEST PUSH2 0x148A JUMPI PUSH1 0x40 MLOAD PUSH32 0x8C379A000000000000000000000000000000000000000000000000000000000 DUP2 MSTORE PUSH1 0x4 ADD PUSH2 0x1481 SWAP1 PUSH2 0x442E JUMP JUMPDEST PUSH1 0x40 MLOAD DUP1 SWAP2 SUB SWAP1 REVERT JUMPDEST PUSH1 0x3 PUSH1 0x0 SWAP1 SLOAD SWAP1 PUSH2 0x100 EXP SWAP1 DIV PUSH20 0xFFFFFFFFFFFFFFFFFFFFFFFFFFFFFFFFFFFFFFFF AND PUSH20 0xFFFFFFFFFFFFFFFFFFFFFFFFFFFFFFFFFFFFFFFF AND PUSH4 0xC771A982 PUSH1 0x40 MLOAD DUP2 PUSH4 0xFFFFFFFF AND PUSH1 0xE0 SHL DUP2 MSTORE PUSH1 0x4 ADD PUSH2 0x14E3 SWAP1 PUSH2 0x464E JUMP JUMPDEST PUSH1 0x20 PUSH1 0x40 MLOAD DUP1 DUP4 SUB DUP2 DUP7 DUP1 EXTCODESIZE ISZERO DUP1 ISZERO PUSH2 0x14FB JUMPI PUSH1 0x0 DUP1 REVERT JUMPDEST POP GAS STATICCALL ISZERO DUP1 ISZERO PUSH2 0x150F JUMPI RETURNDATASIZE PUSH1 0x0 DUP1 RETURNDATACOPY RETURNDATASIZE PUSH1 0x0 REVERT JUMPDEST POP POP POP POP PUSH1 0x40 MLOAD RETURNDATASIZE PUSH1 0x1F NOT PUSH1 0x1F DUP3 ADD AND DUP3 ADD DUP1 PUSH1 0x40 MSTORE POP DUP2 ADD SWAP1 PUSH2 0x1533 SWAP2 SWAP1 PUSH2 0x3883 JUMP JUMPDEST PUSH1 0xA PUSH1 0x0 PUSH2 0x100 EXP DUP2 SLOAD DUP2 PUSH20 0xFFFFFFFFFFFFFFFFFFFFFFFFFFFFFFFFFFFFFFFF MUL NOT AND SWAP1 DUP4 PUSH20 0xFFFFFFFFFFFFFFFFFFFFFFFFFFFFFFFFFFFFFFFF AND MUL OR SWAP1 SSTORE POP PUSH1 0xA PUSH1 0x0 SWAP1 SLOAD SWAP1 PUSH2 0x100 EXP SWAP1 DIV PUSH20 0xFFFFFFFFFFFFFFFFFFFFFFFFFFFFFFFFFFFFFFFF AND PUSH1 0xB PUSH1 0x0 PUSH2 0x100 EXP DUP2 SLOAD DUP2 PUSH20 0xFFFFFFFFFFFFFFFFFFFFFFFFFFFFFFFFFFFFFFFF MUL NOT AND SWAP1 DUP4 PUSH20 0xFFFFFFFFFFFFFFFFFFFFFFFFFFFFFFFFFFFFFFFF AND MUL OR SWAP1 SSTORE POP PUSH1 0x3 PUSH1 0x0 SWAP1 SLOAD SWAP1 PUSH2 0x100 EXP SWAP1 DIV PUSH20 0xFFFFFFFFFFFFFFFFFFFFFFFFFFFFFFFFFFFFFFFF AND PUSH20 0xFFFFFFFFFFFFFFFFFFFFFFFFFFFFFFFFFFFFFFFF AND PUSH4 0xC771A982 PUSH1 0x40 MLOAD DUP2 PUSH4 0xFFFFFFFF AND PUSH1 0xE0 SHL DUP2 MSTORE PUSH1 0x4 ADD PUSH2 0x162F SWAP1 PUSH2 0x482E JUMP JUMPDEST PUSH1 0x20 PUSH1 0x40 MLOAD DUP1 DUP4 SUB DUP2 DUP7 DUP1 EXTCODESIZE ISZERO DUP1 ISZERO PUSH2 0x1647 JUMPI PUSH1 0x0 DUP1 REVERT JUMPDEST POP GAS STATICCALL ISZERO DUP1 ISZERO PUSH2 0x165B JUMPI RETURNDATASIZE PUSH1 0x0 DUP1 RETURNDATACOPY RETURNDATASIZE PUSH1 0x0 REVERT JUMPDEST POP POP POP POP PUSH1 0x40 MLOAD RETURNDATASIZE PUSH1 0x1F NOT PUSH1 0x1F DUP3 ADD AND DUP3 ADD DUP1 PUSH1 0x40 MSTORE POP DUP2 ADD SWAP1 PUSH2 0x167F SWAP2 SWAP1 PUSH2 0x3883 JUMP JUMPDEST PUSH1 0x4 PUSH1 0x0 PUSH2 0x100 EXP DUP2 SLOAD DUP2 PUSH20 0xFFFFFFFFFFFFFFFFFFFFFFFFFFFFFFFFFFFFFFFF MUL NOT AND SWAP1 DUP4 PUSH20 0xFFFFFFFFFFFFFFFFFFFFFFFFFFFFFFFFFFFFFFFF AND MUL OR SWAP1 SSTORE POP PUSH1 0x4 PUSH1 0x0 SWAP1 SLOAD SWAP1 PUSH2 0x100 EXP SWAP1 DIV PUSH20 0xFFFFFFFFFFFFFFFFFFFFFFFFFFFFFFFFFFFFFFFF AND PUSH1 0x5 PUSH1 0x0 PUSH2 0x100 EXP DUP2 SLOAD DUP2 PUSH20 0xFFFFFFFFFFFFFFFFFFFFFFFFFFFFFFFFFFFFFFFF MUL NOT AND SWAP1 DUP4 PUSH20 0xFFFFFFFFFFFFFFFFFFFFFFFFFFFFFFFFFFFFFFFF AND MUL OR SWAP1 SSTORE POP PUSH1 0x3 PUSH1 0x0 SWAP1 SLOAD SWAP1 PUSH2 0x100 EXP SWAP1 DIV PUSH20 0xFFFFFFFFFFFFFFFFFFFFFFFFFFFFFFFFFFFFFFFF AND PUSH20 0xFFFFFFFFFFFFFFFFFFFFFFFFFFFFFFFFFFFFFFFF AND PUSH4 0xC771A982 PUSH1 0x40 MLOAD DUP2 PUSH4 0xFFFFFFFF AND PUSH1 0xE0 SHL DUP2 MSTORE PUSH1 0x4 ADD PUSH2 0x177B SWAP1 PUSH2 0x480E JUMP JUMPDEST PUSH1 0x20 PUSH1 0x40 MLOAD DUP1 DUP4 SUB DUP2 DUP7 DUP1 EXTCODESIZE ISZERO DUP1 ISZERO PUSH2 0x1793 JUMPI PUSH1 0x0 DUP1 REVERT JUMPDEST POP GAS STATICCALL ISZERO DUP1 ISZERO PUSH2 0x17A7 JUMPI RETURNDATASIZE PUSH1 0x0 DUP1 RETURNDATACOPY RETURNDATASIZE PUSH1 0x0 REVERT JUMPDEST POP POP POP POP PUSH1 0x40 MLOAD RETURNDATASIZE PUSH1 0x1F NOT PUSH1 0x1F DUP3 ADD AND DUP3 ADD DUP1 PUSH1 0x40 MSTORE POP DUP2 ADD SWAP1 PUSH2 0x17CB SWAP2 SWAP1 PUSH2 0x3883 JUMP JUMPDEST PUSH1 0x6 PUSH1 0x0 PUSH2 0x100 EXP DUP2 SLOAD DUP2 PUSH20 0xFFFFFFFFFFFFFFFFFFFFFFFFFFFFFFFFFFFFFFFF MUL NOT AND SWAP1 DUP4 PUSH20 0xFFFFFFFFFFFFFFFFFFFFFFFFFFFFFFFFFFFFFFFF AND MUL OR SWAP1 SSTORE POP PUSH1 0x6 PUSH1 0x0 SWAP1 SLOAD SWAP1 PUSH2 0x100 EXP SWAP1 DIV PUSH20 0xFFFFFFFFFFFFFFFFFFFFFFFFFFFFFFFFFFFFFFFF AND PUSH1 0x7 PUSH1 0x0 PUSH2 0x100 EXP DUP2 SLOAD DUP2 PUSH20 0xFFFFFFFFFFFFFFFFFFFFFFFFFFFFFFFFFFFFFFFF MUL NOT AND SWAP1 DUP4 PUSH20 0xFFFFFFFFFFFFFFFFFFFFFFFFFFFFFFFFFFFFFFFF AND MUL OR SWAP1 SSTORE POP PUSH1 0x3 PUSH1 0x0 SWAP1 SLOAD SWAP1 PUSH2 0x100 EXP SWAP1 DIV PUSH20 0xFFFFFFFFFFFFFFFFFFFFFFFFFFFFFFFFFFFFFFFF AND PUSH20 0xFFFFFFFFFFFFFFFFFFFFFFFFFFFFFFFFFFFFFFFF AND PUSH4 0xC771A982 PUSH1 0x40 MLOAD DUP2 PUSH4 0xFFFFFFFF AND PUSH1 0xE0 SHL DUP2 MSTORE PUSH1 0x4 ADD PUSH2 0x18C7 SWAP1 PUSH2 0x45AE JUMP JUMPDEST PUSH1 0x20 PUSH1 0x40 MLOAD DUP1 DUP4 SUB DUP2 DUP7 DUP1 EXTCODESIZE ISZERO DUP1 ISZERO PUSH2 0x18DF JUMPI PUSH1 0x0 DUP1 REVERT JUMPDEST POP GAS STATICCALL ISZERO DUP1 ISZERO PUSH2 0x18F3 JUMPI RETURNDATASIZE PUSH1 0x0 DUP1 RETURNDATACOPY RETURNDATASIZE PUSH1 0x0 REVERT JUMPDEST POP POP POP POP PUSH1 0x40 MLOAD RETURNDATASIZE PUSH1 0x1F NOT PUSH1 0x1F DUP3 ADD AND DUP3 ADD DUP1 PUSH1 0x40 MSTORE POP DUP2 ADD SWAP1 PUSH2 0x1917 SWAP2 SWAP1 PUSH2 0x3883 JUMP JUMPDEST PUSH1 0x8 PUSH1 0x0 PUSH2 0x100 EXP DUP2 SLOAD DUP2 PUSH20 0xFFFFFFFFFFFFFFFFFFFFFFFFFFFFFFFFFFFFFFFF MUL NOT AND SWAP1 DUP4 PUSH20 0xFFFFFFFFFFFFFFFFFFFFFFFFFFFFFFFFFFFFFFFF AND MUL OR SWAP1 SSTORE POP PUSH1 0x8 PUSH1 0x0 SWAP1 SLOAD SWAP1 PUSH2 0x100 EXP SWAP1 DIV PUSH20 0xFFFFFFFFFFFFFFFFFFFFFFFFFFFFFFFFFFFFFFFF AND PUSH1 0x9 PUSH1 0x0 PUSH2 0x100 EXP DUP2 SLOAD DUP2 PUSH20 0xFFFFFFFFFFFFFFFFFFFFFFFFFFFFFFFFFFFFFFFF MUL NOT AND SWAP1 DUP4 PUSH20 0xFFFFFFFFFFFFFFFFFFFFFFFFFFFFFFFFFFFFFFFF AND MUL OR SWAP1 SSTORE POP PUSH1 0x3 PUSH1 0x0 SWAP1 SLOAD SWAP1 PUSH2 0x100 EXP SWAP1 DIV PUSH20 0xFFFFFFFFFFFFFFFFFFFFFFFFFFFFFFFFFFFFFFFF AND PUSH20 0xFFFFFFFFFFFFFFFFFFFFFFFFFFFFFFFFFFFFFFFF AND PUSH4 0xC771A982 PUSH1 0x40 MLOAD DUP2 PUSH4 0xFFFFFFFF AND PUSH1 0xE0 SHL DUP2 MSTORE PUSH1 0x4 ADD PUSH2 0x1A13 SWAP1 PUSH2 0x474E JUMP JUMPDEST PUSH1 0x20 PUSH1 0x40 MLOAD DUP1 DUP4 SUB DUP2 DUP7 DUP1 EXTCODESIZE ISZERO DUP1 ISZERO PUSH2 0x1A2B JUMPI PUSH1 0x0 DUP1 REVERT JUMPDEST POP GAS STATICCALL ISZERO DUP1 ISZERO PUSH2 0x1A3F JUMPI RETURNDATASIZE PUSH1 0x0 DUP1 RETURNDATACOPY RETURNDATASIZE PUSH1 0x0 REVERT JUMPDEST POP POP POP POP PUSH1 0x40 MLOAD RETURNDATASIZE PUSH1 0x1F NOT PUSH1 0x1F DUP3 ADD AND DUP3 ADD DUP1 PUSH1 0x40 MSTORE POP DUP2 ADD SWAP1 PUSH2 0x1A63 SWAP2 SWAP1 PUSH2 0x3883 JUMP JUMPDEST PUSH1 0xC PUSH1 0x0 PUSH2 0x100 EXP DUP2 SLOAD DUP2 PUSH20 0xFFFFFFFFFFFFFFFFFFFFFFFFFFFFFFFFFFFFFFFF MUL NOT AND SWAP1 DUP4 PUSH20 0xFFFFFFFFFFFFFFFFFFFFFFFFFFFFFFFFFFFFFFFF AND MUL OR SWAP1 SSTORE POP PUSH1 0xC PUSH1 0x0 SWAP1 SLOAD SWAP1 PUSH2 0x100 EXP SWAP1 DIV PUSH20 0xFFFFFFFFFFFFFFFFFFFFFFFFFFFFFFFFFFFFFFFF AND PUSH1 0xD PUSH1 0x0 PUSH2 0x100 EXP DUP2 SLOAD DUP2 PUSH20 0xFFFFFFFFFFFFFFFFFFFFFFFFFFFFFFFFFFFFFFFF MUL NOT AND SWAP1 DUP4 PUSH20 0xFFFFFFFFFFFFFFFFFFFFFFFFFFFFFFFFFFFFFFFF AND MUL OR SWAP1 SSTORE POP PUSH1 0x3 PUSH1 0x0 SWAP1 SLOAD SWAP1 PUSH2 0x100 EXP SWAP1 DIV PUSH20 0xFFFFFFFFFFFFFFFFFFFFFFFFFFFFFFFFFFFFFFFF AND PUSH20 0xFFFFFFFFFFFFFFFFFFFFFFFFFFFFFFFFFFFFFFFF AND PUSH4 0xC771A982 PUSH1 0x40 MLOAD DUP2 PUSH4 0xFFFFFFFF AND PUSH1 0xE0 SHL DUP2 MSTORE PUSH1 0x4 ADD PUSH2 0x1B5F SWAP1 PUSH2 0x47AE JUMP JUMPDEST PUSH1 0x20 PUSH1 0x40 MLOAD DUP1 DUP4 SUB DUP2 DUP7 DUP1 EXTCODESIZE ISZERO DUP1 ISZERO PUSH2 0x1B77 JUMPI PUSH1 0x0 DUP1 REVERT JUMPDEST POP GAS STATICCALL ISZERO DUP1 ISZERO PUSH2 0x1B8B JUMPI RETURNDATASIZE PUSH1 0x0 DUP1 RETURNDATACOPY RETURNDATASIZE PUSH1 0x0 REVERT JUMPDEST POP POP POP POP PUSH1 0x40 MLOAD RETURNDATASIZE PUSH1 0x1F NOT PUSH1 0x1F DUP3 ADD AND DUP3 ADD DUP1 PUSH1 0x40 MSTORE POP DUP2 ADD SWAP1 PUSH2 0x1BAF SWAP2 SWAP1 PUSH2 0x3883 JUMP JUMPDEST PUSH1 0xE PUSH1 0x0 PUSH2 0x100 EXP DUP2 SLOAD DUP2 PUSH20 0xFFFFFFFFFFFFFFFFFFFFFFFFFFFFFFFFFFFFFFFF MUL NOT AND SWAP1 DUP4 PUSH20 0xFFFFFFFFFFFFFFFFFFFFFFFFFFFFFFFFFFFFFFFF AND MUL OR SWAP1 SSTORE POP PUSH1 0xE PUSH1 0x0 SWAP1 SLOAD SWAP1 PUSH2 0x100 EXP SWAP1 DIV PUSH20 0xFFFFFFFFFFFFFFFFFFFFFFFFFFFFFFFFFFFFFFFF AND PUSH1 0xF PUSH1 0x0 PUSH2 0x100 EXP DUP2 SLOAD DUP2 PUSH20 0xFFFFFFFFFFFFFFFFFFFFFFFFFFFFFFFFFFFFFFFF MUL NOT AND SWAP1 DUP4 PUSH20 0xFFFFFFFFFFFFFFFFFFFFFFFFFFFFFFFFFFFFFFFF AND MUL OR SWAP1 SSTORE POP PUSH1 0x3 PUSH1 0x0 SWAP1 SLOAD SWAP1 PUSH2 0x100 EXP SWAP1 DIV PUSH20 0xFFFFFFFFFFFFFFFFFFFFFFFFFFFFFFFFFFFFFFFF AND PUSH20 0xFFFFFFFFFFFFFFFFFFFFFFFFFFFFFFFFFFFFFFFF AND PUSH4 0xC771A982 PUSH1 0x40 MLOAD DUP2 PUSH4 0xFFFFFFFF AND PUSH1 0xE0 SHL DUP2 MSTORE PUSH1 0x4 ADD PUSH2 0x1CAB SWAP1 PUSH2 0x448E JUMP JUMPDEST PUSH1 0x20 PUSH1 0x40 MLOAD DUP1 DUP4 SUB DUP2 DUP7 DUP1 EXTCODESIZE ISZERO DUP1 ISZERO PUSH2 0x1CC3 JUMPI PUSH1 0x0 DUP1 REVERT JUMPDEST POP GAS STATICCALL ISZERO DUP1 ISZERO PUSH2 0x1CD7 JUMPI RETURNDATASIZE PUSH1 0x0 DUP1 RETURNDATACOPY RETURNDATASIZE PUSH1 0x0 REVERT JUMPDEST POP POP POP POP PUSH1 0x40 MLOAD RETURNDATASIZE PUSH1 0x1F NOT PUSH1 0x1F DUP3 ADD AND DUP3 ADD DUP1 PUSH1 0x40 MSTORE POP DUP2 ADD SWAP1 PUSH2 0x1CFB SWAP2 SWAP1 PUSH2 0x3883 JUMP JUMPDEST PUSH1 0x12 PUSH1 0x0 PUSH2 0x100 EXP DUP2 SLOAD DUP2 PUSH20 0xFFFFFFFFFFFFFFFFFFFFFFFFFFFFFFFFFFFFFFFF MUL NOT AND SWAP1 DUP4 PUSH20 0xFFFFFFFFFFFFFFFFFFFFFFFFFFFFFFFFFFFFFFFF AND MUL OR SWAP1 SSTORE POP PUSH1 0x12 PUSH1 0x0 SWAP1 SLOAD SWAP1 PUSH2 0x100 EXP SWAP1 DIV PUSH20 0xFFFFFFFFFFFFFFFFFFFFFFFFFFFFFFFFFFFFFFFF AND PUSH1 0x13 PUSH1 0x0 PUSH2 0x100 EXP DUP2 SLOAD DUP2 PUSH20 0xFFFFFFFFFFFFFFFFFFFFFFFFFFFFFFFFFFFFFFFF MUL NOT AND SWAP1 DUP4 PUSH20 0xFFFFFFFFFFFFFFFFFFFFFFFFFFFFFFFFFFFFFFFF AND MUL OR SWAP1 SSTORE POP PUSH1 0x3 PUSH1 0x0 SWAP1 SLOAD SWAP1 PUSH2 0x100 EXP SWAP1 DIV PUSH20 0xFFFFFFFFFFFFFFFFFFFFFFFFFFFFFFFFFFFFFFFF AND PUSH20 0xFFFFFFFFFFFFFFFFFFFFFFFFFFFFFFFFFFFFFFFF AND PUSH4 0xC771A982 PUSH1 0x40 MLOAD DUP2 PUSH4 0xFFFFFFFF AND PUSH1 0xE0 SHL DUP2 MSTORE PUSH1 0x4 ADD PUSH2 0x1DF7 SWAP1 PUSH2 0x44AE JUMP JUMPDEST PUSH1 0x20 PUSH1 0x40 MLOAD DUP1 DUP4 SUB DUP2 DUP7 DUP1 EXTCODESIZE ISZERO DUP1 ISZERO PUSH2 0x1E0F JUMPI PUSH1 0x0 DUP1 REVERT JUMPDEST POP GAS STATICCALL ISZERO DUP1 ISZERO PUSH2 0x1E23 JUMPI RETURNDATASIZE PUSH1 0x0 DUP1 RETURNDATACOPY RETURNDATASIZE PUSH1 0x0 REVERT JUMPDEST POP POP POP POP PUSH1 0x40 MLOAD RETURNDATASIZE PUSH1 0x1F NOT PUSH1 0x1F DUP3 ADD AND DUP3 ADD DUP1 PUSH1 0x40 MSTORE POP DUP2 ADD SWAP1 PUSH2 0x1E47 SWAP2 SWAP1 PUSH2 0x3883 JUMP JUMPDEST PUSH1 0x10 PUSH1 0x0 PUSH2 0x100 EXP DUP2 SLOAD DUP2 PUSH20 0xFFFFFFFFFFFFFFFFFFFFFFFFFFFFFFFFFFFFFFFF MUL NOT AND SWAP1 DUP4 PUSH20 0xFFFFFFFFFFFFFFFFFFFFFFFFFFFFFFFFFFFFFFFF AND MUL OR SWAP1 SSTORE POP PUSH1 0x10 PUSH1 0x0 SWAP1 SLOAD SWAP1 PUSH2 0x100 EXP SWAP1 DIV PUSH20 0xFFFFFFFFFFFFFFFFFFFFFFFFFFFFFFFFFFFFFFFF AND PUSH1 0x11 PUSH1 0x0 PUSH2 0x100 EXP DUP2 SLOAD DUP2 PUSH20 0xFFFFFFFFFFFFFFFFFFFFFFFFFFFFFFFFFFFFFFFF MUL NOT AND SWAP1 DUP4 PUSH20 0xFFFFFFFFFFFFFFFFFFFFFFFFFFFFFFFFFFFFFFFF AND MUL OR SWAP1 SSTORE POP PUSH1 0x3 PUSH1 0x0 SWAP1 SLOAD SWAP1 PUSH2 0x100 EXP SWAP1 DIV PUSH20 0xFFFFFFFFFFFFFFFFFFFFFFFFFFFFFFFFFFFFFFFF AND PUSH20 0xFFFFFFFFFFFFFFFFFFFFFFFFFFFFFFFFFFFFFFFF AND PUSH4 0xC771A982 PUSH1 0x40 MLOAD DUP2 PUSH4 0xFFFFFFFF AND PUSH1 0xE0 SHL DUP2 MSTORE PUSH1 0x4 ADD PUSH2 0x1F43 SWAP1 PUSH2 0x470E JUMP JUMPDEST PUSH1 0x20 PUSH1 0x40 MLOAD DUP1 DUP4 SUB DUP2 DUP7 DUP1 EXTCODESIZE ISZERO DUP1 ISZERO PUSH2 0x1F5B JUMPI PUSH1 0x0 DUP1 REVERT JUMPDEST POP GAS STATICCALL ISZERO DUP1 ISZERO PUSH2 0x1F6F JUMPI RETURNDATASIZE PUSH1 0x0 DUP1 RETURNDATACOPY RETURNDATASIZE PUSH1 0x0 REVERT JUMPDEST POP POP POP POP PUSH1 0x40 MLOAD RETURNDATASIZE PUSH1 0x1F NOT PUSH1 0x1F DUP3 ADD AND DUP3 ADD DUP1 PUSH1 0x40 MSTORE POP DUP2 ADD SWAP1 PUSH2 0x1F93 SWAP2 SWAP1 PUSH2 0x3883 JUMP JUMPDEST PUSH1 0x14 PUSH1 0x0 PUSH2 0x100 EXP DUP2 SLOAD DUP2 PUSH20 0xFFFFFFFFFFFFFFFFFFFFFFFFFFFFFFFFFFFFFFFF MUL NOT AND SWAP1 DUP4 PUSH20 0xFFFFFFFFFFFFFFFFFFFFFFFFFFFFFFFFFFFFFFFF AND MUL OR SWAP1 SSTORE POP PUSH1 0x3 PUSH1 0x0 SWAP1 SLOAD SWAP1 PUSH2 0x100 EXP SWAP1 DIV PUSH20 0xFFFFFFFFFFFFFFFFFFFFFFFFFFFFFFFFFFFFFFFF AND PUSH20 0xFFFFFFFFFFFFFFFFFFFFFFFFFFFFFFFFFFFFFFFF AND PUSH4 0xC771A982 PUSH1 0x40 MLOAD DUP2 PUSH4 0xFFFFFFFF AND PUSH1 0xE0 SHL DUP2 MSTORE PUSH1 0x4 ADD PUSH2 0x202C SWAP1 PUSH2 0x47CE JUMP JUMPDEST PUSH1 0x20 PUSH1 0x40 MLOAD DUP1 DUP4 SUB DUP2 DUP7 DUP1 EXTCODESIZE ISZERO DUP1 ISZERO PUSH2 0x2044 JUMPI PUSH1 0x0 DUP1 REVERT JUMPDEST POP GAS STATICCALL ISZERO DUP1 ISZERO PUSH2 0x2058 JUMPI RETURNDATASIZE PUSH1 0x0 DUP1 RETURNDATACOPY RETURNDATASIZE PUSH1 0x0 REVERT JUMPDEST POP POP POP POP PUSH1 0x40 MLOAD RETURNDATASIZE PUSH1 0x1F NOT PUSH1 0x1F DUP3 ADD AND DUP3 ADD DUP1 PUSH1 0x40 MSTORE POP DUP2 ADD SWAP1 PUSH2 0x207C SWAP2 SWAP1 PUSH2 0x3883 JUMP JUMPDEST PUSH1 0x17 PUSH1 0x0 PUSH2 0x100 EXP DUP2 SLOAD DUP2 PUSH20 0xFFFFFFFFFFFFFFFFFFFFFFFFFFFFFFFFFFFFFFFF MUL NOT AND SWAP1 DUP4 PUSH20 0xFFFFFFFFFFFFFFFFFFFFFFFFFFFFFFFFFFFFFFFF AND MUL OR SWAP1 SSTORE POP PUSH1 0x1 PUSH1 0x0 DUP2 SWAP1 SSTORE POP JUMP JUMPDEST PUSH1 0x0 PUSH2 0x20EE DUP4 PUSH1 0x0 ADD DUP4 PUSH20 0xFFFFFFFFFFFFFFFFFFFFFFFFFFFFFFFFFFFFFFFF AND PUSH1 0x0 SHL PUSH2 0x2F25 JUMP JUMPDEST SWAP1 POP SWAP3 SWAP2 POP POP JUMP JUMPDEST PUSH1 0x0 CALLER SWAP1 POP SWAP1 JUMP JUMPDEST PUSH2 0x2126 DUP2 PUSH1 0x1 PUSH1 0x0 DUP6 DUP2 MSTORE PUSH1 0x20 ADD SWAP1 DUP2 MSTORE PUSH1 0x20 ADD PUSH1 0x0 KECCAK256 PUSH1 0x0 ADD PUSH2 0x20C6 SWAP1 SWAP2 SWAP1 PUSH4 0xFFFFFFFF AND JUMP JUMPDEST ISZERO PUSH2 0x218E JUMPI PUSH2 0x2133 PUSH2 0x20F6 JUMP JUMPDEST PUSH20 0xFFFFFFFFFFFFFFFFFFFFFFFFFFFFFFFFFFFFFFFF AND DUP2 PUSH20 0xFFFFFFFFFFFFFFFFFFFFFFFFFFFFFFFFFFFFFFFF AND DUP4 PUSH32 0x2F8788117E7EFF1D82E926EC794901D17C78024A50270940304540A733656F0D PUSH1 0x40 MLOAD PUSH1 0x40 MLOAD DUP1 SWAP2 SUB SWAP1 LOG4 JUMPDEST POP POP JUMP JUMPDEST PUSH2 0x21BA DUP2 PUSH1 0x1 PUSH1 0x0 DUP6 DUP2 MSTORE PUSH1 0x20 ADD SWAP1 DUP2 MSTORE PUSH1 0x20 ADD PUSH1 0x0 KECCAK256 PUSH1 0x0 ADD PUSH2 0x2F95 SWAP1 SWAP2 SWAP1 PUSH4 0xFFFFFFFF AND JUMP JUMPDEST ISZERO PUSH2 0x2222 JUMPI PUSH2 0x21C7 PUSH2 0x20F6 JUMP JUMPDEST PUSH20 0xFFFFFFFFFFFFFFFFFFFFFFFFFFFFFFFFFFFFFFFF AND DUP2 PUSH20 0xFFFFFFFFFFFFFFFFFFFFFFFFFFFFFFFFFFFFFFFF AND DUP4 PUSH32 0xF6391F5C32D9C69D2A47EA670B442974B53935D1EDC7FD64EB21E047A839171B PUSH1 0x40 MLOAD PUSH1 0x40 MLOAD DUP1 SWAP2 SUB SWAP1 LOG4 JUMPDEST POP POP JUMP JUMPDEST PUSH2 0x222E PUSH2 0x712 JUMP JUMPDEST PUSH2 0x226D JUMPI PUSH1 0x40 MLOAD PUSH32 0x8C379A000000000000000000000000000000000000000000000000000000000 DUP2 MSTORE PUSH1 0x4 ADD PUSH2 0x2264 SWAP1 PUSH2 0x446E JUMP JUMPDEST PUSH1 0x40 MLOAD DUP1 SWAP2 SUB SWAP1 REVERT JUMPDEST PUSH1 0x0 PUSH1 0x2 PUSH1 0x0 PUSH2 0x100 EXP DUP2 SLOAD DUP2 PUSH1 0xFF MUL NOT AND SWAP1 DUP4 ISZERO ISZERO MUL OR SWAP1 SSTORE POP PUSH32 0x5DB9EE0A495BF2E6FF9C91A7834C1BA4FDD244A5E8AA4E537BD38AEAE4B073AA PUSH2 0x22B1 PUSH2 0x20F6 JUMP JUMPDEST PUSH1 0x40 MLOAD PUSH2 0x22BE SWAP2 SWAP1 PUSH2 0x4298 JUMP JUMPDEST PUSH1 0x40 MLOAD DUP1 SWAP2 SUB SWAP1 LOG1 JUMP JUMPDEST PUSH2 0x22D0 PUSH2 0x712 JUMP JUMPDEST ISZERO PUSH2 0x2310 JUMPI PUSH1 0x40 MLOAD PUSH32 0x8C379A000000000000000000000000000000000000000000000000000000000 DUP2 MSTORE PUSH1 0x4 ADD PUSH2 0x2307 SWAP1 PUSH2 0x454E JUMP JUMPDEST PUSH1 0x40 MLOAD DUP1 SWAP2 SUB SWAP1 REVERT JUMPDEST PUSH1 0x1 PUSH1 0x2 PUSH1 0x0 PUSH2 0x100 EXP DUP2 SLOAD DUP2 PUSH1 0xFF MUL NOT AND SWAP1 DUP4 ISZERO ISZERO MUL OR SWAP1 SSTORE POP PUSH32 0x62E78CEA01BEE320CD4E420270B5EA74000D11B0C9F74754EBDBFC544B05A258 PUSH2 0x2354 PUSH2 0x20F6 JUMP JUMPDEST PUSH1 0x40 MLOAD PUSH2 0x2361 SWAP2 SWAP1 PUSH2 0x4298 JUMP JUMPDEST PUSH1 0x40 MLOAD DUP1 SWAP2 SUB SWAP1 LOG1 JUMP JUMPDEST PUSH1 0x0 PUSH2 0x237A DUP4 PUSH1 0x0 ADD DUP4 PUSH2 0x2FC5 JUMP JUMPDEST PUSH1 0x0 SHR SWAP1 POP SWAP3 SWAP2 POP POP JUMP JUMPDEST PUSH1 0x0 PUSH2 0x23AD DUP4 PUSH1 0x0 ADD DUP4 PUSH20 0xFFFFFFFFFFFFFFFFFFFFFFFFFFFFFFFFFFFFFFFF AND PUSH1 0x0 SHL PUSH2 0x305F JUMP JUMPDEST SWAP1 POP SWAP3 SWAP2 POP POP JUMP JUMPDEST PUSH2 0x23BD PUSH2 0x33E8 JUMP JUMPDEST PUSH1 0x0 PUSH1 0x3 PUSH1 0x0 SWAP1 SLOAD SWAP1 PUSH2 0x100 EXP SWAP1 DIV PUSH20 0xFFFFFFFFFFFFFFFFFFFFFFFFFFFFFFFFFFFFFFFF AND PUSH20 0xFFFFFFFFFFFFFFFFFFFFFFFFFFFFFFFFFFFFFFFF AND PUSH4 0xE248F2C4 DUP5 PUSH1 0x40 MLOAD DUP3 PUSH4 0xFFFFFFFF AND PUSH1 0xE0 SHL DUP2 MSTORE PUSH1 0x4 ADD PUSH2 0x241A SWAP2 SWAP1 PUSH2 0x436A JUMP JUMPDEST PUSH2 0x1A0 PUSH1 0x40 MLOAD DUP1 DUP4 SUB DUP2 PUSH1 0x0 DUP8 DUP1 EXTCODESIZE ISZERO DUP1 ISZERO PUSH2 0x2435 JUMPI PUSH1 0x0 DUP1 REVERT JUMPDEST POP GAS CALL ISZERO DUP1 ISZERO PUSH2 0x2449 JUMPI RETURNDATASIZE PUSH1 0x0 DUP1 RETURNDATACOPY RETURNDATASIZE PUSH1 0x0 REVERT JUMPDEST POP POP POP POP PUSH1 0x40 MLOAD RETURNDATASIZE PUSH1 0x1F NOT PUSH1 0x1F DUP3 ADD AND DUP3 ADD DUP1 PUSH1 0x40 MSTORE POP DUP2 ADD SWAP1 PUSH2 0x246D SWAP2 SWAP1 PUSH2 0x3A6E JUMP JUMPDEST SWAP1 POP DUP1 SWAP2 POP POP SWAP2 SWAP1 POP JUMP JUMPDEST PUSH2 0x2480 PUSH2 0x348F JUMP JUMPDEST PUSH2 0x2488 PUSH2 0x348F JUMP JUMPDEST PUSH1 0x5 PUSH1 0x0 SWAP1 SLOAD SWAP1 PUSH2 0x100 EXP SWAP1 DIV PUSH20 0xFFFFFFFFFFFFFFFFFFFFFFFFFFFFFFFFFFFFFFFF AND PUSH20 0xFFFFFFFFFFFFFFFFFFFFFFFFFFFFFFFFFFFFFFFF AND PUSH4 0xF2435010 DUP5 PUSH1 0x40 MLOAD DUP3 PUSH4 0xFFFFFFFF AND PUSH1 0xE0 SHL DUP2 MSTORE PUSH1 0x4 ADD PUSH2 0x24E3 SWAP2 SWAP1 PUSH2 0x48A4 JUMP JUMPDEST PUSH1 0xA0 PUSH1 0x40 MLOAD DUP1 DUP4 SUB DUP2 PUSH1 0x0 DUP8 DUP1 EXTCODESIZE ISZERO DUP1 ISZERO PUSH2 0x24FD JUMPI PUSH1 0x0 DUP1 REVERT JUMPDEST POP GAS CALL ISZERO DUP1 ISZERO PUSH2 0x2511 JUMPI RETURNDATASIZE PUSH1 0x0 DUP1 RETURNDATACOPY RETURNDATASIZE PUSH1 0x0 REVERT JUMPDEST POP POP POP POP PUSH1 0x40 MLOAD RETURNDATASIZE PUSH1 0x1F NOT PUSH1 0x1F DUP3 ADD AND DUP3 ADD DUP1 PUSH1 0x40 MSTORE POP DUP2 ADD SWAP1 PUSH2 0x2535 SWAP2 SWAP1 PUSH2 0x3B8A JUMP JUMPDEST DUP6 PUSH1 0x20 ADD DUP7 PUSH1 0x40 ADD DUP8 PUSH1 0x60 ADD DUP9 PUSH1 0xA0 ADD DUP10 PUSH1 0xC0 ADD DUP6 PUSH20 0xFFFFFFFFFFFFFFFFFFFFFFFFFFFFFFFFFFFFFFFF AND PUSH20 0xFFFFFFFFFFFFFFFFFFFFFFFFFFFFFFFFFFFFFFFF AND DUP2 MSTORE POP DUP6 PUSH4 0xFFFFFFFF AND PUSH4 0xFFFFFFFF AND DUP2 MSTORE POP DUP6 PUSH1 0xFF AND PUSH1 0xFF AND DUP2 MSTORE POP DUP6 PUSH1 0xFF AND PUSH1 0xFF AND DUP2 MSTORE POP DUP6 PUSH4 0xFFFFFFFF AND PUSH4 0xFFFFFFFF AND DUP2 MSTORE POP POP POP POP POP POP DUP1 SWAP2 POP POP SWAP2 SWAP1 POP JUMP JUMPDEST DUP4 PUSH20 0xFFFFFFFFFFFFFFFFFFFFFFFFFFFFFFFFFFFFFFFF AND PUSH4 0x23B872DD DUP5 DUP5 DUP5 PUSH1 0x40 MLOAD DUP5 PUSH4 0xFFFFFFFF AND PUSH1 0xE0 SHL DUP2 MSTORE PUSH1 0x4 ADD PUSH2 0x25F8 SWAP4 SWAP3 SWAP2 SWAP1 PUSH2 0x42B3 JUMP JUMPDEST PUSH1 0x0 PUSH1 0x40 MLOAD DUP1 DUP4 SUB DUP2 PUSH1 0x0 DUP8 DUP1 EXTCODESIZE ISZERO DUP1 ISZERO PUSH2 0x2612 JUMPI PUSH1 0x0 DUP1 REVERT JUMPDEST POP GAS CALL ISZERO DUP1 ISZERO PUSH2 0x2626 JUMPI RETURNDATASIZE PUSH1 0x0 DUP1 RETURNDATACOPY RETURNDATASIZE PUSH1 0x0 REVERT JUMPDEST POP POP POP POP POP POP POP POP JUMP JUMPDEST PUSH1 0x0 DUP5 PUSH1 0x0 SHR SWAP1 POP PUSH1 0x0 PUSH2 0x2643 DUP5 PUSH2 0x2478 JUMP JUMPDEST SWAP1 POP PUSH1 0x0 PUSH1 0x9 PUSH1 0x0 SWAP1 SLOAD SWAP1 PUSH2 0x100 EXP SWAP1 DIV PUSH20 0xFFFFFFFFFFFFFFFFFFFFFFFFFFFFFFFFFFFFFFFF AND PUSH20 0xFFFFFFFFFFFFFFFFFFFFFFFFFFFFFFFFFFFFFFFF AND PUSH3 0x923F9E DUP5 PUSH1 0x40 MLOAD DUP3 PUSH4 0xFFFFFFFF AND PUSH1 0xE0 SHL DUP2 MSTORE PUSH1 0x4 ADD PUSH2 0x26A1 SWAP2 SWAP1 PUSH2 0x486E JUMP JUMPDEST PUSH1 0x20 PUSH1 0x40 MLOAD DUP1 DUP4 SUB DUP2 DUP7 DUP1 EXTCODESIZE ISZERO DUP1 ISZERO PUSH2 0x26B9 JUMPI PUSH1 0x0 DUP1 REVERT JUMPDEST POP GAS STATICCALL ISZERO DUP1 ISZERO PUSH2 0x26CD JUMPI RETURNDATASIZE PUSH1 0x0 DUP1 RETURNDATACOPY RETURNDATASIZE PUSH1 0x0 REVERT JUMPDEST POP POP POP POP PUSH1 0x40 MLOAD RETURNDATASIZE PUSH1 0x1F NOT PUSH1 0x1F DUP3 ADD AND DUP3 ADD DUP1 PUSH1 0x40 MSTORE POP DUP2 ADD SWAP1 PUSH2 0x26F1 SWAP2 SWAP1 PUSH2 0x3C01 JUMP JUMPDEST PUSH1 0xFF AND EQ PUSH2 0x2734 JUMPI PUSH1 0x40 MLOAD PUSH32 0x8C379A000000000000000000000000000000000000000000000000000000000 DUP2 MSTORE PUSH1 0x4 ADD PUSH2 0x272B SWAP1 PUSH2 0x476E JUMP JUMPDEST PUSH1 0x40 MLOAD DUP1 SWAP2 SUB SWAP1 REVERT JUMPDEST PUSH1 0x5 DUP2 PUSH1 0x40 ADD MLOAD PUSH1 0xFF AND EQ PUSH2 0x277E JUMPI PUSH1 0x40 MLOAD PUSH32 0x8C379A000000000000000000000000000000000000000000000000000000000 DUP2 MSTORE PUSH1 0x4 ADD PUSH2 0x2775 SWAP1 PUSH2 0x466E JUMP JUMPDEST PUSH1 0x40 MLOAD DUP1 SWAP2 SUB SWAP1 REVERT JUMPDEST PUSH1 0x5 DUP2 PUSH1 0x60 ADD MLOAD PUSH1 0xFF AND LT PUSH2 0x27C8 JUMPI PUSH1 0x40 MLOAD PUSH32 0x8C379A000000000000000000000000000000000000000000000000000000000 DUP2 MSTORE PUSH1 0x4 ADD PUSH2 0x27BF SWAP1 PUSH2 0x46AE JUMP JUMPDEST PUSH1 0x40 MLOAD DUP1 SWAP2 SUB SWAP1 REVERT JUMPDEST PUSH1 0x1 DUP2 PUSH1 0x60 ADD MLOAD PUSH1 0xFF AND EQ DUP1 PUSH2 0x27E5 JUMPI POP PUSH1 0x2 DUP2 PUSH1 0x60 ADD MLOAD PUSH1 0xFF AND EQ JUMPDEST ISZERO PUSH2 0x290A JUMPI PUSH2 0x27F2 PUSH2 0x20F6 JUMP JUMPDEST PUSH20 0xFFFFFFFFFFFFFFFFFFFFFFFFFFFFFFFFFFFFFFFF AND PUSH1 0xB PUSH1 0x0 SWAP1 SLOAD SWAP1 PUSH2 0x100 EXP SWAP1 DIV PUSH20 0xFFFFFFFFFFFFFFFFFFFFFFFFFFFFFFFFFFFFFFFF AND PUSH20 0xFFFFFFFFFFFFFFFFFFFFFFFFFFFFFFFFFFFFFFFF AND PUSH4 0x6352211E DUP7 PUSH1 0x40 MLOAD DUP3 PUSH4 0xFFFFFFFF AND PUSH1 0xE0 SHL DUP2 MSTORE PUSH1 0x4 ADD PUSH2 0x2863 SWAP2 SWAP1 PUSH2 0x4889 JUMP JUMPDEST PUSH1 0x20 PUSH1 0x40 MLOAD DUP1 DUP4 SUB DUP2 DUP7 DUP1 EXTCODESIZE ISZERO DUP1 ISZERO PUSH2 0x287B JUMPI PUSH1 0x0 DUP1 REVERT JUMPDEST POP GAS STATICCALL ISZERO DUP1 ISZERO PUSH2 0x288F JUMPI RETURNDATASIZE PUSH1 0x0 DUP1 RETURNDATACOPY RETURNDATASIZE PUSH1 0x0 REVERT JUMPDEST POP POP POP POP PUSH1 0x40 MLOAD RETURNDATASIZE PUSH1 0x1F NOT PUSH1 0x1F DUP3 ADD AND DUP3 ADD DUP1 PUSH1 0x40 MSTORE POP DUP2 ADD SWAP1 PUSH2 0x28B3 SWAP2 SWAP1 PUSH2 0x3883 JUMP JUMPDEST PUSH20 0xFFFFFFFFFFFFFFFFFFFFFFFFFFFFFFFFFFFFFFFF AND EQ PUSH2 0x2909 JUMPI PUSH1 0x40 MLOAD PUSH32 0x8C379A000000000000000000000000000000000000000000000000000000000 DUP2 MSTORE PUSH1 0x4 ADD PUSH2 0x2900 SWAP1 PUSH2 0x44CE JUMP JUMPDEST PUSH1 0x40 MLOAD DUP1 SWAP2 SUB SWAP1 REVERT JUMPDEST JUMPDEST PUSH1 0x3 DUP2 PUSH1 0x60 ADD MLOAD PUSH1 0xFF AND EQ ISZERO PUSH2 0x2A3A JUMPI PUSH1 0x1 PUSH1 0x5 PUSH1 0x0 SWAP1 SLOAD SWAP1 PUSH2 0x100 EXP SWAP1 DIV PUSH20 0xFFFFFFFFFFFFFFFFFFFFFFFFFFFFFFFFFFFFFFFF AND PUSH20 0xFFFFFFFFFFFFFFFFFFFFFFFFFFFFFFFFFFFFFFFF AND PUSH4 0x9D2C7CEE PUSH2 0x2962 PUSH2 0x20F6 JUMP JUMPDEST PUSH1 0x40 MLOAD PUSH1 0x20 ADD PUSH2 0x2972 SWAP2 SWAP1 PUSH2 0x4251 JUMP JUMPDEST PUSH1 0x40 MLOAD PUSH1 0x20 DUP2 DUP4 SUB SUB DUP2 MSTORE SWAP1 PUSH1 0x40 MSTORE DUP1 MLOAD SWAP1 PUSH1 0x20 ADD KECCAK256 DUP8 PUSH1 0x40 MLOAD DUP4 PUSH4 0xFFFFFFFF AND PUSH1 0xE0 SHL DUP2 MSTORE PUSH1 0x4 ADD PUSH2 0x29A6 SWAP3 SWAP2 SWAP1 PUSH2 0x43CA JUMP JUMPDEST PUSH1 0x20 PUSH1 0x40 MLOAD DUP1 DUP4 SUB DUP2 DUP7 DUP1 EXTCODESIZE ISZERO DUP1 ISZERO PUSH2 0x29BE JUMPI PUSH1 0x0 DUP1 REVERT JUMPDEST POP GAS STATICCALL ISZERO DUP1 ISZERO PUSH2 0x29D2 JUMPI RETURNDATASIZE PUSH1 0x0 DUP1 RETURNDATACOPY RETURNDATASIZE PUSH1 0x0 REVERT JUMPDEST POP POP POP POP PUSH1 0x40 MLOAD RETURNDATASIZE PUSH1 0x1F NOT PUSH1 0x1F DUP3 ADD AND DUP3 ADD DUP1 PUSH1 0x40 MSTORE POP DUP2 ADD SWAP1 PUSH2 0x29F6 SWAP2 SWAP1 PUSH2 0x3C01 JUMP JUMPDEST PUSH1 0xFF AND EQ PUSH2 0x2A39 JUMPI PUSH1 0x40 MLOAD PUSH32 0x8C379A000000000000000000000000000000000000000000000000000000000 DUP2 MSTORE PUSH1 0x4 ADD PUSH2 0x2A30 SWAP1 PUSH2 0x456E JUMP JUMPDEST PUSH1 0x40 MLOAD DUP1 SWAP2 SUB SWAP1 REVERT JUMPDEST JUMPDEST PUSH1 0x4 DUP2 PUSH1 0x60 ADD MLOAD PUSH1 0xFF AND EQ ISZERO PUSH2 0x2B3F JUMPI PUSH1 0xA PUSH1 0xD PUSH1 0x0 SWAP1 SLOAD SWAP1 PUSH2 0x100 EXP SWAP1 DIV PUSH20 0xFFFFFFFFFFFFFFFFFFFFFFFFFFFFFFFFFFFFFFFF AND PUSH20 0xFFFFFFFFFFFFFFFFFFFFFFFFFFFFFFFFFFFFFFFF AND PUSH4 0x8A00091A PUSH2 0x2A92 PUSH2 0x20F6 JUMP JUMPDEST PUSH1 0x40 MLOAD DUP3 PUSH4 0xFFFFFFFF AND PUSH1 0xE0 SHL DUP2 MSTORE PUSH1 0x4 ADD PUSH2 0x2AAE SWAP2 SWAP1 PUSH2 0x4298 JUMP JUMPDEST PUSH1 0x20 PUSH1 0x40 MLOAD DUP1 DUP4 SUB DUP2 DUP7 DUP1 EXTCODESIZE ISZERO DUP1 ISZERO PUSH2 0x2AC6 JUMPI PUSH1 0x0 DUP1 REVERT JUMPDEST POP GAS STATICCALL ISZERO DUP1 ISZERO PUSH2 0x2ADA JUMPI RETURNDATASIZE PUSH1 0x0 DUP1 RETURNDATACOPY RETURNDATASIZE PUSH1 0x0 REVERT JUMPDEST POP POP POP POP PUSH1 0x40 MLOAD RETURNDATASIZE PUSH1 0x1F NOT PUSH1 0x1F DUP3 ADD AND DUP3 ADD DUP1 PUSH1 0x40 MSTORE POP DUP2 ADD SWAP1 PUSH2 0x2AFE SWAP2 SWAP1 PUSH2 0x3AC1 JUMP JUMPDEST GT PUSH2 0x2B3E JUMPI PUSH1 0x40 MLOAD PUSH32 0x8C379A000000000000000000000000000000000000000000000000000000000 DUP2 MSTORE PUSH1 0x4 ADD PUSH2 0x2B35 SWAP1 PUSH2 0x45EE JUMP JUMPDEST PUSH1 0x40 MLOAD DUP1 SWAP2 SUB SWAP1 REVERT JUMPDEST JUMPDEST PUSH1 0x9 PUSH1 0x0 SWAP1 SLOAD SWAP1 PUSH2 0x100 EXP SWAP1 DIV PUSH20 0xFFFFFFFFFFFFFFFFFFFFFFFFFFFFFFFFFFFFFFFF AND PUSH20 0xFFFFFFFFFFFFFFFFFFFFFFFFFFFFFFFFFFFFFFFF AND PUSH4 0x54A19C2B PUSH2 0x2B85 PUSH2 0x20F6 JUMP JUMPDEST DUP5 PUSH1 0x40 MLOAD DUP4 PUSH4 0xFFFFFFFF AND PUSH1 0xE0 SHL DUP2 MSTORE PUSH1 0x4 ADD PUSH2 0x2BA3 SWAP3 SWAP2 SWAP1 PUSH2 0x4313 JUMP JUMPDEST PUSH1 0x20 PUSH1 0x40 MLOAD DUP1 DUP4 SUB DUP2 PUSH1 0x0 DUP8 DUP1 EXTCODESIZE ISZERO DUP1 ISZERO PUSH2 0x2BBD JUMPI PUSH1 0x0 DUP1 REVERT JUMPDEST POP GAS CALL ISZERO DUP1 ISZERO PUSH2 0x2BD1 JUMPI RETURNDATASIZE PUSH1 0x0 DUP1 RETURNDATACOPY RETURNDATASIZE PUSH1 0x0 REVERT JUMPDEST POP POP POP POP PUSH1 0x40 MLOAD RETURNDATASIZE PUSH1 0x1F NOT PUSH1 0x1F DUP3 ADD AND DUP3 ADD DUP1 PUSH1 0x40 MSTORE POP DUP2 ADD SWAP1 PUSH2 0x2BF5 SWAP2 SWAP1 PUSH2 0x3AC1 JUMP JUMPDEST POP PUSH1 0x3 PUSH1 0x0 SWAP1 SLOAD SWAP1 PUSH2 0x100 EXP SWAP1 DIV PUSH20 0xFFFFFFFFFFFFFFFFFFFFFFFFFFFFFFFFFFFFFFFF AND PUSH20 0xFFFFFFFFFFFFFFFFFFFFFFFFFFFFFFFFFFFFFFFF AND PUSH4 0x3530D114 DUP8 DUP8 DUP8 DUP8 PUSH1 0x40 MLOAD DUP6 PUSH4 0xFFFFFFFF AND PUSH1 0xE0 SHL DUP2 MSTORE PUSH1 0x4 ADD PUSH2 0x2C57 SWAP5 SWAP4 SWAP3 SWAP2 SWAP1 PUSH2 0x4385 JUMP JUMPDEST PUSH1 0x0 PUSH1 0x40 MLOAD DUP1 DUP4 SUB DUP2 PUSH1 0x0 DUP8 DUP1 EXTCODESIZE ISZERO DUP1 ISZERO PUSH2 0x2C71 JUMPI PUSH1 0x0 DUP1 REVERT JUMPDEST POP GAS CALL ISZERO DUP1 ISZERO PUSH2 0x2C85 JUMPI RETURNDATASIZE PUSH1 0x0 DUP1 RETURNDATACOPY RETURNDATASIZE PUSH1 0x0 REVERT JUMPDEST POP POP POP POP POP POP POP POP POP POP JUMP JUMPDEST PUSH2 0x2C99 PUSH2 0x712 JUMP JUMPDEST ISZERO PUSH2 0x2CD9 JUMPI PUSH1 0x40 MLOAD PUSH32 0x8C379A000000000000000000000000000000000000000000000000000000000 DUP2 MSTORE PUSH1 0x4 ADD PUSH2 0x2CD0 SWAP1 PUSH2 0x454E JUMP JUMPDEST PUSH1 0x40 MLOAD DUP1 SWAP2 SUB SWAP1 REVERT JUMPDEST PUSH2 0x2CE1 PUSH2 0x350C JUMP JUMPDEST PUSH1 0x0 PUSH1 0x64 PUSH1 0x5 PUSH1 0x0 SWAP1 SLOAD SWAP1 PUSH2 0x100 EXP SWAP1 DIV PUSH20 0xFFFFFFFFFFFFFFFFFFFFFFFFFFFFFFFFFFFFFFFF AND PUSH20 0xFFFFFFFFFFFFFFFFFFFFFFFFFFFFFFFFFFFFFFFF AND PUSH4 0x84649C6 DUP7 PUSH1 0x40 MLOAD DUP3 PUSH4 0xFFFFFFFF AND PUSH1 0xE0 SHL DUP2 MSTORE PUSH1 0x4 ADD PUSH2 0x2D40 SWAP2 SWAP1 PUSH2 0x48A4 JUMP JUMPDEST PUSH1 0x20 PUSH1 0x40 MLOAD DUP1 DUP4 SUB DUP2 DUP7 DUP1 EXTCODESIZE ISZERO DUP1 ISZERO PUSH2 0x2D58 JUMPI PUSH1 0x0 DUP1 REVERT JUMPDEST POP GAS STATICCALL ISZERO DUP1 ISZERO PUSH2 0x2D6C JUMPI RETURNDATASIZE PUSH1 0x0 DUP1 RETURNDATACOPY RETURNDATASIZE PUSH1 0x0 REVERT JUMPDEST POP POP POP POP PUSH1 0x40 MLOAD RETURNDATASIZE PUSH1 0x1F NOT PUSH1 0x1F DUP3 ADD AND DUP3 ADD DUP1 PUSH1 0x40 MSTORE POP DUP2 ADD SWAP1 PUSH2 0x2D90 SWAP2 SWAP1 PUSH2 0x3B61 JUMP JUMPDEST PUSH4 0xFFFFFFFF AND PUSH2 0x2DA0 SWAP2 SWAP1 PUSH2 0x4974 JUMP JUMPDEST SWAP1 POP PUSH1 0x0 DUP2 LT ISZERO DUP1 ISZERO PUSH2 0x2DB4 JUMPI POP PUSH1 0x64 DUP2 GT ISZERO JUMPDEST PUSH2 0x2DF3 JUMPI PUSH1 0x40 MLOAD PUSH32 0x8C379A000000000000000000000000000000000000000000000000000000000 DUP2 MSTORE PUSH1 0x4 ADD PUSH2 0x2DEA SWAP1 PUSH2 0x46CE JUMP JUMPDEST PUSH1 0x40 MLOAD DUP1 SWAP2 SUB SWAP1 REVERT JUMPDEST PUSH1 0x5 PUSH1 0x0 SWAP1 SLOAD SWAP1 PUSH2 0x100 EXP SWAP1 DIV PUSH20 0xFFFFFFFFFFFFFFFFFFFFFFFFFFFFFFFFFFFFFFFF AND PUSH20 0xFFFFFFFFFFFFFFFFFFFFFFFFFFFFFFFFFFFFFFFF AND PUSH4 0x859F08DB DUP6 DUP6 PUSH1 0x40 MLOAD DUP4 PUSH4 0xFFFFFFFF AND PUSH1 0xE0 SHL DUP2 MSTORE PUSH1 0x4 ADD PUSH2 0x2E50 SWAP3 SWAP2 SWAP1 PUSH2 0x48BF JUMP JUMPDEST PUSH1 0xA0 PUSH1 0x40 MLOAD DUP1 DUP4 SUB DUP2 DUP7 DUP1 EXTCODESIZE ISZERO DUP1 ISZERO PUSH2 0x2E68 JUMPI PUSH1 0x0 DUP1 REVERT JUMPDEST POP GAS STATICCALL ISZERO DUP1 ISZERO PUSH2 0x2E7C JUMPI RETURNDATASIZE PUSH1 0x0 DUP1 RETURNDATACOPY RETURNDATASIZE PUSH1 0x0 REVERT JUMPDEST POP POP POP POP PUSH1 0x40 MLOAD RETURNDATASIZE PUSH1 0x1F NOT PUSH1 0x1F DUP3 ADD AND DUP3 ADD DUP1 PUSH1 0x40 MSTORE POP DUP2 ADD SWAP1 PUSH2 0x2EA0 SWAP2 SWAP1 PUSH2 0x3A45 JUMP JUMPDEST SWAP2 POP PUSH1 0x0 PUSH1 0x64 DUP4 PUSH1 0x80 ADD MLOAD PUSH2 0x2EB5 SWAP2 SWAP1 PUSH2 0x4974 JUMP JUMPDEST SWAP1 POP PUSH1 0x0 DUP2 DUP4 PUSH2 0x2EC5 SWAP2 SWAP1 PUSH2 0x49A5 JUMP JUMPDEST SWAP1 POP PUSH1 0x0 DUP2 DUP6 PUSH1 0x80 ADD MLOAD PUSH2 0x2ED9 SWAP2 SWAP1 PUSH2 0x49FF JUMP JUMPDEST SWAP1 POP DUP2 DUP6 PUSH1 0x80 ADD DUP2 DUP2 MSTORE POP POP DUP1 DUP6 PUSH1 0x60 ADD MLOAD PUSH2 0x2EF5 SWAP2 SWAP1 PUSH2 0x491E JUMP JUMPDEST DUP6 PUSH1 0x60 ADD DUP2 DUP2 MSTORE POP POP PUSH2 0x2F07 DUP6 PUSH2 0x3082 JUMP JUMPDEST POP POP POP POP POP POP POP JUMP JUMPDEST PUSH1 0x0 PUSH2 0x2F1E DUP3 PUSH1 0x0 ADD PUSH2 0x324D JUMP JUMPDEST SWAP1 POP SWAP2 SWAP1 POP JUMP JUMPDEST PUSH1 0x0 PUSH2 0x2F31 DUP4 DUP4 PUSH2 0x305F JUMP JUMPDEST PUSH2 0x2F8A JUMPI DUP3 PUSH1 0x0 ADD DUP3 SWAP1 DUP1 PUSH1 0x1 DUP2 SLOAD ADD DUP1 DUP3 SSTORE DUP1 SWAP2 POP POP PUSH1 0x1 SWAP1 SUB SWAP1 PUSH1 0x0 MSTORE PUSH1 0x20 PUSH1 0x0 KECCAK256 ADD PUSH1 0x0 SWAP1 SWAP2 SWAP1 SWAP2 SWAP1 SWAP2 POP SSTORE DUP3 PUSH1 0x0 ADD DUP1 SLOAD SWAP1 POP DUP4 PUSH1 0x1 ADD PUSH1 0x0 DUP5 DUP2 MSTORE PUSH1 0x20 ADD SWAP1 DUP2 MSTORE PUSH1 0x20 ADD PUSH1 0x0 KECCAK256 DUP2 SWAP1 SSTORE POP PUSH1 0x1 SWAP1 POP PUSH2 0x2F8F JUMP JUMPDEST PUSH1 0x0 SWAP1 POP JUMPDEST SWAP3 SWAP2 POP POP JUMP JUMPDEST PUSH1 0x0 PUSH2 0x2FBD DUP4 PUSH1 0x0 ADD DUP4 PUSH20 0xFFFFFFFFFFFFFFFFFFFFFFFFFFFFFFFFFFFFFFFF AND PUSH1 0x0 SHL PUSH2 0x325E JUMP JUMPDEST SWAP1 POP SWAP3 SWAP2 POP POP JUMP JUMPDEST PUSH1 0x0 DUP2 DUP4 PUSH1 0x0 ADD DUP1 SLOAD SWAP1 POP GT PUSH2 0x3010 JUMPI PUSH1 0x40 MLOAD PUSH32 0x8C379A000000000000000000000000000000000000000000000000000000000 DUP2 MSTORE PUSH1 0x4 ADD PUSH2 0x3007 SWAP1 PUSH2 0x440E JUMP JUMPDEST PUSH1 0x40 MLOAD DUP1 SWAP2 SUB SWAP1 REVERT JUMPDEST DUP3 PUSH1 0x0 ADD DUP3 DUP2 SLOAD DUP2 LT PUSH2 0x304C JUMPI PUSH32 0x4E487B7100000000000000000000000000000000000000000000000000000000 PUSH1 0x0 MSTORE PUSH1 0x32 PUSH1 0x4 MSTORE PUSH1 0x24 PUSH1 0x0 REVERT JUMPDEST SWAP1 PUSH1 0x0 MSTORE PUSH1 0x20 PUSH1 0x0 KECCAK256 ADD SLOAD SWAP1 POP SWAP3 SWAP2 POP POP JUMP JUMPDEST PUSH1 0x0 DUP1 DUP4 PUSH1 0x1 ADD PUSH1 0x0 DUP5 DUP2 MSTORE PUSH1 0x20 ADD SWAP1 DUP2 MSTORE PUSH1 0x20 ADD PUSH1 0x0 KECCAK256 SLOAD EQ ISZERO SWAP1 POP SWAP3 SWAP2 POP POP JUMP JUMPDEST PUSH2 0x308A PUSH2 0x712 JUMP JUMPDEST ISZERO PUSH2 0x30CA JUMPI PUSH1 0x40 MLOAD PUSH32 0x8C379A000000000000000000000000000000000000000000000000000000000 DUP2 MSTORE PUSH1 0x4 ADD PUSH2 0x30C1 SWAP1 PUSH2 0x454E JUMP JUMPDEST PUSH1 0x40 MLOAD DUP1 SWAP2 SUB SWAP1 REVERT JUMPDEST PUSH1 0x0 PUSH20 0xFFFFFFFFFFFFFFFFFFFFFFFFFFFFFFFFFFFFFFFF AND DUP2 PUSH1 0x20 ADD MLOAD PUSH20 0xFFFFFFFFFFFFFFFFFFFFFFFFFFFFFFFFFFFFFFFF AND EQ ISZERO PUSH2 0x313E JUMPI PUSH1 0x40 MLOAD PUSH32 0x8C379A000000000000000000000000000000000000000000000000000000000 DUP2 MSTORE PUSH1 0x4 ADD PUSH2 0x3135 SWAP1 PUSH2 0x452E JUMP JUMPDEST PUSH1 0x40 MLOAD DUP1 SWAP2 SUB SWAP1 REVERT JUMPDEST PUSH1 0x0 PUSH20 0xFFFFFFFFFFFFFFFFFFFFFFFFFFFFFFFFFFFFFFFF AND DUP2 PUSH1 0x40 ADD MLOAD PUSH20 0xFFFFFFFFFFFFFFFFFFFFFFFFFFFFFFFFFFFFFFFF AND EQ ISZERO PUSH2 0x31B4 JUMPI DUP1 PUSH1 0x20 ADD MLOAD DUP2 PUSH1 0x40 ADD SWAP1 PUSH20 0xFFFFFFFFFFFFFFFFFFFFFFFFFFFFFFFFFFFFFFFF AND SWAP1 DUP2 PUSH20 0xFFFFFFFFFFFFFFFFFFFFFFFFFFFFFFFFFFFFFFFF AND DUP2 MSTORE POP POP JUMPDEST PUSH1 0x7 PUSH1 0x0 SWAP1 SLOAD SWAP1 PUSH2 0x100 EXP SWAP1 DIV PUSH20 0xFFFFFFFFFFFFFFFFFFFFFFFFFFFFFFFFFFFFFFFF AND PUSH20 0xFFFFFFFFFFFFFFFFFFFFFFFFFFFFFFFFFFFFFFFF AND PUSH4 0x28DB9DA6 PUSH2 0x31FA PUSH2 0x20F6 JUMP JUMPDEST DUP4 PUSH1 0x40 MLOAD DUP4 PUSH4 0xFFFFFFFF AND PUSH1 0xE0 SHL DUP2 MSTORE PUSH1 0x4 ADD PUSH2 0x3218 SWAP3 SWAP2 SWAP1 PUSH2 0x42EA JUMP JUMPDEST PUSH1 0x0 PUSH1 0x40 MLOAD DUP1 DUP4 SUB DUP2 PUSH1 0x0 DUP8 DUP1 EXTCODESIZE ISZERO DUP1 ISZERO PUSH2 0x3232 JUMPI PUSH1 0x0 DUP1 REVERT JUMPDEST POP GAS CALL ISZERO DUP1 ISZERO PUSH2 0x3246 JUMPI RETURNDATASIZE PUSH1 0x0 DUP1 RETURNDATACOPY RETURNDATASIZE PUSH1 0x0 REVERT JUMPDEST POP POP POP POP POP JUMP JUMPDEST PUSH1 0x0 DUP2 PUSH1 0x0 ADD DUP1 SLOAD SWAP1 POP SWAP1 POP SWAP2 SWAP1 POP JUMP JUMPDEST PUSH1 0x0 DUP1 DUP4 PUSH1 0x1 ADD PUSH1 0x0 DUP5 DUP2 MSTORE PUSH1 0x20 ADD SWAP1 DUP2 MSTORE PUSH1 0x20 ADD PUSH1 0x0 KECCAK256 SLOAD SWAP1 POP PUSH1 0x0 DUP2 EQ PUSH2 0x33DC JUMPI PUSH1 0x0 PUSH1 0x1 DUP3 PUSH2 0x3290 SWAP2 SWAP1 PUSH2 0x49FF JUMP JUMPDEST SWAP1 POP PUSH1 0x0 PUSH1 0x1 DUP7 PUSH1 0x0 ADD DUP1 SLOAD SWAP1 POP PUSH2 0x32A8 SWAP2 SWAP1 PUSH2 0x49FF JUMP JUMPDEST SWAP1 POP PUSH1 0x0 DUP7 PUSH1 0x0 ADD DUP3 DUP2 SLOAD DUP2 LT PUSH2 0x32E8 JUMPI PUSH32 0x4E487B7100000000000000000000000000000000000000000000000000000000 PUSH1 0x0 MSTORE PUSH1 0x32 PUSH1 0x4 MSTORE PUSH1 0x24 PUSH1 0x0 REVERT JUMPDEST SWAP1 PUSH1 0x0 MSTORE PUSH1 0x20 PUSH1 0x0 KECCAK256 ADD SLOAD SWAP1 POP DUP1 DUP8 PUSH1 0x0 ADD DUP5 DUP2 SLOAD DUP2 LT PUSH2 0x3332 JUMPI PUSH32 0x4E487B7100000000000000000000000000000000000000000000000000000000 PUSH1 0x0 MSTORE PUSH1 0x32 PUSH1 0x4 MSTORE PUSH1 0x24 PUSH1 0x0 REVERT JUMPDEST SWAP1 PUSH1 0x0 MSTORE PUSH1 0x20 PUSH1 0x0 KECCAK256 ADD DUP2 SWAP1 SSTORE POP PUSH1 0x1 DUP4 PUSH2 0x334D SWAP2 SWAP1 PUSH2 0x491E JUMP JUMPDEST DUP8 PUSH1 0x1 ADD PUSH1 0x0 DUP4 DUP2 MSTORE PUSH1 0x20 ADD SWAP1 DUP2 MSTORE PUSH1 0x20 ADD PUSH1 0x0 KECCAK256 DUP2 SWAP1 SSTORE POP DUP7 PUSH1 0x0 ADD DUP1 SLOAD DUP1 PUSH2 0x33A0 JUMPI PUSH32 0x4E487B7100000000000000000000000000000000000000000000000000000000 PUSH1 0x0 MSTORE PUSH1 0x31 PUSH1 0x4 MSTORE PUSH1 0x24 PUSH1 0x0 REVERT JUMPDEST PUSH1 0x1 SWAP1 SUB DUP2 DUP2 SWAP1 PUSH1 0x0 MSTORE PUSH1 0x20 PUSH1 0x0 KECCAK256 ADD PUSH1 0x0 SWAP1 SSTORE SWAP1 SSTORE DUP7 PUSH1 0x1 ADD PUSH1 0x0 DUP8 DUP2 MSTORE PUSH1 0x20 ADD SWAP1 DUP2 MSTORE PUSH1 0x20 ADD PUSH1 0x0 KECCAK256 PUSH1 0x0 SWAP1 SSTORE PUSH1 0x1 SWAP5 POP POP POP POP POP PUSH2 0x33E2 JUMP JUMPDEST PUSH1 0x0 SWAP2 POP POP JUMPDEST SWAP3 SWAP2 POP POP JUMP JUMPDEST PUSH1 0x40 MLOAD DUP1 PUSH2 0x1A0 ADD PUSH1 0x40 MSTORE DUP1 PUSH1 0x0 PUSH1 0xFF AND DUP2 MSTORE PUSH1 0x20 ADD PUSH1 0x0 PUSH1 0xFF AND DUP2 MSTORE PUSH1 0x20 ADD PUSH1 0x0 PUSH1 0xFF AND DUP2 MSTORE PUSH1 0x20 ADD PUSH1 0x0 PUSH2 0xFFFF AND DUP2 MSTORE PUSH1 0x20 ADD PUSH1 0x0 PUSH4 0xFFFFFFFF AND DUP2 MSTORE PUSH1 0x20 ADD PUSH1 0x0 PUSH4 0xFFFFFFFF AND DUP2 MSTORE PUSH1 0x20 ADD PUSH1 0x0 PUSH4 0xFFFFFFFF AND DUP2 MSTORE PUSH1 0x20 ADD PUSH1 0x0 PUSH15 0xFFFFFFFFFFFFFFFFFFFFFFFFFFFFFF AND DUP2 MSTORE PUSH1 0x20 ADD PUSH1 0x0 DUP1 NOT AND DUP2 MSTORE PUSH1 0x20 ADD PUSH1 0x0 DUP1 NOT AND DUP2 MSTORE PUSH1 0x20 ADD PUSH1 0x0 DUP1 NOT AND DUP2 MSTORE PUSH1 0x20 ADD PUSH1 0x0 DUP1 NOT AND DUP2 MSTORE PUSH1 0x20 ADD PUSH1 0x0 DUP1 NOT AND DUP2 MSTORE POP SWAP1 JUMP JUMPDEST PUSH1 0x40 MLOAD DUP1 PUSH2 0x120 ADD PUSH1 0x40 MSTORE DUP1 PUSH1 0x60 DUP2 MSTORE PUSH1 0x20 ADD PUSH1 0x0 PUSH4 0xFFFFFFFF AND DUP2 MSTORE PUSH1 0x20 ADD PUSH1 0x0 PUSH1 0xFF AND DUP2 MSTORE PUSH1 0x20 ADD PUSH1 0x0 PUSH1 0xFF AND DUP2 MSTORE PUSH1 0x20 ADD PUSH1 0x0 PUSH1 0xFF AND DUP2 MSTORE PUSH1 0x20 ADD PUSH1 0x0 PUSH4 0xFFFFFFFF AND DUP2 MSTORE PUSH1 0x20 ADD PUSH1 0x0 PUSH20 0xFFFFFFFFFFFFFFFFFFFFFFFFFFFFFFFFFFFFFFFF AND DUP2 MSTORE PUSH1 0x20 ADD PUSH1 0x0 PUSH1 0xFF AND DUP2 MSTORE PUSH1 0x20 ADD PUSH1 0x0 DUP1 NOT AND DUP2 MSTORE POP SWAP1 JUMP JUMPDEST PUSH1 0x40 MLOAD DUP1 PUSH1 0xA0 ADD PUSH1 0x40 MSTORE DUP1 PUSH1 0x0 PUSH4 0xFFFFFFFF AND DUP2 MSTORE PUSH1 0x20 ADD PUSH1 0x0 PUSH20 0xFFFFFFFFFFFFFFFFFFFFFFFFFFFFFFFFFFFFFFFF AND DUP2 MSTORE PUSH1 0x20 ADD PUSH1 0x0 PUSH20 0xFFFFFFFFFFFFFFFFFFFFFFFFFFFFFFFFFFFFFFFF AND DUP2 MSTORE PUSH1 0x20 ADD PUSH1 0x0 DUP2 MSTORE PUSH1 0x20 ADD PUSH1 0x0 DUP2 MSTORE POP SWAP1 JUMP JUMPDEST PUSH1 0x0 DUP2 CALLDATALOAD SWAP1 POP PUSH2 0x357C DUP2 PUSH2 0x558D JUMP JUMPDEST SWAP3 SWAP2 POP POP JUMP JUMPDEST PUSH1 0x0 DUP2 MLOAD SWAP1 POP PUSH2 0x3591 DUP2 PUSH2 0x558D JUMP JUMPDEST SWAP3 SWAP2 POP POP JUMP JUMPDEST PUSH1 0x0 DUP2 CALLDATALOAD SWAP1 POP PUSH2 0x35A6 DUP2 PUSH2 0x55A4 JUMP JUMPDEST SWAP3 SWAP2 POP POP JUMP JUMPDEST PUSH1 0x0 DUP2 MLOAD SWAP1 POP PUSH2 0x35BB DUP2 PUSH2 0x55A4 JUMP JUMPDEST SWAP3 SWAP2 POP POP JUMP JUMPDEST PUSH1 0x0 DUP1 DUP4 PUSH1 0x1F DUP5 ADD SLT PUSH2 0x35D3 JUMPI PUSH1 0x0 DUP1 REVERT JUMPDEST DUP3 CALLDATALOAD SWAP1 POP PUSH8 0xFFFFFFFFFFFFFFFF DUP2 GT ISZERO PUSH2 0x35EC JUMPI PUSH1 0x0 DUP1 REVERT JUMPDEST PUSH1 0x20 DUP4 ADD SWAP2 POP DUP4 PUSH1 0x1 DUP3 MUL DUP4 ADD GT ISZERO PUSH2 0x3604 JUMPI PUSH1 0x0 DUP1 REVERT JUMPDEST SWAP3 POP SWAP3 SWAP1 POP JUMP JUMPDEST PUSH1 0x0 PUSH1 0xA0 DUP3 DUP5 SUB SLT ISZERO PUSH2 0x361D JUMPI PUSH1 0x0 DUP1 REVERT JUMPDEST PUSH2 0x3627 PUSH1 0xA0 PUSH2 0x48E8 JUMP JUMPDEST SWAP1 POP PUSH1 0x0 PUSH2 0x3637 DUP5 DUP3 DUP6 ADD PUSH2 0x3830 JUMP JUMPDEST PUSH1 0x0 DUP4 ADD MSTORE POP PUSH1 0x20 PUSH2 0x364B DUP5 DUP3 DUP6 ADD PUSH2 0x3582 JUMP JUMPDEST PUSH1 0x20 DUP4 ADD MSTORE POP PUSH1 0x40 PUSH2 0x365F DUP5 DUP3 DUP6 ADD PUSH2 0x3582 JUMP JUMPDEST PUSH1 0x40 DUP4 ADD MSTORE POP PUSH1 0x60 PUSH2 0x3673 DUP5 DUP3 DUP6 ADD PUSH2 0x3806 JUMP JUMPDEST PUSH1 0x60 DUP4 ADD MSTORE POP PUSH1 0x80 PUSH2 0x3687 DUP5 DUP3 DUP6 ADD PUSH2 0x3806 JUMP JUMPDEST PUSH1 0x80 DUP4 ADD MSTORE POP SWAP3 SWAP2 POP POP JUMP JUMPDEST PUSH1 0x0 PUSH2 0x1A0 DUP3 DUP5 SUB SLT ISZERO PUSH2 0x36A6 JUMPI PUSH1 0x0 DUP1 REVERT JUMPDEST PUSH2 0x36B1 PUSH2 0x1A0 PUSH2 0x48E8 JUMP JUMPDEST SWAP1 POP PUSH1 0x0 PUSH2 0x36C1 DUP5 DUP3 DUP6 ADD PUSH2 0x3845 JUMP JUMPDEST PUSH1 0x0 DUP4 ADD MSTORE POP PUSH1 0x20 PUSH2 0x36D5 DUP5 DUP3 DUP6 ADD PUSH2 0x3845 JUMP JUMPDEST PUSH1 0x20 DUP4 ADD MSTORE POP PUSH1 0x40 PUSH2 0x36E9 DUP5 DUP3 DUP6 ADD PUSH2 0x3845 JUMP JUMPDEST PUSH1 0x40 DUP4 ADD MSTORE POP PUSH1 0x60 PUSH2 0x36FD DUP5 DUP3 DUP6 ADD PUSH2 0x37DC JUMP JUMPDEST PUSH1 0x60 DUP4 ADD MSTORE POP PUSH1 0x80 PUSH2 0x3711 DUP5 DUP3 DUP6 ADD PUSH2 0x3830 JUMP JUMPDEST PUSH1 0x80 DUP4 ADD MSTORE POP PUSH1 0xA0 PUSH2 0x3725 DUP5 DUP3 DUP6 ADD PUSH2 0x3830 JUMP JUMPDEST PUSH1 0xA0 DUP4 ADD MSTORE POP PUSH1 0xC0 PUSH2 0x3739 DUP5 DUP3 DUP6 ADD PUSH2 0x3830 JUMP JUMPDEST PUSH1 0xC0 DUP4 ADD MSTORE POP PUSH1 0xE0 PUSH2 0x374D DUP5 DUP3 DUP6 ADD PUSH2 0x37C7 JUMP JUMPDEST PUSH1 0xE0 DUP4 ADD MSTORE POP PUSH2 0x100 PUSH2 0x3762 DUP5 DUP3 DUP6 ADD PUSH2 0x35AC JUMP JUMPDEST PUSH2 0x100 DUP4 ADD MSTORE POP PUSH2 0x120 PUSH2 0x3778 DUP5 DUP3 DUP6 ADD PUSH2 0x35AC JUMP JUMPDEST PUSH2 0x120 DUP4 ADD MSTORE POP PUSH2 0x140 PUSH2 0x378E DUP5 DUP3 DUP6 ADD PUSH2 0x35AC JUMP JUMPDEST PUSH2 0x140 DUP4 ADD MSTORE POP PUSH2 0x160 PUSH2 0x37A4 DUP5 DUP3 DUP6 ADD PUSH2 0x35AC JUMP JUMPDEST PUSH2 0x160 DUP4 ADD MSTORE POP PUSH2 0x180 PUSH2 0x37BA DUP5 DUP3 DUP6 ADD PUSH2 0x35AC JUMP JUMPDEST PUSH2 0x180 DUP4 ADD MSTORE POP SWAP3 SWAP2 POP POP JUMP JUMPDEST PUSH1 0x0 DUP2 MLOAD SWAP1 POP PUSH2 0x37D6 DUP2 PUSH2 0x55BB JUMP JUMPDEST SWAP3 SWAP2 POP POP JUMP JUMPDEST PUSH1 0x0 DUP2 MLOAD SWAP1 POP PUSH2 0x37EB DUP2 PUSH2 0x55D2 JUMP JUMPDEST SWAP3 SWAP2 POP POP JUMP JUMPDEST PUSH1 0x0 DUP2 CALLDATALOAD SWAP1 POP PUSH2 0x3800 DUP2 PUSH2 0x55E9 JUMP JUMPDEST SWAP3 SWAP2 POP POP JUMP JUMPDEST PUSH1 0x0 DUP2 MLOAD SWAP1 POP PUSH2 0x3815 DUP2 PUSH2 0x55E9 JUMP JUMPDEST SWAP3 SWAP2 POP POP JUMP JUMPDEST PUSH1 0x0 DUP2 CALLDATALOAD SWAP1 POP PUSH2 0x382A DUP2 PUSH2 0x5600 JUMP JUMPDEST SWAP3 SWAP2 POP POP JUMP JUMPDEST PUSH1 0x0 DUP2 MLOAD SWAP1 POP PUSH2 0x383F DUP2 PUSH2 0x5600 JUMP JUMPDEST SWAP3 SWAP2 POP POP JUMP JUMPDEST PUSH1 0x0 DUP2 MLOAD SWAP1 POP PUSH2 0x3854 DUP2 PUSH2 0x5617 JUMP JUMPDEST SWAP3 SWAP2 POP POP JUMP JUMPDEST PUSH1 0x0 PUSH1 0x20 DUP3 DUP5 SUB SLT ISZERO PUSH2 0x386C JUMPI PUSH1 0x0 DUP1 REVERT JUMPDEST PUSH1 0x0 PUSH2 0x387A DUP5 DUP3 DUP6 ADD PUSH2 0x356D JUMP JUMPDEST SWAP2 POP POP SWAP3 SWAP2 POP POP JUMP JUMPDEST PUSH1 0x0 PUSH1 0x20 DUP3 DUP5 SUB SLT ISZERO PUSH2 0x3895 JUMPI PUSH1 0x0 DUP1 REVERT JUMPDEST PUSH1 0x0 PUSH2 0x38A3 DUP5 DUP3 DUP6 ADD PUSH2 0x3582 JUMP JUMPDEST SWAP2 POP POP SWAP3 SWAP2 POP POP JUMP JUMPDEST PUSH1 0x0 DUP1 PUSH1 0x0 DUP1 PUSH1 0x0 PUSH1 0x80 DUP7 DUP9 SUB SLT ISZERO PUSH2 0x38C4 JUMPI PUSH1 0x0 DUP1 REVERT JUMPDEST PUSH1 0x0 PUSH2 0x38D2 DUP9 DUP3 DUP10 ADD PUSH2 0x356D JUMP JUMPDEST SWAP6 POP POP PUSH1 0x20 PUSH2 0x38E3 DUP9 DUP3 DUP10 ADD PUSH2 0x356D JUMP JUMPDEST SWAP5 POP POP PUSH1 0x40 PUSH2 0x38F4 DUP9 DUP3 DUP10 ADD PUSH2 0x37F1 JUMP JUMPDEST SWAP4 POP POP PUSH1 0x60 DUP7 ADD CALLDATALOAD PUSH8 0xFFFFFFFFFFFFFFFF DUP2 GT ISZERO PUSH2 0x3911 JUMPI PUSH1 0x0 DUP1 REVERT JUMPDEST PUSH2 0x391D DUP9 DUP3 DUP10 ADD PUSH2 0x35C1 JUMP JUMPDEST SWAP3 POP SWAP3 POP POP SWAP3 SWAP6 POP SWAP3 SWAP6 SWAP1 SWAP4 POP JUMP JUMPDEST PUSH1 0x0 DUP1 PUSH1 0x40 DUP4 DUP6 SUB SLT ISZERO PUSH2 0x393F JUMPI PUSH1 0x0 DUP1 REVERT JUMPDEST PUSH1 0x0 PUSH2 0x394D DUP6 DUP3 DUP7 ADD PUSH2 0x356D JUMP JUMPDEST SWAP3 POP POP PUSH1 0x20 PUSH2 0x395E DUP6 DUP3 DUP7 ADD PUSH2 0x3597 JUMP JUMPDEST SWAP2 POP POP SWAP3 POP SWAP3 SWAP1 POP JUMP JUMPDEST PUSH1 0x0 DUP1 PUSH1 0x40 DUP4 DUP6 SUB SLT ISZERO PUSH2 0x397B JUMPI PUSH1 0x0 DUP1 REVERT JUMPDEST PUSH1 0x0 PUSH2 0x3989 DUP6 DUP3 DUP7 ADD PUSH2 0x356D JUMP JUMPDEST SWAP3 POP POP PUSH1 0x20 PUSH2 0x399A DUP6 DUP3 DUP7 ADD PUSH2 0x37F1 JUMP JUMPDEST SWAP2 POP POP SWAP3 POP SWAP3 SWAP1 POP JUMP JUMPDEST PUSH1 0x0 PUSH1 0x20 DUP3 DUP5 SUB SLT ISZERO PUSH2 0x39B6 JUMPI PUSH1 0x0 DUP1 REVERT JUMPDEST PUSH1 0x0 PUSH2 0x39C4 DUP5 DUP3 DUP6 ADD PUSH2 0x3597 JUMP JUMPDEST SWAP2 POP POP SWAP3 SWAP2 POP POP JUMP JUMPDEST PUSH1 0x0 DUP1 PUSH1 0x40 DUP4 DUP6 SUB SLT ISZERO PUSH2 0x39E0 JUMPI PUSH1 0x0 DUP1 REVERT JUMPDEST PUSH1 0x0 PUSH2 0x39EE DUP6 DUP3 DUP7 ADD PUSH2 0x3597 JUMP JUMPDEST SWAP3 POP POP PUSH1 0x20 PUSH2 0x39FF DUP6 DUP3 DUP7 ADD PUSH2 0x356D JUMP JUMPDEST SWAP2 POP POP SWAP3 POP SWAP3 SWAP1 POP JUMP JUMPDEST PUSH1 0x0 DUP1 PUSH1 0x40 DUP4 DUP6 SUB SLT ISZERO PUSH2 0x3A1C JUMPI PUSH1 0x0 DUP1 REVERT JUMPDEST PUSH1 0x0 PUSH2 0x3A2A DUP6 DUP3 DUP7 ADD PUSH2 0x3597 JUMP JUMPDEST SWAP3 POP POP PUSH1 0x20 PUSH2 0x3A3B DUP6 DUP3 DUP7 ADD PUSH2 0x37F1 JUMP JUMPDEST SWAP2 POP POP SWAP3 POP SWAP3 SWAP1 POP JUMP JUMPDEST PUSH1 0x0 PUSH1 0xA0 DUP3 DUP5 SUB SLT ISZERO PUSH2 0x3A57 JUMPI PUSH1 0x0 DUP1 REVERT JUMPDEST PUSH1 0x0 PUSH2 0x3A65 DUP5 DUP3 DUP6 ADD PUSH2 0x360B JUMP JUMPDEST SWAP2 POP POP SWAP3 SWAP2 POP POP JUMP JUMPDEST PUSH1 0x0 PUSH2 0x1A0 DUP3 DUP5 SUB SLT ISZERO PUSH2 0x3A81 JUMPI PUSH1 0x0 DUP1 REVERT JUMPDEST PUSH1 0x0 PUSH2 0x3A8F DUP5 DUP3 DUP6 ADD PUSH2 0x3693 JUMP JUMPDEST SWAP2 POP POP SWAP3 SWAP2 POP POP JUMP JUMPDEST PUSH1 0x0 PUSH1 0x20 DUP3 DUP5 SUB SLT ISZERO PUSH2 0x3AAA JUMPI PUSH1 0x0 DUP1 REVERT JUMPDEST PUSH1 0x0 PUSH2 0x3AB8 DUP5 DUP3 DUP6 ADD PUSH2 0x37F1 JUMP JUMPDEST SWAP2 POP POP SWAP3 SWAP2 POP POP JUMP JUMPDEST PUSH1 0x0 PUSH1 0x20 DUP3 DUP5 SUB SLT ISZERO PUSH2 0x3AD3 JUMPI PUSH1 0x0 DUP1 REVERT JUMPDEST PUSH1 0x0 PUSH2 0x3AE1 DUP5 DUP3 DUP6 ADD PUSH2 0x3806 JUMP JUMPDEST SWAP2 POP POP SWAP3 SWAP2 POP POP JUMP JUMPDEST PUSH1 0x0 DUP1 PUSH1 0x0 DUP1 PUSH1 0x0 PUSH1 0xA0 DUP7 DUP9 SUB SLT ISZERO PUSH2 0x3B02 JUMPI PUSH1 0x0 DUP1 REVERT JUMPDEST PUSH1 0x0 PUSH2 0x3B10 DUP9 DUP3 DUP10 ADD PUSH2 0x37F1 JUMP JUMPDEST SWAP6 POP POP PUSH1 0x20 PUSH2 0x3B21 DUP9 DUP3 DUP10 ADD PUSH2 0x356D JUMP JUMPDEST SWAP5 POP POP PUSH1 0x40 PUSH2 0x3B32 DUP9 DUP3 DUP10 ADD PUSH2 0x3597 JUMP JUMPDEST SWAP4 POP POP PUSH1 0x60 PUSH2 0x3B43 DUP9 DUP3 DUP10 ADD PUSH2 0x381B JUMP JUMPDEST SWAP3 POP POP PUSH1 0x80 PUSH2 0x3B54 DUP9 DUP3 DUP10 ADD PUSH2 0x381B JUMP JUMPDEST SWAP2 POP POP SWAP3 SWAP6 POP SWAP3 SWAP6 SWAP1 SWAP4 POP JUMP JUMPDEST PUSH1 0x0 PUSH1 0x20 DUP3 DUP5 SUB SLT ISZERO PUSH2 0x3B73 JUMPI PUSH1 0x0 DUP1 REVERT JUMPDEST PUSH1 0x0 PUSH2 0x3B81 DUP5 DUP3 DUP6 ADD PUSH2 0x3830 JUMP JUMPDEST SWAP2 POP POP SWAP3 SWAP2 POP POP JUMP JUMPDEST PUSH1 0x0 DUP1 PUSH1 0x0 DUP1 PUSH1 0x0 PUSH1 0xA0 DUP7 DUP9 SUB SLT ISZERO PUSH2 0x3BA2 JUMPI PUSH1 0x0 DUP1 REVERT JUMPDEST PUSH1 0x0 PUSH2 0x3BB0 DUP9 DUP3 DUP10 ADD PUSH2 0x3830 JUMP JUMPDEST SWAP6 POP POP PUSH1 0x20 PUSH2 0x3BC1 DUP9 DUP3 DUP10 ADD PUSH2 0x3845 JUMP JUMPDEST SWAP5 POP POP PUSH1 0x40 PUSH2 0x3BD2 DUP9 DUP3 DUP10 ADD PUSH2 0x3845 JUMP JUMPDEST SWAP4 POP POP PUSH1 0x60 PUSH2 0x3BE3 DUP9 DUP3 DUP10 ADD PUSH2 0x3830 JUMP JUMPDEST SWAP3 POP POP PUSH1 0x80 PUSH2 0x3BF4 DUP9 DUP3 DUP10 ADD PUSH2 0x3582 JUMP JUMPDEST SWAP2 POP POP SWAP3 SWAP6 POP SWAP3 SWAP6 SWAP1 SWAP4 POP JUMP JUMPDEST PUSH1 0x0 PUSH1 0x20 DUP3 DUP5 SUB SLT ISZERO PUSH2 0x3C13 JUMPI PUSH1 0x0 DUP1 REVERT JUMPDEST PUSH1 0x0 PUSH2 0x3C21 DUP5 DUP3 DUP6 ADD PUSH2 0x3845 JUMP JUMPDEST SWAP2 POP POP SWAP3 SWAP2 POP POP JUMP JUMPDEST PUSH2 0x3C33 DUP2 PUSH2 0x4A33 JUMP JUMPDEST DUP3 MSTORE POP POP JUMP JUMPDEST PUSH2 0x3C42 DUP2 PUSH2 0x4A33 JUMP JUMPDEST DUP3 MSTORE POP POP JUMP JUMPDEST PUSH2 0x3C59 PUSH2 0x3C54 DUP3 PUSH2 0x4A33 JUMP JUMPDEST PUSH2 0x4B3A JUMP JUMPDEST DUP3 MSTORE POP POP JUMP JUMPDEST PUSH2 0x3C68 DUP2 PUSH2 0x4A45 JUMP JUMPDEST DUP3 MSTORE POP POP JUMP JUMPDEST PUSH2 0x3C77 DUP2 PUSH2 0x4A51 JUMP JUMPDEST DUP3 MSTORE POP POP JUMP JUMPDEST PUSH2 0x3C86 DUP2 PUSH2 0x4A5B JUMP JUMPDEST DUP3 MSTORE POP POP JUMP JUMPDEST PUSH1 0x0 PUSH2 0x3C99 PUSH1 0x22 DUP4 PUSH2 0x490D JUMP JUMPDEST SWAP2 POP PUSH2 0x3CA4 DUP3 PUSH2 0x4C13 JUMP JUMPDEST PUSH1 0x40 DUP3 ADD SWAP1 POP SWAP2 SWAP1 POP JUMP JUMPDEST PUSH1 0x0 PUSH2 0x3CBC PUSH1 0x27 DUP4 PUSH2 0x490D JUMP JUMPDEST SWAP2 POP PUSH2 0x3CC7 DUP3 PUSH2 0x4C62 JUMP JUMPDEST PUSH1 0x40 DUP3 ADD SWAP1 POP SWAP2 SWAP1 POP JUMP JUMPDEST PUSH1 0x0 PUSH2 0x3CDF PUSH1 0x2F DUP4 PUSH2 0x490D JUMP JUMPDEST SWAP2 POP PUSH2 0x3CEA DUP3 PUSH2 0x4CB1 JUMP JUMPDEST PUSH1 0x40 DUP3 ADD SWAP1 POP SWAP2 SWAP1 POP JUMP JUMPDEST PUSH1 0x0 PUSH2 0x3D02 PUSH1 0x14 DUP4 PUSH2 0x490D JUMP JUMPDEST SWAP2 POP PUSH2 0x3D0D DUP3 PUSH2 0x4D00 JUMP JUMPDEST PUSH1 0x20 DUP3 ADD SWAP1 POP SWAP2 SWAP1 POP JUMP JUMPDEST PUSH1 0x0 PUSH2 0x3D25 PUSH1 0x3 DUP4 PUSH2 0x490D JUMP JUMPDEST SWAP2 POP PUSH2 0x3D30 DUP3 PUSH2 0x4D29 JUMP JUMPDEST PUSH1 0x20 DUP3 ADD SWAP1 POP SWAP2 SWAP1 POP JUMP JUMPDEST PUSH1 0x0 PUSH2 0x3D48 PUSH1 0x4 DUP4 PUSH2 0x490D JUMP JUMPDEST SWAP2 POP PUSH2 0x3D53 DUP3 PUSH2 0x4D52 JUMP JUMPDEST PUSH1 0x20 DUP3 ADD SWAP1 POP SWAP2 SWAP1 POP JUMP JUMPDEST PUSH1 0x0 PUSH2 0x3D6B PUSH1 0x4E DUP4 PUSH2 0x490D JUMP JUMPDEST SWAP2 POP PUSH2 0x3D76 DUP3 PUSH2 0x4D7B JUMP JUMPDEST PUSH1 0x60 DUP3 ADD SWAP1 POP SWAP2 SWAP1 POP JUMP JUMPDEST PUSH1 0x0 PUSH2 0x3D8E PUSH1 0x30 DUP4 PUSH2 0x490D JUMP JUMPDEST SWAP2 POP PUSH2 0x3D99 DUP3 PUSH2 0x4DF0 JUMP JUMPDEST PUSH1 0x40 DUP3 ADD SWAP1 POP SWAP2 SWAP1 POP JUMP JUMPDEST PUSH1 0x0 PUSH2 0x3DB1 PUSH1 0x26 DUP4 PUSH2 0x490D JUMP JUMPDEST SWAP2 POP PUSH2 0x3DBC DUP3 PUSH2 0x4E3F JUMP JUMPDEST PUSH1 0x40 DUP3 ADD SWAP1 POP SWAP2 SWAP1 POP JUMP JUMPDEST PUSH1 0x0 PUSH2 0x3DD4 PUSH1 0x29 DUP4 PUSH2 0x490D JUMP JUMPDEST SWAP2 POP PUSH2 0x3DDF DUP3 PUSH2 0x4E8E JUMP JUMPDEST PUSH1 0x40 DUP3 ADD SWAP1 POP SWAP2 SWAP1 POP JUMP JUMPDEST PUSH1 0x0 PUSH2 0x3DF7 PUSH1 0x10 DUP4 PUSH2 0x490D JUMP JUMPDEST SWAP2 POP PUSH2 0x3E02 DUP3 PUSH2 0x4EDD JUMP JUMPDEST PUSH1 0x20 DUP3 ADD SWAP1 POP SWAP2 SWAP1 POP JUMP JUMPDEST PUSH1 0x0 PUSH2 0x3E1A PUSH1 0x38 DUP4 PUSH2 0x490D JUMP JUMPDEST SWAP2 POP PUSH2 0x3E25 DUP3 PUSH2 0x4F06 JUMP JUMPDEST PUSH1 0x40 DUP3 ADD SWAP1 POP SWAP2 SWAP1 POP JUMP JUMPDEST PUSH1 0x0 PUSH2 0x3E3D PUSH1 0x1E DUP4 PUSH2 0x490D JUMP JUMPDEST SWAP2 POP PUSH2 0x3E48 DUP3 PUSH2 0x4F55 JUMP JUMPDEST PUSH1 0x20 DUP3 ADD SWAP1 POP SWAP2 SWAP1 POP JUMP JUMPDEST PUSH1 0x0 PUSH2 0x3E60 PUSH1 0x5 DUP4 PUSH2 0x490D JUMP JUMPDEST SWAP2 POP PUSH2 0x3E6B DUP3 PUSH2 0x4F7E JUMP JUMPDEST PUSH1 0x20 DUP3 ADD SWAP1 POP SWAP2 SWAP1 POP JUMP JUMPDEST PUSH1 0x0 PUSH2 0x3E83 PUSH1 0x27 DUP4 PUSH2 0x490D JUMP JUMPDEST SWAP2 POP PUSH2 0x3E8E DUP3 PUSH2 0x4FA7 JUMP JUMPDEST PUSH1 0x40 DUP3 ADD SWAP1 POP SWAP2 SWAP1 POP JUMP JUMPDEST PUSH1 0x0 PUSH2 0x3EA6 PUSH1 0x31 DUP4 PUSH2 0x490D JUMP JUMPDEST SWAP2 POP PUSH2 0x3EB1 DUP3 PUSH2 0x4FF6 JUMP JUMPDEST PUSH1 0x40 DUP3 ADD SWAP1 POP SWAP2 SWAP1 POP JUMP JUMPDEST PUSH1 0x0 PUSH2 0x3EC9 PUSH1 0x45 DUP4 PUSH2 0x490D JUMP JUMPDEST SWAP2 POP PUSH2 0x3ED4 DUP3 PUSH2 0x5045 JUMP JUMPDEST PUSH1 0x60 DUP3 ADD SWAP1 POP SWAP2 SWAP1 POP JUMP JUMPDEST PUSH1 0x0 PUSH2 0x3EEC PUSH1 0x12 DUP4 PUSH2 0x490D JUMP JUMPDEST SWAP2 POP PUSH2 0x3EF7 DUP3 PUSH2 0x50BA JUMP JUMPDEST PUSH1 0x20 DUP3 ADD SWAP1 POP SWAP2 SWAP1 POP JUMP JUMPDEST PUSH1 0x0 PUSH2 0x3F0F PUSH1 0x6 DUP4 PUSH2 0x490D JUMP JUMPDEST SWAP2 POP PUSH2 0x3F1A DUP3 PUSH2 0x50E3 JUMP JUMPDEST PUSH1 0x20 DUP3 ADD SWAP1 POP SWAP2 SWAP1 POP JUMP JUMPDEST PUSH1 0x0 PUSH2 0x3F32 PUSH1 0x50 DUP4 PUSH2 0x490D JUMP JUMPDEST SWAP2 POP PUSH2 0x3F3D DUP3 PUSH2 0x510C JUMP JUMPDEST PUSH1 0x60 DUP3 ADD SWAP1 POP SWAP2 SWAP1 POP JUMP JUMPDEST PUSH1 0x0 PUSH2 0x3F55 PUSH1 0x2F DUP4 PUSH2 0x490D JUMP JUMPDEST SWAP2 POP PUSH2 0x3F60 DUP3 PUSH2 0x5181 JUMP JUMPDEST PUSH1 0x40 DUP3 ADD SWAP1 POP SWAP2 SWAP1 POP JUMP JUMPDEST PUSH1 0x0 PUSH2 0x3F78 PUSH1 0x44 DUP4 PUSH2 0x490D JUMP JUMPDEST SWAP2 POP PUSH2 0x3F83 DUP3 PUSH2 0x51D0 JUMP JUMPDEST PUSH1 0x60 DUP3 ADD SWAP1 POP SWAP2 SWAP1 POP JUMP JUMPDEST PUSH1 0x0 PUSH2 0x3F9B PUSH1 0x32 DUP4 PUSH2 0x490D JUMP JUMPDEST SWAP2 POP PUSH2 0x3FA6 DUP3 PUSH2 0x5245 JUMP JUMPDEST PUSH1 0x40 DUP3 ADD SWAP1 POP SWAP2 SWAP1 POP JUMP JUMPDEST PUSH1 0x0 PUSH2 0x3FBE PUSH1 0x41 DUP4 PUSH2 0x490D JUMP JUMPDEST SWAP2 POP PUSH2 0x3FC9 DUP3 PUSH2 0x5294 JUMP JUMPDEST PUSH1 0x60 DUP3 ADD SWAP1 POP SWAP2 SWAP1 POP JUMP JUMPDEST PUSH1 0x0 PUSH2 0x3FE1 PUSH1 0x6 DUP4 PUSH2 0x490D JUMP JUMPDEST SWAP2 POP PUSH2 0x3FEC DUP3 PUSH2 0x5309 JUMP JUMPDEST PUSH1 0x20 DUP3 ADD SWAP1 POP SWAP2 SWAP1 POP JUMP JUMPDEST PUSH1 0x0 PUSH2 0x4004 PUSH1 0x22 DUP4 PUSH2 0x490D JUMP JUMPDEST SWAP2 POP PUSH2 0x400F DUP3 PUSH2 0x5332 JUMP JUMPDEST PUSH1 0x40 DUP3 ADD SWAP1 POP SWAP2 SWAP1 POP JUMP JUMPDEST PUSH1 0x0 PUSH2 0x4027 PUSH1 0x6 DUP4 PUSH2 0x490D JUMP JUMPDEST SWAP2 POP PUSH2 0x4032 DUP3 PUSH2 0x5381 JUMP JUMPDEST PUSH1 0x20 DUP3 ADD SWAP1 POP SWAP2 SWAP1 POP JUMP JUMPDEST PUSH1 0x0 PUSH2 0x404A PUSH1 0x20 DUP4 PUSH2 0x490D JUMP JUMPDEST SWAP2 POP PUSH2 0x4055 DUP3 PUSH2 0x53AA JUMP JUMPDEST PUSH1 0x20 DUP3 ADD SWAP1 POP SWAP2 SWAP1 POP JUMP JUMPDEST PUSH1 0x0 PUSH2 0x406D PUSH1 0x46 DUP4 PUSH2 0x490D JUMP JUMPDEST SWAP2 POP PUSH2 0x4078 DUP3 PUSH2 0x53D3 JUMP JUMPDEST PUSH1 0x60 DUP3 ADD SWAP1 POP SWAP2 SWAP1 POP JUMP JUMPDEST PUSH1 0x0 PUSH2 0x4090 PUSH1 0x7 DUP4 PUSH2 0x490D JUMP JUMPDEST SWAP2 POP PUSH2 0x409B DUP3 PUSH2 0x5448 JUMP JUMPDEST PUSH1 0x20 DUP3 ADD SWAP1 POP SWAP2 SWAP1 POP JUMP JUMPDEST PUSH1 0x0 PUSH2 0x40B3 PUSH1 0x7 DUP4 PUSH2 0x490D JUMP JUMPDEST SWAP2 POP PUSH2 0x40BE DUP3 PUSH2 0x5471 JUMP JUMPDEST PUSH1 0x20 DUP3 ADD SWAP1 POP SWAP2 SWAP1 POP JUMP JUMPDEST PUSH1 0x0 PUSH2 0x40D6 PUSH1 0x2 DUP4 PUSH2 0x490D JUMP JUMPDEST SWAP2 POP PUSH2 0x40E1 DUP3 PUSH2 0x549A JUMP JUMPDEST PUSH1 0x20 DUP3 ADD SWAP1 POP SWAP2 SWAP1 POP JUMP JUMPDEST PUSH1 0x0 PUSH2 0x40F9 PUSH1 0x1F DUP4 PUSH2 0x490D JUMP JUMPDEST SWAP2 POP PUSH2 0x4104 DUP3 PUSH2 0x54C3 JUMP JUMPDEST PUSH1 0x20 DUP3 ADD SWAP1 POP SWAP2 SWAP1 POP JUMP JUMPDEST PUSH1 0x0 PUSH2 0x411C PUSH1 0x8 DUP4 PUSH2 0x490D JUMP JUMPDEST SWAP2 POP PUSH2 0x4127 DUP3 PUSH2 0x54EC JUMP JUMPDEST PUSH1 0x20 DUP3 ADD SWAP1 POP SWAP2 SWAP1 POP JUMP JUMPDEST PUSH1 0x0 PUSH2 0x413F PUSH1 0x6 DUP4 PUSH2 0x490D JUMP JUMPDEST SWAP2 POP PUSH2 0x414A DUP3 PUSH2 0x5515 JUMP JUMPDEST PUSH1 0x20 DUP3 ADD SWAP1 POP SWAP2 SWAP1 POP JUMP JUMPDEST PUSH1 0x0 PUSH2 0x4162 PUSH1 0x2F DUP4 PUSH2 0x490D JUMP JUMPDEST SWAP2 POP PUSH2 0x416D DUP3 PUSH2 0x553E JUMP JUMPDEST PUSH1 0x40 DUP3 ADD SWAP1 POP SWAP2 SWAP1 POP JUMP JUMPDEST PUSH1 0xA0 DUP3 ADD PUSH1 0x0 DUP3 ADD MLOAD PUSH2 0x418E PUSH1 0x0 DUP6 ADD DUP3 PUSH2 0x4233 JUMP JUMPDEST POP PUSH1 0x20 DUP3 ADD MLOAD PUSH2 0x41A1 PUSH1 0x20 DUP6 ADD DUP3 PUSH2 0x3C2A JUMP JUMPDEST POP PUSH1 0x40 DUP3 ADD MLOAD PUSH2 0x41B4 PUSH1 0x40 DUP6 ADD DUP3 PUSH2 0x3C2A JUMP JUMPDEST POP PUSH1 0x60 DUP3 ADD MLOAD PUSH2 0x41C7 PUSH1 0x60 DUP6 ADD DUP3 PUSH2 0x41EF JUMP JUMPDEST POP PUSH1 0x80 DUP3 ADD MLOAD PUSH2 0x41DA PUSH1 0x80 DUP6 ADD DUP3 PUSH2 0x41EF JUMP JUMPDEST POP POP POP POP JUMP JUMPDEST PUSH2 0x41E9 DUP2 PUSH2 0x4AA2 JUMP JUMPDEST DUP3 MSTORE POP POP JUMP JUMPDEST PUSH2 0x41F8 DUP2 PUSH2 0x4AD0 JUMP JUMPDEST DUP3 MSTORE POP POP JUMP JUMPDEST PUSH2 0x4207 DUP2 PUSH2 0x4AD0 JUMP JUMPDEST DUP3 MSTORE POP POP JUMP JUMPDEST PUSH2 0x421E PUSH2 0x4219 DUP3 PUSH2 0x4AD0 JUMP JUMPDEST PUSH2 0x4B5E JUMP JUMPDEST DUP3 MSTORE POP POP JUMP JUMPDEST PUSH2 0x422D DUP2 PUSH2 0x4AF7 JUMP JUMPDEST DUP3 MSTORE POP POP JUMP JUMPDEST PUSH2 0x423C DUP2 PUSH2 0x4ADA JUMP JUMPDEST DUP3 MSTORE POP POP JUMP JUMPDEST PUSH2 0x424B DUP2 PUSH2 0x4ADA JUMP JUMPDEST DUP3 MSTORE POP POP JUMP JUMPDEST PUSH1 0x0 PUSH2 0x425D DUP3 DUP5 PUSH2 0x3C48 JUMP JUMPDEST PUSH1 0x14 DUP3 ADD SWAP2 POP DUP2 SWAP1 POP SWAP3 SWAP2 POP POP JUMP JUMPDEST PUSH1 0x0 PUSH2 0x4278 DUP3 DUP6 PUSH2 0x420D JUMP JUMPDEST PUSH1 0x20 DUP3 ADD SWAP2 POP PUSH2 0x4288 DUP3 DUP5 PUSH2 0x3C48 JUMP JUMPDEST PUSH1 0x14 DUP3 ADD SWAP2 POP DUP2 SWAP1 POP SWAP4 SWAP3 POP POP POP JUMP JUMPDEST PUSH1 0x0 PUSH1 0x20 DUP3 ADD SWAP1 POP PUSH2 0x42AD PUSH1 0x0 DUP4 ADD DUP5 PUSH2 0x3C39 JUMP JUMPDEST SWAP3 SWAP2 POP POP JUMP JUMPDEST PUSH1 0x0 PUSH1 0x60 DUP3 ADD SWAP1 POP PUSH2 0x42C8 PUSH1 0x0 DUP4 ADD DUP7 PUSH2 0x3C39 JUMP JUMPDEST PUSH2 0x42D5 PUSH1 0x20 DUP4 ADD DUP6 PUSH2 0x3C39 JUMP JUMPDEST PUSH2 0x42E2 PUSH1 0x40 DUP4 ADD DUP5 PUSH2 0x41FE JUMP JUMPDEST SWAP5 SWAP4 POP POP POP POP JUMP JUMPDEST PUSH1 0x0 PUSH1 0xC0 DUP3 ADD SWAP1 POP PUSH2 0x42FF PUSH1 0x0 DUP4 ADD DUP6 PUSH2 0x3C39 JUMP JUMPDEST PUSH2 0x430C PUSH1 0x20 DUP4 ADD DUP5 PUSH2 0x4178 JUMP JUMPDEST SWAP4 SWAP3 POP POP POP JUMP JUMPDEST PUSH1 0x0 PUSH1 0x60 DUP3 ADD SWAP1 POP PUSH2 0x4328 PUSH1 0x0 DUP4 ADD DUP6 PUSH2 0x3C39 JUMP JUMPDEST PUSH2 0x4335 PUSH1 0x20 DUP4 ADD DUP5 PUSH2 0x41FE JUMP JUMPDEST DUP2 DUP2 SUB PUSH1 0x40 DUP4 ADD MSTORE PUSH2 0x4346 DUP2 PUSH2 0x40A6 JUMP JUMPDEST SWAP1 POP SWAP4 SWAP3 POP POP POP JUMP JUMPDEST PUSH1 0x0 PUSH1 0x20 DUP3 ADD SWAP1 POP PUSH2 0x4364 PUSH1 0x0 DUP4 ADD DUP5 PUSH2 0x3C5F JUMP JUMPDEST SWAP3 SWAP2 POP POP JUMP JUMPDEST PUSH1 0x0 PUSH1 0x20 DUP3 ADD SWAP1 POP PUSH2 0x437F PUSH1 0x0 DUP4 ADD DUP5 PUSH2 0x3C6E JUMP JUMPDEST SWAP3 SWAP2 POP POP JUMP JUMPDEST PUSH1 0x0 PUSH1 0x80 DUP3 ADD SWAP1 POP PUSH2 0x439A PUSH1 0x0 DUP4 ADD DUP8 PUSH2 0x3C6E JUMP JUMPDEST PUSH2 0x43A7 PUSH1 0x20 DUP4 ADD DUP7 PUSH2 0x3C6E JUMP JUMPDEST PUSH2 0x43B4 PUSH1 0x40 DUP4 ADD DUP6 PUSH2 0x4242 JUMP JUMPDEST PUSH2 0x43C1 PUSH1 0x60 DUP4 ADD DUP5 PUSH2 0x4242 JUMP JUMPDEST SWAP6 SWAP5 POP POP POP POP POP JUMP JUMPDEST PUSH1 0x0 PUSH1 0x40 DUP3 ADD SWAP1 POP PUSH2 0x43DF PUSH1 0x0 DUP4 ADD DUP6 PUSH2 0x3C6E JUMP JUMPDEST PUSH2 0x43EC PUSH1 0x20 DUP4 ADD DUP5 PUSH2 0x4242 JUMP JUMPDEST SWAP4 SWAP3 POP POP POP JUMP JUMPDEST PUSH1 0x0 PUSH1 0x20 DUP3 ADD SWAP1 POP PUSH2 0x4408 PUSH1 0x0 DUP4 ADD DUP5 PUSH2 0x3C7D JUMP JUMPDEST SWAP3 SWAP2 POP POP JUMP JUMPDEST PUSH1 0x0 PUSH1 0x20 DUP3 ADD SWAP1 POP DUP2 DUP2 SUB PUSH1 0x0 DUP4 ADD MSTORE PUSH2 0x4427 DUP2 PUSH2 0x3C8C JUMP JUMPDEST SWAP1 POP SWAP2 SWAP1 POP JUMP JUMPDEST PUSH1 0x0 PUSH1 0x20 DUP3 ADD SWAP1 POP DUP2 DUP2 SUB PUSH1 0x0 DUP4 ADD MSTORE PUSH2 0x4447 DUP2 PUSH2 0x3CAF JUMP JUMPDEST SWAP1 POP SWAP2 SWAP1 POP JUMP JUMPDEST PUSH1 0x0 PUSH1 0x20 DUP3 ADD SWAP1 POP DUP2 DUP2 SUB PUSH1 0x0 DUP4 ADD MSTORE PUSH2 0x4467 DUP2 PUSH2 0x3CD2 JUMP JUMPDEST SWAP1 POP SWAP2 SWAP1 POP JUMP JUMPDEST PUSH1 0x0 PUSH1 0x20 DUP3 ADD SWAP1 POP DUP2 DUP2 SUB PUSH1 0x0 DUP4 ADD MSTORE PUSH2 0x4487 DUP2 PUSH2 0x3CF5 JUMP JUMPDEST SWAP1 POP SWAP2 SWAP1 POP JUMP JUMPDEST PUSH1 0x0 PUSH1 0x20 DUP3 ADD SWAP1 POP DUP2 DUP2 SUB PUSH1 0x0 DUP4 ADD MSTORE PUSH2 0x44A7 DUP2 PUSH2 0x3D18 JUMP JUMPDEST SWAP1 POP SWAP2 SWAP1 POP JUMP JUMPDEST PUSH1 0x0 PUSH1 0x20 DUP3 ADD SWAP1 POP DUP2 DUP2 SUB PUSH1 0x0 DUP4 ADD MSTORE PUSH2 0x44C7 DUP2 PUSH2 0x3D3B JUMP JUMPDEST SWAP1 POP SWAP2 SWAP1 POP JUMP JUMPDEST PUSH1 0x0 PUSH1 0x20 DUP3 ADD SWAP1 POP DUP2 DUP2 SUB PUSH1 0x0 DUP4 ADD MSTORE PUSH2 0x44E7 DUP2 PUSH2 0x3D5E JUMP JUMPDEST SWAP1 POP SWAP2 SWAP1 POP JUMP JUMPDEST PUSH1 0x0 PUSH1 0x20 DUP3 ADD SWAP1 POP DUP2 DUP2 SUB PUSH1 0x0 DUP4 ADD MSTORE PUSH2 0x4507 DUP2 PUSH2 0x3D81 JUMP JUMPDEST SWAP1 POP SWAP2 SWAP1 POP JUMP JUMPDEST PUSH1 0x0 PUSH1 0x20 DUP3 ADD SWAP1 POP DUP2 DUP2 SUB PUSH1 0x0 DUP4 ADD MSTORE PUSH2 0x4527 DUP2 PUSH2 0x3DA4 JUMP JUMPDEST SWAP1 POP SWAP2 SWAP1 POP JUMP JUMPDEST PUSH1 0x0 PUSH1 0x20 DUP3 ADD SWAP1 POP DUP2 DUP2 SUB PUSH1 0x0 DUP4 ADD MSTORE PUSH2 0x4547 DUP2 PUSH2 0x3DC7 JUMP JUMPDEST SWAP1 POP SWAP2 SWAP1 POP JUMP JUMPDEST PUSH1 0x0 PUSH1 0x20 DUP3 ADD SWAP1 POP DUP2 DUP2 SUB PUSH1 0x0 DUP4 ADD MSTORE PUSH2 0x4567 DUP2 PUSH2 0x3DEA JUMP JUMPDEST SWAP1 POP SWAP2 SWAP1 POP JUMP JUMPDEST PUSH1 0x0 PUSH1 0x20 DUP3 ADD SWAP1 POP DUP2 DUP2 SUB PUSH1 0x0 DUP4 ADD MSTORE PUSH2 0x4587 DUP2 PUSH2 0x3E0D JUMP JUMPDEST SWAP1 POP SWAP2 SWAP1 POP JUMP JUMPDEST PUSH1 0x0 PUSH1 0x20 DUP3 ADD SWAP1 POP DUP2 DUP2 SUB PUSH1 0x0 DUP4 ADD MSTORE PUSH2 0x45A7 DUP2 PUSH2 0x3E30 JUMP JUMPDEST SWAP1 POP SWAP2 SWAP1 POP JUMP JUMPDEST PUSH1 0x0 PUSH1 0x20 DUP3 ADD SWAP1 POP DUP2 DUP2 SUB PUSH1 0x0 DUP4 ADD MSTORE PUSH2 0x45C7 DUP2 PUSH2 0x3E53 JUMP JUMPDEST SWAP1 POP SWAP2 SWAP1 POP JUMP JUMPDEST PUSH1 0x0 PUSH1 0x20 DUP3 ADD SWAP1 POP DUP2 DUP2 SUB PUSH1 0x0 DUP4 ADD MSTORE PUSH2 0x45E7 DUP2 PUSH2 0x3E76 JUMP JUMPDEST SWAP1 POP SWAP2 SWAP1 POP JUMP JUMPDEST PUSH1 0x0 PUSH1 0x20 DUP3 ADD SWAP1 POP DUP2 DUP2 SUB PUSH1 0x0 DUP4 ADD MSTORE PUSH2 0x4607 DUP2 PUSH2 0x3E99 JUMP JUMPDEST SWAP1 POP SWAP2 SWAP1 POP JUMP JUMPDEST PUSH1 0x0 PUSH1 0x20 DUP3 ADD SWAP1 POP DUP2 DUP2 SUB PUSH1 0x0 DUP4 ADD MSTORE PUSH2 0x4627 DUP2 PUSH2 0x3EBC JUMP JUMPDEST SWAP1 POP SWAP2 SWAP1 POP JUMP JUMPDEST PUSH1 0x0 PUSH1 0x20 DUP3 ADD SWAP1 POP DUP2 DUP2 SUB PUSH1 0x0 DUP4 ADD MSTORE PUSH2 0x4647 DUP2 PUSH2 0x3EDF JUMP JUMPDEST SWAP1 POP SWAP2 SWAP1 POP JUMP JUMPDEST PUSH1 0x0 PUSH1 0x20 DUP3 ADD SWAP1 POP DUP2 DUP2 SUB PUSH1 0x0 DUP4 ADD MSTORE PUSH2 0x4667 DUP2 PUSH2 0x3F02 JUMP JUMPDEST SWAP1 POP SWAP2 SWAP1 POP JUMP JUMPDEST PUSH1 0x0 PUSH1 0x20 DUP3 ADD SWAP1 POP DUP2 DUP2 SUB PUSH1 0x0 DUP4 ADD MSTORE PUSH2 0x4687 DUP2 PUSH2 0x3F25 JUMP JUMPDEST SWAP1 POP SWAP2 SWAP1 POP JUMP JUMPDEST PUSH1 0x0 PUSH1 0x20 DUP3 ADD SWAP1 POP DUP2 DUP2 SUB PUSH1 0x0 DUP4 ADD MSTORE PUSH2 0x46A7 DUP2 PUSH2 0x3F48 JUMP JUMPDEST SWAP1 POP SWAP2 SWAP1 POP JUMP JUMPDEST PUSH1 0x0 PUSH1 0x20 DUP3 ADD SWAP1 POP DUP2 DUP2 SUB PUSH1 0x0 DUP4 ADD MSTORE PUSH2 0x46C7 DUP2 PUSH2 0x3F6B JUMP JUMPDEST SWAP1 POP SWAP2 SWAP1 POP JUMP JUMPDEST PUSH1 0x0 PUSH1 0x20 DUP3 ADD SWAP1 POP DUP2 DUP2 SUB PUSH1 0x0 DUP4 ADD MSTORE PUSH2 0x46E7 DUP2 PUSH2 0x3F8E JUMP JUMPDEST SWAP1 POP SWAP2 SWAP1 POP JUMP JUMPDEST PUSH1 0x0 PUSH1 0x20 DUP3 ADD SWAP1 POP DUP2 DUP2 SUB PUSH1 0x0 DUP4 ADD MSTORE PUSH2 0x4707 DUP2 PUSH2 0x3FB1 JUMP JUMPDEST SWAP1 POP SWAP2 SWAP1 POP JUMP JUMPDEST PUSH1 0x0 PUSH1 0x20 DUP3 ADD SWAP1 POP DUP2 DUP2 SUB PUSH1 0x0 DUP4 ADD MSTORE PUSH2 0x4727 DUP2 PUSH2 0x3FD4 JUMP JUMPDEST SWAP1 POP SWAP2 SWAP1 POP JUMP JUMPDEST PUSH1 0x0 PUSH1 0x20 DUP3 ADD SWAP1 POP DUP2 DUP2 SUB PUSH1 0x0 DUP4 ADD MSTORE PUSH2 0x4747 DUP2 PUSH2 0x3FF7 JUMP JUMPDEST SWAP1 POP SWAP2 SWAP1 POP JUMP JUMPDEST PUSH1 0x0 PUSH1 0x20 DUP3 ADD SWAP1 POP DUP2 DUP2 SUB PUSH1 0x0 DUP4 ADD MSTORE PUSH2 0x4767 DUP2 PUSH2 0x401A JUMP JUMPDEST SWAP1 POP SWAP2 SWAP1 POP JUMP JUMPDEST PUSH1 0x0 PUSH1 0x20 DUP3 ADD SWAP1 POP DUP2 DUP2 SUB PUSH1 0x0 DUP4 ADD MSTORE PUSH2 0x4787 DUP2 PUSH2 0x403D JUMP JUMPDEST SWAP1 POP SWAP2 SWAP1 POP JUMP JUMPDEST PUSH1 0x0 PUSH1 0x20 DUP3 ADD SWAP1 POP DUP2 DUP2 SUB PUSH1 0x0 DUP4 ADD MSTORE PUSH2 0x47A7 DUP2 PUSH2 0x4060 JUMP JUMPDEST SWAP1 POP SWAP2 SWAP1 POP JUMP JUMPDEST PUSH1 0x0 PUSH1 0x20 DUP3 ADD SWAP1 POP DUP2 DUP2 SUB PUSH1 0x0 DUP4 ADD MSTORE PUSH2 0x47C7 DUP2 PUSH2 0x4083 JUMP JUMPDEST SWAP1 POP SWAP2 SWAP1 POP JUMP JUMPDEST PUSH1 0x0 PUSH1 0x20 DUP3 ADD SWAP1 POP DUP2 DUP2 SUB PUSH1 0x0 DUP4 ADD MSTORE PUSH2 0x47E7 DUP2 PUSH2 0x40C9 JUMP JUMPDEST SWAP1 POP SWAP2 SWAP1 POP JUMP JUMPDEST PUSH1 0x0 PUSH1 0x20 DUP3 ADD SWAP1 POP DUP2 DUP2 SUB PUSH1 0x0 DUP4 ADD MSTORE PUSH2 0x4807 DUP2 PUSH2 0x40EC JUMP JUMPDEST SWAP1 POP SWAP2 SWAP1 POP JUMP JUMPDEST PUSH1 0x0 PUSH1 0x20 DUP3 ADD SWAP1 POP DUP2 DUP2 SUB PUSH1 0x0 DUP4 ADD MSTORE PUSH2 0x4827 DUP2 PUSH2 0x410F JUMP JUMPDEST SWAP1 POP SWAP2 SWAP1 POP JUMP JUMPDEST PUSH1 0x0 PUSH1 0x20 DUP3 ADD SWAP1 POP DUP2 DUP2 SUB PUSH1 0x0 DUP4 ADD MSTORE PUSH2 0x4847 DUP2 PUSH2 0x4132 JUMP JUMPDEST SWAP1 POP SWAP2 SWAP1 POP JUMP JUMPDEST PUSH1 0x0 PUSH1 0x20 DUP3 ADD SWAP1 POP DUP2 DUP2 SUB PUSH1 0x0 DUP4 ADD MSTORE PUSH2 0x4867 DUP2 PUSH2 0x4155 JUMP JUMPDEST SWAP1 POP SWAP2 SWAP1 POP JUMP JUMPDEST PUSH1 0x0 PUSH1 0x20 DUP3 ADD SWAP1 POP PUSH2 0x4883 PUSH1 0x0 DUP4 ADD DUP5 PUSH2 0x41FE JUMP JUMPDEST SWAP3 SWAP2 POP POP JUMP JUMPDEST PUSH1 0x0 PUSH1 0x20 DUP3 ADD SWAP1 POP PUSH2 0x489E PUSH1 0x0 DUP4 ADD DUP5 PUSH2 0x4224 JUMP JUMPDEST SWAP3 SWAP2 POP POP JUMP JUMPDEST PUSH1 0x0 PUSH1 0x20 DUP3 ADD SWAP1 POP PUSH2 0x48B9 PUSH1 0x0 DUP4 ADD DUP5 PUSH2 0x4242 JUMP JUMPDEST SWAP3 SWAP2 POP POP JUMP JUMPDEST PUSH1 0x0 PUSH1 0x40 DUP3 ADD SWAP1 POP PUSH2 0x48D4 PUSH1 0x0 DUP4 ADD DUP6 PUSH2 0x4242 JUMP JUMPDEST PUSH2 0x48E1 PUSH1 0x20 DUP4 ADD DUP5 PUSH2 0x41E0 JUMP JUMPDEST SWAP4 SWAP3 POP POP POP JUMP JUMPDEST PUSH1 0x0 PUSH2 0x48F2 PUSH2 0x4903 JUMP JUMPDEST SWAP1 POP PUSH2 0x48FE DUP3 DUP3 PUSH2 0x4B09 JUMP JUMPDEST SWAP2 SWAP1 POP JUMP JUMPDEST PUSH1 0x0 PUSH1 0x40 MLOAD SWAP1 POP SWAP1 JUMP JUMPDEST PUSH1 0x0 DUP3 DUP3 MSTORE PUSH1 0x20 DUP3 ADD SWAP1 POP SWAP3 SWAP2 POP POP JUMP JUMPDEST PUSH1 0x0 PUSH2 0x4929 DUP3 PUSH2 0x4AD0 JUMP JUMPDEST SWAP2 POP PUSH2 0x4934 DUP4 PUSH2 0x4AD0 JUMP JUMPDEST SWAP3 POP DUP3 PUSH32 0xFFFFFFFFFFFFFFFFFFFFFFFFFFFFFFFFFFFFFFFFFFFFFFFFFFFFFFFFFFFFFFFF SUB DUP3 GT ISZERO PUSH2 0x4969 JUMPI PUSH2 0x4968 PUSH2 0x4B68 JUMP JUMPDEST JUMPDEST DUP3 DUP3 ADD SWAP1 POP SWAP3 SWAP2 POP POP JUMP JUMPDEST PUSH1 0x0 PUSH2 0x497F DUP3 PUSH2 0x4AD0 JUMP JUMPDEST SWAP2 POP PUSH2 0x498A DUP4 PUSH2 0x4AD0 JUMP JUMPDEST SWAP3 POP DUP3 PUSH2 0x499A JUMPI PUSH2 0x4999 PUSH2 0x4B97 JUMP JUMPDEST JUMPDEST DUP3 DUP3 DIV SWAP1 POP SWAP3 SWAP2 POP POP JUMP JUMPDEST PUSH1 0x0 PUSH2 0x49B0 DUP3 PUSH2 0x4AD0 JUMP JUMPDEST SWAP2 POP PUSH2 0x49BB DUP4 PUSH2 0x4AD0 JUMP JUMPDEST SWAP3 POP DUP2 PUSH32 0xFFFFFFFFFFFFFFFFFFFFFFFFFFFFFFFFFFFFFFFFFFFFFFFFFFFFFFFFFFFFFFFF DIV DUP4 GT DUP3 ISZERO ISZERO AND ISZERO PUSH2 0x49F4 JUMPI PUSH2 0x49F3 PUSH2 0x4B68 JUMP JUMPDEST JUMPDEST DUP3 DUP3 MUL SWAP1 POP SWAP3 SWAP2 POP POP JUMP JUMPDEST PUSH1 0x0 PUSH2 0x4A0A DUP3 PUSH2 0x4AD0 JUMP JUMPDEST SWAP2 POP PUSH2 0x4A15 DUP4 PUSH2 0x4AD0 JUMP JUMPDEST SWAP3 POP DUP3 DUP3 LT ISZERO PUSH2 0x4A28 JUMPI PUSH2 0x4A27 PUSH2 0x4B68 JUMP JUMPDEST JUMPDEST DUP3 DUP3 SUB SWAP1 POP SWAP3 SWAP2 POP POP JUMP JUMPDEST PUSH1 0x0 PUSH2 0x4A3E DUP3 PUSH2 0x4AB0 JUMP JUMPDEST SWAP1 POP SWAP2 SWAP1 POP JUMP JUMPDEST PUSH1 0x0 DUP2 ISZERO ISZERO SWAP1 POP SWAP2 SWAP1 POP JUMP JUMPDEST PUSH1 0x0 DUP2 SWAP1 POP SWAP2 SWAP1 POP JUMP JUMPDEST PUSH1 0x0 PUSH32 0xFFFFFFFF00000000000000000000000000000000000000000000000000000000 DUP3 AND SWAP1 POP SWAP2 SWAP1 POP JUMP JUMPDEST PUSH1 0x0 PUSH15 0xFFFFFFFFFFFFFFFFFFFFFFFFFFFFFF DUP3 AND SWAP1 POP SWAP2 SWAP1 POP JUMP JUMPDEST PUSH1 0x0 PUSH2 0xFFFF DUP3 AND SWAP1 POP SWAP2 SWAP1 POP JUMP JUMPDEST PUSH1 0x0 PUSH20 0xFFFFFFFFFFFFFFFFFFFFFFFFFFFFFFFFFFFFFFFF DUP3 AND SWAP1 POP SWAP2 SWAP1 POP JUMP JUMPDEST PUSH1 0x0 DUP2 SWAP1 POP SWAP2 SWAP1 POP JUMP JUMPDEST PUSH1 0x0 PUSH4 0xFFFFFFFF DUP3 AND SWAP1 POP SWAP2 SWAP1 POP JUMP JUMPDEST PUSH1 0x0 PUSH1 0xFF DUP3 AND SWAP1 POP SWAP2 SWAP1 POP JUMP JUMPDEST PUSH1 0x0 PUSH2 0x4B02 DUP3 PUSH2 0x4ADA JUMP JUMPDEST SWAP1 POP SWAP2 SWAP1 POP JUMP JUMPDEST PUSH2 0x4B12 DUP3 PUSH2 0x4BF5 JUMP JUMPDEST DUP2 ADD DUP2 DUP2 LT PUSH8 0xFFFFFFFFFFFFFFFF DUP3 GT OR ISZERO PUSH2 0x4B31 JUMPI PUSH2 0x4B30 PUSH2 0x4BC6 JUMP JUMPDEST JUMPDEST DUP1 PUSH1 0x40 MSTORE POP POP POP JUMP JUMPDEST PUSH1 0x0 PUSH2 0x4B45 DUP3 PUSH2 0x4B4C JUMP JUMPDEST SWAP1 POP SWAP2 SWAP1 POP JUMP JUMPDEST PUSH1 0x0 PUSH2 0x4B57 DUP3 PUSH2 0x4C06 JUMP JUMPDEST SWAP1 POP SWAP2 SWAP1 POP JUMP JUMPDEST PUSH1 0x0 DUP2 SWAP1 POP SWAP2 SWAP1 POP JUMP JUMPDEST PUSH32 0x4E487B7100000000000000000000000000000000000000000000000000000000 PUSH1 0x0 MSTORE PUSH1 0x11 PUSH1 0x4 MSTORE PUSH1 0x24 PUSH1 0x0 REVERT JUMPDEST PUSH32 0x4E487B7100000000000000000000000000000000000000000000000000000000 PUSH1 0x0 MSTORE PUSH1 0x12 PUSH1 0x4 MSTORE PUSH1 0x24 PUSH1 0x0 REVERT JUMPDEST PUSH32 0x4E487B7100000000000000000000000000000000000000000000000000000000 PUSH1 0x0 MSTORE PUSH1 0x41 PUSH1 0x4 MSTORE PUSH1 0x24 PUSH1 0x0 REVERT JUMPDEST PUSH1 0x0 PUSH1 0x1F NOT PUSH1 0x1F DUP4 ADD AND SWAP1 POP SWAP2 SWAP1 POP JUMP JUMPDEST PUSH1 0x0 DUP2 PUSH1 0x60 SHL SWAP1 POP SWAP2 SWAP1 POP JUMP JUMPDEST PUSH32 0x456E756D657261626C655365743A20696E646578206F7574206F6620626F756E PUSH1 0x0 DUP3 ADD MSTORE PUSH32 0x6473000000000000000000000000000000000000000000000000000000000000 PUSH1 0x20 DUP3 ADD MSTORE POP JUMP JUMPDEST PUSH32 0x423A4D4F443A2D4941444D2063616C6C65722021434F4E54524143545F41444D PUSH1 0x0 DUP3 ADD MSTORE PUSH32 0x494E5F524F4C4500000000000000000000000000000000000000000000000000 PUSH1 0x20 DUP3 ADD MSTORE POP JUMP JUMPDEST PUSH32 0x416363657373436F6E74726F6C3A2073656E646572206D75737420626520616E PUSH1 0x0 DUP3 ADD MSTORE PUSH32 0x2061646D696E20746F206772616E740000000000000000000000000000000000 PUSH1 0x20 DUP3 ADD MSTORE POP JUMP JUMPDEST PUSH32 0x5061757361626C653A206E6F7420706175736564000000000000000000000000 PUSH1 0x0 DUP3 ADD MSTORE POP JUMP JUMPDEST PUSH32 0x4150500000000000000000000000000000000000000000000000000000000000 PUSH1 0x0 DUP3 ADD MSTORE POP JUMP JUMPDEST PUSH32 0x52434C5200000000000000000000000000000000000000000000000000000000 PUSH1 0x0 DUP3 ADD MSTORE POP JUMP JUMPDEST PUSH32 0x573A43523A2043616E6E6F742063726561746520617373657420696E20414320 PUSH1 0x0 DUP3 ADD MSTORE PUSH32 0x6D676D74207479706520317C7C32202D2063616C6C657220646F6573206E6F74 PUSH1 0x20 DUP3 ADD MSTORE PUSH32 0x20686F6C6420414320746F6B656E000000000000000000000000000000000000 PUSH1 0x40 DUP3 ADD MSTORE POP JUMP JUMPDEST PUSH32 0x416363657373436F6E74726F6C3A2073656E646572206D75737420626520616E PUSH1 0x0 DUP3 ADD MSTORE PUSH32 0x2061646D696E20746F207265766F6B6500000000000000000000000000000000 PUSH1 0x20 DUP3 ADD MSTORE POP JUMP JUMPDEST PUSH32 0x423A4D4F442D49503A43616C6C696E672061646472657373206973206E6F7420 PUSH1 0x0 DUP3 ADD MSTORE PUSH32 0x7061757365720000000000000000000000000000000000000000000000000000 PUSH1 0x20 DUP3 ADD MSTORE POP JUMP JUMPDEST PUSH32 0x433A44503A20726F6F74207061796D656E7420616472657373206973207A6572 PUSH1 0x0 DUP3 ADD MSTORE PUSH32 0x6F20616464726573730000000000000000000000000000000000000000000000 PUSH1 0x20 DUP3 ADD MSTORE POP JUMP JUMPDEST PUSH32 0x5061757361626C653A2070617573656400000000000000000000000000000000 PUSH1 0x0 DUP3 ADD MSTORE POP JUMP JUMPDEST PUSH32 0x573A43523A43616E6E6F7420637265617465206173736574202D2063616C6C65 PUSH1 0x0 DUP3 ADD MSTORE PUSH32 0x722061646472657373206E6F7420617574686F72697A65640000000000000000 PUSH1 0x20 DUP3 ADD MSTORE POP JUMP JUMPDEST PUSH32 0x423A54583A4D75737420686176652041535345545F545846525F524F4C450000 PUSH1 0x0 DUP3 ADD MSTORE POP JUMP JUMPDEST PUSH32 0x415F544B4E000000000000000000000000000000000000000000000000000000 PUSH1 0x0 DUP3 ADD MSTORE POP JUMP JUMPDEST PUSH32 0x573A55573A204173736574206E6F7420696E207472616E736665727261626C65 PUSH1 0x0 DUP3 ADD MSTORE PUSH32 0x2073746174757300000000000000000000000000000000000000000000000000 PUSH1 0x20 DUP3 ADD MSTORE POP JUMP JUMPDEST PUSH32 0x573A43523A43616C6C657220646F6573206E6F7420686F6C6420737566666963 PUSH1 0x0 DUP3 ADD MSTORE PUSH32 0x69656E746C792074727573746564204944000000000000000000000000000000 PUSH1 0x20 DUP3 ADD MSTORE POP JUMP JUMPDEST PUSH32 0x573A573A20417373657420636C61737320657874656E6465642064617461206D PUSH1 0x0 DUP3 ADD MSTORE PUSH32 0x75737420626520273027206F722045524337323120636F6E7472616374206164 PUSH1 0x20 DUP3 ADD MSTORE PUSH32 0x6472657373000000000000000000000000000000000000000000000000000000 PUSH1 0x40 DUP3 ADD MSTORE POP JUMP JUMPDEST PUSH32 0x423A5353433A2041646472657373203D20300000000000000000000000000000 PUSH1 0x0 DUP3 ADD MSTORE POP JUMP JUMPDEST PUSH32 0x41435F544B4E0000000000000000000000000000000000000000000000000000 PUSH1 0x0 DUP3 ADD MSTORE POP JUMP JUMPDEST PUSH32 0x573A43523A2043616E6E6F7420637265617465206173736574202D20636F6E74 PUSH1 0x0 DUP3 ADD MSTORE PUSH32 0x72616374206E6F7420617574686F72697A656420666F7220617373657420636C PUSH1 0x20 DUP3 ADD MSTORE PUSH32 0x61737320637573746F6479207479706500000000000000000000000000000000 PUSH1 0x40 DUP3 ADD MSTORE POP JUMP JUMPDEST PUSH32 0x573A4D4F442D4954483A2043616C6C657220646F6573206E6F7420686F6C6420 PUSH1 0x0 DUP3 ADD MSTORE PUSH32 0x73706563696669656420746F6B656E0000000000000000000000000000000000 PUSH1 0x20 DUP3 ADD MSTORE POP JUMP JUMPDEST PUSH32 0x573A43523A20436F6E747261637420646F6573206E6F7420737570706F727420 PUSH1 0x0 DUP3 ADD MSTORE PUSH32 0x6D616E6167656D656E74207479706573203E2034206F72204143206973206C6F PUSH1 0x20 DUP3 ADD MSTORE PUSH32 0x636B656400000000000000000000000000000000000000000000000000000000 PUSH1 0x40 DUP3 ADD MSTORE POP JUMP JUMPDEST PUSH32 0x433A4453433A696E76616C696420646973636F756E742076616C756520666F72 PUSH1 0x0 DUP3 ADD MSTORE PUSH32 0x2070726963652063616C63756C6174696F6E0000000000000000000000000000 PUSH1 0x20 DUP3 ADD MSTORE POP JUMP JUMPDEST PUSH32 0x573A573A20417373657420636C6173732E637573746F647954797065206D7573 PUSH1 0x0 DUP3 ADD MSTORE PUSH32 0x7420626520352028777261707065642F6465636F726174656420657263373231 PUSH1 0x20 DUP3 ADD MSTORE PUSH32 0x2900000000000000000000000000000000000000000000000000000000000000 PUSH1 0x40 DUP3 ADD MSTORE POP JUMP JUMPDEST PUSH32 0x4150505F4E430000000000000000000000000000000000000000000000000000 PUSH1 0x0 DUP3 ADD MSTORE POP JUMP JUMPDEST PUSH32 0x573A55573A20417373657420636C6173732E637573746F64795479706520213D PUSH1 0x0 DUP3 ADD MSTORE PUSH32 0x2035000000000000000000000000000000000000000000000000000000000000 PUSH1 0x20 DUP3 ADD MSTORE POP JUMP JUMPDEST PUSH32 0x49445F544B4E0000000000000000000000000000000000000000000000000000 PUSH1 0x0 DUP3 ADD MSTORE POP JUMP JUMPDEST PUSH32 0x573A43523A20417373657420746F6B656E20616C726561647920657869737473 PUSH1 0x0 DUP3 ADD MSTORE POP JUMP JUMPDEST PUSH32 0x573A55573A20417373657420636C61737320657874656E646564206461746120 PUSH1 0x0 DUP3 ADD MSTORE PUSH32 0x6D75737420626520273027206F722045524337323120636F6E74726163742061 PUSH1 0x20 DUP3 ADD MSTORE PUSH32 0x6464726573730000000000000000000000000000000000000000000000000000 PUSH1 0x40 DUP3 ADD MSTORE POP JUMP JUMPDEST PUSH32 0x4543525F4D475200000000000000000000000000000000000000000000000000 PUSH1 0x0 DUP3 ADD MSTORE POP JUMP JUMPDEST PUSH32 0x707275662E696F00000000000000000000000000000000000000000000000000 PUSH1 0x0 DUP3 ADD MSTORE POP JUMP JUMPDEST PUSH32 0x4E50000000000000000000000000000000000000000000000000000000000000 PUSH1 0x0 DUP3 ADD MSTORE POP JUMP JUMPDEST PUSH32 0x5265656E7472616E637947756172643A207265656E7472616E742063616C6C00 PUSH1 0x0 DUP3 ADD MSTORE POP JUMP JUMPDEST PUSH32 0x5554494C5F544B4E000000000000000000000000000000000000000000000000 PUSH1 0x0 DUP3 ADD MSTORE POP JUMP JUMPDEST PUSH32 0x41435F4D47520000000000000000000000000000000000000000000000000000 PUSH1 0x0 DUP3 ADD MSTORE POP JUMP JUMPDEST PUSH32 0x416363657373436F6E74726F6C3A2063616E206F6E6C792072656E6F756E6365 PUSH1 0x0 DUP3 ADD MSTORE PUSH32 0x20726F6C657320666F722073656C660000000000000000000000000000000000 PUSH1 0x20 DUP3 ADD MSTORE POP JUMP JUMPDEST PUSH2 0x5596 DUP2 PUSH2 0x4A33 JUMP JUMPDEST DUP2 EQ PUSH2 0x55A1 JUMPI PUSH1 0x0 DUP1 REVERT JUMPDEST POP JUMP JUMPDEST PUSH2 0x55AD DUP2 PUSH2 0x4A51 JUMP JUMPDEST DUP2 EQ PUSH2 0x55B8 JUMPI PUSH1 0x0 DUP1 REVERT JUMPDEST POP JUMP JUMPDEST PUSH2 0x55C4 DUP2 PUSH2 0x4A87 JUMP JUMPDEST DUP2 EQ PUSH2 0x55CF JUMPI PUSH1 0x0 DUP1 REVERT JUMPDEST POP JUMP JUMPDEST PUSH2 0x55DB DUP2 PUSH2 0x4AA2 JUMP JUMPDEST DUP2 EQ PUSH2 0x55E6 JUMPI PUSH1 0x0 DUP1 REVERT JUMPDEST POP JUMP JUMPDEST PUSH2 0x55F2 DUP2 PUSH2 0x4AD0 JUMP JUMPDEST DUP2 EQ PUSH2 0x55FD JUMPI PUSH1 0x0 DUP1 REVERT JUMPDEST POP JUMP JUMPDEST PUSH2 0x5609 DUP2 PUSH2 0x4ADA JUMP JUMPDEST DUP2 EQ PUSH2 0x5614 JUMPI PUSH1 0x0 DUP1 REVERT JUMPDEST POP JUMP JUMPDEST PUSH2 0x5620 DUP2 PUSH2 0x4AEA JUMP JUMPDEST DUP2 EQ PUSH2 0x562B JUMPI PUSH1 0x0 DUP1 REVERT JUMPDEST POP JUMP INVALID LOG2 PUSH5 0x6970667358 0x22 SLT KECCAK256 PUSH8 0x9557E0205B452F1B CREATE 0xD5 SWAP14 ORIGIN EQ 0xB1 PUSH31 0x95BC2A7D25F32C3B158D090FE7D011C764736F6C6343000801003300000000 "
		},
		"gasEstimates": {
			"creation": {
				"codeDepositCost": "4423200",
				"executionCost": "infinite",
				"totalCost": "infinite"
			},
			"external": {
				"ASSET_TXFR_ROLE()": "353",
				"CONTRACT_ADMIN_ROLE()": "397",
				"DEFAULT_ADMIN_ROLE()": "424",
				"OO_resolveContractAddresses()": "infinite",
				"OO_setStorageContract(address)": "infinite",
				"OO_transferACToken(address,uint256)": "infinite",
				"PAUSER_ROLE()": "439",
				"getRoleAdmin(bytes32)": "infinite",
				"getRoleMember(bytes32,uint256)": "infinite",
				"getRoleMemberCount(bytes32)": "1636",
				"grantRole(bytes32,address)": "infinite",
				"hasRole(bytes32,address)": "infinite",
				"onERC721Received(address,address,uint256,bytes)": "infinite",
				"pause()": "infinite",
				"paused()": "1268",
				"renounceRole(bytes32,address)": "infinite",
				"revokeRole(bytes32,address)": "infinite",
				"transferAssetToken(address,bytes32)": "infinite",
				"unWrap721(uint256)": "infinite",
				"unpause()": "infinite",
				"wrap721(uint256,address,bytes32,uint32,uint32)": "infinite"
			},
			"internal": {
				"createRecord(bytes32,bytes32,uint32,uint32)": "infinite",
				"foreignTransfer(address,address,address,uint256)": "infinite"
			}
		},
		"methodIdentifiers": {
			"ASSET_TXFR_ROLE()": "1429db5f",
			"CONTRACT_ADMIN_ROLE()": "1da03312",
			"DEFAULT_ADMIN_ROLE()": "a217fddf",
			"OO_resolveContractAddresses()": "e8b41653",
			"OO_setStorageContract(address)": "d6b02ecf",
			"OO_transferACToken(address,uint256)": "92ba3da6",
			"PAUSER_ROLE()": "e63ab1e9",
			"getRoleAdmin(bytes32)": "248a9ca3",
			"getRoleMember(bytes32,uint256)": "9010d07c",
			"getRoleMemberCount(bytes32)": "ca15c873",
			"grantRole(bytes32,address)": "2f2ff15d",
			"hasRole(bytes32,address)": "91d14854",
			"onERC721Received(address,address,uint256,bytes)": "150b7a02",
			"pause()": "8456cb59",
			"paused()": "5c975abb",
			"renounceRole(bytes32,address)": "36568abe",
			"revokeRole(bytes32,address)": "d547741f",
			"transferAssetToken(address,bytes32)": "440e7a7e",
			"unWrap721(uint256)": "af7cb17f",
			"unpause()": "3f4ba83a",
			"wrap721(uint256,address,bytes32,uint32,uint32)": "c0c070a1"
		}
	},
	"abi": [
		{
			"anonymous": false,
			"inputs": [
				{
					"indexed": false,
					"internalType": "address",
					"name": "account",
					"type": "address"
				}
			],
			"name": "Paused",
			"type": "event"
		},
		{
			"anonymous": false,
			"inputs": [
				{
					"indexed": false,
					"internalType": "string",
					"name": "_msg",
					"type": "string"
				}
			],
			"name": "REPORT",
			"type": "event"
		},
		{
			"anonymous": false,
			"inputs": [
				{
					"indexed": true,
					"internalType": "bytes32",
					"name": "role",
					"type": "bytes32"
				},
				{
					"indexed": true,
					"internalType": "bytes32",
					"name": "previousAdminRole",
					"type": "bytes32"
				},
				{
					"indexed": true,
					"internalType": "bytes32",
					"name": "newAdminRole",
					"type": "bytes32"
				}
			],
			"name": "RoleAdminChanged",
			"type": "event"
		},
		{
			"anonymous": false,
			"inputs": [
				{
					"indexed": true,
					"internalType": "bytes32",
					"name": "role",
					"type": "bytes32"
				},
				{
					"indexed": true,
					"internalType": "address",
					"name": "account",
					"type": "address"
				},
				{
					"indexed": true,
					"internalType": "address",
					"name": "sender",
					"type": "address"
				}
			],
			"name": "RoleGranted",
			"type": "event"
		},
		{
			"anonymous": false,
			"inputs": [
				{
					"indexed": true,
					"internalType": "bytes32",
					"name": "role",
					"type": "bytes32"
				},
				{
					"indexed": true,
					"internalType": "address",
					"name": "account",
					"type": "address"
				},
				{
					"indexed": true,
					"internalType": "address",
					"name": "sender",
					"type": "address"
				}
			],
			"name": "RoleRevoked",
			"type": "event"
		},
		{
			"anonymous": false,
			"inputs": [
				{
					"indexed": false,
					"internalType": "address",
					"name": "account",
					"type": "address"
				}
			],
			"name": "Unpaused",
			"type": "event"
		},
		{
			"inputs": [],
			"name": "ASSET_TXFR_ROLE",
			"outputs": [
				{
					"internalType": "bytes32",
					"name": "",
					"type": "bytes32"
				}
			],
			"stateMutability": "view",
			"type": "function"
		},
		{
			"inputs": [],
			"name": "CONTRACT_ADMIN_ROLE",
			"outputs": [
				{
					"internalType": "bytes32",
					"name": "",
					"type": "bytes32"
				}
			],
			"stateMutability": "view",
			"type": "function"
		},
		{
			"inputs": [],
			"name": "DEFAULT_ADMIN_ROLE",
			"outputs": [
				{
					"internalType": "bytes32",
					"name": "",
					"type": "bytes32"
				}
			],
			"stateMutability": "view",
			"type": "function"
		},
		{
			"inputs": [],
			"name": "OO_resolveContractAddresses",
			"outputs": [],
			"stateMutability": "nonpayable",
			"type": "function"
		},
		{
			"inputs": [
				{
					"internalType": "address",
					"name": "_storageAddress",
					"type": "address"
				}
			],
			"name": "OO_setStorageContract",
			"outputs": [],
			"stateMutability": "nonpayable",
			"type": "function"
		},
		{
			"inputs": [
				{
					"internalType": "address",
					"name": "_to",
					"type": "address"
				},
				{
					"internalType": "uint256",
					"name": "_tokenID",
					"type": "uint256"
				}
			],
			"name": "OO_transferACToken",
			"outputs": [],
			"stateMutability": "nonpayable",
			"type": "function"
		},
		{
			"inputs": [],
			"name": "PAUSER_ROLE",
			"outputs": [
				{
					"internalType": "bytes32",
					"name": "",
					"type": "bytes32"
				}
			],
			"stateMutability": "view",
			"type": "function"
		},
		{
			"inputs": [
				{
					"internalType": "bytes32",
					"name": "role",
					"type": "bytes32"
				}
			],
			"name": "getRoleAdmin",
			"outputs": [
				{
					"internalType": "bytes32",
					"name": "",
					"type": "bytes32"
				}
			],
			"stateMutability": "view",
			"type": "function"
		},
		{
			"inputs": [
				{
					"internalType": "bytes32",
					"name": "role",
					"type": "bytes32"
				},
				{
					"internalType": "uint256",
					"name": "index",
					"type": "uint256"
				}
			],
			"name": "getRoleMember",
			"outputs": [
				{
					"internalType": "address",
					"name": "",
					"type": "address"
				}
			],
			"stateMutability": "view",
			"type": "function"
		},
		{
			"inputs": [
				{
					"internalType": "bytes32",
					"name": "role",
					"type": "bytes32"
				}
			],
			"name": "getRoleMemberCount",
			"outputs": [
				{
					"internalType": "uint256",
					"name": "",
					"type": "uint256"
				}
			],
			"stateMutability": "view",
			"type": "function"
		},
		{
			"inputs": [
				{
					"internalType": "bytes32",
					"name": "role",
					"type": "bytes32"
				},
				{
					"internalType": "address",
					"name": "account",
					"type": "address"
				}
			],
			"name": "grantRole",
			"outputs": [],
			"stateMutability": "nonpayable",
			"type": "function"
		},
		{
			"inputs": [
				{
					"internalType": "bytes32",
					"name": "role",
					"type": "bytes32"
				},
				{
					"internalType": "address",
					"name": "account",
					"type": "address"
				}
			],
			"name": "hasRole",
			"outputs": [
				{
					"internalType": "bool",
					"name": "",
					"type": "bool"
				}
			],
			"stateMutability": "view",
			"type": "function"
		},
		{
			"inputs": [
				{
					"internalType": "address",
					"name": "",
					"type": "address"
				},
				{
					"internalType": "address",
					"name": "",
					"type": "address"
				},
				{
					"internalType": "uint256",
					"name": "",
					"type": "uint256"
				},
				{
					"internalType": "bytes",
					"name": "",
					"type": "bytes"
				}
			],
			"name": "onERC721Received",
			"outputs": [
				{
					"internalType": "bytes4",
					"name": "",
					"type": "bytes4"
				}
			],
			"stateMutability": "nonpayable",
			"type": "function"
		},
		{
			"inputs": [],
			"name": "pause",
			"outputs": [],
			"stateMutability": "nonpayable",
			"type": "function"
		},
		{
			"inputs": [],
			"name": "paused",
			"outputs": [
				{
					"internalType": "bool",
					"name": "",
					"type": "bool"
				}
			],
			"stateMutability": "view",
			"type": "function"
		},
		{
			"inputs": [
				{
					"internalType": "bytes32",
					"name": "role",
					"type": "bytes32"
				},
				{
					"internalType": "address",
					"name": "account",
					"type": "address"
				}
			],
			"name": "renounceRole",
			"outputs": [],
			"stateMutability": "nonpayable",
			"type": "function"
		},
		{
			"inputs": [
				{
					"internalType": "bytes32",
					"name": "role",
					"type": "bytes32"
				},
				{
					"internalType": "address",
					"name": "account",
					"type": "address"
				}
			],
			"name": "revokeRole",
			"outputs": [],
			"stateMutability": "nonpayable",
			"type": "function"
		},
		{
			"inputs": [
				{
					"internalType": "address",
					"name": "_to",
					"type": "address"
				},
				{
					"internalType": "bytes32",
					"name": "_idxHash",
					"type": "bytes32"
				}
			],
			"name": "transferAssetToken",
			"outputs": [],
			"stateMutability": "nonpayable",
			"type": "function"
		},
		{
			"inputs": [
				{
					"internalType": "uint256",
					"name": "_tokenID",
					"type": "uint256"
				}
			],
			"name": "unWrap721",
			"outputs": [],
			"stateMutability": "nonpayable",
			"type": "function"
		},
		{
			"inputs": [],
			"name": "unpause",
			"outputs": [],
			"stateMutability": "nonpayable",
			"type": "function"
		},
		{
			"inputs": [
				{
					"internalType": "uint256",
					"name": "_foreignTokenID",
					"type": "uint256"
				},
				{
					"internalType": "address",
					"name": "_foreignTokenContract",
					"type": "address"
				},
				{
					"internalType": "bytes32",
					"name": "_rgtHash",
					"type": "bytes32"
				},
				{
					"internalType": "uint32",
					"name": "_assetClass",
					"type": "uint32"
				},
				{
					"internalType": "uint32",
					"name": "_countDownStart",
					"type": "uint32"
				}
			],
			"name": "wrap721",
			"outputs": [],
			"stateMutability": "nonpayable",
			"type": "function"
		}
	]
}