{
  "contractName": "ERC1155Mock",
  "abi": [
    {
      "inputs": [
        {
          "internalType": "string",
          "name": "uri",
          "type": "string"
        }
      ],
      "stateMutability": "nonpayable",
      "type": "constructor"
    },
    {
      "anonymous": false,
      "inputs": [
        {
          "indexed": true,
          "internalType": "address",
          "name": "account",
          "type": "address"
        },
        {
          "indexed": true,
          "internalType": "address",
          "name": "operator",
          "type": "address"
        },
        {
          "indexed": false,
          "internalType": "bool",
          "name": "approved",
          "type": "bool"
        }
      ],
      "name": "ApprovalForAll",
      "type": "event"
    },
    {
      "anonymous": false,
      "inputs": [
        {
          "indexed": true,
          "internalType": "address",
          "name": "operator",
          "type": "address"
        },
        {
          "indexed": true,
          "internalType": "address",
          "name": "from",
          "type": "address"
        },
        {
          "indexed": true,
          "internalType": "address",
          "name": "to",
          "type": "address"
        },
        {
          "indexed": false,
          "internalType": "uint256[]",
          "name": "ids",
          "type": "uint256[]"
        },
        {
          "indexed": false,
          "internalType": "uint256[]",
          "name": "values",
          "type": "uint256[]"
        }
      ],
      "name": "TransferBatch",
      "type": "event"
    },
    {
      "anonymous": false,
      "inputs": [
        {
          "indexed": true,
          "internalType": "address",
          "name": "operator",
          "type": "address"
        },
        {
          "indexed": true,
          "internalType": "address",
          "name": "from",
          "type": "address"
        },
        {
          "indexed": true,
          "internalType": "address",
          "name": "to",
          "type": "address"
        },
        {
          "indexed": false,
          "internalType": "uint256",
          "name": "id",
          "type": "uint256"
        },
        {
          "indexed": false,
          "internalType": "uint256",
          "name": "value",
          "type": "uint256"
        }
      ],
      "name": "TransferSingle",
      "type": "event"
    },
    {
      "anonymous": false,
      "inputs": [
        {
          "indexed": false,
          "internalType": "string",
          "name": "value",
          "type": "string"
        },
        {
          "indexed": true,
          "internalType": "uint256",
          "name": "id",
          "type": "uint256"
        }
      ],
      "name": "URI",
      "type": "event"
    },
    {
      "inputs": [
        {
          "internalType": "address",
          "name": "account",
          "type": "address"
        },
        {
          "internalType": "uint256",
          "name": "id",
          "type": "uint256"
        }
      ],
      "name": "balanceOf",
      "outputs": [
        {
          "internalType": "uint256",
          "name": "",
          "type": "uint256"
        }
      ],
      "stateMutability": "view",
      "type": "function"
    },
    {
      "inputs": [
        {
          "internalType": "address[]",
          "name": "accounts",
          "type": "address[]"
        },
        {
          "internalType": "uint256[]",
          "name": "ids",
          "type": "uint256[]"
        }
      ],
      "name": "balanceOfBatch",
      "outputs": [
        {
          "internalType": "uint256[]",
          "name": "",
          "type": "uint256[]"
        }
      ],
      "stateMutability": "view",
      "type": "function"
    },
    {
      "inputs": [
        {
          "internalType": "address",
          "name": "account",
          "type": "address"
        },
        {
          "internalType": "address",
          "name": "operator",
          "type": "address"
        }
      ],
      "name": "isApprovedForAll",
      "outputs": [
        {
          "internalType": "bool",
          "name": "",
          "type": "bool"
        }
      ],
      "stateMutability": "view",
      "type": "function"
    },
    {
      "inputs": [
        {
          "internalType": "address",
          "name": "from",
          "type": "address"
        },
        {
          "internalType": "address",
          "name": "to",
          "type": "address"
        },
        {
          "internalType": "uint256[]",
          "name": "ids",
          "type": "uint256[]"
        },
        {
          "internalType": "uint256[]",
          "name": "amounts",
          "type": "uint256[]"
        },
        {
          "internalType": "bytes",
          "name": "data",
          "type": "bytes"
        }
      ],
      "name": "safeBatchTransferFrom",
      "outputs": [],
      "stateMutability": "nonpayable",
      "type": "function"
    },
    {
      "inputs": [
        {
          "internalType": "address",
          "name": "from",
          "type": "address"
        },
        {
          "internalType": "address",
          "name": "to",
          "type": "address"
        },
        {
          "internalType": "uint256",
          "name": "id",
          "type": "uint256"
        },
        {
          "internalType": "uint256",
          "name": "amount",
          "type": "uint256"
        },
        {
          "internalType": "bytes",
          "name": "data",
          "type": "bytes"
        }
      ],
      "name": "safeTransferFrom",
      "outputs": [],
      "stateMutability": "nonpayable",
      "type": "function"
    },
    {
      "inputs": [
        {
          "internalType": "address",
          "name": "operator",
          "type": "address"
        },
        {
          "internalType": "bool",
          "name": "approved",
          "type": "bool"
        }
      ],
      "name": "setApprovalForAll",
      "outputs": [],
      "stateMutability": "nonpayable",
      "type": "function"
    },
    {
      "inputs": [
        {
          "internalType": "bytes4",
          "name": "interfaceId",
          "type": "bytes4"
        }
      ],
      "name": "supportsInterface",
      "outputs": [
        {
          "internalType": "bool",
          "name": "",
          "type": "bool"
        }
      ],
      "stateMutability": "view",
      "type": "function"
    },
    {
      "inputs": [
        {
          "internalType": "uint256",
          "name": "",
          "type": "uint256"
        }
      ],
      "name": "uri",
      "outputs": [
        {
          "internalType": "string",
          "name": "",
          "type": "string"
        }
      ],
      "stateMutability": "view",
      "type": "function"
    },
    {
      "inputs": [
        {
          "internalType": "string",
          "name": "newuri",
          "type": "string"
        }
      ],
      "name": "setURI",
      "outputs": [],
      "stateMutability": "nonpayable",
      "type": "function"
    },
    {
      "inputs": [
        {
          "internalType": "address",
          "name": "to",
          "type": "address"
        },
        {
          "internalType": "uint256",
          "name": "id",
          "type": "uint256"
        },
        {
          "internalType": "uint256",
          "name": "value",
          "type": "uint256"
        },
        {
          "internalType": "bytes",
          "name": "data",
          "type": "bytes"
        }
      ],
      "name": "mint",
      "outputs": [],
      "stateMutability": "nonpayable",
      "type": "function"
    },
    {
      "inputs": [
        {
          "internalType": "address",
          "name": "to",
          "type": "address"
        },
        {
          "internalType": "uint256[]",
          "name": "ids",
          "type": "uint256[]"
        },
        {
          "internalType": "uint256[]",
          "name": "values",
          "type": "uint256[]"
        },
        {
          "internalType": "bytes",
          "name": "data",
          "type": "bytes"
        }
      ],
      "name": "mintBatch",
      "outputs": [],
      "stateMutability": "nonpayable",
      "type": "function"
    },
    {
      "inputs": [
        {
          "internalType": "address",
          "name": "owner",
          "type": "address"
        },
        {
          "internalType": "uint256",
          "name": "id",
          "type": "uint256"
        },
        {
          "internalType": "uint256",
          "name": "value",
          "type": "uint256"
        }
      ],
      "name": "burn",
      "outputs": [],
      "stateMutability": "nonpayable",
      "type": "function"
    },
    {
      "inputs": [
        {
          "internalType": "address",
          "name": "owner",
          "type": "address"
        },
        {
          "internalType": "uint256[]",
          "name": "ids",
          "type": "uint256[]"
        },
        {
          "internalType": "uint256[]",
          "name": "values",
          "type": "uint256[]"
        }
      ],
      "name": "burnBatch",
      "outputs": [],
      "stateMutability": "nonpayable",
      "type": "function"
    }
  ],
  "bytecode": "0x60806040523480156200001157600080fd5b506040516200260938038062002609833981810160405260208110156200003757600080fd5b81019080805160405193929190846401000000008211156200005857600080fd5b9083019060208201858111156200006e57600080fd5b82516401000000008111828201881017156200008957600080fd5b82525081516020918201929091019080838360005b83811015620000b85781810151838201526020016200009e565b50505050905090810190601f168015620000e65780820380516001836020036101000a031916815260200191505b50604052508291506200010290506301ffc9a760e01b62000139565b6200010d81620001be565b6200011f636cdb3d1360e11b62000139565b620001316303a24d0760e21b62000139565b505062000273565b6001600160e01b0319808216141562000199576040805162461bcd60e51b815260206004820152601c60248201527f4552433136353a20696e76616c696420696e7465726661636520696400000000604482015290519081900360640190fd5b6001600160e01b0319166000908152602081905260409020805460ff19166001179055565b8051620001d3906003906020840190620001d7565b5050565b828054600181600116156101000203166002900490600052602060002090601f016020900481019282601f106200021a57805160ff19168380011785556200024a565b828001600101855582156200024a579182015b828111156200024a5782518255916020019190600101906200022d565b50620002589291506200025c565b5090565b5b808211156200025857600081556001016200025d565b61238680620002836000396000f3fe608060405234801561001057600080fd5b50600436106100ce5760003560e01c80634e1273f41161008c578063a22cb46511610066578063a22cb46514610963578063e985e9c514610991578063f242432a146109bf578063f5298aca14610a88576100ce565b80634e1273f4146105fd5780636b20c45414610770578063731133e9146108a3576100ce565b8062fdd58e146100d357806301ffc9a71461011157806302fe53051461014c5780630e89341c146101f25780631f7fdffa146102845780632eb2c2d61461043c575b600080fd5b6100ff600480360360408110156100e957600080fd5b506001600160a01b038135169060200135610aba565b60408051918252519081900360200190f35b6101386004803603602081101561012757600080fd5b50356001600160e01b031916610b29565b604080519115158252519081900360200190f35b6101f06004803603602081101561016257600080fd5b810190602081018135600160201b81111561017c57600080fd5b82018360208201111561018e57600080fd5b803590602001918460018302840111600160201b831117156101af57600080fd5b91908080601f016020809104026020016040519081016040528093929190818152602001838380828437600092019190915250929550610b48945050505050565b005b61020f6004803603602081101561020857600080fd5b5035610b54565b6040805160208082528351818301528351919283929083019185019080838360005b83811015610249578181015183820152602001610231565b50505050905090810190601f1680156102765780820380516001836020036101000a031916815260200191505b509250505060405180910390f35b6101f06004803603608081101561029a57600080fd5b6001600160a01b038235169190810190604081016020820135600160201b8111156102c457600080fd5b8201836020820111156102d657600080fd5b803590602001918460208302840111600160201b831117156102f757600080fd5b9190808060200260200160405190810160405280939291908181526020018383602002808284376000920191909152509295949360208101935035915050600160201b81111561034657600080fd5b82018360208201111561035857600080fd5b803590602001918460208302840111600160201b8311171561037957600080fd5b9190808060200260200160405190810160405280939291908181526020018383602002808284376000920191909152509295949360208101935035915050600160201b8111156103c857600080fd5b8201836020820111156103da57600080fd5b803590602001918460018302840111600160201b831117156103fb57600080fd5b91908080601f016020809104026020016040519081016040528093929190818152602001838380828437600092019190915250929550610bec945050505050565b6101f0600480360360a081101561045257600080fd5b6001600160a01b038235811692602081013590911691810190606081016040820135600160201b81111561048557600080fd5b82018360208201111561049757600080fd5b803590602001918460208302840111600160201b831117156104b857600080fd5b9190808060200260200160405190810160405280939291908181526020018383602002808284376000920191909152509295949360208101935035915050600160201b81111561050757600080fd5b82018360208201111561051957600080fd5b803590602001918460208302840111600160201b8311171561053a57600080fd5b9190808060200260200160405190810160405280939291908181526020018383602002808284376000920191909152509295949360208101935035915050600160201b81111561058957600080fd5b82018360208201111561059b57600080fd5b803590602001918460018302840111600160201b831117156105bc57600080fd5b91908080601f016020809104026020016040519081016040528093929190818152602001838380828437600092019190915250929550610bfe945050505050565b6107206004803603604081101561061357600080fd5b810190602081018135600160201b81111561062d57600080fd5b82018360208201111561063f57600080fd5b803590602001918460208302840111600160201b8311171561066057600080fd5b9190808060200260200160405190810160405280939291908181526020018383602002808284376000920191909152509295949360208101935035915050600160201b8111156106af57600080fd5b8201836020820111156106c157600080fd5b803590602001918460208302840111600160201b831117156106e257600080fd5b919080806020026020016040519081016040528093929190818152602001838360200280828437600092019190915250929550610efc945050505050565b60408051602080825283518183015283519192839290830191858101910280838360005b8381101561075c578181015183820152602001610744565b505050509050019250505060405180910390f35b6101f06004803603606081101561078657600080fd5b6001600160a01b038235169190810190604081016020820135600160201b8111156107b057600080fd5b8201836020820111156107c257600080fd5b803590602001918460208302840111600160201b831117156107e357600080fd5b9190808060200260200160405190810160405280939291908181526020018383602002808284376000920191909152509295949360208101935035915050600160201b81111561083257600080fd5b82018360208201111561084457600080fd5b803590602001918460208302840111600160201b8311171561086557600080fd5b91908080602002602001604051908101604052809392919081815260200183836020028082843760009201919091525092955061107a945050505050565b6101f0600480360360808110156108b957600080fd5b6001600160a01b038235169160208101359160408201359190810190608081016060820135600160201b8111156108ef57600080fd5b82018360208201111561090157600080fd5b803590602001918460018302840111600160201b8311171561092257600080fd5b91908080601f01602080910402602001604051908101604052809392919081815260200183838082843760009201919091525092955061108a945050505050565b6101f06004803603604081101561097957600080fd5b506001600160a01b0381351690602001351515611096565b610138600480360360408110156109a757600080fd5b506001600160a01b0381358116916020013516611185565b6101f0600480360360a08110156109d557600080fd5b6001600160a01b03823581169260208101359091169160408201359160608101359181019060a081016080820135600160201b811115610a1457600080fd5b820183602082011115610a2657600080fd5b803590602001918460018302840111600160201b83111715610a4757600080fd5b91908080601f0160208091040260200160405190810160405280939291908181526020018383808284376000920191909152509295506111b3945050505050565b6101f060048036036060811015610a9e57600080fd5b506001600160a01b03813516906020810135906040013561137e565b60006001600160a01b038316610b015760405162461bcd60e51b815260040180806020018281038252602b815260200180612169602b913960400191505060405180910390fd5b5060009081526001602090815260408083206001600160a01b03949094168352929052205490565b6001600160e01b03191660009081526020819052604090205460ff1690565b610b5181611389565b50565b60038054604080516020601f6002600019610100600188161502019095169490940493840181900481028201810190925282815260609390929091830182828015610be05780601f10610bb557610100808354040283529160200191610be0565b820191906000526020600020905b815481529060010190602001808311610bc357829003601f168201915b50505050509050919050565b610bf8848484846113a0565b50505050565b8151835114610c3e5760405162461bcd60e51b81526004018080602001828103825260288152602001806123086028913960400191505060405180910390fd5b6001600160a01b038416610c835760405162461bcd60e51b81526004018080602001828103825260258152602001806122126025913960400191505060405180910390fd5b610c8b6115f5565b6001600160a01b0316856001600160a01b03161480610cb65750610cb685610cb16115f5565b611185565b610cf15760405162461bcd60e51b81526004018080602001828103825260328152602001806122376032913960400191505060405180910390fd5b6000610cfb6115f5565b9050610d0b818787878787610ef4565b60005b8451811015610e0c576000858281518110610d2557fe5b602002602001015190506000858381518110610d3d57fe5b60200260200101519050610daa816040518060600160405280602a815260200161228c602a91396001600086815260200190815260200160002060008d6001600160a01b03166001600160a01b03168152602001908152602001600020546115fa9092919063ffffffff16565b60008381526001602090815260408083206001600160a01b038e811685529252808320939093558a1681522054610de19082611691565b60009283526001602081815260408086206001600160a01b038d168752909152909320555001610d0e565b50846001600160a01b0316866001600160a01b0316826001600160a01b03167f4a39dc06d4c0dbc64b70af90fd698a233a518aa5d07e595d983b8c0526c8f7fb8787604051808060200180602001838103835285818151815260200191508051906020019060200280838360005b83811015610e92578181015183820152602001610e7a565b50505050905001838103825284818151815260200191508051906020019060200280838360005b83811015610ed1578181015183820152602001610eb9565b5050505090500194505050505060405180910390a4610ef48187878787876116f2565b505050505050565b60608151835114610f3e5760405162461bcd60e51b81526004018080602001828103825260298152602001806122df6029913960400191505060405180910390fd5b6060835167ffffffffffffffff81118015610f5857600080fd5b50604051908082528060200260200182016040528015610f82578160200160208202803683370190505b50905060005b84518110156110725760006001600160a01b0316858281518110610fa857fe5b60200260200101516001600160a01b03161415610ff65760405162461bcd60e51b81526004018080602001828103825260318152602001806121946031913960400191505060405180910390fd5b6001600085838151811061100657fe5b60200260200101518152602001908152602001600020600086838151811061102a57fe5b60200260200101516001600160a01b03166001600160a01b031681526020019081526020016000205482828151811061105f57fe5b6020908102919091010152600101610f88565b509392505050565b611085838383611971565b505050565b610bf884848484611bdf565b816001600160a01b03166110a86115f5565b6001600160a01b031614156110ee5760405162461bcd60e51b81526004018080602001828103825260298152602001806122b66029913960400191505060405180910390fd5b80600260006110fb6115f5565b6001600160a01b03908116825260208083019390935260409182016000908120918716808252919093529120805460ff19169215159290921790915561113f6115f5565b6001600160a01b03167f17307eab39ab6107e8899845ad3d59bd9653f200f220920489ca2b5937696c318360405180821515815260200191505060405180910390a35050565b6001600160a01b03918216600090815260026020908152604080832093909416825291909152205460ff1690565b6001600160a01b0384166111f85760405162461bcd60e51b81526004018080602001828103825260258152602001806122126025913960400191505060405180910390fd5b6112006115f5565b6001600160a01b0316856001600160a01b03161480611226575061122685610cb16115f5565b6112615760405162461bcd60e51b81526004018080602001828103825260298152602001806121e96029913960400191505060405180910390fd5b600061126b6115f5565b905061128b81878761127c88611ce0565b61128588611ce0565b87610ef4565b6112d2836040518060600160405280602a815260200161228c602a913960008781526001602090815260408083206001600160a01b038d16845290915290205491906115fa565b60008581526001602090815260408083206001600160a01b038b811685529252808320939093558716815220546113099084611691565b60008581526001602090815260408083206001600160a01b03808b168086529184529382902094909455805188815291820187905280518a8416938616927fc3d58168c5ae7397731d063d5bbf3d657854427343f4c083240f7aacaa2d0f6292908290030190a4610ef4818787878787611d24565b611085838383611e95565b805161139c906003906020840190611fce565b5050565b6001600160a01b0384166113e55760405162461bcd60e51b81526004018080602001828103825260218152602001806123306021913960400191505060405180910390fd5b81518351146114255760405162461bcd60e51b81526004018080602001828103825260288152602001806123086028913960400191505060405180910390fd5b600061142f6115f5565b905061144081600087878787610ef4565b60005b8451811015611504576114bb6001600087848151811061145f57fe5b602002602001015181526020019081526020016000206000886001600160a01b03166001600160a01b03168152602001908152602001600020548583815181106114a557fe5b602002602001015161169190919063ffffffff16565b600160008784815181106114cb57fe5b602090810291909101810151825281810192909252604090810160009081206001600160a01b038b168252909252902055600101611443565b50846001600160a01b031660006001600160a01b0316826001600160a01b03167f4a39dc06d4c0dbc64b70af90fd698a233a518aa5d07e595d983b8c0526c8f7fb8787604051808060200180602001838103835285818151815260200191508051906020019060200280838360005b8381101561158b578181015183820152602001611573565b50505050905001838103825284818151815260200191508051906020019060200280838360005b838110156115ca5781810151838201526020016115b2565b5050505090500194505050505060405180910390a46115ee816000878787876116f2565b5050505050565b335b90565b600081848411156116895760405162461bcd60e51b81526004018080602001828103825283818151815260200191508051906020019080838360005b8381101561164e578181015183820152602001611636565b50505050905090810190601f16801561167b5780820380516001836020036101000a031916815260200191505b509250505060405180910390fd5b505050900390565b6000828201838110156116eb576040805162461bcd60e51b815260206004820152601b60248201527f536166654d6174683a206164646974696f6e206f766572666c6f770000000000604482015290519081900360640190fd5b9392505050565b611704846001600160a01b0316611fc8565b15610ef457836001600160a01b031663bc197c8187878686866040518663ffffffff1660e01b815260040180866001600160a01b03168152602001856001600160a01b03168152602001806020018060200180602001848103845287818151815260200191508051906020019060200280838360005b8381101561179257818101518382015260200161177a565b50505050905001848103835286818151815260200191508051906020019060200280838360005b838110156117d15781810151838201526020016117b9565b50505050905001848103825285818151815260200191508051906020019080838360005b8381101561180d5781810151838201526020016117f5565b50505050905090810190601f16801561183a5780820380516001836020036101000a031916815260200191505b5098505050505050505050602060405180830381600087803b15801561185f57600080fd5b505af192505050801561188457506040513d602081101561187f57600080fd5b505160015b61191957611890612067565b8061189b57506118e2565b60405162461bcd60e51b815260206004820181815283516024840152835184939192839260440191908501908083836000831561164e578181015183820152602001611636565b60405162461bcd60e51b815260040180806020018281038252603481526020018061210d6034913960400191505060405180910390fd5b6001600160e01b0319811663bc197c8160e01b146119685760405162461bcd60e51b81526004018080602001828103825260288152602001806121416028913960400191505060405180910390fd5b50505050505050565b6001600160a01b0383166119b65760405162461bcd60e51b81526004018080602001828103825260238152602001806122696023913960400191505060405180910390fd5b80518251146119f65760405162461bcd60e51b81526004018080602001828103825260288152602001806123086028913960400191505060405180910390fd5b6000611a006115f5565b9050611a2081856000868660405180602001604052806000815250610ef4565b60005b8351811015611afe57611ab5838281518110611a3b57fe5b60200260200101516040518060600160405280602481526020016121c56024913960016000888681518110611a6c57fe5b602002602001015181526020019081526020016000206000896001600160a01b03166001600160a01b03168152602001908152602001600020546115fa9092919063ffffffff16565b60016000868481518110611ac557fe5b602090810291909101810151825281810192909252604090810160009081206001600160a01b038a168252909252902055600101611a23565b5060006001600160a01b0316846001600160a01b0316826001600160a01b03167f4a39dc06d4c0dbc64b70af90fd698a233a518aa5d07e595d983b8c0526c8f7fb8686604051808060200180602001838103835285818151815260200191508051906020019060200280838360005b83811015611b85578181015183820152602001611b6d565b50505050905001838103825284818151815260200191508051906020019060200280838360005b83811015611bc4578181015183820152602001611bac565b5050505090500194505050505060405180910390a450505050565b6001600160a01b038416611c245760405162461bcd60e51b81526004018080602001828103825260218152602001806123306021913960400191505060405180910390fd5b6000611c2e6115f5565b9050611c408160008761127c88611ce0565b60008481526001602090815260408083206001600160a01b0389168452909152902054611c6d9084611691565b60008581526001602090815260408083206001600160a01b03808b16808652918452828520959095558151898152928301889052815190948616927fc3d58168c5ae7397731d063d5bbf3d657854427343f4c083240f7aacaa2d0f6292908290030190a46115ee81600087878787611d24565b604080516001808252818301909252606091829190602080830190803683370190505090508281600081518110611d1357fe5b602090810291909101015292915050565b611d36846001600160a01b0316611fc8565b15610ef457836001600160a01b031663f23a6e6187878686866040518663ffffffff1660e01b815260040180866001600160a01b03168152602001856001600160a01b0316815260200184815260200183815260200180602001828103825283818151815260200191508051906020019080838360005b83811015611dc5578181015183820152602001611dad565b50505050905090810190601f168015611df25780820380516001836020036101000a031916815260200191505b509650505050505050602060405180830381600087803b158015611e1557600080fd5b505af1925050508015611e3a57506040513d6020811015611e3557600080fd5b505160015b611e4657611890612067565b6001600160e01b0319811663f23a6e6160e01b146119685760405162461bcd60e51b81526004018080602001828103825260288152602001806121416028913960400191505060405180910390fd5b6001600160a01b038316611eda5760405162461bcd60e51b81526004018080602001828103825260238152602001806122696023913960400191505060405180910390fd5b6000611ee46115f5565b9050611f1481856000611ef687611ce0565b611eff87611ce0565b60405180602001604052806000815250610ef4565b611f5b826040518060600160405280602481526020016121c56024913960008681526001602090815260408083206001600160a01b038b16845290915290205491906115fa565b60008481526001602090815260408083206001600160a01b03808a16808652918452828520959095558151888152928301879052815193949093908616927fc3d58168c5ae7397731d063d5bbf3d657854427343f4c083240f7aacaa2d0f6292908290030190a450505050565b3b151590565b828054600181600116156101000203166002900490600052602060002090601f016020900481019282601f1061200f57805160ff191683800117855561203c565b8280016001018555821561203c579182015b8281111561203c578251825591602001919060010190612021565b5061204892915061204c565b5090565b5b80821115612048576000815560010161204d565b60e01c90565b600060443d1015612077576115f7565b600481823e6308c379a061208b8251612061565b14612095576115f7565b6040513d600319016004823e80513d67ffffffffffffffff81602484011181841117156120c557505050506115f7565b828401925082519150808211156120df57505050506115f7565b503d830160208284010111156120f7575050506115f7565b601f01601f191681016020016040529150509056fe455243313135353a207472616e7366657220746f206e6f6e2045524331313535526563656976657220696d706c656d656e746572455243313135353a204552433131353552656365697665722072656a656374656420746f6b656e73455243313135353a2062616c616e636520717565727920666f7220746865207a65726f2061646472657373455243313135353a2062617463682062616c616e636520717565727920666f7220746865207a65726f2061646472657373455243313135353a206275726e20616d6f756e7420657863656564732062616c616e6365455243313135353a2063616c6c6572206973206e6f74206f776e6572206e6f7220617070726f766564455243313135353a207472616e7366657220746f20746865207a65726f2061646472657373455243313135353a207472616e736665722063616c6c6572206973206e6f74206f776e6572206e6f7220617070726f766564455243313135353a206275726e2066726f6d20746865207a65726f2061646472657373455243313135353a20696e73756666696369656e742062616c616e636520666f72207472616e73666572455243313135353a2073657474696e6720617070726f76616c2073746174757320666f722073656c66455243313135353a206163636f756e747320616e6420696473206c656e677468206d69736d61746368455243313135353a2069647320616e6420616d6f756e7473206c656e677468206d69736d61746368455243313135353a206d696e7420746f20746865207a65726f2061646472657373a2646970667358221220d08452f9f71666961ac3fb94a05dd280174289d8e32007f2c961ab456219abbd64736f6c634300060c0033",
  "immutableReferences": {},
  "source": "// SPDX-License-Identifier: MIT\n\npragma solidity ^0.6.0;\n\nimport \"../token/ERC1155/ERC1155.sol\";\n\n/**\n * @title ERC1155Mock\n * This mock just publicizes internal functions for testing purposes\n */\ncontract ERC1155Mock is ERC1155 {\n    constructor (string memory uri) public ERC1155(uri) {\n        // solhint-disable-previous-line no-empty-blocks\n    }\n\n    function setURI(string memory newuri) public {\n        _setURI(newuri);\n    }\n\n    function mint(address to, uint256 id, uint256 value, bytes memory data) public {\n        _mint(to, id, value, data);\n    }\n\n    function mintBatch(address to, uint256[] memory ids, uint256[] memory values, bytes memory data) public {\n        _mintBatch(to, ids, values, data);\n    }\n\n    function burn(address owner, uint256 id, uint256 value) public {\n        _burn(owner, id, value);\n    }\n\n    function burnBatch(address owner, uint256[] memory ids, uint256[] memory values) public {\n        _burnBatch(owner, ids, values);\n    }\n}\n",
  "sourcePath": "/Users/cts/dev/PRUF/PRUF_TRUFFLE/contracts/Imports/mocks/ERC1155Mock.sol",
  "compiler": {
    "name": "solc",
    "version": "0.6.12+commit.27d51765.Emscripten.clang"
  },
  "schemaVersion": "3.2.3",
  "updatedAt": "2020-12-13T02:15:04.683Z",
  "devdoc": {
    "kind": "dev",
    "methods": {
      "balanceOf(address,uint256)": {
        "details": "See {IERC1155-balanceOf}. Requirements: - `account` cannot be the zero address."
      },
      "balanceOfBatch(address[],uint256[])": {
        "details": "See {IERC1155-balanceOfBatch}. Requirements: - `accounts` and `ids` must have the same length."
      },
      "isApprovedForAll(address,address)": {
        "details": "See {IERC1155-isApprovedForAll}."
      },
      "safeBatchTransferFrom(address,address,uint256[],uint256[],bytes)": {
        "details": "See {IERC1155-safeBatchTransferFrom}."
      },
      "safeTransferFrom(address,address,uint256,uint256,bytes)": {
        "details": "See {IERC1155-safeTransferFrom}."
      },
      "setApprovalForAll(address,bool)": {
        "details": "See {IERC1155-setApprovalForAll}."
      },
      "supportsInterface(bytes4)": {
        "details": "See {IERC165-supportsInterface}. Time complexity O(1), guaranteed to always use less than 30 000 gas."
      },
      "uri(uint256)": {
        "details": "See {IERC1155MetadataURI-uri}. This implementation returns the same URI for *all* token types. It relies on the token type ID substitution mechanism https://eips.ethereum.org/EIPS/eip-1155#metadata[defined in the EIP]. Clients calling this function must replace the `\\{id\\}` substring with the actual token type ID."
      }
    },
    "title": "ERC1155Mock This mock just publicizes internal functions for testing purposes",
    "version": 1
  },
  "userdoc": {
    "kind": "user",
    "methods": {},
    "version": 1
  }
}