{
  "contractName": "ERC20CappedMock",
  "abi": [
    {
      "inputs": [
        {
          "internalType": "string",
          "name": "name",
          "type": "string"
        },
        {
          "internalType": "string",
          "name": "symbol",
          "type": "string"
        },
        {
          "internalType": "uint256",
          "name": "cap",
          "type": "uint256"
        }
      ],
      "stateMutability": "nonpayable",
      "type": "constructor"
    },
    {
      "anonymous": false,
      "inputs": [
        {
          "indexed": true,
          "internalType": "address",
          "name": "owner",
          "type": "address"
        },
        {
          "indexed": true,
          "internalType": "address",
          "name": "spender",
          "type": "address"
        },
        {
          "indexed": false,
          "internalType": "uint256",
          "name": "value",
          "type": "uint256"
        }
      ],
      "name": "Approval",
      "type": "event"
    },
    {
      "anonymous": false,
      "inputs": [
        {
          "indexed": true,
          "internalType": "address",
          "name": "from",
          "type": "address"
        },
        {
          "indexed": true,
          "internalType": "address",
          "name": "to",
          "type": "address"
        },
        {
          "indexed": false,
          "internalType": "uint256",
          "name": "value",
          "type": "uint256"
        }
      ],
      "name": "Transfer",
      "type": "event"
    },
    {
      "inputs": [
        {
          "internalType": "address",
          "name": "owner",
          "type": "address"
        },
        {
          "internalType": "address",
          "name": "spender",
          "type": "address"
        }
      ],
      "name": "allowance",
      "outputs": [
        {
          "internalType": "uint256",
          "name": "",
          "type": "uint256"
        }
      ],
      "stateMutability": "view",
      "type": "function"
    },
    {
      "inputs": [
        {
          "internalType": "address",
          "name": "spender",
          "type": "address"
        },
        {
          "internalType": "uint256",
          "name": "amount",
          "type": "uint256"
        }
      ],
      "name": "approve",
      "outputs": [
        {
          "internalType": "bool",
          "name": "",
          "type": "bool"
        }
      ],
      "stateMutability": "nonpayable",
      "type": "function"
    },
    {
      "inputs": [
        {
          "internalType": "address",
          "name": "account",
          "type": "address"
        }
      ],
      "name": "balanceOf",
      "outputs": [
        {
          "internalType": "uint256",
          "name": "",
          "type": "uint256"
        }
      ],
      "stateMutability": "view",
      "type": "function"
    },
    {
      "inputs": [],
      "name": "cap",
      "outputs": [
        {
          "internalType": "uint256",
          "name": "",
          "type": "uint256"
        }
      ],
      "stateMutability": "view",
      "type": "function"
    },
    {
      "inputs": [],
      "name": "decimals",
      "outputs": [
        {
          "internalType": "uint8",
          "name": "",
          "type": "uint8"
        }
      ],
      "stateMutability": "view",
      "type": "function"
    },
    {
      "inputs": [
        {
          "internalType": "address",
          "name": "spender",
          "type": "address"
        },
        {
          "internalType": "uint256",
          "name": "subtractedValue",
          "type": "uint256"
        }
      ],
      "name": "decreaseAllowance",
      "outputs": [
        {
          "internalType": "bool",
          "name": "",
          "type": "bool"
        }
      ],
      "stateMutability": "nonpayable",
      "type": "function"
    },
    {
      "inputs": [
        {
          "internalType": "address",
          "name": "spender",
          "type": "address"
        },
        {
          "internalType": "uint256",
          "name": "addedValue",
          "type": "uint256"
        }
      ],
      "name": "increaseAllowance",
      "outputs": [
        {
          "internalType": "bool",
          "name": "",
          "type": "bool"
        }
      ],
      "stateMutability": "nonpayable",
      "type": "function"
    },
    {
      "inputs": [],
      "name": "name",
      "outputs": [
        {
          "internalType": "string",
          "name": "",
          "type": "string"
        }
      ],
      "stateMutability": "view",
      "type": "function"
    },
    {
      "inputs": [],
      "name": "symbol",
      "outputs": [
        {
          "internalType": "string",
          "name": "",
          "type": "string"
        }
      ],
      "stateMutability": "view",
      "type": "function"
    },
    {
      "inputs": [],
      "name": "totalSupply",
      "outputs": [
        {
          "internalType": "uint256",
          "name": "",
          "type": "uint256"
        }
      ],
      "stateMutability": "view",
      "type": "function"
    },
    {
      "inputs": [
        {
          "internalType": "address",
          "name": "recipient",
          "type": "address"
        },
        {
          "internalType": "uint256",
          "name": "amount",
          "type": "uint256"
        }
      ],
      "name": "transfer",
      "outputs": [
        {
          "internalType": "bool",
          "name": "",
          "type": "bool"
        }
      ],
      "stateMutability": "nonpayable",
      "type": "function"
    },
    {
      "inputs": [
        {
          "internalType": "address",
          "name": "sender",
          "type": "address"
        },
        {
          "internalType": "address",
          "name": "recipient",
          "type": "address"
        },
        {
          "internalType": "uint256",
          "name": "amount",
          "type": "uint256"
        }
      ],
      "name": "transferFrom",
      "outputs": [
        {
          "internalType": "bool",
          "name": "",
          "type": "bool"
        }
      ],
      "stateMutability": "nonpayable",
      "type": "function"
    },
    {
      "inputs": [
        {
          "internalType": "address",
          "name": "to",
          "type": "address"
        },
        {
          "internalType": "uint256",
          "name": "tokenId",
          "type": "uint256"
        }
      ],
      "name": "mint",
      "outputs": [],
      "stateMutability": "nonpayable",
      "type": "function"
    }
  ],
  "bytecode": "0x60806040523480156200001157600080fd5b5060405162000ec538038062000ec5833981810160405260608110156200003757600080fd5b81019080805160405193929190846401000000008211156200005857600080fd5b9083019060208201858111156200006e57600080fd5b82516401000000008111828201881017156200008957600080fd5b82525081516020918201929091019080838360005b83811015620000b85781810151838201526020016200009e565b50505050905090810190601f168015620000e65780820380516001836020036101000a031916815260200191505b50604052602001805160405193929190846401000000008211156200010a57600080fd5b9083019060208201858111156200012057600080fd5b82516401000000008111828201881017156200013b57600080fd5b82525081516020918201929091019080838360005b838110156200016a57818101518382015260200162000150565b50505050905090810190601f168015620001985780820380516001836020036101000a031916815260200191505b50604052602090810151855190935083925085918591620001c0916003919085019062000246565b508051620001d690600490602084019062000246565b50506005805460ff19166012179055508062000239576040805162461bcd60e51b815260206004820152601560248201527f45524332304361707065643a2063617020697320300000000000000000000000604482015290519081900360640190fd5b60065550620002e2915050565b828054600181600116156101000203166002900490600052602060002090601f016020900481019282601f106200028957805160ff1916838001178555620002b9565b82800160010185558215620002b9579182015b82811115620002b95782518255916020019190600101906200029c565b50620002c7929150620002cb565b5090565b5b80821115620002c75760008155600101620002cc565b610bd380620002f26000396000f3fe608060405234801561001057600080fd5b50600436106100cf5760003560e01c8063395093511161008c57806395d89b411161006657806395d89b4114610287578063a457c2d71461028f578063a9059cbb146102bb578063dd62ed3e146102e7576100cf565b8063395093511461020757806340c10f191461023357806370a0823114610261576100cf565b806306fdde03146100d4578063095ea7b31461015157806318160ddd1461019157806323b872dd146101ab578063313ce567146101e1578063355274ea146101ff575b600080fd5b6100dc610315565b6040805160208082528351818301528351919283929083019185019080838360005b838110156101165781810151838201526020016100fe565b50505050905090810190601f1680156101435780820380516001836020036101000a031916815260200191505b509250505060405180910390f35b61017d6004803603604081101561016757600080fd5b506001600160a01b0381351690602001356103ab565b604080519115158252519081900360200190f35b6101996103c8565b60408051918252519081900360200190f35b61017d600480360360608110156101c157600080fd5b506001600160a01b038135811691602081013590911690604001356103ce565b6101e9610455565b6040805160ff9092168252519081900360200190f35b61019961045e565b61017d6004803603604081101561021d57600080fd5b506001600160a01b038135169060200135610464565b61025f6004803603604081101561024957600080fd5b506001600160a01b0381351690602001356104b2565b005b6101996004803603602081101561027757600080fd5b50356001600160a01b03166104c0565b6100dc6104db565b61017d600480360360408110156102a557600080fd5b506001600160a01b03813516906020013561053c565b61017d600480360360408110156102d157600080fd5b506001600160a01b0381351690602001356105a4565b610199600480360360408110156102fd57600080fd5b506001600160a01b03813581169160200135166105b8565b60038054604080516020601f60026000196101006001881615020190951694909404938401819004810282018101909252828152606093909290918301828280156103a15780601f10610376576101008083540402835291602001916103a1565b820191906000526020600020905b81548152906001019060200180831161038457829003601f168201915b5050505050905090565b60006103bf6103b86105e3565b84846105e7565b50600192915050565b60025490565b60006103db8484846106d3565b61044b846103e76105e3565b61044685604051806060016040528060288152602001610b08602891396001600160a01b038a166000908152600160205260408120906104256105e3565b6001600160a01b03168152602081019190915260400160002054919061082e565b6105e7565b5060019392505050565b60055460ff1690565b60065490565b60006103bf6104716105e3565b8461044685600160006104826105e3565b6001600160a01b03908116825260208083019390935260409182016000908120918c1681529252902054906108c5565b6104bc8282610926565b5050565b6001600160a01b031660009081526020819052604090205490565b60048054604080516020601f60026000196101006001881615020190951694909404938401819004810282018101909252828152606093909290918301828280156103a15780601f10610376576101008083540402835291602001916103a1565b60006103bf6105496105e3565b8461044685604051806060016040528060258152602001610b7960259139600160006105736105e3565b6001600160a01b03908116825260208083019390935260409182016000908120918d1681529252902054919061082e565b60006103bf6105b16105e3565b84846106d3565b6001600160a01b03918216600090815260016020908152604080832093909416825291909152205490565b3390565b6001600160a01b03831661062c5760405162461bcd60e51b8152600401808060200182810382526024815260200180610b556024913960400191505060405180910390fd5b6001600160a01b0382166106715760405162461bcd60e51b8152600401808060200182810382526022815260200180610ac06022913960400191505060405180910390fd5b6001600160a01b03808416600081815260016020908152604080832094871680845294825291829020859055815185815291517f8c5be1e5ebec7d5bd14f71427d1e84f3dd0314c0f7b2291e5b200ac8c7c3b9259281900390910190a3505050565b6001600160a01b0383166107185760405162461bcd60e51b8152600401808060200182810382526025815260200180610b306025913960400191505060405180910390fd5b6001600160a01b03821661075d5760405162461bcd60e51b8152600401808060200182810382526023815260200180610a9d6023913960400191505060405180910390fd5b610768838383610a16565b6107a581604051806060016040528060268152602001610ae2602691396001600160a01b038616600090815260208190526040902054919061082e565b6001600160a01b0380851660009081526020819052604080822093909355908416815220546107d490826108c5565b6001600160a01b038084166000818152602081815260409182902094909455805185815290519193928716927fddf252ad1be2c89b69c2b068fc378daa952ba7f163c4a11628f55a4df523b3ef92918290030190a3505050565b600081848411156108bd5760405162461bcd60e51b81526004018080602001828103825283818151815260200191508051906020019080838360005b8381101561088257818101518382015260200161086a565b50505050905090810190601f1680156108af5780820380516001836020036101000a031916815260200191505b509250505060405180910390fd5b505050900390565b60008282018381101561091f576040805162461bcd60e51b815260206004820152601b60248201527f536166654d6174683a206164646974696f6e206f766572666c6f770000000000604482015290519081900360640190fd5b9392505050565b6001600160a01b038216610981576040805162461bcd60e51b815260206004820152601f60248201527f45524332303a206d696e7420746f20746865207a65726f206164647265737300604482015290519081900360640190fd5b61098d60008383610a16565b60025461099a90826108c5565b6002556001600160a01b0382166000908152602081905260409020546109c090826108c5565b6001600160a01b0383166000818152602081815260408083209490945583518581529351929391927fddf252ad1be2c89b69c2b068fc378daa952ba7f163c4a11628f55a4df523b3ef9281900390910190a35050565b610a21838383610a97565b6001600160a01b038316610a9757600654610a4482610a3e6103c8565b906108c5565b1115610a97576040805162461bcd60e51b815260206004820152601960248201527f45524332304361707065643a2063617020657863656564656400000000000000604482015290519081900360640190fd5b50505056fe45524332303a207472616e7366657220746f20746865207a65726f206164647265737345524332303a20617070726f766520746f20746865207a65726f206164647265737345524332303a207472616e7366657220616d6f756e7420657863656564732062616c616e636545524332303a207472616e7366657220616d6f756e74206578636565647320616c6c6f77616e636545524332303a207472616e736665722066726f6d20746865207a65726f206164647265737345524332303a20617070726f76652066726f6d20746865207a65726f206164647265737345524332303a2064656372656173656420616c6c6f77616e63652062656c6f77207a65726fa2646970667358221220b49a7904a1b4daae499fbd3e55147cac4839873245beb84e18a47ce6ebcee35d64736f6c634300060c0033",
  "immutableReferences": {},
  "source": "// SPDX-License-Identifier: MIT\n\npragma solidity ^0.6.0;\n\nimport \"../token/ERC20/ERC20Capped.sol\";\n\ncontract ERC20CappedMock is ERC20Capped {\n    constructor (string memory name, string memory symbol, uint256 cap)\n        public ERC20(name, symbol) ERC20Capped(cap)\n    { }\n\n    function mint(address to, uint256 tokenId) public {\n        _mint(to, tokenId);\n    }\n}\n",
  "sourcePath": "/Users/cts/dev/PRUF/PRUF_TRUFFLE/contracts/Imports/mocks/ERC20CappedMock.sol",
  "compiler": {
    "name": "solc",
    "version": "0.6.12+commit.27d51765.Emscripten.clang"
  },
  "schemaVersion": "3.2.3",
  "updatedAt": "2020-12-13T02:15:04.695Z",
  "devdoc": {
    "kind": "dev",
    "methods": {
      "allowance(address,address)": {
        "details": "See {IERC20-allowance}."
      },
      "approve(address,uint256)": {
        "details": "See {IERC20-approve}. Requirements: - `spender` cannot be the zero address."
      },
      "balanceOf(address)": {
        "details": "See {IERC20-balanceOf}."
      },
      "cap()": {
        "details": "Returns the cap on the token's total supply."
      },
      "decimals()": {
        "details": "Returns the number of decimals used to get its user representation. For example, if `decimals` equals `2`, a balance of `505` tokens should be displayed to a user as `5,05` (`505 / 10 ** 2`). Tokens usually opt for a value of 18, imitating the relationship between Ether and Wei. This is the value {ERC20} uses, unless {_setupDecimals} is called. NOTE: This information is only used for _display_ purposes: it in no way affects any of the arithmetic of the contract, including {IERC20-balanceOf} and {IERC20-transfer}."
      },
      "decreaseAllowance(address,uint256)": {
        "details": "Atomically decreases the allowance granted to `spender` by the caller. This is an alternative to {approve} that can be used as a mitigation for problems described in {IERC20-approve}. Emits an {Approval} event indicating the updated allowance. Requirements: - `spender` cannot be the zero address. - `spender` must have allowance for the caller of at least `subtractedValue`."
      },
      "increaseAllowance(address,uint256)": {
        "details": "Atomically increases the allowance granted to `spender` by the caller. This is an alternative to {approve} that can be used as a mitigation for problems described in {IERC20-approve}. Emits an {Approval} event indicating the updated allowance. Requirements: - `spender` cannot be the zero address."
      },
      "name()": {
        "details": "Returns the name of the token."
      },
      "symbol()": {
        "details": "Returns the symbol of the token, usually a shorter version of the name."
      },
      "totalSupply()": {
        "details": "See {IERC20-totalSupply}."
      },
      "transfer(address,uint256)": {
        "details": "See {IERC20-transfer}. Requirements: - `recipient` cannot be the zero address. - the caller must have a balance of at least `amount`."
      },
      "transferFrom(address,address,uint256)": {
        "details": "See {IERC20-transferFrom}. Emits an {Approval} event indicating the updated allowance. This is not required by the EIP. See the note at the beginning of {ERC20}. Requirements: - `sender` and `recipient` cannot be the zero address. - `sender` must have a balance of at least `amount`. - the caller must have allowance for ``sender``'s tokens of at least `amount`."
      }
    },
    "version": 1
  },
  "userdoc": {
    "kind": "user",
    "methods": {},
    "version": 1
  }
}