{
  "contractName": "Implementation4",
  "abi": [
    {
      "stateMutability": "nonpayable",
      "type": "fallback"
    },
    {
      "inputs": [],
      "name": "initialize",
      "outputs": [],
      "stateMutability": "nonpayable",
      "type": "function"
    },
    {
      "inputs": [
        {
          "internalType": "uint256",
          "name": "_number",
          "type": "uint256"
        }
      ],
      "name": "setValue",
      "outputs": [],
      "stateMutability": "nonpayable",
      "type": "function"
    },
    {
      "inputs": [],
      "name": "getValue",
      "outputs": [
        {
          "internalType": "uint256",
          "name": "",
          "type": "uint256"
        }
      ],
      "stateMutability": "view",
      "type": "function"
    }
  ],
  "bytecode": "0x608060405234801561001057600080fd5b5061019f806100206000396000f3fe608060405234801561001057600080fd5b50600436106100415760003560e01c8063209652551461004757806355241077146100615780638129fc1c14610080575b60018055005b61004f610088565b60408051918252519081900360200190f35b61007e6004803603602081101561007757600080fd5b503561008e565b005b61007e610093565b60015490565b600155565b600054610100900460ff16806100ac57506100ac610135565b806100ba575060005460ff16155b6100f55760405162461bcd60e51b815260040180806020018281038252602e81526020018061013c602e913960400191505060405180910390fd5b600054610100900460ff16158015610120576000805460ff1961ff0019909116610100171660011790555b8015610132576000805461ff00191690555b50565b303b159056fe496e697469616c697a61626c653a20636f6e747261637420697320616c726561647920696e697469616c697a6564a2646970667358221220d1d61adde90725926d6acd2700c1f56b68e338839bdd11e1558116a57140a5ad64736f6c634300060c0033",
  "immutableReferences": {},
  "source": "// SPDX-License-Identifier: MIT\n\npragma solidity ^0.6.0;\n\nimport \"../proxy/Initializable.sol\";\n\ncontract Implementation1 is Initializable {\n  uint internal _value;\n\n  function initialize() public initializer {\n  }\n\n  function setValue(uint _number) public {\n    _value = _number;\n  }\n}\n\ncontract Implementation2 is Initializable {\n  uint internal _value;\n\n  function initialize() public initializer {\n  }\n\n  function setValue(uint _number) public {\n    _value = _number;\n  }\n\n  function getValue() public view returns (uint) {\n    return _value;\n  }\n}\n\ncontract Implementation3 is Initializable {\n  uint internal _value;\n\n  function initialize() public initializer {\n  }\n\n  function setValue(uint _number) public {\n    _value = _number;\n  }\n\n  function getValue(uint _number) public view returns (uint) {\n    return _value + _number;\n  }\n}\n\ncontract Implementation4 is Initializable {\n  uint internal _value;\n\n  function initialize() public initializer {\n  }\n\n  function setValue(uint _number) public {\n    _value = _number;\n  }\n\n  function getValue() public view returns (uint) {\n    return _value;\n  }\n\n  // solhint-disable-next-line payable-fallback\n  fallback() external {\n    _value = 1;\n  }\n}\n",
  "sourcePath": "/Users/cts/dev/PRUF/PRUF_TRUFFLE/contracts/Imports/mocks/RegressionImplementation.sol",
  "compiler": {
    "name": "solc",
    "version": "0.6.12+commit.27d51765.Emscripten.clang"
  },
  "schemaVersion": "3.2.3",
  "updatedAt": "2020-12-13T01:45:40.489Z",
  "devdoc": {
    "kind": "dev",
    "methods": {},
    "version": 1
  },
  "userdoc": {
    "kind": "user",
    "methods": {},
    "version": 1
  }
}