{
  "contractName": "MigratableMockV2",
  "abi": [
    {
      "inputs": [
        {
          "internalType": "uint256",
          "name": "value",
          "type": "uint256"
        }
      ],
      "name": "initialize",
      "outputs": [],
      "stateMutability": "payable",
      "type": "function"
    },
    {
      "inputs": [],
      "name": "x",
      "outputs": [
        {
          "internalType": "uint256",
          "name": "",
          "type": "uint256"
        }
      ],
      "stateMutability": "view",
      "type": "function"
    },
    {
      "inputs": [],
      "name": "y",
      "outputs": [
        {
          "internalType": "uint256",
          "name": "",
          "type": "uint256"
        }
      ],
      "stateMutability": "view",
      "type": "function"
    },
    {
      "inputs": [
        {
          "internalType": "uint256",
          "name": "value",
          "type": "uint256"
        },
        {
          "internalType": "uint256",
          "name": "anotherValue",
          "type": "uint256"
        }
      ],
      "name": "migrate",
      "outputs": [],
      "stateMutability": "payable",
      "type": "function"
    }
  ],
  "bytecode": "0x608060405234801561001057600080fd5b50610207806100206000396000f3fe60806040526004361061003f5760003560e01c80630c55699c146100445780633e54bacb1461006b578063a56dfe4a14610090578063fe4b84df146100a5575b600080fd5b34801561005057600080fd5b506100596100c2565b60408051918252519081900360200190f35b61008e6004803603604081101561008157600080fd5b50803590602001356100c8565b005b34801561009c57600080fd5b506100596100ef565b61008e600480360360208110156100bb57600080fd5b50356100f5565b60015481565b60025460ff16156100d857600080fd5b60019182556003556002805460ff19169091179055565b60035481565b600054610100900460ff168061010e575061010e61019d565b8061011c575060005460ff16155b6101575760405162461bcd60e51b815260040180806020018281038252602e8152602001806101a4602e913960400191505060405180910390fd5b600054610100900460ff16158015610182576000805460ff1961ff0019909116610100171660011790555b60018290558015610199576000805461ff00191690555b5050565b303b159056fe496e697469616c697a61626c653a20636f6e747261637420697320616c726561647920696e697469616c697a6564a2646970667358221220d7b511f8c70db68be1e706476e67260004a1834356ac7291406f11d10febd54964736f6c634300060c0033",
  "immutableReferences": {},
  "source": "// SPDX-License-Identifier: MIT\n\npragma solidity ^0.6.0;\n\nimport \"../proxy/Initializable.sol\";\n\n/**\n * @title MigratableMockV1\n * @dev This contract is a mock to test initializable functionality through migrations\n */\ncontract MigratableMockV1 is Initializable {\n  uint256 public x;\n\n  function initialize(uint256 value) public payable initializer {\n    x = value;\n  }\n}\n\n/**\n * @title MigratableMockV2\n * @dev This contract is a mock to test migratable functionality with params\n */\ncontract MigratableMockV2 is MigratableMockV1 {\n  bool internal _migratedV2;\n  uint256 public y;\n\n  function migrate(uint256 value, uint256 anotherValue) public payable {\n    require(!_migratedV2);\n    x = value;\n    y = anotherValue;\n    _migratedV2 = true;\n  }\n}\n\n/**\n * @title MigratableMockV3\n * @dev This contract is a mock to test migratable functionality without params\n */\ncontract MigratableMockV3 is MigratableMockV2 {\n  bool internal _migratedV3;\n\n  function migrate() public payable {\n    require(!_migratedV3);\n    uint256 oldX = x;\n    x = y;\n    y = oldX;\n    _migratedV3 = true;\n  }\n}\n",
  "sourcePath": "/Users/cts/dev/PRUF/PRUF_TRUFFLE/contracts/Imports/mocks/SingleInheritanceInitializableMocks.sol",
  "compiler": {
    "name": "solc",
    "version": "0.6.12+commit.27d51765.Emscripten.clang"
  },
  "schemaVersion": "3.2.3",
  "updatedAt": "2020-12-13T01:45:40.590Z",
  "devdoc": {
    "details": "This contract is a mock to test migratable functionality with params",
    "kind": "dev",
    "methods": {},
    "title": "MigratableMockV2",
    "version": 1
  },
  "userdoc": {
    "kind": "user",
    "methods": {},
    "version": 1
  }
}