{
	"data": {
		"bytecode": {
			"linkReferences": {},
			"object": "60806040526b0cecb8f27f4200f3a0000000600b55600c80546001600160a01b03191690556001600d553480156200003657600080fd5b506040518060400160405280600d81526020016c5052c3bc46204e6574776f726b60981b8152506040518060400160405280600481526020016328292aa360e11b8152508160049080519060200190620000929291906200024d565b508051620000a89060059060208401906200024d565b50506006805461ff001960ff1990911660121716905550620000d56000620000cf62000139565b6200013d565b620001047f9f2df0fed2c77648de5860a4cc508cd0818c85b8b8a1ab4ceeef8d981c8956a6620000cf62000139565b620001337f65d7a28e3265b37a6474929f336521b332c1681b933f6cb9f3376673440d862a620000cf62000139565b620002e9565b3390565b6200014982826200014d565b5050565b60008281526020818152604090912062000172918390620019fd620001c6821b17901c565b1562000149576200018262000139565b6001600160a01b0316816001600160a01b0316837f2f8788117e7eff1d82e926ec794901d17c78024a50270940304540a733656f0d60405160405180910390a45050565b6000620001dd836001600160a01b038416620001e6565b90505b92915050565b6000620001f4838362000235565b6200022c57508154600181810184556000848152602080822090930184905584548482528286019093526040902091909155620001e0565b506000620001e0565b60009081526001919091016020526040902054151590565b828054600181600116156101000203166002900490600052602060002090601f016020900481019282601f106200029057805160ff1916838001178555620002c0565b82800160010185558215620002c0579182015b82811115620002c0578251825591602001919060010190620002a3565b50620002ce929150620002d2565b5090565b5b80821115620002ce5760008155600101620002d3565b61306b80620002f96000396000f3fe608060405234801561001057600080fd5b50600436106102de5760003560e01c806379cc679011610186578063a9059cbb116100e3578063ca15c87311610097578063dd62ed3e11610071578063dd62ed3e146108be578063e60f0b98146108f9578063e63ab1e91461094a576102de565b8063ca15c87314610860578063d53913931461087d578063d547741f14610885576102de565b8063adfcaae0116100c8578063adfcaae014610848578063b3b0af6c14610850578063b3d3d37e14610858576102de565b8063a9059cbb146107d6578063ac4162531461080f576102de565b8063981b24d01161013a5780639b30d1e91161011f5780639b30d1e914610752578063a217fddf14610795578063a457c2d71461079d576102de565b8063981b24d01461072d578063992a71761461074a576102de565b80639010d07c1161016b5780639010d07c146106a057806391d14854146106ec57806395d89b4114610725576102de565b806379cc67901461065f5780638456cb5914610698576102de565b806336568abe1161023f5780634ac3c31b116101f35780635c975abb116101cd5780635c975abb1461061c5780637028e2cd1461062457806370a082311461062c576102de565b80634ac3c31b1461057d5780634ee2cd7e146105b057806350c7a35c146105e9576102de565b80633f4ba83a116102245780633f4ba83a1461051f57806340c10f191461052757806342966c6814610560576102de565b806336568abe146104ad57806339509351146104e6576102de565b8063248a9ca3116102965780632f2ff15d1161027b5780632f2ff15d1461044e578063313ce56714610487578063355274ea146104a5576102de565b8063248a9ca3146104295780632670d21614610446576102de565b8063113e6c0c116102c7578063113e6c0c146103ad57806318160ddd146103cc57806323b872dd146103e6576102de565b806306fdde03146102e3578063095ea7b314610360575b600080fd5b6102eb610952565b6040805160208082528351818301528351919283929083019185019080838360005b8381101561032557818101518382015260200161030d565b50505050905090810190601f1680156103525780820380516001836020036101000a031916815260200191505b509250505060405180910390f35b6103996004803603604081101561037657600080fd5b5073ffffffffffffffffffffffffffffffffffffffff8135169060200135610a06565b604080519115158252519081900360200190f35b6103ca600480360360208110156103c357600080fd5b5035610a24565b005b6103d4610a9d565b60408051918252519081900360200190f35b610399600480360360608110156103fc57600080fd5b5073ffffffffffffffffffffffffffffffffffffffff813581169160208101359091169060400135610aa3565b6103d46004803603602081101561043f57600080fd5b5035610b44565b6103ca610b5c565b6103ca6004803603604081101561046457600080fd5b508035906020013573ffffffffffffffffffffffffffffffffffffffff16610b93565b61048f610c14565b6040805160ff9092168252519081900360200190f35b6103d4610c1d565b6103ca600480360360408110156104c357600080fd5b508035906020013573ffffffffffffffffffffffffffffffffffffffff16610c23565b610399600480360360408110156104fc57600080fd5b5073ffffffffffffffffffffffffffffffffffffffff8135169060200135610cb8565b6103ca610d13565b6103ca6004803603604081101561053d57600080fd5b5073ffffffffffffffffffffffffffffffffffffffff8135169060200135610db4565b6103ca6004803603602081101561057657600080fd5b5035610e55565b6103d46004803603602081101561059357600080fd5b503573ffffffffffffffffffffffffffffffffffffffff16610e66565b6103d4600480360360408110156105c657600080fd5b5073ffffffffffffffffffffffffffffffffffffffff8135169060200135610e8e565b6103ca600480360360208110156105ff57600080fd5b503573ffffffffffffffffffffffffffffffffffffffff16610ee4565b610399610ff9565b6103d4611007565b6103d46004803603602081101561064257600080fd5b503573ffffffffffffffffffffffffffffffffffffffff1661102b565b6103ca6004803603604081101561067557600080fd5b5073ffffffffffffffffffffffffffffffffffffffff8135169060200135611053565b6103ca6110ad565b6106c3600480360360408110156106b657600080fd5b508035906020013561114c565b6040805173ffffffffffffffffffffffffffffffffffffffff9092168252519081900360200190f35b6103996004803603604081101561070257600080fd5b508035906020013573ffffffffffffffffffffffffffffffffffffffff1661116b565b6102eb611183565b6103d46004803603602081101561074357600080fd5b5035611202565b6103d4611232565b6103ca6004803603606081101561076857600080fd5b5073ffffffffffffffffffffffffffffffffffffffff813581169160208101359091169060400135611256565b6103d46113b9565b610399600480360360408110156107b357600080fd5b5073ffffffffffffffffffffffffffffffffffffffff81351690602001356113be565b610399600480360360408110156107ec57600080fd5b5073ffffffffffffffffffffffffffffffffffffffff8135169060200135611433565b6103ca6004803603604081101561082557600080fd5b5073ffffffffffffffffffffffffffffffffffffffff8135169060200135611447565b6103ca6115a9565b6103d46115b7565b6103d46115db565b6103d46004803603602081101561087657600080fd5b503561166b565b6103d4611682565b6103ca6004803603604081101561089b57600080fd5b508035906020013573ffffffffffffffffffffffffffffffffffffffff166116a6565b6103d4600480360360408110156108d457600080fd5b5073ffffffffffffffffffffffffffffffffffffffff81358116916020013516611719565b6103ca600480360360a081101561090f57600080fd5b5073ffffffffffffffffffffffffffffffffffffffff8135811691602081013582169160408201359160608101359091169060800135611751565b6103d46119d9565b60048054604080516020601f60027fffffffffffffffffffffffffffffffffffffffffffffffffffffffffffffffff6101006001881615020190951694909404938401819004810282018101909252828152606093909290918301828280156109fc5780601f106109d1576101008083540402835291602001916109fc565b820191906000526020600020905b8154815290600101906020018083116109df57829003601f168201915b5050505050905090565b6000610a1a610a13611a1f565b8484611a23565b5060015b92915050565b610a366000610a31611a1f565b61116b565b610a8b576040517f08c379a0000000000000000000000000000000000000000000000000000000008152600401808060200182810382526026815260200180612f726026913960400191505060405180910390fd5b8060aa1415610a9a576000600d555b50565b60035490565b6000610ab0848484611b6a565b610b3a84610abc611a1f565b610b3585604051806060016040528060288152602001612e716028913973ffffffffffffffffffffffffffffffffffffffff8a16600090815260026020526040812090610b07611a1f565b73ffffffffffffffffffffffffffffffffffffffff1681526020810191909152604001600020549190611d3c565b611a23565b5060019392505050565b6000818152602081905260409020600201545b919050565b6000600e6000610b6a611a1f565b73ffffffffffffffffffffffffffffffffffffffff168152602081019190915260400160002055565b600082815260208190526040902060020154610bb190610a31611a1f565b610c06576040517f08c379a000000000000000000000000000000000000000000000000000000000815260040180806020018281038252602f815260200180612c4f602f913960400191505060405180910390fd5b610c108282611ded565b5050565b60065460ff1690565b600b5490565b610c2b611a1f565b73ffffffffffffffffffffffffffffffffffffffff168173ffffffffffffffffffffffffffffffffffffffff1614610cae576040517f08c379a000000000000000000000000000000000000000000000000000000000815260040180806020018281038252602f815260200180613007602f913960400191505060405180910390fd5b610c108282611e70565b6000610a1a610cc5611a1f565b84610b358560026000610cd6611a1f565b73ffffffffffffffffffffffffffffffffffffffff908116825260208083019390935260409182016000908120918c168152925290205490611ef3565b610d3f7f65d7a28e3265b37a6474929f336521b332c1681b933f6cb9f3376673440d862a610a31611a1f565b610daa57604080517f08c379a000000000000000000000000000000000000000000000000000000000815260206004820152601f60248201527f505275463a4d4f443a206d7573742068617665205041555345525f524f4c4500604482015290519081900360640190fd5b610db2611f67565b565b610de07f9f2df0fed2c77648de5860a4cc508cd0818c85b8b8a1ab4ceeef8d981c8956a6610a31611a1f565b610e4b57604080517f08c379a000000000000000000000000000000000000000000000000000000000815260206004820152601f60248201527f505275463a4d4f443a206d7573742068617665204d494e5445525f524f4c4500604482015290519081900360640190fd5b610c108282612058565b610a9a610e60611a1f565b8261218b565b73ffffffffffffffffffffffffffffffffffffffff166000908152600e602052604090205490565b73ffffffffffffffffffffffffffffffffffffffff8216600090815260076020526040812081908190610ec29085906122d5565b9150915081610ed957610ed48561102b565b610edb565b805b95945050505050565b610ef16000610a31611a1f565b610f46576040517f08c379a0000000000000000000000000000000000000000000000000000000008152600401808060200182810382526026815260200180612f726026913960400191505060405180910390fd5b73ffffffffffffffffffffffffffffffffffffffff8116610fb2576040517f08c379a0000000000000000000000000000000000000000000000000000000008152600401808060200182810382526028815260200180612e496028913960400191505060405180910390fd5b600c80547fffffffffffffffffffffffff00000000000000000000000000000000000000001673ffffffffffffffffffffffffffffffffffffffff92909216919091179055565b600654610100900460ff1690565b7f5fdbd35e8da83ee755d5e62a539e5ed7f47126abede0b8b10f9ea43dc6eed07f81565b73ffffffffffffffffffffffffffffffffffffffff1660009081526001602052604090205490565b600061108a82604051806060016040528060248152602001612f08602491396110838661107e611a1f565b611719565b9190611d3c565b905061109e83611098611a1f565b83611a23565b6110a8838361218b565b505050565b6110d97f65d7a28e3265b37a6474929f336521b332c1681b933f6cb9f3376673440d862a610a31611a1f565b61114457604080517f08c379a000000000000000000000000000000000000000000000000000000000815260206004820152601f60248201527f505275463a4d4f443a206d7573742068617665205041555345525f524f4c4500604482015290519081900360640190fd5b610db261240d565b600082815260208190526040812061116490836124d9565b9392505050565b600082815260208190526040812061116490836124e5565b60058054604080516020601f60027fffffffffffffffffffffffffffffffffffffffffffffffffffffffffffffffff6101006001881615020190951694909404938401819004810282018101909252828152606093909290918301828280156109fc5780601f106109d1576101008083540402835291602001916109fc565b60008060006112128460086122d5565b915091508161122857611223610a9d565b61122a565b805b949350505050565b7feeed90ae47cd1f23b88ce446295f1ca23c5e4f5b894addbe83563fd27494e29481565b6112827feeed90ae47cd1f23b88ce446295f1ca23c5e4f5b894addbe83563fd27494e294610a31611a1f565b6112d7576040517f08c379a0000000000000000000000000000000000000000000000000000000008152600401808060200182810382526026815260200180612fbc6026913960400191505060405180910390fd5b600d54600114611332576040517f08c379a000000000000000000000000000000000000000000000000000000000815260040180806020018281038252605c815260200180612d54605c913960600191505060405180910390fd5b73ffffffffffffffffffffffffffffffffffffffff83166000908152600e6020526040902054156113ae576040517f08c379a0000000000000000000000000000000000000000000000000000000008152600401808060200182810382526034815260200180612d206034913960400191505060405180910390fd5b6110a8838383611b6a565b600081565b6000610a1a6113cb611a1f565b84610b3585604051806060016040528060258152602001612fe260259139600260006113f5611a1f565b73ffffffffffffffffffffffffffffffffffffffff908116825260208083019390935260409182016000908120918d16815292529020549190611d3c565b6000610a1a611440611a1f565b8484611b6a565b6114737feeed90ae47cd1f23b88ce446295f1ca23c5e4f5b894addbe83563fd27494e294610a31611a1f565b6114c8576040517f08c379a0000000000000000000000000000000000000000000000000000000008152600401808060200182810382526026815260200180612fbc6026913960400191505060405180910390fd5b600d54600114611523576040517f08c379a000000000000000000000000000000000000000000000000000000000815260040180806020018281038252605c815260200180612d54605c913960600191505060405180910390fd5b73ffffffffffffffffffffffffffffffffffffffff82166000908152600e60205260409020541561159f576040517f08c379a0000000000000000000000000000000000000000000000000000000008152600401808060200182810382526034815260200180612e996034913960400191505060405180910390fd5b610c10828261218b565b60aa600e6000610b6a611a1f565b7fcdbada398fb3ae55c788123a0c3c0ccb8e69fee2e6b780278b89300b4fc80c9081565b60006116097f5fdbd35e8da83ee755d5e62a539e5ed7f47126abede0b8b10f9ea43dc6eed07f610a31611a1f565b61165e576040517f08c379a0000000000000000000000000000000000000000000000000000000008152600401808060200182810382526043815260200180612e066043913960600191505060405180910390fd5b611666612507565b905090565b6000818152602081905260408120610a1e9061255b565b7f9f2df0fed2c77648de5860a4cc508cd0818c85b8b8a1ab4ceeef8d981c8956a681565b6000828152602081905260409020600201546116c490610a31611a1f565b610cae576040517f08c379a0000000000000000000000000000000000000000000000000000000008152600401808060200182810382526030815260200180612dd66030913960400191505060405180910390fd5b73ffffffffffffffffffffffffffffffffffffffff918216600090815260026020908152604080832093909416825291909152205490565b61177d7fcdbada398fb3ae55c788123a0c3c0ccb8e69fee2e6b780278b89300b4fc80c90610a31611a1f565b6117e857604080517f08c379a000000000000000000000000000000000000000000000000000000000815260206004820181905260248201527f505275463a4d4f443a206d75737420686176652050415941424c455f524f4c45604482015290519081900360640190fd5b600d54600114611843576040517f08c379a000000000000000000000000000000000000000000000000000000000815260040180806020018281038252605e815260200180612c7e605e913960600191505060405180910390fd5b73ffffffffffffffffffffffffffffffffffffffff85166000908152600e6020526040902054156118bf576040517f08c379a000000000000000000000000000000000000000000000000000000000815260040180806020018281038252603c815260200180612bce603c913960400191505060405180910390fd5b6118c98382611ef3565b6118d28661102b565b101561193f57604080517f08c379a000000000000000000000000000000000000000000000000000000000815260206004820152601e60248201527f505275463a5046533a20696e73756666696369656e742062616c616e63650000604482015290519081900360640190fd5b600c5473ffffffffffffffffffffffffffffffffffffffff1661197757611967858585611b6a565b611972858383611b6a565b6119d2565b6000611984846004612566565b9050600061199285836125a8565b905061199f878783611b6a565b600c546119c490889073ffffffffffffffffffffffffffffffffffffffff1684611b6a565b6119cf878585611b6a565b50505b5050505050565b7f65d7a28e3265b37a6474929f336521b332c1681b933f6cb9f3376673440d862a81565b60006111648373ffffffffffffffffffffffffffffffffffffffff84166125ea565b3390565b73ffffffffffffffffffffffffffffffffffffffff8316611a8f576040517f08c379a0000000000000000000000000000000000000000000000000000000008152600401808060200182810382526024815260200180612f986024913960400191505060405180910390fd5b73ffffffffffffffffffffffffffffffffffffffff8216611afb576040517f08c379a0000000000000000000000000000000000000000000000000000000008152600401808060200182810382526022815260200180612cfe6022913960400191505060405180910390fd5b73ffffffffffffffffffffffffffffffffffffffff808416600081815260026020908152604080832094871680845294825291829020859055815185815291517f8c5be1e5ebec7d5bd14f71427d1e84f3dd0314c0f7b2291e5b200ac8c7c3b9259281900390910190a3505050565b73ffffffffffffffffffffffffffffffffffffffff8316611bd6576040517f08c379a0000000000000000000000000000000000000000000000000000000008152600401808060200182810382526025815260200180612f4d6025913960400191505060405180910390fd5b73ffffffffffffffffffffffffffffffffffffffff8216611c42576040517f08c379a0000000000000000000000000000000000000000000000000000000008152600401808060200182810382526023815260200180612c2c6023913960400191505060405180910390fd5b611c4d838383612634565b611c9781604051806060016040528060268152602001612db06026913973ffffffffffffffffffffffffffffffffffffffff86166000908152600160205260409020549190611d3c565b73ffffffffffffffffffffffffffffffffffffffff8085166000908152600160205260408082209390935590841681522054611cd39082611ef3565b73ffffffffffffffffffffffffffffffffffffffff80841660008181526001602090815260409182902094909455805185815290519193928716927fddf252ad1be2c89b69c2b068fc378daa952ba7f163c4a11628f55a4df523b3ef92918290030190a3505050565b60008184841115611de5576040517f08c379a00000000000000000000000000000000000000000000000000000000081526004018080602001828103825283818151815260200191508051906020019080838360005b83811015611daa578181015183820152602001611d92565b50505050905090810190601f168015611dd75780820380516001836020036101000a031916815260200191505b509250505060405180910390fd5b505050900390565b6000828152602081905260409020611e0590826119fd565b15610c1057611e12611a1f565b73ffffffffffffffffffffffffffffffffffffffff168173ffffffffffffffffffffffffffffffffffffffff16837f2f8788117e7eff1d82e926ec794901d17c78024a50270940304540a733656f0d60405160405180910390a45050565b6000828152602081905260409020611e88908261276c565b15610c1057611e95611a1f565b73ffffffffffffffffffffffffffffffffffffffff168173ffffffffffffffffffffffffffffffffffffffff16837ff6391f5c32d9c69d2a47ea670b442974b53935d1edc7fd64eb21e047a839171b60405160405180910390a45050565b60008282018381101561116457604080517f08c379a000000000000000000000000000000000000000000000000000000000815260206004820152601b60248201527f536166654d6174683a206164646974696f6e206f766572666c6f770000000000604482015290519081900360640190fd5b600654610100900460ff16611fdd57604080517f08c379a000000000000000000000000000000000000000000000000000000000815260206004820152601460248201527f5061757361626c653a206e6f7420706175736564000000000000000000000000604482015290519081900360640190fd5b600680547fffffffffffffffffffffffffffffffffffffffffffffffffffffffffffff00ff1690557f5db9ee0a495bf2e6ff9c91a7834c1ba4fdd244a5e8aa4e537bd38aeae4b073aa61202e611a1f565b6040805173ffffffffffffffffffffffffffffffffffffffff9092168252519081900360200190a1565b73ffffffffffffffffffffffffffffffffffffffff82166120da57604080517f08c379a000000000000000000000000000000000000000000000000000000000815260206004820152601f60248201527f45524332303a206d696e7420746f20746865207a65726f206164647265737300604482015290519081900360640190fd5b6120e660008383612634565b6003546120f39082611ef3565b60035573ffffffffffffffffffffffffffffffffffffffff82166000908152600160205260409020546121269082611ef3565b73ffffffffffffffffffffffffffffffffffffffff831660008181526001602090815260408083209490945583518581529351929391927fddf252ad1be2c89b69c2b068fc378daa952ba7f163c4a11628f55a4df523b3ef9281900390910190a35050565b73ffffffffffffffffffffffffffffffffffffffff82166121f7576040517f08c379a0000000000000000000000000000000000000000000000000000000008152600401808060200182810382526021815260200180612f2c6021913960400191505060405180910390fd5b61220382600083612634565b61224d81604051806060016040528060228152602001612cdc6022913973ffffffffffffffffffffffffffffffffffffffff85166000908152600160205260409020549190611d3c565b73ffffffffffffffffffffffffffffffffffffffff831660009081526001602052604090205560035461228090826125a8565b60035560408051828152905160009173ffffffffffffffffffffffffffffffffffffffff8516917fddf252ad1be2c89b69c2b068fc378daa952ba7f163c4a11628f55a4df523b3ef9181900360200190a35050565b6000806000841161234757604080517f08c379a000000000000000000000000000000000000000000000000000000000815260206004820152601660248201527f4552433230536e617073686f743a206964206973203000000000000000000000604482015290519081900360640190fd5b612351600a61278e565b8411156123bf57604080517f08c379a000000000000000000000000000000000000000000000000000000000815260206004820152601d60248201527f4552433230536e617073686f743a206e6f6e6578697374656e74206964000000604482015290519081900360640190fd5b60006123cb8486612792565b84549091508114156123e4576000809250925050612406565b60018460010182815481106123f557fe5b906000526020600020015492509250505b9250929050565b600654610100900460ff161561248457604080517f08c379a000000000000000000000000000000000000000000000000000000000815260206004820152601060248201527f5061757361626c653a2070617573656400000000000000000000000000000000604482015290519081900360640190fd5b600680547fffffffffffffffffffffffffffffffffffffffffffffffffffffffffffff00ff166101001790557f62e78cea01bee320cd4e420270b5ea74000d11b0c9f74754ebdbfc544b05a25861202e611a1f565b60006111648383612851565b60006111648373ffffffffffffffffffffffffffffffffffffffff84166128cf565b6000612513600a6128e7565b600061251f600a61278e565b6040805182815290519192507f8030e83b04d87bef53480e26263266d6ca66863aa8506aca6f2559d18aa1cb67919081900360200190a1905090565b6000610a1e8261278e565b600061116483836040518060400160405280601a81526020017f536166654d6174683a206469766973696f6e206279207a65726f0000000000008152506128f0565b600061116483836040518060400160405280601e81526020017f536166654d6174683a207375627472616374696f6e206f766572666c6f770000815250611d3c565b60006125f683836128cf565b61262c57508154600181810184556000848152602080822090930184905584548482528286019093526040902091909155610a1e565b506000610a1e565b61263f83838361296f565b612647610ff9565b158061267a575061267a7f65d7a28e3265b37a6474929f336521b332c1681b933f6cb9f3376673440d862a610a31611a1f565b6126cf576040517f08c379a000000000000000000000000000000000000000000000000000000000815260040180806020018281038252603b815260200180612ecd603b913960400191505060405180910390fd5b73ffffffffffffffffffffffffffffffffffffffff83166110a857600b546126ff826126f9610a9d565b90611ef3565b11156110a857604080517f08c379a000000000000000000000000000000000000000000000000000000000815260206004820152601960248201527f45524332304361707065643a2063617020657863656564656400000000000000604482015290519081900360640190fd5b60006111648373ffffffffffffffffffffffffffffffffffffffff84166129e1565b5490565b81546000906127a357506000610a1e565b82546000905b808210156127f25760006127bd8383612ac5565b9050848682815481106127cc57fe5b906000526020600020015411156127e5578091506127ec565b8060010192505b506127a9565b60008211801561281a57508385600184038154811061280d57fe5b9060005260206000200154145b1561284957507fffffffffffffffffffffffffffffffffffffffffffffffffffffffffffffffff019050610a1e565b509050610a1e565b815460009082106128ad576040517f08c379a0000000000000000000000000000000000000000000000000000000008152600401808060200182810382526022815260200180612c0a6022913960400191505060405180910390fd5b8260000182815481106128bc57fe5b9060005260206000200154905092915050565b60009081526001919091016020526040902054151590565b80546001019055565b60008183612959576040517f08c379a0000000000000000000000000000000000000000000000000000000008152602060048201818152835160248401528351909283926044909101919085019080838360008315611daa578181015183820152602001611d92565b50600083858161296557fe5b0495945050505050565b61297a8383836110a8565b73ffffffffffffffffffffffffffffffffffffffff83166129ab5761299e82612aea565b6129a6612b21565b6110a8565b73ffffffffffffffffffffffffffffffffffffffff82166129cf5761299e83612aea565b6129d883612aea565b6110a882612aea565b60008181526001830160205260408120548015612abb5783547fffffffffffffffffffffffffffffffffffffffffffffffffffffffffffffffff8083019190810190600090879083908110612a3257fe5b9060005260206000200154905080876000018481548110612a4f57fe5b600091825260208083209091019290925582815260018981019092526040902090840190558654879080612a7f57fe5b60019003818190600052602060002001600090559055866001016000878152602001908152602001600020600090556001945050505050610a1e565b6000915050610a1e565b60006002808306600285060181612ad857fe5b04600283046002850401019392505050565b73ffffffffffffffffffffffffffffffffffffffff81166000908152600760205260409020610a9a90612b1c8361102b565b612b2e565b610db26008612b1c610a9d565b6000612b3a600a61278e565b905080612b4684612b7a565b10156110a8578254600180820185556000858152602080822090930193909355938401805494850181558252902090910155565b8054600090612b8b57506000610b57565b815482907fffffffffffffffffffffffffffffffffffffffffffffffffffffffffffffffff8101908110612bbb57fe5b90600052602060002001549050610b5756fe505275463a5046533a20436f6c642057616c6c6574202d20547275737465642070617961626c652066756e6374696f6e732070726f68696269746564456e756d657261626c655365743a20696e646578206f7574206f6620626f756e647345524332303a207472616e7366657220746f20746865207a65726f2061646472657373416363657373436f6e74726f6c3a2073656e646572206d75737420626520616e2061646d696e20746f206772616e74505275463a4d4f443a20547275737465642050617961626c652046756e6374696f6e207065726d616e656e746c792064697361626c6564202d2075736520616c6c6f77616e6365202f207472616e7366657246726f6d207061747465726e45524332303a206275726e20616d6f756e7420657863656564732062616c616e636545524332303a20617070726f766520746f20746865207a65726f2061646472657373505275463a5441543a20436f6c642057616c6c6574202d20547275737465642066756e6374696f6e732070726f68696269746564505275463a4d4f443a2054727573746564204167656e742066756e6374696f6e207065726d616e656e746c792064697361626c6564202d2075736520616c6c6f77616e6365202f207472616e7366657246726f6d207061747465726e45524332303a207472616e7366657220616d6f756e7420657863656564732062616c616e6365416363657373436f6e74726f6c3a2073656e646572206d75737420626520616e2061646d696e20746f207265766f6b6545524332305072657365744d696e7465725061757365723a206d757374206861766520736e617073686f7420726f6c6520746f2074616b65206120736e617073686f74505275463a5353413a207061796d656e7420616464726573732063616e6e6f74206265207a65726f45524332303a207472616e7366657220616d6f756e74206578636565647320616c6c6f77616e6365505275463a42524e3a20436f6c642057616c6c6574202d20547275737465642066756e6374696f6e732070726f6869626974656445524332305061757361626c653a2066756e6374696f6e20756e617661696c626c65207768696c6520636f6e74726163742069732070617573656445524332303a206275726e20616d6f756e74206578636565647320616c6c6f77616e636545524332303a206275726e2066726f6d20746865207a65726f206164647265737345524332303a207472616e736665722066726f6d20746865207a65726f2061646472657373505275463a4d4f443a206d75737420686176652044454641554c545f41444d494e5f524f4c4545524332303a20617070726f76652066726f6d20746865207a65726f2061646472657373505275463a4d4f443a206d757374206861766520545255535445445f4147454e545f524f4c4545524332303a2064656372656173656420616c6c6f77616e63652062656c6f77207a65726f416363657373436f6e74726f6c3a2063616e206f6e6c792072656e6f756e636520726f6c657320666f722073656c66a26469706673582212208317da3565e101010a007e9c84299cecd25abefe6bc2b698ba82e8398141624064736f6c634300060c0033",
			"opcodes": "PUSH1 0x80 PUSH1 0x40 MSTORE PUSH12 0xCECB8F27F4200F3A0000000 PUSH1 0xB SSTORE PUSH1 0xC DUP1 SLOAD PUSH1 0x1 PUSH1 0x1 PUSH1 0xA0 SHL SUB NOT AND SWAP1 SSTORE PUSH1 0x1 PUSH1 0xD SSTORE CALLVALUE DUP1 ISZERO PUSH3 0x36 JUMPI PUSH1 0x0 DUP1 REVERT JUMPDEST POP PUSH1 0x40 MLOAD DUP1 PUSH1 0x40 ADD PUSH1 0x40 MSTORE DUP1 PUSH1 0xD DUP2 MSTORE PUSH1 0x20 ADD PUSH13 0x5052C3BC46204E6574776F726B PUSH1 0x98 SHL DUP2 MSTORE POP PUSH1 0x40 MLOAD DUP1 PUSH1 0x40 ADD PUSH1 0x40 MSTORE DUP1 PUSH1 0x4 DUP2 MSTORE PUSH1 0x20 ADD PUSH4 0x28292AA3 PUSH1 0xE1 SHL DUP2 MSTORE POP DUP2 PUSH1 0x4 SWAP1 DUP1 MLOAD SWAP1 PUSH1 0x20 ADD SWAP1 PUSH3 0x92 SWAP3 SWAP2 SWAP1 PUSH3 0x24D JUMP JUMPDEST POP DUP1 MLOAD PUSH3 0xA8 SWAP1 PUSH1 0x5 SWAP1 PUSH1 0x20 DUP5 ADD SWAP1 PUSH3 0x24D JUMP JUMPDEST POP POP PUSH1 0x6 DUP1 SLOAD PUSH2 0xFF00 NOT PUSH1 0xFF NOT SWAP1 SWAP2 AND PUSH1 0x12 OR AND SWAP1 SSTORE POP PUSH3 0xD5 PUSH1 0x0 PUSH3 0xCF PUSH3 0x139 JUMP JUMPDEST PUSH3 0x13D JUMP JUMPDEST PUSH3 0x104 PUSH32 0x9F2DF0FED2C77648DE5860A4CC508CD0818C85B8B8A1AB4CEEEF8D981C8956A6 PUSH3 0xCF PUSH3 0x139 JUMP JUMPDEST PUSH3 0x133 PUSH32 0x65D7A28E3265B37A6474929F336521B332C1681B933F6CB9F3376673440D862A PUSH3 0xCF PUSH3 0x139 JUMP JUMPDEST PUSH3 0x2E9 JUMP JUMPDEST CALLER SWAP1 JUMP JUMPDEST PUSH3 0x149 DUP3 DUP3 PUSH3 0x14D JUMP JUMPDEST POP POP JUMP JUMPDEST PUSH1 0x0 DUP3 DUP2 MSTORE PUSH1 0x20 DUP2 DUP2 MSTORE PUSH1 0x40 SWAP1 SWAP2 KECCAK256 PUSH3 0x172 SWAP2 DUP4 SWAP1 PUSH3 0x19FD PUSH3 0x1C6 DUP3 SHL OR SWAP1 SHR JUMP JUMPDEST ISZERO PUSH3 0x149 JUMPI PUSH3 0x182 PUSH3 0x139 JUMP JUMPDEST PUSH1 0x1 PUSH1 0x1 PUSH1 0xA0 SHL SUB AND DUP2 PUSH1 0x1 PUSH1 0x1 PUSH1 0xA0 SHL SUB AND DUP4 PUSH32 0x2F8788117E7EFF1D82E926EC794901D17C78024A50270940304540A733656F0D PUSH1 0x40 MLOAD PUSH1 0x40 MLOAD DUP1 SWAP2 SUB SWAP1 LOG4 POP POP JUMP JUMPDEST PUSH1 0x0 PUSH3 0x1DD DUP4 PUSH1 0x1 PUSH1 0x1 PUSH1 0xA0 SHL SUB DUP5 AND PUSH3 0x1E6 JUMP JUMPDEST SWAP1 POP JUMPDEST SWAP3 SWAP2 POP POP JUMP JUMPDEST PUSH1 0x0 PUSH3 0x1F4 DUP4 DUP4 PUSH3 0x235 JUMP JUMPDEST PUSH3 0x22C JUMPI POP DUP2 SLOAD PUSH1 0x1 DUP2 DUP2 ADD DUP5 SSTORE PUSH1 0x0 DUP5 DUP2 MSTORE PUSH1 0x20 DUP1 DUP3 KECCAK256 SWAP1 SWAP4 ADD DUP5 SWAP1 SSTORE DUP5 SLOAD DUP5 DUP3 MSTORE DUP3 DUP7 ADD SWAP1 SWAP4 MSTORE PUSH1 0x40 SWAP1 KECCAK256 SWAP2 SWAP1 SWAP2 SSTORE PUSH3 0x1E0 JUMP JUMPDEST POP PUSH1 0x0 PUSH3 0x1E0 JUMP JUMPDEST PUSH1 0x0 SWAP1 DUP2 MSTORE PUSH1 0x1 SWAP2 SWAP1 SWAP2 ADD PUSH1 0x20 MSTORE PUSH1 0x40 SWAP1 KECCAK256 SLOAD ISZERO ISZERO SWAP1 JUMP JUMPDEST DUP3 DUP1 SLOAD PUSH1 0x1 DUP2 PUSH1 0x1 AND ISZERO PUSH2 0x100 MUL SUB AND PUSH1 0x2 SWAP1 DIV SWAP1 PUSH1 0x0 MSTORE PUSH1 0x20 PUSH1 0x0 KECCAK256 SWAP1 PUSH1 0x1F ADD PUSH1 0x20 SWAP1 DIV DUP2 ADD SWAP3 DUP3 PUSH1 0x1F LT PUSH3 0x290 JUMPI DUP1 MLOAD PUSH1 0xFF NOT AND DUP4 DUP1 ADD OR DUP6 SSTORE PUSH3 0x2C0 JUMP JUMPDEST DUP3 DUP1 ADD PUSH1 0x1 ADD DUP6 SSTORE DUP3 ISZERO PUSH3 0x2C0 JUMPI SWAP2 DUP3 ADD JUMPDEST DUP3 DUP2 GT ISZERO PUSH3 0x2C0 JUMPI DUP3 MLOAD DUP3 SSTORE SWAP2 PUSH1 0x20 ADD SWAP2 SWAP1 PUSH1 0x1 ADD SWAP1 PUSH3 0x2A3 JUMP JUMPDEST POP PUSH3 0x2CE SWAP3 SWAP2 POP PUSH3 0x2D2 JUMP JUMPDEST POP SWAP1 JUMP JUMPDEST JUMPDEST DUP1 DUP3 GT ISZERO PUSH3 0x2CE JUMPI PUSH1 0x0 DUP2 SSTORE PUSH1 0x1 ADD PUSH3 0x2D3 JUMP JUMPDEST PUSH2 0x306B DUP1 PUSH3 0x2F9 PUSH1 0x0 CODECOPY PUSH1 0x0 RETURN INVALID PUSH1 0x80 PUSH1 0x40 MSTORE CALLVALUE DUP1 ISZERO PUSH2 0x10 JUMPI PUSH1 0x0 DUP1 REVERT JUMPDEST POP PUSH1 0x4 CALLDATASIZE LT PUSH2 0x2DE JUMPI PUSH1 0x0 CALLDATALOAD PUSH1 0xE0 SHR DUP1 PUSH4 0x79CC6790 GT PUSH2 0x186 JUMPI DUP1 PUSH4 0xA9059CBB GT PUSH2 0xE3 JUMPI DUP1 PUSH4 0xCA15C873 GT PUSH2 0x97 JUMPI DUP1 PUSH4 0xDD62ED3E GT PUSH2 0x71 JUMPI DUP1 PUSH4 0xDD62ED3E EQ PUSH2 0x8BE JUMPI DUP1 PUSH4 0xE60F0B98 EQ PUSH2 0x8F9 JUMPI DUP1 PUSH4 0xE63AB1E9 EQ PUSH2 0x94A JUMPI PUSH2 0x2DE JUMP JUMPDEST DUP1 PUSH4 0xCA15C873 EQ PUSH2 0x860 JUMPI DUP1 PUSH4 0xD5391393 EQ PUSH2 0x87D JUMPI DUP1 PUSH4 0xD547741F EQ PUSH2 0x885 JUMPI PUSH2 0x2DE JUMP JUMPDEST DUP1 PUSH4 0xADFCAAE0 GT PUSH2 0xC8 JUMPI DUP1 PUSH4 0xADFCAAE0 EQ PUSH2 0x848 JUMPI DUP1 PUSH4 0xB3B0AF6C EQ PUSH2 0x850 JUMPI DUP1 PUSH4 0xB3D3D37E EQ PUSH2 0x858 JUMPI PUSH2 0x2DE JUMP JUMPDEST DUP1 PUSH4 0xA9059CBB EQ PUSH2 0x7D6 JUMPI DUP1 PUSH4 0xAC416253 EQ PUSH2 0x80F JUMPI PUSH2 0x2DE JUMP JUMPDEST DUP1 PUSH4 0x981B24D0 GT PUSH2 0x13A JUMPI DUP1 PUSH4 0x9B30D1E9 GT PUSH2 0x11F JUMPI DUP1 PUSH4 0x9B30D1E9 EQ PUSH2 0x752 JUMPI DUP1 PUSH4 0xA217FDDF EQ PUSH2 0x795 JUMPI DUP1 PUSH4 0xA457C2D7 EQ PUSH2 0x79D JUMPI PUSH2 0x2DE JUMP JUMPDEST DUP1 PUSH4 0x981B24D0 EQ PUSH2 0x72D JUMPI DUP1 PUSH4 0x992A7176 EQ PUSH2 0x74A JUMPI PUSH2 0x2DE JUMP JUMPDEST DUP1 PUSH4 0x9010D07C GT PUSH2 0x16B JUMPI DUP1 PUSH4 0x9010D07C EQ PUSH2 0x6A0 JUMPI DUP1 PUSH4 0x91D14854 EQ PUSH2 0x6EC JUMPI DUP1 PUSH4 0x95D89B41 EQ PUSH2 0x725 JUMPI PUSH2 0x2DE JUMP JUMPDEST DUP1 PUSH4 0x79CC6790 EQ PUSH2 0x65F JUMPI DUP1 PUSH4 0x8456CB59 EQ PUSH2 0x698 JUMPI PUSH2 0x2DE JUMP JUMPDEST DUP1 PUSH4 0x36568ABE GT PUSH2 0x23F JUMPI DUP1 PUSH4 0x4AC3C31B GT PUSH2 0x1F3 JUMPI DUP1 PUSH4 0x5C975ABB GT PUSH2 0x1CD JUMPI DUP1 PUSH4 0x5C975ABB EQ PUSH2 0x61C JUMPI DUP1 PUSH4 0x7028E2CD EQ PUSH2 0x624 JUMPI DUP1 PUSH4 0x70A08231 EQ PUSH2 0x62C JUMPI PUSH2 0x2DE JUMP JUMPDEST DUP1 PUSH4 0x4AC3C31B EQ PUSH2 0x57D JUMPI DUP1 PUSH4 0x4EE2CD7E EQ PUSH2 0x5B0 JUMPI DUP1 PUSH4 0x50C7A35C EQ PUSH2 0x5E9 JUMPI PUSH2 0x2DE JUMP JUMPDEST DUP1 PUSH4 0x3F4BA83A GT PUSH2 0x224 JUMPI DUP1 PUSH4 0x3F4BA83A EQ PUSH2 0x51F JUMPI DUP1 PUSH4 0x40C10F19 EQ PUSH2 0x527 JUMPI DUP1 PUSH4 0x42966C68 EQ PUSH2 0x560 JUMPI PUSH2 0x2DE JUMP JUMPDEST DUP1 PUSH4 0x36568ABE EQ PUSH2 0x4AD JUMPI DUP1 PUSH4 0x39509351 EQ PUSH2 0x4E6 JUMPI PUSH2 0x2DE JUMP JUMPDEST DUP1 PUSH4 0x248A9CA3 GT PUSH2 0x296 JUMPI DUP1 PUSH4 0x2F2FF15D GT PUSH2 0x27B JUMPI DUP1 PUSH4 0x2F2FF15D EQ PUSH2 0x44E JUMPI DUP1 PUSH4 0x313CE567 EQ PUSH2 0x487 JUMPI DUP1 PUSH4 0x355274EA EQ PUSH2 0x4A5 JUMPI PUSH2 0x2DE JUMP JUMPDEST DUP1 PUSH4 0x248A9CA3 EQ PUSH2 0x429 JUMPI DUP1 PUSH4 0x2670D216 EQ PUSH2 0x446 JUMPI PUSH2 0x2DE JUMP JUMPDEST DUP1 PUSH4 0x113E6C0C GT PUSH2 0x2C7 JUMPI DUP1 PUSH4 0x113E6C0C EQ PUSH2 0x3AD JUMPI DUP1 PUSH4 0x18160DDD EQ PUSH2 0x3CC JUMPI DUP1 PUSH4 0x23B872DD EQ PUSH2 0x3E6 JUMPI PUSH2 0x2DE JUMP JUMPDEST DUP1 PUSH4 0x6FDDE03 EQ PUSH2 0x2E3 JUMPI DUP1 PUSH4 0x95EA7B3 EQ PUSH2 0x360 JUMPI JUMPDEST PUSH1 0x0 DUP1 REVERT JUMPDEST PUSH2 0x2EB PUSH2 0x952 JUMP JUMPDEST PUSH1 0x40 DUP1 MLOAD PUSH1 0x20 DUP1 DUP3 MSTORE DUP4 MLOAD DUP2 DUP4 ADD MSTORE DUP4 MLOAD SWAP2 SWAP3 DUP4 SWAP3 SWAP1 DUP4 ADD SWAP2 DUP6 ADD SWAP1 DUP1 DUP4 DUP4 PUSH1 0x0 JUMPDEST DUP4 DUP2 LT ISZERO PUSH2 0x325 JUMPI DUP2 DUP2 ADD MLOAD DUP4 DUP3 ADD MSTORE PUSH1 0x20 ADD PUSH2 0x30D JUMP JUMPDEST POP POP POP POP SWAP1 POP SWAP1 DUP2 ADD SWAP1 PUSH1 0x1F AND DUP1 ISZERO PUSH2 0x352 JUMPI DUP1 DUP3 SUB DUP1 MLOAD PUSH1 0x1 DUP4 PUSH1 0x20 SUB PUSH2 0x100 EXP SUB NOT AND DUP2 MSTORE PUSH1 0x20 ADD SWAP2 POP JUMPDEST POP SWAP3 POP POP POP PUSH1 0x40 MLOAD DUP1 SWAP2 SUB SWAP1 RETURN JUMPDEST PUSH2 0x399 PUSH1 0x4 DUP1 CALLDATASIZE SUB PUSH1 0x40 DUP2 LT ISZERO PUSH2 0x376 JUMPI PUSH1 0x0 DUP1 REVERT JUMPDEST POP PUSH20 0xFFFFFFFFFFFFFFFFFFFFFFFFFFFFFFFFFFFFFFFF DUP2 CALLDATALOAD AND SWAP1 PUSH1 0x20 ADD CALLDATALOAD PUSH2 0xA06 JUMP JUMPDEST PUSH1 0x40 DUP1 MLOAD SWAP2 ISZERO ISZERO DUP3 MSTORE MLOAD SWAP1 DUP2 SWAP1 SUB PUSH1 0x20 ADD SWAP1 RETURN JUMPDEST PUSH2 0x3CA PUSH1 0x4 DUP1 CALLDATASIZE SUB PUSH1 0x20 DUP2 LT ISZERO PUSH2 0x3C3 JUMPI PUSH1 0x0 DUP1 REVERT JUMPDEST POP CALLDATALOAD PUSH2 0xA24 JUMP JUMPDEST STOP JUMPDEST PUSH2 0x3D4 PUSH2 0xA9D JUMP JUMPDEST PUSH1 0x40 DUP1 MLOAD SWAP2 DUP3 MSTORE MLOAD SWAP1 DUP2 SWAP1 SUB PUSH1 0x20 ADD SWAP1 RETURN JUMPDEST PUSH2 0x399 PUSH1 0x4 DUP1 CALLDATASIZE SUB PUSH1 0x60 DUP2 LT ISZERO PUSH2 0x3FC JUMPI PUSH1 0x0 DUP1 REVERT JUMPDEST POP PUSH20 0xFFFFFFFFFFFFFFFFFFFFFFFFFFFFFFFFFFFFFFFF DUP2 CALLDATALOAD DUP2 AND SWAP2 PUSH1 0x20 DUP2 ADD CALLDATALOAD SWAP1 SWAP2 AND SWAP1 PUSH1 0x40 ADD CALLDATALOAD PUSH2 0xAA3 JUMP JUMPDEST PUSH2 0x3D4 PUSH1 0x4 DUP1 CALLDATASIZE SUB PUSH1 0x20 DUP2 LT ISZERO PUSH2 0x43F JUMPI PUSH1 0x0 DUP1 REVERT JUMPDEST POP CALLDATALOAD PUSH2 0xB44 JUMP JUMPDEST PUSH2 0x3CA PUSH2 0xB5C JUMP JUMPDEST PUSH2 0x3CA PUSH1 0x4 DUP1 CALLDATASIZE SUB PUSH1 0x40 DUP2 LT ISZERO PUSH2 0x464 JUMPI PUSH1 0x0 DUP1 REVERT JUMPDEST POP DUP1 CALLDATALOAD SWAP1 PUSH1 0x20 ADD CALLDATALOAD PUSH20 0xFFFFFFFFFFFFFFFFFFFFFFFFFFFFFFFFFFFFFFFF AND PUSH2 0xB93 JUMP JUMPDEST PUSH2 0x48F PUSH2 0xC14 JUMP JUMPDEST PUSH1 0x40 DUP1 MLOAD PUSH1 0xFF SWAP1 SWAP3 AND DUP3 MSTORE MLOAD SWAP1 DUP2 SWAP1 SUB PUSH1 0x20 ADD SWAP1 RETURN JUMPDEST PUSH2 0x3D4 PUSH2 0xC1D JUMP JUMPDEST PUSH2 0x3CA PUSH1 0x4 DUP1 CALLDATASIZE SUB PUSH1 0x40 DUP2 LT ISZERO PUSH2 0x4C3 JUMPI PUSH1 0x0 DUP1 REVERT JUMPDEST POP DUP1 CALLDATALOAD SWAP1 PUSH1 0x20 ADD CALLDATALOAD PUSH20 0xFFFFFFFFFFFFFFFFFFFFFFFFFFFFFFFFFFFFFFFF AND PUSH2 0xC23 JUMP JUMPDEST PUSH2 0x399 PUSH1 0x4 DUP1 CALLDATASIZE SUB PUSH1 0x40 DUP2 LT ISZERO PUSH2 0x4FC JUMPI PUSH1 0x0 DUP1 REVERT JUMPDEST POP PUSH20 0xFFFFFFFFFFFFFFFFFFFFFFFFFFFFFFFFFFFFFFFF DUP2 CALLDATALOAD AND SWAP1 PUSH1 0x20 ADD CALLDATALOAD PUSH2 0xCB8 JUMP JUMPDEST PUSH2 0x3CA PUSH2 0xD13 JUMP JUMPDEST PUSH2 0x3CA PUSH1 0x4 DUP1 CALLDATASIZE SUB PUSH1 0x40 DUP2 LT ISZERO PUSH2 0x53D JUMPI PUSH1 0x0 DUP1 REVERT JUMPDEST POP PUSH20 0xFFFFFFFFFFFFFFFFFFFFFFFFFFFFFFFFFFFFFFFF DUP2 CALLDATALOAD AND SWAP1 PUSH1 0x20 ADD CALLDATALOAD PUSH2 0xDB4 JUMP JUMPDEST PUSH2 0x3CA PUSH1 0x4 DUP1 CALLDATASIZE SUB PUSH1 0x20 DUP2 LT ISZERO PUSH2 0x576 JUMPI PUSH1 0x0 DUP1 REVERT JUMPDEST POP CALLDATALOAD PUSH2 0xE55 JUMP JUMPDEST PUSH2 0x3D4 PUSH1 0x4 DUP1 CALLDATASIZE SUB PUSH1 0x20 DUP2 LT ISZERO PUSH2 0x593 JUMPI PUSH1 0x0 DUP1 REVERT JUMPDEST POP CALLDATALOAD PUSH20 0xFFFFFFFFFFFFFFFFFFFFFFFFFFFFFFFFFFFFFFFF AND PUSH2 0xE66 JUMP JUMPDEST PUSH2 0x3D4 PUSH1 0x4 DUP1 CALLDATASIZE SUB PUSH1 0x40 DUP2 LT ISZERO PUSH2 0x5C6 JUMPI PUSH1 0x0 DUP1 REVERT JUMPDEST POP PUSH20 0xFFFFFFFFFFFFFFFFFFFFFFFFFFFFFFFFFFFFFFFF DUP2 CALLDATALOAD AND SWAP1 PUSH1 0x20 ADD CALLDATALOAD PUSH2 0xE8E JUMP JUMPDEST PUSH2 0x3CA PUSH1 0x4 DUP1 CALLDATASIZE SUB PUSH1 0x20 DUP2 LT ISZERO PUSH2 0x5FF JUMPI PUSH1 0x0 DUP1 REVERT JUMPDEST POP CALLDATALOAD PUSH20 0xFFFFFFFFFFFFFFFFFFFFFFFFFFFFFFFFFFFFFFFF AND PUSH2 0xEE4 JUMP JUMPDEST PUSH2 0x399 PUSH2 0xFF9 JUMP JUMPDEST PUSH2 0x3D4 PUSH2 0x1007 JUMP JUMPDEST PUSH2 0x3D4 PUSH1 0x4 DUP1 CALLDATASIZE SUB PUSH1 0x20 DUP2 LT ISZERO PUSH2 0x642 JUMPI PUSH1 0x0 DUP1 REVERT JUMPDEST POP CALLDATALOAD PUSH20 0xFFFFFFFFFFFFFFFFFFFFFFFFFFFFFFFFFFFFFFFF AND PUSH2 0x102B JUMP JUMPDEST PUSH2 0x3CA PUSH1 0x4 DUP1 CALLDATASIZE SUB PUSH1 0x40 DUP2 LT ISZERO PUSH2 0x675 JUMPI PUSH1 0x0 DUP1 REVERT JUMPDEST POP PUSH20 0xFFFFFFFFFFFFFFFFFFFFFFFFFFFFFFFFFFFFFFFF DUP2 CALLDATALOAD AND SWAP1 PUSH1 0x20 ADD CALLDATALOAD PUSH2 0x1053 JUMP JUMPDEST PUSH2 0x3CA PUSH2 0x10AD JUMP JUMPDEST PUSH2 0x6C3 PUSH1 0x4 DUP1 CALLDATASIZE SUB PUSH1 0x40 DUP2 LT ISZERO PUSH2 0x6B6 JUMPI PUSH1 0x0 DUP1 REVERT JUMPDEST POP DUP1 CALLDATALOAD SWAP1 PUSH1 0x20 ADD CALLDATALOAD PUSH2 0x114C JUMP JUMPDEST PUSH1 0x40 DUP1 MLOAD PUSH20 0xFFFFFFFFFFFFFFFFFFFFFFFFFFFFFFFFFFFFFFFF SWAP1 SWAP3 AND DUP3 MSTORE MLOAD SWAP1 DUP2 SWAP1 SUB PUSH1 0x20 ADD SWAP1 RETURN JUMPDEST PUSH2 0x399 PUSH1 0x4 DUP1 CALLDATASIZE SUB PUSH1 0x40 DUP2 LT ISZERO PUSH2 0x702 JUMPI PUSH1 0x0 DUP1 REVERT JUMPDEST POP DUP1 CALLDATALOAD SWAP1 PUSH1 0x20 ADD CALLDATALOAD PUSH20 0xFFFFFFFFFFFFFFFFFFFFFFFFFFFFFFFFFFFFFFFF AND PUSH2 0x116B JUMP JUMPDEST PUSH2 0x2EB PUSH2 0x1183 JUMP JUMPDEST PUSH2 0x3D4 PUSH1 0x4 DUP1 CALLDATASIZE SUB PUSH1 0x20 DUP2 LT ISZERO PUSH2 0x743 JUMPI PUSH1 0x0 DUP1 REVERT JUMPDEST POP CALLDATALOAD PUSH2 0x1202 JUMP JUMPDEST PUSH2 0x3D4 PUSH2 0x1232 JUMP JUMPDEST PUSH2 0x3CA PUSH1 0x4 DUP1 CALLDATASIZE SUB PUSH1 0x60 DUP2 LT ISZERO PUSH2 0x768 JUMPI PUSH1 0x0 DUP1 REVERT JUMPDEST POP PUSH20 0xFFFFFFFFFFFFFFFFFFFFFFFFFFFFFFFFFFFFFFFF DUP2 CALLDATALOAD DUP2 AND SWAP2 PUSH1 0x20 DUP2 ADD CALLDATALOAD SWAP1 SWAP2 AND SWAP1 PUSH1 0x40 ADD CALLDATALOAD PUSH2 0x1256 JUMP JUMPDEST PUSH2 0x3D4 PUSH2 0x13B9 JUMP JUMPDEST PUSH2 0x399 PUSH1 0x4 DUP1 CALLDATASIZE SUB PUSH1 0x40 DUP2 LT ISZERO PUSH2 0x7B3 JUMPI PUSH1 0x0 DUP1 REVERT JUMPDEST POP PUSH20 0xFFFFFFFFFFFFFFFFFFFFFFFFFFFFFFFFFFFFFFFF DUP2 CALLDATALOAD AND SWAP1 PUSH1 0x20 ADD CALLDATALOAD PUSH2 0x13BE JUMP JUMPDEST PUSH2 0x399 PUSH1 0x4 DUP1 CALLDATASIZE SUB PUSH1 0x40 DUP2 LT ISZERO PUSH2 0x7EC JUMPI PUSH1 0x0 DUP1 REVERT JUMPDEST POP PUSH20 0xFFFFFFFFFFFFFFFFFFFFFFFFFFFFFFFFFFFFFFFF DUP2 CALLDATALOAD AND SWAP1 PUSH1 0x20 ADD CALLDATALOAD PUSH2 0x1433 JUMP JUMPDEST PUSH2 0x3CA PUSH1 0x4 DUP1 CALLDATASIZE SUB PUSH1 0x40 DUP2 LT ISZERO PUSH2 0x825 JUMPI PUSH1 0x0 DUP1 REVERT JUMPDEST POP PUSH20 0xFFFFFFFFFFFFFFFFFFFFFFFFFFFFFFFFFFFFFFFF DUP2 CALLDATALOAD AND SWAP1 PUSH1 0x20 ADD CALLDATALOAD PUSH2 0x1447 JUMP JUMPDEST PUSH2 0x3CA PUSH2 0x15A9 JUMP JUMPDEST PUSH2 0x3D4 PUSH2 0x15B7 JUMP JUMPDEST PUSH2 0x3D4 PUSH2 0x15DB JUMP JUMPDEST PUSH2 0x3D4 PUSH1 0x4 DUP1 CALLDATASIZE SUB PUSH1 0x20 DUP2 LT ISZERO PUSH2 0x876 JUMPI PUSH1 0x0 DUP1 REVERT JUMPDEST POP CALLDATALOAD PUSH2 0x166B JUMP JUMPDEST PUSH2 0x3D4 PUSH2 0x1682 JUMP JUMPDEST PUSH2 0x3CA PUSH1 0x4 DUP1 CALLDATASIZE SUB PUSH1 0x40 DUP2 LT ISZERO PUSH2 0x89B JUMPI PUSH1 0x0 DUP1 REVERT JUMPDEST POP DUP1 CALLDATALOAD SWAP1 PUSH1 0x20 ADD CALLDATALOAD PUSH20 0xFFFFFFFFFFFFFFFFFFFFFFFFFFFFFFFFFFFFFFFF AND PUSH2 0x16A6 JUMP JUMPDEST PUSH2 0x3D4 PUSH1 0x4 DUP1 CALLDATASIZE SUB PUSH1 0x40 DUP2 LT ISZERO PUSH2 0x8D4 JUMPI PUSH1 0x0 DUP1 REVERT JUMPDEST POP PUSH20 0xFFFFFFFFFFFFFFFFFFFFFFFFFFFFFFFFFFFFFFFF DUP2 CALLDATALOAD DUP2 AND SWAP2 PUSH1 0x20 ADD CALLDATALOAD AND PUSH2 0x1719 JUMP JUMPDEST PUSH2 0x3CA PUSH1 0x4 DUP1 CALLDATASIZE SUB PUSH1 0xA0 DUP2 LT ISZERO PUSH2 0x90F JUMPI PUSH1 0x0 DUP1 REVERT JUMPDEST POP PUSH20 0xFFFFFFFFFFFFFFFFFFFFFFFFFFFFFFFFFFFFFFFF DUP2 CALLDATALOAD DUP2 AND SWAP2 PUSH1 0x20 DUP2 ADD CALLDATALOAD DUP3 AND SWAP2 PUSH1 0x40 DUP3 ADD CALLDATALOAD SWAP2 PUSH1 0x60 DUP2 ADD CALLDATALOAD SWAP1 SWAP2 AND SWAP1 PUSH1 0x80 ADD CALLDATALOAD PUSH2 0x1751 JUMP JUMPDEST PUSH2 0x3D4 PUSH2 0x19D9 JUMP JUMPDEST PUSH1 0x4 DUP1 SLOAD PUSH1 0x40 DUP1 MLOAD PUSH1 0x20 PUSH1 0x1F PUSH1 0x2 PUSH32 0xFFFFFFFFFFFFFFFFFFFFFFFFFFFFFFFFFFFFFFFFFFFFFFFFFFFFFFFFFFFFFFFF PUSH2 0x100 PUSH1 0x1 DUP9 AND ISZERO MUL ADD SWAP1 SWAP6 AND SWAP5 SWAP1 SWAP5 DIV SWAP4 DUP5 ADD DUP2 SWAP1 DIV DUP2 MUL DUP3 ADD DUP2 ADD SWAP1 SWAP3 MSTORE DUP3 DUP2 MSTORE PUSH1 0x60 SWAP4 SWAP1 SWAP3 SWAP1 SWAP2 DUP4 ADD DUP3 DUP3 DUP1 ISZERO PUSH2 0x9FC JUMPI DUP1 PUSH1 0x1F LT PUSH2 0x9D1 JUMPI PUSH2 0x100 DUP1 DUP4 SLOAD DIV MUL DUP4 MSTORE SWAP2 PUSH1 0x20 ADD SWAP2 PUSH2 0x9FC JUMP JUMPDEST DUP3 ADD SWAP2 SWAP1 PUSH1 0x0 MSTORE PUSH1 0x20 PUSH1 0x0 KECCAK256 SWAP1 JUMPDEST DUP2 SLOAD DUP2 MSTORE SWAP1 PUSH1 0x1 ADD SWAP1 PUSH1 0x20 ADD DUP1 DUP4 GT PUSH2 0x9DF JUMPI DUP3 SWAP1 SUB PUSH1 0x1F AND DUP3 ADD SWAP2 JUMPDEST POP POP POP POP POP SWAP1 POP SWAP1 JUMP JUMPDEST PUSH1 0x0 PUSH2 0xA1A PUSH2 0xA13 PUSH2 0x1A1F JUMP JUMPDEST DUP5 DUP5 PUSH2 0x1A23 JUMP JUMPDEST POP PUSH1 0x1 JUMPDEST SWAP3 SWAP2 POP POP JUMP JUMPDEST PUSH2 0xA36 PUSH1 0x0 PUSH2 0xA31 PUSH2 0x1A1F JUMP JUMPDEST PUSH2 0x116B JUMP JUMPDEST PUSH2 0xA8B JUMPI PUSH1 0x40 MLOAD PUSH32 0x8C379A000000000000000000000000000000000000000000000000000000000 DUP2 MSTORE PUSH1 0x4 ADD DUP1 DUP1 PUSH1 0x20 ADD DUP3 DUP2 SUB DUP3 MSTORE PUSH1 0x26 DUP2 MSTORE PUSH1 0x20 ADD DUP1 PUSH2 0x2F72 PUSH1 0x26 SWAP2 CODECOPY PUSH1 0x40 ADD SWAP2 POP POP PUSH1 0x40 MLOAD DUP1 SWAP2 SUB SWAP1 REVERT JUMPDEST DUP1 PUSH1 0xAA EQ ISZERO PUSH2 0xA9A JUMPI PUSH1 0x0 PUSH1 0xD SSTORE JUMPDEST POP JUMP JUMPDEST PUSH1 0x3 SLOAD SWAP1 JUMP JUMPDEST PUSH1 0x0 PUSH2 0xAB0 DUP5 DUP5 DUP5 PUSH2 0x1B6A JUMP JUMPDEST PUSH2 0xB3A DUP5 PUSH2 0xABC PUSH2 0x1A1F JUMP JUMPDEST PUSH2 0xB35 DUP6 PUSH1 0x40 MLOAD DUP1 PUSH1 0x60 ADD PUSH1 0x40 MSTORE DUP1 PUSH1 0x28 DUP2 MSTORE PUSH1 0x20 ADD PUSH2 0x2E71 PUSH1 0x28 SWAP2 CODECOPY PUSH20 0xFFFFFFFFFFFFFFFFFFFFFFFFFFFFFFFFFFFFFFFF DUP11 AND PUSH1 0x0 SWAP1 DUP2 MSTORE PUSH1 0x2 PUSH1 0x20 MSTORE PUSH1 0x40 DUP2 KECCAK256 SWAP1 PUSH2 0xB07 PUSH2 0x1A1F JUMP JUMPDEST PUSH20 0xFFFFFFFFFFFFFFFFFFFFFFFFFFFFFFFFFFFFFFFF AND DUP2 MSTORE PUSH1 0x20 DUP2 ADD SWAP2 SWAP1 SWAP2 MSTORE PUSH1 0x40 ADD PUSH1 0x0 KECCAK256 SLOAD SWAP2 SWAP1 PUSH2 0x1D3C JUMP JUMPDEST PUSH2 0x1A23 JUMP JUMPDEST POP PUSH1 0x1 SWAP4 SWAP3 POP POP POP JUMP JUMPDEST PUSH1 0x0 DUP2 DUP2 MSTORE PUSH1 0x20 DUP2 SWAP1 MSTORE PUSH1 0x40 SWAP1 KECCAK256 PUSH1 0x2 ADD SLOAD JUMPDEST SWAP2 SWAP1 POP JUMP JUMPDEST PUSH1 0x0 PUSH1 0xE PUSH1 0x0 PUSH2 0xB6A PUSH2 0x1A1F JUMP JUMPDEST PUSH20 0xFFFFFFFFFFFFFFFFFFFFFFFFFFFFFFFFFFFFFFFF AND DUP2 MSTORE PUSH1 0x20 DUP2 ADD SWAP2 SWAP1 SWAP2 MSTORE PUSH1 0x40 ADD PUSH1 0x0 KECCAK256 SSTORE JUMP JUMPDEST PUSH1 0x0 DUP3 DUP2 MSTORE PUSH1 0x20 DUP2 SWAP1 MSTORE PUSH1 0x40 SWAP1 KECCAK256 PUSH1 0x2 ADD SLOAD PUSH2 0xBB1 SWAP1 PUSH2 0xA31 PUSH2 0x1A1F JUMP JUMPDEST PUSH2 0xC06 JUMPI PUSH1 0x40 MLOAD PUSH32 0x8C379A000000000000000000000000000000000000000000000000000000000 DUP2 MSTORE PUSH1 0x4 ADD DUP1 DUP1 PUSH1 0x20 ADD DUP3 DUP2 SUB DUP3 MSTORE PUSH1 0x2F DUP2 MSTORE PUSH1 0x20 ADD DUP1 PUSH2 0x2C4F PUSH1 0x2F SWAP2 CODECOPY PUSH1 0x40 ADD SWAP2 POP POP PUSH1 0x40 MLOAD DUP1 SWAP2 SUB SWAP1 REVERT JUMPDEST PUSH2 0xC10 DUP3 DUP3 PUSH2 0x1DED JUMP JUMPDEST POP POP JUMP JUMPDEST PUSH1 0x6 SLOAD PUSH1 0xFF AND SWAP1 JUMP JUMPDEST PUSH1 0xB SLOAD SWAP1 JUMP JUMPDEST PUSH2 0xC2B PUSH2 0x1A1F JUMP JUMPDEST PUSH20 0xFFFFFFFFFFFFFFFFFFFFFFFFFFFFFFFFFFFFFFFF AND DUP2 PUSH20 0xFFFFFFFFFFFFFFFFFFFFFFFFFFFFFFFFFFFFFFFF AND EQ PUSH2 0xCAE JUMPI PUSH1 0x40 MLOAD PUSH32 0x8C379A000000000000000000000000000000000000000000000000000000000 DUP2 MSTORE PUSH1 0x4 ADD DUP1 DUP1 PUSH1 0x20 ADD DUP3 DUP2 SUB DUP3 MSTORE PUSH1 0x2F DUP2 MSTORE PUSH1 0x20 ADD DUP1 PUSH2 0x3007 PUSH1 0x2F SWAP2 CODECOPY PUSH1 0x40 ADD SWAP2 POP POP PUSH1 0x40 MLOAD DUP1 SWAP2 SUB SWAP1 REVERT JUMPDEST PUSH2 0xC10 DUP3 DUP3 PUSH2 0x1E70 JUMP JUMPDEST PUSH1 0x0 PUSH2 0xA1A PUSH2 0xCC5 PUSH2 0x1A1F JUMP JUMPDEST DUP5 PUSH2 0xB35 DUP6 PUSH1 0x2 PUSH1 0x0 PUSH2 0xCD6 PUSH2 0x1A1F JUMP JUMPDEST PUSH20 0xFFFFFFFFFFFFFFFFFFFFFFFFFFFFFFFFFFFFFFFF SWAP1 DUP2 AND DUP3 MSTORE PUSH1 0x20 DUP1 DUP4 ADD SWAP4 SWAP1 SWAP4 MSTORE PUSH1 0x40 SWAP2 DUP3 ADD PUSH1 0x0 SWAP1 DUP2 KECCAK256 SWAP2 DUP13 AND DUP2 MSTORE SWAP3 MSTORE SWAP1 KECCAK256 SLOAD SWAP1 PUSH2 0x1EF3 JUMP JUMPDEST PUSH2 0xD3F PUSH32 0x65D7A28E3265B37A6474929F336521B332C1681B933F6CB9F3376673440D862A PUSH2 0xA31 PUSH2 0x1A1F JUMP JUMPDEST PUSH2 0xDAA JUMPI PUSH1 0x40 DUP1 MLOAD PUSH32 0x8C379A000000000000000000000000000000000000000000000000000000000 DUP2 MSTORE PUSH1 0x20 PUSH1 0x4 DUP3 ADD MSTORE PUSH1 0x1F PUSH1 0x24 DUP3 ADD MSTORE PUSH32 0x505275463A4D4F443A206D7573742068617665205041555345525F524F4C4500 PUSH1 0x44 DUP3 ADD MSTORE SWAP1 MLOAD SWAP1 DUP2 SWAP1 SUB PUSH1 0x64 ADD SWAP1 REVERT JUMPDEST PUSH2 0xDB2 PUSH2 0x1F67 JUMP JUMPDEST JUMP JUMPDEST PUSH2 0xDE0 PUSH32 0x9F2DF0FED2C77648DE5860A4CC508CD0818C85B8B8A1AB4CEEEF8D981C8956A6 PUSH2 0xA31 PUSH2 0x1A1F JUMP JUMPDEST PUSH2 0xE4B JUMPI PUSH1 0x40 DUP1 MLOAD PUSH32 0x8C379A000000000000000000000000000000000000000000000000000000000 DUP2 MSTORE PUSH1 0x20 PUSH1 0x4 DUP3 ADD MSTORE PUSH1 0x1F PUSH1 0x24 DUP3 ADD MSTORE PUSH32 0x505275463A4D4F443A206D7573742068617665204D494E5445525F524F4C4500 PUSH1 0x44 DUP3 ADD MSTORE SWAP1 MLOAD SWAP1 DUP2 SWAP1 SUB PUSH1 0x64 ADD SWAP1 REVERT JUMPDEST PUSH2 0xC10 DUP3 DUP3 PUSH2 0x2058 JUMP JUMPDEST PUSH2 0xA9A PUSH2 0xE60 PUSH2 0x1A1F JUMP JUMPDEST DUP3 PUSH2 0x218B JUMP JUMPDEST PUSH20 0xFFFFFFFFFFFFFFFFFFFFFFFFFFFFFFFFFFFFFFFF AND PUSH1 0x0 SWAP1 DUP2 MSTORE PUSH1 0xE PUSH1 0x20 MSTORE PUSH1 0x40 SWAP1 KECCAK256 SLOAD SWAP1 JUMP JUMPDEST PUSH20 0xFFFFFFFFFFFFFFFFFFFFFFFFFFFFFFFFFFFFFFFF DUP3 AND PUSH1 0x0 SWAP1 DUP2 MSTORE PUSH1 0x7 PUSH1 0x20 MSTORE PUSH1 0x40 DUP2 KECCAK256 DUP2 SWAP1 DUP2 SWAP1 PUSH2 0xEC2 SWAP1 DUP6 SWAP1 PUSH2 0x22D5 JUMP JUMPDEST SWAP2 POP SWAP2 POP DUP2 PUSH2 0xED9 JUMPI PUSH2 0xED4 DUP6 PUSH2 0x102B JUMP JUMPDEST PUSH2 0xEDB JUMP JUMPDEST DUP1 JUMPDEST SWAP6 SWAP5 POP POP POP POP POP JUMP JUMPDEST PUSH2 0xEF1 PUSH1 0x0 PUSH2 0xA31 PUSH2 0x1A1F JUMP JUMPDEST PUSH2 0xF46 JUMPI PUSH1 0x40 MLOAD PUSH32 0x8C379A000000000000000000000000000000000000000000000000000000000 DUP2 MSTORE PUSH1 0x4 ADD DUP1 DUP1 PUSH1 0x20 ADD DUP3 DUP2 SUB DUP3 MSTORE PUSH1 0x26 DUP2 MSTORE PUSH1 0x20 ADD DUP1 PUSH2 0x2F72 PUSH1 0x26 SWAP2 CODECOPY PUSH1 0x40 ADD SWAP2 POP POP PUSH1 0x40 MLOAD DUP1 SWAP2 SUB SWAP1 REVERT JUMPDEST PUSH20 0xFFFFFFFFFFFFFFFFFFFFFFFFFFFFFFFFFFFFFFFF DUP2 AND PUSH2 0xFB2 JUMPI PUSH1 0x40 MLOAD PUSH32 0x8C379A000000000000000000000000000000000000000000000000000000000 DUP2 MSTORE PUSH1 0x4 ADD DUP1 DUP1 PUSH1 0x20 ADD DUP3 DUP2 SUB DUP3 MSTORE PUSH1 0x28 DUP2 MSTORE PUSH1 0x20 ADD DUP1 PUSH2 0x2E49 PUSH1 0x28 SWAP2 CODECOPY PUSH1 0x40 ADD SWAP2 POP POP PUSH1 0x40 MLOAD DUP1 SWAP2 SUB SWAP1 REVERT JUMPDEST PUSH1 0xC DUP1 SLOAD PUSH32 0xFFFFFFFFFFFFFFFFFFFFFFFF0000000000000000000000000000000000000000 AND PUSH20 0xFFFFFFFFFFFFFFFFFFFFFFFFFFFFFFFFFFFFFFFF SWAP3 SWAP1 SWAP3 AND SWAP2 SWAP1 SWAP2 OR SWAP1 SSTORE JUMP JUMPDEST PUSH1 0x6 SLOAD PUSH2 0x100 SWAP1 DIV PUSH1 0xFF AND SWAP1 JUMP JUMPDEST PUSH32 0x5FDBD35E8DA83EE755D5E62A539E5ED7F47126ABEDE0B8B10F9EA43DC6EED07F DUP2 JUMP JUMPDEST PUSH20 0xFFFFFFFFFFFFFFFFFFFFFFFFFFFFFFFFFFFFFFFF AND PUSH1 0x0 SWAP1 DUP2 MSTORE PUSH1 0x1 PUSH1 0x20 MSTORE PUSH1 0x40 SWAP1 KECCAK256 SLOAD SWAP1 JUMP JUMPDEST PUSH1 0x0 PUSH2 0x108A DUP3 PUSH1 0x40 MLOAD DUP1 PUSH1 0x60 ADD PUSH1 0x40 MSTORE DUP1 PUSH1 0x24 DUP2 MSTORE PUSH1 0x20 ADD PUSH2 0x2F08 PUSH1 0x24 SWAP2 CODECOPY PUSH2 0x1083 DUP7 PUSH2 0x107E PUSH2 0x1A1F JUMP JUMPDEST PUSH2 0x1719 JUMP JUMPDEST SWAP2 SWAP1 PUSH2 0x1D3C JUMP JUMPDEST SWAP1 POP PUSH2 0x109E DUP4 PUSH2 0x1098 PUSH2 0x1A1F JUMP JUMPDEST DUP4 PUSH2 0x1A23 JUMP JUMPDEST PUSH2 0x10A8 DUP4 DUP4 PUSH2 0x218B JUMP JUMPDEST POP POP POP JUMP JUMPDEST PUSH2 0x10D9 PUSH32 0x65D7A28E3265B37A6474929F336521B332C1681B933F6CB9F3376673440D862A PUSH2 0xA31 PUSH2 0x1A1F JUMP JUMPDEST PUSH2 0x1144 JUMPI PUSH1 0x40 DUP1 MLOAD PUSH32 0x8C379A000000000000000000000000000000000000000000000000000000000 DUP2 MSTORE PUSH1 0x20 PUSH1 0x4 DUP3 ADD MSTORE PUSH1 0x1F PUSH1 0x24 DUP3 ADD MSTORE PUSH32 0x505275463A4D4F443A206D7573742068617665205041555345525F524F4C4500 PUSH1 0x44 DUP3 ADD MSTORE SWAP1 MLOAD SWAP1 DUP2 SWAP1 SUB PUSH1 0x64 ADD SWAP1 REVERT JUMPDEST PUSH2 0xDB2 PUSH2 0x240D JUMP JUMPDEST PUSH1 0x0 DUP3 DUP2 MSTORE PUSH1 0x20 DUP2 SWAP1 MSTORE PUSH1 0x40 DUP2 KECCAK256 PUSH2 0x1164 SWAP1 DUP4 PUSH2 0x24D9 JUMP JUMPDEST SWAP4 SWAP3 POP POP POP JUMP JUMPDEST PUSH1 0x0 DUP3 DUP2 MSTORE PUSH1 0x20 DUP2 SWAP1 MSTORE PUSH1 0x40 DUP2 KECCAK256 PUSH2 0x1164 SWAP1 DUP4 PUSH2 0x24E5 JUMP JUMPDEST PUSH1 0x5 DUP1 SLOAD PUSH1 0x40 DUP1 MLOAD PUSH1 0x20 PUSH1 0x1F PUSH1 0x2 PUSH32 0xFFFFFFFFFFFFFFFFFFFFFFFFFFFFFFFFFFFFFFFFFFFFFFFFFFFFFFFFFFFFFFFF PUSH2 0x100 PUSH1 0x1 DUP9 AND ISZERO MUL ADD SWAP1 SWAP6 AND SWAP5 SWAP1 SWAP5 DIV SWAP4 DUP5 ADD DUP2 SWAP1 DIV DUP2 MUL DUP3 ADD DUP2 ADD SWAP1 SWAP3 MSTORE DUP3 DUP2 MSTORE PUSH1 0x60 SWAP4 SWAP1 SWAP3 SWAP1 SWAP2 DUP4 ADD DUP3 DUP3 DUP1 ISZERO PUSH2 0x9FC JUMPI DUP1 PUSH1 0x1F LT PUSH2 0x9D1 JUMPI PUSH2 0x100 DUP1 DUP4 SLOAD DIV MUL DUP4 MSTORE SWAP2 PUSH1 0x20 ADD SWAP2 PUSH2 0x9FC JUMP JUMPDEST PUSH1 0x0 DUP1 PUSH1 0x0 PUSH2 0x1212 DUP5 PUSH1 0x8 PUSH2 0x22D5 JUMP JUMPDEST SWAP2 POP SWAP2 POP DUP2 PUSH2 0x1228 JUMPI PUSH2 0x1223 PUSH2 0xA9D JUMP JUMPDEST PUSH2 0x122A JUMP JUMPDEST DUP1 JUMPDEST SWAP5 SWAP4 POP POP POP POP JUMP JUMPDEST PUSH32 0xEEED90AE47CD1F23B88CE446295F1CA23C5E4F5B894ADDBE83563FD27494E294 DUP2 JUMP JUMPDEST PUSH2 0x1282 PUSH32 0xEEED90AE47CD1F23B88CE446295F1CA23C5E4F5B894ADDBE83563FD27494E294 PUSH2 0xA31 PUSH2 0x1A1F JUMP JUMPDEST PUSH2 0x12D7 JUMPI PUSH1 0x40 MLOAD PUSH32 0x8C379A000000000000000000000000000000000000000000000000000000000 DUP2 MSTORE PUSH1 0x4 ADD DUP1 DUP1 PUSH1 0x20 ADD DUP3 DUP2 SUB DUP3 MSTORE PUSH1 0x26 DUP2 MSTORE PUSH1 0x20 ADD DUP1 PUSH2 0x2FBC PUSH1 0x26 SWAP2 CODECOPY PUSH1 0x40 ADD SWAP2 POP POP PUSH1 0x40 MLOAD DUP1 SWAP2 SUB SWAP1 REVERT JUMPDEST PUSH1 0xD SLOAD PUSH1 0x1 EQ PUSH2 0x1332 JUMPI PUSH1 0x40 MLOAD PUSH32 0x8C379A000000000000000000000000000000000000000000000000000000000 DUP2 MSTORE PUSH1 0x4 ADD DUP1 DUP1 PUSH1 0x20 ADD DUP3 DUP2 SUB DUP3 MSTORE PUSH1 0x5C DUP2 MSTORE PUSH1 0x20 ADD DUP1 PUSH2 0x2D54 PUSH1 0x5C SWAP2 CODECOPY PUSH1 0x60 ADD SWAP2 POP POP PUSH1 0x40 MLOAD DUP1 SWAP2 SUB SWAP1 REVERT JUMPDEST PUSH20 0xFFFFFFFFFFFFFFFFFFFFFFFFFFFFFFFFFFFFFFFF DUP4 AND PUSH1 0x0 SWAP1 DUP2 MSTORE PUSH1 0xE PUSH1 0x20 MSTORE PUSH1 0x40 SWAP1 KECCAK256 SLOAD ISZERO PUSH2 0x13AE JUMPI PUSH1 0x40 MLOAD PUSH32 0x8C379A000000000000000000000000000000000000000000000000000000000 DUP2 MSTORE PUSH1 0x4 ADD DUP1 DUP1 PUSH1 0x20 ADD DUP3 DUP2 SUB DUP3 MSTORE PUSH1 0x34 DUP2 MSTORE PUSH1 0x20 ADD DUP1 PUSH2 0x2D20 PUSH1 0x34 SWAP2 CODECOPY PUSH1 0x40 ADD SWAP2 POP POP PUSH1 0x40 MLOAD DUP1 SWAP2 SUB SWAP1 REVERT JUMPDEST PUSH2 0x10A8 DUP4 DUP4 DUP4 PUSH2 0x1B6A JUMP JUMPDEST PUSH1 0x0 DUP2 JUMP JUMPDEST PUSH1 0x0 PUSH2 0xA1A PUSH2 0x13CB PUSH2 0x1A1F JUMP JUMPDEST DUP5 PUSH2 0xB35 DUP6 PUSH1 0x40 MLOAD DUP1 PUSH1 0x60 ADD PUSH1 0x40 MSTORE DUP1 PUSH1 0x25 DUP2 MSTORE PUSH1 0x20 ADD PUSH2 0x2FE2 PUSH1 0x25 SWAP2 CODECOPY PUSH1 0x2 PUSH1 0x0 PUSH2 0x13F5 PUSH2 0x1A1F JUMP JUMPDEST PUSH20 0xFFFFFFFFFFFFFFFFFFFFFFFFFFFFFFFFFFFFFFFF SWAP1 DUP2 AND DUP3 MSTORE PUSH1 0x20 DUP1 DUP4 ADD SWAP4 SWAP1 SWAP4 MSTORE PUSH1 0x40 SWAP2 DUP3 ADD PUSH1 0x0 SWAP1 DUP2 KECCAK256 SWAP2 DUP14 AND DUP2 MSTORE SWAP3 MSTORE SWAP1 KECCAK256 SLOAD SWAP2 SWAP1 PUSH2 0x1D3C JUMP JUMPDEST PUSH1 0x0 PUSH2 0xA1A PUSH2 0x1440 PUSH2 0x1A1F JUMP JUMPDEST DUP5 DUP5 PUSH2 0x1B6A JUMP JUMPDEST PUSH2 0x1473 PUSH32 0xEEED90AE47CD1F23B88CE446295F1CA23C5E4F5B894ADDBE83563FD27494E294 PUSH2 0xA31 PUSH2 0x1A1F JUMP JUMPDEST PUSH2 0x14C8 JUMPI PUSH1 0x40 MLOAD PUSH32 0x8C379A000000000000000000000000000000000000000000000000000000000 DUP2 MSTORE PUSH1 0x4 ADD DUP1 DUP1 PUSH1 0x20 ADD DUP3 DUP2 SUB DUP3 MSTORE PUSH1 0x26 DUP2 MSTORE PUSH1 0x20 ADD DUP1 PUSH2 0x2FBC PUSH1 0x26 SWAP2 CODECOPY PUSH1 0x40 ADD SWAP2 POP POP PUSH1 0x40 MLOAD DUP1 SWAP2 SUB SWAP1 REVERT JUMPDEST PUSH1 0xD SLOAD PUSH1 0x1 EQ PUSH2 0x1523 JUMPI PUSH1 0x40 MLOAD PUSH32 0x8C379A000000000000000000000000000000000000000000000000000000000 DUP2 MSTORE PUSH1 0x4 ADD DUP1 DUP1 PUSH1 0x20 ADD DUP3 DUP2 SUB DUP3 MSTORE PUSH1 0x5C DUP2 MSTORE PUSH1 0x20 ADD DUP1 PUSH2 0x2D54 PUSH1 0x5C SWAP2 CODECOPY PUSH1 0x60 ADD SWAP2 POP POP PUSH1 0x40 MLOAD DUP1 SWAP2 SUB SWAP1 REVERT JUMPDEST PUSH20 0xFFFFFFFFFFFFFFFFFFFFFFFFFFFFFFFFFFFFFFFF DUP3 AND PUSH1 0x0 SWAP1 DUP2 MSTORE PUSH1 0xE PUSH1 0x20 MSTORE PUSH1 0x40 SWAP1 KECCAK256 SLOAD ISZERO PUSH2 0x159F JUMPI PUSH1 0x40 MLOAD PUSH32 0x8C379A000000000000000000000000000000000000000000000000000000000 DUP2 MSTORE PUSH1 0x4 ADD DUP1 DUP1 PUSH1 0x20 ADD DUP3 DUP2 SUB DUP3 MSTORE PUSH1 0x34 DUP2 MSTORE PUSH1 0x20 ADD DUP1 PUSH2 0x2E99 PUSH1 0x34 SWAP2 CODECOPY PUSH1 0x40 ADD SWAP2 POP POP PUSH1 0x40 MLOAD DUP1 SWAP2 SUB SWAP1 REVERT JUMPDEST PUSH2 0xC10 DUP3 DUP3 PUSH2 0x218B JUMP JUMPDEST PUSH1 0xAA PUSH1 0xE PUSH1 0x0 PUSH2 0xB6A PUSH2 0x1A1F JUMP JUMPDEST PUSH32 0xCDBADA398FB3AE55C788123A0C3C0CCB8E69FEE2E6B780278B89300B4FC80C90 DUP2 JUMP JUMPDEST PUSH1 0x0 PUSH2 0x1609 PUSH32 0x5FDBD35E8DA83EE755D5E62A539E5ED7F47126ABEDE0B8B10F9EA43DC6EED07F PUSH2 0xA31 PUSH2 0x1A1F JUMP JUMPDEST PUSH2 0x165E JUMPI PUSH1 0x40 MLOAD PUSH32 0x8C379A000000000000000000000000000000000000000000000000000000000 DUP2 MSTORE PUSH1 0x4 ADD DUP1 DUP1 PUSH1 0x20 ADD DUP3 DUP2 SUB DUP3 MSTORE PUSH1 0x43 DUP2 MSTORE PUSH1 0x20 ADD DUP1 PUSH2 0x2E06 PUSH1 0x43 SWAP2 CODECOPY PUSH1 0x60 ADD SWAP2 POP POP PUSH1 0x40 MLOAD DUP1 SWAP2 SUB SWAP1 REVERT JUMPDEST PUSH2 0x1666 PUSH2 0x2507 JUMP JUMPDEST SWAP1 POP SWAP1 JUMP JUMPDEST PUSH1 0x0 DUP2 DUP2 MSTORE PUSH1 0x20 DUP2 SWAP1 MSTORE PUSH1 0x40 DUP2 KECCAK256 PUSH2 0xA1E SWAP1 PUSH2 0x255B JUMP JUMPDEST PUSH32 0x9F2DF0FED2C77648DE5860A4CC508CD0818C85B8B8A1AB4CEEEF8D981C8956A6 DUP2 JUMP JUMPDEST PUSH1 0x0 DUP3 DUP2 MSTORE PUSH1 0x20 DUP2 SWAP1 MSTORE PUSH1 0x40 SWAP1 KECCAK256 PUSH1 0x2 ADD SLOAD PUSH2 0x16C4 SWAP1 PUSH2 0xA31 PUSH2 0x1A1F JUMP JUMPDEST PUSH2 0xCAE JUMPI PUSH1 0x40 MLOAD PUSH32 0x8C379A000000000000000000000000000000000000000000000000000000000 DUP2 MSTORE PUSH1 0x4 ADD DUP1 DUP1 PUSH1 0x20 ADD DUP3 DUP2 SUB DUP3 MSTORE PUSH1 0x30 DUP2 MSTORE PUSH1 0x20 ADD DUP1 PUSH2 0x2DD6 PUSH1 0x30 SWAP2 CODECOPY PUSH1 0x40 ADD SWAP2 POP POP PUSH1 0x40 MLOAD DUP1 SWAP2 SUB SWAP1 REVERT JUMPDEST PUSH20 0xFFFFFFFFFFFFFFFFFFFFFFFFFFFFFFFFFFFFFFFF SWAP2 DUP3 AND PUSH1 0x0 SWAP1 DUP2 MSTORE PUSH1 0x2 PUSH1 0x20 SWAP1 DUP2 MSTORE PUSH1 0x40 DUP1 DUP4 KECCAK256 SWAP4 SWAP1 SWAP5 AND DUP3 MSTORE SWAP2 SWAP1 SWAP2 MSTORE KECCAK256 SLOAD SWAP1 JUMP JUMPDEST PUSH2 0x177D PUSH32 0xCDBADA398FB3AE55C788123A0C3C0CCB8E69FEE2E6B780278B89300B4FC80C90 PUSH2 0xA31 PUSH2 0x1A1F JUMP JUMPDEST PUSH2 0x17E8 JUMPI PUSH1 0x40 DUP1 MLOAD PUSH32 0x8C379A000000000000000000000000000000000000000000000000000000000 DUP2 MSTORE PUSH1 0x20 PUSH1 0x4 DUP3 ADD DUP2 SWAP1 MSTORE PUSH1 0x24 DUP3 ADD MSTORE PUSH32 0x505275463A4D4F443A206D75737420686176652050415941424C455F524F4C45 PUSH1 0x44 DUP3 ADD MSTORE SWAP1 MLOAD SWAP1 DUP2 SWAP1 SUB PUSH1 0x64 ADD SWAP1 REVERT JUMPDEST PUSH1 0xD SLOAD PUSH1 0x1 EQ PUSH2 0x1843 JUMPI PUSH1 0x40 MLOAD PUSH32 0x8C379A000000000000000000000000000000000000000000000000000000000 DUP2 MSTORE PUSH1 0x4 ADD DUP1 DUP1 PUSH1 0x20 ADD DUP3 DUP2 SUB DUP3 MSTORE PUSH1 0x5E DUP2 MSTORE PUSH1 0x20 ADD DUP1 PUSH2 0x2C7E PUSH1 0x5E SWAP2 CODECOPY PUSH1 0x60 ADD SWAP2 POP POP PUSH1 0x40 MLOAD DUP1 SWAP2 SUB SWAP1 REVERT JUMPDEST PUSH20 0xFFFFFFFFFFFFFFFFFFFFFFFFFFFFFFFFFFFFFFFF DUP6 AND PUSH1 0x0 SWAP1 DUP2 MSTORE PUSH1 0xE PUSH1 0x20 MSTORE PUSH1 0x40 SWAP1 KECCAK256 SLOAD ISZERO PUSH2 0x18BF JUMPI PUSH1 0x40 MLOAD PUSH32 0x8C379A000000000000000000000000000000000000000000000000000000000 DUP2 MSTORE PUSH1 0x4 ADD DUP1 DUP1 PUSH1 0x20 ADD DUP3 DUP2 SUB DUP3 MSTORE PUSH1 0x3C DUP2 MSTORE PUSH1 0x20 ADD DUP1 PUSH2 0x2BCE PUSH1 0x3C SWAP2 CODECOPY PUSH1 0x40 ADD SWAP2 POP POP PUSH1 0x40 MLOAD DUP1 SWAP2 SUB SWAP1 REVERT JUMPDEST PUSH2 0x18C9 DUP4 DUP3 PUSH2 0x1EF3 JUMP JUMPDEST PUSH2 0x18D2 DUP7 PUSH2 0x102B JUMP JUMPDEST LT ISZERO PUSH2 0x193F JUMPI PUSH1 0x40 DUP1 MLOAD PUSH32 0x8C379A000000000000000000000000000000000000000000000000000000000 DUP2 MSTORE PUSH1 0x20 PUSH1 0x4 DUP3 ADD MSTORE PUSH1 0x1E PUSH1 0x24 DUP3 ADD MSTORE PUSH32 0x505275463A5046533A20696E73756666696369656E742062616C616E63650000 PUSH1 0x44 DUP3 ADD MSTORE SWAP1 MLOAD SWAP1 DUP2 SWAP1 SUB PUSH1 0x64 ADD SWAP1 REVERT JUMPDEST PUSH1 0xC SLOAD PUSH20 0xFFFFFFFFFFFFFFFFFFFFFFFFFFFFFFFFFFFFFFFF AND PUSH2 0x1977 JUMPI PUSH2 0x1967 DUP6 DUP6 DUP6 PUSH2 0x1B6A JUMP JUMPDEST PUSH2 0x1972 DUP6 DUP4 DUP4 PUSH2 0x1B6A JUMP JUMPDEST PUSH2 0x19D2 JUMP JUMPDEST PUSH1 0x0 PUSH2 0x1984 DUP5 PUSH1 0x4 PUSH2 0x2566 JUMP JUMPDEST SWAP1 POP PUSH1 0x0 PUSH2 0x1992 DUP6 DUP4 PUSH2 0x25A8 JUMP JUMPDEST SWAP1 POP PUSH2 0x199F DUP8 DUP8 DUP4 PUSH2 0x1B6A JUMP JUMPDEST PUSH1 0xC SLOAD PUSH2 0x19C4 SWAP1 DUP9 SWAP1 PUSH20 0xFFFFFFFFFFFFFFFFFFFFFFFFFFFFFFFFFFFFFFFF AND DUP5 PUSH2 0x1B6A JUMP JUMPDEST PUSH2 0x19CF DUP8 DUP6 DUP6 PUSH2 0x1B6A JUMP JUMPDEST POP POP JUMPDEST POP POP POP POP POP JUMP JUMPDEST PUSH32 0x65D7A28E3265B37A6474929F336521B332C1681B933F6CB9F3376673440D862A DUP2 JUMP JUMPDEST PUSH1 0x0 PUSH2 0x1164 DUP4 PUSH20 0xFFFFFFFFFFFFFFFFFFFFFFFFFFFFFFFFFFFFFFFF DUP5 AND PUSH2 0x25EA JUMP JUMPDEST CALLER SWAP1 JUMP JUMPDEST PUSH20 0xFFFFFFFFFFFFFFFFFFFFFFFFFFFFFFFFFFFFFFFF DUP4 AND PUSH2 0x1A8F JUMPI PUSH1 0x40 MLOAD PUSH32 0x8C379A000000000000000000000000000000000000000000000000000000000 DUP2 MSTORE PUSH1 0x4 ADD DUP1 DUP1 PUSH1 0x20 ADD DUP3 DUP2 SUB DUP3 MSTORE PUSH1 0x24 DUP2 MSTORE PUSH1 0x20 ADD DUP1 PUSH2 0x2F98 PUSH1 0x24 SWAP2 CODECOPY PUSH1 0x40 ADD SWAP2 POP POP PUSH1 0x40 MLOAD DUP1 SWAP2 SUB SWAP1 REVERT JUMPDEST PUSH20 0xFFFFFFFFFFFFFFFFFFFFFFFFFFFFFFFFFFFFFFFF DUP3 AND PUSH2 0x1AFB JUMPI PUSH1 0x40 MLOAD PUSH32 0x8C379A000000000000000000000000000000000000000000000000000000000 DUP2 MSTORE PUSH1 0x4 ADD DUP1 DUP1 PUSH1 0x20 ADD DUP3 DUP2 SUB DUP3 MSTORE PUSH1 0x22 DUP2 MSTORE PUSH1 0x20 ADD DUP1 PUSH2 0x2CFE PUSH1 0x22 SWAP2 CODECOPY PUSH1 0x40 ADD SWAP2 POP POP PUSH1 0x40 MLOAD DUP1 SWAP2 SUB SWAP1 REVERT JUMPDEST PUSH20 0xFFFFFFFFFFFFFFFFFFFFFFFFFFFFFFFFFFFFFFFF DUP1 DUP5 AND PUSH1 0x0 DUP2 DUP2 MSTORE PUSH1 0x2 PUSH1 0x20 SWAP1 DUP2 MSTORE PUSH1 0x40 DUP1 DUP4 KECCAK256 SWAP5 DUP8 AND DUP1 DUP5 MSTORE SWAP5 DUP3 MSTORE SWAP2 DUP3 SWAP1 KECCAK256 DUP6 SWAP1 SSTORE DUP2 MLOAD DUP6 DUP2 MSTORE SWAP2 MLOAD PUSH32 0x8C5BE1E5EBEC7D5BD14F71427D1E84F3DD0314C0F7B2291E5B200AC8C7C3B925 SWAP3 DUP2 SWAP1 SUB SWAP1 SWAP2 ADD SWAP1 LOG3 POP POP POP JUMP JUMPDEST PUSH20 0xFFFFFFFFFFFFFFFFFFFFFFFFFFFFFFFFFFFFFFFF DUP4 AND PUSH2 0x1BD6 JUMPI PUSH1 0x40 MLOAD PUSH32 0x8C379A000000000000000000000000000000000000000000000000000000000 DUP2 MSTORE PUSH1 0x4 ADD DUP1 DUP1 PUSH1 0x20 ADD DUP3 DUP2 SUB DUP3 MSTORE PUSH1 0x25 DUP2 MSTORE PUSH1 0x20 ADD DUP1 PUSH2 0x2F4D PUSH1 0x25 SWAP2 CODECOPY PUSH1 0x40 ADD SWAP2 POP POP PUSH1 0x40 MLOAD DUP1 SWAP2 SUB SWAP1 REVERT JUMPDEST PUSH20 0xFFFFFFFFFFFFFFFFFFFFFFFFFFFFFFFFFFFFFFFF DUP3 AND PUSH2 0x1C42 JUMPI PUSH1 0x40 MLOAD PUSH32 0x8C379A000000000000000000000000000000000000000000000000000000000 DUP2 MSTORE PUSH1 0x4 ADD DUP1 DUP1 PUSH1 0x20 ADD DUP3 DUP2 SUB DUP3 MSTORE PUSH1 0x23 DUP2 MSTORE PUSH1 0x20 ADD DUP1 PUSH2 0x2C2C PUSH1 0x23 SWAP2 CODECOPY PUSH1 0x40 ADD SWAP2 POP POP PUSH1 0x40 MLOAD DUP1 SWAP2 SUB SWAP1 REVERT JUMPDEST PUSH2 0x1C4D DUP4 DUP4 DUP4 PUSH2 0x2634 JUMP JUMPDEST PUSH2 0x1C97 DUP2 PUSH1 0x40 MLOAD DUP1 PUSH1 0x60 ADD PUSH1 0x40 MSTORE DUP1 PUSH1 0x26 DUP2 MSTORE PUSH1 0x20 ADD PUSH2 0x2DB0 PUSH1 0x26 SWAP2 CODECOPY PUSH20 0xFFFFFFFFFFFFFFFFFFFFFFFFFFFFFFFFFFFFFFFF DUP7 AND PUSH1 0x0 SWAP1 DUP2 MSTORE PUSH1 0x1 PUSH1 0x20 MSTORE PUSH1 0x40 SWAP1 KECCAK256 SLOAD SWAP2 SWAP1 PUSH2 0x1D3C JUMP JUMPDEST PUSH20 0xFFFFFFFFFFFFFFFFFFFFFFFFFFFFFFFFFFFFFFFF DUP1 DUP6 AND PUSH1 0x0 SWAP1 DUP2 MSTORE PUSH1 0x1 PUSH1 0x20 MSTORE PUSH1 0x40 DUP1 DUP3 KECCAK256 SWAP4 SWAP1 SWAP4 SSTORE SWAP1 DUP5 AND DUP2 MSTORE KECCAK256 SLOAD PUSH2 0x1CD3 SWAP1 DUP3 PUSH2 0x1EF3 JUMP JUMPDEST PUSH20 0xFFFFFFFFFFFFFFFFFFFFFFFFFFFFFFFFFFFFFFFF DUP1 DUP5 AND PUSH1 0x0 DUP2 DUP2 MSTORE PUSH1 0x1 PUSH1 0x20 SWAP1 DUP2 MSTORE PUSH1 0x40 SWAP2 DUP3 SWAP1 KECCAK256 SWAP5 SWAP1 SWAP5 SSTORE DUP1 MLOAD DUP6 DUP2 MSTORE SWAP1 MLOAD SWAP2 SWAP4 SWAP3 DUP8 AND SWAP3 PUSH32 0xDDF252AD1BE2C89B69C2B068FC378DAA952BA7F163C4A11628F55A4DF523B3EF SWAP3 SWAP2 DUP3 SWAP1 SUB ADD SWAP1 LOG3 POP POP POP JUMP JUMPDEST PUSH1 0x0 DUP2 DUP5 DUP5 GT ISZERO PUSH2 0x1DE5 JUMPI PUSH1 0x40 MLOAD PUSH32 0x8C379A000000000000000000000000000000000000000000000000000000000 DUP2 MSTORE PUSH1 0x4 ADD DUP1 DUP1 PUSH1 0x20 ADD DUP3 DUP2 SUB DUP3 MSTORE DUP4 DUP2 DUP2 MLOAD DUP2 MSTORE PUSH1 0x20 ADD SWAP2 POP DUP1 MLOAD SWAP1 PUSH1 0x20 ADD SWAP1 DUP1 DUP4 DUP4 PUSH1 0x0 JUMPDEST DUP4 DUP2 LT ISZERO PUSH2 0x1DAA JUMPI DUP2 DUP2 ADD MLOAD DUP4 DUP3 ADD MSTORE PUSH1 0x20 ADD PUSH2 0x1D92 JUMP JUMPDEST POP POP POP POP SWAP1 POP SWAP1 DUP2 ADD SWAP1 PUSH1 0x1F AND DUP1 ISZERO PUSH2 0x1DD7 JUMPI DUP1 DUP3 SUB DUP1 MLOAD PUSH1 0x1 DUP4 PUSH1 0x20 SUB PUSH2 0x100 EXP SUB NOT AND DUP2 MSTORE PUSH1 0x20 ADD SWAP2 POP JUMPDEST POP SWAP3 POP POP POP PUSH1 0x40 MLOAD DUP1 SWAP2 SUB SWAP1 REVERT JUMPDEST POP POP POP SWAP1 SUB SWAP1 JUMP JUMPDEST PUSH1 0x0 DUP3 DUP2 MSTORE PUSH1 0x20 DUP2 SWAP1 MSTORE PUSH1 0x40 SWAP1 KECCAK256 PUSH2 0x1E05 SWAP1 DUP3 PUSH2 0x19FD JUMP JUMPDEST ISZERO PUSH2 0xC10 JUMPI PUSH2 0x1E12 PUSH2 0x1A1F JUMP JUMPDEST PUSH20 0xFFFFFFFFFFFFFFFFFFFFFFFFFFFFFFFFFFFFFFFF AND DUP2 PUSH20 0xFFFFFFFFFFFFFFFFFFFFFFFFFFFFFFFFFFFFFFFF AND DUP4 PUSH32 0x2F8788117E7EFF1D82E926EC794901D17C78024A50270940304540A733656F0D PUSH1 0x40 MLOAD PUSH1 0x40 MLOAD DUP1 SWAP2 SUB SWAP1 LOG4 POP POP JUMP JUMPDEST PUSH1 0x0 DUP3 DUP2 MSTORE PUSH1 0x20 DUP2 SWAP1 MSTORE PUSH1 0x40 SWAP1 KECCAK256 PUSH2 0x1E88 SWAP1 DUP3 PUSH2 0x276C JUMP JUMPDEST ISZERO PUSH2 0xC10 JUMPI PUSH2 0x1E95 PUSH2 0x1A1F JUMP JUMPDEST PUSH20 0xFFFFFFFFFFFFFFFFFFFFFFFFFFFFFFFFFFFFFFFF AND DUP2 PUSH20 0xFFFFFFFFFFFFFFFFFFFFFFFFFFFFFFFFFFFFFFFF AND DUP4 PUSH32 0xF6391F5C32D9C69D2A47EA670B442974B53935D1EDC7FD64EB21E047A839171B PUSH1 0x40 MLOAD PUSH1 0x40 MLOAD DUP1 SWAP2 SUB SWAP1 LOG4 POP POP JUMP JUMPDEST PUSH1 0x0 DUP3 DUP3 ADD DUP4 DUP2 LT ISZERO PUSH2 0x1164 JUMPI PUSH1 0x40 DUP1 MLOAD PUSH32 0x8C379A000000000000000000000000000000000000000000000000000000000 DUP2 MSTORE PUSH1 0x20 PUSH1 0x4 DUP3 ADD MSTORE PUSH1 0x1B PUSH1 0x24 DUP3 ADD MSTORE PUSH32 0x536166654D6174683A206164646974696F6E206F766572666C6F770000000000 PUSH1 0x44 DUP3 ADD MSTORE SWAP1 MLOAD SWAP1 DUP2 SWAP1 SUB PUSH1 0x64 ADD SWAP1 REVERT JUMPDEST PUSH1 0x6 SLOAD PUSH2 0x100 SWAP1 DIV PUSH1 0xFF AND PUSH2 0x1FDD JUMPI PUSH1 0x40 DUP1 MLOAD PUSH32 0x8C379A000000000000000000000000000000000000000000000000000000000 DUP2 MSTORE PUSH1 0x20 PUSH1 0x4 DUP3 ADD MSTORE PUSH1 0x14 PUSH1 0x24 DUP3 ADD MSTORE PUSH32 0x5061757361626C653A206E6F7420706175736564000000000000000000000000 PUSH1 0x44 DUP3 ADD MSTORE SWAP1 MLOAD SWAP1 DUP2 SWAP1 SUB PUSH1 0x64 ADD SWAP1 REVERT JUMPDEST PUSH1 0x6 DUP1 SLOAD PUSH32 0xFFFFFFFFFFFFFFFFFFFFFFFFFFFFFFFFFFFFFFFFFFFFFFFFFFFFFFFFFFFF00FF AND SWAP1 SSTORE PUSH32 0x5DB9EE0A495BF2E6FF9C91A7834C1BA4FDD244A5E8AA4E537BD38AEAE4B073AA PUSH2 0x202E PUSH2 0x1A1F JUMP JUMPDEST PUSH1 0x40 DUP1 MLOAD PUSH20 0xFFFFFFFFFFFFFFFFFFFFFFFFFFFFFFFFFFFFFFFF SWAP1 SWAP3 AND DUP3 MSTORE MLOAD SWAP1 DUP2 SWAP1 SUB PUSH1 0x20 ADD SWAP1 LOG1 JUMP JUMPDEST PUSH20 0xFFFFFFFFFFFFFFFFFFFFFFFFFFFFFFFFFFFFFFFF DUP3 AND PUSH2 0x20DA JUMPI PUSH1 0x40 DUP1 MLOAD PUSH32 0x8C379A000000000000000000000000000000000000000000000000000000000 DUP2 MSTORE PUSH1 0x20 PUSH1 0x4 DUP3 ADD MSTORE PUSH1 0x1F PUSH1 0x24 DUP3 ADD MSTORE PUSH32 0x45524332303A206D696E7420746F20746865207A65726F206164647265737300 PUSH1 0x44 DUP3 ADD MSTORE SWAP1 MLOAD SWAP1 DUP2 SWAP1 SUB PUSH1 0x64 ADD SWAP1 REVERT JUMPDEST PUSH2 0x20E6 PUSH1 0x0 DUP4 DUP4 PUSH2 0x2634 JUMP JUMPDEST PUSH1 0x3 SLOAD PUSH2 0x20F3 SWAP1 DUP3 PUSH2 0x1EF3 JUMP JUMPDEST PUSH1 0x3 SSTORE PUSH20 0xFFFFFFFFFFFFFFFFFFFFFFFFFFFFFFFFFFFFFFFF DUP3 AND PUSH1 0x0 SWAP1 DUP2 MSTORE PUSH1 0x1 PUSH1 0x20 MSTORE PUSH1 0x40 SWAP1 KECCAK256 SLOAD PUSH2 0x2126 SWAP1 DUP3 PUSH2 0x1EF3 JUMP JUMPDEST PUSH20 0xFFFFFFFFFFFFFFFFFFFFFFFFFFFFFFFFFFFFFFFF DUP4 AND PUSH1 0x0 DUP2 DUP2 MSTORE PUSH1 0x1 PUSH1 0x20 SWAP1 DUP2 MSTORE PUSH1 0x40 DUP1 DUP4 KECCAK256 SWAP5 SWAP1 SWAP5 SSTORE DUP4 MLOAD DUP6 DUP2 MSTORE SWAP4 MLOAD SWAP3 SWAP4 SWAP2 SWAP3 PUSH32 0xDDF252AD1BE2C89B69C2B068FC378DAA952BA7F163C4A11628F55A4DF523B3EF SWAP3 DUP2 SWAP1 SUB SWAP1 SWAP2 ADD SWAP1 LOG3 POP POP JUMP JUMPDEST PUSH20 0xFFFFFFFFFFFFFFFFFFFFFFFFFFFFFFFFFFFFFFFF DUP3 AND PUSH2 0x21F7 JUMPI PUSH1 0x40 MLOAD PUSH32 0x8C379A000000000000000000000000000000000000000000000000000000000 DUP2 MSTORE PUSH1 0x4 ADD DUP1 DUP1 PUSH1 0x20 ADD DUP3 DUP2 SUB DUP3 MSTORE PUSH1 0x21 DUP2 MSTORE PUSH1 0x20 ADD DUP1 PUSH2 0x2F2C PUSH1 0x21 SWAP2 CODECOPY PUSH1 0x40 ADD SWAP2 POP POP PUSH1 0x40 MLOAD DUP1 SWAP2 SUB SWAP1 REVERT JUMPDEST PUSH2 0x2203 DUP3 PUSH1 0x0 DUP4 PUSH2 0x2634 JUMP JUMPDEST PUSH2 0x224D DUP2 PUSH1 0x40 MLOAD DUP1 PUSH1 0x60 ADD PUSH1 0x40 MSTORE DUP1 PUSH1 0x22 DUP2 MSTORE PUSH1 0x20 ADD PUSH2 0x2CDC PUSH1 0x22 SWAP2 CODECOPY PUSH20 0xFFFFFFFFFFFFFFFFFFFFFFFFFFFFFFFFFFFFFFFF DUP6 AND PUSH1 0x0 SWAP1 DUP2 MSTORE PUSH1 0x1 PUSH1 0x20 MSTORE PUSH1 0x40 SWAP1 KECCAK256 SLOAD SWAP2 SWAP1 PUSH2 0x1D3C JUMP JUMPDEST PUSH20 0xFFFFFFFFFFFFFFFFFFFFFFFFFFFFFFFFFFFFFFFF DUP4 AND PUSH1 0x0 SWAP1 DUP2 MSTORE PUSH1 0x1 PUSH1 0x20 MSTORE PUSH1 0x40 SWAP1 KECCAK256 SSTORE PUSH1 0x3 SLOAD PUSH2 0x2280 SWAP1 DUP3 PUSH2 0x25A8 JUMP JUMPDEST PUSH1 0x3 SSTORE PUSH1 0x40 DUP1 MLOAD DUP3 DUP2 MSTORE SWAP1 MLOAD PUSH1 0x0 SWAP2 PUSH20 0xFFFFFFFFFFFFFFFFFFFFFFFFFFFFFFFFFFFFFFFF DUP6 AND SWAP2 PUSH32 0xDDF252AD1BE2C89B69C2B068FC378DAA952BA7F163C4A11628F55A4DF523B3EF SWAP2 DUP2 SWAP1 SUB PUSH1 0x20 ADD SWAP1 LOG3 POP POP JUMP JUMPDEST PUSH1 0x0 DUP1 PUSH1 0x0 DUP5 GT PUSH2 0x2347 JUMPI PUSH1 0x40 DUP1 MLOAD PUSH32 0x8C379A000000000000000000000000000000000000000000000000000000000 DUP2 MSTORE PUSH1 0x20 PUSH1 0x4 DUP3 ADD MSTORE PUSH1 0x16 PUSH1 0x24 DUP3 ADD MSTORE PUSH32 0x4552433230536E617073686F743A206964206973203000000000000000000000 PUSH1 0x44 DUP3 ADD MSTORE SWAP1 MLOAD SWAP1 DUP2 SWAP1 SUB PUSH1 0x64 ADD SWAP1 REVERT JUMPDEST PUSH2 0x2351 PUSH1 0xA PUSH2 0x278E JUMP JUMPDEST DUP5 GT ISZERO PUSH2 0x23BF JUMPI PUSH1 0x40 DUP1 MLOAD PUSH32 0x8C379A000000000000000000000000000000000000000000000000000000000 DUP2 MSTORE PUSH1 0x20 PUSH1 0x4 DUP3 ADD MSTORE PUSH1 0x1D PUSH1 0x24 DUP3 ADD MSTORE PUSH32 0x4552433230536E617073686F743A206E6F6E6578697374656E74206964000000 PUSH1 0x44 DUP3 ADD MSTORE SWAP1 MLOAD SWAP1 DUP2 SWAP1 SUB PUSH1 0x64 ADD SWAP1 REVERT JUMPDEST PUSH1 0x0 PUSH2 0x23CB DUP5 DUP7 PUSH2 0x2792 JUMP JUMPDEST DUP5 SLOAD SWAP1 SWAP2 POP DUP2 EQ ISZERO PUSH2 0x23E4 JUMPI PUSH1 0x0 DUP1 SWAP3 POP SWAP3 POP POP PUSH2 0x2406 JUMP JUMPDEST PUSH1 0x1 DUP5 PUSH1 0x1 ADD DUP3 DUP2 SLOAD DUP2 LT PUSH2 0x23F5 JUMPI INVALID JUMPDEST SWAP1 PUSH1 0x0 MSTORE PUSH1 0x20 PUSH1 0x0 KECCAK256 ADD SLOAD SWAP3 POP SWAP3 POP POP JUMPDEST SWAP3 POP SWAP3 SWAP1 POP JUMP JUMPDEST PUSH1 0x6 SLOAD PUSH2 0x100 SWAP1 DIV PUSH1 0xFF AND ISZERO PUSH2 0x2484 JUMPI PUSH1 0x40 DUP1 MLOAD PUSH32 0x8C379A000000000000000000000000000000000000000000000000000000000 DUP2 MSTORE PUSH1 0x20 PUSH1 0x4 DUP3 ADD MSTORE PUSH1 0x10 PUSH1 0x24 DUP3 ADD MSTORE PUSH32 0x5061757361626C653A2070617573656400000000000000000000000000000000 PUSH1 0x44 DUP3 ADD MSTORE SWAP1 MLOAD SWAP1 DUP2 SWAP1 SUB PUSH1 0x64 ADD SWAP1 REVERT JUMPDEST PUSH1 0x6 DUP1 SLOAD PUSH32 0xFFFFFFFFFFFFFFFFFFFFFFFFFFFFFFFFFFFFFFFFFFFFFFFFFFFFFFFFFFFF00FF AND PUSH2 0x100 OR SWAP1 SSTORE PUSH32 0x62E78CEA01BEE320CD4E420270B5EA74000D11B0C9F74754EBDBFC544B05A258 PUSH2 0x202E PUSH2 0x1A1F JUMP JUMPDEST PUSH1 0x0 PUSH2 0x1164 DUP4 DUP4 PUSH2 0x2851 JUMP JUMPDEST PUSH1 0x0 PUSH2 0x1164 DUP4 PUSH20 0xFFFFFFFFFFFFFFFFFFFFFFFFFFFFFFFFFFFFFFFF DUP5 AND PUSH2 0x28CF JUMP JUMPDEST PUSH1 0x0 PUSH2 0x2513 PUSH1 0xA PUSH2 0x28E7 JUMP JUMPDEST PUSH1 0x0 PUSH2 0x251F PUSH1 0xA PUSH2 0x278E JUMP JUMPDEST PUSH1 0x40 DUP1 MLOAD DUP3 DUP2 MSTORE SWAP1 MLOAD SWAP2 SWAP3 POP PUSH32 0x8030E83B04D87BEF53480E26263266D6CA66863AA8506ACA6F2559D18AA1CB67 SWAP2 SWAP1 DUP2 SWAP1 SUB PUSH1 0x20 ADD SWAP1 LOG1 SWAP1 POP SWAP1 JUMP JUMPDEST PUSH1 0x0 PUSH2 0xA1E DUP3 PUSH2 0x278E JUMP JUMPDEST PUSH1 0x0 PUSH2 0x1164 DUP4 DUP4 PUSH1 0x40 MLOAD DUP1 PUSH1 0x40 ADD PUSH1 0x40 MSTORE DUP1 PUSH1 0x1A DUP2 MSTORE PUSH1 0x20 ADD PUSH32 0x536166654D6174683A206469766973696F6E206279207A65726F000000000000 DUP2 MSTORE POP PUSH2 0x28F0 JUMP JUMPDEST PUSH1 0x0 PUSH2 0x1164 DUP4 DUP4 PUSH1 0x40 MLOAD DUP1 PUSH1 0x40 ADD PUSH1 0x40 MSTORE DUP1 PUSH1 0x1E DUP2 MSTORE PUSH1 0x20 ADD PUSH32 0x536166654D6174683A207375627472616374696F6E206F766572666C6F770000 DUP2 MSTORE POP PUSH2 0x1D3C JUMP JUMPDEST PUSH1 0x0 PUSH2 0x25F6 DUP4 DUP4 PUSH2 0x28CF JUMP JUMPDEST PUSH2 0x262C JUMPI POP DUP2 SLOAD PUSH1 0x1 DUP2 DUP2 ADD DUP5 SSTORE PUSH1 0x0 DUP5 DUP2 MSTORE PUSH1 0x20 DUP1 DUP3 KECCAK256 SWAP1 SWAP4 ADD DUP5 SWAP1 SSTORE DUP5 SLOAD DUP5 DUP3 MSTORE DUP3 DUP7 ADD SWAP1 SWAP4 MSTORE PUSH1 0x40 SWAP1 KECCAK256 SWAP2 SWAP1 SWAP2 SSTORE PUSH2 0xA1E JUMP JUMPDEST POP PUSH1 0x0 PUSH2 0xA1E JUMP JUMPDEST PUSH2 0x263F DUP4 DUP4 DUP4 PUSH2 0x296F JUMP JUMPDEST PUSH2 0x2647 PUSH2 0xFF9 JUMP JUMPDEST ISZERO DUP1 PUSH2 0x267A JUMPI POP PUSH2 0x267A PUSH32 0x65D7A28E3265B37A6474929F336521B332C1681B933F6CB9F3376673440D862A PUSH2 0xA31 PUSH2 0x1A1F JUMP JUMPDEST PUSH2 0x26CF JUMPI PUSH1 0x40 MLOAD PUSH32 0x8C379A000000000000000000000000000000000000000000000000000000000 DUP2 MSTORE PUSH1 0x4 ADD DUP1 DUP1 PUSH1 0x20 ADD DUP3 DUP2 SUB DUP3 MSTORE PUSH1 0x3B DUP2 MSTORE PUSH1 0x20 ADD DUP1 PUSH2 0x2ECD PUSH1 0x3B SWAP2 CODECOPY PUSH1 0x40 ADD SWAP2 POP POP PUSH1 0x40 MLOAD DUP1 SWAP2 SUB SWAP1 REVERT JUMPDEST PUSH20 0xFFFFFFFFFFFFFFFFFFFFFFFFFFFFFFFFFFFFFFFF DUP4 AND PUSH2 0x10A8 JUMPI PUSH1 0xB SLOAD PUSH2 0x26FF DUP3 PUSH2 0x26F9 PUSH2 0xA9D JUMP JUMPDEST SWAP1 PUSH2 0x1EF3 JUMP JUMPDEST GT ISZERO PUSH2 0x10A8 JUMPI PUSH1 0x40 DUP1 MLOAD PUSH32 0x8C379A000000000000000000000000000000000000000000000000000000000 DUP2 MSTORE PUSH1 0x20 PUSH1 0x4 DUP3 ADD MSTORE PUSH1 0x19 PUSH1 0x24 DUP3 ADD MSTORE PUSH32 0x45524332304361707065643A2063617020657863656564656400000000000000 PUSH1 0x44 DUP3 ADD MSTORE SWAP1 MLOAD SWAP1 DUP2 SWAP1 SUB PUSH1 0x64 ADD SWAP1 REVERT JUMPDEST PUSH1 0x0 PUSH2 0x1164 DUP4 PUSH20 0xFFFFFFFFFFFFFFFFFFFFFFFFFFFFFFFFFFFFFFFF DUP5 AND PUSH2 0x29E1 JUMP JUMPDEST SLOAD SWAP1 JUMP JUMPDEST DUP2 SLOAD PUSH1 0x0 SWAP1 PUSH2 0x27A3 JUMPI POP PUSH1 0x0 PUSH2 0xA1E JUMP JUMPDEST DUP3 SLOAD PUSH1 0x0 SWAP1 JUMPDEST DUP1 DUP3 LT ISZERO PUSH2 0x27F2 JUMPI PUSH1 0x0 PUSH2 0x27BD DUP4 DUP4 PUSH2 0x2AC5 JUMP JUMPDEST SWAP1 POP DUP5 DUP7 DUP3 DUP2 SLOAD DUP2 LT PUSH2 0x27CC JUMPI INVALID JUMPDEST SWAP1 PUSH1 0x0 MSTORE PUSH1 0x20 PUSH1 0x0 KECCAK256 ADD SLOAD GT ISZERO PUSH2 0x27E5 JUMPI DUP1 SWAP2 POP PUSH2 0x27EC JUMP JUMPDEST DUP1 PUSH1 0x1 ADD SWAP3 POP JUMPDEST POP PUSH2 0x27A9 JUMP JUMPDEST PUSH1 0x0 DUP3 GT DUP1 ISZERO PUSH2 0x281A JUMPI POP DUP4 DUP6 PUSH1 0x1 DUP5 SUB DUP2 SLOAD DUP2 LT PUSH2 0x280D JUMPI INVALID JUMPDEST SWAP1 PUSH1 0x0 MSTORE PUSH1 0x20 PUSH1 0x0 KECCAK256 ADD SLOAD EQ JUMPDEST ISZERO PUSH2 0x2849 JUMPI POP PUSH32 0xFFFFFFFFFFFFFFFFFFFFFFFFFFFFFFFFFFFFFFFFFFFFFFFFFFFFFFFFFFFFFFFF ADD SWAP1 POP PUSH2 0xA1E JUMP JUMPDEST POP SWAP1 POP PUSH2 0xA1E JUMP JUMPDEST DUP2 SLOAD PUSH1 0x0 SWAP1 DUP3 LT PUSH2 0x28AD JUMPI PUSH1 0x40 MLOAD PUSH32 0x8C379A000000000000000000000000000000000000000000000000000000000 DUP2 MSTORE PUSH1 0x4 ADD DUP1 DUP1 PUSH1 0x20 ADD DUP3 DUP2 SUB DUP3 MSTORE PUSH1 0x22 DUP2 MSTORE PUSH1 0x20 ADD DUP1 PUSH2 0x2C0A PUSH1 0x22 SWAP2 CODECOPY PUSH1 0x40 ADD SWAP2 POP POP PUSH1 0x40 MLOAD DUP1 SWAP2 SUB SWAP1 REVERT JUMPDEST DUP3 PUSH1 0x0 ADD DUP3 DUP2 SLOAD DUP2 LT PUSH2 0x28BC JUMPI INVALID JUMPDEST SWAP1 PUSH1 0x0 MSTORE PUSH1 0x20 PUSH1 0x0 KECCAK256 ADD SLOAD SWAP1 POP SWAP3 SWAP2 POP POP JUMP JUMPDEST PUSH1 0x0 SWAP1 DUP2 MSTORE PUSH1 0x1 SWAP2 SWAP1 SWAP2 ADD PUSH1 0x20 MSTORE PUSH1 0x40 SWAP1 KECCAK256 SLOAD ISZERO ISZERO SWAP1 JUMP JUMPDEST DUP1 SLOAD PUSH1 0x1 ADD SWAP1 SSTORE JUMP JUMPDEST PUSH1 0x0 DUP2 DUP4 PUSH2 0x2959 JUMPI PUSH1 0x40 MLOAD PUSH32 0x8C379A000000000000000000000000000000000000000000000000000000000 DUP2 MSTORE PUSH1 0x20 PUSH1 0x4 DUP3 ADD DUP2 DUP2 MSTORE DUP4 MLOAD PUSH1 0x24 DUP5 ADD MSTORE DUP4 MLOAD SWAP1 SWAP3 DUP4 SWAP3 PUSH1 0x44 SWAP1 SWAP2 ADD SWAP2 SWAP1 DUP6 ADD SWAP1 DUP1 DUP4 DUP4 PUSH1 0x0 DUP4 ISZERO PUSH2 0x1DAA JUMPI DUP2 DUP2 ADD MLOAD DUP4 DUP3 ADD MSTORE PUSH1 0x20 ADD PUSH2 0x1D92 JUMP JUMPDEST POP PUSH1 0x0 DUP4 DUP6 DUP2 PUSH2 0x2965 JUMPI INVALID JUMPDEST DIV SWAP6 SWAP5 POP POP POP POP POP JUMP JUMPDEST PUSH2 0x297A DUP4 DUP4 DUP4 PUSH2 0x10A8 JUMP JUMPDEST PUSH20 0xFFFFFFFFFFFFFFFFFFFFFFFFFFFFFFFFFFFFFFFF DUP4 AND PUSH2 0x29AB JUMPI PUSH2 0x299E DUP3 PUSH2 0x2AEA JUMP JUMPDEST PUSH2 0x29A6 PUSH2 0x2B21 JUMP JUMPDEST PUSH2 0x10A8 JUMP JUMPDEST PUSH20 0xFFFFFFFFFFFFFFFFFFFFFFFFFFFFFFFFFFFFFFFF DUP3 AND PUSH2 0x29CF JUMPI PUSH2 0x299E DUP4 PUSH2 0x2AEA JUMP JUMPDEST PUSH2 0x29D8 DUP4 PUSH2 0x2AEA JUMP JUMPDEST PUSH2 0x10A8 DUP3 PUSH2 0x2AEA JUMP JUMPDEST PUSH1 0x0 DUP2 DUP2 MSTORE PUSH1 0x1 DUP4 ADD PUSH1 0x20 MSTORE PUSH1 0x40 DUP2 KECCAK256 SLOAD DUP1 ISZERO PUSH2 0x2ABB JUMPI DUP4 SLOAD PUSH32 0xFFFFFFFFFFFFFFFFFFFFFFFFFFFFFFFFFFFFFFFFFFFFFFFFFFFFFFFFFFFFFFFF DUP1 DUP4 ADD SWAP2 SWAP1 DUP2 ADD SWAP1 PUSH1 0x0 SWAP1 DUP8 SWAP1 DUP4 SWAP1 DUP2 LT PUSH2 0x2A32 JUMPI INVALID JUMPDEST SWAP1 PUSH1 0x0 MSTORE PUSH1 0x20 PUSH1 0x0 KECCAK256 ADD SLOAD SWAP1 POP DUP1 DUP8 PUSH1 0x0 ADD DUP5 DUP2 SLOAD DUP2 LT PUSH2 0x2A4F JUMPI INVALID JUMPDEST PUSH1 0x0 SWAP2 DUP3 MSTORE PUSH1 0x20 DUP1 DUP4 KECCAK256 SWAP1 SWAP2 ADD SWAP3 SWAP1 SWAP3 SSTORE DUP3 DUP2 MSTORE PUSH1 0x1 DUP10 DUP2 ADD SWAP1 SWAP3 MSTORE PUSH1 0x40 SWAP1 KECCAK256 SWAP1 DUP5 ADD SWAP1 SSTORE DUP7 SLOAD DUP8 SWAP1 DUP1 PUSH2 0x2A7F JUMPI INVALID JUMPDEST PUSH1 0x1 SWAP1 SUB DUP2 DUP2 SWAP1 PUSH1 0x0 MSTORE PUSH1 0x20 PUSH1 0x0 KECCAK256 ADD PUSH1 0x0 SWAP1 SSTORE SWAP1 SSTORE DUP7 PUSH1 0x1 ADD PUSH1 0x0 DUP8 DUP2 MSTORE PUSH1 0x20 ADD SWAP1 DUP2 MSTORE PUSH1 0x20 ADD PUSH1 0x0 KECCAK256 PUSH1 0x0 SWAP1 SSTORE PUSH1 0x1 SWAP5 POP POP POP POP POP PUSH2 0xA1E JUMP JUMPDEST PUSH1 0x0 SWAP2 POP POP PUSH2 0xA1E JUMP JUMPDEST PUSH1 0x0 PUSH1 0x2 DUP1 DUP4 MOD PUSH1 0x2 DUP6 MOD ADD DUP2 PUSH2 0x2AD8 JUMPI INVALID JUMPDEST DIV PUSH1 0x2 DUP4 DIV PUSH1 0x2 DUP6 DIV ADD ADD SWAP4 SWAP3 POP POP POP JUMP JUMPDEST PUSH20 0xFFFFFFFFFFFFFFFFFFFFFFFFFFFFFFFFFFFFFFFF DUP2 AND PUSH1 0x0 SWAP1 DUP2 MSTORE PUSH1 0x7 PUSH1 0x20 MSTORE PUSH1 0x40 SWAP1 KECCAK256 PUSH2 0xA9A SWAP1 PUSH2 0x2B1C DUP4 PUSH2 0x102B JUMP JUMPDEST PUSH2 0x2B2E JUMP JUMPDEST PUSH2 0xDB2 PUSH1 0x8 PUSH2 0x2B1C PUSH2 0xA9D JUMP JUMPDEST PUSH1 0x0 PUSH2 0x2B3A PUSH1 0xA PUSH2 0x278E JUMP JUMPDEST SWAP1 POP DUP1 PUSH2 0x2B46 DUP5 PUSH2 0x2B7A JUMP JUMPDEST LT ISZERO PUSH2 0x10A8 JUMPI DUP3 SLOAD PUSH1 0x1 DUP1 DUP3 ADD DUP6 SSTORE PUSH1 0x0 DUP6 DUP2 MSTORE PUSH1 0x20 DUP1 DUP3 KECCAK256 SWAP1 SWAP4 ADD SWAP4 SWAP1 SWAP4 SSTORE SWAP4 DUP5 ADD DUP1 SLOAD SWAP5 DUP6 ADD DUP2 SSTORE DUP3 MSTORE SWAP1 KECCAK256 SWAP1 SWAP2 ADD SSTORE JUMP JUMPDEST DUP1 SLOAD PUSH1 0x0 SWAP1 PUSH2 0x2B8B JUMPI POP PUSH1 0x0 PUSH2 0xB57 JUMP JUMPDEST DUP2 SLOAD DUP3 SWAP1 PUSH32 0xFFFFFFFFFFFFFFFFFFFFFFFFFFFFFFFFFFFFFFFFFFFFFFFFFFFFFFFFFFFFFFFF DUP2 ADD SWAP1 DUP2 LT PUSH2 0x2BBB JUMPI INVALID JUMPDEST SWAP1 PUSH1 0x0 MSTORE PUSH1 0x20 PUSH1 0x0 KECCAK256 ADD SLOAD SWAP1 POP PUSH2 0xB57 JUMP INVALID POP MSTORE PUSH22 0x463A5046533A20436F6C642057616C6C6574202D2054 PUSH19 0x75737465642070617961626C652066756E6374 PUSH10 0x6F6E732070726F686962 PUSH10 0x746564456E756D657261 PUSH3 0x6C6553 PUSH6 0x743A20696E64 PUSH6 0x78206F757420 PUSH16 0x6620626F756E647345524332303A2074 PUSH19 0x616E7366657220746F20746865207A65726F20 PUSH2 0x6464 PUSH19 0x657373416363657373436F6E74726F6C3A2073 PUSH6 0x6E646572206D PUSH22 0x737420626520616E2061646D696E20746F206772616E PUSH21 0x505275463A4D4F443A205472757374656420506179 PUSH2 0x626C PUSH6 0x2046756E6374 PUSH10 0x6F6E207065726D616E65 PUSH15 0x746C792064697361626C6564202D20 PUSH22 0x736520616C6C6F77616E6365202F207472616E736665 PUSH19 0x46726F6D207061747465726E45524332303A20 PUSH3 0x75726E KECCAK256 PUSH2 0x6D6F PUSH22 0x6E7420657863656564732062616C616E636545524332 ADDRESS GASPRICE KECCAK256 PUSH2 0x7070 PUSH19 0x6F766520746F20746865207A65726F20616464 PUSH19 0x657373505275463A5441543A20436F6C642057 PUSH2 0x6C6C PUSH6 0x74202D205472 PUSH22 0x737465642066756E6374696F6E732070726F68696269 PUSH21 0x6564505275463A4D4F443A20547275737465642041 PUSH8 0x656E742066756E63 PUSH21 0x696F6E207065726D616E656E746C79206469736162 PUSH13 0x6564202D2075736520616C6C6F PUSH24 0x616E6365202F207472616E7366657246726F6D2070617474 PUSH6 0x726E45524332 ADDRESS GASPRICE KECCAK256 PUSH21 0x72616E7366657220616D6F756E7420657863656564 PUSH20 0x2062616C616E6365416363657373436F6E74726F PUSH13 0x3A2073656E646572206D757374 KECCAK256 PUSH3 0x652061 PUSH15 0x2061646D696E20746F207265766F6B PUSH6 0x455243323050 PUSH19 0x657365744D696E7465725061757365723A206D PUSH22 0x7374206861766520736E617073686F7420726F6C6520 PUSH21 0x6F2074616B65206120736E617073686F7450527546 GASPRICE MSTORE8 MSTORE8 COINBASE GASPRICE KECCAK256 PUSH17 0x61796D656E742061646472657373206361 PUSH15 0x6E6F74206265207A65726F45524332 ADDRESS GASPRICE KECCAK256 PUSH21 0x72616E7366657220616D6F756E7420657863656564 PUSH20 0x20616C6C6F77616E6365505275463A42524E3A20 NUMBER PUSH16 0x6C642057616C6C6574202D2054727573 PUSH21 0x65642066756E6374696F6E732070726F6869626974 PUSH6 0x644552433230 POP PUSH2 0x7573 PUSH2 0x626C PUSH6 0x3A2066756E63 PUSH21 0x696F6E20756E617661696C626C65207768696C6520 PUSH4 0x6F6E7472 PUSH2 0x6374 KECCAK256 PUSH10 0x73207061757365644552 NUMBER ORIGIN ADDRESS GASPRICE KECCAK256 PUSH3 0x75726E KECCAK256 PUSH2 0x6D6F PUSH22 0x6E74206578636565647320616C6C6F77616E63654552 NUMBER ORIGIN ADDRESS GASPRICE KECCAK256 PUSH3 0x75726E KECCAK256 PUSH7 0x726F6D20746865 KECCAK256 PUSH27 0x65726F206164647265737345524332303A207472616E7366657220 PUSH7 0x726F6D20746865 KECCAK256 PUSH27 0x65726F2061646472657373505275463A4D4F443A206D7573742068 PUSH2 0x7665 KECCAK256 DIFFICULTY GASLIMIT CHAINID COINBASE SSTORE 0x4C SLOAD 0x5F COINBASE DIFFICULTY 0x4D 0x49 0x4E 0x5F MSTORE 0x4F 0x4C GASLIMIT GASLIMIT MSTORE NUMBER ORIGIN ADDRESS GASPRICE KECCAK256 PUSH2 0x7070 PUSH19 0x6F76652066726F6D20746865207A65726F2061 PUSH5 0x6472657373 POP MSTORE PUSH22 0x463A4D4F443A206D7573742068617665205452555354 GASLIMIT DIFFICULTY 0x5F COINBASE SELFBALANCE GASLIMIT 0x4E SLOAD 0x5F MSTORE 0x4F 0x4C GASLIMIT GASLIMIT MSTORE NUMBER ORIGIN ADDRESS GASPRICE KECCAK256 PUSH5 0x6563726561 PUSH20 0x656420616C6C6F77616E63652062656C6F77207A PUSH6 0x726F41636365 PUSH20 0x73436F6E74726F6C3A2063616E206F6E6C792072 PUSH6 0x6E6F756E6365 KECCAK256 PUSH19 0x6F6C657320666F722073656C66A26469706673 PC 0x22 SLT KECCAK256 DUP4 OR 0xDA CALLDATALOAD PUSH6 0xE101010A007E SWAP13 DUP5 0x29 SWAP13 0xEC 0xD2 GAS 0xBE INVALID PUSH12 0xC2B698BA82E8398141624064 PUSH20 0x6F6C634300060C00330000000000000000000000 "
		},
		"gasEstimates": {
			"creation": {
				"codeDepositCost": "2479000",
				"executionCost": "infinite",
				"totalCost": "infinite"
			},
			"external": {
				"AdminSetSharesAddress(address)": "infinite",
				"DEFAULT_ADMIN_ROLE()": "287",
				"MINTER_ROLE()": "287",
				"PAUSER_ROLE()": "308",
				"PAYABLE_ROLE()": "287",
				"SNAPSHOT_ROLE()": "287",
				"TRUSTED_AGENT_ROLE()": "288",
				"adminKillTrustedAgent(uint256)": "infinite",
				"allowance(address,address)": "1292",
				"approve(address,uint256)": "infinite",
				"balanceOf(address)": "1229",
				"balanceOfAt(address,uint256)": "infinite",
				"burn(uint256)": "infinite",
				"burnFrom(address,uint256)": "infinite",
				"cap()": "1110",
				"decimals()": "1103",
				"decreaseAllowance(address,uint256)": "infinite",
				"getRoleAdmin(bytes32)": "1190",
				"getRoleMember(bytes32,uint256)": "infinite",
				"getRoleMemberCount(bytes32)": "infinite",
				"grantRole(bytes32,address)": "infinite",
				"hasRole(bytes32,address)": "infinite",
				"increaseAllowance(address,uint256)": "infinite",
				"isColdWallet(address)": "1186",
				"mint(address,uint256)": "infinite",
				"name()": "infinite",
				"pause()": "infinite",
				"paused()": "1088",
				"payForService(address,address,uint256,address,uint256)": "infinite",
				"renounceRole(bytes32,address)": "infinite",
				"revokeRole(bytes32,address)": "infinite",
				"setColdWallet()": "20333",
				"symbol()": "infinite",
				"takeSnapshot()": "infinite",
				"totalSupply()": "1089",
				"totalSupplyAt(uint256)": "infinite",
				"transfer(address,uint256)": "infinite",
				"transferFrom(address,address,uint256)": "infinite",
				"trustedAgentBurn(address,uint256)": "infinite",
				"trustedAgentTransfer(address,address,uint256)": "infinite",
				"unSetColdWallet()": "5357",
				"unpause()": "infinite"
			},
			"internal": {
				"_beforeTokenTransfer(address,address,uint256)": "infinite"
			}
		},
		"methodIdentifiers": {
			"AdminSetSharesAddress(address)": "50c7a35c",
			"DEFAULT_ADMIN_ROLE()": "a217fddf",
			"MINTER_ROLE()": "d5391393",
			"PAUSER_ROLE()": "e63ab1e9",
			"PAYABLE_ROLE()": "b3b0af6c",
			"SNAPSHOT_ROLE()": "7028e2cd",
			"TRUSTED_AGENT_ROLE()": "992a7176",
			"adminKillTrustedAgent(uint256)": "113e6c0c",
			"allowance(address,address)": "dd62ed3e",
			"approve(address,uint256)": "095ea7b3",
			"balanceOf(address)": "70a08231",
			"balanceOfAt(address,uint256)": "4ee2cd7e",
			"burn(uint256)": "42966c68",
			"burnFrom(address,uint256)": "79cc6790",
			"cap()": "355274ea",
			"decimals()": "313ce567",
			"decreaseAllowance(address,uint256)": "a457c2d7",
			"getRoleAdmin(bytes32)": "248a9ca3",
			"getRoleMember(bytes32,uint256)": "9010d07c",
			"getRoleMemberCount(bytes32)": "ca15c873",
			"grantRole(bytes32,address)": "2f2ff15d",
			"hasRole(bytes32,address)": "91d14854",
			"increaseAllowance(address,uint256)": "39509351",
			"isColdWallet(address)": "4ac3c31b",
			"mint(address,uint256)": "40c10f19",
			"name()": "06fdde03",
			"pause()": "8456cb59",
			"paused()": "5c975abb",
			"payForService(address,address,uint256,address,uint256)": "e60f0b98",
			"renounceRole(bytes32,address)": "36568abe",
			"revokeRole(bytes32,address)": "d547741f",
			"setColdWallet()": "adfcaae0",
			"symbol()": "95d89b41",
			"takeSnapshot()": "b3d3d37e",
			"totalSupply()": "18160ddd",
			"totalSupplyAt(uint256)": "981b24d0",
			"transfer(address,uint256)": "a9059cbb",
			"transferFrom(address,address,uint256)": "23b872dd",
			"trustedAgentBurn(address,uint256)": "ac416253",
			"trustedAgentTransfer(address,address,uint256)": "9b30d1e9",
			"unSetColdWallet()": "2670d216",
			"unpause()": "3f4ba83a"
		}
	},
	"abi": [
		{
			"inputs": [],
			"stateMutability": "nonpayable",
			"type": "constructor"
		},
		{
			"anonymous": false,
			"inputs": [
				{
					"indexed": true,
					"internalType": "address",
					"name": "owner",
					"type": "address"
				},
				{
					"indexed": true,
					"internalType": "address",
					"name": "spender",
					"type": "address"
				},
				{
					"indexed": false,
					"internalType": "uint256",
					"name": "value",
					"type": "uint256"
				}
			],
			"name": "Approval",
			"type": "event"
		},
		{
			"anonymous": false,
			"inputs": [
				{
					"indexed": false,
					"internalType": "address",
					"name": "account",
					"type": "address"
				}
			],
			"name": "Paused",
			"type": "event"
		},
		{
			"anonymous": false,
			"inputs": [
				{
					"indexed": true,
					"internalType": "bytes32",
					"name": "role",
					"type": "bytes32"
				},
				{
					"indexed": true,
					"internalType": "bytes32",
					"name": "previousAdminRole",
					"type": "bytes32"
				},
				{
					"indexed": true,
					"internalType": "bytes32",
					"name": "newAdminRole",
					"type": "bytes32"
				}
			],
			"name": "RoleAdminChanged",
			"type": "event"
		},
		{
			"anonymous": false,
			"inputs": [
				{
					"indexed": true,
					"internalType": "bytes32",
					"name": "role",
					"type": "bytes32"
				},
				{
					"indexed": true,
					"internalType": "address",
					"name": "account",
					"type": "address"
				},
				{
					"indexed": true,
					"internalType": "address",
					"name": "sender",
					"type": "address"
				}
			],
			"name": "RoleGranted",
			"type": "event"
		},
		{
			"anonymous": false,
			"inputs": [
				{
					"indexed": true,
					"internalType": "bytes32",
					"name": "role",
					"type": "bytes32"
				},
				{
					"indexed": true,
					"internalType": "address",
					"name": "account",
					"type": "address"
				},
				{
					"indexed": true,
					"internalType": "address",
					"name": "sender",
					"type": "address"
				}
			],
			"name": "RoleRevoked",
			"type": "event"
		},
		{
			"anonymous": false,
			"inputs": [
				{
					"indexed": false,
					"internalType": "uint256",
					"name": "id",
					"type": "uint256"
				}
			],
			"name": "Snapshot",
			"type": "event"
		},
		{
			"anonymous": false,
			"inputs": [
				{
					"indexed": true,
					"internalType": "address",
					"name": "from",
					"type": "address"
				},
				{
					"indexed": true,
					"internalType": "address",
					"name": "to",
					"type": "address"
				},
				{
					"indexed": false,
					"internalType": "uint256",
					"name": "value",
					"type": "uint256"
				}
			],
			"name": "Transfer",
			"type": "event"
		},
		{
			"anonymous": false,
			"inputs": [
				{
					"indexed": false,
					"internalType": "address",
					"name": "account",
					"type": "address"
				}
			],
			"name": "Unpaused",
			"type": "event"
		},
		{
			"inputs": [
				{
					"internalType": "address",
					"name": "_paymentAddress",
					"type": "address"
				}
			],
			"name": "AdminSetSharesAddress",
			"outputs": [],
			"stateMutability": "nonpayable",
			"type": "function"
		},
		{
			"inputs": [],
			"name": "DEFAULT_ADMIN_ROLE",
			"outputs": [
				{
					"internalType": "bytes32",
					"name": "",
					"type": "bytes32"
				}
			],
			"stateMutability": "view",
			"type": "function"
		},
		{
			"inputs": [],
			"name": "MINTER_ROLE",
			"outputs": [
				{
					"internalType": "bytes32",
					"name": "",
					"type": "bytes32"
				}
			],
			"stateMutability": "view",
			"type": "function"
		},
		{
			"inputs": [],
			"name": "PAUSER_ROLE",
			"outputs": [
				{
					"internalType": "bytes32",
					"name": "",
					"type": "bytes32"
				}
			],
			"stateMutability": "view",
			"type": "function"
		},
		{
			"inputs": [],
			"name": "PAYABLE_ROLE",
			"outputs": [
				{
					"internalType": "bytes32",
					"name": "",
					"type": "bytes32"
				}
			],
			"stateMutability": "view",
			"type": "function"
		},
		{
			"inputs": [],
			"name": "SNAPSHOT_ROLE",
			"outputs": [
				{
					"internalType": "bytes32",
					"name": "",
					"type": "bytes32"
				}
			],
			"stateMutability": "view",
			"type": "function"
		},
		{
			"inputs": [],
			"name": "TRUSTED_AGENT_ROLE",
			"outputs": [
				{
					"internalType": "bytes32",
					"name": "",
					"type": "bytes32"
				}
			],
			"stateMutability": "view",
			"type": "function"
		},
		{
			"inputs": [
				{
					"internalType": "uint256",
					"name": "_key",
					"type": "uint256"
				}
			],
			"name": "adminKillTrustedAgent",
			"outputs": [],
			"stateMutability": "nonpayable",
			"type": "function"
		},
		{
			"inputs": [
				{
					"internalType": "address",
					"name": "owner",
					"type": "address"
				},
				{
					"internalType": "address",
					"name": "spender",
					"type": "address"
				}
			],
			"name": "allowance",
			"outputs": [
				{
					"internalType": "uint256",
					"name": "",
					"type": "uint256"
				}
			],
			"stateMutability": "view",
			"type": "function"
		},
		{
			"inputs": [
				{
					"internalType": "address",
					"name": "spender",
					"type": "address"
				},
				{
					"internalType": "uint256",
					"name": "amount",
					"type": "uint256"
				}
			],
			"name": "approve",
			"outputs": [
				{
					"internalType": "bool",
					"name": "",
					"type": "bool"
				}
			],
			"stateMutability": "nonpayable",
			"type": "function"
		},
		{
			"inputs": [
				{
					"internalType": "address",
					"name": "account",
					"type": "address"
				}
			],
			"name": "balanceOf",
			"outputs": [
				{
					"internalType": "uint256",
					"name": "",
					"type": "uint256"
				}
			],
			"stateMutability": "view",
			"type": "function"
		},
		{
			"inputs": [
				{
					"internalType": "address",
					"name": "account",
					"type": "address"
				},
				{
					"internalType": "uint256",
					"name": "snapshotId",
					"type": "uint256"
				}
			],
			"name": "balanceOfAt",
			"outputs": [
				{
					"internalType": "uint256",
					"name": "",
					"type": "uint256"
				}
			],
			"stateMutability": "view",
			"type": "function"
		},
		{
			"inputs": [
				{
					"internalType": "uint256",
					"name": "amount",
					"type": "uint256"
				}
			],
			"name": "burn",
			"outputs": [],
			"stateMutability": "nonpayable",
			"type": "function"
		},
		{
			"inputs": [
				{
					"internalType": "address",
					"name": "account",
					"type": "address"
				},
				{
					"internalType": "uint256",
					"name": "amount",
					"type": "uint256"
				}
			],
			"name": "burnFrom",
			"outputs": [],
			"stateMutability": "nonpayable",
			"type": "function"
		},
		{
			"inputs": [],
			"name": "cap",
			"outputs": [
				{
					"internalType": "uint256",
					"name": "",
					"type": "uint256"
				}
			],
			"stateMutability": "view",
			"type": "function"
		},
		{
			"inputs": [],
			"name": "decimals",
			"outputs": [
				{
					"internalType": "uint8",
					"name": "",
					"type": "uint8"
				}
			],
			"stateMutability": "view",
			"type": "function"
		},
		{
			"inputs": [
				{
					"internalType": "address",
					"name": "spender",
					"type": "address"
				},
				{
					"internalType": "uint256",
					"name": "subtractedValue",
					"type": "uint256"
				}
			],
			"name": "decreaseAllowance",
			"outputs": [
				{
					"internalType": "bool",
					"name": "",
					"type": "bool"
				}
			],
			"stateMutability": "nonpayable",
			"type": "function"
		},
		{
			"inputs": [
				{
					"internalType": "bytes32",
					"name": "role",
					"type": "bytes32"
				}
			],
			"name": "getRoleAdmin",
			"outputs": [
				{
					"internalType": "bytes32",
					"name": "",
					"type": "bytes32"
				}
			],
			"stateMutability": "view",
			"type": "function"
		},
		{
			"inputs": [
				{
					"internalType": "bytes32",
					"name": "role",
					"type": "bytes32"
				},
				{
					"internalType": "uint256",
					"name": "index",
					"type": "uint256"
				}
			],
			"name": "getRoleMember",
			"outputs": [
				{
					"internalType": "address",
					"name": "",
					"type": "address"
				}
			],
			"stateMutability": "view",
			"type": "function"
		},
		{
			"inputs": [
				{
					"internalType": "bytes32",
					"name": "role",
					"type": "bytes32"
				}
			],
			"name": "getRoleMemberCount",
			"outputs": [
				{
					"internalType": "uint256",
					"name": "",
					"type": "uint256"
				}
			],
			"stateMutability": "view",
			"type": "function"
		},
		{
			"inputs": [
				{
					"internalType": "bytes32",
					"name": "role",
					"type": "bytes32"
				},
				{
					"internalType": "address",
					"name": "account",
					"type": "address"
				}
			],
			"name": "grantRole",
			"outputs": [],
			"stateMutability": "nonpayable",
			"type": "function"
		},
		{
			"inputs": [
				{
					"internalType": "bytes32",
					"name": "role",
					"type": "bytes32"
				},
				{
					"internalType": "address",
					"name": "account",
					"type": "address"
				}
			],
			"name": "hasRole",
			"outputs": [
				{
					"internalType": "bool",
					"name": "",
					"type": "bool"
				}
			],
			"stateMutability": "view",
			"type": "function"
		},
		{
			"inputs": [
				{
					"internalType": "address",
					"name": "spender",
					"type": "address"
				},
				{
					"internalType": "uint256",
					"name": "addedValue",
					"type": "uint256"
				}
			],
			"name": "increaseAllowance",
			"outputs": [
				{
					"internalType": "bool",
					"name": "",
					"type": "bool"
				}
			],
			"stateMutability": "nonpayable",
			"type": "function"
		},
		{
			"inputs": [
				{
					"internalType": "address",
					"name": "_addr",
					"type": "address"
				}
			],
			"name": "isColdWallet",
			"outputs": [
				{
					"internalType": "uint256",
					"name": "",
					"type": "uint256"
				}
			],
			"stateMutability": "view",
			"type": "function"
		},
		{
			"inputs": [
				{
					"internalType": "address",
					"name": "to",
					"type": "address"
				},
				{
					"internalType": "uint256",
					"name": "_amount",
					"type": "uint256"
				}
			],
			"name": "mint",
			"outputs": [],
			"stateMutability": "nonpayable",
			"type": "function"
		},
		{
			"inputs": [],
			"name": "name",
			"outputs": [
				{
					"internalType": "string",
					"name": "",
					"type": "string"
				}
			],
			"stateMutability": "view",
			"type": "function"
		},
		{
			"inputs": [],
			"name": "pause",
			"outputs": [],
			"stateMutability": "nonpayable",
			"type": "function"
		},
		{
			"inputs": [],
			"name": "paused",
			"outputs": [
				{
					"internalType": "bool",
					"name": "",
					"type": "bool"
				}
			],
			"stateMutability": "view",
			"type": "function"
		},
		{
			"inputs": [
				{
					"internalType": "address",
					"name": "_senderAddress",
					"type": "address"
				},
				{
					"internalType": "address",
					"name": "_rootAddress",
					"type": "address"
				},
				{
					"internalType": "uint256",
					"name": "_rootPrice",
					"type": "uint256"
				},
				{
					"internalType": "address",
					"name": "_ACTHaddress",
					"type": "address"
				},
				{
					"internalType": "uint256",
					"name": "_ACTHprice",
					"type": "uint256"
				}
			],
			"name": "payForService",
			"outputs": [],
			"stateMutability": "nonpayable",
			"type": "function"
		},
		{
			"inputs": [
				{
					"internalType": "bytes32",
					"name": "role",
					"type": "bytes32"
				},
				{
					"internalType": "address",
					"name": "account",
					"type": "address"
				}
			],
			"name": "renounceRole",
			"outputs": [],
			"stateMutability": "nonpayable",
			"type": "function"
		},
		{
			"inputs": [
				{
					"internalType": "bytes32",
					"name": "role",
					"type": "bytes32"
				},
				{
					"internalType": "address",
					"name": "account",
					"type": "address"
				}
			],
			"name": "revokeRole",
			"outputs": [],
			"stateMutability": "nonpayable",
			"type": "function"
		},
		{
			"inputs": [],
			"name": "setColdWallet",
			"outputs": [],
			"stateMutability": "nonpayable",
			"type": "function"
		},
		{
			"inputs": [],
			"name": "symbol",
			"outputs": [
				{
					"internalType": "string",
					"name": "",
					"type": "string"
				}
			],
			"stateMutability": "view",
			"type": "function"
		},
		{
			"inputs": [],
			"name": "takeSnapshot",
			"outputs": [
				{
					"internalType": "uint256",
					"name": "",
					"type": "uint256"
				}
			],
			"stateMutability": "nonpayable",
			"type": "function"
		},
		{
			"inputs": [],
			"name": "totalSupply",
			"outputs": [
				{
					"internalType": "uint256",
					"name": "",
					"type": "uint256"
				}
			],
			"stateMutability": "view",
			"type": "function"
		},
		{
			"inputs": [
				{
					"internalType": "uint256",
					"name": "snapshotId",
					"type": "uint256"
				}
			],
			"name": "totalSupplyAt",
			"outputs": [
				{
					"internalType": "uint256",
					"name": "",
					"type": "uint256"
				}
			],
			"stateMutability": "view",
			"type": "function"
		},
		{
			"inputs": [
				{
					"internalType": "address",
					"name": "recipient",
					"type": "address"
				},
				{
					"internalType": "uint256",
					"name": "amount",
					"type": "uint256"
				}
			],
			"name": "transfer",
			"outputs": [
				{
					"internalType": "bool",
					"name": "",
					"type": "bool"
				}
			],
			"stateMutability": "nonpayable",
			"type": "function"
		},
		{
			"inputs": [
				{
					"internalType": "address",
					"name": "sender",
					"type": "address"
				},
				{
					"internalType": "address",
					"name": "recipient",
					"type": "address"
				},
				{
					"internalType": "uint256",
					"name": "amount",
					"type": "uint256"
				}
			],
			"name": "transferFrom",
			"outputs": [
				{
					"internalType": "bool",
					"name": "",
					"type": "bool"
				}
			],
			"stateMutability": "nonpayable",
			"type": "function"
		},
		{
			"inputs": [
				{
					"internalType": "address",
					"name": "_addr",
					"type": "address"
				},
				{
					"internalType": "uint256",
					"name": "_amount",
					"type": "uint256"
				}
			],
			"name": "trustedAgentBurn",
			"outputs": [],
			"stateMutability": "nonpayable",
			"type": "function"
		},
		{
			"inputs": [
				{
					"internalType": "address",
					"name": "_from",
					"type": "address"
				},
				{
					"internalType": "address",
					"name": "_to",
					"type": "address"
				},
				{
					"internalType": "uint256",
					"name": "_amount",
					"type": "uint256"
				}
			],
			"name": "trustedAgentTransfer",
			"outputs": [],
			"stateMutability": "nonpayable",
			"type": "function"
		},
		{
			"inputs": [],
			"name": "unSetColdWallet",
			"outputs": [],
			"stateMutability": "nonpayable",
			"type": "function"
		},
		{
			"inputs": [],
			"name": "unpause",
			"outputs": [],
			"stateMutability": "nonpayable",
			"type": "function"
		}
	]
}