{
	"data": {
		"bytecode": {
			"linkReferences": {},
			"object": "608060405261271060035561138860045534801561001c57600080fd5b50600061002d6100d060201b60201c565b9050806000806101000a81548173ffffffffffffffffffffffffffffffffffffffff021916908373ffffffffffffffffffffffffffffffffffffffff1602179055508073ffffffffffffffffffffffffffffffffffffffff16600073ffffffffffffffffffffffffffffffffffffffff167f8be0079c531659141344cd1fd0a4f28419497f9722a3daafe3b4186f6b6457e060405160405180910390a3506100d8565b600033905090565b61215c806100e76000396000f3fe608060405234801561001057600080fd5b50600436106101735760003560e01c80637de7e5b1116100de578063c2161c3111610097578063ca51634111610071578063ca516341146104e8578063e44f5bba14610518578063f2fde38b14610548578063fea1cfdd1461056457610173565b8063c2161c3114610458578063c3dacc2214610488578063c58fd5c1146104b857610173565b80637de7e5b11461034a57806386c4cd801461037a5780638da5cb5b146103aa57806399672666146103c8578063aac08ac2146103f8578063bf5120851461042857610173565b8063557ed1ba11610130578063557ed1ba1461027557806358ca12651461029357806360c1f1fb146102c35780636295184d146102f457806362c5591e14610324578063715018a61461034057610173565b806309b35c86146101785780631ac6a5631461019757806329addf71146101c75780632e97766d146101f7578063490701061461021557806350b3f7f714610245575b600080fd5b610180610594565b60405161018e929190611beb565b60405180910390f35b6101b160048036038101906101ac91906115cd565b6105a5565b6040516101be9190611aef565b60405180910390f35b6101e160048036038101906101dc919061143a565b6105e3565b6040516101ee9190611bd0565b60405180910390f35b6101ff6105f0565b60405161020c9190611bd0565b60405180910390f35b61022f600480360381019061022a919061143a565b6105f8565b60405161023c9190611ad4565b60405180910390f35b61025f600480360381019061025a919061143a565b610731565b60405161026c9190611aef565b60405180910390f35b61027d610761565b60405161028a9190611bd0565b60405180910390f35b6102ad60048036038101906102a891906116d1565b610769565b6040516102ba9190611aef565b60405180910390f35b6102dd60048036038101906102d89190611467565b61079c565b6040516102eb929190611b0a565b60405180910390f35b61030e600480360381019061030991906116a4565b61080c565b60405161031b9190611aef565b60405180910390f35b61033e600480360381019061033991906113e0565b61083c565b005b6103486109ad565b005b610364600480360381019061035f9190611467565b610ae7565b6040516103719190611aef565b60405180910390f35b610394600480360381019061038f9190611711565b610b2b565b6040516103a19190611aef565b60405180910390f35b6103b2610b92565b6040516103bf9190611ad4565b60405180910390f35b6103e260048036038101906103dd91906113e0565b610bbb565b6040516103ef9190611aef565b60405180910390f35b610412600480360381019061040d91906116a4565b610beb565b60405161041f9190611aef565b60405180910390f35b610442600480360381019061043d91906116a4565b610bf8565b60405161044f9190611ad4565b60405180910390f35b610472600480360381019061046d9190611580565b610d28565b60405161047f9190611aef565b60405180910390f35b6104a2600480360381019061049d91906113e0565b610d5b565b6040516104af9190611bb5565b60405180910390f35b6104d260048036038101906104cd91906116a4565b610d65565b6040516104df9190611b33565b60405180910390f35b61050260048036038101906104fd91906116a4565b610eaa565b60405161050f9190611b33565b60405180910390f35b610532600480360381019061052d9190611467565b61101d565b60405161053f9190611aef565b60405180910390f35b610562600480360381019061055d91906113e0565b611087565b005b61057e60048036038101906105799190611711565b611230565b60405161058b9190611b33565b60405180910390f35b600080600454600354915091509091565b600080858585856040516020016105bf94939291906119a8565b60405160208183030381529060405280519060200120905080915050949350505050565b60008160001c9050919050565b600043905090565b60006106026112a9565b73ffffffffffffffffffffffffffffffffffffffff16610620610b92565b73ffffffffffffffffffffffffffffffffffffffff1614610676576040517f08c379a000000000000000000000000000000000000000000000000000000000815260040161066d90611b95565b60405180910390fd5b60008260001c9050600260009054906101000a900473ffffffffffffffffffffffffffffffffffffffff1673ffffffffffffffffffffffffffffffffffffffff16636352211e826040518263ffffffff1660e01b81526004016106d99190611bd0565b60206040518083038186803b1580156106f157600080fd5b505afa158015610705573d6000803e3d6000fd5b505050506040513d601f19601f82011682018060405250810190610729919061140d565b915050919050565b600081604051602001610744919061191c565b604051602081830303815290604052805190602001209050919050565b600042905090565b6000828260405160200161077e929190611aa8565b60405160208183030381529060405280519060200120905092915050565b600080600087878787876040516020016107ba9594939291906119e6565b6040516020818303038152906040528051906020012090508089826040516020016107e6929190611937565b604051602081830303815290604052805190602001209250925050965096945050505050565b60008160405160200161081f9190611a8d565b604051602081830303815290604052805190602001209050919050565b6108446112a9565b73ffffffffffffffffffffffffffffffffffffffff16610862610b92565b73ffffffffffffffffffffffffffffffffffffffff16146108b8576040517f08c379a00000000000000000000000000000000000000000000000000000000081526004016108af90611b95565b60405180910390fd5b600073ffffffffffffffffffffffffffffffffffffffff168173ffffffffffffffffffffffffffffffffffffffff161415610928576040517f08c379a000000000000000000000000000000000000000000000000000000000815260040161091f90611b75565b60405180910390fd5b80600160006101000a81548173ffffffffffffffffffffffffffffffffffffffff021916908373ffffffffffffffffffffffffffffffffffffffff16021790555080600260006101000a81548173ffffffffffffffffffffffffffffffffffffffff021916908373ffffffffffffffffffffffffffffffffffffffff16021790555050565b6109b56112a9565b73ffffffffffffffffffffffffffffffffffffffff166109d3610b92565b73ffffffffffffffffffffffffffffffffffffffff1614610a29576040517f08c379a0000000000000000000000000000000000000000000000000000000008152600401610a2090611b95565b60405180910390fd5b600073ffffffffffffffffffffffffffffffffffffffff1660008054906101000a900473ffffffffffffffffffffffffffffffffffffffff1673ffffffffffffffffffffffffffffffffffffffff167f8be0079c531659141344cd1fd0a4f28419497f9722a3daafe3b4186f6b6457e060405160405180910390a360008060006101000a81548173ffffffffffffffffffffffffffffffffffffffff021916908373ffffffffffffffffffffffffffffffffffffffff160217905550565b60008086868686868c604051602001610b0596959493929190611a31565b604051602081830303815290604052805190602001209050809150509695505050505050565b6000808383604051602001610b4192919061198f565b60405160208183030381529060405280519060200120905060008186604051602001610b6e929190611963565b60405160208183030381529060405280519060200120905080925050509392505050565b60008060009054906101000a900473ffffffffffffffffffffffffffffffffffffffff16905090565b600081604051602001610bce9190611901565b604051602081830303815290604052805190602001209050919050565b60008160001b9050919050565b6000610c026112a9565b73ffffffffffffffffffffffffffffffffffffffff16610c20610b92565b73ffffffffffffffffffffffffffffffffffffffff1614610c76576040517f08c379a0000000000000000000000000000000000000000000000000000000008152600401610c6d90611b95565b60405180910390fd5b600260009054906101000a900473ffffffffffffffffffffffffffffffffffffffff1673ffffffffffffffffffffffffffffffffffffffff16636352211e836040518263ffffffff1660e01b8152600401610cd19190611bd0565b60206040518083038186803b158015610ce957600080fd5b505afa158015610cfd573d6000803e3d6000fd5b505050506040513d601f19601f82011682018060405250810190610d21919061140d565b9050919050565b60008282604051602001610d3d92919061198f565b60405160208183030381529060405280519060200120905092915050565b6000819050919050565b6060610d6f6112a9565b73ffffffffffffffffffffffffffffffffffffffff16600260009054906101000a900473ffffffffffffffffffffffffffffffffffffffff1673ffffffffffffffffffffffffffffffffffffffff16636352211e846040518263ffffffff1660e01b8152600401610de09190611bd0565b60206040518083038186803b158015610df857600080fd5b505afa158015610e0c573d6000803e3d6000fd5b505050506040513d601f19601f82011682018060405250810190610e30919061140d565b73ffffffffffffffffffffffffffffffffffffffff161415610e6c57604051806060016040528060218152602001612106602191399050610ea5565b6040518060400160405280601b81526020017f746f6b656e206e6f742061742073656e6465722061646472657373000000000081525090505b919050565b60606000821415610ef2576040518060400160405280600181526020017f30000000000000000000000000000000000000000000000000000000000000008152509050611018565b600082905060005b60008214610f24578080610f0d90611e3f565b915050600a82610f1d9190611ce7565b9150610efa565b60008167ffffffffffffffff811115610f4057610f3f611f90565b5b6040519080825280601f01601f191660200182016040528015610f725781602001600182028036833780820191505090505b5090506000600183610f849190611d18565b90508593505b6000841461101057600a84610f9f9190611ed2565b6030610fab9190611c91565b60f81b828280610fba90611de4565b935081518110610fcd57610fcc611f61565b5b60200101907effffffffffffffffffffffffffffffffffffffffffffffffffffffffffffff1916908160001a905350600a846110099190611ce7565b9350610f8a565b819450505050505b919050565b60008086868686866040516020016110399594939291906119e6565b6040516020818303038152906040528051906020012090508781604051602001611064929190611937565b604051602081830303815290604052805190602001209150509695505050505050565b61108f6112a9565b73ffffffffffffffffffffffffffffffffffffffff166110ad610b92565b73ffffffffffffffffffffffffffffffffffffffff1614611103576040517f08c379a00000000000000000000000000000000000000000000000000000000081526004016110fa90611b95565b60405180910390fd5b600073ffffffffffffffffffffffffffffffffffffffff168173ffffffffffffffffffffffffffffffffffffffff161415611173576040517f08c379a000000000000000000000000000000000000000000000000000000000815260040161116a90611b55565b60405180910390fd5b8073ffffffffffffffffffffffffffffffffffffffff1660008054906101000a900473ffffffffffffffffffffffffffffffffffffffff1673ffffffffffffffffffffffffffffffffffffffff167f8be0079c531659141344cd1fd0a4f28419497f9722a3daafe3b4186f6b6457e060405160405180910390a3806000806101000a81548173ffffffffffffffffffffffffffffffffffffffff021916908373ffffffffffffffffffffffffffffffffffffffff16021790555050565b60606000838360405160200161124792919061198f565b60405160208183030381529060405280519060200120905060008186604051602001611274929190611963565b604051602081830303815290604052805190602001209050600061129a8260001c610eaa565b90508093505050509392505050565b600033905090565b60006112c46112bf84611c39565b611c14565b9050828152602081018484840111156112e0576112df611fce565b5b6112eb848285611da2565b509392505050565b600081359050611302816120a9565b92915050565b600081519050611317816120a9565b92915050565b60008135905061132c816120c0565b92915050565b60008083601f84011261134857611347611fc4565b5b8235905067ffffffffffffffff81111561136557611364611fbf565b5b60208301915083600182028301111561138157611380611fc9565b5b9250929050565b600082601f83011261139d5761139c611fc4565b5b81356113ad8482602086016112b1565b91505092915050565b6000813590506113c5816120d7565b92915050565b6000813590506113da816120ee565b92915050565b6000602082840312156113f6576113f5611fd8565b5b6000611404848285016112f3565b91505092915050565b60006020828403121561142357611422611fd8565b5b600061143184828501611308565b91505092915050565b6000602082840312156114505761144f611fd8565b5b600061145e8482850161131d565b91505092915050565b60008060008060008060c0878903121561148457611483611fd8565b5b600061149289828a0161131d565b965050602087013567ffffffffffffffff8111156114b3576114b2611fd3565b5b6114bf89828a01611388565b955050604087013567ffffffffffffffff8111156114e0576114df611fd3565b5b6114ec89828a01611388565b945050606087013567ffffffffffffffff81111561150d5761150c611fd3565b5b61151989828a01611388565b935050608087013567ffffffffffffffff81111561153a57611539611fd3565b5b61154689828a01611388565b92505060a087013567ffffffffffffffff81111561156757611566611fd3565b5b61157389828a01611388565b9150509295509295509295565b6000806020838503121561159757611596611fd8565b5b600083013567ffffffffffffffff8111156115b5576115b4611fd3565b5b6115c185828601611332565b92509250509250929050565b600080600080608085870312156115e7576115e6611fd8565b5b600085013567ffffffffffffffff81111561160557611604611fd3565b5b61161187828801611388565b945050602085013567ffffffffffffffff81111561163257611631611fd3565b5b61163e87828801611388565b935050604085013567ffffffffffffffff81111561165f5761165e611fd3565b5b61166b87828801611388565b925050606085013567ffffffffffffffff81111561168c5761168b611fd3565b5b61169887828801611388565b91505092959194509250565b6000602082840312156116ba576116b9611fd8565b5b60006116c8848285016113b6565b91505092915050565b600080604083850312156116e8576116e7611fd8565b5b60006116f6858286016113b6565b9250506020611707858286016112f3565b9150509250929050565b60008060006040848603121561172a57611729611fd8565b5b6000611738868287016113cb565b935050602084013567ffffffffffffffff81111561175957611758611fd3565b5b61176586828701611332565b92509250509250925092565b61177a81611d4c565b82525050565b61179161178c82611d4c565b611e88565b82525050565b6117a081611d5e565b82525050565b6117b76117b282611d5e565b611e9a565b82525050565b60006117c98385611c86565b93506117d6838584611da2565b82840190509392505050565b60006117ed82611c6a565b6117f78185611c75565b9350611807818560208601611db1565b61181081611fdd565b840191505092915050565b600061182682611c6a565b6118308185611c86565b9350611840818560208601611db1565b80840191505092915050565b6000611859602683611c75565b915061186482612008565b604082019050919050565b600061187c601883611c75565b915061188782612057565b602082019050919050565b600061189f602083611c75565b91506118aa82612080565b602082019050919050565b6118be81611d68565b82525050565b6118cd81611d88565b82525050565b6118e46118df82611d88565b611eb6565b82525050565b6118fb6118f682611d92565b611ec0565b82525050565b600061190d8284611780565b60148201915081905092915050565b600061192882846117a6565b60208201915081905092915050565b600061194382856117a6565b60208201915061195382846117a6565b6020820191508190509392505050565b600061196f82856117a6565b60208201915061197f82846118ea565b6004820191508190509392505050565b600061199c8284866117bd565b91508190509392505050565b60006119b4828761181b565b91506119c0828661181b565b91506119cc828561181b565b91506119d8828461181b565b915081905095945050505050565b60006119f2828861181b565b91506119fe828761181b565b9150611a0a828661181b565b9150611a16828561181b565b9150611a22828461181b565b91508190509695505050505050565b6000611a3d828961181b565b9150611a49828861181b565b9150611a55828761181b565b9150611a61828661181b565b9150611a6d828561181b565b9150611a7982846117a6565b602082019150819050979650505050505050565b6000611a9982846118d3565b60208201915081905092915050565b6000611ab482856118d3565b602082019150611ac48284611780565b6014820191508190509392505050565b6000602082019050611ae96000830184611771565b92915050565b6000602082019050611b046000830184611797565b92915050565b6000604082019050611b1f6000830185611797565b611b2c6020830184611797565b9392505050565b60006020820190508181036000830152611b4d81846117e2565b905092915050565b60006020820190508181036000830152611b6e8161184c565b9050919050565b60006020820190508181036000830152611b8e8161186f565b9050919050565b60006020820190508181036000830152611bae81611892565b9050919050565b6000602082019050611bca60008301846118b5565b92915050565b6000602082019050611be560008301846118c4565b92915050565b6000604082019050611c0060008301856118c4565b611c0d60208301846118c4565b9392505050565b6000611c1e611c2f565b9050611c2a8282611e0e565b919050565b6000604051905090565b600067ffffffffffffffff821115611c5457611c53611f90565b5b611c5d82611fdd565b9050602081019050919050565b600081519050919050565b600082825260208201905092915050565b600081905092915050565b6000611c9c82611d88565b9150611ca783611d88565b9250827fffffffffffffffffffffffffffffffffffffffffffffffffffffffffffffffff03821115611cdc57611cdb611f03565b5b828201905092915050565b6000611cf282611d88565b9150611cfd83611d88565b925082611d0d57611d0c611f32565b5b828204905092915050565b6000611d2382611d88565b9150611d2e83611d88565b925082821015611d4157611d40611f03565b5b828203905092915050565b6000611d5782611d68565b9050919050565b6000819050919050565b600073ffffffffffffffffffffffffffffffffffffffff82169050919050565b6000819050919050565b600063ffffffff82169050919050565b82818337600083830152505050565b60005b83811015611dcf578082015181840152602081019050611db4565b83811115611dde576000848401525b50505050565b6000611def82611d88565b91506000821415611e0357611e02611f03565b5b600182039050919050565b611e1782611fdd565b810181811067ffffffffffffffff82111715611e3657611e35611f90565b5b80604052505050565b6000611e4a82611d88565b91507fffffffffffffffffffffffffffffffffffffffffffffffffffffffffffffffff821415611e7d57611e7c611f03565b5b600182019050919050565b6000611e9382611ea4565b9050919050565b6000819050919050565b6000611eaf82611ffb565b9050919050565b6000819050919050565b6000611ecb82611fee565b9050919050565b6000611edd82611d88565b9150611ee883611d88565b925082611ef857611ef7611f32565b5b828206905092915050565b7f4e487b7100000000000000000000000000000000000000000000000000000000600052601160045260246000fd5b7f4e487b7100000000000000000000000000000000000000000000000000000000600052601260045260246000fd5b7f4e487b7100000000000000000000000000000000000000000000000000000000600052603260045260246000fd5b7f4e487b7100000000000000000000000000000000000000000000000000000000600052604160045260246000fd5b600080fd5b600080fd5b600080fd5b600080fd5b600080fd5b600080fd5b6000601f19601f8301169050919050565b60008160e01b9050919050565b60008160601b9050919050565b7f4f776e61626c653a206e6577206f776e657220697320746865207a65726f206160008201527f6464726573730000000000000000000000000000000000000000000000000000602082015250565b7f496e76616c696420636f6e747261637420616464726573730000000000000000600082015250565b7f4f776e61626c653a2063616c6c6572206973206e6f7420746865206f776e6572600082015250565b6120b281611d4c565b81146120bd57600080fd5b50565b6120c981611d5e565b81146120d457600080fd5b50565b6120e081611d88565b81146120eb57600080fd5b50565b6120f781611d92565b811461210257600080fd5b5056fe746f6b656e20636f6e6669726d65642061742073656e6465722061646472657373a2646970667358221220d23788ab484084ca8a86396a0b4a0b2281e3102136a72b8ab15fef301e0dc15a64736f6c63430008070033",
			"opcodes": "PUSH1 0x80 PUSH1 0x40 MSTORE PUSH2 0x2710 PUSH1 0x3 SSTORE PUSH2 0x1388 PUSH1 0x4 SSTORE CALLVALUE DUP1 ISZERO PUSH2 0x1C JUMPI PUSH1 0x0 DUP1 REVERT JUMPDEST POP PUSH1 0x0 PUSH2 0x2D PUSH2 0xD0 PUSH1 0x20 SHL PUSH1 0x20 SHR JUMP JUMPDEST SWAP1 POP DUP1 PUSH1 0x0 DUP1 PUSH2 0x100 EXP DUP2 SLOAD DUP2 PUSH20 0xFFFFFFFFFFFFFFFFFFFFFFFFFFFFFFFFFFFFFFFF MUL NOT AND SWAP1 DUP4 PUSH20 0xFFFFFFFFFFFFFFFFFFFFFFFFFFFFFFFFFFFFFFFF AND MUL OR SWAP1 SSTORE POP DUP1 PUSH20 0xFFFFFFFFFFFFFFFFFFFFFFFFFFFFFFFFFFFFFFFF AND PUSH1 0x0 PUSH20 0xFFFFFFFFFFFFFFFFFFFFFFFFFFFFFFFFFFFFFFFF AND PUSH32 0x8BE0079C531659141344CD1FD0A4F28419497F9722A3DAAFE3B4186F6B6457E0 PUSH1 0x40 MLOAD PUSH1 0x40 MLOAD DUP1 SWAP2 SUB SWAP1 LOG3 POP PUSH2 0xD8 JUMP JUMPDEST PUSH1 0x0 CALLER SWAP1 POP SWAP1 JUMP JUMPDEST PUSH2 0x215C DUP1 PUSH2 0xE7 PUSH1 0x0 CODECOPY PUSH1 0x0 RETURN INVALID PUSH1 0x80 PUSH1 0x40 MSTORE CALLVALUE DUP1 ISZERO PUSH2 0x10 JUMPI PUSH1 0x0 DUP1 REVERT JUMPDEST POP PUSH1 0x4 CALLDATASIZE LT PUSH2 0x173 JUMPI PUSH1 0x0 CALLDATALOAD PUSH1 0xE0 SHR DUP1 PUSH4 0x7DE7E5B1 GT PUSH2 0xDE JUMPI DUP1 PUSH4 0xC2161C31 GT PUSH2 0x97 JUMPI DUP1 PUSH4 0xCA516341 GT PUSH2 0x71 JUMPI DUP1 PUSH4 0xCA516341 EQ PUSH2 0x4E8 JUMPI DUP1 PUSH4 0xE44F5BBA EQ PUSH2 0x518 JUMPI DUP1 PUSH4 0xF2FDE38B EQ PUSH2 0x548 JUMPI DUP1 PUSH4 0xFEA1CFDD EQ PUSH2 0x564 JUMPI PUSH2 0x173 JUMP JUMPDEST DUP1 PUSH4 0xC2161C31 EQ PUSH2 0x458 JUMPI DUP1 PUSH4 0xC3DACC22 EQ PUSH2 0x488 JUMPI DUP1 PUSH4 0xC58FD5C1 EQ PUSH2 0x4B8 JUMPI PUSH2 0x173 JUMP JUMPDEST DUP1 PUSH4 0x7DE7E5B1 EQ PUSH2 0x34A JUMPI DUP1 PUSH4 0x86C4CD80 EQ PUSH2 0x37A JUMPI DUP1 PUSH4 0x8DA5CB5B EQ PUSH2 0x3AA JUMPI DUP1 PUSH4 0x99672666 EQ PUSH2 0x3C8 JUMPI DUP1 PUSH4 0xAAC08AC2 EQ PUSH2 0x3F8 JUMPI DUP1 PUSH4 0xBF512085 EQ PUSH2 0x428 JUMPI PUSH2 0x173 JUMP JUMPDEST DUP1 PUSH4 0x557ED1BA GT PUSH2 0x130 JUMPI DUP1 PUSH4 0x557ED1BA EQ PUSH2 0x275 JUMPI DUP1 PUSH4 0x58CA1265 EQ PUSH2 0x293 JUMPI DUP1 PUSH4 0x60C1F1FB EQ PUSH2 0x2C3 JUMPI DUP1 PUSH4 0x6295184D EQ PUSH2 0x2F4 JUMPI DUP1 PUSH4 0x62C5591E EQ PUSH2 0x324 JUMPI DUP1 PUSH4 0x715018A6 EQ PUSH2 0x340 JUMPI PUSH2 0x173 JUMP JUMPDEST DUP1 PUSH4 0x9B35C86 EQ PUSH2 0x178 JUMPI DUP1 PUSH4 0x1AC6A563 EQ PUSH2 0x197 JUMPI DUP1 PUSH4 0x29ADDF71 EQ PUSH2 0x1C7 JUMPI DUP1 PUSH4 0x2E97766D EQ PUSH2 0x1F7 JUMPI DUP1 PUSH4 0x49070106 EQ PUSH2 0x215 JUMPI DUP1 PUSH4 0x50B3F7F7 EQ PUSH2 0x245 JUMPI JUMPDEST PUSH1 0x0 DUP1 REVERT JUMPDEST PUSH2 0x180 PUSH2 0x594 JUMP JUMPDEST PUSH1 0x40 MLOAD PUSH2 0x18E SWAP3 SWAP2 SWAP1 PUSH2 0x1BEB JUMP JUMPDEST PUSH1 0x40 MLOAD DUP1 SWAP2 SUB SWAP1 RETURN JUMPDEST PUSH2 0x1B1 PUSH1 0x4 DUP1 CALLDATASIZE SUB DUP2 ADD SWAP1 PUSH2 0x1AC SWAP2 SWAP1 PUSH2 0x15CD JUMP JUMPDEST PUSH2 0x5A5 JUMP JUMPDEST PUSH1 0x40 MLOAD PUSH2 0x1BE SWAP2 SWAP1 PUSH2 0x1AEF JUMP JUMPDEST PUSH1 0x40 MLOAD DUP1 SWAP2 SUB SWAP1 RETURN JUMPDEST PUSH2 0x1E1 PUSH1 0x4 DUP1 CALLDATASIZE SUB DUP2 ADD SWAP1 PUSH2 0x1DC SWAP2 SWAP1 PUSH2 0x143A JUMP JUMPDEST PUSH2 0x5E3 JUMP JUMPDEST PUSH1 0x40 MLOAD PUSH2 0x1EE SWAP2 SWAP1 PUSH2 0x1BD0 JUMP JUMPDEST PUSH1 0x40 MLOAD DUP1 SWAP2 SUB SWAP1 RETURN JUMPDEST PUSH2 0x1FF PUSH2 0x5F0 JUMP JUMPDEST PUSH1 0x40 MLOAD PUSH2 0x20C SWAP2 SWAP1 PUSH2 0x1BD0 JUMP JUMPDEST PUSH1 0x40 MLOAD DUP1 SWAP2 SUB SWAP1 RETURN JUMPDEST PUSH2 0x22F PUSH1 0x4 DUP1 CALLDATASIZE SUB DUP2 ADD SWAP1 PUSH2 0x22A SWAP2 SWAP1 PUSH2 0x143A JUMP JUMPDEST PUSH2 0x5F8 JUMP JUMPDEST PUSH1 0x40 MLOAD PUSH2 0x23C SWAP2 SWAP1 PUSH2 0x1AD4 JUMP JUMPDEST PUSH1 0x40 MLOAD DUP1 SWAP2 SUB SWAP1 RETURN JUMPDEST PUSH2 0x25F PUSH1 0x4 DUP1 CALLDATASIZE SUB DUP2 ADD SWAP1 PUSH2 0x25A SWAP2 SWAP1 PUSH2 0x143A JUMP JUMPDEST PUSH2 0x731 JUMP JUMPDEST PUSH1 0x40 MLOAD PUSH2 0x26C SWAP2 SWAP1 PUSH2 0x1AEF JUMP JUMPDEST PUSH1 0x40 MLOAD DUP1 SWAP2 SUB SWAP1 RETURN JUMPDEST PUSH2 0x27D PUSH2 0x761 JUMP JUMPDEST PUSH1 0x40 MLOAD PUSH2 0x28A SWAP2 SWAP1 PUSH2 0x1BD0 JUMP JUMPDEST PUSH1 0x40 MLOAD DUP1 SWAP2 SUB SWAP1 RETURN JUMPDEST PUSH2 0x2AD PUSH1 0x4 DUP1 CALLDATASIZE SUB DUP2 ADD SWAP1 PUSH2 0x2A8 SWAP2 SWAP1 PUSH2 0x16D1 JUMP JUMPDEST PUSH2 0x769 JUMP JUMPDEST PUSH1 0x40 MLOAD PUSH2 0x2BA SWAP2 SWAP1 PUSH2 0x1AEF JUMP JUMPDEST PUSH1 0x40 MLOAD DUP1 SWAP2 SUB SWAP1 RETURN JUMPDEST PUSH2 0x2DD PUSH1 0x4 DUP1 CALLDATASIZE SUB DUP2 ADD SWAP1 PUSH2 0x2D8 SWAP2 SWAP1 PUSH2 0x1467 JUMP JUMPDEST PUSH2 0x79C JUMP JUMPDEST PUSH1 0x40 MLOAD PUSH2 0x2EB SWAP3 SWAP2 SWAP1 PUSH2 0x1B0A JUMP JUMPDEST PUSH1 0x40 MLOAD DUP1 SWAP2 SUB SWAP1 RETURN JUMPDEST PUSH2 0x30E PUSH1 0x4 DUP1 CALLDATASIZE SUB DUP2 ADD SWAP1 PUSH2 0x309 SWAP2 SWAP1 PUSH2 0x16A4 JUMP JUMPDEST PUSH2 0x80C JUMP JUMPDEST PUSH1 0x40 MLOAD PUSH2 0x31B SWAP2 SWAP1 PUSH2 0x1AEF JUMP JUMPDEST PUSH1 0x40 MLOAD DUP1 SWAP2 SUB SWAP1 RETURN JUMPDEST PUSH2 0x33E PUSH1 0x4 DUP1 CALLDATASIZE SUB DUP2 ADD SWAP1 PUSH2 0x339 SWAP2 SWAP1 PUSH2 0x13E0 JUMP JUMPDEST PUSH2 0x83C JUMP JUMPDEST STOP JUMPDEST PUSH2 0x348 PUSH2 0x9AD JUMP JUMPDEST STOP JUMPDEST PUSH2 0x364 PUSH1 0x4 DUP1 CALLDATASIZE SUB DUP2 ADD SWAP1 PUSH2 0x35F SWAP2 SWAP1 PUSH2 0x1467 JUMP JUMPDEST PUSH2 0xAE7 JUMP JUMPDEST PUSH1 0x40 MLOAD PUSH2 0x371 SWAP2 SWAP1 PUSH2 0x1AEF JUMP JUMPDEST PUSH1 0x40 MLOAD DUP1 SWAP2 SUB SWAP1 RETURN JUMPDEST PUSH2 0x394 PUSH1 0x4 DUP1 CALLDATASIZE SUB DUP2 ADD SWAP1 PUSH2 0x38F SWAP2 SWAP1 PUSH2 0x1711 JUMP JUMPDEST PUSH2 0xB2B JUMP JUMPDEST PUSH1 0x40 MLOAD PUSH2 0x3A1 SWAP2 SWAP1 PUSH2 0x1AEF JUMP JUMPDEST PUSH1 0x40 MLOAD DUP1 SWAP2 SUB SWAP1 RETURN JUMPDEST PUSH2 0x3B2 PUSH2 0xB92 JUMP JUMPDEST PUSH1 0x40 MLOAD PUSH2 0x3BF SWAP2 SWAP1 PUSH2 0x1AD4 JUMP JUMPDEST PUSH1 0x40 MLOAD DUP1 SWAP2 SUB SWAP1 RETURN JUMPDEST PUSH2 0x3E2 PUSH1 0x4 DUP1 CALLDATASIZE SUB DUP2 ADD SWAP1 PUSH2 0x3DD SWAP2 SWAP1 PUSH2 0x13E0 JUMP JUMPDEST PUSH2 0xBBB JUMP JUMPDEST PUSH1 0x40 MLOAD PUSH2 0x3EF SWAP2 SWAP1 PUSH2 0x1AEF JUMP JUMPDEST PUSH1 0x40 MLOAD DUP1 SWAP2 SUB SWAP1 RETURN JUMPDEST PUSH2 0x412 PUSH1 0x4 DUP1 CALLDATASIZE SUB DUP2 ADD SWAP1 PUSH2 0x40D SWAP2 SWAP1 PUSH2 0x16A4 JUMP JUMPDEST PUSH2 0xBEB JUMP JUMPDEST PUSH1 0x40 MLOAD PUSH2 0x41F SWAP2 SWAP1 PUSH2 0x1AEF JUMP JUMPDEST PUSH1 0x40 MLOAD DUP1 SWAP2 SUB SWAP1 RETURN JUMPDEST PUSH2 0x442 PUSH1 0x4 DUP1 CALLDATASIZE SUB DUP2 ADD SWAP1 PUSH2 0x43D SWAP2 SWAP1 PUSH2 0x16A4 JUMP JUMPDEST PUSH2 0xBF8 JUMP JUMPDEST PUSH1 0x40 MLOAD PUSH2 0x44F SWAP2 SWAP1 PUSH2 0x1AD4 JUMP JUMPDEST PUSH1 0x40 MLOAD DUP1 SWAP2 SUB SWAP1 RETURN JUMPDEST PUSH2 0x472 PUSH1 0x4 DUP1 CALLDATASIZE SUB DUP2 ADD SWAP1 PUSH2 0x46D SWAP2 SWAP1 PUSH2 0x1580 JUMP JUMPDEST PUSH2 0xD28 JUMP JUMPDEST PUSH1 0x40 MLOAD PUSH2 0x47F SWAP2 SWAP1 PUSH2 0x1AEF JUMP JUMPDEST PUSH1 0x40 MLOAD DUP1 SWAP2 SUB SWAP1 RETURN JUMPDEST PUSH2 0x4A2 PUSH1 0x4 DUP1 CALLDATASIZE SUB DUP2 ADD SWAP1 PUSH2 0x49D SWAP2 SWAP1 PUSH2 0x13E0 JUMP JUMPDEST PUSH2 0xD5B JUMP JUMPDEST PUSH1 0x40 MLOAD PUSH2 0x4AF SWAP2 SWAP1 PUSH2 0x1BB5 JUMP JUMPDEST PUSH1 0x40 MLOAD DUP1 SWAP2 SUB SWAP1 RETURN JUMPDEST PUSH2 0x4D2 PUSH1 0x4 DUP1 CALLDATASIZE SUB DUP2 ADD SWAP1 PUSH2 0x4CD SWAP2 SWAP1 PUSH2 0x16A4 JUMP JUMPDEST PUSH2 0xD65 JUMP JUMPDEST PUSH1 0x40 MLOAD PUSH2 0x4DF SWAP2 SWAP1 PUSH2 0x1B33 JUMP JUMPDEST PUSH1 0x40 MLOAD DUP1 SWAP2 SUB SWAP1 RETURN JUMPDEST PUSH2 0x502 PUSH1 0x4 DUP1 CALLDATASIZE SUB DUP2 ADD SWAP1 PUSH2 0x4FD SWAP2 SWAP1 PUSH2 0x16A4 JUMP JUMPDEST PUSH2 0xEAA JUMP JUMPDEST PUSH1 0x40 MLOAD PUSH2 0x50F SWAP2 SWAP1 PUSH2 0x1B33 JUMP JUMPDEST PUSH1 0x40 MLOAD DUP1 SWAP2 SUB SWAP1 RETURN JUMPDEST PUSH2 0x532 PUSH1 0x4 DUP1 CALLDATASIZE SUB DUP2 ADD SWAP1 PUSH2 0x52D SWAP2 SWAP1 PUSH2 0x1467 JUMP JUMPDEST PUSH2 0x101D JUMP JUMPDEST PUSH1 0x40 MLOAD PUSH2 0x53F SWAP2 SWAP1 PUSH2 0x1AEF JUMP JUMPDEST PUSH1 0x40 MLOAD DUP1 SWAP2 SUB SWAP1 RETURN JUMPDEST PUSH2 0x562 PUSH1 0x4 DUP1 CALLDATASIZE SUB DUP2 ADD SWAP1 PUSH2 0x55D SWAP2 SWAP1 PUSH2 0x13E0 JUMP JUMPDEST PUSH2 0x1087 JUMP JUMPDEST STOP JUMPDEST PUSH2 0x57E PUSH1 0x4 DUP1 CALLDATASIZE SUB DUP2 ADD SWAP1 PUSH2 0x579 SWAP2 SWAP1 PUSH2 0x1711 JUMP JUMPDEST PUSH2 0x1230 JUMP JUMPDEST PUSH1 0x40 MLOAD PUSH2 0x58B SWAP2 SWAP1 PUSH2 0x1B33 JUMP JUMPDEST PUSH1 0x40 MLOAD DUP1 SWAP2 SUB SWAP1 RETURN JUMPDEST PUSH1 0x0 DUP1 PUSH1 0x4 SLOAD PUSH1 0x3 SLOAD SWAP2 POP SWAP2 POP SWAP1 SWAP2 JUMP JUMPDEST PUSH1 0x0 DUP1 DUP6 DUP6 DUP6 DUP6 PUSH1 0x40 MLOAD PUSH1 0x20 ADD PUSH2 0x5BF SWAP5 SWAP4 SWAP3 SWAP2 SWAP1 PUSH2 0x19A8 JUMP JUMPDEST PUSH1 0x40 MLOAD PUSH1 0x20 DUP2 DUP4 SUB SUB DUP2 MSTORE SWAP1 PUSH1 0x40 MSTORE DUP1 MLOAD SWAP1 PUSH1 0x20 ADD KECCAK256 SWAP1 POP DUP1 SWAP2 POP POP SWAP5 SWAP4 POP POP POP POP JUMP JUMPDEST PUSH1 0x0 DUP2 PUSH1 0x0 SHR SWAP1 POP SWAP2 SWAP1 POP JUMP JUMPDEST PUSH1 0x0 NUMBER SWAP1 POP SWAP1 JUMP JUMPDEST PUSH1 0x0 PUSH2 0x602 PUSH2 0x12A9 JUMP JUMPDEST PUSH20 0xFFFFFFFFFFFFFFFFFFFFFFFFFFFFFFFFFFFFFFFF AND PUSH2 0x620 PUSH2 0xB92 JUMP JUMPDEST PUSH20 0xFFFFFFFFFFFFFFFFFFFFFFFFFFFFFFFFFFFFFFFF AND EQ PUSH2 0x676 JUMPI PUSH1 0x40 MLOAD PUSH32 0x8C379A000000000000000000000000000000000000000000000000000000000 DUP2 MSTORE PUSH1 0x4 ADD PUSH2 0x66D SWAP1 PUSH2 0x1B95 JUMP JUMPDEST PUSH1 0x40 MLOAD DUP1 SWAP2 SUB SWAP1 REVERT JUMPDEST PUSH1 0x0 DUP3 PUSH1 0x0 SHR SWAP1 POP PUSH1 0x2 PUSH1 0x0 SWAP1 SLOAD SWAP1 PUSH2 0x100 EXP SWAP1 DIV PUSH20 0xFFFFFFFFFFFFFFFFFFFFFFFFFFFFFFFFFFFFFFFF AND PUSH20 0xFFFFFFFFFFFFFFFFFFFFFFFFFFFFFFFFFFFFFFFF AND PUSH4 0x6352211E DUP3 PUSH1 0x40 MLOAD DUP3 PUSH4 0xFFFFFFFF AND PUSH1 0xE0 SHL DUP2 MSTORE PUSH1 0x4 ADD PUSH2 0x6D9 SWAP2 SWAP1 PUSH2 0x1BD0 JUMP JUMPDEST PUSH1 0x20 PUSH1 0x40 MLOAD DUP1 DUP4 SUB DUP2 DUP7 DUP1 EXTCODESIZE ISZERO DUP1 ISZERO PUSH2 0x6F1 JUMPI PUSH1 0x0 DUP1 REVERT JUMPDEST POP GAS STATICCALL ISZERO DUP1 ISZERO PUSH2 0x705 JUMPI RETURNDATASIZE PUSH1 0x0 DUP1 RETURNDATACOPY RETURNDATASIZE PUSH1 0x0 REVERT JUMPDEST POP POP POP POP PUSH1 0x40 MLOAD RETURNDATASIZE PUSH1 0x1F NOT PUSH1 0x1F DUP3 ADD AND DUP3 ADD DUP1 PUSH1 0x40 MSTORE POP DUP2 ADD SWAP1 PUSH2 0x729 SWAP2 SWAP1 PUSH2 0x140D JUMP JUMPDEST SWAP2 POP POP SWAP2 SWAP1 POP JUMP JUMPDEST PUSH1 0x0 DUP2 PUSH1 0x40 MLOAD PUSH1 0x20 ADD PUSH2 0x744 SWAP2 SWAP1 PUSH2 0x191C JUMP JUMPDEST PUSH1 0x40 MLOAD PUSH1 0x20 DUP2 DUP4 SUB SUB DUP2 MSTORE SWAP1 PUSH1 0x40 MSTORE DUP1 MLOAD SWAP1 PUSH1 0x20 ADD KECCAK256 SWAP1 POP SWAP2 SWAP1 POP JUMP JUMPDEST PUSH1 0x0 TIMESTAMP SWAP1 POP SWAP1 JUMP JUMPDEST PUSH1 0x0 DUP3 DUP3 PUSH1 0x40 MLOAD PUSH1 0x20 ADD PUSH2 0x77E SWAP3 SWAP2 SWAP1 PUSH2 0x1AA8 JUMP JUMPDEST PUSH1 0x40 MLOAD PUSH1 0x20 DUP2 DUP4 SUB SUB DUP2 MSTORE SWAP1 PUSH1 0x40 MSTORE DUP1 MLOAD SWAP1 PUSH1 0x20 ADD KECCAK256 SWAP1 POP SWAP3 SWAP2 POP POP JUMP JUMPDEST PUSH1 0x0 DUP1 PUSH1 0x0 DUP8 DUP8 DUP8 DUP8 DUP8 PUSH1 0x40 MLOAD PUSH1 0x20 ADD PUSH2 0x7BA SWAP6 SWAP5 SWAP4 SWAP3 SWAP2 SWAP1 PUSH2 0x19E6 JUMP JUMPDEST PUSH1 0x40 MLOAD PUSH1 0x20 DUP2 DUP4 SUB SUB DUP2 MSTORE SWAP1 PUSH1 0x40 MSTORE DUP1 MLOAD SWAP1 PUSH1 0x20 ADD KECCAK256 SWAP1 POP DUP1 DUP10 DUP3 PUSH1 0x40 MLOAD PUSH1 0x20 ADD PUSH2 0x7E6 SWAP3 SWAP2 SWAP1 PUSH2 0x1937 JUMP JUMPDEST PUSH1 0x40 MLOAD PUSH1 0x20 DUP2 DUP4 SUB SUB DUP2 MSTORE SWAP1 PUSH1 0x40 MSTORE DUP1 MLOAD SWAP1 PUSH1 0x20 ADD KECCAK256 SWAP3 POP SWAP3 POP POP SWAP7 POP SWAP7 SWAP5 POP POP POP POP POP JUMP JUMPDEST PUSH1 0x0 DUP2 PUSH1 0x40 MLOAD PUSH1 0x20 ADD PUSH2 0x81F SWAP2 SWAP1 PUSH2 0x1A8D JUMP JUMPDEST PUSH1 0x40 MLOAD PUSH1 0x20 DUP2 DUP4 SUB SUB DUP2 MSTORE SWAP1 PUSH1 0x40 MSTORE DUP1 MLOAD SWAP1 PUSH1 0x20 ADD KECCAK256 SWAP1 POP SWAP2 SWAP1 POP JUMP JUMPDEST PUSH2 0x844 PUSH2 0x12A9 JUMP JUMPDEST PUSH20 0xFFFFFFFFFFFFFFFFFFFFFFFFFFFFFFFFFFFFFFFF AND PUSH2 0x862 PUSH2 0xB92 JUMP JUMPDEST PUSH20 0xFFFFFFFFFFFFFFFFFFFFFFFFFFFFFFFFFFFFFFFF AND EQ PUSH2 0x8B8 JUMPI PUSH1 0x40 MLOAD PUSH32 0x8C379A000000000000000000000000000000000000000000000000000000000 DUP2 MSTORE PUSH1 0x4 ADD PUSH2 0x8AF SWAP1 PUSH2 0x1B95 JUMP JUMPDEST PUSH1 0x40 MLOAD DUP1 SWAP2 SUB SWAP1 REVERT JUMPDEST PUSH1 0x0 PUSH20 0xFFFFFFFFFFFFFFFFFFFFFFFFFFFFFFFFFFFFFFFF AND DUP2 PUSH20 0xFFFFFFFFFFFFFFFFFFFFFFFFFFFFFFFFFFFFFFFF AND EQ ISZERO PUSH2 0x928 JUMPI PUSH1 0x40 MLOAD PUSH32 0x8C379A000000000000000000000000000000000000000000000000000000000 DUP2 MSTORE PUSH1 0x4 ADD PUSH2 0x91F SWAP1 PUSH2 0x1B75 JUMP JUMPDEST PUSH1 0x40 MLOAD DUP1 SWAP2 SUB SWAP1 REVERT JUMPDEST DUP1 PUSH1 0x1 PUSH1 0x0 PUSH2 0x100 EXP DUP2 SLOAD DUP2 PUSH20 0xFFFFFFFFFFFFFFFFFFFFFFFFFFFFFFFFFFFFFFFF MUL NOT AND SWAP1 DUP4 PUSH20 0xFFFFFFFFFFFFFFFFFFFFFFFFFFFFFFFFFFFFFFFF AND MUL OR SWAP1 SSTORE POP DUP1 PUSH1 0x2 PUSH1 0x0 PUSH2 0x100 EXP DUP2 SLOAD DUP2 PUSH20 0xFFFFFFFFFFFFFFFFFFFFFFFFFFFFFFFFFFFFFFFF MUL NOT AND SWAP1 DUP4 PUSH20 0xFFFFFFFFFFFFFFFFFFFFFFFFFFFFFFFFFFFFFFFF AND MUL OR SWAP1 SSTORE POP POP JUMP JUMPDEST PUSH2 0x9B5 PUSH2 0x12A9 JUMP JUMPDEST PUSH20 0xFFFFFFFFFFFFFFFFFFFFFFFFFFFFFFFFFFFFFFFF AND PUSH2 0x9D3 PUSH2 0xB92 JUMP JUMPDEST PUSH20 0xFFFFFFFFFFFFFFFFFFFFFFFFFFFFFFFFFFFFFFFF AND EQ PUSH2 0xA29 JUMPI PUSH1 0x40 MLOAD PUSH32 0x8C379A000000000000000000000000000000000000000000000000000000000 DUP2 MSTORE PUSH1 0x4 ADD PUSH2 0xA20 SWAP1 PUSH2 0x1B95 JUMP JUMPDEST PUSH1 0x40 MLOAD DUP1 SWAP2 SUB SWAP1 REVERT JUMPDEST PUSH1 0x0 PUSH20 0xFFFFFFFFFFFFFFFFFFFFFFFFFFFFFFFFFFFFFFFF AND PUSH1 0x0 DUP1 SLOAD SWAP1 PUSH2 0x100 EXP SWAP1 DIV PUSH20 0xFFFFFFFFFFFFFFFFFFFFFFFFFFFFFFFFFFFFFFFF AND PUSH20 0xFFFFFFFFFFFFFFFFFFFFFFFFFFFFFFFFFFFFFFFF AND PUSH32 0x8BE0079C531659141344CD1FD0A4F28419497F9722A3DAAFE3B4186F6B6457E0 PUSH1 0x40 MLOAD PUSH1 0x40 MLOAD DUP1 SWAP2 SUB SWAP1 LOG3 PUSH1 0x0 DUP1 PUSH1 0x0 PUSH2 0x100 EXP DUP2 SLOAD DUP2 PUSH20 0xFFFFFFFFFFFFFFFFFFFFFFFFFFFFFFFFFFFFFFFF MUL NOT AND SWAP1 DUP4 PUSH20 0xFFFFFFFFFFFFFFFFFFFFFFFFFFFFFFFFFFFFFFFF AND MUL OR SWAP1 SSTORE POP JUMP JUMPDEST PUSH1 0x0 DUP1 DUP7 DUP7 DUP7 DUP7 DUP7 DUP13 PUSH1 0x40 MLOAD PUSH1 0x20 ADD PUSH2 0xB05 SWAP7 SWAP6 SWAP5 SWAP4 SWAP3 SWAP2 SWAP1 PUSH2 0x1A31 JUMP JUMPDEST PUSH1 0x40 MLOAD PUSH1 0x20 DUP2 DUP4 SUB SUB DUP2 MSTORE SWAP1 PUSH1 0x40 MSTORE DUP1 MLOAD SWAP1 PUSH1 0x20 ADD KECCAK256 SWAP1 POP DUP1 SWAP2 POP POP SWAP7 SWAP6 POP POP POP POP POP POP JUMP JUMPDEST PUSH1 0x0 DUP1 DUP4 DUP4 PUSH1 0x40 MLOAD PUSH1 0x20 ADD PUSH2 0xB41 SWAP3 SWAP2 SWAP1 PUSH2 0x198F JUMP JUMPDEST PUSH1 0x40 MLOAD PUSH1 0x20 DUP2 DUP4 SUB SUB DUP2 MSTORE SWAP1 PUSH1 0x40 MSTORE DUP1 MLOAD SWAP1 PUSH1 0x20 ADD KECCAK256 SWAP1 POP PUSH1 0x0 DUP2 DUP7 PUSH1 0x40 MLOAD PUSH1 0x20 ADD PUSH2 0xB6E SWAP3 SWAP2 SWAP1 PUSH2 0x1963 JUMP JUMPDEST PUSH1 0x40 MLOAD PUSH1 0x20 DUP2 DUP4 SUB SUB DUP2 MSTORE SWAP1 PUSH1 0x40 MSTORE DUP1 MLOAD SWAP1 PUSH1 0x20 ADD KECCAK256 SWAP1 POP DUP1 SWAP3 POP POP POP SWAP4 SWAP3 POP POP POP JUMP JUMPDEST PUSH1 0x0 DUP1 PUSH1 0x0 SWAP1 SLOAD SWAP1 PUSH2 0x100 EXP SWAP1 DIV PUSH20 0xFFFFFFFFFFFFFFFFFFFFFFFFFFFFFFFFFFFFFFFF AND SWAP1 POP SWAP1 JUMP JUMPDEST PUSH1 0x0 DUP2 PUSH1 0x40 MLOAD PUSH1 0x20 ADD PUSH2 0xBCE SWAP2 SWAP1 PUSH2 0x1901 JUMP JUMPDEST PUSH1 0x40 MLOAD PUSH1 0x20 DUP2 DUP4 SUB SUB DUP2 MSTORE SWAP1 PUSH1 0x40 MSTORE DUP1 MLOAD SWAP1 PUSH1 0x20 ADD KECCAK256 SWAP1 POP SWAP2 SWAP1 POP JUMP JUMPDEST PUSH1 0x0 DUP2 PUSH1 0x0 SHL SWAP1 POP SWAP2 SWAP1 POP JUMP JUMPDEST PUSH1 0x0 PUSH2 0xC02 PUSH2 0x12A9 JUMP JUMPDEST PUSH20 0xFFFFFFFFFFFFFFFFFFFFFFFFFFFFFFFFFFFFFFFF AND PUSH2 0xC20 PUSH2 0xB92 JUMP JUMPDEST PUSH20 0xFFFFFFFFFFFFFFFFFFFFFFFFFFFFFFFFFFFFFFFF AND EQ PUSH2 0xC76 JUMPI PUSH1 0x40 MLOAD PUSH32 0x8C379A000000000000000000000000000000000000000000000000000000000 DUP2 MSTORE PUSH1 0x4 ADD PUSH2 0xC6D SWAP1 PUSH2 0x1B95 JUMP JUMPDEST PUSH1 0x40 MLOAD DUP1 SWAP2 SUB SWAP1 REVERT JUMPDEST PUSH1 0x2 PUSH1 0x0 SWAP1 SLOAD SWAP1 PUSH2 0x100 EXP SWAP1 DIV PUSH20 0xFFFFFFFFFFFFFFFFFFFFFFFFFFFFFFFFFFFFFFFF AND PUSH20 0xFFFFFFFFFFFFFFFFFFFFFFFFFFFFFFFFFFFFFFFF AND PUSH4 0x6352211E DUP4 PUSH1 0x40 MLOAD DUP3 PUSH4 0xFFFFFFFF AND PUSH1 0xE0 SHL DUP2 MSTORE PUSH1 0x4 ADD PUSH2 0xCD1 SWAP2 SWAP1 PUSH2 0x1BD0 JUMP JUMPDEST PUSH1 0x20 PUSH1 0x40 MLOAD DUP1 DUP4 SUB DUP2 DUP7 DUP1 EXTCODESIZE ISZERO DUP1 ISZERO PUSH2 0xCE9 JUMPI PUSH1 0x0 DUP1 REVERT JUMPDEST POP GAS STATICCALL ISZERO DUP1 ISZERO PUSH2 0xCFD JUMPI RETURNDATASIZE PUSH1 0x0 DUP1 RETURNDATACOPY RETURNDATASIZE PUSH1 0x0 REVERT JUMPDEST POP POP POP POP PUSH1 0x40 MLOAD RETURNDATASIZE PUSH1 0x1F NOT PUSH1 0x1F DUP3 ADD AND DUP3 ADD DUP1 PUSH1 0x40 MSTORE POP DUP2 ADD SWAP1 PUSH2 0xD21 SWAP2 SWAP1 PUSH2 0x140D JUMP JUMPDEST SWAP1 POP SWAP2 SWAP1 POP JUMP JUMPDEST PUSH1 0x0 DUP3 DUP3 PUSH1 0x40 MLOAD PUSH1 0x20 ADD PUSH2 0xD3D SWAP3 SWAP2 SWAP1 PUSH2 0x198F JUMP JUMPDEST PUSH1 0x40 MLOAD PUSH1 0x20 DUP2 DUP4 SUB SUB DUP2 MSTORE SWAP1 PUSH1 0x40 MSTORE DUP1 MLOAD SWAP1 PUSH1 0x20 ADD KECCAK256 SWAP1 POP SWAP3 SWAP2 POP POP JUMP JUMPDEST PUSH1 0x0 DUP2 SWAP1 POP SWAP2 SWAP1 POP JUMP JUMPDEST PUSH1 0x60 PUSH2 0xD6F PUSH2 0x12A9 JUMP JUMPDEST PUSH20 0xFFFFFFFFFFFFFFFFFFFFFFFFFFFFFFFFFFFFFFFF AND PUSH1 0x2 PUSH1 0x0 SWAP1 SLOAD SWAP1 PUSH2 0x100 EXP SWAP1 DIV PUSH20 0xFFFFFFFFFFFFFFFFFFFFFFFFFFFFFFFFFFFFFFFF AND PUSH20 0xFFFFFFFFFFFFFFFFFFFFFFFFFFFFFFFFFFFFFFFF AND PUSH4 0x6352211E DUP5 PUSH1 0x40 MLOAD DUP3 PUSH4 0xFFFFFFFF AND PUSH1 0xE0 SHL DUP2 MSTORE PUSH1 0x4 ADD PUSH2 0xDE0 SWAP2 SWAP1 PUSH2 0x1BD0 JUMP JUMPDEST PUSH1 0x20 PUSH1 0x40 MLOAD DUP1 DUP4 SUB DUP2 DUP7 DUP1 EXTCODESIZE ISZERO DUP1 ISZERO PUSH2 0xDF8 JUMPI PUSH1 0x0 DUP1 REVERT JUMPDEST POP GAS STATICCALL ISZERO DUP1 ISZERO PUSH2 0xE0C JUMPI RETURNDATASIZE PUSH1 0x0 DUP1 RETURNDATACOPY RETURNDATASIZE PUSH1 0x0 REVERT JUMPDEST POP POP POP POP PUSH1 0x40 MLOAD RETURNDATASIZE PUSH1 0x1F NOT PUSH1 0x1F DUP3 ADD AND DUP3 ADD DUP1 PUSH1 0x40 MSTORE POP DUP2 ADD SWAP1 PUSH2 0xE30 SWAP2 SWAP1 PUSH2 0x140D JUMP JUMPDEST PUSH20 0xFFFFFFFFFFFFFFFFFFFFFFFFFFFFFFFFFFFFFFFF AND EQ ISZERO PUSH2 0xE6C JUMPI PUSH1 0x40 MLOAD DUP1 PUSH1 0x60 ADD PUSH1 0x40 MSTORE DUP1 PUSH1 0x21 DUP2 MSTORE PUSH1 0x20 ADD PUSH2 0x2106 PUSH1 0x21 SWAP2 CODECOPY SWAP1 POP PUSH2 0xEA5 JUMP JUMPDEST PUSH1 0x40 MLOAD DUP1 PUSH1 0x40 ADD PUSH1 0x40 MSTORE DUP1 PUSH1 0x1B DUP2 MSTORE PUSH1 0x20 ADD PUSH32 0x746F6B656E206E6F742061742073656E64657220616464726573730000000000 DUP2 MSTORE POP SWAP1 POP JUMPDEST SWAP2 SWAP1 POP JUMP JUMPDEST PUSH1 0x60 PUSH1 0x0 DUP3 EQ ISZERO PUSH2 0xEF2 JUMPI PUSH1 0x40 MLOAD DUP1 PUSH1 0x40 ADD PUSH1 0x40 MSTORE DUP1 PUSH1 0x1 DUP2 MSTORE PUSH1 0x20 ADD PUSH32 0x3000000000000000000000000000000000000000000000000000000000000000 DUP2 MSTORE POP SWAP1 POP PUSH2 0x1018 JUMP JUMPDEST PUSH1 0x0 DUP3 SWAP1 POP PUSH1 0x0 JUMPDEST PUSH1 0x0 DUP3 EQ PUSH2 0xF24 JUMPI DUP1 DUP1 PUSH2 0xF0D SWAP1 PUSH2 0x1E3F JUMP JUMPDEST SWAP2 POP POP PUSH1 0xA DUP3 PUSH2 0xF1D SWAP2 SWAP1 PUSH2 0x1CE7 JUMP JUMPDEST SWAP2 POP PUSH2 0xEFA JUMP JUMPDEST PUSH1 0x0 DUP2 PUSH8 0xFFFFFFFFFFFFFFFF DUP2 GT ISZERO PUSH2 0xF40 JUMPI PUSH2 0xF3F PUSH2 0x1F90 JUMP JUMPDEST JUMPDEST PUSH1 0x40 MLOAD SWAP1 DUP1 DUP3 MSTORE DUP1 PUSH1 0x1F ADD PUSH1 0x1F NOT AND PUSH1 0x20 ADD DUP3 ADD PUSH1 0x40 MSTORE DUP1 ISZERO PUSH2 0xF72 JUMPI DUP2 PUSH1 0x20 ADD PUSH1 0x1 DUP3 MUL DUP1 CALLDATASIZE DUP4 CALLDATACOPY DUP1 DUP3 ADD SWAP2 POP POP SWAP1 POP JUMPDEST POP SWAP1 POP PUSH1 0x0 PUSH1 0x1 DUP4 PUSH2 0xF84 SWAP2 SWAP1 PUSH2 0x1D18 JUMP JUMPDEST SWAP1 POP DUP6 SWAP4 POP JUMPDEST PUSH1 0x0 DUP5 EQ PUSH2 0x1010 JUMPI PUSH1 0xA DUP5 PUSH2 0xF9F SWAP2 SWAP1 PUSH2 0x1ED2 JUMP JUMPDEST PUSH1 0x30 PUSH2 0xFAB SWAP2 SWAP1 PUSH2 0x1C91 JUMP JUMPDEST PUSH1 0xF8 SHL DUP3 DUP3 DUP1 PUSH2 0xFBA SWAP1 PUSH2 0x1DE4 JUMP JUMPDEST SWAP4 POP DUP2 MLOAD DUP2 LT PUSH2 0xFCD JUMPI PUSH2 0xFCC PUSH2 0x1F61 JUMP JUMPDEST JUMPDEST PUSH1 0x20 ADD ADD SWAP1 PUSH31 0xFFFFFFFFFFFFFFFFFFFFFFFFFFFFFFFFFFFFFFFFFFFFFFFFFFFFFFFFFFFFFF NOT AND SWAP1 DUP2 PUSH1 0x0 BYTE SWAP1 MSTORE8 POP PUSH1 0xA DUP5 PUSH2 0x1009 SWAP2 SWAP1 PUSH2 0x1CE7 JUMP JUMPDEST SWAP4 POP PUSH2 0xF8A JUMP JUMPDEST DUP2 SWAP5 POP POP POP POP POP JUMPDEST SWAP2 SWAP1 POP JUMP JUMPDEST PUSH1 0x0 DUP1 DUP7 DUP7 DUP7 DUP7 DUP7 PUSH1 0x40 MLOAD PUSH1 0x20 ADD PUSH2 0x1039 SWAP6 SWAP5 SWAP4 SWAP3 SWAP2 SWAP1 PUSH2 0x19E6 JUMP JUMPDEST PUSH1 0x40 MLOAD PUSH1 0x20 DUP2 DUP4 SUB SUB DUP2 MSTORE SWAP1 PUSH1 0x40 MSTORE DUP1 MLOAD SWAP1 PUSH1 0x20 ADD KECCAK256 SWAP1 POP DUP8 DUP2 PUSH1 0x40 MLOAD PUSH1 0x20 ADD PUSH2 0x1064 SWAP3 SWAP2 SWAP1 PUSH2 0x1937 JUMP JUMPDEST PUSH1 0x40 MLOAD PUSH1 0x20 DUP2 DUP4 SUB SUB DUP2 MSTORE SWAP1 PUSH1 0x40 MSTORE DUP1 MLOAD SWAP1 PUSH1 0x20 ADD KECCAK256 SWAP2 POP POP SWAP7 SWAP6 POP POP POP POP POP POP JUMP JUMPDEST PUSH2 0x108F PUSH2 0x12A9 JUMP JUMPDEST PUSH20 0xFFFFFFFFFFFFFFFFFFFFFFFFFFFFFFFFFFFFFFFF AND PUSH2 0x10AD PUSH2 0xB92 JUMP JUMPDEST PUSH20 0xFFFFFFFFFFFFFFFFFFFFFFFFFFFFFFFFFFFFFFFF AND EQ PUSH2 0x1103 JUMPI PUSH1 0x40 MLOAD PUSH32 0x8C379A000000000000000000000000000000000000000000000000000000000 DUP2 MSTORE PUSH1 0x4 ADD PUSH2 0x10FA SWAP1 PUSH2 0x1B95 JUMP JUMPDEST PUSH1 0x40 MLOAD DUP1 SWAP2 SUB SWAP1 REVERT JUMPDEST PUSH1 0x0 PUSH20 0xFFFFFFFFFFFFFFFFFFFFFFFFFFFFFFFFFFFFFFFF AND DUP2 PUSH20 0xFFFFFFFFFFFFFFFFFFFFFFFFFFFFFFFFFFFFFFFF AND EQ ISZERO PUSH2 0x1173 JUMPI PUSH1 0x40 MLOAD PUSH32 0x8C379A000000000000000000000000000000000000000000000000000000000 DUP2 MSTORE PUSH1 0x4 ADD PUSH2 0x116A SWAP1 PUSH2 0x1B55 JUMP JUMPDEST PUSH1 0x40 MLOAD DUP1 SWAP2 SUB SWAP1 REVERT JUMPDEST DUP1 PUSH20 0xFFFFFFFFFFFFFFFFFFFFFFFFFFFFFFFFFFFFFFFF AND PUSH1 0x0 DUP1 SLOAD SWAP1 PUSH2 0x100 EXP SWAP1 DIV PUSH20 0xFFFFFFFFFFFFFFFFFFFFFFFFFFFFFFFFFFFFFFFF AND PUSH20 0xFFFFFFFFFFFFFFFFFFFFFFFFFFFFFFFFFFFFFFFF AND PUSH32 0x8BE0079C531659141344CD1FD0A4F28419497F9722A3DAAFE3B4186F6B6457E0 PUSH1 0x40 MLOAD PUSH1 0x40 MLOAD DUP1 SWAP2 SUB SWAP1 LOG3 DUP1 PUSH1 0x0 DUP1 PUSH2 0x100 EXP DUP2 SLOAD DUP2 PUSH20 0xFFFFFFFFFFFFFFFFFFFFFFFFFFFFFFFFFFFFFFFF MUL NOT AND SWAP1 DUP4 PUSH20 0xFFFFFFFFFFFFFFFFFFFFFFFFFFFFFFFFFFFFFFFF AND MUL OR SWAP1 SSTORE POP POP JUMP JUMPDEST PUSH1 0x60 PUSH1 0x0 DUP4 DUP4 PUSH1 0x40 MLOAD PUSH1 0x20 ADD PUSH2 0x1247 SWAP3 SWAP2 SWAP1 PUSH2 0x198F JUMP JUMPDEST PUSH1 0x40 MLOAD PUSH1 0x20 DUP2 DUP4 SUB SUB DUP2 MSTORE SWAP1 PUSH1 0x40 MSTORE DUP1 MLOAD SWAP1 PUSH1 0x20 ADD KECCAK256 SWAP1 POP PUSH1 0x0 DUP2 DUP7 PUSH1 0x40 MLOAD PUSH1 0x20 ADD PUSH2 0x1274 SWAP3 SWAP2 SWAP1 PUSH2 0x1963 JUMP JUMPDEST PUSH1 0x40 MLOAD PUSH1 0x20 DUP2 DUP4 SUB SUB DUP2 MSTORE SWAP1 PUSH1 0x40 MSTORE DUP1 MLOAD SWAP1 PUSH1 0x20 ADD KECCAK256 SWAP1 POP PUSH1 0x0 PUSH2 0x129A DUP3 PUSH1 0x0 SHR PUSH2 0xEAA JUMP JUMPDEST SWAP1 POP DUP1 SWAP4 POP POP POP POP SWAP4 SWAP3 POP POP POP JUMP JUMPDEST PUSH1 0x0 CALLER SWAP1 POP SWAP1 JUMP JUMPDEST PUSH1 0x0 PUSH2 0x12C4 PUSH2 0x12BF DUP5 PUSH2 0x1C39 JUMP JUMPDEST PUSH2 0x1C14 JUMP JUMPDEST SWAP1 POP DUP3 DUP2 MSTORE PUSH1 0x20 DUP2 ADD DUP5 DUP5 DUP5 ADD GT ISZERO PUSH2 0x12E0 JUMPI PUSH2 0x12DF PUSH2 0x1FCE JUMP JUMPDEST JUMPDEST PUSH2 0x12EB DUP5 DUP3 DUP6 PUSH2 0x1DA2 JUMP JUMPDEST POP SWAP4 SWAP3 POP POP POP JUMP JUMPDEST PUSH1 0x0 DUP2 CALLDATALOAD SWAP1 POP PUSH2 0x1302 DUP2 PUSH2 0x20A9 JUMP JUMPDEST SWAP3 SWAP2 POP POP JUMP JUMPDEST PUSH1 0x0 DUP2 MLOAD SWAP1 POP PUSH2 0x1317 DUP2 PUSH2 0x20A9 JUMP JUMPDEST SWAP3 SWAP2 POP POP JUMP JUMPDEST PUSH1 0x0 DUP2 CALLDATALOAD SWAP1 POP PUSH2 0x132C DUP2 PUSH2 0x20C0 JUMP JUMPDEST SWAP3 SWAP2 POP POP JUMP JUMPDEST PUSH1 0x0 DUP1 DUP4 PUSH1 0x1F DUP5 ADD SLT PUSH2 0x1348 JUMPI PUSH2 0x1347 PUSH2 0x1FC4 JUMP JUMPDEST JUMPDEST DUP3 CALLDATALOAD SWAP1 POP PUSH8 0xFFFFFFFFFFFFFFFF DUP2 GT ISZERO PUSH2 0x1365 JUMPI PUSH2 0x1364 PUSH2 0x1FBF JUMP JUMPDEST JUMPDEST PUSH1 0x20 DUP4 ADD SWAP2 POP DUP4 PUSH1 0x1 DUP3 MUL DUP4 ADD GT ISZERO PUSH2 0x1381 JUMPI PUSH2 0x1380 PUSH2 0x1FC9 JUMP JUMPDEST JUMPDEST SWAP3 POP SWAP3 SWAP1 POP JUMP JUMPDEST PUSH1 0x0 DUP3 PUSH1 0x1F DUP4 ADD SLT PUSH2 0x139D JUMPI PUSH2 0x139C PUSH2 0x1FC4 JUMP JUMPDEST JUMPDEST DUP2 CALLDATALOAD PUSH2 0x13AD DUP5 DUP3 PUSH1 0x20 DUP7 ADD PUSH2 0x12B1 JUMP JUMPDEST SWAP2 POP POP SWAP3 SWAP2 POP POP JUMP JUMPDEST PUSH1 0x0 DUP2 CALLDATALOAD SWAP1 POP PUSH2 0x13C5 DUP2 PUSH2 0x20D7 JUMP JUMPDEST SWAP3 SWAP2 POP POP JUMP JUMPDEST PUSH1 0x0 DUP2 CALLDATALOAD SWAP1 POP PUSH2 0x13DA DUP2 PUSH2 0x20EE JUMP JUMPDEST SWAP3 SWAP2 POP POP JUMP JUMPDEST PUSH1 0x0 PUSH1 0x20 DUP3 DUP5 SUB SLT ISZERO PUSH2 0x13F6 JUMPI PUSH2 0x13F5 PUSH2 0x1FD8 JUMP JUMPDEST JUMPDEST PUSH1 0x0 PUSH2 0x1404 DUP5 DUP3 DUP6 ADD PUSH2 0x12F3 JUMP JUMPDEST SWAP2 POP POP SWAP3 SWAP2 POP POP JUMP JUMPDEST PUSH1 0x0 PUSH1 0x20 DUP3 DUP5 SUB SLT ISZERO PUSH2 0x1423 JUMPI PUSH2 0x1422 PUSH2 0x1FD8 JUMP JUMPDEST JUMPDEST PUSH1 0x0 PUSH2 0x1431 DUP5 DUP3 DUP6 ADD PUSH2 0x1308 JUMP JUMPDEST SWAP2 POP POP SWAP3 SWAP2 POP POP JUMP JUMPDEST PUSH1 0x0 PUSH1 0x20 DUP3 DUP5 SUB SLT ISZERO PUSH2 0x1450 JUMPI PUSH2 0x144F PUSH2 0x1FD8 JUMP JUMPDEST JUMPDEST PUSH1 0x0 PUSH2 0x145E DUP5 DUP3 DUP6 ADD PUSH2 0x131D JUMP JUMPDEST SWAP2 POP POP SWAP3 SWAP2 POP POP JUMP JUMPDEST PUSH1 0x0 DUP1 PUSH1 0x0 DUP1 PUSH1 0x0 DUP1 PUSH1 0xC0 DUP8 DUP10 SUB SLT ISZERO PUSH2 0x1484 JUMPI PUSH2 0x1483 PUSH2 0x1FD8 JUMP JUMPDEST JUMPDEST PUSH1 0x0 PUSH2 0x1492 DUP10 DUP3 DUP11 ADD PUSH2 0x131D JUMP JUMPDEST SWAP7 POP POP PUSH1 0x20 DUP8 ADD CALLDATALOAD PUSH8 0xFFFFFFFFFFFFFFFF DUP2 GT ISZERO PUSH2 0x14B3 JUMPI PUSH2 0x14B2 PUSH2 0x1FD3 JUMP JUMPDEST JUMPDEST PUSH2 0x14BF DUP10 DUP3 DUP11 ADD PUSH2 0x1388 JUMP JUMPDEST SWAP6 POP POP PUSH1 0x40 DUP8 ADD CALLDATALOAD PUSH8 0xFFFFFFFFFFFFFFFF DUP2 GT ISZERO PUSH2 0x14E0 JUMPI PUSH2 0x14DF PUSH2 0x1FD3 JUMP JUMPDEST JUMPDEST PUSH2 0x14EC DUP10 DUP3 DUP11 ADD PUSH2 0x1388 JUMP JUMPDEST SWAP5 POP POP PUSH1 0x60 DUP8 ADD CALLDATALOAD PUSH8 0xFFFFFFFFFFFFFFFF DUP2 GT ISZERO PUSH2 0x150D JUMPI PUSH2 0x150C PUSH2 0x1FD3 JUMP JUMPDEST JUMPDEST PUSH2 0x1519 DUP10 DUP3 DUP11 ADD PUSH2 0x1388 JUMP JUMPDEST SWAP4 POP POP PUSH1 0x80 DUP8 ADD CALLDATALOAD PUSH8 0xFFFFFFFFFFFFFFFF DUP2 GT ISZERO PUSH2 0x153A JUMPI PUSH2 0x1539 PUSH2 0x1FD3 JUMP JUMPDEST JUMPDEST PUSH2 0x1546 DUP10 DUP3 DUP11 ADD PUSH2 0x1388 JUMP JUMPDEST SWAP3 POP POP PUSH1 0xA0 DUP8 ADD CALLDATALOAD PUSH8 0xFFFFFFFFFFFFFFFF DUP2 GT ISZERO PUSH2 0x1567 JUMPI PUSH2 0x1566 PUSH2 0x1FD3 JUMP JUMPDEST JUMPDEST PUSH2 0x1573 DUP10 DUP3 DUP11 ADD PUSH2 0x1388 JUMP JUMPDEST SWAP2 POP POP SWAP3 SWAP6 POP SWAP3 SWAP6 POP SWAP3 SWAP6 JUMP JUMPDEST PUSH1 0x0 DUP1 PUSH1 0x20 DUP4 DUP6 SUB SLT ISZERO PUSH2 0x1597 JUMPI PUSH2 0x1596 PUSH2 0x1FD8 JUMP JUMPDEST JUMPDEST PUSH1 0x0 DUP4 ADD CALLDATALOAD PUSH8 0xFFFFFFFFFFFFFFFF DUP2 GT ISZERO PUSH2 0x15B5 JUMPI PUSH2 0x15B4 PUSH2 0x1FD3 JUMP JUMPDEST JUMPDEST PUSH2 0x15C1 DUP6 DUP3 DUP7 ADD PUSH2 0x1332 JUMP JUMPDEST SWAP3 POP SWAP3 POP POP SWAP3 POP SWAP3 SWAP1 POP JUMP JUMPDEST PUSH1 0x0 DUP1 PUSH1 0x0 DUP1 PUSH1 0x80 DUP6 DUP8 SUB SLT ISZERO PUSH2 0x15E7 JUMPI PUSH2 0x15E6 PUSH2 0x1FD8 JUMP JUMPDEST JUMPDEST PUSH1 0x0 DUP6 ADD CALLDATALOAD PUSH8 0xFFFFFFFFFFFFFFFF DUP2 GT ISZERO PUSH2 0x1605 JUMPI PUSH2 0x1604 PUSH2 0x1FD3 JUMP JUMPDEST JUMPDEST PUSH2 0x1611 DUP8 DUP3 DUP9 ADD PUSH2 0x1388 JUMP JUMPDEST SWAP5 POP POP PUSH1 0x20 DUP6 ADD CALLDATALOAD PUSH8 0xFFFFFFFFFFFFFFFF DUP2 GT ISZERO PUSH2 0x1632 JUMPI PUSH2 0x1631 PUSH2 0x1FD3 JUMP JUMPDEST JUMPDEST PUSH2 0x163E DUP8 DUP3 DUP9 ADD PUSH2 0x1388 JUMP JUMPDEST SWAP4 POP POP PUSH1 0x40 DUP6 ADD CALLDATALOAD PUSH8 0xFFFFFFFFFFFFFFFF DUP2 GT ISZERO PUSH2 0x165F JUMPI PUSH2 0x165E PUSH2 0x1FD3 JUMP JUMPDEST JUMPDEST PUSH2 0x166B DUP8 DUP3 DUP9 ADD PUSH2 0x1388 JUMP JUMPDEST SWAP3 POP POP PUSH1 0x60 DUP6 ADD CALLDATALOAD PUSH8 0xFFFFFFFFFFFFFFFF DUP2 GT ISZERO PUSH2 0x168C JUMPI PUSH2 0x168B PUSH2 0x1FD3 JUMP JUMPDEST JUMPDEST PUSH2 0x1698 DUP8 DUP3 DUP9 ADD PUSH2 0x1388 JUMP JUMPDEST SWAP2 POP POP SWAP3 SWAP6 SWAP2 SWAP5 POP SWAP3 POP JUMP JUMPDEST PUSH1 0x0 PUSH1 0x20 DUP3 DUP5 SUB SLT ISZERO PUSH2 0x16BA JUMPI PUSH2 0x16B9 PUSH2 0x1FD8 JUMP JUMPDEST JUMPDEST PUSH1 0x0 PUSH2 0x16C8 DUP5 DUP3 DUP6 ADD PUSH2 0x13B6 JUMP JUMPDEST SWAP2 POP POP SWAP3 SWAP2 POP POP JUMP JUMPDEST PUSH1 0x0 DUP1 PUSH1 0x40 DUP4 DUP6 SUB SLT ISZERO PUSH2 0x16E8 JUMPI PUSH2 0x16E7 PUSH2 0x1FD8 JUMP JUMPDEST JUMPDEST PUSH1 0x0 PUSH2 0x16F6 DUP6 DUP3 DUP7 ADD PUSH2 0x13B6 JUMP JUMPDEST SWAP3 POP POP PUSH1 0x20 PUSH2 0x1707 DUP6 DUP3 DUP7 ADD PUSH2 0x12F3 JUMP JUMPDEST SWAP2 POP POP SWAP3 POP SWAP3 SWAP1 POP JUMP JUMPDEST PUSH1 0x0 DUP1 PUSH1 0x0 PUSH1 0x40 DUP5 DUP7 SUB SLT ISZERO PUSH2 0x172A JUMPI PUSH2 0x1729 PUSH2 0x1FD8 JUMP JUMPDEST JUMPDEST PUSH1 0x0 PUSH2 0x1738 DUP7 DUP3 DUP8 ADD PUSH2 0x13CB JUMP JUMPDEST SWAP4 POP POP PUSH1 0x20 DUP5 ADD CALLDATALOAD PUSH8 0xFFFFFFFFFFFFFFFF DUP2 GT ISZERO PUSH2 0x1759 JUMPI PUSH2 0x1758 PUSH2 0x1FD3 JUMP JUMPDEST JUMPDEST PUSH2 0x1765 DUP7 DUP3 DUP8 ADD PUSH2 0x1332 JUMP JUMPDEST SWAP3 POP SWAP3 POP POP SWAP3 POP SWAP3 POP SWAP3 JUMP JUMPDEST PUSH2 0x177A DUP2 PUSH2 0x1D4C JUMP JUMPDEST DUP3 MSTORE POP POP JUMP JUMPDEST PUSH2 0x1791 PUSH2 0x178C DUP3 PUSH2 0x1D4C JUMP JUMPDEST PUSH2 0x1E88 JUMP JUMPDEST DUP3 MSTORE POP POP JUMP JUMPDEST PUSH2 0x17A0 DUP2 PUSH2 0x1D5E JUMP JUMPDEST DUP3 MSTORE POP POP JUMP JUMPDEST PUSH2 0x17B7 PUSH2 0x17B2 DUP3 PUSH2 0x1D5E JUMP JUMPDEST PUSH2 0x1E9A JUMP JUMPDEST DUP3 MSTORE POP POP JUMP JUMPDEST PUSH1 0x0 PUSH2 0x17C9 DUP4 DUP6 PUSH2 0x1C86 JUMP JUMPDEST SWAP4 POP PUSH2 0x17D6 DUP4 DUP6 DUP5 PUSH2 0x1DA2 JUMP JUMPDEST DUP3 DUP5 ADD SWAP1 POP SWAP4 SWAP3 POP POP POP JUMP JUMPDEST PUSH1 0x0 PUSH2 0x17ED DUP3 PUSH2 0x1C6A JUMP JUMPDEST PUSH2 0x17F7 DUP2 DUP6 PUSH2 0x1C75 JUMP JUMPDEST SWAP4 POP PUSH2 0x1807 DUP2 DUP6 PUSH1 0x20 DUP7 ADD PUSH2 0x1DB1 JUMP JUMPDEST PUSH2 0x1810 DUP2 PUSH2 0x1FDD JUMP JUMPDEST DUP5 ADD SWAP2 POP POP SWAP3 SWAP2 POP POP JUMP JUMPDEST PUSH1 0x0 PUSH2 0x1826 DUP3 PUSH2 0x1C6A JUMP JUMPDEST PUSH2 0x1830 DUP2 DUP6 PUSH2 0x1C86 JUMP JUMPDEST SWAP4 POP PUSH2 0x1840 DUP2 DUP6 PUSH1 0x20 DUP7 ADD PUSH2 0x1DB1 JUMP JUMPDEST DUP1 DUP5 ADD SWAP2 POP POP SWAP3 SWAP2 POP POP JUMP JUMPDEST PUSH1 0x0 PUSH2 0x1859 PUSH1 0x26 DUP4 PUSH2 0x1C75 JUMP JUMPDEST SWAP2 POP PUSH2 0x1864 DUP3 PUSH2 0x2008 JUMP JUMPDEST PUSH1 0x40 DUP3 ADD SWAP1 POP SWAP2 SWAP1 POP JUMP JUMPDEST PUSH1 0x0 PUSH2 0x187C PUSH1 0x18 DUP4 PUSH2 0x1C75 JUMP JUMPDEST SWAP2 POP PUSH2 0x1887 DUP3 PUSH2 0x2057 JUMP JUMPDEST PUSH1 0x20 DUP3 ADD SWAP1 POP SWAP2 SWAP1 POP JUMP JUMPDEST PUSH1 0x0 PUSH2 0x189F PUSH1 0x20 DUP4 PUSH2 0x1C75 JUMP JUMPDEST SWAP2 POP PUSH2 0x18AA DUP3 PUSH2 0x2080 JUMP JUMPDEST PUSH1 0x20 DUP3 ADD SWAP1 POP SWAP2 SWAP1 POP JUMP JUMPDEST PUSH2 0x18BE DUP2 PUSH2 0x1D68 JUMP JUMPDEST DUP3 MSTORE POP POP JUMP JUMPDEST PUSH2 0x18CD DUP2 PUSH2 0x1D88 JUMP JUMPDEST DUP3 MSTORE POP POP JUMP JUMPDEST PUSH2 0x18E4 PUSH2 0x18DF DUP3 PUSH2 0x1D88 JUMP JUMPDEST PUSH2 0x1EB6 JUMP JUMPDEST DUP3 MSTORE POP POP JUMP JUMPDEST PUSH2 0x18FB PUSH2 0x18F6 DUP3 PUSH2 0x1D92 JUMP JUMPDEST PUSH2 0x1EC0 JUMP JUMPDEST DUP3 MSTORE POP POP JUMP JUMPDEST PUSH1 0x0 PUSH2 0x190D DUP3 DUP5 PUSH2 0x1780 JUMP JUMPDEST PUSH1 0x14 DUP3 ADD SWAP2 POP DUP2 SWAP1 POP SWAP3 SWAP2 POP POP JUMP JUMPDEST PUSH1 0x0 PUSH2 0x1928 DUP3 DUP5 PUSH2 0x17A6 JUMP JUMPDEST PUSH1 0x20 DUP3 ADD SWAP2 POP DUP2 SWAP1 POP SWAP3 SWAP2 POP POP JUMP JUMPDEST PUSH1 0x0 PUSH2 0x1943 DUP3 DUP6 PUSH2 0x17A6 JUMP JUMPDEST PUSH1 0x20 DUP3 ADD SWAP2 POP PUSH2 0x1953 DUP3 DUP5 PUSH2 0x17A6 JUMP JUMPDEST PUSH1 0x20 DUP3 ADD SWAP2 POP DUP2 SWAP1 POP SWAP4 SWAP3 POP POP POP JUMP JUMPDEST PUSH1 0x0 PUSH2 0x196F DUP3 DUP6 PUSH2 0x17A6 JUMP JUMPDEST PUSH1 0x20 DUP3 ADD SWAP2 POP PUSH2 0x197F DUP3 DUP5 PUSH2 0x18EA JUMP JUMPDEST PUSH1 0x4 DUP3 ADD SWAP2 POP DUP2 SWAP1 POP SWAP4 SWAP3 POP POP POP JUMP JUMPDEST PUSH1 0x0 PUSH2 0x199C DUP3 DUP5 DUP7 PUSH2 0x17BD JUMP JUMPDEST SWAP2 POP DUP2 SWAP1 POP SWAP4 SWAP3 POP POP POP JUMP JUMPDEST PUSH1 0x0 PUSH2 0x19B4 DUP3 DUP8 PUSH2 0x181B JUMP JUMPDEST SWAP2 POP PUSH2 0x19C0 DUP3 DUP7 PUSH2 0x181B JUMP JUMPDEST SWAP2 POP PUSH2 0x19CC DUP3 DUP6 PUSH2 0x181B JUMP JUMPDEST SWAP2 POP PUSH2 0x19D8 DUP3 DUP5 PUSH2 0x181B JUMP JUMPDEST SWAP2 POP DUP2 SWAP1 POP SWAP6 SWAP5 POP POP POP POP POP JUMP JUMPDEST PUSH1 0x0 PUSH2 0x19F2 DUP3 DUP9 PUSH2 0x181B JUMP JUMPDEST SWAP2 POP PUSH2 0x19FE DUP3 DUP8 PUSH2 0x181B JUMP JUMPDEST SWAP2 POP PUSH2 0x1A0A DUP3 DUP7 PUSH2 0x181B JUMP JUMPDEST SWAP2 POP PUSH2 0x1A16 DUP3 DUP6 PUSH2 0x181B JUMP JUMPDEST SWAP2 POP PUSH2 0x1A22 DUP3 DUP5 PUSH2 0x181B JUMP JUMPDEST SWAP2 POP DUP2 SWAP1 POP SWAP7 SWAP6 POP POP POP POP POP POP JUMP JUMPDEST PUSH1 0x0 PUSH2 0x1A3D DUP3 DUP10 PUSH2 0x181B JUMP JUMPDEST SWAP2 POP PUSH2 0x1A49 DUP3 DUP9 PUSH2 0x181B JUMP JUMPDEST SWAP2 POP PUSH2 0x1A55 DUP3 DUP8 PUSH2 0x181B JUMP JUMPDEST SWAP2 POP PUSH2 0x1A61 DUP3 DUP7 PUSH2 0x181B JUMP JUMPDEST SWAP2 POP PUSH2 0x1A6D DUP3 DUP6 PUSH2 0x181B JUMP JUMPDEST SWAP2 POP PUSH2 0x1A79 DUP3 DUP5 PUSH2 0x17A6 JUMP JUMPDEST PUSH1 0x20 DUP3 ADD SWAP2 POP DUP2 SWAP1 POP SWAP8 SWAP7 POP POP POP POP POP POP POP JUMP JUMPDEST PUSH1 0x0 PUSH2 0x1A99 DUP3 DUP5 PUSH2 0x18D3 JUMP JUMPDEST PUSH1 0x20 DUP3 ADD SWAP2 POP DUP2 SWAP1 POP SWAP3 SWAP2 POP POP JUMP JUMPDEST PUSH1 0x0 PUSH2 0x1AB4 DUP3 DUP6 PUSH2 0x18D3 JUMP JUMPDEST PUSH1 0x20 DUP3 ADD SWAP2 POP PUSH2 0x1AC4 DUP3 DUP5 PUSH2 0x1780 JUMP JUMPDEST PUSH1 0x14 DUP3 ADD SWAP2 POP DUP2 SWAP1 POP SWAP4 SWAP3 POP POP POP JUMP JUMPDEST PUSH1 0x0 PUSH1 0x20 DUP3 ADD SWAP1 POP PUSH2 0x1AE9 PUSH1 0x0 DUP4 ADD DUP5 PUSH2 0x1771 JUMP JUMPDEST SWAP3 SWAP2 POP POP JUMP JUMPDEST PUSH1 0x0 PUSH1 0x20 DUP3 ADD SWAP1 POP PUSH2 0x1B04 PUSH1 0x0 DUP4 ADD DUP5 PUSH2 0x1797 JUMP JUMPDEST SWAP3 SWAP2 POP POP JUMP JUMPDEST PUSH1 0x0 PUSH1 0x40 DUP3 ADD SWAP1 POP PUSH2 0x1B1F PUSH1 0x0 DUP4 ADD DUP6 PUSH2 0x1797 JUMP JUMPDEST PUSH2 0x1B2C PUSH1 0x20 DUP4 ADD DUP5 PUSH2 0x1797 JUMP JUMPDEST SWAP4 SWAP3 POP POP POP JUMP JUMPDEST PUSH1 0x0 PUSH1 0x20 DUP3 ADD SWAP1 POP DUP2 DUP2 SUB PUSH1 0x0 DUP4 ADD MSTORE PUSH2 0x1B4D DUP2 DUP5 PUSH2 0x17E2 JUMP JUMPDEST SWAP1 POP SWAP3 SWAP2 POP POP JUMP JUMPDEST PUSH1 0x0 PUSH1 0x20 DUP3 ADD SWAP1 POP DUP2 DUP2 SUB PUSH1 0x0 DUP4 ADD MSTORE PUSH2 0x1B6E DUP2 PUSH2 0x184C JUMP JUMPDEST SWAP1 POP SWAP2 SWAP1 POP JUMP JUMPDEST PUSH1 0x0 PUSH1 0x20 DUP3 ADD SWAP1 POP DUP2 DUP2 SUB PUSH1 0x0 DUP4 ADD MSTORE PUSH2 0x1B8E DUP2 PUSH2 0x186F JUMP JUMPDEST SWAP1 POP SWAP2 SWAP1 POP JUMP JUMPDEST PUSH1 0x0 PUSH1 0x20 DUP3 ADD SWAP1 POP DUP2 DUP2 SUB PUSH1 0x0 DUP4 ADD MSTORE PUSH2 0x1BAE DUP2 PUSH2 0x1892 JUMP JUMPDEST SWAP1 POP SWAP2 SWAP1 POP JUMP JUMPDEST PUSH1 0x0 PUSH1 0x20 DUP3 ADD SWAP1 POP PUSH2 0x1BCA PUSH1 0x0 DUP4 ADD DUP5 PUSH2 0x18B5 JUMP JUMPDEST SWAP3 SWAP2 POP POP JUMP JUMPDEST PUSH1 0x0 PUSH1 0x20 DUP3 ADD SWAP1 POP PUSH2 0x1BE5 PUSH1 0x0 DUP4 ADD DUP5 PUSH2 0x18C4 JUMP JUMPDEST SWAP3 SWAP2 POP POP JUMP JUMPDEST PUSH1 0x0 PUSH1 0x40 DUP3 ADD SWAP1 POP PUSH2 0x1C00 PUSH1 0x0 DUP4 ADD DUP6 PUSH2 0x18C4 JUMP JUMPDEST PUSH2 0x1C0D PUSH1 0x20 DUP4 ADD DUP5 PUSH2 0x18C4 JUMP JUMPDEST SWAP4 SWAP3 POP POP POP JUMP JUMPDEST PUSH1 0x0 PUSH2 0x1C1E PUSH2 0x1C2F JUMP JUMPDEST SWAP1 POP PUSH2 0x1C2A DUP3 DUP3 PUSH2 0x1E0E JUMP JUMPDEST SWAP2 SWAP1 POP JUMP JUMPDEST PUSH1 0x0 PUSH1 0x40 MLOAD SWAP1 POP SWAP1 JUMP JUMPDEST PUSH1 0x0 PUSH8 0xFFFFFFFFFFFFFFFF DUP3 GT ISZERO PUSH2 0x1C54 JUMPI PUSH2 0x1C53 PUSH2 0x1F90 JUMP JUMPDEST JUMPDEST PUSH2 0x1C5D DUP3 PUSH2 0x1FDD JUMP JUMPDEST SWAP1 POP PUSH1 0x20 DUP2 ADD SWAP1 POP SWAP2 SWAP1 POP JUMP JUMPDEST PUSH1 0x0 DUP2 MLOAD SWAP1 POP SWAP2 SWAP1 POP JUMP JUMPDEST PUSH1 0x0 DUP3 DUP3 MSTORE PUSH1 0x20 DUP3 ADD SWAP1 POP SWAP3 SWAP2 POP POP JUMP JUMPDEST PUSH1 0x0 DUP2 SWAP1 POP SWAP3 SWAP2 POP POP JUMP JUMPDEST PUSH1 0x0 PUSH2 0x1C9C DUP3 PUSH2 0x1D88 JUMP JUMPDEST SWAP2 POP PUSH2 0x1CA7 DUP4 PUSH2 0x1D88 JUMP JUMPDEST SWAP3 POP DUP3 PUSH32 0xFFFFFFFFFFFFFFFFFFFFFFFFFFFFFFFFFFFFFFFFFFFFFFFFFFFFFFFFFFFFFFFF SUB DUP3 GT ISZERO PUSH2 0x1CDC JUMPI PUSH2 0x1CDB PUSH2 0x1F03 JUMP JUMPDEST JUMPDEST DUP3 DUP3 ADD SWAP1 POP SWAP3 SWAP2 POP POP JUMP JUMPDEST PUSH1 0x0 PUSH2 0x1CF2 DUP3 PUSH2 0x1D88 JUMP JUMPDEST SWAP2 POP PUSH2 0x1CFD DUP4 PUSH2 0x1D88 JUMP JUMPDEST SWAP3 POP DUP3 PUSH2 0x1D0D JUMPI PUSH2 0x1D0C PUSH2 0x1F32 JUMP JUMPDEST JUMPDEST DUP3 DUP3 DIV SWAP1 POP SWAP3 SWAP2 POP POP JUMP JUMPDEST PUSH1 0x0 PUSH2 0x1D23 DUP3 PUSH2 0x1D88 JUMP JUMPDEST SWAP2 POP PUSH2 0x1D2E DUP4 PUSH2 0x1D88 JUMP JUMPDEST SWAP3 POP DUP3 DUP3 LT ISZERO PUSH2 0x1D41 JUMPI PUSH2 0x1D40 PUSH2 0x1F03 JUMP JUMPDEST JUMPDEST DUP3 DUP3 SUB SWAP1 POP SWAP3 SWAP2 POP POP JUMP JUMPDEST PUSH1 0x0 PUSH2 0x1D57 DUP3 PUSH2 0x1D68 JUMP JUMPDEST SWAP1 POP SWAP2 SWAP1 POP JUMP JUMPDEST PUSH1 0x0 DUP2 SWAP1 POP SWAP2 SWAP1 POP JUMP JUMPDEST PUSH1 0x0 PUSH20 0xFFFFFFFFFFFFFFFFFFFFFFFFFFFFFFFFFFFFFFFF DUP3 AND SWAP1 POP SWAP2 SWAP1 POP JUMP JUMPDEST PUSH1 0x0 DUP2 SWAP1 POP SWAP2 SWAP1 POP JUMP JUMPDEST PUSH1 0x0 PUSH4 0xFFFFFFFF DUP3 AND SWAP1 POP SWAP2 SWAP1 POP JUMP JUMPDEST DUP3 DUP2 DUP4 CALLDATACOPY PUSH1 0x0 DUP4 DUP4 ADD MSTORE POP POP POP JUMP JUMPDEST PUSH1 0x0 JUMPDEST DUP4 DUP2 LT ISZERO PUSH2 0x1DCF JUMPI DUP1 DUP3 ADD MLOAD DUP2 DUP5 ADD MSTORE PUSH1 0x20 DUP2 ADD SWAP1 POP PUSH2 0x1DB4 JUMP JUMPDEST DUP4 DUP2 GT ISZERO PUSH2 0x1DDE JUMPI PUSH1 0x0 DUP5 DUP5 ADD MSTORE JUMPDEST POP POP POP POP JUMP JUMPDEST PUSH1 0x0 PUSH2 0x1DEF DUP3 PUSH2 0x1D88 JUMP JUMPDEST SWAP2 POP PUSH1 0x0 DUP3 EQ ISZERO PUSH2 0x1E03 JUMPI PUSH2 0x1E02 PUSH2 0x1F03 JUMP JUMPDEST JUMPDEST PUSH1 0x1 DUP3 SUB SWAP1 POP SWAP2 SWAP1 POP JUMP JUMPDEST PUSH2 0x1E17 DUP3 PUSH2 0x1FDD JUMP JUMPDEST DUP2 ADD DUP2 DUP2 LT PUSH8 0xFFFFFFFFFFFFFFFF DUP3 GT OR ISZERO PUSH2 0x1E36 JUMPI PUSH2 0x1E35 PUSH2 0x1F90 JUMP JUMPDEST JUMPDEST DUP1 PUSH1 0x40 MSTORE POP POP POP JUMP JUMPDEST PUSH1 0x0 PUSH2 0x1E4A DUP3 PUSH2 0x1D88 JUMP JUMPDEST SWAP2 POP PUSH32 0xFFFFFFFFFFFFFFFFFFFFFFFFFFFFFFFFFFFFFFFFFFFFFFFFFFFFFFFFFFFFFFFF DUP3 EQ ISZERO PUSH2 0x1E7D JUMPI PUSH2 0x1E7C PUSH2 0x1F03 JUMP JUMPDEST JUMPDEST PUSH1 0x1 DUP3 ADD SWAP1 POP SWAP2 SWAP1 POP JUMP JUMPDEST PUSH1 0x0 PUSH2 0x1E93 DUP3 PUSH2 0x1EA4 JUMP JUMPDEST SWAP1 POP SWAP2 SWAP1 POP JUMP JUMPDEST PUSH1 0x0 DUP2 SWAP1 POP SWAP2 SWAP1 POP JUMP JUMPDEST PUSH1 0x0 PUSH2 0x1EAF DUP3 PUSH2 0x1FFB JUMP JUMPDEST SWAP1 POP SWAP2 SWAP1 POP JUMP JUMPDEST PUSH1 0x0 DUP2 SWAP1 POP SWAP2 SWAP1 POP JUMP JUMPDEST PUSH1 0x0 PUSH2 0x1ECB DUP3 PUSH2 0x1FEE JUMP JUMPDEST SWAP1 POP SWAP2 SWAP1 POP JUMP JUMPDEST PUSH1 0x0 PUSH2 0x1EDD DUP3 PUSH2 0x1D88 JUMP JUMPDEST SWAP2 POP PUSH2 0x1EE8 DUP4 PUSH2 0x1D88 JUMP JUMPDEST SWAP3 POP DUP3 PUSH2 0x1EF8 JUMPI PUSH2 0x1EF7 PUSH2 0x1F32 JUMP JUMPDEST JUMPDEST DUP3 DUP3 MOD SWAP1 POP SWAP3 SWAP2 POP POP JUMP JUMPDEST PUSH32 0x4E487B7100000000000000000000000000000000000000000000000000000000 PUSH1 0x0 MSTORE PUSH1 0x11 PUSH1 0x4 MSTORE PUSH1 0x24 PUSH1 0x0 REVERT JUMPDEST PUSH32 0x4E487B7100000000000000000000000000000000000000000000000000000000 PUSH1 0x0 MSTORE PUSH1 0x12 PUSH1 0x4 MSTORE PUSH1 0x24 PUSH1 0x0 REVERT JUMPDEST PUSH32 0x4E487B7100000000000000000000000000000000000000000000000000000000 PUSH1 0x0 MSTORE PUSH1 0x32 PUSH1 0x4 MSTORE PUSH1 0x24 PUSH1 0x0 REVERT JUMPDEST PUSH32 0x4E487B7100000000000000000000000000000000000000000000000000000000 PUSH1 0x0 MSTORE PUSH1 0x41 PUSH1 0x4 MSTORE PUSH1 0x24 PUSH1 0x0 REVERT JUMPDEST PUSH1 0x0 DUP1 REVERT JUMPDEST PUSH1 0x0 DUP1 REVERT JUMPDEST PUSH1 0x0 DUP1 REVERT JUMPDEST PUSH1 0x0 DUP1 REVERT JUMPDEST PUSH1 0x0 DUP1 REVERT JUMPDEST PUSH1 0x0 DUP1 REVERT JUMPDEST PUSH1 0x0 PUSH1 0x1F NOT PUSH1 0x1F DUP4 ADD AND SWAP1 POP SWAP2 SWAP1 POP JUMP JUMPDEST PUSH1 0x0 DUP2 PUSH1 0xE0 SHL SWAP1 POP SWAP2 SWAP1 POP JUMP JUMPDEST PUSH1 0x0 DUP2 PUSH1 0x60 SHL SWAP1 POP SWAP2 SWAP1 POP JUMP JUMPDEST PUSH32 0x4F776E61626C653A206E6577206F776E657220697320746865207A65726F2061 PUSH1 0x0 DUP3 ADD MSTORE PUSH32 0x6464726573730000000000000000000000000000000000000000000000000000 PUSH1 0x20 DUP3 ADD MSTORE POP JUMP JUMPDEST PUSH32 0x496E76616C696420636F6E747261637420616464726573730000000000000000 PUSH1 0x0 DUP3 ADD MSTORE POP JUMP JUMPDEST PUSH32 0x4F776E61626C653A2063616C6C6572206973206E6F7420746865206F776E6572 PUSH1 0x0 DUP3 ADD MSTORE POP JUMP JUMPDEST PUSH2 0x20B2 DUP2 PUSH2 0x1D4C JUMP JUMPDEST DUP2 EQ PUSH2 0x20BD JUMPI PUSH1 0x0 DUP1 REVERT JUMPDEST POP JUMP JUMPDEST PUSH2 0x20C9 DUP2 PUSH2 0x1D5E JUMP JUMPDEST DUP2 EQ PUSH2 0x20D4 JUMPI PUSH1 0x0 DUP1 REVERT JUMPDEST POP JUMP JUMPDEST PUSH2 0x20E0 DUP2 PUSH2 0x1D88 JUMP JUMPDEST DUP2 EQ PUSH2 0x20EB JUMPI PUSH1 0x0 DUP1 REVERT JUMPDEST POP JUMP JUMPDEST PUSH2 0x20F7 DUP2 PUSH2 0x1D92 JUMP JUMPDEST DUP2 EQ PUSH2 0x2102 JUMPI PUSH1 0x0 DUP1 REVERT JUMPDEST POP JUMP INVALID PUSH21 0x6F6B656E20636F6E6669726D65642061742073656E PUSH5 0x6572206164 PUSH5 0x72657373A2 PUSH5 0x6970667358 0x22 SLT KECCAK256 0xD2 CALLDATACOPY DUP9 0xAB BASEFEE BLOCKHASH DUP5 0xCA DUP11 DUP7 CODECOPY PUSH11 0xB4A0B2281E3102136A72B DUP11 0xB1 0x5F 0xEF ADDRESS 0x1E 0xD 0xC1 GAS PUSH5 0x736F6C6343 STOP ADDMOD SMOD STOP CALLER "
		},
		"gasEstimates": {
			"creation": {
				"codeDepositCost": "1708000",
				"executionCost": "infinite",
				"totalCost": "infinite"
			},
			"external": {
				"_Getprice()": "infinite",
				"atMyAddress(uint256)": "infinite",
				"atWhatAddress(uint256)": "infinite",
				"atWhatAddressTokenB32(bytes32)": "infinite",
				"b32_to_uint256(bytes32)": "676",
				"getAddrHash(address)": "infinite",
				"getAddrUint160(address)": "infinite",
				"getB32Hash(bytes32)": "infinite",
				"getBlock()": "426",
				"getFuckyRgtHash(bytes32,string,string,string,string,string)": "infinite",
				"getHashOfUint256AndAddress(uint256,address)": "infinite",
				"getIdxHash(string,string,string,string)": "infinite",
				"getJustRgtHash(bytes32,string,string,string,string,string)": "infinite",
				"getRgtHash(bytes32,string,string,string,string,string)": "infinite",
				"getStringHash(string)": "infinite",
				"getTime()": "359",
				"getURIb32fromAuthcode(uint32,string)": "infinite",
				"getURIfromAuthcode(uint32,string)": "infinite",
				"getUint256Hash(uint256)": "infinite",
				"owner()": "2589",
				"renounceOwnership()": "30462",
				"setErc721_tokenAddress(address)": "51378",
				"transferOwnership(address)": "30766",
				"uint256_to_b32(uint256)": "719",
				"uint256toString(uint256)": "infinite"
			}
		},
		"methodIdentifiers": {
			"_Getprice()": "09b35c86",
			"atMyAddress(uint256)": "c58fd5c1",
			"atWhatAddress(uint256)": "bf512085",
			"atWhatAddressTokenB32(bytes32)": "49070106",
			"b32_to_uint256(bytes32)": "29addf71",
			"getAddrHash(address)": "99672666",
			"getAddrUint160(address)": "c3dacc22",
			"getB32Hash(bytes32)": "50b3f7f7",
			"getBlock()": "2e97766d",
			"getFuckyRgtHash(bytes32,string,string,string,string,string)": "7de7e5b1",
			"getHashOfUint256AndAddress(uint256,address)": "58ca1265",
			"getIdxHash(string,string,string,string)": "1ac6a563",
			"getJustRgtHash(bytes32,string,string,string,string,string)": "e44f5bba",
			"getRgtHash(bytes32,string,string,string,string,string)": "60c1f1fb",
			"getStringHash(string)": "c2161c31",
			"getTime()": "557ed1ba",
			"getURIb32fromAuthcode(uint32,string)": "86c4cd80",
			"getURIfromAuthcode(uint32,string)": "fea1cfdd",
			"getUint256Hash(uint256)": "6295184d",
			"owner()": "8da5cb5b",
			"renounceOwnership()": "715018a6",
			"setErc721_tokenAddress(address)": "62c5591e",
			"transferOwnership(address)": "f2fde38b",
			"uint256_to_b32(uint256)": "aac08ac2",
			"uint256toString(uint256)": "ca516341"
		}
	},
	"abi": [
		{
			"anonymous": false,
			"inputs": [
				{
					"indexed": true,
					"internalType": "address",
					"name": "previousOwner",
					"type": "address"
				},
				{
					"indexed": true,
					"internalType": "address",
					"name": "newOwner",
					"type": "address"
				}
			],
			"name": "OwnershipTransferred",
			"type": "event"
		},
		{
			"inputs": [],
			"name": "_Getprice",
			"outputs": [
				{
					"internalType": "uint256",
					"name": "",
					"type": "uint256"
				},
				{
					"internalType": "uint256",
					"name": "",
					"type": "uint256"
				}
			],
			"stateMutability": "view",
			"type": "function"
		},
		{
			"inputs": [
				{
					"internalType": "uint256",
					"name": "tokenId",
					"type": "uint256"
				}
			],
			"name": "atMyAddress",
			"outputs": [
				{
					"internalType": "string",
					"name": "",
					"type": "string"
				}
			],
			"stateMutability": "view",
			"type": "function"
		},
		{
			"inputs": [
				{
					"internalType": "uint256",
					"name": "tokenId",
					"type": "uint256"
				}
			],
			"name": "atWhatAddress",
			"outputs": [
				{
					"internalType": "address",
					"name": "",
					"type": "address"
				}
			],
			"stateMutability": "view",
			"type": "function"
		},
		{
			"inputs": [
				{
					"internalType": "bytes32",
					"name": "_tokenB32",
					"type": "bytes32"
				}
			],
			"name": "atWhatAddressTokenB32",
			"outputs": [
				{
					"internalType": "address",
					"name": "",
					"type": "address"
				}
			],
			"stateMutability": "view",
			"type": "function"
		},
		{
			"inputs": [
				{
					"internalType": "bytes32",
					"name": "b32",
					"type": "bytes32"
				}
			],
			"name": "b32_to_uint256",
			"outputs": [
				{
					"internalType": "uint256",
					"name": "",
					"type": "uint256"
				}
			],
			"stateMutability": "pure",
			"type": "function"
		},
		{
			"inputs": [
				{
					"internalType": "address",
					"name": "_idx",
					"type": "address"
				}
			],
			"name": "getAddrHash",
			"outputs": [
				{
					"internalType": "bytes32",
					"name": "",
					"type": "bytes32"
				}
			],
			"stateMutability": "pure",
			"type": "function"
		},
		{
			"inputs": [
				{
					"internalType": "address",
					"name": "_idx",
					"type": "address"
				}
			],
			"name": "getAddrUint160",
			"outputs": [
				{
					"internalType": "uint160",
					"name": "",
					"type": "uint160"
				}
			],
			"stateMutability": "pure",
			"type": "function"
		},
		{
			"inputs": [
				{
					"internalType": "bytes32",
					"name": "_idx",
					"type": "bytes32"
				}
			],
			"name": "getB32Hash",
			"outputs": [
				{
					"internalType": "bytes32",
					"name": "",
					"type": "bytes32"
				}
			],
			"stateMutability": "pure",
			"type": "function"
		},
		{
			"inputs": [],
			"name": "getBlock",
			"outputs": [
				{
					"internalType": "uint256",
					"name": "",
					"type": "uint256"
				}
			],
			"stateMutability": "view",
			"type": "function"
		},
		{
			"inputs": [
				{
					"internalType": "bytes32",
					"name": "_idxHash",
					"type": "bytes32"
				},
				{
					"internalType": "string",
					"name": "_rgt_first",
					"type": "string"
				},
				{
					"internalType": "string",
					"name": "_rgt_mid",
					"type": "string"
				},
				{
					"internalType": "string",
					"name": "_rgt_last",
					"type": "string"
				},
				{
					"internalType": "string",
					"name": "_rgt_ID",
					"type": "string"
				},
				{
					"internalType": "string",
					"name": "_rgt_secret",
					"type": "string"
				}
			],
			"name": "getFuckyRgtHash",
			"outputs": [
				{
					"internalType": "bytes32",
					"name": "",
					"type": "bytes32"
				}
			],
			"stateMutability": "pure",
			"type": "function"
		},
		{
			"inputs": [
				{
					"internalType": "uint256",
					"name": "_idx",
					"type": "uint256"
				},
				{
					"internalType": "address",
					"name": "_address",
					"type": "address"
				}
			],
			"name": "getHashOfUint256AndAddress",
			"outputs": [
				{
					"internalType": "bytes32",
					"name": "",
					"type": "bytes32"
				}
			],
			"stateMutability": "pure",
			"type": "function"
		},
		{
			"inputs": [
				{
					"internalType": "string",
					"name": "_idx_type",
					"type": "string"
				},
				{
					"internalType": "string",
					"name": "_idx_mfg",
					"type": "string"
				},
				{
					"internalType": "string",
					"name": "_idx_mod",
					"type": "string"
				},
				{
					"internalType": "string",
					"name": "_idx_ser",
					"type": "string"
				}
			],
			"name": "getIdxHash",
			"outputs": [
				{
					"internalType": "bytes32",
					"name": "",
					"type": "bytes32"
				}
			],
			"stateMutability": "pure",
			"type": "function"
		},
		{
			"inputs": [
				{
					"internalType": "bytes32",
					"name": "_idxHash",
					"type": "bytes32"
				},
				{
					"internalType": "string",
					"name": "_rgt_first",
					"type": "string"
				},
				{
					"internalType": "string",
					"name": "_rgt_mid",
					"type": "string"
				},
				{
					"internalType": "string",
					"name": "_rgt_last",
					"type": "string"
				},
				{
					"internalType": "string",
					"name": "_rgt_ID",
					"type": "string"
				},
				{
					"internalType": "string",
					"name": "_rgt_secret",
					"type": "string"
				}
			],
			"name": "getJustRgtHash",
			"outputs": [
				{
					"internalType": "bytes32",
					"name": "",
					"type": "bytes32"
				}
			],
			"stateMutability": "pure",
			"type": "function"
		},
		{
			"inputs": [
				{
					"internalType": "bytes32",
					"name": "_idxHash",
					"type": "bytes32"
				},
				{
					"internalType": "string",
					"name": "_rgt_first",
					"type": "string"
				},
				{
					"internalType": "string",
					"name": "_rgt_mid",
					"type": "string"
				},
				{
					"internalType": "string",
					"name": "_rgt_last",
					"type": "string"
				},
				{
					"internalType": "string",
					"name": "_rgt_ID",
					"type": "string"
				},
				{
					"internalType": "string",
					"name": "_rgt_secret",
					"type": "string"
				}
			],
			"name": "getRgtHash",
			"outputs": [
				{
					"internalType": "bytes32",
					"name": "",
					"type": "bytes32"
				},
				{
					"internalType": "bytes32",
					"name": "",
					"type": "bytes32"
				}
			],
			"stateMutability": "pure",
			"type": "function"
		},
		{
			"inputs": [
				{
					"internalType": "string",
					"name": "_idx",
					"type": "string"
				}
			],
			"name": "getStringHash",
			"outputs": [
				{
					"internalType": "bytes32",
					"name": "",
					"type": "bytes32"
				}
			],
			"stateMutability": "pure",
			"type": "function"
		},
		{
			"inputs": [],
			"name": "getTime",
			"outputs": [
				{
					"internalType": "uint256",
					"name": "",
					"type": "uint256"
				}
			],
			"stateMutability": "view",
			"type": "function"
		},
		{
			"inputs": [
				{
					"internalType": "uint32",
					"name": "_assetClass",
					"type": "uint32"
				},
				{
					"internalType": "string",
					"name": "_authCode",
					"type": "string"
				}
			],
			"name": "getURIb32fromAuthcode",
			"outputs": [
				{
					"internalType": "bytes32",
					"name": "",
					"type": "bytes32"
				}
			],
			"stateMutability": "pure",
			"type": "function"
		},
		{
			"inputs": [
				{
					"internalType": "uint32",
					"name": "_assetClass",
					"type": "uint32"
				},
				{
					"internalType": "string",
					"name": "_authCode",
					"type": "string"
				}
			],
			"name": "getURIfromAuthcode",
			"outputs": [
				{
					"internalType": "string",
					"name": "",
					"type": "string"
				}
			],
			"stateMutability": "pure",
			"type": "function"
		},
		{
			"inputs": [
				{
					"internalType": "uint256",
					"name": "_idx",
					"type": "uint256"
				}
			],
			"name": "getUint256Hash",
			"outputs": [
				{
					"internalType": "bytes32",
					"name": "",
					"type": "bytes32"
				}
			],
			"stateMutability": "pure",
			"type": "function"
		},
		{
			"inputs": [],
			"name": "owner",
			"outputs": [
				{
					"internalType": "address",
					"name": "",
					"type": "address"
				}
			],
			"stateMutability": "view",
			"type": "function"
		},
		{
			"inputs": [],
			"name": "renounceOwnership",
			"outputs": [],
			"stateMutability": "nonpayable",
			"type": "function"
		},
		{
			"inputs": [
				{
					"internalType": "address",
					"name": "contractAddress",
					"type": "address"
				}
			],
			"name": "setErc721_tokenAddress",
			"outputs": [],
			"stateMutability": "nonpayable",
			"type": "function"
		},
		{
			"inputs": [
				{
					"internalType": "address",
					"name": "newOwner",
					"type": "address"
				}
			],
			"name": "transferOwnership",
			"outputs": [],
			"stateMutability": "nonpayable",
			"type": "function"
		},
		{
			"inputs": [
				{
					"internalType": "uint256",
					"name": "u256",
					"type": "uint256"
				}
			],
			"name": "uint256_to_b32",
			"outputs": [
				{
					"internalType": "bytes32",
					"name": "",
					"type": "bytes32"
				}
			],
			"stateMutability": "pure",
			"type": "function"
		},
		{
			"inputs": [
				{
					"internalType": "uint256",
					"name": "number",
					"type": "uint256"
				}
			],
			"name": "uint256toString",
			"outputs": [
				{
					"internalType": "string",
					"name": "",
					"type": "string"
				}
			],
			"stateMutability": "pure",
			"type": "function"
		}
	]
}