{
    "contractName": "Storage",
    "abi": [
        {
            "anonymous": false,
            "inputs": [
                {
                    "indexed": true,
                    "internalType": "address",
                    "name": "previousOwner",
                    "type": "address"
                },
                {
                    "indexed": true,
                    "internalType": "address",
                    "name": "newOwner",
                    "type": "address"
                }
            ],
            "name": "OwnershipTransferred",
            "type": "event"
        },
        {
            "anonymous": false,
            "inputs": [
                {
                    "indexed": false,
                    "internalType": "string",
                    "name": "_msg",
                    "type": "string"
                }
            ],
            "name": "REPORT",
            "type": "event"
        },
        {
            "inputs": [
                {
                    "internalType": "string",
                    "name": "_idx",
                    "type": "string"
                },
                {
                    "internalType": "string",
                    "name": "_rgt",
                    "type": "string"
                }
            ],
            "name": "ADMIN_compare_rgt",
            "outputs": [
                {
                    "internalType": "string",
                    "name": "",
                    "type": "string"
                }
            ],
            "stateMutability": "view",
            "type": "function"
        },
        {
            "inputs": [
                {
                    "internalType": "bytes32",
                    "name": "_idxHash",
                    "type": "bytes32"
                },
                {
                    "internalType": "uint8",
                    "name": "_stat",
                    "type": "uint8"
                }
            ],
            "name": "ADMIN_lockStatus",
            "outputs": [],
            "stateMutability": "nonpayable",
            "type": "function"
        },
        {
            "inputs": [
                {
                    "internalType": "bytes32",
                    "name": "_idxHash",
                    "type": "bytes32"
                }
            ],
            "name": "ADMIN_resetFMC",
            "outputs": [],
            "stateMutability": "nonpayable",
            "type": "function"
        },
        {
            "inputs": [
                {
                    "internalType": "bytes32",
                    "name": "_idxHash",
                    "type": "bytes32"
                },
                {
                    "internalType": "uint256",
                    "name": "_blockNumber",
                    "type": "uint256"
                }
            ],
            "name": "ADMIN_setTimelock",
            "outputs": [],
            "stateMutability": "nonpayable",
            "type": "function"
        },
        {
            "inputs": [
                {
                    "internalType": "bytes32",
                    "name": "_idxHash",
                    "type": "bytes32"
                }
            ],
            "name": "ADMIN_unlock",
            "outputs": [],
            "stateMutability": "nonpayable",
            "type": "function"
        },
        {
            "inputs": [
                {
                    "internalType": "string",
                    "name": "_name",
                    "type": "string"
                },
                {
                    "internalType": "address",
                    "name": "_addr",
                    "type": "address"
                },
                {
                    "internalType": "uint8",
                    "name": "_contractAuthLevel",
                    "type": "uint8"
                }
            ],
            "name": "OO_addContract",
            "outputs": [],
            "stateMutability": "nonpayable",
            "type": "function"
        },
        {
            "inputs": [
                {
                    "internalType": "address",
                    "name": "_authAddr",
                    "type": "address"
                },
                {
                    "internalType": "uint8",
                    "name": "_userType",
                    "type": "uint8"
                },
                {
                    "internalType": "uint16",
                    "name": "_authorizedAssetClass",
                    "type": "uint16"
                }
            ],
            "name": "OO_addUser",
            "outputs": [],
            "stateMutability": "nonpayable",
            "type": "function"
        },
        {
            "inputs": [
                {
                    "internalType": "uint16",
                    "name": "_class",
                    "type": "uint16"
                },
                {
                    "internalType": "uint256",
                    "name": "_newRecordCost",
                    "type": "uint256"
                },
                {
                    "internalType": "uint256",
                    "name": "_transferRecordCost",
                    "type": "uint256"
                },
                {
                    "internalType": "uint256",
                    "name": "_createNoteCost",
                    "type": "uint256"
                },
                {
                    "internalType": "uint256",
                    "name": "_cost4",
                    "type": "uint256"
                },
                {
                    "internalType": "uint256",
                    "name": "_cost5",
                    "type": "uint256"
                },
                {
                    "internalType": "uint256",
                    "name": "_forceModCost",
                    "type": "uint256"
                }
            ],
            "name": "OO_setCosts",
            "outputs": [],
            "stateMutability": "nonpayable",
            "type": "function"
        },
        {
            "inputs": [
                {
                    "internalType": "bytes32",
                    "name": "_idxHash",
                    "type": "bytes32"
                },
                {
                    "internalType": "bytes32",
                    "name": "_rgtHash",
                    "type": "bytes32"
                }
            ],
            "name": "_verifyRightsHolder",
            "outputs": [
                {
                    "internalType": "uint256",
                    "name": "",
                    "type": "uint256"
                }
            ],
            "stateMutability": "view",
            "type": "function"
        },
        {
            "inputs": [
                {
                    "internalType": "bytes32",
                    "name": "_idxHash",
                    "type": "bytes32"
                },
                {
                    "internalType": "bytes32",
                    "name": "_rgtHash",
                    "type": "bytes32"
                }
            ],
            "name": "blockchainVerifyRightsHolder",
            "outputs": [
                {
                    "internalType": "uint8",
                    "name": "",
                    "type": "uint8"
                }
            ],
            "stateMutability": "nonpayable",
            "type": "function"
        },
        {
            "inputs": [
                {
                    "internalType": "bytes32",
                    "name": "_userHash",
                    "type": "bytes32"
                },
                {
                    "internalType": "bytes32",
                    "name": "_idxHash",
                    "type": "bytes32"
                },
                {
                    "internalType": "bytes32",
                    "name": "_Ipfs1",
                    "type": "bytes32"
                },
                {
                    "internalType": "bytes32",
                    "name": "_Ipfs2",
                    "type": "bytes32"
                }
            ],
            "name": "modifyIpfs",
            "outputs": [],
            "stateMutability": "nonpayable",
            "type": "function"
        },
        {
            "inputs": [
                {
                    "internalType": "bytes32",
                    "name": "_userHash",
                    "type": "bytes32"
                },
                {
                    "internalType": "bytes32",
                    "name": "_idxHash",
                    "type": "bytes32"
                },
                {
                    "internalType": "bytes32",
                    "name": "_rgtHash",
                    "type": "bytes32"
                },
                {
                    "internalType": "uint8",
                    "name": "_assetStatus",
                    "type": "uint8"
                },
                {
                    "internalType": "uint256",
                    "name": "_countDown",
                    "type": "uint256"
                },
                {
                    "internalType": "uint8",
                    "name": "_forceCount",
                    "type": "uint8"
                }
            ],
            "name": "modifyRecord",
            "outputs": [],
            "stateMutability": "nonpayable",
            "type": "function"
        },
        {
            "inputs": [
                {
                    "internalType": "bytes32",
                    "name": "_userHash",
                    "type": "bytes32"
                },
                {
                    "internalType": "bytes32",
                    "name": "_idxHash",
                    "type": "bytes32"
                },
                {
                    "internalType": "bytes32",
                    "name": "_rgt",
                    "type": "bytes32"
                },
                {
                    "internalType": "uint16",
                    "name": "_assetClass",
                    "type": "uint16"
                },
                {
                    "internalType": "uint256",
                    "name": "_countDownStart",
                    "type": "uint256"
                },
                {
                    "internalType": "bytes32",
                    "name": "_Ipfs1",
                    "type": "bytes32"
                }
            ],
            "name": "newRecord",
            "outputs": [],
            "stateMutability": "nonpayable",
            "type": "function"
        },
        {
            "inputs": [],
            "name": "owner",
            "outputs": [
                {
                    "internalType": "address",
                    "name": "",
                    "type": "address"
                }
            ],
            "stateMutability": "view",
            "type": "function"
        },
        {
            "inputs": [],
            "name": "renounceOwnership",
            "outputs": [],
            "stateMutability": "nonpayable",
            "type": "function"
        },
        {
            "inputs": [
                {
                    "internalType": "string",
                    "name": "_name",
                    "type": "string"
                }
            ],
            "name": "resolveContractAddress",
            "outputs": [
                {
                    "internalType": "address",
                    "name": "",
                    "type": "address"
                }
            ],
            "stateMutability": "view",
            "type": "function"
        },
        {
            "inputs": [
                {
                    "internalType": "uint16",
                    "name": "_assetClass",
                    "type": "uint16"
                }
            ],
            "name": "retrieveCosts",
            "outputs": [
                {
                    "internalType": "uint256",
                    "name": "",
                    "type": "uint256"
                },
                {
                    "internalType": "uint256",
                    "name": "",
                    "type": "uint256"
                },
                {
                    "internalType": "uint256",
                    "name": "",
                    "type": "uint256"
                },
                {
                    "internalType": "uint256",
                    "name": "",
                    "type": "uint256"
                },
                {
                    "internalType": "uint256",
                    "name": "",
                    "type": "uint256"
                },
                {
                    "internalType": "uint256",
                    "name": "",
                    "type": "uint256"
                }
            ],
            "stateMutability": "view",
            "type": "function"
        },
        {
            "inputs": [
                {
                    "internalType": "bytes32",
                    "name": "_idxHash",
                    "type": "bytes32"
                }
            ],
            "name": "retrieveRecord",
            "outputs": [
                {
                    "internalType": "bytes32",
                    "name": "",
                    "type": "bytes32"
                },
                {
                    "internalType": "bytes32",
                    "name": "",
                    "type": "bytes32"
                },
                {
                    "internalType": "bytes32",
                    "name": "",
                    "type": "bytes32"
                },
                {
                    "internalType": "uint8",
                    "name": "",
                    "type": "uint8"
                },
                {
                    "internalType": "uint8",
                    "name": "",
                    "type": "uint8"
                },
                {
                    "internalType": "uint16",
                    "name": "",
                    "type": "uint16"
                },
                {
                    "internalType": "uint256",
                    "name": "",
                    "type": "uint256"
                },
                {
                    "internalType": "uint256",
                    "name": "",
                    "type": "uint256"
                },
                {
                    "internalType": "bytes32",
                    "name": "",
                    "type": "bytes32"
                },
                {
                    "internalType": "bytes32",
                    "name": "",
                    "type": "bytes32"
                }
            ],
            "stateMutability": "view",
            "type": "function"
        },
        {
            "inputs": [
                {
                    "internalType": "address",
                    "name": "newOwner",
                    "type": "address"
                }
            ],
            "name": "transferOwnership",
            "outputs": [],
            "stateMutability": "nonpayable",
            "type": "function"
        }
    ],
    "bytecode": "608060405234801561001057600080fd5b5060006100246001600160e01b0361007316565b600080546001600160a01b0319166001600160a01b0383169081178255604051929350917f8be0079c531659141344cd1fd0a4f28419497f9722a3daafe3b4186f6b6457e0908290a350610077565b3390565b612b15806100866000396000f3fe608060405234801561001057600080fd5b50600436106101215760003560e01c80638da5cb5b116100ad578063d3dbdbda11610071578063d3dbdbda1461052f578063dc0e1f1214610564578063df6050e8146105a9578063e248f2c4146105e8578063f2fde38b1461065e57610121565b80638da5cb5b14610321578063c21dd13914610345578063c771a9821461036b578063cd8706da146103d9578063ce3c87951461050c57610121565b806355f13c77116100f457806355f13c77146102405780635c9eac72146102945780636c08e507146102c3578063715018a6146102e05780638d9fc872146102e857610121565b806308f2501414610126578063182cc3c31461014557806346c07c201461018757806352872115146101c0575b600080fd5b6101436004803603602081101561013c57600080fd5b5035610684565b005b610143600480360360c081101561015b57600080fd5b5080359060208101359060408101359060ff606082013581169160808101359160a090910135166107cb565b6101436004803603606081101561019d57600080fd5b5080356001600160a01b031690602081013560ff16906040013561ffff16610dc5565b610143600480360360608110156101d657600080fd5b810190602081018135600160201b8111156101f057600080fd5b82018360208201111561020257600080fd5b803590602001918460018302840111600160201b8311171561022357600080fd5b919350915080356001600160a01b0316906020013560ff16610f5a565b6102616004803603602081101561025657600080fd5b503561ffff166110ff565b604080519687526020870195909552858501939093526060850191909152608084015260a0830152519081900360c00190f35b610143600480360360808110156102aa57600080fd5b508035906020810135906040810135906060013561120e565b610143600480360360208110156102d957600080fd5b5035611780565b61014361198b565b61030b600480360360408110156102fe57600080fd5b5080359060200135611a2d565b6040805160ff9092168252519081900360200190f35b610329611adf565b604080516001600160a01b039092168252519081900360200190f35b6101436004803603604081101561035b57600080fd5b508035906020013560ff16611aee565b6103296004803603602081101561038157600080fd5b810190602081018135600160201b81111561039b57600080fd5b8201836020820111156103ad57600080fd5b803590602001918460018302840111600160201b831117156103ce57600080fd5b509092509050611c82565b610497600480360360408110156103ef57600080fd5b810190602081018135600160201b81111561040957600080fd5b82018360208201111561041b57600080fd5b803590602001918460018302840111600160201b8311171561043c57600080fd5b919390929091602081019035600160201b81111561045957600080fd5b82018360208201111561046b57600080fd5b803590602001918460018302840111600160201b8311171561048c57600080fd5b509092509050611d44565b6040805160208082528351818301528351919283929083019185019080838360005b838110156104d15781810151838201526020016104b9565b50505050905090810190601f1680156104fe5780820380516001836020036101000a031916815260200191505b509250505060405180910390f35b6101436004803603604081101561052257600080fd5b5080359060200135611f5c565b6105526004803603604081101561054557600080fd5b508035906020013561209c565b60408051918252519081900360200190f35b610143600480360360e081101561057a57600080fd5b5061ffff8135169060208101359060408101359060608101359060808101359060a08101359060c001356120c5565b610143600480360360c08110156105bf57600080fd5b5080359060208101359060408101359061ffff6060820135169060808101359060a00135612199565b610605600480360360208110156105fe57600080fd5b5035612486565b604080519a8b5260208b01999099528989019790975260ff95861660608a015293909416608088015261ffff90911660a087015260c086015260e085019190915261010084015261012083015251908190036101400190f35b6101436004803603602081101561067457600080fd5b50356001600160a01b031661261c565b604080513360601b602080830191909152825160148184030181526034909201835281519181019190912060009081526001909152205460ff1660041480156107065750604080513360601b602080830191909152825160148184030181526034909201835281519181019190912060009081526004909152205460ff166063145b80610720575033610715611adf565b6001600160a01b0316145b61075b5760405162461bcd60e51b8152600401808060200182810382526023815260200180612a936023913960400191505060405180910390fd5b60008181526003602052604090206001015481906107ae576040805162461bcd60e51b815260206004820152601b60248201526000805160206129b0833981519152604482015290519081900360640190fd5b50600090815260036020819052604090912001805460ff19169055565b604080513360601b6020808301919091528251808303601401815260349092018352815191810191909120600090815260019091522054600360ff909116108015906108535750604080513360601b6020808301919091528251808303601401815260349092018352815191810191909120600090815260019091522054600460ff90911611155b61088e5760405162461bcd60e51b815260040180806020018281038252603a815260200180612a2f603a913960400191505060405180910390fd5b6000868152600460205260409020548690869060ff1660018114806108b657508060ff166009145b610907576040805162461bcd60e51b815260206004820152601a60248201527f4d4f442d55412d55736572206e6f742072656769737465726564000000000000604482015290519081900360640190fd5b6000838152600460209081526040808320548584526003928390529220015462010000900461ffff90811661010090920416146109755760405162461bcd60e51b81526004018080602001828103825260298152602001806129876029913960400191505060405180910390fd5b60008881526003602052604090206001015488906109c8576040805162461bcd60e51b815260206004820152601b60248201526000805160206129b0833981519152604482015290519081900360640190fd5b60008981526003602081905260409091200154899060c860ff90911610610a2c576040805162461bcd60e51b81526020600482015260136024820152721353d10b554b5c9958dbdc9908131bd8dad959606a1b604482015290519081900360640190fd5b60008a8152600360205260409020600801548a904311610a93576040805162461bcd60e51b815260206004820152601a60248201527f4d4f442d4e544c2d7265636f72642074696d65206c6f636b6564000000000000604482015290519081900360640190fd5b8a8c8b80610ad25760405162461bcd60e51b81526004018080602001828103825260238152602001806128766023913960400191505060405180910390fd5b6000838152600360205260409020600401548b1115610b225760405162461bcd60e51b815260040180806020018281038252602f815260200180612899602f913960400191505060405180910390fd5b6000838152600360208190526040909120015460ff6101009091048116908b161015610b7f5760405162461bcd60e51b81526004018080602001828103825260398152602001806128c86039913960400191505060405180910390fd5b60c88c60ff1610610bc15760405162461bcd60e51b81526004018080602001828103825260318152602001806129566031913960400191505060405180910390fd5b600083815260036020526040902043600890910155610bde6127a1565b50600083815260036020818152604092839020835161016081018552815481526002820154948101949094529182015460ff808216606086015261010080830490911660808601526201000090910461ffff1660a0850152600483015460c08501819052600584015460e0860152600684015491850191909152600783015461012085015260089092015461014084015282018390528c11610c825760c081018c90525b60c88d60ff161015610c985760ff8d1660608201525b8a60ff16816080015160ff1611610cb35760ff8b1660808201525b610cc68382600001518360400151612714565b60408381019182529183526000868152600360208181529184902085518155828601516001820155925160028401556060808601519184018054608088015160a089015160ff1990921660ff9586161761ff0019166101009590911685021763ffff000019166201000061ffff9092169190910217905560c0860151600485015560e0860151600585015590850151600684015561012085015160078401556101408501516008909301929092558251818152600f918101919091526e149958dbdc99081b5bd91a599a5959608a1b8184015291516000805160206128248339815191529281900390910190a150505050505050505050505050505050565b610dcd61279d565b6000546001600160a01b03908116911614610e1d576040805162461bcd60e51b815260206004820181905260248201526000805160206129d0833981519152604482015290519081900360640190fd5b60ff82161580610e3057508160ff166001145b80610e3e57508160ff166009145b80610e4c57508160ff166063145b610e9d576040805162461bcd60e51b815260206004820152601a60248201527f41553a45522d313320496e76616c696420757365722074797065000000000000604482015290519081900360640190fd5b604080516bffffffffffffffffffffffff19606086901b166020808301919091528251808303601401815260348301808552815191830191909120919052601e60548301527f696e7465726e616c207573657220646174616261736520616363657373210000607483015291516000805160206128248339815191529181900360940190a16000908152600460205260409020805461ffff9092166101000262ffff001960ff90941660ff19909316929092179290921617905550565b610f6261279d565b6000546001600160a01b03908116911614610fb2576040805162461bcd60e51b815260206004820181905260248201526000805160206129d0833981519152604482015290519081900360640190fd5b60048160ff16111561100b576040805162461bcd60e51b815260206004820152601a60248201527f41433a45522d313320496e76616c696420757365722074797065000000000000604482015290519081900360640190fd5b604080516020808252601e908201527f696e7465726e616c2075736572206461746162617365206163636573732100008183015290516000805160206128248339815191529181900360600190a160408051606084901b6bffffffffffffffffffffffff19166020808301919091528251601481840301815260349092018084528251928201929092206000908152600190915291909120805460ff191660ff8416179055829060029086908690808383808284379190910194855250506040519283900360200190922080546001600160a01b03949094166001600160a01b031990941693909317909255505050505050565b604080513360601b6020808301919091528251808303601401815260349092018352815191810191909120600090815260019091529081205481908190819081908190600360ff909116108015906111935750604080513360601b6020808301919091528251808303601401815260349092018352815191810191909120600090815260019091522054600460ff90911611155b6111ce5760405162461bcd60e51b815260040180806020018281038252603a815260200180612a2f603a913960400191505060405180910390fd5b5050505061ffff92909216600090815260056020819052604090912080546001820154600283015460038401546004850154949095015492979196509450565b604080513360601b6020808301919091528251808303601401815260349092018352815191810191909120600090815260019091522054600360ff909116108015906112965750604080513360601b6020808301919091528251808303601401815260349092018352815191810191909120600090815260019091522054600460ff90911611155b6112d15760405162461bcd60e51b815260040180806020018281038252603a815260200180612a2f603a913960400191505060405180910390fd5b6000848152600460205260409020548490849060ff1660018114806112f957508060ff166009145b61134a576040805162461bcd60e51b815260206004820152601a60248201527f4d4f442d55412d55736572206e6f742072656769737465726564000000000000604482015290519081900360640190fd5b6000838152600460209081526040808320548584526003928390529220015462010000900461ffff90811661010090920416146113b85760405162461bcd60e51b81526004018080602001828103825260298152602001806129876029913960400191505060405180910390fd5b600086815260036020526040902060010154869061140b576040805162461bcd60e51b815260206004820152601b60248201526000805160206129b0833981519152604482015290519081900360640190fd5b60008781526003602081905260409091200154879060c860ff9091161061146f576040805162461bcd60e51b81526020600482015260136024820152721353d10b554b5c9958dbdc9908131bd8dad959606a1b604482015290519081900360640190fd5b600088815260036020526040902060080154889043116114d6576040805162461bcd60e51b815260206004820152601a60248201527f4d4f442d4e544c2d7265636f72642074696d65206c6f636b6564000000000000604482015290519081900360640190fd5b60408051808201825260158152744e6f206d6f64696669636174696f6e73206d61646560581b60208083019190915260008c8152600390915291909120436008909101556115226127a1565b5060008a815260036020818152604092839020835161016081018552815481526001820154928101929092526002810154938201939093529082015460ff808216606084015261010080830490911660808401526201000090910461ffff1660a0830152600483015460c0830152600583015460e083015260068301549082018190526007830154610120830152600890920154610140820152908a146115f85761010081018a905260408051808201909152601381527211195cd8dc9a5c1d1a5bdb88155c19185d1959606a1b602082015291505b61012081015161162e57610120810189905260408051808201909152600a815269139bdd1948105919195960b21b602082015291505b6116418c82600001518360400151612714565b604083810191825291835260008d815260036020818152848320865181558187015160018201559351600285015560608601519184018054608088015160a089015160ff1990921660ff9586161761ff0019166101009590911685021763ffff000019166201000061ffff9092169190910217905560c0860151600485015560e08601516005850155908501516006840155610120850151600784015561014085015160089093019290925582518281528551818401528551600080516020612824833981519152948794929384939184019291860191908190849084905b83811015611738578181015183820152602001611720565b50505050905090810190601f1680156117655780820380516001836020036101000a031916815260200191505b509250505060405180910390a1505050505050505050505050565b604080513360601b602080830191909152825160148184030181526034909201835281519181019190912060009081526001909152205460ff1660041480156118025750604080513360601b602080830191909152825160148184030181526034909201835281519181019190912060009081526004909152205460ff166063145b8061181c575033611811611adf565b6001600160a01b0316145b6118575760405162461bcd60e51b8152600401808060200182810382526023815260200180612a936023913960400191505060405180910390fd5b604080513360601b6020808301919091528251808303601401815260349092018352815191810191909120600090815260019091522054600360ff909116108015906118df5750604080513360601b6020808301919091528251808303601401815260349092018352815191810191909120600090815260019091522054600460ff90911611155b61191a5760405162461bcd60e51b815260040180806020018281038252603a815260200180612a2f603a913960400191505060405180910390fd5b600081815260036020526040902060010154819061196d576040805162461bcd60e51b815260206004820152601b60248201526000805160206129b0833981519152604482015290519081900360640190fd5b50600090815260036020819052604090912001805461ff0019169055565b61199361279d565b6000546001600160a01b039081169116146119e3576040805162461bcd60e51b815260206004820181905260248201526000805160206129d0833981519152604482015290519081900360640190fd5b600080546040516001600160a01b03909116907f8be0079c531659141344cd1fd0a4f28419497f9722a3daafe3b4186f6b6457e0908390a3600080546001600160a01b0319169055565b600082815260036020526040812060010154821415611a9c57604080516020808252601d908201527f52696768747320686f6c646572206d6174636820636f6e6669726d65640000008183015290516000805160206128248339815191529181900360600190a15060aa611ad9565b60008051602061282483398151915260405180806020018281038252602a815260200180612a69602a913960400191505060405180910390a15060005b92915050565b6000546001600160a01b031690565b604080513360601b602080830191909152825160148184030181526034909201835281519181019190912060009081526001909152205460ff166004148015611b705750604080513360601b602080830191909152825160148184030181526034909201835281519181019190912060009081526004909152205460ff166063145b80611b8a575033611b7f611adf565b6001600160a01b0316145b611bc55760405162461bcd60e51b8152600401808060200182810382526023815260200180612a936023913960400191505060405180910390fd5b6000828152600360205260409020600101548290611c18576040805162461bcd60e51b815260206004820152601b60248201526000805160206129b0833981519152604482015290519081900360640190fd5b60c78260ff1611611c5a5760405162461bcd60e51b81526004018080602001828103825260328152602001806129016032913960400191505060405180910390fd5b506000918252600360208190526040909220909101805460ff191660ff909216919091179055565b604080513360601b6020808301919091528251808303601401815260349092018352815191810191909120600090815260049091529081205460ff166001811480611cd057508060ff166009145b611d0b5760405162461bcd60e51b815260040180806020018281038252603f8152602001806129f0603f913960400191505060405180910390fd5b600284846040518083838082843791909101948552505060405192839003602001909220546001600160a01b0316935050505092915050565b6040805133606090811b6020808401919091528351601481850301815260349093018452825192810192909220600090815260019092529190205460ff166004148015611dca5750604080513360601b602080830191909152825160148184030181526034909201835281519181019190912060009081526004909152205460ff166063145b80611de4575033611dd9611adf565b6001600160a01b0316145b611e1f5760405162461bcd60e51b8152600401808060200182810382526023815260200180612a936023913960400191505060405180910390fd5b60008585604051602001808383808284378083019250505092505050604051602081830303815290604052805190602001209050600084846040516020018083838082843760408051601f199490920182810394909401825283815281516020928301208285018a905281850152805180850382018152606085019091528051910120955060039450600093508b92508a91608001905080838380828437808301925050509250505060405160208183030381529060405280519060200120815260200190815260200160002060010154811415611f36576040518060400160405280601d81526020017f52696768747320686f6c646572206d6174636820636f6e6669726d656400000081525092505050611f54565b6040518060600160405280602a8152602001612a69602a9139925050505b949350505050565b604080513360601b602080830191909152825160148184030181526034909201835281519181019190912060009081526001909152205460ff166004148015611fde5750604080513360601b602080830191909152825160148184030181526034909201835281519181019190912060009081526004909152205460ff166063145b80611ff8575033611fed611adf565b6001600160a01b0316145b6120335760405162461bcd60e51b8152600401808060200182810382526023815260200180612a936023913960400191505060405180910390fd5b6000828152600360205260409020600101548290612086576040805162461bcd60e51b815260206004820152601b60248201526000805160206129b0833981519152604482015290519081900360640190fd5b5060009182526003602052604090912060080155565b6000828152600360205260408120600101548214156120bd575060aa611ad9565b506000611ad9565b6120cd61279d565b6000546001600160a01b0390811691161461211d576040805162461bcd60e51b815260206004820181905260248201526000805160206129d0833981519152604482015290519081900360640190fd5b6180008761ffff16106121615760405162461bcd60e51b81526004018080602001828103825260328152602001806128446032913960400191505060405180910390fd5b61ffff909616600090815260056020819052604090912095865560018601949094556002850192909255600384015560048301550155565b60008681526004602052604090205460ff166001146121ff576040805162461bcd60e51b815260206004820152601a60248201527f4e523a4552522d55736572206e6f742072656769737465726564000000000000604482015290519081900360640190fd5b60008681526004602052604090205461ffff84811661010090920416146122575760405162461bcd60e51b815260040180806020018281038252602a815260200180612ab6602a913960400191505060405180910390fd5b600085815260036020526040902060010154156122bb576040805162461bcd60e51b815260206004820152601c60248201527f4e523a4552522d5265636f726420616c72656164792065786973747300000000604482015290519081900360640190fd5b836122f75760405162461bcd60e51b81526004018080602001828103825260238152602001806129336023913960400191505060405180910390fd5b6122ff6127a1565b838160a0019061ffff16908161ffff1681525050828160e0018181525050828160c00181815250508681600001818152505084816020018181525050868160400181815250506000816080019060ff16908160ff16815250508181610100018181525050806003600088815260200190815260200160002060008201518160000155602082015181600101556040820151816002015560608201518160030160006101000a81548160ff021916908360ff16021790555060808201518160030160016101000a81548160ff021916908360ff16021790555060a08201518160030160026101000a81548161ffff021916908361ffff16021790555060c0820151816004015560e082015181600501556101008201518160060155610120820151816007015561014082015181600801559050506000805160206128248339815191526040518080602001828103825260128152602001807113995dc81c9958dbdc990818dc99585d195960721b81525060200191505060405180910390a150505050505050565b6000806000806000806000806000808a60036000828152602001908152602001600020600101546000801b14156124f2576040805162461bcd60e51b815260206004820152601b60248201526000805160206129b0833981519152604482015290519081900360640190fd5b6124fa6127a1565b600360008e8152602001908152602001600020604051806101600160405290816000820154815260200160018201548152602001600282015481526020016003820160009054906101000a900460ff1660ff1660ff1681526020016003820160019054906101000a900460ff1660ff1660ff1681526020016003820160029054906101000a900461ffff1661ffff1661ffff168152602001600482015481526020016005820154815260200160068201548152602001600782015481526020016008820154815250509050806000015181602001518260400151836060015184608001518560a001518660c001518760e001518861010001518961012001519b509b509b509b509b509b509b509b509b509b5050509193959799509193959799565b61262461279d565b6000546001600160a01b03908116911614612674576040805162461bcd60e51b815260206004820181905260248201526000805160206129d0833981519152604482015290519081900360640190fd5b6001600160a01b0381166126b95760405162461bcd60e51b81526004018080602001828103825260268152602001806127fe6026913960400191505060405180910390fd5b600080546040516001600160a01b03808516939216917f8be0079c531659141344cd1fd0a4f28419497f9722a3daafe3b4186f6b6457e091a3600080546001600160a01b0319166001600160a01b0392909216919091179055565b6000828152600460205260408120548190819060ff1660011480612779575061273b611adf565b60405160200180826001600160a01b03166001600160a01b031660601b81526014019150506040516020818303038152906040528051906020012085145b80156127855750848614155b15612791575083612794565b50825b94959350505050565b3390565b6040805161016081018252600080825260208201819052918101829052606081018290526080810182905260a0810182905260c0810182905260e08101829052610100810182905261012081018290526101408101919091529056fe4f776e61626c653a206e6577206f776e657220697320746865207a65726f20616464726573730340792b8e85fc146fec29e0594da83b9d759be9b011181f9fb0408314fc63354153633a4552522d2d436f7374732070726f6869626974656420696e20636c617373203332373638206f72206869676865724d523a4552522d526967687473686f6c6465722063616e6e6f7420626520626c616e6b4d523a4552522d6e657720636f756e74446f776e2065786365656473206f726967696e616c20636f756e74446f776e4d523a4552522d6e657720666f7263654d6f64436f756e74206c657373207468616e206f726967696e616c20666f7263654d6f64436f756e74414c3a4552522d2d6c6f636b696e672072657175697265732073657474696e67206173736574537461747573203e203139394e523a4552522d526967687473686f6c6465722063616e6e6f7420626520626c616e6b4d523a4552522d6173736574537461747573206f766572203139392063616e6e6f742062652073657420627920757365724d4f442d55412d55736572206e6f74207265676973746572656420666f7220617373657420747970654d4f442d452d7265636f726420646f6573206e6f7420657869737400000000004f776e61626c653a2063616c6c6572206973206e6f7420746865206f776e65725265736f6c7665723a455252202d2055736572206e6f742072656769737465726564202d20636f6e7472616374207265736f6c7574696f6e2064656e6965644d4f442d4f41412d436f6e7472616374206e6f7420617574686f72697a6564206f7220696d70726f7065726c79207065726d697373696f6e656452696768747320686f6c64657220646f6573206e6f74206d6174636820737570706c69656420646174616164647265737320646f6573206e6f742062656c6f6e6720746f20616e2041646d696e4e523a4552522d55736572206e6f74207265676973746572656420666f7220617373657420636c617373a26469706673582212201a97a9f825ec1bccacc90c950e0914b74de8bfff05a51a4207bcefd09704d64364736f6c63430006080033",
    "sourcePath": "/Users/exxo/dev/Bulletproof/New Contract/Data_Storage_05.noToken.sol",
    "compiler": {
        "name": "solc",
        "version": "0.6.8+commit.0bbfe453"
    },
    "functionHashes": {
        "ADMIN_compare_rgt(string,string)": "cd8706da",
        "ADMIN_lockStatus(bytes32,uint8)": "c21dd139",
        "ADMIN_resetFMC(bytes32)": "6c08e507",
        "ADMIN_setTimelock(bytes32,uint256)": "ce3c8795",
        "ADMIN_unlock(bytes32)": "08f25014",
        "OO_addContract(string,address,uint8)": "52872115",
        "OO_addUser(address,uint8,uint16)": "46c07c20",
        "OO_setCosts(uint16,uint256,uint256,uint256,uint256,uint256,uint256)": "dc0e1f12",
        "_verifyRightsHolder(bytes32,bytes32)": "d3dbdbda",
        "blockchainVerifyRightsHolder(bytes32,bytes32)": "8d9fc872",
        "modifyIpfs(bytes32,bytes32,bytes32,bytes32)": "5c9eac72",
        "modifyRecord(bytes32,bytes32,bytes32,uint8,uint256,uint8)": "182cc3c3",
        "newRecord(bytes32,bytes32,bytes32,uint16,uint256,bytes32)": "df6050e8",
        "owner()": "8da5cb5b",
        "renounceOwnership()": "715018a6",
        "resolveContractAddress(string)": "c771a982",
        "retrieveCosts(uint16)": "55f13c77",
        "retrieveRecord(bytes32)": "e248f2c4",
        "transferOwnership(address)": "f2fde38b"
    },
    "gasEstimates": {
        "creation": {
            "codeDepositCost": "2205800",
            "executionCost": "infinite",
            "totalCost": "infinite"
        },
        "external": {
            "ADMIN_compare_rgt(string,string)": "infinite",
            "ADMIN_lockStatus(bytes32,uint8)": "infinite",
            "ADMIN_resetFMC(bytes32)": "infinite",
            "ADMIN_setTimelock(bytes32,uint256)": "infinite",
            "ADMIN_unlock(bytes32)": "infinite",
            "OO_addContract(string,address,uint8)": "infinite",
            "OO_addUser(address,uint8,uint16)": "infinite",
            "OO_setCosts(uint16,uint256,uint256,uint256,uint256,uint256,uint256)": "infinite",
            "_verifyRightsHolder(bytes32,bytes32)": "1196",
            "blockchainVerifyRightsHolder(bytes32,bytes32)": "infinite",
            "modifyIpfs(bytes32,bytes32,bytes32,bytes32)": "infinite",
            "modifyRecord(bytes32,bytes32,bytes32,uint8,uint256,uint8)": "infinite",
            "newRecord(bytes32,bytes32,bytes32,uint16,uint256,bytes32)": "infinite",
            "owner()": "1060",
            "renounceOwnership()": "infinite",
            "resolveContractAddress(string)": "infinite",
            "retrieveCosts(uint16)": "infinite",
            "retrieveRecord(bytes32)": "infinite",
            "transferOwnership(address)": "infinite"
        },
        "internal": {
            "newRecorder(bytes32,bytes32,bytes32)": "infinite"
        }
    }
}