{
  "contractName": "A_TKN",
  "abi": [
    {
      "inputs": [],
      "stateMutability": "nonpayable",
      "type": "constructor"
    },
    {
      "anonymous": false,
      "inputs": [
        {
          "indexed": true,
          "internalType": "address",
          "name": "owner",
          "type": "address"
        },
        {
          "indexed": true,
          "internalType": "address",
          "name": "approved",
          "type": "address"
        },
        {
          "indexed": true,
          "internalType": "uint256",
          "name": "tokenId",
          "type": "uint256"
        }
      ],
      "name": "Approval",
      "type": "event"
    },
    {
      "anonymous": false,
      "inputs": [
        {
          "indexed": true,
          "internalType": "address",
          "name": "owner",
          "type": "address"
        },
        {
          "indexed": true,
          "internalType": "address",
          "name": "operator",
          "type": "address"
        },
        {
          "indexed": false,
          "internalType": "bool",
          "name": "approved",
          "type": "bool"
        }
      ],
      "name": "ApprovalForAll",
      "type": "event"
    },
    {
      "anonymous": false,
      "inputs": [
        {
          "indexed": true,
          "internalType": "address",
          "name": "previousOwner",
          "type": "address"
        },
        {
          "indexed": true,
          "internalType": "address",
          "name": "newOwner",
          "type": "address"
        }
      ],
      "name": "OwnershipTransferred",
      "type": "event"
    },
    {
      "anonymous": false,
      "inputs": [
        {
          "indexed": false,
          "internalType": "string",
          "name": "_msg",
          "type": "string"
        }
      ],
      "name": "REPORT",
      "type": "event"
    },
    {
      "anonymous": false,
      "inputs": [
        {
          "indexed": true,
          "internalType": "address",
          "name": "from",
          "type": "address"
        },
        {
          "indexed": true,
          "internalType": "address",
          "name": "to",
          "type": "address"
        },
        {
          "indexed": true,
          "internalType": "uint256",
          "name": "tokenId",
          "type": "uint256"
        }
      ],
      "name": "Transfer",
      "type": "event"
    },
    {
      "inputs": [
        {
          "internalType": "address",
          "name": "to",
          "type": "address"
        },
        {
          "internalType": "uint256",
          "name": "tokenId",
          "type": "uint256"
        }
      ],
      "name": "approve",
      "outputs": [],
      "stateMutability": "nonpayable",
      "type": "function"
    },
    {
      "inputs": [
        {
          "internalType": "address",
          "name": "owner",
          "type": "address"
        }
      ],
      "name": "balanceOf",
      "outputs": [
        {
          "internalType": "uint256",
          "name": "",
          "type": "uint256"
        }
      ],
      "stateMutability": "view",
      "type": "function"
    },
    {
      "inputs": [],
      "name": "baseURI",
      "outputs": [
        {
          "internalType": "string",
          "name": "",
          "type": "string"
        }
      ],
      "stateMutability": "view",
      "type": "function"
    },
    {
      "inputs": [
        {
          "internalType": "uint256",
          "name": "tokenId",
          "type": "uint256"
        }
      ],
      "name": "getApproved",
      "outputs": [
        {
          "internalType": "address",
          "name": "",
          "type": "address"
        }
      ],
      "stateMutability": "view",
      "type": "function"
    },
    {
      "inputs": [
        {
          "internalType": "address",
          "name": "owner",
          "type": "address"
        },
        {
          "internalType": "address",
          "name": "operator",
          "type": "address"
        }
      ],
      "name": "isApprovedForAll",
      "outputs": [
        {
          "internalType": "bool",
          "name": "",
          "type": "bool"
        }
      ],
      "stateMutability": "view",
      "type": "function"
    },
    {
      "inputs": [],
      "name": "name",
      "outputs": [
        {
          "internalType": "string",
          "name": "",
          "type": "string"
        }
      ],
      "stateMutability": "view",
      "type": "function"
    },
    {
      "inputs": [],
      "name": "owner",
      "outputs": [
        {
          "internalType": "address",
          "name": "",
          "type": "address"
        }
      ],
      "stateMutability": "view",
      "type": "function"
    },
    {
      "inputs": [
        {
          "internalType": "uint256",
          "name": "tokenId",
          "type": "uint256"
        }
      ],
      "name": "ownerOf",
      "outputs": [
        {
          "internalType": "address",
          "name": "",
          "type": "address"
        }
      ],
      "stateMutability": "view",
      "type": "function"
    },
    {
      "inputs": [],
      "name": "renounceOwnership",
      "outputs": [],
      "stateMutability": "nonpayable",
      "type": "function"
    },
    {
      "inputs": [
        {
          "internalType": "address",
          "name": "operator",
          "type": "address"
        },
        {
          "internalType": "bool",
          "name": "approved",
          "type": "bool"
        }
      ],
      "name": "setApprovalForAll",
      "outputs": [],
      "stateMutability": "nonpayable",
      "type": "function"
    },
    {
      "inputs": [
        {
          "internalType": "bytes4",
          "name": "interfaceId",
          "type": "bytes4"
        }
      ],
      "name": "supportsInterface",
      "outputs": [
        {
          "internalType": "bool",
          "name": "",
          "type": "bool"
        }
      ],
      "stateMutability": "view",
      "type": "function"
    },
    {
      "inputs": [],
      "name": "symbol",
      "outputs": [
        {
          "internalType": "string",
          "name": "",
          "type": "string"
        }
      ],
      "stateMutability": "view",
      "type": "function"
    },
    {
      "inputs": [
        {
          "internalType": "uint256",
          "name": "index",
          "type": "uint256"
        }
      ],
      "name": "tokenByIndex",
      "outputs": [
        {
          "internalType": "uint256",
          "name": "",
          "type": "uint256"
        }
      ],
      "stateMutability": "view",
      "type": "function"
    },
    {
      "inputs": [
        {
          "internalType": "address",
          "name": "owner",
          "type": "address"
        },
        {
          "internalType": "uint256",
          "name": "index",
          "type": "uint256"
        }
      ],
      "name": "tokenOfOwnerByIndex",
      "outputs": [
        {
          "internalType": "uint256",
          "name": "",
          "type": "uint256"
        }
      ],
      "stateMutability": "view",
      "type": "function"
    },
    {
      "inputs": [
        {
          "internalType": "uint256",
          "name": "tokenId",
          "type": "uint256"
        }
      ],
      "name": "tokenURI",
      "outputs": [
        {
          "internalType": "string",
          "name": "",
          "type": "string"
        }
      ],
      "stateMutability": "view",
      "type": "function"
    },
    {
      "inputs": [],
      "name": "totalSupply",
      "outputs": [
        {
          "internalType": "uint256",
          "name": "",
          "type": "uint256"
        }
      ],
      "stateMutability": "view",
      "type": "function"
    },
    {
      "inputs": [
        {
          "internalType": "address",
          "name": "newOwner",
          "type": "address"
        }
      ],
      "name": "transferOwnership",
      "outputs": [],
      "stateMutability": "nonpayable",
      "type": "function"
    },
    {
      "inputs": [
        {
          "internalType": "address",
          "name": "_storageAddress",
          "type": "address"
        }
      ],
      "name": "OO_setStorageContract",
      "outputs": [],
      "stateMutability": "nonpayable",
      "type": "function"
    },
    {
      "inputs": [],
      "name": "OO_ResolveContractAddresses",
      "outputs": [],
      "stateMutability": "nonpayable",
      "type": "function"
    },
    {
      "inputs": [
        {
          "internalType": "address",
          "name": "_recipientAddress",
          "type": "address"
        },
        {
          "internalType": "uint256",
          "name": "tokenId",
          "type": "uint256"
        },
        {
          "internalType": "string",
          "name": "_tokenURI",
          "type": "string"
        }
      ],
      "name": "mintAssetToken",
      "outputs": [
        {
          "internalType": "uint256",
          "name": "",
          "type": "uint256"
        }
      ],
      "stateMutability": "nonpayable",
      "type": "function"
    },
    {
      "inputs": [
        {
          "internalType": "address",
          "name": "_recipientAddress",
          "type": "address"
        },
        {
          "internalType": "uint256",
          "name": "tokenId",
          "type": "uint256"
        }
      ],
      "name": "reMintAssetToken",
      "outputs": [
        {
          "internalType": "uint256",
          "name": "",
          "type": "uint256"
        }
      ],
      "stateMutability": "nonpayable",
      "type": "function"
    },
    {
      "inputs": [
        {
          "internalType": "uint256",
          "name": "tokenId",
          "type": "uint256"
        },
        {
          "internalType": "string",
          "name": "_tokenURI",
          "type": "string"
        }
      ],
      "name": "setURI",
      "outputs": [
        {
          "internalType": "uint256",
          "name": "",
          "type": "uint256"
        }
      ],
      "stateMutability": "nonpayable",
      "type": "function"
    },
    {
      "inputs": [
        {
          "internalType": "uint256",
          "name": "tokenId",
          "type": "uint256"
        },
        {
          "internalType": "uint256",
          "name": "_assetClass",
          "type": "uint256"
        },
        {
          "internalType": "string",
          "name": "_authCode",
          "type": "string"
        }
      ],
      "name": "validateNakedToken",
      "outputs": [],
      "stateMutability": "view",
      "type": "function"
    },
    {
      "inputs": [
        {
          "internalType": "uint256",
          "name": "tokenId",
          "type": "uint256"
        }
      ],
      "name": "tokenExists",
      "outputs": [
        {
          "internalType": "uint8",
          "name": "",
          "type": "uint8"
        }
      ],
      "stateMutability": "view",
      "type": "function"
    },
    {
      "inputs": [
        {
          "internalType": "address",
          "name": "from",
          "type": "address"
        },
        {
          "internalType": "address",
          "name": "to",
          "type": "address"
        },
        {
          "internalType": "uint256",
          "name": "tokenId",
          "type": "uint256"
        }
      ],
      "name": "transferFrom",
      "outputs": [],
      "stateMutability": "nonpayable",
      "type": "function"
    },
    {
      "inputs": [
        {
          "internalType": "address",
          "name": "from",
          "type": "address"
        },
        {
          "internalType": "address",
          "name": "to",
          "type": "address"
        },
        {
          "internalType": "uint256",
          "name": "tokenId",
          "type": "uint256"
        }
      ],
      "name": "safeTransferFrom",
      "outputs": [],
      "stateMutability": "nonpayable",
      "type": "function"
    },
    {
      "inputs": [
        {
          "internalType": "address",
          "name": "from",
          "type": "address"
        },
        {
          "internalType": "address",
          "name": "to",
          "type": "address"
        },
        {
          "internalType": "uint256",
          "name": "tokenId",
          "type": "uint256"
        },
        {
          "internalType": "bytes",
          "name": "_data",
          "type": "bytes"
        }
      ],
      "name": "safeTransferFrom",
      "outputs": [],
      "stateMutability": "nonpayable",
      "type": "function"
    },
    {
      "inputs": [
        {
          "internalType": "uint256",
          "name": "tokenId",
          "type": "uint256"
        }
      ],
      "name": "discard",
      "outputs": [],
      "stateMutability": "nonpayable",
      "type": "function"
    },
    {
      "inputs": [
        {
          "internalType": "uint256",
          "name": "number",
          "type": "uint256"
        }
      ],
      "name": "uint256toString",
      "outputs": [
        {
          "internalType": "string",
          "name": "",
          "type": "string"
        }
      ],
      "stateMutability": "pure",
      "type": "function"
    }
  ],
  "bytecode": "0x60806040523480156200001157600080fd5b5060405180604001604052806011815260200170282961de231020b9b9b2ba102a37b5b2b760791b8152506040518060400160405280600381526020016214105560ea1b81525060006200006a6200015860201b60201c565b600080546001600160a01b0319166001600160a01b0383169081178255604051929350917f8be0079c531659141344cd1fd0a4f28419497f9722a3daafe3b4186f6b6457e0908290a35060018055620000d36301ffc9a760e01b6001600160e01b036200015d16565b8151620000e8906008906020850190620001e2565b508051620000fe906009906020840190620001e2565b506200011a6380ac58cd60e01b6001600160e01b036200015d16565b62000135635b5e139f60e01b6001600160e01b036200015d16565b6200015063780e9d6360e01b6001600160e01b036200015d16565b505062000284565b335b90565b6001600160e01b03198082161415620001bd576040805162461bcd60e51b815260206004820152601c60248201527f4552433136353a20696e76616c696420696e7465726661636520696400000000604482015290519081900360640190fd5b6001600160e01b0319166000908152600260205260409020805460ff19166001179055565b828054600181600116156101000203166002900490600052602060002090601f016020900481019282601f106200022557805160ff191683800117855562000255565b8280016001018555821562000255579182015b828111156200025557825182559160200191906001019062000238565b506200026392915062000267565b5090565b6200015a91905b808211156200026357600081556001016200026e565b6137fc80620002946000396000f3fe608060405234801561001057600080fd5b50600436106101ce5760003560e01c806370a08231116101045780639f66c20c116100a2578063ca51634111610071578063ca51634114610729578063d6b02ecf14610746578063e985e9c51461076c578063f2fde38b1461079a576101ce565b80639f66c20c146105a0578063a22cb4651461061a578063b88d4fde14610648578063c87b56dd1461070c576101ce565b8063862440e2116100de578063862440e2146104ef5780638da5cb5b1461056457806395d89b411461056c57806395f23ec214610574576101ce565b806370a08231146104a4578063715018a6146104ca5780637e8f2b0c146104d2576101ce565b80632f745c59116101715780634f6ccce71161014b5780634f6ccce7146103df57806354a19c2b146103fc5780636352211e1461047f5780636c0360eb1461049c576101ce565b80632f745c591461037557806342842e0e146103a15780634b9f23a4146103d7576101ce565b8063081812fc116101ad578063081812fc146102be578063095ea7b3146102f757806318160ddd1461032557806323b872dd1461033f576101ce565b8062923f9e146101d357806301ffc9a71461020657806306fdde0314610241575b600080fd5b6101f0600480360360208110156101e957600080fd5b50356107c0565b6040805160ff9092168252519081900360200190f35b61022d6004803603602081101561021c57600080fd5b50356001600160e01b0319166107e1565b604080519115158252519081900360200190f35b610249610800565b6040805160208082528351818301528351919283929083019185019080838360005b8381101561028357818101518382015260200161026b565b50505050905090810190601f1680156102b05780820380516001836020036101000a031916815260200191505b509250505060405180910390f35b6102db600480360360208110156102d457600080fd5b5035610897565b604080516001600160a01b039092168252519081900360200190f35b6103236004803603604081101561030d57600080fd5b506001600160a01b0381351690602001356108f9565b005b61032d6109d4565b60408051918252519081900360200190f35b6103236004803603606081101561035557600080fd5b506001600160a01b038135811691602081013590911690604001356109e5565b61032d6004803603604081101561038b57600080fd5b506001600160a01b038135169060200135610b4a565b610323600480360360608110156103b757600080fd5b506001600160a01b03813581169160208101359091169060400135610b7b565b610323610b96565b61032d600480360360208110156103f557600080fd5b5035610f78565b61032d6004803603606081101561041257600080fd5b6001600160a01b0382351691602081013591810190606081016040820135600160201b81111561044157600080fd5b82018360208201111561045357600080fd5b803590602001918460018302840111600160201b8311171561047457600080fd5b509092509050610f94565b6102db6004803603602081101561049557600080fd5b50356110ac565b6102496110da565b61032d600480360360208110156104ba57600080fd5b50356001600160a01b031661113b565b6103236111a3565b610323600480360360208110156104e857600080fd5b5035611245565b61032d6004803603604081101561050557600080fd5b81359190810190604081016020820135600160201b81111561052657600080fd5b82018360208201111561053857600080fd5b803590602001918460018302840111600160201b8311171561055957600080fd5b5090925090506113eb565b6102db611483565b610249611492565b61032d6004803603604081101561058a57600080fd5b506001600160a01b0381351690602001356114f3565b610323600480360360608110156105b657600080fd5b813591602081013591810190606081016040820135600160201b8111156105dc57600080fd5b8201836020820111156105ee57600080fd5b803590602001918460018302840111600160201b8311171561060f57600080fd5b50909250905061167a565b6103236004803603604081101561063057600080fd5b506001600160a01b0381351690602001351515611814565b6103236004803603608081101561065e57600080fd5b6001600160a01b03823581169260208101359091169160408201359190810190608081016060820135600160201b81111561069857600080fd5b8201836020820111156106aa57600080fd5b803590602001918460018302840111600160201b831117156106cb57600080fd5b91908080601f016020809104026020016040519081016040528093929190818152602001838380828437600092019190915250929550611919945050505050565b6102496004803603602081101561072257600080fd5b5035611b6a565b6102496004803603602081101561073f57600080fd5b5035611e11565b6103236004803603602081101561075c57600080fd5b50356001600160a01b0316611eec565b61022d6004803603604081101561078257600080fd5b506001600160a01b0381358116916020013516611fab565b610323600480360360208110156107b057600080fd5b50356001600160a01b0316611fd9565b60006107cb826120d1565b156107d8575060aa6107dc565b5060005b919050565b6001600160e01b03191660009081526002602052604090205460ff1690565b60088054604080516020601f600260001961010060018816150201909516949094049384018190048102820181019092528281526060939092909183018282801561088c5780601f106108615761010080835404028352916020019161088c565b820191906000526020600020905b81548152906001019060200180831161086f57829003601f168201915b505050505090505b90565b60006108a2826120d1565b6108dd5760405162461bcd60e51b815260040180806020018281038252602c8152602001806134e4602c913960400191505060405180910390fd5b506000908152600660205260409020546001600160a01b031690565b6000610904826110ac565b9050806001600160a01b0316836001600160a01b031614156109575760405162461bcd60e51b815260040180806020018281038252602181526020018061361a6021913960400191505060405180910390fd5b806001600160a01b03166109696120e4565b6001600160a01b0316148061098a575061098a816109856120e4565b611fab565b6109c55760405162461bcd60e51b81526004018080602001828103825260388152602001806134376038913960400191505060405180910390fd5b6109cf83836120e8565b505050565b60006109e06004612156565b905090565b60026001541415610a2b576040805162461bcd60e51b815260206004820152601f60248201526000805160206132a5833981519152604482015290519081900360640190fd5b600260015580610a39613157565b610a4282612161565b9050806020015160ff1660461415610a8b5760405162461bcd60e51b815260040180806020018281038252602b81526020018061340c602b913960400191505060405180910390fd5b806020015160ff16603314610ad15760405162461bcd60e51b81526004018080602001828103825260278152602001806133b96027913960400191505060405180910390fd5b610ae2610adc6120e4565b846122ba565b610b1d5760405162461bcd60e51b815260040180806020018281038252602f815260200180613700602f913960400191505060405180910390fd5b60aa6101008201526000198152610b348282612356565b610b3f8585856123fe565b505060018055505050565b6001600160a01b0382166000908152600360205260408120610b72908363ffffffff61255c16565b90505b92915050565b6109cf83838360405180602001604052806000815250611919565b60026001541415610bdc576040805162461bcd60e51b815260206004820152601f60248201526000805160206132a5833981519152604482015290519081900360640190fd5b6002600155610be96120e4565b6000546001600160a01b03908116911614610c39576040805162461bcd60e51b81526020600482018190526024820152600080516020613571833981519152604482015290519081900360640190fd5b601254604080516363b8d4c160e11b815260206004820181905260066024830152654150505f4e4360d01b604483015291516001600160a01b039093169263c771a982926064808401939192918290030181600087803b158015610c9c57600080fd5b505af1158015610cb0573d6000803e3d6000fd5b505050506040513d6020811015610cc657600080fd5b5051600c80546001600160a01b0319166001600160a01b03928316179055601254604080516363b8d4c160e11b8152602060048201819052600360248301526204150560ec1b60448301529151929093169263c771a98292606480830193928290030181600087803b158015610d3b57600080fd5b505af1158015610d4f573d6000803e3d6000fd5b505050506040513d6020811015610d6557600080fd5b5051600d80546001600160a01b0319166001600160a01b03928316179055601254604080516363b8d4c160e11b8152602060048201819052600260248301526104e560f41b60448301529151929093169263c771a98292606480830193928290030181600087803b158015610dd957600080fd5b505af1158015610ded573d6000803e3d6000fd5b505050506040513d6020811015610e0357600080fd5b5051600e80546001600160a01b0319166001600160a01b03928316179055601254604080516363b8d4c160e11b81526020600482018190526005602483015264139052d15160da1b60448301529151929093169263c771a98292606480830193928290030181600087803b158015610e7a57600080fd5b505af1158015610e8e573d6000803e3d6000fd5b505050506040513d6020811015610ea457600080fd5b5051601180546001600160a01b0319166001600160a01b03928316179055601254604080516363b8d4c160e11b8152602060048083018290526024830152632921a62960e11b60448301529151929093169263c771a98292606480830193928290030181600087803b158015610f1957600080fd5b505af1158015610f2d573d6000803e3d6000fd5b505050506040513d6020811015610f4357600080fd5b5051601080546001600160a01b03199081166001600160a01b0393841617918290556013805492909316911617905560018055565b600080610f8c60048463ffffffff61256816565b509392505050565b600d546000906001600160a01b0316331480610fba5750600c546001600160a01b031633145b80610fcf5750600e546001600160a01b031633145b80610fe457506010546001600160a01b031633145b80610ff957506011546001600160a01b031633145b8061101c5750611007611483565b6001600160a01b0316336001600160a01b0316145b6110575760405162461bcd60e51b815260040180806020018281038252603581526020018061353c6035913960400191505060405180910390fd5b6110618585612584565b6110a18484848080601f0160208091040260200160405190810160405280939291908181526020018383808284376000920191909152506125a292505050565b50825b949350505050565b6000610b7582604051806060016040528060298152602001613499602991396004919063ffffffff61260516565b600b8054604080516020601f600260001961010060018816150201909516949094049384018190048102820181019092528281526060939092909183018282801561088c5780601f106108615761010080835404028352916020019161088c565b60006001600160a01b0382166111825760405162461bcd60e51b815260040180806020018281038252602a81526020018061346f602a913960400191505060405180910390fd5b6001600160a01b0382166000908152600360205260409020610b7590612156565b6111ab6120e4565b6000546001600160a01b039081169116146111fb576040805162461bcd60e51b81526020600482018190526024820152600080516020613571833981519152604482015290519081900360640190fd5b600080546040516001600160a01b03909116907f8be0079c531659141344cd1fd0a4f28419497f9722a3daafe3b4186f6b6457e0908390a3600080546001600160a01b0319169055565b6002600154141561128b576040805162461bcd60e51b815260206004820152601f60248201526000805160206132a5833981519152604482015290519081900360640190fd5b600260015580611299613157565b6112a282612161565b90506112ad836120d1565b6112e85760405162461bcd60e51b815260040180806020018281038252602581526020018061334b6025913960400191505060405180910390fd5b806020015160ff16603b1461132e5760405162461bcd60e51b815260040180806020018281038252603d81526020018061363b603d913960400191505060405180910390fd5b611339610adc6120e4565b6113745760405162461bcd60e51b815260040180806020018281038252602e8152602001806132f7602e913960400191505060405180910390fd5b601354604080516372cd766760e01b81526004810185905290516001600160a01b03909216916372cd76679160248082019260009290919082900301818387803b1580156113c157600080fd5b505af11580156113d5573d6000803e3d6000fd5b505050506113e283612612565b50506001805550565b60006113fe6113f86120e4565b856122ba565b6114395760405162461bcd60e51b81526004018080602001828103825260288152602001806136d86028913960400191505060405180910390fd5b6114798484848080601f0160208091040260200160405190810160405280939291908181526020018383808284376000920191909152506125a292505050565b50825b9392505050565b6000546001600160a01b031690565b60098054604080516020601f600260001961010060018816150201909516949094049384018190048102820181019092528281526060939092909183018282801561088c5780601f106108615761010080835404028352916020019161088c565b600d546000906001600160a01b03163314806115195750600c546001600160a01b031633145b8061152e5750600e546001600160a01b031633145b8061154357506010546001600160a01b031633145b8061155857506011546001600160a01b031633145b8061157b5750611566611483565b6001600160a01b0316336001600160a01b0316145b6115b65760405162461bcd60e51b815260040180806020018281038252603581526020018061353c6035913960400191505060405180910390fd5b600260015414156115fc576040805162461bcd60e51b815260206004820152601f60248201526000805160206132a5833981519152604482015290519081900360640190fd5b600260015561160a826120d1565b6116455760405162461bcd60e51b81526004018080602001828103825260258152602001806133706025913960400191505060405180910390fd5b606061165083611b6a565b905061165b83612612565b6116658484612584565b61166f83826125a2565b505060018055919050565b600082826040516020018083838082843760408051601f199490920182810394909401825283815281516020928301208285018190528185018c905281518086038301815260609586019092528151919092012090965094509092506116e39150839050611e11565b905060606116f088611b6a565b9050816040516020018082805190602001908083835b602083106117255780518252601f199092019160209182019101611706565b6001836020036101000a03801982511681845116808217855250505050505090500191505060405160208183030381529060405280519060200120816040516020018082805190602001908083835b602083106117935780518252601f199092019160209182019101611774565b6001836020036101000a038019825116818451168082178552505050505050905001915050604051602081830303815290604052805190602001201461180a5760405162461bcd60e51b81526004018080602001828103825260378152602001806137576037913960400191505060405180910390fd5b5050505050505050565b61181c6120e4565b6001600160a01b0316826001600160a01b03161415611882576040805162461bcd60e51b815260206004820152601960248201527f4552433732313a20617070726f766520746f2063616c6c657200000000000000604482015290519081900360640190fd5b806007600061188f6120e4565b6001600160a01b03908116825260208083019390935260409182016000908120918716808252919093529120805460ff1916921515929092179091556118d36120e4565b60408051841515815290516001600160a01b0392909216917f17307eab39ab6107e8899845ad3d59bd9653f200f220920489ca2b5937696c319181900360200190a35050565b6002600154141561195f576040805162461bcd60e51b815260206004820152601f60248201526000805160206132a5833981519152604482015290519081900360640190fd5b60026001558161196d613157565b61197682612161565b6012546040805163caa496a960e01b81526001600160a01b03898116600483015260006024830181905283519596509493169263caa496a99260448084019391929182900301818787803b1580156119cd57600080fd5b505af11580156119e1573d6000803e3d6000fd5b505050506040513d60408110156119f757600080fd5b5051602083015190915060ff166046141580611a16575060008160ff16115b611a515760405162461bcd60e51b815260040180806020018281038252603a815260200180613678603a913960400191505060405180910390fd5b816020015160ff1660331480611a6e5750816020015160ff166046145b611aa95760405162461bcd60e51b815260040180806020018281038252602881526020018061372f6028913960400191505060405180910390fd5b6001600160a01b038616611aee5760405162461bcd60e51b815260040180806020018281038252603981526020018061378e6039913960400191505060405180910390fd5b611aff611af96120e4565b866122ba565b611b3a5760405162461bcd60e51b81526004018080602001828103825260318152602001806135e96031913960400191505060405180910390fd5b60aa6101008301526000198252611b518383612356565b611b5d878787876126eb565b5050600180555050505050565b6060611b75826120d1565b611bb05760405162461bcd60e51b815260040180806020018281038252602f8152602001806135ba602f913960400191505060405180910390fd5b6000828152600a602090815260409182902080548351601f6002600019610100600186161502019093169290920491820184900484028101840190945280845260609392830182828015611c455780601f10611c1a57610100808354040283529160200191611c45565b820191906000526020600020905b815481529060010190602001808311611c2857829003601f168201915b5050600b5493945050505060026000196101006001841615020190911604611c6e5790506107dc565b805115611d3f57600b816040516020018083805460018160011615610100020316600290048015611cd65780601f10611cb4576101008083540402835291820191611cd6565b820191906000526020600020905b815481529060010190602001808311611cc2575b5050825160208401908083835b60208310611d025780518252601f199092019160209182019101611ce3565b6001836020036101000a038019825116818451168082178552505050505050905001925050506040516020818303038152906040529150506107dc565b600b611d4a84612743565b6040516020018083805460018160011615610100020316600290048015611da85780601f10611d86576101008083540402835291820191611da8565b820191906000526020600020905b815481529060010190602001808311611d94575b5050825160208401908083835b60208310611dd45780518252601f199092019160209182019101611db5565b6001836020036101000a03801982511681845116808217855250505050505090500192505050604051602081830303815290604052915050919050565b606081611e3657506040805180820190915260018152600360fc1b60208201526107dc565b8160005b8115611e4e57600101600a82049150611e3a565b60608167ffffffffffffffff81118015611e6757600080fd5b506040519080825280601f01601f191660200182016040528015611e92576020820181803683370190505b50859350905060001982015b8315611ee357600a840660300160f81b82828060019003935081518110611ec157fe5b60200101906001600160f81b031916908160001a905350600a84049350611e9e565b50949350505050565b611ef46120e4565b6000546001600160a01b03908116911614611f44576040805162461bcd60e51b81526020600482018190526024820152600080516020613571833981519152604482015290519081900360640190fd5b6001600160a01b038116611f895760405162461bcd60e51b81526004018080602001828103825260268152602001806136b26026913960400191505060405180910390fd5b601280546001600160a01b0319166001600160a01b0392909216919091179055565b6001600160a01b03918216600090815260076020908152604080832093909416825291909152205460ff1690565b611fe16120e4565b6000546001600160a01b03908116911614612031576040805162461bcd60e51b81526020600482018190526024820152600080516020613571833981519152604482015290519081900360640190fd5b6001600160a01b0381166120765760405162461bcd60e51b81526004018080602001828103825260268152602001806133256026913960400191505060405180910390fd5b600080546040516001600160a01b03808516939216917f8be0079c531659141344cd1fd0a4f28419497f9722a3daafe3b4186f6b6457e091a3600080546001600160a01b0319166001600160a01b0392909216919091179055565b6000610b7560048363ffffffff61281516565b3390565b600081815260066020526040902080546001600160a01b0319166001600160a01b038416908117909155819061211d826110ac565b6001600160a01b03167f8c5be1e5ebec7d5bd14f71427d1e84f3dd0314c0f7b2291e5b200ac8c7c3b92560405160405180910390a45050565b6000610b7582612821565b612169613157565b612171613157565b6000806000806000806000601260009054906101000a90046001600160a01b03166001600160a01b031663e248f2c48b6040518263ffffffff1660e01b81526004018082815260200191505060e060405180830381600087803b1580156121d757600080fd5b505af11580156121eb573d6000803e3d6000fd5b505050506040513d60e081101561220157600080fd5b810190808051906020019092919080519060200190929190805190602001909291908051906020019092919080519060200190929190805190602001909291908051906020019092919050505096509650965096509650965096508688600001818152505085886020019060ff16908160ff16815250508488606001818152505083886080018181525050828860a0018181525050818860c0018181525050808860e00181815250505050505050505080915050919050565b60006122c5826120d1565b6123005760405162461bcd60e51b815260040180806020018281038252602c8152602001806133e0602c913960400191505060405180910390fd5b600061230b836110ac565b9050806001600160a01b0316846001600160a01b031614806123465750836001600160a01b031661233b84610897565b6001600160a01b0316145b806110a457506110a48185611fab565b601254815160208301516080840151604080860151610100870151825163161e630160e11b8152600481018a9052602481019690965260ff90941660448601526064850192909252608484019190915260a4830191909152516001600160a01b0390921691632c3cc6029160c48082019260009290919082900301818387803b1580156123e257600080fd5b505af11580156123f6573d6000803e3d6000fd5b505050505050565b826001600160a01b0316612411826110ac565b6001600160a01b0316146124565760405162461bcd60e51b81526004018080602001828103825260298152602001806135916029913960400191505060405180910390fd5b6001600160a01b03821661249b5760405162461bcd60e51b81526004018080602001828103825260248152602001806133956024913960400191505060405180910390fd5b6124a68383836109cf565b6124b16000826120e8565b6001600160a01b03831660009081526003602052604090206124d9908263ffffffff61282516565b506001600160a01b0382166000908152600360205260409020612502908263ffffffff61283116565b506125156004828463ffffffff61283d16565b5080826001600160a01b0316846001600160a01b03167fddf252ad1be2c89b69c2b068fc378daa952ba7f163c4a11628f55a4df523b3ef60405160405180910390a4505050565b6000610b728383612853565b600080808061257786866128b7565b9097909650945050505050565b61259e828260405180602001604052806000815250612932565b5050565b6125ab826120d1565b6125e65760405162461bcd60e51b815260040180806020018281038252602c815260200180613510602c913960400191505060405180910390fd5b6000828152600a6020908152604090912082516109cf928401906131a3565b60006110a4848484612984565b600061261d826110ac565b905061262b816000846109cf565b6126366000836120e8565b6000828152600a60205260409020546002600019610100600184161502019091160415612674576000828152600a6020526040812061267491613221565b6001600160a01b038116600090815260036020526040902061269c908363ffffffff61282516565b506126ae60048363ffffffff612a4e16565b5060405182906000906001600160a01b038416907fddf252ad1be2c89b69c2b068fc378daa952ba7f163c4a11628f55a4df523b3ef908390a45050565b6126f68484846123fe565b61270284848484612a5a565b61273d5760405162461bcd60e51b81526004018080602001828103825260328152602001806132c56032913960400191505060405180910390fd5b50505050565b60608161276857506040805180820190915260018152600360fc1b60208201526107dc565b8160005b811561278057600101600a8204915061276c565b60608167ffffffffffffffff8111801561279957600080fd5b506040519080825280601f01601f1916602001820160405280156127c4576020820181803683370190505b50859350905060001982015b8315611ee357600a840660300160f81b828280600190039350815181106127f357fe5b60200101906001600160f81b031916908160001a905350600a840493506127d0565b6000610b728383612bda565b5490565b6000610b728383612bf2565b6000610b728383612cb8565b60006110a484846001600160a01b038516612d02565b815460009082106128955760405162461bcd60e51b81526004018080602001828103825260228152602001806132836022913960400191505060405180910390fd5b8260000182815481106128a457fe5b9060005260206000200154905092915050565b8154600090819083106128fb5760405162461bcd60e51b81526004018080602001828103825260228152602001806134c26022913960400191505060405180910390fd5b600084600001848154811061290c57fe5b906000526020600020906002020190508060000154816001015492509250509250929050565b61293c8383612d99565b6129496000848484612a5a565b6109cf5760405162461bcd60e51b81526004018080602001828103825260328152602001806132c56032913960400191505060405180910390fd5b60008281526001840160205260408120548281612a1f5760405162461bcd60e51b81526004018080602001828103825283818151815260200191508051906020019080838360005b838110156129e45781810151838201526020016129cc565b50505050905090810190601f168015612a115780820380516001836020036101000a031916815260200191505b509250505060405180910390fd5b50846000016001820381548110612a3257fe5b9060005260206000209060020201600101549150509392505050565b6000610b728383612ed3565b6000612a6e846001600160a01b0316612fa7565b612a7a575060016110a4565b6060612ba0630a85bd0160e11b612a8f6120e4565b88878760405160240180856001600160a01b03166001600160a01b03168152602001846001600160a01b03166001600160a01b0316815260200183815260200180602001828103825283818151815260200191508051906020019080838360005b83811015612b08578181015183820152602001612af0565b50505050905090810190601f168015612b355780820380516001836020036101000a031916815260200191505b5095505050505050604051602081830303815290604052906001600160e01b0319166020820180516001600160e01b0383818316178352505050506040518060600160405280603281526020016132c5603291396001600160a01b038816919063ffffffff612fe016565b90506000818060200190516020811015612bb957600080fd5b50516001600160e01b031916630a85bd0160e11b1492505050949350505050565b60009081526001919091016020526040902054151590565b60008181526001830160205260408120548015612cae5783546000198083019190810190600090879083908110612c2557fe5b9060005260206000200154905080876000018481548110612c4257fe5b600091825260208083209091019290925582815260018981019092526040902090840190558654879080612c7257fe5b60019003818190600052602060002001600090559055866001016000878152602001908152602001600020600090556001945050505050610b75565b6000915050610b75565b6000612cc48383612bda565b612cfa57508154600181810184556000848152602080822090930184905584548482528286019093526040902091909155610b75565b506000610b75565b600082815260018401602052604081205480612d6757505060408051808201825283815260208082018481528654600181810189556000898152848120955160029093029095019182559151908201558654868452818801909252929091205561147c565b82856000016001830381548110612d7a57fe5b906000526020600020906002020160010181905550600091505061147c565b6001600160a01b038216612df4576040805162461bcd60e51b815260206004820181905260248201527f4552433732313a206d696e7420746f20746865207a65726f2061646472657373604482015290519081900360640190fd5b612dfd816120d1565b15612e4f576040805162461bcd60e51b815260206004820152601c60248201527f4552433732313a20746f6b656e20616c7265616479206d696e74656400000000604482015290519081900360640190fd5b612e5b600083836109cf565b6001600160a01b0382166000908152600360205260409020612e83908263ffffffff61283116565b50612e966004828463ffffffff61283d16565b5060405181906001600160a01b038416906000907fddf252ad1be2c89b69c2b068fc378daa952ba7f163c4a11628f55a4df523b3ef908290a45050565b60008181526001830160205260408120548015612cae5783546000198083019190810190600090879083908110612f0657fe5b9060005260206000209060020201905080876000018481548110612f2657fe5b600091825260208083208454600290930201918255600193840154918401919091558354825289830190526040902090840190558654879080612f6557fe5b6000828152602080822060026000199094019384020182815560019081018390559290935588815289820190925260408220919091559450610b759350505050565b6000813f7fc5d2460186f7233c927e7db2dcc703c0e500b653ca82273b7bfad8045d85a4708181148015906110a4575050151592915050565b60606110a484846000856060612ff585612fa7565b613046576040805162461bcd60e51b815260206004820152601d60248201527f416464726573733a2063616c6c20746f206e6f6e2d636f6e7472616374000000604482015290519081900360640190fd5b60006060866001600160a01b031685876040518082805190602001908083835b602083106130855780518252601f199092019160209182019101613066565b6001836020036101000a03801982511681845116808217855250505050505090500191505060006040518083038185875af1925050503d80600081146130e7576040519150601f19603f3d011682016040523d82523d6000602084013e6130ec565b606091505b509150915081156131005791506110a49050565b8051156131105780518082602001fd5b60405162461bcd60e51b81526020600482018181528651602484015286518793919283926044019190850190808383600083156129e45781810151838201526020016129cc565b6040805161012081018252600080825260208201819052918101829052606081018290526080810182905260a0810182905260c0810182905260e0810182905261010081019190915290565b828054600181600116156101000203166002900490600052602060002090601f016020900481019282601f106131e457805160ff1916838001178555613211565b82800160010185558215613211579182015b828111156132115782518255916020019190600101906131f6565b5061321d929150613268565b5090565b50805460018160011615610100020316600290046000825580601f106132475750613265565b601f0160209004906000526020600020908101906132659190613268565b50565b61089491905b8082111561321d576000815560010161326e56fe456e756d657261626c655365743a20696e646578206f7574206f6620626f756e64735265656e7472616e637947756172643a207265656e7472616e742063616c6c004552433732313a207472616e7366657220746f206e6f6e20455243373231526563656976657220696d706c656d656e74657241543a443a7472616e736665722063616c6c6572206973206e6f74206f776e6572206e6f7220617070726f7665644f776e61626c653a206e6577206f776e657220697320746865207a65726f206164647265737341543a443a43616e6e6f742064697363617264206e6f6e6578697374616e7420746f6b656e41543a524d3a43616e6e6f742052656d696e74206e6f6e6578697374616e7420746f6b656e4552433732313a207472616e7366657220746f20746865207a65726f206164647265737341543a54463a4173736574206e6f7420696e207472616e736665727261626c65207374617475734552433732313a206f70657261746f7220717565727920666f72206e6f6e6578697374656e7420746f6b656e41543a54463a5573652061757468416464726573735472616e7366657220666f72207374617475732037304552433732313a20617070726f76652063616c6c6572206973206e6f74206f776e6572206e6f7220617070726f76656420666f7220616c6c4552433732313a2062616c616e636520717565727920666f7220746865207a65726f20616464726573734552433732313a206f776e657220717565727920666f72206e6f6e6578697374656e7420746f6b656e456e756d657261626c654d61703a20696e646578206f7574206f6620626f756e64734552433732313a20617070726f76656420717565727920666f72206e6f6e6578697374656e7420746f6b656e4552433732314d657461646174613a2055524920736574206f66206e6f6e6578697374656e7420746f6b656e41543a4d4f442d49413a43616c6c696e67206164647265737320646f6573206e6f742062656c6f6e6720746f20616e2041646d696e4f776e61626c653a2063616c6c6572206973206e6f7420746865206f776e65724552433732313a207472616e73666572206f6620746f6b656e2074686174206973206e6f74206f776e4552433732314d657461646174613a2055524920717565727920666f72206e6f6e6578697374656e7420746f6b656e41543a5354463a207472616e736665722063616c6c6572206973206e6f74206f776e6572206e6f7220617070726f7665644552433732313a20617070726f76616c20746f2063757272656e74206f776e657241543a443a4173736574206d75737420626520696e2073746174757320353920286469736361726461626c652920746f2062652064697363617264656441543a5354463a43616e6e6f742073656e642073746174757320373020617373657420746f20756e617574686f72697a6564206164647265737341543a5353433a2073746f7261676520616464726573732063616e6e6f74206265207a65726f41543a535552493a63616c6c6572206973206e6f74206f776e6572206e6f7220617070726f76656441543a54463a7472616e736665722063616c6c6572206973206e6f74206f776e6572206e6f7220617070726f76656441543a5354463a4173736574206e6f7420696e207472616e736665727261626c6520737461747573537570706c6965642061757468436f646520616e64206173736574636c61737320646f206e6f74206d6174636820746f6b656e2055524941543a5354463a43616e6e6f74207472616e7366657220617373657420746f207a65726f206164726573732e2055736520646973636172642ea26469706673582212209257f99fdfe4311aa3da974856baa193d37282cb62152ea7f467a6e0799bec6b64736f6c63430006090033",
  "source": "/*-----------------------------------------------------------V0.6.8\r\n__/\\\\\\\\\\\\\\\\\\\\\\\\\\ _____/\\\\\\\\\\\\\\\\\\ _______/\\\\../\\\\ ___/\\\\\\\\\\\\\\\\\\\\\\\\\\\\\\\r\n _\\/\\\\\\/////////\\\\\\ _/\\\\\\///////\\\\\\ ____\\//..\\//____\\/\\\\\\///////////__\r\n  _\\/\\\\\\.......\\/\\\\\\.\\/\\\\\\.....\\/\\\\\\ ________________\\/\\\\\\ ____________\r\n   _\\/\\\\\\\\\\\\\\\\\\\\\\\\\\/__\\/\\\\\\\\\\\\\\\\\\\\\\/_____/\\\\\\____/\\\\\\.\\/\\\\\\\\\\\\\\\\\\\\\\ ____\r\n    _\\/\\\\\\/////////____\\/\\\\\\//////\\\\\\ ___\\/\\\\\\___\\/\\\\\\.\\/\\\\\\///////______\r\n     _\\/\\\\\\ ____________\\/\\\\\\ ___\\//\\\\\\ __\\/\\\\\\___\\/\\\\\\.\\/\\\\\\ ____________\r\n      _\\/\\\\\\ ____________\\/\\\\\\ ____\\//\\\\\\ _\\/\\\\\\___\\/\\\\\\.\\/\\\\\\ ____________\r\n       _\\/\\\\\\ ____________\\/\\\\\\ _____\\//\\\\\\.\\//\\\\\\\\\\\\\\\\\\ _\\/\\\\\\ ____________\r\n        _\\/// _____________\\/// _______\\/// __\\///////// __\\/// _____________\r\n         *-------------------------------------------------------------------*/\r\n\r\n/*-----------------------------------------------------------------\r\n *  TO DO\r\n *\r\n *---------------------------------------------------------------*/\r\n\r\n// SPDX-License-Identifier: UNLICENSED\r\npragma solidity ^0.6.7;\r\n\r\nimport \"./_ERC721/ERC721.sol\";\r\nimport \"./_ERC721/Ownable.sol\";\r\nimport \"./PRUF_INTERFACES.sol\";\r\nimport \"./Imports/ReentrancyGuard.sol\";\r\n\r\ncontract A_TKN is Ownable, ReentrancyGuard, ERC721 {\r\n    struct Record {\r\n        bytes32 rightsHolder; // KEK256 Registered owner\r\n        uint8 assetStatus; // Status - Transferrable, locked, in transfer, stolen, lost, etc.\r\n        uint256 incrementForceModCount; // Number of times asset has been forceModded.\r\n        uint256 assetClass; // Type of asset\r\n        uint256 countDown; // Variable that can only be dencreased from countDownStart\r\n        uint256 countDownStart; // Starting point for countdown variable (set once)\r\n        bytes32 Ipfs1; // Publically viewable asset description\r\n        bytes32 Ipfs2; // Publically viewable immutable notes\r\n        uint256 incrementNumberOfTransfers; //number of transfers and forcemods\r\n    }\r\n\r\n    constructor() public ERC721(\"PRF Asset Token\", \"PAT\") {}\r\n\r\n    address internal APP_NC_Address; //isAdmin\r\n    address internal APP_Address; //isAdmin\r\n    address internal NP_Address;\r\n    address internal STOR_Address;\r\n    address internal RCLR_Address;\r\n    address internal NAKED_Address;\r\n    STOR_Interface internal STOR; // Set up external contract interface\r\n    RCLR_Interface internal RCLR;\r\n\r\n    event REPORT(string _msg);\r\n\r\n    modifier isAdmin() {\r\n        require(\r\n            (msg.sender == APP_Address) ||\r\n                (msg.sender == APP_NC_Address) ||\r\n                (msg.sender == NP_Address) ||\r\n                (msg.sender == RCLR_Address) ||\r\n                (msg.sender == NAKED_Address) ||\r\n                (msg.sender == owner()),\r\n            \"AT:MOD-IA:Calling address does not belong to an Admin\"\r\n        );\r\n        _;\r\n    }\r\n\r\n    //----------------------Internal Admin functions / onlyowner or isAdmin----------------------//\r\n\r\n    /*\r\n     * @dev Set storage contract to interface with\r\n     */\r\n    function OO_setStorageContract(address _storageAddress) external onlyOwner {\r\n        require(\r\n            _storageAddress != address(0),\r\n            \"AT:SSC: storage address cannot be zero\"\r\n        );\r\n        //^^^^^^^checks^^^^^^^^^\r\n\r\n        STOR = STOR_Interface(_storageAddress);\r\n        //^^^^^^^effects^^^^^^^^^\r\n    }\r\n\r\n    /*\r\n     * @dev Address Setters\r\n     */\r\n    function OO_ResolveContractAddresses() external nonReentrant onlyOwner {\r\n        //^^^^^^^checks^^^^^^^^^\r\n\r\n        APP_NC_Address = STOR.resolveContractAddress(\"APP_NC\");\r\n        APP_Address = STOR.resolveContractAddress(\"APP\");\r\n        NP_Address = STOR.resolveContractAddress(\"NP\");\r\n        NAKED_Address = STOR.resolveContractAddress(\"NAKED\");\r\n\r\n        RCLR_Address = STOR.resolveContractAddress(\"RCLR\");\r\n        RCLR = RCLR_Interface(RCLR_Address);\r\n        //^^^^^^^effects^^^^^^^^^\r\n    }\r\n\r\n    /*\r\n     * @dev Mint new token\r\n     */\r\n    function mintAssetToken(\r\n        address _recipientAddress,\r\n        uint256 tokenId,\r\n        string calldata _tokenURI\r\n    ) external isAdmin returns (uint256) {\r\n        //^^^^^^^checks^^^^^^^^^\r\n\r\n        //MAKE URI ASSET SPECIFIC- has to incorporate the token ID\r\n        _safeMint(_recipientAddress, tokenId);\r\n        _setTokenURI(tokenId, _tokenURI);\r\n        return tokenId;\r\n        //^^^^^^^interactions^^^^^^^^^\r\n    }\r\n\r\n    /*\r\n     * @dev remint Asset Token\r\n     * must set a new and unuiqe rgtHash\r\n     * burns old token\r\n     * Sends new token to original Caller\r\n     */\r\n    function reMintAssetToken(address _recipientAddress, uint256 tokenId)\r\n        external\r\n        isAdmin\r\n        nonReentrant\r\n        returns (uint256)\r\n    {\r\n        require(_exists(tokenId), \"AT:RM:Cannot Remint nonexistant token\");\r\n        //^^^^^^^checks^^^^^^^^^\r\n        string memory tokenURI = tokenURI(tokenId);\r\n        _burn(tokenId);\r\n        _safeMint(_recipientAddress, tokenId);\r\n        _setTokenURI(tokenId, tokenURI);\r\n        return tokenId;\r\n        //^^^^^^^interactions^^^^^^^^^\r\n    }\r\n\r\n    /*\r\n     * @dev Set new token URI String\r\n     */\r\n    function setURI(uint256 tokenId, string calldata _tokenURI)\r\n        external\r\n        returns (uint256)\r\n    {\r\n        require(\r\n            _isApprovedOrOwner(_msgSender(), tokenId),\r\n            \"AT:SURI:caller is not owner nor approved\"\r\n        );\r\n        //^^^^^^^checks^^^^^^^^^\r\n\r\n        _setTokenURI(tokenId, _tokenURI);\r\n        return tokenId;\r\n        //^^^^^^^interactions^^^^^^^^^\r\n    }\r\n\r\n    function validateNakedToken(\r\n        uint256 tokenId,\r\n        uint256 _assetClass,\r\n        string calldata _authCode\r\n    ) external view {\r\n        bytes32 _hashedAuthCode = keccak256(abi.encodePacked(_authCode));\r\n        bytes32 b32URI = keccak256(\r\n            abi.encodePacked(_hashedAuthCode, _assetClass)\r\n        );\r\n        string memory authString = uint256toString(uint256(b32URI));\r\n        string memory URI = tokenURI(tokenId);\r\n\r\n        require(\r\n            keccak256(abi.encodePacked(URI)) ==\r\n                keccak256(abi.encodePacked(authString)),\r\n            \"Supplied authCode and assetclass do not match token URI\"\r\n        );\r\n    }\r\n\r\n    /*\r\n     * @dev See if token exists\r\n     */\r\n    function tokenExists(uint256 tokenId) external view returns (uint8) {\r\n        if (_exists(tokenId)) {\r\n            return 170;\r\n        } else {\r\n            return 0;\r\n        }\r\n    }\r\n\r\n    /**\r\n     * @dev Transfers the ownership of a given token ID to another address.\r\n     * Usage of this method is discouraged, use {safeTransferFrom} whenever possible.\r\n     * Requires the msg.sender to be the owner, approved, or operator.\r\n     * @param from current owner of the token\r\n     * @param to address to receive the ownership of the given token ID\r\n     * @param tokenId uint256 ID of the token to be transferred\r\n     */\r\n    function transferFrom(\r\n        address from,\r\n        address to,\r\n        uint256 tokenId\r\n    ) public override nonReentrant {\r\n        bytes32 _idxHash = bytes32(tokenId);\r\n        Record memory rec = getRecord(_idxHash);\r\n\r\n        require(\r\n            rec.assetStatus != 70,\r\n            \"AT:TF:Use authAddressTransfer for status 70\"\r\n        );\r\n        require(\r\n            rec.assetStatus == 51,\r\n            \"AT:TF:Asset not in transferrable status\"\r\n        );\r\n        require(\r\n            _isApprovedOrOwner(_msgSender(), tokenId),\r\n            \"AT:TF:transfer caller is not owner nor approved\"\r\n        );\r\n        //^^^^^^^checks^^^^^^^^\r\n\r\n        rec.incrementNumberOfTransfers = 170;\r\n\r\n        rec\r\n            .rightsHolder = 0xFFFFFFFFFFFFFFFFFFFFFFFFFFFFFFFFFFFFFFFFFFFFFFFFFFFFFFFFFFFFFFFF;\r\n        //^^^^^^^effects^^^^^^^^^\r\n\r\n        writeRecord(_idxHash, rec);\r\n        _transfer(from, to, tokenId);\r\n        //^^^^^^^interactions^^^^^^^^^\r\n    }\r\n\r\n    /**\r\n     * @dev Safely transfers the ownership of a given token ID to another address\r\n     * If the target address is a contract, it must implement {IERC721Receiver-onERC721Received},\r\n     * which is called upon a safe transfer, and return the magic value\r\n     * `bytes4(keccak256(\"onERC721Received(address,address,uint256,bytes)\"))`; otherwise,\r\n     * the transfer is reverted.\r\n     * Requires the msg.sender to be the owner, approved, or operator\r\n     * @param from current owner of the token\r\n     * @param to address to receive the ownership of the given token ID\r\n     * @param tokenId uint256 ID of the token to be transferred\r\n     */\r\n    function safeTransferFrom(\r\n        address from,\r\n        address to,\r\n        uint256 tokenId\r\n    ) public override {\r\n        //bytes32 _idxHash = bytes32(tokenId);\r\n        //Record memory rec = getRecord(_idxHash);\r\n\r\n        //^^^^^^^checks^^^^^^^^^\r\n\r\n        // rec\r\n        //     .rightsHolder = 0xFFFFFFFFFFFFFFFFFFFFFFFFFFFFFFFFFFFFFFFFFFFFFFFFFFFFFFFFFFFFFFFF;\r\n        //^^^^^^^effects^^^^^^^^^\r\n\r\n        //writeRecord(_idxHash, rec);\r\n        safeTransferFrom(from, to, tokenId, \"\");\r\n        //^^^^^^^interactions^^^^^^^^^\r\n    }\r\n\r\n    /**\r\n     * @dev Safely transfers the ownership of a given token ID to another address\r\n     * If the target address is a contract, it must implement {IERC721Receiver-onERC721Received},\r\n     * which is called upon a safe transfer, and return the magic value\r\n     * `bytes4(keccak256(\"onERC721Received(address,address,uint256,bytes)\"))`; otherwise,\r\n     * the transfer is reverted.\r\n     * Requires the _msgSender() to be the owner, approved, or operator\r\n     * @param from current owner of the token\r\n     * @param to address to receive the ownership of the given token ID\r\n     * @param tokenId uint256 ID of the token to be transferred\r\n     * @param _data bytes data to send along with a safe transfer check\r\n     */\r\n    function safeTransferFrom(\r\n        address from,\r\n        address to,\r\n        uint256 tokenId,\r\n        bytes memory _data\r\n    ) public virtual override nonReentrant {\r\n        bytes32 _idxHash = bytes32(tokenId);\r\n        Record memory rec = getRecord(_idxHash);\r\n        (uint8 isAuth, ) = STOR.ContractInfoHash(to, 0); // trailing comma because does not use the returned hash\r\n\r\n        require( // ensure that status 70 assets are only sent to an actual PRUF contract\r\n            (rec.assetStatus != 70) || (isAuth > 0),\r\n            \"AT:STF:Cannot send status 70 asset to unauthorized address\"\r\n        );\r\n        require(\r\n            (rec.assetStatus == 51) || (rec.assetStatus == 70),\r\n            \"AT:STF:Asset not in transferrable status\"\r\n        );\r\n        require(\r\n            to != address(0),\r\n            \"AT:STF:Cannot transfer asset to zero adress. Use discard.\"\r\n        );\r\n        require(\r\n            _isApprovedOrOwner(_msgSender(), tokenId),\r\n            \"AT:STF: transfer caller is not owner nor approved\"\r\n        );\r\n        //^^^^^^^checks^^^^^^^^^\r\n\r\n        rec.incrementNumberOfTransfers = 170;\r\n\r\n        rec\r\n            .rightsHolder = 0xFFFFFFFFFFFFFFFFFFFFFFFFFFFFFFFFFFFFFFFFFFFFFFFFFFFFFFFFFFFFFFFF;\r\n        //^^^^^^^effects^^^^^^^^^\r\n\r\n        writeRecord(_idxHash, rec);\r\n        _safeTransfer(from, to, tokenId, _data);\r\n        //^^^^^^^interactions^^^^^^^^^\r\n    }\r\n\r\n    /**\r\n     * @dev Safely burns a token and sets the corresponding RGT to zero in storage.\r\n     */\r\n    function discard(uint256 tokenId) external nonReentrant {\r\n        bytes32 _idxHash = bytes32(tokenId);\r\n        Record memory rec = getRecord(_idxHash);\r\n\r\n        require(_exists(tokenId), \"AT:D:Cannot discard nonexistant token\");\r\n        require(\r\n            (rec.assetStatus == 59),\r\n            \"AT:D:Asset must be in status 59 (discardable) to be discarded\"\r\n        );\r\n        require(\r\n            _isApprovedOrOwner(_msgSender(), tokenId),\r\n            \"AT:D:transfer caller is not owner nor approved\"\r\n        );\r\n        //^^^^^^^checks^^^^^^^^^\r\n        RCLR.discard(_idxHash);\r\n        _burn(tokenId);\r\n        //^^^^^^^interactions^^^^^^^^^\r\n    }\r\n\r\n    /*\r\n     * @dev Write a Record to Storage @ idxHash\r\n     */\r\n    function writeRecord(bytes32 _idxHash, Record memory _rec) private {\r\n        //^^^^^^^checks^^^^^^^^^\r\n        //bytes32 userHash = keccak256(abi.encodePacked(msg.sender)); // Get a userhash for authentication and recorder logging\r\n        //^^^^^^^effects^^^^^^^^^\r\n        STOR.modifyRecord(\r\n            //userHash,\r\n            _idxHash,\r\n            _rec.rightsHolder,\r\n            _rec.assetStatus,\r\n            _rec.countDown,\r\n            _rec.incrementForceModCount,\r\n            _rec.incrementNumberOfTransfers\r\n        ); // Send data and writehash to storage\r\n        //^^^^^^^interactions^^^^^^^^^\r\n    }\r\n\r\n    /*\r\n     * @dev Get a Record from Storage @ idxHash\r\n     */\r\n    function getRecord(bytes32 _idxHash) private returns (Record memory) {\r\n        Record memory rec;\r\n        //^^^^^^^checks^^^^^^^^^\r\n\r\n        {\r\n            //Start of scope limit for stack depth\r\n            (\r\n                //bytes32 _recorder,\r\n                bytes32 _rightsHolder,\r\n                //bytes32 _lastRecorder,\r\n                uint8 _assetStatus,\r\n                uint256 _assetClass,\r\n                uint256 _countDown,\r\n                uint256 _countDownStart,\r\n                bytes32 _Ipfs1,\r\n                bytes32 _Ipfs2\r\n            ) = STOR.retrieveRecord(_idxHash); // Get record from storage contract\r\n\r\n            //rec.recorder = _recorder;\r\n            rec.rightsHolder = _rightsHolder;\r\n            //rec.lastRecorder = _lastRecorder;\r\n            rec.assetStatus = _assetStatus;\r\n            rec.assetClass = _assetClass;\r\n            rec.countDown = _countDown;\r\n            rec.countDownStart = _countDownStart;\r\n            rec.Ipfs1 = _Ipfs1;\r\n            rec.Ipfs2 = _Ipfs2;\r\n        } //end of scope limit for stack depth\r\n\r\n        return (rec); // Returns Record struct rec\r\n        //^^^^^^^interactions^^^^^^^^^\r\n    }\r\n\r\n    function uint256toString(uint256 number)\r\n        public\r\n        pure\r\n        returns (string memory)\r\n    {\r\n        // Inspired by OraclizeAPI's implementation - MIT licence\r\n        // https://github.com/oraclize/ethereum-api/blob/b42146b063c7d6ee1358846c198246239e9360e8/oraclizeAPI_0.4.25.sol\r\n        // shamelessly jacked straight outa OpenZepplin  openzepplin.org\r\n\r\n        if (number == 0) {\r\n            return \"0\";\r\n        }\r\n        uint256 temp = number;\r\n        uint256 digits;\r\n        while (temp != 0) {\r\n            digits++;\r\n            temp /= 10;\r\n        }\r\n        bytes memory buffer = new bytes(digits);\r\n        uint256 index = digits - 1;\r\n        temp = number;\r\n        while (temp != 0) {\r\n            buffer[index--] = bytes1(uint8(48 + (temp % 10)));\r\n            temp /= 10;\r\n        }\r\n        return string(buffer);\r\n    }\r\n}\r\n",
  "sourcePath": "C:\\Users\\Blayde\\Documents\\ETHDEV\\bulletproof\\PRUF_TRUFFLE\\contracts\\PRUF_A_TKN.sol",
  "compiler": {
    "name": "solc",
    "version": "0.6.9+commit.3e3065ac.Emscripten.clang"
  },
  "schemaVersion": "3.0.23",
  "updatedAt": "2020-08-20T17:17:06.196Z",
  "devdoc": {
    "methods": {
      "approve(address,uint256)": {
        "details": "See {IERC721-approve}."
      },
      "balanceOf(address)": {
        "details": "See {IERC721-balanceOf}."
      },
      "baseURI()": {
        "details": "Returns the base URI set via {_setBaseURI}. This will be automatically added as a prefix in {tokenURI} to each token's URI, or to the token ID if no specific URI is set for that token ID."
      },
      "discard(uint256)": {
        "details": "Safely burns a token and sets the corresponding RGT to zero in storage."
      },
      "getApproved(uint256)": {
        "details": "See {IERC721-getApproved}."
      },
      "isApprovedForAll(address,address)": {
        "details": "See {IERC721-isApprovedForAll}."
      },
      "name()": {
        "details": "See {IERC721Metadata-name}."
      },
      "owner()": {
        "details": "Returns the address of the current owner."
      },
      "ownerOf(uint256)": {
        "details": "See {IERC721-ownerOf}."
      },
      "renounceOwnership()": {
        "details": "Leaves the contract without owner. It will not be possible to call `onlyOwner` functions anymore. Can only be called by the current owner. NOTE: Renouncing ownership will leave the contract without an owner, thereby removing any functionality that is only available to the owner."
      },
      "safeTransferFrom(address,address,uint256)": {
        "details": "Safely transfers the ownership of a given token ID to another address If the target address is a contract, it must implement {IERC721Receiver-onERC721Received}, which is called upon a safe transfer, and return the magic value `bytes4(keccak256(\"onERC721Received(address,address,uint256,bytes)\"))`; otherwise, the transfer is reverted. Requires the msg.sender to be the owner, approved, or operator",
        "params": {
          "from": "current owner of the token",
          "to": "address to receive the ownership of the given token ID",
          "tokenId": "uint256 ID of the token to be transferred"
        }
      },
      "safeTransferFrom(address,address,uint256,bytes)": {
        "details": "Safely transfers the ownership of a given token ID to another address If the target address is a contract, it must implement {IERC721Receiver-onERC721Received}, which is called upon a safe transfer, and return the magic value `bytes4(keccak256(\"onERC721Received(address,address,uint256,bytes)\"))`; otherwise, the transfer is reverted. Requires the _msgSender() to be the owner, approved, or operator",
        "params": {
          "_data": "bytes data to send along with a safe transfer check",
          "from": "current owner of the token",
          "to": "address to receive the ownership of the given token ID",
          "tokenId": "uint256 ID of the token to be transferred"
        }
      },
      "setApprovalForAll(address,bool)": {
        "details": "See {IERC721-setApprovalForAll}."
      },
      "supportsInterface(bytes4)": {
        "details": "See {IERC165-supportsInterface}. Time complexity O(1), guaranteed to always use less than 30 000 gas."
      },
      "symbol()": {
        "details": "See {IERC721Metadata-symbol}."
      },
      "tokenByIndex(uint256)": {
        "details": "See {IERC721Enumerable-tokenByIndex}."
      },
      "tokenOfOwnerByIndex(address,uint256)": {
        "details": "See {IERC721Enumerable-tokenOfOwnerByIndex}."
      },
      "tokenURI(uint256)": {
        "details": "See {IERC721Metadata-tokenURI}."
      },
      "totalSupply()": {
        "details": "See {IERC721Enumerable-totalSupply}."
      },
      "transferFrom(address,address,uint256)": {
        "details": "Transfers the ownership of a given token ID to another address. Usage of this method is discouraged, use {safeTransferFrom} whenever possible. Requires the msg.sender to be the owner, approved, or operator.",
        "params": {
          "from": "current owner of the token",
          "to": "address to receive the ownership of the given token ID",
          "tokenId": "uint256 ID of the token to be transferred"
        }
      },
      "transferOwnership(address)": {
        "details": "Transfers ownership of the contract to a new account (`newOwner`). Can only be called by the current owner."
      }
    }
  },
  "userdoc": {
    "methods": {}
  }
}