{
  "contractName": "A_TKN",
  "abi": [
    {
      "inputs": [],
      "stateMutability": "nonpayable",
      "type": "constructor"
    },
    {
      "anonymous": false,
      "inputs": [
        {
          "indexed": true,
          "internalType": "address",
          "name": "owner",
          "type": "address"
        },
        {
          "indexed": true,
          "internalType": "address",
          "name": "approved",
          "type": "address"
        },
        {
          "indexed": true,
          "internalType": "uint256",
          "name": "tokenId",
          "type": "uint256"
        }
      ],
      "name": "Approval",
      "type": "event"
    },
    {
      "anonymous": false,
      "inputs": [
        {
          "indexed": true,
          "internalType": "address",
          "name": "owner",
          "type": "address"
        },
        {
          "indexed": true,
          "internalType": "address",
          "name": "operator",
          "type": "address"
        },
        {
          "indexed": false,
          "internalType": "bool",
          "name": "approved",
          "type": "bool"
        }
      ],
      "name": "ApprovalForAll",
      "type": "event"
    },
    {
      "anonymous": false,
      "inputs": [
        {
          "indexed": false,
          "internalType": "address",
          "name": "account",
          "type": "address"
        }
      ],
      "name": "Paused",
      "type": "event"
    },
    {
      "anonymous": false,
      "inputs": [
        {
          "indexed": false,
          "internalType": "string",
          "name": "_msg",
          "type": "string"
        }
      ],
      "name": "REPORT",
      "type": "event"
    },
    {
      "anonymous": false,
      "inputs": [
        {
          "indexed": true,
          "internalType": "bytes32",
          "name": "role",
          "type": "bytes32"
        },
        {
          "indexed": true,
          "internalType": "bytes32",
          "name": "previousAdminRole",
          "type": "bytes32"
        },
        {
          "indexed": true,
          "internalType": "bytes32",
          "name": "newAdminRole",
          "type": "bytes32"
        }
      ],
      "name": "RoleAdminChanged",
      "type": "event"
    },
    {
      "anonymous": false,
      "inputs": [
        {
          "indexed": true,
          "internalType": "bytes32",
          "name": "role",
          "type": "bytes32"
        },
        {
          "indexed": true,
          "internalType": "address",
          "name": "account",
          "type": "address"
        },
        {
          "indexed": true,
          "internalType": "address",
          "name": "sender",
          "type": "address"
        }
      ],
      "name": "RoleGranted",
      "type": "event"
    },
    {
      "anonymous": false,
      "inputs": [
        {
          "indexed": true,
          "internalType": "bytes32",
          "name": "role",
          "type": "bytes32"
        },
        {
          "indexed": true,
          "internalType": "address",
          "name": "account",
          "type": "address"
        },
        {
          "indexed": true,
          "internalType": "address",
          "name": "sender",
          "type": "address"
        }
      ],
      "name": "RoleRevoked",
      "type": "event"
    },
    {
      "anonymous": false,
      "inputs": [
        {
          "indexed": true,
          "internalType": "address",
          "name": "from",
          "type": "address"
        },
        {
          "indexed": true,
          "internalType": "address",
          "name": "to",
          "type": "address"
        },
        {
          "indexed": true,
          "internalType": "uint256",
          "name": "tokenId",
          "type": "uint256"
        }
      ],
      "name": "Transfer",
      "type": "event"
    },
    {
      "anonymous": false,
      "inputs": [
        {
          "indexed": false,
          "internalType": "address",
          "name": "account",
          "type": "address"
        }
      ],
      "name": "Unpaused",
      "type": "event"
    },
    {
      "inputs": [],
      "name": "B320xF_",
      "outputs": [
        {
          "internalType": "bytes32",
          "name": "",
          "type": "bytes32"
        }
      ],
      "stateMutability": "view",
      "type": "function"
    },
    {
      "inputs": [],
      "name": "CONTRACT_ADMIN_ROLE",
      "outputs": [
        {
          "internalType": "bytes32",
          "name": "",
          "type": "bytes32"
        }
      ],
      "stateMutability": "view",
      "type": "function"
    },
    {
      "inputs": [],
      "name": "DEFAULT_ADMIN_ROLE",
      "outputs": [
        {
          "internalType": "bytes32",
          "name": "",
          "type": "bytes32"
        }
      ],
      "stateMutability": "view",
      "type": "function"
    },
    {
      "inputs": [],
      "name": "MINTER_ROLE",
      "outputs": [
        {
          "internalType": "bytes32",
          "name": "",
          "type": "bytes32"
        }
      ],
      "stateMutability": "view",
      "type": "function"
    },
    {
      "inputs": [],
      "name": "PAUSER_ROLE",
      "outputs": [
        {
          "internalType": "bytes32",
          "name": "",
          "type": "bytes32"
        }
      ],
      "stateMutability": "view",
      "type": "function"
    },
    {
      "inputs": [
        {
          "internalType": "address",
          "name": "to",
          "type": "address"
        },
        {
          "internalType": "uint256",
          "name": "tokenId",
          "type": "uint256"
        }
      ],
      "name": "approve",
      "outputs": [],
      "stateMutability": "nonpayable",
      "type": "function"
    },
    {
      "inputs": [
        {
          "internalType": "address",
          "name": "owner",
          "type": "address"
        }
      ],
      "name": "balanceOf",
      "outputs": [
        {
          "internalType": "uint256",
          "name": "",
          "type": "uint256"
        }
      ],
      "stateMutability": "view",
      "type": "function"
    },
    {
      "inputs": [],
      "name": "baseURI",
      "outputs": [
        {
          "internalType": "string",
          "name": "",
          "type": "string"
        }
      ],
      "stateMutability": "view",
      "type": "function"
    },
    {
      "inputs": [
        {
          "internalType": "uint256",
          "name": "tokenId",
          "type": "uint256"
        }
      ],
      "name": "burn",
      "outputs": [],
      "stateMutability": "nonpayable",
      "type": "function"
    },
    {
      "inputs": [
        {
          "internalType": "uint256",
          "name": "tokenId",
          "type": "uint256"
        }
      ],
      "name": "getApproved",
      "outputs": [
        {
          "internalType": "address",
          "name": "",
          "type": "address"
        }
      ],
      "stateMutability": "view",
      "type": "function"
    },
    {
      "inputs": [
        {
          "internalType": "bytes32",
          "name": "role",
          "type": "bytes32"
        }
      ],
      "name": "getRoleAdmin",
      "outputs": [
        {
          "internalType": "bytes32",
          "name": "",
          "type": "bytes32"
        }
      ],
      "stateMutability": "view",
      "type": "function"
    },
    {
      "inputs": [
        {
          "internalType": "bytes32",
          "name": "role",
          "type": "bytes32"
        },
        {
          "internalType": "uint256",
          "name": "index",
          "type": "uint256"
        }
      ],
      "name": "getRoleMember",
      "outputs": [
        {
          "internalType": "address",
          "name": "",
          "type": "address"
        }
      ],
      "stateMutability": "view",
      "type": "function"
    },
    {
      "inputs": [
        {
          "internalType": "bytes32",
          "name": "role",
          "type": "bytes32"
        }
      ],
      "name": "getRoleMemberCount",
      "outputs": [
        {
          "internalType": "uint256",
          "name": "",
          "type": "uint256"
        }
      ],
      "stateMutability": "view",
      "type": "function"
    },
    {
      "inputs": [
        {
          "internalType": "bytes32",
          "name": "role",
          "type": "bytes32"
        },
        {
          "internalType": "address",
          "name": "account",
          "type": "address"
        }
      ],
      "name": "grantRole",
      "outputs": [],
      "stateMutability": "nonpayable",
      "type": "function"
    },
    {
      "inputs": [
        {
          "internalType": "bytes32",
          "name": "role",
          "type": "bytes32"
        },
        {
          "internalType": "address",
          "name": "account",
          "type": "address"
        }
      ],
      "name": "hasRole",
      "outputs": [
        {
          "internalType": "bool",
          "name": "",
          "type": "bool"
        }
      ],
      "stateMutability": "view",
      "type": "function"
    },
    {
      "inputs": [
        {
          "internalType": "address",
          "name": "owner",
          "type": "address"
        },
        {
          "internalType": "address",
          "name": "operator",
          "type": "address"
        }
      ],
      "name": "isApprovedForAll",
      "outputs": [
        {
          "internalType": "bool",
          "name": "",
          "type": "bool"
        }
      ],
      "stateMutability": "view",
      "type": "function"
    },
    {
      "inputs": [],
      "name": "name",
      "outputs": [
        {
          "internalType": "string",
          "name": "",
          "type": "string"
        }
      ],
      "stateMutability": "view",
      "type": "function"
    },
    {
      "inputs": [
        {
          "internalType": "uint256",
          "name": "tokenId",
          "type": "uint256"
        }
      ],
      "name": "ownerOf",
      "outputs": [
        {
          "internalType": "address",
          "name": "",
          "type": "address"
        }
      ],
      "stateMutability": "view",
      "type": "function"
    },
    {
      "inputs": [],
      "name": "paused",
      "outputs": [
        {
          "internalType": "bool",
          "name": "",
          "type": "bool"
        }
      ],
      "stateMutability": "view",
      "type": "function"
    },
    {
      "inputs": [
        {
          "internalType": "bytes32",
          "name": "role",
          "type": "bytes32"
        },
        {
          "internalType": "address",
          "name": "account",
          "type": "address"
        }
      ],
      "name": "renounceRole",
      "outputs": [],
      "stateMutability": "nonpayable",
      "type": "function"
    },
    {
      "inputs": [
        {
          "internalType": "bytes32",
          "name": "role",
          "type": "bytes32"
        },
        {
          "internalType": "address",
          "name": "account",
          "type": "address"
        }
      ],
      "name": "revokeRole",
      "outputs": [],
      "stateMutability": "nonpayable",
      "type": "function"
    },
    {
      "inputs": [
        {
          "internalType": "address",
          "name": "operator",
          "type": "address"
        },
        {
          "internalType": "bool",
          "name": "approved",
          "type": "bool"
        }
      ],
      "name": "setApprovalForAll",
      "outputs": [],
      "stateMutability": "nonpayable",
      "type": "function"
    },
    {
      "inputs": [
        {
          "internalType": "bytes4",
          "name": "interfaceId",
          "type": "bytes4"
        }
      ],
      "name": "supportsInterface",
      "outputs": [
        {
          "internalType": "bool",
          "name": "",
          "type": "bool"
        }
      ],
      "stateMutability": "view",
      "type": "function"
    },
    {
      "inputs": [],
      "name": "symbol",
      "outputs": [
        {
          "internalType": "string",
          "name": "",
          "type": "string"
        }
      ],
      "stateMutability": "view",
      "type": "function"
    },
    {
      "inputs": [
        {
          "internalType": "uint256",
          "name": "index",
          "type": "uint256"
        }
      ],
      "name": "tokenByIndex",
      "outputs": [
        {
          "internalType": "uint256",
          "name": "",
          "type": "uint256"
        }
      ],
      "stateMutability": "view",
      "type": "function"
    },
    {
      "inputs": [
        {
          "internalType": "address",
          "name": "owner",
          "type": "address"
        },
        {
          "internalType": "uint256",
          "name": "index",
          "type": "uint256"
        }
      ],
      "name": "tokenOfOwnerByIndex",
      "outputs": [
        {
          "internalType": "uint256",
          "name": "",
          "type": "uint256"
        }
      ],
      "stateMutability": "view",
      "type": "function"
    },
    {
      "inputs": [
        {
          "internalType": "uint256",
          "name": "tokenId",
          "type": "uint256"
        }
      ],
      "name": "tokenURI",
      "outputs": [
        {
          "internalType": "string",
          "name": "",
          "type": "string"
        }
      ],
      "stateMutability": "view",
      "type": "function"
    },
    {
      "inputs": [],
      "name": "totalSupply",
      "outputs": [
        {
          "internalType": "uint256",
          "name": "",
          "type": "uint256"
        }
      ],
      "stateMutability": "view",
      "type": "function"
    },
    {
      "inputs": [
        {
          "internalType": "address",
          "name": "_storageAddress",
          "type": "address"
        }
      ],
      "name": "OO_setStorageContract",
      "outputs": [],
      "stateMutability": "nonpayable",
      "type": "function"
    },
    {
      "inputs": [],
      "name": "OO_resolveContractAddresses",
      "outputs": [],
      "stateMutability": "nonpayable",
      "type": "function"
    },
    {
      "inputs": [
        {
          "internalType": "address",
          "name": "_recipientAddress",
          "type": "address"
        },
        {
          "internalType": "uint256",
          "name": "tokenId",
          "type": "uint256"
        },
        {
          "internalType": "string",
          "name": "_tokenURI",
          "type": "string"
        }
      ],
      "name": "mintAssetToken",
      "outputs": [
        {
          "internalType": "uint256",
          "name": "",
          "type": "uint256"
        }
      ],
      "stateMutability": "nonpayable",
      "type": "function"
    },
    {
      "inputs": [
        {
          "internalType": "uint256",
          "name": "tokenId",
          "type": "uint256"
        },
        {
          "internalType": "string",
          "name": "_tokenURI",
          "type": "string"
        }
      ],
      "name": "setURI",
      "outputs": [
        {
          "internalType": "uint256",
          "name": "",
          "type": "uint256"
        }
      ],
      "stateMutability": "nonpayable",
      "type": "function"
    },
    {
      "inputs": [
        {
          "internalType": "uint256",
          "name": "tokenId",
          "type": "uint256"
        },
        {
          "internalType": "uint32",
          "name": "_assetClass",
          "type": "uint32"
        },
        {
          "internalType": "string",
          "name": "_authCode",
          "type": "string"
        }
      ],
      "name": "validatePipToken",
      "outputs": [],
      "stateMutability": "view",
      "type": "function"
    },
    {
      "inputs": [
        {
          "internalType": "uint256",
          "name": "tokenId",
          "type": "uint256"
        }
      ],
      "name": "tokenExists",
      "outputs": [
        {
          "internalType": "uint8",
          "name": "",
          "type": "uint8"
        }
      ],
      "stateMutability": "view",
      "type": "function"
    },
    {
      "inputs": [
        {
          "internalType": "address",
          "name": "from",
          "type": "address"
        },
        {
          "internalType": "address",
          "name": "to",
          "type": "address"
        },
        {
          "internalType": "uint256",
          "name": "tokenId",
          "type": "uint256"
        }
      ],
      "name": "transferFrom",
      "outputs": [],
      "stateMutability": "nonpayable",
      "type": "function"
    },
    {
      "inputs": [
        {
          "internalType": "address",
          "name": "from",
          "type": "address"
        },
        {
          "internalType": "address",
          "name": "to",
          "type": "address"
        },
        {
          "internalType": "uint256",
          "name": "tokenId",
          "type": "uint256"
        }
      ],
      "name": "safeTransferFrom",
      "outputs": [],
      "stateMutability": "nonpayable",
      "type": "function"
    },
    {
      "inputs": [
        {
          "internalType": "address",
          "name": "from",
          "type": "address"
        },
        {
          "internalType": "address",
          "name": "to",
          "type": "address"
        },
        {
          "internalType": "uint256",
          "name": "tokenId",
          "type": "uint256"
        },
        {
          "internalType": "bytes",
          "name": "_data",
          "type": "bytes"
        }
      ],
      "name": "safeTransferFrom",
      "outputs": [],
      "stateMutability": "nonpayable",
      "type": "function"
    },
    {
      "inputs": [
        {
          "internalType": "uint256",
          "name": "tokenId",
          "type": "uint256"
        }
      ],
      "name": "discard",
      "outputs": [],
      "stateMutability": "nonpayable",
      "type": "function"
    },
    {
      "inputs": [
        {
          "internalType": "uint256",
          "name": "number",
          "type": "uint256"
        }
      ],
      "name": "uint256toString",
      "outputs": [
        {
          "internalType": "string",
          "name": "",
          "type": "string"
        }
      ],
      "stateMutability": "pure",
      "type": "function"
    },
    {
      "inputs": [],
      "name": "pause",
      "outputs": [],
      "stateMutability": "nonpayable",
      "type": "function"
    },
    {
      "inputs": [],
      "name": "unpause",
      "outputs": [],
      "stateMutability": "nonpayable",
      "type": "function"
    }
  ],
  "bytecode": "0x60806040523480156200001157600080fd5b506040805180820182526011815270282961de231020b9b9b2ba102a37b5b2b760791b602080830191909152825180840190935260048352631414905560e21b908301526001600055906200006d6301ffc9a760e01b62000184565b8151620000829060089060208501906200031f565b508051620000989060099060208401906200031f565b50620000ab6380ac58cd60e01b62000184565b620000bd635b5e139f60e01b62000184565b620000cf63780e9d6360e01b62000184565b5050600c805460ff19169055620000f16000620000eb62000209565b6200020d565b620001207f2ce8d04a9c35987429af538825cd2438cc5c5bb5dc427955f84daaa3ea105016620000eb62000209565b6200014f7f9f2df0fed2c77648de5860a4cc508cd0818c85b8b8a1ab4ceeef8d981c8956a6620000eb62000209565b6200017e7f65d7a28e3265b37a6474929f336521b332c1681b933f6cb9f3376673440d862a620000eb62000209565b620003bb565b6001600160e01b03198082161415620001e4576040805162461bcd60e51b815260206004820152601c60248201527f4552433136353a20696e76616c696420696e7465726661636520696400000000604482015290519081900360640190fd5b6001600160e01b0319166000908152600260205260409020805460ff19166001179055565b3390565b6200021982826200021d565b5050565b60008281526001602090815260409091206200024491839062001fc562000298821b17901c565b1562000219576200025462000209565b6001600160a01b0316816001600160a01b0316837f2f8788117e7eff1d82e926ec794901d17c78024a50270940304540a733656f0d60405160405180910390a45050565b6000620002af836001600160a01b038416620002b8565b90505b92915050565b6000620002c6838362000307565b620002fe57508154600181810184556000848152602080822090930184905584548482528286019093526040902091909155620002b2565b506000620002b2565b60009081526001919091016020526040902054151590565b828054600181600116156101000203166002900490600052602060002090601f016020900481019282601f106200036257805160ff191683800117855562000392565b8280016001018555821562000392579182015b828111156200039257825182559160200191906001019062000375565b50620003a0929150620003a4565b5090565b5b80821115620003a05760008155600101620003a5565b613a3c80620003cb6000396000f3fe608060405234801561001057600080fd5b50600436106102525760003560e01c80636352211e11610146578063a22cb465116100c3578063d539139311610087578063d5391393146108ba578063d547741f146108c2578063d6b02ecf146108ee578063e63ab1e914610914578063e8b416531461091c578063e985e9c51461092457610252565b8063a22cb46514610771578063b88d4fde1461079f578063c87b56dd14610863578063ca15c87314610880578063ca5163411461089d57610252565b8063862440e21161010a578063862440e21461069d5780639010d07c1461071257806391d148541461073557806395d89b4114610761578063a217fddf1461076957610252565b80636352211e1461062d5780636c0360eb1461064a57806370a08231146106525780637e8f2b0c146106785780638456cb591461069557610252565b80632f745c59116101d457806342842e0e1161019857806342842e0e1461053257806342966c68146105685780634f6ccce71461058557806354a19c2b146105a25780635c975abb1461062557610252565b80632f745c591461044a57806336568abe146104765780633a3b973f146104a25780633b21fd68146105225780633f4ba83a1461052a57610252565b806318160ddd1161021b57806318160ddd146103a95780631da03312146103c357806323b872dd146103cb578063248a9ca3146104015780632f2ff15d1461041e57610252565b8062923f9e1461025757806301ffc9a71461028a57806306fdde03146102c5578063081812fc14610342578063095ea7b31461037b575b600080fd5b6102746004803603602081101561026d57600080fd5b5035610952565b6040805160ff9092168252519081900360200190f35b6102b1600480360360208110156102a057600080fd5b50356001600160e01b031916610973565b604080519115158252519081900360200190f35b6102cd610992565b6040805160208082528351818301528351919283929083019185019080838360005b838110156103075781810151838201526020016102ef565b50505050905090810190601f1680156103345780820380516001836020036101000a031916815260200191505b509250505060405180910390f35b61035f6004803603602081101561035857600080fd5b5035610a28565b604080516001600160a01b039092168252519081900360200190f35b6103a76004803603604081101561039157600080fd5b506001600160a01b038135169060200135610a8a565b005b6103b1610b65565b60408051918252519081900360200190f35b6103b1610b76565b6103a7600480360360608110156103e157600080fd5b506001600160a01b03813581169160208101359091169060400135610b9a565b6103b16004803603602081101561041757600080fd5b5035610d04565b6103a76004803603604081101561043457600080fd5b50803590602001356001600160a01b0316610d19565b6103b16004803603604081101561046057600080fd5b506001600160a01b038135169060200135610d85565b6103a76004803603604081101561048c57600080fd5b50803590602001356001600160a01b0316610db0565b6103a7600480360360608110156104b857600080fd5b81359163ffffffff60208201351691810190606081016040820135600160201b8111156104e457600080fd5b8201836020820111156104f657600080fd5b803590602001918460018302840111600160201b8311171561051757600080fd5b509092509050610e11565b6103b1610fc0565b6103a7610fc6565b6103a76004803603606081101561054857600080fd5b506001600160a01b03813581169160208101359091169060400135611037565b6103a76004803603602081101561057e57600080fd5b5035611052565b6103b16004803603602081101561059b57600080fd5b50356110aa565b6103b1600480360360608110156105b857600080fd5b6001600160a01b0382351691602081013591810190606081016040820135600160201b8111156105e757600080fd5b8201836020820111156105f957600080fd5b803590602001918460018302840111600160201b8311171561061a57600080fd5b5090925090506110c0565b6102b16111cb565b61035f6004803603602081101561064357600080fd5b50356111d4565b6102cd6111fc565b6103b16004803603602081101561066857600080fd5b50356001600160a01b031661125d565b6103a76004803603602081101561068e57600080fd5b50356112c5565b6103a7611432565b6103b1600480360360408110156106b357600080fd5b81359190810190604081016020820135600160201b8111156106d457600080fd5b8201836020820111156106e657600080fd5b803590602001918460018302840111600160201b8311171561070757600080fd5b5090925090506114a1565b61035f6004803603604081101561072857600080fd5b5080359060200135611539565b6102b16004803603604081101561074b57600080fd5b50803590602001356001600160a01b0316611551565b6102cd611569565b6103b16115ca565b6103a76004803603604081101561078757600080fd5b506001600160a01b03813516906020013515156115cf565b6103a7600480360360808110156107b557600080fd5b6001600160a01b03823581169260208101359091169160408201359190810190608081016060820135600160201b8111156107ef57600080fd5b82018360208201111561080157600080fd5b803590602001918460018302840111600160201b8311171561082257600080fd5b91908080601f0160208091040260200160405190810160405280939291908181526020018383808284376000920191909152509295506116d4945050505050565b6102cd6004803603602081101561087957600080fd5b503561196f565b6103b16004803603602081101561089657600080fd5b5035611c16565b6102cd600480360360208110156108b357600080fd5b5035611c2d565b6103b1611d08565b6103a7600480360360408110156108d857600080fd5b50803590602001356001600160a01b0316611d2c565b6103a76004803603602081101561090457600080fd5b50356001600160a01b0316611d85565b6103b1611e53565b6103a7611e77565b6102b16004803603604081101561093a57600080fd5b506001600160a01b0381358116916020013516611f97565b600061095d82611fda565b1561096a575060aa61096e565b5060005b919050565b6001600160e01b03191660009081526002602052604090205460ff1690565b60088054604080516020601f6002600019610100600188161502019095169490940493840181900481028201810190925282815260609390929091830182828015610a1e5780601f106109f357610100808354040283529160200191610a1e565b820191906000526020600020905b815481529060010190602001808311610a0157829003601f168201915b5050505050905090565b6000610a3382611fda565b610a6e5760405162461bcd60e51b815260040180806020018281038252602c815260200180613787602c913960400191505060405180910390fd5b506000908152600660205260409020546001600160a01b031690565b6000610a95826111d4565b9050806001600160a01b0316836001600160a01b03161415610ae85760405162461bcd60e51b81526004018080602001828103825260218152602001806138686021913960400191505060405180910390fd5b806001600160a01b0316610afa611fe7565b6001600160a01b03161480610b1b5750610b1b81610b16611fe7565b611f97565b610b565760405162461bcd60e51b81526004018080602001828103825260388152602001806136da6038913960400191505060405180910390fd5b610b608383611feb565b505050565b6000610b716004612059565b905090565b7f2ce8d04a9c35987429af538825cd2438cc5c5bb5dc427955f84daaa3ea10501681565b60026000541415610be0576040805162461bcd60e51b815260206004820152601f602482015260008051602061348b833981519152604482015290519081900360640190fd5b6002600055600c5460ff1615610c30576040805162461bcd60e51b815260206004820152601060248201526f14185d5cd8589b194e881c185d5cd95960821b604482015290519081900360640190fd5b80610c396132eb565b610c4282612064565b9050610c55610c4f611fe7565b846121e5565b610c905760405162461bcd60e51b815260040180806020018281038252602f815260200180613941602f913960400191505060405180910390fd5b806020015160ff16603314610cd65760405162461bcd60e51b815260040180806020018281038252602781526020018061361d6027913960400191505060405180910390fd5b60aa6101008201526000198152610ced8282612289565b610cf8858585612381565b50506001600055505050565b60009081526001602052604090206002015490565b600082815260016020526040902060020154610d3c90610d37611fe7565b611551565b610d775760405162461bcd60e51b815260040180806020018281038252602f81526020018061345c602f913960400191505060405180910390fd5b610d8182826124cd565b5050565b6001600160a01b0382166000908152600360205260408120610da79083612536565b90505b92915050565b610db8611fe7565b6001600160a01b0316816001600160a01b031614610e075760405162461bcd60e51b815260040180806020018281038252602f8152602001806139b0602f913960400191505060405180910390fd5b610d818282612542565b6000828260405160200180838380828437808301925050509250505060405160208183030381529060405280519060200120905060008185604051602001808381526020018263ffffffff1660e01b8152600401925050506040516020818303038152906040528051906020012090506060610e8f8260001c611c2d565b90506060610e9c8861196f565b9050816040516020018082805190602001908083835b60208310610ed15780518252601f199092019160209182019101610eb2565b6001836020036101000a03801982511681845116808217855250505050505090500191505060405160208183030381529060405280519060200120816040516020018082805190602001908083835b60208310610f3f5780518252601f199092019160209182019101610f20565b6001836020036101000a0380198251168184511680821785525050505050509050019150506040516020818303038152906040528051906020012014610fb65760405162461bcd60e51b815260040180806020018281038252603e8152602001806134ab603e913960400191505060405180910390fd5b5050505050505050565b60001981565b610ff27f65d7a28e3265b37a6474929f336521b332c1681b933f6cb9f3376673440d862a610d37611fe7565b61102d5760405162461bcd60e51b81526004018080602001828103825260408152602001806139706040913960400191505060405180910390fd5b6110356125ab565b565b610b60838383604051806020016040528060008152506116d4565b61106361105d611fe7565b826121e5565b61109e5760405162461bcd60e51b81526004018080602001828103825260308152602001806139116030913960400191505060405180910390fd5b6110a781612649565b50565b6000806110b8600484612716565b509392505050565b60006110ee7f9f2df0fed2c77648de5860a4cc508cd0818c85b8b8a1ab4ceeef8d981c8956a6610d37611fe7565b6111295760405162461bcd60e51b81526004018080602001828103825260358152602001806135e86035913960400191505060405180910390fd5b6002600054141561116f576040805162461bcd60e51b815260206004820152601f602482015260008051602061348b833981519152604482015290519081900360640190fd5b600260005561117e8585612732565b6111be8484848080601f01602080910402602001604051908101604052809392919081815260200183838082843760009201919091525061274c92505050565b5050600160005550919050565b600c5460ff1690565b6000610daa8260405180606001604052806029815260200161373c60299139600491906127af565b600b8054604080516020601f6002600019610100600188161502019095169490940493840181900481028201810190925282815260609390929091830182828015610a1e5780601f106109f357610100808354040283529160200191610a1e565b60006001600160a01b0382166112a45760405162461bcd60e51b815260040180806020018281038252602a815260200180613712602a913960400191505060405180910390fd5b6001600160a01b0382166000908152600360205260409020610daa90612059565b6002600054141561130b576040805162461bcd60e51b815260206004820152601f602482015260008051602061348b833981519152604482015290519081900360640190fd5b6002600055600c5460ff161561135b576040805162461bcd60e51b815260206004820152601060248201526f14185d5cd8589b194e881c185d5cd95960821b604482015290519081900360640190fd5b8061136d611367611fe7565b836121e5565b6113a85760405162461bcd60e51b815260040180806020018281038252602e81526020018061351b602e913960400191505060405180910390fd5b6011546001600160a01b031663c4567714826113c2611fe7565b6040518363ffffffff1660e01b815260040180838152602001826001600160a01b0316815260200192505050600060405180830381600087803b15801561140857600080fd5b505af115801561141c573d6000803e3d6000fd5b5050505061142982612649565b50506001600055565b61145e7f65d7a28e3265b37a6474929f336521b332c1681b933f6cb9f3376673440d862a610d37611fe7565b6114995760405162461bcd60e51b815260040180806020018281038252603e815260200180613549603e913960400191505060405180910390fd5b6110356127bc565b60006114b46114ae611fe7565b856121e5565b6114ef5760405162461bcd60e51b81526004018080602001828103825260288152602001806138e96028913960400191505060405180910390fd5b61152f8484848080601f01602080910402602001604051908101604052809392919081815260200183838082843760009201919091525061274c92505050565b50825b9392505050565b6000828152600160205260408120610da79083612536565b6000828152600160205260408120610da7908361283d565b60098054604080516020601f6002600019610100600188161502019095169490940493840181900481028201810190925282815260609390929091830182828015610a1e5780601f106109f357610100808354040283529160200191610a1e565b600081565b6115d7611fe7565b6001600160a01b0316826001600160a01b0316141561163d576040805162461bcd60e51b815260206004820152601960248201527f4552433732313a20617070726f766520746f2063616c6c657200000000000000604482015290519081900360640190fd5b806007600061164a611fe7565b6001600160a01b03908116825260208083019390935260409182016000908120918716808252919093529120805460ff19169215159290921790915561168e611fe7565b6001600160a01b03167f17307eab39ab6107e8899845ad3d59bd9653f200f220920489ca2b5937696c318360405180821515815260200191505060405180910390a35050565b6002600054141561171a576040805162461bcd60e51b815260206004820152601f602482015260008051602061348b833981519152604482015290519081900360640190fd5b6002600055600c5460ff161561176a576040805162461bcd60e51b815260206004820152601060248201526f14185d5cd8589b194e881c185d5cd95960821b604482015290519081900360640190fd5b816117736132eb565b61177c82612064565b60105460408051636fcfb49b60e11b81526001600160a01b03898116600483015260006024830181905283519596509493169263df9f693692604480840193919291829003018186803b1580156117d257600080fd5b505afa1580156117e6573d6000803e3d6000fd5b505050506040513d60408110156117fc57600080fd5b5051905061181161180b611fe7565b866121e5565b61184c5760405162461bcd60e51b81526004018080602001828103825260318152602001806138376031913960400191505060405180910390fd5b816020015160ff166046141580611866575060008160ff16115b6118a15760405162461bcd60e51b815260040180806020018281038252603a815260200180613889603a913960400191505060405180910390fd5b816020015160ff16603314806118be5750816020015160ff166046145b6118f95760405162461bcd60e51b81526004018080602001828103825260288152602001806139df6028913960400191505060405180910390fd5b6001600160a01b03861661193e5760405162461bcd60e51b815260040180806020018281038252603a815260200180613670603a913960400191505060405180910390fd5b60aa61010083015260001982526119558383612289565b61196187878787612852565b505060016000555050505050565b606061197a82611fda565b6119b55760405162461bcd60e51b815260040180806020018281038252602f815260200180613808602f913960400191505060405180910390fd5b6000828152600a602090815260409182902080548351601f6002600019610100600186161502019093169290920491820184900484028101840190945280845260609392830182828015611a4a5780601f10611a1f57610100808354040283529160200191611a4a565b820191906000526020600020905b815481529060010190602001808311611a2d57829003601f168201915b5050600b5493945050505060026000196101006001841615020190911604611a7357905061096e565b805115611b4457600b816040516020018083805460018160011615610100020316600290048015611adb5780601f10611ab9576101008083540402835291820191611adb565b820191906000526020600020905b815481529060010190602001808311611ac7575b5050825160208401908083835b60208310611b075780518252601f199092019160209182019101611ae8565b6001836020036101000a0380198251168184511680821785525050505050509050019250505060405160208183030381529060405291505061096e565b600b611b4f846128aa565b6040516020018083805460018160011615610100020316600290048015611bad5780601f10611b8b576101008083540402835291820191611bad565b820191906000526020600020905b815481529060010190602001808311611b99575b5050825160208401908083835b60208310611bd95780518252601f199092019160209182019101611bba565b6001836020036101000a03801982511681845116808217855250505050505090500192505050604051602081830303815290604052915050919050565b6000818152600160205260408120610daa90612059565b606081611c5257506040805180820190915260018152600360fc1b602082015261096e565b8160005b8115611c6a57600101600a82049150611c56565b60608167ffffffffffffffff81118015611c8357600080fd5b506040519080825280601f01601f191660200182016040528015611cae576020820181803683370190505b50859350905060001982015b8315611cff57600a840660300160f81b82828060019003935081518110611cdd57fe5b60200101906001600160f81b031916908160001a905350600a84049350611cba565b50949350505050565b7f9f2df0fed2c77648de5860a4cc508cd0818c85b8b8a1ab4ceeef8d981c8956a681565b600082815260016020526040902060020154611d4a90610d37611fe7565b610e075760405162461bcd60e51b81526004018080602001828103825260308152602001806136aa6030913960400191505060405180910390fd5b611db17f2ce8d04a9c35987429af538825cd2438cc5c5bb5dc427955f84daaa3ea105016610d37611fe7565b611dec5760405162461bcd60e51b815260040180806020018281038252603d815260200180613587603d913960400191505060405180910390fd5b6001600160a01b038116611e315760405162461bcd60e51b81526004018080602001828103825260268152602001806138c36026913960400191505060405180910390fd5b601080546001600160a01b0319166001600160a01b0392909216919091179055565b7f65d7a28e3265b37a6474929f336521b332c1681b933f6cb9f3376673440d862a81565b611ea37f2ce8d04a9c35987429af538825cd2438cc5c5bb5dc427955f84daaa3ea105016610d37611fe7565b611ede5760405162461bcd60e51b815260040180806020018281038252603d815260200180613587603d913960400191505060405180910390fd5b601054604080516363b8d4c160e11b8152602060048083018290526024830152632921a62960e11b604483015291516001600160a01b039093169263c771a98292606480840193919291829003018186803b158015611f3c57600080fd5b505afa158015611f50573d6000803e3d6000fd5b505050506040513d6020811015611f6657600080fd5b5051600f80546001600160a01b03199081166001600160a01b03938416179182905560118054929093169116179055565b6001600160a01b03918216600090815260076020908152604080832093909416825291909152205460ff1690565b6000610da7836001600160a01b03841661297c565b6000610daa6004836129c6565b3390565b600081815260066020526040902080546001600160a01b0319166001600160a01b0384169081179091558190612020826111d4565b6001600160a01b03167f8c5be1e5ebec7d5bd14f71427d1e84f3dd0314c0f7b2291e5b200ac8c7c3b92560405160405180910390a45050565b6000610daa826129d2565b61206c6132eb565b6120746132eb565b6000806000806000806000601060009054906101000a90046001600160a01b03166001600160a01b031663e248f2c48b6040518263ffffffff1660e01b81526004018082815260200191505060e06040518083038186803b1580156120d857600080fd5b505afa1580156120ec573d6000803e3d6000fd5b505050506040513d60e081101561210257600080fd5b810190808051906020019092919080519060200190929190805190602001909291908051906020019092919080519060200190929190805190602001909291908051906020019092919050505096509650965096509650965096508688600001818152505085886020019060ff16908160ff168152505084886060019063ffffffff16908163ffffffff168152505083886080019063ffffffff16908163ffffffff1681525050828860a0019063ffffffff16908163ffffffff1681525050818860c0018181525050808860e00181815250505050505050505080915050919050565b60006121f082611fda565b61222b5760405162461bcd60e51b815260040180806020018281038252602c815260200180613644602c913960400191505060405180910390fd5b6000612236836111d4565b9050806001600160a01b0316846001600160a01b031614806122715750836001600160a01b031661226684610a28565b6001600160a01b0316145b8061228157506122818185611f97565b949350505050565b600c5460ff16156122d4576040805162461bcd60e51b815260206004820152601060248201526f14185d5cd8589b194e881c185d5cd95960821b604482015290519081900360640190fd5b60105481516020830151608084015160408086015161010087015182516331aeaa7f60e11b8152600481018a9052602481019690965260ff909416604486015263ffffffff9092166064850152608484019190915260a4830191909152516001600160a01b039092169163635d54fe9160c48082019260009290919082900301818387803b15801561236557600080fd5b505af1158015612379573d6000803e3d6000fd5b505050505050565b826001600160a01b0316612394826111d4565b6001600160a01b0316146123d95760405162461bcd60e51b81526004018080602001828103825260298152602001806137df6029913960400191505060405180910390fd5b6001600160a01b03821661241e5760405162461bcd60e51b81526004018080602001828103825260248152602001806135c46024913960400191505060405180910390fd5b6124298383836129d6565b612434600082611feb565b6001600160a01b038316600090815260036020526040902061245690826129e1565b506001600160a01b038216600090815260036020526040902061247990826129ed565b50612486600482846129f9565b5080826001600160a01b0316846001600160a01b03167fddf252ad1be2c89b69c2b068fc378daa952ba7f163c4a11628f55a4df523b3ef60405160405180910390a4505050565b60008281526001602052604090206124e59082611fc5565b15610d81576124f2611fe7565b6001600160a01b0316816001600160a01b0316837f2f8788117e7eff1d82e926ec794901d17c78024a50270940304540a733656f0d60405160405180910390a45050565b6000610da78383612a0f565b600082815260016020526040902061255a9082612a73565b15610d8157612567611fe7565b6001600160a01b0316816001600160a01b0316837ff6391f5c32d9c69d2a47ea670b442974b53935d1edc7fd64eb21e047a839171b60405160405180910390a45050565b600c5460ff166125f9576040805162461bcd60e51b815260206004820152601460248201527314185d5cd8589b194e881b9bdd081c185d5cd95960621b604482015290519081900360640190fd5b600c805460ff191690557f5db9ee0a495bf2e6ff9c91a7834c1ba4fdd244a5e8aa4e537bd38aeae4b073aa61262c611fe7565b604080516001600160a01b039092168252519081900360200190a1565b6000612654826111d4565b9050612662816000846129d6565b61266d600083611feb565b6000828152600a602052604090205460026000196101006001841615020190911604156126ab576000828152600a602052604081206126ab91613337565b6001600160a01b03811660009081526003602052604090206126cd90836129e1565b506126d9600483612a88565b5060405182906000906001600160a01b038416907fddf252ad1be2c89b69c2b068fc378daa952ba7f163c4a11628f55a4df523b3ef908390a45050565b60008080806127258686612a94565b9097909650945050505050565b610d81828260405180602001604052806000815250612b0f565b61275582611fda565b6127905760405162461bcd60e51b815260040180806020018281038252602c8152602001806137b3602c913960400191505060405180910390fd5b6000828152600a602090815260409091208251610b609284019061337b565b6000612281848484612b61565b600c5460ff1615612807576040805162461bcd60e51b815260206004820152601060248201526f14185d5cd8589b194e881c185d5cd95960821b604482015290519081900360640190fd5b600c805460ff191660011790557f62e78cea01bee320cd4e420270b5ea74000d11b0c9f74754ebdbfc544b05a25861262c611fe7565b6000610da7836001600160a01b038416612c2b565b61285d848484612381565b61286984848484612c43565b6128a45760405162461bcd60e51b81526004018080602001828103825260328152602001806134e96032913960400191505060405180910390fd5b50505050565b6060816128cf57506040805180820190915260018152600360fc1b602082015261096e565b8160005b81156128e757600101600a820491506128d3565b60608167ffffffffffffffff8111801561290057600080fd5b506040519080825280601f01601f19166020018201604052801561292b576020820181803683370190505b50859350905060001982015b8315611cff57600a840660300160f81b8282806001900393508151811061295a57fe5b60200101906001600160f81b031916908160001a905350600a84049350612937565b60006129888383612c2b565b6129be57508154600181810184556000848152602080822090930184905584548482528286019093526040902091909155610daa565b506000610daa565b6000610da78383612c2b565b5490565b610b60838383612dab565b6000610da78383612dfa565b6000610da7838361297c565b600061228184846001600160a01b038516612ec0565b81546000908210612a515760405162461bcd60e51b815260040180806020018281038252602281526020018061340f6022913960400191505060405180910390fd5b826000018281548110612a6057fe5b9060005260206000200154905092915050565b6000610da7836001600160a01b038416612dfa565b6000610da78383612f57565b815460009081908310612ad85760405162461bcd60e51b81526004018080602001828103825260228152602001806137656022913960400191505060405180910390fd5b6000846000018481548110612ae957fe5b906000526020600020906002020190508060000154816001015492509250509250929050565b612b19838361302b565b612b266000848484612c43565b610b605760405162461bcd60e51b81526004018080602001828103825260328152602001806134e96032913960400191505060405180910390fd5b60008281526001840160205260408120548281612bfc5760405162461bcd60e51b81526004018080602001828103825283818151815260200191508051906020019080838360005b83811015612bc1578181015183820152602001612ba9565b50505050905090810190601f168015612bee5780820380516001836020036101000a031916815260200191505b509250505060405180910390fd5b50846000016001820381548110612c0f57fe5b9060005260206000209060020201600101549150509392505050565b60009081526001919091016020526040902054151590565b6000612c57846001600160a01b0316613159565b612c6357506001612281565b6060612d71630a85bd0160e11b612c78611fe7565b88878760405160240180856001600160a01b03168152602001846001600160a01b0316815260200183815260200180602001828103825283818151815260200191508051906020019080838360005b83811015612cdf578181015183820152602001612cc7565b50505050905090810190601f168015612d0c5780820380516001836020036101000a031916815260200191505b5095505050505050604051602081830303815290604052906001600160e01b0319166020820180516001600160e01b0383818316178352505050506040518060600160405280603281526020016134e9603291396001600160a01b038816919061315f565b90506000818060200190516020811015612d8a57600080fd5b50516001600160e01b031916630a85bd0160e11b1492505050949350505050565b612db6838383610b60565b612dbe6111cb565b15610b605760405162461bcd60e51b815260040180806020018281038252602b815260200180613431602b913960400191505060405180910390fd5b60008181526001830160205260408120548015612eb65783546000198083019190810190600090879083908110612e2d57fe5b9060005260206000200154905080876000018481548110612e4a57fe5b600091825260208083209091019290925582815260018981019092526040902090840190558654879080612e7a57fe5b60019003818190600052602060002001600090559055866001016000878152602001908152602001600020600090556001945050505050610daa565b6000915050610daa565b600082815260018401602052604081205480612f25575050604080518082018252838152602080820184815286546001818101895560008981528481209551600290930290950191825591519082015586548684528188019092529290912055611532565b82856000016001830381548110612f3857fe5b9060005260206000209060020201600101819055506000915050611532565b60008181526001830160205260408120548015612eb65783546000198083019190810190600090879083908110612f8a57fe5b9060005260206000209060020201905080876000018481548110612faa57fe5b600091825260208083208454600290930201918255600193840154918401919091558354825289830190526040902090840190558654879080612fe957fe5b6000828152602080822060026000199094019384020182815560019081018390559290935588815289820190925260408220919091559450610daa9350505050565b6001600160a01b038216613086576040805162461bcd60e51b815260206004820181905260248201527f4552433732313a206d696e7420746f20746865207a65726f2061646472657373604482015290519081900360640190fd5b61308f81611fda565b156130e1576040805162461bcd60e51b815260206004820152601c60248201527f4552433732313a20746f6b656e20616c7265616479206d696e74656400000000604482015290519081900360640190fd5b6130ed600083836129d6565b6001600160a01b038216600090815260036020526040902061310f90826129ed565b5061311c600482846129f9565b5060405181906001600160a01b038416906000907fddf252ad1be2c89b69c2b068fc378daa952ba7f163c4a11628f55a4df523b3ef908290a45050565b3b151590565b606061228184846000858561317385613159565b6131c4576040805162461bcd60e51b815260206004820152601d60248201527f416464726573733a2063616c6c20746f206e6f6e2d636f6e7472616374000000604482015290519081900360640190fd5b60006060866001600160a01b031685876040518082805190602001908083835b602083106132035780518252601f1990920191602091820191016131e4565b6001836020036101000a03801982511681845116808217855250505050505090500191505060006040518083038185875af1925050503d8060008114613265576040519150601f19603f3d011682016040523d82523d6000602084013e61326a565b606091505b509150915061327a828286613285565b979650505050505050565b60608315613294575081611532565b8251156132a45782518084602001fd5b60405162461bcd60e51b8152602060048201818152845160248401528451859391928392604401919085019080838360008315612bc1578181015183820152602001612ba9565b6040805161012081018252600080825260208201819052918101829052606081018290526080810182905260a0810182905260c0810182905260e0810182905261010081019190915290565b50805460018160011615610100020316600290046000825580601f1061335d57506110a7565b601f0160209004906000526020600020908101906110a791906133f9565b828054600181600116156101000203166002900490600052602060002090601f016020900481019282601f106133bc57805160ff19168380011785556133e9565b828001600101855582156133e9579182015b828111156133e95782518255916020019190600101906133ce565b506133f59291506133f9565b5090565b5b808211156133f557600081556001016133fa56fe456e756d657261626c655365743a20696e646578206f7574206f6620626f756e64734552433732315061757361626c653a20746f6b656e207472616e73666572207768696c6520706175736564416363657373436f6e74726f6c3a2073656e646572206d75737420626520616e2061646d696e20746f206772616e745265656e7472616e637947756172643a207265656e7472616e742063616c6c0041543a564e543a537570706c6965642061757468436f646520616e64206173736574636c61737320646f206e6f74206d6174636820746f6b656e205552494552433732313a207472616e7366657220746f206e6f6e20455243373231526563656976657220696d706c656d656e74657241543a443a7472616e736665722063616c6c6572206973206e6f74206f776e6572206e6f7220617070726f7665644552433732315072657365744d696e7465725061757365724175746f49643a206d75737420686176652070617573657220726f6c6520746f20706175736541543a4d4f442d49413a43616c6c696e67206164647265737320646f6573206e6f742062656c6f6e6720746f206120636f6e74726163742061646d696e4552433732313a207472616e7366657220746f20746865207a65726f206164647265737341543a4d4f442d49413a43616c6c696e67206164647265737320646f6573206e6f742062656c6f6e6720746f2061206d696e74657241543a54463a4173736574206e6f7420696e207472616e736665727261626c65207374617475734552433732313a206f70657261746f7220717565727920666f72206e6f6e6578697374656e7420746f6b656e41543a5354463a43616e6e6f74207472616e7366657220617373657420746f207a65726f20616464726573732e2055736520646973636172642e416363657373436f6e74726f6c3a2073656e646572206d75737420626520616e2061646d696e20746f207265766f6b654552433732313a20617070726f76652063616c6c6572206973206e6f74206f776e6572206e6f7220617070726f76656420666f7220616c6c4552433732313a2062616c616e636520717565727920666f7220746865207a65726f20616464726573734552433732313a206f776e657220717565727920666f72206e6f6e6578697374656e7420746f6b656e456e756d657261626c654d61703a20696e646578206f7574206f6620626f756e64734552433732313a20617070726f76656420717565727920666f72206e6f6e6578697374656e7420746f6b656e4552433732314d657461646174613a2055524920736574206f66206e6f6e6578697374656e7420746f6b656e4552433732313a207472616e73666572206f6620746f6b656e2074686174206973206e6f74206f776e4552433732314d657461646174613a2055524920717565727920666f72206e6f6e6578697374656e7420746f6b656e41543a5354463a207472616e736665722063616c6c6572206973206e6f74206f776e6572206e6f7220617070726f7665644552433732313a20617070726f76616c20746f2063757272656e74206f776e657241543a5354463a43616e6e6f742073656e642073746174757320373020617373657420746f20756e617574686f72697a6564206164647265737341543a5353433a2073746f7261676520616464726573732063616e6e6f74206265207a65726f41543a535552493a63616c6c6572206973206e6f74206f776e6572206e6f7220617070726f7665644552433732314275726e61626c653a2063616c6c6572206973206e6f74206f776e6572206e6f7220617070726f76656441543a54463a7472616e736665722063616c6c6572206973206e6f74206f776e6572206e6f7220617070726f7665644552433732315072657365744d696e7465725061757365724175746f49643a206d75737420686176652070617573657220726f6c6520746f20756e7061757365416363657373436f6e74726f6c3a2063616e206f6e6c792072656e6f756e636520726f6c657320666f722073656c6641543a5354463a4173736574206e6f7420696e207472616e736665727261626c6520737461747573a26469706673582212204cc491689870402f0509bb13dd11f497785d7db9a4c993f75200506de14a2ffa64736f6c634300060c0033",
  "immutableReferences": {},
  "source": "/*--------------------------------------------------------PRuF0.7.1\n__/\\\\\\\\\\\\\\\\\\\\\\\\\\ _____/\\\\\\\\\\\\\\\\\\ _______/\\\\../\\\\ ___/\\\\\\\\\\\\\\\\\\\\\\\\\\\\\\\n _\\/\\\\\\/////////\\\\\\ _/\\\\\\///////\\\\\\ ____\\//..\\//____\\/\\\\\\///////////__\n  _\\/\\\\\\.......\\/\\\\\\.\\/\\\\\\.....\\/\\\\\\ ________________\\/\\\\\\ ____________\n   _\\/\\\\\\\\\\\\\\\\\\\\\\\\\\/__\\/\\\\\\\\\\\\\\\\\\\\\\/_____/\\\\\\____/\\\\\\.\\/\\\\\\\\\\\\\\\\\\\\\\ ____\n    _\\/\\\\\\/////////____\\/\\\\\\//////\\\\\\ ___\\/\\\\\\___\\/\\\\\\.\\/\\\\\\///////______\n     _\\/\\\\\\ ____________\\/\\\\\\ ___\\//\\\\\\ __\\/\\\\\\___\\/\\\\\\.\\/\\\\\\ ____________\n      _\\/\\\\\\ ____________\\/\\\\\\ ____\\//\\\\\\ _\\/\\\\\\___\\/\\\\\\.\\/\\\\\\ ____________\n       _\\/\\\\\\ ____________\\/\\\\\\ _____\\//\\\\\\.\\//\\\\\\\\\\\\\\\\\\ _\\/\\\\\\ ____________\n        _\\/// _____________\\/// _______\\/// __\\///////// __\\/// _____________\n         *-------------------------------------------------------------------*/\n\n/*-----------------------------------------------------------------\n *  TO DO\n *-----------------------------------------------------------------\n * PRUF ASSET NFT CONTRACT\n *---------------------------------------------------------------*/\n\n// SPDX-License-Identifier: UNLICENSED\npragma solidity ^0.6.7;\n\nimport \"./Imports/access/AccessControl.sol\";\nimport \"./Imports/GSN/Context.sol\";\nimport \"./Imports/utils/Counters.sol\";\nimport \"./Imports/token/ERC721/ERC721.sol\";\nimport \"./Imports/token/ERC721/ERC721Burnable.sol\";\nimport \"./Imports/token/ERC721/ERC721Pausable.sol\";\nimport \"./PRUF_INTERFACES.sol\";\nimport \"./Imports/utils/ReentrancyGuard.sol\";\n\n/**\n * @dev {ERC721} token, including:\n *\n *  - ability for holders to burn (destroy) their tokens\n *  - a minter role that allows for token minting (creation)\n *  - a pauser role that allows to stop all token transfers\n *  - token ID and URI autogeneration\n *\n * This contract uses {AccessControl} to lock permissioned functions using the\n * different roles - head to its documentation for details.\n *\n * The account that deploys the contract will be granted the minter, pauser, and contract admin\n * roles, as well as the default admin role, which will let it grant minter, pauser, and admin\n * roles to other accounts.\n */\n\ncontract A_TKN is\n    ReentrancyGuard,\n    Context,\n    AccessControl,\n    ERC721Burnable,\n    ERC721Pausable\n{\n    using Counters for Counters.Counter;\n\n    bytes32 public constant CONTRACT_ADMIN_ROLE = keccak256(\n        \"CONTRACT_ADMIN_ROLE\"\n    );\n    bytes32 public constant MINTER_ROLE = keccak256(\"MINTER_ROLE\");\n    bytes32 public constant PAUSER_ROLE = keccak256(\"PAUSER_ROLE\");\n\n    bytes32\n        public constant B320xF_ = 0xFFFFFFFFFFFFFFFFFFFFFFFFFFFFFFFFFFFFFFFFFFFFFFFFFFFFFFFFFFFFFFFF;\n\n    Counters.Counter private _tokenIdTracker;\n\n    struct Record {\n        bytes32 rightsHolder; // KEK256 Registered owner\n        uint8 assetStatus; // Status - Transferrable, locked, in transfer, stolen, lost, etc.\n        uint256 incrementForceModCount; // increment flag for Number of times asset has been forceModded.\n        uint32 assetClass; // Type of asset\n        uint32 countDown; // Variable that can only be dencreased from countDownStart\n        uint32 countDownStart; // Starting point for countdown variable (set once)\n        bytes32 Ipfs1; // Publically viewable asset description\n        bytes32 Ipfs2; // Publically viewable immutable notes\n        uint256 incrementNumberOfTransfers; //increment flag for number of transfers and forcemods\n    }\n\n    constructor() public ERC721(\"PRF Asset Token\", \"PRAT\") {\n        _setupRole(DEFAULT_ADMIN_ROLE, _msgSender());\n        _setupRole(CONTRACT_ADMIN_ROLE, _msgSender());\n        _setupRole(MINTER_ROLE, _msgSender()); //ALL CONTRACTS THAT MINT ASSET TOKENS\n        _setupRole(PAUSER_ROLE, _msgSender());\n    }\n\n    address internal STOR_Address;\n    address internal RCLR_Address;\n    STOR_Interface internal STOR;\n    RCLR_Interface internal RCLR;\n\n    event REPORT(string _msg);\n\n    modifier isAdmin() {\n        require(\n            hasRole(CONTRACT_ADMIN_ROLE, _msgSender()),\n            \"AT:MOD-IA:Calling address does not belong to a contract admin\"\n        );\n        _;\n    }\n\n    modifier isMinter() {\n        require(\n            hasRole(MINTER_ROLE, _msgSender()),\n            \"AT:MOD-IA:Calling address does not belong to a minter\"\n        );\n        _;\n    }\n\n    //----------------------Admin functions / isAdmin or isTrusted----------------------//\n\n    /*\n     * @dev Set storage contract to interface with\n     */\n    function OO_setStorageContract(address _storageAddress) external isAdmin {\n        require(\n            _storageAddress != address(0),\n            \"AT:SSC: storage address cannot be zero\"\n        );\n        //^^^^^^^checks^^^^^^^^^\n\n        STOR = STOR_Interface(_storageAddress);\n        //^^^^^^^effects^^^^^^^^^\n    }\n\n    /*\n     * @dev Address Setters\n     */\n    function OO_resolveContractAddresses() external isAdmin {\n        //^^^^^^^checks^^^^^^^^^\n\n        RCLR_Address = STOR.resolveContractAddress(\"RCLR\");\n        RCLR = RCLR_Interface(RCLR_Address);\n        //^^^^^^^effects^^^^^^^^^\n    }\n\n    /*\n     * @dev Mint new token\n     */\n    function mintAssetToken(\n        address _recipientAddress,\n        uint256 tokenId,\n        string calldata _tokenURI\n    ) external isMinter nonReentrant returns (uint256) {\n        //^^^^^^^checks^^^^^^^^^\n\n        //MAKE URI ASSET SPECIFIC- has to incorporate the token ID\n        _safeMint(_recipientAddress, tokenId);\n        _setTokenURI(tokenId, _tokenURI);\n        return tokenId;\n        //^^^^^^^interactions^^^^^^^^^\n    }\n\n    // /*\n    //  * @dev remint Asset Token\n    //  * must set a new and unuiqe rgtHash\n    //  * burns old token\n    //  * Sends new token to original Caller\n    //  */\n    // function reMintAssetToken(address _recipientAddress, uint256 tokenId)\n    //     external\n    //     isMinter\n    //     nonReentrant\n    //     returns (uint256)\n    // {\n    //     require(_exists(tokenId), \"AT:RM:Cannot Remint nonexistant token\");\n    //     //^^^^^^^checks^^^^^^^^^\n    //     string memory tokenURI = tokenURI(tokenId);\n    //     _burn(tokenId);\n    //     _safeMint(_recipientAddress, tokenId);\n    //     _setTokenURI(tokenId, tokenURI);\n    //     return tokenId;\n    //     //^^^^^^^interactions^^^^^^^^^\n    // }\n\n    /*\n     * @dev Set new token URI String\n     */\n    function setURI(uint256 tokenId, string calldata _tokenURI)\n        external\n        returns (uint256)\n    {\n        require(\n            _isApprovedOrOwner(_msgSender(), tokenId),\n            \"AT:SURI:caller is not owner nor approved\"\n        );\n        //^^^^^^^checks^^^^^^^^^\n\n        _setTokenURI(tokenId, _tokenURI);\n        return tokenId;\n        //^^^^^^^interactions^^^^^^^^^\n    }\n\n    /*\n     * @dev Reassures user that token is minted in the PRUF system\n     */\n    function validatePipToken(\n        uint256 tokenId,\n        uint32 _assetClass,\n        string calldata _authCode\n    ) external view {\n        bytes32 _hashedAuthCode = keccak256(abi.encodePacked(_authCode));\n        bytes32 b32URI = keccak256(\n            abi.encodePacked(_hashedAuthCode, _assetClass)\n        );\n        string memory authString = uint256toString(uint256(b32URI));\n        string memory URI = tokenURI(tokenId);\n\n        require(\n            keccak256(abi.encodePacked(URI)) ==\n                keccak256(abi.encodePacked(authString)),\n            \"AT:VNT:Supplied authCode and assetclass do not match token URI\"\n        );\n    }\n\n    /*\n     * @dev See if token exists\n     */\n    function tokenExists(uint256 tokenId) external view returns (uint8) {\n        if (_exists(tokenId)) {\n            return 170;\n        } else {\n            return 0;\n        }\n    }\n\n    /**\n     * @dev Transfers the ownership of a given token ID to another address.\n     * Usage of this method is discouraged, use {safeTransferFrom} whenever possible.\n     * Requires the _msgSender() to be the owner, approved, or operator.\n     * @param from current owner of the token\n     * @param to address to receive the ownership of the given token ID\n     * @param tokenId uint256 ID of the token to be transferred\n     */\n    function transferFrom(\n        address from,\n        address to,\n        uint256 tokenId\n    ) public override nonReentrant whenNotPaused {\n        bytes32 _idxHash = bytes32(tokenId);\n        Record memory rec = getRecord(_idxHash);\n\n        require(\n            _isApprovedOrOwner(_msgSender(), tokenId),\n            \"AT:TF:transfer caller is not owner nor approved\"\n        );\n        require(\n            rec.assetStatus == 51,\n            \"AT:TF:Asset not in transferrable status\"\n        );\n\n        //^^^^^^^checks^^^^^^^^\n\n        rec.incrementNumberOfTransfers = 170;\n\n        rec.rightsHolder = B320xF_;\n        //^^^^^^^effects^^^^^^^^^\n\n        writeRecord(_idxHash, rec);\n        _transfer(from, to, tokenId);\n        //^^^^^^^interactions^^^^^^^^^\n    }\n\n    /**\n     * @dev Safely transfers the ownership of a given token ID to another address\n     * If the target address is a contract, it must implement {IERC721Receiver-onERC721Received},\n     * which is called upon a safe transfer, and return the magic value\n     * `bytes4(keccak256(\"onERC721Received(address,address,uint256,bytes)\"))`; otherwise,\n     * the transfer is reverted.\n     * Requires the _msgSender() to be the owner, approved, or operator\n     * @param from current owner of the token\n     * @param to address to receive the ownership of the given token ID\n     * @param tokenId uint256 ID of the token to be transferred\n     */\n    function safeTransferFrom(\n        address from,\n        address to,\n        uint256 tokenId\n    ) public override {\n        //writeRecord(_idxHash, rec);\n        safeTransferFrom(from, to, tokenId, \"\");\n        //^^^^^^^interactions^^^^^^^^^\n    }\n\n    /**\n     * @dev Safely transfers the ownership of a given token ID to another address\n     * If the target address is a contract, it must implement {IERC721Receiver-onERC721Received},\n     * which is called upon a safe transfer, and return the magic value\n     * `bytes4(keccak256(\"onERC721Received(address,address,uint256,bytes)\"))`; otherwise,\n     * the transfer is reverted.\n     * Requires the _msgSender() to be the owner, approved, or operator\n     * @param from current owner of the token\n     * @param to address to receive the ownership of the given token ID\n     * @param tokenId uint256 ID of the token to be transferred\n     * @param _data bytes data to send along with a safe transfer check\n     */\n    function safeTransferFrom(\n        address from,\n        address to,\n        uint256 tokenId,\n        bytes memory _data\n    ) public virtual override nonReentrant whenNotPaused {\n        bytes32 _idxHash = bytes32(tokenId);\n        Record memory rec = getRecord(_idxHash);\n        (uint8 isAuth, ) = STOR.ContractInfoHash(to, 0); // trailing comma because does not use the returned hash\n\n        require(\n            _isApprovedOrOwner(_msgSender(), tokenId),\n            \"AT:STF: transfer caller is not owner nor approved\"\n        );\n        require( // ensure that status 70 assets are only sent to an actual PRUF contract\n            (rec.assetStatus != 70) || (isAuth > 0),\n            \"AT:STF:Cannot send status 70 asset to unauthorized address\"\n        );\n        require(\n            (rec.assetStatus == 51) || (rec.assetStatus == 70),\n            \"AT:STF:Asset not in transferrable status\"\n        );\n        require(\n            to != address(0),\n            \"AT:STF:Cannot transfer asset to zero address. Use discard.\"\n        );\n\n        //^^^^^^^checks^^^^^^^^^\n\n        rec.incrementNumberOfTransfers = 170;\n        rec.rightsHolder = B320xF_;\n        //^^^^^^^effects^^^^^^^^^\n\n        writeRecord(_idxHash, rec);\n        _safeTransfer(from, to, tokenId, _data);\n        //^^^^^^^interactions^^^^^^^^^\n    }\n\n    /**\n     * @dev Safely burns a token and sets the corresponding RGT to zero in storage.\n     */\n    function discard(uint256 tokenId) external nonReentrant whenNotPaused {\n        bytes32 _idxHash = bytes32(tokenId);\n        //Record memory rec = getRecord(_idxHash);\n\n        require(\n            _isApprovedOrOwner(_msgSender(), tokenId),\n            \"AT:D:transfer caller is not owner nor approved\"\n        );\n\n        //^^^^^^^checks^^^^^^^^^\n        //^^^^^^^effects^^^^^^^^^\n\n        RCLR.discard(_idxHash, _msgSender());\n        _burn(tokenId);\n        //^^^^^^^interactions^^^^^^^^^\n    }\n\n    /*\n     * @dev Write a Record to Storage @ idxHash\n     */\n    function writeRecord(bytes32 _idxHash, Record memory _rec)\n        private\n        whenNotPaused\n    {\n        //^^^^^^^checks^^^^^^^^^\n        //^^^^^^^effects^^^^^^^^^\n        STOR.modifyRecord(\n            _idxHash,\n            _rec.rightsHolder,\n            _rec.assetStatus,\n            _rec.countDown,\n            _rec.incrementForceModCount,\n            _rec.incrementNumberOfTransfers\n        ); // Send data and writehash to storage\n        //^^^^^^^interactions^^^^^^^^^\n    }\n\n    /*\n     * @dev Get a Record from Storage @ idxHash\n     */\n    function getRecord(bytes32 _idxHash) private view returns (Record memory) {\n        Record memory rec;\n        //^^^^^^^checks^^^^^^^^^\n        //^^^^^^^effects^^^^^^^^^\n\n        {\n            //Start of scope limit for stack depth\n            (\n                bytes32 _rightsHolder,\n                uint8 _assetStatus,\n                uint32 _assetClass,\n                uint32 _countDown,\n                uint32 _countDownStart,\n                bytes32 _Ipfs1,\n                bytes32 _Ipfs2\n            ) = STOR.retrieveRecord(_idxHash); // Get record from storage contract\n\n            rec.rightsHolder = _rightsHolder;\n            rec.assetStatus = _assetStatus;\n            rec.assetClass = _assetClass;\n            rec.countDown = _countDown;\n            rec.countDownStart = _countDownStart;\n            rec.Ipfs1 = _Ipfs1;\n            rec.Ipfs2 = _Ipfs2;\n        } //end of scope limit for stack depth\n\n        return (rec); // Returns Record struct rec\n        //^^^^^^^interactions^^^^^^^^^\n    }\n\n    function uint256toString(uint256 number)\n        public\n        pure\n        returns (string memory)\n    {\n        // Inspired by OraclizeAPI's implementation - MIT licence\n        // https://github.com/oraclize/ethereum-api/blob/b42146b063c7d6ee1358846c198246239e9360e8/oraclizeAPI_0.4.25.sol\n        // shamelessly jacked straight outa OpenZepplin  openzepplin.org\n\n        if (number == 0) {\n            return \"0\";\n        }\n        uint256 temp = number;\n        uint256 digits;\n        while (temp != 0) {\n            digits++;\n            temp /= 10;\n        }\n        bytes memory buffer = new bytes(digits);\n        uint256 index = digits - 1;\n        temp = number;\n        while (temp != 0) {\n            buffer[index--] = bytes1(uint8(48 + (temp % 10)));\n            temp /= 10;\n        }\n        return string(buffer);\n    }\n\n    /**\n     * @dev Pauses all token transfers.\n     *\n     * See {ERC721Pausable} and {Pausable-_pause}.\n     *\n     * Requirements:\n     *\n     * - the caller must have the `PAUSER_ROLE`.\n     */\n    function pause() public virtual {\n        require(\n            hasRole(PAUSER_ROLE, _msgSender()),\n            \"ERC721PresetMinterPauserAutoId: must have pauser role to pause\"\n        );\n        //^^^^^^^checks^^^^^^^^^\n        _pause();\n        //^^^^^^^interactions^^^^^^^^^\n    }\n\n    /**\n     * @dev Unpauses all token transfers.\n     *\n     * See {ERC721Pausable} and {Pausable-_unpause}.\n     *\n     * Requirements:\n     *\n     * - the caller must have the `PAUSER_ROLE`.\n     */\n    function unpause() public virtual {\n        require(\n            hasRole(PAUSER_ROLE, _msgSender()),\n            \"ERC721PresetMinterPauserAutoId: must have pauser role to unpause\"\n        );\n        //^^^^^^^checks^^^^^^^^^\n        _unpause();\n        //^^^^^^^interactions^^^^^^^^^\n    }\n\n    function _beforeTokenTransfer(\n        address from,\n        address to,\n        uint256 tokenId\n    ) internal virtual override(ERC721, ERC721Pausable) {\n        super._beforeTokenTransfer(from, to, tokenId);\n    }\n}\n",
  "sourcePath": "/Users/cts/dev/PRUF/PRUF_TRUFFLE/contracts/PRUF_A_TKN.sol",
  "compiler": {
    "name": "solc",
    "version": "0.6.12+commit.27d51765.Emscripten.clang"
  },
  "schemaVersion": "3.2.3",
  "updatedAt": "2020-12-21T18:14:16.403Z",
  "devdoc": {
    "details": "{ERC721} token, including:  - ability for holders to burn (destroy) their tokens  - a minter role that allows for token minting (creation)  - a pauser role that allows to stop all token transfers  - token ID and URI autogeneration This contract uses {AccessControl} to lock permissioned functions using the different roles - head to its documentation for details. The account that deploys the contract will be granted the minter, pauser, and contract admin roles, as well as the default admin role, which will let it grant minter, pauser, and admin roles to other accounts.",
    "kind": "dev",
    "methods": {
      "approve(address,uint256)": {
        "details": "See {IERC721-approve}."
      },
      "balanceOf(address)": {
        "details": "See {IERC721-balanceOf}."
      },
      "baseURI()": {
        "details": "Returns the base URI set via {_setBaseURI}. This will be automatically added as a prefix in {tokenURI} to each token's URI, or to the token ID if no specific URI is set for that token ID."
      },
      "burn(uint256)": {
        "details": "Burns `tokenId`. See {ERC721-_burn}. Requirements: - The caller must own `tokenId` or be an approved operator."
      },
      "discard(uint256)": {
        "details": "Safely burns a token and sets the corresponding RGT to zero in storage."
      },
      "getApproved(uint256)": {
        "details": "See {IERC721-getApproved}."
      },
      "getRoleAdmin(bytes32)": {
        "details": "Returns the admin role that controls `role`. See {grantRole} and {revokeRole}. To change a role's admin, use {_setRoleAdmin}."
      },
      "getRoleMember(bytes32,uint256)": {
        "details": "Returns one of the accounts that have `role`. `index` must be a value between 0 and {getRoleMemberCount}, non-inclusive. Role bearers are not sorted in any particular way, and their ordering may change at any point. WARNING: When using {getRoleMember} and {getRoleMemberCount}, make sure you perform all queries on the same block. See the following https://forum.openzeppelin.com/t/iterating-over-elements-on-enumerableset-in-openzeppelin-contracts/2296[forum post] for more information."
      },
      "getRoleMemberCount(bytes32)": {
        "details": "Returns the number of accounts that have `role`. Can be used together with {getRoleMember} to enumerate all bearers of a role."
      },
      "grantRole(bytes32,address)": {
        "details": "Grants `role` to `account`. If `account` had not been already granted `role`, emits a {RoleGranted} event. Requirements: - the caller must have ``role``'s admin role."
      },
      "hasRole(bytes32,address)": {
        "details": "Returns `true` if `account` has been granted `role`."
      },
      "isApprovedForAll(address,address)": {
        "details": "See {IERC721-isApprovedForAll}."
      },
      "name()": {
        "details": "See {IERC721Metadata-name}."
      },
      "ownerOf(uint256)": {
        "details": "See {IERC721-ownerOf}."
      },
      "pause()": {
        "details": "Pauses all token transfers. See {ERC721Pausable} and {Pausable-_pause}. Requirements: - the caller must have the `PAUSER_ROLE`."
      },
      "paused()": {
        "details": "Returns true if the contract is paused, and false otherwise."
      },
      "renounceRole(bytes32,address)": {
        "details": "Revokes `role` from the calling account. Roles are often managed via {grantRole} and {revokeRole}: this function's purpose is to provide a mechanism for accounts to lose their privileges if they are compromised (such as when a trusted device is misplaced). If the calling account had been granted `role`, emits a {RoleRevoked} event. Requirements: - the caller must be `account`."
      },
      "revokeRole(bytes32,address)": {
        "details": "Revokes `role` from `account`. If `account` had been granted `role`, emits a {RoleRevoked} event. Requirements: - the caller must have ``role``'s admin role."
      },
      "safeTransferFrom(address,address,uint256)": {
        "details": "Safely transfers the ownership of a given token ID to another address If the target address is a contract, it must implement {IERC721Receiver-onERC721Received}, which is called upon a safe transfer, and return the magic value `bytes4(keccak256(\"onERC721Received(address,address,uint256,bytes)\"))`; otherwise, the transfer is reverted. Requires the _msgSender() to be the owner, approved, or operator",
        "params": {
          "from": "current owner of the token",
          "to": "address to receive the ownership of the given token ID",
          "tokenId": "uint256 ID of the token to be transferred"
        }
      },
      "safeTransferFrom(address,address,uint256,bytes)": {
        "details": "Safely transfers the ownership of a given token ID to another address If the target address is a contract, it must implement {IERC721Receiver-onERC721Received}, which is called upon a safe transfer, and return the magic value `bytes4(keccak256(\"onERC721Received(address,address,uint256,bytes)\"))`; otherwise, the transfer is reverted. Requires the _msgSender() to be the owner, approved, or operator",
        "params": {
          "_data": "bytes data to send along with a safe transfer check",
          "from": "current owner of the token",
          "to": "address to receive the ownership of the given token ID",
          "tokenId": "uint256 ID of the token to be transferred"
        }
      },
      "setApprovalForAll(address,bool)": {
        "details": "See {IERC721-setApprovalForAll}."
      },
      "supportsInterface(bytes4)": {
        "details": "See {IERC165-supportsInterface}. Time complexity O(1), guaranteed to always use less than 30 000 gas."
      },
      "symbol()": {
        "details": "See {IERC721Metadata-symbol}."
      },
      "tokenByIndex(uint256)": {
        "details": "See {IERC721Enumerable-tokenByIndex}."
      },
      "tokenOfOwnerByIndex(address,uint256)": {
        "details": "See {IERC721Enumerable-tokenOfOwnerByIndex}."
      },
      "tokenURI(uint256)": {
        "details": "See {IERC721Metadata-tokenURI}."
      },
      "totalSupply()": {
        "details": "See {IERC721Enumerable-totalSupply}."
      },
      "transferFrom(address,address,uint256)": {
        "details": "Transfers the ownership of a given token ID to another address. Usage of this method is discouraged, use {safeTransferFrom} whenever possible. Requires the _msgSender() to be the owner, approved, or operator.",
        "params": {
          "from": "current owner of the token",
          "to": "address to receive the ownership of the given token ID",
          "tokenId": "uint256 ID of the token to be transferred"
        }
      },
      "unpause()": {
        "details": "Unpauses all token transfers. See {ERC721Pausable} and {Pausable-_unpause}. Requirements: - the caller must have the `PAUSER_ROLE`."
      }
    },
    "version": 1
  },
  "userdoc": {
    "kind": "user",
    "methods": {},
    "version": 1
  }
}