{
  "contractName": "A_TKN",
  "abi": [
    {
      "inputs": [],
      "stateMutability": "nonpayable",
      "type": "constructor"
    },
    {
      "anonymous": false,
      "inputs": [
        {
          "indexed": true,
          "internalType": "address",
          "name": "owner",
          "type": "address"
        },
        {
          "indexed": true,
          "internalType": "address",
          "name": "approved",
          "type": "address"
        },
        {
          "indexed": true,
          "internalType": "uint256",
          "name": "tokenId",
          "type": "uint256"
        }
      ],
      "name": "Approval",
      "type": "event"
    },
    {
      "anonymous": false,
      "inputs": [
        {
          "indexed": true,
          "internalType": "address",
          "name": "owner",
          "type": "address"
        },
        {
          "indexed": true,
          "internalType": "address",
          "name": "operator",
          "type": "address"
        },
        {
          "indexed": false,
          "internalType": "bool",
          "name": "approved",
          "type": "bool"
        }
      ],
      "name": "ApprovalForAll",
      "type": "event"
    },
    {
      "anonymous": false,
      "inputs": [
        {
          "indexed": true,
          "internalType": "address",
          "name": "previousOwner",
          "type": "address"
        },
        {
          "indexed": true,
          "internalType": "address",
          "name": "newOwner",
          "type": "address"
        }
      ],
      "name": "OwnershipTransferred",
      "type": "event"
    },
    {
      "anonymous": false,
      "inputs": [
        {
          "indexed": false,
          "internalType": "string",
          "name": "_msg",
          "type": "string"
        }
      ],
      "name": "REPORT",
      "type": "event"
    },
    {
      "anonymous": false,
      "inputs": [
        {
          "indexed": true,
          "internalType": "address",
          "name": "from",
          "type": "address"
        },
        {
          "indexed": true,
          "internalType": "address",
          "name": "to",
          "type": "address"
        },
        {
          "indexed": true,
          "internalType": "uint256",
          "name": "tokenId",
          "type": "uint256"
        }
      ],
      "name": "Transfer",
      "type": "event"
    },
    {
      "inputs": [
        {
          "internalType": "address",
          "name": "to",
          "type": "address"
        },
        {
          "internalType": "uint256",
          "name": "tokenId",
          "type": "uint256"
        }
      ],
      "name": "approve",
      "outputs": [],
      "stateMutability": "nonpayable",
      "type": "function"
    },
    {
      "inputs": [
        {
          "internalType": "address",
          "name": "owner",
          "type": "address"
        }
      ],
      "name": "balanceOf",
      "outputs": [
        {
          "internalType": "uint256",
          "name": "",
          "type": "uint256"
        }
      ],
      "stateMutability": "view",
      "type": "function"
    },
    {
      "inputs": [],
      "name": "baseURI",
      "outputs": [
        {
          "internalType": "string",
          "name": "",
          "type": "string"
        }
      ],
      "stateMutability": "view",
      "type": "function"
    },
    {
      "inputs": [
        {
          "internalType": "uint256",
          "name": "tokenId",
          "type": "uint256"
        }
      ],
      "name": "getApproved",
      "outputs": [
        {
          "internalType": "address",
          "name": "",
          "type": "address"
        }
      ],
      "stateMutability": "view",
      "type": "function"
    },
    {
      "inputs": [
        {
          "internalType": "address",
          "name": "owner",
          "type": "address"
        },
        {
          "internalType": "address",
          "name": "operator",
          "type": "address"
        }
      ],
      "name": "isApprovedForAll",
      "outputs": [
        {
          "internalType": "bool",
          "name": "",
          "type": "bool"
        }
      ],
      "stateMutability": "view",
      "type": "function"
    },
    {
      "inputs": [],
      "name": "name",
      "outputs": [
        {
          "internalType": "string",
          "name": "",
          "type": "string"
        }
      ],
      "stateMutability": "view",
      "type": "function"
    },
    {
      "inputs": [],
      "name": "owner",
      "outputs": [
        {
          "internalType": "address",
          "name": "",
          "type": "address"
        }
      ],
      "stateMutability": "view",
      "type": "function"
    },
    {
      "inputs": [
        {
          "internalType": "uint256",
          "name": "tokenId",
          "type": "uint256"
        }
      ],
      "name": "ownerOf",
      "outputs": [
        {
          "internalType": "address",
          "name": "",
          "type": "address"
        }
      ],
      "stateMutability": "view",
      "type": "function"
    },
    {
      "inputs": [],
      "name": "renounceOwnership",
      "outputs": [],
      "stateMutability": "nonpayable",
      "type": "function"
    },
    {
      "inputs": [
        {
          "internalType": "address",
          "name": "operator",
          "type": "address"
        },
        {
          "internalType": "bool",
          "name": "approved",
          "type": "bool"
        }
      ],
      "name": "setApprovalForAll",
      "outputs": [],
      "stateMutability": "nonpayable",
      "type": "function"
    },
    {
      "inputs": [
        {
          "internalType": "bytes4",
          "name": "interfaceId",
          "type": "bytes4"
        }
      ],
      "name": "supportsInterface",
      "outputs": [
        {
          "internalType": "bool",
          "name": "",
          "type": "bool"
        }
      ],
      "stateMutability": "view",
      "type": "function"
    },
    {
      "inputs": [],
      "name": "symbol",
      "outputs": [
        {
          "internalType": "string",
          "name": "",
          "type": "string"
        }
      ],
      "stateMutability": "view",
      "type": "function"
    },
    {
      "inputs": [
        {
          "internalType": "uint256",
          "name": "index",
          "type": "uint256"
        }
      ],
      "name": "tokenByIndex",
      "outputs": [
        {
          "internalType": "uint256",
          "name": "",
          "type": "uint256"
        }
      ],
      "stateMutability": "view",
      "type": "function"
    },
    {
      "inputs": [
        {
          "internalType": "address",
          "name": "owner",
          "type": "address"
        },
        {
          "internalType": "uint256",
          "name": "index",
          "type": "uint256"
        }
      ],
      "name": "tokenOfOwnerByIndex",
      "outputs": [
        {
          "internalType": "uint256",
          "name": "",
          "type": "uint256"
        }
      ],
      "stateMutability": "view",
      "type": "function"
    },
    {
      "inputs": [
        {
          "internalType": "uint256",
          "name": "tokenId",
          "type": "uint256"
        }
      ],
      "name": "tokenURI",
      "outputs": [
        {
          "internalType": "string",
          "name": "",
          "type": "string"
        }
      ],
      "stateMutability": "view",
      "type": "function"
    },
    {
      "inputs": [],
      "name": "totalSupply",
      "outputs": [
        {
          "internalType": "uint256",
          "name": "",
          "type": "uint256"
        }
      ],
      "stateMutability": "view",
      "type": "function"
    },
    {
      "inputs": [
        {
          "internalType": "address",
          "name": "newOwner",
          "type": "address"
        }
      ],
      "name": "transferOwnership",
      "outputs": [],
      "stateMutability": "nonpayable",
      "type": "function"
    },
    {
      "inputs": [
        {
          "internalType": "address",
          "name": "_storageAddress",
          "type": "address"
        }
      ],
      "name": "OO_setStorageContract",
      "outputs": [],
      "stateMutability": "nonpayable",
      "type": "function"
    },
    {
      "inputs": [],
      "name": "OO_ResolveContractAddresses",
      "outputs": [],
      "stateMutability": "nonpayable",
      "type": "function"
    },
    {
      "inputs": [
        {
          "internalType": "address",
          "name": "_recipientAddress",
          "type": "address"
        },
        {
          "internalType": "uint256",
          "name": "tokenId",
          "type": "uint256"
        },
        {
          "internalType": "string",
          "name": "_tokenURI",
          "type": "string"
        }
      ],
      "name": "mintAssetToken",
      "outputs": [
        {
          "internalType": "uint256",
          "name": "",
          "type": "uint256"
        }
      ],
      "stateMutability": "nonpayable",
      "type": "function"
    },
    {
      "inputs": [
        {
          "internalType": "uint256",
          "name": "tokenId",
          "type": "uint256"
        },
        {
          "internalType": "string",
          "name": "_tokenURI",
          "type": "string"
        }
      ],
      "name": "setURI",
      "outputs": [
        {
          "internalType": "uint256",
          "name": "",
          "type": "uint256"
        }
      ],
      "stateMutability": "nonpayable",
      "type": "function"
    },
    {
      "inputs": [
        {
          "internalType": "uint256",
          "name": "tokenId",
          "type": "uint256"
        }
      ],
      "name": "tokenExists",
      "outputs": [
        {
          "internalType": "uint8",
          "name": "",
          "type": "uint8"
        }
      ],
      "stateMutability": "view",
      "type": "function"
    },
    {
      "inputs": [
        {
          "internalType": "address",
          "name": "from",
          "type": "address"
        },
        {
          "internalType": "address",
          "name": "to",
          "type": "address"
        },
        {
          "internalType": "uint256",
          "name": "tokenId",
          "type": "uint256"
        }
      ],
      "name": "transferFrom",
      "outputs": [],
      "stateMutability": "nonpayable",
      "type": "function"
    },
    {
      "inputs": [
        {
          "internalType": "address",
          "name": "from",
          "type": "address"
        },
        {
          "internalType": "address",
          "name": "to",
          "type": "address"
        },
        {
          "internalType": "uint256",
          "name": "tokenId",
          "type": "uint256"
        }
      ],
      "name": "safeTransferFrom",
      "outputs": [],
      "stateMutability": "nonpayable",
      "type": "function"
    },
    {
      "inputs": [
        {
          "internalType": "address",
          "name": "from",
          "type": "address"
        },
        {
          "internalType": "address",
          "name": "to",
          "type": "address"
        },
        {
          "internalType": "uint256",
          "name": "tokenId",
          "type": "uint256"
        },
        {
          "internalType": "bytes",
          "name": "_data",
          "type": "bytes"
        }
      ],
      "name": "safeTransferFrom",
      "outputs": [],
      "stateMutability": "nonpayable",
      "type": "function"
    },
    {
      "inputs": [
        {
          "internalType": "uint256",
          "name": "tokenId",
          "type": "uint256"
        }
      ],
      "name": "discard",
      "outputs": [],
      "stateMutability": "nonpayable",
      "type": "function"
    },
    {
      "inputs": [
        {
          "internalType": "address",
          "name": "_recipientAddress",
          "type": "address"
        },
        {
          "internalType": "uint256",
          "name": "tokenId",
          "type": "uint256"
        }
      ],
      "name": "reMintAssetToken",
      "outputs": [
        {
          "internalType": "uint256",
          "name": "",
          "type": "uint256"
        }
      ],
      "stateMutability": "nonpayable",
      "type": "function"
    }
  ],
  "bytecode": "0x60806040523480156200001157600080fd5b5060405180604001604052806011815260200170282961de231020b9b9b2ba102a37b5b2b760791b8152506040518060400160405280600381526020016214105560ea1b81525060006200006a6200015860201b60201c565b600080546001600160a01b0319166001600160a01b0383169081178255604051929350917f8be0079c531659141344cd1fd0a4f28419497f9722a3daafe3b4186f6b6457e0908290a35060018055620000d36301ffc9a760e01b6001600160e01b036200015d16565b8151620000e8906008906020850190620001e2565b508051620000fe906009906020840190620001e2565b506200011a6380ac58cd60e01b6001600160e01b036200015d16565b62000135635b5e139f60e01b6001600160e01b036200015d16565b6200015063780e9d6360e01b6001600160e01b036200015d16565b505062000284565b335b90565b6001600160e01b03198082161415620001bd576040805162461bcd60e51b815260206004820152601c60248201527f4552433136353a20696e76616c696420696e7465726661636520696400000000604482015290519081900360640190fd5b6001600160e01b0319166000908152600260205260409020805460ff19166001179055565b828054600181600116156101000203166002900490600052602060002090601f016020900481019282601f106200022557805160ff191683800117855562000255565b8280016001018555821562000255579182015b828111156200025557825182559160200191906001019062000238565b506200026392915062000267565b5090565b6200015a91905b808211156200026357600081556001016200026e565b6133c980620002946000396000f3fe608060405234801561001057600080fd5b50600436106101a85760003560e01c80636c0360eb116100f957806395f23ec211610097578063c87b56dd11610071578063c87b56dd14610672578063d6b02ecf1461068f578063e985e9c5146106b5578063f2fde38b146106e3576101a8565b806395f23ec214610552578063a22cb4651461057e578063b88d4fde146105ac576101a8565b80637e8f2b0c116100d35780637e8f2b0c146104ae578063862440e2146104cb5780638da5cb5b1461054257806395d89b411461054a576101a8565b80636c0360eb1461047857806370a0823114610480578063715018a6146104a6576101a8565b806323b872dd116101665780634b9f23a4116101405780634b9f23a4146103b15780634f6ccce7146103b957806354a19c2b146103d65780636352211e1461045b576101a8565b806323b872dd146103195780632f745c591461034f57806342842e0e1461037b576101a8565b8062923f9e146101ad57806301ffc9a7146101e057806306fdde031461021b578063081812fc14610298578063095ea7b3146102d157806318160ddd146102ff575b600080fd5b6101ca600480360360208110156101c357600080fd5b5035610709565b6040805160ff9092168252519081900360200190f35b610207600480360360208110156101f657600080fd5b50356001600160e01b03191661072a565b604080519115158252519081900360200190f35b610223610749565b6040805160208082528351818301528351919283929083019185019080838360005b8381101561025d578181015183820152602001610245565b50505050905090810190601f16801561028a5780820380516001836020036101000a031916815260200191505b509250505060405180910390f35b6102b5600480360360208110156102ae57600080fd5b50356107e0565b604080516001600160a01b039092168252519081900360200190f35b6102fd600480360360408110156102e757600080fd5b506001600160a01b038135169060200135610842565b005b61030761091d565b60408051918252519081900360200190f35b6102fd6004803603606081101561032f57600080fd5b506001600160a01b0381358116916020810135909116906040013561092e565b6103076004803603604081101561036557600080fd5b506001600160a01b038135169060200135610ab2565b6102fd6004803603606081101561039157600080fd5b506001600160a01b03813581169160208101359091169060400135610ae3565b6102fd610b6f565b610307600480360360208110156103cf57600080fd5b5035610e12565b610307600480360360608110156103ec57600080fd5b6001600160a01b038235169160208101359181019060608101604082013564010000000081111561041c57600080fd5b82018360208201111561042e57600080fd5b8035906020019184600183028401116401000000008311171561045057600080fd5b509092509050610e2e565b6102b56004803603602081101561047157600080fd5b5035610f1c565b610223610f4a565b6103076004803603602081101561049657600080fd5b50356001600160a01b0316610fab565b6102fd611013565b6102fd600480360360208110156104c457600080fd5b50356110b5565b610307600480360360408110156104e157600080fd5b8135919081019060408101602082013564010000000081111561050357600080fd5b82018360208201111561051557600080fd5b8035906020019184600183028401116401000000008311171561053757600080fd5b5090925090506112f1565b6102b5611389565b610223611398565b6103076004803603604081101561056857600080fd5b506001600160a01b0381351690602001356113f9565b6102fd6004803603604081101561059457600080fd5b506001600160a01b0381351690602001351515611556565b6102fd600480360360808110156105c257600080fd5b6001600160a01b038235811692602081013590911691604082013591908101906080810160608201356401000000008111156105fd57600080fd5b82018360208201111561060f57600080fd5b8035906020019184600183028401116401000000008311171561063157600080fd5b91908080601f01602080910402602001604051908101604052809392919081815260200183838082843760009201919091525092955061165b945050505050565b6102236004803603602081101561068857600080fd5b5035611837565b6102fd600480360360208110156106a557600080fd5b50356001600160a01b0316611ade565b610207600480360360408110156106cb57600080fd5b506001600160a01b0381358116916020013516611b9d565b6102fd600480360360208110156106f957600080fd5b50356001600160a01b0316611bcb565b600061071482611cc3565b15610721575060aa610725565b5060005b919050565b6001600160e01b03191660009081526002602052604090205460ff1690565b60088054604080516020601f60026000196101006001881615020190951694909404938401819004810282018101909252828152606093909290918301828280156107d55780601f106107aa576101008083540402835291602001916107d5565b820191906000526020600020905b8154815290600101906020018083116107b857829003601f168201915b505050505090505b90565b60006107eb82611cc3565b6108265760405162461bcd60e51b815260040180806020018281038252602c81526020018061318e602c913960400191505060405180910390fd5b506000908152600660205260409020546001600160a01b031690565b600061084d82610f1c565b9050806001600160a01b0316836001600160a01b031614156108a05760405162461bcd60e51b81526004018080602001828103825260218152602001806133126021913960400191505060405180910390fd5b806001600160a01b03166108b2611cd6565b6001600160a01b031614806108d357506108d3816108ce611cd6565b611b9d565b61090e5760405162461bcd60e51b81526004018080602001828103825260388152602001806130866038913960400191505060405180910390fd5b6109188383611cda565b505050565b60006109296004611d48565b905090565b60026001541415610974576040805162461bcd60e51b815260206004820152601f6024820152600080516020612f08833981519152604482015290519081900360640190fd5b600260015580610982612da2565b61098b82611d53565b9050806060015160ff16604614156109d45760405162461bcd60e51b815260040180806020018281038252602c815260200180613285602c913960400191505060405180910390fd5b806060015160ff16603314610a1a5760405162461bcd60e51b8152600401808060200182810382526028815260200180612f636028913960400191505060405180910390fd5b610a2b610a25611cd6565b84611efe565b610a665760405162461bcd60e51b81526004018080602001828103825260308152602001806130566030913960400191505060405180910390fd5b61ff3781610160015161ffff161015610a8a576101608101805160010161ffff1690525b6000196020820152610a9c8282611f9a565b610aa7858585612040565b505060018055505050565b6001600160a01b0382166000908152600360205260408120610ada908363ffffffff61219e16565b90505b92915050565b60026001541415610b29576040805162461bcd60e51b815260206004820152601f6024820152600080516020612f08833981519152604482015290519081900360640190fd5b600260015580610b37612da2565b610b4082611d53565b60001960208201529050610b548282611f9a565b610aa78585856040518060200160405280600081525061165b565b60026001541415610bb5576040805162461bcd60e51b815260206004820152601f6024820152600080516020612f08833981519152604482015290519081900360640190fd5b6002600155610bc2611cd6565b6000546001600160a01b03908116911614610c12576040805162461bcd60e51b8152602060048201819052602482015260008051602061320d833981519152604482015290519081900360640190fd5b600f54604080516363b8d4c160e11b815260206004820181905260066024830152654150505f4e4360d01b604483015291516001600160a01b039093169263c771a982926064808401939192918290030181600087803b158015610c7557600080fd5b505af1158015610c89573d6000803e3d6000fd5b505050506040513d6020811015610c9f57600080fd5b5051600c80546001600160a01b0319166001600160a01b03928316179055600f54604080516363b8d4c160e11b8152602060048201819052600360248301526204150560ec1b60448301529151929093169263c771a98292606480830193928290030181600087803b158015610d1457600080fd5b505af1158015610d28573d6000803e3d6000fd5b505050506040513d6020811015610d3e57600080fd5b5051600d80546001600160a01b0319166001600160a01b03928316179055600f54604080516363b8d4c160e11b8152602060048083018290526024830152632921a62960e11b60448301529151929093169263c771a98292606480830193928290030181600087803b158015610db357600080fd5b505af1158015610dc7573d6000803e3d6000fd5b505050506040513d6020811015610ddd57600080fd5b5051601080546001600160a01b03199081166001600160a01b0393841617918290556011805492909316911617905560018055565b600080610e2660048463ffffffff6121aa16565b509392505050565b600d546000906001600160a01b0316331480610e545750600c546001600160a01b031633145b80610e6957506010546001600160a01b031633145b80610e8c5750610e77611389565b6001600160a01b0316336001600160a01b0316145b610ec75760405162461bcd60e51b81526004018080602001828103825260328152602001806131116032913960400191505060405180910390fd5b610ed185856121c6565b610f118484848080601f0160208091040260200160405190810160405280939291908181526020018383808284376000920191909152506121e492505050565b50825b949350505050565b6000610add826040518060600160405280602981526020016130e8602991396004919063ffffffff61224716565b600b8054604080516020601f60026000196101006001881615020190951694909404938401819004810282018101909252828152606093909290918301828280156107d55780601f106107aa576101008083540402835291602001916107d5565b60006001600160a01b038216610ff25760405162461bcd60e51b815260040180806020018281038252602a8152602001806130be602a913960400191505060405180910390fd5b6001600160a01b0382166000908152600360205260409020610add90611d48565b61101b611cd6565b6000546001600160a01b0390811691161461106b576040805162461bcd60e51b8152602060048201819052602482015260008051602061320d833981519152604482015290519081900360640190fd5b600080546040516001600160a01b03909116907f8be0079c531659141344cd1fd0a4f28419497f9722a3daafe3b4186f6b6457e0908390a3600080546001600160a01b0319169055565b600260015414156110fb576040805162461bcd60e51b815260206004820152601f6024820152600080516020612f08833981519152604482015290519081900360640190fd5b6002600155600d546001600160a01b03163314806111235750600c546001600160a01b031633145b8061113857506010546001600160a01b031633145b8061115b5750611146611389565b6001600160a01b0316336001600160a01b0316145b6111965760405162461bcd60e51b81526004018080602001828103825260328152602001806131116032913960400191505060405180910390fd5b8061119f612da2565b6111a882611d53565b90506111b383611cc3565b6111ee5760405162461bcd60e51b8152600401808060200182810382526023815260200180612fe36023913960400191505060405180910390fd5b806060015160ff16603b146112345760405162461bcd60e51b815260040180806020018281038252603b815260200180612f28603b913960400191505060405180910390fd5b61123f610a25611cd6565b61127a5760405162461bcd60e51b815260040180806020018281038252602f815260200180613333602f913960400191505060405180910390fd5b601154604080516372cd766760e01b81526004810185905290516001600160a01b03909216916372cd76679160248082019260009290919082900301818387803b1580156112c757600080fd5b505af11580156112db573d6000803e3d6000fd5b505050506112e883612254565b50506001805550565b60006113046112fe611cd6565b85611efe565b61133f5760405162461bcd60e51b81526004018080602001828103825260308152602001806130566030913960400191505060405180910390fd5b61137f8484848080601f0160208091040260200160405190810160405280939291908181526020018383808284376000920191909152506121e492505050565b50825b9392505050565b6000546001600160a01b031690565b60098054604080516020601f60026000196101006001881615020190951694909404938401819004810282018101909252828152606093909290918301828280156107d55780601f106107aa576101008083540402835291602001916107d5565b600d546000906001600160a01b031633148061141f5750600c546001600160a01b031633145b8061143457506010546001600160a01b031633145b806114575750611442611389565b6001600160a01b0316336001600160a01b0316145b6114925760405162461bcd60e51b81526004018080602001828103825260328152602001806131116032913960400191505060405180910390fd5b600260015414156114d8576040805162461bcd60e51b815260206004820152601f6024820152600080516020612f08833981519152604482015290519081900360640190fd5b60026001556114e682611cc3565b6115215760405162461bcd60e51b81526004018080602001828103825260268152602001806132ec6026913960400191505060405180910390fd5b606061152c83611837565b905061153783612254565b61154184846121c6565b61154b83826121e4565b505060018055919050565b61155e611cd6565b6001600160a01b0316826001600160a01b031614156115c4576040805162461bcd60e51b815260206004820152601960248201527f4552433732313a20617070726f766520746f2063616c6c657200000000000000604482015290519081900360640190fd5b80600760006115d1611cd6565b6001600160a01b03908116825260208083019390935260409182016000908120918716808252919093529120805460ff191692151592909217909155611615611cd6565b60408051841515815290516001600160a01b0392909216917f17307eab39ab6107e8899845ad3d59bd9653f200f220920489ca2b5937696c319181900360200190a35050565b81611664612da2565b61166d82611d53565b9050806060015160ff1660461415806117145750600f5460a0820151604080516357710cd560e11b81526001600160a01b03898116600483015261ffff90931660248201529051600093929092169163aee219aa9160448082019260209290919082900301818787803b1580156116e357600080fd5b505af11580156116f7573d6000803e3d6000fd5b505050506040513d602081101561170d57600080fd5b505160ff16115b61174f5760405162461bcd60e51b815260040180806020018281038252603b8152602001806132b1603b913960400191505060405180910390fd5b806060015160ff166033148061176c5750806060015160ff166046145b6117a75760405162461bcd60e51b81526004018080602001828103825260298152602001806131656029913960400191505060405180910390fd5b6117b26112fe611cd6565b6117ed5760405162461bcd60e51b81526004018080602001828103825260328152602001806133626032913960400191505060405180910390fd5b61ff3781610160015161ffff161015611811576101608101805160010161ffff1690525b60001960208201526118238282611f9a565b61182f8686868661232d565b505050505050565b606061184282611cc3565b61187d5760405162461bcd60e51b815260040180806020018281038252602f815260200180613256602f913960400191505060405180910390fd5b6000828152600a602090815260409182902080548351601f60026000196101006001861615020190931692909204918201849004840281018401909452808452606093928301828280156119125780601f106118e757610100808354040283529160200191611912565b820191906000526020600020905b8154815290600101906020018083116118f557829003601f168201915b5050600b549394505050506002600019610100600184161502019091160461193b579050610725565b805115611a0c57600b8160405160200180838054600181600116156101000203166002900480156119a35780601f106119815761010080835404028352918201916119a3565b820191906000526020600020905b81548152906001019060200180831161198f575b5050825160208401908083835b602083106119cf5780518252601f1990920191602091820191016119b0565b6001836020036101000a03801982511681845116808217855250505050505090500192505050604051602081830303815290604052915050610725565b600b611a1784612385565b6040516020018083805460018160011615610100020316600290048015611a755780601f10611a53576101008083540402835291820191611a75565b820191906000526020600020905b815481529060010190602001808311611a61575b5050825160208401908083835b60208310611aa15780518252601f199092019160209182019101611a82565b6001836020036101000a03801982511681845116808217855250505050505090500192505050604051602081830303815290604052915050919050565b611ae6611cd6565b6000546001600160a01b03908116911614611b36576040805162461bcd60e51b8152602060048201819052602482015260008051602061320d833981519152604482015290519081900360640190fd5b6001600160a01b038116611b7b5760405162461bcd60e51b81526004018080602001828103825260278152602001806131e66027913960400191505060405180910390fd5b600f80546001600160a01b0319166001600160a01b0392909216919091179055565b6001600160a01b03918216600090815260076020908152604080832093909416825291909152205460ff1690565b611bd3611cd6565b6000546001600160a01b03908116911614611c23576040805162461bcd60e51b8152602060048201819052602482015260008051602061320d833981519152604482015290519081900360640190fd5b6001600160a01b038116611c685760405162461bcd60e51b8152600401808060200182810382526026815260200180612fbd6026913960400191505060405180910390fd5b600080546040516001600160a01b03808516939216917f8be0079c531659141344cd1fd0a4f28419497f9722a3daafe3b4186f6b6457e091a3600080546001600160a01b0319166001600160a01b0392909216919091179055565b6000610add60048363ffffffff61246016565b3390565b600081815260066020526040902080546001600160a01b0319166001600160a01b0384169081179091558190611d0f82610f1c565b6001600160a01b03167f8c5be1e5ebec7d5bd14f71427d1e84f3dd0314c0f7b2291e5b200ac8c7c3b92560405160405180910390a45050565b6000610add8261246c565b611d5b612da2565b611d63612da2565b6000806000806000806000806000600f60009054906101000a90046001600160a01b03166001600160a01b031663e248f2c48d6040518263ffffffff1660e01b81526004018082815260200191505061012060405180830381600087803b158015611dcd57600080fd5b505af1158015611de1573d6000803e3d6000fd5b505050506040513d610120811015611df857600080fd5b81019080805190602001909291908051906020019092919080519060200190929190805190602001909291908051906020019092919080519060200190929190805190602001909291908051906020019092919080519060200190929190505050985098509850985098509850985098509850888a6020018181525050878a6060019060ff16908160ff1681525050868a6080019060ff16908160ff1681525050858a60a0019061ffff16908161ffff1681525050848a60c0018181525050838a60e0018181525050828a610100018181525050818a610120018181525050808a610160019061ffff16908161ffff168152505050505050505050505080915050919050565b6000611f0982611cc3565b611f445760405162461bcd60e51b815260040180806020018281038252602c81526020018061302a602c913960400191505060405180910390fd5b6000611f4f83610f1c565b9050806001600160a01b0316846001600160a01b03161480611f8a5750836001600160a01b0316611f7f846107e0565b6001600160a01b0316145b80610f145750610f148185611b9d565b600f546020820151606083015160c08401516080850151610160860151604080516302ee483d60e11b8152600481018a9052602481019690965260ff948516604487015260648601939093529216608484015261ffff90911660a4830152516001600160a01b03909216916305dc907a9160c48082019260009290919082900301818387803b15801561202c57600080fd5b505af115801561182f573d6000803e3d6000fd5b826001600160a01b031661205382610f1c565b6001600160a01b0316146120985760405162461bcd60e51b815260040180806020018281038252602981526020018061322d6029913960400191505060405180910390fd5b6001600160a01b0382166120dd5760405162461bcd60e51b81526004018080602001828103825260248152602001806130066024913960400191505060405180910390fd5b6120e8838383610918565b6120f3600082611cda565b6001600160a01b038316600090815260036020526040902061211b908263ffffffff61247016565b506001600160a01b0382166000908152600360205260409020612144908263ffffffff61247c16565b506121576004828463ffffffff61248816565b5080826001600160a01b0316846001600160a01b03167fddf252ad1be2c89b69c2b068fc378daa952ba7f163c4a11628f55a4df523b3ef60405160405180910390a4505050565b6000610ada838361249e565b60008080806121b98686612502565b9097909650945050505050565b6121e082826040518060200160405280600081525061257d565b5050565b6121ed82611cc3565b6122285760405162461bcd60e51b815260040180806020018281038252602c8152602001806131ba602c913960400191505060405180910390fd5b6000828152600a60209081526040909120825161091892840190612e06565b6000610f148484846125cf565b600061225f82610f1c565b905061226d81600084610918565b612278600083611cda565b6000828152600a602052604090205460026000196101006001841615020190911604156122b6576000828152600a602052604081206122b691612e84565b6001600160a01b03811660009081526003602052604090206122de908363ffffffff61247016565b506122f060048363ffffffff61269916565b5060405182906000906001600160a01b038416907fddf252ad1be2c89b69c2b068fc378daa952ba7f163c4a11628f55a4df523b3ef908390a45050565b612338848484612040565b612344848484846126a5565b61237f5760405162461bcd60e51b8152600401808060200182810382526032815260200180612f8b6032913960400191505060405180910390fd5b50505050565b6060816123aa57506040805180820190915260018152600360fc1b6020820152610725565b8160005b81156123c257600101600a820491506123ae565b60608167ffffffffffffffff811180156123db57600080fd5b506040519080825280601f01601f191660200182016040528015612406576020820181803683370190505b50859350905060001982015b831561245757600a840660300160f81b8282806001900393508151811061243557fe5b60200101906001600160f81b031916908160001a905350600a84049350612412565b50949350505050565b6000610ada8383612825565b5490565b6000610ada838361283d565b6000610ada8383612903565b6000610f1484846001600160a01b03851661294d565b815460009082106124e05760405162461bcd60e51b8152600401808060200182810382526022815260200180612ee66022913960400191505060405180910390fd5b8260000182815481106124ef57fe5b9060005260206000200154905092915050565b8154600090819083106125465760405162461bcd60e51b81526004018080602001828103825260228152602001806131436022913960400191505060405180910390fd5b600084600001848154811061255757fe5b906000526020600020906002020190508060000154816001015492509250509250929050565b61258783836129e4565b61259460008484846126a5565b6109185760405162461bcd60e51b8152600401808060200182810382526032815260200180612f8b6032913960400191505060405180910390fd5b6000828152600184016020526040812054828161266a5760405162461bcd60e51b81526004018080602001828103825283818151815260200191508051906020019080838360005b8381101561262f578181015183820152602001612617565b50505050905090810190601f16801561265c5780820380516001836020036101000a031916815260200191505b509250505060405180910390fd5b5084600001600182038154811061267d57fe5b9060005260206000209060020201600101549150509392505050565b6000610ada8383612b1e565b60006126b9846001600160a01b0316612bf2565b6126c557506001610f14565b60606127eb630a85bd0160e11b6126da611cd6565b88878760405160240180856001600160a01b03166001600160a01b03168152602001846001600160a01b03166001600160a01b0316815260200183815260200180602001828103825283818151815260200191508051906020019080838360005b8381101561275357818101518382015260200161273b565b50505050905090810190601f1680156127805780820380516001836020036101000a031916815260200191505b5095505050505050604051602081830303815290604052906001600160e01b0319166020820180516001600160e01b038381831617835250505050604051806060016040528060328152602001612f8b603291396001600160a01b038816919063ffffffff612c2b16565b9050600081806020019051602081101561280457600080fd5b50516001600160e01b031916630a85bd0160e11b1492505050949350505050565b60009081526001919091016020526040902054151590565b600081815260018301602052604081205480156128f9578354600019808301919081019060009087908390811061287057fe5b906000526020600020015490508087600001848154811061288d57fe5b6000918252602080832090910192909255828152600189810190925260409020908401905586548790806128bd57fe5b60019003818190600052602060002001600090559055866001016000878152602001908152602001600020600090556001945050505050610add565b6000915050610add565b600061290f8383612825565b61294557508154600181810184556000848152602080822090930184905584548482528286019093526040902091909155610add565b506000610add565b6000828152600184016020526040812054806129b2575050604080518082018252838152602080820184815286546001818101895560008981528481209551600290930290950191825591519082015586548684528188019092529290912055611382565b828560000160018303815481106129c557fe5b9060005260206000209060020201600101819055506000915050611382565b6001600160a01b038216612a3f576040805162461bcd60e51b815260206004820181905260248201527f4552433732313a206d696e7420746f20746865207a65726f2061646472657373604482015290519081900360640190fd5b612a4881611cc3565b15612a9a576040805162461bcd60e51b815260206004820152601c60248201527f4552433732313a20746f6b656e20616c7265616479206d696e74656400000000604482015290519081900360640190fd5b612aa660008383610918565b6001600160a01b0382166000908152600360205260409020612ace908263ffffffff61247c16565b50612ae16004828463ffffffff61248816565b5060405181906001600160a01b038416906000907fddf252ad1be2c89b69c2b068fc378daa952ba7f163c4a11628f55a4df523b3ef908290a45050565b600081815260018301602052604081205480156128f95783546000198083019190810190600090879083908110612b5157fe5b9060005260206000209060020201905080876000018481548110612b7157fe5b600091825260208083208454600290930201918255600193840154918401919091558354825289830190526040902090840190558654879080612bb057fe5b6000828152602080822060026000199094019384020182815560019081018390559290935588815289820190925260408220919091559450610add9350505050565b6000813f7fc5d2460186f7233c927e7db2dcc703c0e500b653ca82273b7bfad8045d85a470818114801590610f14575050151592915050565b6060610f1484846000856060612c4085612bf2565b612c91576040805162461bcd60e51b815260206004820152601d60248201527f416464726573733a2063616c6c20746f206e6f6e2d636f6e7472616374000000604482015290519081900360640190fd5b60006060866001600160a01b031685876040518082805190602001908083835b60208310612cd05780518252601f199092019160209182019101612cb1565b6001836020036101000a03801982511681845116808217855250505050505090500191505060006040518083038185875af1925050503d8060008114612d32576040519150601f19603f3d011682016040523d82523d6000602084013e612d37565b606091505b50915091508115612d4b579150610f149050565b805115612d5b5780518082602001fd5b60405162461bcd60e51b815260206004820181815286516024840152865187939192839260440191908501908083836000831561262f578181015183820152602001612617565b6040805161018081018252600080825260208201819052918101829052606081018290526080810182905260a0810182905260c0810182905260e0810182905261010081018290526101208101829052610140810182905261016081019190915290565b828054600181600116156101000203166002900490600052602060002090601f016020900481019282601f10612e4757805160ff1916838001178555612e74565b82800160010185558215612e74579182015b82811115612e74578251825591602001919060010190612e59565b50612e80929150612ecb565b5090565b50805460018160011615610100020316600290046000825580601f10612eaa5750612ec8565b601f016020900490600052602060002090810190612ec89190612ecb565b50565b6107dd91905b80821115612e805760008155600101612ed156fe456e756d657261626c655365743a20696e646578206f7574206f6620626f756e64735265656e7472616e637947756172643a207265656e7472616e742063616c6c005041543a443a4173736574206d75737420626520696e2073746174757320353920286469736361726461626c652920746f206265206275726e65645041543a54463a4173736574206e6f7420696e207472616e736665727261626c65207374617475734552433732313a207472616e7366657220746f206e6f6e20455243373231526563656976657220696d706c656d656e7465724f776e61626c653a206e6577206f776e657220697320746865207a65726f20616464726573735041543a443a43616e6e6f74204275726e206e6f6e6578697374616e7420746f6b656e4552433732313a207472616e7366657220746f20746865207a65726f20616464726573734552433732313a206f70657261746f7220717565727920666f72206e6f6e6578697374656e7420746f6b656e5041543a54463a7472616e736665722063616c6c6572206973206e6f74206f776e6572206e6f7220617070726f7665644552433732313a20617070726f76652063616c6c6572206973206e6f74206f776e6572206e6f7220617070726f76656420666f7220616c6c4552433732313a2062616c616e636520717565727920666f7220746865207a65726f20616464726573734552433732313a206f776e657220717565727920666f72206e6f6e6578697374656e7420746f6b656e5041543a49413a43616c6c696e67206164647265737320646f6573206e6f742062656c6f6e6720746f20616e2041646d696e456e756d657261626c654d61703a20696e646578206f7574206f6620626f756e64735041543a5354463a4173736574206e6f7420696e207472616e736665727261626c65207374617475734552433732313a20617070726f76656420717565727920666f72206e6f6e6578697374656e7420746f6b656e4552433732314d657461646174613a2055524920736574206f66206e6f6e6578697374656e7420746f6b656e5041543a5353433a2073746f7261676520616464726573732063616e6e6f74206265207a65726f4f776e61626c653a2063616c6c6572206973206e6f7420746865206f776e65724552433732313a207472616e73666572206f6620746f6b656e2074686174206973206e6f74206f776e4552433732314d657461646174613a2055524920717565727920666f72206e6f6e6578697374656e7420746f6b656e5041543a54463a5573652061757468416464726573735472616e7366657220666f72207374617475732037305041543a5354463a43616e6e6f742073656e642073746174757320373020617373657420746f20756e617574686f72697a656420616464726573735041543a524d3a43616e6e6f742052656d696e74206e6f6e6578697374616e7420746f6b656e4552433732313a20617070726f76616c20746f2063757272656e74206f776e65725041543a443a7472616e736665722063616c6c6572206973206e6f74206f776e6572206e6f7220617070726f7665645041543a5354463a207472616e736665722063616c6c6572206973206e6f74206f776e6572206e6f7220617070726f766564a2646970667358221220054e285e25682b80674fe5ed458a849a530bec5fefd61f0fb0a3a81caa8bfa8b64736f6c63430006090033",
  "source": "/*-----------------------------------------------------------V0.6.7\r\n__/\\\\\\\\\\\\\\\\\\\\\\\\\\ _____/\\\\\\\\\\\\\\\\\\ _______/\\\\../\\\\ ___/\\\\\\\\\\\\\\\\\\\\\\\\\\\\\\\r\n _\\/\\\\\\/////////\\\\\\ _/\\\\\\///////\\\\\\ ____\\//..\\//____\\/\\\\\\///////////__\r\n  _\\/\\\\\\.......\\/\\\\\\.\\/\\\\\\.....\\/\\\\\\ ________________\\/\\\\\\ ____________\r\n   _\\/\\\\\\\\\\\\\\\\\\\\\\\\\\/__\\/\\\\\\\\\\\\\\\\\\\\\\/_____/\\\\\\____/\\\\\\.\\/\\\\\\\\\\\\\\\\\\\\\\ ____\r\n    _\\/\\\\\\/////////____\\/\\\\\\//////\\\\\\ ___\\/\\\\\\___\\/\\\\\\.\\/\\\\\\///////______\r\n     _\\/\\\\\\ ____________\\/\\\\\\ ___\\//\\\\\\ __\\/\\\\\\___\\/\\\\\\.\\/\\\\\\ ____________\r\n      _\\/\\\\\\ ____________\\/\\\\\\ ____\\//\\\\\\ _\\/\\\\\\___\\/\\\\\\.\\/\\\\\\ ____________\r\n       _\\/\\\\\\ ____________\\/\\\\\\ _____\\//\\\\\\.\\//\\\\\\\\\\\\\\\\\\ _\\/\\\\\\ ____________\r\n        _\\/// _____________\\/// _______\\/// __\\///////// __\\/// _____________\r\n         *-------------------------------------------------------------------*/\r\n\r\n/*-----------------------------------------------------------------\r\n *  TO DO\r\n *\r\n *---------------------------------------------------------------*/\r\n\r\n// SPDX-License-Identifier: UNLICENSED\r\npragma solidity ^0.6.7;\r\n\r\nimport \"./_ERC721/ERC721.sol\";\r\nimport \"./_ERC721/Ownable.sol\";\r\nimport \"./PRUF_INTERFACES.sol\";\r\nimport \"./Imports/ReentrancyGuard.sol\";\r\n\r\ncontract A_TKN is Ownable, ReentrancyGuard, ERC721 {\r\n    struct Record {\r\n        bytes32 recorder; // Address hash of recorder\r\n        bytes32 rightsHolder; // KEK256 Registered owner\r\n        bytes32 lastRecorder; // Address hash of last non-automation recorder\r\n        uint8 assetStatus; // Status - Transferrable, locked, in transfer, stolen, lost, etc.\r\n        uint8 forceModCount; // Number of times asset has been forceModded.\r\n        uint16 assetClass; // Type of asset\r\n        uint256 countDown; // Variable that can only be dencreased from countDownStart\r\n        uint256 countDownStart; // Starting point for countdown variable (set once)\r\n        bytes32 Ipfs1; // Publically viewable asset description\r\n        bytes32 Ipfs2; // Publically viewable immutable notes\r\n        uint256 timeLock; // Time sensitive mutex\r\n        uint16 numberOfTransfers; //number of transfers and forcemods\r\n    }\r\n\r\n    constructor() public ERC721(\"PRF Asset Token\", \"PAT\") {}\r\n\r\n    address internal T_PrufAppAddress; //isAdmin\r\n    address internal PrufAppAddress; //isAdmin\r\n    address internal storageAddress;\r\n    STOR_Interface internal Storage; // Set up external contract interface\r\n    address internal recyclerAddress;\r\n    RCLR_Interface internal Recycler;\r\n\r\n    event REPORT(string _msg);\r\n\r\n    modifier isAdmin() {\r\n        require(\r\n            (msg.sender == PrufAppAddress) ||\r\n                (msg.sender == T_PrufAppAddress) ||\r\n                (msg.sender == recyclerAddress) ||\r\n                (msg.sender == owner()),\r\n            \"PAT:IA:Calling address does not belong to an Admin\"\r\n        );\r\n        _;\r\n    }\r\n\r\n    //----------------------Internal Admin functions / onlyowner or isAdmin----------------------//\r\n\r\n    /*\r\n     * @dev Set storage contract to interface with\r\n     */\r\n    function OO_setStorageContract(address _storageAddress) external onlyOwner {\r\n        require(\r\n            _storageAddress != address(0),\r\n            \"PAT:SSC: storage address cannot be zero\"\r\n        );\r\n        //^^^^^^^checks^^^^^^^^^\r\n\r\n        Storage = STOR_Interface(_storageAddress);\r\n        //^^^^^^^effects^^^^^^^^^\r\n    }\r\n\r\n    /*\r\n     * @dev Address Setters\r\n     */\r\n    function OO_ResolveContractAddresses() external nonReentrant onlyOwner {\r\n        //^^^^^^^checks^^^^^^^^^\r\n\r\n        T_PrufAppAddress = Storage.resolveContractAddress(\"APP_NC\");\r\n        PrufAppAddress = Storage.resolveContractAddress(\"APP\");\r\n\r\n        recyclerAddress = Storage.resolveContractAddress(\"RCLR\");\r\n        Recycler = RCLR_Interface(recyclerAddress);\r\n        //^^^^^^^effects^^^^^^^^^\r\n    }\r\n\r\n    /*\r\n     * @dev Mint new token\r\n     *\r\n     */\r\n    function mintAssetToken(\r\n        address _recipientAddress,\r\n        uint256 tokenId,\r\n        string calldata _tokenURI\r\n    ) external isAdmin returns (uint256) {\r\n        //^^^^^^^checks^^^^^^^^^\r\n\r\n        //MAKE URI ASSET SPECIFIC- has to incorporate the token ID\r\n        _safeMint(_recipientAddress, tokenId);\r\n        _setTokenURI(tokenId, _tokenURI);\r\n        return tokenId;\r\n        //^^^^^^^interactions^^^^^^^^^\r\n    }\r\n\r\n    /*\r\n     * @dev Set new token URI String\r\n     */\r\n    function setURI(uint256 tokenId, string calldata _tokenURI)\r\n        external\r\n        returns (uint256)\r\n    {\r\n        require(\r\n            _isApprovedOrOwner(_msgSender(), tokenId),\r\n            \"PAT:TF:transfer caller is not owner nor approved\"\r\n        );\r\n        //^^^^^^^checks^^^^^^^^^\r\n\r\n        _setTokenURI(tokenId, _tokenURI);\r\n        return tokenId;\r\n        //^^^^^^^interactions^^^^^^^^^\r\n    }\r\n\r\n    /*\r\n     * @dev See if token exists\r\n     */\r\n    function tokenExists(uint256 tokenId) external view returns (uint8) {\r\n        if (_exists(tokenId)) {\r\n            return 170;\r\n        } else {\r\n            return 0;\r\n        }\r\n    }\r\n\r\n    /**\r\n     * @dev Transfers the ownership of a given token ID to another address.\r\n     * Usage of this method is discouraged, use {safeTransferFrom} whenever possible.\r\n     * Requires the msg.sender to be the owner, approved, or operator.\r\n     * @param from current owner of the token\r\n     * @param to address to receive the ownership of the given token ID\r\n     * @param tokenId uint256 ID of the token to be transferred\r\n     */\r\n    function transferFrom(\r\n        address from,\r\n        address to,\r\n        uint256 tokenId\r\n    ) public override nonReentrant {\r\n        bytes32 _idxHash = bytes32(tokenId);\r\n        Record memory rec = getRecord(_idxHash);\r\n\r\n        require(\r\n            rec.assetStatus != 70,\r\n            \"PAT:TF:Use authAddressTransfer for status 70\"\r\n        );\r\n        require(\r\n            rec.assetStatus == 51,\r\n            \"PAT:TF:Asset not in transferrable status\"\r\n        );\r\n        require(\r\n            _isApprovedOrOwner(_msgSender(), tokenId),\r\n            \"PAT:TF:transfer caller is not owner nor approved\"\r\n        );\r\n        //^^^^^^^checks^^^^^^^^\r\n\r\n        if (rec.numberOfTransfers < 65335) {\r\n            rec.numberOfTransfers++;\r\n        }\r\n\r\n        rec\r\n            .rightsHolder = 0xFFFFFFFFFFFFFFFFFFFFFFFFFFFFFFFFFFFFFFFFFFFFFFFFFFFFFFFFFFFFFFFF;\r\n        //^^^^^^^effects^^^^^^^^^\r\n\r\n        writeRecord(_idxHash, rec);\r\n        _transfer(from, to, tokenId);\r\n        //^^^^^^^interactions^^^^^^^^^\r\n    }\r\n\r\n    /**\r\n     * @dev Safely transfers the ownership of a given token ID to another address\r\n     * If the target address is a contract, it must implement {IERC721Receiver-onERC721Received},\r\n     * which is called upon a safe transfer, and return the magic value\r\n     * `bytes4(keccak256(\"onERC721Received(address,address,uint256,bytes)\"))`; otherwise,\r\n     * the transfer is reverted.\r\n     * Requires the msg.sender to be the owner, approved, or operator\r\n     * @param from current owner of the token\r\n     * @param to address to receive the ownership of the given token ID\r\n     * @param tokenId uint256 ID of the token to be transferred\r\n     */\r\n    function safeTransferFrom(\r\n        address from,\r\n        address to,\r\n        uint256 tokenId\r\n    ) public override nonReentrant {\r\n        bytes32 _idxHash = bytes32(tokenId);\r\n        Record memory rec = getRecord(_idxHash);\r\n\r\n        //^^^^^^^checks^^^^^^^^^\r\n\r\n        rec\r\n            .rightsHolder = 0xFFFFFFFFFFFFFFFFFFFFFFFFFFFFFFFFFFFFFFFFFFFFFFFFFFFFFFFFFFFFFFFF;\r\n        //^^^^^^^effects^^^^^^^^^\r\n\r\n        writeRecord(_idxHash, rec);\r\n        safeTransferFrom(from, to, tokenId, \"\");\r\n        //^^^^^^^interactions^^^^^^^^^\r\n    }\r\n\r\n    /**\r\n     * @dev Safely transfers the ownership of a given token ID to another address\r\n     * If the target address is a contract, it must implement {IERC721Receiver-onERC721Received},\r\n     * which is called upon a safe transfer, and return the magic value\r\n     * `bytes4(keccak256(\"onERC721Received(address,address,uint256,bytes)\"))`; otherwise,\r\n     * the transfer is reverted.\r\n     * Requires the _msgSender() to be the owner, approved, or operator\r\n     * @param from current owner of the token\r\n     * @param to address to receive the ownership of the given token ID\r\n     * @param tokenId uint256 ID of the token to be transferred\r\n     * @param _data bytes data to send along with a safe transfer check\r\n     */\r\n    function safeTransferFrom(\r\n        address from,\r\n        address to,\r\n        uint256 tokenId,\r\n        bytes memory _data\r\n    ) public virtual override {\r\n        bytes32 _idxHash = bytes32(tokenId);\r\n        Record memory rec = getRecord(_idxHash);\r\n\r\n        require(\r\n            (rec.assetStatus != 70) ||\r\n                (Storage.ContractAuthType(to, rec.assetClass) > 0),\r\n            \"PAT:STF:Cannot send status 70 asset to unauthorized address\"\r\n        );\r\n        require(\r\n            (rec.assetStatus == 51) || (rec.assetStatus == 70),\r\n            \"PAT:STF:Asset not in transferrable status\"\r\n        );\r\n        require(\r\n            _isApprovedOrOwner(_msgSender(), tokenId),\r\n            \"PAT:STF: transfer caller is not owner nor approved\"\r\n        );\r\n        //^^^^^^^checks^^^^^^^^^\r\n\r\n        if (rec.numberOfTransfers < 65335) {\r\n            rec.numberOfTransfers++;\r\n        }\r\n\r\n        rec\r\n            .rightsHolder = 0xFFFFFFFFFFFFFFFFFFFFFFFFFFFFFFFFFFFFFFFFFFFFFFFFFFFFFFFFFFFFFFFF;\r\n        //^^^^^^^effects^^^^^^^^^\r\n\r\n        writeRecord(_idxHash, rec);\r\n        _safeTransfer(from, to, tokenId, _data);\r\n        //^^^^^^^interactions^^^^^^^^^\r\n    }\r\n\r\n    /**\r\n     * @dev Safely burns a token and sets the corresponding RGT to zero in storage.\r\n     */\r\n    function discard(uint256 tokenId) external nonReentrant isAdmin {\r\n        bytes32 _idxHash = bytes32(tokenId);\r\n        Record memory rec = getRecord(_idxHash);\r\n        require(_exists(tokenId), \"PAT:D:Cannot Burn nonexistant token\");\r\n        require(\r\n            (rec.assetStatus == 59),\r\n            \"PAT:D:Asset must be in status 59 (discardable) to be burned\"\r\n        );\r\n        require(\r\n            _isApprovedOrOwner(_msgSender(), tokenId),\r\n            \"PAT:D:transfer caller is not owner nor approved\"\r\n        );\r\n        //^^^^^^^checks^^^^^^^^^\r\n        Recycler.discard(_idxHash);\r\n        _burn(tokenId);\r\n        //^^^^^^^interactions^^^^^^^^^\r\n    }\r\n\r\n    /*\r\n     * Authorizations?\r\n     * @dev remint Asset Token\r\n     * must set a new and unuiqe rgtHash\r\n     * burns old token\r\n     * Sends new token to original Caller\r\n     */\r\n    function reMintAssetToken(address _recipientAddress, uint256 tokenId)\r\n        external\r\n        isAdmin\r\n        nonReentrant\r\n        returns (uint256)\r\n    {\r\n        require(_exists(tokenId), \"PAT:RM:Cannot Remint nonexistant token\");\r\n        //^^^^^^^checks^^^^^^^^^\r\n        string memory tokenURI = tokenURI(tokenId);\r\n        _burn(tokenId);\r\n        _safeMint(_recipientAddress, tokenId);\r\n        _setTokenURI(tokenId, tokenURI);\r\n        return tokenId;\r\n        //^^^^^^^interactions^^^^^^^^^\r\n    }\r\n\r\n    /*\r\n     * @dev Write a Record to Storage @ idxHash\r\n     */\r\n    function writeRecord(bytes32 _idxHash, Record memory _rec) private {\r\n        //^^^^^^^checks^^^^^^^^^\r\n        //bytes32 userHash = keccak256(abi.encodePacked(msg.sender)); // Get a userhash for authentication and recorder logging\r\n        //^^^^^^^effects^^^^^^^^^\r\n        Storage.modifyRecord(\r\n            //userHash,\r\n            _idxHash,\r\n            _rec.rightsHolder,\r\n            _rec.assetStatus,\r\n            _rec.countDown,\r\n            _rec.forceModCount,\r\n            _rec.numberOfTransfers\r\n        ); // Send data and writehash to storage\r\n        //^^^^^^^interactions^^^^^^^^^\r\n    }\r\n\r\n    /*\r\n     * @dev Get a Record from Storage @ idxHash\r\n     */\r\n    function getRecord(bytes32 _idxHash) private returns (Record memory) {\r\n        Record memory rec;\r\n        //^^^^^^^checks^^^^^^^^^\r\n\r\n        {\r\n            //Start of scope limit for stack depth\r\n            (\r\n                //bytes32 _recorder,\r\n                bytes32 _rightsHolder,\r\n                //bytes32 _lastRecorder,\r\n                uint8 _assetStatus,\r\n                uint8 _forceModCount,\r\n                uint16 _assetClass,\r\n                uint256 _countDown,\r\n                uint256 _countDownStart,\r\n                bytes32 _Ipfs1,\r\n                bytes32 _Ipfs2,\r\n                uint16 _numberOfTransfers\r\n            ) = Storage.retrieveRecord(_idxHash); // Get record from storage contract\r\n\r\n            //rec.recorder = _recorder;\r\n            rec.rightsHolder = _rightsHolder;\r\n            //rec.lastRecorder = _lastRecorder;\r\n            rec.assetStatus = _assetStatus;\r\n            rec.forceModCount = _forceModCount;\r\n            rec.assetClass = _assetClass;\r\n            rec.countDown = _countDown;\r\n            rec.countDownStart = _countDownStart;\r\n            rec.Ipfs1 = _Ipfs1;\r\n            rec.Ipfs2 = _Ipfs2;\r\n            rec.numberOfTransfers = _numberOfTransfers;\r\n        } //end of scope limit for stack depth\r\n\r\n        return (rec); // Returns Record struct rec\r\n        //^^^^^^^interactions^^^^^^^^^\r\n    }\r\n}\r\n",
  "sourcePath": "C:\\Users\\Blayde\\Documents\\ETHDEV\\bulletproof\\PRUF_TRUFFLE\\contracts\\PRUF_A_TKN.sol",
  "compiler": {
    "name": "solc",
    "version": "0.6.9+commit.3e3065ac.Emscripten.clang"
  },
  "schemaVersion": "3.0.23",
  "updatedAt": "2020-08-04T15:47:59.752Z",
  "devdoc": {
    "methods": {
      "approve(address,uint256)": {
        "details": "See {IERC721-approve}."
      },
      "balanceOf(address)": {
        "details": "See {IERC721-balanceOf}."
      },
      "baseURI()": {
        "details": "Returns the base URI set via {_setBaseURI}. This will be automatically added as a prefix in {tokenURI} to each token's URI, or to the token ID if no specific URI is set for that token ID."
      },
      "discard(uint256)": {
        "details": "Safely burns a token and sets the corresponding RGT to zero in storage."
      },
      "getApproved(uint256)": {
        "details": "See {IERC721-getApproved}."
      },
      "isApprovedForAll(address,address)": {
        "details": "See {IERC721-isApprovedForAll}."
      },
      "name()": {
        "details": "See {IERC721Metadata-name}."
      },
      "owner()": {
        "details": "Returns the address of the current owner."
      },
      "ownerOf(uint256)": {
        "details": "See {IERC721-ownerOf}."
      },
      "renounceOwnership()": {
        "details": "Leaves the contract without owner. It will not be possible to call `onlyOwner` functions anymore. Can only be called by the current owner. NOTE: Renouncing ownership will leave the contract without an owner, thereby removing any functionality that is only available to the owner."
      },
      "safeTransferFrom(address,address,uint256)": {
        "details": "Safely transfers the ownership of a given token ID to another address If the target address is a contract, it must implement {IERC721Receiver-onERC721Received}, which is called upon a safe transfer, and return the magic value `bytes4(keccak256(\"onERC721Received(address,address,uint256,bytes)\"))`; otherwise, the transfer is reverted. Requires the msg.sender to be the owner, approved, or operator",
        "params": {
          "from": "current owner of the token",
          "to": "address to receive the ownership of the given token ID",
          "tokenId": "uint256 ID of the token to be transferred"
        }
      },
      "safeTransferFrom(address,address,uint256,bytes)": {
        "details": "Safely transfers the ownership of a given token ID to another address If the target address is a contract, it must implement {IERC721Receiver-onERC721Received}, which is called upon a safe transfer, and return the magic value `bytes4(keccak256(\"onERC721Received(address,address,uint256,bytes)\"))`; otherwise, the transfer is reverted. Requires the _msgSender() to be the owner, approved, or operator",
        "params": {
          "_data": "bytes data to send along with a safe transfer check",
          "from": "current owner of the token",
          "to": "address to receive the ownership of the given token ID",
          "tokenId": "uint256 ID of the token to be transferred"
        }
      },
      "setApprovalForAll(address,bool)": {
        "details": "See {IERC721-setApprovalForAll}."
      },
      "supportsInterface(bytes4)": {
        "details": "See {IERC165-supportsInterface}. Time complexity O(1), guaranteed to always use less than 30 000 gas."
      },
      "symbol()": {
        "details": "See {IERC721Metadata-symbol}."
      },
      "tokenByIndex(uint256)": {
        "details": "See {IERC721Enumerable-tokenByIndex}."
      },
      "tokenOfOwnerByIndex(address,uint256)": {
        "details": "See {IERC721Enumerable-tokenOfOwnerByIndex}."
      },
      "tokenURI(uint256)": {
        "details": "See {IERC721Metadata-tokenURI}."
      },
      "totalSupply()": {
        "details": "See {IERC721Enumerable-totalSupply}."
      },
      "transferFrom(address,address,uint256)": {
        "details": "Transfers the ownership of a given token ID to another address. Usage of this method is discouraged, use {safeTransferFrom} whenever possible. Requires the msg.sender to be the owner, approved, or operator.",
        "params": {
          "from": "current owner of the token",
          "to": "address to receive the ownership of the given token ID",
          "tokenId": "uint256 ID of the token to be transferred"
        }
      },
      "transferOwnership(address)": {
        "details": "Transfers ownership of the contract to a new account (`newOwner`). Can only be called by the current owner."
      }
    }
  },
  "userdoc": {
    "methods": {}
  }
}