{
  "contractName": "AC_TKN",
  "abi": [
    {
      "inputs": [],
      "stateMutability": "nonpayable",
      "type": "constructor"
    },
    {
      "anonymous": false,
      "inputs": [
        {
          "indexed": true,
          "internalType": "address",
          "name": "owner",
          "type": "address"
        },
        {
          "indexed": true,
          "internalType": "address",
          "name": "approved",
          "type": "address"
        },
        {
          "indexed": true,
          "internalType": "uint256",
          "name": "tokenId",
          "type": "uint256"
        }
      ],
      "name": "Approval",
      "type": "event"
    },
    {
      "anonymous": false,
      "inputs": [
        {
          "indexed": true,
          "internalType": "address",
          "name": "owner",
          "type": "address"
        },
        {
          "indexed": true,
          "internalType": "address",
          "name": "operator",
          "type": "address"
        },
        {
          "indexed": false,
          "internalType": "bool",
          "name": "approved",
          "type": "bool"
        }
      ],
      "name": "ApprovalForAll",
      "type": "event"
    },
    {
      "anonymous": false,
      "inputs": [
        {
          "indexed": false,
          "internalType": "address",
          "name": "account",
          "type": "address"
        }
      ],
      "name": "Paused",
      "type": "event"
    },
    {
      "anonymous": false,
      "inputs": [
        {
          "indexed": false,
          "internalType": "string",
          "name": "_msg",
          "type": "string"
        }
      ],
      "name": "REPORT",
      "type": "event"
    },
    {
      "anonymous": false,
      "inputs": [
        {
          "indexed": true,
          "internalType": "bytes32",
          "name": "role",
          "type": "bytes32"
        },
        {
          "indexed": true,
          "internalType": "bytes32",
          "name": "previousAdminRole",
          "type": "bytes32"
        },
        {
          "indexed": true,
          "internalType": "bytes32",
          "name": "newAdminRole",
          "type": "bytes32"
        }
      ],
      "name": "RoleAdminChanged",
      "type": "event"
    },
    {
      "anonymous": false,
      "inputs": [
        {
          "indexed": true,
          "internalType": "bytes32",
          "name": "role",
          "type": "bytes32"
        },
        {
          "indexed": true,
          "internalType": "address",
          "name": "account",
          "type": "address"
        },
        {
          "indexed": true,
          "internalType": "address",
          "name": "sender",
          "type": "address"
        }
      ],
      "name": "RoleGranted",
      "type": "event"
    },
    {
      "anonymous": false,
      "inputs": [
        {
          "indexed": true,
          "internalType": "bytes32",
          "name": "role",
          "type": "bytes32"
        },
        {
          "indexed": true,
          "internalType": "address",
          "name": "account",
          "type": "address"
        },
        {
          "indexed": true,
          "internalType": "address",
          "name": "sender",
          "type": "address"
        }
      ],
      "name": "RoleRevoked",
      "type": "event"
    },
    {
      "anonymous": false,
      "inputs": [
        {
          "indexed": true,
          "internalType": "address",
          "name": "from",
          "type": "address"
        },
        {
          "indexed": true,
          "internalType": "address",
          "name": "to",
          "type": "address"
        },
        {
          "indexed": true,
          "internalType": "uint256",
          "name": "tokenId",
          "type": "uint256"
        }
      ],
      "name": "Transfer",
      "type": "event"
    },
    {
      "anonymous": false,
      "inputs": [
        {
          "indexed": false,
          "internalType": "address",
          "name": "account",
          "type": "address"
        }
      ],
      "name": "Unpaused",
      "type": "event"
    },
    {
      "inputs": [],
      "name": "CONTRACT_ADMIN_ROLE",
      "outputs": [
        {
          "internalType": "bytes32",
          "name": "",
          "type": "bytes32"
        }
      ],
      "stateMutability": "view",
      "type": "function"
    },
    {
      "inputs": [],
      "name": "DEFAULT_ADMIN_ROLE",
      "outputs": [
        {
          "internalType": "bytes32",
          "name": "",
          "type": "bytes32"
        }
      ],
      "stateMutability": "view",
      "type": "function"
    },
    {
      "inputs": [],
      "name": "MINTER_ROLE",
      "outputs": [
        {
          "internalType": "bytes32",
          "name": "",
          "type": "bytes32"
        }
      ],
      "stateMutability": "view",
      "type": "function"
    },
    {
      "inputs": [],
      "name": "PAUSER_ROLE",
      "outputs": [
        {
          "internalType": "bytes32",
          "name": "",
          "type": "bytes32"
        }
      ],
      "stateMutability": "view",
      "type": "function"
    },
    {
      "inputs": [
        {
          "internalType": "address",
          "name": "to",
          "type": "address"
        },
        {
          "internalType": "uint256",
          "name": "tokenId",
          "type": "uint256"
        }
      ],
      "name": "approve",
      "outputs": [],
      "stateMutability": "nonpayable",
      "type": "function"
    },
    {
      "inputs": [
        {
          "internalType": "address",
          "name": "owner",
          "type": "address"
        }
      ],
      "name": "balanceOf",
      "outputs": [
        {
          "internalType": "uint256",
          "name": "",
          "type": "uint256"
        }
      ],
      "stateMutability": "view",
      "type": "function"
    },
    {
      "inputs": [],
      "name": "baseURI",
      "outputs": [
        {
          "internalType": "string",
          "name": "",
          "type": "string"
        }
      ],
      "stateMutability": "view",
      "type": "function"
    },
    {
      "inputs": [
        {
          "internalType": "uint256",
          "name": "tokenId",
          "type": "uint256"
        }
      ],
      "name": "burn",
      "outputs": [],
      "stateMutability": "nonpayable",
      "type": "function"
    },
    {
      "inputs": [
        {
          "internalType": "uint256",
          "name": "tokenId",
          "type": "uint256"
        }
      ],
      "name": "getApproved",
      "outputs": [
        {
          "internalType": "address",
          "name": "",
          "type": "address"
        }
      ],
      "stateMutability": "view",
      "type": "function"
    },
    {
      "inputs": [
        {
          "internalType": "bytes32",
          "name": "role",
          "type": "bytes32"
        }
      ],
      "name": "getRoleAdmin",
      "outputs": [
        {
          "internalType": "bytes32",
          "name": "",
          "type": "bytes32"
        }
      ],
      "stateMutability": "view",
      "type": "function"
    },
    {
      "inputs": [
        {
          "internalType": "bytes32",
          "name": "role",
          "type": "bytes32"
        },
        {
          "internalType": "uint256",
          "name": "index",
          "type": "uint256"
        }
      ],
      "name": "getRoleMember",
      "outputs": [
        {
          "internalType": "address",
          "name": "",
          "type": "address"
        }
      ],
      "stateMutability": "view",
      "type": "function"
    },
    {
      "inputs": [
        {
          "internalType": "bytes32",
          "name": "role",
          "type": "bytes32"
        }
      ],
      "name": "getRoleMemberCount",
      "outputs": [
        {
          "internalType": "uint256",
          "name": "",
          "type": "uint256"
        }
      ],
      "stateMutability": "view",
      "type": "function"
    },
    {
      "inputs": [
        {
          "internalType": "bytes32",
          "name": "role",
          "type": "bytes32"
        },
        {
          "internalType": "address",
          "name": "account",
          "type": "address"
        }
      ],
      "name": "grantRole",
      "outputs": [],
      "stateMutability": "nonpayable",
      "type": "function"
    },
    {
      "inputs": [
        {
          "internalType": "bytes32",
          "name": "role",
          "type": "bytes32"
        },
        {
          "internalType": "address",
          "name": "account",
          "type": "address"
        }
      ],
      "name": "hasRole",
      "outputs": [
        {
          "internalType": "bool",
          "name": "",
          "type": "bool"
        }
      ],
      "stateMutability": "view",
      "type": "function"
    },
    {
      "inputs": [
        {
          "internalType": "address",
          "name": "owner",
          "type": "address"
        },
        {
          "internalType": "address",
          "name": "operator",
          "type": "address"
        }
      ],
      "name": "isApprovedForAll",
      "outputs": [
        {
          "internalType": "bool",
          "name": "",
          "type": "bool"
        }
      ],
      "stateMutability": "view",
      "type": "function"
    },
    {
      "inputs": [],
      "name": "name",
      "outputs": [
        {
          "internalType": "string",
          "name": "",
          "type": "string"
        }
      ],
      "stateMutability": "view",
      "type": "function"
    },
    {
      "inputs": [
        {
          "internalType": "uint256",
          "name": "tokenId",
          "type": "uint256"
        }
      ],
      "name": "ownerOf",
      "outputs": [
        {
          "internalType": "address",
          "name": "",
          "type": "address"
        }
      ],
      "stateMutability": "view",
      "type": "function"
    },
    {
      "inputs": [],
      "name": "paused",
      "outputs": [
        {
          "internalType": "bool",
          "name": "",
          "type": "bool"
        }
      ],
      "stateMutability": "view",
      "type": "function"
    },
    {
      "inputs": [
        {
          "internalType": "bytes32",
          "name": "role",
          "type": "bytes32"
        },
        {
          "internalType": "address",
          "name": "account",
          "type": "address"
        }
      ],
      "name": "renounceRole",
      "outputs": [],
      "stateMutability": "nonpayable",
      "type": "function"
    },
    {
      "inputs": [
        {
          "internalType": "bytes32",
          "name": "role",
          "type": "bytes32"
        },
        {
          "internalType": "address",
          "name": "account",
          "type": "address"
        }
      ],
      "name": "revokeRole",
      "outputs": [],
      "stateMutability": "nonpayable",
      "type": "function"
    },
    {
      "inputs": [
        {
          "internalType": "address",
          "name": "operator",
          "type": "address"
        },
        {
          "internalType": "bool",
          "name": "approved",
          "type": "bool"
        }
      ],
      "name": "setApprovalForAll",
      "outputs": [],
      "stateMutability": "nonpayable",
      "type": "function"
    },
    {
      "inputs": [
        {
          "internalType": "bytes4",
          "name": "interfaceId",
          "type": "bytes4"
        }
      ],
      "name": "supportsInterface",
      "outputs": [
        {
          "internalType": "bool",
          "name": "",
          "type": "bool"
        }
      ],
      "stateMutability": "view",
      "type": "function"
    },
    {
      "inputs": [],
      "name": "symbol",
      "outputs": [
        {
          "internalType": "string",
          "name": "",
          "type": "string"
        }
      ],
      "stateMutability": "view",
      "type": "function"
    },
    {
      "inputs": [
        {
          "internalType": "uint256",
          "name": "index",
          "type": "uint256"
        }
      ],
      "name": "tokenByIndex",
      "outputs": [
        {
          "internalType": "uint256",
          "name": "",
          "type": "uint256"
        }
      ],
      "stateMutability": "view",
      "type": "function"
    },
    {
      "inputs": [
        {
          "internalType": "address",
          "name": "owner",
          "type": "address"
        },
        {
          "internalType": "uint256",
          "name": "index",
          "type": "uint256"
        }
      ],
      "name": "tokenOfOwnerByIndex",
      "outputs": [
        {
          "internalType": "uint256",
          "name": "",
          "type": "uint256"
        }
      ],
      "stateMutability": "view",
      "type": "function"
    },
    {
      "inputs": [
        {
          "internalType": "uint256",
          "name": "tokenId",
          "type": "uint256"
        }
      ],
      "name": "tokenURI",
      "outputs": [
        {
          "internalType": "string",
          "name": "",
          "type": "string"
        }
      ],
      "stateMutability": "view",
      "type": "function"
    },
    {
      "inputs": [],
      "name": "totalSupply",
      "outputs": [
        {
          "internalType": "uint256",
          "name": "",
          "type": "uint256"
        }
      ],
      "stateMutability": "view",
      "type": "function"
    },
    {
      "inputs": [
        {
          "internalType": "address",
          "name": "_recipientAddress",
          "type": "address"
        },
        {
          "internalType": "uint256",
          "name": "tokenId",
          "type": "uint256"
        },
        {
          "internalType": "string",
          "name": "_tokenURI",
          "type": "string"
        }
      ],
      "name": "mintACToken",
      "outputs": [
        {
          "internalType": "uint256",
          "name": "",
          "type": "uint256"
        }
      ],
      "stateMutability": "nonpayable",
      "type": "function"
    },
    {
      "inputs": [
        {
          "internalType": "address",
          "name": "_recipientAddress",
          "type": "address"
        },
        {
          "internalType": "uint256",
          "name": "tokenId",
          "type": "uint256"
        },
        {
          "internalType": "string",
          "name": "_tokenURI",
          "type": "string"
        }
      ],
      "name": "reMintACToken",
      "outputs": [
        {
          "internalType": "uint256",
          "name": "",
          "type": "uint256"
        }
      ],
      "stateMutability": "nonpayable",
      "type": "function"
    },
    {
      "inputs": [
        {
          "internalType": "address",
          "name": "from",
          "type": "address"
        },
        {
          "internalType": "address",
          "name": "to",
          "type": "address"
        },
        {
          "internalType": "uint256",
          "name": "tokenId",
          "type": "uint256"
        }
      ],
      "name": "transferFrom",
      "outputs": [],
      "stateMutability": "nonpayable",
      "type": "function"
    },
    {
      "inputs": [
        {
          "internalType": "address",
          "name": "from",
          "type": "address"
        },
        {
          "internalType": "address",
          "name": "to",
          "type": "address"
        },
        {
          "internalType": "uint256",
          "name": "tokenId",
          "type": "uint256"
        }
      ],
      "name": "safeTransferFrom",
      "outputs": [],
      "stateMutability": "nonpayable",
      "type": "function"
    },
    {
      "inputs": [
        {
          "internalType": "address",
          "name": "from",
          "type": "address"
        },
        {
          "internalType": "address",
          "name": "to",
          "type": "address"
        },
        {
          "internalType": "uint256",
          "name": "tokenId",
          "type": "uint256"
        },
        {
          "internalType": "bytes",
          "name": "_data",
          "type": "bytes"
        }
      ],
      "name": "safeTransferFrom",
      "outputs": [],
      "stateMutability": "nonpayable",
      "type": "function"
    },
    {
      "inputs": [],
      "name": "pause",
      "outputs": [],
      "stateMutability": "nonpayable",
      "type": "function"
    },
    {
      "inputs": [],
      "name": "unpause",
      "outputs": [],
      "stateMutability": "nonpayable",
      "type": "function"
    }
  ],
  "bytecode": "0x60806040523480156200001157600080fd5b50604080518082018252601c81527f5052c3bc4620417373657420436c617373204e6f646520546f6b656e00000000602080830191909152825180840190935260048352632829232760e11b90830152600160005590620000796301ffc9a760e01b62000190565b81516200008e9060089060208501906200032b565b508051620000a49060099060208401906200032b565b50620000b76380ac58cd60e01b62000190565b620000c9635b5e139f60e01b62000190565b620000db63780e9d6360e01b62000190565b5050600c805460ff19169055620000fd6000620000f762000215565b62000219565b6200012c7f2ce8d04a9c35987429af538825cd2438cc5c5bb5dc427955f84daaa3ea105016620000f762000215565b6200015b7f9f2df0fed2c77648de5860a4cc508cd0818c85b8b8a1ab4ceeef8d981c8956a6620000f762000215565b6200018a7f65d7a28e3265b37a6474929f336521b332c1681b933f6cb9f3376673440d862a620000f762000215565b620003c7565b6001600160e01b03198082161415620001f0576040805162461bcd60e51b815260206004820152601c60248201527f4552433136353a20696e76616c696420696e7465726661636520696400000000604482015290519081900360640190fd5b6001600160e01b0319166000908152600260205260409020805460ff19166001179055565b3390565b62000225828262000229565b5050565b600082815260016020908152604090912062000250918390620017f9620002a4821b17901c565b1562000225576200026062000215565b6001600160a01b0316816001600160a01b0316837f2f8788117e7eff1d82e926ec794901d17c78024a50270940304540a733656f0d60405160405180910390a45050565b6000620002bb836001600160a01b038416620002c4565b90505b92915050565b6000620002d2838362000313565b6200030a57508154600181810184556000848152602080822090930184905584548482528286019093526040902091909155620002be565b506000620002be565b60009081526001919091016020526040902054151590565b828054600181600116156101000203166002900490600052602060002090601f016020900481019282601f106200036e57805160ff19168380011785556200039e565b828001600101855582156200039e579182015b828111156200039e57825182559160200191906001019062000381565b50620003ac929150620003b0565b5090565b5b80821115620003ac5760008155600101620003b1565b612e5380620003d76000396000f3fe608060405234801561001057600080fd5b50600436106102065760003560e01c80636352211e1161011a578063a217fddf116100ad578063ca15c8731161007c578063ca15c87314610770578063d53913931461078d578063d547741f14610795578063e63ab1e9146107c1578063e985e9c5146107c957610206565b8063a217fddf14610657578063a22cb4651461065f578063b88d4fde1461068d578063c87b56dd1461075357610206565b80638456cb59116100e95780638456cb59146105f85780639010d07c1461060057806391d148541461062357806395d89b411461064f57610206565b80636352211e146105285780636c0360eb1461054557806370a082311461054d57806375cbe8ca1461057357610206565b80632f2ff15d1161019d57806341977c4f1161016c57806341977c4f1461042b57806342842e0e146104b057806342966c68146104e65780634f6ccce7146105035780635c975abb1461052057610206565b80632f2ff15d1461039f5780632f745c59146103cb57806336568abe146103f75780633f4ba83a1461042357610206565b806318160ddd116101d957806318160ddd1461032a5780631da033121461034457806323b872dd1461034c578063248a9ca31461038257610206565b806301ffc9a71461020b57806306fdde0314610246578063081812fc146102c3578063095ea7b3146102fc575b600080fd5b6102326004803603602081101561022157600080fd5b50356001600160e01b0319166107f7565b604080519115158252519081900360200190f35b61024e61081a565b6040805160208082528351818301528351919283929083019185019080838360005b83811015610288578181015183820152602001610270565b50505050905090810190601f1680156102b55780820380516001836020036101000a031916815260200191505b509250505060405180910390f35b6102e0600480360360208110156102d957600080fd5b50356108b0565b604080516001600160a01b039092168252519081900360200190f35b6103286004803603604081101561031257600080fd5b506001600160a01b038135169060200135610912565b005b6103326109ed565b60408051918252519081900360200190f35b6103326109fe565b6103286004803603606081101561036257600080fd5b506001600160a01b03813581169160208101359091169060400135610a22565b6103326004803603602081101561039857600080fd5b5035610b19565b610328600480360360408110156103b557600080fd5b50803590602001356001600160a01b0316610b2e565b610332600480360360408110156103e157600080fd5b506001600160a01b038135169060200135610b9a565b6103286004803603604081101561040d57600080fd5b50803590602001356001600160a01b0316610bc5565b610328610c26565b6103326004803603606081101561044157600080fd5b6001600160a01b038235169160208101359181019060608101604082013564010000000081111561047157600080fd5b82018360208201111561048357600080fd5b803590602001918460018302840111640100000000831117156104a557600080fd5b509092509050610c97565b610328600480360360608110156104c657600080fd5b506001600160a01b03813581169160208101359091169060400135610ea3565b610328600480360360208110156104fc57600080fd5b5035610f09565b6103326004803603602081101561051957600080fd5b5035610f5b565b610232610f71565b6102e06004803603602081101561053e57600080fd5b5035610f7a565b61024e610fa2565b6103326004803603602081101561056357600080fd5b50356001600160a01b0316611003565b6103326004803603606081101561058957600080fd5b6001600160a01b03823516916020810135918101906060810160408201356401000000008111156105b957600080fd5b8201836020820111156105cb57600080fd5b803590602001918460018302840111640100000000831117156105ed57600080fd5b50909250905061106b565b610328611169565b6102e06004803603604081101561061657600080fd5b50803590602001356111d8565b6102326004803603604081101561063957600080fd5b50803590602001356001600160a01b03166111f0565b61024e611208565b610332611269565b6103286004803603604081101561067557600080fd5b506001600160a01b038135169060200135151561126e565b610328600480360360808110156106a357600080fd5b6001600160a01b038235811692602081013590911691604082013591908101906080810160608201356401000000008111156106de57600080fd5b8201836020820111156106f057600080fd5b8035906020019184600183028401116401000000008311171561071257600080fd5b91908080601f016020809104026020016040519081016040528093929190818152602001838380828437600092019190915250929550611373945050505050565b61024e6004803603602081101561076957600080fd5b503561146c565b6103326004803603602081101561078657600080fd5b5035611713565b61033261172a565b610328600480360360408110156107ab57600080fd5b50803590602001356001600160a01b031661174e565b6103326117a7565b610232600480360360408110156107df57600080fd5b506001600160a01b03813581169160200135166117cb565b6001600160e01b0319811660009081526002602052604090205460ff165b919050565b60088054604080516020601f60026000196101006001881615020190951694909404938401819004810282018101909252828152606093909290918301828280156108a65780601f1061087b576101008083540402835291602001916108a6565b820191906000526020600020905b81548152906001019060200180831161088957829003601f168201915b5050505050905090565b60006108bb8261180e565b6108f65760405162461bcd60e51b815260040180806020018281038252602c815260200180612c62602c913960400191505060405180910390fd5b506000908152600660205260409020546001600160a01b031690565b600061091d82610f7a565b9050806001600160a01b0316836001600160a01b031614156109705760405162461bcd60e51b8152600401808060200182810382526021815260200180612d126021913960400191505060405180910390fd5b806001600160a01b031661098261181b565b6001600160a01b031614806109a357506109a38161099e61181b565b6117cb565b6109de5760405162461bcd60e51b8152600401808060200182810382526038815260200180612b526038913960400191505060405180910390fd5b6109e8838361181f565b505050565b60006109f9600461188d565b905090565b7f2ce8d04a9c35987429af538825cd2438cc5c5bb5dc427955f84daaa3ea10501681565b60026000541415610a68576040805162461bcd60e51b815260206004820152601f6024820152600080516020612a0d833981519152604482015290519081900360640190fd5b6002600055600c5460ff1615610ab8576040805162461bcd60e51b815260206004820152601060248201526f14185d5cd8589b194e881c185d5cd95960821b604482015290519081900360640190fd5b610ac9610ac361181b565b82611898565b610b045760405162461bcd60e51b8152600401808060200182810382526031815260200180612b8a6031913960400191505060405180910390fd5b610b0f83838361193c565b5050600160005550565b60009081526001602052604090206002015490565b600082815260016020526040902060020154610b5190610b4c61181b565b6111f0565b610b8c5760405162461bcd60e51b815260040180806020018281038252602f8152602001806129de602f913960400191505060405180910390fd5b610b968282611a88565b5050565b6001600160a01b0382166000908152600360205260408120610bbc9083611af1565b90505b92915050565b610bcd61181b565b6001600160a01b0316816001600160a01b031614610c1c5760405162461bcd60e51b815260040180806020018281038252602f815260200180612def602f913960400191505060405180910390fd5b610b968282611afd565b610c527f65d7a28e3265b37a6474929f336521b332c1681b933f6cb9f3376673440d862a610b4c61181b565b610c8d5760405162461bcd60e51b8152600401808060200182810382526040815260200180612daf6040913960400191505060405180910390fd5b610c95611b66565b565b6000610cc57f9f2df0fed2c77648de5860a4cc508cd0818c85b8b8a1ab4ceeef8d981c8956a6610b4c61181b565b610d005760405162461bcd60e51b8152600401808060200182810382526035815260200180612ac16035913960400191505060405180910390fd5b60026000541415610d46576040805162461bcd60e51b815260206004820152601f6024820152600080516020612a0d833981519152604482015290519081900360640190fd5b6002600055610d548461180e565b610d8f5760405162461bcd60e51b8152600401808060200182810382526026815260200180612d336026913960400191505060405180910390fd5b610d988461146c565b6040516020018082805190602001908083835b60208310610dca5780518252601f199092019160209182019101610dab565b6001836020036101000a0380198251168184511680821785525050505050509050019150506040516020818303038152906040528051906020012083836040516020018083838082843780830192505050925050506040516020818303038152906040528051906020012014610e715760405162461bcd60e51b8152600401808060200182810382526026815260200180612d896026913960400191505060405180910390fd5b610e7a84611c04565b610e848585611cd1565b610e9684610e918661146c565b611ceb565b5050600160005550919050565b600c5460ff1615610eee576040805162461bcd60e51b815260206004820152601060248201526f14185d5cd8589b194e881c185d5cd95960821b604482015290519081900360640190fd5b6109e883838360405180602001604052806000815250611373565b610f14610ac361181b565b610f4f5760405162461bcd60e51b8152600401808060200182810382526030815260200180612d596030913960400191505060405180910390fd5b610f5881611c04565b50565b600080610f69600484611d4e565b509392505050565b600c5460ff1690565b6000610bbf82604051806060016040528060298152602001612be56029913960049190611d6a565b600b8054604080516020601f60026000196101006001881615020190951694909404938401819004810282018101909252828152606093909290918301828280156108a65780601f1061087b576101008083540402835291602001916108a6565b60006001600160a01b03821661104a5760405162461bcd60e51b815260040180806020018281038252602a815260200180612bbb602a913960400191505060405180910390fd5b6001600160a01b0382166000908152600360205260409020610bbf9061188d565b60006110997f9f2df0fed2c77648de5860a4cc508cd0818c85b8b8a1ab4ceeef8d981c8956a6610b4c61181b565b6110d45760405162461bcd60e51b8152600401808060200182810382526035815260200180612ac16035913960400191505060405180910390fd5b6002600054141561111a576040805162461bcd60e51b815260206004820152601f6024820152600080516020612a0d833981519152604482015290519081900360640190fd5b60026000556111298585611cd1565b610e968484848080601f016020809104026020016040519081016040528093929190818152602001838380828437600092019190915250611ceb92505050565b6111957f65d7a28e3265b37a6474929f336521b332c1681b933f6cb9f3376673440d862a610b4c61181b565b6111d05760405162461bcd60e51b815260040180806020018281038252603e815260200180612a5f603e913960400191505060405180910390fd5b610c95611d81565b6000828152600160205260408120610bbc9083611af1565b6000828152600160205260408120610bbc9083611e02565b60098054604080516020601f60026000196101006001881615020190951694909404938401819004810282018101909252828152606093909290918301828280156108a65780601f1061087b576101008083540402835291602001916108a6565b600081565b61127661181b565b6001600160a01b0316826001600160a01b031614156112dc576040805162461bcd60e51b815260206004820152601960248201527f4552433732313a20617070726f766520746f2063616c6c657200000000000000604482015290519081900360640190fd5b80600760006112e961181b565b6001600160a01b03908116825260208083019390935260409182016000908120918716808252919093529120805460ff19169215159290921790915561132d61181b565b6001600160a01b03167f17307eab39ab6107e8899845ad3d59bd9653f200f220920489ca2b5937696c318360405180821515815260200191505060405180910390a35050565b600260005414156113b9576040805162461bcd60e51b815260206004820152601f6024820152600080516020612a0d833981519152604482015290519081900360640190fd5b6002600055600c5460ff1615611409576040805162461bcd60e51b815260206004820152601060248201526f14185d5cd8589b194e881c185d5cd95960821b604482015290519081900360640190fd5b61141a61141461181b565b83611898565b6114555760405162461bcd60e51b8152600401808060200182810382526032815260200180612c306032913960400191505060405180910390fd5b61146184848484611e17565b505060016000555050565b60606114778261180e565b6114b25760405162461bcd60e51b815260040180806020018281038252602f815260200180612ce3602f913960400191505060405180910390fd5b6000828152600a602090815260409182902080548351601f60026000196101006001861615020190931692909204918201849004840281018401909452808452606093928301828280156115475780601f1061151c57610100808354040283529160200191611547565b820191906000526020600020905b81548152906001019060200180831161152a57829003601f168201915b5050600b5493945050505060026000196101006001841615020190911604611570579050610815565b80511561164157600b8160405160200180838054600181600116156101000203166002900480156115d85780601f106115b65761010080835404028352918201916115d8565b820191906000526020600020905b8154815290600101906020018083116115c4575b5050825160208401908083835b602083106116045780518252601f1990920191602091820191016115e5565b6001836020036101000a03801982511681845116808217855250505050505090500192505050604051602081830303815290604052915050610815565b600b61164c84611e6f565b60405160200180838054600181600116156101000203166002900480156116aa5780601f106116885761010080835404028352918201916116aa565b820191906000526020600020905b815481529060010190602001808311611696575b5050825160208401908083835b602083106116d65780518252601f1990920191602091820191016116b7565b6001836020036101000a03801982511681845116808217855250505050505090500192505050604051602081830303815290604052915050919050565b6000818152600160205260408120610bbf9061188d565b7f9f2df0fed2c77648de5860a4cc508cd0818c85b8b8a1ab4ceeef8d981c8956a681565b60008281526001602052604090206002015461176c90610b4c61181b565b610c1c5760405162461bcd60e51b8152600401808060200182810382526030815260200180612b226030913960400191505060405180910390fd5b7f65d7a28e3265b37a6474929f336521b332c1681b933f6cb9f3376673440d862a81565b6001600160a01b03918216600090815260076020908152604080832093909416825291909152205460ff1690565b6000610bbc836001600160a01b038416611f4a565b6000610bbf600483611f94565b3390565b600081815260066020526040902080546001600160a01b0319166001600160a01b038416908117909155819061185482610f7a565b6001600160a01b03167f8c5be1e5ebec7d5bd14f71427d1e84f3dd0314c0f7b2291e5b200ac8c7c3b92560405160405180910390a45050565b6000610bbf82611fa0565b60006118a38261180e565b6118de5760405162461bcd60e51b815260040180806020018281038252602c815260200180612af6602c913960400191505060405180910390fd5b60006118e983610f7a565b9050806001600160a01b0316846001600160a01b031614806119245750836001600160a01b0316611919846108b0565b6001600160a01b0316145b80611934575061193481856117cb565b949350505050565b826001600160a01b031661194f82610f7a565b6001600160a01b0316146119945760405162461bcd60e51b8152600401808060200182810382526029815260200180612cba6029913960400191505060405180910390fd5b6001600160a01b0382166119d95760405162461bcd60e51b8152600401808060200182810382526024815260200180612a9d6024913960400191505060405180910390fd5b6119e4838383611fa4565b6119ef60008261181f565b6001600160a01b0383166000908152600360205260409020611a119082611faf565b506001600160a01b0382166000908152600360205260409020611a349082611fbb565b50611a4160048284611fc7565b5080826001600160a01b0316846001600160a01b03167fddf252ad1be2c89b69c2b068fc378daa952ba7f163c4a11628f55a4df523b3ef60405160405180910390a4505050565b6000828152600160205260409020611aa090826117f9565b15610b9657611aad61181b565b6001600160a01b0316816001600160a01b0316837f2f8788117e7eff1d82e926ec794901d17c78024a50270940304540a733656f0d60405160405180910390a45050565b6000610bbc8383611fdd565b6000828152600160205260409020611b159082612041565b15610b9657611b2261181b565b6001600160a01b0316816001600160a01b0316837ff6391f5c32d9c69d2a47ea670b442974b53935d1edc7fd64eb21e047a839171b60405160405180910390a45050565b600c5460ff16611bb4576040805162461bcd60e51b815260206004820152601460248201527314185d5cd8589b194e881b9bdd081c185d5cd95960621b604482015290519081900360640190fd5b600c805460ff191690557f5db9ee0a495bf2e6ff9c91a7834c1ba4fdd244a5e8aa4e537bd38aeae4b073aa611be761181b565b604080516001600160a01b039092168252519081900360200190a1565b6000611c0f82610f7a565b9050611c1d81600084611fa4565b611c2860008361181f565b6000828152600a60205260409020546002600019610100600184161502019091160415611c66576000828152600a60205260408120611c66916128b9565b6001600160a01b0381166000908152600360205260409020611c889083611faf565b50611c94600483612056565b5060405182906000906001600160a01b038416907fddf252ad1be2c89b69c2b068fc378daa952ba7f163c4a11628f55a4df523b3ef908390a45050565b610b96828260405180602001604052806000815250612062565b611cf48261180e565b611d2f5760405162461bcd60e51b815260040180806020018281038252602c815260200180612c8e602c913960400191505060405180910390fd5b6000828152600a6020908152604090912082516109e8928401906128fd565b6000808080611d5d86866120b4565b9097909650945050505050565b6000611d7784848461212f565b90505b9392505050565b600c5460ff1615611dcc576040805162461bcd60e51b815260206004820152601060248201526f14185d5cd8589b194e881c185d5cd95960821b604482015290519081900360640190fd5b600c805460ff191660011790557f62e78cea01bee320cd4e420270b5ea74000d11b0c9f74754ebdbfc544b05a258611be761181b565b6000610bbc836001600160a01b0384166121f9565b611e2284848461193c565b611e2e84848484612211565b611e695760405162461bcd60e51b8152600401808060200182810382526032815260200180612a2d6032913960400191505060405180910390fd5b50505050565b606081611e9457506040805180820190915260018152600360fc1b6020820152610815565b8160005b8115611eac57600101600a82049150611e98565b60608167ffffffffffffffff81118015611ec557600080fd5b506040519080825280601f01601f191660200182016040528015611ef0576020820181803683370190505b50859350905060001982015b8315611f4157600a840660300160f81b82828060019003935081518110611f1f57fe5b60200101906001600160f81b031916908160001a905350600a84049350611efc565b50949350505050565b6000611f5683836121f9565b611f8c57508154600181810184556000848152602080822090930184905584548482528286019093526040902091909155610bbf565b506000610bbf565b6000610bbc83836121f9565b5490565b6109e8838383612379565b6000610bbc83836123c8565b6000610bbc8383611f4a565b6000611d7784846001600160a01b03851661248e565b8154600090821061201f5760405162461bcd60e51b81526004018080602001828103825260228152602001806129916022913960400191505060405180910390fd5b82600001828154811061202e57fe5b9060005260206000200154905092915050565b6000610bbc836001600160a01b0384166123c8565b6000610bbc8383612525565b61206c83836125f9565b6120796000848484612211565b6109e85760405162461bcd60e51b8152600401808060200182810382526032815260200180612a2d6032913960400191505060405180910390fd5b8154600090819083106120f85760405162461bcd60e51b8152600401808060200182810382526022815260200180612c0e6022913960400191505060405180910390fd5b600084600001848154811061210957fe5b906000526020600020906002020190508060000154816001015492509250509250929050565b600082815260018401602052604081205482816121ca5760405162461bcd60e51b81526004018080602001828103825283818151815260200191508051906020019080838360005b8381101561218f578181015183820152602001612177565b50505050905090810190601f1680156121bc5780820380516001836020036101000a031916815260200191505b509250505060405180910390fd5b508460000160018203815481106121dd57fe5b9060005260206000209060020201600101549150509392505050565b60009081526001919091016020526040902054151590565b6000612225846001600160a01b0316612727565b61223157506001611934565b606061233f630a85bd0160e11b61224661181b565b88878760405160240180856001600160a01b03168152602001846001600160a01b0316815260200183815260200180602001828103825283818151815260200191508051906020019080838360005b838110156122ad578181015183820152602001612295565b50505050905090810190601f1680156122da5780820380516001836020036101000a031916815260200191505b5095505050505050604051602081830303815290604052906001600160e01b0319166020820180516001600160e01b038381831617835250505050604051806060016040528060328152602001612a2d603291396001600160a01b038816919061272d565b9050600081806020019051602081101561235857600080fd5b50516001600160e01b031916630a85bd0160e11b1492505050949350505050565b6123848383836109e8565b61238c610f71565b156109e85760405162461bcd60e51b815260040180806020018281038252602b8152602001806129b3602b913960400191505060405180910390fd5b6000818152600183016020526040812054801561248457835460001980830191908101906000908790839081106123fb57fe5b906000526020600020015490508087600001848154811061241857fe5b60009182526020808320909101929092558281526001898101909252604090209084019055865487908061244857fe5b60019003818190600052602060002001600090559055866001016000878152602001908152602001600020600090556001945050505050610bbf565b6000915050610bbf565b6000828152600184016020526040812054806124f3575050604080518082018252838152602080820184815286546001818101895560008981528481209551600290930290950191825591519082015586548684528188019092529290912055611d7a565b8285600001600183038154811061250657fe5b9060005260206000209060020201600101819055506000915050611d7a565b60008181526001830160205260408120548015612484578354600019808301919081019060009087908390811061255857fe5b906000526020600020906002020190508087600001848154811061257857fe5b6000918252602080832084546002909302019182556001938401549184019190915583548252898301905260409020908401905586548790806125b757fe5b6000828152602080822060026000199094019384020182815560019081018390559290935588815289820190925260408220919091559450610bbf9350505050565b6001600160a01b038216612654576040805162461bcd60e51b815260206004820181905260248201527f4552433732313a206d696e7420746f20746865207a65726f2061646472657373604482015290519081900360640190fd5b61265d8161180e565b156126af576040805162461bcd60e51b815260206004820152601c60248201527f4552433732313a20746f6b656e20616c7265616479206d696e74656400000000604482015290519081900360640190fd5b6126bb60008383611fa4565b6001600160a01b03821660009081526003602052604090206126dd9082611fbb565b506126ea60048284611fc7565b5060405181906001600160a01b038416906000907fddf252ad1be2c89b69c2b068fc378daa952ba7f163c4a11628f55a4df523b3ef908290a45050565b3b151590565b6060611d7784846000858561274185612727565b612792576040805162461bcd60e51b815260206004820152601d60248201527f416464726573733a2063616c6c20746f206e6f6e2d636f6e7472616374000000604482015290519081900360640190fd5b60006060866001600160a01b031685876040518082805190602001908083835b602083106127d15780518252601f1990920191602091820191016127b2565b6001836020036101000a03801982511681845116808217855250505050505090500191505060006040518083038185875af1925050503d8060008114612833576040519150601f19603f3d011682016040523d82523d6000602084013e612838565b606091505b5091509150612848828286612853565b979650505050505050565b60608315612862575081611d7a565b8251156128725782518084602001fd5b60405162461bcd60e51b815260206004820181815284516024840152845185939192839260440191908501908083836000831561218f578181015183820152602001612177565b50805460018160011615610100020316600290046000825580601f106128df5750610f58565b601f016020900490600052602060002090810190610f58919061297b565b828054600181600116156101000203166002900490600052602060002090601f016020900481019282601f1061293e57805160ff191683800117855561296b565b8280016001018555821561296b579182015b8281111561296b578251825591602001919060010190612950565b5061297792915061297b565b5090565b5b80821115612977576000815560010161297c56fe456e756d657261626c655365743a20696e646578206f7574206f6620626f756e64734552433732315061757361626c653a20746f6b656e207472616e73666572207768696c6520706175736564416363657373436f6e74726f6c3a2073656e646572206d75737420626520616e2061646d696e20746f206772616e745265656e7472616e637947756172643a207265656e7472616e742063616c6c004552433732313a207472616e7366657220746f206e6f6e20455243373231526563656976657220696d706c656d656e7465724552433732315072657365744d696e7465725061757365724175746f49643a206d75737420686176652070617573657220726f6c6520746f2070617573654552433732313a207472616e7366657220746f20746865207a65726f206164647265737341543a4d4f442d49413a43616c6c696e67206164647265737320646f6573206e6f742062656c6f6e6720746f2061206d696e7465724552433732313a206f70657261746f7220717565727920666f72206e6f6e6578697374656e7420746f6b656e416363657373436f6e74726f6c3a2073656e646572206d75737420626520616e2061646d696e20746f207265766f6b654552433732313a20617070726f76652063616c6c6572206973206e6f74206f776e6572206e6f7220617070726f76656420666f7220616c6c4143543a54463a207472616e736665722063616c6c6572206973206e6f74206f776e6572206e6f7220617070726f7665644552433732313a2062616c616e636520717565727920666f7220746865207a65726f20616464726573734552433732313a206f776e657220717565727920666f72206e6f6e6578697374656e7420746f6b656e456e756d657261626c654d61703a20696e646578206f7574206f6620626f756e64734143543a5354463a207472616e736665722063616c6c6572206973206e6f74206f776e6572206e6f7220617070726f7665644552433732313a20617070726f76656420717565727920666f72206e6f6e6578697374656e7420746f6b656e4552433732314d657461646174613a2055524920736574206f66206e6f6e6578697374656e7420746f6b656e4552433732313a207472616e73666572206f6620746f6b656e2074686174206973206e6f74206f776e4552433732314d657461646174613a2055524920717565727920666f72206e6f6e6578697374656e7420746f6b656e4552433732313a20617070726f76616c20746f2063757272656e74206f776e65724143543a524d3a43616e6e6f742052656d696e74206e6f6e6578697374616e7420746f6b656e4552433732314275726e61626c653a2063616c6c6572206973206e6f74206f776e6572206e6f7220617070726f7665644143543a524d3a4f4c4420555249204d555354204d415443482050524f5649444544205552494552433732315072657365744d696e7465725061757365724175746f49643a206d75737420686176652070617573657220726f6c6520746f20756e7061757365416363657373436f6e74726f6c3a2063616e206f6e6c792072656e6f756e636520726f6c657320666f722073656c66a2646970667358221220b00eb0eb354881887872c07bb1b4e2a53385663ba54e4a2af9f7148491cdedc564736f6c634300060c0033",
  "immutableReferences": {},
  "source": "/*--------------------------------------------------------PRuF0.7.1\n__/\\\\\\\\\\\\\\\\\\\\\\\\\\ _____/\\\\\\\\\\\\\\\\\\ _______/\\\\../\\\\ ___/\\\\\\\\\\\\\\\\\\\\\\\\\\\\\\\n _\\/\\\\\\/////////\\\\\\ _/\\\\\\///////\\\\\\ ____\\//..\\//____\\/\\\\\\///////////__\n  _\\/\\\\\\.......\\/\\\\\\.\\/\\\\\\.....\\/\\\\\\ ________________\\/\\\\\\ ____________\n   _\\/\\\\\\\\\\\\\\\\\\\\\\\\\\/__\\/\\\\\\\\\\\\\\\\\\\\\\/_____/\\\\\\____/\\\\\\.\\/\\\\\\\\\\\\\\\\\\\\\\ ____\n    _\\/\\\\\\/////////____\\/\\\\\\//////\\\\\\ ___\\/\\\\\\___\\/\\\\\\.\\/\\\\\\///////______\n     _\\/\\\\\\ ____________\\/\\\\\\ ___\\//\\\\\\ __\\/\\\\\\___\\/\\\\\\.\\/\\\\\\ ____________\n      _\\/\\\\\\ ____________\\/\\\\\\ ____\\//\\\\\\ _\\/\\\\\\___\\/\\\\\\.\\/\\\\\\ ____________\n       _\\/\\\\\\ ____________\\/\\\\\\ _____\\//\\\\\\.\\//\\\\\\\\\\\\\\\\\\ _\\/\\\\\\ ____________\n        _\\/// _____________\\/// _______\\/// __\\///////// __\\/// _____________\n         *-------------------------------------------------------------------*/\n\n/*-----------------------------------------------------------------\n *  TO DO\n *-----------------------------------------------------------------\n * PRUF ASSET CLASS NODE NFT CONTRACT\n *-----------------------------------------------------------------*/\n\n// SPDX-License-Identifier: UNLICENSED\npragma solidity ^0.6.7;\n\nimport \"./Imports/access/AccessControl.sol\";\nimport \"./Imports/GSN/Context.sol\";\nimport \"./Imports/utils/Counters.sol\";\nimport \"./Imports/token/ERC721/ERC721.sol\";\nimport \"./Imports/token/ERC721/ERC721Burnable.sol\";\nimport \"./Imports/token/ERC721/ERC721Pausable.sol\";\nimport \"./PRUF_INTERFACES.sol\";\nimport \"./Imports/utils/ReentrancyGuard.sol\";\n\n/**\n * @dev {ERC721} token, including:\n *\n *  - ability for holders to burn (destroy) their tokens\n *  - a minter role that allows for token minting (creation)\n *  - a pauser role that allows to stop all token transfers\n *  - token ID and URI autogeneration\n *\n * This contract uses {AccessControl} to lock permissioned functions using the\n * different roles - head to its documentation for details.\n *\n * The account that deploys the contract will be granted the minter, pauser, and contract admin\n * roles, as well as the default admin role, which will let it grant minter, pauser, and admin\n * roles to other accounts.\n */\n\ncontract AC_TKN is\n    ReentrancyGuard,\n    Context,\n    AccessControl,\n    ERC721Burnable,\n    ERC721Pausable\n{\n    using Counters for Counters.Counter;\n\n    bytes32 public constant CONTRACT_ADMIN_ROLE = keccak256(\n        \"CONTRACT_ADMIN_ROLE\"\n    );\n    bytes32 public constant MINTER_ROLE = keccak256(\"MINTER_ROLE\");\n    bytes32 public constant PAUSER_ROLE = keccak256(\"PAUSER_ROLE\");\n\n    Counters.Counter private _tokenIdTracker;\n\n    constructor() public ERC721(\"PRF Asset Class Node Token\", \"PRFN\") {\n        _setupRole(DEFAULT_ADMIN_ROLE, _msgSender());\n        _setupRole(CONTRACT_ADMIN_ROLE, _msgSender());\n        _setupRole(MINTER_ROLE, _msgSender());\n        _setupRole(PAUSER_ROLE, _msgSender());\n\n        //_setBaseURI(\"pruf.io\");\n    }\n\n    event REPORT(string _msg);\n\n    modifier isAdmin() {\n        require(\n            hasRole(CONTRACT_ADMIN_ROLE, _msgSender()),\n            \"AT:MOD-IA:Calling address does not belong to a contract admin\"\n        );\n        _;\n    }\n\n    modifier isMinter() {\n        require(\n            hasRole(MINTER_ROLE, _msgSender()),\n            \"AT:MOD-IA:Calling address does not belong to a minter\"\n        );\n        _;\n    }\n\n    //----------------------Admin functions / isAdmin or isMinter----------------------//\n\n    /*\n     * @dev Mints assetClass token, must be isMinter\n     */\n    function mintACToken(\n        address _recipientAddress,\n        uint256 tokenId,\n        string calldata _tokenURI\n    ) external isMinter nonReentrant returns (uint256) {\n        //^^^^^^^checks^^^^^^^^^\n        _safeMint(_recipientAddress, tokenId);\n        _setTokenURI(tokenId, _tokenURI);\n        return tokenId;\n        //^^^^^^^interactions^^^^^^^^^\n    }\n\n    /*\n     * Authorizations\n     * @dev remint Asset Class Token\n     * burns old token\n     * Sends new token to specified address\n     */\n    function reMintACToken(\n        address _recipientAddress,\n        uint256 tokenId,\n        string calldata _tokenURI\n    ) external isMinter nonReentrant returns (uint256) {\n        require(_exists(tokenId), \"ACT:RM:Cannot Remint nonexistant token\");\n        require(\n            keccak256(abi.encodePacked(_tokenURI)) ==\n                keccak256(abi.encodePacked(tokenURI(tokenId))),\n            \"ACT:RM:OLD URI MUST MATCH PROVIDED URI\"\n        );\n        //^^^^^^^checks^^^^^^^^^\n\n        _burn(tokenId);\n        _safeMint(_recipientAddress, tokenId);\n        _setTokenURI(tokenId, tokenURI(tokenId));\n        return tokenId;\n        //^^^^^^^interactions^^^^^^^^^\n    }\n\n    /**\n     * @dev Transfers the ownership of a given token ID to another address.\n     * Usage of this method is discouraged, use {safeTransferFrom} whenever possible.\n     * Requires the _msgSender() to be the owner, approved, or operator.\n     * @param from current owner of the token\n     * @param to address to receive the ownership of the given token ID\n     * @param tokenId uint256 ID of the token to be transferred\n     */\n    function transferFrom(\n        address from,\n        address to,\n        uint256 tokenId\n    ) public override nonReentrant whenNotPaused {\n        require(\n            _isApprovedOrOwner(_msgSender(), tokenId),\n            \"ACT:TF: transfer caller is not owner nor approved\"\n        );\n        //^^^^^^^checks^^^^^^^^^\n\n        _transfer(from, to, tokenId);\n        //^^^^^^^interactions^^^^^^^^^\n    }\n\n    /**\n     * @dev Safely transfers the ownership of a given token ID to another address\n     * If the target address is a contract, it must implement {IERC721Receiver-onERC721Received},\n     * which is called upon a safe transfer, and return the magic value\n     * `bytes4(keccak256(\"onERC721Received(address,address,uint256,bytes)\"))`; otherwise,\n     * the transfer is reverted.\n     * Requires the _msgSender() to be the owner, approved, or operator\n     * @param from current owner of the token\n     * @param to address to receive the ownership of the given token ID\n     * @param tokenId uint256 ID of the token to be transferred\n     */\n    function safeTransferFrom(\n        address from,\n        address to,\n        uint256 tokenId\n    ) public override whenNotPaused {\n        //^^^^^^^checks^^^^^^^^^\n\n        safeTransferFrom(from, to, tokenId, \"\");\n        //^^^^^^^interactions^^^^^^^^^\n    }\n\n    /**\n     * @dev Safely transfers the ownership of a given token ID to another address\n     * If the target address is a contract, it must implement {IERC721Receiver-onERC721Received},\n     * which is called upon a safe transfer, and return the magic value\n     * `bytes4(keccak256(\"onERC721Received(address,address,uint256,bytes)\"))`; otherwise,\n     * the transfer is reverted.\n     * Requires the _msgSender() to be the owner, approved, or operator\n     * @param from current owner of the token\n     * @param to address to receive the ownership of the given token ID\n     * @param tokenId uint256 ID of the token to be transferred\n     * @param _data bytes data to send along with a safe transfer check\n     */\n    function safeTransferFrom(\n        address from,\n        address to,\n        uint256 tokenId,\n        bytes memory _data\n    ) public virtual override nonReentrant whenNotPaused {\n        require(\n            _isApprovedOrOwner(_msgSender(), tokenId),\n            \"ACT:STF: transfer caller is not owner nor approved\"\n        );\n        //^^^^^^^checks^^^^^^^^^\n\n        _safeTransfer(from, to, tokenId, _data);\n        //^^^^^^^interactions^^^^^^^^^\n    }\n\n    /**\n     * @dev Pauses all token transfers.\n     *\n     * See {ERC721Pausable} and {Pausable-_pause}.\n     *\n     * Requirements:\n     *\n     * - the caller must have the `PAUSER_ROLE`.\n     */\n    function pause() public virtual {\n        require(\n            hasRole(PAUSER_ROLE, _msgSender()),\n            \"ERC721PresetMinterPauserAutoId: must have pauser role to pause\"\n        );\n        //^^^^^^^checks^^^^^^^^^\n        _pause();\n        //^^^^^^^interactions^^^^^^^^^\n    }\n\n    /**\n     * @dev Unpauses all token transfers.\n     *\n     * See {ERC721Pausable} and {Pausable-_unpause}.\n     *\n     * Requirements:\n     *\n     * - the caller must have the `PAUSER_ROLE`.\n     */\n    function unpause() public virtual {\n        require(\n            hasRole(PAUSER_ROLE, _msgSender()),\n            \"ERC721PresetMinterPauserAutoId: must have pauser role to unpause\"\n        );\n        //^^^^^^^checks^^^^^^^^^\n        _unpause();\n        //^^^^^^^interactions^^^^^^^^^\n    }\n\n    function _beforeTokenTransfer(\n        address from,\n        address to,\n        uint256 tokenId\n    ) internal virtual override(ERC721, ERC721Pausable) {\n        super._beforeTokenTransfer(from, to, tokenId);\n    }\n}\n",
  "sourcePath": "/Users/cts/dev/PRUF/PRUF_TRUFFLE/contracts/PRUF_AC_TKN.sol",
  "compiler": {
    "name": "solc",
    "version": "0.6.12+commit.27d51765.Emscripten.clang"
  },
  "schemaVersion": "3.2.3",
  "updatedAt": "2020-12-21T18:14:16.321Z",
  "devdoc": {
    "details": "{ERC721} token, including:  - ability for holders to burn (destroy) their tokens  - a minter role that allows for token minting (creation)  - a pauser role that allows to stop all token transfers  - token ID and URI autogeneration This contract uses {AccessControl} to lock permissioned functions using the different roles - head to its documentation for details. The account that deploys the contract will be granted the minter, pauser, and contract admin roles, as well as the default admin role, which will let it grant minter, pauser, and admin roles to other accounts.",
    "kind": "dev",
    "methods": {
      "approve(address,uint256)": {
        "details": "See {IERC721-approve}."
      },
      "balanceOf(address)": {
        "details": "See {IERC721-balanceOf}."
      },
      "baseURI()": {
        "details": "Returns the base URI set via {_setBaseURI}. This will be automatically added as a prefix in {tokenURI} to each token's URI, or to the token ID if no specific URI is set for that token ID."
      },
      "burn(uint256)": {
        "details": "Burns `tokenId`. See {ERC721-_burn}. Requirements: - The caller must own `tokenId` or be an approved operator."
      },
      "getApproved(uint256)": {
        "details": "See {IERC721-getApproved}."
      },
      "getRoleAdmin(bytes32)": {
        "details": "Returns the admin role that controls `role`. See {grantRole} and {revokeRole}. To change a role's admin, use {_setRoleAdmin}."
      },
      "getRoleMember(bytes32,uint256)": {
        "details": "Returns one of the accounts that have `role`. `index` must be a value between 0 and {getRoleMemberCount}, non-inclusive. Role bearers are not sorted in any particular way, and their ordering may change at any point. WARNING: When using {getRoleMember} and {getRoleMemberCount}, make sure you perform all queries on the same block. See the following https://forum.openzeppelin.com/t/iterating-over-elements-on-enumerableset-in-openzeppelin-contracts/2296[forum post] for more information."
      },
      "getRoleMemberCount(bytes32)": {
        "details": "Returns the number of accounts that have `role`. Can be used together with {getRoleMember} to enumerate all bearers of a role."
      },
      "grantRole(bytes32,address)": {
        "details": "Grants `role` to `account`. If `account` had not been already granted `role`, emits a {RoleGranted} event. Requirements: - the caller must have ``role``'s admin role."
      },
      "hasRole(bytes32,address)": {
        "details": "Returns `true` if `account` has been granted `role`."
      },
      "isApprovedForAll(address,address)": {
        "details": "See {IERC721-isApprovedForAll}."
      },
      "name()": {
        "details": "See {IERC721Metadata-name}."
      },
      "ownerOf(uint256)": {
        "details": "See {IERC721-ownerOf}."
      },
      "pause()": {
        "details": "Pauses all token transfers. See {ERC721Pausable} and {Pausable-_pause}. Requirements: - the caller must have the `PAUSER_ROLE`."
      },
      "paused()": {
        "details": "Returns true if the contract is paused, and false otherwise."
      },
      "renounceRole(bytes32,address)": {
        "details": "Revokes `role` from the calling account. Roles are often managed via {grantRole} and {revokeRole}: this function's purpose is to provide a mechanism for accounts to lose their privileges if they are compromised (such as when a trusted device is misplaced). If the calling account had been granted `role`, emits a {RoleRevoked} event. Requirements: - the caller must be `account`."
      },
      "revokeRole(bytes32,address)": {
        "details": "Revokes `role` from `account`. If `account` had been granted `role`, emits a {RoleRevoked} event. Requirements: - the caller must have ``role``'s admin role."
      },
      "safeTransferFrom(address,address,uint256)": {
        "details": "Safely transfers the ownership of a given token ID to another address If the target address is a contract, it must implement {IERC721Receiver-onERC721Received}, which is called upon a safe transfer, and return the magic value `bytes4(keccak256(\"onERC721Received(address,address,uint256,bytes)\"))`; otherwise, the transfer is reverted. Requires the _msgSender() to be the owner, approved, or operator",
        "params": {
          "from": "current owner of the token",
          "to": "address to receive the ownership of the given token ID",
          "tokenId": "uint256 ID of the token to be transferred"
        }
      },
      "safeTransferFrom(address,address,uint256,bytes)": {
        "details": "Safely transfers the ownership of a given token ID to another address If the target address is a contract, it must implement {IERC721Receiver-onERC721Received}, which is called upon a safe transfer, and return the magic value `bytes4(keccak256(\"onERC721Received(address,address,uint256,bytes)\"))`; otherwise, the transfer is reverted. Requires the _msgSender() to be the owner, approved, or operator",
        "params": {
          "_data": "bytes data to send along with a safe transfer check",
          "from": "current owner of the token",
          "to": "address to receive the ownership of the given token ID",
          "tokenId": "uint256 ID of the token to be transferred"
        }
      },
      "setApprovalForAll(address,bool)": {
        "details": "See {IERC721-setApprovalForAll}."
      },
      "supportsInterface(bytes4)": {
        "details": "See {IERC165-supportsInterface}. Time complexity O(1), guaranteed to always use less than 30 000 gas."
      },
      "symbol()": {
        "details": "See {IERC721Metadata-symbol}."
      },
      "tokenByIndex(uint256)": {
        "details": "See {IERC721Enumerable-tokenByIndex}."
      },
      "tokenOfOwnerByIndex(address,uint256)": {
        "details": "See {IERC721Enumerable-tokenOfOwnerByIndex}."
      },
      "tokenURI(uint256)": {
        "details": "See {IERC721Metadata-tokenURI}."
      },
      "totalSupply()": {
        "details": "See {IERC721Enumerable-totalSupply}."
      },
      "transferFrom(address,address,uint256)": {
        "details": "Transfers the ownership of a given token ID to another address. Usage of this method is discouraged, use {safeTransferFrom} whenever possible. Requires the _msgSender() to be the owner, approved, or operator.",
        "params": {
          "from": "current owner of the token",
          "to": "address to receive the ownership of the given token ID",
          "tokenId": "uint256 ID of the token to be transferred"
        }
      },
      "unpause()": {
        "details": "Unpauses all token transfers. See {ERC721Pausable} and {Pausable-_unpause}. Requirements: - the caller must have the `PAUSER_ROLE`."
      }
    },
    "version": 1
  },
  "userdoc": {
    "kind": "user",
    "methods": {},
    "version": 1
  }
}