{
  "contractName": "AC_TKN",
  "abi": [
    {
      "inputs": [],
      "stateMutability": "nonpayable",
      "type": "constructor"
    },
    {
      "anonymous": false,
      "inputs": [
        {
          "indexed": true,
          "internalType": "address",
          "name": "owner",
          "type": "address"
        },
        {
          "indexed": true,
          "internalType": "address",
          "name": "approved",
          "type": "address"
        },
        {
          "indexed": true,
          "internalType": "uint256",
          "name": "tokenId",
          "type": "uint256"
        }
      ],
      "name": "Approval",
      "type": "event"
    },
    {
      "anonymous": false,
      "inputs": [
        {
          "indexed": true,
          "internalType": "address",
          "name": "owner",
          "type": "address"
        },
        {
          "indexed": true,
          "internalType": "address",
          "name": "operator",
          "type": "address"
        },
        {
          "indexed": false,
          "internalType": "bool",
          "name": "approved",
          "type": "bool"
        }
      ],
      "name": "ApprovalForAll",
      "type": "event"
    },
    {
      "anonymous": false,
      "inputs": [
        {
          "indexed": true,
          "internalType": "address",
          "name": "previousOwner",
          "type": "address"
        },
        {
          "indexed": true,
          "internalType": "address",
          "name": "newOwner",
          "type": "address"
        }
      ],
      "name": "OwnershipTransferred",
      "type": "event"
    },
    {
      "anonymous": false,
      "inputs": [
        {
          "indexed": false,
          "internalType": "string",
          "name": "_msg",
          "type": "string"
        }
      ],
      "name": "REPORT",
      "type": "event"
    },
    {
      "anonymous": false,
      "inputs": [
        {
          "indexed": true,
          "internalType": "address",
          "name": "from",
          "type": "address"
        },
        {
          "indexed": true,
          "internalType": "address",
          "name": "to",
          "type": "address"
        },
        {
          "indexed": true,
          "internalType": "uint256",
          "name": "tokenId",
          "type": "uint256"
        }
      ],
      "name": "Transfer",
      "type": "event"
    },
    {
      "inputs": [
        {
          "internalType": "address",
          "name": "to",
          "type": "address"
        },
        {
          "internalType": "uint256",
          "name": "tokenId",
          "type": "uint256"
        }
      ],
      "name": "approve",
      "outputs": [],
      "stateMutability": "nonpayable",
      "type": "function"
    },
    {
      "inputs": [
        {
          "internalType": "address",
          "name": "owner",
          "type": "address"
        }
      ],
      "name": "balanceOf",
      "outputs": [
        {
          "internalType": "uint256",
          "name": "",
          "type": "uint256"
        }
      ],
      "stateMutability": "view",
      "type": "function"
    },
    {
      "inputs": [],
      "name": "baseURI",
      "outputs": [
        {
          "internalType": "string",
          "name": "",
          "type": "string"
        }
      ],
      "stateMutability": "view",
      "type": "function"
    },
    {
      "inputs": [
        {
          "internalType": "uint256",
          "name": "tokenId",
          "type": "uint256"
        }
      ],
      "name": "getApproved",
      "outputs": [
        {
          "internalType": "address",
          "name": "",
          "type": "address"
        }
      ],
      "stateMutability": "view",
      "type": "function"
    },
    {
      "inputs": [
        {
          "internalType": "address",
          "name": "owner",
          "type": "address"
        },
        {
          "internalType": "address",
          "name": "operator",
          "type": "address"
        }
      ],
      "name": "isApprovedForAll",
      "outputs": [
        {
          "internalType": "bool",
          "name": "",
          "type": "bool"
        }
      ],
      "stateMutability": "view",
      "type": "function"
    },
    {
      "inputs": [],
      "name": "name",
      "outputs": [
        {
          "internalType": "string",
          "name": "",
          "type": "string"
        }
      ],
      "stateMutability": "view",
      "type": "function"
    },
    {
      "inputs": [],
      "name": "owner",
      "outputs": [
        {
          "internalType": "address",
          "name": "",
          "type": "address"
        }
      ],
      "stateMutability": "view",
      "type": "function"
    },
    {
      "inputs": [
        {
          "internalType": "uint256",
          "name": "tokenId",
          "type": "uint256"
        }
      ],
      "name": "ownerOf",
      "outputs": [
        {
          "internalType": "address",
          "name": "",
          "type": "address"
        }
      ],
      "stateMutability": "view",
      "type": "function"
    },
    {
      "inputs": [],
      "name": "renounceOwnership",
      "outputs": [],
      "stateMutability": "nonpayable",
      "type": "function"
    },
    {
      "inputs": [
        {
          "internalType": "address",
          "name": "operator",
          "type": "address"
        },
        {
          "internalType": "bool",
          "name": "approved",
          "type": "bool"
        }
      ],
      "name": "setApprovalForAll",
      "outputs": [],
      "stateMutability": "nonpayable",
      "type": "function"
    },
    {
      "inputs": [
        {
          "internalType": "bytes4",
          "name": "interfaceId",
          "type": "bytes4"
        }
      ],
      "name": "supportsInterface",
      "outputs": [
        {
          "internalType": "bool",
          "name": "",
          "type": "bool"
        }
      ],
      "stateMutability": "view",
      "type": "function"
    },
    {
      "inputs": [],
      "name": "symbol",
      "outputs": [
        {
          "internalType": "string",
          "name": "",
          "type": "string"
        }
      ],
      "stateMutability": "view",
      "type": "function"
    },
    {
      "inputs": [
        {
          "internalType": "uint256",
          "name": "index",
          "type": "uint256"
        }
      ],
      "name": "tokenByIndex",
      "outputs": [
        {
          "internalType": "uint256",
          "name": "",
          "type": "uint256"
        }
      ],
      "stateMutability": "view",
      "type": "function"
    },
    {
      "inputs": [
        {
          "internalType": "address",
          "name": "owner",
          "type": "address"
        },
        {
          "internalType": "uint256",
          "name": "index",
          "type": "uint256"
        }
      ],
      "name": "tokenOfOwnerByIndex",
      "outputs": [
        {
          "internalType": "uint256",
          "name": "",
          "type": "uint256"
        }
      ],
      "stateMutability": "view",
      "type": "function"
    },
    {
      "inputs": [
        {
          "internalType": "uint256",
          "name": "tokenId",
          "type": "uint256"
        }
      ],
      "name": "tokenURI",
      "outputs": [
        {
          "internalType": "string",
          "name": "",
          "type": "string"
        }
      ],
      "stateMutability": "view",
      "type": "function"
    },
    {
      "inputs": [],
      "name": "totalSupply",
      "outputs": [
        {
          "internalType": "uint256",
          "name": "",
          "type": "uint256"
        }
      ],
      "stateMutability": "view",
      "type": "function"
    },
    {
      "inputs": [
        {
          "internalType": "address",
          "name": "newOwner",
          "type": "address"
        }
      ],
      "name": "transferOwnership",
      "outputs": [],
      "stateMutability": "nonpayable",
      "type": "function"
    },
    {
      "inputs": [
        {
          "internalType": "address",
          "name": "_storageAddress",
          "type": "address"
        }
      ],
      "name": "OO_setStorageContract",
      "outputs": [],
      "stateMutability": "nonpayable",
      "type": "function"
    },
    {
      "inputs": [],
      "name": "OO_ResolveContractAddresses",
      "outputs": [],
      "stateMutability": "nonpayable",
      "type": "function"
    },
    {
      "inputs": [
        {
          "internalType": "address",
          "name": "_recipientAddress",
          "type": "address"
        },
        {
          "internalType": "uint256",
          "name": "tokenId",
          "type": "uint256"
        },
        {
          "internalType": "string",
          "name": "_tokenURI",
          "type": "string"
        }
      ],
      "name": "mintACToken",
      "outputs": [
        {
          "internalType": "uint256",
          "name": "",
          "type": "uint256"
        }
      ],
      "stateMutability": "nonpayable",
      "type": "function"
    },
    {
      "inputs": [
        {
          "internalType": "address",
          "name": "_recipientAddress",
          "type": "address"
        },
        {
          "internalType": "uint256",
          "name": "tokenId",
          "type": "uint256"
        },
        {
          "internalType": "string",
          "name": "_tokenURI",
          "type": "string"
        }
      ],
      "name": "reMintACToken",
      "outputs": [
        {
          "internalType": "uint256",
          "name": "",
          "type": "uint256"
        }
      ],
      "stateMutability": "nonpayable",
      "type": "function"
    },
    {
      "inputs": [
        {
          "internalType": "address",
          "name": "from",
          "type": "address"
        },
        {
          "internalType": "address",
          "name": "to",
          "type": "address"
        },
        {
          "internalType": "uint256",
          "name": "tokenId",
          "type": "uint256"
        }
      ],
      "name": "transferFrom",
      "outputs": [],
      "stateMutability": "nonpayable",
      "type": "function"
    },
    {
      "inputs": [
        {
          "internalType": "address",
          "name": "from",
          "type": "address"
        },
        {
          "internalType": "address",
          "name": "to",
          "type": "address"
        },
        {
          "internalType": "uint256",
          "name": "tokenId",
          "type": "uint256"
        }
      ],
      "name": "safeTransferFrom",
      "outputs": [],
      "stateMutability": "nonpayable",
      "type": "function"
    },
    {
      "inputs": [
        {
          "internalType": "address",
          "name": "from",
          "type": "address"
        },
        {
          "internalType": "address",
          "name": "to",
          "type": "address"
        },
        {
          "internalType": "uint256",
          "name": "tokenId",
          "type": "uint256"
        },
        {
          "internalType": "bytes",
          "name": "_data",
          "type": "bytes"
        }
      ],
      "name": "safeTransferFrom",
      "outputs": [],
      "stateMutability": "nonpayable",
      "type": "function"
    }
  ],
  "bytecode": "0x60806040523480156200001157600080fd5b506040518060400160405280601781526020017f5052c3bc4620417373657420436c61737320546f6b656e0000000000000000008152506040518060400160405280600381526020016250414360e81b8152506000620000766200016460201b60201c565b600080546001600160a01b0319166001600160a01b0383169081178255604051929350917f8be0079c531659141344cd1fd0a4f28419497f9722a3daafe3b4186f6b6457e0908290a35060018055620000df6301ffc9a760e01b6001600160e01b036200016916565b8151620000f4906008906020850190620001ee565b5080516200010a906009906020840190620001ee565b50620001266380ac58cd60e01b6001600160e01b036200016916565b62000141635b5e139f60e01b6001600160e01b036200016916565b6200015c63780e9d6360e01b6001600160e01b036200016916565b505062000290565b335b90565b6001600160e01b03198082161415620001c9576040805162461bcd60e51b815260206004820152601c60248201527f4552433136353a20696e76616c696420696e7465726661636520696400000000604482015290519081900360640190fd5b6001600160e01b0319166000908152600260205260409020805460ff19166001179055565b828054600181600116156101000203166002900490600052602060002090601f016020900481019282601f106200023157805160ff191683800117855562000261565b8280016001018555821562000261579182015b828111156200026157825182559160200191906001019062000244565b506200026f92915062000273565b5090565b6200016691905b808211156200026f57600081556001016200027a565b6127ee80620002a06000396000f3fe608060405234801561001057600080fd5b50600436106101585760003560e01c80636c0360eb116100c3578063a22cb4651161007c578063a22cb465146104c0578063b88d4fde146104ee578063c87b56dd146105b4578063d6b02ecf146105d1578063e985e9c5146105f7578063f2fde38b1461062557610158565b80636c0360eb146103f557806370a08231146103fd578063715018a61461042357806375cbe8ca1461042b5780638da5cb5b146104b057806395d89b41146104b857610158565b80632f745c59116101155780632f745c59146102cc57806341977c4f146102f857806342842e0e1461037d5780634b9f23a4146103b35780634f6ccce7146103bb5780636352211e146103d857610158565b806301ffc9a71461015d57806306fdde0314610198578063081812fc14610215578063095ea7b31461024e57806318160ddd1461027c57806323b872dd14610296575b600080fd5b6101846004803603602081101561017357600080fd5b50356001600160e01b03191661064b565b604080519115158252519081900360200190f35b6101a061066e565b6040805160208082528351818301528351919283929083019185019080838360005b838110156101da5781810151838201526020016101c2565b50505050905090810190601f1680156102075780820380516001836020036101000a031916815260200191505b509250505060405180910390f35b6102326004803603602081101561022b57600080fd5b5035610705565b604080516001600160a01b039092168252519081900360200190f35b61027a6004803603604081101561026457600080fd5b506001600160a01b038135169060200135610767565b005b610284610842565b60408051918252519081900360200190f35b61027a600480360360608110156102ac57600080fd5b506001600160a01b03813581169160208101359091169060400135610853565b610284600480360360408110156102e257600080fd5b506001600160a01b0381351690602001356108fe565b6102846004803603606081101561030e57600080fd5b6001600160a01b038235169160208101359181019060608101604082013564010000000081111561033e57600080fd5b82018360208201111561035057600080fd5b8035906020019184600183028401116401000000008311171561037257600080fd5b50909250905061092f565b61027a6004803603606081101561039357600080fd5b506001600160a01b03813581169160208101359091169060400135610a40565b61027a610aa9565b610284600480360360208110156103d157600080fd5b5035610c00565b610232600480360360208110156103ee57600080fd5b5035610c1c565b6101a0610c4a565b6102846004803603602081101561041357600080fd5b50356001600160a01b0316610cab565b61027a610d13565b6102846004803603606081101561044157600080fd5b6001600160a01b038235169160208101359181019060608101604082013564010000000081111561047157600080fd5b82018360208201111561048357600080fd5b803590602001918460018302840111640100000000831117156104a557600080fd5b509092509050610db5565b610232610e24565b6101a0610e33565b61027a600480360360408110156104d657600080fd5b506001600160a01b0381351690602001351515610e94565b61027a6004803603608081101561050457600080fd5b6001600160a01b0382358116926020810135909116916040820135919081019060808101606082013564010000000081111561053f57600080fd5b82018360208201111561055157600080fd5b8035906020019184600183028401116401000000008311171561057357600080fd5b91908080601f016020809104026020016040519081016040528093929190818152602001838380828437600092019190915250929550610f99945050505050565b6101a0600480360360208110156105ca57600080fd5b5035611046565b61027a600480360360208110156105e757600080fd5b50356001600160a01b03166112ed565b6101846004803603604081101561060d57600080fd5b506001600160a01b03813581169160200135166113ac565b61027a6004803603602081101561063b57600080fd5b50356001600160a01b03166113da565b6001600160e01b0319811660009081526002602052604090205460ff165b919050565b60088054604080516020601f60026000196101006001881615020190951694909404938401819004810282018101909252828152606093909290918301828280156106fa5780601f106106cf576101008083540402835291602001916106fa565b820191906000526020600020905b8154815290600101906020018083116106dd57829003601f168201915b505050505090505b90565b6000610710826114d2565b61074b5760405162461bcd60e51b815260040180806020018281038252602c81526020018061266e602c913960400191505060405180910390fd5b506000908152600660205260409020546001600160a01b031690565b600061077282610c1c565b9050806001600160a01b0316836001600160a01b031614156107c55760405162461bcd60e51b815260040180806020018281038252602181526020018061273e6021913960400191505060405180910390fd5b806001600160a01b03166107d76114e5565b6001600160a01b031614806107f857506107f8816107f36114e5565b6113ac565b6108335760405162461bcd60e51b81526004018080602001828103825260388152602001806125346038913960400191505060405180910390fd5b61083d83836114e9565b505050565b600061084e6004611557565b905090565b60026001541415610899576040805162461bcd60e51b815260206004820152601f602482015260008051602061246c833981519152604482015290519081900360640190fd5b60026001556108af6108a96114e5565b82611562565b6108ea5760405162461bcd60e51b81526004018080602001828103825260328152602001806127876032913960400191505060405180910390fd5b6108f58383836115fe565b50506001805550565b6001600160a01b0382166000908152600360205260408120610926908363ffffffff61175c16565b90505b92915050565b600c546000906001600160a01b0316331480610963575061094e610e24565b6001600160a01b0316336001600160a01b0316145b61099e5760405162461bcd60e51b815260040180806020018281038252603381526020018061263b6033913960400191505060405180910390fd5b6109a7846114d2565b6109e25760405162461bcd60e51b815260040180806020018281038252602781526020018061256c6027913960400191505060405180910390fd5b6109eb84611768565b6109f58585611841565b610a358484848080601f01602080910402602001604051908101604052809392919081815260200183838082843760009201919091525061185f92505050565b50825b949350505050565b60026001541415610a86576040805162461bcd60e51b815260206004820152601f602482015260008051602061246c833981519152604482015290519081900360640190fd5b60026001819055506108f583838360405180602001604052806000815250610f99565b60026001541415610aef576040805162461bcd60e51b815260206004820152601f602482015260008051602061246c833981519152604482015290519081900360640190fd5b6002600155610afc6114e5565b6000546001600160a01b03908116911614610b4c576040805162461bcd60e51b815260206004820181905260248201526000805160206126c6833981519152604482015290519081900360640190fd5b600e54604080516363b8d4c160e11b8152602060048201819052600660248301526520a1afa6a3a960d11b604483015291516001600160a01b039093169263c771a982926064808401939192918290030181600087803b158015610baf57600080fd5b505af1158015610bc3573d6000803e3d6000fd5b505050506040513d6020811015610bd957600080fd5b5051600c80546001600160a01b0319166001600160a01b0390921691909117905560018055565b600080610c1460048463ffffffff6118c216565b509392505050565b6000610929826040518060600160405280602981526020016125bd602991396004919063ffffffff6118de16565b600b8054604080516020601f60026000196101006001881615020190951694909404938401819004810282018101909252828152606093909290918301828280156106fa5780601f106106cf576101008083540402835291602001916106fa565b60006001600160a01b038216610cf25760405162461bcd60e51b815260040180806020018281038252602a815260200180612593602a913960400191505060405180910390fd5b6001600160a01b038216600090815260036020526040902061092990611557565b610d1b6114e5565b6000546001600160a01b03908116911614610d6b576040805162461bcd60e51b815260206004820181905260248201526000805160206126c6833981519152604482015290519081900360640190fd5b600080546040516001600160a01b03909116907f8be0079c531659141344cd1fd0a4f28419497f9722a3daafe3b4186f6b6457e0908390a3600080546001600160a01b0319169055565b600c546000906001600160a01b0316331480610de95750610dd4610e24565b6001600160a01b0316336001600160a01b0316145b6109eb5760405162461bcd60e51b815260040180806020018281038252603381526020018061263b6033913960400191505060405180910390fd5b6000546001600160a01b031690565b60098054604080516020601f60026000196101006001881615020190951694909404938401819004810282018101909252828152606093909290918301828280156106fa5780601f106106cf576101008083540402835291602001916106fa565b610e9c6114e5565b6001600160a01b0316826001600160a01b03161415610f02576040805162461bcd60e51b815260206004820152601960248201527f4552433732313a20617070726f766520746f2063616c6c657200000000000000604482015290519081900360640190fd5b8060076000610f0f6114e5565b6001600160a01b03908116825260208083019390935260409182016000908120918716808252919093529120805460ff191692151592909217909155610f536114e5565b60408051841515815290516001600160a01b0392909216917f17307eab39ab6107e8899845ad3d59bd9653f200f220920489ca2b5937696c319181900360200190a35050565b60026001541415610fdf576040805162461bcd60e51b815260206004820152601f602482015260008051602061246c833981519152604482015290519081900360640190fd5b6002600155610ff5610fef6114e5565b83611562565b6110305760405162461bcd60e51b81526004018080602001828103825260338152602001806126086033913960400191505060405180910390fd5b61103c848484846118f5565b5050600180555050565b6060611051826114d2565b61108c5760405162461bcd60e51b815260040180806020018281038252602f81526020018061270f602f913960400191505060405180910390fd5b6000828152600a602090815260409182902080548351601f60026000196101006001861615020190931692909204918201849004840281018401909452808452606093928301828280156111215780601f106110f657610100808354040283529160200191611121565b820191906000526020600020905b81548152906001019060200180831161110457829003601f168201915b5050600b549394505050506002600019610100600184161502019091160461114a579050610669565b80511561121b57600b8160405160200180838054600181600116156101000203166002900480156111b25780601f106111905761010080835404028352918201916111b2565b820191906000526020600020905b81548152906001019060200180831161119e575b5050825160208401908083835b602083106111de5780518252601f1990920191602091820191016111bf565b6001836020036101000a03801982511681845116808217855250505050505090500192505050604051602081830303815290604052915050610669565b600b6112268461194d565b60405160200180838054600181600116156101000203166002900480156112845780601f10611262576101008083540402835291820191611284565b820191906000526020600020905b815481529060010190602001808311611270575b5050825160208401908083835b602083106112b05780518252601f199092019160209182019101611291565b6001836020036101000a03801982511681845116808217855250505050505090500192505050604051602081830303815290604052915050919050565b6112f56114e5565b6000546001600160a01b03908116911614611345576040805162461bcd60e51b815260206004820181905260248201526000805160206126c6833981519152604482015290519081900360640190fd5b6001600160a01b03811661138a5760405162461bcd60e51b815260040180806020018281038252602881526020018061275f6028913960400191505060405180910390fd5b600e80546001600160a01b0319166001600160a01b0392909216919091179055565b6001600160a01b03918216600090815260076020908152604080832093909416825291909152205460ff1690565b6113e26114e5565b6000546001600160a01b03908116911614611432576040805162461bcd60e51b815260206004820181905260248201526000805160206126c6833981519152604482015290519081900360640190fd5b6001600160a01b0381166114775760405162461bcd60e51b81526004018080602001828103825260268152602001806124be6026913960400191505060405180910390fd5b600080546040516001600160a01b03808516939216917f8be0079c531659141344cd1fd0a4f28419497f9722a3daafe3b4186f6b6457e091a3600080546001600160a01b0319166001600160a01b0392909216919091179055565b600061092960048363ffffffff611a2816565b3390565b600081815260066020526040902080546001600160a01b0319166001600160a01b038416908117909155819061151e82610c1c565b6001600160a01b03167f8c5be1e5ebec7d5bd14f71427d1e84f3dd0314c0f7b2291e5b200ac8c7c3b92560405160405180910390a45050565b600061092982611a34565b600061156d826114d2565b6115a85760405162461bcd60e51b815260040180806020018281038252602c815260200180612508602c913960400191505060405180910390fd5b60006115b383610c1c565b9050806001600160a01b0316846001600160a01b031614806115ee5750836001600160a01b03166115e384610705565b6001600160a01b0316145b80610a385750610a3881856113ac565b826001600160a01b031661161182610c1c565b6001600160a01b0316146116565760405162461bcd60e51b81526004018080602001828103825260298152602001806126e66029913960400191505060405180910390fd5b6001600160a01b03821661169b5760405162461bcd60e51b81526004018080602001828103825260248152602001806124e46024913960400191505060405180910390fd5b6116a683838361083d565b6116b16000826114e9565b6001600160a01b03831660009081526003602052604090206116d9908263ffffffff611a3816565b506001600160a01b0382166000908152600360205260409020611702908263ffffffff611a4416565b506117156004828463ffffffff611a5016565b5080826001600160a01b0316846001600160a01b03167fddf252ad1be2c89b69c2b068fc378daa952ba7f163c4a11628f55a4df523b3ef60405160405180910390a4505050565b60006109268383611a66565b600061177382610c1c565b90506117818160008461083d565b61178c6000836114e9565b6000828152600a602052604090205460026000196101006001841615020190911604156117ca576000828152600a602052604081206117ca9161236a565b6001600160a01b03811660009081526003602052604090206117f2908363ffffffff611a3816565b5061180460048363ffffffff611aca16565b5060405182906000906001600160a01b038416907fddf252ad1be2c89b69c2b068fc378daa952ba7f163c4a11628f55a4df523b3ef908390a45050565b61185b828260405180602001604052806000815250611ad6565b5050565b611868826114d2565b6118a35760405162461bcd60e51b815260040180806020018281038252602c81526020018061269a602c913960400191505060405180910390fd5b6000828152600a60209081526040909120825161083d928401906123b1565b60008080806118d18686611b28565b9097909650945050505050565b60006118eb848484611ba3565b90505b9392505050565b6119008484846115fe565b61190c84848484611c6d565b6119475760405162461bcd60e51b815260040180806020018281038252603281526020018061248c6032913960400191505060405180910390fd5b50505050565b60608161197257506040805180820190915260018152600360fc1b6020820152610669565b8160005b811561198a57600101600a82049150611976565b60608167ffffffffffffffff811180156119a357600080fd5b506040519080825280601f01601f1916602001820160405280156119ce576020820181803683370190505b50859350905060001982015b8315611a1f57600a840660300160f81b828280600190039350815181106119fd57fe5b60200101906001600160f81b031916908160001a905350600a840493506119da565b50949350505050565b60006109268383611ded565b5490565b60006109268383611e05565b60006109268383611ecb565b60006118eb84846001600160a01b038516611f15565b81546000908210611aa85760405162461bcd60e51b815260040180806020018281038252602281526020018061244a6022913960400191505060405180910390fd5b826000018281548110611ab757fe5b9060005260206000200154905092915050565b60006109268383611fac565b611ae08383612080565b611aed6000848484611c6d565b61083d5760405162461bcd60e51b815260040180806020018281038252603281526020018061248c6032913960400191505060405180910390fd5b815460009081908310611b6c5760405162461bcd60e51b81526004018080602001828103825260228152602001806125e66022913960400191505060405180910390fd5b6000846000018481548110611b7d57fe5b906000526020600020906002020190508060000154816001015492509250509250929050565b60008281526001840160205260408120548281611c3e5760405162461bcd60e51b81526004018080602001828103825283818151815260200191508051906020019080838360005b83811015611c03578181015183820152602001611beb565b50505050905090810190601f168015611c305780820380516001836020036101000a031916815260200191505b509250505060405180910390fd5b50846000016001820381548110611c5157fe5b9060005260206000209060020201600101549150509392505050565b6000611c81846001600160a01b03166121ba565b611c8d57506001610a38565b6060611db3630a85bd0160e11b611ca26114e5565b88878760405160240180856001600160a01b03166001600160a01b03168152602001846001600160a01b03166001600160a01b0316815260200183815260200180602001828103825283818151815260200191508051906020019080838360005b83811015611d1b578181015183820152602001611d03565b50505050905090810190601f168015611d485780820380516001836020036101000a031916815260200191505b5095505050505050604051602081830303815290604052906001600160e01b0319166020820180516001600160e01b03838183161783525050505060405180606001604052806032815260200161248c603291396001600160a01b038816919063ffffffff6121f316565b90506000818060200190516020811015611dcc57600080fd5b50516001600160e01b031916630a85bd0160e11b1492505050949350505050565b60009081526001919091016020526040902054151590565b60008181526001830160205260408120548015611ec15783546000198083019190810190600090879083908110611e3857fe5b9060005260206000200154905080876000018481548110611e5557fe5b600091825260208083209091019290925582815260018981019092526040902090840190558654879080611e8557fe5b60019003818190600052602060002001600090559055866001016000878152602001908152602001600020600090556001945050505050610929565b6000915050610929565b6000611ed78383611ded565b611f0d57508154600181810184556000848152602080822090930184905584548482528286019093526040902091909155610929565b506000610929565b600082815260018401602052604081205480611f7a5750506040805180820182528381526020808201848152865460018181018955600089815284812095516002909302909501918255915190820155865486845281880190925292909120556118ee565b82856000016001830381548110611f8d57fe5b90600052602060002090600202016001018190555060009150506118ee565b60008181526001830160205260408120548015611ec15783546000198083019190810190600090879083908110611fdf57fe5b9060005260206000209060020201905080876000018481548110611fff57fe5b60009182526020808320845460029093020191825560019384015491840191909155835482528983019052604090209084019055865487908061203e57fe5b60008281526020808220600260001990940193840201828155600190810183905592909355888152898201909252604082209190915594506109299350505050565b6001600160a01b0382166120db576040805162461bcd60e51b815260206004820181905260248201527f4552433732313a206d696e7420746f20746865207a65726f2061646472657373604482015290519081900360640190fd5b6120e4816114d2565b15612136576040805162461bcd60e51b815260206004820152601c60248201527f4552433732313a20746f6b656e20616c7265616479206d696e74656400000000604482015290519081900360640190fd5b6121426000838361083d565b6001600160a01b038216600090815260036020526040902061216a908263ffffffff611a4416565b5061217d6004828463ffffffff611a5016565b5060405181906001600160a01b038416906000907fddf252ad1be2c89b69c2b068fc378daa952ba7f163c4a11628f55a4df523b3ef908290a45050565b6000813f7fc5d2460186f7233c927e7db2dcc703c0e500b653ca82273b7bfad8045d85a470818114801590610a38575050151592915050565b60606118eb84846000856060612208856121ba565b612259576040805162461bcd60e51b815260206004820152601d60248201527f416464726573733a2063616c6c20746f206e6f6e2d636f6e7472616374000000604482015290519081900360640190fd5b60006060866001600160a01b031685876040518082805190602001908083835b602083106122985780518252601f199092019160209182019101612279565b6001836020036101000a03801982511681845116808217855250505050505090500191505060006040518083038185875af1925050503d80600081146122fa576040519150601f19603f3d011682016040523d82523d6000602084013e6122ff565b606091505b50915091508115612313579150610a389050565b8051156123235780518082602001fd5b60405162461bcd60e51b8152602060048201818152865160248401528651879391928392604401919085019080838360008315611c03578181015183820152602001611beb565b50805460018160011615610100020316600290046000825580601f1061239057506123ae565b601f0160209004906000526020600020908101906123ae919061242f565b50565b828054600181600116156101000203166002900490600052602060002090601f016020900481019282601f106123f257805160ff191683800117855561241f565b8280016001018555821561241f579182015b8281111561241f578251825591602001919060010190612404565b5061242b92915061242f565b5090565b61070291905b8082111561242b576000815560010161243556fe456e756d657261626c655365743a20696e646578206f7574206f6620626f756e64735265656e7472616e637947756172643a207265656e7472616e742063616c6c004552433732313a207472616e7366657220746f206e6f6e20455243373231526563656976657220696d706c656d656e7465724f776e61626c653a206e6577206f776e657220697320746865207a65726f20616464726573734552433732313a207472616e7366657220746f20746865207a65726f20616464726573734552433732313a206f70657261746f7220717565727920666f72206e6f6e6578697374656e7420746f6b656e4552433732313a20617070726f76652063616c6c6572206973206e6f74206f776e6572206e6f7220617070726f76656420666f7220616c6c504143543a524d3a43616e6e6f742052656d696e74206e6f6e6578697374616e7420746f6b656e4552433732313a2062616c616e636520717565727920666f7220746865207a65726f20616464726573734552433732313a206f776e657220717565727920666f72206e6f6e6578697374656e7420746f6b656e456e756d657261626c654d61703a20696e646578206f7574206f6620626f756e6473504143543a5354463a207472616e736665722063616c6c6572206973206e6f74206f776e6572206e6f7220617070726f766564504143543a49413a43616c6c696e67206164647265737320646f6573206e6f742062656c6f6e6720746f20616e2041646d696e4552433732313a20617070726f76656420717565727920666f72206e6f6e6578697374656e7420746f6b656e4552433732314d657461646174613a2055524920736574206f66206e6f6e6578697374656e7420746f6b656e4f776e61626c653a2063616c6c6572206973206e6f7420746865206f776e65724552433732313a207472616e73666572206f6620746f6b656e2074686174206973206e6f74206f776e4552433732314d657461646174613a2055524920717565727920666f72206e6f6e6578697374656e7420746f6b656e4552433732313a20617070726f76616c20746f2063757272656e74206f776e6572504143543a5353433a2073746f7261676520616464726573732063616e6e6f74206265207a65726f504143543a54463a207472616e736665722063616c6c6572206973206e6f74206f776e6572206e6f7220617070726f766564a2646970667358221220d464961979ccfb605dbd9f5fc16f766a4213a96513ed675cefa6df0fac26034f64736f6c63430006090033",
  "immutableReferences": {},
  "source": "/*-----------------------------------------------------------V0.6.7\r\n__/\\\\\\\\\\\\\\\\\\\\\\\\\\ _____/\\\\\\\\\\\\\\\\\\ _______/\\\\../\\\\ ___/\\\\\\\\\\\\\\\\\\\\\\\\\\\\\\\r\n _\\/\\\\\\/////////\\\\\\ _/\\\\\\///////\\\\\\ ____\\//..\\//____\\/\\\\\\///////////__\r\n  _\\/\\\\\\.......\\/\\\\\\.\\/\\\\\\.....\\/\\\\\\ ________________\\/\\\\\\ ____________\r\n   _\\/\\\\\\\\\\\\\\\\\\\\\\\\\\/__\\/\\\\\\\\\\\\\\\\\\\\\\/_____/\\\\\\____/\\\\\\.\\/\\\\\\\\\\\\\\\\\\\\\\ ____\r\n    _\\/\\\\\\/////////____\\/\\\\\\//////\\\\\\ ___\\/\\\\\\___\\/\\\\\\.\\/\\\\\\///////______\r\n     _\\/\\\\\\ ____________\\/\\\\\\ ___\\//\\\\\\ __\\/\\\\\\___\\/\\\\\\.\\/\\\\\\ ____________\r\n      _\\/\\\\\\ ____________\\/\\\\\\ ____\\//\\\\\\ _\\/\\\\\\___\\/\\\\\\.\\/\\\\\\ ____________\r\n       _\\/\\\\\\ ____________\\/\\\\\\ _____\\//\\\\\\.\\//\\\\\\\\\\\\\\\\\\ _\\/\\\\\\ ____________\r\n        _\\/// _____________\\/// _______\\/// __\\///////// __\\/// _____________\r\n         *-------------------------------------------------------------------*/\r\n\r\n/*-----------------------------------------------------------------\r\n *  TO DO\r\n *\r\n *-----------------------------------------------------------------*/\r\n\r\n// SPDX-License-Identifier: UNLICENSED\r\n\r\npragma solidity ^0.6.7;\r\n\r\nimport \"./_ERC721/ERC721.sol\";\r\nimport \"./_ERC721/Ownable.sol\";\r\nimport \"./PRUF_INTERFACES.sol\";\r\nimport \"./Imports/ReentrancyGuard.sol\";\r\n\r\ncontract AC_TKN is Ownable, ReentrancyGuard, ERC721 {\r\n    constructor() public ERC721(\"PRF Asset Class Token\", \"PAC\") {}\r\n\r\n    address internal ACmanagerAddress; //isAdmin\r\n    address internal storageAddress;\r\n    STOR_Interface internal Storage; // Set up external contract interface\r\n\r\n    event REPORT(string _msg);\r\n\r\n    modifier isAdmin() {\r\n        require(\r\n            (msg.sender == ACmanagerAddress) || (msg.sender == owner()),\r\n            \"PACT:IA:Calling address does not belong to an Admin\"\r\n        );\r\n        _;\r\n    }\r\n\r\n    //----------------------Internal Admin functions / onlyowner or isAdmin----------------------//\r\n\r\n    /*\r\n     * @dev Set storage contract to interface with\r\n     */\r\n    function OO_setStorageContract(address _storageAddress) external onlyOwner {\r\n        require(\r\n            _storageAddress != address(0),\r\n            \"PACT:SSC: storage address cannot be zero\"\r\n        );\r\n        //^^^^^^^checks^^^^^^^^^\r\n\r\n        Storage = STOR_Interface(_storageAddress);\r\n        //^^^^^^^effects^^^^^^^^^\r\n    }\r\n\r\n    /*\r\n     * @dev Address Setters\r\n     */\r\n    function OO_ResolveContractAddresses() external nonReentrant onlyOwner {\r\n        //^^^^^^^checks^^^^^^^^^\r\n        ACmanagerAddress = Storage.resolveContractAddress(\"AC_MGR\");\r\n        //^^^^^^^interactions^^^^^^^^^\r\n    }\r\n\r\n    /*\r\n     * mints assetClass token, must be isAdmin\r\n     */\r\n    function mintACToken(\r\n        address _recipientAddress,\r\n        uint256 tokenId,\r\n        string calldata _tokenURI\r\n    ) external isAdmin returns (uint256) {\r\n        //^^^^^^^checks^^^^^^^^^\r\n        _safeMint(_recipientAddress, tokenId);\r\n        _setTokenURI(tokenId, _tokenURI);\r\n        return tokenId;\r\n        //^^^^^^^interactions^^^^^^^^^\r\n    }\r\n\r\n    /*\r\n     * Authorizations?\r\n     * @dev remint Asset Token\r\n     * must set a new and unuiqe rgtHash\r\n     * burns old token\r\n     * Sends new token to original Caller\r\n     */\r\n    function reMintACToken(\r\n        address _recipientAddress,\r\n        uint256 tokenId,\r\n        string calldata _tokenURI\r\n    ) external isAdmin returns (uint256) {\r\n        require(_exists(tokenId), \"PACT:RM:Cannot Remint nonexistant token\");\r\n        //^^^^^^^checks^^^^^^^^^\r\n\r\n        _burn(tokenId);\r\n        _safeMint(_recipientAddress, tokenId);\r\n        _setTokenURI(tokenId, _tokenURI);\r\n        return tokenId;\r\n        //^^^^^^^interactions^^^^^^^^^\r\n    }\r\n\r\n    /**\r\n     * @dev Transfers the ownership of a given token ID to another address.\r\n     * Usage of this method is discouraged, use {safeTransferFrom} whenever possible.\r\n     * Requires the msg.sender to be the owner, approved, or operator.\r\n     * @param from current owner of the token\r\n     * @param to address to receive the ownership of the given token ID\r\n     * @param tokenId uint256 ID of the token to be transferred\r\n     */\r\n    function transferFrom(\r\n        address from,\r\n        address to,\r\n        uint256 tokenId\r\n    ) public override nonReentrant {\r\n        require(\r\n            _isApprovedOrOwner(_msgSender(), tokenId),\r\n            \"PACT:TF: transfer caller is not owner nor approved\"\r\n        );\r\n        //^^^^^^^checks^^^^^^^^^\r\n\r\n        _transfer(from, to, tokenId);\r\n        //^^^^^^^interactions^^^^^^^^^\r\n    }\r\n\r\n    /**\r\n     * @dev Safely transfers the ownership of a given token ID to another address\r\n     * If the target address is a contract, it must implement {IERC721Receiver-onERC721Received},\r\n     * which is called upon a safe transfer, and return the magic value\r\n     * `bytes4(keccak256(\"onERC721Received(address,address,uint256,bytes)\"))`; otherwise,\r\n     * the transfer is reverted.\r\n     * Requires the msg.sender to be the owner, approved, or operator\r\n     * @param from current owner of the token\r\n     * @param to address to receive the ownership of the given token ID\r\n     * @param tokenId uint256 ID of the token to be transferred\r\n     */\r\n    function safeTransferFrom(\r\n        address from,\r\n        address to,\r\n        uint256 tokenId\r\n    ) public override nonReentrant {\r\n        //^^^^^^^checks^^^^^^^^^\r\n\r\n        safeTransferFrom(from, to, tokenId, \"\");\r\n        //^^^^^^^interactions^^^^^^^^^\r\n    }\r\n\r\n    /**\r\n     * @dev Safely transfers the ownership of a given token ID to another address\r\n     * If the target address is a contract, it must implement {IERC721Receiver-onERC721Received},\r\n     * which is called upon a safe transfer, and return the magic value\r\n     * `bytes4(keccak256(\"onERC721Received(address,address,uint256,bytes)\"))`; otherwise,\r\n     * the transfer is reverted.\r\n     * Requires the _msgSender() to be the owner, approved, or operator\r\n     * @param from current owner of the token\r\n     * @param to address to receive the ownership of the given token ID\r\n     * @param tokenId uint256 ID of the token to be transferred\r\n     * @param _data bytes data to send along with a safe transfer check\r\n     */\r\n    function safeTransferFrom(\r\n        address from,\r\n        address to,\r\n        uint256 tokenId,\r\n        bytes memory _data\r\n    ) public virtual override nonReentrant {\r\n        require(\r\n            _isApprovedOrOwner(_msgSender(), tokenId),\r\n            \"PACT:STF: transfer caller is not owner nor approved\"\r\n        );\r\n        //^^^^^^^checks^^^^^^^^^\r\n\r\n        _safeTransfer(from, to, tokenId, _data);\r\n        //^^^^^^^interactions^^^^^^^^^\r\n    }\r\n}\r\n",
  "sourcePath": "C:\\Users\\drake\\onedrive\\documents\\dev\\pruf\\pruf_truffle\\contracts\\PRUF_AC_TKN.sol",
  "compiler": {
    "name": "solc",
    "version": "0.6.9+commit.3e3065ac.Emscripten.clang"
  },
  "schemaVersion": "3.2.2",
  "updatedAt": "2020-07-28T16:53:37.170Z",
  "devdoc": {
    "methods": {
      "approve(address,uint256)": {
        "details": "See {IERC721-approve}."
      },
      "balanceOf(address)": {
        "details": "See {IERC721-balanceOf}."
      },
      "baseURI()": {
        "details": "Returns the base URI set via {_setBaseURI}. This will be automatically added as a prefix in {tokenURI} to each token's URI, or to the token ID if no specific URI is set for that token ID."
      },
      "getApproved(uint256)": {
        "details": "See {IERC721-getApproved}."
      },
      "isApprovedForAll(address,address)": {
        "details": "See {IERC721-isApprovedForAll}."
      },
      "name()": {
        "details": "See {IERC721Metadata-name}."
      },
      "owner()": {
        "details": "Returns the address of the current owner."
      },
      "ownerOf(uint256)": {
        "details": "See {IERC721-ownerOf}."
      },
      "renounceOwnership()": {
        "details": "Leaves the contract without owner. It will not be possible to call `onlyOwner` functions anymore. Can only be called by the current owner. NOTE: Renouncing ownership will leave the contract without an owner, thereby removing any functionality that is only available to the owner."
      },
      "safeTransferFrom(address,address,uint256)": {
        "details": "Safely transfers the ownership of a given token ID to another address If the target address is a contract, it must implement {IERC721Receiver-onERC721Received}, which is called upon a safe transfer, and return the magic value `bytes4(keccak256(\"onERC721Received(address,address,uint256,bytes)\"))`; otherwise, the transfer is reverted. Requires the msg.sender to be the owner, approved, or operator",
        "params": {
          "from": "current owner of the token",
          "to": "address to receive the ownership of the given token ID",
          "tokenId": "uint256 ID of the token to be transferred"
        }
      },
      "safeTransferFrom(address,address,uint256,bytes)": {
        "details": "Safely transfers the ownership of a given token ID to another address If the target address is a contract, it must implement {IERC721Receiver-onERC721Received}, which is called upon a safe transfer, and return the magic value `bytes4(keccak256(\"onERC721Received(address,address,uint256,bytes)\"))`; otherwise, the transfer is reverted. Requires the _msgSender() to be the owner, approved, or operator",
        "params": {
          "_data": "bytes data to send along with a safe transfer check",
          "from": "current owner of the token",
          "to": "address to receive the ownership of the given token ID",
          "tokenId": "uint256 ID of the token to be transferred"
        }
      },
      "setApprovalForAll(address,bool)": {
        "details": "See {IERC721-setApprovalForAll}."
      },
      "supportsInterface(bytes4)": {
        "details": "See {IERC165-supportsInterface}. Time complexity O(1), guaranteed to always use less than 30 000 gas."
      },
      "symbol()": {
        "details": "See {IERC721Metadata-symbol}."
      },
      "tokenByIndex(uint256)": {
        "details": "See {IERC721Enumerable-tokenByIndex}."
      },
      "tokenOfOwnerByIndex(address,uint256)": {
        "details": "See {IERC721Enumerable-tokenOfOwnerByIndex}."
      },
      "tokenURI(uint256)": {
        "details": "See {IERC721Metadata-tokenURI}."
      },
      "totalSupply()": {
        "details": "See {IERC721Enumerable-totalSupply}."
      },
      "transferFrom(address,address,uint256)": {
        "details": "Transfers the ownership of a given token ID to another address. Usage of this method is discouraged, use {safeTransferFrom} whenever possible. Requires the msg.sender to be the owner, approved, or operator.",
        "params": {
          "from": "current owner of the token",
          "to": "address to receive the ownership of the given token ID",
          "tokenId": "uint256 ID of the token to be transferred"
        }
      },
      "transferOwnership(address)": {
        "details": "Transfers ownership of the contract to a new account (`newOwner`). Can only be called by the current owner."
      }
    }
  },
  "userdoc": {
    "methods": {}
  }
}