{
  "contractName": "AIRLIFT",
  "abi": [
    {
      "inputs": [],
      "stateMutability": "nonpayable",
      "type": "constructor"
    },
    {
      "anonymous": false,
      "inputs": [
        {
          "indexed": false,
          "internalType": "address",
          "name": "account",
          "type": "address"
        }
      ],
      "name": "Paused",
      "type": "event"
    },
    {
      "anonymous": false,
      "inputs": [
        {
          "indexed": true,
          "internalType": "bytes32",
          "name": "role",
          "type": "bytes32"
        },
        {
          "indexed": true,
          "internalType": "bytes32",
          "name": "previousAdminRole",
          "type": "bytes32"
        },
        {
          "indexed": true,
          "internalType": "bytes32",
          "name": "newAdminRole",
          "type": "bytes32"
        }
      ],
      "name": "RoleAdminChanged",
      "type": "event"
    },
    {
      "anonymous": false,
      "inputs": [
        {
          "indexed": true,
          "internalType": "bytes32",
          "name": "role",
          "type": "bytes32"
        },
        {
          "indexed": true,
          "internalType": "address",
          "name": "account",
          "type": "address"
        },
        {
          "indexed": true,
          "internalType": "address",
          "name": "sender",
          "type": "address"
        }
      ],
      "name": "RoleGranted",
      "type": "event"
    },
    {
      "anonymous": false,
      "inputs": [
        {
          "indexed": true,
          "internalType": "bytes32",
          "name": "role",
          "type": "bytes32"
        },
        {
          "indexed": true,
          "internalType": "address",
          "name": "account",
          "type": "address"
        },
        {
          "indexed": true,
          "internalType": "address",
          "name": "sender",
          "type": "address"
        }
      ],
      "name": "RoleRevoked",
      "type": "event"
    },
    {
      "anonymous": false,
      "inputs": [
        {
          "indexed": false,
          "internalType": "address",
          "name": "account",
          "type": "address"
        }
      ],
      "name": "Unpaused",
      "type": "event"
    },
    {
      "inputs": [],
      "name": "CONTRACT_ADMIN_ROLE",
      "outputs": [
        {
          "internalType": "bytes32",
          "name": "",
          "type": "bytes32"
        }
      ],
      "stateMutability": "view",
      "type": "function"
    },
    {
      "inputs": [],
      "name": "DEFAULT_ADMIN_ROLE",
      "outputs": [
        {
          "internalType": "bytes32",
          "name": "",
          "type": "bytes32"
        }
      ],
      "stateMutability": "view",
      "type": "function"
    },
    {
      "inputs": [],
      "name": "PAUSER_ROLE",
      "outputs": [
        {
          "internalType": "bytes32",
          "name": "",
          "type": "bytes32"
        }
      ],
      "stateMutability": "view",
      "type": "function"
    },
    {
      "inputs": [
        {
          "internalType": "bytes32",
          "name": "role",
          "type": "bytes32"
        }
      ],
      "name": "getRoleAdmin",
      "outputs": [
        {
          "internalType": "bytes32",
          "name": "",
          "type": "bytes32"
        }
      ],
      "stateMutability": "view",
      "type": "function"
    },
    {
      "inputs": [
        {
          "internalType": "bytes32",
          "name": "role",
          "type": "bytes32"
        },
        {
          "internalType": "address",
          "name": "account",
          "type": "address"
        }
      ],
      "name": "grantRole",
      "outputs": [],
      "stateMutability": "nonpayable",
      "type": "function"
    },
    {
      "inputs": [
        {
          "internalType": "bytes32",
          "name": "role",
          "type": "bytes32"
        },
        {
          "internalType": "address",
          "name": "account",
          "type": "address"
        }
      ],
      "name": "hasRole",
      "outputs": [
        {
          "internalType": "bool",
          "name": "",
          "type": "bool"
        }
      ],
      "stateMutability": "view",
      "type": "function"
    },
    {
      "inputs": [],
      "name": "paused",
      "outputs": [
        {
          "internalType": "bool",
          "name": "",
          "type": "bool"
        }
      ],
      "stateMutability": "view",
      "type": "function"
    },
    {
      "inputs": [
        {
          "internalType": "bytes32",
          "name": "role",
          "type": "bytes32"
        },
        {
          "internalType": "address",
          "name": "account",
          "type": "address"
        }
      ],
      "name": "renounceRole",
      "outputs": [],
      "stateMutability": "nonpayable",
      "type": "function"
    },
    {
      "inputs": [
        {
          "internalType": "bytes32",
          "name": "role",
          "type": "bytes32"
        },
        {
          "internalType": "address",
          "name": "account",
          "type": "address"
        }
      ],
      "name": "revokeRole",
      "outputs": [],
      "stateMutability": "nonpayable",
      "type": "function"
    },
    {
      "inputs": [
        {
          "internalType": "bytes4",
          "name": "interfaceId",
          "type": "bytes4"
        }
      ],
      "name": "supportsInterface",
      "outputs": [
        {
          "internalType": "bool",
          "name": "",
          "type": "bool"
        }
      ],
      "stateMutability": "view",
      "type": "function"
    },
    {
      "inputs": [
        {
          "internalType": "address",
          "name": "_utilAddress",
          "type": "address"
        },
        {
          "internalType": "address",
          "name": "_rewardsVaultAddress",
          "type": "address"
        }
      ],
      "name": "setTokenContracts",
      "outputs": [],
      "stateMutability": "nonpayable",
      "type": "function"
    },
    {
      "inputs": [
        {
          "internalType": "uint256",
          "name": "_tokenId",
          "type": "uint256"
        }
      ],
      "name": "drip",
      "outputs": [],
      "stateMutability": "nonpayable",
      "type": "function"
    },
    {
      "inputs": [],
      "name": "pause",
      "outputs": [],
      "stateMutability": "nonpayable",
      "type": "function"
    },
    {
      "inputs": [],
      "name": "unpause",
      "outputs": [],
      "stateMutability": "nonpayable",
      "type": "function"
    }
  ],
  "bytecode": "0x608060405234801561001057600080fd5b50600160009081556002805460ff1916905561002c9033610085565b6100567f2ce8d04a9c35987429af538825cd2438cc5c5bb5dc427955f84daaa3ea10501633610085565b6100807f65d7a28e3265b37a6474929f336521b332c1681b933f6cb9f3376673440d862a33610085565b61011a565b61008f8282610093565b5050565b60008281526001602090815260408083206001600160a01b038516845290915290205460ff1661008f5760008281526001602081815260408084206001600160a01b0386168086529252808420805460ff19169093179092559051339285917f2f8788117e7eff1d82e926ec794901d17c78024a50270940304540a733656f0d9190a45050565b610dd8806101296000396000f3fe608060405234801561001057600080fd5b50600436106100ea5760003560e01c80635c975abb1161008c578063a217fddf11610066578063a217fddf146101d9578063d547741f146101e1578063e63ab1e9146101f4578063e914b70c1461021b57600080fd5b80635c975abb146101b35780638456cb59146101be57806391d14854146101c657600080fd5b80632f2ff15d116100c85780632f2ff15d1461017057806336568abe146101855780633f4ba83a1461019857806358326b7a146101a057600080fd5b806301ffc9a7146100ef5780631da0331214610117578063248a9ca31461014c575b600080fd5b6101026100fd366004610b7c565b61022e565b60405190151581526020015b60405180910390f35b61013e7f2ce8d04a9c35987429af538825cd2438cc5c5bb5dc427955f84daaa3ea10501681565b60405190815260200161010e565b61013e61015a366004610b40565b6000908152600160208190526040909120015490565b61018361017e366004610b59565b610265565b005b610183610193366004610b59565b610291565b610183610314565b6101836101ae366004610b40565b610364565b60025460ff16610102565b610183610587565b6101026101d4366004610b59565b6105d5565b61013e600081565b6101836101ef366004610b59565b610600565b61013e7f65d7a28e3265b37a6474929f336521b332c1681b933f6cb9f3376673440d862a81565b610183610229366004610b0d565b610627565b60006001600160e01b03198216637965db0b60e01b148061025f57506301ffc9a760e01b6001600160e01b03198316145b92915050565b60008281526001602081905260409091200154610282813361070a565b61028c838361076e565b505050565b6001600160a01b03811633146103065760405162461bcd60e51b815260206004820152602f60248201527f416363657373436f6e74726f6c3a2063616e206f6e6c792072656e6f756e636560448201526e103937b632b9903337b91039b2b63360891b60648201526084015b60405180910390fd5b61031082826107d9565b5050565b61033e7f65d7a28e3265b37a6474929f336521b332c1681b933f6cb9f3376673440d862a336105d5565b61035a5760405162461bcd60e51b81526004016102fd90610c67565b610362610840565b565b60025460ff16156103aa5760405162461bcd60e51b815260206004820152601060248201526f14185d5cd8589b194e881c185d5cd95960821b60448201526064016102fd565b600260005414156103fd5760405162461bcd60e51b815260206004820152601f60248201527f5265656e7472616e637947756172643a207265656e7472616e742063616c6c0060448201526064016102fd565b60026000556006546001906104129042610d02565b1161046b5760405162461bcd60e51b8152602060048201526024808201527f5045533a43423a206d75737420776169742031732066726f6d206c61737420636044820152636c61696d60e01b60648201526084016102fd565b42600655600354600480546040516370a0823160e01b81526001600160a01b0391821692810192909252670de0b6b3a7640000926000929116906370a0823190602401602060405180830381600087803b1580156104c857600080fd5b505af11580156104dc573d6000803e3d6000fd5b505050506040513d601f19601f820116820180604052508101906105009190610ba6565b90508082111561051857610515600282610cc1565b91505b6005546040516388af138b60e01b815260048101859052602481018490526001600160a01b03909116906388af138b90604401600060405180830381600087803b15801561056557600080fd5b505af1158015610579573d6000803e3d6000fd5b505060016000555050505050565b6105b17f65d7a28e3265b37a6474929f336521b332c1681b933f6cb9f3376673440d862a336105d5565b6105cd5760405162461bcd60e51b81526004016102fd90610c67565b6103626108d3565b60009182526001602090815260408084206001600160a01b0393909316845291905290205460ff1690565b6000828152600160208190526040909120015461061d813361070a565b61028c83836107d9565b6106517f2ce8d04a9c35987429af538825cd2438cc5c5bb5dc427955f84daaa3ea105016336105d5565b6106ad5760405162461bcd60e51b815260206004820152602760248201527f5045533a4d4f442d4943412043616c6c65722021434f4e54524143545f41444d604482015266494e5f524f4c4560c81b60648201526084016102fd565b60028054610100600160a81b0319166101006001600160a01b0394851681029190911791829055600380549190920484166001600160a01b0319918216179091556004805482169290931691821790925560058054909216179055565b61071482826105d5565b6103105761072c816001600160a01b0316601461094e565b61073783602061094e565b604051602001610748929190610bbf565b60408051601f198184030181529082905262461bcd60e51b82526102fd91600401610c34565b61077882826105d5565b6103105760008281526001602081815260408084206001600160a01b0386168086529252808420805460ff19169093179092559051339285917f2f8788117e7eff1d82e926ec794901d17c78024a50270940304540a733656f0d9190a45050565b6107e382826105d5565b156103105760008281526001602090815260408083206001600160a01b0385168085529252808320805460ff1916905551339285917ff6391f5c32d9c69d2a47ea670b442974b53935d1edc7fd64eb21e047a839171b9190a45050565b60025460ff166108895760405162461bcd60e51b815260206004820152601460248201527314185d5cd8589b194e881b9bdd081c185d5cd95960621b60448201526064016102fd565b6002805460ff191690557f5db9ee0a495bf2e6ff9c91a7834c1ba4fdd244a5e8aa4e537bd38aeae4b073aa335b6040516001600160a01b03909116815260200160405180910390a1565b60025460ff16156109195760405162461bcd60e51b815260206004820152601060248201526f14185d5cd8589b194e881c185d5cd95960821b60448201526064016102fd565b6002805460ff191660011790557f62e78cea01bee320cd4e420270b5ea74000d11b0c9f74754ebdbfc544b05a2586108b63390565b6060600061095d836002610ce3565b610968906002610ca9565b67ffffffffffffffff81111561098057610980610d8c565b6040519080825280601f01601f1916602001820160405280156109aa576020820181803683370190505b509050600360fc1b816000815181106109c5576109c5610d76565b60200101906001600160f81b031916908160001a905350600f60fb1b816001815181106109f4576109f4610d76565b60200101906001600160f81b031916908160001a9053506000610a18846002610ce3565b610a23906001610ca9565b90505b6001811115610a9b576f181899199a1a9b1b9c1cb0b131b232b360811b85600f1660108110610a5757610a57610d76565b1a60f81b828281518110610a6d57610a6d610d76565b60200101906001600160f81b031916908160001a90535060049490941c93610a9481610d49565b9050610a26565b508315610aea5760405162461bcd60e51b815260206004820181905260248201527f537472696e67733a20686578206c656e67746820696e73756666696369656e7460448201526064016102fd565b9392505050565b80356001600160a01b0381168114610b0857600080fd5b919050565b60008060408385031215610b2057600080fd5b610b2983610af1565b9150610b3760208401610af1565b90509250929050565b600060208284031215610b5257600080fd5b5035919050565b60008060408385031215610b6c57600080fd5b82359150610b3760208401610af1565b600060208284031215610b8e57600080fd5b81356001600160e01b031981168114610aea57600080fd5b600060208284031215610bb857600080fd5b5051919050565b7f416363657373436f6e74726f6c3a206163636f756e7420000000000000000000815260008351610bf7816017850160208801610d19565b7001034b99036b4b9b9b4b733903937b6329607d1b6017918401918201528351610c28816028840160208801610d19565b01602801949350505050565b6020815260008251806020840152610c53816040850160208701610d19565b601f01601f19169190910160400192915050565b60208082526022908201527f5045533a4d4f442d49503a43616c6c696e67206164647265737320217061757360408201526132b960f11b606082015260800190565b60008219821115610cbc57610cbc610d60565b500190565b600082610cde57634e487b7160e01b600052601260045260246000fd5b500490565b6000816000190483118215151615610cfd57610cfd610d60565b500290565b600082821015610d1457610d14610d60565b500390565b60005b83811015610d34578181015183820152602001610d1c565b83811115610d43576000848401525b50505050565b600081610d5857610d58610d60565b506000190190565b634e487b7160e01b600052601160045260246000fd5b634e487b7160e01b600052603260045260246000fd5b634e487b7160e01b600052604160045260246000fdfea2646970667358221220bf81e7859a5fdf68b0147bb6c33139b0d0336dc2df8b66566e5001d661f5a3a864736f6c63430008070033",
  "immutableReferences": {},
  "source": "/*--------------------------------------------------------PRF0.8.7\n__/\\\\\\\\\\\\\\\\\\\\\\\\\\ _____/\\\\\\\\\\\\\\\\\\ _______/\\\\__/\\\\ ___/\\\\\\\\\\\\\\\\\\\\\\\\\\\\\\        \n__\\/\\\\\\/////////\\\\\\ _/\\\\\\///////\\\\\\ ____\\//__\\//____\\/\\\\\\///////////__       \n___\\/\\\\\\_______\\/\\\\\\_\\/\\\\\\_____\\/\\\\\\ ________________\\/\\\\\\ ____________      \n____\\/\\\\\\\\\\\\\\\\\\\\\\\\\\/__\\/\\\\\\\\\\\\\\\\\\\\\\/_____/\\\\\\____/\\\\\\_\\/\\\\\\\\\\\\\\\\\\\\\\ ____     \n_____\\/\\\\\\/////////____\\/\\\\\\//////\\\\\\ ___\\/\\\\\\___\\/\\\\\\_\\/\\\\\\///////______\n______\\/\\\\\\ ____________\\/\\\\\\ ___\\//\\\\\\ __\\/\\\\\\___\\/\\\\\\_\\/\\\\\\ ____________\n_______\\/\\\\\\ ____________\\/\\\\\\ ____\\//\\\\\\ _\\/\\\\\\___\\/\\\\\\_\\/\\\\\\ ____________\n________\\/\\\\\\ ____________\\/\\\\\\ _____\\//\\\\\\_\\//\\\\\\\\\\\\\\\\\\ _\\/\\\\\\ ____________\n_________\\/// _____________\\/// _______\\/// __\\///////// __\\/// _____________\n*---------------------------------------------------------------------------*/\n\n/**-----------------------------------------------------------------\n * AIRLIFT Specification V0.1\n * 1.00 per second\n *---------------------------------------------------------------*/\n\n// SPDX-License-Identifier: UNLICENSED\npragma solidity 0.8.7;\n\nimport \"../Resources/RESOURCE_PRUF_INTERFACES.sol\";\nimport \"../Resources/RESOURCE_PRUF_TKN_INTERFACES.sol\";\nimport \"../Imports/access/AccessControl.sol\";\nimport \"../Imports/security/Pausable.sol\";\nimport \"../Imports/security/ReentrancyGuard.sol\";\nimport \"../Imports/token/ERC721/IERC721.sol\";\n\ncontract AIRLIFT is ReentrancyGuard, AccessControl, Pausable {\n    bytes32 public constant CONTRACT_ADMIN_ROLE =\n        keccak256(\"CONTRACT_ADMIN_ROLE\");\n    bytes32 public constant PAUSER_ROLE = keccak256(\"PAUSER_ROLE\");\n\n    // address internal STAKE_TKN_Address;\n    // STAKE_TKN_Interface internal STAKE_TKN;\n\n    address internal UTIL_TKN_Address;\n    UTIL_TKN_Interface internal UTIL_TKN;\n\n    address internal REWARDS_VAULT_Address;\n    REWARDS_VAULT_Interface internal REWARDS_VAULT;\n\n    uint256 constant seconds_in_a_day = 86400; //never set to less than 24 for tesing\n\n    uint256 lastDrip; //last claim block.timestamp\n\n    constructor() {\n        _setupRole(DEFAULT_ADMIN_ROLE, _msgSender());\n        _setupRole(CONTRACT_ADMIN_ROLE, _msgSender());\n        _setupRole(PAUSER_ROLE, _msgSender());\n    }\n\n    // --------------------------------------Modifiers--------------------------------------------//\n\n    // /**\n    //  * @dev Verify user credentials\n    //  * @param _tokenId token id to check\n    //  */\n    // modifier isStakeHolder(uint256 _tokenId) {\n    //     require(\n    //         (STAKE_TKN.ownerOf(_tokenId) == _msgSender()),\n    //         \"PES:MOD-ISH: caller does not hold stake token\"\n    //     );\n    //     _;\n    // }\n\n    /**\n     * @dev Verify user credentials\n     * Originating Address:\n     *      Has CONTRACT_ADMIN_ROLE\n     */\n    modifier isContractAdmin() {\n        require(\n            hasRole(CONTRACT_ADMIN_ROLE, _msgSender()),\n            \"PES:MOD-ICA Caller !CONTRACT_ADMIN_ROLE\"\n        );\n        _;\n    }\n\n    /**\n     * @dev Verify user credentials\n     * Originating Address:\n     *      Has PAUSER_ROLE\n     */\n    modifier isPauser() {\n        require(\n            hasRole(PAUSER_ROLE, _msgSender()),\n            \"PES:MOD-IP:Calling address !pauser\"\n        );\n        _;\n    }\n\n    //--------------------------------------External functions--------------------------------------------//\n\n    /**\n     * @dev Set address of contracts to interface with\n     * @param _utilAddress address of UTIL_TKN(PRUF)\n     * @param _rewardsVaultAddress address of REWARDS_VAULT\n     */\n    function setTokenContracts(\n        address _utilAddress,\n        // address _stakeAddress,\n        address _rewardsVaultAddress\n    ) external isContractAdmin {\n        //^^^^^^^checks^^^^^^^^^\n\n        UTIL_TKN_Address = _utilAddress;\n        UTIL_TKN = UTIL_TKN_Interface(UTIL_TKN_Address);\n\n        // STAKE_TKN_Address = _stakeAddress;\n        // STAKE_TKN = STAKE_TKN_Interface(STAKE_TKN_Address);\n\n        REWARDS_VAULT_Address = _rewardsVaultAddress;\n        REWARDS_VAULT = REWARDS_VAULT_Interface(REWARDS_VAULT_Address);\n        //^^^^^^^effects^^^^^^^^^\n    }\n\n    /**\n     * @dev Transfers eligible rewards to staker, resets last payment time\n     * @param _tokenId token id to claim rewards on\n     */\n    function drip(uint256 _tokenId)\n        external\n        // isStakeHolder(_tokenId)\n        whenNotPaused\n        nonReentrant\n    {\n        require(\n            (block.timestamp - lastDrip) > 1, // 1 second\n            \"PES:CB: must wait 1s from last claim\"\n        );\n        //^^^^^^^checks^^^^^^^^^\n\n        uint256 reward = 1000000000000000000; // 1.00\n\n        lastDrip = block.timestamp; //resets interval start for next reward period\n        //^^^^^^^effects^^^^^^^^^\n        uint256 rewardsVaultBalance = UTIL_TKN.balanceOf(REWARDS_VAULT_Address);\n        if (reward > rewardsVaultBalance) {\n            reward = rewardsVaultBalance / 2; //as the rewards vault becomes empty, enforce a semi-fair FCFS distruibution favoring small holders\n        }\n        REWARDS_VAULT.payRewards(_tokenId, reward);\n        //^^^^^^^interactions^^^^^^^^^\n    }\n\n    /**\n     * @dev Pauses contract.\n     *\n     * See {ERC721Pausable} and {Pausable-_pause}.\n     */\n    function pause() external isPauser {\n        _pause();\n    }\n\n    /**\n     * @dev Unpauses contract.\n     *\n     * See {ERC721Pausable} and {Pausable-_unpause}.\n     */\n    function unpause() external isPauser {\n        _unpause();\n    }\n}\n",
  "sourcePath": "/Users/drake/Documents/DEV/PRUF/PRUF_TRUFFLE/contracts/InProgress/PRUF_AIRLIFT.sol",
  "compiler": {
    "name": "solc",
    "version": "0.8.7+commit.e28d00a7.Emscripten.clang"
  },
  "schemaVersion": "3.4.3",
  "updatedAt": "2022-04-27T15:21:40.029Z",
  "devdoc": {
    "kind": "dev",
    "methods": {
      "drip(uint256)": {
        "details": "Transfers eligible rewards to staker, resets last payment time",
        "params": {
          "_tokenId": "token id to claim rewards on"
        }
      },
      "getRoleAdmin(bytes32)": {
        "details": "Returns the admin role that controls `role`. See {grantRole} and {revokeRole}. To change a role's admin, use {_setRoleAdmin}."
      },
      "grantRole(bytes32,address)": {
        "details": "Grants `role` to `account`. If `account` had not been already granted `role`, emits a {RoleGranted} event. Requirements: - the caller must have ``role``'s admin role."
      },
      "hasRole(bytes32,address)": {
        "details": "Returns `true` if `account` has been granted `role`."
      },
      "pause()": {
        "details": "Pauses contract. See {ERC721Pausable} and {Pausable-_pause}."
      },
      "paused()": {
        "details": "Returns true if the contract is paused, and false otherwise."
      },
      "renounceRole(bytes32,address)": {
        "details": "Revokes `role` from the calling account. Roles are often managed via {grantRole} and {revokeRole}: this function's purpose is to provide a mechanism for accounts to lose their privileges if they are compromised (such as when a trusted device is misplaced). If the calling account had been granted `role`, emits a {RoleRevoked} event. Requirements: - the caller must be `account`."
      },
      "revokeRole(bytes32,address)": {
        "details": "Revokes `role` from `account`. If `account` had been granted `role`, emits a {RoleRevoked} event. Requirements: - the caller must have ``role``'s admin role."
      },
      "setTokenContracts(address,address)": {
        "details": "Set address of contracts to interface with",
        "params": {
          "_rewardsVaultAddress": "address of REWARDS_VAULT",
          "_utilAddress": "address of UTIL_TKN(PRUF)"
        }
      },
      "supportsInterface(bytes4)": {
        "details": "See {IERC165-supportsInterface}."
      },
      "unpause()": {
        "details": "Unpauses contract. See {ERC721Pausable} and {Pausable-_unpause}."
      }
    },
    "version": 1
  },
  "userdoc": {
    "kind": "user",
    "methods": {},
    "version": 1
  }
}