{
  "contractName": "APP",
  "abi": [
    {
      "anonymous": false,
      "inputs": [
        {
          "indexed": false,
          "internalType": "address",
          "name": "account",
          "type": "address"
        }
      ],
      "name": "Paused",
      "type": "event"
    },
    {
      "anonymous": false,
      "inputs": [
        {
          "indexed": false,
          "internalType": "string",
          "name": "_msg",
          "type": "string"
        }
      ],
      "name": "REPORT",
      "type": "event"
    },
    {
      "anonymous": false,
      "inputs": [
        {
          "indexed": true,
          "internalType": "bytes32",
          "name": "role",
          "type": "bytes32"
        },
        {
          "indexed": true,
          "internalType": "bytes32",
          "name": "previousAdminRole",
          "type": "bytes32"
        },
        {
          "indexed": true,
          "internalType": "bytes32",
          "name": "newAdminRole",
          "type": "bytes32"
        }
      ],
      "name": "RoleAdminChanged",
      "type": "event"
    },
    {
      "anonymous": false,
      "inputs": [
        {
          "indexed": true,
          "internalType": "bytes32",
          "name": "role",
          "type": "bytes32"
        },
        {
          "indexed": true,
          "internalType": "address",
          "name": "account",
          "type": "address"
        },
        {
          "indexed": true,
          "internalType": "address",
          "name": "sender",
          "type": "address"
        }
      ],
      "name": "RoleGranted",
      "type": "event"
    },
    {
      "anonymous": false,
      "inputs": [
        {
          "indexed": true,
          "internalType": "bytes32",
          "name": "role",
          "type": "bytes32"
        },
        {
          "indexed": true,
          "internalType": "address",
          "name": "account",
          "type": "address"
        },
        {
          "indexed": true,
          "internalType": "address",
          "name": "sender",
          "type": "address"
        }
      ],
      "name": "RoleRevoked",
      "type": "event"
    },
    {
      "anonymous": false,
      "inputs": [
        {
          "indexed": false,
          "internalType": "address",
          "name": "account",
          "type": "address"
        }
      ],
      "name": "Unpaused",
      "type": "event"
    },
    {
      "inputs": [],
      "name": "ASSET_TXFR_ROLE",
      "outputs": [
        {
          "internalType": "bytes32",
          "name": "",
          "type": "bytes32"
        }
      ],
      "stateMutability": "view",
      "type": "function"
    },
    {
      "inputs": [],
      "name": "B320x01",
      "outputs": [
        {
          "internalType": "bytes32",
          "name": "",
          "type": "bytes32"
        }
      ],
      "stateMutability": "view",
      "type": "function"
    },
    {
      "inputs": [],
      "name": "CONTRACT_ADMIN_ROLE",
      "outputs": [
        {
          "internalType": "bytes32",
          "name": "",
          "type": "bytes32"
        }
      ],
      "stateMutability": "view",
      "type": "function"
    },
    {
      "inputs": [],
      "name": "DAO_ROLE",
      "outputs": [
        {
          "internalType": "bytes32",
          "name": "",
          "type": "bytes32"
        }
      ],
      "stateMutability": "view",
      "type": "function"
    },
    {
      "inputs": [],
      "name": "DEFAULT_ADMIN_ROLE",
      "outputs": [
        {
          "internalType": "bytes32",
          "name": "",
          "type": "bytes32"
        }
      ],
      "stateMutability": "view",
      "type": "function"
    },
    {
      "inputs": [
        {
          "internalType": "address",
          "name": "_tokenContract",
          "type": "address"
        },
        {
          "internalType": "address",
          "name": "_to",
          "type": "address"
        },
        {
          "internalType": "uint256",
          "name": "_amount",
          "type": "uint256"
        }
      ],
      "name": "ERC20Transfer",
      "outputs": [],
      "stateMutability": "nonpayable",
      "type": "function"
    },
    {
      "inputs": [
        {
          "internalType": "address",
          "name": "_tokenContract",
          "type": "address"
        },
        {
          "internalType": "address",
          "name": "_to",
          "type": "address"
        },
        {
          "internalType": "uint256",
          "name": "_tokenID",
          "type": "uint256"
        }
      ],
      "name": "ERC721Transfer",
      "outputs": [],
      "stateMutability": "nonpayable",
      "type": "function"
    },
    {
      "inputs": [],
      "name": "PAUSER_ROLE",
      "outputs": [
        {
          "internalType": "bytes32",
          "name": "",
          "type": "bytes32"
        }
      ],
      "stateMutability": "view",
      "type": "function"
    },
    {
      "inputs": [
        {
          "internalType": "bytes32",
          "name": "role",
          "type": "bytes32"
        }
      ],
      "name": "getRoleAdmin",
      "outputs": [
        {
          "internalType": "bytes32",
          "name": "",
          "type": "bytes32"
        }
      ],
      "stateMutability": "view",
      "type": "function"
    },
    {
      "inputs": [
        {
          "internalType": "bytes32",
          "name": "role",
          "type": "bytes32"
        },
        {
          "internalType": "address",
          "name": "account",
          "type": "address"
        }
      ],
      "name": "grantRole",
      "outputs": [],
      "stateMutability": "nonpayable",
      "type": "function"
    },
    {
      "inputs": [
        {
          "internalType": "bytes32",
          "name": "role",
          "type": "bytes32"
        },
        {
          "internalType": "address",
          "name": "account",
          "type": "address"
        }
      ],
      "name": "hasRole",
      "outputs": [
        {
          "internalType": "bool",
          "name": "",
          "type": "bool"
        }
      ],
      "stateMutability": "view",
      "type": "function"
    },
    {
      "inputs": [
        {
          "internalType": "address",
          "name": "",
          "type": "address"
        },
        {
          "internalType": "address",
          "name": "",
          "type": "address"
        },
        {
          "internalType": "uint256",
          "name": "",
          "type": "uint256"
        },
        {
          "internalType": "bytes",
          "name": "",
          "type": "bytes"
        }
      ],
      "name": "onERC721Received",
      "outputs": [
        {
          "internalType": "bytes4",
          "name": "",
          "type": "bytes4"
        }
      ],
      "stateMutability": "nonpayable",
      "type": "function"
    },
    {
      "inputs": [],
      "name": "pause",
      "outputs": [],
      "stateMutability": "nonpayable",
      "type": "function"
    },
    {
      "inputs": [],
      "name": "paused",
      "outputs": [
        {
          "internalType": "bool",
          "name": "",
          "type": "bool"
        }
      ],
      "stateMutability": "view",
      "type": "function"
    },
    {
      "inputs": [
        {
          "internalType": "bytes32",
          "name": "role",
          "type": "bytes32"
        },
        {
          "internalType": "address",
          "name": "account",
          "type": "address"
        }
      ],
      "name": "renounceRole",
      "outputs": [],
      "stateMutability": "nonpayable",
      "type": "function"
    },
    {
      "inputs": [],
      "name": "resolveContractAddresses",
      "outputs": [],
      "stateMutability": "nonpayable",
      "type": "function"
    },
    {
      "inputs": [
        {
          "internalType": "bytes32",
          "name": "role",
          "type": "bytes32"
        },
        {
          "internalType": "address",
          "name": "account",
          "type": "address"
        }
      ],
      "name": "revokeRole",
      "outputs": [],
      "stateMutability": "nonpayable",
      "type": "function"
    },
    {
      "inputs": [
        {
          "internalType": "address",
          "name": "_storageAddress",
          "type": "address"
        }
      ],
      "name": "setStorageContract",
      "outputs": [],
      "stateMutability": "nonpayable",
      "type": "function"
    },
    {
      "inputs": [
        {
          "internalType": "bytes4",
          "name": "interfaceId",
          "type": "bytes4"
        }
      ],
      "name": "supportsInterface",
      "outputs": [
        {
          "internalType": "bool",
          "name": "",
          "type": "bool"
        }
      ],
      "stateMutability": "view",
      "type": "function"
    },
    {
      "inputs": [],
      "name": "unpause",
      "outputs": [],
      "stateMutability": "nonpayable",
      "type": "function"
    },
    {
      "inputs": [
        {
          "internalType": "bytes32",
          "name": "_idxHash",
          "type": "bytes32"
        },
        {
          "internalType": "bytes32",
          "name": "_rgtHash",
          "type": "bytes32"
        },
        {
          "internalType": "uint32",
          "name": "_node",
          "type": "uint32"
        },
        {
          "internalType": "uint32",
          "name": "_countDownStart",
          "type": "uint32"
        },
        {
          "internalType": "string",
          "name": "_URIsuffix",
          "type": "string"
        }
      ],
      "name": "newRecord",
      "outputs": [],
      "stateMutability": "nonpayable",
      "type": "function"
    },
    {
      "inputs": [
        {
          "internalType": "bytes32",
          "name": "_idxHash",
          "type": "bytes32"
        },
        {
          "internalType": "bytes32",
          "name": "_rgtHash",
          "type": "bytes32"
        }
      ],
      "name": "forceModifyRecord",
      "outputs": [],
      "stateMutability": "nonpayable",
      "type": "function"
    },
    {
      "inputs": [
        {
          "internalType": "bytes32",
          "name": "_idxHash",
          "type": "bytes32"
        },
        {
          "internalType": "bytes32",
          "name": "_rgtHash",
          "type": "bytes32"
        },
        {
          "internalType": "bytes32",
          "name": "_newrgtHash",
          "type": "bytes32"
        }
      ],
      "name": "transferAsset",
      "outputs": [],
      "stateMutability": "nonpayable",
      "type": "function"
    },
    {
      "inputs": [
        {
          "internalType": "bytes32",
          "name": "_idxHash",
          "type": "bytes32"
        },
        {
          "internalType": "bytes32",
          "name": "_rgtHash",
          "type": "bytes32"
        },
        {
          "internalType": "bytes32",
          "name": "_nonMutableStorage1",
          "type": "bytes32"
        },
        {
          "internalType": "bytes32",
          "name": "_nonMutableStorage2",
          "type": "bytes32"
        }
      ],
      "name": "addNonMutableStorage",
      "outputs": [],
      "stateMutability": "nonpayable",
      "type": "function"
    },
    {
      "inputs": [
        {
          "internalType": "address",
          "name": "_to",
          "type": "address"
        },
        {
          "internalType": "bytes32",
          "name": "_idxHash",
          "type": "bytes32"
        }
      ],
      "name": "transferAssetToken",
      "outputs": [],
      "stateMutability": "nonpayable",
      "type": "function"
    },
    {
      "inputs": [
        {
          "internalType": "bytes32",
          "name": "_idxHash",
          "type": "bytes32"
        },
        {
          "internalType": "bytes32",
          "name": "_rgtHash",
          "type": "bytes32"
        },
        {
          "internalType": "uint8",
          "name": "_newAssetStatus",
          "type": "uint8"
        }
      ],
      "name": "modifyStatus",
      "outputs": [],
      "stateMutability": "nonpayable",
      "type": "function"
    },
    {
      "inputs": [
        {
          "internalType": "bytes32",
          "name": "_idxHash",
          "type": "bytes32"
        },
        {
          "internalType": "bytes32",
          "name": "_rgtHash",
          "type": "bytes32"
        },
        {
          "internalType": "uint8",
          "name": "_newAssetStatus",
          "type": "uint8"
        }
      ],
      "name": "setLostOrStolen",
      "outputs": [],
      "stateMutability": "nonpayable",
      "type": "function"
    },
    {
      "inputs": [
        {
          "internalType": "bytes32",
          "name": "_idxHash",
          "type": "bytes32"
        },
        {
          "internalType": "bytes32",
          "name": "_rgtHash",
          "type": "bytes32"
        },
        {
          "internalType": "uint32",
          "name": "_decAmount",
          "type": "uint32"
        }
      ],
      "name": "decrementCounter",
      "outputs": [],
      "stateMutability": "nonpayable",
      "type": "function"
    },
    {
      "inputs": [
        {
          "internalType": "bytes32",
          "name": "_idxHash",
          "type": "bytes32"
        },
        {
          "internalType": "bytes32",
          "name": "_rgtHash",
          "type": "bytes32"
        },
        {
          "internalType": "bytes32",
          "name": "_mutableStorage1",
          "type": "bytes32"
        },
        {
          "internalType": "bytes32",
          "name": "_mutableStorage2",
          "type": "bytes32"
        }
      ],
      "name": "modifyMutableStorage",
      "outputs": [],
      "stateMutability": "nonpayable",
      "type": "function"
    }
  ],
  "bytecode": "0x60806040523480156200001157600080fd5b50600160009081556002805460ff191690556200002f90336200008d565b6200005b7f2ce8d04a9c35987429af538825cd2438cc5c5bb5dc427955f84daaa3ea105016336200008d565b620000877f65d7a28e3265b37a6474929f336521b332c1681b933f6cb9f3376673440d862a336200008d565b62000125565b6200009982826200009d565b5050565b60008281526001602090815260408083206001600160a01b038516845290915290205460ff16620000995760008281526001602081815260408084206001600160a01b0386168086529252808420805460ff19169093179092559051339285917f2f8788117e7eff1d82e926ec794901d17c78024a50270940304540a733656f0d9190a45050565b614aaf80620001356000396000f3fe608060405234801561001057600080fd5b50600436106101cf5760003560e01c806368e9ea6611610104578063d547741f116100a2578063e5f815dc11610071578063e5f815dc146103ec578063e63ab1e9146103ff578063e9c2651814610426578063ee9c25c51461044d57600080fd5b8063d547741f146103a0578063dc38b0a2146103b3578063dc4aacff146103c6578063e59fdd36146103d957600080fd5b80638456cb59116100de5780638456cb591461036a57806391d1485414610372578063a217fddf14610385578063b5081c791461038d57600080fd5b806368e9ea661461033c5780636bd292ca1461034f5780636de2ad851461036257600080fd5b80632f2ff15d116101715780633f4ba83a1161014b5780633f4ba83a14610303578063440e7a7e1461030b5780635c975abb1461031e5780635db1674f1461032957600080fd5b80632f2ff15d146102ca57806336568abe146102dd57806338955283146102f057600080fd5b80631429db5f116101ad5780631429db5f14610224578063150b7a02146102475780631da033121461027f578063248a9ca3146102a657600080fd5b8063011230bd146101d457806301ffc9a7146101e95780630555d11014610211575b600080fd5b6101e76101e2366004614192565b610455565b005b6101fc6101f73660046142a7565b6106fe565b60405190151581526020015b60405180910390f35b6101e761021f366004614192565b610735565b610239600080516020614a5a83398151915281565b604051908152602001610208565b61026661025536600461403a565b630a85bd0160e11b95945050505050565b6040516001600160e01b03199091168152602001610208565b6102397f2ce8d04a9c35987429af538825cd2438cc5c5bb5dc427955f84daaa3ea10501681565b6102396102b43660046140fb565b6000908152600160208190526040909120015490565b6101e76102d8366004614114565b61099e565b6101e76102eb366004614114565b6109ca565b6101e76102fe3660046141fd565b610a48565b6101e7610bc8565b6101e76103193660046140ad565b610c18565b60025460ff166101fc565b6101e7610337366004614166565b610d1b565b6101e761034a366004614279565b611024565b6101e761035d3660046141c4565b61132e565b610239600181565b6101e76115ef565b6101fc610380366004614114565b61163d565b610239600081565b6101e761039b366004614279565b611668565b6101e76103ae366004614114565b611a7b565b6101e76103c1366004613fbf565b611aa2565b6101e76103d4366004614144565b611b55565b6101e76103e7366004613ff9565b611db5565b6101e76103fa366004613ff9565b611ea4565b6102397f65d7a28e3265b37a6474929f336521b332c1681b933f6cb9f3376673440d862a81565b6102397f3b5d4cc60d3ec3516ee8ae083bd60934f6eb2a6c54b1229985c41bfb092b260381565b6101e7611f3b565b600260005414156104815760405162461bcd60e51b81526004016104789061485a565b60405180910390fd5b600260005561049260025460ff1690565b156104af5760405162461bcd60e51b8152600401610478906147e0565b600b546040516331a9108f60e11b8152600481018690528591829130916001600160a01b031690636352211e90602401602060405180830381600087803b1580156104f957600080fd5b505af115801561050d573d6000803e3d6000fd5b505050506040513d601f19601f820116820180604052508101906105319190613fdc565b6001600160a01b0316146105575760405162461bcd60e51b81526004016104789061480a565b60006105628761261e565b905060006105738260600151612704565b905060008160ff1611801561058b5750600a8160ff16105b6105d75760405162461bcd60e51b815260206004820152601b60248201527f4150503a4d4d533a205573657220216175746820696e206e6f646500000000006044820152606401610478565b81516105e2906127ca565b60ff16156106585760405162461bcd60e51b815260206004820152603e60248201527f4150503a4d4d533a205265636f726420696e20756e726567697374657265642c60448201527f206578706f727465642c206f72206469736361726465642073746174757300006064820152608401610478565b86826101600151146106c75760405162461bcd60e51b815260206004820152603260248201527f4150503a4d4d533a20526967687473686f6c64657220646f6573206e6f74206d6044820152716174636820737570706c696564206461746160701b6064820152608401610478565b60e0820186905261012082018590526106e0888361281e565b6106ef82606001516008612a98565b50506001600055505050505050565b60006001600160e01b03198216637965db0b60e01b148061072f57506301ffc9a760e01b6001600160e01b03198316145b92915050565b600260005414156107585760405162461bcd60e51b81526004016104789061485a565b600260005561076960025460ff1690565b156107865760405162461bcd60e51b8152600401610478906147e0565b600b546040516331a9108f60e11b8152600481018690528591829130916001600160a01b031690636352211e90602401602060405180830381600087803b1580156107d057600080fd5b505af11580156107e4573d6000803e3d6000fd5b505050506040513d601f19601f820116820180604052508101906108089190613fdc565b6001600160a01b03161461082e5760405162461bcd60e51b81526004016104789061480a565b60006108398761261e565b9050600061084a8260600151612704565b905060008160ff161180156108625750600a8160ff16105b6108ae5760405162461bcd60e51b815260206004820152601b60248201527f413a49323a2055736572206e6f74206175746820696e206e6f646500000000006044820152606401610478565b81516108b9906127ca565b60ff16156109095760405162461bcd60e51b815260206004820152601d60248201527f413a49323a204173736574206e656564732072652d696d706f727465640000006044820152606401610478565b86826101600151146109755760405162461bcd60e51b815260206004820152602f60248201527f413a49323a20526967687473686f6c64657220646f6573206e6f74206d61746360448201526e6820737570706c696564206461746160881b6064820152608401610478565b6101008201869052610140820185905261098f8883612cab565b6106ef82606001516003612a98565b600082815260016020819052604090912001546109bb8133612d4a565b6109c58383612dae565b505050565b6001600160a01b0381163314610a3a5760405162461bcd60e51b815260206004820152602f60248201527f416363657373436f6e74726f6c3a2063616e206f6e6c792072656e6f756e636560448201526e103937b632b9903337b91039b2b63360891b6064820152608401610478565b610a448282612e19565b5050565b60026000541415610a6b5760405162461bcd60e51b81526004016104789061485a565b6002600055610a7c60025460ff1690565b15610a995760405162461bcd60e51b8152600401610478906147e0565b60008685604051602001610ac492919091825260e01b6001600160e01b031916602082015260240190565b6040516020818303038152906040528051906020012090506000610ae786612704565b905060008160ff16118015610aff5750600a8160ff16105b610b4b5760405162461bcd60e51b815260206004820152601860248201527f413a4e523a205573657220216175746820696e206e6f646500000000000000006044820152606401610478565b60058160ff1610610baf5760405162461bcd60e51b815260206004820152602860248201527f413a4e523a20557365722021617574686f72697a656420746f20637265617465604482015267207265636f72647360c01b6064820152608401610478565b610bbd828888888888612e80565b6106ef866001612a98565b610bf27f65d7a28e3265b37a6474929f336521b332c1681b933f6cb9f3376673440d862a3361163d565b610c0e5760405162461bcd60e51b81526004016104789061479a565b610c16613277565b565b60026000541415610c3b5760405162461bcd60e51b81526004016104789061485a565b6002600055610c58600080516020614a5a8339815191523361163d565b610ca45760405162461bcd60e51b815260206004820152601e60248201527f423a54583a4d75737420686176652041535345545f545846525f524f4c4500006044820152606401610478565b600b54604051632142170760e11b81523060048201526001600160a01b03848116602483015260448201849052839216906342842e0e906064015b600060405180830381600087803b158015610cf957600080fd5b505af1158015610d0d573d6000803e3d6000fd5b505060016000555050505050565b60026000541415610d3e5760405162461bcd60e51b81526004016104789061485a565b6002600055610d4f60025460ff1690565b15610d6c5760405162461bcd60e51b8152600401610478906147e0565b600b546040516331a9108f60e11b8152600481018590528491829130916001600160a01b031690636352211e90602401602060405180830381600087803b158015610db657600080fd5b505af1158015610dca573d6000803e3d6000fd5b505050506040513d601f19601f82011682018060405250810190610dee9190613fdc565b6001600160a01b031614610e145760405162461bcd60e51b81526004016104789061480a565b6000610e1f8661261e565b90506000610e308260600151612704565b905060008160ff16118015610e485750600a8160ff16105b610e945760405162461bcd60e51b815260206004820152601b60248201527f413a54413a2055736572206e6f74206175746820696e206e6f646500000000006044820152606401610478565b6031826000015160ff161180610ead575060058160ff16105b610f0f5760405162461bcd60e51b815260206004820152602d60248201527f413a54413a4f6e6c79207573657274797065203c20352063616e206368616e6760448201526c06520737461747573203c20353609c1b6064820152608401610478565b816000015160ff1660011480610f2c5750816000015160ff166033145b610f835760405162461bcd60e51b815260206004820152602260248201527f413a54413a41737365742073746174757320213d207472616e736665727261626044820152616c6560f01b6064820152608401610478565b8582610160015114610fee5760405162461bcd60e51b815260206004820152602e60248201527f413a54413a526967687473686f6c64657220646f6573206e6f74206d6174636860448201526d20737570706c696564206461746160901b6064820152608401610478565b60aa6040830152846110035760058252600194505b6101608201859052611015878361330a565b610d0d82606001516002612a98565b600260005414156110475760405162461bcd60e51b81526004016104789061485a565b600260005561105860025460ff1690565b156110755760405162461bcd60e51b8152600401610478906147e0565b600b546040516331a9108f60e11b8152600481018590528491829130916001600160a01b031690636352211e90602401602060405180830381600087803b1580156110bf57600080fd5b505af11580156110d3573d6000803e3d6000fd5b505050506040513d601f19601f820116820180604052508101906110f79190613fdc565b6001600160a01b03161461111d5760405162461bcd60e51b81526004016104789061480a565b60006111288661261e565b905060006111398260600151612704565b905060008160ff161180156111515750600a8160ff16105b61119d5760405162461bcd60e51b815260206004820152601b60248201527f4150503a534c533a205573657220216175746820696e206e6f646500000000006044820152606401610478565b6031826000015160ff1611806111c4575060328560ff161080156111c4575060058160ff16105b6112465760405162461bcd60e51b815260206004820152604760248201527f4150503a534c533a204f6e6c79207573657274797065203c352063616e20636860448201527f616e67652061203c34392073746174757320617373657420746f2061203e34396064820152662073746174757360c81b608482015260a401610478565b85826101600151146112b55760405162461bcd60e51b815260206004820152603260248201527f4150503a534c533a20526967687473686f6c64657220646f6573206e6f74206d6044820152716174636820737570706c696564206461746160701b6064820152608401610478565b60ff85168083526003546040516303d9c4f560e21b8152600481018a905260248101929092526001600160a01b031690630f6713d490604401600060405180830381600087803b15801561130857600080fd5b505af115801561131c573d6000803e3d6000fd5b50506001600055505050505050505050565b600260005414156113515760405162461bcd60e51b81526004016104789061485a565b600260005561136260025460ff1690565b1561137f5760405162461bcd60e51b8152600401610478906147e0565b600b546040516331a9108f60e11b8152600481018590528491829130916001600160a01b031690636352211e90602401602060405180830381600087803b1580156113c957600080fd5b505af11580156113dd573d6000803e3d6000fd5b505050506040513d601f19601f820116820180604052508101906114019190613fdc565b6001600160a01b0316146114275760405162461bcd60e51b81526004016104789061480a565b60006114328661261e565b905060006114438260600151612704565b905060008160ff1611801561145b5750600a8160ff16105b6114a75760405162461bcd60e51b815260206004820152601a60248201527f4150503a44433a205573657220216175746820696e206e6f64650000000000006044820152606401610478565b81516114b2906127ca565b60ff16156115285760405162461bcd60e51b815260206004820152603c60248201527f4150503a4443205265636f726420696e20756e726567697374657265642c206560448201527f78706f727465642c206f722064697363617264656420737461747573000000006064820152608401610478565b85826101600151146115965760405162461bcd60e51b815260206004820152603160248201527f4150503a44433a20526967687473686f6c64657220646f6573206e6f74206d6160448201527074636820737570706c696564206461746160781b6064820152608401610478565b8463ffffffff16826080015163ffffffff1611156115ce578482608001516115be919061494f565b63ffffffff1660808301526115d6565b600060808301525b6115e0878361330a565b610d0d82606001516007612a98565b6116197f65d7a28e3265b37a6474929f336521b332c1681b933f6cb9f3376673440d862a3361163d565b6116355760405162461bcd60e51b81526004016104789061479a565b610c166133b4565b60009182526001602090815260408084206001600160a01b0393909316845291905290205460ff1690565b6002600054141561168b5760405162461bcd60e51b81526004016104789061485a565b600260005561169c60025460ff1690565b156116b95760405162461bcd60e51b8152600401610478906147e0565b600b546040516331a9108f60e11b8152600481018590528491829130916001600160a01b031690636352211e90602401602060405180830381600087803b15801561170357600080fd5b505af1158015611717573d6000803e3d6000fd5b505050506040513d601f19601f8201168201806040525081019061173b9190613fdc565b6001600160a01b0316146117615760405162461bcd60e51b81526004016104789061480a565b600061176c8661261e565b9050600061177d8260600151612704565b905060008160ff161180156117955750600a8160ff16105b6117e15760405162461bcd60e51b815260206004820152601a60248201527f4150503a4d533a205573657220216175746820696e206e6f64650000000000006044820152606401610478565b8460ff166007141580156117f957508460ff16603914155b801561180957508460ff16603a14155b8015611818575060648560ff16105b6118595760405162461bcd60e51b81526020600482015260126024820152711054140e9354ce8814dd185d08149cdc9d9960721b6044820152606401610478565b611862856127ca565b60ff16156118fe5760405162461bcd60e51b815260206004820152605c60248201527f4150503a4d533a2043616e6e6f7420706c61636520617373657420696e20756e60448201527f726567697374657265642c206578706f727465642c206f72206469736361726460648201527f656420737461747573207573696e67206d6f6469667953746174757300000000608482015260a401610478565b8151611909906127ca565b60ff161561197f5760405162461bcd60e51b815260206004820152603d60248201527f4150503a4d533a205265636f726420696e20756e726567697374657265642c2060448201527f6578706f727465642c206f7220646973636172646564207374617475730000006064820152608401610478565b6031826000015160ff161180611998575060058160ff16105b6119fd5760405162461bcd60e51b815260206004820152603060248201527f4150503a4d533a204f6e6c79207573657274797065203c20352063616e20636860448201526f616e676520737461747573203c20343960801b6064820152608401610478565b8582610160015114611a6b5760405162461bcd60e51b815260206004820152603160248201527f4150503a4d533a20526967687473686f6c64657220646f6573206e6f74206d6160448201527074636820737570706c696564206461746160781b6064820152608401610478565b60ff85168252610d0d878361330a565b60008281526001602081905260409091200154611a988133612d4a565b6109c58383612e19565b611acc7f2ce8d04a9c35987429af538825cd2438cc5c5bb5dc427955f84daaa3ea1050163361163d565b611ae85760405162461bcd60e51b815260040161047890614710565b6001600160a01b038116611b335760405162461bcd60e51b81526020600482015260126024820152710423a5353433a2041646472657373203d20360741b6044820152606401610478565b600380546001600160a01b0319166001600160a01b0392909216919091179055565b60026000541415611b785760405162461bcd60e51b81526004016104789061485a565b6002600055611b8960025460ff1690565b15611ba65760405162461bcd60e51b8152600401610478906147e0565b600b546040516331a9108f60e11b8152600481018490528391829130916001600160a01b031690636352211e90602401602060405180830381600087803b158015611bf057600080fd5b505af1158015611c04573d6000803e3d6000fd5b505050506040513d601f19601f82011682018060405250810190611c289190613fdc565b6001600160a01b031614611c4e5760405162461bcd60e51b81526004016104789061480a565b6000611c598561261e565b90506000611c6a8260600151612704565b90508060ff16600114611cbf5760405162461bcd60e51b815260206004820152601960248201527f413a464d523a205573657220216175746820696e206e6f6465000000000000006044820152606401610478565b8151611cca9061340c565b60ff1615611d1a5760405162461bcd60e51b815260206004820152601760248201527f413a464d523a204173736574206d61726b6564204c2f530000000000000000006044820152606401610478565b8151611d25906127ca565b60ff1615611d755760405162461bcd60e51b815260206004820152601e60248201527f413a464d523a204173736574206e656564732072652d696d706f7274656400006044820152606401610478565b60aa602083018190526040830152600082526101608201859052611d99868361330a565b611da882606001516006612a98565b5050600160005550505050565b611dcd600080516020614a5a8339815191523361163d565b611de95760405162461bcd60e51b815260040161047890614757565b60026000541415611e0c5760405162461bcd60e51b81526004016104789061485a565b60026000556040516323b872dd60e01b81523060048201526001600160a01b038381166024830152604482018390528416906323b872dd90606401602060405180830381600087803b158015611e6157600080fd5b505af1158015611e75573d6000803e3d6000fd5b505050506040513d601f19601f82011682018060405250810190611e9991906140d9565b505060016000555050565b611ebc600080516020614a5a8339815191523361163d565b611ed85760405162461bcd60e51b815260040161047890614757565b60026000541415611efb5760405162461bcd60e51b81526004016104789061485a565b6002600055604051632142170760e11b81523060048201526001600160a01b038381166024830152604482018390528416906342842e0e90606401610cdf565b60026000541415611f5e5760405162461bcd60e51b81526004016104789061485a565b6002600055611f8d7f2ce8d04a9c35987429af538825cd2438cc5c5bb5dc427955f84daaa3ea1050163361163d565b611fa95760405162461bcd60e51b815260040161047890614710565b6003546040516363b8d4c160e11b81526020600482015260086024820152672727a222afaa25a760c11b60448201526001600160a01b039091169063c771a9829060640160206040518083038186803b15801561200557600080fd5b505afa158015612019573d6000803e3d6000fd5b505050506040513d601f19601f8201168201806040525081019061203d9190613fdc565b600c80546001600160a01b039283166001600160a01b03199182168117909255600d805490911690911790556003546040516363b8d4c160e11b81526020600482015260086024820152672727a222afa6a3a960c11b604482015291169063c771a9829060640160206040518083038186803b1580156120bc57600080fd5b505afa1580156120d0573d6000803e3d6000fd5b505050506040513d601f19601f820116820180604052508101906120f49190613fdc565b600480546001600160a01b039283166001600160a01b031991821681178355600580549092161790556003546040516363b8d4c160e11b815292169163c771a9829161215e91016020808252600990820152682727a222afa9aa27a960b91b604082015260600190565b60206040518083038186803b15801561217657600080fd5b505afa15801561218a573d6000803e3d6000fd5b505050506040513d601f19601f820116820180604052508101906121ae9190613fdc565b600680546001600160a01b039283166001600160a01b031991821681179092556007805490911690911790556003546040516363b8d4c160e11b81526020600482015260086024820152672aaa24a62faa25a760c11b604482015291169063c771a9829060640160206040518083038186803b15801561222d57600080fd5b505afa158015612241573d6000803e3d6000fd5b505050506040513d601f19601f820116820180604052508101906122659190613fdc565b600880546001600160a01b039283166001600160a01b031991821681179092556009805490911690911790556003546040516363b8d4c160e11b815260206004820152600560248201526420afaa25a760d91b604482015291169063c771a9829060640160206040518083038186803b1580156122e157600080fd5b505afa1580156122f5573d6000803e3d6000fd5b505050506040513d601f19601f820116820180604052508101906123199190613fdc565b600a80546001600160a01b039283166001600160a01b03199182168117909255600b805490911690911790556003546040516363b8d4c160e11b815260206004820152600760248201526622a1a92fa6a3a960c91b604482015291169063c771a9829060640160206040518083038186803b15801561239757600080fd5b505afa1580156123ab573d6000803e3d6000fd5b505050506040513d601f19601f820116820180604052508101906123cf9190613fdc565b600e80546001600160a01b039283166001600160a01b03199182168117909255600f805490911690911790556003546040516363b8d4c160e11b815291169063c771a982906124389060040160208082526003908201526204150560ec1b604082015260600190565b60206040518083038186803b15801561245057600080fd5b505afa158015612464573d6000803e3d6000fd5b505050506040513d601f19601f820116820180604052508101906124889190613fdc565b601280546001600160a01b039283166001600160a01b031991821681179092556013805490911690911790556003546040516363b8d4c160e11b815291169063c771a982906124f2906004016020808252600490820152632921a62960e11b604082015260600190565b60206040518083038186803b15801561250a57600080fd5b505afa15801561251e573d6000803e3d6000fd5b505050506040513d601f19601f820116820180604052508101906125429190613fdc565b601080546001600160a01b039283166001600160a01b031991821681179092556011805490911690911790556003546040516363b8d4c160e11b81526020600482015260066024820152654150505f4e4360d01b604482015291169063c771a9829060640160206040518083038186803b1580156125bf57600080fd5b505afa1580156125d3573d6000803e3d6000fd5b505050506040513d601f19601f820116820180604052508101906125f79190613fdc565b601480546001600160a01b0319166001600160a01b03929092169190911790556001600055565b6040805161018081018252600080825260208201819052918101829052606081018290526080810182905260a0810182905260c0810182905260e081018290526101008101829052610120810182905261014081018290526101608101919091526003546040516338923cb160e21b8152600481018490526000916001600160a01b03169063e248f2c4906024016101806040518083038186803b1580156126c557600080fd5b505afa1580156126d9573d6000803e3d6000fd5b505050506040513d601f19601f820116820180604052508101906126fd91906144f9565b9392505050565b6007546040516bffffffffffffffffffffffff193360601b16602082015260009182916001600160a01b0390911690639d2c7cee9060340160408051601f198184030181529082905280516020909101206001600160e01b031960e084901b168252600482015263ffffffff8616602482015260440160206040518083038186803b15801561279257600080fd5b505afa1580156127a6573d6000803e3d6000fd5b505050506040513d601f19601f820116820180604052508101906126fd91906145f3565b60008160ff166005141580156127e457508160ff16603714155b80156127f457508160ff16604614155b801561280457508160ff16603c14155b1561281157506000919050565b5060aa919050565b919050565b60025460ff16156128415760405162461bcd60e51b8152600401610478906147e0565b60006128508260600151613450565b90506006816020015160ff16106128de5760405162461bcd60e51b815260206004820152604660248201527f433a574d533a436f6e747261637420646f6573206e6f7420737570706f72742060448201527f6d616e6167656d656e74207479706573203e2035206f72206e6f6465206973206064820152651b1bd8dad95960d21b608482015260a401610478565b806000015160ff166001141580156128fd5750806020015160ff166005145b15612a1d5733600d5460608401516040516331a9108f60e11b815263ffffffff90911660048201526001600160a01b039283169290911690636352211e9060240160206040518083038186803b15801561295657600080fd5b505afa15801561296a573d6000803e3d6000fd5b505050506040513d601f19601f8201168201806040525081019061298e9190613fdc565b6001600160a01b031614612a1d5760405162461bcd60e51b815260206004820152604a60248201527f433a574d533a2043616c6c6572206d75737420686f6c64206e6f646520746f2060448201527f6d6f64696679206d757461626c652073746f7261676520286d616e6167656d656064820152696e74207479706520352960b01b608482015260a401610478565b60035460e08301516101208401516040516361e9eb6d60e01b815260048101879052602481019290925260448201526001600160a01b03909116906361e9eb6d90606401600060405180830381600087803b158015612a7b57600080fd5b505af1158015612a8f573d6000803e3d6000fd5b50505050505050565b60025460ff1615612abb5760405162461bcd60e51b8152600401610478906147e0565b600754604051631f70958f60e31b815263ffffffff841660048201526000916064916001600160a01b039091169063fb84ac789060240160206040518083038186803b158015612b0a57600080fd5b505afa158015612b1e573d6000803e3d6000fd5b505050506040513d601f19601f82011682018060405250810190612b4291906145d6565b63ffffffff16612b5291906148f7565b90506064811115612bc05760405162461bcd60e51b815260206004820152603260248201527f433a4453433a696e76616c696420646973636f756e742076616c756520666f7260448201527110383934b1b29031b0b631bab630ba34b7b760711b6064820152608401610478565b600754604051638f44e52560e01b815263ffffffff8516600482015261ffff841660248201526000916001600160a01b031690638f44e5259060440160806040518083038186803b158015612c1457600080fd5b505afa158015612c28573d6000803e3d6000fd5b505050506040513d601f19601f82011682018060405250810190612c4c9190614385565b9050600060648260600151612c6191906148f7565b90506000612c6f8285614919565b90506000818460600151612c839190614938565b606085018390526040850151909150612c9d9082906148df565b6040850152612a8f846134dd565b60025460ff1615612cce5760405162461bcd60e51b8152600401610478906147e0565b6003546101008201516101408301516040516325ac1e4360e21b815260048101869052602481019290925260448201526001600160a01b03909116906396b0790c906064015b600060405180830381600087803b158015612d2e57600080fd5b505af1158015612d42573d6000803e3d6000fd5b505050505050565b612d54828261163d565b610a4457612d6c816001600160a01b031660146135b7565b612d778360206135b7565b604051602001612d88929190614620565b60408051601f198184030181529082905262461bcd60e51b8252610478916004016146dd565b612db8828261163d565b610a445760008281526001602081815260408084206001600160a01b0386168086529252808420805460ff19169093179092559051339285917f2f8788117e7eff1d82e926ec794901d17c78024a50270940304540a733656f0d9190a45050565b612e23828261163d565b15610a445760008281526001602090815260408083206001600160a01b0385168085529252808320805460ff1916905551339285917ff6391f5c32d9c69d2a47ea670b442974b53935d1edc7fd64eb21e047a839171b9190a45050565b856000612e8c86613753565b905060008484604051602001612ea3929190614610565b60408051808303601f19018152908290528051602090910120600b5462491fcf60e11b8352600483018690529092506001600160a01b03169062923f9e9060240160206040518083038186803b158015612efc57600080fd5b505afa158015612f10573d6000803e3d6000fd5b505050506040513d601f19601f82011682018060405250810190612f3491906145bd565b15612f815760405162461bcd60e51b815260206004820152601f60248201527f433a43523a417373657420746f6b656e20616c726561647920657869737473006044820152606401610478565b816000015160ff1660011480612f9e5750816000015160ff166002145b80612fb05750816000015160ff166004145b6130335760405162461bcd60e51b815260206004820152604860248201527f433a43523a43616e6e6f7420637265617465206173736574202d20636f6e747260448201527f616374206e6f7420617574686f72697a656420666f72206e6f646520637573746064820152676f6479207479706560c01b608482015260a401610478565b600754604051636ece1f4360e01b815263ffffffff89166004820152600860248201526000916001600160a01b031690636ece1f439060440160206040518083038186803b15801561308457600080fd5b505afa158015613098573d6000803e3d6000fd5b505050506040513d601f19601f820116820180604052508101906130bc91906145bd565b61314857600d546040516331a9108f60e11b815263ffffffff8a1660048201526001600160a01b0390911690636352211e9060240160206040518083038186803b15801561310957600080fd5b505afa15801561311d573d6000803e3d6000fd5b505050506040513d601f19601f820116820180604052508101906131419190613fdc565b9050613162565b826000015160ff166001141561315f575030613162565b50335b600b546040516354a19c2b60e01b81526001600160a01b03909116906354a19c2b9061319890849088908b908b90600401614695565b602060405180830381600087803b1580156131b257600080fd5b505af11580156131c6573d6000803e3d6000fd5b505050506040513d601f19601f820116820180604052508101906131ea91906145bd565b5060035460405163a85d2bef60e01b8152600481018c9052602481018b90526044810184905263ffffffff808b166064830152891660848201526001600160a01b039091169063a85d2bef9060a401600060405180830381600087803b15801561325357600080fd5b505af1158015613267573d6000803e3d6000fd5b5050505050505050505050505050565b60025460ff166132c05760405162461bcd60e51b815260206004820152601460248201527314185d5cd8589b194e881b9bdd081c185d5cd95960621b6044820152606401610478565b6002805460ff191690557f5db9ee0a495bf2e6ff9c91a7834c1ba4fdd244a5e8aa4e537bd38aeae4b073aa335b6040516001600160a01b03909116815260200160405180910390a1565b60025460ff161561332d5760405162461bcd60e51b8152600401610478906147e0565b6003546101608201518251608084015160a085015160208601516040808801519051631e21309760e11b8152600481018a9052602481019690965260ff948516604487015263ffffffff93841660648701529290911660848501529190911660a483015261ffff1660c48201526001600160a01b0390911690633c42612e9060e401612d14565b60025460ff16156133d75760405162461bcd60e51b8152600401610478906147e0565b6002805460ff191660011790557f62e78cea01bee320cd4e420270b5ea74000d11b0c9f74754ebdbfc544b05a2586132ed3390565b60008160ff1660031415801561342657508160ff16600414155b801561343657508160ff16603514155b801561280457508160ff1660361461281157506000919050565b613458613e65565b60075460405163f45c157d60e01b815263ffffffff841660048201526001600160a01b039091169063f45c157d9060240160006040518083038186803b1580156134a157600080fd5b505afa1580156134b5573d6000803e3d6000fd5b505050506040513d6000823e601f3d908101601f1916820160405261072f91908101906143fa565b60025460ff16156135005760405162461bcd60e51b8152600401610478906147e0565b60208101516001600160a01b03166135235780516001600160a01b031660208201525b6009548151604080840151602085015160608601518351631cc1e17360e31b81523360048201526001600160a01b0395861660248201526044810193909352908416606483015260848201529051919092169163e60f0b989160a480830192600092919082900301818387803b15801561359c57600080fd5b505af11580156135b0573d6000803e3d6000fd5b5050505050565b606060006135c6836002614919565b6135d19060026148df565b67ffffffffffffffff8111156135e9576135e9614a0a565b6040519080825280601f01601f191660200182016040528015613613576020820181803683370190505b509050600360fc1b8160008151811061362e5761362e6149f4565b60200101906001600160f81b031916908160001a905350600f60fb1b8160018151811061365d5761365d6149f4565b60200101906001600160f81b031916908160001a9053506000613681846002614919565b61368c9060016148df565b90505b6001811115613704576f181899199a1a9b1b9c1cb0b131b232b360811b85600f16601081106136c0576136c06149f4565b1a60f81b8282815181106136d6576136d66149f4565b60200101906001600160f81b031916908160001a90535060049490941c936136fd816149c7565b905061368f565b5083156126fd5760405162461bcd60e51b815260206004820181905260248201527f537472696e67733a20686578206c656e67746820696e73756666696369656e746044820152606401610478565b61375b613e65565b61376482613450565b9050806000015160ff16600314156137dd5760405162461bcd60e51b815260206004820152603660248201527f433a4d433a43616e6e6f742063726561746520617373657420696e206120726f6044820152756f74206e6f64652028637573746f647954797065332960501b6064820152608401610478565b60075460208201516040516376faa3cb60e11b815260ff90911660048201526001600160a01b039091169063edf547969060240160206040518083038186803b15801561382957600080fd5b505afa15801561383d573d6000803e3d6000fd5b505050506040513d601f19601f8201168201806040525081019061386191906145f3565b60ff166138b05760405162461bcd60e51b815260206004820152601d60248201527f433a4d433a20496e76616c6964206d616e6167656d656e7420747970650000006044820152606401610478565b602081015160ff166139045760405162461bcd60e51b815260206004820152601e60248201527f433a4d433a2043616e6e6f74206d696e7420696e20726f6f74206e6f646500006044820152606401610478565b806020015160ff1660ff14156139785760405162461bcd60e51b815260206004820152603360248201527f433a4d433a2043616e6e6f74206d696e74207769746820756e70726f766973696044820152726f6e6564206f72206c6f636b6564206e6f646560681b6064820152608401610478565b61398781606001516007613dbe565b1580613a5657506007546040516bffffffffffffffffffffffff193360601b1660208201526001600160a01b0390911690639d2c7cee9060340160408051601f198184030181529082905280516020909101206001600160e01b031960e084901b168252600482015263ffffffff8516602482015260440160206040518083038186803b158015613a1757600080fd5b505afa158015613a2b573d6000803e3d6000fd5b505050506040513d601f19601f82011682018060405250810190613a4f91906145f3565b60ff166001145b613aa25760405162461bcd60e51b815260206004820181905260248201527f433a4d433a2043616c6c6572206e6f7420617574686f72697a656420757365726044820152606401610478565b613ab181606001516007613dbe565b60011480613b4b575033600d546040516331a9108f60e11b815263ffffffff851660048201526001600160a01b039283169290911690636352211e9060240160206040518083038186803b158015613b0857600080fd5b505afa158015613b1c573d6000803e3d6000fd5b505050506040513d601f19601f82011682018060405250810190613b409190613fdc565b6001600160a01b0316145b613b8b5760405162461bcd60e51b8152602060048201526011602482015270086749a86744086c2d8d8cae440429ca89607b1b6044820152606401610478565b613b9a81606001516006613dbe565b6001141561281957600754604051639edaf4a760e01b815263ffffffff841660048201526000916001600160a01b031690639edaf4a79060240160e06040518083038186803b158015613bec57600080fd5b505afa158015613c00573d6000803e3d6000fd5b505050506040513d601f19601f82011682018060405250810190613c2491906142d1565b90508060a001516001600160a01b0316636352211e8260c001516040518263ffffffff1660e01b8152600401613c5c91815260200190565b60206040518083038186803b158015613c7457600080fd5b505afa158015613c88573d6000803e3d6000fd5b505050506040513d601f19601f82011682018060405250810190613cac9190613fdc565b600d546040516331a9108f60e11b815263ffffffff861660048201526001600160a01b039283169290911690636352211e9060240160206040518083038186803b158015613cf957600080fd5b505afa158015613d0d573d6000803e3d6000fd5b505050506040513d601f19601f82011682018060405250810190613d319190613fdc565b6001600160a01b031614613db85760405162461bcd60e51b815260206004820152604260248201527f433a4d433a204e6f646520616e6420726f6f74206f66206964656e746974792060448201527f617265207365706172617465642e204d696e74696e672069732064697361626c606482015261195960f21b608482015260a401610478565b50919050565b6000808260ff16118015613dd5575060098260ff16105b613e365760405162461bcd60e51b815260206004820152602c60248201527f4e533a4753413a2062697420706f736974696f6e206d7573742062652062657460448201526b0eecacadc406240c2dcc840760a31b6064820152608401610478565b6000613e43600184614974565b60ff166001901b8460ff16161115613e5d5750600161072f565b50600061072f565b604080516101408101825260008082526020820181905291810182905260608082018390526080820183905260a0820183905260c0820183905260e0820183905261010082019290925261012081019190915290565b805161281981614a20565b60008083601f840112613ed857600080fd5b50813567ffffffffffffffff811115613ef057600080fd5b602083019150836020828501011115613f0857600080fd5b9250929050565b600082601f830112613f2057600080fd5b815167ffffffffffffffff80821115613f3b57613f3b614a0a565b604051601f8301601f19908116603f01168101908282118183101715613f6357613f63614a0a565b81604052838152866020858801011115613f7c57600080fd5b613f8d846020830160208901614997565b9695505050505050565b805161ffff8116811461281957600080fd5b805161281981614a38565b805161281981614a4a565b600060208284031215613fd157600080fd5b81356126fd81614a20565b600060208284031215613fee57600080fd5b81516126fd81614a20565b60008060006060848603121561400e57600080fd5b833561401981614a20565b9250602084013561402981614a20565b929592945050506040919091013590565b60008060008060006080868803121561405257600080fd5b853561405d81614a20565b9450602086013561406d81614a20565b935060408601359250606086013567ffffffffffffffff81111561409057600080fd5b61409c88828901613ec6565b969995985093965092949392505050565b600080604083850312156140c057600080fd5b82356140cb81614a20565b946020939093013593505050565b6000602082840312156140eb57600080fd5b815180151581146126fd57600080fd5b60006020828403121561410d57600080fd5b5035919050565b6000806040838503121561412757600080fd5b82359150602083013561413981614a20565b809150509250929050565b6000806040838503121561415757600080fd5b50508035926020909101359150565b60008060006060848603121561417b57600080fd5b505081359360208301359350604090920135919050565b600080600080608085870312156141a857600080fd5b5050823594602084013594506040840135936060013592509050565b6000806000606084860312156141d957600080fd5b833592506020840135915060408401356141f281614a38565b809150509250925092565b60008060008060008060a0878903121561421657600080fd5b8635955060208701359450604087013561422f81614a38565b9350606087013561423f81614a38565b9250608087013567ffffffffffffffff81111561425b57600080fd5b61426789828a01613ec6565b979a9699509497509295939492505050565b60008060006060848603121561428e57600080fd5b833592506020840135915060408401356141f281614a4a565b6000602082840312156142b957600080fd5b81356001600160e01b0319811681146126fd57600080fd5b600060e082840312156142e357600080fd5b60405160e0810181811067ffffffffffffffff8211171561430657614306614a0a565b604052825161431481614a4a565b8152602083015161432481614a4a565b602082015261433560408401613f97565b6040820152606083015161434881614a38565b6060820152608083015161435b81614a38565b608082015261436c60a08401613ebb565b60a082015260c083015160c08201528091505092915050565b60006080828403121561439757600080fd5b6040516080810181811067ffffffffffffffff821117156143ba576143ba614a0a565b60405282516143c881614a20565b815260208301516143d881614a20565b6020820152604083810151908201526060928301519281019290925250919050565b60006020828403121561440c57600080fd5b815167ffffffffffffffff8082111561442457600080fd5b90830190610140828603121561443957600080fd5b614441614891565b61444a83613fb4565b815261445860208401613fb4565b602082015261446960408401613fb4565b604082015261447a60608401613fb4565b606082015261448b60808401613fa9565b608082015261449c60a08401613fa9565b60a08201526144ad60c08401613ebb565b60c082015260e083015160e082015261010080840151818301525061012080840151838111156144dc57600080fd5b6144e888828701613f0f565b918301919091525095945050505050565b6000610180828403121561450c57600080fd5b6145146148bb565b61451d83613fb4565b815261452b60208401613fb4565b602082015261453c60408401613f97565b604082015261454d60608401613fa9565b606082015261455e60808401613fa9565b608082015261456f60a08401613fa9565b60a082015260c0838101519082015260e08084015190820152610100808401519082015261012080840151908201526101408084015190820152610160928301519281019290925250919050565b6000602082840312156145cf57600080fd5b5051919050565b6000602082840312156145e857600080fd5b81516126fd81614a38565b60006020828403121561460557600080fd5b81516126fd81614a4a565b8183823760009101908152919050565b7f416363657373436f6e74726f6c3a206163636f756e7420000000000000000000815260008351614658816017850160208801614997565b7001034b99036b4b9b9b4b733903937b6329607d1b6017918401918201528351614689816028840160208801614997565b01602801949350505050565b6001600160a01b0385168152602081018490526060604082018190528101829052818360808301376000818301608090810191909152601f909201601f191601019392505050565b60208152600082518060208401526146fc816040850160208701614997565b601f01601f19169190910160400192915050565b60208082526027908201527f423a4d4f443a2d4941444d2043616c6c65722021434f4e54524143545f41444d604082015266494e5f524f4c4560c81b606082015260800190565b60208082526023908201527f423a4d4f443a2d4941444d2043616c6c6572202141535345545f545846525f526040820152624f4c4560e81b606082015260800190565b60208082526026908201527f423a4d4f442d49503a43616c6c696e672061646472657373206973206e6f74206040820152653830bab9b2b960d11b606082015260800190565b60208082526010908201526f14185d5cd8589b194e881c185d5cd95960821b604082015260600190565b60208082526030908201527f413a4d4f442d49413a20437573746f6469616c20636f6e747261637420646f6560408201526f39903737ba103437b632103a37b5b2b760811b606082015260800190565b6020808252601f908201527f5265656e7472616e637947756172643a207265656e7472616e742063616c6c00604082015260600190565b604051610140810167ffffffffffffffff811182821017156148b5576148b5614a0a565b60405290565b604051610180810167ffffffffffffffff811182821017156148b5576148b5614a0a565b600082198211156148f2576148f26149de565b500190565b60008261491457634e487b7160e01b600052601260045260246000fd5b500490565b6000816000190483118215151615614933576149336149de565b500290565b60008282101561494a5761494a6149de565b500390565b600063ffffffff8381169083168181101561496c5761496c6149de565b039392505050565b600060ff821660ff84168082101561498e5761498e6149de565b90039392505050565b60005b838110156149b257818101518382015260200161499a565b838111156149c1576000848401525b50505050565b6000816149d6576149d66149de565b506000190190565b634e487b7160e01b600052601160045260246000fd5b634e487b7160e01b600052603260045260246000fd5b634e487b7160e01b600052604160045260246000fd5b6001600160a01b0381168114614a3557600080fd5b50565b63ffffffff81168114614a3557600080fd5b60ff81168114614a3557600080fdfe7f1e4e9f3d9ba0452a25cfef4cd4c6ffc86158d06ed2f585fa0093e12dec429ca2646970667358221220e37a7d97361da977d4f480d73fc78c935bf683a9170972e02b7287230722f0a564736f6c63430008070033",
  "immutableReferences": {},
  "source": "/*--------------------------------------------------------PRF0.8.7\n__/\\\\\\\\\\\\\\\\\\\\\\\\\\ _____/\\\\\\\\\\\\\\\\\\ _______/\\\\__/\\\\ ___/\\\\\\\\\\\\\\\\\\\\\\\\\\\\\\        \n__\\/\\\\\\/////////\\\\\\ _/\\\\\\///////\\\\\\ ____\\//__\\//____\\/\\\\\\///////////__       \n___\\/\\\\\\_______\\/\\\\\\_\\/\\\\\\_____\\/\\\\\\ ________________\\/\\\\\\ ____________      \n____\\/\\\\\\\\\\\\\\\\\\\\\\\\\\/__\\/\\\\\\\\\\\\\\\\\\\\\\/_____/\\\\\\____/\\\\\\_\\/\\\\\\\\\\\\\\\\\\\\\\ ____     \n_____\\/\\\\\\/////////____\\/\\\\\\//////\\\\\\ ___\\/\\\\\\___\\/\\\\\\_\\/\\\\\\///////______\n______\\/\\\\\\ ____________\\/\\\\\\ ___\\//\\\\\\ __\\/\\\\\\___\\/\\\\\\_\\/\\\\\\ ____________\n_______\\/\\\\\\ ____________\\/\\\\\\ ____\\//\\\\\\ _\\/\\\\\\___\\/\\\\\\_\\/\\\\\\ ____________\n________\\/\\\\\\ ____________\\/\\\\\\ _____\\//\\\\\\_\\//\\\\\\\\\\\\\\\\\\ _\\/\\\\\\ ____________\n_________\\/// _____________\\/// _______\\/// __\\///////// __\\/// _____________\n*---------------------------------------------------------------------------*/\n\n/*-----------------------------------------------------------------\n * Custodial Application for PRuF Asset management\n *----------------------------------------------------------------*/\n\n// SPDX-License-Identifier: UNLICENSED\npragma solidity 0.8.7;\n\nimport \"../Resources/PRUF_CORE.sol\";\n\ncontract APP is CORE {\n    bytes32 public constant B320x01 =\n        0x0000000000000000000000000000000000000000000000000000000000000001;\n\n    /**\n     * Checks that contract holds token\n     * @param _idxHash - idxHash of asset to compare to caller for authority\n     */\n    modifier isAuthorized(bytes32 _idxHash) override {\n        uint256 tokenId = uint256(_idxHash);\n        require( //require that user is authorized and token is held by contract\n            (A_TKN.ownerOf(tokenId) == address(this)),\n            \"A:MOD-IA: Custodial contract does not hold token\"\n        );\n        _;\n    }\n\n    //--------------------------------------------External Functions--------------------------\n\n    /**\n     * @dev Creates a new record\n     * @param _idxHash - hash of asset information created by frontend inputs\n     * @param _rgtHash - hash of rightsholder information created by frontend inputs\n     * @param _node - node the asset will be created in\n     * @param _countDownStart - decremental counter for an assets lifecycle\n     */\n    function newRecord(\n        bytes32 _idxHash,\n        bytes32 _rgtHash,\n        uint32 _node,\n        uint32 _countDownStart,\n        string calldata _URIsuffix\n    ) external nonReentrant whenNotPaused {\n        bytes32 idxHash = keccak256(abi.encodePacked(_idxHash, _node)); //hash idxRaw with node to get idxHash \n        uint8 userType = getCallingUserType(_node);\n\n        require((userType > 0) && (userType < 10), \"A:NR: User !auth in node\");\n        require(userType < 5, \"A:NR: User !authorized to create records\");\n        //^^^^^^^checks^^^^^^^^^\n\n        createRecord(idxHash, _rgtHash, _node, _countDownStart, _URIsuffix);\n        deductServiceCosts(_node, 1);\n        //^^^^^^^interactions^^^^^^^^^\n    }\n\n    /**\n     * @dev Modify rec.rightsHolder\n     * @param _idxHash - hash of asset information created by frontend inputs\n     * @param _rgtHash - hash of new rightsholder information created by frontend inputs\n     */\n    function forceModifyRecord(bytes32 _idxHash, bytes32 _rgtHash)\n        external\n        nonReentrant\n        whenNotPaused\n        isAuthorized(_idxHash)\n    {\n        Record memory rec = getRecord(_idxHash);\n        uint8 userType = getCallingUserType(rec.node);\n\n        require(userType == 1, \"A:FMR: User !auth in node\");\n        require(\n            isLostOrStolen(rec.assetStatus) == 0,\n            \"A:FMR: Asset marked L/S\"\n        );\n        require( //impossible to reach with current contracts, APP needs to hold token\n            needsImport(rec.assetStatus) == 0,\n            \"A:FMR: Asset needs re-imported\"\n        );\n        //^^^^^^^checks^^^^^^^^^\n\n        rec.modCount = 170;\n        rec.numberOfTransfers = 170;\n        rec.assetStatus = 0;\n        rec.rightsHolder = _rgtHash;\n        //^^^^^^^effects^^^^^^^^^\n\n        writeRecord(_idxHash, rec);\n        deductServiceCosts(rec.node, 6);\n        //^^^^^^^interactions^^^^^^^^^\n    }\n\n    /**\n     * @dev Transfer rights to new rightsHolder with confirmation of matching rgthash\n     * @param _idxHash - hash of asset information created by frontend inputs\n     * @param _rgtHash - hash of rightsholder information created by frontend inputs\n     * @param _newrgtHash - hash of targeted reciever information created by frontend inputs\n     */\n    function transferAsset(\n        bytes32 _idxHash,\n        bytes32 _rgtHash,\n        bytes32 _newrgtHash\n    ) external nonReentrant whenNotPaused isAuthorized(_idxHash) {\n        Record memory rec = getRecord(_idxHash);\n        uint8 userType = getCallingUserType(rec.node);\n\n        require(\n            (userType > 0) && (userType < 10),\n            \"A:TA: User not auth in node\"\n        );\n        require(\n            (rec.assetStatus > 49) || (userType < 5),\n            \"A:TA:Only usertype < 5 can change status < 50\"\n        );\n        require(\n            (rec.assetStatus == 1) || (rec.assetStatus == 51),\n            \"A:TA:Asset status != transferrable\"\n        );\n        require(\n            rec.rightsHolder == _rgtHash,\n            \"A:TA:Rightsholder does not match supplied data\"\n        );\n        //^^^^^^^checks^^^^^^^^^\n\n        rec.numberOfTransfers = 170;\n\n        if (_newrgtHash == 0x0) {\n            //set to transferred status\n            rec.assetStatus = 5;\n            _newrgtHash = B320x01;\n        }\n\n        rec.rightsHolder = _newrgtHash;\n        //^^^^^^^effects^^^^^^^^^\n\n        writeRecord(_idxHash, rec);\n        deductServiceCosts(rec.node, 2);\n        //^^^^^^^interactions^^^^^^^^^\n    }\n\n    /**\n     * @dev Modify **Record** NonMutableStorage with confirmation of matching rgthash\n     * @param _idxHash - hash of asset information created by frontend inputs\n     * @param _rgtHash - hash of rightsholder information created by frontend inputs\n     * @param _nonMutableStorage1 - field for permanent external asset data\n     * @param _nonMutableStorage2 - field for permanent external asset data\n     */\n    function addNonMutableStorage(\n        bytes32 _idxHash,\n        bytes32 _rgtHash,\n        bytes32 _nonMutableStorage1,\n        bytes32 _nonMutableStorage2\n    ) external nonReentrant whenNotPaused isAuthorized(_idxHash) {\n        Record memory rec = getRecord(_idxHash);\n        uint8 userType = getCallingUserType(rec.node);\n\n        require(\n            (userType > 0) && (userType < 10),\n            \"A:I2: User not auth in node\"\n        );\n\n        require( //impossible to reach with current contracts, APP needs to hold token\n            needsImport(rec.assetStatus) == 0,\n            \"A:I2: Asset needs re-imported\"\n        );\n        require(\n            rec.rightsHolder == _rgtHash,\n            \"A:I2: Rightsholder does not match supplied data\"\n        );\n        //^^^^^^^checks^^^^^^^^^\n\n        rec.nonMutableStorage1 = _nonMutableStorage1;\n        rec.nonMutableStorage2 = _nonMutableStorage2;\n        //^^^^^^^effects^^^^^^^^^\n\n        writeNonMutableStorage(_idxHash, rec);\n        deductServiceCosts(rec.node, 3);\n        //^^^^^^^interactions^^^^^^^^^\n    }\n\n    /**\n     * @dev Transfer any specified assetToken from contract\n     * @param _to - address to send to\n     * @param _idxHash - asset index\n     */\n    function transferAssetToken(address _to, bytes32 _idxHash)\n        external\n        nonReentrant\n    {\n        require(\n            hasRole(ASSET_TXFR_ROLE, _msgSender()),\n            \"B:TX:Must have ASSET_TXFR_ROLE\"\n        );\n        //^^^^^^^checks^^^^^^^^^\n\n        uint256 tokenId = uint256(_idxHash);\n\n        A_TKN.safeTransferFrom(address(this), _to, tokenId);\n        //^^^^^^^interactions^^^^^^^^^\n    }\n\n    /**\n     * @dev Modify **Record**.assetStatus with confirmation of matching rgthash required\n     * @param _idxHash asset to moidify\n     * @param _rgtHash rgthash to match in front end\n     * @param _newAssetStatus updated status\n     */\n    function modifyStatus(\n        bytes32 _idxHash,\n        bytes32 _rgtHash,\n        uint8 _newAssetStatus\n    ) external nonReentrant whenNotPaused isAuthorized(_idxHash) {\n        Record memory rec = getRecord(_idxHash);\n        uint8 userType = getCallingUserType(rec.node);\n\n        require(\n            (userType > 0) && (userType < 10),\n            \"APP:MS: User !auth in node\"\n        );\n        require(\n            (_newAssetStatus != 7) &&\n                (_newAssetStatus != 57) &&\n                (_newAssetStatus != 58) &&\n                (_newAssetStatus < 100),\n            \"APP:MS: Stat Rsrvd\"\n        );\n        require(\n            needsImport(_newAssetStatus) == 0,\n            \"APP:MS: Cannot place asset in unregistered, exported, or discarded status using modifyStatus\"\n        );\n        require(\n            needsImport(rec.assetStatus) == 0,\n            \"APP:MS: Record in unregistered, exported, or discarded status\"\n        );\n        require(\n            (rec.assetStatus > 49) || (userType < 5),\n            \"APP:MS: Only usertype < 5 can change status < 49\"\n        );\n        require(\n            rec.rightsHolder == _rgtHash,\n            \"APP:MS: Rightsholder does not match supplied data\"\n        );\n        //^^^^^^^checks^^^^^^^^^\n\n        rec.assetStatus = _newAssetStatus;\n        //^^^^^^^effects^^^^^^^^^\n\n        writeRecord(_idxHash, rec);\n        //^^^^^^^interactions^^^^^^^^^\n    }\n\n    /**\n     * @dev set **Record**.assetStatus to lost or stolen, with confirmation of matching rgthash required\n     * @param _idxHash asset to moidify\n     * @param _rgtHash rgthash to match in front end\n     * @param _newAssetStatus updated status\n     */\n    function setLostOrStolen(\n        bytes32 _idxHash,\n        bytes32 _rgtHash,\n        uint8 _newAssetStatus\n    ) external nonReentrant whenNotPaused isAuthorized(_idxHash) {\n        Record memory rec = getRecord(_idxHash);\n        uint8 userType = getCallingUserType(rec.node);\n        require(\n            (userType > 0) && (userType < 10),\n            \"APP:SLS: User !auth in node\"\n        );\n        require(\n            (rec.assetStatus > 49) ||\n                ((_newAssetStatus < 50) && (userType < 5)),\n            \"APP:SLS: Only usertype <5 can change a <49 status asset to a >49 status\"\n        );\n        require(\n            rec.rightsHolder == _rgtHash,\n            \"APP:SLS: Rightsholder does not match supplied data\"\n        );\n        //^^^^^^^checks^^^^^^^^^\n\n        rec.assetStatus = _newAssetStatus;\n        //^^^^^^^effects^^^^^^^^^\n\n        STOR.setLostOrStolen(_idxHash, rec.assetStatus);\n        //^^^^^^^interactions^^^^^^^^^\n    }\n\n    /**\n     * @dev Decrement **Record**.countdown with confirmation of matching rgthash required\n     * @param _idxHash asset to moidify\n     * @param _rgtHash rgthash to match in front end\n     * @param _decAmount amount to decrement\n     */\n    function decrementCounter(\n        bytes32 _idxHash,\n        bytes32 _rgtHash,\n        uint32 _decAmount\n    ) external nonReentrant whenNotPaused isAuthorized(_idxHash) {\n        Record memory rec = getRecord(_idxHash);\n        uint8 userType = getCallingUserType(rec.node);\n\n        require(\n            (userType > 0) && (userType < 10),\n            \"APP:DC: User !auth in node\"\n        );\n        require(\n            needsImport(rec.assetStatus) == 0,\n            \"APP:DC Record in unregistered, exported, or discarded status\"\n        );\n        require(\n            rec.rightsHolder == _rgtHash,\n            \"APP:DC: Rightsholder does not match supplied data\"\n        );\n        //^^^^^^^checks^^^^^^^^^\n\n        if (rec.countDown > _decAmount) {\n            rec.countDown = rec.countDown - _decAmount;\n        } else {\n            rec.countDown = 0;\n        }\n        //^^^^^^^effects^^^^^^^^^\n\n        writeRecord(_idxHash, rec);\n        deductServiceCosts(rec.node, 7);\n        //^^^^^^^interactions^^^^^^^^^\n    }\n\n    /**\n     * @dev Modify rec.MutableStorage field with rghHash confirmation\n     * @param _idxHash idx of asset to Modify\n     * @param _rgtHash rgthash to match in front end\n     * @param _mutableStorage1 content adressable storage adress part 1\n     * @param _mutableStorage2 content adressable storage adress part 2\n     */\n    function modifyMutableStorage(\n        bytes32 _idxHash,\n        bytes32 _rgtHash,\n        bytes32 _mutableStorage1,\n        bytes32 _mutableStorage2\n    ) external nonReentrant whenNotPaused isAuthorized(_idxHash) {\n        Record memory rec = getRecord(_idxHash);\n        uint8 userType = getCallingUserType(rec.node);\n        require(\n            (userType > 0) && (userType < 10),\n            \"APP:MMS: User !auth in node\"\n        );\n        require(\n            needsImport(rec.assetStatus) == 0,\n            \"APP:MMS: Record in unregistered, exported, or discarded status\"\n        );\n        require(\n            rec.rightsHolder == _rgtHash,\n            \"APP:MMS: Rightsholder does not match supplied data\"\n        );\n        //^^^^^^^checks^^^^^^^^^\n\n        rec.mutableStorage1 = _mutableStorage1;\n        rec.mutableStorage2 = _mutableStorage2;\n        //^^^^^^^effects^^^^^^^^^\n\n        writeMutableStorage(_idxHash, rec);\n        deductServiceCosts(rec.node, 8);\n        //^^^^^^^interactions^^^^^^^^^\n    }\n\n    // /** //import & export have been slated for reevaluation\n    //  * @dev import Rercord, must match export node\n    //  * posessor is considered to be owner. sets rec.assetStatus to 0.\n    //  * @param _idxHash - hash of asset information created by frontend inputs\n    //  * @param _newNode - node the asset will be imported into\n    //  */\n    // function importAsset(bytes32 _idxHash, uint32 _newNode)\n    //     external\n    //     nonReentrant\n    //     whenNotPaused\n    //     isAuthorized(_idxHash) ///contract holds token (user sent to contract)\n    // {\n    //     Record memory rec = getRecord(_idxHash);\n    //     uint8 userType = getCallingUserType(_newNode);\n\n    //     require(userType < 3, \"A:IA: User !authorized to import assets\");\n    //     require((userType > 0) && (userType < 10), \"A:IA: User !auth in node\");\n    //     require(\n    //         (rec.assetStatus == 5) ||\n    //             (rec.assetStatus == 55) ||\n    //             (rec.assetStatus == 70),\n    //         \"A:IA: Only Transferred or exported assets can be imported\"\n    //     );\n    //     require(\n    //         _newNode == rec.int32temp,\n    //         \"A:IA: new node must match node authorized for import\"\n    //     );\n    //     require(\n    //         NODE_STOR.isSameRootNode(_newNode, rec.node) == 170,\n    //         \"ANC:IA: Cannot change node to new root\"\n    //     );\n    //     //^^^^^^^checks^^^^^^^^^\n\n    //     rec.modCount = 170;\n    //     rec.assetStatus = 0;\n    //     //^^^^^^^effects^^^^^^^^^\n\n    //     STOR.changeNode(_idxHash, _newNode);\n    //     writeRecord(_idxHash, rec);\n    //     deductServiceCosts(_newNode, 1);\n    //     //^^^^^^^interactions^^^^^^^^^\n    // }\n\n    // /** //import & export have been slated for reevaluation\n    //  * @dev Export FROM Custodial - sets asset to status 70 (importable) for export\n    //  * @dev exportTo - sets asset to status 70 (importable) and defines the node that the item can be imported into\n    //  * @param _idxHash idx of asset to Modify\n    //  * @param _exportTo node target for export\n    //  * @param _addr adress to send asset to\n    //  * @param _rgtHash rgthash to match in front end\n    //  */\n    // function exportAssetTo(\n    //     bytes32 _idxHash,\n    //     uint32 _exportTo,\n    //     address _addr,\n    //     bytes32 _rgtHash\n    // ) external nonReentrant whenNotPaused isAuthorized(_idxHash) {\n    //     Record memory rec = getRecord(_idxHash);\n    //     uint8 userType = getCallingUserType(rec.node);\n\n    //     require(\n    //         (userType > 0) && (userType < 10),\n    //         \"APP:EA: user not auth in node\"\n    //     );\n    //     require( // require transferrable (51) status\n    //         (rec.assetStatus == 51) || (rec.assetStatus == 70),\n    //         \"APP:EA: Asset status must be 51 to export\"\n    //     );\n    //     require(\n    //         NODE_STOR.isSameRootNode(_exportTo, rec.node) == 170,\n    //         \"A:EA: Cannot export node to new root\"\n    //     );\n    //     require(\n    //         rec.rightsHolder == _rgtHash,\n    //         \"APP:EA: Rightsholder does not match supplied data\"\n    //     );\n    //     //^^^^^^^checks^^^^^^^^^\n\n    //     rec.assetStatus = 70; // Set status to 70 (exported)\n    //     rec.int32temp = _exportTo;\n    //     //^^^^^^^effects^^^^^^^^^\n\n    //     A_TKN.safeTransferFrom(address(this), _addr, uint256(_idxHash));\n    //     writeRecord(_idxHash, rec);\n    //     //^^^^^^^interactions^^^^^^^^^\n    // }\n}\n",
  "sourcePath": "/Users/drake/Documents/DEV/PRUF/PRUF_TRUFFLE/contracts/InProgress/PRUF_APP.sol",
  "compiler": {
    "name": "solc",
    "version": "0.8.7+commit.e28d00a7.Emscripten.clang"
  },
  "schemaVersion": "3.4.3",
  "updatedAt": "2022-04-27T15:21:40.041Z",
  "devdoc": {
    "kind": "dev",
    "methods": {
      "ERC20Transfer(address,address,uint256)": {
        "details": "send an ERC20 token from this contract",
        "params": {
          "_amount": "amount to transfer",
          "_to": "destination",
          "_tokenContract": "Address of foreign token contract"
        }
      },
      "ERC721Transfer(address,address,uint256)": {
        "details": "send an ERC721 token from this contract",
        "params": {
          "_to": "destination",
          "_tokenContract": "Address of foreign token contract",
          "_tokenID": "Token ID"
        }
      },
      "addNonMutableStorage(bytes32,bytes32,bytes32,bytes32)": {
        "details": "Modify **Record** NonMutableStorage with confirmation of matching rgthash",
        "params": {
          "_idxHash": "- hash of asset information created by frontend inputs",
          "_nonMutableStorage1": "- field for permanent external asset data",
          "_nonMutableStorage2": "- field for permanent external asset data",
          "_rgtHash": "- hash of rightsholder information created by frontend inputs"
        }
      },
      "decrementCounter(bytes32,bytes32,uint32)": {
        "details": "Decrement **Record**.countdown with confirmation of matching rgthash required",
        "params": {
          "_decAmount": "amount to decrement",
          "_idxHash": "asset to moidify",
          "_rgtHash": "rgthash to match in front end"
        }
      },
      "forceModifyRecord(bytes32,bytes32)": {
        "details": "Modify rec.rightsHolder",
        "params": {
          "_idxHash": "- hash of asset information created by frontend inputs",
          "_rgtHash": "- hash of new rightsholder information created by frontend inputs"
        }
      },
      "getRoleAdmin(bytes32)": {
        "details": "Returns the admin role that controls `role`. See {grantRole} and {revokeRole}. To change a role's admin, use {_setRoleAdmin}."
      },
      "grantRole(bytes32,address)": {
        "details": "Grants `role` to `account`. If `account` had not been already granted `role`, emits a {RoleGranted} event. Requirements: - the caller must have ``role``'s admin role."
      },
      "hasRole(bytes32,address)": {
        "details": "Returns `true` if `account` has been granted `role`."
      },
      "modifyMutableStorage(bytes32,bytes32,bytes32,bytes32)": {
        "details": "Modify rec.MutableStorage field with rghHash confirmation",
        "params": {
          "_idxHash": "idx of asset to Modify",
          "_mutableStorage1": "content adressable storage adress part 1",
          "_mutableStorage2": "content adressable storage adress part 2",
          "_rgtHash": "rgthash to match in front end"
        }
      },
      "modifyStatus(bytes32,bytes32,uint8)": {
        "details": "Modify **Record**.assetStatus with confirmation of matching rgthash required",
        "params": {
          "_idxHash": "asset to moidify",
          "_newAssetStatus": "updated status",
          "_rgtHash": "rgthash to match in front end"
        }
      },
      "newRecord(bytes32,bytes32,uint32,uint32,string)": {
        "details": "Creates a new record",
        "params": {
          "_countDownStart": "- decremental counter for an assets lifecycle",
          "_idxHash": "- hash of asset information created by frontend inputs",
          "_node": "- node the asset will be created in",
          "_rgtHash": "- hash of rightsholder information created by frontend inputs"
        }
      },
      "onERC721Received(address,address,uint256,bytes)": {
        "details": "Compliance for erc721 reciever See OZ documentation"
      },
      "paused()": {
        "details": "Returns true if the contract is paused, and false otherwise."
      },
      "renounceRole(bytes32,address)": {
        "details": "Revokes `role` from the calling account. Roles are often managed via {grantRole} and {revokeRole}: this function's purpose is to provide a mechanism for accounts to lose their privileges if they are compromised (such as when a trusted device is misplaced). If the calling account had been granted `role`, emits a {RoleRevoked} event. Requirements: - the caller must be `account`."
      },
      "resolveContractAddresses()": {
        "details": "Resolve contract addresses from STOR"
      },
      "revokeRole(bytes32,address)": {
        "details": "Revokes `role` from `account`. If `account` had been granted `role`, emits a {RoleRevoked} event. Requirements: - the caller must have ``role``'s admin role."
      },
      "setLostOrStolen(bytes32,bytes32,uint8)": {
        "details": "set **Record**.assetStatus to lost or stolen, with confirmation of matching rgthash required",
        "params": {
          "_idxHash": "asset to moidify",
          "_newAssetStatus": "updated status",
          "_rgtHash": "rgthash to match in front end"
        }
      },
      "setStorageContract(address)": {
        "details": "Set address of STOR contract to interface with",
        "params": {
          "_storageAddress": "address of PRUF_STOR"
        }
      },
      "supportsInterface(bytes4)": {
        "details": "See {IERC165-supportsInterface}."
      },
      "transferAsset(bytes32,bytes32,bytes32)": {
        "details": "Transfer rights to new rightsHolder with confirmation of matching rgthash",
        "params": {
          "_idxHash": "- hash of asset information created by frontend inputs",
          "_newrgtHash": "- hash of targeted reciever information created by frontend inputs",
          "_rgtHash": "- hash of rightsholder information created by frontend inputs"
        }
      },
      "transferAssetToken(address,bytes32)": {
        "details": "Transfer any specified assetToken from contract",
        "params": {
          "_idxHash": "- asset index",
          "_to": "- address to send to"
        }
      }
    },
    "version": 1
  },
  "userdoc": {
    "kind": "user",
    "methods": {},
    "version": 1
  }
}