{
  "contractName": "APP",
  "abi": [
    {
      "anonymous": false,
      "inputs": [
        {
          "indexed": false,
          "internalType": "address",
          "name": "account",
          "type": "address"
        }
      ],
      "name": "Paused",
      "type": "event"
    },
    {
      "anonymous": false,
      "inputs": [
        {
          "indexed": false,
          "internalType": "string",
          "name": "_msg",
          "type": "string"
        }
      ],
      "name": "REPORT",
      "type": "event"
    },
    {
      "anonymous": false,
      "inputs": [
        {
          "indexed": true,
          "internalType": "bytes32",
          "name": "role",
          "type": "bytes32"
        },
        {
          "indexed": true,
          "internalType": "bytes32",
          "name": "previousAdminRole",
          "type": "bytes32"
        },
        {
          "indexed": true,
          "internalType": "bytes32",
          "name": "newAdminRole",
          "type": "bytes32"
        }
      ],
      "name": "RoleAdminChanged",
      "type": "event"
    },
    {
      "anonymous": false,
      "inputs": [
        {
          "indexed": true,
          "internalType": "bytes32",
          "name": "role",
          "type": "bytes32"
        },
        {
          "indexed": true,
          "internalType": "address",
          "name": "account",
          "type": "address"
        },
        {
          "indexed": true,
          "internalType": "address",
          "name": "sender",
          "type": "address"
        }
      ],
      "name": "RoleGranted",
      "type": "event"
    },
    {
      "anonymous": false,
      "inputs": [
        {
          "indexed": true,
          "internalType": "bytes32",
          "name": "role",
          "type": "bytes32"
        },
        {
          "indexed": true,
          "internalType": "address",
          "name": "account",
          "type": "address"
        },
        {
          "indexed": true,
          "internalType": "address",
          "name": "sender",
          "type": "address"
        }
      ],
      "name": "RoleRevoked",
      "type": "event"
    },
    {
      "anonymous": false,
      "inputs": [
        {
          "indexed": false,
          "internalType": "address",
          "name": "account",
          "type": "address"
        }
      ],
      "name": "Unpaused",
      "type": "event"
    },
    {
      "inputs": [],
      "name": "ASSET_TXFR_ROLE",
      "outputs": [
        {
          "internalType": "bytes32",
          "name": "",
          "type": "bytes32"
        }
      ],
      "stateMutability": "view",
      "type": "function"
    },
    {
      "inputs": [],
      "name": "B320xF_",
      "outputs": [
        {
          "internalType": "bytes32",
          "name": "",
          "type": "bytes32"
        }
      ],
      "stateMutability": "view",
      "type": "function"
    },
    {
      "inputs": [],
      "name": "CONTRACT_ADMIN_ROLE",
      "outputs": [
        {
          "internalType": "bytes32",
          "name": "",
          "type": "bytes32"
        }
      ],
      "stateMutability": "view",
      "type": "function"
    },
    {
      "inputs": [],
      "name": "DAO_ROLE",
      "outputs": [
        {
          "internalType": "bytes32",
          "name": "",
          "type": "bytes32"
        }
      ],
      "stateMutability": "view",
      "type": "function"
    },
    {
      "inputs": [],
      "name": "DEFAULT_ADMIN_ROLE",
      "outputs": [
        {
          "internalType": "bytes32",
          "name": "",
          "type": "bytes32"
        }
      ],
      "stateMutability": "view",
      "type": "function"
    },
    {
      "inputs": [
        {
          "internalType": "address",
          "name": "_tokenContract",
          "type": "address"
        },
        {
          "internalType": "address",
          "name": "_to",
          "type": "address"
        },
        {
          "internalType": "uint256",
          "name": "_amount",
          "type": "uint256"
        }
      ],
      "name": "ERC20Transfer",
      "outputs": [],
      "stateMutability": "nonpayable",
      "type": "function"
    },
    {
      "inputs": [
        {
          "internalType": "address",
          "name": "_tokenContract",
          "type": "address"
        },
        {
          "internalType": "address",
          "name": "_to",
          "type": "address"
        },
        {
          "internalType": "uint256",
          "name": "_tokenID",
          "type": "uint256"
        }
      ],
      "name": "ERC721Transfer",
      "outputs": [],
      "stateMutability": "nonpayable",
      "type": "function"
    },
    {
      "inputs": [],
      "name": "PAUSER_ROLE",
      "outputs": [
        {
          "internalType": "bytes32",
          "name": "",
          "type": "bytes32"
        }
      ],
      "stateMutability": "view",
      "type": "function"
    },
    {
      "inputs": [
        {
          "internalType": "bytes32",
          "name": "role",
          "type": "bytes32"
        }
      ],
      "name": "getRoleAdmin",
      "outputs": [
        {
          "internalType": "bytes32",
          "name": "",
          "type": "bytes32"
        }
      ],
      "stateMutability": "view",
      "type": "function"
    },
    {
      "inputs": [
        {
          "internalType": "bytes32",
          "name": "role",
          "type": "bytes32"
        },
        {
          "internalType": "address",
          "name": "account",
          "type": "address"
        }
      ],
      "name": "grantRole",
      "outputs": [],
      "stateMutability": "nonpayable",
      "type": "function"
    },
    {
      "inputs": [
        {
          "internalType": "bytes32",
          "name": "role",
          "type": "bytes32"
        },
        {
          "internalType": "address",
          "name": "account",
          "type": "address"
        }
      ],
      "name": "hasRole",
      "outputs": [
        {
          "internalType": "bool",
          "name": "",
          "type": "bool"
        }
      ],
      "stateMutability": "view",
      "type": "function"
    },
    {
      "inputs": [
        {
          "internalType": "address",
          "name": "",
          "type": "address"
        },
        {
          "internalType": "address",
          "name": "",
          "type": "address"
        },
        {
          "internalType": "uint256",
          "name": "",
          "type": "uint256"
        },
        {
          "internalType": "bytes",
          "name": "",
          "type": "bytes"
        }
      ],
      "name": "onERC721Received",
      "outputs": [
        {
          "internalType": "bytes4",
          "name": "",
          "type": "bytes4"
        }
      ],
      "stateMutability": "nonpayable",
      "type": "function"
    },
    {
      "inputs": [],
      "name": "pause",
      "outputs": [],
      "stateMutability": "nonpayable",
      "type": "function"
    },
    {
      "inputs": [],
      "name": "paused",
      "outputs": [
        {
          "internalType": "bool",
          "name": "",
          "type": "bool"
        }
      ],
      "stateMutability": "view",
      "type": "function"
    },
    {
      "inputs": [
        {
          "internalType": "bytes32",
          "name": "role",
          "type": "bytes32"
        },
        {
          "internalType": "address",
          "name": "account",
          "type": "address"
        }
      ],
      "name": "renounceRole",
      "outputs": [],
      "stateMutability": "nonpayable",
      "type": "function"
    },
    {
      "inputs": [],
      "name": "resolveContractAddresses",
      "outputs": [],
      "stateMutability": "nonpayable",
      "type": "function"
    },
    {
      "inputs": [
        {
          "internalType": "bytes32",
          "name": "role",
          "type": "bytes32"
        },
        {
          "internalType": "address",
          "name": "account",
          "type": "address"
        }
      ],
      "name": "revokeRole",
      "outputs": [],
      "stateMutability": "nonpayable",
      "type": "function"
    },
    {
      "inputs": [
        {
          "internalType": "address",
          "name": "_storageAddress",
          "type": "address"
        }
      ],
      "name": "setStorageContract",
      "outputs": [],
      "stateMutability": "nonpayable",
      "type": "function"
    },
    {
      "inputs": [
        {
          "internalType": "bytes4",
          "name": "interfaceId",
          "type": "bytes4"
        }
      ],
      "name": "supportsInterface",
      "outputs": [
        {
          "internalType": "bool",
          "name": "",
          "type": "bool"
        }
      ],
      "stateMutability": "view",
      "type": "function"
    },
    {
      "inputs": [],
      "name": "unpause",
      "outputs": [],
      "stateMutability": "nonpayable",
      "type": "function"
    },
    {
      "inputs": [
        {
          "internalType": "bytes32",
          "name": "_idxHash",
          "type": "bytes32"
        },
        {
          "internalType": "bytes32",
          "name": "_rgtHash",
          "type": "bytes32"
        },
        {
          "internalType": "uint32",
          "name": "_node",
          "type": "uint32"
        },
        {
          "internalType": "uint32",
          "name": "_countDownStart",
          "type": "uint32"
        },
        {
          "internalType": "string",
          "name": "_URIsuffix",
          "type": "string"
        }
      ],
      "name": "newRecord",
      "outputs": [],
      "stateMutability": "nonpayable",
      "type": "function"
    },
    {
      "inputs": [
        {
          "internalType": "bytes32",
          "name": "_idxHash",
          "type": "bytes32"
        },
        {
          "internalType": "bytes32",
          "name": "_rgtHash",
          "type": "bytes32"
        }
      ],
      "name": "forceModifyRecord",
      "outputs": [],
      "stateMutability": "nonpayable",
      "type": "function"
    },
    {
      "inputs": [
        {
          "internalType": "bytes32",
          "name": "_idxHash",
          "type": "bytes32"
        },
        {
          "internalType": "bytes32",
          "name": "_rgtHash",
          "type": "bytes32"
        },
        {
          "internalType": "bytes32",
          "name": "_newrgtHash",
          "type": "bytes32"
        }
      ],
      "name": "transferAsset",
      "outputs": [],
      "stateMutability": "nonpayable",
      "type": "function"
    },
    {
      "inputs": [
        {
          "internalType": "bytes32",
          "name": "_idxHash",
          "type": "bytes32"
        },
        {
          "internalType": "bytes32",
          "name": "_rgtHash",
          "type": "bytes32"
        },
        {
          "internalType": "bytes32",
          "name": "_nonMutableStorage1",
          "type": "bytes32"
        },
        {
          "internalType": "bytes32",
          "name": "_nonMutableStorage2",
          "type": "bytes32"
        }
      ],
      "name": "addNonMutableStorage",
      "outputs": [],
      "stateMutability": "nonpayable",
      "type": "function"
    },
    {
      "inputs": [
        {
          "internalType": "address",
          "name": "_to",
          "type": "address"
        },
        {
          "internalType": "bytes32",
          "name": "_idxHash",
          "type": "bytes32"
        }
      ],
      "name": "transferAssetToken",
      "outputs": [],
      "stateMutability": "nonpayable",
      "type": "function"
    },
    {
      "inputs": [
        {
          "internalType": "bytes32",
          "name": "_idxHash",
          "type": "bytes32"
        },
        {
          "internalType": "bytes32",
          "name": "_rgtHash",
          "type": "bytes32"
        },
        {
          "internalType": "uint8",
          "name": "_newAssetStatus",
          "type": "uint8"
        }
      ],
      "name": "modifyStatus",
      "outputs": [],
      "stateMutability": "nonpayable",
      "type": "function"
    },
    {
      "inputs": [
        {
          "internalType": "bytes32",
          "name": "_idxHash",
          "type": "bytes32"
        },
        {
          "internalType": "bytes32",
          "name": "_rgtHash",
          "type": "bytes32"
        },
        {
          "internalType": "uint8",
          "name": "_newAssetStatus",
          "type": "uint8"
        }
      ],
      "name": "setLostOrStolen",
      "outputs": [],
      "stateMutability": "nonpayable",
      "type": "function"
    },
    {
      "inputs": [
        {
          "internalType": "bytes32",
          "name": "_idxHash",
          "type": "bytes32"
        },
        {
          "internalType": "bytes32",
          "name": "_rgtHash",
          "type": "bytes32"
        },
        {
          "internalType": "uint32",
          "name": "_decAmount",
          "type": "uint32"
        }
      ],
      "name": "decrementCounter",
      "outputs": [],
      "stateMutability": "nonpayable",
      "type": "function"
    },
    {
      "inputs": [
        {
          "internalType": "bytes32",
          "name": "_idxHash",
          "type": "bytes32"
        },
        {
          "internalType": "bytes32",
          "name": "_rgtHash",
          "type": "bytes32"
        },
        {
          "internalType": "bytes32",
          "name": "_mutableStorage1",
          "type": "bytes32"
        },
        {
          "internalType": "bytes32",
          "name": "_mutableStorage2",
          "type": "bytes32"
        }
      ],
      "name": "modifyMutableStorage",
      "outputs": [],
      "stateMutability": "nonpayable",
      "type": "function"
    }
  ],
  "bytecode": "0x60806040523480156200001157600080fd5b50600160009081556002805460ff191690556200002f90336200008d565b6200005b7f2ce8d04a9c35987429af538825cd2438cc5c5bb5dc427955f84daaa3ea105016336200008d565b620000877f65d7a28e3265b37a6474929f336521b332c1681b933f6cb9f3376673440d862a336200008d565b62000125565b6200009982826200009d565b5050565b60008281526001602090815260408083206001600160a01b038516845290915290205460ff16620000995760008281526001602081815260408084206001600160a01b0386168086529252808420805460ff19169093179092559051339285917f2f8788117e7eff1d82e926ec794901d17c78024a50270940304540a733656f0d9190a45050565b614b5780620001356000396000f3fe608060405234801561001057600080fd5b50600436106101cf5760003560e01c80635db1674f11610104578063d547741f116100a2578063e5f815dc11610071578063e5f815dc146103ed578063e63ab1e914610400578063e9c2651814610427578063ee9c25c51461044e57600080fd5b8063d547741f146103a1578063dc38b0a2146103b4578063dc4aacff146103c7578063e59fdd36146103da57600080fd5b80638456cb59116100de5780638456cb591461036b57806391d1485414610373578063a217fddf14610386578063b5081c791461038e57600080fd5b80635db1674f1461033257806368e9ea66146103455780636bd292ca1461035857600080fd5b80632f2ff15d116101715780633b21fd681161014b5780633b21fd68146103035780633f4ba83a1461030c578063440e7a7e146103145780635c975abb1461032757600080fd5b80632f2ff15d146102ca57806336568abe146102dd57806338955283146102f057600080fd5b80631429db5f116101ad5780631429db5f14610224578063150b7a02146102475780631da033121461027f578063248a9ca3146102a657600080fd5b8063011230bd146101d457806301ffc9a7146101e95780630555d11014610211575b600080fd5b6101e76101e236600461423a565b610456565b005b6101fc6101f736600461434f565b6106ff565b60405190151581526020015b60405180910390f35b6101e761021f36600461423a565b610736565b610239600080516020614b0283398151915281565b604051908152602001610208565b6102666102553660046140e2565b630a85bd0160e11b95945050505050565b6040516001600160e01b03199091168152602001610208565b6102397f2ce8d04a9c35987429af538825cd2438cc5c5bb5dc427955f84daaa3ea10501681565b6102396102b43660046141a3565b6000908152600160208190526040909120015490565b6101e76102d83660046141bc565b61099f565b6101e76102eb3660046141bc565b6109cb565b6101e76102fe3660046142a5565b610a49565b61023960001981565b6101e7610bc9565b6101e7610322366004614155565b610c19565b60025460ff166101fc565b6101e761034036600461420e565b610d1c565b6101e7610353366004614321565b611026565b6101e761036636600461426c565b611330565b6101e76115f1565b6101fc6103813660046141bc565b61163f565b610239600081565b6101e761039c366004614321565b61166a565b6101e76103af3660046141bc565b611a7d565b6101e76103c2366004614067565b611aa4565b6101e76103d53660046141ec565b611b57565b6101e76103e83660046140a1565b611db7565b6101e76103fb3660046140a1565b611ea6565b6102397f65d7a28e3265b37a6474929f336521b332c1681b933f6cb9f3376673440d862a81565b6102397f3b5d4cc60d3ec3516ee8ae083bd60934f6eb2a6c54b1229985c41bfb092b260381565b6101e7611f3d565b600260005414156104825760405162461bcd60e51b815260040161047990614902565b60405180910390fd5b600260005561049360025460ff1690565b156104b05760405162461bcd60e51b815260040161047990614888565b600b546040516331a9108f60e11b8152600481018690528591829130916001600160a01b031690636352211e90602401602060405180830381600087803b1580156104fa57600080fd5b505af115801561050e573d6000803e3d6000fd5b505050506040513d601f19601f820116820180604052508101906105329190614084565b6001600160a01b0316146105585760405162461bcd60e51b8152600401610479906148b2565b600061056387612620565b905060006105748260600151612706565b905060008160ff1611801561058c5750600a8160ff16105b6105d85760405162461bcd60e51b815260206004820152601b60248201527f4150503a4d4d533a205573657220216175746820696e206e6f646500000000006044820152606401610479565b81516105e3906127cc565b60ff16156106595760405162461bcd60e51b815260206004820152603e60248201527f4150503a4d4d533a205265636f726420696e20756e726567697374657265642c60448201527f206578706f727465642c206f72206469736361726465642073746174757300006064820152608401610479565b86826101600151146106c85760405162461bcd60e51b815260206004820152603260248201527f4150503a4d4d533a20526967687473686f6c64657220646f6573206e6f74206d6044820152716174636820737570706c696564206461746160701b6064820152608401610479565b60e0820186905261012082018590526106e18883612820565b6106f082606001516008612a9a565b50506001600055505050505050565b60006001600160e01b03198216637965db0b60e01b148061073057506301ffc9a760e01b6001600160e01b03198316145b92915050565b600260005414156107595760405162461bcd60e51b815260040161047990614902565b600260005561076a60025460ff1690565b156107875760405162461bcd60e51b815260040161047990614888565b600b546040516331a9108f60e11b8152600481018690528591829130916001600160a01b031690636352211e90602401602060405180830381600087803b1580156107d157600080fd5b505af11580156107e5573d6000803e3d6000fd5b505050506040513d601f19601f820116820180604052508101906108099190614084565b6001600160a01b03161461082f5760405162461bcd60e51b8152600401610479906148b2565b600061083a87612620565b9050600061084b8260600151612706565b905060008160ff161180156108635750600a8160ff16105b6108af5760405162461bcd60e51b815260206004820152601b60248201527f413a49323a2055736572206e6f74206175746820696e206e6f646500000000006044820152606401610479565b81516108ba906127cc565b60ff161561090a5760405162461bcd60e51b815260206004820152601d60248201527f413a49323a204173736574206e656564732072652d696d706f727465640000006044820152606401610479565b86826101600151146109765760405162461bcd60e51b815260206004820152602f60248201527f413a49323a20526967687473686f6c64657220646f6573206e6f74206d61746360448201526e6820737570706c696564206461746160881b6064820152608401610479565b610100820186905261014082018590526109908883612cad565b6106f082606001516003612a9a565b600082815260016020819052604090912001546109bc8133612d4c565b6109c68383612db0565b505050565b6001600160a01b0381163314610a3b5760405162461bcd60e51b815260206004820152602f60248201527f416363657373436f6e74726f6c3a2063616e206f6e6c792072656e6f756e636560448201526e103937b632b9903337b91039b2b63360891b6064820152608401610479565b610a458282612e1b565b5050565b60026000541415610a6c5760405162461bcd60e51b815260040161047990614902565b6002600055610a7d60025460ff1690565b15610a9a5760405162461bcd60e51b815260040161047990614888565b60008685604051602001610ac592919091825260e01b6001600160e01b031916602082015260240190565b6040516020818303038152906040528051906020012090506000610ae886612706565b905060008160ff16118015610b005750600a8160ff16105b610b4c5760405162461bcd60e51b815260206004820152601860248201527f413a4e523a205573657220216175746820696e206e6f646500000000000000006044820152606401610479565b60058160ff1610610bb05760405162461bcd60e51b815260206004820152602860248201527f413a4e523a20557365722021617574686f72697a656420746f20637265617465604482015267207265636f72647360c01b6064820152608401610479565b610bbe828888888888612e82565b6106f0866001612a9a565b610bf37f65d7a28e3265b37a6474929f336521b332c1681b933f6cb9f3376673440d862a3361163f565b610c0f5760405162461bcd60e51b815260040161047990614842565b610c17613279565b565b60026000541415610c3c5760405162461bcd60e51b815260040161047990614902565b6002600055610c59600080516020614b028339815191523361163f565b610ca55760405162461bcd60e51b815260206004820152601e60248201527f423a54583a4d75737420686176652041535345545f545846525f524f4c4500006044820152606401610479565b600b54604051632142170760e11b81523060048201526001600160a01b03848116602483015260448201849052839216906342842e0e906064015b600060405180830381600087803b158015610cfa57600080fd5b505af1158015610d0e573d6000803e3d6000fd5b505060016000555050505050565b60026000541415610d3f5760405162461bcd60e51b815260040161047990614902565b6002600055610d5060025460ff1690565b15610d6d5760405162461bcd60e51b815260040161047990614888565b600b546040516331a9108f60e11b8152600481018590528491829130916001600160a01b031690636352211e90602401602060405180830381600087803b158015610db757600080fd5b505af1158015610dcb573d6000803e3d6000fd5b505050506040513d601f19601f82011682018060405250810190610def9190614084565b6001600160a01b031614610e155760405162461bcd60e51b8152600401610479906148b2565b6000610e2086612620565b90506000610e318260600151612706565b905060008160ff16118015610e495750600a8160ff16105b610e955760405162461bcd60e51b815260206004820152601b60248201527f413a54413a2055736572206e6f74206175746820696e206e6f646500000000006044820152606401610479565b6031826000015160ff161180610eae575060058160ff16105b610f105760405162461bcd60e51b815260206004820152602d60248201527f413a54413a4f6e6c79207573657274797065203c20352063616e206368616e6760448201526c06520737461747573203c20353609c1b6064820152608401610479565b816000015160ff1660011480610f2d5750816000015160ff166033145b610f845760405162461bcd60e51b815260206004820152602260248201527f413a54413a41737365742073746174757320213d207472616e736665727261626044820152616c6560f01b6064820152608401610479565b8582610160015114610fef5760405162461bcd60e51b815260206004820152602e60248201527f413a54413a526967687473686f6c64657220646f6573206e6f74206d6174636860448201526d20737570706c696564206461746160901b6064820152608401610479565b60aa604083015284611005576005825260001994505b6101608201859052611017878361330c565b610d0e82606001516002612a9a565b600260005414156110495760405162461bcd60e51b815260040161047990614902565b600260005561105a60025460ff1690565b156110775760405162461bcd60e51b815260040161047990614888565b600b546040516331a9108f60e11b8152600481018590528491829130916001600160a01b031690636352211e90602401602060405180830381600087803b1580156110c157600080fd5b505af11580156110d5573d6000803e3d6000fd5b505050506040513d601f19601f820116820180604052508101906110f99190614084565b6001600160a01b03161461111f5760405162461bcd60e51b8152600401610479906148b2565b600061112a86612620565b9050600061113b8260600151612706565b905060008160ff161180156111535750600a8160ff16105b61119f5760405162461bcd60e51b815260206004820152601b60248201527f4150503a534c533a205573657220216175746820696e206e6f646500000000006044820152606401610479565b6031826000015160ff1611806111c6575060328560ff161080156111c6575060058160ff16105b6112485760405162461bcd60e51b815260206004820152604760248201527f4150503a534c533a204f6e6c79207573657274797065203c352063616e20636860448201527f616e67652061203c34392073746174757320617373657420746f2061203e34396064820152662073746174757360c81b608482015260a401610479565b85826101600151146112b75760405162461bcd60e51b815260206004820152603260248201527f4150503a534c533a20526967687473686f6c64657220646f6573206e6f74206d6044820152716174636820737570706c696564206461746160701b6064820152608401610479565b60ff85168083526003546040516303d9c4f560e21b8152600481018a905260248101929092526001600160a01b031690630f6713d490604401600060405180830381600087803b15801561130a57600080fd5b505af115801561131e573d6000803e3d6000fd5b50506001600055505050505050505050565b600260005414156113535760405162461bcd60e51b815260040161047990614902565b600260005561136460025460ff1690565b156113815760405162461bcd60e51b815260040161047990614888565b600b546040516331a9108f60e11b8152600481018590528491829130916001600160a01b031690636352211e90602401602060405180830381600087803b1580156113cb57600080fd5b505af11580156113df573d6000803e3d6000fd5b505050506040513d601f19601f820116820180604052508101906114039190614084565b6001600160a01b0316146114295760405162461bcd60e51b8152600401610479906148b2565b600061143486612620565b905060006114458260600151612706565b905060008160ff1611801561145d5750600a8160ff16105b6114a95760405162461bcd60e51b815260206004820152601a60248201527f4150503a44433a205573657220216175746820696e206e6f64650000000000006044820152606401610479565b81516114b4906127cc565b60ff161561152a5760405162461bcd60e51b815260206004820152603c60248201527f4150503a4443205265636f726420696e20756e726567697374657265642c206560448201527f78706f727465642c206f722064697363617264656420737461747573000000006064820152608401610479565b85826101600151146115985760405162461bcd60e51b815260206004820152603160248201527f4150503a44433a20526967687473686f6c64657220646f6573206e6f74206d6160448201527074636820737570706c696564206461746160781b6064820152608401610479565b8463ffffffff16826080015163ffffffff1611156115d0578482608001516115c091906149f7565b63ffffffff1660808301526115d8565b600060808301525b6115e2878361330c565b610d0e82606001516007612a9a565b61161b7f65d7a28e3265b37a6474929f336521b332c1681b933f6cb9f3376673440d862a3361163f565b6116375760405162461bcd60e51b815260040161047990614842565b610c176133b6565b60009182526001602090815260408084206001600160a01b0393909316845291905290205460ff1690565b6002600054141561168d5760405162461bcd60e51b815260040161047990614902565b600260005561169e60025460ff1690565b156116bb5760405162461bcd60e51b815260040161047990614888565b600b546040516331a9108f60e11b8152600481018590528491829130916001600160a01b031690636352211e90602401602060405180830381600087803b15801561170557600080fd5b505af1158015611719573d6000803e3d6000fd5b505050506040513d601f19601f8201168201806040525081019061173d9190614084565b6001600160a01b0316146117635760405162461bcd60e51b8152600401610479906148b2565b600061176e86612620565b9050600061177f8260600151612706565b905060008160ff161180156117975750600a8160ff16105b6117e35760405162461bcd60e51b815260206004820152601a60248201527f4150503a4d533a205573657220216175746820696e206e6f64650000000000006044820152606401610479565b8460ff166007141580156117fb57508460ff16603914155b801561180b57508460ff16603a14155b801561181a575060648560ff16105b61185b5760405162461bcd60e51b81526020600482015260126024820152711054140e9354ce8814dd185d08149cdc9d9960721b6044820152606401610479565b611864856127cc565b60ff16156119005760405162461bcd60e51b815260206004820152605c60248201527f4150503a4d533a2043616e6e6f7420706c61636520617373657420696e20756e60448201527f726567697374657265642c206578706f727465642c206f72206469736361726460648201527f656420737461747573207573696e67206d6f6469667953746174757300000000608482015260a401610479565b815161190b906127cc565b60ff16156119815760405162461bcd60e51b815260206004820152603d60248201527f4150503a4d533a205265636f726420696e20756e726567697374657265642c2060448201527f6578706f727465642c206f7220646973636172646564207374617475730000006064820152608401610479565b6031826000015160ff16118061199a575060058160ff16105b6119ff5760405162461bcd60e51b815260206004820152603060248201527f4150503a4d533a204f6e6c79207573657274797065203c20352063616e20636860448201526f616e676520737461747573203c20343960801b6064820152608401610479565b8582610160015114611a6d5760405162461bcd60e51b815260206004820152603160248201527f4150503a4d533a20526967687473686f6c64657220646f6573206e6f74206d6160448201527074636820737570706c696564206461746160781b6064820152608401610479565b60ff85168252610d0e878361330c565b60008281526001602081905260409091200154611a9a8133612d4c565b6109c68383612e1b565b611ace7f2ce8d04a9c35987429af538825cd2438cc5c5bb5dc427955f84daaa3ea1050163361163f565b611aea5760405162461bcd60e51b8152600401610479906147b8565b6001600160a01b038116611b355760405162461bcd60e51b81526020600482015260126024820152710423a5353433a2041646472657373203d20360741b6044820152606401610479565b600380546001600160a01b0319166001600160a01b0392909216919091179055565b60026000541415611b7a5760405162461bcd60e51b815260040161047990614902565b6002600055611b8b60025460ff1690565b15611ba85760405162461bcd60e51b815260040161047990614888565b600b546040516331a9108f60e11b8152600481018490528391829130916001600160a01b031690636352211e90602401602060405180830381600087803b158015611bf257600080fd5b505af1158015611c06573d6000803e3d6000fd5b505050506040513d601f19601f82011682018060405250810190611c2a9190614084565b6001600160a01b031614611c505760405162461bcd60e51b8152600401610479906148b2565b6000611c5b85612620565b90506000611c6c8260600151612706565b90508060ff16600114611cc15760405162461bcd60e51b815260206004820152601960248201527f413a464d523a205573657220216175746820696e206e6f6465000000000000006044820152606401610479565b8151611ccc9061340e565b60ff1615611d1c5760405162461bcd60e51b815260206004820152601760248201527f413a464d523a204173736574206d61726b6564204c2f530000000000000000006044820152606401610479565b8151611d27906127cc565b60ff1615611d775760405162461bcd60e51b815260206004820152601e60248201527f413a464d523a204173736574206e656564732072652d696d706f7274656400006044820152606401610479565b60aa602083018190526040830152600082526101608201859052611d9b868361330c565b611daa82606001516006612a9a565b5050600160005550505050565b611dcf600080516020614b028339815191523361163f565b611deb5760405162461bcd60e51b8152600401610479906147ff565b60026000541415611e0e5760405162461bcd60e51b815260040161047990614902565b60026000556040516323b872dd60e01b81523060048201526001600160a01b038381166024830152604482018390528416906323b872dd90606401602060405180830381600087803b158015611e6357600080fd5b505af1158015611e77573d6000803e3d6000fd5b505050506040513d601f19601f82011682018060405250810190611e9b9190614181565b505060016000555050565b611ebe600080516020614b028339815191523361163f565b611eda5760405162461bcd60e51b8152600401610479906147ff565b60026000541415611efd5760405162461bcd60e51b815260040161047990614902565b6002600055604051632142170760e11b81523060048201526001600160a01b038381166024830152604482018390528416906342842e0e90606401610ce0565b60026000541415611f605760405162461bcd60e51b815260040161047990614902565b6002600055611f8f7f2ce8d04a9c35987429af538825cd2438cc5c5bb5dc427955f84daaa3ea1050163361163f565b611fab5760405162461bcd60e51b8152600401610479906147b8565b6003546040516363b8d4c160e11b81526020600482015260086024820152672727a222afaa25a760c11b60448201526001600160a01b039091169063c771a9829060640160206040518083038186803b15801561200757600080fd5b505afa15801561201b573d6000803e3d6000fd5b505050506040513d601f19601f8201168201806040525081019061203f9190614084565b600c80546001600160a01b039283166001600160a01b03199182168117909255600d805490911690911790556003546040516363b8d4c160e11b81526020600482015260086024820152672727a222afa6a3a960c11b604482015291169063c771a9829060640160206040518083038186803b1580156120be57600080fd5b505afa1580156120d2573d6000803e3d6000fd5b505050506040513d601f19601f820116820180604052508101906120f69190614084565b600480546001600160a01b039283166001600160a01b031991821681178355600580549092161790556003546040516363b8d4c160e11b815292169163c771a9829161216091016020808252600990820152682727a222afa9aa27a960b91b604082015260600190565b60206040518083038186803b15801561217857600080fd5b505afa15801561218c573d6000803e3d6000fd5b505050506040513d601f19601f820116820180604052508101906121b09190614084565b600680546001600160a01b039283166001600160a01b031991821681179092556007805490911690911790556003546040516363b8d4c160e11b81526020600482015260086024820152672aaa24a62faa25a760c11b604482015291169063c771a9829060640160206040518083038186803b15801561222f57600080fd5b505afa158015612243573d6000803e3d6000fd5b505050506040513d601f19601f820116820180604052508101906122679190614084565b600880546001600160a01b039283166001600160a01b031991821681179092556009805490911690911790556003546040516363b8d4c160e11b815260206004820152600560248201526420afaa25a760d91b604482015291169063c771a9829060640160206040518083038186803b1580156122e357600080fd5b505afa1580156122f7573d6000803e3d6000fd5b505050506040513d601f19601f8201168201806040525081019061231b9190614084565b600a80546001600160a01b039283166001600160a01b03199182168117909255600b805490911690911790556003546040516363b8d4c160e11b815260206004820152600760248201526622a1a92fa6a3a960c91b604482015291169063c771a9829060640160206040518083038186803b15801561239957600080fd5b505afa1580156123ad573d6000803e3d6000fd5b505050506040513d601f19601f820116820180604052508101906123d19190614084565b600e80546001600160a01b039283166001600160a01b03199182168117909255600f805490911690911790556003546040516363b8d4c160e11b815291169063c771a9829061243a9060040160208082526003908201526204150560ec1b604082015260600190565b60206040518083038186803b15801561245257600080fd5b505afa158015612466573d6000803e3d6000fd5b505050506040513d601f19601f8201168201806040525081019061248a9190614084565b601280546001600160a01b039283166001600160a01b031991821681179092556013805490911690911790556003546040516363b8d4c160e11b815291169063c771a982906124f4906004016020808252600490820152632921a62960e11b604082015260600190565b60206040518083038186803b15801561250c57600080fd5b505afa158015612520573d6000803e3d6000fd5b505050506040513d601f19601f820116820180604052508101906125449190614084565b601080546001600160a01b039283166001600160a01b031991821681179092556011805490911690911790556003546040516363b8d4c160e11b81526020600482015260066024820152654150505f4e4360d01b604482015291169063c771a9829060640160206040518083038186803b1580156125c157600080fd5b505afa1580156125d5573d6000803e3d6000fd5b505050506040513d601f19601f820116820180604052508101906125f99190614084565b601480546001600160a01b0319166001600160a01b03929092169190911790556001600055565b6040805161018081018252600080825260208201819052918101829052606081018290526080810182905260a0810182905260c0810182905260e081018290526101008101829052610120810182905261014081018290526101608101919091526003546040516338923cb160e21b8152600481018490526000916001600160a01b03169063e248f2c4906024016101806040518083038186803b1580156126c757600080fd5b505afa1580156126db573d6000803e3d6000fd5b505050506040513d601f19601f820116820180604052508101906126ff91906145a1565b9392505050565b6007546040516bffffffffffffffffffffffff193360601b16602082015260009182916001600160a01b0390911690639d2c7cee9060340160408051601f198184030181529082905280516020909101206001600160e01b031960e084901b168252600482015263ffffffff8616602482015260440160206040518083038186803b15801561279457600080fd5b505afa1580156127a8573d6000803e3d6000fd5b505050506040513d601f19601f820116820180604052508101906126ff919061469b565b60008160ff166005141580156127e657508160ff16603714155b80156127f657508160ff16604614155b801561280657508160ff16603c14155b1561281357506000919050565b5060aa919050565b919050565b60025460ff16156128435760405162461bcd60e51b815260040161047990614888565b60006128528260600151613452565b90506006816020015160ff16106128e05760405162461bcd60e51b815260206004820152604660248201527f433a574d533a436f6e747261637420646f6573206e6f7420737570706f72742060448201527f6d616e6167656d656e74207479706573203e2035206f72206e6f6465206973206064820152651b1bd8dad95960d21b608482015260a401610479565b806000015160ff166001141580156128ff5750806020015160ff166005145b15612a1f5733600d5460608401516040516331a9108f60e11b815263ffffffff90911660048201526001600160a01b039283169290911690636352211e9060240160206040518083038186803b15801561295857600080fd5b505afa15801561296c573d6000803e3d6000fd5b505050506040513d601f19601f820116820180604052508101906129909190614084565b6001600160a01b031614612a1f5760405162461bcd60e51b815260206004820152604a60248201527f433a574d533a2043616c6c6572206d75737420686f6c64206e6f646520746f2060448201527f6d6f64696679206d757461626c652073746f7261676520286d616e6167656d656064820152696e74207479706520352960b01b608482015260a401610479565b60035460e08301516101208401516040516361e9eb6d60e01b815260048101879052602481019290925260448201526001600160a01b03909116906361e9eb6d90606401600060405180830381600087803b158015612a7d57600080fd5b505af1158015612a91573d6000803e3d6000fd5b50505050505050565b60025460ff1615612abd5760405162461bcd60e51b815260040161047990614888565b600754604051631f70958f60e31b815263ffffffff841660048201526000916064916001600160a01b039091169063fb84ac789060240160206040518083038186803b158015612b0c57600080fd5b505afa158015612b20573d6000803e3d6000fd5b505050506040513d601f19601f82011682018060405250810190612b44919061467e565b63ffffffff16612b54919061499f565b90506064811115612bc25760405162461bcd60e51b815260206004820152603260248201527f433a4453433a696e76616c696420646973636f756e742076616c756520666f7260448201527110383934b1b29031b0b631bab630ba34b7b760711b6064820152608401610479565b600754604051638f44e52560e01b815263ffffffff8516600482015261ffff841660248201526000916001600160a01b031690638f44e5259060440160806040518083038186803b158015612c1657600080fd5b505afa158015612c2a573d6000803e3d6000fd5b505050506040513d601f19601f82011682018060405250810190612c4e919061442d565b9050600060648260600151612c63919061499f565b90506000612c7182856149c1565b90506000818460600151612c8591906149e0565b606085018390526040850151909150612c9f908290614987565b6040850152612a91846134df565b60025460ff1615612cd05760405162461bcd60e51b815260040161047990614888565b6003546101008201516101408301516040516325ac1e4360e21b815260048101869052602481019290925260448201526001600160a01b03909116906396b0790c906064015b600060405180830381600087803b158015612d3057600080fd5b505af1158015612d44573d6000803e3d6000fd5b505050505050565b612d56828261163f565b610a4557612d6e816001600160a01b03166014613622565b612d79836020613622565b604051602001612d8a9291906146c8565b60408051601f198184030181529082905262461bcd60e51b825261047991600401614785565b612dba828261163f565b610a455760008281526001602081815260408084206001600160a01b0386168086529252808420805460ff19169093179092559051339285917f2f8788117e7eff1d82e926ec794901d17c78024a50270940304540a733656f0d9190a45050565b612e25828261163f565b15610a455760008281526001602090815260408083206001600160a01b0385168085529252808320805460ff1916905551339285917ff6391f5c32d9c69d2a47ea670b442974b53935d1edc7fd64eb21e047a839171b9190a45050565b856000612e8e866137be565b905060008484604051602001612ea59291906146b8565b60408051808303601f19018152908290528051602090910120600b5462491fcf60e11b8352600483018690529092506001600160a01b03169062923f9e9060240160206040518083038186803b158015612efe57600080fd5b505afa158015612f12573d6000803e3d6000fd5b505050506040513d601f19601f82011682018060405250810190612f369190614665565b15612f835760405162461bcd60e51b815260206004820152601f60248201527f433a43523a417373657420746f6b656e20616c726561647920657869737473006044820152606401610479565b816000015160ff1660011480612fa05750816000015160ff166002145b80612fb25750816000015160ff166004145b6130355760405162461bcd60e51b815260206004820152604860248201527f433a43523a43616e6e6f7420637265617465206173736574202d20636f6e747260448201527f616374206e6f7420617574686f72697a656420666f72206e6f646520637573746064820152676f6479207479706560c01b608482015260a401610479565b600754604051636ece1f4360e01b815263ffffffff89166004820152600860248201526000916001600160a01b031690636ece1f439060440160206040518083038186803b15801561308657600080fd5b505afa15801561309a573d6000803e3d6000fd5b505050506040513d601f19601f820116820180604052508101906130be9190614665565b61314a57600d546040516331a9108f60e11b815263ffffffff8a1660048201526001600160a01b0390911690636352211e9060240160206040518083038186803b15801561310b57600080fd5b505afa15801561311f573d6000803e3d6000fd5b505050506040513d601f19601f820116820180604052508101906131439190614084565b9050613164565b826000015160ff1660011415613161575030613164565b50335b600b546040516354a19c2b60e01b81526001600160a01b03909116906354a19c2b9061319a90849088908b908b9060040161473d565b602060405180830381600087803b1580156131b457600080fd5b505af11580156131c8573d6000803e3d6000fd5b505050506040513d601f19601f820116820180604052508101906131ec9190614665565b5060035460405163a85d2bef60e01b8152600481018c9052602481018b90526044810184905263ffffffff808b166064830152891660848201526001600160a01b039091169063a85d2bef9060a401600060405180830381600087803b15801561325557600080fd5b505af1158015613269573d6000803e3d6000fd5b5050505050505050505050505050565b60025460ff166132c25760405162461bcd60e51b815260206004820152601460248201527314185d5cd8589b194e881b9bdd081c185d5cd95960621b6044820152606401610479565b6002805460ff191690557f5db9ee0a495bf2e6ff9c91a7834c1ba4fdd244a5e8aa4e537bd38aeae4b073aa335b6040516001600160a01b03909116815260200160405180910390a1565b60025460ff161561332f5760405162461bcd60e51b815260040161047990614888565b6003546101608201518251608084015160a085015160208601516040808801519051631e21309760e11b8152600481018a9052602481019690965260ff948516604487015263ffffffff93841660648701529290911660848501529190911660a483015261ffff1660c48201526001600160a01b0390911690633c42612e9060e401612d16565b60025460ff16156133d95760405162461bcd60e51b815260040161047990614888565b6002805460ff191660011790557f62e78cea01bee320cd4e420270b5ea74000d11b0c9f74754ebdbfc544b05a2586132ef3390565b60008160ff1660031415801561342857508160ff16600414155b801561343857508160ff16603514155b801561280657508160ff1660361461281357506000919050565b61345a613f0d565b60075460405163f45c157d60e01b815263ffffffff841660048201526001600160a01b039091169063f45c157d9060240160006040518083038186803b1580156134a357600080fd5b505afa1580156134b7573d6000803e3d6000fd5b505050506040513d6000823e601f3d908101601f1916820160405261073091908101906144a2565b60025460ff16156135025760405162461bcd60e51b815260040161047990614888565b80516001600160a01b031661356b5760405162461bcd60e51b815260206004820152602960248201527f433a44503a20726f6f74207061796d656e742061646472657373203d207a65726044820152686f206164647265737360b81b6064820152608401610479565b60208101516001600160a01b031661358e5780516001600160a01b031660208201525b6009548151604080840151602085015160608601518351631cc1e17360e31b81523360048201526001600160a01b0395861660248201526044810193909352908416606483015260848201529051919092169163e60f0b989160a480830192600092919082900301818387803b15801561360757600080fd5b505af115801561361b573d6000803e3d6000fd5b5050505050565b606060006136318360026149c1565b61363c906002614987565b67ffffffffffffffff81111561365457613654614ab2565b6040519080825280601f01601f19166020018201604052801561367e576020820181803683370190505b509050600360fc1b8160008151811061369957613699614a9c565b60200101906001600160f81b031916908160001a905350600f60fb1b816001815181106136c8576136c8614a9c565b60200101906001600160f81b031916908160001a90535060006136ec8460026149c1565b6136f7906001614987565b90505b600181111561376f576f181899199a1a9b1b9c1cb0b131b232b360811b85600f166010811061372b5761372b614a9c565b1a60f81b82828151811061374157613741614a9c565b60200101906001600160f81b031916908160001a90535060049490941c9361376881614a6f565b90506136fa565b5083156126ff5760405162461bcd60e51b815260206004820181905260248201527f537472696e67733a20686578206c656e67746820696e73756666696369656e746044820152606401610479565b6137c6613f0d565b6137cf82613452565b9050806000015160ff166003141561384f5760405162461bcd60e51b815260206004820152603a60248201527f433a474e495741433a43616e6e6f742063726561746520617373657420696e2060448201527f6120726f6f74206e6f64652028637573746f64795479706533290000000000006064820152608401610479565b60075460208201516040516376faa3cb60e11b815260ff90911660048201526000916001600160a01b03169063edf547969060240160206040518083038186803b15801561389c57600080fd5b505afa1580156138b0573d6000803e3d6000fd5b505050506040513d601f19601f820116820180604052508101906138d4919061469b565b60ff161161392e5760405162461bcd60e51b815260206004820152602160248201527f433a474e495741433a20496e76616c6964206d616e6167656d656e74207479706044820152606560f81b6064820152608401610479565b602081015160ff1661398d5760405162461bcd60e51b815260206004820152602260248201527f433a474e495741433a2043616e6e6f74206d696e7420696e20726f6f74206e6f604482015261646560f01b6064820152608401610479565b806020015160ff1660ff1415613a0b5760405162461bcd60e51b815260206004820152603760248201527f433a474e495741433a2043616e6e6f74206d696e74207769746820756e70726f60448201527f766973696f6e6564206f72206c6f636b6564206e6f64650000000000000000006064820152608401610479565b613a1a81606001516007613e66565b1580613ae957506007546040516bffffffffffffffffffffffff193360601b1660208201526001600160a01b0390911690639d2c7cee9060340160408051601f198184030181529082905280516020909101206001600160e01b031960e084901b168252600482015263ffffffff8516602482015260440160206040518083038186803b158015613aaa57600080fd5b505afa158015613abe573d6000803e3d6000fd5b505050506040513d601f19601f82011682018060405250810190613ae2919061469b565b60ff166001145b613b415760405162461bcd60e51b8152602060048201526024808201527f433a474e495741433a2043616c6c6572206e6f7420617574686f72697a6564206044820152633ab9b2b960e11b6064820152608401610479565b613b5081606001516007613e66565b60011480613bea575033600d546040516331a9108f60e11b815263ffffffff851660048201526001600160a01b039283169290911690636352211e9060240160206040518083038186803b158015613ba757600080fd5b505afa158015613bbb573d6000803e3d6000fd5b505050506040513d601f19601f82011682018060405250810190613bdf9190614084565b6001600160a01b0316145b613c2e5760405162461bcd60e51b8152602060048201526015602482015274086748e9c92ae8286744086c2d8d8cae440429ca89605b1b6044820152606401610479565b613c3d81606001516006613e66565b6001141561281b57600754604051639edaf4a760e01b815263ffffffff841660048201526000916001600160a01b031690639edaf4a79060240160e06040518083038186803b158015613c8f57600080fd5b505afa158015613ca3573d6000803e3d6000fd5b505050506040513d601f19601f82011682018060405250810190613cc79190614379565b90508060a001516001600160a01b0316636352211e8260c001516040518263ffffffff1660e01b8152600401613cff91815260200190565b60206040518083038186803b158015613d1757600080fd5b505afa158015613d2b573d6000803e3d6000fd5b505050506040513d601f19601f82011682018060405250810190613d4f9190614084565b600d546040516331a9108f60e11b815263ffffffff861660048201526001600160a01b039283169290911690636352211e9060240160206040518083038186803b158015613d9c57600080fd5b505afa158015613db0573d6000803e3d6000fd5b505050506040513d601f19601f82011682018060405250810190613dd49190614084565b6001600160a01b031614613e605760405162461bcd60e51b815260206004820152604760248201527f433a474e495741433a204e6f646520616e6420726f6f74206f66206964656e7460448201527f6974792061726520736561706172617465642e204d696e74696e6720697320646064820152661a5cd8589b195960ca1b608482015260a401610479565b50919050565b6000808260ff16118015613e7d575060098260ff16105b613ede5760405162461bcd60e51b815260206004820152602c60248201527f4e533a4753413a2062697420706f736974696f6e206d7573742062652062657460448201526b0eecacadc406240c2dcc840760a31b6064820152608401610479565b6000613eeb600184614a1c565b60ff166001901b8460ff16161115613f0557506001610730565b506000610730565b604080516101408101825260008082526020820181905291810182905260608082018390526080820183905260a0820183905260c0820183905260e0820183905261010082019290925261012081019190915290565b805161281b81614ac8565b60008083601f840112613f8057600080fd5b50813567ffffffffffffffff811115613f9857600080fd5b602083019150836020828501011115613fb057600080fd5b9250929050565b600082601f830112613fc857600080fd5b815167ffffffffffffffff80821115613fe357613fe3614ab2565b604051601f8301601f19908116603f0116810190828211818310171561400b5761400b614ab2565b8160405283815286602085880101111561402457600080fd5b614035846020830160208901614a3f565b9695505050505050565b805161ffff8116811461281b57600080fd5b805161281b81614ae0565b805161281b81614af2565b60006020828403121561407957600080fd5b81356126ff81614ac8565b60006020828403121561409657600080fd5b81516126ff81614ac8565b6000806000606084860312156140b657600080fd5b83356140c181614ac8565b925060208401356140d181614ac8565b929592945050506040919091013590565b6000806000806000608086880312156140fa57600080fd5b853561410581614ac8565b9450602086013561411581614ac8565b935060408601359250606086013567ffffffffffffffff81111561413857600080fd5b61414488828901613f6e565b969995985093965092949392505050565b6000806040838503121561416857600080fd5b823561417381614ac8565b946020939093013593505050565b60006020828403121561419357600080fd5b815180151581146126ff57600080fd5b6000602082840312156141b557600080fd5b5035919050565b600080604083850312156141cf57600080fd5b8235915060208301356141e181614ac8565b809150509250929050565b600080604083850312156141ff57600080fd5b50508035926020909101359150565b60008060006060848603121561422357600080fd5b505081359360208301359350604090920135919050565b6000806000806080858703121561425057600080fd5b5050823594602084013594506040840135936060013592509050565b60008060006060848603121561428157600080fd5b8335925060208401359150604084013561429a81614ae0565b809150509250925092565b60008060008060008060a087890312156142be57600080fd5b863595506020870135945060408701356142d781614ae0565b935060608701356142e781614ae0565b9250608087013567ffffffffffffffff81111561430357600080fd5b61430f89828a01613f6e565b979a9699509497509295939492505050565b60008060006060848603121561433657600080fd5b8335925060208401359150604084013561429a81614af2565b60006020828403121561436157600080fd5b81356001600160e01b0319811681146126ff57600080fd5b600060e0828403121561438b57600080fd5b60405160e0810181811067ffffffffffffffff821117156143ae576143ae614ab2565b60405282516143bc81614af2565b815260208301516143cc81614af2565b60208201526143dd6040840161403f565b604082015260608301516143f081614ae0565b6060820152608083015161440381614ae0565b608082015261441460a08401613f63565b60a082015260c083015160c08201528091505092915050565b60006080828403121561443f57600080fd5b6040516080810181811067ffffffffffffffff8211171561446257614462614ab2565b604052825161447081614ac8565b8152602083015161448081614ac8565b6020820152604083810151908201526060928301519281019290925250919050565b6000602082840312156144b457600080fd5b815167ffffffffffffffff808211156144cc57600080fd5b9083019061014082860312156144e157600080fd5b6144e9614939565b6144f28361405c565b81526145006020840161405c565b60208201526145116040840161405c565b60408201526145226060840161405c565b606082015261453360808401614051565b608082015261454460a08401614051565b60a082015261455560c08401613f63565b60c082015260e083015160e0820152610100808401518183015250610120808401518381111561458457600080fd5b61459088828701613fb7565b918301919091525095945050505050565b600061018082840312156145b457600080fd5b6145bc614963565b6145c58361405c565b81526145d36020840161405c565b60208201526145e46040840161403f565b60408201526145f560608401614051565b606082015261460660808401614051565b608082015261461760a08401614051565b60a082015260c0838101519082015260e08084015190820152610100808401519082015261012080840151908201526101408084015190820152610160928301519281019290925250919050565b60006020828403121561467757600080fd5b5051919050565b60006020828403121561469057600080fd5b81516126ff81614ae0565b6000602082840312156146ad57600080fd5b81516126ff81614af2565b8183823760009101908152919050565b7f416363657373436f6e74726f6c3a206163636f756e7420000000000000000000815260008351614700816017850160208801614a3f565b7001034b99036b4b9b9b4b733903937b6329607d1b6017918401918201528351614731816028840160208801614a3f565b01602801949350505050565b6001600160a01b0385168152602081018490526060604082018190528101829052818360808301376000818301608090810191909152601f909201601f191601019392505050565b60208152600082518060208401526147a4816040850160208701614a3f565b601f01601f19169190910160400192915050565b60208082526027908201527f423a4d4f443a2d4941444d2043616c6c65722021434f4e54524143545f41444d604082015266494e5f524f4c4560c81b606082015260800190565b60208082526023908201527f423a4d4f443a2d4941444d2043616c6c6572202141535345545f545846525f526040820152624f4c4560e81b606082015260800190565b60208082526026908201527f423a4d4f442d49503a43616c6c696e672061646472657373206973206e6f74206040820152653830bab9b2b960d11b606082015260800190565b60208082526010908201526f14185d5cd8589b194e881c185d5cd95960821b604082015260600190565b60208082526030908201527f413a4d4f442d49413a20437573746f6469616c20636f6e747261637420646f6560408201526f39903737ba103437b632103a37b5b2b760811b606082015260800190565b6020808252601f908201527f5265656e7472616e637947756172643a207265656e7472616e742063616c6c00604082015260600190565b604051610140810167ffffffffffffffff8111828210171561495d5761495d614ab2565b60405290565b604051610180810167ffffffffffffffff8111828210171561495d5761495d614ab2565b6000821982111561499a5761499a614a86565b500190565b6000826149bc57634e487b7160e01b600052601260045260246000fd5b500490565b60008160001904831182151516156149db576149db614a86565b500290565b6000828210156149f2576149f2614a86565b500390565b600063ffffffff83811690831681811015614a1457614a14614a86565b039392505050565b600060ff821660ff841680821015614a3657614a36614a86565b90039392505050565b60005b83811015614a5a578181015183820152602001614a42565b83811115614a69576000848401525b50505050565b600081614a7e57614a7e614a86565b506000190190565b634e487b7160e01b600052601160045260246000fd5b634e487b7160e01b600052603260045260246000fd5b634e487b7160e01b600052604160045260246000fd5b6001600160a01b0381168114614add57600080fd5b50565b63ffffffff81168114614add57600080fd5b60ff81168114614add57600080fdfe7f1e4e9f3d9ba0452a25cfef4cd4c6ffc86158d06ed2f585fa0093e12dec429ca26469706673582212202d29b57afa6e80b6a77d1c7d31071064469f80354d2b96f0aed3e867713036b264736f6c63430008070033",
  "immutableReferences": {},
  "source": "/*--------------------------------------------------------PRF0.8.7\n__/\\\\\\\\\\\\\\\\\\\\\\\\\\ _____/\\\\\\\\\\\\\\\\\\ _______/\\\\__/\\\\ ___/\\\\\\\\\\\\\\\\\\\\\\\\\\\\\\        \n__\\/\\\\\\/////////\\\\\\ _/\\\\\\///////\\\\\\ ____\\//__\\//____\\/\\\\\\///////////__       \n___\\/\\\\\\_______\\/\\\\\\_\\/\\\\\\_____\\/\\\\\\ ________________\\/\\\\\\ ____________      \n____\\/\\\\\\\\\\\\\\\\\\\\\\\\\\/__\\/\\\\\\\\\\\\\\\\\\\\\\/_____/\\\\\\____/\\\\\\_\\/\\\\\\\\\\\\\\\\\\\\\\ ____     \n_____\\/\\\\\\/////////____\\/\\\\\\//////\\\\\\ ___\\/\\\\\\___\\/\\\\\\_\\/\\\\\\///////______\n______\\/\\\\\\ ____________\\/\\\\\\ ___\\//\\\\\\ __\\/\\\\\\___\\/\\\\\\_\\/\\\\\\ ____________\n_______\\/\\\\\\ ____________\\/\\\\\\ ____\\//\\\\\\ _\\/\\\\\\___\\/\\\\\\_\\/\\\\\\ ____________\n________\\/\\\\\\ ____________\\/\\\\\\ _____\\//\\\\\\_\\//\\\\\\\\\\\\\\\\\\ _\\/\\\\\\ ____________\n_________\\/// _____________\\/// _______\\/// __\\///////// __\\/// _____________\n*---------------------------------------------------------------------------*/\n\n/*-----------------------------------------------------------------\n * Custodial Application for PRuF Asset management\n *----------------------------------------------------------------*/\n\n// SPDX-License-Identifier: UNLICENSED\npragma solidity ^0.8.7;\n\nimport \"../Resources/PRUF_CORE.sol\";\n\ncontract APP is CORE {\n    bytes32 public constant B320xF_ =\n        0xFFFFFFFFFFFFFFFFFFFFFFFFFFFFFFFFFFFFFFFFFFFFFFFFFFFFFFFFFFFFFFFF;\n\n    /**\n     * Checks that contract holds token\n     * @param _idxHash - idxHash of asset to compare to caller for authority\n     */\n    modifier isAuthorized(bytes32 _idxHash) override {\n        uint256 tokenId = uint256(_idxHash);\n        require( //require that user is authorized and token is held by contract\n            (A_TKN.ownerOf(tokenId) == address(this)),\n            \"A:MOD-IA: Custodial contract does not hold token\"\n        );\n        _;\n    }\n\n    //--------------------------------------------External Functions--------------------------\n\n    /** //DPS:CHECK\n     * @dev Creates a new record\n     * @param _idxHash - hash of asset information created by frontend inputs\n     * @param _rgtHash - hash of rightsholder information created by frontend inputs\n     * @param _node - node the asset will be created in\n     * @param _countDownStart - decremental counter for an assets lifecycle\n     */\n    function newRecord(\n        bytes32 _idxHash,\n        bytes32 _rgtHash,\n        uint32 _node,\n        uint32 _countDownStart,\n        string calldata _URIsuffix\n    ) external nonReentrant whenNotPaused {\n        bytes32 idxHash = keccak256(abi.encodePacked(_idxHash, _node)); //hash idxRaw with node to get idxHash \n        uint8 userType = getCallingUserType(_node);\n\n        require((userType > 0) && (userType < 10), \"A:NR: User !auth in node\");\n        require(userType < 5, \"A:NR: User !authorized to create records\");\n        //^^^^^^^checks^^^^^^^^^\n\n        createRecord(idxHash, _rgtHash, _node, _countDownStart, _URIsuffix);\n        deductServiceCosts(_node, 1);\n        //^^^^^^^interactions^^^^^^^^^\n    }\n\n    /**\n     * @dev Modify rec.rightsHolder\n     * @param _idxHash - hash of asset information created by frontend inputs\n     * @param _rgtHash - hash of new rightsholder information created by frontend inputs\n     */\n    function forceModifyRecord(bytes32 _idxHash, bytes32 _rgtHash)\n        external\n        nonReentrant\n        whenNotPaused\n        isAuthorized(_idxHash)\n    {\n        Record memory rec = getRecord(_idxHash);\n        uint8 userType = getCallingUserType(rec.node);\n\n        require(userType == 1, \"A:FMR: User !auth in node\");\n        require(\n            isLostOrStolen(rec.assetStatus) == 0,\n            \"A:FMR: Asset marked L/S\"\n        );\n        require( //impossible to reach with current contracts, APP needs to hold token\n            needsImport(rec.assetStatus) == 0,\n            \"A:FMR: Asset needs re-imported\"\n        );\n        //^^^^^^^checks^^^^^^^^^\n\n        rec.modCount = 170;\n        rec.numberOfTransfers = 170;\n        rec.assetStatus = 0;\n        rec.rightsHolder = _rgtHash;\n        //^^^^^^^effects^^^^^^^^^\n\n        writeRecord(_idxHash, rec);\n        deductServiceCosts(rec.node, 6);\n        //^^^^^^^interactions^^^^^^^^^\n    }\n\n    /**\n     * @dev Transfer rights to new rightsHolder with confirmation of matching rgthash\n     * @param _idxHash - hash of asset information created by frontend inputs\n     * @param _rgtHash - hash of rightsholder information created by frontend inputs\n     * @param _newrgtHash - hash of targeted reciever information created by frontend inputs\n     */\n    function transferAsset(\n        bytes32 _idxHash,\n        bytes32 _rgtHash,\n        bytes32 _newrgtHash\n    ) external nonReentrant whenNotPaused isAuthorized(_idxHash) {\n        Record memory rec = getRecord(_idxHash);\n        uint8 userType = getCallingUserType(rec.node);\n\n        require(\n            (userType > 0) && (userType < 10),\n            \"A:TA: User not auth in node\"\n        );\n        require(\n            (rec.assetStatus > 49) || (userType < 5),\n            \"A:TA:Only usertype < 5 can change status < 50\"\n        );\n        require(\n            (rec.assetStatus == 1) || (rec.assetStatus == 51),\n            \"A:TA:Asset status != transferrable\"\n        );\n        require(\n            rec.rightsHolder == _rgtHash,\n            \"A:TA:Rightsholder does not match supplied data\"\n        );\n        //^^^^^^^checks^^^^^^^^^\n\n        rec.numberOfTransfers = 170;\n\n        if (_newrgtHash == 0x0) {\n            //set to transferred status\n            rec.assetStatus = 5;\n            _newrgtHash = B320xF_;\n        }\n\n        rec.rightsHolder = _newrgtHash;\n        //^^^^^^^effects^^^^^^^^^\n\n        writeRecord(_idxHash, rec);\n        deductServiceCosts(rec.node, 2);\n        //^^^^^^^interactions^^^^^^^^^\n    }\n\n    /** //DPS:TEST:NEW PARAMS\n     * @dev Modify **Record** NonMutableStorage with confirmation of matching rgthash\n     * @param _idxHash - hash of asset information created by frontend inputs\n     * @param _rgtHash - hash of rightsholder information created by frontend inputs\n     * @param _nonMutableStorage1 - field for permanent external asset data\n     * @param _nonMutableStorage2 - field for permanent external asset data\n     */\n    function addNonMutableStorage(\n        bytes32 _idxHash,\n        bytes32 _rgtHash,\n        bytes32 _nonMutableStorage1,\n        bytes32 _nonMutableStorage2\n    ) external nonReentrant whenNotPaused isAuthorized(_idxHash) {\n        Record memory rec = getRecord(_idxHash);\n        uint8 userType = getCallingUserType(rec.node);\n\n        require(\n            (userType > 0) && (userType < 10),\n            \"A:I2: User not auth in node\"\n        );\n\n        require( //impossible to reach with current contracts, APP needs to hold token\n            needsImport(rec.assetStatus) == 0,\n            \"A:I2: Asset needs re-imported\"\n        );\n        require(\n            rec.rightsHolder == _rgtHash,\n            \"A:I2: Rightsholder does not match supplied data\"\n        );\n        //^^^^^^^checks^^^^^^^^^\n\n        rec.nonMutableStorage1 = _nonMutableStorage1;\n        rec.nonMutableStorage2 = _nonMutableStorage2;\n        //^^^^^^^effects^^^^^^^^^\n\n        writeNonMutableStorage(_idxHash, rec);\n        deductServiceCosts(rec.node, 3);\n        //^^^^^^^interactions^^^^^^^^^\n    }\n\n    /**\n     * @dev Transfer any specified assetToken from contract\n     * @param _to - address to send to\n     * @param _idxHash - asset index\n     */\n    function transferAssetToken(address _to, bytes32 _idxHash)\n        external\n        nonReentrant\n    {\n        require(\n            hasRole(ASSET_TXFR_ROLE, _msgSender()),\n            \"B:TX:Must have ASSET_TXFR_ROLE\"\n        );\n        //^^^^^^^checks^^^^^^^^^\n\n        uint256 tokenId = uint256(_idxHash);\n\n        A_TKN.safeTransferFrom(address(this), _to, tokenId);\n        //^^^^^^^interactions^^^^^^^^^\n    }\n\n    /**\n     * @dev Modify **Record**.assetStatus with confirmation of matching rgthash required\n     * @param _idxHash asset to moidify\n     * @param _rgtHash rgthash to match in front end\n     * @param _newAssetStatus updated status\n     */\n    function modifyStatus(\n        bytes32 _idxHash,\n        bytes32 _rgtHash,\n        uint8 _newAssetStatus\n    ) external nonReentrant whenNotPaused isAuthorized(_idxHash) {\n        Record memory rec = getRecord(_idxHash);\n        uint8 userType = getCallingUserType(rec.node);\n\n        require(\n            (userType > 0) && (userType < 10),\n            \"APP:MS: User !auth in node\"\n        );\n        require(\n            (_newAssetStatus != 7) &&\n                (_newAssetStatus != 57) &&\n                (_newAssetStatus != 58) &&\n                (_newAssetStatus < 100),\n            \"APP:MS: Stat Rsrvd\"\n        );\n        require(\n            needsImport(_newAssetStatus) == 0,\n            \"APP:MS: Cannot place asset in unregistered, exported, or discarded status using modifyStatus\"\n        );\n        require(\n            needsImport(rec.assetStatus) == 0,\n            \"APP:MS: Record in unregistered, exported, or discarded status\"\n        );\n        require(\n            (rec.assetStatus > 49) || (userType < 5),\n            \"APP:MS: Only usertype < 5 can change status < 49\"\n        );\n        require(\n            rec.rightsHolder == _rgtHash,\n            \"APP:MS: Rightsholder does not match supplied data\"\n        );\n        //^^^^^^^checks^^^^^^^^^\n\n        rec.assetStatus = _newAssetStatus;\n        //^^^^^^^effects^^^^^^^^^\n\n        writeRecord(_idxHash, rec);\n        //^^^^^^^interactions^^^^^^^^^\n    }\n\n    /**\n     * @dev set **Record**.assetStatus to lost or stolen, with confirmation of matching rgthash required\n     * @param _idxHash asset to moidify\n     * @param _rgtHash rgthash to match in front end\n     * @param _newAssetStatus updated status\n     */\n    function setLostOrStolen(\n        bytes32 _idxHash,\n        bytes32 _rgtHash,\n        uint8 _newAssetStatus\n    ) external nonReentrant whenNotPaused isAuthorized(_idxHash) {\n        Record memory rec = getRecord(_idxHash);\n        uint8 userType = getCallingUserType(rec.node);\n        require(\n            (userType > 0) && (userType < 10),\n            \"APP:SLS: User !auth in node\"\n        );\n        require(\n            (rec.assetStatus > 49) ||\n                ((_newAssetStatus < 50) && (userType < 5)),\n            \"APP:SLS: Only usertype <5 can change a <49 status asset to a >49 status\"\n        );\n        require(\n            rec.rightsHolder == _rgtHash,\n            \"APP:SLS: Rightsholder does not match supplied data\"\n        );\n        //^^^^^^^checks^^^^^^^^^\n\n        rec.assetStatus = _newAssetStatus;\n        //^^^^^^^effects^^^^^^^^^\n\n        STOR.setLostOrStolen(_idxHash, rec.assetStatus);\n        //^^^^^^^interactions^^^^^^^^^\n    }\n\n    /**\n     * @dev Decrement **Record**.countdown with confirmation of matching rgthash required\n     * @param _idxHash asset to moidify\n     * @param _rgtHash rgthash to match in front end\n     * @param _decAmount amount to decrement\n     */\n    function decrementCounter(\n        bytes32 _idxHash,\n        bytes32 _rgtHash,\n        uint32 _decAmount\n    ) external nonReentrant whenNotPaused isAuthorized(_idxHash) {\n        Record memory rec = getRecord(_idxHash);\n        uint8 userType = getCallingUserType(rec.node);\n\n        require(\n            (userType > 0) && (userType < 10),\n            \"APP:DC: User !auth in node\"\n        );\n        require(\n            needsImport(rec.assetStatus) == 0,\n            \"APP:DC Record in unregistered, exported, or discarded status\"\n        );\n        require(\n            rec.rightsHolder == _rgtHash,\n            \"APP:DC: Rightsholder does not match supplied data\"\n        );\n        //^^^^^^^checks^^^^^^^^^\n\n        if (rec.countDown > _decAmount) {\n            rec.countDown = rec.countDown - _decAmount;\n        } else {\n            rec.countDown = 0;\n        }\n        //^^^^^^^effects^^^^^^^^^\n\n        writeRecord(_idxHash, rec);\n        deductServiceCosts(rec.node, 7);\n        //^^^^^^^interactions^^^^^^^^^\n    }\n\n    /**\n     * @dev Modify rec.MutableStorage field with rghHash confirmation\n     * @param _idxHash idx of asset to Modify\n     * @param _rgtHash rgthash to match in front end\n     * @param _mutableStorage1 content adressable storage adress part 1\n     * @param _mutableStorage2 content adressable storage adress part 2\n     */\n    function modifyMutableStorage(\n        bytes32 _idxHash,\n        bytes32 _rgtHash,\n        bytes32 _mutableStorage1,\n        bytes32 _mutableStorage2\n    ) external nonReentrant whenNotPaused isAuthorized(_idxHash) {\n        Record memory rec = getRecord(_idxHash);\n        uint8 userType = getCallingUserType(rec.node);\n        require(\n            (userType > 0) && (userType < 10),\n            \"APP:MMS: User !auth in node\"\n        );\n        require(\n            needsImport(rec.assetStatus) == 0,\n            \"APP:MMS: Record in unregistered, exported, or discarded status\"\n        );\n        require(\n            rec.rightsHolder == _rgtHash,\n            \"APP:MMS: Rightsholder does not match supplied data\"\n        );\n        //^^^^^^^checks^^^^^^^^^\n\n        rec.mutableStorage1 = _mutableStorage1;\n        rec.mutableStorage2 = _mutableStorage2;\n        //^^^^^^^effects^^^^^^^^^\n\n        writeMutableStorage(_idxHash, rec);\n        deductServiceCosts(rec.node, 8);\n        //^^^^^^^interactions^^^^^^^^^\n    }\n\n    // /** //import & export have been slated for reevaluation\n    //  * @dev import Rercord, must match export node\n    //  * posessor is considered to be owner. sets rec.assetStatus to 0.\n    //  * @param _idxHash - hash of asset information created by frontend inputs\n    //  * @param _newNode - node the asset will be imported into\n    //  */\n    // function importAsset(bytes32 _idxHash, uint32 _newNode)\n    //     external\n    //     nonReentrant\n    //     whenNotPaused\n    //     isAuthorized(_idxHash) ///contract holds token (user sent to contract)\n    // {\n    //     Record memory rec = getRecord(_idxHash);\n    //     uint8 userType = getCallingUserType(_newNode);\n\n    //     require(userType < 3, \"A:IA: User !authorized to import assets\");\n    //     require((userType > 0) && (userType < 10), \"A:IA: User !auth in node\");\n    //     require(\n    //         (rec.assetStatus == 5) ||\n    //             (rec.assetStatus == 55) ||\n    //             (rec.assetStatus == 70),\n    //         \"A:IA: Only Transferred or exported assets can be imported\"\n    //     );\n    //     require(\n    //         _newNode == rec.int32temp,\n    //         \"A:IA: new node must match node authorized for import\"\n    //     );\n    //     require(\n    //         NODE_STOR.isSameRootNode(_newNode, rec.node) == 170,\n    //         \"ANC:IA: Cannot change node to new root\"\n    //     );\n    //     //^^^^^^^checks^^^^^^^^^\n\n    //     rec.modCount = 170;\n    //     rec.assetStatus = 0;\n    //     //^^^^^^^effects^^^^^^^^^\n\n    //     STOR.changeNode(_idxHash, _newNode);\n    //     writeRecord(_idxHash, rec);\n    //     deductServiceCosts(_newNode, 1);\n    //     //^^^^^^^interactions^^^^^^^^^\n    // }\n\n    // /** //import & export have been slated for reevaluation\n    //  * @dev Export FROM Custodial - sets asset to status 70 (importable) for export\n    //  * @dev exportTo - sets asset to status 70 (importable) and defines the node that the item can be imported into\n    //  * @param _idxHash idx of asset to Modify\n    //  * @param _exportTo node target for export\n    //  * @param _addr adress to send asset to\n    //  * @param _rgtHash rgthash to match in front end\n    //  */\n    // function exportAssetTo(\n    //     bytes32 _idxHash,\n    //     uint32 _exportTo,\n    //     address _addr,\n    //     bytes32 _rgtHash\n    // ) external nonReentrant whenNotPaused isAuthorized(_idxHash) {\n    //     Record memory rec = getRecord(_idxHash);\n    //     uint8 userType = getCallingUserType(rec.node);\n\n    //     require(\n    //         (userType > 0) && (userType < 10),\n    //         \"APP:EA: user not auth in node\"\n    //     );\n    //     require( // require transferrable (51) status\n    //         (rec.assetStatus == 51) || (rec.assetStatus == 70),\n    //         \"APP:EA: Asset status must be 51 to export\"\n    //     );\n    //     require(\n    //         NODE_STOR.isSameRootNode(_exportTo, rec.node) == 170,\n    //         \"A:EA: Cannot export node to new root\"\n    //     );\n    //     require(\n    //         rec.rightsHolder == _rgtHash,\n    //         \"APP:EA: Rightsholder does not match supplied data\"\n    //     );\n    //     //^^^^^^^checks^^^^^^^^^\n\n    //     rec.assetStatus = 70; // Set status to 70 (exported)\n    //     rec.int32temp = _exportTo;\n    //     //^^^^^^^effects^^^^^^^^^\n\n    //     A_TKN.safeTransferFrom(address(this), _addr, uint256(_idxHash));\n    //     writeRecord(_idxHash, rec);\n    //     //^^^^^^^interactions^^^^^^^^^\n    // }\n}\n",
  "sourcePath": "/Users/drake/Documents/DEV/PRUF/PRUF_TRUFFLE/contracts/InProgress/PRUF_APP.sol",
  "compiler": {
    "name": "solc",
    "version": "0.8.7+commit.e28d00a7.Emscripten.clang"
  },
  "schemaVersion": "3.4.3",
  "updatedAt": "2021-10-26T17:58:03.981Z",
  "devdoc": {
    "kind": "dev",
    "methods": {
      "ERC20Transfer(address,address,uint256)": {
        "details": "send an ERC20 token from this contract",
        "params": {
          "_amount": "amount to transfer",
          "_to": "destination",
          "_tokenContract": "Address of foreign token contract"
        }
      },
      "ERC721Transfer(address,address,uint256)": {
        "details": "send an ERC721 token from this contract",
        "params": {
          "_to": "destination",
          "_tokenContract": "Address of foreign token contract",
          "_tokenID": "Token ID"
        }
      },
      "addNonMutableStorage(bytes32,bytes32,bytes32,bytes32)": {
        "details": "Modify **Record** NonMutableStorage with confirmation of matching rgthash",
        "params": {
          "_idxHash": "- hash of asset information created by frontend inputs",
          "_nonMutableStorage1": "- field for permanent external asset data",
          "_nonMutableStorage2": "- field for permanent external asset data",
          "_rgtHash": "- hash of rightsholder information created by frontend inputs"
        }
      },
      "decrementCounter(bytes32,bytes32,uint32)": {
        "details": "Decrement **Record**.countdown with confirmation of matching rgthash required",
        "params": {
          "_decAmount": "amount to decrement",
          "_idxHash": "asset to moidify",
          "_rgtHash": "rgthash to match in front end"
        }
      },
      "forceModifyRecord(bytes32,bytes32)": {
        "details": "Modify rec.rightsHolder",
        "params": {
          "_idxHash": "- hash of asset information created by frontend inputs",
          "_rgtHash": "- hash of new rightsholder information created by frontend inputs"
        }
      },
      "getRoleAdmin(bytes32)": {
        "details": "Returns the admin role that controls `role`. See {grantRole} and {revokeRole}. To change a role's admin, use {_setRoleAdmin}."
      },
      "grantRole(bytes32,address)": {
        "details": "Grants `role` to `account`. If `account` had not been already granted `role`, emits a {RoleGranted} event. Requirements: - the caller must have ``role``'s admin role."
      },
      "hasRole(bytes32,address)": {
        "details": "Returns `true` if `account` has been granted `role`."
      },
      "modifyMutableStorage(bytes32,bytes32,bytes32,bytes32)": {
        "details": "Modify rec.MutableStorage field with rghHash confirmation",
        "params": {
          "_idxHash": "idx of asset to Modify",
          "_mutableStorage1": "content adressable storage adress part 1",
          "_mutableStorage2": "content adressable storage adress part 2",
          "_rgtHash": "rgthash to match in front end"
        }
      },
      "modifyStatus(bytes32,bytes32,uint8)": {
        "details": "Modify **Record**.assetStatus with confirmation of matching rgthash required",
        "params": {
          "_idxHash": "asset to moidify",
          "_newAssetStatus": "updated status",
          "_rgtHash": "rgthash to match in front end"
        }
      },
      "newRecord(bytes32,bytes32,uint32,uint32,string)": {
        "details": "Creates a new record",
        "params": {
          "_countDownStart": "- decremental counter for an assets lifecycle",
          "_idxHash": "- hash of asset information created by frontend inputs",
          "_node": "- node the asset will be created in",
          "_rgtHash": "- hash of rightsholder information created by frontend inputs"
        }
      },
      "onERC721Received(address,address,uint256,bytes)": {
        "details": "Compliance for erc721 reciever See OZ documentation"
      },
      "paused()": {
        "details": "Returns true if the contract is paused, and false otherwise."
      },
      "renounceRole(bytes32,address)": {
        "details": "Revokes `role` from the calling account. Roles are often managed via {grantRole} and {revokeRole}: this function's purpose is to provide a mechanism for accounts to lose their privileges if they are compromised (such as when a trusted device is misplaced). If the calling account had been granted `role`, emits a {RoleRevoked} event. Requirements: - the caller must be `account`."
      },
      "resolveContractAddresses()": {
        "details": "Resolve contract addresses from STOR"
      },
      "revokeRole(bytes32,address)": {
        "details": "Revokes `role` from `account`. If `account` had been granted `role`, emits a {RoleRevoked} event. Requirements: - the caller must have ``role``'s admin role."
      },
      "setLostOrStolen(bytes32,bytes32,uint8)": {
        "details": "set **Record**.assetStatus to lost or stolen, with confirmation of matching rgthash required",
        "params": {
          "_idxHash": "asset to moidify",
          "_newAssetStatus": "updated status",
          "_rgtHash": "rgthash to match in front end"
        }
      },
      "setStorageContract(address)": {
        "details": "Set address of STOR contract to interface with",
        "params": {
          "_storageAddress": "address of PRUF_STOR"
        }
      },
      "supportsInterface(bytes4)": {
        "details": "See {IERC165-supportsInterface}."
      },
      "transferAsset(bytes32,bytes32,bytes32)": {
        "details": "Transfer rights to new rightsHolder with confirmation of matching rgthash",
        "params": {
          "_idxHash": "- hash of asset information created by frontend inputs",
          "_newrgtHash": "- hash of targeted reciever information created by frontend inputs",
          "_rgtHash": "- hash of rightsholder information created by frontend inputs"
        }
      },
      "transferAssetToken(address,bytes32)": {
        "details": "Transfer any specified assetToken from contract",
        "params": {
          "_idxHash": "- asset index",
          "_to": "- address to send to"
        }
      }
    },
    "version": 1
  },
  "userdoc": {
    "kind": "user",
    "methods": {
      "addNonMutableStorage(bytes32,bytes32,bytes32,bytes32)": {
        "notice": "//DPS:TEST:NEW PARAMS"
      },
      "newRecord(bytes32,bytes32,uint32,uint32,string)": {
        "notice": "//DPS:CHECK"
      }
    },
    "version": 1
  }
}