{
  "contractName": "APP",
  "abi": [
    {
      "anonymous": false,
      "inputs": [
        {
          "indexed": true,
          "internalType": "address",
          "name": "previousOwner",
          "type": "address"
        },
        {
          "indexed": true,
          "internalType": "address",
          "name": "newOwner",
          "type": "address"
        }
      ],
      "name": "OwnershipTransferred",
      "type": "event"
    },
    {
      "anonymous": false,
      "inputs": [
        {
          "indexed": false,
          "internalType": "address",
          "name": "account",
          "type": "address"
        }
      ],
      "name": "Paused",
      "type": "event"
    },
    {
      "anonymous": false,
      "inputs": [
        {
          "indexed": false,
          "internalType": "string",
          "name": "_msg",
          "type": "string"
        }
      ],
      "name": "REPORT",
      "type": "event"
    },
    {
      "anonymous": false,
      "inputs": [
        {
          "indexed": false,
          "internalType": "address",
          "name": "account",
          "type": "address"
        }
      ],
      "name": "Unpaused",
      "type": "event"
    },
    {
      "inputs": [],
      "name": "$withdraw",
      "outputs": [],
      "stateMutability": "payable",
      "type": "function"
    },
    {
      "inputs": [],
      "name": "OO_pause",
      "outputs": [],
      "stateMutability": "nonpayable",
      "type": "function"
    },
    {
      "inputs": [],
      "name": "OO_resolveContractAddresses",
      "outputs": [],
      "stateMutability": "nonpayable",
      "type": "function"
    },
    {
      "inputs": [
        {
          "internalType": "address",
          "name": "_storageAddress",
          "type": "address"
        }
      ],
      "name": "OO_setStorageContract",
      "outputs": [],
      "stateMutability": "nonpayable",
      "type": "function"
    },
    {
      "inputs": [
        {
          "internalType": "address",
          "name": "_to",
          "type": "address"
        },
        {
          "internalType": "bytes32",
          "name": "_idxHash",
          "type": "bytes32"
        }
      ],
      "name": "OO_transferACToken",
      "outputs": [],
      "stateMutability": "nonpayable",
      "type": "function"
    },
    {
      "inputs": [],
      "name": "OO_unpause",
      "outputs": [],
      "stateMutability": "nonpayable",
      "type": "function"
    },
    {
      "inputs": [
        {
          "internalType": "address",
          "name": "",
          "type": "address"
        },
        {
          "internalType": "address",
          "name": "",
          "type": "address"
        },
        {
          "internalType": "uint256",
          "name": "",
          "type": "uint256"
        },
        {
          "internalType": "bytes",
          "name": "",
          "type": "bytes"
        }
      ],
      "name": "onERC721Received",
      "outputs": [
        {
          "internalType": "bytes4",
          "name": "",
          "type": "bytes4"
        }
      ],
      "stateMutability": "nonpayable",
      "type": "function"
    },
    {
      "inputs": [],
      "name": "owner",
      "outputs": [
        {
          "internalType": "address",
          "name": "",
          "type": "address"
        }
      ],
      "stateMutability": "view",
      "type": "function"
    },
    {
      "inputs": [],
      "name": "paused",
      "outputs": [
        {
          "internalType": "bool",
          "name": "",
          "type": "bool"
        }
      ],
      "stateMutability": "view",
      "type": "function"
    },
    {
      "inputs": [
        {
          "internalType": "address",
          "name": "dest",
          "type": "address"
        }
      ],
      "name": "payments",
      "outputs": [
        {
          "internalType": "uint256",
          "name": "",
          "type": "uint256"
        }
      ],
      "stateMutability": "view",
      "type": "function"
    },
    {
      "inputs": [],
      "name": "renounceOwnership",
      "outputs": [],
      "stateMutability": "nonpayable",
      "type": "function"
    },
    {
      "inputs": [
        {
          "internalType": "address",
          "name": "_to",
          "type": "address"
        },
        {
          "internalType": "bytes32",
          "name": "_idxHash",
          "type": "bytes32"
        }
      ],
      "name": "transferAssetToken",
      "outputs": [],
      "stateMutability": "nonpayable",
      "type": "function"
    },
    {
      "inputs": [
        {
          "internalType": "address",
          "name": "newOwner",
          "type": "address"
        }
      ],
      "name": "transferOwnership",
      "outputs": [],
      "stateMutability": "nonpayable",
      "type": "function"
    },
    {
      "inputs": [
        {
          "internalType": "address payable",
          "name": "payee",
          "type": "address"
        }
      ],
      "name": "withdrawPayments",
      "outputs": [],
      "stateMutability": "nonpayable",
      "type": "function"
    },
    {
      "inputs": [
        {
          "internalType": "bytes32",
          "name": "_idxHash",
          "type": "bytes32"
        },
        {
          "internalType": "bytes32",
          "name": "_rgtHash",
          "type": "bytes32"
        },
        {
          "internalType": "uint32",
          "name": "_assetClass",
          "type": "uint32"
        },
        {
          "internalType": "uint32",
          "name": "_countDownStart",
          "type": "uint32"
        }
      ],
      "name": "$newRecord",
      "outputs": [],
      "stateMutability": "payable",
      "type": "function"
    },
    {
      "inputs": [
        {
          "internalType": "bytes32",
          "name": "_idxHash",
          "type": "bytes32"
        },
        {
          "internalType": "bytes32",
          "name": "_newRgtHash",
          "type": "bytes32"
        },
        {
          "internalType": "uint32",
          "name": "_newAssetClass",
          "type": "uint32"
        }
      ],
      "name": "$importAsset",
      "outputs": [
        {
          "internalType": "uint8",
          "name": "",
          "type": "uint8"
        }
      ],
      "stateMutability": "payable",
      "type": "function"
    },
    {
      "inputs": [
        {
          "internalType": "bytes32",
          "name": "_idxHash",
          "type": "bytes32"
        },
        {
          "internalType": "bytes32",
          "name": "_rgtHash",
          "type": "bytes32"
        }
      ],
      "name": "$forceModRecord",
      "outputs": [
        {
          "internalType": "uint8",
          "name": "",
          "type": "uint8"
        }
      ],
      "stateMutability": "payable",
      "type": "function"
    },
    {
      "inputs": [
        {
          "internalType": "bytes32",
          "name": "_idxHash",
          "type": "bytes32"
        },
        {
          "internalType": "bytes32",
          "name": "_rgtHash",
          "type": "bytes32"
        },
        {
          "internalType": "bytes32",
          "name": "_newrgtHash",
          "type": "bytes32"
        }
      ],
      "name": "$transferAsset",
      "outputs": [
        {
          "internalType": "uint8",
          "name": "",
          "type": "uint8"
        }
      ],
      "stateMutability": "payable",
      "type": "function"
    },
    {
      "inputs": [
        {
          "internalType": "bytes32",
          "name": "_idxHash",
          "type": "bytes32"
        },
        {
          "internalType": "bytes32",
          "name": "_rgtHash",
          "type": "bytes32"
        },
        {
          "internalType": "bytes32",
          "name": "_IpfsHash",
          "type": "bytes32"
        }
      ],
      "name": "$addIpfs2Note",
      "outputs": [
        {
          "internalType": "bytes32",
          "name": "",
          "type": "bytes32"
        }
      ],
      "stateMutability": "payable",
      "type": "function"
    }
  ],
  "bytecode": "0x60806040523480156200001157600080fd5b506040516200002090620000d1565b604051809103906000f0801580156200003d573d6000803e3d6000fd5b50600080546001600160a01b0319166001600160a01b0392909216919091178155600180556200006c620000cd565b600280546001600160a01b0319166001600160a01b038316908117909155604051919250906000907f8be0079c531659141344cd1fd0a4f28419497f9722a3daafe3b4186f6b6457e0908290a3506002805460ff60a01b19169055620000df565b3390565b61074f806200352283390190565b61343380620000ef6000396000f3fe6080604052600436106101145760003560e01c8063715018a6116100a0578063cf2b6f6611610064578063cf2b6f6614610409578063d6b02ecf1461041e578063e2982c2114610451578063e8b4165314610484578063f2fde38b1461049957610114565b8063715018a6146103525780638da5cb5b14610367578063961e809b14610398578063c79b226e146103ad578063cdbe8b35146103e657610114565b80632cb741aa116100e75780632cb741aa1461027c57806331b3eb9414610286578063440e7a7e146102b9578063555a6eaf146102f25780635c975abb1461032957610114565b80630c796a8814610119578063131b77cb1461015e578063150b7a02146101995780631bdd066014610253575b600080fd5b6101486004803603606081101561012f57600080fd5b508035906020810135906040013563ffffffff166104cc565b6040805160ff9092168252519081900360200190f35b6101876004803603606081101561017457600080fd5b508035906020810135906040013561080a565b60408051918252519081900360200190f35b3480156101a557600080fd5b50610236600480360360808110156101bc57600080fd5b6001600160a01b038235811692602081013590911691604082013591908101906080810160608201356401000000008111156101f757600080fd5b82018360208201111561020957600080fd5b8035906020019184600183028401116401000000008311171561022b57600080fd5b509092509050610ad4565b604080516001600160e01b03199092168252519081900360200190f35b6101486004803603606081101561026957600080fd5b5080359060208101359060400135610ae5565b610284610e0e565b005b34801561029257600080fd5b50610284600480360360208110156102a957600080fd5b50356001600160a01b0316610e68565b3480156102c557600080fd5b50610284600480360360408110156102dc57600080fd5b506001600160a01b038135169060200135610ece565b6102846004803603608081101561030857600080fd5b5080359060208101359063ffffffff60408201358116916060013516611004565b34801561033557600080fd5b5061033e6111ea565b604080519115158252519081900360200190f35b34801561035e57600080fd5b506102846111fa565b34801561037357600080fd5b5061037c61129c565b604080516001600160a01b039092168252519081900360200190f35b3480156103a457600080fd5b506102846112ab565b3480156103b957600080fd5b50610284600480360360408110156103d057600080fd5b506001600160a01b03813516906020013561130d565b610148600480360360408110156103fc57600080fd5b508035906020013561140e565b34801561041557600080fd5b506102846116f5565b34801561042a57600080fd5b506102846004803603602081101561044157600080fd5b50356001600160a01b0316611755565b34801561045d57600080fd5b506101876004803603602081101561047457600080fd5b50356001600160a01b0316611814565b34801561049057600080fd5b50610284611896565b3480156104a557600080fd5b50610284600480360360208110156104bc57600080fd5b50356001600160a01b031661202b565b600060026001541415610514576040805162461bcd60e51b815260206004820152601f602482015260008051602061315f833981519152604482015290519081900360640190fd5b6002600181905554600160a01b900460ff161561056b576040805162461bcd60e51b815260206004820152601060248201526f14185d5cd8589b194e881c185d5cd95960821b604482015290519081900360640190fd5b601354600a54604080516331a9108f60e11b8152600481018890529051879384936001600160a01b0391821693911691636352211e916024808201926020929091908290030181600087803b1580156105c357600080fd5b505af11580156105d7573d6000803e3d6000fd5b505050506040513d60208110156105ed57600080fd5b50516001600160a01b0316146106345760405162461bcd60e51b815260040180806020018281038252603081526020018061331f6030913960400191505060405180910390fd5b61063c6130aa565b61064587612124565b90506000610652866122a6565b905060038160ff16106106965760405162461bcd60e51b815260040180806020018281038252602a8152602001806132f5602a913960400191505060405180910390fd5b60008160ff161180156106ac5750600a8160ff16105b6106fd576040805162461bcd60e51b815260206004820152601960248201527f413a49413a2055736572206e6f74206175746820696e20414300000000000000604482015290519081900360640190fd5b816000015160ff166005148061071a5750816000015160ff166037145b8061072c5750816000015160ff166046145b6107675760405162461bcd60e51b815260040180806020018281038252603b815260200180613257603b913960400191505060405180910390fd5b60aa60a0830152600080835260c08301889052600480546040805163315017c360e11b81529283018c905263ffffffff8a166024840152516001600160a01b03909116926362a02f86926044808201939182900301818387803b1580156107cd57600080fd5b505af11580156107e1573d6000803e3d6000fd5b505050506107ef8883612357565b6107fa866001612452565b5051600180559695505050505050565b600060026001541415610852576040805162461bcd60e51b815260206004820152601f602482015260008051602061315f833981519152604482015290519081900360640190fd5b6002600181905554600160a01b900460ff16156108a9576040805162461bcd60e51b815260206004820152601060248201526f14185d5cd8589b194e881c185d5cd95960821b604482015290519081900360640190fd5b601354600a54604080516331a9108f60e11b8152600481018890529051879384936001600160a01b0391821693911691636352211e916024808201926020929091908290030181600087803b15801561090157600080fd5b505af1158015610915573d6000803e3d6000fd5b505050506040513d602081101561092b57600080fd5b50516001600160a01b0316146109725760405162461bcd60e51b815260040180806020018281038252603081526020018061331f6030913960400191505060405180910390fd5b61097a6130aa565b61098387612124565b9050600061099482602001516122a6565b905060008160ff161180156109ac5750600a8160ff16105b6109fd576040805162461bcd60e51b815260206004820152601960248201527f413a49323a2055736572206e6f74206175746820696e20414300000000000000604482015290519081900360640190fd5b8151610a089061269f565b60ff1615610a5d576040805162461bcd60e51b815260206004820152601e60248201527f413a464d523a204173736574206e656564732072652d696d706f727465640000604482015290519081900360640190fd5b868260c0015114610a9f5760405162461bcd60e51b815260040180806020018281038252602f815260200180613228602f913960400191505060405180910390fd5b6101008201869052610ab188836126ee565b610ac082602001516003612452565b506101000151600180559695505050505050565b630a85bd0160e11b95945050505050565b600060026001541415610b2d576040805162461bcd60e51b815260206004820152601f602482015260008051602061315f833981519152604482015290519081900360640190fd5b6002600181905554600160a01b900460ff1615610b84576040805162461bcd60e51b815260206004820152601060248201526f14185d5cd8589b194e881c185d5cd95960821b604482015290519081900360640190fd5b601354600a54604080516331a9108f60e11b8152600481018890529051879384936001600160a01b0391821693911691636352211e916024808201926020929091908290030181600087803b158015610bdc57600080fd5b505af1158015610bf0573d6000803e3d6000fd5b505050506040513d6020811015610c0657600080fd5b50516001600160a01b031614610c4d5760405162461bcd60e51b815260040180806020018281038252603081526020018061331f6030913960400191505060405180910390fd5b610c556130aa565b610c5e87612124565b90506000610c6f82602001516122a6565b905060008160ff16118015610c875750600a8160ff16105b610cd8576040805162461bcd60e51b815260206004820152601960248201527f413a54413a2055736572206e6f74206175746820696e20414300000000000000604482015290519081900360640190fd5b6031826000015160ff161180610cf1575060058160ff16105b610d2c5760405162461bcd60e51b815260040180806020018281038252602d815260200180613375602d913960400191505060405180910390fd5b816000015160ff1660011480610d495750816000015160ff166033145b610d845760405162461bcd60e51b81526004018080602001828103825260228152602001806132926022913960400191505060405180910390fd5b868260c0015114610dc65760405162461bcd60e51b815260040180806020018281038252602e8152602001806133a2602e913960400191505060405180910390fd5b60aa608083015285610ddc576005825260001995505b60c08201869052610ded8883612357565b610dfc82602001516002612452565b5050600180555060aa95945050505050565b60026001541415610e54576040805162461bcd60e51b815260206004820152601f602482015260008051602061315f833981519152604482015290519081900360640190fd5b6002600155610e6233610e68565b60018055565b60008054604080516351cff8d960e01b81526001600160a01b038581166004830152915191909216926351cff8d9926024808201939182900301818387803b158015610eb357600080fd5b505af1158015610ec7573d6000803e3d6000fd5b5050505050565b60026001541415610f14576040805162461bcd60e51b815260206004820152601f602482015260008051602061315f833981519152604482015290519081900360640190fd5b6002600155610f2161129c565b6001600160a01b0316336001600160a01b03161480610f4a57506017546001600160a01b031633145b610f855760405162461bcd60e51b815260040180806020018281038252602681526020018061334f6026913960400191505060405180910390fd5b600a5460408051632142170760e11b81523060048201526001600160a01b038581166024830152604482018590529151849392909216916342842e0e9160648082019260009290919082900301818387803b158015610fe357600080fd5b505af1158015610ff7573d6000803e3d6000fd5b5050600180555050505050565b6002600154141561104a576040805162461bcd60e51b815260206004820152601f602482015260008051602061315f833981519152604482015290519081900360640190fd5b6002600181905554600160a01b900460ff16156110a1576040805162461bcd60e51b815260206004820152601060248201526f14185d5cd8589b194e881c185d5cd95960821b604482015290519081900360640190fd5b6110a96130aa565b6110b285612124565b905060006110bf846122a6565b90506110c96130f6565b6110d285612799565b90506110dc6130f6565b6110e98460200151612799565b905060008360ff161180156111015750600a8360ff16105b611152576040805162461bcd60e51b815260206004820152601960248201527f413a4e523a2055736572206e6f74206175746820696e20414300000000000000604482015290519081900360640190fd5b60058360ff16106111945760405162461bcd60e51b815260040180806020018281038252602b81526020018061317f602b913960400191505060405180910390fd5b806020015163ffffffff16826020015163ffffffff1614156111c5576111c08888888760600151612865565b6111d1565b6111d188888888612865565b6111dc866001612452565b505060018055505050505050565b600254600160a01b900460ff1690565b611202612b82565b6002546001600160a01b03908116911614611252576040805162461bcd60e51b815260206004820181905260248201526000805160206132d5833981519152604482015290519081900360640190fd5b6002546040516000916001600160a01b0316907f8be0079c531659141344cd1fd0a4f28419497f9722a3daafe3b4186f6b6457e0908390a3600280546001600160a01b0319169055565b6002546001600160a01b031690565b6112b3612b82565b6002546001600160a01b03908116911614611303576040805162461bcd60e51b815260206004820181905260248201526000805160206132d5833981519152604482015290519081900360640190fd5b61130b612b86565b565b611315612b82565b6002546001600160a01b03908116911614611365576040805162461bcd60e51b815260206004820181905260248201526000805160206132d5833981519152604482015290519081900360640190fd5b600260015414156113ab576040805162461bcd60e51b815260206004820152601f602482015260008051602061315f833981519152604482015290519081900360640190fd5b6002600155600c5460408051632142170760e11b81523060048201526001600160a01b038581166024830152604482018590529151849392909216916342842e0e9160648082019260009290919082900301818387803b158015610fe357600080fd5b600060026001541415611456576040805162461bcd60e51b815260206004820152601f602482015260008051602061315f833981519152604482015290519081900360640190fd5b6002600181905554600160a01b900460ff16156114ad576040805162461bcd60e51b815260206004820152601060248201526f14185d5cd8589b194e881c185d5cd95960821b604482015290519081900360640190fd5b601354600a54604080516331a9108f60e11b8152600481018790529051869384936001600160a01b0391821693911691636352211e916024808201926020929091908290030181600087803b15801561150557600080fd5b505af1158015611519573d6000803e3d6000fd5b505050506040513d602081101561152f57600080fd5b50516001600160a01b0316146115765760405162461bcd60e51b815260040180806020018281038252603081526020018061331f6030913960400191505060405180910390fd5b61157e6130aa565b61158786612124565b9050600061159882602001516122a6565b90508060ff166001146115f2576040805162461bcd60e51b815260206004820152601a60248201527f413a464d523a2055736572206e6f74206175746820696e204143000000000000604482015290519081900360640190fd5b81516115fd90612c2e565b60ff1615611652576040805162461bcd60e51b815260206004820152601760248201527f413a464d523a204173736574206d61726b6564204c2f53000000000000000000604482015290519081900360640190fd5b815161165d9061269f565b60ff16156116b2576040805162461bcd60e51b815260206004820152601e60248201527f413a464d523a204173736574206e656564732072652d696d706f727465640000604482015290519081900360640190fd5b60aa60a0830181905260808301526000825260c082018690526116d58783612357565b6116e482602001516006612452565b5050600180555060aa949350505050565b6116fd612b82565b6002546001600160a01b0390811691161461174d576040805162461bcd60e51b815260206004820181905260248201526000805160206132d5833981519152604482015290519081900360640190fd5b61130b612c72565b61175d612b82565b6002546001600160a01b039081169116146117ad576040805162461bcd60e51b815260206004820181905260248201526000805160206132d5833981519152604482015290519081900360640190fd5b6001600160a01b0381166117f25760405162461bcd60e51b81526004018080602001828103825260258152602001806132036025913960400191505060405180910390fd5b600480546001600160a01b0319166001600160a01b0392909216919091179055565b60008054604080516371d4ed8d60e11b81526001600160a01b0385811660048301529151919092169163e3a9db1a916024808301926020929190829003018186803b15801561186257600080fd5b505afa158015611876573d6000803e3d6000fd5b505050506040513d602081101561188c57600080fd5b505190505b919050565b600260015414156118dc576040805162461bcd60e51b815260206004820152601f602482015260008051602061315f833981519152604482015290519081900360640190fd5b60026001556118e9612b82565b6002546001600160a01b03908116911614611939576040805162461bcd60e51b815260206004820181905260248201526000805160206132d5833981519152604482015290519081900360640190fd5b60048054604080516363b8d4c160e11b81526020938101849052600660248201526520a1afaa25a760d11b604482015290516001600160a01b039092169263c771a98292606480840193829003018186803b15801561199757600080fd5b505afa1580156119ab573d6000803e3d6000fd5b505050506040513d60208110156119c157600080fd5b5051600b80546001600160a01b039283166001600160a01b03199182161791829055600c805490911691831691909117905560048054604080516363b8d4c160e11b81526020938101849052600660248201526520a1afa6a3a960d11b60448201529051919093169263c771a982926064808301939192829003018186803b158015611a4c57600080fd5b505afa158015611a60573d6000803e3d6000fd5b505050506040513d6020811015611a7657600080fd5b5051600580546001600160a01b039283166001600160a01b031991821617918290556006805490911691831691909117905560048054604080516363b8d4c160e11b8152602093810184905260086024820152672aaa24a62faa25a760c11b60448201529051919093169263c771a982926064808301939192829003018186803b158015611b0357600080fd5b505afa158015611b17573d6000803e3d6000fd5b505050506040513d6020811015611b2d57600080fd5b5051600780546001600160a01b039283166001600160a01b031991821617918290556008805490911691831691909117905560048054604080516363b8d4c160e11b81526020938101849052600560248201526420afaa25a760d91b60448201529051919093169263c771a982926064808301939192829003018186803b158015611bb757600080fd5b505afa158015611bcb573d6000803e3d6000fd5b505050506040513d6020811015611be157600080fd5b5051600980546001600160a01b039283166001600160a01b03199182161791829055600a805490911691831691909117905560048054604080516363b8d4c160e11b81526020938101849052600660248201526524a22faa25a760d11b60448201529051919093169263c771a982926064808301939192829003018186803b158015611c6c57600080fd5b505afa158015611c80573d6000803e3d6000fd5b505050506040513d6020811015611c9657600080fd5b5051600d80546001600160a01b039283166001600160a01b03199182161791829055600e805490911691831691909117905560048054604080516363b8d4c160e11b81526020938101849052600760248201526622a1a92fa6a3a960c91b60448201529051919093169263c771a982926064808301939192829003018186803b158015611d2257600080fd5b505afa158015611d36573d6000803e3d6000fd5b505050506040513d6020811015611d4c57600080fd5b5051600f80546001600160a01b039283166001600160a01b031991821617918290556010805490911691831691909117905560048054604080516363b8d4c160e11b81526020938101849052600360248201526204150560ec1b60448201529051919093169263c771a982926064808301939192829003018186803b158015611dd457600080fd5b505afa158015611de8573d6000803e3d6000fd5b505050506040513d6020811015611dfe57600080fd5b5051601380546001600160a01b039283166001600160a01b031991821617918290556014805490911691831691909117905560048054604080516363b8d4c160e11b815260208185018190526024820194909452632921a62960e11b60448201529051919093169263c771a982926064808301939192829003018186803b158015611e8857600080fd5b505afa158015611e9c573d6000803e3d6000fd5b505050506040513d6020811015611eb257600080fd5b5051601180546001600160a01b039283166001600160a01b031991821617918290556012805490911691831691909117905560048054604080516363b8d4c160e11b8152602093810184905260066024820152654150505f4e4360d01b60448201529051919093169263c771a982926064808301939192829003018186803b158015611f3d57600080fd5b505afa158015611f51573d6000803e3d6000fd5b505050506040513d6020811015611f6757600080fd5b5051601680546001600160a01b0319166001600160a01b0392831617905560048054604080516363b8d4c160e11b81526020938101849052600260248201526104e560f41b60448201529051919093169263c771a982926064808301939192829003018186803b158015611fda57600080fd5b505afa158015611fee573d6000803e3d6000fd5b505050506040513d602081101561200457600080fd5b5051601780546001600160a01b0319166001600160a01b0390921691909117905560018055565b612033612b82565b6002546001600160a01b03908116911614612083576040805162461bcd60e51b815260206004820181905260248201526000805160206132d5833981519152604482015290519081900360640190fd5b6001600160a01b0381166120c85760405162461bcd60e51b81526004018080602001828103825260268152602001806131dd6026913960400191505060405180910390fd5b6002546040516001600160a01b038084169216907f8be0079c531659141344cd1fd0a4f28419497f9722a3daafe3b4186f6b6457e090600090a3600280546001600160a01b0319166001600160a01b0392909216919091179055565b61212c6130aa565b6121346130aa565b6000806000806000806000600460009054906101000a90046001600160a01b03166001600160a01b031663e248f2c48b6040518263ffffffff1660e01b81526004018082815260200191505060e06040518083038186803b15801561219857600080fd5b505afa1580156121ac573d6000803e3d6000fd5b505050506040513d60e08110156121c257600080fd5b81019080805190602001909291908051906020019092919080519060200190929190805190602001909291908051906020019092919080519060200190929190805190602001909291905050509650965096509650965096509650868860c001818152505085886000019060ff16908160ff168152505084886020019063ffffffff16908163ffffffff168152505083886040019063ffffffff16908163ffffffff168152505082886060019063ffffffff16908163ffffffff1681525050818860e001818152505080886101000181815250505050505050505080915050919050565b600654604080513360601b6020808301919091528251808303601401815260348301808552815191830191909120634e963e7760e11b909152603883015263ffffffff85166058830152915160009384936001600160a01b0390911692639d2c7cee9260788083019392829003018186803b15801561232457600080fd5b505afa158015612338573d6000803e3d6000fd5b505050506040513d602081101561234e57600080fd5b50519392505050565b600254600160a01b900460ff16156123a9576040805162461bcd60e51b815260206004820152601060248201526f14185d5cd8589b194e881c185d5cd95960821b604482015290519081900360640190fd5b6004805460c0830151835160408086015160a0870151608088015183516331aeaa7f60e11b81529788018a9052602488019590955260ff909316604487015263ffffffff166064860152608485019190915260a4840191909152516001600160a01b039091169163635d54fe9160c480830192600092919082900301818387803b15801561243657600080fd5b505af115801561244a573d6000803e3d6000fd5b505050505050565b600254600160a01b900460ff16156124a4576040805162461bcd60e51b815260206004820152601060248201526f14185d5cd8589b194e881c185d5cd95960821b604482015290519081900360640190fd5b6124ac613124565b6006546040805163042324e360e11b815263ffffffff861660048201529051600092612543926064926001600160a01b039092169163084649c691602480820192602092909190829003018186803b15801561250757600080fd5b505afa15801561251b573d6000803e3d6000fd5b505050506040513d602081101561253157600080fd5b505163ffffffff9081169190612d0016565b9050600a8110158015612557575060648111155b6125925760405162461bcd60e51b81526004018080602001828103825260338152602001806131aa6033913960400191505060405180910390fd5b6006546040805163859f08db60e01b815263ffffffff8716600482015261ffff8616602482015290516001600160a01b039092169163859f08db91604480820192608092909190829003018186803b1580156125ed57600080fd5b505afa158015612601573d6000803e3d6000fd5b505050506040513d608081101561261757600080fd5b5080516020808301516040808501516060958601519588018690526001600160a01b039081169188019190915291860152168352600090612659906064612d00565b90506126658282612d4b565b60608401526000612677606484612da4565b90506126916126868284612d4b565b602086015190612de6565b602085015261244a84612e40565b60008160ff166005141580156126b957508160ff16603714155b80156126c957508160ff16604614155b80156126d957508160ff16603c14155b156126e657506000611891565b5060aa611891565b600254600160a01b900460ff1615612740576040805162461bcd60e51b815260206004820152601060248201526f14185d5cd8589b194e881c185d5cd95960821b604482015290519081900360640190fd5b600480546101008301516040805163a919304560e01b81529384018690526024840191909152516001600160a01b039091169163a919304591604480830192600092919082900301818387803b15801561243657600080fd5b6127a16130f6565b6127a96130f6565b60065460408051630f24350160e41b815263ffffffff8616600482015290516001600160a01b039092169163f243501091602480820192608092909190829003018186803b1580156127fa57600080fd5b505afa15801561280e573d6000803e3d6000fd5b505050506040513d608081101561282457600080fd5b50805160208083015160408085015160609586015163ffffffff90811660808901529081169587019590955260ff9091169085015291169082015292915050565b8361286e6130f6565b61287784612799565b600a546040805162491fcf60e11b81526004810186905290519293506001600160a01b039091169162923f9e91602480820192602092909190829003018186803b1580156128c457600080fd5b505afa1580156128d8573d6000803e3d6000fd5b505050506040513d60208110156128ee57600080fd5b505160ff1615612945576040805162461bcd60e51b815260206004820152601f60248201527f433a43523a417373657420746f6b656e20616c72656164792065786973747300604482015290519081900360640190fd5b806040015160ff166003141561298c5760405162461bcd60e51b815260040180806020018281038252602e8152602001806133d0602e913960400191505060405180910390fd5b806040015160ff1660011415612a3b57600a54604080516354a19c2b60e01b815230600482015260248101859052606060448201526007606482015266707275662e696f60c81b608482015290516001600160a01b03909216916354a19c2b9160a4808201926020929091908290030181600087803b158015612a0e57600080fd5b505af1158015612a22573d6000803e3d6000fd5b505050506040513d6020811015612a3857600080fd5b50505b806040015160ff1660021480612a585750806040015160ff166004145b15612afc57600a54604080516354a19c2b60e01b815233600482015260248101859052606060448201526007606482015266707275662e696f60c81b608482015290516001600160a01b03909216916354a19c2b9160a4808201926020929091908290030181600087803b158015612acf57600080fd5b505af1158015612ae3573d6000803e3d6000fd5b505050506040513d6020811015612af957600080fd5b50505b6004805460408051630d4c344560e21b81529283018990526024830188905263ffffffff808816604485015286166064840152516001600160a01b0390911691633530d11491608480830192600092919082900301818387803b158015612b6257600080fd5b505af1158015612b76573d6000803e3d6000fd5b50505050505050505050565b3390565b600254600160a01b900460ff16612bdb576040805162461bcd60e51b815260206004820152601460248201527314185d5cd8589b194e881b9bdd081c185d5cd95960621b604482015290519081900360640190fd5b6002805460ff60a01b191690557f5db9ee0a495bf2e6ff9c91a7834c1ba4fdd244a5e8aa4e537bd38aeae4b073aa612c11612b82565b604080516001600160a01b039092168252519081900360200190a1565b60008160ff16600314158015612c4857508160ff16600414155b8015612c5857508160ff16603514155b80156126d957508160ff166036146126e657506000611891565b600254600160a01b900460ff1615612cc4576040805162461bcd60e51b815260206004820152601060248201526f14185d5cd8589b194e881c185d5cd95960821b604482015290519081900360640190fd5b6002805460ff60a01b1916600160a01b1790557f62e78cea01bee320cd4e420270b5ea74000d11b0c9f74754ebdbfc544b05a258612c11612b82565b6000612d4283836040518060400160405280601a81526020017f536166654d6174683a206469766973696f6e206279207a65726f000000000000815250612f44565b90505b92915050565b600082612d5a57506000612d45565b82820282848281612d6757fe5b0414612d425760405162461bcd60e51b81526004018080602001828103825260218152602001806132b46021913960400191505060405180910390fd5b6000612d4283836040518060400160405280601e81526020017f536166654d6174683a207375627472616374696f6e206f766572666c6f770000815250612fe6565b600082820183811015612d42576040805162461bcd60e51b815260206004820152601b60248201527f536166654d6174683a206164646974696f6e206f766572666c6f770000000000604482015290519081900360640190fd5b600254600160a01b900460ff1615612e92576040805162461bcd60e51b815260206004820152601060248201526f14185d5cd8589b194e881c185d5cd95960821b604482015290519081900360640190fd5b6060810151602082015134916000918291612ead9190612de6565b905080341015612f04576040805162461bcd60e51b815260206004820152601760248201527f433a44503a2054582076616c756520746f6f206c6f772e000000000000000000604482015290519081900360640190fd5b612f0e8382612da4565b9150612f2284600001518560200151613040565b612f3484604001518560600151613040565b612f3e3383613040565b50505050565b60008183612fd05760405162461bcd60e51b81526004018080602001828103825283818151815260200191508051906020019080838360005b83811015612f95578181015183820152602001612f7d565b50505050905090810190601f168015612fc25780820380516001836020036101000a031916815260200191505b509250505060405180910390fd5b506000838581612fdc57fe5b0495945050505050565b600081848411156130385760405162461bcd60e51b8152602060048201818152835160248401528351909283926044909101919085019080838360008315612f95578181015183820152602001612f7d565b505050900390565b600080546040805163f340fa0160e01b81526001600160a01b0386811660048301529151919092169263f340fa019285926024808301939282900301818588803b15801561308d57600080fd5b505af11580156130a1573d6000803e3d6000fd5b50505050505050565b6040805161012081018252600080825260208201819052918101829052606081018290526080810182905260a0810182905260c0810182905260e0810182905261010081019190915290565b6040805160a08101825260608082526000602083018190529282018390528101829052608081019190915290565b604051806080016040528060006001600160a01b031681526020016000815260200160006001600160a01b0316815260200160008152509056fe5265656e7472616e637947756172643a207265656e7472616e742063616c6c00413a4e523a2055736572206e6f7420617574686f72697a656420746f20637265617465207265636f72647350433a4453433a696e76616c696420646973636f756e742076616c756520666f722070726963652063616c63756c6174696f6e4f776e61626c653a206e6577206f776e657220697320746865207a65726f2061646472657373423a5353433a2073746f7261676520616464726573732063616e6e6f74206265207a65726f413a49323a20526967687473686f6c64657220646f6573206e6f74206d6174636820737570706c6965642064617461413a49413a204f6e6c79205472616e73666572726564206f72206578706f72746564206173736574732063616e206265207265696d706f72746564413a54413a41737365742073746174757320213d207472616e736665727261626c65536166654d6174683a206d756c7469706c69636174696f6e206f766572666c6f774f776e61626c653a2063616c6c6572206973206e6f7420746865206f776e6572413a49413a2055736572206e6f7420617574686f72697a656420746f20696d706f727420617373657473413a4d4f442d49413a20437573746f6469616c20636f6e747261637420646f6573206e6f7420686f6c6420746f6b656e423a54583a496e76616c69642063616c6c657220666f72207472616e7366657220746f6b656e413a54413a4f6e6c79207573657274797065203c20352063616e206368616e676520737461747573203c203530413a54413a526967687473686f6c64657220646f6573206e6f74206d6174636820737570706c6965642064617461433a43523a43616e6e6f742063726561746520617373657420696e206120726f6f7420617373657420636c617373a2646970667358221220ac57275b3d5bd7569e7b1f9945942c493f864a0b0f3247d812546b025770e92d64736f6c634300060c0033608060405234801561001057600080fd5b50600061001b61006a565b600080546001600160a01b0319166001600160a01b0383169081178255604051929350917f8be0079c531659141344cd1fd0a4f28419497f9722a3daafe3b4186f6b6457e0908290a35061006e565b3390565b6106d28061007d6000396000f3fe6080604052600436106100555760003560e01c806351cff8d91461005a578063715018a61461008f5780638da5cb5b146100a4578063e3a9db1a146100d5578063f2fde38b1461011a578063f340fa011461014d575b600080fd5b34801561006657600080fd5b5061008d6004803603602081101561007d57600080fd5b50356001600160a01b0316610173565b005b34801561009b57600080fd5b5061008d610236565b3480156100b057600080fd5b506100b96102d8565b604080516001600160a01b039092168252519081900360200190f35b3480156100e157600080fd5b50610108600480360360208110156100f857600080fd5b50356001600160a01b03166102e7565b60408051918252519081900360200190f35b34801561012657600080fd5b5061008d6004803603602081101561013d57600080fd5b50356001600160a01b0316610302565b61008d6004803603602081101561016357600080fd5b50356001600160a01b03166103fa565b61017b6104cd565b6000546001600160a01b039081169116146101cb576040805162461bcd60e51b8152602060048201819052602482015260008051602061067d833981519152604482015290519081900360640190fd5b6001600160a01b03811660008181526001602052604081208054919055906101f390826104d1565b6040805182815290516001600160a01b038416917f7084f5476618d8e60b11ef0d7d3f06914655adb8793e28ff7f018d4c76d505d5919081900360200190a25050565b61023e6104cd565b6000546001600160a01b0390811691161461028e576040805162461bcd60e51b8152602060048201819052602482015260008051602061067d833981519152604482015290519081900360640190fd5b600080546040516001600160a01b03909116907f8be0079c531659141344cd1fd0a4f28419497f9722a3daafe3b4186f6b6457e0908390a3600080546001600160a01b0319169055565b6000546001600160a01b031690565b6001600160a01b031660009081526001602052604090205490565b61030a6104cd565b6000546001600160a01b0390811691161461035a576040805162461bcd60e51b8152602060048201819052602482015260008051602061067d833981519152604482015290519081900360640190fd5b6001600160a01b03811661039f5760405162461bcd60e51b815260040180806020018281038252602681526020018061061d6026913960400191505060405180910390fd5b600080546040516001600160a01b03808516939216917f8be0079c531659141344cd1fd0a4f28419497f9722a3daafe3b4186f6b6457e091a3600080546001600160a01b0319166001600160a01b0392909216919091179055565b6104026104cd565b6000546001600160a01b03908116911614610452576040805162461bcd60e51b8152602060048201819052602482015260008051602061067d833981519152604482015290519081900360640190fd5b6001600160a01b038116600090815260016020526040902054349061047790826105bb565b6001600160a01b038316600081815260016020908152604091829020939093558051848152905191927f2da466a7b24304f47e87fa2e1e5a81b9831ce54fec19055ce277ca2f39ba42c492918290030190a25050565b3390565b80471015610526576040805162461bcd60e51b815260206004820152601d60248201527f416464726573733a20696e73756666696369656e742062616c616e6365000000604482015290519081900360640190fd5b6040516000906001600160a01b0384169083908381818185875af1925050503d8060008114610571576040519150601f19603f3d011682016040523d82523d6000602084013e610576565b606091505b50509050806105b65760405162461bcd60e51b815260040180806020018281038252603a815260200180610643603a913960400191505060405180910390fd5b505050565b600082820183811015610615576040805162461bcd60e51b815260206004820152601b60248201527f536166654d6174683a206164646974696f6e206f766572666c6f770000000000604482015290519081900360640190fd5b939250505056fe4f776e61626c653a206e6577206f776e657220697320746865207a65726f2061646472657373416464726573733a20756e61626c6520746f2073656e642076616c75652c20726563697069656e74206d617920686176652072657665727465644f776e61626c653a2063616c6c6572206973206e6f7420746865206f776e6572a2646970667358221220ce7593b1fd52f5e0045357faf9c61da22b060b3a0787c0de4ada3b90d4b8255164736f6c634300060c0033",
  "immutableReferences": {},
  "source": "/*-----------------------------------------------------------V0.7.0\r\n__/\\\\\\\\\\\\\\\\\\\\\\\\\\ _____/\\\\\\\\\\\\\\\\\\ _______/\\\\../\\\\ ___/\\\\\\\\\\\\\\\\\\\\\\\\\\\\\\\r\n _\\/\\\\\\/////////\\\\\\ _/\\\\\\///////\\\\\\ ____\\//..\\//____\\/\\\\\\///////////__\r\n  _\\/\\\\\\.......\\/\\\\\\.\\/\\\\\\.....\\/\\\\\\ ________________\\/\\\\\\ ____________\r\n   _\\/\\\\\\\\\\\\\\\\\\\\\\\\\\/__\\/\\\\\\\\\\\\\\\\\\\\\\/_____/\\\\\\____/\\\\\\.\\/\\\\\\\\\\\\\\\\\\\\\\ ____\r\n    _\\/\\\\\\/////////____\\/\\\\\\//////\\\\\\ ___\\/\\\\\\___\\/\\\\\\.\\/\\\\\\///////______\r\n     _\\/\\\\\\ ____________\\/\\\\\\ ___\\//\\\\\\ __\\/\\\\\\___\\/\\\\\\.\\/\\\\\\ ____________\r\n      _\\/\\\\\\ ____________\\/\\\\\\ ____\\//\\\\\\ _\\/\\\\\\___\\/\\\\\\.\\/\\\\\\ ____________\r\n       _\\/\\\\\\ ____________\\/\\\\\\ _____\\//\\\\\\.\\//\\\\\\\\\\\\\\\\\\ _\\/\\\\\\ ____________\r\n        _\\/// _____________\\/// _______\\/// __\\///////// __\\/// _____________\r\n         *-------------------------------------------------------------------*/\r\n\r\n/*-----------------------------------------------------------------\r\n *  TO DO\r\n *\r\n *----------------------------------------------------------------*/\r\n\r\n// SPDX-License-Identifier: UNLICENSED\r\npragma solidity ^0.6.7;\r\n\r\nimport \"./PRUF_CORE.sol\";\r\n\r\ncontract APP is CORE {\r\n    modifier isAuthorized(bytes32 _idxHash) override {\r\n        //require that user is authorized and token is held by contract\r\n        uint256 tokenId = uint256(_idxHash);\r\n        require(\r\n            (A_TKN.ownerOf(tokenId) == APP_Address),\r\n            \"A:MOD-IA: Custodial contract does not hold token\"\r\n        );\r\n        _;\r\n    }\r\n\r\n    //--------------------------------------------External Functions--------------------------\r\n\r\n    /*\r\n     * @dev Wrapper for newRecord\r\n     */\r\n    function $newRecord(\r\n        bytes32 _idxHash,\r\n        bytes32 _rgtHash,\r\n        uint32 _assetClass,\r\n        uint32 _countDownStart\r\n    ) external payable nonReentrant whenNotPaused {\r\n        Record memory rec = getRecord(_idxHash);\r\n        uint8 userType = getCallingUserType(_assetClass);\r\n        AC memory AC_info = getACinfo(_assetClass);\r\n        AC memory oldAC_info = getACinfo(rec.assetClass);\r\n\r\n        require((userType > 0) && (userType < 10), \"A:NR: User not auth in AC\");\r\n        require(userType < 5, \"A:NR: User not authorized to create records\");\r\n        //^^^^^^^checks^^^^^^^^^\r\n\r\n        //bytes32 userHash = keccak256(abi.encodePacked(msg.sender));\r\n        //^^^^^^^effects^^^^^^^^^\r\n\r\n        if (AC_info.assetClassRoot == oldAC_info.assetClassRoot) {\r\n            createRecord(_idxHash, _rgtHash, _assetClass, rec.countDownStart);\r\n        } else {\r\n            createRecord(_idxHash, _rgtHash, _assetClass, _countDownStart);\r\n        }\r\n        deductServiceCosts(_assetClass, 1);\r\n\r\n        //^^^^^^^interactions^^^^^^^^^\r\n    }\r\n\r\n    /*\r\n     * @dev import **Record** (no confirmation required -\r\n     * posessor is considered to be owner. sets rec.assetStatus to 0.\r\n     */\r\n    function $importAsset(\r\n        bytes32 _idxHash,\r\n        bytes32 _newRgtHash,\r\n        uint32 _newAssetClass\r\n    )\r\n        external\r\n        payable\r\n        nonReentrant\r\n        whenNotPaused\r\n        isAuthorized(_idxHash) //contract holds token (user sent to contract)\r\n        returns (uint8)\r\n    {\r\n        Record memory rec = getRecord(_idxHash);\r\n        uint8 userType = getCallingUserType(_newAssetClass);\r\n\r\n        require(userType < 3, \"A:IA: User not authorized to import assets\");\r\n        require((userType > 0) && (userType < 10), \"A:IA: User not auth in AC\");\r\n        require(\r\n            (rec.assetStatus == 5) ||\r\n                (rec.assetStatus == 55) ||\r\n                (rec.assetStatus == 70),\r\n            \"A:IA: Only Transferred or exported assets can be reimported\"\r\n        );\r\n        //^^^^^^^checks^^^^^^^^^\r\n\r\n        rec.incrementForceModCount = 170;\r\n\r\n        rec.assetStatus = 0;\r\n        rec.rightsHolder = _newRgtHash;\r\n        //^^^^^^^effects^^^^^^^^^\r\n\r\n        STOR.changeAC(_idxHash, _newAssetClass);\r\n        writeRecord(_idxHash, rec);\r\n        deductServiceCosts(_newAssetClass, 1);\r\n\r\n\r\n        return rec.assetStatus;\r\n        //^^^^^^^interactions^^^^^^^^^\r\n    }\r\n\r\n    /*\r\n     * @dev Modify **Record**.rightsHolder without confirmation required\r\n     */\r\n    function $forceModRecord(bytes32 _idxHash, bytes32 _rgtHash)\r\n        external\r\n        payable\r\n        nonReentrant\r\n        whenNotPaused\r\n        isAuthorized(_idxHash)\r\n        returns (uint8)\r\n    {\r\n        Record memory rec = getRecord(_idxHash);\r\n        uint8 userType = getCallingUserType(rec.assetClass);\r\n        \r\n        require(userType == 1, \"A:FMR: User not auth in AC\");\r\n        require(\r\n            isLostOrStolen(rec.assetStatus) == 0,\r\n            \"A:FMR: Asset marked L/S\"\r\n        );\r\n        require( //IMPOSSIBLE TO THROW REVERTS IN REQ1 CTS:PREFERRED\r\n            needsImport(rec.assetStatus) == 0,\r\n            \"A:FMR: Asset needs re-imported\"\r\n        );\r\n        //^^^^^^^checks^^^^^^^^^\r\n\r\n        rec.incrementForceModCount = 170;\r\n\r\n        rec.incrementNumberOfTransfers = 170;\r\n\r\n        rec.assetStatus = 0;\r\n        rec.rightsHolder = _rgtHash;\r\n        //^^^^^^^effects^^^^^^^^^\r\n\r\n        writeRecord(_idxHash, rec);\r\n\r\n        deductServiceCosts(rec.assetClass, 6);\r\n\r\n        return 170;\r\n        //^^^^^^^interactions^^^^^^^^^\r\n    }\r\n\r\n    /*\r\n     * @dev Transfer Rights to new rightsHolder with confirmation\r\n     */\r\n    function $transferAsset(\r\n        bytes32 _idxHash,\r\n        bytes32 _rgtHash,\r\n        bytes32 _newrgtHash\r\n    )\r\n        external\r\n        payable\r\n        nonReentrant\r\n        whenNotPaused\r\n        isAuthorized(_idxHash)\r\n        returns (uint8)\r\n    {\r\n        Record memory rec = getRecord(_idxHash);\r\n        uint8 userType = getCallingUserType(rec.assetClass);\r\n\r\n        require((userType > 0) && (userType < 10), \"A:TA: User not auth in AC\");\r\n        require(\r\n            (rec.assetStatus > 49) || (userType < 5),\r\n            \"A:TA:Only usertype < 5 can change status < 50\"\r\n        );\r\n        require(\r\n            (rec.assetStatus == 1) || (rec.assetStatus == 51),\r\n            \"A:TA:Asset status != transferrable\"\r\n        );\r\n        require(\r\n            rec.rightsHolder == _rgtHash,\r\n            \"A:TA:Rightsholder does not match supplied data\"\r\n        );\r\n        //^^^^^^^checks^^^^^^^^^\r\n\r\n        rec.incrementNumberOfTransfers = 170;\r\n\r\n        if (_newrgtHash == 0x0) {\r\n            //set to transferred status\r\n            rec.assetStatus = 5;\r\n            _newrgtHash = 0xFFFFFFFFFFFFFFFFFFFFFFFFFFFFFFFFFFFFFFFFFFFFFFFFFFFFFFFFFFFFFFFF;\r\n        }\r\n\r\n        rec.rightsHolder = _newrgtHash;\r\n        //^^^^^^^effects^^^^^^^^^\r\n\r\n        writeRecord(_idxHash, rec);\r\n\r\n        deductServiceCosts(rec.assetClass, 2);\r\n\r\n        return (170);\r\n        //^^^^^^^interactions^^^^^^^^^\r\n    }\r\n\r\n    /*\r\n     * @dev Modify **Record**.Ipfs2 with confirmation\r\n     */\r\n    function $addIpfs2Note(\r\n        bytes32 _idxHash,\r\n        bytes32 _rgtHash,\r\n        bytes32 _IpfsHash\r\n    )\r\n        external\r\n        payable\r\n        nonReentrant\r\n        whenNotPaused\r\n        isAuthorized(_idxHash)\r\n        returns (bytes32)\r\n    {\r\n        Record memory rec = getRecord(_idxHash);\r\n        uint8 userType = getCallingUserType(rec.assetClass);\r\n\r\n        require((userType > 0) && (userType < 10), \"A:I2: User not auth in AC\");\r\n\r\n        require( //IMPOSSIBLE TO THROW REVERTS IN REQ1 CTS:PREFERRED\r\n            needsImport(rec.assetStatus) == 0,\r\n            \"A:FMR: Asset needs re-imported\"\r\n        );\r\n        require(\r\n            rec.rightsHolder == _rgtHash,\r\n            \"A:I2: Rightsholder does not match supplied data\"\r\n        );\r\n        //^^^^^^^checks^^^^^^^^^\r\n\r\n        rec.Ipfs2 = _IpfsHash;\r\n        //^^^^^^^effects^^^^^^^^^\r\n\r\n        writeRecordIpfs2(_idxHash, rec);\r\n\r\n        deductServiceCosts(rec.assetClass, 3);\r\n\r\n        return rec.Ipfs2;\r\n        //^^^^^^^interactions^^^^^^^^^\r\n    }\r\n}\r\n",
  "sourcePath": "C:\\Users\\drake\\onedrive\\documents\\dev\\pruf\\PRUF_TRUFFLE\\contracts\\PRUF_APP.sol",
  "compiler": {
    "name": "solc",
    "version": "0.6.12+commit.27d51765.Emscripten.clang"
  },
  "schemaVersion": "3.2.2",
  "updatedAt": "2020-09-16T15:05:07.769Z",
  "devdoc": {
    "kind": "dev",
    "methods": {
      "OO_pause()": {
        "details": "Triggers stopped state. (pausable)"
      },
      "OO_unpause()": {
        "details": "Returns to normal state. (pausable)"
      },
      "owner()": {
        "details": "Returns the address of the current owner."
      },
      "paused()": {
        "details": "Returns true if the contract is paused, and false otherwise."
      },
      "payments(address)": {
        "details": "Returns the payments owed to an address.",
        "params": {
          "dest": "The creditor's address."
        }
      },
      "renounceOwnership()": {
        "details": "Leaves the contract without owner. It will not be possible to call `onlyOwner` functions anymore. Can only be called by the current owner. NOTE: Renouncing ownership will leave the contract without an owner, thereby removing any functionality that is only available to the owner."
      },
      "transferOwnership(address)": {
        "details": "Transfers ownership of the contract to a new account (`newOwner`). Can only be called by the current owner."
      },
      "withdrawPayments(address)": {
        "details": "Withdraw accumulated payments, forwarding all gas to the recipient. Note that _any_ account can call this function, not just the `payee`. This means that contracts unaware of the `PullPayment` protocol can still receive funds this way, by having a separate account call {withdrawPayments}. WARNING: Forwarding all gas opens the door to reentrancy vulnerabilities. Make sure you trust the recipient, or are either following the checks-effects-interactions pattern or using {ReentrancyGuard}.",
        "params": {
          "payee": "Whose payments will be withdrawn."
        }
      }
    },
    "version": 1
  },
  "userdoc": {
    "kind": "user",
    "methods": {},
    "version": 1
  }
}