{
  "contractName": "APP",
  "abi": [
    {
      "anonymous": false,
      "inputs": [
        {
          "indexed": true,
          "internalType": "address",
          "name": "previousOwner",
          "type": "address"
        },
        {
          "indexed": true,
          "internalType": "address",
          "name": "newOwner",
          "type": "address"
        }
      ],
      "name": "OwnershipTransferred",
      "type": "event"
    },
    {
      "anonymous": false,
      "inputs": [
        {
          "indexed": false,
          "internalType": "address",
          "name": "account",
          "type": "address"
        }
      ],
      "name": "Paused",
      "type": "event"
    },
    {
      "anonymous": false,
      "inputs": [
        {
          "indexed": false,
          "internalType": "string",
          "name": "_msg",
          "type": "string"
        }
      ],
      "name": "REPORT",
      "type": "event"
    },
    {
      "anonymous": false,
      "inputs": [
        {
          "indexed": false,
          "internalType": "address",
          "name": "account",
          "type": "address"
        }
      ],
      "name": "Unpaused",
      "type": "event"
    },
    {
      "inputs": [],
      "name": "$withdraw",
      "outputs": [],
      "stateMutability": "payable",
      "type": "function"
    },
    {
      "inputs": [],
      "name": "OO_ResolveContractAddresses",
      "outputs": [],
      "stateMutability": "nonpayable",
      "type": "function"
    },
    {
      "inputs": [
        {
          "internalType": "address",
          "name": "_to",
          "type": "address"
        },
        {
          "internalType": "bytes32",
          "name": "_idxHash",
          "type": "bytes32"
        }
      ],
      "name": "OO_TX_AC_Token",
      "outputs": [],
      "stateMutability": "nonpayable",
      "type": "function"
    },
    {
      "inputs": [
        {
          "internalType": "address",
          "name": "_to",
          "type": "address"
        },
        {
          "internalType": "bytes32",
          "name": "_idxHash",
          "type": "bytes32"
        }
      ],
      "name": "OO_TX_asset_Token",
      "outputs": [],
      "stateMutability": "nonpayable",
      "type": "function"
    },
    {
      "inputs": [],
      "name": "OO_pause",
      "outputs": [],
      "stateMutability": "nonpayable",
      "type": "function"
    },
    {
      "inputs": [
        {
          "internalType": "address",
          "name": "_storageAddress",
          "type": "address"
        }
      ],
      "name": "OO_setStorageContract",
      "outputs": [],
      "stateMutability": "nonpayable",
      "type": "function"
    },
    {
      "inputs": [],
      "name": "OO_unpause",
      "outputs": [],
      "stateMutability": "nonpayable",
      "type": "function"
    },
    {
      "inputs": [
        {
          "internalType": "address",
          "name": "",
          "type": "address"
        },
        {
          "internalType": "address",
          "name": "",
          "type": "address"
        },
        {
          "internalType": "uint256",
          "name": "",
          "type": "uint256"
        },
        {
          "internalType": "bytes",
          "name": "",
          "type": "bytes"
        }
      ],
      "name": "onERC721Received",
      "outputs": [
        {
          "internalType": "bytes4",
          "name": "",
          "type": "bytes4"
        }
      ],
      "stateMutability": "nonpayable",
      "type": "function"
    },
    {
      "inputs": [],
      "name": "owner",
      "outputs": [
        {
          "internalType": "address",
          "name": "",
          "type": "address"
        }
      ],
      "stateMutability": "view",
      "type": "function"
    },
    {
      "inputs": [],
      "name": "paused",
      "outputs": [
        {
          "internalType": "bool",
          "name": "",
          "type": "bool"
        }
      ],
      "stateMutability": "view",
      "type": "function"
    },
    {
      "inputs": [
        {
          "internalType": "address",
          "name": "dest",
          "type": "address"
        }
      ],
      "name": "payments",
      "outputs": [
        {
          "internalType": "uint256",
          "name": "",
          "type": "uint256"
        }
      ],
      "stateMutability": "view",
      "type": "function"
    },
    {
      "inputs": [],
      "name": "renounceOwnership",
      "outputs": [],
      "stateMutability": "nonpayable",
      "type": "function"
    },
    {
      "inputs": [
        {
          "internalType": "address",
          "name": "newOwner",
          "type": "address"
        }
      ],
      "name": "transferOwnership",
      "outputs": [],
      "stateMutability": "nonpayable",
      "type": "function"
    },
    {
      "inputs": [
        {
          "internalType": "address payable",
          "name": "payee",
          "type": "address"
        }
      ],
      "name": "withdrawPayments",
      "outputs": [],
      "stateMutability": "nonpayable",
      "type": "function"
    },
    {
      "inputs": [
        {
          "internalType": "bytes32",
          "name": "_idxHash",
          "type": "bytes32"
        },
        {
          "internalType": "bytes32",
          "name": "_rgtHash",
          "type": "bytes32"
        },
        {
          "internalType": "uint16",
          "name": "_assetClass",
          "type": "uint16"
        },
        {
          "internalType": "uint256",
          "name": "_countDownStart",
          "type": "uint256"
        }
      ],
      "name": "$newRecord",
      "outputs": [],
      "stateMutability": "payable",
      "type": "function"
    },
    {
      "inputs": [
        {
          "internalType": "bytes32",
          "name": "_idxHash",
          "type": "bytes32"
        },
        {
          "internalType": "address",
          "name": "_addr",
          "type": "address"
        }
      ],
      "name": "exportAsset",
      "outputs": [
        {
          "internalType": "uint8",
          "name": "",
          "type": "uint8"
        }
      ],
      "stateMutability": "nonpayable",
      "type": "function"
    },
    {
      "inputs": [
        {
          "internalType": "bytes32",
          "name": "_idxHash",
          "type": "bytes32"
        },
        {
          "internalType": "bytes32",
          "name": "_rgtHash",
          "type": "bytes32"
        }
      ],
      "name": "$forceModRecord",
      "outputs": [
        {
          "internalType": "uint8",
          "name": "",
          "type": "uint8"
        }
      ],
      "stateMutability": "payable",
      "type": "function"
    },
    {
      "inputs": [
        {
          "internalType": "bytes32",
          "name": "_idxHash",
          "type": "bytes32"
        },
        {
          "internalType": "bytes32",
          "name": "_rgtHash",
          "type": "bytes32"
        },
        {
          "internalType": "bytes32",
          "name": "_newrgtHash",
          "type": "bytes32"
        }
      ],
      "name": "$transferAsset",
      "outputs": [
        {
          "internalType": "uint8",
          "name": "",
          "type": "uint8"
        }
      ],
      "stateMutability": "payable",
      "type": "function"
    },
    {
      "inputs": [
        {
          "internalType": "bytes32",
          "name": "_idxHash",
          "type": "bytes32"
        },
        {
          "internalType": "bytes32",
          "name": "_rgtHash",
          "type": "bytes32"
        },
        {
          "internalType": "bytes32",
          "name": "_IpfsHash",
          "type": "bytes32"
        }
      ],
      "name": "$addIpfs2Note",
      "outputs": [
        {
          "internalType": "bytes32",
          "name": "",
          "type": "bytes32"
        }
      ],
      "stateMutability": "payable",
      "type": "function"
    },
    {
      "inputs": [
        {
          "internalType": "bytes32",
          "name": "_idxHash",
          "type": "bytes32"
        },
        {
          "internalType": "bytes32",
          "name": "_newRgtHash",
          "type": "bytes32"
        },
        {
          "internalType": "uint16",
          "name": "_newAssetClass",
          "type": "uint16"
        }
      ],
      "name": "$importAsset",
      "outputs": [
        {
          "internalType": "uint8",
          "name": "",
          "type": "uint8"
        }
      ],
      "stateMutability": "payable",
      "type": "function"
    }
  ],
  "bytecode": "0x60806040523480156200001157600080fd5b506040516200002090620000d1565b604051809103906000f0801580156200003d573d6000803e3d6000fd5b50600080546001600160a01b0319166001600160a01b0392909216919091178155600180556200006c620000cd565b600280546001600160a01b0319166001600160a01b038316908117909155604051919250906000907f8be0079c531659141344cd1fd0a4f28419497f9722a3daafe3b4186f6b6457e0908290a3506002805460ff60a01b19169055620000df565b3390565b6107648062003f5883390190565b613e6980620000ef6000396000f3fe60806040526004361061011f5760003560e01c80638da5cb5b116100a0578063cfa1bc1311610064578063cfa1bc131461040b578063d6b02ecf14610438578063e2982c211461046b578063e620bf381461049e578063f2fde38b146104d75761011f565b80638da5cb5b14610354578063961e809b14610385578063b1d83c181461039a578063cdbe8b35146103d3578063cf2b6f66146103f65761011f565b806331b3eb94116100e757806331b3eb9414610295578063466aafa4146102c85780634b9f23a4146103015780635c975abb14610316578063715018a61461033f5761011f565b8063131b77cb14610124578063150b7a021461015f5780631bdd0660146102195780632c5774a6146102585780632cb741aa1461028d575b600080fd5b61014d6004803603606081101561013a57600080fd5b508035906020810135906040013561050a565b60408051918252519081900360200190f35b34801561016b57600080fd5b506101fc6004803603608081101561018257600080fd5b6001600160a01b038235811692602081013590911691604082013591908101906080810160608201356401000000008111156101bd57600080fd5b8201836020820111156101cf57600080fd5b803590602001918460018302840111640100000000831117156101f157600080fd5b509092509050610962565b604080516001600160e01b03199092168252519081900360200190f35b6102426004803603606081101561022f57600080fd5b5080359060208101359060400135610973565b6040805160ff9092168252519081900360200190f35b61028b6004803603608081101561026e57600080fd5b5080359060208101359061ffff6040820135169060600135610d45565b005b61028b610ffd565b3480156102a157600080fd5b5061028b600480360360208110156102b857600080fd5b50356001600160a01b0316611057565b3480156102d457600080fd5b5061028b600480360360408110156102eb57600080fd5b506001600160a01b0381351690602001356110bd565b34801561030d57600080fd5b5061028b6111df565b34801561032257600080fd5b5061032b611753565b604080519115158252519081900360200190f35b34801561034b57600080fd5b5061028b611763565b34801561036057600080fd5b50610369611805565b604080516001600160a01b039092168252519081900360200190f35b34801561039157600080fd5b5061028b611814565b3480156103a657600080fd5b5061028b600480360360408110156103bd57600080fd5b506001600160a01b038135169060200135611876565b610242600480360360408110156103e957600080fd5b5080359060200135611977565b34801561040257600080fd5b5061028b611e45565b6102426004803603606081101561042157600080fd5b508035906020810135906040013561ffff16611ea5565b34801561044457600080fd5b5061028b6004803603602081101561045b57600080fd5b50356001600160a01b0316612361565b34801561047757600080fd5b5061014d6004803603602081101561048e57600080fd5b50356001600160a01b0316612420565b3480156104aa57600080fd5b50610242600480360360408110156104c157600080fd5b50803590602001356001600160a01b03166124a0565b3480156104e357600080fd5b5061028b600480360360208110156104fa57600080fd5b50356001600160a01b03166127c7565b600060026001541415610552576040805162461bcd60e51b815260206004820152601f60248201526000805160206138b6833981519152604482015290519081900360640190fd5b6002600181905554600160a01b900460ff16156105a9576040805162461bcd60e51b815260206004820152601060248201526f14185d5cd8589b194e881c185d5cd95960821b604482015290519081900360640190fd5b600f54600854604080516331a9108f60e11b8152600481018890529051879384936001600160a01b0391821693911691636352211e916024808201926020929091908290030181600087803b15801561060157600080fd5b505af1158015610615573d6000803e3d6000fd5b505050506040513d602081101561062b57600080fd5b50516001600160a01b0316146106725760405162461bcd60e51b815260040180806020018281038252602d815260200180613a4a602d913960400191505060405180910390fd5b61067a6137e9565b610683876128c0565b905060006106948260600151612a69565b905061069e613835565b6106ac308460600151612b18565b805190915060ff166106ef5760405162461bcd60e51b8152600401808060200182810382526034815260200180613d896034913960400191505060405180910390fd5b8251610742576040805162461bcd60e51b815260206004820152601c60248201527f50413a49323a205265636f726420646f6573206e6f7420657869737400000000604482015290519081900360640190fd5b60008260ff161180156107585750600a8260ff16105b6107935760405162461bcd60e51b8152600401808060200182810382526045815260200180613d1d6045913960600191505060405180910390fd5b826020015160ff166006141580156107b35750826020015160ff16603214155b80156107c75750826020015160ff16603814155b6108025760405162461bcd60e51b8152600401808060200182810382526024815260200180613a266024913960400191505060405180910390fd5b60c8836020015160ff1610610855576040805162461bcd60e51b815260206004820152601460248201527314104e924c8e88149958dbdc99081b1bd8dad95960621b604482015290519081900360640190fd5b826020015160ff166005141580156108755750826020015160ff16603714155b6108b05760405162461bcd60e51b8152600401808060200182810382526030815260200180613e046030913960400191505060405180910390fd5b60e0830151156108f15760405162461bcd60e51b81526004018080602001828103825260368152602001806139686036913960400191505060405180910390fd5b825188146109305760405162461bcd60e51b81526004018080602001828103825260308152602001806138fc6030913960400191505060405180910390fd5b60e083018790526109418984612bc7565b61094e8360600151612c8d565b505060e00151600180559695505050505050565b630a85bd0160e11b95945050505050565b6000600260015414156109bb576040805162461bcd60e51b815260206004820152601f60248201526000805160206138b6833981519152604482015290519081900360640190fd5b6002600181905554600160a01b900460ff1615610a12576040805162461bcd60e51b815260206004820152601060248201526f14185d5cd8589b194e881c185d5cd95960821b604482015290519081900360640190fd5b600f54600854604080516331a9108f60e11b8152600481018890529051879384936001600160a01b0391821693911691636352211e916024808201926020929091908290030181600087803b158015610a6a57600080fd5b505af1158015610a7e573d6000803e3d6000fd5b505050506040513d6020811015610a9457600080fd5b50516001600160a01b031614610adb5760405162461bcd60e51b815260040180806020018281038252602d815260200180613a4a602d913960400191505060405180910390fd5b610ae36137e9565b610aec876128c0565b90506000610afd8260600151612a69565b9050610b07613835565b610b15308460600151612b18565b805190915060ff16610b585760405162461bcd60e51b8152600401808060200182810382526034815260200180613d896034913960400191505060405180910390fd5b8251610bab576040805162461bcd60e51b815260206004820152601c60248201527f50413a54413a205265636f726420646f6573206e6f7420657869737400000000604482015290519081900360640190fd5b60008260ff16118015610bc15750600a8260ff16105b610bfc5760405162461bcd60e51b8152600401808060200182810382526045815260200180613b126045913960600191505060405180910390fd5b6031836020015160ff161180610c15575060058260ff16105b610c505760405162461bcd60e51b815260040180806020018281038252602e815260200180613cef602e913960400191505060405180910390fd5b826020015160ff1660011480610c6d5750826020015160ff166033145b610ca85760405162461bcd60e51b8152600401808060200182810382526027815260200180613d626027913960400191505060405180910390fd5b82518814610ce75760405162461bcd60e51b815260040180806020018281038252602f815260200180613bc5602f913960400191505060405180910390fd5b61ff3783610100015161ffff161015610d0b576101008301805160010161ffff1690525b86610d1857600560208401525b868352610d258984612da1565b610d328360600151612e80565b5050600180555060aa9695505050505050565b60026001541415610d8b576040805162461bcd60e51b815260206004820152601f60248201526000805160206138b6833981519152604482015290519081900360640190fd5b6002600181905554600160a01b900460ff1615610de2576040805162461bcd60e51b815260206004820152601060248201526f14185d5cd8589b194e881c185d5cd95960821b604482015290519081900360640190fd5b610dea6137e9565b610df3856128c0565b90506000610e0084612a69565b9050610e0a61384c565b610e1385612f2b565b9050610e1d61384c565b610e2a8460600151612f2b565b9050610e34613835565b610e3e3088612b18565b805190915060ff16610e815760405162461bcd60e51b8152600401808060200182810382526034815260200180613d896034913960400191505060405180910390fd5b60008460ff16118015610e975750600a8460ff16105b610ed25760405162461bcd60e51b8152600401808060200182810382526045815260200180613caa6045913960600191505060405180910390fd5b60058460ff1610610f145760405162461bcd60e51b815260040180806020018281038252602c815260200180613c14602c913960400191505060405180910390fd5b87610f505760405162461bcd60e51b8152600401808060200182810382526023815260200180613a776023913960400191505060405180910390fd5b60c8856020015160ff1610610fac576040805162461bcd60e51b815260206004820152601960248201527f5450413a4e523a204f6c64205265636f7264206c6f636b656400000000000000604482015290519081900360640190fd5b816020015161ffff16836020015161ffff161415610fd957610fd48989898860a00151612fe2565b610fe5565b610fe589898989612fe2565b610fee876132a5565b50506001805550505050505050565b60026001541415611043576040805162461bcd60e51b815260206004820152601f60248201526000805160206138b6833981519152604482015290519081900360640190fd5b600260015561105133611057565b60018055565b60008054604080516351cff8d960e01b81526001600160a01b038581166004830152915191909216926351cff8d9926024808201939182900301818387803b1580156110a257600080fd5b505af11580156110b6573d6000803e3d6000fd5b5050505050565b6110c5613350565b6002546001600160a01b03908116911614611115576040805162461bcd60e51b81526020600482018190526024820152600080516020613bf4833981519152604482015290519081900360640190fd5b6002600154141561115b576040805162461bcd60e51b815260206004820152601f60248201526000805160206138b6833981519152604482015290519081900360640190fd5b600260015560085460408051632142170760e11b81523060048201526001600160a01b038581166024830152604482018590529151849392909216916342842e0e9160648082019260009290919082900301818387803b1580156111be57600080fd5b505af11580156111d2573d6000803e3d6000fd5b5050600180555050505050565b60026001541415611225576040805162461bcd60e51b815260206004820152601f60248201526000805160206138b6833981519152604482015290519081900360640190fd5b6002600155611232613350565b6002546001600160a01b03908116911614611282576040805162461bcd60e51b81526020600482018190526024820152600080516020613bf4833981519152604482015290519081900360640190fd5b60048054604080516363b8d4c160e11b81526020938101849052600660248201526520a1afaa25a760d11b604482015290516001600160a01b039092169263c771a982926064808401938290030181600087803b1580156112e257600080fd5b505af11580156112f6573d6000803e3d6000fd5b505050506040513d602081101561130c57600080fd5b5051600980546001600160a01b039283166001600160a01b03199182161791829055600a805490911691831691909117905560048054604080516363b8d4c160e11b81526020938101849052600660248201526520a1afa6a3a960d11b60448201529051919093169263c771a9829260648083019391928290030181600087803b15801561139957600080fd5b505af11580156113ad573d6000803e3d6000fd5b505050506040513d60208110156113c357600080fd5b5051600580546001600160a01b039283166001600160a01b0319918216178083556006805490921690841617905560048054604080516363b8d4c160e11b8152602093810184905260248101949094526420afaa25a760d91b60448501525193169263c771a9829260648082019392918290030181600087803b15801561144957600080fd5b505af115801561145d573d6000803e3d6000fd5b505050506040513d602081101561147357600080fd5b5051600780546001600160a01b039283166001600160a01b0319918216178083556008805490921690841617905560048054604080516363b8d4c160e11b8152602093810184905260248101949094526622a1a92fa6a3a960c91b60448501525193169263c771a9829260648082019392918290030181600087803b1580156114fb57600080fd5b505af115801561150f573d6000803e3d6000fd5b505050506040513d602081101561152557600080fd5b5051600b80546001600160a01b039283166001600160a01b03199182161791829055600c805490911691831691909117905560048054604080516363b8d4c160e11b81526020938101849052600360248201526204150560ec1b60448201529051919093169263c771a9829260648083019391928290030181600087803b1580156115af57600080fd5b505af11580156115c3573d6000803e3d6000fd5b505050506040513d60208110156115d957600080fd5b5051600f80546001600160a01b0319166001600160a01b0392831617905560048054604080516363b8d4c160e11b8152602093810184905260066024820152654150505f4e4360d01b60448201529051919093169263c771a9829260648083019391928290030181600087803b15801561165257600080fd5b505af1158015611666573d6000803e3d6000fd5b505050506040513d602081101561167c57600080fd5b5051601080546001600160a01b0319166001600160a01b0392831617905560048054604080516363b8d4c160e11b815260208185018190526024820194909452632921a62960e11b60448201529051919093169263c771a9829260648083019391928290030181600087803b1580156116f457600080fd5b505af1158015611708573d6000803e3d6000fd5b505050506040513d602081101561171e57600080fd5b5051600d80546001600160a01b03199081166001600160a01b039384161791829055600e805492909316911617905560018055565b600254600160a01b900460ff1690565b61176b613350565b6002546001600160a01b039081169116146117bb576040805162461bcd60e51b81526020600482018190526024820152600080516020613bf4833981519152604482015290519081900360640190fd5b6002546040516000916001600160a01b0316907f8be0079c531659141344cd1fd0a4f28419497f9722a3daafe3b4186f6b6457e0908390a3600280546001600160a01b0319169055565b6002546001600160a01b031690565b61181c613350565b6002546001600160a01b0390811691161461186c576040805162461bcd60e51b81526020600482018190526024820152600080516020613bf4833981519152604482015290519081900360640190fd5b611874613354565b565b61187e613350565b6002546001600160a01b039081169116146118ce576040805162461bcd60e51b81526020600482018190526024820152600080516020613bf4833981519152604482015290519081900360640190fd5b60026001541415611914576040805162461bcd60e51b815260206004820152601f60248201526000805160206138b6833981519152604482015290519081900360640190fd5b6002600155600a5460408051632142170760e11b81523060048201526001600160a01b038581166024830152604482018590529151849392909216916342842e0e9160648082019260009290919082900301818387803b1580156111be57600080fd5b6000600260015414156119bf576040805162461bcd60e51b815260206004820152601f60248201526000805160206138b6833981519152604482015290519081900360640190fd5b6002600181905554600160a01b900460ff1615611a16576040805162461bcd60e51b815260206004820152601060248201526f14185d5cd8589b194e881c185d5cd95960821b604482015290519081900360640190fd5b600f54600854604080516331a9108f60e11b8152600481018790529051869384936001600160a01b0391821693911691636352211e916024808201926020929091908290030181600087803b158015611a6e57600080fd5b505af1158015611a82573d6000803e3d6000fd5b505050506040513d6020811015611a9857600080fd5b50516001600160a01b031614611adf5760405162461bcd60e51b815260040180806020018281038252602d815260200180613a4a602d913960400191505060405180910390fd5b611ae76137e9565b611af0866128c0565b90506000611b018260600151612a69565b9050611b0b613835565b611b19308460600151612b18565b805190915060ff16611b5c5760405162461bcd60e51b8152600401808060200182810382526034815260200180613d896034913960400191505060405180910390fd5b8251611baf576040805162461bcd60e51b815260206004820152601d60248201527f50413a464d523a205265636f726420646f6573206e6f74206578697374000000604482015290519081900360640190fd5b8160ff16600114611bf15760405162461bcd60e51b8152600401808060200182810382526047815260200180613dbd6047913960600191505060405180910390fd5b86611c2d5760405162461bcd60e51b8152600401808060200182810382526024815260200180613c866024913960400191505060405180910390fd5b826020015160ff16600314158015611c4d5750826020015160ff16600414155b8015611c615750826020015160ff16603514155b8015611c755750826020015160ff16603614155b611cb05760405162461bcd60e51b81526004018080602001828103825260348152602001806139cf6034913960400191505060405180910390fd5b826020015160ff16600614158015611cd05750826020015160ff16603214155b8015611ce45750826020015160ff16603814155b611d1f5760405162461bcd60e51b8152600401808060200182810382526025815260200180613a9a6025913960400191505060405180910390fd5b826020015160ff16600514158015611d3f5750826020015160ff16603714155b611d7a5760405162461bcd60e51b815260040180806020018281038252603181526020018061399e6031913960400191505060405180910390fd5b60c8836020015160ff1610611dce576040805162461bcd60e51b815260206004820152601560248201527414104e9193548e88149958dbdc99081b1bd8dad959605a1b604482015290519081900360640190fd5b60ff836040015160ff161015611ded5760408301805160010160ff1690525b61ff3783610100015161ffff161015611e11576101008301805160010161ffff1690525b60006020840152868352611e258884612da1565b611e3283606001516133fc565b5050604001516001805595945050505050565b611e4d613350565b6002546001600160a01b03908116911614611e9d576040805162461bcd60e51b81526020600482018190526024820152600080516020613bf4833981519152604482015290519081900360640190fd5b6118746134a7565b600060026001541415611eed576040805162461bcd60e51b815260206004820152601f60248201526000805160206138b6833981519152604482015290519081900360640190fd5b6002600181905554600160a01b900460ff1615611f44576040805162461bcd60e51b815260206004820152601060248201526f14185d5cd8589b194e881c185d5cd95960821b604482015290519081900360640190fd5b600f54600854604080516331a9108f60e11b8152600481018890529051879384936001600160a01b0391821693911691636352211e916024808201926020929091908290030181600087803b158015611f9c57600080fd5b505af1158015611fb0573d6000803e3d6000fd5b505050506040513d6020811015611fc657600080fd5b50516001600160a01b03161461200d5760405162461bcd60e51b815260040180806020018281038252602d815260200180613a4a602d913960400191505060405180910390fd5b6120156137e9565b61201e876128c0565b9050600061202b86612a69565b9050612035613835565b612043308460600151612b18565b805190915060ff166120865760405162461bcd60e51b8152600401808060200182810382526034815260200180613d896034913960400191505060405180910390fd5b82516120d9576040805162461bcd60e51b815260206004820152601c60248201527f50413a49413a205265636f726420646f6573206e6f7420657869737400000000604482015290519081900360640190fd5b60038260ff161061211b5760405162461bcd60e51b815260040180806020018281038252602d815260200180613abf602d913960400191505060405180910390fd5b60008260ff161180156121315750600a8260ff16105b61216c5760405162461bcd60e51b8152600401808060200182810382526045815260200180613b576045913960600191505060405180910390fd5b60065460608401516040805163f9499f1960e01b815261ffff808c1660048301529092166024830152516001600160a01b039092169163f9499f19916044808201926020929091908290030181600087803b1580156121ca57600080fd5b505af11580156121de573d6000803e3d6000fd5b505050506040513d60208110156121f457600080fd5b505160ff1660aa146122375760405162461bcd60e51b8152600401808060200182810382526023815260200180613a036023913960400191505060405180910390fd5b826020015160ff16600514806122545750826020015160ff166037145b806122665750826020015160ff166046145b6122a15760405162461bcd60e51b815260040180806020018281038252603c81526020018061392c603c913960400191505060405180910390fd5b60ff836040015160ff1610156122c05760408301805160010160ff1690525b600060208401528783526122d48984612da1565b600480546040805162d649d560e31b81529283018c905261ffff8a166024840152516001600160a01b03909116916306b24ea891604480830192600092919082900301818387803b15801561232857600080fd5b505af115801561233c573d6000803e3d6000fd5b5050505061234d83606001516132a5565b505060200151600180559695505050505050565b612369613350565b6002546001600160a01b039081169116146123b9576040805162461bcd60e51b81526020600482018190526024820152600080516020613bf4833981519152604482015290519081900360640190fd5b6001600160a01b0381166123fe5760405162461bcd60e51b8152600401808060200182810382526026815260200180613aec6026913960400191505060405180910390fd5b600480546001600160a01b0319166001600160a01b0392909216919091179055565b60008054604080516371d4ed8d60e11b81526001600160a01b0385811660048301529151919092169163e3a9db1a916024808301926020929190829003018186803b15801561246e57600080fd5b505afa158015612482573d6000803e3d6000fd5b505050506040513d602081101561249857600080fd5b505192915050565b6000600260015414156124e8576040805162461bcd60e51b815260206004820152601f60248201526000805160206138b6833981519152604482015290519081900360640190fd5b6002600181905554600160a01b900460ff161561253f576040805162461bcd60e51b815260206004820152601060248201526f14185d5cd8589b194e881c185d5cd95960821b604482015290519081900360640190fd5b600f54600854604080516331a9108f60e11b8152600481018790529051869384936001600160a01b0391821693911691636352211e916024808201926020929091908290030181600087803b15801561259757600080fd5b505af11580156125ab573d6000803e3d6000fd5b505050506040513d60208110156125c157600080fd5b50516001600160a01b0316146126085760405162461bcd60e51b815260040180806020018281038252602d815260200180613a4a602d913960400191505060405180910390fd5b846126116137e9565b61261a876128c0565b9050600061262b8260600151612a69565b9050612635613835565b612643308460600151612b18565b805190915060ff166126865760405162461bcd60e51b8152600401808060200182810382526034815260200180613d896034913960400191505060405180910390fd5b60008260ff1611801561269c5750600a8260ff16105b6126d75760405162461bcd60e51b8152600401808060200182810382526046815260200180613c406046913960600191505060405180910390fd5b826020015160ff1660331461271d5760405162461bcd60e51b8152600401808060200182810382526029815260200180613b9c6029913960400191505060405180910390fd5b6046602084015261010083015161ff3761ffff909116101561274a576101008301805160010161ffff1690525b60085460408051632142170760e11b81523060048201526001600160a01b038b8116602483015260448201889052915191909216916342842e0e91606480830192600092919082900301818387803b1580156127a557600080fd5b505af11580156127b9573d6000803e3d6000fd5b5050505061234d8984612da1565b6127cf613350565b6002546001600160a01b0390811691161461281f576040805162461bcd60e51b81526020600482018190526024820152600080516020613bf4833981519152604482015290519081900360640190fd5b6001600160a01b0381166128645760405162461bcd60e51b81526004018080602001828103825260268152602001806138d66026913960400191505060405180910390fd5b6002546040516001600160a01b038084169216907f8be0079c531659141344cd1fd0a4f28419497f9722a3daafe3b4186f6b6457e090600090a3600280546001600160a01b0319166001600160a01b0392909216919091179055565b6128c86137e9565b6128d06137e9565b6000806000806000806000806000600460009054906101000a90046001600160a01b03166001600160a01b031663e248f2c48d6040518263ffffffff1660e01b81526004018082815260200191505061012060405180830381600087803b15801561293a57600080fd5b505af115801561294e573d6000803e3d6000fd5b505050506040513d61012081101561296557600080fd5b81019080805190602001909291908051906020019092919080519060200190929190805190602001909291908051906020019092919080519060200190929190805190602001909291908051906020019092919080519060200190929190505050985098509850985098509850985098509850888a6000018181525050878a6020019060ff16908160ff1681525050868a6040019060ff16908160ff1681525050858a6060019061ffff16908161ffff1681525050848a6080018181525050838a60a0018181525050828a60c0018181525050818a60e0018181525050808a610100019061ffff16908161ffff168152505050505050505050505080915050919050565b600654604080513360601b6020808301919091528251808303601401815260348301808552815191830191909120631ca5afc760e21b909152603883015261ffff85166058830152915160009384936001600160a01b0390911692637296bf1c9260788083019392829003018186803b158015612ae557600080fd5b505afa158015612af9573d6000803e3d6000fd5b505050506040513d6020811015612b0f57600080fd5b50519392505050565b612b20613835565b612b28613835565b6004805460408051634f3f9fb160e11b81526001600160a01b038881169482019490945261ffff8716602482015281519390921692639e7f3f629260448082019392918290030181600087803b158015612b8157600080fd5b505af1158015612b95573d6000803e3d6000fd5b505050506040513d6040811015612bab57600080fd5b5080516020918201519183019190915260ff1681529392505050565b600254600160a01b900460ff1615612c19576040805162461bcd60e51b815260206004820152601060248201526f14185d5cd8589b194e881c185d5cd95960821b604482015290519081900360640190fd5b6004805460e08301516040805163a919304560e01b81529384018690526024840191909152516001600160a01b039091169163a919304591604480830192600092919082900301818387803b158015612c7157600080fd5b505af1158015612c85573d6000803e3d6000fd5b505050505050565b600254600160a01b900460ff1615612cdf576040805162461bcd60e51b815260206004820152601060248201526f14185d5cd8589b194e881c185d5cd95960821b604482015290519081900360640190fd5b612ce761387b565b60065460408051632ad0302f60e01b815261ffff8516600482015290516001600160a01b0390921691632ad0302f916024808201926080929091908290030181600087803b158015612d3857600080fd5b505af1158015612d4c573d6000803e3d6000fd5b505050506040513d6080811015612d6257600080fd5b508051602080830151604080850151606095860151958701959095526001600160a01b039485169086015290840152168152612d9d81613535565b5050565b600254600160a01b900460ff1615612df3576040805162461bcd60e51b815260206004820152601060248201526f14185d5cd8589b194e881c185d5cd95960821b604482015290519081900360640190fd5b6004805482516020840151608085015160408087015161010088015182516302ee483d60e11b81529788018a9052602488019590955260ff938416604488015260648701929092529116608485015261ffff90911660a4840152516001600160a01b03909116916305dc907a9160c480830192600092919082900301818387803b158015612c7157600080fd5b600254600160a01b900460ff1615612ed2576040805162461bcd60e51b815260206004820152601060248201526f14185d5cd8589b194e881c185d5cd95960821b604482015290519081900360640190fd5b612eda61387b565b60065460408051637107d88b60e11b815261ffff8516600482015290516001600160a01b039092169163e20fb116916024808201926080929091908290030181600087803b158015612d3857600080fd5b612f3361384c565b612f3b61384c565b60065460408051634b09ab8160e11b815261ffff8616600482015290516001600160a01b03909216916396135702916024808201926060929091908290030181600087803b158015612f8c57600080fd5b505af1158015612fa0573d6000803e3d6000fd5b505050506040513d6060811015612fb657600080fd5b508051602080830151604093840151606086015260ff169284019290925261ffff169082015292915050565b83612feb61384c565b612ff484612f2b565b6008546040805162491fcf60e11b81526004810186905290519293506001600160a01b039091169162923f9e916024808201926020929091908290030181600087803b15801561304357600080fd5b505af1158015613057573d6000803e3d6000fd5b505050506040513d602081101561306d57600080fd5b505160ff16156130c4576040805162461bcd60e51b815260206004820181905260248201527f50433a43523a417373657420746f6b656e20616c726561647920657869737473604482015290519081900360640190fd5b806040015160ff166001141561317357600854604080516354a19c2b60e01b815230600482015260248101859052606060448201526007606482015266707275662e696f60c81b608482015290516001600160a01b03909216916354a19c2b9160a4808201926020929091908290030181600087803b15801561314657600080fd5b505af115801561315a573d6000803e3d6000fd5b505050506040513d602081101561317057600080fd5b50505b806040015160ff166002141561322257600854604080516354a19c2b60e01b815233600482015260248101859052606060448201526007606482015266707275662e696f60c81b608482015290516001600160a01b03909216916354a19c2b9160a4808201926020929091908290030181600087803b1580156131f557600080fd5b505af1158015613209573d6000803e3d6000fd5b505050506040513d602081101561321f57600080fd5b50505b60048054604080516373a7109360e01b81529283018990526024830188905261ffff8716604484015260648301869052516001600160a01b03909116916373a7109391608480830192600092919082900301818387803b15801561328557600080fd5b505af1158015613299573d6000803e3d6000fd5b50505050505050505050565b600254600160a01b900460ff16156132f7576040805162461bcd60e51b815260206004820152601060248201526f14185d5cd8589b194e881c185d5cd95960821b604482015290519081900360640190fd5b6132ff61387b565b60065460408051631e54e15b60e21b815261ffff8516600482015290516001600160a01b0390921691637953856c916024808201926080929091908290030181600087803b158015612d3857600080fd5b3390565b600254600160a01b900460ff166133a9576040805162461bcd60e51b815260206004820152601460248201527314185d5cd8589b194e881b9bdd081c185d5cd95960621b604482015290519081900360640190fd5b6002805460ff60a01b191690557f5db9ee0a495bf2e6ff9c91a7834c1ba4fdd244a5e8aa4e537bd38aeae4b073aa6133df613350565b604080516001600160a01b039092168252519081900360200190a1565b600254600160a01b900460ff161561344e576040805162461bcd60e51b815260206004820152601060248201526f14185d5cd8589b194e881c185d5cd95960821b604482015290519081900360640190fd5b61345661387b565b60065460408051633e4aa05160e21b815261ffff8516600482015290516001600160a01b039092169163f92a8144916024808201926080929091908290030181600087803b158015612d3857600080fd5b600254600160a01b900460ff16156134f9576040805162461bcd60e51b815260206004820152601060248201526f14185d5cd8589b194e881c185d5cd95960821b604482015290519081900360640190fd5b6002805460ff60a01b1916600160a01b1790557f62e78cea01bee320cd4e420270b5ea74000d11b0c9f74754ebdbfc544b05a2586133df613350565b600254600160a01b900460ff1615613587576040805162461bcd60e51b815260206004820152601060248201526f14185d5cd8589b194e881c185d5cd95960821b604482015290519081900360640190fd5b60608101516020820151349160009182916135a8919063ffffffff61364516565b9050803410156135ff576040805162461bcd60e51b815260206004820152601860248201527f50433a44503a2054582076616c756520746f6f206c6f772e0000000000000000604482015290519081900360640190fd5b61360f838263ffffffff6136a616565b9150613623846000015185602001516136e8565b613635846040015185606001516136e8565b61363f33836136e8565b50505050565b60008282018381101561369f576040805162461bcd60e51b815260206004820152601b60248201527f536166654d6174683a206164646974696f6e206f766572666c6f770000000000604482015290519081900360640190fd5b9392505050565b600061369f83836040518060400160405280601e81526020017f536166654d6174683a207375627472616374696f6e206f766572666c6f770000815250613752565b600080546040805163f340fa0160e01b81526001600160a01b0386811660048301529151919092169263f340fa019285926024808301939282900301818588803b15801561373557600080fd5b505af1158015613749573d6000803e3d6000fd5b50505050505050565b600081848411156137e15760405162461bcd60e51b81526004018080602001828103825283818151815260200191508051906020019080838360005b838110156137a657818101518382015260200161378e565b50505050905090810190601f1680156137d35780820380516001836020036101000a031916815260200191505b509250505060405180910390fd5b505050900390565b6040805161012081018252600080825260208201819052918101829052606081018290526080810182905260a0810182905260c0810182905260e0810182905261010081019190915290565b604080518082019091526000808252602082015290565b604051806080016040528060608152602001600061ffff168152602001600060ff168152602001600081525090565b604051806080016040528060006001600160a01b031681526020016000815260200160006001600160a01b0316815260200160008152509056fe5265656e7472616e637947756172643a207265656e7472616e742063616c6c004f776e61626c653a206e6577206f776e657220697320746865207a65726f206164647265737350413a49323a20526967687473686f6c64657220646f6573206e6f74206d6174636820737570706c696564206461746150413a49413a204f6e6c79205472616e73666572726564206f72206578706f72746564206173736574732063616e206265207265696d706f7274656450413a49323a20497066733220686173206461746120616c72656164792e204f7665727772697465206e6f74207065726d697474656450413a464d523a205265636f726420496e205472616e736665727265642d756e726567697374657265642073746174757350413a464d523a2043616e6e6f74206d6f6469667920617373657420696e206c6f7374206f722073746f6c656e207374617475735450413a49413a43616e6e6f74206368616e676520414320746f206e657720726f6f7450413a49323a2043616e6e6f74206d6f6469667920617373657420696e20457363726f7750413a49413a20437573746f6469616c20636f6e747261637420646f6573206e6f7420686f6c6420746f6b656e50413a4e523a2072696768747320686f6c6465722063616e6e6f74206265207a65726f50413a464d523a2043616e6e6f74206d6f6469667920617373657420696e20457363726f7750413a49413a2055736572206e6f7420617574686f72697a656420746f207265696d706f72742061737365747350423a5353433a2073746f7261676520616464726573732063616e6e6f74206265207a65726f50413a54413a2055736572206e6f7420617574686f72697a656420746f206d6f64696679207265636f72647320696e2073706563696669656420617373657420636c61737350413a49413a2055736572206e6f7420617574686f72697a656420746f206d6f64696679207265636f72647320696e2073706563696669656420617373657420636c617373504e503a45413a20417373657420737461747573206d75737420626520353120746f206578706f727450413a54413a526967687473686f6c64657220646f6573206e6f74206d6174636820737570706c69656420646174614f776e61626c653a2063616c6c6572206973206e6f7420746865206f776e657250413a4e523a2055736572206e6f7420617574686f72697a656420746f20637265617465207265636f726473504e503a45413a2055736572206e6f7420617574686f72697a656420746f206d6f64696679207265636f72647320696e2073706563696669656420617373657420636c61737350413a464d523a2072696768747320686f6c6465722063616e6e6f74206265207a65726f50413a4e523a2055736572206e6f7420617574686f72697a656420746f20637265617465207265636f72647320696e2073706563696669656420617373657420636c61737350413a54413a4f6e6c79207573657274797065203c20352063616e206368616e676520737461747573203c20353050413a49323a2055736572206e6f7420617574686f72697a656420746f206d6f64696679207265636f72647320696e2073706563696669656420617373657420636c61737350413a54413a417373657420737461747573206973206e6f74207472616e736665727261626c65504e503a4d533a20436f6e7472616374206e6f7420617574686f72697a656420666f72207468697320617373657420636c61737350413a464d523a2055736572206e6f7420617574686f72697a656420746f20666f726365206d6f64696679207265636f72647320696e207468697320617373657420636c61737350413a49323a205265636f726420496e205472616e736665727265642d756e7265676973746572656420737461747573a2646970667358221220728c6928f3b5e1a1cdade5bbbb393aab686ad0c9148e81cfd8f4f8d680494ae764736f6c63430006090033608060405234801561001057600080fd5b5060006100246001600160e01b0361007316565b600080546001600160a01b0319166001600160a01b0383169081178255604051929350917f8be0079c531659141344cd1fd0a4f28419497f9722a3daafe3b4186f6b6457e0908290a350610077565b3390565b6106de806100866000396000f3fe6080604052600436106100555760003560e01c806351cff8d91461005a578063715018a61461008f5780638da5cb5b146100a4578063e3a9db1a146100d5578063f2fde38b1461011a578063f340fa011461014d575b600080fd5b34801561006657600080fd5b5061008d6004803603602081101561007d57600080fd5b50356001600160a01b0316610173565b005b34801561009b57600080fd5b5061008d61023c565b3480156100b057600080fd5b506100b96102de565b604080516001600160a01b039092168252519081900360200190f35b3480156100e157600080fd5b50610108600480360360208110156100f857600080fd5b50356001600160a01b03166102ed565b60408051918252519081900360200190f35b34801561012657600080fd5b5061008d6004803603602081101561013d57600080fd5b50356001600160a01b0316610308565b61008d6004803603602081101561016357600080fd5b50356001600160a01b0316610400565b61017b6104d9565b6000546001600160a01b039081169116146101cb576040805162461bcd60e51b81526020600482018190526024820152600080516020610689833981519152604482015290519081900360640190fd5b6001600160a01b03811660008181526001602052604081208054919055906101f9908263ffffffff6104dd16565b6040805182815290516001600160a01b038416917f7084f5476618d8e60b11ef0d7d3f06914655adb8793e28ff7f018d4c76d505d5919081900360200190a25050565b6102446104d9565b6000546001600160a01b03908116911614610294576040805162461bcd60e51b81526020600482018190526024820152600080516020610689833981519152604482015290519081900360640190fd5b600080546040516001600160a01b03909116907f8be0079c531659141344cd1fd0a4f28419497f9722a3daafe3b4186f6b6457e0908390a3600080546001600160a01b0319169055565b6000546001600160a01b031690565b6001600160a01b031660009081526001602052604090205490565b6103106104d9565b6000546001600160a01b03908116911614610360576040805162461bcd60e51b81526020600482018190526024820152600080516020610689833981519152604482015290519081900360640190fd5b6001600160a01b0381166103a55760405162461bcd60e51b81526004018080602001828103825260268152602001806106296026913960400191505060405180910390fd5b600080546040516001600160a01b03808516939216917f8be0079c531659141344cd1fd0a4f28419497f9722a3daafe3b4186f6b6457e091a3600080546001600160a01b0319166001600160a01b0392909216919091179055565b6104086104d9565b6000546001600160a01b03908116911614610458576040805162461bcd60e51b81526020600482018190526024820152600080516020610689833981519152604482015290519081900360640190fd5b6001600160a01b0381166000908152600160205260409020543490610483908263ffffffff6105c716565b6001600160a01b038316600081815260016020908152604091829020939093558051848152905191927f2da466a7b24304f47e87fa2e1e5a81b9831ce54fec19055ce277ca2f39ba42c492918290030190a25050565b3390565b80471015610532576040805162461bcd60e51b815260206004820152601d60248201527f416464726573733a20696e73756666696369656e742062616c616e6365000000604482015290519081900360640190fd5b6040516000906001600160a01b0384169083908381818185875af1925050503d806000811461057d576040519150601f19603f3d011682016040523d82523d6000602084013e610582565b606091505b50509050806105c25760405162461bcd60e51b815260040180806020018281038252603a81526020018061064f603a913960400191505060405180910390fd5b505050565b600082820183811015610621576040805162461bcd60e51b815260206004820152601b60248201527f536166654d6174683a206164646974696f6e206f766572666c6f770000000000604482015290519081900360640190fd5b939250505056fe4f776e61626c653a206e6577206f776e657220697320746865207a65726f2061646472657373416464726573733a20756e61626c6520746f2073656e642076616c75652c20726563697069656e74206d617920686176652072657665727465644f776e61626c653a2063616c6c6572206973206e6f7420746865206f776e6572a2646970667358221220a00d6aa6d96b7e14cf44ef151b801d41a0d6f22be9568d55aded0e5dc41900ac64736f6c63430006090033",
  "source": "/*-----------------------------------------------------------V0.6.7\r\n__/\\\\\\\\\\\\\\\\\\\\\\\\\\ _____/\\\\\\\\\\\\\\\\\\ _______/\\\\../\\\\ ___/\\\\\\\\\\\\\\\\\\\\\\\\\\\\\\\r\n _\\/\\\\\\/////////\\\\\\ _/\\\\\\///////\\\\\\ ____\\//..\\//____\\/\\\\\\///////////__\r\n  _\\/\\\\\\.......\\/\\\\\\.\\/\\\\\\.....\\/\\\\\\ ________________\\/\\\\\\ ____________\r\n   _\\/\\\\\\\\\\\\\\\\\\\\\\\\\\/__\\/\\\\\\\\\\\\\\\\\\\\\\/_____/\\\\\\____/\\\\\\.\\/\\\\\\\\\\\\\\\\\\\\\\ ____\r\n    _\\/\\\\\\/////////____\\/\\\\\\//////\\\\\\ ___\\/\\\\\\___\\/\\\\\\.\\/\\\\\\///////______\r\n     _\\/\\\\\\ ____________\\/\\\\\\ ___\\//\\\\\\ __\\/\\\\\\___\\/\\\\\\.\\/\\\\\\ ____________\r\n      _\\/\\\\\\ ____________\\/\\\\\\ ____\\//\\\\\\ _\\/\\\\\\___\\/\\\\\\.\\/\\\\\\ ____________\r\n       _\\/\\\\\\ ____________\\/\\\\\\ _____\\//\\\\\\.\\//\\\\\\\\\\\\\\\\\\ _\\/\\\\\\ ____________\r\n        _\\/// _____________\\/// _______\\/// __\\///////// __\\/// _____________\r\n         *-------------------------------------------------------------------*/\r\n\r\n/*-----------------------------------------------------------------\r\n *  TO DO\r\n *\r\n *----------------------------------------------------------------*/\r\n\r\n// SPDX-License-Identifier: UNLICENSED\r\npragma solidity ^0.6.7;\r\n\r\nimport \"./PRUF_CORE.sol\";\r\n\r\ncontract APP is CORE {\r\n    modifier isAuthorized(bytes32 _idxHash) override {\r\n        //require that user is authorized and token is held by contract\r\n        uint256 tokenID = uint256(_idxHash);\r\n        require(\r\n            (AssetTokenContract.ownerOf(tokenID) == PrufAppAddress),\r\n            \"PA:IA: Custodial contract does not hold token\"\r\n        );\r\n        _;\r\n    }\r\n\r\n    //--------------------------------------------External Functions--------------------------\r\n    /*\r\n     * @dev Wrapper for newRecord\r\n     */\r\n    function $newRecord(\r\n        bytes32 _idxHash,\r\n        bytes32 _rgtHash,\r\n        uint16 _assetClass,\r\n        uint256 _countDownStart\r\n    ) external payable nonReentrant whenNotPaused {\r\n        Record memory rec = getRecord(_idxHash);\r\n        uint8 userType = getUserType(_assetClass);\r\n        AC memory AC_info = getACinfo(_assetClass);\r\n        AC memory oldAC_info = getACinfo(rec.assetClass);\r\n        ContractDataHash memory contractInfo = getContractInfo(address(this),_assetClass);\r\n\r\n        require(\r\n            contractInfo.contractType > 0,\r\n            \"PNP:MS: Contract not authorized for this asset class\"\r\n        );\r\n        require(\r\n            (userType > 0) && (userType < 10),\r\n            \"PA:NR: User not authorized to create records in specified asset class\"\r\n        );\r\n        require(userType < 5, \"PA:NR: User not authorized to create records\");\r\n        require(_rgtHash != 0, \"PA:NR: rights holder cannot be zero\");\r\n        require(rec.assetStatus < 200, \"TPA:NR: Old Record locked\");\r\n        //^^^^^^^checks^^^^^^^^^\r\n\r\n        //bytes32 userHash = keccak256(abi.encodePacked(msg.sender));\r\n        //^^^^^^^effects^^^^^^^^^\r\n\r\n        if (AC_info.assetClassRoot == oldAC_info.assetClassRoot) {\r\n            createRecord(\r\n                _idxHash,\r\n                _rgtHash,\r\n                _assetClass,\r\n                rec.countDownStart\r\n            );\r\n        } else {\r\n            createRecord(\r\n                _idxHash,\r\n                _rgtHash,\r\n                _assetClass,\r\n                _countDownStart\r\n            );\r\n        }\r\n        deductNewRecordCosts(_assetClass);\r\n        //^^^^^^^interactions^^^^^^^^^\r\n    }\r\n\r\n    /*\r\n     *     @dev Export FROM Custodial:\r\n     */\r\n    function exportAsset(bytes32 _idxHash, address _addr)\r\n        external\r\n        nonReentrant\r\n        whenNotPaused\r\n        isAuthorized(_idxHash)\r\n        returns (uint8)\r\n    {\r\n        uint256 tokenId = uint256(_idxHash);\r\n        Record memory rec = getRecord(_idxHash);\r\n        uint8 userType = getUserType(rec.assetClass);\r\n        ContractDataHash memory contractInfo = getContractInfo(address(this),rec.assetClass);\r\n\r\n        require(\r\n            contractInfo.contractType > 0,\r\n            \"PNP:MS: Contract not authorized for this asset class\"\r\n        );\r\n        require(\r\n            (userType > 0) && (userType < 10),\r\n            \"PNP:EA: User not authorized to modify records in specified asset class\"\r\n        );\r\n        require( // require transferrable (51) status\r\n            rec.assetStatus == 51,\r\n            \"PNP:EA: Asset status must be 51 to export\"\r\n        );\r\n        //^^^^^^^checks^^^^^^^^^\r\n\r\n        rec.assetStatus = 70; // Set status to 70 (exported)\r\n\r\n        if (rec.numberOfTransfers < 65335) {\r\n            rec.numberOfTransfers++;\r\n        }\r\n        //^^^^^^^effects^^^^^^^^^\r\n\r\n        AssetTokenContract.safeTransferFrom(address(this), _addr, tokenId); // sends token to rightsholder wallet (specified by auth user)\r\n        writeRecord(_idxHash, rec);\r\n\r\n        return rec.assetStatus;\r\n        //^^^^^^^interactions^^^^^^^^^\r\n    }\r\n\r\n    /*\r\n     * @dev Modify **Record**.rightsHolder without confirmation required\r\n     */\r\n    function $forceModRecord(bytes32 _idxHash, bytes32 _rgtHash)\r\n        external\r\n        payable\r\n        nonReentrant\r\n        whenNotPaused\r\n        isAuthorized(_idxHash)\r\n        returns (uint8)\r\n    {\r\n        Record memory rec = getRecord(_idxHash);\r\n        uint8 userType = getUserType(rec.assetClass);\r\n        ContractDataHash memory contractInfo = getContractInfo(address(this),rec.assetClass);\r\n\r\n        require(\r\n            contractInfo.contractType > 0,\r\n            \"PNP:MS: Contract not authorized for this asset class\"\r\n        );\r\n\r\n        require((rec.rightsHolder != 0), \"PA:FMR: Record does not exist\");\r\n\r\n        require(\r\n            userType == 1,\r\n            \"PA:FMR: User not authorized to force modify records in this asset class\"\r\n        );\r\n        require(_rgtHash != 0, \"PA:FMR: rights holder cannot be zero\");\r\n        require(\r\n            (rec.assetStatus != 3) &&\r\n                (rec.assetStatus != 4) &&\r\n                (rec.assetStatus != 53) &&\r\n                (rec.assetStatus != 54),\r\n            \"PA:FMR: Cannot modify asset in lost or stolen status\"\r\n        );\r\n        require(\r\n            (rec.assetStatus != 6) &&\r\n                (rec.assetStatus != 50) &&\r\n                (rec.assetStatus != 56),\r\n            \"PA:FMR: Cannot modify asset in Escrow\"\r\n        );\r\n        require(\r\n            (rec.assetStatus != 5) && (rec.assetStatus != 55),\r\n            \"PA:FMR: Record In Transferred-unregistered status\"\r\n        );\r\n        require(rec.assetStatus < 200, \"PA:FMR: Record locked\");\r\n        //^^^^^^^checks^^^^^^^^^\r\n\r\n        if (rec.forceModCount < 255) {\r\n            rec.forceModCount++;\r\n        }\r\n\r\n        if (rec.numberOfTransfers < 65335) {\r\n            rec.numberOfTransfers++;\r\n        }\r\n\r\n        rec.assetStatus = 0;\r\n        rec.rightsHolder = _rgtHash;\r\n        //^^^^^^^effects^^^^^^^^^\r\n\r\n        writeRecord(_idxHash, rec);\r\n\r\n        deductForceModifyCosts(rec.assetClass);\r\n\r\n        return rec.forceModCount;\r\n        //^^^^^^^interactions^^^^^^^^^\r\n    }\r\n\r\n    /*\r\n     * @dev Transfer Rights to new rightsHolder with confirmation\r\n     */\r\n    function $transferAsset(\r\n        bytes32 _idxHash,\r\n        bytes32 _rgtHash,\r\n        bytes32 _newrgtHash\r\n    )\r\n        external\r\n        payable\r\n        nonReentrant\r\n        whenNotPaused\r\n        isAuthorized(_idxHash)\r\n        returns (uint8)\r\n    {\r\n        Record memory rec = getRecord(_idxHash);\r\n        uint8 userType = getUserType(rec.assetClass);\r\n        ContractDataHash memory contractInfo = getContractInfo(address(this),rec.assetClass);\r\n\r\n        require(\r\n            contractInfo.contractType > 0,\r\n            \"PNP:MS: Contract not authorized for this asset class\"\r\n        );\r\n        require((rec.rightsHolder != 0), \"PA:TA: Record does not exist\");\r\n        require(\r\n            (userType > 0) && (userType < 10),\r\n            \"PA:TA: User not authorized to modify records in specified asset class\"\r\n        );\r\n        require(\r\n            (rec.assetStatus > 49) || (userType < 5),\r\n            \"PA:TA:Only usertype < 5 can change status < 50\"\r\n        );\r\n        require(\r\n            (rec.assetStatus == 1) || (rec.assetStatus == 51),\r\n            \"PA:TA:Asset status is not transferrable\"\r\n        );\r\n        require(\r\n            rec.rightsHolder == _rgtHash,\r\n            \"PA:TA:Rightsholder does not match supplied data\"\r\n        );\r\n        //^^^^^^^checks^^^^^^^^^\r\n        if (rec.numberOfTransfers < 65335) {\r\n            rec.numberOfTransfers++;\r\n        }\r\n\r\n        if(_newrgtHash == 0x0){ //set to transferred status\r\n            rec.assetStatus = 5;\r\n        }\r\n\r\n        rec.rightsHolder = _newrgtHash;\r\n        //^^^^^^^effects^^^^^^^^^\r\n\r\n        writeRecord(_idxHash, rec);\r\n\r\n        deductTransferAssetCosts(rec.assetClass);\r\n\r\n        return (170);\r\n        //^^^^^^^interactions^^^^^^^^^\r\n    }\r\n\r\n    /*\r\n     * @dev Modify **Record**.Ipfs2 with confirmation\r\n     */\r\n    function $addIpfs2Note(\r\n        bytes32 _idxHash,\r\n        bytes32 _rgtHash,\r\n        bytes32 _IpfsHash\r\n    )\r\n        external\r\n        payable\r\n        nonReentrant\r\n        whenNotPaused\r\n        isAuthorized(_idxHash)\r\n        returns (bytes32)\r\n    {\r\n        Record memory rec = getRecord(_idxHash);\r\n        uint8 userType = getUserType(rec.assetClass);\r\n        ContractDataHash memory contractInfo = getContractInfo(address(this),rec.assetClass);\r\n\r\n        require(\r\n            contractInfo.contractType > 0,\r\n            \"PNP:MS: Contract not authorized for this asset class\"\r\n        );\r\n        require((rec.rightsHolder != 0), \"PA:I2: Record does not exist\");\r\n        require(\r\n            (userType > 0) && (userType < 10),\r\n            \"PA:I2: User not authorized to modify records in specified asset class\"\r\n        );\r\n        require(\r\n            (rec.assetStatus != 6) &&\r\n                (rec.assetStatus != 50) &&\r\n                (rec.assetStatus != 56),\r\n            \"PA:I2: Cannot modify asset in Escrow\"\r\n        );\r\n        require(rec.assetStatus < 200, \"PA:I2: Record locked\");\r\n        require(\r\n            (rec.assetStatus != 5) && (rec.assetStatus != 55),\r\n            \"PA:I2: Record In Transferred-unregistered status\"\r\n        );\r\n        require(\r\n            rec.Ipfs2 == 0,\r\n            \"PA:I2: Ipfs2 has data already. Overwrite not permitted\"\r\n        );\r\n        require(\r\n            rec.rightsHolder == _rgtHash,\r\n            \"PA:I2: Rightsholder does not match supplied data\"\r\n        );\r\n        //^^^^^^^checks^^^^^^^^^\r\n\r\n        rec.Ipfs2 = _IpfsHash;\r\n        //^^^^^^^effects^^^^^^^^^\r\n\r\n        writeRecordIpfs2(_idxHash, rec);\r\n\r\n        deductCreateNoteCosts(rec.assetClass);\r\n\r\n        return rec.Ipfs2;\r\n        //^^^^^^^interactions^^^^^^^^^\r\n    }\r\n\r\n    /*\r\n     * @dev import **Record** (no confirmation required -\r\n     * posessor is considered to be owner. sets rec.assetStatus to 0.\r\n     */\r\n    function $importAsset(\r\n        bytes32 _idxHash,\r\n        bytes32 _newRgtHash,\r\n        uint16 _newAssetClass\r\n    )\r\n        external\r\n        payable\r\n        nonReentrant\r\n        whenNotPaused\r\n        isAuthorized(_idxHash)\r\n        returns (uint8)\r\n    {\r\n        Record memory rec = getRecord(_idxHash);\r\n        uint8 userType = getUserType(_newAssetClass);\r\n        ContractDataHash memory contractInfo = getContractInfo(address(this),rec.assetClass);\r\n\r\n        require(\r\n            contractInfo.contractType > 0,\r\n            \"PNP:MS: Contract not authorized for this asset class\"\r\n        );\r\n        require((rec.rightsHolder != 0), \"PA:IA: Record does not exist\");\r\n        require(userType < 3, \"PA:IA: User not authorized to reimport assets\");\r\n\r\n        require(\r\n            (userType > 0) && (userType < 10),\r\n            \"PA:IA: User not authorized to modify records in specified asset class\"\r\n        );\r\n        require(\r\n            AssetClassTokenManagerContract.isSameRootAC(\r\n                _newAssetClass,\r\n                rec.assetClass\r\n            ) == 170,\r\n            \"TPA:IA:Cannot change AC to new root\"\r\n        );\r\n        require(\r\n            (rec.assetStatus == 5) ||\r\n                (rec.assetStatus == 55) ||\r\n                (rec.assetStatus == 70),\r\n            \"PA:IA: Only Transferred or exported assets can be reimported\"\r\n        );\r\n        //^^^^^^^checks^^^^^^^^^\r\n\r\n        if (rec.forceModCount < 255) {\r\n            rec.forceModCount++;\r\n        }\r\n\r\n        rec.assetStatus = 0; // --------------------------------Should this be?\r\n        rec.rightsHolder = _newRgtHash;\r\n        //^^^^^^^effects^^^^^^^^^\r\n\r\n        writeRecord(_idxHash, rec);\r\n        Storage.changeAC(_idxHash, _newAssetClass);\r\n        deductNewRecordCosts(rec.assetClass);\r\n\r\n        return rec.assetStatus;\r\n        //^^^^^^^interactions^^^^^^^^^\r\n    }\r\n}\r\n",
  "sourcePath": "C:\\Users\\Blayde\\Documents\\ETHDEV\\bulletproof\\PRUF_TRUFFLE\\contracts\\PRUF_APP.sol",
  "compiler": {
    "name": "solc",
    "version": "0.6.9+commit.3e3065ac.Emscripten.clang"
  },
  "schemaVersion": "3.0.23",
  "updatedAt": "2020-08-03T20:49:50.545Z",
  "devdoc": {
    "methods": {
      "OO_pause()": {
        "details": "Triggers stopped state."
      },
      "OO_unpause()": {
        "details": "Returns to normal state."
      },
      "owner()": {
        "details": "Returns the address of the current owner."
      },
      "paused()": {
        "details": "Returns true if the contract is paused, and false otherwise."
      },
      "payments(address)": {
        "details": "Returns the payments owed to an address.",
        "params": {
          "dest": "The creditor's address."
        }
      },
      "renounceOwnership()": {
        "details": "Leaves the contract without owner. It will not be possible to call `onlyOwner` functions anymore. Can only be called by the current owner. NOTE: Renouncing ownership will leave the contract without an owner, thereby removing any functionality that is only available to the owner."
      },
      "transferOwnership(address)": {
        "details": "Transfers ownership of the contract to a new account (`newOwner`). Can only be called by the current owner."
      },
      "withdrawPayments(address)": {
        "details": "Withdraw accumulated payments, forwarding all gas to the recipient. Note that _any_ account can call this function, not just the `payee`. This means that contracts unaware of the `PullPayment` protocol can still receive funds this way, by having a separate account call {withdrawPayments}. WARNING: Forwarding all gas opens the door to reentrancy vulnerabilities. Make sure you trust the recipient, or are either following the checks-effects-interactions pattern or using {ReentrancyGuard}.",
        "params": {
          "payee": "Whose payments will be withdrawn."
        }
      }
    }
  },
  "userdoc": {
    "methods": {}
  }
}