{
  "contractName": "BitMapMock",
  "abi": [
    {
      "inputs": [
        {
          "internalType": "uint256",
          "name": "index",
          "type": "uint256"
        }
      ],
      "name": "get",
      "outputs": [
        {
          "internalType": "bool",
          "name": "",
          "type": "bool"
        }
      ],
      "stateMutability": "view",
      "type": "function"
    },
    {
      "inputs": [
        {
          "internalType": "uint256",
          "name": "index",
          "type": "uint256"
        },
        {
          "internalType": "bool",
          "name": "value",
          "type": "bool"
        }
      ],
      "name": "setTo",
      "outputs": [],
      "stateMutability": "nonpayable",
      "type": "function"
    },
    {
      "inputs": [
        {
          "internalType": "uint256",
          "name": "index",
          "type": "uint256"
        }
      ],
      "name": "set",
      "outputs": [],
      "stateMutability": "nonpayable",
      "type": "function"
    },
    {
      "inputs": [
        {
          "internalType": "uint256",
          "name": "index",
          "type": "uint256"
        }
      ],
      "name": "unset",
      "outputs": [],
      "stateMutability": "nonpayable",
      "type": "function"
    }
  ],
  "bytecode": "0x608060405234801561001057600080fd5b506101eb806100206000396000f3fe608060405234801561001057600080fd5b506004361061004c5760003560e01c8063088d22551461005157806360fe47b1146100845780639507d39a146100b4578063dcc9d43c146100fa575b600080fd5b61008261005f366004610167565b600881901c60009081526020819052604090208054600160ff84161b1916905550565b005b610082610092366004610167565b600881901c60009081526020819052604090208054600160ff84161b17905550565b6100e66100c2366004610167565b600881901c600090815260208190526040812054600160ff84161b16151592915050565b604051901515815260200160405180910390f35b610082610108366004610180565b61011460008383610118565b5050565b801561014257600882901c60009081526020849052604090208054600160ff85161b179055505050565b600882901c60009081526020849052604090208054600160ff85161b19169055505050565b60006020828403121561017957600080fd5b5035919050565b6000806040838503121561019357600080fd5b82359150602083013580151581146101aa57600080fd5b80915050925092905056fea2646970667358221220c9806bbb8bc05b208e07d8a5425eeb5b01da2b0b45655600e603be8d7b6d055b64736f6c63430008070033",
  "immutableReferences": {},
  "source": "// SPDX-License-Identifier: MIT\n\npragma solidity ^0.8.0;\n\nimport \"../utils/structs/BitMaps.sol\";\n\ncontract BitMapMock {\n    using BitMaps for BitMaps.BitMap;\n\n    BitMaps.BitMap private _bitmap;\n\n    function get(uint256 index) public view returns (bool) {\n        return _bitmap.get(index);\n    }\n\n    function setTo(uint256 index, bool value) public {\n        _bitmap.setTo(index, value);\n    }\n\n    function set(uint256 index) public {\n        _bitmap.set(index);\n    }\n\n    function unset(uint256 index) public {\n        _bitmap.unset(index);\n    }\n}\n",
  "sourcePath": "/Users/drake/Documents/DEV/PRUF/PRUF_TRUFFLE/contracts/Imports/mocks/BitmapMock.sol",
  "compiler": {
    "name": "solc",
    "version": "0.8.7+commit.e28d00a7.Emscripten.clang"
  },
  "schemaVersion": "3.4.3",
  "updatedAt": "2021-10-26T17:58:03.531Z",
  "devdoc": {
    "kind": "dev",
    "methods": {},
    "version": 1
  },
  "userdoc": {
    "kind": "user",
    "methods": {},
    "version": 1
  }
}