{
  "contractName": "CallReceiverMock",
  "abi": [
    {
      "anonymous": false,
      "inputs": [],
      "name": "MockFunctionCalled",
      "type": "event"
    },
    {
      "inputs": [],
      "name": "mockFunction",
      "outputs": [
        {
          "internalType": "string",
          "name": "",
          "type": "string"
        }
      ],
      "stateMutability": "payable",
      "type": "function"
    },
    {
      "inputs": [],
      "name": "mockFunctionNonPayable",
      "outputs": [
        {
          "internalType": "string",
          "name": "",
          "type": "string"
        }
      ],
      "stateMutability": "nonpayable",
      "type": "function"
    },
    {
      "inputs": [],
      "name": "mockFunctionRevertsNoReason",
      "outputs": [],
      "stateMutability": "payable",
      "type": "function"
    },
    {
      "inputs": [],
      "name": "mockFunctionRevertsReason",
      "outputs": [],
      "stateMutability": "payable",
      "type": "function"
    },
    {
      "inputs": [],
      "name": "mockFunctionThrows",
      "outputs": [],
      "stateMutability": "payable",
      "type": "function"
    },
    {
      "inputs": [],
      "name": "mockFunctionOutOfGas",
      "outputs": [],
      "stateMutability": "payable",
      "type": "function"
    }
  ],
  "bytecode": "0x608060405234801561001057600080fd5b5061021c806100206000396000f3fe6080604052600436106100555760003560e01c80630c0349681461005a5780630f63e42c146100645780632c81d638146100ee5780633bcfaa14146100f65780633e6fec04146100fe578063a793ab4714610106575b600080fd5b61006261010e565b005b34801561007057600080fd5b5061007961015b565b6040805160208082528351818301528351919283929083019185019080838360005b838110156100b357818101518382015260200161009b565b50505050905090810190601f1680156100e05780820380516001836020036101000a031916815260200191505b509250505060405180910390f35b610062610055565b6100626101a8565b61007961015b565b6100626101aa565b6040805162461bcd60e51b815260206004820152601b60248201527f43616c6c52656365697665724d6f636b3a20726576657274696e670000000000604482015290519081900360640190fd5b6040516060907f52c66ed6ec9ca819cba26fe2b2650059270d8981b295af300187a964f54a8c2390600090a1506040805180820190915260068152650c1e0c4c8ccd60d21b602082015290565bfe5b60005b60008054600181810183559180527f290decd9548b62a8d60345a988386fc84ba6bc95484008f6362f93160ef3e56301829055016101ad56fea2646970667358221220c4f983e4abc507d6294c9e6b6165fec0dcd9207bfd5e75cfc93b70c91161677964736f6c634300060c0033",
  "immutableReferences": {},
  "source": "// SPDX-License-Identifier: MIT\r\n\r\npragma solidity ^0.6.0;\r\n\r\ncontract CallReceiverMock {\r\n\r\n    event MockFunctionCalled();\r\n\r\n    uint256[] private _array;\r\n\r\n    function mockFunction() public payable returns (string memory) {\r\n        emit MockFunctionCalled();\r\n\r\n        return \"0x1234\";\r\n    }\r\n\r\n    function mockFunctionNonPayable() public returns (string memory) {\r\n        emit MockFunctionCalled();\r\n\r\n        return \"0x1234\";\r\n    }\r\n\r\n    function mockFunctionRevertsNoReason() public payable {\r\n        revert();\r\n    }\r\n\r\n    function mockFunctionRevertsReason() public payable {\r\n        revert(\"CallReceiverMock: reverting\");\r\n    }\r\n\r\n    function mockFunctionThrows() public payable {\r\n        assert(false);\r\n    }\r\n\r\n    function mockFunctionOutOfGas() public payable {\r\n        for (uint256 i = 0; ; ++i) {\r\n            _array.push(i);\r\n        }\r\n    }\r\n}\r\n",
  "sourcePath": "C:\\Users\\drake\\onedrive\\documents\\dev\\pruf\\PRUF_TRUFFLE\\contracts\\imports\\mocks\\CallReceiverMock.sol",
  "compiler": {
    "name": "solc",
    "version": "0.6.12+commit.27d51765.Emscripten.clang"
  },
  "schemaVersion": "3.2.2",
  "updatedAt": "2020-09-16T15:05:08.255Z",
  "devdoc": {
    "kind": "dev",
    "methods": {},
    "version": 1
  },
  "userdoc": {
    "kind": "user",
    "methods": {},
    "version": 1
  }
}