{
  "contractName": "ContextMockCaller",
  "abi": [
    {
      "inputs": [
        {
          "internalType": "contract ContextMock",
          "name": "context",
          "type": "address"
        }
      ],
      "name": "callSender",
      "outputs": [],
      "stateMutability": "nonpayable",
      "type": "function"
    },
    {
      "inputs": [
        {
          "internalType": "contract ContextMock",
          "name": "context",
          "type": "address"
        },
        {
          "internalType": "uint256",
          "name": "integerValue",
          "type": "uint256"
        },
        {
          "internalType": "string",
          "name": "stringValue",
          "type": "string"
        }
      ],
      "name": "callData",
      "outputs": [],
      "stateMutability": "nonpayable",
      "type": "function"
    }
  ],
  "bytecode": "0x608060405234801561001057600080fd5b506102cf806100206000396000f3fe608060405234801561001057600080fd5b50600436106100355760003560e01c80628604591461003a5780633207ad961461004f575b600080fd5b61004d61004836600461015b565b610062565b005b61004d61005d366004610139565b6100c7565b604051631bb5f93160e11b81526001600160a01b0384169063376bf262906100909085908590600401610226565b600060405180830381600087803b1580156100aa57600080fd5b505af11580156100be573d6000803e3d6000fd5b50505050505050565b806001600160a01b031663d737d0c76040518163ffffffff1660e01b8152600401600060405180830381600087803b15801561010257600080fd5b505af1158015610116573d6000803e3d6000fd5b5050505050565b80356001600160a01b038116811461013457600080fd5b919050565b60006020828403121561014b57600080fd5b6101548261011d565b9392505050565b60008060006060848603121561017057600080fd5b6101798461011d565b925060208401359150604084013567ffffffffffffffff8082111561019d57600080fd5b818601915086601f8301126101b157600080fd5b8135818111156101c3576101c3610283565b604051601f8201601f19908116603f011681019083821181831017156101eb576101eb610283565b8160405282815289602084870101111561020457600080fd5b8260208601602083013760006020848301015280955050505050509250925092565b82815260006020604081840152835180604085015260005b8181101561025a5785810183015185820160600152820161023e565b8181111561026c576000606083870101525b50601f01601f191692909201606001949350505050565b634e487b7160e01b600052604160045260246000fdfea2646970667358221220b2ac6273f37e7be4548d255e8fc2cf1c743d66f8d9f1e1a256c094c5415c993364736f6c63430008070033",
  "immutableReferences": {},
  "source": "// SPDX-License-Identifier: MIT\n\npragma solidity ^0.8.0;\n\nimport \"../utils/Context.sol\";\n\ncontract ContextMock is Context {\n    event Sender(address sender);\n\n    function msgSender() public {\n        emit Sender(_msgSender());\n    }\n\n    event Data(bytes data, uint256 integerValue, string stringValue);\n\n    function msgData(uint256 integerValue, string memory stringValue) public {\n        emit Data(_msgData(), integerValue, stringValue);\n    }\n}\n\ncontract ContextMockCaller {\n    function callSender(ContextMock context) public {\n        context.msgSender();\n    }\n\n    function callData(\n        ContextMock context,\n        uint256 integerValue,\n        string memory stringValue\n    ) public {\n        context.msgData(integerValue, stringValue);\n    }\n}\n",
  "sourcePath": "/Users/drake/Documents/DEV/PRUF/PRUF_TRUFFLE/contracts/Imports/mocks/ContextMock.sol",
  "compiler": {
    "name": "solc",
    "version": "0.8.7+commit.e28d00a7.Emscripten.clang"
  },
  "schemaVersion": "3.4.3",
  "updatedAt": "2021-10-26T17:58:03.539Z",
  "devdoc": {
    "kind": "dev",
    "methods": {},
    "version": 1
  },
  "userdoc": {
    "kind": "user",
    "methods": {},
    "version": 1
  }
}