{
  "contractName": "CORE_MAL",
  "abi": [
    {
      "anonymous": false,
      "inputs": [
        {
          "indexed": true,
          "internalType": "address",
          "name": "previousOwner",
          "type": "address"
        },
        {
          "indexed": true,
          "internalType": "address",
          "name": "newOwner",
          "type": "address"
        }
      ],
      "name": "OwnershipTransferred",
      "type": "event"
    },
    {
      "anonymous": false,
      "inputs": [
        {
          "indexed": false,
          "internalType": "address",
          "name": "account",
          "type": "address"
        }
      ],
      "name": "Paused",
      "type": "event"
    },
    {
      "anonymous": false,
      "inputs": [
        {
          "indexed": false,
          "internalType": "string",
          "name": "_msg",
          "type": "string"
        }
      ],
      "name": "REPORT",
      "type": "event"
    },
    {
      "anonymous": false,
      "inputs": [
        {
          "indexed": false,
          "internalType": "address",
          "name": "account",
          "type": "address"
        }
      ],
      "name": "Unpaused",
      "type": "event"
    },
    {
      "inputs": [],
      "name": "OO_ResolveContractAddresses",
      "outputs": [],
      "stateMutability": "nonpayable",
      "type": "function"
    },
    {
      "inputs": [],
      "name": "OO_pause",
      "outputs": [],
      "stateMutability": "nonpayable",
      "type": "function"
    },
    {
      "inputs": [
        {
          "internalType": "address",
          "name": "_storageAddress",
          "type": "address"
        }
      ],
      "name": "OO_setStorageContract",
      "outputs": [],
      "stateMutability": "nonpayable",
      "type": "function"
    },
    {
      "inputs": [
        {
          "internalType": "address",
          "name": "_to",
          "type": "address"
        },
        {
          "internalType": "bytes32",
          "name": "_idxHash",
          "type": "bytes32"
        }
      ],
      "name": "OO_transferACToken",
      "outputs": [],
      "stateMutability": "nonpayable",
      "type": "function"
    },
    {
      "inputs": [],
      "name": "OO_unpause",
      "outputs": [],
      "stateMutability": "nonpayable",
      "type": "function"
    },
    {
      "inputs": [
        {
          "internalType": "address",
          "name": "",
          "type": "address"
        },
        {
          "internalType": "address",
          "name": "",
          "type": "address"
        },
        {
          "internalType": "uint256",
          "name": "",
          "type": "uint256"
        },
        {
          "internalType": "bytes",
          "name": "",
          "type": "bytes"
        }
      ],
      "name": "onERC721Received",
      "outputs": [
        {
          "internalType": "bytes4",
          "name": "",
          "type": "bytes4"
        }
      ],
      "stateMutability": "nonpayable",
      "type": "function"
    },
    {
      "inputs": [],
      "name": "owner",
      "outputs": [
        {
          "internalType": "address",
          "name": "",
          "type": "address"
        }
      ],
      "stateMutability": "view",
      "type": "function"
    },
    {
      "inputs": [],
      "name": "paused",
      "outputs": [
        {
          "internalType": "bool",
          "name": "",
          "type": "bool"
        }
      ],
      "stateMutability": "view",
      "type": "function"
    },
    {
      "inputs": [
        {
          "internalType": "address",
          "name": "dest",
          "type": "address"
        }
      ],
      "name": "payments",
      "outputs": [
        {
          "internalType": "uint256",
          "name": "",
          "type": "uint256"
        }
      ],
      "stateMutability": "view",
      "type": "function"
    },
    {
      "inputs": [],
      "name": "renounceOwnership",
      "outputs": [],
      "stateMutability": "nonpayable",
      "type": "function"
    },
    {
      "inputs": [
        {
          "internalType": "address",
          "name": "_to",
          "type": "address"
        },
        {
          "internalType": "bytes32",
          "name": "_idxHash",
          "type": "bytes32"
        }
      ],
      "name": "transferAssetToken",
      "outputs": [],
      "stateMutability": "nonpayable",
      "type": "function"
    },
    {
      "inputs": [
        {
          "internalType": "address",
          "name": "newOwner",
          "type": "address"
        }
      ],
      "name": "transferOwnership",
      "outputs": [],
      "stateMutability": "nonpayable",
      "type": "function"
    },
    {
      "inputs": [
        {
          "internalType": "address payable",
          "name": "payee",
          "type": "address"
        }
      ],
      "name": "withdrawPayments",
      "outputs": [],
      "stateMutability": "nonpayable",
      "type": "function"
    },
    {
      "inputs": [],
      "name": "$withdraw",
      "outputs": [],
      "stateMutability": "payable",
      "type": "function"
    }
  ],
  "bytecode": "0x608060405234801561001057600080fd5b5060405161001d906100ca565b604051809103906000f080158015610039573d6000803e3d6000fd5b50600080546001600160a01b0319166001600160a01b0392909216919091178155600180556100666100c6565b600280546001600160a01b0319166001600160a01b038316908117909155604051919250906000907f8be0079c531659141344cd1fd0a4f28419497f9722a3daafe3b4186f6b6457e0908290a3506002805460ff60a01b191690556100d7565b3390565b6107648061139c83390190565b6112b6806100e66000396000f3fe6080604052600436106100dd5760003560e01c80638da5cb5b1161007f578063cf2b6f6611610059578063cf2b6f66146102e4578063d6b02ecf146102f9578063e2982c211461032c578063f2fde38b14610371576100dd565b80638da5cb5b14610265578063961e809b14610296578063c79b226e146102ab576100dd565b8063440e7a7e116100bb578063440e7a7e146101d95780634b9f23a4146102125780635c975abb14610227578063715018a614610250576100dd565b8063150b7a02146100e25780632cb741aa1461019c57806331b3eb94146101a6575b600080fd5b3480156100ee57600080fd5b5061017f6004803603608081101561010557600080fd5b6001600160a01b0382358116926020810135909116916040820135919081019060808101606082013564010000000081111561014057600080fd5b82018360208201111561015257600080fd5b8035906020019184600183028401116401000000008311171561017457600080fd5b5090925090506103a4565b604080516001600160e01b03199092168252519081900360200190f35b6101a46103b5565b005b3480156101b257600080fd5b506101a4600480360360208110156101c957600080fd5b50356001600160a01b031661040f565b3480156101e557600080fd5b506101a4600480360360408110156101fc57600080fd5b506001600160a01b038135169060200135610475565b34801561021e57600080fd5b506101a46105ab565b34801561023357600080fd5b5061023c610bd8565b604080519115158252519081900360200190f35b34801561025c57600080fd5b506101a4610be8565b34801561027157600080fd5b5061027a610c8a565b604080516001600160a01b039092168252519081900360200190f35b3480156102a257600080fd5b506101a4610c99565b3480156102b757600080fd5b506101a4600480360360408110156102ce57600080fd5b506001600160a01b038135169060200135610cfb565b3480156102f057600080fd5b506101a4610dfc565b34801561030557600080fd5b506101a46004803603602081101561031c57600080fd5b50356001600160a01b0316610e5c565b34801561033857600080fd5b5061035f6004803603602081101561034f57600080fd5b50356001600160a01b0316610f1b565b60408051918252519081900360200190f35b34801561037d57600080fd5b506101a46004803603602081101561039457600080fd5b50356001600160a01b0316610f9b565b630a85bd0160e11b95945050505050565b600260015414156103fb576040805162461bcd60e51b815260206004820152601f60248201526000805160206111cf833981519152604482015290519081900360640190fd5b60026001556104093361040f565b60018055565b60008054604080516351cff8d960e01b81526001600160a01b038581166004830152915191909216926351cff8d9926024808201939182900301818387803b15801561045a57600080fd5b505af115801561046e573d6000803e3d6000fd5b5050505050565b600260015414156104bb576040805162461bcd60e51b815260206004820152601f60248201526000805160206111cf833981519152604482015290519081900360640190fd5b60026001556104c8610c8a565b6001600160a01b0316336001600160a01b031614806104f157506013546001600160a01b031633145b61052c5760405162461bcd60e51b815260040180806020018281038252602781526020018061123a6027913960400191505060405180910390fd5b60085460408051632142170760e11b81523060048201526001600160a01b038581166024830152604482018590529151849392909216916342842e0e9160648082019260009290919082900301818387803b15801561058a57600080fd5b505af115801561059e573d6000803e3d6000fd5b5050600180555050505050565b600260015414156105f1576040805162461bcd60e51b815260206004820152601f60248201526000805160206111cf833981519152604482015290519081900360640190fd5b60026001556105fe611094565b6002546001600160a01b0390811691161461064e576040805162461bcd60e51b81526020600482018190526024820152600080516020611261833981519152604482015290519081900360640190fd5b60048054604080516363b8d4c160e11b81526020938101849052600660248201526520a1afaa25a760d11b604482015290516001600160a01b039092169263c771a982926064808401938290030181600087803b1580156106ae57600080fd5b505af11580156106c2573d6000803e3d6000fd5b505050506040513d60208110156106d857600080fd5b5051600980546001600160a01b039283166001600160a01b03199182161791829055600a805490911691831691909117905560048054604080516363b8d4c160e11b81526020938101849052600660248201526520a1afa6a3a960d11b60448201529051919093169263c771a9829260648083019391928290030181600087803b15801561076557600080fd5b505af1158015610779573d6000803e3d6000fd5b505050506040513d602081101561078f57600080fd5b5051600580546001600160a01b039283166001600160a01b0319918216178083556006805490921690841617905560048054604080516363b8d4c160e11b8152602093810184905260248101949094526420afaa25a760d91b60448501525193169263c771a9829260648082019392918290030181600087803b15801561081557600080fd5b505af1158015610829573d6000803e3d6000fd5b505050506040513d602081101561083f57600080fd5b5051600780546001600160a01b039283166001600160a01b0319918216178083556008805490921690841617905560048054604080516363b8d4c160e11b8152602093810184905260248101949094526622a1a92fa6a3a960c91b60448501525193169263c771a9829260648082019392918290030181600087803b1580156108c757600080fd5b505af11580156108db573d6000803e3d6000fd5b505050506040513d60208110156108f157600080fd5b5051600b80546001600160a01b039283166001600160a01b03199182161791829055600c805490911691831691909117905560048054604080516363b8d4c160e11b81526020938101849052600360248201526204150560ec1b60448201529051919093169263c771a9829260648083019391928290030181600087803b15801561097b57600080fd5b505af115801561098f573d6000803e3d6000fd5b505050506040513d60208110156109a557600080fd5b5051600f80546001600160a01b039283166001600160a01b031991821617918290556010805490911691831691909117905560048054604080516363b8d4c160e11b815260208185018190526024820194909452632921a62960e11b60448201529051919093169263c771a9829260648083019391928290030181600087803b158015610a3157600080fd5b505af1158015610a45573d6000803e3d6000fd5b505050506040513d6020811015610a5b57600080fd5b5051600d80546001600160a01b039283166001600160a01b03199182161791829055600e805490911691831691909117905560048054604080516363b8d4c160e11b8152602093810184905260066024820152654150505f4e4360d01b60448201529051919093169263c771a9829260648083019391928290030181600087803b158015610ae857600080fd5b505af1158015610afc573d6000803e3d6000fd5b505050506040513d6020811015610b1257600080fd5b5051601280546001600160a01b0319166001600160a01b0392831617905560048054604080516363b8d4c160e11b81526020938101849052600260248201526104e560f41b60448201529051919093169263c771a9829260648083019391928290030181600087803b158015610b8757600080fd5b505af1158015610b9b573d6000803e3d6000fd5b505050506040513d6020811015610bb157600080fd5b5051601380546001600160a01b0319166001600160a01b0390921691909117905560018055565b600254600160a01b900460ff1690565b610bf0611094565b6002546001600160a01b03908116911614610c40576040805162461bcd60e51b81526020600482018190526024820152600080516020611261833981519152604482015290519081900360640190fd5b6002546040516000916001600160a01b0316907f8be0079c531659141344cd1fd0a4f28419497f9722a3daafe3b4186f6b6457e0908390a3600280546001600160a01b0319169055565b6002546001600160a01b031690565b610ca1611094565b6002546001600160a01b03908116911614610cf1576040805162461bcd60e51b81526020600482018190526024820152600080516020611261833981519152604482015290519081900360640190fd5b610cf9611098565b565b610d03611094565b6002546001600160a01b03908116911614610d53576040805162461bcd60e51b81526020600482018190526024820152600080516020611261833981519152604482015290519081900360640190fd5b60026001541415610d99576040805162461bcd60e51b815260206004820152601f60248201526000805160206111cf833981519152604482015290519081900360640190fd5b6002600155600a5460408051632142170760e11b81523060048201526001600160a01b038581166024830152604482018590529151849392909216916342842e0e9160648082019260009290919082900301818387803b15801561058a57600080fd5b610e04611094565b6002546001600160a01b03908116911614610e54576040805162461bcd60e51b81526020600482018190526024820152600080516020611261833981519152604482015290519081900360640190fd5b610cf9611140565b610e64611094565b6002546001600160a01b03908116911614610eb4576040805162461bcd60e51b81526020600482018190526024820152600080516020611261833981519152604482015290519081900360640190fd5b6001600160a01b038116610ef95760405162461bcd60e51b81526004018080602001828103825260258152602001806112156025913960400191505060405180910390fd5b600480546001600160a01b0319166001600160a01b0392909216919091179055565b60008054604080516371d4ed8d60e11b81526001600160a01b0385811660048301529151919092169163e3a9db1a916024808301926020929190829003018186803b158015610f6957600080fd5b505afa158015610f7d573d6000803e3d6000fd5b505050506040513d6020811015610f9357600080fd5b505192915050565b610fa3611094565b6002546001600160a01b03908116911614610ff3576040805162461bcd60e51b81526020600482018190526024820152600080516020611261833981519152604482015290519081900360640190fd5b6001600160a01b0381166110385760405162461bcd60e51b81526004018080602001828103825260268152602001806111ef6026913960400191505060405180910390fd5b6002546040516001600160a01b038084169216907f8be0079c531659141344cd1fd0a4f28419497f9722a3daafe3b4186f6b6457e090600090a3600280546001600160a01b0319166001600160a01b0392909216919091179055565b3390565b600254600160a01b900460ff166110ed576040805162461bcd60e51b815260206004820152601460248201527314185d5cd8589b194e881b9bdd081c185d5cd95960621b604482015290519081900360640190fd5b6002805460ff60a01b191690557f5db9ee0a495bf2e6ff9c91a7834c1ba4fdd244a5e8aa4e537bd38aeae4b073aa611123611094565b604080516001600160a01b039092168252519081900360200190a1565b600254600160a01b900460ff1615611192576040805162461bcd60e51b815260206004820152601060248201526f14185d5cd8589b194e881c185d5cd95960821b604482015290519081900360640190fd5b6002805460ff60a01b1916600160a01b1790557f62e78cea01bee320cd4e420270b5ea74000d11b0c9f74754ebdbfc544b05a25861112361109456fe5265656e7472616e637947756172643a207265656e7472616e742063616c6c004f776e61626c653a206e6577206f776e657220697320746865207a65726f2061646472657373423a5353433a2073746f7261676520616464726573732063616e6e6f74206265207a65726f50423a54583a496e76616c69642063616c6c657220666f72207472616e7366657220746f6b656e4f776e61626c653a2063616c6c6572206973206e6f7420746865206f776e6572a264697066735822122052699c3bf34f8611c35c01b3e2dee2a4335b313e596a378f86ad6c377882898664736f6c63430006090033608060405234801561001057600080fd5b5060006100246001600160e01b0361007316565b600080546001600160a01b0319166001600160a01b0383169081178255604051929350917f8be0079c531659141344cd1fd0a4f28419497f9722a3daafe3b4186f6b6457e0908290a350610077565b3390565b6106de806100866000396000f3fe6080604052600436106100555760003560e01c806351cff8d91461005a578063715018a61461008f5780638da5cb5b146100a4578063e3a9db1a146100d5578063f2fde38b1461011a578063f340fa011461014d575b600080fd5b34801561006657600080fd5b5061008d6004803603602081101561007d57600080fd5b50356001600160a01b0316610173565b005b34801561009b57600080fd5b5061008d61023c565b3480156100b057600080fd5b506100b96102de565b604080516001600160a01b039092168252519081900360200190f35b3480156100e157600080fd5b50610108600480360360208110156100f857600080fd5b50356001600160a01b03166102ed565b60408051918252519081900360200190f35b34801561012657600080fd5b5061008d6004803603602081101561013d57600080fd5b50356001600160a01b0316610308565b61008d6004803603602081101561016357600080fd5b50356001600160a01b0316610400565b61017b6104d9565b6000546001600160a01b039081169116146101cb576040805162461bcd60e51b81526020600482018190526024820152600080516020610689833981519152604482015290519081900360640190fd5b6001600160a01b03811660008181526001602052604081208054919055906101f9908263ffffffff6104dd16565b6040805182815290516001600160a01b038416917f7084f5476618d8e60b11ef0d7d3f06914655adb8793e28ff7f018d4c76d505d5919081900360200190a25050565b6102446104d9565b6000546001600160a01b03908116911614610294576040805162461bcd60e51b81526020600482018190526024820152600080516020610689833981519152604482015290519081900360640190fd5b600080546040516001600160a01b03909116907f8be0079c531659141344cd1fd0a4f28419497f9722a3daafe3b4186f6b6457e0908390a3600080546001600160a01b0319169055565b6000546001600160a01b031690565b6001600160a01b031660009081526001602052604090205490565b6103106104d9565b6000546001600160a01b03908116911614610360576040805162461bcd60e51b81526020600482018190526024820152600080516020610689833981519152604482015290519081900360640190fd5b6001600160a01b0381166103a55760405162461bcd60e51b81526004018080602001828103825260268152602001806106296026913960400191505060405180910390fd5b600080546040516001600160a01b03808516939216917f8be0079c531659141344cd1fd0a4f28419497f9722a3daafe3b4186f6b6457e091a3600080546001600160a01b0319166001600160a01b0392909216919091179055565b6104086104d9565b6000546001600160a01b03908116911614610458576040805162461bcd60e51b81526020600482018190526024820152600080516020610689833981519152604482015290519081900360640190fd5b6001600160a01b0381166000908152600160205260409020543490610483908263ffffffff6105c716565b6001600160a01b038316600081815260016020908152604091829020939093558051848152905191927f2da466a7b24304f47e87fa2e1e5a81b9831ce54fec19055ce277ca2f39ba42c492918290030190a25050565b3390565b80471015610532576040805162461bcd60e51b815260206004820152601d60248201527f416464726573733a20696e73756666696369656e742062616c616e6365000000604482015290519081900360640190fd5b6040516000906001600160a01b0384169083908381818185875af1925050503d806000811461057d576040519150601f19603f3d011682016040523d82523d6000602084013e610582565b606091505b50509050806105c25760405162461bcd60e51b815260040180806020018281038252603a81526020018061064f603a913960400191505060405180910390fd5b505050565b600082820183811015610621576040805162461bcd60e51b815260206004820152601b60248201527f536166654d6174683a206164646974696f6e206f766572666c6f770000000000604482015290519081900360640190fd5b939250505056fe4f776e61626c653a206e6577206f776e657220697320746865207a65726f2061646472657373416464726573733a20756e61626c6520746f2073656e642076616c75652c20726563697069656e74206d617920686176652072657665727465644f776e61626c653a2063616c6c6572206973206e6f7420746865206f776e6572a2646970667358221220a00d6aa6d96b7e14cf44ef151b801d41a0d6f22be9568d55aded0e5dc41900ac64736f6c63430006090033",
  "source": "/*-----------------------------------------------------------V0.6.8\r\n__/\\\\\\\\\\\\\\\\\\\\\\\\\\ _____/\\\\\\\\\\\\\\\\\\ _______/\\\\../\\\\ ___/\\\\\\\\\\\\\\\\\\\\\\\\\\\\\\\r\n _\\/\\\\\\/////////\\\\\\ _/\\\\\\///////\\\\\\ ____\\//..\\//____\\/\\\\\\///////////__\r\n  _\\/\\\\\\.......\\/\\\\\\.\\/\\\\\\.....\\/\\\\\\ ________________\\/\\\\\\ ____________\r\n   _\\/\\\\\\\\\\\\\\\\\\\\\\\\\\/__\\/\\\\\\\\\\\\\\\\\\\\\\/_____/\\\\\\____/\\\\\\.\\/\\\\\\\\\\\\\\\\\\\\\\ ____\r\n    _\\/\\\\\\/////////____\\/\\\\\\//////\\\\\\ ___\\/\\\\\\___\\/\\\\\\.\\/\\\\\\///////______\r\n     _\\/\\\\\\ ____________\\/\\\\\\ ___\\//\\\\\\ __\\/\\\\\\___\\/\\\\\\.\\/\\\\\\ ____________\r\n      _\\/\\\\\\ ____________\\/\\\\\\ ____\\//\\\\\\ _\\/\\\\\\___\\/\\\\\\.\\/\\\\\\ ____________\r\n       _\\/\\\\\\ ____________\\/\\\\\\ _____\\//\\\\\\.\\//\\\\\\\\\\\\\\\\\\ _\\/\\\\\\ ____________\r\n        _\\/// _____________\\/// _______\\/// __\\///////// __\\/// _____________\r\n         *-------------------------------------------------------------------*/\r\n\r\n/*-----------------------------------------------------------------\r\n *  TO DO\r\n *\r\n *---------------------------------------------------------------*/\r\n\r\n// SPDX-License-Identifier: UNLICENSED\r\npragma solidity ^0.6.7;\r\n\r\nimport \"./PRUF_INTERFACES.sol\";\r\nimport \"./Imports/PullPayment.sol\";\r\nimport \"./Imports/ReentrancyGuard.sol\";\r\nimport \"./PRUF_BASIC.sol\";\r\n\r\ncontract CORE_MAL is PullPayment, BASIC {\r\n    using SafeMath for uint256;\r\n\r\n    struct Costs {\r\n        uint256 newRecordCost; // Cost to create a new record\r\n        uint256 transferAssetCost; // Cost to transfer a record from known rights holder to a new one\r\n        uint256 createNoteCost; // Cost to add a static note to an asset\r\n        uint256 reMintRecordCost; // Extra\r\n        uint256 changeStatusCost; // Extra\r\n        uint256 forceModifyCost; // Cost to brute-force a record transfer\r\n        address paymentAddress; // 2nd-party fee beneficiary address\r\n    }\r\n\r\n    struct Invoice {\r\n        address rootAddress;\r\n        uint256 rootPrice;\r\n        address ACTHaddress;\r\n        uint256 ACTHprice;\r\n    }\r\n\r\n    \r\n    //--------------------------------------------------------------------------------------Storage Reading internal functions\r\n\r\n    /*\r\n     * @dev retrieves costs from Storage and returns Costs struct\r\n     */\r\n    function getCost(uint256 _assetClass) internal returns (Costs memory) {\r\n        //^^^^^^^checks^^^^^^^^^\r\n\r\n        Costs memory cost;\r\n        //^^^^^^^effects^^^^^^^^^\r\n        (\r\n            cost.newRecordCost,\r\n            cost.transferAssetCost,\r\n            cost.createNoteCost,\r\n            cost.reMintRecordCost,\r\n            cost.changeStatusCost,\r\n            cost.forceModifyCost,\r\n            cost.paymentAddress\r\n        ) = AC_MGR.retrieveCosts(_assetClass);\r\n\r\n        return (cost);\r\n        //^^^^^^^interactions^^^^^^^^^\r\n    }\r\n\r\n    //--------------------------------------------------------------------------------------Storage Writing internal functions\r\n\r\n    /*\r\n     * @dev create a Record in Storage @ idxHash\r\n     */\r\n    function createRecord(\r\n        bytes32 _idxHash,\r\n        bytes32 _rgtHash,\r\n        uint256 _assetClass,\r\n        uint256 _countDownStart\r\n    ) internal {\r\n        uint256 tokenId = uint256(_idxHash);\r\n        AC memory AC_info = getACinfo(_assetClass);\r\n\r\n        // require(\r\n        //     A_TKN.tokenExists(tokenId) == 0,\r\n        //     \"C:CR:Asset token already exists\"\r\n        // );\r\n\r\n        require(\r\n            AC_info.custodyType != 3,\r\n            \"C:CR:Cannot create asset in a root asset class\"\r\n        );\r\n\r\n        if (AC_info.custodyType == 1) {\r\n            A_TKN.mintAssetToken(address(this), tokenId, \"pruf.io\");\r\n        }\r\n\r\n        if (AC_info.custodyType == 2) {\r\n            A_TKN.mintAssetToken(msg.sender, tokenId, \"pruf.io\");\r\n        }\r\n\r\n        STOR.newRecord(_idxHash, _rgtHash, _assetClass, _countDownStart);\r\n    }\r\n\r\n\r\n    /*\r\n     * @dev Write a Record to Storage @ idxHash\r\n     */\r\n    function writeRecord(bytes32 _idxHash, Record memory _rec)\r\n        internal\r\n        whenNotPaused\r\n    //isAuthorized(_idxHash)\r\n    {\r\n        //^^^^^^^checks^^^^^^^^^\r\n\r\n        STOR.modifyRecord(\r\n            _idxHash,\r\n            _rec.rightsHolder,\r\n            _rec.assetStatus,\r\n            _rec.countDown,\r\n            _rec.incrementForceModCount,\r\n            _rec.incrementNumberOfTransfers\r\n        ); // Send data and writehash to storage\r\n        //^^^^^^^interactions^^^^^^^^^\r\n    }\r\n\r\n    /*\r\n     * @dev Write an Ipfs Record to Storage @ idxHash\r\n     */\r\n    function writeRecordIpfs1(bytes32 _idxHash, Record memory _rec)\r\n        internal\r\n        whenNotPaused\r\n    {\r\n        //^^^^^^^Checks^^^^^^^^^\r\n\r\n        STOR.modifyIpfs1(_idxHash, _rec.Ipfs1); // Send data to storage\r\n        //^^^^^^^interactions^^^^^^^^^\r\n    }\r\n\r\n    function writeRecordIpfs2(bytes32 _idxHash, Record memory _rec)\r\n        internal\r\n        whenNotPaused\r\n    //isAuthorized(_idxHash)\r\n    {\r\n        //^^^^^^^checks^^^^^^^^^\r\n\r\n        STOR.modifyIpfs2(_idxHash, _rec.Ipfs2); // Send data to storage\r\n        //^^^^^^^interactions^^^^^^^^^\r\n    }\r\n\r\n    //--------------------------------------------------------------------------------------Payment internal functions\r\n\r\n    function deductNewRecordCosts(uint256 _assetClass) internal whenNotPaused {\r\n        //^^^^^^^checks^^^^^^^^^\r\n        Invoice memory pricing;\r\n        //^^^^^^^effects^^^^^^^^^\r\n        (\r\n            pricing.rootAddress,\r\n            pricing.rootPrice,\r\n            pricing.ACTHaddress,\r\n            pricing.ACTHprice\r\n        ) = AC_MGR.getNewRecordCosts(_assetClass);\r\n        deductPayment(pricing);\r\n        //^^^^^^^interactions^^^^^^^^^\r\n    }\r\n\r\n    function deductRecycleCosts(uint256 _assetClass, address _oldOwner)\r\n        internal\r\n        whenNotPaused\r\n    {\r\n        //^^^^^^^checks^^^^^^^^^\r\n        Invoice memory pricing;\r\n        //^^^^^^^effects^^^^^^^^^\r\n        (\r\n            pricing.rootAddress,\r\n            pricing.rootPrice,\r\n            pricing.ACTHaddress,\r\n            pricing.ACTHprice\r\n        ) = AC_MGR.getNewRecordCosts(_assetClass);\r\n        pricing.ACTHaddress = _oldOwner;\r\n        deductPayment(pricing);\r\n        //^^^^^^^interactions^^^^^^^^^\r\n    }\r\n\r\n    function deductTransferAssetCosts(uint256 _assetClass)\r\n        internal\r\n        whenNotPaused\r\n    {\r\n        //^^^^^^^checks^^^^^^^^^\r\n        Invoice memory pricing;\r\n        //^^^^^^^effects^^^^^^^^^\r\n        (\r\n            pricing.rootAddress,\r\n            pricing.rootPrice,\r\n            pricing.ACTHaddress,\r\n            pricing.ACTHprice\r\n        ) = AC_MGR.getTransferAssetCosts(_assetClass);\r\n        deductPayment(pricing);\r\n        //^^^^^^^interactions^^^^^^^^^\r\n    }\r\n\r\n    function deductCreateNoteCosts(uint256 _assetClass) internal whenNotPaused {\r\n        //^^^^^^^checks^^^^^^^^^\r\n        Invoice memory pricing;\r\n        //^^^^^^^effects^^^^^^^^^\r\n        (\r\n            pricing.rootAddress,\r\n            pricing.rootPrice,\r\n            pricing.ACTHaddress,\r\n            pricing.ACTHprice\r\n        ) = AC_MGR.getCreateNoteCosts(_assetClass);\r\n        deductPayment(pricing);\r\n        //^^^^^^^interactions^^^^^^^^^\r\n    }\r\n\r\n    function deductReMintRecordCosts(uint256 _assetClass)\r\n        internal\r\n        whenNotPaused\r\n    {\r\n        //^^^^^^^checks^^^^^^^^^\r\n        Invoice memory pricing;\r\n        //^^^^^^^effects^^^^^^^^^\r\n        (\r\n            pricing.rootAddress,\r\n            pricing.rootPrice,\r\n            pricing.ACTHaddress,\r\n            pricing.ACTHprice\r\n        ) = AC_MGR.getReMintRecordCosts(_assetClass);\r\n        deductPayment(pricing);\r\n        //^^^^^^^interactions^^^^^^^^^\r\n    }\r\n\r\n    function deductChangeStatusCosts(uint256 _assetClass)\r\n        internal\r\n        whenNotPaused\r\n    {\r\n        //^^^^^^^checks^^^^^^^^^\r\n        Invoice memory pricing;\r\n        //^^^^^^^effects^^^^^^^^^\r\n        (\r\n            pricing.rootAddress,\r\n            pricing.rootPrice,\r\n            pricing.ACTHaddress,\r\n            pricing.ACTHprice\r\n        ) = AC_MGR.getChangeStatusCosts(_assetClass);\r\n        deductPayment(pricing);\r\n        //^^^^^^^interactions^^^^^^^^^\r\n    }\r\n\r\n    function deductForceModifyCosts(uint256 _assetClass) internal whenNotPaused {\r\n        //^^^^^^^checks^^^^^^^^^\r\n        Invoice memory pricing;\r\n        //^^^^^^^effects^^^^^^^^^\r\n        (\r\n            pricing.rootAddress,\r\n            pricing.rootPrice,\r\n            pricing.ACTHaddress,\r\n            pricing.ACTHprice\r\n        ) = AC_MGR.getForceModifyCosts(_assetClass);\r\n        deductPayment(pricing);\r\n        //^^^^^^^interactions^^^^^^^^^\r\n    }\r\n\r\n    //--------------------------------------------------------------PAYMENT FUNCTIONS\r\n    /*\r\n     * @dev Withdraws user's credit balance from contract\r\n     */\r\n    function $withdraw() external virtual payable nonReentrant {\r\n        //^^^^^^^checks^^^^^^^^^\r\n        withdrawPayments(msg.sender);\r\n        //^^^^^^^interactions^^^^^^^^^\r\n    }\r\n\r\n    /*\r\n     * @dev Deducts payment from transaction\r\n     */\r\n    function deductPayment(Invoice memory pricing) internal whenNotPaused {\r\n        uint256 messageValue = msg.value;\r\n        uint256 change;\r\n        uint256 total = pricing.rootPrice.add(pricing.ACTHprice);\r\n        require(msg.value >= total, \"C:DP: TX value too low.\");\r\n        //^^^^^^^checks^^^^^^^^^\r\n        change = messageValue.sub(total);\r\n        _asyncTransfer(pricing.rootAddress, pricing.rootPrice);\r\n        _asyncTransfer(pricing.ACTHaddress, pricing.ACTHprice);\r\n        _asyncTransfer(msg.sender, change);\r\n        //^^^^^^^interactions^^^^^^^^^\r\n    }\r\n\r\n//--------------------------------------------------------------------------------------status test internal functions\r\n\r\n    function isLostOrStolen(uint8 _assetStatus) internal pure returns (uint8) {\r\n        if (\r\n            (_assetStatus != 3) &&\r\n            (_assetStatus != 4) &&\r\n            (_assetStatus != 53) &&\r\n            (_assetStatus != 54)\r\n        ) {\r\n            return 0;\r\n        } else {\r\n            return 170;\r\n        }\r\n    }\r\n\r\n    /*\r\n     * @dev Check to see if record is in escrow status\r\n     */\r\n    function isEscrow(uint8 _assetStatus) internal pure returns (uint8) {\r\n        if (\r\n            (_assetStatus != 6) &&\r\n            (_assetStatus != 50) &&\r\n            (_assetStatus != 56)\r\n        ) {\r\n            return 0;\r\n        } else {\r\n            return 170;\r\n        }\r\n    }\r\n\r\n    function needsImport(uint8 _assetStatus) internal pure returns (uint8) {\r\n        if (\r\n            (_assetStatus != 5) &&\r\n            (_assetStatus != 55) &&\r\n            (_assetStatus != 70) &&\r\n            (_assetStatus != 60)\r\n        ) {\r\n            return 0;\r\n        } else {\r\n            return 170;\r\n        }\r\n    }\r\n\r\n    // function isReserved(uint8 _assetStatus) internal pure returns (uint8) {\r\n    //     if (\r\n    //         (_assetStatus != 7) &&\r\n    //         (_assetStatus != 57) &&\r\n    //         (_assetStatus != 58) &&\r\n    //         (_assetStatus != 60) &&\r\n    //         (_assetStatus != 70)\r\n    //     ) {\r\n    //         return 0;\r\n    //     } else {\r\n    //         return 170;\r\n    //     }\r\n    // }\r\n\r\n\r\n    \r\n}\r\n",
  "sourcePath": "C:\\Users\\Blayde\\Documents\\ETHDEV\\bulletproof\\PRUF_TRUFFLE\\contracts\\PRUF_CORE_MAL.sol",
  "compiler": {
    "name": "solc",
    "version": "0.6.9+commit.3e3065ac.Emscripten.clang"
  },
  "schemaVersion": "3.0.23",
  "updatedAt": "2020-08-20T17:17:06.232Z",
  "devdoc": {
    "methods": {
      "OO_pause()": {
        "details": "Triggers stopped state."
      },
      "OO_unpause()": {
        "details": "Returns to normal state."
      },
      "owner()": {
        "details": "Returns the address of the current owner."
      },
      "paused()": {
        "details": "Returns true if the contract is paused, and false otherwise."
      },
      "payments(address)": {
        "details": "Returns the payments owed to an address.",
        "params": {
          "dest": "The creditor's address."
        }
      },
      "renounceOwnership()": {
        "details": "Leaves the contract without owner. It will not be possible to call `onlyOwner` functions anymore. Can only be called by the current owner. NOTE: Renouncing ownership will leave the contract without an owner, thereby removing any functionality that is only available to the owner."
      },
      "transferOwnership(address)": {
        "details": "Transfers ownership of the contract to a new account (`newOwner`). Can only be called by the current owner."
      },
      "withdrawPayments(address)": {
        "details": "Withdraw accumulated payments, forwarding all gas to the recipient. Note that _any_ account can call this function, not just the `payee`. This means that contracts unaware of the `PullPayment` protocol can still receive funds this way, by having a separate account call {withdrawPayments}. WARNING: Forwarding all gas opens the door to reentrancy vulnerabilities. Make sure you trust the recipient, or are either following the checks-effects-interactions pattern or using {ReentrancyGuard}.",
        "params": {
          "payee": "Whose payments will be withdrawn."
        }
      }
    }
  },
  "userdoc": {
    "methods": {}
  }
}