{
  "contractName": "CORE",
  "abi": [
    {
      "anonymous": false,
      "inputs": [
        {
          "indexed": false,
          "internalType": "address",
          "name": "account",
          "type": "address"
        }
      ],
      "name": "Paused",
      "type": "event"
    },
    {
      "anonymous": false,
      "inputs": [
        {
          "indexed": false,
          "internalType": "string",
          "name": "_msg",
          "type": "string"
        }
      ],
      "name": "REPORT",
      "type": "event"
    },
    {
      "anonymous": false,
      "inputs": [
        {
          "indexed": true,
          "internalType": "bytes32",
          "name": "role",
          "type": "bytes32"
        },
        {
          "indexed": true,
          "internalType": "bytes32",
          "name": "previousAdminRole",
          "type": "bytes32"
        },
        {
          "indexed": true,
          "internalType": "bytes32",
          "name": "newAdminRole",
          "type": "bytes32"
        }
      ],
      "name": "RoleAdminChanged",
      "type": "event"
    },
    {
      "anonymous": false,
      "inputs": [
        {
          "indexed": true,
          "internalType": "bytes32",
          "name": "role",
          "type": "bytes32"
        },
        {
          "indexed": true,
          "internalType": "address",
          "name": "account",
          "type": "address"
        },
        {
          "indexed": true,
          "internalType": "address",
          "name": "sender",
          "type": "address"
        }
      ],
      "name": "RoleGranted",
      "type": "event"
    },
    {
      "anonymous": false,
      "inputs": [
        {
          "indexed": true,
          "internalType": "bytes32",
          "name": "role",
          "type": "bytes32"
        },
        {
          "indexed": true,
          "internalType": "address",
          "name": "account",
          "type": "address"
        },
        {
          "indexed": true,
          "internalType": "address",
          "name": "sender",
          "type": "address"
        }
      ],
      "name": "RoleRevoked",
      "type": "event"
    },
    {
      "anonymous": false,
      "inputs": [
        {
          "indexed": false,
          "internalType": "address",
          "name": "account",
          "type": "address"
        }
      ],
      "name": "Unpaused",
      "type": "event"
    },
    {
      "inputs": [],
      "name": "ASSET_TXFR_ROLE",
      "outputs": [
        {
          "internalType": "bytes32",
          "name": "",
          "type": "bytes32"
        }
      ],
      "stateMutability": "view",
      "type": "function"
    },
    {
      "inputs": [],
      "name": "CONTRACT_ADMIN_ROLE",
      "outputs": [
        {
          "internalType": "bytes32",
          "name": "",
          "type": "bytes32"
        }
      ],
      "stateMutability": "view",
      "type": "function"
    },
    {
      "inputs": [],
      "name": "DEFAULT_ADMIN_ROLE",
      "outputs": [
        {
          "internalType": "bytes32",
          "name": "",
          "type": "bytes32"
        }
      ],
      "stateMutability": "view",
      "type": "function"
    },
    {
      "inputs": [],
      "name": "OO_resolveContractAddresses",
      "outputs": [],
      "stateMutability": "nonpayable",
      "type": "function"
    },
    {
      "inputs": [
        {
          "internalType": "address",
          "name": "_storageAddress",
          "type": "address"
        }
      ],
      "name": "OO_setStorageContract",
      "outputs": [],
      "stateMutability": "nonpayable",
      "type": "function"
    },
    {
      "inputs": [
        {
          "internalType": "address",
          "name": "_to",
          "type": "address"
        },
        {
          "internalType": "uint256",
          "name": "_tokenID",
          "type": "uint256"
        }
      ],
      "name": "OO_transferACToken",
      "outputs": [],
      "stateMutability": "nonpayable",
      "type": "function"
    },
    {
      "inputs": [],
      "name": "PAUSER_ROLE",
      "outputs": [
        {
          "internalType": "bytes32",
          "name": "",
          "type": "bytes32"
        }
      ],
      "stateMutability": "view",
      "type": "function"
    },
    {
      "inputs": [
        {
          "internalType": "bytes32",
          "name": "role",
          "type": "bytes32"
        }
      ],
      "name": "getRoleAdmin",
      "outputs": [
        {
          "internalType": "bytes32",
          "name": "",
          "type": "bytes32"
        }
      ],
      "stateMutability": "view",
      "type": "function"
    },
    {
      "inputs": [
        {
          "internalType": "bytes32",
          "name": "role",
          "type": "bytes32"
        },
        {
          "internalType": "uint256",
          "name": "index",
          "type": "uint256"
        }
      ],
      "name": "getRoleMember",
      "outputs": [
        {
          "internalType": "address",
          "name": "",
          "type": "address"
        }
      ],
      "stateMutability": "view",
      "type": "function"
    },
    {
      "inputs": [
        {
          "internalType": "bytes32",
          "name": "role",
          "type": "bytes32"
        }
      ],
      "name": "getRoleMemberCount",
      "outputs": [
        {
          "internalType": "uint256",
          "name": "",
          "type": "uint256"
        }
      ],
      "stateMutability": "view",
      "type": "function"
    },
    {
      "inputs": [
        {
          "internalType": "bytes32",
          "name": "role",
          "type": "bytes32"
        },
        {
          "internalType": "address",
          "name": "account",
          "type": "address"
        }
      ],
      "name": "grantRole",
      "outputs": [],
      "stateMutability": "nonpayable",
      "type": "function"
    },
    {
      "inputs": [
        {
          "internalType": "bytes32",
          "name": "role",
          "type": "bytes32"
        },
        {
          "internalType": "address",
          "name": "account",
          "type": "address"
        }
      ],
      "name": "hasRole",
      "outputs": [
        {
          "internalType": "bool",
          "name": "",
          "type": "bool"
        }
      ],
      "stateMutability": "view",
      "type": "function"
    },
    {
      "inputs": [
        {
          "internalType": "address",
          "name": "",
          "type": "address"
        },
        {
          "internalType": "address",
          "name": "",
          "type": "address"
        },
        {
          "internalType": "uint256",
          "name": "",
          "type": "uint256"
        },
        {
          "internalType": "bytes",
          "name": "",
          "type": "bytes"
        }
      ],
      "name": "onERC721Received",
      "outputs": [
        {
          "internalType": "bytes4",
          "name": "",
          "type": "bytes4"
        }
      ],
      "stateMutability": "nonpayable",
      "type": "function"
    },
    {
      "inputs": [],
      "name": "pause",
      "outputs": [],
      "stateMutability": "nonpayable",
      "type": "function"
    },
    {
      "inputs": [],
      "name": "paused",
      "outputs": [
        {
          "internalType": "bool",
          "name": "",
          "type": "bool"
        }
      ],
      "stateMutability": "view",
      "type": "function"
    },
    {
      "inputs": [
        {
          "internalType": "bytes32",
          "name": "role",
          "type": "bytes32"
        },
        {
          "internalType": "address",
          "name": "account",
          "type": "address"
        }
      ],
      "name": "renounceRole",
      "outputs": [],
      "stateMutability": "nonpayable",
      "type": "function"
    },
    {
      "inputs": [
        {
          "internalType": "bytes32",
          "name": "role",
          "type": "bytes32"
        },
        {
          "internalType": "address",
          "name": "account",
          "type": "address"
        }
      ],
      "name": "revokeRole",
      "outputs": [],
      "stateMutability": "nonpayable",
      "type": "function"
    },
    {
      "inputs": [
        {
          "internalType": "address",
          "name": "_to",
          "type": "address"
        },
        {
          "internalType": "bytes32",
          "name": "_idxHash",
          "type": "bytes32"
        }
      ],
      "name": "transferAssetToken",
      "outputs": [],
      "stateMutability": "nonpayable",
      "type": "function"
    },
    {
      "inputs": [],
      "name": "unpause",
      "outputs": [],
      "stateMutability": "nonpayable",
      "type": "function"
    }
  ],
  "bytecode": "0x60806040523480156200001157600080fd5b50600160009081556002805460ff191690556200003890620000326200009c565b620000a0565b620000677f2ce8d04a9c35987429af538825cd2438cc5c5bb5dc427955f84daaa3ea105016620000326200009c565b620000967f65d7a28e3265b37a6474929f336521b332c1681b933f6cb9f3376673440d862a620000326200009c565b620001b2565b3390565b620000ac8282620000b0565b5050565b6000828152600160209081526040909120620000d791839062000da46200012b821b17901c565b15620000ac57620000e76200009c565b6001600160a01b0316816001600160a01b0316837f2f8788117e7eff1d82e926ec794901d17c78024a50270940304540a733656f0d60405160405180910390a45050565b600062000142836001600160a01b0384166200014b565b90505b92915050565b60006200015983836200019a565b620001915750815460018181018455600084815260208082209093018490558454848252828601909352604090209190915562000145565b50600062000145565b60009081526001919091016020526040902054151590565b6117f680620001c26000396000f3fe608060405234801561001057600080fd5b50600436106101215760003560e01c80638456cb59116100ad578063ca15c87311610071578063ca15c8731461022d578063d547741f14610240578063d6b02ecf14610253578063e63ab1e914610266578063e8b416531461026e57610121565b80638456cb59146101d75780639010d07c146101df57806391d14854146101ff57806392ba3da614610212578063a217fddf1461022557610121565b80632f2ff15d116100f45780632f2ff15d1461017f57806336568abe146101945780633f4ba83a146101a7578063440e7a7e146101af5780635c975abb146101c257610121565b80631429db5f14610126578063150b7a02146101445780631da0331214610164578063248a9ca31461016c575b600080fd5b61012e610276565b60405161013b9190611324565b60405180910390f35b6101576101523660046111b4565b61029a565b60405161013b919061132d565b61012e6102ab565b61012e61017a366004611279565b6102bd565b61019261018d366004611291565b6102d2565b005b6101926101a2366004611291565b610323565b610192610365565b6101926101bd36600461124e565b6103b7565b6101ca610497565b60405161013b9190611319565b6101926104a0565b6101f26101ed3660046112c0565b6104f0565b60405161013b91906112e1565b6101ca61020d366004611291565b610511565b61019261022036600461124e565b610529565b61012e6105f6565b61012e61023b366004611279565b6105fb565b61019261024e366004611291565b610612565b610192610261366004611175565b61064c565b61012e6106ca565b6101926106ee565b7f7f1e4e9f3d9ba0452a25cfef4cd4c6ffc86158d06ed2f585fa0093e12dec429c81565b630a85bd0160e11b95945050505050565b6000805160206117a183398151915281565b60009081526001602052604090206002015490565b6000828152600160205260409020600201546102f09061020d610db9565b6103155760405162461bcd60e51b815260040161030c90611384565b60405180910390fd5b61031f8282610dbd565b5050565b61032b610db9565b6001600160a01b0316816001600160a01b03161461035b5760405162461bcd60e51b815260040161030c906116f4565b61031f8282610e26565b6103917f65d7a28e3265b37a6474929f336521b332c1681b933f6cb9f3376673440d862a61020d610db9565b6103ad5760405162461bcd60e51b815260040161030c906115d7565b6103b5610e8f565b565b600260005414156103da5760405162461bcd60e51b815260040161030c9061167b565b600260005561040b7f7f1e4e9f3d9ba0452a25cfef4cd4c6ffc86158d06ed2f585fa0093e12dec429c61020d610db9565b6104275760405162461bcd60e51b815260040161030c90611541565b600954604051632142170760e11b815282916001600160a01b0316906342842e0e9061045b903090879086906004016112f5565b600060405180830381600087803b15801561047557600080fd5b505af1158015610489573d6000803e3d6000fd5b505060016000555050505050565b60025460ff1690565b6104cc7f65d7a28e3265b37a6474929f336521b332c1681b933f6cb9f3376673440d862a61020d610db9565b6104e85760405162461bcd60e51b815260040161030c906115d7565b6103b5610efd565b60008281526001602052604081206105089083610f58565b90505b92915050565b60008281526001602052604081206105089083610f64565b6105436000805160206117a183398151915261020d610db9565b61055f5760405162461bcd60e51b815260040161030c9061141e565b600260005414156105825760405162461bcd60e51b815260040161030c9061167b565b6002600055600b54604051632142170760e11b81526001600160a01b03909116906342842e0e906105bb903090869086906004016112f5565b600060405180830381600087803b1580156105d557600080fd5b505af11580156105e9573d6000803e3d6000fd5b5050600160005550505050565b600081565b600081815260016020526040812061050b90610f79565b6000828152600160205260409020600201546106309061020d610db9565b61035b5760405162461bcd60e51b815260040161030c906114c7565b6106666000805160206117a183398151915261020d610db9565b6106825760405162461bcd60e51b815260040161030c9061141e565b6001600160a01b0381166106a85760405162461bcd60e51b815260040161030c90611482565b600380546001600160a01b0319166001600160a01b0392909216919091179055565b7f65d7a28e3265b37a6474929f336521b332c1681b933f6cb9f3376673440d862a81565b600260005414156107115760405162461bcd60e51b815260040161030c9061167b565b60026000556107306000805160206117a183398151915261020d610db9565b61074c5760405162461bcd60e51b815260040161030c9061141e565b6003546040516363b8d4c160e11b81526001600160a01b039091169063c771a9829061077a90600401611597565b60206040518083038186803b15801561079257600080fd5b505afa1580156107a6573d6000803e3d6000fd5b505050506040513d601f19601f820116820180604052508101906107ca9190611198565b600a80546001600160a01b039283166001600160a01b03199182161791829055600b80549091169183169190911790556003546040516363b8d4c160e11b815291169063c771a9829061081f906004016116d4565b60206040518083038186803b15801561083757600080fd5b505afa15801561084b573d6000803e3d6000fd5b505050506040513d601f19601f8201168201806040525081019061086f9190611198565b600480546001600160a01b039283166001600160a01b031991821617808355600580549092169084161790556003546040516363b8d4c160e11b815292169163c771a982916108be91016116b2565b60206040518083038186803b1580156108d657600080fd5b505afa1580156108ea573d6000803e3d6000fd5b505050506040513d601f19601f8201168201806040525081019061090e9190611198565b600680546001600160a01b039283166001600160a01b03199182161791829055600780549091169183169190911790556003546040516363b8d4c160e11b815291169063c771a9829061096390600401611578565b60206040518083038186803b15801561097b57600080fd5b505afa15801561098f573d6000803e3d6000fd5b505050506040513d601f19601f820116820180604052508101906109b39190611198565b600880546001600160a01b039283166001600160a01b03199182161791829055600980549091169183169190911790556003546040516363b8d4c160e11b815291169063c771a98290610a089060040161161e565b60206040518083038186803b158015610a2057600080fd5b505afa158015610a34573d6000803e3d6000fd5b505050506040513d601f19601f82011682018060405250810190610a589190611198565b600c80546001600160a01b039283166001600160a01b03199182161791829055600d80549091169183169190911790556003546040516363b8d4c160e11b815291169063c771a98290610aad9060040161163e565b60206040518083038186803b158015610ac557600080fd5b505afa158015610ad9573d6000803e3d6000fd5b505050506040513d601f19601f82011682018060405250810190610afd9190611198565b600e80546001600160a01b039283166001600160a01b03199182161791829055600f80549091169183169190911790556003546040516363b8d4c160e11b815291169063c771a98290610b5290600401611401565b60206040518083038186803b158015610b6a57600080fd5b505afa158015610b7e573d6000803e3d6000fd5b505050506040513d601f19601f82011682018060405250810190610ba29190611198565b601280546001600160a01b039283166001600160a01b03199182161791829055601380549091169183169190911790556003546040516363b8d4c160e11b815291169063c771a98290610bf790600401611464565b60206040518083038186803b158015610c0f57600080fd5b505afa158015610c23573d6000803e3d6000fd5b505050506040513d601f19601f82011682018060405250810190610c479190611198565b601080546001600160a01b039283166001600160a01b03199182161791829055601180549091169183169190911790556003546040516363b8d4c160e11b815291169063c771a98290610c9c906004016115b7565b60206040518083038186803b158015610cb457600080fd5b505afa158015610cc8573d6000803e3d6000fd5b505050506040513d601f19601f82011682018060405250810190610cec9190611198565b601480546001600160a01b0319166001600160a01b039283161790556003546040516363b8d4c160e11b815291169063c771a98290610d2d9060040161165f565b60206040518083038186803b158015610d4557600080fd5b505afa158015610d59573d6000803e3d6000fd5b505050506040513d601f19601f82011682018060405250810190610d7d9190611198565b601780546001600160a01b0319166001600160a01b03929092169190911790556001600055565b6000610508836001600160a01b038416610f84565b3390565b6000828152600160205260409020610dd59082610da4565b1561031f57610de2610db9565b6001600160a01b0316816001600160a01b0316837f2f8788117e7eff1d82e926ec794901d17c78024a50270940304540a733656f0d60405160405180910390a45050565b6000828152600160205260409020610e3e9082610fce565b1561031f57610e4b610db9565b6001600160a01b0316816001600160a01b0316837ff6391f5c32d9c69d2a47ea670b442974b53935d1edc7fd64eb21e047a839171b60405160405180910390a45050565b610e97610497565b610eb35760405162461bcd60e51b815260040161030c906113d3565b6002805460ff191690557f5db9ee0a495bf2e6ff9c91a7834c1ba4fdd244a5e8aa4e537bd38aeae4b073aa610ee6610db9565b604051610ef391906112e1565b60405180910390a1565b610f05610497565b15610f225760405162461bcd60e51b815260040161030c90611517565b6002805460ff191660011790557f62e78cea01bee320cd4e420270b5ea74000d11b0c9f74754ebdbfc544b05a258610ee6610db9565b60006105088383610fe3565b6000610508836001600160a01b03841661103c565b600061050b82611054565b6000610f90838361103c565b610fc65750815460018181018455600084815260208082209093018490558454848252828601909352604090209190915561050b565b50600061050b565b6000610508836001600160a01b038416611058565b815460009082106110065760405162461bcd60e51b815260040161030c90611342565b82600001828154811061102957634e487b7160e01b600052603260045260246000fd5b9060005260206000200154905092915050565b60009081526001919091016020526040902054151590565b5490565b6000818152600183016020526040812054801561116b57600061107c60018361175b565b85549091506000906110909060019061175b565b905060008660000182815481106110b757634e487b7160e01b600052603260045260246000fd5b90600052602060002001549050808760000184815481106110e857634e487b7160e01b600052603260045260246000fd5b6000918252602090912001556110ff836001611743565b6000828152600189016020526040902055865487908061112f57634e487b7160e01b600052603160045260246000fd5b6001900381819060005260206000200160009055905586600101600087815260200190815260200160002060009055600194505050505061050b565b600091505061050b565b600060208284031215611186578081fd5b813561119181611788565b9392505050565b6000602082840312156111a9578081fd5b815161119181611788565b6000806000806000608086880312156111cb578081fd5b85356111d681611788565b945060208601356111e681611788565b935060408601359250606086013567ffffffffffffffff80821115611209578283fd5b818801915088601f83011261121c578283fd5b81358181111561122a578384fd5b89602082850101111561123b578384fd5b9699959850939650602001949392505050565b60008060408385031215611260578182fd5b823561126b81611788565b946020939093013593505050565b60006020828403121561128a578081fd5b5035919050565b600080604083850312156112a3578182fd5b8235915060208301356112b581611788565b809150509250929050565b600080604083850312156112d2578182fd5b50508035926020909101359150565b6001600160a01b0391909116815260200190565b6001600160a01b039384168152919092166020820152604081019190915260600190565b901515815260200190565b90815260200190565b6001600160e01b031991909116815260200190565b60208082526022908201527f456e756d657261626c655365743a20696e646578206f7574206f6620626f756e604082015261647360f01b606082015260800190565b6020808252602f908201527f416363657373436f6e74726f6c3a2073656e646572206d75737420626520616e60408201526e0818591b5a5b881d1bc819dc985b9d608a1b606082015260800190565b60208082526014908201527314185d5cd8589b194e881b9bdd081c185d5cd95960621b604082015260600190565b60208082526003908201526204150560ec1b604082015260600190565b60208082526026908201527f50414d3a4d4f443a206d757374206861766520434f4e54524143545f41444d496040820152654e5f524f4c4560d01b606082015260800190565b6020808252600490820152632921a62960e11b604082015260600190565b60208082526025908201527f423a5353433a2073746f7261676520616464726573732063616e6e6f74206265604082015264207a65726f60d81b606082015260800190565b60208082526030908201527f416363657373436f6e74726f6c3a2073656e646572206d75737420626520616e60408201526f2061646d696e20746f207265766f6b6560801b606082015260800190565b60208082526010908201526f14185d5cd8589b194e881c185d5cd95960821b604082015260600190565b6020808252601e908201527f423a54583a4d75737420686176652041535345545f545846525f524f4c450000604082015260600190565b60208082526005908201526420afaa25a760d91b604082015260600190565b60208082526006908201526520a1afaa25a760d11b604082015260600190565b6020808252600690820152654150505f4e4360d01b604082015260600190565b60208082526027908201527f41543a4d4f442d49413a43616c6c696e672061646472657373206973206e6f74604082015266103830bab9b2b960c91b606082015260800190565b60208082526006908201526524a22faa25a760d11b604082015260600190565b60208082526007908201526622a1a92fa6a3a960c91b604082015260600190565b60208082526002908201526104e560f41b604082015260600190565b6020808252601f908201527f5265656e7472616e637947756172643a207265656e7472616e742063616c6c00604082015260600190565b6020808252600890820152672aaa24a62faa25a760c11b604082015260600190565b60208082526006908201526520a1afa6a3a960d11b604082015260600190565b6020808252602f908201527f416363657373436f6e74726f6c3a2063616e206f6e6c792072656e6f756e636560408201526e103937b632b9903337b91039b2b63360891b606082015260800190565b6000821982111561175657611756611772565b500190565b60008282101561176d5761176d611772565b500390565b634e487b7160e01b600052601160045260246000fd5b6001600160a01b038116811461179d57600080fd5b5056fe2ce8d04a9c35987429af538825cd2438cc5c5bb5dc427955f84daaa3ea105016a2646970667358221220ddf3d1aee32c1e422440bd6a079a4fb8034d4b229525d60c18d63dd9a1b19cc064736f6c63430008000033",
  "immutableReferences": {},
  "source": "/*--------------------------------------------------------PRuF0.7.1\n__/\\\\\\\\\\\\\\\\\\\\\\\\\\ _____/\\\\\\\\\\\\\\\\\\ _______/\\\\../\\\\ ___/\\\\\\\\\\\\\\\\\\\\\\\\\\\\\\\n _\\/\\\\\\/////////\\\\\\ _/\\\\\\///////\\\\\\ ____\\//..\\//____\\/\\\\\\///////////__\n  _\\/\\\\\\.......\\/\\\\\\.\\/\\\\\\.....\\/\\\\\\ ________________\\/\\\\\\ ____________\n   _\\/\\\\\\\\\\\\\\\\\\\\\\\\\\/__\\/\\\\\\\\\\\\\\\\\\\\\\/_____/\\\\\\____/\\\\\\.\\/\\\\\\\\\\\\\\\\\\\\\\ ____\n    _\\/\\\\\\/////////____\\/\\\\\\//////\\\\\\ ___\\/\\\\\\___\\/\\\\\\.\\/\\\\\\///////______\n     _\\/\\\\\\ ____________\\/\\\\\\ ___\\//\\\\\\ __\\/\\\\\\___\\/\\\\\\.\\/\\\\\\ ____________\n      _\\/\\\\\\ ____________\\/\\\\\\ ____\\//\\\\\\ _\\/\\\\\\___\\/\\\\\\.\\/\\\\\\ ____________\n       _\\/\\\\\\ ____________\\/\\\\\\ _____\\//\\\\\\.\\//\\\\\\\\\\\\\\\\\\ _\\/\\\\\\ ____________\n        _\\/// _____________\\/// _______\\/// __\\///////// __\\/// _____________\n         *-------------------------------------------------------------------*/\n\n/*-----------------------------------------------------------------\n *  TO DO\n *\n *-----------------------------------------------------------------\n * IMPORTANT!!! NO EXTERNAL OR PUBLIC FUNCTIONS ALLOWED IN THIS CONTRACT!!!!!!!!\n *-----------------------------------------------------------------\n * PRUF core provides additional core functionality covering cost getters, payment processing, withdrawls, common test conditionals, and setters for data in storage\n *---------------------------------------------------------------*/\n\n// SPDX-License-Identifier: UNLICENSED\npragma solidity ^0.8.0;\n\nimport \"./PRUF_INTERFACES.sol\";\nimport \"./Imports/utils/ReentrancyGuard.sol\";\nimport \"./PRUF_BASIC.sol\";\n\ncontract CORE is BASIC {\n    using SafeMath for uint256;\n\n    struct Costs {\n        uint256 serviceCost; // Cost in the given item category\n        address paymentAddress; // 2nd-party fee beneficiary address\n    }\n\n    struct Invoice {\n        //invoice struct to facilitate payment messaging in-contract\n        address rootAddress;\n        uint256 rootPrice;\n        address ACTHaddress;\n        uint256 ACTHprice;\n    }\n\n    //--------------------------------------------------------------------------------------Storage Writing internal functions\n\n    /*\n     * @dev create a Record in Storage @ idxHash (SETTER)\n     */\n    function createRecord(\n        bytes32 _idxHash,\n        bytes32 _rgtHash,\n        uint32 _assetClass,\n        uint32 _countDownStart\n    ) internal virtual {\n        uint256 tokenId = uint256(_idxHash);\n        AC memory AC_info = getACinfo(_assetClass);\n\n        require(\n            A_TKN.tokenExists(tokenId) == 0,\n            \"C:CR:Asset token already exists\"\n        );\n\n        require(\n            AC_info.custodyType != 3,\n            \"C:CR:Cannot create asset in a root asset class\"\n        );\n\n        require(\n            (AC_info.custodyType == 1) ||\n                (AC_info.custodyType == 2) ||\n                (AC_info.custodyType == 4),\n            \"C:CR:Cannot create asset - contract not authorized for asset class custody type\"\n        );\n\n        if (AC_info.custodyType == 1) {\n            A_TKN.mintAssetToken(address(this), tokenId, \"pruf.io\");\n        }\n\n        if ((AC_info.custodyType == 2) || (AC_info.custodyType == 4)) {\n            A_TKN.mintAssetToken(_msgSender(), tokenId, \"pruf.io\");\n        }\n\n        STOR.newRecord(_idxHash, _rgtHash, _assetClass, _countDownStart);\n    }\n\n    /*\n     * @dev Write a Record to Storage @ idxHash (SETTER)\n     */\n    function writeRecord(bytes32 _idxHash, Record memory _rec)\n        internal\n        virtual\n        whenNotPaused\n    //isAuthorized(_idxHash)\n    {\n        //^^^^^^^checks^^^^^^^^^\n\n        STOR.modifyRecord(\n            _idxHash,\n            _rec.rightsHolder,\n            _rec.assetStatus,\n            _rec.countDown,\n            _rec.forceModCount,\n            _rec.numberOfTransfers\n        ); // Send data and writehash to storage\n        //^^^^^^^interactions^^^^^^^^^\n    }\n\n    /*\n     * @dev Write an Ipfs Record to Storage @ idxHash  (SETTER)\n     */\n    function writeRecordIpfs1(bytes32 _idxHash, Record memory _rec)\n        internal\n        virtual\n        whenNotPaused\n    {\n        //^^^^^^^Checks^^^^^^^^^\n\n        STOR.modifyIpfs1(_idxHash, _rec.Ipfs1); // Send data to storage\n        //^^^^^^^interactions^^^^^^^^^\n    }\n\n    /*\n     * @dev Write an Ipfs Record to Storage @ idxHash  (SETTER)\n     */\n    function writeRecordIpfs2(bytes32 _idxHash, Record memory _rec)\n        internal\n        virtual\n        whenNotPaused\n    //isAuthorized(_idxHash)\n    {\n        //^^^^^^^checks^^^^^^^^^\n\n        STOR.modifyIpfs2(_idxHash, _rec.Ipfs2); // Send data to storage\n        //^^^^^^^interactions^^^^^^^^^\n    }\n\n    //--------------------------------------------------------------------------------------Payment internal functions\n\n    /*\n     * @dev Send payment to appropriate pullPayment adresses for payable function\n     */\n    function deductServiceCosts(uint32 _assetClass, uint16 _service)\n        internal\n        virtual\n        whenNotPaused\n    {\n        //^^^^^^^checks^^^^^^^^^\n        Invoice memory pricing;\n        uint256 ACTHnetPercent = uint256(AC_MGR.getAC_discount(_assetClass))\n            .div(uint256(100));\n        require( //IMPOSSIBLE TO REACH unless stuff is really broken, still ensures sanity\n            (ACTHnetPercent >= 0) && (ACTHnetPercent <= 100),\n            \"PC:DSC:invalid discount value for price calculation\"\n        );\n        (\n            pricing.rootAddress,\n            pricing.rootPrice,\n            pricing.ACTHaddress,\n            pricing.ACTHprice\n        ) = AC_MGR.getServiceCosts(_assetClass, _service);\n\n        //^^^^^^^effects^^^^^^^^^\n\n        uint256 percent = pricing.ACTHprice.div(uint256(100)); //calculate 1% of listed ACTH price\n\n        uint256 _ACTHprice = ACTHnetPercent.mul(percent); //calculate the share proprotrion% * 1%\n\n        uint256 prufShare = pricing.ACTHprice.sub(_ACTHprice);\n\n        pricing.ACTHprice = _ACTHprice;\n        pricing.rootPrice = pricing.rootPrice.add(prufShare);\n\n        deductPayment(pricing);\n        //^^^^^^^interactions^^^^^^^^^\n    }\n\n    /*\n     * @dev Send payment to appropriate pullPayment adresses for payable function\n     */\n    function deductRecycleCosts(\n        uint32 _assetClass,\n        address _oldOwner //DBS:CHECK --------------- Payment now pays 1/2 ACTHcost + root to discarder, 1/2 to ACTH\n    ) internal virtual whenNotPaused {\n        //^^^^^^^checks^^^^^^^^^\n        Invoice memory pricing;\n        uint256 half;\n        //^^^^^^^effects^^^^^^^^^\n        (\n            pricing.rootAddress,\n            pricing.rootPrice,\n            pricing.ACTHaddress,\n            pricing.ACTHprice\n        ) = AC_MGR.getServiceCosts(_assetClass, 1);\n        pricing.rootAddress = _oldOwner;\n\n        half = pricing.ACTHprice.div(2);\n        pricing.rootPrice = pricing.rootPrice.add(half);\n        pricing.ACTHprice = pricing.ACTHprice.sub(half);\n\n        deductPayment(pricing);\n        //^^^^^^^interactions^^^^^^^^^\n    }\n\n    //--------------------------------------------------------------PAYMENT FUNCTIONS\n\n    /*\n     * @dev Deducts payment from transaction\n     */\n    function deductPayment(Invoice memory pricing)\n        internal\n        virtual\n        whenNotPaused\n    {\n        UTIL_TKN.payForService(\n            _msgSender(),\n            pricing.rootAddress,\n            pricing.rootPrice,\n            pricing.ACTHaddress,\n            pricing.ACTHprice\n        );\n    }\n\n    //----------------------------------------------------------------------STATUS CHECKS\n\n    /*\n     * @dev Check to see if record is lost or stolen\n     */\n    function isLostOrStolen(uint8 _assetStatus) internal pure returns (uint8) {\n        if (\n            (_assetStatus != 3) &&\n            (_assetStatus != 4) &&\n            (_assetStatus != 53) &&\n            (_assetStatus != 54)\n        ) {\n            return 0;\n        } else {\n            return 170;\n        }\n    }\n\n    /*\n     * @dev Check to see if record is in escrow status\n     */\n    function isEscrow(uint8 _assetStatus) internal pure returns (uint8) {\n        if (\n            (_assetStatus != 6) && (_assetStatus != 50) && (_assetStatus != 56)\n        ) {\n            return 0;\n        } else {\n            return 170;\n        }\n    }\n\n    /*\n     * @dev Check to see if record needs imported\n     */\n    function needsImport(uint8 _assetStatus) internal pure returns (uint8) {\n        if (\n            (_assetStatus != 5) &&\n            (_assetStatus != 55) &&\n            (_assetStatus != 70) &&\n            (_assetStatus != 60)\n        ) {\n            return 0;\n        } else {\n            return 170;\n        }\n    }\n}\n",
  "sourcePath": "C:\\Users\\User\\Documents\\DEV\\PRUF\\PRUF_TRUFFLE\\contracts\\PRUF_CORE.sol",
  "compiler": {
    "name": "solc",
    "version": "0.8.0+commit.c7dfd78e.Emscripten.clang"
  },
  "schemaVersion": "3.3.3",
  "updatedAt": "2021-02-18T22:17:44.089Z",
  "devdoc": {
    "kind": "dev",
    "methods": {
      "getRoleAdmin(bytes32)": {
        "details": "Returns the admin role that controls `role`. See {grantRole} and {revokeRole}. To change a role's admin, use {_setRoleAdmin}."
      },
      "getRoleMember(bytes32,uint256)": {
        "details": "Returns one of the accounts that have `role`. `index` must be a value between 0 and {getRoleMemberCount}, non-inclusive. Role bearers are not sorted in any particular way, and their ordering may change at any point. WARNING: When using {getRoleMember} and {getRoleMemberCount}, make sure you perform all queries on the same block. See the following https://forum.openzeppelin.com/t/iterating-over-elements-on-enumerableset-in-openzeppelin-contracts/2296[forum post] for more information."
      },
      "getRoleMemberCount(bytes32)": {
        "details": "Returns the number of accounts that have `role`. Can be used together with {getRoleMember} to enumerate all bearers of a role."
      },
      "grantRole(bytes32,address)": {
        "details": "Grants `role` to `account`. If `account` had not been already granted `role`, emits a {RoleGranted} event. Requirements: - the caller must have ``role``'s admin role."
      },
      "hasRole(bytes32,address)": {
        "details": "Returns `true` if `account` has been granted `role`."
      },
      "pause()": {
        "details": "Triggers stopped state. (pausable)"
      },
      "paused()": {
        "details": "Returns true if the contract is paused, and false otherwise."
      },
      "renounceRole(bytes32,address)": {
        "details": "Revokes `role` from the calling account. Roles are often managed via {grantRole} and {revokeRole}: this function's purpose is to provide a mechanism for accounts to lose their privileges if they are compromised (such as when a trusted device is misplaced). If the calling account had been granted `role`, emits a {RoleRevoked} event. Requirements: - the caller must be `account`."
      },
      "revokeRole(bytes32,address)": {
        "details": "Revokes `role` from `account`. If `account` had been granted `role`, emits a {RoleRevoked} event. Requirements: - the caller must have ``role``'s admin role."
      },
      "unpause()": {
        "details": "Returns to normal state. (pausable)"
      }
    },
    "version": 1
  },
  "userdoc": {
    "kind": "user",
    "methods": {},
    "version": 1
  }
}