{
  "contractName": "CORE_MAL",
  "abi": [
    {
      "anonymous": false,
      "inputs": [
        {
          "indexed": true,
          "internalType": "address",
          "name": "previousOwner",
          "type": "address"
        },
        {
          "indexed": true,
          "internalType": "address",
          "name": "newOwner",
          "type": "address"
        }
      ],
      "name": "OwnershipTransferred",
      "type": "event"
    },
    {
      "anonymous": false,
      "inputs": [
        {
          "indexed": false,
          "internalType": "address",
          "name": "account",
          "type": "address"
        }
      ],
      "name": "Paused",
      "type": "event"
    },
    {
      "anonymous": false,
      "inputs": [
        {
          "indexed": false,
          "internalType": "string",
          "name": "_msg",
          "type": "string"
        }
      ],
      "name": "REPORT",
      "type": "event"
    },
    {
      "anonymous": false,
      "inputs": [
        {
          "indexed": false,
          "internalType": "address",
          "name": "account",
          "type": "address"
        }
      ],
      "name": "Unpaused",
      "type": "event"
    },
    {
      "inputs": [],
      "name": "OO_pause",
      "outputs": [],
      "stateMutability": "nonpayable",
      "type": "function"
    },
    {
      "inputs": [],
      "name": "OO_resolveContractAddresses",
      "outputs": [],
      "stateMutability": "nonpayable",
      "type": "function"
    },
    {
      "inputs": [
        {
          "internalType": "address",
          "name": "_storageAddress",
          "type": "address"
        }
      ],
      "name": "OO_setStorageContract",
      "outputs": [],
      "stateMutability": "nonpayable",
      "type": "function"
    },
    {
      "inputs": [
        {
          "internalType": "address",
          "name": "_to",
          "type": "address"
        },
        {
          "internalType": "bytes32",
          "name": "_idxHash",
          "type": "bytes32"
        }
      ],
      "name": "OO_transferACToken",
      "outputs": [],
      "stateMutability": "nonpayable",
      "type": "function"
    },
    {
      "inputs": [],
      "name": "OO_unpause",
      "outputs": [],
      "stateMutability": "nonpayable",
      "type": "function"
    },
    {
      "inputs": [
        {
          "internalType": "address",
          "name": "",
          "type": "address"
        },
        {
          "internalType": "address",
          "name": "",
          "type": "address"
        },
        {
          "internalType": "uint256",
          "name": "",
          "type": "uint256"
        },
        {
          "internalType": "bytes",
          "name": "",
          "type": "bytes"
        }
      ],
      "name": "onERC721Received",
      "outputs": [
        {
          "internalType": "bytes4",
          "name": "",
          "type": "bytes4"
        }
      ],
      "stateMutability": "nonpayable",
      "type": "function"
    },
    {
      "inputs": [],
      "name": "owner",
      "outputs": [
        {
          "internalType": "address",
          "name": "",
          "type": "address"
        }
      ],
      "stateMutability": "view",
      "type": "function"
    },
    {
      "inputs": [],
      "name": "paused",
      "outputs": [
        {
          "internalType": "bool",
          "name": "",
          "type": "bool"
        }
      ],
      "stateMutability": "view",
      "type": "function"
    },
    {
      "inputs": [
        {
          "internalType": "address",
          "name": "dest",
          "type": "address"
        }
      ],
      "name": "payments",
      "outputs": [
        {
          "internalType": "uint256",
          "name": "",
          "type": "uint256"
        }
      ],
      "stateMutability": "view",
      "type": "function"
    },
    {
      "inputs": [],
      "name": "renounceOwnership",
      "outputs": [],
      "stateMutability": "nonpayable",
      "type": "function"
    },
    {
      "inputs": [
        {
          "internalType": "address",
          "name": "_to",
          "type": "address"
        },
        {
          "internalType": "bytes32",
          "name": "_idxHash",
          "type": "bytes32"
        }
      ],
      "name": "transferAssetToken",
      "outputs": [],
      "stateMutability": "nonpayable",
      "type": "function"
    },
    {
      "inputs": [
        {
          "internalType": "address",
          "name": "newOwner",
          "type": "address"
        }
      ],
      "name": "transferOwnership",
      "outputs": [],
      "stateMutability": "nonpayable",
      "type": "function"
    },
    {
      "inputs": [
        {
          "internalType": "address payable",
          "name": "payee",
          "type": "address"
        }
      ],
      "name": "withdrawPayments",
      "outputs": [],
      "stateMutability": "nonpayable",
      "type": "function"
    },
    {
      "inputs": [],
      "name": "$withdraw",
      "outputs": [],
      "stateMutability": "payable",
      "type": "function"
    }
  ],
  "bytecode": "0x608060405234801561001057600080fd5b5060405161001d906100ca565b604051809103906000f080158015610039573d6000803e3d6000fd5b50600080546001600160a01b0319166001600160a01b0392909216919091178155600180556100666100c6565b600280546001600160a01b0319166001600160a01b038316908117909155604051919250906000907f8be0079c531659141344cd1fd0a4f28419497f9722a3daafe3b4186f6b6457e0908290a3506002805460ff60a01b191690556100d7565b3390565b61074f8061150383390190565b61141d806100e66000396000f3fe6080604052600436106100dd5760003560e01c8063961e809b1161007f578063d6b02ecf11610059578063d6b02ecf146102e4578063e2982c2114610317578063e8b416531461035c578063f2fde38b14610371576100dd565b8063961e809b14610281578063c79b226e14610296578063cf2b6f66146102cf576100dd565b8063440e7a7e116100bb578063440e7a7e146101d95780635c975abb14610212578063715018a61461023b5780638da5cb5b14610250576100dd565b8063150b7a02146100e25780632cb741aa1461019c57806331b3eb94146101a6575b600080fd5b3480156100ee57600080fd5b5061017f6004803603608081101561010557600080fd5b6001600160a01b0382358116926020810135909116916040820135919081019060808101606082013564010000000081111561014057600080fd5b82018360208201111561015257600080fd5b8035906020019184600183028401116401000000008311171561017457600080fd5b5090925090506103a4565b604080516001600160e01b03199092168252519081900360200190f35b6101a46103b5565b005b3480156101b257600080fd5b506101a4600480360360208110156101c957600080fd5b50356001600160a01b031661040f565b3480156101e557600080fd5b506101a4600480360360408110156101fc57600080fd5b506001600160a01b038135169060200135610475565b34801561021e57600080fd5b506102276105ab565b604080519115158252519081900360200190f35b34801561024757600080fd5b506101a46105bb565b34801561025c57600080fd5b5061026561065d565b604080516001600160a01b039092168252519081900360200190f35b34801561028d57600080fd5b506101a461066c565b3480156102a257600080fd5b506101a4600480360360408110156102b957600080fd5b506001600160a01b0381351690602001356106ce565b3480156102db57600080fd5b506101a46107cf565b3480156102f057600080fd5b506101a46004803603602081101561030757600080fd5b50356001600160a01b031661082f565b34801561032357600080fd5b5061034a6004803603602081101561033a57600080fd5b50356001600160a01b03166108ee565b60408051918252519081900360200190f35b34801561036857600080fd5b506101a461096e565b34801561037d57600080fd5b506101a46004803603602081101561039457600080fd5b50356001600160a01b0316611103565b630a85bd0160e11b95945050505050565b600260015414156103fb576040805162461bcd60e51b815260206004820152601f6024820152600080516020611337833981519152604482015290519081900360640190fd5b60026001556104093361040f565b60018055565b60008054604080516351cff8d960e01b81526001600160a01b038581166004830152915191909216926351cff8d9926024808201939182900301818387803b15801561045a57600080fd5b505af115801561046e573d6000803e3d6000fd5b5050505050565b600260015414156104bb576040805162461bcd60e51b815260206004820152601f6024820152600080516020611337833981519152604482015290519081900360640190fd5b60026001556104c861065d565b6001600160a01b0316336001600160a01b031614806104f157506017546001600160a01b031633145b61052c5760405162461bcd60e51b81526004018080602001828103825260268152602001806113c26026913960400191505060405180910390fd5b600a5460408051632142170760e11b81523060048201526001600160a01b038581166024830152604482018590529151849392909216916342842e0e9160648082019260009290919082900301818387803b15801561058a57600080fd5b505af115801561059e573d6000803e3d6000fd5b5050600180555050505050565b600254600160a01b900460ff1690565b6105c36111fc565b6002546001600160a01b03908116911614610613576040805162461bcd60e51b815260206004820181905260248201526000805160206113a2833981519152604482015290519081900360640190fd5b6002546040516000916001600160a01b0316907f8be0079c531659141344cd1fd0a4f28419497f9722a3daafe3b4186f6b6457e0908390a3600280546001600160a01b0319169055565b6002546001600160a01b031690565b6106746111fc565b6002546001600160a01b039081169116146106c4576040805162461bcd60e51b815260206004820181905260248201526000805160206113a2833981519152604482015290519081900360640190fd5b6106cc611200565b565b6106d66111fc565b6002546001600160a01b03908116911614610726576040805162461bcd60e51b815260206004820181905260248201526000805160206113a2833981519152604482015290519081900360640190fd5b6002600154141561076c576040805162461bcd60e51b815260206004820152601f6024820152600080516020611337833981519152604482015290519081900360640190fd5b6002600155600c5460408051632142170760e11b81523060048201526001600160a01b038581166024830152604482018590529151849392909216916342842e0e9160648082019260009290919082900301818387803b15801561058a57600080fd5b6107d76111fc565b6002546001600160a01b03908116911614610827576040805162461bcd60e51b815260206004820181905260248201526000805160206113a2833981519152604482015290519081900360640190fd5b6106cc6112a8565b6108376111fc565b6002546001600160a01b03908116911614610887576040805162461bcd60e51b815260206004820181905260248201526000805160206113a2833981519152604482015290519081900360640190fd5b6001600160a01b0381166108cc5760405162461bcd60e51b815260040180806020018281038252602581526020018061137d6025913960400191505060405180910390fd5b600480546001600160a01b0319166001600160a01b0392909216919091179055565b60008054604080516371d4ed8d60e11b81526001600160a01b0385811660048301529151919092169163e3a9db1a916024808301926020929190829003018186803b15801561093c57600080fd5b505afa158015610950573d6000803e3d6000fd5b505050506040513d602081101561096657600080fd5b505192915050565b600260015414156109b4576040805162461bcd60e51b815260206004820152601f6024820152600080516020611337833981519152604482015290519081900360640190fd5b60026001556109c16111fc565b6002546001600160a01b03908116911614610a11576040805162461bcd60e51b815260206004820181905260248201526000805160206113a2833981519152604482015290519081900360640190fd5b60048054604080516363b8d4c160e11b81526020938101849052600660248201526520a1afaa25a760d11b604482015290516001600160a01b039092169263c771a98292606480840193829003018186803b158015610a6f57600080fd5b505afa158015610a83573d6000803e3d6000fd5b505050506040513d6020811015610a9957600080fd5b5051600b80546001600160a01b039283166001600160a01b03199182161791829055600c805490911691831691909117905560048054604080516363b8d4c160e11b81526020938101849052600660248201526520a1afa6a3a960d11b60448201529051919093169263c771a982926064808301939192829003018186803b158015610b2457600080fd5b505afa158015610b38573d6000803e3d6000fd5b505050506040513d6020811015610b4e57600080fd5b5051600580546001600160a01b039283166001600160a01b031991821617918290556006805490911691831691909117905560048054604080516363b8d4c160e11b8152602093810184905260086024820152672aaa24a62faa25a760c11b60448201529051919093169263c771a982926064808301939192829003018186803b158015610bdb57600080fd5b505afa158015610bef573d6000803e3d6000fd5b505050506040513d6020811015610c0557600080fd5b5051600780546001600160a01b039283166001600160a01b031991821617918290556008805490911691831691909117905560048054604080516363b8d4c160e11b81526020938101849052600560248201526420afaa25a760d91b60448201529051919093169263c771a982926064808301939192829003018186803b158015610c8f57600080fd5b505afa158015610ca3573d6000803e3d6000fd5b505050506040513d6020811015610cb957600080fd5b5051600980546001600160a01b039283166001600160a01b03199182161791829055600a805490911691831691909117905560048054604080516363b8d4c160e11b81526020938101849052600660248201526524a22faa25a760d11b60448201529051919093169263c771a982926064808301939192829003018186803b158015610d4457600080fd5b505afa158015610d58573d6000803e3d6000fd5b505050506040513d6020811015610d6e57600080fd5b5051600d80546001600160a01b039283166001600160a01b03199182161791829055600e805490911691831691909117905560048054604080516363b8d4c160e11b81526020938101849052600760248201526622a1a92fa6a3a960c91b60448201529051919093169263c771a982926064808301939192829003018186803b158015610dfa57600080fd5b505afa158015610e0e573d6000803e3d6000fd5b505050506040513d6020811015610e2457600080fd5b5051600f80546001600160a01b039283166001600160a01b031991821617918290556010805490911691831691909117905560048054604080516363b8d4c160e11b81526020938101849052600360248201526204150560ec1b60448201529051919093169263c771a982926064808301939192829003018186803b158015610eac57600080fd5b505afa158015610ec0573d6000803e3d6000fd5b505050506040513d6020811015610ed657600080fd5b5051601380546001600160a01b039283166001600160a01b031991821617918290556014805490911691831691909117905560048054604080516363b8d4c160e11b815260208185018190526024820194909452632921a62960e11b60448201529051919093169263c771a982926064808301939192829003018186803b158015610f6057600080fd5b505afa158015610f74573d6000803e3d6000fd5b505050506040513d6020811015610f8a57600080fd5b5051601180546001600160a01b039283166001600160a01b031991821617918290556012805490911691831691909117905560048054604080516363b8d4c160e11b8152602093810184905260066024820152654150505f4e4360d01b60448201529051919093169263c771a982926064808301939192829003018186803b15801561101557600080fd5b505afa158015611029573d6000803e3d6000fd5b505050506040513d602081101561103f57600080fd5b5051601680546001600160a01b0319166001600160a01b0392831617905560048054604080516363b8d4c160e11b81526020938101849052600260248201526104e560f41b60448201529051919093169263c771a982926064808301939192829003018186803b1580156110b257600080fd5b505afa1580156110c6573d6000803e3d6000fd5b505050506040513d60208110156110dc57600080fd5b5051601780546001600160a01b0319166001600160a01b0390921691909117905560018055565b61110b6111fc565b6002546001600160a01b0390811691161461115b576040805162461bcd60e51b815260206004820181905260248201526000805160206113a2833981519152604482015290519081900360640190fd5b6001600160a01b0381166111a05760405162461bcd60e51b81526004018080602001828103825260268152602001806113576026913960400191505060405180910390fd5b6002546040516001600160a01b038084169216907f8be0079c531659141344cd1fd0a4f28419497f9722a3daafe3b4186f6b6457e090600090a3600280546001600160a01b0319166001600160a01b0392909216919091179055565b3390565b600254600160a01b900460ff16611255576040805162461bcd60e51b815260206004820152601460248201527314185d5cd8589b194e881b9bdd081c185d5cd95960621b604482015290519081900360640190fd5b6002805460ff60a01b191690557f5db9ee0a495bf2e6ff9c91a7834c1ba4fdd244a5e8aa4e537bd38aeae4b073aa61128b6111fc565b604080516001600160a01b039092168252519081900360200190a1565b600254600160a01b900460ff16156112fa576040805162461bcd60e51b815260206004820152601060248201526f14185d5cd8589b194e881c185d5cd95960821b604482015290519081900360640190fd5b6002805460ff60a01b1916600160a01b1790557f62e78cea01bee320cd4e420270b5ea74000d11b0c9f74754ebdbfc544b05a25861128b6111fc56fe5265656e7472616e637947756172643a207265656e7472616e742063616c6c004f776e61626c653a206e6577206f776e657220697320746865207a65726f2061646472657373423a5353433a2073746f7261676520616464726573732063616e6e6f74206265207a65726f4f776e61626c653a2063616c6c6572206973206e6f7420746865206f776e6572423a54583a496e76616c69642063616c6c657220666f72207472616e7366657220746f6b656ea26469706673582212207dfd802159e1c5d7ea82748f93cae106d16e1f55b7c806996a1b24e7b847f37364736f6c634300060c0033608060405234801561001057600080fd5b50600061001b61006a565b600080546001600160a01b0319166001600160a01b0383169081178255604051929350917f8be0079c531659141344cd1fd0a4f28419497f9722a3daafe3b4186f6b6457e0908290a35061006e565b3390565b6106d28061007d6000396000f3fe6080604052600436106100555760003560e01c806351cff8d91461005a578063715018a61461008f5780638da5cb5b146100a4578063e3a9db1a146100d5578063f2fde38b1461011a578063f340fa011461014d575b600080fd5b34801561006657600080fd5b5061008d6004803603602081101561007d57600080fd5b50356001600160a01b0316610173565b005b34801561009b57600080fd5b5061008d610236565b3480156100b057600080fd5b506100b96102d8565b604080516001600160a01b039092168252519081900360200190f35b3480156100e157600080fd5b50610108600480360360208110156100f857600080fd5b50356001600160a01b03166102e7565b60408051918252519081900360200190f35b34801561012657600080fd5b5061008d6004803603602081101561013d57600080fd5b50356001600160a01b0316610302565b61008d6004803603602081101561016357600080fd5b50356001600160a01b03166103fa565b61017b6104cd565b6000546001600160a01b039081169116146101cb576040805162461bcd60e51b8152602060048201819052602482015260008051602061067d833981519152604482015290519081900360640190fd5b6001600160a01b03811660008181526001602052604081208054919055906101f390826104d1565b6040805182815290516001600160a01b038416917f7084f5476618d8e60b11ef0d7d3f06914655adb8793e28ff7f018d4c76d505d5919081900360200190a25050565b61023e6104cd565b6000546001600160a01b0390811691161461028e576040805162461bcd60e51b8152602060048201819052602482015260008051602061067d833981519152604482015290519081900360640190fd5b600080546040516001600160a01b03909116907f8be0079c531659141344cd1fd0a4f28419497f9722a3daafe3b4186f6b6457e0908390a3600080546001600160a01b0319169055565b6000546001600160a01b031690565b6001600160a01b031660009081526001602052604090205490565b61030a6104cd565b6000546001600160a01b0390811691161461035a576040805162461bcd60e51b8152602060048201819052602482015260008051602061067d833981519152604482015290519081900360640190fd5b6001600160a01b03811661039f5760405162461bcd60e51b815260040180806020018281038252602681526020018061061d6026913960400191505060405180910390fd5b600080546040516001600160a01b03808516939216917f8be0079c531659141344cd1fd0a4f28419497f9722a3daafe3b4186f6b6457e091a3600080546001600160a01b0319166001600160a01b0392909216919091179055565b6104026104cd565b6000546001600160a01b03908116911614610452576040805162461bcd60e51b8152602060048201819052602482015260008051602061067d833981519152604482015290519081900360640190fd5b6001600160a01b038116600090815260016020526040902054349061047790826105bb565b6001600160a01b038316600081815260016020908152604091829020939093558051848152905191927f2da466a7b24304f47e87fa2e1e5a81b9831ce54fec19055ce277ca2f39ba42c492918290030190a25050565b3390565b80471015610526576040805162461bcd60e51b815260206004820152601d60248201527f416464726573733a20696e73756666696369656e742062616c616e6365000000604482015290519081900360640190fd5b6040516000906001600160a01b0384169083908381818185875af1925050503d8060008114610571576040519150601f19603f3d011682016040523d82523d6000602084013e610576565b606091505b50509050806105b65760405162461bcd60e51b815260040180806020018281038252603a815260200180610643603a913960400191505060405180910390fd5b505050565b600082820183811015610615576040805162461bcd60e51b815260206004820152601b60248201527f536166654d6174683a206164646974696f6e206f766572666c6f770000000000604482015290519081900360640190fd5b939250505056fe4f776e61626c653a206e6577206f776e657220697320746865207a65726f2061646472657373416464726573733a20756e61626c6520746f2073656e642076616c75652c20726563697069656e74206d617920686176652072657665727465644f776e61626c653a2063616c6c6572206973206e6f7420746865206f776e6572a2646970667358221220ce7593b1fd52f5e0045357faf9c61da22b060b3a0787c0de4ada3b90d4b8255164736f6c634300060c0033",
  "immutableReferences": {},
  "source": "/*-----------------------------------------------------------V0.7.0\r\n__/\\\\\\\\\\\\\\\\\\\\\\\\\\ _____/\\\\\\\\\\\\\\\\\\ _______/\\\\../\\\\ ___/\\\\\\\\\\\\\\\\\\\\\\\\\\\\\\\r\n _\\/\\\\\\/////////\\\\\\ _/\\\\\\///////\\\\\\ ____\\//..\\//____\\/\\\\\\///////////__\r\n  _\\/\\\\\\.......\\/\\\\\\.\\/\\\\\\.....\\/\\\\\\ ________________\\/\\\\\\ ____________\r\n   _\\/\\\\\\\\\\\\\\\\\\\\\\\\\\/__\\/\\\\\\\\\\\\\\\\\\\\\\/_____/\\\\\\____/\\\\\\.\\/\\\\\\\\\\\\\\\\\\\\\\ ____\r\n    _\\/\\\\\\/////////____\\/\\\\\\//////\\\\\\ ___\\/\\\\\\___\\/\\\\\\.\\/\\\\\\///////______\r\n     _\\/\\\\\\ ____________\\/\\\\\\ ___\\//\\\\\\ __\\/\\\\\\___\\/\\\\\\.\\/\\\\\\ ____________\r\n      _\\/\\\\\\ ____________\\/\\\\\\ ____\\//\\\\\\ _\\/\\\\\\___\\/\\\\\\.\\/\\\\\\ ____________\r\n       _\\/\\\\\\ ____________\\/\\\\\\ _____\\//\\\\\\.\\//\\\\\\\\\\\\\\\\\\ _\\/\\\\\\ ____________\r\n        _\\/// _____________\\/// _______\\/// __\\///////// __\\/// _____________\r\n         *-------------------------------------------------------------------*/\r\n\r\n/*-----------------------------------------------------------------\r\n *  TO DO\r\n *\r\n *---------------------------------------------------------------*/\r\n\r\n// SPDX-License-Identifier: UNLICENSED\r\npragma solidity ^0.6.7;\r\n\r\nimport \"./PRUF_INTERFACES.sol\";\r\nimport \"./Imports/payment/PullPayment.sol\";\r\nimport \"./Imports/utils/ReentrancyGuard.sol\";\r\nimport \"./PRUF_BASIC.sol\";\r\n\r\ncontract CORE_MAL is PullPayment, BASIC {\r\n    using SafeMath for uint256;\r\n\r\n    struct Costs {\r\n        uint256 serviceCost; // Cost to brute-force a record transfer\r\n        address paymentAddress; // 2nd-party fee beneficiary address\r\n    }\r\n\r\n    struct Invoice {\r\n        address rootAddress;\r\n        uint256 rootPrice;\r\n        address ACTHaddress;\r\n        uint256 ACTHprice;\r\n    }\r\n\r\n    \r\n    //--------------------------------------------------------------------------------------Storage Reading internal functions\r\n\r\n    // /*\r\n    //  * @dev retrieves costs from Storage and returns Costs struct\r\n    //  */\r\n    // function getCost(uint32 _assetClass, ) internal returns (Costs memory) {\r\n    //     //^^^^^^^checks^^^^^^^^^\r\n\r\n    //     Costs memory cost;\r\n    //     //^^^^^^^effects^^^^^^^^^\r\n    //     (\r\n    //         cost.serviceCost,\r\n    //         cost.paymentAddress\r\n    //     ) = AC_MGR.retrieveCosts(_assetClass);\r\n\r\n    //     return (cost);\r\n    //     //^^^^^^^interactions^^^^^^^^^\r\n    // }\r\n\r\n    //--------------------------------------------------------------------------------------Storage Writing internal functions\r\n\r\n    /*\r\n     * @dev create a Record in Storage @ idxHash\r\n     */\r\n    function createRecord(\r\n        bytes32 _idxHash,\r\n        bytes32 _rgtHash,\r\n        uint32 _assetClass,\r\n        uint32 _countDownStart\r\n    ) internal {\r\n        uint256 tokenId = uint256(_idxHash);\r\n        AC memory AC_info = getACinfo(_assetClass);\r\n\r\n        // require(\r\n        //     A_TKN.tokenExists(tokenId) == 0,\r\n        //     \"C:CR:Asset token already exists\"\r\n        // );\r\n\r\n        require(\r\n            AC_info.custodyType != 3,\r\n            \"C:CR:Cannot create asset in a root asset class\"\r\n        );\r\n\r\n        if (AC_info.custodyType == 1) {\r\n            A_TKN.mintAssetToken(address(this), tokenId, \"pruf.io\");\r\n        }\r\n\r\n        if (AC_info.custodyType == 2) {\r\n            A_TKN.mintAssetToken(msg.sender, tokenId, \"pruf.io\");\r\n        }\r\n\r\n        STOR.newRecord(_idxHash, _rgtHash, _assetClass, _countDownStart);\r\n    }\r\n\r\n\r\n    /*\r\n     * @dev Write a Record to Storage @ idxHash\r\n     */\r\n    function writeRecord(bytes32 _idxHash, Record memory _rec)\r\n        internal\r\n        whenNotPaused\r\n    //isAuthorized(_idxHash)\r\n    {\r\n        //^^^^^^^checks^^^^^^^^^\r\n\r\n        STOR.modifyRecord(\r\n            _idxHash,\r\n            _rec.rightsHolder,\r\n            _rec.assetStatus,\r\n            _rec.countDown,\r\n            _rec.incrementForceModCount,\r\n            _rec.incrementNumberOfTransfers\r\n        ); // Send data and writehash to storage\r\n        //^^^^^^^interactions^^^^^^^^^\r\n    }\r\n\r\n    /*\r\n     * @dev Write an Ipfs Record to Storage @ idxHash\r\n     */\r\n    function writeRecordIpfs1(bytes32 _idxHash, Record memory _rec)\r\n        internal\r\n        whenNotPaused\r\n    {\r\n        //^^^^^^^Checks^^^^^^^^^\r\n\r\n        STOR.modifyIpfs1(_idxHash, _rec.Ipfs1); // Send data to storage\r\n        //^^^^^^^interactions^^^^^^^^^\r\n    }\r\n\r\n    function writeRecordIpfs2(bytes32 _idxHash, Record memory _rec)\r\n        internal\r\n        whenNotPaused\r\n    //isAuthorized(_idxHash)\r\n    {\r\n        //^^^^^^^checks^^^^^^^^^\r\n\r\n        STOR.modifyIpfs2(_idxHash, _rec.Ipfs2); // Send data to storage\r\n        //^^^^^^^interactions^^^^^^^^^\r\n    }\r\n\r\n    //--------------------------------------------------------------------------------------Payment internal functions\r\n\r\n    /*\r\n     * @dev Send payment to appropriate pullPayment adresses for payable function\r\n     */\r\n    function deductServiceCosts(uint32 _assetClass, uint16 _service) internal whenNotPaused {\r\n        //^^^^^^^checks^^^^^^^^^\r\n        Invoice memory pricing;\r\n        //^^^^^^^effects^^^^^^^^^\r\n        (\r\n            pricing.rootAddress,\r\n            pricing.rootPrice,\r\n            pricing.ACTHaddress,\r\n            pricing.ACTHprice\r\n        ) = AC_MGR.getServiceCosts(_assetClass, _service);\r\n        deductPayment(pricing);\r\n        //^^^^^^^interactions^^^^^^^^^\r\n    }\r\n\r\n    \r\n\r\n    //--------------------------------------------------------------PAYMENT FUNCTIONS\r\n    /*\r\n     * @dev Withdraws user's credit balance from contract\r\n     */\r\n    function $withdraw() external virtual payable nonReentrant {\r\n        //^^^^^^^checks^^^^^^^^^\r\n        withdrawPayments(msg.sender);\r\n        //^^^^^^^interactions^^^^^^^^^\r\n    }\r\n\r\n    /*\r\n     * @dev Deducts payment from transaction\r\n     */\r\n    function deductPayment(Invoice memory pricing) internal whenNotPaused {\r\n        uint256 messageValue = msg.value;\r\n        uint256 change;\r\n        uint256 total = pricing.rootPrice.add(pricing.ACTHprice);\r\n        require(msg.value >= total, \"C:DP: TX value too low.\");\r\n        //^^^^^^^checks^^^^^^^^^\r\n        change = messageValue.sub(total);\r\n        _asyncTransfer(pricing.rootAddress, pricing.rootPrice);\r\n        _asyncTransfer(pricing.ACTHaddress, pricing.ACTHprice);\r\n        _asyncTransfer(msg.sender, change);\r\n        //^^^^^^^interactions^^^^^^^^^\r\n    }\r\n\r\n//--------------------------------------------------------------------------------------status test internal functions\r\n\r\n    function isLostOrStolen(uint8 _assetStatus) internal pure returns (uint8) {\r\n        if (\r\n            (_assetStatus != 3) &&\r\n            (_assetStatus != 4) &&\r\n            (_assetStatus != 53) &&\r\n            (_assetStatus != 54)\r\n        ) {\r\n            return 0;\r\n        } else {\r\n            return 170;\r\n        }\r\n    }\r\n\r\n    /*\r\n     * @dev Check to see if record is in escrow status\r\n     */\r\n    function isEscrow(uint8 _assetStatus) internal pure returns (uint8) {\r\n        if (\r\n            (_assetStatus != 6) &&\r\n            (_assetStatus != 50) &&\r\n            (_assetStatus != 56)\r\n        ) {\r\n            return 0;\r\n        } else {\r\n            return 170;\r\n        }\r\n    }\r\n\r\n    function needsImport(uint8 _assetStatus) internal pure returns (uint8) {\r\n        if (\r\n            (_assetStatus != 5) &&\r\n            (_assetStatus != 55) &&\r\n            (_assetStatus != 70) &&\r\n            (_assetStatus != 60)\r\n        ) {\r\n            return 0;\r\n        } else {\r\n            return 170;\r\n        }\r\n    }\r\n\r\n    // function isReserved(uint8 _assetStatus) internal pure returns (uint8) {\r\n    //     if (\r\n    //         (_assetStatus != 7) &&\r\n    //         (_assetStatus != 57) &&\r\n    //         (_assetStatus != 58) &&\r\n    //         (_assetStatus != 60) &&\r\n    //         (_assetStatus != 70)\r\n    //     ) {\r\n    //         return 0;\r\n    //     } else {\r\n    //         return 170;\r\n    //     }\r\n    // }\r\n\r\n\r\n    \r\n}\r\n",
  "sourcePath": "C:\\Users\\drake\\onedrive\\documents\\dev\\pruf\\PRUF_TRUFFLE\\contracts\\PRUF_CORE_MAL.sol",
  "compiler": {
    "name": "solc",
    "version": "0.6.12+commit.27d51765.Emscripten.clang"
  },
  "schemaVersion": "3.2.2",
  "updatedAt": "2020-09-16T15:05:07.882Z",
  "devdoc": {
    "kind": "dev",
    "methods": {
      "OO_pause()": {
        "details": "Triggers stopped state. (pausable)"
      },
      "OO_unpause()": {
        "details": "Returns to normal state. (pausable)"
      },
      "owner()": {
        "details": "Returns the address of the current owner."
      },
      "paused()": {
        "details": "Returns true if the contract is paused, and false otherwise."
      },
      "payments(address)": {
        "details": "Returns the payments owed to an address.",
        "params": {
          "dest": "The creditor's address."
        }
      },
      "renounceOwnership()": {
        "details": "Leaves the contract without owner. It will not be possible to call `onlyOwner` functions anymore. Can only be called by the current owner. NOTE: Renouncing ownership will leave the contract without an owner, thereby removing any functionality that is only available to the owner."
      },
      "transferOwnership(address)": {
        "details": "Transfers ownership of the contract to a new account (`newOwner`). Can only be called by the current owner."
      },
      "withdrawPayments(address)": {
        "details": "Withdraw accumulated payments, forwarding all gas to the recipient. Note that _any_ account can call this function, not just the `payee`. This means that contracts unaware of the `PullPayment` protocol can still receive funds this way, by having a separate account call {withdrawPayments}. WARNING: Forwarding all gas opens the door to reentrancy vulnerabilities. Make sure you trust the recipient, or are either following the checks-effects-interactions pattern or using {ReentrancyGuard}.",
        "params": {
          "payee": "Whose payments will be withdrawn."
        }
      }
    },
    "version": 1
  },
  "userdoc": {
    "kind": "user",
    "methods": {},
    "version": 1
  }
}