{
  "contractName": "CORE_MAL",
  "abi": [
    {
      "anonymous": false,
      "inputs": [
        {
          "indexed": true,
          "internalType": "address",
          "name": "previousOwner",
          "type": "address"
        },
        {
          "indexed": true,
          "internalType": "address",
          "name": "newOwner",
          "type": "address"
        }
      ],
      "name": "OwnershipTransferred",
      "type": "event"
    },
    {
      "anonymous": false,
      "inputs": [
        {
          "indexed": false,
          "internalType": "address",
          "name": "account",
          "type": "address"
        }
      ],
      "name": "Paused",
      "type": "event"
    },
    {
      "anonymous": false,
      "inputs": [
        {
          "indexed": false,
          "internalType": "string",
          "name": "_msg",
          "type": "string"
        }
      ],
      "name": "REPORT",
      "type": "event"
    },
    {
      "anonymous": false,
      "inputs": [
        {
          "indexed": false,
          "internalType": "address",
          "name": "account",
          "type": "address"
        }
      ],
      "name": "Unpaused",
      "type": "event"
    },
    {
      "inputs": [],
      "name": "OO_ResolveContractAddresses",
      "outputs": [],
      "stateMutability": "nonpayable",
      "type": "function"
    },
    {
      "inputs": [],
      "name": "OO_pause",
      "outputs": [],
      "stateMutability": "nonpayable",
      "type": "function"
    },
    {
      "inputs": [
        {
          "internalType": "address",
          "name": "_storageAddress",
          "type": "address"
        }
      ],
      "name": "OO_setStorageContract",
      "outputs": [],
      "stateMutability": "nonpayable",
      "type": "function"
    },
    {
      "inputs": [
        {
          "internalType": "address",
          "name": "_to",
          "type": "address"
        },
        {
          "internalType": "bytes32",
          "name": "_idxHash",
          "type": "bytes32"
        }
      ],
      "name": "OO_transferACToken",
      "outputs": [],
      "stateMutability": "nonpayable",
      "type": "function"
    },
    {
      "inputs": [],
      "name": "OO_unpause",
      "outputs": [],
      "stateMutability": "nonpayable",
      "type": "function"
    },
    {
      "inputs": [
        {
          "internalType": "address",
          "name": "",
          "type": "address"
        },
        {
          "internalType": "address",
          "name": "",
          "type": "address"
        },
        {
          "internalType": "uint256",
          "name": "",
          "type": "uint256"
        },
        {
          "internalType": "bytes",
          "name": "",
          "type": "bytes"
        }
      ],
      "name": "onERC721Received",
      "outputs": [
        {
          "internalType": "bytes4",
          "name": "",
          "type": "bytes4"
        }
      ],
      "stateMutability": "nonpayable",
      "type": "function"
    },
    {
      "inputs": [],
      "name": "owner",
      "outputs": [
        {
          "internalType": "address",
          "name": "",
          "type": "address"
        }
      ],
      "stateMutability": "view",
      "type": "function"
    },
    {
      "inputs": [],
      "name": "paused",
      "outputs": [
        {
          "internalType": "bool",
          "name": "",
          "type": "bool"
        }
      ],
      "stateMutability": "view",
      "type": "function"
    },
    {
      "inputs": [
        {
          "internalType": "address",
          "name": "dest",
          "type": "address"
        }
      ],
      "name": "payments",
      "outputs": [
        {
          "internalType": "uint256",
          "name": "",
          "type": "uint256"
        }
      ],
      "stateMutability": "view",
      "type": "function"
    },
    {
      "inputs": [],
      "name": "renounceOwnership",
      "outputs": [],
      "stateMutability": "nonpayable",
      "type": "function"
    },
    {
      "inputs": [
        {
          "internalType": "address",
          "name": "_to",
          "type": "address"
        },
        {
          "internalType": "bytes32",
          "name": "_idxHash",
          "type": "bytes32"
        }
      ],
      "name": "transferAssetToken",
      "outputs": [],
      "stateMutability": "nonpayable",
      "type": "function"
    },
    {
      "inputs": [
        {
          "internalType": "address",
          "name": "newOwner",
          "type": "address"
        }
      ],
      "name": "transferOwnership",
      "outputs": [],
      "stateMutability": "nonpayable",
      "type": "function"
    },
    {
      "inputs": [
        {
          "internalType": "address payable",
          "name": "payee",
          "type": "address"
        }
      ],
      "name": "withdrawPayments",
      "outputs": [],
      "stateMutability": "nonpayable",
      "type": "function"
    },
    {
      "inputs": [],
      "name": "$withdraw",
      "outputs": [],
      "stateMutability": "payable",
      "type": "function"
    }
  ],
  "bytecode": "0x60806040523480156200001157600080fd5b5060405162000020906200015e565b604051809103906000f0801580156200003d573d6000803e3d6000fd5b506000806101000a81548173ffffffffffffffffffffffffffffffffffffffff021916908373ffffffffffffffffffffffffffffffffffffffff160217905550600180819055506000620000966200015660201b60201c565b905080600260006101000a81548173ffffffffffffffffffffffffffffffffffffffff021916908373ffffffffffffffffffffffffffffffffffffffff1602179055508073ffffffffffffffffffffffffffffffffffffffff16600073ffffffffffffffffffffffffffffffffffffffff167f8be0079c531659141344cd1fd0a4f28419497f9722a3daafe3b4186f6b6457e060405160405180910390a3506000600260146101000a81548160ff0219169083151502179055506200016c565b600033905090565b610cd7806200240983390190565b61228d806200017c6000396000f3fe6080604052600436106100dd5760003560e01c80638da5cb5b1161007f578063cf2b6f6611610059578063cf2b6f66146103e0578063d6b02ecf146103f7578063e2982c2114610448578063f2fde38b146104ad576100dd565b80638da5cb5b14610317578063961e809b1461036e578063c79b226e14610385576100dd565b8063440e7a7e116100bb578063440e7a7e1461025f5780634b9f23a4146102ba5780635c975abb146102d1578063715018a614610300576100dd565b8063150b7a02146100e25780632cb741aa1461020457806331b3eb941461020e575b600080fd5b3480156100ee57600080fd5b506101b06004803603608081101561010557600080fd5b81019080803573ffffffffffffffffffffffffffffffffffffffff169060200190929190803573ffffffffffffffffffffffffffffffffffffffff169060200190929190803590602001909291908035906020019064010000000081111561016c57600080fd5b82018360208201111561017e57600080fd5b803590602001918460018302840111640100000000831117156101a057600080fd5b90919293919293905050506104fe565b60405180827bffffffffffffffffffffffffffffffffffffffffffffffffffffffff19167bffffffffffffffffffffffffffffffffffffffffffffffffffffffff1916815260200191505060405180910390f35b61020c610513565b005b34801561021a57600080fd5b5061025d6004803603602081101561023157600080fd5b81019080803573ffffffffffffffffffffffffffffffffffffffff1690602001909291905050506105a6565b005b34801561026b57600080fd5b506102b86004803603604081101561028257600080fd5b81019080803573ffffffffffffffffffffffffffffffffffffffff16906020019092919080359060200190929190505050610661565b005b3480156102c657600080fd5b506102cf6108ce565b005b3480156102dd57600080fd5b506102e661157c565b604051808215151515815260200191505060405180910390f35b34801561030c57600080fd5b50610315611593565b005b34801561032357600080fd5b5061032c61171e565b604051808273ffffffffffffffffffffffffffffffffffffffff1673ffffffffffffffffffffffffffffffffffffffff16815260200191505060405180910390f35b34801561037a57600080fd5b50610383611748565b005b34801561039157600080fd5b506103de600480360360408110156103a857600080fd5b81019080803573ffffffffffffffffffffffffffffffffffffffff1690602001909291908035906020019092919050505061181c565b005b3480156103ec57600080fd5b506103f5611a70565b005b34801561040357600080fd5b506104466004803603602081101561041a57600080fd5b81019080803573ffffffffffffffffffffffffffffffffffffffff169060200190929190505050611b44565b005b34801561045457600080fd5b506104976004803603602081101561046b57600080fd5b81019080803573ffffffffffffffffffffffffffffffffffffffff169060200190929190505050611cd8565b6040518082815260200191505060405180910390f35b3480156104b957600080fd5b506104fc600480360360208110156104d057600080fd5b81019080803573ffffffffffffffffffffffffffffffffffffffff169060200190929190505050611dba565b005b600063150b7a0260e01b905095945050505050565b6002600154141561058c576040517f08c379a000000000000000000000000000000000000000000000000000000000815260040180806020018281038252601f8152602001807f5265656e7472616e637947756172643a207265656e7472616e742063616c6c0081525060200191505060405180910390fd5b600260018190555061059d336105a6565b60018081905550565b6000809054906101000a900473ffffffffffffffffffffffffffffffffffffffff1673ffffffffffffffffffffffffffffffffffffffff166351cff8d9826040518263ffffffff1660e01b8152600401808273ffffffffffffffffffffffffffffffffffffffff1673ffffffffffffffffffffffffffffffffffffffff168152602001915050600060405180830381600087803b15801561064657600080fd5b505af115801561065a573d6000803e3d6000fd5b5050505050565b600260015414156106da576040517f08c379a000000000000000000000000000000000000000000000000000000000815260040180806020018281038252601f8152602001807f5265656e7472616e637947756172643a207265656e7472616e742063616c6c0081525060200191505060405180910390fd5b60026001819055506106ea61171e565b73ffffffffffffffffffffffffffffffffffffffff163373ffffffffffffffffffffffffffffffffffffffff1614806107705750601360009054906101000a900473ffffffffffffffffffffffffffffffffffffffff1673ffffffffffffffffffffffffffffffffffffffff163373ffffffffffffffffffffffffffffffffffffffff16145b6107c5576040517f08c379a00000000000000000000000000000000000000000000000000000000081526004018080602001828103825260278152602001806122316027913960400191505060405180910390fd5b60008160001c9050600860009054906101000a900473ffffffffffffffffffffffffffffffffffffffff1673ffffffffffffffffffffffffffffffffffffffff166342842e0e3085846040518463ffffffff1660e01b8152600401808473ffffffffffffffffffffffffffffffffffffffff1673ffffffffffffffffffffffffffffffffffffffff1681526020018373ffffffffffffffffffffffffffffffffffffffff1673ffffffffffffffffffffffffffffffffffffffff1681526020018281526020019350505050600060405180830381600087803b1580156108aa57600080fd5b505af11580156108be573d6000803e3d6000fd5b5050505050600180819055505050565b60026001541415610947576040517f08c379a000000000000000000000000000000000000000000000000000000000815260040180806020018281038252601f8152602001807f5265656e7472616e637947756172643a207265656e7472616e742063616c6c0081525060200191505060405180910390fd5b6002600181905550610957611fca565b73ffffffffffffffffffffffffffffffffffffffff16600260009054906101000a900473ffffffffffffffffffffffffffffffffffffffff1673ffffffffffffffffffffffffffffffffffffffff1614610a19576040517f08c379a00000000000000000000000000000000000000000000000000000000081526004018080602001828103825260208152602001807f4f776e61626c653a2063616c6c6572206973206e6f7420746865206f776e657281525060200191505060405180910390fd5b600460009054906101000a900473ffffffffffffffffffffffffffffffffffffffff1673ffffffffffffffffffffffffffffffffffffffff1663c771a9826040518163ffffffff1660e01b81526004018080602001828103825260068152602001807f41435f544b4e0000000000000000000000000000000000000000000000000000815250602001915050602060405180830381600087803b158015610abf57600080fd5b505af1158015610ad3573d6000803e3d6000fd5b505050506040513d6020811015610ae957600080fd5b8101908080519060200190929190505050600960006101000a81548173ffffffffffffffffffffffffffffffffffffffff021916908373ffffffffffffffffffffffffffffffffffffffff160217905550600960009054906101000a900473ffffffffffffffffffffffffffffffffffffffff16600a60006101000a81548173ffffffffffffffffffffffffffffffffffffffff021916908373ffffffffffffffffffffffffffffffffffffffff160217905550600460009054906101000a900473ffffffffffffffffffffffffffffffffffffffff1673ffffffffffffffffffffffffffffffffffffffff1663c771a9826040518163ffffffff1660e01b81526004018080602001828103825260068152602001807f41435f4d47520000000000000000000000000000000000000000000000000000815250602001915050602060405180830381600087803b158015610c4357600080fd5b505af1158015610c57573d6000803e3d6000fd5b505050506040513d6020811015610c6d57600080fd5b8101908080519060200190929190505050600560006101000a81548173ffffffffffffffffffffffffffffffffffffffff021916908373ffffffffffffffffffffffffffffffffffffffff160217905550600560009054906101000a900473ffffffffffffffffffffffffffffffffffffffff16600660006101000a81548173ffffffffffffffffffffffffffffffffffffffff021916908373ffffffffffffffffffffffffffffffffffffffff160217905550600460009054906101000a900473ffffffffffffffffffffffffffffffffffffffff1673ffffffffffffffffffffffffffffffffffffffff1663c771a9826040518163ffffffff1660e01b81526004018080602001828103825260058152602001807f415f544b4e000000000000000000000000000000000000000000000000000000815250602001915050602060405180830381600087803b158015610dc757600080fd5b505af1158015610ddb573d6000803e3d6000fd5b505050506040513d6020811015610df157600080fd5b8101908080519060200190929190505050600760006101000a81548173ffffffffffffffffffffffffffffffffffffffff021916908373ffffffffffffffffffffffffffffffffffffffff160217905550600760009054906101000a900473ffffffffffffffffffffffffffffffffffffffff16600860006101000a81548173ffffffffffffffffffffffffffffffffffffffff021916908373ffffffffffffffffffffffffffffffffffffffff160217905550600460009054906101000a900473ffffffffffffffffffffffffffffffffffffffff1673ffffffffffffffffffffffffffffffffffffffff1663c771a9826040518163ffffffff1660e01b81526004018080602001828103825260078152602001807f4543525f4d475200000000000000000000000000000000000000000000000000815250602001915050602060405180830381600087803b158015610f4b57600080fd5b505af1158015610f5f573d6000803e3d6000fd5b505050506040513d6020811015610f7557600080fd5b8101908080519060200190929190505050600b60006101000a81548173ffffffffffffffffffffffffffffffffffffffff021916908373ffffffffffffffffffffffffffffffffffffffff160217905550600b60009054906101000a900473ffffffffffffffffffffffffffffffffffffffff16600c60006101000a81548173ffffffffffffffffffffffffffffffffffffffff021916908373ffffffffffffffffffffffffffffffffffffffff160217905550600460009054906101000a900473ffffffffffffffffffffffffffffffffffffffff1673ffffffffffffffffffffffffffffffffffffffff1663c771a9826040518163ffffffff1660e01b81526004018080602001828103825260038152602001807f4150500000000000000000000000000000000000000000000000000000000000815250602001915050602060405180830381600087803b1580156110cf57600080fd5b505af11580156110e3573d6000803e3d6000fd5b505050506040513d60208110156110f957600080fd5b8101908080519060200190929190505050600f60006101000a81548173ffffffffffffffffffffffffffffffffffffffff021916908373ffffffffffffffffffffffffffffffffffffffff160217905550600f60009054906101000a900473ffffffffffffffffffffffffffffffffffffffff16601060006101000a81548173ffffffffffffffffffffffffffffffffffffffff021916908373ffffffffffffffffffffffffffffffffffffffff160217905550600460009054906101000a900473ffffffffffffffffffffffffffffffffffffffff1673ffffffffffffffffffffffffffffffffffffffff1663c771a9826040518163ffffffff1660e01b81526004018080602001828103825260048152602001807f52434c5200000000000000000000000000000000000000000000000000000000815250602001915050602060405180830381600087803b15801561125357600080fd5b505af1158015611267573d6000803e3d6000fd5b505050506040513d602081101561127d57600080fd5b8101908080519060200190929190505050600d60006101000a81548173ffffffffffffffffffffffffffffffffffffffff021916908373ffffffffffffffffffffffffffffffffffffffff160217905550600d60009054906101000a900473ffffffffffffffffffffffffffffffffffffffff16600e60006101000a81548173ffffffffffffffffffffffffffffffffffffffff021916908373ffffffffffffffffffffffffffffffffffffffff160217905550600460009054906101000a900473ffffffffffffffffffffffffffffffffffffffff1673ffffffffffffffffffffffffffffffffffffffff1663c771a9826040518163ffffffff1660e01b81526004018080602001828103825260068152602001807f4150505f4e430000000000000000000000000000000000000000000000000000815250602001915050602060405180830381600087803b1580156113d757600080fd5b505af11580156113eb573d6000803e3d6000fd5b505050506040513d602081101561140157600080fd5b8101908080519060200190929190505050601260006101000a81548173ffffffffffffffffffffffffffffffffffffffff021916908373ffffffffffffffffffffffffffffffffffffffff160217905550600460009054906101000a900473ffffffffffffffffffffffffffffffffffffffff1673ffffffffffffffffffffffffffffffffffffffff1663c771a9826040518163ffffffff1660e01b81526004018080602001828103825260028152602001807f4e50000000000000000000000000000000000000000000000000000000000000815250602001915050602060405180830381600087803b1580156114f857600080fd5b505af115801561150c573d6000803e3d6000fd5b505050506040513d602081101561152257600080fd5b8101908080519060200190929190505050601360006101000a81548173ffffffffffffffffffffffffffffffffffffffff021916908373ffffffffffffffffffffffffffffffffffffffff16021790555060018081905550565b6000600260149054906101000a900460ff16905090565b61159b611fca565b73ffffffffffffffffffffffffffffffffffffffff16600260009054906101000a900473ffffffffffffffffffffffffffffffffffffffff1673ffffffffffffffffffffffffffffffffffffffff161461165d576040517f08c379a00000000000000000000000000000000000000000000000000000000081526004018080602001828103825260208152602001807f4f776e61626c653a2063616c6c6572206973206e6f7420746865206f776e657281525060200191505060405180910390fd5b600073ffffffffffffffffffffffffffffffffffffffff16600260009054906101000a900473ffffffffffffffffffffffffffffffffffffffff1673ffffffffffffffffffffffffffffffffffffffff167f8be0079c531659141344cd1fd0a4f28419497f9722a3daafe3b4186f6b6457e060405160405180910390a36000600260006101000a81548173ffffffffffffffffffffffffffffffffffffffff021916908373ffffffffffffffffffffffffffffffffffffffff160217905550565b6000600260009054906101000a900473ffffffffffffffffffffffffffffffffffffffff16905090565b611750611fca565b73ffffffffffffffffffffffffffffffffffffffff16600260009054906101000a900473ffffffffffffffffffffffffffffffffffffffff1673ffffffffffffffffffffffffffffffffffffffff1614611812576040517f08c379a00000000000000000000000000000000000000000000000000000000081526004018080602001828103825260208152602001807f4f776e61626c653a2063616c6c6572206973206e6f7420746865206f776e657281525060200191505060405180910390fd5b61181a611fd2565b565b611824611fca565b73ffffffffffffffffffffffffffffffffffffffff16600260009054906101000a900473ffffffffffffffffffffffffffffffffffffffff1673ffffffffffffffffffffffffffffffffffffffff16146118e6576040517f08c379a00000000000000000000000000000000000000000000000000000000081526004018080602001828103825260208152602001807f4f776e61626c653a2063616c6c6572206973206e6f7420746865206f776e657281525060200191505060405180910390fd5b6002600154141561195f576040517f08c379a000000000000000000000000000000000000000000000000000000000815260040180806020018281038252601f8152602001807f5265656e7472616e637947756172643a207265656e7472616e742063616c6c0081525060200191505060405180910390fd5b600260018190555060008160001c9050600a60009054906101000a900473ffffffffffffffffffffffffffffffffffffffff1673ffffffffffffffffffffffffffffffffffffffff166342842e0e3085846040518463ffffffff1660e01b8152600401808473ffffffffffffffffffffffffffffffffffffffff1673ffffffffffffffffffffffffffffffffffffffff1681526020018373ffffffffffffffffffffffffffffffffffffffff1673ffffffffffffffffffffffffffffffffffffffff1681526020018281526020019350505050600060405180830381600087803b158015611a4c57600080fd5b505af1158015611a60573d6000803e3d6000fd5b5050505050600180819055505050565b611a78611fca565b73ffffffffffffffffffffffffffffffffffffffff16600260009054906101000a900473ffffffffffffffffffffffffffffffffffffffff1673ffffffffffffffffffffffffffffffffffffffff1614611b3a576040517f08c379a00000000000000000000000000000000000000000000000000000000081526004018080602001828103825260208152602001807f4f776e61626c653a2063616c6c6572206973206e6f7420746865206f776e657281525060200191505060405180910390fd5b611b426120db565b565b611b4c611fca565b73ffffffffffffffffffffffffffffffffffffffff16600260009054906101000a900473ffffffffffffffffffffffffffffffffffffffff1673ffffffffffffffffffffffffffffffffffffffff1614611c0e576040517f08c379a00000000000000000000000000000000000000000000000000000000081526004018080602001828103825260208152602001807f4f776e61626c653a2063616c6c6572206973206e6f7420746865206f776e657281525060200191505060405180910390fd5b600073ffffffffffffffffffffffffffffffffffffffff168173ffffffffffffffffffffffffffffffffffffffff161415611c94576040517f08c379a000000000000000000000000000000000000000000000000000000000815260040180806020018281038252602581526020018061220c6025913960400191505060405180910390fd5b80600460006101000a81548173ffffffffffffffffffffffffffffffffffffffff021916908373ffffffffffffffffffffffffffffffffffffffff16021790555050565b60008060009054906101000a900473ffffffffffffffffffffffffffffffffffffffff1673ffffffffffffffffffffffffffffffffffffffff1663e3a9db1a836040518263ffffffff1660e01b8152600401808273ffffffffffffffffffffffffffffffffffffffff1673ffffffffffffffffffffffffffffffffffffffff16815260200191505060206040518083038186803b158015611d7857600080fd5b505afa158015611d8c573d6000803e3d6000fd5b505050506040513d6020811015611da257600080fd5b81019080805190602001909291905050509050919050565b611dc2611fca565b73ffffffffffffffffffffffffffffffffffffffff16600260009054906101000a900473ffffffffffffffffffffffffffffffffffffffff1673ffffffffffffffffffffffffffffffffffffffff1614611e84576040517f08c379a00000000000000000000000000000000000000000000000000000000081526004018080602001828103825260208152602001807f4f776e61626c653a2063616c6c6572206973206e6f7420746865206f776e657281525060200191505060405180910390fd5b600073ffffffffffffffffffffffffffffffffffffffff168173ffffffffffffffffffffffffffffffffffffffff161415611f0a576040517f08c379a00000000000000000000000000000000000000000000000000000000081526004018080602001828103825260268152602001806121e66026913960400191505060405180910390fd5b8073ffffffffffffffffffffffffffffffffffffffff16600260009054906101000a900473ffffffffffffffffffffffffffffffffffffffff1673ffffffffffffffffffffffffffffffffffffffff167f8be0079c531659141344cd1fd0a4f28419497f9722a3daafe3b4186f6b6457e060405160405180910390a380600260006101000a81548173ffffffffffffffffffffffffffffffffffffffff021916908373ffffffffffffffffffffffffffffffffffffffff16021790555050565b600033905090565b600260149054906101000a900460ff16612054576040517f08c379a00000000000000000000000000000000000000000000000000000000081526004018080602001828103825260148152602001807f5061757361626c653a206e6f742070617573656400000000000000000000000081525060200191505060405180910390fd5b6000600260146101000a81548160ff0219169083151502179055507f5db9ee0a495bf2e6ff9c91a7834c1ba4fdd244a5e8aa4e537bd38aeae4b073aa612098611fca565b604051808273ffffffffffffffffffffffffffffffffffffffff1673ffffffffffffffffffffffffffffffffffffffff16815260200191505060405180910390a1565b600260149054906101000a900460ff161561215e576040517f08c379a00000000000000000000000000000000000000000000000000000000081526004018080602001828103825260108152602001807f5061757361626c653a207061757365640000000000000000000000000000000081525060200191505060405180910390fd5b6001600260146101000a81548160ff0219169083151502179055507f62e78cea01bee320cd4e420270b5ea74000d11b0c9f74754ebdbfc544b05a2586121a2611fca565b604051808273ffffffffffffffffffffffffffffffffffffffff1673ffffffffffffffffffffffffffffffffffffffff16815260200191505060405180910390a156fe4f776e61626c653a206e6577206f776e657220697320746865207a65726f2061646472657373423a5353433a2073746f7261676520616464726573732063616e6e6f74206265207a65726f50423a54583a496e76616c69642063616c6c657220666f72207472616e7366657220746f6b656ea264697066735822122042b31099e45cd52e0bed83be18057e17e1821d5ee84137ba6a67ae7a49134c7364736f6c63430006090033608060405234801561001057600080fd5b5060006100216100c460201b60201c565b9050806000806101000a81548173ffffffffffffffffffffffffffffffffffffffff021916908373ffffffffffffffffffffffffffffffffffffffff1602179055508073ffffffffffffffffffffffffffffffffffffffff16600073ffffffffffffffffffffffffffffffffffffffff167f8be0079c531659141344cd1fd0a4f28419497f9722a3daafe3b4186f6b6457e060405160405180910390a3506100cc565b600033905090565b610bfc806100db6000396000f3fe6080604052600436106100555760003560e01c806351cff8d91461005a578063715018a6146100ab5780638da5cb5b146100c2578063e3a9db1a14610119578063f2fde38b1461017e578063f340fa01146101cf575b600080fd5b34801561006657600080fd5b506100a96004803603602081101561007d57600080fd5b81019080803573ffffffffffffffffffffffffffffffffffffffff169060200190929190505050610213565b005b3480156100b757600080fd5b506100c06103e0565b005b3480156100ce57600080fd5b506100d7610568565b604051808273ffffffffffffffffffffffffffffffffffffffff1673ffffffffffffffffffffffffffffffffffffffff16815260200191505060405180910390f35b34801561012557600080fd5b506101686004803603602081101561013c57600080fd5b81019080803573ffffffffffffffffffffffffffffffffffffffff169060200190929190505050610591565b6040518082815260200191505060405180910390f35b34801561018a57600080fd5b506101cd600480360360208110156101a157600080fd5b81019080803573ffffffffffffffffffffffffffffffffffffffff1690602001909291905050506105da565b005b610211600480360360208110156101e557600080fd5b81019080803573ffffffffffffffffffffffffffffffffffffffff1690602001909291905050506107e7565b005b61021b61099c565b73ffffffffffffffffffffffffffffffffffffffff166000809054906101000a900473ffffffffffffffffffffffffffffffffffffffff1673ffffffffffffffffffffffffffffffffffffffff16146102dc576040517f08c379a00000000000000000000000000000000000000000000000000000000081526004018080602001828103825260208152602001807f4f776e61626c653a2063616c6c6572206973206e6f7420746865206f776e657281525060200191505060405180910390fd5b6000600160008373ffffffffffffffffffffffffffffffffffffffff1673ffffffffffffffffffffffffffffffffffffffff1681526020019081526020016000205490506000600160008473ffffffffffffffffffffffffffffffffffffffff1673ffffffffffffffffffffffffffffffffffffffff1681526020019081526020016000208190555061038e818373ffffffffffffffffffffffffffffffffffffffff166109a490919063ffffffff16565b8173ffffffffffffffffffffffffffffffffffffffff167f7084f5476618d8e60b11ef0d7d3f06914655adb8793e28ff7f018d4c76d505d5826040518082815260200191505060405180910390a25050565b6103e861099c565b73ffffffffffffffffffffffffffffffffffffffff166000809054906101000a900473ffffffffffffffffffffffffffffffffffffffff1673ffffffffffffffffffffffffffffffffffffffff16146104a9576040517f08c379a00000000000000000000000000000000000000000000000000000000081526004018080602001828103825260208152602001807f4f776e61626c653a2063616c6c6572206973206e6f7420746865206f776e657281525060200191505060405180910390fd5b600073ffffffffffffffffffffffffffffffffffffffff166000809054906101000a900473ffffffffffffffffffffffffffffffffffffffff1673ffffffffffffffffffffffffffffffffffffffff167f8be0079c531659141344cd1fd0a4f28419497f9722a3daafe3b4186f6b6457e060405160405180910390a360008060006101000a81548173ffffffffffffffffffffffffffffffffffffffff021916908373ffffffffffffffffffffffffffffffffffffffff160217905550565b60008060009054906101000a900473ffffffffffffffffffffffffffffffffffffffff16905090565b6000600160008373ffffffffffffffffffffffffffffffffffffffff1673ffffffffffffffffffffffffffffffffffffffff168152602001908152602001600020549050919050565b6105e261099c565b73ffffffffffffffffffffffffffffffffffffffff166000809054906101000a900473ffffffffffffffffffffffffffffffffffffffff1673ffffffffffffffffffffffffffffffffffffffff16146106a3576040517f08c379a00000000000000000000000000000000000000000000000000000000081526004018080602001828103825260208152602001807f4f776e61626c653a2063616c6c6572206973206e6f7420746865206f776e657281525060200191505060405180910390fd5b600073ffffffffffffffffffffffffffffffffffffffff168173ffffffffffffffffffffffffffffffffffffffff161415610729576040517f08c379a0000000000000000000000000000000000000000000000000000000008152600401808060200182810382526026815260200180610b676026913960400191505060405180910390fd5b8073ffffffffffffffffffffffffffffffffffffffff166000809054906101000a900473ffffffffffffffffffffffffffffffffffffffff1673ffffffffffffffffffffffffffffffffffffffff167f8be0079c531659141344cd1fd0a4f28419497f9722a3daafe3b4186f6b6457e060405160405180910390a3806000806101000a81548173ffffffffffffffffffffffffffffffffffffffff021916908373ffffffffffffffffffffffffffffffffffffffff16021790555050565b6107ef61099c565b73ffffffffffffffffffffffffffffffffffffffff166000809054906101000a900473ffffffffffffffffffffffffffffffffffffffff1673ffffffffffffffffffffffffffffffffffffffff16146108b0576040517f08c379a00000000000000000000000000000000000000000000000000000000081526004018080602001828103825260208152602001807f4f776e61626c653a2063616c6c6572206973206e6f7420746865206f776e657281525060200191505060405180910390fd5b600034905061090781600160008573ffffffffffffffffffffffffffffffffffffffff1673ffffffffffffffffffffffffffffffffffffffff16815260200190815260200160002054610ade90919063ffffffff16565b600160008473ffffffffffffffffffffffffffffffffffffffff1673ffffffffffffffffffffffffffffffffffffffff168152602001908152602001600020819055508173ffffffffffffffffffffffffffffffffffffffff167f2da466a7b24304f47e87fa2e1e5a81b9831ce54fec19055ce277ca2f39ba42c4826040518082815260200191505060405180910390a25050565b600033905090565b80471015610a1a576040517f08c379a000000000000000000000000000000000000000000000000000000000815260040180806020018281038252601d8152602001807f416464726573733a20696e73756666696369656e742062616c616e636500000081525060200191505060405180910390fd5b60008273ffffffffffffffffffffffffffffffffffffffff168260405180600001905060006040518083038185875af1925050503d8060008114610a7a576040519150601f19603f3d011682016040523d82523d6000602084013e610a7f565b606091505b5050905080610ad9576040517f08c379a000000000000000000000000000000000000000000000000000000000815260040180806020018281038252603a815260200180610b8d603a913960400191505060405180910390fd5b505050565b600080828401905083811015610b5c576040517f08c379a000000000000000000000000000000000000000000000000000000000815260040180806020018281038252601b8152602001807f536166654d6174683a206164646974696f6e206f766572666c6f77000000000081525060200191505060405180910390fd5b809150509291505056fe4f776e61626c653a206e6577206f776e657220697320746865207a65726f2061646472657373416464726573733a20756e61626c6520746f2073656e642076616c75652c20726563697069656e74206d61792068617665207265766572746564a2646970667358221220173474ff2ccecfe7a6f12fd9177222af57910a85940ec7042094fefbb7c17dff64736f6c63430006090033",
  "source": "/*-----------------------------------------------------------V0.6.8\r\n__/\\\\\\\\\\\\\\\\\\\\\\\\\\ _____/\\\\\\\\\\\\\\\\\\ _______/\\\\../\\\\ ___/\\\\\\\\\\\\\\\\\\\\\\\\\\\\\\\r\n _\\/\\\\\\/////////\\\\\\ _/\\\\\\///////\\\\\\ ____\\//..\\//____\\/\\\\\\///////////__\r\n  _\\/\\\\\\.......\\/\\\\\\.\\/\\\\\\.....\\/\\\\\\ ________________\\/\\\\\\ ____________\r\n   _\\/\\\\\\\\\\\\\\\\\\\\\\\\\\/__\\/\\\\\\\\\\\\\\\\\\\\\\/_____/\\\\\\____/\\\\\\.\\/\\\\\\\\\\\\\\\\\\\\\\ ____\r\n    _\\/\\\\\\/////////____\\/\\\\\\//////\\\\\\ ___\\/\\\\\\___\\/\\\\\\.\\/\\\\\\///////______\r\n     _\\/\\\\\\ ____________\\/\\\\\\ ___\\//\\\\\\ __\\/\\\\\\___\\/\\\\\\.\\/\\\\\\ ____________\r\n      _\\/\\\\\\ ____________\\/\\\\\\ ____\\//\\\\\\ _\\/\\\\\\___\\/\\\\\\.\\/\\\\\\ ____________\r\n       _\\/\\\\\\ ____________\\/\\\\\\ _____\\//\\\\\\.\\//\\\\\\\\\\\\\\\\\\ _\\/\\\\\\ ____________\r\n        _\\/// _____________\\/// _______\\/// __\\///////// __\\/// _____________\r\n         *-------------------------------------------------------------------*/\r\n\r\n/*-----------------------------------------------------------------\r\n *  TO DO\r\n *\r\n *---------------------------------------------------------------*/\r\n\r\n// SPDX-License-Identifier: UNLICENSED\r\npragma solidity ^0.6.7;\r\n\r\nimport \"./PRUF_INTERFACES.sol\";\r\nimport \"./Imports/PullPayment.sol\";\r\nimport \"./Imports/ReentrancyGuard.sol\";\r\nimport \"./PRUF_BASIC.sol\";\r\n\r\ncontract CORE_MAL is PullPayment, BASIC {\r\n    using SafeMath for uint256;\r\n    using SafeMath for uint16;\r\n    using SafeMath for uint8;\r\n\r\n    struct Costs {\r\n        uint256 newRecordCost; // Cost to create a new record\r\n        uint256 transferAssetCost; // Cost to transfer a record from known rights holder to a new one\r\n        uint256 createNoteCost; // Cost to add a static note to an asset\r\n        uint256 reMintRecordCost; // Extra\r\n        uint256 changeStatusCost; // Extra\r\n        uint256 forceModifyCost; // Cost to brute-force a record transfer\r\n        address paymentAddress; // 2nd-party fee beneficiary address\r\n    }\r\n\r\n    struct Invoice {\r\n        address rootAddress;\r\n        uint256 rootPrice;\r\n        address ACTHaddress;\r\n        uint256 ACTHprice;\r\n    }\r\n\r\n    \r\n    //--------------------------------------------------------------------------------------Storage Reading internal functions\r\n\r\n    /*\r\n     * @dev retrieves costs from Storage and returns Costs struct\r\n     */\r\n    function getCost(uint256 _assetClass) internal returns (Costs memory) {\r\n        //^^^^^^^checks^^^^^^^^^\r\n\r\n        Costs memory cost;\r\n        //^^^^^^^effects^^^^^^^^^\r\n        (\r\n            cost.newRecordCost,\r\n            cost.transferAssetCost,\r\n            cost.createNoteCost,\r\n            cost.reMintRecordCost,\r\n            cost.changeStatusCost,\r\n            cost.forceModifyCost,\r\n            cost.paymentAddress\r\n        ) = AC_MGR.retrieveCosts(_assetClass);\r\n\r\n        return (cost);\r\n        //^^^^^^^interactions^^^^^^^^^\r\n    }\r\n\r\n    //--------------------------------------------------------------------------------------Storage Writing internal functions\r\n\r\n    /*\r\n     * @dev create a Record in Storage @ idxHash\r\n     */\r\n    function createRecord(\r\n        bytes32 _idxHash,\r\n        bytes32 _rgtHash,\r\n        uint256 _assetClass,\r\n        uint256 _countDownStart\r\n    ) internal {\r\n        uint256 tokenId = uint256(_idxHash);\r\n        AC memory AC_info = getACinfo(_assetClass);\r\n\r\n        // require(\r\n        //     A_TKN.tokenExists(tokenId) == 0,\r\n        //     \"C:CR:Asset token already exists\"\r\n        // );\r\n\r\n        require(\r\n            AC_info.custodyType != 3,\r\n            \"C:CR:Cannot create asset in a root asset class\"\r\n        );\r\n\r\n        if (AC_info.custodyType == 1) {\r\n            A_TKN.mintAssetToken(address(this), tokenId, \"pruf.io\");\r\n        }\r\n\r\n        if (AC_info.custodyType == 2) {\r\n            A_TKN.mintAssetToken(msg.sender, tokenId, \"pruf.io\");\r\n        }\r\n\r\n        STOR.newRecord(_idxHash, _rgtHash, _assetClass, _countDownStart);\r\n    }\r\n\r\n\r\n    /*\r\n     * @dev Write a Record to Storage @ idxHash\r\n     */\r\n    function writeRecord(bytes32 _idxHash, Record memory _rec)\r\n        internal\r\n        whenNotPaused\r\n    //isAuthorized(_idxHash)\r\n    {\r\n        //^^^^^^^checks^^^^^^^^^\r\n\r\n        STOR.modifyRecord(\r\n            _idxHash,\r\n            _rec.rightsHolder,\r\n            _rec.assetStatus,\r\n            _rec.countDown,\r\n            _rec.forceModCount,\r\n            _rec.numberOfTransfers\r\n        ); // Send data and writehash to storage\r\n        //^^^^^^^interactions^^^^^^^^^\r\n    }\r\n\r\n    /*\r\n     * @dev Write an Ipfs Record to Storage @ idxHash\r\n     */\r\n    function writeRecordIpfs1(bytes32 _idxHash, Record memory _rec)\r\n        internal\r\n        whenNotPaused\r\n    {\r\n        //^^^^^^^Checks^^^^^^^^^\r\n\r\n        STOR.modifyIpfs1(_idxHash, _rec.Ipfs1); // Send data to storage\r\n        //^^^^^^^interactions^^^^^^^^^\r\n    }\r\n\r\n    function writeRecordIpfs2(bytes32 _idxHash, Record memory _rec)\r\n        internal\r\n        whenNotPaused\r\n    //isAuthorized(_idxHash)\r\n    {\r\n        //^^^^^^^checks^^^^^^^^^\r\n\r\n        STOR.modifyIpfs2(_idxHash, _rec.Ipfs2); // Send data to storage\r\n        //^^^^^^^interactions^^^^^^^^^\r\n    }\r\n\r\n    //--------------------------------------------------------------------------------------Payment internal functions\r\n\r\n    function deductNewRecordCosts(uint256 _assetClass) internal whenNotPaused {\r\n        //^^^^^^^checks^^^^^^^^^\r\n        Invoice memory pricing;\r\n        //^^^^^^^effects^^^^^^^^^\r\n        (\r\n            pricing.rootAddress,\r\n            pricing.rootPrice,\r\n            pricing.ACTHaddress,\r\n            pricing.ACTHprice\r\n        ) = AC_MGR.getNewRecordCosts(_assetClass);\r\n        deductPayment(pricing);\r\n        //^^^^^^^interactions^^^^^^^^^\r\n    }\r\n\r\n    function deductRecycleCosts(uint256 _assetClass, address _oldOwner)\r\n        internal\r\n        whenNotPaused\r\n    {\r\n        //^^^^^^^checks^^^^^^^^^\r\n        Invoice memory pricing;\r\n        //^^^^^^^effects^^^^^^^^^\r\n        (\r\n            pricing.rootAddress,\r\n            pricing.rootPrice,\r\n            pricing.ACTHaddress,\r\n            pricing.ACTHprice\r\n        ) = AC_MGR.getNewRecordCosts(_assetClass);\r\n        pricing.ACTHaddress = _oldOwner;\r\n        deductPayment(pricing);\r\n        //^^^^^^^interactions^^^^^^^^^\r\n    }\r\n\r\n    function deductTransferAssetCosts(uint256 _assetClass)\r\n        internal\r\n        whenNotPaused\r\n    {\r\n        //^^^^^^^checks^^^^^^^^^\r\n        Invoice memory pricing;\r\n        //^^^^^^^effects^^^^^^^^^\r\n        (\r\n            pricing.rootAddress,\r\n            pricing.rootPrice,\r\n            pricing.ACTHaddress,\r\n            pricing.ACTHprice\r\n        ) = AC_MGR.getTransferAssetCosts(_assetClass);\r\n        deductPayment(pricing);\r\n        //^^^^^^^interactions^^^^^^^^^\r\n    }\r\n\r\n    function deductCreateNoteCosts(uint256 _assetClass) internal whenNotPaused {\r\n        //^^^^^^^checks^^^^^^^^^\r\n        Invoice memory pricing;\r\n        //^^^^^^^effects^^^^^^^^^\r\n        (\r\n            pricing.rootAddress,\r\n            pricing.rootPrice,\r\n            pricing.ACTHaddress,\r\n            pricing.ACTHprice\r\n        ) = AC_MGR.getCreateNoteCosts(_assetClass);\r\n        deductPayment(pricing);\r\n        //^^^^^^^interactions^^^^^^^^^\r\n    }\r\n\r\n    function deductReMintRecordCosts(uint256 _assetClass)\r\n        internal\r\n        whenNotPaused\r\n    {\r\n        //^^^^^^^checks^^^^^^^^^\r\n        Invoice memory pricing;\r\n        //^^^^^^^effects^^^^^^^^^\r\n        (\r\n            pricing.rootAddress,\r\n            pricing.rootPrice,\r\n            pricing.ACTHaddress,\r\n            pricing.ACTHprice\r\n        ) = AC_MGR.getReMintRecordCosts(_assetClass);\r\n        deductPayment(pricing);\r\n        //^^^^^^^interactions^^^^^^^^^\r\n    }\r\n\r\n    function deductChangeStatusCosts(uint256 _assetClass)\r\n        internal\r\n        whenNotPaused\r\n    {\r\n        //^^^^^^^checks^^^^^^^^^\r\n        Invoice memory pricing;\r\n        //^^^^^^^effects^^^^^^^^^\r\n        (\r\n            pricing.rootAddress,\r\n            pricing.rootPrice,\r\n            pricing.ACTHaddress,\r\n            pricing.ACTHprice\r\n        ) = AC_MGR.getChangeStatusCosts(_assetClass);\r\n        deductPayment(pricing);\r\n        //^^^^^^^interactions^^^^^^^^^\r\n    }\r\n\r\n    function deductForceModifyCosts(uint256 _assetClass) internal whenNotPaused {\r\n        //^^^^^^^checks^^^^^^^^^\r\n        Invoice memory pricing;\r\n        //^^^^^^^effects^^^^^^^^^\r\n        (\r\n            pricing.rootAddress,\r\n            pricing.rootPrice,\r\n            pricing.ACTHaddress,\r\n            pricing.ACTHprice\r\n        ) = AC_MGR.getForceModifyCosts(_assetClass);\r\n        deductPayment(pricing);\r\n        //^^^^^^^interactions^^^^^^^^^\r\n    }\r\n\r\n    //--------------------------------------------------------------PAYMENT FUNCTIONS\r\n    /*\r\n     * @dev Withdraws user's credit balance from contract\r\n     */\r\n    function $withdraw() external virtual payable nonReentrant {\r\n        //^^^^^^^checks^^^^^^^^^\r\n        withdrawPayments(msg.sender);\r\n        //^^^^^^^interactions^^^^^^^^^\r\n    }\r\n\r\n    /*\r\n     * @dev Deducts payment from transaction\r\n     */\r\n    function deductPayment(Invoice memory pricing) internal whenNotPaused {\r\n        uint256 messageValue = msg.value;\r\n        uint256 change;\r\n        uint256 total = pricing.rootPrice.add(pricing.ACTHprice);\r\n        require(msg.value >= total, \"C:DP: TX value too low.\");\r\n        //^^^^^^^checks^^^^^^^^^\r\n        change = messageValue.sub(total);\r\n        _asyncTransfer(pricing.rootAddress, pricing.rootPrice);\r\n        _asyncTransfer(pricing.ACTHaddress, pricing.ACTHprice);\r\n        _asyncTransfer(msg.sender, change);\r\n        //^^^^^^^interactions^^^^^^^^^\r\n    }\r\n\r\n//--------------------------------------------------------------------------------------status test internal functions\r\n\r\n    function isLostOrStolen(uint8 _assetStatus) internal pure returns (uint8) {\r\n        if (\r\n            (_assetStatus != 3) &&\r\n            (_assetStatus != 4) &&\r\n            (_assetStatus != 53) &&\r\n            (_assetStatus != 54)\r\n        ) {\r\n            return 0;\r\n        } else {\r\n            return 170;\r\n        }\r\n    }\r\n\r\n    /*\r\n     * @dev Check to see if record is in escrow status\r\n     */\r\n    function isEscrow(uint8 _assetStatus) internal pure returns (uint8) {\r\n        if (\r\n            (_assetStatus != 6) &&\r\n            (_assetStatus != 50) &&\r\n            (_assetStatus != 56)\r\n        ) {\r\n            return 0;\r\n        } else {\r\n            return 170;\r\n        }\r\n    }\r\n\r\n    function needsImport(uint8 _assetStatus) internal pure returns (uint8) {\r\n        if (\r\n            (_assetStatus != 5) &&\r\n            (_assetStatus != 55) &&\r\n            (_assetStatus != 70) &&\r\n            (_assetStatus != 60)\r\n        ) {\r\n            return 0;\r\n        } else {\r\n            return 170;\r\n        }\r\n    }\r\n\r\n    // function isReserved(uint8 _assetStatus) internal pure returns (uint8) {\r\n    //     if (\r\n    //         (_assetStatus != 7) &&\r\n    //         (_assetStatus != 57) &&\r\n    //         (_assetStatus != 58) &&\r\n    //         (_assetStatus != 60) &&\r\n    //         (_assetStatus != 70)\r\n    //     ) {\r\n    //         return 0;\r\n    //     } else {\r\n    //         return 170;\r\n    //     }\r\n    // }\r\n\r\n\r\n    \r\n}\r\n",
  "sourcePath": "C:\\Users\\Blayde\\Documents\\ETHDEV\\bulletproof\\PRUF_TRUFFLE\\contracts\\PRUF_CORE_MAL.sol",
  "compiler": {
    "name": "solc",
    "version": "0.6.9+commit.3e3065ac.Emscripten.clang"
  },
  "schemaVersion": "3.0.23",
  "updatedAt": "2020-08-20T14:42:10.855Z",
  "devdoc": {
    "methods": {
      "OO_pause()": {
        "details": "Triggers stopped state."
      },
      "OO_unpause()": {
        "details": "Returns to normal state."
      },
      "owner()": {
        "details": "Returns the address of the current owner."
      },
      "paused()": {
        "details": "Returns true if the contract is paused, and false otherwise."
      },
      "payments(address)": {
        "details": "Returns the payments owed to an address.",
        "params": {
          "dest": "The creditor's address."
        }
      },
      "renounceOwnership()": {
        "details": "Leaves the contract without owner. It will not be possible to call `onlyOwner` functions anymore. Can only be called by the current owner. NOTE: Renouncing ownership will leave the contract without an owner, thereby removing any functionality that is only available to the owner."
      },
      "transferOwnership(address)": {
        "details": "Transfers ownership of the contract to a new account (`newOwner`). Can only be called by the current owner."
      },
      "withdrawPayments(address)": {
        "details": "Withdraw accumulated payments, forwarding all gas to the recipient. Note that _any_ account can call this function, not just the `payee`. This means that contracts unaware of the `PullPayment` protocol can still receive funds this way, by having a separate account call {withdrawPayments}. WARNING: Forwarding all gas opens the door to reentrancy vulnerabilities. Make sure you trust the recipient, or are either following the checks-effects-interactions pattern or using {ReentrancyGuard}.",
        "params": {
          "payee": "Whose payments will be withdrawn."
        }
      }
    }
  },
  "userdoc": {
    "methods": {}
  }
}