{
  "contractName": "CORE",
  "abi": [
    {
      "anonymous": false,
      "inputs": [
        {
          "indexed": false,
          "internalType": "address",
          "name": "account",
          "type": "address"
        }
      ],
      "name": "Paused",
      "type": "event"
    },
    {
      "anonymous": false,
      "inputs": [
        {
          "indexed": false,
          "internalType": "string",
          "name": "_msg",
          "type": "string"
        }
      ],
      "name": "REPORT",
      "type": "event"
    },
    {
      "anonymous": false,
      "inputs": [
        {
          "indexed": true,
          "internalType": "bytes32",
          "name": "role",
          "type": "bytes32"
        },
        {
          "indexed": true,
          "internalType": "bytes32",
          "name": "previousAdminRole",
          "type": "bytes32"
        },
        {
          "indexed": true,
          "internalType": "bytes32",
          "name": "newAdminRole",
          "type": "bytes32"
        }
      ],
      "name": "RoleAdminChanged",
      "type": "event"
    },
    {
      "anonymous": false,
      "inputs": [
        {
          "indexed": true,
          "internalType": "bytes32",
          "name": "role",
          "type": "bytes32"
        },
        {
          "indexed": true,
          "internalType": "address",
          "name": "account",
          "type": "address"
        },
        {
          "indexed": true,
          "internalType": "address",
          "name": "sender",
          "type": "address"
        }
      ],
      "name": "RoleGranted",
      "type": "event"
    },
    {
      "anonymous": false,
      "inputs": [
        {
          "indexed": true,
          "internalType": "bytes32",
          "name": "role",
          "type": "bytes32"
        },
        {
          "indexed": true,
          "internalType": "address",
          "name": "account",
          "type": "address"
        },
        {
          "indexed": true,
          "internalType": "address",
          "name": "sender",
          "type": "address"
        }
      ],
      "name": "RoleRevoked",
      "type": "event"
    },
    {
      "anonymous": false,
      "inputs": [
        {
          "indexed": false,
          "internalType": "address",
          "name": "account",
          "type": "address"
        }
      ],
      "name": "Unpaused",
      "type": "event"
    },
    {
      "inputs": [],
      "name": "ASSET_TXFR_ROLE",
      "outputs": [
        {
          "internalType": "bytes32",
          "name": "",
          "type": "bytes32"
        }
      ],
      "stateMutability": "view",
      "type": "function"
    },
    {
      "inputs": [],
      "name": "DEFAULT_ADMIN_ROLE",
      "outputs": [
        {
          "internalType": "bytes32",
          "name": "",
          "type": "bytes32"
        }
      ],
      "stateMutability": "view",
      "type": "function"
    },
    {
      "inputs": [],
      "name": "OO_resolveContractAddresses",
      "outputs": [],
      "stateMutability": "nonpayable",
      "type": "function"
    },
    {
      "inputs": [
        {
          "internalType": "address",
          "name": "_storageAddress",
          "type": "address"
        }
      ],
      "name": "OO_setStorageContract",
      "outputs": [],
      "stateMutability": "nonpayable",
      "type": "function"
    },
    {
      "inputs": [
        {
          "internalType": "address",
          "name": "_to",
          "type": "address"
        },
        {
          "internalType": "bytes32",
          "name": "_idxHash",
          "type": "bytes32"
        }
      ],
      "name": "OO_transferACToken",
      "outputs": [],
      "stateMutability": "nonpayable",
      "type": "function"
    },
    {
      "inputs": [],
      "name": "PAUSER_ROLE",
      "outputs": [
        {
          "internalType": "bytes32",
          "name": "",
          "type": "bytes32"
        }
      ],
      "stateMutability": "view",
      "type": "function"
    },
    {
      "inputs": [
        {
          "internalType": "bytes32",
          "name": "role",
          "type": "bytes32"
        }
      ],
      "name": "getRoleAdmin",
      "outputs": [
        {
          "internalType": "bytes32",
          "name": "",
          "type": "bytes32"
        }
      ],
      "stateMutability": "view",
      "type": "function"
    },
    {
      "inputs": [
        {
          "internalType": "bytes32",
          "name": "role",
          "type": "bytes32"
        },
        {
          "internalType": "uint256",
          "name": "index",
          "type": "uint256"
        }
      ],
      "name": "getRoleMember",
      "outputs": [
        {
          "internalType": "address",
          "name": "",
          "type": "address"
        }
      ],
      "stateMutability": "view",
      "type": "function"
    },
    {
      "inputs": [
        {
          "internalType": "bytes32",
          "name": "role",
          "type": "bytes32"
        }
      ],
      "name": "getRoleMemberCount",
      "outputs": [
        {
          "internalType": "uint256",
          "name": "",
          "type": "uint256"
        }
      ],
      "stateMutability": "view",
      "type": "function"
    },
    {
      "inputs": [
        {
          "internalType": "bytes32",
          "name": "role",
          "type": "bytes32"
        },
        {
          "internalType": "address",
          "name": "account",
          "type": "address"
        }
      ],
      "name": "grantRole",
      "outputs": [],
      "stateMutability": "nonpayable",
      "type": "function"
    },
    {
      "inputs": [
        {
          "internalType": "bytes32",
          "name": "role",
          "type": "bytes32"
        },
        {
          "internalType": "address",
          "name": "account",
          "type": "address"
        }
      ],
      "name": "hasRole",
      "outputs": [
        {
          "internalType": "bool",
          "name": "",
          "type": "bool"
        }
      ],
      "stateMutability": "view",
      "type": "function"
    },
    {
      "inputs": [
        {
          "internalType": "address",
          "name": "",
          "type": "address"
        },
        {
          "internalType": "address",
          "name": "",
          "type": "address"
        },
        {
          "internalType": "uint256",
          "name": "",
          "type": "uint256"
        },
        {
          "internalType": "bytes",
          "name": "",
          "type": "bytes"
        }
      ],
      "name": "onERC721Received",
      "outputs": [
        {
          "internalType": "bytes4",
          "name": "",
          "type": "bytes4"
        }
      ],
      "stateMutability": "nonpayable",
      "type": "function"
    },
    {
      "inputs": [],
      "name": "pause",
      "outputs": [],
      "stateMutability": "nonpayable",
      "type": "function"
    },
    {
      "inputs": [],
      "name": "paused",
      "outputs": [
        {
          "internalType": "bool",
          "name": "",
          "type": "bool"
        }
      ],
      "stateMutability": "view",
      "type": "function"
    },
    {
      "inputs": [
        {
          "internalType": "bytes32",
          "name": "role",
          "type": "bytes32"
        },
        {
          "internalType": "address",
          "name": "account",
          "type": "address"
        }
      ],
      "name": "renounceRole",
      "outputs": [],
      "stateMutability": "nonpayable",
      "type": "function"
    },
    {
      "inputs": [
        {
          "internalType": "bytes32",
          "name": "role",
          "type": "bytes32"
        },
        {
          "internalType": "address",
          "name": "account",
          "type": "address"
        }
      ],
      "name": "revokeRole",
      "outputs": [],
      "stateMutability": "nonpayable",
      "type": "function"
    },
    {
      "inputs": [
        {
          "internalType": "address",
          "name": "_to",
          "type": "address"
        },
        {
          "internalType": "bytes32",
          "name": "_idxHash",
          "type": "bytes32"
        }
      ],
      "name": "transferAssetToken",
      "outputs": [],
      "stateMutability": "nonpayable",
      "type": "function"
    },
    {
      "inputs": [],
      "name": "unpause",
      "outputs": [],
      "stateMutability": "nonpayable",
      "type": "function"
    }
  ],
  "bytecode": "0x60806040523480156200001157600080fd5b50600160009081556002805460ff191690556200003890620000326200006d565b62000071565b620000677f65d7a28e3265b37a6474929f336521b332c1681b933f6cb9f3376673440d862a620000326200006d565b62000183565b3390565b6200007d828262000081565b5050565b6000828152600160209081526040909120620000a89183906200113c620000fc821b17901c565b156200007d57620000b86200006d565b6001600160a01b0316816001600160a01b0316837f2f8788117e7eff1d82e926ec794901d17c78024a50270940304540a733656f0d60405160405180910390a45050565b600062000113836001600160a01b0384166200011c565b90505b92915050565b60006200012a83836200016b565b620001625750815460018181018455600084815260208082209093018490558454848252828601909352604090209190915562000116565b50600062000116565b60009081526001919091016020526040902054151590565b61166e80620001936000396000f3fe608060405234801561001057600080fd5b50600436106101165760003560e01c80639010d07c116100a2578063ca15c87311610071578063ca15c87314610350578063d547741f1461036d578063d6b02ecf14610399578063e63ab1e9146103bf578063e8b41653146103c757610116565b80639010d07c146102b157806391d14854146102f0578063a217fddf1461031c578063c79b226e1461032457610116565b806336568abe116100e957806336568abe1461022d5780633f4ba83a14610259578063440e7a7e146102615780635c975abb1461028d5780638456cb59146102a957610116565b80631429db5f1461011b578063150b7a0214610135578063248a9ca3146101e25780632f2ff15d146101ff575b600080fd5b6101236103cf565b60408051918252519081900360200190f35b6101c56004803603608081101561014b57600080fd5b6001600160a01b0382358116926020810135909116916040820135919081019060808101606082013564010000000081111561018657600080fd5b82018360208201111561019857600080fd5b803590602001918460018302840111640100000000831117156101ba57600080fd5b5090925090506103f3565b604080516001600160e01b03199092168252519081900360200190f35b610123600480360360208110156101f857600080fd5b5035610404565b61022b6004803603604081101561021557600080fd5b50803590602001356001600160a01b0316610419565b005b61022b6004803603604081101561024357600080fd5b50803590602001356001600160a01b0316610485565b61022b6104e6565b61022b6004803603604081101561027757600080fd5b506001600160a01b038135169060200135610557565b6102956106b1565b604080519115158252519081900360200190f35b61022b6106ba565b6102d4600480360360408110156102c757600080fd5b5080359060200135610729565b604080516001600160a01b039092168252519081900360200190f35b6102956004803603604081101561030657600080fd5b50803590602001356001600160a01b031661074a565b610123610762565b61022b6004803603604081101561033a57600080fd5b506001600160a01b038135169060200135610767565b6101236004803603602081101561036657600080fd5b5035610869565b61022b6004803603604081101561038357600080fd5b50803590602001356001600160a01b0316610880565b61022b600480360360208110156103af57600080fd5b50356001600160a01b03166108d9565b610123610988565b61022b6109ac565b7f7f1e4e9f3d9ba0452a25cfef4cd4c6ffc86158d06ed2f585fa0093e12dec429c81565b630a85bd0160e11b95945050505050565b60009081526001602052604090206002015490565b60008281526001602052604090206002015461043c90610437611151565b61074a565b6104775760405162461bcd60e51b815260040180806020018281038252602f81526020018061153a602f913960400191505060405180910390fd5b6104818282611155565b5050565b61048d611151565b6001600160a01b0316816001600160a01b0316146104dc5760405162461bcd60e51b815260040180806020018281038252602f81526020018061160a602f913960400191505060405180910390fd5b61048182826111be565b6105127f65d7a28e3265b37a6474929f336521b332c1681b933f6cb9f3376673440d862a610437611151565b61054d5760405162461bcd60e51b81526004018080602001828103825260278152602001806115e36027913960400191505060405180910390fd5b610555611227565b565b600260005414156105af576040805162461bcd60e51b815260206004820152601f60248201527f5265656e7472616e637947756172643a207265656e7472616e742063616c6c00604482015290519081900360640190fd5b60026000556105e07f7f1e4e9f3d9ba0452a25cfef4cd4c6ffc86158d06ed2f585fa0093e12dec429c610437611151565b610631576040805162461bcd60e51b815260206004820152601e60248201527f423a54583a4d75737420686176652041535345545f545846525f524f4c450000604482015290519081900360640190fd5b60095460408051632142170760e11b81523060048201526001600160a01b038581166024830152604482018590529151849392909216916342842e0e9160648082019260009290919082900301818387803b15801561068f57600080fd5b505af11580156106a3573d6000803e3d6000fd5b505060016000555050505050565b60025460ff1690565b6106e67f65d7a28e3265b37a6474929f336521b332c1681b933f6cb9f3376673440d862a610437611151565b6107215760405162461bcd60e51b81526004018080602001828103825260278152602001806115e36027913960400191505060405180910390fd5b6105556112c5565b60008281526001602052604081206107419083611346565b90505b92915050565b60008281526001602052604081206107419083611352565b600081565b6107746000610437611151565b6107af5760405162461bcd60e51b815260040180806020018281038252602581526020018061158e6025913960400191505060405180910390fd5b60026000541415610807576040805162461bcd60e51b815260206004820152601f60248201527f5265656e7472616e637947756172643a207265656e7472616e742063616c6c00604482015290519081900360640190fd5b60026000908155600b5460408051632142170760e11b81523060048201526001600160a01b038681166024830152604482018690529151859492909316926342842e0e9260648084019391929182900301818387803b15801561068f57600080fd5b600081815260016020526040812061074490611367565b60008281526001602052604090206002015461089e90610437611151565b6104dc5760405162461bcd60e51b81526004018080602001828103825260308152602001806115b36030913960400191505060405180910390fd5b6108e66000610437611151565b6109215760405162461bcd60e51b815260040180806020018281038252602581526020018061158e6025913960400191505060405180910390fd5b6001600160a01b0381166109665760405162461bcd60e51b81526004018080602001828103825260258152602001806115696025913960400191505060405180910390fd5b600380546001600160a01b0319166001600160a01b0392909216919091179055565b7f65d7a28e3265b37a6474929f336521b332c1681b933f6cb9f3376673440d862a81565b60026000541415610a04576040805162461bcd60e51b815260206004820152601f60248201527f5265656e7472616e637947756172643a207265656e7472616e742063616c6c00604482015290519081900360640190fd5b60026000908155610a1790610437611151565b610a525760405162461bcd60e51b815260040180806020018281038252602581526020018061158e6025913960400191505060405180910390fd5b600354604080516363b8d4c160e11b8152602060048201819052600660248301526520a1afaa25a760d11b604483015291516001600160a01b039093169263c771a98292606480840193919291829003018186803b158015610ab357600080fd5b505afa158015610ac7573d6000803e3d6000fd5b505050506040513d6020811015610add57600080fd5b5051600a80546001600160a01b039283166001600160a01b03199182161791829055600b8054909116918316919091179055600354604080516363b8d4c160e11b8152602060048201819052600660248301526520a1afa6a3a960d11b60448301529151929093169263c771a9829260648083019392829003018186803b158015610b6757600080fd5b505afa158015610b7b573d6000803e3d6000fd5b505050506040513d6020811015610b9157600080fd5b5051600480546001600160a01b039283166001600160a01b03199182161780835560058054909216908416179055600354604080516363b8d4c160e11b8152602093810184905260086024820152672aaa24a62faa25a760c11b60448201529051919093169263c771a982926064808301939192829003018186803b158015610c1957600080fd5b505afa158015610c2d573d6000803e3d6000fd5b505050506040513d6020811015610c4357600080fd5b5051600680546001600160a01b039283166001600160a01b0319918216179182905560078054909116918316919091179055600354604080516363b8d4c160e11b8152602060048201819052600560248301526420afaa25a760d91b60448301529151929093169263c771a9829260648083019392829003018186803b158015610ccc57600080fd5b505afa158015610ce0573d6000803e3d6000fd5b505050506040513d6020811015610cf657600080fd5b5051600880546001600160a01b039283166001600160a01b0319918216179182905560098054909116918316919091179055600354604080516363b8d4c160e11b8152602060048201819052600660248301526524a22faa25a760d11b60448301529151929093169263c771a9829260648083019392829003018186803b158015610d8057600080fd5b505afa158015610d94573d6000803e3d6000fd5b505050506040513d6020811015610daa57600080fd5b5051600c80546001600160a01b039283166001600160a01b03199182161791829055600d8054909116918316919091179055600354604080516363b8d4c160e11b8152602060048201819052600760248301526622a1a92fa6a3a960c91b60448301529151929093169263c771a9829260648083019392829003018186803b158015610e3557600080fd5b505afa158015610e49573d6000803e3d6000fd5b505050506040513d6020811015610e5f57600080fd5b5051600e80546001600160a01b039283166001600160a01b03199182161791829055600f805490911691831691909117905560038054604080516363b8d4c160e11b815260206004820181905260248201949094526204150560ec1b60448201529051919093169263c771a982926064808301939192829003018186803b158015610ee957600080fd5b505afa158015610efd573d6000803e3d6000fd5b505050506040513d6020811015610f1357600080fd5b5051601280546001600160a01b039283166001600160a01b0319918216179182905560138054909116918316919091179055600354604080516363b8d4c160e11b8152602060048083018290526024830152632921a62960e11b60448301529151929093169263c771a9829260648083019392829003018186803b158015610f9a57600080fd5b505afa158015610fae573d6000803e3d6000fd5b505050506040513d6020811015610fc457600080fd5b5051601080546001600160a01b039283166001600160a01b0319918216179182905560118054909116918316919091179055600354604080516363b8d4c160e11b815260206004820181905260066024830152654150505f4e4360d01b60448301529151929093169263c771a9829260648083019392829003018186803b15801561104e57600080fd5b505afa158015611062573d6000803e3d6000fd5b505050506040513d602081101561107857600080fd5b5051601480546001600160a01b0319166001600160a01b03928316179055600354604080516363b8d4c160e11b8152602060048201819052600260248301526104e560f41b60448301529151929093169263c771a9829260648083019392829003018186803b1580156110ea57600080fd5b505afa1580156110fe573d6000803e3d6000fd5b505050506040513d602081101561111457600080fd5b5051601780546001600160a01b0319166001600160a01b039092169190911790556001600055565b6000610741836001600160a01b038416611372565b3390565b600082815260016020526040902061116d908261113c565b156104815761117a611151565b6001600160a01b0316816001600160a01b0316837f2f8788117e7eff1d82e926ec794901d17c78024a50270940304540a733656f0d60405160405180910390a45050565b60008281526001602052604090206111d690826113bc565b15610481576111e3611151565b6001600160a01b0316816001600160a01b0316837ff6391f5c32d9c69d2a47ea670b442974b53935d1edc7fd64eb21e047a839171b60405160405180910390a45050565b60025460ff16611275576040805162461bcd60e51b815260206004820152601460248201527314185d5cd8589b194e881b9bdd081c185d5cd95960621b604482015290519081900360640190fd5b6002805460ff191690557f5db9ee0a495bf2e6ff9c91a7834c1ba4fdd244a5e8aa4e537bd38aeae4b073aa6112a8611151565b604080516001600160a01b039092168252519081900360200190a1565b60025460ff1615611310576040805162461bcd60e51b815260206004820152601060248201526f14185d5cd8589b194e881c185d5cd95960821b604482015290519081900360640190fd5b6002805460ff191660011790557f62e78cea01bee320cd4e420270b5ea74000d11b0c9f74754ebdbfc544b05a2586112a8611151565b600061074183836113d1565b6000610741836001600160a01b038416611435565b60006107448261144d565b600061137e8383611435565b6113b457508154600181810184556000848152602080822090930184905584548482528286019093526040902091909155610744565b506000610744565b6000610741836001600160a01b038416611451565b815460009082106114135760405162461bcd60e51b81526004018080602001828103825260228152602001806115186022913960400191505060405180910390fd5b82600001828154811061142257fe5b9060005260206000200154905092915050565b60009081526001919091016020526040902054151590565b5490565b6000818152600183016020526040812054801561150d578354600019808301919081019060009087908390811061148457fe5b90600052602060002001549050808760000184815481106114a157fe5b6000918252602080832090910192909255828152600189810190925260409020908401905586548790806114d157fe5b60019003818190600052602060002001600090559055866001016000878152602001908152602001600020600090556001945050505050610744565b600091505061074456fe456e756d657261626c655365743a20696e646578206f7574206f6620626f756e6473416363657373436f6e74726f6c3a2073656e646572206d75737420626520616e2061646d696e20746f206772616e74423a5353433a2073746f7261676520616464726573732063616e6e6f74206265207a65726f50414d3a4d4f443a206d75737420686176652044454641554c545f41444d494e5f524f4c45416363657373436f6e74726f6c3a2073656e646572206d75737420626520616e2061646d696e20746f207265766f6b6541543a4d4f442d49413a43616c6c696e672061646472657373206973206e6f7420706175736572416363657373436f6e74726f6c3a2063616e206f6e6c792072656e6f756e636520726f6c657320666f722073656c66a26469706673582212202d669608e4866aa69926e8481aedc5600ed4c5e08422734dc418147e375bef4164736f6c634300060c0033",
  "immutableReferences": {},
  "source": "/*--------------------------------------------------------PRuF0.7.1\n__/\\\\\\\\\\\\\\\\\\\\\\\\\\ _____/\\\\\\\\\\\\\\\\\\ _______/\\\\../\\\\ ___/\\\\\\\\\\\\\\\\\\\\\\\\\\\\\\\n _\\/\\\\\\/////////\\\\\\ _/\\\\\\///////\\\\\\ ____\\//..\\//____\\/\\\\\\///////////__\n  _\\/\\\\\\.......\\/\\\\\\.\\/\\\\\\.....\\/\\\\\\ ________________\\/\\\\\\ ____________\n   _\\/\\\\\\\\\\\\\\\\\\\\\\\\\\/__\\/\\\\\\\\\\\\\\\\\\\\\\/_____/\\\\\\____/\\\\\\.\\/\\\\\\\\\\\\\\\\\\\\\\ ____\n    _\\/\\\\\\/////////____\\/\\\\\\//////\\\\\\ ___\\/\\\\\\___\\/\\\\\\.\\/\\\\\\///////______\n     _\\/\\\\\\ ____________\\/\\\\\\ ___\\//\\\\\\ __\\/\\\\\\___\\/\\\\\\.\\/\\\\\\ ____________\n      _\\/\\\\\\ ____________\\/\\\\\\ ____\\//\\\\\\ _\\/\\\\\\___\\/\\\\\\.\\/\\\\\\ ____________\n       _\\/\\\\\\ ____________\\/\\\\\\ _____\\//\\\\\\.\\//\\\\\\\\\\\\\\\\\\ _\\/\\\\\\ ____________\n        _\\/// _____________\\/// _______\\/// __\\///////// __\\/// _____________\n         *-------------------------------------------------------------------*/\n\n/*-----------------------------------------------------------------\n *  TO DO\n *\n *-----------------------------------------------------------------\n * PRUF core provides additional core functionality covering cost getters, payment processing, withdrawls, common test conditionals, and setters for data in storage\n *---------------------------------------------------------------*/\n\n// SPDX-License-Identifier: UNLICENSED\npragma solidity ^0.6.7;\n\nimport \"./PRUF_INTERFACES.sol\";\nimport \"./Imports/utils/ReentrancyGuard.sol\";\nimport \"./PRUF_BASIC.sol\";\n\ncontract CORE is BASIC {\n    using SafeMath for uint256;\n\n    struct Costs {\n        uint256 serviceCost; // Cost in the given item category\n        address paymentAddress; // 2nd-party fee beneficiary address\n    }\n\n    struct Invoice {\n        //invoice struct to facilitate payment messaging in-contract\n        address rootAddress;\n        uint256 rootPrice;\n        address ACTHaddress;\n        uint256 ACTHprice;\n    }\n\n    //--------------------------------------------------------------------------------------Storage Writing internal functions\n\n    /*\n     * @dev create a Record in Storage @ idxHash (SETTER)\n     */\n    function createRecord(\n        bytes32 _idxHash,\n        bytes32 _rgtHash,\n        uint32 _assetClass,\n        uint32 _countDownStart\n    ) internal virtual {\n        uint256 tokenId = uint256(_idxHash);\n        AC memory AC_info = getACinfo(_assetClass);\n\n        require(\n            A_TKN.tokenExists(tokenId) == 0,\n            \"C:CR:Asset token already exists\"\n        );\n\n        require(\n            AC_info.custodyType != 3,\n            \"C:CR:Cannot create asset in a root asset class\"\n        );\n\n        require( //-------------------------------------------------------DS:TEST\n            (AC_info.custodyType == 1) ||\n                (AC_info.custodyType == 2) ||\n                (AC_info.custodyType == 4),\n            \"C:CR:Cannot create asset - contract not authorized for asset class custody type\"\n        );\n\n        if (AC_info.custodyType == 1) {\n            A_TKN.mintAssetToken(address(this), tokenId, \"pruf.io\");\n        }\n\n        if ((AC_info.custodyType == 2) || (AC_info.custodyType == 4)) {\n            A_TKN.mintAssetToken(_msgSender(), tokenId, \"pruf.io\");\n        }\n\n        STOR.newRecord(_idxHash, _rgtHash, _assetClass, _countDownStart);\n    }\n\n    /*\n     * @dev Write a Record to Storage @ idxHash (SETTER)\n     */\n    function writeRecord(bytes32 _idxHash, Record memory _rec)\n        internal\n        virtual\n        whenNotPaused\n    //isAuthorized(_idxHash)\n    {\n        //^^^^^^^checks^^^^^^^^^\n\n        STOR.modifyRecord(\n            _idxHash,\n            _rec.rightsHolder,\n            _rec.assetStatus,\n            _rec.countDown,\n            _rec.incrementForceModCount,\n            _rec.incrementNumberOfTransfers\n        ); // Send data and writehash to storage\n        //^^^^^^^interactions^^^^^^^^^\n    }\n\n    /*\n     * @dev Write an Ipfs Record to Storage @ idxHash  (SETTER)\n     */\n    function writeRecordIpfs1(bytes32 _idxHash, Record memory _rec)\n        internal\n        virtual\n        whenNotPaused\n    {\n        //^^^^^^^Checks^^^^^^^^^\n\n        STOR.modifyIpfs1(_idxHash, _rec.Ipfs1); // Send data to storage\n        //^^^^^^^interactions^^^^^^^^^\n    }\n\n    /*\n     * @dev Write an Ipfs Record to Storage @ idxHash  (SETTER)\n     */\n    function writeRecordIpfs2(bytes32 _idxHash, Record memory _rec)\n        internal\n        virtual\n        whenNotPaused\n    //isAuthorized(_idxHash)\n    {\n        //^^^^^^^checks^^^^^^^^^\n\n        STOR.modifyIpfs2(_idxHash, _rec.Ipfs2); // Send data to storage\n        //^^^^^^^interactions^^^^^^^^^\n    }\n\n    //--------------------------------------------------------------------------------------Payment internal functions\n\n    /*\n     * @dev Send payment to appropriate pullPayment adresses for payable function\n     */\n    function deductServiceCosts(uint32 _assetClass, uint16 _service)\n        internal\n        virtual\n        whenNotPaused\n    {\n        //^^^^^^^checks^^^^^^^^^\n        Invoice memory pricing;\n        uint256 ACTHnetPercent = uint256(AC_MGR.getAC_discount(_assetClass))\n            .div(uint256(100));\n        require( //IMPOSSIBLE TO REACH unless stuff is really broken, still ensures sanity\n            (ACTHnetPercent >= 0) && (ACTHnetPercent <= 100),\n            \"PC:DSC:invalid discount value for price calculation\"\n        );\n        (\n            pricing.rootAddress,\n            pricing.rootPrice,\n            pricing.ACTHaddress,\n            pricing.ACTHprice\n        ) = AC_MGR.getServiceCosts(_assetClass, _service);\n\n        //^^^^^^^effects^^^^^^^^^\n\n        uint256 percent = pricing.ACTHprice.div(uint256(100)); //calculate 1% of listed ACTH price\n\n        uint256 _ACTHprice = ACTHnetPercent.mul(percent); //calculate the share proprotrion% * 1%\n\n        uint256 prufShare = pricing.ACTHprice.sub(_ACTHprice);\n\n        pricing.ACTHprice = _ACTHprice;\n        pricing.rootPrice = pricing.rootPrice.add(prufShare);\n\n        deductPayment(pricing);\n        //^^^^^^^interactions^^^^^^^^^\n    }\n\n    /*\n     * @dev Send payment to appropriate pullPayment adresses for payable function\n     */\n    function deductRecycleCosts(\n        uint32 _assetClass,\n        address _oldOwner //DBS:CHECK --------------- Payment now pays 1/2 ACTHcost + root to discarder, 1/2 to ACTH\n    ) internal virtual whenNotPaused {\n        //^^^^^^^checks^^^^^^^^^\n        Invoice memory pricing;\n        uint256 half;\n        //^^^^^^^effects^^^^^^^^^\n        (\n            pricing.rootAddress,\n            pricing.rootPrice,\n            pricing.ACTHaddress,\n            pricing.ACTHprice\n        ) = AC_MGR.getServiceCosts(_assetClass, 1);\n        pricing.rootAddress = _oldOwner;\n\n        half = pricing.ACTHprice.div(2);\n        pricing.rootPrice = pricing.rootPrice.add(half);\n        pricing.ACTHprice = pricing.ACTHprice.sub(half);\n\n        deductPayment(pricing);\n        //^^^^^^^interactions^^^^^^^^^\n    }\n\n    //--------------------------------------------------------------PAYMENT FUNCTIONS\n\n    /*\n     * @dev Deducts payment from transaction\n     */\n    function deductPayment(Invoice memory pricing)\n        internal\n        virtual\n        whenNotPaused\n    {\n        UTIL_TKN.payForService(\n            _msgSender(),\n            pricing.rootAddress,\n            pricing.rootPrice,\n            pricing.ACTHaddress,\n            pricing.ACTHprice\n        );\n    }\n\n    //----------------------------------------------------------------------STATUS CHECKS\n\n    /*\n     * @dev Check to see if record is lost or stolen\n     */\n    function isLostOrStolen(uint8 _assetStatus) internal pure returns (uint8) {\n        if (\n            (_assetStatus != 3) &&\n            (_assetStatus != 4) &&\n            (_assetStatus != 53) &&\n            (_assetStatus != 54)\n        ) {\n            return 0;\n        } else {\n            return 170;\n        }\n    }\n\n    /*\n     * @dev Check to see if record is in escrow status\n     */\n    function isEscrow(uint8 _assetStatus) internal pure returns (uint8) {\n        if (\n            (_assetStatus != 6) && (_assetStatus != 50) && (_assetStatus != 56)\n        ) {\n            return 0;\n        } else {\n            return 170;\n        }\n    }\n\n    /*\n     * @dev Check to see if record needs imported\n     */\n    function needsImport(uint8 _assetStatus) internal pure returns (uint8) {\n        if (\n            (_assetStatus != 5) &&\n            (_assetStatus != 55) &&\n            (_assetStatus != 70) &&\n            (_assetStatus != 60)\n        ) {\n            return 0;\n        } else {\n            return 170;\n        }\n    }\n}\n",
  "sourcePath": "/Users/cts/dev/PRUF/PRUF_TRUFFLE/contracts/PRUF_CORE.sol",
  "compiler": {
    "name": "solc",
    "version": "0.6.12+commit.27d51765.Emscripten.clang"
  },
  "schemaVersion": "3.2.3",
  "updatedAt": "2020-12-13T01:45:41.193Z",
  "devdoc": {
    "kind": "dev",
    "methods": {
      "getRoleAdmin(bytes32)": {
        "details": "Returns the admin role that controls `role`. See {grantRole} and {revokeRole}. To change a role's admin, use {_setRoleAdmin}."
      },
      "getRoleMember(bytes32,uint256)": {
        "details": "Returns one of the accounts that have `role`. `index` must be a value between 0 and {getRoleMemberCount}, non-inclusive. Role bearers are not sorted in any particular way, and their ordering may change at any point. WARNING: When using {getRoleMember} and {getRoleMemberCount}, make sure you perform all queries on the same block. See the following https://forum.openzeppelin.com/t/iterating-over-elements-on-enumerableset-in-openzeppelin-contracts/2296[forum post] for more information."
      },
      "getRoleMemberCount(bytes32)": {
        "details": "Returns the number of accounts that have `role`. Can be used together with {getRoleMember} to enumerate all bearers of a role."
      },
      "grantRole(bytes32,address)": {
        "details": "Grants `role` to `account`. If `account` had not been already granted `role`, emits a {RoleGranted} event. Requirements: - the caller must have ``role``'s admin role."
      },
      "hasRole(bytes32,address)": {
        "details": "Returns `true` if `account` has been granted `role`."
      },
      "pause()": {
        "details": "Triggers stopped state. (pausable)"
      },
      "paused()": {
        "details": "Returns true if the contract is paused, and false otherwise."
      },
      "renounceRole(bytes32,address)": {
        "details": "Revokes `role` from the calling account. Roles are often managed via {grantRole} and {revokeRole}: this function's purpose is to provide a mechanism for accounts to lose their privileges if they are compromised (such as when a trusted device is misplaced). If the calling account had been granted `role`, emits a {RoleRevoked} event. Requirements: - the caller must be `account`."
      },
      "revokeRole(bytes32,address)": {
        "details": "Revokes `role` from `account`. If `account` had been granted `role`, emits a {RoleRevoked} event. Requirements: - the caller must have ``role``'s admin role."
      },
      "unpause()": {
        "details": "Returns to normal state. (pausable)"
      }
    },
    "version": 1
  },
  "userdoc": {
    "kind": "user",
    "methods": {},
    "version": 1
  }
}