{
  "contractName": "DAO_LAYER_BASIC",
  "abi": [
    {
      "anonymous": false,
      "inputs": [
        {
          "indexed": false,
          "internalType": "address",
          "name": "account",
          "type": "address"
        }
      ],
      "name": "Paused",
      "type": "event"
    },
    {
      "anonymous": false,
      "inputs": [
        {
          "indexed": false,
          "internalType": "string",
          "name": "_msg",
          "type": "string"
        }
      ],
      "name": "REPORT",
      "type": "event"
    },
    {
      "anonymous": false,
      "inputs": [
        {
          "indexed": true,
          "internalType": "bytes32",
          "name": "role",
          "type": "bytes32"
        },
        {
          "indexed": true,
          "internalType": "bytes32",
          "name": "previousAdminRole",
          "type": "bytes32"
        },
        {
          "indexed": true,
          "internalType": "bytes32",
          "name": "newAdminRole",
          "type": "bytes32"
        }
      ],
      "name": "RoleAdminChanged",
      "type": "event"
    },
    {
      "anonymous": false,
      "inputs": [
        {
          "indexed": true,
          "internalType": "bytes32",
          "name": "role",
          "type": "bytes32"
        },
        {
          "indexed": true,
          "internalType": "address",
          "name": "account",
          "type": "address"
        },
        {
          "indexed": true,
          "internalType": "address",
          "name": "sender",
          "type": "address"
        }
      ],
      "name": "RoleGranted",
      "type": "event"
    },
    {
      "anonymous": false,
      "inputs": [
        {
          "indexed": true,
          "internalType": "bytes32",
          "name": "role",
          "type": "bytes32"
        },
        {
          "indexed": true,
          "internalType": "address",
          "name": "account",
          "type": "address"
        },
        {
          "indexed": true,
          "internalType": "address",
          "name": "sender",
          "type": "address"
        }
      ],
      "name": "RoleRevoked",
      "type": "event"
    },
    {
      "anonymous": false,
      "inputs": [
        {
          "indexed": false,
          "internalType": "address",
          "name": "account",
          "type": "address"
        }
      ],
      "name": "Unpaused",
      "type": "event"
    },
    {
      "inputs": [],
      "name": "ASSET_TXFR_ROLE",
      "outputs": [
        {
          "internalType": "bytes32",
          "name": "",
          "type": "bytes32"
        }
      ],
      "stateMutability": "view",
      "type": "function"
    },
    {
      "inputs": [],
      "name": "CONTRACT_ADMIN_ROLE",
      "outputs": [
        {
          "internalType": "bytes32",
          "name": "",
          "type": "bytes32"
        }
      ],
      "stateMutability": "view",
      "type": "function"
    },
    {
      "inputs": [],
      "name": "DAO_ROLE",
      "outputs": [
        {
          "internalType": "bytes32",
          "name": "",
          "type": "bytes32"
        }
      ],
      "stateMutability": "view",
      "type": "function"
    },
    {
      "inputs": [],
      "name": "DEFAULT_ADMIN_ROLE",
      "outputs": [
        {
          "internalType": "bytes32",
          "name": "",
          "type": "bytes32"
        }
      ],
      "stateMutability": "view",
      "type": "function"
    },
    {
      "inputs": [
        {
          "internalType": "address",
          "name": "_tokenContract",
          "type": "address"
        },
        {
          "internalType": "address",
          "name": "_to",
          "type": "address"
        },
        {
          "internalType": "uint256",
          "name": "_amount",
          "type": "uint256"
        }
      ],
      "name": "ERC20Transfer",
      "outputs": [],
      "stateMutability": "nonpayable",
      "type": "function"
    },
    {
      "inputs": [
        {
          "internalType": "address",
          "name": "_tokenContract",
          "type": "address"
        },
        {
          "internalType": "address",
          "name": "_to",
          "type": "address"
        },
        {
          "internalType": "uint256",
          "name": "_tokenID",
          "type": "uint256"
        }
      ],
      "name": "ERC721Transfer",
      "outputs": [],
      "stateMutability": "nonpayable",
      "type": "function"
    },
    {
      "inputs": [],
      "name": "PAUSER_ROLE",
      "outputs": [
        {
          "internalType": "bytes32",
          "name": "",
          "type": "bytes32"
        }
      ],
      "stateMutability": "view",
      "type": "function"
    },
    {
      "inputs": [
        {
          "internalType": "bytes32",
          "name": "role",
          "type": "bytes32"
        }
      ],
      "name": "getRoleAdmin",
      "outputs": [
        {
          "internalType": "bytes32",
          "name": "",
          "type": "bytes32"
        }
      ],
      "stateMutability": "view",
      "type": "function"
    },
    {
      "inputs": [
        {
          "internalType": "bytes32",
          "name": "role",
          "type": "bytes32"
        },
        {
          "internalType": "address",
          "name": "account",
          "type": "address"
        }
      ],
      "name": "grantRole",
      "outputs": [],
      "stateMutability": "nonpayable",
      "type": "function"
    },
    {
      "inputs": [
        {
          "internalType": "bytes32",
          "name": "role",
          "type": "bytes32"
        },
        {
          "internalType": "address",
          "name": "account",
          "type": "address"
        }
      ],
      "name": "hasRole",
      "outputs": [
        {
          "internalType": "bool",
          "name": "",
          "type": "bool"
        }
      ],
      "stateMutability": "view",
      "type": "function"
    },
    {
      "inputs": [
        {
          "internalType": "address",
          "name": "",
          "type": "address"
        },
        {
          "internalType": "address",
          "name": "",
          "type": "address"
        },
        {
          "internalType": "uint256",
          "name": "",
          "type": "uint256"
        },
        {
          "internalType": "bytes",
          "name": "",
          "type": "bytes"
        }
      ],
      "name": "onERC721Received",
      "outputs": [
        {
          "internalType": "bytes4",
          "name": "",
          "type": "bytes4"
        }
      ],
      "stateMutability": "nonpayable",
      "type": "function"
    },
    {
      "inputs": [],
      "name": "pause",
      "outputs": [],
      "stateMutability": "nonpayable",
      "type": "function"
    },
    {
      "inputs": [],
      "name": "paused",
      "outputs": [
        {
          "internalType": "bool",
          "name": "",
          "type": "bool"
        }
      ],
      "stateMutability": "view",
      "type": "function"
    },
    {
      "inputs": [
        {
          "internalType": "bytes32",
          "name": "role",
          "type": "bytes32"
        },
        {
          "internalType": "address",
          "name": "account",
          "type": "address"
        }
      ],
      "name": "renounceRole",
      "outputs": [],
      "stateMutability": "nonpayable",
      "type": "function"
    },
    {
      "inputs": [
        {
          "internalType": "bytes32",
          "name": "role",
          "type": "bytes32"
        },
        {
          "internalType": "address",
          "name": "account",
          "type": "address"
        }
      ],
      "name": "revokeRole",
      "outputs": [],
      "stateMutability": "nonpayable",
      "type": "function"
    },
    {
      "inputs": [
        {
          "internalType": "address",
          "name": "_storageAddress",
          "type": "address"
        }
      ],
      "name": "setStorageContract",
      "outputs": [],
      "stateMutability": "nonpayable",
      "type": "function"
    },
    {
      "inputs": [
        {
          "internalType": "bytes4",
          "name": "interfaceId",
          "type": "bytes4"
        }
      ],
      "name": "supportsInterface",
      "outputs": [
        {
          "internalType": "bool",
          "name": "",
          "type": "bool"
        }
      ],
      "stateMutability": "view",
      "type": "function"
    },
    {
      "inputs": [],
      "name": "unpause",
      "outputs": [],
      "stateMutability": "nonpayable",
      "type": "function"
    },
    {
      "inputs": [],
      "name": "resolveContractAddresses",
      "outputs": [],
      "stateMutability": "nonpayable",
      "type": "function"
    },
    {
      "inputs": [
        {
          "internalType": "uint32",
          "name": "_quorum",
          "type": "uint32"
        }
      ],
      "name": "DAO_setQuorum",
      "outputs": [],
      "stateMutability": "nonpayable",
      "type": "function"
    },
    {
      "inputs": [
        {
          "internalType": "uint32",
          "name": "_passingMargin",
          "type": "uint32"
        }
      ],
      "name": "DAO_setPassingMargin",
      "outputs": [],
      "stateMutability": "nonpayable",
      "type": "function"
    },
    {
      "inputs": [
        {
          "internalType": "uint32",
          "name": "_max",
          "type": "uint32"
        }
      ],
      "name": "DAO_setMaxVote",
      "outputs": [],
      "stateMutability": "nonpayable",
      "type": "function"
    },
    {
      "inputs": [
        {
          "internalType": "uint256",
          "name": "_epochSeconds",
          "type": "uint256"
        }
      ],
      "name": "DAO_setNewEpochInterval",
      "outputs": [],
      "stateMutability": "nonpayable",
      "type": "function"
    },
    {
      "inputs": [
        {
          "internalType": "bytes32",
          "name": "_role",
          "type": "bytes32"
        },
        {
          "internalType": "address",
          "name": "_account",
          "type": "address"
        },
        {
          "internalType": "string",
          "name": "_contract",
          "type": "string"
        }
      ],
      "name": "DAO_hasRole",
      "outputs": [
        {
          "internalType": "bool",
          "name": "",
          "type": "bool"
        }
      ],
      "stateMutability": "view",
      "type": "function"
    },
    {
      "inputs": [
        {
          "internalType": "bytes32",
          "name": "_role",
          "type": "bytes32"
        },
        {
          "internalType": "string",
          "name": "_contract",
          "type": "string"
        }
      ],
      "name": "DAO_getRoleAdmin",
      "outputs": [
        {
          "internalType": "bytes32",
          "name": "",
          "type": "bytes32"
        }
      ],
      "stateMutability": "view",
      "type": "function"
    },
    {
      "inputs": [
        {
          "internalType": "bytes32",
          "name": "_role",
          "type": "bytes32"
        },
        {
          "internalType": "address",
          "name": "_account",
          "type": "address"
        },
        {
          "internalType": "string",
          "name": "_contract",
          "type": "string"
        }
      ],
      "name": "DAO_grantRole",
      "outputs": [],
      "stateMutability": "nonpayable",
      "type": "function"
    },
    {
      "inputs": [
        {
          "internalType": "bytes32",
          "name": "_role",
          "type": "bytes32"
        },
        {
          "internalType": "address",
          "name": "_account",
          "type": "address"
        },
        {
          "internalType": "string",
          "name": "_contract",
          "type": "string"
        }
      ],
      "name": "DAO_revokeRole",
      "outputs": [],
      "stateMutability": "nonpayable",
      "type": "function"
    },
    {
      "inputs": [
        {
          "internalType": "bytes32",
          "name": "_role",
          "type": "bytes32"
        },
        {
          "internalType": "address",
          "name": "_account",
          "type": "address"
        },
        {
          "internalType": "string",
          "name": "_contract",
          "type": "string"
        }
      ],
      "name": "DAO_renounceRole",
      "outputs": [],
      "stateMutability": "nonpayable",
      "type": "function"
    },
    {
      "inputs": [
        {
          "internalType": "bytes32",
          "name": "_role",
          "type": "bytes32"
        },
        {
          "internalType": "uint256",
          "name": "_index",
          "type": "uint256"
        },
        {
          "internalType": "string",
          "name": "_contract",
          "type": "string"
        }
      ],
      "name": "DAO_getRoleMember",
      "outputs": [
        {
          "internalType": "address",
          "name": "",
          "type": "address"
        }
      ],
      "stateMutability": "view",
      "type": "function"
    },
    {
      "inputs": [
        {
          "internalType": "bytes32",
          "name": "_role",
          "type": "bytes32"
        },
        {
          "internalType": "string",
          "name": "_contract",
          "type": "string"
        }
      ],
      "name": "DAO_getRoleMemberCount",
      "outputs": [
        {
          "internalType": "uint256",
          "name": "",
          "type": "uint256"
        }
      ],
      "stateMutability": "view",
      "type": "function"
    },
    {
      "inputs": [
        {
          "internalType": "string",
          "name": "_contract",
          "type": "string"
        }
      ],
      "name": "DAO_resolveContractAddresses",
      "outputs": [],
      "stateMutability": "nonpayable",
      "type": "function"
    },
    {
      "inputs": [
        {
          "internalType": "address",
          "name": "_storageAddress",
          "type": "address"
        },
        {
          "internalType": "string",
          "name": "_contract",
          "type": "string"
        }
      ],
      "name": "DAO_setStorageContract",
      "outputs": [],
      "stateMutability": "nonpayable",
      "type": "function"
    },
    {
      "inputs": [
        {
          "internalType": "string",
          "name": "_contract",
          "type": "string"
        }
      ],
      "name": "DAO_pause",
      "outputs": [],
      "stateMutability": "nonpayable",
      "type": "function"
    },
    {
      "inputs": [
        {
          "internalType": "string",
          "name": "_contract",
          "type": "string"
        }
      ],
      "name": "DAO_unpause",
      "outputs": [],
      "stateMutability": "nonpayable",
      "type": "function"
    },
    {
      "inputs": [
        {
          "internalType": "string",
          "name": "_contract",
          "type": "string"
        }
      ],
      "name": "DAO_paused",
      "outputs": [
        {
          "internalType": "bool",
          "name": "",
          "type": "bool"
        }
      ],
      "stateMutability": "nonpayable",
      "type": "function"
    },
    {
      "inputs": [
        {
          "internalType": "address",
          "name": "_tokenContract",
          "type": "address"
        },
        {
          "internalType": "address",
          "name": "_to",
          "type": "address"
        },
        {
          "internalType": "uint256",
          "name": "_tokenID",
          "type": "uint256"
        },
        {
          "internalType": "string",
          "name": "_contract",
          "type": "string"
        }
      ],
      "name": "DAO_ERC721Transfer",
      "outputs": [],
      "stateMutability": "nonpayable",
      "type": "function"
    },
    {
      "inputs": [
        {
          "internalType": "address",
          "name": "_tokenContract",
          "type": "address"
        },
        {
          "internalType": "address",
          "name": "_to",
          "type": "address"
        },
        {
          "internalType": "uint256",
          "name": "_amount",
          "type": "uint256"
        },
        {
          "internalType": "string",
          "name": "_contract",
          "type": "string"
        }
      ],
      "name": "DAO_ERC20Transfer",
      "outputs": [],
      "stateMutability": "nonpayable",
      "type": "function"
    },
    {
      "inputs": [
        {
          "internalType": "string",
          "name": "_name",
          "type": "string"
        }
      ],
      "name": "resolveName",
      "outputs": [
        {
          "internalType": "address",
          "name": "",
          "type": "address"
        }
      ],
      "stateMutability": "view",
      "type": "function"
    }
  ],
  "bytecode": "0x60806040523480156200001157600080fd5b50600160009081556002805460ff191690556200002f90336200008d565b6200005b7f2ce8d04a9c35987429af538825cd2438cc5c5bb5dc427955f84daaa3ea105016336200008d565b620000877f65d7a28e3265b37a6474929f336521b332c1681b933f6cb9f3376673440d862a336200008d565b62000125565b6200009982826200009d565b5050565b60008281526001602090815260408083206001600160a01b038516845290915290205460ff16620000995760008281526001602081815260408084206001600160a01b0386168086529252808420805460ff19169093179092559051339285917f2f8788117e7eff1d82e926ec794901d17c78024a50270940304540a733656f0d9190a45050565b61255880620001356000396000f3fe608060405234801561001057600080fd5b50600436106102325760003560e01c80639bea53ff11610130578063bc19bce5116100b8578063e59fdd361161007c578063e59fdd361461051c578063e5f815dc1461052f578063e63ab1e914610542578063e9c2651814610569578063ee9c25c51461059057600080fd5b8063bc19bce5146104bd578063c5f3c543146104d0578063d05e1e9a146104e3578063d547741f146104f6578063dc38b0a21461050957600080fd5b8063a217fddf116100ff578063a217fddf14610451578063a6c4439b14610459578063abb50d1e1461046c578063b15f92bc1461047f578063bab329271461049257600080fd5b80639bea53ff146104055780639c0c5019146104185780639efef2e21461042b578063a0bc1e351461043e57600080fd5b8063318e4e0e116101be57806348a697cf1161018257806348a697cf146103b95780634c2b7c20146103cc5780635c975abb146103df5780638456cb59146103ea57806391d14854146103f257600080fd5b8063318e4e0e1461036557806336568abe146103785780633f4ba83a1461038b57806346ab8c131461039357806348896381146103a657600080fd5b8063150b7a0211610205578063150b7a02146102bc5780631da03312146102f4578063248a9ca31461031b5780632ea58a4d1461033f5780632f2ff15d1461035257600080fd5b806301ffc9a71461023757806308b7c21e1461025f5780630ff89b77146102745780631429db5f14610295575b600080fd5b61024a610245366004611e36565b610598565b60405190151581526020015b60405180910390f35b61027261026d366004611d0a565b6105cf565b005b610287610282366004611dc8565b6106cb565b604051908152602001610256565b6102877f7f1e4e9f3d9ba0452a25cfef4cd4c6ffc86158d06ed2f585fa0093e12dec429c81565b6102db6102ca366004611c20565b630a85bd0160e11b95945050505050565b6040516001600160e01b03199091168152602001610256565b6102877f2ce8d04a9c35987429af538825cd2438cc5c5bb5dc427955f84daaa3ea10501681565b610287610329366004611d0a565b6000908152600160208190526040909120015490565b61024a61034d366004611e60565b61075c565b610272610360366004611d3c565b6107e1565b610272610373366004611e60565b61080d565b610272610386366004611d3c565b6108b3565b610272610931565b6102726103a1366004611d6c565b610981565b6102726103b4366004611ea2565b610a40565b6102876103c7366004611dc8565b610ab5565b6102726103da366004611d6c565b610aee565b60025460ff1661024a565b610272610b74565b61024a610400366004611d3c565b610bc2565b610272610413366004611ea2565b610bed565b610272610426366004611c20565b610c62565b610272610439366004611e60565b610d20565b61027261044c366004611c20565b610da5565b610287600081565b610272610467366004611c93565b610e25565b61027261047a366004611e60565b610eda565b61027261048d366004611d6c565b610f5f565b6104a56104a0366004611dfb565b610fe5565b6040516001600160a01b039091168152602001610256565b6104a56104cb366004611e60565b61107b565b61024a6104de366004611d6c565b6110fe565b6102726104f1366004611ea2565b61118c565b610272610504366004611d3c565b611201565b610272610517366004611ba5565b611228565b61027261052a366004611bdf565b6112db565b61027261053d366004611bdf565b6113d6565b6102877f65d7a28e3265b37a6474929f336521b332c1681b933f6cb9f3376673440d862a81565b6102877f3b5d4cc60d3ec3516ee8ae083bd60934f6eb2a6c54b1229985c41bfb092b260381565b610272611474565b60006001600160e01b03198216637965db0b60e01b14806105c957506301ffc9a760e01b6001600160e01b03198316145b92915050565b600260005414156105fb5760405162461bcd60e51b81526004016105f2906123cf565b60405180910390fd5b600260005560408051606060208201819052601a60808301527f44414f5f7365744e6f646553746f72616765436f6e747261637400000000000060a083015230928201929092529081018290526106649060c0015b60405160208183030381529060405261165c565b601954604051630dccf9c960e21b8152600481018390526001600160a01b0390911690633733e724906024015b600060405180830381600087803b1580156106ab57600080fd5b505af11580156106bf573d6000803e3d6000fd5b50506001600055505050565b60006106d7838361107b565b6001600160a01b031663248a9ca3856040518263ffffffff1660e01b815260040161070491815260200190565b60206040518083038186803b15801561071c57600080fd5b505afa158015610730573d6000803e3d6000fd5b505050506040513d601f19601f820116820180604052508101906107549190611d23565b949350505050565b6000610768838361107b565b6001600160a01b0316635c975abb6040518163ffffffff1660e01b8152600401602060405180830381600087803b1580156107a257600080fd5b505af11580156107b6573d6000803e3d6000fd5b505050506040513d601f19601f820116820180604052508101906107da9190611ce8565b9392505050565b600082815260016020819052604090912001546107fe813361177c565b61080883836117e0565b505050565b600260005414156108305760405162461bcd60e51b81526004016105f2906123cf565b600260005560405161084e9061065090309085908590602001612152565b610858828261107b565b6001600160a01b031663ee9c25c56040518163ffffffff1660e01b8152600401600060405180830381600087803b15801561089257600080fd5b505af11580156108a6573d6000803e3d6000fd5b5050600160005550505050565b6001600160a01b03811633146109235760405162461bcd60e51b815260206004820152602f60248201527f416363657373436f6e74726f6c3a2063616e206f6e6c792072656e6f756e636560448201526e103937b632b9903337b91039b2b63360891b60648201526084016105f2565b61092d828261184b565b5050565b61095b7f65d7a28e3265b37a6474929f336521b332c1681b933f6cb9f3376673440d862a33610bc2565b6109775760405162461bcd60e51b81526004016105f2906121a8565b61097f6118b2565b565b600260005414156109a45760405162461bcd60e51b81526004016105f2906123cf565b60026000556040516109c69061065090309087908790879087906020016122b5565b6109d0828261107b565b60405163d547741f60e01b8152600481018690526001600160a01b038581166024830152919091169063d547741f906044015b600060405180830381600087803b158015610a1d57600080fd5b505af1158015610a31573d6000803e3d6000fd5b50506001600055505050505050565b60026000541415610a635760405162461bcd60e51b81526004016105f2906123cf565b6002600055604051610a7f906106509030908490602001611fd1565b60175460405163a388a2d960e01b815263ffffffff831660048201526001600160a01b039091169063a388a2d990602401610691565b6000610ac1838361107b565b6001600160a01b031663ca15c873856040518263ffffffff1660e01b815260040161070491815260200190565b60026000541415610b115760405162461bcd60e51b81526004016105f2906123cf565b6002600055604051610b33906106509030908790879087908790602001612252565b610b3d828261107b565b604051632f2ff15d60e01b8152600481018690526001600160a01b0385811660248301529190911690632f2ff15d90604401610a03565b610b9e7f65d7a28e3265b37a6474929f336521b332c1681b933f6cb9f3376673440d862a33610bc2565b610bba5760405162461bcd60e51b81526004016105f2906121a8565b61097f611945565b60009182526001602090815260408084206001600160a01b0393909316845291905290205460ff1690565b60026000541415610c105760405162461bcd60e51b81526004016105f2906123cf565b6002600055604051610c2c906106509030908490602001611fd1565b60175460405163e329fed760e01b815263ffffffff831660048201526001600160a01b039091169063e329fed790602401610691565b60026000541415610c855760405162461bcd60e51b81526004016105f2906123cf565b6002600055604051610ca990610650903090889088908890889088906020016120e0565b610cb3828261107b565b6001600160a01b031663e59fdd368686866040518463ffffffff1660e01b8152600401610ce293929190611f66565b600060405180830381600087803b158015610cfc57600080fd5b505af1158015610d10573d6000803e3d6000fd5b5050600160005550505050505050565b60026000541415610d435760405162461bcd60e51b81526004016105f2906123cf565b6002600055604051610d619061065090309085908590602001612406565b610d6b828261107b565b6001600160a01b0316633f4ba83a6040518163ffffffff1660e01b8152600401600060405180830381600087803b15801561089257600080fd5b60026000541415610dc85760405162461bcd60e51b81526004016105f2906123cf565b6002600055604051610dec906106509030908890889088908890889060200161230e565b610df6828261107b565b6001600160a01b031663e5f815dc8686866040518463ffffffff1660e01b8152600401610ce293929190611f66565b60026000541415610e485760405162461bcd60e51b81526004016105f2906123cf565b6002600055604051610e68906106509030908690869086906020016121ee565b610e72828261107b565b604051636e1c585160e11b81526001600160a01b038581166004830152919091169063dc38b0a2906024015b600060405180830381600087803b158015610eb857600080fd5b505af1158015610ecc573d6000803e3d6000fd5b505060016000555050505050565b60026000541415610efd5760405162461bcd60e51b81526004016105f2906123cf565b6002600055604051610f1b9061065090309085908590602001612014565b610f25828261107b565b6001600160a01b0316638456cb596040518163ffffffff1660e01b8152600401600060405180830381600087803b15801561089257600080fd5b60026000541415610f825760405162461bcd60e51b81526004016105f2906123cf565b6002600055604051610fa4906106509030908790879087908790602001612374565b610fae828261107b565b604051631b2b455f60e11b8152600481018690526001600160a01b03858116602483015291909116906336568abe90604401610a03565b6000610ff1838361107b565b604051632404341f60e21b815260048101879052602481018690526001600160a01b039190911690639010d07c9060440160206040518083038186803b15801561103a57600080fd5b505afa15801561104e573d6000803e3d6000fd5b505050506040513d601f19601f820116820180604052508101906110729190611bc2565b95945050505050565b6003546040516363b8d4c160e11b81526000916001600160a01b03169063c771a982906110ae9086908690600401611f8a565b60206040518083038186803b1580156110c657600080fd5b505afa1580156110da573d6000803e3d6000fd5b505050506040513d601f19601f820116820180604052508101906107da9190611bc2565b600061110a838361107b565b604051632474521560e21b8152600481018790526001600160a01b03868116602483015291909116906391d148549060440160206040518083038186803b15801561115457600080fd5b505afa158015611168573d6000803e3d6000fd5b505050506040513d601f19601f820116820180604052508101906110729190611ce8565b600260005414156111af5760405162461bcd60e51b81526004016105f2906123cf565b60026000556040516111cb906106509030908490602001611fd1565b60175460405163094ba21b60e41b815263ffffffff831660048201526001600160a01b03909116906394ba21b090602401610691565b6000828152600160208190526040909120015461121e813361177c565b610808838361184b565b6112527f2ce8d04a9c35987429af538825cd2438cc5c5bb5dc427955f84daaa3ea10501633610bc2565b61126e5760405162461bcd60e51b81526004016105f290612056565b6001600160a01b0381166112b95760405162461bcd60e51b81526020600482015260126024820152710423a5353433a2041646472657373203d20360741b60448201526064016105f2565b600380546001600160a01b0319166001600160a01b0392909216919091179055565b6113057f7f1e4e9f3d9ba0452a25cfef4cd4c6ffc86158d06ed2f585fa0093e12dec429c33610bc2565b6113215760405162461bcd60e51b81526004016105f29061209d565b600260005414156113445760405162461bcd60e51b81526004016105f2906123cf565b60026000556040516323b872dd60e01b81526001600160a01b038416906323b872dd9061137990309086908690600401611f66565b602060405180830381600087803b15801561139357600080fd5b505af11580156113a7573d6000803e3d6000fd5b505050506040513d601f19601f820116820180604052508101906113cb9190611ce8565b505060016000555050565b6114007f7f1e4e9f3d9ba0452a25cfef4cd4c6ffc86158d06ed2f585fa0093e12dec429c33610bc2565b61141c5760405162461bcd60e51b81526004016105f29061209d565b6002600054141561143f5760405162461bcd60e51b81526004016105f2906123cf565b6002600055604051632142170760e11b81526001600160a01b038416906342842e0e90610e9e90309086908690600401611f66565b600260005414156114975760405162461bcd60e51b81526004016105f2906123cf565b60026000556114c67f2ce8d04a9c35987429af538825cd2438cc5c5bb5dc427955f84daaa3ea10501633610bc2565b6114e25760405162461bcd60e51b81526004016105f290612056565b6003546040516363b8d4c160e11b81526020600482015260086024820152672220a7afa9aa27a960c11b60448201526001600160a01b039091169063c771a9829060640160206040518083038186803b15801561153e57600080fd5b505afa158015611552573d6000803e3d6000fd5b505050506040513d601f19601f820116820180604052508101906115769190611bc2565b601680546001600160a01b039283166001600160a01b031991821681179092556017805490911690911790556003546040516363b8d4c160e11b8152602060048201526005602482015264434c4f434b60d81b604482015291169063c771a9829060640160206040518083038186803b1580156115f257600080fd5b505afa158015611606573d6000803e3d6000fd5b505050506040513d601f19601f8201168201806040525081019061162a9190611bc2565b601880546001600160a01b03929092166001600160a01b03199283168117909155601980549092161790556001600055565b601754815160208084019190912060195460408051630d9b1aaf60e11b815290516001600160a01b0395861695637e31446195931692631b36355e9260048082019391829003018186803b1580156116b357600080fd5b505afa1580156116c7573d6000803e3d6000fd5b505050506040513d601f19601f820116820180604052508101906116eb9190611d23565b6040805160208101939093528201526060016040516020818303038152906040528051906020012061171a3390565b6040516001600160e01b031960e085901b16815260048101929092526001600160a01b03166024820152604401600060405180830381600087803b15801561176157600080fd5b505af1158015611775573d6000803e3d6000fd5b5050505050565b6117868282610bc2565b61092d5761179e816001600160a01b031660146119c0565b6117a98360206119c0565b6040516020016117ba929190611ef1565b60408051601f198184030181529082905262461bcd60e51b82526105f291600401611f9e565b6117ea8282610bc2565b61092d5760008281526001602081815260408084206001600160a01b0386168086529252808420805460ff19169093179092559051339285917f2f8788117e7eff1d82e926ec794901d17c78024a50270940304540a733656f0d9190a45050565b6118558282610bc2565b1561092d5760008281526001602090815260408083206001600160a01b0385168085529252808320805460ff1916905551339285917ff6391f5c32d9c69d2a47ea670b442974b53935d1edc7fd64eb21e047a839171b9190a45050565b60025460ff166118fb5760405162461bcd60e51b815260206004820152601460248201527314185d5cd8589b194e881b9bdd081c185d5cd95960621b60448201526064016105f2565b6002805460ff191690557f5db9ee0a495bf2e6ff9c91a7834c1ba4fdd244a5e8aa4e537bd38aeae4b073aa335b6040516001600160a01b03909116815260200160405180910390a1565b60025460ff161561198b5760405162461bcd60e51b815260206004820152601060248201526f14185d5cd8589b194e881c185d5cd95960821b60448201526064016105f2565b6002805460ff191660011790557f62e78cea01bee320cd4e420270b5ea74000d11b0c9f74754ebdbfc544b05a2586119283390565b606060006119cf836002612462565b6119da90600261244a565b67ffffffffffffffff8111156119f2576119f26124f4565b6040519080825280601f01601f191660200182016040528015611a1c576020820181803683370190505b509050600360fc1b81600081518110611a3757611a376124de565b60200101906001600160f81b031916908160001a905350600f60fb1b81600181518110611a6657611a666124de565b60200101906001600160f81b031916908160001a9053506000611a8a846002612462565b611a9590600161244a565b90505b6001811115611b0d576f181899199a1a9b1b9c1cb0b131b232b360811b85600f1660108110611ac957611ac96124de565b1a60f81b828281518110611adf57611adf6124de565b60200101906001600160f81b031916908160001a90535060049490941c93611b06816124b1565b9050611a98565b5083156107da5760405162461bcd60e51b815260206004820181905260248201527f537472696e67733a20686578206c656e67746820696e73756666696369656e7460448201526064016105f2565b60008083601f840112611b6e57600080fd5b50813567ffffffffffffffff811115611b8657600080fd5b602083019150836020828501011115611b9e57600080fd5b9250929050565b600060208284031215611bb757600080fd5b81356107da8161250a565b600060208284031215611bd457600080fd5b81516107da8161250a565b600080600060608486031215611bf457600080fd5b8335611bff8161250a565b92506020840135611c0f8161250a565b929592945050506040919091013590565b600080600080600060808688031215611c3857600080fd5b8535611c438161250a565b94506020860135611c538161250a565b935060408601359250606086013567ffffffffffffffff811115611c7657600080fd5b611c8288828901611b5c565b969995985093965092949392505050565b600080600060408486031215611ca857600080fd5b8335611cb38161250a565b9250602084013567ffffffffffffffff811115611ccf57600080fd5b611cdb86828701611b5c565b9497909650939450505050565b600060208284031215611cfa57600080fd5b815180151581146107da57600080fd5b600060208284031215611d1c57600080fd5b5035919050565b600060208284031215611d3557600080fd5b5051919050565b60008060408385031215611d4f57600080fd5b823591506020830135611d618161250a565b809150509250929050565b60008060008060608587031215611d8257600080fd5b843593506020850135611d948161250a565b9250604085013567ffffffffffffffff811115611db057600080fd5b611dbc87828801611b5c565b95989497509550505050565b600080600060408486031215611ddd57600080fd5b83359250602084013567ffffffffffffffff811115611ccf57600080fd5b60008060008060608587031215611e1157600080fd5b8435935060208501359250604085013567ffffffffffffffff811115611db057600080fd5b600060208284031215611e4857600080fd5b81356001600160e01b0319811681146107da57600080fd5b60008060208385031215611e7357600080fd5b823567ffffffffffffffff811115611e8a57600080fd5b611e9685828601611b5c565b90969095509350505050565b600060208284031215611eb457600080fd5b813563ffffffff811681146107da57600080fd5b81835281816020850137506000828201602090810191909152601f909101601f19169091010190565b7f416363657373436f6e74726f6c3a206163636f756e7420000000000000000000815260008351611f29816017850160208801612481565b7001034b99036b4b9b9b4b733903937b6329607d1b6017918401918201528351611f5a816028840160208801612481565b01602801949350505050565b6001600160a01b039384168152919092166020820152604081019190915260600190565b602081526000610754602083018486611ec8565b6020815260008251806020840152611fbd816040850160208701612481565b601f01601f19169190910160400192915050565b6060808252600d908201526c44414f5f73657451756f72756d60981b60808201526001600160a01b0392909216602083015263ffffffff16604082015260a00190565b60608152600960608201526844414f5f706175736560b81b608082015260018060a01b038416602082015260a06040820152600061107260a083018486611ec8565b60208082526027908201527f423a4d4f443a2d4941444d2043616c6c65722021434f4e54524143545f41444d604082015266494e5f524f4c4560c81b606082015260800190565b60208082526023908201527f423a4d4f443a2d4941444d2043616c6c6572202141535345545f545846525f526040820152624f4c4560e81b606082015260800190565b60c0808252601190820152702220a7afa2a92199182a3930b739b332b960791b60e08201526001600160a01b0387811660208301528681166040830152851660608201526080810184905261010060a082018190526000906121458184018587611ec8565b9998505050505050505050565b60608152601c60608201527f44414f5f7265736f6c7665436f6e747261637441646472657373657300000000608082015260018060a01b038416602082015260a06040820152600061107260a083018486611ec8565b60208082526026908201527f423a4d4f442d49503a43616c6c696e672061646472657373206973206e6f74206040820152653830bab9b2b960d11b606082015260800190565b608080825260169082015275111053d7dcd95d14dd1bdc9859d950dbdb9d1c9858dd60521b60a08201526001600160a01b0385811660208301528416604082015260c0606082018190526000906122489083018486611ec8565b9695505050505050565b60a0808252600d908201526c44414f5f6772616e74526f6c6560981b60c08201526001600160a01b038681166020830152604082018690528416606082015260e0608082018190526000906122aa9083018486611ec8565b979650505050505050565b60a0808252600e908201526d44414f5f7265766f6b65526f6c6560901b60c08201526001600160a01b038681166020830152604082018690528416606082015260e0608082018190526000906122aa9083018486611ec8565b60c0808252601290820152712220a7afa2a9219b9918aa3930b739b332b960711b60e08201526001600160a01b0387811660208301528681166040830152851660608201526080810184905261010060a082018190526000906121458184018587611ec8565b60a08082526010908201526f44414f5f72656e6f756e6365526f6c6560801b60c08201526001600160a01b038681166020830152604082018690528416606082015260e0608082018190526000906122aa9083018486611ec8565b6020808252601f908201527f5265656e7472616e637947756172643a207265656e7472616e742063616c6c00604082015260600190565b60608152600b60608201526a44414f5f756e706175736560a81b608082015260018060a01b038416602082015260a06040820152600061107260a083018486611ec8565b6000821982111561245d5761245d6124c8565b500190565b600081600019048311821515161561247c5761247c6124c8565b500290565b60005b8381101561249c578181015183820152602001612484565b838111156124ab576000848401525b50505050565b6000816124c0576124c06124c8565b506000190190565b634e487b7160e01b600052601160045260246000fd5b634e487b7160e01b600052603260045260246000fd5b634e487b7160e01b600052604160045260246000fd5b6001600160a01b038116811461251f57600080fd5b5056fea26469706673582212209616827d1254df4bfd313c58d4594370515e3e2e74f4bc2996a5b39d889a026764736f6c63430008070033",
  "immutableReferences": {},
  "source": "/*--------------------------------------------------------PRF0.8.7\n__/\\\\\\\\\\\\\\\\\\\\\\\\\\ _____/\\\\\\\\\\\\\\\\\\ _______/\\\\__/\\\\ ___/\\\\\\\\\\\\\\\\\\\\\\\\\\\\\\        \n__\\/\\\\\\/////////\\\\\\ _/\\\\\\///////\\\\\\ ____\\//__\\//____\\/\\\\\\///////////__       \n___\\/\\\\\\_______\\/\\\\\\_\\/\\\\\\_____\\/\\\\\\ ________________\\/\\\\\\ ____________      \n____\\/\\\\\\\\\\\\\\\\\\\\\\\\\\/__\\/\\\\\\\\\\\\\\\\\\\\\\/_____/\\\\\\____/\\\\\\_\\/\\\\\\\\\\\\\\\\\\\\\\ ____     \n_____\\/\\\\\\/////////____\\/\\\\\\//////\\\\\\ ___\\/\\\\\\___\\/\\\\\\_\\/\\\\\\///////______\n______\\/\\\\\\ ____________\\/\\\\\\ ___\\//\\\\\\ __\\/\\\\\\___\\/\\\\\\_\\/\\\\\\ ____________\n_______\\/\\\\\\ ____________\\/\\\\\\ ____\\//\\\\\\ _\\/\\\\\\___\\/\\\\\\_\\/\\\\\\ ____________\n________\\/\\\\\\ ____________\\/\\\\\\ _____\\//\\\\\\_\\//\\\\\\\\\\\\\\\\\\ _\\/\\\\\\ ____________\n_________\\/// _____________\\/// _______\\/// __\\///////// __\\/// _____________\n*---------------------------------------------------------------------------*/\n\n/**-----------------------------------------------------------------\n * DAO Specification V0.01\n * DAO THUNK LAYER - (ONE OF MANY)\n * //DPS:TEST MAJOR REVISIONS - added calls to DAO\n *---------------------------------------------------------------*/\n\n// SPDX-License-Identifier: UNLICENSED\npragma solidity 0.8.7;\n\nimport \"../Resources/PRUF_CORE.sol\";\nimport \"../Resources/RESOURCE_PRUF_EXT_INTERFACES.sol\";\nimport \"../Resources/RESOURCE_PRUF_DAO_INTERFACES.sol\";\n\ncontract DAO_LAYER_BASIC is BASIC {\n    address internal DAO_STOR_Address;\n    DAO_STOR_Interface internal DAO_STOR;\n\n    address internal CLOCK_Address;\n    CLOCK_Interface internal CLOCK;\n\n    /**\n     * @dev Resolve contract addresses from STOR\n     */\n    function resolveContractAddresses()\n        external\n        override\n        nonReentrant\n        isContractAdmin\n    {\n        //^^^^^^^checks^^^^^^^^^\n\n        // NODE_TKN_Address = STOR.resolveContractAddress(\"NODE_TKN\");\n        // NODE_TKN = NODE_TKN_Interface(NODE_TKN_Address);\n\n        // NODE_MGR_Address = STOR.resolveContractAddress(\"NODE_MGR\");\n        // NODE_MGR = NODE_MGR_Interface(NODE_MGR_Address);\n\n        // NODE_STOR_Address = STOR.resolveContractAddress(\"NODE_STOR\");\n        // NODE_STOR = NODE_STOR_Interface(NODE_STOR_Address);\n\n        // UTIL_TKN_Address = STOR.resolveContractAddress(\"UTIL_TKN\");\n        // UTIL_TKN = UTIL_TKN_Interface(UTIL_TKN_Address);\n\n        // A_TKN_Address = STOR.resolveContractAddress(\"A_TKN\");\n        // A_TKN = A_TKN_Interface(A_TKN_Address);\n\n        // ECR_MGR_Address = STOR.resolveContractAddress(\"ECR_MGR\");\n        // ECR_MGR = ECR_MGR_Interface(ECR_MGR_Address);\n\n        // APP_Address = STOR.resolveContractAddress(\"APP\");\n        // APP = APP_Interface(APP_Address);\n\n        // RCLR_Address = STOR.resolveContractAddress(\"RCLR\");\n        // RCLR = RCLR_Interface(RCLR_Address);\n\n        // APP_NC_Address = STOR.resolveContractAddress(\"APP_NC\");\n        // APP_NC = APP_NC_Interface(APP_NC_Address);\n\n        DAO_STOR_Address = STOR.resolveContractAddress(\"DAO_STOR\");\n        DAO_STOR = DAO_STOR_Interface(DAO_STOR_Address);\n\n        CLOCK_Address = STOR.resolveContractAddress(\"CLOCK\");\n        CLOCK = CLOCK_Interface(CLOCK_Address);\n    }\n\n    //---------------------------------------------DAO SETTING FUNCTIONS\n\n    /**\n     * @dev Default param setter\n     * @param _quorum new value for minimum required voters to create a quorum\n     */\n    function DAO_setQuorum(uint32 _quorum) external nonReentrant {\n        verifySig(abi.encode(\"DAO_setQuorum\", address(this), _quorum));\n        //^^^^^^^checks^^^^^^^^^\n\n        DAO_STOR.setQuorum(_quorum);\n        //^^^^^^^interactions^^^^^^^^^\n    }\n\n    /**\n     * @dev Default param setter\n     * @param _passingMargin new value for minimum required passing margin for votes, in whole percents\n     */\n    function DAO_setPassingMargin(uint32 _passingMargin) external nonReentrant {\n        verifySig(\n            abi.encode(\"DAO_setQuorum\", address(this), _passingMargin)\n        );\n        //^^^^^^^checks^^^^^^^^^\n\n        DAO_STOR.setPassingMargin(_passingMargin);\n        //^^^^^^^interactions^^^^^^^^^\n    }\n\n    /**\n     * @dev Default param setter\n     * @param _max new value for maximum votees per node\n     */\n    function DAO_setMaxVote(uint32 _max) external nonReentrant {\n        verifySig(abi.encode(\"DAO_setQuorum\", address(this), _max));\n        //^^^^^^^checks^^^^^^^^^\n\n        DAO_STOR.setMaxVote(_max);\n        //^^^^^^^effects^^^^^^^^^\n    }\n\n    //---------------------------------------------EPOCH CLOCK FUNCTIONS\n\n    /**\n     * @dev Set storage contract to interface with\n     * @param _epochSeconds - New period for EPOCHS in seconds\n     */\n    function DAO_setNewEpochInterval(uint256 _epochSeconds)\n        external\n        nonReentrant\n    {\n        verifySig(\n            abi.encode(\n                \"DAO_setNodeStorageContract\",\n                address(this),\n                _epochSeconds\n            )\n        );\n        //^^^^^^^checks^^^^^^^^^\n\n        CLOCK.setNewEpochInterval(_epochSeconds);\n        //^^^^^^^Interactions^^^^^^^^^\n    }\n\n    //-----------------------------------------------Functions shared by many contracts through inheritance\n\n    /**\n     * @dev Returns `true` if `account` has been granted `role`. //DPS:PREFERRED for interface building ease of use\n     */\n    function DAO_hasRole(\n        bytes32 _role,\n        address _account,\n        string calldata _contract\n    ) external view returns (bool) {\n        return (\n            BASIC_Interface(resolveName(_contract)).hasRole(_role, _account)\n        );\n    }\n\n    /**\n     * @dev Returns the admin role that controls `role`. See {grantRole} and ////DPS:PREFERRED for interface building ease of use\n     * {revokeRole}.\n     *\n     * To change a role's admin, use {AccessControl-_setRoleAdmin}.\n     */\n    function DAO_getRoleAdmin(bytes32 _role, string calldata _contract)\n        external\n        view\n        returns (bytes32)\n    {\n        return (BASIC_Interface(resolveName(_contract)).getRoleAdmin(_role));\n    }\n\n    /**\n     * @dev Grants `role` to `account`.\n     *\n     * If `account` had not been already granted `role`, emits a {RoleGranted}\n     * event.\n     *\n     * Requirements:\n     *\n     //DPS:TEST ALL ROLE MANIPULATORS TO MAKE SURE THEY WORK. CRITICAL.\n     * - this contract must have ``role``'s admin role.\n     */\n    function DAO_grantRole(\n        bytes32 _role,\n        address _account,\n        string calldata _contract\n    ) external nonReentrant {\n        verifySig(\n            abi.encode(\n                \"DAO_grantRole\",\n                address(this),\n                _role,\n                _account,\n                _contract\n            )\n        );\n        //^^^^^^^checks^^^^^^^^^\n\n        BASIC_Interface(resolveName(_contract)).grantRole(_role, _account);\n        //^^^^^^^interactions^^^^^^^^^\n    }\n\n    /**\n     * @dev Revokes `role` from `account`.\n     *\n     * If `account` had been granted `role`, emits a {RoleRevoked} event.\n     *\n     * Requirements:\n     *\n     //DPS:TEST ALL ROLE MANIPULATORS TO MAKE SURE THEY WORK. CRITICAL.\n     * - this contract must have ``role``'s admin role.\n     */\n    function DAO_revokeRole(\n        bytes32 _role,\n        address _account,\n        string calldata _contract\n    ) external nonReentrant {\n        verifySig(\n            abi.encode(\n                \"DAO_revokeRole\",\n                address(this),\n                _role,\n                _account,\n                _contract\n            )\n        );\n        //^^^^^^^checks^^^^^^^^^\n\n        BASIC_Interface(resolveName(_contract)).revokeRole(_role, _account);\n        //^^^^^^^interactions^^^^^^^^^\n    }\n\n    /**\n     * @dev Revokes `role` from the calling account.\n     *\n     * Roles are often managed via {grantRole} and {revokeRole}: this function's\n     * purpose is to provide a mechanism for accounts to lose their privileges\n     * if they are compromised (such as when a trusted device is misplaced).\n     *\n     * If the calling account had been granted `role`, emits a {RoleRevoked}\n     * event.\n     *\n     * Requirements:\n     *\n     * - the caller must be `account`.\n     //DPS:TEST ALL ROLE MANIPULATORS TO MAKE SURE THEY WORK. CRITICAL.\n     */\n    function DAO_renounceRole(\n        bytes32 _role,\n        address _account,\n        string calldata _contract\n    ) external nonReentrant {\n        verifySig(\n            abi.encode(\n                \"DAO_renounceRole\",\n                address(this),\n                _role,\n                _account,\n                _contract\n            )\n        );\n        //^^^^^^^checks^^^^^^^^^\n\n        BASIC_Interface(resolveName(_contract)).renounceRole(_role, _account);\n        //^^^^^^^interactions^^^^^^^^^\n    }\n\n    /** //DPS:PREFERRED for interface building ease of use\n     * @dev Returns one of the accounts that have `role`. `index` must be a\n     * value between 0 and {getRoleMemberCount}, non-inclusive.\n     *\n     * Role bearers are not sorted in any particular way, and their ordering may\n     * change at any point.\n     *\n     * WARNING: When using {getRoleMember} and {getRoleMemberCount}, make sure\n     * you perform all queries on the same block. See the following\n     * https://forum.openzeppelin.com/t/iterating-over-elements-on-enumerableset-in-openzeppelin-contracts/2296[forum post]\n     * for more information.\n     */\n    function DAO_getRoleMember(\n        bytes32 _role,\n        uint256 _index,\n        string calldata _contract\n    ) external view returns (address) {\n        return (\n            BASIC_Interface(resolveName(_contract)).getRoleMember(_role, _index)\n        );\n    }\n\n    /** //DPS:PREFERRED for interface building ease of use\n     * @dev Returns the number of accounts that have `role`. Can be used\n     * together with {getRoleMember} to enumerate all bearers of a role.\n     */\n    function DAO_getRoleMemberCount(bytes32 _role, string calldata _contract)\n        external\n        view\n        returns (uint256)\n    {\n        return (\n            BASIC_Interface(resolveName(_contract)).getRoleMemberCount(_role)\n        );\n    }\n\n    /**\n     * @dev Resolve contract addresses from STOR\n     * @param _contract contract name to call\n     */\n    function DAO_resolveContractAddresses(string calldata _contract)\n        external\n        nonReentrant\n    {\n        verifySig(\n            abi.encode(\n                \"DAO_resolveContractAddresses\",\n                address(this),\n                _contract\n            )\n        );\n        //^^^^^^^checks^^^^^^^^^\n\n        BASIC_Interface(resolveName(_contract)).resolveContractAddresses();\n        //^^^^^^^interactions^^^^^^^^^\n    }\n\n    /**\n     * @dev Set address of STOR contract to interface with\n     * @param _storageAddress address of PRUF_STOR\n     * @param _contract contract name to call\n     */\n    function DAO_setStorageContract(\n        address _storageAddress,\n        string calldata _contract\n    ) external nonReentrant {\n        verifySig(\n            abi.encode(\n                \"DAO_setStorageContract\",\n                address(this),\n                _storageAddress,\n                _contract\n            )\n        );\n        //^^^^^^^checks^^^^^^^^^\n\n        BASIC_Interface(resolveName(_contract)).setStorageContract(\n            _storageAddress\n        );\n        //^^^^^^^interactions^^^^^^^^^\n    }\n\n    /**\n     * @dev Triggers stopped state. (pausable)\n     * @param _contract contract name to call\n     */\n    function DAO_pause(string calldata _contract) external nonReentrant {\n        verifySig(abi.encode(\"DAO_pause\", address(this), _contract));\n        //^^^^^^^checks^^^^^^^^^\n\n        BASIC_Interface(resolveName(_contract)).pause();\n        //^^^^^^^interactions^^^^^^^^^\n    }\n\n    /***\n     * @dev Returns to normal state. (pausable)\n     * @param _contract contract name to call\n     */\n    function DAO_unpause(string calldata _contract) external nonReentrant {\n        verifySig(abi.encode(\"DAO_unpause\", address(this), _contract));\n        //^^^^^^^checks^^^^^^^^^\n\n        BASIC_Interface(resolveName(_contract)).unpause();\n        //^^^^^^^interactions^^^^^^^^^\n    }\n\n    /** //DPS:PREFERRED for interface building ease of use\n     * {revokeRole}.\n     * @dev Returns true if _contract is paused, and false otherwise.\n     */\n    function DAO_paused(string calldata _contract) external returns (bool) {\n        return (BASIC_Interface(resolveName(_contract)).paused());\n    }\n\n    /**\n     * @dev send an ERC721 token from this contract\n     * @param _tokenContract Address of foreign token contract\n     * @param _to destination\n     * @param _tokenID Token ID\n     * @param _contract contract name to call\n     */\n    function DAO_ERC721Transfer(\n        address _tokenContract,\n        address _to,\n        uint256 _tokenID,\n        string calldata _contract\n    ) external nonReentrant {\n        verifySig(\n            abi.encode(\n                \"DAO_ERC721Transfer\",\n                address(this),\n                _tokenContract,\n                _to,\n                _tokenID,\n                _contract\n            )\n        );\n        //^^^^^^^checks^^^^^^^^^\n\n        BASIC_Interface(resolveName(_contract)).ERC721Transfer(\n            _tokenContract,\n            _to,\n            _tokenID\n        );\n        //^^^^^^^interactions^^^^^^^^^\n    }\n\n    /**\n     * @dev send an ERC20 token from this contract\n     * @param _tokenContract Address of foreign token contract\n     * @param _to destination\n     * @param _amount amount to transfer\n     * @param _contract contract name to call\n     */\n    function DAO_ERC20Transfer(\n        address _tokenContract,\n        address _to,\n        uint256 _amount,\n        string calldata _contract\n    ) external nonReentrant {\n        verifySig(\n            abi.encode(\n                \"DAO_ERC20Transfer\",\n                address(this),\n                _tokenContract,\n                _to,\n                _amount,\n                _contract\n            )\n        );\n        //^^^^^^^checks^^^^^^^^^\n\n        BASIC_Interface(resolveName(_contract)).ERC20Transfer(\n            _tokenContract,\n            _to,\n            _amount\n        );\n        //^^^^^^^interactions^^^^^^^^^\n    }\n\n    //---------------------------------INTERNAL FUNCTIONS\n\n    /**\n     * @dev Makes signature hash and verifies against DAO_STOR\n     * @param _sigArray signature of call to approve\n     */\n    function verifySig(bytes memory _sigArray) internal {\n        DAO_STOR.verifyResolution(\n            keccak256(\n                abi.encode(keccak256(_sigArray), CLOCK.thisEpoch())\n            ),\n            _msgSender()\n        );\n    }\n\n    /**\n     * @dev name resolver\n     * @param _name name to resolve\n     * returns address of (contract name)\n     */\n    function resolveName(string calldata _name) public view returns (address) {\n        return STOR.resolveContractAddress(_name);\n        //^^^^^^^interactions^^^^^^^^^\n    }\n}\n",
  "sourcePath": "/Users/drake/Documents/DEV/PRUF/PRUF_TRUFFLE/contracts/ReleaseCandidates/PRUF_DAO_LAYER_BASIC.sol",
  "compiler": {
    "name": "solc",
    "version": "0.8.7+commit.e28d00a7.Emscripten.clang"
  },
  "schemaVersion": "3.4.3",
  "updatedAt": "2022-04-27T15:21:40.276Z",
  "devdoc": {
    "kind": "dev",
    "methods": {
      "DAO_ERC20Transfer(address,address,uint256,string)": {
        "details": "send an ERC20 token from this contract",
        "params": {
          "_amount": "amount to transfer",
          "_contract": "contract name to call",
          "_to": "destination",
          "_tokenContract": "Address of foreign token contract"
        }
      },
      "DAO_ERC721Transfer(address,address,uint256,string)": {
        "details": "send an ERC721 token from this contract",
        "params": {
          "_contract": "contract name to call",
          "_to": "destination",
          "_tokenContract": "Address of foreign token contract",
          "_tokenID": "Token ID"
        }
      },
      "DAO_getRoleAdmin(bytes32,string)": {
        "details": "Returns the admin role that controls `role`. See {grantRole} and ////DPS:PREFERRED for interface building ease of use {revokeRole}. To change a role's admin, use {AccessControl-_setRoleAdmin}."
      },
      "DAO_getRoleMember(bytes32,uint256,string)": {
        "details": "Returns one of the accounts that have `role`. `index` must be a value between 0 and {getRoleMemberCount}, non-inclusive. Role bearers are not sorted in any particular way, and their ordering may change at any point. WARNING: When using {getRoleMember} and {getRoleMemberCount}, make sure you perform all queries on the same block. See the following https://forum.openzeppelin.com/t/iterating-over-elements-on-enumerableset-in-openzeppelin-contracts/2296[forum post] for more information."
      },
      "DAO_getRoleMemberCount(bytes32,string)": {
        "details": "Returns the number of accounts that have `role`. Can be used together with {getRoleMember} to enumerate all bearers of a role."
      },
      "DAO_grantRole(bytes32,address,string)": {
        "details": "Grants `role` to `account`. If `account` had not been already granted `role`, emits a {RoleGranted} event. Requirements: //DPS:TEST ALL ROLE MANIPULATORS TO MAKE SURE THEY WORK. CRITICAL. - this contract must have ``role``'s admin role."
      },
      "DAO_hasRole(bytes32,address,string)": {
        "details": "Returns `true` if `account` has been granted `role`. //DPS:PREFERRED for interface building ease of use"
      },
      "DAO_pause(string)": {
        "details": "Triggers stopped state. (pausable)",
        "params": {
          "_contract": "contract name to call"
        }
      },
      "DAO_paused(string)": {
        "details": "Returns true if _contract is paused, and false otherwise."
      },
      "DAO_renounceRole(bytes32,address,string)": {
        "details": "Revokes `role` from the calling account. Roles are often managed via {grantRole} and {revokeRole}: this function's purpose is to provide a mechanism for accounts to lose their privileges if they are compromised (such as when a trusted device is misplaced). If the calling account had been granted `role`, emits a {RoleRevoked} event. Requirements: - the caller must be `account`. //DPS:TEST ALL ROLE MANIPULATORS TO MAKE SURE THEY WORK. CRITICAL."
      },
      "DAO_resolveContractAddresses(string)": {
        "details": "Resolve contract addresses from STOR",
        "params": {
          "_contract": "contract name to call"
        }
      },
      "DAO_revokeRole(bytes32,address,string)": {
        "details": "Revokes `role` from `account`. If `account` had been granted `role`, emits a {RoleRevoked} event. Requirements: //DPS:TEST ALL ROLE MANIPULATORS TO MAKE SURE THEY WORK. CRITICAL. - this contract must have ``role``'s admin role."
      },
      "DAO_setMaxVote(uint32)": {
        "details": "Default param setter",
        "params": {
          "_max": "new value for maximum votees per node"
        }
      },
      "DAO_setNewEpochInterval(uint256)": {
        "details": "Set storage contract to interface with",
        "params": {
          "_epochSeconds": "- New period for EPOCHS in seconds"
        }
      },
      "DAO_setPassingMargin(uint32)": {
        "details": "Default param setter",
        "params": {
          "_passingMargin": "new value for minimum required passing margin for votes, in whole percents"
        }
      },
      "DAO_setQuorum(uint32)": {
        "details": "Default param setter",
        "params": {
          "_quorum": "new value for minimum required voters to create a quorum"
        }
      },
      "DAO_setStorageContract(address,string)": {
        "details": "Set address of STOR contract to interface with",
        "params": {
          "_contract": "contract name to call",
          "_storageAddress": "address of PRUF_STOR"
        }
      },
      "ERC20Transfer(address,address,uint256)": {
        "details": "send an ERC20 token from this contract",
        "params": {
          "_amount": "amount to transfer",
          "_to": "destination",
          "_tokenContract": "Address of foreign token contract"
        }
      },
      "ERC721Transfer(address,address,uint256)": {
        "details": "send an ERC721 token from this contract",
        "params": {
          "_to": "destination",
          "_tokenContract": "Address of foreign token contract",
          "_tokenID": "Token ID"
        }
      },
      "getRoleAdmin(bytes32)": {
        "details": "Returns the admin role that controls `role`. See {grantRole} and {revokeRole}. To change a role's admin, use {_setRoleAdmin}."
      },
      "grantRole(bytes32,address)": {
        "details": "Grants `role` to `account`. If `account` had not been already granted `role`, emits a {RoleGranted} event. Requirements: - the caller must have ``role``'s admin role."
      },
      "hasRole(bytes32,address)": {
        "details": "Returns `true` if `account` has been granted `role`."
      },
      "onERC721Received(address,address,uint256,bytes)": {
        "details": "Compliance for erc721 reciever See OZ documentation"
      },
      "paused()": {
        "details": "Returns true if the contract is paused, and false otherwise."
      },
      "renounceRole(bytes32,address)": {
        "details": "Revokes `role` from the calling account. Roles are often managed via {grantRole} and {revokeRole}: this function's purpose is to provide a mechanism for accounts to lose their privileges if they are compromised (such as when a trusted device is misplaced). If the calling account had been granted `role`, emits a {RoleRevoked} event. Requirements: - the caller must be `account`."
      },
      "resolveContractAddresses()": {
        "details": "Resolve contract addresses from STOR"
      },
      "resolveName(string)": {
        "details": "name resolver",
        "params": {
          "_name": "name to resolve returns address of (contract name)"
        }
      },
      "revokeRole(bytes32,address)": {
        "details": "Revokes `role` from `account`. If `account` had been granted `role`, emits a {RoleRevoked} event. Requirements: - the caller must have ``role``'s admin role."
      },
      "setStorageContract(address)": {
        "details": "Set address of STOR contract to interface with",
        "params": {
          "_storageAddress": "address of PRUF_STOR"
        }
      },
      "supportsInterface(bytes4)": {
        "details": "See {IERC165-supportsInterface}."
      }
    },
    "version": 1
  },
  "userdoc": {
    "kind": "user",
    "methods": {
      "DAO_getRoleMember(bytes32,uint256,string)": {
        "notice": "//DPS:PREFERRED for interface building ease of use"
      },
      "DAO_getRoleMemberCount(bytes32,string)": {
        "notice": "//DPS:PREFERRED for interface building ease of use"
      },
      "DAO_paused(string)": {
        "notice": "//DPS:PREFERRED for interface building ease of use {revokeRole}."
      }
    },
    "version": 1
  }
}