{
  "contractName": "DAO_LAYER_B",
  "abi": [
    {
      "anonymous": false,
      "inputs": [
        {
          "indexed": false,
          "internalType": "address",
          "name": "account",
          "type": "address"
        }
      ],
      "name": "Paused",
      "type": "event"
    },
    {
      "anonymous": false,
      "inputs": [
        {
          "indexed": false,
          "internalType": "string",
          "name": "_msg",
          "type": "string"
        }
      ],
      "name": "REPORT",
      "type": "event"
    },
    {
      "anonymous": false,
      "inputs": [
        {
          "indexed": true,
          "internalType": "bytes32",
          "name": "role",
          "type": "bytes32"
        },
        {
          "indexed": true,
          "internalType": "bytes32",
          "name": "previousAdminRole",
          "type": "bytes32"
        },
        {
          "indexed": true,
          "internalType": "bytes32",
          "name": "newAdminRole",
          "type": "bytes32"
        }
      ],
      "name": "RoleAdminChanged",
      "type": "event"
    },
    {
      "anonymous": false,
      "inputs": [
        {
          "indexed": true,
          "internalType": "bytes32",
          "name": "role",
          "type": "bytes32"
        },
        {
          "indexed": true,
          "internalType": "address",
          "name": "account",
          "type": "address"
        },
        {
          "indexed": true,
          "internalType": "address",
          "name": "sender",
          "type": "address"
        }
      ],
      "name": "RoleGranted",
      "type": "event"
    },
    {
      "anonymous": false,
      "inputs": [
        {
          "indexed": true,
          "internalType": "bytes32",
          "name": "role",
          "type": "bytes32"
        },
        {
          "indexed": true,
          "internalType": "address",
          "name": "account",
          "type": "address"
        },
        {
          "indexed": true,
          "internalType": "address",
          "name": "sender",
          "type": "address"
        }
      ],
      "name": "RoleRevoked",
      "type": "event"
    },
    {
      "anonymous": false,
      "inputs": [
        {
          "indexed": false,
          "internalType": "address",
          "name": "account",
          "type": "address"
        }
      ],
      "name": "Unpaused",
      "type": "event"
    },
    {
      "inputs": [],
      "name": "ASSET_TXFR_ROLE",
      "outputs": [
        {
          "internalType": "bytes32",
          "name": "",
          "type": "bytes32"
        }
      ],
      "stateMutability": "view",
      "type": "function"
    },
    {
      "inputs": [],
      "name": "CONTRACT_ADMIN_ROLE",
      "outputs": [
        {
          "internalType": "bytes32",
          "name": "",
          "type": "bytes32"
        }
      ],
      "stateMutability": "view",
      "type": "function"
    },
    {
      "inputs": [],
      "name": "DAO_ROLE",
      "outputs": [
        {
          "internalType": "bytes32",
          "name": "",
          "type": "bytes32"
        }
      ],
      "stateMutability": "view",
      "type": "function"
    },
    {
      "inputs": [],
      "name": "DEFAULT_ADMIN_ROLE",
      "outputs": [
        {
          "internalType": "bytes32",
          "name": "",
          "type": "bytes32"
        }
      ],
      "stateMutability": "view",
      "type": "function"
    },
    {
      "inputs": [
        {
          "internalType": "address",
          "name": "_tokenContract",
          "type": "address"
        },
        {
          "internalType": "address",
          "name": "_to",
          "type": "address"
        },
        {
          "internalType": "uint256",
          "name": "_amount",
          "type": "uint256"
        }
      ],
      "name": "ERC20Transfer",
      "outputs": [],
      "stateMutability": "nonpayable",
      "type": "function"
    },
    {
      "inputs": [
        {
          "internalType": "address",
          "name": "_tokenContract",
          "type": "address"
        },
        {
          "internalType": "address",
          "name": "_to",
          "type": "address"
        },
        {
          "internalType": "uint256",
          "name": "_tokenID",
          "type": "uint256"
        }
      ],
      "name": "ERC721Transfer",
      "outputs": [],
      "stateMutability": "nonpayable",
      "type": "function"
    },
    {
      "inputs": [],
      "name": "PAUSER_ROLE",
      "outputs": [
        {
          "internalType": "bytes32",
          "name": "",
          "type": "bytes32"
        }
      ],
      "stateMutability": "view",
      "type": "function"
    },
    {
      "inputs": [
        {
          "internalType": "bytes32",
          "name": "role",
          "type": "bytes32"
        }
      ],
      "name": "getRoleAdmin",
      "outputs": [
        {
          "internalType": "bytes32",
          "name": "",
          "type": "bytes32"
        }
      ],
      "stateMutability": "view",
      "type": "function"
    },
    {
      "inputs": [
        {
          "internalType": "bytes32",
          "name": "role",
          "type": "bytes32"
        },
        {
          "internalType": "address",
          "name": "account",
          "type": "address"
        }
      ],
      "name": "grantRole",
      "outputs": [],
      "stateMutability": "nonpayable",
      "type": "function"
    },
    {
      "inputs": [
        {
          "internalType": "bytes32",
          "name": "role",
          "type": "bytes32"
        },
        {
          "internalType": "address",
          "name": "account",
          "type": "address"
        }
      ],
      "name": "hasRole",
      "outputs": [
        {
          "internalType": "bool",
          "name": "",
          "type": "bool"
        }
      ],
      "stateMutability": "view",
      "type": "function"
    },
    {
      "inputs": [
        {
          "internalType": "address",
          "name": "",
          "type": "address"
        },
        {
          "internalType": "address",
          "name": "",
          "type": "address"
        },
        {
          "internalType": "uint256",
          "name": "",
          "type": "uint256"
        },
        {
          "internalType": "bytes",
          "name": "",
          "type": "bytes"
        }
      ],
      "name": "onERC721Received",
      "outputs": [
        {
          "internalType": "bytes4",
          "name": "",
          "type": "bytes4"
        }
      ],
      "stateMutability": "nonpayable",
      "type": "function"
    },
    {
      "inputs": [],
      "name": "pause",
      "outputs": [],
      "stateMutability": "nonpayable",
      "type": "function"
    },
    {
      "inputs": [],
      "name": "paused",
      "outputs": [
        {
          "internalType": "bool",
          "name": "",
          "type": "bool"
        }
      ],
      "stateMutability": "view",
      "type": "function"
    },
    {
      "inputs": [
        {
          "internalType": "bytes32",
          "name": "role",
          "type": "bytes32"
        },
        {
          "internalType": "address",
          "name": "account",
          "type": "address"
        }
      ],
      "name": "renounceRole",
      "outputs": [],
      "stateMutability": "nonpayable",
      "type": "function"
    },
    {
      "inputs": [
        {
          "internalType": "bytes32",
          "name": "role",
          "type": "bytes32"
        },
        {
          "internalType": "address",
          "name": "account",
          "type": "address"
        }
      ],
      "name": "revokeRole",
      "outputs": [],
      "stateMutability": "nonpayable",
      "type": "function"
    },
    {
      "inputs": [
        {
          "internalType": "address",
          "name": "_storageAddress",
          "type": "address"
        }
      ],
      "name": "setStorageContract",
      "outputs": [],
      "stateMutability": "nonpayable",
      "type": "function"
    },
    {
      "inputs": [
        {
          "internalType": "bytes4",
          "name": "interfaceId",
          "type": "bytes4"
        }
      ],
      "name": "supportsInterface",
      "outputs": [
        {
          "internalType": "bool",
          "name": "",
          "type": "bool"
        }
      ],
      "stateMutability": "view",
      "type": "function"
    },
    {
      "inputs": [],
      "name": "unpause",
      "outputs": [],
      "stateMutability": "nonpayable",
      "type": "function"
    },
    {
      "inputs": [],
      "name": "resolveContractAddresses",
      "outputs": [],
      "stateMutability": "nonpayable",
      "type": "function"
    },
    {
      "inputs": [
        {
          "internalType": "address",
          "name": "_erc721Address",
          "type": "address"
        },
        {
          "internalType": "address",
          "name": "_UD_721ContractAddress",
          "type": "address"
        }
      ],
      "name": "DAO_setUnstoppableDomainsTokenContract",
      "outputs": [],
      "stateMutability": "nonpayable",
      "type": "function"
    },
    {
      "inputs": [
        {
          "internalType": "uint256",
          "name": "_minUpgradeInterval",
          "type": "uint256"
        },
        {
          "internalType": "address",
          "name": "_EO_STAKING_Address",
          "type": "address"
        }
      ],
      "name": "DAO_setMinimumPeriod",
      "outputs": [],
      "stateMutability": "nonpayable",
      "type": "function"
    },
    {
      "inputs": [
        {
          "internalType": "uint256",
          "name": "_delay",
          "type": "uint256"
        },
        {
          "internalType": "address",
          "name": "_EO_STAKING_Address",
          "type": "address"
        }
      ],
      "name": "DAO_endStaking",
      "outputs": [],
      "stateMutability": "nonpayable",
      "type": "function"
    },
    {
      "inputs": [
        {
          "internalType": "address",
          "name": "_utilAddress",
          "type": "address"
        },
        {
          "internalType": "address",
          "name": "_stakeAddress",
          "type": "address"
        },
        {
          "internalType": "address",
          "name": "_stakeVaultAddress",
          "type": "address"
        },
        {
          "internalType": "address",
          "name": "_rewardsVaultAddress",
          "type": "address"
        },
        {
          "internalType": "address",
          "name": "_EO_STAKING_Address",
          "type": "address"
        }
      ],
      "name": "DAO_setTokenContractsEO",
      "outputs": [],
      "stateMutability": "nonpayable",
      "type": "function"
    },
    {
      "inputs": [
        {
          "internalType": "uint256",
          "name": "_stakeTier",
          "type": "uint256"
        },
        {
          "internalType": "uint256",
          "name": "_min",
          "type": "uint256"
        },
        {
          "internalType": "uint256",
          "name": "_max",
          "type": "uint256"
        },
        {
          "internalType": "uint256",
          "name": "_interval",
          "type": "uint256"
        },
        {
          "internalType": "uint256",
          "name": "_bonusPercentage",
          "type": "uint256"
        },
        {
          "internalType": "address",
          "name": "_EO_STAKING_Address",
          "type": "address"
        }
      ],
      "name": "DAO_setStakeLevels",
      "outputs": [],
      "stateMutability": "nonpayable",
      "type": "function"
    },
    {
      "inputs": [
        {
          "internalType": "address",
          "name": "_utilAddress",
          "type": "address"
        },
        {
          "internalType": "address",
          "name": "_stakeAddress",
          "type": "address"
        },
        {
          "internalType": "address",
          "name": "vaultContractAddress",
          "type": "address"
        }
      ],
      "name": "DAO_setTokenContracts",
      "outputs": [],
      "stateMutability": "nonpayable",
      "type": "function"
    },
    {
      "inputs": [
        {
          "internalType": "string",
          "name": "_name",
          "type": "string"
        }
      ],
      "name": "resolveName",
      "outputs": [
        {
          "internalType": "address",
          "name": "",
          "type": "address"
        }
      ],
      "stateMutability": "view",
      "type": "function"
    }
  ],
  "bytecode": "0x60806040523480156200001157600080fd5b50600160009081556002805460ff191690556200002f90336200008d565b6200005b7f2ce8d04a9c35987429af538825cd2438cc5c5bb5dc427955f84daaa3ea105016336200008d565b620000877f65d7a28e3265b37a6474929f336521b332c1681b933f6cb9f3376673440d862a336200008d565b62000125565b6200009982826200009d565b5050565b60008281526001602090815260408083206001600160a01b038516845290915290205460ff16620000995760008281526001602081815260408084206001600160a01b0386168086529252808420805460ff19169093179092559051339285917f2f8788117e7eff1d82e926ec794901d17c78024a50270940304540a733656f0d9190a45050565b611bea80620001356000396000f3fe608060405234801561001057600080fd5b506004361061018d5760003560e01c806391d14854116100de578063e59fdd3611610097578063e9c2651811610071578063e9c26518146103ba578063ee9c25c5146103e1578063f384b06a146103e9578063fe087d7a146103fc57600080fd5b8063e59fdd361461036d578063e5f815dc14610380578063e63ab1e91461039357600080fd5b806391d14854146102ee578063963c592414610301578063a217fddf14610314578063bc19bce51461031c578063d547741f14610347578063dc38b0a21461035a57600080fd5b80632f2ff15d1161014b5780633f4ba83a116101255780633f4ba83a146102c05780635c975abb146102c85780638456cb59146102d35780638d6a866d146102db57600080fd5b80632f2ff15d1461028757806334ca46651461029a57806336568abe146102ad57600080fd5b806205cf841461019257806301ffc9a7146101a75780631429db5f146101cf578063150b7a02146102045780631da033121461023c578063248a9ca314610263575b600080fd5b6101a56101a03660046117e7565b61040f565b005b6101ba6101b5366004611762565b61054e565b60405190151581526020015b60405180910390f35b6101f67f7f1e4e9f3d9ba0452a25cfef4cd4c6ffc86158d06ed2f585fa0093e12dec429c81565b6040519081526020016101c6565b61022361021236600461168f565b630a85bd0160e11b95945050505050565b6040516001600160e01b031990911681526020016101c6565b6101f67f2ce8d04a9c35987429af538825cd2438cc5c5bb5dc427955f84daaa3ea10501681565b6101f6610271366004611724565b6000908152600160208190526040909120015490565b6101a561029536600461173d565b610585565b6101a56102a836600461173d565b6105b1565b6101a56102bb36600461173d565b61069a565b6101a5610718565b60025460ff166101ba565b6101a5610768565b6101a56102e93660046115dd565b6107b6565b6101ba6102fc36600461173d565b61087c565b6101a561030f36600461173d565b6108a7565b6101f6600081565b61032f61032a36600461178c565b610915565b6040516001600160a01b0390911681526020016101c6565b6101a561035536600461173d565b61099f565b6101a561036836600461151f565b6109c6565b6101a561037b36600461164e565b610a79565b6101a561038e36600461164e565b610b7a565b6101f67f65d7a28e3265b37a6474929f336521b332c1681b933f6cb9f3376673440d862a81565b6101f67f3b5d4cc60d3ec3516ee8ae083bd60934f6eb2a6c54b1229985c41bfb092b260381565b6101a5610c5b565b6101a56103f7366004611592565b610e43565b6101a561040a366004611559565b610f09565b6002600054141561043b5760405162461bcd60e51b815260040161043290611aa5565b60405180910390fd5b6002600055604080516101006020820181905260126101208301527144414f5f7365745374616b654c6576656c7360701b6101408301523092820192909252606081018890526080810187905260a0810186905260c0810185905260e081018490526001600160a01b038316918101919091526104cb90610160015b604051602081830303815290604052610fd6565b60405163117a0d3360e21b815260048101879052602481018690526044810185905260648101849052608481018390526001600160a01b038216906345e834cc9060a401600060405180830381600087803b15801561052957600080fd5b505af115801561053d573d6000803e3d6000fd5b505060016000555050505050505050565b60006001600160e01b03198216637965db0b60e01b148061057f57506301ffc9a760e01b6001600160e01b03198316145b92915050565b600082815260016020819052604090912001546105a281336110f6565b6105ac838361115a565b505050565b600260005414156105d45760405162461bcd60e51b815260040161043290611aa5565b600260005560408051608060208201819052601460a083015273111053d7dcd95d135a5b9a5b5d5b54195c9a5bd960621b60c08301523092820192909252606081018490526001600160a01b038316918101919091526106369060e0016104b7565b604051635f66dc2d60e11b8152600481018390526001600160a01b0382169063becdb85a906024015b600060405180830381600087803b15801561067957600080fd5b505af115801561068d573d6000803e3d6000fd5b5050600160005550505050565b6001600160a01b038116331461070a5760405162461bcd60e51b815260206004820152602f60248201527f416363657373436f6e74726f6c3a2063616e206f6e6c792072656e6f756e636560448201526e103937b632b9903337b91039b2b63360891b6064820152608401610432565b61071482826111c5565b5050565b6107427f65d7a28e3265b37a6474929f336521b332c1681b933f6cb9f3376673440d862a3361087c565b61075e5760405162461bcd60e51b81526004016104329061199d565b61076661122c565b565b6107927f65d7a28e3265b37a6474929f336521b332c1681b933f6cb9f3376673440d862a3361087c565b6107ae5760405162461bcd60e51b81526004016104329061199d565b6107666112bf565b600260005414156107d95760405162461bcd60e51b815260040161043290611aa5565b60026000556040516107fd906104b7903090889088908890889088906020016119e3565b60405163e551e03360e01b81526001600160a01b03868116600483015285811660248301528481166044830152838116606483015282169063e551e03390608401600060405180830381600087803b15801561085857600080fd5b505af115801561086c573d6000803e3d6000fd5b5050600160005550505050505050565b60009182526001602090815260408084206001600160a01b0393909316845291905290205460ff1690565b600260005414156108ca5760405162461bcd60e51b815260040161043290611aa5565b60026000556040516108e8906104b790309085908590602001611a50565b6040516312c080d560e11b8152600481018390526001600160a01b0382169063258101aa9060240161065f565b6003546040516363b8d4c160e11b81526000916001600160a01b03169063c771a9829061094890869086906004016118b1565b60206040518083038186803b15801561096057600080fd5b505afa158015610974573d6000803e3d6000fd5b505050506040513d601f19601f82011682018060405250810190610998919061153c565b9392505050565b600082815260016020819052604090912001546109bc81336110f6565b6105ac83836111c5565b6109f07f2ce8d04a9c35987429af538825cd2438cc5c5bb5dc427955f84daaa3ea1050163361087c565b610a0c5760405162461bcd60e51b815260040161043290611913565b6001600160a01b038116610a575760405162461bcd60e51b81526020600482015260126024820152710423a5353433a2041646472657373203d20360741b6044820152606401610432565b600380546001600160a01b0319166001600160a01b0392909216919091179055565b610aa37f7f1e4e9f3d9ba0452a25cfef4cd4c6ffc86158d06ed2f585fa0093e12dec429c3361087c565b610abf5760405162461bcd60e51b81526004016104329061195a565b60026000541415610ae25760405162461bcd60e51b815260040161043290611aa5565b60026000556040516323b872dd60e01b81523060048201526001600160a01b038381166024830152604482018390528416906323b872dd90606401602060405180830381600087803b158015610b3757600080fd5b505af1158015610b4b573d6000803e3d6000fd5b505050506040513d601f19601f82011682018060405250810190610b6f9190611702565b505060016000555050565b610ba47f7f1e4e9f3d9ba0452a25cfef4cd4c6ffc86158d06ed2f585fa0093e12dec429c3361087c565b610bc05760405162461bcd60e51b81526004016104329061195a565b60026000541415610be35760405162461bcd60e51b815260040161043290611aa5565b6002600055604051632142170760e11b81523060048201526001600160a01b038381166024830152604482018390528416906342842e0e906064015b600060405180830381600087803b158015610c3957600080fd5b505af1158015610c4d573d6000803e3d6000fd5b505060016000555050505050565b60026000541415610c7e5760405162461bcd60e51b815260040161043290611aa5565b6002600055610cad7f2ce8d04a9c35987429af538825cd2438cc5c5bb5dc427955f84daaa3ea1050163361087c565b610cc95760405162461bcd60e51b815260040161043290611913565b6003546040516363b8d4c160e11b81526020600482015260086024820152672220a7afa9aa27a960c11b60448201526001600160a01b039091169063c771a9829060640160206040518083038186803b158015610d2557600080fd5b505afa158015610d39573d6000803e3d6000fd5b505050506040513d601f19601f82011682018060405250810190610d5d919061153c565b601680546001600160a01b039283166001600160a01b031991821681179092556017805490911690911790556003546040516363b8d4c160e11b8152602060048201526005602482015264434c4f434b60d81b604482015291169063c771a9829060640160206040518083038186803b158015610dd957600080fd5b505afa158015610ded573d6000803e3d6000fd5b505050506040513d601f19601f82011682018060405250810190610e11919061153c565b601880546001600160a01b03929092166001600160a01b03199283168117909155601980549092161790556001600055565b60026000541415610e665760405162461bcd60e51b815260040161043290611aa5565b60026000556040805160a060208201819052601560c08301527444414f5f736574546f6b656e436f6e74726163747360581b60e083015230928201929092526001600160a01b0380861660608301528085166080830152831691810191909152610ed390610100016104b7565b604051633a452dc360e21b81526001600160a01b038481166004830152838116602483015282169063e914b70c90604401610c1f565b60026000541415610f2c5760405162461bcd60e51b815260040161043290611aa5565b600260005560408051608060208201819052602660a08301527f44414f5f736574556e73746f707061626c65446f6d61696e73546f6b656e436f60c0830152651b9d1c9858dd60d21b60e083015230928201929092526001600160a01b038085166060830152831691810191909152610fa890610100016104b7565b6040516343d3949b60e01b81526001600160a01b0383811660048301528216906343d3949b9060240161065f565b601754815160208084019190912060195460408051630d9b1aaf60e11b815290516001600160a01b0395861695637e31446195931692631b36355e9260048082019391829003018186803b15801561102d57600080fd5b505afa158015611041573d6000803e3d6000fd5b505050506040513d601f19601f8201168201806040525081019061106591906117ce565b604080516020810193909352820152606001604051602081830303815290604052805190602001206110943390565b6040516001600160e01b031960e085901b16815260048101929092526001600160a01b03166024820152604401600060405180830381600087803b1580156110db57600080fd5b505af11580156110ef573d6000803e3d6000fd5b5050505050565b611100828261087c565b61071457611118816001600160a01b0316601461133a565b61112383602061133a565b60405160200161113492919061183c565b60408051601f198184030181529082905262461bcd60e51b8252610432916004016118e0565b611164828261087c565b6107145760008281526001602081815260408084206001600160a01b0386168086529252808420805460ff19169093179092559051339285917f2f8788117e7eff1d82e926ec794901d17c78024a50270940304540a733656f0d9190a45050565b6111cf828261087c565b156107145760008281526001602090815260408083206001600160a01b0385168085529252808320805460ff1916905551339285917ff6391f5c32d9c69d2a47ea670b442974b53935d1edc7fd64eb21e047a839171b9190a45050565b60025460ff166112755760405162461bcd60e51b815260206004820152601460248201527314185d5cd8589b194e881b9bdd081c185d5cd95960621b6044820152606401610432565b6002805460ff191690557f5db9ee0a495bf2e6ff9c91a7834c1ba4fdd244a5e8aa4e537bd38aeae4b073aa335b6040516001600160a01b03909116815260200160405180910390a1565b60025460ff16156113055760405162461bcd60e51b815260206004820152601060248201526f14185d5cd8589b194e881c185d5cd95960821b6044820152606401610432565b6002805460ff191660011790557f62e78cea01bee320cd4e420270b5ea74000d11b0c9f74754ebdbfc544b05a2586112a23390565b60606000611349836002611af4565b611354906002611adc565b67ffffffffffffffff81111561136c5761136c611b86565b6040519080825280601f01601f191660200182016040528015611396576020820181803683370190505b509050600360fc1b816000815181106113b1576113b1611b70565b60200101906001600160f81b031916908160001a905350600f60fb1b816001815181106113e0576113e0611b70565b60200101906001600160f81b031916908160001a9053506000611404846002611af4565b61140f906001611adc565b90505b6001811115611487576f181899199a1a9b1b9c1cb0b131b232b360811b85600f166010811061144357611443611b70565b1a60f81b82828151811061145957611459611b70565b60200101906001600160f81b031916908160001a90535060049490941c9361148081611b43565b9050611412565b5083156109985760405162461bcd60e51b815260206004820181905260248201527f537472696e67733a20686578206c656e67746820696e73756666696369656e746044820152606401610432565b60008083601f8401126114e857600080fd5b50813567ffffffffffffffff81111561150057600080fd5b60208301915083602082850101111561151857600080fd5b9250929050565b60006020828403121561153157600080fd5b813561099881611b9c565b60006020828403121561154e57600080fd5b815161099881611b9c565b6000806040838503121561156c57600080fd5b823561157781611b9c565b9150602083013561158781611b9c565b809150509250929050565b6000806000606084860312156115a757600080fd5b83356115b281611b9c565b925060208401356115c281611b9c565b915060408401356115d281611b9c565b809150509250925092565b600080600080600060a086880312156115f557600080fd5b853561160081611b9c565b9450602086013561161081611b9c565b9350604086013561162081611b9c565b9250606086013561163081611b9c565b9150608086013561164081611b9c565b809150509295509295909350565b60008060006060848603121561166357600080fd5b833561166e81611b9c565b9250602084013561167e81611b9c565b929592945050506040919091013590565b6000806000806000608086880312156116a757600080fd5b85356116b281611b9c565b945060208601356116c281611b9c565b935060408601359250606086013567ffffffffffffffff8111156116e557600080fd5b6116f1888289016114d6565b969995985093965092949392505050565b60006020828403121561171457600080fd5b8151801515811461099857600080fd5b60006020828403121561173657600080fd5b5035919050565b6000806040838503121561175057600080fd5b82359150602083013561158781611b9c565b60006020828403121561177457600080fd5b81356001600160e01b03198116811461099857600080fd5b6000806020838503121561179f57600080fd5b823567ffffffffffffffff8111156117b657600080fd5b6117c2858286016114d6565b90969095509350505050565b6000602082840312156117e057600080fd5b5051919050565b60008060008060008060c0878903121561180057600080fd5b863595506020870135945060408701359350606087013592506080870135915060a087013561182e81611b9c565b809150509295509295509295565b7f416363657373436f6e74726f6c3a206163636f756e7420000000000000000000815260008351611874816017850160208801611b13565b7001034b99036b4b9b9b4b733903937b6329607d1b60179184019182015283516118a5816028840160208801611b13565b01602801949350505050565b60208152816020820152818360408301376000818301604090810191909152601f909201601f19160101919050565b60208152600082518060208401526118ff816040850160208701611b13565b601f01601f19169190910160400192915050565b60208082526027908201527f423a4d4f443a2d4941444d2043616c6c65722021434f4e54524143545f41444d604082015266494e5f524f4c4560c81b606082015260800190565b60208082526023908201527f423a4d4f443a2d4941444d2043616c6c6572202141535345545f545846525f526040820152624f4c4560e81b606082015260800190565b60208082526026908201527f423a4d4f442d49503a43616c6c696e672061646472657373206973206e6f74206040820152653830bab9b2b960d11b606082015260800190565b60e081526000611a1160e08301600e81526d44414f5f656e645374616b696e6760901b602082015260400190565b6001600160a01b03988916602084015296881660408301525093861660608501529185166080840152841660a083015290921660c09092019190915290565b608081526000611a7e60808301600e81526d44414f5f656e645374616b696e6760901b602082015260400190565b6001600160a01b039586166020840152604083019490945250921660609092019190915290565b6020808252601f908201527f5265656e7472616e637947756172643a207265656e7472616e742063616c6c00604082015260600190565b60008219821115611aef57611aef611b5a565b500190565b6000816000190483118215151615611b0e57611b0e611b5a565b500290565b60005b83811015611b2e578181015183820152602001611b16565b83811115611b3d576000848401525b50505050565b600081611b5257611b52611b5a565b506000190190565b634e487b7160e01b600052601160045260246000fd5b634e487b7160e01b600052603260045260246000fd5b634e487b7160e01b600052604160045260246000fd5b6001600160a01b0381168114611bb157600080fd5b5056fea264697066735822122094f3cb1c7de9c49338487500437dfcd284789b693d9b5e97fba61b8973f4335c64736f6c63430008070033",
  "immutableReferences": {},
  "source": "/*--------------------------------------------------------PRF0.8.7\n__/\\\\\\\\\\\\\\\\\\\\\\\\\\ _____/\\\\\\\\\\\\\\\\\\ _______/\\\\__/\\\\ ___/\\\\\\\\\\\\\\\\\\\\\\\\\\\\\\        \n__\\/\\\\\\/////////\\\\\\ _/\\\\\\///////\\\\\\ ____\\//__\\//____\\/\\\\\\///////////__       \n___\\/\\\\\\_______\\/\\\\\\_\\/\\\\\\_____\\/\\\\\\ ________________\\/\\\\\\ ____________      \n____\\/\\\\\\\\\\\\\\\\\\\\\\\\\\/__\\/\\\\\\\\\\\\\\\\\\\\\\/_____/\\\\\\____/\\\\\\_\\/\\\\\\\\\\\\\\\\\\\\\\ ____     \n_____\\/\\\\\\/////////____\\/\\\\\\//////\\\\\\ ___\\/\\\\\\___\\/\\\\\\_\\/\\\\\\///////______\n______\\/\\\\\\ ____________\\/\\\\\\ ___\\//\\\\\\ __\\/\\\\\\___\\/\\\\\\_\\/\\\\\\ ____________\n_______\\/\\\\\\ ____________\\/\\\\\\ ____\\//\\\\\\ _\\/\\\\\\___\\/\\\\\\_\\/\\\\\\ ____________\n________\\/\\\\\\ ____________\\/\\\\\\ _____\\//\\\\\\_\\//\\\\\\\\\\\\\\\\\\ _\\/\\\\\\ ____________\n_________\\/// _____________\\/// _______\\/// __\\///////// __\\/// _____________\n*---------------------------------------------------------------------------*/\n\n/**-----------------------------------------------------------------\n * DAO Specification V0.01\n * DAO THUNK LAYER - (ONE OF MANY)\n * //DPS:TEST MAJOR REVISIONS - added calls to DAO\n *---------------------------------------------------------------*/\n\n// SPDX-License-Identifier: UNLICENSED\npragma solidity 0.8.7;\n\nimport \"../Resources/PRUF_CORE.sol\";\nimport \"../Resources/RESOURCE_PRUF_EXT_INTERFACES.sol\";\nimport \"../Resources/RESOURCE_PRUF_DAO_INTERFACES.sol\";\n\ncontract DAO_LAYER_B is BASIC {\n    address internal DAO_STOR_Address;\n    DAO_STOR_Interface internal DAO_STOR;\n\n    address internal CLOCK_Address;\n    CLOCK_Interface internal CLOCK;\n\n    /**\n     * @dev Resolve contract addresses from STOR\n     */\n    function resolveContractAddresses()\n        external\n        override\n        nonReentrant\n        isContractAdmin\n    {\n        //^^^^^^^checks^^^^^^^^^\n\n        // NODE_TKN_Address = STOR.resolveContractAddress(\"NODE_TKN\");\n        // NODE_TKN = NODE_TKN_Interface(NODE_TKN_Address);\n\n        // NODE_MGR_Address = STOR.resolveContractAddress(\"NODE_MGR\");\n        // NODE_MGR = NODE_MGR_Interface(NODE_MGR_Address);\n\n        // NODE_STOR_Address = STOR.resolveContractAddress(\"NODE_STOR\");\n        // NODE_STOR = NODE_STOR_Interface(NODE_STOR_Address);\n\n        // UTIL_TKN_Address = STOR.resolveContractAddress(\"UTIL_TKN\");\n        // UTIL_TKN = UTIL_TKN_Interface(UTIL_TKN_Address);\n\n        // A_TKN_Address = STOR.resolveContractAddress(\"A_TKN\");\n        // A_TKN = A_TKN_Interface(A_TKN_Address);\n\n        // ECR_MGR_Address = STOR.resolveContractAddress(\"ECR_MGR\");\n        // ECR_MGR = ECR_MGR_Interface(ECR_MGR_Address);\n\n        // APP_Address = STOR.resolveContractAddress(\"APP\");\n        // APP = APP_Interface(APP_Address);\n\n        // RCLR_Address = STOR.resolveContractAddress(\"RCLR\");\n        // RCLR = RCLR_Interface(RCLR_Address);\n\n        // APP_NC_Address = STOR.resolveContractAddress(\"APP_NC\");\n        // APP_NC = APP_NC_Interface(APP_NC_Address);\n\n        DAO_STOR_Address = STOR.resolveContractAddress(\"DAO_STOR\");\n        DAO_STOR = DAO_STOR_Interface(DAO_STOR_Address);\n\n        CLOCK_Address = STOR.resolveContractAddress(\"CLOCK\");\n        CLOCK = CLOCK_Interface(CLOCK_Address);\n    }\n\n    //---------------------------------UD_721\n\n    /**\n     * @dev Set address of STOR contract to interface with\n     * @param _erc721Address address of token contract to interface with\n     * @param _UD_721ContractAddress address of UD_721 contract\n     */\n    function DAO_setUnstoppableDomainsTokenContract(\n        address _erc721Address,\n        address _UD_721ContractAddress\n    ) external virtual nonReentrant {\n        verifySig(\n            abi.encode(\n                \"DAO_setUnstoppableDomainsTokenContract\",\n                address(this),\n                _erc721Address,\n                _UD_721ContractAddress\n            )\n        );\n        //^^^^^^^checks^^^^^^^^^\n\n        UD_721_Interface(_UD_721ContractAddress)\n            .setUnstoppableDomainsTokenContract(_erc721Address);\n        //^^^^^^^interactions^^^^^^^^^\n    }\n\n    //---------------------------------EO_STAKING\n\n    /**\n     * @dev Setter for setting fractions of a day for minimum interval\n     * @param _minUpgradeInterval in seconds\n     * @param _EO_STAKING_Address address of EO_STAKING contract\n     */\n    function DAO_setMinimumPeriod(\n        uint256 _minUpgradeInterval,\n        address _EO_STAKING_Address\n    ) external nonReentrant {\n        verifySig(\n            abi.encode(\n                \"DAO_setMinimumPeriod\",\n                address(this),\n                _minUpgradeInterval,\n                _EO_STAKING_Address\n            )\n        );\n        //^^^^^^^checks^^^^^^^^^\n\n        EO_STAKING_Interface(_EO_STAKING_Address).setMinimumPeriod(\n            _minUpgradeInterval\n        );\n        //^^^^^^^interactions^^^^^^^^^\n    }\n\n    /**\n     * @dev Kill switch for staking reward earning\n     * @param _delay delay in seconds to end stake earning\n     * @param _EO_STAKING_Address address of EO_STAKING contract\n     */\n    function DAO_endStaking(uint256 _delay, address _EO_STAKING_Address)\n        external\n        nonReentrant\n    {\n        verifySig(\n            abi.encode(\n                \"DAO_endStaking\",\n                address(this),\n                _delay,\n                _EO_STAKING_Address\n            )\n        );\n        //^^^^^^^checks^^^^^^^^^\n\n        EO_STAKING_Interface(_EO_STAKING_Address).endStaking(_delay);\n        //^^^^^^^interactions^^^^^^^^^\n    }\n\n    /**\n     * @dev Set address of contracts to interface with\n     * @param _utilAddress address of UTIL_TKN(PRUF)\n     * @param _stakeAddress address of STAKE_TKN\n     * @param _stakeVaultAddress address of STAKE_VAULT\n     * @param _rewardsVaultAddress address of REWARDS_VAULT\n     * @param _EO_STAKING_Address address of EO_STAKING contract\n     */\n    function DAO_setTokenContractsEO(\n        address _utilAddress,\n        address _stakeAddress,\n        address _stakeVaultAddress,\n        address _rewardsVaultAddress,\n        address _EO_STAKING_Address\n    ) external nonReentrant {\n        verifySig(\n            abi.encode(\n                \"DAO_endStaking\",\n                address(this),\n                _utilAddress,\n                _stakeAddress,\n                _stakeVaultAddress,\n                _rewardsVaultAddress,\n                _EO_STAKING_Address\n            )\n        );\n        //^^^^^^^checks^^^^^^^^^\n\n        EO_STAKING_Interface(_EO_STAKING_Address).setTokenContracts(\n            _utilAddress,\n            _stakeAddress,\n            _stakeVaultAddress,\n            _rewardsVaultAddress\n        );\n        //^^^^^^^interactions^^^^^^^^^\n    }\n\n    /**\n     * @dev Set stake tier parameters\n     * @param _stakeTier Staking level to set\n     * @param _min Minumum stake\n     * @param _max Maximum stake\n     * @param _interval staking interval, in dayUnits - set to the number of days that the stake and reward interval will be based on.\n     * @param _bonusPercentage bonusPercentage in tenths of a percent: 15 = 1.5% or 15/1000 per interval. Calculated to a fixed amount of tokens in the actual stake\n     * @param _EO_STAKING_Address address of EO_STAKING contract\n     */\n    function DAO_setStakeLevels(\n        uint256 _stakeTier,\n        uint256 _min,\n        uint256 _max,\n        uint256 _interval,\n        uint256 _bonusPercentage,\n        address _EO_STAKING_Address\n    ) external nonReentrant {\n        verifySig(\n            abi.encode(\n                \"DAO_setStakeLevels\",\n                address(this),\n                _stakeTier,\n                _min,\n                _max,\n                _interval,\n                _bonusPercentage,\n                _EO_STAKING_Address\n            )\n        );\n        //^^^^^^^checks^^^^^^^^^\n\n        EO_STAKING_Interface(_EO_STAKING_Address).setStakeLevels(\n            _stakeTier,\n            _min,\n            _max,\n            _interval,\n            _bonusPercentage\n        );\n        //^^^^^^^interactions^^^^^^^^^\n    }\n\n    //---------------------------------REWARDS_VAULT and STAKE_VAULT //DPS:TEST works for both?\n\n    /**\n     * @dev Set address of contracts to interface with\n     * @param _utilAddress address of UTIL_TKN\n     * @param _stakeAddress address of STAKE_TKN\n     * @param vaultContractAddress address of REWARDS_VAULT or STAKE_VAULT contract\n     */\n    function DAO_setTokenContracts(\n        address _utilAddress,\n        address _stakeAddress,\n        address vaultContractAddress\n    ) external nonReentrant {\n        verifySig(\n            abi.encode(\n                \"DAO_setTokenContracts\",\n                address(this),\n                _utilAddress,\n                _stakeAddress,\n                vaultContractAddress\n            )\n        );\n        //^^^^^^^checks^^^^^^^^^\n\n        REWARDS_VAULT_Interface(vaultContractAddress).setTokenContracts(\n            _utilAddress,\n            _stakeAddress\n        );\n        //^^^^^^^interactions^^^^^^^^^\n    }\n\n    //-----------------INTERNAL FUNCTIONS\n    /**\n     * @dev Makes signature hash and verifies against DAO_STOR\n     * @param _sigArray signature of call to approve\n     */\n    function verifySig(bytes memory _sigArray) internal {\n        DAO_STOR.verifyResolution(\n            keccak256(\n                abi.encode(keccak256(_sigArray), CLOCK.thisEpoch())\n            ),\n            _msgSender()\n        );\n    }\n\n    /**\n     * @dev name resolver\n     * @param _name name to resolve\n     * returns address of (contract name)\n     */\n    function resolveName(string calldata _name) public view returns (address) {\n        return STOR.resolveContractAddress(_name);\n        //^^^^^^^interactions^^^^^^^^^\n    }\n}\n",
  "sourcePath": "/Users/drake/Documents/DEV/PRUF/PRUF_TRUFFLE/contracts/ReleaseCandidates/PRUF_DAO_LAYER_B.sol",
  "compiler": {
    "name": "solc",
    "version": "0.8.7+commit.e28d00a7.Emscripten.clang"
  },
  "schemaVersion": "3.4.3",
  "updatedAt": "2022-04-27T15:21:40.266Z",
  "devdoc": {
    "kind": "dev",
    "methods": {
      "DAO_endStaking(uint256,address)": {
        "details": "Kill switch for staking reward earning",
        "params": {
          "_EO_STAKING_Address": "address of EO_STAKING contract",
          "_delay": "delay in seconds to end stake earning"
        }
      },
      "DAO_setMinimumPeriod(uint256,address)": {
        "details": "Setter for setting fractions of a day for minimum interval",
        "params": {
          "_EO_STAKING_Address": "address of EO_STAKING contract",
          "_minUpgradeInterval": "in seconds"
        }
      },
      "DAO_setStakeLevels(uint256,uint256,uint256,uint256,uint256,address)": {
        "details": "Set stake tier parameters",
        "params": {
          "_EO_STAKING_Address": "address of EO_STAKING contract",
          "_bonusPercentage": "bonusPercentage in tenths of a percent: 15 = 1.5% or 15/1000 per interval. Calculated to a fixed amount of tokens in the actual stake",
          "_interval": "staking interval, in dayUnits - set to the number of days that the stake and reward interval will be based on.",
          "_max": "Maximum stake",
          "_min": "Minumum stake",
          "_stakeTier": "Staking level to set"
        }
      },
      "DAO_setTokenContracts(address,address,address)": {
        "details": "Set address of contracts to interface with",
        "params": {
          "_stakeAddress": "address of STAKE_TKN",
          "_utilAddress": "address of UTIL_TKN",
          "vaultContractAddress": "address of REWARDS_VAULT or STAKE_VAULT contract"
        }
      },
      "DAO_setTokenContractsEO(address,address,address,address,address)": {
        "details": "Set address of contracts to interface with",
        "params": {
          "_EO_STAKING_Address": "address of EO_STAKING contract",
          "_rewardsVaultAddress": "address of REWARDS_VAULT",
          "_stakeAddress": "address of STAKE_TKN",
          "_stakeVaultAddress": "address of STAKE_VAULT",
          "_utilAddress": "address of UTIL_TKN(PRUF)"
        }
      },
      "DAO_setUnstoppableDomainsTokenContract(address,address)": {
        "details": "Set address of STOR contract to interface with",
        "params": {
          "_UD_721ContractAddress": "address of UD_721 contract",
          "_erc721Address": "address of token contract to interface with"
        }
      },
      "ERC20Transfer(address,address,uint256)": {
        "details": "send an ERC20 token from this contract",
        "params": {
          "_amount": "amount to transfer",
          "_to": "destination",
          "_tokenContract": "Address of foreign token contract"
        }
      },
      "ERC721Transfer(address,address,uint256)": {
        "details": "send an ERC721 token from this contract",
        "params": {
          "_to": "destination",
          "_tokenContract": "Address of foreign token contract",
          "_tokenID": "Token ID"
        }
      },
      "getRoleAdmin(bytes32)": {
        "details": "Returns the admin role that controls `role`. See {grantRole} and {revokeRole}. To change a role's admin, use {_setRoleAdmin}."
      },
      "grantRole(bytes32,address)": {
        "details": "Grants `role` to `account`. If `account` had not been already granted `role`, emits a {RoleGranted} event. Requirements: - the caller must have ``role``'s admin role."
      },
      "hasRole(bytes32,address)": {
        "details": "Returns `true` if `account` has been granted `role`."
      },
      "onERC721Received(address,address,uint256,bytes)": {
        "details": "Compliance for erc721 reciever See OZ documentation"
      },
      "paused()": {
        "details": "Returns true if the contract is paused, and false otherwise."
      },
      "renounceRole(bytes32,address)": {
        "details": "Revokes `role` from the calling account. Roles are often managed via {grantRole} and {revokeRole}: this function's purpose is to provide a mechanism for accounts to lose their privileges if they are compromised (such as when a trusted device is misplaced). If the calling account had been granted `role`, emits a {RoleRevoked} event. Requirements: - the caller must be `account`."
      },
      "resolveContractAddresses()": {
        "details": "Resolve contract addresses from STOR"
      },
      "resolveName(string)": {
        "details": "name resolver",
        "params": {
          "_name": "name to resolve returns address of (contract name)"
        }
      },
      "revokeRole(bytes32,address)": {
        "details": "Revokes `role` from `account`. If `account` had been granted `role`, emits a {RoleRevoked} event. Requirements: - the caller must have ``role``'s admin role."
      },
      "setStorageContract(address)": {
        "details": "Set address of STOR contract to interface with",
        "params": {
          "_storageAddress": "address of PRUF_STOR"
        }
      },
      "supportsInterface(bytes4)": {
        "details": "See {IERC165-supportsInterface}."
      }
    },
    "version": 1
  },
  "userdoc": {
    "kind": "user",
    "methods": {},
    "version": 1
  }
}