{
  "contractName": "DAO_STOR",
  "abi": [
    {
      "anonymous": false,
      "inputs": [
        {
          "indexed": false,
          "internalType": "address",
          "name": "account",
          "type": "address"
        }
      ],
      "name": "Paused",
      "type": "event"
    },
    {
      "anonymous": false,
      "inputs": [
        {
          "indexed": false,
          "internalType": "bytes32",
          "name": "_motion",
          "type": "bytes32"
        },
        {
          "indexed": false,
          "internalType": "string",
          "name": "_msg",
          "type": "string"
        }
      ],
      "name": "REPORT",
      "type": "event"
    },
    {
      "anonymous": false,
      "inputs": [
        {
          "indexed": false,
          "internalType": "string",
          "name": "_msg",
          "type": "string"
        }
      ],
      "name": "REPORT",
      "type": "event"
    },
    {
      "anonymous": false,
      "inputs": [
        {
          "indexed": true,
          "internalType": "bytes32",
          "name": "role",
          "type": "bytes32"
        },
        {
          "indexed": true,
          "internalType": "bytes32",
          "name": "previousAdminRole",
          "type": "bytes32"
        },
        {
          "indexed": true,
          "internalType": "bytes32",
          "name": "newAdminRole",
          "type": "bytes32"
        }
      ],
      "name": "RoleAdminChanged",
      "type": "event"
    },
    {
      "anonymous": false,
      "inputs": [
        {
          "indexed": true,
          "internalType": "bytes32",
          "name": "role",
          "type": "bytes32"
        },
        {
          "indexed": true,
          "internalType": "address",
          "name": "account",
          "type": "address"
        },
        {
          "indexed": true,
          "internalType": "address",
          "name": "sender",
          "type": "address"
        }
      ],
      "name": "RoleGranted",
      "type": "event"
    },
    {
      "anonymous": false,
      "inputs": [
        {
          "indexed": true,
          "internalType": "bytes32",
          "name": "role",
          "type": "bytes32"
        },
        {
          "indexed": true,
          "internalType": "address",
          "name": "account",
          "type": "address"
        },
        {
          "indexed": true,
          "internalType": "address",
          "name": "sender",
          "type": "address"
        }
      ],
      "name": "RoleRevoked",
      "type": "event"
    },
    {
      "anonymous": false,
      "inputs": [
        {
          "indexed": false,
          "internalType": "address",
          "name": "account",
          "type": "address"
        }
      ],
      "name": "Unpaused",
      "type": "event"
    },
    {
      "anonymous": false,
      "inputs": [
        {
          "indexed": false,
          "internalType": "bytes32",
          "name": "_motion",
          "type": "bytes32"
        },
        {
          "indexed": false,
          "internalType": "uint32",
          "name": "_vote",
          "type": "uint32"
        },
        {
          "indexed": false,
          "internalType": "uint8",
          "name": "_yn",
          "type": "uint8"
        },
        {
          "indexed": false,
          "internalType": "string",
          "name": "_msg",
          "type": "string"
        }
      ],
      "name": "VOTE",
      "type": "event"
    },
    {
      "inputs": [],
      "name": "ASSET_TXFR_ROLE",
      "outputs": [
        {
          "internalType": "bytes32",
          "name": "",
          "type": "bytes32"
        }
      ],
      "stateMutability": "view",
      "type": "function"
    },
    {
      "inputs": [],
      "name": "CONTRACT_ADMIN_ROLE",
      "outputs": [
        {
          "internalType": "bytes32",
          "name": "",
          "type": "bytes32"
        }
      ],
      "stateMutability": "view",
      "type": "function"
    },
    {
      "inputs": [],
      "name": "DAO_ADMIN_ROLE",
      "outputs": [
        {
          "internalType": "bytes32",
          "name": "",
          "type": "bytes32"
        }
      ],
      "stateMutability": "view",
      "type": "function"
    },
    {
      "inputs": [],
      "name": "DAO_LAYER_ROLE",
      "outputs": [
        {
          "internalType": "bytes32",
          "name": "",
          "type": "bytes32"
        }
      ],
      "stateMutability": "view",
      "type": "function"
    },
    {
      "inputs": [],
      "name": "DAO_ROLE",
      "outputs": [
        {
          "internalType": "bytes32",
          "name": "",
          "type": "bytes32"
        }
      ],
      "stateMutability": "view",
      "type": "function"
    },
    {
      "inputs": [],
      "name": "DEFAULT_ADMIN_ROLE",
      "outputs": [
        {
          "internalType": "bytes32",
          "name": "",
          "type": "bytes32"
        }
      ],
      "stateMutability": "view",
      "type": "function"
    },
    {
      "inputs": [
        {
          "internalType": "address",
          "name": "_tokenContract",
          "type": "address"
        },
        {
          "internalType": "address",
          "name": "_to",
          "type": "address"
        },
        {
          "internalType": "uint256",
          "name": "_amount",
          "type": "uint256"
        }
      ],
      "name": "ERC20Transfer",
      "outputs": [],
      "stateMutability": "nonpayable",
      "type": "function"
    },
    {
      "inputs": [
        {
          "internalType": "address",
          "name": "_tokenContract",
          "type": "address"
        },
        {
          "internalType": "address",
          "name": "_to",
          "type": "address"
        },
        {
          "internalType": "uint256",
          "name": "_tokenID",
          "type": "uint256"
        }
      ],
      "name": "ERC721Transfer",
      "outputs": [],
      "stateMutability": "nonpayable",
      "type": "function"
    },
    {
      "inputs": [],
      "name": "PAUSER_ROLE",
      "outputs": [
        {
          "internalType": "bytes32",
          "name": "",
          "type": "bytes32"
        }
      ],
      "stateMutability": "view",
      "type": "function"
    },
    {
      "inputs": [
        {
          "internalType": "bytes32",
          "name": "role",
          "type": "bytes32"
        }
      ],
      "name": "getRoleAdmin",
      "outputs": [
        {
          "internalType": "bytes32",
          "name": "",
          "type": "bytes32"
        }
      ],
      "stateMutability": "view",
      "type": "function"
    },
    {
      "inputs": [
        {
          "internalType": "bytes32",
          "name": "role",
          "type": "bytes32"
        },
        {
          "internalType": "address",
          "name": "account",
          "type": "address"
        }
      ],
      "name": "grantRole",
      "outputs": [],
      "stateMutability": "nonpayable",
      "type": "function"
    },
    {
      "inputs": [
        {
          "internalType": "bytes32",
          "name": "role",
          "type": "bytes32"
        },
        {
          "internalType": "address",
          "name": "account",
          "type": "address"
        }
      ],
      "name": "hasRole",
      "outputs": [
        {
          "internalType": "bool",
          "name": "",
          "type": "bool"
        }
      ],
      "stateMutability": "view",
      "type": "function"
    },
    {
      "inputs": [],
      "name": "maximumVote",
      "outputs": [
        {
          "internalType": "uint32",
          "name": "",
          "type": "uint32"
        }
      ],
      "stateMutability": "view",
      "type": "function"
    },
    {
      "inputs": [
        {
          "internalType": "address",
          "name": "",
          "type": "address"
        },
        {
          "internalType": "address",
          "name": "",
          "type": "address"
        },
        {
          "internalType": "uint256",
          "name": "",
          "type": "uint256"
        },
        {
          "internalType": "bytes",
          "name": "",
          "type": "bytes"
        }
      ],
      "name": "onERC721Received",
      "outputs": [
        {
          "internalType": "bytes4",
          "name": "",
          "type": "bytes4"
        }
      ],
      "stateMutability": "nonpayable",
      "type": "function"
    },
    {
      "inputs": [],
      "name": "passingMargin",
      "outputs": [
        {
          "internalType": "uint32",
          "name": "",
          "type": "uint32"
        }
      ],
      "stateMutability": "view",
      "type": "function"
    },
    {
      "inputs": [],
      "name": "pause",
      "outputs": [],
      "stateMutability": "nonpayable",
      "type": "function"
    },
    {
      "inputs": [],
      "name": "paused",
      "outputs": [
        {
          "internalType": "bool",
          "name": "",
          "type": "bool"
        }
      ],
      "stateMutability": "view",
      "type": "function"
    },
    {
      "inputs": [],
      "name": "quorum",
      "outputs": [
        {
          "internalType": "uint32",
          "name": "",
          "type": "uint32"
        }
      ],
      "stateMutability": "view",
      "type": "function"
    },
    {
      "inputs": [
        {
          "internalType": "bytes32",
          "name": "role",
          "type": "bytes32"
        },
        {
          "internalType": "address",
          "name": "account",
          "type": "address"
        }
      ],
      "name": "renounceRole",
      "outputs": [],
      "stateMutability": "nonpayable",
      "type": "function"
    },
    {
      "inputs": [
        {
          "internalType": "bytes32",
          "name": "role",
          "type": "bytes32"
        },
        {
          "internalType": "address",
          "name": "account",
          "type": "address"
        }
      ],
      "name": "revokeRole",
      "outputs": [],
      "stateMutability": "nonpayable",
      "type": "function"
    },
    {
      "inputs": [
        {
          "internalType": "address",
          "name": "_storageAddress",
          "type": "address"
        }
      ],
      "name": "setStorageContract",
      "outputs": [],
      "stateMutability": "nonpayable",
      "type": "function"
    },
    {
      "inputs": [
        {
          "internalType": "bytes4",
          "name": "interfaceId",
          "type": "bytes4"
        }
      ],
      "name": "supportsInterface",
      "outputs": [
        {
          "internalType": "bool",
          "name": "",
          "type": "bool"
        }
      ],
      "stateMutability": "view",
      "type": "function"
    },
    {
      "inputs": [],
      "name": "unpause",
      "outputs": [],
      "stateMutability": "nonpayable",
      "type": "function"
    },
    {
      "inputs": [
        {
          "internalType": "uint32",
          "name": "_quorum",
          "type": "uint32"
        }
      ],
      "name": "setQuorum",
      "outputs": [],
      "stateMutability": "nonpayable",
      "type": "function"
    },
    {
      "inputs": [
        {
          "internalType": "uint32",
          "name": "_passingMargin",
          "type": "uint32"
        }
      ],
      "name": "setPassingMargin",
      "outputs": [],
      "stateMutability": "nonpayable",
      "type": "function"
    },
    {
      "inputs": [
        {
          "internalType": "uint32",
          "name": "_max",
          "type": "uint32"
        }
      ],
      "name": "setMaxVote",
      "outputs": [],
      "stateMutability": "nonpayable",
      "type": "function"
    },
    {
      "inputs": [],
      "name": "resolveContractAddresses",
      "outputs": [],
      "stateMutability": "nonpayable",
      "type": "function"
    },
    {
      "inputs": [
        {
          "internalType": "bytes32",
          "name": "_motion",
          "type": "bytes32"
        },
        {
          "internalType": "address",
          "name": "_proposer",
          "type": "address"
        }
      ],
      "name": "adminCreateMotion",
      "outputs": [
        {
          "internalType": "bytes32",
          "name": "",
          "type": "bytes32"
        }
      ],
      "stateMutability": "nonpayable",
      "type": "function"
    },
    {
      "inputs": [
        {
          "internalType": "bytes32",
          "name": "_motion",
          "type": "bytes32"
        }
      ],
      "name": "adminVeto",
      "outputs": [],
      "stateMutability": "nonpayable",
      "type": "function"
    },
    {
      "inputs": [
        {
          "internalType": "bytes32",
          "name": "_motion",
          "type": "bytes32"
        },
        {
          "internalType": "uint32",
          "name": "_node",
          "type": "uint32"
        },
        {
          "internalType": "uint32",
          "name": "_votes",
          "type": "uint32"
        },
        {
          "internalType": "uint8",
          "name": "_yn",
          "type": "uint8"
        },
        {
          "internalType": "address",
          "name": "_voter",
          "type": "address"
        }
      ],
      "name": "adminVote",
      "outputs": [],
      "stateMutability": "nonpayable",
      "type": "function"
    },
    {
      "inputs": [
        {
          "internalType": "bytes32",
          "name": "_motion",
          "type": "bytes32"
        },
        {
          "internalType": "address",
          "name": "_caller",
          "type": "address"
        }
      ],
      "name": "verifyResolution",
      "outputs": [],
      "stateMutability": "nonpayable",
      "type": "function"
    },
    {
      "inputs": [
        {
          "internalType": "uint256",
          "name": "_motionIndex",
          "type": "uint256"
        }
      ],
      "name": "getMotionByIndex",
      "outputs": [
        {
          "internalType": "bytes32",
          "name": "",
          "type": "bytes32"
        }
      ],
      "stateMutability": "view",
      "type": "function"
    },
    {
      "inputs": [
        {
          "internalType": "bytes32",
          "name": "_motion",
          "type": "bytes32"
        }
      ],
      "name": "getMotionData",
      "outputs": [
        {
          "internalType": "address",
          "name": "",
          "type": "address"
        },
        {
          "internalType": "uint32",
          "name": "",
          "type": "uint32"
        },
        {
          "internalType": "uint32",
          "name": "",
          "type": "uint32"
        },
        {
          "internalType": "uint32",
          "name": "",
          "type": "uint32"
        },
        {
          "internalType": "uint256",
          "name": "",
          "type": "uint256"
        }
      ],
      "stateMutability": "view",
      "type": "function"
    },
    {
      "inputs": [
        {
          "internalType": "bytes32",
          "name": "_motion",
          "type": "bytes32"
        }
      ],
      "name": "getMotionDataStruct",
      "outputs": [
        {
          "components": [
            {
              "internalType": "address",
              "name": "proposer",
              "type": "address"
            },
            {
              "internalType": "uint32",
              "name": "votesFor",
              "type": "uint32"
            },
            {
              "internalType": "uint32",
              "name": "votesAgainst",
              "type": "uint32"
            },
            {
              "internalType": "uint32",
              "name": "voterCount",
              "type": "uint32"
            },
            {
              "internalType": "uint256",
              "name": "votingEpoch",
              "type": "uint256"
            }
          ],
          "internalType": "struct Motion",
          "name": "",
          "type": "tuple"
        }
      ],
      "stateMutability": "view",
      "type": "function"
    },
    {
      "inputs": [
        {
          "internalType": "uint256",
          "name": "_epoch",
          "type": "uint256"
        },
        {
          "internalType": "uint32",
          "name": "_node",
          "type": "uint32"
        }
      ],
      "name": "getNodeActivityByEpoch",
      "outputs": [
        {
          "internalType": "uint256",
          "name": "",
          "type": "uint256"
        }
      ],
      "stateMutability": "view",
      "type": "function"
    },
    {
      "inputs": [
        {
          "internalType": "bytes32",
          "name": "_motion",
          "type": "bytes32"
        },
        {
          "internalType": "uint32",
          "name": "_node",
          "type": "uint32"
        }
      ],
      "name": "getNodeVotingHistory",
      "outputs": [
        {
          "components": [
            {
              "internalType": "uint32",
              "name": "votes",
              "type": "uint32"
            },
            {
              "internalType": "uint8",
              "name": "yn",
              "type": "uint8"
            }
          ],
          "internalType": "struct Votes",
          "name": "",
          "type": "tuple"
        }
      ],
      "stateMutability": "view",
      "type": "function"
    }
  ],
  "bytecode": "0x6080604052601580546001600160a01b03167e0186a00000003c0000000500000000000000000000000000000000000000001790553480156200004157600080fd5b50600160009081556002805460ff191690556200005f9033620000bd565b6200008b7f2ce8d04a9c35987429af538825cd2438cc5c5bb5dc427955f84daaa3ea10501633620000bd565b620000b77f65d7a28e3265b37a6474929f336521b332c1681b933f6cb9f3376673440d862a33620000bd565b62000155565b620000c98282620000cd565b5050565b60008281526001602090815260408083206001600160a01b038516845290915290205460ff16620000c95760008281526001602081815260408084206001600160a01b0386168086529252808420805460ff19169093179092559051339285917f2f8788117e7eff1d82e926ec794901d17c78024a50270940304540a733656f0d9190a45050565b612c6e80620001656000396000f3fe608060405234801561001057600080fd5b506004361061021c5760003560e01c8063846ddece11610125578063d14dd2f2116100ad578063e59fdd361161007c578063e59fdd3614610722578063e5f815dc14610735578063e63ab1e914610748578063e9c265181461076f578063ee9c25c51461079657600080fd5b8063d14dd2f2146106d4578063d547741f146106e9578063dc38b0a2146106fc578063e329fed71461070f57600080fd5b80639a5c1de2116100f45780639a5c1de214610524578063a217fddf146105ad578063a388a2d9146105b5578063c21f6142146105c8578063cef0f34d146105db57600080fd5b8063846ddece146104b357806391d14854146104e757806394ba21b0146104fa57806398a3148e1461050d57600080fd5b806336568abe116101a85780636d487895116101775780636d4878951461044c5780636f463d7b1461046c5780637a74dd30146104815780637e314461146104985780638456cb59146104ab57600080fd5b806336568abe146103685780633f4ba83a1461037b578063598fd10b146103835780635c975abb1461044157600080fd5b80631703a018116101ef5780631703a018146102cb57806319ac0909146102f75780631da033121461030a578063248a9ca3146103315780632f2ff15d1461035557600080fd5b806301ffc9a7146102215780630b85597c146102495780631429db5f1461025e578063150b7a0214610293575b600080fd5b61023461022f36600461276b565b61079e565b60405190151581526020015b60405180910390f35b61025c610257366004612701565b6107d5565b005b6102857f7f1e4e9f3d9ba0452a25cfef4cd4c6ffc86158d06ed2f585fa0093e12dec429c81565b604051908152602001610240565b6102b26102a13660046125cb565b630a85bd0160e11b95945050505050565b6040516001600160e01b03199091168152602001610240565b6015546102e290600160a01b900463ffffffff1681565b60405163ffffffff9091168152602001610240565b6102856103053660046126a5565b610d59565b6102857f2ce8d04a9c35987429af538825cd2438cc5c5bb5dc427955f84daaa3ea10501681565b61028561033f36600461268c565b6000908152600160208190526040909120015490565b61025c6103633660046126a5565b61104a565b61025c6103763660046126a5565b611076565b61025c6110f4565b61040361039136600461268c565b600090815260196020908152604091829020825160a08101845281546001600160a01b03811680835263ffffffff600160a01b83048116958401869052600160c01b83048116968401879052600160e01b90920490911660608301819052600190930154608090920182905294929392565b604080516001600160a01b03909616865263ffffffff948516602087015292841692850192909252919091166060830152608082015260a001610240565b60025460ff16610234565b61028561045a36600461268c565b6000908152601c602052604090205490565b610285600080516020612c1983398151915281565b6015546102e290600160e01b900463ffffffff1681565b61025c6104a63660046126a5565b611144565b61025c611609565b6102856104c13660046126d5565b6000918252601b6020908152604080842063ffffffff9384168552909152909120541690565b6102346104f53660046126a5565b611657565b61025c6105083660046127dc565b611682565b6015546102e290600160c01b900463ffffffff1681565b6105896105323660046126d5565b6040805180820190915260008082526020820152506000918252601a6020908152604080842063ffffffff9384168552825292839020835180850190945254918216835264010000000090910460ff169082015290565b60408051825163ffffffff16815260209283015160ff169281019290925201610240565b610285600081565b61025c6105c33660046127dc565b611756565b61025c6105d636600461268c565b611886565b61067e6105e936600461268c565b6040805160a08101825260008082526020820181905291810182905260608101829052608081019190915250600090815260196020908152604091829020825160a08101845281546001600160a01b038116825263ffffffff600160a01b8204811694830194909452600160c01b8104841694820194909452600160e01b909304909116606083015260010154608082015290565b604051610240919081516001600160a01b0316815260208083015163ffffffff90811691830191909152604080840151821690830152606080840151909116908201526080918201519181019190915260a00190565b610285600080516020612bf983398151915281565b61025c6106f73660046126a5565b6119af565b61025c61070a366004612550565b6119d6565b61025c61071d3660046127dc565b611a89565b61025c61073036600461258a565b611c17565b61025c61074336600461258a565b611d18565b6102857f65d7a28e3265b37a6474929f336521b332c1681b933f6cb9f3376673440d862a81565b6102857f3b5d4cc60d3ec3516ee8ae083bd60934f6eb2a6c54b1229985c41bfb092b260381565b61025c611df8565b60006001600160e01b03198216637965db0b60e01b14806107cf57506301ffc9a760e01b6001600160e01b03198316145b92915050565b6107ed600080516020612bf983398151915233611657565b6108125760405162461bcd60e51b8152600401610809906128e6565b60405180910390fd5b600085815260196020526040902054600160a01b900463ffffffff166108905760405162461bcd60e51b815260206004820152602d60248201527f44414f5f53544f523a766f74653a4d6f74696f6e206e6f7420696e202770726f60448201526c706f736564272073746174757360981b6064820152608401610809565b600085815260196020908152604091829020600101546018548351630d9b1aaf60e11b8152935191936001600160a01b0390911692631b36355e92600480840193829003018186803b1580156108e557600080fd5b505afa1580156108f9573d6000803e3d6000fd5b505050506040513d601f19601f8201168201806040525081019061091d9190612795565b146109765760405162461bcd60e51b8152602060048201526024808201527f44414f5f53544f523a766f74653a566f74696e672077696e646f77206e6f742060448201526337b832b760e11b6064820152608401610809565b6000858152601a6020908152604080832063ffffffff80891685529252909120541615610a0b5760405162461bcd60e51b815260206004820152603960248201527f44414f5f53544f523a766f74653a4e6f64652068617320616c7265616479206360448201527f617374206120766f7465206f6e2074686973206d6f74696f6e000000000000006064820152608401610809565b60ff82161580610a1e57508160ff166001145b610a7e5760405162461bcd60e51b815260206004820152602b60248201527f44414f5f53544f523a766f74653a766f74652074797065206d7573742062652060448201526a31206f722030206f6e6c7960a81b6064820152608401610809565b601554839063ffffffff600160e01b90910481169082161115610aad5750601554600160e01b900463ffffffff165b60008681526019602052604090208054600160e01b900463ffffffff1690601c610ad683612b7a565b91906101000a81548163ffffffff021916908363ffffffff160217905550508260ff1660011415610b5e57600086815260196020526040902054610b28908290600160a01b900463ffffffff16612a6c565b6000878152601960205260409020805463ffffffff92909216600160a01b0263ffffffff60a01b19909216919091179055610bb7565b600086815260196020526040902054610b85908290600160c01b900463ffffffff16612a6c565b6000878152601960205260409020805463ffffffff92909216600160c01b0263ffffffff60c01b199092169190911790555b6000868152601a6020908152604080832063ffffffff808a168552908352818420805460ff8916640100000000810264ffffffffff19909216938b1693909317179055898452601d83528184206001600160a01b038088168652908452828520805460ff19169092179091556018548251630d9b1aaf60e11b81529251601b95949190921692631b36355e9260048281019392829003018186803b158015610c5e57600080fd5b505afa158015610c72573d6000803e3d6000fd5b505050506040513d601f19601f82011682018060405250810190610c969190612795565b81526020808201929092526040908101600090812063ffffffff808a168352935290812080549092169190610cca83612b7a565b82546101009290920a63ffffffff81810219909316918316021790915560408051898152918416602083015260ff861690820152608060608201819052600d908201526c159bdd1948149958dbdc991959609a1b60a08201527f164da33b95e17e96015a47e8472d312627dabbadc24e843d96a63b052f8af4f4915060c00160405180910390a1505050505050565b6000610d73600080516020612bf983398151915233611657565b610d8f5760405162461bcd60e51b8152600401610809906128e6565b600083601860009054906101000a90046001600160a01b03166001600160a01b0316631b36355e6040518163ffffffff1660e01b815260040160206040518083038186803b158015610de057600080fd5b505afa158015610df4573d6000803e3d6000fd5b505050506040513d601f19601f82011682018060405250810190610e189190612795565b610e23906002612a54565b60408051602081019390935282015260600160408051808303601f19018152918152815160209283012060008181526019909352912054909150600160a01b900463ffffffff1615610ee95760405162461bcd60e51b815260206004820152604360248201527f44414f5f53544f523a434d3a4d6f74696f6e20657869737473202d207761697460448201527f20666f72206f722066696e616c697a65206d6f74696f6e20696e2070726f677260648201526265737360e81b608482015260a401610809565b6000818152601960209081526040918290208054600160c01b600160a01b6001600160a01b038981166001600160c01b031990941693909317176001600160c01b0316179091556018548351630d9b1aaf60e11b81529351911692631b36355e926004808301939192829003018186803b158015610f6657600080fd5b505afa158015610f7a573d6000803e3d6000fd5b505050506040513d601f19601f82011682018060405250810190610f9e9190612795565b610fa9906001612a54565b600082815260196020908152604080832060010193909355601680548352601c90915291812083905581549190610fdf83612b5f565b91905055507f3bd055a23fc857834e2d69af9fa4545cd431f445cb5b131d98ac2b79c3d715ce8160405161103b918152604060208201819052600e908201526d135bdd1a5bdb8810dc99585d195960921b606082015260800190565b60405180910390a19392505050565b600082815260016020819052604090912001546110678133612150565b61107183836121b4565b505050565b6001600160a01b03811633146110e65760405162461bcd60e51b815260206004820152602f60248201527f416363657373436f6e74726f6c3a2063616e206f6e6c792072656e6f756e636560448201526e103937b632b9903337b91039b2b63360891b6064820152608401610809565b6110f0828261221f565b5050565b61111e7f65d7a28e3265b37a6474929f336521b332c1681b933f6cb9f3376673440d862a33611657565b61113a5760405162461bcd60e51b81526004016108099061297a565b611142612286565b565b61115c600080516020612c1983398151915233611657565b6111785760405162461bcd60e51b8152600401610809906129f7565b600082815260196020908152604091829020825160a08101845281546001600160a01b038116825263ffffffff600160a01b8204811694830194909452600160c01b8104841694820194909452600160e01b9093049091166060830152600190810154608083018190526111eb91612a54565b601860009054906101000a90046001600160a01b03166001600160a01b0316631b36355e6040518163ffffffff1660e01b815260040160206040518083038186803b15801561123957600080fd5b505afa15801561124d573d6000803e3d6000fd5b505050506040513d601f19601f820116820180604052508101906112719190612795565b146112d45760405162461bcd60e51b815260206004820152602d60248201527f44414f5f53544f523a56523a6d6f74696f6e206973206e6f742076616c69642060448201526c0d2dc40e8d0d2e640cae0dec6d609b1b6064820152608401610809565b80516001600160a01b031661135d5760405162461bcd60e51b815260206004820152604360248201527f44414f5f53544f523a56523a7265736f6c7574696f6e2068617320616c72656160448201527f6479206265656e20657865726369736564206f7220646f6573206e6f742065786064820152621a5cdd60ea1b608482015260a401610809565b806040015163ffffffff16816020015163ffffffff16116113de5760405162461bcd60e51b815260206004820152603560248201527f44414f5f53544f523a56523a737065636966696564206d6f74696f6e207761736044820152742072656a6563746564206279206d616a6f7269747960581b6064820152608401610809565b601554606082015163ffffffff600160a01b9092048216911610156114625760405162461bcd60e51b815260206004820152603460248201527f44414f5f53544f523a56523a737065636966696564206d6f74696f6e206661696044820152736c656420746f206761696e20612071756f72756d60601b6064820152608401610809565b6015546040820151602083015163ffffffff600160c01b90930483169261148c9281169116612a54565b60208301516114a29063ffffffff166064612ab6565b6114ac9190612a94565b101561152e5760405162461bcd60e51b8152602060048201526044602482018190527f44414f5f53544f523a56523a737065636966696564206d6f74696f6e20666169908201527f6c656420746f206761696e207265717569726564206d616a6f72697479206d616064820152633933b4b760e11b608482015260a401610809565b816001600160a01b031681600001516001600160a01b0316148061157757506000838152601d602090815260408083206001600160a01b038616845290915290205460ff166001145b6115e95760405162461bcd60e51b815260206004820152603760248201527f44414f5f53544f523a56523a43616c6c6572206e6f7420617574686f72697a6560448201527f6420746f2065786563757465207265736f6c7574696f6e0000000000000000006064820152608401610809565b5050600090815260196020526040902080546001600160a01b0319169055565b6116337f65d7a28e3265b37a6474929f336521b332c1681b933f6cb9f3376673440d862a33611657565b61164f5760405162461bcd60e51b81526004016108099061297a565b611142612319565b60009182526001602090815260408084206001600160a01b0393909316845291905290205460ff1690565b61169a600080516020612c1983398151915233611657565b6116b65760405162461bcd60e51b8152600401610809906129f7565b60328163ffffffff161180156116d2575060478163ffffffff16105b6117305760405162461bcd60e51b815260206004820152602960248201527f44414f5f53544f523a53504d3a50617373696e67206d617267696e206d75737460448201526802062652035312d37360bc1b6064820152608401610809565b6015805463ffffffff909216600160c01b0263ffffffff60c01b19909216919091179055565b61176e600080516020612c1983398151915233611657565b61178a5760405162461bcd60e51b8152600401610809906129f7565b6305f5e1008163ffffffff161080156117c957506015546117b990600160e01b900463ffffffff166002612ad5565b63ffffffff168163ffffffff1611155b6118615760405162461bcd60e51b815260206004820152605f60248201527f44414f5f53544f523a534d563a4d6178696d756d20766f74652063616e6e6f7460448201527f206265206d6f7265207468616e20313030206d696c6c696f6e206f72206d6f7260648201527f65207468616e207477696365207468652070726576696f75732076616c756500608482015260a401610809565b6015805463ffffffff909216600160e01b026001600160e01b03909216919091179055565b61189e600080516020612bf983398151915233611657565b6118ba5760405162461bcd60e51b8152600401610809906128e6565b600081815260196020526040902054600160a01b900463ffffffff166119385760405162461bcd60e51b815260206004820152602d60248201527f44414f5f53544f523a7665746f3a4d6f74696f6e206e6f7420696e202770726f60448201526c706f736564272073746174757360981b6064820152608401610809565b60008181526019602052604090819020805463ffffffff60a01b19169055517f3bd055a23fc857834e2d69af9fa4545cd431f445cb5b131d98ac2b79c3d715ce906119a4908381526040602082018190526006908201526515995d1bd95960d21b606082015260800190565b60405180910390a150565b600082815260016020819052604090912001546119cc8133612150565b611071838361221f565b611a007f2ce8d04a9c35987429af538825cd2438cc5c5bb5dc427955f84daaa3ea10501633611657565b611a1c5760405162461bcd60e51b81526004016108099061289f565b6001600160a01b038116611a675760405162461bcd60e51b81526020600482015260126024820152710423a5353433a2041646472657373203d20360741b6044820152606401610809565b600380546001600160a01b0319166001600160a01b0392909216919091179055565b611aa1600080516020612c1983398151915233611657565b611abd5760405162461bcd60e51b8152600401610809906129f7565b60055460408051630924e1d160e41b815290516000926001600160a01b03169163924e1d10916004808301926060929190829003018186803b158015611b0257600080fd5b505afa158015611b16573d6000803e3d6000fd5b505050506040513d601f19601f82011682018060405250810190611b3a91906127ae565b50909150611b4d9050620f424082612b01565b9050611b5a601482612a94565b611b6590600a612a54565b8263ffffffff1610611bf05760405162461bcd60e51b815260206004820152604860248201527f44414f5f53544f523a53513a70726f706f7365642051756f72756d203e20352560448201527f20282b313029206f662074686520696e646967656e6f7573206e6f646520706f606482015267383ab630ba34b7b760c11b608482015260a401610809565b506015805463ffffffff909216600160a01b0263ffffffff60a01b19909216919091179055565b611c417f7f1e4e9f3d9ba0452a25cfef4cd4c6ffc86158d06ed2f585fa0093e12dec429c33611657565b611c5d5760405162461bcd60e51b815260040161080990612937565b60026000541415611c805760405162461bcd60e51b8152600401610809906129c0565b60026000556040516323b872dd60e01b81523060048201526001600160a01b038381166024830152604482018390528416906323b872dd90606401602060405180830381600087803b158015611cd557600080fd5b505af1158015611ce9573d6000803e3d6000fd5b505050506040513d601f19601f82011682018060405250810190611d0d919061266a565b505060016000555050565b611d427f7f1e4e9f3d9ba0452a25cfef4cd4c6ffc86158d06ed2f585fa0093e12dec429c33611657565b611d5e5760405162461bcd60e51b815260040161080990612937565b60026000541415611d815760405162461bcd60e51b8152600401610809906129c0565b6002600055604051632142170760e11b81523060048201526001600160a01b038381166024830152604482018390528416906342842e0e90606401600060405180830381600087803b158015611dd657600080fd5b505af1158015611dea573d6000803e3d6000fd5b505060016000555050505050565b60026000541415611e1b5760405162461bcd60e51b8152600401610809906129c0565b6002600055611e4a7f2ce8d04a9c35987429af538825cd2438cc5c5bb5dc427955f84daaa3ea10501633611657565b611e665760405162461bcd60e51b81526004016108099061289f565b6003546040516363b8d4c160e11b81526020600482015260086024820152672727a222afaa25a760c11b60448201526001600160a01b039091169063c771a9829060640160206040518083038186803b158015611ec257600080fd5b505afa158015611ed6573d6000803e3d6000fd5b505050506040513d601f19601f82011682018060405250810190611efa919061256d565b600c80546001600160a01b039283166001600160a01b03199182168117909255600d805490911690911790556003546040516363b8d4c160e11b81526020600482015260086024820152672727a222afa6a3a960c11b604482015291169063c771a9829060640160206040518083038186803b158015611f7957600080fd5b505afa158015611f8d573d6000803e3d6000fd5b505050506040513d601f19601f82011682018060405250810190611fb1919061256d565b600480546001600160a01b039283166001600160a01b031991821681178355600580549092161790556003546040516363b8d4c160e11b815292169163c771a982916120179101602080825260059082015264434c4f434b60d81b604082015260600190565b60206040518083038186803b15801561202f57600080fd5b505afa158015612043573d6000803e3d6000fd5b505050506040513d601f19601f82011682018060405250810190612067919061256d565b601780546001600160a01b039283166001600160a01b031991821681179092556018805490911690911790556003546040516363b8d4c160e11b81526020600482015260086024820152672aaa24a62faa25a760c11b604482015291169063c771a9829060640160206040518083038186803b1580156120e657600080fd5b505afa1580156120fa573d6000803e3d6000fd5b505050506040513d601f19601f8201168201806040525081019061211e919061256d565b600880546001600160a01b03929092166001600160a01b03199283168117909155600980549092161790556001600055565b61215a8282611657565b6110f057612172816001600160a01b03166014612394565b61217d836020612394565b60405160200161218e9291906127f7565b60408051601f198184030181529082905262461bcd60e51b82526108099160040161286c565b6121be8282611657565b6110f05760008281526001602081815260408084206001600160a01b0386168086529252808420805460ff19169093179092559051339285917f2f8788117e7eff1d82e926ec794901d17c78024a50270940304540a733656f0d9190a45050565b6122298282611657565b156110f05760008281526001602090815260408083206001600160a01b0385168085529252808320805460ff1916905551339285917ff6391f5c32d9c69d2a47ea670b442974b53935d1edc7fd64eb21e047a839171b9190a45050565b60025460ff166122cf5760405162461bcd60e51b815260206004820152601460248201527314185d5cd8589b194e881b9bdd081c185d5cd95960621b6044820152606401610809565b6002805460ff191690557f5db9ee0a495bf2e6ff9c91a7834c1ba4fdd244a5e8aa4e537bd38aeae4b073aa335b6040516001600160a01b03909116815260200160405180910390a1565b60025460ff161561235f5760405162461bcd60e51b815260206004820152601060248201526f14185d5cd8589b194e881c185d5cd95960821b6044820152606401610809565b6002805460ff191660011790557f62e78cea01bee320cd4e420270b5ea74000d11b0c9f74754ebdbfc544b05a2586122fc3390565b606060006123a3836002612ab6565b6123ae906002612a54565b67ffffffffffffffff8111156123c6576123c6612bca565b6040519080825280601f01601f1916602001820160405280156123f0576020820181803683370190505b509050600360fc1b8160008151811061240b5761240b612bb4565b60200101906001600160f81b031916908160001a905350600f60fb1b8160018151811061243a5761243a612bb4565b60200101906001600160f81b031916908160001a905350600061245e846002612ab6565b612469906001612a54565b90505b60018111156124e1576f181899199a1a9b1b9c1cb0b131b232b360811b85600f166010811061249d5761249d612bb4565b1a60f81b8282815181106124b3576124b3612bb4565b60200101906001600160f81b031916908160001a90535060049490941c936124da81612b48565b905061246c565b5083156125305760405162461bcd60e51b815260206004820181905260248201527f537472696e67733a20686578206c656e67746820696e73756666696369656e746044820152606401610809565b9392505050565b803563ffffffff8116811461254b57600080fd5b919050565b60006020828403121561256257600080fd5b813561253081612be0565b60006020828403121561257f57600080fd5b815161253081612be0565b60008060006060848603121561259f57600080fd5b83356125aa81612be0565b925060208401356125ba81612be0565b929592945050506040919091013590565b6000806000806000608086880312156125e357600080fd5b85356125ee81612be0565b945060208601356125fe81612be0565b935060408601359250606086013567ffffffffffffffff8082111561262257600080fd5b818801915088601f83011261263657600080fd5b81358181111561264557600080fd5b89602082850101111561265757600080fd5b9699959850939650602001949392505050565b60006020828403121561267c57600080fd5b8151801515811461253057600080fd5b60006020828403121561269e57600080fd5b5035919050565b600080604083850312156126b857600080fd5b8235915060208301356126ca81612be0565b809150509250929050565b600080604083850312156126e857600080fd5b823591506126f860208401612537565b90509250929050565b600080600080600060a0868803121561271957600080fd5b8535945061272960208701612537565b935061273760408701612537565b9250606086013560ff8116811461274d57600080fd5b9150608086013561275d81612be0565b809150509295509295909350565b60006020828403121561277d57600080fd5b81356001600160e01b03198116811461253057600080fd5b6000602082840312156127a757600080fd5b5051919050565b6000806000606084860312156127c357600080fd5b8351925060208401519150604084015190509250925092565b6000602082840312156127ee57600080fd5b61253082612537565b7f416363657373436f6e74726f6c3a206163636f756e742000000000000000000081526000835161282f816017850160208801612b18565b7001034b99036b4b9b9b4b733903937b6329607d1b6017918401918201528351612860816028840160208801612b18565b01602801949350505050565b602081526000825180602084015261288b816040850160208701612b18565b601f01601f19169190910160400192915050565b60208082526027908201527f423a4d4f443a2d4941444d2043616c6c65722021434f4e54524143545f41444d604082015266494e5f524f4c4560c81b606082015260800190565b60208082526031908201527f44414f5f53544f523a4d4f442d4944413a43616c6c696e6720616464726573736040820152701034b9903737ba102220a79030b236b4b760791b606082015260800190565b60208082526023908201527f423a4d4f443a2d4941444d2043616c6c6572202141535345545f545846525f526040820152624f4c4560e81b606082015260800190565b60208082526026908201527f423a4d4f442d49503a43616c6c696e672061646472657373206973206e6f74206040820152653830bab9b2b960d11b606082015260800190565b6020808252601f908201527f5265656e7472616e637947756172643a207265656e7472616e742063616c6c00604082015260600190565b6020808252603a908201527f44414f5f53544f523a4d4f442d49444c3a43616c6c696e67206164647265737360408201527f206973206e6f742044414f206c6179657220636f6e7472616374000000000000606082015260800190565b60008219821115612a6757612a67612b9e565b500190565b600063ffffffff808316818516808303821115612a8b57612a8b612b9e565b01949350505050565b600082612ab157634e487b7160e01b600052601260045260246000fd5b500490565b6000816000190483118215151615612ad057612ad0612b9e565b500290565b600063ffffffff80831681851681830481118215151615612af857612af8612b9e565b02949350505050565b600082821015612b1357612b13612b9e565b500390565b60005b83811015612b33578181015183820152602001612b1b565b83811115612b42576000848401525b50505050565b600081612b5757612b57612b9e565b506000190190565b6000600019821415612b7357612b73612b9e565b5060010190565b600063ffffffff80831681811415612b9457612b94612b9e565b6001019392505050565b634e487b7160e01b600052601160045260246000fd5b634e487b7160e01b600052603260045260246000fd5b634e487b7160e01b600052604160045260246000fd5b6001600160a01b0381168114612bf557600080fd5b5056fe9729b62c1a280a968a683045fd5bbd60b97be4a6b7b0a5b624c9bbc54d6f3b5948f3df1bfcc740c5060d41bfddc4d42366129f4ad23ca4ca16405d62de67a4d8a2646970667358221220180af794bc74bd31da4c391e104205eca70042b63134dcc702edc035f606e24f64736f6c63430008070033",
  "immutableReferences": {},
  "source": "/*--------------------------------------------------------PRF0.8.7\n__/\\\\\\\\\\\\\\\\\\\\\\\\\\ _____/\\\\\\\\\\\\\\\\\\ _______/\\\\__/\\\\ ___/\\\\\\\\\\\\\\\\\\\\\\\\\\\\\\        \n__\\/\\\\\\/////////\\\\\\ _/\\\\\\///////\\\\\\ ____\\//__\\//____\\/\\\\\\///////////__       \n___\\/\\\\\\_______\\/\\\\\\_\\/\\\\\\_____\\/\\\\\\ ________________\\/\\\\\\ ____________      \n____\\/\\\\\\\\\\\\\\\\\\\\\\\\\\/__\\/\\\\\\\\\\\\\\\\\\\\\\/_____/\\\\\\____/\\\\\\_\\/\\\\\\\\\\\\\\\\\\\\\\ ____     \n_____\\/\\\\\\/////////____\\/\\\\\\//////\\\\\\ ___\\/\\\\\\___\\/\\\\\\_\\/\\\\\\///////______\n______\\/\\\\\\ ____________\\/\\\\\\ ___\\//\\\\\\ __\\/\\\\\\___\\/\\\\\\_\\/\\\\\\ ____________\n_______\\/\\\\\\ ____________\\/\\\\\\ ____\\//\\\\\\ _\\/\\\\\\___\\/\\\\\\_\\/\\\\\\ ____________\n________\\/\\\\\\ ____________\\/\\\\\\ _____\\//\\\\\\_\\//\\\\\\\\\\\\\\\\\\ _\\/\\\\\\ ____________\n_________\\/// _____________\\/// _______\\/// __\\///////// __\\/// _____________\n*---------------------------------------------------------------------------*/\n\n/**-----------------------------------------------------------------\n * DAO Specification V0.01\n * DAO STATEFULNESS, ARCHIVAL STORAGE, AND INVIOLATE LOGIC\n * //DPS:TEST NEW CONTRACT\n *---------------------------------------------------------------*/\n\n// SPDX-License-Identifier: UNLICENSED\npragma solidity 0.8.7;\n\nimport \"../Resources/PRUF_CORE.sol\";\nimport \"../Resources/RESOURCE_PRUF_DAO_INTERFACES.sol\";\n\ncontract DAO_STOR is BASIC {\n    //SET THESE UNDER DAO CONTROL\n    uint32 public quorum = 5;\n    uint32 public passingMargin = 60; //in percent\n    uint32 public maximumVote = 100000; //max vote in whole PRUF staked (future implementation)\n\n    uint256 currentMotion;\n\n    //^^^^^^^^^^^^^^^^^^^^^^^^^^^^^^^^^^\n\n    bytes32 public constant DAO_ADMIN_ROLE = keccak256(\"DAO_ADMIN_ROLE\");\n    bytes32 public constant DAO_LAYER_ROLE = keccak256(\"DAO_LAYER_ROLE\");\n\n    address internal CLOCK_Address;\n    CLOCK_Interface internal CLOCK;\n\n    mapping(bytes32 => Motion) private motions; //motionSignature => motion data -- motion record\n    mapping(bytes32 => mapping(uint32 => Votes)) private nodeVoteHistory; //motionSignature => NodeId => vote -- node voting history by motion\n    mapping(uint256 => mapping(uint32 => uint32)) private votingActivity; //epoch => voterNodeId => votingOccurences -- node voting participation by epoch\n    mapping(uint256 => bytes32) private indexedMotions; //index =>  motions enumerated\n    mapping(bytes32 => mapping(address => uint8)) private yesVoters; //addresses that voted yes\n\n    event REPORT(bytes32 _motion, string _msg);\n    event VOTE(bytes32 _motion, uint32 _vote, uint8 _yn, string _msg);\n\n    /**\n     * @dev Verify user credentials\n     * Originating Address:\n     *      has DAO_ADMIN_ROLE\n     */\n    modifier isDAOadmin() {\n        require(\n            hasRole(DAO_ADMIN_ROLE, _msgSender()),\n            \"DAO_STOR:MOD-IDA:Calling address is not DAO admin\"\n        );\n        _;\n    }\n\n    /**\n     * @dev Verify user credentials\n     * Originating Address:\n     *      has DAO_LAYER_ROLE\n     */\n    modifier isDAOlayer() {\n        require(\n            hasRole(DAO_LAYER_ROLE, _msgSender()),\n            \"DAO_STOR:MOD-IDL:Calling address is not DAO layer contract\"\n        );\n        _;\n    }\n\n    /**\n     * @dev Default param setter\n     * @param _quorum new value for minimum required voters to create a quorum\n     */\n    function setQuorum(uint32 _quorum) external isDAOlayer {\n        uint256 mintedNodes;\n\n        (mintedNodes, , ) = NODE_MGR.currentNodePricingInfo();\n        mintedNodes = mintedNodes - 1000000; //nodes minted inside ecosystem start at ID 1000000\n\n        require(\n            _quorum < ((mintedNodes / 20) + 10), \n            \"DAO_STOR:SQ:proposed Quorum > 5% (+10) of the indigenous node population\"\n        );\n        //^^^^^^^checks^^^^^^^^^\n\n        quorum = _quorum;\n        //^^^^^^^effects^^^^^^^^^\n    }\n\n    /**\n     * @dev Default param setter\n     * @param _passingMargin new value for minimum required passing margin for votes, in whole percents\n     */\n    function setPassingMargin(uint32 _passingMargin) external isDAOlayer {\n        require(\n            (_passingMargin > 50) && (_passingMargin < 71), \n            \"DAO_STOR:SPM:Passing margin must be 51-70\"\n        );\n        //^^^^^^^checks^^^^^^^^^\n\n        passingMargin = _passingMargin;\n        //^^^^^^^effects^^^^^^^^^\n    }\n\n    /**\n     * @dev Default param setter\n     * @param _max new value for maximum votes per node\n     */\n    function setMaxVote(uint32 _max) external isDAOlayer {\n        require(\n            (_max < 100000000) && (_max <= (maximumVote * 2)),\n            \"DAO_STOR:SMV:Maximum vote cannot be more than 100 million or more than twice the previous value\"\n        );\n        //^^^^^^^checks^^^^^^^^^\n\n        maximumVote = _max;\n        //^^^^^^^effects^^^^^^^^^\n    }\n\n    /**\n     * @dev Resolve contract addresses from STOR\n     */\n    function resolveContractAddresses()\n        external\n        override\n        nonReentrant\n        isContractAdmin\n    {\n        //^^^^^^^checks^^^^^^^^^\n\n        NODE_TKN_Address = STOR.resolveContractAddress(\"NODE_TKN\");\n        NODE_TKN = NODE_TKN_Interface(NODE_TKN_Address);\n\n        NODE_MGR_Address = STOR.resolveContractAddress(\"NODE_MGR\");\n        NODE_MGR = NODE_MGR_Interface(NODE_MGR_Address);\n\n        CLOCK_Address = STOR.resolveContractAddress(\"CLOCK\");\n        CLOCK = CLOCK_Interface(CLOCK_Address);\n\n        UTIL_TKN_Address = STOR.resolveContractAddress(\"UTIL_TKN\");\n        UTIL_TKN = UTIL_TKN_Interface(UTIL_TKN_Address);\n        //^^^^^^^interactions^^^^^^^^^\n    }\n\n    /**\n     * @dev Crates an new Motion in the motions map\n     * Originating Address:\n     *      holds > .9_ pruf\n     * @param _motion the hash of the referring contract address, function name, and parmaeters\n     * @param _proposer proposing address\n     */\n    function adminCreateMotion(bytes32 _motion, address _proposer)\n        external\n        isDAOadmin\n        returns (bytes32)\n    {\n        bytes32 motion = keccak256(\n            abi.encode(_motion, (CLOCK.thisEpoch() + 2))\n        );\n        require(\n            motions[motion].votesFor == 0,\n            \"DAO_STOR:CM:Motion exists - wait for or finalize motion in progress\"\n        ); // Motion must not be currently proposed or approved\n\n        //^^^^^^^checks^^^^^^^^^\n\n        motions[motion].proposer = _proposer;\n        motions[motion].votesFor = 1; //put motion in proposed status...1 vote for and against\n        motions[motion].votesAgainst = 1; //put motion in proposed status...1 vote for and against\n        motions[motion].voterCount = 0; //initialize JIC is a repeat\n        motions[motion].votingEpoch = CLOCK.thisEpoch() + 1; //voting can start in one epoch\n\n        indexedMotions[currentMotion] = motion; //set enumaratable\n        currentMotion++; //increment enumeration for next motion\n        //^^^^^^^effects^^^^^^^^^\n\n        emit REPORT(motion, \"Motion Created\");\n        return (motion); //return the finished signature hash of the motion\n        //^^^^^^^interactions^^^^^^^^^\n    }\n\n    /**\n     * @dev Admin veto for incrementel transfer of power to the DAO---------CAUTION:CENTRALIZATION RISK\n     * @param _motion // propsed action to veto\n     */\n    function adminVeto(bytes32 _motion) external isDAOadmin {\n        require(\n            motions[_motion].votesFor != 0,\n            \"DAO_STOR:veto:Motion not in 'proposed' status\"\n        );\n        //^^^^^^^checks^^^^^^^^^\n\n        motions[_motion].votesFor = 0;\n        //^^^^^^^effects^^^^^^^^^\n\n        emit REPORT(_motion, \"Vetoed\");\n        //^^^^^^^interactions^^^^^^^^^\n    }\n\n    /**\n     * @dev DAO admin will be given to a trusted contract that allows nodes to cast their delegated votes---------CAUTION:CENTRALIZATION RISK\n     * @param _motion // propsed action\n     * @param _node // node doing the voting\n     * @param _votes //# of votes\n     * @param _yn // yeah (1) or neigh (0)\n     * @param _voter //voting address\n     */\n    function adminVote(\n        bytes32 _motion, // propsed action\n        uint32 _node, // node doing the voting\n        uint32 _votes, //# of votes\n        uint8 _yn, // yeah (1) or neigh (0)\n        address _voter //voting address\n    ) external isDAOadmin {\n        require(\n            motions[_motion].votesFor != 0,\n            \"DAO_STOR:vote:Motion not in 'proposed' status\"\n        );\n        require(\n            CLOCK.thisEpoch() == (motions[_motion].votingEpoch),\n            \"DAO_STOR:vote:Voting window not open\"\n        );\n        require(\n            nodeVoteHistory[_motion][_node].votes == 0,\n            \"DAO_STOR:vote:Node has already cast a vote on this motion\"\n        );\n        require(\n            (_yn == 0) || (_yn == 1),\n            \"DAO_STOR:vote:vote type must be 1 or 0 only\"\n        );\n        //^^^^^^^checks^^^^^^^^^\n\n        uint32 votes = _votes;\n        if (votes > maximumVote) {\n            votes = maximumVote;\n        } // truncate votes cast to maximumVote\n\n        motions[_motion].voterCount++; //increment counter of participating voters\n\n        if (_yn == 1) {\n            //cast votes for\n            motions[_motion].votesFor = motions[_motion].votesFor + votes;\n        } else {\n            //cast votes against\n            motions[_motion].votesAgainst =\n                motions[_motion].votesAgainst +\n                votes;\n        }\n\n        //store voting metrics\n        nodeVoteHistory[_motion][_node].votes = _votes;\n        nodeVoteHistory[_motion][_node].yn = _yn;\n        yesVoters[_motion][_voter] = _yn;\n        votingActivity[CLOCK.thisEpoch()][_node]++;\n        //^^^^^^^effects^^^^^^^^^\n\n        emit VOTE(_motion, votes, _yn, \"Vote Recorded\");\n        //^^^^^^^interactions^^^^^^^^^\n    }\n\n    /**\n     * @dev Throws if a resolution is not approved. clears the motion if successful, returning control to the calling contract\n     * @param _motion the motion hash to check\n     * @param _caller original calling address\n     * to be called by DAO_LAYER contracts as a check prior to executing functions\n     */\n    function verifyResolution(bytes32 _motion, address _caller)\n        external\n        isDAOlayer\n    {\n        Motion memory thisMotion = motions[_motion];\n\n        require(\n            CLOCK.thisEpoch() == thisMotion.votingEpoch + 1,\n            \"DAO_STOR:VR:motion is not valid in this epoch\"\n        );\n\n        require(\n            thisMotion.proposer != address(0),\n            \"DAO_STOR:VR:resolution has already been exercised or does not exist\"\n        );\n\n        require(\n            thisMotion.votesFor > thisMotion.votesAgainst,\n            \"DAO_STOR:VR:specified motion was rejected by majority\"\n        );\n\n        require(\n            thisMotion.voterCount >= quorum,\n            \"DAO_STOR:VR:specified motion failed to gain a quorum\"\n        );\n\n        require(\n            ((uint256(thisMotion.votesFor) * 100) /\n                (uint256(thisMotion.votesFor) +\n                    uint256(thisMotion.votesAgainst))) >= passingMargin,\n            \"DAO_STOR:VR:specified motion failed to gain required majority margin\"\n        );\n\n        require(\n            (thisMotion.proposer == _caller) ||\n                (yesVoters[_motion][_caller] == 1),\n            \"DAO_STOR:VR:Caller not authorized to execute resolution\"\n        );\n        //^^^^^^^checks^^^^^^^^^\n\n        motions[_motion].proposer = address(0); //mark as motion as exercised (cannot be reused)\n        //^^^^^^^effects^^^^^^^^^\n    }\n\n    /**\n     * @dev Getter for motions\n     * @param _motionIndex the index of the motion hash to get\n     * to be called by DAO_LAYER contracts as a check prior to executing functions\n     */\n    function getMotionByIndex(uint256 _motionIndex)\n        external\n        view\n        returns (bytes32)\n    {\n        //^^^^^^^checks^^^^^^^^^\n\n        return (indexedMotions[_motionIndex]);\n        //^^^^^^^interactions^^^^^^^^^\n    }\n\n    /**\n     * @dev Getter for motions\n     * @param _motion the motion hash to get\n     * to be called by DAO_LAYER contracts as a check prior to executing functions\n     */\n    function getMotionData(bytes32 _motion)\n        external\n        view\n        returns (\n            address,\n            uint32,\n            uint32,\n            uint32,\n            uint256\n        )\n    {\n        //^^^^^^^checks^^^^^^^^^\n\n        Motion memory motion = motions[_motion];\n        return (\n            motion.proposer,\n            motion.votesFor,\n            motion.votesAgainst,\n            motion.voterCount,\n            motion.votingEpoch\n        );\n        //^^^^^^^interactions^^^^^^^^^\n    }\n\n    /**\n     * @dev Getter for motions\n     * @param _motion the motion hash to get\n     * to be called by DAO_LAYER contracts as a check prior to executing functions\n     */\n    function getMotionDataStruct(bytes32 _motion)\n        external\n        view\n        returns (Motion memory)\n    {\n        //^^^^^^^checks^^^^^^^^^\n\n        return motions[_motion];\n        //^^^^^^^interactions^^^^^^^^^\n    }\n\n    /**\n     * @dev Getter for node voting participation\n     * @param _epoch the epoch to check\n     * @param _node the node to get voting activity for\n     * to be called by DAO_LAYER contracts as a check prior to executing functions\n     */\n    function getNodeActivityByEpoch(uint256 _epoch, uint32 _node)\n        external\n        view\n        returns (uint256)\n    {\n        //^^^^^^^checks^^^^^^^^^\n\n        return (uint256(votingActivity[_epoch][_node]));\n        //^^^^^^^interactions^^^^^^^^^\n    }\n\n    /**\n     * @dev Getter for vote history, by motion and node\n     * @param _motion the epoch to check\n     * @param _node the node to get voting activity for\n     * to be called by DAO_LAYER contracts as a check prior to executing functions\n     */\n    function getNodeVotingHistory(bytes32 _motion, uint32 _node)\n        public\n        view\n        returns (Votes memory)\n    {\n        //^^^^^^^checks^^^^^^^^^\n        return (nodeVoteHistory[_motion][_node]);\n        //^^^^^^^interactions^^^^^^^^^\n    }\n}\n",
  "sourcePath": "/Users/drake/Documents/DEV/PRUF/PRUF_TRUFFLE/contracts/ReleaseCandidates/PRUF_DAO_STOR.sol",
  "compiler": {
    "name": "solc",
    "version": "0.8.7+commit.e28d00a7.Emscripten.clang"
  },
  "schemaVersion": "3.4.3",
  "updatedAt": "2022-04-27T15:21:40.290Z",
  "devdoc": {
    "kind": "dev",
    "methods": {
      "ERC20Transfer(address,address,uint256)": {
        "details": "send an ERC20 token from this contract",
        "params": {
          "_amount": "amount to transfer",
          "_to": "destination",
          "_tokenContract": "Address of foreign token contract"
        }
      },
      "ERC721Transfer(address,address,uint256)": {
        "details": "send an ERC721 token from this contract",
        "params": {
          "_to": "destination",
          "_tokenContract": "Address of foreign token contract",
          "_tokenID": "Token ID"
        }
      },
      "adminCreateMotion(bytes32,address)": {
        "details": "Crates an new Motion in the motions map Originating Address:      holds > .9_ pruf",
        "params": {
          "_motion": "the hash of the referring contract address, function name, and parmaeters",
          "_proposer": "proposing address"
        }
      },
      "adminVeto(bytes32)": {
        "details": "Admin veto for incrementel transfer of power to the DAO---------CAUTION:CENTRALIZATION RISK",
        "params": {
          "_motion": "// propsed action to veto"
        }
      },
      "adminVote(bytes32,uint32,uint32,uint8,address)": {
        "details": "DAO admin will be given to a trusted contract that allows nodes to cast their delegated votes---------CAUTION:CENTRALIZATION RISK",
        "params": {
          "_motion": "// propsed action",
          "_node": "// node doing the voting",
          "_voter": "//voting address",
          "_votes": "//# of votes",
          "_yn": "// yeah (1) or neigh (0)"
        }
      },
      "getMotionByIndex(uint256)": {
        "details": "Getter for motions",
        "params": {
          "_motionIndex": "the index of the motion hash to get to be called by DAO_LAYER contracts as a check prior to executing functions"
        }
      },
      "getMotionData(bytes32)": {
        "details": "Getter for motions",
        "params": {
          "_motion": "the motion hash to get to be called by DAO_LAYER contracts as a check prior to executing functions"
        }
      },
      "getMotionDataStruct(bytes32)": {
        "details": "Getter for motions",
        "params": {
          "_motion": "the motion hash to get to be called by DAO_LAYER contracts as a check prior to executing functions"
        }
      },
      "getNodeActivityByEpoch(uint256,uint32)": {
        "details": "Getter for node voting participation",
        "params": {
          "_epoch": "the epoch to check",
          "_node": "the node to get voting activity for to be called by DAO_LAYER contracts as a check prior to executing functions"
        }
      },
      "getNodeVotingHistory(bytes32,uint32)": {
        "details": "Getter for vote history, by motion and node",
        "params": {
          "_motion": "the epoch to check",
          "_node": "the node to get voting activity for to be called by DAO_LAYER contracts as a check prior to executing functions"
        }
      },
      "getRoleAdmin(bytes32)": {
        "details": "Returns the admin role that controls `role`. See {grantRole} and {revokeRole}. To change a role's admin, use {_setRoleAdmin}."
      },
      "grantRole(bytes32,address)": {
        "details": "Grants `role` to `account`. If `account` had not been already granted `role`, emits a {RoleGranted} event. Requirements: - the caller must have ``role``'s admin role."
      },
      "hasRole(bytes32,address)": {
        "details": "Returns `true` if `account` has been granted `role`."
      },
      "onERC721Received(address,address,uint256,bytes)": {
        "details": "Compliance for erc721 reciever See OZ documentation"
      },
      "paused()": {
        "details": "Returns true if the contract is paused, and false otherwise."
      },
      "renounceRole(bytes32,address)": {
        "details": "Revokes `role` from the calling account. Roles are often managed via {grantRole} and {revokeRole}: this function's purpose is to provide a mechanism for accounts to lose their privileges if they are compromised (such as when a trusted device is misplaced). If the calling account had been granted `role`, emits a {RoleRevoked} event. Requirements: - the caller must be `account`."
      },
      "resolveContractAddresses()": {
        "details": "Resolve contract addresses from STOR"
      },
      "revokeRole(bytes32,address)": {
        "details": "Revokes `role` from `account`. If `account` had been granted `role`, emits a {RoleRevoked} event. Requirements: - the caller must have ``role``'s admin role."
      },
      "setMaxVote(uint32)": {
        "details": "Default param setter",
        "params": {
          "_max": "new value for maximum votes per node"
        }
      },
      "setPassingMargin(uint32)": {
        "details": "Default param setter",
        "params": {
          "_passingMargin": "new value for minimum required passing margin for votes, in whole percents"
        }
      },
      "setQuorum(uint32)": {
        "details": "Default param setter",
        "params": {
          "_quorum": "new value for minimum required voters to create a quorum"
        }
      },
      "setStorageContract(address)": {
        "details": "Set address of STOR contract to interface with",
        "params": {
          "_storageAddress": "address of PRUF_STOR"
        }
      },
      "supportsInterface(bytes4)": {
        "details": "See {IERC165-supportsInterface}."
      },
      "verifyResolution(bytes32,address)": {
        "details": "Throws if a resolution is not approved. clears the motion if successful, returning control to the calling contract",
        "params": {
          "_caller": "original calling address to be called by DAO_LAYER contracts as a check prior to executing functions",
          "_motion": "the motion hash to check"
        }
      }
    },
    "version": 1
  },
  "userdoc": {
    "kind": "user",
    "methods": {},
    "version": 1
  }
}