{
  "contractName": "DECORATE",
  "abi": [
    {
      "anonymous": false,
      "inputs": [
        {
          "indexed": false,
          "internalType": "address",
          "name": "account",
          "type": "address"
        }
      ],
      "name": "Paused",
      "type": "event"
    },
    {
      "anonymous": false,
      "inputs": [
        {
          "indexed": false,
          "internalType": "string",
          "name": "_msg",
          "type": "string"
        }
      ],
      "name": "REPORT",
      "type": "event"
    },
    {
      "anonymous": false,
      "inputs": [
        {
          "indexed": true,
          "internalType": "bytes32",
          "name": "role",
          "type": "bytes32"
        },
        {
          "indexed": true,
          "internalType": "bytes32",
          "name": "previousAdminRole",
          "type": "bytes32"
        },
        {
          "indexed": true,
          "internalType": "bytes32",
          "name": "newAdminRole",
          "type": "bytes32"
        }
      ],
      "name": "RoleAdminChanged",
      "type": "event"
    },
    {
      "anonymous": false,
      "inputs": [
        {
          "indexed": true,
          "internalType": "bytes32",
          "name": "role",
          "type": "bytes32"
        },
        {
          "indexed": true,
          "internalType": "address",
          "name": "account",
          "type": "address"
        },
        {
          "indexed": true,
          "internalType": "address",
          "name": "sender",
          "type": "address"
        }
      ],
      "name": "RoleGranted",
      "type": "event"
    },
    {
      "anonymous": false,
      "inputs": [
        {
          "indexed": true,
          "internalType": "bytes32",
          "name": "role",
          "type": "bytes32"
        },
        {
          "indexed": true,
          "internalType": "address",
          "name": "account",
          "type": "address"
        },
        {
          "indexed": true,
          "internalType": "address",
          "name": "sender",
          "type": "address"
        }
      ],
      "name": "RoleRevoked",
      "type": "event"
    },
    {
      "anonymous": false,
      "inputs": [
        {
          "indexed": false,
          "internalType": "address",
          "name": "account",
          "type": "address"
        }
      ],
      "name": "Unpaused",
      "type": "event"
    },
    {
      "inputs": [],
      "name": "ASSET_TXFR_ROLE",
      "outputs": [
        {
          "internalType": "bytes32",
          "name": "",
          "type": "bytes32"
        }
      ],
      "stateMutability": "view",
      "type": "function"
    },
    {
      "inputs": [],
      "name": "CONTRACT_ADMIN_ROLE",
      "outputs": [
        {
          "internalType": "bytes32",
          "name": "",
          "type": "bytes32"
        }
      ],
      "stateMutability": "view",
      "type": "function"
    },
    {
      "inputs": [],
      "name": "DAO_ROLE",
      "outputs": [
        {
          "internalType": "bytes32",
          "name": "",
          "type": "bytes32"
        }
      ],
      "stateMutability": "view",
      "type": "function"
    },
    {
      "inputs": [],
      "name": "DEFAULT_ADMIN_ROLE",
      "outputs": [
        {
          "internalType": "bytes32",
          "name": "",
          "type": "bytes32"
        }
      ],
      "stateMutability": "view",
      "type": "function"
    },
    {
      "inputs": [
        {
          "internalType": "address",
          "name": "_tokenContract",
          "type": "address"
        },
        {
          "internalType": "address",
          "name": "_to",
          "type": "address"
        },
        {
          "internalType": "uint256",
          "name": "_amount",
          "type": "uint256"
        }
      ],
      "name": "ERC20Transfer",
      "outputs": [],
      "stateMutability": "nonpayable",
      "type": "function"
    },
    {
      "inputs": [
        {
          "internalType": "address",
          "name": "_tokenContract",
          "type": "address"
        },
        {
          "internalType": "address",
          "name": "_to",
          "type": "address"
        },
        {
          "internalType": "uint256",
          "name": "_tokenID",
          "type": "uint256"
        }
      ],
      "name": "ERC721Transfer",
      "outputs": [],
      "stateMutability": "nonpayable",
      "type": "function"
    },
    {
      "inputs": [],
      "name": "PAUSER_ROLE",
      "outputs": [
        {
          "internalType": "bytes32",
          "name": "",
          "type": "bytes32"
        }
      ],
      "stateMutability": "view",
      "type": "function"
    },
    {
      "inputs": [
        {
          "internalType": "bytes32",
          "name": "role",
          "type": "bytes32"
        }
      ],
      "name": "getRoleAdmin",
      "outputs": [
        {
          "internalType": "bytes32",
          "name": "",
          "type": "bytes32"
        }
      ],
      "stateMutability": "view",
      "type": "function"
    },
    {
      "inputs": [
        {
          "internalType": "bytes32",
          "name": "role",
          "type": "bytes32"
        },
        {
          "internalType": "address",
          "name": "account",
          "type": "address"
        }
      ],
      "name": "grantRole",
      "outputs": [],
      "stateMutability": "nonpayable",
      "type": "function"
    },
    {
      "inputs": [
        {
          "internalType": "bytes32",
          "name": "role",
          "type": "bytes32"
        },
        {
          "internalType": "address",
          "name": "account",
          "type": "address"
        }
      ],
      "name": "hasRole",
      "outputs": [
        {
          "internalType": "bool",
          "name": "",
          "type": "bool"
        }
      ],
      "stateMutability": "view",
      "type": "function"
    },
    {
      "inputs": [
        {
          "internalType": "address",
          "name": "",
          "type": "address"
        },
        {
          "internalType": "address",
          "name": "",
          "type": "address"
        },
        {
          "internalType": "uint256",
          "name": "",
          "type": "uint256"
        },
        {
          "internalType": "bytes",
          "name": "",
          "type": "bytes"
        }
      ],
      "name": "onERC721Received",
      "outputs": [
        {
          "internalType": "bytes4",
          "name": "",
          "type": "bytes4"
        }
      ],
      "stateMutability": "nonpayable",
      "type": "function"
    },
    {
      "inputs": [],
      "name": "pause",
      "outputs": [],
      "stateMutability": "nonpayable",
      "type": "function"
    },
    {
      "inputs": [],
      "name": "paused",
      "outputs": [
        {
          "internalType": "bool",
          "name": "",
          "type": "bool"
        }
      ],
      "stateMutability": "view",
      "type": "function"
    },
    {
      "inputs": [
        {
          "internalType": "bytes32",
          "name": "role",
          "type": "bytes32"
        },
        {
          "internalType": "address",
          "name": "account",
          "type": "address"
        }
      ],
      "name": "renounceRole",
      "outputs": [],
      "stateMutability": "nonpayable",
      "type": "function"
    },
    {
      "inputs": [],
      "name": "resolveContractAddresses",
      "outputs": [],
      "stateMutability": "nonpayable",
      "type": "function"
    },
    {
      "inputs": [
        {
          "internalType": "bytes32",
          "name": "role",
          "type": "bytes32"
        },
        {
          "internalType": "address",
          "name": "account",
          "type": "address"
        }
      ],
      "name": "revokeRole",
      "outputs": [],
      "stateMutability": "nonpayable",
      "type": "function"
    },
    {
      "inputs": [
        {
          "internalType": "address",
          "name": "_storageAddress",
          "type": "address"
        }
      ],
      "name": "setStorageContract",
      "outputs": [],
      "stateMutability": "nonpayable",
      "type": "function"
    },
    {
      "inputs": [
        {
          "internalType": "bytes4",
          "name": "interfaceId",
          "type": "bytes4"
        }
      ],
      "name": "supportsInterface",
      "outputs": [
        {
          "internalType": "bool",
          "name": "",
          "type": "bool"
        }
      ],
      "stateMutability": "view",
      "type": "function"
    },
    {
      "inputs": [],
      "name": "unpause",
      "outputs": [],
      "stateMutability": "nonpayable",
      "type": "function"
    },
    {
      "inputs": [
        {
          "internalType": "uint256",
          "name": "_tokenID",
          "type": "uint256"
        },
        {
          "internalType": "address",
          "name": "_tokenContract",
          "type": "address"
        },
        {
          "internalType": "bytes32",
          "name": "_rgtHash",
          "type": "bytes32"
        },
        {
          "internalType": "uint32",
          "name": "_node",
          "type": "uint32"
        },
        {
          "internalType": "uint32",
          "name": "_countDownStart",
          "type": "uint32"
        }
      ],
      "name": "decorate721",
      "outputs": [],
      "stateMutability": "nonpayable",
      "type": "function"
    },
    {
      "inputs": [
        {
          "internalType": "uint256",
          "name": "_tokenID",
          "type": "uint256"
        },
        {
          "internalType": "address",
          "name": "_tokenContract",
          "type": "address"
        },
        {
          "internalType": "uint8",
          "name": "_newAssetStatus",
          "type": "uint8"
        }
      ],
      "name": "modifyStatus",
      "outputs": [],
      "stateMutability": "nonpayable",
      "type": "function"
    },
    {
      "inputs": [
        {
          "internalType": "uint256",
          "name": "_tokenID",
          "type": "uint256"
        },
        {
          "internalType": "address",
          "name": "_tokenContract",
          "type": "address"
        },
        {
          "internalType": "uint32",
          "name": "_decAmount",
          "type": "uint32"
        }
      ],
      "name": "decrementCounter",
      "outputs": [],
      "stateMutability": "nonpayable",
      "type": "function"
    },
    {
      "inputs": [
        {
          "internalType": "uint256",
          "name": "_tokenID",
          "type": "uint256"
        },
        {
          "internalType": "address",
          "name": "_tokenContract",
          "type": "address"
        },
        {
          "internalType": "bytes32",
          "name": "_mutableStorage1",
          "type": "bytes32"
        },
        {
          "internalType": "bytes32",
          "name": "_mutableStorage2",
          "type": "bytes32"
        }
      ],
      "name": "modifyMutableStorage",
      "outputs": [],
      "stateMutability": "nonpayable",
      "type": "function"
    },
    {
      "inputs": [
        {
          "internalType": "uint256",
          "name": "_tokenID",
          "type": "uint256"
        },
        {
          "internalType": "address",
          "name": "_tokenContract",
          "type": "address"
        },
        {
          "internalType": "bytes32",
          "name": "_nonMutableStorage1",
          "type": "bytes32"
        },
        {
          "internalType": "bytes32",
          "name": "_nonMutableStorage2",
          "type": "bytes32"
        },
        {
          "internalType": "bytes32",
          "name": "_URIhash",
          "type": "bytes32"
        }
      ],
      "name": "addNonMutableStorage",
      "outputs": [],
      "stateMutability": "nonpayable",
      "type": "function"
    }
  ],
  "bytecode": "0x60806040523480156200001157600080fd5b50600160009081556002805460ff191690556200002f90336200008d565b6200005b7f2ce8d04a9c35987429af538825cd2438cc5c5bb5dc427955f84daaa3ea105016336200008d565b620000877f65d7a28e3265b37a6474929f336521b332c1681b933f6cb9f3376673440d862a336200008d565b62000125565b6200009982826200009d565b5050565b60008281526001602090815260408083206001600160a01b038516845290915290205460ff16620000995760008281526001602081815260408084206001600160a01b0386168086529252808420805460ff19169093179092559051339285917f2f8788117e7eff1d82e926ec794901d17c78024a50270940304540a733656f0d9190a45050565b6142eb80620001356000396000f3fe608060405234801561001057600080fd5b50600436106101585760003560e01c80638456cb59116100c3578063e59fdd361161007c578063e59fdd361461030d578063e5f815dc14610320578063e63ab1e914610333578063e9c265181461035a578063ed1d2a9a14610381578063ee9c25c51461039457600080fd5b80638456cb59146102b157806391d14854146102b9578063a217fddf146102cc578063d15fcce2146102d4578063d547741f146102e7578063dc38b0a2146102fa57600080fd5b806324b0d5e61161011557806324b0d5e6146102525780632f2ff15d1461026557806336568abe146102785780633f4ba83a1461028b578063404eb87e146102935780635c975abb146102a657600080fd5b806301ffc9a71461015d5780630e0a7462146101855780631429db5f1461019a578063150b7a02146101cf5780631da0331214610207578063248a9ca31461022e575b600080fd5b61017061016b3660046139df565b61039c565b60405190151581526020015b60405180910390f35b610198610193366004613d4b565b6103d3565b005b6101c17f7f1e4e9f3d9ba0452a25cfef4cd4c6ffc86158d06ed2f585fa0093e12dec429c81565b60405190815260200161017c565b6101ee6101dd3660046138d5565b630a85bd0160e11b95945050505050565b6040516001600160e01b0319909116815260200161017c565b6101c17f2ce8d04a9c35987429af538825cd2438cc5c5bb5dc427955f84daaa3ea10501681565b6101c161023c366004613996565b6000908152600160208190526040909120015490565b610198610260366004613e34565b6106ef565b6101986102733660046139af565b610b50565b6101986102863660046139af565b610b7c565b610198610bfa565b6101986102a1366004613d93565b610c4a565b60025460ff16610170565b610198610f12565b6101706102c73660046139af565b610f60565b6101c1600081565b6101986102e2366004613df2565b610f8b565b6101986102f53660046139af565b6112b5565b61019861030836600461385a565b6112dc565b61019861031b366004613894565b61138f565b61019861032e366004613894565b611490565b6101c17f65d7a28e3265b37a6474929f336521b332c1681b933f6cb9f3376673440d862a81565b6101c17f3b5d4cc60d3ec3516ee8ae083bd60934f6eb2a6c54b1229985c41bfb092b260381565b61019861038f366004613d0e565b611570565b610198611a25565b60006001600160e01b03198216637965db0b60e01b14806103cd57506301ffc9a760e01b6001600160e01b03198316145b92915050565b600260005414156103ff5760405162461bcd60e51b81526004016103f6906140b6565b60405180910390fd5b600260005561041060025460ff1690565b1561042d5760405162461bcd60e51b81526004016103f69061408c565b8484336040516331a9108f60e11b8152600481018490526001600160a01b0391821691831690636352211e9060240160206040518083038186803b15801561047457600080fd5b505afa158015610488573d6000803e3d6000fd5b505050506040513d601f19601f820116820180604052508101906104ac9190613877565b6001600160a01b0316146104d25760405162461bcd60e51b81526004016103f690613ff7565b600087876040516020016104e7929190613f1a565b604051602081830303815290604052805190602001209050600061050a82612108565b9050600061051b82606001516121ee565b9050806000015160ff1660051461058c5760405162461bcd60e51b815260206004820152602f60248201527f443a4149323a4e6f64652e637573746f64795479706520213d2035202620726560448201526e18dbdc99081b5d5cdd08195e1a5cdd608a1b60648201526084016103f6565b886001600160a01b03168160c001516001600160a01b031614806105bb575060c08101516001600160a01b0316155b61062d5760405162461bcd60e51b815260206004820152603f60248201527f443a4149323a4e6f646520657874656e6465642064617461206d75737420626560448201527f20273027206f722045524337323120636f6e747261637420616464726573730060648201526084016103f6565b81516106389061227b565b60ff16156106ae5760405162461bcd60e51b815260206004820152603c60248201527f443a4149323a205265636f726420696e20756e726567697374657265642c206560448201527f78706f727465642c206f7220646973636172646564207374617475730000000060648201526084016103f6565b6101008201889052610140820187905260c082018690526106cf83836122cf565b6106de8260600151600361236e565b505060016000555050505050505050565b600260005414156107125760405162461bcd60e51b81526004016103f6906140b6565b600260005561072360025460ff1690565b156107405760405162461bcd60e51b81526004016103f69061408c565b8282336040516331a9108f60e11b8152600481018490526001600160a01b0391821691831690636352211e9060240160206040518083038186803b15801561078757600080fd5b505afa15801561079b573d6000803e3d6000fd5b505050506040513d601f19601f820116820180604052508101906107bf9190613877565b6001600160a01b0316146107e55760405162461bcd60e51b81526004016103f690613ff7565b600085856040516020016107fa929190613f1a565b604051602081830303815290604052805190602001209050600061081d82612108565b9050600061082e82606001516121ee565b9050806000015160ff1660051461089e5760405162461bcd60e51b815260206004820152602e60248201527f443a4d533a4e6f64652e637573746f64795479706520213d203520262072656360448201526d1bdc99081b5d5cdd08195e1a5cdd60921b60648201526084016103f6565b866001600160a01b03168160c001516001600160a01b031614806108cd575060c08101516001600160a01b0316155b61093f5760405162461bcd60e51b815260206004820152603e60248201527f443a4d533a4e6f646520657874656e6465642064617461206d7573742062652060448201527f273027206f722045524337323120636f6e74726163742061646472657373000060648201526084016103f6565b60318660ff1611801561095957506031826000015160ff16115b6109a55760405162461bcd60e51b815260206004820152601f60248201527f443a4d533a2063616e6e6f74206368616e676520737461747573203c2034390060448201526064016103f6565b8560ff166039141580156109bd57508560ff16603a14155b80156109cc575060648660ff16105b610a0b5760405162461bcd60e51b815260206004820152601060248201526f110e9354ce8814dd185d08149cdc9d9960821b60448201526064016103f6565b610a148661227b565b60ff1615610ab05760405162461bcd60e51b815260206004820152605a60248201527f443a4d533a2043616e6e6f7420706c61636520617373657420696e20756e726560448201527f67697374657265642c206578706f727465642c206f722064697363617264656460648201527f20737461747573207573696e67206d6f64696679537461747573000000000000608482015260a4016103f6565b8151610abb9061227b565b60ff1615610b315760405162461bcd60e51b815260206004820152603b60248201527f443a4d533a205265636f726420696e20756e726567697374657265642c20657860448201527f706f727465642c206f722064697363617264656420737461747573000000000060648201526084016103f6565b60ff86168252610b41838361258a565b50506001600055505050505050565b60008281526001602081905260409091200154610b6d8133612634565b610b778383612698565b505050565b6001600160a01b0381163314610bec5760405162461bcd60e51b815260206004820152602f60248201527f416363657373436f6e74726f6c3a2063616e206f6e6c792072656e6f756e636560448201526e103937b632b9903337b91039b2b63360891b60648201526084016103f6565b610bf68282612703565b5050565b610c247f65d7a28e3265b37a6474929f336521b332c1681b933f6cb9f3376673440d862a33610f60565b610c405760405162461bcd60e51b81526004016103f690614046565b610c4861276a565b565b60026000541415610c6d5760405162461bcd60e51b81526004016103f6906140b6565b6002600055610c7e60025460ff1690565b15610c9b5760405162461bcd60e51b81526004016103f69061408c565b8484336040516331a9108f60e11b8152600481018490526001600160a01b0391821691831690636352211e9060240160206040518083038186803b158015610ce257600080fd5b505afa158015610cf6573d6000803e3d6000fd5b505050506040513d601f19601f82011682018060405250810190610d1a9190613877565b6001600160a01b031614610d405760405162461bcd60e51b81526004016103f690613ff7565b60008787604051602001610d55929190613f1a565b6040516020818303038152906040528051906020012090506000610d7882612108565b90506000610d85876127fd565b9050806000015160ff16600514610dde5760405162461bcd60e51b815260206004820152601960248201527f443a443a4e6f64652e637573746f64795479706520213d20350000000000000060448201526064016103f6565b886001600160a01b03168160c001516001600160a01b03161480610e0d575060c08101516001600160a01b0316155b610e895760405162461bcd60e51b815260206004820152604160248201527f443a443a4e6f6465207265666572656e63652061646472657373206d7573742060448201527f626520273027206f722045524337323120636f6e7472616374206164647265736064820152607360f81b608482015260a4016103f6565b606082015163ffffffff1615610efb5760405162461bcd60e51b815260206004820152603160248201527f443a443a577261707065722c206465636f726174696f6e2c206f72207265636f604482015270726420616c72656164792065786973747360781b60648201526084016103f6565b610f0783898989612ea5565b6106de87600161236e565b610f3c7f65d7a28e3265b37a6474929f336521b332c1681b933f6cb9f3376673440d862a33610f60565b610f585760405162461bcd60e51b81526004016103f690614046565b610c486130fa565b60009182526001602090815260408084206001600160a01b0393909316845291905290205460ff1690565b60026000541415610fae5760405162461bcd60e51b81526004016103f6906140b6565b6002600055610fbf60025460ff1690565b15610fdc5760405162461bcd60e51b81526004016103f69061408c565b8282336040516331a9108f60e11b8152600481018490526001600160a01b0391821691831690636352211e9060240160206040518083038186803b15801561102357600080fd5b505afa158015611037573d6000803e3d6000fd5b505050506040513d601f19601f8201168201806040525081019061105b9190613877565b6001600160a01b0316146110815760405162461bcd60e51b81526004016103f690613ff7565b60008585604051602001611096929190613f1a565b60405160208183030381529060405280519060200120905060006110b982612108565b905060006110ca82606001516121ee565b9050806000015160ff1660051461113a5760405162461bcd60e51b815260206004820152602e60248201527f443a44433a4e6f64652e637573746f64795479706520213d203520262072656360448201526d1bdc99081b5d5cdd08195e1a5cdd60921b60648201526084016103f6565b866001600160a01b03168160c001516001600160a01b03161480611169575060c08101516001600160a01b0316155b6111db5760405162461bcd60e51b815260206004820152603e60248201527f443a44433a4e6f646520657874656e6465642064617461206d7573742062652060448201527f273027206f722045524337323120636f6e74726163742061646472657373000060648201526084016103f6565b81516111e69061227b565b60ff161561125c5760405162461bcd60e51b815260206004820152603b60248201527f443a44433a205265636f726420696e20756e726567697374657265642c20657860448201527f706f727465642c206f722064697363617264656420737461747573000000000060648201526084016103f6565b8563ffffffff16826080015163ffffffff1611156112945785826080015161128491906141ab565b63ffffffff16608083015261129c565b600060808301525b6112a6838361258a565b610b418260600151600761236e565b600082815260016020819052604090912001546112d28133612634565b610b778383612703565b6113067f2ce8d04a9c35987429af538825cd2438cc5c5bb5dc427955f84daaa3ea10501633610f60565b6113225760405162461bcd60e51b81526004016103f690613f6d565b6001600160a01b03811661136d5760405162461bcd60e51b81526020600482015260126024820152710423a5353433a2041646472657373203d20360741b60448201526064016103f6565b600380546001600160a01b0319166001600160a01b0392909216919091179055565b6113b97f7f1e4e9f3d9ba0452a25cfef4cd4c6ffc86158d06ed2f585fa0093e12dec429c33610f60565b6113d55760405162461bcd60e51b81526004016103f690613fb4565b600260005414156113f85760405162461bcd60e51b81526004016103f6906140b6565b60026000556040516323b872dd60e01b81523060048201526001600160a01b038381166024830152604482018390528416906323b872dd90606401602060405180830381600087803b15801561144d57600080fd5b505af1158015611461573d6000803e3d6000fd5b505050506040513d601f19601f820116820180604052508101906114859190613974565b505060016000555050565b6114ba7f7f1e4e9f3d9ba0452a25cfef4cd4c6ffc86158d06ed2f585fa0093e12dec429c33610f60565b6114d65760405162461bcd60e51b81526004016103f690613fb4565b600260005414156114f95760405162461bcd60e51b81526004016103f6906140b6565b6002600055604051632142170760e11b81523060048201526001600160a01b038381166024830152604482018390528416906342842e0e90606401600060405180830381600087803b15801561154e57600080fd5b505af1158015611562573d6000803e3d6000fd5b505060016000555050505050565b600260005414156115935760405162461bcd60e51b81526004016103f6906140b6565b60026000556115a460025460ff1690565b156115c15760405162461bcd60e51b81526004016103f69061408c565b8383336040516331a9108f60e11b8152600481018490526001600160a01b0391821691831690636352211e9060240160206040518083038186803b15801561160857600080fd5b505afa15801561161c573d6000803e3d6000fd5b505050506040513d601f19601f820116820180604052508101906116409190613877565b6001600160a01b0316146116665760405162461bcd60e51b81526004016103f690613ff7565b6000868660405160200161167b929190613f1a565b604051602081830303815290604052805190602001209050600061169e82612108565b905060006116af82606001516121ee565b9050806000015160ff166005146117205760405162461bcd60e51b815260206004820152602f60248201527f443a4d49313a4e6f64652e637573746f64795479706520213d2035202620726560448201526e18dbdc99081b5d5cdd08195e1a5cdd608a1b60648201526084016103f6565b6006816020015160ff16106117ab5760405162461bcd60e51b815260206004820152604560248201527f433a43523a436f6e747261637420646f6573206e6f7420737570706f7274206d60448201527f616e6167656d656e74207479706573203e2035206f72206e6f6465206973206c6064820152641bd8dad95960da1b608482015260a4016103f6565b806000015160ff166001141580156117ca5750806020015160ff166005145b156118cb5733600d5460608401516040516331a9108f60e11b815263ffffffff90911660048201526001600160a01b039283169290911690636352211e9060240160206040518083038186803b15801561182357600080fd5b505afa158015611837573d6000803e3d6000fd5b505050506040513d601f19601f8201168201806040525081019061185b9190613877565b6001600160a01b0316146118cb5760405162461bcd60e51b815260206004820152603160248201527f433a57524d533a2043616c6c6572206d75737420686f6c64206e6f646520286d604482015270616e6167656d656e74207479706520352960781b60648201526084016103f6565b876001600160a01b03168160c001516001600160a01b031614806118fa575060c08101516001600160a01b0316155b61196c5760405162461bcd60e51b815260206004820152603f60248201527f443a4d49313a4e6f646520657874656e6465642064617461206d75737420626560448201527f20273027206f722045524337323120636f6e747261637420616464726573730060648201526084016103f6565b81516119779061227b565b60ff16156119ed5760405162461bcd60e51b815260206004820152603c60248201527f443a4d49313a205265636f726420696e20756e726567697374657265642c206560448201527f78706f727465642c206f7220646973636172646564207374617475730000000060648201526084016103f6565b60e082018790526101208201869052611a068383613152565b611a158260600151600861236e565b5050600160005550505050505050565b60026000541415611a485760405162461bcd60e51b81526004016103f6906140b6565b6002600055611a777f2ce8d04a9c35987429af538825cd2438cc5c5bb5dc427955f84daaa3ea10501633610f60565b611a935760405162461bcd60e51b81526004016103f690613f6d565b6003546040516363b8d4c160e11b81526020600482015260086024820152672727a222afaa25a760c11b60448201526001600160a01b039091169063c771a9829060640160206040518083038186803b158015611aef57600080fd5b505afa158015611b03573d6000803e3d6000fd5b505050506040513d601f19601f82011682018060405250810190611b279190613877565b600c80546001600160a01b039283166001600160a01b03199182168117909255600d805490911690911790556003546040516363b8d4c160e11b81526020600482015260086024820152672727a222afa6a3a960c11b604482015291169063c771a9829060640160206040518083038186803b158015611ba657600080fd5b505afa158015611bba573d6000803e3d6000fd5b505050506040513d601f19601f82011682018060405250810190611bde9190613877565b600480546001600160a01b039283166001600160a01b031991821681178355600580549092161790556003546040516363b8d4c160e11b815292169163c771a98291611c4891016020808252600990820152682727a222afa9aa27a960b91b604082015260600190565b60206040518083038186803b158015611c6057600080fd5b505afa158015611c74573d6000803e3d6000fd5b505050506040513d601f19601f82011682018060405250810190611c989190613877565b600680546001600160a01b039283166001600160a01b031991821681179092556007805490911690911790556003546040516363b8d4c160e11b81526020600482015260086024820152672aaa24a62faa25a760c11b604482015291169063c771a9829060640160206040518083038186803b158015611d1757600080fd5b505afa158015611d2b573d6000803e3d6000fd5b505050506040513d601f19601f82011682018060405250810190611d4f9190613877565b600880546001600160a01b039283166001600160a01b031991821681179092556009805490911690911790556003546040516363b8d4c160e11b815260206004820152600560248201526420afaa25a760d91b604482015291169063c771a9829060640160206040518083038186803b158015611dcb57600080fd5b505afa158015611ddf573d6000803e3d6000fd5b505050506040513d601f19601f82011682018060405250810190611e039190613877565b600a80546001600160a01b039283166001600160a01b03199182168117909255600b805490911690911790556003546040516363b8d4c160e11b815260206004820152600760248201526622a1a92fa6a3a960c91b604482015291169063c771a9829060640160206040518083038186803b158015611e8157600080fd5b505afa158015611e95573d6000803e3d6000fd5b505050506040513d601f19601f82011682018060405250810190611eb99190613877565b600e80546001600160a01b039283166001600160a01b03199182168117909255600f805490911690911790556003546040516363b8d4c160e11b815291169063c771a98290611f229060040160208082526003908201526204150560ec1b604082015260600190565b60206040518083038186803b158015611f3a57600080fd5b505afa158015611f4e573d6000803e3d6000fd5b505050506040513d601f19601f82011682018060405250810190611f729190613877565b601280546001600160a01b039283166001600160a01b031991821681179092556013805490911690911790556003546040516363b8d4c160e11b815291169063c771a98290611fdc906004016020808252600490820152632921a62960e11b604082015260600190565b60206040518083038186803b158015611ff457600080fd5b505afa158015612008573d6000803e3d6000fd5b505050506040513d601f19601f8201168201806040525081019061202c9190613877565b601080546001600160a01b039283166001600160a01b031991821681179092556011805490911690911790556003546040516363b8d4c160e11b81526020600482015260066024820152654150505f4e4360d01b604482015291169063c771a9829060640160206040518083038186803b1580156120a957600080fd5b505afa1580156120bd573d6000803e3d6000fd5b505050506040513d601f19601f820116820180604052508101906120e19190613877565b601480546001600160a01b0319166001600160a01b03929092169190911790556001600055565b6040805161018081018252600080825260208201819052918101829052606081018290526080810182905260a0810182905260c0810182905260e081018290526101008101829052610120810182905261014081018290526101608101919091526003546040516338923cb160e21b8152600481018490526000916001600160a01b03169063e248f2c4906024016101806040518083038186803b1580156121af57600080fd5b505afa1580156121c3573d6000803e3d6000fd5b505050506040513d601f19601f820116820180604052508101906121e79190613c31565b9392505050565b6121f6613749565b60075460405163f45c157d60e01b815263ffffffff841660048201526001600160a01b039091169063f45c157d9060240160006040518083038186803b15801561223f57600080fd5b505afa158015612253573d6000803e3d6000fd5b505050506040513d6000823e601f3d908101601f191682016040526103cd9190810190613b32565b60008160ff1660051415801561229557508160ff16603714155b80156122a557508160ff16604614155b80156122b557508160ff16603c14155b156122c257506000919050565b5060aa919050565b919050565b60025460ff16156122f25760405162461bcd60e51b81526004016103f69061408c565b6003546101008201516101408301516040516325ac1e4360e21b815260048101869052602481019290925260448201526001600160a01b03909116906396b0790c906064015b600060405180830381600087803b15801561235257600080fd5b505af1158015612366573d6000803e3d6000fd5b505050505050565b60025460ff16156123915760405162461bcd60e51b81526004016103f69061408c565b600754604051631f70958f60e31b815263ffffffff841660048201526000916064916001600160a01b039091169063fb84ac789060240160206040518083038186803b1580156123e057600080fd5b505afa1580156123f4573d6000803e3d6000fd5b505050506040513d601f19601f820116820180604052508101906124189190613e6b565b63ffffffff166124289190614153565b905060648111156124965760405162461bcd60e51b815260206004820152603260248201527f433a4453433a696e76616c696420646973636f756e742076616c756520666f7260448201527110383934b1b29031b0b631bab630ba34b7b760711b60648201526084016103f6565b600754604051638f44e52560e01b815263ffffffff8516600482015261ffff841660248201526000916001600160a01b031690638f44e5259060440160806040518083038186803b1580156124ea57600080fd5b505afa1580156124fe573d6000803e3d6000fd5b505050506040513d601f19601f820116820180604052508101906125229190613abd565b90506000606482606001516125379190614153565b905060006125458285614175565b905060008184606001516125599190614194565b60608501839052604085015190915061257390829061413b565b6040850152612581846133c3565b50505050505050565b60025460ff16156125ad5760405162461bcd60e51b81526004016103f69061408c565b6003546101608201518251608084015160a085015160208601516040808801519051631e21309760e11b8152600481018a9052602481019690965260ff948516604487015263ffffffff93841660648701529290911660848501529190911660a483015261ffff1660c48201526001600160a01b0390911690633c42612e9060e401612338565b61263e8282610f60565b610bf657612656816001600160a01b03166014613506565b612661836020613506565b604051602001612672929190613ea5565b60408051601f198184030181529082905262461bcd60e51b82526103f691600401613f3a565b6126a28282610f60565b610bf65760008281526001602081815260408084206001600160a01b0386168086529252808420805460ff19169093179092559051339285917f2f8788117e7eff1d82e926ec794901d17c78024a50270940304540a733656f0d9190a45050565b61270d8282610f60565b15610bf65760008281526001602090815260408083206001600160a01b0385168085529252808320805460ff1916905551339285917ff6391f5c32d9c69d2a47ea670b442974b53935d1edc7fd64eb21e047a839171b9190a45050565b60025460ff166127b35760405162461bcd60e51b815260206004820152601460248201527314185d5cd8589b194e881b9bdd081c185d5cd95960621b60448201526064016103f6565b6002805460ff191690557f5db9ee0a495bf2e6ff9c91a7834c1ba4fdd244a5e8aa4e537bd38aeae4b073aa335b6040516001600160a01b03909116815260200160405180910390a1565b612805613749565b61280e826121ee565b9050806000015160ff166003141561288e5760405162461bcd60e51b815260206004820152603a60248201527f433a474e495741433a43616e6e6f742063726561746520617373657420696e2060448201527f6120726f6f74206e6f64652028637573746f647954797065332900000000000060648201526084016103f6565b60075460208201516040516376faa3cb60e11b815260ff90911660048201526000916001600160a01b03169063edf547969060240160206040518083038186803b1580156128db57600080fd5b505afa1580156128ef573d6000803e3d6000fd5b505050506040513d601f19601f820116820180604052508101906129139190613e88565b60ff161161296d5760405162461bcd60e51b815260206004820152602160248201527f433a474e495741433a20496e76616c6964206d616e6167656d656e74207479706044820152606560f81b60648201526084016103f6565b602081015160ff166129cc5760405162461bcd60e51b815260206004820152602260248201527f433a474e495741433a2043616e6e6f74206d696e7420696e20726f6f74206e6f604482015261646560f01b60648201526084016103f6565b806020015160ff1660ff1415612a4a5760405162461bcd60e51b815260206004820152603760248201527f433a474e495741433a2043616e6e6f74206d696e74207769746820756e70726f60448201527f766973696f6e6564206f72206c6f636b6564206e6f646500000000000000000060648201526084016103f6565b612a59816060015160076136a2565b1580612b2857506007546040516bffffffffffffffffffffffff193360601b1660208201526001600160a01b0390911690639d2c7cee9060340160408051601f198184030181529082905280516020909101206001600160e01b031960e084901b168252600482015263ffffffff8516602482015260440160206040518083038186803b158015612ae957600080fd5b505afa158015612afd573d6000803e3d6000fd5b505050506040513d601f19601f82011682018060405250810190612b219190613e88565b60ff166001145b612b805760405162461bcd60e51b8152602060048201526024808201527f433a474e495741433a2043616c6c6572206e6f7420617574686f72697a6564206044820152633ab9b2b960e11b60648201526084016103f6565b612b8f816060015160076136a2565b60011480612c29575033600d546040516331a9108f60e11b815263ffffffff851660048201526001600160a01b039283169290911690636352211e9060240160206040518083038186803b158015612be657600080fd5b505afa158015612bfa573d6000803e3d6000fd5b505050506040513d601f19601f82011682018060405250810190612c1e9190613877565b6001600160a01b0316145b612c6d5760405162461bcd60e51b8152602060048201526015602482015274086748e9c92ae8286744086c2d8d8cae440429ca89605b1b60448201526064016103f6565b612c7c816060015160066136a2565b600114156122ca57600754604051639edaf4a760e01b815263ffffffff841660048201526000916001600160a01b031690639edaf4a79060240160e06040518083038186803b158015612cce57600080fd5b505afa158015612ce2573d6000803e3d6000fd5b505050506040513d601f19601f82011682018060405250810190612d069190613a09565b90508060a001516001600160a01b0316636352211e8260c001516040518263ffffffff1660e01b8152600401612d3e91815260200190565b60206040518083038186803b158015612d5657600080fd5b505afa158015612d6a573d6000803e3d6000fd5b505050506040513d601f19601f82011682018060405250810190612d8e9190613877565b600d546040516331a9108f60e11b815263ffffffff861660048201526001600160a01b039283169290911690636352211e9060240160206040518083038186803b158015612ddb57600080fd5b505afa158015612def573d6000803e3d6000fd5b505050506040513d601f19601f82011682018060405250810190612e139190613877565b6001600160a01b031614612e9f5760405162461bcd60e51b815260206004820152604760248201527f433a474e495741433a204e6f646520616e6420726f6f74206f66206964656e7460448201527f6974792061726520736561706172617465642e204d696e74696e6720697320646064820152661a5cd8589b195960ca1b608482015260a4016103f6565b50919050565b60008483604051602001612ed092919091825260e01b6001600160e01b031916602082015260240190565b60408051601f1981840301815291905280516020909101209050806000612ef6856127fd565b600b5460405162491fcf60e11b8152600481018590529192506001600160a01b03169062923f9e9060240160206040518083038186803b158015612f3957600080fd5b505afa158015612f4d573d6000803e3d6000fd5b505050506040513d601f19601f82011682018060405250810190612f719190613cf5565b15612ff45760405162461bcd60e51b815260206004820152604760248201527f443a43524f3a20746f6b656e20697320616c726561647920777261707065642e60448201527f204d75737420646973636172642077726170706572206265666f7265206465636064820152666f726174696e6760c81b608482015260a4016103f6565b806000015160ff166005146130715760405162461bcd60e51b815260206004820152603b60248201527f443a43524f3a4e6f64652e637573746f647954797065206d757374206265203560448201527f2028777261707065642f6465636f72617465642065726337323129000000000060648201526084016103f6565b60035460405163a85d2bef60e01b815260048101859052602481018890526000604482015263ffffffff8088166064830152861660848201526001600160a01b039091169063a85d2bef9060a401600060405180830381600087803b1580156130d957600080fd5b505af11580156130ed573d6000803e3d6000fd5b5050505050505050505050565b60025460ff161561311d5760405162461bcd60e51b81526004016103f69061408c565b6002805460ff191660011790557f62e78cea01bee320cd4e420270b5ea74000d11b0c9f74754ebdbfc544b05a2586127e03390565b60025460ff16156131755760405162461bcd60e51b81526004016103f69061408c565b600061318482606001516121ee565b90506006816020015160ff16106132125760405162461bcd60e51b815260206004820152604660248201527f433a574d533a436f6e747261637420646f6573206e6f7420737570706f72742060448201527f6d616e6167656d656e74207479706573203e2035206f72206e6f6465206973206064820152651b1bd8dad95960d21b608482015260a4016103f6565b806000015160ff166001141580156132315750806020015160ff166005145b156133515733600d5460608401516040516331a9108f60e11b815263ffffffff90911660048201526001600160a01b039283169290911690636352211e9060240160206040518083038186803b15801561328a57600080fd5b505afa15801561329e573d6000803e3d6000fd5b505050506040513d601f19601f820116820180604052508101906132c29190613877565b6001600160a01b0316146133515760405162461bcd60e51b815260206004820152604a60248201527f433a574d533a2043616c6c6572206d75737420686f6c64206e6f646520746f2060448201527f6d6f64696679206d757461626c652073746f7261676520286d616e6167656d656064820152696e74207479706520352960b01b608482015260a4016103f6565b60035460e08301516101208401516040516361e9eb6d60e01b815260048101879052602481019290925260448201526001600160a01b03909116906361e9eb6d90606401600060405180830381600087803b1580156133af57600080fd5b505af1158015612581573d6000803e3d6000fd5b60025460ff16156133e65760405162461bcd60e51b81526004016103f69061408c565b80516001600160a01b031661344f5760405162461bcd60e51b815260206004820152602960248201527f433a44503a20726f6f74207061796d656e742061646472657373203d207a65726044820152686f206164647265737360b81b60648201526084016103f6565b60208101516001600160a01b03166134725780516001600160a01b031660208201525b6009548151604080840151602085015160608601518351631cc1e17360e31b81523360048201526001600160a01b0395861660248201526044810193909352908416606483015260848201529051919092169163e60f0b989160a480830192600092919082900301818387803b1580156134eb57600080fd5b505af11580156134ff573d6000803e3d6000fd5b5050505050565b60606000613515836002614175565b61352090600261413b565b67ffffffffffffffff81111561353857613538614266565b6040519080825280601f01601f191660200182016040528015613562576020820181803683370190505b509050600360fc1b8160008151811061357d5761357d614250565b60200101906001600160f81b031916908160001a905350600f60fb1b816001815181106135ac576135ac614250565b60200101906001600160f81b031916908160001a90535060006135d0846002614175565b6135db90600161413b565b90505b6001811115613653576f181899199a1a9b1b9c1cb0b131b232b360811b85600f166010811061360f5761360f614250565b1a60f81b82828151811061362557613625614250565b60200101906001600160f81b031916908160001a90535060049490941c9361364c81614223565b90506135de565b5083156121e75760405162461bcd60e51b815260206004820181905260248201527f537472696e67733a20686578206c656e67746820696e73756666696369656e7460448201526064016103f6565b6000808260ff161180156136b9575060098260ff16105b61371a5760405162461bcd60e51b815260206004820152602c60248201527f4e533a4753413a2062697420706f736974696f6e206d7573742062652062657460448201526b0eecacadc406240c2dcc840760a31b60648201526084016103f6565b60006137276001846141d0565b60ff166001901b8460ff16161115613741575060016103cd565b5060006103cd565b604080516101408101825260008082526020820181905291810182905260608082018390526080820183905260a0820183905260c0820183905260e0820183905261010082019290925261012081019190915290565b80516122ca8161427c565b600082601f8301126137bb57600080fd5b815167ffffffffffffffff808211156137d6576137d6614266565b604051601f8301601f19908116603f011681019082821181831017156137fe576137fe614266565b8160405283815286602085880101111561381757600080fd5b6138288460208301602089016141f3565b9695505050505050565b805161ffff811681146122ca57600080fd5b80516122ca81614294565b80516122ca816142a6565b60006020828403121561386c57600080fd5b81356121e78161427c565b60006020828403121561388957600080fd5b81516121e78161427c565b6000806000606084860312156138a957600080fd5b83356138b48161427c565b925060208401356138c48161427c565b929592945050506040919091013590565b6000806000806000608086880312156138ed57600080fd5b85356138f88161427c565b945060208601356139088161427c565b935060408601359250606086013567ffffffffffffffff8082111561392c57600080fd5b818801915088601f83011261394057600080fd5b81358181111561394f57600080fd5b89602082850101111561396157600080fd5b9699959850939650602001949392505050565b60006020828403121561398657600080fd5b815180151581146121e757600080fd5b6000602082840312156139a857600080fd5b5035919050565b600080604083850312156139c257600080fd5b8235915060208301356139d48161427c565b809150509250929050565b6000602082840312156139f157600080fd5b81356001600160e01b0319811681146121e757600080fd5b600060e08284031215613a1b57600080fd5b60405160e0810181811067ffffffffffffffff82111715613a3e57613a3e614266565b6040528251613a4c816142a6565b81526020830151613a5c816142a6565b6020820152613a6d60408401613832565b60408201526060830151613a8081614294565b60608201526080830151613a9381614294565b6080820152613aa460a0840161379f565b60a082015260c083015160c08201528091505092915050565b600060808284031215613acf57600080fd5b6040516080810181811067ffffffffffffffff82111715613af257613af2614266565b6040528251613b008161427c565b81526020830151613b108161427c565b6020820152604083810151908201526060928301519281019290925250919050565b600060208284031215613b4457600080fd5b815167ffffffffffffffff80821115613b5c57600080fd5b908301906101408286031215613b7157600080fd5b613b796140ed565b613b828361384f565b8152613b906020840161384f565b6020820152613ba16040840161384f565b6040820152613bb26060840161384f565b6060820152613bc360808401613844565b6080820152613bd460a08401613844565b60a0820152613be560c0840161379f565b60c082015260e083015160e08201526101008084015181830152506101208084015183811115613c1457600080fd5b613c20888287016137aa565b918301919091525095945050505050565b60006101808284031215613c4457600080fd5b613c4c614117565b613c558361384f565b8152613c636020840161384f565b6020820152613c7460408401613832565b6040820152613c8560608401613844565b6060820152613c9660808401613844565b6080820152613ca760a08401613844565b60a082015260c0838101519082015260e08084015190820152610100808401519082015261012080840151908201526101408084015190820152610160928301519281019290925250919050565b600060208284031215613d0757600080fd5b5051919050565b60008060008060808587031215613d2457600080fd5b843593506020850135613d368161427c565b93969395505050506040820135916060013590565b600080600080600060a08688031215613d6357600080fd5b853594506020860135613d758161427c565b94979496505050506040830135926060810135926080909101359150565b600080600080600060a08688031215613dab57600080fd5b853594506020860135613dbd8161427c565b9350604086013592506060860135613dd481614294565b91506080860135613de481614294565b809150509295509295909350565b600080600060608486031215613e0757600080fd5b833592506020840135613e198161427c565b91506040840135613e2981614294565b809150509250925092565b600080600060608486031215613e4957600080fd5b833592506020840135613e5b8161427c565b91506040840135613e29816142a6565b600060208284031215613e7d57600080fd5b81516121e781614294565b600060208284031215613e9a57600080fd5b81516121e7816142a6565b7f416363657373436f6e74726f6c3a206163636f756e7420000000000000000000815260008351613edd8160178501602088016141f3565b7001034b99036b4b9b9b4b733903937b6329607d1b6017918401918201528351613f0e8160288401602088016141f3565b01602801949350505050565b91825260601b6bffffffffffffffffffffffff1916602082015260340190565b6020815260008251806020840152613f598160408501602087016141f3565b601f01601f19169190910160400192915050565b60208082526027908201527f423a4d4f443a2d4941444d2043616c6c65722021434f4e54524143545f41444d604082015266494e5f524f4c4560c81b606082015260800190565b60208082526023908201527f423a4d4f443a2d4941444d2043616c6c6572202141535345545f545846525f526040820152624f4c4560e81b606082015260800190565b6020808252602f908201527f443a4d4f442d4954483a2063616c6c657220646f6573206e6f7420686f6c642060408201526e39b832b1b4b334b2b2103a37b5b2b760891b606082015260800190565b60208082526026908201527f423a4d4f442d49503a43616c6c696e672061646472657373206973206e6f74206040820152653830bab9b2b960d11b606082015260800190565b60208082526010908201526f14185d5cd8589b194e881c185d5cd95960821b604082015260600190565b6020808252601f908201527f5265656e7472616e637947756172643a207265656e7472616e742063616c6c00604082015260600190565b604051610140810167ffffffffffffffff8111828210171561411157614111614266565b60405290565b604051610180810167ffffffffffffffff8111828210171561411157614111614266565b6000821982111561414e5761414e61423a565b500190565b60008261417057634e487b7160e01b600052601260045260246000fd5b500490565b600081600019048311821515161561418f5761418f61423a565b500290565b6000828210156141a6576141a661423a565b500390565b600063ffffffff838116908316818110156141c8576141c861423a565b039392505050565b600060ff821660ff8416808210156141ea576141ea61423a565b90039392505050565b60005b8381101561420e5781810151838201526020016141f6565b8381111561421d576000848401525b50505050565b6000816142325761423261423a565b506000190190565b634e487b7160e01b600052601160045260246000fd5b634e487b7160e01b600052603260045260246000fd5b634e487b7160e01b600052604160045260246000fd5b6001600160a01b038116811461429157600080fd5b50565b63ffffffff8116811461429157600080fd5b60ff8116811461429157600080fdfea264697066735822122001e952cbfcfc5ba63b33d44de9d6abe2432497d8342d5810cd541af3147cca1564736f6c63430008070033",
  "immutableReferences": {},
  "source": "/*--------------------------------------------------------PRF0.8.7\n__/\\\\\\\\\\\\\\\\\\\\\\\\\\ _____/\\\\\\\\\\\\\\\\\\ _______/\\\\__/\\\\ ___/\\\\\\\\\\\\\\\\\\\\\\\\\\\\\\        \n__\\/\\\\\\/////////\\\\\\ _/\\\\\\///////\\\\\\ ____\\//__\\//____\\/\\\\\\///////////__       \n___\\/\\\\\\_______\\/\\\\\\_\\/\\\\\\_____\\/\\\\\\ ________________\\/\\\\\\ ____________      \n____\\/\\\\\\\\\\\\\\\\\\\\\\\\\\/__\\/\\\\\\\\\\\\\\\\\\\\\\/_____/\\\\\\____/\\\\\\_\\/\\\\\\\\\\\\\\\\\\\\\\ ____     \n_____\\/\\\\\\/////////____\\/\\\\\\//////\\\\\\ ___\\/\\\\\\___\\/\\\\\\_\\/\\\\\\///////______\n______\\/\\\\\\ ____________\\/\\\\\\ ___\\//\\\\\\ __\\/\\\\\\___\\/\\\\\\_\\/\\\\\\ ____________\n_______\\/\\\\\\ ____________\\/\\\\\\ ____\\//\\\\\\ _\\/\\\\\\___\\/\\\\\\_\\/\\\\\\ ____________\n________\\/\\\\\\ ____________\\/\\\\\\ _____\\//\\\\\\_\\//\\\\\\\\\\\\\\\\\\ _\\/\\\\\\ ____________\n_________\\/// _____________\\/// _______\\/// __\\///////// __\\/// _____________\n*---------------------------------------------------------------------------*/\n\n/*-----------------------------------------------------------------\n * Decorates ERC721 compliant tokens with a PRUF record\n *----------------------------------------------------------------*/\n\n// Must set up a custodyType 5 node for decorated assets and auth this contract type 1. Root must be private to class.\n// Extended Data for nodes must be set to 0 <works with any ERC721>\n// or set to ERC721 contract address <works only with tokens from specified contract address>\n\n// SPDX-License-Identifier: UNLICENSED\npragma solidity ^0.8.7;\n\nimport \"../Resources/PRUF_CORE.sol\";\n//import \"../Imports/token/ERC721/IERC721.sol\";\n\ncontract DECORATE is CORE {\n    /**\n     * @dev Verify user credentials\n     * @param _tokenID - tokenID of token @_tokenContract caller is trying to interact with\n     * @param _tokenContract - token contract used to query _tokenID for owner identity\n     * Originating Address:\n     *   require that user holds token @ _tokencontract\n     */\n    modifier isTokenHolder(uint256 _tokenID, address _tokenContract) {\n        require(\n            (IERC721(_tokenContract).ownerOf(_tokenID) == _msgSender()),\n            \"D:MOD-ITH: caller does not hold specified token\"\n        );\n        _;\n    }\n\n    //-----------------------------------------External Functions--------------------------\n\n    /**\n     * @dev Decorates an external ERC721 with a PRF data record\n     * @param _tokenID - tokenID of token being decorated from @_tokenContract\n     * @param _tokenContract - token contract for @_tokenID\n     * @param _rgtHash - hash of new rightsholder information created by frontend inputs\n     * @param _node - node the @_tokenID will be decorated in\n     * @param _countDownStart - decremental counter for an assets lifecycle\n     */\n    function decorate721(\n        uint256 _tokenID,\n        address _tokenContract,\n        bytes32 _rgtHash,\n        uint32 _node,\n        uint32 _countDownStart\n    )\n        external\n        nonReentrant\n        whenNotPaused\n        isTokenHolder(_tokenID, _tokenContract)\n    {\n        //DPS:TEST\n        bytes32 idxHash = keccak256(abi.encodePacked(_tokenID, _tokenContract));\n        Record memory rec = getRecord(idxHash);\n        Node memory nodeInfo = getNodeinfoWithMinterCheck(_node);\n\n        require(nodeInfo.custodyType == 5, \"D:D:Node.custodyType != 5\");\n        require(\n            (nodeInfo.referenceAddress == _tokenContract) ||\n                (nodeInfo.referenceAddress == address(0)),\n            \"D:D:Node reference address must be '0' or ERC721 contract address\"\n        );\n        require(\n            rec.node == 0,\n            \"D:D:Wrapper, decoration, or record already exists\"\n        );\n\n        //^^^^^^^checks^^^^^^^^^\n\n        createRecordOnly(idxHash, _rgtHash, _node, _countDownStart);\n        deductServiceCosts(_node, 1);\n\n        //^^^^^^^interactions^^^^^^^^^\n    }\n\n    /**\n     * @dev Modify Record.assetStatus\n     * @param _tokenID - tokenID of assets token @_tokenContract\n     * @param _tokenContract - token contract of _tokenID\n     * @param _newAssetStatus - new status of decorated token (see docs)\n     */\n    function modifyStatus(\n        uint256 _tokenID,\n        address _tokenContract,\n        uint8 _newAssetStatus\n    )\n        external\n        nonReentrant\n        whenNotPaused\n        isTokenHolder(_tokenID, _tokenContract)\n    {\n        bytes32 idxHash = keccak256(abi.encodePacked(_tokenID, _tokenContract));\n        Record memory rec = getRecord(idxHash);\n        Node memory nodeInfo = getNodeinfo(rec.node);\n\n        require(\n            nodeInfo.custodyType == 5,\n            \"D:MS:Node.custodyType != 5 & record must exist\"\n        );\n        require(\n            (nodeInfo.referenceAddress == _tokenContract) ||\n                (nodeInfo.referenceAddress == address(0)),\n            \"D:MS:Node extended data must be '0' or ERC721 contract address\"\n        );\n        require(\n            (_newAssetStatus > 49) && (rec.assetStatus > 49), //Preferred\n            \"D:MS: cannot change status < 49\"\n        );\n        require(\n            (_newAssetStatus != 57) &&\n                (_newAssetStatus != 58) &&\n                (_newAssetStatus < 100),\n            \"D:MS: Stat Rsrvd\"\n        );\n        require(\n            needsImport(_newAssetStatus) == 0,\n            \"D:MS: Cannot place asset in unregistered, exported, or discarded status using modifyStatus\"\n        );\n        require(\n            needsImport(rec.assetStatus) == 0,\n            \"D:MS: Record in unregistered, exported, or discarded status\"\n        );\n        //^^^^^^^checks^^^^^^^^^\n\n        rec.assetStatus = _newAssetStatus;\n        //^^^^^^^effects^^^^^^^^^\n\n        writeRecord(idxHash, rec);\n        //^^^^^^^interactions^^^^^^^^^\n    }\n\n    /**\n     * @dev Decrement rec.countdown one-way counter\n     * @param _tokenID - tokenID of assets token @_tokenContract\n     * @param _tokenContract - token contract of _tokenID\n     * @param _decAmount - desired amount to deduct from countDownStart of asset\n     */\n    function decrementCounter(\n        uint256 _tokenID,\n        address _tokenContract,\n        uint32 _decAmount\n    )\n        external\n        nonReentrant\n        whenNotPaused\n        isTokenHolder(_tokenID, _tokenContract)\n    {\n        bytes32 idxHash = keccak256(abi.encodePacked(_tokenID, _tokenContract));\n        Record memory rec = getRecord(idxHash);\n        Node memory nodeInfo = getNodeinfo(rec.node);\n\n        require(\n            nodeInfo.custodyType == 5,\n            \"D:DC:Node.custodyType != 5 & record must exist\"\n        );\n        require(\n            (nodeInfo.referenceAddress == _tokenContract) ||\n                (nodeInfo.referenceAddress == address(0)),\n            \"D:DC:Node extended data must be '0' or ERC721 contract address\"\n        );\n\n        require( //DPS:TEST Retest reason for unreachable does not make sense\n            needsImport(rec.assetStatus) == 0,\n            \"D:DC: Record in unregistered, exported, or discarded status\"\n        );\n        //^^^^^^^checks^^^^^^^^^\n\n        if (rec.countDown > _decAmount) {\n            rec.countDown = rec.countDown - _decAmount;\n        } else {\n            rec.countDown = 0;\n        }\n        //^^^^^^^effects^^^^^^^^^\n\n        writeRecord(idxHash, rec);\n        deductServiceCosts(rec.node, 7);\n        //^^^^^^^interactions^^^^^^^^^\n    }\n\n    /**\n     * @dev Modify rec.mutableStorage1/b content adressable storage pointer\n     * @param _tokenID - tokenID of assets token @_tokenContract\n     * @param _tokenContract - token contract of _tokenID\n     * @param _mutableStorage1 - field for external asset data\n     * @param _mutableStorage2 - field for external asset data\n     */\n    function modifyMutableStorage(\n        uint256 _tokenID,\n        address _tokenContract,\n        bytes32 _mutableStorage1,\n        bytes32 _mutableStorage2\n    )\n        external\n        nonReentrant\n        whenNotPaused\n        isTokenHolder(_tokenID, _tokenContract)\n    {\n        bytes32 idxHash = keccak256(abi.encodePacked(_tokenID, _tokenContract));\n        Record memory rec = getRecord(idxHash);\n        Node memory nodeInfo = getNodeinfo(rec.node);\n\n        require( //CTS:EXAMINE - pretty sure this needs to be fixed to correctly allow modifications based on MT\n            nodeInfo.custodyType == 5,\n            \"D:MI1:Node.custodyType != 5 & record must exist\"\n        );\n        require(\n            (nodeInfo.managementType < 6),\n            \"C:CR:Contract does not support management types > 5 or node is locked\"\n        );\n        if ((nodeInfo.custodyType != 1) && (nodeInfo.managementType == 5)) {\n            require(\n                (NODE_TKN.ownerOf(rec.node) == _msgSender()),\n                \"C:WRMS: Caller must hold node (management type 5)\"\n            );\n        }\n        require(\n            (nodeInfo.referenceAddress == _tokenContract) ||\n                (nodeInfo.referenceAddress == address(0)),\n            \"D:MI1:Node extended data must be '0' or ERC721 contract address\"\n        );\n\n        require( //DPS:TEST unreachable reason does not make sense:UNREACHABLE. WOULD REQUIRE ROOT CLASSES TO BE CUSTODY TYPE 5\n            needsImport(rec.assetStatus) == 0,\n            \"D:MI1: Record in unregistered, exported, or discarded status\"\n        );\n\n        //^^^^^^^checks^^^^^^^^^\n\n        rec.mutableStorage1 = _mutableStorage1;\n        rec.mutableStorage2 = _mutableStorage2;\n        //^^^^^^^effects^^^^^^^^^\n\n        writeMutableStorage(idxHash, rec);\n        deductServiceCosts(rec.node, 8);\n        //^^^^^^^interactions^^^^^^^^^\n    }\n\n    /** //DPS:TEST:NEW PARAMS\n     * @dev SET rec.nonMutableStorage1/b (immutable) content adressable storage pointer\n     * @param _tokenID - tokenID of assets token @_tokenContract\n     * @param _tokenContract - token contract of _tokenID\n     * @param _nonMutableStorage1 - field for permanent external asset data\n     * @param _nonMutableStorage2 - field for permanent external asset data\n     * @param _URIhash - Hash of external CAS from URI\n     */\n    function addNonMutableStorage(\n        uint256 _tokenID,\n        address _tokenContract,\n        bytes32 _nonMutableStorage1,\n        bytes32 _nonMutableStorage2,\n        bytes32 _URIhash\n    )\n        external\n        nonReentrant\n        whenNotPaused\n        isTokenHolder(_tokenID, _tokenContract)\n    {\n        bytes32 idxHash = keccak256(abi.encodePacked(_tokenID, _tokenContract));\n        Record memory rec = getRecord(idxHash);\n        Node memory nodeInfo = getNodeinfo(rec.node);\n\n        require(\n            nodeInfo.custodyType == 5,\n            \"D:AI2:Node.custodyType != 5 & record must exist\"\n        );\n        require(\n            (nodeInfo.referenceAddress == _tokenContract) ||\n                (nodeInfo.referenceAddress == address(0)),\n            \"D:AI2:Node extended data must be '0' or ERC721 contract address\"\n        );\n\n        require(\n            needsImport(rec.assetStatus) == 0,\n            \"D:AI2: Record in unregistered, exported, or discarded status\"\n        );\n        //^^^^^^^checks^^^^^^^^^\n\n        rec.nonMutableStorage1 = _nonMutableStorage1;\n        rec.nonMutableStorage2 = _nonMutableStorage2;\n        rec.URIhash = _URIhash;\n        //^^^^^^^effects^^^^^^^^^\n\n        writeNonMutableStorage(idxHash, rec);\n        deductServiceCosts(rec.node, 3);\n        //^^^^^^^interactions^^^^^^^^^\n    }\n\n  \n\n    //--------------------------------------------INTERNAL Functions--------------------------\n\n    /**\n     * @dev create a Record in Storage @ idxHash (SETTER)\n     * @param _idxRaw - hash of asset information created by frontend inputs\n     * @param _rgtHash - hash of rightsholder information created by frontend inputs\n     * @param _node - node the asset will be created in\n     * @param _countDownStart - decremental counter for an assets lifecycle\n     */\n    function createRecordOnly(\n        bytes32 _idxRaw,\n        bytes32 _rgtHash,\n        uint32 _node,\n        uint32 _countDownStart\n    ) internal {\n        bytes32 idxHash = keccak256(abi.encodePacked(_idxRaw, _node)); //hash idxRaw with node to get idxHash DPS:TEST\n        uint256 tokenId = uint256(idxHash);\n        Node memory nodeInfo = getNodeinfoWithMinterCheck(_node);\n\n        require(\n            A_TKN.tokenExists(tokenId) == 0,\n            \"D:CRO: token is already wrapped. Must discard wrapper before decorating\"\n        );\n        require(\n            nodeInfo.custodyType == 5,\n            \"D:CRO:Node.custodyType must be 5 (wrapped/decorated erc721)\"\n        );\n\n        //^^^^^^^checks^^^^^^^^^\n\n        STOR.newRecord(idxHash, _rgtHash, 0x0, _node, _countDownStart);\n        //^^^^^^^interactions^^^^^^^^^\n    }\n}\n",
  "sourcePath": "/Users/drake/Documents/DEV/PRUF/PRUF_TRUFFLE/contracts/InProgress/PRUF_DECORATE.sol",
  "compiler": {
    "name": "solc",
    "version": "0.8.7+commit.e28d00a7.Emscripten.clang"
  },
  "schemaVersion": "3.4.3",
  "updatedAt": "2021-10-26T17:58:04.005Z",
  "devdoc": {
    "kind": "dev",
    "methods": {
      "ERC20Transfer(address,address,uint256)": {
        "details": "send an ERC20 token from this contract",
        "params": {
          "_amount": "amount to transfer",
          "_to": "destination",
          "_tokenContract": "Address of foreign token contract"
        }
      },
      "ERC721Transfer(address,address,uint256)": {
        "details": "send an ERC721 token from this contract",
        "params": {
          "_to": "destination",
          "_tokenContract": "Address of foreign token contract",
          "_tokenID": "Token ID"
        }
      },
      "addNonMutableStorage(uint256,address,bytes32,bytes32,bytes32)": {
        "details": "SET rec.nonMutableStorage1/b (immutable) content adressable storage pointer",
        "params": {
          "_URIhash": "- Hash of external CAS from URI",
          "_nonMutableStorage1": "- field for permanent external asset data",
          "_nonMutableStorage2": "- field for permanent external asset data",
          "_tokenContract": "- token contract of _tokenID",
          "_tokenID": "- tokenID of assets token @_tokenContract"
        }
      },
      "decorate721(uint256,address,bytes32,uint32,uint32)": {
        "details": "Decorates an external ERC721 with a PRF data record",
        "params": {
          "_countDownStart": "- decremental counter for an assets lifecycle",
          "_node": "- node the @_tokenID will be decorated in",
          "_rgtHash": "- hash of new rightsholder information created by frontend inputs",
          "_tokenContract": "- token contract for @_tokenID",
          "_tokenID": "- tokenID of token being decorated from @_tokenContract"
        }
      },
      "decrementCounter(uint256,address,uint32)": {
        "details": "Decrement rec.countdown one-way counter",
        "params": {
          "_decAmount": "- desired amount to deduct from countDownStart of asset",
          "_tokenContract": "- token contract of _tokenID",
          "_tokenID": "- tokenID of assets token @_tokenContract"
        }
      },
      "getRoleAdmin(bytes32)": {
        "details": "Returns the admin role that controls `role`. See {grantRole} and {revokeRole}. To change a role's admin, use {_setRoleAdmin}."
      },
      "grantRole(bytes32,address)": {
        "details": "Grants `role` to `account`. If `account` had not been already granted `role`, emits a {RoleGranted} event. Requirements: - the caller must have ``role``'s admin role."
      },
      "hasRole(bytes32,address)": {
        "details": "Returns `true` if `account` has been granted `role`."
      },
      "modifyMutableStorage(uint256,address,bytes32,bytes32)": {
        "details": "Modify rec.mutableStorage1/b content adressable storage pointer",
        "params": {
          "_mutableStorage1": "- field for external asset data",
          "_mutableStorage2": "- field for external asset data",
          "_tokenContract": "- token contract of _tokenID",
          "_tokenID": "- tokenID of assets token @_tokenContract"
        }
      },
      "modifyStatus(uint256,address,uint8)": {
        "details": "Modify Record.assetStatus",
        "params": {
          "_newAssetStatus": "- new status of decorated token (see docs)",
          "_tokenContract": "- token contract of _tokenID",
          "_tokenID": "- tokenID of assets token @_tokenContract"
        }
      },
      "onERC721Received(address,address,uint256,bytes)": {
        "details": "Compliance for erc721 reciever See OZ documentation"
      },
      "paused()": {
        "details": "Returns true if the contract is paused, and false otherwise."
      },
      "renounceRole(bytes32,address)": {
        "details": "Revokes `role` from the calling account. Roles are often managed via {grantRole} and {revokeRole}: this function's purpose is to provide a mechanism for accounts to lose their privileges if they are compromised (such as when a trusted device is misplaced). If the calling account had been granted `role`, emits a {RoleRevoked} event. Requirements: - the caller must be `account`."
      },
      "resolveContractAddresses()": {
        "details": "Resolve contract addresses from STOR"
      },
      "revokeRole(bytes32,address)": {
        "details": "Revokes `role` from `account`. If `account` had been granted `role`, emits a {RoleRevoked} event. Requirements: - the caller must have ``role``'s admin role."
      },
      "setStorageContract(address)": {
        "details": "Set address of STOR contract to interface with",
        "params": {
          "_storageAddress": "address of PRUF_STOR"
        }
      },
      "supportsInterface(bytes4)": {
        "details": "See {IERC165-supportsInterface}."
      }
    },
    "version": 1
  },
  "userdoc": {
    "kind": "user",
    "methods": {
      "addNonMutableStorage(uint256,address,bytes32,bytes32,bytes32)": {
        "notice": "//DPS:TEST:NEW PARAMS"
      }
    },
    "version": 1
  }
}