{
  "contractName": "ECR",
  "abi": [
    {
      "anonymous": false,
      "inputs": [
        {
          "indexed": false,
          "internalType": "address",
          "name": "account",
          "type": "address"
        }
      ],
      "name": "Paused",
      "type": "event"
    },
    {
      "anonymous": false,
      "inputs": [
        {
          "indexed": false,
          "internalType": "string",
          "name": "_msg",
          "type": "string"
        }
      ],
      "name": "REPORT",
      "type": "event"
    },
    {
      "anonymous": false,
      "inputs": [
        {
          "indexed": true,
          "internalType": "bytes32",
          "name": "role",
          "type": "bytes32"
        },
        {
          "indexed": true,
          "internalType": "bytes32",
          "name": "previousAdminRole",
          "type": "bytes32"
        },
        {
          "indexed": true,
          "internalType": "bytes32",
          "name": "newAdminRole",
          "type": "bytes32"
        }
      ],
      "name": "RoleAdminChanged",
      "type": "event"
    },
    {
      "anonymous": false,
      "inputs": [
        {
          "indexed": true,
          "internalType": "bytes32",
          "name": "role",
          "type": "bytes32"
        },
        {
          "indexed": true,
          "internalType": "address",
          "name": "account",
          "type": "address"
        },
        {
          "indexed": true,
          "internalType": "address",
          "name": "sender",
          "type": "address"
        }
      ],
      "name": "RoleGranted",
      "type": "event"
    },
    {
      "anonymous": false,
      "inputs": [
        {
          "indexed": true,
          "internalType": "bytes32",
          "name": "role",
          "type": "bytes32"
        },
        {
          "indexed": true,
          "internalType": "address",
          "name": "account",
          "type": "address"
        },
        {
          "indexed": true,
          "internalType": "address",
          "name": "sender",
          "type": "address"
        }
      ],
      "name": "RoleRevoked",
      "type": "event"
    },
    {
      "anonymous": false,
      "inputs": [
        {
          "indexed": false,
          "internalType": "address",
          "name": "account",
          "type": "address"
        }
      ],
      "name": "Unpaused",
      "type": "event"
    },
    {
      "inputs": [],
      "name": "ASSET_TXFR_ROLE",
      "outputs": [
        {
          "internalType": "bytes32",
          "name": "",
          "type": "bytes32"
        }
      ],
      "stateMutability": "view",
      "type": "function"
    },
    {
      "inputs": [],
      "name": "CONTRACT_ADMIN_ROLE",
      "outputs": [
        {
          "internalType": "bytes32",
          "name": "",
          "type": "bytes32"
        }
      ],
      "stateMutability": "view",
      "type": "function"
    },
    {
      "inputs": [],
      "name": "DEFAULT_ADMIN_ROLE",
      "outputs": [
        {
          "internalType": "bytes32",
          "name": "",
          "type": "bytes32"
        }
      ],
      "stateMutability": "view",
      "type": "function"
    },
    {
      "inputs": [],
      "name": "OO_resolveContractAddresses",
      "outputs": [],
      "stateMutability": "nonpayable",
      "type": "function"
    },
    {
      "inputs": [
        {
          "internalType": "address",
          "name": "_storageAddress",
          "type": "address"
        }
      ],
      "name": "OO_setStorageContract",
      "outputs": [],
      "stateMutability": "nonpayable",
      "type": "function"
    },
    {
      "inputs": [
        {
          "internalType": "address",
          "name": "_to",
          "type": "address"
        },
        {
          "internalType": "uint256",
          "name": "_tokenID",
          "type": "uint256"
        }
      ],
      "name": "OO_transferACToken",
      "outputs": [],
      "stateMutability": "nonpayable",
      "type": "function"
    },
    {
      "inputs": [],
      "name": "PAUSER_ROLE",
      "outputs": [
        {
          "internalType": "bytes32",
          "name": "",
          "type": "bytes32"
        }
      ],
      "stateMutability": "view",
      "type": "function"
    },
    {
      "inputs": [
        {
          "internalType": "bytes32",
          "name": "role",
          "type": "bytes32"
        }
      ],
      "name": "getRoleAdmin",
      "outputs": [
        {
          "internalType": "bytes32",
          "name": "",
          "type": "bytes32"
        }
      ],
      "stateMutability": "view",
      "type": "function"
    },
    {
      "inputs": [
        {
          "internalType": "bytes32",
          "name": "role",
          "type": "bytes32"
        },
        {
          "internalType": "uint256",
          "name": "index",
          "type": "uint256"
        }
      ],
      "name": "getRoleMember",
      "outputs": [
        {
          "internalType": "address",
          "name": "",
          "type": "address"
        }
      ],
      "stateMutability": "view",
      "type": "function"
    },
    {
      "inputs": [
        {
          "internalType": "bytes32",
          "name": "role",
          "type": "bytes32"
        }
      ],
      "name": "getRoleMemberCount",
      "outputs": [
        {
          "internalType": "uint256",
          "name": "",
          "type": "uint256"
        }
      ],
      "stateMutability": "view",
      "type": "function"
    },
    {
      "inputs": [
        {
          "internalType": "bytes32",
          "name": "role",
          "type": "bytes32"
        },
        {
          "internalType": "address",
          "name": "account",
          "type": "address"
        }
      ],
      "name": "grantRole",
      "outputs": [],
      "stateMutability": "nonpayable",
      "type": "function"
    },
    {
      "inputs": [
        {
          "internalType": "bytes32",
          "name": "role",
          "type": "bytes32"
        },
        {
          "internalType": "address",
          "name": "account",
          "type": "address"
        }
      ],
      "name": "hasRole",
      "outputs": [
        {
          "internalType": "bool",
          "name": "",
          "type": "bool"
        }
      ],
      "stateMutability": "view",
      "type": "function"
    },
    {
      "inputs": [
        {
          "internalType": "address",
          "name": "",
          "type": "address"
        },
        {
          "internalType": "address",
          "name": "",
          "type": "address"
        },
        {
          "internalType": "uint256",
          "name": "",
          "type": "uint256"
        },
        {
          "internalType": "bytes",
          "name": "",
          "type": "bytes"
        }
      ],
      "name": "onERC721Received",
      "outputs": [
        {
          "internalType": "bytes4",
          "name": "",
          "type": "bytes4"
        }
      ],
      "stateMutability": "nonpayable",
      "type": "function"
    },
    {
      "inputs": [],
      "name": "pause",
      "outputs": [],
      "stateMutability": "nonpayable",
      "type": "function"
    },
    {
      "inputs": [],
      "name": "paused",
      "outputs": [
        {
          "internalType": "bool",
          "name": "",
          "type": "bool"
        }
      ],
      "stateMutability": "view",
      "type": "function"
    },
    {
      "inputs": [
        {
          "internalType": "bytes32",
          "name": "role",
          "type": "bytes32"
        },
        {
          "internalType": "address",
          "name": "account",
          "type": "address"
        }
      ],
      "name": "renounceRole",
      "outputs": [],
      "stateMutability": "nonpayable",
      "type": "function"
    },
    {
      "inputs": [
        {
          "internalType": "bytes32",
          "name": "role",
          "type": "bytes32"
        },
        {
          "internalType": "address",
          "name": "account",
          "type": "address"
        }
      ],
      "name": "revokeRole",
      "outputs": [],
      "stateMutability": "nonpayable",
      "type": "function"
    },
    {
      "inputs": [
        {
          "internalType": "address",
          "name": "_to",
          "type": "address"
        },
        {
          "internalType": "bytes32",
          "name": "_idxHash",
          "type": "bytes32"
        }
      ],
      "name": "transferAssetToken",
      "outputs": [],
      "stateMutability": "nonpayable",
      "type": "function"
    },
    {
      "inputs": [],
      "name": "unpause",
      "outputs": [],
      "stateMutability": "nonpayable",
      "type": "function"
    },
    {
      "inputs": [
        {
          "internalType": "bytes32",
          "name": "_idxHash",
          "type": "bytes32"
        },
        {
          "internalType": "bytes32",
          "name": "_escrowOwnerHash",
          "type": "bytes32"
        },
        {
          "internalType": "uint256",
          "name": "_escrowTime",
          "type": "uint256"
        },
        {
          "internalType": "uint8",
          "name": "_escrowStatus",
          "type": "uint8"
        }
      ],
      "name": "setEscrow",
      "outputs": [],
      "stateMutability": "nonpayable",
      "type": "function"
    },
    {
      "inputs": [
        {
          "internalType": "bytes32",
          "name": "_idxHash",
          "type": "bytes32"
        },
        {
          "internalType": "bytes32",
          "name": "_escrowOwnerHash",
          "type": "bytes32"
        },
        {
          "internalType": "uint256",
          "name": "_escrowTime",
          "type": "uint256"
        },
        {
          "internalType": "uint8",
          "name": "_escrowStatus",
          "type": "uint8"
        }
      ],
      "name": "setEscrowExtendedData",
      "outputs": [],
      "stateMutability": "nonpayable",
      "type": "function"
    },
    {
      "inputs": [
        {
          "internalType": "bytes32",
          "name": "_idxHash",
          "type": "bytes32"
        }
      ],
      "name": "endEscrow",
      "outputs": [],
      "stateMutability": "nonpayable",
      "type": "function"
    }
  ],
  "bytecode": "0x60806040523480156200001157600080fd5b50600160009081556002805460ff191690556200003890620000326200009c565b620000a0565b620000677f2ce8d04a9c35987429af538825cd2438cc5c5bb5dc427955f84daaa3ea105016620000326200009c565b620000967f65d7a28e3265b37a6474929f336521b332c1681b933f6cb9f3376673440d862a620000326200009c565b620001b2565b3390565b620000ac8282620000b0565b5050565b6000828152600160209081526040909120620000d791839062001ce06200012b821b17901c565b15620000ac57620000e76200009c565b6001600160a01b0316816001600160a01b0316837f2f8788117e7eff1d82e926ec794901d17c78024a50270940304540a733656f0d60405160405180910390a45050565b600062000142836001600160a01b0384166200014b565b90505b92915050565b60006200015983836200019a565b620001915750815460018181018455600084815260208082209093018490558454848252828601909352604090209190915562000145565b50600062000145565b60009081526001919091016020526040902054151590565b612b9580620001c26000396000f3fe608060405234801561001057600080fd5b50600436106101425760003560e01c80639010d07c116100b8578063ca15c8731161007c578063ca15c873146103e8578063d547741f14610405578063d6b02ecf14610431578063e63ab1e914610457578063e8b416531461045f578063e8e1152c1461046757610142565b80639010d07c1461031757806391d148541461035657806392ba3da614610382578063a217fddf146103ae578063b29c3959146103b657610142565b806336568abe1161010a57806336568abe146102615780633f4ba83a1461028d578063440e7a7e146102955780635c975abb146102c15780638456cb59146102dd57806385ca0f41146102e557610142565b80631429db5f14610147578063150b7a02146101615780631da033121461020e578063248a9ca3146102165780632f2ff15d14610233575b600080fd5b61014f610484565b60408051918252519081900360200190f35b6101f16004803603608081101561017757600080fd5b6001600160a01b038235811692602081013590911691604082013591908101906080810160608201356401000000008111156101b257600080fd5b8201836020820111156101c457600080fd5b803590602001918460018302840111640100000000831117156101e657600080fd5b5090925090506104a8565b604080516001600160e01b03199092168252519081900360200190f35b61014f6104b9565b61014f6004803603602081101561022c57600080fd5b50356104cb565b61025f6004803603604081101561024957600080fd5b50803590602001356001600160a01b03166104e0565b005b61025f6004803603604081101561027757600080fd5b50803590602001356001600160a01b031661054c565b61025f6105ad565b61025f600480360360408110156102ab57600080fd5b506001600160a01b03813516906020013561061e565b6102c9610766565b604080519115158252519081900360200190f35b61025f61076f565b61025f600480360360808110156102fb57600080fd5b508035906020810135906040810135906060013560ff166107de565b61033a6004803603604081101561032d57600080fd5b5080359060200135610b50565b604080516001600160a01b039092168252519081900360200190f35b6102c96004803603604081101561036c57600080fd5b50803590602001356001600160a01b0316610b71565b61025f6004803603604081101561039857600080fd5b506001600160a01b038135169060200135610b89565b61014f610ca3565b61025f600480360360808110156103cc57600080fd5b508035906020810135906040810135906060013560ff16610ca8565b61014f600480360360208110156103fe57600080fd5b5035610fd2565b61025f6004803603604081101561041b57600080fd5b50803590602001356001600160a01b0316610fe9565b61025f6004803603602081101561044757600080fd5b50356001600160a01b0316611042565b61014f6110fe565b61025f611122565b61025f6004803603602081101561047d57600080fd5b50356118ac565b7f7f1e4e9f3d9ba0452a25cfef4cd4c6ffc86158d06ed2f585fa0093e12dec429c81565b630a85bd0160e11b95945050505050565b600080516020612aba83398151915281565b60009081526001602052604090206002015490565b600082815260016020526040902060020154610503906104fe611cf5565b610b71565b61053e5760405162461bcd60e51b815260040180806020018281038252602f81526020018061290c602f913960400191505060405180910390fd5b6105488282611cf9565b5050565b610554611cf5565b6001600160a01b0316816001600160a01b0316146105a35760405162461bcd60e51b815260040180806020018281038252602f815260200180612b31602f913960400191505060405180910390fd5b6105488282611d62565b6105d97f65d7a28e3265b37a6474929f336521b332c1681b933f6cb9f3376673440d862a6104fe611cf5565b6106145760405162461bcd60e51b8152600401808060200182810382526027815260200180612ada6027913960400191505060405180910390fd5b61061c611dcb565b565b60026000541415610664576040805162461bcd60e51b815260206004820152601f602482015260008051602061293b833981519152604482015290519081900360640190fd5b60026000556106957f7f1e4e9f3d9ba0452a25cfef4cd4c6ffc86158d06ed2f585fa0093e12dec429c6104fe611cf5565b6106e6576040805162461bcd60e51b815260206004820152601e60248201527f423a54583a4d75737420686176652041535345545f545846525f524f4c450000604482015290519081900360640190fd5b60095460408051632142170760e11b81523060048201526001600160a01b038581166024830152604482018590529151849392909216916342842e0e9160648082019260009290919082900301818387803b15801561074457600080fd5b505af1158015610758573d6000803e3d6000fd5b505060016000555050505050565b60025460ff1690565b61079b7f65d7a28e3265b37a6474929f336521b332c1681b933f6cb9f3376673440d862a6104fe611cf5565b6107d65760405162461bcd60e51b8152600401808060200182810382526027815260200180612ada6027913960400191505060405180910390fd5b61061c611e69565b60026000541415610824576040805162461bcd60e51b815260206004820152601f602482015260008051602061293b833981519152604482015290519081900360640190fd5b60026000908155601254600954604080516331a9108f60e11b8152600481018990529051889485946001600160a01b03908116941692636352211e9260248083019360209383900390910190829087803b15801561088157600080fd5b505af1158015610895573d6000803e3d6000fd5b505050506040513d60208110156108ab57600080fd5b50516001600160a01b0316146108f25760405162461bcd60e51b815260040180806020018281038252602a81526020018061295b602a913960400191505060405180910390fd5b6108fa6127a2565b61090387611eea565b90506000610914826020015161206c565b905060006109224288612131565b9050600061092e6127ee565b61093c30866020015161218b565b805190915060ff16610995576040805162461bcd60e51b815260206004820152601d60248201527f453a53453a20636f6e7472616374206e6f74206175746820696e204143000000604482015290519081900360640190fd5b60008460ff161180156109ab5750600a8460ff16105b6109f8576040805162461bcd60e51b8152602060048201526019602482015278453a53453a2075736572206e6f74206175746820696e20414360381b604482015290519081900360640190fd5b42831015610a375760405162461bcd60e51b8152600401808060200182810382526030815260200180612b016030913960400191505060405180910390fd5b60058460ff161080610a69575060048460ff16118015610a5a5750600a8460ff16105b8015610a69575060318860ff16115b610aa45760405162461bcd60e51b815260040180806020018281038252603e81526020018061286a603e913960400191505060405180910390fd5b8760ff16603c1415610ae75760405162461bcd60e51b81526004018080602001828103825260248152602001806129d06024913960400191505060405180910390fd5b879150610af2612805565b60058152610afe611cf5565b6001600160a01b031660e0820152610b14612805565b61270f60c0820152610b288d858e88612236565b610b328d83612303565b610b3c8d82612425565b505060016000555050505050505050505050565b6000828152600160205260408120610b689083612525565b90505b92915050565b6000828152600160205260408120610b689083612531565b610ba3600080516020612aba8339815191526104fe611cf5565b610bde5760405162461bcd60e51b81526004018080602001828103825260268152602001806129856026913960400191505060405180910390fd5b60026000541415610c24576040805162461bcd60e51b815260206004820152601f602482015260008051602061293b833981519152604482015290519081900360640190fd5b60026000908155600b5460408051632142170760e11b81523060048201526001600160a01b03868116602483015260448201869052915191909216926342842e0e926064808201939182900301818387803b158015610c8257600080fd5b505af1158015610c96573d6000803e3d6000fd5b5050600160005550505050565b600081565b60026000541415610cee576040805162461bcd60e51b815260206004820152601f602482015260008051602061293b833981519152604482015290519081900360640190fd5b60026000908155601254600954604080516331a9108f60e11b8152600481018990529051889485946001600160a01b03908116941692636352211e9260248083019360209383900390910190829087803b158015610d4b57600080fd5b505af1158015610d5f573d6000803e3d6000fd5b505050506040513d6020811015610d7557600080fd5b50516001600160a01b031614610dbc5760405162461bcd60e51b815260040180806020018281038252602a81526020018061295b602a913960400191505060405180910390fd5b610dc46127a2565b610dcd87611eea565b90506000610dde826020015161206c565b90506000610dec4288612131565b90506000610df86127ee565b610e0630866020015161218b565b805190915060ff16610e5f576040805162461bcd60e51b815260206004820152601d60248201527f453a53453a20636f6e7472616374206e6f74206175746820696e204143000000604482015290519081900360640190fd5b60008460ff16118015610e755750600a8460ff16105b610ec2576040805162461bcd60e51b8152602060048201526019602482015278453a53453a2075736572206e6f74206175746820696e20414360381b604482015290519081900360640190fd5b42831015610f015760405162461bcd60e51b8152600401808060200182810382526030815260200180612b016030913960400191505060405180910390fd5b60058460ff161080610f33575060048460ff16118015610f245750600a8460ff16105b8015610f33575060318860ff16115b610f6e5760405162461bcd60e51b81526004018080602001828103825260428152602001806128ca6042913960600191505060405180910390fd5b8760ff16603c1415610fb15760405162461bcd60e51b81526004018080602001828103825260248152602001806129d06024913960400191505060405180910390fd5b879150610fc08b838c86612236565b50506001600055505050505050505050565b6000818152600160205260408120610b6b90612546565b600082815260016020526040902060020154611007906104fe611cf5565b6105a35760405162461bcd60e51b81526004018080602001828103825260308152602001806129f46030913960400191505060405180910390fd5b61105c600080516020612aba8339815191526104fe611cf5565b6110975760405162461bcd60e51b81526004018080602001828103825260268152602001806129856026913960400191505060405180910390fd5b6001600160a01b0381166110dc5760405162461bcd60e51b81526004018080602001828103825260258152602001806129ab6025913960400191505060405180910390fd5b600380546001600160a01b0319166001600160a01b0392909216919091179055565b7f65d7a28e3265b37a6474929f336521b332c1681b933f6cb9f3376673440d862a81565b60026000541415611168576040805162461bcd60e51b815260206004820152601f602482015260008051602061293b833981519152604482015290519081900360640190fd5b6002600055611187600080516020612aba8339815191526104fe611cf5565b6111c25760405162461bcd60e51b81526004018080602001828103825260268152602001806129856026913960400191505060405180910390fd5b600354604080516363b8d4c160e11b8152602060048201819052600660248301526520a1afaa25a760d11b604483015291516001600160a01b039093169263c771a98292606480840193919291829003018186803b15801561122357600080fd5b505afa158015611237573d6000803e3d6000fd5b505050506040513d602081101561124d57600080fd5b5051600a80546001600160a01b039283166001600160a01b03199182161791829055600b8054909116918316919091179055600354604080516363b8d4c160e11b8152602060048201819052600660248301526520a1afa6a3a960d11b60448301529151929093169263c771a9829260648083019392829003018186803b1580156112d757600080fd5b505afa1580156112eb573d6000803e3d6000fd5b505050506040513d602081101561130157600080fd5b5051600480546001600160a01b039283166001600160a01b03199182161780835560058054909216908416179055600354604080516363b8d4c160e11b8152602093810184905260086024820152672aaa24a62faa25a760c11b60448201529051919093169263c771a982926064808301939192829003018186803b15801561138957600080fd5b505afa15801561139d573d6000803e3d6000fd5b505050506040513d60208110156113b357600080fd5b5051600680546001600160a01b039283166001600160a01b0319918216179182905560078054909116918316919091179055600354604080516363b8d4c160e11b8152602060048201819052600560248301526420afaa25a760d91b60448301529151929093169263c771a9829260648083019392829003018186803b15801561143c57600080fd5b505afa158015611450573d6000803e3d6000fd5b505050506040513d602081101561146657600080fd5b5051600880546001600160a01b039283166001600160a01b0319918216179182905560098054909116918316919091179055600354604080516363b8d4c160e11b8152602060048201819052600660248301526524a22faa25a760d11b60448301529151929093169263c771a9829260648083019392829003018186803b1580156114f057600080fd5b505afa158015611504573d6000803e3d6000fd5b505050506040513d602081101561151a57600080fd5b5051600c80546001600160a01b039283166001600160a01b03199182161791829055600d8054909116918316919091179055600354604080516363b8d4c160e11b8152602060048201819052600760248301526622a1a92fa6a3a960c91b60448301529151929093169263c771a9829260648083019392829003018186803b1580156115a557600080fd5b505afa1580156115b9573d6000803e3d6000fd5b505050506040513d60208110156115cf57600080fd5b5051600e80546001600160a01b039283166001600160a01b03199182161791829055600f805490911691831691909117905560038054604080516363b8d4c160e11b815260206004820181905260248201949094526204150560ec1b60448201529051919093169263c771a982926064808301939192829003018186803b15801561165957600080fd5b505afa15801561166d573d6000803e3d6000fd5b505050506040513d602081101561168357600080fd5b5051601280546001600160a01b039283166001600160a01b0319918216179182905560138054909116918316919091179055600354604080516363b8d4c160e11b8152602060048083018290526024830152632921a62960e11b60448301529151929093169263c771a9829260648083019392829003018186803b15801561170a57600080fd5b505afa15801561171e573d6000803e3d6000fd5b505050506040513d602081101561173457600080fd5b5051601080546001600160a01b039283166001600160a01b0319918216179182905560118054909116918316919091179055600354604080516363b8d4c160e11b815260206004820181905260066024830152654150505f4e4360d01b60448301529151929093169263c771a9829260648083019392829003018186803b1580156117be57600080fd5b505afa1580156117d2573d6000803e3d6000fd5b505050506040513d60208110156117e857600080fd5b5051601480546001600160a01b0319166001600160a01b03928316179055600354604080516363b8d4c160e11b8152602060048201819052600260248301526104e560f41b60448301529151929093169263c771a9829260648083019392829003018186803b15801561185a57600080fd5b505afa15801561186e573d6000803e3d6000fd5b505050506040513d602081101561188457600080fd5b5051601780546001600160a01b0319166001600160a01b039092169190911790556001600055565b600260005414156118f2576040805162461bcd60e51b815260206004820152601f602482015260008051602061293b833981519152604482015290519081900360640190fd5b60026000908155601254600954604080516331a9108f60e11b8152600481018690529051859485946001600160a01b03908116941692636352211e9260248083019360209383900390910190829087803b15801561194f57600080fd5b505af1158015611963573d6000803e3d6000fd5b505050506040513d602081101561197957600080fd5b50516001600160a01b0316146119c05760405162461bcd60e51b815260040180806020018281038252602a81526020018061295b602a913960400191505060405180910390fd5b6119c86127a2565b6119d184611eea565b90506119db612849565b6119e485612551565b90506119ee6127ee565b6119fc30846020015161218b565b90506000611a0d846020015161206c565b600f546040805163019b0f5f60e01b8152600481018b905290519293506000926001600160a01b039092169163019b0f5f9160248082019260209290919082900301818787803b158015611a6057600080fd5b505af1158015611a74573d6000803e3d6000fd5b505050506040513d6020811015611a8a57600080fd5b5051835190915060ff16611ae5576040805162461bcd60e51b815260206004820152601d60248201527f453a45453a20636f6e7472616374206e6f74206175746820696e204143000000604482015290519081900360640190fd5b60008260ff16118015611afb5750600a8260ff16105b611b4c576040805162461bcd60e51b815260206004820152601960248201527f453a45453a2075736572206e6f74206175746820696e20414300000000000000604482015290519081900360640190fd5b846000015160ff16603c1415611b935760405162461bcd60e51b8152600401808060200182810382526025815260200180612a956025913960400191505060405180910390fd5b6031856000015160ff161180611bac575060058260ff16105b611be75760405162461bcd60e51b8152600401808060200182810382526036815260200180612a246036913960400191505060405180910390fd5b4284604001511080611c31575080611bfd611cf5565b60405160200180826001600160a01b031660601b815260140191505060405160208183030381529060405280519060200120145b611c6c5760405162461bcd60e51b815260040180806020018281038252603b815260200180612a5a603b913960400191505060405180910390fd5b600f5460408051633a38454b60e21b8152600481018b905290516001600160a01b039092169163e8e1152c9160248082019260009290919082900301818387803b158015611cb957600080fd5b505af1158015611ccd573d6000803e3d6000fd5b5050600160005550505050505050505050565b6000610b68836001600160a01b0384166125fd565b3390565b6000828152600160205260409020611d119082611ce0565b1561054857611d1e611cf5565b6001600160a01b0316816001600160a01b0316837f2f8788117e7eff1d82e926ec794901d17c78024a50270940304540a733656f0d60405160405180910390a45050565b6000828152600160205260409020611d7a9082612647565b1561054857611d87611cf5565b6001600160a01b0316816001600160a01b0316837ff6391f5c32d9c69d2a47ea670b442974b53935d1edc7fd64eb21e047a839171b60405160405180910390a45050565b60025460ff16611e19576040805162461bcd60e51b815260206004820152601460248201527314185d5cd8589b194e881b9bdd081c185d5cd95960621b604482015290519081900360640190fd5b6002805460ff191690557f5db9ee0a495bf2e6ff9c91a7834c1ba4fdd244a5e8aa4e537bd38aeae4b073aa611e4c611cf5565b604080516001600160a01b039092168252519081900360200190a1565b60025460ff1615611eb4576040805162461bcd60e51b815260206004820152601060248201526f14185d5cd8589b194e881c185d5cd95960821b604482015290519081900360640190fd5b6002805460ff191660011790557f62e78cea01bee320cd4e420270b5ea74000d11b0c9f74754ebdbfc544b05a258611e4c611cf5565b611ef26127a2565b611efa6127a2565b6000806000806000806000600360009054906101000a90046001600160a01b03166001600160a01b031663e248f2c48b6040518263ffffffff1660e01b81526004018082815260200191505060e06040518083038186803b158015611f5e57600080fd5b505afa158015611f72573d6000803e3d6000fd5b505050506040513d60e0811015611f8857600080fd5b81019080805190602001909291908051906020019092919080519060200190929190805190602001909291908051906020019092919080519060200190929190805190602001909291905050509650965096509650965096509650868860c001818152505085886000019060ff16908160ff168152505084886020019063ffffffff16908163ffffffff168152505083886040019063ffffffff16908163ffffffff168152505082886060019063ffffffff16908163ffffffff1681525050818860e001818152505080886101000181815250505050505050505080915050919050565b60055460009081906001600160a01b0316639d2c7cee61208a611cf5565b60405160200180826001600160a01b031660601b815260140191505060405160208183030381529060405280519060200120856040518363ffffffff1660e01b8152600401808381526020018263ffffffff1681526020019250505060206040518083038186803b1580156120fe57600080fd5b505afa158015612112573d6000803e3d6000fd5b505050506040513d602081101561212857600080fd5b50519392505050565b600082820183811015610b68576040805162461bcd60e51b815260206004820152601b60248201527f536166654d6174683a206164646974696f6e206f766572666c6f770000000000604482015290519081900360640190fd5b6121936127ee565b61219b6127ee565b60035460408051636fcfb49b60e11b81526001600160a01b03878116600483015263ffffffff87166024830152825193169263df9f693692604480840193919291829003018186803b1580156121f057600080fd5b505afa158015612204573d6000803e3d6000fd5b505050506040513d604081101561221a57600080fd5b5080516020918201519183019190915260ff1681529392505050565b60025460ff1615612281576040805162461bcd60e51b815260206004820152601060248201526f14185d5cd8589b194e881c185d5cd95960821b604482015290519081900360640190fd5b600f5460408051637318462b60e11b81526004810187905260ff86166024820152604481018590526064810184905290516001600160a01b039092169163e6308c569160848082019260009290919082900301818387803b1580156122e557600080fd5b505af11580156122f9573d6000803e3d6000fd5b5050505050505050565b60025460ff161561234e576040805162461bcd60e51b815260206004820152601060248201526f14185d5cd8589b194e881c185d5cd95960821b604482015290519081900360640190fd5b600f54815160208301516040808501516060860151608087015160a088015160c089015160e08a0151865163333c25e160e21b8152600481018d905260ff998a1660248201529789166044890152948816606488015296909216608486015261ffff90811660a48601521660c484015263ffffffff90931660e48301526001600160a01b0392831661010483015251919092169163ccf097849161012480830192600092919082900301818387803b15801561240957600080fd5b505af115801561241d573d6000803e3d6000fd5b505050505050565b60025460ff1615612470576040805162461bcd60e51b815260206004820152601060248201526f14185d5cd8589b194e881c185d5cd95960821b604482015290519081900360640190fd5b600f54815160208301516040808501516060860151608087015160a088015160c089015160e08a01518651637a794aa960e01b8152600481018d905263ffffffff998a16602482015297891660448901529790941660648701526001600160a01b03928316608487015260a486019190915260c485015260e4840191909152610104830193909352519190921691637a794aa99161012480830192600092919082900301818387803b15801561240957600080fd5b6000610b68838361265c565b6000610b68836001600160a01b0384166126c0565b6000610b6b826126d8565b612559612849565b612561612849565b600f5460408051630a3b3fe560e41b81526004810186905290516001600160a01b039092169163a3b3fe50916024808201926060929091908290030181600087803b1580156125af57600080fd5b505af11580156125c3573d6000803e3d6000fd5b505050506040513d60608110156125d957600080fd5b50805160208083015160409384015193850193909352830191909152815292915050565b600061260983836126c0565b61263f57508154600181810184556000848152602080822090930184905584548482528286019093526040902091909155610b6b565b506000610b6b565b6000610b68836001600160a01b0384166126dc565b8154600090821061269e5760405162461bcd60e51b81526004018080602001828103825260228152602001806128a86022913960400191505060405180910390fd5b8260000182815481106126ad57fe5b9060005260206000200154905092915050565b60009081526001919091016020526040902054151590565b5490565b60008181526001830160205260408120548015612798578354600019808301919081019060009087908390811061270f57fe5b906000526020600020015490508087600001848154811061272c57fe5b60009182526020808320909101929092558281526001898101909252604090209084019055865487908061275c57fe5b60019003818190600052602060002001600090559055866001016000878152602001908152602001600020600090556001945050505050610b6b565b6000915050610b6b565b6040805161012081018252600080825260208201819052918101829052606081018290526080810182905260a0810182905260c0810182905260e0810182905261010081019190915290565b604080518082019091526000808252602082015290565b6040805161010081018252600080825260208201819052918101829052606081018290526080810182905260a0810182905260c0810182905260e081019190915290565b60408051606081018252600080825260208201819052918101919091529056fe453a53453a20556e73757065727669736564206167656e7473206d7573742073657420657363726f77207374617475732077697468696e2073636f70652e456e756d657261626c655365743a20696e646578206f7574206f6620626f756e6473453a53453a204e6f6e2073757065727669736f726564206167656e7473206d7573742073657420657363726f77207374617475732077697468696e2073636f70652e416363657373436f6e74726f6c3a2073656e646572206d75737420626520616e2061646d696e20746f206772616e745265656e7472616e637947756172643a207265656e7472616e742063616c6c00453a4d4f442d49413a2041505020636f6e747261637420646f6573206e6f7420686f6c6420746f6b656e50414d3a4d4f443a206d757374206861766520434f4e54524143545f41444d494e5f524f4c45423a5353433a2073746f7261676520616464726573732063616e6e6f74206265207a65726f453a53453a2043616e6e6f742073657420746f2072656379636c6564207374617475732e416363657373436f6e74726f6c3a2073656e646572206d75737420626520616e2061646d696e20746f207265766f6b65453a45453a205573657274797065206c657373207468616e203520726571756972656420746f20656e64207468697320657363726f77453a45453a20457363726f7720706572696f64206e6f7420656e646564206f722063616c6c6572206973206e6f7420657363726f77206f776e6572453a45452d204173736574206973206469736361726465642c207573652052656379636c652ce8d04a9c35987429af538825cd2438cc5c5bb5dc427955f84daaa3ea10501641543a4d4f442d49413a43616c6c696e672061646472657373206973206e6f7420706175736572453a53453a20457363726f77206d7573742062652073657420746f20612074696d6520696e2074686520667574757265416363657373436f6e74726f6c3a2063616e206f6e6c792072656e6f756e636520726f6c657320666f722073656c66a26469706673582212203d0b6b7e1016e18d6b980c732355dbe0aadc150b20762abcb042e9c68faf629564736f6c634300060c0033",
  "immutableReferences": {},
  "source": "/*--------------------------------------------------------PRuF0.7.1\n__/\\\\\\\\\\\\\\\\\\\\\\\\\\ _____/\\\\\\\\\\\\\\\\\\ _______/\\\\../\\\\ ___/\\\\\\\\\\\\\\\\\\\\\\\\\\\\\\\n _\\/\\\\\\/////////\\\\\\ _/\\\\\\///////\\\\\\ ____\\//..\\//____\\/\\\\\\///////////__\n  _\\/\\\\\\.......\\/\\\\\\.\\/\\\\\\.....\\/\\\\\\ ________________\\/\\\\\\ ____________\n   _\\/\\\\\\\\\\\\\\\\\\\\\\\\\\/__\\/\\\\\\\\\\\\\\\\\\\\\\/_____/\\\\\\____/\\\\\\.\\/\\\\\\\\\\\\\\\\\\\\\\ ____\n    _\\/\\\\\\/////////____\\/\\\\\\//////\\\\\\ ___\\/\\\\\\___\\/\\\\\\.\\/\\\\\\///////______\n     _\\/\\\\\\ ____________\\/\\\\\\ ___\\//\\\\\\ __\\/\\\\\\___\\/\\\\\\.\\/\\\\\\ ____________\n      _\\/\\\\\\ ____________\\/\\\\\\ ____\\//\\\\\\ _\\/\\\\\\___\\/\\\\\\.\\/\\\\\\ ____________\n       _\\/\\\\\\ ____________\\/\\\\\\ _____\\//\\\\\\.\\//\\\\\\\\\\\\\\\\\\ _\\/\\\\\\ ____________\n        _\\/// _____________\\/// _______\\/// __\\///////// __\\/// _____________\n         *-------------------------------------------------------------------*/\n\n/*-----------------------------------------------------------------\n *  TO DO\n *\n *---------------------------------------------------------------*/\n\n// SPDX-License-Identifier: UNLICENSED\npragma solidity ^0.6.7;\n\nimport \"./PRUF_ECR_CORE.sol\";\n\ncontract ECR is ECR_CORE {\n    using SafeMath for uint256;\n    /*\n     * @dev Verify user credentials\n     * Originating Address:\n     *      Exists in registeredUsers as a usertype 1 to 9\n     *      Is authorized for asset class\n     */\n    modifier isAuthorized(bytes32 _idxHash) override {\n        uint256 tokenId = uint256(_idxHash);\n        require(\n            A_TKN.ownerOf(tokenId) == APP_Address,\n            \"E:MOD-IA: APP contract does not hold token\"\n        );\n        _;\n    }\n\n    /*\n     * @dev puts asset into an escrow status for a certain time period\n     */\n    function setEscrow(\n        bytes32 _idxHash,\n        bytes32 _escrowOwnerHash,\n        uint256 _escrowTime,\n        uint8 _escrowStatus\n    ) external nonReentrant isAuthorized(_idxHash) {\n        Record memory rec = getRecord(_idxHash);\n        uint8 userType = getCallingUserType(rec.assetClass);\n        uint256 escrowTime = block.timestamp.add(_escrowTime);\n        uint8 newEscrowStatus;\n        ContractDataHash memory contractInfo = getContractInfo(\n            address(this),\n            rec.assetClass\n        );\n\n        require(contractInfo.contractType > 0, \"E:SE: contract not auth in AC\");\n        require((userType > 0) && (userType < 10), \"E:SE: user not auth in AC\");\n        require( //REDUNDANT, THROWS IN SAFEMATH CTS:PREFERRED\n            (escrowTime >= block.timestamp),\n            \"E:SE: Escrow must be set to a time in the future\"\n        );\n        require(\n            (userType < 5) ||\n                ((userType > 4) && (userType < 10) && (_escrowStatus > 49)),\n            \"E:SE: Non supervisored agents must set escrow status within scope.\"\n        );\n        require((_escrowStatus != 60), \"E:SE: Cannot set to recycled status.\");\n        //^^^^^^^checks^^^^^^^^^\n\n        newEscrowStatus = _escrowStatus;\n        //^^^^^^^effects^^^^^^^^^\n\n        _setEscrowData(_idxHash, newEscrowStatus, _escrowOwnerHash, escrowTime);\n        //^^^^^^^interactions^^^^^^^^^\n    }\n\n    /*\n     * @dev puts asset into an escrow status for a certain time period\n     * Includes sample code for setting extended data\n     */\n    function setEscrowExtendedData(\n        bytes32 _idxHash,\n        bytes32 _escrowOwnerHash,\n        uint256 _escrowTime,\n        uint8 _escrowStatus\n    ) external nonReentrant isAuthorized(_idxHash) {\n        Record memory rec = getRecord(_idxHash);\n        uint8 userType = getCallingUserType(rec.assetClass);\n        uint256 escrowTime = block.timestamp.add(_escrowTime);\n        uint8 newEscrowStatus;\n        ContractDataHash memory contractInfo = getContractInfo(\n            address(this),\n            rec.assetClass\n        );\n\n        require(contractInfo.contractType > 0, \"E:SE: contract not auth in AC\");\n        require((userType > 0) && (userType < 10), \"E:SE: user not auth in AC\");\n        require( //REDUNDANT, THROWS IN SAFEMATH CTS:PREFERRED\n            (escrowTime >= block.timestamp),\n            \"E:SE: Escrow must be set to a time in the future\"\n        );\n        require(\n            (userType < 5) ||\n                ((userType > 4) && (userType < 10) && (_escrowStatus > 49)),\n            \"E:SE: Unsupervised agents must set escrow status within scope.\"\n        );\n        require((_escrowStatus != 60), \"E:SE: Cannot set to recycled status.\");\n        //^^^^^^^checks^^^^^^^^^\n\n        newEscrowStatus = _escrowStatus;\n\n        escrowDataExtLight memory escrowDataLight; //demo for setting \"light\" struct data\n        escrowDataLight.escrowData = 5;\n        escrowDataLight.addr_1 = _msgSender();\n\n        escrowDataExtHeavy memory escrowDataHeavy; //demo for setting \"Heavy\" struct data\n        escrowDataHeavy.u256_1 = 9999;\n        //^^^^^^^effects^^^^^^^^^\n\n        _setEscrowData(_idxHash, newEscrowStatus, _escrowOwnerHash, escrowTime);\n\n        _setEscrowDataLight(_idxHash, escrowDataLight); //Sets \"light\" EXT data\n\n        _setEscrowDataHeavy(_idxHash, escrowDataHeavy); //Sets \"Heavy\" EXT data\n        //^^^^^^^interactions^^^^^^^^^\n    }\n\n    /*\n     * @dev takes asset out of excrow status if time period has resolved || is escrow issuer\n     */\n    function endEscrow(bytes32 _idxHash)\n        external\n        nonReentrant\n        isAuthorized(_idxHash)\n    {\n        Record memory rec = getRecord(_idxHash);\n        escrowData memory escrow = getEscrowData(_idxHash);\n        ContractDataHash memory contractInfo = getContractInfo(\n            address(this),\n            rec.assetClass\n        );\n        uint8 userType = getCallingUserType(rec.assetClass);\n        bytes32 ownerHash = ECR_MGR.retrieveEscrowOwner(_idxHash);\n\n        require(contractInfo.contractType > 0, \"E:EE: contract not auth in AC\");\n        require((userType > 0) && (userType < 10), \"E:EE: user not auth in AC\");\n        require( //STATE UNREACHABLE CTS:PREFERRED\n            (rec.assetStatus != 60),\n            \"E:EE- Asset is discarded, use Recycle\"\n        );\n        require(\n            ((rec.assetStatus > 49) || (userType < 5)),\n            \"E:EE: Usertype less than 5 required to end this escrow\"\n        );\n        require(\n            (escrow.timelock < block.timestamp) ||\n                (keccak256(abi.encodePacked(_msgSender())) == ownerHash),\n            \"E:EE: Escrow period not ended or caller is not escrow owner\"\n        );\n        //^^^^^^^checks^^^^^^^^^\n\n        ECR_MGR.endEscrow(_idxHash);\n        //^^^^^^^interactions^^^^^^^^^\n    }\n}\n",
  "sourcePath": "/Users/cts/dev/PRUF/PRUF_TRUFFLE/contracts/PRUF_ECR.sol",
  "compiler": {
    "name": "solc",
    "version": "0.6.12+commit.27d51765.Emscripten.clang"
  },
  "schemaVersion": "3.2.3",
  "updatedAt": "2020-12-21T18:14:16.470Z",
  "devdoc": {
    "kind": "dev",
    "methods": {
      "getRoleAdmin(bytes32)": {
        "details": "Returns the admin role that controls `role`. See {grantRole} and {revokeRole}. To change a role's admin, use {_setRoleAdmin}."
      },
      "getRoleMember(bytes32,uint256)": {
        "details": "Returns one of the accounts that have `role`. `index` must be a value between 0 and {getRoleMemberCount}, non-inclusive. Role bearers are not sorted in any particular way, and their ordering may change at any point. WARNING: When using {getRoleMember} and {getRoleMemberCount}, make sure you perform all queries on the same block. See the following https://forum.openzeppelin.com/t/iterating-over-elements-on-enumerableset-in-openzeppelin-contracts/2296[forum post] for more information."
      },
      "getRoleMemberCount(bytes32)": {
        "details": "Returns the number of accounts that have `role`. Can be used together with {getRoleMember} to enumerate all bearers of a role."
      },
      "grantRole(bytes32,address)": {
        "details": "Grants `role` to `account`. If `account` had not been already granted `role`, emits a {RoleGranted} event. Requirements: - the caller must have ``role``'s admin role."
      },
      "hasRole(bytes32,address)": {
        "details": "Returns `true` if `account` has been granted `role`."
      },
      "pause()": {
        "details": "Triggers stopped state. (pausable)"
      },
      "paused()": {
        "details": "Returns true if the contract is paused, and false otherwise."
      },
      "renounceRole(bytes32,address)": {
        "details": "Revokes `role` from the calling account. Roles are often managed via {grantRole} and {revokeRole}: this function's purpose is to provide a mechanism for accounts to lose their privileges if they are compromised (such as when a trusted device is misplaced). If the calling account had been granted `role`, emits a {RoleRevoked} event. Requirements: - the caller must be `account`."
      },
      "revokeRole(bytes32,address)": {
        "details": "Revokes `role` from `account`. If `account` had been granted `role`, emits a {RoleRevoked} event. Requirements: - the caller must have ``role``'s admin role."
      },
      "unpause()": {
        "details": "Returns to normal state. (pausable)"
      }
    },
    "version": 1
  },
  "userdoc": {
    "kind": "user",
    "methods": {},
    "version": 1
  }
}