{
  "contractName": "ECR",
  "abi": [
    {
      "anonymous": false,
      "inputs": [
        {
          "indexed": false,
          "internalType": "address",
          "name": "account",
          "type": "address"
        }
      ],
      "name": "Paused",
      "type": "event"
    },
    {
      "anonymous": false,
      "inputs": [
        {
          "indexed": false,
          "internalType": "string",
          "name": "_msg",
          "type": "string"
        }
      ],
      "name": "REPORT",
      "type": "event"
    },
    {
      "anonymous": false,
      "inputs": [
        {
          "indexed": true,
          "internalType": "bytes32",
          "name": "role",
          "type": "bytes32"
        },
        {
          "indexed": true,
          "internalType": "bytes32",
          "name": "previousAdminRole",
          "type": "bytes32"
        },
        {
          "indexed": true,
          "internalType": "bytes32",
          "name": "newAdminRole",
          "type": "bytes32"
        }
      ],
      "name": "RoleAdminChanged",
      "type": "event"
    },
    {
      "anonymous": false,
      "inputs": [
        {
          "indexed": true,
          "internalType": "bytes32",
          "name": "role",
          "type": "bytes32"
        },
        {
          "indexed": true,
          "internalType": "address",
          "name": "account",
          "type": "address"
        },
        {
          "indexed": true,
          "internalType": "address",
          "name": "sender",
          "type": "address"
        }
      ],
      "name": "RoleGranted",
      "type": "event"
    },
    {
      "anonymous": false,
      "inputs": [
        {
          "indexed": true,
          "internalType": "bytes32",
          "name": "role",
          "type": "bytes32"
        },
        {
          "indexed": true,
          "internalType": "address",
          "name": "account",
          "type": "address"
        },
        {
          "indexed": true,
          "internalType": "address",
          "name": "sender",
          "type": "address"
        }
      ],
      "name": "RoleRevoked",
      "type": "event"
    },
    {
      "anonymous": false,
      "inputs": [
        {
          "indexed": false,
          "internalType": "address",
          "name": "account",
          "type": "address"
        }
      ],
      "name": "Unpaused",
      "type": "event"
    },
    {
      "inputs": [],
      "name": "ASSET_TXFR_ROLE",
      "outputs": [
        {
          "internalType": "bytes32",
          "name": "",
          "type": "bytes32"
        }
      ],
      "stateMutability": "view",
      "type": "function"
    },
    {
      "inputs": [],
      "name": "CONTRACT_ADMIN_ROLE",
      "outputs": [
        {
          "internalType": "bytes32",
          "name": "",
          "type": "bytes32"
        }
      ],
      "stateMutability": "view",
      "type": "function"
    },
    {
      "inputs": [],
      "name": "DAO_ROLE",
      "outputs": [
        {
          "internalType": "bytes32",
          "name": "",
          "type": "bytes32"
        }
      ],
      "stateMutability": "view",
      "type": "function"
    },
    {
      "inputs": [],
      "name": "DEFAULT_ADMIN_ROLE",
      "outputs": [
        {
          "internalType": "bytes32",
          "name": "",
          "type": "bytes32"
        }
      ],
      "stateMutability": "view",
      "type": "function"
    },
    {
      "inputs": [
        {
          "internalType": "address",
          "name": "_tokenContract",
          "type": "address"
        },
        {
          "internalType": "address",
          "name": "_to",
          "type": "address"
        },
        {
          "internalType": "uint256",
          "name": "_amount",
          "type": "uint256"
        }
      ],
      "name": "ERC20Transfer",
      "outputs": [],
      "stateMutability": "nonpayable",
      "type": "function"
    },
    {
      "inputs": [
        {
          "internalType": "address",
          "name": "_tokenContract",
          "type": "address"
        },
        {
          "internalType": "address",
          "name": "_to",
          "type": "address"
        },
        {
          "internalType": "uint256",
          "name": "_tokenID",
          "type": "uint256"
        }
      ],
      "name": "ERC721Transfer",
      "outputs": [],
      "stateMutability": "nonpayable",
      "type": "function"
    },
    {
      "inputs": [],
      "name": "PAUSER_ROLE",
      "outputs": [
        {
          "internalType": "bytes32",
          "name": "",
          "type": "bytes32"
        }
      ],
      "stateMutability": "view",
      "type": "function"
    },
    {
      "inputs": [
        {
          "internalType": "bytes32",
          "name": "role",
          "type": "bytes32"
        }
      ],
      "name": "getRoleAdmin",
      "outputs": [
        {
          "internalType": "bytes32",
          "name": "",
          "type": "bytes32"
        }
      ],
      "stateMutability": "view",
      "type": "function"
    },
    {
      "inputs": [
        {
          "internalType": "bytes32",
          "name": "role",
          "type": "bytes32"
        },
        {
          "internalType": "address",
          "name": "account",
          "type": "address"
        }
      ],
      "name": "grantRole",
      "outputs": [],
      "stateMutability": "nonpayable",
      "type": "function"
    },
    {
      "inputs": [
        {
          "internalType": "bytes32",
          "name": "role",
          "type": "bytes32"
        },
        {
          "internalType": "address",
          "name": "account",
          "type": "address"
        }
      ],
      "name": "hasRole",
      "outputs": [
        {
          "internalType": "bool",
          "name": "",
          "type": "bool"
        }
      ],
      "stateMutability": "view",
      "type": "function"
    },
    {
      "inputs": [
        {
          "internalType": "address",
          "name": "",
          "type": "address"
        },
        {
          "internalType": "address",
          "name": "",
          "type": "address"
        },
        {
          "internalType": "uint256",
          "name": "",
          "type": "uint256"
        },
        {
          "internalType": "bytes",
          "name": "",
          "type": "bytes"
        }
      ],
      "name": "onERC721Received",
      "outputs": [
        {
          "internalType": "bytes4",
          "name": "",
          "type": "bytes4"
        }
      ],
      "stateMutability": "nonpayable",
      "type": "function"
    },
    {
      "inputs": [],
      "name": "pause",
      "outputs": [],
      "stateMutability": "nonpayable",
      "type": "function"
    },
    {
      "inputs": [],
      "name": "paused",
      "outputs": [
        {
          "internalType": "bool",
          "name": "",
          "type": "bool"
        }
      ],
      "stateMutability": "view",
      "type": "function"
    },
    {
      "inputs": [
        {
          "internalType": "bytes32",
          "name": "role",
          "type": "bytes32"
        },
        {
          "internalType": "address",
          "name": "account",
          "type": "address"
        }
      ],
      "name": "renounceRole",
      "outputs": [],
      "stateMutability": "nonpayable",
      "type": "function"
    },
    {
      "inputs": [],
      "name": "resolveContractAddresses",
      "outputs": [],
      "stateMutability": "nonpayable",
      "type": "function"
    },
    {
      "inputs": [
        {
          "internalType": "bytes32",
          "name": "role",
          "type": "bytes32"
        },
        {
          "internalType": "address",
          "name": "account",
          "type": "address"
        }
      ],
      "name": "revokeRole",
      "outputs": [],
      "stateMutability": "nonpayable",
      "type": "function"
    },
    {
      "inputs": [
        {
          "internalType": "address",
          "name": "_storageAddress",
          "type": "address"
        }
      ],
      "name": "setStorageContract",
      "outputs": [],
      "stateMutability": "nonpayable",
      "type": "function"
    },
    {
      "inputs": [
        {
          "internalType": "bytes4",
          "name": "interfaceId",
          "type": "bytes4"
        }
      ],
      "name": "supportsInterface",
      "outputs": [
        {
          "internalType": "bool",
          "name": "",
          "type": "bool"
        }
      ],
      "stateMutability": "view",
      "type": "function"
    },
    {
      "inputs": [],
      "name": "unpause",
      "outputs": [],
      "stateMutability": "nonpayable",
      "type": "function"
    },
    {
      "inputs": [
        {
          "internalType": "bytes32",
          "name": "_idxHash",
          "type": "bytes32"
        },
        {
          "internalType": "bytes32",
          "name": "_escrowOwnerHash",
          "type": "bytes32"
        },
        {
          "internalType": "uint256",
          "name": "_escrowTime",
          "type": "uint256"
        },
        {
          "internalType": "uint8",
          "name": "_escrowStatus",
          "type": "uint8"
        }
      ],
      "name": "setEscrow",
      "outputs": [],
      "stateMutability": "nonpayable",
      "type": "function"
    },
    {
      "inputs": [
        {
          "internalType": "bytes32",
          "name": "_idxHash",
          "type": "bytes32"
        }
      ],
      "name": "endEscrow",
      "outputs": [],
      "stateMutability": "nonpayable",
      "type": "function"
    }
  ],
  "bytecode": "0x60806040523480156200001157600080fd5b50600160009081556002805460ff191690556200002f90336200008d565b6200005b7f2ce8d04a9c35987429af538825cd2438cc5c5bb5dc427955f84daaa3ea105016336200008d565b620000877f65d7a28e3265b37a6474929f336521b332c1681b933f6cb9f3376673440d862a336200008d565b62000125565b6200009982826200009d565b5050565b60008281526001602090815260408083206001600160a01b038516845290915290205460ff16620000995760008281526001602081815260408084206001600160a01b0386168086529252808420805460ff19169093179092559051339285917f2f8788117e7eff1d82e926ec794901d17c78024a50270940304540a733656f0d9190a45050565b6124fb80620001356000396000f3fe608060405234801561001057600080fd5b50600436106101375760003560e01c806391d14854116100b8578063e59fdd361161007c578063e59fdd36146102b3578063e5f815dc146102c6578063e63ab1e9146102d9578063e8e1152c14610300578063e9c2651814610313578063ee9c25c51461033a57600080fd5b806391d148541461025f578063a217fddf14610272578063b29c39591461027a578063d547741f1461028d578063dc38b0a2146102a057600080fd5b80632f2ff15d116100ff5780632f2ff15d1461021c57806336568abe146102315780633f4ba83a146102445780635c975abb1461024c5780638456cb591461025757600080fd5b806301ffc9a71461013c5780631429db5f14610164578063150b7a02146101995780631da03312146101d1578063248a9ca3146101f8575b600080fd5b61014f61014a36600461200a565b610342565b60405190151581526020015b60405180910390f35b61018b7f7f1e4e9f3d9ba0452a25cfef4cd4c6ffc86158d06ed2f585fa0093e12dec429c81565b60405190815260200161015b565b6101b86101a7366004611ea6565b630a85bd0160e11b95945050505050565b6040516001600160e01b0319909116815260200161015b565b61018b7f2ce8d04a9c35987429af538825cd2438cc5c5bb5dc427955f84daaa3ea10501681565b61018b610206366004611f67565b6000908152600160208190526040909120015490565b61022f61022a366004611f99565b610379565b005b61022f61023f366004611f99565b6103a5565b61022f610428565b60025460ff1661014f565b61022f610478565b61014f61026d366004611f99565b6104c6565b61018b600081565b61022f610288366004611fc9565b6104f1565b61022f61029b366004611f99565b610858565b61022f6102ae366004611e2b565b61087f565b61022f6102c1366004611e65565b610932565b61022f6102d4366004611e65565b610a33565b61018b7f65d7a28e3265b37a6474929f336521b332c1681b933f6cb9f3376673440d862a81565b61022f61030e366004611f67565b610b13565b61018b7f3b5d4cc60d3ec3516ee8ae083bd60934f6eb2a6c54b1229985c41bfb092b260381565b61022f610f6a565b60006001600160e01b03198216637965db0b60e01b148061037357506301ffc9a760e01b6001600160e01b03198316145b92915050565b60008281526001602081905260409091200154610396813361164d565b6103a083836116b1565b505050565b6001600160a01b038116331461041a5760405162461bcd60e51b815260206004820152602f60248201527f416363657373436f6e74726f6c3a2063616e206f6e6c792072656e6f756e636560448201526e103937b632b9903337b91039b2b63360891b60648201526084015b60405180910390fd5b610424828261171c565b5050565b6104527f65d7a28e3265b37a6474929f336521b332c1681b933f6cb9f3376673440d862a336104c6565b61046e5760405162461bcd60e51b815260040161041190612329565b610476611783565b565b6104a27f65d7a28e3265b37a6474929f336521b332c1681b933f6cb9f3376673440d862a336104c6565b6104be5760405162461bcd60e51b815260040161041190612329565b610476611816565b60009182526001602090815260408084206001600160a01b0393909316845291905290205460ff1690565b600260005414156105145760405162461bcd60e51b81526004016104119061236f565b6002600055601254600b546040516331a9108f60e11b815260048101879052869283926001600160a01b0391821692911690636352211e90602401602060405180830381600087803b15801561056957600080fd5b505af115801561057d573d6000803e3d6000fd5b505050506040513d601f19601f820116820180604052508101906105a19190611e48565b6001600160a01b0316146105c75760405162461bcd60e51b815260040161041190612255565b60006105d287611891565b905060006105e38260600151611977565b905060006105f187426123de565b9050600080610604308660600151611a3d565b805190915060ff166106585760405162461bcd60e51b815260206004820152601f60248201527f453a53453a20436f6e7472616374206e6f74206175746820696e206e6f6465006044820152606401610411565b60008460ff1611801561066e5750600a8460ff16105b6106ba5760405162461bcd60e51b815260206004820152601b60248201527f453a53453a2055736572206e6f74206175746820696e206e6f646500000000006044820152606401610411565b428310156107235760405162461bcd60e51b815260206004820152603060248201527f453a53453a20457363726f77206d7573742062652073657420746f206120746960448201526f6d6520696e207468652066757475726560801b6064820152608401610411565b60058460ff161080610755575060048460ff161180156107465750600a8460ff16105b8015610755575060318860ff16115b6107d75760405162461bcd60e51b815260206004820152604760248201527f453a53453a204e6f6e2073757065727669736f726564206167656e7473206d7560448201527f73742073657420657363726f77207374617475732077697468696e2073636f7060648201526632901f101a1c9760c91b608482015260a401610411565b8760ff16603c14156108375760405162461bcd60e51b8152602060048201526024808201527f453a53453a2043616e6e6f742073657420746f2072656379636c6564207374616044820152633a3ab99760e11b6064820152608401610411565b8791506108468b838c86611afe565b50506001600055505050505050505050565b60008281526001602081905260409091200154610875813361164d565b6103a0838361171c565b6108a97f2ce8d04a9c35987429af538825cd2438cc5c5bb5dc427955f84daaa3ea105016336104c6565b6108c55760405162461bcd60e51b81526004016104119061229f565b6001600160a01b0381166109105760405162461bcd60e51b81526020600482015260126024820152710423a5353433a2041646472657373203d20360741b6044820152606401610411565b600380546001600160a01b0319166001600160a01b0392909216919091179055565b61095c7f7f1e4e9f3d9ba0452a25cfef4cd4c6ffc86158d06ed2f585fa0093e12dec429c336104c6565b6109785760405162461bcd60e51b8152600401610411906122e6565b6002600054141561099b5760405162461bcd60e51b81526004016104119061236f565b60026000556040516323b872dd60e01b81523060048201526001600160a01b038381166024830152604482018390528416906323b872dd90606401602060405180830381600087803b1580156109f057600080fd5b505af1158015610a04573d6000803e3d6000fd5b505050506040513d601f19601f82011682018060405250810190610a289190611f45565b505060016000555050565b610a5d7f7f1e4e9f3d9ba0452a25cfef4cd4c6ffc86158d06ed2f585fa0093e12dec429c336104c6565b610a795760405162461bcd60e51b8152600401610411906122e6565b60026000541415610a9c5760405162461bcd60e51b81526004016104119061236f565b6002600055604051632142170760e11b81523060048201526001600160a01b038381166024830152604482018390528416906342842e0e90606401600060405180830381600087803b158015610af157600080fd5b505af1158015610b05573d6000803e3d6000fd5b505060016000555050505050565b60026000541415610b365760405162461bcd60e51b81526004016104119061236f565b6002600055601254600b546040516331a9108f60e11b815260048101849052839283926001600160a01b0391821692911690636352211e90602401602060405180830381600087803b158015610b8b57600080fd5b505af1158015610b9f573d6000803e3d6000fd5b505050506040513d601f19601f82011682018060405250810190610bc39190611e48565b6001600160a01b031614610be95760405162461bcd60e51b815260040161041190612255565b6000610bf484611891565b90506000610c0185611bbf565b90506000610c13308460600151611a3d565b90506000610c248460600151611977565b600f5460405163019b0f5f60e01b8152600481018a90529192506000916001600160a01b039091169063019b0f5f9060240160206040518083038186803b158015610c6e57600080fd5b505afa158015610c82573d6000803e3d6000fd5b505050506040513d601f19601f82011682018060405250810190610ca69190611f80565b835190915060ff16610cfa5760405162461bcd60e51b815260206004820152601f60248201527f453a45453a20436f6e7472616374206e6f74206175746820696e206e6f6465006044820152606401610411565b60008260ff16118015610d105750600a8260ff16105b610d5c5760405162461bcd60e51b815260206004820152601b60248201527f453a45453a2055736572206e6f74206175746820696e206e6f646500000000006044820152606401610411565b846000015160ff16603c1415610dc25760405162461bcd60e51b815260206004820152602560248201527f453a45453a204173736574206973206469736361726465642c207573652052656044820152646379636c6560d81b6064820152608401610411565b6031856000015160ff161180610ddb575060058260ff16105b610e465760405162461bcd60e51b815260206004820152603660248201527f453a45453a205573657274797065206c657373207468616e203520726571756960448201527572656420746f20656e64207468697320657363726f7760501b6064820152608401610411565b4284604001511080610e8b57506040516bffffffffffffffffffffffff193360601b166020820152819060340160405160208183030381529060405280519060200120145b610efd5760405162461bcd60e51b815260206004820152603b60248201527f453a45453a20457363726f7720706572696f64206e6f7420656e646564206f7260448201527f2063616c6c6572206973206e6f7420657363726f77206f776e657200000000006064820152608401610411565b600f54604051633a38454b60e21b8152600481018a90526001600160a01b039091169063e8e1152c90602401600060405180830381600087803b158015610f4357600080fd5b505af1158015610f57573d6000803e3d6000fd5b5050600160005550505050505050505050565b60026000541415610f8d5760405162461bcd60e51b81526004016104119061236f565b6002600055610fbc7f2ce8d04a9c35987429af538825cd2438cc5c5bb5dc427955f84daaa3ea105016336104c6565b610fd85760405162461bcd60e51b81526004016104119061229f565b6003546040516363b8d4c160e11b81526020600482015260086024820152672727a222afaa25a760c11b60448201526001600160a01b039091169063c771a9829060640160206040518083038186803b15801561103457600080fd5b505afa158015611048573d6000803e3d6000fd5b505050506040513d601f19601f8201168201806040525081019061106c9190611e48565b600c80546001600160a01b039283166001600160a01b03199182168117909255600d805490911690911790556003546040516363b8d4c160e11b81526020600482015260086024820152672727a222afa6a3a960c11b604482015291169063c771a9829060640160206040518083038186803b1580156110eb57600080fd5b505afa1580156110ff573d6000803e3d6000fd5b505050506040513d601f19601f820116820180604052508101906111239190611e48565b600480546001600160a01b039283166001600160a01b031991821681178355600580549092161790556003546040516363b8d4c160e11b815292169163c771a9829161118d91016020808252600990820152682727a222afa9aa27a960b91b604082015260600190565b60206040518083038186803b1580156111a557600080fd5b505afa1580156111b9573d6000803e3d6000fd5b505050506040513d601f19601f820116820180604052508101906111dd9190611e48565b600680546001600160a01b039283166001600160a01b031991821681179092556007805490911690911790556003546040516363b8d4c160e11b81526020600482015260086024820152672aaa24a62faa25a760c11b604482015291169063c771a9829060640160206040518083038186803b15801561125c57600080fd5b505afa158015611270573d6000803e3d6000fd5b505050506040513d601f19601f820116820180604052508101906112949190611e48565b600880546001600160a01b039283166001600160a01b031991821681179092556009805490911690911790556003546040516363b8d4c160e11b815260206004820152600560248201526420afaa25a760d91b604482015291169063c771a9829060640160206040518083038186803b15801561131057600080fd5b505afa158015611324573d6000803e3d6000fd5b505050506040513d601f19601f820116820180604052508101906113489190611e48565b600a80546001600160a01b039283166001600160a01b03199182168117909255600b805490911690911790556003546040516363b8d4c160e11b815260206004820152600760248201526622a1a92fa6a3a960c91b604482015291169063c771a9829060640160206040518083038186803b1580156113c657600080fd5b505afa1580156113da573d6000803e3d6000fd5b505050506040513d601f19601f820116820180604052508101906113fe9190611e48565b600e80546001600160a01b039283166001600160a01b03199182168117909255600f805490911690911790556003546040516363b8d4c160e11b815291169063c771a982906114679060040160208082526003908201526204150560ec1b604082015260600190565b60206040518083038186803b15801561147f57600080fd5b505afa158015611493573d6000803e3d6000fd5b505050506040513d601f19601f820116820180604052508101906114b79190611e48565b601280546001600160a01b039283166001600160a01b031991821681179092556013805490911690911790556003546040516363b8d4c160e11b815291169063c771a98290611521906004016020808252600490820152632921a62960e11b604082015260600190565b60206040518083038186803b15801561153957600080fd5b505afa15801561154d573d6000803e3d6000fd5b505050506040513d601f19601f820116820180604052508101906115719190611e48565b601080546001600160a01b039283166001600160a01b031991821681179092556011805490911690911790556003546040516363b8d4c160e11b81526020600482015260066024820152654150505f4e4360d01b604482015291169063c771a9829060640160206040518083038186803b1580156115ee57600080fd5b505afa158015611602573d6000803e3d6000fd5b505050506040513d601f19601f820116820180604052508101906116269190611e48565b601480546001600160a01b0319166001600160a01b03929092169190911790556001600055565b61165782826104c6565b6104245761166f816001600160a01b03166014611c59565b61167a836020611c59565b60405160200161168b9291906121ad565b60408051601f198184030181529082905262461bcd60e51b825261041191600401612222565b6116bb82826104c6565b6104245760008281526001602081815260408084206001600160a01b0386168086529252808420805460ff19169093179092559051339285917f2f8788117e7eff1d82e926ec794901d17c78024a50270940304540a733656f0d9190a45050565b61172682826104c6565b156104245760008281526001602090815260408083206001600160a01b0385168085529252808320805460ff1916905551339285917ff6391f5c32d9c69d2a47ea670b442974b53935d1edc7fd64eb21e047a839171b9190a45050565b60025460ff166117cc5760405162461bcd60e51b815260206004820152601460248201527314185d5cd8589b194e881b9bdd081c185d5cd95960621b6044820152606401610411565b6002805460ff191690557f5db9ee0a495bf2e6ff9c91a7834c1ba4fdd244a5e8aa4e537bd38aeae4b073aa335b6040516001600160a01b03909116815260200160405180910390a1565b60025460ff161561185c5760405162461bcd60e51b815260206004820152601060248201526f14185d5cd8589b194e881c185d5cd95960821b6044820152606401610411565b6002805460ff191660011790557f62e78cea01bee320cd4e420270b5ea74000d11b0c9f74754ebdbfc544b05a2586117f93390565b6040805161018081018252600080825260208201819052918101829052606081018290526080810182905260a0810182905260c0810182905260e081018290526101008101829052610120810182905261014081018290526101608101919091526003546040516338923cb160e21b8152600481018490526000916001600160a01b03169063e248f2c4906024016101806040518083038186803b15801561193857600080fd5b505afa15801561194c573d6000803e3d6000fd5b505050506040513d601f19601f820116820180604052508101906119709190612034565b9392505050565b6007546040516bffffffffffffffffffffffff193360601b16602082015260009182916001600160a01b0390911690639d2c7cee9060340160408051601f198184030181529082905280516020909101206001600160e01b031960e084901b168252600482015263ffffffff8616602482015260440160206040518083038186803b158015611a0557600080fd5b505afa158015611a19573d6000803e3d6000fd5b505050506040513d601f19601f820116820180604052508101906119709190612162565b60408051808201909152600080825260208201526040805180820190915260008082526020820152600354604051636fcfb49b60e11b81526001600160a01b03868116600483015263ffffffff861660248301529091169063df9f693690604401604080518083038186803b158015611ab557600080fd5b505afa158015611ac9573d6000803e3d6000fd5b505050506040513d601f19601f82011682018060405250810190611aed919061217f565b602083015260ff1681529392505050565b60025460ff1615611b445760405162461bcd60e51b815260206004820152601060248201526f14185d5cd8589b194e881c185d5cd95960821b6044820152606401610411565b600f54604051637318462b60e11b81526004810186905260ff8516602482015260448101849052606481018390526001600160a01b039091169063e6308c5690608401600060405180830381600087803b158015611ba157600080fd5b505af1158015611bb5573d6000803e3d6000fd5b5050505050505050565b6040805160608101825260008082526020820181905291810191909152600f54604051630a3b3fe560e41b8152600481018490526000916001600160a01b03169063a3b3fe509060240160606040518083038186803b158015611c2157600080fd5b505afa158015611c35573d6000803e3d6000fd5b505050506040513d601f19601f8201168201806040525081019061197091906120f8565b60606000611c688360026123f6565b611c739060026123de565b67ffffffffffffffff811115611c8b57611c8b612488565b6040519080825280601f01601f191660200182016040528015611cb5576020820181803683370190505b509050600360fc1b81600081518110611cd057611cd0612472565b60200101906001600160f81b031916908160001a905350600f60fb1b81600181518110611cff57611cff612472565b60200101906001600160f81b031916908160001a9053506000611d238460026123f6565b611d2e9060016123de565b90505b6001811115611da6576f181899199a1a9b1b9c1cb0b131b232b360811b85600f1660108110611d6257611d62612472565b1a60f81b828281518110611d7857611d78612472565b60200101906001600160f81b031916908160001a90535060049490941c93611d9f81612445565b9050611d31565b5083156119705760405162461bcd60e51b815260206004820181905260248201527f537472696e67733a20686578206c656e67746820696e73756666696369656e746044820152606401610411565b805161ffff81168114611e0757600080fd5b919050565b805163ffffffff81168114611e0757600080fd5b8051611e07816124b6565b600060208284031215611e3d57600080fd5b81356119708161249e565b600060208284031215611e5a57600080fd5b81516119708161249e565b600080600060608486031215611e7a57600080fd5b8335611e858161249e565b92506020840135611e958161249e565b929592945050506040919091013590565b600080600080600060808688031215611ebe57600080fd5b8535611ec98161249e565b94506020860135611ed98161249e565b935060408601359250606086013567ffffffffffffffff80821115611efd57600080fd5b818801915088601f830112611f1157600080fd5b813581811115611f2057600080fd5b896020828501011115611f3257600080fd5b9699959850939650602001949392505050565b600060208284031215611f5757600080fd5b8151801515811461197057600080fd5b600060208284031215611f7957600080fd5b5035919050565b600060208284031215611f9257600080fd5b5051919050565b60008060408385031215611fac57600080fd5b823591506020830135611fbe8161249e565b809150509250929050565b60008060008060808587031215611fdf57600080fd5b8435935060208501359250604085013591506060850135611fff816124b6565b939692955090935050565b60006020828403121561201c57600080fd5b81356001600160e01b03198116811461197057600080fd5b6000610180828403121561204757600080fd5b61204f6123a6565b61205883611e20565b815261206660208401611e20565b602082015261207760408401611df5565b604082015261208860608401611e0c565b606082015261209960808401611e0c565b60808201526120aa60a08401611e0c565b60a082015260c0838101519082015260e08084015190820152610100808401519082015261012080840151908201526101408084015190820152610160928301519281019290925250919050565b60006060828403121561210a57600080fd5b6040516060810181811067ffffffffffffffff8211171561213b57634e487b7160e01b600052604160045260246000fd5b80604052508251815260208301516020820152604083015160408201528091505092915050565b60006020828403121561217457600080fd5b8151611970816124b6565b6000806040838503121561219257600080fd5b825161219d816124b6565b6020939093015192949293505050565b7f416363657373436f6e74726f6c3a206163636f756e74200000000000000000008152600083516121e5816017850160208801612415565b7001034b99036b4b9b9b4b733903937b6329607d1b6017918401918201528351612216816028840160208801612415565b01602801949350505050565b6020815260008251806020840152612241816040850160208701612415565b601f01601f19169190910160400192915050565b6020808252602a908201527f453a4d4f442d49413a2041505020636f6e747261637420646f6573206e6f74206040820152693437b632103a37b5b2b760b11b606082015260800190565b60208082526027908201527f423a4d4f443a2d4941444d2043616c6c65722021434f4e54524143545f41444d604082015266494e5f524f4c4560c81b606082015260800190565b60208082526023908201527f423a4d4f443a2d4941444d2043616c6c6572202141535345545f545846525f526040820152624f4c4560e81b606082015260800190565b60208082526026908201527f423a4d4f442d49503a43616c6c696e672061646472657373206973206e6f74206040820152653830bab9b2b960d11b606082015260800190565b6020808252601f908201527f5265656e7472616e637947756172643a207265656e7472616e742063616c6c00604082015260600190565b604051610180810167ffffffffffffffff811182821017156123d857634e487b7160e01b600052604160045260246000fd5b60405290565b600082198211156123f1576123f161245c565b500190565b60008160001904831182151516156124105761241061245c565b500290565b60005b83811015612430578181015183820152602001612418565b8381111561243f576000848401525b50505050565b6000816124545761245461245c565b506000190190565b634e487b7160e01b600052601160045260246000fd5b634e487b7160e01b600052603260045260246000fd5b634e487b7160e01b600052604160045260246000fd5b6001600160a01b03811681146124b357600080fd5b50565b60ff811681146124b357600080fdfea264697066735822122070ba165b5e978895e0ccdfb12193ffa85ddc19a0e9be9f0aafa0e0e45e6f225464736f6c63430008070033",
  "immutableReferences": {},
  "source": "/*--------------------------------------------------------PRF0.8.7\n__/\\\\\\\\\\\\\\\\\\\\\\\\\\ _____/\\\\\\\\\\\\\\\\\\ _______/\\\\__/\\\\ ___/\\\\\\\\\\\\\\\\\\\\\\\\\\\\\\        \n__\\/\\\\\\/////////\\\\\\ _/\\\\\\///////\\\\\\ ____\\//__\\//____\\/\\\\\\///////////__       \n___\\/\\\\\\_______\\/\\\\\\_\\/\\\\\\_____\\/\\\\\\ ________________\\/\\\\\\ ____________      \n____\\/\\\\\\\\\\\\\\\\\\\\\\\\\\/__\\/\\\\\\\\\\\\\\\\\\\\\\/_____/\\\\\\____/\\\\\\_\\/\\\\\\\\\\\\\\\\\\\\\\ ____     \n_____\\/\\\\\\/////////____\\/\\\\\\//////\\\\\\ ___\\/\\\\\\___\\/\\\\\\_\\/\\\\\\///////______\n______\\/\\\\\\ ____________\\/\\\\\\ ___\\//\\\\\\ __\\/\\\\\\___\\/\\\\\\_\\/\\\\\\ ____________\n_______\\/\\\\\\ ____________\\/\\\\\\ ____\\//\\\\\\ _\\/\\\\\\___\\/\\\\\\_\\/\\\\\\ ____________\n________\\/\\\\\\ ____________\\/\\\\\\ _____\\//\\\\\\_\\//\\\\\\\\\\\\\\\\\\ _\\/\\\\\\ ____________\n_________\\/// _____________\\/// _______\\/// __\\///////// __\\/// _____________\n*---------------------------------------------------------------------------*/\n\n/*-----------------------------------------------------------------\n *  TO DO\n *  Sample basic time-escrow contract\n *---------------------------------------------------------------*/\n\n// SPDX-License-Identifier: UNLICENSED\npragma solidity 0.8.7;\n\nimport \"../Resources/PRUF_ECR_CORE.sol\";\n\ncontract ECR is ECR_CORE {\n    /**\n     * @dev Verify user credentials\n     * @param _idxHash asset to check\n     * Custodial contract must hold token\n     */\n    modifier isAuthorized(bytes32 _idxHash) override {\n        uint256 tokenId = uint256(_idxHash);\n        require(\n            A_TKN.ownerOf(tokenId) == APP_Address,\n            \"E:MOD-IA: APP contract does not hold token\"\n        );\n        _;\n    }\n\n    /**\n     * @dev Puts asset into an escrow status for a provided time period\n     * @param _idxHash Asset\n     * @param _escrowOwnerHash Escrow Owner adress hash\n     * @param _escrowTime Expiarion time of escrow\n     * @param _escrowStatus Escrow type\n     */\n    function setEscrow(\n        bytes32 _idxHash,\n        bytes32 _escrowOwnerHash,\n        uint256 _escrowTime,\n        uint8 _escrowStatus\n    ) external nonReentrant isAuthorized(_idxHash) {\n        Record memory rec = getRecord(_idxHash);\n        uint8 userType = getCallingUserType(rec.node);\n        uint256 escrowTime = block.timestamp + _escrowTime;\n        uint8 newEscrowStatus;\n        ContractDataHash memory contractInfo = getContractInfo(\n            address(this),\n            rec.node\n        );\n\n        require(\n            contractInfo.contractType > 0,\n            \"E:SE: Contract not auth in node\"\n        );\n        require(\n            (userType > 0) && (userType < 10),\n            \"E:SE: User not auth in node\"\n        );\n        require( //REDUNDANT PREFERRED\n            (escrowTime >= block.timestamp),\n            \"E:SE: Escrow must be set to a time in the future\"\n        );\n        require(\n            (userType < 5) ||\n                ((userType > 4) && (userType < 10) && (_escrowStatus > 49)),\n            \"E:SE: Non supervisored agents must set escrow status within scope > 49.\"\n        );\n        require(_escrowStatus != 60, \"E:SE: Cannot set to recycled status.\");\n        //^^^^^^^checks^^^^^^^^^\n\n        newEscrowStatus = _escrowStatus;\n        //^^^^^^^effects^^^^^^^^^\n\n        _setEscrowData(_idxHash, newEscrowStatus, _escrowOwnerHash, escrowTime);\n        //^^^^^^^interactions^^^^^^^^^\n    }\n\n    // /*\n    //  * @dev Example for setting data\n    //  */\n    // function setEscrowExtendedData(\n    //     bytes32 _idxHash,\n    //     bytes32 _escrowOwnerHash,\n    //     uint256 _escrowTime,\n    //     uint8 _escrowStatus\n    // ) external nonReentrant isAuthorized(_idxHash) {\n    //     Record memory rec = getRecord(_idxHash);\n    //     uint8 userType = getCallingUserType(rec.node);\n    //     uint256 escrowTime = block.timestamp + _escrowTime;\n    //     uint8 newEscrowStatus;\n    //     ContractDataHash memory contractInfo = getContractInfo(\n    //         address(this),\n    //         rec.node\n    //     );\n\n    //     require(\n    //         contractInfo.contractType > 0,\n    //         \"E:SEED: Contract not auth in node\"\n    //     );\n    //     require(\n    //         (userType > 0) && (userType < 10),\n    //         \"E:SEED: User not auth in node\"\n    //     );\n    //     require(\n    //         (escrowTime >= block.timestamp),\n    //         \"E:SEED: Escrow must be set to a time in the future\"\n    //     );\n    //     require(\n    //         (userType < 5) ||\n    //             ((userType > 4) && (userType < 10) && (_escrowStatus > 49)),\n    //         \"E:SEED: Unsupervised agents must set escrow status within scope > 49.\"\n    //     );\n    //     require(\n    //         (_escrowStatus != 60),\n    //         \"E:SEED: Cannot set to stat 60 (recycled).\"\n    //     );\n    //     //^^^^^^^checks^^^^^^^^^\n\n    //     newEscrowStatus = _escrowStatus;\n\n    //     escrowDataExtLight memory escrowDataLight; //demo for setting \"light\" struct data\n    //     escrowDataLight.escrowData = 5;\n    //     escrowDataLight.addr_1 = _msgSender();\n\n    //     escrowDataExtHeavy memory escrowDataHeavy; //demo for setting \"Heavy\" struct data\n    //     escrowDataHeavy.escrowStringData = \"string to store\";\n    //     //^^^^^^^effects^^^^^^^^^\n\n    //     _setEscrowData(_idxHash, newEscrowStatus, _escrowOwnerHash, escrowTime);\n    //     _setEscrowDataLight(_idxHash, escrowDataLight); //Sets \"light\" EXT data\n    //     _setEscrowDataHeavy(_idxHash, escrowDataHeavy); //Sets \"Heavy\" EXT data\n    //     //^^^^^^^interactions^^^^^^^^^\n    // }\n\n    /**\n     * @dev Takes asset out of excrow status if time period has resolved || is escrow issuer\n     * @param _idxHash asset to end escrow on\n     */\n    function endEscrow(bytes32 _idxHash)\n        external\n        nonReentrant\n        isAuthorized(_idxHash)\n    {\n        Record memory rec = getRecord(_idxHash);\n        escrowData memory escrow = getEscrowData(_idxHash);\n        ContractDataHash memory contractInfo = getContractInfo(\n            address(this),\n            rec.node\n        );\n        uint8 userType = getCallingUserType(rec.node);\n        bytes32 ownerHash = ECR_MGR.retrieveEscrowOwner(_idxHash);\n\n        require(\n            contractInfo.contractType > 0,\n            \"E:EE: Contract not auth in node\"\n        );\n        require(\n            (userType > 0) && (userType < 10),\n            \"E:EE: User not auth in node\"\n        );\n        require( //STATE UNREACHABLE PREFERRED\n            (rec.assetStatus != 60),\n            \"E:EE: Asset is discarded, use Recycle\"\n        );\n        require(\n            ((rec.assetStatus > 49) || (userType < 5)),\n            \"E:EE: Usertype less than 5 required to end this escrow\"\n        );\n        require(\n            (escrow.timelock < block.timestamp) ||\n                (keccak256(abi.encodePacked(_msgSender())) == ownerHash),\n            \"E:EE: Escrow period not ended or caller is not escrow owner\"\n        );\n        //^^^^^^^checks^^^^^^^^^\n\n        ECR_MGR.endEscrow(_idxHash);\n        //^^^^^^^interactions^^^^^^^^^\n    }\n}\n",
  "sourcePath": "/Users/drake/Documents/DEV/PRUF/PRUF_TRUFFLE/contracts/InProgress/PRUF_ECR.sol",
  "compiler": {
    "name": "solc",
    "version": "0.8.7+commit.e28d00a7.Emscripten.clang"
  },
  "schemaVersion": "3.4.3",
  "updatedAt": "2022-04-27T15:21:40.078Z",
  "devdoc": {
    "kind": "dev",
    "methods": {
      "ERC20Transfer(address,address,uint256)": {
        "details": "send an ERC20 token from this contract",
        "params": {
          "_amount": "amount to transfer",
          "_to": "destination",
          "_tokenContract": "Address of foreign token contract"
        }
      },
      "ERC721Transfer(address,address,uint256)": {
        "details": "send an ERC721 token from this contract",
        "params": {
          "_to": "destination",
          "_tokenContract": "Address of foreign token contract",
          "_tokenID": "Token ID"
        }
      },
      "endEscrow(bytes32)": {
        "details": "Takes asset out of excrow status if time period has resolved || is escrow issuer",
        "params": {
          "_idxHash": "asset to end escrow on"
        }
      },
      "getRoleAdmin(bytes32)": {
        "details": "Returns the admin role that controls `role`. See {grantRole} and {revokeRole}. To change a role's admin, use {_setRoleAdmin}."
      },
      "grantRole(bytes32,address)": {
        "details": "Grants `role` to `account`. If `account` had not been already granted `role`, emits a {RoleGranted} event. Requirements: - the caller must have ``role``'s admin role."
      },
      "hasRole(bytes32,address)": {
        "details": "Returns `true` if `account` has been granted `role`."
      },
      "onERC721Received(address,address,uint256,bytes)": {
        "details": "Compliance for erc721 reciever See OZ documentation"
      },
      "paused()": {
        "details": "Returns true if the contract is paused, and false otherwise."
      },
      "renounceRole(bytes32,address)": {
        "details": "Revokes `role` from the calling account. Roles are often managed via {grantRole} and {revokeRole}: this function's purpose is to provide a mechanism for accounts to lose their privileges if they are compromised (such as when a trusted device is misplaced). If the calling account had been granted `role`, emits a {RoleRevoked} event. Requirements: - the caller must be `account`."
      },
      "resolveContractAddresses()": {
        "details": "Resolve contract addresses from STOR"
      },
      "revokeRole(bytes32,address)": {
        "details": "Revokes `role` from `account`. If `account` had been granted `role`, emits a {RoleRevoked} event. Requirements: - the caller must have ``role``'s admin role."
      },
      "setEscrow(bytes32,bytes32,uint256,uint8)": {
        "details": "Puts asset into an escrow status for a provided time period",
        "params": {
          "_escrowOwnerHash": "Escrow Owner adress hash",
          "_escrowStatus": "Escrow type",
          "_escrowTime": "Expiarion time of escrow",
          "_idxHash": "Asset"
        }
      },
      "setStorageContract(address)": {
        "details": "Set address of STOR contract to interface with",
        "params": {
          "_storageAddress": "address of PRUF_STOR"
        }
      },
      "supportsInterface(bytes4)": {
        "details": "See {IERC165-supportsInterface}."
      }
    },
    "version": 1
  },
  "userdoc": {
    "kind": "user",
    "methods": {},
    "version": 1
  }
}