{
  "contractName": "ECR",
  "abi": [
    {
      "anonymous": false,
      "inputs": [
        {
          "indexed": true,
          "internalType": "address",
          "name": "previousOwner",
          "type": "address"
        },
        {
          "indexed": true,
          "internalType": "address",
          "name": "newOwner",
          "type": "address"
        }
      ],
      "name": "OwnershipTransferred",
      "type": "event"
    },
    {
      "anonymous": false,
      "inputs": [
        {
          "indexed": false,
          "internalType": "address",
          "name": "account",
          "type": "address"
        }
      ],
      "name": "Paused",
      "type": "event"
    },
    {
      "anonymous": false,
      "inputs": [
        {
          "indexed": false,
          "internalType": "string",
          "name": "_msg",
          "type": "string"
        }
      ],
      "name": "REPORT",
      "type": "event"
    },
    {
      "anonymous": false,
      "inputs": [
        {
          "indexed": false,
          "internalType": "address",
          "name": "account",
          "type": "address"
        }
      ],
      "name": "Unpaused",
      "type": "event"
    },
    {
      "inputs": [],
      "name": "OO_pause",
      "outputs": [],
      "stateMutability": "nonpayable",
      "type": "function"
    },
    {
      "inputs": [],
      "name": "OO_resolveContractAddresses",
      "outputs": [],
      "stateMutability": "nonpayable",
      "type": "function"
    },
    {
      "inputs": [
        {
          "internalType": "address",
          "name": "_storageAddress",
          "type": "address"
        }
      ],
      "name": "OO_setStorageContract",
      "outputs": [],
      "stateMutability": "nonpayable",
      "type": "function"
    },
    {
      "inputs": [
        {
          "internalType": "address",
          "name": "_to",
          "type": "address"
        },
        {
          "internalType": "bytes32",
          "name": "_idxHash",
          "type": "bytes32"
        }
      ],
      "name": "OO_transferACToken",
      "outputs": [],
      "stateMutability": "nonpayable",
      "type": "function"
    },
    {
      "inputs": [],
      "name": "OO_unpause",
      "outputs": [],
      "stateMutability": "nonpayable",
      "type": "function"
    },
    {
      "inputs": [
        {
          "internalType": "address",
          "name": "",
          "type": "address"
        },
        {
          "internalType": "address",
          "name": "",
          "type": "address"
        },
        {
          "internalType": "uint256",
          "name": "",
          "type": "uint256"
        },
        {
          "internalType": "bytes",
          "name": "",
          "type": "bytes"
        }
      ],
      "name": "onERC721Received",
      "outputs": [
        {
          "internalType": "bytes4",
          "name": "",
          "type": "bytes4"
        }
      ],
      "stateMutability": "nonpayable",
      "type": "function"
    },
    {
      "inputs": [],
      "name": "owner",
      "outputs": [
        {
          "internalType": "address",
          "name": "",
          "type": "address"
        }
      ],
      "stateMutability": "view",
      "type": "function"
    },
    {
      "inputs": [],
      "name": "paused",
      "outputs": [
        {
          "internalType": "bool",
          "name": "",
          "type": "bool"
        }
      ],
      "stateMutability": "view",
      "type": "function"
    },
    {
      "inputs": [],
      "name": "renounceOwnership",
      "outputs": [],
      "stateMutability": "nonpayable",
      "type": "function"
    },
    {
      "inputs": [
        {
          "internalType": "address",
          "name": "_to",
          "type": "address"
        },
        {
          "internalType": "bytes32",
          "name": "_idxHash",
          "type": "bytes32"
        }
      ],
      "name": "transferAssetToken",
      "outputs": [],
      "stateMutability": "nonpayable",
      "type": "function"
    },
    {
      "inputs": [
        {
          "internalType": "address",
          "name": "newOwner",
          "type": "address"
        }
      ],
      "name": "transferOwnership",
      "outputs": [],
      "stateMutability": "nonpayable",
      "type": "function"
    },
    {
      "inputs": [
        {
          "internalType": "bytes32",
          "name": "_idxHash",
          "type": "bytes32"
        },
        {
          "internalType": "bytes32",
          "name": "_escrowOwnerHash",
          "type": "bytes32"
        },
        {
          "internalType": "uint256",
          "name": "_escrowTime",
          "type": "uint256"
        },
        {
          "internalType": "uint8",
          "name": "_escrowStatus",
          "type": "uint8"
        }
      ],
      "name": "setEscrow",
      "outputs": [],
      "stateMutability": "nonpayable",
      "type": "function"
    },
    {
      "inputs": [
        {
          "internalType": "bytes32",
          "name": "_idxHash",
          "type": "bytes32"
        },
        {
          "internalType": "bytes32",
          "name": "_escrowOwnerHash",
          "type": "bytes32"
        },
        {
          "internalType": "uint256",
          "name": "_escrowTime",
          "type": "uint256"
        },
        {
          "internalType": "uint8",
          "name": "_escrowStatus",
          "type": "uint8"
        }
      ],
      "name": "setEscrowExtendedData",
      "outputs": [],
      "stateMutability": "nonpayable",
      "type": "function"
    },
    {
      "inputs": [
        {
          "internalType": "bytes32",
          "name": "_idxHash",
          "type": "bytes32"
        }
      ],
      "name": "endEscrow",
      "outputs": [],
      "stateMutability": "nonpayable",
      "type": "function"
    }
  ],
  "bytecode": "0x608060405234801561001057600080fd5b5060016000908155610020610080565b600180546001600160a01b0319166001600160a01b038316908117909155604051919250906000907f8be0079c531659141344cd1fd0a4f28419497f9722a3daafe3b4186f6b6457e0908290a3506001805460ff60a01b19169055610084565b3390565b612614806100936000396000f3fe608060405234801561001057600080fd5b50600436106100ea5760003560e01c8063b29c39591161008c578063d6b02ecf11610066578063d6b02ecf146102b2578063e8b41653146102d8578063e8e1152c146102e0578063f2fde38b146102fd576100ea565b8063b29c39591461024c578063c79b226e1461027e578063cf2b6f66146102aa576100ea565b8063715018a6116100c8578063715018a6146101e657806385ca0f41146101ee5780638da5cb5b14610220578063961e809b14610244576100ea565b8063150b7a02146100ef578063440e7a7e1461019c5780635c975abb146101ca575b600080fd5b61017f6004803603608081101561010557600080fd5b6001600160a01b0382358116926020810135909116916040820135919081019060808101606082013564010000000081111561014057600080fd5b82018360208201111561015257600080fd5b8035906020019184600183028401116401000000008311171561017457600080fd5b509092509050610323565b604080516001600160e01b03199092168252519081900360200190f35b6101c8600480360360408110156101b257600080fd5b506001600160a01b038135169060200135610334565b005b6101d261046b565b604080519115158252519081900360200190f35b6101c861047b565b6101c86004803603608081101561020457600080fd5b508035906020810135906040810135906060013560ff1661051d565b61022861087f565b604080516001600160a01b039092168252519081900360200190f35b6101c861088e565b6101c86004803603608081101561026257600080fd5b508035906020810135906040810135906060013560ff166108f0565b6101c86004803603604081101561029457600080fd5b506001600160a01b038135169060200135610c1a565b6101c8610d1a565b6101c8600480360360208110156102c857600080fd5b50356001600160a01b0316610d7a565b6101c8610e39565b6101c8600480360360208110156102f657600080fd5b50356115c6565b6101c86004803603602081101561031357600080fd5b50356001600160a01b03166119e8565b630a85bd0160e11b95945050505050565b6002600054141561037a576040805162461bcd60e51b815260206004820152601f6024820152600080516020612414833981519152604482015290519081900360640190fd5b600260005561038761087f565b6001600160a01b0316336001600160a01b031614806103b057506016546001600160a01b031633145b6103eb5760405162461bcd60e51b81526004018080602001828103825260268152602001806125646026913960400191505060405180910390fd5b60095460408051632142170760e11b81523060048201526001600160a01b038581166024830152604482018590529151849392909216916342842e0e9160648082019260009290919082900301818387803b15801561044957600080fd5b505af115801561045d573d6000803e3d6000fd5b505060016000555050505050565b600154600160a01b900460ff1690565b610483611ae1565b6001546001600160a01b039081169116146104d3576040805162461bcd60e51b81526020600482018190526024820152600080516020612509833981519152604482015290519081900360640190fd5b6001546040516000916001600160a01b0316907f8be0079c531659141344cd1fd0a4f28419497f9722a3daafe3b4186f6b6457e0908390a3600180546001600160a01b0319169055565b60026000541415610563576040805162461bcd60e51b815260206004820152601f6024820152600080516020612414833981519152604482015290519081900360640190fd5b60026000908155601254600954604080516331a9108f60e11b8152600481018990529051889485946001600160a01b03908116941692636352211e9260248083019360209383900390910190829087803b1580156105c057600080fd5b505af11580156105d4573d6000803e3d6000fd5b505050506040513d60208110156105ea57600080fd5b50516001600160a01b0316146106315760405162461bcd60e51b81526004018080602001828103825260308152602001806124a36030913960400191505060405180910390fd5b61063961230a565b61064287611ae5565b905060006106538260200151611c67565b905060006106614288611d18565b9050600061066d612356565b61067b308660200151611d79565b805190915060ff166106d4576040805162461bcd60e51b815260206004820152601d60248201527f453a53453a20636f6e7472616374206e6f74206175746820696e204143000000604482015290519081900360640190fd5b60008460ff161180156106ea5750600a8460ff16105b610737576040805162461bcd60e51b8152602060048201526019602482015278453a53453a2075736572206e6f74206175746820696e20414360381b604482015290519081900360640190fd5b428310156107765760405162461bcd60e51b81526004018080602001828103825260308152602001806125af6030913960400191505060405180910390fd5b60058460ff1610806107a8575060048460ff161180156107995750600a8460ff16105b80156107a8575060318860ff16115b6107e35760405162461bcd60e51b81526004018080602001828103825260428152602001806123d26042913960600191505060405180910390fd5b8760ff16603c14156108265760405162461bcd60e51b815260040180806020018281038252602481526020018061247f6024913960400191505060405180910390fd5b87915061083161236d565b600581523360e082015261084361236d565b61270f60c08201526108578d858e88611e24565b6108618d83611ef8565b61086b8d82612021565b505060016000555050505050505050505050565b6001546001600160a01b031690565b610896611ae1565b6001546001600160a01b039081169116146108e6576040805162461bcd60e51b81526020600482018190526024820152600080516020612509833981519152604482015290519081900360640190fd5b6108ee612128565b565b60026000541415610936576040805162461bcd60e51b815260206004820152601f6024820152600080516020612414833981519152604482015290519081900360640190fd5b60026000908155601254600954604080516331a9108f60e11b8152600481018990529051889485946001600160a01b03908116941692636352211e9260248083019360209383900390910190829087803b15801561099357600080fd5b505af11580156109a7573d6000803e3d6000fd5b505050506040513d60208110156109bd57600080fd5b50516001600160a01b031614610a045760405162461bcd60e51b81526004018080602001828103825260308152602001806124a36030913960400191505060405180910390fd5b610a0c61230a565b610a1587611ae5565b90506000610a268260200151611c67565b90506000610a344288611d18565b90506000610a40612356565b610a4e308660200151611d79565b805190915060ff16610aa7576040805162461bcd60e51b815260206004820152601d60248201527f453a53453a20636f6e7472616374206e6f74206175746820696e204143000000604482015290519081900360640190fd5b60008460ff16118015610abd5750600a8460ff16105b610b0a576040805162461bcd60e51b8152602060048201526019602482015278453a53453a2075736572206e6f74206175746820696e20414360381b604482015290519081900360640190fd5b42831015610b495760405162461bcd60e51b81526004018080602001828103825260308152602001806125af6030913960400191505060405180910390fd5b60058460ff161080610b7b575060048460ff16118015610b6c5750600a8460ff16105b8015610b7b575060318860ff16115b610bb65760405162461bcd60e51b81526004018080602001828103825260428152602001806123d26042913960600191505060405180910390fd5b8760ff16603c1415610bf95760405162461bcd60e51b815260040180806020018281038252602481526020018061247f6024913960400191505060405180910390fd5b879150610c088b838c86611e24565b50506001600055505050505050505050565b610c22611ae1565b6001546001600160a01b03908116911614610c72576040805162461bcd60e51b81526020600482018190526024820152600080516020612509833981519152604482015290519081900360640190fd5b60026000541415610cb8576040805162461bcd60e51b815260206004820152601f6024820152600080516020612414833981519152604482015290519081900360640190fd5b60026000908155600b5460408051632142170760e11b81523060048201526001600160a01b038681166024830152604482018690529151859492909316926342842e0e9260648084019391929182900301818387803b15801561044957600080fd5b610d22611ae1565b6001546001600160a01b03908116911614610d72576040805162461bcd60e51b81526020600482018190526024820152600080516020612509833981519152604482015290519081900360640190fd5b6108ee6121d0565b610d82611ae1565b6001546001600160a01b03908116911614610dd2576040805162461bcd60e51b81526020600482018190526024820152600080516020612509833981519152604482015290519081900360640190fd5b6001600160a01b038116610e175760405162461bcd60e51b815260040180806020018281038252602581526020018061245a6025913960400191505060405180910390fd5b600380546001600160a01b0319166001600160a01b0392909216919091179055565b60026000541415610e7f576040805162461bcd60e51b815260206004820152601f6024820152600080516020612414833981519152604482015290519081900360640190fd5b6002600055610e8c611ae1565b6001546001600160a01b03908116911614610edc576040805162461bcd60e51b81526020600482018190526024820152600080516020612509833981519152604482015290519081900360640190fd5b600354604080516363b8d4c160e11b8152602060048201819052600660248301526520a1afaa25a760d11b604483015291516001600160a01b039093169263c771a98292606480840193919291829003018186803b158015610f3d57600080fd5b505afa158015610f51573d6000803e3d6000fd5b505050506040513d6020811015610f6757600080fd5b5051600a80546001600160a01b039283166001600160a01b03199182161791829055600b8054909116918316919091179055600354604080516363b8d4c160e11b8152602060048201819052600660248301526520a1afa6a3a960d11b60448301529151929093169263c771a9829260648083019392829003018186803b158015610ff157600080fd5b505afa158015611005573d6000803e3d6000fd5b505050506040513d602081101561101b57600080fd5b5051600480546001600160a01b039283166001600160a01b03199182161780835560058054909216908416179055600354604080516363b8d4c160e11b8152602093810184905260086024820152672aaa24a62faa25a760c11b60448201529051919093169263c771a982926064808301939192829003018186803b1580156110a357600080fd5b505afa1580156110b7573d6000803e3d6000fd5b505050506040513d60208110156110cd57600080fd5b5051600680546001600160a01b039283166001600160a01b0319918216179182905560078054909116918316919091179055600354604080516363b8d4c160e11b8152602060048201819052600560248301526420afaa25a760d91b60448301529151929093169263c771a9829260648083019392829003018186803b15801561115657600080fd5b505afa15801561116a573d6000803e3d6000fd5b505050506040513d602081101561118057600080fd5b5051600880546001600160a01b039283166001600160a01b0319918216179182905560098054909116918316919091179055600354604080516363b8d4c160e11b8152602060048201819052600660248301526524a22faa25a760d11b60448301529151929093169263c771a9829260648083019392829003018186803b15801561120a57600080fd5b505afa15801561121e573d6000803e3d6000fd5b505050506040513d602081101561123457600080fd5b5051600c80546001600160a01b039283166001600160a01b03199182161791829055600d8054909116918316919091179055600354604080516363b8d4c160e11b8152602060048201819052600760248301526622a1a92fa6a3a960c91b60448301529151929093169263c771a9829260648083019392829003018186803b1580156112bf57600080fd5b505afa1580156112d3573d6000803e3d6000fd5b505050506040513d60208110156112e957600080fd5b5051600e80546001600160a01b039283166001600160a01b03199182161791829055600f805490911691831691909117905560038054604080516363b8d4c160e11b815260206004820181905260248201949094526204150560ec1b60448201529051919093169263c771a982926064808301939192829003018186803b15801561137357600080fd5b505afa158015611387573d6000803e3d6000fd5b505050506040513d602081101561139d57600080fd5b5051601280546001600160a01b039283166001600160a01b0319918216179182905560138054909116918316919091179055600354604080516363b8d4c160e11b8152602060048083018290526024830152632921a62960e11b60448301529151929093169263c771a9829260648083019392829003018186803b15801561142457600080fd5b505afa158015611438573d6000803e3d6000fd5b505050506040513d602081101561144e57600080fd5b5051601080546001600160a01b039283166001600160a01b0319918216179182905560118054909116918316919091179055600354604080516363b8d4c160e11b815260206004820181905260066024830152654150505f4e4360d01b60448301529151929093169263c771a9829260648083019392829003018186803b1580156114d857600080fd5b505afa1580156114ec573d6000803e3d6000fd5b505050506040513d602081101561150257600080fd5b5051601580546001600160a01b0319166001600160a01b03928316179055600354604080516363b8d4c160e11b8152602060048201819052600260248301526104e560f41b60448301529151929093169263c771a9829260648083019392829003018186803b15801561157457600080fd5b505afa158015611588573d6000803e3d6000fd5b505050506040513d602081101561159e57600080fd5b5051601680546001600160a01b0319166001600160a01b039092169190911790556001600055565b6002600054141561160c576040805162461bcd60e51b815260206004820152601f6024820152600080516020612414833981519152604482015290519081900360640190fd5b60026000908155601254600954604080516331a9108f60e11b8152600481018690529051859485946001600160a01b03908116941692636352211e9260248083019360209383900390910190829087803b15801561166957600080fd5b505af115801561167d573d6000803e3d6000fd5b505050506040513d602081101561169357600080fd5b50516001600160a01b0316146116da5760405162461bcd60e51b81526004018080602001828103825260308152602001806124a36030913960400191505060405180910390fd5b6116e261230a565b6116eb84611ae5565b90506116f56123b1565b6116fe8561225e565b9050611708612356565b611716308460200151611d79565b905060006117278460200151611c67565b600f546040805163019b0f5f60e01b8152600481018b905290519293506000926001600160a01b039092169163019b0f5f9160248082019260209290919082900301818787803b15801561177a57600080fd5b505af115801561178e573d6000803e3d6000fd5b505050506040513d60208110156117a457600080fd5b5051835190915060ff166117ff576040805162461bcd60e51b815260206004820152601d60248201527f453a45453a20636f6e7472616374206e6f74206175746820696e204143000000604482015290519081900360640190fd5b60008260ff161180156118155750600a8260ff16105b611866576040805162461bcd60e51b815260206004820152601960248201527f453a45453a2075736572206e6f74206175746820696e20414300000000000000604482015290519081900360640190fd5b846000015160ff16603c14156118ad5760405162461bcd60e51b815260040180806020018281038252602581526020018061258a6025913960400191505060405180910390fd5b6031856000015160ff1611806118c6575060058260ff16105b6119015760405162461bcd60e51b81526004018080602001828103825260368152602001806124d36036913960400191505060405180910390fd5b42846040015110806119395750604080513360601b602080830191909152825180830360140181526034909201909252805191012081145b6119745760405162461bcd60e51b815260040180806020018281038252603b815260200180612529603b913960400191505060405180910390fd5b600f5460408051633a38454b60e21b8152600481018b905290516001600160a01b039092169163e8e1152c9160248082019260009290919082900301818387803b1580156119c157600080fd5b505af11580156119d5573d6000803e3d6000fd5b5050600160005550505050505050505050565b6119f0611ae1565b6001546001600160a01b03908116911614611a40576040805162461bcd60e51b81526020600482018190526024820152600080516020612509833981519152604482015290519081900360640190fd5b6001600160a01b038116611a855760405162461bcd60e51b81526004018080602001828103825260268152602001806124346026913960400191505060405180910390fd5b6001546040516001600160a01b038084169216907f8be0079c531659141344cd1fd0a4f28419497f9722a3daafe3b4186f6b6457e090600090a3600180546001600160a01b0319166001600160a01b0392909216919091179055565b3390565b611aed61230a565b611af561230a565b6000806000806000806000600360009054906101000a90046001600160a01b03166001600160a01b031663e248f2c48b6040518263ffffffff1660e01b81526004018082815260200191505060e06040518083038186803b158015611b5957600080fd5b505afa158015611b6d573d6000803e3d6000fd5b505050506040513d60e0811015611b8357600080fd5b81019080805190602001909291908051906020019092919080519060200190929190805190602001909291908051906020019092919080519060200190929190805190602001909291905050509650965096509650965096509650868860c001818152505085886000019060ff16908160ff168152505084886020019063ffffffff16908163ffffffff168152505083886040019063ffffffff16908163ffffffff168152505082886060019063ffffffff16908163ffffffff1681525050818860e001818152505080886101000181815250505050505050505080915050919050565b600554604080513360601b6020808301919091528251808303601401815260348301808552815191830191909120634e963e7760e11b909152603883015263ffffffff85166058830152915160009384936001600160a01b0390911692639d2c7cee9260788083019392829003018186803b158015611ce557600080fd5b505afa158015611cf9573d6000803e3d6000fd5b505050506040513d6020811015611d0f57600080fd5b50519392505050565b600082820183811015611d72576040805162461bcd60e51b815260206004820152601b60248201527f536166654d6174683a206164646974696f6e206f766572666c6f770000000000604482015290519081900360640190fd5b9392505050565b611d81612356565b611d89612356565b60035460408051636fcfb49b60e11b81526001600160a01b03878116600483015263ffffffff87166024830152825193169263df9f693692604480840193919291829003018186803b158015611dde57600080fd5b505afa158015611df2573d6000803e3d6000fd5b505050506040513d6040811015611e0857600080fd5b5080516020918201519183019190915260ff1681529392505050565b600154600160a01b900460ff1615611e76576040805162461bcd60e51b815260206004820152601060248201526f14185d5cd8589b194e881c185d5cd95960821b604482015290519081900360640190fd5b600f5460408051637318462b60e11b81526004810187905260ff86166024820152604481018590526064810184905290516001600160a01b039092169163e6308c569160848082019260009290919082900301818387803b158015611eda57600080fd5b505af1158015611eee573d6000803e3d6000fd5b5050505050505050565b600154600160a01b900460ff1615611f4a576040805162461bcd60e51b815260206004820152601060248201526f14185d5cd8589b194e881c185d5cd95960821b604482015290519081900360640190fd5b600f54815160208301516040808501516060860151608087015160a088015160c089015160e08a0151865163333c25e160e21b8152600481018d905260ff998a1660248201529789166044890152948816606488015296909216608486015261ffff90811660a48601521660c484015263ffffffff90931660e48301526001600160a01b0392831661010483015251919092169163ccf097849161012480830192600092919082900301818387803b15801561200557600080fd5b505af1158015612019573d6000803e3d6000fd5b505050505050565b600154600160a01b900460ff1615612073576040805162461bcd60e51b815260206004820152601060248201526f14185d5cd8589b194e881c185d5cd95960821b604482015290519081900360640190fd5b600f54815160208301516040808501516060860151608087015160a088015160c089015160e08a01518651637a794aa960e01b8152600481018d905263ffffffff998a16602482015297891660448901529790941660648701526001600160a01b03928316608487015260a486019190915260c485015260e4840191909152610104830193909352519190921691637a794aa99161012480830192600092919082900301818387803b15801561200557600080fd5b600154600160a01b900460ff1661217d576040805162461bcd60e51b815260206004820152601460248201527314185d5cd8589b194e881b9bdd081c185d5cd95960621b604482015290519081900360640190fd5b6001805460ff60a01b191690557f5db9ee0a495bf2e6ff9c91a7834c1ba4fdd244a5e8aa4e537bd38aeae4b073aa6121b3611ae1565b604080516001600160a01b039092168252519081900360200190a1565b600154600160a01b900460ff1615612222576040805162461bcd60e51b815260206004820152601060248201526f14185d5cd8589b194e881c185d5cd95960821b604482015290519081900360640190fd5b6001805460ff60a01b1916600160a01b1790557f62e78cea01bee320cd4e420270b5ea74000d11b0c9f74754ebdbfc544b05a2586121b3611ae1565b6122666123b1565b61226e6123b1565b600f5460408051630a3b3fe560e41b81526004810186905290516001600160a01b039092169163a3b3fe50916024808201926060929091908290030181600087803b1580156122bc57600080fd5b505af11580156122d0573d6000803e3d6000fd5b505050506040513d60608110156122e657600080fd5b50805160208083015160409384015193850193909352830191909152815292915050565b6040805161012081018252600080825260208201819052918101829052606081018290526080810182905260a0810182905260c0810182905260e0810182905261010081019190915290565b604080518082019091526000808252602082015290565b6040805161010081018252600080825260208201819052918101829052606081018290526080810182905260a0810182905260c0810182905260e081019190915290565b60408051606081018252600080825260208201819052918101919091529056fe453a53453a204e6f6e2073757065727669736f726564206167656e7473206d7573742073657420657363726f77207374617475732077697468696e2073636f70652e5265656e7472616e637947756172643a207265656e7472616e742063616c6c004f776e61626c653a206e6577206f776e657220697320746865207a65726f2061646472657373423a5353433a2073746f7261676520616464726573732063616e6e6f74206265207a65726f453a53453a2043616e6e6f742073657420746f2072656379636c6564207374617475732e453a4d4f442d49413a20437573746f6469616c20636f6e747261637420646f6573206e6f7420686f6c6420746f6b656e453a45453a205573657274797065206c657373207468616e203520726571756972656420746f20656e64207468697320657363726f774f776e61626c653a2063616c6c6572206973206e6f7420746865206f776e6572453a45453a20457363726f7720706572696f64206e6f7420656e646564206f722063616c6c6572206973206e6f7420657363726f77206f776e6572423a54583a496e76616c69642063616c6c657220666f72207472616e7366657220746f6b656e453a45452d204173736574206973206469736361726465642c207573652052656379636c65453a53453a20457363726f77206d7573742062652073657420746f20612074696d6520696e2074686520667574757265a264697066735822122044f5bb7b2a9286fcf7bd2ed2c7588559e285de7d1a6cd7a510beb6afdd2eb18664736f6c634300060c0033",
  "immutableReferences": {},
  "source": "/*-----------------------------------------------------------V0.7.0\r\n__/\\\\\\\\\\\\\\\\\\\\\\\\\\ _____/\\\\\\\\\\\\\\\\\\ _______/\\\\../\\\\ ___/\\\\\\\\\\\\\\\\\\\\\\\\\\\\\\\r\n _\\/\\\\\\/////////\\\\\\ _/\\\\\\///////\\\\\\ ____\\//..\\//____\\/\\\\\\///////////__\r\n  _\\/\\\\\\.......\\/\\\\\\.\\/\\\\\\.....\\/\\\\\\ ________________\\/\\\\\\ ____________\r\n   _\\/\\\\\\\\\\\\\\\\\\\\\\\\\\/__\\/\\\\\\\\\\\\\\\\\\\\\\/_____/\\\\\\____/\\\\\\.\\/\\\\\\\\\\\\\\\\\\\\\\ ____\r\n    _\\/\\\\\\/////////____\\/\\\\\\//////\\\\\\ ___\\/\\\\\\___\\/\\\\\\.\\/\\\\\\///////______\r\n     _\\/\\\\\\ ____________\\/\\\\\\ ___\\//\\\\\\ __\\/\\\\\\___\\/\\\\\\.\\/\\\\\\ ____________\r\n      _\\/\\\\\\ ____________\\/\\\\\\ ____\\//\\\\\\ _\\/\\\\\\___\\/\\\\\\.\\/\\\\\\ ____________\r\n       _\\/\\\\\\ ____________\\/\\\\\\ _____\\//\\\\\\.\\//\\\\\\\\\\\\\\\\\\ _\\/\\\\\\ ____________\r\n        _\\/// _____________\\/// _______\\/// __\\///////// __\\/// _____________\r\n         *-------------------------------------------------------------------*/\r\n\r\n/*-----------------------------------------------------------------\r\n *  TO DO\r\n *\r\n *---------------------------------------------------------------*/\r\n\r\n// SPDX-License-Identifier: UNLICENSED\r\npragma solidity ^0.6.7;\r\n\r\nimport \"./PRUF_ECR_CORE.sol\";\r\n\r\ncontract ECR is ECR_CORE {\r\n    /*\r\n     * @dev Verify user credentials\r\n     * Originating Address:\r\n     *      Exists in registeredUsers as a usertype 1 to 9\r\n     *      Is authorized for asset class\r\n     */\r\n    modifier isAuthorized(bytes32 _idxHash) override {\r\n        uint256 tokenId = uint256(_idxHash);\r\n        require(\r\n            A_TKN.ownerOf(tokenId) == APP_Address,\r\n            \"E:MOD-IA: Custodial contract does not hold token\"\r\n        );\r\n        _;\r\n    }\r\n\r\n    /*\r\n     * @dev puts asset into an escrow status for a certain time period\r\n     */\r\n    function setEscrow(\r\n        bytes32 _idxHash,\r\n        bytes32 _escrowOwnerHash,\r\n        uint256 _escrowTime,\r\n        uint8 _escrowStatus\r\n    ) external nonReentrant isAuthorized(_idxHash) {\r\n        Record memory rec = getRecord(_idxHash);\r\n        uint8 userType = getCallingUserType(rec.assetClass);\r\n        uint256 escrowTime = block.timestamp.add(_escrowTime);\r\n        uint8 newEscrowStatus;\r\n        ContractDataHash memory contractInfo = getContractInfo(\r\n            address(this),\r\n            rec.assetClass\r\n        );\r\n\r\n        require(contractInfo.contractType > 0, \"E:SE: contract not auth in AC\");\r\n        require((userType > 0) && (userType < 10), \"E:SE: user not auth in AC\");\r\n        require( //REDUNDANT, THROWS IN SAFEMATH CTS:PREFERRED\r\n            (escrowTime >= block.timestamp),\r\n            \"E:SE: Escrow must be set to a time in the future\"\r\n        );\r\n        require(\r\n            (userType < 5) ||\r\n                ((userType > 4) && (userType < 10) && (_escrowStatus > 49)),\r\n            \"E:SE: Non supervisored agents must set escrow status within scope.\"\r\n        );\r\n        require((_escrowStatus != 60), \"E:SE: Cannot set to recycled status.\");\r\n        //^^^^^^^checks^^^^^^^^^\r\n\r\n        newEscrowStatus = _escrowStatus;\r\n        //^^^^^^^effects^^^^^^^^^\r\n\r\n        _setEscrowData(_idxHash, newEscrowStatus, _escrowOwnerHash, escrowTime);\r\n        //^^^^^^^interactions^^^^^^^^^\r\n    }\r\n\r\n    /*\r\n     * @dev puts asset into an escrow status for a certain time period\r\n     * Includes sample code for setting extended data\r\n     */\r\n    function setEscrowExtendedData(\r\n        bytes32 _idxHash,\r\n        bytes32 _escrowOwnerHash,\r\n        uint256 _escrowTime,\r\n        uint8 _escrowStatus\r\n    ) external nonReentrant isAuthorized(_idxHash) {\r\n        Record memory rec = getRecord(_idxHash);\r\n        uint8 userType = getCallingUserType(rec.assetClass);\r\n        uint256 escrowTime = block.timestamp.add(_escrowTime);\r\n        uint8 newEscrowStatus;\r\n        ContractDataHash memory contractInfo = getContractInfo(\r\n            address(this),\r\n            rec.assetClass\r\n        );\r\n\r\n        require(contractInfo.contractType > 0, \"E:SE: contract not auth in AC\");\r\n        require((userType > 0) && (userType < 10), \"E:SE: user not auth in AC\");\r\n        require( //REDUNDANT, THROWS IN SAFEMATH CTS:PREFERRED\r\n            (escrowTime >= block.timestamp),\r\n            \"E:SE: Escrow must be set to a time in the future\"\r\n        );\r\n        require(\r\n            (userType < 5) ||\r\n                ((userType > 4) && (userType < 10) && (_escrowStatus > 49)),  //CTS: EXAMINE, weirdly worded.. \r\n            \"E:SE: Non supervisored agents must set escrow status within scope.\"\r\n        );\r\n        require((_escrowStatus != 60), \"E:SE: Cannot set to recycled status.\");\r\n        //^^^^^^^checks^^^^^^^^^\r\n\r\n        newEscrowStatus = _escrowStatus;\r\n\r\n        escrowDataExtLight memory escrowDataLight; //demo for setting \"light\" struct data\r\n        escrowDataLight.escrowData = 5;\r\n        escrowDataLight.addr_1 = msg.sender;\r\n\r\n        escrowDataExtHeavy memory escrowDataHeavy; //demo for setting \"Heavy\" struct data\r\n        escrowDataHeavy.u256_1 = 9999;\r\n        //^^^^^^^effects^^^^^^^^^\r\n\r\n        _setEscrowData(_idxHash, newEscrowStatus, _escrowOwnerHash, escrowTime);\r\n\r\n        _setEscrowDataLight(_idxHash, escrowDataLight); //Sets \"light\" EXT data\r\n\r\n        _setEscrowDataHeavy(_idxHash, escrowDataHeavy); //Sets \"Heavy\" EXT data\r\n        //^^^^^^^interactions^^^^^^^^^\r\n    }\r\n\r\n    /*\r\n     * @dev takes asset out of excrow status if time period has resolved || is escrow issuer\r\n     */\r\n    function endEscrow(bytes32 _idxHash)\r\n        external\r\n        nonReentrant\r\n        isAuthorized(_idxHash)\r\n    {\r\n        Record memory rec = getRecord(_idxHash);\r\n        escrowData memory escrow = getEscrowData(_idxHash);\r\n        ContractDataHash memory contractInfo = getContractInfo(\r\n            address(this),\r\n            rec.assetClass\r\n        );\r\n        uint8 userType = getCallingUserType(rec.assetClass);\r\n        bytes32 ownerHash = ECR_MGR.retrieveEscrowOwner(_idxHash);\r\n\r\n        require(contractInfo.contractType > 0, \"E:EE: contract not auth in AC\");\r\n        require((userType > 0) && (userType < 10), \"E:EE: user not auth in AC\");\r\n        require( //STATE UNREACHABLE CTS:PREFERRED\r\n            (rec.assetStatus != 60),\r\n            \"E:EE- Asset is discarded, use Recycle\"\r\n        );\r\n        require(\r\n            ((rec.assetStatus > 49) || (userType < 5)),\r\n            \"E:EE: Usertype less than 5 required to end this escrow\"\r\n        );\r\n        require(\r\n            (escrow.timelock < block.timestamp) ||\r\n                (keccak256(abi.encodePacked(msg.sender)) == ownerHash),\r\n            \"E:EE: Escrow period not ended or caller is not escrow owner\"\r\n        );\r\n        //^^^^^^^checks^^^^^^^^^\r\n\r\n        ECR_MGR.endEscrow(_idxHash);\r\n        //^^^^^^^interactions^^^^^^^^^\r\n    }\r\n}\r\n",
  "sourcePath": "C:\\Users\\drake\\onedrive\\documents\\dev\\pruf\\PRUF_TRUFFLE\\contracts\\PRUF_ECR.sol",
  "compiler": {
    "name": "solc",
    "version": "0.6.12+commit.27d51765.Emscripten.clang"
  },
  "schemaVersion": "3.2.2",
  "updatedAt": "2020-09-16T15:05:07.898Z",
  "devdoc": {
    "kind": "dev",
    "methods": {
      "OO_pause()": {
        "details": "Triggers stopped state. (pausable)"
      },
      "OO_unpause()": {
        "details": "Returns to normal state. (pausable)"
      },
      "owner()": {
        "details": "Returns the address of the current owner."
      },
      "paused()": {
        "details": "Returns true if the contract is paused, and false otherwise."
      },
      "renounceOwnership()": {
        "details": "Leaves the contract without owner. It will not be possible to call `onlyOwner` functions anymore. Can only be called by the current owner. NOTE: Renouncing ownership will leave the contract without an owner, thereby removing any functionality that is only available to the owner."
      },
      "transferOwnership(address)": {
        "details": "Transfers ownership of the contract to a new account (`newOwner`). Can only be called by the current owner."
      }
    },
    "version": 1
  },
  "userdoc": {
    "kind": "user",
    "methods": {},
    "version": 1
  }
}