{
  "contractName": "ECR",
  "abi": [
    {
      "anonymous": false,
      "inputs": [
        {
          "indexed": false,
          "internalType": "address",
          "name": "account",
          "type": "address"
        }
      ],
      "name": "Paused",
      "type": "event"
    },
    {
      "anonymous": false,
      "inputs": [
        {
          "indexed": false,
          "internalType": "string",
          "name": "_msg",
          "type": "string"
        }
      ],
      "name": "REPORT",
      "type": "event"
    },
    {
      "anonymous": false,
      "inputs": [
        {
          "indexed": true,
          "internalType": "bytes32",
          "name": "role",
          "type": "bytes32"
        },
        {
          "indexed": true,
          "internalType": "bytes32",
          "name": "previousAdminRole",
          "type": "bytes32"
        },
        {
          "indexed": true,
          "internalType": "bytes32",
          "name": "newAdminRole",
          "type": "bytes32"
        }
      ],
      "name": "RoleAdminChanged",
      "type": "event"
    },
    {
      "anonymous": false,
      "inputs": [
        {
          "indexed": true,
          "internalType": "bytes32",
          "name": "role",
          "type": "bytes32"
        },
        {
          "indexed": true,
          "internalType": "address",
          "name": "account",
          "type": "address"
        },
        {
          "indexed": true,
          "internalType": "address",
          "name": "sender",
          "type": "address"
        }
      ],
      "name": "RoleGranted",
      "type": "event"
    },
    {
      "anonymous": false,
      "inputs": [
        {
          "indexed": true,
          "internalType": "bytes32",
          "name": "role",
          "type": "bytes32"
        },
        {
          "indexed": true,
          "internalType": "address",
          "name": "account",
          "type": "address"
        },
        {
          "indexed": true,
          "internalType": "address",
          "name": "sender",
          "type": "address"
        }
      ],
      "name": "RoleRevoked",
      "type": "event"
    },
    {
      "anonymous": false,
      "inputs": [
        {
          "indexed": false,
          "internalType": "address",
          "name": "account",
          "type": "address"
        }
      ],
      "name": "Unpaused",
      "type": "event"
    },
    {
      "inputs": [],
      "name": "ASSET_TXFR_ROLE",
      "outputs": [
        {
          "internalType": "bytes32",
          "name": "",
          "type": "bytes32"
        }
      ],
      "stateMutability": "view",
      "type": "function"
    },
    {
      "inputs": [],
      "name": "DEFAULT_ADMIN_ROLE",
      "outputs": [
        {
          "internalType": "bytes32",
          "name": "",
          "type": "bytes32"
        }
      ],
      "stateMutability": "view",
      "type": "function"
    },
    {
      "inputs": [],
      "name": "OO_resolveContractAddresses",
      "outputs": [],
      "stateMutability": "nonpayable",
      "type": "function"
    },
    {
      "inputs": [
        {
          "internalType": "address",
          "name": "_storageAddress",
          "type": "address"
        }
      ],
      "name": "OO_setStorageContract",
      "outputs": [],
      "stateMutability": "nonpayable",
      "type": "function"
    },
    {
      "inputs": [
        {
          "internalType": "address",
          "name": "_to",
          "type": "address"
        },
        {
          "internalType": "bytes32",
          "name": "_idxHash",
          "type": "bytes32"
        }
      ],
      "name": "OO_transferACToken",
      "outputs": [],
      "stateMutability": "nonpayable",
      "type": "function"
    },
    {
      "inputs": [],
      "name": "PAUSER_ROLE",
      "outputs": [
        {
          "internalType": "bytes32",
          "name": "",
          "type": "bytes32"
        }
      ],
      "stateMutability": "view",
      "type": "function"
    },
    {
      "inputs": [
        {
          "internalType": "bytes32",
          "name": "role",
          "type": "bytes32"
        }
      ],
      "name": "getRoleAdmin",
      "outputs": [
        {
          "internalType": "bytes32",
          "name": "",
          "type": "bytes32"
        }
      ],
      "stateMutability": "view",
      "type": "function"
    },
    {
      "inputs": [
        {
          "internalType": "bytes32",
          "name": "role",
          "type": "bytes32"
        },
        {
          "internalType": "uint256",
          "name": "index",
          "type": "uint256"
        }
      ],
      "name": "getRoleMember",
      "outputs": [
        {
          "internalType": "address",
          "name": "",
          "type": "address"
        }
      ],
      "stateMutability": "view",
      "type": "function"
    },
    {
      "inputs": [
        {
          "internalType": "bytes32",
          "name": "role",
          "type": "bytes32"
        }
      ],
      "name": "getRoleMemberCount",
      "outputs": [
        {
          "internalType": "uint256",
          "name": "",
          "type": "uint256"
        }
      ],
      "stateMutability": "view",
      "type": "function"
    },
    {
      "inputs": [
        {
          "internalType": "bytes32",
          "name": "role",
          "type": "bytes32"
        },
        {
          "internalType": "address",
          "name": "account",
          "type": "address"
        }
      ],
      "name": "grantRole",
      "outputs": [],
      "stateMutability": "nonpayable",
      "type": "function"
    },
    {
      "inputs": [
        {
          "internalType": "bytes32",
          "name": "role",
          "type": "bytes32"
        },
        {
          "internalType": "address",
          "name": "account",
          "type": "address"
        }
      ],
      "name": "hasRole",
      "outputs": [
        {
          "internalType": "bool",
          "name": "",
          "type": "bool"
        }
      ],
      "stateMutability": "view",
      "type": "function"
    },
    {
      "inputs": [
        {
          "internalType": "address",
          "name": "",
          "type": "address"
        },
        {
          "internalType": "address",
          "name": "",
          "type": "address"
        },
        {
          "internalType": "uint256",
          "name": "",
          "type": "uint256"
        },
        {
          "internalType": "bytes",
          "name": "",
          "type": "bytes"
        }
      ],
      "name": "onERC721Received",
      "outputs": [
        {
          "internalType": "bytes4",
          "name": "",
          "type": "bytes4"
        }
      ],
      "stateMutability": "nonpayable",
      "type": "function"
    },
    {
      "inputs": [],
      "name": "pause",
      "outputs": [],
      "stateMutability": "nonpayable",
      "type": "function"
    },
    {
      "inputs": [],
      "name": "paused",
      "outputs": [
        {
          "internalType": "bool",
          "name": "",
          "type": "bool"
        }
      ],
      "stateMutability": "view",
      "type": "function"
    },
    {
      "inputs": [
        {
          "internalType": "bytes32",
          "name": "role",
          "type": "bytes32"
        },
        {
          "internalType": "address",
          "name": "account",
          "type": "address"
        }
      ],
      "name": "renounceRole",
      "outputs": [],
      "stateMutability": "nonpayable",
      "type": "function"
    },
    {
      "inputs": [
        {
          "internalType": "bytes32",
          "name": "role",
          "type": "bytes32"
        },
        {
          "internalType": "address",
          "name": "account",
          "type": "address"
        }
      ],
      "name": "revokeRole",
      "outputs": [],
      "stateMutability": "nonpayable",
      "type": "function"
    },
    {
      "inputs": [
        {
          "internalType": "address",
          "name": "_to",
          "type": "address"
        },
        {
          "internalType": "bytes32",
          "name": "_idxHash",
          "type": "bytes32"
        }
      ],
      "name": "transferAssetToken",
      "outputs": [],
      "stateMutability": "nonpayable",
      "type": "function"
    },
    {
      "inputs": [],
      "name": "unpause",
      "outputs": [],
      "stateMutability": "nonpayable",
      "type": "function"
    },
    {
      "inputs": [
        {
          "internalType": "bytes32",
          "name": "_idxHash",
          "type": "bytes32"
        },
        {
          "internalType": "bytes32",
          "name": "_escrowOwnerHash",
          "type": "bytes32"
        },
        {
          "internalType": "uint256",
          "name": "_escrowTime",
          "type": "uint256"
        },
        {
          "internalType": "uint8",
          "name": "_escrowStatus",
          "type": "uint8"
        }
      ],
      "name": "setEscrow",
      "outputs": [],
      "stateMutability": "nonpayable",
      "type": "function"
    },
    {
      "inputs": [
        {
          "internalType": "bytes32",
          "name": "_idxHash",
          "type": "bytes32"
        },
        {
          "internalType": "bytes32",
          "name": "_escrowOwnerHash",
          "type": "bytes32"
        },
        {
          "internalType": "uint256",
          "name": "_escrowTime",
          "type": "uint256"
        },
        {
          "internalType": "uint8",
          "name": "_escrowStatus",
          "type": "uint8"
        }
      ],
      "name": "setEscrowExtendedData",
      "outputs": [],
      "stateMutability": "nonpayable",
      "type": "function"
    },
    {
      "inputs": [
        {
          "internalType": "bytes32",
          "name": "_idxHash",
          "type": "bytes32"
        }
      ],
      "name": "endEscrow",
      "outputs": [],
      "stateMutability": "nonpayable",
      "type": "function"
    }
  ],
  "bytecode": "0x60806040523480156200001157600080fd5b50600160009081556002805460ff191690556200003890620000326200006d565b62000071565b620000677f65d7a28e3265b37a6474929f336521b332c1681b933f6cb9f3376673440d862a620000326200006d565b62000183565b3390565b6200007d828262000081565b5050565b6000828152600160209081526040909120620000a891839062001c78620000fc821b17901c565b156200007d57620000b86200006d565b6001600160a01b0316816001600160a01b0316837f2f8788117e7eff1d82e926ec794901d17c78024a50270940304540a733656f0d60405160405180910390a45050565b600062000113836001600160a01b0384166200011c565b90505b92915050565b60006200012a83836200016b565b620001625750815460018181018455600084815260208082209093018490558454848252828601909352604090209190915562000116565b50600062000116565b60009081526001919091016020526040902054151590565b612ace80620001936000396000f3fe608060405234801561001057600080fd5b50600436106101375760003560e01c80639010d07c116100b8578063ca15c8731161007c578063ca15c873146103d5578063d547741f146103f2578063d6b02ecf1461041e578063e63ab1e914610444578063e8b416531461044c578063e8e1152c1461045457610137565b80639010d07c1461030457806391d1485414610343578063a217fddf1461036f578063b29c395914610377578063c79b226e146103a957610137565b80633f4ba83a116100ff5780633f4ba83a1461027a578063440e7a7e146102825780635c975abb146102ae5780638456cb59146102ca57806385ca0f41146102d257610137565b80631429db5f1461013c578063150b7a0214610156578063248a9ca3146102035780632f2ff15d1461022057806336568abe1461024e575b600080fd5b610144610471565b60408051918252519081900360200190f35b6101e66004803603608081101561016c57600080fd5b6001600160a01b038235811692602081013590911691604082013591908101906080810160608201356401000000008111156101a757600080fd5b8201836020820111156101b957600080fd5b803590602001918460018302840111640100000000831117156101db57600080fd5b509092509050610495565b604080516001600160e01b03199092168252519081900360200190f35b6101446004803603602081101561021957600080fd5b50356104a6565b61024c6004803603604081101561023657600080fd5b50803590602001356001600160a01b03166104bb565b005b61024c6004803603604081101561026457600080fd5b50803590602001356001600160a01b0316610527565b61024c610588565b61024c6004803603604081101561029857600080fd5b506001600160a01b0381351690602001356105f9565b6102b6610741565b604080519115158252519081900360200190f35b61024c61074a565b61024c600480360360808110156102e857600080fd5b508035906020810135906040810135906060013560ff166107b9565b6103276004803603604081101561031a57600080fd5b5080359060200135610b2b565b604080516001600160a01b039092168252519081900360200190f35b6102b66004803603604081101561035957600080fd5b50803590602001356001600160a01b0316610b4c565b610144610b64565b61024c6004803603608081101561038d57600080fd5b508035906020810135906040810135906060013560ff16610b69565b61024c600480360360408110156103bf57600080fd5b506001600160a01b038135169060200135610e93565b610144600480360360208110156103eb57600080fd5b5035610f83565b61024c6004803603604081101561040857600080fd5b50803590602001356001600160a01b0316610f9a565b61024c6004803603602081101561043457600080fd5b50356001600160a01b0316610ff3565b6101446110a2565b61024c6110c6565b61024c6004803603602081101561046a57600080fd5b5035611844565b7f7f1e4e9f3d9ba0452a25cfef4cd4c6ffc86158d06ed2f585fa0093e12dec429c81565b630a85bd0160e11b95945050505050565b60009081526001602052604090206002015490565b6000828152600160205260409020600201546104de906104d9611c8d565b610b4c565b6105195760405162461bcd60e51b815260040180806020018281038252602f815260200180612866602f913960400191505060405180910390fd5b6105238282611c91565b5050565b61052f611c8d565b6001600160a01b0316816001600160a01b03161461057e5760405162461bcd60e51b815260040180806020018281038252602f815260200180612a6a602f913960400191505060405180910390fd5b6105238282611cfa565b6105b47f65d7a28e3265b37a6474929f336521b332c1681b933f6cb9f3376673440d862a6104d9611c8d565b6105ef5760405162461bcd60e51b8152600401808060200182810382526027815260200180612a136027913960400191505060405180910390fd5b6105f7611d63565b565b6002600054141561063f576040805162461bcd60e51b815260206004820152601f6024820152600080516020612895833981519152604482015290519081900360640190fd5b60026000556106707f7f1e4e9f3d9ba0452a25cfef4cd4c6ffc86158d06ed2f585fa0093e12dec429c6104d9611c8d565b6106c1576040805162461bcd60e51b815260206004820152601e60248201527f423a54583a4d75737420686176652041535345545f545846525f524f4c450000604482015290519081900360640190fd5b60095460408051632142170760e11b81523060048201526001600160a01b038581166024830152604482018590529151849392909216916342842e0e9160648082019260009290919082900301818387803b15801561071f57600080fd5b505af1158015610733573d6000803e3d6000fd5b505060016000555050505050565b60025460ff1690565b6107767f65d7a28e3265b37a6474929f336521b332c1681b933f6cb9f3376673440d862a6104d9611c8d565b6107b15760405162461bcd60e51b8152600401808060200182810382526027815260200180612a136027913960400191505060405180910390fd5b6105f7611e01565b600260005414156107ff576040805162461bcd60e51b815260206004820152601f6024820152600080516020612895833981519152604482015290519081900360640190fd5b60026000908155601254600954604080516331a9108f60e11b8152600481018990529051889485946001600160a01b03908116941692636352211e9260248083019360209383900390910190829087803b15801561085c57600080fd5b505af1158015610870573d6000803e3d6000fd5b505050506040513d602081101561088657600080fd5b50516001600160a01b0316146108cd5760405162461bcd60e51b815260040180806020018281038252602a8152602001806128b5602a913960400191505060405180910390fd5b6108d561273a565b6108de87611e82565b905060006108ef8260200151612004565b905060006108fd42886120c9565b90506000610909612786565b610917308660200151612123565b805190915060ff16610970576040805162461bcd60e51b815260206004820152601d60248201527f453a53453a20636f6e7472616374206e6f74206175746820696e204143000000604482015290519081900360640190fd5b60008460ff161180156109865750600a8460ff16105b6109d3576040805162461bcd60e51b8152602060048201526019602482015278453a53453a2075736572206e6f74206175746820696e20414360381b604482015290519081900360640190fd5b42831015610a125760405162461bcd60e51b8152600401808060200182810382526030815260200180612a3a6030913960400191505060405180910390fd5b60058460ff161080610a44575060048460ff16118015610a355750600a8460ff16105b8015610a44575060318860ff16115b610a7f5760405162461bcd60e51b81526004018080602001828103825260428152602001806128246042913960600191505060405180910390fd5b8760ff16603c1415610ac25760405162461bcd60e51b81526004018080602001828103825260248152602001806129046024913960400191505060405180910390fd5b879150610acd61279d565b60058152610ad9611c8d565b6001600160a01b031660e0820152610aef61279d565b61270f60c0820152610b038d858e886121ce565b610b0d8d8361229b565b610b178d826123bd565b505060016000555050505050505050505050565b6000828152600160205260408120610b4390836124bd565b90505b92915050565b6000828152600160205260408120610b4390836124c9565b600081565b60026000541415610baf576040805162461bcd60e51b815260206004820152601f6024820152600080516020612895833981519152604482015290519081900360640190fd5b60026000908155601254600954604080516331a9108f60e11b8152600481018990529051889485946001600160a01b03908116941692636352211e9260248083019360209383900390910190829087803b158015610c0c57600080fd5b505af1158015610c20573d6000803e3d6000fd5b505050506040513d6020811015610c3657600080fd5b50516001600160a01b031614610c7d5760405162461bcd60e51b815260040180806020018281038252602a8152602001806128b5602a913960400191505060405180910390fd5b610c8561273a565b610c8e87611e82565b90506000610c9f8260200151612004565b90506000610cad42886120c9565b90506000610cb9612786565b610cc7308660200151612123565b805190915060ff16610d20576040805162461bcd60e51b815260206004820152601d60248201527f453a53453a20636f6e7472616374206e6f74206175746820696e204143000000604482015290519081900360640190fd5b60008460ff16118015610d365750600a8460ff16105b610d83576040805162461bcd60e51b8152602060048201526019602482015278453a53453a2075736572206e6f74206175746820696e20414360381b604482015290519081900360640190fd5b42831015610dc25760405162461bcd60e51b8152600401808060200182810382526030815260200180612a3a6030913960400191505060405180910390fd5b60058460ff161080610df4575060048460ff16118015610de55750600a8460ff16105b8015610df4575060318860ff16115b610e2f5760405162461bcd60e51b81526004018080602001828103825260428152602001806128246042913960600191505060405180910390fd5b8760ff16603c1415610e725760405162461bcd60e51b81526004018080602001828103825260248152602001806129046024913960400191505060405180910390fd5b879150610e818b838c866121ce565b50506001600055505050505050505050565b610ea060006104d9611c8d565b610edb5760405162461bcd60e51b81526004018080602001828103825260258152602001806129286025913960400191505060405180910390fd5b60026000541415610f21576040805162461bcd60e51b815260206004820152601f6024820152600080516020612895833981519152604482015290519081900360640190fd5b60026000908155600b5460408051632142170760e11b81523060048201526001600160a01b038681166024830152604482018690529151859492909316926342842e0e9260648084019391929182900301818387803b15801561071f57600080fd5b6000818152600160205260408120610b46906124de565b600082815260016020526040902060020154610fb8906104d9611c8d565b61057e5760405162461bcd60e51b815260040180806020018281038252603081526020018061294d6030913960400191505060405180910390fd5b61100060006104d9611c8d565b61103b5760405162461bcd60e51b81526004018080602001828103825260258152602001806129286025913960400191505060405180910390fd5b6001600160a01b0381166110805760405162461bcd60e51b81526004018080602001828103825260258152602001806128df6025913960400191505060405180910390fd5b600380546001600160a01b0319166001600160a01b0392909216919091179055565b7f65d7a28e3265b37a6474929f336521b332c1681b933f6cb9f3376673440d862a81565b6002600054141561110c576040805162461bcd60e51b815260206004820152601f6024820152600080516020612895833981519152604482015290519081900360640190fd5b6002600090815561111f906104d9611c8d565b61115a5760405162461bcd60e51b81526004018080602001828103825260258152602001806129286025913960400191505060405180910390fd5b600354604080516363b8d4c160e11b8152602060048201819052600660248301526520a1afaa25a760d11b604483015291516001600160a01b039093169263c771a98292606480840193919291829003018186803b1580156111bb57600080fd5b505afa1580156111cf573d6000803e3d6000fd5b505050506040513d60208110156111e557600080fd5b5051600a80546001600160a01b039283166001600160a01b03199182161791829055600b8054909116918316919091179055600354604080516363b8d4c160e11b8152602060048201819052600660248301526520a1afa6a3a960d11b60448301529151929093169263c771a9829260648083019392829003018186803b15801561126f57600080fd5b505afa158015611283573d6000803e3d6000fd5b505050506040513d602081101561129957600080fd5b5051600480546001600160a01b039283166001600160a01b03199182161780835560058054909216908416179055600354604080516363b8d4c160e11b8152602093810184905260086024820152672aaa24a62faa25a760c11b60448201529051919093169263c771a982926064808301939192829003018186803b15801561132157600080fd5b505afa158015611335573d6000803e3d6000fd5b505050506040513d602081101561134b57600080fd5b5051600680546001600160a01b039283166001600160a01b0319918216179182905560078054909116918316919091179055600354604080516363b8d4c160e11b8152602060048201819052600560248301526420afaa25a760d91b60448301529151929093169263c771a9829260648083019392829003018186803b1580156113d457600080fd5b505afa1580156113e8573d6000803e3d6000fd5b505050506040513d60208110156113fe57600080fd5b5051600880546001600160a01b039283166001600160a01b0319918216179182905560098054909116918316919091179055600354604080516363b8d4c160e11b8152602060048201819052600660248301526524a22faa25a760d11b60448301529151929093169263c771a9829260648083019392829003018186803b15801561148857600080fd5b505afa15801561149c573d6000803e3d6000fd5b505050506040513d60208110156114b257600080fd5b5051600c80546001600160a01b039283166001600160a01b03199182161791829055600d8054909116918316919091179055600354604080516363b8d4c160e11b8152602060048201819052600760248301526622a1a92fa6a3a960c91b60448301529151929093169263c771a9829260648083019392829003018186803b15801561153d57600080fd5b505afa158015611551573d6000803e3d6000fd5b505050506040513d602081101561156757600080fd5b5051600e80546001600160a01b039283166001600160a01b03199182161791829055600f805490911691831691909117905560038054604080516363b8d4c160e11b815260206004820181905260248201949094526204150560ec1b60448201529051919093169263c771a982926064808301939192829003018186803b1580156115f157600080fd5b505afa158015611605573d6000803e3d6000fd5b505050506040513d602081101561161b57600080fd5b5051601280546001600160a01b039283166001600160a01b0319918216179182905560138054909116918316919091179055600354604080516363b8d4c160e11b8152602060048083018290526024830152632921a62960e11b60448301529151929093169263c771a9829260648083019392829003018186803b1580156116a257600080fd5b505afa1580156116b6573d6000803e3d6000fd5b505050506040513d60208110156116cc57600080fd5b5051601080546001600160a01b039283166001600160a01b0319918216179182905560118054909116918316919091179055600354604080516363b8d4c160e11b815260206004820181905260066024830152654150505f4e4360d01b60448301529151929093169263c771a9829260648083019392829003018186803b15801561175657600080fd5b505afa15801561176a573d6000803e3d6000fd5b505050506040513d602081101561178057600080fd5b5051601480546001600160a01b0319166001600160a01b03928316179055600354604080516363b8d4c160e11b8152602060048201819052600260248301526104e560f41b60448301529151929093169263c771a9829260648083019392829003018186803b1580156117f257600080fd5b505afa158015611806573d6000803e3d6000fd5b505050506040513d602081101561181c57600080fd5b5051601780546001600160a01b0319166001600160a01b039092169190911790556001600055565b6002600054141561188a576040805162461bcd60e51b815260206004820152601f6024820152600080516020612895833981519152604482015290519081900360640190fd5b60026000908155601254600954604080516331a9108f60e11b8152600481018690529051859485946001600160a01b03908116941692636352211e9260248083019360209383900390910190829087803b1580156118e757600080fd5b505af11580156118fb573d6000803e3d6000fd5b505050506040513d602081101561191157600080fd5b50516001600160a01b0316146119585760405162461bcd60e51b815260040180806020018281038252602a8152602001806128b5602a913960400191505060405180910390fd5b61196061273a565b61196984611e82565b90506119736127e1565b61197c856124e9565b9050611986612786565b611994308460200151612123565b905060006119a58460200151612004565b600f546040805163019b0f5f60e01b8152600481018b905290519293506000926001600160a01b039092169163019b0f5f9160248082019260209290919082900301818787803b1580156119f857600080fd5b505af1158015611a0c573d6000803e3d6000fd5b505050506040513d6020811015611a2257600080fd5b5051835190915060ff16611a7d576040805162461bcd60e51b815260206004820152601d60248201527f453a45453a20636f6e7472616374206e6f74206175746820696e204143000000604482015290519081900360640190fd5b60008260ff16118015611a935750600a8260ff16105b611ae4576040805162461bcd60e51b815260206004820152601960248201527f453a45453a2075736572206e6f74206175746820696e20414300000000000000604482015290519081900360640190fd5b846000015160ff16603c1415611b2b5760405162461bcd60e51b81526004018080602001828103825260258152602001806129ee6025913960400191505060405180910390fd5b6031856000015160ff161180611b44575060058260ff16105b611b7f5760405162461bcd60e51b815260040180806020018281038252603681526020018061297d6036913960400191505060405180910390fd5b4284604001511080611bc9575080611b95611c8d565b60405160200180826001600160a01b031660601b815260140191505060405160208183030381529060405280519060200120145b611c045760405162461bcd60e51b815260040180806020018281038252603b8152602001806129b3603b913960400191505060405180910390fd5b600f5460408051633a38454b60e21b8152600481018b905290516001600160a01b039092169163e8e1152c9160248082019260009290919082900301818387803b158015611c5157600080fd5b505af1158015611c65573d6000803e3d6000fd5b5050600160005550505050505050505050565b6000610b43836001600160a01b038416612595565b3390565b6000828152600160205260409020611ca99082611c78565b1561052357611cb6611c8d565b6001600160a01b0316816001600160a01b0316837f2f8788117e7eff1d82e926ec794901d17c78024a50270940304540a733656f0d60405160405180910390a45050565b6000828152600160205260409020611d1290826125df565b1561052357611d1f611c8d565b6001600160a01b0316816001600160a01b0316837ff6391f5c32d9c69d2a47ea670b442974b53935d1edc7fd64eb21e047a839171b60405160405180910390a45050565b60025460ff16611db1576040805162461bcd60e51b815260206004820152601460248201527314185d5cd8589b194e881b9bdd081c185d5cd95960621b604482015290519081900360640190fd5b6002805460ff191690557f5db9ee0a495bf2e6ff9c91a7834c1ba4fdd244a5e8aa4e537bd38aeae4b073aa611de4611c8d565b604080516001600160a01b039092168252519081900360200190a1565b60025460ff1615611e4c576040805162461bcd60e51b815260206004820152601060248201526f14185d5cd8589b194e881c185d5cd95960821b604482015290519081900360640190fd5b6002805460ff191660011790557f62e78cea01bee320cd4e420270b5ea74000d11b0c9f74754ebdbfc544b05a258611de4611c8d565b611e8a61273a565b611e9261273a565b6000806000806000806000600360009054906101000a90046001600160a01b03166001600160a01b031663e248f2c48b6040518263ffffffff1660e01b81526004018082815260200191505060e06040518083038186803b158015611ef657600080fd5b505afa158015611f0a573d6000803e3d6000fd5b505050506040513d60e0811015611f2057600080fd5b81019080805190602001909291908051906020019092919080519060200190929190805190602001909291908051906020019092919080519060200190929190805190602001909291905050509650965096509650965096509650868860c001818152505085886000019060ff16908160ff168152505084886020019063ffffffff16908163ffffffff168152505083886040019063ffffffff16908163ffffffff168152505082886060019063ffffffff16908163ffffffff1681525050818860e001818152505080886101000181815250505050505050505080915050919050565b60055460009081906001600160a01b0316639d2c7cee612022611c8d565b60405160200180826001600160a01b031660601b815260140191505060405160208183030381529060405280519060200120856040518363ffffffff1660e01b8152600401808381526020018263ffffffff1681526020019250505060206040518083038186803b15801561209657600080fd5b505afa1580156120aa573d6000803e3d6000fd5b505050506040513d60208110156120c057600080fd5b50519392505050565b600082820183811015610b43576040805162461bcd60e51b815260206004820152601b60248201527f536166654d6174683a206164646974696f6e206f766572666c6f770000000000604482015290519081900360640190fd5b61212b612786565b612133612786565b60035460408051636fcfb49b60e11b81526001600160a01b03878116600483015263ffffffff87166024830152825193169263df9f693692604480840193919291829003018186803b15801561218857600080fd5b505afa15801561219c573d6000803e3d6000fd5b505050506040513d60408110156121b257600080fd5b5080516020918201519183019190915260ff1681529392505050565b60025460ff1615612219576040805162461bcd60e51b815260206004820152601060248201526f14185d5cd8589b194e881c185d5cd95960821b604482015290519081900360640190fd5b600f5460408051637318462b60e11b81526004810187905260ff86166024820152604481018590526064810184905290516001600160a01b039092169163e6308c569160848082019260009290919082900301818387803b15801561227d57600080fd5b505af1158015612291573d6000803e3d6000fd5b5050505050505050565b60025460ff16156122e6576040805162461bcd60e51b815260206004820152601060248201526f14185d5cd8589b194e881c185d5cd95960821b604482015290519081900360640190fd5b600f54815160208301516040808501516060860151608087015160a088015160c089015160e08a0151865163333c25e160e21b8152600481018d905260ff998a1660248201529789166044890152948816606488015296909216608486015261ffff90811660a48601521660c484015263ffffffff90931660e48301526001600160a01b0392831661010483015251919092169163ccf097849161012480830192600092919082900301818387803b1580156123a157600080fd5b505af11580156123b5573d6000803e3d6000fd5b505050505050565b60025460ff1615612408576040805162461bcd60e51b815260206004820152601060248201526f14185d5cd8589b194e881c185d5cd95960821b604482015290519081900360640190fd5b600f54815160208301516040808501516060860151608087015160a088015160c089015160e08a01518651637a794aa960e01b8152600481018d905263ffffffff998a16602482015297891660448901529790941660648701526001600160a01b03928316608487015260a486019190915260c485015260e4840191909152610104830193909352519190921691637a794aa99161012480830192600092919082900301818387803b1580156123a157600080fd5b6000610b4383836125f4565b6000610b43836001600160a01b038416612658565b6000610b4682612670565b6124f16127e1565b6124f96127e1565b600f5460408051630a3b3fe560e41b81526004810186905290516001600160a01b039092169163a3b3fe50916024808201926060929091908290030181600087803b15801561254757600080fd5b505af115801561255b573d6000803e3d6000fd5b505050506040513d606081101561257157600080fd5b50805160208083015160409384015193850193909352830191909152815292915050565b60006125a18383612658565b6125d757508154600181810184556000848152602080822090930184905584548482528286019093526040902091909155610b46565b506000610b46565b6000610b43836001600160a01b038416612674565b815460009082106126365760405162461bcd60e51b81526004018080602001828103825260228152602001806128026022913960400191505060405180910390fd5b82600001828154811061264557fe5b9060005260206000200154905092915050565b60009081526001919091016020526040902054151590565b5490565b6000818152600183016020526040812054801561273057835460001980830191908101906000908790839081106126a757fe5b90600052602060002001549050808760000184815481106126c457fe5b6000918252602080832090910192909255828152600189810190925260409020908401905586548790806126f457fe5b60019003818190600052602060002001600090559055866001016000878152602001908152602001600020600090556001945050505050610b46565b6000915050610b46565b6040805161012081018252600080825260208201819052918101829052606081018290526080810182905260a0810182905260c0810182905260e0810182905261010081019190915290565b604080518082019091526000808252602082015290565b6040805161010081018252600080825260208201819052918101829052606081018290526080810182905260a0810182905260c0810182905260e081019190915290565b60408051606081018252600080825260208201819052918101919091529056fe456e756d657261626c655365743a20696e646578206f7574206f6620626f756e6473453a53453a204e6f6e2073757065727669736f726564206167656e7473206d7573742073657420657363726f77207374617475732077697468696e2073636f70652e416363657373436f6e74726f6c3a2073656e646572206d75737420626520616e2061646d696e20746f206772616e745265656e7472616e637947756172643a207265656e7472616e742063616c6c00453a4d4f442d49413a2041505020636f6e747261637420646f6573206e6f7420686f6c6420746f6b656e423a5353433a2073746f7261676520616464726573732063616e6e6f74206265207a65726f453a53453a2043616e6e6f742073657420746f2072656379636c6564207374617475732e50414d3a4d4f443a206d75737420686176652044454641554c545f41444d494e5f524f4c45416363657373436f6e74726f6c3a2073656e646572206d75737420626520616e2061646d696e20746f207265766f6b65453a45453a205573657274797065206c657373207468616e203520726571756972656420746f20656e64207468697320657363726f77453a45453a20457363726f7720706572696f64206e6f7420656e646564206f722063616c6c6572206973206e6f7420657363726f77206f776e6572453a45452d204173736574206973206469736361726465642c207573652052656379636c6541543a4d4f442d49413a43616c6c696e672061646472657373206973206e6f7420706175736572453a53453a20457363726f77206d7573742062652073657420746f20612074696d6520696e2074686520667574757265416363657373436f6e74726f6c3a2063616e206f6e6c792072656e6f756e636520726f6c657320666f722073656c66a26469706673582212200935d4f57e9c8e7d9e976ed315a3c65029252fc36fc8d599fdd8a6bd8c62fcc464736f6c634300060c0033",
  "immutableReferences": {},
  "source": "/*--------------------------------------------------------PRuF0.7.1\n__/\\\\\\\\\\\\\\\\\\\\\\\\\\ _____/\\\\\\\\\\\\\\\\\\ _______/\\\\../\\\\ ___/\\\\\\\\\\\\\\\\\\\\\\\\\\\\\\\n _\\/\\\\\\/////////\\\\\\ _/\\\\\\///////\\\\\\ ____\\//..\\//____\\/\\\\\\///////////__\n  _\\/\\\\\\.......\\/\\\\\\.\\/\\\\\\.....\\/\\\\\\ ________________\\/\\\\\\ ____________\n   _\\/\\\\\\\\\\\\\\\\\\\\\\\\\\/__\\/\\\\\\\\\\\\\\\\\\\\\\/_____/\\\\\\____/\\\\\\.\\/\\\\\\\\\\\\\\\\\\\\\\ ____\n    _\\/\\\\\\/////////____\\/\\\\\\//////\\\\\\ ___\\/\\\\\\___\\/\\\\\\.\\/\\\\\\///////______\n     _\\/\\\\\\ ____________\\/\\\\\\ ___\\//\\\\\\ __\\/\\\\\\___\\/\\\\\\.\\/\\\\\\ ____________\n      _\\/\\\\\\ ____________\\/\\\\\\ ____\\//\\\\\\ _\\/\\\\\\___\\/\\\\\\.\\/\\\\\\ ____________\n       _\\/\\\\\\ ____________\\/\\\\\\ _____\\//\\\\\\.\\//\\\\\\\\\\\\\\\\\\ _\\/\\\\\\ ____________\n        _\\/// _____________\\/// _______\\/// __\\///////// __\\/// _____________\n         *-------------------------------------------------------------------*/\n\n/*-----------------------------------------------------------------\n *  TO DO\n *\n *---------------------------------------------------------------*/\n\n// SPDX-License-Identifier: UNLICENSED\npragma solidity ^0.6.7;\n\nimport \"./PRUF_ECR_CORE.sol\";\nimport \"./Imports/math/safeMath.sol\";\n\ncontract ECR is ECR_CORE {\n    using SafeMath for uint256;\n    /*\n     * @dev Verify user credentials\n     * Originating Address:\n     *      Exists in registeredUsers as a usertype 1 to 9\n     *      Is authorized for asset class\n     */\n    modifier isAuthorized(bytes32 _idxHash) override {\n        uint256 tokenId = uint256(_idxHash);\n        require(\n            A_TKN.ownerOf(tokenId) == APP_Address,\n            \"E:MOD-IA: APP contract does not hold token\"\n        );\n        _;\n    }\n\n    /*\n     * @dev puts asset into an escrow status for a certain time period\n     */\n    function setEscrow(\n        bytes32 _idxHash,\n        bytes32 _escrowOwnerHash,\n        uint256 _escrowTime,\n        uint8 _escrowStatus\n    ) external nonReentrant isAuthorized(_idxHash) {\n        Record memory rec = getRecord(_idxHash);\n        uint8 userType = getCallingUserType(rec.assetClass);\n        uint256 escrowTime = block.timestamp.add(_escrowTime);\n        uint8 newEscrowStatus;\n        ContractDataHash memory contractInfo = getContractInfo(\n            address(this),\n            rec.assetClass\n        );\n\n        require(contractInfo.contractType > 0, \"E:SE: contract not auth in AC\");\n        require((userType > 0) && (userType < 10), \"E:SE: user not auth in AC\");\n        require( //REDUNDANT, THROWS IN SAFEMATH CTS:PREFERRED\n            (escrowTime >= block.timestamp),\n            \"E:SE: Escrow must be set to a time in the future\"\n        );\n        require(\n            (userType < 5) ||\n                ((userType > 4) && (userType < 10) && (_escrowStatus > 49)),\n            \"E:SE: Non supervisored agents must set escrow status within scope.\"\n        );\n        require((_escrowStatus != 60), \"E:SE: Cannot set to recycled status.\");\n        //^^^^^^^checks^^^^^^^^^\n\n        newEscrowStatus = _escrowStatus;\n        //^^^^^^^effects^^^^^^^^^\n\n        _setEscrowData(_idxHash, newEscrowStatus, _escrowOwnerHash, escrowTime);\n        //^^^^^^^interactions^^^^^^^^^\n    }\n\n    /*\n     * @dev puts asset into an escrow status for a certain time period\n     * Includes sample code for setting extended data\n     */\n    function setEscrowExtendedData(\n        bytes32 _idxHash,\n        bytes32 _escrowOwnerHash,\n        uint256 _escrowTime,\n        uint8 _escrowStatus\n    ) external nonReentrant isAuthorized(_idxHash) {\n        Record memory rec = getRecord(_idxHash);\n        uint8 userType = getCallingUserType(rec.assetClass);\n        uint256 escrowTime = block.timestamp.add(_escrowTime);\n        uint8 newEscrowStatus;\n        ContractDataHash memory contractInfo = getContractInfo(\n            address(this),\n            rec.assetClass\n        );\n\n        require(contractInfo.contractType > 0, \"E:SE: contract not auth in AC\");\n        require((userType > 0) && (userType < 10), \"E:SE: user not auth in AC\");\n        require( //REDUNDANT, THROWS IN SAFEMATH CTS:PREFERRED\n            (escrowTime >= block.timestamp),\n            \"E:SE: Escrow must be set to a time in the future\"\n        );\n        require(\n            (userType < 5) ||\n                ((userType > 4) && (userType < 10) && (_escrowStatus > 49)), //CTS: EXAMINE, weirdly worded..\n            \"E:SE: Non supervisored agents must set escrow status within scope.\"\n        );\n        require((_escrowStatus != 60), \"E:SE: Cannot set to recycled status.\");\n        //^^^^^^^checks^^^^^^^^^\n\n        newEscrowStatus = _escrowStatus;\n\n        escrowDataExtLight memory escrowDataLight; //demo for setting \"light\" struct data\n        escrowDataLight.escrowData = 5;\n        escrowDataLight.addr_1 = _msgSender();\n\n        escrowDataExtHeavy memory escrowDataHeavy; //demo for setting \"Heavy\" struct data\n        escrowDataHeavy.u256_1 = 9999;\n        //^^^^^^^effects^^^^^^^^^\n\n        _setEscrowData(_idxHash, newEscrowStatus, _escrowOwnerHash, escrowTime);\n\n        _setEscrowDataLight(_idxHash, escrowDataLight); //Sets \"light\" EXT data\n\n        _setEscrowDataHeavy(_idxHash, escrowDataHeavy); //Sets \"Heavy\" EXT data\n        //^^^^^^^interactions^^^^^^^^^\n    }\n\n    /*\n     * @dev takes asset out of excrow status if time period has resolved || is escrow issuer\n     */\n    function endEscrow(bytes32 _idxHash)\n        external\n        nonReentrant\n        isAuthorized(_idxHash)\n    {\n        Record memory rec = getRecord(_idxHash);\n        escrowData memory escrow = getEscrowData(_idxHash);\n        ContractDataHash memory contractInfo = getContractInfo(\n            address(this),\n            rec.assetClass\n        );\n        uint8 userType = getCallingUserType(rec.assetClass);\n        bytes32 ownerHash = ECR_MGR.retrieveEscrowOwner(_idxHash);\n\n        require(contractInfo.contractType > 0, \"E:EE: contract not auth in AC\");\n        require((userType > 0) && (userType < 10), \"E:EE: user not auth in AC\");\n        require( //STATE UNREACHABLE CTS:PREFERRED\n            (rec.assetStatus != 60),\n            \"E:EE- Asset is discarded, use Recycle\"\n        );\n        require(\n            ((rec.assetStatus > 49) || (userType < 5)),\n            \"E:EE: Usertype less than 5 required to end this escrow\"\n        );\n        require(\n            (escrow.timelock < block.timestamp) ||\n                (keccak256(abi.encodePacked(_msgSender())) == ownerHash),\n            \"E:EE: Escrow period not ended or caller is not escrow owner\"\n        );\n        //^^^^^^^checks^^^^^^^^^\n\n        ECR_MGR.endEscrow(_idxHash);\n        //^^^^^^^interactions^^^^^^^^^\n    }\n}\n",
  "sourcePath": "/Users/cts/dev/PRUF/PRUF_TRUFFLE/contracts/PRUF_ECR.sol",
  "compiler": {
    "name": "solc",
    "version": "0.6.12+commit.27d51765.Emscripten.clang"
  },
  "schemaVersion": "3.2.3",
  "updatedAt": "2020-12-13T01:45:41.229Z",
  "devdoc": {
    "kind": "dev",
    "methods": {
      "getRoleAdmin(bytes32)": {
        "details": "Returns the admin role that controls `role`. See {grantRole} and {revokeRole}. To change a role's admin, use {_setRoleAdmin}."
      },
      "getRoleMember(bytes32,uint256)": {
        "details": "Returns one of the accounts that have `role`. `index` must be a value between 0 and {getRoleMemberCount}, non-inclusive. Role bearers are not sorted in any particular way, and their ordering may change at any point. WARNING: When using {getRoleMember} and {getRoleMemberCount}, make sure you perform all queries on the same block. See the following https://forum.openzeppelin.com/t/iterating-over-elements-on-enumerableset-in-openzeppelin-contracts/2296[forum post] for more information."
      },
      "getRoleMemberCount(bytes32)": {
        "details": "Returns the number of accounts that have `role`. Can be used together with {getRoleMember} to enumerate all bearers of a role."
      },
      "grantRole(bytes32,address)": {
        "details": "Grants `role` to `account`. If `account` had not been already granted `role`, emits a {RoleGranted} event. Requirements: - the caller must have ``role``'s admin role."
      },
      "hasRole(bytes32,address)": {
        "details": "Returns `true` if `account` has been granted `role`."
      },
      "pause()": {
        "details": "Triggers stopped state. (pausable)"
      },
      "paused()": {
        "details": "Returns true if the contract is paused, and false otherwise."
      },
      "renounceRole(bytes32,address)": {
        "details": "Revokes `role` from the calling account. Roles are often managed via {grantRole} and {revokeRole}: this function's purpose is to provide a mechanism for accounts to lose their privileges if they are compromised (such as when a trusted device is misplaced). If the calling account had been granted `role`, emits a {RoleRevoked} event. Requirements: - the caller must be `account`."
      },
      "revokeRole(bytes32,address)": {
        "details": "Revokes `role` from `account`. If `account` had been granted `role`, emits a {RoleRevoked} event. Requirements: - the caller must have ``role``'s admin role."
      },
      "unpause()": {
        "details": "Returns to normal state. (pausable)"
      }
    },
    "version": 1
  },
  "userdoc": {
    "kind": "user",
    "methods": {},
    "version": 1
  }
}