{
  "contractName": "ECR2",
  "abi": [
    {
      "anonymous": false,
      "inputs": [
        {
          "indexed": false,
          "internalType": "address",
          "name": "account",
          "type": "address"
        }
      ],
      "name": "Paused",
      "type": "event"
    },
    {
      "anonymous": false,
      "inputs": [
        {
          "indexed": false,
          "internalType": "string",
          "name": "_msg",
          "type": "string"
        }
      ],
      "name": "REPORT",
      "type": "event"
    },
    {
      "anonymous": false,
      "inputs": [
        {
          "indexed": true,
          "internalType": "bytes32",
          "name": "role",
          "type": "bytes32"
        },
        {
          "indexed": true,
          "internalType": "bytes32",
          "name": "previousAdminRole",
          "type": "bytes32"
        },
        {
          "indexed": true,
          "internalType": "bytes32",
          "name": "newAdminRole",
          "type": "bytes32"
        }
      ],
      "name": "RoleAdminChanged",
      "type": "event"
    },
    {
      "anonymous": false,
      "inputs": [
        {
          "indexed": true,
          "internalType": "bytes32",
          "name": "role",
          "type": "bytes32"
        },
        {
          "indexed": true,
          "internalType": "address",
          "name": "account",
          "type": "address"
        },
        {
          "indexed": true,
          "internalType": "address",
          "name": "sender",
          "type": "address"
        }
      ],
      "name": "RoleGranted",
      "type": "event"
    },
    {
      "anonymous": false,
      "inputs": [
        {
          "indexed": true,
          "internalType": "bytes32",
          "name": "role",
          "type": "bytes32"
        },
        {
          "indexed": true,
          "internalType": "address",
          "name": "account",
          "type": "address"
        },
        {
          "indexed": true,
          "internalType": "address",
          "name": "sender",
          "type": "address"
        }
      ],
      "name": "RoleRevoked",
      "type": "event"
    },
    {
      "anonymous": false,
      "inputs": [
        {
          "indexed": false,
          "internalType": "address",
          "name": "account",
          "type": "address"
        }
      ],
      "name": "Unpaused",
      "type": "event"
    },
    {
      "inputs": [],
      "name": "ASSET_TXFR_ROLE",
      "outputs": [
        {
          "internalType": "bytes32",
          "name": "",
          "type": "bytes32"
        }
      ],
      "stateMutability": "view",
      "type": "function"
    },
    {
      "inputs": [],
      "name": "CONTRACT_ADMIN_ROLE",
      "outputs": [
        {
          "internalType": "bytes32",
          "name": "",
          "type": "bytes32"
        }
      ],
      "stateMutability": "view",
      "type": "function"
    },
    {
      "inputs": [],
      "name": "DEFAULT_ADMIN_ROLE",
      "outputs": [
        {
          "internalType": "bytes32",
          "name": "",
          "type": "bytes32"
        }
      ],
      "stateMutability": "view",
      "type": "function"
    },
    {
      "inputs": [],
      "name": "OO_resolveContractAddresses",
      "outputs": [],
      "stateMutability": "nonpayable",
      "type": "function"
    },
    {
      "inputs": [
        {
          "internalType": "address",
          "name": "_storageAddress",
          "type": "address"
        }
      ],
      "name": "OO_setStorageContract",
      "outputs": [],
      "stateMutability": "nonpayable",
      "type": "function"
    },
    {
      "inputs": [
        {
          "internalType": "address",
          "name": "_to",
          "type": "address"
        },
        {
          "internalType": "uint256",
          "name": "_tokenID",
          "type": "uint256"
        }
      ],
      "name": "OO_transferACToken",
      "outputs": [],
      "stateMutability": "nonpayable",
      "type": "function"
    },
    {
      "inputs": [],
      "name": "PAUSER_ROLE",
      "outputs": [
        {
          "internalType": "bytes32",
          "name": "",
          "type": "bytes32"
        }
      ],
      "stateMutability": "view",
      "type": "function"
    },
    {
      "inputs": [
        {
          "internalType": "bytes32",
          "name": "role",
          "type": "bytes32"
        }
      ],
      "name": "getRoleAdmin",
      "outputs": [
        {
          "internalType": "bytes32",
          "name": "",
          "type": "bytes32"
        }
      ],
      "stateMutability": "view",
      "type": "function"
    },
    {
      "inputs": [
        {
          "internalType": "bytes32",
          "name": "role",
          "type": "bytes32"
        },
        {
          "internalType": "uint256",
          "name": "index",
          "type": "uint256"
        }
      ],
      "name": "getRoleMember",
      "outputs": [
        {
          "internalType": "address",
          "name": "",
          "type": "address"
        }
      ],
      "stateMutability": "view",
      "type": "function"
    },
    {
      "inputs": [
        {
          "internalType": "bytes32",
          "name": "role",
          "type": "bytes32"
        }
      ],
      "name": "getRoleMemberCount",
      "outputs": [
        {
          "internalType": "uint256",
          "name": "",
          "type": "uint256"
        }
      ],
      "stateMutability": "view",
      "type": "function"
    },
    {
      "inputs": [
        {
          "internalType": "bytes32",
          "name": "role",
          "type": "bytes32"
        },
        {
          "internalType": "address",
          "name": "account",
          "type": "address"
        }
      ],
      "name": "grantRole",
      "outputs": [],
      "stateMutability": "nonpayable",
      "type": "function"
    },
    {
      "inputs": [
        {
          "internalType": "bytes32",
          "name": "role",
          "type": "bytes32"
        },
        {
          "internalType": "address",
          "name": "account",
          "type": "address"
        }
      ],
      "name": "hasRole",
      "outputs": [
        {
          "internalType": "bool",
          "name": "",
          "type": "bool"
        }
      ],
      "stateMutability": "view",
      "type": "function"
    },
    {
      "inputs": [
        {
          "internalType": "address",
          "name": "",
          "type": "address"
        },
        {
          "internalType": "address",
          "name": "",
          "type": "address"
        },
        {
          "internalType": "uint256",
          "name": "",
          "type": "uint256"
        },
        {
          "internalType": "bytes",
          "name": "",
          "type": "bytes"
        }
      ],
      "name": "onERC721Received",
      "outputs": [
        {
          "internalType": "bytes4",
          "name": "",
          "type": "bytes4"
        }
      ],
      "stateMutability": "nonpayable",
      "type": "function"
    },
    {
      "inputs": [],
      "name": "pause",
      "outputs": [],
      "stateMutability": "nonpayable",
      "type": "function"
    },
    {
      "inputs": [],
      "name": "paused",
      "outputs": [
        {
          "internalType": "bool",
          "name": "",
          "type": "bool"
        }
      ],
      "stateMutability": "view",
      "type": "function"
    },
    {
      "inputs": [
        {
          "internalType": "bytes32",
          "name": "role",
          "type": "bytes32"
        },
        {
          "internalType": "address",
          "name": "account",
          "type": "address"
        }
      ],
      "name": "renounceRole",
      "outputs": [],
      "stateMutability": "nonpayable",
      "type": "function"
    },
    {
      "inputs": [
        {
          "internalType": "bytes32",
          "name": "role",
          "type": "bytes32"
        },
        {
          "internalType": "address",
          "name": "account",
          "type": "address"
        }
      ],
      "name": "revokeRole",
      "outputs": [],
      "stateMutability": "nonpayable",
      "type": "function"
    },
    {
      "inputs": [
        {
          "internalType": "address",
          "name": "_to",
          "type": "address"
        },
        {
          "internalType": "bytes32",
          "name": "_idxHash",
          "type": "bytes32"
        }
      ],
      "name": "transferAssetToken",
      "outputs": [],
      "stateMutability": "nonpayable",
      "type": "function"
    },
    {
      "inputs": [],
      "name": "unpause",
      "outputs": [],
      "stateMutability": "nonpayable",
      "type": "function"
    },
    {
      "inputs": [
        {
          "internalType": "bytes32",
          "name": "_idxHash",
          "type": "bytes32"
        },
        {
          "internalType": "bytes32",
          "name": "_escrowOwnerHash",
          "type": "bytes32"
        },
        {
          "internalType": "uint256",
          "name": "_escrowTime",
          "type": "uint256"
        },
        {
          "internalType": "uint8",
          "name": "_escrowStatus",
          "type": "uint8"
        }
      ],
      "name": "setEscrow",
      "outputs": [],
      "stateMutability": "nonpayable",
      "type": "function"
    },
    {
      "inputs": [
        {
          "internalType": "bytes32",
          "name": "_idxHash",
          "type": "bytes32"
        }
      ],
      "name": "endEscrow",
      "outputs": [],
      "stateMutability": "nonpayable",
      "type": "function"
    },
    {
      "inputs": [
        {
          "internalType": "bytes32",
          "name": "_idxHash",
          "type": "bytes32"
        },
        {
          "internalType": "uint8",
          "name": "_escrowData",
          "type": "uint8"
        },
        {
          "internalType": "uint8",
          "name": "_u8_1",
          "type": "uint8"
        },
        {
          "internalType": "uint8",
          "name": "_u8_2",
          "type": "uint8"
        },
        {
          "internalType": "uint8",
          "name": "_u8_3",
          "type": "uint8"
        },
        {
          "internalType": "uint16",
          "name": "_u16_1",
          "type": "uint16"
        },
        {
          "internalType": "uint16",
          "name": "_u16_2",
          "type": "uint16"
        },
        {
          "internalType": "uint32",
          "name": "_u32_1",
          "type": "uint32"
        },
        {
          "internalType": "address",
          "name": "_addr_1",
          "type": "address"
        }
      ],
      "name": "_setEscrowDataLight",
      "outputs": [],
      "stateMutability": "nonpayable",
      "type": "function"
    },
    {
      "inputs": [
        {
          "internalType": "bytes32",
          "name": "_idxHash",
          "type": "bytes32"
        },
        {
          "internalType": "uint32",
          "name": "_u32_2",
          "type": "uint32"
        },
        {
          "internalType": "uint32",
          "name": "_u32_3",
          "type": "uint32"
        },
        {
          "internalType": "uint32",
          "name": "_u32_4",
          "type": "uint32"
        },
        {
          "internalType": "address",
          "name": "_addr_2",
          "type": "address"
        },
        {
          "internalType": "bytes32",
          "name": "_b32_1",
          "type": "bytes32"
        },
        {
          "internalType": "bytes32",
          "name": "_b32_2",
          "type": "bytes32"
        },
        {
          "internalType": "uint256",
          "name": "_u256_1",
          "type": "uint256"
        },
        {
          "internalType": "uint256",
          "name": "_u256_2",
          "type": "uint256"
        }
      ],
      "name": "_setEscrowDataHeavy",
      "outputs": [],
      "stateMutability": "nonpayable",
      "type": "function"
    }
  ],
  "bytecode": "0x60806040523480156200001157600080fd5b50600160009081556002805460ff191690556200003890620000326200009c565b620000a0565b620000677f2ce8d04a9c35987429af538825cd2438cc5c5bb5dc427955f84daaa3ea105016620000326200009c565b620000967f65d7a28e3265b37a6474929f336521b332c1681b933f6cb9f3376673440d862a620000326200009c565b620001b2565b3390565b620000ac8282620000b0565b5050565b6000828152600160209081526040909120620000d791839062001f0c6200012b821b17901c565b15620000ac57620000e76200009c565b6001600160a01b0316816001600160a01b0316837f2f8788117e7eff1d82e926ec794901d17c78024a50270940304540a733656f0d60405160405180910390a45050565b600062000142836001600160a01b0384166200014b565b90505b92915050565b60006200015983836200019a565b620001915750815460018181018455600084815260208082209093018490558454848252828601909352604090209190915562000145565b50600062000145565b60009081526001919091016020526040902054151590565b612bb180620001c26000396000f3fe608060405234801561001057600080fd5b506004361061014d5760003560e01c80639010d07c116100c3578063d547741f1161007c578063d547741f14610451578063d6b02ecf1461047d578063e63ab1e9146104a3578063e8b41653146104ab578063e8e1152c146104b3578063fda42b28146104d05761014d565b80639010d07c1461036357806391d14854146103a257806392ba3da6146103ce578063a217fddf146103fa578063b29c395914610402578063ca15c873146104345761014d565b806336568abe1161011557806336568abe1461026c5780633f4ba83a14610298578063440e7a7e146102a05780635c975abb146102cc5780638456cb59146102e857806386ec56d2146102f05761014d565b80631429db5f14610152578063150b7a021461016c5780631da0331214610219578063248a9ca3146102215780632f2ff15d1461023e575b600080fd5b61015a610532565b60408051918252519081900360200190f35b6101fc6004803603608081101561018257600080fd5b6001600160a01b038235811692602081013590911691604082013591908101906080810160608201356401000000008111156101bd57600080fd5b8201836020820111156101cf57600080fd5b803590602001918460018302840111640100000000831117156101f157600080fd5b509092509050610556565b604080516001600160e01b03199092168252519081900360200190f35b61015a610567565b61015a6004803603602081101561023757600080fd5b5035610579565b61026a6004803603604081101561025457600080fd5b50803590602001356001600160a01b031661058e565b005b61026a6004803603604081101561028257600080fd5b50803590602001356001600160a01b03166105fa565b61026a61065b565b61026a600480360360408110156102b657600080fd5b506001600160a01b0381351690602001356106cc565b6102d4610814565b604080519115158252519081900360200190f35b61026a61081d565b61026a600480360361012081101561030757600080fd5b5080359060ff60208201358116916040810135821691606082013581169160808101359091169061ffff60a082013581169160c08101359091169063ffffffff60e082013516906001600160a01b03610100909101351661088c565b6103866004803603604081101561037957600080fd5b50803590602001356109e0565b604080516001600160a01b039092168252519081900360200190f35b6102d4600480360360408110156103b857600080fd5b50803590602001356001600160a01b0316610a01565b61026a600480360360408110156103e457600080fd5b506001600160a01b038135169060200135610a19565b61015a610b33565b61026a6004803603608081101561041857600080fd5b508035906020810135906040810135906060013560ff16610b38565b61015a6004803603602081101561044a57600080fd5b5035611086565b61026a6004803603604081101561046757600080fd5b50803590602001356001600160a01b031661109d565b61026a6004803603602081101561049357600080fd5b50356001600160a01b03166110f6565b61015a6111b2565b61026a6111d6565b61026a600480360360208110156104c957600080fd5b5035611960565b61026a60048036036101208110156104e757600080fd5b5080359063ffffffff60208201358116916040810135821691606082013516906001600160a01b036080820135169060a08101359060c08101359060e0810135906101000135611de7565b7f7f1e4e9f3d9ba0452a25cfef4cd4c6ffc86158d06ed2f585fa0093e12dec429c81565b630a85bd0160e11b95945050505050565b600080516020612aa383398151915281565b60009081526001602052604090206002015490565b6000828152600160205260409020600201546105b1906105ac611f21565b610a01565b6105ec5760405162461bcd60e51b815260040180806020018281038252602f81526020018061280b602f913960400191505060405180910390fd5b6105f68282611f25565b5050565b610602611f21565b6001600160a01b0316816001600160a01b0316146106515760405162461bcd60e51b815260040180806020018281038252602f815260200180612b4d602f913960400191505060405180910390fd5b6105f68282611f8e565b6106877f65d7a28e3265b37a6474929f336521b332c1681b933f6cb9f3376673440d862a6105ac611f21565b6106c25760405162461bcd60e51b8152600401808060200182810382526027815260200180612ac36027913960400191505060405180910390fd5b6106ca611ff7565b565b60026000541415610712576040805162461bcd60e51b815260206004820152601f602482015260008051602061283a833981519152604482015290519081900360640190fd5b60026000556107437f7f1e4e9f3d9ba0452a25cfef4cd4c6ffc86158d06ed2f585fa0093e12dec429c6105ac611f21565b610794576040805162461bcd60e51b815260206004820152601e60248201527f423a54583a4d75737420686176652041535345545f545846525f524f4c450000604482015290519081900360640190fd5b60095460408051632142170760e11b81523060048201526001600160a01b038581166024830152604482018590529151849392909216916342842e0e9160648082019260009290919082900301818387803b1580156107f257600080fd5b505af1158015610806573d6000803e3d6000fd5b505060016000555050505050565b60025460ff1690565b6108497f65d7a28e3265b37a6474929f336521b332c1681b933f6cb9f3376673440d862a6105ac611f21565b6108845760405162461bcd60e51b8152600401808060200182810382526027815260200180612ac36027913960400191505060405180910390fd5b6106ca612095565b600260005414156108d2576040805162461bcd60e51b815260206004820152601f602482015260008051602061283a833981519152604482015290519081900360640190fd5b600260008190555460ff1615610922576040805162461bcd60e51b815260206004820152601060248201526f14185d5cd8589b194e881c185d5cd95960821b604482015290519081900360640190fd5b600f546040805163333c25e160e21b8152600481018c905260ff808c166024830152808b166044830152808a1660648301528816608482015261ffff80881660a4830152861660c482015263ffffffff851660e48201526001600160a01b038481166101048301529151919092169163ccf097849161012480830192600092919082900301818387803b1580156109b857600080fd5b505af11580156109cc573d6000803e3d6000fd5b505060016000555050505050505050505050565b60008281526001602052604081206109f89083612116565b90505b92915050565b60008281526001602052604081206109f89083612122565b610a33600080516020612aa38339815191526105ac611f21565b610a6e5760405162461bcd60e51b81526004018080602001828103825260268152602001806128bf6026913960400191505060405180910390fd5b60026000541415610ab4576040805162461bcd60e51b815260206004820152601f602482015260008051602061283a833981519152604482015290519081900360640190fd5b60026000908155600b5460408051632142170760e11b81523060048201526001600160a01b03868116602483015260448201869052915191909216926342842e0e926064808201939182900301818387803b158015610b1257600080fd5b505af1158015610b26573d6000803e3d6000fd5b5050600160005550505050565b600081565b60026000541415610b7e576040805162461bcd60e51b815260206004820152601f602482015260008051602061283a833981519152604482015290519081900360640190fd5b600260008190555460ff1615610bce576040805162461bcd60e51b815260206004820152601060248201526f14185d5cd8589b194e881c185d5cd95960821b604482015290519081900360640190fd5b601254600954604080516331a9108f60e11b8152600481018890529051879384936001600160a01b0391821693911691636352211e916024808201926020929091908290030181600087803b158015610c2657600080fd5b505af1158015610c3a573d6000803e3d6000fd5b505050506040513d6020811015610c5057600080fd5b50516001600160a01b031614610c975760405162461bcd60e51b815260040180806020018281038252603081526020018061290a6030913960400191505060405180910390fd5b610c9f6126df565b610ca887612137565b90506000610cb982602001516122b9565b90506000610cc7428861237e565b90506000610cd361272b565b610ce13086602001516123d8565b805190915060ff16610d245760405162461bcd60e51b81526004018080602001828103825260338152602001806129ac6033913960400191505060405180910390fd5b602085015163ffffffff16610d80576040805162461bcd60e51b815260206004820152601b60248201527f453a53453a205265636f726420646f6573206e6f742065786973740000000000604482015290519081900360640190fd5b60008460ff16118015610d965750600a8460ff16105b610dd15760405162461bcd60e51b8152600401808060200182810382526044815260200180612a156044913960600191505060405180910390fd5b42831015610e105760405162461bcd60e51b8152600401808060200182810382526030815260200180612b1d6030913960400191505060405180910390fd5b846000015160ff16600314158015610e305750846000015160ff16600414155b8015610e445750846000015160ff16603514155b8015610e585750846000015160ff16603614155b8015610e6c5750846000015160ff16600514155b8015610e805750846000015160ff16603714155b610ebb5760405162461bcd60e51b815260040180806020018281038252604281526020018061296a6042913960600191505060405180910390fd5b846000015160ff16600614158015610edb5750846000015160ff16603214155b8015610eef5750846000015160ff16603814155b610f2a5760405162461bcd60e51b8152600401808060200182810382526025815260200180612a7e6025913960400191505060405180910390fd5b60058460ff161080610f5c575060048460ff16118015610f4d5750600a8460ff16105b8015610f5c575060318860ff16115b610f975760405162461bcd60e51b81526004018080602001828103825260428152602001806127c96042913960600191505060405180910390fd5b8760ff1660061480610fac57508760ff166032145b80610fba57508760ff166038145b610ff55760405162461bcd60e51b81526004018080602001828103825260298152602001806128966029913960400191505060405180910390fd5b600f5460408051637318462b60e11b8152600481018e905260ff8b166024820152604481018d90526064810186905290518a94506001600160a01b039092169163e6308c569160848082019260009290919082900301818387803b15801561105c57600080fd5b505af1158015611070573d6000803e3d6000fd5b5050600160005550505050505050505050505050565b60008181526001602052604081206109fb90612483565b6000828152600160205260409020600201546110bb906105ac611f21565b6106515760405162461bcd60e51b815260040180806020018281038252603081526020018061293a6030913960400191505060405180910390fd5b611110600080516020612aa38339815191526105ac611f21565b61114b5760405162461bcd60e51b81526004018080602001828103825260268152602001806128bf6026913960400191505060405180910390fd5b6001600160a01b0381166111905760405162461bcd60e51b81526004018080602001828103825260258152602001806128e56025913960400191505060405180910390fd5b600380546001600160a01b0319166001600160a01b0392909216919091179055565b7f65d7a28e3265b37a6474929f336521b332c1681b933f6cb9f3376673440d862a81565b6002600054141561121c576040805162461bcd60e51b815260206004820152601f602482015260008051602061283a833981519152604482015290519081900360640190fd5b600260005561123b600080516020612aa38339815191526105ac611f21565b6112765760405162461bcd60e51b81526004018080602001828103825260268152602001806128bf6026913960400191505060405180910390fd5b600354604080516363b8d4c160e11b8152602060048201819052600660248301526520a1afaa25a760d11b604483015291516001600160a01b039093169263c771a98292606480840193919291829003018186803b1580156112d757600080fd5b505afa1580156112eb573d6000803e3d6000fd5b505050506040513d602081101561130157600080fd5b5051600a80546001600160a01b039283166001600160a01b03199182161791829055600b8054909116918316919091179055600354604080516363b8d4c160e11b8152602060048201819052600660248301526520a1afa6a3a960d11b60448301529151929093169263c771a9829260648083019392829003018186803b15801561138b57600080fd5b505afa15801561139f573d6000803e3d6000fd5b505050506040513d60208110156113b557600080fd5b5051600480546001600160a01b039283166001600160a01b03199182161780835560058054909216908416179055600354604080516363b8d4c160e11b8152602093810184905260086024820152672aaa24a62faa25a760c11b60448201529051919093169263c771a982926064808301939192829003018186803b15801561143d57600080fd5b505afa158015611451573d6000803e3d6000fd5b505050506040513d602081101561146757600080fd5b5051600680546001600160a01b039283166001600160a01b0319918216179182905560078054909116918316919091179055600354604080516363b8d4c160e11b8152602060048201819052600560248301526420afaa25a760d91b60448301529151929093169263c771a9829260648083019392829003018186803b1580156114f057600080fd5b505afa158015611504573d6000803e3d6000fd5b505050506040513d602081101561151a57600080fd5b5051600880546001600160a01b039283166001600160a01b0319918216179182905560098054909116918316919091179055600354604080516363b8d4c160e11b8152602060048201819052600660248301526524a22faa25a760d11b60448301529151929093169263c771a9829260648083019392829003018186803b1580156115a457600080fd5b505afa1580156115b8573d6000803e3d6000fd5b505050506040513d60208110156115ce57600080fd5b5051600c80546001600160a01b039283166001600160a01b03199182161791829055600d8054909116918316919091179055600354604080516363b8d4c160e11b8152602060048201819052600760248301526622a1a92fa6a3a960c91b60448301529151929093169263c771a9829260648083019392829003018186803b15801561165957600080fd5b505afa15801561166d573d6000803e3d6000fd5b505050506040513d602081101561168357600080fd5b5051600e80546001600160a01b039283166001600160a01b03199182161791829055600f805490911691831691909117905560038054604080516363b8d4c160e11b815260206004820181905260248201949094526204150560ec1b60448201529051919093169263c771a982926064808301939192829003018186803b15801561170d57600080fd5b505afa158015611721573d6000803e3d6000fd5b505050506040513d602081101561173757600080fd5b5051601280546001600160a01b039283166001600160a01b0319918216179182905560138054909116918316919091179055600354604080516363b8d4c160e11b8152602060048083018290526024830152632921a62960e11b60448301529151929093169263c771a9829260648083019392829003018186803b1580156117be57600080fd5b505afa1580156117d2573d6000803e3d6000fd5b505050506040513d60208110156117e857600080fd5b5051601080546001600160a01b039283166001600160a01b0319918216179182905560118054909116918316919091179055600354604080516363b8d4c160e11b815260206004820181905260066024830152654150505f4e4360d01b60448301529151929093169263c771a9829260648083019392829003018186803b15801561187257600080fd5b505afa158015611886573d6000803e3d6000fd5b505050506040513d602081101561189c57600080fd5b5051601480546001600160a01b0319166001600160a01b03928316179055600354604080516363b8d4c160e11b8152602060048201819052600260248301526104e560f41b60448301529151929093169263c771a9829260648083019392829003018186803b15801561190e57600080fd5b505afa158015611922573d6000803e3d6000fd5b505050506040513d602081101561193857600080fd5b5051601780546001600160a01b0319166001600160a01b039092169190911790556001600055565b600260005414156119a6576040805162461bcd60e51b815260206004820152601f602482015260008051602061283a833981519152604482015290519081900360640190fd5b60026000908155601254600954604080516331a9108f60e11b8152600481018690529051859485946001600160a01b03908116941692636352211e9260248083019360209383900390910190829087803b158015611a0357600080fd5b505af1158015611a17573d6000803e3d6000fd5b505050506040513d6020811015611a2d57600080fd5b50516001600160a01b031614611a745760405162461bcd60e51b815260040180806020018281038252603081526020018061290a6030913960400191505060405180910390fd5b611a7c6126df565b611a8584612137565b9050611a8f612742565b611a988561248e565b9050611aa261272b565b611ab03084602001516123d8565b90506000611ac184602001516122b9565b600f546040805163019b0f5f60e01b8152600481018b905290519293506000926001600160a01b039092169163019b0f5f9160248082019260209290919082900301818787803b158015611b1457600080fd5b505af1158015611b28573d6000803e3d6000fd5b505050506040513d6020811015611b3e57600080fd5b5051835190915060ff16611b835760405162461bcd60e51b8152600401808060200182810382526033815260200180612aea6033913960400191505060405180910390fd5b602085015163ffffffff16611bdf576040805162461bcd60e51b815260206004820152601b60248201527f453a45453a205265636f726420646f6573206e6f742065786973740000000000604482015290519081900360640190fd5b60008260ff16118015611bf55750600a8260ff16105b611c305760405162461bcd60e51b81526004018080602001828103825260448152602001806127636044913960600191505060405180910390fd5b846000015160ff1660061480611c4d5750846000015160ff166032145b80611c5f5750846000015160ff166038145b611c9a5760405162461bcd60e51b8152600401808060200182810382526025815260200180612a596025913960400191505060405180910390fd5b6031856000015160ff161180611cb3575060058260ff16105b611cee5760405162461bcd60e51b81526004018080602001828103825260368152602001806129df6036913960400191505060405180910390fd5b4284604001511080611d38575080611d04611f21565b60405160200180826001600160a01b031660601b815260140191505060405160208183030381529060405280519060200120145b611d735760405162461bcd60e51b815260040180806020018281038252603c81526020018061285a603c913960400191505060405180910390fd5b600f5460408051633a38454b60e21b8152600481018b905290516001600160a01b039092169163e8e1152c9160248082019260009290919082900301818387803b158015611dc057600080fd5b505af1158015611dd4573d6000803e3d6000fd5b5050600160005550505050505050505050565b60026000541415611e2d576040805162461bcd60e51b815260206004820152601f602482015260008051602061283a833981519152604482015290519081900360640190fd5b600260008190555460ff1615611e7d576040805162461bcd60e51b815260206004820152601060248201526f14185d5cd8589b194e881c185d5cd95960821b604482015290519081900360640190fd5b600f5460408051637a794aa960e01b8152600481018c905263ffffffff808c166024830152808b166044830152891660648201526001600160a01b03888116608483015260a4820188905260c4820187905260e48201869052610104820185905291519190921691637a794aa99161012480830192600092919082900301818387803b1580156109b857600080fd5b60006109f8836001600160a01b03841661253a565b3390565b6000828152600160205260409020611f3d9082611f0c565b156105f657611f4a611f21565b6001600160a01b0316816001600160a01b0316837f2f8788117e7eff1d82e926ec794901d17c78024a50270940304540a733656f0d60405160405180910390a45050565b6000828152600160205260409020611fa69082612584565b156105f657611fb3611f21565b6001600160a01b0316816001600160a01b0316837ff6391f5c32d9c69d2a47ea670b442974b53935d1edc7fd64eb21e047a839171b60405160405180910390a45050565b60025460ff16612045576040805162461bcd60e51b815260206004820152601460248201527314185d5cd8589b194e881b9bdd081c185d5cd95960621b604482015290519081900360640190fd5b6002805460ff191690557f5db9ee0a495bf2e6ff9c91a7834c1ba4fdd244a5e8aa4e537bd38aeae4b073aa612078611f21565b604080516001600160a01b039092168252519081900360200190a1565b60025460ff16156120e0576040805162461bcd60e51b815260206004820152601060248201526f14185d5cd8589b194e881c185d5cd95960821b604482015290519081900360640190fd5b6002805460ff191660011790557f62e78cea01bee320cd4e420270b5ea74000d11b0c9f74754ebdbfc544b05a258612078611f21565b60006109f88383612599565b60006109f8836001600160a01b0384166125fd565b61213f6126df565b6121476126df565b6000806000806000806000600360009054906101000a90046001600160a01b03166001600160a01b031663e248f2c48b6040518263ffffffff1660e01b81526004018082815260200191505060e06040518083038186803b1580156121ab57600080fd5b505afa1580156121bf573d6000803e3d6000fd5b505050506040513d60e08110156121d557600080fd5b81019080805190602001909291908051906020019092919080519060200190929190805190602001909291908051906020019092919080519060200190929190805190602001909291905050509650965096509650965096509650868860c001818152505085886000019060ff16908160ff168152505084886020019063ffffffff16908163ffffffff168152505083886040019063ffffffff16908163ffffffff168152505082886060019063ffffffff16908163ffffffff1681525050818860e001818152505080886101000181815250505050505050505080915050919050565b60055460009081906001600160a01b0316639d2c7cee6122d7611f21565b60405160200180826001600160a01b031660601b815260140191505060405160208183030381529060405280519060200120856040518363ffffffff1660e01b8152600401808381526020018263ffffffff1681526020019250505060206040518083038186803b15801561234b57600080fd5b505afa15801561235f573d6000803e3d6000fd5b505050506040513d602081101561237557600080fd5b50519392505050565b6000828201838110156109f8576040805162461bcd60e51b815260206004820152601b60248201527f536166654d6174683a206164646974696f6e206f766572666c6f770000000000604482015290519081900360640190fd5b6123e061272b565b6123e861272b565b60035460408051636fcfb49b60e11b81526001600160a01b03878116600483015263ffffffff87166024830152825193169263df9f693692604480840193919291829003018186803b15801561243d57600080fd5b505afa158015612451573d6000803e3d6000fd5b505050506040513d604081101561246757600080fd5b5080516020918201519183019190915260ff1681529392505050565b60006109fb82612615565b612496612742565b61249e612742565b600f5460408051630a3b3fe560e41b81526004810186905290516001600160a01b039092169163a3b3fe50916024808201926060929091908290030181600087803b1580156124ec57600080fd5b505af1158015612500573d6000803e3d6000fd5b505050506040513d606081101561251657600080fd5b50805160208083015160409384015193850193909352830191909152815292915050565b600061254683836125fd565b61257c575081546001818101845560008481526020808220909301849055845484825282860190935260409020919091556109fb565b5060006109fb565b60006109f8836001600160a01b038416612619565b815460009082106125db5760405162461bcd60e51b81526004018080602001828103825260228152602001806127a76022913960400191505060405180910390fd5b8260000182815481106125ea57fe5b9060005260206000200154905092915050565b60009081526001919091016020526040902054151590565b5490565b600081815260018301602052604081205480156126d5578354600019808301919081019060009087908390811061264c57fe5b906000526020600020015490508087600001848154811061266957fe5b60009182526020808320909101929092558281526001898101909252604090209084019055865487908061269957fe5b600190038181906000526020600020016000905590558660010160008781526020019081526020016000206000905560019450505050506109fb565b60009150506109fb565b6040805161012081018252600080825260208201819052918101829052606081018290526080810182905260a0810182905260c0810182905260e0810182905261010081019190915290565b604080518082019091526000808252602082015290565b60408051606081018252600080825260208201819052918101919091529056fe453a45453a2055736572206e6f7420617574686f72697a656420746f206d6f64696679207265636f72647320696e2073706563696669656420617373657420636c617373456e756d657261626c655365743a20696e646578206f7574206f6620626f756e6473453a53453a204e6f6e2073757065727669736f726564206167656e7473206d7573742073657420657363726f77207374617475732077697468696e2073636f70652e416363657373436f6e74726f6c3a2073656e646572206d75737420626520616e2061646d696e20746f206772616e745265656e7472616e637947756172643a207265656e7472616e742063616c6c00453a45453a20457363726f7720706572696f64206e6f7420656e64656420616e642063616c6c6572206973206e6f7420657363726f77206f776e6572453a53453a204d757374207370656369667920616e2076616c696420657363726f772073746174757350414d3a4d4f443a206d757374206861766520434f4e54524143545f41444d494e5f524f4c45423a5353433a2073746f7261676520616464726573732063616e6e6f74206265207a65726f453a4d4f442d49413a20437573746f6469616c20636f6e747261637420646f6573206e6f7420686f6c6420746f6b656e416363657373436f6e74726f6c3a2073656e646572206d75737420626520616e2061646d696e20746f207265766f6b65453a53453a205472616e736665727265642c206c6f73742c206f722073746f6c656e207374617475732063616e6e6f742062652073657420746f20657363726f772e453a53453a205468697320636f6e7472616374206e6f7420617574686f72697a656420666f7220737065636966696564204143453a45453a205573657274797065206c657373207468616e203520726571756972656420746f20656e64207468697320657363726f77453a53453a2055736572206e6f7420617574686f72697a656420746f206d6f64696679207265636f72647320696e2073706563696669656420617373657420636c617373453a45452d207265636f7264206d75737420626520696e20657363726f7720737461747573453a53453a20417373657420616c726561647920696e20657363726f77207374617475732e2ce8d04a9c35987429af538825cd2438cc5c5bb5dc427955f84daaa3ea10501641543a4d4f442d49413a43616c6c696e672061646472657373206973206e6f7420706175736572453a45453a205468697320636f6e7472616374206e6f7420617574686f72697a656420666f7220737065636966696564204143453a53453a20457363726f77206d7573742062652073657420746f20612074696d6520696e2074686520667574757265416363657373436f6e74726f6c3a2063616e206f6e6c792072656e6f756e636520726f6c657320666f722073656c66a2646970667358221220e1eafbbf8eb49bed45d8c1f5813ef2ce0dd0db2c240efff43883b8fb00380cf664736f6c634300060c0033",
  "immutableReferences": {},
  "source": "/*--------------------------------------------------------PRuF0.7.1\n__/\\\\\\\\\\\\\\\\\\\\\\\\\\ _____/\\\\\\\\\\\\\\\\\\ _______/\\\\../\\\\ ___/\\\\\\\\\\\\\\\\\\\\\\\\\\\\\\\n _\\/\\\\\\/////////\\\\\\ _/\\\\\\///////\\\\\\ ____\\//..\\//____\\/\\\\\\///////////__\n  _\\/\\\\\\.......\\/\\\\\\.\\/\\\\\\.....\\/\\\\\\ ________________\\/\\\\\\ ____________\n   _\\/\\\\\\\\\\\\\\\\\\\\\\\\\\/__\\/\\\\\\\\\\\\\\\\\\\\\\/_____/\\\\\\____/\\\\\\.\\/\\\\\\\\\\\\\\\\\\\\\\ ____\n    _\\/\\\\\\/////////____\\/\\\\\\//////\\\\\\ ___\\/\\\\\\___\\/\\\\\\.\\/\\\\\\///////______\n     _\\/\\\\\\ ____________\\/\\\\\\ ___\\//\\\\\\ __\\/\\\\\\___\\/\\\\\\.\\/\\\\\\ ____________\n      _\\/\\\\\\ ____________\\/\\\\\\ ____\\//\\\\\\ _\\/\\\\\\___\\/\\\\\\.\\/\\\\\\ ____________\n       _\\/\\\\\\ ____________\\/\\\\\\ _____\\//\\\\\\.\\//\\\\\\\\\\\\\\\\\\ _\\/\\\\\\ ____________\n        _\\/// _____________\\/// _______\\/// __\\///////// __\\/// _____________\n         *-------------------------------------------------------------------*/\n\n/*-----------------------------------------------------------------\n *  TO DO\n *\n *---------------------------------------------------------------*/\n\n// SPDX-License-Identifier: UNLICENSED\npragma solidity ^0.6.7;\n\nimport \"./PRUF_ECR_CORE.sol\";\n\ncontract ECR2 is ECR_CORE {\n    using SafeMath for uint256;\n    /*\n     * @dev Verify user credentials\n     * Originating Address:\n     *      Exists in registeredUsers as a usertype 1 to 9\n     *      Is authorized for asset class\n     */\n    modifier isAuthorized(bytes32 _idxHash) override {\n        uint256 tokenId = uint256(_idxHash);\n        require(\n            A_TKN.ownerOf(tokenId) == APP_Address,\n            \"E:MOD-IA: Custodial contract does not hold token\"\n        );\n        _;\n    }\n\n    /*\n     * @dev puts asset into an escrow status for a certain time period\n     */\n    function setEscrow(\n        bytes32 _idxHash,\n        bytes32 _escrowOwnerHash,\n        uint256 _escrowTime,\n        uint8 _escrowStatus\n    ) external nonReentrant whenNotPaused isAuthorized(_idxHash) {\n        Record memory rec = getRecord(_idxHash);\n        uint8 userType = getCallingUserType(rec.assetClass);\n        uint256 escrowTime = block.timestamp.add(_escrowTime);\n        uint8 newEscrowStatus;\n        ContractDataHash memory contractInfo = getContractInfo(\n            address(this),\n            rec.assetClass\n        );\n\n        require(\n            contractInfo.contractType > 0,\n            \"E:SE: This contract not authorized for specified AC\"\n        );\n        require((rec.assetClass != 0), \"E:SE: Record does not exist\");\n        require(\n            (userType > 0) && (userType < 10),\n            \"E:SE: User not authorized to modify records in specified asset class\"\n        );\n        require(\n            (escrowTime >= block.timestamp),\n            \"E:SE: Escrow must be set to a time in the future\"\n        );\n        require(\n            (rec.assetStatus != 3) &&\n                (rec.assetStatus != 4) &&\n                (rec.assetStatus != 53) &&\n                (rec.assetStatus != 54) &&\n                (rec.assetStatus != 5) &&\n                (rec.assetStatus != 55),\n            \"E:SE: Transferred, lost, or stolen status cannot be set to escrow.\"\n        );\n        require(\n            (rec.assetStatus != 6) &&\n                (rec.assetStatus != 50) &&\n                (rec.assetStatus != 56),\n            \"E:SE: Asset already in escrow status.\"\n        );\n        require(\n            (userType < 5) ||\n                ((userType > 4) && (userType < 10) && (_escrowStatus > 49)),\n            \"E:SE: Non supervisored agents must set escrow status within scope.\"\n        );\n        require(\n            (_escrowStatus == 6) ||\n                (_escrowStatus == 50) ||\n                (_escrowStatus == 56),\n            \"E:SE: Must specify an valid escrow status\"\n        );\n        //^^^^^^^checks^^^^^^^^^\n\n        newEscrowStatus = _escrowStatus;\n        //^^^^^^^effects^^^^^^^^^\n\n        ECR_MGR.setEscrow(\n            _idxHash,\n            newEscrowStatus,\n            _escrowOwnerHash,\n            escrowTime\n        );\n        //^^^^^^^^interactions^^^^^^^^^\n    }\n\n    /*\n     * @dev takes asset out of excrow status if time period has resolved || is escrow issuer\n     */\n    function endEscrow(bytes32 _idxHash)\n        external\n        nonReentrant\n        isAuthorized(_idxHash)\n    {\n        Record memory rec = getRecord(_idxHash);\n        escrowData memory escrow = getEscrowData(_idxHash);\n        ContractDataHash memory contractInfo = getContractInfo(\n            address(this),\n            rec.assetClass\n        );\n        uint8 userType = getCallingUserType(rec.assetClass);\n        bytes32 ownerHash = ECR_MGR.retrieveEscrowOwner(_idxHash);\n\n        require(\n            contractInfo.contractType > 0,\n            \"E:EE: This contract not authorized for specified AC\"\n        );\n\n        require((rec.assetClass != 0), \"E:EE: Record does not exist\");\n        require(\n            (userType > 0) && (userType < 10),\n            \"E:EE: User not authorized to modify records in specified asset class\"\n        );\n        require(\n            (rec.assetStatus == 6) ||\n                (rec.assetStatus == 50) ||\n                (rec.assetStatus == 56),\n            \"E:EE- record must be in escrow status\"\n        );\n        require(\n            ((rec.assetStatus > 49) || (userType < 5)),\n            \"E:EE: Usertype less than 5 required to end this escrow\"\n        );\n        require(\n            (escrow.timelock < block.timestamp) ||\n                (keccak256(abi.encodePacked(_msgSender())) == ownerHash),\n            \"E:EE: Escrow period not ended and caller is not escrow owner\"\n        );\n        //^^^^^^^checks^^^^^^^^^\n\n        ECR_MGR.endEscrow(_idxHash);\n        //^^^^^^^interactions^^^^^^^^^\n    }\n\n    function _setEscrowDataLight(\n        bytes32 _idxHash,\n        uint8 _escrowData,\n        uint8 _u8_1,\n        uint8 _u8_2,\n        uint8 _u8_3,\n        uint16 _u16_1,\n        uint16 _u16_2,\n        uint32 _u32_1,\n        address _addr_1\n    ) external nonReentrant whenNotPaused {\n        ECR_MGR.setEscrowDataLight(\n            _idxHash,\n            _escrowData,\n            _u8_1,\n            _u8_2,\n            _u8_3,\n            _u16_1,\n            _u16_2,\n            _u32_1,\n            _addr_1\n        );\n        //^^^^^^^interactions^^^^^^^^^\n    }\n\n    function _setEscrowDataHeavy(\n        bytes32 _idxHash,\n        uint32 _u32_2,\n        uint32 _u32_3,\n        uint32 _u32_4,\n        address _addr_2,\n        bytes32 _b32_1,\n        bytes32 _b32_2,\n        uint256 _u256_1,\n        uint256 _u256_2\n    ) external nonReentrant whenNotPaused {\n        ECR_MGR.setEscrowDataHeavy(\n            _idxHash,\n            _u32_2,\n            _u32_3,\n            _u32_4,\n            _addr_2,\n            _b32_1,\n            _b32_2,\n            _u256_1,\n            _u256_2\n        );\n        //^^^^^^^interactions^^^^^^^^^\n    }\n}\n",
  "sourcePath": "/Users/cts/dev/PRUF/PRUF_TRUFFLE/contracts/PRUF_ECR2.sol",
  "compiler": {
    "name": "solc",
    "version": "0.6.12+commit.27d51765.Emscripten.clang"
  },
  "schemaVersion": "3.2.3",
  "updatedAt": "2020-12-21T18:14:16.489Z",
  "devdoc": {
    "kind": "dev",
    "methods": {
      "getRoleAdmin(bytes32)": {
        "details": "Returns the admin role that controls `role`. See {grantRole} and {revokeRole}. To change a role's admin, use {_setRoleAdmin}."
      },
      "getRoleMember(bytes32,uint256)": {
        "details": "Returns one of the accounts that have `role`. `index` must be a value between 0 and {getRoleMemberCount}, non-inclusive. Role bearers are not sorted in any particular way, and their ordering may change at any point. WARNING: When using {getRoleMember} and {getRoleMemberCount}, make sure you perform all queries on the same block. See the following https://forum.openzeppelin.com/t/iterating-over-elements-on-enumerableset-in-openzeppelin-contracts/2296[forum post] for more information."
      },
      "getRoleMemberCount(bytes32)": {
        "details": "Returns the number of accounts that have `role`. Can be used together with {getRoleMember} to enumerate all bearers of a role."
      },
      "grantRole(bytes32,address)": {
        "details": "Grants `role` to `account`. If `account` had not been already granted `role`, emits a {RoleGranted} event. Requirements: - the caller must have ``role``'s admin role."
      },
      "hasRole(bytes32,address)": {
        "details": "Returns `true` if `account` has been granted `role`."
      },
      "pause()": {
        "details": "Triggers stopped state. (pausable)"
      },
      "paused()": {
        "details": "Returns true if the contract is paused, and false otherwise."
      },
      "renounceRole(bytes32,address)": {
        "details": "Revokes `role` from the calling account. Roles are often managed via {grantRole} and {revokeRole}: this function's purpose is to provide a mechanism for accounts to lose their privileges if they are compromised (such as when a trusted device is misplaced). If the calling account had been granted `role`, emits a {RoleRevoked} event. Requirements: - the caller must be `account`."
      },
      "revokeRole(bytes32,address)": {
        "details": "Revokes `role` from `account`. If `account` had been granted `role`, emits a {RoleRevoked} event. Requirements: - the caller must have ``role``'s admin role."
      },
      "unpause()": {
        "details": "Returns to normal state. (pausable)"
      }
    },
    "version": 1
  },
  "userdoc": {
    "kind": "user",
    "methods": {},
    "version": 1
  }
}