{
  "contractName": "ECR_NC",
  "abi": [
    {
      "anonymous": false,
      "inputs": [
        {
          "indexed": false,
          "internalType": "address",
          "name": "account",
          "type": "address"
        }
      ],
      "name": "Paused",
      "type": "event"
    },
    {
      "anonymous": false,
      "inputs": [
        {
          "indexed": false,
          "internalType": "string",
          "name": "_msg",
          "type": "string"
        }
      ],
      "name": "REPORT",
      "type": "event"
    },
    {
      "anonymous": false,
      "inputs": [
        {
          "indexed": true,
          "internalType": "bytes32",
          "name": "role",
          "type": "bytes32"
        },
        {
          "indexed": true,
          "internalType": "bytes32",
          "name": "previousAdminRole",
          "type": "bytes32"
        },
        {
          "indexed": true,
          "internalType": "bytes32",
          "name": "newAdminRole",
          "type": "bytes32"
        }
      ],
      "name": "RoleAdminChanged",
      "type": "event"
    },
    {
      "anonymous": false,
      "inputs": [
        {
          "indexed": true,
          "internalType": "bytes32",
          "name": "role",
          "type": "bytes32"
        },
        {
          "indexed": true,
          "internalType": "address",
          "name": "account",
          "type": "address"
        },
        {
          "indexed": true,
          "internalType": "address",
          "name": "sender",
          "type": "address"
        }
      ],
      "name": "RoleGranted",
      "type": "event"
    },
    {
      "anonymous": false,
      "inputs": [
        {
          "indexed": true,
          "internalType": "bytes32",
          "name": "role",
          "type": "bytes32"
        },
        {
          "indexed": true,
          "internalType": "address",
          "name": "account",
          "type": "address"
        },
        {
          "indexed": true,
          "internalType": "address",
          "name": "sender",
          "type": "address"
        }
      ],
      "name": "RoleRevoked",
      "type": "event"
    },
    {
      "anonymous": false,
      "inputs": [
        {
          "indexed": false,
          "internalType": "address",
          "name": "account",
          "type": "address"
        }
      ],
      "name": "Unpaused",
      "type": "event"
    },
    {
      "inputs": [],
      "name": "ASSET_TXFR_ROLE",
      "outputs": [
        {
          "internalType": "bytes32",
          "name": "",
          "type": "bytes32"
        }
      ],
      "stateMutability": "view",
      "type": "function"
    },
    {
      "inputs": [],
      "name": "CONTRACT_ADMIN_ROLE",
      "outputs": [
        {
          "internalType": "bytes32",
          "name": "",
          "type": "bytes32"
        }
      ],
      "stateMutability": "view",
      "type": "function"
    },
    {
      "inputs": [],
      "name": "DAO_ROLE",
      "outputs": [
        {
          "internalType": "bytes32",
          "name": "",
          "type": "bytes32"
        }
      ],
      "stateMutability": "view",
      "type": "function"
    },
    {
      "inputs": [],
      "name": "DEFAULT_ADMIN_ROLE",
      "outputs": [
        {
          "internalType": "bytes32",
          "name": "",
          "type": "bytes32"
        }
      ],
      "stateMutability": "view",
      "type": "function"
    },
    {
      "inputs": [
        {
          "internalType": "address",
          "name": "_tokenContract",
          "type": "address"
        },
        {
          "internalType": "address",
          "name": "_to",
          "type": "address"
        },
        {
          "internalType": "uint256",
          "name": "_amount",
          "type": "uint256"
        }
      ],
      "name": "ERC20Transfer",
      "outputs": [],
      "stateMutability": "nonpayable",
      "type": "function"
    },
    {
      "inputs": [
        {
          "internalType": "address",
          "name": "_tokenContract",
          "type": "address"
        },
        {
          "internalType": "address",
          "name": "_to",
          "type": "address"
        },
        {
          "internalType": "uint256",
          "name": "_tokenID",
          "type": "uint256"
        }
      ],
      "name": "ERC721Transfer",
      "outputs": [],
      "stateMutability": "nonpayable",
      "type": "function"
    },
    {
      "inputs": [],
      "name": "PAUSER_ROLE",
      "outputs": [
        {
          "internalType": "bytes32",
          "name": "",
          "type": "bytes32"
        }
      ],
      "stateMutability": "view",
      "type": "function"
    },
    {
      "inputs": [
        {
          "internalType": "bytes32",
          "name": "role",
          "type": "bytes32"
        }
      ],
      "name": "getRoleAdmin",
      "outputs": [
        {
          "internalType": "bytes32",
          "name": "",
          "type": "bytes32"
        }
      ],
      "stateMutability": "view",
      "type": "function"
    },
    {
      "inputs": [
        {
          "internalType": "bytes32",
          "name": "role",
          "type": "bytes32"
        },
        {
          "internalType": "address",
          "name": "account",
          "type": "address"
        }
      ],
      "name": "grantRole",
      "outputs": [],
      "stateMutability": "nonpayable",
      "type": "function"
    },
    {
      "inputs": [
        {
          "internalType": "bytes32",
          "name": "role",
          "type": "bytes32"
        },
        {
          "internalType": "address",
          "name": "account",
          "type": "address"
        }
      ],
      "name": "hasRole",
      "outputs": [
        {
          "internalType": "bool",
          "name": "",
          "type": "bool"
        }
      ],
      "stateMutability": "view",
      "type": "function"
    },
    {
      "inputs": [
        {
          "internalType": "address",
          "name": "",
          "type": "address"
        },
        {
          "internalType": "address",
          "name": "",
          "type": "address"
        },
        {
          "internalType": "uint256",
          "name": "",
          "type": "uint256"
        },
        {
          "internalType": "bytes",
          "name": "",
          "type": "bytes"
        }
      ],
      "name": "onERC721Received",
      "outputs": [
        {
          "internalType": "bytes4",
          "name": "",
          "type": "bytes4"
        }
      ],
      "stateMutability": "nonpayable",
      "type": "function"
    },
    {
      "inputs": [],
      "name": "pause",
      "outputs": [],
      "stateMutability": "nonpayable",
      "type": "function"
    },
    {
      "inputs": [],
      "name": "paused",
      "outputs": [
        {
          "internalType": "bool",
          "name": "",
          "type": "bool"
        }
      ],
      "stateMutability": "view",
      "type": "function"
    },
    {
      "inputs": [
        {
          "internalType": "bytes32",
          "name": "role",
          "type": "bytes32"
        },
        {
          "internalType": "address",
          "name": "account",
          "type": "address"
        }
      ],
      "name": "renounceRole",
      "outputs": [],
      "stateMutability": "nonpayable",
      "type": "function"
    },
    {
      "inputs": [],
      "name": "resolveContractAddresses",
      "outputs": [],
      "stateMutability": "nonpayable",
      "type": "function"
    },
    {
      "inputs": [
        {
          "internalType": "bytes32",
          "name": "role",
          "type": "bytes32"
        },
        {
          "internalType": "address",
          "name": "account",
          "type": "address"
        }
      ],
      "name": "revokeRole",
      "outputs": [],
      "stateMutability": "nonpayable",
      "type": "function"
    },
    {
      "inputs": [
        {
          "internalType": "address",
          "name": "_storageAddress",
          "type": "address"
        }
      ],
      "name": "setStorageContract",
      "outputs": [],
      "stateMutability": "nonpayable",
      "type": "function"
    },
    {
      "inputs": [
        {
          "internalType": "bytes4",
          "name": "interfaceId",
          "type": "bytes4"
        }
      ],
      "name": "supportsInterface",
      "outputs": [
        {
          "internalType": "bool",
          "name": "",
          "type": "bool"
        }
      ],
      "stateMutability": "view",
      "type": "function"
    },
    {
      "inputs": [],
      "name": "unpause",
      "outputs": [],
      "stateMutability": "nonpayable",
      "type": "function"
    },
    {
      "inputs": [
        {
          "internalType": "bytes32",
          "name": "_idxHash",
          "type": "bytes32"
        },
        {
          "internalType": "bytes32",
          "name": "_escrowOwnerHash",
          "type": "bytes32"
        },
        {
          "internalType": "uint256",
          "name": "_escrowTime",
          "type": "uint256"
        },
        {
          "internalType": "uint8",
          "name": "_escrowStatus",
          "type": "uint8"
        }
      ],
      "name": "setEscrow",
      "outputs": [],
      "stateMutability": "nonpayable",
      "type": "function"
    },
    {
      "inputs": [
        {
          "internalType": "bytes32",
          "name": "_idxHash",
          "type": "bytes32"
        }
      ],
      "name": "endEscrow",
      "outputs": [],
      "stateMutability": "nonpayable",
      "type": "function"
    }
  ],
  "bytecode": "0x60806040523480156200001157600080fd5b50600160009081556002805460ff191690556200002f90336200008d565b6200005b7f2ce8d04a9c35987429af538825cd2438cc5c5bb5dc427955f84daaa3ea105016336200008d565b620000877f65d7a28e3265b37a6474929f336521b332c1681b933f6cb9f3376673440d862a336200008d565b62000125565b6200009982826200009d565b5050565b60008281526001602090815260408083206001600160a01b038516845290915290205460ff16620000995760008281526001602081815260408084206001600160a01b0386168086529252808420805460ff19169093179092559051339285917f2f8788117e7eff1d82e926ec794901d17c78024a50270940304540a733656f0d9190a45050565b6121dd80620001356000396000f3fe608060405234801561001057600080fd5b50600436106101375760003560e01c806391d14854116100b8578063e59fdd361161007c578063e59fdd36146102b3578063e5f815dc146102c6578063e63ab1e9146102d9578063e8e1152c14610300578063e9c2651814610313578063ee9c25c51461033a57600080fd5b806391d148541461025f578063a217fddf14610272578063b29c39591461027a578063d547741f1461028d578063dc38b0a2146102a057600080fd5b80632f2ff15d116100ff5780632f2ff15d1461021c57806336568abe146102315780633f4ba83a146102445780635c975abb1461024c5780638456cb591461025757600080fd5b806301ffc9a71461013c5780631429db5f14610164578063150b7a02146101995780631da03312146101d1578063248a9ca3146101f8575b600080fd5b61014f61014a366004611d53565b610342565b60405190151581526020015b60405180910390f35b61018b7f7f1e4e9f3d9ba0452a25cfef4cd4c6ffc86158d06ed2f585fa0093e12dec429c81565b60405190815260200161015b565b6101b86101a7366004611bef565b630a85bd0160e11b95945050505050565b6040516001600160e01b0319909116815260200161015b565b61018b7f2ce8d04a9c35987429af538825cd2438cc5c5bb5dc427955f84daaa3ea10501681565b61018b610206366004611cb0565b6000908152600160208190526040909120015490565b61022f61022a366004611ce2565b610379565b005b61022f61023f366004611ce2565b6103a5565b61022f610428565b60025460ff1661014f565b61022f610478565b61014f61026d366004611ce2565b6104c6565b61018b600081565b61022f610288366004611d12565b6104f1565b61022f61029b366004611ce2565b6107ef565b61022f6102ae366004611b74565b610816565b61022f6102c1366004611bae565b6108c9565b61022f6102d4366004611bae565b6109ca565b61018b7f65d7a28e3265b37a6474929f336521b332c1681b933f6cb9f3376673440d862a81565b61022f61030e366004611cb0565b610aaa565b61018b7f3b5d4cc60d3ec3516ee8ae083bd60934f6eb2a6c54b1229985c41bfb092b260381565b61022f610d79565b60006001600160e01b03198216637965db0b60e01b148061037357506301ffc9a760e01b6001600160e01b03198316145b92915050565b60008281526001602081905260409091200154610396813361145c565b6103a083836114c0565b505050565b6001600160a01b038116331461041a5760405162461bcd60e51b815260206004820152602f60248201527f416363657373436f6e74726f6c3a2063616e206f6e6c792072656e6f756e636560448201526e103937b632b9903337b91039b2b63360891b60648201526084015b60405180910390fd5b610424828261152b565b5050565b6104527f65d7a28e3265b37a6474929f336521b332c1681b933f6cb9f3376673440d862a336104c6565b61046e5760405162461bcd60e51b81526004016104119061200b565b610476611592565b565b6104a27f65d7a28e3265b37a6474929f336521b332c1681b933f6cb9f3376673440d862a336104c6565b6104be5760405162461bcd60e51b81526004016104119061200b565b610476611625565b60009182526001602090815260408084206001600160a01b0393909316845291905290205460ff1690565b600260005414156105145760405162461bcd60e51b815260040161041190612051565b6002600055838033600b546040516331a9108f60e11b8152600481018490526001600160a01b039283169290911690636352211e90602401602060405180830381600087803b15801561056657600080fd5b505af115801561057a573d6000803e3d6000fd5b505050506040513d601f19601f8201168201806040525081019061059e9190611b91565b6001600160a01b0316146106035760405162461bcd60e51b815260206004820152602660248201527f454e433a4d4f442d49413a2043616c6c657220646f6573206e6f7420686f6c64604482015265103a37b5b2b760d11b6064820152608401610411565b600061060e876116a0565b9050600061061c86426120c0565b905060008061062f308560600151611786565b805190915060ff1661068d5760405162461bcd60e51b815260206004820152602160248201527f454e433a53453a436f6e7472616374206e6f74206175746820666f72206e6f646044820152606560f81b6064820152608401610411565b6031846000015160ff16116106ee5760405162461bcd60e51b815260206004820152602160248201527f454e433a53453a20457363726f772074797065206e6f74207065726d697474656044820152601960fa1b6064820152608401610411565b428310156107585760405162461bcd60e51b815260206004820152603160248201527f454e433a53453a457363726f77206d7573742062652073657420746f20612074604482015270696d6520696e207468652066757475726560781b6064820152608401610411565b8660ff166032148061076d57508660ff166038145b6107cf5760405162461bcd60e51b815260206004820152602d60248201527f454e433a53453a4d757374207370656369667920612076616c6964206573637260448201526c6f7720737461747573203e343960981b6064820152608401610411565b8691506107de8a838b86611847565b505060016000555050505050505050565b6000828152600160208190526040909120015461080c813361145c565b6103a0838361152b565b6108407f2ce8d04a9c35987429af538825cd2438cc5c5bb5dc427955f84daaa3ea105016336104c6565b61085c5760405162461bcd60e51b815260040161041190611f81565b6001600160a01b0381166108a75760405162461bcd60e51b81526020600482015260126024820152710423a5353433a2041646472657373203d20360741b6044820152606401610411565b600380546001600160a01b0319166001600160a01b0392909216919091179055565b6108f37f7f1e4e9f3d9ba0452a25cfef4cd4c6ffc86158d06ed2f585fa0093e12dec429c336104c6565b61090f5760405162461bcd60e51b815260040161041190611fc8565b600260005414156109325760405162461bcd60e51b815260040161041190612051565b60026000556040516323b872dd60e01b81523060048201526001600160a01b038381166024830152604482018390528416906323b872dd90606401602060405180830381600087803b15801561098757600080fd5b505af115801561099b573d6000803e3d6000fd5b505050506040513d601f19601f820116820180604052508101906109bf9190611c8e565b505060016000555050565b6109f47f7f1e4e9f3d9ba0452a25cfef4cd4c6ffc86158d06ed2f585fa0093e12dec429c336104c6565b610a105760405162461bcd60e51b815260040161041190611fc8565b60026000541415610a335760405162461bcd60e51b815260040161041190612051565b6002600055604051632142170760e11b81523060048201526001600160a01b038381166024830152604482018390528416906342842e0e90606401600060405180830381600087803b158015610a8857600080fd5b505af1158015610a9c573d6000803e3d6000fd5b505060016000555050505050565b60026000541415610acd5760405162461bcd60e51b815260040161041190612051565b60026000908155600f5460405163019b0f5f60e01b8152600481018490526001600160a01b039091169063019b0f5f9060240160206040518083038186803b158015610b1857600080fd5b505afa158015610b2c573d6000803e3d6000fd5b505050506040513d601f19601f82011682018060405250810190610b509190611cc9565b90506000610b5d836116a0565b90506000610b6a84611908565b90506000610b7c308460600151611786565b805190915060ff16610bda5760405162461bcd60e51b815260206004820152602160248201527f454e433a45453a436f6e7472616374206e6f74206175746820666f72206e6f646044820152606560f81b6064820152608401610411565b826000015160ff1660321480610bf75750826000015160ff166038145b610c585760405162461bcd60e51b815260206004820152602c60248201527f454e433a45453a205265636f7264206d75737420626520696e20657363726f7760448201526b20737461747573203e20343960a01b6064820152608401610411565b4282604001511080610c9d57506040516bffffffffffffffffffffffff193360601b166020820152849060340160405160208183030381529060405280519060200120145b610d0f5760405162461bcd60e51b815260206004820152603e60248201527f454e433a45453a20457363726f7720706572696f64206e6f7420656e6465642060448201527f616e642063616c6c6572206973206e6f7420657363726f77206f776e657200006064820152608401610411565b600f54604051633a38454b60e21b8152600481018790526001600160a01b039091169063e8e1152c90602401600060405180830381600087803b158015610d5557600080fd5b505af1158015610d69573d6000803e3d6000fd5b5050600160005550505050505050565b60026000541415610d9c5760405162461bcd60e51b815260040161041190612051565b6002600055610dcb7f2ce8d04a9c35987429af538825cd2438cc5c5bb5dc427955f84daaa3ea105016336104c6565b610de75760405162461bcd60e51b815260040161041190611f81565b6003546040516363b8d4c160e11b81526020600482015260086024820152672727a222afaa25a760c11b60448201526001600160a01b039091169063c771a9829060640160206040518083038186803b158015610e4357600080fd5b505afa158015610e57573d6000803e3d6000fd5b505050506040513d601f19601f82011682018060405250810190610e7b9190611b91565b600c80546001600160a01b039283166001600160a01b03199182168117909255600d805490911690911790556003546040516363b8d4c160e11b81526020600482015260086024820152672727a222afa6a3a960c11b604482015291169063c771a9829060640160206040518083038186803b158015610efa57600080fd5b505afa158015610f0e573d6000803e3d6000fd5b505050506040513d601f19601f82011682018060405250810190610f329190611b91565b600480546001600160a01b039283166001600160a01b031991821681178355600580549092161790556003546040516363b8d4c160e11b815292169163c771a98291610f9c91016020808252600990820152682727a222afa9aa27a960b91b604082015260600190565b60206040518083038186803b158015610fb457600080fd5b505afa158015610fc8573d6000803e3d6000fd5b505050506040513d601f19601f82011682018060405250810190610fec9190611b91565b600680546001600160a01b039283166001600160a01b031991821681179092556007805490911690911790556003546040516363b8d4c160e11b81526020600482015260086024820152672aaa24a62faa25a760c11b604482015291169063c771a9829060640160206040518083038186803b15801561106b57600080fd5b505afa15801561107f573d6000803e3d6000fd5b505050506040513d601f19601f820116820180604052508101906110a39190611b91565b600880546001600160a01b039283166001600160a01b031991821681179092556009805490911690911790556003546040516363b8d4c160e11b815260206004820152600560248201526420afaa25a760d91b604482015291169063c771a9829060640160206040518083038186803b15801561111f57600080fd5b505afa158015611133573d6000803e3d6000fd5b505050506040513d601f19601f820116820180604052508101906111579190611b91565b600a80546001600160a01b039283166001600160a01b03199182168117909255600b805490911690911790556003546040516363b8d4c160e11b815260206004820152600760248201526622a1a92fa6a3a960c91b604482015291169063c771a9829060640160206040518083038186803b1580156111d557600080fd5b505afa1580156111e9573d6000803e3d6000fd5b505050506040513d601f19601f8201168201806040525081019061120d9190611b91565b600e80546001600160a01b039283166001600160a01b03199182168117909255600f805490911690911790556003546040516363b8d4c160e11b815291169063c771a982906112769060040160208082526003908201526204150560ec1b604082015260600190565b60206040518083038186803b15801561128e57600080fd5b505afa1580156112a2573d6000803e3d6000fd5b505050506040513d601f19601f820116820180604052508101906112c69190611b91565b601280546001600160a01b039283166001600160a01b031991821681179092556013805490911690911790556003546040516363b8d4c160e11b815291169063c771a98290611330906004016020808252600490820152632921a62960e11b604082015260600190565b60206040518083038186803b15801561134857600080fd5b505afa15801561135c573d6000803e3d6000fd5b505050506040513d601f19601f820116820180604052508101906113809190611b91565b601080546001600160a01b039283166001600160a01b031991821681179092556011805490911690911790556003546040516363b8d4c160e11b81526020600482015260066024820152654150505f4e4360d01b604482015291169063c771a9829060640160206040518083038186803b1580156113fd57600080fd5b505afa158015611411573d6000803e3d6000fd5b505050506040513d601f19601f820116820180604052508101906114359190611b91565b601480546001600160a01b0319166001600160a01b03929092169190911790556001600055565b61146682826104c6565b6104245761147e816001600160a01b031660146119a2565b6114898360206119a2565b60405160200161149a929190611ed9565b60408051601f198184030181529082905262461bcd60e51b825261041191600401611f4e565b6114ca82826104c6565b6104245760008281526001602081815260408084206001600160a01b0386168086529252808420805460ff19169093179092559051339285917f2f8788117e7eff1d82e926ec794901d17c78024a50270940304540a733656f0d9190a45050565b61153582826104c6565b156104245760008281526001602090815260408083206001600160a01b0385168085529252808320805460ff1916905551339285917ff6391f5c32d9c69d2a47ea670b442974b53935d1edc7fd64eb21e047a839171b9190a45050565b60025460ff166115db5760405162461bcd60e51b815260206004820152601460248201527314185d5cd8589b194e881b9bdd081c185d5cd95960621b6044820152606401610411565b6002805460ff191690557f5db9ee0a495bf2e6ff9c91a7834c1ba4fdd244a5e8aa4e537bd38aeae4b073aa335b6040516001600160a01b03909116815260200160405180910390a1565b60025460ff161561166b5760405162461bcd60e51b815260206004820152601060248201526f14185d5cd8589b194e881c185d5cd95960821b6044820152606401610411565b6002805460ff191660011790557f62e78cea01bee320cd4e420270b5ea74000d11b0c9f74754ebdbfc544b05a2586116083390565b6040805161018081018252600080825260208201819052918101829052606081018290526080810182905260a0810182905260c0810182905260e081018290526101008101829052610120810182905261014081018290526101608101919091526003546040516338923cb160e21b8152600481018490526000916001600160a01b03169063e248f2c4906024016101806040518083038186803b15801561174757600080fd5b505afa15801561175b573d6000803e3d6000fd5b505050506040513d601f19601f8201168201806040525081019061177f9190611d7d565b9392505050565b60408051808201909152600080825260208201526040805180820190915260008082526020820152600354604051636fcfb49b60e11b81526001600160a01b03868116600483015263ffffffff861660248301529091169063df9f693690604401604080518083038186803b1580156117fe57600080fd5b505afa158015611812573d6000803e3d6000fd5b505050506040513d601f19601f820116820180604052508101906118369190611eab565b602083015260ff1681529392505050565b60025460ff161561188d5760405162461bcd60e51b815260206004820152601060248201526f14185d5cd8589b194e881c185d5cd95960821b6044820152606401610411565b600f54604051637318462b60e11b81526004810186905260ff8516602482015260448101849052606481018390526001600160a01b039091169063e6308c5690608401600060405180830381600087803b1580156118ea57600080fd5b505af11580156118fe573d6000803e3d6000fd5b5050505050505050565b6040805160608101825260008082526020820181905291810191909152600f54604051630a3b3fe560e41b8152600481018490526000916001600160a01b03169063a3b3fe509060240160606040518083038186803b15801561196a57600080fd5b505afa15801561197e573d6000803e3d6000fd5b505050506040513d601f19601f8201168201806040525081019061177f9190611e41565b606060006119b18360026120d8565b6119bc9060026120c0565b67ffffffffffffffff8111156119d4576119d461216a565b6040519080825280601f01601f1916602001820160405280156119fe576020820181803683370190505b509050600360fc1b81600081518110611a1957611a19612154565b60200101906001600160f81b031916908160001a905350600f60fb1b81600181518110611a4857611a48612154565b60200101906001600160f81b031916908160001a9053506000611a6c8460026120d8565b611a779060016120c0565b90505b6001811115611aef576f181899199a1a9b1b9c1cb0b131b232b360811b85600f1660108110611aab57611aab612154565b1a60f81b828281518110611ac157611ac1612154565b60200101906001600160f81b031916908160001a90535060049490941c93611ae881612127565b9050611a7a565b50831561177f5760405162461bcd60e51b815260206004820181905260248201527f537472696e67733a20686578206c656e67746820696e73756666696369656e746044820152606401610411565b805161ffff81168114611b5057600080fd5b919050565b805163ffffffff81168114611b5057600080fd5b8051611b5081612198565b600060208284031215611b8657600080fd5b813561177f81612180565b600060208284031215611ba357600080fd5b815161177f81612180565b600080600060608486031215611bc357600080fd5b8335611bce81612180565b92506020840135611bde81612180565b929592945050506040919091013590565b600080600080600060808688031215611c0757600080fd5b8535611c1281612180565b94506020860135611c2281612180565b935060408601359250606086013567ffffffffffffffff80821115611c4657600080fd5b818801915088601f830112611c5a57600080fd5b813581811115611c6957600080fd5b896020828501011115611c7b57600080fd5b9699959850939650602001949392505050565b600060208284031215611ca057600080fd5b8151801515811461177f57600080fd5b600060208284031215611cc257600080fd5b5035919050565b600060208284031215611cdb57600080fd5b5051919050565b60008060408385031215611cf557600080fd5b823591506020830135611d0781612180565b809150509250929050565b60008060008060808587031215611d2857600080fd5b8435935060208501359250604085013591506060850135611d4881612198565b939692955090935050565b600060208284031215611d6557600080fd5b81356001600160e01b03198116811461177f57600080fd5b60006101808284031215611d9057600080fd5b611d98612088565b611da183611b69565b8152611daf60208401611b69565b6020820152611dc060408401611b3e565b6040820152611dd160608401611b55565b6060820152611de260808401611b55565b6080820152611df360a08401611b55565b60a082015260c0838101519082015260e08084015190820152610100808401519082015261012080840151908201526101408084015190820152610160928301519281019290925250919050565b600060608284031215611e5357600080fd5b6040516060810181811067ffffffffffffffff82111715611e8457634e487b7160e01b600052604160045260246000fd5b80604052508251815260208301516020820152604083015160408201528091505092915050565b60008060408385031215611ebe57600080fd5b8251611ec981612198565b6020939093015192949293505050565b7f416363657373436f6e74726f6c3a206163636f756e7420000000000000000000815260008351611f118160178501602088016120f7565b7001034b99036b4b9b9b4b733903937b6329607d1b6017918401918201528351611f428160288401602088016120f7565b01602801949350505050565b6020815260008251806020840152611f6d8160408501602087016120f7565b601f01601f19169190910160400192915050565b60208082526027908201527f423a4d4f443a2d4941444d2043616c6c65722021434f4e54524143545f41444d604082015266494e5f524f4c4560c81b606082015260800190565b60208082526023908201527f423a4d4f443a2d4941444d2043616c6c6572202141535345545f545846525f526040820152624f4c4560e81b606082015260800190565b60208082526026908201527f423a4d4f442d49503a43616c6c696e672061646472657373206973206e6f74206040820152653830bab9b2b960d11b606082015260800190565b6020808252601f908201527f5265656e7472616e637947756172643a207265656e7472616e742063616c6c00604082015260600190565b604051610180810167ffffffffffffffff811182821017156120ba57634e487b7160e01b600052604160045260246000fd5b60405290565b600082198211156120d3576120d361213e565b500190565b60008160001904831182151516156120f2576120f261213e565b500290565b60005b838110156121125781810151838201526020016120fa565b83811115612121576000848401525b50505050565b6000816121365761213661213e565b506000190190565b634e487b7160e01b600052601160045260246000fd5b634e487b7160e01b600052603260045260246000fd5b634e487b7160e01b600052604160045260246000fd5b6001600160a01b038116811461219557600080fd5b50565b60ff8116811461219557600080fdfea2646970667358221220762bb5f5ed4ca1052fa0e711a33426aad3ff61dac934950f9d72daee7246864064736f6c63430008070033",
  "immutableReferences": {},
  "source": "/*--------------------------------------------------------PRF0.8.7\n__/\\\\\\\\\\\\\\\\\\\\\\\\\\ _____/\\\\\\\\\\\\\\\\\\ _______/\\\\__/\\\\ ___/\\\\\\\\\\\\\\\\\\\\\\\\\\\\\\        \n__\\/\\\\\\/////////\\\\\\ _/\\\\\\///////\\\\\\ ____\\//__\\//____\\/\\\\\\///////////__       \n___\\/\\\\\\_______\\/\\\\\\_\\/\\\\\\_____\\/\\\\\\ ________________\\/\\\\\\ ____________      \n____\\/\\\\\\\\\\\\\\\\\\\\\\\\\\/__\\/\\\\\\\\\\\\\\\\\\\\\\/_____/\\\\\\____/\\\\\\_\\/\\\\\\\\\\\\\\\\\\\\\\ ____     \n_____\\/\\\\\\/////////____\\/\\\\\\//////\\\\\\ ___\\/\\\\\\___\\/\\\\\\_\\/\\\\\\///////______\n______\\/\\\\\\ ____________\\/\\\\\\ ___\\//\\\\\\ __\\/\\\\\\___\\/\\\\\\_\\/\\\\\\ ____________\n_______\\/\\\\\\ ____________\\/\\\\\\ ____\\//\\\\\\ _\\/\\\\\\___\\/\\\\\\_\\/\\\\\\ ____________\n________\\/\\\\\\ ____________\\/\\\\\\ _____\\//\\\\\\_\\//\\\\\\\\\\\\\\\\\\ _\\/\\\\\\ ____________\n_________\\/// _____________\\/// _______\\/// __\\///////// __\\/// _____________\n*---------------------------------------------------------------------------*/\n\n/*-----------------------------------------------------------------\n *  TO DO\n *  Inheritable core functioanlity for sattelite escrow contracts\n *---------------------------------------------------------------*/\n\n// SPDX-License-Identifier: UNLICENSED\npragma solidity ^0.8.7;\n\nimport \"../Resources/PRUF_ECR_CORE.sol\";\n\ncontract ECR_NC is ECR_CORE {\n    /**\n     * @dev Verify user credentials\n     * Originating Address must hold referenced asset token\n     * @param _idxHash indexHash of asset\n     */\n\n    modifier isAuthorized(bytes32 _idxHash) override {\n        uint256 tokenId = uint256(_idxHash);\n        require(\n            (A_TKN.ownerOf(tokenId) == _msgSender()), //_msgSender() is token holder\n            \"ENC:MOD-IA: Caller does not hold token\"\n        );\n        _;\n    }\n\n    //--------------------------------------------External Functions--------------------------\n\n    /**\n     * @dev puts asset into an escrow status for a provided time period\n     * @param _idxHash Asset index to place in escrow\n     * @param _escrowOwnerHash escrow controller address hash\n     * @param _escrowTime Expiration time of escrow\n     * @param _escrowStatus Type of escrow\n     */\n    function setEscrow(\n        bytes32 _idxHash,\n        bytes32 _escrowOwnerHash,\n        uint256 _escrowTime,\n        uint8 _escrowStatus\n    ) external nonReentrant isAuthorized(_idxHash) {\n        Record memory rec = getRecord(_idxHash);\n        uint256 escrowTime = block.timestamp + _escrowTime;\n        uint8 newEscrowStatus;\n        ContractDataHash memory contractInfo = getContractInfo(\n            address(this),\n            rec.node\n        );\n\n        require(\n            contractInfo.contractType > 0,\n            \"ENC:SE:Contract not auth for node\"\n        );\n        require(rec.assetStatus > 49, \"ENC:SE: Escrow type not permitted\");\n        require( //REDUNDANT PREFERRED\n            escrowTime >= block.timestamp,\n            \"ENC:SE:Escrow must be set to a time in the future\"\n        );\n        require(\n            (_escrowStatus == 50) || (_escrowStatus == 56),\n            \"ENC:SE:Must specify a valid escrow status >49\"\n        );\n\n        //^^^^^^^checks^^^^^^^^^\n\n        newEscrowStatus = _escrowStatus;\n        //^^^^^^^effects^^^^^^^^^\n\n        _setEscrowData(_idxHash, newEscrowStatus, _escrowOwnerHash, escrowTime);\n        //^^^^^^^interactions^^^^^^^^^\n    }\n\n    /**\n     * @dev takes asset out of excrow status if time period has resolved || is escrow issuer\n     * @param _idxHash Asset to end escrow on\n     */\n    function endEscrow(bytes32 _idxHash) external nonReentrant {\n        bytes32 ownerHash = ECR_MGR.retrieveEscrowOwner(_idxHash);\n        Record memory rec = getRecord(_idxHash);\n        escrowData memory escrow = getEscrowData(_idxHash);\n        ContractDataHash memory contractInfo = getContractInfo(\n            address(this),\n            rec.node\n        );\n\n        require(\n            contractInfo.contractType > 0,\n            \"ENC:EE:Contract not auth for node\"\n        );\n        require(\n            (rec.assetStatus == 50) || (rec.assetStatus == 56),\n            \"ENC:EE: Record must be in escrow status > 49\"\n        );\n        require(\n            (escrow.timelock < block.timestamp) ||\n                (keccak256(abi.encodePacked(_msgSender())) == ownerHash),\n            \"ENC:EE: Escrow period not ended and caller is not escrow owner\"\n        );\n        //^^^^^^^checks^^^^^^^^^\n\n        ECR_MGR.endEscrow(_idxHash);\n        //^^^^^^^interactions^^^^^^^^^\n    }\n}\n",
  "sourcePath": "/Users/drake/Documents/DEV/PRUF/PRUF_TRUFFLE/contracts/InProgress/PRUF_ECR_NC.sol",
  "compiler": {
    "name": "solc",
    "version": "0.8.7+commit.e28d00a7.Emscripten.clang"
  },
  "schemaVersion": "3.4.3",
  "updatedAt": "2021-10-26T17:58:04.043Z",
  "devdoc": {
    "kind": "dev",
    "methods": {
      "ERC20Transfer(address,address,uint256)": {
        "details": "send an ERC20 token from this contract",
        "params": {
          "_amount": "amount to transfer",
          "_to": "destination",
          "_tokenContract": "Address of foreign token contract"
        }
      },
      "ERC721Transfer(address,address,uint256)": {
        "details": "send an ERC721 token from this contract",
        "params": {
          "_to": "destination",
          "_tokenContract": "Address of foreign token contract",
          "_tokenID": "Token ID"
        }
      },
      "endEscrow(bytes32)": {
        "details": "takes asset out of excrow status if time period has resolved || is escrow issuer",
        "params": {
          "_idxHash": "Asset to end escrow on"
        }
      },
      "getRoleAdmin(bytes32)": {
        "details": "Returns the admin role that controls `role`. See {grantRole} and {revokeRole}. To change a role's admin, use {_setRoleAdmin}."
      },
      "grantRole(bytes32,address)": {
        "details": "Grants `role` to `account`. If `account` had not been already granted `role`, emits a {RoleGranted} event. Requirements: - the caller must have ``role``'s admin role."
      },
      "hasRole(bytes32,address)": {
        "details": "Returns `true` if `account` has been granted `role`."
      },
      "onERC721Received(address,address,uint256,bytes)": {
        "details": "Compliance for erc721 reciever See OZ documentation"
      },
      "paused()": {
        "details": "Returns true if the contract is paused, and false otherwise."
      },
      "renounceRole(bytes32,address)": {
        "details": "Revokes `role` from the calling account. Roles are often managed via {grantRole} and {revokeRole}: this function's purpose is to provide a mechanism for accounts to lose their privileges if they are compromised (such as when a trusted device is misplaced). If the calling account had been granted `role`, emits a {RoleRevoked} event. Requirements: - the caller must be `account`."
      },
      "resolveContractAddresses()": {
        "details": "Resolve contract addresses from STOR"
      },
      "revokeRole(bytes32,address)": {
        "details": "Revokes `role` from `account`. If `account` had been granted `role`, emits a {RoleRevoked} event. Requirements: - the caller must have ``role``'s admin role."
      },
      "setEscrow(bytes32,bytes32,uint256,uint8)": {
        "details": "puts asset into an escrow status for a provided time period",
        "params": {
          "_escrowOwnerHash": "escrow controller address hash",
          "_escrowStatus": "Type of escrow",
          "_escrowTime": "Expiration time of escrow",
          "_idxHash": "Asset index to place in escrow"
        }
      },
      "setStorageContract(address)": {
        "details": "Set address of STOR contract to interface with",
        "params": {
          "_storageAddress": "address of PRUF_STOR"
        }
      },
      "supportsInterface(bytes4)": {
        "details": "See {IERC165-supportsInterface}."
      }
    },
    "version": 1
  },
  "userdoc": {
    "kind": "user",
    "methods": {},
    "version": 1
  }
}