{
  "contractName": "ECR_MGR",
  "abi": [
    {
      "anonymous": false,
      "inputs": [
        {
          "indexed": false,
          "internalType": "address",
          "name": "account",
          "type": "address"
        }
      ],
      "name": "Paused",
      "type": "event"
    },
    {
      "anonymous": false,
      "inputs": [
        {
          "indexed": false,
          "internalType": "string",
          "name": "_msg",
          "type": "string"
        }
      ],
      "name": "REPORT",
      "type": "event"
    },
    {
      "anonymous": false,
      "inputs": [
        {
          "indexed": true,
          "internalType": "bytes32",
          "name": "role",
          "type": "bytes32"
        },
        {
          "indexed": true,
          "internalType": "bytes32",
          "name": "previousAdminRole",
          "type": "bytes32"
        },
        {
          "indexed": true,
          "internalType": "bytes32",
          "name": "newAdminRole",
          "type": "bytes32"
        }
      ],
      "name": "RoleAdminChanged",
      "type": "event"
    },
    {
      "anonymous": false,
      "inputs": [
        {
          "indexed": true,
          "internalType": "bytes32",
          "name": "role",
          "type": "bytes32"
        },
        {
          "indexed": true,
          "internalType": "address",
          "name": "account",
          "type": "address"
        },
        {
          "indexed": true,
          "internalType": "address",
          "name": "sender",
          "type": "address"
        }
      ],
      "name": "RoleGranted",
      "type": "event"
    },
    {
      "anonymous": false,
      "inputs": [
        {
          "indexed": true,
          "internalType": "bytes32",
          "name": "role",
          "type": "bytes32"
        },
        {
          "indexed": true,
          "internalType": "address",
          "name": "account",
          "type": "address"
        },
        {
          "indexed": true,
          "internalType": "address",
          "name": "sender",
          "type": "address"
        }
      ],
      "name": "RoleRevoked",
      "type": "event"
    },
    {
      "anonymous": false,
      "inputs": [
        {
          "indexed": false,
          "internalType": "address",
          "name": "account",
          "type": "address"
        }
      ],
      "name": "Unpaused",
      "type": "event"
    },
    {
      "inputs": [],
      "name": "ASSET_TXFR_ROLE",
      "outputs": [
        {
          "internalType": "bytes32",
          "name": "",
          "type": "bytes32"
        }
      ],
      "stateMutability": "view",
      "type": "function"
    },
    {
      "inputs": [],
      "name": "CONTRACT_ADMIN_ROLE",
      "outputs": [
        {
          "internalType": "bytes32",
          "name": "",
          "type": "bytes32"
        }
      ],
      "stateMutability": "view",
      "type": "function"
    },
    {
      "inputs": [],
      "name": "DAO_ROLE",
      "outputs": [
        {
          "internalType": "bytes32",
          "name": "",
          "type": "bytes32"
        }
      ],
      "stateMutability": "view",
      "type": "function"
    },
    {
      "inputs": [],
      "name": "DEFAULT_ADMIN_ROLE",
      "outputs": [
        {
          "internalType": "bytes32",
          "name": "",
          "type": "bytes32"
        }
      ],
      "stateMutability": "view",
      "type": "function"
    },
    {
      "inputs": [
        {
          "internalType": "address",
          "name": "_tokenContract",
          "type": "address"
        },
        {
          "internalType": "address",
          "name": "_to",
          "type": "address"
        },
        {
          "internalType": "uint256",
          "name": "_amount",
          "type": "uint256"
        }
      ],
      "name": "ERC20Transfer",
      "outputs": [],
      "stateMutability": "nonpayable",
      "type": "function"
    },
    {
      "inputs": [
        {
          "internalType": "address",
          "name": "_tokenContract",
          "type": "address"
        },
        {
          "internalType": "address",
          "name": "_to",
          "type": "address"
        },
        {
          "internalType": "uint256",
          "name": "_tokenID",
          "type": "uint256"
        }
      ],
      "name": "ERC721Transfer",
      "outputs": [],
      "stateMutability": "nonpayable",
      "type": "function"
    },
    {
      "inputs": [],
      "name": "PAUSER_ROLE",
      "outputs": [
        {
          "internalType": "bytes32",
          "name": "",
          "type": "bytes32"
        }
      ],
      "stateMutability": "view",
      "type": "function"
    },
    {
      "inputs": [
        {
          "internalType": "bytes32",
          "name": "role",
          "type": "bytes32"
        }
      ],
      "name": "getRoleAdmin",
      "outputs": [
        {
          "internalType": "bytes32",
          "name": "",
          "type": "bytes32"
        }
      ],
      "stateMutability": "view",
      "type": "function"
    },
    {
      "inputs": [
        {
          "internalType": "bytes32",
          "name": "role",
          "type": "bytes32"
        },
        {
          "internalType": "address",
          "name": "account",
          "type": "address"
        }
      ],
      "name": "grantRole",
      "outputs": [],
      "stateMutability": "nonpayable",
      "type": "function"
    },
    {
      "inputs": [
        {
          "internalType": "bytes32",
          "name": "role",
          "type": "bytes32"
        },
        {
          "internalType": "address",
          "name": "account",
          "type": "address"
        }
      ],
      "name": "hasRole",
      "outputs": [
        {
          "internalType": "bool",
          "name": "",
          "type": "bool"
        }
      ],
      "stateMutability": "view",
      "type": "function"
    },
    {
      "inputs": [
        {
          "internalType": "address",
          "name": "",
          "type": "address"
        },
        {
          "internalType": "address",
          "name": "",
          "type": "address"
        },
        {
          "internalType": "uint256",
          "name": "",
          "type": "uint256"
        },
        {
          "internalType": "bytes",
          "name": "",
          "type": "bytes"
        }
      ],
      "name": "onERC721Received",
      "outputs": [
        {
          "internalType": "bytes4",
          "name": "",
          "type": "bytes4"
        }
      ],
      "stateMutability": "nonpayable",
      "type": "function"
    },
    {
      "inputs": [],
      "name": "pause",
      "outputs": [],
      "stateMutability": "nonpayable",
      "type": "function"
    },
    {
      "inputs": [],
      "name": "paused",
      "outputs": [
        {
          "internalType": "bool",
          "name": "",
          "type": "bool"
        }
      ],
      "stateMutability": "view",
      "type": "function"
    },
    {
      "inputs": [
        {
          "internalType": "bytes32",
          "name": "role",
          "type": "bytes32"
        },
        {
          "internalType": "address",
          "name": "account",
          "type": "address"
        }
      ],
      "name": "renounceRole",
      "outputs": [],
      "stateMutability": "nonpayable",
      "type": "function"
    },
    {
      "inputs": [],
      "name": "resolveContractAddresses",
      "outputs": [],
      "stateMutability": "nonpayable",
      "type": "function"
    },
    {
      "inputs": [
        {
          "internalType": "bytes32",
          "name": "role",
          "type": "bytes32"
        },
        {
          "internalType": "address",
          "name": "account",
          "type": "address"
        }
      ],
      "name": "revokeRole",
      "outputs": [],
      "stateMutability": "nonpayable",
      "type": "function"
    },
    {
      "inputs": [
        {
          "internalType": "address",
          "name": "_storageAddress",
          "type": "address"
        }
      ],
      "name": "setStorageContract",
      "outputs": [],
      "stateMutability": "nonpayable",
      "type": "function"
    },
    {
      "inputs": [
        {
          "internalType": "bytes4",
          "name": "interfaceId",
          "type": "bytes4"
        }
      ],
      "name": "supportsInterface",
      "outputs": [
        {
          "internalType": "bool",
          "name": "",
          "type": "bool"
        }
      ],
      "stateMutability": "view",
      "type": "function"
    },
    {
      "inputs": [],
      "name": "unpause",
      "outputs": [],
      "stateMutability": "nonpayable",
      "type": "function"
    },
    {
      "inputs": [
        {
          "internalType": "bytes32",
          "name": "_idxHash",
          "type": "bytes32"
        },
        {
          "internalType": "uint8",
          "name": "_newAssetStatus",
          "type": "uint8"
        },
        {
          "internalType": "bytes32",
          "name": "_escrowOwnerAddressHash",
          "type": "bytes32"
        },
        {
          "internalType": "uint256",
          "name": "_timelock",
          "type": "uint256"
        }
      ],
      "name": "setEscrow",
      "outputs": [],
      "stateMutability": "nonpayable",
      "type": "function"
    },
    {
      "inputs": [
        {
          "internalType": "bytes32",
          "name": "_idxHash",
          "type": "bytes32"
        }
      ],
      "name": "endEscrow",
      "outputs": [],
      "stateMutability": "nonpayable",
      "type": "function"
    },
    {
      "inputs": [
        {
          "internalType": "bytes32",
          "name": "_idxHash",
          "type": "bytes32"
        },
        {
          "components": [
            {
              "internalType": "uint8",
              "name": "escrowData",
              "type": "uint8"
            },
            {
              "internalType": "uint8",
              "name": "u8_1",
              "type": "uint8"
            },
            {
              "internalType": "uint8",
              "name": "u8_2",
              "type": "uint8"
            },
            {
              "internalType": "uint8",
              "name": "u8_3",
              "type": "uint8"
            },
            {
              "internalType": "uint16",
              "name": "u16_1",
              "type": "uint16"
            },
            {
              "internalType": "uint16",
              "name": "u16_2",
              "type": "uint16"
            },
            {
              "internalType": "uint32",
              "name": "u32_1",
              "type": "uint32"
            },
            {
              "internalType": "address",
              "name": "addr_1",
              "type": "address"
            }
          ],
          "internalType": "struct escrowDataExtLight",
          "name": "_escrowDataLight",
          "type": "tuple"
        }
      ],
      "name": "setEscrowDataLight",
      "outputs": [],
      "stateMutability": "nonpayable",
      "type": "function"
    },
    {
      "inputs": [
        {
          "internalType": "bytes32",
          "name": "_idxHash",
          "type": "bytes32"
        },
        {
          "components": [
            {
              "internalType": "uint32",
              "name": "u32_2",
              "type": "uint32"
            },
            {
              "internalType": "uint32",
              "name": "u32_3",
              "type": "uint32"
            },
            {
              "internalType": "uint32",
              "name": "u32_4",
              "type": "uint32"
            },
            {
              "internalType": "address",
              "name": "addr_2",
              "type": "address"
            },
            {
              "internalType": "bytes32",
              "name": "b32_1",
              "type": "bytes32"
            },
            {
              "internalType": "bytes32",
              "name": "b32_2",
              "type": "bytes32"
            },
            {
              "internalType": "uint256",
              "name": "u256_1",
              "type": "uint256"
            },
            {
              "internalType": "uint256",
              "name": "u256_2",
              "type": "uint256"
            }
          ],
          "internalType": "struct escrowDataExtHeavy",
          "name": "escrowDataHeavy",
          "type": "tuple"
        }
      ],
      "name": "setEscrowDataHeavy",
      "outputs": [],
      "stateMutability": "nonpayable",
      "type": "function"
    },
    {
      "inputs": [
        {
          "internalType": "bytes32",
          "name": "_idxHash",
          "type": "bytes32"
        }
      ],
      "name": "permissiveEndEscrow",
      "outputs": [],
      "stateMutability": "nonpayable",
      "type": "function"
    },
    {
      "inputs": [
        {
          "internalType": "bytes32",
          "name": "_idxHash",
          "type": "bytes32"
        }
      ],
      "name": "retrieveEscrowOwner",
      "outputs": [
        {
          "internalType": "bytes32",
          "name": "",
          "type": "bytes32"
        }
      ],
      "stateMutability": "view",
      "type": "function"
    },
    {
      "inputs": [
        {
          "internalType": "bytes32",
          "name": "_idxHash",
          "type": "bytes32"
        }
      ],
      "name": "retrieveEscrowData",
      "outputs": [
        {
          "components": [
            {
              "internalType": "bytes32",
              "name": "controllingContractNameHash",
              "type": "bytes32"
            },
            {
              "internalType": "bytes32",
              "name": "escrowOwnerAddressHash",
              "type": "bytes32"
            },
            {
              "internalType": "uint256",
              "name": "timelock",
              "type": "uint256"
            }
          ],
          "internalType": "struct escrowData",
          "name": "",
          "type": "tuple"
        }
      ],
      "stateMutability": "view",
      "type": "function"
    },
    {
      "inputs": [
        {
          "internalType": "bytes32",
          "name": "_idxHash",
          "type": "bytes32"
        }
      ],
      "name": "retrieveEscrowDataLight",
      "outputs": [
        {
          "components": [
            {
              "internalType": "uint8",
              "name": "escrowData",
              "type": "uint8"
            },
            {
              "internalType": "uint8",
              "name": "u8_1",
              "type": "uint8"
            },
            {
              "internalType": "uint8",
              "name": "u8_2",
              "type": "uint8"
            },
            {
              "internalType": "uint8",
              "name": "u8_3",
              "type": "uint8"
            },
            {
              "internalType": "uint16",
              "name": "u16_1",
              "type": "uint16"
            },
            {
              "internalType": "uint16",
              "name": "u16_2",
              "type": "uint16"
            },
            {
              "internalType": "uint32",
              "name": "u32_1",
              "type": "uint32"
            },
            {
              "internalType": "address",
              "name": "addr_1",
              "type": "address"
            }
          ],
          "internalType": "struct escrowDataExtLight",
          "name": "",
          "type": "tuple"
        }
      ],
      "stateMutability": "view",
      "type": "function"
    },
    {
      "inputs": [
        {
          "internalType": "bytes32",
          "name": "_idxHash",
          "type": "bytes32"
        }
      ],
      "name": "retrieveEscrowDataHeavy",
      "outputs": [
        {
          "components": [
            {
              "internalType": "uint32",
              "name": "u32_2",
              "type": "uint32"
            },
            {
              "internalType": "uint32",
              "name": "u32_3",
              "type": "uint32"
            },
            {
              "internalType": "uint32",
              "name": "u32_4",
              "type": "uint32"
            },
            {
              "internalType": "address",
              "name": "addr_2",
              "type": "address"
            },
            {
              "internalType": "bytes32",
              "name": "b32_1",
              "type": "bytes32"
            },
            {
              "internalType": "bytes32",
              "name": "b32_2",
              "type": "bytes32"
            },
            {
              "internalType": "uint256",
              "name": "u256_1",
              "type": "uint256"
            },
            {
              "internalType": "uint256",
              "name": "u256_2",
              "type": "uint256"
            }
          ],
          "internalType": "struct escrowDataExtHeavy",
          "name": "",
          "type": "tuple"
        }
      ],
      "stateMutability": "view",
      "type": "function"
    }
  ],
  "bytecode": "0x60806040523480156200001157600080fd5b50600160009081556002805460ff191690556200002f90336200008d565b6200005b7f2ce8d04a9c35987429af538825cd2438cc5c5bb5dc427955f84daaa3ea105016336200008d565b620000877f65d7a28e3265b37a6474929f336521b332c1681b933f6cb9f3376673440d862a336200008d565b62000125565b6200009982826200009d565b5050565b60008281526001602090815260408083206001600160a01b038516845290915290205460ff16620000995760008281526001602081815260408084206001600160a01b0386168086529252808420805460ff19169093179092559051339285917f2f8788117e7eff1d82e926ec794901d17c78024a50270940304540a733656f0d9190a45050565b61290480620001356000396000f3fe608060405234801561001057600080fd5b50600436106101c45760003560e01c8063a217fddf116100f9578063e59fdd3611610097578063e63ab1e911610071578063e63ab1e91461067c578063e8e1152c146106a3578063e9c26518146106b6578063ee9c25c5146106dd57600080fd5b8063e59fdd3614610643578063e5f815dc14610656578063e6308c561461066957600080fd5b8063d547741f116100d3578063d547741f146105f7578063dbd95ba31461060a578063dc38b0a21461061d578063df7518d21461063057600080fd5b8063a217fddf1461042c578063a3b3fe5014610434578063ca4bc33e146104af57600080fd5b806336568abe1161016657806375855a5b1161014057806375855a5b14610307578063826cdff9146103fe5780638456cb591461041157806391d148541461041957600080fd5b806336568abe146102e15780633f4ba83a146102f45780635c975abb146102fc57600080fd5b8063150b7a02116101a2578063150b7a02146102495780631da0331214610281578063248a9ca3146102a85780632f2ff15d146102cc57600080fd5b8063019b0f5f146101c957806301ffc9a7146101ff5780631429db5f14610222575b600080fd5b6101ec6101d73660046120b9565b60009081526017602052604090206001015490565b6040519081526020015b60405180910390f35b61021261020d36600461216d565b6106e5565b60405190151581526020016101f6565b6101ec7f7f1e4e9f3d9ba0452a25cfef4cd4c6ffc86158d06ed2f585fa0093e12dec429c81565b610268610257366004611ff8565b630a85bd0160e11b95945050505050565b6040516001600160e01b031990911681526020016101f6565b6101ec7f2ce8d04a9c35987429af538825cd2438cc5c5bb5dc427955f84daaa3ea10501681565b6101ec6102b63660046120b9565b6000908152600160208190526040909120015490565b6102df6102da3660046120d2565b61071c565b005b6102df6102ef3660046120d2565b610748565b6102df6107cb565b60025460ff16610212565b6103f16103153660046120b9565b6040805161010081018252600080825260208201819052918101829052606081018290526080810182905260a0810182905260c0810182905260e08101919091525060009081526018602090815260409182902082516101008082018552915460ff80821683529281048316938201939093526201000083048216938101939093526301000000820416606083015261ffff640100000000820481166080840152660100000000000082041660a083015263ffffffff600160401b82041660c08301526001600160a01b03600160601b9091041660e082015290565b6040516101f691906124ce565b6102df61040c366004612102565b61081b565b6102df610945565b6102126104273660046120d2565b610993565b6101ec600081565b61048d6104423660046120b9565b60408051606080820183526000808352602080840182905292840181905293845260178252928290208251938401835280548452600181015491840191909152600201549082015290565b60408051825181526020808401519082015291810151908201526060016101f6565b6105886104bd3660046120b9565b6040805161010081018252600080825260208201819052918101829052606081018290526080810182905260a0810182905260c0810182905260e081019190915250600090815260196020908152604091829020825161010081018452815463ffffffff80821683526401000000008204811694830194909452600160401b810490931693810193909352600160601b9091046001600160a01b0316606083015260018101546080830152600281015460a0830152600381015460c08301526004015460e082015290565b60408051825163ffffffff90811682526020808501518216908301528383015116918101919091526060808301516001600160a01b0316908201526080808301519082015260a0808301519082015260c0808301519082015260e09182015191810191909152610100016101f6565b6102df6106053660046120d2565b6109be565b6102df610618366004612102565b6109e5565b6102df61062b366004611f7d565b610b08565b6102df61063e3660046120b9565b610bbb565b6102df610651366004611fb7565b610d70565b6102df610664366004611fb7565b610e71565b6102df610677366004612130565b610f52565b6101ec7f65d7a28e3265b37a6474929f336521b332c1681b933f6cb9f3376673440d862a81565b6102df6106b13660046120b9565b6110d2565b6101ec7f3b5d4cc60d3ec3516ee8ae083bd60934f6eb2a6c54b1229985c41bfb092b260381565b6102df6112a8565b60006001600160e01b03198216637965db0b60e01b148061071657506301ffc9a760e01b6001600160e01b03198316145b92915050565b60008281526001602081905260409091200154610739813361198b565b61074383836119ef565b505050565b6001600160a01b03811633146107bd5760405162461bcd60e51b815260206004820152602f60248201527f416363657373436f6e74726f6c3a2063616e206f6e6c792072656e6f756e636560448201526e103937b632b9903337b91039b2b63360891b60648201526084015b60405180910390fd5b6107c78282611a5a565b5050565b6107f57f65d7a28e3265b37a6474929f336521b332c1681b933f6cb9f3376673440d862a33610993565b6108115760405162461bcd60e51b81526004016107b4906123bb565b610819611ac1565b565b6002600054141561083e5760405162461bcd60e51b81526004016107b490612497565b600260005561084f60025460ff1690565b1561086c5760405162461bcd60e51b81526004016107b490612401565b600061087783611b54565b9050600061088a335b8360600151611c3a565b90506108998260000151611cfb565b60ff1660aa146108eb5760405162461bcd60e51b815260206004820181905260248201527f454d3a5345444c3a2041737365742021696e20657363726f772073746174757360448201526064016107b4565b600084815260176020908152604090912054908201511461091e5760405162461bcd60e51b81526004016107b49061242b565b600084815260186020526040902083906109388282612779565b5050600160005550505050565b61096f7f65d7a28e3265b37a6474929f336521b332c1681b933f6cb9f3376673440d862a33610993565b61098b5760405162461bcd60e51b81526004016107b4906123bb565b610819611d4f565b60009182526001602090815260408084206001600160a01b0393909316845291905290205460ff1690565b600082815260016020819052604090912001546109db813361198b565b6107438383611a5a565b60026000541415610a085760405162461bcd60e51b81526004016107b490612497565b6002600055610a1960025460ff1690565b15610a365760405162461bcd60e51b81526004016107b490612401565b6000610a4183611b54565b90506000610a4e33610880565b9050610a5d8260000151611cfb565b60ff1660aa14610abb5760405162461bcd60e51b815260206004820152602360248201527f454d3a5345444c3a204173736574206e6f7420696e20657363726f772073746160448201526274757360e81b60648201526084016107b4565b6000848152601760209081526040909120549082015114610aee5760405162461bcd60e51b81526004016107b49061242b565b60008481526019602052604090208390610938828261268e565b610b327f2ce8d04a9c35987429af538825cd2438cc5c5bb5dc427955f84daaa3ea10501633610993565b610b4e5760405162461bcd60e51b81526004016107b490612331565b6001600160a01b038116610b995760405162461bcd60e51b81526020600482015260126024820152710423a5353433a2041646472657373203d20360741b60448201526064016107b4565b600380546001600160a01b0319166001600160a01b0392909216919091179055565b60026000541415610bde5760405162461bcd60e51b81526004016107b490612497565b6002600055610bef60025460ff1690565b15610c0c5760405162461bcd60e51b81526004016107b490612401565b6000818152601760205260409020600201544211610c6c5760405162461bcd60e51b815260206004820152601a60248201527f454d3a5045453a20457363726f77206e6f74206578706972656400000000000060448201526064016107b4565b60008181526018602052604090205460c860ff90911610610ceb5760405162461bcd60e51b815260206004820152603360248201527f454d3a5045453a20457363726f77206e6f7420656e6461626c652077697468206044820152727065726d697373697665456e64457363726f7760681b60648201526084016107b4565b60008181526017602052604080822082815560018101839055600201919091556003549051633a38454b60e21b8152600481018390526001600160a01b039091169063e8e1152c90602401600060405180830381600087803b158015610d5057600080fd5b505af1158015610d64573d6000803e3d6000fd5b50506001600055505050565b610d9a7f7f1e4e9f3d9ba0452a25cfef4cd4c6ffc86158d06ed2f585fa0093e12dec429c33610993565b610db65760405162461bcd60e51b81526004016107b490612378565b60026000541415610dd95760405162461bcd60e51b81526004016107b490612497565b60026000556040516323b872dd60e01b81523060048201526001600160a01b038381166024830152604482018390528416906323b872dd90606401602060405180830381600087803b158015610e2e57600080fd5b505af1158015610e42573d6000803e3d6000fd5b505050506040513d601f19601f82011682018060405250810190610e669190612097565b505060016000555050565b610e9b7f7f1e4e9f3d9ba0452a25cfef4cd4c6ffc86158d06ed2f585fa0093e12dec429c33610993565b610eb75760405162461bcd60e51b81526004016107b490612378565b60026000541415610eda5760405162461bcd60e51b81526004016107b490612497565b6002600055604051632142170760e11b81523060048201526001600160a01b038381166024830152604482018390528416906342842e0e906064015b600060405180830381600087803b158015610f3057600080fd5b505af1158015610f44573d6000803e3d6000fd5b505060016000555050505050565b60026000541415610f755760405162461bcd60e51b81526004016107b490612497565b6002600055610f8660025460ff1690565b15610fa35760405162461bcd60e51b81526004016107b490612401565b6000610fae85611b54565b90506000610fbb33610880565b602081015181519192509060ff1660031461103e5760405162461bcd60e51b815260206004820152603e60248201527f454d3a53453a20457363726f772063616e206f6e6c792062652073657420627960448201527f20616e20617574686f72697a656420657363726f7720636f6e7472616374000060648201526084016107b4565b600087815260176020526040908190208281556001810187905560020185905560035490516316bf0f2d60e21b81526004810189905260ff881660248201526001600160a01b0390911690635afc3cb490604401600060405180830381600087803b1580156110ac57600080fd5b505af11580156110c0573d6000803e3d6000fd5b50506001600055505050505050505050565b600260005414156110f55760405162461bcd60e51b81526004016107b490612497565b600260005561110660025460ff1690565b156111235760405162461bcd60e51b81526004016107b490612401565b600061112e82611b54565b9050600061113b33610880565b905061114a8260000151611cfb565b60ff1660aa1461119c5760405162461bcd60e51b815260206004820152601e60248201527f454d3a45453a2041737365742021696e20657363726f7720737461747573000060448201526064016107b4565b60008381526017602090815260409091205490820151146112255760405162461bcd60e51b815260206004820152603c60248201527f454d3a45453a204f6e6c7920636f6e747261637420776974682073616d65206e60448201527f616d65206173207365747465722063616e20656e6420657363726f770000000060648201526084016107b4565b6000838152601760209081526040808320838155600180820185905560029182018590556018845282852085905560199093528184208481559283018490558201839055600380830184905560049283019390935591549151633a38454b60e21b81529081018590526001600160a01b039091169063e8e1152c90602401610f16565b600260005414156112cb5760405162461bcd60e51b81526004016107b490612497565b60026000556112fa7f2ce8d04a9c35987429af538825cd2438cc5c5bb5dc427955f84daaa3ea10501633610993565b6113165760405162461bcd60e51b81526004016107b490612331565b6003546040516363b8d4c160e11b81526020600482015260086024820152672727a222afaa25a760c11b60448201526001600160a01b039091169063c771a9829060640160206040518083038186803b15801561137257600080fd5b505afa158015611386573d6000803e3d6000fd5b505050506040513d601f19601f820116820180604052508101906113aa9190611f9a565b600c80546001600160a01b039283166001600160a01b03199182168117909255600d805490911690911790556003546040516363b8d4c160e11b81526020600482015260086024820152672727a222afa6a3a960c11b604482015291169063c771a9829060640160206040518083038186803b15801561142957600080fd5b505afa15801561143d573d6000803e3d6000fd5b505050506040513d601f19601f820116820180604052508101906114619190611f9a565b600480546001600160a01b039283166001600160a01b031991821681178355600580549092161790556003546040516363b8d4c160e11b815292169163c771a982916114cb91016020808252600990820152682727a222afa9aa27a960b91b604082015260600190565b60206040518083038186803b1580156114e357600080fd5b505afa1580156114f7573d6000803e3d6000fd5b505050506040513d601f19601f8201168201806040525081019061151b9190611f9a565b600680546001600160a01b039283166001600160a01b031991821681179092556007805490911690911790556003546040516363b8d4c160e11b81526020600482015260086024820152672aaa24a62faa25a760c11b604482015291169063c771a9829060640160206040518083038186803b15801561159a57600080fd5b505afa1580156115ae573d6000803e3d6000fd5b505050506040513d601f19601f820116820180604052508101906115d29190611f9a565b600880546001600160a01b039283166001600160a01b031991821681179092556009805490911690911790556003546040516363b8d4c160e11b815260206004820152600560248201526420afaa25a760d91b604482015291169063c771a9829060640160206040518083038186803b15801561164e57600080fd5b505afa158015611662573d6000803e3d6000fd5b505050506040513d601f19601f820116820180604052508101906116869190611f9a565b600a80546001600160a01b039283166001600160a01b03199182168117909255600b805490911690911790556003546040516363b8d4c160e11b815260206004820152600760248201526622a1a92fa6a3a960c91b604482015291169063c771a9829060640160206040518083038186803b15801561170457600080fd5b505afa158015611718573d6000803e3d6000fd5b505050506040513d601f19601f8201168201806040525081019061173c9190611f9a565b600e80546001600160a01b039283166001600160a01b03199182168117909255600f805490911690911790556003546040516363b8d4c160e11b815291169063c771a982906117a59060040160208082526003908201526204150560ec1b604082015260600190565b60206040518083038186803b1580156117bd57600080fd5b505afa1580156117d1573d6000803e3d6000fd5b505050506040513d601f19601f820116820180604052508101906117f59190611f9a565b601280546001600160a01b039283166001600160a01b031991821681179092556013805490911690911790556003546040516363b8d4c160e11b815291169063c771a9829061185f906004016020808252600490820152632921a62960e11b604082015260600190565b60206040518083038186803b15801561187757600080fd5b505afa15801561188b573d6000803e3d6000fd5b505050506040513d601f19601f820116820180604052508101906118af9190611f9a565b601080546001600160a01b039283166001600160a01b031991821681179092556011805490911690911790556003546040516363b8d4c160e11b81526020600482015260066024820152654150505f4e4360d01b604482015291169063c771a9829060640160206040518083038186803b15801561192c57600080fd5b505afa158015611940573d6000803e3d6000fd5b505050506040513d601f19601f820116820180604052508101906119649190611f9a565b601480546001600160a01b0319166001600160a01b03929092169190911790556001600055565b6119958282610993565b6107c7576119ad816001600160a01b03166014611da7565b6119b8836020611da7565b6040516020016119c9929190612289565b60408051601f198184030181529082905262461bcd60e51b82526107b4916004016122fe565b6119f98282610993565b6107c75760008281526001602081815260408084206001600160a01b0386168086529252808420805460ff19169093179092559051339285917f2f8788117e7eff1d82e926ec794901d17c78024a50270940304540a733656f0d9190a45050565b611a648282610993565b156107c75760008281526001602090815260408083206001600160a01b0385168085529252808320805460ff1916905551339285917ff6391f5c32d9c69d2a47ea670b442974b53935d1edc7fd64eb21e047a839171b9190a45050565b60025460ff16611b0a5760405162461bcd60e51b815260206004820152601460248201527314185d5cd8589b194e881b9bdd081c185d5cd95960621b60448201526064016107b4565b6002805460ff191690557f5db9ee0a495bf2e6ff9c91a7834c1ba4fdd244a5e8aa4e537bd38aeae4b073aa335b6040516001600160a01b03909116815260200160405180910390a1565b6040805161018081018252600080825260208201819052918101829052606081018290526080810182905260a0810182905260c0810182905260e081018290526101008101829052610120810182905261014081018290526101608101919091526003546040516338923cb160e21b8152600481018490526000916001600160a01b03169063e248f2c4906024016101806040518083038186803b158015611bfb57600080fd5b505afa158015611c0f573d6000803e3d6000fd5b505050506040513d601f19601f82011682018060405250810190611c339190612197565b9392505050565b60408051808201909152600080825260208201526040805180820190915260008082526020820152600354604051636fcfb49b60e11b81526001600160a01b03868116600483015263ffffffff861660248301529091169063df9f693690604401604080518083038186803b158015611cb257600080fd5b505afa158015611cc6573d6000803e3d6000fd5b505050506040513d601f19601f82011682018060405250810190611cea919061225b565b602083015260ff1681529392505050565b60008160ff16600614158015611d1557508160ff16603214155b8015611d2557508160ff16603814155b8015611d3557508160ff16603c14155b15611d4257506000919050565b5060aa919050565b919050565b60025460ff1615611d725760405162461bcd60e51b81526004016107b490612401565b6002805460ff191660011790557f62e78cea01bee320cd4e420270b5ea74000d11b0c9f74754ebdbfc544b05a258611b373390565b60606000611db68360026125b2565b611dc190600261259a565b67ffffffffffffffff811115611dd957611dd9612644565b6040519080825280601f01601f191660200182016040528015611e03576020820181803683370190505b509050600360fc1b81600081518110611e1e57611e1e61262e565b60200101906001600160f81b031916908160001a905350600f60fb1b81600181518110611e4d57611e4d61262e565b60200101906001600160f81b031916908160001a9053506000611e718460026125b2565b611e7c90600161259a565b90505b6001811115611ef4576f181899199a1a9b1b9c1cb0b131b232b360811b85600f1660108110611eb057611eb061262e565b1a60f81b828281518110611ec657611ec661262e565b60200101906001600160f81b031916908160001a90535060049490941c93611eed81612601565b9050611e7f565b508315611c335760405162461bcd60e51b815260206004820181905260248201527f537472696e67733a20686578206c656e67746820696e73756666696369656e7460448201526064016107b4565b60006101008284031215611f5657600080fd5b50919050565b8051611d4a8161289d565b8051611d4a816128ad565b8051611d4a816128bf565b600060208284031215611f8f57600080fd5b8135611c3381612885565b600060208284031215611fac57600080fd5b8151611c3381612885565b600080600060608486031215611fcc57600080fd5b8335611fd781612885565b92506020840135611fe781612885565b929592945050506040919091013590565b60008060008060006080868803121561201057600080fd5b853561201b81612885565b9450602086013561202b81612885565b935060408601359250606086013567ffffffffffffffff8082111561204f57600080fd5b818801915088601f83011261206357600080fd5b81358181111561207257600080fd5b89602082850101111561208457600080fd5b9699959850939650602001949392505050565b6000602082840312156120a957600080fd5b81518015158114611c3357600080fd5b6000602082840312156120cb57600080fd5b5035919050565b600080604083850312156120e557600080fd5b8235915060208301356120f781612885565b809150509250929050565b600080610120838503121561211657600080fd5b823591506121278460208501611f43565b90509250929050565b6000806000806080858703121561214657600080fd5b843593506020850135612158816128bf565b93969395505050506040820135916060013590565b60006020828403121561217f57600080fd5b81356001600160e01b031981168114611c3357600080fd5b600061018082840312156121aa57600080fd5b6121b2612562565b6121bb83611f72565b81526121c960208401611f72565b60208201526121da60408401611f5c565b60408201526121eb60608401611f67565b60608201526121fc60808401611f67565b608082015261220d60a08401611f67565b60a082015260c0838101519082015260e08084015190820152610100808401519082015261012080840151908201526101408084015190820152610160928301519281019290925250919050565b6000806040838503121561226e57600080fd5b8251612279816128bf565b6020939093015192949293505050565b7f416363657373436f6e74726f6c3a206163636f756e74200000000000000000008152600083516122c18160178501602088016125d1565b7001034b99036b4b9b9b4b733903937b6329607d1b60179184019182015283516122f28160288401602088016125d1565b01602801949350505050565b602081526000825180602084015261231d8160408501602087016125d1565b601f01601f19169190910160400192915050565b60208082526027908201527f423a4d4f443a2d4941444d2043616c6c65722021434f4e54524143545f41444d604082015266494e5f524f4c4560c81b606082015260800190565b60208082526023908201527f423a4d4f443a2d4941444d2043616c6c6572202141535345545f545846525f526040820152624f4c4560e81b606082015260800190565b60208082526026908201527f423a4d4f442d49503a43616c6c696e672061646472657373206973206e6f74206040820152653830bab9b2b960d11b606082015260800190565b60208082526010908201526f14185d5cd8589b194e881c185d5cd95960821b604082015260600190565b60208082526046908201527f454d3a5345444c3a204f6e6c7920636f6e747261637420776974682073616d6560408201527f206e616d65206173207365747465722063616e206d6f6469667920657363726f60608201526577206461746160d01b608082015260a00190565b6020808252601f908201527f5265656e7472616e637947756172643a207265656e7472616e742063616c6c00604082015260600190565b60006101008201905060ff835116825260ff602084015116602083015260ff604084015116604083015260ff606084015116606083015261ffff608084015116608083015260a083015161252860a084018261ffff169052565b5060c083015161254060c084018263ffffffff169052565b5060e083015161255b60e08401826001600160a01b03169052565b5092915050565b604051610180810167ffffffffffffffff8111828210171561259457634e487b7160e01b600052604160045260246000fd5b60405290565b600082198211156125ad576125ad612618565b500190565b60008160001904831182151516156125cc576125cc612618565b500290565b60005b838110156125ec5781810151838201526020016125d4565b838111156125fb576000848401525b50505050565b60008161261057612610612618565b506000190190565b634e487b7160e01b600052601160045260246000fd5b634e487b7160e01b600052603260045260246000fd5b634e487b7160e01b600052604160045260246000fd5b6000813561071681612885565b600081356107168161289d565b60008135610716816128ad565b60008135610716816128bf565b8135612699816128ad565b63ffffffff811663ffffffff198354161782555060208201356126bb816128ad565b815467ffffffff000000001916602082901b67ffffffff0000000016178255506127146126ea60408401612674565b82546bffffffff0000000000000000191660409190911b6bffffffff000000000000000016178255565b61274d6127236060840161265a565b82546bffffffffffffffffffffffff1660609190911b6bffffffffffffffffffffffff1916178255565b6080820135600182015560a0820135600282015560c0820135600382015560e082013560048201555050565b8135612784816128bf565b60ff8116905081548160ff19821617835560208401356127a3816128bf565b61ff008160081b168361ffff198416171784555050506127e06127c860408401612681565b825462ff0000191660109190911b62ff000016178255565b6128096127ef60608401612681565b825463ff000000191660189190911b63ff00000016178255565b61283661281860808401612667565b825465ffff00000000191660209190911b65ffff0000000016178255565b61286761284560a08401612667565b825467ffff000000000000191660309190911b67ffff00000000000016178255565b6128766126ea60c08401612674565b6107c761272360e0840161265a565b6001600160a01b038116811461289a57600080fd5b50565b61ffff8116811461289a57600080fd5b63ffffffff8116811461289a57600080fd5b60ff8116811461289a57600080fdfea26469706673582212200ba33b619a4d56aa36d3f6caefeb0dfcd65324bfd1fb2f7ddf1a0218ef09938b64736f6c63430008070033",
  "immutableReferences": {},
  "source": "/*--------------------------------------------------------PRF0.8.7\n__/\\\\\\\\\\\\\\\\\\\\\\\\\\ _____/\\\\\\\\\\\\\\\\\\ _______/\\\\__/\\\\ ___/\\\\\\\\\\\\\\\\\\\\\\\\\\\\\\        \n__\\/\\\\\\/////////\\\\\\ _/\\\\\\///////\\\\\\ ____\\//__\\//____\\/\\\\\\///////////__       \n___\\/\\\\\\_______\\/\\\\\\_\\/\\\\\\_____\\/\\\\\\ ________________\\/\\\\\\ ____________      \n____\\/\\\\\\\\\\\\\\\\\\\\\\\\\\/__\\/\\\\\\\\\\\\\\\\\\\\\\/_____/\\\\\\____/\\\\\\_\\/\\\\\\\\\\\\\\\\\\\\\\ ____     \n_____\\/\\\\\\/////////____\\/\\\\\\//////\\\\\\ ___\\/\\\\\\___\\/\\\\\\_\\/\\\\\\///////______\n______\\/\\\\\\ ____________\\/\\\\\\ ___\\//\\\\\\ __\\/\\\\\\___\\/\\\\\\_\\/\\\\\\ ____________\n_______\\/\\\\\\ ____________\\/\\\\\\ ____\\//\\\\\\ _\\/\\\\\\___\\/\\\\\\_\\/\\\\\\ ____________\n________\\/\\\\\\ ____________\\/\\\\\\ _____\\//\\\\\\_\\//\\\\\\\\\\\\\\\\\\ _\\/\\\\\\ ____________\n_________\\/// _____________\\/// _______\\/// __\\///////// __\\/// _____________\n*---------------------------------------------------------------------------*/\n\n/*-----------------------------------------------------------------\n *  TO DO\n *  Escrow manager holds and manipultes escrow data for sattelite contracts.\n *\n *-----------------------------------------------------------------\n */\n// SPDX-License-Identifier: UNLICENSED\npragma solidity ^0.8.7;\n\nimport \"../Resources/PRUF_BASIC.sol\";\n\ncontract ECR_MGR is BASIC {\n    mapping(bytes32 => escrowData) private escrows;\n    mapping(bytes32 => escrowDataExtLight) private EscrowDataLight;\n    mapping(bytes32 => escrowDataExtHeavy) private EscrowDataHeavy;\n\n    /**\n     * Checks to see if an asset is in escrow status or not\n     * @param _assetStatus - status number (see docs)\n     * @return 170 or 0 (true or false)\n     */\n    function isEscrow(uint8 _assetStatus) private pure returns (uint8) {\n        if (\n            (_assetStatus != 6) &&\n            (_assetStatus != 50) &&\n            (_assetStatus != 56) &&\n            (_assetStatus != 60)\n        ) {\n            return 0;\n        } else {\n            return 170;\n        }\n    }\n\n    /**\n     * @dev Set an asset to escrow status (6/50/56). Sets timelock for unix timestamp of escrow end.\n     * @param _idxHash - hash of asset information created by frontend inputs\n     * @param _newAssetStatus - new escrow status of asset (see docs)\n     * @param _escrowOwnerAddressHash - hash of escrow controller address\n     * @param _timelock - timelock parameter for time controlled escrows\n     */\n    function setEscrow(\n        bytes32 _idxHash,\n        uint8 _newAssetStatus,\n        bytes32 _escrowOwnerAddressHash,\n        uint256 _timelock\n    ) external nonReentrant whenNotPaused {\n        Record memory rec = getRecord(_idxHash);\n        ContractDataHash memory contractInfo = getContractInfo(\n            _msgSender(),\n            rec.node\n        );\n        bytes32 controllingContractNameHash = contractInfo.nameHash;\n\n        require(\n            contractInfo.contractType == 3,\n            \"EM:SE: Escrow can only be set by an authorized escrow contract\"\n        );\n        //^^^^^^^checks^^^^^^^^^\n        // delete escrows[_idxHash];\n        // delete EscrowDataLight[_idxHash];\n        // delete EscrowDataHeavy[_idxHash];\n\n        escrows[_idxHash]\n            .controllingContractNameHash = controllingContractNameHash;\n        escrows[_idxHash].escrowOwnerAddressHash = _escrowOwnerAddressHash;\n        escrows[_idxHash].timelock = _timelock;\n        //^^^^^^^effects^^^^^^^^^\n\n        STOR.setEscrow(_idxHash, _newAssetStatus);\n        //^^^^^^^interactions^^^^^^^^^\n    }\n\n    /**\n     * @dev remove asset from escrow\n     * @param _idxHash - hash of asset information created by frontend inputs\n     */\n    function endEscrow(bytes32 _idxHash) external nonReentrant whenNotPaused {\n        Record memory rec = getRecord(_idxHash);\n        ContractDataHash memory contractInfo = getContractInfo(\n            _msgSender(),\n            rec.node\n        );\n\n        require(\n            isEscrow(rec.assetStatus) == 170,\n            \"EM:EE: Asset !in escrow status\"\n        );\n        require(\n            (contractInfo.nameHash ==\n                escrows[_idxHash].controllingContractNameHash),\n            \"EM:EE: Only contract with same name as setter can end escrow\"\n        );\n\n        //^^^^^^^checks^^^^^^^^^\n\n        delete escrows[_idxHash];\n        delete EscrowDataLight[_idxHash];\n        delete EscrowDataHeavy[_idxHash];\n        //^^^^^^^effects^^^^^^^^^\n\n        STOR.endEscrow(_idxHash);\n        //^^^^^^^interactions^^^^^^^^^\n    }\n\n    /**\n     * @dev Sets data in the Escrow Data Light mapping\n     * @param _idxHash - hash of asset information created by frontend inputs\n     * @param _escrowDataLight - struct of data associated with light load escrows\n     */\n    function setEscrowDataLight(\n        bytes32 _idxHash,\n        escrowDataExtLight calldata _escrowDataLight\n    ) external nonReentrant whenNotPaused {\n        Record memory rec = getRecord(_idxHash);\n        ContractDataHash memory contractInfo = getContractInfo(\n            _msgSender(),\n            rec.node\n        );\n\n        require(\n            isEscrow(rec.assetStatus) == 170,\n            \"EM:SEDL: Asset !in escrow status\"\n        );\n        require(\n            (contractInfo.nameHash ==\n                escrows[_idxHash].controllingContractNameHash),\n            \"EM:SEDL: Only contract with same name as setter can modify escrow data\"\n        );\n        //^^^^^^^checks^^^^^^^^^\n\n        EscrowDataLight[_idxHash] = _escrowDataLight; //set in EDL map\n        //^^^^^^^effects^^^^^^^^^\n    }\n\n    /**\n     * @dev Sets data in the Escrow Data Heavy mapping\n     * @param _idxHash - hash of asset information created by frontend inputs\n     * @param escrowDataHeavy - struct of data associated with heavy load escrows\n     */\n    function setEscrowDataHeavy(\n        bytes32 _idxHash,\n        escrowDataExtHeavy calldata escrowDataHeavy\n    ) external nonReentrant whenNotPaused {\n        Record memory rec = getRecord(_idxHash);\n        ContractDataHash memory contractInfo = getContractInfo(\n            _msgSender(),\n            rec.node\n        );\n\n        require(\n            isEscrow(rec.assetStatus) == 170,\n            \"EM:SEDL: Asset not in escrow status\"\n        );\n        require(\n            (contractInfo.nameHash ==\n                escrows[_idxHash].controllingContractNameHash),\n            \"EM:SEDL: Only contract with same name as setter can modify escrow data\"\n        );\n        //^^^^^^^checks^^^^^^^^^\n\n        EscrowDataHeavy[_idxHash] = escrowDataHeavy; //set in EDH map\n        //^^^^^^^effects^^^^^^^^^\n    }\n\n    /**\n     * @dev Permissive removal of asset from escrow status after time-out (no special qualifiers to end expired escrow)\n     * @param _idxHash - hash of asset information created by frontend inputs\n     */\n    function permissiveEndEscrow(bytes32 _idxHash)\n        external\n        nonReentrant\n        whenNotPaused\n    {\n        require(\n            escrows[_idxHash].timelock < block.timestamp,\n            \"EM:PEE: Escrow not expired\"\n        );\n        require( // do not allow escrows with escrow.data > 199 to be ended by this function //STATE UNREACHABLE PREFERRED\n            EscrowDataLight[_idxHash].escrowData < 200,\n            \"EM:PEE: Escrow not endable with permissiveEndEscrow\"\n        );\n        //^^^^^^^checks^^^^^^^^^\n\n        delete escrows[_idxHash];\n        //^^^^^^^effects^^^^^^^^^\n\n        STOR.endEscrow(_idxHash);\n        //^^^^^^^interactions^^^^^^^^^\n    }\n\n    /**\n     * @dev return escrow owner hash\n     * @param _idxHash - hash of asset information created by frontend inputs\n     *\n     * @return hash of escrow owner\n     */\n    function retrieveEscrowOwner(bytes32 _idxHash)\n        external\n        view\n        returns (bytes32)\n    {\n        //^^^^^^^checks^^^^^^^^^\n\n        return escrows[_idxHash].escrowOwnerAddressHash;\n        //^^^^^^^effects^^^^^^^^^\n    }\n\n    /**\n     * @dev return escrow data associated with an asset\n     * @param _idxHash - hash of asset information created by frontend inputs\n     *\n     * @return all escrow data  @ _idxHash\n     */\n    function retrieveEscrowData(bytes32 _idxHash)\n        external\n        view\n        returns (escrowData memory)\n    {\n        //^^^^^^^checks^^^^^^^^^\n\n        return escrows[_idxHash];\n        //^^^^^^^effects^^^^^^^^^\n    }\n\n    /**\n     * @dev return EscrowDataLight\n     * @param _idxHash - hash of asset information created by frontend inputs\n     *\n     * @return EscrowDataLight struct @ _idxHash\n     */\n    function retrieveEscrowDataLight(bytes32 _idxHash)\n        external\n        view\n        returns (escrowDataExtLight memory)\n    {\n        //^^^^^^^checks^^^^^^^^^\n\n        return EscrowDataLight[_idxHash];\n        //^^^^^^^effects^^^^^^^^^\n    }\n\n    /**\n     * @dev return EscrowDataHeavy\n     * @param _idxHash - hash of asset information created by frontend inputs\n     *\n     * @return EscrowDataHeavy struct @ _idxHash\n     */\n    function retrieveEscrowDataHeavy(bytes32 _idxHash)\n        external\n        view\n        returns (escrowDataExtHeavy memory)\n    {\n        //^^^^^^^checks^^^^^^^^^\n\n        return EscrowDataHeavy[_idxHash];\n        //^^^^^^^effects^^^^^^^^^\n    }\n}\n",
  "sourcePath": "/Users/drake/Documents/DEV/PRUF/PRUF_TRUFFLE/contracts/InProgress/PRUF_ECR_MGR.sol",
  "compiler": {
    "name": "solc",
    "version": "0.8.7+commit.e28d00a7.Emscripten.clang"
  },
  "schemaVersion": "3.4.3",
  "updatedAt": "2021-10-26T17:58:04.033Z",
  "devdoc": {
    "kind": "dev",
    "methods": {
      "ERC20Transfer(address,address,uint256)": {
        "details": "send an ERC20 token from this contract",
        "params": {
          "_amount": "amount to transfer",
          "_to": "destination",
          "_tokenContract": "Address of foreign token contract"
        }
      },
      "ERC721Transfer(address,address,uint256)": {
        "details": "send an ERC721 token from this contract",
        "params": {
          "_to": "destination",
          "_tokenContract": "Address of foreign token contract",
          "_tokenID": "Token ID"
        }
      },
      "endEscrow(bytes32)": {
        "details": "remove asset from escrow",
        "params": {
          "_idxHash": "- hash of asset information created by frontend inputs"
        }
      },
      "getRoleAdmin(bytes32)": {
        "details": "Returns the admin role that controls `role`. See {grantRole} and {revokeRole}. To change a role's admin, use {_setRoleAdmin}."
      },
      "grantRole(bytes32,address)": {
        "details": "Grants `role` to `account`. If `account` had not been already granted `role`, emits a {RoleGranted} event. Requirements: - the caller must have ``role``'s admin role."
      },
      "hasRole(bytes32,address)": {
        "details": "Returns `true` if `account` has been granted `role`."
      },
      "onERC721Received(address,address,uint256,bytes)": {
        "details": "Compliance for erc721 reciever See OZ documentation"
      },
      "paused()": {
        "details": "Returns true if the contract is paused, and false otherwise."
      },
      "permissiveEndEscrow(bytes32)": {
        "details": "Permissive removal of asset from escrow status after time-out (no special qualifiers to end expired escrow)",
        "params": {
          "_idxHash": "- hash of asset information created by frontend inputs"
        }
      },
      "renounceRole(bytes32,address)": {
        "details": "Revokes `role` from the calling account. Roles are often managed via {grantRole} and {revokeRole}: this function's purpose is to provide a mechanism for accounts to lose their privileges if they are compromised (such as when a trusted device is misplaced). If the calling account had been granted `role`, emits a {RoleRevoked} event. Requirements: - the caller must be `account`."
      },
      "resolveContractAddresses()": {
        "details": "Resolve contract addresses from STOR"
      },
      "retrieveEscrowData(bytes32)": {
        "details": "return escrow data associated with an asset",
        "params": {
          "_idxHash": "- hash of asset information created by frontend inputs"
        },
        "returns": {
          "_0": "all escrow data  @ _idxHash"
        }
      },
      "retrieveEscrowDataHeavy(bytes32)": {
        "details": "return EscrowDataHeavy",
        "params": {
          "_idxHash": "- hash of asset information created by frontend inputs"
        },
        "returns": {
          "_0": "EscrowDataHeavy struct @ _idxHash"
        }
      },
      "retrieveEscrowDataLight(bytes32)": {
        "details": "return EscrowDataLight",
        "params": {
          "_idxHash": "- hash of asset information created by frontend inputs"
        },
        "returns": {
          "_0": "EscrowDataLight struct @ _idxHash"
        }
      },
      "retrieveEscrowOwner(bytes32)": {
        "details": "return escrow owner hash",
        "params": {
          "_idxHash": "- hash of asset information created by frontend inputs"
        },
        "returns": {
          "_0": "hash of escrow owner"
        }
      },
      "revokeRole(bytes32,address)": {
        "details": "Revokes `role` from `account`. If `account` had been granted `role`, emits a {RoleRevoked} event. Requirements: - the caller must have ``role``'s admin role."
      },
      "setEscrow(bytes32,uint8,bytes32,uint256)": {
        "details": "Set an asset to escrow status (6/50/56). Sets timelock for unix timestamp of escrow end.",
        "params": {
          "_escrowOwnerAddressHash": "- hash of escrow controller address",
          "_idxHash": "- hash of asset information created by frontend inputs",
          "_newAssetStatus": "- new escrow status of asset (see docs)",
          "_timelock": "- timelock parameter for time controlled escrows"
        }
      },
      "setEscrowDataHeavy(bytes32,(uint32,uint32,uint32,address,bytes32,bytes32,uint256,uint256))": {
        "details": "Sets data in the Escrow Data Heavy mapping",
        "params": {
          "_idxHash": "- hash of asset information created by frontend inputs",
          "escrowDataHeavy": "- struct of data associated with heavy load escrows"
        }
      },
      "setEscrowDataLight(bytes32,(uint8,uint8,uint8,uint8,uint16,uint16,uint32,address))": {
        "details": "Sets data in the Escrow Data Light mapping",
        "params": {
          "_escrowDataLight": "- struct of data associated with light load escrows",
          "_idxHash": "- hash of asset information created by frontend inputs"
        }
      },
      "setStorageContract(address)": {
        "details": "Set address of STOR contract to interface with",
        "params": {
          "_storageAddress": "address of PRUF_STOR"
        }
      },
      "supportsInterface(bytes4)": {
        "details": "See {IERC165-supportsInterface}."
      }
    },
    "version": 1
  },
  "userdoc": {
    "kind": "user",
    "methods": {},
    "version": 1
  }
}