{
  "contractName": "ECR_MGR",
  "abi": [
    {
      "anonymous": false,
      "inputs": [
        {
          "indexed": true,
          "internalType": "address",
          "name": "previousOwner",
          "type": "address"
        },
        {
          "indexed": true,
          "internalType": "address",
          "name": "newOwner",
          "type": "address"
        }
      ],
      "name": "OwnershipTransferred",
      "type": "event"
    },
    {
      "anonymous": false,
      "inputs": [
        {
          "indexed": false,
          "internalType": "address",
          "name": "account",
          "type": "address"
        }
      ],
      "name": "Paused",
      "type": "event"
    },
    {
      "anonymous": false,
      "inputs": [
        {
          "indexed": false,
          "internalType": "string",
          "name": "_msg",
          "type": "string"
        }
      ],
      "name": "REPORT",
      "type": "event"
    },
    {
      "anonymous": false,
      "inputs": [
        {
          "indexed": false,
          "internalType": "address",
          "name": "account",
          "type": "address"
        }
      ],
      "name": "Unpaused",
      "type": "event"
    },
    {
      "inputs": [],
      "name": "OO_pause",
      "outputs": [],
      "stateMutability": "nonpayable",
      "type": "function"
    },
    {
      "inputs": [],
      "name": "OO_resolveContractAddresses",
      "outputs": [],
      "stateMutability": "nonpayable",
      "type": "function"
    },
    {
      "inputs": [
        {
          "internalType": "address",
          "name": "_storageAddress",
          "type": "address"
        }
      ],
      "name": "OO_setStorageContract",
      "outputs": [],
      "stateMutability": "nonpayable",
      "type": "function"
    },
    {
      "inputs": [
        {
          "internalType": "address",
          "name": "_to",
          "type": "address"
        },
        {
          "internalType": "bytes32",
          "name": "_idxHash",
          "type": "bytes32"
        }
      ],
      "name": "OO_transferACToken",
      "outputs": [],
      "stateMutability": "nonpayable",
      "type": "function"
    },
    {
      "inputs": [],
      "name": "OO_unpause",
      "outputs": [],
      "stateMutability": "nonpayable",
      "type": "function"
    },
    {
      "inputs": [
        {
          "internalType": "address",
          "name": "",
          "type": "address"
        },
        {
          "internalType": "address",
          "name": "",
          "type": "address"
        },
        {
          "internalType": "uint256",
          "name": "",
          "type": "uint256"
        },
        {
          "internalType": "bytes",
          "name": "",
          "type": "bytes"
        }
      ],
      "name": "onERC721Received",
      "outputs": [
        {
          "internalType": "bytes4",
          "name": "",
          "type": "bytes4"
        }
      ],
      "stateMutability": "nonpayable",
      "type": "function"
    },
    {
      "inputs": [],
      "name": "owner",
      "outputs": [
        {
          "internalType": "address",
          "name": "",
          "type": "address"
        }
      ],
      "stateMutability": "view",
      "type": "function"
    },
    {
      "inputs": [],
      "name": "paused",
      "outputs": [
        {
          "internalType": "bool",
          "name": "",
          "type": "bool"
        }
      ],
      "stateMutability": "view",
      "type": "function"
    },
    {
      "inputs": [],
      "name": "renounceOwnership",
      "outputs": [],
      "stateMutability": "nonpayable",
      "type": "function"
    },
    {
      "inputs": [
        {
          "internalType": "address",
          "name": "_to",
          "type": "address"
        },
        {
          "internalType": "bytes32",
          "name": "_idxHash",
          "type": "bytes32"
        }
      ],
      "name": "transferAssetToken",
      "outputs": [],
      "stateMutability": "nonpayable",
      "type": "function"
    },
    {
      "inputs": [
        {
          "internalType": "address",
          "name": "newOwner",
          "type": "address"
        }
      ],
      "name": "transferOwnership",
      "outputs": [],
      "stateMutability": "nonpayable",
      "type": "function"
    },
    {
      "inputs": [
        {
          "internalType": "bytes32",
          "name": "_idxHash",
          "type": "bytes32"
        },
        {
          "internalType": "uint8",
          "name": "_newAssetStatus",
          "type": "uint8"
        },
        {
          "internalType": "bytes32",
          "name": "_escrowOwnerAddressHash",
          "type": "bytes32"
        },
        {
          "internalType": "uint256",
          "name": "_timelock",
          "type": "uint256"
        }
      ],
      "name": "setEscrow",
      "outputs": [],
      "stateMutability": "nonpayable",
      "type": "function"
    },
    {
      "inputs": [
        {
          "internalType": "bytes32",
          "name": "_idxHash",
          "type": "bytes32"
        }
      ],
      "name": "endEscrow",
      "outputs": [],
      "stateMutability": "nonpayable",
      "type": "function"
    },
    {
      "inputs": [
        {
          "internalType": "bytes32",
          "name": "_idxHash",
          "type": "bytes32"
        },
        {
          "internalType": "uint8",
          "name": "_escrowData",
          "type": "uint8"
        },
        {
          "internalType": "uint8",
          "name": "_u8_1",
          "type": "uint8"
        },
        {
          "internalType": "uint8",
          "name": "_u8_2",
          "type": "uint8"
        },
        {
          "internalType": "uint8",
          "name": "_u8_3",
          "type": "uint8"
        },
        {
          "internalType": "uint16",
          "name": "_u16_1",
          "type": "uint16"
        },
        {
          "internalType": "uint16",
          "name": "_u16_2",
          "type": "uint16"
        },
        {
          "internalType": "uint32",
          "name": "_u32_1",
          "type": "uint32"
        },
        {
          "internalType": "address",
          "name": "_addr_1",
          "type": "address"
        }
      ],
      "name": "setEscrowDataLight",
      "outputs": [],
      "stateMutability": "nonpayable",
      "type": "function"
    },
    {
      "inputs": [
        {
          "internalType": "bytes32",
          "name": "_idxHash",
          "type": "bytes32"
        },
        {
          "internalType": "uint32",
          "name": "_u32_2",
          "type": "uint32"
        },
        {
          "internalType": "uint32",
          "name": "_u32_3",
          "type": "uint32"
        },
        {
          "internalType": "uint32",
          "name": "_u32_4",
          "type": "uint32"
        },
        {
          "internalType": "address",
          "name": "_addr_2",
          "type": "address"
        },
        {
          "internalType": "bytes32",
          "name": "_b32_1",
          "type": "bytes32"
        },
        {
          "internalType": "bytes32",
          "name": "_b32_2",
          "type": "bytes32"
        },
        {
          "internalType": "uint256",
          "name": "_u256_1",
          "type": "uint256"
        },
        {
          "internalType": "uint256",
          "name": "_u256_2",
          "type": "uint256"
        }
      ],
      "name": "setEscrowDataHeavy",
      "outputs": [],
      "stateMutability": "nonpayable",
      "type": "function"
    },
    {
      "inputs": [
        {
          "internalType": "bytes32",
          "name": "_idxHash",
          "type": "bytes32"
        }
      ],
      "name": "permissiveEndEscrow",
      "outputs": [],
      "stateMutability": "nonpayable",
      "type": "function"
    },
    {
      "inputs": [
        {
          "internalType": "bytes32",
          "name": "_idxHash",
          "type": "bytes32"
        }
      ],
      "name": "retrieveEscrowOwner",
      "outputs": [
        {
          "internalType": "bytes32",
          "name": "",
          "type": "bytes32"
        }
      ],
      "stateMutability": "view",
      "type": "function"
    },
    {
      "inputs": [
        {
          "internalType": "bytes32",
          "name": "_idxHash",
          "type": "bytes32"
        }
      ],
      "name": "retrieveEscrowData",
      "outputs": [
        {
          "internalType": "bytes32",
          "name": "",
          "type": "bytes32"
        },
        {
          "internalType": "bytes32",
          "name": "",
          "type": "bytes32"
        },
        {
          "internalType": "uint256",
          "name": "",
          "type": "uint256"
        }
      ],
      "stateMutability": "view",
      "type": "function"
    },
    {
      "inputs": [
        {
          "internalType": "bytes32",
          "name": "_idxHash",
          "type": "bytes32"
        }
      ],
      "name": "retrieveEscrowDataLight",
      "outputs": [
        {
          "internalType": "uint8",
          "name": "",
          "type": "uint8"
        },
        {
          "internalType": "uint8",
          "name": "",
          "type": "uint8"
        },
        {
          "internalType": "uint8",
          "name": "",
          "type": "uint8"
        },
        {
          "internalType": "uint8",
          "name": "",
          "type": "uint8"
        },
        {
          "internalType": "uint16",
          "name": "",
          "type": "uint16"
        },
        {
          "internalType": "uint16",
          "name": "",
          "type": "uint16"
        },
        {
          "internalType": "uint32",
          "name": "",
          "type": "uint32"
        },
        {
          "internalType": "address",
          "name": "",
          "type": "address"
        }
      ],
      "stateMutability": "view",
      "type": "function"
    },
    {
      "inputs": [
        {
          "internalType": "bytes32",
          "name": "_idxHash",
          "type": "bytes32"
        }
      ],
      "name": "retrieveEscrowDataHeavy",
      "outputs": [
        {
          "internalType": "uint32",
          "name": "",
          "type": "uint32"
        },
        {
          "internalType": "uint32",
          "name": "",
          "type": "uint32"
        },
        {
          "internalType": "uint32",
          "name": "",
          "type": "uint32"
        },
        {
          "internalType": "address",
          "name": "",
          "type": "address"
        },
        {
          "internalType": "bytes32",
          "name": "",
          "type": "bytes32"
        },
        {
          "internalType": "bytes32",
          "name": "",
          "type": "bytes32"
        },
        {
          "internalType": "uint256",
          "name": "",
          "type": "uint256"
        },
        {
          "internalType": "uint256",
          "name": "",
          "type": "uint256"
        }
      ],
      "stateMutability": "view",
      "type": "function"
    }
  ],
  "bytecode": "0x608060405234801561001057600080fd5b5060016000908155610020610080565b600180546001600160a01b0319166001600160a01b038316908117909155604051919250906000907f8be0079c531659141344cd1fd0a4f28419497f9722a3daafe3b4186f6b6457e0908290a3506001805460ff60a01b19169055610084565b3390565b6126ba806100936000396000f3fe608060405234801561001057600080fd5b506004361061012c5760003560e01c8063c79b226e116100ad578063df7518d211610071578063df7518d2146104e2578063e6308c56146104ff578063e8b4165314610531578063e8e1152c14610539578063f2fde38b146105565761012c565b8063c79b226e146103a3578063ca4bc33e146103cf578063ccf0978414610441578063cf2b6f66146104b4578063d6b02ecf146104bc5761012c565b806375855a5b116100f457806375855a5b1461025f5780637a794aa9146102da5780638da5cb5b1461033c578063961e809b14610360578063a3b3fe50146103685761012c565b8063019b0f5f14610131578063150b7a0214610160578063440e7a7e1461020d5780635c975abb1461023b578063715018a614610257575b600080fd5b61014e6004803603602081101561014757600080fd5b503561057c565b60408051918252519081900360200190f35b6101f06004803603608081101561017657600080fd5b6001600160a01b038235811692602081013590911691604082013591908101906080810160608201356401000000008111156101b157600080fd5b8201836020820111156101c357600080fd5b803590602001918460018302840111640100000000831117156101e557600080fd5b509092509050610594565b604080516001600160e01b03199092168252519081900360200190f35b6102396004803603604081101561022357600080fd5b506001600160a01b0381351690602001356105a5565b005b6102436106dc565b604080519115158252519081900360200190f35b6102396106ec565b61027c6004803603602081101561027557600080fd5b503561078e565b6040805160ff998a16815297891660208901529588168787015293909616606086015261ffff91821660808601521660a084015263ffffffff90931660c08301526001600160a01b0390921660e08201529051908190036101000190f35b61023960048036036101208110156102f157600080fd5b5080359063ffffffff60208201358116916040810135821691606082013516906001600160a01b036080820135169060a08101359060c08101359060e081013590610100013561085d565b610344610ac3565b604080516001600160a01b039092168252519081900360200190f35b610239610ad2565b6103856004803603602081101561037e57600080fd5b5035610b34565b60408051938452602084019290925282820152519081900360600190f35b610239600480360360408110156103b957600080fd5b506001600160a01b038135169060200135610b80565b6103ec600480360360208110156103e557600080fd5b5035610c80565b6040805163ffffffff998a168152978916602089015295909716868601526001600160a01b039093166060860152608085019190915260a084015260c083015260e08201929092529051908190036101000190f35b610239600480360361012081101561045857600080fd5b5080359060ff60208201358116916040810135821691606082013581169160808101359091169061ffff60a082013581169160c08101359091169063ffffffff60e082013516906001600160a01b036101009091013516610d3c565b61023961109d565b610239600480360360208110156104d257600080fd5b50356001600160a01b03166110fd565b610239600480360360208110156104f857600080fd5b50356111bc565b6102396004803603608081101561051557600080fd5b5080359060ff6020820135169060408101359060600135611395565b61023961153b565b6102396004803603602081101561054f57600080fd5b5035611d68565b6102396004803603602081101561056c57600080fd5b50356001600160a01b0316611f4b565b6000818152601960205260409020600101545b919050565b630a85bd0160e11b95945050505050565b600260005414156105eb576040805162461bcd60e51b815260206004820152601f6024820152600080516020612529833981519152604482015290519081900360640190fd5b60026000556105f8610ac3565b6001600160a01b0316336001600160a01b0316148061062157506018546001600160a01b031633145b61065c5760405162461bcd60e51b815260040180806020018281038252602681526020018061265f6026913960400191505060405180910390fd5b60095460408051632142170760e11b81523060048201526001600160a01b038581166024830152604482018590529151849392909216916342842e0e9160648082019260009290919082900301818387803b1580156106ba57600080fd5b505af11580156106ce573d6000803e3d6000fd5b505060016000555050505050565b600154600160a01b900460ff1690565b6106f4612044565b6001546001600160a01b03908116911614610744576040805162461bcd60e51b8152602060048201819052602482015260008051602061263f833981519152604482015290519081900360640190fd5b6001546040516000916001600160a01b0316907f8be0079c531659141344cd1fd0a4f28419497f9722a3daafe3b4186f6b6457e0908390a3600180546001600160a01b0319169055565b6000806000806000806000806107a26123fa565b50505060009687525050601a602090815260409586902086516101008082018952915460ff808216808452938204811694830185905262010000820481169983018a9052630100000082041660608301819052640100000000820461ffff908116608085018190526601000000000000840490911660a08501819052600160401b840463ffffffff1660c08601819052600160601b9094046001600160a01b031660e0909501859052949b959a995090975095509193509091565b600260005414156108a3576040805162461bcd60e51b815260206004820152601f6024820152600080516020612529833981519152604482015290519081900360640190fd5b6002600055600154600160a01b900460ff16156108fa576040805162461bcd60e51b815260206004820152601060248201526f14185d5cd8589b194e881c185d5cd95960821b604482015290519081900360640190fd5b61090261243e565b61090b8a612048565b905061091561248a565b6109233383602001516121ca565b90506109328260000151612275565b60ff1660aa146109735760405162461bcd60e51b81526004018080602001828103825260228152602001806125076022913960400191505060405180910390fd5b60008b81526019602090815260409091205490820151146109c55760405162461bcd60e51b81526004018080602001828103825260458152602001806124c26045913960600191505060405180910390fd5b6109cd6123fa565b63ffffffff9a8b168152988a166020808b01918252988b166040808c019182526001600160a01b03998a1660608d0190815260808d01998a5260a08d0198895260c08d0197885260e08d0196875260009e8f52601b909b528d209a518b54925191519a5163ffffffff19909316908d161767ffffffff000000001916640100000000918d1691909102176bffffffff00000000000000001916600160401b99909b1698909802999099176bffffffffffffffffffffffff16600160601b97909616969096029490941786559151600180870191909155905160028601559051600385015590516004909301929092555090915550565b6001546001600160a01b031690565b610ada612044565b6001546001600160a01b03908116911614610b2a576040805162461bcd60e51b8152602060048201819052602482015260008051602061263f833981519152604482015290519081900360640190fd5b610b326122c4565b565b6000806000610b416124a1565b50505060009182525060196020908152604091829020825160608101845281548082526001830154938201849052600290920154930183905292909190565b610b88612044565b6001546001600160a01b03908116911614610bd8576040805162461bcd60e51b8152602060048201819052602482015260008051602061263f833981519152604482015290519081900360640190fd5b60026000541415610c1e576040805162461bcd60e51b815260206004820152601f6024820152600080516020612529833981519152604482015290519081900360640190fd5b60026000908155600b5460408051632142170760e11b81523060048201526001600160a01b038681166024830152604482018690529151859492909316926342842e0e9260648084019391929182900301818387803b1580156106ba57600080fd5b600080600080600080600080610c946123fa565b50505060009687525050601b6020908152604095869020865161010081018852815463ffffffff80821680845264010000000083048216958401869052600160401b83049091169983018a9052600160601b9091046001600160a01b031660608301819052600184015460808401819052600285015460a08501819052600386015460c0860181905260049096015460e0909501859052929b959a9950909750955093509091565b60026000541415610d82576040805162461bcd60e51b815260206004820152601f6024820152600080516020612529833981519152604482015290519081900360640190fd5b6002600055600154600160a01b900460ff1615610dd9576040805162461bcd60e51b815260206004820152601060248201526f14185d5cd8589b194e881c185d5cd95960821b604482015290519081900360640190fd5b610de161243e565b610dea8a612048565b9050610df461248a565b610e023383602001516121ca565b9050610e118260000151612275565b60ff1660aa14610e525760405162461bcd60e51b81526004018080602001828103825260228152602001806125076022913960400191505060405180910390fd5b60008b8152601960209081526040909120549082015114610ea45760405162461bcd60e51b81526004018080602001828103825260458152602001806124c26045913960600191505060405180910390fd5b610eac6123fa565b8a816000019060ff16908160ff168152505089816020019060ff16908160ff168152505088816040019060ff16908160ff168152505087816060019060ff16908160ff168152505086816080019061ffff16908161ffff1681525050858160a0019061ffff16908161ffff1681525050848160c0019063ffffffff16908163ffffffff1681525050838160e001906001600160a01b031690816001600160a01b03168152505080601a60008e815260200190815260200160002060008201518160000160006101000a81548160ff021916908360ff16021790555060208201518160000160016101000a81548160ff021916908360ff16021790555060408201518160000160026101000a81548160ff021916908360ff16021790555060608201518160000160036101000a81548160ff021916908360ff16021790555060808201518160000160046101000a81548161ffff021916908361ffff16021790555060a08201518160000160066101000a81548161ffff021916908361ffff16021790555060c08201518160000160086101000a81548163ffffffff021916908363ffffffff16021790555060e082015181600001600c6101000a8154816001600160a01b0302191690836001600160a01b031602179055509050505050506001600081905550505050505050505050565b6110a5612044565b6001546001600160a01b039081169116146110f5576040805162461bcd60e51b8152602060048201819052602482015260008051602061263f833981519152604482015290519081900360640190fd5b610b3261236c565b611105612044565b6001546001600160a01b03908116911614611155576040805162461bcd60e51b8152602060048201819052602482015260008051602061263f833981519152604482015290519081900360640190fd5b6001600160a01b03811661119a5760405162461bcd60e51b81526004018080602001828103825260258152602001806125a16025913960400191505060405180910390fd5b600380546001600160a01b0319166001600160a01b0392909216919091179055565b60026000541415611202576040805162461bcd60e51b815260206004820152601f6024820152600080516020612529833981519152604482015290519081900360640190fd5b6002600055600154600160a01b900460ff1615611259576040805162461bcd60e51b815260206004820152601060248201526f14185d5cd8589b194e881c185d5cd95960821b604482015290519081900360640190fd5b60008181526019602052604090206002015442116112be576040805162461bcd60e51b815260206004820152601960248201527f454d3a5045453a457363726f77206e6f74206578706972656400000000000000604482015290519081900360640190fd5b6000818152601a602052604090205460c860ff909116106113105760405162461bcd60e51b81526004018080602001828103825260328152602001806125496032913960400191505060405180910390fd5b600081815260196020526040808220828155600181018390556002018290556003548151633a38454b60e21b81526004810185905291516001600160a01b039091169263e8e1152c926024808201939182900301818387803b15801561137557600080fd5b505af1158015611389573d6000803e3d6000fd5b50506001600055505050565b600260005414156113db576040805162461bcd60e51b815260206004820152601f6024820152600080516020612529833981519152604482015290519081900360640190fd5b6002600055600154600160a01b900460ff1615611432576040805162461bcd60e51b815260206004820152601060248201526f14185d5cd8589b194e881c185d5cd95960821b604482015290519081900360640190fd5b61143a61243e565b61144385612048565b905061144d61248a565b61145b3383602001516121ca565b602081015181519192509060ff166003146114a75760405162461bcd60e51b815260040180806020018281038252603e8152602001806125c6603e913960400191505060405180910390fd5b6000878152601960205260408082208381556001810188905560020186905560035481516316bf0f2d60e21b8152600481018b905260ff8a16602482015291516001600160a01b0390911692635afc3cb4926044808201939182900301818387803b15801561151557600080fd5b505af1158015611529573d6000803e3d6000fd5b50506001600055505050505050505050565b60026000541415611581576040805162461bcd60e51b815260206004820152601f6024820152600080516020612529833981519152604482015290519081900360640190fd5b600260005561158e612044565b6001546001600160a01b039081169116146115de576040805162461bcd60e51b8152602060048201819052602482015260008051602061263f833981519152604482015290519081900360640190fd5b600354604080516363b8d4c160e11b8152602060048201819052600660248301526520a1afaa25a760d11b604483015291516001600160a01b039093169263c771a98292606480840193919291829003018186803b15801561163f57600080fd5b505afa158015611653573d6000803e3d6000fd5b505050506040513d602081101561166957600080fd5b5051600a80546001600160a01b039283166001600160a01b03199182161791829055600b8054909116918316919091179055600354604080516363b8d4c160e11b8152602060048201819052600660248301526520a1afa6a3a960d11b60448301529151929093169263c771a9829260648083019392829003018186803b1580156116f357600080fd5b505afa158015611707573d6000803e3d6000fd5b505050506040513d602081101561171d57600080fd5b5051600480546001600160a01b039283166001600160a01b03199182161780835560058054909216908416179055600354604080516363b8d4c160e11b8152602093810184905260086024820152672aaa24a62faa25a760c11b60448201529051919093169263c771a982926064808301939192829003018186803b1580156117a557600080fd5b505afa1580156117b9573d6000803e3d6000fd5b505050506040513d60208110156117cf57600080fd5b5051600680546001600160a01b039283166001600160a01b0319918216179182905560078054909116918316919091179055600354604080516363b8d4c160e11b8152602060048201819052600560248301526420afaa25a760d91b60448301529151929093169263c771a9829260648083019392829003018186803b15801561185857600080fd5b505afa15801561186c573d6000803e3d6000fd5b505050506040513d602081101561188257600080fd5b5051600880546001600160a01b039283166001600160a01b0319918216179182905560098054909116918316919091179055600354604080516363b8d4c160e11b8152602060048201819052600660248301526524a22faa25a760d11b60448301529151929093169263c771a9829260648083019392829003018186803b15801561190c57600080fd5b505afa158015611920573d6000803e3d6000fd5b505050506040513d602081101561193657600080fd5b5051600c80546001600160a01b039283166001600160a01b03199182161791829055600d8054909116918316919091179055600354604080516363b8d4c160e11b8152602060048201819052600760248301526622a1a92fa6a3a960c91b60448301529151929093169263c771a9829260648083019392829003018186803b1580156119c157600080fd5b505afa1580156119d5573d6000803e3d6000fd5b505050506040513d60208110156119eb57600080fd5b5051600e80546001600160a01b039283166001600160a01b03199182161791829055600f805490911691831691909117905560038054604080516363b8d4c160e11b815260206004820181905260248201949094526204150560ec1b60448201529051919093169263c771a982926064808301939192829003018186803b158015611a7557600080fd5b505afa158015611a89573d6000803e3d6000fd5b505050506040513d6020811015611a9f57600080fd5b5051601280546001600160a01b039283166001600160a01b0319918216179182905560138054909116918316919091179055600354604080516363b8d4c160e11b8152602060048083018290526024830152632921a62960e11b60448301529151929093169263c771a9829260648083019392829003018186803b158015611b2657600080fd5b505afa158015611b3a573d6000803e3d6000fd5b505050506040513d6020811015611b5057600080fd5b5051601080546001600160a01b039283166001600160a01b0319918216179182905560118054909116918316919091179055600354604080516363b8d4c160e11b815260206004820181905260066024830152654150505f4e4360d01b60448301529151929093169263c771a9829260648083019392829003018186803b158015611bda57600080fd5b505afa158015611bee573d6000803e3d6000fd5b505050506040513d6020811015611c0457600080fd5b5051601480546001600160a01b0319166001600160a01b03928316179055600354604080516363b8d4c160e11b8152602060048201819052600260248301526104e560f41b60448301529151929093169263c771a9829260648083019392829003018186803b158015611c7657600080fd5b505afa158015611c8a573d6000803e3d6000fd5b505050506040513d6020811015611ca057600080fd5b5051601880546001600160a01b0319166001600160a01b03928316179055600354604080516363b8d4c160e11b8152602060048201819052600660248301526553484152455360d01b60448301529151929093169263c771a9829260648083019392829003018186803b158015611d1657600080fd5b505afa158015611d2a573d6000803e3d6000fd5b505050506040513d6020811015611d4057600080fd5b5051601680546001600160a01b0319166001600160a01b039092169190911790556001600055565b60026000541415611dae576040805162461bcd60e51b815260206004820152601f6024820152600080516020612529833981519152604482015290519081900360640190fd5b6002600055600154600160a01b900460ff1615611e05576040805162461bcd60e51b815260206004820152601060248201526f14185d5cd8589b194e881c185d5cd95960821b604482015290519081900360640190fd5b611e0d61243e565b611e1682612048565b9050611e2061248a565b611e2e3383602001516121ca565b9050611e3d8260000151612275565b60ff1660aa14611e94576040805162461bcd60e51b815260206004820181905260248201527f454d3a45453a4173736574206e6f7420696e20657363726f7720737461747573604482015290519081900360640190fd5b6000838152601960209081526040909120549082015114611ee65760405162461bcd60e51b815260040180806020018281038252603b815260200180612604603b913960400191505060405180910390fd5b600083815260196020526040808220828155600181018390556002018290556003548151633a38454b60e21b81526004810187905291516001600160a01b039091169263e8e1152c926024808201939182900301818387803b1580156106ba57600080fd5b611f53612044565b6001546001600160a01b03908116911614611fa3576040805162461bcd60e51b8152602060048201819052602482015260008051602061263f833981519152604482015290519081900360640190fd5b6001600160a01b038116611fe85760405162461bcd60e51b815260040180806020018281038252602681526020018061257b6026913960400191505060405180910390fd5b6001546040516001600160a01b038084169216907f8be0079c531659141344cd1fd0a4f28419497f9722a3daafe3b4186f6b6457e090600090a3600180546001600160a01b0319166001600160a01b0392909216919091179055565b3390565b61205061243e565b61205861243e565b6000806000806000806000600360009054906101000a90046001600160a01b03166001600160a01b031663e248f2c48b6040518263ffffffff1660e01b81526004018082815260200191505060e06040518083038186803b1580156120bc57600080fd5b505afa1580156120d0573d6000803e3d6000fd5b505050506040513d60e08110156120e657600080fd5b81019080805190602001909291908051906020019092919080519060200190929190805190602001909291908051906020019092919080519060200190929190805190602001909291905050509650965096509650965096509650868860c001818152505085886000019060ff16908160ff168152505084886020019063ffffffff16908163ffffffff168152505083886040019063ffffffff16908163ffffffff168152505082886060019063ffffffff16908163ffffffff1681525050818860e001818152505080886101000181815250505050505050505080915050919050565b6121d261248a565b6121da61248a565b60035460408051636fcfb49b60e11b81526001600160a01b03878116600483015263ffffffff87166024830152825193169263df9f693692604480840193919291829003018186803b15801561222f57600080fd5b505afa158015612243573d6000803e3d6000fd5b505050506040513d604081101561225957600080fd5b5080516020918201519183019190915260ff1681529392505050565b60008160ff1660061415801561228f57508160ff16603214155b801561229f57508160ff16603814155b80156122af57508160ff16603c14155b156122bc5750600061058f565b5060aa61058f565b600154600160a01b900460ff16612319576040805162461bcd60e51b815260206004820152601460248201527314185d5cd8589b194e881b9bdd081c185d5cd95960621b604482015290519081900360640190fd5b6001805460ff60a01b191690557f5db9ee0a495bf2e6ff9c91a7834c1ba4fdd244a5e8aa4e537bd38aeae4b073aa61234f612044565b604080516001600160a01b039092168252519081900360200190a1565b600154600160a01b900460ff16156123be576040805162461bcd60e51b815260206004820152601060248201526f14185d5cd8589b194e881c185d5cd95960821b604482015290519081900360640190fd5b6001805460ff60a01b1916600160a01b1790557f62e78cea01bee320cd4e420270b5ea74000d11b0c9f74754ebdbfc544b05a25861234f612044565b6040805161010081018252600080825260208201819052918101829052606081018290526080810182905260a0810182905260c0810182905260e081019190915290565b6040805161012081018252600080825260208201819052918101829052606081018290526080810182905260a0810182905260c0810182905260e0810182905261010081019190915290565b604080518082019091526000808252602082015290565b60408051606081018252600080825260208201819052918101919091529056fe454d3a5345444c3a4f6e6c7920636f6e747261637420776974682073616d65206e616d65206173207365747465722063616e206d6f6469667920657363726f772064617461454d3a5345444c3a4173736574206e6f7420696e20657363726f77207374617475735265656e7472616e637947756172643a207265656e7472616e742063616c6c00454d3a5045453a457363726f77206e6f7420656e6461626c652077697468207065726d697373697665456e64457363726f774f776e61626c653a206e6577206f776e657220697320746865207a65726f2061646472657373423a5353433a2073746f7261676520616464726573732063616e6e6f74206265207a65726f454d3a53453a20457363726f772063616e206f6e6c792062652073657420627920616e20617574686f72697a656420657363726f7720636f6e7472616374454d3a45453a4f6e6c7920636f6e747261637420776974682073616d65206e616d65206173207365747465722063616e20656e6420657363726f774f776e61626c653a2063616c6c6572206973206e6f7420746865206f776e6572423a54583a496e76616c69642063616c6c657220666f72207472616e7366657220746f6b656ea26469706673582212209ab9daa7110cffb20c0c03b0d0e69725ebd35fb694f1f233c9019e32ef49cd2d64736f6c634300060c0033",
  "immutableReferences": {},
  "source": "/*-----------------------------------------------------------V0.7.0\n__/\\\\\\\\\\\\\\\\\\\\\\\\\\ _____/\\\\\\\\\\\\\\\\\\ _______/\\\\../\\\\ ___/\\\\\\\\\\\\\\\\\\\\\\\\\\\\\\\n _\\/\\\\\\/////////\\\\\\ _/\\\\\\///////\\\\\\ ____\\//..\\//____\\/\\\\\\///////////__\n  _\\/\\\\\\.......\\/\\\\\\.\\/\\\\\\.....\\/\\\\\\ ________________\\/\\\\\\ ____________\n   _\\/\\\\\\\\\\\\\\\\\\\\\\\\\\/__\\/\\\\\\\\\\\\\\\\\\\\\\/_____/\\\\\\____/\\\\\\.\\/\\\\\\\\\\\\\\\\\\\\\\ ____\n    _\\/\\\\\\/////////____\\/\\\\\\//////\\\\\\ ___\\/\\\\\\___\\/\\\\\\.\\/\\\\\\///////______\n     _\\/\\\\\\ ____________\\/\\\\\\ ___\\//\\\\\\ __\\/\\\\\\___\\/\\\\\\.\\/\\\\\\ ____________\n      _\\/\\\\\\ ____________\\/\\\\\\ ____\\//\\\\\\ _\\/\\\\\\___\\/\\\\\\.\\/\\\\\\ ____________\n       _\\/\\\\\\ ____________\\/\\\\\\ _____\\//\\\\\\.\\//\\\\\\\\\\\\\\\\\\ _\\/\\\\\\ ____________\n        _\\/// _____________\\/// _______\\/// __\\///////// __\\/// _____________\n         *-------------------------------------------------------------------*/\n\n/*-----------------------------------------------------------------\n *  TO DO\n *  break escrow down into smaller mappings\n *\n *-----------------------------------------------------------------\n */\n\n// SPDX-License-Identifier: UNLICENSED\npragma solidity ^0.6.7;\n\nimport \"./PRUF_BASIC.sol\";\nimport \"./Imports/math/Safemath.sol\";\n\ncontract ECR_MGR is BASIC {\n    using SafeMath for uint256;\n\n    struct escrowData { //3 slots\n        bytes32 controllingContractNameHash; //hash of the name of the controlling escrow contract\n        bytes32 escrowOwnerAddressHash; //hash of an address designated as an executor for the escrow contract\n        uint256 timelock;\n    }\n\n    struct escrowDataExtLight {  //1 slot\n        uint8 escrowData;\n        uint8 u8_1;\n        uint8 u8_2;\n        uint8 u8_3;\n        uint16 u16_1;\n        uint16 u16_2;\n        uint32 u32_1;\n        address addr_1;\n    }\n\n    struct escrowDataExtHeavy { // 5 slots\n        uint32  u32_2;\n        uint32  u32_3;\n        uint32  u32_4;\n        address addr_2;\n        bytes32 b32_1;\n        bytes32 b32_2;\n        uint256 u256_1;\n        uint256 u256_2;\n    }\n\n    mapping(bytes32 => escrowData) private escrows;\n    mapping(bytes32 => escrowDataExtLight) private EscrowDataLight;\n    mapping(bytes32 => escrowDataExtHeavy) private EscrowDataHeavy;\n\n    function isLostOrStolen(uint8 _assetStatus) private pure returns (uint8) {\n        if (\n            (_assetStatus != 3) &&\n            (_assetStatus != 4) &&\n            (_assetStatus != 53) &&\n            (_assetStatus != 54)\n        ) {\n            return 0;\n        } else {\n            return 170;\n        }\n    }\n\n    function isEscrow(uint8 _assetStatus) private pure returns (uint8) {\n        if (\n            (_assetStatus != 6) &&\n            (_assetStatus != 50) &&\n            (_assetStatus != 56) &&\n            (_assetStatus != 60)\n        ) {\n            return 0;\n        } else {\n            return 170;\n        }\n    }\n\n    /*\n     * @dev Set an asset to escrow status (6/50/56). Sets timelock for unix timestamp of escrow end.\n     */\n    function setEscrow(\n        bytes32 _idxHash,\n        uint8 _newAssetStatus,\n        bytes32 _escrowOwnerAddressHash,\n        uint256 _timelock\n    ) external nonReentrant whenNotPaused {\n        Record memory rec = getRecord(_idxHash);\n        ContractDataHash memory contractInfo = getContractInfo(\n            msg.sender,\n            rec.assetClass\n        );\n        bytes32 controllingContractNameHash = contractInfo.nameHash;\n\n        require(\n            contractInfo.contractType == 3,\n            \"EM:SE: Escrow can only be set by an authorized escrow contract\"\n        );\n        //^^^^^^^checks^^^^^^^^^\n        delete escrows[_idxHash];\n\n        escrows[_idxHash]\n            .controllingContractNameHash = controllingContractNameHash;\n        escrows[_idxHash].escrowOwnerAddressHash = _escrowOwnerAddressHash;\n        escrows[_idxHash].timelock = _timelock;\n        //^^^^^^^effects^^^^^^^^^\n\n        STOR.setEscrow(_idxHash, _newAssetStatus);\n        //^^^^^^^interactions^^^^^^^^^\n    }\n\n    /*\n     * @dev remove an asset from escrow status\n     */\n    function endEscrow(bytes32 _idxHash) external nonReentrant whenNotPaused {\n        Record memory rec = getRecord(_idxHash);\n        ContractDataHash memory contractInfo = getContractInfo(\n            msg.sender,\n            rec.assetClass\n        );\n\n        require(\n            isEscrow(rec.assetStatus) == 170,\n            \"EM:EE:Asset not in escrow status\"\n        );\n        require(\n            (contractInfo.nameHash ==\n                escrows[_idxHash].controllingContractNameHash),\n            \"EM:EE:Only contract with same name as setter can end escrow\"\n        );\n\n        //^^^^^^^checks^^^^^^^^^\n\n        delete escrows[_idxHash];\n        //^^^^^^^effects^^^^^^^^^\n\n        STOR.endEscrow(_idxHash);\n        //^^^^^^^interactions^^^^^^^^^\n    }\n\n    /*\n     * @dev Set data in EDL mapping\n     * Must be setter contract\n     * Must be in  escrow\n     */\n    function setEscrowDataLight(\n        bytes32 _idxHash,\n        uint8 _escrowData,\n        uint8 _u8_1,\n        uint8 _u8_2,\n        uint8 _u8_3,\n        uint16 _u16_1,\n        uint16 _u16_2,\n        uint32 _u32_1,\n        address _addr_1) \n        external nonReentrant whenNotPaused {\n\n        Record memory rec = getRecord(_idxHash);\n        ContractDataHash memory contractInfo = getContractInfo(\n            msg.sender,\n            rec.assetClass\n        );\n\n        require(\n            isEscrow(rec.assetStatus) == 170,\n            \"EM:SEDL:Asset not in escrow status\"\n        );\n        require(\n            (contractInfo.nameHash ==\n                escrows[_idxHash].controllingContractNameHash),\n            \"EM:SEDL:Only contract with same name as setter can modify escrow data\"\n        );\n        //^^^^^^^checks^^^^^^^^^\n\n        escrowDataExtLight memory escrowDataLight;\n\n        escrowDataLight.escrowData = _escrowData;\n        escrowDataLight.u8_1 = _u8_1;\n        escrowDataLight.u8_2 = _u8_2;\n        escrowDataLight.u8_3 = _u8_3;\n        escrowDataLight.u16_1 = _u16_1;\n        escrowDataLight.u16_2 = _u16_2;\n        escrowDataLight.u32_1 = _u32_1;\n        escrowDataLight.addr_1 = _addr_1;\n\n        EscrowDataLight[_idxHash] = escrowDataLight; //set in EDL map\n        //^^^^^^^effects^^^^^^^^^\n    }\n\n\n    /*\n     * @dev Set data in EDL mapping\n     * Must be setter contract\n     * Must be in  escrow\n     */\n    function setEscrowDataHeavy(\n        bytes32 _idxHash,\n        uint32 _u32_2,\n        uint32 _u32_3,\n        uint32 _u32_4,\n        address _addr_2,\n        bytes32 _b32_1,\n        bytes32 _b32_2,\n        uint256 _u256_1,\n        uint256 _u256_2) \n        external nonReentrant whenNotPaused {\n\n        Record memory rec = getRecord(_idxHash);\n        ContractDataHash memory contractInfo = getContractInfo(\n            msg.sender,\n            rec.assetClass\n        );\n\n        require(\n            isEscrow(rec.assetStatus) == 170,\n            \"EM:SEDL:Asset not in escrow status\"\n        );\n        require(\n            (contractInfo.nameHash ==\n                escrows[_idxHash].controllingContractNameHash),\n            \"EM:SEDL:Only contract with same name as setter can modify escrow data\"\n        );\n        //^^^^^^^checks^^^^^^^^^\n\n        escrowDataExtHeavy memory escrowDataHeavy;\n            escrowDataHeavy.u32_2 = _u32_2;\n            escrowDataHeavy.u32_3 = _u32_3;\n            escrowDataHeavy.u32_4 = _u32_4;\n            escrowDataHeavy.addr_2 = _addr_2;\n            escrowDataHeavy.b32_1 = _b32_1;\n            escrowDataHeavy.b32_2 = _b32_2;\n            escrowDataHeavy.u256_1 = _u256_1;\n            escrowDataHeavy.u256_2 = _u256_2;\n\n        EscrowDataHeavy[_idxHash] = escrowDataHeavy; //set in EDL map\n        //^^^^^^^effects^^^^^^^^^\n    }\n\n\n\n    /*\n     * @dev Permissive removal of asset from escrow status after time-out\n     */\n    function permissiveEndEscrow(bytes32 _idxHash)\n        external\n        nonReentrant\n        whenNotPaused\n    {\n        require(\n            escrows[_idxHash].timelock < block.timestamp,\n            \"EM:PEE:Escrow not expired\"\n        );\n        require( // do not allow escrows with escrow.data > 199 to be ended by this function     //STATE UNREACHABLE CTS:PREFERRED\n            EscrowDataLight[_idxHash].escrowData < 200,\n            \"EM:PEE:Escrow not endable with permissiveEndEscrow\"\n        );\n        //^^^^^^^checks^^^^^^^^^\n\n        delete escrows[_idxHash];\n        //^^^^^^^effects^^^^^^^^^\n\n        STOR.endEscrow(_idxHash);\n        //^^^^^^^interactions^^^^^^^^^\n    }\n\n    /*\n     * @dev return escrow OwnerHash\n     */\n    function retrieveEscrowOwner(bytes32 _idxHash)\n        external\n        view\n        returns (bytes32)\n    {\n        return escrows[_idxHash].escrowOwnerAddressHash;\n        //^^^^^^^checks/interactions^^^^^^^^^\n    }\n\n    /*\n     * @dev return escrow data @ IDX\n     */\n    function retrieveEscrowData(bytes32 _idxHash)\n        external\n        view\n        returns (\n            bytes32,\n            bytes32,\n            uint256\n        )\n    {\n        escrowData memory escrow = escrows[_idxHash];\n        return (\n            escrow.controllingContractNameHash,\n            escrow.escrowOwnerAddressHash,\n            escrow.timelock\n        );\n        //^^^^^^^checks/interactions^^^^^^^^^\n    }\n\n    /*\n     * @dev return EscrowDataLight @ IDX\n     */\n    function retrieveEscrowDataLight(bytes32 _idxHash)\n        external\n        view\n        returns (\n            uint8,\n            uint8,\n            uint8,\n            uint8,\n            uint16,\n            uint16,\n            uint32,\n            address\n            )\n    {\n        escrowDataExtLight memory escrowDataLight = EscrowDataLight[_idxHash];\n\n        return (\n            escrowDataLight.escrowData,\n            escrowDataLight.u8_1,\n            escrowDataLight.u8_2,\n            escrowDataLight.u8_3,\n            escrowDataLight.u16_1,\n            escrowDataLight.u16_2,\n            escrowDataLight.u32_1,\n            escrowDataLight.addr_1\n        );\n        //^^^^^^^checks/interactions^^^^^^^^^\n    }\n\n    /*\n     * @dev return EscrowDataHeavy @ IDX\n     */\n    function retrieveEscrowDataHeavy(bytes32 _idxHash)\n        external\n        view\n        returns (\n            uint32,\n            uint32,\n            uint32,\n            address,\n            bytes32,\n            bytes32,\n            uint256,\n            uint256\n            )\n    {\n        escrowDataExtHeavy memory escrowDataHeavy = EscrowDataHeavy[_idxHash];\n        return (\n            escrowDataHeavy.u32_2,\n            escrowDataHeavy.u32_3,\n            escrowDataHeavy.u32_4,\n            escrowDataHeavy.addr_2,\n            escrowDataHeavy.b32_1,\n            escrowDataHeavy.b32_2,\n            escrowDataHeavy.u256_1,\n            escrowDataHeavy.u256_2\n        );\n        //^^^^^^^checks/interactions^^^^^^^^^\n    }\n}\n",
  "sourcePath": "/Users/cts/dev/PRUF/PRUF_TRUFFLE/contracts/PRUF_ECR_MGR.sol",
  "compiler": {
    "name": "solc",
    "version": "0.6.12+commit.27d51765.Emscripten.clang"
  },
  "schemaVersion": "3.2.3",
  "updatedAt": "2020-09-22T21:30:52.675Z",
  "devdoc": {
    "kind": "dev",
    "methods": {
      "OO_pause()": {
        "details": "Triggers stopped state. (pausable)"
      },
      "OO_unpause()": {
        "details": "Returns to normal state. (pausable)"
      },
      "owner()": {
        "details": "Returns the address of the current owner."
      },
      "paused()": {
        "details": "Returns true if the contract is paused, and false otherwise."
      },
      "renounceOwnership()": {
        "details": "Leaves the contract without owner. It will not be possible to call `onlyOwner` functions anymore. Can only be called by the current owner. NOTE: Renouncing ownership will leave the contract without an owner, thereby removing any functionality that is only available to the owner."
      },
      "transferOwnership(address)": {
        "details": "Transfers ownership of the contract to a new account (`newOwner`). Can only be called by the current owner."
      }
    },
    "version": 1
  },
  "userdoc": {
    "kind": "user",
    "methods": {},
    "version": 1
  }
}