{
  "contractName": "ECR_NC",
  "abi": [
    {
      "anonymous": false,
      "inputs": [
        {
          "indexed": true,
          "internalType": "address",
          "name": "previousOwner",
          "type": "address"
        },
        {
          "indexed": true,
          "internalType": "address",
          "name": "newOwner",
          "type": "address"
        }
      ],
      "name": "OwnershipTransferred",
      "type": "event"
    },
    {
      "anonymous": false,
      "inputs": [
        {
          "indexed": false,
          "internalType": "address",
          "name": "account",
          "type": "address"
        }
      ],
      "name": "Paused",
      "type": "event"
    },
    {
      "anonymous": false,
      "inputs": [
        {
          "indexed": false,
          "internalType": "string",
          "name": "_msg",
          "type": "string"
        }
      ],
      "name": "REPORT",
      "type": "event"
    },
    {
      "anonymous": false,
      "inputs": [
        {
          "indexed": false,
          "internalType": "address",
          "name": "account",
          "type": "address"
        }
      ],
      "name": "Unpaused",
      "type": "event"
    },
    {
      "inputs": [],
      "name": "OO_ResolveContractAddresses",
      "outputs": [],
      "stateMutability": "nonpayable",
      "type": "function"
    },
    {
      "inputs": [],
      "name": "OO_pause",
      "outputs": [],
      "stateMutability": "nonpayable",
      "type": "function"
    },
    {
      "inputs": [
        {
          "internalType": "address",
          "name": "_storageAddress",
          "type": "address"
        }
      ],
      "name": "OO_setStorageContract",
      "outputs": [],
      "stateMutability": "nonpayable",
      "type": "function"
    },
    {
      "inputs": [
        {
          "internalType": "address",
          "name": "_to",
          "type": "address"
        },
        {
          "internalType": "bytes32",
          "name": "_idxHash",
          "type": "bytes32"
        }
      ],
      "name": "OO_transferACToken",
      "outputs": [],
      "stateMutability": "nonpayable",
      "type": "function"
    },
    {
      "inputs": [],
      "name": "OO_unpause",
      "outputs": [],
      "stateMutability": "nonpayable",
      "type": "function"
    },
    {
      "inputs": [
        {
          "internalType": "address",
          "name": "",
          "type": "address"
        },
        {
          "internalType": "address",
          "name": "",
          "type": "address"
        },
        {
          "internalType": "uint256",
          "name": "",
          "type": "uint256"
        },
        {
          "internalType": "bytes",
          "name": "",
          "type": "bytes"
        }
      ],
      "name": "onERC721Received",
      "outputs": [
        {
          "internalType": "bytes4",
          "name": "",
          "type": "bytes4"
        }
      ],
      "stateMutability": "nonpayable",
      "type": "function"
    },
    {
      "inputs": [],
      "name": "owner",
      "outputs": [
        {
          "internalType": "address",
          "name": "",
          "type": "address"
        }
      ],
      "stateMutability": "view",
      "type": "function"
    },
    {
      "inputs": [],
      "name": "paused",
      "outputs": [
        {
          "internalType": "bool",
          "name": "",
          "type": "bool"
        }
      ],
      "stateMutability": "view",
      "type": "function"
    },
    {
      "inputs": [],
      "name": "renounceOwnership",
      "outputs": [],
      "stateMutability": "nonpayable",
      "type": "function"
    },
    {
      "inputs": [
        {
          "internalType": "address",
          "name": "_to",
          "type": "address"
        },
        {
          "internalType": "bytes32",
          "name": "_idxHash",
          "type": "bytes32"
        }
      ],
      "name": "transferAssetToken",
      "outputs": [],
      "stateMutability": "nonpayable",
      "type": "function"
    },
    {
      "inputs": [
        {
          "internalType": "address",
          "name": "newOwner",
          "type": "address"
        }
      ],
      "name": "transferOwnership",
      "outputs": [],
      "stateMutability": "nonpayable",
      "type": "function"
    },
    {
      "inputs": [
        {
          "internalType": "bytes32",
          "name": "_idxHash",
          "type": "bytes32"
        },
        {
          "internalType": "bytes32",
          "name": "_escrowOwnerHash",
          "type": "bytes32"
        },
        {
          "internalType": "uint256",
          "name": "_escrowTime",
          "type": "uint256"
        },
        {
          "internalType": "uint8",
          "name": "_escrowStatus",
          "type": "uint8"
        }
      ],
      "name": "setEscrow",
      "outputs": [],
      "stateMutability": "nonpayable",
      "type": "function"
    },
    {
      "inputs": [
        {
          "internalType": "bytes32",
          "name": "_idxHash",
          "type": "bytes32"
        }
      ],
      "name": "endEscrow",
      "outputs": [],
      "stateMutability": "nonpayable",
      "type": "function"
    }
  ],
  "bytecode": "0x608060405234801561001057600080fd5b50600160009081556100296001600160e01b0361008916565b600180546001600160a01b0319166001600160a01b038316908117909155604051919250906000907f8be0079c531659141344cd1fd0a4f28419497f9722a3daafe3b4186f6b6457e0908290a3506001805460ff60a01b1916905561008d565b3390565b611e308061009c6000396000f3fe608060405234801561001057600080fd5b50600436106100cf5760003560e01c8063961e809b1161008c578063cf2b6f6611610066578063cf2b6f6614610265578063d6b02ecf1461026d578063e8e1152c14610293578063f2fde38b146102b0576100cf565b8063961e809b146101ff578063b29c395914610207578063c79b226e14610239576100cf565b8063150b7a02146100d4578063440e7a7e146101815780634b9f23a4146101af5780635c975abb146101b7578063715018a6146101d35780638da5cb5b146101db575b600080fd5b610164600480360360808110156100ea57600080fd5b6001600160a01b0382358116926020810135909116916040820135919081019060808101606082013564010000000081111561012557600080fd5b82018360208201111561013757600080fd5b8035906020019184600183028401116401000000008311171561015957600080fd5b5090925090506102d6565b604080516001600160e01b03199092168252519081900360200190f35b6101ad6004803603604081101561019757600080fd5b506001600160a01b0381351690602001356102e7565b005b6101ad61041e565b6101bf610a52565b604080519115158252519081900360200190f35b6101ad610a62565b6101e3610b04565b604080516001600160a01b039092168252519081900360200190f35b6101ad610b13565b6101ad6004803603608081101561021d57600080fd5b508035906020810135906040810135906060013560ff16610b75565b6101ad6004803603604081101561024f57600080fd5b506001600160a01b038135169060200135610fe3565b6101ad6110e3565b6101ad6004803603602081101561028357600080fd5b50356001600160a01b0316611143565b6101ad600480360360208110156102a957600080fd5b5035611202565b6101ad600480360360208110156102c657600080fd5b50356001600160a01b03166114db565b630a85bd0160e11b95945050505050565b6002600054141561032d576040805162461bcd60e51b815260206004820152601f6024820152600080516020611b74833981519152604482015290519081900360640190fd5b600260005561033a610b04565b6001600160a01b0316336001600160a01b0316148061036357506012546001600160a01b031633145b61039e5760405162461bcd60e51b8152600401808060200182810382526027815260200180611bdf6027913960400191505060405180910390fd5b60075460408051632142170760e11b81523060048201526001600160a01b038581166024830152604482018590529151849392909216916342842e0e9160648082019260009290919082900301818387803b1580156103fc57600080fd5b505af1158015610410573d6000803e3d6000fd5b505060016000555050505050565b60026000541415610464576040805162461bcd60e51b815260206004820152601f6024820152600080516020611b74833981519152604482015290519081900360640190fd5b60026000556104716115d4565b6001546001600160a01b039081169116146104c1576040805162461bcd60e51b81526020600482018190526024820152600080516020611c87833981519152604482015290519081900360640190fd5b600354604080516363b8d4c160e11b8152602060048201819052600660248301526520a1afaa25a760d11b604483015291516001600160a01b039093169263c771a982926064808401939192918290030181600087803b15801561052457600080fd5b505af1158015610538573d6000803e3d6000fd5b505050506040513d602081101561054e57600080fd5b5051600880546001600160a01b039283166001600160a01b0319918216179182905560098054909116918316919091179055600354604080516363b8d4c160e11b8152602060048201819052600660248301526520a1afa6a3a960d11b60448301529151929093169263c771a98292606480830193928290030181600087803b1580156105da57600080fd5b505af11580156105ee573d6000803e3d6000fd5b505050506040513d602081101561060457600080fd5b5051600480546001600160a01b039283166001600160a01b03199182161780835560058054909216908416178155600354604080516363b8d4c160e11b8152602094810185905260248101939093526420afaa25a760d91b60448401525193169263c771a982926064808401939192918290030181600087803b15801561068a57600080fd5b505af115801561069e573d6000803e3d6000fd5b505050506040513d60208110156106b457600080fd5b5051600680546001600160a01b039283166001600160a01b0319918216179182905560078054909116918316919091178155600354604080516363b8d4c160e11b815260206004820181905260248201949094526622a1a92fa6a3a960c91b60448201529051919093169263c771a9829260648083019391928290030181600087803b15801561074357600080fd5b505af1158015610757573d6000803e3d6000fd5b505050506040513d602081101561076d57600080fd5b5051600a80546001600160a01b039283166001600160a01b03199182161791829055600b805490911691831691909117905560038054604080516363b8d4c160e11b815260206004820181905260248201949094526204150560ec1b60448201529051919093169263c771a9829260648083019391928290030181600087803b1580156107f957600080fd5b505af115801561080d573d6000803e3d6000fd5b505050506040513d602081101561082357600080fd5b5051600e80546001600160a01b039283166001600160a01b03199182161791829055600f8054909116918316919091179055600354604080516363b8d4c160e11b8152602060048083018290526024830152632921a62960e11b60448301529151929093169263c771a98292606480830193928290030181600087803b1580156108ac57600080fd5b505af11580156108c0573d6000803e3d6000fd5b505050506040513d60208110156108d657600080fd5b5051600c80546001600160a01b039283166001600160a01b03199182161791829055600d8054909116918316919091179055600354604080516363b8d4c160e11b815260206004820181905260066024830152654150505f4e4360d01b60448301529151929093169263c771a98292606480830193928290030181600087803b15801561096257600080fd5b505af1158015610976573d6000803e3d6000fd5b505050506040513d602081101561098c57600080fd5b5051601180546001600160a01b0319166001600160a01b03928316179055600354604080516363b8d4c160e11b8152602060048201819052600260248301526104e560f41b60448301529151929093169263c771a98292606480830193928290030181600087803b158015610a0057600080fd5b505af1158015610a14573d6000803e3d6000fd5b505050506040513d6020811015610a2a57600080fd5b5051601280546001600160a01b0319166001600160a01b039092169190911790556001600055565b600154600160a01b900460ff1690565b610a6a6115d4565b6001546001600160a01b03908116911614610aba576040805162461bcd60e51b81526020600482018190526024820152600080516020611c87833981519152604482015290519081900360640190fd5b6001546040516000916001600160a01b0316907f8be0079c531659141344cd1fd0a4f28419497f9722a3daafe3b4186f6b6457e0908390a3600180546001600160a01b0319169055565b6001546001600160a01b031690565b610b1b6115d4565b6001546001600160a01b03908116911614610b6b576040805162461bcd60e51b81526020600482018190526024820152600080516020611c87833981519152604482015290519081900360640190fd5b610b736115d8565b565b60026000541415610bbb576040805162461bcd60e51b815260206004820152601f6024820152600080516020611b74833981519152604482015290519081900360640190fd5b6002600055600154600160a01b900460ff1615610c12576040805162461bcd60e51b815260206004820152601060248201526f14185d5cd8589b194e881c185d5cd95960821b604482015290519081900360640190fd5b600754604080516331a9108f60e11b81526004810187905290518692839233926001600160a01b0390921691636352211e916024808201926020929091908290030181600087803b158015610c6657600080fd5b505af1158015610c7a573d6000803e3d6000fd5b505050506040513d6020811015610c9057600080fd5b50516001600160a01b031614610cd75760405162461bcd60e51b8152600401808060200182810382526026815260200180611da46026913960400191505060405180910390fd5b610cdf611acc565b610ce887611680565b90506000610cfc428763ffffffff6117d916565b90506000610d08611b18565b610d1630856060015161183a565b805190915060ff16610d595760405162461bcd60e51b8152600401808060200182810382526035815260200180611ce26035913960400191505060405180910390fd5b6060840151610daf576040805162461bcd60e51b815260206004820152601960248201527f53453a205265636f726420646f6573206e6f7420657869737400000000000000604482015290519081900360640190fd5b6031846020015160ff1611610df55760405162461bcd60e51b815260040180806020018281038252603b815260200180611ca7603b913960400191505060405180910390fd5b42831015610e345760405162461bcd60e51b8152600401808060200182810382526031815260200180611dca6031913960400191505060405180910390fd5b836020015160ff16600314158015610e545750836020015160ff16600414155b8015610e685750836020015160ff16603514155b8015610e7c5750836020015160ff16603614155b8015610e905750836020015160ff16600514155b8015610ea45750836020015160ff16603714155b610edf5760405162461bcd60e51b8152600401808060200182810382526043815260200180611c066043913960600191505060405180910390fd5b8660ff1660321480610ef457508660ff166038145b610f2f5760405162461bcd60e51b815260040180806020018281038252602d815260200180611d77602d913960400191505060405180910390fd5b600b5460408051633cbf00a160e21b8152600481018d905260ff8a166024820152600060448201819052606482018d90526084820187905260a4820181905260c4820181905260e48201819052610104820181905291518a95506001600160a01b039093169263f2fc0284926101248084019391929182900301818387803b158015610fba57600080fd5b505af1158015610fce573d6000803e3d6000fd5b50506001600055505050505050505050505050565b610feb6115d4565b6001546001600160a01b0390811691161461103b576040805162461bcd60e51b81526020600482018190526024820152600080516020611c87833981519152604482015290519081900360640190fd5b60026000541415611081576040805162461bcd60e51b815260206004820152601f6024820152600080516020611b74833981519152604482015290519081900360640190fd5b6002600090815560095460408051632142170760e11b81523060048201526001600160a01b038681166024830152604482018690529151859492909316926342842e0e9260648084019391929182900301818387803b1580156103fc57600080fd5b6110eb6115d4565b6001546001600160a01b0390811691161461113b576040805162461bcd60e51b81526020600482018190526024820152600080516020611c87833981519152604482015290519081900360640190fd5b610b736118e2565b61114b6115d4565b6001546001600160a01b0390811691161461119b576040805162461bcd60e51b81526020600482018190526024820152600080516020611c87833981519152604482015290519081900360640190fd5b6001600160a01b0381166111e05760405162461bcd60e51b8152600401808060200182810382526025815260200180611bba6025913960400191505060405180910390fd5b600380546001600160a01b0319166001600160a01b0392909216919091179055565b60026000541415611248576040805162461bcd60e51b815260206004820152601f6024820152600080516020611b74833981519152604482015290519081900360640190fd5b60026000908155600b546040805163019b0f5f60e01b81526004810185905290516001600160a01b039092169163019b0f5f9160248082019260209290919082900301818787803b15801561129c57600080fd5b505af11580156112b0573d6000803e3d6000fd5b505050506040513d60208110156112c657600080fd5b505190506112d2611acc565b6112db83611680565b90506112e5611b2f565b6112ee84611970565b90506112f8611b18565b61130630846060015161183a565b805190915060ff166113495760405162461bcd60e51b8152600401808060200182810382526035815260200180611d426035913960400191505060405180910390fd5b606083015161139f576040805162461bcd60e51b815260206004820152601d60248201527f454e433a45453a205265636f726420646f6573206e6f74206578697374000000604482015290519081900360640190fd5b826020015160ff16603214806113bc5750826020015160ff166038145b6113f75760405162461bcd60e51b815260040180806020018281038252602b815260200180611d17602b913960400191505060405180910390fd5b428260600151108061142f5750604080513360601b602080830191909152825180830360140181526034909201909252805191012084145b61146a5760405162461bcd60e51b815260040180806020018281038252603e815260200180611c49603e913960400191505060405180910390fd5b600b5460408051633a38454b60e21b81526004810188905290516001600160a01b039092169163e8e1152c9160248082019260009290919082900301818387803b1580156114b757600080fd5b505af11580156114cb573d6000803e3d6000fd5b5050600160005550505050505050565b6114e36115d4565b6001546001600160a01b03908116911614611533576040805162461bcd60e51b81526020600482018190526024820152600080516020611c87833981519152604482015290519081900360640190fd5b6001600160a01b0381166115785760405162461bcd60e51b8152600401808060200182810382526026815260200180611b946026913960400191505060405180910390fd5b6001546040516001600160a01b038084169216907f8be0079c531659141344cd1fd0a4f28419497f9722a3daafe3b4186f6b6457e090600090a3600180546001600160a01b0319166001600160a01b0392909216919091179055565b3390565b600154600160a01b900460ff1661162d576040805162461bcd60e51b815260206004820152601460248201527314185d5cd8589b194e881b9bdd081c185d5cd95960621b604482015290519081900360640190fd5b6001805460ff60a01b191690557f5db9ee0a495bf2e6ff9c91a7834c1ba4fdd244a5e8aa4e537bd38aeae4b073aa6116636115d4565b604080516001600160a01b039092168252519081900360200190a1565b611688611acc565b611690611acc565b6000806000806000806000600360009054906101000a90046001600160a01b03166001600160a01b031663e248f2c48b6040518263ffffffff1660e01b81526004018082815260200191505060e060405180830381600087803b1580156116f657600080fd5b505af115801561170a573d6000803e3d6000fd5b505050506040513d60e081101561172057600080fd5b810190808051906020019092919080519060200190929190805190602001909291908051906020019092919080519060200190929190805190602001909291908051906020019092919050505096509650965096509650965096508688600001818152505085886020019060ff16908160ff16815250508488606001818152505083886080018181525050828860a0018181525050818860c0018181525050808860e00181815250505050505050505080915050919050565b600082820183811015611833576040805162461bcd60e51b815260206004820152601b60248201527f536166654d6174683a206164646974696f6e206f766572666c6f770000000000604482015290519081900360640190fd5b9392505050565b611842611b18565b61184a611b18565b6003546040805163caa496a960e01b81526001600160a01b03878116600483015260248201879052825193169263caa496a9926044808401939192918290030181600087803b15801561189c57600080fd5b505af11580156118b0573d6000803e3d6000fd5b505050506040513d60408110156118c657600080fd5b5080516020918201519183019190915260ff1681529392505050565b600154600160a01b900460ff1615611934576040805162461bcd60e51b815260206004820152601060248201526f14185d5cd8589b194e881c185d5cd95960821b604482015290519081900360640190fd5b6001805460ff60a01b1916600160a01b1790557f62e78cea01bee320cd4e420270b5ea74000d11b0c9f74754ebdbfc544b05a2586116636115d4565b611978611b2f565b611980611b2f565b600b5460408051630a3b3fe560e41b81526004810186905290516001600160a01b039092169163a3b3fe5091602480820192610100929091908290030181600087803b1580156119cf57600080fd5b505af11580156119e3573d6000803e3d6000fd5b505050506040513d6101008110156119fa57600080fd5b81019080805190602001909291908051906020019092919080519060200190929190805190602001909291908051906020019092919080519060200190929190805190602001909291908051906020019092919050505088600001896020018a6040018b6060018c6080018d60a0018e60c0018f60e001886001600160a01b03166001600160a01b0316815250886001600160a01b03166001600160a01b031681525088815250888152508881525088815250888152508860ff1660ff16815250505050505050505080915050919050565b6040805161012081018252600080825260208201819052918101829052606081018290526080810182905260a0810182905260c0810182905260e0810182905261010081019190915290565b604080518082019091526000808252602082015290565b6040805161010081018252600080825260208201819052918101829052606081018290526080810182905260a0810182905260c0810182905260e08101919091529056fe5265656e7472616e637947756172643a207265656e7472616e742063616c6c004f776e61626c653a206e6577206f776e657220697320746865207a65726f2061646472657373423a5353433a2073746f7261676520616464726573732063616e6e6f74206265207a65726f50423a54583a496e76616c69642063616c6c657220666f72207472616e7366657220746f6b656e454e433a53453a5472616e736665727265642c206c6f73742c206f722073746f6c656e207374617475732063616e6e6f742062652073657420746f20657363726f772e454e433a45453a20457363726f7720706572696f64206e6f7420656e64656420616e642063616c6c6572206973206e6f7420657363726f77206f776e65724f776e61626c653a2063616c6c6572206973206e6f7420746865206f776e6572454e433a53453a204f6e6c7920414361646d696e20617574686f72697a656420757365722063616e206368616e676520737461747573203c203530454e433a53453a205468697320636f6e7472616374206e6f7420617574686f72697a656420666f7220737065636966696564204143454e433a45453a7265636f7264206d75737420626520696e20657363726f7720737461747573203e203439454e433a45453a205468697320636f6e7472616374206e6f7420617574686f72697a656420666f7220737065636966696564204143454e433a53453a4d757374207370656369667920612076616c696420657363726f7720737461747573203e3439454e433a4d4f442d49413a2043616c6c657220646f6573206e6f7420686f6c6420746f6b656e454e433a53453a457363726f77206d7573742062652073657420746f20612074696d6520696e2074686520667574757265a26469706673582212208e66abd8d0446dba6135b2229f6f78ec7e19a48052806ce2adeaaddfdae21be564736f6c63430006090033",
  "source": "/*-----------------------------------------------------------V0.6.8\r\n__/\\\\\\\\\\\\\\\\\\\\\\\\\\ _____/\\\\\\\\\\\\\\\\\\ _______/\\\\../\\\\ ___/\\\\\\\\\\\\\\\\\\\\\\\\\\\\\\\r\n _\\/\\\\\\/////////\\\\\\ _/\\\\\\///////\\\\\\ ____\\//..\\//____\\/\\\\\\///////////__\r\n  _\\/\\\\\\.......\\/\\\\\\.\\/\\\\\\.....\\/\\\\\\ ________________\\/\\\\\\ ____________\r\n   _\\/\\\\\\\\\\\\\\\\\\\\\\\\\\/__\\/\\\\\\\\\\\\\\\\\\\\\\/_____/\\\\\\____/\\\\\\.\\/\\\\\\\\\\\\\\\\\\\\\\ ____\r\n    _\\/\\\\\\/////////____\\/\\\\\\//////\\\\\\ ___\\/\\\\\\___\\/\\\\\\.\\/\\\\\\///////______\r\n     _\\/\\\\\\ ____________\\/\\\\\\ ___\\//\\\\\\ __\\/\\\\\\___\\/\\\\\\.\\/\\\\\\ ____________\r\n      _\\/\\\\\\ ____________\\/\\\\\\ ____\\//\\\\\\ _\\/\\\\\\___\\/\\\\\\.\\/\\\\\\ ____________\r\n       _\\/\\\\\\ ____________\\/\\\\\\ _____\\//\\\\\\.\\//\\\\\\\\\\\\\\\\\\ _\\/\\\\\\ ____________\r\n        _\\/// _____________\\/// _______\\/// __\\///////// __\\/// _____________\r\n         *-------------------------------------------------------------------*/\r\n\r\n/*-----------------------------------------------------------------\r\n *  TO DO\r\n *\r\n *---------------------------------------------------------------*/\r\n\r\n// SPDX-License-Identifier: UNLICENSED\r\npragma solidity ^0.6.7;\r\n\r\nimport \"./PRUF_ECR_CORE.sol\";\r\n\r\ncontract ECR_NC is ECR_CORE {\r\n    using SafeMath for uint256;\r\n\r\n    /*\r\n     * @dev Verify user credentials\r\n     * Originating Address:\r\n     *      holds asset token at idxHash\r\n     */\r\n\r\n    modifier isAuthorized(bytes32 _idxHash) override {\r\n        uint256 tokenId = uint256(_idxHash);\r\n        require(\r\n            (A_TKN.ownerOf(tokenId) == msg.sender), //msg.sender is token holder\r\n            \"ENC:MOD-IA: Caller does not hold token\"\r\n        );\r\n        _;\r\n    }\r\n\r\n    //--------------------------------------------External Functions--------------------------\r\n\r\n    /*\r\n     * @dev puts asset into an escrow status for a certain time period\r\n     */\r\n    function setEscrow(\r\n        bytes32 _idxHash,\r\n        bytes32 _escrowOwnerHash,\r\n        uint256 _escrowTime,\r\n        uint8 _escrowStatus\r\n    ) external nonReentrant whenNotPaused isAuthorized(_idxHash) {\r\n        Record memory rec = getRecord(_idxHash);\r\n        uint256 escrowTime = block.timestamp.add(_escrowTime);\r\n        uint8 newEscrowStatus;\r\n        ContractDataHash memory contractInfo = getContractInfo(\r\n            address(this),\r\n            rec.assetClass\r\n        );\r\n\r\n        require(\r\n            contractInfo.contractType > 0,\r\n            \"ENC:SE: This contract not authorized for specified AC\"\r\n        );\r\n\r\n        require((rec.assetClass != 0), \"SE: Record does not exist\");\r\n        require(\r\n            (rec.assetStatus > 49),\r\n            \"ENC:SE: Only ACadmin authorized user can change status < 50\"\r\n        );\r\n        require(\r\n            (escrowTime >= block.timestamp),\r\n            \"ENC:SE:Escrow must be set to a time in the future\"\r\n        );\r\n        require(\r\n            (rec.assetStatus != 3) &&\r\n                (rec.assetStatus != 4) &&\r\n                (rec.assetStatus != 53) &&\r\n                (rec.assetStatus != 54) &&\r\n                (rec.assetStatus != 5) &&\r\n                (rec.assetStatus != 55),\r\n            \"ENC:SE:Transferred, lost, or stolen status cannot be set to escrow.\"\r\n        );\r\n        require(\r\n            (_escrowStatus == 50) || (_escrowStatus == 56),\r\n            \"ENC:SE:Must specify a valid escrow status >49\"\r\n        );\r\n\r\n        //^^^^^^^checks^^^^^^^^^\r\n\r\n        newEscrowStatus = _escrowStatus;\r\n        //^^^^^^^effects^^^^^^^^^\r\n\r\n        ECR_MGR.setEscrow(\r\n            _idxHash,\r\n            newEscrowStatus,\r\n            0,\r\n            _escrowOwnerHash,\r\n            escrowTime,\r\n            0x0,\r\n            0x0,\r\n            address(0),\r\n            address(0)\r\n        );\r\n        //^^^^^^^interactions^^^^^^^^^\r\n    }\r\n\r\n    /*\r\n     * @dev takes asset out of excrow status if time period has resolved || is escrow issuer\r\n     */\r\n    function endEscrow(bytes32 _idxHash) external nonReentrant {\r\n        bytes32 ownerHash = ECR_MGR.retrieveEscrowOwner(_idxHash);\r\n        Record memory rec = getRecord(_idxHash);\r\n        escrowData memory escrow = getEscrowData(_idxHash);\r\n        ContractDataHash memory contractInfo = getContractInfo(\r\n            address(this),\r\n            rec.assetClass\r\n        );\r\n\r\n        require(\r\n            contractInfo.contractType > 0,\r\n            \"ENC:EE: This contract not authorized for specified AC\"\r\n        );\r\n\r\n        require((rec.assetClass != 0), \"ENC:EE: Record does not exist\");\r\n        require(\r\n            (rec.assetStatus == 50) || (rec.assetStatus == 56),\r\n            \"ENC:EE:record must be in escrow status > 49\"\r\n        );\r\n        require(\r\n            (escrow.timelock < block.timestamp) ||\r\n                (keccak256(abi.encodePacked(msg.sender)) == ownerHash),\r\n            \"ENC:EE: Escrow period not ended and caller is not escrow owner\"\r\n        );\r\n        //^^^^^^^checks^^^^^^^^^\r\n\r\n        ECR_MGR.endEscrow(_idxHash);\r\n        //^^^^^^^interactions^^^^^^^^^\r\n    }\r\n}\r\n",
  "sourcePath": "C:\\Users\\Blayde\\Documents\\ETHDEV\\bulletproof\\PRUF_TRUFFLE\\contracts\\PRUF_ECR_NC.sol",
  "compiler": {
    "name": "solc",
    "version": "0.6.9+commit.3e3065ac.Emscripten.clang"
  },
  "schemaVersion": "3.0.23",
  "updatedAt": "2020-08-20T17:17:06.278Z",
  "devdoc": {
    "methods": {
      "OO_pause()": {
        "details": "Triggers stopped state."
      },
      "OO_unpause()": {
        "details": "Returns to normal state."
      },
      "owner()": {
        "details": "Returns the address of the current owner."
      },
      "paused()": {
        "details": "Returns true if the contract is paused, and false otherwise."
      },
      "renounceOwnership()": {
        "details": "Leaves the contract without owner. It will not be possible to call `onlyOwner` functions anymore. Can only be called by the current owner. NOTE: Renouncing ownership will leave the contract without an owner, thereby removing any functionality that is only available to the owner."
      },
      "transferOwnership(address)": {
        "details": "Transfers ownership of the contract to a new account (`newOwner`). Can only be called by the current owner."
      }
    }
  },
  "userdoc": {
    "methods": {}
  }
}