{
  "contractName": "ECR_CORE",
  "abi": [
    {
      "anonymous": false,
      "inputs": [
        {
          "indexed": true,
          "internalType": "address",
          "name": "previousOwner",
          "type": "address"
        },
        {
          "indexed": true,
          "internalType": "address",
          "name": "newOwner",
          "type": "address"
        }
      ],
      "name": "OwnershipTransferred",
      "type": "event"
    },
    {
      "anonymous": false,
      "inputs": [
        {
          "indexed": false,
          "internalType": "address",
          "name": "account",
          "type": "address"
        }
      ],
      "name": "Paused",
      "type": "event"
    },
    {
      "anonymous": false,
      "inputs": [
        {
          "indexed": false,
          "internalType": "string",
          "name": "_msg",
          "type": "string"
        }
      ],
      "name": "REPORT",
      "type": "event"
    },
    {
      "anonymous": false,
      "inputs": [
        {
          "indexed": false,
          "internalType": "address",
          "name": "account",
          "type": "address"
        }
      ],
      "name": "Unpaused",
      "type": "event"
    },
    {
      "inputs": [],
      "name": "OO_pause",
      "outputs": [],
      "stateMutability": "nonpayable",
      "type": "function"
    },
    {
      "inputs": [],
      "name": "OO_resolveContractAddresses",
      "outputs": [],
      "stateMutability": "nonpayable",
      "type": "function"
    },
    {
      "inputs": [
        {
          "internalType": "address",
          "name": "_storageAddress",
          "type": "address"
        }
      ],
      "name": "OO_setStorageContract",
      "outputs": [],
      "stateMutability": "nonpayable",
      "type": "function"
    },
    {
      "inputs": [
        {
          "internalType": "address",
          "name": "_to",
          "type": "address"
        },
        {
          "internalType": "bytes32",
          "name": "_idxHash",
          "type": "bytes32"
        }
      ],
      "name": "OO_transferACToken",
      "outputs": [],
      "stateMutability": "nonpayable",
      "type": "function"
    },
    {
      "inputs": [],
      "name": "OO_unpause",
      "outputs": [],
      "stateMutability": "nonpayable",
      "type": "function"
    },
    {
      "inputs": [
        {
          "internalType": "address",
          "name": "",
          "type": "address"
        },
        {
          "internalType": "address",
          "name": "",
          "type": "address"
        },
        {
          "internalType": "uint256",
          "name": "",
          "type": "uint256"
        },
        {
          "internalType": "bytes",
          "name": "",
          "type": "bytes"
        }
      ],
      "name": "onERC721Received",
      "outputs": [
        {
          "internalType": "bytes4",
          "name": "",
          "type": "bytes4"
        }
      ],
      "stateMutability": "nonpayable",
      "type": "function"
    },
    {
      "inputs": [],
      "name": "owner",
      "outputs": [
        {
          "internalType": "address",
          "name": "",
          "type": "address"
        }
      ],
      "stateMutability": "view",
      "type": "function"
    },
    {
      "inputs": [],
      "name": "paused",
      "outputs": [
        {
          "internalType": "bool",
          "name": "",
          "type": "bool"
        }
      ],
      "stateMutability": "view",
      "type": "function"
    },
    {
      "inputs": [],
      "name": "renounceOwnership",
      "outputs": [],
      "stateMutability": "nonpayable",
      "type": "function"
    },
    {
      "inputs": [
        {
          "internalType": "address",
          "name": "_to",
          "type": "address"
        },
        {
          "internalType": "bytes32",
          "name": "_idxHash",
          "type": "bytes32"
        }
      ],
      "name": "transferAssetToken",
      "outputs": [],
      "stateMutability": "nonpayable",
      "type": "function"
    },
    {
      "inputs": [
        {
          "internalType": "address",
          "name": "newOwner",
          "type": "address"
        }
      ],
      "name": "transferOwnership",
      "outputs": [],
      "stateMutability": "nonpayable",
      "type": "function"
    }
  ],
  "bytecode": "0x608060405234801561001057600080fd5b5060016000908155610020610080565b600180546001600160a01b0319166001600160a01b038316908117909155604051919250906000907f8be0079c531659141344cd1fd0a4f28419497f9722a3daafe3b4186f6b6457e0908290a3506001805460ff60a01b19169055610084565b3390565b611248806100936000396000f3fe608060405234801561001057600080fd5b50600436106100a95760003560e01c8063961e809b11610071578063961e809b146101d1578063c79b226e146101d9578063cf2b6f6614610205578063d6b02ecf1461020d578063e8b4165314610233578063f2fde38b1461023b576100a9565b8063150b7a02146100ae578063440e7a7e1461015b5780635c975abb14610189578063715018a6146101a55780638da5cb5b146101ad575b600080fd5b61013e600480360360808110156100c457600080fd5b6001600160a01b038235811692602081013590911691604082013591908101906080810160608201356401000000008111156100ff57600080fd5b82018360208201111561011157600080fd5b8035906020019184600183028401116401000000008311171561013357600080fd5b509092509050610261565b604080516001600160e01b03199092168252519081900360200190f35b6101876004803603604081101561017157600080fd5b506001600160a01b038135169060200135610272565b005b6101916103bb565b604080519115158252519081900360200190f35b6101876103cb565b6101b561046d565b604080516001600160a01b039092168252519081900360200190f35b61018761047c565b610187600480360360408110156101ef57600080fd5b506001600160a01b0381351690602001356104de565b6101876105f0565b6101876004803603602081101561022357600080fd5b50356001600160a01b0316610650565b61018761070f565b6101876004803603602081101561025157600080fd5b50356001600160a01b0316610f4e565b630a85bd0160e11b95945050505050565b600260005414156102ca576040805162461bcd60e51b815260206004820152601f60248201527f5265656e7472616e637947756172643a207265656e7472616e742063616c6c00604482015290519081900360640190fd5b60026000556102d761046d565b6001600160a01b0316336001600160a01b0316148061030057506018546001600160a01b031633145b61033b5760405162461bcd60e51b81526004018080602001828103825260268152602001806111ed6026913960400191505060405180910390fd5b60095460408051632142170760e11b81523060048201526001600160a01b038581166024830152604482018590529151849392909216916342842e0e9160648082019260009290919082900301818387803b15801561039957600080fd5b505af11580156103ad573d6000803e3d6000fd5b505060016000555050505050565b600154600160a01b900460ff1690565b6103d3611047565b6001546001600160a01b03908116911614610423576040805162461bcd60e51b815260206004820181905260248201526000805160206111cd833981519152604482015290519081900360640190fd5b6001546040516000916001600160a01b0316907f8be0079c531659141344cd1fd0a4f28419497f9722a3daafe3b4186f6b6457e0908390a3600180546001600160a01b0319169055565b6001546001600160a01b031690565b610484611047565b6001546001600160a01b039081169116146104d4576040805162461bcd60e51b815260206004820181905260248201526000805160206111cd833981519152604482015290519081900360640190fd5b6104dc61104b565b565b6104e6611047565b6001546001600160a01b03908116911614610536576040805162461bcd60e51b815260206004820181905260248201526000805160206111cd833981519152604482015290519081900360640190fd5b6002600054141561058e576040805162461bcd60e51b815260206004820152601f60248201527f5265656e7472616e637947756172643a207265656e7472616e742063616c6c00604482015290519081900360640190fd5b60026000908155600b5460408051632142170760e11b81523060048201526001600160a01b038681166024830152604482018690529151859492909316926342842e0e9260648084019391929182900301818387803b15801561039957600080fd5b6105f8611047565b6001546001600160a01b03908116911614610648576040805162461bcd60e51b815260206004820181905260248201526000805160206111cd833981519152604482015290519081900360640190fd5b6104dc6110f3565b610658611047565b6001546001600160a01b039081169116146106a8576040805162461bcd60e51b815260206004820181905260248201526000805160206111cd833981519152604482015290519081900360640190fd5b6001600160a01b0381166106ed5760405162461bcd60e51b81526004018080602001828103825260258152602001806111a86025913960400191505060405180910390fd5b600380546001600160a01b0319166001600160a01b0392909216919091179055565b60026000541415610767576040805162461bcd60e51b815260206004820152601f60248201527f5265656e7472616e637947756172643a207265656e7472616e742063616c6c00604482015290519081900360640190fd5b6002600055610774611047565b6001546001600160a01b039081169116146107c4576040805162461bcd60e51b815260206004820181905260248201526000805160206111cd833981519152604482015290519081900360640190fd5b600354604080516363b8d4c160e11b8152602060048201819052600660248301526520a1afaa25a760d11b604483015291516001600160a01b039093169263c771a98292606480840193919291829003018186803b15801561082557600080fd5b505afa158015610839573d6000803e3d6000fd5b505050506040513d602081101561084f57600080fd5b5051600a80546001600160a01b039283166001600160a01b03199182161791829055600b8054909116918316919091179055600354604080516363b8d4c160e11b8152602060048201819052600660248301526520a1afa6a3a960d11b60448301529151929093169263c771a9829260648083019392829003018186803b1580156108d957600080fd5b505afa1580156108ed573d6000803e3d6000fd5b505050506040513d602081101561090357600080fd5b5051600480546001600160a01b039283166001600160a01b03199182161780835560058054909216908416179055600354604080516363b8d4c160e11b8152602093810184905260086024820152672aaa24a62faa25a760c11b60448201529051919093169263c771a982926064808301939192829003018186803b15801561098b57600080fd5b505afa15801561099f573d6000803e3d6000fd5b505050506040513d60208110156109b557600080fd5b5051600680546001600160a01b039283166001600160a01b0319918216179182905560078054909116918316919091179055600354604080516363b8d4c160e11b8152602060048201819052600560248301526420afaa25a760d91b60448301529151929093169263c771a9829260648083019392829003018186803b158015610a3e57600080fd5b505afa158015610a52573d6000803e3d6000fd5b505050506040513d6020811015610a6857600080fd5b5051600880546001600160a01b039283166001600160a01b0319918216179182905560098054909116918316919091179055600354604080516363b8d4c160e11b8152602060048201819052600660248301526524a22faa25a760d11b60448301529151929093169263c771a9829260648083019392829003018186803b158015610af257600080fd5b505afa158015610b06573d6000803e3d6000fd5b505050506040513d6020811015610b1c57600080fd5b5051600c80546001600160a01b039283166001600160a01b03199182161791829055600d8054909116918316919091179055600354604080516363b8d4c160e11b8152602060048201819052600760248301526622a1a92fa6a3a960c91b60448301529151929093169263c771a9829260648083019392829003018186803b158015610ba757600080fd5b505afa158015610bbb573d6000803e3d6000fd5b505050506040513d6020811015610bd157600080fd5b5051600e80546001600160a01b039283166001600160a01b03199182161791829055600f805490911691831691909117905560038054604080516363b8d4c160e11b815260206004820181905260248201949094526204150560ec1b60448201529051919093169263c771a982926064808301939192829003018186803b158015610c5b57600080fd5b505afa158015610c6f573d6000803e3d6000fd5b505050506040513d6020811015610c8557600080fd5b5051601280546001600160a01b039283166001600160a01b0319918216179182905560138054909116918316919091179055600354604080516363b8d4c160e11b8152602060048083018290526024830152632921a62960e11b60448301529151929093169263c771a9829260648083019392829003018186803b158015610d0c57600080fd5b505afa158015610d20573d6000803e3d6000fd5b505050506040513d6020811015610d3657600080fd5b5051601080546001600160a01b039283166001600160a01b0319918216179182905560118054909116918316919091179055600354604080516363b8d4c160e11b815260206004820181905260066024830152654150505f4e4360d01b60448301529151929093169263c771a9829260648083019392829003018186803b158015610dc057600080fd5b505afa158015610dd4573d6000803e3d6000fd5b505050506040513d6020811015610dea57600080fd5b5051601480546001600160a01b0319166001600160a01b03928316179055600354604080516363b8d4c160e11b8152602060048201819052600260248301526104e560f41b60448301529151929093169263c771a9829260648083019392829003018186803b158015610e5c57600080fd5b505afa158015610e70573d6000803e3d6000fd5b505050506040513d6020811015610e8657600080fd5b5051601880546001600160a01b0319166001600160a01b03928316179055600354604080516363b8d4c160e11b8152602060048201819052600660248301526553484152455360d01b60448301529151929093169263c771a9829260648083019392829003018186803b158015610efc57600080fd5b505afa158015610f10573d6000803e3d6000fd5b505050506040513d6020811015610f2657600080fd5b5051601680546001600160a01b0319166001600160a01b039092169190911790556001600055565b610f56611047565b6001546001600160a01b03908116911614610fa6576040805162461bcd60e51b815260206004820181905260248201526000805160206111cd833981519152604482015290519081900360640190fd5b6001600160a01b038116610feb5760405162461bcd60e51b81526004018080602001828103825260268152602001806111826026913960400191505060405180910390fd5b6001546040516001600160a01b038084169216907f8be0079c531659141344cd1fd0a4f28419497f9722a3daafe3b4186f6b6457e090600090a3600180546001600160a01b0319166001600160a01b0392909216919091179055565b3390565b600154600160a01b900460ff166110a0576040805162461bcd60e51b815260206004820152601460248201527314185d5cd8589b194e881b9bdd081c185d5cd95960621b604482015290519081900360640190fd5b6001805460ff60a01b191690557f5db9ee0a495bf2e6ff9c91a7834c1ba4fdd244a5e8aa4e537bd38aeae4b073aa6110d6611047565b604080516001600160a01b039092168252519081900360200190a1565b600154600160a01b900460ff1615611145576040805162461bcd60e51b815260206004820152601060248201526f14185d5cd8589b194e881c185d5cd95960821b604482015290519081900360640190fd5b6001805460ff60a01b1916600160a01b1790557f62e78cea01bee320cd4e420270b5ea74000d11b0c9f74754ebdbfc544b05a2586110d661104756fe4f776e61626c653a206e6577206f776e657220697320746865207a65726f2061646472657373423a5353433a2073746f7261676520616464726573732063616e6e6f74206265207a65726f4f776e61626c653a2063616c6c6572206973206e6f7420746865206f776e6572423a54583a496e76616c69642063616c6c657220666f72207472616e7366657220746f6b656ea2646970667358221220c86a0f95206acf56a7bf4222eebe04922a392a905971a9ae556493a4ee5dacf664736f6c634300060c0033",
  "immutableReferences": {},
  "source": "/*-----------------------------------------------------------V0.7.0\n__/\\\\\\\\\\\\\\\\\\\\\\\\\\ _____/\\\\\\\\\\\\\\\\\\ _______/\\\\../\\\\ ___/\\\\\\\\\\\\\\\\\\\\\\\\\\\\\\\n _\\/\\\\\\/////////\\\\\\ _/\\\\\\///////\\\\\\ ____\\//..\\//____\\/\\\\\\///////////__\n  _\\/\\\\\\.......\\/\\\\\\.\\/\\\\\\.....\\/\\\\\\ ________________\\/\\\\\\ ____________\n   _\\/\\\\\\\\\\\\\\\\\\\\\\\\\\/__\\/\\\\\\\\\\\\\\\\\\\\\\/_____/\\\\\\____/\\\\\\.\\/\\\\\\\\\\\\\\\\\\\\\\ ____\n    _\\/\\\\\\/////////____\\/\\\\\\//////\\\\\\ ___\\/\\\\\\___\\/\\\\\\.\\/\\\\\\///////______\n     _\\/\\\\\\ ____________\\/\\\\\\ ___\\//\\\\\\ __\\/\\\\\\___\\/\\\\\\.\\/\\\\\\ ____________\n      _\\/\\\\\\ ____________\\/\\\\\\ ____\\//\\\\\\ _\\/\\\\\\___\\/\\\\\\.\\/\\\\\\ ____________\n       _\\/\\\\\\ ____________\\/\\\\\\ _____\\//\\\\\\.\\//\\\\\\\\\\\\\\\\\\ _\\/\\\\\\ ____________\n        _\\/// _____________\\/// _______\\/// __\\///////// __\\/// _____________\n         *-------------------------------------------------------------------*/\n\n/*-----------------------------------------------------------------\n *  TO DO\n *\n *---------------------------------------------------------------*/\n\n// SPDX-License-Identifier: UNLICENSED\npragma solidity ^0.6.7;\n\nimport \"./PRUF_BASIC.sol\";\nimport \"./PRUF_INTERFACES.sol\";\nimport \"./Imports/payment/PullPayment.sol\";\nimport \"./Imports/utils/ReentrancyGuard.sol\";\n\ncontract ECR_CORE is BASIC {\n    using SafeMath for uint256;\n\n    struct escrowData {\n        bytes32 controllingContractNameHash; //hash of the name of the controlling escrow contract\n        bytes32 escrowOwnerAddressHash; //hash of an address designated as an executor for the escrow contract\n        uint256 timelock;\n    }\n\n    struct escrowDataExtLight {\n        //1 slot\n        uint8 escrowData;\n        uint8 u8_1;\n        uint8 u8_2;\n        uint8 u8_3;\n        uint16 u16_1;\n        uint16 u16_2;\n        uint32 u32_1;\n        address addr_1;\n    }\n\n    struct escrowDataExtHeavy {\n        // 5 slots\n        uint32 u32_2;\n        uint32 u32_3;\n        uint32 u32_4;\n        address addr_2;\n        bytes32 b32_1;\n        bytes32 b32_2;\n        uint256 u256_1;\n        uint256 u256_2;\n    }\n\n    function _setEscrowData(\n        bytes32 _idxHash,\n        uint8 _newAssetStatus,\n        bytes32 _escrowOwnerAddressHash,\n        uint256 _timelock\n    ) internal whenNotPaused {\n        ECR_MGR.setEscrow(\n            _idxHash,\n            _newAssetStatus,\n            _escrowOwnerAddressHash,\n            _timelock\n        );\n    }\n\n    function _setEscrowDataLight(\n        bytes32 _idxHash,\n        escrowDataExtLight memory escrowDataLight\n    ) internal whenNotPaused {\n        ECR_MGR.setEscrowDataLight(\n            _idxHash,\n            escrowDataLight.escrowData,\n            escrowDataLight.u8_1,\n            escrowDataLight.u8_2,\n            escrowDataLight.u8_3,\n            escrowDataLight.u16_1,\n            escrowDataLight.u16_2,\n            escrowDataLight.u32_1,\n            escrowDataLight.addr_1\n        );\n        //^^^^^^^effects^^^^^^^^^\n    }\n\n    function _setEscrowDataHeavy(\n        bytes32 _idxHash,\n        escrowDataExtHeavy memory escrowDataHeavy\n    ) internal whenNotPaused {\n        ECR_MGR.setEscrowDataHeavy(\n            _idxHash,\n            escrowDataHeavy.u32_2,\n            escrowDataHeavy.u32_3,\n            escrowDataHeavy.u32_4,\n            escrowDataHeavy.addr_2,\n            escrowDataHeavy.b32_1,\n            escrowDataHeavy.b32_2,\n            escrowDataHeavy.u256_1,\n            escrowDataHeavy.u256_2\n        );\n        //^^^^^^^effects^^^^^^^^^\n    }\n\n    /*\n     * @dev retrieves escrow data and returns escrow struct\n     */\n    function getEscrowData(bytes32 _idxHash)\n        internal\n        returns (escrowData memory)\n    {\n        //^^^^^^^checks^^^^^^^^^\n\n        escrowData memory escrow;\n        //^^^^^^^effects^^^^^^^^^\n\n        (\n            escrow.controllingContractNameHash,\n            escrow.escrowOwnerAddressHash,\n            escrow.timelock\n        ) = ECR_MGR.retrieveEscrowData(_idxHash);\n\n        return (escrow);\n        //^^^^^^^interactions^^^^^^^^^\n    }\n\n    /*\n     * @dev retrieves extended escrow data and returns escrowDataExtLight struct\n     */\n    function getEscrowDataLight(bytes32 _idxHash)\n        internal\n        view\n        returns (escrowDataExtLight memory)\n    {\n        //^^^^^^^checks^^^^^^^^^\n\n        escrowDataExtLight memory escrowDataLight;\n        //^^^^^^^effects^^^^^^^^^\n\n        (\n            escrowDataLight.escrowData,\n            escrowDataLight.u8_1,\n            escrowDataLight.u8_2,\n            escrowDataLight.u8_3,\n            escrowDataLight.u16_1,\n            escrowDataLight.u16_2,\n            escrowDataLight.u32_1,\n            escrowDataLight.addr_1\n        ) = ECR_MGR.retrieveEscrowDataLight(_idxHash);\n\n        return (escrowDataLight);\n        //^^^^^^^interactions^^^^^^^^^\n    }\n\n    /*\n     * @dev retrieves extended escrow data and returns escrowDataExtHeavy struct\n     */\n    function getEscrowDataHeavy(bytes32 _idxHash)\n        internal\n        view\n        returns (escrowDataExtHeavy memory)\n    {\n        //^^^^^^^checks^^^^^^^^^\n\n        escrowDataExtHeavy memory escrowDataHeavy;\n        //^^^^^^^effects^^^^^^^^^\n\n        (\n            escrowDataHeavy.u32_2,\n            escrowDataHeavy.u32_3,\n            escrowDataHeavy.u32_4,\n            escrowDataHeavy.addr_2,\n            escrowDataHeavy.b32_1,\n            escrowDataHeavy.b32_2,\n            escrowDataHeavy.u256_1,\n            escrowDataHeavy.u256_2\n        ) = ECR_MGR.retrieveEscrowDataHeavy(_idxHash);\n\n        return (escrowDataHeavy);\n        //^^^^^^^interactions^^^^^^^^^\n    }\n}\n",
  "sourcePath": "/Users/cts/dev/PRUF/PRUF_TRUFFLE/contracts/PRUF_ECR_CORE.sol",
  "compiler": {
    "name": "solc",
    "version": "0.6.12+commit.27d51765.Emscripten.clang"
  },
  "schemaVersion": "3.2.3",
  "updatedAt": "2020-09-22T21:30:52.666Z",
  "devdoc": {
    "kind": "dev",
    "methods": {
      "OO_pause()": {
        "details": "Triggers stopped state. (pausable)"
      },
      "OO_unpause()": {
        "details": "Returns to normal state. (pausable)"
      },
      "owner()": {
        "details": "Returns the address of the current owner."
      },
      "paused()": {
        "details": "Returns true if the contract is paused, and false otherwise."
      },
      "renounceOwnership()": {
        "details": "Leaves the contract without owner. It will not be possible to call `onlyOwner` functions anymore. Can only be called by the current owner. NOTE: Renouncing ownership will leave the contract without an owner, thereby removing any functionality that is only available to the owner."
      },
      "transferOwnership(address)": {
        "details": "Transfers ownership of the contract to a new account (`newOwner`). Can only be called by the current owner."
      }
    },
    "version": 1
  },
  "userdoc": {
    "kind": "user",
    "methods": {},
    "version": 1
  }
}