{
  "contractName": "ECR_NC",
  "abi": [
    {
      "anonymous": false,
      "inputs": [
        {
          "indexed": true,
          "internalType": "address",
          "name": "previousOwner",
          "type": "address"
        },
        {
          "indexed": true,
          "internalType": "address",
          "name": "newOwner",
          "type": "address"
        }
      ],
      "name": "OwnershipTransferred",
      "type": "event"
    },
    {
      "anonymous": false,
      "inputs": [
        {
          "indexed": false,
          "internalType": "address",
          "name": "account",
          "type": "address"
        }
      ],
      "name": "Paused",
      "type": "event"
    },
    {
      "anonymous": false,
      "inputs": [
        {
          "indexed": false,
          "internalType": "string",
          "name": "_msg",
          "type": "string"
        }
      ],
      "name": "REPORT",
      "type": "event"
    },
    {
      "anonymous": false,
      "inputs": [
        {
          "indexed": false,
          "internalType": "address",
          "name": "account",
          "type": "address"
        }
      ],
      "name": "Unpaused",
      "type": "event"
    },
    {
      "inputs": [],
      "name": "$withdraw",
      "outputs": [],
      "stateMutability": "payable",
      "type": "function"
    },
    {
      "inputs": [],
      "name": "OO_ResolveContractAddresses",
      "outputs": [],
      "stateMutability": "nonpayable",
      "type": "function"
    },
    {
      "inputs": [
        {
          "internalType": "address",
          "name": "_to",
          "type": "address"
        },
        {
          "internalType": "bytes32",
          "name": "_idxHash",
          "type": "bytes32"
        }
      ],
      "name": "OO_TX_AC_Token",
      "outputs": [],
      "stateMutability": "nonpayable",
      "type": "function"
    },
    {
      "inputs": [
        {
          "internalType": "address",
          "name": "_to",
          "type": "address"
        },
        {
          "internalType": "bytes32",
          "name": "_idxHash",
          "type": "bytes32"
        }
      ],
      "name": "OO_TX_asset_Token",
      "outputs": [],
      "stateMutability": "nonpayable",
      "type": "function"
    },
    {
      "inputs": [],
      "name": "OO_pause",
      "outputs": [],
      "stateMutability": "nonpayable",
      "type": "function"
    },
    {
      "inputs": [
        {
          "internalType": "address",
          "name": "_storageAddress",
          "type": "address"
        }
      ],
      "name": "OO_setStorageContract",
      "outputs": [],
      "stateMutability": "nonpayable",
      "type": "function"
    },
    {
      "inputs": [],
      "name": "OO_unpause",
      "outputs": [],
      "stateMutability": "nonpayable",
      "type": "function"
    },
    {
      "inputs": [
        {
          "internalType": "address",
          "name": "",
          "type": "address"
        },
        {
          "internalType": "address",
          "name": "",
          "type": "address"
        },
        {
          "internalType": "uint256",
          "name": "",
          "type": "uint256"
        },
        {
          "internalType": "bytes",
          "name": "",
          "type": "bytes"
        }
      ],
      "name": "onERC721Received",
      "outputs": [
        {
          "internalType": "bytes4",
          "name": "",
          "type": "bytes4"
        }
      ],
      "stateMutability": "nonpayable",
      "type": "function"
    },
    {
      "inputs": [],
      "name": "owner",
      "outputs": [
        {
          "internalType": "address",
          "name": "",
          "type": "address"
        }
      ],
      "stateMutability": "view",
      "type": "function"
    },
    {
      "inputs": [],
      "name": "paused",
      "outputs": [
        {
          "internalType": "bool",
          "name": "",
          "type": "bool"
        }
      ],
      "stateMutability": "view",
      "type": "function"
    },
    {
      "inputs": [
        {
          "internalType": "address",
          "name": "dest",
          "type": "address"
        }
      ],
      "name": "payments",
      "outputs": [
        {
          "internalType": "uint256",
          "name": "",
          "type": "uint256"
        }
      ],
      "stateMutability": "view",
      "type": "function"
    },
    {
      "inputs": [],
      "name": "renounceOwnership",
      "outputs": [],
      "stateMutability": "nonpayable",
      "type": "function"
    },
    {
      "inputs": [
        {
          "internalType": "address",
          "name": "newOwner",
          "type": "address"
        }
      ],
      "name": "transferOwnership",
      "outputs": [],
      "stateMutability": "nonpayable",
      "type": "function"
    },
    {
      "inputs": [
        {
          "internalType": "address payable",
          "name": "payee",
          "type": "address"
        }
      ],
      "name": "withdrawPayments",
      "outputs": [],
      "stateMutability": "nonpayable",
      "type": "function"
    },
    {
      "inputs": [
        {
          "internalType": "bytes32",
          "name": "_idxHash",
          "type": "bytes32"
        },
        {
          "internalType": "bytes32",
          "name": "_escrowOwnerHash",
          "type": "bytes32"
        },
        {
          "internalType": "uint256",
          "name": "_escrowTime",
          "type": "uint256"
        },
        {
          "internalType": "uint8",
          "name": "_escrowStatus",
          "type": "uint8"
        }
      ],
      "name": "setEscrow",
      "outputs": [],
      "stateMutability": "nonpayable",
      "type": "function"
    },
    {
      "inputs": [
        {
          "internalType": "bytes32",
          "name": "_idxHash",
          "type": "bytes32"
        }
      ],
      "name": "endEscrow",
      "outputs": [],
      "stateMutability": "nonpayable",
      "type": "function"
    }
  ],
  "bytecode": "0x60806040523480156200001157600080fd5b506040516200002090620000d1565b604051809103906000f0801580156200003d573d6000803e3d6000fd5b50600080546001600160a01b0319166001600160a01b0392909216919091178155600180556200006c620000cd565b600280546001600160a01b0319166001600160a01b038316908117909155604051919250906000907f8be0079c531659141344cd1fd0a4f28419497f9722a3daafe3b4186f6b6457e0908290a3506002805460ff60a01b19169055620000df565b3390565b610764806200212883390190565b61203980620000ef6000396000f3fe6080604052600436106100f35760003560e01c8063961e809b1161008a578063d6b02ecf11610059578063d6b02ecf1461034e578063e2982c2114610381578063e8e1152c146103c6578063f2fde38b146103f0576100f3565b8063961e809b146102ac578063b1d83c18146102c1578063b29c3959146102fa578063cf2b6f6614610339576100f3565b80634b9f23a4116100c65780634b9f23a4146102285780635c975abb1461023d578063715018a6146102665780638da5cb5b1461027b576100f3565b8063150b7a02146100f85780632cb741aa146101b257806331b3eb94146101bc578063466aafa4146101ef575b600080fd5b34801561010457600080fd5b506101956004803603608081101561011b57600080fd5b6001600160a01b0382358116926020810135909116916040820135919081019060808101606082013564010000000081111561015657600080fd5b82018360208201111561016857600080fd5b8035906020019184600183028401116401000000008311171561018a57600080fd5b509092509050610423565b604080516001600160e01b03199092168252519081900360200190f35b6101ba610434565b005b3480156101c857600080fd5b506101ba600480360360208110156101df57600080fd5b50356001600160a01b031661048e565b3480156101fb57600080fd5b506101ba6004803603604081101561021257600080fd5b506001600160a01b0381351690602001356104f4565b34801561023457600080fd5b506101ba610616565b34801561024957600080fd5b50610252610b8a565b604080519115158252519081900360200190f35b34801561027257600080fd5b506101ba610b9a565b34801561028757600080fd5b50610290610c3c565b604080516001600160a01b039092168252519081900360200190f35b3480156102b857600080fd5b506101ba610c4b565b3480156102cd57600080fd5b506101ba600480360360408110156102e457600080fd5b506001600160a01b038135169060200135610cad565b34801561030657600080fd5b506101ba6004803603608081101561031d57600080fd5b508035906020810135906040810135906060013560ff16610dae565b34801561034557600080fd5b506101ba61121c565b34801561035a57600080fd5b506101ba6004803603602081101561037157600080fd5b50356001600160a01b031661127c565b34801561038d57600080fd5b506103b4600480360360208110156103a457600080fd5b50356001600160a01b031661133b565b60408051918252519081900360200190f35b3480156103d257600080fd5b506101ba600480360360208110156103e957600080fd5b50356113bb565b3480156103fc57600080fd5b506101ba6004803603602081101561041357600080fd5b50356001600160a01b0316611692565b630a85bd0160e11b95945050505050565b6002600154141561047a576040805162461bcd60e51b815260206004820152601f6024820152600080516020611da2833981519152604482015290519081900360640190fd5b60026001556104883361048e565b60018055565b60008054604080516351cff8d960e01b81526001600160a01b038581166004830152915191909216926351cff8d9926024808201939182900301818387803b1580156104d957600080fd5b505af11580156104ed573d6000803e3d6000fd5b5050505050565b6104fc61178b565b6002546001600160a01b0390811691161461054c576040805162461bcd60e51b81526020600482018190526024820152600080516020611edd833981519152604482015290519081900360640190fd5b60026001541415610592576040805162461bcd60e51b815260206004820152601f6024820152600080516020611da2833981519152604482015290519081900360640190fd5b600260015560085460408051632142170760e11b81523060048201526001600160a01b038581166024830152604482018590529151849392909216916342842e0e9160648082019260009290919082900301818387803b1580156105f557600080fd5b505af1158015610609573d6000803e3d6000fd5b5050600180555050505050565b6002600154141561065c576040805162461bcd60e51b815260206004820152601f6024820152600080516020611da2833981519152604482015290519081900360640190fd5b600260015561066961178b565b6002546001600160a01b039081169116146106b9576040805162461bcd60e51b81526020600482018190526024820152600080516020611edd833981519152604482015290519081900360640190fd5b60048054604080516363b8d4c160e11b81526020938101849052600660248201526520a1afaa25a760d11b604482015290516001600160a01b039092169263c771a982926064808401938290030181600087803b15801561071957600080fd5b505af115801561072d573d6000803e3d6000fd5b505050506040513d602081101561074357600080fd5b5051600980546001600160a01b039283166001600160a01b03199182161791829055600a805490911691831691909117905560048054604080516363b8d4c160e11b81526020938101849052600660248201526520a1afa6a3a960d11b60448201529051919093169263c771a9829260648083019391928290030181600087803b1580156107d057600080fd5b505af11580156107e4573d6000803e3d6000fd5b505050506040513d60208110156107fa57600080fd5b5051600580546001600160a01b039283166001600160a01b0319918216178083556006805490921690841617905560048054604080516363b8d4c160e11b8152602093810184905260248101949094526420afaa25a760d91b60448501525193169263c771a9829260648082019392918290030181600087803b15801561088057600080fd5b505af1158015610894573d6000803e3d6000fd5b505050506040513d60208110156108aa57600080fd5b5051600780546001600160a01b039283166001600160a01b0319918216178083556008805490921690841617905560048054604080516363b8d4c160e11b8152602093810184905260248101949094526622a1a92fa6a3a960c91b60448501525193169263c771a9829260648082019392918290030181600087803b15801561093257600080fd5b505af1158015610946573d6000803e3d6000fd5b505050506040513d602081101561095c57600080fd5b5051600b80546001600160a01b039283166001600160a01b03199182161791829055600c805490911691831691909117905560048054604080516363b8d4c160e11b81526020938101849052600360248201526204150560ec1b60448201529051919093169263c771a9829260648083019391928290030181600087803b1580156109e657600080fd5b505af11580156109fa573d6000803e3d6000fd5b505050506040513d6020811015610a1057600080fd5b5051600f80546001600160a01b0319166001600160a01b0392831617905560048054604080516363b8d4c160e11b8152602093810184905260066024820152654150505f4e4360d01b60448201529051919093169263c771a9829260648083019391928290030181600087803b158015610a8957600080fd5b505af1158015610a9d573d6000803e3d6000fd5b505050506040513d6020811015610ab357600080fd5b5051601080546001600160a01b0319166001600160a01b0392831617905560048054604080516363b8d4c160e11b815260208185018190526024820194909452632921a62960e11b60448201529051919093169263c771a9829260648083019391928290030181600087803b158015610b2b57600080fd5b505af1158015610b3f573d6000803e3d6000fd5b505050506040513d6020811015610b5557600080fd5b5051600d80546001600160a01b03199081166001600160a01b039384161791829055600e805492909316911617905560018055565b600254600160a01b900460ff1690565b610ba261178b565b6002546001600160a01b03908116911614610bf2576040805162461bcd60e51b81526020600482018190526024820152600080516020611edd833981519152604482015290519081900360640190fd5b6002546040516000916001600160a01b0316907f8be0079c531659141344cd1fd0a4f28419497f9722a3daafe3b4186f6b6457e0908390a3600280546001600160a01b0319169055565b6002546001600160a01b031690565b610c5361178b565b6002546001600160a01b03908116911614610ca3576040805162461bcd60e51b81526020600482018190526024820152600080516020611edd833981519152604482015290519081900360640190fd5b610cab61178f565b565b610cb561178b565b6002546001600160a01b03908116911614610d05576040805162461bcd60e51b81526020600482018190526024820152600080516020611edd833981519152604482015290519081900360640190fd5b60026001541415610d4b576040805162461bcd60e51b815260206004820152601f6024820152600080516020611da2833981519152604482015290519081900360640190fd5b6002600155600a5460408051632142170760e11b81523060048201526001600160a01b038581166024830152604482018590529151849392909216916342842e0e9160648082019260009290919082900301818387803b1580156105f557600080fd5b60026001541415610df4576040805162461bcd60e51b815260206004820152601f6024820152600080516020611da2833981519152604482015290519081900360640190fd5b6002600181905554600160a01b900460ff1615610e4b576040805162461bcd60e51b815260206004820152601060248201526f14185d5cd8589b194e881c185d5cd95960821b604482015290519081900360640190fd5b600854604080516331a9108f60e11b81526004810187905290518692839233926001600160a01b0390921691636352211e916024808201926020929091908290030181600087803b158015610e9f57600080fd5b505af1158015610eb3573d6000803e3d6000fd5b505050506040513d6020811015610ec957600080fd5b50516001600160a01b031614610f105760405162461bcd60e51b8152600401808060200182810382526023815260200180611f396023913960400191505060405180910390fd5b610f18611ce2565b610f2187611837565b90506000610f35428763ffffffff6119e016565b90506000610f41611d2e565b610f4e8460600151611a41565b9050806040015160ff16600214610f965760405162461bcd60e51b8152600401808060200182810382526035815260200180611f5c6035913960400191505060405180910390fd5b8351610fe9576040805162461bcd60e51b815260206004820152601960248201527f53453a205265636f726420646f6573206e6f7420657869737400000000000000604482015290519081900360640190fd5b6031846020015160ff161161102f5760405162461bcd60e51b815260040180806020018281038252603c815260200180611efd603c913960400191505060405180910390fd5b4283101561106e5760405162461bcd60e51b8152600401808060200182810382526032815260200180611eab6032913960400191505060405180910390fd5b836020015160ff1660031415801561108e5750836020015160ff16600414155b80156110a25750836020015160ff16603514155b80156110b65750836020015160ff16603614155b80156110ca5750836020015160ff16600514155b80156110de5750836020015160ff16603714155b6111195760405162461bcd60e51b8152600401808060200182810382526044815260200180611ded6044913960600191505060405180910390fd5b8660ff166032148061112e57508660ff166038145b6111695760405162461bcd60e51b815260040180806020018281038252602e815260200180611e57602e913960400191505060405180910390fd5b600c5460408051633cbf00a160e21b8152600481018d905260ff8a166024820152600060448201819052606482018d90526084820187905260a4820181905260c4820181905260e48201819052610104820181905291518a95506001600160a01b039093169263f2fc0284926101248084019391929182900301818387803b1580156111f457600080fd5b505af1158015611208573d6000803e3d6000fd5b505060018055505050505050505050505050565b61122461178b565b6002546001600160a01b03908116911614611274576040805162461bcd60e51b81526020600482018190526024820152600080516020611edd833981519152604482015290519081900360640190fd5b610cab611af8565b61128461178b565b6002546001600160a01b039081169116146112d4576040805162461bcd60e51b81526020600482018190526024820152600080516020611edd833981519152604482015290519081900360640190fd5b6001600160a01b0381166113195760405162461bcd60e51b8152600401808060200182810382526026815260200180611e856026913960400191505060405180910390fd5b600480546001600160a01b0319166001600160a01b0392909216919091179055565b60008054604080516371d4ed8d60e11b81526001600160a01b0385811660048301529151919092169163e3a9db1a916024808301926020929190829003018186803b15801561138957600080fd5b505afa15801561139d573d6000803e3d6000fd5b505050506040513d60208110156113b357600080fd5b505192915050565b60026001541415611401576040805162461bcd60e51b815260206004820152601f6024820152600080516020611da2833981519152604482015290519081900360640190fd5b6002600155600c546040805163019b0f5f60e01b81526004810184905290516000926001600160a01b03169163019b0f5f91602480830192602092919082900301818787803b15801561145357600080fd5b505af1158015611467573d6000803e3d6000fd5b505050506040513d602081101561147d57600080fd5b50519050611489611ce2565b61149283611837565b905061149c611d2e565b6114a98260600151611a41565b90506114b3611d5d565b6114bc85611b86565b9050816040015160ff166002146115045760405162461bcd60e51b8152600401808060200182810382526034815260200180611f916034913960400191505060405180910390fd5b8251611557576040805162461bcd60e51b815260206004820152601960248201527f45453a205265636f726420646f6573206e6f7420657869737400000000000000604482015290519081900360640190fd5b826020015160ff16603214806115745750826020015160ff166038145b6115af5760405162461bcd60e51b815260040180806020018281038252602b815260200180611dc2602b913960400191505060405180910390fd5b42816060015110806115e75750604080513360601b602080830191909152825180830360140181526034909201909252805191012084145b6116225760405162461bcd60e51b815260040180806020018281038252603f815260200180611fc5603f913960400191505060405180910390fd5b600c5460408051633a38454b60e21b81526004810188905290516001600160a01b039092169163e8e1152c9160248082019260009290919082900301818387803b15801561166f57600080fd5b505af1158015611683573d6000803e3d6000fd5b50506001805550505050505050565b61169a61178b565b6002546001600160a01b039081169116146116ea576040805162461bcd60e51b81526020600482018190526024820152600080516020611edd833981519152604482015290519081900360640190fd5b6001600160a01b03811661172f5760405162461bcd60e51b8152600401808060200182810382526026815260200180611e316026913960400191505060405180910390fd5b6002546040516001600160a01b038084169216907f8be0079c531659141344cd1fd0a4f28419497f9722a3daafe3b4186f6b6457e090600090a3600280546001600160a01b0319166001600160a01b0392909216919091179055565b3390565b600254600160a01b900460ff166117e4576040805162461bcd60e51b815260206004820152601460248201527314185d5cd8589b194e881b9bdd081c185d5cd95960621b604482015290519081900360640190fd5b6002805460ff60a01b191690557f5db9ee0a495bf2e6ff9c91a7834c1ba4fdd244a5e8aa4e537bd38aeae4b073aa61181a61178b565b604080516001600160a01b039092168252519081900360200190a1565b61183f611ce2565b611847611ce2565b6000806000806000806000806000600460009054906101000a90046001600160a01b03166001600160a01b031663e248f2c48d6040518263ffffffff1660e01b81526004018082815260200191505061012060405180830381600087803b1580156118b157600080fd5b505af11580156118c5573d6000803e3d6000fd5b505050506040513d6101208110156118dc57600080fd5b81019080805190602001909291908051906020019092919080519060200190929190805190602001909291908051906020019092919080519060200190929190805190602001909291908051906020019092919080519060200190929190505050985098509850985098509850985098509850888a6000018181525050878a6020019060ff16908160ff1681525050868a6040019060ff16908160ff1681525050858a6060019061ffff16908161ffff1681525050848a6080018181525050838a60a0018181525050828a60c0018181525050818a60e0018181525050808a610100019061ffff16908161ffff168152505050505050505050505080915050919050565b600082820183811015611a3a576040805162461bcd60e51b815260206004820152601b60248201527f536166654d6174683a206164646974696f6e206f766572666c6f770000000000604482015290519081900360640190fd5b9392505050565b611a49611d2e565b611a51611d2e565b60065460408051634b09ab8160e11b815261ffff8616600482015290516001600160a01b03909216916396135702916024808201926060929091908290030181600087803b158015611aa257600080fd5b505af1158015611ab6573d6000803e3d6000fd5b505050506040513d6060811015611acc57600080fd5b508051602080830151604093840151606086015260ff169284019290925261ffff169082015292915050565b600254600160a01b900460ff1615611b4a576040805162461bcd60e51b815260206004820152601060248201526f14185d5cd8589b194e881c185d5cd95960821b604482015290519081900360640190fd5b6002805460ff60a01b1916600160a01b1790557f62e78cea01bee320cd4e420270b5ea74000d11b0c9f74754ebdbfc544b05a25861181a61178b565b611b8e611d5d565b611b96611d5d565b600c5460408051630a3b3fe560e41b81526004810186905290516001600160a01b039092169163a3b3fe5091602480820192610100929091908290030181600087803b158015611be557600080fd5b505af1158015611bf9573d6000803e3d6000fd5b505050506040513d610100811015611c1057600080fd5b81019080805190602001909291908051906020019092919080519060200190929190805190602001909291908051906020019092919080519060200190929190805190602001909291908051906020019092919050505088600001896020018a6040018b6060018c6080018d60a0018e60c0018f60e001886001600160a01b03166001600160a01b0316815250886001600160a01b03166001600160a01b031681525088815250888152508881525088815250888152508860ff1660ff16815250505050505050505080915050919050565b6040805161012081018252600080825260208201819052918101829052606081018290526080810182905260a0810182905260c0810182905260e0810182905261010081019190915290565b604051806080016040528060608152602001600061ffff168152602001600060ff168152602001600081525090565b6040805161010081018252600080825260208201819052918101829052606081018290526080810182905260a0810182905260c0810182905260e08101919091529056fe5265656e7472616e637947756172643a207265656e7472616e742063616c6c00545053453a45453a7265636f7264206d75737420626520696e20657363726f7720737461747573203c3439545053453a53453a5472616e736665727265642c206c6f73742c206f722073746f6c656e207374617475732063616e6e6f742062652073657420746f20657363726f772e4f776e61626c653a206e6577206f776e657220697320746865207a65726f2061646472657373545053453a53453a4d757374207370656369667920612076616c696420657363726f7720737461747573203e343950423a5353433a2073746f7261676520616464726573732063616e6e6f74206265207a65726f545053453a53453a457363726f77206d7573742062652073657420746f20612074696d6520696e20746865206675747572654f776e61626c653a2063616c6c6572206973206e6f7420746865206f776e6572545053453a53453a204f6e6c7920414361646d696e20617574686f72697a656420757365722063616e206368616e676520737461747573203c203530545053453a49413a2043616c6c657220646f6573206e6f7420686f6c6420746f6b656e545053453a53453a20436f6e7472616374206e6f7420617574686f72697a656420666f7220637573746f6469616c20617373657473545053453a45453a436f6e7472616374206e6f7420617574686f72697a656420666f7220637573746f6469616c20617373657473545053453a45453a20457363726f7720706572696f64206e6f7420656e64656420616e642063616c6c6572206973206e6f7420657363726f77206f776e6572a264697066735822122080901e5bc25372b3b732db89bb450d8e76edffed9e9b2e7c26ca4db44df5cc8464736f6c63430006090033608060405234801561001057600080fd5b5060006100246001600160e01b0361007316565b600080546001600160a01b0319166001600160a01b0383169081178255604051929350917f8be0079c531659141344cd1fd0a4f28419497f9722a3daafe3b4186f6b6457e0908290a350610077565b3390565b6106de806100866000396000f3fe6080604052600436106100555760003560e01c806351cff8d91461005a578063715018a61461008f5780638da5cb5b146100a4578063e3a9db1a146100d5578063f2fde38b1461011a578063f340fa011461014d575b600080fd5b34801561006657600080fd5b5061008d6004803603602081101561007d57600080fd5b50356001600160a01b0316610173565b005b34801561009b57600080fd5b5061008d61023c565b3480156100b057600080fd5b506100b96102de565b604080516001600160a01b039092168252519081900360200190f35b3480156100e157600080fd5b50610108600480360360208110156100f857600080fd5b50356001600160a01b03166102ed565b60408051918252519081900360200190f35b34801561012657600080fd5b5061008d6004803603602081101561013d57600080fd5b50356001600160a01b0316610308565b61008d6004803603602081101561016357600080fd5b50356001600160a01b0316610400565b61017b6104d9565b6000546001600160a01b039081169116146101cb576040805162461bcd60e51b81526020600482018190526024820152600080516020610689833981519152604482015290519081900360640190fd5b6001600160a01b03811660008181526001602052604081208054919055906101f9908263ffffffff6104dd16565b6040805182815290516001600160a01b038416917f7084f5476618d8e60b11ef0d7d3f06914655adb8793e28ff7f018d4c76d505d5919081900360200190a25050565b6102446104d9565b6000546001600160a01b03908116911614610294576040805162461bcd60e51b81526020600482018190526024820152600080516020610689833981519152604482015290519081900360640190fd5b600080546040516001600160a01b03909116907f8be0079c531659141344cd1fd0a4f28419497f9722a3daafe3b4186f6b6457e0908390a3600080546001600160a01b0319169055565b6000546001600160a01b031690565b6001600160a01b031660009081526001602052604090205490565b6103106104d9565b6000546001600160a01b03908116911614610360576040805162461bcd60e51b81526020600482018190526024820152600080516020610689833981519152604482015290519081900360640190fd5b6001600160a01b0381166103a55760405162461bcd60e51b81526004018080602001828103825260268152602001806106296026913960400191505060405180910390fd5b600080546040516001600160a01b03808516939216917f8be0079c531659141344cd1fd0a4f28419497f9722a3daafe3b4186f6b6457e091a3600080546001600160a01b0319166001600160a01b0392909216919091179055565b6104086104d9565b6000546001600160a01b03908116911614610458576040805162461bcd60e51b81526020600482018190526024820152600080516020610689833981519152604482015290519081900360640190fd5b6001600160a01b0381166000908152600160205260409020543490610483908263ffffffff6105c716565b6001600160a01b038316600081815260016020908152604091829020939093558051848152905191927f2da466a7b24304f47e87fa2e1e5a81b9831ce54fec19055ce277ca2f39ba42c492918290030190a25050565b3390565b80471015610532576040805162461bcd60e51b815260206004820152601d60248201527f416464726573733a20696e73756666696369656e742062616c616e6365000000604482015290519081900360640190fd5b6040516000906001600160a01b0384169083908381818185875af1925050503d806000811461057d576040519150601f19603f3d011682016040523d82523d6000602084013e610582565b606091505b50509050806105c25760405162461bcd60e51b815260040180806020018281038252603a81526020018061064f603a913960400191505060405180910390fd5b505050565b600082820183811015610621576040805162461bcd60e51b815260206004820152601b60248201527f536166654d6174683a206164646974696f6e206f766572666c6f770000000000604482015290519081900360640190fd5b939250505056fe4f776e61626c653a206e6577206f776e657220697320746865207a65726f2061646472657373416464726573733a20756e61626c6520746f2073656e642076616c75652c20726563697069656e74206d617920686176652072657665727465644f776e61626c653a2063616c6c6572206973206e6f7420746865206f776e6572a2646970667358221220584304b5cf3c3b7b6cb4d248e2d5fa081d93bd657cba371cfbdbba10033ea0a064736f6c63430006090033",
  "immutableReferences": {},
  "source": "/*-----------------------------------------------------------V0.6.7\r\n__/\\\\\\\\\\\\\\\\\\\\\\\\\\ _____/\\\\\\\\\\\\\\\\\\ _______/\\\\../\\\\ ___/\\\\\\\\\\\\\\\\\\\\\\\\\\\\\\\r\n _\\/\\\\\\/////////\\\\\\ _/\\\\\\///////\\\\\\ ____\\//..\\//____\\/\\\\\\///////////__\r\n  _\\/\\\\\\.......\\/\\\\\\.\\/\\\\\\.....\\/\\\\\\ ________________\\/\\\\\\ ____________\r\n   _\\/\\\\\\\\\\\\\\\\\\\\\\\\\\/__\\/\\\\\\\\\\\\\\\\\\\\\\/_____/\\\\\\____/\\\\\\.\\/\\\\\\\\\\\\\\\\\\\\\\ ____\r\n    _\\/\\\\\\/////////____\\/\\\\\\//////\\\\\\ ___\\/\\\\\\___\\/\\\\\\.\\/\\\\\\///////______\r\n     _\\/\\\\\\ ____________\\/\\\\\\ ___\\//\\\\\\ __\\/\\\\\\___\\/\\\\\\.\\/\\\\\\ ____________\r\n      _\\/\\\\\\ ____________\\/\\\\\\ ____\\//\\\\\\ _\\/\\\\\\___\\/\\\\\\.\\/\\\\\\ ____________\r\n       _\\/\\\\\\ ____________\\/\\\\\\ _____\\//\\\\\\.\\//\\\\\\\\\\\\\\\\\\ _\\/\\\\\\ ____________\r\n        _\\/// _____________\\/// _______\\/// __\\///////// __\\/// _____________\r\n         *-------------------------------------------------------------------*/\r\n\r\n/*-----------------------------------------------------------------\r\n *  TO DO\r\n *\r\n *---------------------------------------------------------------*/\r\n\r\n// SPDX-License-Identifier: UNLICENSED\r\npragma solidity ^0.6.7;\r\n\r\nimport \"./PRUF_CORE.sol\";\r\n\r\ncontract ECR_NC is CORE {\r\n    using SafeMath for uint256;\r\n\r\n    /*\r\n     * @dev Verify user credentials\r\n     * Originating Address:\r\n     *      holds asset token at idxHash\r\n     */\r\n\r\n    modifier isAuthorized(bytes32 _idxHash) override {\r\n        uint256 tokenID = uint256(_idxHash);\r\n        require(\r\n            (AssetTokenContract.ownerOf(tokenID) == msg.sender), //msg.sender is token holder\r\n            \"TPSE:IA: Caller does not hold token\"\r\n        );\r\n        _;\r\n    }\r\n\r\n    //--------------------------------------------External Functions--------------------------\r\n\r\n    /*\r\n     * @dev puts asset into an escrow status for a certain time period\r\n     */\r\n    function setEscrow(\r\n        bytes32 _idxHash,\r\n        bytes32 _escrowOwnerHash,\r\n        uint256 _escrowTime,\r\n        uint8 _escrowStatus\r\n    ) external nonReentrant whenNotPaused isAuthorized(_idxHash) {\r\n        Record memory rec = getRecord(_idxHash);\r\n        uint256 escrowTime = now.add(_escrowTime);\r\n        uint8 newEscrowStatus;\r\n        AC memory AC_info = getACinfo(rec.assetClass);\r\n\r\n        require(\r\n            AC_info.custodyType == 2,\r\n            \"TPSE:SE: Contract not authorized for custodial assets\"\r\n        );\r\n\r\n        require((rec.rightsHolder != 0), \"SE: Record does not exist\");\r\n        require(\r\n            (rec.assetStatus > 49),\r\n            \"TPSE:SE: Only ACadmin authorized user can change status < 50\"\r\n        );\r\n        require(\r\n            (escrowTime >= now),\r\n            \"TPSE:SE:Escrow must be set to a time in the future\"\r\n        );\r\n        require(\r\n            (rec.assetStatus != 3) &&\r\n                (rec.assetStatus != 4) &&\r\n                (rec.assetStatus != 53) &&\r\n                (rec.assetStatus != 54) &&\r\n                (rec.assetStatus != 5) &&\r\n                (rec.assetStatus != 55),\r\n            \"TPSE:SE:Transferred, lost, or stolen status cannot be set to escrow.\"\r\n        );\r\n        require(\r\n            (_escrowStatus == 50) || (_escrowStatus == 56),\r\n            \"TPSE:SE:Must specify a valid escrow status >49\"\r\n        );\r\n\r\n        //^^^^^^^checks^^^^^^^^^\r\n\r\n        newEscrowStatus = _escrowStatus;\r\n        //^^^^^^^effects^^^^^^^^^\r\n\r\n        escrowMGRcontract.setEscrow(\r\n            _idxHash,\r\n            newEscrowStatus,\r\n            0,\r\n            _escrowOwnerHash,\r\n            escrowTime,\r\n            0x0,\r\n            0x0,\r\n            address(0),\r\n            address(0)\r\n        );\r\n        //^^^^^^^interactions^^^^^^^^^\r\n    }\r\n\r\n    /*\r\n     * @dev takes asset out of excrow status if time period has resolved || is escrow issuer\r\n     */\r\n    function endEscrow(bytes32 _idxHash) external nonReentrant {\r\n        bytes32 ownerHash = escrowMGRcontract.retrieveEscrowOwner(_idxHash);\r\n        Record memory rec = getRecord(_idxHash);\r\n        AC memory AC_info = getACinfo(rec.assetClass);\r\n        escrowData memory escrow = getEscrowData(_idxHash);\r\n\r\n        require(\r\n            AC_info.custodyType == 2,\r\n            \"TPSE:EE:Contract not authorized for custodial assets\"\r\n        );\r\n\r\n        require((rec.rightsHolder != 0), \"EE: Record does not exist\");\r\n        require(\r\n            (rec.assetStatus == 50) || (rec.assetStatus == 56),\r\n            \"TPSE:EE:record must be in escrow status <49\"\r\n        );\r\n        require(\r\n            (escrow.timelock < now) ||\r\n                (keccak256(abi.encodePacked(msg.sender)) == ownerHash),\r\n            \"TPSE:EE: Escrow period not ended and caller is not escrow owner\"\r\n        );\r\n        //^^^^^^^checks^^^^^^^^^\r\n\r\n        escrowMGRcontract.endEscrow(_idxHash);\r\n        //^^^^^^^interactions^^^^^^^^^\r\n    }\r\n}\r\n",
  "sourcePath": "C:\\Users\\drake\\onedrive\\documents\\dev\\pruf\\pruf_truffle\\contracts\\PRUF_ECR_NC.sol",
  "compiler": {
    "name": "solc",
    "version": "0.6.9+commit.3e3065ac.Emscripten.clang"
  },
  "schemaVersion": "3.2.2",
  "updatedAt": "2020-07-28T16:53:37.234Z",
  "devdoc": {
    "methods": {
      "OO_pause()": {
        "details": "Triggers stopped state."
      },
      "OO_unpause()": {
        "details": "Returns to normal state."
      },
      "owner()": {
        "details": "Returns the address of the current owner."
      },
      "paused()": {
        "details": "Returns true if the contract is paused, and false otherwise."
      },
      "payments(address)": {
        "details": "Returns the payments owed to an address.",
        "params": {
          "dest": "The creditor's address."
        }
      },
      "renounceOwnership()": {
        "details": "Leaves the contract without owner. It will not be possible to call `onlyOwner` functions anymore. Can only be called by the current owner. NOTE: Renouncing ownership will leave the contract without an owner, thereby removing any functionality that is only available to the owner."
      },
      "transferOwnership(address)": {
        "details": "Transfers ownership of the contract to a new account (`newOwner`). Can only be called by the current owner."
      },
      "withdrawPayments(address)": {
        "details": "Withdraw accumulated payments, forwarding all gas to the recipient. Note that _any_ account can call this function, not just the `payee`. This means that contracts unaware of the `PullPayment` protocol can still receive funds this way, by having a separate account call {withdrawPayments}. WARNING: Forwarding all gas opens the door to reentrancy vulnerabilities. Make sure you trust the recipient, or are either following the checks-effects-interactions pattern or using {ReentrancyGuard}.",
        "params": {
          "payee": "Whose payments will be withdrawn."
        }
      }
    }
  },
  "userdoc": {
    "methods": {}
  }
}