{
  "contractName": "ECR_MGR",
  "abi": [
    {
      "anonymous": false,
      "inputs": [
        {
          "indexed": true,
          "internalType": "address",
          "name": "previousOwner",
          "type": "address"
        },
        {
          "indexed": true,
          "internalType": "address",
          "name": "newOwner",
          "type": "address"
        }
      ],
      "name": "OwnershipTransferred",
      "type": "event"
    },
    {
      "anonymous": false,
      "inputs": [
        {
          "indexed": false,
          "internalType": "address",
          "name": "account",
          "type": "address"
        }
      ],
      "name": "Paused",
      "type": "event"
    },
    {
      "anonymous": false,
      "inputs": [
        {
          "indexed": false,
          "internalType": "string",
          "name": "_msg",
          "type": "string"
        }
      ],
      "name": "REPORT",
      "type": "event"
    },
    {
      "anonymous": false,
      "inputs": [
        {
          "indexed": false,
          "internalType": "address",
          "name": "account",
          "type": "address"
        }
      ],
      "name": "Unpaused",
      "type": "event"
    },
    {
      "inputs": [],
      "name": "OO_ResolveContractAddresses",
      "outputs": [],
      "stateMutability": "nonpayable",
      "type": "function"
    },
    {
      "inputs": [],
      "name": "OO_pause",
      "outputs": [],
      "stateMutability": "nonpayable",
      "type": "function"
    },
    {
      "inputs": [
        {
          "internalType": "address",
          "name": "_storageAddress",
          "type": "address"
        }
      ],
      "name": "OO_setStorageContract",
      "outputs": [],
      "stateMutability": "nonpayable",
      "type": "function"
    },
    {
      "inputs": [
        {
          "internalType": "address",
          "name": "_to",
          "type": "address"
        },
        {
          "internalType": "bytes32",
          "name": "_idxHash",
          "type": "bytes32"
        }
      ],
      "name": "OO_transferACToken",
      "outputs": [],
      "stateMutability": "nonpayable",
      "type": "function"
    },
    {
      "inputs": [],
      "name": "OO_unpause",
      "outputs": [],
      "stateMutability": "nonpayable",
      "type": "function"
    },
    {
      "inputs": [
        {
          "internalType": "address",
          "name": "",
          "type": "address"
        },
        {
          "internalType": "address",
          "name": "",
          "type": "address"
        },
        {
          "internalType": "uint256",
          "name": "",
          "type": "uint256"
        },
        {
          "internalType": "bytes",
          "name": "",
          "type": "bytes"
        }
      ],
      "name": "onERC721Received",
      "outputs": [
        {
          "internalType": "bytes4",
          "name": "",
          "type": "bytes4"
        }
      ],
      "stateMutability": "nonpayable",
      "type": "function"
    },
    {
      "inputs": [],
      "name": "owner",
      "outputs": [
        {
          "internalType": "address",
          "name": "",
          "type": "address"
        }
      ],
      "stateMutability": "view",
      "type": "function"
    },
    {
      "inputs": [],
      "name": "paused",
      "outputs": [
        {
          "internalType": "bool",
          "name": "",
          "type": "bool"
        }
      ],
      "stateMutability": "view",
      "type": "function"
    },
    {
      "inputs": [],
      "name": "renounceOwnership",
      "outputs": [],
      "stateMutability": "nonpayable",
      "type": "function"
    },
    {
      "inputs": [
        {
          "internalType": "address",
          "name": "_to",
          "type": "address"
        },
        {
          "internalType": "bytes32",
          "name": "_idxHash",
          "type": "bytes32"
        }
      ],
      "name": "transferAssetToken",
      "outputs": [],
      "stateMutability": "nonpayable",
      "type": "function"
    },
    {
      "inputs": [
        {
          "internalType": "address",
          "name": "newOwner",
          "type": "address"
        }
      ],
      "name": "transferOwnership",
      "outputs": [],
      "stateMutability": "nonpayable",
      "type": "function"
    },
    {
      "inputs": [
        {
          "internalType": "bytes32",
          "name": "_idxHash",
          "type": "bytes32"
        },
        {
          "internalType": "uint8",
          "name": "_newAssetStatus",
          "type": "uint8"
        },
        {
          "internalType": "uint8",
          "name": "_data",
          "type": "uint8"
        },
        {
          "internalType": "bytes32",
          "name": "_escrowOwnerAddressHash",
          "type": "bytes32"
        },
        {
          "internalType": "uint256",
          "name": "_timelock",
          "type": "uint256"
        },
        {
          "internalType": "bytes32",
          "name": "_ex1",
          "type": "bytes32"
        },
        {
          "internalType": "bytes32",
          "name": "_ex2",
          "type": "bytes32"
        },
        {
          "internalType": "address",
          "name": "_addr1",
          "type": "address"
        },
        {
          "internalType": "address",
          "name": "_addr2",
          "type": "address"
        }
      ],
      "name": "setEscrow",
      "outputs": [],
      "stateMutability": "nonpayable",
      "type": "function"
    },
    {
      "inputs": [
        {
          "internalType": "bytes32",
          "name": "_idxHash",
          "type": "bytes32"
        }
      ],
      "name": "endEscrow",
      "outputs": [],
      "stateMutability": "nonpayable",
      "type": "function"
    },
    {
      "inputs": [
        {
          "internalType": "bytes32",
          "name": "_idxHash",
          "type": "bytes32"
        }
      ],
      "name": "permissiveEndEscrow",
      "outputs": [],
      "stateMutability": "nonpayable",
      "type": "function"
    },
    {
      "inputs": [
        {
          "internalType": "bytes32",
          "name": "_idxHash",
          "type": "bytes32"
        }
      ],
      "name": "retrieveEscrowOwner",
      "outputs": [
        {
          "internalType": "bytes32",
          "name": "",
          "type": "bytes32"
        }
      ],
      "stateMutability": "view",
      "type": "function"
    },
    {
      "inputs": [
        {
          "internalType": "bytes32",
          "name": "_idxHash",
          "type": "bytes32"
        }
      ],
      "name": "retrieveEscrowData",
      "outputs": [
        {
          "internalType": "uint8",
          "name": "",
          "type": "uint8"
        },
        {
          "internalType": "bytes32",
          "name": "",
          "type": "bytes32"
        },
        {
          "internalType": "bytes32",
          "name": "",
          "type": "bytes32"
        },
        {
          "internalType": "uint256",
          "name": "",
          "type": "uint256"
        },
        {
          "internalType": "bytes32",
          "name": "",
          "type": "bytes32"
        },
        {
          "internalType": "bytes32",
          "name": "",
          "type": "bytes32"
        },
        {
          "internalType": "address",
          "name": "",
          "type": "address"
        },
        {
          "internalType": "address",
          "name": "",
          "type": "address"
        }
      ],
      "stateMutability": "view",
      "type": "function"
    }
  ],
  "bytecode": "0x608060405234801561001057600080fd5b50600160009081556100296001600160e01b0361008916565b600180546001600160a01b0319166001600160a01b038316908117909155604051919250906000907f8be0079c531659141344cd1fd0a4f28419497f9722a3daafe3b4186f6b6457e0908290a3506001805460ff60a01b1916905561008d565b3390565b611f418061009c6000396000f3fe608060405234801561001057600080fd5b50600436106101005760003560e01c8063a3b3fe5011610097578063df7518d211610066578063df7518d21461032f578063e8e1152c1461034c578063f2fc028414610369578063f2fde38b146103ca57610100565b8063a3b3fe5014610267578063c79b226e146102d5578063cf2b6f6614610301578063d6b02ecf1461030957610100565b80635c975abb116100d35780635c975abb14610217578063715018a6146102335780638da5cb5b1461023b578063961e809b1461025f57610100565b8063019b0f5f14610105578063150b7a0214610134578063440e7a7e146101e15780634b9f23a41461020f575b600080fd5b6101226004803603602081101561011b57600080fd5b50356103f0565b60408051918252519081900360200190f35b6101c46004803603608081101561014a57600080fd5b6001600160a01b0382358116926020810135909116916040820135919081019060808101606082013564010000000081111561018557600080fd5b82018360208201111561019757600080fd5b803590602001918460018302840111640100000000831117156101b957600080fd5b509092509050610408565b604080516001600160e01b03199092168252519081900360200190f35b61020d600480360360408110156101f757600080fd5b506001600160a01b038135169060200135610419565b005b61020d610550565b61021f610b84565b604080519115158252519081900360200190f35b61020d610b94565b610243610c36565b604080516001600160a01b039092168252519081900360200190f35b61020d610c45565b6102846004803603602081101561027d57600080fd5b5035610ca7565b6040805160ff90991689526020890197909752878701959095526060870193909352608086019190915260a08501526001600160a01b0390811660c08501521660e083015251908190036101000190f35b61020d600480360360408110156102eb57600080fd5b506001600160a01b038135169060200135610d54565b61020d610e54565b61020d6004803603602081101561031f57600080fd5b50356001600160a01b0316610eb4565b61020d6004803603602081101561034557600080fd5b5035610f73565b61020d6004803603602081101561036257600080fd5b50356111a4565b61020d600480360361012081101561038057600080fd5b5080359060ff602082013581169160408101359091169060608101359060808101359060a08101359060c0810135906001600160a01b0360e0820135811691610100013516611414565b61020d600480360360208110156103e057600080fd5b50356001600160a01b0316611884565b6000818152601360205260409020600201545b919050565b630a85bd0160e11b95945050505050565b6002600054141561045f576040805162461bcd60e51b815260206004820152601f6024820152600080516020611daf833981519152604482015290519081900360640190fd5b600260005561046c610c36565b6001600160a01b0316336001600160a01b0316148061049557506012546001600160a01b031633145b6104d05760405162461bcd60e51b8152600401808060200182810382526027815260200180611e4c6027913960400191505060405180910390fd5b60075460408051632142170760e11b81523060048201526001600160a01b038581166024830152604482018590529151849392909216916342842e0e9160648082019260009290919082900301818387803b15801561052e57600080fd5b505af1158015610542573d6000803e3d6000fd5b505060016000555050505050565b60026000541415610596576040805162461bcd60e51b815260206004820152601f6024820152600080516020611daf833981519152604482015290519081900360640190fd5b60026000556105a361197d565b6001546001600160a01b039081169116146105f3576040805162461bcd60e51b81526020600482018190526024820152600080516020611eec833981519152604482015290519081900360640190fd5b600354604080516363b8d4c160e11b8152602060048201819052600660248301526520a1afaa25a760d11b604483015291516001600160a01b039093169263c771a982926064808401939192918290030181600087803b15801561065657600080fd5b505af115801561066a573d6000803e3d6000fd5b505050506040513d602081101561068057600080fd5b5051600880546001600160a01b039283166001600160a01b0319918216179182905560098054909116918316919091179055600354604080516363b8d4c160e11b8152602060048201819052600660248301526520a1afa6a3a960d11b60448301529151929093169263c771a98292606480830193928290030181600087803b15801561070c57600080fd5b505af1158015610720573d6000803e3d6000fd5b505050506040513d602081101561073657600080fd5b5051600480546001600160a01b039283166001600160a01b03199182161780835560058054909216908416178155600354604080516363b8d4c160e11b8152602094810185905260248101939093526420afaa25a760d91b60448401525193169263c771a982926064808401939192918290030181600087803b1580156107bc57600080fd5b505af11580156107d0573d6000803e3d6000fd5b505050506040513d60208110156107e657600080fd5b5051600680546001600160a01b039283166001600160a01b0319918216179182905560078054909116918316919091178155600354604080516363b8d4c160e11b815260206004820181905260248201949094526622a1a92fa6a3a960c91b60448201529051919093169263c771a9829260648083019391928290030181600087803b15801561087557600080fd5b505af1158015610889573d6000803e3d6000fd5b505050506040513d602081101561089f57600080fd5b5051600a80546001600160a01b039283166001600160a01b03199182161791829055600b805490911691831691909117905560038054604080516363b8d4c160e11b815260206004820181905260248201949094526204150560ec1b60448201529051919093169263c771a9829260648083019391928290030181600087803b15801561092b57600080fd5b505af115801561093f573d6000803e3d6000fd5b505050506040513d602081101561095557600080fd5b5051600e80546001600160a01b039283166001600160a01b03199182161791829055600f8054909116918316919091179055600354604080516363b8d4c160e11b8152602060048083018290526024830152632921a62960e11b60448301529151929093169263c771a98292606480830193928290030181600087803b1580156109de57600080fd5b505af11580156109f2573d6000803e3d6000fd5b505050506040513d6020811015610a0857600080fd5b5051600c80546001600160a01b039283166001600160a01b03199182161791829055600d8054909116918316919091179055600354604080516363b8d4c160e11b815260206004820181905260066024830152654150505f4e4360d01b60448301529151929093169263c771a98292606480830193928290030181600087803b158015610a9457600080fd5b505af1158015610aa8573d6000803e3d6000fd5b505050506040513d6020811015610abe57600080fd5b5051601180546001600160a01b0319166001600160a01b03928316179055600354604080516363b8d4c160e11b8152602060048201819052600260248301526104e560f41b60448301529151929093169263c771a98292606480830193928290030181600087803b158015610b3257600080fd5b505af1158015610b46573d6000803e3d6000fd5b505050506040513d6020811015610b5c57600080fd5b5051601280546001600160a01b0319166001600160a01b039092169190911790556001600055565b600154600160a01b900460ff1690565b610b9c61197d565b6001546001600160a01b03908116911614610bec576040805162461bcd60e51b81526020600482018190526024820152600080516020611eec833981519152604482015290519081900360640190fd5b6001546040516000916001600160a01b0316907f8be0079c531659141344cd1fd0a4f28419497f9722a3daafe3b4186f6b6457e0908390a3600180546001600160a01b0319169055565b6001546001600160a01b031690565b610c4d61197d565b6001546001600160a01b03908116911614610c9d576040805162461bcd60e51b81526020600482018190526024820152600080516020611eec833981519152604482015290519081900360640190fd5b610ca5611981565b565b600080600080600080600080610cbb611d07565b5050506000968752505060136020908152604095869020865161010081018852815460ff1680825260018301549382018490526002830154988201899052600383015460608301819052600484015460808401819052600585015460a0850181905260068601546001600160a01b0390811660c087018190526007909701541660e0909501859052929b959a9950909750955093509091565b610d5c61197d565b6001546001600160a01b03908116911614610dac576040805162461bcd60e51b81526020600482018190526024820152600080516020611eec833981519152604482015290519081900360640190fd5b60026000541415610df2576040805162461bcd60e51b815260206004820152601f6024820152600080516020611daf833981519152604482015290519081900360640190fd5b6002600090815560095460408051632142170760e11b81523060048201526001600160a01b038681166024830152604482018690529151859492909316926342842e0e9260648084019391929182900301818387803b15801561052e57600080fd5b610e5c61197d565b6001546001600160a01b03908116911614610eac576040805162461bcd60e51b81526020600482018190526024820152600080516020611eec833981519152604482015290519081900360640190fd5b610ca5611a29565b610ebc61197d565b6001546001600160a01b03908116911614610f0c576040805162461bcd60e51b81526020600482018190526024820152600080516020611eec833981519152604482015290519081900360640190fd5b6001600160a01b038116610f515760405162461bcd60e51b8152600401808060200182810382526025815260200180611e276025913960400191505060405180910390fd5b600380546001600160a01b0319166001600160a01b0392909216919091179055565b60026000541415610fb9576040805162461bcd60e51b815260206004820152601f6024820152600080516020611daf833981519152604482015290519081900360640190fd5b6002600055600154600160a01b900460ff1615611010576040805162461bcd60e51b815260206004820152601060248201526f14185d5cd8589b194e881c185d5cd95960821b604482015290519081900360640190fd5b6000818152601360205260409020600301544211611075576040805162461bcd60e51b815260206004820152601960248201527f454d3a5045453a457363726f77206e6f74206578706972656400000000000000604482015290519081900360640190fd5b60008181526013602052604090205460c860ff909116106110c75760405162461bcd60e51b8152600401808060200182810382526032815260200180611dcf6032913960400191505060405180910390fd5b6000818152601360209081526040808320805460ff19168155600181018490556002810184905560038082018590556004820185905560058201859055600690910180546001600160a01b03191690555481513360601b81850152825160148183030181526034820180855281519190950120632e97876b60e01b90945260388101869052605881019390935290516001600160a01b0390911692632e97876b926078808201939182900301818387803b15801561118457600080fd5b505af1158015611198573d6000803e3d6000fd5b50506001600055505050565b600260005414156111ea576040805162461bcd60e51b815260206004820152601f6024820152600080516020611daf833981519152604482015290519081900360640190fd5b6002600055600154600160a01b900460ff1615611241576040805162461bcd60e51b815260206004820152601060248201526f14185d5cd8589b194e881c185d5cd95960821b604482015290519081900360640190fd5b611249611d4b565b61125282611ab7565b905061125c611d97565b61126a338360600151611c10565b90508160600151600014156112c6576040805162461bcd60e51b815260206004820152601b60248201527f454d3a45453a5265636f726420646f6573206e6f742065786973740000000000604482015290519081900360640190fd5b6112d38260200151611cb8565b60ff1660aa1461132a576040805162461bcd60e51b815260206004820152601960248201527f454d3a45453a4173736574206e6f7420696e20657363726f7700000000000000604482015290519081900360640190fd5b600083815260136020908152604090912060010154908201511461137f5760405162461bcd60e51b815260040180806020018281038252603b815260200180611eb1603b913960400191505060405180910390fd5b6000838152601360209081526040808320805460ff19168155600181018490556002810184905560038082018590556004808301869055600690920180546001600160a01b031916905554928501518251632e97876b60e01b8152918201889052602482015290516001600160a01b0390921692632e97876b9260448084019382900301818387803b15801561052e57600080fd5b6002600054141561145a576040805162461bcd60e51b815260206004820152601f6024820152600080516020611daf833981519152604482015290519081900360640190fd5b6002600055600154600160a01b900460ff16156114b1576040805162461bcd60e51b815260206004820152601060248201526f14185d5cd8589b194e881c185d5cd95960821b604482015290519081900360640190fd5b6114b9611d4b565b6114c28a611ab7565b90506114cc611d97565b6114da338360600151611c10565b602081015181519192509060ff166003146115265760405162461bcd60e51b815260040180806020018281038252603e815260200180611e73603e913960400191505060405180910390fd5b606083015161157c576040805162461bcd60e51b815260206004820152601b60248201527f454d3a53453a5265636f726420646f6573206e6f742065786973740000000000604482015290519081900360640190fd5b6000601360008e815260200190815260200160002060000160006101000a81548160ff021916908360ff1602179055506000801b601360008e8152602001908152602001600020600101819055506000801b601360008e8152602001908152602001600020600201819055506000601360008e8152602001908152602001600020600301819055506000801b601360008e8152602001908152602001600020600401819055506000801b601360008e8152602001908152602001600020600501819055506000601360008e815260200190815260200160002060060160006101000a8154816001600160a01b0302191690836001600160a01b031602179055506000601360008e815260200190815260200160002060060160006101000a8154816001600160a01b0302191690836001600160a01b0316021790555089601360008e815260200190815260200160002060000160006101000a81548160ff021916908360ff16021790555080601360008e81526020019081526020016000206001018190555088601360008e81526020019081526020016000206002018190555087601360008e81526020019081526020016000206003018190555086601360008e81526020019081526020016000206004018190555085601360008e81526020019081526020016000206005018190555084601360008e815260200190815260200160002060060160006101000a8154816001600160a01b0302191690836001600160a01b0316021790555083601360008e815260200190815260200160002060070160006101000a8154816001600160a01b0302191690836001600160a01b03160217905550600360009054906101000a90046001600160a01b03166001600160a01b03166345ae06358d8d85602001516040518463ffffffff1660e01b8152600401808481526020018360ff1660ff1681526020018281526020019350505050600060405180830381600087803b15801561185957600080fd5b505af115801561186d573d6000803e3d6000fd5b505060016000555050505050505050505050505050565b61188c61197d565b6001546001600160a01b039081169116146118dc576040805162461bcd60e51b81526020600482018190526024820152600080516020611eec833981519152604482015290519081900360640190fd5b6001600160a01b0381166119215760405162461bcd60e51b8152600401808060200182810382526026815260200180611e016026913960400191505060405180910390fd5b6001546040516001600160a01b038084169216907f8be0079c531659141344cd1fd0a4f28419497f9722a3daafe3b4186f6b6457e090600090a3600180546001600160a01b0319166001600160a01b0392909216919091179055565b3390565b600154600160a01b900460ff166119d6576040805162461bcd60e51b815260206004820152601460248201527314185d5cd8589b194e881b9bdd081c185d5cd95960621b604482015290519081900360640190fd5b6001805460ff60a01b191690557f5db9ee0a495bf2e6ff9c91a7834c1ba4fdd244a5e8aa4e537bd38aeae4b073aa611a0c61197d565b604080516001600160a01b039092168252519081900360200190a1565b600154600160a01b900460ff1615611a7b576040805162461bcd60e51b815260206004820152601060248201526f14185d5cd8589b194e881c185d5cd95960821b604482015290519081900360640190fd5b6001805460ff60a01b1916600160a01b1790557f62e78cea01bee320cd4e420270b5ea74000d11b0c9f74754ebdbfc544b05a258611a0c61197d565b611abf611d4b565b611ac7611d4b565b6000806000806000806000600360009054906101000a90046001600160a01b03166001600160a01b031663e248f2c48b6040518263ffffffff1660e01b81526004018082815260200191505060e060405180830381600087803b158015611b2d57600080fd5b505af1158015611b41573d6000803e3d6000fd5b505050506040513d60e0811015611b5757600080fd5b810190808051906020019092919080519060200190929190805190602001909291908051906020019092919080519060200190929190805190602001909291908051906020019092919050505096509650965096509650965096508688600001818152505085886020019060ff16908160ff16815250508488606001818152505083886080018181525050828860a0018181525050818860c0018181525050808860e00181815250505050505050505080915050919050565b611c18611d97565b611c20611d97565b6003546040805163caa496a960e01b81526001600160a01b03878116600483015260248201879052825193169263caa496a9926044808401939192918290030181600087803b158015611c7257600080fd5b505af1158015611c86573d6000803e3d6000fd5b505050506040513d6040811015611c9c57600080fd5b5080516020918201519183019190915260ff1681529392505050565b60008160ff16600614158015611cd257508160ff16603214155b8015611ce257508160ff16603814155b8015611cf257508160ff16603c14155b15611cff57506000610403565b5060aa610403565b6040805161010081018252600080825260208201819052918101829052606081018290526080810182905260a0810182905260c0810182905260e081019190915290565b6040805161012081018252600080825260208201819052918101829052606081018290526080810182905260a0810182905260c0810182905260e0810182905261010081019190915290565b60408051808201909152600080825260208201529056fe5265656e7472616e637947756172643a207265656e7472616e742063616c6c00454d3a5045453a457363726f77206e6f7420656e6461626c652077697468207065726d697373697665456e64457363726f774f776e61626c653a206e6577206f776e657220697320746865207a65726f2061646472657373423a5353433a2073746f7261676520616464726573732063616e6e6f74206265207a65726f50423a54583a496e76616c69642063616c6c657220666f72207472616e7366657220746f6b656e454d3a53453a20457363726f772063616e206f6e6c792062652073657420627920616e20617574686f72697a656420657363726f7720636f6e7472616374454d3a45453a4f6e6c7920636f6e747261637420776974682073616d65206e616d65206173207365747465722063616e20656e6420657363726f774f776e61626c653a2063616c6c6572206973206e6f7420746865206f776e6572a2646970667358221220030ab56a8f26b891fe5b7ecd8f12648914a8daefebb6aac6401469d9dbe2c8ee64736f6c63430006090033",
  "source": "/*-----------------------------------------------------------V0.6.8\r\n__/\\\\\\\\\\\\\\\\\\\\\\\\\\ _____/\\\\\\\\\\\\\\\\\\ _______/\\\\../\\\\ ___/\\\\\\\\\\\\\\\\\\\\\\\\\\\\\\\r\n _\\/\\\\\\/////////\\\\\\ _/\\\\\\///////\\\\\\ ____\\//..\\//____\\/\\\\\\///////////__\r\n  _\\/\\\\\\.......\\/\\\\\\.\\/\\\\\\.....\\/\\\\\\ ________________\\/\\\\\\ ____________\r\n   _\\/\\\\\\\\\\\\\\\\\\\\\\\\\\/__\\/\\\\\\\\\\\\\\\\\\\\\\/_____/\\\\\\____/\\\\\\.\\/\\\\\\\\\\\\\\\\\\\\\\ ____\r\n    _\\/\\\\\\/////////____\\/\\\\\\//////\\\\\\ ___\\/\\\\\\___\\/\\\\\\.\\/\\\\\\///////______\r\n     _\\/\\\\\\ ____________\\/\\\\\\ ___\\//\\\\\\ __\\/\\\\\\___\\/\\\\\\.\\/\\\\\\ ____________\r\n      _\\/\\\\\\ ____________\\/\\\\\\ ____\\//\\\\\\ _\\/\\\\\\___\\/\\\\\\.\\/\\\\\\ ____________\r\n       _\\/\\\\\\ ____________\\/\\\\\\ _____\\//\\\\\\.\\//\\\\\\\\\\\\\\\\\\ _\\/\\\\\\ ____________\r\n        _\\/// _____________\\/// _______\\/// __\\///////// __\\/// _____________\r\n         *-------------------------------------------------------------------*/\r\n\r\n/*-----------------------------------------------------------------\r\n *  TO DO\r\n *\r\n *-----------------------------------------------------------------\r\n */\r\n\r\n// SPDX-License-Identifier: UNLICENSED\r\npragma solidity ^0.6.7;\r\n\r\nimport \"./PRUF_BASIC.sol\";\r\nimport \"./Imports/Safemath.sol\";\r\n\r\ncontract ECR_MGR is BASIC {\r\n    using SafeMath for uint256;\r\n\r\n    struct escrowData {\r\n        uint8 data;\r\n        bytes32 controllingContractNameHash; //hash of the name of the controlling escrow contract\r\n        bytes32 escrowOwnerAddressHash; //hash of an address designated as an executor for the escrow contract\r\n        uint256 timelock;\r\n        bytes32 ex1;\r\n        bytes32 ex2;\r\n        address addr1;\r\n        address addr2;\r\n    }\r\n\r\n    mapping(bytes32 => escrowData) escrows;\r\n\r\n    function isLostOrStolen(uint8 _assetStatus) private pure returns (uint8) {\r\n        if (\r\n            (_assetStatus != 3) &&\r\n            (_assetStatus != 4) &&\r\n            (_assetStatus != 53) &&\r\n            (_assetStatus != 54)\r\n        ) {\r\n            return 0;\r\n        } else {\r\n            return 170;\r\n        }\r\n    }\r\n\r\n    function isEscrow(uint8 _assetStatus) private pure returns (uint8) {\r\n        if (\r\n            (_assetStatus != 6) &&\r\n            (_assetStatus != 50) &&\r\n            (_assetStatus != 56) &&\r\n            (_assetStatus != 60)\r\n        ) {\r\n            return 0;\r\n        } else {\r\n            return 170;\r\n        }\r\n    }\r\n\r\n    /*\r\n     * @dev Set an asset to escrow status (6/50/56). Sets timelock for unix timestamp of escrow end.\r\n     */\r\n    function setEscrow(\r\n        bytes32 _idxHash,\r\n        uint8 _newAssetStatus,\r\n        uint8 _data,\r\n        bytes32 _escrowOwnerAddressHash,\r\n        uint256 _timelock,\r\n        bytes32 _ex1,\r\n        bytes32 _ex2,\r\n        address _addr1,\r\n        address _addr2\r\n    ) external nonReentrant whenNotPaused {\r\n        Record memory rec = getRecord(_idxHash);\r\n        ContractDataHash memory contractInfo = getContractInfo(\r\n            msg.sender,\r\n            rec.assetClass\r\n        );\r\n        bytes32 controllingContractNameHash = contractInfo.nameHash;\r\n\r\n        require(\r\n            contractInfo.contractType == 3,\r\n            \"EM:SE: Escrow can only be set by an authorized escrow contract\"\r\n        );\r\n        require(rec.assetClass != 0, \"EM:SE:Record does not exist\");\r\n\r\n        // require(  //all of these are redundant because they throw in storage\r\n        //     isEscrow(_newAssetStatus) == 170,\r\n        //     \"EM:SE: Must set to an escrow status\"\r\n        // );\r\n        // require(\r\n        //     (isLostOrStolen(rec.assetStatus) == 0) &&\r\n        //         (rec.assetStatus != 5) &&\r\n        //         (rec.assetStatus != 55),\r\n        //     \"EM:SE: Txd, L/S status cannot be set to escrow.\"\r\n        // );\r\n        // require(\r\n        //     isEscrow(rec.assetStatus) == 0,\r\n        //     \"EM:SE: Asset already in escrow status.\"\r\n        // );\r\n\r\n        //^^^^^^^checks^^^^^^^^^\r\n\r\n        escrows[_idxHash].data = 0; //initialize escrow data\r\n        escrows[_idxHash].controllingContractNameHash = 0;\r\n        escrows[_idxHash].escrowOwnerAddressHash = 0;\r\n        escrows[_idxHash].timelock = 0;\r\n        escrows[_idxHash].ex1 = 0;\r\n        escrows[_idxHash].ex2 = 0;\r\n        escrows[_idxHash].addr1 = address(0);\r\n        escrows[_idxHash].addr1 = address(0);\r\n\r\n        escrows[_idxHash].data = _data;\r\n        escrows[_idxHash]\r\n            .controllingContractNameHash = controllingContractNameHash;\r\n        escrows[_idxHash].escrowOwnerAddressHash = _escrowOwnerAddressHash;\r\n        escrows[_idxHash].timelock = _timelock;\r\n        escrows[_idxHash].ex1 = _ex1;\r\n        escrows[_idxHash].ex2 = _ex2;\r\n        escrows[_idxHash].addr1 = _addr1;\r\n        escrows[_idxHash].addr2 = _addr2;\r\n\r\n        //^^^^^^^effects^^^^^^^^^\r\n\r\n        STOR.setEscrow(_idxHash, _newAssetStatus, contractInfo.nameHash);\r\n        //^^^^^^^interactions^^^^^^^^^\r\n    }\r\n\r\n    /*\r\n     * @dev remove an asset from escrow status\r\n     */\r\n    function endEscrow(bytes32 _idxHash) external nonReentrant whenNotPaused {\r\n        Record memory rec = getRecord(_idxHash);\r\n        ContractDataHash memory contractInfo = getContractInfo(\r\n            msg.sender,\r\n            rec.assetClass\r\n        );\r\n\r\n        require(rec.assetClass != 0, \"EM:EE:Record does not exist\");\r\n        require(isEscrow(rec.assetStatus) == 170, \"EM:EE:Asset not in escrow\");\r\n        require(\r\n            (contractInfo.nameHash ==\r\n                escrows[_idxHash].controllingContractNameHash),\r\n            \"EM:EE:Only contract with same name as setter can end escrow\"\r\n        );\r\n        \r\n\r\n        //^^^^^^^checks^^^^^^^^^\r\n\r\n        escrows[_idxHash].data = 0;\r\n        escrows[_idxHash].controllingContractNameHash = 0;\r\n        escrows[_idxHash].escrowOwnerAddressHash = 0;\r\n        escrows[_idxHash].timelock = 0;\r\n        escrows[_idxHash].ex1 = 0;\r\n        escrows[_idxHash].addr1 = address(0);\r\n        escrows[_idxHash].addr1 = address(0);\r\n        //^^^^^^^effects^^^^^^^^^\r\n\r\n        STOR.endEscrow(_idxHash, contractInfo.nameHash);\r\n        //^^^^^^^interactions^^^^^^^^^\r\n    }\r\n\r\n    /*\r\n     * @dev Permissive removal of asset from escrow status after time-out\r\n     */\r\n    function permissiveEndEscrow(bytes32 _idxHash)\r\n        external\r\n        nonReentrant\r\n        whenNotPaused\r\n    {\r\n        require(\r\n            escrows[_idxHash].timelock < block.timestamp,\r\n            \"EM:PEE:Escrow not expired\"\r\n        );\r\n        require( // do not allow escrows with escrow.data > 199 to be ended by this function\r\n            escrows[_idxHash].data < 200,\r\n            \"EM:PEE:Escrow not endable with permissiveEndEscrow\"\r\n        );\r\n        //^^^^^^^checks^^^^^^^^^\r\n\r\n        escrows[_idxHash].data = 0;\r\n        escrows[_idxHash].controllingContractNameHash = 0;\r\n        escrows[_idxHash].escrowOwnerAddressHash = 0;\r\n        escrows[_idxHash].timelock = 0;\r\n        escrows[_idxHash].ex1 = 0;\r\n        escrows[_idxHash].ex2 = 0;\r\n        escrows[_idxHash].addr1 = address(0);\r\n        escrows[_idxHash].addr1 = address(0);\r\n        //^^^^^^^effects^^^^^^^^^\r\n\r\n        STOR.endEscrow(_idxHash, keccak256(abi.encodePacked(msg.sender)));\r\n        //^^^^^^^interactions^^^^^^^^^\r\n    }\r\n\r\n    /*\r\n     * @dev return escrow OwnerHash\r\n     */\r\n    function retrieveEscrowOwner(bytes32 _idxHash)\r\n        external\r\n        view\r\n        returns (bytes32)\r\n    {\r\n        return escrows[_idxHash].escrowOwnerAddressHash;\r\n        //^^^^^^^checks/interactions^^^^^^^^^\r\n    }\r\n\r\n    /*\r\n     * @dev return complete escrow data\r\n     */\r\n    function retrieveEscrowData(bytes32 _idxHash)\r\n        external\r\n        view\r\n        returns (\r\n            uint8,\r\n            bytes32,\r\n            bytes32,\r\n            uint256,\r\n            bytes32,\r\n            bytes32,\r\n            address,\r\n            address\r\n        )\r\n    {\r\n        escrowData memory escrow = escrows[_idxHash];\r\n        return (\r\n            escrow.data,\r\n            escrow.controllingContractNameHash,\r\n            escrow.escrowOwnerAddressHash,\r\n            escrow.timelock,\r\n            escrow.ex1,\r\n            escrow.ex2,\r\n            escrow.addr1,\r\n            escrow.addr2\r\n        );\r\n        //^^^^^^^checks/interactions^^^^^^^^^\r\n    }\r\n}\r\n",
  "sourcePath": "C:\\Users\\Blayde\\Documents\\ETHDEV\\bulletproof\\PRUF_TRUFFLE\\contracts\\PRUF_ECR_MGR.sol",
  "compiler": {
    "name": "solc",
    "version": "0.6.9+commit.3e3065ac.Emscripten.clang"
  },
  "schemaVersion": "3.0.23",
  "updatedAt": "2020-08-20T17:17:06.268Z",
  "devdoc": {
    "methods": {
      "OO_pause()": {
        "details": "Triggers stopped state."
      },
      "OO_unpause()": {
        "details": "Returns to normal state."
      },
      "owner()": {
        "details": "Returns the address of the current owner."
      },
      "paused()": {
        "details": "Returns true if the contract is paused, and false otherwise."
      },
      "renounceOwnership()": {
        "details": "Leaves the contract without owner. It will not be possible to call `onlyOwner` functions anymore. Can only be called by the current owner. NOTE: Renouncing ownership will leave the contract without an owner, thereby removing any functionality that is only available to the owner."
      },
      "transferOwnership(address)": {
        "details": "Transfers ownership of the contract to a new account (`newOwner`). Can only be called by the current owner."
      }
    }
  },
  "userdoc": {
    "methods": {}
  }
}