{
  "contractName": "ECR_CORE",
  "abi": [
    {
      "anonymous": false,
      "inputs": [
        {
          "indexed": false,
          "internalType": "address",
          "name": "account",
          "type": "address"
        }
      ],
      "name": "Paused",
      "type": "event"
    },
    {
      "anonymous": false,
      "inputs": [
        {
          "indexed": false,
          "internalType": "string",
          "name": "_msg",
          "type": "string"
        }
      ],
      "name": "REPORT",
      "type": "event"
    },
    {
      "anonymous": false,
      "inputs": [
        {
          "indexed": true,
          "internalType": "bytes32",
          "name": "role",
          "type": "bytes32"
        },
        {
          "indexed": true,
          "internalType": "bytes32",
          "name": "previousAdminRole",
          "type": "bytes32"
        },
        {
          "indexed": true,
          "internalType": "bytes32",
          "name": "newAdminRole",
          "type": "bytes32"
        }
      ],
      "name": "RoleAdminChanged",
      "type": "event"
    },
    {
      "anonymous": false,
      "inputs": [
        {
          "indexed": true,
          "internalType": "bytes32",
          "name": "role",
          "type": "bytes32"
        },
        {
          "indexed": true,
          "internalType": "address",
          "name": "account",
          "type": "address"
        },
        {
          "indexed": true,
          "internalType": "address",
          "name": "sender",
          "type": "address"
        }
      ],
      "name": "RoleGranted",
      "type": "event"
    },
    {
      "anonymous": false,
      "inputs": [
        {
          "indexed": true,
          "internalType": "bytes32",
          "name": "role",
          "type": "bytes32"
        },
        {
          "indexed": true,
          "internalType": "address",
          "name": "account",
          "type": "address"
        },
        {
          "indexed": true,
          "internalType": "address",
          "name": "sender",
          "type": "address"
        }
      ],
      "name": "RoleRevoked",
      "type": "event"
    },
    {
      "anonymous": false,
      "inputs": [
        {
          "indexed": false,
          "internalType": "address",
          "name": "account",
          "type": "address"
        }
      ],
      "name": "Unpaused",
      "type": "event"
    },
    {
      "inputs": [],
      "name": "ASSET_TXFR_ROLE",
      "outputs": [
        {
          "internalType": "bytes32",
          "name": "",
          "type": "bytes32"
        }
      ],
      "stateMutability": "view",
      "type": "function"
    },
    {
      "inputs": [],
      "name": "CONTRACT_ADMIN_ROLE",
      "outputs": [
        {
          "internalType": "bytes32",
          "name": "",
          "type": "bytes32"
        }
      ],
      "stateMutability": "view",
      "type": "function"
    },
    {
      "inputs": [],
      "name": "DAO_ROLE",
      "outputs": [
        {
          "internalType": "bytes32",
          "name": "",
          "type": "bytes32"
        }
      ],
      "stateMutability": "view",
      "type": "function"
    },
    {
      "inputs": [],
      "name": "DEFAULT_ADMIN_ROLE",
      "outputs": [
        {
          "internalType": "bytes32",
          "name": "",
          "type": "bytes32"
        }
      ],
      "stateMutability": "view",
      "type": "function"
    },
    {
      "inputs": [
        {
          "internalType": "address",
          "name": "_tokenContract",
          "type": "address"
        },
        {
          "internalType": "address",
          "name": "_to",
          "type": "address"
        },
        {
          "internalType": "uint256",
          "name": "_amount",
          "type": "uint256"
        }
      ],
      "name": "ERC20Transfer",
      "outputs": [],
      "stateMutability": "nonpayable",
      "type": "function"
    },
    {
      "inputs": [
        {
          "internalType": "address",
          "name": "_tokenContract",
          "type": "address"
        },
        {
          "internalType": "address",
          "name": "_to",
          "type": "address"
        },
        {
          "internalType": "uint256",
          "name": "_tokenID",
          "type": "uint256"
        }
      ],
      "name": "ERC721Transfer",
      "outputs": [],
      "stateMutability": "nonpayable",
      "type": "function"
    },
    {
      "inputs": [],
      "name": "PAUSER_ROLE",
      "outputs": [
        {
          "internalType": "bytes32",
          "name": "",
          "type": "bytes32"
        }
      ],
      "stateMutability": "view",
      "type": "function"
    },
    {
      "inputs": [
        {
          "internalType": "bytes32",
          "name": "role",
          "type": "bytes32"
        }
      ],
      "name": "getRoleAdmin",
      "outputs": [
        {
          "internalType": "bytes32",
          "name": "",
          "type": "bytes32"
        }
      ],
      "stateMutability": "view",
      "type": "function"
    },
    {
      "inputs": [
        {
          "internalType": "bytes32",
          "name": "role",
          "type": "bytes32"
        },
        {
          "internalType": "address",
          "name": "account",
          "type": "address"
        }
      ],
      "name": "grantRole",
      "outputs": [],
      "stateMutability": "nonpayable",
      "type": "function"
    },
    {
      "inputs": [
        {
          "internalType": "bytes32",
          "name": "role",
          "type": "bytes32"
        },
        {
          "internalType": "address",
          "name": "account",
          "type": "address"
        }
      ],
      "name": "hasRole",
      "outputs": [
        {
          "internalType": "bool",
          "name": "",
          "type": "bool"
        }
      ],
      "stateMutability": "view",
      "type": "function"
    },
    {
      "inputs": [
        {
          "internalType": "address",
          "name": "",
          "type": "address"
        },
        {
          "internalType": "address",
          "name": "",
          "type": "address"
        },
        {
          "internalType": "uint256",
          "name": "",
          "type": "uint256"
        },
        {
          "internalType": "bytes",
          "name": "",
          "type": "bytes"
        }
      ],
      "name": "onERC721Received",
      "outputs": [
        {
          "internalType": "bytes4",
          "name": "",
          "type": "bytes4"
        }
      ],
      "stateMutability": "nonpayable",
      "type": "function"
    },
    {
      "inputs": [],
      "name": "pause",
      "outputs": [],
      "stateMutability": "nonpayable",
      "type": "function"
    },
    {
      "inputs": [],
      "name": "paused",
      "outputs": [
        {
          "internalType": "bool",
          "name": "",
          "type": "bool"
        }
      ],
      "stateMutability": "view",
      "type": "function"
    },
    {
      "inputs": [
        {
          "internalType": "bytes32",
          "name": "role",
          "type": "bytes32"
        },
        {
          "internalType": "address",
          "name": "account",
          "type": "address"
        }
      ],
      "name": "renounceRole",
      "outputs": [],
      "stateMutability": "nonpayable",
      "type": "function"
    },
    {
      "inputs": [],
      "name": "resolveContractAddresses",
      "outputs": [],
      "stateMutability": "nonpayable",
      "type": "function"
    },
    {
      "inputs": [
        {
          "internalType": "bytes32",
          "name": "role",
          "type": "bytes32"
        },
        {
          "internalType": "address",
          "name": "account",
          "type": "address"
        }
      ],
      "name": "revokeRole",
      "outputs": [],
      "stateMutability": "nonpayable",
      "type": "function"
    },
    {
      "inputs": [
        {
          "internalType": "address",
          "name": "_storageAddress",
          "type": "address"
        }
      ],
      "name": "setStorageContract",
      "outputs": [],
      "stateMutability": "nonpayable",
      "type": "function"
    },
    {
      "inputs": [
        {
          "internalType": "bytes4",
          "name": "interfaceId",
          "type": "bytes4"
        }
      ],
      "name": "supportsInterface",
      "outputs": [
        {
          "internalType": "bool",
          "name": "",
          "type": "bool"
        }
      ],
      "stateMutability": "view",
      "type": "function"
    },
    {
      "inputs": [],
      "name": "unpause",
      "outputs": [],
      "stateMutability": "nonpayable",
      "type": "function"
    }
  ],
  "bytecode": "0x60806040523480156200001157600080fd5b50600160009081556002805460ff191690556200002f90336200008d565b6200005b7f2ce8d04a9c35987429af538825cd2438cc5c5bb5dc427955f84daaa3ea105016336200008d565b620000877f65d7a28e3265b37a6474929f336521b332c1681b933f6cb9f3376673440d862a336200008d565b62000125565b6200009982826200009d565b5050565b60008281526001602090815260408083206001600160a01b038516845290915290205460ff16620000995760008281526001602081815260408084206001600160a01b0386168086529252808420805460ff19169093179092559051339285917f2f8788117e7eff1d82e926ec794901d17c78024a50270940304540a733656f0d9190a45050565b6116a680620001356000396000f3fe608060405234801561001057600080fd5b50600436106101215760003560e01c80638456cb59116100ad578063e59fdd3611610071578063e59fdd361461028a578063e5f815dc1461029d578063e63ab1e9146102b0578063e9c26518146102d7578063ee9c25c5146102fe57600080fd5b80638456cb591461024157806391d1485414610249578063a217fddf1461025c578063d547741f14610264578063dc38b0a21461027757600080fd5b8063248a9ca3116100f4578063248a9ca3146101e25780632f2ff15d1461020657806336568abe1461021b5780633f4ba83a1461022e5780635c975abb1461023657600080fd5b806301ffc9a7146101265780631429db5f1461014e578063150b7a02146101835780631da03312146101bb575b600080fd5b6101396101343660046113bf565b610306565b60405190151581526020015b60405180910390f35b6101757f7f1e4e9f3d9ba0452a25cfef4cd4c6ffc86158d06ed2f585fa0093e12dec429c81565b604051908152602001610145565b6101a26101913660046112b5565b630a85bd0160e11b95945050505050565b6040516001600160e01b03199091168152602001610145565b6101757f2ce8d04a9c35987429af538825cd2438cc5c5bb5dc427955f84daaa3ea10501681565b6101756101f0366004611376565b6000908152600160208190526040909120015490565b61021961021436600461138f565b61033d565b005b61021961022936600461138f565b610369565b6102196103ec565b60025460ff16610139565b61021961043c565b61013961025736600461138f565b61048a565b610175600081565b61021961027236600461138f565b6104b5565b61021961028536600461123a565b6104dc565b610219610298366004611274565b61058f565b6102196102ab366004611274565b610690565b6101757f65d7a28e3265b37a6474929f336521b332c1681b933f6cb9f3376673440d862a81565b6101757f3b5d4cc60d3ec3516ee8ae083bd60934f6eb2a6c54b1229985c41bfb092b260381565b610219610770565b60006001600160e01b03198216637965db0b60e01b148061033757506301ffc9a760e01b6001600160e01b03198316145b92915050565b6000828152600160208190526040909120015461035a8133610e53565b6103648383610eb7565b505050565b6001600160a01b03811633146103de5760405162461bcd60e51b815260206004820152602f60248201527f416363657373436f6e74726f6c3a2063616e206f6e6c792072656e6f756e636560448201526e103937b632b9903337b91039b2b63360891b60648201526084015b60405180910390fd5b6103e88282610f22565b5050565b6104167f65d7a28e3265b37a6474929f336521b332c1681b933f6cb9f3376673440d862a3361048a565b6104325760405162461bcd60e51b81526004016103d59061151b565b61043a610f89565b565b6104667f65d7a28e3265b37a6474929f336521b332c1681b933f6cb9f3376673440d862a3361048a565b6104825760405162461bcd60e51b81526004016103d59061151b565b61043a61101c565b60009182526001602090815260408084206001600160a01b0393909316845291905290205460ff1690565b600082815260016020819052604090912001546104d28133610e53565b6103648383610f22565b6105067f2ce8d04a9c35987429af538825cd2438cc5c5bb5dc427955f84daaa3ea1050163361048a565b6105225760405162461bcd60e51b81526004016103d590611491565b6001600160a01b03811661056d5760405162461bcd60e51b81526020600482015260126024820152710423a5353433a2041646472657373203d20360741b60448201526064016103d5565b600380546001600160a01b0319166001600160a01b0392909216919091179055565b6105b97f7f1e4e9f3d9ba0452a25cfef4cd4c6ffc86158d06ed2f585fa0093e12dec429c3361048a565b6105d55760405162461bcd60e51b81526004016103d5906114d8565b600260005414156105f85760405162461bcd60e51b81526004016103d590611561565b60026000556040516323b872dd60e01b81523060048201526001600160a01b038381166024830152604482018390528416906323b872dd90606401602060405180830381600087803b15801561064d57600080fd5b505af1158015610661573d6000803e3d6000fd5b505050506040513d601f19601f820116820180604052508101906106859190611354565b505060016000555050565b6106ba7f7f1e4e9f3d9ba0452a25cfef4cd4c6ffc86158d06ed2f585fa0093e12dec429c3361048a565b6106d65760405162461bcd60e51b81526004016103d5906114d8565b600260005414156106f95760405162461bcd60e51b81526004016103d590611561565b6002600055604051632142170760e11b81523060048201526001600160a01b038381166024830152604482018390528416906342842e0e90606401600060405180830381600087803b15801561074e57600080fd5b505af1158015610762573d6000803e3d6000fd5b505060016000555050505050565b600260005414156107935760405162461bcd60e51b81526004016103d590611561565b60026000556107c27f2ce8d04a9c35987429af538825cd2438cc5c5bb5dc427955f84daaa3ea1050163361048a565b6107de5760405162461bcd60e51b81526004016103d590611491565b6003546040516363b8d4c160e11b81526020600482015260086024820152672727a222afaa25a760c11b60448201526001600160a01b039091169063c771a9829060640160206040518083038186803b15801561083a57600080fd5b505afa15801561084e573d6000803e3d6000fd5b505050506040513d601f19601f820116820180604052508101906108729190611257565b600c80546001600160a01b039283166001600160a01b03199182168117909255600d805490911690911790556003546040516363b8d4c160e11b81526020600482015260086024820152672727a222afa6a3a960c11b604482015291169063c771a9829060640160206040518083038186803b1580156108f157600080fd5b505afa158015610905573d6000803e3d6000fd5b505050506040513d601f19601f820116820180604052508101906109299190611257565b600480546001600160a01b039283166001600160a01b031991821681178355600580549092161790556003546040516363b8d4c160e11b815292169163c771a9829161099391016020808252600990820152682727a222afa9aa27a960b91b604082015260600190565b60206040518083038186803b1580156109ab57600080fd5b505afa1580156109bf573d6000803e3d6000fd5b505050506040513d601f19601f820116820180604052508101906109e39190611257565b600680546001600160a01b039283166001600160a01b031991821681179092556007805490911690911790556003546040516363b8d4c160e11b81526020600482015260086024820152672aaa24a62faa25a760c11b604482015291169063c771a9829060640160206040518083038186803b158015610a6257600080fd5b505afa158015610a76573d6000803e3d6000fd5b505050506040513d601f19601f82011682018060405250810190610a9a9190611257565b600880546001600160a01b039283166001600160a01b031991821681179092556009805490911690911790556003546040516363b8d4c160e11b815260206004820152600560248201526420afaa25a760d91b604482015291169063c771a9829060640160206040518083038186803b158015610b1657600080fd5b505afa158015610b2a573d6000803e3d6000fd5b505050506040513d601f19601f82011682018060405250810190610b4e9190611257565b600a80546001600160a01b039283166001600160a01b03199182168117909255600b805490911690911790556003546040516363b8d4c160e11b815260206004820152600760248201526622a1a92fa6a3a960c91b604482015291169063c771a9829060640160206040518083038186803b158015610bcc57600080fd5b505afa158015610be0573d6000803e3d6000fd5b505050506040513d601f19601f82011682018060405250810190610c049190611257565b600e80546001600160a01b039283166001600160a01b03199182168117909255600f805490911690911790556003546040516363b8d4c160e11b815291169063c771a98290610c6d9060040160208082526003908201526204150560ec1b604082015260600190565b60206040518083038186803b158015610c8557600080fd5b505afa158015610c99573d6000803e3d6000fd5b505050506040513d601f19601f82011682018060405250810190610cbd9190611257565b601280546001600160a01b039283166001600160a01b031991821681179092556013805490911690911790556003546040516363b8d4c160e11b815291169063c771a98290610d27906004016020808252600490820152632921a62960e11b604082015260600190565b60206040518083038186803b158015610d3f57600080fd5b505afa158015610d53573d6000803e3d6000fd5b505050506040513d601f19601f82011682018060405250810190610d779190611257565b601080546001600160a01b039283166001600160a01b031991821681179092556011805490911690911790556003546040516363b8d4c160e11b81526020600482015260066024820152654150505f4e4360d01b604482015291169063c771a9829060640160206040518083038186803b158015610df457600080fd5b505afa158015610e08573d6000803e3d6000fd5b505050506040513d601f19601f82011682018060405250810190610e2c9190611257565b601480546001600160a01b0319166001600160a01b03929092169190911790556001600055565b610e5d828261048a565b6103e857610e75816001600160a01b03166014611097565b610e80836020611097565b604051602001610e919291906113e9565b60408051601f198184030181529082905262461bcd60e51b82526103d59160040161145e565b610ec1828261048a565b6103e85760008281526001602081815260408084206001600160a01b0386168086529252808420805460ff19169093179092559051339285917f2f8788117e7eff1d82e926ec794901d17c78024a50270940304540a733656f0d9190a45050565b610f2c828261048a565b156103e85760008281526001602090815260408083206001600160a01b0385168085529252808320805460ff1916905551339285917ff6391f5c32d9c69d2a47ea670b442974b53935d1edc7fd64eb21e047a839171b9190a45050565b60025460ff16610fd25760405162461bcd60e51b815260206004820152601460248201527314185d5cd8589b194e881b9bdd081c185d5cd95960621b60448201526064016103d5565b6002805460ff191690557f5db9ee0a495bf2e6ff9c91a7834c1ba4fdd244a5e8aa4e537bd38aeae4b073aa335b6040516001600160a01b03909116815260200160405180910390a1565b60025460ff16156110625760405162461bcd60e51b815260206004820152601060248201526f14185d5cd8589b194e881c185d5cd95960821b60448201526064016103d5565b6002805460ff191660011790557f62e78cea01bee320cd4e420270b5ea74000d11b0c9f74754ebdbfc544b05a258610fff3390565b606060006110a68360026115b0565b6110b1906002611598565b67ffffffffffffffff8111156110c9576110c9611642565b6040519080825280601f01601f1916602001820160405280156110f3576020820181803683370190505b509050600360fc1b8160008151811061110e5761110e61162c565b60200101906001600160f81b031916908160001a905350600f60fb1b8160018151811061113d5761113d61162c565b60200101906001600160f81b031916908160001a90535060006111618460026115b0565b61116c906001611598565b90505b60018111156111e4576f181899199a1a9b1b9c1cb0b131b232b360811b85600f16601081106111a0576111a061162c565b1a60f81b8282815181106111b6576111b661162c565b60200101906001600160f81b031916908160001a90535060049490941c936111dd816115ff565b905061116f565b5083156112335760405162461bcd60e51b815260206004820181905260248201527f537472696e67733a20686578206c656e67746820696e73756666696369656e7460448201526064016103d5565b9392505050565b60006020828403121561124c57600080fd5b813561123381611658565b60006020828403121561126957600080fd5b815161123381611658565b60008060006060848603121561128957600080fd5b833561129481611658565b925060208401356112a481611658565b929592945050506040919091013590565b6000806000806000608086880312156112cd57600080fd5b85356112d881611658565b945060208601356112e881611658565b935060408601359250606086013567ffffffffffffffff8082111561130c57600080fd5b818801915088601f83011261132057600080fd5b81358181111561132f57600080fd5b89602082850101111561134157600080fd5b9699959850939650602001949392505050565b60006020828403121561136657600080fd5b8151801515811461123357600080fd5b60006020828403121561138857600080fd5b5035919050565b600080604083850312156113a257600080fd5b8235915060208301356113b481611658565b809150509250929050565b6000602082840312156113d157600080fd5b81356001600160e01b03198116811461123357600080fd5b7f416363657373436f6e74726f6c3a206163636f756e74200000000000000000008152600083516114218160178501602088016115cf565b7001034b99036b4b9b9b4b733903937b6329607d1b60179184019182015283516114528160288401602088016115cf565b01602801949350505050565b602081526000825180602084015261147d8160408501602087016115cf565b601f01601f19169190910160400192915050565b60208082526027908201527f423a4d4f443a2d4941444d2043616c6c65722021434f4e54524143545f41444d604082015266494e5f524f4c4560c81b606082015260800190565b60208082526023908201527f423a4d4f443a2d4941444d2043616c6c6572202141535345545f545846525f526040820152624f4c4560e81b606082015260800190565b60208082526026908201527f423a4d4f442d49503a43616c6c696e672061646472657373206973206e6f74206040820152653830bab9b2b960d11b606082015260800190565b6020808252601f908201527f5265656e7472616e637947756172643a207265656e7472616e742063616c6c00604082015260600190565b600082198211156115ab576115ab611616565b500190565b60008160001904831182151516156115ca576115ca611616565b500290565b60005b838110156115ea5781810151838201526020016115d2565b838111156115f9576000848401525b50505050565b60008161160e5761160e611616565b506000190190565b634e487b7160e01b600052601160045260246000fd5b634e487b7160e01b600052603260045260246000fd5b634e487b7160e01b600052604160045260246000fd5b6001600160a01b038116811461166d57600080fd5b5056fea2646970667358221220d633bee926135dc7ed155ba4f0aa5a661f5d97ba319f0c1d3b001e1e1ab0a7ea64736f6c63430008070033",
  "immutableReferences": {},
  "source": "/*--------------------------------------------------------PRF0.8.7\n__/\\\\\\\\\\\\\\\\\\\\\\\\\\ _____/\\\\\\\\\\\\\\\\\\ _______/\\\\__/\\\\ ___/\\\\\\\\\\\\\\\\\\\\\\\\\\\\\\        \n__\\/\\\\\\/////////\\\\\\ _/\\\\\\///////\\\\\\ ____\\//__\\//____\\/\\\\\\///////////__       \n___\\/\\\\\\_______\\/\\\\\\_\\/\\\\\\_____\\/\\\\\\ ________________\\/\\\\\\ ____________      \n____\\/\\\\\\\\\\\\\\\\\\\\\\\\\\/__\\/\\\\\\\\\\\\\\\\\\\\\\/_____/\\\\\\____/\\\\\\_\\/\\\\\\\\\\\\\\\\\\\\\\ ____     \n_____\\/\\\\\\/////////____\\/\\\\\\//////\\\\\\ ___\\/\\\\\\___\\/\\\\\\_\\/\\\\\\///////______\n______\\/\\\\\\ ____________\\/\\\\\\ ___\\//\\\\\\ __\\/\\\\\\___\\/\\\\\\_\\/\\\\\\ ____________\n_______\\/\\\\\\ ____________\\/\\\\\\ ____\\//\\\\\\ _\\/\\\\\\___\\/\\\\\\_\\/\\\\\\ ____________\n________\\/\\\\\\ ____________\\/\\\\\\ _____\\//\\\\\\_\\//\\\\\\\\\\\\\\\\\\ _\\/\\\\\\ ____________\n_________\\/// _____________\\/// _______\\/// __\\///////// __\\/// _____________\n*---------------------------------------------------------------------------*/\n\n/*-----------------------------------------------------------------\n //Inheritable functions for core functionality\n *---------------------------------------------------------------*/\n\n// SPDX-License-Identifier: UNLICENSED\npragma solidity 0.8.7;\n\nimport \"../Resources/PRUF_BASIC.sol\";\n\ncontract ECR_CORE is BASIC {\n    /**\n     * @dev Sets escrow data\n     * @param _idxHash - hash of asset information created by frontend inputs\n     * @param _newAssetStatus - new escrow status of asset (see docs)\n     * @param _escrowOwnerAddressHash - hash of escrow controller address\n     * @param _timelock - timelock parameter for time controlled escrows\n     */\n    function _setEscrowData(\n        bytes32 _idxHash,\n        uint8 _newAssetStatus,\n        bytes32 _escrowOwnerAddressHash,\n        uint256 _timelock\n    ) internal whenNotPaused {\n        ECR_MGR.setEscrow(\n            _idxHash,\n            _newAssetStatus,\n            _escrowOwnerAddressHash,\n            _timelock\n        );\n        //^^^^^^^interactions^^^^^^^^^\n    }\n\n    /**\n     * @dev function for setting escrow data\n     * @param _idxHash - hash of asset information created by frontend inputs\n     * @param _escrowDataLight - escrowDataExtLight struct (see interfaces for struct definitions)\n     */\n    function _setEscrowDataLight(\n        bytes32 _idxHash,\n        escrowDataExtLight memory _escrowDataLight\n    ) internal whenNotPaused {\n        ECR_MGR.setEscrowDataLight(_idxHash, _escrowDataLight);\n        //^^^^^^^interactions^^^^^^^^^\n    }\n\n    /**\n     * @dev function for setting escrow data\n     * @param _idxHash - hash of asset information created by frontend inputs\n     * @param _escrowDataHeavy - escrowDataExtHeavy struct (see interfaces for struct definitions)\n     */\n    function _setEscrowDataHeavy(\n        bytes32 _idxHash,\n        escrowDataExtHeavy memory _escrowDataHeavy\n    ) internal whenNotPaused {\n        ECR_MGR.setEscrowDataHeavy(_idxHash, _escrowDataHeavy);\n        //^^^^^^^interactions^^^^^^^^^\n    }\n\n    /**\n     * @dev retrieves escrow data\n     * @param _idxHash - hash of asset information created by frontend inputs\n     * @return escrowData struct (see interfaces for struct definitions)\n     */\n    function getEscrowData(bytes32 _idxHash)\n        internal view\n        returns (escrowData memory)\n    {\n        escrowData memory escrow = ECR_MGR.retrieveEscrowData(_idxHash);\n        return (escrow);\n        //^^^^^^^interactions^^^^^^^^^\n    }\n\n    /**\n     * @dev retrieves extended escrow data\n     * @param _idxHash - hash of asset information created by frontend inputs\n     * @return escrowDataExtLight struct (see interfaces for struct definitions)\n     */\n    function getEscrowDataLight(bytes32 _idxHash)\n        internal view\n        returns (escrowDataExtLight memory)\n    {\n        escrowDataExtLight memory escrowDataLight = ECR_MGR\n            .retrieveEscrowDataLight(_idxHash);\n        return (escrowDataLight);\n        //^^^^^^^interactions^^^^^^^^^\n    }\n\n    /**\n     * @dev retrieves extended escrow data\n     * @param _idxHash - hash of asset information created by frontend inputs\n     * @return escrowDataExtHeavy struct (see interfaces for struct definitions)\n     */\n    function getEscrowDataHeavy(bytes32 _idxHash)\n        internal view\n        returns (escrowDataExtHeavy memory)\n    {\n        escrowDataExtHeavy memory escrowDataHeavy = ECR_MGR\n            .retrieveEscrowDataHeavy(_idxHash);\n        return (escrowDataHeavy);\n        //^^^^^^^interactions^^^^^^^^^\n    }\n}\n",
  "sourcePath": "/Users/drake/Documents/DEV/PRUF/PRUF_TRUFFLE/contracts/Resources/PRUF_ECR_CORE.sol",
  "compiler": {
    "name": "solc",
    "version": "0.8.7+commit.e28d00a7.Emscripten.clang"
  },
  "schemaVersion": "3.4.3",
  "updatedAt": "2022-04-27T15:21:40.462Z",
  "devdoc": {
    "kind": "dev",
    "methods": {
      "ERC20Transfer(address,address,uint256)": {
        "details": "send an ERC20 token from this contract",
        "params": {
          "_amount": "amount to transfer",
          "_to": "destination",
          "_tokenContract": "Address of foreign token contract"
        }
      },
      "ERC721Transfer(address,address,uint256)": {
        "details": "send an ERC721 token from this contract",
        "params": {
          "_to": "destination",
          "_tokenContract": "Address of foreign token contract",
          "_tokenID": "Token ID"
        }
      },
      "getRoleAdmin(bytes32)": {
        "details": "Returns the admin role that controls `role`. See {grantRole} and {revokeRole}. To change a role's admin, use {_setRoleAdmin}."
      },
      "grantRole(bytes32,address)": {
        "details": "Grants `role` to `account`. If `account` had not been already granted `role`, emits a {RoleGranted} event. Requirements: - the caller must have ``role``'s admin role."
      },
      "hasRole(bytes32,address)": {
        "details": "Returns `true` if `account` has been granted `role`."
      },
      "onERC721Received(address,address,uint256,bytes)": {
        "details": "Compliance for erc721 reciever See OZ documentation"
      },
      "paused()": {
        "details": "Returns true if the contract is paused, and false otherwise."
      },
      "renounceRole(bytes32,address)": {
        "details": "Revokes `role` from the calling account. Roles are often managed via {grantRole} and {revokeRole}: this function's purpose is to provide a mechanism for accounts to lose their privileges if they are compromised (such as when a trusted device is misplaced). If the calling account had been granted `role`, emits a {RoleRevoked} event. Requirements: - the caller must be `account`."
      },
      "resolveContractAddresses()": {
        "details": "Resolve contract addresses from STOR"
      },
      "revokeRole(bytes32,address)": {
        "details": "Revokes `role` from `account`. If `account` had been granted `role`, emits a {RoleRevoked} event. Requirements: - the caller must have ``role``'s admin role."
      },
      "setStorageContract(address)": {
        "details": "Set address of STOR contract to interface with",
        "params": {
          "_storageAddress": "address of PRUF_STOR"
        }
      },
      "supportsInterface(bytes4)": {
        "details": "See {IERC165-supportsInterface}."
      }
    },
    "version": 1
  },
  "userdoc": {
    "kind": "user",
    "methods": {},
    "version": 1
  }
}