{
  "contractName": "ECR_NC",
  "abi": [
    {
      "anonymous": false,
      "inputs": [
        {
          "indexed": true,
          "internalType": "address",
          "name": "previousOwner",
          "type": "address"
        },
        {
          "indexed": true,
          "internalType": "address",
          "name": "newOwner",
          "type": "address"
        }
      ],
      "name": "OwnershipTransferred",
      "type": "event"
    },
    {
      "anonymous": false,
      "inputs": [
        {
          "indexed": false,
          "internalType": "address",
          "name": "account",
          "type": "address"
        }
      ],
      "name": "Paused",
      "type": "event"
    },
    {
      "anonymous": false,
      "inputs": [
        {
          "indexed": false,
          "internalType": "string",
          "name": "_msg",
          "type": "string"
        }
      ],
      "name": "REPORT",
      "type": "event"
    },
    {
      "anonymous": false,
      "inputs": [
        {
          "indexed": false,
          "internalType": "address",
          "name": "account",
          "type": "address"
        }
      ],
      "name": "Unpaused",
      "type": "event"
    },
    {
      "inputs": [],
      "name": "OO_ResolveContractAddresses",
      "outputs": [],
      "stateMutability": "nonpayable",
      "type": "function"
    },
    {
      "inputs": [
        {
          "internalType": "address",
          "name": "_to",
          "type": "address"
        },
        {
          "internalType": "bytes32",
          "name": "_idxHash",
          "type": "bytes32"
        }
      ],
      "name": "OO_TX_AC_Token",
      "outputs": [],
      "stateMutability": "nonpayable",
      "type": "function"
    },
    {
      "inputs": [
        {
          "internalType": "address",
          "name": "_to",
          "type": "address"
        },
        {
          "internalType": "bytes32",
          "name": "_idxHash",
          "type": "bytes32"
        }
      ],
      "name": "OO_TX_asset_Token",
      "outputs": [],
      "stateMutability": "nonpayable",
      "type": "function"
    },
    {
      "inputs": [],
      "name": "OO_pause",
      "outputs": [],
      "stateMutability": "nonpayable",
      "type": "function"
    },
    {
      "inputs": [
        {
          "internalType": "address",
          "name": "_storageAddress",
          "type": "address"
        }
      ],
      "name": "OO_setStorageContract",
      "outputs": [],
      "stateMutability": "nonpayable",
      "type": "function"
    },
    {
      "inputs": [],
      "name": "OO_unpause",
      "outputs": [],
      "stateMutability": "nonpayable",
      "type": "function"
    },
    {
      "inputs": [
        {
          "internalType": "address",
          "name": "",
          "type": "address"
        },
        {
          "internalType": "address",
          "name": "",
          "type": "address"
        },
        {
          "internalType": "uint256",
          "name": "",
          "type": "uint256"
        },
        {
          "internalType": "bytes",
          "name": "",
          "type": "bytes"
        }
      ],
      "name": "onERC721Received",
      "outputs": [
        {
          "internalType": "bytes4",
          "name": "",
          "type": "bytes4"
        }
      ],
      "stateMutability": "nonpayable",
      "type": "function"
    },
    {
      "inputs": [],
      "name": "owner",
      "outputs": [
        {
          "internalType": "address",
          "name": "",
          "type": "address"
        }
      ],
      "stateMutability": "view",
      "type": "function"
    },
    {
      "inputs": [],
      "name": "paused",
      "outputs": [
        {
          "internalType": "bool",
          "name": "",
          "type": "bool"
        }
      ],
      "stateMutability": "view",
      "type": "function"
    },
    {
      "inputs": [],
      "name": "renounceOwnership",
      "outputs": [],
      "stateMutability": "nonpayable",
      "type": "function"
    },
    {
      "inputs": [
        {
          "internalType": "address",
          "name": "newOwner",
          "type": "address"
        }
      ],
      "name": "transferOwnership",
      "outputs": [],
      "stateMutability": "nonpayable",
      "type": "function"
    },
    {
      "inputs": [
        {
          "internalType": "bytes32",
          "name": "_idxHash",
          "type": "bytes32"
        },
        {
          "internalType": "bytes32",
          "name": "_escrowOwnerHash",
          "type": "bytes32"
        },
        {
          "internalType": "uint256",
          "name": "_escrowTime",
          "type": "uint256"
        },
        {
          "internalType": "uint8",
          "name": "_escrowStatus",
          "type": "uint8"
        }
      ],
      "name": "setEscrow",
      "outputs": [],
      "stateMutability": "nonpayable",
      "type": "function"
    },
    {
      "inputs": [
        {
          "internalType": "bytes32",
          "name": "_idxHash",
          "type": "bytes32"
        }
      ],
      "name": "endEscrow",
      "outputs": [],
      "stateMutability": "nonpayable",
      "type": "function"
    }
  ],
  "bytecode": "0x608060405234801561001057600080fd5b50600160009081556100296001600160e01b0361008916565b600180546001600160a01b0319166001600160a01b038316908117909155604051919250906000907f8be0079c531659141344cd1fd0a4f28419497f9722a3daafe3b4186f6b6457e0908290a3506001805460ff60a01b1916905561008d565b3390565b611d568061009c6000396000f3fe608060405234801561001057600080fd5b50600436106100cf5760003560e01c8063961e809b1161008c578063cf2b6f6611610066578063cf2b6f6614610265578063d6b02ecf1461026d578063e8e1152c14610293578063f2fde38b146102b0576100cf565b8063961e809b146101ff578063b1d83c1814610207578063b29c395914610233576100cf565b8063150b7a02146100d4578063466aafa4146101815780634b9f23a4146101af5780635c975abb146101b7578063715018a6146101d35780638da5cb5b146101db575b600080fd5b610164600480360360808110156100ea57600080fd5b6001600160a01b0382358116926020810135909116916040820135919081019060808101606082013564010000000081111561012557600080fd5b82018360208201111561013757600080fd5b8035906020019184600183028401116401000000008311171561015957600080fd5b5090925090506102d6565b604080516001600160e01b03199092168252519081900360200190f35b6101ad6004803603604081101561019757600080fd5b506001600160a01b0381351690602001356102e7565b005b6101ad610409565b6101bf610985565b604080519115158252519081900360200190f35b6101ad610995565b6101e3610a37565b604080516001600160a01b039092168252519081900360200190f35b6101ad610a46565b6101ad6004803603604081101561021d57600080fd5b506001600160a01b038135169060200135610aa8565b6101ad6004803603608081101561024957600080fd5b508035906020810135906040810135906060013560ff16610ba8565b6101ad611013565b6101ad6004803603602081101561028357600080fd5b50356001600160a01b0316611073565b6101ad600480360360208110156102a957600080fd5b5035611132565b6101ad600480360360208110156102c657600080fd5b50356001600160a01b0316611408565b630a85bd0160e11b95945050505050565b6102ef611501565b6001546001600160a01b0390811691161461033f576040805162461bcd60e51b81526020600482018190526024820152600080516020611c2f833981519152604482015290519081900360640190fd5b60026000541415610385576040805162461bcd60e51b815260206004820152601f6024820152600080516020611af4833981519152604482015290519081900360640190fd5b6002600090815560075460408051632142170760e11b81523060048201526001600160a01b038681166024830152604482018690529151859492909316926342842e0e9260648084019391929182900301818387803b1580156103e757600080fd5b505af11580156103fb573d6000803e3d6000fd5b505060016000555050505050565b6002600054141561044f576040805162461bcd60e51b815260206004820152601f6024820152600080516020611af4833981519152604482015290519081900360640190fd5b600260005561045c611501565b6001546001600160a01b039081169116146104ac576040805162461bcd60e51b81526020600482018190526024820152600080516020611c2f833981519152604482015290519081900360640190fd5b600354604080516363b8d4c160e11b8152602060048201819052600660248301526520a1afaa25a760d11b604483015291516001600160a01b039093169263c771a982926064808401939192918290030181600087803b15801561050f57600080fd5b505af1158015610523573d6000803e3d6000fd5b505050506040513d602081101561053957600080fd5b5051600880546001600160a01b039283166001600160a01b0319918216179182905560098054909116918316919091179055600354604080516363b8d4c160e11b8152602060048201819052600660248301526520a1afa6a3a960d11b60448301529151929093169263c771a98292606480830193928290030181600087803b1580156105c557600080fd5b505af11580156105d9573d6000803e3d6000fd5b505050506040513d60208110156105ef57600080fd5b5051600480546001600160a01b039283166001600160a01b03199182161780835560058054909216908416178155600354604080516363b8d4c160e11b8152602094810185905260248101939093526420afaa25a760d91b60448401525193169263c771a982926064808401939192918290030181600087803b15801561067557600080fd5b505af1158015610689573d6000803e3d6000fd5b505050506040513d602081101561069f57600080fd5b5051600680546001600160a01b039283166001600160a01b0319918216179182905560078054909116918316919091178155600354604080516363b8d4c160e11b815260206004820181905260248201949094526622a1a92fa6a3a960c91b60448201529051919093169263c771a9829260648083019391928290030181600087803b15801561072e57600080fd5b505af1158015610742573d6000803e3d6000fd5b505050506040513d602081101561075857600080fd5b5051600a80546001600160a01b039283166001600160a01b03199182161791829055600b805490911691831691909117905560038054604080516363b8d4c160e11b815260206004820181905260248201949094526204150560ec1b60448201529051919093169263c771a9829260648083019391928290030181600087803b1580156107e457600080fd5b505af11580156107f8573d6000803e3d6000fd5b505050506040513d602081101561080e57600080fd5b5051600e80546001600160a01b0319166001600160a01b03928316179055600354604080516363b8d4c160e11b815260206004820181905260066024830152654150505f4e4360d01b60448301529151929093169263c771a98292606480830193928290030181600087803b15801561088657600080fd5b505af115801561089a573d6000803e3d6000fd5b505050506040513d60208110156108b057600080fd5b5051600f80546001600160a01b0319166001600160a01b03928316179055600354604080516363b8d4c160e11b8152602060048083018290526024830152632921a62960e11b60448301529151929093169263c771a98292606480830193928290030181600087803b15801561092557600080fd5b505af1158015610939573d6000803e3d6000fd5b505050506040513d602081101561094f57600080fd5b5051600c80546001600160a01b03199081166001600160a01b039384161791829055600d80549290931691161790556001600055565b600154600160a01b900460ff1690565b61099d611501565b6001546001600160a01b039081169116146109ed576040805162461bcd60e51b81526020600482018190526024820152600080516020611c2f833981519152604482015290519081900360640190fd5b6001546040516000916001600160a01b0316907f8be0079c531659141344cd1fd0a4f28419497f9722a3daafe3b4186f6b6457e0908390a3600180546001600160a01b0319169055565b6001546001600160a01b031690565b610a4e611501565b6001546001600160a01b03908116911614610a9e576040805162461bcd60e51b81526020600482018190526024820152600080516020611c2f833981519152604482015290519081900360640190fd5b610aa6611505565b565b610ab0611501565b6001546001600160a01b03908116911614610b00576040805162461bcd60e51b81526020600482018190526024820152600080516020611c2f833981519152604482015290519081900360640190fd5b60026000541415610b46576040805162461bcd60e51b815260206004820152601f6024820152600080516020611af4833981519152604482015290519081900360640190fd5b6002600090815560095460408051632142170760e11b81523060048201526001600160a01b038681166024830152604482018690529151859492909316926342842e0e9260648084019391929182900301818387803b1580156103e757600080fd5b60026000541415610bee576040805162461bcd60e51b815260206004820152601f6024820152600080516020611af4833981519152604482015290519081900360640190fd5b6002600055600154600160a01b900460ff1615610c45576040805162461bcd60e51b815260206004820152601060248201526f14185d5cd8589b194e881c185d5cd95960821b604482015290519081900360640190fd5b600754604080516331a9108f60e11b81526004810187905290518692839233926001600160a01b0390921691636352211e916024808201926020929091908290030181600087803b158015610c9957600080fd5b505af1158015610cad573d6000803e3d6000fd5b505050506040513d6020811015610cc357600080fd5b50516001600160a01b031614610d0a5760405162461bcd60e51b8152600401808060200182810382526023815260200180611c8b6023913960400191505060405180910390fd5b610d12611a4c565b610d1b876115ad565b90506000610d2f428763ffffffff61175616565b90506000610d3b611a98565b610d493085606001516117b7565b805190915060ff16610d8c5760405162461bcd60e51b8152600401808060200182810382526034815260200180611cae6034913960400191505060405180910390fd5b8351610ddf576040805162461bcd60e51b815260206004820152601960248201527f53453a205265636f726420646f6573206e6f7420657869737400000000000000604482015290519081900360640190fd5b6031846020015160ff1611610e255760405162461bcd60e51b815260040180806020018281038252603c815260200180611c4f603c913960400191505060405180910390fd5b42831015610e645760405162461bcd60e51b8152600401808060200182810382526032815260200180611bfd6032913960400191505060405180910390fd5b836020015160ff16600314158015610e845750836020015160ff16600414155b8015610e985750836020015160ff16603514155b8015610eac5750836020015160ff16603614155b8015610ec05750836020015160ff16600514155b8015610ed45750836020015160ff16603714155b610f0f5760405162461bcd60e51b8152600401808060200182810382526044815260200180611b3f6044913960600191505060405180910390fd5b8660ff1660321480610f2457508660ff166038145b610f5f5760405162461bcd60e51b815260040180806020018281038252602e815260200180611ba9602e913960400191505060405180910390fd5b600b5460408051633cbf00a160e21b8152600481018d905260ff8a166024820152600060448201819052606482018d90526084820187905260a4820181905260c4820181905260e48201819052610104820181905291518a95506001600160a01b039093169263f2fc0284926101248084019391929182900301818387803b158015610fea57600080fd5b505af1158015610ffe573d6000803e3d6000fd5b50506001600055505050505050505050505050565b61101b611501565b6001546001600160a01b0390811691161461106b576040805162461bcd60e51b81526020600482018190526024820152600080516020611c2f833981519152604482015290519081900360640190fd5b610aa6611862565b61107b611501565b6001546001600160a01b039081169116146110cb576040805162461bcd60e51b81526020600482018190526024820152600080516020611c2f833981519152604482015290519081900360640190fd5b6001600160a01b0381166111105760405162461bcd60e51b8152600401808060200182810382526026815260200180611bd76026913960400191505060405180910390fd5b600380546001600160a01b0319166001600160a01b0392909216919091179055565b60026000541415611178576040805162461bcd60e51b815260206004820152601f6024820152600080516020611af4833981519152604482015290519081900360640190fd5b60026000908155600b546040805163019b0f5f60e01b81526004810185905290516001600160a01b039092169163019b0f5f9160248082019260209290919082900301818787803b1580156111cc57600080fd5b505af11580156111e0573d6000803e3d6000fd5b505050506040513d60208110156111f657600080fd5b50519050611202611a4c565b61120b836115ad565b9050611215611aaf565b61121e846118f0565b9050611228611a98565b6112363084606001516117b7565b805190915060ff166112795760405162461bcd60e51b8152600401808060200182810382526034815260200180611cae6034913960400191505060405180910390fd5b82516112cc576040805162461bcd60e51b815260206004820152601960248201527f45453a205265636f726420646f6573206e6f7420657869737400000000000000604482015290519081900360640190fd5b826020015160ff16603214806112e95750826020015160ff166038145b6113245760405162461bcd60e51b815260040180806020018281038252602b815260200180611b14602b913960400191505060405180910390fd5b428260600151108061135c5750604080513360601b602080830191909152825180830360140181526034909201909252805191012084145b6113975760405162461bcd60e51b815260040180806020018281038252603f815260200180611ce2603f913960400191505060405180910390fd5b600b5460408051633a38454b60e21b81526004810188905290516001600160a01b039092169163e8e1152c9160248082019260009290919082900301818387803b1580156113e457600080fd5b505af11580156113f8573d6000803e3d6000fd5b5050600160005550505050505050565b611410611501565b6001546001600160a01b03908116911614611460576040805162461bcd60e51b81526020600482018190526024820152600080516020611c2f833981519152604482015290519081900360640190fd5b6001600160a01b0381166114a55760405162461bcd60e51b8152600401808060200182810382526026815260200180611b836026913960400191505060405180910390fd5b6001546040516001600160a01b038084169216907f8be0079c531659141344cd1fd0a4f28419497f9722a3daafe3b4186f6b6457e090600090a3600180546001600160a01b0319166001600160a01b0392909216919091179055565b3390565b600154600160a01b900460ff1661155a576040805162461bcd60e51b815260206004820152601460248201527314185d5cd8589b194e881b9bdd081c185d5cd95960621b604482015290519081900360640190fd5b6001805460ff60a01b191690557f5db9ee0a495bf2e6ff9c91a7834c1ba4fdd244a5e8aa4e537bd38aeae4b073aa611590611501565b604080516001600160a01b039092168252519081900360200190a1565b6115b5611a4c565b6115bd611a4c565b6000806000806000806000806000600360009054906101000a90046001600160a01b03166001600160a01b031663e248f2c48d6040518263ffffffff1660e01b81526004018082815260200191505061012060405180830381600087803b15801561162757600080fd5b505af115801561163b573d6000803e3d6000fd5b505050506040513d61012081101561165257600080fd5b81019080805190602001909291908051906020019092919080519060200190929190805190602001909291908051906020019092919080519060200190929190805190602001909291908051906020019092919080519060200190929190505050985098509850985098509850985098509850888a6000018181525050878a6020019060ff16908160ff1681525050868a6040019060ff16908160ff1681525050858a6060019061ffff16908161ffff1681525050848a6080018181525050838a60a0018181525050828a60c0018181525050818a60e0018181525050808a610100019061ffff16908161ffff168152505050505050505050505080915050919050565b6000828201838110156117b0576040805162461bcd60e51b815260206004820152601b60248201527f536166654d6174683a206164646974696f6e206f766572666c6f770000000000604482015290519081900360640190fd5b9392505050565b6117bf611a98565b6117c7611a98565b60035460408051634f3f9fb160e11b81526001600160a01b03878116600483015261ffff871660248301528251931692639e7f3f62926044808401939192918290030181600087803b15801561181c57600080fd5b505af1158015611830573d6000803e3d6000fd5b505050506040513d604081101561184657600080fd5b5080516020918201519183019190915260ff1681529392505050565b600154600160a01b900460ff16156118b4576040805162461bcd60e51b815260206004820152601060248201526f14185d5cd8589b194e881c185d5cd95960821b604482015290519081900360640190fd5b6001805460ff60a01b1916600160a01b1790557f62e78cea01bee320cd4e420270b5ea74000d11b0c9f74754ebdbfc544b05a258611590611501565b6118f8611aaf565b611900611aaf565b600b5460408051630a3b3fe560e41b81526004810186905290516001600160a01b039092169163a3b3fe5091602480820192610100929091908290030181600087803b15801561194f57600080fd5b505af1158015611963573d6000803e3d6000fd5b505050506040513d61010081101561197a57600080fd5b81019080805190602001909291908051906020019092919080519060200190929190805190602001909291908051906020019092919080519060200190929190805190602001909291908051906020019092919050505088600001896020018a6040018b6060018c6080018d60a0018e60c0018f60e001886001600160a01b03166001600160a01b0316815250886001600160a01b03166001600160a01b031681525088815250888152508881525088815250888152508860ff1660ff16815250505050505050505080915050919050565b6040805161012081018252600080825260208201819052918101829052606081018290526080810182905260a0810182905260c0810182905260e0810182905261010081019190915290565b604080518082019091526000808252602082015290565b6040805161010081018252600080825260208201819052918101829052606081018290526080810182905260a0810182905260c0810182905260e08101919091529056fe5265656e7472616e637947756172643a207265656e7472616e742063616c6c00545053453a45453a7265636f7264206d75737420626520696e20657363726f7720737461747573203c3439545053453a53453a5472616e736665727265642c206c6f73742c206f722073746f6c656e207374617475732063616e6e6f742062652073657420746f20657363726f772e4f776e61626c653a206e6577206f776e657220697320746865207a65726f2061646472657373545053453a53453a4d757374207370656369667920612076616c696420657363726f7720737461747573203e343950423a5353433a2073746f7261676520616464726573732063616e6e6f74206265207a65726f545053453a53453a457363726f77206d7573742062652073657420746f20612074696d6520696e20746865206675747572654f776e61626c653a2063616c6c6572206973206e6f7420746865206f776e6572545053453a53453a204f6e6c7920414361646d696e20617574686f72697a656420757365722063616e206368616e676520737461747573203c203530545053453a49413a2043616c6c657220646f6573206e6f7420686f6c6420746f6b656e504e503a4d533a20436f6e7472616374206e6f7420617574686f72697a656420666f72207468697320617373657420636c617373545053453a45453a20457363726f7720706572696f64206e6f7420656e64656420616e642063616c6c6572206973206e6f7420657363726f77206f776e6572a264697066735822122098394a0fd2c9d7113be0cbd0cf8200f2fdb7863581620af9cc9836222bdd65e664736f6c63430006090033",
  "source": "/*-----------------------------------------------------------V0.6.7\r\n__/\\\\\\\\\\\\\\\\\\\\\\\\\\ _____/\\\\\\\\\\\\\\\\\\ _______/\\\\../\\\\ ___/\\\\\\\\\\\\\\\\\\\\\\\\\\\\\\\r\n _\\/\\\\\\/////////\\\\\\ _/\\\\\\///////\\\\\\ ____\\//..\\//____\\/\\\\\\///////////__\r\n  _\\/\\\\\\.......\\/\\\\\\.\\/\\\\\\.....\\/\\\\\\ ________________\\/\\\\\\ ____________\r\n   _\\/\\\\\\\\\\\\\\\\\\\\\\\\\\/__\\/\\\\\\\\\\\\\\\\\\\\\\/_____/\\\\\\____/\\\\\\.\\/\\\\\\\\\\\\\\\\\\\\\\ ____\r\n    _\\/\\\\\\/////////____\\/\\\\\\//////\\\\\\ ___\\/\\\\\\___\\/\\\\\\.\\/\\\\\\///////______\r\n     _\\/\\\\\\ ____________\\/\\\\\\ ___\\//\\\\\\ __\\/\\\\\\___\\/\\\\\\.\\/\\\\\\ ____________\r\n      _\\/\\\\\\ ____________\\/\\\\\\ ____\\//\\\\\\ _\\/\\\\\\___\\/\\\\\\.\\/\\\\\\ ____________\r\n       _\\/\\\\\\ ____________\\/\\\\\\ _____\\//\\\\\\.\\//\\\\\\\\\\\\\\\\\\ _\\/\\\\\\ ____________\r\n        _\\/// _____________\\/// _______\\/// __\\///////// __\\/// _____________\r\n         *-------------------------------------------------------------------*/\r\n\r\n/*-----------------------------------------------------------------\r\n *  TO DO\r\n *\r\n *---------------------------------------------------------------*/\r\n\r\n// SPDX-License-Identifier: UNLICENSED\r\npragma solidity ^0.6.7;\r\n\r\nimport \"./PRUF_ECR_CORE.sol\";\r\n\r\ncontract ECR_NC is ECR_CORE {\r\n    using SafeMath for uint256;\r\n\r\n    /*\r\n     * @dev Verify user credentials\r\n     * Originating Address:\r\n     *      holds asset token at idxHash\r\n     */\r\n\r\n    modifier isAuthorized(bytes32 _idxHash) override {\r\n        uint256 tokenID = uint256(_idxHash);\r\n        require(\r\n            (AssetTokenContract.ownerOf(tokenID) == msg.sender), //msg.sender is token holder\r\n            \"TPSE:IA: Caller does not hold token\"\r\n        );\r\n        _;\r\n    }\r\n\r\n    //--------------------------------------------External Functions--------------------------\r\n\r\n    /*\r\n     * @dev puts asset into an escrow status for a certain time period\r\n     */\r\n    function setEscrow(\r\n        bytes32 _idxHash,\r\n        bytes32 _escrowOwnerHash,\r\n        uint256 _escrowTime,\r\n        uint8 _escrowStatus\r\n    ) external nonReentrant whenNotPaused isAuthorized(_idxHash) {\r\n        Record memory rec = getRecord(_idxHash);\r\n        uint256 escrowTime = now.add(_escrowTime);\r\n        uint8 newEscrowStatus;\r\n        ContractDataHash memory contractInfo = getContractInfo(address(this),rec.assetClass);\r\n\r\n        require(\r\n            contractInfo.contractType > 0,\r\n            \"PNP:MS: Contract not authorized for this asset class\"\r\n        );\r\n\r\n        require((rec.rightsHolder != 0), \"SE: Record does not exist\");\r\n        require(\r\n            (rec.assetStatus > 49),\r\n            \"TPSE:SE: Only ACadmin authorized user can change status < 50\"\r\n        );\r\n        require(\r\n            (escrowTime >= now),\r\n            \"TPSE:SE:Escrow must be set to a time in the future\"\r\n        );\r\n        require(\r\n            (rec.assetStatus != 3) &&\r\n                (rec.assetStatus != 4) &&\r\n                (rec.assetStatus != 53) &&\r\n                (rec.assetStatus != 54) &&\r\n                (rec.assetStatus != 5) &&\r\n                (rec.assetStatus != 55),\r\n            \"TPSE:SE:Transferred, lost, or stolen status cannot be set to escrow.\"\r\n        );\r\n        require(\r\n            (_escrowStatus == 50) || (_escrowStatus == 56),\r\n            \"TPSE:SE:Must specify a valid escrow status >49\"\r\n        );\r\n\r\n        //^^^^^^^checks^^^^^^^^^\r\n\r\n        newEscrowStatus = _escrowStatus;\r\n        //^^^^^^^effects^^^^^^^^^\r\n\r\n        escrowMGRcontract.setEscrow(\r\n            _idxHash,\r\n            newEscrowStatus,\r\n            0,\r\n            _escrowOwnerHash,\r\n            escrowTime,\r\n            0x0,\r\n            0x0,\r\n            address(0),\r\n            address(0)\r\n        );\r\n        //^^^^^^^interactions^^^^^^^^^\r\n    }\r\n\r\n    /*\r\n     * @dev takes asset out of excrow status if time period has resolved || is escrow issuer\r\n     */\r\n    function endEscrow(bytes32 _idxHash) external nonReentrant {\r\n        bytes32 ownerHash = escrowMGRcontract.retrieveEscrowOwner(_idxHash);\r\n        Record memory rec = getRecord(_idxHash);\r\n        escrowData memory escrow = getEscrowData(_idxHash);\r\n        ContractDataHash memory contractInfo = getContractInfo(address(this),rec.assetClass);\r\n\r\n        require(\r\n            contractInfo.contractType > 0,\r\n            \"PNP:MS: Contract not authorized for this asset class\"\r\n        );\r\n\r\n        require((rec.rightsHolder != 0), \"EE: Record does not exist\");\r\n        require(\r\n            (rec.assetStatus == 50) || (rec.assetStatus == 56),\r\n            \"TPSE:EE:record must be in escrow status <49\"\r\n        );\r\n        require(\r\n            (escrow.timelock < now) ||\r\n                (keccak256(abi.encodePacked(msg.sender)) == ownerHash),\r\n            \"TPSE:EE: Escrow period not ended and caller is not escrow owner\"\r\n        );\r\n        //^^^^^^^checks^^^^^^^^^\r\n\r\n        escrowMGRcontract.endEscrow(_idxHash);\r\n        //^^^^^^^interactions^^^^^^^^^\r\n    }\r\n}\r\n",
  "sourcePath": "C:\\Users\\Blayde\\Documents\\ETHDEV\\bulletproof\\PRUF_TRUFFLE\\contracts\\PRUF_ECR_NC.sol",
  "compiler": {
    "name": "solc",
    "version": "0.6.9+commit.3e3065ac.Emscripten.clang"
  },
  "schemaVersion": "3.0.23",
  "updatedAt": "2020-08-04T15:47:59.813Z",
  "devdoc": {
    "methods": {
      "OO_pause()": {
        "details": "Triggers stopped state."
      },
      "OO_unpause()": {
        "details": "Returns to normal state."
      },
      "owner()": {
        "details": "Returns the address of the current owner."
      },
      "paused()": {
        "details": "Returns true if the contract is paused, and false otherwise."
      },
      "renounceOwnership()": {
        "details": "Leaves the contract without owner. It will not be possible to call `onlyOwner` functions anymore. Can only be called by the current owner. NOTE: Renouncing ownership will leave the contract without an owner, thereby removing any functionality that is only available to the owner."
      },
      "transferOwnership(address)": {
        "details": "Transfers ownership of the contract to a new account (`newOwner`). Can only be called by the current owner."
      }
    }
  },
  "userdoc": {
    "methods": {}
  }
}