{
  "contractName": "EnumerableBytes32SetMock",
  "abi": [
    {
      "anonymous": false,
      "inputs": [
        {
          "indexed": false,
          "internalType": "bool",
          "name": "result",
          "type": "bool"
        }
      ],
      "name": "OperationResult",
      "type": "event"
    },
    {
      "inputs": [
        {
          "internalType": "bytes32",
          "name": "value",
          "type": "bytes32"
        }
      ],
      "name": "contains",
      "outputs": [
        {
          "internalType": "bool",
          "name": "",
          "type": "bool"
        }
      ],
      "stateMutability": "view",
      "type": "function"
    },
    {
      "inputs": [
        {
          "internalType": "bytes32",
          "name": "value",
          "type": "bytes32"
        }
      ],
      "name": "add",
      "outputs": [],
      "stateMutability": "nonpayable",
      "type": "function"
    },
    {
      "inputs": [
        {
          "internalType": "bytes32",
          "name": "value",
          "type": "bytes32"
        }
      ],
      "name": "remove",
      "outputs": [],
      "stateMutability": "nonpayable",
      "type": "function"
    },
    {
      "inputs": [],
      "name": "length",
      "outputs": [
        {
          "internalType": "uint256",
          "name": "",
          "type": "uint256"
        }
      ],
      "stateMutability": "view",
      "type": "function"
    },
    {
      "inputs": [
        {
          "internalType": "uint256",
          "name": "index",
          "type": "uint256"
        }
      ],
      "name": "at",
      "outputs": [
        {
          "internalType": "bytes32",
          "name": "",
          "type": "bytes32"
        }
      ],
      "stateMutability": "view",
      "type": "function"
    },
    {
      "inputs": [],
      "name": "values",
      "outputs": [
        {
          "internalType": "bytes32[]",
          "name": "",
          "type": "bytes32[]"
        }
      ],
      "stateMutability": "view",
      "type": "function"
    }
  ],
  "bytecode": "0x608060405234801561001057600080fd5b50610489806100206000396000f3fe608060405234801561001057600080fd5b50600436106100625760003560e01c80631d1a696d146100675780631f7b6d321461008f578063446bffba146100a557806395bc2673146100ba578063971217b7146100cd578063e0886f90146100e2575b600080fd5b61007a6100753660046103a5565b6100f5565b60405190151581526020015b60405180910390f35b610097610107565b604051908152602001610086565b6100b86100b33660046103a5565b610118565b005b6100b86100c83660046103a5565b610165565b6100d5610171565b60405161008691906103be565b6100976100f03660046103a5565b61017d565b60006101018183610189565b92915050565b600061011360006101a4565b905090565b600061012481836101ae565b90507fed9840e0775590557ad736875d96c95cf1458b766335f74339951a32c82a9e3381604051610159911515815260200190565b60405180910390a15050565b600061012481836101ba565b606061011360006101c6565b600061010181836101d1565b600081815260018301602052604081205415155b9392505050565b6000610101825490565b600061019d83836101dd565b600061019d838361022c565b60606101018261031f565b600061019d838361037b565b600081815260018301602052604081205461022457508154600181810184556000848152602080822090930184905584548482528286019093526040902091909155610101565b506000610101565b60008181526001830160205260408120548015610315576000610250600183610402565b855490915060009061026490600190610402565b90508181146102c95760008660000182815481106102845761028461043d565b90600052602060002001549050808760000184815481106102a7576102a761043d565b6000918252602080832090910192909255918252600188019052604090208390555b85548690806102da576102da610427565b600190038181906000526020600020016000905590558560010160008681526020019081526020016000206000905560019350505050610101565b6000915050610101565b60608160000180548060200260200160405190810160405280929190818152602001828054801561036f57602002820191906000526020600020905b81548152602001906001019080831161035b575b50505050509050919050565b60008260000182815481106103925761039261043d565b9060005260206000200154905092915050565b6000602082840312156103b757600080fd5b5035919050565b6020808252825182820181905260009190848201906040850190845b818110156103f6578351835292840192918401916001016103da565b50909695505050505050565b60008282101561042257634e487b7160e01b600052601160045260246000fd5b500390565b634e487b7160e01b600052603160045260246000fd5b634e487b7160e01b600052603260045260246000fdfea26469706673582212206669244e3822d66c76e4757ebc1efdee4a30aefaca72d4a9177c94b08bccfb9864736f6c63430008070033",
  "immutableReferences": {},
  "source": "// SPDX-License-Identifier: MIT\n\npragma solidity ^0.8.0;\n\nimport \"../utils/structs/EnumerableSet.sol\";\n\n// Bytes32Set\ncontract EnumerableBytes32SetMock {\n    using EnumerableSet for EnumerableSet.Bytes32Set;\n\n    event OperationResult(bool result);\n\n    EnumerableSet.Bytes32Set private _set;\n\n    function contains(bytes32 value) public view returns (bool) {\n        return _set.contains(value);\n    }\n\n    function add(bytes32 value) public {\n        bool result = _set.add(value);\n        emit OperationResult(result);\n    }\n\n    function remove(bytes32 value) public {\n        bool result = _set.remove(value);\n        emit OperationResult(result);\n    }\n\n    function length() public view returns (uint256) {\n        return _set.length();\n    }\n\n    function at(uint256 index) public view returns (bytes32) {\n        return _set.at(index);\n    }\n\n    function values() public view returns (bytes32[] memory) {\n        return _set.values();\n    }\n}\n\n// AddressSet\ncontract EnumerableAddressSetMock {\n    using EnumerableSet for EnumerableSet.AddressSet;\n\n    event OperationResult(bool result);\n\n    EnumerableSet.AddressSet private _set;\n\n    function contains(address value) public view returns (bool) {\n        return _set.contains(value);\n    }\n\n    function add(address value) public {\n        bool result = _set.add(value);\n        emit OperationResult(result);\n    }\n\n    function remove(address value) public {\n        bool result = _set.remove(value);\n        emit OperationResult(result);\n    }\n\n    function length() public view returns (uint256) {\n        return _set.length();\n    }\n\n    function at(uint256 index) public view returns (address) {\n        return _set.at(index);\n    }\n\n    function values() public view returns (address[] memory) {\n        return _set.values();\n    }\n}\n\n// UintSet\ncontract EnumerableUintSetMock {\n    using EnumerableSet for EnumerableSet.UintSet;\n\n    event OperationResult(bool result);\n\n    EnumerableSet.UintSet private _set;\n\n    function contains(uint256 value) public view returns (bool) {\n        return _set.contains(value);\n    }\n\n    function add(uint256 value) public {\n        bool result = _set.add(value);\n        emit OperationResult(result);\n    }\n\n    function remove(uint256 value) public {\n        bool result = _set.remove(value);\n        emit OperationResult(result);\n    }\n\n    function length() public view returns (uint256) {\n        return _set.length();\n    }\n\n    function at(uint256 index) public view returns (uint256) {\n        return _set.at(index);\n    }\n\n    function values() public view returns (uint256[] memory) {\n        return _set.values();\n    }\n}\n",
  "sourcePath": "/Users/drake/Documents/DEV/PRUF/PRUF_TRUFFLE/contracts/Imports/mocks/EnumerableSetMock.sol",
  "compiler": {
    "name": "solc",
    "version": "0.8.7+commit.e28d00a7.Emscripten.clang"
  },
  "schemaVersion": "3.4.3",
  "updatedAt": "2021-10-26T17:58:03.662Z",
  "devdoc": {
    "kind": "dev",
    "methods": {},
    "version": 1
  },
  "userdoc": {
    "kind": "user",
    "methods": {},
    "version": 1
  }
}