{
  "contractName": "ERC165Mock",
  "abi": [
    {
      "inputs": [
        {
          "internalType": "bytes4",
          "name": "interfaceId",
          "type": "bytes4"
        }
      ],
      "name": "supportsInterface",
      "outputs": [
        {
          "internalType": "bool",
          "name": "",
          "type": "bool"
        }
      ],
      "stateMutability": "view",
      "type": "function"
    }
  ],
  "bytecode": "0x608060405234801561001057600080fd5b5060c78061001f6000396000f3fe6080604052348015600f57600080fd5b506004361060285760003560e01c806301ffc9a714602d575b600080fd5b604e60383660046062565b6001600160e01b0319166301ffc9a760e01b1490565b604051901515815260200160405180910390f35b600060208284031215607357600080fd5b81356001600160e01b031981168114608a57600080fd5b939250505056fea2646970667358221220b38bf07bb9cc03aef37a1c683379f82814db8db02a1cfc92054cf8526bdbe06e64736f6c63430008070033",
  "immutableReferences": {},
  "source": "// SPDX-License-Identifier: MIT\n\npragma solidity ^0.8.0;\n\nimport \"../utils/introspection/ERC165.sol\";\n\ncontract ERC165Mock is ERC165 {}\n",
  "sourcePath": "/Users/drake/Documents/DEV/PRUF/PRUF_TRUFFLE/contracts/Imports/mocks/ERC165Mock.sol",
  "compiler": {
    "name": "solc",
    "version": "0.8.7+commit.e28d00a7.Emscripten.clang"
  },
  "schemaVersion": "3.4.3",
  "updatedAt": "2021-10-26T17:58:03.588Z",
  "devdoc": {
    "kind": "dev",
    "methods": {
      "supportsInterface(bytes4)": {
        "details": "See {IERC165-supportsInterface}."
      }
    },
    "version": 1
  },
  "userdoc": {
    "kind": "user",
    "methods": {},
    "version": 1
  }
}