{
  "contractName": "ERC165CheckerMock",
  "abi": [
    {
      "inputs": [
        {
          "internalType": "address",
          "name": "account",
          "type": "address"
        }
      ],
      "name": "supportsERC165",
      "outputs": [
        {
          "internalType": "bool",
          "name": "",
          "type": "bool"
        }
      ],
      "stateMutability": "view",
      "type": "function"
    },
    {
      "inputs": [
        {
          "internalType": "address",
          "name": "account",
          "type": "address"
        },
        {
          "internalType": "bytes4",
          "name": "interfaceId",
          "type": "bytes4"
        }
      ],
      "name": "supportsInterface",
      "outputs": [
        {
          "internalType": "bool",
          "name": "",
          "type": "bool"
        }
      ],
      "stateMutability": "view",
      "type": "function"
    },
    {
      "inputs": [
        {
          "internalType": "address",
          "name": "account",
          "type": "address"
        },
        {
          "internalType": "bytes4[]",
          "name": "interfaceIds",
          "type": "bytes4[]"
        }
      ],
      "name": "supportsAllInterfaces",
      "outputs": [
        {
          "internalType": "bool",
          "name": "",
          "type": "bool"
        }
      ],
      "stateMutability": "view",
      "type": "function"
    }
  ],
  "bytecode": "0x608060405234801561001057600080fd5b506103eb806100206000396000f3fe608060405234801561001057600080fd5b50600436106100415760003560e01c80634b9dd90414610046578063c398a9251461010d578063d905700714610133575b600080fd5b6100f96004803603604081101561005c57600080fd5b6001600160a01b03823516919081019060408101602082013564010000000081111561008757600080fd5b82018360208201111561009957600080fd5b803590602001918460208302840111640100000000831117156100bb57600080fd5b919080806020026020016040519081016040528093929190818152602001838360200280828437600092019190915250929550610169945050505050565b604080519115158252519081900360200190f35b6100f96004803603602081101561012357600080fd5b50356001600160a01b0316610187565b6100f96004803603604081101561014957600080fd5b5080356001600160a01b031690602001356001600160e01b03191661019b565b600061017e6001600160a01b038416836101b0565b90505b92915050565b6000610181826001600160a01b0316610210565b600061017e6001600160a01b03841683610243565b60006101bb83610210565b6101c757506000610181565b60005b8251811015610206576101f0848483815181106101e357fe5b602002602001015161025b565b6101fe576000915050610181565b6001016101ca565b5060019392505050565b6000610223826301ffc9a760e01b61025b565b8015610181575061023c826001600160e01b031961025b565b1592915050565b600061024e83610210565b801561017e575061017e83835b600080600061026a8585610281565b915091508180156102785750805b95945050505050565b604080516001600160e01b0319831660248083019190915282518083039091018152604490910182526020810180516001600160e01b03166301ffc9a760e01b1781529151815160009384939284926060926001600160a01b038a169261753092879282918083835b602083106103095780518252601f1990920191602091820191016102ea565b6001836020036101000a0380198251168184511680821785525050505050509050019150506000604051808303818686fa925050503d806000811461036a576040519150601f19603f3d011682016040523d82523d6000602084013e61036f565b606091505b509150915060208151101561038d57600080945094505050506103ae565b818180602001905160208110156103a357600080fd5b505190955093505050505b925092905056fea26469706673582212204b390874a9c437cb76a067f464a8b29e3517e934791c0e6d1ee7772c5bea075464736f6c634300060c0033",
  "immutableReferences": {},
  "source": "// SPDX-License-Identifier: MIT\r\n\r\npragma solidity ^0.6.0;\r\n\r\nimport \"../introspection/ERC165Checker.sol\";\r\n\r\ncontract ERC165CheckerMock {\r\n    using ERC165Checker for address;\r\n\r\n    function supportsERC165(address account) public view returns (bool) {\r\n        return account.supportsERC165();\r\n    }\r\n\r\n    function supportsInterface(address account, bytes4 interfaceId) public view returns (bool) {\r\n        return account.supportsInterface(interfaceId);\r\n    }\r\n\r\n    function supportsAllInterfaces(address account, bytes4[] memory interfaceIds) public view returns (bool) {\r\n        return account.supportsAllInterfaces(interfaceIds);\r\n    }\r\n}\r\n",
  "sourcePath": "C:\\Users\\drake\\onedrive\\documents\\dev\\pruf\\PRUF_TRUFFLE\\contracts\\imports\\mocks\\ERC165CheckerMock.sol",
  "compiler": {
    "name": "solc",
    "version": "0.6.12+commit.27d51765.Emscripten.clang"
  },
  "schemaVersion": "3.2.2",
  "updatedAt": "2020-09-16T15:05:08.282Z",
  "devdoc": {
    "kind": "dev",
    "methods": {},
    "version": 1
  },
  "userdoc": {
    "kind": "user",
    "methods": {},
    "version": 1
  }
}