{
  "contractName": "ERC721MinterPauserAutoId",
  "abi": [
    {
      "inputs": [],
      "stateMutability": "nonpayable",
      "type": "constructor"
    },
    {
      "anonymous": false,
      "inputs": [
        {
          "indexed": true,
          "internalType": "address",
          "name": "owner",
          "type": "address"
        },
        {
          "indexed": true,
          "internalType": "address",
          "name": "approved",
          "type": "address"
        },
        {
          "indexed": true,
          "internalType": "uint256",
          "name": "tokenId",
          "type": "uint256"
        }
      ],
      "name": "Approval",
      "type": "event"
    },
    {
      "anonymous": false,
      "inputs": [
        {
          "indexed": true,
          "internalType": "address",
          "name": "owner",
          "type": "address"
        },
        {
          "indexed": true,
          "internalType": "address",
          "name": "operator",
          "type": "address"
        },
        {
          "indexed": false,
          "internalType": "bool",
          "name": "approved",
          "type": "bool"
        }
      ],
      "name": "ApprovalForAll",
      "type": "event"
    },
    {
      "anonymous": false,
      "inputs": [
        {
          "indexed": false,
          "internalType": "address",
          "name": "account",
          "type": "address"
        }
      ],
      "name": "Paused",
      "type": "event"
    },
    {
      "anonymous": false,
      "inputs": [
        {
          "indexed": false,
          "internalType": "string",
          "name": "_msg",
          "type": "string"
        }
      ],
      "name": "REPORT",
      "type": "event"
    },
    {
      "anonymous": false,
      "inputs": [
        {
          "indexed": true,
          "internalType": "bytes32",
          "name": "role",
          "type": "bytes32"
        },
        {
          "indexed": true,
          "internalType": "bytes32",
          "name": "previousAdminRole",
          "type": "bytes32"
        },
        {
          "indexed": true,
          "internalType": "bytes32",
          "name": "newAdminRole",
          "type": "bytes32"
        }
      ],
      "name": "RoleAdminChanged",
      "type": "event"
    },
    {
      "anonymous": false,
      "inputs": [
        {
          "indexed": true,
          "internalType": "bytes32",
          "name": "role",
          "type": "bytes32"
        },
        {
          "indexed": true,
          "internalType": "address",
          "name": "account",
          "type": "address"
        },
        {
          "indexed": true,
          "internalType": "address",
          "name": "sender",
          "type": "address"
        }
      ],
      "name": "RoleGranted",
      "type": "event"
    },
    {
      "anonymous": false,
      "inputs": [
        {
          "indexed": true,
          "internalType": "bytes32",
          "name": "role",
          "type": "bytes32"
        },
        {
          "indexed": true,
          "internalType": "address",
          "name": "account",
          "type": "address"
        },
        {
          "indexed": true,
          "internalType": "address",
          "name": "sender",
          "type": "address"
        }
      ],
      "name": "RoleRevoked",
      "type": "event"
    },
    {
      "anonymous": false,
      "inputs": [
        {
          "indexed": true,
          "internalType": "address",
          "name": "from",
          "type": "address"
        },
        {
          "indexed": true,
          "internalType": "address",
          "name": "to",
          "type": "address"
        },
        {
          "indexed": true,
          "internalType": "uint256",
          "name": "tokenId",
          "type": "uint256"
        }
      ],
      "name": "Transfer",
      "type": "event"
    },
    {
      "anonymous": false,
      "inputs": [
        {
          "indexed": false,
          "internalType": "address",
          "name": "account",
          "type": "address"
        }
      ],
      "name": "Unpaused",
      "type": "event"
    },
    {
      "inputs": [],
      "name": "B320xF_",
      "outputs": [
        {
          "internalType": "bytes32",
          "name": "",
          "type": "bytes32"
        }
      ],
      "stateMutability": "view",
      "type": "function"
    },
    {
      "inputs": [],
      "name": "CONTRACT_ADMIN_ROLE",
      "outputs": [
        {
          "internalType": "bytes32",
          "name": "",
          "type": "bytes32"
        }
      ],
      "stateMutability": "view",
      "type": "function"
    },
    {
      "inputs": [],
      "name": "DEFAULT_ADMIN_ROLE",
      "outputs": [
        {
          "internalType": "bytes32",
          "name": "",
          "type": "bytes32"
        }
      ],
      "stateMutability": "view",
      "type": "function"
    },
    {
      "inputs": [],
      "name": "MINTER_ROLE",
      "outputs": [
        {
          "internalType": "bytes32",
          "name": "",
          "type": "bytes32"
        }
      ],
      "stateMutability": "view",
      "type": "function"
    },
    {
      "inputs": [],
      "name": "PAUSER_ROLE",
      "outputs": [
        {
          "internalType": "bytes32",
          "name": "",
          "type": "bytes32"
        }
      ],
      "stateMutability": "view",
      "type": "function"
    },
    {
      "inputs": [],
      "name": "TRUSTED_AGENT_ROLE",
      "outputs": [
        {
          "internalType": "bytes32",
          "name": "",
          "type": "bytes32"
        }
      ],
      "stateMutability": "view",
      "type": "function"
    },
    {
      "inputs": [
        {
          "internalType": "address",
          "name": "to",
          "type": "address"
        },
        {
          "internalType": "uint256",
          "name": "tokenId",
          "type": "uint256"
        }
      ],
      "name": "approve",
      "outputs": [],
      "stateMutability": "nonpayable",
      "type": "function"
    },
    {
      "inputs": [
        {
          "internalType": "address",
          "name": "owner",
          "type": "address"
        }
      ],
      "name": "balanceOf",
      "outputs": [
        {
          "internalType": "uint256",
          "name": "",
          "type": "uint256"
        }
      ],
      "stateMutability": "view",
      "type": "function"
    },
    {
      "inputs": [
        {
          "internalType": "uint256",
          "name": "tokenId",
          "type": "uint256"
        }
      ],
      "name": "burn",
      "outputs": [],
      "stateMutability": "nonpayable",
      "type": "function"
    },
    {
      "inputs": [
        {
          "internalType": "uint256",
          "name": "tokenId",
          "type": "uint256"
        }
      ],
      "name": "getApproved",
      "outputs": [
        {
          "internalType": "address",
          "name": "",
          "type": "address"
        }
      ],
      "stateMutability": "view",
      "type": "function"
    },
    {
      "inputs": [
        {
          "internalType": "bytes32",
          "name": "role",
          "type": "bytes32"
        }
      ],
      "name": "getRoleAdmin",
      "outputs": [
        {
          "internalType": "bytes32",
          "name": "",
          "type": "bytes32"
        }
      ],
      "stateMutability": "view",
      "type": "function"
    },
    {
      "inputs": [
        {
          "internalType": "bytes32",
          "name": "role",
          "type": "bytes32"
        },
        {
          "internalType": "uint256",
          "name": "index",
          "type": "uint256"
        }
      ],
      "name": "getRoleMember",
      "outputs": [
        {
          "internalType": "address",
          "name": "",
          "type": "address"
        }
      ],
      "stateMutability": "view",
      "type": "function"
    },
    {
      "inputs": [
        {
          "internalType": "bytes32",
          "name": "role",
          "type": "bytes32"
        }
      ],
      "name": "getRoleMemberCount",
      "outputs": [
        {
          "internalType": "uint256",
          "name": "",
          "type": "uint256"
        }
      ],
      "stateMutability": "view",
      "type": "function"
    },
    {
      "inputs": [
        {
          "internalType": "bytes32",
          "name": "role",
          "type": "bytes32"
        },
        {
          "internalType": "address",
          "name": "account",
          "type": "address"
        }
      ],
      "name": "grantRole",
      "outputs": [],
      "stateMutability": "nonpayable",
      "type": "function"
    },
    {
      "inputs": [
        {
          "internalType": "bytes32",
          "name": "role",
          "type": "bytes32"
        },
        {
          "internalType": "address",
          "name": "account",
          "type": "address"
        }
      ],
      "name": "hasRole",
      "outputs": [
        {
          "internalType": "bool",
          "name": "",
          "type": "bool"
        }
      ],
      "stateMutability": "view",
      "type": "function"
    },
    {
      "inputs": [
        {
          "internalType": "address",
          "name": "owner",
          "type": "address"
        },
        {
          "internalType": "address",
          "name": "operator",
          "type": "address"
        }
      ],
      "name": "isApprovedForAll",
      "outputs": [
        {
          "internalType": "bool",
          "name": "",
          "type": "bool"
        }
      ],
      "stateMutability": "view",
      "type": "function"
    },
    {
      "inputs": [],
      "name": "name",
      "outputs": [
        {
          "internalType": "string",
          "name": "",
          "type": "string"
        }
      ],
      "stateMutability": "view",
      "type": "function"
    },
    {
      "inputs": [
        {
          "internalType": "uint256",
          "name": "tokenId",
          "type": "uint256"
        }
      ],
      "name": "ownerOf",
      "outputs": [
        {
          "internalType": "address",
          "name": "",
          "type": "address"
        }
      ],
      "stateMutability": "view",
      "type": "function"
    },
    {
      "inputs": [],
      "name": "paused",
      "outputs": [
        {
          "internalType": "bool",
          "name": "",
          "type": "bool"
        }
      ],
      "stateMutability": "view",
      "type": "function"
    },
    {
      "inputs": [
        {
          "internalType": "bytes32",
          "name": "role",
          "type": "bytes32"
        },
        {
          "internalType": "address",
          "name": "account",
          "type": "address"
        }
      ],
      "name": "renounceRole",
      "outputs": [],
      "stateMutability": "nonpayable",
      "type": "function"
    },
    {
      "inputs": [
        {
          "internalType": "bytes32",
          "name": "role",
          "type": "bytes32"
        },
        {
          "internalType": "address",
          "name": "account",
          "type": "address"
        }
      ],
      "name": "revokeRole",
      "outputs": [],
      "stateMutability": "nonpayable",
      "type": "function"
    },
    {
      "inputs": [
        {
          "internalType": "address",
          "name": "from",
          "type": "address"
        },
        {
          "internalType": "address",
          "name": "to",
          "type": "address"
        },
        {
          "internalType": "uint256",
          "name": "tokenId",
          "type": "uint256"
        }
      ],
      "name": "safeTransferFrom",
      "outputs": [],
      "stateMutability": "nonpayable",
      "type": "function"
    },
    {
      "inputs": [
        {
          "internalType": "address",
          "name": "from",
          "type": "address"
        },
        {
          "internalType": "address",
          "name": "to",
          "type": "address"
        },
        {
          "internalType": "uint256",
          "name": "tokenId",
          "type": "uint256"
        },
        {
          "internalType": "bytes",
          "name": "_data",
          "type": "bytes"
        }
      ],
      "name": "safeTransferFrom",
      "outputs": [],
      "stateMutability": "nonpayable",
      "type": "function"
    },
    {
      "inputs": [
        {
          "internalType": "address",
          "name": "operator",
          "type": "address"
        },
        {
          "internalType": "bool",
          "name": "approved",
          "type": "bool"
        }
      ],
      "name": "setApprovalForAll",
      "outputs": [],
      "stateMutability": "nonpayable",
      "type": "function"
    },
    {
      "inputs": [],
      "name": "symbol",
      "outputs": [
        {
          "internalType": "string",
          "name": "",
          "type": "string"
        }
      ],
      "stateMutability": "view",
      "type": "function"
    },
    {
      "inputs": [
        {
          "internalType": "uint256",
          "name": "index",
          "type": "uint256"
        }
      ],
      "name": "tokenByIndex",
      "outputs": [
        {
          "internalType": "uint256",
          "name": "",
          "type": "uint256"
        }
      ],
      "stateMutability": "view",
      "type": "function"
    },
    {
      "inputs": [
        {
          "internalType": "address",
          "name": "owner",
          "type": "address"
        },
        {
          "internalType": "uint256",
          "name": "index",
          "type": "uint256"
        }
      ],
      "name": "tokenOfOwnerByIndex",
      "outputs": [
        {
          "internalType": "uint256",
          "name": "",
          "type": "uint256"
        }
      ],
      "stateMutability": "view",
      "type": "function"
    },
    {
      "inputs": [],
      "name": "totalSupply",
      "outputs": [
        {
          "internalType": "uint256",
          "name": "",
          "type": "uint256"
        }
      ],
      "stateMutability": "view",
      "type": "function"
    },
    {
      "inputs": [
        {
          "internalType": "address",
          "name": "from",
          "type": "address"
        },
        {
          "internalType": "address",
          "name": "to",
          "type": "address"
        },
        {
          "internalType": "uint256",
          "name": "tokenId",
          "type": "uint256"
        }
      ],
      "name": "transferFrom",
      "outputs": [],
      "stateMutability": "nonpayable",
      "type": "function"
    },
    {
      "inputs": [
        {
          "internalType": "uint256",
          "name": "_key",
          "type": "uint256"
        }
      ],
      "name": "killTrustedAgent",
      "outputs": [],
      "stateMutability": "nonpayable",
      "type": "function"
    },
    {
      "inputs": [
        {
          "internalType": "address",
          "name": "_storageAddress",
          "type": "address"
        }
      ],
      "name": "setStorageContract",
      "outputs": [],
      "stateMutability": "nonpayable",
      "type": "function"
    },
    {
      "inputs": [],
      "name": "resolveContractAddresses",
      "outputs": [],
      "stateMutability": "nonpayable",
      "type": "function"
    },
    {
      "inputs": [],
      "name": "setColdWallet",
      "outputs": [],
      "stateMutability": "nonpayable",
      "type": "function"
    },
    {
      "inputs": [],
      "name": "unSetColdWallet",
      "outputs": [],
      "stateMutability": "nonpayable",
      "type": "function"
    },
    {
      "inputs": [
        {
          "internalType": "address",
          "name": "_addr",
          "type": "address"
        }
      ],
      "name": "isColdWallet",
      "outputs": [
        {
          "internalType": "uint256",
          "name": "",
          "type": "uint256"
        }
      ],
      "stateMutability": "view",
      "type": "function"
    },
    {
      "inputs": [
        {
          "internalType": "uint256",
          "name": "tokenId",
          "type": "uint256"
        }
      ],
      "name": "tokenURI",
      "outputs": [
        {
          "internalType": "string",
          "name": "",
          "type": "string"
        }
      ],
      "stateMutability": "view",
      "type": "function"
    },
    {
      "inputs": [],
      "name": "pause",
      "outputs": [],
      "stateMutability": "nonpayable",
      "type": "function"
    },
    {
      "inputs": [],
      "name": "unpause",
      "outputs": [],
      "stateMutability": "nonpayable",
      "type": "function"
    },
    {
      "inputs": [
        {
          "internalType": "bytes4",
          "name": "interfaceId",
          "type": "bytes4"
        }
      ],
      "name": "supportsInterface",
      "outputs": [
        {
          "internalType": "bool",
          "name": "",
          "type": "bool"
        }
      ],
      "stateMutability": "view",
      "type": "function"
    }
  ],
  "bytecode": "0x608060405260016011553480156200001657600080fd5b50604080518082018252601081526f28292aa31020b9b9b2ba102a37b5b2b760811b6020808301918252835180850190945260048452631414905560e21b908401526001600055815191929162000070916003916200024b565b508051620000869060049060208401906200024b565b5050600d805460ff1916905550620000a0600033620000fe565b620000cc7f2ce8d04a9c35987429af538825cd2438cc5c5bb5dc427955f84daaa3ea10501633620000fe565b620000f87f65d7a28e3265b37a6474929f336521b332c1681b933f6cb9f3376673440d862a33620000fe565b6200032e565b6200011582826200014160201b620012ce1760201c565b60008281526002602090815260409091206200013c918390620012dc62000151821b17901c565b505050565b6200014d828262000171565b5050565b600062000168836001600160a01b038416620001f9565b90505b92915050565b60008281526001602090815260408083206001600160a01b038516845290915290205460ff166200014d5760008281526001602081815260408084206001600160a01b0386168086529252808420805460ff19169093179092559051339285917f2f8788117e7eff1d82e926ec794901d17c78024a50270940304540a733656f0d9190a45050565b600081815260018301602052604081205462000242575081546001818101845560008481526020808220909301849055845484825282860190935260409020919091556200016b565b5060006200016b565b8280546200025990620002f1565b90600052602060002090601f0160209004810192826200027d5760008555620002c8565b82601f106200029857805160ff1916838001178555620002c8565b82800160010185558215620002c8579182015b82811115620002c8578251825591602001919060010190620002ab565b50620002d6929150620002da565b5090565b5b80821115620002d65760008155600101620002db565b600181811c908216806200030657607f821691505b602082108114156200032857634e487b7160e01b600052602260045260246000fd5b50919050565b612ac7806200033e6000396000f3fe608060405234801561001057600080fd5b506004361061023d5760003560e01c80636352211e1161013b578063b88d4fde116100b8578063d547741f1161007c578063d547741f146104f5578063dc38b0a214610508578063e63ab1e91461051b578063e985e9c514610542578063ee9c25c51461057e57600080fd5b8063b88d4fde14610482578063c87b56dd14610495578063ca15c873146104a8578063cf0b969f146104bb578063d5391393146104ce57600080fd5b806395d89b41116100ff57806395d89b4114610430578063992a717614610438578063a217fddf1461045f578063a22cb46514610467578063adfcaae01461047a57600080fd5b80636352211e146103dc57806370a08231146103ef5780638456cb59146104025780639010d07c1461040a57806391d148541461041d57600080fd5b80632f2ff15d116101c957806342842e0e1161018d57806342842e0e1461036f57806342966c68146103825780634ac3c31b146103955780634f6ccce7146103be5780635c975abb146103d157600080fd5b80632f2ff15d146103255780632f745c591461033857806336568abe1461034b5780633b21fd681461035e5780633f4ba83a1461036757600080fd5b806318160ddd1161021057806318160ddd146102bf5780631da03312146102d157806323b872dd146102e6578063248a9ca3146102f95780632670d2161461031d57600080fd5b806301ffc9a71461024257806306fdde031461026a578063081812fc1461027f578063095ea7b3146102aa575b600080fd5b61025561025036600461266f565b610586565b60405190151581526020015b60405180910390f35b610272610597565b60405161026191906127b6565b61029261028d36600461260f565b610629565b6040516001600160a01b039091168152602001610261565b6102bd6102b83660046125e3565b6106c3565b005b600b545b604051908152602001610261565b6102c3600080516020612a7283398151915281565b6102bd6102f436600461248f565b6107d9565b6102c361030736600461260f565b6000908152600160208190526040909120015490565b6102bd61080b565b6102bd610333366004612628565b61082e565b6102c36103463660046125e3565b610850565b6102bd610359366004612628565b6108e6565b6102c360001981565b6102bd610908565b6102bd61037d36600461248f565b6109b0565b6102bd61039036600461260f565b6109cb565b6102c36103a336600461241c565b6001600160a01b031660009081526012602052604090205490565b6102c36103cc36600461260f565b610a45565b600d5460ff16610255565b6102926103ea36600461260f565b610ad8565b6102c36103fd36600461241c565b610b4f565b6102bd610bd6565b61029261041836600461264d565b610c7a565b61025561042b366004612628565b610c99565b610272610cc4565b6102c37feeed90ae47cd1f23b88ce446295f1ca23c5e4f5b894addbe83563fd27494e29481565b6102c3600081565b6102bd6104753660046125b0565b610cd3565b6102bd610d98565b6102bd6104903660046124d0565b610da4565b6102726104a336600461260f565b610ddc565b6102c36104b636600461260f565b610f56565b6102bd6104c936600461260f565b610f6d565b6102c37f9f2df0fed2c77648de5860a4cc508cd0818c85b8b8a1ab4ceeef8d981c8956a681565b6102bd610503366004612628565b610fb2565b6102bd61051636600461241c565b610fbc565b6102c37f65d7a28e3265b37a6474929f336521b332c1681b933f6cb9f3376673440d862a81565b610255610550366004612456565b6001600160a01b03918216600090815260086020908152604080832093909416825291909152205460ff1690565b6102bd611068565b6000610591826112f1565b92915050565b6060600380546105a69061296e565b80601f01602080910402602001604051908101604052809291908181526020018280546105d29061296e565b801561061f5780601f106105f45761010080835404028352916020019161061f565b820191906000526020600020905b81548152906001019060200180831161060257829003601f168201915b5050505050905090565b6000818152600560205260408120546001600160a01b03166106a75760405162461bcd60e51b815260206004820152602c60248201527f4552433732313a20617070726f76656420717565727920666f72206e6f6e657860448201526b34b9ba32b73a103a37b5b2b760a11b60648201526084015b60405180910390fd5b506000908152600760205260409020546001600160a01b031690565b60006106ce82610ad8565b9050806001600160a01b0316836001600160a01b0316141561073c5760405162461bcd60e51b815260206004820152602160248201527f4552433732313a20617070726f76616c20746f2063757272656e74206f776e656044820152603960f91b606482015260840161069e565b336001600160a01b038216148061075857506107588133610550565b6107ca5760405162461bcd60e51b815260206004820152603860248201527f4552433732313a20617070726f76652063616c6c6572206973206e6f74206f7760448201527f6e6572206e6f7220617070726f76656420666f7220616c6c0000000000000000606482015260840161069e565b6107d48383611316565b505050565b6107e4335b82611384565b6108005760405162461bcd60e51b815260040161069e90612878565b6107d4838383611477565b6000601281335b6001600160a01b03168152602081019190915260400160002055565b6108388282611622565b60008281526002602052604090206107d490826112dc565b600061085b83610b4f565b82106108bd5760405162461bcd60e51b815260206004820152602b60248201527f455243373231456e756d657261626c653a206f776e657220696e646578206f7560448201526a74206f6620626f756e647360a81b606482015260840161069e565b506001600160a01b03919091166000908152600960209081526040808320938352929052205490565b6108f08282611649565b60008281526002602052604090206107d490826116c3565b6109327f65d7a28e3265b37a6474929f336521b332c1681b933f6cb9f3376673440d862a33610c99565b6109a6576040805162461bcd60e51b81526020600482015260248101919091527f4552433732315072657365744d696e7465725061757365724175746f49643a2060448201527f6d75737420686176652070617573657220726f6c6520746f20756e7061757365606482015260840161069e565b6109ae6116d8565b565b6107d483838360405180602001604052806000815250610da4565b6109d4336107de565b610a395760405162461bcd60e51b815260206004820152603060248201527f4552433732314275726e61626c653a2063616c6c6572206973206e6f74206f7760448201526f1b995c881b9bdc88185c1c1c9bdd995960821b606482015260840161069e565b610a428161176b565b50565b6000610a50600b5490565b8210610ab35760405162461bcd60e51b815260206004820152602c60248201527f455243373231456e756d657261626c653a20676c6f62616c20696e646578206f60448201526b7574206f6620626f756e647360a01b606482015260840161069e565b600b8281548110610ac657610ac6612a1a565b90600052602060002001549050919050565b6000818152600560205260408120546001600160a01b0316806105915760405162461bcd60e51b815260206004820152602960248201527f4552433732313a206f776e657220717565727920666f72206e6f6e657869737460448201526832b73a103a37b5b2b760b91b606482015260840161069e565b60006001600160a01b038216610bba5760405162461bcd60e51b815260206004820152602a60248201527f4552433732313a2062616c616e636520717565727920666f7220746865207a65604482015269726f206164647265737360b01b606482015260840161069e565b506001600160a01b031660009081526006602052604090205490565b610c007f65d7a28e3265b37a6474929f336521b332c1681b933f6cb9f3376673440d862a33610c99565b610c725760405162461bcd60e51b815260206004820152603e60248201527f4552433732315072657365744d696e7465725061757365724175746f49643a2060448201527f6d75737420686176652070617573657220726f6c6520746f2070617573650000606482015260840161069e565b6109ae6117ab565b6000828152600260205260408120610c929083611826565b9392505050565b60009182526001602090815260408084206001600160a01b0393909316845291905290205460ff1690565b6060600480546105a69061296e565b6001600160a01b038216331415610d2c5760405162461bcd60e51b815260206004820152601960248201527f4552433732313a20617070726f766520746f2063616c6c657200000000000000604482015260640161069e565b3360008181526008602090815260408083206001600160a01b03871680855290835292819020805460ff191686151590811790915590519081529192917f17307eab39ab6107e8899845ad3d59bd9653f200f220920489ca2b5937696c31910160405180910390a35050565b60aa6012600033610812565b610dae3383611384565b610dca5760405162461bcd60e51b815260040161069e90612878565b610dd684848484611832565b50505050565b6000818152600560205260409020546060906001600160a01b0316610e5d5760405162461bcd60e51b815260206004820152603160248201527f45524337323155524953746f726167653a2055524920717565727920666f72206044820152703737b732bc34b9ba32b73a103a37b5b2b760791b606482015260840161069e565b6000828152600e602052604081208054610e769061296e565b80601f0160208091040260200160405190810160405280929190818152602001828054610ea29061296e565b8015610eef5780601f10610ec457610100808354040283529160200191610eef565b820191906000526020600020905b815481529060010190602001808311610ed257829003601f168201915b505050505090506000610f00611865565b9050805160001415610f13575092915050565b815115610f45578082604051602001610f2d9291906126d5565b60405160208183030381529060405292505050919050565b610f4e84611874565b949350505050565b60008181526002602052604081206105919061194e565b610f85600080516020612a7283398151915233610c99565b610fa15760405162461bcd60e51b815260040161069e9061281b565b8060aa1415610a4257600060115550565b6108f08282611958565b610fd4600080516020612a7283398151915233610c99565b610ff05760405162461bcd60e51b815260040161069e9061281b565b6001600160a01b0381166110465760405162461bcd60e51b815260206004820152601a60248201527f41543a5353433a53746f726167652061646472657373203d2030000000000000604482015260640161069e565b601780546001600160a01b0319166001600160a01b0392909216919091179055565b611080600080516020612a7283398151915233610c99565b61109c5760405162461bcd60e51b815260040161069e9061281b565b6017546040516363b8d4c160e11b81526001600160a01b039091169063c771a982906110e3906004016020808252600490820152632921a62960e11b604082015260600190565b60206040518083038186803b1580156110fb57600080fd5b505afa15801561110f573d6000803e3d6000fd5b505050506040513d601f19601f820116820180604052508101906111339190612439565b601480546001600160a01b039283166001600160a01b031991821681179092556018805490911690911790556017546040516363b8d4c160e11b81526020600482015260086024820152672727a222afa6a3a960c11b604482015291169063c771a9829060640160206040518083038186803b1580156111b257600080fd5b505afa1580156111c6573d6000803e3d6000fd5b505050506040513d601f19601f820116820180604052508101906111ea9190612439565b601580546001600160a01b039283166001600160a01b031991821681179092556019805490911690911790556017546040516363b8d4c160e11b81526020600482015260086024820152672727a222afaa25a760c11b604482015291169063c771a9829060640160206040518083038186803b15801561126957600080fd5b505afa15801561127d573d6000803e3d6000fd5b505050506040513d601f19601f820116820180604052508101906112a19190612439565b601680546001600160a01b03929092166001600160a01b03199283168117909155601a8054909216179055565b6112d8828261197f565b5050565b6000610c92836001600160a01b0384166119ea565b60006001600160e01b0319821663780e9d6360e01b1480610591575061059182611a39565b600081815260076020526040902080546001600160a01b0319166001600160a01b038416908117909155819061134b82610ad8565b6001600160a01b03167f8c5be1e5ebec7d5bd14f71427d1e84f3dd0314c0f7b2291e5b200ac8c7c3b92560405160405180910390a45050565b6000818152600560205260408120546001600160a01b03166113fd5760405162461bcd60e51b815260206004820152602c60248201527f4552433732313a206f70657261746f7220717565727920666f72206e6f6e657860448201526b34b9ba32b73a103a37b5b2b760a11b606482015260840161069e565b600061140883610ad8565b9050806001600160a01b0316846001600160a01b031614806114435750836001600160a01b031661143884610629565b6001600160a01b0316145b80610f4e57506001600160a01b0380821660009081526008602090815260408083209388168352929052205460ff16610f4e565b826001600160a01b031661148a82610ad8565b6001600160a01b0316146114f25760405162461bcd60e51b815260206004820152602960248201527f4552433732313a207472616e73666572206f6620746f6b656e2074686174206960448201526839903737ba1037bbb760b91b606482015260840161069e565b6001600160a01b0382166115545760405162461bcd60e51b8152602060048201526024808201527f4552433732313a207472616e7366657220746f20746865207a65726f206164646044820152637265737360e01b606482015260840161069e565b61155f838383611a79565b61156a600082611316565b6001600160a01b0383166000908152600660205260408120805460019290611593908490612914565b90915550506001600160a01b03821660009081526006602052604081208054600192906115c19084906128c9565b909155505060008181526005602052604080822080546001600160a01b0319166001600160a01b0386811691821790925591518493918716917fddf252ad1be2c89b69c2b068fc378daa952ba7f163c4a11628f55a4df523b3ef91a4505050565b6000828152600160208190526040909120015461163f8133611a84565b6107d4838361197f565b6001600160a01b03811633146116b95760405162461bcd60e51b815260206004820152602f60248201527f416363657373436f6e74726f6c3a2063616e206f6e6c792072656e6f756e636560448201526e103937b632b9903337b91039b2b63360891b606482015260840161069e565b6112d88282611ae8565b6000610c92836001600160a01b038416611b4f565b600d5460ff166117215760405162461bcd60e51b815260206004820152601460248201527314185d5cd8589b194e881b9bdd081c185d5cd95960621b604482015260640161069e565b600d805460ff191690557f5db9ee0a495bf2e6ff9c91a7834c1ba4fdd244a5e8aa4e537bd38aeae4b073aa335b6040516001600160a01b03909116815260200160405180910390a1565b61177481611c42565b6000818152600e60205260409020805461178d9061296e565b159050610a42576000818152600e60205260408120610a42916123ce565b600d5460ff16156117f15760405162461bcd60e51b815260206004820152601060248201526f14185d5cd8589b194e881c185d5cd95960821b604482015260640161069e565b600d805460ff191660011790557f62e78cea01bee320cd4e420270b5ea74000d11b0c9f74754ebdbfc544b05a25861174e3390565b6000610c928383611ce9565b61183d848484611477565b61184984848484611d13565b610dd65760405162461bcd60e51b815260040161069e906127c9565b6060601080546105a69061296e565b6000818152600560205260409020546060906001600160a01b03166118f35760405162461bcd60e51b815260206004820152602f60248201527f4552433732314d657461646174613a2055524920717565727920666f72206e6f60448201526e3732bc34b9ba32b73a103a37b5b2b760891b606482015260840161069e565b60006118fd611865565b9050600081511161191d5760405180602001604052806000815250610c92565b8061192784611e20565b6040516020016119389291906126d5565b6040516020818303038152906040529392505050565b6000610591825490565b600082815260016020819052604090912001546119758133611a84565b6107d48383611ae8565b6119898282610c99565b6112d85760008281526001602081815260408084206001600160a01b0386168086529252808420805460ff19169093179092559051339285917f2f8788117e7eff1d82e926ec794901d17c78024a50270940304540a733656f0d9190a45050565b6000818152600183016020526040812054611a3157508154600181810184556000848152602080822090930184905584548482528286019093526040902091909155610591565b506000610591565b60006001600160e01b031982166380ac58cd60e01b1480611a6a57506001600160e01b03198216635b5e139f60e01b145b80610591575061059182611f1e565b6107d4838383611f43565b611a8e8282610c99565b6112d857611aa6816001600160a01b03166014611fb5565b611ab1836020611fb5565b604051602001611ac2929190612704565b60408051601f198184030181529082905262461bcd60e51b825261069e916004016127b6565b611af28282610c99565b156112d85760008281526001602090815260408083206001600160a01b0385168085529252808320805460ff1916905551339285917ff6391f5c32d9c69d2a47ea670b442974b53935d1edc7fd64eb21e047a839171b9190a45050565b60008181526001830160205260408120548015611c38576000611b73600183612914565b8554909150600090611b8790600190612914565b9050818114611bec576000866000018281548110611ba757611ba7612a1a565b9060005260206000200154905080876000018481548110611bca57611bca612a1a565b6000918252602080832090910192909255918252600188019052604090208390555b8554869080611bfd57611bfd612a04565b600190038181906000526020600020016000905590558560010160008681526020019081526020016000206000905560019350505050610591565b6000915050610591565b6000611c4d82610ad8565b9050611c5b81600084611a79565b611c66600083611316565b6001600160a01b0381166000908152600660205260408120805460019290611c8f908490612914565b909155505060008281526005602052604080822080546001600160a01b0319169055518391906001600160a01b038416907fddf252ad1be2c89b69c2b068fc378daa952ba7f163c4a11628f55a4df523b3ef908390a45050565b6000826000018281548110611d0057611d00612a1a565b9060005260206000200154905092915050565b60006001600160a01b0384163b15611e1557604051630a85bd0160e11b81526001600160a01b0385169063150b7a0290611d57903390899088908890600401612779565b602060405180830381600087803b158015611d7157600080fd5b505af1925050508015611da1575060408051601f3d908101601f19168201909252611d9e9181019061268c565b60015b611dfb573d808015611dcf576040519150601f19603f3d011682016040523d82523d6000602084013e611dd4565b606091505b508051611df35760405162461bcd60e51b815260040161069e906127c9565b805181602001fd5b6001600160e01b031916630a85bd0160e11b149050610f4e565b506001949350505050565b606081611e445750506040805180820190915260018152600360fc1b602082015290565b8160005b8115611e6e5780611e58816129a9565b9150611e679050600a836128e1565b9150611e48565b60008167ffffffffffffffff811115611e8957611e89612a30565b6040519080825280601f01601f191660200182016040528015611eb3576020820181803683370190505b5090505b8415610f4e57611ec8600183612914565b9150611ed5600a866129c4565b611ee09060306128c9565b60f81b818381518110611ef557611ef5612a1a565b60200101906001600160f81b031916908160001a905350611f17600a866128e1565b9450611eb7565b60006001600160e01b03198216635a05180f60e01b1480610591575061059182612151565b611f4e838383612186565b600d5460ff16156107d45760405162461bcd60e51b815260206004820152602b60248201527f4552433732315061757361626c653a20746f6b656e207472616e73666572207760448201526a1a1a5b19481c185d5cd95960aa1b606482015260840161069e565b60606000611fc48360026128f5565b611fcf9060026128c9565b67ffffffffffffffff811115611fe757611fe7612a30565b6040519080825280601f01601f191660200182016040528015612011576020820181803683370190505b509050600360fc1b8160008151811061202c5761202c612a1a565b60200101906001600160f81b031916908160001a905350600f60fb1b8160018151811061205b5761205b612a1a565b60200101906001600160f81b031916908160001a905350600061207f8460026128f5565b61208a9060016128c9565b90505b6001811115612102576f181899199a1a9b1b9c1cb0b131b232b360811b85600f16601081106120be576120be612a1a565b1a60f81b8282815181106120d4576120d4612a1a565b60200101906001600160f81b031916908160001a90535060049490941c936120fb81612957565b905061208d565b508315610c925760405162461bcd60e51b815260206004820181905260248201527f537472696e67733a20686578206c656e67746820696e73756666696369656e74604482015260640161069e565b60006001600160e01b03198216637965db0b60e01b148061059157506301ffc9a760e01b6001600160e01b0319831614610591565b6001600160a01b0383166121e1576121dc81600b80546000838152600c60205260408120829055600182018355919091527f0175b7a638427703f0dbe7bb9bbf987a2551717b34e79f33b5b1008d1fa01db90155565b612204565b816001600160a01b0316836001600160a01b03161461220457612204838261223e565b6001600160a01b03821661221b576107d4816122db565b826001600160a01b0316826001600160a01b0316146107d4576107d4828261238a565b6000600161224b84610b4f565b6122559190612914565b6000838152600a60205260409020549091508082146122a8576001600160a01b03841660009081526009602090815260408083208584528252808320548484528184208190558352600a90915290208190555b506000918252600a602090815260408084208490556001600160a01b039094168352600981528383209183525290812055565b600b546000906122ed90600190612914565b6000838152600c6020526040812054600b805493945090928490811061231557612315612a1a565b9060005260206000200154905080600b838154811061233657612336612a1a565b6000918252602080832090910192909255828152600c9091526040808220849055858252812055600b80548061236e5761236e612a04565b6001900381819060005260206000200160009055905550505050565b600061239583610b4f565b6001600160a01b0390931660009081526009602090815260408083208684528252808320859055938252600a9052919091209190915550565b5080546123da9061296e565b6000825580601f106123ea575050565b601f016020900490600052602060002090810190610a4291905b808211156124185760008155600101612404565b5090565b60006020828403121561242e57600080fd5b8135610c9281612a46565b60006020828403121561244b57600080fd5b8151610c9281612a46565b6000806040838503121561246957600080fd5b823561247481612a46565b9150602083013561248481612a46565b809150509250929050565b6000806000606084860312156124a457600080fd5b83356124af81612a46565b925060208401356124bf81612a46565b929592945050506040919091013590565b600080600080608085870312156124e657600080fd5b84356124f181612a46565b9350602085013561250181612a46565b925060408501359150606085013567ffffffffffffffff8082111561252557600080fd5b818701915087601f83011261253957600080fd5b81358181111561254b5761254b612a30565b604051601f8201601f19908116603f0116810190838211818310171561257357612573612a30565b816040528281528a602084870101111561258c57600080fd5b82602086016020830137600060208483010152809550505050505092959194509250565b600080604083850312156125c357600080fd5b82356125ce81612a46565b91506020830135801515811461248457600080fd5b600080604083850312156125f657600080fd5b823561260181612a46565b946020939093013593505050565b60006020828403121561262157600080fd5b5035919050565b6000806040838503121561263b57600080fd5b82359150602083013561248481612a46565b6000806040838503121561266057600080fd5b50508035926020909101359150565b60006020828403121561268157600080fd5b8135610c9281612a5b565b60006020828403121561269e57600080fd5b8151610c9281612a5b565b600081518084526126c181602086016020860161292b565b601f01601f19169290920160200192915050565b600083516126e781846020880161292b565b8351908301906126fb81836020880161292b565b01949350505050565b7f416363657373436f6e74726f6c3a206163636f756e742000000000000000000081526000835161273c81601785016020880161292b565b7001034b99036b4b9b9b4b733903937b6329607d1b601791840191820152835161276d81602884016020880161292b565b01602801949350505050565b6001600160a01b03858116825284166020820152604081018390526080606082018190526000906127ac908301846126a9565b9695505050505050565b602081526000610c9260208301846126a9565b60208082526032908201527f4552433732313a207472616e7366657220746f206e6f6e20455243373231526560408201527131b2b4bb32b91034b6b83632b6b2b73a32b960711b606082015260800190565b6020808252603d908201527f41543a4d4f442d49413a43616c6c696e67206164647265737320646f6573206e60408201527f6f742062656c6f6e6720746f206120636f6e74726163742061646d696e000000606082015260800190565b60208082526031908201527f4552433732313a207472616e736665722063616c6c6572206973206e6f74206f6040820152701ddb995c881b9bdc88185c1c1c9bdd9959607a1b606082015260800190565b600082198211156128dc576128dc6129d8565b500190565b6000826128f0576128f06129ee565b500490565b600081600019048311821515161561290f5761290f6129d8565b500290565b600082821015612926576129266129d8565b500390565b60005b8381101561294657818101518382015260200161292e565b83811115610dd65750506000910152565b600081612966576129666129d8565b506000190190565b600181811c9082168061298257607f821691505b602082108114156129a357634e487b7160e01b600052602260045260246000fd5b50919050565b60006000198214156129bd576129bd6129d8565b5060010190565b6000826129d3576129d36129ee565b500690565b634e487b7160e01b600052601160045260246000fd5b634e487b7160e01b600052601260045260246000fd5b634e487b7160e01b600052603160045260246000fd5b634e487b7160e01b600052603260045260246000fd5b634e487b7160e01b600052604160045260246000fd5b6001600160a01b0381168114610a4257600080fd5b6001600160e01b031981168114610a4257600080fdfe2ce8d04a9c35987429af538825cd2438cc5c5bb5dc427955f84daaa3ea105016a26469706673582212209b7f913657e8c9d29b6ef39840ee478d633a8862402d6cc5a5af3434ce2e014a64736f6c63430008070033",
  "immutableReferences": {},
  "source": "/**--------------------------------------------------------PRF0.8.7\n__/\\\\\\\\\\\\\\\\\\\\\\\\\\ _____/\\\\\\\\\\\\\\\\\\ _______/\\\\__/\\\\ ___/\\\\\\\\\\\\\\\\\\\\\\\\\\\\\\        \n _\\/\\\\\\/////////\\\\\\ _/\\\\\\///////\\\\\\ ____\\//__\\//____\\/\\\\\\///////////__       \n  _\\/\\\\\\_______\\/\\\\\\_\\/\\\\\\_____\\/\\\\\\ ________________\\/\\\\\\ ____________      \n   _\\/\\\\\\\\\\\\\\\\\\\\\\\\\\/__\\/\\\\\\\\\\\\\\\\\\\\\\/_____/\\\\\\____/\\\\\\_\\/\\\\\\\\\\\\\\\\\\\\\\ ____     \n    _\\/\\\\\\/////////____\\/\\\\\\//////\\\\\\ ___\\/\\\\\\___\\/\\\\\\_\\/\\\\\\///////______    \n     _\\/\\\\\\ ____________\\/\\\\\\ ___\\//\\\\\\ __\\/\\\\\\___\\/\\\\\\_\\/\\\\\\ ____________   \n      _\\/\\\\\\ ____________\\/\\\\\\ ____\\//\\\\\\ _\\/\\\\\\___\\/\\\\\\_\\/\\\\\\ ____________  \n       _\\/\\\\\\ ____________\\/\\\\\\ _____\\//\\\\\\_\\//\\\\\\\\\\\\\\\\\\ _\\/\\\\\\ ____________ \n        _\\/// _____________\\/// _______\\/// __\\///////// __\\/// _____________\n         *-------------------------------------------------------------------*/\n\n/**-----------------------------------------------------------------\n *  TO DO\n * Check and see if A_TKN can be permitted in all nodes to prevent safeTransferFrom->writeRecord conflict due to it not being a default authorized contract for node s\n *-----------------------------------------------------------------\n * PRUF ASSET NFT CONTRACT\n *---------------------------------------------------------------*/\n\n// SPDX-License-Identifier: UNLICENSED\npragma solidity 0.8.7;\n\nimport \"../Imports/token/ERC721/ERC721.sol\";\nimport \"../Imports/token/ERC721/extensions/ERC721Enumerable.sol\";\nimport \"../Imports/token/ERC721/extensions/ERC721Burnable.sol\";\nimport \"../Imports/token/ERC721/extensions/ERC721Pausable.sol\";\nimport \"../Imports/token/ERC721/extensions/ERC721URIStorage.sol\";\nimport \"../Imports/access/AccessControlEnumerable.sol\";\nimport \"../Imports/utils/Context.sol\";\nimport \"../Imports/utils/Counters.sol\";\nimport \"../Imports/security/ReentrancyGuard.sol\";\n\nimport \"../Resources/RESOURCE_PRUF_INTERFACES.sol\";\nimport \"../Resources/RESOURCE_PRUF_TKN_INTERFACES.sol\";\n\n/**\n * @dev {ERC721} token, including:\n *\n *  - ability for holders to burn (destroy) their tokens\n *  - a minter role that allows for token minting (creation)\n *  - a pauser role that allows to stop all token transfers\n *  - token ID and URI autogeneration\n *\n * This contract uses {AccessControl} to lock permissioned functions using the\n * different roles - head to its documentation for details.\n *\n * The account that deploys the contract will be granted the minter and pauser\n * roles, as well as the default admin role, which will let it grant both minter\n * and pauser roles to other accounts.\n */\ncontract ERC721MinterPauserAutoId is\n    ReentrancyGuard,\n    Context,\n    AccessControlEnumerable,\n    ERC721Enumerable,\n    ERC721Burnable,\n    ERC721Pausable\n{\n    using Counters for Counters.Counter;\n    using Strings for uint256;\n\n    //mapping for token URIs\n    mapping(uint256 => string) private _tokenURIs;\n\n    Counters.Counter private _tokenIdTracker;\n\n    string private _baseTokenURI;\n\n    bytes32 public constant CONTRACT_ADMIN_ROLE =\n        keccak256(\"CONTRACT_ADMIN_ROLE\");\n    bytes32 public constant MINTER_ROLE = keccak256(\"MINTER_ROLE\");\n    bytes32 public constant PAUSER_ROLE = keccak256(\"PAUSER_ROLE\");\n    bytes32 public constant TRUSTED_AGENT_ROLE =\n        keccak256(\"TRUSTED_AGENT_ROLE\");\n\n    uint256 trustedAgentEnabled = 1;\n\n    mapping(address => uint256) private coldWallet;\n\n    address internal STOR_Address;\n    address internal RCLR_Address;\n    address internal NODE_MGR_Address;\n    address internal NODE_TKN_Address;\n    STOR_Interface internal STOR;\n    RCLR_Interface internal RCLR;\n    NODE_MGR_Interface internal NODE_MGR;\n    NODE_TKN_Interface internal NODE_TKN;\n\n    bytes32 public constant B320xF_ =\n        0xFFFFFFFFFFFFFFFFFFFFFFFFFFFFFFFFFFFFFFFFFFFFFFFFFFFFFFFFFFFFFFFF;\n\n    constructor() ERC721(\"PRUF Asset Token\", \"PRAT\") {\n        _setupRole(DEFAULT_ADMIN_ROLE, _msgSender());\n        _setupRole(CONTRACT_ADMIN_ROLE, _msgSender());\n        _setupRole(PAUSER_ROLE, _msgSender());\n    }\n\n    /**\n     * @dev Verify user credentials\n     * Originating Address:\n     *      has CONTRACT_ADMIN_ROLE\n     */\n    modifier isContractAdmin() {\n        require(\n            hasRole(CONTRACT_ADMIN_ROLE, _msgSender()),\n            \"AT:MOD-IA:Calling address does not belong to a contract admin\"\n        );\n        _;\n    }\n\n    /**\n     * @dev Verify user credentials\n     * Originating Address:\n     *      has MINTER_ROLE\n     */\n    modifier isMinter() {\n        require(\n            hasRole(MINTER_ROLE, _msgSender()),\n            \"AT:MOD-IM:Calling address does not belong to a minter\"\n        );\n        _;\n    }\n\n    /**\n     * @dev Verify user credentials\n     * Originating Address:\n     *      has TRUSTED_AGENT_ROLE and Trusted Agent role is not disabled\n     */\n    modifier isTrustedAgent() {\n        require(\n            hasRole(TRUSTED_AGENT_ROLE, _msgSender()),\n            \"AT:MOD-ITA:Must have TRUSTED_AGENT_ROLE\"\n        );\n        require(\n            trustedAgentEnabled == 1,\n            \"AT:MOD-ITA:Trusted Agent function permanently disabled - use allowance / transferFrom pattern\"\n        );\n        _;\n    }\n\n    //----------------------Admin functions / isContractAdmin ----------------------//\n\n    /**\n     * @dev ----------------------------------------PERMANANTLY !!!  Kills trusted agent and payable functions\n     * this will break the functionality of current payment mechanisms.\n     *\n     * The workaround for this is to create an allowance for pruf contracts for a single or multiple payments,\n     * either ahead of time \"loading up your PRUF account\" or on demand with an operation. On demand will use quite a bit more gas.\n     * \"preloading\" should be pretty gas efficient, but will add an extra step to the workflow, requiring users to have sufficient\n     * PRuF \"banked\" in an allowance for use in the system.\n     * @param _key - set to 170 to PERMENANTLY REMOVE TRUSTED AGENT CAPABILITY\n     */\n    function killTrustedAgent(uint256 _key) external isContractAdmin {\n        if (_key == 170) {\n            trustedAgentEnabled = 0; // !!! THIS IS A PERMANENT ACTION AND CANNOT BE UNDONE\n        }\n    }\n\n    /**\n     * @dev Set storage contract to interface with\n     * @param _storageAddress - Storage contract address to set\n     */\n    function setStorageContract(address _storageAddress)\n        external\n        isContractAdmin\n    {\n        require(_storageAddress != address(0), \"AT:SSC:Storage address = 0\");\n        //^^^^^^^checks^^^^^^^^^\n\n        STOR = STOR_Interface(_storageAddress);\n        //^^^^^^^effects^^^^^^^^^\n    }\n\n    /**\n     * @dev Address Setters  - resolves addresses from storage and sets local interfaces\n     */\n    function resolveContractAddresses() external isContractAdmin {\n        //^^^^^^^checks^^^^^^^^^\n\n        RCLR_Address = STOR.resolveContractAddress(\"RCLR\");\n        RCLR = RCLR_Interface(RCLR_Address);\n\n        NODE_MGR_Address = STOR.resolveContractAddress(\"NODE_MGR\");\n        NODE_MGR = NODE_MGR_Interface(NODE_MGR_Address);\n\n        NODE_TKN_Address = STOR.resolveContractAddress(\"NODE_TKN\");\n        NODE_TKN = NODE_TKN_Interface(NODE_TKN_Address);\n        //^^^^^^^effects^^^^^^^^^\n    }\n\n    ////----------------------Regular operations----------------------//\n\n    /**\n     * @dev Set calling wallet to a \"cold Wallet\" that cannot be manipulated by TRUSTED_AGENT or PAYABLE permissioned functions\n     * WALLET ADDRESSES SET TO \"Cold\" DO NOT WORK WITH TRUSTED_AGENT FUNCTIONS and must be unset from cold before it can interact with\n     * contract functions.\n     */\n    function setColdWallet() external {\n        coldWallet[_msgSender()] = 170;\n    }\n\n    /**\n     * @dev un-set calling wallet to a \"cold Wallet\", enabling manipulation by TRUSTED_AGENT and PAYABLE permissioned functions\n     * WALLET ADDRESSES SET TO \"Cold\" DO NOT WORK WITH TRUSTED_AGENT FUNCTIONS and must be unset from cold before it can interact with\n     * contract functions.\n     */\n    function unSetColdWallet() external {\n        coldWallet[_msgSender()] = 0;\n    }\n\n    /**\n     * @dev return an adresses \"cold wallet\" status\n     * WALLET ADDRESSES SET TO \"Cold\" DO NOT WORK WITH TRUSTED_AGENT FUNCTIONS\n     * @param _addr - address to check\n     * returns 170 if adress is set to \"cold wallet\" status\n     */\n    function isColdWallet(address _addr) public view returns (uint256) {\n        return coldWallet[_addr];\n    }\n\n    event REPORT(string _msg);\n\n    function _baseURI() internal view virtual override returns (string memory) {\n        return _baseTokenURI;\n    }\n\n    /**\n     * @dev See {IERC721Metadata-tokenURI}.\n     */\n    function tokenURI(uint256 tokenId)\n        public\n        view\n        virtual\n        override\n        returns (string memory)\n    {\n        require(\n            _exists(tokenId),\n            \"ERC721URIStorage: URI query for nonexistent token\"\n        );\n\n        string memory _tokenURI = _tokenURIs[tokenId];\n        string memory base = _baseURI();\n\n        // If there is no base URI, return the token URI.\n        if (bytes(base).length == 0) {\n            return _tokenURI;\n        }\n        // If both are set, concatenate the baseURI and tokenURI (via abi.encodePacked).\n        if (bytes(_tokenURI).length > 0) {\n            return string(abi.encodePacked(base, _tokenURI));\n        }\n\n        return super.tokenURI(tokenId);\n    }\n\n    /**\n     * @dev Sets `_tokenURI` as the tokenURI of `tokenId`.\n     *\n     * Requirements:\n     *\n     * - `tokenId` must exist.\n     */\n    function _setTokenURI(uint256 tokenId, string memory _tokenURI)\n        internal\n        virtual\n    {\n        require(\n            _exists(tokenId),\n            \"ERC721URIStorage: URI set of nonexistent token\"\n        );\n        _tokenURIs[tokenId] = _tokenURI;\n    }\n\n    /**\n     * @dev Destroys `tokenId`.\n     * The approval is cleared when the token is burned.\n     *\n     * Requirements:\n     *\n     * - `tokenId` must exist.\n     *\n     * Emits a {Transfer} event.\n     */\n    function _burn(uint256 tokenId) internal virtual override {\n        super._burn(tokenId);\n\n        if (bytes(_tokenURIs[tokenId]).length != 0) {\n            delete _tokenURIs[tokenId];\n        }\n    }\n\n    // /**\n    //  * @dev Creates a new token for `to`. Its token ID will be automatically\n    //  * assigned (and available on the emitted {IERC721-Transfer} event), and the token\n    //  * URI autogenerated based on the base URI passed at construction.\n    //  *\n    //  * See {ERC721-_mint}.\n    //  *\n    //  * Requirements:\n    //  *\n    //  * - the caller must have the `MINTER_ROLE`.\n    //  */\n    // function mint(address to) public virtual {\n    //     require(hasRole(MINTER_ROLE, _msgSender()), \"ERC721PresetMinterPauserAutoId: must have minter role to mint\");\n\n    //     // We cannot just use balanceOf to create the new tokenId because tokens\n    //     // can be burned (destroyed), so we need a separate counter.\n    //     _mint(to, _tokenIdTracker.current());\n    //     _tokenIdTracker.increment();\n    // }\n\n    /**\n     * @dev Pauses all token transfers.\n     *\n     * See {ERC721Pausable} and {Pausable-_pause}.\n     *\n     * Requirements:\n     *\n     * - the caller must have the `PAUSER_ROLE`.\n     */\n    function pause() public virtual {\n        require(\n            hasRole(PAUSER_ROLE, _msgSender()),\n            \"ERC721PresetMinterPauserAutoId: must have pauser role to pause\"\n        );\n        _pause();\n    }\n\n    /**\n     * @dev Unpauses all token transfers.\n     *\n     * See {ERC721Pausable} and {Pausable-_unpause}.\n     *\n     * Requirements:\n     *\n     * - the caller must have the `PAUSER_ROLE`.\n     */\n    function unpause() public virtual {\n        require(\n            hasRole(PAUSER_ROLE, _msgSender()),\n            \"ERC721PresetMinterPauserAutoId: must have pauser role to unpause\"\n        );\n        _unpause();\n    }\n\n    function _beforeTokenTransfer(\n        address from,\n        address to,\n        uint256 tokenId\n    ) internal virtual override(ERC721, ERC721Enumerable, ERC721Pausable) {\n        super._beforeTokenTransfer(from, to, tokenId);\n    }\n\n    /**\n     * @dev See {IERC165-supportsInterface}.\n     */\n    function supportsInterface(bytes4 interfaceId)\n        public\n        view\n        virtual\n        override(AccessControlEnumerable, ERC721, ERC721Enumerable)\n        returns (bool)\n    {\n        return super.supportsInterface(interfaceId);\n    }\n}\n",
  "sourcePath": "/Users/drake/Documents/DEV/PRUF/PRUF_TRUFFLE/contracts/Test/test_Foreign721.sol",
  "compiler": {
    "name": "solc",
    "version": "0.8.7+commit.e28d00a7.Emscripten.clang"
  },
  "schemaVersion": "3.4.3",
  "updatedAt": "2022-04-27T15:21:40.696Z",
  "devdoc": {
    "details": "{ERC721} token, including:  - ability for holders to burn (destroy) their tokens  - a minter role that allows for token minting (creation)  - a pauser role that allows to stop all token transfers  - token ID and URI autogeneration This contract uses {AccessControl} to lock permissioned functions using the different roles - head to its documentation for details. The account that deploys the contract will be granted the minter and pauser roles, as well as the default admin role, which will let it grant both minter and pauser roles to other accounts.",
    "kind": "dev",
    "methods": {
      "approve(address,uint256)": {
        "details": "See {IERC721-approve}."
      },
      "balanceOf(address)": {
        "details": "See {IERC721-balanceOf}."
      },
      "burn(uint256)": {
        "details": "Burns `tokenId`. See {ERC721-_burn}. Requirements: - The caller must own `tokenId` or be an approved operator."
      },
      "getApproved(uint256)": {
        "details": "See {IERC721-getApproved}."
      },
      "getRoleAdmin(bytes32)": {
        "details": "Returns the admin role that controls `role`. See {grantRole} and {revokeRole}. To change a role's admin, use {_setRoleAdmin}."
      },
      "getRoleMember(bytes32,uint256)": {
        "details": "Returns one of the accounts that have `role`. `index` must be a value between 0 and {getRoleMemberCount}, non-inclusive. Role bearers are not sorted in any particular way, and their ordering may change at any point. WARNING: When using {getRoleMember} and {getRoleMemberCount}, make sure you perform all queries on the same block. See the following https://forum.openzeppelin.com/t/iterating-over-elements-on-enumerableset-in-openzeppelin-contracts/2296[forum post] for more information."
      },
      "getRoleMemberCount(bytes32)": {
        "details": "Returns the number of accounts that have `role`. Can be used together with {getRoleMember} to enumerate all bearers of a role."
      },
      "grantRole(bytes32,address)": {
        "details": "Overload {grantRole} to track enumerable memberships"
      },
      "hasRole(bytes32,address)": {
        "details": "Returns `true` if `account` has been granted `role`."
      },
      "isApprovedForAll(address,address)": {
        "details": "See {IERC721-isApprovedForAll}."
      },
      "isColdWallet(address)": {
        "details": "return an adresses \"cold wallet\" status WALLET ADDRESSES SET TO \"Cold\" DO NOT WORK WITH TRUSTED_AGENT FUNCTIONS",
        "params": {
          "_addr": "- address to check returns 170 if adress is set to \"cold wallet\" status"
        }
      },
      "killTrustedAgent(uint256)": {
        "details": "----------------------------------------PERMANANTLY !!!  Kills trusted agent and payable functions this will break the functionality of current payment mechanisms. The workaround for this is to create an allowance for pruf contracts for a single or multiple payments, either ahead of time \"loading up your PRUF account\" or on demand with an operation. On demand will use quite a bit more gas. \"preloading\" should be pretty gas efficient, but will add an extra step to the workflow, requiring users to have sufficient PRuF \"banked\" in an allowance for use in the system.",
        "params": {
          "_key": "- set to 170 to PERMENANTLY REMOVE TRUSTED AGENT CAPABILITY"
        }
      },
      "name()": {
        "details": "See {IERC721Metadata-name}."
      },
      "ownerOf(uint256)": {
        "details": "See {IERC721-ownerOf}."
      },
      "pause()": {
        "details": "Pauses all token transfers. See {ERC721Pausable} and {Pausable-_pause}. Requirements: - the caller must have the `PAUSER_ROLE`."
      },
      "paused()": {
        "details": "Returns true if the contract is paused, and false otherwise."
      },
      "renounceRole(bytes32,address)": {
        "details": "Overload {renounceRole} to track enumerable memberships"
      },
      "resolveContractAddresses()": {
        "details": "Address Setters  - resolves addresses from storage and sets local interfaces"
      },
      "revokeRole(bytes32,address)": {
        "details": "Overload {revokeRole} to track enumerable memberships"
      },
      "safeTransferFrom(address,address,uint256)": {
        "details": "See {IERC721-safeTransferFrom}."
      },
      "safeTransferFrom(address,address,uint256,bytes)": {
        "details": "See {IERC721-safeTransferFrom}."
      },
      "setApprovalForAll(address,bool)": {
        "details": "See {IERC721-setApprovalForAll}."
      },
      "setColdWallet()": {
        "details": "Set calling wallet to a \"cold Wallet\" that cannot be manipulated by TRUSTED_AGENT or PAYABLE permissioned functions WALLET ADDRESSES SET TO \"Cold\" DO NOT WORK WITH TRUSTED_AGENT FUNCTIONS and must be unset from cold before it can interact with contract functions."
      },
      "setStorageContract(address)": {
        "details": "Set storage contract to interface with",
        "params": {
          "_storageAddress": "- Storage contract address to set"
        }
      },
      "supportsInterface(bytes4)": {
        "details": "See {IERC165-supportsInterface}."
      },
      "symbol()": {
        "details": "See {IERC721Metadata-symbol}."
      },
      "tokenByIndex(uint256)": {
        "details": "See {IERC721Enumerable-tokenByIndex}."
      },
      "tokenOfOwnerByIndex(address,uint256)": {
        "details": "See {IERC721Enumerable-tokenOfOwnerByIndex}."
      },
      "tokenURI(uint256)": {
        "details": "See {IERC721Metadata-tokenURI}."
      },
      "totalSupply()": {
        "details": "See {IERC721Enumerable-totalSupply}."
      },
      "transferFrom(address,address,uint256)": {
        "details": "See {IERC721-transferFrom}."
      },
      "unSetColdWallet()": {
        "details": "un-set calling wallet to a \"cold Wallet\", enabling manipulation by TRUSTED_AGENT and PAYABLE permissioned functions WALLET ADDRESSES SET TO \"Cold\" DO NOT WORK WITH TRUSTED_AGENT FUNCTIONS and must be unset from cold before it can interact with contract functions."
      },
      "unpause()": {
        "details": "Unpauses all token transfers. See {ERC721Pausable} and {Pausable-_unpause}. Requirements: - the caller must have the `PAUSER_ROLE`."
      }
    },
    "version": 1
  },
  "userdoc": {
    "kind": "user",
    "methods": {},
    "version": 1
  }
}