{
  "contractName": "ERC777SenderRecipientMock",
  "abi": [
    {
      "anonymous": false,
      "inputs": [
        {
          "indexed": false,
          "internalType": "address",
          "name": "operator",
          "type": "address"
        },
        {
          "indexed": false,
          "internalType": "address",
          "name": "from",
          "type": "address"
        },
        {
          "indexed": false,
          "internalType": "address",
          "name": "to",
          "type": "address"
        },
        {
          "indexed": false,
          "internalType": "uint256",
          "name": "amount",
          "type": "uint256"
        },
        {
          "indexed": false,
          "internalType": "bytes",
          "name": "data",
          "type": "bytes"
        },
        {
          "indexed": false,
          "internalType": "bytes",
          "name": "operatorData",
          "type": "bytes"
        },
        {
          "indexed": false,
          "internalType": "address",
          "name": "token",
          "type": "address"
        },
        {
          "indexed": false,
          "internalType": "uint256",
          "name": "fromBalance",
          "type": "uint256"
        },
        {
          "indexed": false,
          "internalType": "uint256",
          "name": "toBalance",
          "type": "uint256"
        }
      ],
      "name": "TokensReceivedCalled",
      "type": "event"
    },
    {
      "anonymous": false,
      "inputs": [
        {
          "indexed": false,
          "internalType": "address",
          "name": "operator",
          "type": "address"
        },
        {
          "indexed": false,
          "internalType": "address",
          "name": "from",
          "type": "address"
        },
        {
          "indexed": false,
          "internalType": "address",
          "name": "to",
          "type": "address"
        },
        {
          "indexed": false,
          "internalType": "uint256",
          "name": "amount",
          "type": "uint256"
        },
        {
          "indexed": false,
          "internalType": "bytes",
          "name": "data",
          "type": "bytes"
        },
        {
          "indexed": false,
          "internalType": "bytes",
          "name": "operatorData",
          "type": "bytes"
        },
        {
          "indexed": false,
          "internalType": "address",
          "name": "token",
          "type": "address"
        },
        {
          "indexed": false,
          "internalType": "uint256",
          "name": "fromBalance",
          "type": "uint256"
        },
        {
          "indexed": false,
          "internalType": "uint256",
          "name": "toBalance",
          "type": "uint256"
        }
      ],
      "name": "TokensToSendCalled",
      "type": "event"
    },
    {
      "inputs": [
        {
          "internalType": "bytes32",
          "name": "interfaceHash",
          "type": "bytes32"
        },
        {
          "internalType": "address",
          "name": "account",
          "type": "address"
        }
      ],
      "name": "canImplementInterfaceForAddress",
      "outputs": [
        {
          "internalType": "bytes32",
          "name": "",
          "type": "bytes32"
        }
      ],
      "stateMutability": "view",
      "type": "function"
    },
    {
      "inputs": [
        {
          "internalType": "address",
          "name": "operator",
          "type": "address"
        },
        {
          "internalType": "address",
          "name": "from",
          "type": "address"
        },
        {
          "internalType": "address",
          "name": "to",
          "type": "address"
        },
        {
          "internalType": "uint256",
          "name": "amount",
          "type": "uint256"
        },
        {
          "internalType": "bytes",
          "name": "userData",
          "type": "bytes"
        },
        {
          "internalType": "bytes",
          "name": "operatorData",
          "type": "bytes"
        }
      ],
      "name": "tokensToSend",
      "outputs": [],
      "stateMutability": "nonpayable",
      "type": "function"
    },
    {
      "inputs": [
        {
          "internalType": "address",
          "name": "operator",
          "type": "address"
        },
        {
          "internalType": "address",
          "name": "from",
          "type": "address"
        },
        {
          "internalType": "address",
          "name": "to",
          "type": "address"
        },
        {
          "internalType": "uint256",
          "name": "amount",
          "type": "uint256"
        },
        {
          "internalType": "bytes",
          "name": "userData",
          "type": "bytes"
        },
        {
          "internalType": "bytes",
          "name": "operatorData",
          "type": "bytes"
        }
      ],
      "name": "tokensReceived",
      "outputs": [],
      "stateMutability": "nonpayable",
      "type": "function"
    },
    {
      "inputs": [
        {
          "internalType": "address",
          "name": "account",
          "type": "address"
        }
      ],
      "name": "senderFor",
      "outputs": [],
      "stateMutability": "nonpayable",
      "type": "function"
    },
    {
      "inputs": [
        {
          "internalType": "address",
          "name": "sender",
          "type": "address"
        }
      ],
      "name": "registerSender",
      "outputs": [],
      "stateMutability": "nonpayable",
      "type": "function"
    },
    {
      "inputs": [
        {
          "internalType": "address",
          "name": "account",
          "type": "address"
        }
      ],
      "name": "recipientFor",
      "outputs": [],
      "stateMutability": "nonpayable",
      "type": "function"
    },
    {
      "inputs": [
        {
          "internalType": "address",
          "name": "recipient",
          "type": "address"
        }
      ],
      "name": "registerRecipient",
      "outputs": [],
      "stateMutability": "nonpayable",
      "type": "function"
    },
    {
      "inputs": [
        {
          "internalType": "bool",
          "name": "shouldRevert",
          "type": "bool"
        }
      ],
      "name": "setShouldRevertSend",
      "outputs": [],
      "stateMutability": "nonpayable",
      "type": "function"
    },
    {
      "inputs": [
        {
          "internalType": "bool",
          "name": "shouldRevert",
          "type": "bool"
        }
      ],
      "name": "setShouldRevertReceive",
      "outputs": [],
      "stateMutability": "nonpayable",
      "type": "function"
    },
    {
      "inputs": [
        {
          "internalType": "contract IERC777",
          "name": "token",
          "type": "address"
        },
        {
          "internalType": "address",
          "name": "to",
          "type": "address"
        },
        {
          "internalType": "uint256",
          "name": "amount",
          "type": "uint256"
        },
        {
          "internalType": "bytes",
          "name": "data",
          "type": "bytes"
        }
      ],
      "name": "send",
      "outputs": [],
      "stateMutability": "nonpayable",
      "type": "function"
    },
    {
      "inputs": [
        {
          "internalType": "contract IERC777",
          "name": "token",
          "type": "address"
        },
        {
          "internalType": "uint256",
          "name": "amount",
          "type": "uint256"
        },
        {
          "internalType": "bytes",
          "name": "data",
          "type": "bytes"
        }
      ],
      "name": "burn",
      "outputs": [],
      "stateMutability": "nonpayable",
      "type": "function"
    }
  ],
  "bytecode": "0x60806040526001805462010000600160b01b031916751820a4b7618bde71dce8cdc73aab6c95905fad24000017905534801561003a57600080fd5b50610da58061004a6000396000f3fe608060405234801561001057600080fd5b50600436106100a85760003560e01c806375ab97821161007157806375ab97821461036f578063a8badaa514610455578063c97e18fc1461047b578063d2de64741461049a578063e0eb2180146104c0578063e1ecbd30146104e6576100a8565b806223de29146100ad578063249cb3fa146101955780633836ef89146101d357806344d17187146102975780634e4ae5a514610350575b600080fd5b610193600480360360c08110156100c357600080fd5b6001600160a01b03823581169260208101358216926040820135909216916060820135919081019060a081016080820135600160201b81111561010557600080fd5b82018360208201111561011757600080fd5b803590602001918460018302840111600160201b8311171561013857600080fd5b919390929091602081019035600160201b81111561015557600080fd5b82018360208201111561016757600080fd5b803590602001918460018302840111600160201b8311171561018857600080fd5b50909250905061050c565b005b6101c1600480360360408110156101ab57600080fd5b50803590602001356001600160a01b031661072a565b60408051918252519081900360200190f35b610193600480360360808110156101e957600080fd5b6001600160a01b03823581169260208101359091169160408201359190810190608081016060820135600160201b81111561022357600080fd5b82018360208201111561023557600080fd5b803590602001918460018302840111600160201b8311171561025657600080fd5b91908080601f01602080910402602001604051908101604052809392919081815260200183838082843760009201919091525092955061079f945050505050565b610193600480360360608110156102ad57600080fd5b6001600160a01b0382351691602081013591810190606081016040820135600160201b8111156102dc57600080fd5b8201836020820111156102ee57600080fd5b803590602001918460018302840111600160201b8311171561030f57600080fd5b91908080601f01602080910402602001604051908101604052809392919081815260200183838082843760009201919091525092955061087e945050505050565b6101936004803603602081101561036657600080fd5b5035151561094c565b610193600480360360c081101561038557600080fd5b6001600160a01b03823581169260208101358216926040820135909216916060820135919081019060a081016080820135600160201b8111156103c757600080fd5b8201836020820111156103d957600080fd5b803590602001918460018302840111600160201b831117156103fa57600080fd5b919390929091602081019035600160201b81111561041757600080fd5b82018360208201111561042957600080fd5b803590602001918460018302840111600160201b8311171561044a57600080fd5b50909250905061095f565b6101936004803603602081101561046b57600080fd5b50356001600160a01b0316610b78565b6101936004803603602081101561049157600080fd5b50351515610c14565b610193600480360360208110156104b057600080fd5b50356001600160a01b0316610c2e565b610193600480360360208110156104d657600080fd5b50356001600160a01b0316610c77565b610193600480360360208110156104fc57600080fd5b50356001600160a01b0316610cbc565b600154610100900460ff161561052157600080fd5b600061052b610d3d565b90506000816001600160a01b03166370a082318a6040518263ffffffff1660e01b815260040180826001600160a01b0316815260200191505060206040518083038186803b15801561057c57600080fd5b505afa158015610590573d6000803e3d6000fd5b505050506040513d60208110156105a657600080fd5b5051604080516370a0823160e01b81526001600160a01b038b811660048301529151929350600092918516916370a0823191602480820192602092909190829003018186803b1580156105f857600080fd5b505afa15801561060c573d6000803e3d6000fd5b505050506040513d602081101561062257600080fd5b810190808051906020019092919050505090507f47e915878c47f3ec4d7ff646a2becb229f64fd2abe4d2b5e2bb4275b0cf50d4e8b8b8b8b8b8b8b8b8b8b8b604051808c6001600160a01b031681526020018b6001600160a01b031681526020018a6001600160a01b031681526020018981526020018060200180602001866001600160a01b0316815260200185815260200184815260200183810383528a8a82818152602001925080828437600083820152601f01601f191690910184810383528881526020019050888880828437600083820152604051601f909101601f19169092018290039f50909d5050505050505050505050505050a15050505050505050505050565b6000828152602081815260408083206001600160a01b038516845290915281205460ff16610759576000610798565b604051602001808073455243313832305f4143434550545f4d4147494360601b8152506014019050604051602081830303815290604052805190602001205b9392505050565b836001600160a01b0316639bd9bbc68484846040518463ffffffff1660e01b815260040180846001600160a01b0316815260200183815260200180602001828103825283818151815260200191508051906020019080838360005b838110156108125781810151838201526020016107fa565b50505050905090810190601f16801561083f5780820380516001836020036101000a031916815260200191505b50945050505050600060405180830381600087803b15801561086057600080fd5b505af1158015610874573d6000803e3d6000fd5b5050505050505050565b6040805163fe9d930360e01b815260048101848152602482019283528351604483015283516001600160a01b0387169363fe9d9303938793879390929160640190602085019080838360005b838110156108e25781810151838201526020016108ca565b50505050905090810190601f16801561090f5780820380516001836020036101000a031916815260200191505b509350505050600060405180830381600087803b15801561092f57600080fd5b505af1158015610943573d6000803e3d6000fd5b50505050505050565b6001805460ff1916911515919091179055565b60015460ff161561096f57600080fd5b6000610979610d3d565b90506000816001600160a01b03166370a082318a6040518263ffffffff1660e01b815260040180826001600160a01b0316815260200191505060206040518083038186803b1580156109ca57600080fd5b505afa1580156109de573d6000803e3d6000fd5b505050506040513d60208110156109f457600080fd5b5051604080516370a0823160e01b81526001600160a01b038b811660048301529151929350600092918516916370a0823191602480820192602092909190829003018186803b158015610a4657600080fd5b505afa158015610a5a573d6000803e3d6000fd5b505050506040513d6020811015610a7057600080fd5b810190808051906020019092919050505090507faa3e88aca472e90221daf7d3d601abafb62b120319089d7a2c2f63588da855298b8b8b8b8b8b8b8b8b8b8b604051808c6001600160a01b031681526020018b6001600160a01b031681526020018a6001600160a01b031681526020018981526020018060200180602001866001600160a01b0316815260200185815260200184815260200183810383528a8a82818152602001925080828437600083820152601f01601f191690910184810383528881526020019050888880828437600083820152604051601f909101601f19169092018290039f50909d5050505050505050505050505050a15050505050505050505050565b600154604080516329965a1d60e01b81523060048201527fb281fc8c12954d22544db45de3159a39272895b169a852b314f9cc762e44c53b60248201526001600160a01b038481166044830152915162010000909304909116916329965a1d9160648082019260009290919082900301818387803b158015610bf957600080fd5b505af1158015610c0d573d6000803e3d6000fd5b5050505050565b600180549115156101000261ff0019909216919091179055565b610c587f29ddb589b1fb5fc7cf394961c1adf5f8c6454761adf795e67fe149f658abe89582610d41565b306001600160a01b038216811415610c7357610c7381610cbc565b5050565b610ca17fb281fc8c12954d22544db45de3159a39272895b169a852b314f9cc762e44c53b82610d41565b306001600160a01b038216811415610c7357610c7381610b78565b600154604080516329965a1d60e01b81523060048201527f29ddb589b1fb5fc7cf394961c1adf5f8c6454761adf795e67fe149f658abe89560248201526001600160a01b038481166044830152915162010000909304909116916329965a1d9160648082019260009290919082900301818387803b158015610bf957600080fd5b3390565b6000918252602082815260408084206001600160a01b0390931684529190529020805460ff1916600117905556fea264697066735822122067f8eda92f01b44561a7ca39851cc1ee88bb8405af926adc907213e81139029c64736f6c634300060c0033",
  "immutableReferences": {},
  "source": "// SPDX-License-Identifier: MIT\n\npragma solidity ^0.6.0;\n\nimport \"../GSN/Context.sol\";\nimport \"../token/ERC777/IERC777.sol\";\nimport \"../token/ERC777/IERC777Sender.sol\";\nimport \"../token/ERC777/IERC777Recipient.sol\";\nimport \"../introspection/IERC1820Registry.sol\";\nimport \"../introspection/ERC1820Implementer.sol\";\n\ncontract ERC777SenderRecipientMock is Context, IERC777Sender, IERC777Recipient, ERC1820Implementer {\n    event TokensToSendCalled(\n        address operator,\n        address from,\n        address to,\n        uint256 amount,\n        bytes data,\n        bytes operatorData,\n        address token,\n        uint256 fromBalance,\n        uint256 toBalance\n    );\n\n    event TokensReceivedCalled(\n        address operator,\n        address from,\n        address to,\n        uint256 amount,\n        bytes data,\n        bytes operatorData,\n        address token,\n        uint256 fromBalance,\n        uint256 toBalance\n    );\n\n    bool private _shouldRevertSend;\n    bool private _shouldRevertReceive;\n\n    IERC1820Registry private _erc1820 = IERC1820Registry(0x1820a4B7618BdE71Dce8cdc73aAB6C95905faD24);\n\n    bytes32 constant private _TOKENS_SENDER_INTERFACE_HASH = keccak256(\"ERC777TokensSender\");\n    bytes32 constant private _TOKENS_RECIPIENT_INTERFACE_HASH = keccak256(\"ERC777TokensRecipient\");\n\n    function tokensToSend(\n        address operator,\n        address from,\n        address to,\n        uint256 amount,\n        bytes calldata userData,\n        bytes calldata operatorData\n    ) external override {\n        if (_shouldRevertSend) {\n            revert();\n        }\n\n        IERC777 token = IERC777(_msgSender());\n\n        uint256 fromBalance = token.balanceOf(from);\n        // when called due to burn, to will be the zero address, which will have a balance of 0\n        uint256 toBalance = token.balanceOf(to);\n\n        emit TokensToSendCalled(\n            operator,\n            from,\n            to,\n            amount,\n            userData,\n            operatorData,\n            address(token),\n            fromBalance,\n            toBalance\n        );\n    }\n\n    function tokensReceived(\n        address operator,\n        address from,\n        address to,\n        uint256 amount,\n        bytes calldata userData,\n        bytes calldata operatorData\n    ) external override {\n        if (_shouldRevertReceive) {\n            revert();\n        }\n\n        IERC777 token = IERC777(_msgSender());\n\n        uint256 fromBalance = token.balanceOf(from);\n        // when called due to burn, to will be the zero address, which will have a balance of 0\n        uint256 toBalance = token.balanceOf(to);\n\n        emit TokensReceivedCalled(\n            operator,\n            from,\n            to,\n            amount,\n            userData,\n            operatorData,\n            address(token),\n            fromBalance,\n            toBalance\n        );\n    }\n\n    function senderFor(address account) public {\n        _registerInterfaceForAddress(_TOKENS_SENDER_INTERFACE_HASH, account);\n\n        address self = address(this);\n        if (account == self) {\n            registerSender(self);\n        }\n    }\n\n    function registerSender(address sender) public {\n        _erc1820.setInterfaceImplementer(address(this), _TOKENS_SENDER_INTERFACE_HASH, sender);\n    }\n\n    function recipientFor(address account) public {\n        _registerInterfaceForAddress(_TOKENS_RECIPIENT_INTERFACE_HASH, account);\n\n        address self = address(this);\n        if (account == self) {\n            registerRecipient(self);\n        }\n    }\n\n    function registerRecipient(address recipient) public {\n        _erc1820.setInterfaceImplementer(address(this), _TOKENS_RECIPIENT_INTERFACE_HASH, recipient);\n    }\n\n    function setShouldRevertSend(bool shouldRevert) public {\n        _shouldRevertSend = shouldRevert;\n    }\n\n    function setShouldRevertReceive(bool shouldRevert) public {\n        _shouldRevertReceive = shouldRevert;\n    }\n\n    function send(IERC777 token, address to, uint256 amount, bytes memory data) public {\n        // This is 777's send function, not the Solidity send function\n        token.send(to, amount, data); // solhint-disable-line check-send-result\n    }\n\n    function burn(IERC777 token, uint256 amount, bytes memory data) public {\n        token.burn(amount, data);\n    }\n}\n\n",
  "sourcePath": "/Users/cts/dev/PRUF/PRUF_TRUFFLE/contracts/Imports/mocks/ERC777SenderRecipientMock.sol",
  "compiler": {
    "name": "solc",
    "version": "0.6.12+commit.27d51765.Emscripten.clang"
  },
  "schemaVersion": "3.2.3",
  "updatedAt": "2020-09-22T21:30:52.010Z",
  "devdoc": {
    "kind": "dev",
    "methods": {
      "tokensReceived(address,address,address,uint256,bytes,bytes)": {
        "details": "Called by an {IERC777} token contract whenever tokens are being moved or created into a registered account (`to`). The type of operation is conveyed by `from` being the zero address or not. This call occurs _after_ the token contract's state is updated, so {IERC777-balanceOf}, etc., can be used to query the post-operation state. This function may revert to prevent the operation from being executed."
      },
      "tokensToSend(address,address,address,uint256,bytes,bytes)": {
        "details": "Called by an {IERC777} token contract whenever a registered holder's (`from`) tokens are about to be moved or destroyed. The type of operation is conveyed by `to` being the zero address or not. This call occurs _before_ the token contract's state is updated, so {IERC777-balanceOf}, etc., can be used to query the pre-operation state. This function may revert to prevent the operation from being executed."
      }
    },
    "version": 1
  },
  "userdoc": {
    "kind": "user",
    "methods": {
      "canImplementInterfaceForAddress(bytes32,address)": {
        "notice": "See {IERC1820Implementer-canImplementInterfaceForAddress}."
      }
    },
    "version": 1
  }
}