{
  "contractName": "EtherReceiverMock",
  "abi": [
    {
      "stateMutability": "payable",
      "type": "receive"
    },
    {
      "inputs": [
        {
          "internalType": "bool",
          "name": "acceptEther",
          "type": "bool"
        }
      ],
      "name": "setAcceptEther",
      "outputs": [],
      "stateMutability": "nonpayable",
      "type": "function"
    }
  ],
  "bytecode": "0x6080604052348015600f57600080fd5b5060a38061001e6000396000f3fe608060405260043610601f5760003560e01c80634fea120c146038576033565b3660335760005460ff16603157600080fd5b005b600080fd5b348015604357600080fd5b50603160048036036020811015605857600080fd5b506000805460ff19169135151591909117905556fea26469706673582212205fd01eb7f1ac6ebac3cb6af670115ca51029c6ef62a98b878c8682a11bc4794864736f6c634300060c0033",
  "immutableReferences": {},
  "source": "// SPDX-License-Identifier: MIT\n\npragma solidity ^0.6.0;\n\ncontract EtherReceiverMock {\n    bool private _acceptEther;\n\n    function setAcceptEther(bool acceptEther) public {\n        _acceptEther = acceptEther;\n    }\n\n    receive () external payable {\n        if (!_acceptEther) {\n            revert();\n        }\n    }\n}\n",
  "sourcePath": "/Users/cts/dev/PRUF/PRUF_TRUFFLE/contracts/Imports/mocks/EtherReceiverMock.sol",
  "compiler": {
    "name": "solc",
    "version": "0.6.12+commit.27d51765.Emscripten.clang"
  },
  "schemaVersion": "3.2.3",
  "updatedAt": "2020-09-22T21:30:52.032Z",
  "devdoc": {
    "kind": "dev",
    "methods": {},
    "version": 1
  },
  "userdoc": {
    "kind": "user",
    "methods": {},
    "version": 1
  }
}