{
  "contractName": "EtherReceiverMock",
  "abi": [
    {
      "stateMutability": "payable",
      "type": "receive"
    },
    {
      "inputs": [
        {
          "internalType": "bool",
          "name": "acceptEther",
          "type": "bool"
        }
      ],
      "name": "setAcceptEther",
      "outputs": [],
      "stateMutability": "nonpayable",
      "type": "function"
    }
  ],
  "bytecode": "0x608060405234801561001057600080fd5b5060c08061001f6000396000f3fe60806040526004361060205760003560e01c80634fea120c14603957600080fd5b3660345760005460ff16603257600080fd5b005b600080fd5b348015604457600080fd5b50603260503660046063565b6000805460ff1916911515919091179055565b600060208284031215607457600080fd5b81358015158114608357600080fd5b939250505056fea26469706673582212201c8affd6052f5e14e7703ac88476dc2748059f9e73c37211c36e45235188937464736f6c63430008070033",
  "immutableReferences": {},
  "source": "// SPDX-License-Identifier: MIT\n\npragma solidity ^0.8.0;\n\ncontract EtherReceiverMock {\n    bool private _acceptEther;\n\n    function setAcceptEther(bool acceptEther) public {\n        _acceptEther = acceptEther;\n    }\n\n    receive() external payable {\n        if (!_acceptEther) {\n            revert();\n        }\n    }\n}\n",
  "sourcePath": "/Users/drake/Documents/DEV/PRUF/PRUF_TRUFFLE/contracts/Imports/mocks/EtherReceiverMock.sol",
  "compiler": {
    "name": "solc",
    "version": "0.8.7+commit.e28d00a7.Emscripten.clang"
  },
  "schemaVersion": "3.4.3",
  "updatedAt": "2021-10-26T17:58:03.667Z",
  "devdoc": {
    "kind": "dev",
    "methods": {},
    "version": 1
  },
  "userdoc": {
    "kind": "user",
    "methods": {},
    "version": 1
  }
}