{
  "contractName": "FAUCET",
  "abi": [
    {
      "inputs": [],
      "stateMutability": "nonpayable",
      "type": "constructor"
    },
    {
      "anonymous": false,
      "inputs": [
        {
          "indexed": false,
          "internalType": "address",
          "name": "account",
          "type": "address"
        }
      ],
      "name": "Paused",
      "type": "event"
    },
    {
      "anonymous": false,
      "inputs": [
        {
          "indexed": false,
          "internalType": "address",
          "name": "addr",
          "type": "address"
        },
        {
          "indexed": false,
          "internalType": "uint256",
          "name": "amount",
          "type": "uint256"
        }
      ],
      "name": "REPORT",
      "type": "event"
    },
    {
      "anonymous": false,
      "inputs": [
        {
          "indexed": true,
          "internalType": "bytes32",
          "name": "role",
          "type": "bytes32"
        },
        {
          "indexed": true,
          "internalType": "bytes32",
          "name": "previousAdminRole",
          "type": "bytes32"
        },
        {
          "indexed": true,
          "internalType": "bytes32",
          "name": "newAdminRole",
          "type": "bytes32"
        }
      ],
      "name": "RoleAdminChanged",
      "type": "event"
    },
    {
      "anonymous": false,
      "inputs": [
        {
          "indexed": true,
          "internalType": "bytes32",
          "name": "role",
          "type": "bytes32"
        },
        {
          "indexed": true,
          "internalType": "address",
          "name": "account",
          "type": "address"
        },
        {
          "indexed": true,
          "internalType": "address",
          "name": "sender",
          "type": "address"
        }
      ],
      "name": "RoleGranted",
      "type": "event"
    },
    {
      "anonymous": false,
      "inputs": [
        {
          "indexed": true,
          "internalType": "bytes32",
          "name": "role",
          "type": "bytes32"
        },
        {
          "indexed": true,
          "internalType": "address",
          "name": "account",
          "type": "address"
        },
        {
          "indexed": true,
          "internalType": "address",
          "name": "sender",
          "type": "address"
        }
      ],
      "name": "RoleRevoked",
      "type": "event"
    },
    {
      "anonymous": false,
      "inputs": [
        {
          "indexed": false,
          "internalType": "address",
          "name": "account",
          "type": "address"
        }
      ],
      "name": "Unpaused",
      "type": "event"
    },
    {
      "inputs": [],
      "name": "AIRDROP_ROLE",
      "outputs": [
        {
          "internalType": "bytes32",
          "name": "",
          "type": "bytes32"
        }
      ],
      "stateMutability": "view",
      "type": "function"
    },
    {
      "inputs": [],
      "name": "DEFAULT_ADMIN_ROLE",
      "outputs": [
        {
          "internalType": "bytes32",
          "name": "",
          "type": "bytes32"
        }
      ],
      "stateMutability": "view",
      "type": "function"
    },
    {
      "inputs": [],
      "name": "PAUSER_ROLE",
      "outputs": [
        {
          "internalType": "bytes32",
          "name": "",
          "type": "bytes32"
        }
      ],
      "stateMutability": "view",
      "type": "function"
    },
    {
      "inputs": [],
      "name": "WHITELIST_ROLE",
      "outputs": [
        {
          "internalType": "bytes32",
          "name": "",
          "type": "bytes32"
        }
      ],
      "stateMutability": "view",
      "type": "function"
    },
    {
      "inputs": [],
      "name": "airdropAmount",
      "outputs": [
        {
          "internalType": "uint256",
          "name": "",
          "type": "uint256"
        }
      ],
      "stateMutability": "view",
      "type": "function"
    },
    {
      "inputs": [
        {
          "internalType": "bytes32",
          "name": "role",
          "type": "bytes32"
        }
      ],
      "name": "getRoleAdmin",
      "outputs": [
        {
          "internalType": "bytes32",
          "name": "",
          "type": "bytes32"
        }
      ],
      "stateMutability": "view",
      "type": "function"
    },
    {
      "inputs": [
        {
          "internalType": "bytes32",
          "name": "role",
          "type": "bytes32"
        },
        {
          "internalType": "uint256",
          "name": "index",
          "type": "uint256"
        }
      ],
      "name": "getRoleMember",
      "outputs": [
        {
          "internalType": "address",
          "name": "",
          "type": "address"
        }
      ],
      "stateMutability": "view",
      "type": "function"
    },
    {
      "inputs": [
        {
          "internalType": "bytes32",
          "name": "role",
          "type": "bytes32"
        }
      ],
      "name": "getRoleMemberCount",
      "outputs": [
        {
          "internalType": "uint256",
          "name": "",
          "type": "uint256"
        }
      ],
      "stateMutability": "view",
      "type": "function"
    },
    {
      "inputs": [
        {
          "internalType": "bytes32",
          "name": "role",
          "type": "bytes32"
        },
        {
          "internalType": "address",
          "name": "account",
          "type": "address"
        }
      ],
      "name": "grantRole",
      "outputs": [],
      "stateMutability": "nonpayable",
      "type": "function"
    },
    {
      "inputs": [
        {
          "internalType": "bytes32",
          "name": "role",
          "type": "bytes32"
        },
        {
          "internalType": "address",
          "name": "account",
          "type": "address"
        }
      ],
      "name": "hasRole",
      "outputs": [
        {
          "internalType": "bool",
          "name": "",
          "type": "bool"
        }
      ],
      "stateMutability": "view",
      "type": "function"
    },
    {
      "inputs": [],
      "name": "paused",
      "outputs": [
        {
          "internalType": "bool",
          "name": "",
          "type": "bool"
        }
      ],
      "stateMutability": "view",
      "type": "function"
    },
    {
      "inputs": [],
      "name": "payment_address",
      "outputs": [
        {
          "internalType": "address payable",
          "name": "",
          "type": "address"
        }
      ],
      "stateMutability": "view",
      "type": "function"
    },
    {
      "inputs": [],
      "name": "presaleCount",
      "outputs": [
        {
          "internalType": "uint256",
          "name": "",
          "type": "uint256"
        }
      ],
      "stateMutability": "view",
      "type": "function"
    },
    {
      "inputs": [],
      "name": "presaleLimit",
      "outputs": [
        {
          "internalType": "uint256",
          "name": "",
          "type": "uint256"
        }
      ],
      "stateMutability": "view",
      "type": "function"
    },
    {
      "inputs": [
        {
          "internalType": "bytes32",
          "name": "role",
          "type": "bytes32"
        },
        {
          "internalType": "address",
          "name": "account",
          "type": "address"
        }
      ],
      "name": "renounceRole",
      "outputs": [],
      "stateMutability": "nonpayable",
      "type": "function"
    },
    {
      "inputs": [
        {
          "internalType": "bytes32",
          "name": "role",
          "type": "bytes32"
        },
        {
          "internalType": "address",
          "name": "account",
          "type": "address"
        }
      ],
      "name": "revokeRole",
      "outputs": [],
      "stateMutability": "nonpayable",
      "type": "function"
    },
    {
      "inputs": [],
      "name": "tokenId",
      "outputs": [
        {
          "internalType": "uint256",
          "name": "",
          "type": "uint256"
        }
      ],
      "stateMutability": "view",
      "type": "function"
    },
    {
      "stateMutability": "payable",
      "type": "receive"
    },
    {
      "inputs": [
        {
          "internalType": "address",
          "name": "_address",
          "type": "address"
        }
      ],
      "name": "ADMIN_set_Util_TokenContract",
      "outputs": [],
      "stateMutability": "nonpayable",
      "type": "function"
    },
    {
      "inputs": [
        {
          "internalType": "address",
          "name": "_address",
          "type": "address"
        }
      ],
      "name": "ADMIN_set_Id_TokenContract",
      "outputs": [],
      "stateMutability": "nonpayable",
      "type": "function"
    },
    {
      "inputs": [
        {
          "internalType": "address payable",
          "name": "_address",
          "type": "address"
        }
      ],
      "name": "ADMIN_setPaymentAddress",
      "outputs": [],
      "stateMutability": "nonpayable",
      "type": "function"
    },
    {
      "inputs": [
        {
          "internalType": "uint256",
          "name": "_airdropAmount",
          "type": "uint256"
        }
      ],
      "name": "ADMIN_setAirDropAmount",
      "outputs": [],
      "stateMutability": "nonpayable",
      "type": "function"
    },
    {
      "inputs": [
        {
          "internalType": "uint256",
          "name": "_presaleLimit",
          "type": "uint256"
        }
      ],
      "name": "ADMIN_setPresaleLimit",
      "outputs": [],
      "stateMutability": "nonpayable",
      "type": "function"
    },
    {
      "inputs": [
        {
          "internalType": "address",
          "name": "_addr",
          "type": "address"
        },
        {
          "internalType": "uint256",
          "name": "_tokensPerEth",
          "type": "uint256"
        },
        {
          "internalType": "uint256",
          "name": "_minEth",
          "type": "uint256"
        },
        {
          "internalType": "uint256",
          "name": "_maxEth",
          "type": "uint256"
        }
      ],
      "name": "whitelist",
      "outputs": [],
      "stateMutability": "nonpayable",
      "type": "function"
    },
    {
      "inputs": [
        {
          "internalType": "address",
          "name": "_addr",
          "type": "address"
        }
      ],
      "name": "checkWhitelist",
      "outputs": [
        {
          "internalType": "uint256",
          "name": "",
          "type": "uint256"
        },
        {
          "internalType": "uint256",
          "name": "",
          "type": "uint256"
        },
        {
          "internalType": "uint256",
          "name": "",
          "type": "uint256"
        }
      ],
      "stateMutability": "view",
      "type": "function"
    },
    {
      "inputs": [],
      "name": "GET_ID",
      "outputs": [],
      "stateMutability": "nonpayable",
      "type": "function"
    },
    {
      "inputs": [],
      "name": "withdraw",
      "outputs": [],
      "stateMutability": "nonpayable",
      "type": "function"
    },
    {
      "inputs": [],
      "name": "balance",
      "outputs": [
        {
          "internalType": "uint256",
          "name": "",
          "type": "uint256"
        }
      ],
      "stateMutability": "view",
      "type": "function"
    },
    {
      "inputs": [],
      "name": "pause",
      "outputs": [],
      "stateMutability": "nonpayable",
      "type": "function"
    },
    {
      "inputs": [],
      "name": "unpause",
      "outputs": [],
      "stateMutability": "nonpayable",
      "type": "function"
    },
    {
      "inputs": [],
      "name": "BUY_PRUF",
      "outputs": [],
      "stateMutability": "payable",
      "type": "function"
    }
  ],
  "bytecode": "0x6080604052670de0b6b3a76400006008553480156200001d57600080fd5b5060016000818155815460ff191690915562000043906200003d62000162565b62000166565b620000727f65d7a28e3265b37a6474929f336521b332c1681b933f6cb9f3376673440d862a6200003d62000162565b620000a17fdc72ed553f2544c34465af23b847953efeb813428162d767f9ba5f4013be67606200003d62000162565b620000d07f3a2f235c9daaf33349d300aadff2f15078a89df81bcfdd45ba11c8f816bddc6f6200003d62000162565b60008052600c60205269152d02c7e14af68000007f13649b2456f1b42fef0f0040b3aaeabcd21a76a0f3f5defd4f583839455116e85567016345785d8a00007f13649b2456f1b42fef0f0040b3aaeabcd21a76a0f3f5defd4f583839455116e955678ac7230489e800007f13649b2456f1b42fef0f0040b3aaeabcd21a76a0f3f5defd4f583839455116ea5562000278565b3390565b62000172828262000176565b5050565b60008281526002602090815260409091206200019d9183906200151d620001f1821b17901c565b156200017257620001ad62000162565b6001600160a01b0316816001600160a01b0316837f2f8788117e7eff1d82e926ec794901d17c78024a50270940304540a733656f0d60405160405180910390a45050565b600062000208836001600160a01b03841662000211565b90505b92915050565b60006200021f838362000260565b62000257575081546001818101845560008481526020808220909301849055845484825282860190935260409020919091556200020b565b5060006200020b565b60009081526001919091016020526040902054151590565b611dbf80620002886000396000f3fe6080604052600436106101d15760003560e01c80637e3eafaa116100f7578063b3479bad11610095578063cde27a3511610064578063cde27a35146105dd578063d547741f146105f2578063e63ab1e91461062b578063fc2ea8a514610640576101e0565b8063b3479bad1461052f578063b69ef8a814610574578063b9a3309414610589578063ca15c873146105b3576101e0565b806391d14854116100d157806391d1485414610499578063a217fddf146104d2578063a761e07e146104e7578063ae460cc4146104fc576101e0565b80637e3eafaa1461042a5780638456cb59146104545780639010d07c14610469576101e0565b806336568abe1161016f578063525b3fe31161013e578063525b3fe3146103a45780635c975abb146103b95780637a997ab7146103e25780637bd8cc8e146103f7576101e0565b806336568abe146103395780633ccfd60b146103725780633f4ba83a146103875780634e0cb3231461039c576101e0565b80631950c218116101ab5780631950c218146102705780631e0fbfa2146102c1578063248a9ca3146102d65780632f2ff15d14610300576101e0565b80630893bd85146101e55780630ec9b4981461021657806317d70f7c14610249576101e0565b366101e0576101de610655565b005b600080fd5b3480156101f157600080fd5b506101fa610aae565b604080516001600160a01b039092168252519081900360200190f35b34801561022257600080fd5b506101de6004803603602081101561023957600080fd5b50356001600160a01b0316610abd565b34801561025557600080fd5b5061025e610b7e565b60408051918252519081900360200190f35b34801561027c57600080fd5b506102a36004803603602081101561029357600080fd5b50356001600160a01b0316610b84565b60408051938452602084019290925282820152519081900360600190f35b3480156102cd57600080fd5b5061025e610c7a565b3480156102e257600080fd5b5061025e600480360360208110156102f957600080fd5b5035610c9e565b34801561030c57600080fd5b506101de6004803603604081101561032357600080fd5b50803590602001356001600160a01b0316610cb4565b34801561034557600080fd5b506101de6004803603604081101561035c57600080fd5b50803590602001356001600160a01b0316610d1c565b34801561037e57600080fd5b506101de610d7d565b34801561039357600080fd5b506101de610eaa565b6101de610655565b3480156103b057600080fd5b5061025e610f31565b3480156103c557600080fd5b506103ce610f37565b604080519115158252519081900360200190f35b3480156103ee57600080fd5b5061025e610f40565b34801561040357600080fd5b506101de6004803603602081101561041a57600080fd5b50356001600160a01b0316610f64565b34801561043657600080fd5b506101de6004803603602081101561044d57600080fd5b5035611013565b34801561046057600080fd5b506101de61109c565b34801561047557600080fd5b506101fa6004803603604081101561048c57600080fd5b5080359060200135611121565b3480156104a557600080fd5b506103ce600480360360408110156104bc57600080fd5b50803590602001356001600160a01b0316611142565b3480156104de57600080fd5b5061025e61115a565b3480156104f357600080fd5b506101de61115f565b34801561050857600080fd5b506101de6004803603602081101561051f57600080fd5b50356001600160a01b03166112a5565b34801561053b57600080fd5b506101de6004803603608081101561055257600080fd5b506001600160a01b038135169060208101359060408101359060600135611361565b34801561058057600080fd5b5061025e611426565b34801561059557600080fd5b506101de600480360360208110156105ac57600080fd5b503561142a565b3480156105bf57600080fd5b5061025e600480360360208110156105d657600080fd5b503561147c565b3480156105e957600080fd5b5061025e611493565b3480156105fe57600080fd5b506101de6004803603604081101561061557600080fd5b50803590602001356001600160a01b0316611499565b34801561063757600080fd5b5061025e6114f3565b34801561064c57600080fd5b5061025e611517565b600260005414156106ad576040805162461bcd60e51b815260206004820152601f60248201527f5265656e7472616e637947756172643a207265656e7472616e742063616c6c00604482015290519081900360640190fd5b600260005560015460ff16156106fd576040805162461bcd60e51b815260206004820152601060248201526f14185d5cd8589b194e881c185d5cd95960821b604482015290519081900360640190fd5b610705611b2a565b600c6000610711611532565b6001600160a01b03166001600160a01b031681526020019081526020016000206040518060600160405290816000820154815260200160018201548152602001600282015481525050905080600001516000141561081e576000808052600c60208190527f13649b2456f1b42fef0f0040b3aaeabcd21a76a0f3f5defd4f583839455116e89161079f611532565b6001600160a01b03168152602081019190915260400160009081208254815560018084015490820155600292830154920191909155600c906107df611532565b6001600160a01b031681526020808201929092526040908101600020815160608101835281548152600182015493810193909352600201549082015290505b80516000906108409061083990670de0b6b3a7640000611536565b3490611578565b905080610894576040805162461bcd60e51b815260206004820152601d60248201527f50503a50503a20416d6f756e7420746f206d696e74206973207a65726f000000604482015290519081900360640190fd5b81602001513410156108d75760405162461bcd60e51b8152600401808060200182810382526041815260200180611ca86041913960600191505060405180910390fd5b816040015134111561091a5760405162461bcd60e51b8152600401808060200182810382526037815260200180611c4c6037913960400191505060405180910390fd5b600954600a5461092b9083906115d1565b11156109685760405162461bcd60e51b8152600401808060200182810382526033815260200180611be96033913960400191505060405180910390fd5b600a546109769082906115d1565b600a556040820151610988903461162b565b600c6000610994611532565b6001600160a01b03166001600160a01b03168152602001908152602001600020600201819055506000600c60006109c9611532565b6001600160a01b039081168252602082019290925260400160002060010191909155600454166340c10f196109fc611532565b836040518363ffffffff1660e01b815260040180836001600160a01b0316815260200182815260200192505050600060405180830381600087803b158015610a4357600080fd5b505af1158015610a57573d6000803e3d6000fd5b505050507f4bbc24b0ed28bf548a0d7f95f70cf48f9f4cd9f24fc430de820bf5115feb2ea4610a84611532565b604080516001600160a01b039092168252602082018490528051918290030190a150506001600055565b6007546001600160a01b031681565b610acf6000610aca611532565b611142565b610b0a5760405162461bcd60e51b8152600401808060200182810382526024815260200180611d0a6024913960400191505060405180910390fd5b6001600160a01b038116610b4f5760405162461bcd60e51b815260040180806020018281038252602d815260200180611d2e602d913960400191505060405180910390fd5b600580546001600160a01b03199081166001600160a01b03938416179182905560068054929093169116179055565b600b5481565b6000806000610b91611b2a565b506001600160a01b0384166000908152600c60209081526040918290208251606081018452815480825260018301549382019390935260029091015492810192909252610c62575060008052600c6020908152604080516060810182527f13649b2456f1b42fef0f0040b3aaeabcd21a76a0f3f5defd4f583839455116e85481527f13649b2456f1b42fef0f0040b3aaeabcd21a76a0f3f5defd4f583839455116e954928101929092527f13649b2456f1b42fef0f0040b3aaeabcd21a76a0f3f5defd4f583839455116ea54908201525b60208101516040820151915190969195509350915050565b7f3a2f235c9daaf33349d300aadff2f15078a89df81bcfdd45ba11c8f816bddc6f81565b6000908152600260208190526040909120015490565b60008281526002602081905260409091200154610cd390610aca611532565b610d0e5760405162461bcd60e51b815260040180806020018281038252602f815260200180611b6e602f913960400191505060405180910390fd5b610d18828261166d565b5050565b610d24611532565b6001600160a01b0316816001600160a01b031614610d735760405162461bcd60e51b815260040180806020018281038252602f815260200180611d5b602f913960400191505060405180910390fd5b610d1882826116d6565b610d8a6000610aca611532565b610dc55760405162461bcd60e51b8152600401808060200182810382526024815260200180611d0a6024913960400191505060405180910390fd5b60026000541415610e1d576040805162461bcd60e51b815260206004820152601f60248201527f5265656e7472616e637947756172643a207265656e7472616e742063616c6c00604482015290519081900360640190fd5b60026000556007546001600160a01b0316610e695760405162461bcd60e51b8152600401808060200182810382526025815260200180611c836025913960400191505060405180910390fd5b6007546040516001600160a01b03909116904780156108fc02916000818181858888f19350505050158015610ea2573d6000803e3d6000fd5b506001600055565b610ed67f65d7a28e3265b37a6474929f336521b332c1681b933f6cb9f3376673440d862a610aca611532565b610f27576040805162461bcd60e51b815260206004820152601d60248201527f50503a4d4f443a206d7573742068617665205041555345525f524f4c45000000604482015290519081900360640190fd5b610f2f61173f565b565b60095481565b60015460ff1690565b7fdc72ed553f2544c34465af23b847953efeb813428162d767f9ba5f4013be676081565b610f716000610aca611532565b610fac5760405162461bcd60e51b8152600401808060200182810382526024815260200180611d0a6024913960400191505060405180910390fd5b6001600160a01b038116610ff15760405162461bcd60e51b8152600401808060200182810382526027815260200180611bc26027913960400191505060405180910390fd5b600780546001600160a01b0319166001600160a01b0392909216919091179055565b6110206000610aca611532565b61105b5760405162461bcd60e51b8152600401808060200182810382526024815260200180611d0a6024913960400191505060405180910390fd5b806110975760405162461bcd60e51b8152600401808060200182810382526025815260200180611b9d6025913960400191505060405180910390fd5b600855565b6110c87f65d7a28e3265b37a6474929f336521b332c1681b933f6cb9f3376673440d862a610aca611532565b611119576040805162461bcd60e51b815260206004820152601d60248201527f50503a4d4f443a206d7573742068617665205041555345525f524f4c45000000604482015290519081900360640190fd5b610f2f6117dd565b6000828152600260205260408120611139908361185d565b90505b92915050565b60008281526002602052604081206111399083611869565b600081565b600260005414156111b7576040805162461bcd60e51b815260206004820152601f60248201527f5265656e7472616e637947756172643a207265656e7472616e742063616c6c00604482015290519081900360640190fd5b600260005560015460ff1615611207576040805162461bcd60e51b815260206004820152601060248201526f14185d5cd8589b194e881c185d5cd95960821b604482015290519081900360640190fd5b600b805460010190556006546001600160a01b03166387338fe4611229611532565b600b546040518363ffffffff1660e01b815260040180836001600160a01b0316815260200182815260200192505050602060405180830381600087803b15801561127257600080fd5b505af1158015611286573d6000803e3d6000fd5b505050506040513d602081101561129c57600080fd5b50506001600055565b6112b26000610aca611532565b6112ed5760405162461bcd60e51b8152600401808060200182810382526024815260200180611d0a6024913960400191505060405180910390fd5b6001600160a01b0381166113325760405162461bcd60e51b815260040180806020018281038252602d815260200180611d2e602d913960400191505060405180910390fd5b600380546001600160a01b03199081166001600160a01b03938416179182905560048054929093169116179055565b61138d7fdc72ed553f2544c34465af23b847953efeb813428162d767f9ba5f4013be6760610aca611532565b6113de576040805162461bcd60e51b815260206004820181905260248201527f50503a4d4f443a206d75737420686176652057484954454c4953545f524f4c45604482015290519081900360640190fd5b6113e6611b2a565b928352602080840192835260408085019283526001600160a01b039095166000908152600c90915293909320915182555160018201559051600290910155565b4790565b6114376000610aca611532565b6114725760405162461bcd60e51b8152600401808060200182810382526024815260200180611d0a6024913960400191505060405180910390fd5b6009556000600a55565b600081815260026020526040812061113c9061187e565b600a5481565b600082815260026020819052604090912001546114b890610aca611532565b610d735760405162461bcd60e51b8152600401808060200182810382526030815260200180611c1c6030913960400191505060405180910390fd5b7f65d7a28e3265b37a6474929f336521b332c1681b933f6cb9f3376673440d862a81565b60085481565b6000611139836001600160a01b038416611889565b3390565b600061113983836040518060400160405280601a81526020017f536166654d6174683a206469766973696f6e206279207a65726f0000000000008152506118d3565b6000826115875750600061113c565b8282028284828161159457fe5b04146111395760405162461bcd60e51b8152600401808060200182810382526021815260200180611ce96021913960400191505060405180910390fd5b600082820183811015611139576040805162461bcd60e51b815260206004820152601b60248201527f536166654d6174683a206164646974696f6e206f766572666c6f770000000000604482015290519081900360640190fd5b600061113983836040518060400160405280601e81526020017f536166654d6174683a207375627472616374696f6e206f766572666c6f770000815250611975565b6000828152600260205260409020611685908261151d565b15610d1857611692611532565b6001600160a01b0316816001600160a01b0316837f2f8788117e7eff1d82e926ec794901d17c78024a50270940304540a733656f0d60405160405180910390a45050565b60008281526002602052604090206116ee90826119cf565b15610d18576116fb611532565b6001600160a01b0316816001600160a01b0316837ff6391f5c32d9c69d2a47ea670b442974b53935d1edc7fd64eb21e047a839171b60405160405180910390a45050565b60015460ff1661178d576040805162461bcd60e51b815260206004820152601460248201527314185d5cd8589b194e881b9bdd081c185d5cd95960621b604482015290519081900360640190fd5b6001805460ff191690557f5db9ee0a495bf2e6ff9c91a7834c1ba4fdd244a5e8aa4e537bd38aeae4b073aa6117c0611532565b604080516001600160a01b039092168252519081900360200190a1565b60015460ff1615611828576040805162461bcd60e51b815260206004820152601060248201526f14185d5cd8589b194e881c185d5cd95960821b604482015290519081900360640190fd5b6001805460ff1916811790557f62e78cea01bee320cd4e420270b5ea74000d11b0c9f74754ebdbfc544b05a2586117c0611532565b600061113983836119e4565b6000611139836001600160a01b038416611a48565b600061113c82611a60565b60006118958383611a48565b6118cb5750815460018181018455600084815260208082209093018490558454848252828601909352604090209190915561113c565b50600061113c565b6000818361195f5760405162461bcd60e51b81526004018080602001828103825283818151815260200191508051906020019080838360005b8381101561192457818101518382015260200161190c565b50505050905090810190601f1680156119515780820380516001836020036101000a031916815260200191505b509250505060405180910390fd5b50600083858161196b57fe5b0495945050505050565b600081848411156119c75760405162461bcd60e51b815260206004820181815283516024840152835190928392604490910191908501908083836000831561192457818101518382015260200161190c565b505050900390565b6000611139836001600160a01b038416611a64565b81546000908210611a265760405162461bcd60e51b8152600401808060200182810382526022815260200180611b4c6022913960400191505060405180910390fd5b826000018281548110611a3557fe5b9060005260206000200154905092915050565b60009081526001919091016020526040902054151590565b5490565b60008181526001830160205260408120548015611b205783546000198083019190810190600090879083908110611a9757fe5b9060005260206000200154905080876000018481548110611ab457fe5b600091825260208083209091019290925582815260018981019092526040902090840190558654879080611ae457fe5b6001900381819060005260206000200160009055905586600101600087815260200190815260200160002060009055600194505050505061113c565b600091505061113c565b6040518060600160405280600081526020016000815260200160008152509056fe456e756d657261626c655365743a20696e646578206f7574206f6620626f756e6473416363657373436f6e74726f6c3a2073656e646572206d75737420626520616e2061646d696e20746f206772616e7450503a5341413a2061697264726f7020616d6f756e742063616e6e6f74206265207a65726f50503a415350413a207061796d656e7420616464726573732063616e6e6f74206265207a65726f50503a50503a2050757263686173652072657175657374206578636565647320746f74616c2070726573616c65206c696d6974416363657373436f6e74726f6c3a2073656e646572206d75737420626520616e2061646d696e20746f207265766f6b6550503a50503a2050757263686173652072657175657374206578636565647320616c6c6f77656420707572636861736520416d6f756e7450503a573a207061796d656e7420616464726573732063616e6e6f74206265207a65726f2e50503a50503a20496e73756666696369656e74204554482073656e7420746f206d656574206d696e696d756d20707572636861736520726571756972656d656e74536166654d6174683a206d756c7469706c69636174696f6e206f766572666c6f7750503a4d4f443a206d75737420686176652044454641554c545f41444d494e5f524f4c4550503a5354433a20746f6b656e20636f6e747261637420616464726573732063616e6e6f74206265207a65726f416363657373436f6e74726f6c3a2063616e206f6e6c792072656e6f756e636520726f6c657320666f722073656c66a26469706673582212206f63d1a1cf28f483f5e0ca2d4b9f28cd2d3bb8ab29484d3b3fd5a329f7a8ce2f64736f6c634300060c0033",
  "immutableReferences": {},
  "source": "/*--------------------------------------------------------PRuF0.7.1\n__/\\\\\\\\\\\\\\\\\\\\\\\\\\ _____/\\\\\\\\\\\\\\\\\\ _______/\\\\../\\\\ ___/\\\\\\\\\\\\\\\\\\\\\\\\\\\\\\\n _\\/\\\\\\/////////\\\\\\ _/\\\\\\///////\\\\\\ ____\\//..\\//____\\/\\\\\\///////////__\n  _\\/\\\\\\.......\\/\\\\\\.\\/\\\\\\.....\\/\\\\\\ ________________\\/\\\\\\ ____________\n   _\\/\\\\\\\\\\\\\\\\\\\\\\\\\\/__\\/\\\\\\\\\\\\\\\\\\\\\\/_____/\\\\\\____/\\\\\\.\\/\\\\\\\\\\\\\\\\\\\\\\ ____\n    _\\/\\\\\\/////////____\\/\\\\\\//////\\\\\\ ___\\/\\\\\\___\\/\\\\\\.\\/\\\\\\///////______\n     _\\/\\\\\\ ____________\\/\\\\\\ ___\\//\\\\\\ __\\/\\\\\\___\\/\\\\\\.\\/\\\\\\ ____________\n      _\\/\\\\\\ ____________\\/\\\\\\ ____\\//\\\\\\ _\\/\\\\\\___\\/\\\\\\.\\/\\\\\\ ____________\n       _\\/\\\\\\ ____________\\/\\\\\\ _____\\//\\\\\\.\\//\\\\\\\\\\\\\\\\\\ _\\/\\\\\\ ____________\n        _\\/// _____________\\/// _______\\/// __\\///////// __\\/// _____________\n         *-------------------------------------------------------------------*/\n\n/*-----------------------------------------------------------------\n *  TO DO\n *\n *-----------------------------------------------------------------\n * PRESALE CONTRACT\n *\n *---------------------------------------------------------------*/\n\n// SPDX-License-Identifier: UNLICENSED\npragma solidity ^0.6.7;\n\nimport \"./PRUF_INTERFACES.sol\";\nimport \"./Imports/access/AccessControl.sol\";\nimport \"./Imports/utils/Pausable.sol\";\nimport \"./Imports/utils/ReentrancyGuard.sol\";\nimport \"./Imports/math/SafeMath.sol\";\n\ncontract FAUCET is ReentrancyGuard, Pausable, AccessControl {\n    using SafeMath for uint256;\n\n    //----------------------------ROLE DFINITIONS\n    bytes32 public constant PAUSER_ROLE = keccak256(\"PAUSER_ROLE\");\n    bytes32 public constant WHITELIST_ROLE = keccak256(\"WHITELIST_ROLE\");\n    bytes32 public constant AIRDROP_ROLE = keccak256(\"AIRDROP_ROLE\");\n\n    address internal UTIL_TKN_Address;\n    UTIL_TKN_Interface internal UTIL_TKN;\n\n    address internal ID_TKN_Address;\n    ID_TKN_Interface internal ID_TKN;\n\n    address payable public payment_address;\n\n    uint256 public airdropAmount = 1 ether; // in tokens\n    uint256 public presaleLimit; //in eth\n    uint256 public presaleCount; //in eth\n\n    uint256 public tokenId;\n\n    struct whiteListedAddress {\n        uint256 tokensPerEth;\n        uint256 minEth;\n        uint256 maxEth;\n    }\n\n    mapping(address => whiteListedAddress) private whiteList;\n\n    constructor() public {\n        _setupRole(DEFAULT_ADMIN_ROLE, _msgSender());\n        _setupRole(PAUSER_ROLE, _msgSender());\n        _setupRole(WHITELIST_ROLE, _msgSender());\n        _setupRole(AIRDROP_ROLE, _msgSender());\n\n        whiteList[address(0)].tokensPerEth = 100000 ether; //100,000 tokens per ETH default\n        whiteList[address(0)].minEth = 100000000000000000; // 0.1 eth minimum default (10,000 tokens)\n        whiteList[address(0)].maxEth = 10 ether; // 10 eth maximum default (1,000,000 tokens)\n    }\n\n    //------------------------------------------------------------------------MODIFIERS\n\n    /*\n     * @dev Verify user credentials\n     * Originating Address:\n     *      is Admin\n     */\n    modifier isAdmin() {\n        require(\n            hasRole(DEFAULT_ADMIN_ROLE, _msgSender()),\n            \"PP:MOD: must have DEFAULT_ADMIN_ROLE\"\n        );\n        _;\n    }\n\n    /*\n     * @dev Verify user credentials\n     * Originating Address:\n     *      is Pauser\n     */\n    modifier isPauser() {\n        require(\n            hasRole(PAUSER_ROLE, _msgSender()),\n            \"PP:MOD: must have PAUSER_ROLE\"\n        );\n        _;\n    }\n\n    /*\n     * @dev Verify user credentials\n     * Originating Address:\n     *      is Whitelist\n     */\n    modifier isWhitelist() {\n        require(\n            hasRole(WHITELIST_ROLE, _msgSender()),\n            \"PP:MOD: must have WHITELIST_ROLE\"\n        );\n        _;\n    }\n\n    event REPORT(address addr, uint256 amount);\n\n    //----------------------External Admin functions---------------------//\n\n    /*\n     * @dev Set address of PRUF_TKN contract to interface with\n     * TESTING: ALL REQUIRES, ACCESS ROLE\n     */\n    function ADMIN_set_Util_TokenContract(address _address) external isAdmin {\n        require(\n            _address != address(0),\n            \"PP:STC: token contract address cannot be zero\"\n        );\n        //^^^^^^^checks^^^^^^^^^\n\n        UTIL_TKN_Address = _address;\n        UTIL_TKN = UTIL_TKN_Interface(UTIL_TKN_Address);\n        //^^^^^^^effects^^^^^^^^^\n    }\n\n    /*\n     * @dev Set address of ID_TKN contract to interface with\n     * TESTING: ALL REQUIRES, ACCESS ROLE\n     */\n    function ADMIN_set_Id_TokenContract(address _address) external isAdmin {\n        require(\n            _address != address(0),\n            \"PP:STC: token contract address cannot be zero\"\n        );\n        //^^^^^^^checks^^^^^^^^^\n\n        ID_TKN_Address = _address;\n        ID_TKN = ID_TKN_Interface(ID_TKN_Address);\n        //^^^^^^^effects^^^^^^^^^\n    }\n\n    /*\n     * @dev Set Payment address to send eth to\n     * TESTING: ALL REQUIRES, ACCESS ROLE\n     */\n    function ADMIN_setPaymentAddress(address payable _address)\n        external\n        isAdmin\n    {\n        require(\n            _address != address(0),\n            \"PP:ASPA: payment address cannot be zero\"\n        );\n        //^^^^^^^checks^^^^^^^^^\n\n        payment_address = _address;\n\n        //^^^^^^^effects^^^^^^^^^\n    }\n\n    /*\n     * @dev Set airdropAmount\n     * TESTING: ALL REQUIRES, ACCESS ROLE, sets airdrop amount for all airdrop functions\n     */\n    function ADMIN_setAirDropAmount(uint256 _airdropAmount) external isAdmin {\n        require(_airdropAmount != 0, \"PP:SAA: airdrop amount cannot be zero\");\n        //^^^^^^^checks^^^^^^^^^\n        airdropAmount = _airdropAmount;\n        //^^^^^^^effects^^^^^^^^^\n    }\n\n    /*\n     * @dev Set presale limit, reset presale counter\n     * TESTING: ALL REQUIRES, ACCESS ROLE, presale limit works, presale limit can be reset for new presale\n     */\n    function ADMIN_setPresaleLimit(uint256 _presaleLimit) external isAdmin {\n        //^^^^^^^checks^^^^^^^^^\n        presaleLimit = _presaleLimit;\n        presaleCount = 0;\n        //^^^^^^^effects^^^^^^^^^\n    }\n\n    /*\n     * @dev Set address of PRUF_TKN contract to interface with\n     * Set default condition at address(0). Addresses not appearing on the whitelist will fall under these terms.\n     * TESTING: ACCESS ROLE, Also test that setting params for 0 address sets default behavior for non-whitelisted addresses\n     */\n    function whitelist(\n        address _addr,\n        uint256 _tokensPerEth,\n        uint256 _minEth,\n        uint256 _maxEth\n    ) external isWhitelist {\n        whiteListedAddress memory _whiteList;\n\n        //^^^^^^^checks^^^^^^^^^\n\n        _whiteList.tokensPerEth = _tokensPerEth; //build new whiteList entry\n        _whiteList.minEth = _minEth;\n        _whiteList.maxEth = _maxEth;\n\n        whiteList[_addr] = _whiteList; //store new whiteList entry\n\n        //^^^^^^^effects^^^^^^^^^\n    }\n\n    /*\n     * @dev checks airdrop state for an address\n     * TESTING: Returns both instantiated and default (uninstantiated addresses) Uninstantiated addresses should return default (0 address) values\n     *\n     */\n    function checkWhitelist(address _addr)\n        external\n        virtual\n        view\n        returns (\n            uint256,\n            uint256,\n            uint256\n        )\n    {\n        //min tokens, max tokens, tokens per eth, ETH (wei) to buy maxEth\n\n        whiteListedAddress memory _whiteList = whiteList[_addr];\n\n        if (_whiteList.tokensPerEth == 0) {\n            _whiteList = whiteList[address(0)];\n        }\n\n        return (_whiteList.minEth, _whiteList.maxEth, _whiteList.tokensPerEth);\n        //^^^^^^^effects^^^^^^^^^\n    }\n\n    //--------------------------------------External functions--------------------------------------------//\n\n    /*\n     * @dev Mint PRUF to an addresses as caller.tokensPerEth * ETH recieved\n     * TESTING: ALL REQUIRES, ACCESS ROLE, PAUSABLE, individual presale allowance can be exhausted, overall presale allotment can be exhausted\n     *          amount minted conforms to tokensPerEth setting, min buy is enforced\n     */\n    function GET_ID() external nonReentrant whenNotPaused {\n        //^^^^^^^checks^^^^^^^^^\n        //^^^^^^^effects^^^^^^^^^\n        tokenId++;\n        ID_TKN.mintPRUF_IDToken(_msgSender(), tokenId);\n        //^^^^^^^Interactions^^^^^^^^^\n    }\n\n    /*\n     * @dev withdraw to specified payment address\n     * TESTING: WORKS\n     */\n    function withdraw() external isAdmin nonReentrant {\n        require(\n            payment_address != address(0),\n            \"PP:W: payment address cannot be zero.\"\n        );\n        payment_address.transfer(address(this).balance);\n    }\n\n    /*\n     * @dev return balance of contract\n     * TESTING: WORKS\n     */\n    function balance() external view returns (uint256) {\n        return address(this).balance;\n    }\n\n    /**\n     * @dev Triggers stopped state. (pausable)\n     * * TESTING: ACCESS ROLE\n     */\n    function pause() external isPauser {\n        _pause();\n    }\n\n    /**\n     * @dev Returns to normal state. (pausable)\n     * TESTING: ACCESS ROLE\n     */\n    function unpause() external isPauser {\n        _unpause();\n    }\n\n    /**\n     * @dev Ether received will initiate the mintPRUF function\n     * TESTING: Sending naked eth calls presale function correctly\n     */\n    receive() external payable {\n        BUY_PRUF();\n    }\n\n    /*\n     * @dev Mint PRUF to an addresses as caller.tokensPerEth * ETH recieved\n     * TESTING: ALL REQUIRES, ACCESS ROLE, PAUSABLE, individual presale allowance can be exhausted, overall presale allotment can be exhausted\n     *          amount minted conforms to tokensPerEth setting, min buy is enforced\n     */\n    function BUY_PRUF() public payable nonReentrant whenNotPaused {\n        whiteListedAddress memory _whiteList = whiteList[_msgSender()];\n\n        if (_whiteList.tokensPerEth == 0) {\n            //loads the default (addr 0) info into the address if address is not specificly whitelisted\n            whiteList[_msgSender()] = whiteList[address(0)];\n            _whiteList = whiteList[_msgSender()];\n        }\n\n        uint256 amountToMint = msg.value.mul(\n            _whiteList.tokensPerEth.div(1 ether)\n        ); //in wei\n\n        require(amountToMint != 0, \"PP:PP: Amount to mint is zero\");\n        require(\n            msg.value >= _whiteList.minEth,\n            \"PP:PP: Insufficient ETH sent to meet minimum purchase requirement\"\n        );\n        require(\n            msg.value <= _whiteList.maxEth,\n            \"PP:PP: Purchase request exceeds allowed purchase Amount\"\n        );\n        require(\n            amountToMint.add(presaleCount) <= presaleLimit,\n            \"PP:PP: Purchase request exceeds total presale limit\"\n        );\n        //^^^^^^^checks^^^^^^^^^\n\n        presaleCount = amountToMint.add(presaleCount);\n\n        whiteList[_msgSender()].maxEth = _whiteList.maxEth.sub(msg.value); //reduce max purchasable by purchased amount\n        whiteList[_msgSender()].minEth = 0; //Remove minimum , as minimum buy is already met.\n        //^^^^^^^effects^^^^^^^^^\n\n        UTIL_TKN.mint(_msgSender(), amountToMint);\n        emit REPORT(_msgSender(), amountToMint);\n        //^^^^^^^Interactions^^^^^^^^^\n    }\n\n    //--------------------------------------------------------------------------------------INTERNAL functions\n}\n",
  "sourcePath": "/Users/cts/dev/PRUF/PRUF_TRUFFLE/contracts/PRUF_PARTY.sol",
  "compiler": {
    "name": "solc",
    "version": "0.6.12+commit.27d51765.Emscripten.clang"
  },
  "schemaVersion": "3.2.3",
  "updatedAt": "2020-12-21T18:14:17.296Z",
  "devdoc": {
    "kind": "dev",
    "methods": {
      "getRoleAdmin(bytes32)": {
        "details": "Returns the admin role that controls `role`. See {grantRole} and {revokeRole}. To change a role's admin, use {_setRoleAdmin}."
      },
      "getRoleMember(bytes32,uint256)": {
        "details": "Returns one of the accounts that have `role`. `index` must be a value between 0 and {getRoleMemberCount}, non-inclusive. Role bearers are not sorted in any particular way, and their ordering may change at any point. WARNING: When using {getRoleMember} and {getRoleMemberCount}, make sure you perform all queries on the same block. See the following https://forum.openzeppelin.com/t/iterating-over-elements-on-enumerableset-in-openzeppelin-contracts/2296[forum post] for more information."
      },
      "getRoleMemberCount(bytes32)": {
        "details": "Returns the number of accounts that have `role`. Can be used together with {getRoleMember} to enumerate all bearers of a role."
      },
      "grantRole(bytes32,address)": {
        "details": "Grants `role` to `account`. If `account` had not been already granted `role`, emits a {RoleGranted} event. Requirements: - the caller must have ``role``'s admin role."
      },
      "hasRole(bytes32,address)": {
        "details": "Returns `true` if `account` has been granted `role`."
      },
      "pause()": {
        "details": "Triggers stopped state. (pausable) * TESTING: ACCESS ROLE"
      },
      "paused()": {
        "details": "Returns true if the contract is paused, and false otherwise."
      },
      "renounceRole(bytes32,address)": {
        "details": "Revokes `role` from the calling account. Roles are often managed via {grantRole} and {revokeRole}: this function's purpose is to provide a mechanism for accounts to lose their privileges if they are compromised (such as when a trusted device is misplaced). If the calling account had been granted `role`, emits a {RoleRevoked} event. Requirements: - the caller must be `account`."
      },
      "revokeRole(bytes32,address)": {
        "details": "Revokes `role` from `account`. If `account` had been granted `role`, emits a {RoleRevoked} event. Requirements: - the caller must have ``role``'s admin role."
      },
      "unpause()": {
        "details": "Returns to normal state. (pausable) TESTING: ACCESS ROLE"
      }
    },
    "version": 1
  },
  "userdoc": {
    "kind": "user",
    "methods": {},
    "version": 1
  }
}