{
  "contractName": "FAUCET",
  "abi": [
    {
      "anonymous": false,
      "inputs": [
        {
          "indexed": false,
          "internalType": "address",
          "name": "account",
          "type": "address"
        }
      ],
      "name": "Paused",
      "type": "event"
    },
    {
      "anonymous": false,
      "inputs": [
        {
          "indexed": false,
          "internalType": "string",
          "name": "_msg",
          "type": "string"
        }
      ],
      "name": "REPORT",
      "type": "event"
    },
    {
      "anonymous": false,
      "inputs": [
        {
          "indexed": true,
          "internalType": "bytes32",
          "name": "role",
          "type": "bytes32"
        },
        {
          "indexed": true,
          "internalType": "bytes32",
          "name": "previousAdminRole",
          "type": "bytes32"
        },
        {
          "indexed": true,
          "internalType": "bytes32",
          "name": "newAdminRole",
          "type": "bytes32"
        }
      ],
      "name": "RoleAdminChanged",
      "type": "event"
    },
    {
      "anonymous": false,
      "inputs": [
        {
          "indexed": true,
          "internalType": "bytes32",
          "name": "role",
          "type": "bytes32"
        },
        {
          "indexed": true,
          "internalType": "address",
          "name": "account",
          "type": "address"
        },
        {
          "indexed": true,
          "internalType": "address",
          "name": "sender",
          "type": "address"
        }
      ],
      "name": "RoleGranted",
      "type": "event"
    },
    {
      "anonymous": false,
      "inputs": [
        {
          "indexed": true,
          "internalType": "bytes32",
          "name": "role",
          "type": "bytes32"
        },
        {
          "indexed": true,
          "internalType": "address",
          "name": "account",
          "type": "address"
        },
        {
          "indexed": true,
          "internalType": "address",
          "name": "sender",
          "type": "address"
        }
      ],
      "name": "RoleRevoked",
      "type": "event"
    },
    {
      "anonymous": false,
      "inputs": [
        {
          "indexed": false,
          "internalType": "address",
          "name": "account",
          "type": "address"
        }
      ],
      "name": "Unpaused",
      "type": "event"
    },
    {
      "inputs": [],
      "name": "ASSET_TXFR_ROLE",
      "outputs": [
        {
          "internalType": "bytes32",
          "name": "",
          "type": "bytes32"
        }
      ],
      "stateMutability": "view",
      "type": "function"
    },
    {
      "inputs": [],
      "name": "CONTRACT_ADMIN_ROLE",
      "outputs": [
        {
          "internalType": "bytes32",
          "name": "",
          "type": "bytes32"
        }
      ],
      "stateMutability": "view",
      "type": "function"
    },
    {
      "inputs": [],
      "name": "DAO_ROLE",
      "outputs": [
        {
          "internalType": "bytes32",
          "name": "",
          "type": "bytes32"
        }
      ],
      "stateMutability": "view",
      "type": "function"
    },
    {
      "inputs": [],
      "name": "DEFAULT_ADMIN_ROLE",
      "outputs": [
        {
          "internalType": "bytes32",
          "name": "",
          "type": "bytes32"
        }
      ],
      "stateMutability": "view",
      "type": "function"
    },
    {
      "inputs": [
        {
          "internalType": "address",
          "name": "_tokenContract",
          "type": "address"
        },
        {
          "internalType": "address",
          "name": "_to",
          "type": "address"
        },
        {
          "internalType": "uint256",
          "name": "_amount",
          "type": "uint256"
        }
      ],
      "name": "ERC20Transfer",
      "outputs": [],
      "stateMutability": "nonpayable",
      "type": "function"
    },
    {
      "inputs": [
        {
          "internalType": "address",
          "name": "_tokenContract",
          "type": "address"
        },
        {
          "internalType": "address",
          "name": "_to",
          "type": "address"
        },
        {
          "internalType": "uint256",
          "name": "_tokenID",
          "type": "uint256"
        }
      ],
      "name": "ERC721Transfer",
      "outputs": [],
      "stateMutability": "nonpayable",
      "type": "function"
    },
    {
      "inputs": [],
      "name": "PAUSER_ROLE",
      "outputs": [
        {
          "internalType": "bytes32",
          "name": "",
          "type": "bytes32"
        }
      ],
      "stateMutability": "view",
      "type": "function"
    },
    {
      "inputs": [
        {
          "internalType": "bytes32",
          "name": "role",
          "type": "bytes32"
        }
      ],
      "name": "getRoleAdmin",
      "outputs": [
        {
          "internalType": "bytes32",
          "name": "",
          "type": "bytes32"
        }
      ],
      "stateMutability": "view",
      "type": "function"
    },
    {
      "inputs": [
        {
          "internalType": "bytes32",
          "name": "role",
          "type": "bytes32"
        },
        {
          "internalType": "address",
          "name": "account",
          "type": "address"
        }
      ],
      "name": "grantRole",
      "outputs": [],
      "stateMutability": "nonpayable",
      "type": "function"
    },
    {
      "inputs": [
        {
          "internalType": "bytes32",
          "name": "role",
          "type": "bytes32"
        },
        {
          "internalType": "address",
          "name": "account",
          "type": "address"
        }
      ],
      "name": "hasRole",
      "outputs": [
        {
          "internalType": "bool",
          "name": "",
          "type": "bool"
        }
      ],
      "stateMutability": "view",
      "type": "function"
    },
    {
      "inputs": [
        {
          "internalType": "address",
          "name": "",
          "type": "address"
        },
        {
          "internalType": "address",
          "name": "",
          "type": "address"
        },
        {
          "internalType": "uint256",
          "name": "",
          "type": "uint256"
        },
        {
          "internalType": "bytes",
          "name": "",
          "type": "bytes"
        }
      ],
      "name": "onERC721Received",
      "outputs": [
        {
          "internalType": "bytes4",
          "name": "",
          "type": "bytes4"
        }
      ],
      "stateMutability": "nonpayable",
      "type": "function"
    },
    {
      "inputs": [],
      "name": "pause",
      "outputs": [],
      "stateMutability": "nonpayable",
      "type": "function"
    },
    {
      "inputs": [],
      "name": "paused",
      "outputs": [
        {
          "internalType": "bool",
          "name": "",
          "type": "bool"
        }
      ],
      "stateMutability": "view",
      "type": "function"
    },
    {
      "inputs": [
        {
          "internalType": "bytes32",
          "name": "role",
          "type": "bytes32"
        },
        {
          "internalType": "address",
          "name": "account",
          "type": "address"
        }
      ],
      "name": "renounceRole",
      "outputs": [],
      "stateMutability": "nonpayable",
      "type": "function"
    },
    {
      "inputs": [
        {
          "internalType": "bytes32",
          "name": "role",
          "type": "bytes32"
        },
        {
          "internalType": "address",
          "name": "account",
          "type": "address"
        }
      ],
      "name": "revokeRole",
      "outputs": [],
      "stateMutability": "nonpayable",
      "type": "function"
    },
    {
      "inputs": [
        {
          "internalType": "address",
          "name": "_storageAddress",
          "type": "address"
        }
      ],
      "name": "setStorageContract",
      "outputs": [],
      "stateMutability": "nonpayable",
      "type": "function"
    },
    {
      "inputs": [
        {
          "internalType": "bytes4",
          "name": "interfaceId",
          "type": "bytes4"
        }
      ],
      "name": "supportsInterface",
      "outputs": [
        {
          "internalType": "bool",
          "name": "",
          "type": "bool"
        }
      ],
      "stateMutability": "view",
      "type": "function"
    },
    {
      "inputs": [],
      "name": "unpause",
      "outputs": [],
      "stateMutability": "nonpayable",
      "type": "function"
    },
    {
      "inputs": [
        {
          "internalType": "uint256",
          "name": "_droplet",
          "type": "uint256"
        }
      ],
      "name": "setFaucetAmount",
      "outputs": [],
      "stateMutability": "nonpayable",
      "type": "function"
    },
    {
      "inputs": [
        {
          "internalType": "uint256",
          "name": "_interval",
          "type": "uint256"
        }
      ],
      "name": "setInterval",
      "outputs": [],
      "stateMutability": "nonpayable",
      "type": "function"
    },
    {
      "inputs": [
        {
          "internalType": "uint256",
          "name": "_maxPerInterval",
          "type": "uint256"
        }
      ],
      "name": "setMaxPerInterval",
      "outputs": [],
      "stateMutability": "nonpayable",
      "type": "function"
    },
    {
      "inputs": [],
      "name": "resolveContractAddresses",
      "outputs": [],
      "stateMutability": "nonpayable",
      "type": "function"
    }
  ],
  "bytecode": "0x6080604052678ac7230489e800006018556103846019556805f68e8131ecf80000601a556000601b5534801561003457600080fd5b50600160009081556002805460ff1916905561005090336100a9565b61007a7f2ce8d04a9c35987429af538825cd2438cc5c5bb5dc427955f84daaa3ea105016336100a9565b6100a47f65d7a28e3265b37a6474929f336521b332c1681b933f6cb9f3376673440d862a336100a9565b61013e565b6100b382826100b7565b5050565b60008281526001602090815260408083206001600160a01b038516845290915290205460ff166100b35760008281526001602081815260408084206001600160a01b0386168086529252808420805460ff19169093179092559051339285917f2f8788117e7eff1d82e926ec794901d17c78024a50270940304540a733656f0d9190a45050565b611469806200014e6000396000f3fe608060405234801561001057600080fd5b50600436106101425760003560e01c806381d2fd9c116100b8578063dc38b0a21161007c578063dc38b0a2146102bf578063e59fdd36146102d2578063e5f815dc146102e5578063e63ab1e9146102f8578063e9c265181461031f578063ee9c25c51461034657600080fd5b806381d2fd9c146102765780638456cb591461028957806391d1485414610291578063a217fddf146102a4578063d547741f146102ac57600080fd5b806322a900821161010a57806322a9008214610206578063248a9ca3146102195780632f2ff15d1461023d57806336568abe146102505780633f4ba83a146102635780635c975abb1461026b57600080fd5b806301ffc9a714610147578063055cd0a31461016f5780631429db5f14610184578063150b7a02146101b95780631da03312146101f1575b600080fd5b61015a610155366004611105565b61034e565b60405190151581526020015b60405180910390f35b61018261017d3660046110bc565b610385565b005b6101ab7f7f1e4e9f3d9ba0452a25cfef4cd4c6ffc86158d06ed2f585fa0093e12dec429c81565b604051908152602001610166565b6101d86101c7366004610ffb565b630a85bd0160e11b95945050505050565b6040516001600160e01b03199091168152602001610166565b6101ab60008051602061141483398151915281565b6101826102143660046110bc565b6103f1565b6101ab6102273660046110bc565b6000908152600160208190526040909120015490565b61018261024b3660046110d5565b61044b565b61018261025e3660046110d5565b610477565b6101826104f5565b60025460ff1661015a565b6101826102843660046110bc565b610545565b6101826105e4565b61015a61029f3660046110d5565b610632565b6101ab600081565b6101826102ba3660046110d5565b61065d565b6101826102cd366004610f80565b610684565b6101826102e0366004610fba565b610725565b6101826102f3366004610fba565b610826565b6101ab7f65d7a28e3265b37a6474929f336521b332c1681b933f6cb9f3376673440d862a81565b6101ab7f3b5d4cc60d3ec3516ee8ae083bd60934f6eb2a6c54b1229985c41bfb092b260381565b610182610906565b60006001600160e01b03198216637965db0b60e01b148061037f57506301ffc9a760e01b6001600160e01b03198316145b92915050565b61039d60008051602061141483398151915233610632565b6103c25760405162461bcd60e51b81526004016103b9906111d7565b60405180910390fd5b69021e19e0c9bab24000008111156103ec5760405162461bcd60e51b81526004016103b990611261565b601a55565b61040960008051602061141483398151915233610632565b6104255760405162461bcd60e51b81526004016103b9906111d7565b601e8110156104465760405162461bcd60e51b81526004016103b990611261565b601955565b600082815260016020819052604090912001546104688133610b99565b6104728383610bfd565b505050565b6001600160a01b03811633146104e75760405162461bcd60e51b815260206004820152602f60248201527f416363657373436f6e74726f6c3a2063616e206f6e6c792072656e6f756e636560448201526e103937b632b9903337b91039b2b63360891b60648201526084016103b9565b6104f18282610c68565b5050565b61051f7f65d7a28e3265b37a6474929f336521b332c1681b933f6cb9f3376673440d862a33610632565b61053b5760405162461bcd60e51b81526004016103b9906112be565b610543610ccf565b565b61055d60008051602061141483398151915233610632565b6105795760405162461bcd60e51b81526004016103b9906111d7565b683635c9adc5dea0000060185411156105df5760405162461bcd60e51b815260206004820152602260248201527f45533a5346413a43616e6e6f742073657420746f206d6f7265207468616e2031604482015261030360f41b60648201526084016103b9565b601855565b61060e7f65d7a28e3265b37a6474929f336521b332c1681b933f6cb9f3376673440d862a33610632565b61062a5760405162461bcd60e51b81526004016103b9906112be565b610543610d62565b60009182526001602090815260408084206001600160a01b0393909316845291905290205460ff1690565b6000828152600160208190526040909120015461067a8133610b99565b6104728383610c68565b61069c60008051602061141483398151915233610632565b6106b85760405162461bcd60e51b81526004016103b9906111d7565b6001600160a01b0381166107035760405162461bcd60e51b81526020600482015260126024820152710423a5353433a2041646472657373203d20360741b60448201526064016103b9565b600380546001600160a01b0319166001600160a01b0392909216919091179055565b61074f7f7f1e4e9f3d9ba0452a25cfef4cd4c6ffc86158d06ed2f585fa0093e12dec429c33610632565b61076b5760405162461bcd60e51b81526004016103b99061121e565b6002600054141561078e5760405162461bcd60e51b81526004016103b990611304565b60026000556040516323b872dd60e01b81523060048201526001600160a01b038381166024830152604482018390528416906323b872dd90606401602060405180830381600087803b1580156107e357600080fd5b505af11580156107f7573d6000803e3d6000fd5b505050506040513d601f19601f8201168201806040525081019061081b919061109a565b505060016000555050565b6108507f7f1e4e9f3d9ba0452a25cfef4cd4c6ffc86158d06ed2f585fa0093e12dec429c33610632565b61086c5760405162461bcd60e51b81526004016103b99061121e565b6002600054141561088f5760405162461bcd60e51b81526004016103b990611304565b6002600055604051632142170760e11b81523060048201526001600160a01b038381166024830152604482018390528416906342842e0e90606401600060405180830381600087803b1580156108e457600080fd5b505af11580156108f8573d6000803e3d6000fd5b505060016000555050505050565b600260005414156109295760405162461bcd60e51b81526004016103b990611304565b600260005561094660008051602061141483398151915233610632565b6109625760405162461bcd60e51b81526004016103b9906111d7565b6003546040516363b8d4c160e11b815260206004820152600d60248201526c149155d0549114d7d590555315609a1b60448201526001600160a01b039091169063c771a9829060640160206040518083038186803b1580156109c357600080fd5b505afa1580156109d7573d6000803e3d6000fd5b505050506040513d601f19601f820116820180604052508101906109fb9190610f9d565b601680546001600160a01b039283166001600160a01b031991821681179092556017805490911690911790556003546040516363b8d4c160e11b81526020600482015260086024820152672aaa24a62faa25a760c11b604482015291169063c771a9829060640160206040518083038186803b158015610a7a57600080fd5b505afa158015610a8e573d6000803e3d6000fd5b505050506040513d601f19601f82011682018060405250810190610ab29190610f9d565b600880546001600160a01b039283166001600160a01b031991821681179092556009805490911690911790556003546040516363b8d4c160e11b81526020600482015260066024820152654150505f4e4360d01b604482015291169063c771a9829060640160206040518083038186803b158015610b2f57600080fd5b505afa158015610b43573d6000803e3d6000fd5b505050506040513d601f19601f82011682018060405250810190610b679190610f9d565b601480546001600160a01b03929092166001600160a01b03199283168117909155601580549092161790556001600055565b610ba38282610632565b6104f157610bbb816001600160a01b03166014610ddd565b610bc6836020610ddd565b604051602001610bd792919061112f565b60408051601f198184030181529082905262461bcd60e51b82526103b9916004016111a4565b610c078282610632565b6104f15760008281526001602081815260408084206001600160a01b0386168086529252808420805460ff19169093179092559051339285917f2f8788117e7eff1d82e926ec794901d17c78024a50270940304540a733656f0d9190a45050565b610c728282610632565b156104f15760008281526001602090815260408083206001600160a01b0385168085529252808320805460ff1916905551339285917ff6391f5c32d9c69d2a47ea670b442974b53935d1edc7fd64eb21e047a839171b9190a45050565b60025460ff16610d185760405162461bcd60e51b815260206004820152601460248201527314185d5cd8589b194e881b9bdd081c185d5cd95960621b60448201526064016103b9565b6002805460ff191690557f5db9ee0a495bf2e6ff9c91a7834c1ba4fdd244a5e8aa4e537bd38aeae4b073aa335b6040516001600160a01b03909116815260200160405180910390a1565b60025460ff1615610da85760405162461bcd60e51b815260206004820152601060248201526f14185d5cd8589b194e881c185d5cd95960821b60448201526064016103b9565b6002805460ff191660011790557f62e78cea01bee320cd4e420270b5ea74000d11b0c9f74754ebdbfc544b05a258610d453390565b60606000610dec836002611353565b610df790600261133b565b67ffffffffffffffff811115610e0f57610e0f6113e5565b6040519080825280601f01601f191660200182016040528015610e39576020820181803683370190505b509050600360fc1b81600081518110610e5457610e546113cf565b60200101906001600160f81b031916908160001a905350600f60fb1b81600181518110610e8357610e836113cf565b60200101906001600160f81b031916908160001a9053506000610ea7846002611353565b610eb290600161133b565b90505b6001811115610f2a576f181899199a1a9b1b9c1cb0b131b232b360811b85600f1660108110610ee657610ee66113cf565b1a60f81b828281518110610efc57610efc6113cf565b60200101906001600160f81b031916908160001a90535060049490941c93610f23816113a2565b9050610eb5565b508315610f795760405162461bcd60e51b815260206004820181905260248201527f537472696e67733a20686578206c656e67746820696e73756666696369656e7460448201526064016103b9565b9392505050565b600060208284031215610f9257600080fd5b8135610f79816113fb565b600060208284031215610faf57600080fd5b8151610f79816113fb565b600080600060608486031215610fcf57600080fd5b8335610fda816113fb565b92506020840135610fea816113fb565b929592945050506040919091013590565b60008060008060006080868803121561101357600080fd5b853561101e816113fb565b9450602086013561102e816113fb565b935060408601359250606086013567ffffffffffffffff8082111561105257600080fd5b818801915088601f83011261106657600080fd5b81358181111561107557600080fd5b89602082850101111561108757600080fd5b9699959850939650602001949392505050565b6000602082840312156110ac57600080fd5b81518015158114610f7957600080fd5b6000602082840312156110ce57600080fd5b5035919050565b600080604083850312156110e857600080fd5b8235915060208301356110fa816113fb565b809150509250929050565b60006020828403121561111757600080fd5b81356001600160e01b031981168114610f7957600080fd5b7f416363657373436f6e74726f6c3a206163636f756e7420000000000000000000815260008351611167816017850160208801611372565b7001034b99036b4b9b9b4b733903937b6329607d1b6017918401918201528351611198816028840160208801611372565b01602801949350505050565b60208152600082518060208401526111c3816040850160208701611372565b601f01601f19169190910160400192915050565b60208082526027908201527f423a4d4f443a2d4941444d2043616c6c65722021434f4e54524143545f41444d604082015266494e5f524f4c4560c81b606082015260800190565b60208082526023908201527f423a4d4f443a2d4941444d2043616c6c6572202141535345545f545846525f526040820152624f4c4560e81b606082015260800190565b60208082526038908201527f45533a534d503a43616e6e6f7420736574206d696e696d756d20706572696f6460408201527f20746f206c657373207468616e203330207365636f6e64730000000000000000606082015260800190565b60208082526026908201527f423a4d4f442d49503a43616c6c696e672061646472657373206973206e6f74206040820152653830bab9b2b960d11b606082015260800190565b6020808252601f908201527f5265656e7472616e637947756172643a207265656e7472616e742063616c6c00604082015260600190565b6000821982111561134e5761134e6113b9565b500190565b600081600019048311821515161561136d5761136d6113b9565b500290565b60005b8381101561138d578181015183820152602001611375565b8381111561139c576000848401525b50505050565b6000816113b1576113b16113b9565b506000190190565b634e487b7160e01b600052601160045260246000fd5b634e487b7160e01b600052603260045260246000fd5b634e487b7160e01b600052604160045260246000fd5b6001600160a01b038116811461141057600080fd5b5056fe2ce8d04a9c35987429af538825cd2438cc5c5bb5dc427955f84daaa3ea105016a264697066735822122049086492a12137b597882a15368f832a6554146caa0fc3d6a28fbc1df52ea70264736f6c63430008070033",
  "immutableReferences": {},
  "source": "/*--------------------------------------------------------PRF0.8.7\n__/\\\\\\\\\\\\\\\\\\\\\\\\\\ _____/\\\\\\\\\\\\\\\\\\ _______/\\\\__/\\\\ ___/\\\\\\\\\\\\\\\\\\\\\\\\\\\\\\        \n__\\/\\\\\\/////////\\\\\\ _/\\\\\\///////\\\\\\ ____\\//__\\//____\\/\\\\\\///////////__       \n___\\/\\\\\\_______\\/\\\\\\_\\/\\\\\\_____\\/\\\\\\ ________________\\/\\\\\\ ____________      \n____\\/\\\\\\\\\\\\\\\\\\\\\\\\\\/__\\/\\\\\\\\\\\\\\\\\\\\\\/_____/\\\\\\____/\\\\\\_\\/\\\\\\\\\\\\\\\\\\\\\\ ____     \n_____\\/\\\\\\/////////____\\/\\\\\\//////\\\\\\ ___\\/\\\\\\___\\/\\\\\\_\\/\\\\\\///////______\n______\\/\\\\\\ ____________\\/\\\\\\ ___\\//\\\\\\ __\\/\\\\\\___\\/\\\\\\_\\/\\\\\\ ____________\n_______\\/\\\\\\ ____________\\/\\\\\\ ____\\//\\\\\\ _\\/\\\\\\___\\/\\\\\\_\\/\\\\\\ ____________\n________\\/\\\\\\ ____________\\/\\\\\\ _____\\//\\\\\\_\\//\\\\\\\\\\\\\\\\\\ _\\/\\\\\\ ____________\n_________\\/// _____________\\/// _______\\/// __\\///////// __\\/// _____________\n*---------------------------------------------------------------------------*/\n\n/**-----------------------------------------------------------------\n * FAUCET Specification V0.1\n * 1.00 per second\n *---------------------------------------------------------------*/\n\n// SPDX-License-Identifier: UNLICENSED\npragma solidity 0.8.7;\n\nimport \"../Resources/PRUF_CORE.sol\";\n\ncontract FAUCET is CORE {\n    address internal REWARDS_VAULT_Address;\n    REWARDS_VAULT_Interface internal REWARDS_VAULT;\n\n    uint256 constant seconds_in_a_day = 86400; //never set to less than 24 for tesing\n\n    uint256 droplet = 10000000000000000000; // 5.00\n\n    uint256 interval = 900; //limit interval in seconds\n    uint256 maxPerInterval = 110000000000000000000; //Max PRUF delivered per interval\n    uint256 tokensThisInterval = 0; //Tokens claimed this interval\n    uint256 lastStream; //last claim block.timestamp\n\n    // --------------------------------------Modifiers--------------------------------------------//\n\n    // /**\n    //  * @dev Verify user credentials\n    //  * @param _tokenId token id to check\n    //  */\n    // modifier isStakeHolder(uint256 _tokenId) {\n    //     require(\n    //         (STAKE_TKN.ownerOf(_tokenId) == _msgSender()),\n    //         \"PES:MOD-ISH: caller does not hold stake token\"\n    //     );\n    //     _;\n    // }\n\n    //--------------------------------------External functions--------------------------------------------//\n\n    /**\n     * @dev Setter for setting faucet output amount\n     * @param _droplet in seconds\n     */\n    function setFaucetAmount(uint256 _droplet) external isContractAdmin {\n        require(\n            droplet <= 1000000000000000000000, //cannot exceed 1000\n            \"ES:SFA:Cannot set to more than 100\"\n        );\n        droplet = _droplet;\n    }\n\n    /**\n     * @dev Setter for reset interval\n     * @param _interval in seconds\n     */\n    function setInterval(uint256 _interval) external isContractAdmin {\n        require(\n            _interval >= 30, //at least 30 seconds\n            \"ES:SMP:Cannot set minimum period to less than 30 seconds\"\n        );\n        interval = _interval;\n    }\n\n    /**\n     * @dev Setter for max tokens per interval\n     * @param _maxPerInterval in seconds\n     */\n    function setMaxPerInterval(uint256 _maxPerInterval)\n        external\n        isContractAdmin\n    {\n        require(\n            _maxPerInterval <= 10000000000000000000000, //No more than 10K\n            \"ES:SMP:Cannot set minimum period to less than 30 seconds\"\n        );\n        maxPerInterval = _maxPerInterval;\n    }\n\n    /**\n     * @dev Resolve Contract Addresses from STOR\n     */\n    function resolveContractAddresses()\n        external\n        override\n        nonReentrant\n        isContractAdmin\n    {\n        //^^^^^^^checks^^^^^^^^^\n\n        REWARDS_VAULT_Address = STOR.resolveContractAddress(\"REWARDS_VAULT\");\n        REWARDS_VAULT = REWARDS_VAULT_Interface(REWARDS_VAULT_Address);\n\n        UTIL_TKN_Address = STOR.resolveContractAddress(\"UTIL_TKN\");\n        UTIL_TKN = UTIL_TKN_Interface(UTIL_TKN_Address);\n\n        APP_NC_Address = STOR.resolveContractAddress(\"APP_NC\");\n        APP_NC = APP_NC_Interface(APP_NC_Address);\n\n        // ID_MGR_Address = STOR.resolveContractAddress(\"ID_MGR\");\n        // ID_MGR = ID_MGR_Interface(ID_MGR_Address);\n\n        //^^^^^^^effects^^^^^^^^^\n    }\n\n    /**\n     * @dev Transfers eligible rewards to staker, resets last payment time\n     * @param _seed token id to claim rewards on\n     */\n\n    //--WARNING IN COMPILING, FUNCTION COMMENTED OUT FOR TESTING\n\n    // function drip(bytes32 _seed) external whenNotPaused nonReentrant {\n    //     if (block.timestamp - lastStream > interval) {\n    //         tokensThisInterval = 0;\n    //         lastStream = block.timestamp;\n    //     }\n    //     require(\n    //         tokensThisInterval < maxPerInterval,\n    //         \"PES:CB: Stream Depleted. Wait until next interval\"\n    //     );\n\n    //     uint256 faucetBalance = UTIL_TKN.balanceOf(address(this));\n\n    //     //^^^^^^^checks^^^^^^^^^\n\n    //     if (droplet > faucetBalance) {\n    //         droplet = faucetBalance / 2; //as the faucet becomes empty, enforce a tapering distribution\n    //     }\n\n    //     //^^^^^^^effects^^^^^^^^^\n\n    //     UTIL_TKN.transfer(_msgSender(), droplet); //deliver the goods\n    //     tokensThisInterval = tokensThisInterval + droplet;\n    //     //^^^^^^^interactions^^^^^^^^^\n    // }\n\n    // bytes32 _idxHash,\n    // bytes32 _rgtHash,\n    // uint32 _node,\n    // uint32 _countDownStart,\n    // bytes32 _nonMutableStorage1,\n    // bytes32 _nonMutableStorage2\n\n    //APP_NC.newRecordWithNote(_idxHash, _rgtHash, _node, _countDownStart, _nonMutableStorage1, _nonMutableStorage2);\n}\n",
  "sourcePath": "/Users/drake/Documents/DEV/PRUF/PRUF_TRUFFLE/contracts/InProgress/PRUF_FAUCET.sol",
  "compiler": {
    "name": "solc",
    "version": "0.8.7+commit.e28d00a7.Emscripten.clang"
  },
  "schemaVersion": "3.4.3",
  "updatedAt": "2022-04-27T15:21:40.108Z",
  "devdoc": {
    "kind": "dev",
    "methods": {
      "ERC20Transfer(address,address,uint256)": {
        "details": "send an ERC20 token from this contract",
        "params": {
          "_amount": "amount to transfer",
          "_to": "destination",
          "_tokenContract": "Address of foreign token contract"
        }
      },
      "ERC721Transfer(address,address,uint256)": {
        "details": "send an ERC721 token from this contract",
        "params": {
          "_to": "destination",
          "_tokenContract": "Address of foreign token contract",
          "_tokenID": "Token ID"
        }
      },
      "getRoleAdmin(bytes32)": {
        "details": "Returns the admin role that controls `role`. See {grantRole} and {revokeRole}. To change a role's admin, use {_setRoleAdmin}."
      },
      "grantRole(bytes32,address)": {
        "details": "Grants `role` to `account`. If `account` had not been already granted `role`, emits a {RoleGranted} event. Requirements: - the caller must have ``role``'s admin role."
      },
      "hasRole(bytes32,address)": {
        "details": "Returns `true` if `account` has been granted `role`."
      },
      "onERC721Received(address,address,uint256,bytes)": {
        "details": "Compliance for erc721 reciever See OZ documentation"
      },
      "paused()": {
        "details": "Returns true if the contract is paused, and false otherwise."
      },
      "renounceRole(bytes32,address)": {
        "details": "Revokes `role` from the calling account. Roles are often managed via {grantRole} and {revokeRole}: this function's purpose is to provide a mechanism for accounts to lose their privileges if they are compromised (such as when a trusted device is misplaced). If the calling account had been granted `role`, emits a {RoleRevoked} event. Requirements: - the caller must be `account`."
      },
      "resolveContractAddresses()": {
        "details": "Resolve Contract Addresses from STOR"
      },
      "revokeRole(bytes32,address)": {
        "details": "Revokes `role` from `account`. If `account` had been granted `role`, emits a {RoleRevoked} event. Requirements: - the caller must have ``role``'s admin role."
      },
      "setFaucetAmount(uint256)": {
        "details": "Setter for setting faucet output amount",
        "params": {
          "_droplet": "in seconds"
        }
      },
      "setInterval(uint256)": {
        "details": "Setter for reset interval",
        "params": {
          "_interval": "in seconds"
        }
      },
      "setMaxPerInterval(uint256)": {
        "details": "Setter for max tokens per interval",
        "params": {
          "_maxPerInterval": "in seconds"
        }
      },
      "setStorageContract(address)": {
        "details": "Set address of STOR contract to interface with",
        "params": {
          "_storageAddress": "address of PRUF_STOR"
        }
      },
      "supportsInterface(bytes4)": {
        "details": "See {IERC165-supportsInterface}."
      }
    },
    "version": 1
  },
  "userdoc": {
    "kind": "user",
    "methods": {},
    "version": 1
  }
}