{
  "contractName": "GASTEST",
  "abi": [
    {
      "anonymous": false,
      "inputs": [
        {
          "indexed": true,
          "internalType": "address",
          "name": "previousOwner",
          "type": "address"
        },
        {
          "indexed": true,
          "internalType": "address",
          "name": "newOwner",
          "type": "address"
        }
      ],
      "name": "OwnershipTransferred",
      "type": "event"
    },
    {
      "inputs": [],
      "name": "owner",
      "outputs": [
        {
          "internalType": "address",
          "name": "",
          "type": "address"
        }
      ],
      "stateMutability": "view",
      "type": "function"
    },
    {
      "inputs": [],
      "name": "renounceOwnership",
      "outputs": [],
      "stateMutability": "nonpayable",
      "type": "function"
    },
    {
      "inputs": [
        {
          "internalType": "address",
          "name": "newOwner",
          "type": "address"
        }
      ],
      "name": "transferOwnership",
      "outputs": [],
      "stateMutability": "nonpayable",
      "type": "function"
    },
    {
      "inputs": [
        {
          "internalType": "uint256",
          "name": "_key",
          "type": "uint256"
        },
        {
          "internalType": "uint256",
          "name": "_val",
          "type": "uint256"
        }
      ],
      "name": "storeSmall",
      "outputs": [],
      "stateMutability": "nonpayable",
      "type": "function"
    },
    {
      "inputs": [
        {
          "internalType": "uint256",
          "name": "_key",
          "type": "uint256"
        },
        {
          "internalType": "uint8",
          "name": "U8_1",
          "type": "uint8"
        },
        {
          "internalType": "uint8",
          "name": "U8_2",
          "type": "uint8"
        },
        {
          "internalType": "uint8",
          "name": "U8_3",
          "type": "uint8"
        },
        {
          "internalType": "uint8",
          "name": "U8_4",
          "type": "uint8"
        },
        {
          "internalType": "uint32",
          "name": "U32",
          "type": "uint32"
        },
        {
          "internalType": "uint64",
          "name": "U64",
          "type": "uint64"
        },
        {
          "internalType": "uint128",
          "name": "U128",
          "type": "uint128"
        }
      ],
      "name": "storeMed",
      "outputs": [],
      "stateMutability": "nonpayable",
      "type": "function"
    },
    {
      "inputs": [
        {
          "internalType": "uint256",
          "name": "_key",
          "type": "uint256"
        },
        {
          "internalType": "uint8",
          "name": "U8_1",
          "type": "uint8"
        },
        {
          "internalType": "uint8",
          "name": "U8_2",
          "type": "uint8"
        },
        {
          "internalType": "uint8",
          "name": "U8_3",
          "type": "uint8"
        },
        {
          "internalType": "uint8",
          "name": "U8_4",
          "type": "uint8"
        },
        {
          "internalType": "uint32",
          "name": "U32",
          "type": "uint32"
        },
        {
          "internalType": "uint64",
          "name": "U64",
          "type": "uint64"
        },
        {
          "internalType": "uint128",
          "name": "U128",
          "type": "uint128"
        },
        {
          "internalType": "uint256",
          "name": "U256",
          "type": "uint256"
        },
        {
          "internalType": "bytes32",
          "name": "B32_1",
          "type": "bytes32"
        },
        {
          "internalType": "bytes32",
          "name": "B32_2",
          "type": "bytes32"
        }
      ],
      "name": "storeBig",
      "outputs": [],
      "stateMutability": "nonpayable",
      "type": "function"
    },
    {
      "inputs": [
        {
          "internalType": "uint256",
          "name": "_key",
          "type": "uint256"
        }
      ],
      "name": "getSmall",
      "outputs": [
        {
          "internalType": "uint256",
          "name": "",
          "type": "uint256"
        }
      ],
      "stateMutability": "view",
      "type": "function"
    },
    {
      "inputs": [
        {
          "internalType": "uint256",
          "name": "_key",
          "type": "uint256"
        }
      ],
      "name": "getMed",
      "outputs": [
        {
          "internalType": "uint8",
          "name": "",
          "type": "uint8"
        },
        {
          "internalType": "uint8",
          "name": "",
          "type": "uint8"
        },
        {
          "internalType": "uint8",
          "name": "",
          "type": "uint8"
        },
        {
          "internalType": "uint8",
          "name": "",
          "type": "uint8"
        },
        {
          "internalType": "uint32",
          "name": "",
          "type": "uint32"
        },
        {
          "internalType": "uint64",
          "name": "",
          "type": "uint64"
        },
        {
          "internalType": "uint256",
          "name": "",
          "type": "uint256"
        }
      ],
      "stateMutability": "view",
      "type": "function"
    },
    {
      "inputs": [
        {
          "internalType": "uint256",
          "name": "_key",
          "type": "uint256"
        }
      ],
      "name": "getBig",
      "outputs": [
        {
          "internalType": "uint8",
          "name": "",
          "type": "uint8"
        },
        {
          "internalType": "uint8",
          "name": "",
          "type": "uint8"
        },
        {
          "internalType": "uint8",
          "name": "",
          "type": "uint8"
        },
        {
          "internalType": "uint8",
          "name": "",
          "type": "uint8"
        },
        {
          "internalType": "uint32",
          "name": "",
          "type": "uint32"
        },
        {
          "internalType": "uint64",
          "name": "",
          "type": "uint64"
        },
        {
          "internalType": "uint256",
          "name": "",
          "type": "uint256"
        }
      ],
      "stateMutability": "view",
      "type": "function"
    },
    {
      "inputs": [
        {
          "internalType": "uint256",
          "name": "_key",
          "type": "uint256"
        }
      ],
      "name": "clearSmall",
      "outputs": [],
      "stateMutability": "nonpayable",
      "type": "function"
    },
    {
      "inputs": [
        {
          "internalType": "uint256",
          "name": "_key",
          "type": "uint256"
        }
      ],
      "name": "clearMed",
      "outputs": [],
      "stateMutability": "nonpayable",
      "type": "function"
    },
    {
      "inputs": [
        {
          "internalType": "uint256",
          "name": "_key",
          "type": "uint256"
        }
      ],
      "name": "clearBig",
      "outputs": [],
      "stateMutability": "nonpayable",
      "type": "function"
    }
  ],
  "bytecode": "0x608060405234801561001057600080fd5b50600061001b61006a565b600080546001600160a01b0319166001600160a01b0383169081178255604051929350917f8be0079c531659141344cd1fd0a4f28419497f9722a3daafe3b4186f6b6457e0908290a35061006e565b3390565b61091c8061007d6000396000f3fe608060405234801561001057600080fd5b50600436106100b45760003560e01c80638da5cb5b116100715780638da5cb5b14610261578063bf62b14e14610285578063cb9ee017146102a2578063ccc98cce146102bf578063dda7cfa8146102dc578063f2fde38b1461030b576100b4565b80631ca73cee146100b95780631f75bf31146100d85780633a5281ed14610159578063403a62241461017c578063605349e9146101e9578063715018a614610259575b600080fd5b6100d6600480360360208110156100cf57600080fd5b5035610331565b005b6100d660048036036101608110156100ef57600080fd5b5080359060ff60208201358116916040810135821691606082013581169160808101359091169063ffffffff60a0820135169067ffffffffffffffff60c082013516906001600160801b0360e0820135169061010081013590610120810135906101400135610342565b6100d66004803603604081101561016f57600080fd5b5080359060200135610509565b6100d6600480360361010081101561019357600080fd5b50803590602081013560ff908116916040810135821691606082013581169160808101359091169060a081013563ffffffff169060c081013567ffffffffffffffff169060e001356001600160801b031661051b565b610206600480360360208110156101ff57600080fd5b50356105df565b6040805160ff988916815296881660208801529487168686015292909516606085015263ffffffff16608084015267ffffffffffffffff90931660a083015260c082019290925290519081900360e00190f35b6100d6610643565b6102696106f7565b604080516001600160a01b039092168252519081900360200190f35b6100d66004803603602081101561029b57600080fd5b5035610706565b6100d6600480360360208110156102b857600080fd5b503561072b565b610206600480360360208110156102d557600080fd5b503561073c565b6102f9600480360360208110156102f257600080fd5b50356107a0565b60408051918252519081900360200190f35b6100d66004803603602081101561032157600080fd5b50356001600160a01b03166107b2565b600090815260016020526040812055565b89600360008d815260200190815260200160002060000160006101000a81548160ff021916908360ff16021790555088600360008d815260200190815260200160002060000160016101000a81548160ff021916908360ff16021790555087600360008d815260200190815260200160002060000160026101000a81548160ff021916908360ff16021790555086600360008d815260200190815260200160002060000160036101000a81548160ff021916908360ff16021790555085600360008d815260200190815260200160002060000160046101000a81548163ffffffff021916908363ffffffff16021790555084600360008d815260200190815260200160002060000160086101000a81548167ffffffffffffffff021916908367ffffffffffffffff16021790555083600360008d815260200190815260200160002060000160106101000a8154816001600160801b0302191690836001600160801b0316021790555082600360008d81526020019081526020016000206001018190555081600360008d81526020019081526020016000206002018190555080600360008d8152602001908152602001600020600301819055505050505050505050505050565b60009182526001602052604090912055565b60009788526002602052604090972080546001600160801b03988916600160801b0267ffffffffffffffff909316600160401b026fffffffffffffffff00000000000000001963ffffffff9095166401000000000267ffffffff000000001960ff97881663010000000263ff00000019998916620100000262ff0000199b8a166101000261ff00199a909d1660ff1990961695909517989098169a909a17989098169190911795909516939093179590951693909317929092161792909216179055565b60009081526002602052604090205460ff808216926101008304821692620100008104831692630100000082041691640100000000820463ffffffff1691600160401b810467ffffffffffffffff1691600160801b9091046001600160801b031690565b61064b6108bc565b6000546001600160a01b039081169116146106ad576040805162461bcd60e51b815260206004820181905260248201527f4f776e61626c653a2063616c6c6572206973206e6f7420746865206f776e6572604482015290519081900360640190fd5b600080546040516001600160a01b03909116907f8be0079c531659141344cd1fd0a4f28419497f9722a3daafe3b4186f6b6457e0908390a3600080546001600160a01b0319169055565b6000546001600160a01b031690565b6000908152600360208190526040822082815560018101839055600281018390550155565b600090815260026020526040812055565b60009081526003602052604090205460ff808216926101008304821692620100008104831692630100000082041691640100000000820463ffffffff1691600160401b810467ffffffffffffffff1691600160801b9091046001600160801b031690565b60009081526001602052604090205490565b6107ba6108bc565b6000546001600160a01b0390811691161461081c576040805162461bcd60e51b815260206004820181905260248201527f4f776e61626c653a2063616c6c6572206973206e6f7420746865206f776e6572604482015290519081900360640190fd5b6001600160a01b0381166108615760405162461bcd60e51b81526004018080602001828103825260268152602001806108c16026913960400191505060405180910390fd5b600080546040516001600160a01b03808516939216917f8be0079c531659141344cd1fd0a4f28419497f9722a3daafe3b4186f6b6457e091a3600080546001600160a01b0319166001600160a01b0392909216919091179055565b339056fe4f776e61626c653a206e6577206f776e657220697320746865207a65726f2061646472657373a2646970667358221220668f38df4f597d19989b1ddb0b23a1261bd392eef3c2339bf85cc1214cb4793d64736f6c634300060c0033",
  "immutableReferences": {},
  "source": "/*--------------------------------------------------------PRuF0.7.1\n__/\\\\\\\\\\\\\\\\\\\\\\\\\\ _____/\\\\\\\\\\\\\\\\\\ _______/\\\\../\\\\ ___/\\\\\\\\\\\\\\\\\\\\\\\\\\\\\\\n _\\/\\\\\\/////////\\\\\\ _/\\\\\\///////\\\\\\ ____\\//..\\//____\\/\\\\\\///////////__\n  _\\/\\\\\\.......\\/\\\\\\.\\/\\\\\\.....\\/\\\\\\ ________________\\/\\\\\\ ____________\n   _\\/\\\\\\\\\\\\\\\\\\\\\\\\\\/__\\/\\\\\\\\\\\\\\\\\\\\\\/_____/\\\\\\____/\\\\\\.\\/\\\\\\\\\\\\\\\\\\\\\\ ____\n    _\\/\\\\\\/////////____\\/\\\\\\//////\\\\\\ ___\\/\\\\\\___\\/\\\\\\.\\/\\\\\\///////______\n     _\\/\\\\\\ ____________\\/\\\\\\ ___\\//\\\\\\ __\\/\\\\\\___\\/\\\\\\.\\/\\\\\\ ____________\n      _\\/\\\\\\ ____________\\/\\\\\\ ____\\//\\\\\\ _\\/\\\\\\___\\/\\\\\\.\\/\\\\\\ ____________\n       _\\/\\\\\\ ____________\\/\\\\\\ _____\\//\\\\\\.\\//\\\\\\\\\\\\\\\\\\ _\\/\\\\\\ ____________\n        _\\/// _____________\\/// _______\\/// __\\///////// __\\/// _____________\n         *-------------------------------------------------------------------*/\n\n/*-----------------------------------------------------------------\n *  TO DO\n *\n *---------------------------------------------------------------*/\n\n// SPDX-License-Identifier: UNLICENSED\npragma solidity ^0.6.7;\nimport \"./Imports/access/Ownable.sol\";\n\n\ncontract GASTEST is Ownable {\n    struct Data {\n        uint8 U8_1;\n        uint8 U8_2;\n        uint8 U8_3;\n        uint8 U8_4;\n        uint32 U32; \n        uint64 U64;\n        uint128 U128;\n    }\n\n    struct BigData {\n        uint8 U8_1;\n        uint8 U8_2;\n        uint8 U8_3;\n        uint8 U8_4;\n        uint32 U32; \n        uint64 U64;\n        uint128 U128;\n        uint256 U256;\n        bytes32 B32_1;\n        bytes32 B32_2;\n    }\n\n    mapping(uint256 => uint256) internal smallMap;\n    mapping(uint256 => Data) internal medMap;\n    mapping(uint256 => BigData) internal bigMap;\n\n    function storeSmall(uint256 _key, uint256 _val) public {\n        smallMap[_key] = _val;\n    }\n\n    function storeMed(\n        uint256 _key, \n        uint8 U8_1,\n        uint8 U8_2,\n        uint8 U8_3,\n        uint8 U8_4,\n        uint32 U32, \n        uint64 U64,\n        uint128 U128) public {\n        \n        medMap[_key].U8_1 = U8_1;\n        medMap[_key].U8_2 = U8_2;\n        medMap[_key].U8_3 = U8_3;\n        medMap[_key].U8_4 = U8_4;\n        medMap[_key].U32 = U32;\n        medMap[_key].U64 = U64;\n        medMap[_key].U128 = U128;\n    }\n\n    function storeBig(\n        uint256 _key, \n        uint8 U8_1,\n        uint8 U8_2,\n        uint8 U8_3,\n        uint8 U8_4,\n        uint32 U32, \n        uint64 U64,\n        uint128 U128,\n        uint256 U256,\n        bytes32 B32_1,\n        bytes32 B32_2\n        ) public {\n        \n        bigMap[_key].U8_1 = U8_1;\n        bigMap[_key].U8_2 = U8_2;\n        bigMap[_key].U8_3 = U8_3;\n        bigMap[_key].U8_4 = U8_4;\n        bigMap[_key].U32 = U32;\n        bigMap[_key].U64 = U64;\n        bigMap[_key].U128 = U128;\n        bigMap[_key].U256 = U256;\n        bigMap[_key].B32_1 = B32_1;\n        bigMap[_key].B32_2 = B32_2;\n    }\n\n    function getSmall(uint256 _key) public view returns (uint256){\n        return smallMap[_key];\n    }\n\n    function getMed(uint256 _key) public view returns (uint8, uint8, uint8, uint8, uint32, uint64, uint256){\n        return (\n            medMap[_key].U8_1,\n            medMap[_key].U8_2,\n            medMap[_key].U8_3,\n            medMap[_key].U8_4,\n            medMap[_key].U32, \n            medMap[_key].U64,\n            medMap[_key].U128);\n    }\n\n    function getBig(uint256 _key) public view returns (uint8, uint8, uint8, uint8, uint32, uint64, uint256){\n        return (\n            bigMap[_key].U8_1,\n            bigMap[_key].U8_2,\n            bigMap[_key].U8_3,\n            bigMap[_key].U8_4,\n            bigMap[_key].U32, \n            bigMap[_key].U64,\n            bigMap[_key].U128);\n    }\n\n    function clearSmall(uint256 _key) public {\n        delete smallMap[_key];\n    }\n\n    function clearMed(uint256 _key) public {\n        delete medMap[_key];\n    }\n\n    function clearBig(uint256 _key) public {\n        delete bigMap[_key];\n    }\n\n\n    \n}\n",
  "sourcePath": "/Users/cts/dev/PRUF/PRUF_TRUFFLE/contracts/GASTEST.sol",
  "compiler": {
    "name": "solc",
    "version": "0.6.12+commit.27d51765.Emscripten.clang"
  },
  "schemaVersion": "3.2.3",
  "updatedAt": "2020-12-13T01:45:39.736Z",
  "devdoc": {
    "kind": "dev",
    "methods": {
      "owner()": {
        "details": "Returns the address of the current owner."
      },
      "renounceOwnership()": {
        "details": "Leaves the contract without owner. It will not be possible to call `onlyOwner` functions anymore. Can only be called by the current owner. NOTE: Renouncing ownership will leave the contract without an owner, thereby removing any functionality that is only available to the owner."
      },
      "transferOwnership(address)": {
        "details": "Transfers ownership of the contract to a new account (`newOwner`). Can only be called by the current owner."
      }
    },
    "version": 1
  },
  "userdoc": {
    "kind": "user",
    "methods": {},
    "version": 1
  }
}