{
  "contractName": "GovernorTimelockCompoundMock",
  "abi": [
    {
      "inputs": [
        {
          "internalType": "string",
          "name": "name_",
          "type": "string"
        },
        {
          "internalType": "contract ERC20Votes",
          "name": "token_",
          "type": "address"
        },
        {
          "internalType": "uint256",
          "name": "votingDelay_",
          "type": "uint256"
        },
        {
          "internalType": "uint256",
          "name": "votingPeriod_",
          "type": "uint256"
        },
        {
          "internalType": "contract ICompoundTimelock",
          "name": "timelock_",
          "type": "address"
        },
        {
          "internalType": "uint256",
          "name": "quorumNumerator_",
          "type": "uint256"
        }
      ],
      "stateMutability": "nonpayable",
      "type": "constructor"
    },
    {
      "anonymous": false,
      "inputs": [
        {
          "indexed": false,
          "internalType": "uint256",
          "name": "proposalId",
          "type": "uint256"
        }
      ],
      "name": "ProposalCanceled",
      "type": "event"
    },
    {
      "anonymous": false,
      "inputs": [
        {
          "indexed": false,
          "internalType": "uint256",
          "name": "proposalId",
          "type": "uint256"
        },
        {
          "indexed": false,
          "internalType": "address",
          "name": "proposer",
          "type": "address"
        },
        {
          "indexed": false,
          "internalType": "address[]",
          "name": "targets",
          "type": "address[]"
        },
        {
          "indexed": false,
          "internalType": "uint256[]",
          "name": "values",
          "type": "uint256[]"
        },
        {
          "indexed": false,
          "internalType": "string[]",
          "name": "signatures",
          "type": "string[]"
        },
        {
          "indexed": false,
          "internalType": "bytes[]",
          "name": "calldatas",
          "type": "bytes[]"
        },
        {
          "indexed": false,
          "internalType": "uint256",
          "name": "startBlock",
          "type": "uint256"
        },
        {
          "indexed": false,
          "internalType": "uint256",
          "name": "endBlock",
          "type": "uint256"
        },
        {
          "indexed": false,
          "internalType": "string",
          "name": "description",
          "type": "string"
        }
      ],
      "name": "ProposalCreated",
      "type": "event"
    },
    {
      "anonymous": false,
      "inputs": [
        {
          "indexed": false,
          "internalType": "uint256",
          "name": "proposalId",
          "type": "uint256"
        }
      ],
      "name": "ProposalExecuted",
      "type": "event"
    },
    {
      "anonymous": false,
      "inputs": [
        {
          "indexed": false,
          "internalType": "uint256",
          "name": "proposalId",
          "type": "uint256"
        },
        {
          "indexed": false,
          "internalType": "uint256",
          "name": "eta",
          "type": "uint256"
        }
      ],
      "name": "ProposalQueued",
      "type": "event"
    },
    {
      "anonymous": false,
      "inputs": [
        {
          "indexed": false,
          "internalType": "uint256",
          "name": "oldQuorumNumerator",
          "type": "uint256"
        },
        {
          "indexed": false,
          "internalType": "uint256",
          "name": "newQuorumNumerator",
          "type": "uint256"
        }
      ],
      "name": "QuorumNumeratorUpdated",
      "type": "event"
    },
    {
      "anonymous": false,
      "inputs": [
        {
          "indexed": false,
          "internalType": "address",
          "name": "oldTimelock",
          "type": "address"
        },
        {
          "indexed": false,
          "internalType": "address",
          "name": "newTimelock",
          "type": "address"
        }
      ],
      "name": "TimelockChange",
      "type": "event"
    },
    {
      "anonymous": false,
      "inputs": [
        {
          "indexed": true,
          "internalType": "address",
          "name": "voter",
          "type": "address"
        },
        {
          "indexed": false,
          "internalType": "uint256",
          "name": "proposalId",
          "type": "uint256"
        },
        {
          "indexed": false,
          "internalType": "uint8",
          "name": "support",
          "type": "uint8"
        },
        {
          "indexed": false,
          "internalType": "uint256",
          "name": "weight",
          "type": "uint256"
        },
        {
          "indexed": false,
          "internalType": "string",
          "name": "reason",
          "type": "string"
        }
      ],
      "name": "VoteCast",
      "type": "event"
    },
    {
      "inputs": [],
      "name": "BALLOT_TYPEHASH",
      "outputs": [
        {
          "internalType": "bytes32",
          "name": "",
          "type": "bytes32"
        }
      ],
      "stateMutability": "view",
      "type": "function"
    },
    {
      "inputs": [],
      "name": "COUNTING_MODE",
      "outputs": [
        {
          "internalType": "string",
          "name": "",
          "type": "string"
        }
      ],
      "stateMutability": "pure",
      "type": "function"
    },
    {
      "inputs": [],
      "name": "__acceptAdmin",
      "outputs": [],
      "stateMutability": "nonpayable",
      "type": "function"
    },
    {
      "inputs": [
        {
          "internalType": "uint256",
          "name": "proposalId",
          "type": "uint256"
        },
        {
          "internalType": "uint8",
          "name": "support",
          "type": "uint8"
        }
      ],
      "name": "castVote",
      "outputs": [
        {
          "internalType": "uint256",
          "name": "",
          "type": "uint256"
        }
      ],
      "stateMutability": "nonpayable",
      "type": "function"
    },
    {
      "inputs": [
        {
          "internalType": "uint256",
          "name": "proposalId",
          "type": "uint256"
        },
        {
          "internalType": "uint8",
          "name": "support",
          "type": "uint8"
        },
        {
          "internalType": "uint8",
          "name": "v",
          "type": "uint8"
        },
        {
          "internalType": "bytes32",
          "name": "r",
          "type": "bytes32"
        },
        {
          "internalType": "bytes32",
          "name": "s",
          "type": "bytes32"
        }
      ],
      "name": "castVoteBySig",
      "outputs": [
        {
          "internalType": "uint256",
          "name": "",
          "type": "uint256"
        }
      ],
      "stateMutability": "nonpayable",
      "type": "function"
    },
    {
      "inputs": [
        {
          "internalType": "uint256",
          "name": "proposalId",
          "type": "uint256"
        },
        {
          "internalType": "uint8",
          "name": "support",
          "type": "uint8"
        },
        {
          "internalType": "string",
          "name": "reason",
          "type": "string"
        }
      ],
      "name": "castVoteWithReason",
      "outputs": [
        {
          "internalType": "uint256",
          "name": "",
          "type": "uint256"
        }
      ],
      "stateMutability": "nonpayable",
      "type": "function"
    },
    {
      "inputs": [
        {
          "internalType": "address[]",
          "name": "targets",
          "type": "address[]"
        },
        {
          "internalType": "uint256[]",
          "name": "values",
          "type": "uint256[]"
        },
        {
          "internalType": "bytes[]",
          "name": "calldatas",
          "type": "bytes[]"
        },
        {
          "internalType": "bytes32",
          "name": "descriptionHash",
          "type": "bytes32"
        }
      ],
      "name": "execute",
      "outputs": [
        {
          "internalType": "uint256",
          "name": "",
          "type": "uint256"
        }
      ],
      "stateMutability": "payable",
      "type": "function"
    },
    {
      "inputs": [
        {
          "internalType": "uint256",
          "name": "proposalId",
          "type": "uint256"
        },
        {
          "internalType": "address",
          "name": "account",
          "type": "address"
        }
      ],
      "name": "hasVoted",
      "outputs": [
        {
          "internalType": "bool",
          "name": "",
          "type": "bool"
        }
      ],
      "stateMutability": "view",
      "type": "function"
    },
    {
      "inputs": [
        {
          "internalType": "address[]",
          "name": "targets",
          "type": "address[]"
        },
        {
          "internalType": "uint256[]",
          "name": "values",
          "type": "uint256[]"
        },
        {
          "internalType": "bytes[]",
          "name": "calldatas",
          "type": "bytes[]"
        },
        {
          "internalType": "bytes32",
          "name": "descriptionHash",
          "type": "bytes32"
        }
      ],
      "name": "hashProposal",
      "outputs": [
        {
          "internalType": "uint256",
          "name": "",
          "type": "uint256"
        }
      ],
      "stateMutability": "pure",
      "type": "function"
    },
    {
      "inputs": [],
      "name": "name",
      "outputs": [
        {
          "internalType": "string",
          "name": "",
          "type": "string"
        }
      ],
      "stateMutability": "view",
      "type": "function"
    },
    {
      "inputs": [
        {
          "internalType": "uint256",
          "name": "proposalId",
          "type": "uint256"
        }
      ],
      "name": "proposalDeadline",
      "outputs": [
        {
          "internalType": "uint256",
          "name": "",
          "type": "uint256"
        }
      ],
      "stateMutability": "view",
      "type": "function"
    },
    {
      "inputs": [
        {
          "internalType": "uint256",
          "name": "proposalId",
          "type": "uint256"
        }
      ],
      "name": "proposalEta",
      "outputs": [
        {
          "internalType": "uint256",
          "name": "",
          "type": "uint256"
        }
      ],
      "stateMutability": "view",
      "type": "function"
    },
    {
      "inputs": [
        {
          "internalType": "uint256",
          "name": "proposalId",
          "type": "uint256"
        }
      ],
      "name": "proposalSnapshot",
      "outputs": [
        {
          "internalType": "uint256",
          "name": "",
          "type": "uint256"
        }
      ],
      "stateMutability": "view",
      "type": "function"
    },
    {
      "inputs": [
        {
          "internalType": "uint256",
          "name": "proposalId",
          "type": "uint256"
        }
      ],
      "name": "proposalVotes",
      "outputs": [
        {
          "internalType": "uint256",
          "name": "againstVotes",
          "type": "uint256"
        },
        {
          "internalType": "uint256",
          "name": "forVotes",
          "type": "uint256"
        },
        {
          "internalType": "uint256",
          "name": "abstainVotes",
          "type": "uint256"
        }
      ],
      "stateMutability": "view",
      "type": "function"
    },
    {
      "inputs": [
        {
          "internalType": "address[]",
          "name": "targets",
          "type": "address[]"
        },
        {
          "internalType": "uint256[]",
          "name": "values",
          "type": "uint256[]"
        },
        {
          "internalType": "bytes[]",
          "name": "calldatas",
          "type": "bytes[]"
        },
        {
          "internalType": "string",
          "name": "description",
          "type": "string"
        }
      ],
      "name": "propose",
      "outputs": [
        {
          "internalType": "uint256",
          "name": "",
          "type": "uint256"
        }
      ],
      "stateMutability": "nonpayable",
      "type": "function"
    },
    {
      "inputs": [
        {
          "internalType": "address[]",
          "name": "targets",
          "type": "address[]"
        },
        {
          "internalType": "uint256[]",
          "name": "values",
          "type": "uint256[]"
        },
        {
          "internalType": "bytes[]",
          "name": "calldatas",
          "type": "bytes[]"
        },
        {
          "internalType": "bytes32",
          "name": "descriptionHash",
          "type": "bytes32"
        }
      ],
      "name": "queue",
      "outputs": [
        {
          "internalType": "uint256",
          "name": "",
          "type": "uint256"
        }
      ],
      "stateMutability": "nonpayable",
      "type": "function"
    },
    {
      "inputs": [],
      "name": "quorumDenominator",
      "outputs": [
        {
          "internalType": "uint256",
          "name": "",
          "type": "uint256"
        }
      ],
      "stateMutability": "view",
      "type": "function"
    },
    {
      "inputs": [],
      "name": "quorumNumerator",
      "outputs": [
        {
          "internalType": "uint256",
          "name": "",
          "type": "uint256"
        }
      ],
      "stateMutability": "view",
      "type": "function"
    },
    {
      "inputs": [],
      "name": "timelock",
      "outputs": [
        {
          "internalType": "address",
          "name": "",
          "type": "address"
        }
      ],
      "stateMutability": "view",
      "type": "function"
    },
    {
      "inputs": [],
      "name": "token",
      "outputs": [
        {
          "internalType": "contract ERC20Votes",
          "name": "",
          "type": "address"
        }
      ],
      "stateMutability": "view",
      "type": "function"
    },
    {
      "inputs": [
        {
          "internalType": "uint256",
          "name": "newQuorumNumerator",
          "type": "uint256"
        }
      ],
      "name": "updateQuorumNumerator",
      "outputs": [],
      "stateMutability": "nonpayable",
      "type": "function"
    },
    {
      "inputs": [
        {
          "internalType": "contract ICompoundTimelock",
          "name": "newTimelock",
          "type": "address"
        }
      ],
      "name": "updateTimelock",
      "outputs": [],
      "stateMutability": "nonpayable",
      "type": "function"
    },
    {
      "inputs": [],
      "name": "version",
      "outputs": [
        {
          "internalType": "string",
          "name": "",
          "type": "string"
        }
      ],
      "stateMutability": "view",
      "type": "function"
    },
    {
      "inputs": [
        {
          "internalType": "bytes4",
          "name": "interfaceId",
          "type": "bytes4"
        }
      ],
      "name": "supportsInterface",
      "outputs": [
        {
          "internalType": "bool",
          "name": "",
          "type": "bool"
        }
      ],
      "stateMutability": "view",
      "type": "function"
    },
    {
      "inputs": [],
      "name": "votingDelay",
      "outputs": [
        {
          "internalType": "uint256",
          "name": "",
          "type": "uint256"
        }
      ],
      "stateMutability": "view",
      "type": "function"
    },
    {
      "inputs": [],
      "name": "votingPeriod",
      "outputs": [
        {
          "internalType": "uint256",
          "name": "",
          "type": "uint256"
        }
      ],
      "stateMutability": "view",
      "type": "function"
    },
    {
      "inputs": [
        {
          "internalType": "uint256",
          "name": "blockNumber",
          "type": "uint256"
        }
      ],
      "name": "quorum",
      "outputs": [
        {
          "internalType": "uint256",
          "name": "",
          "type": "uint256"
        }
      ],
      "stateMutability": "view",
      "type": "function"
    },
    {
      "inputs": [
        {
          "internalType": "address[]",
          "name": "targets",
          "type": "address[]"
        },
        {
          "internalType": "uint256[]",
          "name": "values",
          "type": "uint256[]"
        },
        {
          "internalType": "bytes[]",
          "name": "calldatas",
          "type": "bytes[]"
        },
        {
          "internalType": "bytes32",
          "name": "salt",
          "type": "bytes32"
        }
      ],
      "name": "cancel",
      "outputs": [
        {
          "internalType": "uint256",
          "name": "proposalId",
          "type": "uint256"
        }
      ],
      "stateMutability": "nonpayable",
      "type": "function"
    },
    {
      "inputs": [
        {
          "internalType": "uint256",
          "name": "proposalId",
          "type": "uint256"
        }
      ],
      "name": "state",
      "outputs": [
        {
          "internalType": "enum IGovernor.ProposalState",
          "name": "",
          "type": "uint8"
        }
      ],
      "stateMutability": "view",
      "type": "function"
    },
    {
      "inputs": [
        {
          "internalType": "address",
          "name": "account",
          "type": "address"
        },
        {
          "internalType": "uint256",
          "name": "blockNumber",
          "type": "uint256"
        }
      ],
      "name": "getVotes",
      "outputs": [
        {
          "internalType": "uint256",
          "name": "",
          "type": "uint256"
        }
      ],
      "stateMutability": "view",
      "type": "function"
    }
  ],
  "bytecode": "0x6101806040523480156200001257600080fd5b50604051620032183803806200321883398101604081905262000035916200032e565b8085838880620000596040805180820190915260018152603160f81b602082015290565b815160209283012081519183019190912060c082815260e08290524660a0818152604080517f8b73c3c69bb8fe3d512ecc4cf759cc79239f7b179b0ffacaa9a75d522b39400f818901819052818301979097526060810195909552608080860193909352308583015280518086039092018252939092019092528051908401209052610100528151620000f391600091908401906200026b565b506200010190508162000135565b5060601b6001600160601b031916610120526200011e816200019e565b505050610140919091526101605250620004a09050565b600254604080516001600160a01b03928316815291831660208301527f08f74ea46ef7894f65eabfb5e6e695de773a000b47c529ab559178069b226401910160405180910390a1600280546001600160a01b0319166001600160a01b0392909216919091179055565b6064811115620002265760405162461bcd60e51b815260206004820152604360248201527f476f7665726e6f72566f74657351756f72756d4672616374696f6e3a2071756f60448201527f72756d4e756d657261746f72206f7665722071756f72756d44656e6f6d696e616064820152623a37b960e91b608482015260a40160405180910390fd5b600480549082905560408051828152602081018490527f0553476bf02ef2726e8ce5ced78d63e26e602e4a2257b1f559418e24b4633997910160405180910390a15050565b82805462000279906200044d565b90600052602060002090601f0160209004810192826200029d5760008555620002e8565b82601f10620002b857805160ff1916838001178555620002e8565b82800160010185558215620002e8579182015b82811115620002e8578251825591602001919060010190620002cb565b50620002f6929150620002fa565b5090565b5b80821115620002f65760008155600101620002fb565b80516001600160a01b03811681146200032957600080fd5b919050565b60008060008060008060c087890312156200034857600080fd5b86516001600160401b03808211156200036057600080fd5b818901915089601f8301126200037557600080fd5b8151818111156200038a576200038a6200048a565b604051601f8201601f19908116603f01168101908382118183101715620003b557620003b56200048a565b81604052828152602093508c84848701011115620003d257600080fd5b600091505b82821015620003f65784820184015181830185015290830190620003d7565b82821115620004085760008484830101525b99506200041a91505089820162000311565b9650505060408701519350606087015192506200043a6080880162000311565b915060a087015190509295509295509295565b600181811c908216806200046257607f821691505b602082108114156200048457634e487b7160e01b600052602260045260246000fd5b50919050565b634e487b7160e01b600052604160045260246000fd5b60805160a05160c05160e051610100516101205160601c6101405161016051612cf362000525600039600081816102160152610eed0152600081816102ea0152610ead0152600081816106600152818161160801526116a101526000611954015260006119a30152600061197e015260006119020152600061192b0152612cf36000f3fe6080604052600436106101cd5760003560e01c80637b3c71d3116100f7578063c01f9e3711610095578063deaaa7cc11610064578063deaaa7cc146105da578063eb9019d41461060e578063f8ce560a1461062e578063fc0c546a1461064e57600080fd5b8063c01f9e3714610522578063c59057e414610542578063d33219b414610562578063dd4e2ba51461059457600080fd5b8063a7713a70116100d1578063a7713a70146104b8578063a890c910146104cd578063ab58fb8e146104ed578063b9a619611461050d57600080fd5b80637b3c71d3146104645780637d5e81e21461048457806397c3d334146104a457600080fd5b80633932abb11161016f578063452115d61161013e578063452115d6146103a5578063544ffc9c146103c557806354fd4d501461041a578063567813881461044457600080fd5b80633932abb1146102db5780633bccf4fd1461030e5780633e4f49e61461032e578063438596321461035b57600080fd5b806306fdde03116101ab57806306fdde0314610266578063160cbed7146102885780632656227d146102a85780632d63f693146102bb57600080fd5b806301ffc9a7146101d257806302a251a31461020757806306f3f9e614610244575b600080fd5b3480156101de57600080fd5b506101f26101ed36600461257f565b610682565b60405190151581526020015b60405180910390f35b34801561021357600080fd5b507f00000000000000000000000000000000000000000000000000000000000000005b6040519081526020016101fe565b34801561025057600080fd5b5061026461025f366004612633565b610693565b005b34801561027257600080fd5b5061027b610707565b6040516101fe919061292a565b34801561029457600080fd5b506102366102a33660046123f5565b610799565b6102366102b63660046123f5565b610b40565b3480156102c757600080fd5b506102366102d6366004612633565b610c13565b3480156102e757600080fd5b507f0000000000000000000000000000000000000000000000000000000000000000610236565b34801561031a57600080fd5b5061023661032936600461272e565b610c4a565b34801561033a57600080fd5b5061034e610349366004612633565b610cde565b6040516101fe9190612902565b34801561036757600080fd5b506101f261037636600461264c565b60008281526005602090815260408083206001600160a01b038516845260030190915290205460ff1692915050565b3480156103b157600080fd5b506102366103c03660046123f5565b610ce9565b3480156103d157600080fd5b506103ff6103e0366004612633565b6000908152600560205260409020805460018201546002909201549092565b604080519384526020840192909252908201526060016101fe565b34801561042657600080fd5b506040805180820190915260018152603160f81b602082015261027b565b34801561045057600080fd5b5061023661045f36600461267c565b610d00565b34801561047057600080fd5b5061023661047f3660046126a8565b610d29565b34801561049057600080fd5b5061023661049f366004612484565b610d7b565b3480156104b057600080fd5b506064610236565b3480156104c457600080fd5b50600454610236565b3480156104d957600080fd5b506102646104e8366004612616565b610fd4565b3480156104f957600080fd5b50610236610508366004612633565b611040565b34801561051957600080fd5b5061026461106c565b34801561052e57600080fd5b5061023661053d366004612633565b6110d6565b34801561054e57600080fd5b5061023661055d3660046123f5565b611105565b34801561056e57600080fd5b506002546001600160a01b03165b6040516001600160a01b0390911681526020016101fe565b3480156105a057600080fd5b506040805180820190915260208082527f737570706f72743d627261766f2671756f72756d3d666f722c6162737461696e9082015261027b565b3480156105e657600080fd5b506102367f150214d74d59b7d1e90c73fc22ef3d991dd0a76b046543d4d80ab92d2a50328f81565b34801561061a57600080fd5b506102366106293660046123c9565b61113f565b34801561063a57600080fd5b50610236610649366004612633565b611152565b34801561065a57600080fd5b5061057c7f000000000000000000000000000000000000000000000000000000000000000081565b600061068d8261115d565b92915050565b61069b611182565b6001600160a01b0316336001600160a01b0316146106fb5760405162461bcd60e51b8152602060048201526018602482015277476f7665726e6f723a206f6e6c79476f7665726e616e636560401b60448201526064015b60405180910390fd5b6107048161119b565b50565b60606000805461071690612c00565b80601f016020809104026020016040519081016040528092919081815260200182805461074290612c00565b801561078f5780601f106107645761010080835404028352916020019161078f565b820191906000526020600020905b81548152906001019060200180831161077257829003601f168201915b5050505050905090565b6000806107a886868686611105565b905060046107b582610cde565b60078111156107c6576107c6612c66565b146107e35760405162461bcd60e51b81526004016106f29061297e565b60025460408051630d48571f60e31b815290516000926001600160a01b031691636a42b8f8916004808301926020929190829003018186803b15801561082857600080fd5b505afa15801561083c573d6000803e3d6000fd5b505050506040513d601f19601f820116820180604052508101906108609190612566565b61086a9042612b50565b905061088c61087882611263565b6000848152600360205260409020906112cf565b60005b8751811015610afb5760025488516001600160a01b039091169063f2b06537908a90849081106108c1576108c1612c7c565b60200260200101518984815181106108db576108db612c7c565b60200260200101518985815181106108f5576108f5612c7c565b6020026020010151866040516020016109119493929190612871565b604051602081830303815290604052805190602001206040518263ffffffff1660e01b815260040161094591815260200190565b60206040518083038186803b15801561095d57600080fd5b505afa158015610971573d6000803e3d6000fd5b505050506040513d601f19601f820116820180604052508101906109959190612544565b15610a135760405162461bcd60e51b815260206004820152604260248201527f476f7665726e6f7254696d656c6f636b436f6d706f756e643a206964656e746960448201527f63616c2070726f706f73616c20616374696f6e20616c72656164792071756575606482015261195960f21b608482015260a4016106f2565b60025488516001600160a01b0390911690633a66f901908a9084908110610a3c57610a3c612c7c565b6020026020010151898481518110610a5657610a56612c7c565b6020026020010151898581518110610a7057610a70612c7c565b6020026020010151866040518563ffffffff1660e01b8152600401610a989493929190612871565b602060405180830381600087803b158015610ab257600080fd5b505af1158015610ac6573d6000803e3d6000fd5b505050506040513d601f19601f82011682018060405250810190610aea9190612566565b50610af481612c35565b905061088f565b5060408051838152602081018390527f9a2e42fd6722813d69113e7d0079d3d940171428df7373df9c7f7617cfda289291015b60405180910390a15095945050505050565b600080610b4f86868686611105565b90506000610b5c82610cde565b90506004816007811115610b7257610b72612c66565b1480610b8f57506005816007811115610b8d57610b8d612c66565b145b610bab5760405162461bcd60e51b81526004016106f29061297e565b600082815260016020818152604092839020600201805460ff191690921790915590518381527f712ae1383f79ac853f8d882153778e0260ef8f03b504e2866e0593e04d2b291f910160405180910390a1610c0982888888886112ed565b5095945050505050565b60008181526001602090815260408083208151928301909152546001600160401b0316908190525b6001600160401b031692915050565b604080517f150214d74d59b7d1e90c73fc22ef3d991dd0a76b046543d4d80ab92d2a50328f602082015290810186905260ff851660608201526000908190610cb690610cae9060800160405160208183030381529060405280519060200120611301565b86868661134f565b9050610cd38782886040518060200160405280600081525061136d565b979650505050505050565b600061068d82611478565b6000610cf785858585611568565b95945050505050565b600080339050610d218482856040518060200160405280600081525061136d565b949350505050565b600080339050610d7186828787878080601f01602080910402602001604051908101604052809392919081815260200183838082843760009201919091525061136d92505050565b9695505050505050565b600080610d918686868680519060200120611105565b90508451865114610db45760405162461bcd60e51b81526004016106f29061293d565b8351865114610dd55760405162461bcd60e51b81526004016106f29061293d565b6000865111610e265760405162461bcd60e51b815260206004820152601860248201527f476f7665726e6f723a20656d7074792070726f706f73616c000000000000000060448201526064016106f2565b600081815260016020908152604091829020825191820190925281546001600160401b03169081905215610ea65760405162461bcd60e51b815260206004820152602160248201527f476f7665726e6f723a2070726f706f73616c20616c72656164792065786973746044820152607360f81b60648201526084016106f2565b6000610ed17f0000000000000000000000000000000000000000000000000000000000000000611263565b610eda43611263565b610ee49190612b68565b90506000610f117f0000000000000000000000000000000000000000000000000000000000000000611263565b610f1b9083612b68565b9050610f2783836112cf565b610f3460018401826112cf565b7f7d84a6263ae0d98d3329bd7b46bb4e8d6f98cd35a7adb45c274c8b7fd5ebd5e084338b8b8d516001600160401b03811115610f7257610f72612c92565b604051908082528060200260200182016040528015610fa557816020015b6060815260200190600190039081610f905790505b508c88888e604051610fbf999897969594939291906129bf565b60405180910390a15091979650505050505050565b610fdc611182565b6001600160a01b0316336001600160a01b0316146110375760405162461bcd60e51b8152602060048201526018602482015277476f7665726e6f723a206f6e6c79476f7665726e616e636560401b60448201526064016106f2565b61070481611576565b60008181526003602090815260408083208151928301909152546001600160401b031690819052610c3b565b600260009054906101000a90046001600160a01b03166001600160a01b0316630e18b6816040518163ffffffff1660e01b8152600401600060405180830381600087803b1580156110bc57600080fd5b505af11580156110d0573d6000803e3d6000fd5b50505050565b60008181526001602081815260408084208151928301909152909101546001600160401b031690819052610c3b565b60008484848460405160200161111e94939291906128b7565b60408051601f19818403018152919052805160209091012095945050505050565b600061114b83836115df565b9392505050565b600061068d82611684565b60006001600160e01b03198216636e665ced60e01b148061068d575061068d82611737565b60006111966002546001600160a01b031690565b905090565b606481111561121e5760405162461bcd60e51b815260206004820152604360248201527f476f7665726e6f72566f74657351756f72756d4672616374696f6e3a2071756f60448201527f72756d4e756d657261746f72206f7665722071756f72756d44656e6f6d696e616064820152623a37b960e91b608482015260a4016106f2565b600480549082905560408051828152602081018490527f0553476bf02ef2726e8ce5ced78d63e26e602e4a2257b1f559418e24b4633997910160405180910390a15050565b60006001600160401b038211156112cb5760405162461bcd60e51b815260206004820152602660248201527f53616665436173743a2076616c756520646f65736e27742066697420696e203660448201526534206269747360d01b60648201526084016106f2565b5090565b815467ffffffffffffffff19166001600160401b0391909116179055565b6112fa858585858561176c565b5050505050565b600061068d61130e6118fe565b8360405161190160f01b6020820152602281018390526042810182905260009060620160405160208183030381529060405280519060200120905092915050565b6000806000611360878787876119f1565b91509150610c0981611ade565b600084815260016020819052604082209061138787610cde565b600781111561139857611398612c66565b146113f15760405162461bcd60e51b815260206004820152602360248201527f476f7665726e6f723a20766f7465206e6f742063757272656e746c792061637460448201526269766560e81b60648201526084016106f2565b604080516020810190915281546001600160401b03169081905260009061141990879061113f565b905061142787878784611c99565b856001600160a01b03167fb8e138887d0aa13bab447e82de9d5c1777041ecd21ca36ba824ff1e6c07ddda4888784886040516114669493929190612aae565b60405180910390a29695505050505050565b60008061148483611e18565b9050600481600781111561149a5761149a612c66565b146114a55792915050565b60006114b084611040565b9050806114be575092915050565b600260009054906101000a90046001600160a01b03166001600160a01b031663c1a287e26040518163ffffffff1660e01b815260040160206040518083038186803b15801561150c57600080fd5b505afa158015611520573d6000803e3d6000fd5b505050506040513d601f19601f820116820180604052508101906115449190612566565b61154e9082612b50565b421061155e575060069392505050565b5060059392505050565b6000610cf785858585611f7b565b600254604080516001600160a01b03928316815291831660208301527f08f74ea46ef7894f65eabfb5e6e695de773a000b47c529ab559178069b226401910160405180910390a1600280546001600160a01b0319166001600160a01b0392909216919091179055565b604051630748d63560e31b81526001600160a01b038381166004830152602482018390526000917f000000000000000000000000000000000000000000000000000000000000000090911690633a46b1a89060440160206040518083038186803b15801561164c57600080fd5b505afa158015611660573d6000803e3d6000fd5b505050506040513d601f19601f8201168201806040525081019061114b9190612566565b60006064600454604051632394e7a360e21b8152600481018590527f00000000000000000000000000000000000000000000000000000000000000006001600160a01b031690638e539e8c9060240160206040518083038186803b1580156116eb57600080fd5b505afa1580156116ff573d6000803e3d6000fd5b505050506040513d601f19601f820116820180604052508101906117239190612566565b61172d9190612bb5565b61068d9190612b93565b60006001600160e01b0319821663bf26d89760e01b148061068d57506301ffc9a760e01b6001600160e01b031983161461068d565b600061177786611040565b9050600081116117e35760405162461bcd60e51b815260206004820152603160248201527f476f7665726e6f7254696d656c6f636b436f6d706f756e643a2070726f706f73604482015270185b081b9bdd081e595d081c5d595d5959607a1b60648201526084016106f2565b60005b85518110156118f55760025485516001600160a01b0390911690630825f38f9087908490811061181857611818612c7c565b602002602001015188848151811061183257611832612c7c565b602002602001015188858151811061184c5761184c612c7c565b602002602001015188868151811061186657611866612c7c565b6020026020010151876040518663ffffffff1660e01b815260040161188e9493929190612871565b6000604051808303818588803b1580156118a757600080fd5b505af11580156118bb573d6000803e3d6000fd5b50505050506040513d6000823e601f3d908101601f191682016040526118e491908101906125a9565b506118ee81612c35565b90506117e6565b50505050505050565b60007f000000000000000000000000000000000000000000000000000000000000000046141561194d57507f000000000000000000000000000000000000000000000000000000000000000090565b50604080517f00000000000000000000000000000000000000000000000000000000000000006020808301919091527f0000000000000000000000000000000000000000000000000000000000000000828401527f000000000000000000000000000000000000000000000000000000000000000060608301524660808301523060a0808401919091528351808403909101815260c0909201909252805191012090565b6000807f7fffffffffffffffffffffffffffffff5d576e7357a4501ddfe92f46681b20a0831115611a285750600090506003611ad5565b8460ff16601b14158015611a4057508460ff16601c14155b15611a515750600090506004611ad5565b6040805160008082526020820180845289905260ff881692820192909252606081018690526080810185905260019060a0016020604051602081039080840390855afa158015611aa5573d6000803e3d6000fd5b5050604051601f1901519150506001600160a01b038116611ace57600060019250925050611ad5565b9150600090505b94509492505050565b6000816004811115611af257611af2612c66565b1415611afb5750565b6001816004811115611b0f57611b0f612c66565b1415611b5d5760405162461bcd60e51b815260206004820152601860248201527f45434453413a20696e76616c6964207369676e6174757265000000000000000060448201526064016106f2565b6002816004811115611b7157611b71612c66565b1415611bbf5760405162461bcd60e51b815260206004820152601f60248201527f45434453413a20696e76616c6964207369676e6174757265206c656e6774680060448201526064016106f2565b6003816004811115611bd357611bd3612c66565b1415611c2c5760405162461bcd60e51b815260206004820152602260248201527f45434453413a20696e76616c6964207369676e6174757265202773272076616c604482015261756560f01b60648201526084016106f2565b6004816004811115611c4057611c40612c66565b14156107045760405162461bcd60e51b815260206004820152602260248201527f45434453413a20696e76616c6964207369676e6174757265202776272076616c604482015261756560f01b60648201526084016106f2565b60008481526005602090815260408083206001600160a01b0387168452600381019092529091205460ff1615611d215760405162461bcd60e51b815260206004820152602760248201527f476f7665726e6f72566f74696e6753696d706c653a20766f746520616c726561604482015266191e4818d85cdd60ca1b60648201526084016106f2565b6001600160a01b03841660009081526003820160205260408120805460ff1916600117905560ff168360ff161415611d725781816000016000828254611d679190612b50565b909155506112fa9050565b60ff831660011415611d925781816001016000828254611d679190612b50565b60ff831660021415611db25781816002016000828254611d679190612b50565b60405162461bcd60e51b815260206004820152603560248201527f476f7665726e6f72566f74696e6753696d706c653a20696e76616c69642076616044820152746c756520666f7220656e756d20566f74655479706560581b60648201526084016106f2565b6000818152600160208181526040808420815160a08101835281546001600160401b0390811660808301908152825283518086018552958301541685529283019390935260029092015460ff80821615801594840194909452610100909104161515606082015290611e8d5750600792915050565b806060015115611ea05750600292915050565b805151436001600160401b039091161115611ebe5750600092915050565b602081015151436001600160401b039091161115611edf5750600192915050565b611eec8160200151612096565b15611f2d57611efa836120c5565b8015611f19575060008381526005602052604090208054600190910154115b611f2457600361114b565b60049392505050565b60405162461bcd60e51b815260206004820152601d60248201527f476f7665726e6f723a20756e6b6e6f776e2070726f706f73616c20696400000060448201526064016106f2565b50919050565b600080611f8a868686866120fc565b90506000611f9782611040565b90508015610c095760005b87518110156120735760025488516001600160a01b039091169063591fcdfe908a9084908110611fd457611fd4612c7c565b6020026020010151898481518110611fee57611fee612c7c565b602002602001015189858151811061200857612008612c7c565b6020026020010151866040518563ffffffff1660e01b81526004016120309493929190612871565b600060405180830381600087803b15801561204a57600080fd5b505af115801561205e573d6000803e3d6000fd5b505050508061206c90612c35565b9050611fa2565b506000828152600360205260409020805467ffffffffffffffff19169055610c09565b60006120ab82516001600160401b0316151590565b801561068d57505051436001600160401b03909116111590565b6000818152600560205260408120600281015460018201546120e79190612b50565b6120f361064985610c13565b11159392505050565b60008061210b86868686611105565b9050600061211882610cde565b9050600281600781111561212e5761212e612c66565b1415801561214e5750600681600781111561214b5761214b612c66565b14155b801561216c5750600781600781111561216957612169612c66565b14155b6121b85760405162461bcd60e51b815260206004820152601d60248201527f476f7665726e6f723a2070726f706f73616c206e6f742061637469766500000060448201526064016106f2565b60008281526001602052604090819020600201805461ff001916610100179055517f789cf55be980739dad1d0699b93b58e806b51c9d96619bfa8fe0a28abaa7b30c90610b2e9084815260200190565b600061221b61221684612b29565b612ad6565b905082815283838301111561222f57600080fd5b828260208301376000602084830101529392505050565b600082601f83011261225757600080fd5b8135602061226761221683612b06565b80838252828201915082860187848660051b890101111561228757600080fd5b60005b858110156122af57813561229d81612ca8565b8452928401929084019060010161228a565b5090979650505050505050565b600082601f8301126122cd57600080fd5b813560206122dd61221683612b06565b80838252828201915082860187848660051b89010111156122fd57600080fd5b60005b858110156122af5781356001600160401b0381111561231e57600080fd5b8801603f81018a1361232f57600080fd5b6123408a8783013560408401612208565b8552509284019290840190600101612300565b600082601f83011261236457600080fd5b8135602061237461221683612b06565b80838252828201915082860187848660051b890101111561239457600080fd5b60005b858110156122af57813584529284019290840190600101612397565b803560ff811681146123c457600080fd5b919050565b600080604083850312156123dc57600080fd5b82356123e781612ca8565b946020939093013593505050565b6000806000806080858703121561240b57600080fd5b84356001600160401b038082111561242257600080fd5b61242e88838901612246565b9550602087013591508082111561244457600080fd5b61245088838901612353565b9450604087013591508082111561246657600080fd5b50612473878288016122bc565b949793965093946060013593505050565b6000806000806080858703121561249a57600080fd5b84356001600160401b03808211156124b157600080fd5b6124bd88838901612246565b955060208701359150808211156124d357600080fd5b6124df88838901612353565b945060408701359150808211156124f557600080fd5b612501888389016122bc565b9350606087013591508082111561251757600080fd5b508501601f8101871361252957600080fd5b61253887823560208401612208565b91505092959194509250565b60006020828403121561255657600080fd5b8151801515811461114b57600080fd5b60006020828403121561257857600080fd5b5051919050565b60006020828403121561259157600080fd5b81356001600160e01b03198116811461114b57600080fd5b6000602082840312156125bb57600080fd5b81516001600160401b038111156125d157600080fd5b8201601f810184136125e257600080fd5b80516125f061221682612b29565b81815285602083850101111561260557600080fd5b610cf7826020830160208601612bd4565b60006020828403121561262857600080fd5b813561114b81612ca8565b60006020828403121561264557600080fd5b5035919050565b6000806040838503121561265f57600080fd5b82359150602083013561267181612ca8565b809150509250929050565b6000806040838503121561268f57600080fd5b8235915061269f602084016123b3565b90509250929050565b600080600080606085870312156126be57600080fd5b843593506126ce602086016123b3565b925060408501356001600160401b03808211156126ea57600080fd5b818701915087601f8301126126fe57600080fd5b81358181111561270d57600080fd5b88602082850101111561271f57600080fd5b95989497505060200194505050565b600080600080600060a0868803121561274657600080fd5b85359450612756602087016123b3565b9350612764604087016123b3565b94979396509394606081013594506080013592915050565b600081518084526020808501945080840160005b838110156127b55781516001600160a01b031687529582019590820190600101612790565b509495945050505050565b600081518084526020808501808196508360051b8101915082860160005b858110156128085782840389526127f6848351612845565b988501989350908401906001016127de565b5091979650505050505050565b600081518084526020808501945080840160005b838110156127b557815187529582019590820190600101612829565b6000815180845261285d816020860160208601612bd4565b601f01601f19169290920160200192915050565b60018060a01b038516815283602082015260a06040820152600060a082015260c0606082015260006128a660c0830185612845565b905082608083015295945050505050565b6080815260006128ca608083018761277c565b82810360208401526128dc8187612815565b905082810360408401526128f081866127c0565b91505082606083015295945050505050565b602081016008831061292457634e487b7160e01b600052602160045260246000fd5b91905290565b60208152600061114b6020830184612845565b60208082526021908201527f476f7665726e6f723a20696e76616c69642070726f706f73616c206c656e67746040820152600d60fb1b606082015260800190565b60208082526021908201527f476f7665726e6f723a2070726f706f73616c206e6f74207375636365737366756040820152601b60fa1b606082015260800190565b60006101208b8352602060018060a01b038c16818501528160408501526129e88285018c61277c565b915083820360608501526129fc828b612815565b915083820360808501528189518084528284019150828160051b850101838c0160005b83811015612a4d57601f19878403018552612a3b838351612845565b94860194925090850190600101612a1f565b505086810360a0880152612a61818c6127c0565b945050505050612a7c60c08401876001600160401b03169052565b6001600160401b03851660e0840152828103610100840152612a9e8185612845565b9c9b505050505050505050505050565b84815260ff84166020820152826040820152608060608201526000610d716080830184612845565b604051601f8201601f191681016001600160401b0381118282101715612afe57612afe612c92565b604052919050565b60006001600160401b03821115612b1f57612b1f612c92565b5060051b60200190565b60006001600160401b03821115612b4257612b42612c92565b50601f01601f191660200190565b60008219821115612b6357612b63612c50565b500190565b60006001600160401b03808316818516808303821115612b8a57612b8a612c50565b01949350505050565b600082612bb057634e487b7160e01b600052601260045260246000fd5b500490565b6000816000190483118215151615612bcf57612bcf612c50565b500290565b60005b83811015612bef578181015183820152602001612bd7565b838111156110d05750506000910152565b600181811c90821680612c1457607f821691505b60208210811415611f7557634e487b7160e01b600052602260045260246000fd5b6000600019821415612c4957612c49612c50565b5060010190565b634e487b7160e01b600052601160045260246000fd5b634e487b7160e01b600052602160045260246000fd5b634e487b7160e01b600052603260045260246000fd5b634e487b7160e01b600052604160045260246000fd5b6001600160a01b038116811461070457600080fdfea26469706673582212209af8d6a940d723fddd37da9e2366adb6adc3700812759521511b30d1c58fa29b64736f6c63430008070033",
  "immutableReferences": {
    "4962": [
      {
        "length": 32,
        "start": 1632
      },
      {
        "length": 32,
        "start": 5640
      },
      {
        "length": 32,
        "start": 5793
      }
    ],
    "10249": [
      {
        "length": 32,
        "start": 746
      },
      {
        "length": 32,
        "start": 3757
      }
    ],
    "10251": [
      {
        "length": 32,
        "start": 534
      },
      {
        "length": 32,
        "start": 3821
      }
    ],
    "24185": [
      {
        "length": 32,
        "start": 6443
      }
    ],
    "24187": [
      {
        "length": 32,
        "start": 6402
      }
    ],
    "24189": [
      {
        "length": 32,
        "start": 6526
      }
    ],
    "24191": [
      {
        "length": 32,
        "start": 6563
      }
    ],
    "24193": [
      {
        "length": 32,
        "start": 6484
      }
    ]
  },
  "source": "// SPDX-License-Identifier: MIT\n\npragma solidity ^0.8.0;\n\nimport \"../governance/extensions/GovernorTimelockCompound.sol\";\nimport \"../governance/extensions/GovernorCountingSimple.sol\";\nimport \"../governance/extensions/GovernorVotesQuorumFraction.sol\";\n\ncontract GovernorTimelockCompoundMock is GovernorTimelockCompound, GovernorVotesQuorumFraction, GovernorCountingSimple {\n    uint256 immutable _votingDelay;\n    uint256 immutable _votingPeriod;\n\n    constructor(\n        string memory name_,\n        ERC20Votes token_,\n        uint256 votingDelay_,\n        uint256 votingPeriod_,\n        ICompoundTimelock timelock_,\n        uint256 quorumNumerator_\n    )\n        Governor(name_)\n        GovernorTimelockCompound(timelock_)\n        GovernorVotes(token_)\n        GovernorVotesQuorumFraction(quorumNumerator_)\n    {\n        _votingDelay = votingDelay_;\n        _votingPeriod = votingPeriod_;\n    }\n\n    function supportsInterface(bytes4 interfaceId)\n        public\n        view\n        virtual\n        override(Governor, GovernorTimelockCompound)\n        returns (bool)\n    {\n        return super.supportsInterface(interfaceId);\n    }\n\n    function votingDelay() public view override returns (uint256) {\n        return _votingDelay;\n    }\n\n    function votingPeriod() public view override returns (uint256) {\n        return _votingPeriod;\n    }\n\n    function quorum(uint256 blockNumber)\n        public\n        view\n        override(IGovernor, GovernorVotesQuorumFraction)\n        returns (uint256)\n    {\n        return super.quorum(blockNumber);\n    }\n\n    function cancel(\n        address[] memory targets,\n        uint256[] memory values,\n        bytes[] memory calldatas,\n        bytes32 salt\n    ) public returns (uint256 proposalId) {\n        return _cancel(targets, values, calldatas, salt);\n    }\n\n    /**\n     * Overriding nightmare\n     */\n    function state(uint256 proposalId)\n        public\n        view\n        virtual\n        override(Governor, GovernorTimelockCompound)\n        returns (ProposalState)\n    {\n        return super.state(proposalId);\n    }\n\n    function _execute(\n        uint256 proposalId,\n        address[] memory targets,\n        uint256[] memory values,\n        bytes[] memory calldatas,\n        bytes32 descriptionHash\n    ) internal virtual override(Governor, GovernorTimelockCompound) {\n        super._execute(proposalId, targets, values, calldatas, descriptionHash);\n    }\n\n    function _cancel(\n        address[] memory targets,\n        uint256[] memory values,\n        bytes[] memory calldatas,\n        bytes32 salt\n    ) internal virtual override(Governor, GovernorTimelockCompound) returns (uint256 proposalId) {\n        return super._cancel(targets, values, calldatas, salt);\n    }\n\n    function getVotes(address account, uint256 blockNumber)\n        public\n        view\n        virtual\n        override(IGovernor, GovernorVotes)\n        returns (uint256)\n    {\n        return super.getVotes(account, blockNumber);\n    }\n\n    function _executor() internal view virtual override(Governor, GovernorTimelockCompound) returns (address) {\n        return super._executor();\n    }\n}\n",
  "sourcePath": "/Users/drake/Documents/DEV/PRUF/PRUF_TRUFFLE/contracts/Imports/mocks/GovernorTimelockCompoundMock.sol",
  "compiler": {
    "name": "solc",
    "version": "0.8.7+commit.e28d00a7.Emscripten.clang"
  },
  "schemaVersion": "3.4.3",
  "updatedAt": "2021-10-26T17:58:03.686Z",
  "devdoc": {
    "kind": "dev",
    "methods": {
      "COUNTING_MODE()": {
        "details": "See {IGovernor-COUNTING_MODE}."
      },
      "__acceptAdmin()": {
        "details": "Accept admin right over the timelock."
      },
      "castVote(uint256,uint8)": {
        "details": "See {IGovernor-castVote}."
      },
      "castVoteBySig(uint256,uint8,uint8,bytes32,bytes32)": {
        "details": "See {IGovernor-castVoteBySig}."
      },
      "castVoteWithReason(uint256,uint8,string)": {
        "details": "See {IGovernor-castVoteWithReason}."
      },
      "execute(address[],uint256[],bytes[],bytes32)": {
        "details": "See {IGovernor-execute}."
      },
      "hasVoted(uint256,address)": {
        "details": "See {IGovernor-hasVoted}."
      },
      "hashProposal(address[],uint256[],bytes[],bytes32)": {
        "details": "See {IGovernor-hashProposal}. The proposal id is produced by hashing the RLC encoded `targets` array, the `values` array, the `calldatas` array and the descriptionHash (bytes32 which itself is the keccak256 hash of the description string). This proposal id can be produced from the proposal data which is part of the {ProposalCreated} event. It can even be computed in advance, before the proposal is submitted. Note that the chainId and the governor address are not part of the proposal id computation. Consequently, the same proposal (with same operation and same description) will have the same id if submitted on multiple governors accross multiple networks. This also means that in order to execute the same operation twice (on the same governor) the proposer will have to change the description in order to avoid proposal id conflicts."
      },
      "name()": {
        "details": "See {IGovernor-name}."
      },
      "proposalDeadline(uint256)": {
        "details": "See {IGovernor-proposalDeadline}."
      },
      "proposalEta(uint256)": {
        "details": "Public accessor to check the eta of a queued proposal"
      },
      "proposalSnapshot(uint256)": {
        "details": "See {IGovernor-proposalSnapshot}."
      },
      "proposalVotes(uint256)": {
        "details": "Accessor to the internal vote counts."
      },
      "propose(address[],uint256[],bytes[],string)": {
        "details": "See {IGovernor-propose}."
      },
      "queue(address[],uint256[],bytes[],bytes32)": {
        "details": "Function to queue a proposal to the timelock."
      },
      "timelock()": {
        "details": "Public accessor to check the address of the timelock"
      },
      "updateTimelock(address)": {
        "details": "Public endpoint to update the underlying timelock instance. Restricted to the timelock itself, so updates must be proposed, scheduled and executed using the {Governor} workflow. For security reason, the timelock must be handed over to another admin before setting up a new one. The two operations (hand over the timelock) and do the update can be batched in a single proposal. Note that if the timelock admin has been handed over in a previous operation, we refuse updates made through the timelock if admin of the timelock has already been accepted and the operation is executed outside the scope of governance."
      },
      "version()": {
        "details": "See {IGovernor-version}."
      },
      "votingDelay()": {
        "details": "delay, in number of block, between the proposal is created and the vote starts. This can be increassed to leave time for users to buy voting power, of delegate it, before the voting of a proposal starts."
      },
      "votingPeriod()": {
        "details": "delay, in number of blocks, between the vote start and vote ends. Note: the {votingDelay} can delay the start of the vote. This must be considered when setting the voting duration compared to the voting delay."
      }
    },
    "version": 1
  },
  "userdoc": {
    "kind": "user",
    "methods": {
      "state(uint256)": {
        "notice": "Overriding nightmare"
      },
      "votingDelay()": {
        "notice": "module:user-config"
      },
      "votingPeriod()": {
        "notice": "module:user-config"
      }
    },
    "version": 1
  }
}