{
  "contractName": "GovernorCompatibilityBravoMock",
  "abi": [
    {
      "inputs": [
        {
          "internalType": "string",
          "name": "name_",
          "type": "string"
        },
        {
          "internalType": "contract ERC20VotesComp",
          "name": "token_",
          "type": "address"
        },
        {
          "internalType": "uint256",
          "name": "votingDelay_",
          "type": "uint256"
        },
        {
          "internalType": "uint256",
          "name": "votingPeriod_",
          "type": "uint256"
        },
        {
          "internalType": "uint256",
          "name": "proposalThreshold_",
          "type": "uint256"
        },
        {
          "internalType": "contract ICompoundTimelock",
          "name": "timelock_",
          "type": "address"
        }
      ],
      "stateMutability": "nonpayable",
      "type": "constructor"
    },
    {
      "anonymous": false,
      "inputs": [
        {
          "indexed": false,
          "internalType": "uint256",
          "name": "proposalId",
          "type": "uint256"
        }
      ],
      "name": "ProposalCanceled",
      "type": "event"
    },
    {
      "anonymous": false,
      "inputs": [
        {
          "indexed": false,
          "internalType": "uint256",
          "name": "proposalId",
          "type": "uint256"
        },
        {
          "indexed": false,
          "internalType": "address",
          "name": "proposer",
          "type": "address"
        },
        {
          "indexed": false,
          "internalType": "address[]",
          "name": "targets",
          "type": "address[]"
        },
        {
          "indexed": false,
          "internalType": "uint256[]",
          "name": "values",
          "type": "uint256[]"
        },
        {
          "indexed": false,
          "internalType": "string[]",
          "name": "signatures",
          "type": "string[]"
        },
        {
          "indexed": false,
          "internalType": "bytes[]",
          "name": "calldatas",
          "type": "bytes[]"
        },
        {
          "indexed": false,
          "internalType": "uint256",
          "name": "startBlock",
          "type": "uint256"
        },
        {
          "indexed": false,
          "internalType": "uint256",
          "name": "endBlock",
          "type": "uint256"
        },
        {
          "indexed": false,
          "internalType": "string",
          "name": "description",
          "type": "string"
        }
      ],
      "name": "ProposalCreated",
      "type": "event"
    },
    {
      "anonymous": false,
      "inputs": [
        {
          "indexed": false,
          "internalType": "uint256",
          "name": "proposalId",
          "type": "uint256"
        }
      ],
      "name": "ProposalExecuted",
      "type": "event"
    },
    {
      "anonymous": false,
      "inputs": [
        {
          "indexed": false,
          "internalType": "uint256",
          "name": "proposalId",
          "type": "uint256"
        },
        {
          "indexed": false,
          "internalType": "uint256",
          "name": "eta",
          "type": "uint256"
        }
      ],
      "name": "ProposalQueued",
      "type": "event"
    },
    {
      "anonymous": false,
      "inputs": [
        {
          "indexed": false,
          "internalType": "address",
          "name": "oldTimelock",
          "type": "address"
        },
        {
          "indexed": false,
          "internalType": "address",
          "name": "newTimelock",
          "type": "address"
        }
      ],
      "name": "TimelockChange",
      "type": "event"
    },
    {
      "anonymous": false,
      "inputs": [
        {
          "indexed": true,
          "internalType": "address",
          "name": "voter",
          "type": "address"
        },
        {
          "indexed": false,
          "internalType": "uint256",
          "name": "proposalId",
          "type": "uint256"
        },
        {
          "indexed": false,
          "internalType": "uint8",
          "name": "support",
          "type": "uint8"
        },
        {
          "indexed": false,
          "internalType": "uint256",
          "name": "weight",
          "type": "uint256"
        },
        {
          "indexed": false,
          "internalType": "string",
          "name": "reason",
          "type": "string"
        }
      ],
      "name": "VoteCast",
      "type": "event"
    },
    {
      "inputs": [],
      "name": "BALLOT_TYPEHASH",
      "outputs": [
        {
          "internalType": "bytes32",
          "name": "",
          "type": "bytes32"
        }
      ],
      "stateMutability": "view",
      "type": "function"
    },
    {
      "inputs": [],
      "name": "COUNTING_MODE",
      "outputs": [
        {
          "internalType": "string",
          "name": "",
          "type": "string"
        }
      ],
      "stateMutability": "pure",
      "type": "function"
    },
    {
      "inputs": [],
      "name": "__acceptAdmin",
      "outputs": [],
      "stateMutability": "nonpayable",
      "type": "function"
    },
    {
      "inputs": [
        {
          "internalType": "uint256",
          "name": "proposalId",
          "type": "uint256"
        },
        {
          "internalType": "uint8",
          "name": "support",
          "type": "uint8"
        }
      ],
      "name": "castVote",
      "outputs": [
        {
          "internalType": "uint256",
          "name": "",
          "type": "uint256"
        }
      ],
      "stateMutability": "nonpayable",
      "type": "function"
    },
    {
      "inputs": [
        {
          "internalType": "uint256",
          "name": "proposalId",
          "type": "uint256"
        },
        {
          "internalType": "uint8",
          "name": "support",
          "type": "uint8"
        },
        {
          "internalType": "uint8",
          "name": "v",
          "type": "uint8"
        },
        {
          "internalType": "bytes32",
          "name": "r",
          "type": "bytes32"
        },
        {
          "internalType": "bytes32",
          "name": "s",
          "type": "bytes32"
        }
      ],
      "name": "castVoteBySig",
      "outputs": [
        {
          "internalType": "uint256",
          "name": "",
          "type": "uint256"
        }
      ],
      "stateMutability": "nonpayable",
      "type": "function"
    },
    {
      "inputs": [
        {
          "internalType": "uint256",
          "name": "proposalId",
          "type": "uint256"
        },
        {
          "internalType": "uint8",
          "name": "support",
          "type": "uint8"
        },
        {
          "internalType": "string",
          "name": "reason",
          "type": "string"
        }
      ],
      "name": "castVoteWithReason",
      "outputs": [
        {
          "internalType": "uint256",
          "name": "",
          "type": "uint256"
        }
      ],
      "stateMutability": "nonpayable",
      "type": "function"
    },
    {
      "inputs": [
        {
          "internalType": "uint256",
          "name": "proposalId",
          "type": "uint256"
        }
      ],
      "name": "getActions",
      "outputs": [
        {
          "internalType": "address[]",
          "name": "targets",
          "type": "address[]"
        },
        {
          "internalType": "uint256[]",
          "name": "values",
          "type": "uint256[]"
        },
        {
          "internalType": "string[]",
          "name": "signatures",
          "type": "string[]"
        },
        {
          "internalType": "bytes[]",
          "name": "calldatas",
          "type": "bytes[]"
        }
      ],
      "stateMutability": "view",
      "type": "function"
    },
    {
      "inputs": [
        {
          "internalType": "uint256",
          "name": "proposalId",
          "type": "uint256"
        },
        {
          "internalType": "address",
          "name": "voter",
          "type": "address"
        }
      ],
      "name": "getReceipt",
      "outputs": [
        {
          "components": [
            {
              "internalType": "bool",
              "name": "hasVoted",
              "type": "bool"
            },
            {
              "internalType": "uint8",
              "name": "support",
              "type": "uint8"
            },
            {
              "internalType": "uint96",
              "name": "votes",
              "type": "uint96"
            }
          ],
          "internalType": "struct IGovernorCompatibilityBravo.Receipt",
          "name": "",
          "type": "tuple"
        }
      ],
      "stateMutability": "view",
      "type": "function"
    },
    {
      "inputs": [
        {
          "internalType": "uint256",
          "name": "proposalId",
          "type": "uint256"
        },
        {
          "internalType": "address",
          "name": "account",
          "type": "address"
        }
      ],
      "name": "hasVoted",
      "outputs": [
        {
          "internalType": "bool",
          "name": "",
          "type": "bool"
        }
      ],
      "stateMutability": "view",
      "type": "function"
    },
    {
      "inputs": [
        {
          "internalType": "address[]",
          "name": "targets",
          "type": "address[]"
        },
        {
          "internalType": "uint256[]",
          "name": "values",
          "type": "uint256[]"
        },
        {
          "internalType": "bytes[]",
          "name": "calldatas",
          "type": "bytes[]"
        },
        {
          "internalType": "bytes32",
          "name": "descriptionHash",
          "type": "bytes32"
        }
      ],
      "name": "hashProposal",
      "outputs": [
        {
          "internalType": "uint256",
          "name": "",
          "type": "uint256"
        }
      ],
      "stateMutability": "pure",
      "type": "function"
    },
    {
      "inputs": [],
      "name": "name",
      "outputs": [
        {
          "internalType": "string",
          "name": "",
          "type": "string"
        }
      ],
      "stateMutability": "view",
      "type": "function"
    },
    {
      "inputs": [
        {
          "internalType": "uint256",
          "name": "proposalId",
          "type": "uint256"
        }
      ],
      "name": "proposalDeadline",
      "outputs": [
        {
          "internalType": "uint256",
          "name": "",
          "type": "uint256"
        }
      ],
      "stateMutability": "view",
      "type": "function"
    },
    {
      "inputs": [
        {
          "internalType": "uint256",
          "name": "proposalId",
          "type": "uint256"
        }
      ],
      "name": "proposalSnapshot",
      "outputs": [
        {
          "internalType": "uint256",
          "name": "",
          "type": "uint256"
        }
      ],
      "stateMutability": "view",
      "type": "function"
    },
    {
      "inputs": [
        {
          "internalType": "uint256",
          "name": "proposalId",
          "type": "uint256"
        }
      ],
      "name": "proposals",
      "outputs": [
        {
          "internalType": "uint256",
          "name": "id",
          "type": "uint256"
        },
        {
          "internalType": "address",
          "name": "proposer",
          "type": "address"
        },
        {
          "internalType": "uint256",
          "name": "eta",
          "type": "uint256"
        },
        {
          "internalType": "uint256",
          "name": "startBlock",
          "type": "uint256"
        },
        {
          "internalType": "uint256",
          "name": "endBlock",
          "type": "uint256"
        },
        {
          "internalType": "uint256",
          "name": "forVotes",
          "type": "uint256"
        },
        {
          "internalType": "uint256",
          "name": "againstVotes",
          "type": "uint256"
        },
        {
          "internalType": "uint256",
          "name": "abstainVotes",
          "type": "uint256"
        },
        {
          "internalType": "bool",
          "name": "canceled",
          "type": "bool"
        },
        {
          "internalType": "bool",
          "name": "executed",
          "type": "bool"
        }
      ],
      "stateMutability": "view",
      "type": "function"
    },
    {
      "inputs": [],
      "name": "quorumVotes",
      "outputs": [
        {
          "internalType": "uint256",
          "name": "",
          "type": "uint256"
        }
      ],
      "stateMutability": "view",
      "type": "function"
    },
    {
      "inputs": [],
      "name": "timelock",
      "outputs": [
        {
          "internalType": "address",
          "name": "",
          "type": "address"
        }
      ],
      "stateMutability": "view",
      "type": "function"
    },
    {
      "inputs": [],
      "name": "token",
      "outputs": [
        {
          "internalType": "contract ERC20VotesComp",
          "name": "",
          "type": "address"
        }
      ],
      "stateMutability": "view",
      "type": "function"
    },
    {
      "inputs": [
        {
          "internalType": "contract ICompoundTimelock",
          "name": "newTimelock",
          "type": "address"
        }
      ],
      "name": "updateTimelock",
      "outputs": [],
      "stateMutability": "nonpayable",
      "type": "function"
    },
    {
      "inputs": [],
      "name": "version",
      "outputs": [
        {
          "internalType": "string",
          "name": "",
          "type": "string"
        }
      ],
      "stateMutability": "view",
      "type": "function"
    },
    {
      "inputs": [
        {
          "internalType": "bytes4",
          "name": "interfaceId",
          "type": "bytes4"
        }
      ],
      "name": "supportsInterface",
      "outputs": [
        {
          "internalType": "bool",
          "name": "",
          "type": "bool"
        }
      ],
      "stateMutability": "view",
      "type": "function"
    },
    {
      "inputs": [],
      "name": "votingDelay",
      "outputs": [
        {
          "internalType": "uint256",
          "name": "",
          "type": "uint256"
        }
      ],
      "stateMutability": "view",
      "type": "function"
    },
    {
      "inputs": [],
      "name": "votingPeriod",
      "outputs": [
        {
          "internalType": "uint256",
          "name": "",
          "type": "uint256"
        }
      ],
      "stateMutability": "view",
      "type": "function"
    },
    {
      "inputs": [],
      "name": "proposalThreshold",
      "outputs": [
        {
          "internalType": "uint256",
          "name": "",
          "type": "uint256"
        }
      ],
      "stateMutability": "view",
      "type": "function"
    },
    {
      "inputs": [
        {
          "internalType": "uint256",
          "name": "",
          "type": "uint256"
        }
      ],
      "name": "quorum",
      "outputs": [
        {
          "internalType": "uint256",
          "name": "",
          "type": "uint256"
        }
      ],
      "stateMutability": "pure",
      "type": "function"
    },
    {
      "inputs": [
        {
          "internalType": "uint256",
          "name": "proposalId",
          "type": "uint256"
        }
      ],
      "name": "state",
      "outputs": [
        {
          "internalType": "enum IGovernor.ProposalState",
          "name": "",
          "type": "uint8"
        }
      ],
      "stateMutability": "view",
      "type": "function"
    },
    {
      "inputs": [
        {
          "internalType": "uint256",
          "name": "proposalId",
          "type": "uint256"
        }
      ],
      "name": "proposalEta",
      "outputs": [
        {
          "internalType": "uint256",
          "name": "",
          "type": "uint256"
        }
      ],
      "stateMutability": "view",
      "type": "function"
    },
    {
      "inputs": [
        {
          "internalType": "address[]",
          "name": "targets",
          "type": "address[]"
        },
        {
          "internalType": "uint256[]",
          "name": "values",
          "type": "uint256[]"
        },
        {
          "internalType": "bytes[]",
          "name": "calldatas",
          "type": "bytes[]"
        },
        {
          "internalType": "string",
          "name": "description",
          "type": "string"
        }
      ],
      "name": "propose",
      "outputs": [
        {
          "internalType": "uint256",
          "name": "",
          "type": "uint256"
        }
      ],
      "stateMutability": "nonpayable",
      "type": "function"
    },
    {
      "inputs": [
        {
          "internalType": "address[]",
          "name": "targets",
          "type": "address[]"
        },
        {
          "internalType": "uint256[]",
          "name": "values",
          "type": "uint256[]"
        },
        {
          "internalType": "string[]",
          "name": "signatures",
          "type": "string[]"
        },
        {
          "internalType": "bytes[]",
          "name": "calldatas",
          "type": "bytes[]"
        },
        {
          "internalType": "string",
          "name": "description",
          "type": "string"
        }
      ],
      "name": "propose",
      "outputs": [
        {
          "internalType": "uint256",
          "name": "",
          "type": "uint256"
        }
      ],
      "stateMutability": "nonpayable",
      "type": "function"
    },
    {
      "inputs": [
        {
          "internalType": "address[]",
          "name": "targets",
          "type": "address[]"
        },
        {
          "internalType": "uint256[]",
          "name": "values",
          "type": "uint256[]"
        },
        {
          "internalType": "bytes[]",
          "name": "calldatas",
          "type": "bytes[]"
        },
        {
          "internalType": "bytes32",
          "name": "salt",
          "type": "bytes32"
        }
      ],
      "name": "queue",
      "outputs": [
        {
          "internalType": "uint256",
          "name": "",
          "type": "uint256"
        }
      ],
      "stateMutability": "nonpayable",
      "type": "function"
    },
    {
      "inputs": [
        {
          "internalType": "uint256",
          "name": "proposalId",
          "type": "uint256"
        }
      ],
      "name": "queue",
      "outputs": [],
      "stateMutability": "nonpayable",
      "type": "function"
    },
    {
      "inputs": [
        {
          "internalType": "address[]",
          "name": "targets",
          "type": "address[]"
        },
        {
          "internalType": "uint256[]",
          "name": "values",
          "type": "uint256[]"
        },
        {
          "internalType": "bytes[]",
          "name": "calldatas",
          "type": "bytes[]"
        },
        {
          "internalType": "bytes32",
          "name": "salt",
          "type": "bytes32"
        }
      ],
      "name": "execute",
      "outputs": [
        {
          "internalType": "uint256",
          "name": "",
          "type": "uint256"
        }
      ],
      "stateMutability": "payable",
      "type": "function"
    },
    {
      "inputs": [
        {
          "internalType": "uint256",
          "name": "proposalId",
          "type": "uint256"
        }
      ],
      "name": "execute",
      "outputs": [],
      "stateMutability": "payable",
      "type": "function"
    },
    {
      "inputs": [
        {
          "internalType": "uint256",
          "name": "proposalId",
          "type": "uint256"
        }
      ],
      "name": "cancel",
      "outputs": [],
      "stateMutability": "nonpayable",
      "type": "function"
    },
    {
      "inputs": [
        {
          "internalType": "address[]",
          "name": "targets",
          "type": "address[]"
        },
        {
          "internalType": "uint256[]",
          "name": "values",
          "type": "uint256[]"
        },
        {
          "internalType": "bytes[]",
          "name": "calldatas",
          "type": "bytes[]"
        },
        {
          "internalType": "bytes32",
          "name": "salt",
          "type": "bytes32"
        }
      ],
      "name": "cancel",
      "outputs": [
        {
          "internalType": "uint256",
          "name": "proposalId",
          "type": "uint256"
        }
      ],
      "stateMutability": "nonpayable",
      "type": "function"
    },
    {
      "inputs": [
        {
          "internalType": "address",
          "name": "account",
          "type": "address"
        },
        {
          "internalType": "uint256",
          "name": "blockNumber",
          "type": "uint256"
        }
      ],
      "name": "getVotes",
      "outputs": [
        {
          "internalType": "uint256",
          "name": "",
          "type": "uint256"
        }
      ],
      "stateMutability": "view",
      "type": "function"
    }
  ],
  "bytecode": "0x6101a06040523480156200001257600080fd5b50604051620044bf380380620044bf833981016040819052620000359162000257565b84818780620000586040805180820190915260018152603160f81b602082015290565b815160209283012081519183019190912060c082815260e08290524660a0818152604080517f8b73c3c69bb8fe3d512ecc4cf759cc79239f7b179b0ffacaa9a75d522b39400f818901819052818301979097526060810195909552608080860193909352308583015280518086039092018252939092019092528051908401209052610100528151620000f2916000919084019062000194565b50620001009050816200012b565b5060601b6001600160601b031916610120525061014092909252610160526101805250620003c99050565b600354604080516001600160a01b03928316815291831660208301527f08f74ea46ef7894f65eabfb5e6e695de773a000b47c529ab559178069b226401910160405180910390a1600380546001600160a01b0319166001600160a01b0392909216919091179055565b828054620001a29062000376565b90600052602060002090601f016020900481019282620001c6576000855562000211565b82601f10620001e157805160ff191683800117855562000211565b8280016001018555821562000211579182015b8281111562000211578251825591602001919060010190620001f4565b506200021f92915062000223565b5090565b5b808211156200021f576000815560010162000224565b80516001600160a01b03811681146200025257600080fd5b919050565b60008060008060008060c087890312156200027157600080fd5b86516001600160401b03808211156200028957600080fd5b818901915089601f8301126200029e57600080fd5b815181811115620002b357620002b3620003b3565b604051601f8201601f19908116603f01168101908382118183101715620002de57620002de620003b3565b81604052828152602093508c84848701011115620002fb57600080fd5b600091505b828210156200031f578482018401518183018501529083019062000300565b82821115620003315760008484830101525b9950620003439150508982016200023a565b965050506040870151935060608701519250608087015191506200036a60a088016200023a565b90509295509295509295565b600181811c908216806200038b57607f821691505b60208210811415620003ad57634e487b7160e01b600052602260045260246000fd5b50919050565b634e487b7160e01b600052604160045260246000fd5b60805160a05160c05160e051610100516101205160601c61014051610160516101805161405f620004606000396000818161059001528181610d600152612af60152600081816102c3015261307e0152600081816103ba015261303e01526000818161081201526121d201526000612387015260006123d6015260006123b1015260006123350152600061235e015261405f6000f3fe6080604052600436106102045760003560e01c80637b3c71d311610118578063da95691a116100a0578063e23a9a521161006f578063e23a9a52146106f5578063eb9019d4146107bf578063f8ce560a146107df578063fc0c546a14610800578063fe0d94c11461083457600080fd5b8063da95691a1461063b578063dd4e2ba51461065b578063ddf0b009146106a1578063deaaa7cc146106c157600080fd5b8063b58131b0116100e7578063b58131b014610581578063b9a61961146105b4578063c01f9e37146105c9578063c59057e4146105e9578063d33219b41461060957600080fd5b80637b3c71d3146105015780637d5e81e214610521578063a890c91014610541578063ab58fb8e1461056157600080fd5b8063328dd9821161019b57806340e58ee51161016a57806340e58ee51461042b578063438596321461044d578063452115d61461049757806354fd4d50146104b757806356781388146104e157600080fd5b8063328dd9821461037b5780633932abb1146103ab5780633bccf4fd146103de5780633e4f49e6146103fe57600080fd5b8063160cbed7116101d7578063160cbed71461031357806324bc1a64146103335780632656227d146103485780632d63f6931461035b57600080fd5b8063013cf08b1461020957806301ffc9a71461028457806302a251a3146102b457806306fdde03146102f1575b600080fd5b34801561021557600080fd5b50610229610224366004613948565b610847565b604080519a8b526001600160a01b0390991660208b0152978901969096526060880194909452608087019290925260a086015260c085015260e084015215156101008301521515610120820152610140015b60405180910390f35b34801561029057600080fd5b506102a461029f366004613894565b6108f0565b604051901515815260200161027b565b3480156102c057600080fd5b507f00000000000000000000000000000000000000000000000000000000000000005b60405190815260200161027b565b3480156102fd57600080fd5b50610306610901565b60405161027b9190613ce4565b34801561031f57600080fd5b506102e361032e36600461364d565b610993565b34801561033f57600080fd5b506102e36109aa565b6102e361035636600461364d565b6109bf565b34801561036757600080fd5b506102e3610376366004613948565b6109cd565b34801561038757600080fd5b5061039b610396366004613948565b610a04565b60405161027b9493929190613c97565b3480156103b757600080fd5b507f00000000000000000000000000000000000000000000000000000000000000006102e3565b3480156103ea57600080fd5b506102e36103f9366004613a43565b610c95565b34801561040a57600080fd5b5061041e610419366004613948565b610d29565b60405161027b9190613cf7565b34801561043757600080fd5b5061044b610446366004613948565b610d34565b005b34801561045957600080fd5b506102a4610468366004613961565b60008281526002602090815260408083206001600160a01b038516845260080190915290205460ff1692915050565b3480156104a357600080fd5b506102e36104b236600461364d565b61106a565b3480156104c357600080fd5b506040805180820190915260018152603160f81b6020820152610306565b3480156104ed57600080fd5b506102e36104fc366004613991565b611078565b34801561050d57600080fd5b506102e361051c3660046139bd565b6110a1565b34801561052d57600080fd5b506102e361053c3660046136dc565b6110f3565b34801561054d57600080fd5b5061044b61055c36600461392b565b611101565b34801561056d57600080fd5b506102e361057c366004613948565b611175565b34801561058d57600080fd5b507f00000000000000000000000000000000000000000000000000000000000000006102e3565b3480156105c057600080fd5b5061044b611180565b3480156105d557600080fd5b506102e36105e4366004613948565b6111ea565b3480156105f557600080fd5b506102e361060436600461364d565b611219565b34801561061557600080fd5b506003546001600160a01b03165b6040516001600160a01b03909116815260200161027b565b34801561064757600080fd5b506102e3610656366004613788565b611253565b34801561066757600080fd5b5060408051808201909152601a81527f737570706f72743d627261766f2671756f72756d3d627261766f0000000000006020820152610306565b3480156106ad57600080fd5b5061044b6106bc366004613948565b611278565b3480156106cd57600080fd5b506102e37f150214d74d59b7d1e90c73fc22ef3d991dd0a76b046543d4d80ab92d2a50328f81565b34801561070157600080fd5b5061078f610710366004613961565b60408051606081018252600080825260208201819052918101919091525060009182526002602090815260408084206001600160a01b0393909316845260089092018152918190208151606081018352905460ff8082161515835261010082041693820193909352620100009092046001600160601b03169082015290565b6040805182511515815260208084015160ff1690820152918101516001600160601b03169082015260600161027b565b3480156107cb57600080fd5b506102e36107da366004613621565b6114e6565b3480156107eb57600080fd5b506102e36107fa366004613948565b50600090565b34801561080c57600080fd5b506106237f000000000000000000000000000000000000000000000000000000000000000081565b61044b610842366004613948565b6114f9565b806000808080808080808061085b8a611175565b97506108668b6109cd565b96506108718b6111ea565b60008c815260026020526040812080546005820154600683015460078401546001600160a01b039093169e50949a5098509296509194506108b18d610d29565b905060028160078111156108c7576108c7613fd2565b14935060078160078111156108de576108de613fd2565b14925050509193959799509193959799565b60006108fb82611767565b92915050565b60606000805461091090613f6c565b80601f016020809104026020016040519081016040528092919081815260200182805461093c90613f6c565b80156109895780601f1061095e57610100808354040283529160200191610989565b820191906000526020600020905b81548152906001019060200180831161096c57829003601f168201915b5050505050905090565b60006109a18585858561178c565b95945050505050565b60006109ba6107fa600143613f29565b905090565b60006109a185858585611b33565b60008181526001602090815260408083208151928301909152546001600160401b0316908190525b6001600160401b031692915050565b60608060608060006002600087815260200190815260200160002090508060010181600201826003018360040183805480602002602001604051908101604052809291908181526020018280548015610a8657602002820191906000526020600020905b81546001600160a01b03168152600190910190602001808311610a68575b5050505050935082805480602002602001604051908101604052809291908181526020018280548015610ad857602002820191906000526020600020905b815481526020019060010190808311610ac4575b5050505050925081805480602002602001604051908101604052809291908181526020016000905b82821015610bac578382906000526020600020018054610b1f90613f6c565b80601f0160208091040260200160405190810160405280929190818152602001828054610b4b90613f6c565b8015610b985780601f10610b6d57610100808354040283529160200191610b98565b820191906000526020600020905b815481529060010190602001808311610b7b57829003601f168201915b505050505081526020019060010190610b00565b50505050915080805480602002602001604051908101604052809291908181526020016000905b82821015610c7f578382906000526020600020018054610bf290613f6c565b80601f0160208091040260200160405190810160405280929190818152602001828054610c1e90613f6c565b8015610c6b5780601f10610c4057610100808354040283529160200191610c6b565b820191906000526020600020905b815481529060010190602001808311610c4e57829003601f168201915b505050505081526020019060010190610bd3565b5050505090509450945094509450509193509193565b604080517f150214d74d59b7d1e90c73fc22ef3d991dd0a76b046543d4d80ab92d2a50328f602082015290810186905260ff851660608201526000908190610d0190610cf99060800160405160208183030381529060405280519060200120611c06565b868686611c54565b9050610d1e87828860405180602001604052806000815250611c72565b979650505050505050565b60006108fb82611d7d565b600081815260026020526040902080546001600160a01b0316336001600160a01b03161480610d9b57507f00000000000000000000000000000000000000000000000000000000000000008154610d99906001600160a01b03166107da600143613f29565b105b610dfc5760405162461bcd60e51b815260206004820152602760248201527f476f7665726e6f72427261766f3a2070726f706f7365722061626f76652074686044820152661c995cda1bdb1960ca1b60648201526084015b60405180910390fd5b61106581600101805480602002602001604051908101604052809291908181526020018280548015610e5757602002820191906000526020600020905b81546001600160a01b03168152600190910190602001808311610e39575b505050505082600201805480602002602001604051908101604052809291908181526020018280548015610eaa57602002820191906000526020600020905b815481526020019060010190808311610e96575b505050505061105b84600301805480602002602001604051908101604052809291908181526020016000905b82821015610f82578382906000526020600020018054610ef590613f6c565b80601f0160208091040260200160405190810160405280929190818152602001828054610f2190613f6c565b8015610f6e5780601f10610f4357610100808354040283529160200191610f6e565b820191906000526020600020905b815481529060010190602001808311610f5157829003601f168201915b505050505081526020019060010190610ed6565b50505060048701805460408051602080840282018101909252828152935060009084015b82821015611052578382906000526020600020018054610fc590613f6c565b80601f0160208091040260200160405190810160405280929190818152602001828054610ff190613f6c565b801561103e5780601f106110135761010080835404028352916020019161103e565b820191906000526020600020905b81548152906001019060200180831161102157829003601f168201915b505050505081526020019060010190610fa6565b50505050611e6d565b8460090154611fcd565b505050565b60006109a185858585611fcd565b60008033905061109984828560405180602001604052806000815250611c72565b949350505050565b6000803390506110e986828787878080601f016020809104026020016040519081016040528093929190818152602001838380828437600092019190915250611c7292505050565b9695505050505050565b60006109a185858585611fdb565b611109612043565b6001600160a01b0316336001600160a01b0316146111695760405162461bcd60e51b815260206004820152601860248201527f476f7665726e6f723a206f6e6c79476f7665726e616e636500000000000000006044820152606401610df3565b61117281612057565b50565b60006108fb826120c0565b600360009054906101000a90046001600160a01b03166001600160a01b0316630e18b6816040518163ffffffff1660e01b8152600401600060405180830381600087803b1580156111d057600080fd5b505af11580156111e4573d6000803e3d6000fd5b50505050565b60008181526001602081815260408084208151928301909152909101546001600160401b0316908190526109f5565b6000848484846040516020016112329493929190613c4c565b60408051601f19818403018152919052805160209091012095945050505050565b60006112633387878787876120ec565b6110e986866112728787611e6d565b856110f3565b6000818152600260209081526040918290206001810180548451818502810185019095528085529193611065939092908301828280156112e157602002820191906000526020600020905b81546001600160a01b031681526001909101906020018083116112c3575b50505050508260020180548060200260200160405190810160405280929190818152602001828054801561133457602002820191906000526020600020905b815481526020019060010190808311611320575b50505050506114dc84600301805480602002602001604051908101604052809291908181526020016000905b8282101561140c57838290600052602060002001805461137f90613f6c565b80601f01602080910402602001604051908101604052809291908181526020018280546113ab90613f6c565b80156113f85780601f106113cd576101008083540402835291602001916113f8565b820191906000526020600020905b8154815290600101906020018083116113db57829003601f168201915b505050505081526020019060010190611360565b50505060048701805460408051602080840282018101909252828152935060009084015b8282101561105257838290600052602060002001805461144f90613f6c565b80601f016020809104026020016040519081016040528092919081815260200182805461147b90613f6c565b80156114c85780601f1061149d576101008083540402835291602001916114c8565b820191906000526020600020905b8154815290600101906020018083116114ab57829003601f168201915b505050505081526020019060010190611430565b8460090154610993565b60006114f283836121a9565b9392505050565b60008181526002602090815260409182902060018101805484518185028101850190955280855291936110659390929083018282801561156257602002820191906000526020600020905b81546001600160a01b03168152600190910190602001808311611544575b5050505050826002018054806020026020016040519081016040528092919081815260200182805480156115b557602002820191906000526020600020905b8154815260200190600101908083116115a1575b505050505061175d84600301805480602002602001604051908101604052809291908181526020016000905b8282101561168d57838290600052602060002001805461160090613f6c565b80601f016020809104026020016040519081016040528092919081815260200182805461162c90613f6c565b80156116795780601f1061164e57610100808354040283529160200191611679565b820191906000526020600020905b81548152906001019060200180831161165c57829003601f168201915b5050505050815260200190600101906115e1565b50505060048701805460408051602080840282018101909252828152935060009084015b828210156110525783829060005260206000200180546116d090613f6c565b80601f01602080910402602001604051908101604052809291908181526020018280546116fc90613f6c565b80156117495780601f1061171e57610100808354040283529160200191611749565b820191906000526020600020905b81548152906001019060200180831161172c57829003601f168201915b5050505050815260200190600101906116b1565b84600901546109bf565b60006001600160e01b03198216636e665ced60e01b14806108fb57506108fb8261225e565b60008061179b86868686611219565b905060046117a882610d29565b60078111156117b9576117b9613fd2565b146117d65760405162461bcd60e51b8152600401610df390613d60565b60035460408051630d48571f60e31b815290516000926001600160a01b031691636a42b8f8916004808301926020929190829003018186803b15801561181b57600080fd5b505afa15801561182f573d6000803e3d6000fd5b505050506040513d601f19601f82011682018060405250810190611853919061387b565b61185d9042613ee6565b905061187f61186b82612293565b6000848152600460205260409020906122ff565b60005b8751811015611aee5760035488516001600160a01b039091169063f2b06537908a90849081106118b4576118b4613fe8565b60200260200101518984815181106118ce576118ce613fe8565b60200260200101518985815181106118e8576118e8613fe8565b6020026020010151866040516020016119049493929190613c06565b604051602081830303815290604052805190602001206040518263ffffffff1660e01b815260040161193891815260200190565b60206040518083038186803b15801561195057600080fd5b505afa158015611964573d6000803e3d6000fd5b505050506040513d601f19601f820116820180604052508101906119889190613859565b15611a065760405162461bcd60e51b815260206004820152604260248201527f476f7665726e6f7254696d656c6f636b436f6d706f756e643a206964656e746960448201527f63616c2070726f706f73616c20616374696f6e20616c72656164792071756575606482015261195960f21b608482015260a401610df3565b60035488516001600160a01b0390911690633a66f901908a9084908110611a2f57611a2f613fe8565b6020026020010151898481518110611a4957611a49613fe8565b6020026020010151898581518110611a6357611a63613fe8565b6020026020010151866040518563ffffffff1660e01b8152600401611a8b9493929190613c06565b602060405180830381600087803b158015611aa557600080fd5b505af1158015611ab9573d6000803e3d6000fd5b505050506040513d601f19601f82011682018060405250810190611add919061387b565b50611ae781613fa1565b9050611882565b5060408051838152602081018390527f9a2e42fd6722813d69113e7d0079d3d940171428df7373df9c7f7617cfda289291015b60405180910390a15095945050505050565b600080611b4286868686611219565b90506000611b4f82610d29565b90506004816007811115611b6557611b65613fd2565b1480611b8257506005816007811115611b8057611b80613fd2565b145b611b9e5760405162461bcd60e51b8152600401610df390613d60565b600082815260016020818152604092839020600201805460ff191690921790915590518381527f712ae1383f79ac853f8d882153778e0260ef8f03b504e2866e0593e04d2b291f910160405180910390a1611bfc828888888861231d565b5095945050505050565b60006108fb611c13612331565b8360405161190160f01b6020820152602281018390526042810182905260009060620160405160208183030381529060405280519060200120905092915050565b6000806000611c6587878787612424565b91509150611bfc81612511565b6000848152600160208190526040822090611c8c87610d29565b6007811115611c9d57611c9d613fd2565b14611cf65760405162461bcd60e51b815260206004820152602360248201527f476f7665726e6f723a20766f7465206e6f742063757272656e746c792061637460448201526269766560e81b6064820152608401610df3565b604080516020810190915281546001600160401b031690819052600090611d1e9087906114e6565b9050611d2c878787846126cc565b856001600160a01b03167fb8e138887d0aa13bab447e82de9d5c1777041ecd21ca36ba824ff1e6c07ddda488878488604051611d6b9493929190613e44565b60405180910390a29695505050505050565b600080611d8983612871565b90506004816007811115611d9f57611d9f613fd2565b14611daa5792915050565b6000611db584611175565b905080611dc3575092915050565b600360009054906101000a90046001600160a01b03166001600160a01b031663c1a287e26040518163ffffffff1660e01b815260040160206040518083038186803b158015611e1157600080fd5b505afa158015611e25573d6000803e3d6000fd5b505050506040513d601f19601f82011682018060405250810190611e49919061387b565b611e539082613ee6565b4210611e63575060069392505050565b5060059392505050565b6060600082516001600160401b03811115611e8a57611e8a613ffe565b604051908082528060200260200182016040528015611ebd57816020015b6060815260200190600190039081611ea85790505b50905060005b8451811015611fc557848181518110611ede57611ede613fe8565b602002602001015151600014611f7c57848181518110611f0057611f00613fe8565b6020026020010151848281518110611f1a57611f1a613fe8565b6020026020010151604051602401611f329190613ce4565b60408051601f198184030181529082905291611f4d91613bea565b6040519081900390206020820180516001600160e01b03166001600160e01b0319909216919091179052611f97565b838181518110611f8e57611f8e613fe8565b60200260200101515b828281518110611fa957611fa9613fe8565b602002602001018190525080611fbe90613fa1565b9050611ec3565b509392505050565b60006109a1858585856129d7565b600061203733868686516001600160401b03811115611ffc57611ffc613ffe565b60405190808252806020026020018201604052801561202f57816020015b606081526020019060019003908161201a5790505b5087876120ec565b6109a185858585612af2565b60006109ba6003546001600160a01b031690565b600354604080516001600160a01b03928316815291831660208301527f08f74ea46ef7894f65eabfb5e6e695de773a000b47c529ab559178069b226401910160405180910390a1600380546001600160a01b0319166001600160a01b0392909216919091179055565b60008181526004602090815260408083208151928301909152546001600160401b0316908190526109f5565b80516020820120600061210a87876121048888611e6d565b85611219565b600081815260026020526040902060098101549192509061219e5780546001600160a01b0319166001600160a01b038a16178155875161215390600183019060208b0190613165565b50865161216990600283019060208a01906131c6565b50855161217f9060038301906020890190613201565b508451612195906004830190602088019061325a565b50600981018390555b505050505050505050565b60405163782d6fe160e01b81526001600160a01b038381166004830152602482018390526000917f00000000000000000000000000000000000000000000000000000000000000009091169063782d6fe19060440160206040518083038186803b15801561221657600080fd5b505afa15801561222a573d6000803e3d6000fd5b505050506040513d601f19601f8201168201806040525081019061224e9190613a91565b6001600160601b03169392505050565b60006001600160e01b0319821663bf26d89760e01b14806108fb57506301ffc9a760e01b6001600160e01b03198316146108fb565b60006001600160401b038211156122fb5760405162461bcd60e51b815260206004820152602660248201527f53616665436173743a2076616c756520646f65736e27742066697420696e203660448201526534206269747360d01b6064820152608401610df3565b5090565b815467ffffffffffffffff19166001600160401b0391909116179055565b61232a8585858585612bb0565b5050505050565b60007f000000000000000000000000000000000000000000000000000000000000000046141561238057507f000000000000000000000000000000000000000000000000000000000000000090565b50604080517f00000000000000000000000000000000000000000000000000000000000000006020808301919091527f0000000000000000000000000000000000000000000000000000000000000000828401527f000000000000000000000000000000000000000000000000000000000000000060608301524660808301523060a0808401919091528351808403909101815260c0909201909252805191012090565b6000807f7fffffffffffffffffffffffffffffff5d576e7357a4501ddfe92f46681b20a083111561245b5750600090506003612508565b8460ff16601b1415801561247357508460ff16601c14155b156124845750600090506004612508565b6040805160008082526020820180845289905260ff881692820192909252606081018690526080810185905260019060a0016020604051602081039080840390855afa1580156124d8573d6000803e3d6000fd5b5050604051601f1901519150506001600160a01b03811661250157600060019250925050612508565b9150600090505b94509492505050565b600081600481111561252557612525613fd2565b141561252e5750565b600181600481111561254257612542613fd2565b14156125905760405162461bcd60e51b815260206004820152601860248201527f45434453413a20696e76616c6964207369676e617475726500000000000000006044820152606401610df3565b60028160048111156125a4576125a4613fd2565b14156125f25760405162461bcd60e51b815260206004820152601f60248201527f45434453413a20696e76616c6964207369676e6174757265206c656e677468006044820152606401610df3565b600381600481111561260657612606613fd2565b141561265f5760405162461bcd60e51b815260206004820152602260248201527f45434453413a20696e76616c6964207369676e6174757265202773272076616c604482015261756560f01b6064820152608401610df3565b600481600481111561267357612673613fd2565b14156111725760405162461bcd60e51b815260206004820152602260248201527f45434453413a20696e76616c6964207369676e6174757265202776272076616c604482015261756560f01b6064820152608401610df3565b60008481526002602090815260408083206001600160a01b038716845260088101909252909120805460ff161561275b5760405162461bcd60e51b815260206004820152602d60248201527f476f7665726e6f72436f6d7061746962696c697479427261766f3a20766f746560448201526c08185b1c9958591e4818d85cdd609a1b6064820152608401610df3565b805460ff85166101000261ffff1990911617600117815561277b83612d42565b81546001600160601b039190911662010000026dffffffffffffffffffffffff00001990911617815560ff84166127cb57828260060160008282546127c09190613ee6565b909155506128699050565b60ff8416600114156127eb57828260050160008282546127c09190613ee6565b60ff84166002141561280b57828260070160008282546127c09190613ee6565b60405162461bcd60e51b815260206004820152602d60248201527f476f7665726e6f72436f6d7061746962696c697479427261766f3a20696e766160448201526c6c696420766f7465207479706560981b6064820152608401610df3565b505050505050565b6000818152600160208181526040808420815160a08101835281546001600160401b0390811660808301908152825283518086018552958301541685529283019390935260029092015460ff808216158015948401949094526101009091041615156060820152906128e65750600792915050565b8060600151156128f95750600292915050565b805151436001600160401b0390911611156129175750600092915050565b602081015151436001600160401b0390911611156129385750600192915050565b6129458160200151612daa565b156129895761295383612dd9565b8015612975575060008381526002602052604090206006810154600590910154115b6129805760036114f2565b60049392505050565b60405162461bcd60e51b815260206004820152601d60248201527f476f7665726e6f723a20756e6b6e6f776e2070726f706f73616c2069640000006044820152606401610df3565b50919050565b6000806129e686868686612e00565b905060006129f382611175565b90508015611bfc5760005b8751811015612acf5760035488516001600160a01b039091169063591fcdfe908a9084908110612a3057612a30613fe8565b6020026020010151898481518110612a4a57612a4a613fe8565b6020026020010151898581518110612a6457612a64613fe8565b6020026020010151866040518563ffffffff1660e01b8152600401612a8c9493929190613c06565b600060405180830381600087803b158015612aa657600080fd5b505af1158015612aba573d6000803e3d6000fd5b5050505080612ac890613fa1565b90506129fe565b506000828152600460205260409020805467ffffffffffffffff19169055611bfc565b60007f0000000000000000000000000000000000000000000000000000000000000000612b24336107da600143613f29565b1015612ba45760405162461bcd60e51b815260206004820152604360248201527f476f7665726e6f72436f6d7061746962696c697479427261766f3a2070726f7060448201527f6f73657220766f7465732062656c6f772070726f706f73616c207468726573686064820152621bdb1960ea1b608482015260a401610df3565b6109a185858585612f0c565b6000612bbb86611175565b905060008111612c275760405162461bcd60e51b815260206004820152603160248201527f476f7665726e6f7254696d656c6f636b436f6d706f756e643a2070726f706f73604482015270185b081b9bdd081e595d081c5d595d5959607a1b6064820152608401610df3565b60005b8551811015612d395760035485516001600160a01b0390911690630825f38f90879084908110612c5c57612c5c613fe8565b6020026020010151888481518110612c7657612c76613fe8565b6020026020010151888581518110612c9057612c90613fe8565b6020026020010151888681518110612caa57612caa613fe8565b6020026020010151876040518663ffffffff1660e01b8152600401612cd29493929190613c06565b6000604051808303818588803b158015612ceb57600080fd5b505af1158015612cff573d6000803e3d6000fd5b50505050506040513d6000823e601f3d908101601f19168201604052612d2891908101906138be565b50612d3281613fa1565b9050612c2a565b50505050505050565b60006001600160601b038211156122fb5760405162461bcd60e51b815260206004820152602660248201527f53616665436173743a2076616c756520646f65736e27742066697420696e203960448201526536206269747360d01b6064820152608401610df3565b6000612dbf82516001600160401b0316151590565b80156108fb57505051436001600160401b03909116111590565b60008181526002602052604081206005810154612df86107fa856109cd565b109392505050565b600080612e0f86868686611219565b90506000612e1c82610d29565b90506002816007811115612e3257612e32613fd2565b14158015612e5257506006816007811115612e4f57612e4f613fd2565b14155b8015612e7057506007816007811115612e6d57612e6d613fd2565b14155b612ebc5760405162461bcd60e51b815260206004820152601d60248201527f476f7665726e6f723a2070726f706f73616c206e6f74206163746976650000006044820152606401610df3565b60008281526001602052604090819020600201805461ff001916610100179055517f789cf55be980739dad1d0699b93b58e806b51c9d96619bfa8fe0a28abaa7b30c90611b219084815260200190565b600080612f228686868680519060200120611219565b90508451865114612f455760405162461bcd60e51b8152600401610df390613d1f565b8351865114612f665760405162461bcd60e51b8152600401610df390613d1f565b6000865111612fb75760405162461bcd60e51b815260206004820152601860248201527f476f7665726e6f723a20656d7074792070726f706f73616c00000000000000006044820152606401610df3565b600081815260016020908152604091829020825191820190925281546001600160401b031690819052156130375760405162461bcd60e51b815260206004820152602160248201527f476f7665726e6f723a2070726f706f73616c20616c72656164792065786973746044820152607360f81b6064820152608401610df3565b60006130627f0000000000000000000000000000000000000000000000000000000000000000612293565b61306b43612293565b6130759190613efe565b905060006130a27f0000000000000000000000000000000000000000000000000000000000000000612293565b6130ac9083613efe565b90506130b883836122ff565b6130c560018401826122ff565b7f7d84a6263ae0d98d3329bd7b46bb4e8d6f98cd35a7adb45c274c8b7fd5ebd5e084338b8b8d516001600160401b0381111561310357613103613ffe565b60405190808252806020026020018201604052801561313657816020015b60608152602001906001900390816131215790505b508c88888e60405161315099989796959493929190613da1565b60405180910390a15091979650505050505050565b8280548282559060005260206000209081019282156131ba579160200282015b828111156131ba57825182546001600160a01b0319166001600160a01b03909116178255602090920191600190910190613185565b506122fb9291506132b3565b8280548282559060005260206000209081019282156131ba579160200282015b828111156131ba5782518255916020019190600101906131e6565b82805482825590600052602060002090810192821561324e579160200282015b8281111561324e578251805161323e9184916020909101906132c8565b5091602001919060010190613221565b506122fb92915061333b565b8280548282559060005260206000209081019282156132a7579160200282015b828111156132a757825180516132979184916020909101906132c8565b509160200191906001019061327a565b506122fb929150613358565b5b808211156122fb57600081556001016132b4565b8280546132d490613f6c565b90600052602060002090601f0160209004810192826132f657600085556131ba565b82601f1061330f57805160ff19168380011785556131ba565b828001600101855582156131ba57918201828111156131ba5782518255916020019190600101906131e6565b808211156122fb57600061334f8282613375565b5060010161333b565b808211156122fb57600061336c8282613375565b50600101613358565b50805461338190613f6c565b6000825580601f10613391575050565b601f01602090049060005260206000209081019061117291906132b3565b60006133c26133bd84613ebf565b613e6c565b90508281528383830111156133d657600080fd5b828260208301376000602084830101529392505050565b600082601f8301126133fe57600080fd5b8135602061340e6133bd83613e9c565b80838252828201915082860187848660051b890101111561342e57600080fd5b60005b8581101561345657813561344481614014565b84529284019290840190600101613431565b5090979650505050505050565b600082601f83011261347457600080fd5b813560206134846133bd83613e9c565b80838252828201915082860187848660051b89010111156134a457600080fd5b60005b858110156134565781356001600160401b038111156134c557600080fd5b8801603f81018a136134d657600080fd5b6134e78a87830135604084016133af565b85525092840192908401906001016134a7565b600082601f83011261350b57600080fd5b8135602061351b6133bd83613e9c565b80838252828201915082860187848660051b890101111561353b57600080fd5b6000805b8681101561357d5782356001600160401b0381111561355c578283fd5b61356a8b88838d01016135eb565b865250938501939185019160010161353f565b509198975050505050505050565b600082601f83011261359c57600080fd5b813560206135ac6133bd83613e9c565b80838252828201915082860187848660051b89010111156135cc57600080fd5b60005b85811015613456578135845292840192908401906001016135cf565b600082601f8301126135fc57600080fd5b6114f2838335602085016133af565b803560ff8116811461361c57600080fd5b919050565b6000806040838503121561363457600080fd5b823561363f81614014565b946020939093013593505050565b6000806000806080858703121561366357600080fd5b84356001600160401b038082111561367a57600080fd5b613686888389016133ed565b9550602087013591508082111561369c57600080fd5b6136a88883890161358b565b945060408701359150808211156136be57600080fd5b506136cb87828801613463565b949793965093946060013593505050565b600080600080608085870312156136f257600080fd5b84356001600160401b038082111561370957600080fd5b613715888389016133ed565b9550602087013591508082111561372b57600080fd5b6137378883890161358b565b9450604087013591508082111561374d57600080fd5b61375988838901613463565b9350606087013591508082111561376f57600080fd5b5061377c878288016135eb565b91505092959194509250565b600080600080600060a086880312156137a057600080fd5b85356001600160401b03808211156137b757600080fd5b6137c389838a016133ed565b965060208801359150808211156137d957600080fd5b6137e589838a0161358b565b955060408801359150808211156137fb57600080fd5b61380789838a016134fa565b9450606088013591508082111561381d57600080fd5b61382989838a01613463565b9350608088013591508082111561383f57600080fd5b5061384c888289016135eb565b9150509295509295909350565b60006020828403121561386b57600080fd5b815180151581146114f257600080fd5b60006020828403121561388d57600080fd5b5051919050565b6000602082840312156138a657600080fd5b81356001600160e01b0319811681146114f257600080fd5b6000602082840312156138d057600080fd5b81516001600160401b038111156138e657600080fd5b8201601f810184136138f757600080fd5b80516139056133bd82613ebf565b81815285602083850101111561391a57600080fd5b6109a1826020830160208601613f40565b60006020828403121561393d57600080fd5b81356114f281614014565b60006020828403121561395a57600080fd5b5035919050565b6000806040838503121561397457600080fd5b82359150602083013561398681614014565b809150509250929050565b600080604083850312156139a457600080fd5b823591506139b46020840161360b565b90509250929050565b600080600080606085870312156139d357600080fd5b843593506139e36020860161360b565b925060408501356001600160401b03808211156139ff57600080fd5b818701915087601f830112613a1357600080fd5b813581811115613a2257600080fd5b886020828501011115613a3457600080fd5b95989497505060200194505050565b600080600080600060a08688031215613a5b57600080fd5b85359450613a6b6020870161360b565b9350613a796040870161360b565b94979396509394606081013594506080013592915050565b600060208284031215613aa357600080fd5b81516001600160601b03811681146114f257600080fd5b600081518084526020808501945080840160005b83811015613af35781516001600160a01b031687529582019590820190600101613ace565b509495945050505050565b600082825180855260208086019550808260051b84010181860160005b8481101561345657601f19868403018952613b37838351613bbe565b98840198925090830190600101613b1b565b6000815180845260208085019450848260051b860182860160005b85811015613456578383038952613b7c838351613bbe565b98850198925090840190600101613b64565b600081518084526020808501945080840160005b83811015613af357815187529582019590820190600101613ba2565b60008151808452613bd6816020860160208601613f40565b601f01601f19169290920160200192915050565b60008251613bfc818460208701613f40565b9190910192915050565b60018060a01b038516815283602082015260a06040820152600060a082015260c060608201526000613c3b60c0830185613bbe565b905082608083015295945050505050565b608081526000613c5f6080830187613aba565b8281036020840152613c718187613b8e565b90508281036040840152613c858186613afe565b91505082606083015295945050505050565b608081526000613caa6080830187613aba565b8281036020840152613cbc8187613b8e565b90508281036040840152613cd08186613b49565b90508281036060840152610d1e8185613afe565b6020815260006114f26020830184613bbe565b6020810160088310613d1957634e487b7160e01b600052602160045260246000fd5b91905290565b60208082526021908201527f476f7665726e6f723a20696e76616c69642070726f706f73616c206c656e67746040820152600d60fb1b606082015260800190565b60208082526021908201527f476f7665726e6f723a2070726f706f73616c206e6f74207375636365737366756040820152601b60fa1b606082015260800190565b8981526001600160a01b038916602082015261012060408201819052600090613dcc8382018b613aba565b90508281036060840152613de0818a613b8e565b90508281036080840152613df48189613b49565b905082810360a0840152613e088188613afe565b6001600160401b0387811660c0860152861660e08501528381036101008501529050613e348185613bbe565b9c9b505050505050505050505050565b84815260ff841660208201528260408201526080606082015260006110e96080830184613bbe565b604051601f8201601f191681016001600160401b0381118282101715613e9457613e94613ffe565b604052919050565b60006001600160401b03821115613eb557613eb5613ffe565b5060051b60200190565b60006001600160401b03821115613ed857613ed8613ffe565b50601f01601f191660200190565b60008219821115613ef957613ef9613fbc565b500190565b60006001600160401b03808316818516808303821115613f2057613f20613fbc565b01949350505050565b600082821015613f3b57613f3b613fbc565b500390565b60005b83811015613f5b578181015183820152602001613f43565b838111156111e45750506000910152565b600181811c90821680613f8057607f821691505b602082108114156129d157634e487b7160e01b600052602260045260246000fd5b6000600019821415613fb557613fb5613fbc565b5060010190565b634e487b7160e01b600052601160045260246000fd5b634e487b7160e01b600052602160045260246000fd5b634e487b7160e01b600052603260045260246000fd5b634e487b7160e01b600052604160045260246000fd5b6001600160a01b038116811461117257600080fdfea26469706673582212206a6f274e843459e1903003aaaeb119d7da9fd5c07736846cd495ecf800776bae64736f6c63430008070033",
  "immutableReferences": {
    "5002": [
      {
        "length": 32,
        "start": 2066
      },
      {
        "length": 32,
        "start": 8658
      }
    ],
    "9790": [
      {
        "length": 32,
        "start": 954
      },
      {
        "length": 32,
        "start": 12350
      }
    ],
    "9792": [
      {
        "length": 32,
        "start": 707
      },
      {
        "length": 32,
        "start": 12414
      }
    ],
    "9794": [
      {
        "length": 32,
        "start": 1424
      },
      {
        "length": 32,
        "start": 3424
      },
      {
        "length": 32,
        "start": 10998
      }
    ],
    "24185": [
      {
        "length": 32,
        "start": 9054
      }
    ],
    "24187": [
      {
        "length": 32,
        "start": 9013
      }
    ],
    "24189": [
      {
        "length": 32,
        "start": 9137
      }
    ],
    "24191": [
      {
        "length": 32,
        "start": 9174
      }
    ],
    "24193": [
      {
        "length": 32,
        "start": 9095
      }
    ]
  },
  "source": "// SPDX-License-Identifier: MIT\n\npragma solidity ^0.8.0;\n\nimport \"../governance/compatibility/GovernorCompatibilityBravo.sol\";\nimport \"../governance/extensions/GovernorVotesComp.sol\";\nimport \"../governance/extensions/GovernorTimelockCompound.sol\";\n\ncontract GovernorCompatibilityBravoMock is GovernorCompatibilityBravo, GovernorTimelockCompound, GovernorVotesComp {\n    uint256 immutable _votingDelay;\n    uint256 immutable _votingPeriod;\n    uint256 immutable _proposalThreshold;\n\n    constructor(\n        string memory name_,\n        ERC20VotesComp token_,\n        uint256 votingDelay_,\n        uint256 votingPeriod_,\n        uint256 proposalThreshold_,\n        ICompoundTimelock timelock_\n    ) Governor(name_) GovernorVotesComp(token_) GovernorTimelockCompound(timelock_) {\n        _votingDelay = votingDelay_;\n        _votingPeriod = votingPeriod_;\n        _proposalThreshold = proposalThreshold_;\n    }\n\n    function supportsInterface(bytes4 interfaceId)\n        public\n        view\n        virtual\n        override(IERC165, Governor, GovernorTimelockCompound)\n        returns (bool)\n    {\n        return super.supportsInterface(interfaceId);\n    }\n\n    function votingDelay() public view override returns (uint256) {\n        return _votingDelay;\n    }\n\n    function votingPeriod() public view override returns (uint256) {\n        return _votingPeriod;\n    }\n\n    function proposalThreshold() public view virtual override returns (uint256) {\n        return _proposalThreshold;\n    }\n\n    function quorum(uint256) public pure override returns (uint256) {\n        return 0;\n    }\n\n    function state(uint256 proposalId)\n        public\n        view\n        virtual\n        override(IGovernor, Governor, GovernorTimelockCompound)\n        returns (ProposalState)\n    {\n        return super.state(proposalId);\n    }\n\n    function proposalEta(uint256 proposalId)\n        public\n        view\n        virtual\n        override(IGovernorTimelock, GovernorTimelockCompound)\n        returns (uint256)\n    {\n        return super.proposalEta(proposalId);\n    }\n\n    function propose(\n        address[] memory targets,\n        uint256[] memory values,\n        bytes[] memory calldatas,\n        string memory description\n    ) public virtual override(IGovernor, Governor, GovernorCompatibilityBravo) returns (uint256) {\n        return super.propose(targets, values, calldatas, description);\n    }\n\n    function queue(\n        address[] memory targets,\n        uint256[] memory values,\n        bytes[] memory calldatas,\n        bytes32 salt\n    ) public virtual override(IGovernorTimelock, GovernorTimelockCompound) returns (uint256) {\n        return super.queue(targets, values, calldatas, salt);\n    }\n\n    function execute(\n        address[] memory targets,\n        uint256[] memory values,\n        bytes[] memory calldatas,\n        bytes32 salt\n    ) public payable virtual override(IGovernor, Governor) returns (uint256) {\n        return super.execute(targets, values, calldatas, salt);\n    }\n\n    function _execute(\n        uint256 proposalId,\n        address[] memory targets,\n        uint256[] memory values,\n        bytes[] memory calldatas,\n        bytes32 descriptionHash\n    ) internal virtual override(Governor, GovernorTimelockCompound) {\n        super._execute(proposalId, targets, values, calldatas, descriptionHash);\n    }\n\n    /**\n     * @notice WARNING: this is for mock purposes only. Ability to the _cancel function should be restricted for live\n     * deployments.\n     */\n    function cancel(\n        address[] memory targets,\n        uint256[] memory values,\n        bytes[] memory calldatas,\n        bytes32 salt\n    ) public returns (uint256 proposalId) {\n        return _cancel(targets, values, calldatas, salt);\n    }\n\n    function _cancel(\n        address[] memory targets,\n        uint256[] memory values,\n        bytes[] memory calldatas,\n        bytes32 salt\n    ) internal virtual override(Governor, GovernorTimelockCompound) returns (uint256 proposalId) {\n        return super._cancel(targets, values, calldatas, salt);\n    }\n\n    function getVotes(address account, uint256 blockNumber)\n        public\n        view\n        virtual\n        override(IGovernor, GovernorVotesComp)\n        returns (uint256)\n    {\n        return super.getVotes(account, blockNumber);\n    }\n\n    function _executor() internal view virtual override(Governor, GovernorTimelockCompound) returns (address) {\n        return super._executor();\n    }\n}\n",
  "sourcePath": "/Users/drake/Documents/DEV/PRUF/PRUF_TRUFFLE/contracts/Imports/mocks/GovernorCompatibilityBravoMock.sol",
  "compiler": {
    "name": "solc",
    "version": "0.8.7+commit.e28d00a7.Emscripten.clang"
  },
  "schemaVersion": "3.4.3",
  "updatedAt": "2021-10-26T17:58:03.673Z",
  "devdoc": {
    "kind": "dev",
    "methods": {
      "COUNTING_MODE()": {
        "details": "A description of the possible `support` values for {castVote} and the way these votes are counted, meant to be consumed by UIs to show correct vote options and interpret the results. The string is a URL-encoded sequence of key-value pairs that each describe one aspect, for example `support=bravo&quorum=for,abstain`. There are 2 standard keys: `support` and `quorum`. - `support=bravo` refers to the vote options 0 = For, 1 = Against, 2 = Abstain, as in `GovernorBravo`. - `quorum=bravo` means that only For votes are counted towards quorum. - `quorum=for,abstain` means that both For and Abstain votes are counted towards quorum. NOTE: The string can be decoded by the standard https://developer.mozilla.org/en-US/docs/Web/API/URLSearchParams[`URLSearchParams`] JavaScript class."
      },
      "__acceptAdmin()": {
        "details": "Accept admin right over the timelock."
      },
      "cancel(uint256)": {
        "details": "Cancels a proposal only if sender is the proposer, or proposer delegates dropped below proposal threshold."
      },
      "castVote(uint256,uint8)": {
        "details": "See {IGovernor-castVote}."
      },
      "castVoteBySig(uint256,uint8,uint8,bytes32,bytes32)": {
        "details": "See {IGovernor-castVoteBySig}."
      },
      "castVoteWithReason(uint256,uint8,string)": {
        "details": "See {IGovernor-castVoteWithReason}."
      },
      "execute(uint256)": {
        "details": "See {IGovernorCompatibilityBravo-execute}."
      },
      "getActions(uint256)": {
        "details": "See {IGovernorCompatibilityBravo-getActions}."
      },
      "getReceipt(uint256,address)": {
        "details": "See {IGovernorCompatibilityBravo-getReceipt}."
      },
      "hasVoted(uint256,address)": {
        "details": "See {IGovernor-hasVoted}."
      },
      "hashProposal(address[],uint256[],bytes[],bytes32)": {
        "details": "See {IGovernor-hashProposal}. The proposal id is produced by hashing the RLC encoded `targets` array, the `values` array, the `calldatas` array and the descriptionHash (bytes32 which itself is the keccak256 hash of the description string). This proposal id can be produced from the proposal data which is part of the {ProposalCreated} event. It can even be computed in advance, before the proposal is submitted. Note that the chainId and the governor address are not part of the proposal id computation. Consequently, the same proposal (with same operation and same description) will have the same id if submitted on multiple governors accross multiple networks. This also means that in order to execute the same operation twice (on the same governor) the proposer will have to change the description in order to avoid proposal id conflicts."
      },
      "name()": {
        "details": "See {IGovernor-name}."
      },
      "proposalDeadline(uint256)": {
        "details": "See {IGovernor-proposalDeadline}."
      },
      "proposalSnapshot(uint256)": {
        "details": "See {IGovernor-proposalSnapshot}."
      },
      "proposalThreshold()": {
        "details": "Part of the Governor Bravo's interface: _\"The number of votes required in order for a voter to become a proposer\"_."
      },
      "proposals(uint256)": {
        "details": "See {IGovernorCompatibilityBravo-proposals}."
      },
      "propose(address[],uint256[],string[],bytes[],string)": {
        "details": "See {IGovernorCompatibilityBravo-propose}."
      },
      "queue(uint256)": {
        "details": "See {IGovernorCompatibilityBravo-queue}."
      },
      "quorumVotes()": {
        "details": "See {IGovernorCompatibilityBravo-quorumVotes}."
      },
      "timelock()": {
        "details": "Public accessor to check the address of the timelock"
      },
      "updateTimelock(address)": {
        "details": "Public endpoint to update the underlying timelock instance. Restricted to the timelock itself, so updates must be proposed, scheduled and executed using the {Governor} workflow. For security reason, the timelock must be handed over to another admin before setting up a new one. The two operations (hand over the timelock) and do the update can be batched in a single proposal. Note that if the timelock admin has been handed over in a previous operation, we refuse updates made through the timelock if admin of the timelock has already been accepted and the operation is executed outside the scope of governance."
      },
      "version()": {
        "details": "See {IGovernor-version}."
      },
      "votingDelay()": {
        "details": "delay, in number of block, between the proposal is created and the vote starts. This can be increassed to leave time for users to buy voting power, of delegate it, before the voting of a proposal starts."
      },
      "votingPeriod()": {
        "details": "delay, in number of blocks, between the vote start and vote ends. Note: the {votingDelay} can delay the start of the vote. This must be considered when setting the voting duration compared to the voting delay."
      }
    },
    "version": 1
  },
  "userdoc": {
    "kind": "user",
    "methods": {
      "COUNTING_MODE()": {
        "notice": "module:voting"
      },
      "cancel(address[],uint256[],bytes[],bytes32)": {
        "notice": "WARNING: this is for mock purposes only. Ability to the _cancel function should be restricted for live deployments."
      },
      "votingDelay()": {
        "notice": "module:user-config"
      },
      "votingPeriod()": {
        "notice": "module:user-config"
      }
    },
    "version": 1
  }
}