{
  "contractName": "hashName",
  "abi": [
    {
      "inputs": [
        {
          "internalType": "string",
          "name": "_subDomain",
          "type": "string"
        },
        {
          "internalType": "string",
          "name": "_domain",
          "type": "string"
        },
        {
          "internalType": "string",
          "name": "_tld",
          "type": "string"
        }
      ],
      "name": "hashK256",
      "outputs": [
        {
          "internalType": "bytes32",
          "name": "",
          "type": "bytes32"
        },
        {
          "internalType": "string",
          "name": "",
          "type": "string"
        }
      ],
      "stateMutability": "pure",
      "type": "function"
    }
  ],
  "bytecode": "0x608060405234801561001057600080fd5b50610471806100206000396000f3fe608060405234801561001057600080fd5b506004361061002b5760003560e01c8063bdaa904114610030575b600080fd5b61004361003e3660046102ac565b61005a565b6040516100519291906103bb565b60405180910390f35b60405160009060609082906100759086908690602001610350565b604051602081830303815290604052516000146101ec57808460405160200161009e9190610334565b604051602081830303815290604052805190602001206040516020016100ce929190918252602082015260400190565b604051602081830303815290604052805190602001209050846040516020016100f79190610334565b604051602081830303815290604052516000146101695780856040516020016101209190610334565b60405160208183030381529060405280519060200120604051602001610150929190918252602082015260400190565b6040516020818303038152906040528051906020012090505b8560405160200161017a9190610334565b604051602081830303815290604052516000146101ec5780866040516020016101a39190610334565b604051602081830303815290604052805190602001206040516020016101d3929190918252602082015260400190565b6040516020818303038152906040528051906020012090505b6000858560405160200161020192919061037f565b60408051808303601f19018152919052919791965090945050505050565b600082601f83011261023057600080fd5b813567ffffffffffffffff8082111561024b5761024b610425565b604051601f8301601f19908116603f0116810190828211818310171561027357610273610425565b8160405283815286602085880101111561028c57600080fd5b836020870160208301376000602085830101528094505050505092915050565b6000806000606084860312156102c157600080fd5b833567ffffffffffffffff808211156102d957600080fd5b6102e58783880161021f565b945060208601359150808211156102fb57600080fd5b6103078783880161021f565b9350604086013591508082111561031d57600080fd5b5061032a8682870161021f565b9150509250925092565b600082516103468184602087016103f5565b9190910192915050565b600083516103628184602088016103f5565b8351908301906103768183602088016103f5565b01949350505050565b600083516103918184602088016103f5565b601760f91b90830190815283516103af8160018401602088016103f5565b01600101949350505050565b82815260406020820152600082518060408401526103e08160608501602087016103f5565b601f01601f1916919091016060019392505050565b60005b838110156104105781810151838201526020016103f8565b8381111561041f576000848401525b50505050565b634e487b7160e01b600052604160045260246000fdfea26469706673582212208984e2cd0f3c15c5bbd370e1fa0f00d60899653b6a62eab16438424c694b005d64736f6c63430008070033",
  "immutableReferences": {},
  "source": "// SPDX-License-Identifier: GPL-3.0\n\npragma solidity >=0.7.0 <0.9.0;\n\n/**\n * @title hashtest\n * Tested and working\n */\ncontract hashName {\n    function hashK256(\n        string memory _subDomain,\n        string memory _domain,\n        string memory _tld\n    ) public pure returns (bytes32, string memory) {\n        bytes32 namehash = 0;\n        if (bytes(abi.encodePacked(_domain, _tld)).length != 0) {\n            namehash = keccak256(\n                abi.encodePacked(namehash, keccak256(abi.encodePacked(_tld)))\n            );\n\n            if (bytes(abi.encodePacked(_domain)).length != 0) {\n                namehash = keccak256(\n                    abi.encodePacked(\n                        namehash,\n                        keccak256(abi.encodePacked(_domain))\n                    )\n                );\n            }\n\n            if (bytes(abi.encodePacked(_subDomain)).length != 0) {\n                namehash = keccak256(\n                    abi.encodePacked(\n                        namehash,\n                        keccak256(abi.encodePacked(_subDomain))\n                    )\n                );\n            }\n        }\n\n        string memory nodeName = string(abi.encodePacked(_domain,\".\",_tld));\n        return (namehash, nodeName);\n    }\n}\n",
  "sourcePath": "/Users/drake/Documents/DEV/PRUF/PRUF_TRUFFLE/contracts/InProgress/hashtesting.sol",
  "compiler": {
    "name": "solc",
    "version": "0.8.7+commit.e28d00a7.Emscripten.clang"
  },
  "schemaVersion": "3.4.3",
  "updatedAt": "2022-04-27T15:19:14.032Z",
  "devdoc": {
    "kind": "dev",
    "methods": {},
    "title": "hashtest Tested and working",
    "version": 1
  },
  "userdoc": {
    "kind": "user",
    "methods": {},
    "version": 1
  }
}