{
  "contractName": "Helper2",
  "abi": [
    {
      "anonymous": false,
      "inputs": [
        {
          "indexed": true,
          "internalType": "address",
          "name": "previousOwner",
          "type": "address"
        },
        {
          "indexed": true,
          "internalType": "address",
          "name": "newOwner",
          "type": "address"
        }
      ],
      "name": "OwnershipTransferred",
      "type": "event"
    },
    {
      "anonymous": false,
      "inputs": [
        {
          "indexed": false,
          "internalType": "address",
          "name": "account",
          "type": "address"
        }
      ],
      "name": "Paused",
      "type": "event"
    },
    {
      "anonymous": false,
      "inputs": [
        {
          "indexed": false,
          "internalType": "string",
          "name": "_msg",
          "type": "string"
        }
      ],
      "name": "REPORT",
      "type": "event"
    },
    {
      "anonymous": false,
      "inputs": [
        {
          "indexed": true,
          "internalType": "bytes32",
          "name": "role",
          "type": "bytes32"
        },
        {
          "indexed": true,
          "internalType": "bytes32",
          "name": "previousAdminRole",
          "type": "bytes32"
        },
        {
          "indexed": true,
          "internalType": "bytes32",
          "name": "newAdminRole",
          "type": "bytes32"
        }
      ],
      "name": "RoleAdminChanged",
      "type": "event"
    },
    {
      "anonymous": false,
      "inputs": [
        {
          "indexed": true,
          "internalType": "bytes32",
          "name": "role",
          "type": "bytes32"
        },
        {
          "indexed": true,
          "internalType": "address",
          "name": "account",
          "type": "address"
        },
        {
          "indexed": true,
          "internalType": "address",
          "name": "sender",
          "type": "address"
        }
      ],
      "name": "RoleGranted",
      "type": "event"
    },
    {
      "anonymous": false,
      "inputs": [
        {
          "indexed": true,
          "internalType": "bytes32",
          "name": "role",
          "type": "bytes32"
        },
        {
          "indexed": true,
          "internalType": "address",
          "name": "account",
          "type": "address"
        },
        {
          "indexed": true,
          "internalType": "address",
          "name": "sender",
          "type": "address"
        }
      ],
      "name": "RoleRevoked",
      "type": "event"
    },
    {
      "anonymous": false,
      "inputs": [
        {
          "indexed": false,
          "internalType": "address",
          "name": "account",
          "type": "address"
        }
      ],
      "name": "Unpaused",
      "type": "event"
    },
    {
      "inputs": [],
      "name": "ASSET_TXFR_ROLE",
      "outputs": [
        {
          "internalType": "bytes32",
          "name": "",
          "type": "bytes32"
        }
      ],
      "stateMutability": "view",
      "type": "function"
    },
    {
      "inputs": [],
      "name": "CONTRACT_ADMIN_ROLE",
      "outputs": [
        {
          "internalType": "bytes32",
          "name": "",
          "type": "bytes32"
        }
      ],
      "stateMutability": "view",
      "type": "function"
    },
    {
      "inputs": [],
      "name": "DAO_ROLE",
      "outputs": [
        {
          "internalType": "bytes32",
          "name": "",
          "type": "bytes32"
        }
      ],
      "stateMutability": "view",
      "type": "function"
    },
    {
      "inputs": [],
      "name": "DEFAULT_ADMIN_ROLE",
      "outputs": [
        {
          "internalType": "bytes32",
          "name": "",
          "type": "bytes32"
        }
      ],
      "stateMutability": "view",
      "type": "function"
    },
    {
      "inputs": [
        {
          "internalType": "address",
          "name": "_tokenContract",
          "type": "address"
        },
        {
          "internalType": "address",
          "name": "_to",
          "type": "address"
        },
        {
          "internalType": "uint256",
          "name": "_amount",
          "type": "uint256"
        }
      ],
      "name": "ERC20Transfer",
      "outputs": [],
      "stateMutability": "nonpayable",
      "type": "function"
    },
    {
      "inputs": [
        {
          "internalType": "address",
          "name": "_tokenContract",
          "type": "address"
        },
        {
          "internalType": "address",
          "name": "_to",
          "type": "address"
        },
        {
          "internalType": "uint256",
          "name": "_tokenID",
          "type": "uint256"
        }
      ],
      "name": "ERC721Transfer",
      "outputs": [],
      "stateMutability": "nonpayable",
      "type": "function"
    },
    {
      "inputs": [],
      "name": "PAUSER_ROLE",
      "outputs": [
        {
          "internalType": "bytes32",
          "name": "",
          "type": "bytes32"
        }
      ],
      "stateMutability": "view",
      "type": "function"
    },
    {
      "inputs": [
        {
          "internalType": "bytes32",
          "name": "role",
          "type": "bytes32"
        }
      ],
      "name": "getRoleAdmin",
      "outputs": [
        {
          "internalType": "bytes32",
          "name": "",
          "type": "bytes32"
        }
      ],
      "stateMutability": "view",
      "type": "function"
    },
    {
      "inputs": [
        {
          "internalType": "bytes32",
          "name": "role",
          "type": "bytes32"
        },
        {
          "internalType": "address",
          "name": "account",
          "type": "address"
        }
      ],
      "name": "grantRole",
      "outputs": [],
      "stateMutability": "nonpayable",
      "type": "function"
    },
    {
      "inputs": [
        {
          "internalType": "bytes32",
          "name": "role",
          "type": "bytes32"
        },
        {
          "internalType": "address",
          "name": "account",
          "type": "address"
        }
      ],
      "name": "hasRole",
      "outputs": [
        {
          "internalType": "bool",
          "name": "",
          "type": "bool"
        }
      ],
      "stateMutability": "view",
      "type": "function"
    },
    {
      "inputs": [
        {
          "internalType": "address",
          "name": "",
          "type": "address"
        },
        {
          "internalType": "address",
          "name": "",
          "type": "address"
        },
        {
          "internalType": "uint256",
          "name": "",
          "type": "uint256"
        },
        {
          "internalType": "bytes",
          "name": "",
          "type": "bytes"
        }
      ],
      "name": "onERC721Received",
      "outputs": [
        {
          "internalType": "bytes4",
          "name": "",
          "type": "bytes4"
        }
      ],
      "stateMutability": "nonpayable",
      "type": "function"
    },
    {
      "inputs": [],
      "name": "owner",
      "outputs": [
        {
          "internalType": "address",
          "name": "",
          "type": "address"
        }
      ],
      "stateMutability": "view",
      "type": "function"
    },
    {
      "inputs": [],
      "name": "pause",
      "outputs": [],
      "stateMutability": "nonpayable",
      "type": "function"
    },
    {
      "inputs": [],
      "name": "paused",
      "outputs": [
        {
          "internalType": "bool",
          "name": "",
          "type": "bool"
        }
      ],
      "stateMutability": "view",
      "type": "function"
    },
    {
      "inputs": [],
      "name": "renounceOwnership",
      "outputs": [],
      "stateMutability": "nonpayable",
      "type": "function"
    },
    {
      "inputs": [
        {
          "internalType": "bytes32",
          "name": "role",
          "type": "bytes32"
        },
        {
          "internalType": "address",
          "name": "account",
          "type": "address"
        }
      ],
      "name": "renounceRole",
      "outputs": [],
      "stateMutability": "nonpayable",
      "type": "function"
    },
    {
      "inputs": [],
      "name": "resolveContractAddresses",
      "outputs": [],
      "stateMutability": "nonpayable",
      "type": "function"
    },
    {
      "inputs": [
        {
          "internalType": "bytes32",
          "name": "role",
          "type": "bytes32"
        },
        {
          "internalType": "address",
          "name": "account",
          "type": "address"
        }
      ],
      "name": "revokeRole",
      "outputs": [],
      "stateMutability": "nonpayable",
      "type": "function"
    },
    {
      "inputs": [
        {
          "internalType": "address",
          "name": "_storageAddress",
          "type": "address"
        }
      ],
      "name": "setStorageContract",
      "outputs": [],
      "stateMutability": "nonpayable",
      "type": "function"
    },
    {
      "inputs": [
        {
          "internalType": "bytes4",
          "name": "interfaceId",
          "type": "bytes4"
        }
      ],
      "name": "supportsInterface",
      "outputs": [
        {
          "internalType": "bool",
          "name": "",
          "type": "bool"
        }
      ],
      "stateMutability": "view",
      "type": "function"
    },
    {
      "inputs": [
        {
          "internalType": "address",
          "name": "newOwner",
          "type": "address"
        }
      ],
      "name": "transferOwnership",
      "outputs": [],
      "stateMutability": "nonpayable",
      "type": "function"
    },
    {
      "inputs": [],
      "name": "unpause",
      "outputs": [],
      "stateMutability": "nonpayable",
      "type": "function"
    },
    {
      "inputs": [
        {
          "internalType": "address",
          "name": "contractAddress",
          "type": "address"
        }
      ],
      "name": "setErc721_tokenAddress",
      "outputs": [],
      "stateMutability": "nonpayable",
      "type": "function"
    },
    {
      "inputs": [
        {
          "internalType": "uint256",
          "name": "tokenId",
          "type": "uint256"
        }
      ],
      "name": "atWhatAddress",
      "outputs": [
        {
          "internalType": "address",
          "name": "",
          "type": "address"
        }
      ],
      "stateMutability": "view",
      "type": "function"
    },
    {
      "inputs": [
        {
          "internalType": "bytes32",
          "name": "_tokenB32",
          "type": "bytes32"
        }
      ],
      "name": "atWhatAddressTokenB32",
      "outputs": [
        {
          "internalType": "address",
          "name": "",
          "type": "address"
        }
      ],
      "stateMutability": "view",
      "type": "function"
    },
    {
      "inputs": [
        {
          "internalType": "uint256",
          "name": "tokenId",
          "type": "uint256"
        }
      ],
      "name": "atMyAddress",
      "outputs": [
        {
          "internalType": "string",
          "name": "",
          "type": "string"
        }
      ],
      "stateMutability": "view",
      "type": "function"
    },
    {
      "inputs": [],
      "name": "getBlock",
      "outputs": [
        {
          "internalType": "uint256",
          "name": "",
          "type": "uint256"
        }
      ],
      "stateMutability": "view",
      "type": "function"
    },
    {
      "inputs": [],
      "name": "getTime",
      "outputs": [
        {
          "internalType": "uint256",
          "name": "",
          "type": "uint256"
        }
      ],
      "stateMutability": "view",
      "type": "function"
    },
    {
      "inputs": [
        {
          "internalType": "string",
          "name": "_idx",
          "type": "string"
        }
      ],
      "name": "getStringHash",
      "outputs": [
        {
          "internalType": "bytes32",
          "name": "",
          "type": "bytes32"
        }
      ],
      "stateMutability": "pure",
      "type": "function"
    },
    {
      "inputs": [
        {
          "internalType": "uint256",
          "name": "_idx",
          "type": "uint256"
        },
        {
          "internalType": "address",
          "name": "_address",
          "type": "address"
        }
      ],
      "name": "getHashOfUint256AndAddress",
      "outputs": [
        {
          "internalType": "bytes32",
          "name": "",
          "type": "bytes32"
        }
      ],
      "stateMutability": "pure",
      "type": "function"
    },
    {
      "inputs": [
        {
          "internalType": "bytes32",
          "name": "_idx",
          "type": "bytes32"
        }
      ],
      "name": "getB32Hash",
      "outputs": [
        {
          "internalType": "bytes32",
          "name": "",
          "type": "bytes32"
        }
      ],
      "stateMutability": "pure",
      "type": "function"
    },
    {
      "inputs": [
        {
          "internalType": "address",
          "name": "_idx",
          "type": "address"
        }
      ],
      "name": "getAddrHash",
      "outputs": [
        {
          "internalType": "bytes32",
          "name": "",
          "type": "bytes32"
        }
      ],
      "stateMutability": "pure",
      "type": "function"
    },
    {
      "inputs": [
        {
          "internalType": "address",
          "name": "_idx",
          "type": "address"
        }
      ],
      "name": "getAddrUint160",
      "outputs": [
        {
          "internalType": "uint160",
          "name": "",
          "type": "uint160"
        }
      ],
      "stateMutability": "pure",
      "type": "function"
    },
    {
      "inputs": [
        {
          "internalType": "uint256",
          "name": "_idx",
          "type": "uint256"
        }
      ],
      "name": "getUint256Hash",
      "outputs": [
        {
          "internalType": "bytes32",
          "name": "",
          "type": "bytes32"
        }
      ],
      "stateMutability": "pure",
      "type": "function"
    },
    {
      "inputs": [
        {
          "internalType": "bytes32",
          "name": "b32",
          "type": "bytes32"
        }
      ],
      "name": "b32_to_uint256",
      "outputs": [
        {
          "internalType": "uint256",
          "name": "",
          "type": "uint256"
        }
      ],
      "stateMutability": "pure",
      "type": "function"
    },
    {
      "inputs": [
        {
          "internalType": "uint256",
          "name": "u256",
          "type": "uint256"
        }
      ],
      "name": "uint256_to_b32",
      "outputs": [
        {
          "internalType": "bytes32",
          "name": "",
          "type": "bytes32"
        }
      ],
      "stateMutability": "pure",
      "type": "function"
    },
    {
      "inputs": [
        {
          "internalType": "string",
          "name": "_idx_type",
          "type": "string"
        },
        {
          "internalType": "string",
          "name": "_idx_mfg",
          "type": "string"
        },
        {
          "internalType": "string",
          "name": "_idx_mod",
          "type": "string"
        },
        {
          "internalType": "string",
          "name": "_idx_ser",
          "type": "string"
        }
      ],
      "name": "getIdxHashRaw",
      "outputs": [
        {
          "internalType": "bytes32",
          "name": "",
          "type": "bytes32"
        }
      ],
      "stateMutability": "pure",
      "type": "function"
    },
    {
      "inputs": [
        {
          "internalType": "bytes32",
          "name": "_idxhash",
          "type": "bytes32"
        },
        {
          "internalType": "uint32",
          "name": "_node",
          "type": "uint32"
        }
      ],
      "name": "getIdxHash",
      "outputs": [
        {
          "internalType": "bytes32",
          "name": "",
          "type": "bytes32"
        }
      ],
      "stateMutability": "pure",
      "type": "function"
    },
    {
      "inputs": [
        {
          "internalType": "bytes32",
          "name": "_idxHash",
          "type": "bytes32"
        },
        {
          "internalType": "string",
          "name": "_rgt_first",
          "type": "string"
        },
        {
          "internalType": "string",
          "name": "_rgt_mid",
          "type": "string"
        },
        {
          "internalType": "string",
          "name": "_rgt_last",
          "type": "string"
        },
        {
          "internalType": "string",
          "name": "_rgt_ID",
          "type": "string"
        },
        {
          "internalType": "string",
          "name": "_rgt_secret",
          "type": "string"
        }
      ],
      "name": "getRgtHash",
      "outputs": [
        {
          "internalType": "bytes32",
          "name": "",
          "type": "bytes32"
        },
        {
          "internalType": "bytes32",
          "name": "",
          "type": "bytes32"
        }
      ],
      "stateMutability": "pure",
      "type": "function"
    },
    {
      "inputs": [
        {
          "internalType": "bytes32",
          "name": "_idxHash",
          "type": "bytes32"
        },
        {
          "internalType": "string",
          "name": "_rgt_first",
          "type": "string"
        },
        {
          "internalType": "string",
          "name": "_rgt_mid",
          "type": "string"
        },
        {
          "internalType": "string",
          "name": "_rgt_last",
          "type": "string"
        },
        {
          "internalType": "string",
          "name": "_rgt_ID",
          "type": "string"
        },
        {
          "internalType": "string",
          "name": "_rgt_secret",
          "type": "string"
        }
      ],
      "name": "getJustRgtHash",
      "outputs": [
        {
          "internalType": "bytes32",
          "name": "",
          "type": "bytes32"
        }
      ],
      "stateMutability": "pure",
      "type": "function"
    },
    {
      "inputs": [
        {
          "internalType": "bytes32",
          "name": "_idxHash",
          "type": "bytes32"
        },
        {
          "internalType": "string",
          "name": "_rgt_first",
          "type": "string"
        },
        {
          "internalType": "string",
          "name": "_rgt_mid",
          "type": "string"
        },
        {
          "internalType": "string",
          "name": "_rgt_last",
          "type": "string"
        },
        {
          "internalType": "string",
          "name": "_rgt_ID",
          "type": "string"
        },
        {
          "internalType": "string",
          "name": "_rgt_secret",
          "type": "string"
        }
      ],
      "name": "getFuckyRgtHash",
      "outputs": [
        {
          "internalType": "bytes32",
          "name": "",
          "type": "bytes32"
        }
      ],
      "stateMutability": "pure",
      "type": "function"
    },
    {
      "inputs": [
        {
          "internalType": "uint32",
          "name": "_node",
          "type": "uint32"
        },
        {
          "internalType": "string",
          "name": "_authCode",
          "type": "string"
        }
      ],
      "name": "getURIfromAuthcode",
      "outputs": [
        {
          "internalType": "string",
          "name": "",
          "type": "string"
        }
      ],
      "stateMutability": "pure",
      "type": "function"
    },
    {
      "inputs": [
        {
          "internalType": "uint32",
          "name": "_node",
          "type": "uint32"
        },
        {
          "internalType": "string",
          "name": "_authCode",
          "type": "string"
        }
      ],
      "name": "getURIb32fromAuthcode",
      "outputs": [
        {
          "internalType": "bytes32",
          "name": "",
          "type": "bytes32"
        }
      ],
      "stateMutability": "pure",
      "type": "function"
    },
    {
      "inputs": [
        {
          "internalType": "uint32",
          "name": "_node",
          "type": "uint32"
        }
      ],
      "name": "helper_getExtendedNodeData",
      "outputs": [
        {
          "components": [
            {
              "internalType": "uint8",
              "name": "custodyType",
              "type": "uint8"
            },
            {
              "internalType": "uint8",
              "name": "managementType",
              "type": "uint8"
            },
            {
              "internalType": "uint8",
              "name": "storageProvider",
              "type": "uint8"
            },
            {
              "internalType": "uint8",
              "name": "switches",
              "type": "uint8"
            },
            {
              "internalType": "uint32",
              "name": "nodeRoot",
              "type": "uint32"
            },
            {
              "internalType": "uint32",
              "name": "discount",
              "type": "uint32"
            },
            {
              "internalType": "address",
              "name": "referenceAddress",
              "type": "address"
            },
            {
              "internalType": "bytes32",
              "name": "CAS1",
              "type": "bytes32"
            },
            {
              "internalType": "bytes32",
              "name": "CAS2",
              "type": "bytes32"
            },
            {
              "internalType": "string",
              "name": "name",
              "type": "string"
            }
          ],
          "internalType": "struct Node",
          "name": "",
          "type": "tuple"
        }
      ],
      "stateMutability": "view",
      "type": "function"
    },
    {
      "inputs": [
        {
          "internalType": "uint32",
          "name": "_node",
          "type": "uint32"
        }
      ],
      "name": "helper_getExtendedNodeData_nostruct",
      "outputs": [
        {
          "internalType": "uint8",
          "name": "",
          "type": "uint8"
        },
        {
          "internalType": "address",
          "name": "",
          "type": "address"
        },
        {
          "internalType": "uint8",
          "name": "",
          "type": "uint8"
        },
        {
          "internalType": "bytes32",
          "name": "",
          "type": "bytes32"
        },
        {
          "internalType": "bytes32",
          "name": "",
          "type": "bytes32"
        }
      ],
      "stateMutability": "view",
      "type": "function"
    },
    {
      "inputs": [
        {
          "internalType": "address",
          "name": "_rootAddress",
          "type": "address"
        },
        {
          "internalType": "uint256",
          "name": "_rootPrice",
          "type": "uint256"
        },
        {
          "internalType": "address",
          "name": "_NTHaddress",
          "type": "address"
        },
        {
          "internalType": "uint256",
          "name": "_NTHprice",
          "type": "uint256"
        }
      ],
      "name": "helper_payForService",
      "outputs": [],
      "stateMutability": "nonpayable",
      "type": "function"
    }
  ],
  "bytecode": "0x6080604052612710601955611388601a553480156200001d57600080fd5b5060016000556200002e33620000a3565b6003805460ff1916905562000045600033620000f5565b620000717f2ce8d04a9c35987429af538825cd2438cc5c5bb5dc427955f84daaa3ea10501633620000f5565b6200009d7f65d7a28e3265b37a6474929f336521b332c1681b933f6cb9f3376673440d862a33620000f5565b620001a9565b600180546001600160a01b038381166001600160a01b0319831681179093556040519116919082907f8be0079c531659141344cd1fd0a4f28419497f9722a3daafe3b4186f6b6457e090600090a35050565b62000101828262000105565b5050565b60008281526002602090815260408083206001600160a01b038516845290915290205460ff16620001015760008281526002602090815260408083206001600160a01b03851684529091529020805460ff19166001179055620001653390565b6001600160a01b0316816001600160a01b0316837f2f8788117e7eff1d82e926ec794901d17c78024a50270940304540a733656f0d60405160405180910390a45050565b612cc780620001b96000396000f3fe608060405234801561001057600080fd5b506004361061028a5760003560e01c80638456cb591161015c578063c58fd5c1116100ce578063e5f815dc11610087578063e5f815dc1461060f578063e63ab1e914610622578063e9c2651814610649578063ee9c25c514610670578063f2fde38b14610678578063fea1cfdd1461068b57600080fd5b8063c58fd5c114610554578063d2c6904c14610574578063d547741f146105c3578063dc38b0a2146105d6578063e44f5bba146105e9578063e59fdd36146105fc57600080fd5b8063a217fddf11610120578063a217fddf146104f8578063a8c2745014610500578063aac08ac21461036e578063bf51208514610520578063c2161c3114610533578063c3dacc221461054657600080fd5b80638456cb59146104a657806386c4cd80146104ae5780638da5cb5b146104c157806391d14854146104d257806399672666146104e557600080fd5b8063490701061161020057806360c1f1fb116101b957806360c1f1fb1461043d5780636295184d146103f357806362c5591e14610465578063715018a6146104785780637de7e5b1146104805780637e2955201461049357600080fd5b806349070106146103c857806350b3f7f7146103f3578063557ed1ba1461040657806356dd73551461040c57806358ca12651461041f5780635c975abb1461043257600080fd5b806329addf711161025257806329addf711461036e5780632e97766d1461037f5780632f2ff15d146103855780632f79fc5a1461039a57806336568abe146103ad5780633f4ba83a146103c057600080fd5b806301ffc9a71461028f5780631429db5f146102b7578063150b7a02146102ec5780631da0331214610324578063248a9ca31461034b575b600080fd5b6102a261029d366004612408565b61069e565b60405190151581526020015b60405180910390f35b6102de7f7f1e4e9f3d9ba0452a25cfef4cd4c6ffc86158d06ed2f585fa0093e12dec429c81565b6040519081526020016102ae565b61030b6102fa3660046121e3565b630a85bd0160e11b95945050505050565b6040516001600160e01b031990911681526020016102ae565b6102de7f2ce8d04a9c35987429af538825cd2438cc5c5bb5dc427955f84daaa3ea10501681565b6102de6103593660046122c0565b60009081526002602052604090206001015490565b6102de61037c3660046122c0565b90565b436102de565b6103986103933660046122d9565b6106d5565b005b6102de6103a8366004612474565b610700565b6103986103bb3660046122d9565b61073c565b6103986107bf565b6103db6103d63660046122c0565b61080f565b6040516001600160a01b0390911681526020016102ae565b6102de6104013660046122c0565b6108c1565b426102de565b61039861041a366004612256565b6108f3565b6102de61042d3660046122d9565b6109a3565b60035460ff166102a2565b61045061044b366004612309565b6109f1565b604080519283526020830191909152016102ae565b610398610473366004612168565b610a57565b610398610b03565b6102de61048e366004612309565b610b37565b6102de6104a13660046123e3565b610b79565b610398610baf565b6102de6104bc36600461263d565b610bfd565b6001546001600160a01b03166103db565b6102a26104e03660046122d9565b610c40565b6102de6104f3366004612168565b610c6b565b6102de600081565b61051361050e366004612620565b610c92565b6040516102ae91906129e0565b6103db61052e3660046122c0565b610d66565b6102de610541366004612432565b610e0f565b6103db61037c366004612168565b6105676105623660046122c0565b610e24565b6040516102ae9190612891565b610587610582366004612620565b610f0e565b6040805160ff96871681526001600160a01b0395909516602086015292909416918301919091526060820152608081019190915260a0016102ae565b6103986105d13660046122d9565b610fcd565b6103986105e4366004612168565b610ff3565b6102de6105f7366004612309565b6110a6565b61039861060a3660046121a2565b61110e565b61039861061d3660046121a2565b61120f565b6102de7f65d7a28e3265b37a6474929f336521b332c1681b933f6cb9f3376673440d862a81565b6102de7f3b5d4cc60d3ec3516ee8ae083bd60934f6eb2a6c54b1229985c41bfb092b260381565b6103986112ef565b610398610686366004612168565b6119f3565b61056761069936600461263d565b611a8e565b60006001600160e01b03198216637965db0b60e01b14806106cf57506301ffc9a760e01b6001600160e01b03198316145b92915050565b6000828152600260205260409020600101546106f18133611b03565b6106fb8383611b67565b505050565b6000808585858560405160200161071a94939291906126e9565b60408051808303601f1901815291905280516020909101209695505050505050565b6001600160a01b03811633146107b15760405162461bcd60e51b815260206004820152602f60248201527f416363657373436f6e74726f6c3a2063616e206f6e6c792072656e6f756e636560448201526e103937b632b9903337b91039b2b63360891b60648201526084015b60405180910390fd5b6107bb8282611bed565b5050565b6107e97f65d7a28e3265b37a6474929f336521b332c1681b933f6cb9f3376673440d862a33610c40565b6108055760405162461bcd60e51b81526004016107a89061292e565b61080d611c54565b565b6001546000906001600160a01b0316331461083c5760405162461bcd60e51b81526004016107a890612974565b6018546040516331a9108f60e11b81526004810184905283916001600160a01b031690636352211e9060240160206040518083038186803b15801561088057600080fd5b505afa158015610894573d6000803e3d6000fd5b505050506040513d601f19601f820116820180604052508101906108b89190612185565b9150505b919050565b6000816040516020016108d691815260200190565b604051602081830303815290604052805190602001209050919050565b604080516080810182526001600160a01b038681168083528284018790528582166020840181905260608401869052600a548551631cc1e17360e31b8152336004820152602481019390935260448301899052606483019190915260848201869052935192939091169163e60f0b989160a48082019260009290919082900301818387803b15801561098457600080fd5b505af1158015610998573d6000803e3d6000fd5b505050505050505050565b600082826040516020016109d392919091825260601b6bffffffffffffffffffffffff1916602082015260340190565b60405160208183030381529060405280519060200120905092915050565b60008060008787878787604051602001610a0f959493929190612740565b60408051808303601f1901815282825280516020918201208184019c909c528282018c9052815180840383018152606090930190915281519101209899975050505050505050565b6001546001600160a01b03163314610a815760405162461bcd60e51b81526004016107a890612974565b6001600160a01b038116610ad75760405162461bcd60e51b815260206004820152601860248201527f496e76616c696420636f6e74726163742061646472657373000000000000000060448201526064016107a8565b601780546001600160a01b039092166001600160a01b0319928316811790915560188054909216179055565b6001546001600160a01b03163314610b2d5760405162461bcd60e51b81526004016107a890612974565b61080d6000611ce7565b60008086868686868c604051602001610b55969594939291906127ab565b60408051808303601f19018152919052805160209091012098975050505050505050565b6000808383604051602001610b8f9291906126be565b60408051808303601f190181529190528051602090910120949350505050565b610bd97f65d7a28e3265b37a6474929f336521b332c1681b933f6cb9f3376673440d862a33610c40565b610bf55760405162461bcd60e51b81526004016107a89061292e565b61080d611d39565b6000808383604051602001610c139291906126d9565b6040516020818303038152906040528051906020012090506000818660405160200161071a9291906126be565b60009182526002602090815260408084206001600160a01b0393909316845291905290205460ff1690565b6040516bffffffffffffffffffffffff19606083901b1660208201526000906034016108d6565b604080516101408101825260008082526020820181905281830181905260608083018290526080830182905260a0830182905260c0830182905260e08301829052610100830191909152610120820152600854915163f45c157d60e01b815263ffffffff8416600482015290916001600160a01b03169063f45c157d9060240160006040518083038186803b158015610d2a57600080fd5b505afa158015610d3e573d6000803e3d6000fd5b505050506040513d6000823e601f3d908101601f191682016040526106cf9190810190612521565b6001546000906001600160a01b03163314610d935760405162461bcd60e51b81526004016107a890612974565b6018546040516331a9108f60e11b8152600481018490526001600160a01b0390911690636352211e9060240160206040518083038186803b158015610dd757600080fd5b505afa158015610deb573d6000803e3d6000fd5b505050506040513d601f19601f820116820180604052508101906106cf9190612185565b600082826040516020016109d39291906126d9565b6060336018546040516331a9108f60e11b8152600481018590526001600160a01b039283169290911690636352211e9060240160206040518083038186803b158015610e6f57600080fd5b505afa158015610e83573d6000803e3d6000fd5b505050506040513d601f19601f82011682018060405250810190610ea79190612185565b6001600160a01b03161415610ed557604051806060016040528060218152602001612c716021913992915050565b505060408051808201909152601b81527f746f6b656e206e6f742061742073656e64657220616464726573730000000000602082015290565b60085460405163f45c157d60e01b815263ffffffff83166004820152600091829182918291829182916001600160a01b039091169063f45c157d9060240160006040518083038186803b158015610f6457600080fd5b505afa158015610f78573d6000803e3d6000fd5b505050506040513d6000823e601f3d908101601f19168201604052610fa09190810190612521565b604081015160c0820151606083015160e084015161010090940151929b919a509850919650945092505050565b600082815260026020526040902060010154610fe98133611b03565b6106fb8383611bed565b61101d7f2ce8d04a9c35987429af538825cd2438cc5c5bb5dc427955f84daaa3ea10501633610c40565b6110395760405162461bcd60e51b81526004016107a8906128a4565b6001600160a01b0381166110845760405162461bcd60e51b81526020600482015260126024820152710423a5353433a2041646472657373203d20360741b60448201526064016107a8565b600480546001600160a01b0319166001600160a01b0392909216919091179055565b60008086868686866040516020016110c2959493929190612740565b60408051601f1981840301815282825280516020918201209083018b90529082018190529150606001604051602081830303815290604052805190602001209150509695505050505050565b6111387f7f1e4e9f3d9ba0452a25cfef4cd4c6ffc86158d06ed2f585fa0093e12dec429c33610c40565b6111545760405162461bcd60e51b81526004016107a8906128eb565b600260005414156111775760405162461bcd60e51b81526004016107a8906129a9565b60026000556040516323b872dd60e01b81523060048201526001600160a01b038381166024830152604482018390528416906323b872dd90606401602060405180830381600087803b1580156111cc57600080fd5b505af11580156111e0573d6000803e3d6000fd5b505050506040513d601f19601f82011682018060405250810190611204919061229e565b505060016000555050565b6112397f7f1e4e9f3d9ba0452a25cfef4cd4c6ffc86158d06ed2f585fa0093e12dec429c33610c40565b6112555760405162461bcd60e51b81526004016107a8906128eb565b600260005414156112785760405162461bcd60e51b81526004016107a8906129a9565b6002600055604051632142170760e11b81523060048201526001600160a01b038381166024830152604482018390528416906342842e0e90606401600060405180830381600087803b1580156112cd57600080fd5b505af11580156112e1573d6000803e3d6000fd5b505060016000555050505050565b600260005414156113125760405162461bcd60e51b81526004016107a8906129a9565b60026000556113417f2ce8d04a9c35987429af538825cd2438cc5c5bb5dc427955f84daaa3ea10501633610c40565b61135d5760405162461bcd60e51b81526004016107a8906128a4565b600480546040516363b8d4c160e11b815260209281019290925260086024830152672727a222afaa25a760c11b60448301526001600160a01b03169063c771a9829060640160206040518083038186803b1580156113ba57600080fd5b505afa1580156113ce573d6000803e3d6000fd5b505050506040513d601f19601f820116820180604052508101906113f29190612185565b600d80546001600160a01b039283166001600160a01b03199182168117909255600e80549091169091179055600480546040516363b8d4c160e11b815292169163c771a9829161145f91016020808252600890820152672727a222afa6a3a960c11b604082015260600190565b60206040518083038186803b15801561147757600080fd5b505afa15801561148b573d6000803e3d6000fd5b505050506040513d601f19601f820116820180604052508101906114af9190612185565b600580546001600160a01b039283166001600160a01b03199182168117909255600680549091169091179055600480546040516363b8d4c160e11b815292169163c771a9829161151d91016020808252600990820152682727a222afa9aa27a960b91b604082015260600190565b60206040518083038186803b15801561153557600080fd5b505afa158015611549573d6000803e3d6000fd5b505050506040513d601f19601f8201168201806040525081019061156d9190612185565b600780546001600160a01b039283166001600160a01b03199182168117909255600880549091169091179055600480546040516363b8d4c160e11b815292169163c771a982916115da91016020808252600890820152672aaa24a62faa25a760c11b604082015260600190565b60206040518083038186803b1580156115f257600080fd5b505afa158015611606573d6000803e3d6000fd5b505050506040513d601f19601f8201168201806040525081019061162a9190612185565b600980546001600160a01b039283166001600160a01b03199182168117909255600a80549091169091179055600480546040516363b8d4c160e11b815292169163c771a98291611694910160208082526005908201526420afaa25a760d91b604082015260600190565b60206040518083038186803b1580156116ac57600080fd5b505afa1580156116c0573d6000803e3d6000fd5b505050506040513d601f19601f820116820180604052508101906116e49190612185565b600b80546001600160a01b039283166001600160a01b03199182168117909255600c80549091169091179055600480546040516363b8d4c160e11b815292169163c771a98291611750910160208082526007908201526622a1a92fa6a3a960c91b604082015260600190565b60206040518083038186803b15801561176857600080fd5b505afa15801561177c573d6000803e3d6000fd5b505050506040513d601f19601f820116820180604052508101906117a09190612185565b600f80546001600160a01b039283166001600160a01b03199182168117909255601080549091169091179055600480546040516363b8d4c160e11b815292169163c771a98291611808910160208082526003908201526204150560ec1b604082015260600190565b60206040518083038186803b15801561182057600080fd5b505afa158015611834573d6000803e3d6000fd5b505050506040513d601f19601f820116820180604052508101906118589190612185565b601380546001600160a01b039283166001600160a01b03199182168117909255601480549091169091179055600480546040516363b8d4c160e11b815292169163c771a982916118c191016020808252600490820152632921a62960e11b604082015260600190565b60206040518083038186803b1580156118d957600080fd5b505afa1580156118ed573d6000803e3d6000fd5b505050506040513d601f19601f820116820180604052508101906119119190612185565b601180546001600160a01b039283166001600160a01b03199182168117909255601280549091169091179055600480546040516363b8d4c160e11b815292169163c771a9829161197c91016020808252600690820152654150505f4e4360d01b604082015260600190565b60206040518083038186803b15801561199457600080fd5b505afa1580156119a8573d6000803e3d6000fd5b505050506040513d601f19601f820116820180604052508101906119cc9190612185565b601580546001600160a01b0319166001600160a01b03929092169190911790556001600055565b6001546001600160a01b03163314611a1d5760405162461bcd60e51b81526004016107a890612974565b6001600160a01b038116611a825760405162461bcd60e51b815260206004820152602660248201527f4f776e61626c653a206e6577206f776e657220697320746865207a65726f206160448201526564647265737360d01b60648201526084016107a8565b611a8b81611ce7565b50565b606060008383604051602001611aa59291906126d9565b60405160208183030381529060405280519060200120905060008186604051602001611ad29291906126be565b6040516020818303038152906040528051906020012090506000611af88260001c611db4565b979650505050505050565b611b0d8282610c40565b6107bb57611b25816001600160a01b03166014611eba565b611b30836020611eba565b604051602001611b4192919061281c565b60408051601f198184030181529082905262461bcd60e51b82526107a891600401612891565b611b718282610c40565b6107bb5760008281526002602090815260408083206001600160a01b03851684529091529020805460ff19166001179055611ba93390565b6001600160a01b0316816001600160a01b0316837f2f8788117e7eff1d82e926ec794901d17c78024a50270940304540a733656f0d60405160405180910390a45050565b611bf78282610c40565b156107bb5760008281526002602090815260408083206001600160a01b0385168085529252808320805460ff1916905551339285917ff6391f5c32d9c69d2a47ea670b442974b53935d1edc7fd64eb21e047a839171b9190a45050565b60035460ff16611c9d5760405162461bcd60e51b815260206004820152601460248201527314185d5cd8589b194e881b9bdd081c185d5cd95960621b60448201526064016107a8565b6003805460ff191690557f5db9ee0a495bf2e6ff9c91a7834c1ba4fdd244a5e8aa4e537bd38aeae4b073aa335b6040516001600160a01b03909116815260200160405180910390a1565b600180546001600160a01b038381166001600160a01b0319831681179093556040519116919082907f8be0079c531659141344cd1fd0a4f28419497f9722a3daafe3b4186f6b6457e090600090a35050565b60035460ff1615611d7f5760405162461bcd60e51b815260206004820152601060248201526f14185d5cd8589b194e881c185d5cd95960821b60448201526064016107a8565b6003805460ff191660011790557f62e78cea01bee320cd4e420270b5ea74000d11b0c9f74754ebdbfc544b05a258611cca3390565b606081611dd85750506040805180820190915260018152600360fc1b602082015290565b8160005b8115611e025780611dec81612bc2565b9150611dfb9050600a83612b31565b9150611ddc565b60008167ffffffffffffffff811115611e1d57611e1d612c33565b6040519080825280601f01601f191660200182016040528015611e47576020820181803683370190505b5090505b8415611eb257611e5c600183612b64565b9150611e69600a86612bdd565b611e74906030612b19565b60f81b818381518110611e8957611e89612c1d565b60200101906001600160f81b031916908160001a905350611eab600a86612b31565b9450611e4b565b949350505050565b60606000611ec9836002612b45565b611ed4906002612b19565b67ffffffffffffffff811115611eec57611eec612c33565b6040519080825280601f01601f191660200182016040528015611f16576020820181803683370190505b509050600360fc1b81600081518110611f3157611f31612c1d565b60200101906001600160f81b031916908160001a905350600f60fb1b81600181518110611f6057611f60612c1d565b60200101906001600160f81b031916908160001a9053506000611f84846002612b45565b611f8f906001612b19565b90505b6001811115612007576f181899199a1a9b1b9c1cb0b131b232b360811b85600f1660108110611fc357611fc3612c1d565b1a60f81b828281518110611fd957611fd9612c1d565b60200101906001600160f81b031916908160001a90535060049490941c9361200081612bab565b9050611f92565b5083156120565760405162461bcd60e51b815260206004820181905260248201527f537472696e67733a20686578206c656e67746820696e73756666696369656e7460448201526064016107a8565b9392505050565b80516108bc81612c49565b60008083601f84011261207a57600080fd5b50813567ffffffffffffffff81111561209257600080fd5b6020830191508360208285010111156120aa57600080fd5b9250929050565b600082601f8301126120c257600080fd5b81356120d56120d082612af1565b612ac0565b8181528460208386010111156120ea57600080fd5b816020850160208301376000918101602001919091529392505050565b600082601f83011261211857600080fd5b81516121266120d082612af1565b81815284602083860101111561213b57600080fd5b611eb2826020830160208701612b7b565b80516108bc81612c5e565b805160ff811681146108bc57600080fd5b60006020828403121561217a57600080fd5b813561205681612c49565b60006020828403121561219757600080fd5b815161205681612c49565b6000806000606084860312156121b757600080fd5b83356121c281612c49565b925060208401356121d281612c49565b929592945050506040919091013590565b6000806000806000608086880312156121fb57600080fd5b853561220681612c49565b9450602086013561221681612c49565b935060408601359250606086013567ffffffffffffffff81111561223957600080fd5b61224588828901612068565b969995985093965092949392505050565b6000806000806080858703121561226c57600080fd5b843561227781612c49565b935060208501359250604085013561228e81612c49565b9396929550929360600135925050565b6000602082840312156122b057600080fd5b8151801515811461205657600080fd5b6000602082840312156122d257600080fd5b5035919050565b600080604083850312156122ec57600080fd5b8235915060208301356122fe81612c49565b809150509250929050565b60008060008060008060c0878903121561232257600080fd5b86359550602087013567ffffffffffffffff8082111561234157600080fd5b61234d8a838b016120b1565b9650604089013591508082111561236357600080fd5b61236f8a838b016120b1565b9550606089013591508082111561238557600080fd5b6123918a838b016120b1565b945060808901359150808211156123a757600080fd5b6123b38a838b016120b1565b935060a08901359150808211156123c957600080fd5b506123d689828a016120b1565b9150509295509295509295565b600080604083850312156123f657600080fd5b8235915060208301356122fe81612c5e565b60006020828403121561241a57600080fd5b81356001600160e01b03198116811461205657600080fd5b6000806020838503121561244557600080fd5b823567ffffffffffffffff81111561245c57600080fd5b61246885828601612068565b90969095509350505050565b6000806000806080858703121561248a57600080fd5b843567ffffffffffffffff808211156124a257600080fd5b6124ae888389016120b1565b955060208701359150808211156124c457600080fd5b6124d0888389016120b1565b945060408701359150808211156124e657600080fd5b6124f2888389016120b1565b9350606087013591508082111561250857600080fd5b50612515878288016120b1565b91505092959194509250565b60006020828403121561253357600080fd5b815167ffffffffffffffff8082111561254b57600080fd5b90830190610140828603121561256057600080fd5b612568612a96565b61257183612157565b815261257f60208401612157565b602082015261259060408401612157565b60408201526125a160608401612157565b60608201526125b26080840161214c565b60808201526125c360a0840161214c565b60a08201526125d460c0840161205d565b60c082015260e083015160e0820152610100808401518183015250610120808401518381111561260357600080fd5b61260f88828701612107565b918301919091525095945050505050565b60006020828403121561263257600080fd5b813561205681612c5e565b60008060006040848603121561265257600080fd5b833561265d81612c5e565b9250602084013567ffffffffffffffff81111561267957600080fd5b61268586828701612068565b9497909650939450505050565b600081518084526126aa816020860160208601612b7b565b601f01601f19169290920160200192915050565b91825260e01b6001600160e01b031916602082015260240190565b8183823760009101908152919050565b600085516126fb818460208a01612b7b565b85519083019061270f818360208a01612b7b565b8551910190612722818360208901612b7b565b8451910190612735818360208801612b7b565b019695505050505050565b60008651612752818460208b01612b7b565b865190830190612766818360208b01612b7b565b8651910190612779818360208a01612b7b565b855191019061278c818360208901612b7b565b845191019061279f818360208801612b7b565b01979650505050505050565b6000875160206127be8285838d01612b7b565b8851918401916127d18184848d01612b7b565b88519201916127e38184848c01612b7b565b87519201916127f58184848b01612b7b565b86519201916128078184848a01612b7b565b91909101938452909201979650505050505050565b7f416363657373436f6e74726f6c3a206163636f756e7420000000000000000000815260008351612854816017850160208801612b7b565b7001034b99036b4b9b9b4b733903937b6329607d1b6017918401918201528351612885816028840160208801612b7b565b01602801949350505050565b6020815260006120566020830184612692565b60208082526027908201527f423a4d4f443a2d4941444d2043616c6c65722021434f4e54524143545f41444d604082015266494e5f524f4c4560c81b606082015260800190565b60208082526023908201527f423a4d4f443a2d4941444d2043616c6c6572202141535345545f545846525f526040820152624f4c4560e81b606082015260800190565b60208082526026908201527f423a4d4f442d49503a43616c6c696e672061646472657373206973206e6f74206040820152653830bab9b2b960d11b606082015260800190565b6020808252818101527f4f776e61626c653a2063616c6c6572206973206e6f7420746865206f776e6572604082015260600190565b6020808252601f908201527f5265656e7472616e637947756172643a207265656e7472616e742063616c6c00604082015260600190565b602081526129f460208201835160ff169052565b60006020830151612a0a604084018260ff169052565b50604083015160ff8116606084015250606083015160ff8116608084015250608083015163ffffffff811660a08401525060a083015163ffffffff811660c08401525060c08301516001600160a01b03811660e08401525060e0830151610100838101919091528301516101208084019190915283015161014080840152611eb2610160840182612692565b604051610140810167ffffffffffffffff81118282101715612aba57612aba612c33565b60405290565b604051601f8201601f1916810167ffffffffffffffff81118282101715612ae957612ae9612c33565b604052919050565b600067ffffffffffffffff821115612b0b57612b0b612c33565b50601f01601f191660200190565b60008219821115612b2c57612b2c612bf1565b500190565b600082612b4057612b40612c07565b500490565b6000816000190483118215151615612b5f57612b5f612bf1565b500290565b600082821015612b7657612b76612bf1565b500390565b60005b83811015612b96578181015183820152602001612b7e565b83811115612ba5576000848401525b50505050565b600081612bba57612bba612bf1565b506000190190565b6000600019821415612bd657612bd6612bf1565b5060010190565b600082612bec57612bec612c07565b500690565b634e487b7160e01b600052601160045260246000fd5b634e487b7160e01b600052601260045260246000fd5b634e487b7160e01b600052603260045260246000fd5b634e487b7160e01b600052604160045260246000fd5b6001600160a01b0381168114611a8b57600080fd5b63ffffffff81168114611a8b57600080fdfe746f6b656e20636f6e6669726d65642061742073656e6465722061646472657373a264697066735822122091e50163c238ec55afcfc144bfd1080bf56c1f69947d9cfccfbb5f356289e67864736f6c63430008070033",
  "immutableReferences": {},
  "source": "/*--------------------------------------------------------PRF0.8.7\n__/\\\\\\\\\\\\\\\\\\\\\\\\\\ _____/\\\\\\\\\\\\\\\\\\ _______/\\\\__/\\\\ ___/\\\\\\\\\\\\\\\\\\\\\\\\\\\\\\        \n__\\/\\\\\\/////////\\\\\\ _/\\\\\\///////\\\\\\ ____\\//__\\//____\\/\\\\\\///////////__       \n___\\/\\\\\\_______\\/\\\\\\_\\/\\\\\\_____\\/\\\\\\ ________________\\/\\\\\\ ____________      \n____\\/\\\\\\\\\\\\\\\\\\\\\\\\\\/__\\/\\\\\\\\\\\\\\\\\\\\\\/_____/\\\\\\____/\\\\\\_\\/\\\\\\\\\\\\\\\\\\\\\\ ____     \n_____\\/\\\\\\/////////____\\/\\\\\\//////\\\\\\ ___\\/\\\\\\___\\/\\\\\\_\\/\\\\\\///////______\n______\\/\\\\\\ ____________\\/\\\\\\ ___\\//\\\\\\ __\\/\\\\\\___\\/\\\\\\_\\/\\\\\\ ____________\n_______\\/\\\\\\ ____________\\/\\\\\\ ____\\//\\\\\\ _\\/\\\\\\___\\/\\\\\\_\\/\\\\\\ ____________\n________\\/\\\\\\ ____________\\/\\\\\\ _____\\//\\\\\\_\\//\\\\\\\\\\\\\\\\\\ _\\/\\\\\\ ____________\n_________\\/// _____________\\/// _______\\/// __\\///////// __\\/// _____________\n*---------------------------------------------------------------------------*/\n\n/*-----------------------------------------------------------------\n *  TO DO\n *\n *---------------------------------------------------------------*/\n\n// SPDX-License-Identifier: UNLICENSED\npragma solidity 0.8.7;\n\nimport \"../Imports/access/Ownable.sol\";\nimport \"../Resources/PRUF_BASIC.sol\";\n\ninterface erc721_tokenInterface2 {\n    function ownerOf(uint256) external view returns (address);\n}\n\ncontract Helper2 is Ownable, BASIC {\n    address erc721ContractAddress;\n    erc721_tokenInterface2 erc721_tokenContract; //erc721_token prototype initialization\n\n    uint256 private nodeTokenIndex = 10000;\n    uint256 private currentNodeTokenPrice = 5000;\n\n    function setErc721_tokenAddress(address contractAddress) public onlyOwner {\n        require(contractAddress != address(0), \"Invalid contract address\");\n        erc721ContractAddress = contractAddress;\n        erc721_tokenContract = erc721_tokenInterface2(contractAddress);\n    }\n\n    function atWhatAddress(uint256 tokenId)\n        external\n        view\n        onlyOwner\n        returns (address)\n    {\n        return erc721_tokenContract.ownerOf(tokenId);\n    }\n\n    function atWhatAddressTokenB32(bytes32 _tokenB32)\n        external\n        view\n        onlyOwner\n        returns (address)\n    {\n        uint256 tokenId = uint256(_tokenB32);\n        return erc721_tokenContract.ownerOf(tokenId);\n    }\n\n    function atMyAddress(uint256 tokenId)\n        external\n        view\n        returns (string memory)\n    {\n        if (erc721_tokenContract.ownerOf(tokenId) == _msgSender()) {\n            return \"token confirmed at sender address\";\n        } else {\n            return \"token not at sender address\";\n        }\n    }\n\n    function getBlock() external view returns (uint256) {\n        return (block.number);\n    }\n\n    function getTime() external view returns (uint256) {\n        return (block.timestamp);\n    }\n\n    function getStringHash(string calldata _idx)\n        external\n        pure\n        returns (bytes32)\n    {\n        return keccak256(abi.encodePacked(_idx));\n    }\n\n    function getHashOfUint256AndAddress(uint256 _idx, address _address)\n        external\n        pure\n        returns (bytes32)\n    {\n        return keccak256(abi.encodePacked(_idx, _address));\n    }\n\n    function getB32Hash(bytes32 _idx) external pure returns (bytes32) {\n        return keccak256(abi.encodePacked(_idx));\n    }\n\n    function getAddrHash(address _idx) external pure returns (bytes32) {\n        return keccak256(abi.encodePacked(_idx));\n    }\n\n    function getAddrUint160(address _idx) external pure returns (uint160) {\n        return uint160(_idx);\n    }\n\n    function getUint256Hash(uint256 _idx) external pure returns (bytes32) {\n        return keccak256(abi.encodePacked(_idx));\n    }\n\n    function b32_to_uint256(bytes32 b32) external pure returns (uint256) {\n        return uint256(b32);\n    }\n\n    function uint256_to_b32(uint256 u256) external pure returns (bytes32) {\n        return bytes32(u256);\n    }\n\n    function getIdxHashRaw(\n        string memory _idx_type,\n        string memory _idx_mfg,\n        string memory _idx_mod,\n        string memory _idx_ser\n    ) external pure returns (bytes32) {\n        bytes32 idxHash;\n        idxHash = keccak256(\n            abi.encodePacked(_idx_type, _idx_mfg, _idx_mod, _idx_ser)\n        ); //get idxRaw\n        return (idxHash);\n    }\n\n    function getIdxHash(\n        bytes32 _idxhash,\n        uint32 _node\n    ) external pure returns (bytes32) {\n        bytes32 idxHash;\n        idxHash = keccak256(abi.encodePacked(_idxhash, _node)); //get idxHash\n        return (idxHash);\n    }\n\n    function getRgtHash(\n        bytes32 _idxHash,\n        string memory _rgt_first,\n        string memory _rgt_mid,\n        string memory _rgt_last,\n        string memory _rgt_ID,\n        string memory _rgt_secret\n    ) external pure returns (bytes32, bytes32) {\n        bytes32 rawRgtHash;\n\n        rawRgtHash = keccak256(\n            abi.encodePacked(\n                _rgt_first,\n                _rgt_mid,\n                _rgt_last,\n                _rgt_ID,\n                _rgt_secret\n            )\n        );\n        return (rawRgtHash, keccak256(abi.encodePacked(_idxHash, rawRgtHash)));\n    }\n\n    function getJustRgtHash(\n        bytes32 _idxHash,\n        string memory _rgt_first,\n        string memory _rgt_mid,\n        string memory _rgt_last,\n        string memory _rgt_ID,\n        string memory _rgt_secret\n    ) external pure returns (bytes32) {\n        bytes32 rawRgtHash;\n\n        rawRgtHash = keccak256(\n            abi.encodePacked(\n                _rgt_first,\n                _rgt_mid,\n                _rgt_last,\n                _rgt_ID,\n                _rgt_secret\n            )\n        );\n        return (keccak256(abi.encodePacked(_idxHash, rawRgtHash)));\n    }\n\n    function getFuckyRgtHash(\n        bytes32 _idxHash,\n        string memory _rgt_first,\n        string memory _rgt_mid,\n        string memory _rgt_last,\n        string memory _rgt_ID,\n        string memory _rgt_secret\n    ) external pure returns (bytes32) {\n        bytes32 rawRgtHash;\n\n        rawRgtHash = keccak256(\n            abi.encodePacked(\n                _rgt_first,\n                _rgt_mid,\n                _rgt_last,\n                _rgt_ID,\n                _rgt_secret,\n                _idxHash\n            )\n        );\n        return rawRgtHash;\n    }\n\n    function getURIfromAuthcode(uint32 _node, string calldata _authCode)\n        external\n        pure\n        returns (string memory)\n    {\n        bytes32 _hashedAuthCode = keccak256(abi.encodePacked(_authCode));\n        bytes32 b32URI = keccak256(abi.encodePacked(_hashedAuthCode, _node));\n        string memory authString = uint256toString(uint256(b32URI));\n\n        return authString;\n    }\n\n    function getURIb32fromAuthcode(uint32 _node, string calldata _authCode)\n        external\n        pure\n        returns (bytes32)\n    {\n        bytes32 _hashedAuthCode = keccak256(abi.encodePacked(_authCode));\n        bytes32 b32URI = keccak256(abi.encodePacked(_hashedAuthCode, _node));\n\n        return b32URI;\n    }\n\n    /**\n     * @dev Converts a `uint256` to its ASCII `string` decimal representation.\n     */\n    function uint256toString(uint256 value)\n        internal\n        pure\n        returns (string memory)\n    {\n        // Inspired by OraclizeAPI's implementation - MIT licence\n        // https://github.com/oraclize/ethereum-api/blob/b42146b063c7d6ee1358846c198246239e9360e8/oraclizeAPI_0.4.25.sol\n        // value = uint256(0x2ce8d04a9c35987429af538825cd2438cc5c5bb5dc427955f84daaa3ea105016);\n\n        if (value == 0) {\n            return \"0\";\n        }\n        uint256 temp = value;\n        uint256 digits;\n        while (temp != 0) {\n            digits++;\n            temp /= 10;\n        }\n        bytes memory buffer = new bytes(digits);\n        while (value != 0) {\n            digits -= 1;\n            buffer[digits] = bytes1(uint8(48 + uint256(value % 10)));\n            value /= 10;\n        }\n        return string(buffer);\n    }\n\n    /*\n     * @dev Retrieve node_data @ _node\n     */\n    function helper_getExtendedNodeData(uint32 _node)\n        external\n        view\n        returns (Node memory)\n    {\n        //^^^^^^^checks^^^^^^^^^\n        return NODE_STOR.getNodeData(_node);\n        //^^^^^^^interactions^^^^^^^^^\n    }\n\n    /*\n     * @dev Retrieve node_data @ _node\n     */\n    function helper_getExtendedNodeData_nostruct(uint32 _node)\n        external\n        view\n        returns (\n            uint8,\n            address,\n            uint8,\n            bytes32,\n            bytes32\n        )\n    {\n        Node memory nodeData = NODE_STOR.getNodeData(_node);\n\n        return (\n            nodeData.storageProvider,\n            nodeData.referenceAddress,\n            nodeData.switches,\n            nodeData.CAS1,\n            nodeData.CAS2\n        );\n        //^^^^^^^interactions^^^^^^^^^\n    }\n\n    function helper_payForService(\n        //uint32 _node,\n        //address _senderAddress,\n        address _rootAddress,\n        uint256 _rootPrice,\n        address _NTHaddress,\n        uint256 _NTHprice\n    ) external {\n        Invoice memory invoice;\n\n        invoice.rootAddress = _rootAddress;\n        invoice.rootPrice = _rootPrice;\n        invoice.NTHaddress = _NTHaddress;\n        invoice.NTHprice = _NTHprice;\n        //invoice.node = _node;\n\n        //UTIL_TKN.payForService(_msgSender(), invoice); //-- NON LEGACY TOKEN CONTRACT\n\n        UTIL_TKN.payForService( //LEGACY TOKEN CONTRACT\n            _msgSender(),\n            invoice.rootAddress,\n            invoice.rootPrice,\n            invoice.NTHaddress,\n            invoice.NTHprice\n        );\n    }\n\n    // struct Invoice { //invoice struct to facilitate payment messaging in-contract\n    // address rootAddress;\n    // uint256 rootPrice;\n    // address NTHaddress;\n    // uint256 NTHprice;\n\n    /*\n    struct node {\n    //Struct for holding and manipulating node data\n    string name; // NameHash for node\n    uint32 nodeRoot; // asset type root (bycyles - USA Bicycles)\n    uint8 custodyType; // custodial or noncustodial, special asset types\n    uint32 discount; // price sharing\n    uint8 storageProvider; // Future Use\n    uint8 switches; // Future Use\n    uint8 byte3; // Future Use\n    address referenceAddress; // Used with wrap / decorate\n    bytes32 content adressable storage; //content adressable storage data for defining idxHash creation attribute fields\n}\n    */\n}\n",
  "sourcePath": "/Users/drake/Documents/DEV/PRUF/PRUF_TRUFFLE/contracts/Test/test_PRUF_helper2.sol",
  "compiler": {
    "name": "solc",
    "version": "0.8.7+commit.e28d00a7.Emscripten.clang"
  },
  "schemaVersion": "3.4.3",
  "updatedAt": "2022-04-27T15:21:40.774Z",
  "devdoc": {
    "kind": "dev",
    "methods": {
      "ERC20Transfer(address,address,uint256)": {
        "details": "send an ERC20 token from this contract",
        "params": {
          "_amount": "amount to transfer",
          "_to": "destination",
          "_tokenContract": "Address of foreign token contract"
        }
      },
      "ERC721Transfer(address,address,uint256)": {
        "details": "send an ERC721 token from this contract",
        "params": {
          "_to": "destination",
          "_tokenContract": "Address of foreign token contract",
          "_tokenID": "Token ID"
        }
      },
      "getRoleAdmin(bytes32)": {
        "details": "Returns the admin role that controls `role`. See {grantRole} and {revokeRole}. To change a role's admin, use {_setRoleAdmin}."
      },
      "grantRole(bytes32,address)": {
        "details": "Grants `role` to `account`. If `account` had not been already granted `role`, emits a {RoleGranted} event. Requirements: - the caller must have ``role``'s admin role."
      },
      "hasRole(bytes32,address)": {
        "details": "Returns `true` if `account` has been granted `role`."
      },
      "onERC721Received(address,address,uint256,bytes)": {
        "details": "Compliance for erc721 reciever See OZ documentation"
      },
      "owner()": {
        "details": "Returns the address of the current owner."
      },
      "paused()": {
        "details": "Returns true if the contract is paused, and false otherwise."
      },
      "renounceOwnership()": {
        "details": "Leaves the contract without owner. It will not be possible to call `onlyOwner` functions anymore. Can only be called by the current owner. NOTE: Renouncing ownership will leave the contract without an owner, thereby removing any functionality that is only available to the owner."
      },
      "renounceRole(bytes32,address)": {
        "details": "Revokes `role` from the calling account. Roles are often managed via {grantRole} and {revokeRole}: this function's purpose is to provide a mechanism for accounts to lose their privileges if they are compromised (such as when a trusted device is misplaced). If the calling account had been granted `role`, emits a {RoleRevoked} event. Requirements: - the caller must be `account`."
      },
      "resolveContractAddresses()": {
        "details": "Resolve contract addresses from STOR"
      },
      "revokeRole(bytes32,address)": {
        "details": "Revokes `role` from `account`. If `account` had been granted `role`, emits a {RoleRevoked} event. Requirements: - the caller must have ``role``'s admin role."
      },
      "setStorageContract(address)": {
        "details": "Set address of STOR contract to interface with",
        "params": {
          "_storageAddress": "address of PRUF_STOR"
        }
      },
      "supportsInterface(bytes4)": {
        "details": "See {IERC165-supportsInterface}."
      },
      "transferOwnership(address)": {
        "details": "Transfers ownership of the contract to a new account (`newOwner`). Can only be called by the current owner."
      }
    },
    "version": 1
  },
  "userdoc": {
    "kind": "user",
    "methods": {},
    "version": 1
  }
}