{
  "contractName": "ID_TKN",
  "abi": [
    {
      "inputs": [],
      "stateMutability": "nonpayable",
      "type": "constructor"
    },
    {
      "anonymous": false,
      "inputs": [
        {
          "indexed": true,
          "internalType": "address",
          "name": "owner",
          "type": "address"
        },
        {
          "indexed": true,
          "internalType": "address",
          "name": "approved",
          "type": "address"
        },
        {
          "indexed": true,
          "internalType": "uint256",
          "name": "tokenId",
          "type": "uint256"
        }
      ],
      "name": "Approval",
      "type": "event"
    },
    {
      "anonymous": false,
      "inputs": [
        {
          "indexed": true,
          "internalType": "address",
          "name": "owner",
          "type": "address"
        },
        {
          "indexed": true,
          "internalType": "address",
          "name": "operator",
          "type": "address"
        },
        {
          "indexed": false,
          "internalType": "bool",
          "name": "approved",
          "type": "bool"
        }
      ],
      "name": "ApprovalForAll",
      "type": "event"
    },
    {
      "anonymous": false,
      "inputs": [
        {
          "indexed": true,
          "internalType": "address",
          "name": "previousOwner",
          "type": "address"
        },
        {
          "indexed": true,
          "internalType": "address",
          "name": "newOwner",
          "type": "address"
        }
      ],
      "name": "OwnershipTransferred",
      "type": "event"
    },
    {
      "anonymous": false,
      "inputs": [
        {
          "indexed": false,
          "internalType": "string",
          "name": "_msg",
          "type": "string"
        }
      ],
      "name": "REPORT",
      "type": "event"
    },
    {
      "anonymous": false,
      "inputs": [
        {
          "indexed": true,
          "internalType": "address",
          "name": "from",
          "type": "address"
        },
        {
          "indexed": true,
          "internalType": "address",
          "name": "to",
          "type": "address"
        },
        {
          "indexed": true,
          "internalType": "uint256",
          "name": "tokenId",
          "type": "uint256"
        }
      ],
      "name": "Transfer",
      "type": "event"
    },
    {
      "inputs": [
        {
          "internalType": "address",
          "name": "to",
          "type": "address"
        },
        {
          "internalType": "uint256",
          "name": "tokenId",
          "type": "uint256"
        }
      ],
      "name": "approve",
      "outputs": [],
      "stateMutability": "nonpayable",
      "type": "function"
    },
    {
      "inputs": [
        {
          "internalType": "address",
          "name": "owner",
          "type": "address"
        }
      ],
      "name": "balanceOf",
      "outputs": [
        {
          "internalType": "uint256",
          "name": "",
          "type": "uint256"
        }
      ],
      "stateMutability": "view",
      "type": "function"
    },
    {
      "inputs": [],
      "name": "baseURI",
      "outputs": [
        {
          "internalType": "string",
          "name": "",
          "type": "string"
        }
      ],
      "stateMutability": "view",
      "type": "function"
    },
    {
      "inputs": [
        {
          "internalType": "uint256",
          "name": "tokenId",
          "type": "uint256"
        }
      ],
      "name": "getApproved",
      "outputs": [
        {
          "internalType": "address",
          "name": "",
          "type": "address"
        }
      ],
      "stateMutability": "view",
      "type": "function"
    },
    {
      "inputs": [
        {
          "internalType": "address",
          "name": "owner",
          "type": "address"
        },
        {
          "internalType": "address",
          "name": "operator",
          "type": "address"
        }
      ],
      "name": "isApprovedForAll",
      "outputs": [
        {
          "internalType": "bool",
          "name": "",
          "type": "bool"
        }
      ],
      "stateMutability": "view",
      "type": "function"
    },
    {
      "inputs": [],
      "name": "name",
      "outputs": [
        {
          "internalType": "string",
          "name": "",
          "type": "string"
        }
      ],
      "stateMutability": "view",
      "type": "function"
    },
    {
      "inputs": [],
      "name": "owner",
      "outputs": [
        {
          "internalType": "address",
          "name": "",
          "type": "address"
        }
      ],
      "stateMutability": "view",
      "type": "function"
    },
    {
      "inputs": [
        {
          "internalType": "uint256",
          "name": "tokenId",
          "type": "uint256"
        }
      ],
      "name": "ownerOf",
      "outputs": [
        {
          "internalType": "address",
          "name": "",
          "type": "address"
        }
      ],
      "stateMutability": "view",
      "type": "function"
    },
    {
      "inputs": [],
      "name": "renounceOwnership",
      "outputs": [],
      "stateMutability": "nonpayable",
      "type": "function"
    },
    {
      "inputs": [
        {
          "internalType": "address",
          "name": "operator",
          "type": "address"
        },
        {
          "internalType": "bool",
          "name": "approved",
          "type": "bool"
        }
      ],
      "name": "setApprovalForAll",
      "outputs": [],
      "stateMutability": "nonpayable",
      "type": "function"
    },
    {
      "inputs": [
        {
          "internalType": "bytes4",
          "name": "interfaceId",
          "type": "bytes4"
        }
      ],
      "name": "supportsInterface",
      "outputs": [
        {
          "internalType": "bool",
          "name": "",
          "type": "bool"
        }
      ],
      "stateMutability": "view",
      "type": "function"
    },
    {
      "inputs": [],
      "name": "symbol",
      "outputs": [
        {
          "internalType": "string",
          "name": "",
          "type": "string"
        }
      ],
      "stateMutability": "view",
      "type": "function"
    },
    {
      "inputs": [
        {
          "internalType": "uint256",
          "name": "index",
          "type": "uint256"
        }
      ],
      "name": "tokenByIndex",
      "outputs": [
        {
          "internalType": "uint256",
          "name": "",
          "type": "uint256"
        }
      ],
      "stateMutability": "view",
      "type": "function"
    },
    {
      "inputs": [
        {
          "internalType": "address",
          "name": "owner",
          "type": "address"
        },
        {
          "internalType": "uint256",
          "name": "index",
          "type": "uint256"
        }
      ],
      "name": "tokenOfOwnerByIndex",
      "outputs": [
        {
          "internalType": "uint256",
          "name": "",
          "type": "uint256"
        }
      ],
      "stateMutability": "view",
      "type": "function"
    },
    {
      "inputs": [
        {
          "internalType": "uint256",
          "name": "tokenId",
          "type": "uint256"
        }
      ],
      "name": "tokenURI",
      "outputs": [
        {
          "internalType": "string",
          "name": "",
          "type": "string"
        }
      ],
      "stateMutability": "view",
      "type": "function"
    },
    {
      "inputs": [],
      "name": "totalSupply",
      "outputs": [
        {
          "internalType": "uint256",
          "name": "",
          "type": "uint256"
        }
      ],
      "stateMutability": "view",
      "type": "function"
    },
    {
      "inputs": [
        {
          "internalType": "address",
          "name": "newOwner",
          "type": "address"
        }
      ],
      "name": "transferOwnership",
      "outputs": [],
      "stateMutability": "nonpayable",
      "type": "function"
    },
    {
      "inputs": [
        {
          "internalType": "address",
          "name": "_recipientAddress",
          "type": "address"
        },
        {
          "internalType": "uint256",
          "name": "tokenId",
          "type": "uint256"
        }
      ],
      "name": "mintPRUF_IDToken",
      "outputs": [
        {
          "internalType": "uint256",
          "name": "",
          "type": "uint256"
        }
      ],
      "stateMutability": "nonpayable",
      "type": "function"
    },
    {
      "inputs": [
        {
          "internalType": "address",
          "name": "_recipientAddress",
          "type": "address"
        },
        {
          "internalType": "uint256",
          "name": "tokenId",
          "type": "uint256"
        }
      ],
      "name": "reMintPRUF_IDToken",
      "outputs": [
        {
          "internalType": "uint256",
          "name": "",
          "type": "uint256"
        }
      ],
      "stateMutability": "nonpayable",
      "type": "function"
    },
    {
      "inputs": [
        {
          "internalType": "uint256",
          "name": "tokenId",
          "type": "uint256"
        },
        {
          "internalType": "string",
          "name": "_tokenURI",
          "type": "string"
        }
      ],
      "name": "setURI",
      "outputs": [
        {
          "internalType": "uint256",
          "name": "",
          "type": "uint256"
        }
      ],
      "stateMutability": "nonpayable",
      "type": "function"
    },
    {
      "inputs": [
        {
          "internalType": "uint256",
          "name": "tokenId",
          "type": "uint256"
        }
      ],
      "name": "tokenExists",
      "outputs": [
        {
          "internalType": "uint8",
          "name": "",
          "type": "uint8"
        }
      ],
      "stateMutability": "view",
      "type": "function"
    },
    {
      "inputs": [
        {
          "internalType": "address",
          "name": "from",
          "type": "address"
        },
        {
          "internalType": "address",
          "name": "to",
          "type": "address"
        },
        {
          "internalType": "uint256",
          "name": "tokenId",
          "type": "uint256"
        }
      ],
      "name": "transferFrom",
      "outputs": [],
      "stateMutability": "nonpayable",
      "type": "function"
    },
    {
      "inputs": [
        {
          "internalType": "address",
          "name": "from",
          "type": "address"
        },
        {
          "internalType": "address",
          "name": "to",
          "type": "address"
        },
        {
          "internalType": "uint256",
          "name": "tokenId",
          "type": "uint256"
        }
      ],
      "name": "safeTransferFrom",
      "outputs": [],
      "stateMutability": "nonpayable",
      "type": "function"
    },
    {
      "inputs": [
        {
          "internalType": "address",
          "name": "from",
          "type": "address"
        },
        {
          "internalType": "address",
          "name": "to",
          "type": "address"
        },
        {
          "internalType": "uint256",
          "name": "tokenId",
          "type": "uint256"
        },
        {
          "internalType": "bytes",
          "name": "_data",
          "type": "bytes"
        }
      ],
      "name": "safeTransferFrom",
      "outputs": [],
      "stateMutability": "nonpayable",
      "type": "function"
    }
  ],
  "bytecode": "0x60806040523480156200001157600080fd5b506040518060400160405280600e81526020016d282961de231024a2102a37b5b2b760911b8152506040518060400160405280600381526020016214125160ea1b8152506000620000676200012d60201b60201c565b600080546001600160a01b0319166001600160a01b0383169081178255604051929350917f8be0079c531659141344cd1fd0a4f28419497f9722a3daafe3b4186f6b6457e0908290a350620000c36301ffc9a760e01b62000131565b8151620000d8906007906020850190620001b9565b508051620000ee906008906020840190620001b9565b50620001016380ac58cd60e01b62000131565b62000113635b5e139f60e01b62000131565b6200012563780e9d6360e01b62000131565b505062000255565b3390565b6001600160e01b0319808216141562000191576040805162461bcd60e51b815260206004820152601c60248201527f4552433136353a20696e76616c696420696e7465726661636520696400000000604482015290519081900360640190fd5b6001600160e01b0319166000908152600160208190526040909120805460ff19169091179055565b828054600181600116156101000203166002900490600052602060002090601f016020900481019282601f10620001fc57805160ff19168380011785556200022c565b828001600101855582156200022c579182015b828111156200022c5782518255916020019190600101906200020f565b506200023a9291506200023e565b5090565b5b808211156200023a57600081556001016200023f565b61261380620002656000396000f3fe608060405234801561001057600080fd5b50600436106101575760003560e01c806370a08231116100c3578063a22cb4651161007c578063a22cb46514610483578063b88d4fde146104b1578063c87b56dd14610577578063df5befb114610594578063e985e9c5146105c0578063f2fde38b146105ee57610157565b806370a08231146103a2578063715018a6146103c8578063862440e2146103d057806387338fe4146104475780638da5cb5b1461047357806395d89b411461047b57610157565b806323b872dd1161011557806323b872dd146102c85780632f745c59146102fe57806342842e0e1461032a5780634f6ccce7146103605780636352211e1461037d5780636c0360eb1461039a57610157565b8062923f9e1461015c57806301ffc9a71461018f57806306fdde03146101ca578063081812fc14610247578063095ea7b31461028057806318160ddd146102ae575b600080fd5b6101796004803603602081101561017257600080fd5b5035610614565b6040805160ff9092168252519081900360200190f35b6101b6600480360360208110156101a557600080fd5b50356001600160e01b031916610635565b604080519115158252519081900360200190f35b6101d2610654565b6040805160208082528351818301528351919283929083019185019080838360005b8381101561020c5781810151838201526020016101f4565b50505050905090810190601f1680156102395780820380516001836020036101000a031916815260200191505b509250505060405180910390f35b6102646004803603602081101561025d57600080fd5b50356106ea565b604080516001600160a01b039092168252519081900360200190f35b6102ac6004803603604081101561029657600080fd5b506001600160a01b03813516906020013561074c565b005b6102b6610827565b60408051918252519081900360200190f35b6102ac600480360360608110156102de57600080fd5b506001600160a01b03813581169160208101359091169060400135610838565b6102b66004803603604081101561031457600080fd5b506001600160a01b0381351690602001356108df565b6102ac6004803603606081101561034057600080fd5b506001600160a01b0381358116916020810135909116906040013561090a565b6102b66004803603602081101561037657600080fd5b5035610925565b6102646004803603602081101561039357600080fd5b503561093b565b6101d2610963565b6102b6600480360360208110156103b857600080fd5b50356001600160a01b03166109c4565b6102ac610a2c565b6102b6600480360360408110156103e657600080fd5b8135919081019060408101602082013564010000000081111561040857600080fd5b82018360208201111561041a57600080fd5b8035906020019184600183028401116401000000008311171561043c57600080fd5b509092509050610ae0565b6102b66004803603604081101561045d57600080fd5b506001600160a01b038135169060200135610b78565b610264610c15565b6101d2610c24565b6102ac6004803603604081101561049957600080fd5b506001600160a01b0381351690602001351515610c85565b6102ac600480360360808110156104c757600080fd5b6001600160a01b0382358116926020810135909116916040820135919081019060808101606082013564010000000081111561050257600080fd5b82018360208201111561051457600080fd5b8035906020019184600183028401116401000000008311171561053657600080fd5b91908080601f016020809104026020016040519081016040528093929190818152602001838380828437600092019190915250929550610d8a945050505050565b6101d26004803603602081101561058d57600080fd5b5035610e38565b6102b6600480360360408110156105aa57600080fd5b506001600160a01b0381351690602001356110df565b6101b6600480360360408110156105d657600080fd5b506001600160a01b03813581169160200135166111ae565b6102ac6004803603602081101561060457600080fd5b50356001600160a01b03166111dc565b600061061f826112e6565b1561062c575060aa610630565b5060005b919050565b6001600160e01b03191660009081526001602052604090205460ff1690565b60078054604080516020601f60026000196101006001881615020190951694909404938401819004810282018101909252828152606093909290918301828280156106e05780601f106106b5576101008083540402835291602001916106e0565b820191906000526020600020905b8154815290600101906020018083116106c357829003601f168201915b5050505050905090565b60006106f5826112e6565b6107305760405162461bcd60e51b815260040180806020018281038252602c81526020018061243c602c913960400191505060405180910390fd5b506000908152600560205260409020546001600160a01b031690565b60006107578261093b565b9050806001600160a01b0316836001600160a01b031614156107aa5760405162461bcd60e51b81526004018080602001828103825260218152602001806124ec6021913960400191505060405180910390fd5b806001600160a01b03166107bc6112f3565b6001600160a01b031614806107dd57506107dd816107d86112f3565b6111ae565b6108185760405162461bcd60e51b815260040180806020018281038252603881526020018061238f6038913960400191505060405180910390fd5b61082283836112f7565b505050565b60006108336003611365565b905090565b6108496108436112f3565b82611370565b6108845760405162461bcd60e51b81526004018080602001828103825260318152602001806122e76031913960400191505060405180910390fd5b826001600160a01b0316826001600160a01b0316146108d45760405162461bcd60e51b81526004018080602001828103825260678152602001806125776067913960800191505060405180910390fd5b610822838383611414565b6001600160a01b03821660009081526002602052604081206109019083611560565b90505b92915050565b61082283838360405180602001604052806000815250610d8a565b60008061093360038461156c565b509392505050565b6000610904826040518060600160405280602981526020016123f16029913960039190611588565b600a8054604080516020601f60026000196101006001881615020190951694909404938401819004810282018101909252828152606093909290918301828280156106e05780601f106106b5576101008083540402835291602001916106e0565b60006001600160a01b038216610a0b5760405162461bcd60e51b815260040180806020018281038252602a8152602001806123c7602a913960400191505060405180910390fd5b6001600160a01b038216600090815260026020526040902061090490611365565b610a346112f3565b6000546001600160a01b03908116911614610a96576040805162461bcd60e51b815260206004820181905260248201527f4f776e61626c653a2063616c6c6572206973206e6f7420746865206f776e6572604482015290519081900360640190fd5b600080546040516001600160a01b03909116907f8be0079c531659141344cd1fd0a4f28419497f9722a3daafe3b4186f6b6457e0908390a3600080546001600160a01b0319169055565b6000610af3610aed6112f3565b85611370565b610b2e5760405162461bcd60e51b815260040180806020018281038252602a8152602001806122bd602a913960400191505060405180910390fd5b610b6e8484848080601f01602080910402602001604051908101604052809392919081815260200183838082843760009201919091525061159592505050565b50825b9392505050565b6000610b82610c15565b6001600160a01b0316336001600160a01b031614610bd15760405162461bcd60e51b81526004018080602001828103825260378152602001806125406037913960400191505060405180910390fd5b610bdb83836115f8565b610c0f82604051806040016040528060128152602001711a1d1d1c1cce8bcbdc1c9d598b9a5bcbd25160721b815250611595565b50919050565b6000546001600160a01b031690565b60088054604080516020601f60026000196101006001881615020190951694909404938401819004810282018101909252828152606093909290918301828280156106e05780601f106106b5576101008083540402835291602001916106e0565b610c8d6112f3565b6001600160a01b0316826001600160a01b03161415610cf3576040805162461bcd60e51b815260206004820152601960248201527f4552433732313a20617070726f766520746f2063616c6c657200000000000000604482015290519081900360640190fd5b8060066000610d006112f3565b6001600160a01b03908116825260208083019390935260409182016000908120918716808252919093529120805460ff191692151592909217909155610d446112f3565b6001600160a01b03167f17307eab39ab6107e8899845ad3d59bd9653f200f220920489ca2b5937696c318360405180821515815260200191505060405180910390a35050565b610d9b610d956112f3565b83611370565b610dd65760405162461bcd60e51b815260040180806020018281038252603381526020018061250d6033913960400191505060405180910390fd5b836001600160a01b0316836001600160a01b031614610e265760405162461bcd60e51b81526004018080602001828103825260688152602001806121fd6068913960800191505060405180910390fd5b610e3284858484611616565b50505050565b6060610e43826112e6565b610e7e5760405162461bcd60e51b815260040180806020018281038252602f8152602001806124bd602f913960400191505060405180910390fd5b60008281526009602090815260409182902080548351601f6002600019610100600186161502019093169290920491820184900484028101840190945280845260609392830182828015610f135780601f10610ee857610100808354040283529160200191610f13565b820191906000526020600020905b815481529060010190602001808311610ef657829003601f168201915b5050600a5493945050505060026000196101006001841615020190911604610f3c579050610630565b80511561100d57600a816040516020018083805460018160011615610100020316600290048015610fa45780601f10610f82576101008083540402835291820191610fa4565b820191906000526020600020905b815481529060010190602001808311610f90575b5050825160208401908083835b60208310610fd05780518252601f199092019160209182019101610fb1565b6001836020036101000a03801982511681845116808217855250505050505090500192505050604051602081830303815290604052915050610630565b600a61101884611668565b60405160200180838054600181600116156101000203166002900480156110765780601f10611054576101008083540402835291820191611076565b820191906000526020600020905b815481529060010190602001808311611062575b5050825160208401908083835b602083106110a25780518252601f199092019160209182019101611083565b6001836020036101000a03801982511681845116808217855250505050505090500192505050604051602081830303815290604052915050919050565b60006110e9610c15565b6001600160a01b0316336001600160a01b0316146111385760405162461bcd60e51b81526004018080602001828103825260378152602001806125406037913960400191505060405180910390fd5b611141826112e6565b61117c5760405162461bcd60e51b815260040180806020018281038252602781526020018061233c6027913960400191505060405180910390fd5b606061118783610e38565b905061119283611743565b61119c84846115f8565b6111a68382611595565b509092915050565b6001600160a01b03918216600090815260066020908152604080832093909416825291909152205460ff1690565b6111e46112f3565b6000546001600160a01b03908116911614611246576040805162461bcd60e51b815260206004820181905260248201527f4f776e61626c653a2063616c6c6572206973206e6f7420746865206f776e6572604482015290519081900360640190fd5b6001600160a01b03811661128b5760405162461bcd60e51b81526004018080602001828103825260268152602001806122976026913960400191505060405180910390fd5b600080546040516001600160a01b03808516939216917f8be0079c531659141344cd1fd0a4f28419497f9722a3daafe3b4186f6b6457e091a3600080546001600160a01b0319166001600160a01b0392909216919091179055565b6000610904600383611810565b3390565b600081815260056020526040902080546001600160a01b0319166001600160a01b038416908117909155819061132c8261093b565b6001600160a01b03167f8c5be1e5ebec7d5bd14f71427d1e84f3dd0314c0f7b2291e5b200ac8c7c3b92560405160405180910390a45050565b60006109048261181c565b600061137b826112e6565b6113b65760405162461bcd60e51b815260040180806020018281038252602c815260200180612363602c913960400191505060405180910390fd5b60006113c18361093b565b9050806001600160a01b0316846001600160a01b031614806113fc5750836001600160a01b03166113f1846106ea565b6001600160a01b0316145b8061140c575061140c81856111ae565b949350505050565b826001600160a01b03166114278261093b565b6001600160a01b03161461146c5760405162461bcd60e51b81526004018080602001828103825260298152602001806124946029913960400191505060405180910390fd5b6001600160a01b0382166114b15760405162461bcd60e51b81526004018080602001828103825260248152602001806123186024913960400191505060405180910390fd5b6114bc838383610822565b6114c76000826112f7565b6001600160a01b03831660009081526002602052604090206114e99082611820565b506001600160a01b038216600090815260026020526040902061150c908261182c565b5061151960038284611838565b5080826001600160a01b0316846001600160a01b03167fddf252ad1be2c89b69c2b068fc378daa952ba7f163c4a11628f55a4df523b3ef60405160405180910390a4505050565b6000610901838361184e565b600080808061157b86866118b2565b9097909650945050505050565b600061140c84848461192d565b61159e826112e6565b6115d95760405162461bcd60e51b815260040180806020018281038252602c815260200180612468602c913960400191505060405180910390fd5b6000828152600960209081526040909120825161082292840190612100565b6116128282604051806020016040528060008152506119f7565b5050565b611621848484611414565b61162d84848484611a49565b610e325760405162461bcd60e51b81526004018080602001828103825260328152602001806122656032913960400191505060405180910390fd5b60608161168d57506040805180820190915260018152600360fc1b6020820152610630565b8160005b81156116a557600101600a82049150611691565b60608167ffffffffffffffff811180156116be57600080fd5b506040519080825280601f01601f1916602001820160405280156116e9576020820181803683370190505b50859350905060001982015b831561173a57600a840660300160f81b8282806001900393508151811061171857fe5b60200101906001600160f81b031916908160001a905350600a840493506116f5565b50949350505050565b600061174e8261093b565b905061175c81600084610822565b6117676000836112f7565b60008281526009602052604090205460026000196101006001841615020190911604156117a55760008281526009602052604081206117a59161217e565b6001600160a01b03811660009081526002602052604090206117c79083611820565b506117d3600383611bb1565b5060405182906000906001600160a01b038416907fddf252ad1be2c89b69c2b068fc378daa952ba7f163c4a11628f55a4df523b3ef908390a45050565b60006109018383611bbd565b5490565b60006109018383611bd5565b60006109018383611c9b565b600061140c84846001600160a01b038516611ce5565b815460009082106118905760405162461bcd60e51b81526004018080602001828103825260228152602001806121db6022913960400191505060405180910390fd5b82600001828154811061189f57fe5b9060005260206000200154905092915050565b8154600090819083106118f65760405162461bcd60e51b815260040180806020018281038252602281526020018061241a6022913960400191505060405180910390fd5b600084600001848154811061190757fe5b906000526020600020906002020190508060000154816001015492509250509250929050565b600082815260018401602052604081205482816119c85760405162461bcd60e51b81526004018080602001828103825283818151815260200191508051906020019080838360005b8381101561198d578181015183820152602001611975565b50505050905090810190601f1680156119ba5780820380516001836020036101000a031916815260200191505b509250505060405180910390fd5b508460000160018203815481106119db57fe5b9060005260206000209060020201600101549150509392505050565b611a018383611d7c565b611a0e6000848484611a49565b6108225760405162461bcd60e51b81526004018080602001828103825260328152602001806122656032913960400191505060405180910390fd5b6000611a5d846001600160a01b0316611eaa565b611a695750600161140c565b6060611b77630a85bd0160e11b611a7e6112f3565b88878760405160240180856001600160a01b03168152602001846001600160a01b0316815260200183815260200180602001828103825283818151815260200191508051906020019080838360005b83811015611ae5578181015183820152602001611acd565b50505050905090810190601f168015611b125780820380516001836020036101000a031916815260200191505b5095505050505050604051602081830303815290604052906001600160e01b0319166020820180516001600160e01b038381831617835250505050604051806060016040528060328152602001612265603291396001600160a01b0388169190611eb0565b90506000818060200190516020811015611b9057600080fd5b50516001600160e01b031916630a85bd0160e11b1492505050949350505050565b60006109018383611ebf565b60009081526001919091016020526040902054151590565b60008181526001830160205260408120548015611c915783546000198083019190810190600090879083908110611c0857fe5b9060005260206000200154905080876000018481548110611c2557fe5b600091825260208083209091019290925582815260018981019092526040902090840190558654879080611c5557fe5b60019003818190600052602060002001600090559055866001016000878152602001908152602001600020600090556001945050505050610904565b6000915050610904565b6000611ca78383611bbd565b611cdd57508154600181810184556000848152602080822090930184905584548482528286019093526040902091909155610904565b506000610904565b600082815260018401602052604081205480611d4a575050604080518082018252838152602080820184815286546001818101895560008981528481209551600290930290950191825591519082015586548684528188019092529290912055610b71565b82856000016001830381548110611d5d57fe5b9060005260206000209060020201600101819055506000915050610b71565b6001600160a01b038216611dd7576040805162461bcd60e51b815260206004820181905260248201527f4552433732313a206d696e7420746f20746865207a65726f2061646472657373604482015290519081900360640190fd5b611de0816112e6565b15611e32576040805162461bcd60e51b815260206004820152601c60248201527f4552433732313a20746f6b656e20616c7265616479206d696e74656400000000604482015290519081900360640190fd5b611e3e60008383610822565b6001600160a01b0382166000908152600260205260409020611e60908261182c565b50611e6d60038284611838565b5060405181906001600160a01b038416906000907fddf252ad1be2c89b69c2b068fc378daa952ba7f163c4a11628f55a4df523b3ef908290a45050565b3b151590565b606061140c8484600085611f93565b60008181526001830160205260408120548015611c915783546000198083019190810190600090879083908110611ef257fe5b9060005260206000209060020201905080876000018481548110611f1257fe5b600091825260208083208454600290930201918255600193840154918401919091558354825289830190526040902090840190558654879080611f5157fe5b60008281526020808220600260001990940193840201828155600190810183905592909355888152898201909252604082209190915594506109049350505050565b6060611f9e85611eaa565b611fef576040805162461bcd60e51b815260206004820152601d60248201527f416464726573733a2063616c6c20746f206e6f6e2d636f6e7472616374000000604482015290519081900360640190fd5b60006060866001600160a01b031685876040518082805190602001908083835b6020831061202e5780518252601f19909201916020918201910161200f565b6001836020036101000a03801982511681845116808217855250505050505090500191505060006040518083038185875af1925050503d8060008114612090576040519150601f19603f3d011682016040523d82523d6000602084013e612095565b606091505b509150915081156120a957915061140c9050565b8051156120b95780518082602001fd5b60405162461bcd60e51b815260206004820181815286516024840152865187939192839260440191908501908083836000831561198d578181015183820152602001611975565b828054600181600116156101000203166002900490600052602060002090601f016020900481019282601f1061214157805160ff191683800117855561216e565b8280016001018555821561216e579182015b8281111561216e578251825591602001919060010190612153565b5061217a9291506121c5565b5090565b50805460018160011615610100020316600290046000825580601f106121a457506121c2565b601f0160209004906000526020600020908101906121c291906121c5565b50565b5b8082111561217a57600081556001016121c656fe456e756d657261626c655365743a20696e646578206f7574206f6620626f756e6473504944543a5354463a546f6b656e206e6f74207472616e736665727261626c652077697468207374616e64617264204552433732312070726f746f636f6c2e204d7573742062652072656d696e7465642062792061646d696e20746f206e657720616464726573734552433732313a207472616e7366657220746f206e6f6e20455243373231526563656976657220696d706c656d656e7465724f776e61626c653a206e6577206f776e657220697320746865207a65726f2061646472657373504944543a535552493a63616c6c6572206973206e6f74206f776e6572206e6f7220617070726f766564504944543a54463a7472616e736665722063616c6c6572206973206e6f74206f776e6572206e6f7220617070726f7665644552433732313a207472616e7366657220746f20746865207a65726f2061646472657373504944543a524d3a43616e6e6f742052656d696e74206e6f6e6578697374616e7420746f6b656e4552433732313a206f70657261746f7220717565727920666f72206e6f6e6578697374656e7420746f6b656e4552433732313a20617070726f76652063616c6c6572206973206e6f74206f776e6572206e6f7220617070726f76656420666f7220616c6c4552433732313a2062616c616e636520717565727920666f7220746865207a65726f20616464726573734552433732313a206f776e657220717565727920666f72206e6f6e6578697374656e7420746f6b656e456e756d657261626c654d61703a20696e646578206f7574206f6620626f756e64734552433732313a20617070726f76656420717565727920666f72206e6f6e6578697374656e7420746f6b656e4552433732314d657461646174613a2055524920736574206f66206e6f6e6578697374656e7420746f6b656e4552433732313a207472616e73666572206f6620746f6b656e2074686174206973206e6f74206f776e4552433732314d657461646174613a2055524920717565727920666f72206e6f6e6578697374656e7420746f6b656e4552433732313a20617070726f76616c20746f2063757272656e74206f776e6572504944543a5354463a207472616e736665722063616c6c6572206973206e6f74206f776e6572206e6f7220617070726f766564504944543a4d4f442d49413a43616c6c696e67206164647265737320646f6573206e6f742062656c6f6e6720746f20616e2041646d696e504944543a54463a546f6b656e206e6f74207472616e736665727261626c652077697468207374616e64617264204552433732312070726f746f636f6c2e204d7573742062652072656d696e7465642062792061646d696e20746f206e65772061646472657373a26469706673582212206b4c1586a1bf01b50ed52486a3e0d9094732681602b8046c1bb20845637c985864736f6c634300060c0033",
  "immutableReferences": {},
  "source": "/*-----------------------------------------------------------V0.7.0\n__/\\\\\\\\\\\\\\\\\\\\\\\\\\ _____/\\\\\\\\\\\\\\\\\\ _______/\\\\../\\\\ ___/\\\\\\\\\\\\\\\\\\\\\\\\\\\\\\\n _\\/\\\\\\/////////\\\\\\ _/\\\\\\///////\\\\\\ ____\\//..\\//____\\/\\\\\\///////////__\n  _\\/\\\\\\.......\\/\\\\\\.\\/\\\\\\.....\\/\\\\\\ ________________\\/\\\\\\ ____________\n   _\\/\\\\\\\\\\\\\\\\\\\\\\\\\\/__\\/\\\\\\\\\\\\\\\\\\\\\\/_____/\\\\\\____/\\\\\\.\\/\\\\\\\\\\\\\\\\\\\\\\ ____\n    _\\/\\\\\\/////////____\\/\\\\\\//////\\\\\\ ___\\/\\\\\\___\\/\\\\\\.\\/\\\\\\///////______\n     _\\/\\\\\\ ____________\\/\\\\\\ ___\\//\\\\\\ __\\/\\\\\\___\\/\\\\\\.\\/\\\\\\ ____________\n      _\\/\\\\\\ ____________\\/\\\\\\ ____\\//\\\\\\ _\\/\\\\\\___\\/\\\\\\.\\/\\\\\\ ____________\n       _\\/\\\\\\ ____________\\/\\\\\\ _____\\//\\\\\\.\\//\\\\\\\\\\\\\\\\\\ _\\/\\\\\\ ____________\n        _\\/// _____________\\/// _______\\/// __\\///////// __\\/// _____________\n         *-------------------------------------------------------------------*/\n\n/*-----------------------------------------------------------------\n *  TO DO\n *\n *---------------------------------------------------------------*/\n\n// SPDX-License-Identifier: UNLICENSED\npragma solidity ^0.6.7;\n\nimport \"./Imports/token/ERC721/ERC721.sol\";\nimport \"./Imports/access/Ownable.sol\";\nimport \"./PRUF_INTERFACES.sol\";\nimport \"./Imports/utils/ReentrancyGuard.sol\";\n\ncontract ID_TKN is Ownable, ERC721 {\n    constructor() public ERC721(\"PRF ID Token\", \"PID\") {}\n\n    event REPORT(string _msg);\n\n    modifier isAdmin() {\n        require(\n            (msg.sender == owner()),\n            \"PIDT:MOD-IA:Calling address does not belong to an Admin\"\n        );\n        _;\n    }\n\n    //----------------------Internal Admin functions / onlyowner or isAdmin----------------------//\n\n    /*\n     * @dev Mint new PRUF_ID token\n     */\n    function mintPRUF_IDToken(address _recipientAddress, uint256 tokenId)\n        external\n        isAdmin\n        returns (uint256)\n    {\n        //^^^^^^^checks^^^^^^^^^\n\n        //MAKE URI ASSET SPECIFIC- has to incorporate the token ID\n        _safeMint(_recipientAddress, tokenId);\n        _setTokenURI(tokenId, \"https://pruf.io/ID\");\n        return tokenId;\n        //^^^^^^^interactions^^^^^^^^^\n    }\n\n    /*\n     * @dev remint Asset Token\n     * must set a new and unuiqe rgtHash\n     * burns old token\n     * Sends new token to original Caller\n     */\n    function reMintPRUF_IDToken(address _recipientAddress, uint256 tokenId)\n        external\n        isAdmin\n        returns (uint256)\n    {\n        require(_exists(tokenId), \"PIDT:RM:Cannot Remint nonexistant token\");\n        //^^^^^^^checks^^^^^^^^^\n        string memory tokenURI = tokenURI(tokenId);\n        _burn(tokenId);\n        _safeMint(_recipientAddress, tokenId);\n        _setTokenURI(tokenId, tokenURI);\n        return tokenId;\n        //^^^^^^^interactions^^^^^^^^^\n    }\n\n    /*\n     * @dev Set new token URI String\n     */\n    function setURI(uint256 tokenId, string calldata _tokenURI)\n        external\n        returns (uint256)\n    {\n        require(\n            _isApprovedOrOwner(_msgSender(), tokenId),\n            \"PIDT:SURI:caller is not owner nor approved\"\n        );\n        //^^^^^^^checks^^^^^^^^^\n\n        _setTokenURI(tokenId, _tokenURI);\n        return tokenId;\n        //^^^^^^^interactions^^^^^^^^^\n    }\n\n    /*\n     * @dev See if token exists\n     */\n    function tokenExists(uint256 tokenId) external view returns (uint8) {\n        if (_exists(tokenId)) {\n            return 170;\n        } else {\n            return 0;\n        }\n    }\n\n    /**\n     * @dev @dev Blocks the transfer of a given token ID to another address\n     * Usage of this method is discouraged, use {safeTransferFrom} whenever possible.\n     * Requires the msg.sender to be the owner, approved, or operator.\n     */\n    function transferFrom(\n        address from,\n        address to,\n        uint256 tokenId\n    ) public override {\n        require(\n            _isApprovedOrOwner(_msgSender(), tokenId),\n            \"PIDT:TF:transfer caller is not owner nor approved\"\n        );\n        require(\n            to == from,\n            \"PIDT:TF:Token not transferrable with standard ERC721 protocol. Must be reminted by admin to new address\"\n        );\n        //^^^^^^^checks^^^^^^^^\n\n        _transfer(from, to, tokenId);\n        //^^^^^^^interactions^^^^^^^^^\n    }\n\n    /**\n     * @dev Safely blocks the transfer of a given token ID to another address\n     * If the target address is a contract, it must implement {IERC721Receiver-onERC721Received},\n     * which is called upon a safe transfer, and return the magic value\n     * `bytes4(keccak256(\"onERC721Received(address,address,uint256,bytes)\"))`; otherwise,\n     * the transfer is reverted.\n     * Requires the msg.sender to be the owner, approved, or operator\n     */\n    function safeTransferFrom(\n        address from,\n        address to,\n        uint256 tokenId\n    ) public override {\n        safeTransferFrom(from, to, tokenId, \"\");\n        //^^^^^^^interactions^^^^^^^^^\n    }\n\n    /**\n     * @dev Safely blocks the transfer of a given token ID to another address\n     * If the target address is a contract, it must implement {IERC721Receiver-onERC721Received},\n     * which is called upon a safe transfer, and return the magic value\n     * `bytes4(keccak256(\"onERC721Received(address,address,uint256,bytes)\"))`; otherwise,\n     * the transfer is reverted.\n     * Requires the _msgSender() to be the owner, approved, or operator\n     * @param from current owner of the token\n     * @param to address to receive the ownership of the given token ID\n     * @param tokenId uint256 ID of the token to be transferred\n     * @param _data bytes data to send along with a safe transfer check\n     */\n    function safeTransferFrom(\n        address from,\n        address to,\n        uint256 tokenId,\n        bytes memory _data\n    ) public virtual override {\n        require(\n            _isApprovedOrOwner(_msgSender(), tokenId),\n            \"PIDT:STF: transfer caller is not owner nor approved\"\n        );\n        require(\n            to == from,\n            \"PIDT:STF:Token not transferrable with standard ERC721 protocol. Must be reminted by admin to new address\"\n        );\n\n        //^^^^^^^checks^^^^^^^^^\n\n        _safeTransfer(from, from, tokenId, _data);\n        //^^^^^^^interactions^^^^^^^^^\n    }\n}\n",
  "sourcePath": "/Users/cts/dev/PRUF/PRUF_TRUFFLE/contracts/PRUF_ID_TKN.sol",
  "compiler": {
    "name": "solc",
    "version": "0.6.12+commit.27d51765.Emscripten.clang"
  },
  "schemaVersion": "3.2.3",
  "updatedAt": "2020-09-22T21:30:52.694Z",
  "devdoc": {
    "kind": "dev",
    "methods": {
      "approve(address,uint256)": {
        "details": "See {IERC721-approve}."
      },
      "balanceOf(address)": {
        "details": "See {IERC721-balanceOf}."
      },
      "baseURI()": {
        "details": "Returns the base URI set via {_setBaseURI}. This will be automatically added as a prefix in {tokenURI} to each token's URI, or to the token ID if no specific URI is set for that token ID."
      },
      "getApproved(uint256)": {
        "details": "See {IERC721-getApproved}."
      },
      "isApprovedForAll(address,address)": {
        "details": "See {IERC721-isApprovedForAll}."
      },
      "name()": {
        "details": "See {IERC721Metadata-name}."
      },
      "owner()": {
        "details": "Returns the address of the current owner."
      },
      "ownerOf(uint256)": {
        "details": "See {IERC721-ownerOf}."
      },
      "renounceOwnership()": {
        "details": "Leaves the contract without owner. It will not be possible to call `onlyOwner` functions anymore. Can only be called by the current owner. NOTE: Renouncing ownership will leave the contract without an owner, thereby removing any functionality that is only available to the owner."
      },
      "safeTransferFrom(address,address,uint256)": {
        "details": "Safely blocks the transfer of a given token ID to another address If the target address is a contract, it must implement {IERC721Receiver-onERC721Received}, which is called upon a safe transfer, and return the magic value `bytes4(keccak256(\"onERC721Received(address,address,uint256,bytes)\"))`; otherwise, the transfer is reverted. Requires the msg.sender to be the owner, approved, or operator"
      },
      "safeTransferFrom(address,address,uint256,bytes)": {
        "details": "Safely blocks the transfer of a given token ID to another address If the target address is a contract, it must implement {IERC721Receiver-onERC721Received}, which is called upon a safe transfer, and return the magic value `bytes4(keccak256(\"onERC721Received(address,address,uint256,bytes)\"))`; otherwise, the transfer is reverted. Requires the _msgSender() to be the owner, approved, or operator",
        "params": {
          "_data": "bytes data to send along with a safe transfer check",
          "from": "current owner of the token",
          "to": "address to receive the ownership of the given token ID",
          "tokenId": "uint256 ID of the token to be transferred"
        }
      },
      "setApprovalForAll(address,bool)": {
        "details": "See {IERC721-setApprovalForAll}."
      },
      "supportsInterface(bytes4)": {
        "details": "See {IERC165-supportsInterface}. Time complexity O(1), guaranteed to always use less than 30 000 gas."
      },
      "symbol()": {
        "details": "See {IERC721Metadata-symbol}."
      },
      "tokenByIndex(uint256)": {
        "details": "See {IERC721Enumerable-tokenByIndex}."
      },
      "tokenOfOwnerByIndex(address,uint256)": {
        "details": "See {IERC721Enumerable-tokenOfOwnerByIndex}."
      },
      "tokenURI(uint256)": {
        "details": "See {IERC721Metadata-tokenURI}."
      },
      "totalSupply()": {
        "details": "See {IERC721Enumerable-totalSupply}."
      },
      "transferFrom(address,address,uint256)": {
        "details": "@dev Blocks the transfer of a given token ID to another address Usage of this method is discouraged, use {safeTransferFrom} whenever possible. Requires the msg.sender to be the owner, approved, or operator."
      },
      "transferOwnership(address)": {
        "details": "Transfers ownership of the contract to a new account (`newOwner`). Can only be called by the current owner."
      }
    },
    "version": 1
  },
  "userdoc": {
    "kind": "user",
    "methods": {},
    "version": 1
  }
}