{
  "contractName": "ID_TKN",
  "abi": [
    {
      "inputs": [],
      "stateMutability": "nonpayable",
      "type": "constructor"
    },
    {
      "anonymous": false,
      "inputs": [
        {
          "indexed": true,
          "internalType": "address",
          "name": "owner",
          "type": "address"
        },
        {
          "indexed": true,
          "internalType": "address",
          "name": "approved",
          "type": "address"
        },
        {
          "indexed": true,
          "internalType": "uint256",
          "name": "tokenId",
          "type": "uint256"
        }
      ],
      "name": "Approval",
      "type": "event"
    },
    {
      "anonymous": false,
      "inputs": [
        {
          "indexed": true,
          "internalType": "address",
          "name": "owner",
          "type": "address"
        },
        {
          "indexed": true,
          "internalType": "address",
          "name": "operator",
          "type": "address"
        },
        {
          "indexed": false,
          "internalType": "bool",
          "name": "approved",
          "type": "bool"
        }
      ],
      "name": "ApprovalForAll",
      "type": "event"
    },
    {
      "anonymous": false,
      "inputs": [
        {
          "indexed": false,
          "internalType": "address",
          "name": "account",
          "type": "address"
        }
      ],
      "name": "Paused",
      "type": "event"
    },
    {
      "anonymous": false,
      "inputs": [
        {
          "indexed": false,
          "internalType": "string",
          "name": "_msg",
          "type": "string"
        }
      ],
      "name": "REPORT",
      "type": "event"
    },
    {
      "anonymous": false,
      "inputs": [
        {
          "indexed": true,
          "internalType": "bytes32",
          "name": "role",
          "type": "bytes32"
        },
        {
          "indexed": true,
          "internalType": "bytes32",
          "name": "previousAdminRole",
          "type": "bytes32"
        },
        {
          "indexed": true,
          "internalType": "bytes32",
          "name": "newAdminRole",
          "type": "bytes32"
        }
      ],
      "name": "RoleAdminChanged",
      "type": "event"
    },
    {
      "anonymous": false,
      "inputs": [
        {
          "indexed": true,
          "internalType": "bytes32",
          "name": "role",
          "type": "bytes32"
        },
        {
          "indexed": true,
          "internalType": "address",
          "name": "account",
          "type": "address"
        },
        {
          "indexed": true,
          "internalType": "address",
          "name": "sender",
          "type": "address"
        }
      ],
      "name": "RoleGranted",
      "type": "event"
    },
    {
      "anonymous": false,
      "inputs": [
        {
          "indexed": true,
          "internalType": "bytes32",
          "name": "role",
          "type": "bytes32"
        },
        {
          "indexed": true,
          "internalType": "address",
          "name": "account",
          "type": "address"
        },
        {
          "indexed": true,
          "internalType": "address",
          "name": "sender",
          "type": "address"
        }
      ],
      "name": "RoleRevoked",
      "type": "event"
    },
    {
      "anonymous": false,
      "inputs": [
        {
          "indexed": true,
          "internalType": "address",
          "name": "from",
          "type": "address"
        },
        {
          "indexed": true,
          "internalType": "address",
          "name": "to",
          "type": "address"
        },
        {
          "indexed": true,
          "internalType": "uint256",
          "name": "tokenId",
          "type": "uint256"
        }
      ],
      "name": "Transfer",
      "type": "event"
    },
    {
      "anonymous": false,
      "inputs": [
        {
          "indexed": false,
          "internalType": "address",
          "name": "account",
          "type": "address"
        }
      ],
      "name": "Unpaused",
      "type": "event"
    },
    {
      "inputs": [],
      "name": "CONTRACT_ADMIN_ROLE",
      "outputs": [
        {
          "internalType": "bytes32",
          "name": "",
          "type": "bytes32"
        }
      ],
      "stateMutability": "view",
      "type": "function"
    },
    {
      "inputs": [],
      "name": "DEFAULT_ADMIN_ROLE",
      "outputs": [
        {
          "internalType": "bytes32",
          "name": "",
          "type": "bytes32"
        }
      ],
      "stateMutability": "view",
      "type": "function"
    },
    {
      "inputs": [],
      "name": "MINTER_ROLE",
      "outputs": [
        {
          "internalType": "bytes32",
          "name": "",
          "type": "bytes32"
        }
      ],
      "stateMutability": "view",
      "type": "function"
    },
    {
      "inputs": [],
      "name": "PAUSER_ROLE",
      "outputs": [
        {
          "internalType": "bytes32",
          "name": "",
          "type": "bytes32"
        }
      ],
      "stateMutability": "view",
      "type": "function"
    },
    {
      "inputs": [
        {
          "internalType": "address",
          "name": "to",
          "type": "address"
        },
        {
          "internalType": "uint256",
          "name": "tokenId",
          "type": "uint256"
        }
      ],
      "name": "approve",
      "outputs": [],
      "stateMutability": "nonpayable",
      "type": "function"
    },
    {
      "inputs": [
        {
          "internalType": "address",
          "name": "owner",
          "type": "address"
        }
      ],
      "name": "balanceOf",
      "outputs": [
        {
          "internalType": "uint256",
          "name": "",
          "type": "uint256"
        }
      ],
      "stateMutability": "view",
      "type": "function"
    },
    {
      "inputs": [],
      "name": "baseURI",
      "outputs": [
        {
          "internalType": "string",
          "name": "",
          "type": "string"
        }
      ],
      "stateMutability": "view",
      "type": "function"
    },
    {
      "inputs": [
        {
          "internalType": "uint256",
          "name": "tokenId",
          "type": "uint256"
        }
      ],
      "name": "burn",
      "outputs": [],
      "stateMutability": "nonpayable",
      "type": "function"
    },
    {
      "inputs": [
        {
          "internalType": "uint256",
          "name": "tokenId",
          "type": "uint256"
        }
      ],
      "name": "getApproved",
      "outputs": [
        {
          "internalType": "address",
          "name": "",
          "type": "address"
        }
      ],
      "stateMutability": "view",
      "type": "function"
    },
    {
      "inputs": [
        {
          "internalType": "bytes32",
          "name": "role",
          "type": "bytes32"
        }
      ],
      "name": "getRoleAdmin",
      "outputs": [
        {
          "internalType": "bytes32",
          "name": "",
          "type": "bytes32"
        }
      ],
      "stateMutability": "view",
      "type": "function"
    },
    {
      "inputs": [
        {
          "internalType": "bytes32",
          "name": "role",
          "type": "bytes32"
        },
        {
          "internalType": "uint256",
          "name": "index",
          "type": "uint256"
        }
      ],
      "name": "getRoleMember",
      "outputs": [
        {
          "internalType": "address",
          "name": "",
          "type": "address"
        }
      ],
      "stateMutability": "view",
      "type": "function"
    },
    {
      "inputs": [
        {
          "internalType": "bytes32",
          "name": "role",
          "type": "bytes32"
        }
      ],
      "name": "getRoleMemberCount",
      "outputs": [
        {
          "internalType": "uint256",
          "name": "",
          "type": "uint256"
        }
      ],
      "stateMutability": "view",
      "type": "function"
    },
    {
      "inputs": [
        {
          "internalType": "bytes32",
          "name": "role",
          "type": "bytes32"
        },
        {
          "internalType": "address",
          "name": "account",
          "type": "address"
        }
      ],
      "name": "grantRole",
      "outputs": [],
      "stateMutability": "nonpayable",
      "type": "function"
    },
    {
      "inputs": [
        {
          "internalType": "bytes32",
          "name": "role",
          "type": "bytes32"
        },
        {
          "internalType": "address",
          "name": "account",
          "type": "address"
        }
      ],
      "name": "hasRole",
      "outputs": [
        {
          "internalType": "bool",
          "name": "",
          "type": "bool"
        }
      ],
      "stateMutability": "view",
      "type": "function"
    },
    {
      "inputs": [
        {
          "internalType": "address",
          "name": "owner",
          "type": "address"
        },
        {
          "internalType": "address",
          "name": "operator",
          "type": "address"
        }
      ],
      "name": "isApprovedForAll",
      "outputs": [
        {
          "internalType": "bool",
          "name": "",
          "type": "bool"
        }
      ],
      "stateMutability": "view",
      "type": "function"
    },
    {
      "inputs": [],
      "name": "name",
      "outputs": [
        {
          "internalType": "string",
          "name": "",
          "type": "string"
        }
      ],
      "stateMutability": "view",
      "type": "function"
    },
    {
      "inputs": [
        {
          "internalType": "uint256",
          "name": "tokenId",
          "type": "uint256"
        }
      ],
      "name": "ownerOf",
      "outputs": [
        {
          "internalType": "address",
          "name": "",
          "type": "address"
        }
      ],
      "stateMutability": "view",
      "type": "function"
    },
    {
      "inputs": [],
      "name": "paused",
      "outputs": [
        {
          "internalType": "bool",
          "name": "",
          "type": "bool"
        }
      ],
      "stateMutability": "view",
      "type": "function"
    },
    {
      "inputs": [
        {
          "internalType": "bytes32",
          "name": "role",
          "type": "bytes32"
        },
        {
          "internalType": "address",
          "name": "account",
          "type": "address"
        }
      ],
      "name": "renounceRole",
      "outputs": [],
      "stateMutability": "nonpayable",
      "type": "function"
    },
    {
      "inputs": [
        {
          "internalType": "bytes32",
          "name": "role",
          "type": "bytes32"
        },
        {
          "internalType": "address",
          "name": "account",
          "type": "address"
        }
      ],
      "name": "revokeRole",
      "outputs": [],
      "stateMutability": "nonpayable",
      "type": "function"
    },
    {
      "inputs": [
        {
          "internalType": "address",
          "name": "operator",
          "type": "address"
        },
        {
          "internalType": "bool",
          "name": "approved",
          "type": "bool"
        }
      ],
      "name": "setApprovalForAll",
      "outputs": [],
      "stateMutability": "nonpayable",
      "type": "function"
    },
    {
      "inputs": [
        {
          "internalType": "bytes4",
          "name": "interfaceId",
          "type": "bytes4"
        }
      ],
      "name": "supportsInterface",
      "outputs": [
        {
          "internalType": "bool",
          "name": "",
          "type": "bool"
        }
      ],
      "stateMutability": "view",
      "type": "function"
    },
    {
      "inputs": [],
      "name": "symbol",
      "outputs": [
        {
          "internalType": "string",
          "name": "",
          "type": "string"
        }
      ],
      "stateMutability": "view",
      "type": "function"
    },
    {
      "inputs": [
        {
          "internalType": "uint256",
          "name": "index",
          "type": "uint256"
        }
      ],
      "name": "tokenByIndex",
      "outputs": [
        {
          "internalType": "uint256",
          "name": "",
          "type": "uint256"
        }
      ],
      "stateMutability": "view",
      "type": "function"
    },
    {
      "inputs": [
        {
          "internalType": "address",
          "name": "owner",
          "type": "address"
        },
        {
          "internalType": "uint256",
          "name": "index",
          "type": "uint256"
        }
      ],
      "name": "tokenOfOwnerByIndex",
      "outputs": [
        {
          "internalType": "uint256",
          "name": "",
          "type": "uint256"
        }
      ],
      "stateMutability": "view",
      "type": "function"
    },
    {
      "inputs": [
        {
          "internalType": "uint256",
          "name": "tokenId",
          "type": "uint256"
        }
      ],
      "name": "tokenURI",
      "outputs": [
        {
          "internalType": "string",
          "name": "",
          "type": "string"
        }
      ],
      "stateMutability": "view",
      "type": "function"
    },
    {
      "inputs": [],
      "name": "totalSupply",
      "outputs": [
        {
          "internalType": "uint256",
          "name": "",
          "type": "uint256"
        }
      ],
      "stateMutability": "view",
      "type": "function"
    },
    {
      "inputs": [
        {
          "internalType": "address",
          "name": "_recipientAddress",
          "type": "address"
        },
        {
          "internalType": "uint256",
          "name": "tokenId",
          "type": "uint256"
        }
      ],
      "name": "mintPRUF_IDToken",
      "outputs": [
        {
          "internalType": "uint256",
          "name": "",
          "type": "uint256"
        }
      ],
      "stateMutability": "nonpayable",
      "type": "function"
    },
    {
      "inputs": [
        {
          "internalType": "address",
          "name": "_recipientAddress",
          "type": "address"
        },
        {
          "internalType": "uint256",
          "name": "tokenId",
          "type": "uint256"
        }
      ],
      "name": "reMintPRUF_IDToken",
      "outputs": [
        {
          "internalType": "uint256",
          "name": "",
          "type": "uint256"
        }
      ],
      "stateMutability": "nonpayable",
      "type": "function"
    },
    {
      "inputs": [
        {
          "internalType": "uint256",
          "name": "tokenId",
          "type": "uint256"
        },
        {
          "internalType": "string",
          "name": "_tokenURI",
          "type": "string"
        }
      ],
      "name": "setURI",
      "outputs": [
        {
          "internalType": "uint256",
          "name": "",
          "type": "uint256"
        }
      ],
      "stateMutability": "nonpayable",
      "type": "function"
    },
    {
      "inputs": [
        {
          "internalType": "uint256",
          "name": "tokenId",
          "type": "uint256"
        }
      ],
      "name": "tokenExists",
      "outputs": [
        {
          "internalType": "uint8",
          "name": "",
          "type": "uint8"
        }
      ],
      "stateMutability": "view",
      "type": "function"
    },
    {
      "inputs": [
        {
          "internalType": "address",
          "name": "from",
          "type": "address"
        },
        {
          "internalType": "address",
          "name": "to",
          "type": "address"
        },
        {
          "internalType": "uint256",
          "name": "tokenId",
          "type": "uint256"
        }
      ],
      "name": "transferFrom",
      "outputs": [],
      "stateMutability": "nonpayable",
      "type": "function"
    },
    {
      "inputs": [
        {
          "internalType": "address",
          "name": "from",
          "type": "address"
        },
        {
          "internalType": "address",
          "name": "to",
          "type": "address"
        },
        {
          "internalType": "uint256",
          "name": "tokenId",
          "type": "uint256"
        }
      ],
      "name": "safeTransferFrom",
      "outputs": [],
      "stateMutability": "nonpayable",
      "type": "function"
    },
    {
      "inputs": [
        {
          "internalType": "address",
          "name": "from",
          "type": "address"
        },
        {
          "internalType": "address",
          "name": "to",
          "type": "address"
        },
        {
          "internalType": "uint256",
          "name": "tokenId",
          "type": "uint256"
        },
        {
          "internalType": "bytes",
          "name": "_data",
          "type": "bytes"
        }
      ],
      "name": "safeTransferFrom",
      "outputs": [],
      "stateMutability": "nonpayable",
      "type": "function"
    },
    {
      "inputs": [],
      "name": "pause",
      "outputs": [],
      "stateMutability": "nonpayable",
      "type": "function"
    },
    {
      "inputs": [],
      "name": "unpause",
      "outputs": [],
      "stateMutability": "nonpayable",
      "type": "function"
    }
  ],
  "bytecode": "0x60806040523480156200001157600080fd5b50604080518082018252600e81526d282961de231024a2102a37b5b2b760911b602080830191909152825180840190935260048352631414925160e21b908301526001600055906200006a6301ffc9a760e01b62000181565b81516200007f9060089060208501906200031c565b508051620000959060099060208401906200031c565b50620000a86380ac58cd60e01b62000181565b620000ba635b5e139f60e01b62000181565b620000cc63780e9d6360e01b62000181565b5050600c805460ff19169055620000ee6000620000e862000206565b6200020a565b6200011d7f2ce8d04a9c35987429af538825cd2438cc5c5bb5dc427955f84daaa3ea105016620000e862000206565b6200014c7f9f2df0fed2c77648de5860a4cc508cd0818c85b8b8a1ab4ceeef8d981c8956a6620000e862000206565b6200017b7f65d7a28e3265b37a6474929f336521b332c1681b933f6cb9f3376673440d862a620000e862000206565b620003b8565b6001600160e01b03198082161415620001e1576040805162461bcd60e51b815260206004820152601c60248201527f4552433136353a20696e76616c696420696e7465726661636520696400000000604482015290519081900360640190fd5b6001600160e01b0319166000908152600260205260409020805460ff19166001179055565b3390565b6200021682826200021a565b5050565b6000828152600160209081526040909120620002419183906200193162000295821b17901c565b1562000216576200025162000206565b6001600160a01b0316816001600160a01b0316837f2f8788117e7eff1d82e926ec794901d17c78024a50270940304540a733656f0d60405160405180910390a45050565b6000620002ac836001600160a01b038416620002b5565b90505b92915050565b6000620002c3838362000304565b620002fb57508154600181810184556000848152602080822090930184905584548482528286019093526040902091909155620002af565b506000620002af565b60009081526001919091016020526040902054151590565b828054600181600116156101000203166002900490600052602060002090601f016020900481019282601f106200035f57805160ff19168380011785556200038f565b828001600101855582156200038f579182015b828111156200038f57825182559160200191906001019062000372565b506200039d929150620003a1565b5090565b5b808211156200039d5760008155600101620003a2565b61305680620003c86000396000f3fe608060405234801561001057600080fd5b506004361061021b5760003560e01c80636c0360eb11610125578063a22cb465116100ad578063d53913931161007c578063d53913931461076e578063d547741f14610776578063df5befb1146107a2578063e63ab1e9146107ce578063e985e9c5146107d65761021b565b8063a22cb46514610640578063b88d4fde1461066e578063c87b56dd14610734578063ca15c873146107515761021b565b806387338fe4116100f457806387338fe4146105b55780639010d07c146105e157806391d148541461060457806395d89b4114610630578063a217fddf146106385761021b565b80636c0360eb1461050857806370a08231146105105780638456cb5914610536578063862440e21461053e5761021b565b80632f2ff15d116101a857806342842e0e1161017757806342842e0e1461047357806342966c68146104a95780634f6ccce7146104c65780635c975abb146104e35780636352211e146104eb5761021b565b80632f2ff15d146103e75780632f745c591461041357806336568abe1461043f5780633f4ba83a1461046b5761021b565b8063095ea7b3116101ef578063095ea7b31461034457806318160ddd146103725780631da033121461038c57806323b872dd14610394578063248a9ca3146103ca5761021b565b8062923f9e1461022057806301ffc9a71461025357806306fdde031461028e578063081812fc1461030b575b600080fd5b61023d6004803603602081101561023657600080fd5b5035610804565b6040805160ff9092168252519081900360200190f35b61027a6004803603602081101561026957600080fd5b50356001600160e01b031916610825565b604080519115158252519081900360200190f35b610296610844565b6040805160208082528351818301528351919283929083019185019080838360005b838110156102d05781810151838201526020016102b8565b50505050905090810190601f1680156102fd5780820380516001836020036101000a031916815260200191505b509250505060405180910390f35b6103286004803603602081101561032157600080fd5b50356108da565b604080516001600160a01b039092168252519081900360200190f35b6103706004803603604081101561035a57600080fd5b506001600160a01b03813516906020013561093c565b005b61037a610a17565b60408051918252519081900360200190f35b61037a610a28565b610370600480360360608110156103aa57600080fd5b506001600160a01b03813581169160208101359091169060400135610a4c565b61037a600480360360208110156103e057600080fd5b5035610b93565b610370600480360360408110156103fd57600080fd5b50803590602001356001600160a01b0316610ba8565b61037a6004803603604081101561042957600080fd5b506001600160a01b038135169060200135610c14565b6103706004803603604081101561045557600080fd5b50803590602001356001600160a01b0316610c3f565b610370610ca0565b6103706004803603606081101561048957600080fd5b506001600160a01b03813581169160208101359091169060400135610d11565b610370600480360360208110156104bf57600080fd5b5035610d2c565b61037a600480360360208110156104dc57600080fd5b5035610d7e565b61027a610d94565b6103286004803603602081101561050157600080fd5b5035610d9d565b610296610dc5565b61037a6004803603602081101561052657600080fd5b50356001600160a01b0316610e26565b610370610e8e565b61037a6004803603604081101561055457600080fd5b8135919081019060408101602082013564010000000081111561057657600080fd5b82018360208201111561058857600080fd5b803590602001918460018302840111640100000000831117156105aa57600080fd5b509092509050610efd565b61037a600480360360408110156105cb57600080fd5b506001600160a01b038135169060200135611035565b610328600480360360408110156105f757600080fd5b508035906020013561116b565b61027a6004803603604081101561061a57600080fd5b50803590602001356001600160a01b0316611183565b61029661119b565b61037a6111fc565b6103706004803603604081101561065657600080fd5b506001600160a01b0381351690602001351515611201565b6103706004803603608081101561068457600080fd5b6001600160a01b038235811692602081013590911691604082013591908101906080810160608201356401000000008111156106bf57600080fd5b8201836020820111156106d157600080fd5b803590602001918460018302840111640100000000831117156106f357600080fd5b91908080601f016020809104026020016040519081016040528093929190818152602001838380828437600092019190915250929550611306945050505050565b6102966004803603602081101561074a57600080fd5b503561144f565b61037a6004803603602081101561076757600080fd5b50356116f6565b61037a61170d565b6103706004803603604081101561078c57600080fd5b50803590602001356001600160a01b031661171f565b61037a600480360360408110156107b857600080fd5b506001600160a01b038135169060200135611778565b61037a6118df565b61027a600480360360408110156107ec57600080fd5b506001600160a01b0381358116916020013516611903565b600061080f82611946565b1561081c575060aa610820565b5060005b919050565b6001600160e01b03191660009081526002602052604090205460ff1690565b60088054604080516020601f60026000196101006001881615020190951694909404938401819004810282018101909252828152606093909290918301828280156108d05780601f106108a5576101008083540402835291602001916108d0565b820191906000526020600020905b8154815290600101906020018083116108b357829003601f168201915b5050505050905090565b60006108e582611946565b6109205760405162461bcd60e51b815260040180806020018281038252602c815260200180612df7602c913960400191505060405180910390fd5b506000908152600660205260409020546001600160a01b031690565b600061094782610d9d565b9050806001600160a01b0316836001600160a01b0316141561099a5760405162461bcd60e51b8152600401808060200182810382526021815260200180612ec76021913960400191505060405180910390fd5b806001600160a01b03166109ac611953565b6001600160a01b031614806109cd57506109cd816109c8611953565b611903565b610a085760405162461bcd60e51b8152600401808060200182810382526038815260200180612d4a6038913960400191505060405180910390fd5b610a128383611957565b505050565b6000610a2360046119c5565b905090565b7f2ce8d04a9c35987429af538825cd2438cc5c5bb5dc427955f84daaa3ea10501681565b60026000541415610a92576040805162461bcd60e51b815260206004820152601f6024820152600080516020612b45833981519152604482015290519081900360640190fd5b6002600055600c5460ff1615610ae2576040805162461bcd60e51b815260206004820152601060248201526f14185d5cd8589b194e881c185d5cd95960821b604482015290519081900360640190fd5b610af3610aed611953565b826119d0565b610b2e5760405162461bcd60e51b8152600401808060200182810382526031815260200180612bff6031913960400191505060405180910390fd5b826001600160a01b0316826001600160a01b031614610b7e5760405162461bcd60e51b8152600401808060200182810382526067815260200180612f8b6067913960800191505060405180910390fd5b610b89838383611a74565b5050600160005550565b60009081526001602052604090206002015490565b600082815260016020526040902060020154610bcb90610bc6611953565b611183565b610c065760405162461bcd60e51b815260040180806020018281038252602f815260200180612b16602f913960400191505060405180910390fd5b610c108282611bc0565b5050565b6001600160a01b0382166000908152600360205260408120610c369083611c29565b90505b92915050565b610c47611953565b6001600160a01b0316816001600160a01b031614610c965760405162461bcd60e51b815260040180806020018281038252602f815260200180612ff2602f913960400191505060405180910390fd5b610c108282611c35565b610ccc7f65d7a28e3265b37a6474929f336521b332c1681b933f6cb9f3376673440d862a610bc6611953565b610d075760405162461bcd60e51b8152600401808060200182810382526040815260200180612f4b6040913960400191505060405180910390fd5b610d0f611c9e565b565b610a1283838360405180602001604052806000815250611306565b610d37610aed611953565b610d725760405162461bcd60e51b8152600401808060200182810382526030815260200180612f1b6030913960400191505060405180910390fd5b610d7b81611d3c565b50565b600080610d8c600484611e09565b509392505050565b600c5460ff1690565b6000610c3982604051806060016040528060298152602001612dac6029913960049190611e25565b600b8054604080516020601f60026000196101006001881615020190951694909404938401819004810282018101909252828152606093909290918301828280156108d05780601f106108a5576101008083540402835291602001916108d0565b60006001600160a01b038216610e6d5760405162461bcd60e51b815260040180806020018281038252602a815260200180612d82602a913960400191505060405180910390fd5b6001600160a01b0382166000908152600360205260409020610c39906119c5565b610eba7f65d7a28e3265b37a6474929f336521b332c1681b933f6cb9f3376673440d862a610bc6611953565b610ef55760405162461bcd60e51b815260040180806020018281038252603e815260200180612c30603e913960400191505060405180910390fd5b610d0f611e3c565b6000610f19600080516020612ea7833981519152610bc6611953565b610f545760405162461bcd60e51b8152600401808060200182810382526035815260200180612c926035913960400191505060405180910390fd5b60026000541415610f9a576040805162461bcd60e51b815260206004820152601f6024820152600080516020612b45833981519152604482015290519081900360640190fd5b6002600055600c5460ff1615610fea576040805162461bcd60e51b815260206004820152601060248201526f14185d5cd8589b194e881c185d5cd95960821b604482015290519081900360640190fd5b61102a8484848080601f016020809104026020016040519081016040528093929190818152602001838380828437600092019190915250611ebd92505050565b505060016000555090565b6000611051600080516020612ea7833981519152610bc6611953565b61108c5760405162461bcd60e51b8152600401808060200182810382526035815260200180612c926035913960400191505060405180910390fd5b600260005414156110d2576040805162461bcd60e51b815260206004820152601f6024820152600080516020612b45833981519152604482015290519081900360640190fd5b6002600055600c5460ff1615611122576040805162461bcd60e51b815260206004820152601060248201526f14185d5cd8589b194e881c185d5cd95960821b604482015290519081900360640190fd5b61112c8383611f20565b61116082604051806040016040528060128152602001711a1d1d1c1cce8bcbdc1c9d598b9a5bcbd25160721b815250611ebd565b506001600055919050565b6000828152600160205260408120610c369083611c29565b6000828152600160205260408120610c369083611f3a565b60098054604080516020601f60026000196101006001881615020190951694909404938401819004810282018101909252828152606093909290918301828280156108d05780601f106108a5576101008083540402835291602001916108d0565b600081565b611209611953565b6001600160a01b0316826001600160a01b0316141561126f576040805162461bcd60e51b815260206004820152601960248201527f4552433732313a20617070726f766520746f2063616c6c657200000000000000604482015290519081900360640190fd5b806007600061127c611953565b6001600160a01b03908116825260208083019390935260409182016000908120918716808252919093529120805460ff1916921515929092179091556112c0611953565b6001600160a01b03167f17307eab39ab6107e8899845ad3d59bd9653f200f220920489ca2b5937696c318360405180821515815260200191505060405180910390a35050565b6002600054141561134c576040805162461bcd60e51b815260206004820152601f6024820152600080516020612b45833981519152604482015290519081900360640190fd5b6002600055600c5460ff161561139c576040805162461bcd60e51b815260206004820152601060248201526f14185d5cd8589b194e881c185d5cd95960821b604482015290519081900360640190fd5b6113ad6113a7611953565b836119d0565b6113e85760405162461bcd60e51b8152600401808060200182810382526033815260200180612ee86033913960400191505060405180910390fd5b836001600160a01b0316836001600160a01b0316146114385760405162461bcd60e51b8152600401808060200182810382526068815260200180612b656068913960800191505060405180910390fd5b61144484858484611f4f565b505060016000555050565b606061145a82611946565b6114955760405162461bcd60e51b815260040180806020018281038252602f815260200180612e78602f913960400191505060405180910390fd5b6000828152600a602090815260409182902080548351601f600260001961010060018616150201909316929092049182018490048402810184019094528084526060939283018282801561152a5780601f106114ff5761010080835404028352916020019161152a565b820191906000526020600020905b81548152906001019060200180831161150d57829003601f168201915b5050600b5493945050505060026000196101006001841615020190911604611553579050610820565b80511561162457600b8160405160200180838054600181600116156101000203166002900480156115bb5780601f106115995761010080835404028352918201916115bb565b820191906000526020600020905b8154815290600101906020018083116115a7575b5050825160208401908083835b602083106115e75780518252601f1990920191602091820191016115c8565b6001836020036101000a03801982511681845116808217855250505050505090500192505050604051602081830303815290604052915050610820565b600b61162f84611fa7565b604051602001808380546001816001161561010002031660029004801561168d5780601f1061166b57610100808354040283529182019161168d565b820191906000526020600020905b815481529060010190602001808311611679575b5050825160208401908083835b602083106116b95780518252601f19909201916020918201910161169a565b6001836020036101000a03801982511681845116808217855250505050505090500192505050604051602081830303815290604052915050919050565b6000818152600160205260408120610c39906119c5565b600080516020612ea783398151915281565b60008281526001602052604090206002015461173d90610bc6611953565b610c965760405162461bcd60e51b8152600401808060200182810382526030815260200180612d1a6030913960400191505060405180910390fd5b6000611794600080516020612ea7833981519152610bc6611953565b6117cf5760405162461bcd60e51b8152600401808060200182810382526035815260200180612c926035913960400191505060405180910390fd5b60026000541415611815576040805162461bcd60e51b815260206004820152601f6024820152600080516020612b45833981519152604482015290519081900360640190fd5b6002600055600c5460ff1615611865576040805162461bcd60e51b815260206004820152601060248201526f14185d5cd8589b194e881c185d5cd95960821b604482015290519081900360640190fd5b61186e82611946565b6118a95760405162461bcd60e51b8152600401808060200182810382526027815260200180612cc76027913960400191505060405180910390fd5b60606118b48361144f565b90506118bf83611d3c565b6118c98484611f20565b6118d38382611ebd565b50506001600055919050565b7f65d7a28e3265b37a6474929f336521b332c1681b933f6cb9f3376673440d862a81565b6001600160a01b03918216600090815260076020908152604080832093909416825291909152205460ff1690565b6000610c36836001600160a01b038416612082565b6000610c396004836120cc565b3390565b600081815260066020526040902080546001600160a01b0319166001600160a01b038416908117909155819061198c82610d9d565b6001600160a01b03167f8c5be1e5ebec7d5bd14f71427d1e84f3dd0314c0f7b2291e5b200ac8c7c3b92560405160405180910390a45050565b6000610c39826120d8565b60006119db82611946565b611a165760405162461bcd60e51b815260040180806020018281038252602c815260200180612cee602c913960400191505060405180910390fd5b6000611a2183610d9d565b9050806001600160a01b0316846001600160a01b03161480611a5c5750836001600160a01b0316611a51846108da565b6001600160a01b0316145b80611a6c5750611a6c8185611903565b949350505050565b826001600160a01b0316611a8782610d9d565b6001600160a01b031614611acc5760405162461bcd60e51b8152600401808060200182810382526029815260200180612e4f6029913960400191505060405180910390fd5b6001600160a01b038216611b115760405162461bcd60e51b8152600401808060200182810382526024815260200180612c6e6024913960400191505060405180910390fd5b611b1c8383836120dc565b611b27600082611957565b6001600160a01b0383166000908152600360205260409020611b4990826120e7565b506001600160a01b0382166000908152600360205260409020611b6c90826120f3565b50611b79600482846120ff565b5080826001600160a01b0316846001600160a01b03167fddf252ad1be2c89b69c2b068fc378daa952ba7f163c4a11628f55a4df523b3ef60405160405180910390a4505050565b6000828152600160205260409020611bd89082611931565b15610c1057611be5611953565b6001600160a01b0316816001600160a01b0316837f2f8788117e7eff1d82e926ec794901d17c78024a50270940304540a733656f0d60405160405180910390a45050565b6000610c368383612115565b6000828152600160205260409020611c4d9082612179565b15610c1057611c5a611953565b6001600160a01b0316816001600160a01b0316837ff6391f5c32d9c69d2a47ea670b442974b53935d1edc7fd64eb21e047a839171b60405160405180910390a45050565b600c5460ff16611cec576040805162461bcd60e51b815260206004820152601460248201527314185d5cd8589b194e881b9bdd081c185d5cd95960621b604482015290519081900360640190fd5b600c805460ff191690557f5db9ee0a495bf2e6ff9c91a7834c1ba4fdd244a5e8aa4e537bd38aeae4b073aa611d1f611953565b604080516001600160a01b039092168252519081900360200190a1565b6000611d4782610d9d565b9050611d55816000846120dc565b611d60600083611957565b6000828152600a60205260409020546002600019610100600184161502019091160415611d9e576000828152600a60205260408120611d9e916129f1565b6001600160a01b0381166000908152600360205260409020611dc090836120e7565b50611dcc60048361218e565b5060405182906000906001600160a01b038416907fddf252ad1be2c89b69c2b068fc378daa952ba7f163c4a11628f55a4df523b3ef908390a45050565b6000808080611e18868661219a565b9097909650945050505050565b6000611e32848484612215565b90505b9392505050565b600c5460ff1615611e87576040805162461bcd60e51b815260206004820152601060248201526f14185d5cd8589b194e881c185d5cd95960821b604482015290519081900360640190fd5b600c805460ff191660011790557f62e78cea01bee320cd4e420270b5ea74000d11b0c9f74754ebdbfc544b05a258611d1f611953565b611ec682611946565b611f015760405162461bcd60e51b815260040180806020018281038252602c815260200180612e23602c913960400191505060405180910390fd5b6000828152600a602090815260409091208251610a1292840190612a35565b610c108282604051806020016040528060008152506122df565b6000610c36836001600160a01b038416612331565b611f5a848484611a74565b611f6684848484612349565b611fa15760405162461bcd60e51b8152600401808060200182810382526032815260200180612bcd6032913960400191505060405180910390fd5b50505050565b606081611fcc57506040805180820190915260018152600360fc1b6020820152610820565b8160005b8115611fe457600101600a82049150611fd0565b60608167ffffffffffffffff81118015611ffd57600080fd5b506040519080825280601f01601f191660200182016040528015612028576020820181803683370190505b50859350905060001982015b831561207957600a840660300160f81b8282806001900393508151811061205757fe5b60200101906001600160f81b031916908160001a905350600a84049350612034565b50949350505050565b600061208e8383612331565b6120c457508154600181810184556000848152602080822090930184905584548482528286019093526040902091909155610c39565b506000610c39565b6000610c368383612331565b5490565b610a128383836124b1565b6000610c368383612500565b6000610c368383612082565b6000611e3284846001600160a01b0385166125c6565b815460009082106121575760405162461bcd60e51b8152600401808060200182810382526022815260200180612ac96022913960400191505060405180910390fd5b82600001828154811061216657fe5b9060005260206000200154905092915050565b6000610c36836001600160a01b038416612500565b6000610c36838361265d565b8154600090819083106121de5760405162461bcd60e51b8152600401808060200182810382526022815260200180612dd56022913960400191505060405180910390fd5b60008460000184815481106121ef57fe5b906000526020600020906002020190508060000154816001015492509250509250929050565b600082815260018401602052604081205482816122b05760405162461bcd60e51b81526004018080602001828103825283818151815260200191508051906020019080838360005b8381101561227557818101518382015260200161225d565b50505050905090810190601f1680156122a25780820380516001836020036101000a031916815260200191505b509250505060405180910390fd5b508460000160018203815481106122c357fe5b9060005260206000209060020201600101549150509392505050565b6122e98383612731565b6122f66000848484612349565b610a125760405162461bcd60e51b8152600401808060200182810382526032815260200180612bcd6032913960400191505060405180910390fd5b60009081526001919091016020526040902054151590565b600061235d846001600160a01b031661285f565b61236957506001611a6c565b6060612477630a85bd0160e11b61237e611953565b88878760405160240180856001600160a01b03168152602001846001600160a01b0316815260200183815260200180602001828103825283818151815260200191508051906020019080838360005b838110156123e55781810151838201526020016123cd565b50505050905090810190601f1680156124125780820380516001836020036101000a031916815260200191505b5095505050505050604051602081830303815290604052906001600160e01b0319166020820180516001600160e01b038381831617835250505050604051806060016040528060328152602001612bcd603291396001600160a01b0388169190612865565b9050600081806020019051602081101561249057600080fd5b50516001600160e01b031916630a85bd0160e11b1492505050949350505050565b6124bc838383610a12565b6124c4610d94565b15610a125760405162461bcd60e51b815260040180806020018281038252602b815260200180612aeb602b913960400191505060405180910390fd5b600081815260018301602052604081205480156125bc578354600019808301919081019060009087908390811061253357fe5b906000526020600020015490508087600001848154811061255057fe5b60009182526020808320909101929092558281526001898101909252604090209084019055865487908061258057fe5b60019003818190600052602060002001600090559055866001016000878152602001908152602001600020600090556001945050505050610c39565b6000915050610c39565b60008281526001840160205260408120548061262b575050604080518082018252838152602080820184815286546001818101895560008981528481209551600290930290950191825591519082015586548684528188019092529290912055611e35565b8285600001600183038154811061263e57fe5b9060005260206000209060020201600101819055506000915050611e35565b600081815260018301602052604081205480156125bc578354600019808301919081019060009087908390811061269057fe5b90600052602060002090600202019050808760000184815481106126b057fe5b6000918252602080832084546002909302019182556001938401549184019190915583548252898301905260409020908401905586548790806126ef57fe5b6000828152602080822060026000199094019384020182815560019081018390559290935588815289820190925260408220919091559450610c399350505050565b6001600160a01b03821661278c576040805162461bcd60e51b815260206004820181905260248201527f4552433732313a206d696e7420746f20746865207a65726f2061646472657373604482015290519081900360640190fd5b61279581611946565b156127e7576040805162461bcd60e51b815260206004820152601c60248201527f4552433732313a20746f6b656e20616c7265616479206d696e74656400000000604482015290519081900360640190fd5b6127f3600083836120dc565b6001600160a01b038216600090815260036020526040902061281590826120f3565b50612822600482846120ff565b5060405181906001600160a01b038416906000907fddf252ad1be2c89b69c2b068fc378daa952ba7f163c4a11628f55a4df523b3ef908290a45050565b3b151590565b6060611e328484600085856128798561285f565b6128ca576040805162461bcd60e51b815260206004820152601d60248201527f416464726573733a2063616c6c20746f206e6f6e2d636f6e7472616374000000604482015290519081900360640190fd5b60006060866001600160a01b031685876040518082805190602001908083835b602083106129095780518252601f1990920191602091820191016128ea565b6001836020036101000a03801982511681845116808217855250505050505090500191505060006040518083038185875af1925050503d806000811461296b576040519150601f19603f3d011682016040523d82523d6000602084013e612970565b606091505b509150915061298082828661298b565b979650505050505050565b6060831561299a575081611e35565b8251156129aa5782518084602001fd5b60405162461bcd60e51b815260206004820181815284516024840152845185939192839260440191908501908083836000831561227557818101518382015260200161225d565b50805460018160011615610100020316600290046000825580601f10612a175750610d7b565b601f016020900490600052602060002090810190610d7b9190612ab3565b828054600181600116156101000203166002900490600052602060002090601f016020900481019282601f10612a7657805160ff1916838001178555612aa3565b82800160010185558215612aa3579182015b82811115612aa3578251825591602001919060010190612a88565b50612aaf929150612ab3565b5090565b5b80821115612aaf5760008155600101612ab456fe456e756d657261626c655365743a20696e646578206f7574206f6620626f756e64734552433732315061757361626c653a20746f6b656e207472616e73666572207768696c6520706175736564416363657373436f6e74726f6c3a2073656e646572206d75737420626520616e2061646d696e20746f206772616e745265656e7472616e637947756172643a207265656e7472616e742063616c6c00504944543a5354463a546f6b656e206e6f74207472616e736665727261626c652077697468207374616e64617264204552433732312070726f746f636f6c2e204d7573742062652072656d696e7465642062792061646d696e20746f206e657720616464726573734552433732313a207472616e7366657220746f206e6f6e20455243373231526563656976657220696d706c656d656e746572504944543a54463a7472616e736665722063616c6c6572206973206e6f74206f776e6572206e6f7220617070726f7665644552433732315072657365744d696e7465725061757365724175746f49643a206d75737420686176652070617573657220726f6c6520746f2070617573654552433732313a207472616e7366657220746f20746865207a65726f206164647265737341543a4d4f442d49413a43616c6c696e67206164647265737320646f6573206e6f742062656c6f6e6720746f2061206d696e746572504944543a524d3a43616e6e6f742052656d696e74206e6f6e6578697374616e7420746f6b656e4552433732313a206f70657261746f7220717565727920666f72206e6f6e6578697374656e7420746f6b656e416363657373436f6e74726f6c3a2073656e646572206d75737420626520616e2061646d696e20746f207265766f6b654552433732313a20617070726f76652063616c6c6572206973206e6f74206f776e6572206e6f7220617070726f76656420666f7220616c6c4552433732313a2062616c616e636520717565727920666f7220746865207a65726f20616464726573734552433732313a206f776e657220717565727920666f72206e6f6e6578697374656e7420746f6b656e456e756d657261626c654d61703a20696e646578206f7574206f6620626f756e64734552433732313a20617070726f76656420717565727920666f72206e6f6e6578697374656e7420746f6b656e4552433732314d657461646174613a2055524920736574206f66206e6f6e6578697374656e7420746f6b656e4552433732313a207472616e73666572206f6620746f6b656e2074686174206973206e6f74206f776e4552433732314d657461646174613a2055524920717565727920666f72206e6f6e6578697374656e7420746f6b656e9f2df0fed2c77648de5860a4cc508cd0818c85b8b8a1ab4ceeef8d981c8956a64552433732313a20617070726f76616c20746f2063757272656e74206f776e6572504944543a5354463a207472616e736665722063616c6c6572206973206e6f74206f776e6572206e6f7220617070726f7665644552433732314275726e61626c653a2063616c6c6572206973206e6f74206f776e6572206e6f7220617070726f7665644552433732315072657365744d696e7465725061757365724175746f49643a206d75737420686176652070617573657220726f6c6520746f20756e7061757365504944543a54463a546f6b656e206e6f74207472616e736665727261626c652077697468207374616e64617264204552433732312070726f746f636f6c2e204d7573742062652072656d696e7465642062792061646d696e20746f206e65772061646472657373416363657373436f6e74726f6c3a2063616e206f6e6c792072656e6f756e636520726f6c657320666f722073656c66a2646970667358221220ea80e1cdcefb80262e531b5910a6ee90940e801b621802b6c6ad36ba97b20eda64736f6c634300060c0033",
  "immutableReferences": {},
  "source": "/*--------------------------------------------------------PRuF0.7.1\n__/\\\\\\\\\\\\\\\\\\\\\\\\\\ _____/\\\\\\\\\\\\\\\\\\ _______/\\\\../\\\\ ___/\\\\\\\\\\\\\\\\\\\\\\\\\\\\\\\n _\\/\\\\\\/////////\\\\\\ _/\\\\\\///////\\\\\\ ____\\//..\\//____\\/\\\\\\///////////__\n  _\\/\\\\\\.......\\/\\\\\\.\\/\\\\\\.....\\/\\\\\\ ________________\\/\\\\\\ ____________\n   _\\/\\\\\\\\\\\\\\\\\\\\\\\\\\/__\\/\\\\\\\\\\\\\\\\\\\\\\/_____/\\\\\\____/\\\\\\.\\/\\\\\\\\\\\\\\\\\\\\\\ ____\n    _\\/\\\\\\/////////____\\/\\\\\\//////\\\\\\ ___\\/\\\\\\___\\/\\\\\\.\\/\\\\\\///////______\n     _\\/\\\\\\ ____________\\/\\\\\\ ___\\//\\\\\\ __\\/\\\\\\___\\/\\\\\\.\\/\\\\\\ ____________\n      _\\/\\\\\\ ____________\\/\\\\\\ ____\\//\\\\\\ _\\/\\\\\\___\\/\\\\\\.\\/\\\\\\ ____________\n       _\\/\\\\\\ ____________\\/\\\\\\ _____\\//\\\\\\.\\//\\\\\\\\\\\\\\\\\\ _\\/\\\\\\ ____________\n        _\\/// _____________\\/// _______\\/// __\\///////// __\\/// _____________\n         *-------------------------------------------------------------------*/\n\n/*-----------------------------------------------------------------\n *  TO DO\n *-----------------------------------------------------------------\n * PRUF USER ID NFT CONTRACT\n *---------------------------------------------------------------*/\n\n// SPDX-License-Identifier: UNLICENSED\npragma solidity ^0.6.7;\n\nimport \"./Imports/access/AccessControl.sol\";\nimport \"./Imports/GSN/Context.sol\";\nimport \"./Imports/utils/Counters.sol\";\nimport \"./Imports/token/ERC721/ERC721.sol\";\nimport \"./Imports/token/ERC721/ERC721Burnable.sol\";\nimport \"./Imports/token/ERC721/ERC721Pausable.sol\";\n//import \"./Imports/access/Ownable.sol\";\nimport \"./PRUF_INTERFACES.sol\";\nimport \"./Imports/utils/ReentrancyGuard.sol\";\n\n/**\n * @dev {ERC721} token, including:\n *\n *  - ability for holders to burn (destroy) their tokens\n *  - a minter role that allows for token minting (creation)\n *  - a pauser role that allows to stop all token transfers\n *  - token ID and URI autogeneration\n *\n * This contract uses {AccessControl} to lock permissioned functions using the\n * different roles - head to its documentation for details.\n *\n * The account that deploys the contract will be granted the minter, pauser, and contract admin\n * roles, as well as the default admin role, which will let it grant minter, pauser, and admin\n * roles to other accounts.\n */\n\ncontract ID_TKN is\n    ReentrancyGuard,\n    Context,\n    AccessControl,\n    ERC721Burnable,\n    ERC721Pausable\n{\n    using Counters for Counters.Counter;\n\n    bytes32 public constant CONTRACT_ADMIN_ROLE = keccak256(\n        \"CONTRACT_ADMIN_ROLE\"\n    );\n    bytes32 public constant MINTER_ROLE = keccak256(\"MINTER_ROLE\");\n    bytes32 public constant PAUSER_ROLE = keccak256(\"PAUSER_ROLE\");\n\n    Counters.Counter private _tokenIdTracker;\n\n    constructor() public ERC721(\"PRF ID Token\", \"PRID\") {\n        _setupRole(DEFAULT_ADMIN_ROLE, _msgSender());\n        _setupRole(CONTRACT_ADMIN_ROLE, _msgSender());\n        _setupRole(MINTER_ROLE, _msgSender());\n        _setupRole(PAUSER_ROLE, _msgSender());\n\n        //_setBaseURI(\"pruf.io\");\n    }\n\n    event REPORT(string _msg);\n\n    modifier isAdmin() {\n        require(\n            hasRole(CONTRACT_ADMIN_ROLE, _msgSender()),\n            \"AT:MOD-IA:Calling address does not belong to an admin\"\n        );\n        _;\n    }\n\n    modifier isMinter() {\n        require(\n            hasRole(MINTER_ROLE, _msgSender()),\n            \"AT:MOD-IA:Calling address does not belong to a minter\"\n        );\n        _;\n    }\n\n    //----------------------Admin functions / isAdmin----------------------//\n\n    /*\n     * @dev Mint new PRUF_ID token\n     */\n    function mintPRUF_IDToken(address _recipientAddress, uint256 tokenId)\n        external\n        isMinter\n        nonReentrant\n        whenNotPaused\n        returns (uint256)\n    {\n        //^^^^^^^checks^^^^^^^^^\n\n        //MAKE URI ASSET SPECIFIC- has to incorporate the token ID\n        _safeMint(_recipientAddress, tokenId);\n        _setTokenURI(tokenId, \"https://pruf.io/ID\");\n        return tokenId;\n        //^^^^^^^interactions^^^^^^^^^\n    }\n\n    /*\n     * @dev remint Asset Token\n     * must set a new and unuiqe rgtHash\n     * burns old token\n     * Sends new token to original Caller\n     */\n    function reMintPRUF_IDToken(address _recipientAddress, uint256 tokenId)\n        external\n        isMinter\n        nonReentrant\n        whenNotPaused\n        returns (uint256)\n    {\n        require(_exists(tokenId), \"PIDT:RM:Cannot Remint nonexistant token\");\n        //^^^^^^^checks^^^^^^^^^\n        string memory tokenURI = tokenURI(tokenId);\n        _burn(tokenId);\n        _safeMint(_recipientAddress, tokenId);\n        _setTokenURI(tokenId, tokenURI);\n        return tokenId;\n        //^^^^^^^interactions^^^^^^^^^\n    }\n\n    /*\n     * @dev Set new token URI String -- string should eventually be a B32 hash of ID info in a standardized format - verifyable against provided ID\n     */\n    function setURI(uint256 tokenId, string calldata _tokenURI)\n        external\n        isMinter\n        nonReentrant\n        whenNotPaused\n        returns (uint256)\n    {\n        //^^^^^^^checks^^^^^^^^^\n\n        _setTokenURI(tokenId, _tokenURI);\n        return tokenId;\n        //^^^^^^^interactions^^^^^^^^^\n    }\n\n    /*\n     * @dev See if token exists\n     */\n    function tokenExists(uint256 tokenId) external view returns (uint8) {\n        if (_exists(tokenId)) {\n            return 170;\n        } else {\n            return 0;\n        }\n    }\n\n    /**\n     * @dev Blocks the transfer of a given token ID to another address\n     * Usage of this method is discouraged, use {safeTransferFrom} whenever possible.\n     * Requires the _msgSender() to be the owner, approved, or operator.\n     */\n    function transferFrom(\n        address from,\n        address to,\n        uint256 tokenId\n    ) public override nonReentrant whenNotPaused {\n        require(\n            _isApprovedOrOwner(_msgSender(), tokenId),\n            \"PIDT:TF:transfer caller is not owner nor approved\"\n        );\n        require(\n            to == from,\n            \"PIDT:TF:Token not transferrable with standard ERC721 protocol. Must be reminted by admin to new address\"\n        );\n        //^^^^^^^checks^^^^^^^^\n\n        _transfer(from, to, tokenId);\n        //^^^^^^^interactions^^^^^^^^^\n    }\n\n    /**\n     * @dev Safely blocks the transfer of a given token ID to another address\n     * If the target address is a contract, it must implement {IERC721Receiver-onERC721Received},\n     * which is called upon a safe transfer, and return the magic value\n     * `bytes4(keccak256(\"onERC721Received(address,address,uint256,bytes)\"))`; otherwise,\n     * the transfer is reverted.\n     * Requires the _msgSender() to be the owner, approved, or operator\n     */\n    function safeTransferFrom(\n        address from,\n        address to,\n        uint256 tokenId\n    ) public override {\n        safeTransferFrom(from, to, tokenId, \"\");\n        //^^^^^^^interactions^^^^^^^^^\n    }\n\n    /**\n     * @dev Safely blocks the transfer of a given token ID to another address\n     * If the target address is a contract, it must implement {IERC721Receiver-onERC721Received},\n     * which is called upon a safe transfer, and return the magic value\n     * `bytes4(keccak256(\"onERC721Received(address,address,uint256,bytes)\"))`; otherwise,\n     * the transfer is reverted.\n     * Requires the _msgSender() to be the owner, approved, or operator\n     * @param from current owner of the token\n     * @param to address to receive the ownership of the given token ID\n     * @param tokenId uint256 ID of the token to be transferred\n     * @param _data bytes data to send along with a safe transfer check\n     */\n    function safeTransferFrom(\n        address from,\n        address to,\n        uint256 tokenId,\n        bytes memory _data\n    ) public virtual override nonReentrant whenNotPaused {\n        require(\n            _isApprovedOrOwner(_msgSender(), tokenId),\n            \"PIDT:STF: transfer caller is not owner nor approved\"\n        );\n        require(\n            to == from,\n            \"PIDT:STF:Token not transferrable with standard ERC721 protocol. Must be reminted by admin to new address\"\n        );\n\n        //^^^^^^^checks^^^^^^^^^\n\n        _safeTransfer(from, from, tokenId, _data);\n        //^^^^^^^interactions^^^^^^^^^\n    }\n\n    /**\n     * @dev Pauses all token transfers.\n     *\n     * See {ERC721Pausable} and {Pausable-_pause}.\n     *\n     * Requirements:\n     *\n     * - the caller must have the `PAUSER_ROLE`.\n     */\n    function pause() public virtual {\n        require(\n            hasRole(PAUSER_ROLE, _msgSender()),\n            \"ERC721PresetMinterPauserAutoId: must have pauser role to pause\"\n        );\n        //^^^^^^^checks^^^^^^^^\n        _pause();\n        //^^^^^^^interactions^^^^^^^^^\n    }\n\n    /**\n     * @dev Unpauses all token transfers.\n     *\n     * See {ERC721Pausable} and {Pausable-_unpause}.\n     *\n     * Requirements:\n     *\n     * - the caller must have the `PAUSER_ROLE`.\n     */\n    function unpause() public virtual {\n        require(\n            hasRole(PAUSER_ROLE, _msgSender()),\n            \"ERC721PresetMinterPauserAutoId: must have pauser role to unpause\"\n        );\n        //^^^^^^^checks^^^^^^^^\n        _unpause();\n        //^^^^^^^interactions^^^^^^^^^\n    }\n\n    function _beforeTokenTransfer(\n        address from,\n        address to,\n        uint256 tokenId\n    ) internal virtual override(ERC721, ERC721Pausable) {\n        super._beforeTokenTransfer(from, to, tokenId);\n    }\n}\n",
  "sourcePath": "/Users/cts/dev/PRUF/PRUF_TRUFFLE/contracts/PRUF_ID_TKN.sol",
  "compiler": {
    "name": "solc",
    "version": "0.6.12+commit.27d51765.Emscripten.clang"
  },
  "schemaVersion": "3.2.3",
  "updatedAt": "2020-12-21T18:14:16.634Z",
  "devdoc": {
    "details": "{ERC721} token, including:  - ability for holders to burn (destroy) their tokens  - a minter role that allows for token minting (creation)  - a pauser role that allows to stop all token transfers  - token ID and URI autogeneration This contract uses {AccessControl} to lock permissioned functions using the different roles - head to its documentation for details. The account that deploys the contract will be granted the minter, pauser, and contract admin roles, as well as the default admin role, which will let it grant minter, pauser, and admin roles to other accounts.",
    "kind": "dev",
    "methods": {
      "approve(address,uint256)": {
        "details": "See {IERC721-approve}."
      },
      "balanceOf(address)": {
        "details": "See {IERC721-balanceOf}."
      },
      "baseURI()": {
        "details": "Returns the base URI set via {_setBaseURI}. This will be automatically added as a prefix in {tokenURI} to each token's URI, or to the token ID if no specific URI is set for that token ID."
      },
      "burn(uint256)": {
        "details": "Burns `tokenId`. See {ERC721-_burn}. Requirements: - The caller must own `tokenId` or be an approved operator."
      },
      "getApproved(uint256)": {
        "details": "See {IERC721-getApproved}."
      },
      "getRoleAdmin(bytes32)": {
        "details": "Returns the admin role that controls `role`. See {grantRole} and {revokeRole}. To change a role's admin, use {_setRoleAdmin}."
      },
      "getRoleMember(bytes32,uint256)": {
        "details": "Returns one of the accounts that have `role`. `index` must be a value between 0 and {getRoleMemberCount}, non-inclusive. Role bearers are not sorted in any particular way, and their ordering may change at any point. WARNING: When using {getRoleMember} and {getRoleMemberCount}, make sure you perform all queries on the same block. See the following https://forum.openzeppelin.com/t/iterating-over-elements-on-enumerableset-in-openzeppelin-contracts/2296[forum post] for more information."
      },
      "getRoleMemberCount(bytes32)": {
        "details": "Returns the number of accounts that have `role`. Can be used together with {getRoleMember} to enumerate all bearers of a role."
      },
      "grantRole(bytes32,address)": {
        "details": "Grants `role` to `account`. If `account` had not been already granted `role`, emits a {RoleGranted} event. Requirements: - the caller must have ``role``'s admin role."
      },
      "hasRole(bytes32,address)": {
        "details": "Returns `true` if `account` has been granted `role`."
      },
      "isApprovedForAll(address,address)": {
        "details": "See {IERC721-isApprovedForAll}."
      },
      "name()": {
        "details": "See {IERC721Metadata-name}."
      },
      "ownerOf(uint256)": {
        "details": "See {IERC721-ownerOf}."
      },
      "pause()": {
        "details": "Pauses all token transfers. See {ERC721Pausable} and {Pausable-_pause}. Requirements: - the caller must have the `PAUSER_ROLE`."
      },
      "paused()": {
        "details": "Returns true if the contract is paused, and false otherwise."
      },
      "renounceRole(bytes32,address)": {
        "details": "Revokes `role` from the calling account. Roles are often managed via {grantRole} and {revokeRole}: this function's purpose is to provide a mechanism for accounts to lose their privileges if they are compromised (such as when a trusted device is misplaced). If the calling account had been granted `role`, emits a {RoleRevoked} event. Requirements: - the caller must be `account`."
      },
      "revokeRole(bytes32,address)": {
        "details": "Revokes `role` from `account`. If `account` had been granted `role`, emits a {RoleRevoked} event. Requirements: - the caller must have ``role``'s admin role."
      },
      "safeTransferFrom(address,address,uint256)": {
        "details": "Safely blocks the transfer of a given token ID to another address If the target address is a contract, it must implement {IERC721Receiver-onERC721Received}, which is called upon a safe transfer, and return the magic value `bytes4(keccak256(\"onERC721Received(address,address,uint256,bytes)\"))`; otherwise, the transfer is reverted. Requires the _msgSender() to be the owner, approved, or operator"
      },
      "safeTransferFrom(address,address,uint256,bytes)": {
        "details": "Safely blocks the transfer of a given token ID to another address If the target address is a contract, it must implement {IERC721Receiver-onERC721Received}, which is called upon a safe transfer, and return the magic value `bytes4(keccak256(\"onERC721Received(address,address,uint256,bytes)\"))`; otherwise, the transfer is reverted. Requires the _msgSender() to be the owner, approved, or operator",
        "params": {
          "_data": "bytes data to send along with a safe transfer check",
          "from": "current owner of the token",
          "to": "address to receive the ownership of the given token ID",
          "tokenId": "uint256 ID of the token to be transferred"
        }
      },
      "setApprovalForAll(address,bool)": {
        "details": "See {IERC721-setApprovalForAll}."
      },
      "supportsInterface(bytes4)": {
        "details": "See {IERC165-supportsInterface}. Time complexity O(1), guaranteed to always use less than 30 000 gas."
      },
      "symbol()": {
        "details": "See {IERC721Metadata-symbol}."
      },
      "tokenByIndex(uint256)": {
        "details": "See {IERC721Enumerable-tokenByIndex}."
      },
      "tokenOfOwnerByIndex(address,uint256)": {
        "details": "See {IERC721Enumerable-tokenOfOwnerByIndex}."
      },
      "tokenURI(uint256)": {
        "details": "See {IERC721Metadata-tokenURI}."
      },
      "totalSupply()": {
        "details": "See {IERC721Enumerable-totalSupply}."
      },
      "transferFrom(address,address,uint256)": {
        "details": "Blocks the transfer of a given token ID to another address Usage of this method is discouraged, use {safeTransferFrom} whenever possible. Requires the _msgSender() to be the owner, approved, or operator."
      },
      "unpause()": {
        "details": "Unpauses all token transfers. See {ERC721Pausable} and {Pausable-_unpause}. Requirements: - the caller must have the `PAUSER_ROLE`."
      }
    },
    "version": 1
  },
  "userdoc": {
    "kind": "user",
    "methods": {},
    "version": 1
  }
}