{
  "contractName": "Implementation2",
  "abi": [
    {
      "inputs": [],
      "name": "initialize",
      "outputs": [],
      "stateMutability": "nonpayable",
      "type": "function"
    },
    {
      "inputs": [
        {
          "internalType": "uint256",
          "name": "_number",
          "type": "uint256"
        }
      ],
      "name": "setValue",
      "outputs": [],
      "stateMutability": "nonpayable",
      "type": "function"
    },
    {
      "inputs": [],
      "name": "getValue",
      "outputs": [
        {
          "internalType": "uint256",
          "name": "",
          "type": "uint256"
        }
      ],
      "stateMutability": "view",
      "type": "function"
    }
  ],
  "bytecode": "0x608060405234801561001057600080fd5b5061019e806100206000396000f3fe608060405234801561001057600080fd5b50600436106100415760003560e01c8063209652551461004657806355241077146100605780638129fc1c1461007f575b600080fd5b61004e610087565b60408051918252519081900360200190f35b61007d6004803603602081101561007657600080fd5b503561008d565b005b61007d610092565b60015490565b600155565b600054610100900460ff16806100ab57506100ab610134565b806100b9575060005460ff16155b6100f45760405162461bcd60e51b815260040180806020018281038252602e81526020018061013b602e913960400191505060405180910390fd5b600054610100900460ff1615801561011f576000805460ff1961ff0019909116610100171660011790555b8015610131576000805461ff00191690555b50565b303b159056fe496e697469616c697a61626c653a20636f6e747261637420697320616c726561647920696e697469616c697a6564a26469706673582212203c37a0c3664378ef241ac39527ff991deb666782c614ec432dbef111cb89649164736f6c634300060c0033",
  "immutableReferences": {},
  "source": "// SPDX-License-Identifier: MIT\r\n\r\npragma solidity ^0.6.0;\r\n\r\nimport \"../proxy/Initializable.sol\";\r\n\r\ncontract Implementation1 is Initializable {\r\n  uint internal _value;\r\n\r\n  function initialize() public initializer {\r\n  }\r\n\r\n  function setValue(uint _number) public {\r\n    _value = _number;\r\n  }\r\n}\r\n\r\ncontract Implementation2 is Initializable {\r\n  uint internal _value;\r\n\r\n  function initialize() public initializer {\r\n  }\r\n\r\n  function setValue(uint _number) public {\r\n    _value = _number;\r\n  }\r\n\r\n  function getValue() public view returns (uint) {\r\n    return _value;\r\n  }\r\n}\r\n\r\ncontract Implementation3 is Initializable {\r\n  uint internal _value;\r\n\r\n  function initialize() public initializer {\r\n  }\r\n\r\n  function setValue(uint _number) public {\r\n    _value = _number;\r\n  }\r\n\r\n  function getValue(uint _number) public view returns (uint) {\r\n    return _value + _number;\r\n  }\r\n}\r\n\r\ncontract Implementation4 is Initializable {\r\n  uint internal _value;\r\n\r\n  function initialize() public initializer {\r\n  }\r\n\r\n  function setValue(uint _number) public {\r\n    _value = _number;\r\n  }\r\n\r\n  function getValue() public view returns (uint) {\r\n    return _value;\r\n  }\r\n\r\n  // solhint-disable-next-line payable-fallback\r\n  fallback() external {\r\n    _value = 1;\r\n  }\r\n}\r\n",
  "sourcePath": "C:\\Users\\drake\\onedrive\\documents\\dev\\pruf\\PRUF_TRUFFLE\\contracts\\imports\\mocks\\RegressionImplementation.sol",
  "compiler": {
    "name": "solc",
    "version": "0.6.12+commit.27d51765.Emscripten.clang"
  },
  "schemaVersion": "3.2.2",
  "updatedAt": "2020-09-16T15:05:08.339Z",
  "devdoc": {
    "kind": "dev",
    "methods": {},
    "version": 1
  },
  "userdoc": {
    "kind": "user",
    "methods": {},
    "version": 1
  }
}