{
  "contractName": "InitializableMock",
  "abi": [
    {
      "inputs": [],
      "name": "initializerRan",
      "outputs": [
        {
          "internalType": "bool",
          "name": "",
          "type": "bool"
        }
      ],
      "stateMutability": "view",
      "type": "function"
    },
    {
      "inputs": [],
      "name": "x",
      "outputs": [
        {
          "internalType": "uint256",
          "name": "",
          "type": "uint256"
        }
      ],
      "stateMutability": "view",
      "type": "function"
    },
    {
      "inputs": [],
      "name": "initialize",
      "outputs": [],
      "stateMutability": "nonpayable",
      "type": "function"
    },
    {
      "inputs": [],
      "name": "initializeNested",
      "outputs": [],
      "stateMutability": "nonpayable",
      "type": "function"
    },
    {
      "inputs": [
        {
          "internalType": "uint256",
          "name": "_x",
          "type": "uint256"
        }
      ],
      "name": "initializeWithX",
      "outputs": [],
      "stateMutability": "payable",
      "type": "function"
    },
    {
      "inputs": [
        {
          "internalType": "uint256",
          "name": "_x",
          "type": "uint256"
        }
      ],
      "name": "nonInitializable",
      "outputs": [],
      "stateMutability": "payable",
      "type": "function"
    },
    {
      "inputs": [],
      "name": "fail",
      "outputs": [],
      "stateMutability": "pure",
      "type": "function"
    }
  ],
  "bytecode": "0x608060405234801561001057600080fd5b50610384806100206000396000f3fe60806040526004361061006f5760003560e01c8063a9cc47181161004e578063a9cc4718146100c7578063c3b8ef2a146100dc578063cb3a528d1461010c578063e955c9ec1461012157600080fd5b806218eaa8146100745780630c55699c146100895780638129fc1c146100b2575b600080fd5b6100876100823660046102e7565b610134565b005b34801561009557600080fd5b5061009f60015481565b6040519081526020015b60405180910390f35b3480156100be57600080fd5b506100876101af565b3480156100d357600080fd5b5061008761022c565b3480156100e857600080fd5b506000546100fc9062010000900460ff1681565b60405190151581526020016100a9565b34801561011857600080fd5b50610087610274565b61008761012f3660046102e7565b600155565b600054610100900460ff168061014d575060005460ff16155b6101725760405162461bcd60e51b815260040161016990610300565b60405180910390fd5b600054610100900460ff16158015610194576000805461ffff19166101011790555b600182905580156101ab576000805461ff00191690555b5050565b600054610100900460ff16806101c8575060005460ff16155b6101e45760405162461bcd60e51b815260040161016990610300565b600054610100900460ff16158015610206576000805461ffff19166101011790555b6000805462ff00001916620100001790558015610229576000805461ff00191690555b50565b60405162461bcd60e51b815260206004820181905260248201527f496e697469616c697a61626c654d6f636b20666f72636564206661696c7572656044820152606401610169565b600054610100900460ff168061028d575060005460ff16155b6102a95760405162461bcd60e51b815260040161016990610300565b600054610100900460ff161580156102cb576000805461ffff19166101011790555b6102d36101af565b8015610229576000805461ff001916905550565b6000602082840312156102f957600080fd5b5035919050565b6020808252602e908201527f496e697469616c697a61626c653a20636f6e747261637420697320616c72656160408201526d191e481a5b9a5d1a585b1a5e995960921b60608201526080019056fea26469706673582212205168a29eaf40b374195a522ae90cb1c50ea4c9b6de2d4e6349075580811b600a64736f6c63430008070033",
  "immutableReferences": {},
  "source": "// SPDX-License-Identifier: MIT\n\npragma solidity ^0.8.0;\n\nimport \"../proxy/utils/Initializable.sol\";\n\n/**\n * @title InitializableMock\n * @dev This contract is a mock to test initializable functionality\n */\ncontract InitializableMock is Initializable {\n    bool public initializerRan;\n    uint256 public x;\n\n    function initialize() public initializer {\n        initializerRan = true;\n    }\n\n    function initializeNested() public initializer {\n        initialize();\n    }\n\n    function initializeWithX(uint256 _x) public payable initializer {\n        x = _x;\n    }\n\n    function nonInitializable(uint256 _x) public payable {\n        x = _x;\n    }\n\n    function fail() public pure {\n        require(false, \"InitializableMock forced failure\");\n    }\n}\n",
  "sourcePath": "/Users/drake/Documents/DEV/PRUF/PRUF_TRUFFLE/contracts/Imports/mocks/InitializableMock.sol",
  "compiler": {
    "name": "solc",
    "version": "0.8.7+commit.e28d00a7.Emscripten.clang"
  },
  "schemaVersion": "3.4.3",
  "updatedAt": "2021-10-26T17:58:03.702Z",
  "devdoc": {
    "details": "This contract is a mock to test initializable functionality",
    "kind": "dev",
    "methods": {},
    "title": "InitializableMock",
    "version": 1
  },
  "userdoc": {
    "kind": "user",
    "methods": {},
    "version": 1
  }
}