{
  "contractName": "MAL_APP",
  "abi": [
    {
      "anonymous": false,
      "inputs": [
        {
          "indexed": false,
          "internalType": "address",
          "name": "account",
          "type": "address"
        }
      ],
      "name": "Paused",
      "type": "event"
    },
    {
      "anonymous": false,
      "inputs": [
        {
          "indexed": false,
          "internalType": "string",
          "name": "_msg",
          "type": "string"
        }
      ],
      "name": "REPORT",
      "type": "event"
    },
    {
      "anonymous": false,
      "inputs": [
        {
          "indexed": true,
          "internalType": "bytes32",
          "name": "role",
          "type": "bytes32"
        },
        {
          "indexed": true,
          "internalType": "bytes32",
          "name": "previousAdminRole",
          "type": "bytes32"
        },
        {
          "indexed": true,
          "internalType": "bytes32",
          "name": "newAdminRole",
          "type": "bytes32"
        }
      ],
      "name": "RoleAdminChanged",
      "type": "event"
    },
    {
      "anonymous": false,
      "inputs": [
        {
          "indexed": true,
          "internalType": "bytes32",
          "name": "role",
          "type": "bytes32"
        },
        {
          "indexed": true,
          "internalType": "address",
          "name": "account",
          "type": "address"
        },
        {
          "indexed": true,
          "internalType": "address",
          "name": "sender",
          "type": "address"
        }
      ],
      "name": "RoleGranted",
      "type": "event"
    },
    {
      "anonymous": false,
      "inputs": [
        {
          "indexed": true,
          "internalType": "bytes32",
          "name": "role",
          "type": "bytes32"
        },
        {
          "indexed": true,
          "internalType": "address",
          "name": "account",
          "type": "address"
        },
        {
          "indexed": true,
          "internalType": "address",
          "name": "sender",
          "type": "address"
        }
      ],
      "name": "RoleRevoked",
      "type": "event"
    },
    {
      "anonymous": false,
      "inputs": [
        {
          "indexed": false,
          "internalType": "address",
          "name": "account",
          "type": "address"
        }
      ],
      "name": "Unpaused",
      "type": "event"
    },
    {
      "inputs": [],
      "name": "ASSET_TXFR_ROLE",
      "outputs": [
        {
          "internalType": "bytes32",
          "name": "",
          "type": "bytes32"
        }
      ],
      "stateMutability": "view",
      "type": "function"
    },
    {
      "inputs": [],
      "name": "CONTRACT_ADMIN_ROLE",
      "outputs": [
        {
          "internalType": "bytes32",
          "name": "",
          "type": "bytes32"
        }
      ],
      "stateMutability": "view",
      "type": "function"
    },
    {
      "inputs": [],
      "name": "DEFAULT_ADMIN_ROLE",
      "outputs": [
        {
          "internalType": "bytes32",
          "name": "",
          "type": "bytes32"
        }
      ],
      "stateMutability": "view",
      "type": "function"
    },
    {
      "inputs": [],
      "name": "OO_resolveContractAddresses",
      "outputs": [],
      "stateMutability": "nonpayable",
      "type": "function"
    },
    {
      "inputs": [
        {
          "internalType": "address",
          "name": "_storageAddress",
          "type": "address"
        }
      ],
      "name": "OO_setStorageContract",
      "outputs": [],
      "stateMutability": "nonpayable",
      "type": "function"
    },
    {
      "inputs": [
        {
          "internalType": "address",
          "name": "_to",
          "type": "address"
        },
        {
          "internalType": "uint256",
          "name": "_tokenID",
          "type": "uint256"
        }
      ],
      "name": "OO_transferACToken",
      "outputs": [],
      "stateMutability": "nonpayable",
      "type": "function"
    },
    {
      "inputs": [],
      "name": "PAUSER_ROLE",
      "outputs": [
        {
          "internalType": "bytes32",
          "name": "",
          "type": "bytes32"
        }
      ],
      "stateMutability": "view",
      "type": "function"
    },
    {
      "inputs": [
        {
          "internalType": "bytes32",
          "name": "role",
          "type": "bytes32"
        }
      ],
      "name": "getRoleAdmin",
      "outputs": [
        {
          "internalType": "bytes32",
          "name": "",
          "type": "bytes32"
        }
      ],
      "stateMutability": "view",
      "type": "function"
    },
    {
      "inputs": [
        {
          "internalType": "bytes32",
          "name": "role",
          "type": "bytes32"
        },
        {
          "internalType": "uint256",
          "name": "index",
          "type": "uint256"
        }
      ],
      "name": "getRoleMember",
      "outputs": [
        {
          "internalType": "address",
          "name": "",
          "type": "address"
        }
      ],
      "stateMutability": "view",
      "type": "function"
    },
    {
      "inputs": [
        {
          "internalType": "bytes32",
          "name": "role",
          "type": "bytes32"
        }
      ],
      "name": "getRoleMemberCount",
      "outputs": [
        {
          "internalType": "uint256",
          "name": "",
          "type": "uint256"
        }
      ],
      "stateMutability": "view",
      "type": "function"
    },
    {
      "inputs": [
        {
          "internalType": "bytes32",
          "name": "role",
          "type": "bytes32"
        },
        {
          "internalType": "address",
          "name": "account",
          "type": "address"
        }
      ],
      "name": "grantRole",
      "outputs": [],
      "stateMutability": "nonpayable",
      "type": "function"
    },
    {
      "inputs": [
        {
          "internalType": "bytes32",
          "name": "role",
          "type": "bytes32"
        },
        {
          "internalType": "address",
          "name": "account",
          "type": "address"
        }
      ],
      "name": "hasRole",
      "outputs": [
        {
          "internalType": "bool",
          "name": "",
          "type": "bool"
        }
      ],
      "stateMutability": "view",
      "type": "function"
    },
    {
      "inputs": [
        {
          "internalType": "address",
          "name": "",
          "type": "address"
        },
        {
          "internalType": "address",
          "name": "",
          "type": "address"
        },
        {
          "internalType": "uint256",
          "name": "",
          "type": "uint256"
        },
        {
          "internalType": "bytes",
          "name": "",
          "type": "bytes"
        }
      ],
      "name": "onERC721Received",
      "outputs": [
        {
          "internalType": "bytes4",
          "name": "",
          "type": "bytes4"
        }
      ],
      "stateMutability": "nonpayable",
      "type": "function"
    },
    {
      "inputs": [],
      "name": "pause",
      "outputs": [],
      "stateMutability": "nonpayable",
      "type": "function"
    },
    {
      "inputs": [],
      "name": "paused",
      "outputs": [
        {
          "internalType": "bool",
          "name": "",
          "type": "bool"
        }
      ],
      "stateMutability": "view",
      "type": "function"
    },
    {
      "inputs": [
        {
          "internalType": "bytes32",
          "name": "role",
          "type": "bytes32"
        },
        {
          "internalType": "address",
          "name": "account",
          "type": "address"
        }
      ],
      "name": "renounceRole",
      "outputs": [],
      "stateMutability": "nonpayable",
      "type": "function"
    },
    {
      "inputs": [
        {
          "internalType": "bytes32",
          "name": "role",
          "type": "bytes32"
        },
        {
          "internalType": "address",
          "name": "account",
          "type": "address"
        }
      ],
      "name": "revokeRole",
      "outputs": [],
      "stateMutability": "nonpayable",
      "type": "function"
    },
    {
      "inputs": [
        {
          "internalType": "address",
          "name": "_to",
          "type": "address"
        },
        {
          "internalType": "bytes32",
          "name": "_idxHash",
          "type": "bytes32"
        }
      ],
      "name": "transferAssetToken",
      "outputs": [],
      "stateMutability": "nonpayable",
      "type": "function"
    },
    {
      "inputs": [],
      "name": "unpause",
      "outputs": [],
      "stateMutability": "nonpayable",
      "type": "function"
    },
    {
      "inputs": [
        {
          "internalType": "bytes32",
          "name": "_idxHash",
          "type": "bytes32"
        },
        {
          "internalType": "bytes32",
          "name": "_rgtHash",
          "type": "bytes32"
        },
        {
          "internalType": "uint32",
          "name": "_assetClass",
          "type": "uint32"
        },
        {
          "internalType": "uint32",
          "name": "_countDownStart",
          "type": "uint32"
        }
      ],
      "name": "$newRecord",
      "outputs": [],
      "stateMutability": "nonpayable",
      "type": "function"
    },
    {
      "inputs": [
        {
          "internalType": "bytes32",
          "name": "_idxHash",
          "type": "bytes32"
        },
        {
          "internalType": "uint8",
          "name": "_newAssetStatus",
          "type": "uint8"
        }
      ],
      "name": "_modStatus",
      "outputs": [
        {
          "internalType": "uint8",
          "name": "",
          "type": "uint8"
        }
      ],
      "stateMutability": "nonpayable",
      "type": "function"
    },
    {
      "inputs": [
        {
          "internalType": "bytes32",
          "name": "_idxHash",
          "type": "bytes32"
        },
        {
          "internalType": "uint8",
          "name": "_newAssetStatus",
          "type": "uint8"
        }
      ],
      "name": "_setLostOrStolen",
      "outputs": [
        {
          "internalType": "uint8",
          "name": "",
          "type": "uint8"
        }
      ],
      "stateMutability": "nonpayable",
      "type": "function"
    },
    {
      "inputs": [
        {
          "internalType": "bytes32",
          "name": "_idxHash",
          "type": "bytes32"
        },
        {
          "internalType": "uint32",
          "name": "_decAmount",
          "type": "uint32"
        }
      ],
      "name": "_decCounter",
      "outputs": [
        {
          "internalType": "uint32",
          "name": "",
          "type": "uint32"
        }
      ],
      "stateMutability": "nonpayable",
      "type": "function"
    },
    {
      "inputs": [
        {
          "internalType": "bytes32",
          "name": "_idxHash",
          "type": "bytes32"
        },
        {
          "internalType": "bytes32",
          "name": "_IpfsHash",
          "type": "bytes32"
        }
      ],
      "name": "_modIpfs1",
      "outputs": [
        {
          "internalType": "bytes32",
          "name": "",
          "type": "bytes32"
        }
      ],
      "stateMutability": "nonpayable",
      "type": "function"
    },
    {
      "inputs": [
        {
          "internalType": "bytes32",
          "name": "_idxHash",
          "type": "bytes32"
        },
        {
          "internalType": "bytes32",
          "name": "_IpfsHash",
          "type": "bytes32"
        }
      ],
      "name": "$addIpfs2Note",
      "outputs": [
        {
          "internalType": "bytes32",
          "name": "",
          "type": "bytes32"
        }
      ],
      "stateMutability": "nonpayable",
      "type": "function"
    },
    {
      "inputs": [
        {
          "internalType": "bytes32",
          "name": "_idxHash",
          "type": "bytes32"
        },
        {
          "internalType": "uint32",
          "name": "newAssetClass",
          "type": "uint32"
        }
      ],
      "name": "changeAC",
      "outputs": [
        {
          "internalType": "uint8",
          "name": "",
          "type": "uint8"
        }
      ],
      "stateMutability": "nonpayable",
      "type": "function"
    },
    {
      "inputs": [
        {
          "internalType": "bytes32",
          "name": "_idxHash",
          "type": "bytes32"
        },
        {
          "internalType": "bytes32",
          "name": "_escrowOwnerHash",
          "type": "bytes32"
        },
        {
          "internalType": "uint256",
          "name": "_escrowTime",
          "type": "uint256"
        },
        {
          "internalType": "uint8",
          "name": "_escrowStatus",
          "type": "uint8"
        }
      ],
      "name": "setEscrow",
      "outputs": [],
      "stateMutability": "nonpayable",
      "type": "function"
    },
    {
      "inputs": [
        {
          "internalType": "bytes32",
          "name": "_idxHash",
          "type": "bytes32"
        },
        {
          "internalType": "uint8",
          "name": "_escrowStatus",
          "type": "uint8"
        }
      ],
      "name": "setEscrowStor",
      "outputs": [],
      "stateMutability": "nonpayable",
      "type": "function"
    },
    {
      "inputs": [
        {
          "internalType": "bytes32",
          "name": "_idxHash",
          "type": "bytes32"
        }
      ],
      "name": "endEscrow",
      "outputs": [],
      "stateMutability": "nonpayable",
      "type": "function"
    },
    {
      "inputs": [
        {
          "internalType": "bytes32",
          "name": "_idxHash",
          "type": "bytes32"
        }
      ],
      "name": "endEscrowStor",
      "outputs": [],
      "stateMutability": "nonpayable",
      "type": "function"
    },
    {
      "inputs": [
        {
          "internalType": "bytes32",
          "name": "_idxHash",
          "type": "bytes32"
        }
      ],
      "name": "retrieveRecordStor",
      "outputs": [],
      "stateMutability": "view",
      "type": "function"
    },
    {
      "inputs": [
        {
          "internalType": "uint256",
          "name": "tokenId",
          "type": "uint256"
        }
      ],
      "name": "discard",
      "outputs": [],
      "stateMutability": "nonpayable",
      "type": "function"
    }
  ],
  "bytecode": "0x60806040523480156200001157600080fd5b50600160009081556002805460ff191690556200003890620000326200009c565b620000a0565b620000677f2ce8d04a9c35987429af538825cd2438cc5c5bb5dc427955f84daaa3ea105016620000326200009c565b620000967f65d7a28e3265b37a6474929f336521b332c1681b933f6cb9f3376673440d862a620000326200009c565b620001b2565b3390565b620000ac8282620000b0565b5050565b6000828152600160209081526040909120620000d7918390620019c46200012b821b17901c565b15620000ac57620000e76200009c565b6001600160a01b0316816001600160a01b0316837f2f8788117e7eff1d82e926ec794901d17c78024a50270940304540a733656f0d60405160405180910390a45050565b600062000142836001600160a01b0384166200014b565b90505b92915050565b60006200015983836200019a565b620001915750815460018181018455600084815260208082209093018490558454848252828601909352604090209190915562000145565b50600062000145565b60009081526001919091016020526040902054151590565b61291f80620001c26000396000f3fe608060405234801561001057600080fd5b50600436106101f05760003560e01c80637e8f2b0c1161010f578063ca15c873116100a2578063da5a620011610071578063da5a62001461067d578063e63ab1e91461069a578063e8b41653146106a2578063e8e1152c146106aa576101f0565b8063ca15c873146105eb578063d547741f14610608578063d6b02ecf14610634578063d9d8a09d1461065a576101f0565b806391d14854116100de57806391d148541461055957806392ba3da614610585578063a217fddf146105b1578063b29c3959146105b9576101f0565b80637e8f2b0c146104b35780638456cb59146104d057806390073492146104d85780639010d07c1461051a576101f0565b80633f4ba83a116101875780635c975abb116101565780635c975abb1461042b57806362a02f86146104475780637698f98b146104705780637cb3f6eb14610496576101f0565b80633f4ba83a14610384578063440e7a7e1461038c57806352c8fc88146103b8578063555a6eaf146103f4576101f0565b80631da03312116101c35780631da0331214610307578063248a9ca31461030f5780632f2ff15d1461032c57806336568abe14610358576101f0565b8063062cf11f146101f5578063077016b71461022a5780631429db5f14610252578063150b7a021461025a575b600080fd5b6102186004803603604081101561020b57600080fd5b50803590602001356106c7565b60408051918252519081900360200190f35b6102506004803603604081101561024057600080fd5b508035906020013560ff166106fa565b005b61021861076c565b6102ea6004803603608081101561027057600080fd5b6001600160a01b038235811692602081013590911691604082013591908101906080810160608201356401000000008111156102ab57600080fd5b8201836020820111156102bd57600080fd5b803590602001918460018302840111640100000000831117156102df57600080fd5b509092509050610790565b604080516001600160e01b03199092168252519081900360200190f35b6102186107a1565b6102186004803603602081101561032557600080fd5b50356107b3565b6102506004803603604081101561034257600080fd5b50803590602001356001600160a01b03166107c8565b6102506004803603604081101561036e57600080fd5b50803590602001356001600160a01b0316610834565b610250610895565b610250600480360360408110156103a257600080fd5b506001600160a01b038135169060200135610906565b6103de600480360360408110156103ce57600080fd5b508035906020013560ff16610a4e565b6040805160ff9092168252519081900360200190f35b6102506004803603608081101561040a57600080fd5b5080359060208101359063ffffffff60408201358116916060013516610a7b565b610433610b09565b604080519115158252519081900360200190f35b6103de6004803603604081101561045d57600080fd5b508035906020013563ffffffff16610b12565b6103de6004803603604081101561048657600080fd5b508035906020013560ff16610ba2565b610250600480360360208110156104ac57600080fd5b5035610c11565b610250600480360360208110156104c957600080fd5b5035610c8c565b610250610d5a565b610501600480360360408110156104ee57600080fd5b508035906020013563ffffffff16610dc9565b6040805163ffffffff9092168252519081900360200190f35b61053d6004803603604081101561053057600080fd5b5080359060200135610e29565b604080516001600160a01b039092168252519081900360200190f35b6104336004803603604081101561056f57600080fd5b50803590602001356001600160a01b0316610e48565b6102506004803603604081101561059b57600080fd5b506001600160a01b038135169060200135610e60565b610218610f59565b610250600480360360808110156105cf57600080fd5b508035906020810135906040810135906060013560ff16610f5e565b6102186004803603602081101561060157600080fd5b5035610ff3565b6102506004803603604081101561061e57600080fd5b50803590602001356001600160a01b031661100a565b6102506004803603602081101561064a57600080fd5b50356001600160a01b0316611063565b6102186004803603604081101561067057600080fd5b508035906020013561111f565b6102506004803603602081101561069357600080fd5b5035611161565b6102186111c9565b6102506111ed565b610250600480360360208110156106c057600080fd5b5035611977565b60006106d161269e565b6106da846119d9565b60e0810184905290506106ed8482611b5b565b60e0015190505b92915050565b600354604080516316bf0f2d60e21b81526004810185905260ff8416602482015290516001600160a01b0390921691635afc3cb49160448082019260009290919082900301818387803b15801561075057600080fd5b505af1158015610764573d6000803e3d6000fd5b505050505050565b7f7f1e4e9f3d9ba0452a25cfef4cd4c6ffc86158d06ed2f585fa0093e12dec429c81565b630a85bd0160e11b95945050505050565b60008051602061284683398151915281565b60009081526001602052604090206002015490565b6000828152600160205260409020600201546107eb906107e6611bff565b610e48565b6108265760405162461bcd60e51b815260040180806020018281038252602f81526020018061277c602f913960400191505060405180910390fd5b6108308282611c03565b5050565b61083c611bff565b6001600160a01b0316816001600160a01b03161461088b5760405162461bcd60e51b815260040180806020018281038252602f8152602001806128bb602f913960400191505060405180910390fd5b6108308282611c6c565b6108c17f65d7a28e3265b37a6474929f336521b332c1681b933f6cb9f3376673440d862a6107e6611bff565b6108fc5760405162461bcd60e51b81526004018080602001828103825260278152602001806128666027913960400191505060405180910390fd5b610904611cd5565b565b6002600054141561094c576040805162461bcd60e51b815260206004820152601f60248201526000805160206127ab833981519152604482015290519081900360640190fd5b600260005561097d7f7f1e4e9f3d9ba0452a25cfef4cd4c6ffc86158d06ed2f585fa0093e12dec429c6107e6611bff565b6109ce576040805162461bcd60e51b815260206004820152601e60248201527f423a54583a4d75737420686176652041535345545f545846525f524f4c450000604482015290519081900360640190fd5b60095460408051632142170760e11b81523060048201526001600160a01b038581166024830152604482018590529151849392909216916342842e0e9160648082019260009290919082900301818387803b158015610a2c57600080fd5b505af1158015610a40573d6000803e3d6000fd5b505060016000555050505050565b6000610a5861269e565b610a61846119d9565b60ff841681529050610a738482611d73565b519392505050565b610a8361269e565b610a8c856119d9565b9050610a966126ea565b610a9f84611e4b565b9050610aa96126ea565b610ab68360200151611e4b565b9050806020015163ffffffff16826020015163ffffffff161415610ae957610ae48787878660600151611f21565b610af5565b610af587878787611f21565b610b00856001612155565b50505050505050565b60025460ff1690565b6000610b1c61269e565b610b25846119d9565b6003546040805163315017c360e11b81526004810188905263ffffffff8716602482015290519293506001600160a01b03909116916362a02f869160448082019260009290919082900301818387803b158015610b8157600080fd5b505af1158015610b95573d6000803e3d6000fd5b5050915195945050505050565b6000610bac61269e565b610bb5846119d9565b60ff841680825260035460408051637911aa5360e11b8152600481018990526024810193909352519293506001600160a01b03169163f22354a69160448082019260009290919082900301818387803b158015610b8157600080fd5b600354604080516338923cb160e21b81526004810184905290516001600160a01b039092169163e248f2c49160248082019260e092909190829003018186803b158015610c5d57600080fd5b505afa158015610c71573d6000803e3d6000fd5b505050506040513d60e0811015610c8757600080fd5b505050565b60026000541415610cd2576040805162461bcd60e51b815260206004820152601f60248201526000805160206127ab833981519152604482015290519081900360640190fd5b600260005560115481906001600160a01b031663c456771482610cf3611bff565b6040518363ffffffff1660e01b815260040180838152602001826001600160a01b0316815260200192505050600060405180830381600087803b158015610d3957600080fd5b505af1158015610d4d573d6000803e3d6000fd5b5050600160005550505050565b610d867f65d7a28e3265b37a6474929f336521b332c1681b933f6cb9f3376673440d862a6107e6611bff565b610dc15760405162461bcd60e51b81526004018080602001828103825260278152602001806128666027913960400191505060405180910390fd5b610904612268565b6000610dd361269e565b610ddc846119d9565b90508263ffffffff16816040015163ffffffff161115610e0c5760408101805184900363ffffffff169052610e14565b600060408201525b610e1e8482611d73565b604001519392505050565b6000828152600160205260408120610e4190836122e9565b9392505050565b6000828152600160205260408120610e4190836122f5565b610e7a6000805160206128468339815191526107e6611bff565b610eb55760405162461bcd60e51b81526004018080602001828103825260268152602001806127cb6026913960400191505060405180910390fd5b60026000541415610efb576040805162461bcd60e51b815260206004820152601f60248201526000805160206127ab833981519152604482015290519081900360640190fd5b60026000908155600b5460408051632142170760e11b81523060048201526001600160a01b03868116602483015260448201869052915191909216926342842e0e926064808201939182900301818387803b158015610d3957600080fd5b600081565b6000610f6a428461230a565b600f5460408051637318462b60e11b81526004810189905260ff861660248201526044810188905260648101849052905192935084926001600160a01b039092169163e6308c569160848082019260009290919082900301818387803b158015610fd357600080fd5b505af1158015610fe7573d6000803e3d6000fd5b50505050505050505050565b60008181526001602052604081206106f490612364565b600082815260016020526040902060020154611028906107e6611bff565b61088b5760405162461bcd60e51b81526004018080602001828103825260308152602001806128166030913960400191505060405180910390fd5b61107d6000805160206128468339815191526107e6611bff565b6110b85760405162461bcd60e51b81526004018080602001828103825260268152602001806127cb6026913960400191505060405180910390fd5b6001600160a01b0381166110fd5760405162461bcd60e51b81526004018080602001828103825260258152602001806127f16025913960400191505060405180910390fd5b600380546001600160a01b0319166001600160a01b0392909216919091179055565b600061112961269e565b611132846119d9565b61010081018490529050611146848261236f565b61115581602001516003612155565b61010001519392505050565b60035460408051633a38454b60e21b81526004810184905290516001600160a01b039092169163e8e1152c9160248082019260009290919082900301818387803b1580156111ae57600080fd5b505af11580156111c2573d6000803e3d6000fd5b5050505050565b7f65d7a28e3265b37a6474929f336521b332c1681b933f6cb9f3376673440d862a81565b60026000541415611233576040805162461bcd60e51b815260206004820152601f60248201526000805160206127ab833981519152604482015290519081900360640190fd5b60026000556112526000805160206128468339815191526107e6611bff565b61128d5760405162461bcd60e51b81526004018080602001828103825260268152602001806127cb6026913960400191505060405180910390fd5b600354604080516363b8d4c160e11b8152602060048201819052600660248301526520a1afaa25a760d11b604483015291516001600160a01b039093169263c771a98292606480840193919291829003018186803b1580156112ee57600080fd5b505afa158015611302573d6000803e3d6000fd5b505050506040513d602081101561131857600080fd5b5051600a80546001600160a01b039283166001600160a01b03199182161791829055600b8054909116918316919091179055600354604080516363b8d4c160e11b8152602060048201819052600660248301526520a1afa6a3a960d11b60448301529151929093169263c771a9829260648083019392829003018186803b1580156113a257600080fd5b505afa1580156113b6573d6000803e3d6000fd5b505050506040513d60208110156113cc57600080fd5b5051600480546001600160a01b039283166001600160a01b03199182161780835560058054909216908416179055600354604080516363b8d4c160e11b8152602093810184905260086024820152672aaa24a62faa25a760c11b60448201529051919093169263c771a982926064808301939192829003018186803b15801561145457600080fd5b505afa158015611468573d6000803e3d6000fd5b505050506040513d602081101561147e57600080fd5b5051600680546001600160a01b039283166001600160a01b0319918216179182905560078054909116918316919091179055600354604080516363b8d4c160e11b8152602060048201819052600560248301526420afaa25a760d91b60448301529151929093169263c771a9829260648083019392829003018186803b15801561150757600080fd5b505afa15801561151b573d6000803e3d6000fd5b505050506040513d602081101561153157600080fd5b5051600880546001600160a01b039283166001600160a01b0319918216179182905560098054909116918316919091179055600354604080516363b8d4c160e11b8152602060048201819052600660248301526524a22faa25a760d11b60448301529151929093169263c771a9829260648083019392829003018186803b1580156115bb57600080fd5b505afa1580156115cf573d6000803e3d6000fd5b505050506040513d60208110156115e557600080fd5b5051600c80546001600160a01b039283166001600160a01b03199182161791829055600d8054909116918316919091179055600354604080516363b8d4c160e11b8152602060048201819052600760248301526622a1a92fa6a3a960c91b60448301529151929093169263c771a9829260648083019392829003018186803b15801561167057600080fd5b505afa158015611684573d6000803e3d6000fd5b505050506040513d602081101561169a57600080fd5b5051600e80546001600160a01b039283166001600160a01b03199182161791829055600f805490911691831691909117905560038054604080516363b8d4c160e11b815260206004820181905260248201949094526204150560ec1b60448201529051919093169263c771a982926064808301939192829003018186803b15801561172457600080fd5b505afa158015611738573d6000803e3d6000fd5b505050506040513d602081101561174e57600080fd5b5051601280546001600160a01b039283166001600160a01b0319918216179182905560138054909116918316919091179055600354604080516363b8d4c160e11b8152602060048083018290526024830152632921a62960e11b60448301529151929093169263c771a9829260648083019392829003018186803b1580156117d557600080fd5b505afa1580156117e9573d6000803e3d6000fd5b505050506040513d60208110156117ff57600080fd5b5051601080546001600160a01b039283166001600160a01b0319918216179182905560118054909116918316919091179055600354604080516363b8d4c160e11b815260206004820181905260066024830152654150505f4e4360d01b60448301529151929093169263c771a9829260648083019392829003018186803b15801561188957600080fd5b505afa15801561189d573d6000803e3d6000fd5b505050506040513d60208110156118b357600080fd5b5051601480546001600160a01b0319166001600160a01b03928316179055600354604080516363b8d4c160e11b8152602060048201819052600260248301526104e560f41b60448301529151929093169263c771a9829260648083019392829003018186803b15801561192557600080fd5b505afa158015611939573d6000803e3d6000fd5b505050506040513d602081101561194f57600080fd5b5051601780546001600160a01b0319166001600160a01b039092169190911790556001600055565b600f5460408051633a38454b60e21b81526004810184905290516001600160a01b039092169163e8e1152c9160248082019260009290919082900301818387803b1580156111ae57600080fd5b6000610e41836001600160a01b038416612414565b6119e161269e565b6119e961269e565b6000806000806000806000600360009054906101000a90046001600160a01b03166001600160a01b031663e248f2c48b6040518263ffffffff1660e01b81526004018082815260200191505060e06040518083038186803b158015611a4d57600080fd5b505afa158015611a61573d6000803e3d6000fd5b505050506040513d60e0811015611a7757600080fd5b81019080805190602001909291908051906020019092919080519060200190929190805190602001909291908051906020019092919080519060200190929190805190602001909291905050509650965096509650965096509650868860c001818152505085886000019060ff16908160ff168152505084886020019063ffffffff16908163ffffffff168152505083886040019063ffffffff16908163ffffffff168152505082886060019063ffffffff16908163ffffffff1681525050818860e001818152505080886101000181815250505050505050505080915050919050565b60025460ff1615611ba6576040805162461bcd60e51b815260206004820152601060248201526f14185d5cd8589b194e881c185d5cd95960821b604482015290519081900360640190fd5b60035460e0820151604080516310b3712960e21b8152600481018690526024810192909252516001600160a01b03909216916342cdc4a49160448082019260009290919082900301818387803b15801561075057600080fd5b3390565b6000828152600160205260409020611c1b90826119c4565b1561083057611c28611bff565b6001600160a01b0316816001600160a01b0316837f2f8788117e7eff1d82e926ec794901d17c78024a50270940304540a733656f0d60405160405180910390a45050565b6000828152600160205260409020611c84908261245e565b1561083057611c91611bff565b6001600160a01b0316816001600160a01b0316837ff6391f5c32d9c69d2a47ea670b442974b53935d1edc7fd64eb21e047a839171b60405160405180910390a45050565b60025460ff16611d23576040805162461bcd60e51b815260206004820152601460248201527314185d5cd8589b194e881b9bdd081c185d5cd95960621b604482015290519081900360640190fd5b6002805460ff191690557f5db9ee0a495bf2e6ff9c91a7834c1ba4fdd244a5e8aa4e537bd38aeae4b073aa611d56611bff565b604080516001600160a01b039092168252519081900360200190a1565b60025460ff1615611dbe576040805162461bcd60e51b815260206004820152601060248201526f14185d5cd8589b194e881c185d5cd95960821b604482015290519081900360640190fd5b60035460c0820151825160408085015160a0860151608087015183516331aeaa7f60e11b8152600481018a9052602481019690965260ff909416604486015263ffffffff9091166064850152608484015260a4830191909152516001600160a01b039092169163635d54fe9160c48082019260009290919082900301818387803b15801561075057600080fd5b611e536126ea565b611e5b6126ea565b60055460408051630f24350160e41b815263ffffffff8616600482015290516001600160a01b039092169163f24350109160248082019260a092909190829003018186803b158015611eac57600080fd5b505afa158015611ec0573d6000803e3d6000fd5b505050506040513d60a0811015611ed657600080fd5b50805160208083015160408085015160608087015160809788015160a08a015263ffffffff908116978901979097529086169087015260ff9091169085015291169082015292915050565b83611f2a6126ea565b611f3384611e4b565b9050806040015160ff1660031415611f7c5760405162461bcd60e51b815260040180806020018281038252602e81526020018061288d602e913960400191505060405180910390fd5b806040015160ff166001141561202b57600954604080516354a19c2b60e01b815230600482015260248101859052606060448201526007606482015266707275662e696f60c81b608482015290516001600160a01b03909216916354a19c2b9160a4808201926020929091908290030181600087803b158015611ffe57600080fd5b505af1158015612012573d6000803e3d6000fd5b505050506040513d602081101561202857600080fd5b50505b806040015160ff16600214156120ed576009546001600160a01b03166354a19c2b612054611bff565b604080516001600160e01b031960e085901b1681526001600160a01b03909216600483015260248201869052606060448301526007606483015266707275662e696f60c81b60848301525160a48083019260209291908290030181600087803b1580156120c057600080fd5b505af11580156120d4573d6000803e3d6000fd5b505050506040513d60208110156120ea57600080fd5b50505b60035460408051630d4c344560e21b8152600481018990526024810188905263ffffffff80881660448301528616606482015290516001600160a01b0390921691633530d1149160848082019260009290919082900301818387803b158015610fd357600080fd5b60025460ff16156121a0576040805162461bcd60e51b815260206004820152601060248201526f14185d5cd8589b194e881c185d5cd95960821b604482015290519081900360640190fd5b6121a861271f565b6005546040805163859f08db60e01b815263ffffffff8616600482015261ffff8516602482015290516001600160a01b039092169163859f08db91604480820192608092909190829003018186803b15801561220357600080fd5b505afa158015612217573d6000803e3d6000fd5b505050506040513d608081101561222d57600080fd5b508051602080830151604080850151606095860151958701959095526001600160a01b039485169086015290840152168152610c8781612473565b60025460ff16156122b3576040805162461bcd60e51b815260206004820152601060248201526f14185d5cd8589b194e881c185d5cd95960821b604482015290519081900360640190fd5b6002805460ff191660011790557f62e78cea01bee320cd4e420270b5ea74000d11b0c9f74754ebdbfc544b05a258611d56611bff565b6000610e418383612558565b6000610e41836001600160a01b0384166125bc565b600082820183811015610e41576040805162461bcd60e51b815260206004820152601b60248201527f536166654d6174683a206164646974696f6e206f766572666c6f770000000000604482015290519081900360640190fd5b60006106f4826125d4565b60025460ff16156123ba576040805162461bcd60e51b815260206004820152601060248201526f14185d5cd8589b194e881c185d5cd95960821b604482015290519081900360640190fd5b6003546101008201516040805163a919304560e01b8152600481018690526024810192909252516001600160a01b039092169163a91930459160448082019260009290919082900301818387803b15801561075057600080fd5b600061242083836125bc565b612456575081546001818101845560008481526020808220909301849055845484825282860190935260409020919091556106f4565b5060006106f4565b6000610e41836001600160a01b0384166125d8565b60025460ff16156124be576040805162461bcd60e51b815260206004820152601060248201526f14185d5cd8589b194e881c185d5cd95960821b604482015290519081900360640190fd5b6007546001600160a01b031663e60f0b986124d7611bff565b83600001518460200151856040015186606001516040518663ffffffff1660e01b815260040180866001600160a01b03168152602001856001600160a01b03168152602001848152602001836001600160a01b0316815260200182815260200195505050505050600060405180830381600087803b1580156111ae57600080fd5b8154600090821061259a5760405162461bcd60e51b815260040180806020018281038252602281526020018061275a6022913960400191505060405180910390fd5b8260000182815481106125a957fe5b9060005260206000200154905092915050565b60009081526001919091016020526040902054151590565b5490565b60008181526001830160205260408120548015612694578354600019808301919081019060009087908390811061260b57fe5b906000526020600020015490508087600001848154811061262857fe5b60009182526020808320909101929092558281526001898101909252604090209084019055865487908061265857fe5b600190038181906000526020600020016000905590558660010160008781526020019081526020016000206000905560019450505050506106f4565b60009150506106f4565b6040805161012081018252600080825260208201819052918101829052606081018290526080810182905260a0810182905260c0810182905260e0810182905261010081019190915290565b6040805160c081018252606080825260006020830181905292820183905281018290526080810182905260a081019190915290565b604051806080016040528060006001600160a01b031681526020016000815260200160006001600160a01b0316815260200160008152509056fe456e756d657261626c655365743a20696e646578206f7574206f6620626f756e6473416363657373436f6e74726f6c3a2073656e646572206d75737420626520616e2061646d696e20746f206772616e745265656e7472616e637947756172643a207265656e7472616e742063616c6c0050414d3a4d4f443a206d757374206861766520434f4e54524143545f41444d494e5f524f4c45423a5353433a2073746f7261676520616464726573732063616e6e6f74206265207a65726f416363657373436f6e74726f6c3a2073656e646572206d75737420626520616e2061646d696e20746f207265766f6b652ce8d04a9c35987429af538825cd2438cc5c5bb5dc427955f84daaa3ea10501641543a4d4f442d49413a43616c6c696e672061646472657373206973206e6f7420706175736572433a43523a43616e6e6f742063726561746520617373657420696e206120726f6f7420617373657420636c617373416363657373436f6e74726f6c3a2063616e206f6e6c792072656e6f756e636520726f6c657320666f722073656c66a2646970667358221220b5109aad11051655be5c67aff61cbdc8a982f5180d2efe4c1e9a5ff994d03b4064736f6c634300060c0033",
  "immutableReferences": {},
  "source": "/*--------------------------------------------------------PRuF0.7.1\n__/\\\\\\\\\\\\\\\\\\\\\\\\\\ _____/\\\\\\\\\\\\\\\\\\ _______/\\\\../\\\\ ___/\\\\\\\\\\\\\\\\\\\\\\\\\\\\\\\n _\\/\\\\\\/////////\\\\\\ _/\\\\\\///////\\\\\\ ____\\//..\\//____\\/\\\\\\///////////__\n  _\\/\\\\\\.......\\/\\\\\\.\\/\\\\\\.....\\/\\\\\\ ________________\\/\\\\\\ ____________\n   _\\/\\\\\\\\\\\\\\\\\\\\\\\\\\/__\\/\\\\\\\\\\\\\\\\\\\\\\/_____/\\\\\\____/\\\\\\.\\/\\\\\\\\\\\\\\\\\\\\\\ ____\n    _\\/\\\\\\/////////____\\/\\\\\\//////\\\\\\ ___\\/\\\\\\___\\/\\\\\\.\\/\\\\\\///////______\n     _\\/\\\\\\ ____________\\/\\\\\\ ___\\//\\\\\\ __\\/\\\\\\___\\/\\\\\\.\\/\\\\\\ ____________\n      _\\/\\\\\\ ____________\\/\\\\\\ ____\\//\\\\\\ _\\/\\\\\\___\\/\\\\\\.\\/\\\\\\ ____________\n       _\\/\\\\\\ ____________\\/\\\\\\ _____\\//\\\\\\.\\//\\\\\\\\\\\\\\\\\\ _\\/\\\\\\ ____________\n        _\\/// _____________\\/// _______\\/// __\\///////// __\\/// _____________\n         *-------------------------------------------------------------------*/\n\n/*-----------------------------------------------------------------\n *  TO DO\n *\n *---------------------------------------------------------------*/\n\n// SPDX-License-Identifier: UNLICENSED\npragma solidity ^0.6.7;\n\nimport \"./PRUF_CORE_MAL.sol\";\n\ncontract MAL_APP is CORE_MAL {\n    \n    /*\n     * @dev Verify user credentials\n     * Originating Address:\n     */\n    // modifier isAuthorized(bytes32 _idxHash) override {\n    //     uint256 tokenId = uint256(_idxHash);\n    //     require(\n    //         (A_TKN.ownerOf(tokenId) == APP_Address),\n    //         \"NP:MOD-IA: Custodial contract does not hold token\"\n    //     );\n    //     _;\n    // }\n\n    //--------------------------------------------External Functions--------------------------\n\n        function $newRecord(\n        bytes32 _idxHash,\n        bytes32 _rgtHash,\n        uint32 _assetClass,\n        uint32 _countDownStart\n    ) external \n    // nonReentrant whenNotPaused \n    {\n        Record memory rec = getRecord(_idxHash);\n        // uint8 userType = getCallingUserType(_assetClass);\n        AC memory AC_info = getACinfo(_assetClass);\n        AC memory oldAC_info = getACinfo(rec.assetClass);\n        // ContractDataHash memory contractInfo = getContractInfo(\n        //     address(this),\n        //     _assetClass\n        // );\n\n        // require(\n        //     contractInfo.contractType > 0,\n        //     \"A:NR: This contract not authorized for specified AC\"\n        // );\n        // require(\n        //     (userType > 0) && (userType < 10),\n        //     \"A:NR: User not authorized to create records in specified asset class\"\n        // );\n        // require(userType < 5, \"A:NR: User not authorized to create records\");\n        // require(_rgtHash != 0, \"A:NR: rights holder cannot be zero\");\n        //^^^^^^^checks^^^^^^^^^\n\n        //bytes32 userHash = keccak256(abi.encodePacked(_msgSender()));\n        //^^^^^^^effects^^^^^^^^^\n\n        if (AC_info.assetClassRoot == oldAC_info.assetClassRoot) {\n            createRecord(_idxHash, _rgtHash, _assetClass, rec.countDownStart);\n        } else {\n            createRecord(_idxHash, _rgtHash, _assetClass, _countDownStart);\n        }\n        deductServiceCosts(_assetClass, 1);\n\n        //^^^^^^^interactions^^^^^^^^^\n    }\n\n    /*\n     * @dev Modify **Record**.assetStatus with confirmation required\n     */\n    function _modStatus(\n        bytes32 _idxHash,\n        // bytes32 _rgtHash,\n        uint8 _newAssetStatus\n    )\n        external\n        // nonReentrant\n        // whenNotPaused\n        // isAuthorized(_idxHash)\n        returns (uint8)\n    {\n        Record memory rec = getRecord(_idxHash);\n        // uint8 userType = getCallingUserType(rec.assetClass);\n        // ContractDataHash memory contractInfo = getContractInfo(\n        //     address(this),\n        //     rec.assetClass\n        // );\n\n        // require(\n        //     contractInfo.contractType > 0,\n        //     \"NP:MS: This contract not authorized for specified AC\"\n        // );\n        // require(\n        //     (userType > 0) && (userType < 10),\n        //     \"NP:MS: User not authorized to modify records in specified asset class\"\n        // );\n\n        // require(\n        //     isLostOrStolen(_newAssetStatus) == 0,\n        //     \"NP:MS: Cannot place asset in lost or stolen status using modStatus\"\n        // );\n        // require(\n        //     isEscrow(_newAssetStatus) == 0,\n        //     \"NP:MS: Cannot place asset in Escrow using modStatus\"\n        // );\n        // require(\n        //     needsImport(_newAssetStatus) == 0,\n        //     \"NP:MS: Cannot place asset in unregistered, exported, or discarded status using modStatus\"\n        // );\n        // require(\n        //     (_newAssetStatus < 100) &&\n        //         (_newAssetStatus != 7) &&\n        //         (_newAssetStatus != 57) &&\n        //         (_newAssetStatus != 58),\n        //     \"NP:MS: Specified Status is reserved.\"\n        // );\n        // require(\n        //     isEscrow(rec.assetStatus) == 0,\n        //     \"NP:MS: Cannot change status of asset in Escrow until escrow is expired\"\n        // );\n        // require(\n        //     needsImport(rec.assetStatus) == 0,\n        //     \"NP:MS: Record in unregistered, exported, or discarded status\"\n        // );\n        // require(\n        //     (rec.assetStatus > 49) || (userType < 5),\n        //     \"NP:MS: Only usertype < 5 can change status < 49\"\n        // );\n        // require(\n        //     rec.rightsHolder == _rgtHash,\n        //     \"NP:MS: Rightsholder does not match supplied data\"\n        // );\n        //^^^^^^^checks^^^^^^^^^\n\n        rec.assetStatus = _newAssetStatus;\n        //^^^^^^^effects^^^^^^^^^\n\n        writeRecord(_idxHash, rec);\n\n        return rec.assetStatus;\n        //^^^^^^^interactions^^^^^^^^^\n    }\n\n    /*\n     * @dev set **Record**.assetStatus to lost or stolen, with confirmation required.\n     */\n    function _setLostOrStolen(\n        bytes32 _idxHash,\n        // bytes32 _rgtHash,\n        uint8 _newAssetStatus\n    )\n        external\n        // nonReentrant\n        // whenNotPaused\n        // isAuthorized(_idxHash)\n        returns (uint8)\n    {\n        Record memory rec = getRecord(_idxHash);\n        // uint8 userType = getCallingUserType(rec.assetClass);\n        // ContractDataHash memory contractInfo = getContractInfo(\n        //     address(this),\n        //     rec.assetClass\n        // );\n\n        // require(\n        //     contractInfo.contractType > 0,\n        //     \"NP:SLS: This contract not authorized for specified AC\"\n        // );\n        // require(\n        //     (rec.rightsHolder != 0),\n        //     \"NP:SLS: Record unclaimed: import required. \"\n        // );\n        // require(\n        //     (userType > 0) && (userType < 10),\n        //     \"NP:SLS: User not authorized to modify records in specified asset class\"\n        // );\n        // require(\n        //     isLostOrStolen(_newAssetStatus) == 170,\n        //     \"NP:SLS: Must set to a lost or stolen status\"\n        // );\n        // require(\n        //     (rec.assetStatus > 49) ||\n        //         ((_newAssetStatus < 50) && (userType < 5)),\n        //     \"NP:SLS: Only usertype <5 can change a <49 status asset to a >49 status\"\n        // );\n        // require(\n        //     (rec.assetStatus != 5) && (rec.assetStatus != 55),\n        //     \"NP:SLS: Transferred asset cannot be set to lost or stolen after transfer.\"\n        // );\n        // require(\n        //     (rec.assetStatus != 50),\n        //     \"NP:SLS: Asset in locked escrow cannot be set to lost or stolen\"\n        // );\n        // require(\n        //     rec.rightsHolder == _rgtHash,\n        //     \"NP:SLS: Rightsholder does not match supplied data\"\n        // );\n        //^^^^^^^checks^^^^^^^^^\n\n        rec.assetStatus = _newAssetStatus;\n        //^^^^^^^effects^^^^^^^^^\n\n        STOR.setStolenOrLost(_idxHash, rec.assetStatus);\n\n        return rec.assetStatus;\n        //^^^^^^^interactions^^^^^^^^^\n    }\n\n    /*\n     * @dev Decrement **Record**.countdown with confirmation required\n     */\n    function _decCounter(\n        bytes32 _idxHash,\n        // bytes32 _rgtHash,\n        uint32 _decAmount\n    )\n        external\n        // nonReentrant\n        // whenNotPaused\n        // isAuthorized(_idxHash)\n        returns (uint32)\n    {\n        Record memory rec = getRecord(_idxHash);\n        // uint8 userType = getCallingUserType(rec.assetClass);\n        // ContractDataHash memory contractInfo = getContractInfo(\n        //     address(this),\n        //     rec.assetClass\n        // );\n\n        // require(\n        //     contractInfo.contractType > 0,\n        //     \"NP:DC: This contract not authorized for specified AC\"\n        // );\n\n        // require(\n        //     (rec.rightsHolder != 0),\n        //     \"NP:DC: Record unclaimed: import required. \"\n        // );\n        // require(\n        //     (userType > 0) && (userType < 10),\n        //     \"NP:DC: User not authorized to modify records in specified asset class\"\n        // );\n        // require(\n        //     isEscrow(rec.assetStatus) == 0,\n        //     \"NP:DC: Cannot modify asset in Escrow\"\n        // );\n        // require(_decAmount > 0, \"NP:DC: cannot decrement by negative number\");\n\n        // require(\n        //     needsImport(rec.assetStatus) == 0,\n        //     \"NP:DC Record in unregistered, exported, or discarded status\"\n        // );\n        // require(\n        //     rec.rightsHolder == _rgtHash,\n        //     \"NP:DC: Rightsholder does not match supplied data\"\n        // );\n        //^^^^^^^checks^^^^^^^^^\n\n        // if (rec.countDown > _decAmount) {\n        //     rec.countDown = rec.countDown - (_decAmount);\n        // } else {\n        //     rec.countDown = 0;\n        // }\n        //^^^^^^^effects^^^^^^^^^\n        if (rec.countDown > _decAmount){\n            rec.countDown = rec.countDown - _decAmount;\n        } else {\n            rec.countDown = 0;\n        }\n        writeRecord(_idxHash, rec);\n        return (rec.countDown);\n        //^^^^^^^interactions^^^^^^^^^\n    }\n                                                                                               //NEEDS TO BE MODIFIED IN STORAGE\n    // /*\n    //  * @dev Decrement **Record**.countdown with confirmation required\n    //  */\n    // function _decCounterFMR(\n    //     bytes32 _idxHash,\n    //     bytes32 _rgtHash,\n    //     uint8 _decAmount\n    // )\n    //     external\n    //     // nonReentrant\n    //     // whenNotPaused\n    //     // isAuthorized(_idxHash)\n    //     returns (uint8)\n    // {\n    //     Record memory rec = getRecord(_idxHash);\n    //     // uint8 userType = getCallingUserType(rec.assetClass);\n    //     // ContractDataHash memory contractInfo = getContractInfo(\n    //     //     address(this),\n    //     //     rec.assetClass\n    //     // );\n\n    //     // require(\n    //     //     contractInfo.contractType > 0,\n    //     //     \"NP:DC: This contract not authorized for specified AC\"\n    //     // );\n\n    //     // require(\n    //     //     (rec.rightsHolder != 0),\n    //     //     \"NP:DC: Record unclaimed: import required. \"\n    //     // );\n    //     // require(\n    //     //     (userType > 0) && (userType < 10),\n    //     //     \"NP:DC: User not authorized to modify records in specified asset class\"\n    //     // );\n    //     // require(\n    //     //     isEscrow(rec.assetStatus) == 0,\n    //     //     \"NP:DC: Cannot modify asset in Escrow\"\n    //     // );\n    //     // require(_decAmount > 0, \"NP:DC: cannot decrement by negative number\");\n\n    //     // require(\n    //     //     needsImport(rec.assetStatus) == 0,\n    //     //     \"NP:DC Record in unregistered, exported, or discarded status\"\n    //     // );\n    //     require(\n    //         rec.rightsHolder == _rgtHash,\n    //         \"NP:DC: Rightsholder does not match supplied data\"\n    //     );\n    //     //^^^^^^^checks^^^^^^^^^\n\n    //     // if (rec.forceModCount > _decAmount) {\n    //     //     rec.forceModCount = rec.forceModCount - (_decAmount);\n    //     // } else {\n    //     //     rec.forceModCount = 0;\n    //     // }\n    //     //^^^^^^^effects^^^^^^^^^\n    //     rec.forceModCount = rec.forceModCount - (_decAmount);\n    //     writeRecord(_idxHash, rec);\n    //     return (rec.forceModCount);\n    //     //^^^^^^^interactions^^^^^^^^^\n    // }\n                                                                                               //NEEDS TO BE MODIFIED IN STORAGE\n    // function _decCounterTXFR(\n    //     bytes32 _idxHash,\n    //     bytes32 _rgtHash,\n    //     uint16 _decAmount\n    // )\n    //     external\n    //     // nonReentrant\n    //     // whenNotPaused\n    //     // isAuthorized(_idxHash)\n    //     returns (uint16)\n    // {\n    //     Record memory rec = getRecord(_idxHash);\n    //     // uint8 userType = getCallingUserType(rec.assetClass);\n    //     // ContractDataHash memory contractInfo = getContractInfo(\n    //     //     address(this),\n    //     //     rec.assetClass\n    //     // );\n\n    //     // require(\n    //     //     contractInfo.contractType > 0,\n    //     //     \"NP:DC: This contract not authorized for specified AC\"\n    //     // );\n\n    //     // require(\n    //     //     (rec.rightsHolder != 0),\n    //     //     \"NP:DC: Record unclaimed: import required. \"\n    //     // );\n    //     // require(\n    //     //     (userType > 0) && (userType < 10),\n    //     //     \"NP:DC: User not authorized to modify records in specified asset class\"\n    //     // );\n    //     // require(\n    //     //     isEscrow(rec.assetStatus) == 0,\n    //     //     \"NP:DC: Cannot modify asset in Escrow\"\n    //     // );\n    //     // require(_decAmount > 0, \"NP:DC: cannot decrement by negative number\");\n\n    //     // require(\n    //     //     needsImport(rec.assetStatus) == 0,\n    //     //     \"NP:DC Record in unregistered, exported, or discarded status\"\n    //     // );\n    //     require(\n    //         rec.rightsHolder == _rgtHash,\n    //         \"NP:DC: Rightsholder does not match supplied data\"\n    //     );\n    //     //^^^^^^^checks^^^^^^^^^\n\n    //     // if (rec.numberOfTransfers > _decAmount) {\n    //     //     rec.numberOfTransfers = rec.numberOfTransfers - (_decAmount);\n    //     // } else {\n    //     //     rec.numberOfTransfers = 0;\n    //     // }\n    //     //^^^^^^^effects^^^^^^^^^\n    //     rec.numberOfTransfers = rec.numberOfTransfers.sub(_decAmount);\n    //     writeRecord(_idxHash, rec);\n    //     return (rec.numberOfTransfers);\n    //     //^^^^^^^interactions^^^^^^^^^\n    // }\n\n    /*\n     * @dev Modify **Record**.Ipfs1 with confirmation\n     */\n    function _modIpfs1(\n        bytes32 _idxHash,\n        // bytes32 _rgtHash,\n        bytes32 _IpfsHash\n    )\n        external\n        // nonReentrant\n        // whenNotPaused\n        // isAuthorized(_idxHash)\n        returns (bytes32)\n    {\n        Record memory rec = getRecord(_idxHash);\n        // uint8 userType = getCallingUserType(rec.assetClass);\n        // ContractDataHash memory contractInfo = getContractInfo(\n        //     address(this),\n        //     rec.assetClass\n        // );\n\n        // require(\n        //     contractInfo.contractType > 0,\n        //     \"NP:MI1: This contract not authorized for specified AC\"\n        // );\n        // require(\n        //     (rec.rightsHolder != 0),\n        //     \"NP:MI1: Record unclaimed: import required.\"\n        // );\n        // require(\n        //     (userType > 0) && (userType < 10),\n        //     \"NP:MI1: User not authorized to modify records in specified asset class\"\n        // );\n        // require(rec.Ipfs1 != _IpfsHash, \"NP:MI1: New data same as old\");\n\n        // require(\n        //     isEscrow(rec.assetStatus) == 0,\n        //    \"NP:MI1: Cannot modify asset in Escrow\"\n        // );\n        // require(\n        //     needsImport(rec.assetStatus) == 0,\n        //     \"NP:MI1: Record in unregistered, exported, or discarded status\"\n        // );\n        // require(\n        //     rec.rightsHolder == _rgtHash,\n        //     \"NP:MI1: Rightsholder does not match supplied data\"\n        // );\n        //^^^^^^^checks^^^^^^^^^\n\n        rec.Ipfs1 = _IpfsHash;\n        //^^^^^^^effects^^^^^^^^^\n\n        writeRecordIpfs1(_idxHash, rec);\n\n        return rec.Ipfs1;\n        //^^^^^^^interactions^^^^^^^^^\n    }\n\n    /*\n     * @dev Modify **Record**.Ipfs2 with confirmation\n     */\n    function $addIpfs2Note(\n        bytes32 _idxHash,\n        // bytes32 _rgtHash,\n        bytes32 _IpfsHash\n    )\n        external\n        \n        // nonReentrant\n        // whenNotPaused\n        // isAuthorized(_idxHash)\n        returns (bytes32)\n    {\n        Record memory rec = getRecord(_idxHash);\n        // uint8 userType = getCallingUserType(rec.assetClass);\n        // ContractDataHash memory contractInfo = getContractInfo(\n        //     address(this),\n        //     rec.assetClass\n        // );\n\n        // require(\n        //     contractInfo.contractType > 0,\n        //     \"A:I2: This contract not authorized for specified AC\"\n        // );\n        // require(\n        //     (rec.rightsHolder != 0),\n        //     \"A:I2: Record unclaimed: import required. \"\n        // );\n        // require(\n        //     (userType > 0) && (userType < 10),\n        //     \"A:I2: User not authorized to modify records in specified asset class\"\n        // );\n        // require(\n        //     isLostOrStolen(rec.assetStatus) == 0,\n        //     \"A:FMR: Asset marked lost or stolen\"\n        // );\n        // require(\n        //     isEscrow(rec.assetStatus) == 0,\n        //     \"A:FMR: Asset in escrow\"\n        // );\n        // require(\n        //     needsImport(rec.assetStatus) == 0,\n        //     \"A:FMR: Asset needs re-imported\"\n        // );\n        // require(\n        //     rec.Ipfs2 == 0,\n        //     \"A:I2: Ipfs2 has data already. Overwrite not permitted\"\n        // );\n        // require(\n        //     rec.rightsHolder == _rgtHash,\n        //     \"A:I2: Rightsholder does not match supplied data\"\n        // );\n        //^^^^^^^checks^^^^^^^^^\n\n        rec.Ipfs2 = _IpfsHash;\n        //^^^^^^^effects^^^^^^^^^\n\n        writeRecordIpfs2(_idxHash, rec);\n\n        deductServiceCosts(rec.assetClass, 3);\n\n        return rec.Ipfs2;\n        //^^^^^^^interactions^^^^^^^^^\n    }\n\n    /*\n     *     @dev Export FROM Custodial:\n     */\n    function changeAC(bytes32 _idxHash, uint32 newAssetClass)\n        external\n        // nonReentrant\n        // whenNotPaused\n        // isAuthorized(_idxHash)\n        returns (uint8)\n    {\n        Record memory rec = getRecord(_idxHash);\n        // uint8 userType = getCallingUserType(rec.assetClass);\n        // ContractDataHash memory contractInfo = getContractInfo(\n        //     address(this),\n        //     rec.assetClass\n        // );\n        // AC memory AC_info = getACinfo(rec.assetClass);\n\n        // require(\n        //     contractInfo.contractType > 0,\n        //     \"A:MS: This contract not authorized for specified AC\"\n        // );\n        // require(\n        //     (userType > 0) && (userType < 10),\n        //     \"A:EA: User not authorized to modify records in specified asset class\"\n        // );\n        // require( // require transferrable (51) status\n        //     rec.assetStatus == 51,\n        //     \"A:EA: Asset status must be 51 to export\"\n        // );\n        // //^^^^^^^checks^^^^^^^^^\n\n        // if (rec.numberOfTransfers < 65335) {\n        //     rec.numberOfTransfers++;\n        // }\n        // rec.assetStatus = 70; // Set status to 70 (exported)\n        //^^^^^^^effects^^^^^^^^^\n\n        // APP.transferAssetToken(_addr, _idxHash);\n        // writeRecord(_idxHash, rec);\n        STOR.changeAC(_idxHash, newAssetClass);\n\n        return rec.assetStatus;\n        //^^^^^^^interactions^^^^^^^^^\n    }\n\n    function setEscrow(\n        bytes32 _idxHash,\n        bytes32 _escrowOwnerHash,\n        uint256 _escrowTime,\n        uint8 _escrowStatus\n    ) external \n    // nonReentrant whenNotPaused isAuthorized(_idxHash) \n    {\n        // Record memory rec = getRecord(_idxHash);\n        // uint8 userType = getCallingUserType(rec.assetClass);\n        uint256 escrowTime = block.timestamp.add(_escrowTime);\n        uint8 newEscrowStatus;\n        // ContractDataHash memory contractInfo = getContractInfo(\n        //     address(this),\n        //     rec.assetClass\n        // );\n\n        // require(                                                                   //Storage IA mod takes care of it?\n        //     contractInfo.contractType > 0,\n        //     \"E:SE: This contract not authorized for specified AC\"\n        // );\n        // require((rec.assetClass != 0), \"E:SE: Record does not exist\");\n        // require(\n        //     (userType > 0) && (userType < 10),\n        //     \"E:SE: User not authorized to modify records in specified asset class\"\n        // );\n        // require(\n        //     (escrowTime >= block.timestamp),\n        //     \"E:SE: Escrow must be set to a time in the future\"\n        // );\n        // require(\n        //     (rec.assetStatus != 3) &&\n        //         (rec.assetStatus != 4) &&\n        //         (rec.assetStatus != 53) &&\n        //         (rec.assetStatus != 54) &&\n        //         (rec.assetStatus != 5) &&\n        //         (rec.assetStatus != 55),\n        //     \"E:SE: Transferred, lost, or stolen status cannot be set to escrow.\"\n        // );\n        // require(\n        //     (rec.assetStatus != 6) &&\n        //         (rec.assetStatus != 50) &&\n        //         (rec.assetStatus != 56),\n        //     \"E:SE: Asset already in escrow status.\"\n        // );\n        // require(\n        //     (userType < 5) || (( userType > 4) && ( userType < 10) && (_escrowStatus > 49)),\n        //     \"E:SE: Non supervisored agents must set escrow status within scope.\"\n        // );\n        // require(\n        //     (_escrowStatus == 6) ||\n        //         (_escrowStatus == 50) ||\n        //         (_escrowStatus == 56),\n        //     \"E:SE: Must specify an valid escrow status\"\n        // );\n        //^^^^^^^checks^^^^^^^^^\n\n        newEscrowStatus = _escrowStatus;\n        //^^^^^^^effects^^^^^^^^^\n\n        ECR_MGR.setEscrow(\n            _idxHash,\n            newEscrowStatus,\n            _escrowOwnerHash,\n            escrowTime\n        );\n        //^^^^^^^interactions^^^^^^^^^\n    }\n\n\n        function setEscrowStor(\n        bytes32 _idxHash,\n        uint8 _escrowStatus\n    ) external \n    // nonReentrant whenNotPaused isAuthorized(_idxHash) \n    {\n        // Record memory rec = getRecord(_idxHash);\n        // uint8 userType = getCallingUserType(rec.assetClass);\n        // uint256 escrowTime = block.timestamp.add(_escrowTime);\n        // uint8 newEscrowStatus;\n        // ContractDataHash memory contractInfo = getContractInfo(\n        //     address(this),\n        //     rec.assetClass\n        // );\n\n        // require(                                                                   //Storage IA mod takes care of it?\n        //     contractInfo.contractType > 0,\n        //     \"E:SE: This contract not authorized for specified AC\"\n        // );\n        // require((rec.assetClass != 0), \"E:SE: Record does not exist\");\n        // require(\n        //     (userType > 0) && (userType < 10),\n        //     \"E:SE: User not authorized to modify records in specified asset class\"\n        // );\n        // require(\n        //     (escrowTime >= block.timestamp),\n        //     \"E:SE: Escrow must be set to a time in the future\"\n        // );\n        // require(\n        //     (rec.assetStatus != 3) &&\n        //         (rec.assetStatus != 4) &&\n        //         (rec.assetStatus != 53) &&\n        //         (rec.assetStatus != 54) &&\n        //         (rec.assetStatus != 5) &&\n        //         (rec.assetStatus != 55),\n        //     \"E:SE: Transferred, lost, or stolen status cannot be set to escrow.\"\n        // );\n        // require(\n        //     (rec.assetStatus != 6) &&\n        //         (rec.assetStatus != 50) &&\n        //         (rec.assetStatus != 56),\n        //     \"E:SE: Asset already in escrow status.\"\n        // );\n        // require(\n        //     (userType < 5) || (( userType > 4) && ( userType < 10) && (_escrowStatus > 49)),\n        //     \"E:SE: Non supervisored agents must set escrow status within scope.\"\n        // );\n        // require(\n        //     (_escrowStatus == 6) ||\n        //         (_escrowStatus == 50) ||\n        //         (_escrowStatus == 56),\n        //     \"E:SE: Must specify an valid escrow status\"\n        // );\n        //^^^^^^^checks^^^^^^^^^\n\n        // newEscrowStatus = _escrowStatus;\n        //^^^^^^^effects^^^^^^^^^\n\n        STOR.setEscrow(\n            _idxHash,\n            _escrowStatus\n        );\n        //^^^^^^^interactions^^^^^^^^^\n    }\n\n    /*\n     * @dev takes asset out of excrow status if time period has resolved || is escrow issuer\n     */\n    function endEscrow(bytes32 _idxHash)\n        external\n        // nonReentrant\n        // isAuthorized(_idxHash)\n    {\n        // Record memory rec = getRecord(_idxHash);\n        // escrowData memory escrow = getEscrowData(_idxHash);\n        // ContractDataHash memory contractInfo = getContractInfo(\n        //     address(this),\n        //     rec.assetClass\n        // );\n        // uint8 userType = getCallingUserType(rec.assetClass);\n        // bytes32 ownerHash = ECR_MGR.retrieveEscrowOwner(_idxHash);\n\n        // require(                                                                 //Storage IA mod takes care of it?\n        //     contractInfo.contractType > 0,\n        //     \"E:EE: This contract not authorized for specified AC\"\n        // );\n\n        // require((rec.assetClass != 0), \"E:EE: Record does not exist\");\n        // require(\n        //     (userType > 0) && (userType < 10),\n        //     \"E:EE: User not authorized to modify records in specified asset class\"\n        // );\n        // require(\n        //     (rec.assetStatus == 6) ||\n        //         (rec.assetStatus == 50) ||\n        //         (rec.assetStatus == 56),\n        //     \"E:EE- record must be in escrow status\"\n        // );\n        // require(\n        //     ((rec.assetStatus > 49) || (userType < 5)),\n        //     \"E:EE: Usertype less than 5 required to end this escrow\"\n        // );\n        // require(\n        //     (escrow.timelock < block.timestamp) ||\n        //         (keccak256(abi.encodePacked(_msgSender())) == ownerHash),\n        //     \"E:EE: Escrow period not ended and caller is not escrow owner\"\n        // );\n        //^^^^^^^checks^^^^^^^^^\n\n        ECR_MGR.endEscrow(_idxHash);\n        //^^^^^^^interactions^^^^^^^^^\n    }\n\n\n    function endEscrowStor(bytes32 _idxHash)\n        external\n        // nonReentrant\n        // isAuthorized(_idxHash)\n    {\n        // Record memory rec = getRecord(_idxHash);\n        // escrowData memory escrow = getEscrowData(_idxHash);\n        // ContractDataHash memory contractInfo = getContractInfo(\n        //     address(this),\n        //     rec.assetClass\n        // );\n        // uint8 userType = getCallingUserType(rec.assetClass);\n        // bytes32 ownerHash = ECR_MGR.retrieveEscrowOwner(_idxHash);\n\n        // require(                                                                 //Storage IA mod takes care of it?\n        //     contractInfo.contractType > 0,\n        //     \"E:EE: This contract not authorized for specified AC\"\n        // );\n\n        // require((rec.assetClass != 0), \"E:EE: Record does not exist\");\n        // require(\n        //     (userType > 0) && (userType < 10),\n        //     \"E:EE: User not authorized to modify records in specified asset class\"\n        // );\n        // require(\n        //     (rec.assetStatus == 6) ||\n        //         (rec.assetStatus == 50) ||\n        //         (rec.assetStatus == 56),\n        //     \"E:EE- record must be in escrow status\"\n        // );\n        // require(\n        //     ((rec.assetStatus > 49) || (userType < 5)),\n        //     \"E:EE: Usertype less than 5 required to end this escrow\"\n        // );\n        // require(\n        //     (escrow.timelock < block.timestamp) ||\n        //         (keccak256(abi.encodePacked(_msgSender())) == ownerHash),\n        //     \"E:EE: Escrow period not ended and caller is not escrow owner\"\n        // );\n        //^^^^^^^checks^^^^^^^^^\n\n        STOR.endEscrow(_idxHash);\n        //^^^^^^^interactions^^^^^^^^^\n    }\n\n    function retrieveRecordStor(bytes32 _idxHash)\n        external view\n    {\n        STOR.retrieveRecord(_idxHash);\n        //^^^^^^^interactions^^^^^^^^^\n    }\n\n\n        /**\n     * @dev Safely burns a token and sets the corresponding RGT to zero in storage.\n     */\n    function discard(uint256 tokenId) external nonReentrant {\n        bytes32 _idxHash = bytes32(tokenId);\n        //Record memory rec = getRecord(_idxHash);\n        \n        // require(                 \n        //     _isApprovedOrOwner(_msgSender(), tokenId),\n        //     \"AT:D:transfer caller is not owner nor approved\"\n        // );\n        // require(//REDUNDANT---will throw in RCLR.discard()\n        //     (rec.assetStatus == 59),\n        //     \"AT:D:Asset must be in status 59 (discardable) to be discarded\"\n        // );\n\n        //^^^^^^^checks^^^^^^^^^\n        RCLR.discard(_idxHash, _msgSender());\n        //^^^^^^^interactions^^^^^^^^^\n    }\n    \n}\n",
  "sourcePath": "/Users/cts/dev/PRUF/PRUF_TRUFFLE/contracts/PRUF_MAL_APP.sol",
  "compiler": {
    "name": "solc",
    "version": "0.6.12+commit.27d51765.Emscripten.clang"
  },
  "schemaVersion": "3.2.3",
  "updatedAt": "2020-12-21T18:14:17.239Z",
  "devdoc": {
    "kind": "dev",
    "methods": {
      "discard(uint256)": {
        "details": "Safely burns a token and sets the corresponding RGT to zero in storage."
      },
      "getRoleAdmin(bytes32)": {
        "details": "Returns the admin role that controls `role`. See {grantRole} and {revokeRole}. To change a role's admin, use {_setRoleAdmin}."
      },
      "getRoleMember(bytes32,uint256)": {
        "details": "Returns one of the accounts that have `role`. `index` must be a value between 0 and {getRoleMemberCount}, non-inclusive. Role bearers are not sorted in any particular way, and their ordering may change at any point. WARNING: When using {getRoleMember} and {getRoleMemberCount}, make sure you perform all queries on the same block. See the following https://forum.openzeppelin.com/t/iterating-over-elements-on-enumerableset-in-openzeppelin-contracts/2296[forum post] for more information."
      },
      "getRoleMemberCount(bytes32)": {
        "details": "Returns the number of accounts that have `role`. Can be used together with {getRoleMember} to enumerate all bearers of a role."
      },
      "grantRole(bytes32,address)": {
        "details": "Grants `role` to `account`. If `account` had not been already granted `role`, emits a {RoleGranted} event. Requirements: - the caller must have ``role``'s admin role."
      },
      "hasRole(bytes32,address)": {
        "details": "Returns `true` if `account` has been granted `role`."
      },
      "pause()": {
        "details": "Triggers stopped state. (pausable)"
      },
      "paused()": {
        "details": "Returns true if the contract is paused, and false otherwise."
      },
      "renounceRole(bytes32,address)": {
        "details": "Revokes `role` from the calling account. Roles are often managed via {grantRole} and {revokeRole}: this function's purpose is to provide a mechanism for accounts to lose their privileges if they are compromised (such as when a trusted device is misplaced). If the calling account had been granted `role`, emits a {RoleRevoked} event. Requirements: - the caller must be `account`."
      },
      "revokeRole(bytes32,address)": {
        "details": "Revokes `role` from `account`. If `account` had been granted `role`, emits a {RoleRevoked} event. Requirements: - the caller must have ``role``'s admin role."
      },
      "unpause()": {
        "details": "Returns to normal state. (pausable)"
      }
    },
    "version": 1
  },
  "userdoc": {
    "kind": "user",
    "methods": {},
    "version": 1
  }
}