{
  "contractName": "Market",
  "abi": [
    {
      "anonymous": false,
      "inputs": [
        {
          "indexed": false,
          "internalType": "address",
          "name": "account",
          "type": "address"
        }
      ],
      "name": "Paused",
      "type": "event"
    },
    {
      "anonymous": false,
      "inputs": [
        {
          "indexed": false,
          "internalType": "string",
          "name": "_msg",
          "type": "string"
        }
      ],
      "name": "REPORT",
      "type": "event"
    },
    {
      "anonymous": false,
      "inputs": [
        {
          "indexed": true,
          "internalType": "bytes32",
          "name": "role",
          "type": "bytes32"
        },
        {
          "indexed": true,
          "internalType": "bytes32",
          "name": "previousAdminRole",
          "type": "bytes32"
        },
        {
          "indexed": true,
          "internalType": "bytes32",
          "name": "newAdminRole",
          "type": "bytes32"
        }
      ],
      "name": "RoleAdminChanged",
      "type": "event"
    },
    {
      "anonymous": false,
      "inputs": [
        {
          "indexed": true,
          "internalType": "bytes32",
          "name": "role",
          "type": "bytes32"
        },
        {
          "indexed": true,
          "internalType": "address",
          "name": "account",
          "type": "address"
        },
        {
          "indexed": true,
          "internalType": "address",
          "name": "sender",
          "type": "address"
        }
      ],
      "name": "RoleGranted",
      "type": "event"
    },
    {
      "anonymous": false,
      "inputs": [
        {
          "indexed": true,
          "internalType": "bytes32",
          "name": "role",
          "type": "bytes32"
        },
        {
          "indexed": true,
          "internalType": "address",
          "name": "account",
          "type": "address"
        },
        {
          "indexed": true,
          "internalType": "address",
          "name": "sender",
          "type": "address"
        }
      ],
      "name": "RoleRevoked",
      "type": "event"
    },
    {
      "anonymous": false,
      "inputs": [
        {
          "indexed": false,
          "internalType": "address",
          "name": "account",
          "type": "address"
        }
      ],
      "name": "Unpaused",
      "type": "event"
    },
    {
      "inputs": [],
      "name": "ASSET_TXFR_ROLE",
      "outputs": [
        {
          "internalType": "bytes32",
          "name": "",
          "type": "bytes32"
        }
      ],
      "stateMutability": "view",
      "type": "function"
    },
    {
      "inputs": [],
      "name": "CONTRACT_ADMIN_ROLE",
      "outputs": [
        {
          "internalType": "bytes32",
          "name": "",
          "type": "bytes32"
        }
      ],
      "stateMutability": "view",
      "type": "function"
    },
    {
      "inputs": [],
      "name": "DAO_ROLE",
      "outputs": [
        {
          "internalType": "bytes32",
          "name": "",
          "type": "bytes32"
        }
      ],
      "stateMutability": "view",
      "type": "function"
    },
    {
      "inputs": [],
      "name": "DEFAULT_ADMIN_ROLE",
      "outputs": [
        {
          "internalType": "bytes32",
          "name": "",
          "type": "bytes32"
        }
      ],
      "stateMutability": "view",
      "type": "function"
    },
    {
      "inputs": [
        {
          "internalType": "address",
          "name": "_tokenContract",
          "type": "address"
        },
        {
          "internalType": "address",
          "name": "_to",
          "type": "address"
        },
        {
          "internalType": "uint256",
          "name": "_amount",
          "type": "uint256"
        }
      ],
      "name": "ERC20Transfer",
      "outputs": [],
      "stateMutability": "nonpayable",
      "type": "function"
    },
    {
      "inputs": [
        {
          "internalType": "address",
          "name": "_tokenContract",
          "type": "address"
        },
        {
          "internalType": "address",
          "name": "_to",
          "type": "address"
        },
        {
          "internalType": "uint256",
          "name": "_tokenID",
          "type": "uint256"
        }
      ],
      "name": "ERC721Transfer",
      "outputs": [],
      "stateMutability": "nonpayable",
      "type": "function"
    },
    {
      "inputs": [],
      "name": "PAUSER_ROLE",
      "outputs": [
        {
          "internalType": "bytes32",
          "name": "",
          "type": "bytes32"
        }
      ],
      "stateMutability": "view",
      "type": "function"
    },
    {
      "inputs": [],
      "name": "charityAddress",
      "outputs": [
        {
          "internalType": "address",
          "name": "",
          "type": "address"
        }
      ],
      "stateMutability": "view",
      "type": "function"
    },
    {
      "inputs": [
        {
          "internalType": "bytes32",
          "name": "role",
          "type": "bytes32"
        }
      ],
      "name": "getRoleAdmin",
      "outputs": [
        {
          "internalType": "bytes32",
          "name": "",
          "type": "bytes32"
        }
      ],
      "stateMutability": "view",
      "type": "function"
    },
    {
      "inputs": [
        {
          "internalType": "bytes32",
          "name": "role",
          "type": "bytes32"
        },
        {
          "internalType": "address",
          "name": "account",
          "type": "address"
        }
      ],
      "name": "grantRole",
      "outputs": [],
      "stateMutability": "nonpayable",
      "type": "function"
    },
    {
      "inputs": [
        {
          "internalType": "bytes32",
          "name": "role",
          "type": "bytes32"
        },
        {
          "internalType": "address",
          "name": "account",
          "type": "address"
        }
      ],
      "name": "hasRole",
      "outputs": [
        {
          "internalType": "bool",
          "name": "",
          "type": "bool"
        }
      ],
      "stateMutability": "view",
      "type": "function"
    },
    {
      "inputs": [
        {
          "internalType": "address",
          "name": "",
          "type": "address"
        },
        {
          "internalType": "address",
          "name": "",
          "type": "address"
        },
        {
          "internalType": "uint256",
          "name": "",
          "type": "uint256"
        },
        {
          "internalType": "bytes",
          "name": "",
          "type": "bytes"
        }
      ],
      "name": "onERC721Received",
      "outputs": [
        {
          "internalType": "bytes4",
          "name": "",
          "type": "bytes4"
        }
      ],
      "stateMutability": "nonpayable",
      "type": "function"
    },
    {
      "inputs": [],
      "name": "pause",
      "outputs": [],
      "stateMutability": "nonpayable",
      "type": "function"
    },
    {
      "inputs": [],
      "name": "paused",
      "outputs": [
        {
          "internalType": "bool",
          "name": "",
          "type": "bool"
        }
      ],
      "stateMutability": "view",
      "type": "function"
    },
    {
      "inputs": [
        {
          "internalType": "bytes32",
          "name": "role",
          "type": "bytes32"
        },
        {
          "internalType": "address",
          "name": "account",
          "type": "address"
        }
      ],
      "name": "renounceRole",
      "outputs": [],
      "stateMutability": "nonpayable",
      "type": "function"
    },
    {
      "inputs": [],
      "name": "resolveContractAddresses",
      "outputs": [],
      "stateMutability": "nonpayable",
      "type": "function"
    },
    {
      "inputs": [
        {
          "internalType": "bytes32",
          "name": "role",
          "type": "bytes32"
        },
        {
          "internalType": "address",
          "name": "account",
          "type": "address"
        }
      ],
      "name": "revokeRole",
      "outputs": [],
      "stateMutability": "nonpayable",
      "type": "function"
    },
    {
      "inputs": [
        {
          "internalType": "address",
          "name": "_storageAddress",
          "type": "address"
        }
      ],
      "name": "setStorageContract",
      "outputs": [],
      "stateMutability": "nonpayable",
      "type": "function"
    },
    {
      "inputs": [
        {
          "internalType": "bytes4",
          "name": "interfaceId",
          "type": "bytes4"
        }
      ],
      "name": "supportsInterface",
      "outputs": [
        {
          "internalType": "bool",
          "name": "",
          "type": "bool"
        }
      ],
      "stateMutability": "view",
      "type": "function"
    },
    {
      "inputs": [],
      "name": "unpause",
      "outputs": [],
      "stateMutability": "nonpayable",
      "type": "function"
    },
    {
      "inputs": [
        {
          "internalType": "address",
          "name": "_address",
          "type": "address"
        }
      ],
      "name": "setMarketTokenAddress",
      "outputs": [],
      "stateMutability": "nonpayable",
      "type": "function"
    },
    {
      "inputs": [
        {
          "internalType": "address",
          "name": "_charityAddress",
          "type": "address"
        }
      ],
      "name": "setCharityAddress",
      "outputs": [],
      "stateMutability": "nonpayable",
      "type": "function"
    },
    {
      "inputs": [
        {
          "internalType": "address",
          "name": "_currency",
          "type": "address"
        },
        {
          "internalType": "uint32",
          "name": "_node",
          "type": "uint32"
        },
        {
          "internalType": "uint256",
          "name": "_tokenId",
          "type": "uint256"
        },
        {
          "internalType": "address",
          "name": "_ERC721TokenContract",
          "type": "address"
        },
        {
          "internalType": "uint32",
          "name": "_nodeToApprove",
          "type": "uint32"
        },
        {
          "internalType": "uint256",
          "name": "_approved",
          "type": "uint256"
        }
      ],
      "name": "approveForConsignment",
      "outputs": [],
      "stateMutability": "nonpayable",
      "type": "function"
    },
    {
      "inputs": [
        {
          "internalType": "uint256",
          "name": "_tokenId",
          "type": "uint256"
        },
        {
          "internalType": "address",
          "name": "_currency",
          "type": "address"
        },
        {
          "internalType": "uint256",
          "name": "_price",
          "type": "uint256"
        },
        {
          "internalType": "uint32",
          "name": "_consigningNode",
          "type": "uint32"
        }
      ],
      "name": "consignPrufAsset",
      "outputs": [],
      "stateMutability": "nonpayable",
      "type": "function"
    },
    {
      "inputs": [
        {
          "internalType": "uint256",
          "name": "_tokenId",
          "type": "uint256"
        },
        {
          "internalType": "address",
          "name": "_ERC721TokenContract",
          "type": "address"
        },
        {
          "internalType": "address",
          "name": "_currency",
          "type": "address"
        },
        {
          "internalType": "uint256",
          "name": "_price",
          "type": "uint256"
        },
        {
          "internalType": "uint32",
          "name": "_consigningNode",
          "type": "uint32"
        },
        {
          "internalType": "string",
          "name": "uri",
          "type": "string"
        }
      ],
      "name": "consignToken",
      "outputs": [],
      "stateMutability": "nonpayable",
      "type": "function"
    },
    {
      "inputs": [
        {
          "internalType": "uint256",
          "name": "_tokenId",
          "type": "uint256"
        },
        {
          "internalType": "address",
          "name": "_currency",
          "type": "address"
        },
        {
          "internalType": "uint256",
          "name": "_price",
          "type": "uint256"
        }
      ],
      "name": "updateConsignment",
      "outputs": [],
      "stateMutability": "nonpayable",
      "type": "function"
    },
    {
      "inputs": [
        {
          "internalType": "uint256",
          "name": "_tokenId",
          "type": "uint256"
        }
      ],
      "name": "withdrawFromConsignment",
      "outputs": [],
      "stateMutability": "nonpayable",
      "type": "function"
    },
    {
      "inputs": [
        {
          "internalType": "uint256",
          "name": "_tokenId",
          "type": "uint256"
        }
      ],
      "name": "purchaseItem",
      "outputs": [],
      "stateMutability": "nonpayable",
      "type": "function"
    },
    {
      "inputs": [
        {
          "internalType": "address",
          "name": "_currency",
          "type": "address"
        },
        {
          "internalType": "uint256",
          "name": "_tokenId",
          "type": "uint256"
        },
        {
          "internalType": "address",
          "name": "_ERC721TokenContract",
          "type": "address"
        },
        {
          "internalType": "uint32",
          "name": "_approvedNode",
          "type": "uint32"
        },
        {
          "internalType": "uint256",
          "name": "_approvingNode",
          "type": "uint256"
        }
      ],
      "name": "getApproval",
      "outputs": [
        {
          "components": [
            {
              "internalType": "address",
              "name": "listingFeePaymentAddress",
              "type": "address"
            },
            {
              "internalType": "address",
              "name": "saleCommissionPaymentAddress",
              "type": "address"
            },
            {
              "internalType": "uint8",
              "name": "approval",
              "type": "uint8"
            },
            {
              "internalType": "uint256",
              "name": "listingFee",
              "type": "uint256"
            },
            {
              "internalType": "uint256",
              "name": "saleCommission",
              "type": "uint256"
            }
          ],
          "internalType": "struct MarketFees",
          "name": "",
          "type": "tuple"
        }
      ],
      "stateMutability": "view",
      "type": "function"
    }
  ],
  "bytecode": "0x60806040523480156200001157600080fd5b50600160009081556002805460ff191690556200002f90336200008d565b6200005b7f2ce8d04a9c35987429af538825cd2438cc5c5bb5dc427955f84daaa3ea105016336200008d565b620000877f65d7a28e3265b37a6474929f336521b332c1681b933f6cb9f3376673440d862a336200008d565b62000125565b6200009982826200009d565b5050565b60008281526001602090815260408083206001600160a01b038516845290915290205460ff16620000995760008281526001602081815260408084206001600160a01b0386168086529252808420805460ff19169093179092559051339285917f2f8788117e7eff1d82e926ec794901d17c78024a50270940304540a733656f0d9190a45050565b613a3b80620001356000396000f3fe608060405234801561001057600080fd5b50600436106101cf5760003560e01c806391d1485411610104578063d547741f116100a2578063e63ab1e911610071578063e63ab1e91461045d578063e9c2651814610484578063ee9c25c5146104ab578063fef53561146104b357600080fd5b8063d547741f14610411578063dc38b0a214610424578063e59fdd3614610437578063e5f815dc1461044a57600080fd5b8063afcf2fc4116100de578063afcf2fc4146103ad578063b51eb064146103d8578063b6226360146103eb578063d38ea5bf146103fe57600080fd5b806391d148541461037f578063a217fddf14610392578063af47be901461039a57600080fd5b80632f2ff15d116101715780633f4ba83a1161014b5780633f4ba83a146103515780635c975abb1461035957806382ee07bf146103645780638456cb591461037757600080fd5b80632f2ff15d1461031857806336568abe1461032b5780633c6143551461033e57600080fd5b8063150b7a02116101ad578063150b7a02146102465780631657a6271461027e5780631da03312146102df578063248a9ca3146102f457600080fd5b806301ffc9a7146101d45780630c9be46d146101fc5780631429db5f14610211575b600080fd5b6101e76101e23660046132dd565b6104c6565b60405190151581526020015b60405180910390f35b61020f61020a36600461308d565b6104fd565b005b6102387f7f1e4e9f3d9ba0452a25cfef4cd4c6ffc86158d06ed2f585fa0093e12dec429c81565b6040519081526020016101f3565b610265610254366004613108565b630a85bd0160e11b95945050505050565b6040516001600160e01b031990911681526020016101f3565b61029161028c3660046131a7565b61055c565b6040516101f3919081516001600160a01b0390811682526020808401519091169082015260408083015160ff1690820152606080830151908201526080918201519181019190915260a00190565b6102386000805160206139e683398151915281565b610238610302366004613294565b6000908152600160208190526040909120015490565b61020f6103263660046132ad565b6109a6565b61020f6103393660046132ad565b6109d2565b61020f61034c366004613202565b610a50565b61020f610c07565b60025460ff166101e7565b61020f610372366004613460565b610c57565b61020f610ffe565b6101e761038d3660046132ad565b61104c565b610238600081565b61020f6103a836600461308d565b611077565b6017546103c0906001600160a01b031681565b6040516001600160a01b0390911681526020016101f3565b61020f6103e6366004613525565b6110d7565b61020f6103f9366004613294565b6112b8565b61020f61040c366004613294565b6115ea565b61020f61041f3660046132ad565b611b5b565b61020f61043236600461308d565b611b82565b61020f6104453660046130c7565b611c23565b61020f6104583660046130c7565b611d13565b6102387f65d7a28e3265b37a6474929f336521b332c1681b933f6cb9f3376673440d862a81565b6102387f3b5d4cc60d3ec3516ee8ae083bd60934f6eb2a6c54b1229985c41bfb092b260381565b61020f611ddf565b61020f6104c136600461354c565b6124b0565b60006001600160e01b03198216637965db0b60e01b14806104f757506301ffc9a760e01b6001600160e01b03198316145b92915050565b6105156000805160206139e68339815191523361104c565b61053a5760405162461bcd60e51b815260040161053190613695565b60405180910390fd5b601780546001600160a01b0319166001600160a01b0392909216919091179055565b6040805160a080820183526000808352602080840182905283850182905260608085018390526080808601849052865180860188528481528084018590528088018590528083018590528082018590528751958601885284865285840185905285880185905291850184905284018390526001600160a01b038b168352601b8252858320955194959094909183916105fc918c918c918c918c9101613815565b60408051808303601f190181529181528151602092830120835282820193909352908201600020825160a08101845281546001600160a01b039081168252600183015490811693820193909352600160a01b90920460ff16928201839052600280820154606084015260039091015460808301529094509091508114156106d35760405162461bcd60e51b815260206004820152602560248201527f4d3a415050524f56453a417373657420636f6e747261637420626c61636b6c69604482015264737465642160d81b6064820152608401610531565b826040015160ff16600114156106e7578291505b6001600160a01b0389166000908152601b6020908152604080832090519091839161071a918d918d918d918d9101613815565b60408051808303601f190181529181528151602092830120835282820193909352908201600020825160a08101845281546001600160a01b039081168252600183015490811693820193909352600160a01b90920460ff16928201839052600280820154606084015260039091015460808301529095509091508114156107ed5760405162461bcd60e51b815260206004820152602160248201527f4d3a415050524f56453a4173736574206e6f646520626c61636b6c69737465646044820152602160f81b6064820152608401610531565b836040015160ff1660011415610801578392505b6040808501516001600160a01b038c166000908152601b6020908152838220935160ff909316939261083b918e918e918e918e9101613815565b60408051808303601f190181529181528151602092830120835282820193909352908201600020825160a08101845281546001600160a01b039081168252600183015490811693820193909352600160a01b90920460ff16928201929092526002808301546060830152600390920154608082015295508114156109015760405162461bcd60e51b815260206004820152601c60248201527f4d3a415050524f56453a417373657420626c61636b6c697374656421000000006044820152606401610531565b846040015160ff1660011415610915578493505b60008361092284846138c2565b61092c91906138c2565b116109975760405162461bcd60e51b815260206004820152603560248201527f4d3a415050524f56453a4173736574206f7220617373657420636f6e747261636044820152741d080bc81b9bd919481b9bdd08185c1c1c9bdd9959605a1b6064820152608401610531565b50919998505050505050505050565b600082815260016020819052604090912001546109c38133612ac6565b6109cd8383612b2a565b505050565b6001600160a01b0381163314610a425760405162461bcd60e51b815260206004820152602f60248201527f416363657373436f6e74726f6c3a2063616e206f6e6c792072656e6f756e636560448201526e103937b632b9903337b91039b2b63360891b6064820152608401610531565b610a4c8282612b95565b5050565b60026000541415610a735760405162461bcd60e51b8152600401610531906137de565b6002600055610a8460025460ff1690565b15610aa15760405162461bcd60e51b8152600401610531906137b4565b600c5463ffffffff8616906001600160a01b0316336040516331a9108f60e11b8152600481018490526001600160a01b0391821691831690636352211e9060240160206040518083038186803b158015610afa57600080fd5b505afa158015610b0e573d6000803e3d6000fd5b505050506040513d601f19601f82011682018060405250810190610b3291906130aa565b6001600160a01b031614610b585760405162461bcd60e51b81526004016105319061371f565b60038310610bb35760405162461bcd60e51b815260206004820152602260248201527f4d3a4146433a617070726f76616c206d757374206265206c657373207468616e604482015261203360f01b6064820152608401610531565b60408051602081018890526001600160a01b0387169181019190915263ffffffff80861660608301528816608082015260009060a00160408051601f19818403019052525050600160005550505050505050565b610c317f65d7a28e3265b37a6474929f336521b332c1681b933f6cb9f3376673440d862a3361104c565b610c4d5760405162461bcd60e51b81526004016105319061376e565b610c55612bfc565b565b60026000541415610c7a5760405162461bcd60e51b8152600401610531906137de565b6002600055610c8b60025460ff1690565b15610ca85760405162461bcd60e51b8152600401610531906137b4565b8585336040516331a9108f60e11b8152600481018490526001600160a01b0391821691831690636352211e9060240160206040518083038186803b158015610cef57600080fd5b505afa158015610d03573d6000803e3d6000fd5b505050506040513d601f19601f82011682018060405250810190610d2791906130aa565b6001600160a01b031614610d4d5760405162461bcd60e51b81526004016105319061371f565b6000610d63878a8a60008963ffffffff1661055c565b9050610d966040805160a08101825260008082526020820181905291810182905260608101829052608081019190915290565b600a54604051600091610dd2918d916001600160a01b03169060200191825260601b6bffffffffffffffffffffffff1916602082015260340190565b60408051601f1981840301815291815281516020928301208d85526001600160a01b03808e168685019081528d821687850190815260608089018f81526000868152601989528781208b5181559451600180870180549289166001600160a01b0319938416179055945160028088018054928a169284169290921790915592516003808801919091556080808e01516004909801805463ffffffff90991663ffffffff1990991698909817909755601a8b52918990208d5181549089169216919091178155988c01519389018054988d015160ff16600160a01b026001600160a81b031990991694909616939093179690961790935591880151938501939093559186015192909101919091559050610ef38a610eec3390565b308e612c8f565b606083015115610f675760095483516060850151604051639b30d1e960e01b81526001600160a01b0390931692639b30d1e992610f34923392600401613637565b600060405180830381600087803b158015610f4e57600080fd5b505af1158015610f62573d6000803e3d6000fd5b505050505b6018546001600160a01b031663126c95803383896040518463ffffffff1660e01b8152600401610f999392919061365b565b602060405180830381600087803b158015610fb357600080fd5b505af1158015610fc7573d6000803e3d6000fd5b505050506040513d601f19601f82011682018060405250810190610feb9190613447565b5050600160005550505050505050505050565b6110287f65d7a28e3265b37a6474929f336521b332c1681b933f6cb9f3376673440d862a3361104c565b6110445760405162461bcd60e51b81526004016105319061376e565b610c55612cf7565b60009182526001602090815260408084206001600160a01b0393909316845291905290205460ff1690565b61108f6000805160206139e68339815191523361104c565b6110ab5760405162461bcd60e51b815260040161053190613695565b601680546001600160a01b039092166001600160a01b0319928316811790915560188054909216179055565b600260005414156110fa5760405162461bcd60e51b8152600401610531906137de565b600260005561110b60025460ff1690565b156111285760405162461bcd60e51b8152600401610531906137b4565b60165483906001600160a01b0316336040516331a9108f60e11b8152600481018490526001600160a01b0391821691831690636352211e9060240160206040518083038186803b15801561117b57600080fd5b505afa15801561118f573d6000803e3d6000fd5b505050506040513d601f19601f820116820180604052508101906111b391906130aa565b6001600160a01b0316146111d95760405162461bcd60e51b81526004016105319061371f565b6000858152601960209081526040808320815160a0810183528154815260018201546001600160a01b0390811694820185905260028301548116938201939093526003820154606082015260049091015463ffffffff166080820152600a549092911614156112575786600061124e82612d4f565b60600151935050505b611276868260000151836020015185856080015163ffffffff1661055c565b505050600094855250506019602052604083206002810180546001600160a01b0319166001600160a01b03949094169390931790925560039091015560019055565b600260005414156112db5760405162461bcd60e51b8152600401610531906137de565b60026000556112ec60025460ff1690565b156113095760405162461bcd60e51b8152600401610531906137b4565b60165481906001600160a01b0316336040516331a9108f60e11b8152600481018490526001600160a01b0391821691831690636352211e9060240160206040518083038186803b15801561135c57600080fd5b505afa158015611370573d6000803e3d6000fd5b505050506040513d601f19601f8201168201806040525081019061139491906130aa565b6001600160a01b0316146113ba5760405162461bcd60e51b81526004016105319061371f565b6000601960008581526020019081526020016000206040518060a0016040529081600082015481526020016001820160009054906101000a90046001600160a01b03166001600160a01b03166001600160a01b031681526020016002820160009054906101000a90046001600160a01b03166001600160a01b03166001600160a01b03168152602001600382015481526020016004820160009054906101000a900463ffffffff1663ffffffff1663ffffffff16815250509050601960008581526020019081526020016000206000808201600090556001820160006101000a8154906001600160a01b0302191690556002820160006101000a8154906001600160a01b03021916905560038201600090556004820160006101000a81549063ffffffff02191690555050601a6000858152602001908152602001600020600080820160006101000a8154906001600160a01b0302191690556001820160006101000a8154906001600160a01b0302191690556001820160146101000a81549060ff0219169055600282016000905560038201600090555050601860009054906101000a90046001600160a01b03166001600160a01b03166371ba4055856040518263ffffffff1660e01b815260040161159691815260200190565b600060405180830381600087803b1580156115b057600080fd5b505af11580156115c4573d6000803e3d6000fd5b505050506115df8160200151306115d83390565b8451612c8f565b505060016000555050565b6002600054141561160d5760405162461bcd60e51b8152600401610531906137de565b600260005561161e60025460ff1690565b1561163b5760405162461bcd60e51b8152600401610531906137b4565b6000818152601960209081526040808320815160a0810183528154815260018201546001600160a01b0390811694820185905260028301548116938201939093526003820154606082015260049091015463ffffffff166080820152600a549092911614156116b9578260006116b082612d4f565b60600151935050505b6116dc81604001518260000151836020015185856080015163ffffffff1661055c565b506000838152601a6020908152604091829020825160a08101845281546001600160a01b03908116808352600184015491821694830194909452600160a01b900460ff16938101939093526002810154606084015260030154608083015261174d576017546001600160a01b031681525b60208101516001600160a01b0316611771576017546001600160a01b031660208201525b608081015160009015611795578160800151836060015161179291906138da565b90505b60008184606001516117a7919061391b565b60185460405162491fcf60e11b8152600481018990529192506000916001600160a01b039091169062923f9e9060240160206040518083038186803b1580156117ef57600080fd5b505afa158015611803573d6000803e3d6000fd5b505050506040513d601f19601f820116820180604052508101906118279190613447565b156118b95760185485516040516331a9108f60e11b81526001600160a01b0390921691636352211e916118609160040190815260200190565b602060405180830381600087803b15801561187a57600080fd5b505af115801561188e573d6000803e3d6000fd5b505050506040513d601f19601f820116820180604052508101906118b291906130aa565b90506118c7565b506017546001600160a01b03165b6000878152601960205260408082208281556001810180546001600160a01b0319908116909155600282018054909116905560038101929092556004909101805463ffffffff19169055600854908601516001600160a01b0390811691161480156119b857506009546001600160a01b0316634ac3c31b336040516001600160e01b031960e084901b1681526001600160a01b03909116600482015260240160206040518083038186803b15801561197e57600080fd5b505afa158015611992573d6000803e3d6000fd5b505050506040513d601f19601f820116820180604052508101906119b69190613447565b155b15611a9c578115611a28576009546001600160a01b0316639b30d1e93383856040518463ffffffff1660e01b81526004016119f593929190613637565b600060405180830381600087803b158015611a0f57600080fd5b505af1158015611a23573d6000803e3d6000fd5b505050505b8215611a97576009546001600160a01b0316639b30d1e9338660200151866040518463ffffffff1660e01b8152600401611a6493929190613637565b600060405180830381600087803b158015611a7e57600080fd5b505af1158015611a92573d6000803e3d6000fd5b505050505b611ad8565b8115611ab857611ab88560400151611ab13390565b8385612e35565b8215611ad857611ad88560400151611acd3390565b866020015186612e35565b6018546040516371ba405560e01b8152600481018990526001600160a01b03909116906371ba405590602401600060405180830381600087803b158015611b1e57600080fd5b505af1158015611b32573d6000803e3d6000fd5b50505050611b4d856020015130611b463390565b8851612c8f565b505060016000555050505050565b60008281526001602081905260409091200154611b788133612ac6565b6109cd8383612b95565b611b9a6000805160206139e68339815191523361104c565b611bb65760405162461bcd60e51b815260040161053190613695565b6001600160a01b038116611c015760405162461bcd60e51b81526020600482015260126024820152710423a5353433a2041646472657373203d20360741b6044820152606401610531565b600380546001600160a01b0319166001600160a01b0392909216919091179055565b611c4d7f7f1e4e9f3d9ba0452a25cfef4cd4c6ffc86158d06ed2f585fa0093e12dec429c3361104c565b611c695760405162461bcd60e51b8152600401610531906136dc565b60026000541415611c8c5760405162461bcd60e51b8152600401610531906137de565b60026000556040516323b872dd60e01b81526001600160a01b038416906323b872dd90611cc190309086908690600401613637565b602060405180830381600087803b158015611cdb57600080fd5b505af1158015611cef573d6000803e3d6000fd5b505050506040513d601f19601f820116820180604052508101906115df9190613272565b611d3d7f7f1e4e9f3d9ba0452a25cfef4cd4c6ffc86158d06ed2f585fa0093e12dec429c3361104c565b611d595760405162461bcd60e51b8152600401610531906136dc565b60026000541415611d7c5760405162461bcd60e51b8152600401610531906137de565b6002600055604051632142170760e11b81526001600160a01b038416906342842e0e90611db190309086908690600401613637565b600060405180830381600087803b158015611dcb57600080fd5b505af1158015611b4d573d6000803e3d6000fd5b60026000541415611e025760405162461bcd60e51b8152600401610531906137de565b6002600055611e1f6000805160206139e68339815191523361104c565b611e3b5760405162461bcd60e51b815260040161053190613695565b6003546040516363b8d4c160e11b81526020600482015260086024820152672727a222afaa25a760c11b60448201526001600160a01b039091169063c771a9829060640160206040518083038186803b158015611e9757600080fd5b505afa158015611eab573d6000803e3d6000fd5b505050506040513d601f19601f82011682018060405250810190611ecf91906130aa565b600c80546001600160a01b039283166001600160a01b03199182168117909255600d805490911690911790556003546040516363b8d4c160e11b81526020600482015260086024820152672727a222afa6a3a960c11b604482015291169063c771a9829060640160206040518083038186803b158015611f4e57600080fd5b505afa158015611f62573d6000803e3d6000fd5b505050506040513d601f19601f82011682018060405250810190611f8691906130aa565b600480546001600160a01b039283166001600160a01b031991821681178355600580549092161790556003546040516363b8d4c160e11b815292169163c771a98291611ff091016020808252600990820152682727a222afa9aa27a960b91b604082015260600190565b60206040518083038186803b15801561200857600080fd5b505afa15801561201c573d6000803e3d6000fd5b505050506040513d601f19601f8201168201806040525081019061204091906130aa565b600680546001600160a01b039283166001600160a01b031991821681179092556007805490911690911790556003546040516363b8d4c160e11b81526020600482015260086024820152672aaa24a62faa25a760c11b604482015291169063c771a9829060640160206040518083038186803b1580156120bf57600080fd5b505afa1580156120d3573d6000803e3d6000fd5b505050506040513d601f19601f820116820180604052508101906120f791906130aa565b600880546001600160a01b039283166001600160a01b031991821681179092556009805490911690911790556003546040516363b8d4c160e11b815260206004820152600560248201526420afaa25a760d91b604482015291169063c771a9829060640160206040518083038186803b15801561217357600080fd5b505afa158015612187573d6000803e3d6000fd5b505050506040513d601f19601f820116820180604052508101906121ab91906130aa565b600a80546001600160a01b039283166001600160a01b03199182168117909255600b805490911690911790556003546040516363b8d4c160e11b815260206004820152600760248201526622a1a92fa6a3a960c91b604482015291169063c771a9829060640160206040518083038186803b15801561222957600080fd5b505afa15801561223d573d6000803e3d6000fd5b505050506040513d601f19601f8201168201806040525081019061226191906130aa565b600e80546001600160a01b039283166001600160a01b03199182168117909255600f805490911690911790556003546040516363b8d4c160e11b815291169063c771a982906122ca9060040160208082526003908201526204150560ec1b604082015260600190565b60206040518083038186803b1580156122e257600080fd5b505afa1580156122f6573d6000803e3d6000fd5b505050506040513d601f19601f8201168201806040525081019061231a91906130aa565b601280546001600160a01b039283166001600160a01b031991821681179092556013805490911690911790556003546040516363b8d4c160e11b815291169063c771a98290612384906004016020808252600490820152632921a62960e11b604082015260600190565b60206040518083038186803b15801561239c57600080fd5b505afa1580156123b0573d6000803e3d6000fd5b505050506040513d601f19601f820116820180604052508101906123d491906130aa565b601080546001600160a01b039283166001600160a01b031991821681179092556011805490911690911790556003546040516363b8d4c160e11b81526020600482015260066024820152654150505f4e4360d01b604482015291169063c771a9829060640160206040518083038186803b15801561245157600080fd5b505afa158015612465573d6000803e3d6000fd5b505050506040513d601f19601f8201168201806040525081019061248991906130aa565b601480546001600160a01b0319166001600160a01b03929092169190911790556001600055565b600260005414156124d35760405162461bcd60e51b8152600401610531906137de565b60026000556124e460025460ff1690565b156125015760405162461bcd60e51b8152600401610531906137b4565b600a5484906001600160a01b0316336040516331a9108f60e11b8152600481018490526001600160a01b0391821691831690636352211e9060240160206040518083038186803b15801561255457600080fd5b505afa158015612568573d6000803e3d6000fd5b505050506040513d601f19601f8201168201806040525081019061258c91906130aa565b6001600160a01b0316146125b25760405162461bcd60e51b81526004016105319061371f565b8560006125be82612d4f565b9050806000015160ff166033146126315760405162461bcd60e51b815260206004820152603160248201527f4d3a4350413a50525546206173736574206973206e6f742073746174757320356044820152703120287472616e736665727261626c652960781b6064820152608401610531565b600061265f888a600a60009054906101000a90046001600160a01b031685606001518a63ffffffff1661055c565b90506126926040805160a08101825260008082526020820181905291810182905260608101829052608081019190915290565b600a546040516000916126ce918d916001600160a01b03169060200191825260601b6bffffffffffffffffffffffff1916602082015260340190565b60408051808303601f19018152908290528051602090910120600b5463c87b56dd60e01b8352600483018e90529092506000916001600160a01b039091169063c87b56dd9060240160006040518083038186803b15801561272e57600080fd5b505afa158015612742573d6000803e3d6000fd5b505050506040513d6000823e601f3d908101601f1916820160405261276a9190810190613307565b90508b836000018181525050600a60009054906101000a90046001600160a01b031683602001906001600160a01b031690816001600160a01b0316815250508a83604001906001600160a01b031690816001600160a01b0316815250508983606001818152505088836080019063ffffffff16908163ffffffff168152505082601960008481526020019081526020016000206000820151816000015560208201518160010160006101000a8154816001600160a01b0302191690836001600160a01b0316021790555060408201518160020160006101000a8154816001600160a01b0302191690836001600160a01b031602179055506060820151816003015560808201518160040160006101000a81548163ffffffff021916908363ffffffff16021790555090505083601a600084815260200190815260200160002060008201518160000160006101000a8154816001600160a01b0302191690836001600160a01b0316021790555060208201518160010160006101000a8154816001600160a01b0302191690836001600160a01b0316021790555060408201518160010160146101000a81548160ff021916908360ff1602179055506060820151816002015560808201518160030155905050600b60009054906101000a90046001600160a01b03166001600160a01b0316630b3048bf6129663390565b308f6040518463ffffffff1660e01b815260040161298693929190613637565b600060405180830381600087803b1580156129a057600080fd5b505af11580156129b4573d6000803e3d6000fd5b505050508360600151600014612a2e5760095484516060860151604051639b30d1e960e01b81526001600160a01b0390931692639b30d1e9926129fb923392600401613637565b600060405180830381600087803b158015612a1557600080fd5b505af1158015612a29573d6000803e3d6000fd5b505050505b6018546001600160a01b031663126c95803384846040518463ffffffff1660e01b8152600401612a609392919061365b565b602060405180830381600087803b158015612a7a57600080fd5b505af1158015612a8e573d6000803e3d6000fd5b505050506040513d601f19601f82011682018060405250810190612ab29190613447565b505060016000555050505050505050505050565b612ad0828261104c565b610a4c57612ae8816001600160a01b03166014612ebe565b612af3836020612ebe565b604051602001612b049291906135c2565b60408051601f198184030181529082905262461bcd60e51b825261053191600401613682565b612b34828261104c565b610a4c5760008281526001602081815260408084206001600160a01b0386168086529252808420805460ff19169093179092559051339285917f2f8788117e7eff1d82e926ec794901d17c78024a50270940304540a733656f0d9190a45050565b612b9f828261104c565b15610a4c5760008281526001602090815260408083206001600160a01b0385168085529252808320805460ff1916905551339285917ff6391f5c32d9c69d2a47ea670b442974b53935d1edc7fd64eb21e047a839171b9190a45050565b60025460ff16612c455760405162461bcd60e51b815260206004820152601460248201527314185d5cd8589b194e881b9bdd081c185d5cd95960621b6044820152606401610531565b6002805460ff191690557f5db9ee0a495bf2e6ff9c91a7834c1ba4fdd244a5e8aa4e537bd38aeae4b073aa335b6040516001600160a01b03909116815260200160405180910390a1565b604051632142170760e11b81526001600160a01b038516906342842e0e90612cbf90869086908690600401613637565b600060405180830381600087803b158015612cd957600080fd5b505af1158015612ced573d6000803e3d6000fd5b5050505050505050565b60025460ff1615612d1a5760405162461bcd60e51b8152600401610531906137b4565b6002805460ff191660011790557f62e78cea01bee320cd4e420270b5ea74000d11b0c9f74754ebdbfc544b05a258612c723390565b6040805161018081018252600080825260208201819052918101829052606081018290526080810182905260a0810182905260c0810182905260e081018290526101008101829052610120810182905261014081018290526101608101919091526003546040516338923cb160e21b8152600481018490526000916001600160a01b03169063e248f2c4906024016101806040518083038186803b158015612df657600080fd5b505afa158015612e0a573d6000803e3d6000fd5b505050506040513d601f19601f82011682018060405250810190612e2e9190613383565b9392505050565b6040516323b872dd60e01b81526001600160a01b038516906323b872dd90612e6590869086908690600401613637565b602060405180830381600087803b158015612e7f57600080fd5b505af1158015612e93573d6000803e3d6000fd5b505050506040513d601f19601f82011682018060405250810190612eb79190613272565b5050505050565b60606000612ecd8360026138fc565b612ed89060026138c2565b67ffffffffffffffff811115612ef057612ef06139a5565b6040519080825280601f01601f191660200182016040528015612f1a576020820181803683370190505b509050600360fc1b81600081518110612f3557612f3561398f565b60200101906001600160f81b031916908160001a905350600f60fb1b81600181518110612f6457612f6461398f565b60200101906001600160f81b031916908160001a9053506000612f888460026138fc565b612f939060016138c2565b90505b600181111561300b576f181899199a1a9b1b9c1cb0b131b232b360811b85600f1660108110612fc757612fc761398f565b1a60f81b828281518110612fdd57612fdd61398f565b60200101906001600160f81b031916908160001a90535060049490941c9361300481613962565b9050612f96565b508315612e2e5760405162461bcd60e51b815260206004820181905260248201527f537472696e67733a20686578206c656e67746820696e73756666696369656e746044820152606401610531565b805161ffff8116811461306c57600080fd5b919050565b805161306c816139d3565b805160ff8116811461306c57600080fd5b60006020828403121561309f57600080fd5b8135612e2e816139bb565b6000602082840312156130bc57600080fd5b8151612e2e816139bb565b6000806000606084860312156130dc57600080fd5b83356130e7816139bb565b925060208401356130f7816139bb565b929592945050506040919091013590565b60008060008060006080868803121561312057600080fd5b853561312b816139bb565b9450602086013561313b816139bb565b935060408601359250606086013567ffffffffffffffff8082111561315f57600080fd5b818801915088601f83011261317357600080fd5b81358181111561318257600080fd5b89602082850101111561319457600080fd5b9699959850939650602001949392505050565b600080600080600060a086880312156131bf57600080fd5b85356131ca816139bb565b94506020860135935060408601356131e1816139bb565b925060608601356131f1816139d3565b949793965091946080013592915050565b60008060008060008060c0878903121561321b57600080fd5b8635613226816139bb565b95506020870135613236816139d3565b945060408701359350606087013561324d816139bb565b9250608087013561325d816139d3565b8092505060a087013590509295509295509295565b60006020828403121561328457600080fd5b81518015158114612e2e57600080fd5b6000602082840312156132a657600080fd5b5035919050565b600080604083850312156132c057600080fd5b8235915060208301356132d2816139bb565b809150509250929050565b6000602082840312156132ef57600080fd5b81356001600160e01b031981168114612e2e57600080fd5b60006020828403121561331957600080fd5b815167ffffffffffffffff81111561333057600080fd5b8201601f8101841361334157600080fd5b805161335461334f8261389a565b613869565b81815285602083850101111561336957600080fd5b61337a826020830160208601613932565b95945050505050565b6000610180828403121561339657600080fd5b61339e61383f565b6133a78361307c565b81526133b56020840161307c565b60208201526133c66040840161305a565b60408201526133d760608401613071565b60608201526133e860808401613071565b60808201526133f960a08401613071565b60a082015260c0838101519082015260e08084015190820152610100808401519082015261012080840151908201526101408084015190820152610160928301519281019290925250919050565b60006020828403121561345957600080fd5b5051919050565b60008060008060008060c0878903121561347957600080fd5b86359550602087013561348b816139bb565b9450604087013561349b816139bb565b93506060870135925060808701356134b2816139d3565b915060a087013567ffffffffffffffff8111156134ce57600080fd5b8701601f810189136134df57600080fd5b80356134ed61334f8261389a565b8181528a602083850101111561350257600080fd5b816020840160208301376000602083830101528093505050509295509295509295565b60008060006060848603121561353a57600080fd5b8335925060208401356130f7816139bb565b6000806000806080858703121561356257600080fd5b843593506020850135613574816139bb565b925060408501359150606085013561358b816139d3565b939692955090935050565b600081518084526135ae816020860160208601613932565b601f01601f19169290920160200192915050565b7f416363657373436f6e74726f6c3a206163636f756e74200000000000000000008152600083516135fa816017850160208801613932565b7001034b99036b4b9b9b4b733903937b6329607d1b601791840191820152835161362b816028840160208801613932565b01602801949350505050565b6001600160a01b039384168152919092166020820152604081019190915260600190565b60018060a01b038416815282602082015260606040820152600061337a6060830184613596565b602081526000612e2e6020830184613596565b60208082526027908201527f423a4d4f443a2d4941444d2043616c6c65722021434f4e54524143545f41444d604082015266494e5f524f4c4560c81b606082015260800190565b60208082526023908201527f423a4d4f443a2d4941444d2043616c6c6572202141535345545f545846525f526040820152624f4c4560e81b606082015260800190565b6020808252602f908201527f4d3a4d4f442d4954483a2043616c6c657220646f6573206e6f7420686f6c642060408201526e39b832b1b4b334b2b2103a37b5b2b760891b606082015260800190565b60208082526026908201527f423a4d4f442d49503a43616c6c696e672061646472657373206973206e6f74206040820152653830bab9b2b960d11b606082015260800190565b60208082526010908201526f14185d5cd8589b194e881c185d5cd95960821b604082015260600190565b6020808252601f908201527f5265656e7472616e637947756172643a207265656e7472616e742063616c6c00604082015260600190565b9384526001600160a01b0392909216602084015263ffffffff166040830152606082015260800190565b604051610180810167ffffffffffffffff81118282101715613863576138636139a5565b60405290565b604051601f8201601f1916810167ffffffffffffffff81118282101715613892576138926139a5565b604052919050565b600067ffffffffffffffff8211156138b4576138b46139a5565b50601f01601f191660200190565b600082198211156138d5576138d5613979565b500190565b6000826138f757634e487b7160e01b600052601260045260246000fd5b500490565b600081600019048311821515161561391657613916613979565b500290565b60008282101561392d5761392d613979565b500390565b60005b8381101561394d578181015183820152602001613935565b8381111561395c576000848401525b50505050565b60008161397157613971613979565b506000190190565b634e487b7160e01b600052601160045260246000fd5b634e487b7160e01b600052603260045260246000fd5b634e487b7160e01b600052604160045260246000fd5b6001600160a01b03811681146139d057600080fd5b50565b63ffffffff811681146139d057600080fdfe2ce8d04a9c35987429af538825cd2438cc5c5bb5dc427955f84daaa3ea105016a2646970667358221220933c0e2098ce7460d4bbe69debaa38c8b8d62ac650ed7d81b1c474a451428d4b64736f6c63430008070033",
  "immutableReferences": {},
  "source": "/**--------------------------------------------------------PRF0.8.7\n__/\\\\\\\\\\\\\\\\\\\\\\\\\\ _____/\\\\\\\\\\\\\\\\\\ _______/\\\\__/\\\\ ___/\\\\\\\\\\\\\\\\\\\\\\\\\\\\\\        \n__\\/\\\\\\/////////\\\\\\ _/\\\\\\///////\\\\\\ ____\\//__\\//____\\/\\\\\\///////////__       \n___\\/\\\\\\_______\\/\\\\\\_\\/\\\\\\_____\\/\\\\\\ ________________\\/\\\\\\ ____________      \n____\\/\\\\\\\\\\\\\\\\\\\\\\\\\\/__\\/\\\\\\\\\\\\\\\\\\\\\\/_____/\\\\\\____/\\\\\\_\\/\\\\\\\\\\\\\\\\\\\\\\ ____     \n_____\\/\\\\\\/////////____\\/\\\\\\//////\\\\\\ ___\\/\\\\\\___\\/\\\\\\_\\/\\\\\\///////______\n______\\/\\\\\\ ____________\\/\\\\\\ ___\\//\\\\\\ __\\/\\\\\\___\\/\\\\\\_\\/\\\\\\ ____________\n_______\\/\\\\\\ ____________\\/\\\\\\ ____\\//\\\\\\ _\\/\\\\\\___\\/\\\\\\_\\/\\\\\\ ____________\n________\\/\\\\\\ ____________\\/\\\\\\ _____\\//\\\\\\_\\//\\\\\\\\\\\\\\\\\\ _\\/\\\\\\ ____________\n_________\\/// _____________\\/// _______\\/// __\\///////// __\\/// _____________\n*---------------------------------------------------------------------------*/\n\n/**-----------------------------------------------------------------\n *  TO DO --- Find more needed requires?\n * \n * DPS:NEW CONTRACT DPS:CHECK\n *\n *\n *-----------------------------------------------------------------\n * Wraps and unwraps ERC721 compliant tokens in a PRUF market token  \n * Allows Node operators to set fees,approve assets, contracts, \n * or nodes to list in their node, as well as setting valid currencies for listing. \n * MUST BE TRUSTED AGENT IN MARKET_TKN, A_tkn, Util_Tkn\n *----------------------------------------------------------------*/\n\n// SPDX-License-Identifier: UNLICENSED\npragma solidity 0.8.7;\n\nimport \"../Resources/PRUF_BASIC.sol\";\n\ncontract Market is BASIC {\n    address internal MARKET_TKN_Address;\n    address public charityAddress;\n\n    MARKET_TKN_Interface internal MARKET_TKN;\n\n    mapping(uint256 => ConsignmentTag) private tag; // Market tokenID -> Consignment Tag\n    mapping(uint256 => MarketFees) private tagFees; // Market tokenID -> Market Fee Struct\n    mapping(address => mapping(bytes32 => MarketFees)) private approvals; //consignments approved by node\n\n    /**\n     * @dev Verify user credentials\n     * @param _tokenID tokenID of token\n     * @param _tokenContract Contract to check\n     * Originating Address:\n     *    require that user holds token @ ID-Contract\n     */\n    modifier isTokenHolder(uint256 _tokenID, address _tokenContract) {\n        require(\n            (IERC721(_tokenContract).ownerOf(_tokenID) == _msgSender()),\n            \"M:MOD-ITH: Caller does not hold specified token\"\n        );\n        _;\n    }\n\n    //--------------------------------------------External Functions--------------------------\n\n    /**\n     * @dev sets the MARKET_TKN contract address\n     * @param _address MARKET_TKN contract address\n     */\n\n    function setMarketTokenAddress(address _address) external isContractAdmin {\n        MARKET_TKN_Address = _address;\n        MARKET_TKN = MARKET_TKN_Interface(MARKET_TKN_Address);\n    }\n\n    /**\n     * @dev sets the charity donation address\n     * @param _charityAddress charity erc20 address\n     */\n\n    function setCharityAddress(address _charityAddress)\n        external\n        isContractAdmin\n    {\n        charityAddress = _charityAddress;\n    }\n\n    /**\n     * @dev Lets a node submit approval to list items in its marketspace\n     * @param _currency ERC20 contract address to approve\n     * @param _node, node issuing approval\n     * @param _tokenId zero if all from contract / node\n     * @param _ERC721TokenContract contract address for token to wrap (A_TKN for PRF)\n     * @param _nodeToApprove zero if all pruf nodes (using PRUF A_TKN contract address)\n     * @param _approved one to approve. zero to unaprove. two to blacklist (valid = 0,1,2)\n     */\n    function approveForConsignment(\n        address _currency,\n        uint32 _node,\n        uint256 _tokenId,\n        address _ERC721TokenContract,\n        uint32 _nodeToApprove,\n        uint256 _approved \n    )\n        external\n        nonReentrant\n        whenNotPaused\n        isTokenHolder(_node, NODE_TKN_Address)\n    {\n        require(_approved < 3, \"M:AFC:approval must be less than 3\");\n        bytes32 consignmentHash = keccak256(\n            abi.encode(_tokenId, _ERC721TokenContract, _nodeToApprove, _node)\n        );\n        // approvals[_currency][consignmentHash].approval = _approved; //CTS:EXAMINE Type uint256 is not implicitly convertible to expected type uint8.\n        //^^^^^^^interactions^^^^^^^^^\n    }\n\n    /**\n     * @dev Wraps a pruf asset, takes original from caller (holds it in contract)\n     * @param _tokenId tokenID of token to wrap\n     * @param _currency currency to make consignment in\n     * @param _price price in _currency to require for transfer\n     * @param _consigningNode node doing the consignment\n     */\n    function consignPrufAsset(\n        uint256 _tokenId,\n        address _currency,\n        uint256 _price,\n        uint32 _consigningNode\n    )\n        external\n        nonReentrant\n        whenNotPaused\n        isTokenHolder(_tokenId, A_TKN_Address)\n    {\n        bytes32 idxHash = bytes32(_tokenId);\n        Record memory rec = getRecord(idxHash);\n        require(\n            rec.assetStatus == 51,\n            \"M:CPA:PRUF asset is not status 51 (transferrable)\"\n        );\n        MarketFees memory theseFees = getApproval(\n            _currency,\n            _tokenId,\n            A_TKN_Address,\n            rec.node,\n            _consigningNode\n        );\n        //^^^^^^^checks^^^^^^^^^\n\n        ConsignmentTag memory thisTag;\n\n        uint256 newTokenId = uint256(\n            keccak256(abi.encodePacked(_tokenId, A_TKN_Address))\n        );\n\n        string memory uri = A_TKN.tokenURI(_tokenId);\n\n        thisTag.tokenId = _tokenId;\n        thisTag.tokenContract = A_TKN_Address;\n        thisTag.currency = _currency;\n        thisTag.price = _price;\n        thisTag.node = _consigningNode;\n\n        tag[newTokenId] = thisTag;\n        tagFees[newTokenId] = theseFees;\n\n        //^^^^^^^effects^^^^^^^^^\n\n        A_TKN.trustedAgentTransferFrom(_msgSender(), address(this), _tokenId); //move token to this contract using TRUSTED_AGENT_ROLE\n\n        if (theseFees.listingFee != 0) {\n            UTIL_TKN.trustedAgentTransfer( //Pay listing fee in PRF using TAT\n                _msgSender(),\n                theseFees.listingFeePaymentAddress,\n                theseFees.listingFee\n            );\n        }\n\n        MARKET_TKN.mintConsignmentToken(_msgSender(), newTokenId, uri);\n        //^^^^^^^interactions^^^^^^^^^\n    }\n\n    /**\n     * @dev Wraps a token, takes original from caller (holds it in contract)\n     * @param _tokenId tokenID of token to wrap\n     * @param _ERC721TokenContract contract address for token to wrap\n     * @param _currency currency to make consignment in\n     * @param _price price in _currency to require for transfer\n     * @param _consigningNode node doing the consignment\n     * @param uri string for URI\n     * Prerequisite: contract authorized for token txfr\n     * Takes original 721\n     */\n    function consignToken(\n        uint256 _tokenId,\n        address _ERC721TokenContract,\n        address _currency,\n        uint256 _price,\n        uint32 _consigningNode,\n        string memory uri\n    )\n        external\n        nonReentrant\n        whenNotPaused\n        isTokenHolder(_tokenId, _ERC721TokenContract)\n    {\n        MarketFees memory theseFees = getApproval(\n            _currency,\n            _tokenId,\n            _ERC721TokenContract,\n            0,\n            _consigningNode\n        );\n        //^^^^^^^checks^^^^^^^^^\n\n        ConsignmentTag memory thisTag;\n\n        uint256 newTokenId = uint256(\n            keccak256(abi.encodePacked(_tokenId, A_TKN_Address))\n        );\n\n        thisTag.tokenId = _tokenId;\n        thisTag.tokenContract = _ERC721TokenContract;\n        thisTag.currency = _currency;\n        thisTag.price = _price;\n\n        tag[newTokenId] = thisTag;\n        tagFees[newTokenId] = theseFees;\n        //^^^^^^^effects^^^^^^^^^\n\n        foreign721Transfer( // move token to this contract using allowance\n            _ERC721TokenContract,\n            _msgSender(),\n            address(this),\n            _tokenId\n        );\n\n        if (theseFees.listingFee != 0) {\n            UTIL_TKN.trustedAgentTransfer( //Pay listing fee in PRF using TAT\n                _msgSender(),\n                theseFees.listingFeePaymentAddress,\n                theseFees.listingFee\n            );\n        }\n\n        MARKET_TKN.mintConsignmentToken(_msgSender(), newTokenId, uri);\n        //^^^^^^^interactions^^^^^^^^^\n    }\n\n    /**\n     * @dev Updates pricing information for an active consignment\n     * @param _tokenId ID of consignment\n     * @param _currency currency to make consignment in\n     * @param _price price in _currency to require for transfer\n     */\n    function updateConsignment(\n        uint256 _tokenId,\n        address _currency,\n        uint256 _price\n    )\n        external\n        nonReentrant\n        whenNotPaused\n        isTokenHolder(_tokenId, MARKET_TKN_Address)\n    {\n        uint32 prufNode;\n\n        ConsignmentTag memory thisTag = tag[_tokenId];\n        if (thisTag.tokenContract == A_TKN_Address) {\n            bytes32 idxHash = bytes32(_tokenId);\n            Record memory rec = getRecord(idxHash);\n            prufNode = rec.node;\n        }\n\n        getApproval(\n            _currency,\n            thisTag.tokenId,\n            thisTag.tokenContract,\n            prufNode,\n            thisTag.node\n        );\n\n        //^^^^^^^checks^^^^^^^\n\n        tag[_tokenId].currency = _currency;\n        tag[_tokenId].price = _price;\n\n        //^^^^^^^effects^^^^^^^^^\n    }\n\n    /**\n     * @dev Unwraps a token, burns the MARKET_TKN, returns consigned token to caller\n     * @param _tokenId tokenID of consignment token being redeemed\n     */\n    function withdrawFromConsignment(uint256 _tokenId)\n        external\n        nonReentrant\n        whenNotPaused\n        isTokenHolder(_tokenId, MARKET_TKN_Address)\n    {\n        //^^^^^^^checks^^^^^^^^^\n\n        ConsignmentTag memory thisTag = tag[_tokenId];\n        delete tag[_tokenId];\n        delete tagFees[_tokenId];\n        MARKET_TKN.tagAdminBurn(_tokenId);\n        //^^^^^^^effects^^^^^^^^^\n\n        foreign721Transfer(\n            thisTag.tokenContract,\n            address(this),\n            _msgSender(),\n            thisTag.tokenId\n        );\n        //^^^^^^^interactions^^^^^^^^^\n    }\n\n    /**\n     * @dev Purchse an item from the consignment contract\n     * @param _tokenId consignment token ID\n     */\n    function purchaseItem(\n        uint256 _tokenId\n    ) external nonReentrant whenNotPaused {\n        uint32 prufNode;\n\n        ConsignmentTag memory thisTag = tag[_tokenId];\n        if (thisTag.tokenContract == A_TKN_Address) {\n            bytes32 idxHash = bytes32(_tokenId);\n            Record memory rec = getRecord(idxHash);\n            prufNode = rec.node;\n        }\n\n        getApproval(\n            thisTag.currency,\n            thisTag.tokenId,\n            thisTag.tokenContract,\n            prufNode,\n            thisTag.node\n        );\n        //^^^^^^^checks^^^^^^^^^\n\n        //collect relevant information for this consignement\n        MarketFees memory theseFees = tagFees[_tokenId];\n        if (theseFees.listingFeePaymentAddress == address(0)) {\n            theseFees.listingFeePaymentAddress = charityAddress;\n        }\n        if (theseFees.saleCommissionPaymentAddress == address(0)) {\n            theseFees.saleCommissionPaymentAddress = charityAddress;\n        }\n\n        //calculate payable amount less commission\n        uint256 commission;\n        if (theseFees.saleCommission > 0) {\n            commission = thisTag.price / theseFees.saleCommission; //amount to go to listing node\n        }\n        uint256 payableAmount = thisTag.price - commission; //amount to go to ticket holder\n\n        //Set the payment address from the tokenholder. if ticket !exist or no address set, set to the charity address.\n        address paymentAddress;\n        if (MARKET_TKN.tokenExists(_tokenId) != 0) {\n            paymentAddress = MARKET_TKN.ownerOf(thisTag.tokenId); //set payment address to the holder of the consignment ticket\n        } else {\n            paymentAddress = charityAddress; // otherwise set payment address to the charity address\n        }\n\n        delete tag[_tokenId]; //delete the consignmentTag struct from the tag mapping\n        //^^^^^^^effects^^^^^^^^^\n\n        //if payment currency is PRUF && wallet is permitted for TAT, Pay in PRF using TAT\n        if (\n            (thisTag.currency == UTIL_TKN_Address) &&\n            (UTIL_TKN.isColdWallet(_msgSender()) == 0)\n        ) {\n            if (payableAmount > 0) {\n                UTIL_TKN.trustedAgentTransfer( //Pay payableAmount using TAT\n                    _msgSender(),\n                    paymentAddress,\n                    payableAmount\n                );\n            }\n            if (commission > 0) {\n                UTIL_TKN.trustedAgentTransfer( //Pay commission using TAT\n                    _msgSender(),\n                    theseFees.saleCommissionPaymentAddress,\n                    commission\n                );\n            }\n            // otherwise Pay using ERC20 allowance\n        } else {\n            if (payableAmount > 0) {\n                foreign20Transfer( //Pay payableAmount using ERC20 allowance\n                    thisTag.currency, //send this erc20\n                    _msgSender(), //from the purchase caller\n                    paymentAddress, //to the payment address\n                    payableAmount //amount of tokens to send\n                );\n            }\n            if (commission > 0) {\n                foreign20Transfer( //Pay commission using ERC20 allowance\n                    thisTag.currency, //send this erc20\n                    _msgSender(), //from the purchase caller\n                    theseFees.saleCommissionPaymentAddress, //to the payment address\n                    commission //amount of tokens to send\n                );\n            }\n        }\n\n        MARKET_TKN.tagAdminBurn(_tokenId); //burn the consignment tag, consignment is over as sale has been completed\n\n        foreign721Transfer( //Deliver token to buyer , PRUF or Foreign\n            thisTag.tokenContract, //using this token contract\n            address(this), //from this address\n            _msgSender(), //to the purchase caller\n            thisTag.tokenId //send this (native) tokenId\n        );\n        //^^^^^^^interactions^^^^^^^^^\n    }\n\n\n    //-------------------------------------------------------------------------\n\n    /**\n     * @dev transfer a foreign token\n     * @param _tokenContract Address of foreign token contract\n     * @param _from origin\n     * @param _to destination\n     * @param _tokenID Token ID to transfer\n     */\n    function foreign721Transfer(\n        address _tokenContract,\n        address _from,\n        address _to,\n        uint256 _tokenID\n    ) internal {\n        IERC721(_tokenContract).safeTransferFrom(_from, _to, _tokenID);\n    }\n\n    /**\n     * @dev transfer a foreign token\n     * @param _tokenContract Address of foreign token contract\n     * @param _from origin\n     * @param _to destination\n     * @param _amount amount to transfer\n     */\n    function foreign20Transfer(\n        address _tokenContract,\n        address _from,\n        address _to,\n        uint256 _amount\n    ) internal {\n        IERC20(_tokenContract).transferFrom(_from, _to, _amount);\n    }\n\n    /**\n     * @dev get consignment approval (reverts if no approval found)\n     * @param _currency ERC20 contract as approved currency\n     * @param _tokenId tokenId or zero if all approved for address / node\n     * @param _ERC721TokenContract contract address\n     * @param _approvedNode node approved by _approvingNode, or zero for all nodes or non-PRF asset\n     * @param _approvingNode node to check approval for\n     */\n    function getApproval(\n        address _currency,\n        uint256 _tokenId,\n        address _ERC721TokenContract,\n        uint32 _approvedNode,\n        uint256 _approvingNode\n    ) public view returns (MarketFees memory) {\n        MarketFees memory theseFees;\n        MarketFees memory finalFees;\n        //------begin decision stack\n\n        //check for approval by contract\n        uint256 approvalByContract;\n        theseFees = approvals[_currency][\n            keccak256(\n                abi.encode(\n                    _tokenId,\n                    _ERC721TokenContract,\n                    _approvedNode,\n                    _approvingNode\n                )\n            )\n        ];\n\n        approvalByContract = theseFees.approval;\n\n        require(\n            approvalByContract != 2,\n            \"M:APPROVE:Asset contract blacklisted!\"\n        );\n\n        if (theseFees.approval == 1) {\n            finalFees = theseFees;\n        }\n\n        // check for approval by node\n        uint256 approvalByNode;\n        theseFees = approvals[_currency][\n            keccak256(\n                abi.encode(\n                    _tokenId,\n                    _ERC721TokenContract,\n                    _approvedNode,\n                    _approvingNode\n                )\n            )\n        ];\n\n        approvalByNode = theseFees.approval;\n\n        require(approvalByNode != 2, \"M:APPROVE:Asset node blacklisted!\");\n\n        if (theseFees.approval == 1) {\n            finalFees = theseFees;\n        }\n\n        //Check for approval by specific token\n\n        uint256 individualApproval = theseFees.approval;\n        theseFees = approvals[_currency][\n            keccak256(\n                abi.encode(\n                    _tokenId,\n                    _ERC721TokenContract,\n                    _approvedNode,\n                    _approvingNode\n                )\n            )\n        ];\n\n        require(individualApproval != 2, \"M:APPROVE:Asset blacklisted!\");\n\n        if (theseFees.approval == 1) {\n            finalFees = theseFees;\n        }\n\n        //--------------------end of decision stack\n\n        require(\n            (individualApproval + approvalByNode + approvalByContract) > 0,\n            \"M:APPROVE:Asset or asset contract / node not approved\"\n        );\n        //^^^^^^^^^^^^^^^CHECKS with minor internal effects^^^^^^^^^^^^^^^\n\n        return (finalFees);\n        //^^^^^^^^^^^^^^^INTERACTIONS^^^^^^^^^^^^^^^\n    }\n}\n",
  "sourcePath": "/Users/drake/Documents/DEV/PRUF/PRUF_TRUFFLE/contracts/InProgress/PRUF_MARKET.sol",
  "compiler": {
    "name": "solc",
    "version": "0.8.7+commit.e28d00a7.Emscripten.clang"
  },
  "schemaVersion": "3.4.3",
  "updatedAt": "2022-04-27T15:21:40.118Z",
  "devdoc": {
    "kind": "dev",
    "methods": {
      "ERC20Transfer(address,address,uint256)": {
        "details": "send an ERC20 token from this contract",
        "params": {
          "_amount": "amount to transfer",
          "_to": "destination",
          "_tokenContract": "Address of foreign token contract"
        }
      },
      "ERC721Transfer(address,address,uint256)": {
        "details": "send an ERC721 token from this contract",
        "params": {
          "_to": "destination",
          "_tokenContract": "Address of foreign token contract",
          "_tokenID": "Token ID"
        }
      },
      "approveForConsignment(address,uint32,uint256,address,uint32,uint256)": {
        "details": "Lets a node submit approval to list items in its marketspace",
        "params": {
          "_ERC721TokenContract": "contract address for token to wrap (A_TKN for PRF)",
          "_approved": "one to approve. zero to unaprove. two to blacklist (valid = 0,1,2)",
          "_currency": "ERC20 contract address to approve",
          "_node": ", node issuing approval",
          "_nodeToApprove": "zero if all pruf nodes (using PRUF A_TKN contract address)",
          "_tokenId": "zero if all from contract / node"
        }
      },
      "consignPrufAsset(uint256,address,uint256,uint32)": {
        "details": "Wraps a pruf asset, takes original from caller (holds it in contract)",
        "params": {
          "_consigningNode": "node doing the consignment",
          "_currency": "currency to make consignment in",
          "_price": "price in _currency to require for transfer",
          "_tokenId": "tokenID of token to wrap"
        }
      },
      "consignToken(uint256,address,address,uint256,uint32,string)": {
        "details": "Wraps a token, takes original from caller (holds it in contract)",
        "params": {
          "_ERC721TokenContract": "contract address for token to wrap",
          "_consigningNode": "node doing the consignment",
          "_currency": "currency to make consignment in",
          "_price": "price in _currency to require for transfer",
          "_tokenId": "tokenID of token to wrap",
          "uri": "string for URI Prerequisite: contract authorized for token txfr Takes original 721"
        }
      },
      "getApproval(address,uint256,address,uint32,uint256)": {
        "details": "get consignment approval (reverts if no approval found)",
        "params": {
          "_ERC721TokenContract": "contract address",
          "_approvedNode": "node approved by _approvingNode, or zero for all nodes or non-PRF asset",
          "_approvingNode": "node to check approval for",
          "_currency": "ERC20 contract as approved currency",
          "_tokenId": "tokenId or zero if all approved for address / node"
        }
      },
      "getRoleAdmin(bytes32)": {
        "details": "Returns the admin role that controls `role`. See {grantRole} and {revokeRole}. To change a role's admin, use {_setRoleAdmin}."
      },
      "grantRole(bytes32,address)": {
        "details": "Grants `role` to `account`. If `account` had not been already granted `role`, emits a {RoleGranted} event. Requirements: - the caller must have ``role``'s admin role."
      },
      "hasRole(bytes32,address)": {
        "details": "Returns `true` if `account` has been granted `role`."
      },
      "onERC721Received(address,address,uint256,bytes)": {
        "details": "Compliance for erc721 reciever See OZ documentation"
      },
      "paused()": {
        "details": "Returns true if the contract is paused, and false otherwise."
      },
      "purchaseItem(uint256)": {
        "details": "Purchse an item from the consignment contract",
        "params": {
          "_tokenId": "consignment token ID"
        }
      },
      "renounceRole(bytes32,address)": {
        "details": "Revokes `role` from the calling account. Roles are often managed via {grantRole} and {revokeRole}: this function's purpose is to provide a mechanism for accounts to lose their privileges if they are compromised (such as when a trusted device is misplaced). If the calling account had been granted `role`, emits a {RoleRevoked} event. Requirements: - the caller must be `account`."
      },
      "resolveContractAddresses()": {
        "details": "Resolve contract addresses from STOR"
      },
      "revokeRole(bytes32,address)": {
        "details": "Revokes `role` from `account`. If `account` had been granted `role`, emits a {RoleRevoked} event. Requirements: - the caller must have ``role``'s admin role."
      },
      "setCharityAddress(address)": {
        "details": "sets the charity donation address",
        "params": {
          "_charityAddress": "charity erc20 address"
        }
      },
      "setMarketTokenAddress(address)": {
        "details": "sets the MARKET_TKN contract address",
        "params": {
          "_address": "MARKET_TKN contract address"
        }
      },
      "setStorageContract(address)": {
        "details": "Set address of STOR contract to interface with",
        "params": {
          "_storageAddress": "address of PRUF_STOR"
        }
      },
      "supportsInterface(bytes4)": {
        "details": "See {IERC165-supportsInterface}."
      },
      "updateConsignment(uint256,address,uint256)": {
        "details": "Updates pricing information for an active consignment",
        "params": {
          "_currency": "currency to make consignment in",
          "_price": "price in _currency to require for transfer",
          "_tokenId": "ID of consignment"
        }
      },
      "withdrawFromConsignment(uint256)": {
        "details": "Unwraps a token, burns the MARKET_TKN, returns consigned token to caller",
        "params": {
          "_tokenId": "tokenID of consignment token being redeemed"
        }
      }
    },
    "version": 1
  },
  "userdoc": {
    "kind": "user",
    "methods": {},
    "version": 1
  }
}