{
  "contractName": "MARKET_TKN",
  "abi": [
    {
      "inputs": [],
      "stateMutability": "nonpayable",
      "type": "constructor"
    },
    {
      "anonymous": false,
      "inputs": [
        {
          "indexed": true,
          "internalType": "address",
          "name": "owner",
          "type": "address"
        },
        {
          "indexed": true,
          "internalType": "address",
          "name": "approved",
          "type": "address"
        },
        {
          "indexed": true,
          "internalType": "uint256",
          "name": "tokenId",
          "type": "uint256"
        }
      ],
      "name": "Approval",
      "type": "event"
    },
    {
      "anonymous": false,
      "inputs": [
        {
          "indexed": true,
          "internalType": "address",
          "name": "owner",
          "type": "address"
        },
        {
          "indexed": true,
          "internalType": "address",
          "name": "operator",
          "type": "address"
        },
        {
          "indexed": false,
          "internalType": "bool",
          "name": "approved",
          "type": "bool"
        }
      ],
      "name": "ApprovalForAll",
      "type": "event"
    },
    {
      "anonymous": false,
      "inputs": [
        {
          "indexed": false,
          "internalType": "address",
          "name": "account",
          "type": "address"
        }
      ],
      "name": "Paused",
      "type": "event"
    },
    {
      "anonymous": false,
      "inputs": [
        {
          "indexed": false,
          "internalType": "string",
          "name": "_msg",
          "type": "string"
        }
      ],
      "name": "REPORT",
      "type": "event"
    },
    {
      "anonymous": false,
      "inputs": [
        {
          "indexed": true,
          "internalType": "bytes32",
          "name": "role",
          "type": "bytes32"
        },
        {
          "indexed": true,
          "internalType": "bytes32",
          "name": "previousAdminRole",
          "type": "bytes32"
        },
        {
          "indexed": true,
          "internalType": "bytes32",
          "name": "newAdminRole",
          "type": "bytes32"
        }
      ],
      "name": "RoleAdminChanged",
      "type": "event"
    },
    {
      "anonymous": false,
      "inputs": [
        {
          "indexed": true,
          "internalType": "bytes32",
          "name": "role",
          "type": "bytes32"
        },
        {
          "indexed": true,
          "internalType": "address",
          "name": "account",
          "type": "address"
        },
        {
          "indexed": true,
          "internalType": "address",
          "name": "sender",
          "type": "address"
        }
      ],
      "name": "RoleGranted",
      "type": "event"
    },
    {
      "anonymous": false,
      "inputs": [
        {
          "indexed": true,
          "internalType": "bytes32",
          "name": "role",
          "type": "bytes32"
        },
        {
          "indexed": true,
          "internalType": "address",
          "name": "account",
          "type": "address"
        },
        {
          "indexed": true,
          "internalType": "address",
          "name": "sender",
          "type": "address"
        }
      ],
      "name": "RoleRevoked",
      "type": "event"
    },
    {
      "anonymous": false,
      "inputs": [
        {
          "indexed": true,
          "internalType": "address",
          "name": "from",
          "type": "address"
        },
        {
          "indexed": true,
          "internalType": "address",
          "name": "to",
          "type": "address"
        },
        {
          "indexed": true,
          "internalType": "uint256",
          "name": "tokenId",
          "type": "uint256"
        }
      ],
      "name": "Transfer",
      "type": "event"
    },
    {
      "anonymous": false,
      "inputs": [
        {
          "indexed": false,
          "internalType": "address",
          "name": "account",
          "type": "address"
        }
      ],
      "name": "Unpaused",
      "type": "event"
    },
    {
      "inputs": [],
      "name": "CONTRACT_ADMIN_ROLE",
      "outputs": [
        {
          "internalType": "bytes32",
          "name": "",
          "type": "bytes32"
        }
      ],
      "stateMutability": "view",
      "type": "function"
    },
    {
      "inputs": [],
      "name": "DEFAULT_ADMIN_ROLE",
      "outputs": [
        {
          "internalType": "bytes32",
          "name": "",
          "type": "bytes32"
        }
      ],
      "stateMutability": "view",
      "type": "function"
    },
    {
      "inputs": [],
      "name": "MINTER_ROLE",
      "outputs": [
        {
          "internalType": "bytes32",
          "name": "",
          "type": "bytes32"
        }
      ],
      "stateMutability": "view",
      "type": "function"
    },
    {
      "inputs": [],
      "name": "PAUSER_ROLE",
      "outputs": [
        {
          "internalType": "bytes32",
          "name": "",
          "type": "bytes32"
        }
      ],
      "stateMutability": "view",
      "type": "function"
    },
    {
      "inputs": [],
      "name": "TAG_ADMIN_ROLE",
      "outputs": [
        {
          "internalType": "bytes32",
          "name": "",
          "type": "bytes32"
        }
      ],
      "stateMutability": "view",
      "type": "function"
    },
    {
      "inputs": [],
      "name": "TRUSTED_AGENT_ROLE",
      "outputs": [
        {
          "internalType": "bytes32",
          "name": "",
          "type": "bytes32"
        }
      ],
      "stateMutability": "view",
      "type": "function"
    },
    {
      "inputs": [
        {
          "internalType": "address",
          "name": "to",
          "type": "address"
        },
        {
          "internalType": "uint256",
          "name": "tokenId",
          "type": "uint256"
        }
      ],
      "name": "approve",
      "outputs": [],
      "stateMutability": "nonpayable",
      "type": "function"
    },
    {
      "inputs": [
        {
          "internalType": "address",
          "name": "owner",
          "type": "address"
        }
      ],
      "name": "balanceOf",
      "outputs": [
        {
          "internalType": "uint256",
          "name": "",
          "type": "uint256"
        }
      ],
      "stateMutability": "view",
      "type": "function"
    },
    {
      "inputs": [
        {
          "internalType": "uint256",
          "name": "tokenId",
          "type": "uint256"
        }
      ],
      "name": "burn",
      "outputs": [],
      "stateMutability": "nonpayable",
      "type": "function"
    },
    {
      "inputs": [
        {
          "internalType": "uint256",
          "name": "tokenId",
          "type": "uint256"
        }
      ],
      "name": "getApproved",
      "outputs": [
        {
          "internalType": "address",
          "name": "",
          "type": "address"
        }
      ],
      "stateMutability": "view",
      "type": "function"
    },
    {
      "inputs": [
        {
          "internalType": "bytes32",
          "name": "role",
          "type": "bytes32"
        }
      ],
      "name": "getRoleAdmin",
      "outputs": [
        {
          "internalType": "bytes32",
          "name": "",
          "type": "bytes32"
        }
      ],
      "stateMutability": "view",
      "type": "function"
    },
    {
      "inputs": [
        {
          "internalType": "bytes32",
          "name": "role",
          "type": "bytes32"
        },
        {
          "internalType": "uint256",
          "name": "index",
          "type": "uint256"
        }
      ],
      "name": "getRoleMember",
      "outputs": [
        {
          "internalType": "address",
          "name": "",
          "type": "address"
        }
      ],
      "stateMutability": "view",
      "type": "function"
    },
    {
      "inputs": [
        {
          "internalType": "bytes32",
          "name": "role",
          "type": "bytes32"
        }
      ],
      "name": "getRoleMemberCount",
      "outputs": [
        {
          "internalType": "uint256",
          "name": "",
          "type": "uint256"
        }
      ],
      "stateMutability": "view",
      "type": "function"
    },
    {
      "inputs": [
        {
          "internalType": "bytes32",
          "name": "role",
          "type": "bytes32"
        },
        {
          "internalType": "address",
          "name": "account",
          "type": "address"
        }
      ],
      "name": "grantRole",
      "outputs": [],
      "stateMutability": "nonpayable",
      "type": "function"
    },
    {
      "inputs": [
        {
          "internalType": "bytes32",
          "name": "role",
          "type": "bytes32"
        },
        {
          "internalType": "address",
          "name": "account",
          "type": "address"
        }
      ],
      "name": "hasRole",
      "outputs": [
        {
          "internalType": "bool",
          "name": "",
          "type": "bool"
        }
      ],
      "stateMutability": "view",
      "type": "function"
    },
    {
      "inputs": [
        {
          "internalType": "address",
          "name": "owner",
          "type": "address"
        },
        {
          "internalType": "address",
          "name": "operator",
          "type": "address"
        }
      ],
      "name": "isApprovedForAll",
      "outputs": [
        {
          "internalType": "bool",
          "name": "",
          "type": "bool"
        }
      ],
      "stateMutability": "view",
      "type": "function"
    },
    {
      "inputs": [],
      "name": "name",
      "outputs": [
        {
          "internalType": "string",
          "name": "",
          "type": "string"
        }
      ],
      "stateMutability": "view",
      "type": "function"
    },
    {
      "inputs": [
        {
          "internalType": "uint256",
          "name": "tokenId",
          "type": "uint256"
        }
      ],
      "name": "ownerOf",
      "outputs": [
        {
          "internalType": "address",
          "name": "",
          "type": "address"
        }
      ],
      "stateMutability": "view",
      "type": "function"
    },
    {
      "inputs": [],
      "name": "paused",
      "outputs": [
        {
          "internalType": "bool",
          "name": "",
          "type": "bool"
        }
      ],
      "stateMutability": "view",
      "type": "function"
    },
    {
      "inputs": [
        {
          "internalType": "bytes32",
          "name": "role",
          "type": "bytes32"
        },
        {
          "internalType": "address",
          "name": "account",
          "type": "address"
        }
      ],
      "name": "renounceRole",
      "outputs": [],
      "stateMutability": "nonpayable",
      "type": "function"
    },
    {
      "inputs": [
        {
          "internalType": "bytes32",
          "name": "role",
          "type": "bytes32"
        },
        {
          "internalType": "address",
          "name": "account",
          "type": "address"
        }
      ],
      "name": "revokeRole",
      "outputs": [],
      "stateMutability": "nonpayable",
      "type": "function"
    },
    {
      "inputs": [
        {
          "internalType": "address",
          "name": "from",
          "type": "address"
        },
        {
          "internalType": "address",
          "name": "to",
          "type": "address"
        },
        {
          "internalType": "uint256",
          "name": "tokenId",
          "type": "uint256"
        }
      ],
      "name": "safeTransferFrom",
      "outputs": [],
      "stateMutability": "nonpayable",
      "type": "function"
    },
    {
      "inputs": [
        {
          "internalType": "address",
          "name": "from",
          "type": "address"
        },
        {
          "internalType": "address",
          "name": "to",
          "type": "address"
        },
        {
          "internalType": "uint256",
          "name": "tokenId",
          "type": "uint256"
        },
        {
          "internalType": "bytes",
          "name": "_data",
          "type": "bytes"
        }
      ],
      "name": "safeTransferFrom",
      "outputs": [],
      "stateMutability": "nonpayable",
      "type": "function"
    },
    {
      "inputs": [
        {
          "internalType": "address",
          "name": "operator",
          "type": "address"
        },
        {
          "internalType": "bool",
          "name": "approved",
          "type": "bool"
        }
      ],
      "name": "setApprovalForAll",
      "outputs": [],
      "stateMutability": "nonpayable",
      "type": "function"
    },
    {
      "inputs": [],
      "name": "symbol",
      "outputs": [
        {
          "internalType": "string",
          "name": "",
          "type": "string"
        }
      ],
      "stateMutability": "view",
      "type": "function"
    },
    {
      "inputs": [
        {
          "internalType": "uint256",
          "name": "index",
          "type": "uint256"
        }
      ],
      "name": "tokenByIndex",
      "outputs": [
        {
          "internalType": "uint256",
          "name": "",
          "type": "uint256"
        }
      ],
      "stateMutability": "view",
      "type": "function"
    },
    {
      "inputs": [
        {
          "internalType": "address",
          "name": "owner",
          "type": "address"
        },
        {
          "internalType": "uint256",
          "name": "index",
          "type": "uint256"
        }
      ],
      "name": "tokenOfOwnerByIndex",
      "outputs": [
        {
          "internalType": "uint256",
          "name": "",
          "type": "uint256"
        }
      ],
      "stateMutability": "view",
      "type": "function"
    },
    {
      "inputs": [],
      "name": "totalSupply",
      "outputs": [
        {
          "internalType": "uint256",
          "name": "",
          "type": "uint256"
        }
      ],
      "stateMutability": "view",
      "type": "function"
    },
    {
      "inputs": [
        {
          "internalType": "address",
          "name": "from",
          "type": "address"
        },
        {
          "internalType": "address",
          "name": "to",
          "type": "address"
        },
        {
          "internalType": "uint256",
          "name": "tokenId",
          "type": "uint256"
        }
      ],
      "name": "transferFrom",
      "outputs": [],
      "stateMutability": "nonpayable",
      "type": "function"
    },
    {
      "inputs": [
        {
          "internalType": "address",
          "name": "_recipientAddress",
          "type": "address"
        },
        {
          "internalType": "uint256",
          "name": "_tokenId",
          "type": "uint256"
        },
        {
          "internalType": "string",
          "name": "_tokenURI",
          "type": "string"
        }
      ],
      "name": "mintConsignmentToken",
      "outputs": [
        {
          "internalType": "uint256",
          "name": "",
          "type": "uint256"
        }
      ],
      "stateMutability": "nonpayable",
      "type": "function"
    },
    {
      "inputs": [
        {
          "internalType": "uint256",
          "name": "_tokenId",
          "type": "uint256"
        },
        {
          "internalType": "string",
          "name": "_tokenURI",
          "type": "string"
        }
      ],
      "name": "setURI",
      "outputs": [
        {
          "internalType": "uint256",
          "name": "",
          "type": "uint256"
        }
      ],
      "stateMutability": "nonpayable",
      "type": "function"
    },
    {
      "inputs": [
        {
          "internalType": "uint256",
          "name": "_tokenId",
          "type": "uint256"
        }
      ],
      "name": "tokenExists",
      "outputs": [
        {
          "internalType": "uint256",
          "name": "",
          "type": "uint256"
        }
      ],
      "stateMutability": "view",
      "type": "function"
    },
    {
      "inputs": [
        {
          "internalType": "uint256",
          "name": "_tokenId",
          "type": "uint256"
        }
      ],
      "name": "trustedAgentBurn",
      "outputs": [],
      "stateMutability": "nonpayable",
      "type": "function"
    },
    {
      "inputs": [
        {
          "internalType": "uint256",
          "name": "_tokenId",
          "type": "uint256"
        }
      ],
      "name": "tokenURI",
      "outputs": [
        {
          "internalType": "string",
          "name": "",
          "type": "string"
        }
      ],
      "stateMutability": "view",
      "type": "function"
    },
    {
      "inputs": [],
      "name": "pause",
      "outputs": [],
      "stateMutability": "nonpayable",
      "type": "function"
    },
    {
      "inputs": [],
      "name": "unpause",
      "outputs": [],
      "stateMutability": "nonpayable",
      "type": "function"
    },
    {
      "inputs": [
        {
          "internalType": "bytes4",
          "name": "interfaceId",
          "type": "bytes4"
        }
      ],
      "name": "supportsInterface",
      "outputs": [
        {
          "internalType": "bool",
          "name": "",
          "type": "bool"
        }
      ],
      "stateMutability": "view",
      "type": "function"
    }
  ],
  "bytecode": "0x608060405260016011553480156200001657600080fd5b50604080518082018252601681527f5052554620436f6e7369676e6d656e7420546f6b656e00000000000000000000602080830191825283518085019094526004845263141490d560e21b90840152600160005581519192916200007d9160039162000258565b5080516200009390600490602084019062000258565b5050600d805460ff1916905550620000ad6000336200010b565b620000d97f2ce8d04a9c35987429af538825cd2438cc5c5bb5dc427955f84daaa3ea105016336200010b565b620001057f65d7a28e3265b37a6474929f336521b332c1681b933f6cb9f3376673440d862a336200010b565b6200033b565b6200012282826200014e60201b620012d51760201c565b600082815260026020908152604090912062000149918390620012e36200015e821b17901c565b505050565b6200015a82826200017e565b5050565b600062000175836001600160a01b03841662000206565b90505b92915050565b60008281526001602090815260408083206001600160a01b038516845290915290205460ff166200015a5760008281526001602081815260408084206001600160a01b0386168086529252808420805460ff19169093179092559051339285917f2f8788117e7eff1d82e926ec794901d17c78024a50270940304540a733656f0d9190a45050565b60008181526001830160205260408120546200024f5750815460018181018455600084815260208082209093018490558454848252828601909352604090209190915562000178565b50600062000178565b8280546200026690620002fe565b90600052602060002090601f0160209004810192826200028a5760008555620002d5565b82601f10620002a557805160ff1916838001178555620002d5565b82800160010185558215620002d5579182015b82811115620002d5578251825591602001919060010190620002b8565b50620002e3929150620002e7565b5090565b5b80821115620002e35760008155600101620002e8565b600181811c908216806200031357607f821691505b602082108114156200033557634e487b7160e01b600052602260045260246000fd5b50919050565b612db1806200034b6000396000f3fe608060405234801561001057600080fd5b50600436106102265760003560e01c80636352211e11610130578063a217fddf116100b8578063d0ad09781161007c578063d0ad0978146104d8578063d5391393146104eb578063d547741f14610512578063e63ab1e914610525578063e985e9c51461054c57600080fd5b8063a217fddf14610484578063a22cb4651461048c578063b88d4fde1461049f578063c87b56dd146104b2578063ca15c873146104c557600080fd5b80639010d07c116100ff5780639010d07c1461040857806391d148541461041b578063946802b91461042e57806395d89b4114610455578063992a71761461045d57600080fd5b80636352211e146103c757806370a08231146103da5780638456cb59146103ed578063862440e2146103f557600080fd5b8063248a9ca3116101b35780633f4ba83a116101825780633f4ba83a1461037b57806342842e0e1461038357806342966c68146103965780634f6ccce7146103a95780635c975abb146103bc57600080fd5b8063248a9ca31461031e5780632f2ff15d146103425780632f745c591461035557806336568abe1461036857600080fd5b8063095ea7b3116101fa578063095ea7b3146102b4578063126c9580146102c957806318160ddd146102dc5780631da03312146102e457806323b872dd1461030b57600080fd5b8062923f9e1461022b57806301ffc9a71461025157806306fdde0314610274578063081812fc14610289575b600080fd5b61023e610239366004612941565b610588565b6040519081526020015b60405180910390f35b61026461025f36600461299f565b6105ad565b6040519015158152602001610248565b61027c6105be565b6040516102489190612b32565b61029c610297366004612941565b610650565b6040516001600160a01b039091168152602001610248565b6102c76102c23660046128bd565b6106dd565b005b61023e6102d73660046128e7565b6107f3565b600b5461023e565b61023e7f2ce8d04a9c35987429af538825cd2438cc5c5bb5dc427955f84daaa3ea10501681565b6102c7610319366004612769565b610938565b61023e61032c366004612941565b6000908152600160208190526040909120015490565b6102c761035036600461295a565b61096a565b61023e6103633660046128bd565b61098c565b6102c761037636600461295a565b610a22565b6102c7610a44565b6102c7610391366004612769565b610ac4565b6102c76103a4366004612941565b610adf565b61023e6103b7366004612941565b610b59565b600d5460ff16610264565b61029c6103d5366004612941565b610bec565b61023e6103e836600461271b565b610c63565b6102c7610cea565b61023e6104033660046129d9565b610d68565b61029c61041636600461297d565b610e13565b61026461042936600461295a565b610e32565b61023e7f2acafe12098b51e08c15ac2c544135fb348d479d1fdf7c75f82eba7ea83508be81565b61027c610e5d565b61023e7feeed90ae47cd1f23b88ce446295f1ca23c5e4f5b894addbe83563fd27494e29481565b61023e600081565b6102c761049a366004612881565b610e6c565b6102c76104ad3660046127a5565b610f31565b61027c6104c0366004612941565b610f69565b61023e6104d3366004612941565b6110d3565b6102c76104e6366004612941565b6110ea565b61023e7f9f2df0fed2c77648de5860a4cc508cd0818c85b8b8a1ab4ceeef8d981c8956a681565b6102c761052036600461295a565b6112cb565b61023e7f65d7a28e3265b37a6474929f336521b332c1681b933f6cb9f3376673440d862a81565b61026461055a366004612736565b6001600160a01b03918216600090815260086020908152604080832093909416825291909152205460ff1690565b6000610593826112f8565b156105a0575060aa919050565b506000919050565b919050565b60006105b882611315565b92915050565b6060600380546105cd90612c8d565b80601f01602080910402602001604051908101604052809291908181526020018280546105f990612c8d565b80156106465780601f1061061b57610100808354040283529160200191610646565b820191906000526020600020905b81548152906001019060200180831161062957829003601f168201915b5050505050905090565b600061065b826112f8565b6106c15760405162461bcd60e51b815260206004820152602c60248201527f4552433732313a20617070726f76656420717565727920666f72206e6f6e657860448201526b34b9ba32b73a103a37b5b2b760a11b60648201526084015b60405180910390fd5b506000908152600760205260409020546001600160a01b031690565b60006106e882610bec565b9050806001600160a01b0316836001600160a01b031614156107565760405162461bcd60e51b815260206004820152602160248201527f4552433732313a20617070726f76616c20746f2063757272656e74206f776e656044820152603960f91b60648201526084016106b8565b336001600160a01b03821614806107725750610772813361055a565b6107e45760405162461bcd60e51b815260206004820152603860248201527f4552433732313a20617070726f76652063616c6c6572206973206e6f74206f7760448201527f6e6572206e6f7220617070726f76656420666f7220616c6c000000000000000060648201526084016106b8565b6107ee838361133a565b505050565b600061081f7f9f2df0fed2c77648de5860a4cc508cd0818c85b8b8a1ab4ceeef8d981c8956a633610e32565b6108895760405162461bcd60e51b815260206004820152603560248201527f41543a4d4f442d494d3a43616c6c696e67206164647265737320646f6573206e60448201527437ba103132b637b733903a3790309036b4b73a32b960591b60648201526084016106b8565b600260005414156108dc5760405162461bcd60e51b815260206004820152601f60248201527f5265656e7472616e637947756172643a207265656e7472616e742063616c6c0060448201526064016106b8565b60026000556108eb85856113a8565b61092b8484848080601f0160208091040260200160405190810160405280939291908181526020018383808284376000920191909152506113c292505050565b5050600160005550919050565b610943335b8261144d565b61095f5760405162461bcd60e51b81526004016106b890612b97565b6107ee838383611533565b61097482826116de565b60008281526002602052604090206107ee90826112e3565b600061099783610c63565b82106109f95760405162461bcd60e51b815260206004820152602b60248201527f455243373231456e756d657261626c653a206f776e657220696e646578206f7560448201526a74206f6620626f756e647360a81b60648201526084016106b8565b506001600160a01b03919091166000908152600960209081526040808320938352929052205490565b610a2c8282611705565b60008281526002602052604090206107ee908261177f565b610a6e7f65d7a28e3265b37a6474929f336521b332c1681b933f6cb9f3376673440d862a33610e32565b610aba5760405162461bcd60e51b815260206004820152601e60248201527f413a55503a2043616c6c65722021686176652070617573657220726f6c65000060448201526064016106b8565b610ac2611794565b565b6107ee83838360405180602001604052806000815250610f31565b610ae83361093d565b610b4d5760405162461bcd60e51b815260206004820152603060248201527f4552433732314275726e61626c653a2063616c6c6572206973206e6f74206f7760448201526f1b995c881b9bdc88185c1c1c9bdd995960821b60648201526084016106b8565b610b5681611827565b50565b6000610b64600b5490565b8210610bc75760405162461bcd60e51b815260206004820152602c60248201527f455243373231456e756d657261626c653a20676c6f62616c20696e646578206f60448201526b7574206f6620626f756e647360a01b60648201526084016106b8565b600b8281548110610bda57610bda612d39565b90600052602060002001549050919050565b6000818152600560205260408120546001600160a01b0316806105b85760405162461bcd60e51b815260206004820152602960248201527f4552433732313a206f776e657220717565727920666f72206e6f6e657869737460448201526832b73a103a37b5b2b760b91b60648201526084016106b8565b60006001600160a01b038216610cce5760405162461bcd60e51b815260206004820152602a60248201527f4552433732313a2062616c616e636520717565727920666f7220746865207a65604482015269726f206164647265737360b01b60648201526084016106b8565b506001600160a01b031660009081526006602052604090205490565b610d147f65d7a28e3265b37a6474929f336521b332c1681b933f6cb9f3376673440d862a33610e32565b610d605760405162461bcd60e51b815260206004820152601d60248201527f413a503a2043616c6c65722021686176652070617573657220726f6c6500000060448201526064016106b8565b610ac2611867565b6000610d74338561144d565b610dcb5760405162461bcd60e51b815260206004820152602260248201527f41543a535552493a43616c6c657220216f776e6572206e6f7220617070726f76604482015261195960f21b60648201526084016106b8565b610e0b8484848080601f0160208091040260200160405190810160405280939291908181526020018383808284376000920191909152506113c292505050565b509192915050565b6000828152600260205260408120610e2b90836118e2565b9392505050565b60009182526001602090815260408084206001600160a01b0393909316845291905290205460ff1690565b6060600480546105cd90612c8d565b6001600160a01b038216331415610ec55760405162461bcd60e51b815260206004820152601960248201527f4552433732313a20617070726f766520746f2063616c6c65720000000000000060448201526064016106b8565b3360008181526008602090815260408083206001600160a01b03871680855290835292819020805460ff191686151590811790915590519081529192917f17307eab39ab6107e8899845ad3d59bd9653f200f220920489ca2b5937696c31910160405180910390a35050565b610f3b338361144d565b610f575760405162461bcd60e51b81526004016106b890612b97565b610f63848484846118ee565b50505050565b6060610f74826112f8565b610fda5760405162461bcd60e51b815260206004820152603160248201527f45524337323155524953746f726167653a2055524920717565727920666f72206044820152703737b732bc34b9ba32b73a103a37b5b2b760791b60648201526084016106b8565b6000828152600e602052604081208054610ff390612c8d565b80601f016020809104026020016040519081016040528092919081815260200182805461101f90612c8d565b801561106c5780601f106110415761010080835404028352916020019161106c565b820191906000526020600020905b81548152906001019060200180831161104f57829003601f168201915b50505050509050600061107d611921565b9050805160001415611090575092915050565b8151156110c25780826040516020016110aa929190612a51565b60405160208183030381529060405292505050919050565b6110cb84611930565b949350505050565b60008181526002602052604081206105b8906119fa565b6002600054141561113d5760405162461bcd60e51b815260206004820152601f60248201527f5265656e7472616e637947756172643a207265656e7472616e742063616c6c0060448201526064016106b8565b6002600055600d5460ff16156111885760405162461bcd60e51b815260206004820152601060248201526f14185d5cd8589b194e881c185d5cd95960821b60448201526064016106b8565b6111b27feeed90ae47cd1f23b88ce446295f1ca23c5e4f5b894addbe83563fd27494e29433610e32565b61120e5760405162461bcd60e51b815260206004820152602760248201527f41543a4d4f442d4954413a4d757374206861766520545255535445445f4147456044820152664e545f524f4c4560c81b60648201526084016106b8565b6011546001146112ac5760405162461bcd60e51b815260206004820152605d60248201527f41543a4d4f442d4954413a54727573746564204167656e742066756e6374696f60448201527f6e207065726d616e656e746c792064697361626c6564202d2075736520616c6c60648201527f6f77616e6365202f207472616e7366657246726f6d207061747465726e000000608482015260a4016106b8565b6112b5816112f8565b156112c3576112c381611827565b506001600055565b610a2c8282611a04565b6112df8282611a2b565b5050565b6000610e2b836001600160a01b038416611a96565b6000908152600560205260409020546001600160a01b0316151590565b60006001600160e01b0319821663780e9d6360e01b14806105b857506105b882611ae5565b600081815260076020526040902080546001600160a01b0319166001600160a01b038416908117909155819061136f82610bec565b6001600160a01b03167f8c5be1e5ebec7d5bd14f71427d1e84f3dd0314c0f7b2291e5b200ac8c7c3b92560405160405180910390a45050565b6112df828260405180602001604052806000815250611b25565b6113cb826112f8565b61142e5760405162461bcd60e51b815260206004820152602e60248201527f45524337323155524953746f726167653a2055524920736574206f66206e6f6e60448201526d32bc34b9ba32b73a103a37b5b2b760911b60648201526084016106b8565b6000828152600e6020908152604090912082516107ee928401906125ec565b6000611458826112f8565b6114b95760405162461bcd60e51b815260206004820152602c60248201527f4552433732313a206f70657261746f7220717565727920666f72206e6f6e657860448201526b34b9ba32b73a103a37b5b2b760a11b60648201526084016106b8565b60006114c483610bec565b9050806001600160a01b0316846001600160a01b031614806114ff5750836001600160a01b03166114f484610650565b6001600160a01b0316145b806110cb57506001600160a01b0380821660009081526008602090815260408083209388168352929052205460ff166110cb565b826001600160a01b031661154682610bec565b6001600160a01b0316146115ae5760405162461bcd60e51b815260206004820152602960248201527f4552433732313a207472616e73666572206f6620746f6b656e2074686174206960448201526839903737ba1037bbb760b91b60648201526084016106b8565b6001600160a01b0382166116105760405162461bcd60e51b8152602060048201526024808201527f4552433732313a207472616e7366657220746f20746865207a65726f206164646044820152637265737360e01b60648201526084016106b8565b61161b838383611b58565b61162660008261133a565b6001600160a01b038316600090815260066020526040812080546001929061164f908490612c33565b90915550506001600160a01b038216600090815260066020526040812080546001929061167d908490612be8565b909155505060008181526005602052604080822080546001600160a01b0319166001600160a01b0386811691821790925591518493918716917fddf252ad1be2c89b69c2b068fc378daa952ba7f163c4a11628f55a4df523b3ef91a4505050565b600082815260016020819052604090912001546116fb8133611b63565b6107ee8383611a2b565b6001600160a01b03811633146117755760405162461bcd60e51b815260206004820152602f60248201527f416363657373436f6e74726f6c3a2063616e206f6e6c792072656e6f756e636560448201526e103937b632b9903337b91039b2b63360891b60648201526084016106b8565b6112df8282611bc7565b6000610e2b836001600160a01b038416611c2e565b600d5460ff166117dd5760405162461bcd60e51b815260206004820152601460248201527314185d5cd8589b194e881b9bdd081c185d5cd95960621b60448201526064016106b8565b600d805460ff191690557f5db9ee0a495bf2e6ff9c91a7834c1ba4fdd244a5e8aa4e537bd38aeae4b073aa335b6040516001600160a01b03909116815260200160405180910390a1565b61183081611d21565b6000818152600e60205260409020805461184990612c8d565b159050610b56576000818152600e60205260408120610b5691612670565b600d5460ff16156118ad5760405162461bcd60e51b815260206004820152601060248201526f14185d5cd8589b194e881c185d5cd95960821b60448201526064016106b8565b600d805460ff191660011790557f62e78cea01bee320cd4e420270b5ea74000d11b0c9f74754ebdbfc544b05a25861180a3390565b6000610e2b8383611dc8565b6118f9848484611533565b61190584848484611df2565b610f635760405162461bcd60e51b81526004016106b890612b45565b6060601080546105cd90612c8d565b606061193b826112f8565b61199f5760405162461bcd60e51b815260206004820152602f60248201527f4552433732314d657461646174613a2055524920717565727920666f72206e6f60448201526e3732bc34b9ba32b73a103a37b5b2b760891b60648201526084016106b8565b60006119a9611921565b905060008151116119c95760405180602001604052806000815250610e2b565b806119d384611eff565b6040516020016119e4929190612a51565b6040516020818303038152906040529392505050565b60006105b8825490565b60008281526001602081905260409091200154611a218133611b63565b6107ee8383611bc7565b611a358282610e32565b6112df5760008281526001602081815260408084206001600160a01b0386168086529252808420805460ff19169093179092559051339285917f2f8788117e7eff1d82e926ec794901d17c78024a50270940304540a733656f0d9190a45050565b6000818152600183016020526040812054611add575081546001818101845560008481526020808220909301849055845484825282860190935260409020919091556105b8565b5060006105b8565b60006001600160e01b031982166380ac58cd60e01b1480611b1657506001600160e01b03198216635b5e139f60e01b145b806105b857506105b882611ffd565b611b2f8383612022565b611b3c6000848484611df2565b6107ee5760405162461bcd60e51b81526004016106b890612b45565b6107ee838383612161565b611b6d8282610e32565b6112df57611b85816001600160a01b031660146121d3565b611b908360206121d3565b604051602001611ba1929190612a80565b60408051601f198184030181529082905262461bcd60e51b82526106b891600401612b32565b611bd18282610e32565b156112df5760008281526001602090815260408083206001600160a01b0385168085529252808320805460ff1916905551339285917ff6391f5c32d9c69d2a47ea670b442974b53935d1edc7fd64eb21e047a839171b9190a45050565b60008181526001830160205260408120548015611d17576000611c52600183612c33565b8554909150600090611c6690600190612c33565b9050818114611ccb576000866000018281548110611c8657611c86612d39565b9060005260206000200154905080876000018481548110611ca957611ca9612d39565b6000918252602080832090910192909255918252600188019052604090208390555b8554869080611cdc57611cdc612d23565b6001900381819060005260206000200160009055905585600101600086815260200190815260200160002060009055600193505050506105b8565b60009150506105b8565b6000611d2c82610bec565b9050611d3a81600084611b58565b611d4560008361133a565b6001600160a01b0381166000908152600660205260408120805460019290611d6e908490612c33565b909155505060008281526005602052604080822080546001600160a01b0319169055518391906001600160a01b038416907fddf252ad1be2c89b69c2b068fc378daa952ba7f163c4a11628f55a4df523b3ef908390a45050565b6000826000018281548110611ddf57611ddf612d39565b9060005260206000200154905092915050565b60006001600160a01b0384163b15611ef457604051630a85bd0160e11b81526001600160a01b0385169063150b7a0290611e36903390899088908890600401612af5565b602060405180830381600087803b158015611e5057600080fd5b505af1925050508015611e80575060408051601f3d908101601f19168201909252611e7d918101906129bc565b60015b611eda573d808015611eae576040519150601f19603f3d011682016040523d82523d6000602084013e611eb3565b606091505b508051611ed25760405162461bcd60e51b81526004016106b890612b45565b805181602001fd5b6001600160e01b031916630a85bd0160e11b1490506110cb565b506001949350505050565b606081611f235750506040805180820190915260018152600360fc1b602082015290565b8160005b8115611f4d5780611f3781612cc8565b9150611f469050600a83612c00565b9150611f27565b60008167ffffffffffffffff811115611f6857611f68612d4f565b6040519080825280601f01601f191660200182016040528015611f92576020820181803683370190505b5090505b84156110cb57611fa7600183612c33565b9150611fb4600a86612ce3565b611fbf906030612be8565b60f81b818381518110611fd457611fd4612d39565b60200101906001600160f81b031916908160001a905350611ff6600a86612c00565b9450611f96565b60006001600160e01b03198216635a05180f60e01b14806105b857506105b88261236f565b6001600160a01b0382166120785760405162461bcd60e51b815260206004820181905260248201527f4552433732313a206d696e7420746f20746865207a65726f206164647265737360448201526064016106b8565b612081816112f8565b156120ce5760405162461bcd60e51b815260206004820152601c60248201527f4552433732313a20746f6b656e20616c7265616479206d696e7465640000000060448201526064016106b8565b6120da60008383611b58565b6001600160a01b0382166000908152600660205260408120805460019290612103908490612be8565b909155505060008181526005602052604080822080546001600160a01b0319166001600160a01b03861690811790915590518392907fddf252ad1be2c89b69c2b068fc378daa952ba7f163c4a11628f55a4df523b3ef908290a45050565b61216c8383836123a4565b600d5460ff16156107ee5760405162461bcd60e51b815260206004820152602b60248201527f4552433732315061757361626c653a20746f6b656e207472616e73666572207760448201526a1a1a5b19481c185d5cd95960aa1b60648201526084016106b8565b606060006121e2836002612c14565b6121ed906002612be8565b67ffffffffffffffff81111561220557612205612d4f565b6040519080825280601f01601f19166020018201604052801561222f576020820181803683370190505b509050600360fc1b8160008151811061224a5761224a612d39565b60200101906001600160f81b031916908160001a905350600f60fb1b8160018151811061227957612279612d39565b60200101906001600160f81b031916908160001a905350600061229d846002612c14565b6122a8906001612be8565b90505b6001811115612320576f181899199a1a9b1b9c1cb0b131b232b360811b85600f16601081106122dc576122dc612d39565b1a60f81b8282815181106122f2576122f2612d39565b60200101906001600160f81b031916908160001a90535060049490941c9361231981612c76565b90506122ab565b508315610e2b5760405162461bcd60e51b815260206004820181905260248201527f537472696e67733a20686578206c656e67746820696e73756666696369656e7460448201526064016106b8565b60006001600160e01b03198216637965db0b60e01b14806105b857506301ffc9a760e01b6001600160e01b03198316146105b8565b6001600160a01b0383166123ff576123fa81600b80546000838152600c60205260408120829055600182018355919091527f0175b7a638427703f0dbe7bb9bbf987a2551717b34e79f33b5b1008d1fa01db90155565b612422565b816001600160a01b0316836001600160a01b03161461242257612422838261245c565b6001600160a01b038216612439576107ee816124f9565b826001600160a01b0316826001600160a01b0316146107ee576107ee82826125a8565b6000600161246984610c63565b6124739190612c33565b6000838152600a60205260409020549091508082146124c6576001600160a01b03841660009081526009602090815260408083208584528252808320548484528184208190558352600a90915290208190555b506000918252600a602090815260408084208490556001600160a01b039094168352600981528383209183525290812055565b600b5460009061250b90600190612c33565b6000838152600c6020526040812054600b805493945090928490811061253357612533612d39565b9060005260206000200154905080600b838154811061255457612554612d39565b6000918252602080832090910192909255828152600c9091526040808220849055858252812055600b80548061258c5761258c612d23565b6001900381819060005260206000200160009055905550505050565b60006125b383610c63565b6001600160a01b0390931660009081526009602090815260408083208684528252808320859055938252600a9052919091209190915550565b8280546125f890612c8d565b90600052602060002090601f01602090048101928261261a5760008555612660565b82601f1061263357805160ff1916838001178555612660565b82800160010185558215612660579182015b82811115612660578251825591602001919060010190612645565b5061266c9291506126a6565b5090565b50805461267c90612c8d565b6000825580601f1061268c575050565b601f016020900490600052602060002090810190610b5691905b5b8082111561266c57600081556001016126a7565b80356001600160a01b03811681146105a857600080fd5b60008083601f8401126126e457600080fd5b50813567ffffffffffffffff8111156126fc57600080fd5b60208301915083602082850101111561271457600080fd5b9250929050565b60006020828403121561272d57600080fd5b610e2b826126bb565b6000806040838503121561274957600080fd5b612752836126bb565b9150612760602084016126bb565b90509250929050565b60008060006060848603121561277e57600080fd5b612787846126bb565b9250612795602085016126bb565b9150604084013590509250925092565b600080600080608085870312156127bb57600080fd5b6127c4856126bb565b93506127d2602086016126bb565b925060408501359150606085013567ffffffffffffffff808211156127f657600080fd5b818701915087601f83011261280a57600080fd5b81358181111561281c5761281c612d4f565b604051601f8201601f19908116603f0116810190838211818310171561284457612844612d4f565b816040528281528a602084870101111561285d57600080fd5b82602086016020830137600060208483010152809550505050505092959194509250565b6000806040838503121561289457600080fd5b61289d836126bb565b9150602083013580151581146128b257600080fd5b809150509250929050565b600080604083850312156128d057600080fd5b6128d9836126bb565b946020939093013593505050565b600080600080606085870312156128fd57600080fd5b612906856126bb565b935060208501359250604085013567ffffffffffffffff81111561292957600080fd5b612935878288016126d2565b95989497509550505050565b60006020828403121561295357600080fd5b5035919050565b6000806040838503121561296d57600080fd5b82359150612760602084016126bb565b6000806040838503121561299057600080fd5b50508035926020909101359150565b6000602082840312156129b157600080fd5b8135610e2b81612d65565b6000602082840312156129ce57600080fd5b8151610e2b81612d65565b6000806000604084860312156129ee57600080fd5b83359250602084013567ffffffffffffffff811115612a0c57600080fd5b612a18868287016126d2565b9497909650939450505050565b60008151808452612a3d816020860160208601612c4a565b601f01601f19169290920160200192915050565b60008351612a63818460208801612c4a565b835190830190612a77818360208801612c4a565b01949350505050565b7f416363657373436f6e74726f6c3a206163636f756e7420000000000000000000815260008351612ab8816017850160208801612c4a565b7001034b99036b4b9b9b4b733903937b6329607d1b6017918401918201528351612ae9816028840160208801612c4a565b01602801949350505050565b6001600160a01b0385811682528416602082015260408101839052608060608201819052600090612b2890830184612a25565b9695505050505050565b602081526000610e2b6020830184612a25565b60208082526032908201527f4552433732313a207472616e7366657220746f206e6f6e20455243373231526560408201527131b2b4bb32b91034b6b83632b6b2b73a32b960711b606082015260800190565b60208082526031908201527f4552433732313a207472616e736665722063616c6c6572206973206e6f74206f6040820152701ddb995c881b9bdc88185c1c1c9bdd9959607a1b606082015260800190565b60008219821115612bfb57612bfb612cf7565b500190565b600082612c0f57612c0f612d0d565b500490565b6000816000190483118215151615612c2e57612c2e612cf7565b500290565b600082821015612c4557612c45612cf7565b500390565b60005b83811015612c65578181015183820152602001612c4d565b83811115610f635750506000910152565b600081612c8557612c85612cf7565b506000190190565b600181811c90821680612ca157607f821691505b60208210811415612cc257634e487b7160e01b600052602260045260246000fd5b50919050565b6000600019821415612cdc57612cdc612cf7565b5060010190565b600082612cf257612cf2612d0d565b500690565b634e487b7160e01b600052601160045260246000fd5b634e487b7160e01b600052601260045260246000fd5b634e487b7160e01b600052603160045260246000fd5b634e487b7160e01b600052603260045260246000fd5b634e487b7160e01b600052604160045260246000fd5b6001600160e01b031981168114610b5657600080fdfea26469706673582212209244875c3b560395b6fe38b084d428ab2fa8a1bc3706964e49b31f1a5d5568ef64736f6c63430008070033",
  "immutableReferences": {},
  "source": "/**--------------------------------------------------------PRF0.8.7\n__/\\\\\\\\\\\\\\\\\\\\\\\\\\ _____/\\\\\\\\\\\\\\\\\\ _______/\\\\__/\\\\ ___/\\\\\\\\\\\\\\\\\\\\\\\\\\\\\\        \n _\\/\\\\\\/////////\\\\\\ _/\\\\\\///////\\\\\\ ____\\//__\\//____\\/\\\\\\///////////__       \n  _\\/\\\\\\_______\\/\\\\\\_\\/\\\\\\_____\\/\\\\\\ ________________\\/\\\\\\ ____________      \n   _\\/\\\\\\\\\\\\\\\\\\\\\\\\\\/__\\/\\\\\\\\\\\\\\\\\\\\\\/_____/\\\\\\____/\\\\\\_\\/\\\\\\\\\\\\\\\\\\\\\\ ____     \n    _\\/\\\\\\/////////____\\/\\\\\\//////\\\\\\ ___\\/\\\\\\___\\/\\\\\\_\\/\\\\\\///////______    \n     _\\/\\\\\\ ____________\\/\\\\\\ ___\\//\\\\\\ __\\/\\\\\\___\\/\\\\\\_\\/\\\\\\ ____________   \n      _\\/\\\\\\ ____________\\/\\\\\\ ____\\//\\\\\\ _\\/\\\\\\___\\/\\\\\\_\\/\\\\\\ ____________  \n       _\\/\\\\\\ ____________\\/\\\\\\ _____\\//\\\\\\_\\//\\\\\\\\\\\\\\\\\\ _\\/\\\\\\ ____________ \n        _\\/// _____________\\/// _______\\/// __\\///////// __\\/// _____________\n         *-------------------------------------------------------------------*/\n\n/**-----------------------------------------------------------------\n *  TO DO\n *-----------------------------------------------------------------\n * PRUF CONSIGNMENT NFT CONTRACT\n *---------------------------------------------------------------*/\n\n// SPDX-License-Identifier: UNLICENSED\npragma solidity ^0.8.7;\n\nimport \"../Imports/token/ERC721/extensions/ERC721Enumerable.sol\";\nimport \"../Imports/token/ERC721/extensions/ERC721Burnable.sol\";\nimport \"../Imports/token/ERC721/extensions/ERC721Pausable.sol\";\nimport \"../Imports/token/ERC721/extensions/ERC721URIStorage.sol\";\nimport \"../Imports/access/AccessControlEnumerable.sol\";\nimport \"../Imports/utils/Context.sol\";\nimport \"../Imports/utils/Counters.sol\";\nimport \"../Imports/security/ReentrancyGuard.sol\";\n\nimport \"../Resources/RESOURCE_PRUF_INTERFACES.sol\";\nimport \"../Resources/RESOURCE_PRUF_TKN_INTERFACES.sol\";\n\n/**\n * @dev {ERC721} token, including:\n *\n *  - ability for holders to burn (destroy) their tokens\n *  - a minter role that allows for token minting (creation)\n *  - a pauser role that allows to stop all token transfers\n *  - token ID and URI autogeneration\n *\n * This contract uses {AccessControl} to lock permissioned functions using the\n * different roles - head to its documentation for details.\n *\n * The account that deploys the contract will be granted the minter and pauser\n * roles, as well as the default admin role, which will let it grant both minter\n * and pauser roles to other accounts.\n */\n\ncontract MARKET_TKN is\n    ReentrancyGuard,\n    Context,\n    AccessControlEnumerable,\n    ERC721Enumerable,\n    ERC721Burnable,\n    ERC721Pausable\n{\n    using Counters for Counters.Counter;\n    using Strings for uint256;\n\n    //mapping for token URIs\n    mapping(uint256 => string) private _tokenURIs;\n\n    Counters.Counter private _tokenIdTracker;\n\n    string private _baseTokenURI;\n\n    bytes32 public constant CONTRACT_ADMIN_ROLE =\n        keccak256(\"CONTRACT_ADMIN_ROLE\");\n    bytes32 public constant MINTER_ROLE = keccak256(\"MINTER_ROLE\");\n    bytes32 public constant PAUSER_ROLE = keccak256(\"PAUSER_ROLE\");\n    bytes32 public constant TAG_ADMIN_ROLE = keccak256(\"TAG_ADMIN_ROLE\");\n    bytes32 public constant TRUSTED_AGENT_ROLE =\n        keccak256(\"TRUSTED_AGENT_ROLE\");\n\n    uint256 trustedAgentEnabled = 1;\n\n    constructor() ERC721(\"PRUF Consignment Token\", \"PRCT\") {\n        _setupRole(DEFAULT_ADMIN_ROLE, _msgSender());\n        _setupRole(CONTRACT_ADMIN_ROLE, _msgSender());\n        _setupRole(PAUSER_ROLE, _msgSender());\n    }\n\n    /**\n     * @dev Verify user credentials\n     * Originating Address:\n     *      has CONTRACT_ADMIN_ROLE\n     */\n    modifier isContractAdmin() {\n        require(\n            hasRole(CONTRACT_ADMIN_ROLE, _msgSender()),\n            \"AT:MOD-IA:Calling address does not belong to a contract admin\"\n        );\n        _;\n    }\n\n    /**\n     * @dev Verify user credentials\n     * Originating Address:\n     *      has MINTER_ROLE\n     */\n    modifier isMinter() {\n        require(\n            hasRole(MINTER_ROLE, _msgSender()),\n            \"AT:MOD-IM:Calling address does not belong to a minter\"\n        );\n        _;\n    }\n\n    /**\n     * @dev Verify user credentials\n     * Originating Address:\n     *      has TRUSTED_AGENT_ROLE and Trusted Agent role is not disabled\n     */\n    modifier isTrustedAgent() {\n        require(\n            hasRole(TRUSTED_AGENT_ROLE, _msgSender()),\n            \"AT:MOD-ITA:Must have TRUSTED_AGENT_ROLE\"\n        );\n        require(\n            trustedAgentEnabled == 1,\n            \"AT:MOD-ITA:Trusted Agent function permanently disabled - use allowance / transferFrom pattern\"\n        );\n        _;\n    }\n\n    ////----------------------Regular operations----------------------//\n\n    event REPORT(string _msg);\n\n    /**\n     * @dev Mint new consignment Tag token, store consignment data\n     * @param _recipientAddress - Address to mint token into\n     * @param _tokenId - Token ID to mint\n     * @param _tokenURI - URI string to atatch to token\n     * returns Token ID of minted token\n     */\n    function mintConsignmentToken(\n        address _recipientAddress,\n        uint256 _tokenId,\n        string calldata _tokenURI\n    ) external isMinter nonReentrant returns (uint256) {\n        //^^^^^^^checks^^^^^^^^^\n\n        _safeMint(_recipientAddress, _tokenId);\n        _setTokenURI(_tokenId, _tokenURI);\n        return _tokenId;\n        //^^^^^^^interactions^^^^^^^^^\n    }\n\n    /**\n     * @dev Set new token URI String\n     * @param _tokenId - Token ID to set URI\n     * @param _tokenURI - URI string to atatch to token\n     * returns Token ID\n     */\n    function setURI(uint256 _tokenId, string calldata _tokenURI)\n        external\n        returns (uint256)\n    {\n        require(\n            _isApprovedOrOwner(_msgSender(), _tokenId),\n            \"AT:SURI:Caller !owner nor approved\"\n        );\n        //^^^^^^^checks^^^^^^^^^\n\n        _setTokenURI(_tokenId, _tokenURI);\n        return _tokenId;\n        //^^^^^^^interactions^^^^^^^^^\n    }\n\n    /**\n     * @dev See if consignment token exists\n     * @param _tokenId - Token ID to set URI\n     * returns 170 if token exists, otherwise 0\n     */\n    function tokenExists(uint256 _tokenId) external view returns (uint256) {\n        if (_exists(_tokenId)) {\n            return 170;\n        } else {\n            return 0;\n        }\n    }\n\n    /**\n     * @dev Safely burns an consignment token, consignment data\n     * @param _tokenId - Token ID to Burn\n     */\n    function trustedAgentBurn(uint256 _tokenId)\n        external\n        nonReentrant\n        whenNotPaused\n        isTrustedAgent\n    {\n        //^^^^^^^checks^^^^^^^^^\n        if (_exists(_tokenId)) {\n            _burn(_tokenId);\n        }\n\n        //^^^^^^^effects^^^^^^^^^\n    }\n\n    /**\n     * @dev See {IERC721Metadata-tokenURI}.\n     */\n    function tokenURI(uint256 _tokenId)\n        public\n        view\n        virtual\n        override\n        returns (string memory)\n    {\n        require(\n            _exists(_tokenId),\n            \"ERC721URIStorage: URI query for nonexistent token\"\n        );\n\n        string memory _tokenURI = _tokenURIs[_tokenId];\n        string memory base = _baseURI();\n\n        // If there is no base URI, return the token URI.\n        if (bytes(base).length == 0) {\n            return _tokenURI;\n        }\n        // If both are set, concatenate the baseURI and tokenURI (via abi.encodePacked).\n        if (bytes(_tokenURI).length > 0) {\n            return string(abi.encodePacked(base, _tokenURI));\n        }\n\n        return super.tokenURI(_tokenId);\n    }\n\n    /**\n     * @dev Pauses all token transfers.\n     *\n     * See {ERC721Pausable} and {Pausable-_pause}.\n     *\n     * Requirements:\n     *\n     * - the caller must have the `PAUSER_ROLE`.\n     */\n    function pause() external virtual {\n        require(\n            hasRole(PAUSER_ROLE, _msgSender()),\n            \"A:P: Caller !have pauser role\"\n        );\n        //^^^^^^^checks^^^^^^^^^\n\n        _pause();\n        //^^^^^^^interactions^^^^^^^^^\n    }\n\n    /**\n     * @dev Unpauses all token transfers.\n     *\n     * See {ERC721Pausable} and {Pausable-_unpause}.\n     *\n     * Requirements:\n     *\n     * - the caller must have the `PAUSER_ROLE`.\n     */\n    function unpause() external virtual {\n        require(\n            hasRole(PAUSER_ROLE, _msgSender()),\n            \"A:UP: Caller !have pauser role\"\n        );\n        //^^^^^^^checks^^^^^^^^^\n\n        _unpause();\n        //^^^^^^^interactions^^^^^^^^^\n    }\n\n    /**\n     * @dev all paused functions are blocked here (inside ERC720Pausable.sol)\n     * @param from - from address\n     * @param to - to address\n     * @param tokenId - token ID to transfer\n     */\n    function _beforeTokenTransfer(\n        address from,\n        address to,\n        uint256 tokenId\n    ) internal virtual override(ERC721, ERC721Enumerable, ERC721Pausable) {\n        super._beforeTokenTransfer(from, to, tokenId);\n    }\n\n    /**\n     * @dev gets baseURI\n     */\n    function _baseURI() internal view virtual override returns (string memory) {\n        return _baseTokenURI;\n    }\n\n    /**\n     * @dev Sets `_tokenURI` as the tokenURI of `tokenId`.\n     *\n     * Requirements:\n     *\n     * - `tokenId` must exist.\n     */\n    function _setTokenURI(uint256 tokenId, string memory _tokenURI)\n        internal\n        virtual\n    {\n        require(\n            _exists(tokenId),\n            \"ERC721URIStorage: URI set of nonexistent token\"\n        );\n        _tokenURIs[tokenId] = _tokenURI;\n    }\n\n    /**\n     * @dev Destroys `tokenId`.\n     * The approval is cleared when the token is burned.\n     *\n     * Requirements:\n     *\n     * - `tokenId` must exist.\n     *\n     * Emits a {Transfer} event.\n     */\n    function _burn(uint256 _tokenId) internal virtual override {\n        super._burn(_tokenId);\n\n        if (bytes(_tokenURIs[_tokenId]).length != 0) {\n            delete _tokenURIs[_tokenId];\n        }\n    }\n\n    /**\n     * @dev See {IERC165-supportsInterface}.\n     */\n    function supportsInterface(bytes4 interfaceId)\n        public\n        view\n        virtual\n        override(AccessControlEnumerable, ERC721, ERC721Enumerable)\n        returns (bool)\n    {\n        return super.supportsInterface(interfaceId);\n    }\n}\n",
  "sourcePath": "/Users/drake/Documents/DEV/PRUF/PRUF_TRUFFLE/contracts/InProgress/PRUF_MARKET_TKN.sol",
  "compiler": {
    "name": "solc",
    "version": "0.8.7+commit.e28d00a7.Emscripten.clang"
  },
  "schemaVersion": "3.4.3",
  "updatedAt": "2021-10-26T17:58:04.066Z",
  "devdoc": {
    "details": "{ERC721} token, including:  - ability for holders to burn (destroy) their tokens  - a minter role that allows for token minting (creation)  - a pauser role that allows to stop all token transfers  - token ID and URI autogeneration This contract uses {AccessControl} to lock permissioned functions using the different roles - head to its documentation for details. The account that deploys the contract will be granted the minter and pauser roles, as well as the default admin role, which will let it grant both minter and pauser roles to other accounts.",
    "kind": "dev",
    "methods": {
      "approve(address,uint256)": {
        "details": "See {IERC721-approve}."
      },
      "balanceOf(address)": {
        "details": "See {IERC721-balanceOf}."
      },
      "burn(uint256)": {
        "details": "Burns `tokenId`. See {ERC721-_burn}. Requirements: - The caller must own `tokenId` or be an approved operator."
      },
      "getApproved(uint256)": {
        "details": "See {IERC721-getApproved}."
      },
      "getRoleAdmin(bytes32)": {
        "details": "Returns the admin role that controls `role`. See {grantRole} and {revokeRole}. To change a role's admin, use {_setRoleAdmin}."
      },
      "getRoleMember(bytes32,uint256)": {
        "details": "Returns one of the accounts that have `role`. `index` must be a value between 0 and {getRoleMemberCount}, non-inclusive. Role bearers are not sorted in any particular way, and their ordering may change at any point. WARNING: When using {getRoleMember} and {getRoleMemberCount}, make sure you perform all queries on the same block. See the following https://forum.openzeppelin.com/t/iterating-over-elements-on-enumerableset-in-openzeppelin-contracts/2296[forum post] for more information."
      },
      "getRoleMemberCount(bytes32)": {
        "details": "Returns the number of accounts that have `role`. Can be used together with {getRoleMember} to enumerate all bearers of a role."
      },
      "grantRole(bytes32,address)": {
        "details": "Overload {grantRole} to track enumerable memberships"
      },
      "hasRole(bytes32,address)": {
        "details": "Returns `true` if `account` has been granted `role`."
      },
      "isApprovedForAll(address,address)": {
        "details": "See {IERC721-isApprovedForAll}."
      },
      "mintConsignmentToken(address,uint256,string)": {
        "details": "Mint new consignment Tag token, store consignment data",
        "params": {
          "_recipientAddress": "- Address to mint token into",
          "_tokenId": "- Token ID to mint",
          "_tokenURI": "- URI string to atatch to token returns Token ID of minted token"
        }
      },
      "name()": {
        "details": "See {IERC721Metadata-name}."
      },
      "ownerOf(uint256)": {
        "details": "See {IERC721-ownerOf}."
      },
      "pause()": {
        "details": "Pauses all token transfers. See {ERC721Pausable} and {Pausable-_pause}. Requirements: - the caller must have the `PAUSER_ROLE`."
      },
      "paused()": {
        "details": "Returns true if the contract is paused, and false otherwise."
      },
      "renounceRole(bytes32,address)": {
        "details": "Overload {renounceRole} to track enumerable memberships"
      },
      "revokeRole(bytes32,address)": {
        "details": "Overload {revokeRole} to track enumerable memberships"
      },
      "safeTransferFrom(address,address,uint256)": {
        "details": "See {IERC721-safeTransferFrom}."
      },
      "safeTransferFrom(address,address,uint256,bytes)": {
        "details": "See {IERC721-safeTransferFrom}."
      },
      "setApprovalForAll(address,bool)": {
        "details": "See {IERC721-setApprovalForAll}."
      },
      "setURI(uint256,string)": {
        "details": "Set new token URI String",
        "params": {
          "_tokenId": "- Token ID to set URI",
          "_tokenURI": "- URI string to atatch to token returns Token ID"
        }
      },
      "supportsInterface(bytes4)": {
        "details": "See {IERC165-supportsInterface}."
      },
      "symbol()": {
        "details": "See {IERC721Metadata-symbol}."
      },
      "tokenByIndex(uint256)": {
        "details": "See {IERC721Enumerable-tokenByIndex}."
      },
      "tokenExists(uint256)": {
        "details": "See if consignment token exists",
        "params": {
          "_tokenId": "- Token ID to set URI returns 170 if token exists, otherwise 0"
        }
      },
      "tokenOfOwnerByIndex(address,uint256)": {
        "details": "See {IERC721Enumerable-tokenOfOwnerByIndex}."
      },
      "tokenURI(uint256)": {
        "details": "See {IERC721Metadata-tokenURI}."
      },
      "totalSupply()": {
        "details": "See {IERC721Enumerable-totalSupply}."
      },
      "transferFrom(address,address,uint256)": {
        "details": "See {IERC721-transferFrom}."
      },
      "trustedAgentBurn(uint256)": {
        "details": "Safely burns an consignment token, consignment data",
        "params": {
          "_tokenId": "- Token ID to Burn"
        }
      },
      "unpause()": {
        "details": "Unpauses all token transfers. See {ERC721Pausable} and {Pausable-_unpause}. Requirements: - the caller must have the `PAUSER_ROLE`."
      }
    },
    "version": 1
  },
  "userdoc": {
    "kind": "user",
    "methods": {},
    "version": 1
  }
}