{
  "contractName": "MerkleProofWrapper",
  "abi": [
    {
      "inputs": [
        {
          "internalType": "bytes32[]",
          "name": "proof",
          "type": "bytes32[]"
        },
        {
          "internalType": "bytes32",
          "name": "root",
          "type": "bytes32"
        },
        {
          "internalType": "bytes32",
          "name": "leaf",
          "type": "bytes32"
        }
      ],
      "name": "verify",
      "outputs": [
        {
          "internalType": "bool",
          "name": "",
          "type": "bool"
        }
      ],
      "stateMutability": "pure",
      "type": "function"
    }
  ],
  "bytecode": "0x608060405234801561001057600080fd5b5061027b806100206000396000f3fe608060405234801561001057600080fd5b506004361061002b5760003560e01c80635a9a49c714610030575b600080fd5b61004361003e36600461011b565b610057565b604051901515815260200160405180910390f35b600061006484848461006c565b949350505050565b600081815b855181101561011057600086828151811061008e5761008e610219565b602002602001015190508083116100d05760408051602081018590529081018290526060016040516020818303038152906040528051906020012092506100fd565b60408051602081018390529081018490526060016040516020818303038152906040528051906020012092505b5080610108816101f0565b915050610071565b509092149392505050565b60008060006060848603121561013057600080fd5b833567ffffffffffffffff8082111561014857600080fd5b818601915086601f83011261015c57600080fd5b81356020828211156101705761017061022f565b8160051b604051601f19603f830116810181811086821117156101955761019561022f565b604052838152828101945085830182870184018c10156101b457600080fd5b600096505b848710156101d75780358652600196909601959483019483016101b9565b509a918901359950506040909701359695505050505050565b600060001982141561021257634e487b7160e01b600052601160045260246000fd5b5060010190565b634e487b7160e01b600052603260045260246000fd5b634e487b7160e01b600052604160045260246000fdfea2646970667358221220f9013631aa2cbff63d407ea22c51b54c731b9ecac021e4e4f1c208a633ac724664736f6c63430008070033",
  "immutableReferences": {},
  "source": "// SPDX-License-Identifier: MIT\n\npragma solidity ^0.8.0;\n\nimport \"../utils/cryptography/MerkleProof.sol\";\n\ncontract MerkleProofWrapper {\n    function verify(\n        bytes32[] memory proof,\n        bytes32 root,\n        bytes32 leaf\n    ) public pure returns (bool) {\n        return MerkleProof.verify(proof, root, leaf);\n    }\n}\n",
  "sourcePath": "/Users/drake/Documents/DEV/PRUF/PRUF_TRUFFLE/contracts/Imports/mocks/MerkleProofWrapper.sol",
  "compiler": {
    "name": "solc",
    "version": "0.8.7+commit.e28d00a7.Emscripten.clang"
  },
  "schemaVersion": "3.4.3",
  "updatedAt": "2021-10-26T17:58:03.704Z",
  "devdoc": {
    "kind": "dev",
    "methods": {},
    "version": 1
  },
  "userdoc": {
    "kind": "user",
    "methods": {},
    "version": 1
  }
}