{
  "contractName": "NAKED",
  "abi": [
    {
      "anonymous": false,
      "inputs": [
        {
          "indexed": true,
          "internalType": "address",
          "name": "previousOwner",
          "type": "address"
        },
        {
          "indexed": true,
          "internalType": "address",
          "name": "newOwner",
          "type": "address"
        }
      ],
      "name": "OwnershipTransferred",
      "type": "event"
    },
    {
      "anonymous": false,
      "inputs": [
        {
          "indexed": false,
          "internalType": "address",
          "name": "account",
          "type": "address"
        }
      ],
      "name": "Paused",
      "type": "event"
    },
    {
      "anonymous": false,
      "inputs": [
        {
          "indexed": false,
          "internalType": "string",
          "name": "_msg",
          "type": "string"
        }
      ],
      "name": "REPORT",
      "type": "event"
    },
    {
      "anonymous": false,
      "inputs": [
        {
          "indexed": false,
          "internalType": "address",
          "name": "account",
          "type": "address"
        }
      ],
      "name": "Unpaused",
      "type": "event"
    },
    {
      "inputs": [],
      "name": "$withdraw",
      "outputs": [],
      "stateMutability": "payable",
      "type": "function"
    },
    {
      "inputs": [],
      "name": "OO_pause",
      "outputs": [],
      "stateMutability": "nonpayable",
      "type": "function"
    },
    {
      "inputs": [],
      "name": "OO_resolveContractAddresses",
      "outputs": [],
      "stateMutability": "nonpayable",
      "type": "function"
    },
    {
      "inputs": [
        {
          "internalType": "address",
          "name": "_storageAddress",
          "type": "address"
        }
      ],
      "name": "OO_setStorageContract",
      "outputs": [],
      "stateMutability": "nonpayable",
      "type": "function"
    },
    {
      "inputs": [
        {
          "internalType": "address",
          "name": "_to",
          "type": "address"
        },
        {
          "internalType": "bytes32",
          "name": "_idxHash",
          "type": "bytes32"
        }
      ],
      "name": "OO_transferACToken",
      "outputs": [],
      "stateMutability": "nonpayable",
      "type": "function"
    },
    {
      "inputs": [],
      "name": "OO_unpause",
      "outputs": [],
      "stateMutability": "nonpayable",
      "type": "function"
    },
    {
      "inputs": [
        {
          "internalType": "address",
          "name": "",
          "type": "address"
        },
        {
          "internalType": "address",
          "name": "",
          "type": "address"
        },
        {
          "internalType": "uint256",
          "name": "",
          "type": "uint256"
        },
        {
          "internalType": "bytes",
          "name": "",
          "type": "bytes"
        }
      ],
      "name": "onERC721Received",
      "outputs": [
        {
          "internalType": "bytes4",
          "name": "",
          "type": "bytes4"
        }
      ],
      "stateMutability": "nonpayable",
      "type": "function"
    },
    {
      "inputs": [],
      "name": "owner",
      "outputs": [
        {
          "internalType": "address",
          "name": "",
          "type": "address"
        }
      ],
      "stateMutability": "view",
      "type": "function"
    },
    {
      "inputs": [],
      "name": "paused",
      "outputs": [
        {
          "internalType": "bool",
          "name": "",
          "type": "bool"
        }
      ],
      "stateMutability": "view",
      "type": "function"
    },
    {
      "inputs": [
        {
          "internalType": "address",
          "name": "dest",
          "type": "address"
        }
      ],
      "name": "payments",
      "outputs": [
        {
          "internalType": "uint256",
          "name": "",
          "type": "uint256"
        }
      ],
      "stateMutability": "view",
      "type": "function"
    },
    {
      "inputs": [],
      "name": "renounceOwnership",
      "outputs": [],
      "stateMutability": "nonpayable",
      "type": "function"
    },
    {
      "inputs": [
        {
          "internalType": "address",
          "name": "_to",
          "type": "address"
        },
        {
          "internalType": "bytes32",
          "name": "_idxHash",
          "type": "bytes32"
        }
      ],
      "name": "transferAssetToken",
      "outputs": [],
      "stateMutability": "nonpayable",
      "type": "function"
    },
    {
      "inputs": [
        {
          "internalType": "address",
          "name": "newOwner",
          "type": "address"
        }
      ],
      "name": "transferOwnership",
      "outputs": [],
      "stateMutability": "nonpayable",
      "type": "function"
    },
    {
      "inputs": [
        {
          "internalType": "address payable",
          "name": "payee",
          "type": "address"
        }
      ],
      "name": "withdrawPayments",
      "outputs": [],
      "stateMutability": "nonpayable",
      "type": "function"
    },
    {
      "inputs": [
        {
          "internalType": "uint256",
          "name": "_importDiscount",
          "type": "uint256"
        }
      ],
      "name": "setImportDiscount",
      "outputs": [],
      "stateMutability": "nonpayable",
      "type": "function"
    },
    {
      "inputs": [
        {
          "internalType": "bytes32",
          "name": "_idxHash",
          "type": "bytes32"
        },
        {
          "internalType": "bytes32",
          "name": "_hashedAuthCode",
          "type": "bytes32"
        },
        {
          "internalType": "uint32",
          "name": "_assetClass",
          "type": "uint32"
        }
      ],
      "name": "mintNakedAsset",
      "outputs": [],
      "stateMutability": "nonpayable",
      "type": "function"
    },
    {
      "inputs": [
        {
          "internalType": "bytes32",
          "name": "_idxHash",
          "type": "bytes32"
        },
        {
          "internalType": "string",
          "name": "_authCode",
          "type": "string"
        },
        {
          "internalType": "uint32",
          "name": "_newAssetClass",
          "type": "uint32"
        },
        {
          "internalType": "bytes32",
          "name": "_rgtHash",
          "type": "bytes32"
        },
        {
          "internalType": "uint32",
          "name": "_countDownStart",
          "type": "uint32"
        }
      ],
      "name": "$claimNakedAsset",
      "outputs": [],
      "stateMutability": "payable",
      "type": "function"
    },
    {
      "inputs": [
        {
          "internalType": "uint256",
          "name": "number",
          "type": "uint256"
        }
      ],
      "name": "uint256toString",
      "outputs": [
        {
          "internalType": "string",
          "name": "",
          "type": "string"
        }
      ],
      "stateMutability": "pure",
      "type": "function"
    }
  ],
  "bytecode": "0x608060405260026018553480156200001657600080fd5b506040516200002590620000d6565b604051809103906000f08015801562000042573d6000803e3d6000fd5b50600080546001600160a01b0319166001600160a01b03929092169190911781556001805562000071620000d2565b600280546001600160a01b0319166001600160a01b038316908117909155604051919250906000907f8be0079c531659141344cd1fd0a4f28419497f9722a3daafe3b4186f6b6457e0908290a3506002805460ff60a01b19169055620000e4565b3390565b61074f80620026ee83390190565b6125fa80620000f46000396000f3fe6080604052600436106101095760003560e01c80638da5cb5b11610095578063cf2b6f6611610064578063cf2b6f661461048d578063d6b02ecf146104a2578063e2982c21146104d5578063e8b416531461051a578063f2fde38b1461052f57610109565b80638da5cb5b1461036f578063961e809b146103a0578063c79b226e146103b5578063ca516341146103ee57610109565b8063424ff81e116100dc578063424ff81e14610292578063440e7a7e146102bc5780635c975abb146102f5578063715018a61461031e5780637df2ecf51461033357610109565b8063150b7a021461010e57806321870c9a146101c85780632cb741aa1461025757806331b3eb941461025f575b600080fd5b34801561011a57600080fd5b506101ab6004803603608081101561013157600080fd5b6001600160a01b0382358116926020810135909116916040820135919081019060808101606082013564010000000081111561016c57600080fd5b82018360208201111561017e57600080fd5b803590602001918460018302840111640100000000831117156101a057600080fd5b509092509050610562565b604080516001600160e01b03199092168252519081900360200190f35b610255600480360360a08110156101de57600080fd5b8135919081019060408101602082013564010000000081111561020057600080fd5b82018360208201111561021257600080fd5b8035906020019184600183028401116401000000008311171561023457600080fd5b919350915063ffffffff813581169160208101359160409091013516610573565b005b610255610916565b34801561026b57600080fd5b506102556004803603602081101561028257600080fd5b50356001600160a01b0316610970565b34801561029e57600080fd5b50610255600480360360208110156102b557600080fd5b50356109d6565b3480156102c857600080fd5b50610255600480360360408110156102df57600080fd5b506001600160a01b038135169060200135610a4a565b34801561030157600080fd5b5061030a610b73565b604080519115158252519081900360200190f35b34801561032a57600080fd5b50610255610b83565b34801561033f57600080fd5b506102556004803603606081101561035657600080fd5b508035906020810135906040013563ffffffff16610c25565b34801561037b57600080fd5b50610384610f71565b604080516001600160a01b039092168252519081900360200190f35b3480156103ac57600080fd5b50610255610f80565b3480156103c157600080fd5b50610255600480360360408110156103d857600080fd5b506001600160a01b038135169060200135610fe2565b3480156103fa57600080fd5b506104186004803603602081101561041157600080fd5b50356110e3565b6040805160208082528351818301528351919283929083019185019080838360005b8381101561045257818101518382015260200161043a565b50505050905090810190601f16801561047f5780820380516001836020036101000a031916815260200191505b509250505060405180910390f35b34801561049957600080fd5b506102556111c0565b3480156104ae57600080fd5b50610255600480360360208110156104c557600080fd5b50356001600160a01b0316611220565b3480156104e157600080fd5b50610508600480360360208110156104f857600080fd5b50356001600160a01b03166112df565b60408051918252519081900360200190f35b34801561052657600080fd5b5061025561135f565b34801561053b57600080fd5b506102556004803603602081101561055257600080fd5b50356001600160a01b0316611af4565b630a85bd0160e11b95945050505050565b600260015414156105b9576040805162461bcd60e51b815260206004820152601f6024820152600080516020612476833981519152604482015290519081900360640190fd5b6002600181905554600160a01b900460ff1615610610576040805162461bcd60e51b815260206004820152601060248201526f14185d5cd8589b194e881c185d5cd95960821b604482015290519081900360640190fd5b600a54604080516331a9108f60e11b8152600481018990529051889230926001600160a01b0390911691636352211e916024808201926020929091908290030181600087803b15801561066257600080fd5b505af1158015610676573d6000803e3d6000fd5b505050506040513d602081101561068c57600080fd5b50516001600160a01b0316146106d35760405162461bcd60e51b81526004018080602001828103825260248152602001806124e16024913960400191505060405180910390fd5b600a54604051635d93a3a960e01b81526004810183815263ffffffff87166024830152606060448301908152606483018990526001600160a01b0390931692635d93a3a992859289928c928c929190608401848480828437600081840152601f19601f8201169050808301925050509550505050505060006040518083038186803b15801561076157600080fd5b505afa158015610775573d6000803e3d6000fd5b50506004805460408051630d4c344560e21b81529283018c90526024830188905263ffffffff808a16604485015287166064840152516001600160a01b039091169350633530d1149250608480830192600092919082900301818387803b1580156107df57600080fd5b505af11580156107f3573d6000803e3d6000fd5b5050600a5460408051634312207160e11b815260048101869052602481018290526007604482015266707275662e696f60c81b606482015290516001600160a01b03909216935063862440e292506084808201926020929091908290030181600087803b15801561086357600080fd5b505af1158015610877573d6000803e3d6000fd5b505050506040513d602081101561088d57600080fd5b5050600a5460408051632142170760e11b81523060048201523360248201526044810184905290516001600160a01b03909216916342842e0e9160648082019260009290919082900301818387803b1580156108e857600080fd5b505af11580156108fc573d6000803e3d6000fd5b5050505061090984611bed565b5050600180555050505050565b6002600154141561095c576040805162461bcd60e51b815260206004820152601f6024820152600080516020612476833981519152604482015290519081900360640190fd5b600260015561096a33610970565b60018055565b60008054604080516351cff8d960e01b81526001600160a01b038581166004830152915191909216926351cff8d9926024808201939182900301818387803b1580156109bb57600080fd5b505af11580156109cf573d6000803e3d6000fd5b5050505050565b6109de611d33565b6002546001600160a01b03908116911614610a2e576040805162461bcd60e51b81526020600482018190526024820152600080516020612505833981519152604482015290519081900360640190fd5b6001811015610a41576001601855610a47565b60188190555b50565b60026001541415610a90576040805162461bcd60e51b815260206004820152601f6024820152600080516020612476833981519152604482015290519081900360640190fd5b6002600155610a9d610f71565b6001600160a01b0316336001600160a01b03161480610ac657506017546001600160a01b031633145b610b015760405162461bcd60e51b81526004018080602001828103825260268152602001806125256026913960400191505060405180910390fd5b600a5460408051632142170760e11b81523060048201526001600160a01b038581166024830152604482018590529151849392909216916342842e0e9160648082019260009290919082900301818387803b158015610b5f57600080fd5b505af1158015610909573d6000803e3d6000fd5b600254600160a01b900460ff1690565b610b8b611d33565b6002546001600160a01b03908116911614610bdb576040805162461bcd60e51b81526020600482018190526024820152600080516020612505833981519152604482015290519081900360640190fd5b6002546040516000916001600160a01b0316907f8be0079c531659141344cd1fd0a4f28419497f9722a3daafe3b4186f6b6457e0908390a3600280546001600160a01b0319169055565b60026001541415610c6b576040805162461bcd60e51b815260206004820152601f6024820152600080516020612476833981519152604482015290519081900360640190fd5b6002600181905554600160a01b900460ff1615610cc2576040805162461bcd60e51b815260206004820152601060248201526f14185d5cd8589b194e881c185d5cd95960821b604482015290519081900360640190fd5b82610ccb6123ef565b610cd485611d37565b90506000610ce184611eb9565b600c54604080516331a9108f60e11b815263ffffffff88166004820152905192935033926001600160a01b0390921691636352211e91602480820192602092909190829003018186803b158015610d3757600080fd5b505afa158015610d4b573d6000803e3d6000fd5b505050506040513d6020811015610d6157600080fd5b50516001600160a01b031614610da85760405162461bcd60e51b81526004018080602001828103825260238152602001806125a26023913960400191505060405180910390fd5b8060ff16600a14610dea5760405162461bcd60e51b815260040180806020018281038252602e815260200180612574602e913960400191505060405180910390fd5b602082015163ffffffff1615610e315760405162461bcd60e51b815260040180806020018281038252602981526020018061254b6029913960400191505060405180910390fd5b6040805160208082018890526001600160e01b031960e088901b16828401528251602481840301815260449092019092528051910120606090610e73816110e3565b600a546040516354a19c2b60e01b81523060048201818152602483018a90526060604484019081528551606485015285519597506001600160a01b03909416946354a19c2b9492938b93899392909160840190602085019080838360005b83811015610ee9578181015183820152602001610ed1565b50505050905090810190601f168015610f165780820380516001836020036101000a031916815260200191505b50945050505050602060405180830381600087803b158015610f3757600080fd5b505af1158015610f4b573d6000803e3d6000fd5b505050506040513d6020811015610f6157600080fd5b5050600180555050505050505050565b6002546001600160a01b031690565b610f88611d33565b6002546001600160a01b03908116911614610fd8576040805162461bcd60e51b81526020600482018190526024820152600080516020612505833981519152604482015290519081900360640190fd5b610fe0611f6a565b565b610fea611d33565b6002546001600160a01b0390811691161461103a576040805162461bcd60e51b81526020600482018190526024820152600080516020612505833981519152604482015290519081900360640190fd5b60026001541415611080576040805162461bcd60e51b815260206004820152601f6024820152600080516020612476833981519152604482015290519081900360640190fd5b6002600155600c5460408051632142170760e11b81523060048201526001600160a01b038581166024830152604482018590529151849392909216916342842e0e9160648082019260009290919082900301818387803b158015610b5f57600080fd5b60608161110857506040805180820190915260018152600360fc1b60208201526111bb565b8160005b811561112057600101600a8204915061110c565b60608167ffffffffffffffff8111801561113957600080fd5b506040519080825280601f01601f191660200182016040528015611164576020820181803683370190505b50859350905060001982015b83156111b557600a840660300160f81b8282806001900393508151811061119357fe5b60200101906001600160f81b031916908160001a905350600a84049350611170565b50925050505b919050565b6111c8611d33565b6002546001600160a01b03908116911614611218576040805162461bcd60e51b81526020600482018190526024820152600080516020612505833981519152604482015290519081900360640190fd5b610fe0612012565b611228611d33565b6002546001600160a01b03908116911614611278576040805162461bcd60e51b81526020600482018190526024820152600080516020612505833981519152604482015290519081900360640190fd5b6001600160a01b0381166112bd5760405162461bcd60e51b81526004018080602001828103825260258152602001806124bc6025913960400191505060405180910390fd5b600480546001600160a01b0319166001600160a01b0392909216919091179055565b60008054604080516371d4ed8d60e11b81526001600160a01b0385811660048301529151919092169163e3a9db1a916024808301926020929190829003018186803b15801561132d57600080fd5b505afa158015611341573d6000803e3d6000fd5b505050506040513d602081101561135757600080fd5b505192915050565b600260015414156113a5576040805162461bcd60e51b815260206004820152601f6024820152600080516020612476833981519152604482015290519081900360640190fd5b60026001556113b2611d33565b6002546001600160a01b03908116911614611402576040805162461bcd60e51b81526020600482018190526024820152600080516020612505833981519152604482015290519081900360640190fd5b60048054604080516363b8d4c160e11b81526020938101849052600660248201526520a1afaa25a760d11b604482015290516001600160a01b039092169263c771a98292606480840193829003018186803b15801561146057600080fd5b505afa158015611474573d6000803e3d6000fd5b505050506040513d602081101561148a57600080fd5b5051600b80546001600160a01b039283166001600160a01b03199182161791829055600c805490911691831691909117905560048054604080516363b8d4c160e11b81526020938101849052600660248201526520a1afa6a3a960d11b60448201529051919093169263c771a982926064808301939192829003018186803b15801561151557600080fd5b505afa158015611529573d6000803e3d6000fd5b505050506040513d602081101561153f57600080fd5b5051600580546001600160a01b039283166001600160a01b031991821617918290556006805490911691831691909117905560048054604080516363b8d4c160e11b8152602093810184905260086024820152672aaa24a62faa25a760c11b60448201529051919093169263c771a982926064808301939192829003018186803b1580156115cc57600080fd5b505afa1580156115e0573d6000803e3d6000fd5b505050506040513d60208110156115f657600080fd5b5051600780546001600160a01b039283166001600160a01b031991821617918290556008805490911691831691909117905560048054604080516363b8d4c160e11b81526020938101849052600560248201526420afaa25a760d91b60448201529051919093169263c771a982926064808301939192829003018186803b15801561168057600080fd5b505afa158015611694573d6000803e3d6000fd5b505050506040513d60208110156116aa57600080fd5b5051600980546001600160a01b039283166001600160a01b03199182161791829055600a805490911691831691909117905560048054604080516363b8d4c160e11b81526020938101849052600660248201526524a22faa25a760d11b60448201529051919093169263c771a982926064808301939192829003018186803b15801561173557600080fd5b505afa158015611749573d6000803e3d6000fd5b505050506040513d602081101561175f57600080fd5b5051600d80546001600160a01b039283166001600160a01b03199182161791829055600e805490911691831691909117905560048054604080516363b8d4c160e11b81526020938101849052600760248201526622a1a92fa6a3a960c91b60448201529051919093169263c771a982926064808301939192829003018186803b1580156117eb57600080fd5b505afa1580156117ff573d6000803e3d6000fd5b505050506040513d602081101561181557600080fd5b5051600f80546001600160a01b039283166001600160a01b031991821617918290556010805490911691831691909117905560048054604080516363b8d4c160e11b81526020938101849052600360248201526204150560ec1b60448201529051919093169263c771a982926064808301939192829003018186803b15801561189d57600080fd5b505afa1580156118b1573d6000803e3d6000fd5b505050506040513d60208110156118c757600080fd5b5051601380546001600160a01b039283166001600160a01b031991821617918290556014805490911691831691909117905560048054604080516363b8d4c160e11b815260208185018190526024820194909452632921a62960e11b60448201529051919093169263c771a982926064808301939192829003018186803b15801561195157600080fd5b505afa158015611965573d6000803e3d6000fd5b505050506040513d602081101561197b57600080fd5b5051601180546001600160a01b039283166001600160a01b031991821617918290556012805490911691831691909117905560048054604080516363b8d4c160e11b8152602093810184905260066024820152654150505f4e4360d01b60448201529051919093169263c771a982926064808301939192829003018186803b158015611a0657600080fd5b505afa158015611a1a573d6000803e3d6000fd5b505050506040513d6020811015611a3057600080fd5b5051601680546001600160a01b0319166001600160a01b0392831617905560048054604080516363b8d4c160e11b81526020938101849052600260248201526104e560f41b60448201529051919093169263c771a982926064808301939192829003018186803b158015611aa357600080fd5b505afa158015611ab7573d6000803e3d6000fd5b505050506040513d6020811015611acd57600080fd5b5051601780546001600160a01b0319166001600160a01b0390921691909117905560018055565b611afc611d33565b6002546001600160a01b03908116911614611b4c576040805162461bcd60e51b81526020600482018190526024820152600080516020612505833981519152604482015290519081900360640190fd5b6001600160a01b038116611b915760405162461bcd60e51b81526004018080602001828103825260268152602001806124966026913960400191505060405180910390fd5b6002546040516001600160a01b038084169216907f8be0079c531659141344cd1fd0a4f28419497f9722a3daafe3b4186f6b6457e090600090a3600280546001600160a01b0319166001600160a01b0392909216919091179055565b600254600160a01b900460ff1615611c3f576040805162461bcd60e51b815260206004820152601060248201526f14185d5cd8589b194e881c185d5cd95960821b604482015290519081900360640190fd5b611c4761243b565b6006546040805163859f08db60e01b815263ffffffff851660048201526001602482015290516001600160a01b039092169163859f08db91604480820192608092909190829003018186803b158015611c9f57600080fd5b505afa158015611cb3573d6000803e3d6000fd5b505050506040513d6080811015611cc957600080fd5b508051602080830151604080850151606095860151958701959095526001600160a01b039485169086015290840181905291168252601854611d0b91906120a0565b60208201526018546060820151611d21916120a0565b6060820152611d2f816120e9565b5050565b3390565b611d3f6123ef565b611d476123ef565b6000806000806000806000600460009054906101000a90046001600160a01b03166001600160a01b031663e248f2c48b6040518263ffffffff1660e01b81526004018082815260200191505060e06040518083038186803b158015611dab57600080fd5b505afa158015611dbf573d6000803e3d6000fd5b505050506040513d60e0811015611dd557600080fd5b81019080805190602001909291908051906020019092919080519060200190929190805190602001909291908051906020019092919080519060200190929190805190602001909291905050509650965096509650965096509650868860c001818152505085886000019060ff16908160ff168152505084886020019063ffffffff16908163ffffffff168152505083886040019063ffffffff16908163ffffffff168152505082886060019063ffffffff16908163ffffffff1681525050818860e001818152505080886101000181815250505050505050505080915050919050565b600654604080513360601b6020808301919091528251808303601401815260348301808552815191830191909120634e963e7760e11b909152603883015263ffffffff85166058830152915160009384936001600160a01b0390911692639d2c7cee9260788083019392829003018186803b158015611f3757600080fd5b505afa158015611f4b573d6000803e3d6000fd5b505050506040513d6020811015611f6157600080fd5b50519392505050565b600254600160a01b900460ff16611fbf576040805162461bcd60e51b815260206004820152601460248201527314185d5cd8589b194e881b9bdd081c185d5cd95960621b604482015290519081900360640190fd5b6002805460ff60a01b191690557f5db9ee0a495bf2e6ff9c91a7834c1ba4fdd244a5e8aa4e537bd38aeae4b073aa611ff5611d33565b604080516001600160a01b039092168252519081900360200190a1565b600254600160a01b900460ff1615612064576040805162461bcd60e51b815260206004820152601060248201526f14185d5cd8589b194e881c185d5cd95960821b604482015290519081900360640190fd5b6002805460ff60a01b1916600160a01b1790557f62e78cea01bee320cd4e420270b5ea74000d11b0c9f74754ebdbfc544b05a258611ff5611d33565b60006120e283836040518060400160405280601a81526020017f536166654d6174683a206469766973696f6e206279207a65726f0000000000008152506121ed565b9392505050565b600254600160a01b900460ff161561213b576040805162461bcd60e51b815260206004820152601060248201526f14185d5cd8589b194e881c185d5cd95960821b604482015290519081900360640190fd5b6060810151602082015134916000918291612156919061228f565b9050803410156121ad576040805162461bcd60e51b815260206004820152601760248201527f433a44503a2054582076616c756520746f6f206c6f772e000000000000000000604482015290519081900360640190fd5b6121b783826122e9565b91506121cb8460000151856020015161232b565b6121dd8460400151856060015161232b565b6121e7338361232b565b50505050565b600081836122795760405162461bcd60e51b81526004018080602001828103825283818151815260200191508051906020019080838360005b8381101561223e578181015183820152602001612226565b50505050905090810190601f16801561226b5780820380516001836020036101000a031916815260200191505b509250505060405180910390fd5b50600083858161228557fe5b0495945050505050565b6000828201838110156120e2576040805162461bcd60e51b815260206004820152601b60248201527f536166654d6174683a206164646974696f6e206f766572666c6f770000000000604482015290519081900360640190fd5b60006120e283836040518060400160405280601e81526020017f536166654d6174683a207375627472616374696f6e206f766572666c6f770000815250612395565b600080546040805163f340fa0160e01b81526001600160a01b0386811660048301529151919092169263f340fa019285926024808301939282900301818588803b15801561237857600080fd5b505af115801561238c573d6000803e3d6000fd5b50505050505050565b600081848411156123e75760405162461bcd60e51b815260206004820181815283516024840152835190928392604490910191908501908083836000831561223e578181015183820152602001612226565b505050900390565b6040805161012081018252600080825260208201819052918101829052606081018290526080810182905260a0810182905260c0810182905260e0810182905261010081019190915290565b604051806080016040528060006001600160a01b031681526020016000815260200160006001600160a01b0316815260200160008152509056fe5265656e7472616e637947756172643a207265656e7472616e742063616c6c004f776e61626c653a206e6577206f776e657220697320746865207a65726f2061646472657373423a5353433a2073746f7261676520616464726573732063616e6e6f74206265207a65726f4e3a434e413a20546f6b656e206e6f7420666f756e6420696e20505255465f4e414b45444f776e61626c653a2063616c6c6572206973206e6f7420746865206f776e6572423a54583a496e76616c69642063616c6c657220666f72207472616e7366657220746f6b656e4e3a4d4e413a20417373657420616c7265616479207265676973746572656420696e2073797374656d4e3a4d4e413a75736572206e6f7420617574686f72697a656420746f206d696e74206e616b6564206173736574734e3a4d4e413a43616c6c657220646f6573206e6f7420686f6c6420414320746f6b656ea2646970667358221220f873b60d3e296cb82976b11a9a5b365647851f4a4d49625b89dfbab2628a8e9264736f6c634300060c0033608060405234801561001057600080fd5b50600061001b61006a565b600080546001600160a01b0319166001600160a01b0383169081178255604051929350917f8be0079c531659141344cd1fd0a4f28419497f9722a3daafe3b4186f6b6457e0908290a35061006e565b3390565b6106d28061007d6000396000f3fe6080604052600436106100555760003560e01c806351cff8d91461005a578063715018a61461008f5780638da5cb5b146100a4578063e3a9db1a146100d5578063f2fde38b1461011a578063f340fa011461014d575b600080fd5b34801561006657600080fd5b5061008d6004803603602081101561007d57600080fd5b50356001600160a01b0316610173565b005b34801561009b57600080fd5b5061008d610236565b3480156100b057600080fd5b506100b96102d8565b604080516001600160a01b039092168252519081900360200190f35b3480156100e157600080fd5b50610108600480360360208110156100f857600080fd5b50356001600160a01b03166102e7565b60408051918252519081900360200190f35b34801561012657600080fd5b5061008d6004803603602081101561013d57600080fd5b50356001600160a01b0316610302565b61008d6004803603602081101561016357600080fd5b50356001600160a01b03166103fa565b61017b6104cd565b6000546001600160a01b039081169116146101cb576040805162461bcd60e51b8152602060048201819052602482015260008051602061067d833981519152604482015290519081900360640190fd5b6001600160a01b03811660008181526001602052604081208054919055906101f390826104d1565b6040805182815290516001600160a01b038416917f7084f5476618d8e60b11ef0d7d3f06914655adb8793e28ff7f018d4c76d505d5919081900360200190a25050565b61023e6104cd565b6000546001600160a01b0390811691161461028e576040805162461bcd60e51b8152602060048201819052602482015260008051602061067d833981519152604482015290519081900360640190fd5b600080546040516001600160a01b03909116907f8be0079c531659141344cd1fd0a4f28419497f9722a3daafe3b4186f6b6457e0908390a3600080546001600160a01b0319169055565b6000546001600160a01b031690565b6001600160a01b031660009081526001602052604090205490565b61030a6104cd565b6000546001600160a01b0390811691161461035a576040805162461bcd60e51b8152602060048201819052602482015260008051602061067d833981519152604482015290519081900360640190fd5b6001600160a01b03811661039f5760405162461bcd60e51b815260040180806020018281038252602681526020018061061d6026913960400191505060405180910390fd5b600080546040516001600160a01b03808516939216917f8be0079c531659141344cd1fd0a4f28419497f9722a3daafe3b4186f6b6457e091a3600080546001600160a01b0319166001600160a01b0392909216919091179055565b6104026104cd565b6000546001600160a01b03908116911614610452576040805162461bcd60e51b8152602060048201819052602482015260008051602061067d833981519152604482015290519081900360640190fd5b6001600160a01b038116600090815260016020526040902054349061047790826105bb565b6001600160a01b038316600081815260016020908152604091829020939093558051848152905191927f2da466a7b24304f47e87fa2e1e5a81b9831ce54fec19055ce277ca2f39ba42c492918290030190a25050565b3390565b80471015610526576040805162461bcd60e51b815260206004820152601d60248201527f416464726573733a20696e73756666696369656e742062616c616e6365000000604482015290519081900360640190fd5b6040516000906001600160a01b0384169083908381818185875af1925050503d8060008114610571576040519150601f19603f3d011682016040523d82523d6000602084013e610576565b606091505b50509050806105b65760405162461bcd60e51b815260040180806020018281038252603a815260200180610643603a913960400191505060405180910390fd5b505050565b600082820183811015610615576040805162461bcd60e51b815260206004820152601b60248201527f536166654d6174683a206164646974696f6e206f766572666c6f770000000000604482015290519081900360640190fd5b939250505056fe4f776e61626c653a206e6577206f776e657220697320746865207a65726f2061646472657373416464726573733a20756e61626c6520746f2073656e642076616c75652c20726563697069656e74206d617920686176652072657665727465644f776e61626c653a2063616c6c6572206973206e6f7420746865206f776e6572a2646970667358221220ce7593b1fd52f5e0045357faf9c61da22b060b3a0787c0de4ada3b90d4b8255164736f6c634300060c0033",
  "immutableReferences": {},
  "source": "/*-----------------------------------------------------------V0.7.0\r\n__/\\\\\\\\\\\\\\\\\\\\\\\\\\ _____/\\\\\\\\\\\\\\\\\\ _______/\\\\../\\\\ ___/\\\\\\\\\\\\\\\\\\\\\\\\\\\\\\\r\n _\\/\\\\\\/////////\\\\\\ _/\\\\\\///////\\\\\\ ____\\//..\\//____\\/\\\\\\///////////__\r\n  _\\/\\\\\\.......\\/\\\\\\.\\/\\\\\\.....\\/\\\\\\ ________________\\/\\\\\\ ____________\r\n   _\\/\\\\\\\\\\\\\\\\\\\\\\\\\\/__\\/\\\\\\\\\\\\\\\\\\\\\\/_____/\\\\\\____/\\\\\\.\\/\\\\\\\\\\\\\\\\\\\\\\ ____\r\n    _\\/\\\\\\/////////____\\/\\\\\\//////\\\\\\ ___\\/\\\\\\___\\/\\\\\\.\\/\\\\\\///////______\r\n     _\\/\\\\\\ ____________\\/\\\\\\ ___\\//\\\\\\ __\\/\\\\\\___\\/\\\\\\.\\/\\\\\\ ____________\r\n      _\\/\\\\\\ ____________\\/\\\\\\ ____\\//\\\\\\ _\\/\\\\\\___\\/\\\\\\.\\/\\\\\\ ____________\r\n       _\\/\\\\\\ ____________\\/\\\\\\ _____\\//\\\\\\.\\//\\\\\\\\\\\\\\\\\\ _\\/\\\\\\ ____________\r\n        _\\/// _____________\\/// _______\\/// __\\///////// __\\/// _____________\r\n         *-------------------------------------------------------------------*/\r\n\r\n/*-----------------------------------------------------------------\r\n *  TO DO\r\n *\r\n *---------------------------------------------------------------*/\r\n\r\n// SPDX-License-Identifier: UNLICENSED\r\npragma solidity ^0.6.7;\r\n\r\nimport \"./PRUF_CORE.sol\";\r\n\r\ncontract NAKED is CORE {\r\n    uint256 importDiscount = 2;\r\n\r\n    /*\r\n     * @dev Sets import discount for this contract\r\n     */\r\n    function setImportDiscount(uint256 _importDiscount) external onlyOwner {\r\n        if (_importDiscount < 1) {\r\n            importDiscount = 1;\r\n        } else {\r\n            importDiscount = _importDiscount;\r\n        }\r\n    }\r\n\r\n    function mintNakedAsset(\r\n        bytes32 _idxHash,\r\n        bytes32 _hashedAuthCode, // token URI needs to be K256(packed( uint32 assetClass, string authCode)) supplied off chain\r\n        uint32 _assetClass\r\n    ) external nonReentrant whenNotPaused {\r\n        uint256 tokenId = uint256(_idxHash);\r\n        Record memory rec = getRecord(_idxHash);\r\n        uint8 userType = getCallingUserType(_assetClass);\r\n\r\n        require(\r\n            (AC_TKN.ownerOf(_assetClass) == msg.sender), //msg.sender is AC token holder\r\n            \"N:MNA:Caller does not hold AC token\"\r\n        );\r\n        require(\r\n            userType == 10,\r\n            \"N:MNA:user not authorized to mint naked assets\"\r\n        );\r\n        require(\r\n            rec.assetClass == 0, //verified as VALID\r\n            \"N:MNA: Asset already registered in system\"\r\n        );\r\n        //^^^^^^^checks^^^^^^^^^\r\n        string memory tokenURI;\r\n        bytes32 b32URI = keccak256(\r\n            abi.encodePacked(_hashedAuthCode, _assetClass)\r\n        );\r\n        tokenURI = uint256toString(uint256(b32URI));\r\n\r\n        A_TKN.mintAssetToken(address(this), tokenId, tokenURI); //mint a naked token\r\n\r\n        //^^^^^^^interactions / effects^^^^^^^^^^^^\r\n    }\r\n\r\n    /*\r\n     * @dev Import a record into a new asset class\r\n     */\r\n    function $claimNakedAsset(\r\n        bytes32 _idxHash,\r\n        string calldata _authCode,\r\n        uint32 _newAssetClass,\r\n        bytes32 _rgtHash,\r\n        uint32 _countDownStart\r\n    ) external payable nonReentrant whenNotPaused {\r\n        uint256 tokenId = uint256(_idxHash);\r\n        // Record memory rec = getRecord(_idxHash);\r\n        // ContractDataHash memory contractInfo = getContractInfo(\r\n        //     address(this),\r\n        //     rec.assetClass\r\n        // );\r\n\r\n        require(\r\n            A_TKN.ownerOf(tokenId) == address(this),\r\n            \"N:CNA: Token not found in PRUF_NAKED\"\r\n        );\r\n        //^^^^^^^checks^^^^^^^^^\r\n\r\n        A_TKN.validateNakedToken(tokenId, _newAssetClass, _authCode); //check supplied data matches tokenURI\r\n\r\n        STOR.newRecord(_idxHash, _rgtHash, _newAssetClass, _countDownStart); // Make a new record at the tokenId b32\r\n\r\n        A_TKN.setURI(tokenId, \"pruf.io\"); // set URI\r\n\r\n        A_TKN.safeTransferFrom(address(this), msg.sender, tokenId); // sends token from this holding contract to caller wallet\r\n\r\n        deductImportRecordCosts(_newAssetClass);\r\n\r\n        //^^^^^^^interactions / effects^^^^^^^^^^^^\r\n    }\r\n\r\n    function uint256toString(uint256 number)\r\n        public\r\n        pure\r\n        returns (string memory)\r\n    {\r\n        // Inspired by OraclizeAPI's implementation - MIT licence\r\n        // https://github.com/oraclize/ethereum-api/blob/b42146b063c7d6ee1358846c198246239e9360e8/oraclizeAPI_0.4.25.sol\r\n        // shamelessly jacked straight outa OpenZepplin  openzepplin.org\r\n\r\n        if (number == 0) {\r\n            return \"0\";\r\n        }\r\n        uint256 temp = number;\r\n        uint256 digits;\r\n        while (temp != 0) {\r\n            digits++;\r\n            temp /= 10;\r\n        }\r\n        bytes memory buffer = new bytes(digits);\r\n        uint256 index = digits - 1;\r\n        temp = number;\r\n        while (temp != 0) {\r\n            buffer[index--] = bytes1(uint8(48 + (temp % 10)));\r\n            temp /= 10;\r\n        }\r\n        return string(buffer);\r\n    }\r\n\r\n    function deductImportRecordCosts(uint32 _assetClass)\r\n        internal\r\n        whenNotPaused\r\n    {\r\n        //^^^^^^^checks^^^^^^^^^\r\n        Invoice memory pricing;\r\n        //^^^^^^^effects^^^^^^^^^\r\n        (\r\n            pricing.rootAddress,\r\n            pricing.rootPrice,\r\n            pricing.ACTHaddress,\r\n            pricing.ACTHprice\r\n        ) = AC_MGR.getServiceCosts(_assetClass, 1);\r\n\r\n        pricing.rootPrice = pricing.rootPrice.div(importDiscount);\r\n        pricing.ACTHprice = pricing.ACTHprice.div(importDiscount);\r\n\r\n        deductPayment(pricing);\r\n        //^^^^^^^interactions^^^^^^^^^\r\n    }\r\n}\r\n",
  "sourcePath": "C:\\Users\\drake\\onedrive\\documents\\dev\\pruf\\PRUF_TRUFFLE\\contracts\\PRUF_NAKED.sol",
  "compiler": {
    "name": "solc",
    "version": "0.6.12+commit.27d51765.Emscripten.clang"
  },
  "schemaVersion": "3.2.2",
  "updatedAt": "2020-09-16T15:05:08.104Z",
  "devdoc": {
    "kind": "dev",
    "methods": {
      "OO_pause()": {
        "details": "Triggers stopped state. (pausable)"
      },
      "OO_unpause()": {
        "details": "Returns to normal state. (pausable)"
      },
      "owner()": {
        "details": "Returns the address of the current owner."
      },
      "paused()": {
        "details": "Returns true if the contract is paused, and false otherwise."
      },
      "payments(address)": {
        "details": "Returns the payments owed to an address.",
        "params": {
          "dest": "The creditor's address."
        }
      },
      "renounceOwnership()": {
        "details": "Leaves the contract without owner. It will not be possible to call `onlyOwner` functions anymore. Can only be called by the current owner. NOTE: Renouncing ownership will leave the contract without an owner, thereby removing any functionality that is only available to the owner."
      },
      "transferOwnership(address)": {
        "details": "Transfers ownership of the contract to a new account (`newOwner`). Can only be called by the current owner."
      },
      "withdrawPayments(address)": {
        "details": "Withdraw accumulated payments, forwarding all gas to the recipient. Note that _any_ account can call this function, not just the `payee`. This means that contracts unaware of the `PullPayment` protocol can still receive funds this way, by having a separate account call {withdrawPayments}. WARNING: Forwarding all gas opens the door to reentrancy vulnerabilities. Make sure you trust the recipient, or are either following the checks-effects-interactions pattern or using {ReentrancyGuard}.",
        "params": {
          "payee": "Whose payments will be withdrawn."
        }
      }
    },
    "version": 1
  },
  "userdoc": {
    "kind": "user",
    "methods": {},
    "version": 1
  }
}