{
  "contractName": "NAKED",
  "abi": [
    {
      "anonymous": false,
      "inputs": [
        {
          "indexed": true,
          "internalType": "address",
          "name": "previousOwner",
          "type": "address"
        },
        {
          "indexed": true,
          "internalType": "address",
          "name": "newOwner",
          "type": "address"
        }
      ],
      "name": "OwnershipTransferred",
      "type": "event"
    },
    {
      "anonymous": false,
      "inputs": [
        {
          "indexed": false,
          "internalType": "address",
          "name": "account",
          "type": "address"
        }
      ],
      "name": "Paused",
      "type": "event"
    },
    {
      "anonymous": false,
      "inputs": [
        {
          "indexed": false,
          "internalType": "string",
          "name": "_msg",
          "type": "string"
        }
      ],
      "name": "REPORT",
      "type": "event"
    },
    {
      "anonymous": false,
      "inputs": [
        {
          "indexed": false,
          "internalType": "address",
          "name": "account",
          "type": "address"
        }
      ],
      "name": "Unpaused",
      "type": "event"
    },
    {
      "inputs": [],
      "name": "$withdraw",
      "outputs": [],
      "stateMutability": "payable",
      "type": "function"
    },
    {
      "inputs": [],
      "name": "OO_ResolveContractAddresses",
      "outputs": [],
      "stateMutability": "nonpayable",
      "type": "function"
    },
    {
      "inputs": [],
      "name": "OO_pause",
      "outputs": [],
      "stateMutability": "nonpayable",
      "type": "function"
    },
    {
      "inputs": [
        {
          "internalType": "address",
          "name": "_storageAddress",
          "type": "address"
        }
      ],
      "name": "OO_setStorageContract",
      "outputs": [],
      "stateMutability": "nonpayable",
      "type": "function"
    },
    {
      "inputs": [
        {
          "internalType": "address",
          "name": "_to",
          "type": "address"
        },
        {
          "internalType": "bytes32",
          "name": "_idxHash",
          "type": "bytes32"
        }
      ],
      "name": "OO_transferACToken",
      "outputs": [],
      "stateMutability": "nonpayable",
      "type": "function"
    },
    {
      "inputs": [],
      "name": "OO_unpause",
      "outputs": [],
      "stateMutability": "nonpayable",
      "type": "function"
    },
    {
      "inputs": [
        {
          "internalType": "address",
          "name": "",
          "type": "address"
        },
        {
          "internalType": "address",
          "name": "",
          "type": "address"
        },
        {
          "internalType": "uint256",
          "name": "",
          "type": "uint256"
        },
        {
          "internalType": "bytes",
          "name": "",
          "type": "bytes"
        }
      ],
      "name": "onERC721Received",
      "outputs": [
        {
          "internalType": "bytes4",
          "name": "",
          "type": "bytes4"
        }
      ],
      "stateMutability": "nonpayable",
      "type": "function"
    },
    {
      "inputs": [],
      "name": "owner",
      "outputs": [
        {
          "internalType": "address",
          "name": "",
          "type": "address"
        }
      ],
      "stateMutability": "view",
      "type": "function"
    },
    {
      "inputs": [],
      "name": "paused",
      "outputs": [
        {
          "internalType": "bool",
          "name": "",
          "type": "bool"
        }
      ],
      "stateMutability": "view",
      "type": "function"
    },
    {
      "inputs": [
        {
          "internalType": "address",
          "name": "dest",
          "type": "address"
        }
      ],
      "name": "payments",
      "outputs": [
        {
          "internalType": "uint256",
          "name": "",
          "type": "uint256"
        }
      ],
      "stateMutability": "view",
      "type": "function"
    },
    {
      "inputs": [],
      "name": "renounceOwnership",
      "outputs": [],
      "stateMutability": "nonpayable",
      "type": "function"
    },
    {
      "inputs": [
        {
          "internalType": "address",
          "name": "_to",
          "type": "address"
        },
        {
          "internalType": "bytes32",
          "name": "_idxHash",
          "type": "bytes32"
        }
      ],
      "name": "transferAssetToken",
      "outputs": [],
      "stateMutability": "nonpayable",
      "type": "function"
    },
    {
      "inputs": [
        {
          "internalType": "address",
          "name": "newOwner",
          "type": "address"
        }
      ],
      "name": "transferOwnership",
      "outputs": [],
      "stateMutability": "nonpayable",
      "type": "function"
    },
    {
      "inputs": [
        {
          "internalType": "address payable",
          "name": "payee",
          "type": "address"
        }
      ],
      "name": "withdrawPayments",
      "outputs": [],
      "stateMutability": "nonpayable",
      "type": "function"
    },
    {
      "inputs": [
        {
          "internalType": "uint256",
          "name": "_importDiscount",
          "type": "uint256"
        }
      ],
      "name": "setImportDiscount",
      "outputs": [],
      "stateMutability": "nonpayable",
      "type": "function"
    },
    {
      "inputs": [
        {
          "internalType": "bytes32",
          "name": "_idxHash",
          "type": "bytes32"
        },
        {
          "internalType": "bytes32",
          "name": "_hashedAuthCode",
          "type": "bytes32"
        },
        {
          "internalType": "uint256",
          "name": "_assetClass",
          "type": "uint256"
        }
      ],
      "name": "mintNakedAsset",
      "outputs": [],
      "stateMutability": "nonpayable",
      "type": "function"
    },
    {
      "inputs": [
        {
          "internalType": "bytes32",
          "name": "_idxHash",
          "type": "bytes32"
        },
        {
          "internalType": "string",
          "name": "_authCode",
          "type": "string"
        },
        {
          "internalType": "uint256",
          "name": "_newAssetClass",
          "type": "uint256"
        },
        {
          "internalType": "bytes32",
          "name": "_rgtHash",
          "type": "bytes32"
        },
        {
          "internalType": "uint256",
          "name": "_countDownStart",
          "type": "uint256"
        }
      ],
      "name": "$claimNakedAsset",
      "outputs": [],
      "stateMutability": "payable",
      "type": "function"
    },
    {
      "inputs": [
        {
          "internalType": "uint256",
          "name": "number",
          "type": "uint256"
        }
      ],
      "name": "uint256toString",
      "outputs": [
        {
          "internalType": "string",
          "name": "",
          "type": "string"
        }
      ],
      "stateMutability": "pure",
      "type": "function"
    }
  ],
  "bytecode": "0x608060405260026014553480156200001657600080fd5b506040516200002590620000d6565b604051809103906000f08015801562000042573d6000803e3d6000fd5b50600080546001600160a01b0319166001600160a01b03929092169190911781556001805562000071620000d2565b600280546001600160a01b0319166001600160a01b038316908117909155604051919250906000907f8be0079c531659141344cd1fd0a4f28419497f9722a3daafe3b4186f6b6457e0908290a3506002805460ff60a01b19169055620000e4565b3390565b610764806200276283390190565b61266e80620000f46000396000f3fe6080604052600436106101095760003560e01c80638da5cb5b11610095578063cf2b6f6611610064578063cf2b6f661461045c578063d6b02ecf14610471578063e2982c21146104a4578063f2fde38b146104e9578063f8fde9d71461051c57610109565b80638da5cb5b1461033e578063961e809b1461036f578063c79b226e14610384578063ca516341146103bd57610109565b8063440e7a7e116100dc578063440e7a7e1461022f5780634b9f23a4146102685780635c975abb1461027d578063646bb121146102a6578063715018a61461032957610109565b8063150b7a021461010e5780632cb741aa146101c857806331b3eb94146101d2578063424ff81e14610205575b600080fd5b34801561011a57600080fd5b506101ab6004803603608081101561013157600080fd5b6001600160a01b0382358116926020810135909116916040820135919081019060808101606082013564010000000081111561016c57600080fd5b82018360208201111561017e57600080fd5b803590602001918460018302840111640100000000831117156101a057600080fd5b509092509050610552565b604080516001600160e01b03199092168252519081900360200190f35b6101d0610563565b005b3480156101de57600080fd5b506101d0600480360360208110156101f557600080fd5b50356001600160a01b03166105bd565b34801561021157600080fd5b506101d06004803603602081101561022857600080fd5b5035610623565b34801561023b57600080fd5b506101d06004803603604081101561025257600080fd5b506001600160a01b038135169060200135610697565b34801561027457600080fd5b506101d06107cd565b34801561028957600080fd5b50610292610dfa565b604080519115158252519081900360200190f35b6101d0600480360360a08110156102bc57600080fd5b813591908101906040810160208201356401000000008111156102de57600080fd5b8201836020820111156102f057600080fd5b8035906020019184600183028401116401000000008311171561031257600080fd5b919350915080359060208101359060400135610e0a565b34801561033557600080fd5b506101d06111fc565b34801561034a57600080fd5b5061035361129e565b604080516001600160a01b039092168252519081900360200190f35b34801561037b57600080fd5b506101d06112ad565b34801561039057600080fd5b506101d0600480360360408110156103a757600080fd5b506001600160a01b03813516906020013561130f565b3480156103c957600080fd5b506103e7600480360360208110156103e057600080fd5b5035611410565b6040805160208082528351818301528351919283929083019185019080838360005b83811015610421578181015183820152602001610409565b50505050905090810190601f16801561044e5780820380516001836020036101000a031916815260200191505b509250505060405180910390f35b34801561046857600080fd5b506101d06114ed565b34801561047d57600080fd5b506101d06004803603602081101561049457600080fd5b50356001600160a01b031661154d565b3480156104b057600080fd5b506104d7600480360360208110156104c757600080fd5b50356001600160a01b031661160c565b60408051918252519081900360200190f35b3480156104f557600080fd5b506101d06004803603602081101561050c57600080fd5b50356001600160a01b031661168c565b34801561052857600080fd5b506101d06004803603606081101561053f57600080fd5b5080359060208101359060400135611785565b630a85bd0160e11b95945050505050565b600260015414156105a9576040805162461bcd60e51b815260206004820152601f60248201526000805160206124b1833981519152604482015290519081900360640190fd5b60026001556105b7336105bd565b60018055565b60008054604080516351cff8d960e01b81526001600160a01b038581166004830152915191909216926351cff8d9926024808201939182900301818387803b15801561060857600080fd5b505af115801561061c573d6000803e3d6000fd5b5050505050565b61062b611b85565b6002546001600160a01b0390811691161461067b576040805162461bcd60e51b81526020600482018190526024820152600080516020612569833981519152604482015290519081900360640190fd5b600181101561068e576001601455610694565b60148190555b50565b600260015414156106dd576040805162461bcd60e51b815260206004820152601f60248201526000805160206124b1833981519152604482015290519081900360640190fd5b60026001556106ea61129e565b6001600160a01b0316336001600160a01b0316148061071357506013546001600160a01b031633145b61074e5760405162461bcd60e51b815260040180806020018281038252602781526020018061251c6027913960400191505060405180910390fd5b60085460408051632142170760e11b81523060048201526001600160a01b038581166024830152604482018590529151849392909216916342842e0e9160648082019260009290919082900301818387803b1580156107ac57600080fd5b505af11580156107c0573d6000803e3d6000fd5b5050600180555050505050565b60026001541415610813576040805162461bcd60e51b815260206004820152601f60248201526000805160206124b1833981519152604482015290519081900360640190fd5b6002600155610820611b85565b6002546001600160a01b03908116911614610870576040805162461bcd60e51b81526020600482018190526024820152600080516020612569833981519152604482015290519081900360640190fd5b60048054604080516363b8d4c160e11b81526020938101849052600660248201526520a1afaa25a760d11b604482015290516001600160a01b039092169263c771a982926064808401938290030181600087803b1580156108d057600080fd5b505af11580156108e4573d6000803e3d6000fd5b505050506040513d60208110156108fa57600080fd5b5051600980546001600160a01b039283166001600160a01b03199182161791829055600a805490911691831691909117905560048054604080516363b8d4c160e11b81526020938101849052600660248201526520a1afa6a3a960d11b60448201529051919093169263c771a9829260648083019391928290030181600087803b15801561098757600080fd5b505af115801561099b573d6000803e3d6000fd5b505050506040513d60208110156109b157600080fd5b5051600580546001600160a01b039283166001600160a01b0319918216178083556006805490921690841617905560048054604080516363b8d4c160e11b8152602093810184905260248101949094526420afaa25a760d91b60448501525193169263c771a9829260648082019392918290030181600087803b158015610a3757600080fd5b505af1158015610a4b573d6000803e3d6000fd5b505050506040513d6020811015610a6157600080fd5b5051600780546001600160a01b039283166001600160a01b0319918216178083556008805490921690841617905560048054604080516363b8d4c160e11b8152602093810184905260248101949094526622a1a92fa6a3a960c91b60448501525193169263c771a9829260648082019392918290030181600087803b158015610ae957600080fd5b505af1158015610afd573d6000803e3d6000fd5b505050506040513d6020811015610b1357600080fd5b5051600b80546001600160a01b039283166001600160a01b03199182161791829055600c805490911691831691909117905560048054604080516363b8d4c160e11b81526020938101849052600360248201526204150560ec1b60448201529051919093169263c771a9829260648083019391928290030181600087803b158015610b9d57600080fd5b505af1158015610bb1573d6000803e3d6000fd5b505050506040513d6020811015610bc757600080fd5b5051600f80546001600160a01b039283166001600160a01b031991821617918290556010805490911691831691909117905560048054604080516363b8d4c160e11b815260208185018190526024820194909452632921a62960e11b60448201529051919093169263c771a9829260648083019391928290030181600087803b158015610c5357600080fd5b505af1158015610c67573d6000803e3d6000fd5b505050506040513d6020811015610c7d57600080fd5b5051600d80546001600160a01b039283166001600160a01b03199182161791829055600e805490911691831691909117905560048054604080516363b8d4c160e11b8152602093810184905260066024820152654150505f4e4360d01b60448201529051919093169263c771a9829260648083019391928290030181600087803b158015610d0a57600080fd5b505af1158015610d1e573d6000803e3d6000fd5b505050506040513d6020811015610d3457600080fd5b5051601280546001600160a01b0319166001600160a01b0392831617905560048054604080516363b8d4c160e11b81526020938101849052600260248201526104e560f41b60448201529051919093169263c771a9829260648083019391928290030181600087803b158015610da957600080fd5b505af1158015610dbd573d6000803e3d6000fd5b505050506040513d6020811015610dd357600080fd5b5051601380546001600160a01b0319166001600160a01b0390921691909117905560018055565b600254600160a01b900460ff1690565b60026001541415610e50576040805162461bcd60e51b815260206004820152601f60248201526000805160206124b1833981519152604482015290519081900360640190fd5b6002600181905554600160a01b900460ff1615610ea7576040805162461bcd60e51b815260206004820152601060248201526f14185d5cd8589b194e881c185d5cd95960821b604482015290519081900360640190fd5b85610eb0612413565b610eb988611b89565b9050610ec361245f565b610ed1308360600151611ce2565b600854604080516331a9108f60e11b815260048101879052905192935030926001600160a01b0390921691636352211e916024808201926020929091908290030181600087803b158015610f2457600080fd5b505af1158015610f38573d6000803e3d6000fd5b505050506040513d6020811015610f4e57600080fd5b50516001600160a01b031614610f955760405162461bcd60e51b81526004018080602001828103825260268152602001806125436026913960400191505060405180910390fd5b805160ff16610fd55760405162461bcd60e51b81526004018080602001828103825260368152602001806125e06036913960400191505060405180910390fd5b6008546040516327d9b08360e21b81526004810185815260248201899052606060448301908152606483018b90526001600160a01b0390931692639f66c20c9287928b928e928e929190608401848480828437600081840152601f19601f82011690508083019250505095505050505050600060405180830381600087803b15801561106057600080fd5b505af1158015611074573d6000803e3d6000fd5b50506004805460408051631d11c70f60e11b81529283018e9052602483018a9052604483018b905260648301899052516001600160a01b039091169350633a238e1e9250608480830192600092919082900301818387803b1580156110d857600080fd5b505af11580156110ec573d6000803e3d6000fd5b505060085460408051634312207160e11b815260048101889052602481018290526007604482015266707275662e696f60c81b606482015290516001600160a01b03909216935063862440e2925060848082019260009290919082900301818387803b15801561115b57600080fd5b505af115801561116f573d6000803e3d6000fd5b505060085460408051632142170760e11b81523060048201523360248201526044810188905290516001600160a01b0390921693506342842e0e925060648082019260009290919082900301818387803b1580156111cc57600080fd5b505af11580156111e0573d6000803e3d6000fd5b505050506111ed86611d8e565b50506001805550505050505050565b611204611b85565b6002546001600160a01b03908116911614611254576040805162461bcd60e51b81526020600482018190526024820152600080516020612569833981519152604482015290519081900360640190fd5b6002546040516000916001600160a01b0316907f8be0079c531659141344cd1fd0a4f28419497f9722a3daafe3b4186f6b6457e0908390a3600280546001600160a01b0319169055565b6002546001600160a01b031690565b6112b5611b85565b6002546001600160a01b03908116911614611305576040805162461bcd60e51b81526020600482018190526024820152600080516020612569833981519152604482015290519081900360640190fd5b61130d611ed6565b565b611317611b85565b6002546001600160a01b03908116911614611367576040805162461bcd60e51b81526020600482018190526024820152600080516020612569833981519152604482015290519081900360640190fd5b600260015414156113ad576040805162461bcd60e51b815260206004820152601f60248201526000805160206124b1833981519152604482015290519081900360640190fd5b6002600155600a5460408051632142170760e11b81523060048201526001600160a01b038581166024830152604482018590529151849392909216916342842e0e9160648082019260009290919082900301818387803b1580156107ac57600080fd5b60608161143557506040805180820190915260018152600360fc1b60208201526114e8565b8160005b811561144d57600101600a82049150611439565b60608167ffffffffffffffff8111801561146657600080fd5b506040519080825280601f01601f191660200182016040528015611491576020820181803683370190505b50859350905060001982015b83156114e257600a840660300160f81b828280600190039350815181106114c057fe5b60200101906001600160f81b031916908160001a905350600a8404935061149d565b50925050505b919050565b6114f5611b85565b6002546001600160a01b03908116911614611545576040805162461bcd60e51b81526020600482018190526024820152600080516020612569833981519152604482015290519081900360640190fd5b61130d611f7e565b611555611b85565b6002546001600160a01b039081169116146115a5576040805162461bcd60e51b81526020600482018190526024820152600080516020612569833981519152604482015290519081900360640190fd5b6001600160a01b0381166115ea5760405162461bcd60e51b81526004018080602001828103825260258152602001806124f76025913960400191505060405180910390fd5b600480546001600160a01b0319166001600160a01b0392909216919091179055565b60008054604080516371d4ed8d60e11b81526001600160a01b0385811660048301529151919092169163e3a9db1a916024808301926020929190829003018186803b15801561165a57600080fd5b505afa15801561166e573d6000803e3d6000fd5b505050506040513d602081101561168457600080fd5b505192915050565b611694611b85565b6002546001600160a01b039081169116146116e4576040805162461bcd60e51b81526020600482018190526024820152600080516020612569833981519152604482015290519081900360640190fd5b6001600160a01b0381166117295760405162461bcd60e51b81526004018080602001828103825260268152602001806124d16026913960400191505060405180910390fd5b6002546040516001600160a01b038084169216907f8be0079c531659141344cd1fd0a4f28419497f9722a3daafe3b4186f6b6457e090600090a3600280546001600160a01b0319166001600160a01b0392909216919091179055565b600260015414156117cb576040805162461bcd60e51b815260206004820152601f60248201526000805160206124b1833981519152604482015290519081900360640190fd5b6002600181905554600160a01b900460ff1615611822576040805162461bcd60e51b815260206004820152601060248201526f14185d5cd8589b194e881c185d5cd95960821b604482015290519081900360640190fd5b8261182b612413565b61183485611b89565b905060006118418461200c565b600a54604080516331a9108f60e11b815260048101889052905192935033926001600160a01b0390921691636352211e91602480820192602092909190829003018186803b15801561189257600080fd5b505afa1580156118a6573d6000803e3d6000fd5b505050506040513d60208110156118bc57600080fd5b50516001600160a01b0316146119035760405162461bcd60e51b81526004018080602001828103825260238152602001806126166023913960400191505060405180910390fd5b8060ff16600a146119455760405162461bcd60e51b815260040180806020018281038252602e8152602001806125b2602e913960400191505060405180910390fd5b6008546040805162491fcf60e11b81526004810186905290516001600160a01b039092169162923f9e916024808201926020929091908290030181600087803b15801561199157600080fd5b505af11580156119a5573d6000803e3d6000fd5b505050506040513d60208110156119bb57600080fd5b505160ff1615611a12576040805162461bcd60e51b815260206004820152601b60248201527f4e3a4d4e413a20546f6b656e20616c7265616479206578697374730000000000604482015290519081900360640190fd5b606082015115611a535760405162461bcd60e51b81526004018080602001828103825260298152602001806125896029913960400191505060405180910390fd5b60408051602080820188905281830187905282518083038401815260609283019093528251920191909120611a8781611410565b6008546040516354a19c2b60e01b81523060048201818152602483018a90526060604484019081528551606485015285519597506001600160a01b03909416946354a19c2b9492938b93899392909160840190602085019080838360005b83811015611afd578181015183820152602001611ae5565b50505050905090810190601f168015611b2a5780820380516001836020036101000a031916815260200191505b50945050505050602060405180830381600087803b158015611b4b57600080fd5b505af1158015611b5f573d6000803e3d6000fd5b505050506040513d6020811015611b7557600080fd5b5050600180555050505050505050565b3390565b611b91612413565b611b99612413565b6000806000806000806000600460009054906101000a90046001600160a01b03166001600160a01b031663e248f2c48b6040518263ffffffff1660e01b81526004018082815260200191505060e060405180830381600087803b158015611bff57600080fd5b505af1158015611c13573d6000803e3d6000fd5b505050506040513d60e0811015611c2957600080fd5b810190808051906020019092919080519060200190929190805190602001909291908051906020019092919080519060200190929190805190602001909291908051906020019092919050505096509650965096509650965096508688600001818152505085886020019060ff16908160ff16815250508488606001818152505083886080018181525050828860a0018181525050818860c0018181525050808860e00181815250505050505050505080915050919050565b611cea61245f565b611cf261245f565b600480546040805163caa496a960e01b81526001600160a01b0388811694820194909452602481018790528151939092169263caa496a99260448082019392918290030181600087803b158015611d4857600080fd5b505af1158015611d5c573d6000803e3d6000fd5b505050506040513d6040811015611d7257600080fd5b5080516020918201519183019190915260ff1681529392505050565b600254600160a01b900460ff1615611de0576040805162461bcd60e51b815260206004820152601060248201526f14185d5cd8589b194e881c185d5cd95960821b604482015290519081900360640190fd5b611de8612476565b6006546040805163bbe4b97960e01b81526004810185905290516001600160a01b039092169163bbe4b979916024808201926080929091908290030181600087803b158015611e3657600080fd5b505af1158015611e4a573d6000803e3d6000fd5b505050506040513d6080811015611e6057600080fd5b508051602080830151604080850151606095860151958701959095526001600160a01b039485169086015290840181905291168252601454611ea8919063ffffffff6120b816565b60208201526014546060820151611ec49163ffffffff6120b816565b6060820152611ed281612101565b5050565b600254600160a01b900460ff16611f2b576040805162461bcd60e51b815260206004820152601460248201527314185d5cd8589b194e881b9bdd081c185d5cd95960621b604482015290519081900360640190fd5b6002805460ff60a01b191690557f5db9ee0a495bf2e6ff9c91a7834c1ba4fdd244a5e8aa4e537bd38aeae4b073aa611f61611b85565b604080516001600160a01b039092168252519081900360200190a1565b600254600160a01b900460ff1615611fd0576040805162461bcd60e51b815260206004820152601060248201526f14185d5cd8589b194e881c185d5cd95960821b604482015290519081900360640190fd5b6002805460ff60a01b1916600160a01b1790557f62e78cea01bee320cd4e420270b5ea74000d11b0c9f74754ebdbfc544b05a258611f61611b85565b600654604080513360601b6020808301919091528251808303601401815260348301808552815191830191909120633651658f60e01b909152603883015260588201859052915160009384936001600160a01b0390911692633651658f9260788083019392829003018186803b15801561208557600080fd5b505afa158015612099573d6000803e3d6000fd5b505050506040513d60208110156120af57600080fd5b50519392505050565b60006120fa83836040518060400160405280601a81526020017f536166654d6174683a206469766973696f6e206279207a65726f000000000000815250612211565b9392505050565b600254600160a01b900460ff1615612153576040805162461bcd60e51b815260206004820152601060248201526f14185d5cd8589b194e881c185d5cd95960821b604482015290519081900360640190fd5b6060810151602082015134916000918291612174919063ffffffff6122b316565b9050803410156121cb576040805162461bcd60e51b815260206004820152601760248201527f433a44503a2054582076616c756520746f6f206c6f772e000000000000000000604482015290519081900360640190fd5b6121db838263ffffffff61230d16565b91506121ef8460000151856020015161234f565b6122018460400151856060015161234f565b61220b338361234f565b50505050565b6000818361229d5760405162461bcd60e51b81526004018080602001828103825283818151815260200191508051906020019080838360005b8381101561226257818101518382015260200161224a565b50505050905090810190601f16801561228f5780820380516001836020036101000a031916815260200191505b509250505060405180910390fd5b5060008385816122a957fe5b0495945050505050565b6000828201838110156120fa576040805162461bcd60e51b815260206004820152601b60248201527f536166654d6174683a206164646974696f6e206f766572666c6f770000000000604482015290519081900360640190fd5b60006120fa83836040518060400160405280601e81526020017f536166654d6174683a207375627472616374696f6e206f766572666c6f7700008152506123b9565b600080546040805163f340fa0160e01b81526001600160a01b0386811660048301529151919092169263f340fa019285926024808301939282900301818588803b15801561239c57600080fd5b505af11580156123b0573d6000803e3d6000fd5b50505050505050565b6000818484111561240b5760405162461bcd60e51b815260206004820181815283516024840152835190928392604490910191908501908083836000831561226257818101518382015260200161224a565b505050900390565b6040805161012081018252600080825260208201819052918101829052606081018290526080810182905260a0810182905260c0810182905260e0810182905261010081019190915290565b604080518082019091526000808252602082015290565b604051806080016040528060006001600160a01b031681526020016000815260200160006001600160a01b0316815260200160008152509056fe5265656e7472616e637947756172643a207265656e7472616e742063616c6c004f776e61626c653a206e6577206f776e657220697320746865207a65726f2061646472657373423a5353433a2073746f7261676520616464726573732063616e6e6f74206265207a65726f50423a54583a496e76616c69642063616c6c657220666f72207472616e7366657220746f6b656e504e503a494e413a20546f6b656e206e6f7420666f756e6420696e20505255465f4e414b45444f776e61626c653a2063616c6c6572206973206e6f7420746865206f776e65724e3a4d4e413a20417373657420616c7265616479207265676973746572656420696e2073797374656d4e3a4d4e413a75736572206e6f7420617574686f72697a656420746f206d696e74206e616b656420617373657473504e503a494e413a205468697320636f6e7472616374206e6f7420617574686f72697a656420666f72207370656369666965642041434e3a4d4e413a43616c6c657220646f6573206e6f7420686f6c6420414320746f6b656ea264697066735822122012f42348c87fb54146f973f79faac7d80902d540e03fc0d4113223d22dfe694564736f6c63430006090033608060405234801561001057600080fd5b5060006100246001600160e01b0361007316565b600080546001600160a01b0319166001600160a01b0383169081178255604051929350917f8be0079c531659141344cd1fd0a4f28419497f9722a3daafe3b4186f6b6457e0908290a350610077565b3390565b6106de806100866000396000f3fe6080604052600436106100555760003560e01c806351cff8d91461005a578063715018a61461008f5780638da5cb5b146100a4578063e3a9db1a146100d5578063f2fde38b1461011a578063f340fa011461014d575b600080fd5b34801561006657600080fd5b5061008d6004803603602081101561007d57600080fd5b50356001600160a01b0316610173565b005b34801561009b57600080fd5b5061008d61023c565b3480156100b057600080fd5b506100b96102de565b604080516001600160a01b039092168252519081900360200190f35b3480156100e157600080fd5b50610108600480360360208110156100f857600080fd5b50356001600160a01b03166102ed565b60408051918252519081900360200190f35b34801561012657600080fd5b5061008d6004803603602081101561013d57600080fd5b50356001600160a01b0316610308565b61008d6004803603602081101561016357600080fd5b50356001600160a01b0316610400565b61017b6104d9565b6000546001600160a01b039081169116146101cb576040805162461bcd60e51b81526020600482018190526024820152600080516020610689833981519152604482015290519081900360640190fd5b6001600160a01b03811660008181526001602052604081208054919055906101f9908263ffffffff6104dd16565b6040805182815290516001600160a01b038416917f7084f5476618d8e60b11ef0d7d3f06914655adb8793e28ff7f018d4c76d505d5919081900360200190a25050565b6102446104d9565b6000546001600160a01b03908116911614610294576040805162461bcd60e51b81526020600482018190526024820152600080516020610689833981519152604482015290519081900360640190fd5b600080546040516001600160a01b03909116907f8be0079c531659141344cd1fd0a4f28419497f9722a3daafe3b4186f6b6457e0908390a3600080546001600160a01b0319169055565b6000546001600160a01b031690565b6001600160a01b031660009081526001602052604090205490565b6103106104d9565b6000546001600160a01b03908116911614610360576040805162461bcd60e51b81526020600482018190526024820152600080516020610689833981519152604482015290519081900360640190fd5b6001600160a01b0381166103a55760405162461bcd60e51b81526004018080602001828103825260268152602001806106296026913960400191505060405180910390fd5b600080546040516001600160a01b03808516939216917f8be0079c531659141344cd1fd0a4f28419497f9722a3daafe3b4186f6b6457e091a3600080546001600160a01b0319166001600160a01b0392909216919091179055565b6104086104d9565b6000546001600160a01b03908116911614610458576040805162461bcd60e51b81526020600482018190526024820152600080516020610689833981519152604482015290519081900360640190fd5b6001600160a01b0381166000908152600160205260409020543490610483908263ffffffff6105c716565b6001600160a01b038316600081815260016020908152604091829020939093558051848152905191927f2da466a7b24304f47e87fa2e1e5a81b9831ce54fec19055ce277ca2f39ba42c492918290030190a25050565b3390565b80471015610532576040805162461bcd60e51b815260206004820152601d60248201527f416464726573733a20696e73756666696369656e742062616c616e6365000000604482015290519081900360640190fd5b6040516000906001600160a01b0384169083908381818185875af1925050503d806000811461057d576040519150601f19603f3d011682016040523d82523d6000602084013e610582565b606091505b50509050806105c25760405162461bcd60e51b815260040180806020018281038252603a81526020018061064f603a913960400191505060405180910390fd5b505050565b600082820183811015610621576040805162461bcd60e51b815260206004820152601b60248201527f536166654d6174683a206164646974696f6e206f766572666c6f770000000000604482015290519081900360640190fd5b939250505056fe4f776e61626c653a206e6577206f776e657220697320746865207a65726f2061646472657373416464726573733a20756e61626c6520746f2073656e642076616c75652c20726563697069656e74206d617920686176652072657665727465644f776e61626c653a2063616c6c6572206973206e6f7420746865206f776e6572a2646970667358221220a00d6aa6d96b7e14cf44ef151b801d41a0d6f22be9568d55aded0e5dc41900ac64736f6c63430006090033",
  "source": "/*-----------------------------------------------------------V0.6.8\r\n__/\\\\\\\\\\\\\\\\\\\\\\\\\\ _____/\\\\\\\\\\\\\\\\\\ _______/\\\\../\\\\ ___/\\\\\\\\\\\\\\\\\\\\\\\\\\\\\\\r\n _\\/\\\\\\/////////\\\\\\ _/\\\\\\///////\\\\\\ ____\\//..\\//____\\/\\\\\\///////////__\r\n  _\\/\\\\\\.......\\/\\\\\\.\\/\\\\\\.....\\/\\\\\\ ________________\\/\\\\\\ ____________\r\n   _\\/\\\\\\\\\\\\\\\\\\\\\\\\\\/__\\/\\\\\\\\\\\\\\\\\\\\\\/_____/\\\\\\____/\\\\\\.\\/\\\\\\\\\\\\\\\\\\\\\\ ____\r\n    _\\/\\\\\\/////////____\\/\\\\\\//////\\\\\\ ___\\/\\\\\\___\\/\\\\\\.\\/\\\\\\///////______\r\n     _\\/\\\\\\ ____________\\/\\\\\\ ___\\//\\\\\\ __\\/\\\\\\___\\/\\\\\\.\\/\\\\\\ ____________\r\n      _\\/\\\\\\ ____________\\/\\\\\\ ____\\//\\\\\\ _\\/\\\\\\___\\/\\\\\\.\\/\\\\\\ ____________\r\n       _\\/\\\\\\ ____________\\/\\\\\\ _____\\//\\\\\\.\\//\\\\\\\\\\\\\\\\\\ _\\/\\\\\\ ____________\r\n        _\\/// _____________\\/// _______\\/// __\\///////// __\\/// _____________\r\n         *-------------------------------------------------------------------*/\r\n\r\n/*-----------------------------------------------------------------\r\n *  TO DO\r\n *\r\n *---------------------------------------------------------------*/\r\n\r\n// SPDX-License-Identifier: UNLICENSED\r\npragma solidity ^0.6.7;\r\n\r\nimport \"./PRUF_CORE.sol\";\r\n\r\ncontract NAKED is CORE {\r\n    uint256 importDiscount = 2;\r\n\r\n    /*\r\n     * @dev Sets import discount for this contract\r\n     */\r\n    function setImportDiscount(uint256 _importDiscount) external onlyOwner {\r\n        if (_importDiscount < 1) {\r\n            importDiscount = 1;\r\n        } else {\r\n            importDiscount = _importDiscount;\r\n        }\r\n    }\r\n\r\n    function mintNakedAsset(\r\n        bytes32 _idxHash,\r\n        bytes32 _hashedAuthCode, // token URI needs to be K256(packed( uint256 assetClass, string authCode)) supplied off chain\r\n        uint256 _assetClass\r\n    ) external nonReentrant whenNotPaused {\r\n        uint256 tokenId = uint256(_idxHash);\r\n        Record memory rec = getRecord(_idxHash);\r\n        uint8 userType = getUserType(_assetClass);\r\n\r\n        require(\r\n            (AC_TKN.ownerOf(_assetClass) == msg.sender), //msg.sender is AC token holder\r\n            \"N:MNA:Caller does not hold AC token\"\r\n        );\r\n        require(userType == 10,\"N:MNA:user not authorized to mint naked assets\");\r\n        require(\r\n            A_TKN.tokenExists(tokenId) == 0,\r\n            \"N:MNA: Token already exists\"\r\n        );\r\n        require(\r\n            rec.assetClass == 0,    //verified as non-redundant\r\n            \"N:MNA: Asset already registered in system\"\r\n        );\r\n        //^^^^^^^checks^^^^^^^^^\r\n        string memory tokenURI;\r\n        bytes32 b32URI = keccak256(abi.encodePacked(_hashedAuthCode, _assetClass));\r\n        tokenURI = uint256toString(uint256(b32URI));\r\n\r\n\r\n        A_TKN.mintAssetToken(address(this), tokenId, tokenURI); //mint a naked token\r\n\r\n        //^^^^^^^interactions / effects^^^^^^^^^^^^\r\n    }\r\n\r\n    /*\r\n     * @dev Import a record into a new asset class\r\n     */\r\n    function $claimNakedAsset(\r\n        bytes32 _idxHash,\r\n        string calldata _authCode,\r\n        uint256 _newAssetClass,\r\n        bytes32 _rgtHash,\r\n        uint256 _countDownStart\r\n    ) external payable nonReentrant whenNotPaused {\r\n        uint256 tokenId = uint256(_idxHash);\r\n        Record memory rec = getRecord(_idxHash);\r\n        ContractDataHash memory contractInfo = getContractInfo(\r\n            address(this),\r\n            rec.assetClass\r\n        );\r\n\r\n        require(\r\n            A_TKN.ownerOf(tokenId) == address(this),\r\n            \"PNP:INA: Token not found in PRUF_NAKED\"\r\n        );\r\n        require(\r\n            contractInfo.contractType > 0,\r\n            \"PNP:INA: This contract not authorized for specified AC\"\r\n        );\r\n        // require( //redundant\r\n        //     rec.assetClass == 0,\r\n        //     \"PNP:INA: Asset already registered in system\"\r\n        // );\r\n        //^^^^^^^checks^^^^^^^^^\r\n\r\n        A_TKN.validateNakedToken(tokenId, _newAssetClass, _authCode); //Verify supplied data matches tokenURI\r\n\r\n        STOR.newRecord(_idxHash, _rgtHash, _newAssetClass, _countDownStart); // Make a new record at the tokenId b32\r\n\r\n        A_TKN.setURI(tokenId, \"pruf.io\"); // set URI\r\n\r\n        A_TKN.safeTransferFrom(address(this), msg.sender, tokenId); // sends token from this holding contract to caller wallet\r\n\r\n        deductImportRecordCosts(_newAssetClass);\r\n\r\n        //^^^^^^^interactions / effects^^^^^^^^^^^^\r\n    }\r\n\r\n\r\n    function uint256toString(uint256 number)\r\n        public\r\n        pure\r\n        returns (string memory)\r\n    {\r\n        // Inspired by OraclizeAPI's implementation - MIT licence\r\n        // https://github.com/oraclize/ethereum-api/blob/b42146b063c7d6ee1358846c198246239e9360e8/oraclizeAPI_0.4.25.sol\r\n        // shamelessly jacked straight outa OpenZepplin  openzepplin.org\r\n\r\n        if (number == 0) {\r\n            return \"0\";\r\n        }\r\n        uint256 temp = number;\r\n        uint256 digits;\r\n        while (temp != 0) {\r\n            digits++;\r\n            temp /= 10;\r\n        }\r\n        bytes memory buffer = new bytes(digits);\r\n        uint256 index = digits - 1;\r\n        temp = number;\r\n        while (temp != 0) {\r\n            buffer[index--] = bytes1(uint8(48 + (temp % 10)));\r\n            temp /= 10;\r\n        }\r\n        return string(buffer);\r\n    }\r\n\r\n\r\n    function deductImportRecordCosts(uint256 _assetClass)\r\n        internal\r\n        whenNotPaused\r\n    {\r\n        //^^^^^^^checks^^^^^^^^^\r\n        Invoice memory pricing;\r\n        //^^^^^^^effects^^^^^^^^^\r\n        (\r\n            pricing.rootAddress,\r\n            pricing.rootPrice,\r\n            pricing.ACTHaddress,\r\n            pricing.ACTHprice\r\n        ) = AC_MGR.getNewRecordCosts(_assetClass);\r\n\r\n        pricing.rootPrice = pricing.rootPrice.div(importDiscount);\r\n        pricing.ACTHprice = pricing.ACTHprice.div(importDiscount);\r\n\r\n        deductPayment(pricing);\r\n        //^^^^^^^interactions^^^^^^^^^\r\n    }\r\n}\r\n",
  "sourcePath": "C:\\Users\\Blayde\\Documents\\ETHDEV\\bulletproof\\PRUF_TRUFFLE\\contracts\\PRUF_NAKED.sol",
  "compiler": {
    "name": "solc",
    "version": "0.6.9+commit.3e3065ac.Emscripten.clang"
  },
  "schemaVersion": "3.0.23",
  "updatedAt": "2020-08-20T17:17:06.344Z",
  "devdoc": {
    "methods": {
      "OO_pause()": {
        "details": "Triggers stopped state."
      },
      "OO_unpause()": {
        "details": "Returns to normal state."
      },
      "owner()": {
        "details": "Returns the address of the current owner."
      },
      "paused()": {
        "details": "Returns true if the contract is paused, and false otherwise."
      },
      "payments(address)": {
        "details": "Returns the payments owed to an address.",
        "params": {
          "dest": "The creditor's address."
        }
      },
      "renounceOwnership()": {
        "details": "Leaves the contract without owner. It will not be possible to call `onlyOwner` functions anymore. Can only be called by the current owner. NOTE: Renouncing ownership will leave the contract without an owner, thereby removing any functionality that is only available to the owner."
      },
      "transferOwnership(address)": {
        "details": "Transfers ownership of the contract to a new account (`newOwner`). Can only be called by the current owner."
      },
      "withdrawPayments(address)": {
        "details": "Withdraw accumulated payments, forwarding all gas to the recipient. Note that _any_ account can call this function, not just the `payee`. This means that contracts unaware of the `PullPayment` protocol can still receive funds this way, by having a separate account call {withdrawPayments}. WARNING: Forwarding all gas opens the door to reentrancy vulnerabilities. Make sure you trust the recipient, or are either following the checks-effects-interactions pattern or using {ReentrancyGuard}.",
        "params": {
          "payee": "Whose payments will be withdrawn."
        }
      }
    }
  },
  "userdoc": {
    "methods": {}
  }
}