{
  "contractName": "NODE_MGR",
  "abi": [
    {
      "inputs": [],
      "stateMutability": "nonpayable",
      "type": "constructor"
    },
    {
      "anonymous": false,
      "inputs": [
        {
          "indexed": false,
          "internalType": "address",
          "name": "account",
          "type": "address"
        }
      ],
      "name": "Paused",
      "type": "event"
    },
    {
      "anonymous": false,
      "inputs": [
        {
          "indexed": false,
          "internalType": "string",
          "name": "_msg",
          "type": "string"
        }
      ],
      "name": "REPORT",
      "type": "event"
    },
    {
      "anonymous": false,
      "inputs": [
        {
          "indexed": true,
          "internalType": "bytes32",
          "name": "role",
          "type": "bytes32"
        },
        {
          "indexed": true,
          "internalType": "bytes32",
          "name": "previousAdminRole",
          "type": "bytes32"
        },
        {
          "indexed": true,
          "internalType": "bytes32",
          "name": "newAdminRole",
          "type": "bytes32"
        }
      ],
      "name": "RoleAdminChanged",
      "type": "event"
    },
    {
      "anonymous": false,
      "inputs": [
        {
          "indexed": true,
          "internalType": "bytes32",
          "name": "role",
          "type": "bytes32"
        },
        {
          "indexed": true,
          "internalType": "address",
          "name": "account",
          "type": "address"
        },
        {
          "indexed": true,
          "internalType": "address",
          "name": "sender",
          "type": "address"
        }
      ],
      "name": "RoleGranted",
      "type": "event"
    },
    {
      "anonymous": false,
      "inputs": [
        {
          "indexed": true,
          "internalType": "bytes32",
          "name": "role",
          "type": "bytes32"
        },
        {
          "indexed": true,
          "internalType": "address",
          "name": "account",
          "type": "address"
        },
        {
          "indexed": true,
          "internalType": "address",
          "name": "sender",
          "type": "address"
        }
      ],
      "name": "RoleRevoked",
      "type": "event"
    },
    {
      "anonymous": false,
      "inputs": [
        {
          "indexed": false,
          "internalType": "address",
          "name": "account",
          "type": "address"
        }
      ],
      "name": "Unpaused",
      "type": "event"
    },
    {
      "inputs": [],
      "name": "ASSET_TXFR_ROLE",
      "outputs": [
        {
          "internalType": "bytes32",
          "name": "",
          "type": "bytes32"
        }
      ],
      "stateMutability": "view",
      "type": "function"
    },
    {
      "inputs": [],
      "name": "CONTRACT_ADMIN_ROLE",
      "outputs": [
        {
          "internalType": "bytes32",
          "name": "",
          "type": "bytes32"
        }
      ],
      "stateMutability": "view",
      "type": "function"
    },
    {
      "inputs": [],
      "name": "DAO_ROLE",
      "outputs": [
        {
          "internalType": "bytes32",
          "name": "",
          "type": "bytes32"
        }
      ],
      "stateMutability": "view",
      "type": "function"
    },
    {
      "inputs": [],
      "name": "DEFAULT_ADMIN_ROLE",
      "outputs": [
        {
          "internalType": "bytes32",
          "name": "",
          "type": "bytes32"
        }
      ],
      "stateMutability": "view",
      "type": "function"
    },
    {
      "inputs": [
        {
          "internalType": "address",
          "name": "_tokenContract",
          "type": "address"
        },
        {
          "internalType": "address",
          "name": "_to",
          "type": "address"
        },
        {
          "internalType": "uint256",
          "name": "_amount",
          "type": "uint256"
        }
      ],
      "name": "ERC20Transfer",
      "outputs": [],
      "stateMutability": "nonpayable",
      "type": "function"
    },
    {
      "inputs": [
        {
          "internalType": "address",
          "name": "_tokenContract",
          "type": "address"
        },
        {
          "internalType": "address",
          "name": "_to",
          "type": "address"
        },
        {
          "internalType": "uint256",
          "name": "_tokenID",
          "type": "uint256"
        }
      ],
      "name": "ERC721Transfer",
      "outputs": [],
      "stateMutability": "nonpayable",
      "type": "function"
    },
    {
      "inputs": [],
      "name": "ID_PROVIDER_ROLE",
      "outputs": [
        {
          "internalType": "bytes32",
          "name": "",
          "type": "bytes32"
        }
      ],
      "stateMutability": "view",
      "type": "function"
    },
    {
      "inputs": [],
      "name": "NODE_MINTER_ROLE",
      "outputs": [
        {
          "internalType": "bytes32",
          "name": "",
          "type": "bytes32"
        }
      ],
      "stateMutability": "view",
      "type": "function"
    },
    {
      "inputs": [],
      "name": "PAUSER_ROLE",
      "outputs": [
        {
          "internalType": "bytes32",
          "name": "",
          "type": "bytes32"
        }
      ],
      "stateMutability": "view",
      "type": "function"
    },
    {
      "inputs": [
        {
          "internalType": "bytes32",
          "name": "role",
          "type": "bytes32"
        }
      ],
      "name": "getRoleAdmin",
      "outputs": [
        {
          "internalType": "bytes32",
          "name": "",
          "type": "bytes32"
        }
      ],
      "stateMutability": "view",
      "type": "function"
    },
    {
      "inputs": [
        {
          "internalType": "bytes32",
          "name": "role",
          "type": "bytes32"
        },
        {
          "internalType": "address",
          "name": "account",
          "type": "address"
        }
      ],
      "name": "grantRole",
      "outputs": [],
      "stateMutability": "nonpayable",
      "type": "function"
    },
    {
      "inputs": [
        {
          "internalType": "bytes32",
          "name": "role",
          "type": "bytes32"
        },
        {
          "internalType": "address",
          "name": "account",
          "type": "address"
        }
      ],
      "name": "hasRole",
      "outputs": [
        {
          "internalType": "bool",
          "name": "",
          "type": "bool"
        }
      ],
      "stateMutability": "view",
      "type": "function"
    },
    {
      "inputs": [],
      "name": "node_price",
      "outputs": [
        {
          "internalType": "uint256",
          "name": "",
          "type": "uint256"
        }
      ],
      "stateMutability": "view",
      "type": "function"
    },
    {
      "inputs": [
        {
          "internalType": "address",
          "name": "",
          "type": "address"
        },
        {
          "internalType": "address",
          "name": "",
          "type": "address"
        },
        {
          "internalType": "uint256",
          "name": "",
          "type": "uint256"
        },
        {
          "internalType": "bytes",
          "name": "",
          "type": "bytes"
        }
      ],
      "name": "onERC721Received",
      "outputs": [
        {
          "internalType": "bytes4",
          "name": "",
          "type": "bytes4"
        }
      ],
      "stateMutability": "nonpayable",
      "type": "function"
    },
    {
      "inputs": [],
      "name": "pause",
      "outputs": [],
      "stateMutability": "nonpayable",
      "type": "function"
    },
    {
      "inputs": [],
      "name": "paused",
      "outputs": [
        {
          "internalType": "bool",
          "name": "",
          "type": "bool"
        }
      ],
      "stateMutability": "view",
      "type": "function"
    },
    {
      "inputs": [
        {
          "internalType": "bytes32",
          "name": "role",
          "type": "bytes32"
        },
        {
          "internalType": "address",
          "name": "account",
          "type": "address"
        }
      ],
      "name": "renounceRole",
      "outputs": [],
      "stateMutability": "nonpayable",
      "type": "function"
    },
    {
      "inputs": [],
      "name": "resolveContractAddresses",
      "outputs": [],
      "stateMutability": "nonpayable",
      "type": "function"
    },
    {
      "inputs": [
        {
          "internalType": "bytes32",
          "name": "role",
          "type": "bytes32"
        },
        {
          "internalType": "address",
          "name": "account",
          "type": "address"
        }
      ],
      "name": "revokeRole",
      "outputs": [],
      "stateMutability": "nonpayable",
      "type": "function"
    },
    {
      "inputs": [
        {
          "internalType": "address",
          "name": "_storageAddress",
          "type": "address"
        }
      ],
      "name": "setStorageContract",
      "outputs": [],
      "stateMutability": "nonpayable",
      "type": "function"
    },
    {
      "inputs": [
        {
          "internalType": "bytes4",
          "name": "interfaceId",
          "type": "bytes4"
        }
      ],
      "name": "supportsInterface",
      "outputs": [
        {
          "internalType": "bool",
          "name": "",
          "type": "bool"
        }
      ],
      "stateMutability": "view",
      "type": "function"
    },
    {
      "inputs": [],
      "name": "unpause",
      "outputs": [],
      "stateMutability": "nonpayable",
      "type": "function"
    },
    {
      "inputs": [
        {
          "internalType": "uint256",
          "name": "_newNodePrice",
          "type": "uint256"
        },
        {
          "internalType": "uint256",
          "name": "_newNodeBurn",
          "type": "uint256"
        }
      ],
      "name": "setNodePricing",
      "outputs": [],
      "stateMutability": "nonpayable",
      "type": "function"
    },
    {
      "inputs": [],
      "name": "currentNodePricingInfo",
      "outputs": [
        {
          "internalType": "uint256",
          "name": "",
          "type": "uint256"
        },
        {
          "internalType": "uint256",
          "name": "",
          "type": "uint256"
        },
        {
          "internalType": "uint256",
          "name": "",
          "type": "uint256"
        }
      ],
      "stateMutability": "view",
      "type": "function"
    },
    {
      "inputs": [
        {
          "internalType": "uint32",
          "name": "_node",
          "type": "uint32"
        },
        {
          "internalType": "string",
          "name": "_name",
          "type": "string"
        },
        {
          "internalType": "uint32",
          "name": "_nodeRoot",
          "type": "uint32"
        },
        {
          "internalType": "uint8",
          "name": "_custodyType",
          "type": "uint8"
        },
        {
          "internalType": "uint8",
          "name": "_managementType",
          "type": "uint8"
        },
        {
          "internalType": "uint8",
          "name": "_storageProvider",
          "type": "uint8"
        },
        {
          "internalType": "uint32",
          "name": "_discount",
          "type": "uint32"
        },
        {
          "internalType": "bytes32",
          "name": "_CAS1",
          "type": "bytes32"
        },
        {
          "internalType": "bytes32",
          "name": "_CAS2",
          "type": "bytes32"
        },
        {
          "internalType": "address",
          "name": "_recipientAddress",
          "type": "address"
        }
      ],
      "name": "createNode",
      "outputs": [],
      "stateMutability": "nonpayable",
      "type": "function"
    },
    {
      "inputs": [
        {
          "internalType": "string",
          "name": "_name",
          "type": "string"
        },
        {
          "internalType": "uint32",
          "name": "_nodeRoot",
          "type": "uint32"
        },
        {
          "internalType": "uint8",
          "name": "_custodyType",
          "type": "uint8"
        },
        {
          "internalType": "bytes32",
          "name": "_CAS1",
          "type": "bytes32"
        },
        {
          "internalType": "bytes32",
          "name": "_CAS2",
          "type": "bytes32"
        },
        {
          "internalType": "address",
          "name": "_mintNodeTo",
          "type": "address"
        }
      ],
      "name": "purchaseNode",
      "outputs": [
        {
          "internalType": "uint256",
          "name": "",
          "type": "uint256"
        }
      ],
      "stateMutability": "nonpayable",
      "type": "function"
    },
    {
      "inputs": [
        {
          "internalType": "uint32",
          "name": "_node",
          "type": "uint32"
        },
        {
          "internalType": "bytes32",
          "name": "_addrHash",
          "type": "bytes32"
        },
        {
          "internalType": "uint8",
          "name": "_userType",
          "type": "uint8"
        }
      ],
      "name": "addUser",
      "outputs": [],
      "stateMutability": "nonpayable",
      "type": "function"
    },
    {
      "inputs": [
        {
          "internalType": "uint32",
          "name": "_thisNode",
          "type": "uint32"
        },
        {
          "internalType": "uint32",
          "name": "_otherNode",
          "type": "uint32"
        },
        {
          "internalType": "uint256",
          "name": "_newStatus",
          "type": "uint256"
        }
      ],
      "name": "updateImportStatus",
      "outputs": [],
      "stateMutability": "nonpayable",
      "type": "function"
    },
    {
      "inputs": [
        {
          "internalType": "uint32",
          "name": "_node",
          "type": "uint32"
        },
        {
          "internalType": "bytes32",
          "name": "_CAS1",
          "type": "bytes32"
        },
        {
          "internalType": "bytes32",
          "name": "_CAS2",
          "type": "bytes32"
        }
      ],
      "name": "updateNodeCAS",
      "outputs": [],
      "stateMutability": "nonpayable",
      "type": "function"
    },
    {
      "inputs": [
        {
          "internalType": "uint32",
          "name": "_node",
          "type": "uint32"
        },
        {
          "internalType": "uint16",
          "name": "_service",
          "type": "uint16"
        },
        {
          "internalType": "uint256",
          "name": "_serviceCost",
          "type": "uint256"
        },
        {
          "internalType": "address",
          "name": "_paymentAddress",
          "type": "address"
        }
      ],
      "name": "setOperationCosts",
      "outputs": [],
      "stateMutability": "nonpayable",
      "type": "function"
    },
    {
      "inputs": [
        {
          "internalType": "uint32",
          "name": "_node",
          "type": "uint32"
        },
        {
          "internalType": "uint8",
          "name": "_managementType",
          "type": "uint8"
        },
        {
          "internalType": "uint8",
          "name": "_storageProvider",
          "type": "uint8"
        },
        {
          "internalType": "address",
          "name": "_refAddress",
          "type": "address"
        }
      ],
      "name": "setNonMutableData",
      "outputs": [],
      "stateMutability": "nonpayable",
      "type": "function"
    }
  ],
  "bytecode": "0x6080604052620f424060175569152d02c7e14af680000060185569152d02c7e14af68000006019553480156200003457600080fd5b50600160009081556002805460ff19169055620000529033620000dc565b6200007e7f2ce8d04a9c35987429af538825cd2438cc5c5bb5dc427955f84daaa3ea10501633620000dc565b620000aa7f65d7a28e3265b37a6474929f336521b332c1681b933f6cb9f3376673440d862a33620000dc565b620000d67f90219b46dbbd825260da66c7f6411a53b1623387f4978b89820057b1efbf195733620000dc565b62000174565b620000e88282620000ec565b5050565b60008281526001602090815260408083206001600160a01b038516845290915290205460ff16620000e85760008281526001602081815260408084206001600160a01b0386168086529252808420805460ff19169093179092559051339285917f2f8788117e7eff1d82e926ec794901d17c78024a50270940304540a733656f0d9190a45050565b61312580620001846000396000f3fe608060405234801561001057600080fd5b50600436106101e55760003560e01c806391d148541161010f578063d547741f116100a2578063e63ab1e911610071578063e63ab1e914610474578063e9c265181461049b578063eb2c441e146104c2578063ee9c25c5146104d557600080fd5b8063d547741f14610428578063dc38b0a21461043b578063e59fdd361461044e578063e5f815dc1461046157600080fd5b8063a85759d5116100de578063a85759d5146103c8578063c359e423146103db578063c94c2a9d146103ee578063d07a197d1461040157600080fd5b806391d1485414610376578063924e1d1014610389578063988c7fc4146103ad578063a217fddf146103c057600080fd5b806336568abe116101875780636ff4f6bd116101565780636ff4f6bd1461033f5780636ffbdfad1461034857806373ee63671461035b5780638456cb591461036e57600080fd5b806336568abe146103065780633f4ba83a146103195780635c975abb146103215780636e795c701461032c57600080fd5b80631c0d98de116101c35780631c0d98de1461027f5780631da03312146102a6578063248a9ca3146102cd5780632f2ff15d146102f157600080fd5b806301ffc9a7146101ea5780631429db5f14610212578063150b7a0214610247575b600080fd5b6101fd6101f8366004612815565b6104dd565b60405190151581526020015b60405180910390f35b6102397f7f1e4e9f3d9ba0452a25cfef4cd4c6ffc86158d06ed2f585fa0093e12dec429c81565b604051908152602001610209565b610266610255366004612737565b630a85bd0160e11b95945050505050565b6040516001600160e01b03199091168152602001610209565b6102397ff83d9beb855faccc3cec52db643740ba419d81f461f42515fb58bf35442a2ac781565b6102397f2ce8d04a9c35987429af538825cd2438cc5c5bb5dc427955f84daaa3ea10501681565b6102396102db3660046127cc565b6000908152600160208190526040909120015490565b6103046102ff3660046127e5565b610514565b005b6103046103143660046127e5565b610540565b6103046105c3565b60025460ff166101fd565b61023961033a36600461283f565b610613565b61023960185481565b610304610356366004612a94565b610a2e565b610304610369366004612c37565b610b78565b610304610e9a565b6101fd6103843660046127e5565b610ee8565b60175460185460195460408051938452602084019290925290820152606001610209565b6103046103bb366004612ad6565b610f13565b610239600081565b6103046103d6366004612bad565b61105c565b6103046103e9366004612a5f565b6111b0565b6103046103fc366004612c07565b61144e565b6102397f90219b46dbbd825260da66c7f6411a53b1623387f4978b89820057b1efbf195781565b6103046104363660046127e5565b611563565b6103046104493660046126bc565b61158a565b61030461045c3660046126f6565b61163d565b61030461046f3660046126f6565b61173e565b6102397f65d7a28e3265b37a6474929f336521b332c1681b933f6cb9f3376673440d862a81565b6102397f3b5d4cc60d3ec3516ee8ae083bd60934f6eb2a6c54b1229985c41bfb092b260381565b6103046104d0366004612a3d565b61181e565b61030461196d565b60006001600160e01b03198216637965db0b60e01b148061050e57506301ffc9a760e01b6001600160e01b03198316145b92915050565b600082815260016020819052604090912001546105318133612050565b61053b83836120b4565b505050565b6001600160a01b03811633146105b55760405162461bcd60e51b815260206004820152602f60248201527f416363657373436f6e74726f6c3a2063616e206f6e6c792072656e6f756e636560448201526e103937b632b9903337b91039b2b63360891b60648201526084015b60405180910390fd5b6105bf828261211f565b5050565b6105ed7f65d7a28e3265b37a6474929f336521b332c1681b933f6cb9f3376673440d862a33610ee8565b6106095760405162461bcd60e51b81526004016105ac90612e17565b610611612186565b565b6000600260005414156106385760405162461bcd60e51b81526004016105ac90612e87565b600260005560175463fff13d80116106a55760405162461bcd60e51b815260206004820152602a60248201527f4e4d3a504e3a204f6e6c792034323934303030303030206e6f646520746f6b656044820152691b9cc8185b1b1bddd95960b21b60648201526084016105ac565b6106cf7ff83d9beb855faccc3cec52db643740ba419d81f461f42515fb58bf35442a2ac733610ee8565b6107255760405162461bcd60e51b815260206004820152602160248201527f4e4d3a504e3a204d75737420686176652049445f50524f56494445525f524f4c6044820152604560f81b60648201526084016105ac565b8460ff1660031415801561073b575060ff851615155b6107935760405162461bcd60e51b815260206004820152602360248201527f4e4d3a504e3a20637573746f647920747970652063616e6e6f7420626520307c60448201526203e19960ed1b60648201526084016105ac565b601780549060006107a383613059565b9091555050600754604051633e79450b60e01b815263ffffffff88166004820152600160248201526000916001600160a01b031690633e79450b90604401604080518083038186803b1580156107f857600080fd5b505afa15801561080c573d6000803e3d6000fd5b505050506040513d601f19601f8201168201806040525081019061083091906128cf565b6020810151909150610840612559565b8a8a8080601f016020809104026020016040519081016040528093929190818152602001838380828437600092018290525061012086019490945250505063ffffffff8a16608083015260ff8981168352602083015260408083019190915261251c60a083015260e082018890526101008201879052600954601954915163ac41625360e01b81526001600160a01b038881166004830152602482019390935291169063ac41625390604401600060405180830381600087803b15801561090657600080fd5b505af115801561091a573d6000803e3d6000fd5b5050600954601854604051639b30d1e960e01b81526001600160a01b038a811660048301528781166024830152604482019290925291169250639b30d1e99150606401600060405180830381600087803b15801561097757600080fd5b505af115801561098b573d6000803e3d6000fd5b505050506109a3816017548761099e3390565b612219565b8760ff1660021415610a1757600354601754604051639331f7bf60e01b815263ffffffff90911660048201526001600160a01b0390911690639331f7bf90602401600060405180830381600087803b1580156109fe57600080fd5b505af1158015610a12573d6000803e3d6000fd5b505050505b505060175460016000559998505050505050505050565b60025460ff1615610a515760405162461bcd60e51b81526004016105ac90612e5d565b8233600d546040516331a9108f60e11b815263ffffffff841660048201526001600160a01b039283169290911690636352211e9060240160206040518083038186803b158015610aa057600080fd5b505afa158015610ab4573d6000803e3d6000fd5b505050506040513d601f19601f82011682018060405250810190610ad891906126d9565b6001600160a01b031614610afe5760405162461bcd60e51b81526004016105ac90612d83565b600754604051636ffbdfad60e01b815263ffffffff861660048201526024810185905260ff841660448201526001600160a01b0390911690636ffbdfad906064015b600060405180830381600087803b158015610b5a57600080fd5b505af1158015610b6e573d6000803e3d6000fd5b5050505050505050565b60025460ff1615610b9b5760405162461bcd60e51b81526004016105ac90612e5d565b8333600d546040516331a9108f60e11b815263ffffffff841660048201526001600160a01b039283169290911690636352211e9060240160206040518083038186803b158015610bea57600080fd5b505afa158015610bfe573d6000803e3d6000fd5b505050506040513d601f19601f82011682018060405250810190610c2291906126d9565b6001600160a01b031614610c485760405162461bcd60e51b81526004016105ac90612d83565b60075460405163f45c157d60e01b815263ffffffff871660048201526000916001600160a01b03169063f45c157d9060240160006040518083038186803b158015610c9257600080fd5b505afa158015610ca6573d6000803e3d6000fd5b505050506040513d6000823e601f3d908101601f19168201604052610cce9190810190612925565b9050806020015160ff1660ff14610d385760405162461bcd60e51b815260206004820152602860248201527f4e4d3a534e4d443a20496d6d757461626c65206e6f6465206461746120616c726044820152671958591e481cd95d60c21b60648201526084016105ac565b8460ff1660ff1415610da05760405162461bcd60e51b815260206004820152602b60248201527f4e4d3a534e4d443a206d616e6167656d656e7454797065203d2032353528556e60448201526a636f6e666967757265642960a81b60648201526084016105ac565b806000015160ff16600314610e165760ff8516610e165760405162461bcd60e51b815260206004820152602e60248201527f4e4d3a534e4d443a206d616e6167656d656e74547970652063616e6e6f74203d60448201526d080c081d5b9b195cdcc81c9bdbdd60921b60648201526084016105ac565b6007546040516373ee636760e01b815263ffffffff8816600482015260ff8088166024830152861660448201526001600160a01b038581166064830152909116906373ee636790608401600060405180830381600087803b158015610e7a57600080fd5b505af1158015610e8e573d6000803e3d6000fd5b50505050505050505050565b610ec47f65d7a28e3265b37a6474929f336521b332c1681b933f6cb9f3376673440d862a33610ee8565b610ee05760405162461bcd60e51b81526004016105ac90612e17565b61061161235e565b60009182526001602090815260408084206001600160a01b0393909316845291905290205460ff1690565b610f3d7f90219b46dbbd825260da66c7f6411a53b1623387f4978b89820057b1efbf195733610ee8565b610f985760405162461bcd60e51b815260206004820152602660248201527f4e4d3a4d4f442d494e4d3a204d7573742068617665204e4f44455f4d494e5445604482015265525f524f4c4560d01b60648201526084016105ac565b60026000541415610fbb5760405162461bcd60e51b81526004016105ac90612e87565b6002600055610fc8612559565b8a8a8080601f01602080910402602001604051908101604052809392919081815260200183838082843760009201919091525050505061012082015263ffffffff898116608083015260ff8981168352888116602084015287166040830152851660a082015260e081018490526101008101839052611049818d8433612219565b5050600160005550505050505050505050565b60025460ff161561107f5760405162461bcd60e51b81526004016105ac90612e5d565b8333600d546040516331a9108f60e11b815263ffffffff841660048201526001600160a01b039283169290911690636352211e9060240160206040518083038186803b1580156110ce57600080fd5b505afa1580156110e2573d6000803e3d6000fd5b505050506040513d601f19601f8201168201806040525081019061110691906126d9565b6001600160a01b03161461112c5760405162461bcd60e51b81526004016105ac90612d83565b60075460405163a85759d560e01b815263ffffffff8716600482015261ffff86166024820152604481018590526001600160a01b0384811660648301529091169063a85759d5906084015b600060405180830381600087803b15801561119157600080fd5b505af11580156111a5573d6000803e3d6000fd5b505050505050505050565b60025460ff16156111d35760405162461bcd60e51b81526004016105ac90612e5d565b8233600d546040516331a9108f60e11b815263ffffffff841660048201526001600160a01b039283169290911690636352211e9060240160206040518083038186803b15801561122257600080fd5b505afa158015611236573d6000803e3d6000fd5b505050506040513d601f19601f8201168201806040525081019061125a91906126d9565b6001600160a01b0316146112805760405162461bcd60e51b81526004016105ac90612d83565b60075460405163f45c157d60e01b815263ffffffff861660048201526000916001600160a01b03169063f45c157d9060240160006040518083038186803b1580156112ca57600080fd5b505afa1580156112de573d6000803e3d6000fd5b505050506040513d6000823e601f3d908101601f191682016040526113069190810190612925565b600754604051636ece1f4360e01b815263ffffffff88166004820152600160248201529192506001600160a01b031690636ece1f439060440160206040518083038186803b15801561135757600080fd5b505afa15801561136b573d6000803e3d6000fd5b505050506040513d601f19601f8201168201806040525081019061138f9190612a24565b15806113a4575061010081015160e082015116155b61140a5760405162461bcd60e51b815260206004820152603160248201527f4e4d3a554e433a2043415320666f72206e6f64652069732073657420616e642060448201527031b0b73737ba103132903bb934ba3a32b760791b60648201526084016105ac565b60075460405163c359e42360e01b815263ffffffff8716600482015260248101869052604481018590526001600160a01b039091169063c359e42390606401611177565b60025460ff16156114715760405162461bcd60e51b81526004016105ac90612e5d565b8233600d546040516331a9108f60e11b815263ffffffff841660048201526001600160a01b039283169290911690636352211e9060240160206040518083038186803b1580156114c057600080fd5b505afa1580156114d4573d6000803e3d6000fd5b505050506040513d601f19601f820116820180604052508101906114f891906126d9565b6001600160a01b03161461151e5760405162461bcd60e51b81526004016105ac90612d83565b60075460405163c94c2a9d60e01b815263ffffffff808716600483015285166024820152604481018490526001600160a01b039091169063c94c2a9d90606401610b40565b600082815260016020819052604090912001546115808133612050565b61053b838361211f565b6115b47f2ce8d04a9c35987429af538825cd2438cc5c5bb5dc427955f84daaa3ea10501633610ee8565b6115d05760405162461bcd60e51b81526004016105ac90612d3c565b6001600160a01b03811661161b5760405162461bcd60e51b81526020600482015260126024820152710423a5353433a2041646472657373203d20360741b60448201526064016105ac565b600380546001600160a01b0319166001600160a01b0392909216919091179055565b6116677f7f1e4e9f3d9ba0452a25cfef4cd4c6ffc86158d06ed2f585fa0093e12dec429c33610ee8565b6116835760405162461bcd60e51b81526004016105ac90612dd4565b600260005414156116a65760405162461bcd60e51b81526004016105ac90612e87565b60026000556040516323b872dd60e01b81523060048201526001600160a01b038381166024830152604482018390528416906323b872dd90606401602060405180830381600087803b1580156116fb57600080fd5b505af115801561170f573d6000803e3d6000fd5b505050506040513d601f19601f8201168201806040525081019061173391906127aa565b505060016000555050565b6117687f7f1e4e9f3d9ba0452a25cfef4cd4c6ffc86158d06ed2f585fa0093e12dec429c33610ee8565b6117845760405162461bcd60e51b81526004016105ac90612dd4565b600260005414156117a75760405162461bcd60e51b81526004016105ac90612e87565b6002600055604051632142170760e11b81523060048201526001600160a01b038381166024830152604482018390528416906342842e0e90606401600060405180830381600087803b1580156117fc57600080fd5b505af1158015611810573d6000803e3d6000fd5b505060016000555050505050565b6118487f3b5d4cc60d3ec3516ee8ae083bd60934f6eb2a6c54b1229985c41bfb092b260333610ee8565b6118a05760405162461bcd60e51b815260206004820152602360248201527f423a4d4f442d49503a43616c6c696e672061646472657373206973206e6f742060448201526244414f60e81b60648201526084016105ac565b808211156118ff5760405162461bcd60e51b815260206004820152602660248201527f4e4d3a534e503a6e6f6465206275726e206d757374206265203d3e206e6f646560448201526520707269636560d01b60648201526084016105ac565b601882905560198190556040517f0340792b8e85fc146fec29e0594da83b9d759be9b011181f9fb0408314fc633590611961906020808252601590820152746e6f64652070726963696e67206368616e6765642160581b604082015260600190565b60405180910390a15050565b600260005414156119905760405162461bcd60e51b81526004016105ac90612e87565b60026000556119bf7f2ce8d04a9c35987429af538825cd2438cc5c5bb5dc427955f84daaa3ea10501633610ee8565b6119db5760405162461bcd60e51b81526004016105ac90612d3c565b6003546040516363b8d4c160e11b81526020600482015260086024820152672727a222afaa25a760c11b60448201526001600160a01b039091169063c771a9829060640160206040518083038186803b158015611a3757600080fd5b505afa158015611a4b573d6000803e3d6000fd5b505050506040513d601f19601f82011682018060405250810190611a6f91906126d9565b600c80546001600160a01b039283166001600160a01b03199182168117909255600d805490911690911790556003546040516363b8d4c160e11b81526020600482015260086024820152672727a222afa6a3a960c11b604482015291169063c771a9829060640160206040518083038186803b158015611aee57600080fd5b505afa158015611b02573d6000803e3d6000fd5b505050506040513d601f19601f82011682018060405250810190611b2691906126d9565b600480546001600160a01b039283166001600160a01b031991821681178355600580549092161790556003546040516363b8d4c160e11b815292169163c771a98291611b9091016020808252600990820152682727a222afa9aa27a960b91b604082015260600190565b60206040518083038186803b158015611ba857600080fd5b505afa158015611bbc573d6000803e3d6000fd5b505050506040513d601f19601f82011682018060405250810190611be091906126d9565b600680546001600160a01b039283166001600160a01b031991821681179092556007805490911690911790556003546040516363b8d4c160e11b81526020600482015260086024820152672aaa24a62faa25a760c11b604482015291169063c771a9829060640160206040518083038186803b158015611c5f57600080fd5b505afa158015611c73573d6000803e3d6000fd5b505050506040513d601f19601f82011682018060405250810190611c9791906126d9565b600880546001600160a01b039283166001600160a01b031991821681179092556009805490911690911790556003546040516363b8d4c160e11b815260206004820152600560248201526420afaa25a760d91b604482015291169063c771a9829060640160206040518083038186803b158015611d1357600080fd5b505afa158015611d27573d6000803e3d6000fd5b505050506040513d601f19601f82011682018060405250810190611d4b91906126d9565b600a80546001600160a01b039283166001600160a01b03199182168117909255600b805490911690911790556003546040516363b8d4c160e11b815260206004820152600760248201526622a1a92fa6a3a960c91b604482015291169063c771a9829060640160206040518083038186803b158015611dc957600080fd5b505afa158015611ddd573d6000803e3d6000fd5b505050506040513d601f19601f82011682018060405250810190611e0191906126d9565b600e80546001600160a01b039283166001600160a01b03199182168117909255600f805490911690911790556003546040516363b8d4c160e11b815291169063c771a98290611e6a9060040160208082526003908201526204150560ec1b604082015260600190565b60206040518083038186803b158015611e8257600080fd5b505afa158015611e96573d6000803e3d6000fd5b505050506040513d601f19601f82011682018060405250810190611eba91906126d9565b601280546001600160a01b039283166001600160a01b031991821681179092556013805490911690911790556003546040516363b8d4c160e11b815291169063c771a98290611f24906004016020808252600490820152632921a62960e11b604082015260600190565b60206040518083038186803b158015611f3c57600080fd5b505afa158015611f50573d6000803e3d6000fd5b505050506040513d601f19601f82011682018060405250810190611f7491906126d9565b601080546001600160a01b039283166001600160a01b031991821681179092556011805490911690911790556003546040516363b8d4c160e11b81526020600482015260066024820152654150505f4e4360d01b604482015291169063c771a9829060640160206040518083038186803b158015611ff157600080fd5b505afa158015612005573d6000803e3d6000fd5b505050506040513d601f19601f8201168201806040525081019061202991906126d9565b601480546001600160a01b0319166001600160a01b03929092169190911790556001600055565b61205a8282610ee8565b6105bf57612072816001600160a01b031660146123b6565b61207d8360206123b6565b60405160200161208e929190612cb4565b60408051601f198184030181529082905262461bcd60e51b82526105ac91600401612d29565b6120be8282610ee8565b6105bf5760008281526001602081815260408084206001600160a01b0386168086529252808420805460ff19169093179092559051339285917f2f8788117e7eff1d82e926ec794901d17c78024a50270940304540a733656f0d9190a45050565b6121298282610ee8565b156105bf5760008281526001602090815260408083206001600160a01b0385168085529252808320805460ff1916905551339285917ff6391f5c32d9c69d2a47ea670b442974b53935d1edc7fd64eb21e047a839171b9190a45050565b60025460ff166121cf5760405162461bcd60e51b815260206004820152601460248201527314185d5cd8589b194e881b9bdd081c185d5cd95960621b60448201526064016105ac565b6002805460ff191690557f5db9ee0a495bf2e6ff9c91a7834c1ba4fdd244a5e8aa4e537bd38aeae4b073aa335b6040516001600160a01b03909116815260200160405180910390a1565b60025460ff161561223c5760405162461bcd60e51b81526004016105ac90612e5d565b6007546040516320782a4560e01b815263ffffffff8516916001600160a01b0316906320782a459061227690889088908790600401612ebe565b600060405180830381600087803b15801561229057600080fd5b505af11580156122a4573d6000803e3d6000fd5b5050600d546040516313ed21af60e11b81526001600160a01b0387811660048301526024820186905260606044830152601160648301527038393ab31734b797b737b232aa37b5b2b760791b608483015290911692506327da435e915060a401602060405180830381600087803b15801561231e57600080fd5b505af1158015612332573d6000803e3d6000fd5b505050506040513d601f19601f820116820180604052508101906123569190612a24565b505050505050565b60025460ff16156123815760405162461bcd60e51b81526004016105ac90612e5d565b6002805460ff191660011790557f62e78cea01bee320cd4e420270b5ea74000d11b0c9f74754ebdbfc544b05a2586121fc3390565b606060006123c5836002612ff3565b6123d0906002612fdb565b67ffffffffffffffff8111156123e8576123e86130a0565b6040519080825280601f01601f191660200182016040528015612412576020820181803683370190505b509050600360fc1b8160008151811061242d5761242d61308a565b60200101906001600160f81b031916908160001a905350600f60fb1b8160018151811061245c5761245c61308a565b60200101906001600160f81b031916908160001a9053506000612480846002612ff3565b61248b906001612fdb565b90505b6001811115612503576f181899199a1a9b1b9c1cb0b131b232b360811b85600f16601081106124bf576124bf61308a565b1a60f81b8282815181106124d5576124d561308a565b60200101906001600160f81b031916908160001a90535060049490941c936124fc81613042565b905061248e565b5083156125525760405162461bcd60e51b815260206004820181905260248201527f537472696e67733a20686578206c656e67746820696e73756666696369656e7460448201526064016105ac565b9392505050565b604080516101408101825260008082526020820181905291810182905260608082018390526080820183905260a0820183905260c0820183905260e0820183905261010082019290925261012081019190915290565b80356125ba816130b6565b919050565b80516125ba816130b6565b60008083601f8401126125dc57600080fd5b50813567ffffffffffffffff8111156125f457600080fd5b60208301915083602082850101111561260c57600080fd5b9250929050565b600082601f83011261262457600080fd5b815167ffffffffffffffff8082111561263f5761263f6130a0565b604051601f8301601f19908116603f01168101908282118183101715612667576126676130a0565b8160405283815286602085880101111561268057600080fd5b612691846020830160208901613012565b9695505050505050565b80356125ba816130ce565b80516125ba816130ce565b80516125ba816130e0565b6000602082840312156126ce57600080fd5b8135612552816130b6565b6000602082840312156126eb57600080fd5b8151612552816130b6565b60008060006060848603121561270b57600080fd5b8335612716816130b6565b92506020840135612726816130b6565b929592945050506040919091013590565b60008060008060006080868803121561274f57600080fd5b853561275a816130b6565b9450602086013561276a816130b6565b935060408601359250606086013567ffffffffffffffff81111561278d57600080fd5b612799888289016125ca565b969995985093965092949392505050565b6000602082840312156127bc57600080fd5b8151801515811461255257600080fd5b6000602082840312156127de57600080fd5b5035919050565b600080604083850312156127f857600080fd5b82359150602083013561280a816130b6565b809150509250929050565b60006020828403121561282757600080fd5b81356001600160e01b03198116811461255257600080fd5b600080600080600080600060c0888a03121561285a57600080fd5b873567ffffffffffffffff81111561287157600080fd5b61287d8a828b016125ca565b9098509650506020880135612891816130ce565b945060408801356128a1816130e0565b9350606088013592506080880135915060a08801356128bf816130b6565b8091505092959891949750929550565b6000604082840312156128e157600080fd5b6040516040810181811067ffffffffffffffff82111715612904576129046130a0565b604052825181526020830151612919816130b6565b60208201529392505050565b60006020828403121561293757600080fd5b815167ffffffffffffffff8082111561294f57600080fd5b90830190610140828603121561296457600080fd5b61296c612fb1565b612975836126b1565b8152612983602084016126b1565b6020820152612994604084016126b1565b60408201526129a5606084016126b1565b60608201526129b6608084016126a6565b60808201526129c760a084016126a6565b60a08201526129d860c084016125bf565b60c082015260e083015160e08201526101008084015181830152506101208084015183811115612a0757600080fd5b612a1388828701612613565b918301919091525095945050505050565b600060208284031215612a3657600080fd5b5051919050565b60008060408385031215612a5057600080fd5b50508035926020909101359150565b600080600060608486031215612a7457600080fd5b8335612a7f816130ce565b95602085013595506040909401359392505050565b600080600060608486031215612aa957600080fd5b8335612ab4816130ce565b9250602084013591506040840135612acb816130e0565b809150509250925092565b60008060008060008060008060008060006101408c8e031215612af857600080fd5b8b35612b03816130ce565b9a5060208c013567ffffffffffffffff811115612b1f57600080fd5b612b2b8e828f016125ca565b909b5099505060408c0135612b3f816130ce565b975060608c0135612b4f816130e0565b965060808c0135612b5f816130e0565b955060a08c0135612b6f816130e0565b9450612b7d60c08d0161269b565b935060e08c013592506101008c01359150612b9b6101208d016125af565b90509295989b509295989b9093969950565b60008060008060808587031215612bc357600080fd5b8435612bce816130ce565b9350602085013561ffff81168114612be557600080fd5b9250604085013591506060850135612bfc816130b6565b939692955090935050565b600080600060608486031215612c1c57600080fd5b8335612c27816130ce565b92506020840135612726816130ce565b60008060008060808587031215612c4d57600080fd5b8435612c58816130ce565b93506020850135612c68816130e0565b92506040850135612c78816130e0565b91506060850135612bfc816130b6565b60008151808452612ca0816020860160208601613012565b601f01601f19169290920160200192915050565b7f416363657373436f6e74726f6c3a206163636f756e7420000000000000000000815260008351612cec816017850160208801613012565b7001034b99036b4b9b9b4b733903937b6329607d1b6017918401918201528351612d1d816028840160208801613012565b01602801949350505050565b6020815260006125526020830184612c88565b60208082526027908201527f423a4d4f443a2d4941444d2043616c6c65722021434f4e54524143545f41444d604082015266494e5f524f4c4560c81b606082015260800190565b60208082526031908201527f4e4d3a4d4f442d494e483a205f6d736753656e646572282920646f6573206e6f6040820152703a103437b632103737b232903a37b5b2b760791b606082015260800190565b60208082526023908201527f423a4d4f443a2d4941444d2043616c6c6572202141535345545f545846525f526040820152624f4c4560e81b606082015260800190565b60208082526026908201527f423a4d4f442d49503a43616c6c696e672061646472657373206973206e6f74206040820152653830bab9b2b960d11b606082015260800190565b60208082526010908201526f14185d5cd8589b194e881c185d5cd95960821b604082015260600190565b6020808252601f908201527f5265656e7472616e637947756172643a207265656e7472616e742063616c6c00604082015260600190565b60608152612ed260608201855160ff169052565b60006020850151612ee8608084018260ff169052565b50604085015160ff811660a084015250606085015160ff811660c084015250608085015163ffffffff811660e08401525060a0850151610100612f328185018363ffffffff169052565b60c08701519150610120612f50818601846001600160a01b03169052565b60e088015161014086810191909152918801516101608601528701516101808501919091529050612f856101a0840182612c88565b915050612f9a602083018563ffffffff169052565b6001600160a01b0383166040830152949350505050565b604051610140810167ffffffffffffffff81118282101715612fd557612fd56130a0565b60405290565b60008219821115612fee57612fee613074565b500190565b600081600019048311821515161561300d5761300d613074565b500290565b60005b8381101561302d578181015183820152602001613015565b8381111561303c576000848401525b50505050565b60008161305157613051613074565b506000190190565b600060001982141561306d5761306d613074565b5060010190565b634e487b7160e01b600052601160045260246000fd5b634e487b7160e01b600052603260045260246000fd5b634e487b7160e01b600052604160045260246000fd5b6001600160a01b03811681146130cb57600080fd5b50565b63ffffffff811681146130cb57600080fd5b60ff811681146130cb57600080fdfea264697066735822122004a89fcac3c8c0dd78616e19c089483a7da9caf2e862f053e89e2ad5159db19764736f6c63430008070033",
  "immutableReferences": {},
  "source": "/*--------------------------------------------------------PRF0.8.8\n__/\\\\\\\\\\\\\\\\\\\\\\\\\\ _____/\\\\\\\\\\\\\\\\\\ _______/\\\\__/\\\\ ___/\\\\\\\\\\\\\\\\\\\\\\\\\\\\\\        \n__\\/\\\\\\/////////\\\\\\ _/\\\\\\///////\\\\\\ ____\\//__\\//____\\/\\\\\\///////////__       \n___\\/\\\\\\_______\\/\\\\\\_\\/\\\\\\_____\\/\\\\\\ ________________\\/\\\\\\ ____________      \n____\\/\\\\\\\\\\\\\\\\\\\\\\\\\\/__\\/\\\\\\\\\\\\\\\\\\\\\\/_____/\\\\\\____/\\\\\\_\\/\\\\\\\\\\\\\\\\\\\\\\ ____     \n_____\\/\\\\\\/////////____\\/\\\\\\//////\\\\\\ ___\\/\\\\\\___\\/\\\\\\_\\/\\\\\\///////______\n______\\/\\\\\\ ____________\\/\\\\\\ ___\\//\\\\\\ __\\/\\\\\\___\\/\\\\\\_\\/\\\\\\ ____________\n_______\\/\\\\\\ ____________\\/\\\\\\ ____\\//\\\\\\ _\\/\\\\\\___\\/\\\\\\_\\/\\\\\\ ____________\n________\\/\\\\\\ ____________\\/\\\\\\ _____\\//\\\\\\_\\//\\\\\\\\\\\\\\\\\\ _\\/\\\\\\ ____________\n_________\\/// _____________\\/// _______\\/// __\\///////// __\\/// _____________\n*---------------------------------------------------------------------------*/\n\n/**-----------------------------------------------------------------\n * PRUF NODE_MGR\n *\n * Contract for minting and managing Nodes\n *\n ** IMPORTANT Local (child) node behaviours overwrite parent nodes; **\n ** so local nodes should only be mapped if their nonmutable attributes match those of their parent. **\n *\n * TODO: make a node builder that uses unstoppable domains to build nodes,\n * and an APP that requires both the node and the UD token to be held in order to mint.\n *\n * STATEMENT OF TERMS OF SERVICE (TOS):\n * User agrees not to intentionally claim any namespace that is a recognized or registered brand name, trade mark,\n * or other Intellectual property not belonging to the user, and agrees to voluntarily remove any name or brand found to be\n * infringing from any record that the user controls, within 30 days of notification. If notification is not possible or\n * there is no response to notification, the user agrees that the name record may be changed without their permission or cooperation.\n * Use of this software constitutes consent to the terms above.\n -----------------------------------------------------------------*/\n\n// SPDX-License-Identifier: UNLICENSED\npragma solidity ^0.8.7;\n\nimport \"../Resources/PRUF_BASIC.sol\";\nimport \"../Imports/security/ReentrancyGuard.sol\";\n\ncontract NODE_MGR is BASIC {\n    uint256 private nodeTokenIndex = 1000000; //Starting index for purchased node tokens\n    uint256 public node_price = 100000 ether;\n    uint256 private node_burn = 100000 ether;\n    uint32 private constant startingDiscount = 9500; //Purchased nodes start with 95% profit share\n\n    bytes32 public constant NODE_MINTER_ROLE = keccak256(\"NODE_MINTER_ROLE\");\n    bytes32 public constant ID_PROVIDER_ROLE = keccak256(\"ID_PROVIDER_ROLE\");\n\n    constructor() {\n        _setupRole(NODE_MINTER_ROLE, _msgSender());\n    }\n\n    //--------------------------------------------Modifiers--------------------------\n\n    /**\n     * @dev Verify user credentials\n     * Originating Address:\n     *      has NODE_MINTER_ROLE\n     */\n    modifier isNodeMinter() {\n        require(\n            hasRole(NODE_MINTER_ROLE, _msgSender()),\n            \"NM:MOD-INM: Must have NODE_MINTER_ROLE\"\n        );\n        _;\n    }\n\n    /**\n     * @dev Verify caller holds Nodetoken of passed node\n     * @param _node - node in which caller is queried for ownership\n     */\n    modifier isNodeHolder(uint32 _node) {\n        require(\n            (NODE_TKN.ownerOf(_node) == _msgSender()),\n            \"NM:MOD-INH: _msgSender() does not hold node token\"\n        );\n        _;\n    }\n\n    //--------------------------------------------External Functions--------------------------\n\n    /**\n     * @dev Set pricing for Nodes\n     * @param _newNodePrice - cost per node (18 decimals)\n     * @param _newNodeBurn - burn per node (18 decimals)\n     */\n    function setNodePricing(uint256 _newNodePrice, uint256 _newNodeBurn)\n        external\n        isDAO\n    {\n        require(\n            _newNodePrice <= _newNodeBurn,\n            \"NM:SNP:node burn must be => node price\"\n        ); //Enforce 50% + node cost burning\n        //^^^^^^^checks^^^^^^^^^\n\n        node_price = _newNodePrice;\n        node_burn = _newNodeBurn;\n        //^^^^^^^effects^^^^^^^^^\n\n        emit REPORT(\"node pricing changed!\"); //report access to internal parameter\n        //^^^^^^^interactions^^^^^^^^^\n    }\n\n    /**\n     * @dev return current node token index and price\n     * @return {\n         nodeTokenIndex: current token number\n         node_price: current price per node\n         node_burn: burn per node\n     }\n     */\n    function currentNodePricingInfo()\n        external\n        view\n        returns (\n            uint256,\n            uint256,\n            uint256\n        )\n    {\n        //^^^^^^^checks^^^^^^^^^\n\n        return (nodeTokenIndex, node_price, node_burn);\n        //^^^^^^^interactions^^^^^^^^^\n    }\n\n    /**\n     * @dev Mints Node token and creates an node.\n     * @param _node - node to be created (unique)\n     * @param _name - name to be configured to node (unique)\n     * @param _nodeRoot - root of node\n     * @param _custodyType - custodyType of new node (see docs)\n     * @param _managementType - managementType of new node (see docs)\n     * @param _storageProvider - storageProvider of new node (see docs)\n     * @param _discount - discount of node (100 == 1%, 10000 == max)\n     * @param _CAS1 - any external data attatched to node 1/2\n     * @param _CAS2 - any external data attatched to node 2/2\n     * @param _recipientAddress - address to recieve node\n     */\n    function createNode(\n        uint32 _node,\n        string calldata _name,\n        uint32 _nodeRoot,\n        uint8 _custodyType,\n        uint8 _managementType,\n        uint8 _storageProvider,\n        uint32 _discount,\n        bytes32 _CAS1,\n        bytes32 _CAS2,\n        address _recipientAddress\n    ) external isNodeMinter nonReentrant {\n        //^^^^^^^checks^^^^^^^^^\n\n        Node memory _newNode;\n        _newNode.name = _name;\n        _newNode.nodeRoot = _nodeRoot;\n        _newNode.custodyType = _custodyType;\n        _newNode.managementType = _managementType;\n        _newNode.storageProvider = _storageProvider;\n        _newNode.discount = _discount;\n        _newNode.CAS1 = _CAS1;\n        _newNode.CAS2 = _CAS2;\n\n        _createNode(_newNode, _node, _recipientAddress, _msgSender());\n        //^^^^^^^effects^^^^^^^^^\n    }\n\n    /**\n     * @dev Burns (amount) tokens and mints a new Node token to the calling address\n     * @param _name - chosen name of node\n     * @param _nodeRoot - chosen root of node\n     * @param _custodyType - chosen custodyType of node (see docs)\n     * @param _CAS1 - any external data attatched to node 1/2\n     * @param _CAS2 - any external data attatched to node 2/2\n     */\n    function purchaseNode(\n        string calldata _name,\n        uint32 _nodeRoot,\n        uint8 _custodyType,\n        bytes32 _CAS1,\n        bytes32 _CAS2,\n        address _mintNodeTo\n    ) external nonReentrant returns (uint256) {\n        require(\n            nodeTokenIndex < 4294000000,\n            \"NM:PN: Only 4294000000 node tokens allowed\"\n        );\n        require(\n            hasRole(ID_PROVIDER_ROLE, _msgSender()),\n            \"NM:PN: Must have ID_PROVIDER_ROLE\"\n        );\n        require(\n            (_custodyType != 3) && (_custodyType != 0) ,\n            \"NM:PN: custody type cannot be 0||3 \"\n        );\n\n        //^^^^^^^checks^^^^^^^^^\n\n        nodeTokenIndex++;\n        Costs memory paymentData = NODE_STOR.getPaymentData(_nodeRoot, 1);\n\n        address rootPaymentAddress = paymentData.paymentAddress; //payment for upgrade goes to root node payment address specified for service (1)\n\n        //mint an Node token to _msgSender(), at tokenID nodeTokenIndex, with URI = root Node\n\n        Node memory ThisNode;\n        ThisNode.name = _name;\n        ThisNode.nodeRoot = _nodeRoot;\n        ThisNode.custodyType = _custodyType;\n        ThisNode.managementType = 255; //creates nodes at managementType 255 = not yet usable(disabled),\n        ThisNode.storageProvider = 0; //creates nodes at storageType 0 = not yet usable(disabled),\n        ThisNode.discount = startingDiscount;\n        ThisNode.CAS1 = _CAS1;\n        ThisNode.CAS2 = _CAS2;\n        //^^^^^^^effects^^^^^^^^^\n\n        UTIL_TKN.trustedAgentBurn(_mintNodeTo, node_burn);\n        UTIL_TKN.trustedAgentTransfer(\n            _mintNodeTo,\n            rootPaymentAddress,\n            node_price\n        ); //burning 50%+ so we have tokens to incentivise outreach performance\n\n        _createNode(\n            ThisNode,\n            uint32(nodeTokenIndex),\n            _mintNodeTo,\n            _msgSender()\n        );\n\n        //Set the default 11 authorized contracts\n        if (_custodyType == 2) {\n            STOR.enableDefaultContractsForNode(uint32(nodeTokenIndex));\n        }\n\n        return nodeTokenIndex; //returns Node # of minted token\n        //^^^^^^^interactions^^^^^^^^^\n    }\n\n    /**\n     * @dev Authorize / Deauthorize users for an address be permitted to make record modifications\n     * @dev only useful for custody types that designate user adresses (type1...)\n     * @param _node - node that user is being authorized in\n     * @param _addrHash - hash of address belonging to user being authorized\n     * @param _userType - authority level for user (see docs)\n     */\n    function addUser(\n        uint32 _node,\n        bytes32 _addrHash,\n        uint8 _userType\n    ) external whenNotPaused isNodeHolder(_node) {\n        //^^^^^^^checks^^^^^^^^^\n\n        NODE_STOR.addUser(_node, _addrHash, _userType);\n        //^^^^^^^interactions^^^^^^^^^\n    }\n\n    /**\n     * @dev Set import status for foreign nodes\n     * @param _thisNode - node to dis/allow importing into\n     * @param _otherNode - node to be imported\n     * @param _newStatus - importability status (0=not importable, 1=importable >1 =????)\n     */\n    function updateImportStatus(\n        uint32 _thisNode,\n        uint32 _otherNode,\n        uint256 _newStatus\n    ) external whenNotPaused isNodeHolder(_thisNode) {\n        NODE_STOR.updateImportStatus(_thisNode, _otherNode, _newStatus);\n    }\n\n    /**\n     * @dev Modifies an node Node content adressable storage data pointer\n     * @param _node - node being modified\n     * @param _CAS1 - any external data attatched to node 1/2\n     * @param _CAS2 - any external data attatched to node 2/2\n     */\n    function updateNodeCAS(\n        uint32 _node,\n        bytes32 _CAS1,\n        bytes32 _CAS2\n    ) external whenNotPaused isNodeHolder(_node) {\n        Node memory thisNode = NODE_STOR.getNodeData(_node);\n        require(\n            (NODE_STOR.getSwitchAt(_node, 1) == 0) ||\n                (thisNode.CAS1 & thisNode.CAS2 == 0),\n            \"NM:UNC: CAS for node is set and cannot be written\"\n        );\n        //^^^^^^^checks^^^^^^^^^\n\n        NODE_STOR.updateNodeCAS(_node, _CAS1, _CAS2);\n        //^^^^^^^interactions^^^^^^^^^\n    }\n\n    /**\n     * @dev Set function costs and payment address per Node, in PRUF(18 decimals)\n     * @param _node - node to set service costs\n     * @param _service - service type being modified (see service types in ZZ_PRUF_DOCS)\n     * @param _serviceCost - 18 decimal fee in PRUF associated with specified service\n     * @param _paymentAddress - address to have _serviceCost paid to\n     */\n    function setOperationCosts(\n        uint32 _node,\n        uint16 _service,\n        uint256 _serviceCost,\n        address _paymentAddress\n    ) external whenNotPaused isNodeHolder(_node) {\n        //^^^^^^^checks^^^^^^^^^\n\n        NODE_STOR.setOperationCosts(\n            _node,\n            _service,\n            _serviceCost,\n            _paymentAddress\n        );\n        //^^^^^^^effects^^^^^^^^^\n    }\n\n    /**\n     * @dev Configure the immutable data in an Node one time\n     * @param _node - node being modified\n     * @param _managementType - managementType of node (see docs)\n     * @param _storageProvider - storageProvider of node (see docs)\n     * @param _refAddress - address permanently tied to node\n     */\n    function setNonMutableData(\n        uint32 _node,\n        uint8 _managementType,\n        uint8 _storageProvider,\n        address _refAddress\n    ) external whenNotPaused isNodeHolder(_node) {\n        Node memory thisNode = NODE_STOR.getNodeData(_node);\n\n        require(\n            thisNode.managementType == 255,\n            \"NM:SNMD: Immutable node data already set\"\n        );\n        require(\n            _managementType != 255,\n            \"NM:SNMD: managementType = 255(Unconfigured)\"\n        );\n\n        if(thisNode.custodyType != 3) { //CTS:EXAMINE\n            require(\n                _managementType != 0,\n                \"NM:SNMD: managementType cannot = 0 unless root\"\n            );\n        }\n\n        NODE_STOR.setNonMutableData(\n            _node,\n            _managementType,\n            _storageProvider,\n            _refAddress\n        );\n    }\n\n    //-------------------------------------------Private functions ----------------------------------------------\n\n    /**\n     * @dev creates an node and its corresponding namespace and data fields\n     * @param _newNodeData - creation Data for new Node\n     * @param _newNode - Node to be created (unique)\n     * @param _recipientAddress - address to recieve Node\n     */\n    function _createNode(\n        Node memory _newNodeData,\n        uint32 _newNode,\n        address _recipientAddress,\n        address _caller\n    ) private whenNotPaused {\n        uint256 tokenId = uint256(_newNode);\n\n        NODE_STOR.createNodeData(_newNodeData, _newNode, _caller);\n        NODE_TKN.mintNodeToken(_recipientAddress, tokenId, \"pruf.io/nodeToken\");\n        //^^^^^^^interactions^^^^^^^^^\n    }\n}\n",
  "sourcePath": "/Users/drake/Documents/DEV/PRUF/PRUF_TRUFFLE/contracts/ReleaseCandidates/PRUF_NODE_MGR.sol",
  "compiler": {
    "name": "solc",
    "version": "0.8.7+commit.e28d00a7.Emscripten.clang"
  },
  "schemaVersion": "3.4.3",
  "updatedAt": "2021-10-26T17:58:04.166Z",
  "devdoc": {
    "kind": "dev",
    "methods": {
      "ERC20Transfer(address,address,uint256)": {
        "details": "send an ERC20 token from this contract",
        "params": {
          "_amount": "amount to transfer",
          "_to": "destination",
          "_tokenContract": "Address of foreign token contract"
        }
      },
      "ERC721Transfer(address,address,uint256)": {
        "details": "send an ERC721 token from this contract",
        "params": {
          "_to": "destination",
          "_tokenContract": "Address of foreign token contract",
          "_tokenID": "Token ID"
        }
      },
      "addUser(uint32,bytes32,uint8)": {
        "details": "Authorize / Deauthorize users for an address be permitted to make record modificationsonly useful for custody types that designate user adresses (type1...)",
        "params": {
          "_addrHash": "- hash of address belonging to user being authorized",
          "_node": "- node that user is being authorized in",
          "_userType": "- authority level for user (see docs)"
        }
      },
      "createNode(uint32,string,uint32,uint8,uint8,uint8,uint32,bytes32,bytes32,address)": {
        "details": "Mints Node token and creates an node.",
        "params": {
          "_CAS1": "- any external data attatched to node 1/2",
          "_CAS2": "- any external data attatched to node 2/2",
          "_custodyType": "- custodyType of new node (see docs)",
          "_discount": "- discount of node (100 == 1%, 10000 == max)",
          "_managementType": "- managementType of new node (see docs)",
          "_name": "- name to be configured to node (unique)",
          "_node": "- node to be created (unique)",
          "_nodeRoot": "- root of node",
          "_recipientAddress": "- address to recieve node",
          "_storageProvider": "- storageProvider of new node (see docs)"
        }
      },
      "currentNodePricingInfo()": {
        "details": "return current node token index and price",
        "returns": {
          "_0": "{ nodeTokenIndex: current token number node_price: current price per node node_burn: burn per node }"
        }
      },
      "getRoleAdmin(bytes32)": {
        "details": "Returns the admin role that controls `role`. See {grantRole} and {revokeRole}. To change a role's admin, use {_setRoleAdmin}."
      },
      "grantRole(bytes32,address)": {
        "details": "Grants `role` to `account`. If `account` had not been already granted `role`, emits a {RoleGranted} event. Requirements: - the caller must have ``role``'s admin role."
      },
      "hasRole(bytes32,address)": {
        "details": "Returns `true` if `account` has been granted `role`."
      },
      "onERC721Received(address,address,uint256,bytes)": {
        "details": "Compliance for erc721 reciever See OZ documentation"
      },
      "paused()": {
        "details": "Returns true if the contract is paused, and false otherwise."
      },
      "purchaseNode(string,uint32,uint8,bytes32,bytes32,address)": {
        "details": "Burns (amount) tokens and mints a new Node token to the calling address",
        "params": {
          "_CAS1": "- any external data attatched to node 1/2",
          "_CAS2": "- any external data attatched to node 2/2",
          "_custodyType": "- chosen custodyType of node (see docs)",
          "_name": "- chosen name of node",
          "_nodeRoot": "- chosen root of node"
        }
      },
      "renounceRole(bytes32,address)": {
        "details": "Revokes `role` from the calling account. Roles are often managed via {grantRole} and {revokeRole}: this function's purpose is to provide a mechanism for accounts to lose their privileges if they are compromised (such as when a trusted device is misplaced). If the calling account had been granted `role`, emits a {RoleRevoked} event. Requirements: - the caller must be `account`."
      },
      "resolveContractAddresses()": {
        "details": "Resolve contract addresses from STOR"
      },
      "revokeRole(bytes32,address)": {
        "details": "Revokes `role` from `account`. If `account` had been granted `role`, emits a {RoleRevoked} event. Requirements: - the caller must have ``role``'s admin role."
      },
      "setNodePricing(uint256,uint256)": {
        "details": "Set pricing for Nodes",
        "params": {
          "_newNodeBurn": "- burn per node (18 decimals)",
          "_newNodePrice": "- cost per node (18 decimals)"
        }
      },
      "setNonMutableData(uint32,uint8,uint8,address)": {
        "details": "Configure the immutable data in an Node one time",
        "params": {
          "_managementType": "- managementType of node (see docs)",
          "_node": "- node being modified",
          "_refAddress": "- address permanently tied to node",
          "_storageProvider": "- storageProvider of node (see docs)"
        }
      },
      "setOperationCosts(uint32,uint16,uint256,address)": {
        "details": "Set function costs and payment address per Node, in PRUF(18 decimals)",
        "params": {
          "_node": "- node to set service costs",
          "_paymentAddress": "- address to have _serviceCost paid to",
          "_service": "- service type being modified (see service types in ZZ_PRUF_DOCS)",
          "_serviceCost": "- 18 decimal fee in PRUF associated with specified service"
        }
      },
      "setStorageContract(address)": {
        "details": "Set address of STOR contract to interface with",
        "params": {
          "_storageAddress": "address of PRUF_STOR"
        }
      },
      "supportsInterface(bytes4)": {
        "details": "See {IERC165-supportsInterface}."
      },
      "updateImportStatus(uint32,uint32,uint256)": {
        "details": "Set import status for foreign nodes",
        "params": {
          "_newStatus": "- importability status (0=not importable, 1=importable >1 =????)",
          "_otherNode": "- node to be imported",
          "_thisNode": "- node to dis/allow importing into"
        }
      },
      "updateNodeCAS(uint32,bytes32,bytes32)": {
        "details": "Modifies an node Node content adressable storage data pointer",
        "params": {
          "_CAS1": "- any external data attatched to node 1/2",
          "_CAS2": "- any external data attatched to node 2/2",
          "_node": "- node being modified"
        }
      }
    },
    "version": 1
  },
  "userdoc": {
    "kind": "user",
    "methods": {},
    "version": 1
  }
}