{
  "contractName": "NP",
  "abi": [
    {
      "anonymous": false,
      "inputs": [
        {
          "indexed": true,
          "internalType": "address",
          "name": "previousOwner",
          "type": "address"
        },
        {
          "indexed": true,
          "internalType": "address",
          "name": "newOwner",
          "type": "address"
        }
      ],
      "name": "OwnershipTransferred",
      "type": "event"
    },
    {
      "anonymous": false,
      "inputs": [
        {
          "indexed": false,
          "internalType": "address",
          "name": "account",
          "type": "address"
        }
      ],
      "name": "Paused",
      "type": "event"
    },
    {
      "anonymous": false,
      "inputs": [
        {
          "indexed": false,
          "internalType": "string",
          "name": "_msg",
          "type": "string"
        }
      ],
      "name": "REPORT",
      "type": "event"
    },
    {
      "anonymous": false,
      "inputs": [
        {
          "indexed": false,
          "internalType": "address",
          "name": "account",
          "type": "address"
        }
      ],
      "name": "Unpaused",
      "type": "event"
    },
    {
      "inputs": [],
      "name": "$withdraw",
      "outputs": [],
      "stateMutability": "payable",
      "type": "function"
    },
    {
      "inputs": [],
      "name": "OO_pause",
      "outputs": [],
      "stateMutability": "nonpayable",
      "type": "function"
    },
    {
      "inputs": [],
      "name": "OO_resolveContractAddresses",
      "outputs": [],
      "stateMutability": "nonpayable",
      "type": "function"
    },
    {
      "inputs": [
        {
          "internalType": "address",
          "name": "_storageAddress",
          "type": "address"
        }
      ],
      "name": "OO_setStorageContract",
      "outputs": [],
      "stateMutability": "nonpayable",
      "type": "function"
    },
    {
      "inputs": [
        {
          "internalType": "address",
          "name": "_to",
          "type": "address"
        },
        {
          "internalType": "bytes32",
          "name": "_idxHash",
          "type": "bytes32"
        }
      ],
      "name": "OO_transferACToken",
      "outputs": [],
      "stateMutability": "nonpayable",
      "type": "function"
    },
    {
      "inputs": [],
      "name": "OO_unpause",
      "outputs": [],
      "stateMutability": "nonpayable",
      "type": "function"
    },
    {
      "inputs": [
        {
          "internalType": "address",
          "name": "",
          "type": "address"
        },
        {
          "internalType": "address",
          "name": "",
          "type": "address"
        },
        {
          "internalType": "uint256",
          "name": "",
          "type": "uint256"
        },
        {
          "internalType": "bytes",
          "name": "",
          "type": "bytes"
        }
      ],
      "name": "onERC721Received",
      "outputs": [
        {
          "internalType": "bytes4",
          "name": "",
          "type": "bytes4"
        }
      ],
      "stateMutability": "nonpayable",
      "type": "function"
    },
    {
      "inputs": [],
      "name": "owner",
      "outputs": [
        {
          "internalType": "address",
          "name": "",
          "type": "address"
        }
      ],
      "stateMutability": "view",
      "type": "function"
    },
    {
      "inputs": [],
      "name": "paused",
      "outputs": [
        {
          "internalType": "bool",
          "name": "",
          "type": "bool"
        }
      ],
      "stateMutability": "view",
      "type": "function"
    },
    {
      "inputs": [
        {
          "internalType": "address",
          "name": "dest",
          "type": "address"
        }
      ],
      "name": "payments",
      "outputs": [
        {
          "internalType": "uint256",
          "name": "",
          "type": "uint256"
        }
      ],
      "stateMutability": "view",
      "type": "function"
    },
    {
      "inputs": [],
      "name": "renounceOwnership",
      "outputs": [],
      "stateMutability": "nonpayable",
      "type": "function"
    },
    {
      "inputs": [
        {
          "internalType": "address",
          "name": "_to",
          "type": "address"
        },
        {
          "internalType": "bytes32",
          "name": "_idxHash",
          "type": "bytes32"
        }
      ],
      "name": "transferAssetToken",
      "outputs": [],
      "stateMutability": "nonpayable",
      "type": "function"
    },
    {
      "inputs": [
        {
          "internalType": "address",
          "name": "newOwner",
          "type": "address"
        }
      ],
      "name": "transferOwnership",
      "outputs": [],
      "stateMutability": "nonpayable",
      "type": "function"
    },
    {
      "inputs": [
        {
          "internalType": "address payable",
          "name": "payee",
          "type": "address"
        }
      ],
      "name": "withdrawPayments",
      "outputs": [],
      "stateMutability": "nonpayable",
      "type": "function"
    },
    {
      "inputs": [
        {
          "internalType": "bytes32",
          "name": "_idxHash",
          "type": "bytes32"
        },
        {
          "internalType": "bytes32",
          "name": "_rgtHash",
          "type": "bytes32"
        },
        {
          "internalType": "uint8",
          "name": "_newAssetStatus",
          "type": "uint8"
        }
      ],
      "name": "_modStatus",
      "outputs": [
        {
          "internalType": "uint8",
          "name": "",
          "type": "uint8"
        }
      ],
      "stateMutability": "nonpayable",
      "type": "function"
    },
    {
      "inputs": [
        {
          "internalType": "bytes32",
          "name": "_idxHash",
          "type": "bytes32"
        },
        {
          "internalType": "bytes32",
          "name": "_rgtHash",
          "type": "bytes32"
        },
        {
          "internalType": "uint8",
          "name": "_newAssetStatus",
          "type": "uint8"
        }
      ],
      "name": "_setLostOrStolen",
      "outputs": [
        {
          "internalType": "uint8",
          "name": "",
          "type": "uint8"
        }
      ],
      "stateMutability": "nonpayable",
      "type": "function"
    },
    {
      "inputs": [
        {
          "internalType": "bytes32",
          "name": "_idxHash",
          "type": "bytes32"
        },
        {
          "internalType": "bytes32",
          "name": "_rgtHash",
          "type": "bytes32"
        },
        {
          "internalType": "uint32",
          "name": "_decAmount",
          "type": "uint32"
        }
      ],
      "name": "_decCounter",
      "outputs": [
        {
          "internalType": "uint32",
          "name": "",
          "type": "uint32"
        }
      ],
      "stateMutability": "nonpayable",
      "type": "function"
    },
    {
      "inputs": [
        {
          "internalType": "bytes32",
          "name": "_idxHash",
          "type": "bytes32"
        },
        {
          "internalType": "bytes32",
          "name": "_rgtHash",
          "type": "bytes32"
        },
        {
          "internalType": "bytes32",
          "name": "_IpfsHash",
          "type": "bytes32"
        }
      ],
      "name": "_modIpfs1",
      "outputs": [
        {
          "internalType": "bytes32",
          "name": "",
          "type": "bytes32"
        }
      ],
      "stateMutability": "nonpayable",
      "type": "function"
    },
    {
      "inputs": [
        {
          "internalType": "bytes32",
          "name": "_idxHash",
          "type": "bytes32"
        },
        {
          "internalType": "address",
          "name": "_addr",
          "type": "address"
        }
      ],
      "name": "exportAsset",
      "outputs": [
        {
          "internalType": "uint8",
          "name": "",
          "type": "uint8"
        }
      ],
      "stateMutability": "nonpayable",
      "type": "function"
    }
  ],
  "bytecode": "0x60806040523480156200001157600080fd5b506040516200002090620000d1565b604051809103906000f0801580156200003d573d6000803e3d6000fd5b50600080546001600160a01b0319166001600160a01b0392909216919091178155600180556200006c620000cd565b600280546001600160a01b0319166001600160a01b038316908117909155604051919250906000907f8be0079c531659141344cd1fd0a4f28419497f9722a3daafe3b4186f6b6457e0908290a3506002805460ff60a01b19169055620000df565b3390565b61074f8062002ed483390190565b612de580620000ef6000396000f3fe6080604052600436106101145760003560e01c8063c79b226e116100a0578063e620bf3811610064578063e620bf3814610437578063e8b4165314610470578063e927244c14610485578063ee54387b146104be578063f2fde38b146104f457610114565b8063c79b226e1461031c578063c84375df14610355578063cf2b6f66146103aa578063d6b02ecf146103bf578063e2982c21146103f257610114565b80635c975abb116100e75780635c975abb146102495780636dcd1f5a14610272578063715018a6146102c15780638da5cb5b146102d6578063961e809b1461030757610114565b8063150b7a02146101195780632cb741aa146101d357806331b3eb94146101dd578063440e7a7e14610210575b600080fd5b34801561012557600080fd5b506101b66004803603608081101561013c57600080fd5b6001600160a01b0382358116926020810135909116916040820135919081019060808101606082013564010000000081111561017757600080fd5b82018360208201111561018957600080fd5b803590602001918460018302840111640100000000831117156101ab57600080fd5b509092509050610527565b604080516001600160e01b03199092168252519081900360200190f35b6101db610538565b005b3480156101e957600080fd5b506101db6004803603602081101561020057600080fd5b50356001600160a01b0316610592565b34801561021c57600080fd5b506101db6004803603604081101561023357600080fd5b506001600160a01b0381351690602001356105f8565b34801561025557600080fd5b5061025e61072e565b604080519115158252519081900360200190f35b34801561027e57600080fd5b506102ab6004803603606081101561029557600080fd5b508035906020810135906040013560ff1661073e565b6040805160ff9092168252519081900360200190f35b3480156102cd57600080fd5b506101db610af5565b3480156102e257600080fd5b506102eb610b97565b604080516001600160a01b039092168252519081900360200190f35b34801561031357600080fd5b506101db610ba6565b34801561032857600080fd5b506101db6004803603604081101561033f57600080fd5b506001600160a01b038135169060200135610c08565b34801561036157600080fd5b506103916004803603606081101561037857600080fd5b508035906020810135906040013563ffffffff16610d09565b6040805163ffffffff9092168252519081900360200190f35b3480156103b657600080fd5b506101db610fdb565b3480156103cb57600080fd5b506101db600480360360208110156103e257600080fd5b50356001600160a01b031661103b565b3480156103fe57600080fd5b506104256004803603602081101561041557600080fd5b50356001600160a01b03166110fa565b60408051918252519081900360200190f35b34801561044357600080fd5b506102ab6004803603604081101561045a57600080fd5b50803590602001356001600160a01b031661117c565b34801561047c57600080fd5b506101db6114cd565b34801561049157600080fd5b506102ab600480360360608110156104a857600080fd5b508035906020810135906040013560ff16611d03565b3480156104ca57600080fd5b50610425600480360360608110156104e157600080fd5b508035906020810135906040013561201f565b34801561050057600080fd5b506101db6004803603602081101561051757600080fd5b50356001600160a01b03166122c2565b630a85bd0160e11b95945050505050565b6002600154141561057e576040805162461bcd60e51b815260206004820152601f6024820152600080516020612a63833981519152604482015290519081900360640190fd5b600260015561058c33610592565b60018055565b60008054604080516351cff8d960e01b81526001600160a01b038581166004830152915191909216926351cff8d9926024808201939182900301818387803b1580156105dd57600080fd5b505af11580156105f1573d6000803e3d6000fd5b5050505050565b6002600154141561063e576040805162461bcd60e51b815260206004820152601f6024820152600080516020612a63833981519152604482015290519081900360640190fd5b600260015561064b610b97565b6001600160a01b0316336001600160a01b0316148061067457506019546001600160a01b031633145b6106af5760405162461bcd60e51b8152600401808060200182810382526026815260200180612c7f6026913960400191505060405180910390fd5b600a5460408051632142170760e11b81523060048201526001600160a01b038581166024830152604482018590529151849392909216916342842e0e9160648082019260009290919082900301818387803b15801561070d57600080fd5b505af1158015610721573d6000803e3d6000fd5b5050600180555050505050565b600254600160a01b900460ff1690565b600060026001541415610786576040805162461bcd60e51b815260206004820152601f6024820152600080516020612a63833981519152604482015290519081900360640190fd5b6002600181905554600160a01b900460ff16156107dd576040805162461bcd60e51b815260206004820152601060248201526f14185d5cd8589b194e881c185d5cd95960821b604482015290519081900360640190fd5b601354600a54604080516331a9108f60e11b8152600481018890529051879384936001600160a01b0391821693911691636352211e916024808201926020929091908290030181600087803b15801561083557600080fd5b505af1158015610849573d6000803e3d6000fd5b505050506040513d602081101561085f57600080fd5b50516001600160a01b0316146108a65760405162461bcd60e51b8152600401808060200182810382526031815260200180612bf26031913960400191505060405180910390fd5b6108ae6129e8565b6108b7876123bb565b905060006108c8826020015161253d565b905060008160ff161180156108e05750600a8160ff16105b610931576040805162461bcd60e51b815260206004820152601a60248201527f4e503a4d533a2055736572206e6f74206175746820696e204143000000000000604482015290519081900360640190fd5b8560ff1660071415801561094957508560ff16603914155b801561095957508560ff16603a14155b8015610968575060648660ff16105b6109ad576040805162461bcd60e51b815260206004820152601160248201527013940e9354ce8814dd185d08149cdc9d99607a1b604482015290519081900360640190fd5b6109b6866125ee565b60ff16156109f55760405162461bcd60e51b8152600401808060200182810382526058815260200180612ceb6058913960600191505060405180910390fd5b8151610a00906125ee565b60ff1615610a3f5760405162461bcd60e51b815260040180806020018281038252603c815260200180612c23603c913960400191505060405180910390fd5b6031826000015160ff161180610a58575060058160ff16105b610a935760405162461bcd60e51b815260040180806020018281038252602f815260200180612a83602f913960400191505060405180910390fd5b868260c0015114610ad55760405162461bcd60e51b8152600401808060200182810382526030815260200180612d806030913960400191505060405180910390fd5b60ff86168252610ae5888361263d565b5051600180559695505050505050565b610afd612738565b6002546001600160a01b03908116911614610b4d576040805162461bcd60e51b81526020600482018190526024820152600080516020612c5f833981519152604482015290519081900360640190fd5b6002546040516000916001600160a01b0316907f8be0079c531659141344cd1fd0a4f28419497f9722a3daafe3b4186f6b6457e0908390a3600280546001600160a01b0319169055565b6002546001600160a01b031690565b610bae612738565b6002546001600160a01b03908116911614610bfe576040805162461bcd60e51b81526020600482018190526024820152600080516020612c5f833981519152604482015290519081900360640190fd5b610c0661273c565b565b610c10612738565b6002546001600160a01b03908116911614610c60576040805162461bcd60e51b81526020600482018190526024820152600080516020612c5f833981519152604482015290519081900360640190fd5b60026001541415610ca6576040805162461bcd60e51b815260206004820152601f6024820152600080516020612a63833981519152604482015290519081900360640190fd5b6002600155600c5460408051632142170760e11b81523060048201526001600160a01b038581166024830152604482018590529151849392909216916342842e0e9160648082019260009290919082900301818387803b15801561070d57600080fd5b600060026001541415610d51576040805162461bcd60e51b815260206004820152601f6024820152600080516020612a63833981519152604482015290519081900360640190fd5b6002600181905554600160a01b900460ff1615610da8576040805162461bcd60e51b815260206004820152601060248201526f14185d5cd8589b194e881c185d5cd95960821b604482015290519081900360640190fd5b601354600a54604080516331a9108f60e11b8152600481018890529051879384936001600160a01b0391821693911691636352211e916024808201926020929091908290030181600087803b158015610e0057600080fd5b505af1158015610e14573d6000803e3d6000fd5b505050506040513d6020811015610e2a57600080fd5b50516001600160a01b031614610e715760405162461bcd60e51b8152600401808060200182810382526031815260200180612bf26031913960400191505060405180910390fd5b610e796129e8565b610e82876123bb565b90506000610e93826020015161253d565b905060008160ff16118015610eab5750600a8160ff16105b610efc576040805162461bcd60e51b815260206004820152601a60248201527f4e503a44433a2075736572206e6f74206175746820696e204143000000000000604482015290519081900360640190fd5b8151610f07906125ee565b60ff1615610f465760405162461bcd60e51b815260040180806020018281038252603b815260200180612b5f603b913960400191505060405180910390fd5b868260c0015114610f885760405162461bcd60e51b8152600401808060200182810382526030815260200180612bc26030913960400191505060405180910390fd5b8563ffffffff16826040015163ffffffff161115610fb65760408201805187900363ffffffff169052610fbe565b600060408301525b610fc8888361263d565b5060400151600180559695505050505050565b610fe3612738565b6002546001600160a01b03908116911614611033576040805162461bcd60e51b81526020600482018190526024820152600080516020612c5f833981519152604482015290519081900360640190fd5b610c066127e4565b611043612738565b6002546001600160a01b03908116911614611093576040805162461bcd60e51b81526020600482018190526024820152600080516020612c5f833981519152604482015290519081900360640190fd5b6001600160a01b0381166110d85760405162461bcd60e51b8152600401808060200182810382526025815260200180612b3a6025913960400191505060405180910390fd5b600480546001600160a01b0319166001600160a01b0392909216919091179055565b60008054604080516371d4ed8d60e11b81526001600160a01b0385811660048301529151919092169163e3a9db1a916024808301926020929190829003018186803b15801561114857600080fd5b505afa15801561115c573d6000803e3d6000fd5b505050506040513d602081101561117257600080fd5b505190505b919050565b6000600260015414156111c4576040805162461bcd60e51b815260206004820152601f6024820152600080516020612a63833981519152604482015290519081900360640190fd5b6002600181905554600160a01b900460ff161561121b576040805162461bcd60e51b815260206004820152601060248201526f14185d5cd8589b194e881c185d5cd95960821b604482015290519081900360640190fd5b601354600a54604080516331a9108f60e11b8152600481018790529051869384936001600160a01b0391821693911691636352211e916024808201926020929091908290030181600087803b15801561127357600080fd5b505af1158015611287573d6000803e3d6000fd5b505050506040513d602081101561129d57600080fd5b50516001600160a01b0316146112e45760405162461bcd60e51b8152600401808060200182810382526031815260200180612bf26031913960400191505060405180910390fd5b6112ec6129e8565b6112f5866123bb565b90506000611306826020015161253d565b9050611310612a34565b61131d8360200151612872565b905060008260ff161180156113355750600a8260ff16105b611386576040805162461bcd60e51b815260206004820152601a60248201527f4e503a45413a2075736572206e6f74206175746820696e204143000000000000604482015290519081900360640190fd5b826000015160ff166033146113cc5760405162461bcd60e51b8152600401808060200182810382526028815260200180612b9a6028913960400191505060405180910390fd5b60468352601454604080516322073d3f60e11b81526001600160a01b038a81166004830152602482018c90529151919092169163440e7a7e91604480830192600092919082900301818387803b15801561142557600080fd5b505af1158015611439573d6000803e3d6000fd5b50505050611447888461263d565b6004805460208301516040805163315017c360e11b81529384018c905263ffffffff9091166024840152516001600160a01b03909116916362a02f8691604480830192600092919082900301818387803b1580156114a457600080fd5b505af11580156114b8573d6000803e3d6000fd5b50509351600180559998505050505050505050565b60026001541415611513576040805162461bcd60e51b815260206004820152601f6024820152600080516020612a63833981519152604482015290519081900360640190fd5b6002600155611520612738565b6002546001600160a01b03908116911614611570576040805162461bcd60e51b81526020600482018190526024820152600080516020612c5f833981519152604482015290519081900360640190fd5b60048054604080516363b8d4c160e11b81526020938101849052600660248201526520a1afaa25a760d11b604482015290516001600160a01b039092169263c771a98292606480840193829003018186803b1580156115ce57600080fd5b505afa1580156115e2573d6000803e3d6000fd5b505050506040513d60208110156115f857600080fd5b5051600b80546001600160a01b039283166001600160a01b03199182161791829055600c805490911691831691909117905560048054604080516363b8d4c160e11b81526020938101849052600660248201526520a1afa6a3a960d11b60448201529051919093169263c771a982926064808301939192829003018186803b15801561168357600080fd5b505afa158015611697573d6000803e3d6000fd5b505050506040513d60208110156116ad57600080fd5b5051600580546001600160a01b039283166001600160a01b031991821617918290556006805490911691831691909117905560048054604080516363b8d4c160e11b8152602093810184905260086024820152672aaa24a62faa25a760c11b60448201529051919093169263c771a982926064808301939192829003018186803b15801561173a57600080fd5b505afa15801561174e573d6000803e3d6000fd5b505050506040513d602081101561176457600080fd5b5051600780546001600160a01b039283166001600160a01b031991821617918290556008805490911691831691909117905560048054604080516363b8d4c160e11b81526020938101849052600560248201526420afaa25a760d91b60448201529051919093169263c771a982926064808301939192829003018186803b1580156117ee57600080fd5b505afa158015611802573d6000803e3d6000fd5b505050506040513d602081101561181857600080fd5b5051600980546001600160a01b039283166001600160a01b03199182161791829055600a805490911691831691909117905560048054604080516363b8d4c160e11b81526020938101849052600660248201526524a22faa25a760d11b60448201529051919093169263c771a982926064808301939192829003018186803b1580156118a357600080fd5b505afa1580156118b7573d6000803e3d6000fd5b505050506040513d60208110156118cd57600080fd5b5051600d80546001600160a01b039283166001600160a01b03199182161791829055600e805490911691831691909117905560048054604080516363b8d4c160e11b81526020938101849052600760248201526622a1a92fa6a3a960c91b60448201529051919093169263c771a982926064808301939192829003018186803b15801561195957600080fd5b505afa15801561196d573d6000803e3d6000fd5b505050506040513d602081101561198357600080fd5b5051600f80546001600160a01b039283166001600160a01b031991821617918290556010805490911691831691909117905560048054604080516363b8d4c160e11b81526020938101849052600360248201526204150560ec1b60448201529051919093169263c771a982926064808301939192829003018186803b158015611a0b57600080fd5b505afa158015611a1f573d6000803e3d6000fd5b505050506040513d6020811015611a3557600080fd5b5051601380546001600160a01b039283166001600160a01b031991821617918290556014805490911691831691909117905560048054604080516363b8d4c160e11b815260208185018190526024820194909452632921a62960e11b60448201529051919093169263c771a982926064808301939192829003018186803b158015611abf57600080fd5b505afa158015611ad3573d6000803e3d6000fd5b505050506040513d6020811015611ae957600080fd5b5051601180546001600160a01b039283166001600160a01b031991821617918290556012805490911691831691909117905560048054604080516363b8d4c160e11b8152602093810184905260066024820152654150505f4e4360d01b60448201529051919093169263c771a982926064808301939192829003018186803b158015611b7457600080fd5b505afa158015611b88573d6000803e3d6000fd5b505050506040513d6020811015611b9e57600080fd5b5051601580546001600160a01b0319166001600160a01b0392831617905560048054604080516363b8d4c160e11b81526020938101849052600260248201526104e560f41b60448201529051919093169263c771a982926064808301939192829003018186803b158015611c1157600080fd5b505afa158015611c25573d6000803e3d6000fd5b505050506040513d6020811015611c3b57600080fd5b5051601980546001600160a01b0319166001600160a01b0392831617905560048054604080516363b8d4c160e11b81526020938101849052600660248201526553484152455360d01b60448201529051919093169263c771a982926064808301939192829003018186803b158015611cb257600080fd5b505afa158015611cc6573d6000803e3d6000fd5b505050506040513d6020811015611cdc57600080fd5b5051601780546001600160a01b0319166001600160a01b0390921691909117905560018055565b600060026001541415611d4b576040805162461bcd60e51b815260206004820152601f6024820152600080516020612a63833981519152604482015290519081900360640190fd5b6002600181905554600160a01b900460ff1615611da2576040805162461bcd60e51b815260206004820152601060248201526f14185d5cd8589b194e881c185d5cd95960821b604482015290519081900360640190fd5b601354600a54604080516331a9108f60e11b8152600481018890529051879384936001600160a01b0391821693911691636352211e916024808201926020929091908290030181600087803b158015611dfa57600080fd5b505af1158015611e0e573d6000803e3d6000fd5b505050506040513d6020811015611e2457600080fd5b50516001600160a01b031614611e6b5760405162461bcd60e51b8152600401808060200182810382526031815260200180612bf26031913960400191505060405180910390fd5b611e736129e8565b611e7c876123bb565b90506000611e8d826020015161253d565b905060008160ff16118015611ea55750600a8160ff16105b611ef6576040805162461bcd60e51b815260206004820152601b60248201527f4e503a534c533a2075736572206e6f74206175746820696e2041430000000000604482015290519081900360640190fd5b6031826000015160ff161180611f1d575060328660ff16108015611f1d575060058160ff16105b611f585760405162461bcd60e51b8152600401808060200182810382526046815260200180612ca56046913960600191505060405180910390fd5b868260c0015114611f9a5760405162461bcd60e51b8152600401808060200182810382526031815260200180612ab26031913960400191505060405180910390fd5b60ff86168083526004805460408051637911aa5360e11b81529283018c9052602483019390935291516001600160a01b039092169163f22354a69160448082019260009290919082900301818387803b158015611ff657600080fd5b505af115801561200a573d6000803e3d6000fd5b50509251600180559998505050505050505050565b600060026001541415612067576040805162461bcd60e51b815260206004820152601f6024820152600080516020612a63833981519152604482015290519081900360640190fd5b6002600181905554600160a01b900460ff16156120be576040805162461bcd60e51b815260206004820152601060248201526f14185d5cd8589b194e881c185d5cd95960821b604482015290519081900360640190fd5b601354600a54604080516331a9108f60e11b8152600481018890529051879384936001600160a01b0391821693911691636352211e916024808201926020929091908290030181600087803b15801561211657600080fd5b505af115801561212a573d6000803e3d6000fd5b505050506040513d602081101561214057600080fd5b50516001600160a01b0316146121875760405162461bcd60e51b8152600401808060200182810382526031815260200180612bf26031913960400191505060405180910390fd5b61218f6129e8565b612198876123bb565b905060006121a9826020015161253d565b905060008160ff161180156121c15750600a8160ff16105b612212576040805162461bcd60e51b815260206004820152601b60248201527f4e503a4d49313a2075736572206e6f74206175746820696e2041430000000000604482015290519081900360640190fd5b815161221d906125ee565b60ff161561225c5760405162461bcd60e51b815260040180806020018281038252603d815260200180612d43603d913960400191505060405180910390fd5b868260c001511461229e5760405162461bcd60e51b8152600401808060200182810382526031815260200180612b096031913960400191505060405180910390fd5b60e082018690526122af888361293e565b5060e00151600180559695505050505050565b6122ca612738565b6002546001600160a01b0390811691161461231a576040805162461bcd60e51b81526020600482018190526024820152600080516020612c5f833981519152604482015290519081900360640190fd5b6001600160a01b03811661235f5760405162461bcd60e51b8152600401808060200182810382526026815260200180612ae36026913960400191505060405180910390fd5b6002546040516001600160a01b038084169216907f8be0079c531659141344cd1fd0a4f28419497f9722a3daafe3b4186f6b6457e090600090a3600280546001600160a01b0319166001600160a01b0392909216919091179055565b6123c36129e8565b6123cb6129e8565b6000806000806000806000600460009054906101000a90046001600160a01b03166001600160a01b031663e248f2c48b6040518263ffffffff1660e01b81526004018082815260200191505060e06040518083038186803b15801561242f57600080fd5b505afa158015612443573d6000803e3d6000fd5b505050506040513d60e081101561245957600080fd5b81019080805190602001909291908051906020019092919080519060200190929190805190602001909291908051906020019092919080519060200190929190805190602001909291905050509650965096509650965096509650868860c001818152505085886000019060ff16908160ff168152505084886020019063ffffffff16908163ffffffff168152505083886040019063ffffffff16908163ffffffff168152505082886060019063ffffffff16908163ffffffff1681525050818860e001818152505080886101000181815250505050505050505080915050919050565b600654604080513360601b6020808301919091528251808303601401815260348301808552815191830191909120634e963e7760e11b909152603883015263ffffffff85166058830152915160009384936001600160a01b0390911692639d2c7cee9260788083019392829003018186803b1580156125bb57600080fd5b505afa1580156125cf573d6000803e3d6000fd5b505050506040513d60208110156125e557600080fd5b50519392505050565b60008160ff1660051415801561260857508160ff16603714155b801561261857508160ff16604614155b801561262857508160ff16603c14155b1561263557506000611177565b5060aa611177565b600254600160a01b900460ff161561268f576040805162461bcd60e51b815260206004820152601060248201526f14185d5cd8589b194e881c185d5cd95960821b604482015290519081900360640190fd5b6004805460c0830151835160408086015160a0870151608088015183516331aeaa7f60e11b81529788018a9052602488019590955260ff909316604487015263ffffffff166064860152608485019190915260a4840191909152516001600160a01b039091169163635d54fe9160c480830192600092919082900301818387803b15801561271c57600080fd5b505af1158015612730573d6000803e3d6000fd5b505050505050565b3390565b600254600160a01b900460ff16612791576040805162461bcd60e51b815260206004820152601460248201527314185d5cd8589b194e881b9bdd081c185d5cd95960621b604482015290519081900360640190fd5b6002805460ff60a01b191690557f5db9ee0a495bf2e6ff9c91a7834c1ba4fdd244a5e8aa4e537bd38aeae4b073aa6127c7612738565b604080516001600160a01b039092168252519081900360200190a1565b600254600160a01b900460ff1615612836576040805162461bcd60e51b815260206004820152601060248201526f14185d5cd8589b194e881c185d5cd95960821b604482015290519081900360640190fd5b6002805460ff60a01b1916600160a01b1790557f62e78cea01bee320cd4e420270b5ea74000d11b0c9f74754ebdbfc544b05a2586127c7612738565b61287a612a34565b612882612a34565b60065460408051630f24350160e41b815263ffffffff8616600482015290516001600160a01b039092169163f243501091602480820192608092909190829003018186803b1580156128d357600080fd5b505afa1580156128e7573d6000803e3d6000fd5b505050506040513d60808110156128fd57600080fd5b50805160208083015160408085015160609586015163ffffffff90811660808901529081169587019590955260ff9091169085015291169082015292915050565b600254600160a01b900460ff1615612990576040805162461bcd60e51b815260206004820152601060248201526f14185d5cd8589b194e881c185d5cd95960821b604482015290519081900360640190fd5b6004805460e0830151604080516310b3712960e21b81529384018690526024840191909152516001600160a01b03909116916342cdc4a491604480830192600092919082900301818387803b15801561271c57600080fd5b6040805161012081018252600080825260208201819052918101829052606081018290526080810182905260a0810182905260c0810182905260e0810182905261010081019190915290565b6040805160a0810182526060808252600060208301819052928201839052810182905260808101919091529056fe5265656e7472616e637947756172643a207265656e7472616e742063616c6c004e503a4d533a204f6e6c79207573657274797065203c20352063616e206368616e676520737461747573203c2034394e503a534c533a20526967687473686f6c64657220646f6573206e6f74206d6174636820737570706c69656420646174614f776e61626c653a206e6577206f776e657220697320746865207a65726f20616464726573734e503a4d49313a20526967687473686f6c64657220646f6573206e6f74206d6174636820737570706c6965642064617461423a5353433a2073746f7261676520616464726573732063616e6e6f74206265207a65726f4e503a4443205265636f726420696e20756e726567697374657265642c206578706f727465642c206f7220646973636172646564207374617475734e503a45413a20417373657420737461747573206d75737420626520353120746f206578706f72744e503a44433a20526967687473686f6c64657220646f6573206e6f74206d6174636820737570706c69656420646174614e503a4d4f442d49413a20437573746f6469616c20636f6e747261637420646f6573206e6f7420686f6c6420746f6b656e4e503a4d533a205265636f726420696e20756e726567697374657265642c206578706f727465642c206f7220646973636172646564207374617475734f776e61626c653a2063616c6c6572206973206e6f7420746865206f776e6572423a54583a496e76616c69642063616c6c657220666f72207472616e7366657220746f6b656e4e503a534c533a204f6e6c79207573657274797065203c352063616e206368616e67652061203c34392073746174757320617373657420746f2061203e3439207374617475734e503a4d533a2043616e6e6f7420706c61636520617373657420696e20756e726567697374657265642c206578706f727465642c206f722064697363617264656420737461747573207573696e67206d6f645374617475734e503a4d49313a205265636f726420696e20756e726567697374657265642c206578706f727465642c206f7220646973636172646564207374617475734e503a4d533a20526967687473686f6c64657220646f6573206e6f74206d6174636820737570706c6965642064617461a2646970667358221220c4f279704e4b6cd17dc23e98a32d8acc9434ea325754d24ab48bc454d708ee7864736f6c634300060c0033608060405234801561001057600080fd5b50600061001b61006a565b600080546001600160a01b0319166001600160a01b0383169081178255604051929350917f8be0079c531659141344cd1fd0a4f28419497f9722a3daafe3b4186f6b6457e0908290a35061006e565b3390565b6106d28061007d6000396000f3fe6080604052600436106100555760003560e01c806351cff8d91461005a578063715018a61461008f5780638da5cb5b146100a4578063e3a9db1a146100d5578063f2fde38b1461011a578063f340fa011461014d575b600080fd5b34801561006657600080fd5b5061008d6004803603602081101561007d57600080fd5b50356001600160a01b0316610173565b005b34801561009b57600080fd5b5061008d610236565b3480156100b057600080fd5b506100b96102d8565b604080516001600160a01b039092168252519081900360200190f35b3480156100e157600080fd5b50610108600480360360208110156100f857600080fd5b50356001600160a01b03166102e7565b60408051918252519081900360200190f35b34801561012657600080fd5b5061008d6004803603602081101561013d57600080fd5b50356001600160a01b0316610302565b61008d6004803603602081101561016357600080fd5b50356001600160a01b03166103fa565b61017b6104cd565b6000546001600160a01b039081169116146101cb576040805162461bcd60e51b8152602060048201819052602482015260008051602061067d833981519152604482015290519081900360640190fd5b6001600160a01b03811660008181526001602052604081208054919055906101f390826104d1565b6040805182815290516001600160a01b038416917f7084f5476618d8e60b11ef0d7d3f06914655adb8793e28ff7f018d4c76d505d5919081900360200190a25050565b61023e6104cd565b6000546001600160a01b0390811691161461028e576040805162461bcd60e51b8152602060048201819052602482015260008051602061067d833981519152604482015290519081900360640190fd5b600080546040516001600160a01b03909116907f8be0079c531659141344cd1fd0a4f28419497f9722a3daafe3b4186f6b6457e0908390a3600080546001600160a01b0319169055565b6000546001600160a01b031690565b6001600160a01b031660009081526001602052604090205490565b61030a6104cd565b6000546001600160a01b0390811691161461035a576040805162461bcd60e51b8152602060048201819052602482015260008051602061067d833981519152604482015290519081900360640190fd5b6001600160a01b03811661039f5760405162461bcd60e51b815260040180806020018281038252602681526020018061061d6026913960400191505060405180910390fd5b600080546040516001600160a01b03808516939216917f8be0079c531659141344cd1fd0a4f28419497f9722a3daafe3b4186f6b6457e091a3600080546001600160a01b0319166001600160a01b0392909216919091179055565b6104026104cd565b6000546001600160a01b03908116911614610452576040805162461bcd60e51b8152602060048201819052602482015260008051602061067d833981519152604482015290519081900360640190fd5b6001600160a01b038116600090815260016020526040902054349061047790826105bb565b6001600160a01b038316600081815260016020908152604091829020939093558051848152905191927f2da466a7b24304f47e87fa2e1e5a81b9831ce54fec19055ce277ca2f39ba42c492918290030190a25050565b3390565b80471015610526576040805162461bcd60e51b815260206004820152601d60248201527f416464726573733a20696e73756666696369656e742062616c616e6365000000604482015290519081900360640190fd5b6040516000906001600160a01b0384169083908381818185875af1925050503d8060008114610571576040519150601f19603f3d011682016040523d82523d6000602084013e610576565b606091505b50509050806105b65760405162461bcd60e51b815260040180806020018281038252603a815260200180610643603a913960400191505060405180910390fd5b505050565b600082820183811015610615576040805162461bcd60e51b815260206004820152601b60248201527f536166654d6174683a206164646974696f6e206f766572666c6f770000000000604482015290519081900360640190fd5b939250505056fe4f776e61626c653a206e6577206f776e657220697320746865207a65726f2061646472657373416464726573733a20756e61626c6520746f2073656e642076616c75652c20726563697069656e74206d617920686176652072657665727465644f776e61626c653a2063616c6c6572206973206e6f7420746865206f776e6572a26469706673582212208d3549e28c6ba65df20af8bc7ec639e42a0a50794842b2da57f87b4ad416257964736f6c634300060c0033",
  "immutableReferences": {},
  "source": "/*-----------------------------------------------------------V0.7.0\n__/\\\\\\\\\\\\\\\\\\\\\\\\\\ _____/\\\\\\\\\\\\\\\\\\ _______/\\\\../\\\\ ___/\\\\\\\\\\\\\\\\\\\\\\\\\\\\\\\n _\\/\\\\\\/////////\\\\\\ _/\\\\\\///////\\\\\\ ____\\//..\\//____\\/\\\\\\///////////__\n  _\\/\\\\\\.......\\/\\\\\\.\\/\\\\\\.....\\/\\\\\\ ________________\\/\\\\\\ ____________\n   _\\/\\\\\\\\\\\\\\\\\\\\\\\\\\/__\\/\\\\\\\\\\\\\\\\\\\\\\/_____/\\\\\\____/\\\\\\.\\/\\\\\\\\\\\\\\\\\\\\\\ ____\n    _\\/\\\\\\/////////____\\/\\\\\\//////\\\\\\ ___\\/\\\\\\___\\/\\\\\\.\\/\\\\\\///////______\n     _\\/\\\\\\ ____________\\/\\\\\\ ___\\//\\\\\\ __\\/\\\\\\___\\/\\\\\\.\\/\\\\\\ ____________\n      _\\/\\\\\\ ____________\\/\\\\\\ ____\\//\\\\\\ _\\/\\\\\\___\\/\\\\\\.\\/\\\\\\ ____________\n       _\\/\\\\\\ ____________\\/\\\\\\ _____\\//\\\\\\.\\//\\\\\\\\\\\\\\\\\\ _\\/\\\\\\ ____________\n        _\\/// _____________\\/// _______\\/// __\\///////// __\\/// _____________\n         *-------------------------------------------------------------------*/\n\n/*-----------------------------------------------------------------\n *  TO DO\n *\n *---------------------------------------------------------------*/\n\n// SPDX-License-Identifier: UNLICENSED\npragma solidity ^0.6.7;\n\nimport \"./PRUF_CORE.sol\";\n\ncontract NP is CORE {\n    /*\n     * @dev Verify user credentials\n     * Originating Address:\n     */\n    modifier isAuthorized(bytes32 _idxHash) override {\n        uint256 tokenId = uint256(_idxHash);\n        require(\n            (A_TKN.ownerOf(tokenId) == APP_Address),\n            \"NP:MOD-IA: Custodial contract does not hold token\"\n        );\n        _;\n    }\n\n    //--------------------------------------------External Functions--------------------------\n\n    /*\n     * @dev Modify **Record**.assetStatus with confirmation required\n     */\n    function _modStatus(\n        bytes32 _idxHash,\n        bytes32 _rgtHash,\n        uint8 _newAssetStatus\n    )\n        external\n        nonReentrant\n        whenNotPaused\n        isAuthorized(_idxHash)\n        returns (uint8)\n    {\n        Record memory rec = getRecord(_idxHash);\n        uint8 userType = getCallingUserType(rec.assetClass);\n\n        require(\n            (userType > 0) && (userType < 10),\n            \"NP:MS: User not auth in AC\"\n        );\n        require(\n            (_newAssetStatus != 7) &&\n            (_newAssetStatus != 57) &&\n            (_newAssetStatus != 58) &&\n            (_newAssetStatus < 100),\n            \"NP:MS: Stat Rsrvd\"\n        );\n        require(\n            needsImport(_newAssetStatus) == 0,\n            \"NP:MS: Cannot place asset in unregistered, exported, or discarded status using modStatus\"\n        );\n        require(\n            needsImport(rec.assetStatus) == 0,\n            \"NP:MS: Record in unregistered, exported, or discarded status\"\n        );\n        require(\n            (rec.assetStatus > 49) || (userType < 5),\n            \"NP:MS: Only usertype < 5 can change status < 49\"\n        );\n        require(\n            rec.rightsHolder == _rgtHash,\n            \"NP:MS: Rightsholder does not match supplied data\"\n        );\n        //^^^^^^^checks^^^^^^^^^\n\n        rec.assetStatus = _newAssetStatus;\n        //^^^^^^^effects^^^^^^^^^\n\n        writeRecord(_idxHash, rec);\n\n        return rec.assetStatus;\n        //^^^^^^^interactions^^^^^^^^^\n    }\n\n    /*\n     * @dev set **Record**.assetStatus to lost or stolen, with confirmation required.\n     */\n    function _setLostOrStolen(\n        bytes32 _idxHash,\n        bytes32 _rgtHash,\n        uint8 _newAssetStatus\n    )\n        external\n        nonReentrant\n        whenNotPaused\n        isAuthorized(_idxHash)\n        returns (uint8)\n    {\n        Record memory rec = getRecord(_idxHash);\n        uint8 userType = getCallingUserType(rec.assetClass);\n        require(\n            (userType > 0) && (userType < 10),\n            \"NP:SLS: user not auth in AC\"\n        );\n        require(\n            (rec.assetStatus > 49) ||\n                ((_newAssetStatus < 50) && (userType < 5)),\n            \"NP:SLS: Only usertype <5 can change a <49 status asset to a >49 status\"\n        );\n        require(\n            rec.rightsHolder == _rgtHash,\n            \"NP:SLS: Rightsholder does not match supplied data\"\n        );\n        //^^^^^^^checks^^^^^^^^^\n\n        rec.assetStatus = _newAssetStatus;\n        //^^^^^^^effects^^^^^^^^^\n\n        STOR.setStolenOrLost(_idxHash, rec.assetStatus);\n\n        return rec.assetStatus;\n        //^^^^^^^interactions^^^^^^^^^\n    }\n\n    /*\n     * @dev Decrement **Record**.countdown with confirmation required\n     */\n    function _decCounter(\n        bytes32 _idxHash,\n        bytes32 _rgtHash,\n        uint32 _decAmount\n    )\n        external\n        nonReentrant\n        whenNotPaused\n        isAuthorized(_idxHash)\n        returns (uint32)\n    {\n        Record memory rec = getRecord(_idxHash);\n        uint8 userType = getCallingUserType(rec.assetClass);\n\n        require(\n            (userType > 0) && (userType < 10),\n            \"NP:DC: user not auth in AC\"\n        );\n        require(\n            needsImport(rec.assetStatus) == 0,\n            \"NP:DC Record in unregistered, exported, or discarded status\"\n        );\n        require(\n            rec.rightsHolder == _rgtHash,\n            \"NP:DC: Rightsholder does not match supplied data\"\n        );\n        //^^^^^^^checks^^^^^^^^^\n\n        if (rec.countDown > _decAmount) {\n            rec.countDown = rec.countDown - _decAmount;\n        } else {\n            rec.countDown = 0;\n        }\n        //^^^^^^^effects^^^^^^^^^\n\n        writeRecord(_idxHash, rec);\n        return (rec.countDown);\n        //^^^^^^^interactions^^^^^^^^^\n    }\n\n    /*\n     * @dev Modify **Record**.Ipfs1 with confirmation\n     */\n    function _modIpfs1(\n        bytes32 _idxHash,\n        bytes32 _rgtHash,\n        bytes32 _IpfsHash\n    )\n        external\n        nonReentrant\n        whenNotPaused\n        isAuthorized(_idxHash)\n        returns (bytes32)\n    {\n        Record memory rec = getRecord(_idxHash);\n        uint8 userType = getCallingUserType(rec.assetClass);\n        require(\n            (userType > 0) && (userType < 10),\n            \"NP:MI1: user not auth in AC\"\n        );\n        require(\n            needsImport(rec.assetStatus) == 0,\n            \"NP:MI1: Record in unregistered, exported, or discarded status\"\n        );\n        require(\n            rec.rightsHolder == _rgtHash,\n            \"NP:MI1: Rightsholder does not match supplied data\"\n        );\n        //^^^^^^^checks^^^^^^^^^\n\n        rec.Ipfs1 = _IpfsHash;\n        //^^^^^^^effects^^^^^^^^^\n\n        writeRecordIpfs1(_idxHash, rec);\n\n        return rec.Ipfs1;\n        //^^^^^^^interactions^^^^^^^^^\n    }\n\n    /*\n     *     @dev Export FROM Custodial:\n     */\n    function exportAsset(bytes32 _idxHash, address _addr)\n        external\n        nonReentrant\n        whenNotPaused\n        isAuthorized(_idxHash)\n        returns (uint8)\n    {\n        Record memory rec = getRecord(_idxHash);\n        uint8 userType = getCallingUserType(rec.assetClass);\n        AC memory AC_info = getACinfo(rec.assetClass);\n\n        require(\n            (userType > 0) && (userType < 10),\n            \"NP:EA: user not auth in AC\"\n        );\n        require( // require transferrable (51) status\n            rec.assetStatus == 51,\n            \"NP:EA: Asset status must be 51 to export\"\n        );\n        //^^^^^^^checks^^^^^^^^^\n\n        rec.assetStatus = 70; // Set status to 70 (exported)\n        //^^^^^^^effects^^^^^^^^^\n\n        APP.transferAssetToken(_addr, _idxHash);\n        writeRecord(_idxHash, rec);\n        STOR.changeAC(_idxHash, AC_info.assetClassRoot);\n\n        return rec.assetStatus;\n        //^^^^^^^interactions^^^^^^^^^\n    }\n}\n",
  "sourcePath": "/Users/cts/dev/PRUF/PRUF_TRUFFLE/contracts/PRUF_NP.sol",
  "compiler": {
    "name": "solc",
    "version": "0.6.12+commit.27d51765.Emscripten.clang"
  },
  "schemaVersion": "3.2.3",
  "updatedAt": "2020-09-22T21:30:52.891Z",
  "devdoc": {
    "kind": "dev",
    "methods": {
      "OO_pause()": {
        "details": "Triggers stopped state. (pausable)"
      },
      "OO_unpause()": {
        "details": "Returns to normal state. (pausable)"
      },
      "owner()": {
        "details": "Returns the address of the current owner."
      },
      "paused()": {
        "details": "Returns true if the contract is paused, and false otherwise."
      },
      "payments(address)": {
        "details": "Returns the payments owed to an address.",
        "params": {
          "dest": "The creditor's address."
        }
      },
      "renounceOwnership()": {
        "details": "Leaves the contract without owner. It will not be possible to call `onlyOwner` functions anymore. Can only be called by the current owner. NOTE: Renouncing ownership will leave the contract without an owner, thereby removing any functionality that is only available to the owner."
      },
      "transferOwnership(address)": {
        "details": "Transfers ownership of the contract to a new account (`newOwner`). Can only be called by the current owner."
      },
      "withdrawPayments(address)": {
        "details": "Withdraw accumulated payments, forwarding all gas to the recipient. Note that _any_ account can call this function, not just the `payee`. This means that contracts unaware of the `PullPayment` protocol can still receive funds this way, by having a separate account call {withdrawPayments}. WARNING: Forwarding all gas opens the door to reentrancy vulnerabilities. Make sure you trust the recipient, or are either following the checks-effects-interactions pattern or using {ReentrancyGuard}.",
        "params": {
          "payee": "Whose payments will be withdrawn."
        }
      }
    },
    "version": 1
  },
  "userdoc": {
    "kind": "user",
    "methods": {},
    "version": 1
  }
}