{
  "contractName": "NP",
  "abi": [
    {
      "anonymous": false,
      "inputs": [
        {
          "indexed": true,
          "internalType": "address",
          "name": "previousOwner",
          "type": "address"
        },
        {
          "indexed": true,
          "internalType": "address",
          "name": "newOwner",
          "type": "address"
        }
      ],
      "name": "OwnershipTransferred",
      "type": "event"
    },
    {
      "anonymous": false,
      "inputs": [
        {
          "indexed": false,
          "internalType": "address",
          "name": "account",
          "type": "address"
        }
      ],
      "name": "Paused",
      "type": "event"
    },
    {
      "anonymous": false,
      "inputs": [
        {
          "indexed": false,
          "internalType": "string",
          "name": "_msg",
          "type": "string"
        }
      ],
      "name": "REPORT",
      "type": "event"
    },
    {
      "anonymous": false,
      "inputs": [
        {
          "indexed": false,
          "internalType": "address",
          "name": "account",
          "type": "address"
        }
      ],
      "name": "Unpaused",
      "type": "event"
    },
    {
      "inputs": [],
      "name": "$withdraw",
      "outputs": [],
      "stateMutability": "payable",
      "type": "function"
    },
    {
      "inputs": [],
      "name": "OO_ResolveContractAddresses",
      "outputs": [],
      "stateMutability": "nonpayable",
      "type": "function"
    },
    {
      "inputs": [
        {
          "internalType": "address",
          "name": "_to",
          "type": "address"
        },
        {
          "internalType": "bytes32",
          "name": "_idxHash",
          "type": "bytes32"
        }
      ],
      "name": "OO_TX_AC_Token",
      "outputs": [],
      "stateMutability": "nonpayable",
      "type": "function"
    },
    {
      "inputs": [
        {
          "internalType": "address",
          "name": "_to",
          "type": "address"
        },
        {
          "internalType": "bytes32",
          "name": "_idxHash",
          "type": "bytes32"
        }
      ],
      "name": "OO_TX_asset_Token",
      "outputs": [],
      "stateMutability": "nonpayable",
      "type": "function"
    },
    {
      "inputs": [],
      "name": "OO_pause",
      "outputs": [],
      "stateMutability": "nonpayable",
      "type": "function"
    },
    {
      "inputs": [
        {
          "internalType": "address",
          "name": "_storageAddress",
          "type": "address"
        }
      ],
      "name": "OO_setStorageContract",
      "outputs": [],
      "stateMutability": "nonpayable",
      "type": "function"
    },
    {
      "inputs": [],
      "name": "OO_unpause",
      "outputs": [],
      "stateMutability": "nonpayable",
      "type": "function"
    },
    {
      "inputs": [
        {
          "internalType": "address",
          "name": "",
          "type": "address"
        },
        {
          "internalType": "address",
          "name": "",
          "type": "address"
        },
        {
          "internalType": "uint256",
          "name": "",
          "type": "uint256"
        },
        {
          "internalType": "bytes",
          "name": "",
          "type": "bytes"
        }
      ],
      "name": "onERC721Received",
      "outputs": [
        {
          "internalType": "bytes4",
          "name": "",
          "type": "bytes4"
        }
      ],
      "stateMutability": "nonpayable",
      "type": "function"
    },
    {
      "inputs": [],
      "name": "owner",
      "outputs": [
        {
          "internalType": "address",
          "name": "",
          "type": "address"
        }
      ],
      "stateMutability": "view",
      "type": "function"
    },
    {
      "inputs": [],
      "name": "paused",
      "outputs": [
        {
          "internalType": "bool",
          "name": "",
          "type": "bool"
        }
      ],
      "stateMutability": "view",
      "type": "function"
    },
    {
      "inputs": [
        {
          "internalType": "address",
          "name": "dest",
          "type": "address"
        }
      ],
      "name": "payments",
      "outputs": [
        {
          "internalType": "uint256",
          "name": "",
          "type": "uint256"
        }
      ],
      "stateMutability": "view",
      "type": "function"
    },
    {
      "inputs": [],
      "name": "renounceOwnership",
      "outputs": [],
      "stateMutability": "nonpayable",
      "type": "function"
    },
    {
      "inputs": [
        {
          "internalType": "address",
          "name": "newOwner",
          "type": "address"
        }
      ],
      "name": "transferOwnership",
      "outputs": [],
      "stateMutability": "nonpayable",
      "type": "function"
    },
    {
      "inputs": [
        {
          "internalType": "address payable",
          "name": "payee",
          "type": "address"
        }
      ],
      "name": "withdrawPayments",
      "outputs": [],
      "stateMutability": "nonpayable",
      "type": "function"
    },
    {
      "inputs": [
        {
          "internalType": "bytes32",
          "name": "_idxHash",
          "type": "bytes32"
        },
        {
          "internalType": "bytes32",
          "name": "_rgtHash",
          "type": "bytes32"
        },
        {
          "internalType": "uint8",
          "name": "_newAssetStatus",
          "type": "uint8"
        }
      ],
      "name": "_modStatus",
      "outputs": [
        {
          "internalType": "uint8",
          "name": "",
          "type": "uint8"
        }
      ],
      "stateMutability": "nonpayable",
      "type": "function"
    },
    {
      "inputs": [
        {
          "internalType": "bytes32",
          "name": "_idxHash",
          "type": "bytes32"
        },
        {
          "internalType": "bytes32",
          "name": "_rgtHash",
          "type": "bytes32"
        },
        {
          "internalType": "uint8",
          "name": "_newAssetStatus",
          "type": "uint8"
        }
      ],
      "name": "_setLostOrStolen",
      "outputs": [
        {
          "internalType": "uint8",
          "name": "",
          "type": "uint8"
        }
      ],
      "stateMutability": "nonpayable",
      "type": "function"
    },
    {
      "inputs": [
        {
          "internalType": "bytes32",
          "name": "_idxHash",
          "type": "bytes32"
        },
        {
          "internalType": "bytes32",
          "name": "_rgtHash",
          "type": "bytes32"
        },
        {
          "internalType": "uint256",
          "name": "_decAmount",
          "type": "uint256"
        }
      ],
      "name": "_decCounter",
      "outputs": [
        {
          "internalType": "uint256",
          "name": "",
          "type": "uint256"
        }
      ],
      "stateMutability": "nonpayable",
      "type": "function"
    },
    {
      "inputs": [
        {
          "internalType": "bytes32",
          "name": "_idxHash",
          "type": "bytes32"
        },
        {
          "internalType": "bytes32",
          "name": "_rgtHash",
          "type": "bytes32"
        },
        {
          "internalType": "bytes32",
          "name": "_IpfsHash",
          "type": "bytes32"
        }
      ],
      "name": "_modIpfs1",
      "outputs": [
        {
          "internalType": "bytes32",
          "name": "",
          "type": "bytes32"
        }
      ],
      "stateMutability": "nonpayable",
      "type": "function"
    }
  ],
  "bytecode": "0x60806040523480156200001157600080fd5b506040516200002090620000d1565b604051809103906000f0801580156200003d573d6000803e3d6000fd5b50600080546001600160a01b0319166001600160a01b0392909216919091178155600180556200006c620000cd565b600280546001600160a01b0319166001600160a01b038316908117909155604051919250906000907f8be0079c531659141344cd1fd0a4f28419497f9722a3daafe3b4186f6b6457e0908290a3506002805460ff60a01b19169055620000df565b3390565b610764806200329483390190565b6131a580620000ef6000396000f3fe6080604052600436106101095760003560e01c80638da5cb5b11610095578063d6b02ecf11610064578063d6b02ecf146103bc578063e2982c21146103ef578063e927244c14610422578063ee54387b1461045b578063f2fde38b1461049157610109565b80638da5cb5b14610328578063961e809b14610359578063b1d83c181461036e578063cf2b6f66146103a757610109565b8063466aafa4116100dc578063466aafa41461024d5780634b9f23a4146102865780635c975abb1461029b5780636dcd1f5a146102c4578063715018a61461031357610109565b8063150b7a021461010e5780632cb741aa146101c857806331b3eb94146101d25780634333a05214610205575b600080fd5b34801561011a57600080fd5b506101ab6004803603608081101561013157600080fd5b6001600160a01b0382358116926020810135909116916040820135919081019060808101606082013564010000000081111561016c57600080fd5b82018360208201111561017e57600080fd5b803590602001918460018302840111640100000000831117156101a057600080fd5b5090925090506104c4565b604080516001600160e01b03199092168252519081900360200190f35b6101d06104d5565b005b3480156101de57600080fd5b506101d0600480360360208110156101f557600080fd5b50356001600160a01b031661052f565b34801561021157600080fd5b5061023b6004803603606081101561022857600080fd5b5080359060208101359060400135610595565b60408051918252519081900360200190f35b34801561025957600080fd5b506101d06004803603604081101561027057600080fd5b506001600160a01b038135169060200135610a0b565b34801561029257600080fd5b506101d0610b2d565b3480156102a757600080fd5b506102b06110a1565b604080519115158252519081900360200190f35b3480156102d057600080fd5b506102fd600480360360608110156102e757600080fd5b508035906020810135906040013560ff166110b1565b6040805160ff9092168252519081900360200190f35b34801561031f57600080fd5b506101d0611657565b34801561033457600080fd5b5061033d6116f9565b604080516001600160a01b039092168252519081900360200190f35b34801561036557600080fd5b506101d0611708565b34801561037a57600080fd5b506101d06004803603604081101561039157600080fd5b506001600160a01b03813516906020013561176a565b3480156103b357600080fd5b506101d061186b565b3480156103c857600080fd5b506101d0600480360360208110156103df57600080fd5b50356001600160a01b03166118cb565b3480156103fb57600080fd5b5061023b6004803603602081101561041257600080fd5b50356001600160a01b031661198a565b34801561042e57600080fd5b506102fd6004803603606081101561044557600080fd5b508035906020810135906040013560ff16611a0a565b34801561046757600080fd5b5061023b6004803603606081101561047e57600080fd5b5080359060208101359060400135611f25565b34801561049d57600080fd5b506101d0600480360360208110156104b457600080fd5b50356001600160a01b031661238a565b630a85bd0160e11b95945050505050565b6002600154141561051b576040805162461bcd60e51b815260206004820152601f6024820152600080516020612bad833981519152604482015290519081900360640190fd5b60026001556105293361052f565b60018055565b60008054604080516351cff8d960e01b81526001600160a01b038581166004830152915191909216926351cff8d9926024808201939182900301818387803b15801561057a57600080fd5b505af115801561058e573d6000803e3d6000fd5b5050505050565b6000600260015414156105dd576040805162461bcd60e51b815260206004820152601f6024820152600080516020612bad833981519152604482015290519081900360640190fd5b6002600181905554600160a01b900460ff1615610634576040805162461bcd60e51b815260206004820152601060248201526f14185d5cd8589b194e881c185d5cd95960821b604482015290519081900360640190fd5b600f54600854604080516331a9108f60e11b8152600481018890529051879384936001600160a01b0391821693911691636352211e916024808201926020929091908290030181600087803b15801561068c57600080fd5b505af11580156106a0573d6000803e3d6000fd5b505050506040513d60208110156106b657600080fd5b50516001600160a01b0316146106fd5760405162461bcd60e51b815260040180806020018281038252602e815260200180612cf9602e913960400191505060405180910390fd5b610705612b49565b61070e87612483565b9050600061071f826060015161262c565b9050610729612b95565b6107373084606001516126db565b805190915060ff1661077a5760405162461bcd60e51b81526004018080602001828103825260348152602001806130f56034913960400191505060405180910390fd5b82516107cd576040805162461bcd60e51b815260206004820152601d60248201527f504e503a44433a205265636f726420646f6573206e6f74206578697374000000604482015290519081900360640190fd5b60008260ff161180156107e35750600a8260ff16105b61081e5760405162461bcd60e51b8152600401808060200182810382526046815260200180612c6c6046913960600191505060405180910390fd5b826020015160ff1660061415801561083e5750826020015160ff16603214155b80156108525750826020015160ff16603814155b61088d5760405162461bcd60e51b81526004018080602001828103825260258152602001806130d06025913960400191505060405180910390fd5b600087116108cc5760405162461bcd60e51b815260040180806020018281038252602b81526020018061303a602b913960400191505060405180910390fd5b826020015160ff166005141580156108ec5750826020015160ff16603714155b6109275760405162461bcd60e51b8152600401808060200182810382526031815260200180612e3f6031913960400191505060405180910390fd5b60c8836020015160ff161061097b576040805162461bcd60e51b81526020600482015260156024820152741413940e9110ce88149958dbdc99081b1bd8dad959605a1b604482015290519081900360640190fd5b825188146109ba5760405162461bcd60e51b8152600401808060200182810382526031815260200180612ddc6031913960400191505060405180910390fd5b86836080015111156109e55760808301516109db908863ffffffff61278a16565b60808401526109ed565b600060808401525b6109f789846127d3565b505060800151600180559695505050505050565b610a136128ce565b6002546001600160a01b03908116911614610a63576040805162461bcd60e51b81526020600482018190526024820152600080516020612f4b833981519152604482015290519081900360640190fd5b60026001541415610aa9576040805162461bcd60e51b815260206004820152601f6024820152600080516020612bad833981519152604482015290519081900360640190fd5b600260015560085460408051632142170760e11b81523060048201526001600160a01b038581166024830152604482018590529151849392909216916342842e0e9160648082019260009290919082900301818387803b158015610b0c57600080fd5b505af1158015610b20573d6000803e3d6000fd5b5050600180555050505050565b60026001541415610b73576040805162461bcd60e51b815260206004820152601f6024820152600080516020612bad833981519152604482015290519081900360640190fd5b6002600155610b806128ce565b6002546001600160a01b03908116911614610bd0576040805162461bcd60e51b81526020600482018190526024820152600080516020612f4b833981519152604482015290519081900360640190fd5b60048054604080516363b8d4c160e11b81526020938101849052600660248201526520a1afaa25a760d11b604482015290516001600160a01b039092169263c771a982926064808401938290030181600087803b158015610c3057600080fd5b505af1158015610c44573d6000803e3d6000fd5b505050506040513d6020811015610c5a57600080fd5b5051600980546001600160a01b039283166001600160a01b03199182161791829055600a805490911691831691909117905560048054604080516363b8d4c160e11b81526020938101849052600660248201526520a1afa6a3a960d11b60448201529051919093169263c771a9829260648083019391928290030181600087803b158015610ce757600080fd5b505af1158015610cfb573d6000803e3d6000fd5b505050506040513d6020811015610d1157600080fd5b5051600580546001600160a01b039283166001600160a01b0319918216178083556006805490921690841617905560048054604080516363b8d4c160e11b8152602093810184905260248101949094526420afaa25a760d91b60448501525193169263c771a9829260648082019392918290030181600087803b158015610d9757600080fd5b505af1158015610dab573d6000803e3d6000fd5b505050506040513d6020811015610dc157600080fd5b5051600780546001600160a01b039283166001600160a01b0319918216178083556008805490921690841617905560048054604080516363b8d4c160e11b8152602093810184905260248101949094526622a1a92fa6a3a960c91b60448501525193169263c771a9829260648082019392918290030181600087803b158015610e4957600080fd5b505af1158015610e5d573d6000803e3d6000fd5b505050506040513d6020811015610e7357600080fd5b5051600b80546001600160a01b039283166001600160a01b03199182161791829055600c805490911691831691909117905560048054604080516363b8d4c160e11b81526020938101849052600360248201526204150560ec1b60448201529051919093169263c771a9829260648083019391928290030181600087803b158015610efd57600080fd5b505af1158015610f11573d6000803e3d6000fd5b505050506040513d6020811015610f2757600080fd5b5051600f80546001600160a01b0319166001600160a01b0392831617905560048054604080516363b8d4c160e11b8152602093810184905260066024820152654150505f4e4360d01b60448201529051919093169263c771a9829260648083019391928290030181600087803b158015610fa057600080fd5b505af1158015610fb4573d6000803e3d6000fd5b505050506040513d6020811015610fca57600080fd5b5051601080546001600160a01b0319166001600160a01b0392831617905560048054604080516363b8d4c160e11b815260208185018190526024820194909452632921a62960e11b60448201529051919093169263c771a9829260648083019391928290030181600087803b15801561104257600080fd5b505af1158015611056573d6000803e3d6000fd5b505050506040513d602081101561106c57600080fd5b5051600d80546001600160a01b03199081166001600160a01b039384161791829055600e805492909316911617905560018055565b600254600160a01b900460ff1690565b6000600260015414156110f9576040805162461bcd60e51b815260206004820152601f6024820152600080516020612bad833981519152604482015290519081900360640190fd5b6002600181905554600160a01b900460ff1615611150576040805162461bcd60e51b815260206004820152601060248201526f14185d5cd8589b194e881c185d5cd95960821b604482015290519081900360640190fd5b600f54600854604080516331a9108f60e11b8152600481018890529051879384936001600160a01b0391821693911691636352211e916024808201926020929091908290030181600087803b1580156111a857600080fd5b505af11580156111bc573d6000803e3d6000fd5b505050506040513d60208110156111d257600080fd5b50516001600160a01b0316146112195760405162461bcd60e51b815260040180806020018281038252602e815260200180612cf9602e913960400191505060405180910390fd5b611221612b49565b61122a87612483565b9050600061123b826060015161262c565b9050611245612b95565b6112533084606001516126db565b805190915060ff166112965760405162461bcd60e51b81526004018080602001828103825260348152602001806130f56034913960400191505060405180910390fd5b82516112e9576040805162461bcd60e51b815260206004820152601d60248201527f504e503a4d533a205265636f726420646f6573206e6f74206578697374000000604482015290519081900360640190fd5b60008260ff161180156112ff5750600a8260ff16105b61133a5760405162461bcd60e51b8152600401808060200182810382526046815260200180612fce6046913960600191505060405180910390fd5b60648760ff1610801561135157508660ff16600314155b801561136157508660ff16600414155b801561137157508660ff16600514155b801561138157508660ff16600614155b801561139157508660ff16600714155b80156113a157508660ff16603214155b80156113b157508660ff16603514155b80156113c157508660ff16603614155b80156113d157508660ff16603714155b80156113e157508660ff16603814155b80156113f157508660ff16603914155b801561140157508660ff16603a14155b61143c5760405162461bcd60e51b8152600401808060200182810382526025815260200180612db76025913960400191505060405180910390fd5b8660ff166046141561147f5760405162461bcd60e51b815260040180806020018281038252603b815260200180612f10603b913960400191505060405180910390fd5b826020015160ff1660061415801561149f5750826020015160ff16603214155b80156114b35750826020015160ff16603814155b6114ee5760405162461bcd60e51b8152600401808060200182810382526047815260200180612d276047913960600191505060405180910390fd5b826020015160ff1660051415801561150e5750826020015160ff16603714155b6115495760405162461bcd60e51b8152600401808060200182810382526049815260200180612d6e6049913960600191505060405180910390fd5b6031836020015160ff161180611562575060058260ff16105b61159d5760405162461bcd60e51b8152600401808060200182810382526030815260200180612e706030913960400191505060405180910390fd5b825188146115dc5760405162461bcd60e51b8152600401808060200182810382526031815260200180612f6b6031913960400191505060405180910390fd5b60c8836020015160ff1610611630576040805162461bcd60e51b81526020600482015260156024820152741413940e9354ce88149958dbdc99081b1bd8dad959605a1b604482015290519081900360640190fd5b60ff8716602084015261164389846127d3565b505060200151600180559695505050505050565b61165f6128ce565b6002546001600160a01b039081169116146116af576040805162461bcd60e51b81526020600482018190526024820152600080516020612f4b833981519152604482015290519081900360640190fd5b6002546040516000916001600160a01b0316907f8be0079c531659141344cd1fd0a4f28419497f9722a3daafe3b4186f6b6457e0908390a3600280546001600160a01b0319169055565b6002546001600160a01b031690565b6117106128ce565b6002546001600160a01b03908116911614611760576040805162461bcd60e51b81526020600482018190526024820152600080516020612f4b833981519152604482015290519081900360640190fd5b6117686128d2565b565b6117726128ce565b6002546001600160a01b039081169116146117c2576040805162461bcd60e51b81526020600482018190526024820152600080516020612f4b833981519152604482015290519081900360640190fd5b60026001541415611808576040805162461bcd60e51b815260206004820152601f6024820152600080516020612bad833981519152604482015290519081900360640190fd5b6002600155600a5460408051632142170760e11b81523060048201526001600160a01b038581166024830152604482018590529151849392909216916342842e0e9160648082019260009290919082900301818387803b158015610b0c57600080fd5b6118736128ce565b6002546001600160a01b039081169116146118c3576040805162461bcd60e51b81526020600482018190526024820152600080516020612f4b833981519152604482015290519081900360640190fd5b61176861297a565b6118d36128ce565b6002546001600160a01b03908116911614611923576040805162461bcd60e51b81526020600482018190526024820152600080516020612f4b833981519152604482015290519081900360640190fd5b6001600160a01b0381166119685760405162461bcd60e51b8152600401808060200182810382526026815260200180612eea6026913960400191505060405180910390fd5b600480546001600160a01b0319166001600160a01b0392909216919091179055565b60008054604080516371d4ed8d60e11b81526001600160a01b0385811660048301529151919092169163e3a9db1a916024808301926020929190829003018186803b1580156119d857600080fd5b505afa1580156119ec573d6000803e3d6000fd5b505050506040513d6020811015611a0257600080fd5b505192915050565b600060026001541415611a52576040805162461bcd60e51b815260206004820152601f6024820152600080516020612bad833981519152604482015290519081900360640190fd5b6002600181905554600160a01b900460ff1615611aa9576040805162461bcd60e51b815260206004820152601060248201526f14185d5cd8589b194e881c185d5cd95960821b604482015290519081900360640190fd5b600f54600854604080516331a9108f60e11b8152600481018890529051879384936001600160a01b0391821693911691636352211e916024808201926020929091908290030181600087803b158015611b0157600080fd5b505af1158015611b15573d6000803e3d6000fd5b505050506040513d6020811015611b2b57600080fd5b50516001600160a01b031614611b725760405162461bcd60e51b815260040180806020018281038252602e815260200180612cf9602e913960400191505060405180910390fd5b611b7a612b49565b611b8387612483565b90506000611b94826060015161262c565b9050611b9e612b95565b611bac3084606001516126db565b805190915060ff16611bef5760405162461bcd60e51b81526004018080602001828103825260348152602001806130f56034913960400191505060405180910390fd5b8251611c42576040805162461bcd60e51b815260206004820152601e60248201527f504e503a534c533a205265636f726420646f6573206e6f742065786973740000604482015290519081900360640190fd5b60008260ff16118015611c585750600a8260ff16105b611c935760405162461bcd60e51b8152600401808060200182810382526047815260200180612cb26047913960600191505060405180910390fd5b8660ff1660031480611ca857508660ff166004145b80611cb657508660ff166035145b80611cc457508660ff166036145b611cff5760405162461bcd60e51b815260040180806020018281038252602c815260200180613065602c913960400191505060405180910390fd5b6031836020015160ff161180611d26575060328760ff16108015611d26575060058260ff16105b611d615760405162461bcd60e51b81526004018080602001828103825260478152602001806131296047913960600191505060405180910390fd5b826020015160ff16600514158015611d815750826020015160ff16603714155b611dbc5760405162461bcd60e51b815260040180806020018281038252604a815260200180612ea0604a913960600191505060405180910390fd5b826020015160ff1660321415611e035760405162461bcd60e51b815260040180806020018281038252603f815260200180613091603f913960400191505060405180910390fd5b60c8836020015160ff1610611e58576040805162461bcd60e51b81526020600482015260166024820152751413940e94d314ce88149958dbdc99081b1bd8dad95960521b604482015290519081900360640190fd5b82518814611e975760405162461bcd60e51b8152600401808060200182810382526032815260200180612f9c6032913960400191505060405180910390fd5b60ff8716602084018190526004805460408051637911aa5360e11b81529283018d9052602483019390935291516001600160a01b039092169163f22354a69160448082019260009290919082900301818387803b158015611ef757600080fd5b505af1158015611f0b573d6000803e3d6000fd5b505050602090930151600180559998505050505050505050565b600060026001541415611f6d576040805162461bcd60e51b815260206004820152601f6024820152600080516020612bad833981519152604482015290519081900360640190fd5b6002600181905554600160a01b900460ff1615611fc4576040805162461bcd60e51b815260206004820152601060248201526f14185d5cd8589b194e881c185d5cd95960821b604482015290519081900360640190fd5b600f54600854604080516331a9108f60e11b8152600481018890529051879384936001600160a01b0391821693911691636352211e916024808201926020929091908290030181600087803b15801561201c57600080fd5b505af1158015612030573d6000803e3d6000fd5b505050506040513d602081101561204657600080fd5b50516001600160a01b03161461208d5760405162461bcd60e51b815260040180806020018281038252602e815260200180612cf9602e913960400191505060405180910390fd5b612095612b49565b61209e87612483565b905060006120af826060015161262c565b90506120b9612b95565b6120c73084606001516126db565b805190915060ff1661210a5760405162461bcd60e51b81526004018080602001828103825260348152602001806130f56034913960400191505060405180910390fd5b825161215d576040805162461bcd60e51b815260206004820152601e60248201527f504e503a4d49313a205265636f726420646f6573206e6f742065786973740000604482015290519081900360640190fd5b60008260ff161180156121735750600a8260ff16105b6121ae5760405162461bcd60e51b8152600401808060200182810382526047815260200180612bcd6047913960600191505060405180910390fd5b868360c001511415612207576040805162461bcd60e51b815260206004820152601d60248201527f504e503a4d49313a204e657720646174612073616d65206173206f6c64000000604482015290519081900360640190fd5b826020015160ff166006141580156122275750826020015160ff16603214155b801561223b5750826020015160ff16603814155b6122765760405162461bcd60e51b81526004018080602001828103825260268152602001806130146026913960400191505060405180910390fd5b826020015160ff166005141580156122965750826020015160ff16603714155b6122d15760405162461bcd60e51b8152600401808060200182810382526032815260200180612e0d6032913960400191505060405180910390fd5b60c8836020015160ff1610612326576040805162461bcd60e51b81526020600482015260166024820152751413940e93524c4e88149958dbdc99081b1bd8dad95960521b604482015290519081900360640190fd5b825188146123655760405162461bcd60e51b8152600401808060200182810382526032815260200180612c3a6032913960400191505060405180910390fd5b60c083018790526123768984612a08565b505060c00151600180559695505050505050565b6123926128ce565b6002546001600160a01b039081169116146123e2576040805162461bcd60e51b81526020600482018190526024820152600080516020612f4b833981519152604482015290519081900360640190fd5b6001600160a01b0381166124275760405162461bcd60e51b8152600401808060200182810382526026815260200180612c146026913960400191505060405180910390fd5b6002546040516001600160a01b038084169216907f8be0079c531659141344cd1fd0a4f28419497f9722a3daafe3b4186f6b6457e090600090a3600280546001600160a01b0319166001600160a01b0392909216919091179055565b61248b612b49565b612493612b49565b6000806000806000806000806000600460009054906101000a90046001600160a01b03166001600160a01b031663e248f2c48d6040518263ffffffff1660e01b81526004018082815260200191505061012060405180830381600087803b1580156124fd57600080fd5b505af1158015612511573d6000803e3d6000fd5b505050506040513d61012081101561252857600080fd5b81019080805190602001909291908051906020019092919080519060200190929190805190602001909291908051906020019092919080519060200190929190805190602001909291908051906020019092919080519060200190929190505050985098509850985098509850985098509850888a6000018181525050878a6020019060ff16908160ff1681525050868a6040019060ff16908160ff1681525050858a6060019061ffff16908161ffff1681525050848a6080018181525050838a60a0018181525050828a60c0018181525050818a60e0018181525050808a610100019061ffff16908161ffff168152505050505050505050505080915050919050565b600654604080513360601b6020808301919091528251808303601401815260348301808552815191830191909120631ca5afc760e21b909152603883015261ffff85166058830152915160009384936001600160a01b0390911692637296bf1c9260788083019392829003018186803b1580156126a857600080fd5b505afa1580156126bc573d6000803e3d6000fd5b505050506040513d60208110156126d257600080fd5b50519392505050565b6126e3612b95565b6126eb612b95565b6004805460408051634f3f9fb160e11b81526001600160a01b038881169482019490945261ffff8716602482015281519390921692639e7f3f629260448082019392918290030181600087803b15801561274457600080fd5b505af1158015612758573d6000803e3d6000fd5b505050506040513d604081101561276e57600080fd5b5080516020918201519183019190915260ff1681529392505050565b60006127cc83836040518060400160405280601e81526020017f536166654d6174683a207375627472616374696f6e206f766572666c6f770000815250612ab2565b9392505050565b600254600160a01b900460ff1615612825576040805162461bcd60e51b815260206004820152601060248201526f14185d5cd8589b194e881c185d5cd95960821b604482015290519081900360640190fd5b6004805482516020840151608085015160408087015161010088015182516302ee483d60e11b81529788018a9052602488019590955260ff938416604488015260648701929092529116608485015261ffff90911660a4840152516001600160a01b03909116916305dc907a9160c480830192600092919082900301818387803b1580156128b257600080fd5b505af11580156128c6573d6000803e3d6000fd5b505050505050565b3390565b600254600160a01b900460ff16612927576040805162461bcd60e51b815260206004820152601460248201527314185d5cd8589b194e881b9bdd081c185d5cd95960621b604482015290519081900360640190fd5b6002805460ff60a01b191690557f5db9ee0a495bf2e6ff9c91a7834c1ba4fdd244a5e8aa4e537bd38aeae4b073aa61295d6128ce565b604080516001600160a01b039092168252519081900360200190a1565b600254600160a01b900460ff16156129cc576040805162461bcd60e51b815260206004820152601060248201526f14185d5cd8589b194e881c185d5cd95960821b604482015290519081900360640190fd5b6002805460ff60a01b1916600160a01b1790557f62e78cea01bee320cd4e420270b5ea74000d11b0c9f74754ebdbfc544b05a25861295d6128ce565b600254600160a01b900460ff1615612a5a576040805162461bcd60e51b815260206004820152601060248201526f14185d5cd8589b194e881c185d5cd95960821b604482015290519081900360640190fd5b6004805460c0830151604080516310b3712960e21b81529384018690526024840191909152516001600160a01b03909116916342cdc4a491604480830192600092919082900301818387803b1580156128b257600080fd5b60008184841115612b415760405162461bcd60e51b81526004018080602001828103825283818151815260200191508051906020019080838360005b83811015612b06578181015183820152602001612aee565b50505050905090810190601f168015612b335780820380516001836020036101000a031916815260200191505b509250505060405180910390fd5b505050900390565b6040805161012081018252600080825260208201819052918101829052606081018290526080810182905260a0810182905260c0810182905260e0810182905261010081019190915290565b60408051808201909152600080825260208201529056fe5265656e7472616e637947756172643a207265656e7472616e742063616c6c00504e503a4d49313a2055736572206e6f7420617574686f72697a656420746f206d6f64696679207265636f72647320696e2073706563696669656420617373657420636c6173734f776e61626c653a206e6577206f776e657220697320746865207a65726f2061646472657373504e503a4d49313a20526967687473686f6c64657220646f6573206e6f74206d6174636820737570706c6965642064617461504e503a44433a2055736572206e6f7420617574686f72697a656420746f206d6f64696679207265636f72647320696e2073706563696669656420617373657420636c617373504e503a534c533a2055736572206e6f7420617574686f72697a656420746f206d6f64696679207265636f72647320696e2073706563696669656420617373657420636c617373504e503a49413a20437573746f6469616c20636f6e747261637420646f6573206e6f7420686f6c6420746f6b656e504e503a4d533a2043616e6e6f74206368616e676520737461747573206f6620617373657420696e20457363726f7720756e74696c20657363726f772069732065787069726564504e503a4d533a2043616e6e6f74206368616e676520737461747573206f6620617373657420696e207472616e736665727265642d756e72656769737465726564207374617475732e504e503a4d533a20537065636966696564205374617475732069732072657365727665642e504e503a44433a20526967687473686f6c64657220646f6573206e6f74206d6174636820737570706c6965642064617461504e503a4d49313a205265636f726420496e205472616e736665727265642d756e7265676973746572656420737461747573504e503a44433a205265636f726420496e205472616e736665727265642d756e7265676973746572656420737461747573504e503a4d533a204f6e6c79207573657274797065203c20352063616e206368616e676520737461747573203c203439504e503a534c533a205472616e736665727265642061737365742063616e6e6f742062652073657420746f206c6f7374206f722073746f6c656e206166746572207472616e736665722e50423a5353433a2073746f7261676520616464726573732063616e6e6f74206265207a65726f504e503a4d533a2055736520707275665f6170702e6578706f7274417373657420746f206578706f727420637573746f6469616c206173736574734f776e61626c653a2063616c6c6572206973206e6f7420746865206f776e6572504e503a4d533a20526967687473686f6c64657220646f6573206e6f74206d6174636820737570706c6965642064617461504e503a534c533a20526967687473686f6c64657220646f6573206e6f74206d6174636820737570706c6965642064617461504e503a4d533a2055736572206e6f7420617574686f72697a656420746f206d6f64696679207265636f72647320696e2073706563696669656420617373657420636c617373504e503a4d49313a2043616e6e6f74206d6f6469667920617373657420696e20457363726f77504e503a44433a2063616e6e6f742064656372656d656e74206279206e65676174697665206e756d626572504e503a534c533a204d7573742073657420746f2061206c6f7374206f722073746f6c656e20737461747573504e503a534c533a20417373657420696e206c6f636b656420657363726f772063616e6e6f742062652073657420746f206c6f7374206f722073746f6c656e504e503a44433a2043616e6e6f74206d6f6469667920617373657420696e20457363726f77504e503a4d533a20436f6e7472616374206e6f7420617574686f72697a656420666f72207468697320617373657420636c617373504e503a534c533a204f6e6c79207573657274797065203c352063616e206368616e67652061203c34392073746174757320617373657420746f2061203e343920737461747573a264697066735822122024ce36c02fee65ee774b514c7c7167a5fa30d60d47b21e9e92e70865fed0184564736f6c63430006090033608060405234801561001057600080fd5b5060006100246001600160e01b0361007316565b600080546001600160a01b0319166001600160a01b0383169081178255604051929350917f8be0079c531659141344cd1fd0a4f28419497f9722a3daafe3b4186f6b6457e0908290a350610077565b3390565b6106de806100866000396000f3fe6080604052600436106100555760003560e01c806351cff8d91461005a578063715018a61461008f5780638da5cb5b146100a4578063e3a9db1a146100d5578063f2fde38b1461011a578063f340fa011461014d575b600080fd5b34801561006657600080fd5b5061008d6004803603602081101561007d57600080fd5b50356001600160a01b0316610173565b005b34801561009b57600080fd5b5061008d61023c565b3480156100b057600080fd5b506100b96102de565b604080516001600160a01b039092168252519081900360200190f35b3480156100e157600080fd5b50610108600480360360208110156100f857600080fd5b50356001600160a01b03166102ed565b60408051918252519081900360200190f35b34801561012657600080fd5b5061008d6004803603602081101561013d57600080fd5b50356001600160a01b0316610308565b61008d6004803603602081101561016357600080fd5b50356001600160a01b0316610400565b61017b6104d9565b6000546001600160a01b039081169116146101cb576040805162461bcd60e51b81526020600482018190526024820152600080516020610689833981519152604482015290519081900360640190fd5b6001600160a01b03811660008181526001602052604081208054919055906101f9908263ffffffff6104dd16565b6040805182815290516001600160a01b038416917f7084f5476618d8e60b11ef0d7d3f06914655adb8793e28ff7f018d4c76d505d5919081900360200190a25050565b6102446104d9565b6000546001600160a01b03908116911614610294576040805162461bcd60e51b81526020600482018190526024820152600080516020610689833981519152604482015290519081900360640190fd5b600080546040516001600160a01b03909116907f8be0079c531659141344cd1fd0a4f28419497f9722a3daafe3b4186f6b6457e0908390a3600080546001600160a01b0319169055565b6000546001600160a01b031690565b6001600160a01b031660009081526001602052604090205490565b6103106104d9565b6000546001600160a01b03908116911614610360576040805162461bcd60e51b81526020600482018190526024820152600080516020610689833981519152604482015290519081900360640190fd5b6001600160a01b0381166103a55760405162461bcd60e51b81526004018080602001828103825260268152602001806106296026913960400191505060405180910390fd5b600080546040516001600160a01b03808516939216917f8be0079c531659141344cd1fd0a4f28419497f9722a3daafe3b4186f6b6457e091a3600080546001600160a01b0319166001600160a01b0392909216919091179055565b6104086104d9565b6000546001600160a01b03908116911614610458576040805162461bcd60e51b81526020600482018190526024820152600080516020610689833981519152604482015290519081900360640190fd5b6001600160a01b0381166000908152600160205260409020543490610483908263ffffffff6105c716565b6001600160a01b038316600081815260016020908152604091829020939093558051848152905191927f2da466a7b24304f47e87fa2e1e5a81b9831ce54fec19055ce277ca2f39ba42c492918290030190a25050565b3390565b80471015610532576040805162461bcd60e51b815260206004820152601d60248201527f416464726573733a20696e73756666696369656e742062616c616e6365000000604482015290519081900360640190fd5b6040516000906001600160a01b0384169083908381818185875af1925050503d806000811461057d576040519150601f19603f3d011682016040523d82523d6000602084013e610582565b606091505b50509050806105c25760405162461bcd60e51b815260040180806020018281038252603a81526020018061064f603a913960400191505060405180910390fd5b505050565b600082820183811015610621576040805162461bcd60e51b815260206004820152601b60248201527f536166654d6174683a206164646974696f6e206f766572666c6f770000000000604482015290519081900360640190fd5b939250505056fe4f776e61626c653a206e6577206f776e657220697320746865207a65726f2061646472657373416464726573733a20756e61626c6520746f2073656e642076616c75652c20726563697069656e74206d617920686176652072657665727465644f776e61626c653a2063616c6c6572206973206e6f7420746865206f776e6572a2646970667358221220a00d6aa6d96b7e14cf44ef151b801d41a0d6f22be9568d55aded0e5dc41900ac64736f6c63430006090033",
  "source": "/*-----------------------------------------------------------V0.6.7\r\n__/\\\\\\\\\\\\\\\\\\\\\\\\\\ _____/\\\\\\\\\\\\\\\\\\ _______/\\\\../\\\\ ___/\\\\\\\\\\\\\\\\\\\\\\\\\\\\\\\r\n _\\/\\\\\\/////////\\\\\\ _/\\\\\\///////\\\\\\ ____\\//..\\//____\\/\\\\\\///////////__\r\n  _\\/\\\\\\.......\\/\\\\\\.\\/\\\\\\.....\\/\\\\\\ ________________\\/\\\\\\ ____________\r\n   _\\/\\\\\\\\\\\\\\\\\\\\\\\\\\/__\\/\\\\\\\\\\\\\\\\\\\\\\/_____/\\\\\\____/\\\\\\.\\/\\\\\\\\\\\\\\\\\\\\\\ ____\r\n    _\\/\\\\\\/////////____\\/\\\\\\//////\\\\\\ ___\\/\\\\\\___\\/\\\\\\.\\/\\\\\\///////______\r\n     _\\/\\\\\\ ____________\\/\\\\\\ ___\\//\\\\\\ __\\/\\\\\\___\\/\\\\\\.\\/\\\\\\ ____________\r\n      _\\/\\\\\\ ____________\\/\\\\\\ ____\\//\\\\\\ _\\/\\\\\\___\\/\\\\\\.\\/\\\\\\ ____________\r\n       _\\/\\\\\\ ____________\\/\\\\\\ _____\\//\\\\\\.\\//\\\\\\\\\\\\\\\\\\ _\\/\\\\\\ ____________\r\n        _\\/// _____________\\/// _______\\/// __\\///////// __\\/// _____________\r\n         *-------------------------------------------------------------------*/\r\n\r\n/*-----------------------------------------------------------------\r\n *  TO DO\r\n *\r\n *---------------------------------------------------------------*/\r\n\r\n// SPDX-License-Identifier: UNLICENSED\r\npragma solidity ^0.6.7;\r\n\r\nimport \"./PRUF_CORE.sol\";\r\n\r\ncontract NP is CORE {\r\n    /*\r\n     * @dev Verify user credentials\r\n     * Originating Address:\r\n     */\r\n    modifier isAuthorized(bytes32 _idxHash) override {\r\n        uint256 tokenID = uint256(_idxHash);\r\n        require(\r\n            (AssetTokenContract.ownerOf(tokenID) == PrufAppAddress),\r\n            \"PNP:IA: Custodial contract does not hold token\"\r\n        );\r\n        _;\r\n    }\r\n\r\n    //--------------------------------------------External Functions--------------------------\r\n\r\n    /*\r\n     * @dev Modify **Record**.assetStatus with confirmation required\r\n     */\r\n    function _modStatus(\r\n        bytes32 _idxHash,\r\n        bytes32 _rgtHash,\r\n        uint8 _newAssetStatus\r\n    )\r\n        external\r\n        nonReentrant\r\n        whenNotPaused\r\n        isAuthorized(_idxHash)\r\n        returns (uint8)\r\n    {\r\n        Record memory rec = getRecord(_idxHash);\r\n        uint8 userType = getUserType(rec.assetClass);\r\n        ContractDataHash memory contractInfo = getContractInfo(address(this),rec.assetClass);\r\n\r\n        require(\r\n             contractInfo.contractType > 0,\r\n            \"PNP:MS: Contract not authorized for this asset class\"\r\n        );\r\n        require((rec.rightsHolder != 0), \"PNP:MS: Record does not exist\");\r\n        require(\r\n            (userType > 0) && (userType < 10),\r\n            \"PNP:MS: User not authorized to modify records in specified asset class\"\r\n        );\r\n\r\n        require((_newAssetStatus < 100) &&\r\n                (_newAssetStatus != 3) &&\r\n                (_newAssetStatus != 4) &&\r\n                (_newAssetStatus != 5) &&\r\n                (_newAssetStatus != 6) &&\r\n                (_newAssetStatus != 7) &&\r\n                (_newAssetStatus != 50) &&\r\n                (_newAssetStatus != 53) &&\r\n                (_newAssetStatus != 54) &&\r\n                (_newAssetStatus != 55) &&\r\n                (_newAssetStatus != 56) &&\r\n                (_newAssetStatus != 57) &&\r\n                (_newAssetStatus != 58),\r\n                \"PNP:MS: Specified Status is reserved.\"\r\n        );\r\n        require(\r\n            _newAssetStatus != 70,\r\n            \"PNP:MS: Use pruf_app.exportAsset to export custodial assets\"\r\n        );\r\n        require(\r\n            (rec.assetStatus != 6) &&\r\n                (rec.assetStatus != 50) &&\r\n                (rec.assetStatus != 56),\r\n            \"PNP:MS: Cannot change status of asset in Escrow until escrow is expired\"\r\n        );\r\n        require(\r\n            (rec.assetStatus != 5) && (rec.assetStatus != 55),\r\n            \"PNP:MS: Cannot change status of asset in transferred-unregistered status.\"\r\n        );\r\n        require(\r\n            (rec.assetStatus > 49) || (userType < 5),\r\n            \"PNP:MS: Only usertype < 5 can change status < 49\"\r\n        );\r\n        require(\r\n            rec.rightsHolder == _rgtHash,\r\n            \"PNP:MS: Rightsholder does not match supplied data\"\r\n        );\r\n        require(rec.assetStatus < 200, \"PNP:MS: Record locked\");\r\n        //^^^^^^^checks^^^^^^^^^\r\n\r\n        rec.assetStatus = _newAssetStatus;\r\n        //^^^^^^^effects^^^^^^^^^\r\n\r\n        writeRecord(_idxHash, rec);\r\n\r\n        return rec.assetStatus;\r\n        //^^^^^^^interactions^^^^^^^^^\r\n    }\r\n\r\n    /*\r\n     * @dev set **Record**.assetStatus to lost or stolen, with confirmation required.\r\n     */\r\n    function _setLostOrStolen(\r\n        bytes32 _idxHash,\r\n        bytes32 _rgtHash,\r\n        uint8 _newAssetStatus\r\n    )\r\n        external\r\n        nonReentrant\r\n        whenNotPaused\r\n        isAuthorized(_idxHash)\r\n        returns (uint8)\r\n    {\r\n        Record memory rec = getRecord(_idxHash);\r\n        uint8 userType = getUserType(rec.assetClass);\r\n        ContractDataHash memory contractInfo = getContractInfo(address(this),rec.assetClass);\r\n\r\n        require(\r\n            contractInfo.contractType > 0,\r\n            \"PNP:MS: Contract not authorized for this asset class\"\r\n        );\r\n\r\n        require((rec.rightsHolder != 0), \"PNP:SLS: Record does not exist\");\r\n        require(\r\n            (userType > 0) && (userType < 10),\r\n            \"PNP:SLS: User not authorized to modify records in specified asset class\"\r\n        );\r\n        require(\r\n            (_newAssetStatus == 3) ||\r\n                (_newAssetStatus == 4) ||\r\n                (_newAssetStatus == 53) ||\r\n                (_newAssetStatus == 54),\r\n            \"PNP:SLS: Must set to a lost or stolen status\"\r\n        );\r\n        require(\r\n            (rec.assetStatus > 49) ||\r\n                ((_newAssetStatus < 50) && (userType < 5)),\r\n            \"PNP:SLS: Only usertype <5 can change a <49 status asset to a >49 status\"\r\n        );\r\n        require(\r\n            (rec.assetStatus != 5) && (rec.assetStatus != 55),\r\n            \"PNP:SLS: Transferred asset cannot be set to lost or stolen after transfer.\"\r\n        );\r\n        require(\r\n            (rec.assetStatus != 50),\r\n            \"PNP:SLS: Asset in locked escrow cannot be set to lost or stolen\"\r\n        );\r\n        require(rec.assetStatus < 200, \"PNP:SLS: Record locked\");\r\n        require(\r\n            rec.rightsHolder == _rgtHash,\r\n            \"PNP:SLS: Rightsholder does not match supplied data\"\r\n        );\r\n        //^^^^^^^checks^^^^^^^^^\r\n        rec.assetStatus = _newAssetStatus;\r\n        //bytes32 userHash = keccak256(abi.encodePacked(msg.sender));\r\n        //^^^^^^^effects^^^^^^^^^\r\n\r\n        Storage.setStolenOrLost(_idxHash, rec.assetStatus);\r\n\r\n        return rec.assetStatus;\r\n        //^^^^^^^interactions^^^^^^^^^\r\n    }\r\n\r\n    /*\r\n     * @dev Decrement **Record**.countdown with confirmation required\r\n     */\r\n    function _decCounter(\r\n        bytes32 _idxHash,\r\n        bytes32 _rgtHash,\r\n        uint256 _decAmount\r\n    )\r\n        external\r\n        nonReentrant\r\n        whenNotPaused\r\n        isAuthorized(_idxHash)\r\n        returns (uint256)\r\n    {\r\n        Record memory rec = getRecord(_idxHash);\r\n        uint8 userType = getUserType(rec.assetClass);\r\n        ContractDataHash memory contractInfo = getContractInfo(address(this),rec.assetClass);\r\n\r\n        require(\r\n            contractInfo.contractType > 0,\r\n            \"PNP:MS: Contract not authorized for this asset class\"\r\n        );\r\n\r\n        require((rec.rightsHolder != 0), \"PNP:DC: Record does not exist\");\r\n        require(\r\n            (userType > 0) && (userType < 10),\r\n            \"PNP:DC: User not authorized to modify records in specified asset class\"\r\n        );\r\n        require( //------------------------------------------should the counter still work when an asset is in escrow?\r\n            (rec.assetStatus != 6) &&\r\n                (rec.assetStatus != 50) &&\r\n                (rec.assetStatus != 56), //If so, it must not erase the recorder, or escrow termination will be broken!\r\n            \"PNP:DC: Cannot modify asset in Escrow\"\r\n        );\r\n        require(_decAmount > 0, \"PNP:DC: cannot decrement by negative number\");\r\n        require(\r\n            (rec.assetStatus != 5) && (rec.assetStatus != 55),\r\n            \"PNP:DC: Record In Transferred-unregistered status\"\r\n        );\r\n        require(rec.assetStatus < 200, \"PNP:DC: Record locked\");\r\n        require(\r\n            rec.rightsHolder == _rgtHash,\r\n            \"PNP:DC: Rightsholder does not match supplied data\"\r\n        );\r\n        //^^^^^^^checks^^^^^^^^^\r\n\r\n        if (rec.countDown > _decAmount) {\r\n            rec.countDown = rec.countDown.sub(_decAmount);\r\n        } else {\r\n            rec.countDown = 0;\r\n        }\r\n        //^^^^^^^effects^^^^^^^^^\r\n\r\n        writeRecord(_idxHash, rec);\r\n        return (rec.countDown);\r\n        //^^^^^^^interactions^^^^^^^^^\r\n    }\r\n\r\n    /*\r\n     * @dev Modify **Record**.Ipfs1 with confirmation\r\n     */\r\n    function _modIpfs1(\r\n        bytes32 _idxHash,\r\n        bytes32 _rgtHash,\r\n        bytes32 _IpfsHash\r\n    )\r\n        external\r\n        nonReentrant\r\n        whenNotPaused\r\n        isAuthorized(_idxHash)\r\n        returns (bytes32)\r\n    {\r\n        Record memory rec = getRecord(_idxHash);\r\n        uint8 userType = getUserType(rec.assetClass);\r\n        ContractDataHash memory contractInfo = getContractInfo(address(this),rec.assetClass);\r\n\r\n        require(\r\n            contractInfo.contractType > 0,\r\n            \"PNP:MS: Contract not authorized for this asset class\"\r\n        );\r\n\r\n        require((rec.rightsHolder != 0), \"PNP:MI1: Record does not exist\");\r\n        require(\r\n            (userType > 0) && (userType < 10),\r\n            \"PNP:MI1: User not authorized to modify records in specified asset class\"\r\n        );\r\n\r\n        require(rec.Ipfs1 != _IpfsHash, \"PNP:MI1: New data same as old\");\r\n        require( //-------------------------------------Should an asset in escrow be modifiable?\r\n            (rec.assetStatus != 6) &&\r\n                (rec.assetStatus != 50) &&\r\n                (rec.assetStatus != 56), //Should it be contingent on the original recorder address?\r\n            \"PNP:MI1: Cannot modify asset in Escrow\" //If so, it must not erase the recorder, or escrow termination will be broken!\r\n        );\r\n        require(\r\n            (rec.assetStatus != 5) && (rec.assetStatus != 55),\r\n            \"PNP:MI1: Record In Transferred-unregistered status\"\r\n        );\r\n        require(rec.assetStatus < 200, \"PNP:MI1: Record locked\");\r\n        require(\r\n            rec.rightsHolder == _rgtHash,\r\n            \"PNP:MI1: Rightsholder does not match supplied data\"\r\n        );\r\n        //^^^^^^^checks^^^^^^^^^\r\n\r\n        rec.Ipfs1 = _IpfsHash;\r\n        //^^^^^^^effects^^^^^^^^^\r\n\r\n        writeRecordIpfs1(_idxHash, rec);\r\n\r\n        return rec.Ipfs1;\r\n        //^^^^^^^interactions^^^^^^^^^\r\n    }\r\n}\r\n",
  "sourcePath": "C:\\Users\\Blayde\\Documents\\ETHDEV\\bulletproof\\PRUF_TRUFFLE\\contracts\\PRUF_NP.sol",
  "compiler": {
    "name": "solc",
    "version": "0.6.9+commit.3e3065ac.Emscripten.clang"
  },
  "schemaVersion": "3.0.23",
  "updatedAt": "2020-08-03T20:49:50.696Z",
  "devdoc": {
    "methods": {
      "OO_pause()": {
        "details": "Triggers stopped state."
      },
      "OO_unpause()": {
        "details": "Returns to normal state."
      },
      "owner()": {
        "details": "Returns the address of the current owner."
      },
      "paused()": {
        "details": "Returns true if the contract is paused, and false otherwise."
      },
      "payments(address)": {
        "details": "Returns the payments owed to an address.",
        "params": {
          "dest": "The creditor's address."
        }
      },
      "renounceOwnership()": {
        "details": "Leaves the contract without owner. It will not be possible to call `onlyOwner` functions anymore. Can only be called by the current owner. NOTE: Renouncing ownership will leave the contract without an owner, thereby removing any functionality that is only available to the owner."
      },
      "transferOwnership(address)": {
        "details": "Transfers ownership of the contract to a new account (`newOwner`). Can only be called by the current owner."
      },
      "withdrawPayments(address)": {
        "details": "Withdraw accumulated payments, forwarding all gas to the recipient. Note that _any_ account can call this function, not just the `payee`. This means that contracts unaware of the `PullPayment` protocol can still receive funds this way, by having a separate account call {withdrawPayments}. WARNING: Forwarding all gas opens the door to reentrancy vulnerabilities. Make sure you trust the recipient, or are either following the checks-effects-interactions pattern or using {ReentrancyGuard}.",
        "params": {
          "payee": "Whose payments will be withdrawn."
        }
      }
    }
  },
  "userdoc": {
    "methods": {}
  }
}