{
  "contractName": "NP",
  "abi": [
    {
      "anonymous": false,
      "inputs": [
        {
          "indexed": true,
          "internalType": "address",
          "name": "previousOwner",
          "type": "address"
        },
        {
          "indexed": true,
          "internalType": "address",
          "name": "newOwner",
          "type": "address"
        }
      ],
      "name": "OwnershipTransferred",
      "type": "event"
    },
    {
      "anonymous": false,
      "inputs": [
        {
          "indexed": false,
          "internalType": "address",
          "name": "account",
          "type": "address"
        }
      ],
      "name": "Paused",
      "type": "event"
    },
    {
      "anonymous": false,
      "inputs": [
        {
          "indexed": false,
          "internalType": "string",
          "name": "_msg",
          "type": "string"
        }
      ],
      "name": "REPORT",
      "type": "event"
    },
    {
      "anonymous": false,
      "inputs": [
        {
          "indexed": false,
          "internalType": "address",
          "name": "account",
          "type": "address"
        }
      ],
      "name": "Unpaused",
      "type": "event"
    },
    {
      "inputs": [],
      "name": "$withdraw",
      "outputs": [],
      "stateMutability": "payable",
      "type": "function"
    },
    {
      "inputs": [],
      "name": "OO_ResolveContractAddresses",
      "outputs": [],
      "stateMutability": "nonpayable",
      "type": "function"
    },
    {
      "inputs": [],
      "name": "OO_pause",
      "outputs": [],
      "stateMutability": "nonpayable",
      "type": "function"
    },
    {
      "inputs": [
        {
          "internalType": "address",
          "name": "_storageAddress",
          "type": "address"
        }
      ],
      "name": "OO_setStorageContract",
      "outputs": [],
      "stateMutability": "nonpayable",
      "type": "function"
    },
    {
      "inputs": [
        {
          "internalType": "address",
          "name": "_to",
          "type": "address"
        },
        {
          "internalType": "bytes32",
          "name": "_idxHash",
          "type": "bytes32"
        }
      ],
      "name": "OO_transferACToken",
      "outputs": [],
      "stateMutability": "nonpayable",
      "type": "function"
    },
    {
      "inputs": [],
      "name": "OO_unpause",
      "outputs": [],
      "stateMutability": "nonpayable",
      "type": "function"
    },
    {
      "inputs": [
        {
          "internalType": "address",
          "name": "",
          "type": "address"
        },
        {
          "internalType": "address",
          "name": "",
          "type": "address"
        },
        {
          "internalType": "uint256",
          "name": "",
          "type": "uint256"
        },
        {
          "internalType": "bytes",
          "name": "",
          "type": "bytes"
        }
      ],
      "name": "onERC721Received",
      "outputs": [
        {
          "internalType": "bytes4",
          "name": "",
          "type": "bytes4"
        }
      ],
      "stateMutability": "nonpayable",
      "type": "function"
    },
    {
      "inputs": [],
      "name": "owner",
      "outputs": [
        {
          "internalType": "address",
          "name": "",
          "type": "address"
        }
      ],
      "stateMutability": "view",
      "type": "function"
    },
    {
      "inputs": [],
      "name": "paused",
      "outputs": [
        {
          "internalType": "bool",
          "name": "",
          "type": "bool"
        }
      ],
      "stateMutability": "view",
      "type": "function"
    },
    {
      "inputs": [
        {
          "internalType": "address",
          "name": "dest",
          "type": "address"
        }
      ],
      "name": "payments",
      "outputs": [
        {
          "internalType": "uint256",
          "name": "",
          "type": "uint256"
        }
      ],
      "stateMutability": "view",
      "type": "function"
    },
    {
      "inputs": [],
      "name": "renounceOwnership",
      "outputs": [],
      "stateMutability": "nonpayable",
      "type": "function"
    },
    {
      "inputs": [
        {
          "internalType": "address",
          "name": "_to",
          "type": "address"
        },
        {
          "internalType": "bytes32",
          "name": "_idxHash",
          "type": "bytes32"
        }
      ],
      "name": "transferAssetToken",
      "outputs": [],
      "stateMutability": "nonpayable",
      "type": "function"
    },
    {
      "inputs": [
        {
          "internalType": "address",
          "name": "newOwner",
          "type": "address"
        }
      ],
      "name": "transferOwnership",
      "outputs": [],
      "stateMutability": "nonpayable",
      "type": "function"
    },
    {
      "inputs": [
        {
          "internalType": "address payable",
          "name": "payee",
          "type": "address"
        }
      ],
      "name": "withdrawPayments",
      "outputs": [],
      "stateMutability": "nonpayable",
      "type": "function"
    },
    {
      "inputs": [
        {
          "internalType": "bytes32",
          "name": "_idxHash",
          "type": "bytes32"
        },
        {
          "internalType": "bytes32",
          "name": "_rgtHash",
          "type": "bytes32"
        },
        {
          "internalType": "uint8",
          "name": "_newAssetStatus",
          "type": "uint8"
        }
      ],
      "name": "_modStatus",
      "outputs": [
        {
          "internalType": "uint8",
          "name": "",
          "type": "uint8"
        }
      ],
      "stateMutability": "nonpayable",
      "type": "function"
    },
    {
      "inputs": [
        {
          "internalType": "bytes32",
          "name": "_idxHash",
          "type": "bytes32"
        },
        {
          "internalType": "bytes32",
          "name": "_rgtHash",
          "type": "bytes32"
        },
        {
          "internalType": "uint8",
          "name": "_newAssetStatus",
          "type": "uint8"
        }
      ],
      "name": "_setLostOrStolen",
      "outputs": [
        {
          "internalType": "uint8",
          "name": "",
          "type": "uint8"
        }
      ],
      "stateMutability": "nonpayable",
      "type": "function"
    },
    {
      "inputs": [
        {
          "internalType": "bytes32",
          "name": "_idxHash",
          "type": "bytes32"
        },
        {
          "internalType": "bytes32",
          "name": "_rgtHash",
          "type": "bytes32"
        },
        {
          "internalType": "uint256",
          "name": "_decAmount",
          "type": "uint256"
        }
      ],
      "name": "_decCounter",
      "outputs": [
        {
          "internalType": "uint256",
          "name": "",
          "type": "uint256"
        }
      ],
      "stateMutability": "nonpayable",
      "type": "function"
    },
    {
      "inputs": [
        {
          "internalType": "bytes32",
          "name": "_idxHash",
          "type": "bytes32"
        },
        {
          "internalType": "bytes32",
          "name": "_rgtHash",
          "type": "bytes32"
        },
        {
          "internalType": "bytes32",
          "name": "_IpfsHash",
          "type": "bytes32"
        }
      ],
      "name": "_modIpfs1",
      "outputs": [
        {
          "internalType": "bytes32",
          "name": "",
          "type": "bytes32"
        }
      ],
      "stateMutability": "nonpayable",
      "type": "function"
    },
    {
      "inputs": [
        {
          "internalType": "bytes32",
          "name": "_idxHash",
          "type": "bytes32"
        },
        {
          "internalType": "address",
          "name": "_addr",
          "type": "address"
        }
      ],
      "name": "exportAsset",
      "outputs": [
        {
          "internalType": "uint8",
          "name": "",
          "type": "uint8"
        }
      ],
      "stateMutability": "nonpayable",
      "type": "function"
    }
  ],
  "bytecode": "0x60806040523480156200001157600080fd5b506040516200002090620000d1565b604051809103906000f0801580156200003d573d6000803e3d6000fd5b50600080546001600160a01b0319166001600160a01b0392909216919091178155600180556200006c620000cd565b600280546001600160a01b0319166001600160a01b038316908117909155604051919250906000907f8be0079c531659141344cd1fd0a4f28419497f9722a3daafe3b4186f6b6457e0908290a3506002805460ff60a01b19169055620000df565b3390565b610764806200351f83390190565b61343080620000ef6000396000f3fe6080604052600436106101145760003560e01c80638da5cb5b116100a0578063e2982c2111610064578063e2982c21146103fa578063e620bf381461042d578063e927244c14610466578063ee54387b1461049f578063f2fde38b146104d557610114565b80638da5cb5b14610333578063961e809b14610364578063c79b226e14610379578063cf2b6f66146103b2578063d6b02ecf146103c757610114565b8063440e7a7e116100e7578063440e7a7e146102585780634b9f23a4146102915780635c975abb146102a65780636dcd1f5a146102cf578063715018a61461031e57610114565b8063150b7a02146101195780632cb741aa146101d357806331b3eb94146101dd5780634333a05214610210575b600080fd5b34801561012557600080fd5b506101b66004803603608081101561013c57600080fd5b6001600160a01b0382358116926020810135909116916040820135919081019060808101606082013564010000000081111561017757600080fd5b82018360208201111561018957600080fd5b803590602001918460018302840111640100000000831117156101ab57600080fd5b509092509050610508565b604080516001600160e01b03199092168252519081900360200190f35b6101db610519565b005b3480156101e957600080fd5b506101db6004803603602081101561020057600080fd5b50356001600160a01b0316610573565b34801561021c57600080fd5b506102466004803603606081101561023357600080fd5b50803590602081013590604001356105d9565b60408051918252519081900360200190f35b34801561026457600080fd5b506101db6004803603604081101561027b57600080fd5b506001600160a01b038135169060200135610963565b34801561029d57600080fd5b506101db610a99565b3480156102b257600080fd5b506102bb6110c6565b604080519115158252519081900360200190f35b3480156102db57600080fd5b50610308600480360360608110156102f257600080fd5b508035906020810135906040013560ff166110d6565b6040805160ff9092168252519081900360200190f35b34801561032a57600080fd5b506101db6115d4565b34801561033f57600080fd5b50610348611676565b604080516001600160a01b039092168252519081900360200190f35b34801561037057600080fd5b506101db611685565b34801561038557600080fd5b506101db6004803603604081101561039c57600080fd5b506001600160a01b0381351690602001356116e7565b3480156103be57600080fd5b506101db6117e8565b3480156103d357600080fd5b506101db600480360360208110156103ea57600080fd5b50356001600160a01b0316611848565b34801561040657600080fd5b506102466004803603602081101561041d57600080fd5b50356001600160a01b0316611907565b34801561043957600080fd5b506103086004803603604081101561045057600080fd5b50803590602001356001600160a01b0316611989565b34801561047257600080fd5b506103086004803603606081101561048957600080fd5b508035906020810135906040013560ff16611d54565b3480156104ab57600080fd5b50610246600480360360608110156104c257600080fd5b50803590602081013590604001356121d1565b3480156104e157600080fd5b506101db600480360360208110156104f857600080fd5b50356001600160a01b0316612588565b630a85bd0160e11b95945050505050565b6002600154141561055f576040805162461bcd60e51b815260206004820152601f6024820152600080516020612f19833981519152604482015290519081900360640190fd5b600260015561056d33610573565b60018055565b60008054604080516351cff8d960e01b81526001600160a01b038581166004830152915191909216926351cff8d9926024808201939182900301818387803b1580156105be57600080fd5b505af11580156105d2573d6000803e3d6000fd5b5050505050565b600060026001541415610621576040805162461bcd60e51b815260206004820152601f6024820152600080516020612f19833981519152604482015290519081900360640190fd5b6002600181905554600160a01b900460ff1615610678576040805162461bcd60e51b815260206004820152601060248201526f14185d5cd8589b194e881c185d5cd95960821b604482015290519081900360640190fd5b600f54600854604080516331a9108f60e11b8152600481018890529051879384936001600160a01b0391821693911691636352211e916024808201926020929091908290030181600087803b1580156106d057600080fd5b505af11580156106e4573d6000803e3d6000fd5b505050506040513d60208110156106fa57600080fd5b50516001600160a01b0316146107415760405162461bcd60e51b815260040180806020018281038252603181526020018061318c6031913960400191505060405180910390fd5b610749612e66565b61075287612681565b9050600061076382606001516127da565b905061076d612eb2565b61077b308460600151612886565b805190915060ff166107d4576040805162461bcd60e51b815260206004820152601e60248201527f4e503a44433a20636f6e7472616374206e6f74206175746820696e2041430000604482015290519081900360640190fd5b60008260ff161180156107ea5750600a8260ff16105b61083b576040805162461bcd60e51b815260206004820152601a60248201527f4e503a44433a2075736572206e6f74206175746820696e204143000000000000604482015290519081900360640190fd5b6108488360200151612932565b60ff16156108875760405162461bcd60e51b8152600401808060200182810382526024815260200180612ef56024913960400191505060405180910390fd5b6108948360200151612971565b60ff16156108d35760405162461bcd60e51b815260040180806020018281038252603b8152602001806130a2603b913960400191505060405180910390fd5b825188146109125760405162461bcd60e51b815260040180806020018281038252603081526020018061315c6030913960400191505060405180910390fd5b868360800151111561093d576080830151610933908863ffffffff6129b516565b6080840152610945565b600060808401525b61094f89846129fe565b505060800151600180559695505050505050565b600260015414156109a9576040805162461bcd60e51b815260206004820152601f6024820152600080516020612f19833981519152604482015290519081900360640190fd5b60026001556109b6611676565b6001600160a01b0316336001600160a01b031614806109df57506013546001600160a01b031633145b610a1a5760405162461bcd60e51b815260040180806020018281038252602781526020018061307b6027913960400191505060405180910390fd5b60085460408051632142170760e11b81523060048201526001600160a01b038581166024830152604482018590529151849392909216916342842e0e9160648082019260009290919082900301818387803b158015610a7857600080fd5b505af1158015610a8c573d6000803e3d6000fd5b5050600180555050505050565b60026001541415610adf576040805162461bcd60e51b815260206004820152601f6024820152600080516020612f19833981519152604482015290519081900360640190fd5b6002600155610aec612af7565b6002546001600160a01b03908116911614610b3c576040805162461bcd60e51b815260206004820181905260248201526000805160206131f9833981519152604482015290519081900360640190fd5b60048054604080516363b8d4c160e11b81526020938101849052600660248201526520a1afaa25a760d11b604482015290516001600160a01b039092169263c771a982926064808401938290030181600087803b158015610b9c57600080fd5b505af1158015610bb0573d6000803e3d6000fd5b505050506040513d6020811015610bc657600080fd5b5051600980546001600160a01b039283166001600160a01b03199182161791829055600a805490911691831691909117905560048054604080516363b8d4c160e11b81526020938101849052600660248201526520a1afa6a3a960d11b60448201529051919093169263c771a9829260648083019391928290030181600087803b158015610c5357600080fd5b505af1158015610c67573d6000803e3d6000fd5b505050506040513d6020811015610c7d57600080fd5b5051600580546001600160a01b039283166001600160a01b0319918216178083556006805490921690841617905560048054604080516363b8d4c160e11b8152602093810184905260248101949094526420afaa25a760d91b60448501525193169263c771a9829260648082019392918290030181600087803b158015610d0357600080fd5b505af1158015610d17573d6000803e3d6000fd5b505050506040513d6020811015610d2d57600080fd5b5051600780546001600160a01b039283166001600160a01b0319918216178083556008805490921690841617905560048054604080516363b8d4c160e11b8152602093810184905260248101949094526622a1a92fa6a3a960c91b60448501525193169263c771a9829260648082019392918290030181600087803b158015610db557600080fd5b505af1158015610dc9573d6000803e3d6000fd5b505050506040513d6020811015610ddf57600080fd5b5051600b80546001600160a01b039283166001600160a01b03199182161791829055600c805490911691831691909117905560048054604080516363b8d4c160e11b81526020938101849052600360248201526204150560ec1b60448201529051919093169263c771a9829260648083019391928290030181600087803b158015610e6957600080fd5b505af1158015610e7d573d6000803e3d6000fd5b505050506040513d6020811015610e9357600080fd5b5051600f80546001600160a01b039283166001600160a01b031991821617918290556010805490911691831691909117905560048054604080516363b8d4c160e11b815260208185018190526024820194909452632921a62960e11b60448201529051919093169263c771a9829260648083019391928290030181600087803b158015610f1f57600080fd5b505af1158015610f33573d6000803e3d6000fd5b505050506040513d6020811015610f4957600080fd5b5051600d80546001600160a01b039283166001600160a01b03199182161791829055600e805490911691831691909117905560048054604080516363b8d4c160e11b8152602093810184905260066024820152654150505f4e4360d01b60448201529051919093169263c771a9829260648083019391928290030181600087803b158015610fd657600080fd5b505af1158015610fea573d6000803e3d6000fd5b505050506040513d602081101561100057600080fd5b5051601280546001600160a01b0319166001600160a01b0392831617905560048054604080516363b8d4c160e11b81526020938101849052600260248201526104e560f41b60448201529051919093169263c771a9829260648083019391928290030181600087803b15801561107557600080fd5b505af1158015611089573d6000803e3d6000fd5b505050506040513d602081101561109f57600080fd5b5051601380546001600160a01b0319166001600160a01b0390921691909117905560018055565b600254600160a01b900460ff1690565b60006002600154141561111e576040805162461bcd60e51b815260206004820152601f6024820152600080516020612f19833981519152604482015290519081900360640190fd5b6002600181905554600160a01b900460ff1615611175576040805162461bcd60e51b815260206004820152601060248201526f14185d5cd8589b194e881c185d5cd95960821b604482015290519081900360640190fd5b600f54600854604080516331a9108f60e11b8152600481018890529051879384936001600160a01b0391821693911691636352211e916024808201926020929091908290030181600087803b1580156111cd57600080fd5b505af11580156111e1573d6000803e3d6000fd5b505050506040513d60208110156111f757600080fd5b50516001600160a01b03161461123e5760405162461bcd60e51b815260040180806020018281038252603181526020018061318c6031913960400191505060405180910390fd5b611246612e66565b61124f87612681565b9050600061126082606001516127da565b905061126a612eb2565b611278308460600151612886565b805190915060ff166112d1576040805162461bcd60e51b815260206004820152601f60248201527f4e503a4d533a20636f6e7472616374206e6f74206175746820666f7220414300604482015290519081900360640190fd5b60008260ff161180156112e75750600a8260ff16105b611338576040805162461bcd60e51b815260206004820152601a60248201527f4e503a4d533a2055736572206e6f74206175746820696e204143000000000000604482015290519081900360640190fd5b61134187612afb565b60ff16156113805760405162461bcd60e51b8152600401808060200182810382526042815260200180612fbf6042913960600191505060405180910390fd5b61138987612932565b60ff16156113c85760405162461bcd60e51b81526004018080602001828103825260338152602001806131296033913960400191505060405180910390fd5b6113d187612971565b60ff16156114105760405162461bcd60e51b815260040180806020018281038252605881526020018061325f6058913960600191505060405180910390fd5b60648760ff1610801561142757508660ff16600714155b801561143757508660ff16603914155b801561144757508660ff16603a14155b6114825760405162461bcd60e51b81526004018080602001828103825260248152602001806130576024913960400191505060405180910390fd5b61148f8360200151612932565b60ff16156114ce5760405162461bcd60e51b81526004018080602001828103825260248152602001806131056024913960400191505060405180910390fd5b6114db8360200151612971565b60ff161561151a5760405162461bcd60e51b815260040180806020018281038252603c8152602001806131bd603c913960400191505060405180910390fd5b6031836020015160ff161180611533575060058260ff16105b61156e5760405162461bcd60e51b815260040180806020018281038252602f815260200180612f39602f913960400191505060405180910390fd5b825188146115ad5760405162461bcd60e51b81526004018080602001828103825260308152602001806133446030913960400191505060405180910390fd5b60ff871660208401526115c089846129fe565b505060200151600180559695505050505050565b6115dc612af7565b6002546001600160a01b0390811691161461162c576040805162461bcd60e51b815260206004820181905260248201526000805160206131f9833981519152604482015290519081900360640190fd5b6002546040516000916001600160a01b0316907f8be0079c531659141344cd1fd0a4f28419497f9722a3daafe3b4186f6b6457e0908390a3600280546001600160a01b0319169055565b6002546001600160a01b031690565b61168d612af7565b6002546001600160a01b039081169116146116dd576040805162461bcd60e51b815260206004820181905260248201526000805160206131f9833981519152604482015290519081900360640190fd5b6116e5612b3f565b565b6116ef612af7565b6002546001600160a01b0390811691161461173f576040805162461bcd60e51b815260206004820181905260248201526000805160206131f9833981519152604482015290519081900360640190fd5b60026001541415611785576040805162461bcd60e51b815260206004820152601f6024820152600080516020612f19833981519152604482015290519081900360640190fd5b6002600155600a5460408051632142170760e11b81523060048201526001600160a01b038581166024830152604482018590529151849392909216916342842e0e9160648082019260009290919082900301818387803b158015610a7857600080fd5b6117f0612af7565b6002546001600160a01b03908116911614611840576040805162461bcd60e51b815260206004820181905260248201526000805160206131f9833981519152604482015290519081900360640190fd5b6116e5612be7565b611850612af7565b6002546001600160a01b039081169116146118a0576040805162461bcd60e51b815260206004820181905260248201526000805160206131f9833981519152604482015290519081900360640190fd5b6001600160a01b0381166118e55760405162461bcd60e51b81526004018080602001828103825260258152602001806130326025913960400191505060405180910390fd5b600480546001600160a01b0319166001600160a01b0392909216919091179055565b60008054604080516371d4ed8d60e11b81526001600160a01b0385811660048301529151919092169163e3a9db1a916024808301926020929190829003018186803b15801561195557600080fd5b505afa158015611969573d6000803e3d6000fd5b505050506040513d602081101561197f57600080fd5b505190505b919050565b6000600260015414156119d1576040805162461bcd60e51b815260206004820152601f6024820152600080516020612f19833981519152604482015290519081900360640190fd5b6002600181905554600160a01b900460ff1615611a28576040805162461bcd60e51b815260206004820152601060248201526f14185d5cd8589b194e881c185d5cd95960821b604482015290519081900360640190fd5b600f54600854604080516331a9108f60e11b8152600481018790529051869384936001600160a01b0391821693911691636352211e916024808201926020929091908290030181600087803b158015611a8057600080fd5b505af1158015611a94573d6000803e3d6000fd5b505050506040513d6020811015611aaa57600080fd5b50516001600160a01b031614611af15760405162461bcd60e51b815260040180806020018281038252603181526020018061318c6031913960400191505060405180910390fd5b611af9612e66565b611b0286612681565b90506000611b1382606001516127da565b9050611b1d612eb2565b611b2b308460600151612886565b9050611b35612ec9565b611b428460600151612c75565b825190915060ff16611b9b576040805162461bcd60e51b815260206004820152601e60248201527f4e503a4d533a20636f6e7472616374206e6f74206175746820696e2041430000604482015290519081900360640190fd5b60008360ff16118015611bb15750600a8360ff16105b611c02576040805162461bcd60e51b815260206004820152601a60248201527f4e503a45413a2075736572206e6f74206175746820696e204143000000000000604482015290519081900360640190fd5b836020015160ff16603314611c485760405162461bcd60e51b81526004018080602001828103825260288152602001806130dd6028913960400191505060405180910390fd5b60aa61010085015260466020850152601054604080516322073d3f60e11b81526001600160a01b038b81166004830152602482018d90529151919092169163440e7a7e91604480830192600092919082900301818387803b158015611cac57600080fd5b505af1158015611cc0573d6000803e3d6000fd5b50505050611cce89856129fe565b60048054602083015160408051637061b88960e11b81529384018d90526024840191909152516001600160a01b039091169163e0c3711291604480830192600092919082900301818387803b158015611d2657600080fd5b505af1158015611d3a573d6000803e3d6000fd5b505050602090940151600180559998505050505050505050565b600060026001541415611d9c576040805162461bcd60e51b815260206004820152601f6024820152600080516020612f19833981519152604482015290519081900360640190fd5b6002600181905554600160a01b900460ff1615611df3576040805162461bcd60e51b815260206004820152601060248201526f14185d5cd8589b194e881c185d5cd95960821b604482015290519081900360640190fd5b600f54600854604080516331a9108f60e11b8152600481018890529051879384936001600160a01b0391821693911691636352211e916024808201926020929091908290030181600087803b158015611e4b57600080fd5b505af1158015611e5f573d6000803e3d6000fd5b505050506040513d6020811015611e7557600080fd5b50516001600160a01b031614611ebc5760405162461bcd60e51b815260040180806020018281038252603181526020018061318c6031913960400191505060405180910390fd5b611ec4612e66565b611ecd87612681565b90506000611ede82606001516127da565b9050611ee8612eb2565b611ef6308460600151612886565b805190915060ff16611f4f576040805162461bcd60e51b815260206004820152601f60248201527f4e503a534c533a20636f6e7472616374206e6f74206175746820696e20414300604482015290519081900360640190fd5b60008260ff16118015611f655750600a8260ff16105b611fb6576040805162461bcd60e51b815260206004820152601b60248201527f4e503a534c533a2075736572206e6f74206175746820696e2041430000000000604482015290519081900360640190fd5b611fbf87612afb565b60ff1660aa146120005760405162461bcd60e51b815260040180806020018281038252602b8152602001806132f4602b913960400191505060405180910390fd5b6031836020015160ff161180612027575060328760ff16108015612027575060058260ff16105b6120625760405162461bcd60e51b81526004018080602001828103825260468152602001806132196046913960600191505060405180910390fd5b826020015160ff166005141580156120825750826020015160ff16603714155b6120bd5760405162461bcd60e51b81526004018080602001828103825260498152602001806133b26049913960600191505060405180910390fd5b826020015160ff16603214156121045760405162461bcd60e51b815260040180806020018281038252603e815260200180613374603e913960400191505060405180910390fd5b825188146121435760405162461bcd60e51b8152600401808060200182810382526031815260200180612f686031913960400191505060405180910390fd5b60ff8716602084018190526004805460408051637911aa5360e11b81529283018d9052602483019390935291516001600160a01b039092169163f22354a69160448082019260009290919082900301818387803b1580156121a357600080fd5b505af11580156121b7573d6000803e3d6000fd5b505050602090930151600180559998505050505050505050565b600060026001541415612219576040805162461bcd60e51b815260206004820152601f6024820152600080516020612f19833981519152604482015290519081900360640190fd5b6002600181905554600160a01b900460ff1615612270576040805162461bcd60e51b815260206004820152601060248201526f14185d5cd8589b194e881c185d5cd95960821b604482015290519081900360640190fd5b600f54600854604080516331a9108f60e11b8152600481018890529051879384936001600160a01b0391821693911691636352211e916024808201926020929091908290030181600087803b1580156122c857600080fd5b505af11580156122dc573d6000803e3d6000fd5b505050506040513d60208110156122f257600080fd5b50516001600160a01b0316146123395760405162461bcd60e51b815260040180806020018281038252603181526020018061318c6031913960400191505060405180910390fd5b612341612e66565b61234a87612681565b9050600061235b82606001516127da565b9050612365612eb2565b612373308460600151612886565b805190915060ff166123cc576040805162461bcd60e51b815260206004820152601f60248201527f4e503a4d49313a20636f6e7472616374206e6f74206175746820696e20414300604482015290519081900360640190fd5b60008260ff161180156123e25750600a8260ff16105b612433576040805162461bcd60e51b815260206004820152601b60248201527f4e503a4d49313a2075736572206e6f74206175746820696e2041430000000000604482015290519081900360640190fd5b868360c00151141561248c576040805162461bcd60e51b815260206004820152601c60248201527f4e503a4d49313a204e657720646174612073616d65206173206f6c6400000000604482015290519081900360640190fd5b6124998360200151612932565b60ff16156124d85760405162461bcd60e51b815260040180806020018281038252602581526020018061331f6025913960400191505060405180910390fd5b6124e58360200151612971565b60ff16156125245760405162461bcd60e51b815260040180806020018281038252603d8152602001806132b7603d913960400191505060405180910390fd5b825188146125635760405162461bcd60e51b81526004018080602001828103825260318152602001806130016031913960400191505060405180910390fd5b60c083018790526125748984612d25565b505060c00151600180559695505050505050565b612590612af7565b6002546001600160a01b039081169116146125e0576040805162461bcd60e51b815260206004820181905260248201526000805160206131f9833981519152604482015290519081900360640190fd5b6001600160a01b0381166126255760405162461bcd60e51b8152600401808060200182810382526026815260200180612f996026913960400191505060405180910390fd5b6002546040516001600160a01b038084169216907f8be0079c531659141344cd1fd0a4f28419497f9722a3daafe3b4186f6b6457e090600090a3600280546001600160a01b0319166001600160a01b0392909216919091179055565b612689612e66565b612691612e66565b6000806000806000806000600460009054906101000a90046001600160a01b03166001600160a01b031663e248f2c48b6040518263ffffffff1660e01b81526004018082815260200191505060e060405180830381600087803b1580156126f757600080fd5b505af115801561270b573d6000803e3d6000fd5b505050506040513d60e081101561272157600080fd5b810190808051906020019092919080519060200190929190805190602001909291908051906020019092919080519060200190929190805190602001909291908051906020019092919050505096509650965096509650965096508688600001818152505085886020019060ff16908160ff16815250508488606001818152505083886080018181525050828860a0018181525050818860c0018181525050808860e00181815250505050505050505080915050919050565b600654604080513360601b6020808301919091528251808303601401815260348301808552815191830191909120633651658f60e01b909152603883015260588201859052915160009384936001600160a01b0390911692633651658f9260788083019392829003018186803b15801561285357600080fd5b505afa158015612867573d6000803e3d6000fd5b505050506040513d602081101561287d57600080fd5b50519392505050565b61288e612eb2565b612896612eb2565b600480546040805163caa496a960e01b81526001600160a01b0388811694820194909452602481018790528151939092169263caa496a99260448082019392918290030181600087803b1580156128ec57600080fd5b505af1158015612900573d6000803e3d6000fd5b505050506040513d604081101561291657600080fd5b5080516020918201519183019190915260ff1681529392505050565b60008160ff1660061415801561294c57508160ff16603214155b801561295c57508160ff16603814155b1561296957506000611984565b5060aa611984565b60008160ff1660051415801561298b57508160ff16603714155b801561299b57508160ff16604614155b801561295c57508160ff16603c1461296957506000611984565b60006129f783836040518060400160405280601e81526020017f536166654d6174683a207375627472616374696f6e206f766572666c6f770000815250612dcf565b9392505050565b600254600160a01b900460ff1615612a50576040805162461bcd60e51b815260206004820152601060248201526f14185d5cd8589b194e881c185d5cd95960821b604482015290519081900360640190fd5b60048054825160208401516080850151604080870151610100880151825163161e630160e11b81529788018a9052602488019590955260ff90931660448701526064860191909152608485019190915260a4840191909152516001600160a01b0390911691632c3cc6029160c480830192600092919082900301818387803b158015612adb57600080fd5b505af1158015612aef573d6000803e3d6000fd5b505050505050565b3390565b60008160ff16600314158015612b1557508160ff16600414155b8015612b2557508160ff16603514155b801561295c57508160ff1660361461296957506000611984565b600254600160a01b900460ff16612b94576040805162461bcd60e51b815260206004820152601460248201527314185d5cd8589b194e881b9bdd081c185d5cd95960621b604482015290519081900360640190fd5b6002805460ff60a01b191690557f5db9ee0a495bf2e6ff9c91a7834c1ba4fdd244a5e8aa4e537bd38aeae4b073aa612bca612af7565b604080516001600160a01b039092168252519081900360200190a1565b600254600160a01b900460ff1615612c39576040805162461bcd60e51b815260206004820152601060248201526f14185d5cd8589b194e881c185d5cd95960821b604482015290519081900360640190fd5b6002805460ff60a01b1916600160a01b1790557f62e78cea01bee320cd4e420270b5ea74000d11b0c9f74754ebdbfc544b05a258612bca612af7565b612c7d612ec9565b612c85612ec9565b60065460408051637e61b76f60e01b81526004810186905290516001600160a01b0390921691637e61b76f916024808201926060929091908290030181600087803b158015612cd357600080fd5b505af1158015612ce7573d6000803e3d6000fd5b505050506040513d6060811015612cfd57600080fd5b508051602080830151604093840151606086015260ff16928401929092529082015292915050565b600254600160a01b900460ff1615612d77576040805162461bcd60e51b815260206004820152601060248201526f14185d5cd8589b194e881c185d5cd95960821b604482015290519081900360640190fd5b6004805460c0830151604080516310b3712960e21b81529384018690526024840191909152516001600160a01b03909116916342cdc4a491604480830192600092919082900301818387803b158015612adb57600080fd5b60008184841115612e5e5760405162461bcd60e51b81526004018080602001828103825283818151815260200191508051906020019080838360005b83811015612e23578181015183820152602001612e0b565b50505050905090810190601f168015612e505780820380516001836020036101000a031916815260200191505b509250505060405180910390fd5b505050900390565b6040805161012081018252600080825260208201819052918101829052606081018290526080810182905260a0810182905260c0810182905260e0810182905261010081019190915290565b604080518082019091526000808252602082015290565b60405180608001604052806060815260200160008152602001600060ff16815260200160008152509056fe4e503a44433a2043616e6e6f74206d6f6469667920617373657420696e20457363726f775265656e7472616e637947756172643a207265656e7472616e742063616c6c004e503a4d533a204f6e6c79207573657274797065203c20352063616e206368616e676520737461747573203c2034394e503a534c533a20526967687473686f6c64657220646f6573206e6f74206d6174636820737570706c69656420646174614f776e61626c653a206e6577206f776e657220697320746865207a65726f20616464726573734e503a4d533a2043616e6e6f7420706c61636520617373657420696e206c6f7374206f722073746f6c656e20737461747573207573696e67206d6f645374617475734e503a4d49313a20526967687473686f6c64657220646f6573206e6f74206d6174636820737570706c6965642064617461423a5353433a2073746f7261676520616464726573732063616e6e6f74206265207a65726f4e503a4d533a20537065636966696564205374617475732069732072657365727665642e50423a54583a496e76616c69642063616c6c657220666f72207472616e7366657220746f6b656e4e503a4443205265636f726420696e20756e726567697374657265642c206578706f727465642c206f7220646973636172646564207374617475734e503a45413a20417373657420737461747573206d75737420626520353120746f206578706f72744e503a4d533a2043616e6e6f74206d6f6469667920617373657420696e20657363726f774e503a4d533a2043616e6e6f7420706c61636520617373657420696e20457363726f77207573696e67206d6f645374617475734e503a44433a20526967687473686f6c64657220646f6573206e6f74206d6174636820737570706c69656420646174614e503a4d4f442d49413a20437573746f6469616c20636f6e747261637420646f6573206e6f7420686f6c6420746f6b656e4e503a4d533a205265636f726420696e20756e726567697374657265642c206578706f727465642c206f7220646973636172646564207374617475734f776e61626c653a2063616c6c6572206973206e6f7420746865206f776e65724e503a534c533a204f6e6c79207573657274797065203c352063616e206368616e67652061203c34392073746174757320617373657420746f2061203e3439207374617475734e503a4d533a2043616e6e6f7420706c61636520617373657420696e20756e726567697374657265642c206578706f727465642c206f722064697363617264656420737461747573207573696e67206d6f645374617475734e503a4d49313a205265636f726420696e20756e726567697374657265642c206578706f727465642c206f7220646973636172646564207374617475734e503a534c533a204d7573742073657420746f2061206c6f7374206f722073746f6c656e207374617475734e503a4d49313a2043616e6e6f74206d6f6469667920617373657420696e20457363726f774e503a4d533a20526967687473686f6c64657220646f6573206e6f74206d6174636820737570706c69656420646174614e503a534c533a20417373657420696e206c6f636b656420657363726f772063616e6e6f742062652073657420746f206c6f7374206f722073746f6c656e4e503a534c533a205472616e736665727265642061737365742063616e6e6f742062652073657420746f206c6f7374206f722073746f6c656e206166746572207472616e736665722ea26469706673582212203049ef05c2e7380829c84f7bff8aafa249c2a92e82ecb612d62368398e733e6064736f6c63430006090033608060405234801561001057600080fd5b5060006100246001600160e01b0361007316565b600080546001600160a01b0319166001600160a01b0383169081178255604051929350917f8be0079c531659141344cd1fd0a4f28419497f9722a3daafe3b4186f6b6457e0908290a350610077565b3390565b6106de806100866000396000f3fe6080604052600436106100555760003560e01c806351cff8d91461005a578063715018a61461008f5780638da5cb5b146100a4578063e3a9db1a146100d5578063f2fde38b1461011a578063f340fa011461014d575b600080fd5b34801561006657600080fd5b5061008d6004803603602081101561007d57600080fd5b50356001600160a01b0316610173565b005b34801561009b57600080fd5b5061008d61023c565b3480156100b057600080fd5b506100b96102de565b604080516001600160a01b039092168252519081900360200190f35b3480156100e157600080fd5b50610108600480360360208110156100f857600080fd5b50356001600160a01b03166102ed565b60408051918252519081900360200190f35b34801561012657600080fd5b5061008d6004803603602081101561013d57600080fd5b50356001600160a01b0316610308565b61008d6004803603602081101561016357600080fd5b50356001600160a01b0316610400565b61017b6104d9565b6000546001600160a01b039081169116146101cb576040805162461bcd60e51b81526020600482018190526024820152600080516020610689833981519152604482015290519081900360640190fd5b6001600160a01b03811660008181526001602052604081208054919055906101f9908263ffffffff6104dd16565b6040805182815290516001600160a01b038416917f7084f5476618d8e60b11ef0d7d3f06914655adb8793e28ff7f018d4c76d505d5919081900360200190a25050565b6102446104d9565b6000546001600160a01b03908116911614610294576040805162461bcd60e51b81526020600482018190526024820152600080516020610689833981519152604482015290519081900360640190fd5b600080546040516001600160a01b03909116907f8be0079c531659141344cd1fd0a4f28419497f9722a3daafe3b4186f6b6457e0908390a3600080546001600160a01b0319169055565b6000546001600160a01b031690565b6001600160a01b031660009081526001602052604090205490565b6103106104d9565b6000546001600160a01b03908116911614610360576040805162461bcd60e51b81526020600482018190526024820152600080516020610689833981519152604482015290519081900360640190fd5b6001600160a01b0381166103a55760405162461bcd60e51b81526004018080602001828103825260268152602001806106296026913960400191505060405180910390fd5b600080546040516001600160a01b03808516939216917f8be0079c531659141344cd1fd0a4f28419497f9722a3daafe3b4186f6b6457e091a3600080546001600160a01b0319166001600160a01b0392909216919091179055565b6104086104d9565b6000546001600160a01b03908116911614610458576040805162461bcd60e51b81526020600482018190526024820152600080516020610689833981519152604482015290519081900360640190fd5b6001600160a01b0381166000908152600160205260409020543490610483908263ffffffff6105c716565b6001600160a01b038316600081815260016020908152604091829020939093558051848152905191927f2da466a7b24304f47e87fa2e1e5a81b9831ce54fec19055ce277ca2f39ba42c492918290030190a25050565b3390565b80471015610532576040805162461bcd60e51b815260206004820152601d60248201527f416464726573733a20696e73756666696369656e742062616c616e6365000000604482015290519081900360640190fd5b6040516000906001600160a01b0384169083908381818185875af1925050503d806000811461057d576040519150601f19603f3d011682016040523d82523d6000602084013e610582565b606091505b50509050806105c25760405162461bcd60e51b815260040180806020018281038252603a81526020018061064f603a913960400191505060405180910390fd5b505050565b600082820183811015610621576040805162461bcd60e51b815260206004820152601b60248201527f536166654d6174683a206164646974696f6e206f766572666c6f770000000000604482015290519081900360640190fd5b939250505056fe4f776e61626c653a206e6577206f776e657220697320746865207a65726f2061646472657373416464726573733a20756e61626c6520746f2073656e642076616c75652c20726563697069656e74206d617920686176652072657665727465644f776e61626c653a2063616c6c6572206973206e6f7420746865206f776e6572a2646970667358221220a00d6aa6d96b7e14cf44ef151b801d41a0d6f22be9568d55aded0e5dc41900ac64736f6c63430006090033",
  "source": "/*-----------------------------------------------------------V0.6.8\r\n__/\\\\\\\\\\\\\\\\\\\\\\\\\\ _____/\\\\\\\\\\\\\\\\\\ _______/\\\\../\\\\ ___/\\\\\\\\\\\\\\\\\\\\\\\\\\\\\\\r\n _\\/\\\\\\/////////\\\\\\ _/\\\\\\///////\\\\\\ ____\\//..\\//____\\/\\\\\\///////////__\r\n  _\\/\\\\\\.......\\/\\\\\\.\\/\\\\\\.....\\/\\\\\\ ________________\\/\\\\\\ ____________\r\n   _\\/\\\\\\\\\\\\\\\\\\\\\\\\\\/__\\/\\\\\\\\\\\\\\\\\\\\\\/_____/\\\\\\____/\\\\\\.\\/\\\\\\\\\\\\\\\\\\\\\\ ____\r\n    _\\/\\\\\\/////////____\\/\\\\\\//////\\\\\\ ___\\/\\\\\\___\\/\\\\\\.\\/\\\\\\///////______\r\n     _\\/\\\\\\ ____________\\/\\\\\\ ___\\//\\\\\\ __\\/\\\\\\___\\/\\\\\\.\\/\\\\\\ ____________\r\n      _\\/\\\\\\ ____________\\/\\\\\\ ____\\//\\\\\\ _\\/\\\\\\___\\/\\\\\\.\\/\\\\\\ ____________\r\n       _\\/\\\\\\ ____________\\/\\\\\\ _____\\//\\\\\\.\\//\\\\\\\\\\\\\\\\\\ _\\/\\\\\\ ____________\r\n        _\\/// _____________\\/// _______\\/// __\\///////// __\\/// _____________\r\n         *-------------------------------------------------------------------*/\r\n\r\n/*-----------------------------------------------------------------\r\n *  TO DO\r\n *\r\n *---------------------------------------------------------------*/\r\n\r\n// SPDX-License-Identifier: UNLICENSED\r\npragma solidity ^0.6.7;\r\n\r\nimport \"./PRUF_CORE.sol\";\r\n\r\ncontract NP is CORE {\r\n    /*\r\n     * @dev Verify user credentials\r\n     * Originating Address:\r\n     */\r\n    modifier isAuthorized(bytes32 _idxHash) override {\r\n        uint256 tokenId = uint256(_idxHash);\r\n        require(\r\n            (A_TKN.ownerOf(tokenId) == APP_Address),\r\n            \"NP:MOD-IA: Custodial contract does not hold token\"\r\n        );\r\n        _;\r\n    }\r\n\r\n    //--------------------------------------------External Functions--------------------------\r\n\r\n    /*\r\n     * @dev Modify **Record**.assetStatus with confirmation required\r\n     */\r\n    function _modStatus(\r\n        bytes32 _idxHash,\r\n        bytes32 _rgtHash,\r\n        uint8 _newAssetStatus\r\n    )\r\n        external\r\n        nonReentrant\r\n        whenNotPaused\r\n        isAuthorized(_idxHash)\r\n        returns (uint8)\r\n    {\r\n        Record memory rec = getRecord(_idxHash);\r\n        uint8 userType = getUserType(rec.assetClass);\r\n        ContractDataHash memory contractInfo = getContractInfo(\r\n            address(this),\r\n            rec.assetClass\r\n        );\r\n\r\n        require(\r\n            contractInfo.contractType > 0,\r\n            \"NP:MS: contract not auth for AC\"\r\n        );\r\n        require(\r\n            (userType > 0) && (userType < 10),\r\n            \"NP:MS: User not auth in AC\"\r\n        );\r\n\r\n        require(\r\n            isLostOrStolen(_newAssetStatus) == 0,\r\n            \"NP:MS: Cannot place asset in lost or stolen status using modStatus\"\r\n        );\r\n        require(\r\n            isEscrow(_newAssetStatus) == 0,\r\n            \"NP:MS: Cannot place asset in Escrow using modStatus\"\r\n        );\r\n        require(\r\n            needsImport(_newAssetStatus) == 0,\r\n            \"NP:MS: Cannot place asset in unregistered, exported, or discarded status using modStatus\"\r\n        );\r\n        require(\r\n            (_newAssetStatus < 100) &&\r\n                (_newAssetStatus != 7) &&\r\n                (_newAssetStatus != 57) &&\r\n                (_newAssetStatus != 58),\r\n            \"NP:MS: Specified Status is reserved.\"\r\n        );\r\n        require(\r\n            isEscrow(rec.assetStatus) == 0,\r\n            \"NP:MS: Cannot modify asset in escrow\"\r\n        );\r\n        require(                                                        \r\n            needsImport(rec.assetStatus) == 0,\r\n            \"NP:MS: Record in unregistered, exported, or discarded status\"\r\n        );\r\n        require(\r\n            (rec.assetStatus > 49) || (userType < 5),\r\n            \"NP:MS: Only usertype < 5 can change status < 49\"\r\n        );\r\n        require(\r\n            rec.rightsHolder == _rgtHash,\r\n            \"NP:MS: Rightsholder does not match supplied data\"\r\n        );\r\n        //^^^^^^^checks^^^^^^^^^\r\n\r\n        rec.assetStatus = _newAssetStatus;\r\n        //^^^^^^^effects^^^^^^^^^\r\n\r\n        writeRecord(_idxHash, rec);\r\n\r\n        return rec.assetStatus;\r\n        //^^^^^^^interactions^^^^^^^^^\r\n    }\r\n\r\n    /*\r\n     * @dev set **Record**.assetStatus to lost or stolen, with confirmation required.\r\n     */\r\n    function _setLostOrStolen(\r\n        bytes32 _idxHash,\r\n        bytes32 _rgtHash,\r\n        uint8 _newAssetStatus\r\n    )\r\n        external\r\n        nonReentrant\r\n        whenNotPaused\r\n        isAuthorized(_idxHash)\r\n        returns (uint8)\r\n    {\r\n        Record memory rec = getRecord(_idxHash);\r\n        uint8 userType = getUserType(rec.assetClass);\r\n        ContractDataHash memory contractInfo = getContractInfo(\r\n            address(this),\r\n            rec.assetClass\r\n        );\r\n\r\n        require(\r\n            contractInfo.contractType > 0,\r\n            \"NP:SLS: contract not auth in AC\"\r\n        );\r\n        // require(                                                             //redundant, will throw in storage\r\n        //     (rec.rightsHolder != 0),\r\n        //     \"NP:SLS: Record unclaimed: import required. \"\r\n        // );\r\n        require(\r\n            (userType > 0) && (userType < 10),\r\n            \"NP:SLS: user not auth in AC\"\r\n        );\r\n        require(\r\n            isLostOrStolen(_newAssetStatus) == 170,\r\n            \"NP:SLS: Must set to a lost or stolen status\"\r\n        );\r\n        require(\r\n            (rec.assetStatus > 49) ||\r\n                ((_newAssetStatus < 50) && (userType < 5)),\r\n            \"NP:SLS: Only usertype <5 can change a <49 status asset to a >49 status\"\r\n        );\r\n        require(\r\n            (rec.assetStatus != 5) && (rec.assetStatus != 55),\r\n            \"NP:SLS: Transferred asset cannot be set to lost or stolen after transfer.\"\r\n        );\r\n        require(\r\n            (rec.assetStatus != 50),\r\n            \"NP:SLS: Asset in locked escrow cannot be set to lost or stolen\"\r\n        );\r\n        require(\r\n            rec.rightsHolder == _rgtHash,\r\n            \"NP:SLS: Rightsholder does not match supplied data\"\r\n        );\r\n        //^^^^^^^checks^^^^^^^^^\r\n\r\n        rec.assetStatus = _newAssetStatus;\r\n        //^^^^^^^effects^^^^^^^^^\r\n\r\n        STOR.setStolenOrLost(_idxHash, rec.assetStatus);\r\n\r\n        return rec.assetStatus;\r\n        //^^^^^^^interactions^^^^^^^^^\r\n    }\r\n\r\n    /*\r\n     * @dev Decrement **Record**.countdown with confirmation required\r\n     */\r\n    function _decCounter(\r\n        bytes32 _idxHash,\r\n        bytes32 _rgtHash,\r\n        uint256 _decAmount\r\n    )\r\n        external\r\n        nonReentrant\r\n        whenNotPaused\r\n        isAuthorized(_idxHash)\r\n        returns (uint256)\r\n    {\r\n        Record memory rec = getRecord(_idxHash);\r\n        uint8 userType = getUserType(rec.assetClass);\r\n        ContractDataHash memory contractInfo = getContractInfo(\r\n            address(this),\r\n            rec.assetClass\r\n        );\r\n\r\n        require(\r\n            contractInfo.contractType > 0,\r\n            \"NP:DC: contract not auth in AC\"\r\n        );\r\n\r\n        // require(                                                                      //redundant, will throw in storage\r\n        //     (rec.rightsHolder != 0),\r\n        //     \"NP:DC: Record unclaimed: import required. \"\r\n        // );\r\n        require(\r\n            (userType > 0) && (userType < 10),\r\n            \"NP:DC: user not auth in AC\"\r\n        );\r\n        require(\r\n            isEscrow(rec.assetStatus) == 0,\r\n            \"NP:DC: Cannot modify asset in Escrow\"\r\n        );\r\n        // require(_decAmount > 0, \"NP:DC: cannot decrement by negative number\");                //redundant, will throw in storage\r\n\r\n        require(\r\n            needsImport(rec.assetStatus) == 0,\r\n            \"NP:DC Record in unregistered, exported, or discarded status\"\r\n        );\r\n        require(\r\n            rec.rightsHolder == _rgtHash,\r\n            \"NP:DC: Rightsholder does not match supplied data\"\r\n        );\r\n        //^^^^^^^checks^^^^^^^^^\r\n\r\n        if (rec.countDown > _decAmount) {\r\n            rec.countDown = rec.countDown.sub(_decAmount);\r\n        } else {\r\n            rec.countDown = 0;\r\n        }\r\n        //^^^^^^^effects^^^^^^^^^\r\n\r\n        writeRecord(_idxHash, rec);\r\n        return (rec.countDown);\r\n        //^^^^^^^interactions^^^^^^^^^\r\n    }\r\n\r\n    /*\r\n     * @dev Modify **Record**.Ipfs1 with confirmation\r\n     */\r\n    function _modIpfs1(\r\n        bytes32 _idxHash,\r\n        bytes32 _rgtHash,\r\n        bytes32 _IpfsHash\r\n    )\r\n        external\r\n        nonReentrant\r\n        whenNotPaused\r\n        isAuthorized(_idxHash)\r\n        returns (bytes32)\r\n    {\r\n        Record memory rec = getRecord(_idxHash);\r\n        uint8 userType = getUserType(rec.assetClass);\r\n        ContractDataHash memory contractInfo = getContractInfo(\r\n            address(this),\r\n            rec.assetClass\r\n        );\r\n\r\n        require(\r\n            contractInfo.contractType > 0,\r\n            \"NP:MI1: contract not auth in AC\"\r\n        );\r\n        // require(                                                                           //redundant, will throw in storage\r\n        //     (rec.rightsHolder != 0),\r\n        //     \"NP:MI1: Record unclaimed: import required.\"\r\n        // );\r\n        require(\r\n            (userType > 0) && (userType < 10),\r\n            \"NP:MI1: user not auth in AC\"\r\n        );\r\n        require(rec.Ipfs1 != _IpfsHash, \"NP:MI1: New data same as old\");\r\n        \r\n        require(\r\n            isEscrow(rec.assetStatus) == 0,\r\n           \"NP:MI1: Cannot modify asset in Escrow\"\r\n        );\r\n        require(\r\n            needsImport(rec.assetStatus) == 0,\r\n            \"NP:MI1: Record in unregistered, exported, or discarded status\"\r\n        );\r\n        require(\r\n            rec.rightsHolder == _rgtHash,\r\n            \"NP:MI1: Rightsholder does not match supplied data\"\r\n        );\r\n        //^^^^^^^checks^^^^^^^^^\r\n\r\n        rec.Ipfs1 = _IpfsHash;\r\n        //^^^^^^^effects^^^^^^^^^\r\n\r\n        writeRecordIpfs1(_idxHash, rec);\r\n\r\n        return rec.Ipfs1;\r\n        //^^^^^^^interactions^^^^^^^^^\r\n    }\r\n\r\n    /*\r\n     *     @dev Export FROM Custodial:\r\n     */\r\n    function exportAsset(bytes32 _idxHash, address _addr)\r\n        external\r\n        nonReentrant\r\n        whenNotPaused\r\n        isAuthorized(_idxHash)\r\n        returns (uint8)\r\n    {\r\n        Record memory rec = getRecord(_idxHash);\r\n        uint8 userType = getUserType(rec.assetClass);\r\n        ContractDataHash memory contractInfo = getContractInfo(\r\n            address(this),\r\n            rec.assetClass\r\n        );\r\n        AC memory AC_info = getACinfo(rec.assetClass);\r\n\r\n        require(\r\n            contractInfo.contractType > 0,\r\n            \"NP:MS: contract not auth in AC\"\r\n        );\r\n        require(\r\n            (userType > 0) && (userType < 10),\r\n            \"NP:EA: user not auth in AC\"\r\n        );\r\n        require( // require transferrable (51) status\r\n            rec.assetStatus == 51,\r\n            \"NP:EA: Asset status must be 51 to export\"\r\n        );\r\n        //^^^^^^^checks^^^^^^^^^\r\n\r\n        rec.incrementNumberOfTransfers = 170;\r\n\r\n        rec.assetStatus = 70; // Set status to 70 (exported)\r\n        //^^^^^^^effects^^^^^^^^^\r\n\r\n        APP.transferAssetToken(_addr, _idxHash);\r\n        writeRecord(_idxHash, rec);\r\n        STOR.changeAC(_idxHash, AC_info.assetClassRoot);\r\n\r\n        return rec.assetStatus;\r\n        //^^^^^^^interactions^^^^^^^^^\r\n    }\r\n}\r\n",
  "sourcePath": "C:\\Users\\Blayde\\Documents\\ETHDEV\\bulletproof\\PRUF_TRUFFLE\\contracts\\PRUF_NP.sol",
  "compiler": {
    "name": "solc",
    "version": "0.6.9+commit.3e3065ac.Emscripten.clang"
  },
  "schemaVersion": "3.0.23",
  "updatedAt": "2020-08-20T17:17:06.353Z",
  "devdoc": {
    "methods": {
      "OO_pause()": {
        "details": "Triggers stopped state."
      },
      "OO_unpause()": {
        "details": "Returns to normal state."
      },
      "owner()": {
        "details": "Returns the address of the current owner."
      },
      "paused()": {
        "details": "Returns true if the contract is paused, and false otherwise."
      },
      "payments(address)": {
        "details": "Returns the payments owed to an address.",
        "params": {
          "dest": "The creditor's address."
        }
      },
      "renounceOwnership()": {
        "details": "Leaves the contract without owner. It will not be possible to call `onlyOwner` functions anymore. Can only be called by the current owner. NOTE: Renouncing ownership will leave the contract without an owner, thereby removing any functionality that is only available to the owner."
      },
      "transferOwnership(address)": {
        "details": "Transfers ownership of the contract to a new account (`newOwner`). Can only be called by the current owner."
      },
      "withdrawPayments(address)": {
        "details": "Withdraw accumulated payments, forwarding all gas to the recipient. Note that _any_ account can call this function, not just the `payee`. This means that contracts unaware of the `PullPayment` protocol can still receive funds this way, by having a separate account call {withdrawPayments}. WARNING: Forwarding all gas opens the door to reentrancy vulnerabilities. Make sure you trust the recipient, or are either following the checks-effects-interactions pattern or using {ReentrancyGuard}.",
        "params": {
          "payee": "Whose payments will be withdrawn."
        }
      }
    }
  },
  "userdoc": {
    "methods": {}
  }
}