{
  "contractName": "NP_NC",
  "abi": [
    {
      "anonymous": false,
      "inputs": [
        {
          "indexed": true,
          "internalType": "address",
          "name": "previousOwner",
          "type": "address"
        },
        {
          "indexed": true,
          "internalType": "address",
          "name": "newOwner",
          "type": "address"
        }
      ],
      "name": "OwnershipTransferred",
      "type": "event"
    },
    {
      "anonymous": false,
      "inputs": [
        {
          "indexed": false,
          "internalType": "address",
          "name": "account",
          "type": "address"
        }
      ],
      "name": "Paused",
      "type": "event"
    },
    {
      "anonymous": false,
      "inputs": [
        {
          "indexed": false,
          "internalType": "string",
          "name": "_msg",
          "type": "string"
        }
      ],
      "name": "REPORT",
      "type": "event"
    },
    {
      "anonymous": false,
      "inputs": [
        {
          "indexed": false,
          "internalType": "address",
          "name": "account",
          "type": "address"
        }
      ],
      "name": "Unpaused",
      "type": "event"
    },
    {
      "inputs": [],
      "name": "$withdraw",
      "outputs": [],
      "stateMutability": "payable",
      "type": "function"
    },
    {
      "inputs": [],
      "name": "OO_ResolveContractAddresses",
      "outputs": [],
      "stateMutability": "nonpayable",
      "type": "function"
    },
    {
      "inputs": [],
      "name": "OO_pause",
      "outputs": [],
      "stateMutability": "nonpayable",
      "type": "function"
    },
    {
      "inputs": [
        {
          "internalType": "address",
          "name": "_storageAddress",
          "type": "address"
        }
      ],
      "name": "OO_setStorageContract",
      "outputs": [],
      "stateMutability": "nonpayable",
      "type": "function"
    },
    {
      "inputs": [
        {
          "internalType": "address",
          "name": "_to",
          "type": "address"
        },
        {
          "internalType": "bytes32",
          "name": "_idxHash",
          "type": "bytes32"
        }
      ],
      "name": "OO_transferACToken",
      "outputs": [],
      "stateMutability": "nonpayable",
      "type": "function"
    },
    {
      "inputs": [],
      "name": "OO_unpause",
      "outputs": [],
      "stateMutability": "nonpayable",
      "type": "function"
    },
    {
      "inputs": [
        {
          "internalType": "address",
          "name": "",
          "type": "address"
        },
        {
          "internalType": "address",
          "name": "",
          "type": "address"
        },
        {
          "internalType": "uint256",
          "name": "",
          "type": "uint256"
        },
        {
          "internalType": "bytes",
          "name": "",
          "type": "bytes"
        }
      ],
      "name": "onERC721Received",
      "outputs": [
        {
          "internalType": "bytes4",
          "name": "",
          "type": "bytes4"
        }
      ],
      "stateMutability": "nonpayable",
      "type": "function"
    },
    {
      "inputs": [],
      "name": "owner",
      "outputs": [
        {
          "internalType": "address",
          "name": "",
          "type": "address"
        }
      ],
      "stateMutability": "view",
      "type": "function"
    },
    {
      "inputs": [],
      "name": "paused",
      "outputs": [
        {
          "internalType": "bool",
          "name": "",
          "type": "bool"
        }
      ],
      "stateMutability": "view",
      "type": "function"
    },
    {
      "inputs": [
        {
          "internalType": "address",
          "name": "dest",
          "type": "address"
        }
      ],
      "name": "payments",
      "outputs": [
        {
          "internalType": "uint256",
          "name": "",
          "type": "uint256"
        }
      ],
      "stateMutability": "view",
      "type": "function"
    },
    {
      "inputs": [],
      "name": "renounceOwnership",
      "outputs": [],
      "stateMutability": "nonpayable",
      "type": "function"
    },
    {
      "inputs": [
        {
          "internalType": "address",
          "name": "_to",
          "type": "address"
        },
        {
          "internalType": "bytes32",
          "name": "_idxHash",
          "type": "bytes32"
        }
      ],
      "name": "transferAssetToken",
      "outputs": [],
      "stateMutability": "nonpayable",
      "type": "function"
    },
    {
      "inputs": [
        {
          "internalType": "address",
          "name": "newOwner",
          "type": "address"
        }
      ],
      "name": "transferOwnership",
      "outputs": [],
      "stateMutability": "nonpayable",
      "type": "function"
    },
    {
      "inputs": [
        {
          "internalType": "address payable",
          "name": "payee",
          "type": "address"
        }
      ],
      "name": "withdrawPayments",
      "outputs": [],
      "stateMutability": "nonpayable",
      "type": "function"
    },
    {
      "inputs": [
        {
          "internalType": "bytes32",
          "name": "_idxHash",
          "type": "bytes32"
        },
        {
          "internalType": "bytes32",
          "name": "_newRgtHash",
          "type": "bytes32"
        }
      ],
      "name": "_changeRgt",
      "outputs": [
        {
          "internalType": "bytes32",
          "name": "",
          "type": "bytes32"
        }
      ],
      "stateMutability": "nonpayable",
      "type": "function"
    },
    {
      "inputs": [
        {
          "internalType": "bytes32",
          "name": "_idxHash",
          "type": "bytes32"
        }
      ],
      "name": "_exportNC",
      "outputs": [],
      "stateMutability": "nonpayable",
      "type": "function"
    },
    {
      "inputs": [
        {
          "internalType": "bytes32",
          "name": "_idxHash",
          "type": "bytes32"
        },
        {
          "internalType": "uint8",
          "name": "_newAssetStatus",
          "type": "uint8"
        }
      ],
      "name": "_modStatus",
      "outputs": [
        {
          "internalType": "uint8",
          "name": "",
          "type": "uint8"
        }
      ],
      "stateMutability": "nonpayable",
      "type": "function"
    },
    {
      "inputs": [
        {
          "internalType": "bytes32",
          "name": "_idxHash",
          "type": "bytes32"
        },
        {
          "internalType": "uint8",
          "name": "_newAssetStatus",
          "type": "uint8"
        }
      ],
      "name": "_setLostOrStolen",
      "outputs": [
        {
          "internalType": "uint8",
          "name": "",
          "type": "uint8"
        }
      ],
      "stateMutability": "nonpayable",
      "type": "function"
    },
    {
      "inputs": [
        {
          "internalType": "bytes32",
          "name": "_idxHash",
          "type": "bytes32"
        },
        {
          "internalType": "uint256",
          "name": "_decAmount",
          "type": "uint256"
        }
      ],
      "name": "_decCounter",
      "outputs": [
        {
          "internalType": "uint256",
          "name": "",
          "type": "uint256"
        }
      ],
      "stateMutability": "nonpayable",
      "type": "function"
    },
    {
      "inputs": [
        {
          "internalType": "bytes32",
          "name": "_idxHash",
          "type": "bytes32"
        },
        {
          "internalType": "bytes32",
          "name": "_IpfsHash",
          "type": "bytes32"
        }
      ],
      "name": "_modIpfs1",
      "outputs": [
        {
          "internalType": "bytes32",
          "name": "",
          "type": "bytes32"
        }
      ],
      "stateMutability": "nonpayable",
      "type": "function"
    }
  ],
  "bytecode": "0x60806040523480156200001157600080fd5b506040516200002090620000d1565b604051809103906000f0801580156200003d573d6000803e3d6000fd5b50600080546001600160a01b0319166001600160a01b0392909216919091178155600180556200006c620000cd565b600280546001600160a01b0319166001600160a01b038316908117909155604051919250906000907f8be0079c531659141344cd1fd0a4f28419497f9722a3daafe3b4186f6b6457e0908290a3506002805460ff60a01b19169055620000df565b3390565b610764806200361d83390190565b61352e80620000ef6000396000f3fe60806040526004361061011f5760003560e01c80636580bcce116100a0578063c79b226e11610064578063c79b226e14610435578063cf2b6f661461046e578063d6b02ecf14610483578063e2982c21146104b6578063f2fde38b146104e95761011f565b80636580bcce14610377578063715018a6146103a75780637698f98b146103bc5780638da5cb5b146103ef578063961e809b146104205761011f565b80634b9f23a4116100e75780634b9f23a41461029657806352c8fc88146102ab57806354de4a3f146102f45780635c975abb1461031e5780635dc1e666146103475761011f565b8063062cf11f14610124578063150b7a02146101665780632cb741aa1461022057806331b3eb941461022a578063440e7a7e1461025d575b600080fd5b34801561013057600080fd5b506101546004803603604081101561014757600080fd5b508035906020013561051c565b60408051918252519081900360200190f35b34801561017257600080fd5b506102036004803603608081101561018957600080fd5b6001600160a01b038235811692602081013590911691604082013591908101906080810160608201356401000000008111156101c457600080fd5b8201836020820111156101d657600080fd5b803590602001918460018302840111640100000000831117156101f857600080fd5b509092509050610856565b604080516001600160e01b03199092168252519081900360200190f35b610228610867565b005b34801561023657600080fd5b506102286004803603602081101561024d57600080fd5b50356001600160a01b03166108c1565b34801561026957600080fd5b506102286004803603604081101561028057600080fd5b506001600160a01b038135169060200135610927565b3480156102a257600080fd5b50610228610a5d565b3480156102b757600080fd5b506102de600480360360408110156102ce57600080fd5b508035906020013560ff1661108a565b6040805160ff9092168252519081900360200190f35b34801561030057600080fd5b506102286004803603602081101561031757600080fd5b503561153f565b34801561032a57600080fd5b506103336117a7565b604080519115158252519081900360200190f35b34801561035357600080fd5b506101546004803603604081101561036a57600080fd5b50803590602001356117b7565b34801561038357600080fd5b506101546004803603604081101561039a57600080fd5b5080359060200135611a6e565b3480156103b357600080fd5b50610228611dd0565b3480156103c857600080fd5b506102de600480360360408110156103df57600080fd5b508035906020013560ff16611e72565b3480156103fb57600080fd5b50610404612256565b604080516001600160a01b039092168252519081900360200190f35b34801561042c57600080fd5b50610228612265565b34801561044157600080fd5b506102286004803603604081101561045857600080fd5b506001600160a01b0381351690602001356122c7565b34801561047a57600080fd5b506102286123c8565b34801561048f57600080fd5b50610228600480360360208110156104a657600080fd5b50356001600160a01b0316612428565b3480156104c257600080fd5b50610154600480360360208110156104d957600080fd5b50356001600160a01b03166124e7565b3480156104f557600080fd5b506102286004803603602081101561050c57600080fd5b50356001600160a01b0316612569565b600060026001541415610564576040805162461bcd60e51b815260206004820152601f6024820152600080516020612e2a833981519152604482015290519081900360640190fd5b6002600181905554600160a01b900460ff16156105bb576040805162461bcd60e51b815260206004820152601060248201526f14185d5cd8589b194e881c185d5cd95960821b604482015290519081900360640190fd5b600854604080516331a9108f60e11b81526004810186905290518592839233926001600160a01b0390921691636352211e916024808201926020929091908290030181600087803b15801561060f57600080fd5b505af1158015610623573d6000803e3d6000fd5b505050506040513d602081101561063957600080fd5b50516001600160a01b0316146106805760405162461bcd60e51b81526004018080602001828103825260278152602001806132746027913960400191505060405180910390fd5b610688612d9b565b61069186612662565b905061069b612de7565b6106a93083606001516127bb565b805190915060ff166106ec5760405162461bcd60e51b8152600401808060200182810382526037815260200180612ecd6037913960400191505060405180910390fd5b6060820151610742576040805162461bcd60e51b815260206004820152601f60248201527f4e504e433a4d49313a205265636f726420646f6573206e6f7420657869737400604482015290519081900360640190fd5b858260c00151141561079b576040805162461bcd60e51b815260206004820152601e60248201527f4e504e433a4d49313a204e657720646174612073616d65206173206f6c640000604482015290519081900360640190fd5b6107a88260200151612867565b60ff16156107e75760405162461bcd60e51b8152600401808060200182810382526027815260200180612fba6027913960400191505060405180910390fd5b6107f482602001516128a6565b60ff16156108335760405162461bcd60e51b815260040180806020018281038252603f8152602001806130ea603f913960400191505060405180910390fd5b60c0820186905261084487836128ea565b5060c001516001805595945050505050565b630a85bd0160e11b95945050505050565b600260015414156108ad576040805162461bcd60e51b815260206004820152601f6024820152600080516020612e2a833981519152604482015290519081900360640190fd5b60026001556108bb336108c1565b60018055565b60008054604080516351cff8d960e01b81526001600160a01b038581166004830152915191909216926351cff8d9926024808201939182900301818387803b15801561090c57600080fd5b505af1158015610920573d6000803e3d6000fd5b5050505050565b6002600154141561096d576040805162461bcd60e51b815260206004820152601f6024820152600080516020612e2a833981519152604482015290519081900360640190fd5b600260015561097a612256565b6001600160a01b0316336001600160a01b031614806109a357506013546001600160a01b031633145b6109de5760405162461bcd60e51b81526004018080602001828103825260278152602001806130066027913960400191505060405180910390fd5b60085460408051632142170760e11b81523060048201526001600160a01b038581166024830152604482018590529151849392909216916342842e0e9160648082019260009290919082900301818387803b158015610a3c57600080fd5b505af1158015610a50573d6000803e3d6000fd5b5050600180555050505050565b60026001541415610aa3576040805162461bcd60e51b815260206004820152601f6024820152600080516020612e2a833981519152604482015290519081900360640190fd5b6002600155610ab06129b0565b6002546001600160a01b03908116911614610b00576040805162461bcd60e51b8152602060048201819052602482015260008051602061329b833981519152604482015290519081900360640190fd5b60048054604080516363b8d4c160e11b81526020938101849052600660248201526520a1afaa25a760d11b604482015290516001600160a01b039092169263c771a982926064808401938290030181600087803b158015610b6057600080fd5b505af1158015610b74573d6000803e3d6000fd5b505050506040513d6020811015610b8a57600080fd5b5051600980546001600160a01b039283166001600160a01b03199182161791829055600a805490911691831691909117905560048054604080516363b8d4c160e11b81526020938101849052600660248201526520a1afa6a3a960d11b60448201529051919093169263c771a9829260648083019391928290030181600087803b158015610c1757600080fd5b505af1158015610c2b573d6000803e3d6000fd5b505050506040513d6020811015610c4157600080fd5b5051600580546001600160a01b039283166001600160a01b0319918216178083556006805490921690841617905560048054604080516363b8d4c160e11b8152602093810184905260248101949094526420afaa25a760d91b60448501525193169263c771a9829260648082019392918290030181600087803b158015610cc757600080fd5b505af1158015610cdb573d6000803e3d6000fd5b505050506040513d6020811015610cf157600080fd5b5051600780546001600160a01b039283166001600160a01b0319918216178083556008805490921690841617905560048054604080516363b8d4c160e11b8152602093810184905260248101949094526622a1a92fa6a3a960c91b60448501525193169263c771a9829260648082019392918290030181600087803b158015610d7957600080fd5b505af1158015610d8d573d6000803e3d6000fd5b505050506040513d6020811015610da357600080fd5b5051600b80546001600160a01b039283166001600160a01b03199182161791829055600c805490911691831691909117905560048054604080516363b8d4c160e11b81526020938101849052600360248201526204150560ec1b60448201529051919093169263c771a9829260648083019391928290030181600087803b158015610e2d57600080fd5b505af1158015610e41573d6000803e3d6000fd5b505050506040513d6020811015610e5757600080fd5b5051600f80546001600160a01b039283166001600160a01b031991821617918290556010805490911691831691909117905560048054604080516363b8d4c160e11b815260208185018190526024820194909452632921a62960e11b60448201529051919093169263c771a9829260648083019391928290030181600087803b158015610ee357600080fd5b505af1158015610ef7573d6000803e3d6000fd5b505050506040513d6020811015610f0d57600080fd5b5051600d80546001600160a01b039283166001600160a01b03199182161791829055600e805490911691831691909117905560048054604080516363b8d4c160e11b8152602093810184905260066024820152654150505f4e4360d01b60448201529051919093169263c771a9829260648083019391928290030181600087803b158015610f9a57600080fd5b505af1158015610fae573d6000803e3d6000fd5b505050506040513d6020811015610fc457600080fd5b5051601280546001600160a01b0319166001600160a01b0392831617905560048054604080516363b8d4c160e11b81526020938101849052600260248201526104e560f41b60448201529051919093169263c771a9829260648083019391928290030181600087803b15801561103957600080fd5b505af115801561104d573d6000803e3d6000fd5b505050506040513d602081101561106357600080fd5b5051601380546001600160a01b0319166001600160a01b0390921691909117905560018055565b6000600260015414156110d2576040805162461bcd60e51b815260206004820152601f6024820152600080516020612e2a833981519152604482015290519081900360640190fd5b6002600181905554600160a01b900460ff1615611129576040805162461bcd60e51b815260206004820152601060248201526f14185d5cd8589b194e881c185d5cd95960821b604482015290519081900360640190fd5b600854604080516331a9108f60e11b81526004810186905290518592839233926001600160a01b0390921691636352211e916024808201926020929091908290030181600087803b15801561117d57600080fd5b505af1158015611191573d6000803e3d6000fd5b505050506040513d60208110156111a757600080fd5b50516001600160a01b0316146111ee5760405162461bcd60e51b81526004018080602001828103825260278152602001806132746027913960400191505060405180910390fd5b6111f6612d9b565b6111ff86612662565b9050611209612de7565b6112173083606001516127bb565b805190915060ff1661125a5760405162461bcd60e51b81526004018080602001828103825260368152602001806131c86036913960400191505060405180910390fd5b60608201516112b0576040805162461bcd60e51b815260206004820152601e60248201527f4e504e433a4d533a205265636f726420646f6573206e6f742065786973740000604482015290519081900360640190fd5b6112b9866129b4565b60ff16156112f85760405162461bcd60e51b81526004018080602001828103825260448152602001806131296044913960600191505060405180910390fd5b61130186612867565b60ff16156113405760405162461bcd60e51b81526004018080602001828103825260358152602001806131936035913960400191505060405180910390fd5b611349866128a6565b60ff16156113885760405162461bcd60e51b815260040180806020018281038252605a815260200180613356605a913960600191505060405180910390fd5b60648660ff1610801561139f57508560ff16600714155b80156113af57508560ff16603914155b80156113bf57508560ff16603a14155b6113fa5760405162461bcd60e51b815260040180806020018281038252602681526020018061316d6026913960400191505060405180910390fd5b60318660ff161161143c5760405162461bcd60e51b815260040180806020018281038252603481526020018061347a6034913960400191505060405180910390fd5b6031826020015160ff16116114825760405162461bcd60e51b81526004018080602001828103825260378152602001806134436037913960400191505060405180910390fd5b61148f8260200151612867565b60ff16156114ce5760405162461bcd60e51b81526004018080602001828103825260488152602001806132e86048913960600191505060405180910390fd5b6114db82602001516128a6565b60ff161561151a5760405162461bcd60e51b8152600401808060200182810382526045815260200180612e4a6045913960600191505060405180910390fd5b60ff8616602083015261152d87836129f8565b50602001516001805595945050505050565b600254600160a01b900460ff1615611591576040805162461bcd60e51b815260206004820152601060248201526f14185d5cd8589b194e881c185d5cd95960821b604482015290519081900360640190fd5b600854604080516331a9108f60e11b81526004810184905290518392839233926001600160a01b0390921691636352211e916024808201926020929091908290030181600087803b1580156115e557600080fd5b505af11580156115f9573d6000803e3d6000fd5b505050506040513d602081101561160f57600080fd5b50516001600160a01b0316146116565760405162461bcd60e51b81526004018080602001828103825260278152602001806132746027913960400191505060405180910390fd5b61165e612d9b565b61166784612662565b9050611671612de7565b61167f3083606001516127bb565b9050611689612dfe565b6116968360600151612ad5565b9050826020015160ff166033146116de5760405162461bcd60e51b815260040180806020018281038252602d8152602001806132bb602d913960400191505060405180910390fd5b815160ff1661171e5760405162461bcd60e51b815260040180806020018281038252603681526020018061302d6036913960400191505060405180910390fd5b6046602084015261172f86846129f8565b60048054602083015160408051637061b88960e11b81529384018a90526024840191909152516001600160a01b039091169163e0c3711291604480830192600092919082900301818387803b15801561178757600080fd5b505af115801561179b573d6000803e3d6000fd5b50505050505050505050565b600254600160a01b900460ff1690565b6000600260015414156117ff576040805162461bcd60e51b815260206004820152601f6024820152600080516020612e2a833981519152604482015290519081900360640190fd5b6002600181905554600160a01b900460ff1615611856576040805162461bcd60e51b815260206004820152601060248201526f14185d5cd8589b194e881c185d5cd95960821b604482015290519081900360640190fd5b600854604080516331a9108f60e11b81526004810186905290518592839233926001600160a01b0390921691636352211e916024808201926020929091908290030181600087803b1580156118aa57600080fd5b505af11580156118be573d6000803e3d6000fd5b505050506040513d60208110156118d457600080fd5b50516001600160a01b03161461191b5760405162461bcd60e51b81526004018080602001828103825260278152602001806132746027913960400191505060405180910390fd5b611923612d9b565b61192c86612662565b9050611936612de7565b6119443083606001516127bb565b805190915060ff166119875760405162461bcd60e51b815260040180806020018281038252603681526020018061340d6036913960400191505060405180910390fd5b6119948260200151612867565b60ff16156119d35760405162461bcd60e51b81526004018080602001828103825260268152602001806133306026913960400191505060405180910390fd5b6119e082602001516128a6565b60ff1615611a1f5760405162461bcd60e51b815260040180806020018281038252603e815260200180612e8f603e913960400191505060405180910390fd5b8582608001511115611a4a576080820151611a40908763ffffffff612b8516565b6080830152611a52565b600060808301525b611a5c87836129f8565b50608001516001805595945050505050565b600060026001541415611ab6576040805162461bcd60e51b815260206004820152601f6024820152600080516020612e2a833981519152604482015290519081900360640190fd5b6002600181905554600160a01b900460ff1615611b0d576040805162461bcd60e51b815260206004820152601060248201526f14185d5cd8589b194e881c185d5cd95960821b604482015290519081900360640190fd5b600854604080516331a9108f60e11b81526004810186905290518592839233926001600160a01b0390921691636352211e916024808201926020929091908290030181600087803b158015611b6157600080fd5b505af1158015611b75573d6000803e3d6000fd5b505050506040513d6020811015611b8b57600080fd5b50516001600160a01b031614611bd25760405162461bcd60e51b81526004018080602001828103825260278152602001806132746027913960400191505060405180910390fd5b611bda612d9b565b611be386612662565b9050611bed612de7565b611bfb3083606001516127bb565b805190915060ff16611c3e5760405162461bcd60e51b815260040180806020018281038252603681526020018061323e6036913960400191505060405180910390fd5b6060820151611c94576040805162461bcd60e51b815260206004820152601e60248201527f4e504e433a43523a205265636f726420646f6573206e6f742065786973740000604482015290519081900360640190fd5b85611cd05760405162461bcd60e51b81526004018080602001828103825260258152602001806130c56025913960400191505060405180910390fd5b611cdd82602001516129b4565b60ff1615611d1c5760405162461bcd60e51b81526004018080602001828103825260358152602001806130636035913960400191505060405180910390fd5b611d298260200151612867565b60ff1615611d685760405162461bcd60e51b81526004018080602001828103825260268152602001806133b06026913960400191505060405180910390fd5b611d7582602001516128a6565b60ff1615611db45760405162461bcd60e51b815260040180806020018281038252604b8152602001806134ae604b913960600191505060405180910390fd5b858252611dc187836129f8565b50506001805550929392505050565b611dd86129b0565b6002546001600160a01b03908116911614611e28576040805162461bcd60e51b8152602060048201819052602482015260008051602061329b833981519152604482015290519081900360640190fd5b6002546040516000916001600160a01b0316907f8be0079c531659141344cd1fd0a4f28419497f9722a3daafe3b4186f6b6457e0908390a3600280546001600160a01b0319169055565b600060026001541415611eba576040805162461bcd60e51b815260206004820152601f6024820152600080516020612e2a833981519152604482015290519081900360640190fd5b6002600181905554600160a01b900460ff1615611f11576040805162461bcd60e51b815260206004820152601060248201526f14185d5cd8589b194e881c185d5cd95960821b604482015290519081900360640190fd5b600854604080516331a9108f60e11b81526004810186905290518592839233926001600160a01b0390921691636352211e916024808201926020929091908290030181600087803b158015611f6557600080fd5b505af1158015611f79573d6000803e3d6000fd5b505050506040513d6020811015611f8f57600080fd5b50516001600160a01b031614611fd65760405162461bcd60e51b81526004018080602001828103825260278152602001806132746027913960400191505060405180910390fd5b611fde612d9b565b611fe786612662565b9050611ff1612de7565b611fff3083606001516127bb565b805190915060ff166120425760405162461bcd60e51b81526004018080602001828103825260378152602001806133d66037913960400191505060405180910390fd5b6060820151612098576040805162461bcd60e51b815260206004820152601f60248201527f4e504e433a534c533a205265636f726420646f6573206e6f7420657869737400604482015290519081900360640190fd5b6120a1866129b4565b60ff1660aa146120e25760405162461bcd60e51b815260040180806020018281038252602d815260200180613098602d913960400191505060405180910390fd5b60318660ff161180156120fc57506031826020015160ff16115b6121375760405162461bcd60e51b815260040180806020018281038252603f815260200180612f7b603f913960400191505060405180910390fd5b61214482602001516128a6565b60ff16156121835760405162461bcd60e51b8152600401808060200182810382526051815260200180612f2a6051913960600191505060405180910390fd5b816020015160ff16603214156121ca5760405162461bcd60e51b81526004018080602001828103825260408152602001806131fe6040913960400191505060405180910390fd5b60ff8616602083018190526004805460408051637911aa5360e11b81529283018b9052602483019390935291516001600160a01b039092169163f22354a69160448082019260009290919082900301818387803b15801561222a57600080fd5b505af115801561223e573d6000803e3d6000fd5b50505060209092015160018055979650505050505050565b6002546001600160a01b031690565b61226d6129b0565b6002546001600160a01b039081169116146122bd576040805162461bcd60e51b8152602060048201819052602482015260008051602061329b833981519152604482015290519081900360640190fd5b6122c5612bce565b565b6122cf6129b0565b6002546001600160a01b0390811691161461231f576040805162461bcd60e51b8152602060048201819052602482015260008051602061329b833981519152604482015290519081900360640190fd5b60026001541415612365576040805162461bcd60e51b815260206004820152601f6024820152600080516020612e2a833981519152604482015290519081900360640190fd5b6002600155600a5460408051632142170760e11b81523060048201526001600160a01b038581166024830152604482018590529151849392909216916342842e0e9160648082019260009290919082900301818387803b158015610a3c57600080fd5b6123d06129b0565b6002546001600160a01b03908116911614612420576040805162461bcd60e51b8152602060048201819052602482015260008051602061329b833981519152604482015290519081900360640190fd5b6122c5612c76565b6124306129b0565b6002546001600160a01b03908116911614612480576040805162461bcd60e51b8152602060048201819052602482015260008051602061329b833981519152604482015290519081900360640190fd5b6001600160a01b0381166124c55760405162461bcd60e51b8152600401808060200182810382526025815260200180612fe16025913960400191505060405180910390fd5b600480546001600160a01b0319166001600160a01b0392909216919091179055565b60008054604080516371d4ed8d60e11b81526001600160a01b0385811660048301529151919092169163e3a9db1a916024808301926020929190829003018186803b15801561253557600080fd5b505afa158015612549573d6000803e3d6000fd5b505050506040513d602081101561255f57600080fd5b505190505b919050565b6125716129b0565b6002546001600160a01b039081169116146125c1576040805162461bcd60e51b8152602060048201819052602482015260008051602061329b833981519152604482015290519081900360640190fd5b6001600160a01b0381166126065760405162461bcd60e51b8152600401808060200182810382526026815260200180612f046026913960400191505060405180910390fd5b6002546040516001600160a01b038084169216907f8be0079c531659141344cd1fd0a4f28419497f9722a3daafe3b4186f6b6457e090600090a3600280546001600160a01b0319166001600160a01b0392909216919091179055565b61266a612d9b565b612672612d9b565b6000806000806000806000600460009054906101000a90046001600160a01b03166001600160a01b031663e248f2c48b6040518263ffffffff1660e01b81526004018082815260200191505060e060405180830381600087803b1580156126d857600080fd5b505af11580156126ec573d6000803e3d6000fd5b505050506040513d60e081101561270257600080fd5b810190808051906020019092919080519060200190929190805190602001909291908051906020019092919080519060200190929190805190602001909291908051906020019092919050505096509650965096509650965096508688600001818152505085886020019060ff16908160ff16815250508488606001818152505083886080018181525050828860a0018181525050818860c0018181525050808860e00181815250505050505050505080915050919050565b6127c3612de7565b6127cb612de7565b600480546040805163caa496a960e01b81526001600160a01b0388811694820194909452602481018790528151939092169263caa496a99260448082019392918290030181600087803b15801561282157600080fd5b505af1158015612835573d6000803e3d6000fd5b505050506040513d604081101561284b57600080fd5b5080516020918201519183019190915260ff1681529392505050565b60008160ff1660061415801561288157508160ff16603214155b801561289157508160ff16603814155b1561289e57506000612564565b5060aa612564565b60008160ff166005141580156128c057508160ff16603714155b80156128d057508160ff16604614155b801561289157508160ff16603c1461289e57506000612564565b600254600160a01b900460ff161561293c576040805162461bcd60e51b815260206004820152601060248201526f14185d5cd8589b194e881c185d5cd95960821b604482015290519081900360640190fd5b6004805460c0830151604080516310b3712960e21b81529384018690526024840191909152516001600160a01b03909116916342cdc4a491604480830192600092919082900301818387803b15801561299457600080fd5b505af11580156129a8573d6000803e3d6000fd5b505050505050565b3390565b60008160ff166003141580156129ce57508160ff16600414155b80156129de57508160ff16603514155b801561289157508160ff1660361461289e57506000612564565b600254600160a01b900460ff1615612a4a576040805162461bcd60e51b815260206004820152601060248201526f14185d5cd8589b194e881c185d5cd95960821b604482015290519081900360640190fd5b60048054825160208401516080850151604080870151610100880151825163161e630160e11b81529788018a9052602488019590955260ff90931660448701526064860191909152608485019190915260a4840191909152516001600160a01b0390911691632c3cc6029160c480830192600092919082900301818387803b15801561299457600080fd5b612add612dfe565b612ae5612dfe565b60065460408051637e61b76f60e01b81526004810186905290516001600160a01b0390921691637e61b76f916024808201926060929091908290030181600087803b158015612b3357600080fd5b505af1158015612b47573d6000803e3d6000fd5b505050506040513d6060811015612b5d57600080fd5b508051602080830151604093840151606086015260ff16928401929092529082015292915050565b6000612bc783836040518060400160405280601e81526020017f536166654d6174683a207375627472616374696f6e206f766572666c6f770000815250612d04565b9392505050565b600254600160a01b900460ff16612c23576040805162461bcd60e51b815260206004820152601460248201527314185d5cd8589b194e881b9bdd081c185d5cd95960621b604482015290519081900360640190fd5b6002805460ff60a01b191690557f5db9ee0a495bf2e6ff9c91a7834c1ba4fdd244a5e8aa4e537bd38aeae4b073aa612c596129b0565b604080516001600160a01b039092168252519081900360200190a1565b600254600160a01b900460ff1615612cc8576040805162461bcd60e51b815260206004820152601060248201526f14185d5cd8589b194e881c185d5cd95960821b604482015290519081900360640190fd5b6002805460ff60a01b1916600160a01b1790557f62e78cea01bee320cd4e420270b5ea74000d11b0c9f74754ebdbfc544b05a258612c596129b0565b60008184841115612d935760405162461bcd60e51b81526004018080602001828103825283818151815260200191508051906020019080838360005b83811015612d58578181015183820152602001612d40565b50505050905090810190601f168015612d855780820380516001836020036101000a031916815260200191505b509250505060405180910390fd5b505050900390565b6040805161012081018252600080825260208201819052918101829052606081018290526080810182905260a0810182905260c0810182905260e0810182905261010081019190915290565b604080518082019091526000808252602082015290565b60405180608001604052806060815260200160008152602001600060ff16815260200160008152509056fe5265656e7472616e637947756172643a207265656e7472616e742063616c6c004e504e433a4d533a20417373657420697320696e20616e6e20756e726567697374657265642c206578706f727465642c206f7220646973636172646564207374617475732e4e504e433a44433a205265636f726420696e20756e726567697374657265642c206578706f727465642c206f7220646973636172646564207374617475734e504e433a4d49313a205468697320636f6e7472616374206e6f7420617574686f72697a656420666f72207370656369666965642041434f776e61626c653a206e6577206f776e657220697320746865207a65726f20616464726573734e504e433a534c533a205472616e736665727265642c6578706f727465642c6f72206469736361726465642061737365742063616e6e6f742062652073657420746f206c6f7374206f722073746f6c656e4e504e433a534c533a204f6e6c7920637573746f6469616c2075736572747970652063616e20736574206f72206368616e676520737461747573203c2035304e504e433a4d49313a2043616e6e6f74206d6f6469667920617373657420696e20457363726f77423a5353433a2073746f7261676520616464726573732063616e6e6f74206265207a65726f50423a54583a496e76616c69642063616c6c657220666f72207472616e7366657220746f6b656e4e504e433a45583a205468697320636f6e7472616374206e6f7420617574686f72697a656420666f72207370656369666965642041434e504e433a43523a2043616e6e6f74206d6f6469667920617373657420696e206c6f7374206f722073746f6c656e207374617475734e504e433a534c533a204d7573742073657420746f2061206c6f7374206f722073746f6c656e207374617475734e504e433a43523a2072696768747320686f6c6465722063616e6e6f74206265207a65726f4e504e433a4d49313a205265636f726420696e20756e726567697374657265642c206578706f727465642c206f7220646973636172646564207374617475734e504e433a4d533a2043616e6e6f7420706c61636520617373657420696e206c6f7374206f722073746f6c656e20737461747573207573696e67206d6f645374617475734e504e433a4d533a20537065636966696564205374617475732069732072657365727665642e4e504e433a4d533a2043616e6e6f7420706c61636520617373657420696e20457363726f77207573696e67206d6f645374617475734e504e433a4d533a205468697320636f6e7472616374206e6f7420617574686f72697a656420666f72207370656369666965642041434e504e433a534c533a20417373657420696e206c6f636b656420657363726f772063616e6e6f742062652073657420746f206c6f7374206f722073746f6c656e4e504e433a43523a205468697320636f6e7472616374206e6f7420617574686f72697a656420666f72207370656369666965642041434e504e433a4d4f442d49413a2043616c6c657220646f6573206e6f7420686f6c6420746f6b656e4f776e61626c653a2063616c6c6572206973206e6f7420746865206f776e65724e504e433a45583a204d75737420626520696e207472616e736665727261626c652073746174757320283531294e504e433a4d533a2043616e6e6f74206368616e676520737461747573206f6620617373657420696e20457363726f7720756e74696c20657363726f7720697320657870697265644e504e433a44433a2043616e6e6f74206d6f6469667920617373657420696e20457363726f774e504e433a4d533a2043616e6e6f7420706c61636520617373657420696e20756e726567697374657265642c206578706f727465642c206f722064697363617264656420737461747573207573696e67206d6f645374617475734e504e433a43523a2043616e6e6f74206d6f6469667920617373657420696e20457363726f774e504e433a534c533a205468697320636f6e7472616374206e6f7420617574686f72697a656420666f72207370656369666965642041434e504e433a44433a205468697320636f6e7472616374206e6f7420617574686f72697a656420666f72207370656369666965642041434e504e433a4d533a204f6e6c7920637573746f6469616c2075736572747970652063616e206368616e676520737461747573203c2035304e504e433a4d533a204f6e6c7920637573746f6469616c2075736572747970652063616e2073657420737461747573203c2035304e504e433a43523a2043616e6e6f74206d6f6469667920617373657420696e20756e726567697374657265642c206578706f727465642c206f722064697363617264656420737461747573a264697066735822122079305ee39cc99241cd72294adef23c18c9dae34afffb783a0616570af66d371664736f6c63430006090033608060405234801561001057600080fd5b5060006100246001600160e01b0361007316565b600080546001600160a01b0319166001600160a01b0383169081178255604051929350917f8be0079c531659141344cd1fd0a4f28419497f9722a3daafe3b4186f6b6457e0908290a350610077565b3390565b6106de806100866000396000f3fe6080604052600436106100555760003560e01c806351cff8d91461005a578063715018a61461008f5780638da5cb5b146100a4578063e3a9db1a146100d5578063f2fde38b1461011a578063f340fa011461014d575b600080fd5b34801561006657600080fd5b5061008d6004803603602081101561007d57600080fd5b50356001600160a01b0316610173565b005b34801561009b57600080fd5b5061008d61023c565b3480156100b057600080fd5b506100b96102de565b604080516001600160a01b039092168252519081900360200190f35b3480156100e157600080fd5b50610108600480360360208110156100f857600080fd5b50356001600160a01b03166102ed565b60408051918252519081900360200190f35b34801561012657600080fd5b5061008d6004803603602081101561013d57600080fd5b50356001600160a01b0316610308565b61008d6004803603602081101561016357600080fd5b50356001600160a01b0316610400565b61017b6104d9565b6000546001600160a01b039081169116146101cb576040805162461bcd60e51b81526020600482018190526024820152600080516020610689833981519152604482015290519081900360640190fd5b6001600160a01b03811660008181526001602052604081208054919055906101f9908263ffffffff6104dd16565b6040805182815290516001600160a01b038416917f7084f5476618d8e60b11ef0d7d3f06914655adb8793e28ff7f018d4c76d505d5919081900360200190a25050565b6102446104d9565b6000546001600160a01b03908116911614610294576040805162461bcd60e51b81526020600482018190526024820152600080516020610689833981519152604482015290519081900360640190fd5b600080546040516001600160a01b03909116907f8be0079c531659141344cd1fd0a4f28419497f9722a3daafe3b4186f6b6457e0908390a3600080546001600160a01b0319169055565b6000546001600160a01b031690565b6001600160a01b031660009081526001602052604090205490565b6103106104d9565b6000546001600160a01b03908116911614610360576040805162461bcd60e51b81526020600482018190526024820152600080516020610689833981519152604482015290519081900360640190fd5b6001600160a01b0381166103a55760405162461bcd60e51b81526004018080602001828103825260268152602001806106296026913960400191505060405180910390fd5b600080546040516001600160a01b03808516939216917f8be0079c531659141344cd1fd0a4f28419497f9722a3daafe3b4186f6b6457e091a3600080546001600160a01b0319166001600160a01b0392909216919091179055565b6104086104d9565b6000546001600160a01b03908116911614610458576040805162461bcd60e51b81526020600482018190526024820152600080516020610689833981519152604482015290519081900360640190fd5b6001600160a01b0381166000908152600160205260409020543490610483908263ffffffff6105c716565b6001600160a01b038316600081815260016020908152604091829020939093558051848152905191927f2da466a7b24304f47e87fa2e1e5a81b9831ce54fec19055ce277ca2f39ba42c492918290030190a25050565b3390565b80471015610532576040805162461bcd60e51b815260206004820152601d60248201527f416464726573733a20696e73756666696369656e742062616c616e6365000000604482015290519081900360640190fd5b6040516000906001600160a01b0384169083908381818185875af1925050503d806000811461057d576040519150601f19603f3d011682016040523d82523d6000602084013e610582565b606091505b50509050806105c25760405162461bcd60e51b815260040180806020018281038252603a81526020018061064f603a913960400191505060405180910390fd5b505050565b600082820183811015610621576040805162461bcd60e51b815260206004820152601b60248201527f536166654d6174683a206164646974696f6e206f766572666c6f770000000000604482015290519081900360640190fd5b939250505056fe4f776e61626c653a206e6577206f776e657220697320746865207a65726f2061646472657373416464726573733a20756e61626c6520746f2073656e642076616c75652c20726563697069656e74206d617920686176652072657665727465644f776e61626c653a2063616c6c6572206973206e6f7420746865206f776e6572a2646970667358221220a00d6aa6d96b7e14cf44ef151b801d41a0d6f22be9568d55aded0e5dc41900ac64736f6c63430006090033",
  "source": "/*-----------------------------------------------------------V0.6.8\r\n__/\\\\\\\\\\\\\\\\\\\\\\\\\\ _____/\\\\\\\\\\\\\\\\\\ _______/\\\\../\\\\ ___/\\\\\\\\\\\\\\\\\\\\\\\\\\\\\\\r\n _\\/\\\\\\/////////\\\\\\ _/\\\\\\///////\\\\\\ ____\\//..\\//____\\/\\\\\\///////////__\r\n  _\\/\\\\\\.......\\/\\\\\\.\\/\\\\\\.....\\/\\\\\\ ________________\\/\\\\\\ ____________\r\n   _\\/\\\\\\\\\\\\\\\\\\\\\\\\\\/__\\/\\\\\\\\\\\\\\\\\\\\\\/_____/\\\\\\____/\\\\\\.\\/\\\\\\\\\\\\\\\\\\\\\\ ____\r\n    _\\/\\\\\\/////////____\\/\\\\\\//////\\\\\\ ___\\/\\\\\\___\\/\\\\\\.\\/\\\\\\///////______\r\n     _\\/\\\\\\ ____________\\/\\\\\\ ___\\//\\\\\\ __\\/\\\\\\___\\/\\\\\\.\\/\\\\\\ ____________\r\n      _\\/\\\\\\ ____________\\/\\\\\\ ____\\//\\\\\\ _\\/\\\\\\___\\/\\\\\\.\\/\\\\\\ ____________\r\n       _\\/\\\\\\ ____________\\/\\\\\\ _____\\//\\\\\\.\\//\\\\\\\\\\\\\\\\\\ _\\/\\\\\\ ____________\r\n        _\\/// _____________\\/// _______\\/// __\\///////// __\\/// _____________\r\n         *-------------------------------------------------------------------*/\r\n\r\n/*-----------------------------------------------------------------\r\n *  TO DO\r\n *\r\n *---------------------------------------------------------------*/\r\n\r\n// SPDX-License-Identifier: UNLICENSED\r\npragma solidity ^0.6.7;\r\n\r\nimport \"./PRUF_CORE.sol\";\r\n\r\ncontract NP_NC is CORE {\r\n    using SafeMath for uint256;\r\n\r\n    /*\r\n     * @dev Verify user credentials\r\n     * Originating Address:\r\n     *      holds asset token at idxHash\r\n     */\r\n\r\n    modifier isAuthorized(bytes32 _idxHash) override {\r\n        uint256 tokenId = uint256(_idxHash);\r\n        require(\r\n            (A_TKN.ownerOf(tokenId) == msg.sender), //msg.sender is token holder\r\n            \"NPNC:MOD-IA: Caller does not hold token\"\r\n        );\r\n        _;\r\n    }\r\n\r\n    //--------------------------------------------External Functions--------------------------\r\n\r\n    /*\r\n     * @dev Modify rgtHash (like forceModify)\r\n     * must be tokenholder or A_TKN\r\n     *\r\n     */\r\n    function _changeRgt(bytes32 _idxHash, bytes32 _newRgtHash)\r\n        external\r\n        nonReentrant\r\n        whenNotPaused\r\n        isAuthorized(_idxHash)\r\n        returns (bytes32)\r\n    {\r\n        Record memory rec = getRecord(_idxHash);\r\n        ContractDataHash memory contractInfo = getContractInfo(\r\n            address(this),\r\n            rec.assetClass\r\n        );\r\n\r\n        require(\r\n            contractInfo.contractType > 0,\r\n            \"NPNC:CR: This contract not authorized for specified AC\"\r\n        );\r\n        require((rec.assetClass != 0), \"NPNC:CR: Record does not exist\");\r\n        require(_newRgtHash != 0, \"NPNC:CR: rights holder cannot be zero\");\r\n        require(\r\n            isLostOrStolen(rec.assetStatus) == 0,\r\n            \"NPNC:CR: Cannot modify asset in lost or stolen status\"\r\n        );\r\n        require(\r\n            isEscrow(rec.assetStatus) == 0,\r\n            \"NPNC:CR: Cannot modify asset in Escrow\"\r\n        );\r\n        require(\r\n            needsImport(rec.assetStatus) == 0,\r\n            \"NPNC:CR: Cannot modify asset in unregistered, exported, or discarded status\"\r\n        );\r\n        //^^^^^^^checks^^^^^^^^^\r\n\r\n        rec.rightsHolder = _newRgtHash;\r\n        //^^^^^^^effects^^^^^^^^^\r\n\r\n        writeRecord(_idxHash, rec);\r\n\r\n        return _idxHash;\r\n        //^^^^^^^interactions^^^^^^^^^\r\n    }\r\n\r\n    /*\r\n     *     @dev Export FROM nonCustodial - sets asset to status 70 (importable)\r\n     */\r\n    function _exportNC(bytes32 _idxHash)\r\n        external\r\n        whenNotPaused\r\n        isAuthorized(_idxHash)\r\n    {\r\n        Record memory rec = getRecord(_idxHash);\r\n        ContractDataHash memory contractInfo = getContractInfo(\r\n            address(this),\r\n            rec.assetClass\r\n        );\r\n        AC memory AC_info = getACinfo(rec.assetClass);\r\n\r\n        require(\r\n            rec.assetStatus == 51,\r\n            \"NPNC:EX: Must be in transferrable status (51)\"\r\n        );\r\n\r\n        require(\r\n            contractInfo.contractType > 0,\r\n            \"NPNC:EX: This contract not authorized for specified AC\"\r\n        );\r\n\r\n        rec.assetStatus = 70; // Set status to 70 (exported)\r\n        writeRecord(_idxHash, rec);\r\n        STOR.changeAC(_idxHash, AC_info.assetClassRoot); //set assetClass to the root AC of the assetClass\r\n    }\r\n\r\n    /*\r\n     * @dev Modify **Record**.assetStatus with confirmation required\r\n     */\r\n    function _modStatus(bytes32 _idxHash, uint8 _newAssetStatus)\r\n        public\r\n        nonReentrant\r\n        whenNotPaused\r\n        isAuthorized(_idxHash)\r\n        returns (uint8)\r\n    {\r\n        Record memory rec = getRecord(_idxHash);\r\n        ContractDataHash memory contractInfo = getContractInfo(\r\n            address(this),\r\n            rec.assetClass\r\n        );\r\n\r\n        require(\r\n            contractInfo.contractType > 0,\r\n            \"NPNC:MS: This contract not authorized for specified AC\"\r\n        );\r\n        require((rec.assetClass != 0), \"NPNC:MS: Record does not exist\");\r\n        require(\r\n            isLostOrStolen(_newAssetStatus) == 0,\r\n            \"NPNC:MS: Cannot place asset in lost or stolen status using modStatus\"\r\n        );\r\n        require(\r\n            isEscrow(_newAssetStatus) == 0,\r\n            \"NPNC:MS: Cannot place asset in Escrow using modStatus\"\r\n        );\r\n        require(\r\n            needsImport(_newAssetStatus) == 0,\r\n            \"NPNC:MS: Cannot place asset in unregistered, exported, or discarded status using modStatus\"\r\n        );\r\n        require(\r\n            (_newAssetStatus < 100) &&\r\n                (_newAssetStatus != 7) &&\r\n                (_newAssetStatus != 57) &&\r\n                (_newAssetStatus != 58),\r\n            \"NPNC:MS: Specified Status is reserved.\"\r\n        );\r\n        require(\r\n            (_newAssetStatus > 49),\r\n            \"NPNC:MS: Only custodial usertype can set status < 50\"\r\n        );\r\n        require(\r\n            (rec.assetStatus > 49),\r\n            \"NPNC:MS: Only custodial usertype can change status < 50\"\r\n        );\r\n        require(\r\n            isEscrow(rec.assetStatus) == 0,\r\n            \"NPNC:MS: Cannot change status of asset in Escrow until escrow is expired\"\r\n        );\r\n        require(\r\n            needsImport(rec.assetStatus) == 0,\r\n            \"NPNC:MS: Asset is in ann unregistered, exported, or discarded status.\"\r\n        );\r\n        //^^^^^^^checks^^^^^^^^^\r\n\r\n        rec.assetStatus = _newAssetStatus;\r\n        //^^^^^^^effects^^^^^^^^^\r\n\r\n        writeRecord(_idxHash, rec);\r\n\r\n        return rec.assetStatus;\r\n        //^^^^^^^interactions^^^^^^^^^\r\n    }\r\n\r\n    /*\r\n     * @dev set **Record**.assetStatus to lost or stolen, with confirmation required.\r\n     */\r\n    function _setLostOrStolen(bytes32 _idxHash, uint8 _newAssetStatus)\r\n        external\r\n        nonReentrant\r\n        whenNotPaused\r\n        isAuthorized(_idxHash)\r\n        returns (uint8)\r\n    {\r\n        Record memory rec = getRecord(_idxHash);\r\n        ContractDataHash memory contractInfo = getContractInfo(\r\n            address(this),\r\n            rec.assetClass\r\n        );\r\n\r\n        require(\r\n            contractInfo.contractType > 0,\r\n            \"NPNC:SLS: This contract not authorized for specified AC\"\r\n        );\r\n        require((rec.assetClass != 0), \"NPNC:SLS: Record does not exist\");\r\n        require(\r\n            isLostOrStolen(_newAssetStatus) == 170,\r\n            \"NPNC:SLS: Must set to a lost or stolen status\"\r\n        );\r\n        require(\r\n            (_newAssetStatus > 49) && (rec.assetStatus > 49),\r\n            \"NPNC:SLS: Only custodial usertype can set or change status < 50\"\r\n        );\r\n        require(\r\n            needsImport(rec.assetStatus) == 0,\r\n            \"NPNC:SLS: Transferred,exported,or discarded asset cannot be set to lost or stolen\"\r\n        );\r\n        require(\r\n            (rec.assetStatus != 50),\r\n            \"NPNC:SLS: Asset in locked escrow cannot be set to lost or stolen\"\r\n        );\r\n\r\n        //^^^^^^^checks^^^^^^^^^\r\n        rec.assetStatus = _newAssetStatus;\r\n        //bytes32 userHash = keccak256(abi.encodePacked(msg.sender));\r\n        //^^^^^^^effects^^^^^^^^^\r\n\r\n        STOR.setStolenOrLost(_idxHash, rec.assetStatus);\r\n\r\n        return rec.assetStatus;\r\n        //^^^^^^^interactions^^^^^^^^^\r\n    }\r\n\r\n    /*\r\n     * @dev Decrement **Record**.countdown with confirmation required\r\n     */\r\n    function _decCounter(bytes32 _idxHash, uint256 _decAmount)\r\n        external\r\n        nonReentrant\r\n        whenNotPaused\r\n        isAuthorized(_idxHash)\r\n        returns (uint256)\r\n    {\r\n        Record memory rec = getRecord(_idxHash);\r\n        ContractDataHash memory contractInfo = getContractInfo(\r\n            address(this),\r\n            rec.assetClass\r\n        );\r\n\r\n        require(\r\n            contractInfo.contractType > 0,\r\n            \"NPNC:DC: This contract not authorized for specified AC\"\r\n        );\r\n        //require(_decAmount > 0, \"NPNC:DC: cannot decrement by negative number\");  //not possible, uint\r\n        //require((rec.assetClass != 0), \"NPNC:DC: Record does not exist\"); //verified in storage\r\n        require(\r\n            isEscrow(rec.assetStatus) == 0,\r\n            \"NPNC:DC: Cannot modify asset in Escrow\"\r\n        );\r\n        require(\r\n            needsImport(rec.assetStatus) == 0,\r\n            \"NPNC:DC: Record in unregistered, exported, or discarded status\"\r\n        );\r\n        //^^^^^^^checks^^^^^^^^^\r\n\r\n        if (rec.countDown > _decAmount) {\r\n            rec.countDown = rec.countDown.sub(_decAmount);\r\n        } else {\r\n            rec.countDown = 0;\r\n        }\r\n        //^^^^^^^effects^^^^^^^^^\r\n\r\n        writeRecord(_idxHash, rec);\r\n        return (rec.countDown);\r\n        //^^^^^^^interactions^^^^^^^^^\r\n    }\r\n\r\n    /*\r\n     * @dev Modify **Record**.Ipfs1 with confirmation\r\n     */\r\n    function _modIpfs1(bytes32 _idxHash, bytes32 _IpfsHash)\r\n        external\r\n        nonReentrant\r\n        whenNotPaused\r\n        isAuthorized(_idxHash)\r\n        returns (bytes32)\r\n    {\r\n        Record memory rec = getRecord(_idxHash);\r\n        ContractDataHash memory contractInfo = getContractInfo(\r\n            address(this),\r\n            rec.assetClass\r\n        );\r\n\r\n        require(\r\n            contractInfo.contractType > 0,\r\n            \"NPNC:MI1: This contract not authorized for specified AC\"\r\n        );\r\n        require((rec.assetClass != 0), \"NPNC:MI1: Record does not exist\");\r\n        require(rec.Ipfs1 != _IpfsHash, \"NPNC:MI1: New data same as old\");\r\n        require(\r\n            isEscrow(rec.assetStatus) == 0,\r\n            \"NPNC:MI1: Cannot modify asset in Escrow\"\r\n        );\r\n        require(\r\n            needsImport(rec.assetStatus) == 0,\r\n            \"NPNC:MI1: Record in unregistered, exported, or discarded status\"\r\n        );\r\n        //^^^^^^^checks^^^^^^^^^\r\n\r\n        rec.Ipfs1 = _IpfsHash;\r\n        //^^^^^^^effects^^^^^^^^^\r\n\r\n        writeRecordIpfs1(_idxHash, rec);\r\n\r\n        return rec.Ipfs1;\r\n        //^^^^^^^interactions^^^^^^^^^\r\n    }\r\n}\r\n",
  "sourcePath": "C:\\Users\\Blayde\\Documents\\ETHDEV\\bulletproof\\PRUF_TRUFFLE\\contracts\\PRUF_NP_NC.sol",
  "compiler": {
    "name": "solc",
    "version": "0.6.9+commit.3e3065ac.Emscripten.clang"
  },
  "schemaVersion": "3.0.23",
  "updatedAt": "2020-08-20T17:17:06.367Z",
  "devdoc": {
    "methods": {
      "OO_pause()": {
        "details": "Triggers stopped state."
      },
      "OO_unpause()": {
        "details": "Returns to normal state."
      },
      "owner()": {
        "details": "Returns the address of the current owner."
      },
      "paused()": {
        "details": "Returns true if the contract is paused, and false otherwise."
      },
      "payments(address)": {
        "details": "Returns the payments owed to an address.",
        "params": {
          "dest": "The creditor's address."
        }
      },
      "renounceOwnership()": {
        "details": "Leaves the contract without owner. It will not be possible to call `onlyOwner` functions anymore. Can only be called by the current owner. NOTE: Renouncing ownership will leave the contract without an owner, thereby removing any functionality that is only available to the owner."
      },
      "transferOwnership(address)": {
        "details": "Transfers ownership of the contract to a new account (`newOwner`). Can only be called by the current owner."
      },
      "withdrawPayments(address)": {
        "details": "Withdraw accumulated payments, forwarding all gas to the recipient. Note that _any_ account can call this function, not just the `payee`. This means that contracts unaware of the `PullPayment` protocol can still receive funds this way, by having a separate account call {withdrawPayments}. WARNING: Forwarding all gas opens the door to reentrancy vulnerabilities. Make sure you trust the recipient, or are either following the checks-effects-interactions pattern or using {ReentrancyGuard}.",
        "params": {
          "payee": "Whose payments will be withdrawn."
        }
      }
    }
  },
  "userdoc": {
    "methods": {}
  }
}