{
  "contractName": "PIP",
  "abi": [
    {
      "anonymous": false,
      "inputs": [
        {
          "indexed": false,
          "internalType": "address",
          "name": "account",
          "type": "address"
        }
      ],
      "name": "Paused",
      "type": "event"
    },
    {
      "anonymous": false,
      "inputs": [
        {
          "indexed": false,
          "internalType": "string",
          "name": "_msg",
          "type": "string"
        }
      ],
      "name": "REPORT",
      "type": "event"
    },
    {
      "anonymous": false,
      "inputs": [
        {
          "indexed": true,
          "internalType": "bytes32",
          "name": "role",
          "type": "bytes32"
        },
        {
          "indexed": true,
          "internalType": "bytes32",
          "name": "previousAdminRole",
          "type": "bytes32"
        },
        {
          "indexed": true,
          "internalType": "bytes32",
          "name": "newAdminRole",
          "type": "bytes32"
        }
      ],
      "name": "RoleAdminChanged",
      "type": "event"
    },
    {
      "anonymous": false,
      "inputs": [
        {
          "indexed": true,
          "internalType": "bytes32",
          "name": "role",
          "type": "bytes32"
        },
        {
          "indexed": true,
          "internalType": "address",
          "name": "account",
          "type": "address"
        },
        {
          "indexed": true,
          "internalType": "address",
          "name": "sender",
          "type": "address"
        }
      ],
      "name": "RoleGranted",
      "type": "event"
    },
    {
      "anonymous": false,
      "inputs": [
        {
          "indexed": true,
          "internalType": "bytes32",
          "name": "role",
          "type": "bytes32"
        },
        {
          "indexed": true,
          "internalType": "address",
          "name": "account",
          "type": "address"
        },
        {
          "indexed": true,
          "internalType": "address",
          "name": "sender",
          "type": "address"
        }
      ],
      "name": "RoleRevoked",
      "type": "event"
    },
    {
      "anonymous": false,
      "inputs": [
        {
          "indexed": false,
          "internalType": "address",
          "name": "account",
          "type": "address"
        }
      ],
      "name": "Unpaused",
      "type": "event"
    },
    {
      "inputs": [],
      "name": "ASSET_TXFR_ROLE",
      "outputs": [
        {
          "internalType": "bytes32",
          "name": "",
          "type": "bytes32"
        }
      ],
      "stateMutability": "view",
      "type": "function"
    },
    {
      "inputs": [],
      "name": "CONTRACT_ADMIN_ROLE",
      "outputs": [
        {
          "internalType": "bytes32",
          "name": "",
          "type": "bytes32"
        }
      ],
      "stateMutability": "view",
      "type": "function"
    },
    {
      "inputs": [],
      "name": "DAO_ROLE",
      "outputs": [
        {
          "internalType": "bytes32",
          "name": "",
          "type": "bytes32"
        }
      ],
      "stateMutability": "view",
      "type": "function"
    },
    {
      "inputs": [],
      "name": "DEFAULT_ADMIN_ROLE",
      "outputs": [
        {
          "internalType": "bytes32",
          "name": "",
          "type": "bytes32"
        }
      ],
      "stateMutability": "view",
      "type": "function"
    },
    {
      "inputs": [
        {
          "internalType": "address",
          "name": "_tokenContract",
          "type": "address"
        },
        {
          "internalType": "address",
          "name": "_to",
          "type": "address"
        },
        {
          "internalType": "uint256",
          "name": "_amount",
          "type": "uint256"
        }
      ],
      "name": "ERC20Transfer",
      "outputs": [],
      "stateMutability": "nonpayable",
      "type": "function"
    },
    {
      "inputs": [
        {
          "internalType": "address",
          "name": "_tokenContract",
          "type": "address"
        },
        {
          "internalType": "address",
          "name": "_to",
          "type": "address"
        },
        {
          "internalType": "uint256",
          "name": "_tokenID",
          "type": "uint256"
        }
      ],
      "name": "ERC721Transfer",
      "outputs": [],
      "stateMutability": "nonpayable",
      "type": "function"
    },
    {
      "inputs": [],
      "name": "PAUSER_ROLE",
      "outputs": [
        {
          "internalType": "bytes32",
          "name": "",
          "type": "bytes32"
        }
      ],
      "stateMutability": "view",
      "type": "function"
    },
    {
      "inputs": [
        {
          "internalType": "bytes32",
          "name": "role",
          "type": "bytes32"
        }
      ],
      "name": "getRoleAdmin",
      "outputs": [
        {
          "internalType": "bytes32",
          "name": "",
          "type": "bytes32"
        }
      ],
      "stateMutability": "view",
      "type": "function"
    },
    {
      "inputs": [
        {
          "internalType": "bytes32",
          "name": "role",
          "type": "bytes32"
        },
        {
          "internalType": "address",
          "name": "account",
          "type": "address"
        }
      ],
      "name": "grantRole",
      "outputs": [],
      "stateMutability": "nonpayable",
      "type": "function"
    },
    {
      "inputs": [
        {
          "internalType": "bytes32",
          "name": "role",
          "type": "bytes32"
        },
        {
          "internalType": "address",
          "name": "account",
          "type": "address"
        }
      ],
      "name": "hasRole",
      "outputs": [
        {
          "internalType": "bool",
          "name": "",
          "type": "bool"
        }
      ],
      "stateMutability": "view",
      "type": "function"
    },
    {
      "inputs": [
        {
          "internalType": "address",
          "name": "",
          "type": "address"
        },
        {
          "internalType": "address",
          "name": "",
          "type": "address"
        },
        {
          "internalType": "uint256",
          "name": "",
          "type": "uint256"
        },
        {
          "internalType": "bytes",
          "name": "",
          "type": "bytes"
        }
      ],
      "name": "onERC721Received",
      "outputs": [
        {
          "internalType": "bytes4",
          "name": "",
          "type": "bytes4"
        }
      ],
      "stateMutability": "nonpayable",
      "type": "function"
    },
    {
      "inputs": [],
      "name": "pause",
      "outputs": [],
      "stateMutability": "nonpayable",
      "type": "function"
    },
    {
      "inputs": [],
      "name": "paused",
      "outputs": [
        {
          "internalType": "bool",
          "name": "",
          "type": "bool"
        }
      ],
      "stateMutability": "view",
      "type": "function"
    },
    {
      "inputs": [
        {
          "internalType": "bytes32",
          "name": "role",
          "type": "bytes32"
        },
        {
          "internalType": "address",
          "name": "account",
          "type": "address"
        }
      ],
      "name": "renounceRole",
      "outputs": [],
      "stateMutability": "nonpayable",
      "type": "function"
    },
    {
      "inputs": [],
      "name": "resolveContractAddresses",
      "outputs": [],
      "stateMutability": "nonpayable",
      "type": "function"
    },
    {
      "inputs": [
        {
          "internalType": "bytes32",
          "name": "role",
          "type": "bytes32"
        },
        {
          "internalType": "address",
          "name": "account",
          "type": "address"
        }
      ],
      "name": "revokeRole",
      "outputs": [],
      "stateMutability": "nonpayable",
      "type": "function"
    },
    {
      "inputs": [
        {
          "internalType": "address",
          "name": "_storageAddress",
          "type": "address"
        }
      ],
      "name": "setStorageContract",
      "outputs": [],
      "stateMutability": "nonpayable",
      "type": "function"
    },
    {
      "inputs": [
        {
          "internalType": "bytes4",
          "name": "interfaceId",
          "type": "bytes4"
        }
      ],
      "name": "supportsInterface",
      "outputs": [
        {
          "internalType": "bool",
          "name": "",
          "type": "bool"
        }
      ],
      "stateMutability": "view",
      "type": "function"
    },
    {
      "inputs": [],
      "name": "unpause",
      "outputs": [],
      "stateMutability": "nonpayable",
      "type": "function"
    },
    {
      "inputs": [
        {
          "internalType": "uint256",
          "name": "_importDiscount",
          "type": "uint256"
        }
      ],
      "name": "setImportDiscount",
      "outputs": [],
      "stateMutability": "nonpayable",
      "type": "function"
    },
    {
      "inputs": [
        {
          "internalType": "bytes32",
          "name": "_idxRaw",
          "type": "bytes32"
        },
        {
          "internalType": "bytes32",
          "name": "_hashedAuthCode",
          "type": "bytes32"
        },
        {
          "internalType": "uint32",
          "name": "_node",
          "type": "uint32"
        }
      ],
      "name": "mintPipAsset",
      "outputs": [],
      "stateMutability": "nonpayable",
      "type": "function"
    },
    {
      "inputs": [
        {
          "internalType": "bytes32",
          "name": "_idxHash",
          "type": "bytes32"
        },
        {
          "internalType": "bytes32",
          "name": "_rgtHash",
          "type": "bytes32"
        },
        {
          "internalType": "bytes32",
          "name": "_URIhash",
          "type": "bytes32"
        },
        {
          "internalType": "uint32",
          "name": "_newNode",
          "type": "uint32"
        },
        {
          "internalType": "uint32",
          "name": "_countDownStart",
          "type": "uint32"
        }
      ],
      "name": "claimPipAsset",
      "outputs": [],
      "stateMutability": "nonpayable",
      "type": "function"
    }
  ],
  "bytecode": "0x608060405260026017553480156200001657600080fd5b50600160009081556002805460ff1916905562000034903362000092565b620000607f2ce8d04a9c35987429af538825cd2438cc5c5bb5dc427955f84daaa3ea1050163362000092565b6200008c7f65d7a28e3265b37a6474929f336521b332c1681b933f6cb9f3376673440d862a3362000092565b6200012a565b6200009e8282620000a2565b5050565b60008281526001602090815260408083206001600160a01b038516845290915290205460ff166200009e5760008281526001602081815260408084206001600160a01b0386168086529252808420805460ff19169093179092559051339285917f2f8788117e7eff1d82e926ec794901d17c78024a50270940304540a733656f0d9190a45050565b612581806200013a6000396000f3fe608060405234801561001057600080fd5b50600436106101425760003560e01c806385a22ab2116100b8578063e59fdd361161007c578063e59fdd36146102bf578063e5f815dc146102d2578063e63ab1e9146102e5578063e9c265181461030c578063ee9c25c514610333578063f436c13d1461033b57600080fd5b806385a22ab21461026b57806391d148541461027e578063a217fddf14610291578063d547741f14610299578063dc38b0a2146102ac57600080fd5b80632f2ff15d1161010a5780632f2ff15d1461021557806336568abe1461022a5780633f4ba83a1461023d578063424ff81e146102455780635c975abb146102585780638456cb591461026357600080fd5b806301ffc9a7146101475780631429db5f1461016f578063150b7a02146101a45780631da03312146101dc578063248a9ca3146101f1575b600080fd5b61015a610155366004611fe2565b61034e565b60405190151581526020015b60405180910390f35b6101967f7f1e4e9f3d9ba0452a25cfef4cd4c6ffc86158d06ed2f585fa0093e12dec429c81565b604051908152602001610166565b6101c36101b2366004611e49565b630a85bd0160e11b95945050505050565b6040516001600160e01b03199091168152602001610166565b61019660008051602061252c83398151915281565b6101966101ff366004611f0a565b6000908152600160208190526040909120015490565b610228610223366004611f23565b610385565b005b610228610238366004611f23565b6103b1565b610228610434565b610228610253366004611f0a565b610484565b60025460ff1661015a565b6102286104d2565b610228610279366004611fa9565b610520565b61015a61028c366004611f23565b610878565b610196600081565b6102286102a7366004611f23565b6108a3565b6102286102ba366004611dce565b6108ca565b6102286102cd366004611e08565b61096b565b6102286102e0366004611e08565b610a6c565b6101967f65d7a28e3265b37a6474929f336521b332c1681b933f6cb9f3376673440d862a81565b6101967f3b5d4cc60d3ec3516ee8ae083bd60934f6eb2a6c54b1229985c41bfb092b260381565b610228610b4c565b610228610349366004611f53565b61121d565b60006001600160e01b03198216637965db0b60e01b148061037f57506301ffc9a760e01b6001600160e01b03198316145b92915050565b600082815260016020819052604090912001546103a28133611504565b6103ac8383611568565b505050565b6001600160a01b03811633146104265760405162461bcd60e51b815260206004820152602f60248201527f416363657373436f6e74726f6c3a2063616e206f6e6c792072656e6f756e636560448201526e103937b632b9903337b91039b2b63360891b60648201526084015b60405180910390fd5b61043082826115d3565b5050565b61045e7f65d7a28e3265b37a6474929f336521b332c1681b933f6cb9f3376673440d862a33610878565b61047a5760405162461bcd60e51b815260040161041d906122f5565b61048261163a565b565b61049c60008051602061252c83398151915233610878565b6104b85760405162461bcd60e51b815260040161041d9061226b565b60018110156104c957600160175550565b60178190555b50565b6104fc7f65d7a28e3265b37a6474929f336521b332c1681b933f6cb9f3376673440d862a33610878565b6105185760405162461bcd60e51b815260040161041d906122f5565b6104826116cd565b600260005414156105435760405162461bcd60e51b815260040161041d90612365565b600260005561055460025460ff1690565b156105715760405162461bcd60e51b815260040161041d9061233b565b6000838260405160200161059c92919091825260e01b6001600160e01b031916602082015260240190565b60408051601f19818403018152919052805160209091012090508060006105c282611725565b905060006105cf8561180b565b905033600d546040516331a9108f60e11b815263ffffffff881660048201526001600160a01b039283169290911690636352211e9060240160206040518083038186803b15801561061f57600080fd5b505afa158015610633573d6000803e3d6000fd5b505050506040513d601f19601f820116820180604052508101906106579190611deb565b6001600160a01b0316146106bc5760405162461bcd60e51b815260206004820152602660248201527f503a4d50413a2043616c6c657220646f6573206e6f7420686f6c64206e6f6465604482015265103a37b5b2b760d11b606482015260840161041d565b8060ff16600a146107255760405162461bcd60e51b815260206004820152602d60248201527f503a4d50413a2055736572206e6f7420617574686f72697a656420746f206d6960448201526c6e74205049502061737365747360981b606482015260840161041d565b606082015163ffffffff161561078f5760405162461bcd60e51b815260206004820152602960248201527f503a4d50413a20417373657420616c7265616479207265676973746572656420604482015268696e2073797374656d60b81b606482015260840161041d565b6060600087876040516020016107bc92919091825260e01b6001600160e01b031916602082015260240190565b6040516020818303038152906040528051906020012090506107e08160001c6118d1565b600b546040516354a19c2b60e01b81529193506001600160a01b0316906354a19c2b9061081590309089908790600401612228565b602060405180830381600087803b15801561082f57600080fd5b505af1158015610843573d6000803e3d6000fd5b505050506040513d601f19601f820116820180604052508101906108679190612153565b505060016000555050505050505050565b60009182526001602090815260408084206001600160a01b0393909316845291905290205460ff1690565b600082815260016020819052604090912001546108c08133611504565b6103ac83836115d3565b6108e260008051602061252c83398151915233610878565b6108fe5760405162461bcd60e51b815260040161041d9061226b565b6001600160a01b0381166109495760405162461bcd60e51b81526020600482015260126024820152710423a5353433a2041646472657373203d20360741b604482015260640161041d565b600380546001600160a01b0319166001600160a01b0392909216919091179055565b6109957f7f1e4e9f3d9ba0452a25cfef4cd4c6ffc86158d06ed2f585fa0093e12dec429c33610878565b6109b15760405162461bcd60e51b815260040161041d906122b2565b600260005414156109d45760405162461bcd60e51b815260040161041d90612365565b60026000556040516323b872dd60e01b81523060048201526001600160a01b038381166024830152604482018390528416906323b872dd90606401602060405180830381600087803b158015610a2957600080fd5b505af1158015610a3d573d6000803e3d6000fd5b505050506040513d601f19601f82011682018060405250810190610a619190611ee8565b505060016000555050565b610a967f7f1e4e9f3d9ba0452a25cfef4cd4c6ffc86158d06ed2f585fa0093e12dec429c33610878565b610ab25760405162461bcd60e51b815260040161041d906122b2565b60026000541415610ad55760405162461bcd60e51b815260040161041d90612365565b6002600055604051632142170760e11b81523060048201526001600160a01b038381166024830152604482018390528416906342842e0e90606401600060405180830381600087803b158015610b2a57600080fd5b505af1158015610b3e573d6000803e3d6000fd5b505060016000555050505050565b60026000541415610b6f5760405162461bcd60e51b815260040161041d90612365565b6002600055610b8c60008051602061252c83398151915233610878565b610ba85760405162461bcd60e51b815260040161041d9061226b565b6003546040516363b8d4c160e11b81526020600482015260086024820152672727a222afaa25a760c11b60448201526001600160a01b039091169063c771a9829060640160206040518083038186803b158015610c0457600080fd5b505afa158015610c18573d6000803e3d6000fd5b505050506040513d601f19601f82011682018060405250810190610c3c9190611deb565b600c80546001600160a01b039283166001600160a01b03199182168117909255600d805490911690911790556003546040516363b8d4c160e11b81526020600482015260086024820152672727a222afa6a3a960c11b604482015291169063c771a9829060640160206040518083038186803b158015610cbb57600080fd5b505afa158015610ccf573d6000803e3d6000fd5b505050506040513d601f19601f82011682018060405250810190610cf39190611deb565b600480546001600160a01b039283166001600160a01b031991821681178355600580549092161790556003546040516363b8d4c160e11b815292169163c771a98291610d5d91016020808252600990820152682727a222afa9aa27a960b91b604082015260600190565b60206040518083038186803b158015610d7557600080fd5b505afa158015610d89573d6000803e3d6000fd5b505050506040513d601f19601f82011682018060405250810190610dad9190611deb565b600680546001600160a01b039283166001600160a01b031991821681179092556007805490911690911790556003546040516363b8d4c160e11b81526020600482015260086024820152672aaa24a62faa25a760c11b604482015291169063c771a9829060640160206040518083038186803b158015610e2c57600080fd5b505afa158015610e40573d6000803e3d6000fd5b505050506040513d601f19601f82011682018060405250810190610e649190611deb565b600880546001600160a01b039283166001600160a01b031991821681179092556009805490911690911790556003546040516363b8d4c160e11b815260206004820152600560248201526420afaa25a760d91b604482015291169063c771a9829060640160206040518083038186803b158015610ee057600080fd5b505afa158015610ef4573d6000803e3d6000fd5b505050506040513d601f19601f82011682018060405250810190610f189190611deb565b600a80546001600160a01b039283166001600160a01b03199182168117909255600b805490911690911790556003546040516363b8d4c160e11b815260206004820152600760248201526622a1a92fa6a3a960c91b604482015291169063c771a9829060640160206040518083038186803b158015610f9657600080fd5b505afa158015610faa573d6000803e3d6000fd5b505050506040513d601f19601f82011682018060405250810190610fce9190611deb565b600e80546001600160a01b039283166001600160a01b03199182168117909255600f805490911690911790556003546040516363b8d4c160e11b815291169063c771a982906110379060040160208082526003908201526204150560ec1b604082015260600190565b60206040518083038186803b15801561104f57600080fd5b505afa158015611063573d6000803e3d6000fd5b505050506040513d601f19601f820116820180604052508101906110879190611deb565b601280546001600160a01b039283166001600160a01b031991821681179092556013805490911690911790556003546040516363b8d4c160e11b815291169063c771a982906110f1906004016020808252600490820152632921a62960e11b604082015260600190565b60206040518083038186803b15801561110957600080fd5b505afa15801561111d573d6000803e3d6000fd5b505050506040513d601f19601f820116820180604052508101906111419190611deb565b601080546001600160a01b039283166001600160a01b031991821681179092556011805490911690911790556003546040516363b8d4c160e11b81526020600482015260066024820152654150505f4e4360d01b604482015291169063c771a9829060640160206040518083038186803b1580156111be57600080fd5b505afa1580156111d2573d6000803e3d6000fd5b505050506040513d601f19601f820116820180604052508101906111f69190611deb565b601480546001600160a01b0319166001600160a01b03929092169190911790556001600055565b600260005414156112405760405162461bcd60e51b815260040161041d90612365565b600260005561125160025460ff1690565b1561126e5760405162461bcd60e51b815260040161041d9061233b565b600b546040516331a9108f60e11b815260048101879052869130916001600160a01b0390911690636352211e90602401602060405180830381600087803b1580156112b857600080fd5b505af11580156112cc573d6000803e3d6000fd5b505050506040513d601f19601f820116820180604052508101906112f09190611deb565b6001600160a01b0316146113515760405162461bcd60e51b815260206004820152602260248201527f503a4350413a20546f6b656e206e6f7420666f756e6420696e20505255465f50604482015261049560f41b606482015260840161041d565b60035460405163a85d2bef60e01b815260048101889052602481018790526044810186905263ffffffff8086166064830152841660848201526001600160a01b039091169063a85d2bef9060a401600060405180830381600087803b1580156113b957600080fd5b505af11580156113cd573d6000803e3d6000fd5b5050600b805460408051634312207160e11b815260048101879052602481019190915260448101929092526a0707275662e696f2f5049560ac1b60648301526001600160a01b0316925063862440e29150608401602060405180830381600087803b15801561143b57600080fd5b505af115801561144f573d6000803e3d6000fd5b505050506040513d601f19601f820116820180604052508101906114739190612153565b50600b546001600160a01b03166342842e0e30336040516001600160e01b031960e085901b1681526001600160a01b0392831660048201529116602482015260448101849052606401600060405180830381600087803b1580156114d657600080fd5b505af11580156114ea573d6000803e3d6000fd5b505050506114f7836119d7565b5050600160005550505050565b61150e8282610878565b61043057611526816001600160a01b03166014611abc565b611531836020611abc565b6040516020016115429291906121b3565b60408051601f198184030181529082905262461bcd60e51b825261041d91600401612258565b6115728282610878565b6104305760008281526001602081815260408084206001600160a01b0386168086529252808420805460ff19169093179092559051339285917f2f8788117e7eff1d82e926ec794901d17c78024a50270940304540a733656f0d9190a45050565b6115dd8282610878565b156104305760008281526001602090815260408083206001600160a01b0385168085529252808320805460ff1916905551339285917ff6391f5c32d9c69d2a47ea670b442974b53935d1edc7fd64eb21e047a839171b9190a45050565b60025460ff166116835760405162461bcd60e51b815260206004820152601460248201527314185d5cd8589b194e881b9bdd081c185d5cd95960621b604482015260640161041d565b6002805460ff191690557f5db9ee0a495bf2e6ff9c91a7834c1ba4fdd244a5e8aa4e537bd38aeae4b073aa335b6040516001600160a01b03909116815260200160405180910390a1565b60025460ff16156116f05760405162461bcd60e51b815260040161041d9061233b565b6002805460ff191660011790557f62e78cea01bee320cd4e420270b5ea74000d11b0c9f74754ebdbfc544b05a2586116b03390565b6040805161018081018252600080825260208201819052918101829052606081018290526080810182905260a0810182905260c0810182905260e081018290526101008101829052610120810182905261014081018290526101608101919091526003546040516338923cb160e21b8152600481018490526000916001600160a01b03169063e248f2c4906024016101806040518083038186803b1580156117cc57600080fd5b505afa1580156117e0573d6000803e3d6000fd5b505050506040513d601f19601f82011682018060405250810190611804919061208f565b9392505050565b6007546040516bffffffffffffffffffffffff193360601b16602082015260009182916001600160a01b0390911690639d2c7cee9060340160408051601f198184030181529082905280516020909101206001600160e01b031960e084901b168252600482015263ffffffff8616602482015260440160206040518083038186803b15801561189957600080fd5b505afa1580156118ad573d6000803e3d6000fd5b505050506040513d601f19601f82011682018060405250810190611804919061216c565b6060816118f55750506040805180820190915260018152600360fc1b602082015290565b8160005b811561191f57806119098161247d565b91506119189050600a836123ec565b91506118f9565b60008167ffffffffffffffff81111561193a5761193a6124ee565b6040519080825280601f01601f191660200182016040528015611964576020820181803683370190505b5090505b84156119cf5761197960018361241f565b9150611986600a86612498565b6119919060306123d4565b60f81b8183815181106119a6576119a66124d8565b60200101906001600160f81b031916908160001a9053506119c8600a866123ec565b9450611968565b949350505050565b60025460ff16156119fa5760405162461bcd60e51b815260040161041d9061233b565b600754604051638f44e52560e01b815263ffffffff83166004820152600160248201526000916001600160a01b031690638f44e5259060440160806040518083038186803b158015611a4b57600080fd5b505afa158015611a5f573d6000803e3d6000fd5b505050506040513d601f19601f82011682018060405250810190611a83919061200c565b90506017548160400151611a9791906123ec565b60408201526017546060820151611aae91906123ec565b606082015261043081611c58565b60606000611acb836002612400565b611ad69060026123d4565b67ffffffffffffffff811115611aee57611aee6124ee565b6040519080825280601f01601f191660200182016040528015611b18576020820181803683370190505b509050600360fc1b81600081518110611b3357611b336124d8565b60200101906001600160f81b031916908160001a905350600f60fb1b81600181518110611b6257611b626124d8565b60200101906001600160f81b031916908160001a9053506000611b86846002612400565b611b919060016123d4565b90505b6001811115611c09576f181899199a1a9b1b9c1cb0b131b232b360811b85600f1660108110611bc557611bc56124d8565b1a60f81b828281518110611bdb57611bdb6124d8565b60200101906001600160f81b031916908160001a90535060049490941c93611c0281612466565b9050611b94565b5083156118045760405162461bcd60e51b815260206004820181905260248201527f537472696e67733a20686578206c656e67746820696e73756666696369656e74604482015260640161041d565b60025460ff1615611c7b5760405162461bcd60e51b815260040161041d9061233b565b80516001600160a01b0316611ce45760405162461bcd60e51b815260206004820152602960248201527f433a44503a20726f6f74207061796d656e742061646472657373203d207a65726044820152686f206164647265737360b81b606482015260840161041d565b60208101516001600160a01b0316611d075780516001600160a01b031660208201525b6009548151604080840151602085015160608601518351631cc1e17360e31b81523360048201526001600160a01b0395861660248201526044810193909352908416606483015260848201529051919092169163e60f0b989160a480830192600092919082900301818387803b158015611d8057600080fd5b505af1158015611d94573d6000803e3d6000fd5b5050505050565b805161ffff81168114611dad57600080fd5b919050565b8051611dad81612519565b805160ff81168114611dad57600080fd5b600060208284031215611de057600080fd5b813561180481612504565b600060208284031215611dfd57600080fd5b815161180481612504565b600080600060608486031215611e1d57600080fd5b8335611e2881612504565b92506020840135611e3881612504565b929592945050506040919091013590565b600080600080600060808688031215611e6157600080fd5b8535611e6c81612504565b94506020860135611e7c81612504565b935060408601359250606086013567ffffffffffffffff80821115611ea057600080fd5b818801915088601f830112611eb457600080fd5b813581811115611ec357600080fd5b896020828501011115611ed557600080fd5b9699959850939650602001949392505050565b600060208284031215611efa57600080fd5b8151801515811461180457600080fd5b600060208284031215611f1c57600080fd5b5035919050565b60008060408385031215611f3657600080fd5b823591506020830135611f4881612504565b809150509250929050565b600080600080600060a08688031215611f6b57600080fd5b8535945060208601359350604086013592506060860135611f8b81612519565b91506080860135611f9b81612519565b809150509295509295909350565b600080600060608486031215611fbe57600080fd5b83359250602084013591506040840135611fd781612519565b809150509250925092565b600060208284031215611ff457600080fd5b81356001600160e01b03198116811461180457600080fd5b60006080828403121561201e57600080fd5b6040516080810181811067ffffffffffffffff8211171561204f57634e487b7160e01b600052604160045260246000fd5b604052825161205d81612504565b8152602083015161206d81612504565b6020820152604083810151908201526060928301519281019290925250919050565b600061018082840312156120a257600080fd5b6120aa61239c565b6120b383611dbd565b81526120c160208401611dbd565b60208201526120d260408401611d9b565b60408201526120e360608401611db2565b60608201526120f460808401611db2565b608082015261210560a08401611db2565b60a082015260c0838101519082015260e08084015190820152610100808401519082015261012080840151908201526101408084015190820152610160928301519281019290925250919050565b60006020828403121561216557600080fd5b5051919050565b60006020828403121561217e57600080fd5b61180482611dbd565b6000815180845261219f816020860160208601612436565b601f01601f19169290920160200192915050565b7f416363657373436f6e74726f6c3a206163636f756e74200000000000000000008152600083516121eb816017850160208801612436565b7001034b99036b4b9b9b4b733903937b6329607d1b601791840191820152835161221c816028840160208801612436565b01602801949350505050565b60018060a01b038416815282602082015260606040820152600061224f6060830184612187565b95945050505050565b6020815260006118046020830184612187565b60208082526027908201527f423a4d4f443a2d4941444d2043616c6c65722021434f4e54524143545f41444d604082015266494e5f524f4c4560c81b606082015260800190565b60208082526023908201527f423a4d4f443a2d4941444d2043616c6c6572202141535345545f545846525f526040820152624f4c4560e81b606082015260800190565b60208082526026908201527f423a4d4f442d49503a43616c6c696e672061646472657373206973206e6f74206040820152653830bab9b2b960d11b606082015260800190565b60208082526010908201526f14185d5cd8589b194e881c185d5cd95960821b604082015260600190565b6020808252601f908201527f5265656e7472616e637947756172643a207265656e7472616e742063616c6c00604082015260600190565b604051610180810167ffffffffffffffff811182821017156123ce57634e487b7160e01b600052604160045260246000fd5b60405290565b600082198211156123e7576123e76124ac565b500190565b6000826123fb576123fb6124c2565b500490565b600081600019048311821515161561241a5761241a6124ac565b500290565b600082821015612431576124316124ac565b500390565b60005b83811015612451578181015183820152602001612439565b83811115612460576000848401525b50505050565b600081612475576124756124ac565b506000190190565b6000600019821415612491576124916124ac565b5060010190565b6000826124a7576124a76124c2565b500690565b634e487b7160e01b600052601160045260246000fd5b634e487b7160e01b600052601260045260246000fd5b634e487b7160e01b600052603260045260246000fd5b634e487b7160e01b600052604160045260246000fd5b6001600160a01b03811681146104cf57600080fd5b63ffffffff811681146104cf57600080fdfe2ce8d04a9c35987429af538825cd2438cc5c5bb5dc427955f84daaa3ea105016a2646970667358221220677950dc5f1a967e5e9e39ccbd2255179dcac98d30ec95534cfb6324dbfc52bb64736f6c63430008070033",
  "immutableReferences": {},
  "source": "/*--------------------------------------------------------PRF0.8.7\n__/\\\\\\\\\\\\\\\\\\\\\\\\\\ _____/\\\\\\\\\\\\\\\\\\ _______/\\\\__/\\\\ ___/\\\\\\\\\\\\\\\\\\\\\\\\\\\\\\        \n__\\/\\\\\\/////////\\\\\\ _/\\\\\\///////\\\\\\ ____\\//__\\//____\\/\\\\\\///////////__       \n___\\/\\\\\\_______\\/\\\\\\_\\/\\\\\\_____\\/\\\\\\ ________________\\/\\\\\\ ____________      \n____\\/\\\\\\\\\\\\\\\\\\\\\\\\\\/__\\/\\\\\\\\\\\\\\\\\\\\\\/_____/\\\\\\____/\\\\\\_\\/\\\\\\\\\\\\\\\\\\\\\\ ____     \n_____\\/\\\\\\/////////____\\/\\\\\\//////\\\\\\ ___\\/\\\\\\___\\/\\\\\\_\\/\\\\\\///////______\n______\\/\\\\\\ ____________\\/\\\\\\ ___\\//\\\\\\ __\\/\\\\\\___\\/\\\\\\_\\/\\\\\\ ____________\n_______\\/\\\\\\ ____________\\/\\\\\\ ____\\//\\\\\\ _\\/\\\\\\___\\/\\\\\\_\\/\\\\\\ ____________\n________\\/\\\\\\ ____________\\/\\\\\\ _____\\//\\\\\\_\\//\\\\\\\\\\\\\\\\\\ _\\/\\\\\\ ____________\n_________\\/// _____________\\/// _______\\/// __\\///////// __\\/// _____________\n*---------------------------------------------------------------------------*/\n\n/*-----------------------------------------------------------------\n *  TO DO\n * PIP IS VULNERABLE TO THE DARK FOREST, needs to be completely rewritten\n * PIP NEEDS TO BE DONE BY A SERVER USING AUTH MINTER IN node ADDRESS, USING content adressable storage FOR DATA STORAGE.\n * Perhaps this can work with some kind of ZK auth? Doubt?\n *\n *---------------------------------------------------------------*/\n\n// SPDX-License-Identifier: UNLICENSED\npragma solidity ^0.8.7;\n\nimport \"../Resources/PRUF_CORE.sol\";\n\ncontract PIP is CORE {\n    uint256 importDiscount = 2;\n\n    /*\n     * @dev Sets import discount for this contract\n     */\n    function setImportDiscount(uint256 _importDiscount)\n        external\n        isContractAdmin\n    {\n        //^^^^^^^checks^^^^^^^^^\n        if (_importDiscount < 1) {\n            importDiscount = 1;\n        } else {\n            importDiscount = _importDiscount;\n        }\n        //^^^^^^^effects^^^^^^^^^^^^\n    }\n\n    function mintPipAsset(\n        bytes32 _idxRaw,\n        bytes32 _hashedAuthCode, // token URI needs to be K256(packed( uint32 node, string authCode)) supplied off chain\n        uint32 _node\n    ) external nonReentrant whenNotPaused {\n        bytes32 idxHash = keccak256(abi.encodePacked(_idxRaw, _node)); //hash idxRaw with node to get idxHash DPS:TEST\n        uint256 tokenId = uint256(idxHash);\n        Record memory rec = getRecord(idxHash);\n        uint8 userType = getCallingUserType(_node);\n\n        require(\n            (NODE_TKN.ownerOf(_node) == _msgSender()), //_msgSender() is node token holder\n            \"P:MPA: Caller does not hold node token\"\n        );\n        require(\n            userType == 10,\n            \"P:MPA: User not authorized to mint PIP assets\"\n        );\n        require(\n            rec.node == 0, //verified as VALID\n            \"P:MPA: Asset already registered in system\"\n        );\n        // //^^^^^^^checks^^^^^^^^^\n\n        string memory tokenURI;\n        bytes32 b32URI = keccak256(abi.encodePacked(_hashedAuthCode, _node));\n        tokenURI = uint256toString(uint256(b32URI));\n        //^^^^^^^effects^^^^^^^^^^^^\n\n        A_TKN.mintAssetToken(address(this), tokenId, tokenURI ); //CTS:CHECK mint a PIP token...this needs to send it to the right address, its dumb right now\n    }\n\n    /* CTS:CHECK NOT FINISHED, ACCEPTS URIHASH WITH NO VERIFICATION OF ACTUAL URI\n     * @dev Import a record into a new node\n     */\n    function claimPipAsset(\n        bytes32 _idxHash,\n        bytes32 _rgtHash,\n        bytes32 _URIhash,\n        uint32 _newNode,\n        uint32 _countDownStart\n    ) external nonReentrant whenNotPaused {\n        uint256 tokenId = uint256(_idxHash);\n\n        require(\n            A_TKN.ownerOf(tokenId) == address(this),\n            \"P:CPA: Token not found in PRUF_PIP\"\n        );\n        //^^^^^^^checks^^^^^^^^^\n\n        //A_TKN.validatePipToken(tokenId, _newNode, _authCode); //check supplied data matches tokenURI\n        STOR.newRecord(_idxHash, _rgtHash, _URIhash, _newNode, _countDownStart); // Make a new record at the tokenId b32\n        A_TKN.setURI(tokenId, \"pruf.io/PIP\"); // set URI\n        A_TKN.safeTransferFrom(address(this), _msgSender(), tokenId); // sends token from this holding contract to caller wallet\n        deductImportRecordCosts(_newNode);\n\n        //^^^^^^^interactions^^^^^^^^\n    }\n\n    /**\n     * @dev Converts a `uint256` to its ASCII `string` decimal representation.\n     */\n    function uint256toString(uint256 value)\n        internal\n        pure\n        returns (string memory)\n    {\n        // Inspired by OraclizeAPI's implementation - MIT licence\n        // https://github.com/oraclize/ethereum-api/blob/b42146b063c7d6ee1358846c198246239e9360e8/oraclizeAPI_0.4.25.sol\n        // value = uint256(0x2ce8d04a9c35987429af538825cd2438cc5c5bb5dc427955f84daaa3ea105016);\n\n        if (value == 0) {\n            return \"0\";\n        }\n        uint256 temp = value;\n        uint256 digits;\n        while (temp != 0) {\n            digits++;\n            temp /= 10;\n        }\n        bytes memory buffer = new bytes(digits);\n        while (value != 0) {\n            digits -= 1;\n            buffer[digits] = bytes1(uint8(48 + uint256(value % 10)));\n            value /= 10;\n        }\n        return string(buffer);\n    }\n\n    function deductImportRecordCosts(uint32 _node) internal whenNotPaused {\n        //^^^^^^^checks^^^^^^^^^\n\n        Invoice memory pricing = NODE_STOR.getInvoice(_node, 1);\n\n        pricing.rootPrice = pricing.rootPrice / importDiscount;\n        pricing.NTHprice = pricing.NTHprice / importDiscount;\n        //^^^^^^^effects^^^^^^^^^\n\n        deductPayment(pricing);\n        //^^^^^^^interactions^^^^^^^\n    }\n}\n",
  "sourcePath": "/Users/drake/Documents/DEV/PRUF/PRUF_TRUFFLE/contracts/InProgress/PRUF_PIP.sol",
  "compiler": {
    "name": "solc",
    "version": "0.8.7+commit.e28d00a7.Emscripten.clang"
  },
  "schemaVersion": "3.4.3",
  "updatedAt": "2021-10-26T17:58:04.076Z",
  "devdoc": {
    "kind": "dev",
    "methods": {
      "ERC20Transfer(address,address,uint256)": {
        "details": "send an ERC20 token from this contract",
        "params": {
          "_amount": "amount to transfer",
          "_to": "destination",
          "_tokenContract": "Address of foreign token contract"
        }
      },
      "ERC721Transfer(address,address,uint256)": {
        "details": "send an ERC721 token from this contract",
        "params": {
          "_to": "destination",
          "_tokenContract": "Address of foreign token contract",
          "_tokenID": "Token ID"
        }
      },
      "getRoleAdmin(bytes32)": {
        "details": "Returns the admin role that controls `role`. See {grantRole} and {revokeRole}. To change a role's admin, use {_setRoleAdmin}."
      },
      "grantRole(bytes32,address)": {
        "details": "Grants `role` to `account`. If `account` had not been already granted `role`, emits a {RoleGranted} event. Requirements: - the caller must have ``role``'s admin role."
      },
      "hasRole(bytes32,address)": {
        "details": "Returns `true` if `account` has been granted `role`."
      },
      "onERC721Received(address,address,uint256,bytes)": {
        "details": "Compliance for erc721 reciever See OZ documentation"
      },
      "paused()": {
        "details": "Returns true if the contract is paused, and false otherwise."
      },
      "renounceRole(bytes32,address)": {
        "details": "Revokes `role` from the calling account. Roles are often managed via {grantRole} and {revokeRole}: this function's purpose is to provide a mechanism for accounts to lose their privileges if they are compromised (such as when a trusted device is misplaced). If the calling account had been granted `role`, emits a {RoleRevoked} event. Requirements: - the caller must be `account`."
      },
      "resolveContractAddresses()": {
        "details": "Resolve contract addresses from STOR"
      },
      "revokeRole(bytes32,address)": {
        "details": "Revokes `role` from `account`. If `account` had been granted `role`, emits a {RoleRevoked} event. Requirements: - the caller must have ``role``'s admin role."
      },
      "setStorageContract(address)": {
        "details": "Set address of STOR contract to interface with",
        "params": {
          "_storageAddress": "address of PRUF_STOR"
        }
      },
      "supportsInterface(bytes4)": {
        "details": "See {IERC165-supportsInterface}."
      }
    },
    "version": 1
  },
  "userdoc": {
    "kind": "user",
    "methods": {},
    "version": 1
  }
}