{
  "contractName": "PRUF_AC_MGR",
  "abi": [
    {
      "anonymous": false,
      "inputs": [
        {
          "indexed": true,
          "internalType": "address",
          "name": "previousOwner",
          "type": "address"
        },
        {
          "indexed": true,
          "internalType": "address",
          "name": "newOwner",
          "type": "address"
        }
      ],
      "name": "OwnershipTransferred",
      "type": "event"
    },
    {
      "anonymous": false,
      "inputs": [
        {
          "indexed": false,
          "internalType": "string",
          "name": "_msg",
          "type": "string"
        }
      ],
      "name": "REPORT",
      "type": "event"
    },
    {
      "inputs": [],
      "name": "$withdraw",
      "outputs": [],
      "stateMutability": "payable",
      "type": "function"
    },
    {
      "inputs": [],
      "name": "OO_ResolveContractAddresses",
      "outputs": [],
      "stateMutability": "nonpayable",
      "type": "function"
    },
    {
      "inputs": [
        {
          "internalType": "address",
          "name": "_to",
          "type": "address"
        },
        {
          "internalType": "bytes32",
          "name": "_idxHash",
          "type": "bytes32"
        }
      ],
      "name": "OO_TX_AC_Token",
      "outputs": [],
      "stateMutability": "nonpayable",
      "type": "function"
    },
    {
      "inputs": [
        {
          "internalType": "address",
          "name": "_to",
          "type": "address"
        },
        {
          "internalType": "bytes32",
          "name": "_idxHash",
          "type": "bytes32"
        }
      ],
      "name": "OO_TX_asset_Token",
      "outputs": [],
      "stateMutability": "nonpayable",
      "type": "function"
    },
    {
      "inputs": [
        {
          "internalType": "address",
          "name": "_storageAddress",
          "type": "address"
        }
      ],
      "name": "OO_setStorageContract",
      "outputs": [],
      "stateMutability": "nonpayable",
      "type": "function"
    },
    {
      "inputs": [
        {
          "internalType": "address",
          "name": "",
          "type": "address"
        },
        {
          "internalType": "address",
          "name": "",
          "type": "address"
        },
        {
          "internalType": "uint256",
          "name": "",
          "type": "uint256"
        },
        {
          "internalType": "bytes",
          "name": "",
          "type": "bytes"
        }
      ],
      "name": "onERC721Received",
      "outputs": [
        {
          "internalType": "bytes4",
          "name": "",
          "type": "bytes4"
        }
      ],
      "stateMutability": "nonpayable",
      "type": "function"
    },
    {
      "inputs": [],
      "name": "owner",
      "outputs": [
        {
          "internalType": "address",
          "name": "",
          "type": "address"
        }
      ],
      "stateMutability": "view",
      "type": "function"
    },
    {
      "inputs": [
        {
          "internalType": "address",
          "name": "dest",
          "type": "address"
        }
      ],
      "name": "payments",
      "outputs": [
        {
          "internalType": "uint256",
          "name": "",
          "type": "uint256"
        }
      ],
      "stateMutability": "view",
      "type": "function"
    },
    {
      "inputs": [],
      "name": "renounceOwnership",
      "outputs": [],
      "stateMutability": "nonpayable",
      "type": "function"
    },
    {
      "inputs": [
        {
          "internalType": "address",
          "name": "newOwner",
          "type": "address"
        }
      ],
      "name": "transferOwnership",
      "outputs": [],
      "stateMutability": "nonpayable",
      "type": "function"
    },
    {
      "inputs": [
        {
          "internalType": "address payable",
          "name": "payee",
          "type": "address"
        }
      ],
      "name": "withdrawPayments",
      "outputs": [],
      "stateMutability": "nonpayable",
      "type": "function"
    },
    {
      "inputs": [
        {
          "internalType": "address",
          "name": "_authAddr",
          "type": "address"
        },
        {
          "internalType": "uint8",
          "name": "_userType",
          "type": "uint8"
        },
        {
          "internalType": "uint16",
          "name": "_assetClass",
          "type": "uint16"
        }
      ],
      "name": "OO_addUser",
      "outputs": [],
      "stateMutability": "nonpayable",
      "type": "function"
    },
    {
      "inputs": [
        {
          "internalType": "uint256",
          "name": "_tokenId",
          "type": "uint256"
        },
        {
          "internalType": "address",
          "name": "_recipientAddress",
          "type": "address"
        },
        {
          "internalType": "string",
          "name": "_name",
          "type": "string"
        },
        {
          "internalType": "uint16",
          "name": "_assetClass",
          "type": "uint16"
        },
        {
          "internalType": "uint16",
          "name": "_assetClassRoot",
          "type": "uint16"
        },
        {
          "internalType": "uint8",
          "name": "_custodyType",
          "type": "uint8"
        }
      ],
      "name": "createAssetClass",
      "outputs": [],
      "stateMutability": "nonpayable",
      "type": "function"
    },
    {
      "inputs": [
        {
          "internalType": "uint16",
          "name": "_class",
          "type": "uint16"
        },
        {
          "internalType": "uint256",
          "name": "_newRecordCost",
          "type": "uint256"
        },
        {
          "internalType": "uint256",
          "name": "_transferAssetCost",
          "type": "uint256"
        },
        {
          "internalType": "uint256",
          "name": "_createNoteCost",
          "type": "uint256"
        },
        {
          "internalType": "uint256",
          "name": "_reMintRecordCost",
          "type": "uint256"
        },
        {
          "internalType": "uint256",
          "name": "_changeStatusCost",
          "type": "uint256"
        },
        {
          "internalType": "uint256",
          "name": "_forceModifyCost",
          "type": "uint256"
        },
        {
          "internalType": "address",
          "name": "_paymentAddress",
          "type": "address"
        }
      ],
      "name": "ACTH_setCosts",
      "outputs": [],
      "stateMutability": "nonpayable",
      "type": "function"
    },
    {
      "inputs": [
        {
          "internalType": "uint16",
          "name": "_assetClass",
          "type": "uint16"
        }
      ],
      "name": "getAC_data",
      "outputs": [
        {
          "internalType": "uint16",
          "name": "",
          "type": "uint16"
        },
        {
          "internalType": "uint8",
          "name": "",
          "type": "uint8"
        },
        {
          "internalType": "uint256",
          "name": "",
          "type": "uint256"
        }
      ],
      "stateMutability": "view",
      "type": "function"
    },
    {
      "inputs": [
        {
          "internalType": "uint16",
          "name": "_assetClass1",
          "type": "uint16"
        },
        {
          "internalType": "uint16",
          "name": "_assetClass2",
          "type": "uint16"
        }
      ],
      "name": "isSameRootAC",
      "outputs": [
        {
          "internalType": "uint8",
          "name": "",
          "type": "uint8"
        }
      ],
      "stateMutability": "view",
      "type": "function"
    },
    {
      "inputs": [
        {
          "internalType": "uint256",
          "name": "_tokenId",
          "type": "uint256"
        }
      ],
      "name": "getAC_name",
      "outputs": [
        {
          "internalType": "string",
          "name": "",
          "type": "string"
        }
      ],
      "stateMutability": "view",
      "type": "function"
    },
    {
      "inputs": [
        {
          "internalType": "string",
          "name": "_name",
          "type": "string"
        }
      ],
      "name": "resolveAssetClass",
      "outputs": [
        {
          "internalType": "uint16",
          "name": "",
          "type": "uint16"
        }
      ],
      "stateMutability": "view",
      "type": "function"
    },
    {
      "inputs": [
        {
          "internalType": "uint16",
          "name": "_assetClass",
          "type": "uint16"
        }
      ],
      "name": "getNewRecordCosts",
      "outputs": [
        {
          "internalType": "address",
          "name": "",
          "type": "address"
        },
        {
          "internalType": "uint256",
          "name": "",
          "type": "uint256"
        },
        {
          "internalType": "address",
          "name": "",
          "type": "address"
        },
        {
          "internalType": "uint256",
          "name": "",
          "type": "uint256"
        }
      ],
      "stateMutability": "nonpayable",
      "type": "function"
    },
    {
      "inputs": [
        {
          "internalType": "uint16",
          "name": "_assetClass",
          "type": "uint16"
        }
      ],
      "name": "getTransferAssetCosts",
      "outputs": [
        {
          "internalType": "address",
          "name": "",
          "type": "address"
        },
        {
          "internalType": "uint256",
          "name": "",
          "type": "uint256"
        },
        {
          "internalType": "address",
          "name": "",
          "type": "address"
        },
        {
          "internalType": "uint256",
          "name": "",
          "type": "uint256"
        }
      ],
      "stateMutability": "nonpayable",
      "type": "function"
    },
    {
      "inputs": [
        {
          "internalType": "uint16",
          "name": "_assetClass",
          "type": "uint16"
        }
      ],
      "name": "getCreateNoteCosts",
      "outputs": [
        {
          "internalType": "address",
          "name": "",
          "type": "address"
        },
        {
          "internalType": "uint256",
          "name": "",
          "type": "uint256"
        },
        {
          "internalType": "address",
          "name": "",
          "type": "address"
        },
        {
          "internalType": "uint256",
          "name": "",
          "type": "uint256"
        }
      ],
      "stateMutability": "nonpayable",
      "type": "function"
    },
    {
      "inputs": [
        {
          "internalType": "uint16",
          "name": "_assetClass",
          "type": "uint16"
        }
      ],
      "name": "getReMintRecordCosts",
      "outputs": [
        {
          "internalType": "address",
          "name": "",
          "type": "address"
        },
        {
          "internalType": "uint256",
          "name": "",
          "type": "uint256"
        },
        {
          "internalType": "address",
          "name": "",
          "type": "address"
        },
        {
          "internalType": "uint256",
          "name": "",
          "type": "uint256"
        }
      ],
      "stateMutability": "nonpayable",
      "type": "function"
    },
    {
      "inputs": [
        {
          "internalType": "uint16",
          "name": "_assetClass",
          "type": "uint16"
        }
      ],
      "name": "getChangeStatusCosts",
      "outputs": [
        {
          "internalType": "address",
          "name": "",
          "type": "address"
        },
        {
          "internalType": "uint256",
          "name": "",
          "type": "uint256"
        },
        {
          "internalType": "address",
          "name": "",
          "type": "address"
        },
        {
          "internalType": "uint256",
          "name": "",
          "type": "uint256"
        }
      ],
      "stateMutability": "nonpayable",
      "type": "function"
    },
    {
      "inputs": [
        {
          "internalType": "uint16",
          "name": "_assetClass",
          "type": "uint16"
        }
      ],
      "name": "getForceModifyCosts",
      "outputs": [
        {
          "internalType": "address",
          "name": "",
          "type": "address"
        },
        {
          "internalType": "uint256",
          "name": "",
          "type": "uint256"
        },
        {
          "internalType": "address",
          "name": "",
          "type": "address"
        },
        {
          "internalType": "uint256",
          "name": "",
          "type": "uint256"
        }
      ],
      "stateMutability": "nonpayable",
      "type": "function"
    },
    {
      "inputs": [
        {
          "internalType": "uint16",
          "name": "_assetClass",
          "type": "uint16"
        }
      ],
      "name": "retrieveCosts",
      "outputs": [
        {
          "internalType": "uint256",
          "name": "",
          "type": "uint256"
        },
        {
          "internalType": "uint256",
          "name": "",
          "type": "uint256"
        },
        {
          "internalType": "uint256",
          "name": "",
          "type": "uint256"
        },
        {
          "internalType": "uint256",
          "name": "",
          "type": "uint256"
        },
        {
          "internalType": "uint256",
          "name": "",
          "type": "uint256"
        },
        {
          "internalType": "uint256",
          "name": "",
          "type": "uint256"
        },
        {
          "internalType": "address",
          "name": "",
          "type": "address"
        }
      ],
      "stateMutability": "view",
      "type": "function"
    },
    {
      "inputs": [
        {
          "internalType": "bytes32",
          "name": "_userHash",
          "type": "bytes32"
        }
      ],
      "name": "getUserExt",
      "outputs": [
        {
          "internalType": "uint8",
          "name": "",
          "type": "uint8"
        },
        {
          "internalType": "uint16",
          "name": "",
          "type": "uint16"
        }
      ],
      "stateMutability": "view",
      "type": "function"
    }
  ],
  "bytecode": "0x60806040523480156200001157600080fd5b50604051620000209062000143565b604051809103906000f0801580156200003d573d6000803e3d6000fd5b506000806101000a81548173ffffffffffffffffffffffffffffffffffffffff021916908373ffffffffffffffffffffffffffffffffffffffff160217905550600180819055506000620000966200013b60201b60201c565b905080600260006101000a81548173ffffffffffffffffffffffffffffffffffffffff021916908373ffffffffffffffffffffffffffffffffffffffff1602179055508073ffffffffffffffffffffffffffffffffffffffff16600073ffffffffffffffffffffffffffffffffffffffff167f8be0079c531659141344cd1fd0a4f28419497f9722a3daafe3b4186f6b6457e060405160405180910390a35062000151565b600033905090565b610cd78062004a3d83390190565b6148dc80620001616000396000f3fe6080604052600436106101815760003560e01c80637953856c116100d1578063d6b02ecf1161008a578063eb8af05911610064578063eb8af05914610d45578063f2fde38b14610da9578063f92a814414610dfa578063f9499f1914610eba57610181565b8063d6b02ecf14610bcf578063e20fb11614610c20578063e2982c2114610ce057610181565b80637953856c1461084a5780637a4470791461090a5780638da5cb5b146109ca5780639613570214610a21578063b1d83c1814610a90578063d52e10c914610aeb57610181565b80633086bd2f1161013e57806346c07c201161011857806346c07c20146107075780634b9f23a41461077357806355f13c771461078a578063715018a61461083357610181565b80633086bd2f146105a757806331b3eb941461065b578063466aafa4146106ac57610181565b806306d7e63e146101865780630fc3b64d14610222578063150b7a02146102fb57806329692f321461041d5780632ad0302f146104dd5780632cb741aa1461059d575b600080fd5b34801561019257600080fd5b5061022060048036036101008110156101aa57600080fd5b81019080803561ffff169060200190929190803590602001909291908035906020019092919080359060200190929190803590602001909291908035906020019092919080359060200190929190803573ffffffffffffffffffffffffffffffffffffffff169060200190929190505050610f21565b005b34801561022e57600080fd5b506102f9600480360360c081101561024557600080fd5b8101908080359060200190929190803573ffffffffffffffffffffffffffffffffffffffff1690602001909291908035906020019064010000000081111561028c57600080fd5b82018360208201111561029e57600080fd5b803590602001918460018302840111640100000000831117156102c057600080fd5b9091929391929390803561ffff169060200190929190803561ffff169060200190929190803560ff169060200190929190505050611197565b005b34801561030757600080fd5b506103c96004803603608081101561031e57600080fd5b81019080803573ffffffffffffffffffffffffffffffffffffffff169060200190929190803573ffffffffffffffffffffffffffffffffffffffff169060200190929190803590602001909291908035906020019064010000000081111561038557600080fd5b82018360208201111561039757600080fd5b803590602001918460018302840111640100000000831117156103b957600080fd5b90919293919293905050506116ff565b60405180827bffffffffffffffffffffffffffffffffffffffffffffffffffffffff19167bffffffffffffffffffffffffffffffffffffffffffffffffffffffff1916815260200191505060405180910390f35b34801561042957600080fd5b5061045a6004803603602081101561044057600080fd5b81019080803561ffff169060200190929190505050611714565b604051808573ffffffffffffffffffffffffffffffffffffffff1673ffffffffffffffffffffffffffffffffffffffff1681526020018481526020018373ffffffffffffffffffffffffffffffffffffffff1673ffffffffffffffffffffffffffffffffffffffff16815260200182815260200194505050505060405180910390f35b3480156104e957600080fd5b5061051a6004803603602081101561050057600080fd5b81019080803561ffff169060200190929190505050611a3f565b604051808573ffffffffffffffffffffffffffffffffffffffff1673ffffffffffffffffffffffffffffffffffffffff1681526020018481526020018373ffffffffffffffffffffffffffffffffffffffff1673ffffffffffffffffffffffffffffffffffffffff16815260200182815260200194505050505060405180910390f35b6105a5611d6a565b005b3480156105b357600080fd5b506105e0600480360360208110156105ca57600080fd5b8101908080359060200190929190505050611dfd565b6040518080602001828103825283818151815260200191508051906020019080838360005b83811015610620578082015181840152602081019050610605565b50505050905090810190601f16801561064d5780820380516001836020036101000a031916815260200191505b509250505060405180910390f35b34801561066757600080fd5b506106aa6004803603602081101561067e57600080fd5b81019080803573ffffffffffffffffffffffffffffffffffffffff169060200190929190505050611ec3565b005b3480156106b857600080fd5b50610705600480360360408110156106cf57600080fd5b81019080803573ffffffffffffffffffffffffffffffffffffffff16906020019092919080359060200190929190505050611f7e565b005b34801561071357600080fd5b506107716004803603606081101561072a57600080fd5b81019080803573ffffffffffffffffffffffffffffffffffffffff169060200190929190803560ff169060200190929190803561ffff1690602001909291905050506121d2565b005b34801561077f57600080fd5b506107886124e8565b005b34801561079657600080fd5b506107c7600480360360208110156107ad57600080fd5b81019080803561ffff169060200190929190505050612be9565b604051808881526020018781526020018681526020018581526020018481526020018381526020018273ffffffffffffffffffffffffffffffffffffffff1673ffffffffffffffffffffffffffffffffffffffff16815260200197505050505050505060405180910390f35b34801561083f57600080fd5b50610848612e50565b005b34801561085657600080fd5b506108876004803603602081101561086d57600080fd5b81019080803561ffff169060200190929190505050612fdb565b604051808573ffffffffffffffffffffffffffffffffffffffff1673ffffffffffffffffffffffffffffffffffffffff1681526020018481526020018373ffffffffffffffffffffffffffffffffffffffff1673ffffffffffffffffffffffffffffffffffffffff16815260200182815260200194505050505060405180910390f35b34801561091657600080fd5b506109476004803603602081101561092d57600080fd5b81019080803561ffff169060200190929190505050613306565b604051808573ffffffffffffffffffffffffffffffffffffffff1673ffffffffffffffffffffffffffffffffffffffff1681526020018481526020018373ffffffffffffffffffffffffffffffffffffffff1673ffffffffffffffffffffffffffffffffffffffff16815260200182815260200194505050505060405180910390f35b3480156109d657600080fd5b506109df613631565b604051808273ffffffffffffffffffffffffffffffffffffffff1673ffffffffffffffffffffffffffffffffffffffff16815260200191505060405180910390f35b348015610a2d57600080fd5b50610a5e60048036036020811015610a4457600080fd5b81019080803561ffff16906020019092919050505061365b565b604051808461ffff1661ffff1681526020018360ff1660ff168152602001828152602001935050505060405180910390f35b348015610a9c57600080fd5b50610ae960048036036040811015610ab357600080fd5b81019080803573ffffffffffffffffffffffffffffffffffffffff169060200190929190803590602001909291905050506136e5565b005b348015610af757600080fd5b50610bb160048036036020811015610b0e57600080fd5b8101908080359060200190640100000000811115610b2b57600080fd5b820183602082011115610b3d57600080fd5b80359060200191846001830284011164010000000083111715610b5f57600080fd5b91908080601f016020809104026020016040519081016040528093929190818152602001838380828437600081840152601f19601f820116905080830192505050505050509192919290505050613939565b604051808261ffff1661ffff16815260200191505060405180910390f35b348015610bdb57600080fd5b50610c1e60048036036020811015610bf257600080fd5b81019080803573ffffffffffffffffffffffffffffffffffffffff1690602001909291905050506139ba565b005b348015610c2c57600080fd5b50610c5d60048036036020811015610c4357600080fd5b81019080803561ffff169060200190929190505050613b4e565b604051808573ffffffffffffffffffffffffffffffffffffffff1673ffffffffffffffffffffffffffffffffffffffff1681526020018481526020018373ffffffffffffffffffffffffffffffffffffffff1673ffffffffffffffffffffffffffffffffffffffff16815260200182815260200194505050505060405180910390f35b348015610cec57600080fd5b50610d2f60048036036020811015610d0357600080fd5b81019080803573ffffffffffffffffffffffffffffffffffffffff169060200190929190505050613e79565b6040518082815260200191505060405180910390f35b348015610d5157600080fd5b50610d7e60048036036020811015610d6857600080fd5b8101908080359060200190929190505050613f5b565b604051808360ff1660ff1681526020018261ffff1661ffff1681526020019250505060405180910390f35b348015610db557600080fd5b50610df860048036036020811015610dcc57600080fd5b81019080803573ffffffffffffffffffffffffffffffffffffffff169060200190929190505050613fb0565b005b348015610e0657600080fd5b50610e3760048036036020811015610e1d57600080fd5b81019080803561ffff1690602001909291905050506141c0565b604051808573ffffffffffffffffffffffffffffffffffffffff1673ffffffffffffffffffffffffffffffffffffffff1681526020018481526020018373ffffffffffffffffffffffffffffffffffffffff1673ffffffffffffffffffffffffffffffffffffffff16815260200182815260200194505050505060405180910390f35b348015610ec657600080fd5b50610f0560048036036040811015610edd57600080fd5b81019080803561ffff169060200190929190803561ffff1690602001909291905050506144eb565b604051808260ff1660ff16815260200191505060405180910390f35b8760008161ffff1690503373ffffffffffffffffffffffffffffffffffffffff16600b60009054906101000a900473ffffffffffffffffffffffffffffffffffffffff1673ffffffffffffffffffffffffffffffffffffffff16636352211e836040518263ffffffff1660e01b81526004018082815260200191505060206040518083038186803b158015610fb557600080fd5b505afa158015610fc9573d6000803e3d6000fd5b505050506040513d6020811015610fdf57600080fd5b810190808051906020019092919050505073ffffffffffffffffffffffffffffffffffffffff161461105c576040517f08c379a00000000000000000000000000000000000000000000000000000000081526004018080602001828103825260348152602001806147f46034913960400191505060405180910390fd5b88600d60008c61ffff1661ffff1681526020019081526020016000206000018190555087600d60008c61ffff1661ffff1681526020019081526020016000206001018190555086600d60008c61ffff1661ffff1681526020019081526020016000206002018190555085600d60008c61ffff1661ffff1681526020019081526020016000206003018190555084600d60008c61ffff1661ffff1681526020019081526020016000206004018190555083600d60008c61ffff1661ffff1681526020019081526020016000206005018190555082600d60008c61ffff1661ffff16815260200190815260200160002060060160006101000a81548173ffffffffffffffffffffffffffffffffffffffff021916908373ffffffffffffffffffffffffffffffffffffffff16021790555050505050505050505050565b61119f613631565b73ffffffffffffffffffffffffffffffffffffffff163373ffffffffffffffffffffffffffffffffffffffff1614806112255750601060009054906101000a900473ffffffffffffffffffffffffffffffffffffffff1673ffffffffffffffffffffffffffffffffffffffff163373ffffffffffffffffffffffffffffffffffffffff16145b61127a576040517f08c379a00000000000000000000000000000000000000000000000000000000081526004018080602001828103825260328152602001806148286032913960400191505060405180910390fd5b61128261467f565b600e60008461ffff1661ffff168152602001908152602001600020604051806080016040529081600082018054600181600116156101000203166002900480601f0160208091040260200160405190810160405280929190818152602001828054600181600116156101000203166002900480156113415780601f1061131657610100808354040283529160200191611341565b820191906000526020600020905b81548152906001019060200180831161132457829003601f168201915b505050505081526020016001820160009054906101000a900461ffff1661ffff1661ffff1681526020016001820160029054906101000a900460ff1660ff1660ff1681526020016002820154815250509050600088141561140a576040517f08c379a000000000000000000000000000000000000000000000000000000000815260040180806020018281038252601d8152602001807f50414d3a4341433a20546f6b656e2069642063616e6e6f74206265203000000081525060200191505060405180910390fd5b60008260ff161415611484576040517f08c379a000000000000000000000000000000000000000000000000000000000815260040180806020018281038252601f8152602001807f50414d3a4341433a437573746f6479547970652063616e6e6f7420626520300081525060200191505060405180910390fd5b6000816040015160ff161415806114a257508361ffff168361ffff16145b6114f7576040517f08c379a00000000000000000000000000000000000000000000000000000000081526004018080602001828103825260278152602001806147cd6027913960400191505060405180910390fd5b83600f8787604051808383808284378083019250505092505050908152602001604051809103902060006101000a81548161ffff021916908361ffff1602179055508585600e60008761ffff1661ffff16815260200190815260200160002060000191906115669291906146ae565b5082600e60008661ffff1661ffff16815260200190815260200160002060010160006101000a81548161ffff021916908361ffff16021790555081600e60008661ffff1661ffff16815260200190815260200160002060010160026101000a81548160ff021916908360ff160217905550600b60009054906101000a900473ffffffffffffffffffffffffffffffffffffffff1673ffffffffffffffffffffffffffffffffffffffff166375cbe8ca888a6040518363ffffffff1660e01b8152600401808373ffffffffffffffffffffffffffffffffffffffff1673ffffffffffffffffffffffffffffffffffffffff16815260200182815260200180602001828103825260178152602001807f707275662e696f2f6173736574436c617373546f6b656e0000000000000000008152506020019350505050602060405180830381600087803b1580156116b957600080fd5b505af11580156116cd573d6000803e3d6000fd5b505050506040513d60208110156116e357600080fd5b8101908080519060200190929190505050505050505050505050565b600063150b7a0260e01b905095945050505050565b60008060008061172261467f565b61172b86614569565b905061173561472e565b600d60008861ffff1661ffff1681526020019081526020016000206040518060e00160405290816000820154815260200160018201548152602001600282015481526020016003820154815260200160048201548152602001600582015481526020016006820160009054906101000a900473ffffffffffffffffffffffffffffffffffffffff1673ffffffffffffffffffffffffffffffffffffffff1673ffffffffffffffffffffffffffffffffffffffff1681525050905060008260200151905061180061472e565b600d60008361ffff1661ffff1681526020019081526020016000206040518060e00160405290816000820154815260200160018201548152602001600282015481526020016003820154815260200160048201548152602001600582015481526020016006820160009054906101000a900473ffffffffffffffffffffffffffffffffffffffff1673ffffffffffffffffffffffffffffffffffffffff1673ffffffffffffffffffffffffffffffffffffffff1681525050905060008961ffff169050600a60009054906101000a900473ffffffffffffffffffffffffffffffffffffffff1673ffffffffffffffffffffffffffffffffffffffff16600b60009054906101000a900473ffffffffffffffffffffffffffffffffffffffff1673ffffffffffffffffffffffffffffffffffffffff16636352211e836040518263ffffffff1660e01b81526004018082815260200191505060206040518083038186803b15801561196f57600080fd5b505afa158015611983573d6000803e3d6000fd5b505050506040513d602081101561199957600080fd5b810190808051906020019092919050505073ffffffffffffffffffffffffffffffffffffffff161415611a17576040517f08c379a000000000000000000000000000000000000000000000000000000000815260040180806020018281038252602781526020018061485a6027913960400191505060405180910390fd5b8160c0015182606001518560c001518660600151985098509850985050505050509193509193565b600080600080611a4d61467f565b611a5686614569565b9050611a6061472e565b600d60008861ffff1661ffff1681526020019081526020016000206040518060e00160405290816000820154815260200160018201548152602001600282015481526020016003820154815260200160048201548152602001600582015481526020016006820160009054906101000a900473ffffffffffffffffffffffffffffffffffffffff1673ffffffffffffffffffffffffffffffffffffffff1673ffffffffffffffffffffffffffffffffffffffff16815250509050600082602001519050611b2b61472e565b600d60008361ffff1661ffff1681526020019081526020016000206040518060e00160405290816000820154815260200160018201548152602001600282015481526020016003820154815260200160048201548152602001600582015481526020016006820160009054906101000a900473ffffffffffffffffffffffffffffffffffffffff1673ffffffffffffffffffffffffffffffffffffffff1673ffffffffffffffffffffffffffffffffffffffff1681525050905060008961ffff169050600a60009054906101000a900473ffffffffffffffffffffffffffffffffffffffff1673ffffffffffffffffffffffffffffffffffffffff16600b60009054906101000a900473ffffffffffffffffffffffffffffffffffffffff1673ffffffffffffffffffffffffffffffffffffffff16636352211e836040518263ffffffff1660e01b81526004018082815260200191505060206040518083038186803b158015611c9a57600080fd5b505afa158015611cae573d6000803e3d6000fd5b505050506040513d6020811015611cc457600080fd5b810190808051906020019092919050505073ffffffffffffffffffffffffffffffffffffffff161415611d42576040517f08c379a000000000000000000000000000000000000000000000000000000000815260040180806020018281038252602781526020018061485a6027913960400191505060405180910390fd5b8160c0015182604001518560c001518660400151985098509850985050505050509193509193565b60026001541415611de3576040517f08c379a000000000000000000000000000000000000000000000000000000000815260040180806020018281038252601f8152602001807f5265656e7472616e637947756172643a207265656e7472616e742063616c6c0081525060200191505060405180910390fd5b6002600181905550611df433611ec3565b60018081905550565b60606000829050600e60008261ffff1661ffff1681526020019081526020016000206000018054600181600116156101000203166002900480601f016020809104026020016040519081016040528092919081815260200182805460018160011615610100020316600290048015611eb65780601f10611e8b57610100808354040283529160200191611eb6565b820191906000526020600020905b815481529060010190602001808311611e9957829003601f168201915b5050505050915050919050565b6000809054906101000a900473ffffffffffffffffffffffffffffffffffffffff1673ffffffffffffffffffffffffffffffffffffffff166351cff8d9826040518263ffffffff1660e01b8152600401808273ffffffffffffffffffffffffffffffffffffffff1673ffffffffffffffffffffffffffffffffffffffff168152602001915050600060405180830381600087803b158015611f6357600080fd5b505af1158015611f77573d6000803e3d6000fd5b5050505050565b611f86614677565b73ffffffffffffffffffffffffffffffffffffffff16600260009054906101000a900473ffffffffffffffffffffffffffffffffffffffff1673ffffffffffffffffffffffffffffffffffffffff1614612048576040517f08c379a00000000000000000000000000000000000000000000000000000000081526004018080602001828103825260208152602001807f4f776e61626c653a2063616c6c6572206973206e6f7420746865206f776e657281525060200191505060405180910390fd5b600260015414156120c1576040517f08c379a000000000000000000000000000000000000000000000000000000000815260040180806020018281038252601f8152602001807f5265656e7472616e637947756172643a207265656e7472616e742063616c6c0081525060200191505060405180910390fd5b600260018190555060008160001c9050600960009054906101000a900473ffffffffffffffffffffffffffffffffffffffff1673ffffffffffffffffffffffffffffffffffffffff166342842e0e3085846040518463ffffffff1660e01b8152600401808473ffffffffffffffffffffffffffffffffffffffff1673ffffffffffffffffffffffffffffffffffffffff1681526020018373ffffffffffffffffffffffffffffffffffffffff1673ffffffffffffffffffffffffffffffffffffffff1681526020018281526020019350505050600060405180830381600087803b1580156121ae57600080fd5b505af11580156121c2573d6000803e3d6000fd5b5050505050600180819055505050565b8060008161ffff1690503373ffffffffffffffffffffffffffffffffffffffff16600b60009054906101000a900473ffffffffffffffffffffffffffffffffffffffff1673ffffffffffffffffffffffffffffffffffffffff16636352211e836040518263ffffffff1660e01b81526004018082815260200191505060206040518083038186803b15801561226657600080fd5b505afa15801561227a573d6000803e3d6000fd5b505050506040513d602081101561229057600080fd5b810190808051906020019092919050505073ffffffffffffffffffffffffffffffffffffffff161461230d576040517f08c379a00000000000000000000000000000000000000000000000000000000081526004018080602001828103825260348152602001806147f46034913960400191505060405180910390fd5b60008460ff161480612322575060018460ff16145b80612330575060028460ff16145b8061233e575060098460ff16145b8061234c575060638460ff16145b6123be576040517f08c379a00000000000000000000000000000000000000000000000000000000081526004018080602001828103825260188152602001807f50414d3a41553a496e76616c696420757365722074797065000000000000000081525060200191505060405180910390fd5b600085604051602001808273ffffffffffffffffffffffffffffffffffffffff1673ffffffffffffffffffffffffffffffffffffffff1660601b8152601401915050604051602081830303815290604052805190602001209050846003600083815260200190815260200160002060000160006101000a81548160ff021916908360ff160217905550836003600083815260200190815260200160002060000160016101000a81548161ffff021916908361ffff1602179055507f0340792b8e85fc146fec29e0594da83b9d759be9b011181f9fb0408314fc633560405180806020018281038252601e8152602001807f496e7465726e616c20757365722064617461626173652061636365737321000081525060200191505060405180910390a1505050505050565b60026001541415612561576040517f08c379a000000000000000000000000000000000000000000000000000000000815260040180806020018281038252601f8152602001807f5265656e7472616e637947756172643a207265656e7472616e742063616c6c0081525060200191505060405180910390fd5b6002600181905550612571614677565b73ffffffffffffffffffffffffffffffffffffffff16600260009054906101000a900473ffffffffffffffffffffffffffffffffffffffff1673ffffffffffffffffffffffffffffffffffffffff1614612633576040517f08c379a00000000000000000000000000000000000000000000000000000000081526004018080602001828103825260208152602001807f4f776e61626c653a2063616c6c6572206973206e6f7420746865206f776e657281525060200191505060405180910390fd5b600560009054906101000a900473ffffffffffffffffffffffffffffffffffffffff1673ffffffffffffffffffffffffffffffffffffffff1663c771a9826040518163ffffffff1660e01b815260040180806020018281038252600f8152602001807f6173736574436c617373546f6b656e0000000000000000000000000000000000815250602001915050602060405180830381600087803b1580156126d957600080fd5b505af11580156126ed573d6000803e3d6000fd5b505050506040513d602081101561270357600080fd5b8101908080519060200190929190505050600a60006101000a81548173ffffffffffffffffffffffffffffffffffffffff021916908373ffffffffffffffffffffffffffffffffffffffff160217905550600a60009054906101000a900473ffffffffffffffffffffffffffffffffffffffff16600b60006101000a81548173ffffffffffffffffffffffffffffffffffffffff021916908373ffffffffffffffffffffffffffffffffffffffff160217905550600560009054906101000a900473ffffffffffffffffffffffffffffffffffffffff1673ffffffffffffffffffffffffffffffffffffffff1663c771a9826040518163ffffffff1660e01b815260040180806020018281038252600b8152602001807f505255465f41435f4d4752000000000000000000000000000000000000000000815250602001915050602060405180830381600087803b15801561285d57600080fd5b505af1158015612871573d6000803e3d6000fd5b505050506040513d602081101561288757600080fd5b8101908080519060200190929190505050600660006101000a81548173ffffffffffffffffffffffffffffffffffffffff021916908373ffffffffffffffffffffffffffffffffffffffff160217905550600660009054906101000a900473ffffffffffffffffffffffffffffffffffffffff16600760006101000a81548173ffffffffffffffffffffffffffffffffffffffff021916908373ffffffffffffffffffffffffffffffffffffffff160217905550600560009054906101000a900473ffffffffffffffffffffffffffffffffffffffff1673ffffffffffffffffffffffffffffffffffffffff1663c771a9826040518163ffffffff1660e01b815260040180806020018281038252600a8152602001807f6173736574546f6b656e00000000000000000000000000000000000000000000815250602001915050602060405180830381600087803b1580156129e157600080fd5b505af11580156129f5573d6000803e3d6000fd5b505050506040513d6020811015612a0b57600080fd5b8101908080519060200190929190505050600860006101000a81548173ffffffffffffffffffffffffffffffffffffffff021916908373ffffffffffffffffffffffffffffffffffffffff160217905550600860009054906101000a900473ffffffffffffffffffffffffffffffffffffffff16600960006101000a81548173ffffffffffffffffffffffffffffffffffffffff021916908373ffffffffffffffffffffffffffffffffffffffff160217905550600560009054906101000a900473ffffffffffffffffffffffffffffffffffffffff1673ffffffffffffffffffffffffffffffffffffffff1663c771a9826040518163ffffffff1660e01b81526004018080602001828103825260088152602001807f505255465f415050000000000000000000000000000000000000000000000000815250602001915050602060405180830381600087803b158015612b6557600080fd5b505af1158015612b79573d6000803e3d6000fd5b505050506040513d6020811015612b8f57600080fd5b8101908080519060200190929190505050600c60006101000a81548173ffffffffffffffffffffffffffffffffffffffff021916908373ffffffffffffffffffffffffffffffffffffffff16021790555060018081905550565b6000806000806000806000808861ffff169050612c0461472e565b600d60008b61ffff1661ffff1681526020019081526020016000206040518060e00160405290816000820154815260200160018201548152602001600282015481526020016003820154815260200160048201548152602001600582015481526020016006820160009054906101000a900473ffffffffffffffffffffffffffffffffffffffff1673ffffffffffffffffffffffffffffffffffffffff1673ffffffffffffffffffffffffffffffffffffffff16815250509050600a60009054906101000a900473ffffffffffffffffffffffffffffffffffffffff1673ffffffffffffffffffffffffffffffffffffffff16600b60009054906101000a900473ffffffffffffffffffffffffffffffffffffffff1673ffffffffffffffffffffffffffffffffffffffff16636352211e846040518263ffffffff1660e01b81526004018082815260200191505060206040518083038186803b158015612d6a57600080fd5b505afa158015612d7e573d6000803e3d6000fd5b505050506040513d6020811015612d9457600080fd5b810190808051906020019092919050505073ffffffffffffffffffffffffffffffffffffffff161415612e12576040517f08c379a000000000000000000000000000000000000000000000000000000000815260040180806020018281038252602781526020018061485a6027913960400191505060405180910390fd5b806000015181602001518260400151836060015184608001518560a001518660c0015198509850985098509850985098505050919395979092949650565b612e58614677565b73ffffffffffffffffffffffffffffffffffffffff16600260009054906101000a900473ffffffffffffffffffffffffffffffffffffffff1673ffffffffffffffffffffffffffffffffffffffff1614612f1a576040517f08c379a00000000000000000000000000000000000000000000000000000000081526004018080602001828103825260208152602001807f4f776e61626c653a2063616c6c6572206973206e6f7420746865206f776e657281525060200191505060405180910390fd5b600073ffffffffffffffffffffffffffffffffffffffff16600260009054906101000a900473ffffffffffffffffffffffffffffffffffffffff1673ffffffffffffffffffffffffffffffffffffffff167f8be0079c531659141344cd1fd0a4f28419497f9722a3daafe3b4186f6b6457e060405160405180910390a36000600260006101000a81548173ffffffffffffffffffffffffffffffffffffffff021916908373ffffffffffffffffffffffffffffffffffffffff160217905550565b600080600080612fe961467f565b612ff286614569565b9050612ffc61472e565b600d60008861ffff1661ffff1681526020019081526020016000206040518060e00160405290816000820154815260200160018201548152602001600282015481526020016003820154815260200160048201548152602001600582015481526020016006820160009054906101000a900473ffffffffffffffffffffffffffffffffffffffff1673ffffffffffffffffffffffffffffffffffffffff1673ffffffffffffffffffffffffffffffffffffffff168152505090506000826020015190506130c761472e565b600d60008361ffff1661ffff1681526020019081526020016000206040518060e00160405290816000820154815260200160018201548152602001600282015481526020016003820154815260200160048201548152602001600582015481526020016006820160009054906101000a900473ffffffffffffffffffffffffffffffffffffffff1673ffffffffffffffffffffffffffffffffffffffff1673ffffffffffffffffffffffffffffffffffffffff1681525050905060008961ffff169050600a60009054906101000a900473ffffffffffffffffffffffffffffffffffffffff1673ffffffffffffffffffffffffffffffffffffffff16600b60009054906101000a900473ffffffffffffffffffffffffffffffffffffffff1673ffffffffffffffffffffffffffffffffffffffff16636352211e836040518263ffffffff1660e01b81526004018082815260200191505060206040518083038186803b15801561323657600080fd5b505afa15801561324a573d6000803e3d6000fd5b505050506040513d602081101561326057600080fd5b810190808051906020019092919050505073ffffffffffffffffffffffffffffffffffffffff1614156132de576040517f08c379a000000000000000000000000000000000000000000000000000000000815260040180806020018281038252602781526020018061485a6027913960400191505060405180910390fd5b8160c0015182600001518560c001518660000151985098509850985050505050509193509193565b60008060008061331461467f565b61331d86614569565b905061332761472e565b600d60008861ffff1661ffff1681526020019081526020016000206040518060e00160405290816000820154815260200160018201548152602001600282015481526020016003820154815260200160048201548152602001600582015481526020016006820160009054906101000a900473ffffffffffffffffffffffffffffffffffffffff1673ffffffffffffffffffffffffffffffffffffffff1673ffffffffffffffffffffffffffffffffffffffff168152505090506000826020015190506133f261472e565b600d60008361ffff1661ffff1681526020019081526020016000206040518060e00160405290816000820154815260200160018201548152602001600282015481526020016003820154815260200160048201548152602001600582015481526020016006820160009054906101000a900473ffffffffffffffffffffffffffffffffffffffff1673ffffffffffffffffffffffffffffffffffffffff1673ffffffffffffffffffffffffffffffffffffffff1681525050905060008961ffff169050600a60009054906101000a900473ffffffffffffffffffffffffffffffffffffffff1673ffffffffffffffffffffffffffffffffffffffff16600b60009054906101000a900473ffffffffffffffffffffffffffffffffffffffff1673ffffffffffffffffffffffffffffffffffffffff16636352211e836040518263ffffffff1660e01b81526004018082815260200191505060206040518083038186803b15801561356157600080fd5b505afa158015613575573d6000803e3d6000fd5b505050506040513d602081101561358b57600080fd5b810190808051906020019092919050505073ffffffffffffffffffffffffffffffffffffffff161415613609576040517f08c379a000000000000000000000000000000000000000000000000000000000815260040180806020018281038252602781526020018061485a6027913960400191505060405180910390fd5b8160c0015182608001518560c001518660800151985098509850985050505050509193509193565b6000600260009054906101000a900473ffffffffffffffffffffffffffffffffffffffff16905090565b6000806000600e60008561ffff1661ffff16815260200190815260200160002060010160009054906101000a900461ffff16600e60008661ffff1661ffff16815260200190815260200160002060010160029054906101000a900460ff16600e60008761ffff1661ffff168152602001908152602001600020600201549250925092509193909250565b6136ed614677565b73ffffffffffffffffffffffffffffffffffffffff16600260009054906101000a900473ffffffffffffffffffffffffffffffffffffffff1673ffffffffffffffffffffffffffffffffffffffff16146137af576040517f08c379a00000000000000000000000000000000000000000000000000000000081526004018080602001828103825260208152602001807f4f776e61626c653a2063616c6c6572206973206e6f7420746865206f776e657281525060200191505060405180910390fd5b60026001541415613828576040517f08c379a000000000000000000000000000000000000000000000000000000000815260040180806020018281038252601f8152602001807f5265656e7472616e637947756172643a207265656e7472616e742063616c6c0081525060200191505060405180910390fd5b600260018190555060008160001c9050600b60009054906101000a900473ffffffffffffffffffffffffffffffffffffffff1673ffffffffffffffffffffffffffffffffffffffff166342842e0e3085846040518463ffffffff1660e01b8152600401808473ffffffffffffffffffffffffffffffffffffffff1673ffffffffffffffffffffffffffffffffffffffff1681526020018373ffffffffffffffffffffffffffffffffffffffff1673ffffffffffffffffffffffffffffffffffffffff1681526020018281526020019350505050600060405180830381600087803b15801561391557600080fd5b505af1158015613929573d6000803e3d6000fd5b5050505050600180819055505050565b6000600f826040518082805190602001908083835b60208310613971578051825260208201915060208101905060208303925061394e565b6001836020036101000a038019825116818451168082178552505050505050905001915050908152602001604051809103902060009054906101000a900461ffff169050919050565b6139c2614677565b73ffffffffffffffffffffffffffffffffffffffff16600260009054906101000a900473ffffffffffffffffffffffffffffffffffffffff1673ffffffffffffffffffffffffffffffffffffffff1614613a84576040517f08c379a00000000000000000000000000000000000000000000000000000000081526004018080602001828103825260208152602001807f4f776e61626c653a2063616c6c6572206973206e6f7420746865206f776e657281525060200191505060405180910390fd5b600073ffffffffffffffffffffffffffffffffffffffff168173ffffffffffffffffffffffffffffffffffffffff161415613b0a576040517f08c379a00000000000000000000000000000000000000000000000000000000081526004018080602001828103825260268152602001806148816026913960400191505060405180910390fd5b80600560006101000a81548173ffffffffffffffffffffffffffffffffffffffff021916908373ffffffffffffffffffffffffffffffffffffffff16021790555050565b600080600080613b5c61467f565b613b6586614569565b9050613b6f61472e565b600d60008861ffff1661ffff1681526020019081526020016000206040518060e00160405290816000820154815260200160018201548152602001600282015481526020016003820154815260200160048201548152602001600582015481526020016006820160009054906101000a900473ffffffffffffffffffffffffffffffffffffffff1673ffffffffffffffffffffffffffffffffffffffff1673ffffffffffffffffffffffffffffffffffffffff16815250509050600082602001519050613c3a61472e565b600d60008361ffff1661ffff1681526020019081526020016000206040518060e00160405290816000820154815260200160018201548152602001600282015481526020016003820154815260200160048201548152602001600582015481526020016006820160009054906101000a900473ffffffffffffffffffffffffffffffffffffffff1673ffffffffffffffffffffffffffffffffffffffff1673ffffffffffffffffffffffffffffffffffffffff1681525050905060008961ffff169050600a60009054906101000a900473ffffffffffffffffffffffffffffffffffffffff1673ffffffffffffffffffffffffffffffffffffffff16600b60009054906101000a900473ffffffffffffffffffffffffffffffffffffffff1673ffffffffffffffffffffffffffffffffffffffff16636352211e836040518263ffffffff1660e01b81526004018082815260200191505060206040518083038186803b158015613da957600080fd5b505afa158015613dbd573d6000803e3d6000fd5b505050506040513d6020811015613dd357600080fd5b810190808051906020019092919050505073ffffffffffffffffffffffffffffffffffffffff161415613e51576040517f08c379a000000000000000000000000000000000000000000000000000000000815260040180806020018281038252602781526020018061485a6027913960400191505060405180910390fd5b8160c0015182602001518560c001518660200151985098509850985050505050509193509193565b60008060009054906101000a900473ffffffffffffffffffffffffffffffffffffffff1673ffffffffffffffffffffffffffffffffffffffff1663e3a9db1a836040518263ffffffff1660e01b8152600401808273ffffffffffffffffffffffffffffffffffffffff1673ffffffffffffffffffffffffffffffffffffffff16815260200191505060206040518083038186803b158015613f1957600080fd5b505afa158015613f2d573d6000803e3d6000fd5b505050506040513d6020811015613f4357600080fd5b81019080805190602001909291905050509050919050565b6000806003600084815260200190815260200160002060000160009054906101000a900460ff166003600085815260200190815260200160002060000160019054906101000a900461ffff1691509150915091565b613fb8614677565b73ffffffffffffffffffffffffffffffffffffffff16600260009054906101000a900473ffffffffffffffffffffffffffffffffffffffff1673ffffffffffffffffffffffffffffffffffffffff161461407a576040517f08c379a00000000000000000000000000000000000000000000000000000000081526004018080602001828103825260208152602001807f4f776e61626c653a2063616c6c6572206973206e6f7420746865206f776e657281525060200191505060405180910390fd5b600073ffffffffffffffffffffffffffffffffffffffff168173ffffffffffffffffffffffffffffffffffffffff161415614100576040517f08c379a00000000000000000000000000000000000000000000000000000000081526004018080602001828103825260268152602001806147a76026913960400191505060405180910390fd5b8073ffffffffffffffffffffffffffffffffffffffff16600260009054906101000a900473ffffffffffffffffffffffffffffffffffffffff1673ffffffffffffffffffffffffffffffffffffffff167f8be0079c531659141344cd1fd0a4f28419497f9722a3daafe3b4186f6b6457e060405160405180910390a380600260006101000a81548173ffffffffffffffffffffffffffffffffffffffff021916908373ffffffffffffffffffffffffffffffffffffffff16021790555050565b6000806000806141ce61467f565b6141d786614569565b90506141e161472e565b600d60008861ffff1661ffff1681526020019081526020016000206040518060e00160405290816000820154815260200160018201548152602001600282015481526020016003820154815260200160048201548152602001600582015481526020016006820160009054906101000a900473ffffffffffffffffffffffffffffffffffffffff1673ffffffffffffffffffffffffffffffffffffffff1673ffffffffffffffffffffffffffffffffffffffff168152505090506000826020015190506142ac61472e565b600d60008361ffff1661ffff1681526020019081526020016000206040518060e00160405290816000820154815260200160018201548152602001600282015481526020016003820154815260200160048201548152602001600582015481526020016006820160009054906101000a900473ffffffffffffffffffffffffffffffffffffffff1673ffffffffffffffffffffffffffffffffffffffff1673ffffffffffffffffffffffffffffffffffffffff1681525050905060008961ffff169050600a60009054906101000a900473ffffffffffffffffffffffffffffffffffffffff1673ffffffffffffffffffffffffffffffffffffffff16600b60009054906101000a900473ffffffffffffffffffffffffffffffffffffffff1673ffffffffffffffffffffffffffffffffffffffff16636352211e836040518263ffffffff1660e01b81526004018082815260200191505060206040518083038186803b15801561441b57600080fd5b505afa15801561442f573d6000803e3d6000fd5b505050506040513d602081101561444557600080fd5b810190808051906020019092919050505073ffffffffffffffffffffffffffffffffffffffff1614156144c3576040517f08c379a000000000000000000000000000000000000000000000000000000000815260040180806020018281038252602781526020018061485a6027913960400191505060405180910390fd5b8160c001518260a001518560c001518660a00151985098509850985050505050509193509193565b6000600e60008361ffff1661ffff16815260200190815260200160002060010160009054906101000a900461ffff1661ffff16600e60008561ffff1661ffff16815260200190815260200160002060010160009054906101000a900461ffff1661ffff16141561455e5760aa9050614563565b600090505b92915050565b61457161467f565b61457961467f565b600760009054906101000a900473ffffffffffffffffffffffffffffffffffffffff1673ffffffffffffffffffffffffffffffffffffffff166396135702846040518263ffffffff1660e01b8152600401808261ffff1661ffff168152602001915050606060405180830381600087803b1580156145f657600080fd5b505af115801561460a573d6000803e3d6000fd5b505050506040513d606081101561462057600080fd5b81019080805190602001909291908051906020019092919080519060200190929190505050836020018460400185606001838152508360ff1660ff168152508361ffff1661ffff1681525050505080915050919050565b600033905090565b604051806080016040528060608152602001600061ffff168152602001600060ff168152602001600081525090565b828054600181600116156101000203166002900490600052602060002090601f016020900481019282601f106146ef57803560ff191683800117855561471d565b8280016001018555821561471d579182015b8281111561471c578235825591602001919060010190614701565b5b50905061472a9190614781565b5090565b6040518060e00160405280600081526020016000815260200160008152602001600081526020016000815260200160008152602001600073ffffffffffffffffffffffffffffffffffffffff1681525090565b6147a391905b8082111561479f576000816000905550600101614787565b5090565b9056fe4f776e61626c653a206e6577206f776e657220697320746865207a65726f206164647265737350414d3a4341433a526f6f7420617373657420636c61737320646f6573206e6f7420657869737450414d3a49414354486f433a6d73672e73656e646572206e6f7420617574686f72697a656420696e20617373657420636c61737350414d3a49413a43616c6c696e67206164647265737320646f6573206e6f742062656c6f6e6720746f20616e2041646d696e50414d3a436f7374733a417373657420636c617373206e6f742079657420706f70756c6174656450433a5353433a2073746f7261676520616464726573732063616e6e6f74206265207a65726fa2646970667358221220dcd0a6d4d42473c3dbf666e232c9837399bff1ad7a55b819d0dd56136878869564736f6c63430006090033608060405234801561001057600080fd5b5060006100216100c460201b60201c565b9050806000806101000a81548173ffffffffffffffffffffffffffffffffffffffff021916908373ffffffffffffffffffffffffffffffffffffffff1602179055508073ffffffffffffffffffffffffffffffffffffffff16600073ffffffffffffffffffffffffffffffffffffffff167f8be0079c531659141344cd1fd0a4f28419497f9722a3daafe3b4186f6b6457e060405160405180910390a3506100cc565b600033905090565b610bfc806100db6000396000f3fe6080604052600436106100555760003560e01c806351cff8d91461005a578063715018a6146100ab5780638da5cb5b146100c2578063e3a9db1a14610119578063f2fde38b1461017e578063f340fa01146101cf575b600080fd5b34801561006657600080fd5b506100a96004803603602081101561007d57600080fd5b81019080803573ffffffffffffffffffffffffffffffffffffffff169060200190929190505050610213565b005b3480156100b757600080fd5b506100c06103e0565b005b3480156100ce57600080fd5b506100d7610568565b604051808273ffffffffffffffffffffffffffffffffffffffff1673ffffffffffffffffffffffffffffffffffffffff16815260200191505060405180910390f35b34801561012557600080fd5b506101686004803603602081101561013c57600080fd5b81019080803573ffffffffffffffffffffffffffffffffffffffff169060200190929190505050610591565b6040518082815260200191505060405180910390f35b34801561018a57600080fd5b506101cd600480360360208110156101a157600080fd5b81019080803573ffffffffffffffffffffffffffffffffffffffff1690602001909291905050506105da565b005b610211600480360360208110156101e557600080fd5b81019080803573ffffffffffffffffffffffffffffffffffffffff1690602001909291905050506107e7565b005b61021b61099c565b73ffffffffffffffffffffffffffffffffffffffff166000809054906101000a900473ffffffffffffffffffffffffffffffffffffffff1673ffffffffffffffffffffffffffffffffffffffff16146102dc576040517f08c379a00000000000000000000000000000000000000000000000000000000081526004018080602001828103825260208152602001807f4f776e61626c653a2063616c6c6572206973206e6f7420746865206f776e657281525060200191505060405180910390fd5b6000600160008373ffffffffffffffffffffffffffffffffffffffff1673ffffffffffffffffffffffffffffffffffffffff1681526020019081526020016000205490506000600160008473ffffffffffffffffffffffffffffffffffffffff1673ffffffffffffffffffffffffffffffffffffffff1681526020019081526020016000208190555061038e818373ffffffffffffffffffffffffffffffffffffffff166109a490919063ffffffff16565b8173ffffffffffffffffffffffffffffffffffffffff167f7084f5476618d8e60b11ef0d7d3f06914655adb8793e28ff7f018d4c76d505d5826040518082815260200191505060405180910390a25050565b6103e861099c565b73ffffffffffffffffffffffffffffffffffffffff166000809054906101000a900473ffffffffffffffffffffffffffffffffffffffff1673ffffffffffffffffffffffffffffffffffffffff16146104a9576040517f08c379a00000000000000000000000000000000000000000000000000000000081526004018080602001828103825260208152602001807f4f776e61626c653a2063616c6c6572206973206e6f7420746865206f776e657281525060200191505060405180910390fd5b600073ffffffffffffffffffffffffffffffffffffffff166000809054906101000a900473ffffffffffffffffffffffffffffffffffffffff1673ffffffffffffffffffffffffffffffffffffffff167f8be0079c531659141344cd1fd0a4f28419497f9722a3daafe3b4186f6b6457e060405160405180910390a360008060006101000a81548173ffffffffffffffffffffffffffffffffffffffff021916908373ffffffffffffffffffffffffffffffffffffffff160217905550565b60008060009054906101000a900473ffffffffffffffffffffffffffffffffffffffff16905090565b6000600160008373ffffffffffffffffffffffffffffffffffffffff1673ffffffffffffffffffffffffffffffffffffffff168152602001908152602001600020549050919050565b6105e261099c565b73ffffffffffffffffffffffffffffffffffffffff166000809054906101000a900473ffffffffffffffffffffffffffffffffffffffff1673ffffffffffffffffffffffffffffffffffffffff16146106a3576040517f08c379a00000000000000000000000000000000000000000000000000000000081526004018080602001828103825260208152602001807f4f776e61626c653a2063616c6c6572206973206e6f7420746865206f776e657281525060200191505060405180910390fd5b600073ffffffffffffffffffffffffffffffffffffffff168173ffffffffffffffffffffffffffffffffffffffff161415610729576040517f08c379a0000000000000000000000000000000000000000000000000000000008152600401808060200182810382526026815260200180610b676026913960400191505060405180910390fd5b8073ffffffffffffffffffffffffffffffffffffffff166000809054906101000a900473ffffffffffffffffffffffffffffffffffffffff1673ffffffffffffffffffffffffffffffffffffffff167f8be0079c531659141344cd1fd0a4f28419497f9722a3daafe3b4186f6b6457e060405160405180910390a3806000806101000a81548173ffffffffffffffffffffffffffffffffffffffff021916908373ffffffffffffffffffffffffffffffffffffffff16021790555050565b6107ef61099c565b73ffffffffffffffffffffffffffffffffffffffff166000809054906101000a900473ffffffffffffffffffffffffffffffffffffffff1673ffffffffffffffffffffffffffffffffffffffff16146108b0576040517f08c379a00000000000000000000000000000000000000000000000000000000081526004018080602001828103825260208152602001807f4f776e61626c653a2063616c6c6572206973206e6f7420746865206f776e657281525060200191505060405180910390fd5b600034905061090781600160008573ffffffffffffffffffffffffffffffffffffffff1673ffffffffffffffffffffffffffffffffffffffff16815260200190815260200160002054610ade90919063ffffffff16565b600160008473ffffffffffffffffffffffffffffffffffffffff1673ffffffffffffffffffffffffffffffffffffffff168152602001908152602001600020819055508173ffffffffffffffffffffffffffffffffffffffff167f2da466a7b24304f47e87fa2e1e5a81b9831ce54fec19055ce277ca2f39ba42c4826040518082815260200191505060405180910390a25050565b600033905090565b80471015610a1a576040517f08c379a000000000000000000000000000000000000000000000000000000000815260040180806020018281038252601d8152602001807f416464726573733a20696e73756666696369656e742062616c616e636500000081525060200191505060405180910390fd5b60008273ffffffffffffffffffffffffffffffffffffffff168260405180600001905060006040518083038185875af1925050503d8060008114610a7a576040519150601f19603f3d011682016040523d82523d6000602084013e610a7f565b606091505b5050905080610ad9576040517f08c379a000000000000000000000000000000000000000000000000000000000815260040180806020018281038252603a815260200180610b8d603a913960400191505060405180910390fd5b505050565b600080828401905083811015610b5c576040517f08c379a000000000000000000000000000000000000000000000000000000000815260040180806020018281038252601b8152602001807f536166654d6174683a206164646974696f6e206f766572666c6f77000000000081525060200191505060405180910390fd5b809150509291505056fe4f776e61626c653a206e6577206f776e657220697320746865207a65726f2061646472657373416464726573733a20756e61626c6520746f2073656e642076616c75652c20726563697069656e74206d61792068617665207265766572746564a26469706673582212204b7e8fd8b2b110e71f33e2c56c66ce33f0675b4dba7b26855211e02bc3e7e17164736f6c63430006090033",
  "immutableReferences": {},
  "source": "/*-----------------------------------------------------------------\n *  TO DO\n *\n*-----------------------------------------------------------------\n*/\n\n// SPDX-License-Identifier: UNLICENSED\npragma solidity ^0.6.7;\n\nimport \"./PRUF_core_065.sol\";\n\ncontract PRUF_AC_MGR is PRUF {\n    using SafeMath for uint256;\n    using SafeMath for uint8;\n\n    mapping(uint16 => Costs) private cost; // Cost per function by asset class\n    mapping(uint16 => AC) internal AC_data; // AC info database\n    mapping(string => uint16) internal AC_number;\n\n    address AC_minterAddress;\n    uint256 private priceThreshold; //threshold of price where fractional pricing is implemented\n\n    /*\n     * @dev Verify user credentials\n     * Originating Address:\n     *      is owner\n     */\n    modifier isAdmin() {\n        require(\n            (msg.sender == owner()) || (msg.sender == AC_minterAddress),\n            \"PAM:IA:Calling address does not belong to an Admin\"\n        );\n        _;\n    }\n\n    /*\n     * @dev Verify caller holds ACtoken of passed assetClass\n     */\n    modifier isACtokenHolderOfClass(uint16 _assetClass) {\n        uint256 assetClass256 = uint256(_assetClass);\n        require(\n            (AssetClassTokenContract.ownerOf(assetClass256) == msg.sender),\n            \"PAM:IACTHoC:msg.sender not authorized in asset class\"\n        );\n        _;\n    }\n\n    //--------------------------------------------External Functions--------------------------\n    /*\n     * @dev Authorize / Deauthorize / Authorize users for an address be permitted to make record modifications\n     * ----------------INSECURE -- keccak256 of address must be generated clientside in release.\n     */\n    function OO_addUser(\n        address _authAddr,\n        uint8 _userType,\n        uint16 _assetClass\n    ) external isACtokenHolderOfClass(_assetClass) {\n        require(\n            (_userType == 0) ||\n                (_userType == 1) ||\n                (_userType == 2) ||\n                (_userType == 9) ||\n                (_userType == 99),\n            \"PAM:AU:Invalid user type\"\n        );\n        //^^^^^^^checks^^^^^^^^^\n\n        bytes32 addrHash = keccak256(abi.encodePacked(_authAddr));\n\n        registeredUsers[addrHash].userType = _userType;\n        registeredUsers[addrHash].authorizedAssetClass = _assetClass;\n        //^^^^^^^effects^^^^^^^^^\n        emit REPORT(\"Internal user database access!\"); //report access to the internal user database\n        //^^^^^^^interactions^^^^^^^^^\n    }\n\n    /*\n     * @dev Mints asset class @ address\n     */\n    function createAssetClass(\n        uint256 _tokenId,\n        address _recipientAddress,\n        string calldata _name,\n        uint16 _assetClass,\n        uint16 _assetClassRoot,\n        uint8 _custodyType\n    ) external isAdmin {\n        AC memory _ac = AC_data[_assetClassRoot];\n\n        require((_tokenId != 0), \"PAM:CAC: Token id cannot be 0\"); //sanity check inputs\n        require((_custodyType != 0), \"PAM:CAC:CustodyType cannot be 0\"); //sanity check inputs\n        require( //has valid root\n            (_ac.custodyType != 0) || (_assetClassRoot == _assetClass),\n            \"PAM:CAC:Root asset class does not exist\"\n        );\n        //^^^^^^^checks^^^^^^^^^\n\n        AC_number[_name] = _assetClass;\n        AC_data[_assetClass].name = _name;\n        AC_data[_assetClass].assetClassRoot = _assetClassRoot;\n        AC_data[_assetClass].custodyType = _custodyType;\n        //^^^^^^^effects^^^^^^^^^\n\n        AssetClassTokenContract.mintACToken(\n            _recipientAddress,\n            _tokenId,\n            \"pruf.io/assetClassToken\"\n        );\n        //^^^^^^^interactions^^^^^^^^^\n    }\n\n    /*\n     * @dev Set function costs and payment address per asset class, in Wei\n     */\n    function ACTH_setCosts(\n        uint16 _class,\n        uint256 _newRecordCost,\n        uint256 _transferAssetCost,\n        uint256 _createNoteCost,\n        uint256 _reMintRecordCost,\n        uint256 _changeStatusCost,\n        uint256 _forceModifyCost,\n        address _paymentAddress\n    ) external isACtokenHolderOfClass(_class) {\n        //^^^^^^^checks^^^^^^^^^\n        cost[_class].newRecordCost = _newRecordCost;\n        cost[_class].transferAssetCost = _transferAssetCost;\n        cost[_class].createNoteCost = _createNoteCost;\n        cost[_class].reMintRecordCost = _reMintRecordCost;\n        cost[_class].changeStatusCost = _changeStatusCost;\n        cost[_class].forceModifyCost = _forceModifyCost;\n        cost[_class].paymentAddress = _paymentAddress;\n        //^^^^^^^effects^^^^^^^^^\n    }\n\n    /*\n     * @dev Retrieve AC_data @ _assetClass\n     */\n    function getAC_data(uint16 _assetClass)\n        external\n        view\n        returns (\n            uint16,\n            uint8,\n            uint256\n        )\n    {\n        //^^^^^^^checks^^^^^^^^^\n        return (\n            AC_data[_assetClass].assetClassRoot,\n            AC_data[_assetClass].custodyType,\n            AC_data[_assetClass].extendedData\n        );\n        //^^^^^^^interactions^^^^^^^^^\n    }\n\n    /*\n     * @dev compare the root of two asset classes\n     */\n    function isSameRootAC(uint16 _assetClass1, uint16 _assetClass2)\n        external\n        view\n        returns (\n            uint8\n        )\n    {\n        //^^^^^^^checks^^^^^^^^^\n        if (AC_data[_assetClass1].assetClassRoot == AC_data[_assetClass2].assetClassRoot){\n            return uint8 (170);\n        } else {\n            return uint8 (0);\n        }\n        //^^^^^^^interactions^^^^^^^^^\n    }\n\n    /*\n     * @dev Retrieve AC_name @ _tokenId\n     */\n    function getAC_name(uint256 _tokenId)\n        external\n        view\n        returns (string memory)\n    {\n        //^^^^^^^checks^^^^^^^^^\n        uint16 assetClass = uint16(_tokenId);\n        return (AC_data[assetClass].name);\n        //^^^^^^^interactions^^^^^^^^^\n    }\n\n    /*\n     * @dev Retrieve AC_number @ AC_name\n     */\n    function resolveAssetClass(string memory _name)\n        external\n        view\n        returns (uint16)\n    {\n        //^^^^^^^checks^^^^^^^^^\n        return (AC_number[_name]);\n        //^^^^^^^interactions^^^^^^^^^\n    }\n\n    /*\n     * @dev Retrieve function costs per asset class, in Wei\n     */\n    function getNewRecordCosts(uint16 _assetClass)\n        external\n        returns (\n            address,\n            uint256,\n            address,\n            uint256\n        )\n    {\n        AC memory AC_info = getACinfo(_assetClass);\n        Costs memory costs = cost[_assetClass];\n        uint16 rootAssetClass = AC_info.assetClassRoot;\n        Costs memory rootCosts = cost[rootAssetClass];\n        uint256 assetClass256 = uint256(_assetClass);\n\n        require(\n            (AssetClassTokenContract.ownerOf(assetClass256) !=\n                AssetClassTokenAddress), //this will throw in the token contract if not minted\n            \"PAM:Costs:Asset class not yet populated\"\n        );\n        //^^^^^^^checks^^^^^^^^^\n        return (\n            rootCosts.paymentAddress,\n            rootCosts.newRecordCost,\n            costs.paymentAddress,\n            costs.newRecordCost\n        );\n        //^^^^^^^interactions^^^^^^^^^\n    }\n\n    /*\n     * @dev Retrieve function costs per asset class, in Wei\n     */\n    function getTransferAssetCosts(uint16 _assetClass)\n        external\n        returns (\n            address,\n            uint256,\n            address,\n            uint256\n        )\n    {\n        AC memory AC_info = getACinfo(_assetClass);\n        Costs memory costs = cost[_assetClass];\n        uint16 rootAssetClass = AC_info.assetClassRoot;\n        Costs memory rootCosts = cost[rootAssetClass];\n        uint256 assetClass256 = uint256(_assetClass);\n\n        require(\n            (AssetClassTokenContract.ownerOf(assetClass256) !=\n                AssetClassTokenAddress), //this will throw in the token contract if not minted\n            \"PAM:Costs:Asset class not yet populated\"\n        );\n        //^^^^^^^checks^^^^^^^^^\n        return (\n            rootCosts.paymentAddress,\n            rootCosts.transferAssetCost,\n            costs.paymentAddress,\n            costs.transferAssetCost\n        );\n        //^^^^^^^interactions^^^^^^^^^\n    }\n\n    /*\n     * @dev Retrieve function costs per asset class, in Wei\n     */\n    function getCreateNoteCosts(uint16 _assetClass)\n        external\n        returns (\n            address,\n            uint256,\n            address,\n            uint256\n        )\n    {\n        AC memory AC_info = getACinfo(_assetClass);\n        Costs memory costs = cost[_assetClass];\n        uint16 rootAssetClass = AC_info.assetClassRoot;\n        Costs memory rootCosts = cost[rootAssetClass];\n        uint256 assetClass256 = uint256(_assetClass);\n\n        require(\n            (AssetClassTokenContract.ownerOf(assetClass256) !=\n                AssetClassTokenAddress), //this will throw in the token contract if not minted\n            \"PAM:Costs:Asset class not yet populated\"\n        );\n        //^^^^^^^checks^^^^^^^^^\n        return (\n            rootCosts.paymentAddress,\n            rootCosts.createNoteCost,\n            costs.paymentAddress,\n            costs.createNoteCost\n        );\n        //^^^^^^^interactions^^^^^^^^^\n    }\n\n    /*\n     * @dev Retrieve function costs per asset class, in Wei\n     */\n    function getReMintRecordCosts(uint16 _assetClass)\n        external\n        returns (\n            address,\n            uint256,\n            address,\n            uint256\n        )\n    {\n        AC memory AC_info = getACinfo(_assetClass);\n        Costs memory costs = cost[_assetClass];\n        uint16 rootAssetClass = AC_info.assetClassRoot;\n        Costs memory rootCosts = cost[rootAssetClass];\n        uint256 assetClass256 = uint256(_assetClass);\n\n        require(\n            (AssetClassTokenContract.ownerOf(assetClass256) !=\n                AssetClassTokenAddress), //this will throw in the token contract if not minted\n            \"PAM:Costs:Asset class not yet populated\"\n        );\n        //^^^^^^^checks^^^^^^^^^\n        return (\n            rootCosts.paymentAddress,\n            rootCosts.reMintRecordCost,\n            costs.paymentAddress,\n            costs.reMintRecordCost\n        );\n        //^^^^^^^Interactions^^^^^^^^^\n    }\n\n    /*\n     * @dev Retrieve function costs per asset class, in Wei\n     */\n    function getChangeStatusCosts(uint16 _assetClass)\n        external\n        returns (\n            address,\n            uint256,\n            address,\n            uint256\n        )\n    {\n        AC memory AC_info = getACinfo(_assetClass);\n        Costs memory costs = cost[_assetClass];\n        uint16 rootAssetClass = AC_info.assetClassRoot;\n        Costs memory rootCosts = cost[rootAssetClass];\n        uint256 assetClass256 = uint256(_assetClass);\n\n        require(\n            (AssetClassTokenContract.ownerOf(assetClass256) !=\n                AssetClassTokenAddress), //this will throw in the token contract if not minted\n            \"PAM:Costs:Asset class not yet populated\"\n        );\n        //^^^^^^^checks^^^^^^^^^\n        return (\n            rootCosts.paymentAddress,\n            rootCosts.changeStatusCost,\n            costs.paymentAddress,\n            costs.changeStatusCost\n        );\n        //^^^^^^^Interactions^^^^^^^^^\n    }\n\n    /*\n     * @dev Retrieve function costs per asset class, in Wei\n     */\n    function getForceModifyCosts(uint16 _assetClass)\n        external\n        returns (\n            address,\n            uint256,\n            address,\n            uint256\n        )\n    {\n        AC memory AC_info = getACinfo(_assetClass);\n        Costs memory costs = cost[_assetClass];\n        uint16 rootAssetClass = AC_info.assetClassRoot;\n        Costs memory rootCosts = cost[rootAssetClass];\n        uint256 assetClass256 = uint256(_assetClass);\n\n        require(\n            (AssetClassTokenContract.ownerOf(assetClass256) !=\n                AssetClassTokenAddress), //this will throw in the token contract if not minted\n            \"PAM:Costs:Asset class not yet populated\"\n        );\n        //^^^^^^^checks^^^^^^^^^\n        return (\n            rootCosts.paymentAddress,\n            rootCosts.forceModifyCost,\n            costs.paymentAddress,\n            costs.forceModifyCost\n        );\n        //^^^^^^^Interactions^^^^^^^^^\n    }\n\n    /*\n     * @dev Retrieve function costs per asset class, in Wei\n     */\n    function retrieveCosts(uint16 _assetClass)\n        external\n        view\n        returns (\n            uint256,\n            uint256,\n            uint256,\n            uint256,\n            uint256,\n            uint256,\n            address\n        )\n    {\n        uint256 assetClass256 = uint256(_assetClass);\n        Costs memory costs = cost[_assetClass];\n\n        require(\n            (AssetClassTokenContract.ownerOf(assetClass256) !=\n                AssetClassTokenAddress), //this will throw in the token contract if not minted\n            \"PAM:Costs:Asset class not yet populated\"\n        );\n        //^^^^^^^checks^^^^^^^^\n\n        return (\n            costs.newRecordCost,\n            costs.transferAssetCost,\n            costs.createNoteCost,\n            costs.reMintRecordCost,\n            costs.changeStatusCost,\n            costs.forceModifyCost,\n            costs.paymentAddress\n        );\n        //^^^^^^^interactions^^^^^^^^^\n    }\n\n    /*\n     * @dev Serve a User Record\n     */\n    function getUserExt(bytes32 _userHash)\n        external\n        view\n        returns (uint8, uint16)\n    {\n        //^^^^^^^checks^^^^^^^^^\n        return (\n            registeredUsers[_userHash].userType,\n            registeredUsers[_userHash].authorizedAssetClass\n        );\n        //^^^^^^^interactions^^^^^^^^^\n    }\n}\n",
  "sourcePath": "/Users/exxo/dev/PRUF/PRUF_TRUFFLE/contracts/PRUF_AC_manager_065.sol",
  "compiler": {
    "name": "solc",
    "version": "0.6.9+commit.3e3065ac.Emscripten.clang"
  },
  "schemaVersion": "3.2.2",
  "updatedAt": "2020-07-21T13:57:36.158Z",
  "devdoc": {
    "methods": {
      "owner()": {
        "details": "Returns the address of the current owner."
      },
      "payments(address)": {
        "details": "Returns the payments owed to an address.",
        "params": {
          "dest": "The creditor's address."
        }
      },
      "renounceOwnership()": {
        "details": "Leaves the contract without owner. It will not be possible to call `onlyOwner` functions anymore. Can only be called by the current owner. NOTE: Renouncing ownership will leave the contract without an owner, thereby removing any functionality that is only available to the owner."
      },
      "transferOwnership(address)": {
        "details": "Transfers ownership of the contract to a new account (`newOwner`). Can only be called by the current owner."
      },
      "withdrawPayments(address)": {
        "details": "Withdraw accumulated payments, forwarding all gas to the recipient. Note that _any_ account can call this function, not just the `payee`. This means that contracts unaware of the `PullPayment` protocol can still receive funds this way, by having a separate account call {withdrawPayments}. WARNING: Forwarding all gas opens the door to reentrancy vulnerabilities. Make sure you trust the recipient, or are either following the checks-effects-interactions pattern or using {ReentrancyGuard}.",
        "params": {
          "payee": "Whose payments will be withdrawn."
        }
      }
    }
  },
  "userdoc": {
    "methods": {}
  }
}