{
  "contractName": "PRUF_APP",
  "abi": [
    {
      "anonymous": false,
      "inputs": [
        {
          "indexed": true,
          "internalType": "address",
          "name": "previousOwner",
          "type": "address"
        },
        {
          "indexed": true,
          "internalType": "address",
          "name": "newOwner",
          "type": "address"
        }
      ],
      "name": "OwnershipTransferred",
      "type": "event"
    },
    {
      "anonymous": false,
      "inputs": [
        {
          "indexed": false,
          "internalType": "string",
          "name": "_msg",
          "type": "string"
        }
      ],
      "name": "REPORT",
      "type": "event"
    },
    {
      "inputs": [],
      "name": "$withdraw",
      "outputs": [],
      "stateMutability": "payable",
      "type": "function"
    },
    {
      "inputs": [],
      "name": "OO_ResolveContractAddresses",
      "outputs": [],
      "stateMutability": "nonpayable",
      "type": "function"
    },
    {
      "inputs": [
        {
          "internalType": "address",
          "name": "_to",
          "type": "address"
        },
        {
          "internalType": "bytes32",
          "name": "_idxHash",
          "type": "bytes32"
        }
      ],
      "name": "OO_TX_AC_Token",
      "outputs": [],
      "stateMutability": "nonpayable",
      "type": "function"
    },
    {
      "inputs": [
        {
          "internalType": "address",
          "name": "_to",
          "type": "address"
        },
        {
          "internalType": "bytes32",
          "name": "_idxHash",
          "type": "bytes32"
        }
      ],
      "name": "OO_TX_asset_Token",
      "outputs": [],
      "stateMutability": "nonpayable",
      "type": "function"
    },
    {
      "inputs": [
        {
          "internalType": "address",
          "name": "_storageAddress",
          "type": "address"
        }
      ],
      "name": "OO_setStorageContract",
      "outputs": [],
      "stateMutability": "nonpayable",
      "type": "function"
    },
    {
      "inputs": [
        {
          "internalType": "address",
          "name": "",
          "type": "address"
        },
        {
          "internalType": "address",
          "name": "",
          "type": "address"
        },
        {
          "internalType": "uint256",
          "name": "",
          "type": "uint256"
        },
        {
          "internalType": "bytes",
          "name": "",
          "type": "bytes"
        }
      ],
      "name": "onERC721Received",
      "outputs": [
        {
          "internalType": "bytes4",
          "name": "",
          "type": "bytes4"
        }
      ],
      "stateMutability": "nonpayable",
      "type": "function"
    },
    {
      "inputs": [],
      "name": "owner",
      "outputs": [
        {
          "internalType": "address",
          "name": "",
          "type": "address"
        }
      ],
      "stateMutability": "view",
      "type": "function"
    },
    {
      "inputs": [
        {
          "internalType": "address",
          "name": "dest",
          "type": "address"
        }
      ],
      "name": "payments",
      "outputs": [
        {
          "internalType": "uint256",
          "name": "",
          "type": "uint256"
        }
      ],
      "stateMutability": "view",
      "type": "function"
    },
    {
      "inputs": [],
      "name": "renounceOwnership",
      "outputs": [],
      "stateMutability": "nonpayable",
      "type": "function"
    },
    {
      "inputs": [
        {
          "internalType": "address",
          "name": "newOwner",
          "type": "address"
        }
      ],
      "name": "transferOwnership",
      "outputs": [],
      "stateMutability": "nonpayable",
      "type": "function"
    },
    {
      "inputs": [
        {
          "internalType": "address payable",
          "name": "payee",
          "type": "address"
        }
      ],
      "name": "withdrawPayments",
      "outputs": [],
      "stateMutability": "nonpayable",
      "type": "function"
    },
    {
      "inputs": [
        {
          "internalType": "bytes32",
          "name": "_idxHash",
          "type": "bytes32"
        },
        {
          "internalType": "bytes32",
          "name": "_rgtHash",
          "type": "bytes32"
        },
        {
          "internalType": "uint16",
          "name": "_assetClass",
          "type": "uint16"
        },
        {
          "internalType": "uint256",
          "name": "_countDownStart",
          "type": "uint256"
        },
        {
          "internalType": "bytes32",
          "name": "_Ipfs1",
          "type": "bytes32"
        }
      ],
      "name": "$newRecord",
      "outputs": [],
      "stateMutability": "payable",
      "type": "function"
    },
    {
      "inputs": [
        {
          "internalType": "bytes32",
          "name": "_idxHash",
          "type": "bytes32"
        },
        {
          "internalType": "bytes32",
          "name": "_rgtHash",
          "type": "bytes32"
        }
      ],
      "name": "$forceModRecord",
      "outputs": [
        {
          "internalType": "uint8",
          "name": "",
          "type": "uint8"
        }
      ],
      "stateMutability": "payable",
      "type": "function"
    },
    {
      "inputs": [
        {
          "internalType": "bytes32",
          "name": "_idxHash",
          "type": "bytes32"
        },
        {
          "internalType": "bytes32",
          "name": "_rgtHash",
          "type": "bytes32"
        },
        {
          "internalType": "bytes32",
          "name": "_newrgtHash",
          "type": "bytes32"
        }
      ],
      "name": "$transferAsset",
      "outputs": [
        {
          "internalType": "uint8",
          "name": "",
          "type": "uint8"
        }
      ],
      "stateMutability": "payable",
      "type": "function"
    },
    {
      "inputs": [
        {
          "internalType": "bytes32",
          "name": "_idxHash",
          "type": "bytes32"
        },
        {
          "internalType": "bytes32",
          "name": "_rgtHash",
          "type": "bytes32"
        },
        {
          "internalType": "bytes32",
          "name": "_IpfsHash",
          "type": "bytes32"
        }
      ],
      "name": "$addIpfs2Note",
      "outputs": [
        {
          "internalType": "bytes32",
          "name": "",
          "type": "bytes32"
        }
      ],
      "stateMutability": "payable",
      "type": "function"
    },
    {
      "inputs": [
        {
          "internalType": "bytes32",
          "name": "_idxHash",
          "type": "bytes32"
        },
        {
          "internalType": "bytes32",
          "name": "_rgtHash",
          "type": "bytes32"
        }
      ],
      "name": "$importAsset",
      "outputs": [
        {
          "internalType": "uint8",
          "name": "",
          "type": "uint8"
        }
      ],
      "stateMutability": "payable",
      "type": "function"
    }
  ],
  "bytecode": "0x60806040523480156200001157600080fd5b50604051620000209062000143565b604051809103906000f0801580156200003d573d6000803e3d6000fd5b506000806101000a81548173ffffffffffffffffffffffffffffffffffffffff021916908373ffffffffffffffffffffffffffffffffffffffff160217905550600180819055506000620000966200013b60201b60201c565b905080600260006101000a81548173ffffffffffffffffffffffffffffffffffffffff021916908373ffffffffffffffffffffffffffffffffffffffff1602179055508073ffffffffffffffffffffffffffffffffffffffff16600073ffffffffffffffffffffffffffffffffffffffff167f8be0079c531659141344cd1fd0a4f28419497f9722a3daafe3b4186f6b6457e060405160405180910390a35062000151565b600033905090565b610cd7806200555d83390190565b6153fc80620001616000396000f3fe6080604052600436106100f35760003560e01c8063715018a61161008a578063cdbe8b3511610059578063cdbe8b351461050e578063d6b02ecf14610560578063e2982c21146105b1578063f2fde38b14610616576100f3565b8063715018a6146103eb5780638da5cb5b146104025780639601fcb514610459578063b1d83c18146104b3576100f3565b806331b3eb94116100c657806331b3eb94146102d6578063466aafa4146103275780634b9f23a414610382578063565c636c14610399576100f3565b8063131b77cb146100f8578063150b7a021461014e5780631bdd0660146102705780632cb741aa146102cc575b600080fd5b6101386004803603606081101561010e57600080fd5b81019080803590602001909291908035906020019092919080359060200190929190505050610667565b6040518082815260200191505060405180910390f35b34801561015a57600080fd5b5061021c6004803603608081101561017157600080fd5b81019080803573ffffffffffffffffffffffffffffffffffffffff169060200190929190803573ffffffffffffffffffffffffffffffffffffffff16906020019092919080359060200190929190803590602001906401000000008111156101d857600080fd5b8201836020820111156101ea57600080fd5b8035906020019184600183028401116401000000008311171561020c57600080fd5b9091929391929390505050610cbe565b60405180827bffffffffffffffffffffffffffffffffffffffffffffffffffffffff19167bffffffffffffffffffffffffffffffffffffffffffffffffffffffff1916815260200191505060405180910390f35b6102b06004803603606081101561028657600080fd5b81019080803590602001909291908035906020019092919080359060200190929190505050610cd3565b604051808260ff1660ff16815260200191505060405180910390f35b6102d4611334565b005b3480156102e257600080fd5b50610325600480360360208110156102f957600080fd5b81019080803573ffffffffffffffffffffffffffffffffffffffff1690602001909291905050506113c7565b005b34801561033357600080fd5b506103806004803603604081101561034a57600080fd5b81019080803573ffffffffffffffffffffffffffffffffffffffff16906020019092919080359060200190929190505050611482565b005b34801561038e57600080fd5b506103976116d6565b005b6103cf600480360360408110156103af57600080fd5b810190808035906020019092919080359060200190929190505050611dd7565b604051808260ff1660ff16815260200191505060405180910390f35b3480156103f757600080fd5b50610400612395565b005b34801561040e57600080fd5b50610417612520565b604051808273ffffffffffffffffffffffffffffffffffffffff1673ffffffffffffffffffffffffffffffffffffffff16815260200191505060405180910390f35b6104b1600480360360a081101561046f57600080fd5b810190808035906020019092919080359060200190929190803561ffff169060200190929190803590602001909291908035906020019092919050505061254a565b005b3480156104bf57600080fd5b5061050c600480360360408110156104d657600080fd5b81019080803573ffffffffffffffffffffffffffffffffffffffff16906020019092919080359060200190929190505050612b68565b005b6105446004803603604081101561052457600080fd5b810190808035906020019092919080359060200190929190505050612dbc565b604051808260ff1660ff16815260200191505060405180910390f35b34801561056c57600080fd5b506105af6004803603602081101561058357600080fd5b81019080803573ffffffffffffffffffffffffffffffffffffffff169060200190929190505050613514565b005b3480156105bd57600080fd5b50610600600480360360208110156105d457600080fd5b81019080803573ffffffffffffffffffffffffffffffffffffffff1690602001909291905050506136a8565b6040518082815260200191505060405180910390f35b34801561062257600080fd5b506106656004803603602081101561063957600080fd5b81019080803573ffffffffffffffffffffffffffffffffffffffff16906020019092919050505061378a565b005b6000600260015414156106e2576040517f08c379a000000000000000000000000000000000000000000000000000000000815260040180806020018281038252601f8152602001807f5265656e7472616e637947756172643a207265656e7472616e742063616c6c0081525060200191505060405180910390fd5b6002600181905550836106f3614cc0565b6106fb61399a565b905060008260001c90506000826000015160ff161180156107235750600a826000015160ff16105b610795576040517f08c379a000000000000000000000000000000000000000000000000000000000815260040180806020018281038252601a8152602001807f50413a49413a2055736572206e6f74207265676973746572656400000000000081525060200191505060405180910390fd5b3073ffffffffffffffffffffffffffffffffffffffff16600960009054906101000a900473ffffffffffffffffffffffffffffffffffffffff1673ffffffffffffffffffffffffffffffffffffffff16636352211e836040518263ffffffff1660e01b815260040180828152602001915050602060405180830381600087803b15801561082157600080fd5b505af1158015610835573d6000803e3d6000fd5b505050506040513d602081101561084b57600080fd5b810190808051906020019092919050505073ffffffffffffffffffffffffffffffffffffffff16146108c8576040517f08c379a000000000000000000000000000000000000000000000000000000000815260040180806020018281038252602d815260200180615057602d913960400191505060405180910390fd5b6108d0614ce1565b6108d988613add565b90506108e3614cc0565b6108eb61399a565b90506108f5614d5f565b6109028360a00151613cd3565b90506001816040015160ff1614610964576040517f08c379a0000000000000000000000000000000000000000000000000000000008152600401808060200182810382526037815260200180614e786037913960400191505060405180910390fd5b6000801b836020015114156109e1576040517f08c379a000000000000000000000000000000000000000000000000000000000815260040180806020018281038252601c8152602001807f50413a49323a205265636f726420646f6573206e6f742065786973740000000081525060200191505060405180910390fd5b8260a0015161ffff16826020015161ffff1614610a49576040517f08c379a00000000000000000000000000000000000000000000000000000000081526004018080602001828103825260458152602001806153056045913960600191505060405180910390fd5b6006836060015160ff1614158015610a6957506032836060015160ff1614155b8015610a7d57506038836060015160ff1614155b610ad2576040517f08c379a0000000000000000000000000000000000000000000000000000000008152600401808060200182810382526024815260200180614fed6024913960400191505060405180910390fd5b60c8836060015160ff1610610b4f576040517f08c379a00000000000000000000000000000000000000000000000000000000081526004018080602001828103825260148152602001807f50413a49323a205265636f7264206c6f636b656400000000000000000000000081525060200191505060405180910390fd5b6005836060015160ff1614158015610b6f57506037836060015160ff1614155b610bc4576040517f08c379a00000000000000000000000000000000000000000000000000000000081526004018080602001828103825260308152602001806153976030913960400191505060405180910390fd5b6000801b83610120015114610c24576040517f08c379a0000000000000000000000000000000000000000000000000000000008152600401808060200182810382526036815260200180614f526036913960400191505060405180910390fd5b88836020015114610c80576040517f08c379a0000000000000000000000000000000000000000000000000000000008152600401808060200182810382526030815260200180614ee66030913960400191505060405180910390fd5b8783610120018181525050610c958a84613de1565b610ca28360a001516140c3565b8261012001519650505050505050600180819055509392505050565b600063150b7a0260e01b905095945050505050565b600060026001541415610d4e576040517f08c379a000000000000000000000000000000000000000000000000000000000815260040180806020018281038252601f8152602001807f5265656e7472616e637947756172643a207265656e7472616e742063616c6c0081525060200191505060405180910390fd5b600260018190555083610d5f614cc0565b610d6761399a565b905060008260001c90506000826000015160ff16118015610d8f5750600a826000015160ff16105b610e01576040517f08c379a000000000000000000000000000000000000000000000000000000000815260040180806020018281038252601a8152602001807f50413a49413a2055736572206e6f74207265676973746572656400000000000081525060200191505060405180910390fd5b3073ffffffffffffffffffffffffffffffffffffffff16600960009054906101000a900473ffffffffffffffffffffffffffffffffffffffff1673ffffffffffffffffffffffffffffffffffffffff16636352211e836040518263ffffffff1660e01b815260040180828152602001915050602060405180830381600087803b158015610e8d57600080fd5b505af1158015610ea1573d6000803e3d6000fd5b505050506040513d6020811015610eb757600080fd5b810190808051906020019092919050505073ffffffffffffffffffffffffffffffffffffffff1614610f34576040517f08c379a000000000000000000000000000000000000000000000000000000000815260040180806020018281038252602d815260200180615057602d913960400191505060405180910390fd5b610f3c614ce1565b610f4588613add565b9050610f4f614cc0565b610f5761399a565b9050610f61614d5f565b610f6e8360a00151613cd3565b90506001816040015160ff1614610fd0576040517f08c379a0000000000000000000000000000000000000000000000000000000008152600401808060200182810382526037815260200180614eaf6037913960400191505060405180910390fd5b6000801b8360200151141561104d576040517f08c379a000000000000000000000000000000000000000000000000000000000815260040180806020018281038252601c8152602001807f50413a54413a205265636f726420646f6573206e6f742065786973740000000081525060200191505060405180910390fd5b8260a0015161ffff16826020015161ffff16146110b5576040517f08c379a00000000000000000000000000000000000000000000000000000000081526004018080602001828103825260458152602001806150f96045913960600191505060405180910390fd5b6031836060015160ff1611806110d257506005826000015160ff16105b611127576040517f08c379a000000000000000000000000000000000000000000000000000000000815260040180806020018281038252602e8152602001806152d7602e913960400191505060405180910390fd5b6000801b881415611183576040517f08c379a00000000000000000000000000000000000000000000000000000000081526004018080602001828103825260268152602001806153716026913960400191505060405180910390fd5b6001836060015160ff1614806111a057506033836060015160ff16145b6111f5576040517f08c379a000000000000000000000000000000000000000000000000000000000815260040180806020018281038252602781526020018061534a6027913960400191505060405180910390fd5b60c8836060015160ff1610611272576040517f08c379a00000000000000000000000000000000000000000000000000000000081526004018080602001828103825260148152602001807f50413a54413a205265636f7264206c6f636b656400000000000000000000000081525060200191505060405180910390fd5b888360200151146112ce576040517f08c379a000000000000000000000000000000000000000000000000000000000815260040180806020018281038252602f815260200180615183602f913960400191505060405180910390fd5b61ff3783610160015161ffff1610156112fb578261016001805180919060010161ffff1661ffff16815250505b8783602001818152505061130f8a8461422a565b61131c8360a00151614550565b60aa9650505050505050600180819055509392505050565b600260015414156113ad576040517f08c379a000000000000000000000000000000000000000000000000000000000815260040180806020018281038252601f8152602001807f5265656e7472616e637947756172643a207265656e7472616e742063616c6c0081525060200191505060405180910390fd5b60026001819055506113be336113c7565b60018081905550565b6000809054906101000a900473ffffffffffffffffffffffffffffffffffffffff1673ffffffffffffffffffffffffffffffffffffffff166351cff8d9826040518263ffffffff1660e01b8152600401808273ffffffffffffffffffffffffffffffffffffffff1673ffffffffffffffffffffffffffffffffffffffff168152602001915050600060405180830381600087803b15801561146757600080fd5b505af115801561147b573d6000803e3d6000fd5b5050505050565b61148a6146b7565b73ffffffffffffffffffffffffffffffffffffffff16600260009054906101000a900473ffffffffffffffffffffffffffffffffffffffff1673ffffffffffffffffffffffffffffffffffffffff161461154c576040517f08c379a00000000000000000000000000000000000000000000000000000000081526004018080602001828103825260208152602001807f4f776e61626c653a2063616c6c6572206973206e6f7420746865206f776e657281525060200191505060405180910390fd5b600260015414156115c5576040517f08c379a000000000000000000000000000000000000000000000000000000000815260040180806020018281038252601f8152602001807f5265656e7472616e637947756172643a207265656e7472616e742063616c6c0081525060200191505060405180910390fd5b600260018190555060008160001c9050600960009054906101000a900473ffffffffffffffffffffffffffffffffffffffff1673ffffffffffffffffffffffffffffffffffffffff166342842e0e3085846040518463ffffffff1660e01b8152600401808473ffffffffffffffffffffffffffffffffffffffff1673ffffffffffffffffffffffffffffffffffffffff1681526020018373ffffffffffffffffffffffffffffffffffffffff1673ffffffffffffffffffffffffffffffffffffffff1681526020018281526020019350505050600060405180830381600087803b1580156116b257600080fd5b505af11580156116c6573d6000803e3d6000fd5b5050505050600180819055505050565b6002600154141561174f576040517f08c379a000000000000000000000000000000000000000000000000000000000815260040180806020018281038252601f8152602001807f5265656e7472616e637947756172643a207265656e7472616e742063616c6c0081525060200191505060405180910390fd5b600260018190555061175f6146b7565b73ffffffffffffffffffffffffffffffffffffffff16600260009054906101000a900473ffffffffffffffffffffffffffffffffffffffff1673ffffffffffffffffffffffffffffffffffffffff1614611821576040517f08c379a00000000000000000000000000000000000000000000000000000000081526004018080602001828103825260208152602001807f4f776e61626c653a2063616c6c6572206973206e6f7420746865206f776e657281525060200191505060405180910390fd5b600560009054906101000a900473ffffffffffffffffffffffffffffffffffffffff1673ffffffffffffffffffffffffffffffffffffffff1663c771a9826040518163ffffffff1660e01b815260040180806020018281038252600f8152602001807f6173736574436c617373546f6b656e0000000000000000000000000000000000815250602001915050602060405180830381600087803b1580156118c757600080fd5b505af11580156118db573d6000803e3d6000fd5b505050506040513d60208110156118f157600080fd5b8101908080519060200190929190505050600a60006101000a81548173ffffffffffffffffffffffffffffffffffffffff021916908373ffffffffffffffffffffffffffffffffffffffff160217905550600a60009054906101000a900473ffffffffffffffffffffffffffffffffffffffff16600b60006101000a81548173ffffffffffffffffffffffffffffffffffffffff021916908373ffffffffffffffffffffffffffffffffffffffff160217905550600560009054906101000a900473ffffffffffffffffffffffffffffffffffffffff1673ffffffffffffffffffffffffffffffffffffffff1663c771a9826040518163ffffffff1660e01b815260040180806020018281038252600b8152602001807f505255465f41435f4d4752000000000000000000000000000000000000000000815250602001915050602060405180830381600087803b158015611a4b57600080fd5b505af1158015611a5f573d6000803e3d6000fd5b505050506040513d6020811015611a7557600080fd5b8101908080519060200190929190505050600660006101000a81548173ffffffffffffffffffffffffffffffffffffffff021916908373ffffffffffffffffffffffffffffffffffffffff160217905550600660009054906101000a900473ffffffffffffffffffffffffffffffffffffffff16600760006101000a81548173ffffffffffffffffffffffffffffffffffffffff021916908373ffffffffffffffffffffffffffffffffffffffff160217905550600560009054906101000a900473ffffffffffffffffffffffffffffffffffffffff1673ffffffffffffffffffffffffffffffffffffffff1663c771a9826040518163ffffffff1660e01b815260040180806020018281038252600a8152602001807f6173736574546f6b656e00000000000000000000000000000000000000000000815250602001915050602060405180830381600087803b158015611bcf57600080fd5b505af1158015611be3573d6000803e3d6000fd5b505050506040513d6020811015611bf957600080fd5b8101908080519060200190929190505050600860006101000a81548173ffffffffffffffffffffffffffffffffffffffff021916908373ffffffffffffffffffffffffffffffffffffffff160217905550600860009054906101000a900473ffffffffffffffffffffffffffffffffffffffff16600960006101000a81548173ffffffffffffffffffffffffffffffffffffffff021916908373ffffffffffffffffffffffffffffffffffffffff160217905550600560009054906101000a900473ffffffffffffffffffffffffffffffffffffffff1673ffffffffffffffffffffffffffffffffffffffff1663c771a9826040518163ffffffff1660e01b81526004018080602001828103825260088152602001807f505255465f415050000000000000000000000000000000000000000000000000815250602001915050602060405180830381600087803b158015611d5357600080fd5b505af1158015611d67573d6000803e3d6000fd5b505050506040513d6020811015611d7d57600080fd5b8101908080519060200190929190505050600c60006101000a81548173ffffffffffffffffffffffffffffffffffffffff021916908373ffffffffffffffffffffffffffffffffffffffff16021790555060018081905550565b600060026001541415611e52576040517f08c379a000000000000000000000000000000000000000000000000000000000815260040180806020018281038252601f8152602001807f5265656e7472616e637947756172643a207265656e7472616e742063616c6c0081525060200191505060405180910390fd5b600260018190555082611e63614cc0565b611e6b61399a565b905060008260001c90506000826000015160ff16118015611e935750600a826000015160ff16105b611f05576040517f08c379a000000000000000000000000000000000000000000000000000000000815260040180806020018281038252601a8152602001807f50413a49413a2055736572206e6f74207265676973746572656400000000000081525060200191505060405180910390fd5b3073ffffffffffffffffffffffffffffffffffffffff16600960009054906101000a900473ffffffffffffffffffffffffffffffffffffffff1673ffffffffffffffffffffffffffffffffffffffff16636352211e836040518263ffffffff1660e01b815260040180828152602001915050602060405180830381600087803b158015611f9157600080fd5b505af1158015611fa5573d6000803e3d6000fd5b505050506040513d6020811015611fbb57600080fd5b810190808051906020019092919050505073ffffffffffffffffffffffffffffffffffffffff1614612038576040517f08c379a000000000000000000000000000000000000000000000000000000000815260040180806020018281038252602d815260200180615057602d913960400191505060405180910390fd5b612040614ce1565b61204987613add565b9050612053614cc0565b61205b61399a565b9050612065614d5f565b6120728360a00151613cd3565b90506001816040015160ff16146120d4576040517f08c379a0000000000000000000000000000000000000000000000000000000008152600401808060200182810382526037815260200180614de36037913960400191505060405180910390fd5b6000801b83602001511415612151576040517f08c379a000000000000000000000000000000000000000000000000000000000815260040180806020018281038252601c8152602001807f50413a49413a205265636f726420646f6573206e6f742065786973740000000081525060200191505060405180910390fd5b6003826000015160ff16106121b1576040517f08c379a000000000000000000000000000000000000000000000000000000000815260040180806020018281038252602d8152602001806150cc602d913960400191505060405180910390fd5b8260a0015161ffff16826020015161ffff1614612219576040517f08c379a000000000000000000000000000000000000000000000000000000000815260040180806020018281038252604581526020018061513e6045913960600191505060405180910390fd5b6005836060015160ff16148061223657506037836060015160ff16145b8061224857506046836060015160ff16145b61229d576040517f08c379a000000000000000000000000000000000000000000000000000000000815260040180806020018281038252603c815260200180614f16603c913960400191505060405180910390fd5b60c8836060015160ff161061231a576040517f08c379a00000000000000000000000000000000000000000000000000000000081526004018080602001828103825260148152602001807f50413a49413a205265636f7264206c6f636b656400000000000000000000000081525060200191505060405180910390fd5b61ff3783610160015161ffff161015612347578261016001805180919060010161ffff1661ffff16815250505b6000836060019060ff16908160ff16815250508783602001818152505061236e898461422a565b61237b8360a001516146bf565b826060015196505050505050506001808190555092915050565b61239d6146b7565b73ffffffffffffffffffffffffffffffffffffffff16600260009054906101000a900473ffffffffffffffffffffffffffffffffffffffff1673ffffffffffffffffffffffffffffffffffffffff161461245f576040517f08c379a00000000000000000000000000000000000000000000000000000000081526004018080602001828103825260208152602001807f4f776e61626c653a2063616c6c6572206973206e6f7420746865206f776e657281525060200191505060405180910390fd5b600073ffffffffffffffffffffffffffffffffffffffff16600260009054906101000a900473ffffffffffffffffffffffffffffffffffffffff1673ffffffffffffffffffffffffffffffffffffffff167f8be0079c531659141344cd1fd0a4f28419497f9722a3daafe3b4186f6b6457e060405160405180910390a36000600260006101000a81548173ffffffffffffffffffffffffffffffffffffffff021916908373ffffffffffffffffffffffffffffffffffffffff160217905550565b6000600260009054906101000a900473ffffffffffffffffffffffffffffffffffffffff16905090565b600260015414156125c3576040517f08c379a000000000000000000000000000000000000000000000000000000000815260040180806020018281038252601f8152602001807f5265656e7472616e637947756172643a207265656e7472616e742063616c6c0081525060200191505060405180910390fd5b600260018190555060008560001c90506125db614cc0565b6125e361399a565b90506125ed614ce1565b6125f688613add565b9050612600614d5f565b61260987613cd3565b9050612613614d5f565b6126208360a00151613cd3565b90506001826040015160ff1614612682576040517f08c379a00000000000000000000000000000000000000000000000000000000081526004018080602001828103825260378152602001806151d86037913960400191505060405180910390fd5b6000846000015160ff161180156126a05750600a846000015160ff16105b612712576040517f08c379a000000000000000000000000000000000000000000000000000000000815260040180806020018281038252601a8152602001807f50413a4e523a2055736572206e6f74207265676973746572656400000000000081525060200191505060405180910390fd5b6005846000015160ff1610612772576040517f08c379a000000000000000000000000000000000000000000000000000000000815260040180806020018281038252602c815260200180615242602c913960400191505060405180910390fd5b8761ffff16846020015161ffff16146127d6576040517f08c379a00000000000000000000000000000000000000000000000000000000081526004018080602001828103825260458152602001806152926045913960600191505060405180910390fd5b6000801b891415612832576040517f08c379a00000000000000000000000000000000000000000000000000000000081526004018080602001828103825260238152602001806150846023913960400191505060405180910390fd5b600033604051602001808273ffffffffffffffffffffffffffffffffffffffff1673ffffffffffffffffffffffffffffffffffffffff1660601b8152601401915050604051602081830303815290604052805190602001209050816020015161ffff16836020015161ffff16141561296f57600560009054906101000a900473ffffffffffffffffffffffffffffffffffffffff1673ffffffffffffffffffffffffffffffffffffffff1663df6050e8828d8d8d8960e001518a61010001516040518763ffffffff1660e01b8152600401808781526020018681526020018581526020018461ffff1661ffff1681526020018381526020018281526020019650505050505050600060405180830381600087803b15801561295257600080fd5b505af1158015612966573d6000803e3d6000fd5b50505050612a2d565b600560009054906101000a900473ffffffffffffffffffffffffffffffffffffffff1673ffffffffffffffffffffffffffffffffffffffff1663df6050e8828d8d8d8d8d6040518763ffffffff1660e01b8152600401808781526020018681526020018581526020018461ffff1661ffff1681526020018381526020018281526020019650505050505050600060405180830381600087803b158015612a1457600080fd5b505af1158015612a28573d6000803e3d6000fd5b505050505b612a36896146bf565b600960009054906101000a900473ffffffffffffffffffffffffffffffffffffffff1673ffffffffffffffffffffffffffffffffffffffff166354a19c2b30886040518363ffffffff1660e01b8152600401808373ffffffffffffffffffffffffffffffffffffffff1673ffffffffffffffffffffffffffffffffffffffff16815260200182815260200180602001828103825260078152602001807f707275662e696f000000000000000000000000000000000000000000000000008152506020019350505050602060405180830381600087803b158015612b1857600080fd5b505af1158015612b2c573d6000803e3d6000fd5b505050506040513d6020811015612b4257600080fd5b810190808051906020019092919050505050505050505050600180819055505050505050565b612b706146b7565b73ffffffffffffffffffffffffffffffffffffffff16600260009054906101000a900473ffffffffffffffffffffffffffffffffffffffff1673ffffffffffffffffffffffffffffffffffffffff1614612c32576040517f08c379a00000000000000000000000000000000000000000000000000000000081526004018080602001828103825260208152602001807f4f776e61626c653a2063616c6c6572206973206e6f7420746865206f776e657281525060200191505060405180910390fd5b60026001541415612cab576040517f08c379a000000000000000000000000000000000000000000000000000000000815260040180806020018281038252601f8152602001807f5265656e7472616e637947756172643a207265656e7472616e742063616c6c0081525060200191505060405180910390fd5b600260018190555060008160001c9050600b60009054906101000a900473ffffffffffffffffffffffffffffffffffffffff1673ffffffffffffffffffffffffffffffffffffffff166342842e0e3085846040518463ffffffff1660e01b8152600401808473ffffffffffffffffffffffffffffffffffffffff1673ffffffffffffffffffffffffffffffffffffffff1681526020018373ffffffffffffffffffffffffffffffffffffffff1673ffffffffffffffffffffffffffffffffffffffff1681526020018281526020019350505050600060405180830381600087803b158015612d9857600080fd5b505af1158015612dac573d6000803e3d6000fd5b5050505050600180819055505050565b600060026001541415612e37576040517f08c379a000000000000000000000000000000000000000000000000000000000815260040180806020018281038252601f8152602001807f5265656e7472616e637947756172643a207265656e7472616e742063616c6c0081525060200191505060405180910390fd5b600260018190555082612e48614cc0565b612e5061399a565b905060008260001c90506000826000015160ff16118015612e785750600a826000015160ff16105b612eea576040517f08c379a000000000000000000000000000000000000000000000000000000000815260040180806020018281038252601a8152602001807f50413a49413a2055736572206e6f74207265676973746572656400000000000081525060200191505060405180910390fd5b3073ffffffffffffffffffffffffffffffffffffffff16600960009054906101000a900473ffffffffffffffffffffffffffffffffffffffff1673ffffffffffffffffffffffffffffffffffffffff16636352211e836040518263ffffffff1660e01b815260040180828152602001915050602060405180830381600087803b158015612f7657600080fd5b505af1158015612f8a573d6000803e3d6000fd5b505050506040513d6020811015612fa057600080fd5b810190808051906020019092919050505073ffffffffffffffffffffffffffffffffffffffff161461301d576040517f08c379a000000000000000000000000000000000000000000000000000000000815260040180806020018281038252602d815260200180615057602d913960400191505060405180910390fd5b613025614ce1565b61302e87613add565b9050613038614cc0565b61304061399a565b905061304a614d5f565b6130578360a00151613cd3565b90506001816040015160ff16146130b9576040517f08c379a0000000000000000000000000000000000000000000000000000000008152600401808060200182810382526038815260200180614e1a6038913960400191505060405180910390fd5b6000801b83602001511415613136576040517f08c379a000000000000000000000000000000000000000000000000000000000815260040180806020018281038252601d8152602001807f50413a464d523a205265636f726420646f6573206e6f7420657869737400000081525060200191505060405180910390fd5b6001826000015160ff1614613196576040517f08c379a000000000000000000000000000000000000000000000000000000000815260040180806020018281038252603381526020018061520f6033913960400191505060405180910390fd5b8260a0015161ffff16826020015161ffff16146131fe576040517f08c379a00000000000000000000000000000000000000000000000000000000081526004018080602001828103825260468152602001806150116046913960600191505060405180910390fd5b6000801b88141561325a576040517f08c379a000000000000000000000000000000000000000000000000000000000815260040180806020018281038252602481526020018061526e6024913960400191505060405180910390fd5b6003836060015160ff161415801561327a57506004836060015160ff1614155b801561328e57506035836060015160ff1614155b80156132a257506036836060015160ff1614155b6132f7576040517f08c379a0000000000000000000000000000000000000000000000000000000008152600401808060200182810382526034815260200180614fb96034913960400191505060405180910390fd5b6006836060015160ff161415801561331757506032836060015160ff1614155b801561332b57506038836060015160ff1614155b613380576040517f08c379a00000000000000000000000000000000000000000000000000000000081526004018080602001828103825260258152602001806150a76025913960400191505060405180910390fd5b6005836060015160ff16141580156133a057506037836060015160ff1614155b6133f5576040517f08c379a0000000000000000000000000000000000000000000000000000000008152600401808060200182810382526031815260200180614f886031913960400191505060405180910390fd5b60c8836060015160ff1610613472576040517f08c379a00000000000000000000000000000000000000000000000000000000081526004018080602001828103825260128152602001807f464d523a205265636f7264206c6f636b6564000000000000000000000000000081525060200191505060405180910390fd5b60ff836080015160ff1610156134995782608001805180919060010160ff1660ff16815250505b61ff3783610160015161ffff1610156134c6578261016001805180919060010161ffff1661ffff16815250505b6000836060019060ff16908160ff1681525050878360200181815250506134ed898461422a565b6134fa8360a00151614826565b826080015196505050505050506001808190555092915050565b61351c6146b7565b73ffffffffffffffffffffffffffffffffffffffff16600260009054906101000a900473ffffffffffffffffffffffffffffffffffffffff1673ffffffffffffffffffffffffffffffffffffffff16146135de576040517f08c379a00000000000000000000000000000000000000000000000000000000081526004018080602001828103825260208152602001807f4f776e61626c653a2063616c6c6572206973206e6f7420746865206f776e657281525060200191505060405180910390fd5b600073ffffffffffffffffffffffffffffffffffffffff168173ffffffffffffffffffffffffffffffffffffffff161415613664576040517f08c379a00000000000000000000000000000000000000000000000000000000081526004018080602001828103825260268152602001806151b26026913960400191505060405180910390fd5b80600560006101000a81548173ffffffffffffffffffffffffffffffffffffffff021916908373ffffffffffffffffffffffffffffffffffffffff16021790555050565b60008060009054906101000a900473ffffffffffffffffffffffffffffffffffffffff1673ffffffffffffffffffffffffffffffffffffffff1663e3a9db1a836040518263ffffffff1660e01b8152600401808273ffffffffffffffffffffffffffffffffffffffff1673ffffffffffffffffffffffffffffffffffffffff16815260200191505060206040518083038186803b15801561374857600080fd5b505afa15801561375c573d6000803e3d6000fd5b505050506040513d602081101561377257600080fd5b81019080805190602001909291905050509050919050565b6137926146b7565b73ffffffffffffffffffffffffffffffffffffffff16600260009054906101000a900473ffffffffffffffffffffffffffffffffffffffff1673ffffffffffffffffffffffffffffffffffffffff1614613854576040517f08c379a00000000000000000000000000000000000000000000000000000000081526004018080602001828103825260208152602001807f4f776e61626c653a2063616c6c6572206973206e6f7420746865206f776e657281525060200191505060405180910390fd5b600073ffffffffffffffffffffffffffffffffffffffff168173ffffffffffffffffffffffffffffffffffffffff1614156138da576040517f08c379a0000000000000000000000000000000000000000000000000000000008152600401808060200182810382526026815260200180614e526026913960400191505060405180910390fd5b8073ffffffffffffffffffffffffffffffffffffffff16600260009054906101000a900473ffffffffffffffffffffffffffffffffffffffff1673ffffffffffffffffffffffffffffffffffffffff167f8be0079c531659141344cd1fd0a4f28419497f9722a3daafe3b4186f6b6457e060405160405180910390a380600260006101000a81548173ffffffffffffffffffffffffffffffffffffffff021916908373ffffffffffffffffffffffffffffffffffffffff16021790555050565b6139a2614cc0565b6139aa614cc0565b600760009054906101000a900473ffffffffffffffffffffffffffffffffffffffff1673ffffffffffffffffffffffffffffffffffffffff1663eb8af05933604051602001808273ffffffffffffffffffffffffffffffffffffffff1673ffffffffffffffffffffffffffffffffffffffff1660601b8152601401915050604051602081830303815290604052805190602001206040518263ffffffff1660e01b815260040180828152602001915050604080518083038186803b158015613a7157600080fd5b505afa158015613a85573d6000803e3d6000fd5b505050506040513d6040811015613a9b57600080fd5b81019080805190602001909291908051906020019092919050505082600001836020018261ffff1661ffff168152508260ff1660ff1681525050508091505090565b613ae5614ce1565b613aed614ce1565b6000806000806000806000806000806000600560009054906101000a900473ffffffffffffffffffffffffffffffffffffffff1673ffffffffffffffffffffffffffffffffffffffff1663e248f2c48f6040518263ffffffff1660e01b81526004018082815260200191505061016060405180830381600087803b158015613b7457600080fd5b505af1158015613b88573d6000803e3d6000fd5b505050506040513d610160811015613b9f57600080fd5b8101908080519060200190929190805190602001909291908051906020019092919080519060200190929190805190602001909291908051906020019092919080519060200190929190805190602001909291908051906020019092919080519060200190929190805190602001909291905050509a509a509a509a509a509a509a509a509a509a509a508a8c6000018181525050898c6020018181525050888c6040018181525050878c6060019060ff16908160ff1681525050868c6080019060ff16908160ff1681525050858c60a0019061ffff16908161ffff1681525050848c60c0018181525050838c60e0018181525050828c610100018181525050818c610120018181525050808c610160019061ffff16908161ffff1681525050505050505050505050505080915050919050565b613cdb614d5f565b613ce3614d5f565b600760009054906101000a900473ffffffffffffffffffffffffffffffffffffffff1673ffffffffffffffffffffffffffffffffffffffff166396135702846040518263ffffffff1660e01b8152600401808261ffff1661ffff168152602001915050606060405180830381600087803b158015613d6057600080fd5b505af1158015613d74573d6000803e3d6000fd5b505050506040513d6060811015613d8a57600080fd5b81019080805190602001909291908051906020019092919080519060200190929190505050836020018460400185606001838152508360ff1660ff168152508361ffff1661ffff1681525050505080915050919050565b81613dea614cc0565b613df261399a565b905060008260001c90506000826000015160ff16118015613e1a5750600a826000015160ff16105b613e8c576040517f08c379a000000000000000000000000000000000000000000000000000000000815260040180806020018281038252601a8152602001807f50413a49413a2055736572206e6f74207265676973746572656400000000000081525060200191505060405180910390fd5b3073ffffffffffffffffffffffffffffffffffffffff16600960009054906101000a900473ffffffffffffffffffffffffffffffffffffffff1673ffffffffffffffffffffffffffffffffffffffff16636352211e836040518263ffffffff1660e01b815260040180828152602001915050602060405180830381600087803b158015613f1857600080fd5b505af1158015613f2c573d6000803e3d6000fd5b505050506040513d6020811015613f4257600080fd5b810190808051906020019092919050505073ffffffffffffffffffffffffffffffffffffffff1614613fbf576040517f08c379a000000000000000000000000000000000000000000000000000000000815260040180806020018281038252602d815260200180615057602d913960400191505060405180910390fd5b600033604051602001808273ffffffffffffffffffffffffffffffffffffffff1673ffffffffffffffffffffffffffffffffffffffff1660601b8152601401915050604051602081830303815290604052805190602001209050600560009054906101000a900473ffffffffffffffffffffffffffffffffffffffff1673ffffffffffffffffffffffffffffffffffffffff16630f8d9d2f82888861012001516040518463ffffffff1660e01b8152600401808481526020018381526020018281526020019350505050600060405180830381600087803b1580156140a357600080fd5b505af11580156140b7573d6000803e3d6000fd5b50505050505050505050565b6140cb614d8e565b600760009054906101000a900473ffffffffffffffffffffffffffffffffffffffff1673ffffffffffffffffffffffffffffffffffffffff16632ad0302f836040518263ffffffff1660e01b8152600401808261ffff1661ffff168152602001915050608060405180830381600087803b15801561414857600080fd5b505af115801561415c573d6000803e3d6000fd5b505050506040513d608081101561417257600080fd5b810190808051906020019092919080519060200190929190805190602001909291908051906020019092919050505084600001856020018660400187606001848152508473ffffffffffffffffffffffffffffffffffffffff1673ffffffffffffffffffffffffffffffffffffffff16815250848152508473ffffffffffffffffffffffffffffffffffffffff1673ffffffffffffffffffffffffffffffffffffffff16815250505050506142268161498d565b5050565b81614233614cc0565b61423b61399a565b905060008260001c90506000826000015160ff161180156142635750600a826000015160ff16105b6142d5576040517f08c379a000000000000000000000000000000000000000000000000000000000815260040180806020018281038252601a8152602001807f50413a49413a2055736572206e6f74207265676973746572656400000000000081525060200191505060405180910390fd5b3073ffffffffffffffffffffffffffffffffffffffff16600960009054906101000a900473ffffffffffffffffffffffffffffffffffffffff1673ffffffffffffffffffffffffffffffffffffffff16636352211e836040518263ffffffff1660e01b815260040180828152602001915050602060405180830381600087803b15801561436157600080fd5b505af1158015614375573d6000803e3d6000fd5b505050506040513d602081101561438b57600080fd5b810190808051906020019092919050505073ffffffffffffffffffffffffffffffffffffffff1614614408576040517f08c379a000000000000000000000000000000000000000000000000000000000815260040180806020018281038252602d815260200180615057602d913960400191505060405180910390fd5b600033604051602001808273ffffffffffffffffffffffffffffffffffffffff1673ffffffffffffffffffffffffffffffffffffffff1660601b8152601401915050604051602081830303815290604052805190602001209050600560009054906101000a900473ffffffffffffffffffffffffffffffffffffffff1673ffffffffffffffffffffffffffffffffffffffff16635267d5c78288886020015189606001518a60c001518b608001518c61016001516040518863ffffffff1660e01b8152600401808881526020018781526020018681526020018560ff1660ff1681526020018481526020018360ff1660ff1681526020018261ffff1661ffff168152602001975050505050505050600060405180830381600087803b15801561453057600080fd5b505af1158015614544573d6000803e3d6000fd5b50505050505050505050565b614558614d8e565b600760009054906101000a900473ffffffffffffffffffffffffffffffffffffffff1673ffffffffffffffffffffffffffffffffffffffff1663e20fb116836040518263ffffffff1660e01b8152600401808261ffff1661ffff168152602001915050608060405180830381600087803b1580156145d557600080fd5b505af11580156145e9573d6000803e3d6000fd5b505050506040513d60808110156145ff57600080fd5b810190808051906020019092919080519060200190929190805190602001909291908051906020019092919050505084600001856020018660400187606001848152508473ffffffffffffffffffffffffffffffffffffffff1673ffffffffffffffffffffffffffffffffffffffff16815250848152508473ffffffffffffffffffffffffffffffffffffffff1673ffffffffffffffffffffffffffffffffffffffff16815250505050506146b38161498d565b5050565b600033905090565b6146c7614d8e565b600760009054906101000a900473ffffffffffffffffffffffffffffffffffffffff1673ffffffffffffffffffffffffffffffffffffffff16637953856c836040518263ffffffff1660e01b8152600401808261ffff1661ffff168152602001915050608060405180830381600087803b15801561474457600080fd5b505af1158015614758573d6000803e3d6000fd5b505050506040513d608081101561476e57600080fd5b810190808051906020019092919080519060200190929190805190602001909291908051906020019092919050505084600001856020018660400187606001848152508473ffffffffffffffffffffffffffffffffffffffff1673ffffffffffffffffffffffffffffffffffffffff16815250848152508473ffffffffffffffffffffffffffffffffffffffff1673ffffffffffffffffffffffffffffffffffffffff16815250505050506148228161498d565b5050565b61482e614d8e565b600760009054906101000a900473ffffffffffffffffffffffffffffffffffffffff1673ffffffffffffffffffffffffffffffffffffffff1663f92a8144836040518263ffffffff1660e01b8152600401808261ffff1661ffff168152602001915050608060405180830381600087803b1580156148ab57600080fd5b505af11580156148bf573d6000803e3d6000fd5b505050506040513d60808110156148d557600080fd5b810190808051906020019092919080519060200190929190805190602001909291908051906020019092919050505084600001856020018660400187606001848152508473ffffffffffffffffffffffffffffffffffffffff1673ffffffffffffffffffffffffffffffffffffffff16815250848152508473ffffffffffffffffffffffffffffffffffffffff1673ffffffffffffffffffffffffffffffffffffffff16815250505050506149898161498d565b5050565b60003490506000806149b084606001518560200151614a7190919063ffffffff16565b905080341015614a28576040517f08c379a00000000000000000000000000000000000000000000000000000000081526004018080602001828103825260188152602001807f50433a44503a2054582076616c756520746f6f206c6f772e000000000000000081525060200191505060405180910390fd5b614a3b8184614af990919063ffffffff16565b9150614a4f84600001518560200151614b43565b614a6184604001518560600151614b43565b614a6b3383614b43565b50505050565b600080828401905083811015614aef576040517f08c379a000000000000000000000000000000000000000000000000000000000815260040180806020018281038252601b8152602001807f536166654d6174683a206164646974696f6e206f766572666c6f77000000000081525060200191505060405180910390fd5b8091505092915050565b6000614b3b83836040518060400160405280601e81526020017f536166654d6174683a207375627472616374696f6e206f766572666c6f770000815250614c00565b905092915050565b6000809054906101000a900473ffffffffffffffffffffffffffffffffffffffff1673ffffffffffffffffffffffffffffffffffffffff1663f340fa0182846040518363ffffffff1660e01b8152600401808273ffffffffffffffffffffffffffffffffffffffff1673ffffffffffffffffffffffffffffffffffffffff1681526020019150506000604051808303818588803b158015614be357600080fd5b505af1158015614bf7573d6000803e3d6000fd5b50505050505050565b6000838311158290614cad576040517f08c379a00000000000000000000000000000000000000000000000000000000081526004018080602001828103825283818151815260200191508051906020019080838360005b83811015614c72578082015181840152602081019050614c57565b50505050905090810190601f168015614c9f5780820380516001836020036101000a031916815260200191505b509250505060405180910390fd5b5060008385039050809150509392505050565b6040518060400160405280600060ff168152602001600061ffff1681525090565b604051806101800160405280600080191681526020016000801916815260200160008019168152602001600060ff168152602001600060ff168152602001600061ffff1681526020016000815260200160008152602001600080191681526020016000801916815260200160008152602001600061ffff1681525090565b604051806080016040528060608152602001600061ffff168152602001600060ff168152602001600081525090565b6040518060800160405280600073ffffffffffffffffffffffffffffffffffffffff16815260200160008152602001600073ffffffffffffffffffffffffffffffffffffffff16815260200160008152509056fe50413a49413a20436f6e7472616374206e6f7420617574686f72697a656420666f72206e6f6e2d637573746f6469616c2061737365747350413a464d523a20436f6e7472616374206e6f7420617574686f72697a656420666f72206e6f6e2d637573746f6469616c206173736574734f776e61626c653a206e6577206f776e657220697320746865207a65726f206164647265737350413a49323a20436f6e7472616374206e6f7420617574686f72697a656420666f72206e6f6e2d637573746f6469616c2061737365747350413a54413a20436f6e7472616374206e6f7420617574686f72697a656420666f72206e6f6e2d637573746f6469616c2061737365747350413a49323a20526967687473686f6c64657220646f6573206e6f74206d6174636820737570706c696564206461746150413a49413a204f6e6c79205472616e73666572726564206f72206578706f72746564206173736574732063616e206265207265696d706f7274656450413a49323a20497066733220686173206461746120616c72656164792e204f7665727772697465206e6f74207065726d697474656450413a464d523a205265636f726420496e205472616e736665727265642d756e726567697374657265642073746174757350413a464d523a2043616e6e6f74206d6f6469667920617373657420696e206c6f7374206f722073746f6c656e2073746174757350413a49323a2043616e6e6f74206d6f6469667920617373657420696e20457363726f7750413a464d523a2055736572206e6f7420617574686f72697a656420746f206d6f64696679207265636f72647320696e2073706563696669656420617373657420636c61737350413a49413a20437573746f6469616c20636f6e747261637420646f6573206e6f7420686f6c6420746f6b656e50413a4e523a2072696768747320686f6c6465722063616e6e6f74206265207a65726f50413a464d523a2043616e6e6f74206d6f6469667920617373657420696e20457363726f7750413a49413a2055736572206e6f7420617574686f72697a656420746f207265696d706f72742061737365747350413a54413a2055736572206e6f7420617574686f72697a656420746f206d6f64696679207265636f72647320696e2073706563696669656420617373657420636c61737350413a49413a2055736572206e6f7420617574686f72697a656420746f206d6f64696679207265636f72647320696e2073706563696669656420617373657420636c61737350413a54413a526967687473686f6c64657220646f6573206e6f74206d6174636820737570706c696564206461746150433a5353433a2073746f7261676520616464726573732063616e6e6f74206265207a65726f50413a4e523a20436f6e7472616374206e6f7420617574686f72697a656420666f72206e6f6e2d637573746f6469616c2061737365747350413a464d523a2055736572206e6f7420617574686f72697a656420746f20666f726365206d6f64696679207265636f72647350413a4e523a2055736572206e6f7420617574686f72697a656420746f20637265617465207265636f72647350413a464d523a2072696768747320686f6c6465722063616e6e6f74206265207a65726f50413a4e523a2055736572206e6f7420617574686f72697a656420746f20637265617465207265636f72647320696e2073706563696669656420617373657420636c61737350413a54413a4f6e6c79207573657274797065203c20352063616e206368616e676520737461747573203c20353050413a49323a2055736572206e6f7420617574686f72697a656420746f206d6f64696679207265636f72647320696e2073706563696669656420617373657420636c61737350413a54413a417373657420737461747573206973206e6f74207472616e736665727261626c6550413a54413a6e657720526967687473686f6c6465722063616e6e6f7420626520626c616e6b50413a49323a205265636f726420496e205472616e736665727265642d756e7265676973746572656420737461747573a2646970667358221220d658626ab1c4bd8faae2508358b808a28a726bd573464c331de11bd8b0a8ff8664736f6c63430006090033608060405234801561001057600080fd5b5060006100216100c460201b60201c565b9050806000806101000a81548173ffffffffffffffffffffffffffffffffffffffff021916908373ffffffffffffffffffffffffffffffffffffffff1602179055508073ffffffffffffffffffffffffffffffffffffffff16600073ffffffffffffffffffffffffffffffffffffffff167f8be0079c531659141344cd1fd0a4f28419497f9722a3daafe3b4186f6b6457e060405160405180910390a3506100cc565b600033905090565b610bfc806100db6000396000f3fe6080604052600436106100555760003560e01c806351cff8d91461005a578063715018a6146100ab5780638da5cb5b146100c2578063e3a9db1a14610119578063f2fde38b1461017e578063f340fa01146101cf575b600080fd5b34801561006657600080fd5b506100a96004803603602081101561007d57600080fd5b81019080803573ffffffffffffffffffffffffffffffffffffffff169060200190929190505050610213565b005b3480156100b757600080fd5b506100c06103e0565b005b3480156100ce57600080fd5b506100d7610568565b604051808273ffffffffffffffffffffffffffffffffffffffff1673ffffffffffffffffffffffffffffffffffffffff16815260200191505060405180910390f35b34801561012557600080fd5b506101686004803603602081101561013c57600080fd5b81019080803573ffffffffffffffffffffffffffffffffffffffff169060200190929190505050610591565b6040518082815260200191505060405180910390f35b34801561018a57600080fd5b506101cd600480360360208110156101a157600080fd5b81019080803573ffffffffffffffffffffffffffffffffffffffff1690602001909291905050506105da565b005b610211600480360360208110156101e557600080fd5b81019080803573ffffffffffffffffffffffffffffffffffffffff1690602001909291905050506107e7565b005b61021b61099c565b73ffffffffffffffffffffffffffffffffffffffff166000809054906101000a900473ffffffffffffffffffffffffffffffffffffffff1673ffffffffffffffffffffffffffffffffffffffff16146102dc576040517f08c379a00000000000000000000000000000000000000000000000000000000081526004018080602001828103825260208152602001807f4f776e61626c653a2063616c6c6572206973206e6f7420746865206f776e657281525060200191505060405180910390fd5b6000600160008373ffffffffffffffffffffffffffffffffffffffff1673ffffffffffffffffffffffffffffffffffffffff1681526020019081526020016000205490506000600160008473ffffffffffffffffffffffffffffffffffffffff1673ffffffffffffffffffffffffffffffffffffffff1681526020019081526020016000208190555061038e818373ffffffffffffffffffffffffffffffffffffffff166109a490919063ffffffff16565b8173ffffffffffffffffffffffffffffffffffffffff167f7084f5476618d8e60b11ef0d7d3f06914655adb8793e28ff7f018d4c76d505d5826040518082815260200191505060405180910390a25050565b6103e861099c565b73ffffffffffffffffffffffffffffffffffffffff166000809054906101000a900473ffffffffffffffffffffffffffffffffffffffff1673ffffffffffffffffffffffffffffffffffffffff16146104a9576040517f08c379a00000000000000000000000000000000000000000000000000000000081526004018080602001828103825260208152602001807f4f776e61626c653a2063616c6c6572206973206e6f7420746865206f776e657281525060200191505060405180910390fd5b600073ffffffffffffffffffffffffffffffffffffffff166000809054906101000a900473ffffffffffffffffffffffffffffffffffffffff1673ffffffffffffffffffffffffffffffffffffffff167f8be0079c531659141344cd1fd0a4f28419497f9722a3daafe3b4186f6b6457e060405160405180910390a360008060006101000a81548173ffffffffffffffffffffffffffffffffffffffff021916908373ffffffffffffffffffffffffffffffffffffffff160217905550565b60008060009054906101000a900473ffffffffffffffffffffffffffffffffffffffff16905090565b6000600160008373ffffffffffffffffffffffffffffffffffffffff1673ffffffffffffffffffffffffffffffffffffffff168152602001908152602001600020549050919050565b6105e261099c565b73ffffffffffffffffffffffffffffffffffffffff166000809054906101000a900473ffffffffffffffffffffffffffffffffffffffff1673ffffffffffffffffffffffffffffffffffffffff16146106a3576040517f08c379a00000000000000000000000000000000000000000000000000000000081526004018080602001828103825260208152602001807f4f776e61626c653a2063616c6c6572206973206e6f7420746865206f776e657281525060200191505060405180910390fd5b600073ffffffffffffffffffffffffffffffffffffffff168173ffffffffffffffffffffffffffffffffffffffff161415610729576040517f08c379a0000000000000000000000000000000000000000000000000000000008152600401808060200182810382526026815260200180610b676026913960400191505060405180910390fd5b8073ffffffffffffffffffffffffffffffffffffffff166000809054906101000a900473ffffffffffffffffffffffffffffffffffffffff1673ffffffffffffffffffffffffffffffffffffffff167f8be0079c531659141344cd1fd0a4f28419497f9722a3daafe3b4186f6b6457e060405160405180910390a3806000806101000a81548173ffffffffffffffffffffffffffffffffffffffff021916908373ffffffffffffffffffffffffffffffffffffffff16021790555050565b6107ef61099c565b73ffffffffffffffffffffffffffffffffffffffff166000809054906101000a900473ffffffffffffffffffffffffffffffffffffffff1673ffffffffffffffffffffffffffffffffffffffff16146108b0576040517f08c379a00000000000000000000000000000000000000000000000000000000081526004018080602001828103825260208152602001807f4f776e61626c653a2063616c6c6572206973206e6f7420746865206f776e657281525060200191505060405180910390fd5b600034905061090781600160008573ffffffffffffffffffffffffffffffffffffffff1673ffffffffffffffffffffffffffffffffffffffff16815260200190815260200160002054610ade90919063ffffffff16565b600160008473ffffffffffffffffffffffffffffffffffffffff1673ffffffffffffffffffffffffffffffffffffffff168152602001908152602001600020819055508173ffffffffffffffffffffffffffffffffffffffff167f2da466a7b24304f47e87fa2e1e5a81b9831ce54fec19055ce277ca2f39ba42c4826040518082815260200191505060405180910390a25050565b600033905090565b80471015610a1a576040517f08c379a000000000000000000000000000000000000000000000000000000000815260040180806020018281038252601d8152602001807f416464726573733a20696e73756666696369656e742062616c616e636500000081525060200191505060405180910390fd5b60008273ffffffffffffffffffffffffffffffffffffffff168260405180600001905060006040518083038185875af1925050503d8060008114610a7a576040519150601f19603f3d011682016040523d82523d6000602084013e610a7f565b606091505b5050905080610ad9576040517f08c379a000000000000000000000000000000000000000000000000000000000815260040180806020018281038252603a815260200180610b8d603a913960400191505060405180910390fd5b505050565b600080828401905083811015610b5c576040517f08c379a000000000000000000000000000000000000000000000000000000000815260040180806020018281038252601b8152602001807f536166654d6174683a206164646974696f6e206f766572666c6f77000000000081525060200191505060405180910390fd5b809150509291505056fe4f776e61626c653a206e6577206f776e657220697320746865207a65726f2061646472657373416464726573733a20756e61626c6520746f2073656e642076616c75652c20726563697069656e74206d61792068617665207265766572746564a26469706673582212201f63313109a1653954be0940e0a85ad69fed5eba0c6996501a3122a39d7cc38664736f6c63430006090033",
  "immutableReferences": {},
  "source": "/*-----------------------------------------------------------------\r\n *  TO DO\r\n *\r\n*-----------------------------------------------------------------*/\r\n\r\n// SPDX-License-Identifier: UNLICENSED\r\npragma solidity ^0.6.7;\r\n\r\nimport \"./PRUF_core_065.sol\";\r\n\r\ncontract PRUF_APP is PRUF {\r\n\r\n    modifier isAuthorized(bytes32 _idxHash) override {\r\n        User memory user = getUser();\r\n        uint256 tokenID = uint256(_idxHash);\r\n\r\n        require(\r\n            (user.userType > 0) && (user.userType < 10),\r\n            \"PA:IA: User not registered\"\r\n        );\r\n        require(\r\n            (AssetTokenContract.ownerOf(tokenID) == address(this)),\r\n            \"PA:IA: Custodial contract does not hold token\"\r\n        );\r\n        _;\r\n    }\r\n\r\n    //--------------------------------------------External Functions--------------------------\r\n    /*\r\n     * @dev Wrapper for newRecord\r\n     */\r\n    function $newRecord(\r\n        bytes32 _idxHash,\r\n        bytes32 _rgtHash,\r\n        uint16 _assetClass,\r\n        uint256 _countDownStart,\r\n        bytes32 _Ipfs1\r\n    ) external payable nonReentrant {\r\n        uint256 tokenId = uint256(_idxHash);\r\n        User memory callingUser = getUser();\r\n        Record memory rec = getRecord(_idxHash);\r\n        AC memory AC_info = getACinfo(_assetClass);\r\n        AC memory oldAC_info = getACinfo(rec.assetClass);\r\n\r\n        require(\r\n            AC_info.custodyType == 1,\r\n            \"PA:NR: Contract not authorized for non-custodial assets\"\r\n        );\r\n        require(\r\n            (callingUser.userType > 0) && (callingUser.userType < 10),\r\n            \"PA:NR: User not registered\"\r\n        );\r\n        require(\r\n            callingUser.userType < 5,\r\n            \"PA:NR: User not authorized to create records\"\r\n        );\r\n        require(\r\n            callingUser.authorizedAssetClass == _assetClass,\r\n            \"PA:NR: User not authorized to create records in specified asset class\"\r\n        );\r\n        require(_rgtHash != 0, \"PA:NR: rights holder cannot be zero\");\r\n\r\n        //^^^^^^^checks^^^^^^^^^\r\n\r\n        bytes32 userHash = keccak256(abi.encodePacked(msg.sender));\r\n        //^^^^^^^effects^^^^^^^^^\r\n\r\n        if (AC_info.assetClassRoot == oldAC_info.assetClassRoot) {\r\n            Storage.newRecord(\r\n                userHash,\r\n                _idxHash,\r\n                _rgtHash,\r\n                _assetClass,\r\n                rec.countDownStart,\r\n                rec.Ipfs1\r\n            );\r\n        } else {\r\n            Storage.newRecord(\r\n                userHash,\r\n                _idxHash,\r\n                _rgtHash,\r\n                _assetClass,\r\n                _countDownStart,\r\n                _Ipfs1\r\n            );\r\n        }\r\n        deductNewRecordCosts(_assetClass);\r\n        AssetTokenContract.mintAssetToken(address(this), tokenId, \"pruf.io\");\r\n        //^^^^^^^interactions^^^^^^^^^\r\n    }\r\n\r\n    /*\r\n     * @dev Modify **Record**.rightsHolder without confirmation required\r\n     */\r\n    function $forceModRecord(bytes32 _idxHash, bytes32 _rgtHash)\r\n        external\r\n        payable\r\n        nonReentrant\r\n        isAuthorized(_idxHash)\r\n        returns (uint8)\r\n    {\r\n        Record memory rec = getRecord(_idxHash);\r\n        User memory callingUser = getUser();\r\n        AC memory AC_info = getACinfo(rec.assetClass);\r\n\r\n        require(\r\n            AC_info.custodyType == 1,\r\n            \"PA:FMR: Contract not authorized for non-custodial assets\"\r\n        );\r\n\r\n        require((rec.rightsHolder != 0), \"PA:FMR: Record does not exist\");\r\n\r\n        require(\r\n            callingUser.userType == 1,\r\n            \"PA:FMR: User not authorized to force modify records\"\r\n        );\r\n        require(\r\n            callingUser.authorizedAssetClass == rec.assetClass,\r\n            \"PA:FMR: User not authorized to modify records in specified asset class\"\r\n        );\r\n\r\n        require(_rgtHash != 0, \"PA:FMR: rights holder cannot be zero\");\r\n        require(\r\n            (rec.assetStatus != 3) &&\r\n                (rec.assetStatus != 4) &&\r\n                (rec.assetStatus != 53) &&\r\n                (rec.assetStatus != 54),\r\n            \"PA:FMR: Cannot modify asset in lost or stolen status\"\r\n        );\r\n        require(\r\n            (rec.assetStatus != 6) &&\r\n                (rec.assetStatus != 50) &&\r\n                (rec.assetStatus != 56),\r\n            \"PA:FMR: Cannot modify asset in Escrow\"\r\n        );\r\n        require(\r\n            (rec.assetStatus != 5) && (rec.assetStatus != 55),\r\n            \"PA:FMR: Record In Transferred-unregistered status\"\r\n        );\r\n        require(rec.assetStatus < 200, \"FMR: Record locked\");\r\n        //^^^^^^^checks^^^^^^^^^\r\n\r\n        if (rec.forceModCount < 255) {\r\n            rec.forceModCount++;\r\n        }\r\n\r\n        if (rec.numberOfTransfers < 65335) {\r\n            rec.numberOfTransfers++;\r\n        }\r\n\r\n        rec.assetStatus = 0;\r\n        rec.rightsHolder = _rgtHash;\r\n        //^^^^^^^effects^^^^^^^^^\r\n\r\n        writeRecord(_idxHash, rec);\r\n\r\n        deductForceModifyCosts(rec.assetClass);\r\n\r\n        return rec.forceModCount;\r\n        //^^^^^^^interactions^^^^^^^^^\r\n    }\r\n\r\n    /*\r\n     * @dev Transfer Rights to new rightsHolder with confirmation\r\n     */\r\n    function $transferAsset(\r\n        bytes32 _idxHash,\r\n        bytes32 _rgtHash,\r\n        bytes32 _newrgtHash\r\n    ) external payable nonReentrant isAuthorized(_idxHash) returns (uint8) {\r\n        Record memory rec = getRecord(_idxHash);\r\n        User memory callingUser = getUser();\r\n        AC memory AC_info = getACinfo(rec.assetClass);\r\n\r\n        require(\r\n            AC_info.custodyType == 1,\r\n            \"PA:TA: Contract not authorized for non-custodial assets\"\r\n        );\r\n        require((rec.rightsHolder != 0), \"PA:TA: Record does not exist\");\r\n        require(\r\n            callingUser.authorizedAssetClass == rec.assetClass,\r\n            \"PA:TA: User not authorized to modify records in specified asset class\"\r\n        );\r\n        require(\r\n            (rec.assetStatus > 49) || (callingUser.userType < 5),\r\n            \"PA:TA:Only usertype < 5 can change status < 50\"\r\n        );\r\n        require(_newrgtHash != 0, \"PA:TA:new Rightsholder cannot be blank\");\r\n        require(\r\n            (rec.assetStatus == 1) || (rec.assetStatus == 51),\r\n            \"PA:TA:Asset status is not transferrable\"\r\n        );\r\n        require(rec.assetStatus < 200, \"PA:TA: Record locked\");\r\n        require(\r\n            rec.rightsHolder == _rgtHash,\r\n            \"PA:TA:Rightsholder does not match supplied data\"\r\n        );\r\n        //^^^^^^^checks^^^^^^^^^\r\n        if (rec.numberOfTransfers < 65335) {\r\n            rec.numberOfTransfers++;\r\n        }\r\n\r\n        rec.rightsHolder = _newrgtHash;\r\n        //^^^^^^^effects^^^^^^^^^\r\n\r\n        writeRecord(_idxHash, rec);\r\n\r\n        deductTransferAssetCosts(rec.assetClass);\r\n\r\n        return (170);\r\n        //^^^^^^^interactions^^^^^^^^^\r\n    }\r\n\r\n    /*\r\n     * @dev Modify **Record**.Ipfs2 with confirmation\r\n     */\r\n    function $addIpfs2Note(\r\n        bytes32 _idxHash,\r\n        bytes32 _rgtHash,\r\n        bytes32 _IpfsHash\r\n    ) external payable nonReentrant isAuthorized(_idxHash) returns (bytes32) {\r\n        Record memory rec = getRecord(_idxHash);\r\n        User memory callingUser = getUser();\r\n        AC memory AC_info = getACinfo(rec.assetClass);\r\n\r\n        require(\r\n            AC_info.custodyType == 1,\r\n            \"PA:I2: Contract not authorized for non-custodial assets\"\r\n        );\r\n        require((rec.rightsHolder != 0), \"PA:I2: Record does not exist\");\r\n        require(\r\n            callingUser.authorizedAssetClass == rec.assetClass,\r\n            \"PA:I2: User not authorized to modify records in specified asset class\"\r\n        );\r\n        require(\r\n            (rec.assetStatus != 6) &&\r\n                (rec.assetStatus != 50) &&\r\n                (rec.assetStatus != 56),\r\n            \"PA:I2: Cannot modify asset in Escrow\"\r\n        );\r\n        require(rec.assetStatus < 200, \"PA:I2: Record locked\");\r\n        require(\r\n            (rec.assetStatus != 5) && (rec.assetStatus != 55),\r\n            \"PA:I2: Record In Transferred-unregistered status\"\r\n        );\r\n        require(\r\n            rec.Ipfs2 == 0,\r\n            \"PA:I2: Ipfs2 has data already. Overwrite not permitted\"\r\n        );\r\n        require(\r\n            rec.rightsHolder == _rgtHash,\r\n            \"PA:I2: Rightsholder does not match supplied data\"\r\n        );\r\n        //^^^^^^^checks^^^^^^^^^\r\n\r\n        rec.Ipfs2 = _IpfsHash;\r\n        //^^^^^^^effects^^^^^^^^^\r\n\r\n        writeRecordIpfs2(_idxHash, rec);\r\n\r\n        deductCreateNoteCosts(rec.assetClass);\r\n\r\n        return rec.Ipfs2;\r\n        //^^^^^^^interactions^^^^^^^^^\r\n    }\r\n\r\n    /*\r\n     * @dev Reimport **Record**.rightsHolder (no confirmation required -\r\n     * posessor is considered to be owner). sets rec.assetStatus to 0.\r\n     */\r\n    function $importAsset(bytes32 _idxHash, bytes32 _rgtHash)\r\n        external\r\n        payable\r\n        nonReentrant\r\n        isAuthorized(_idxHash)\r\n        returns (uint8)\r\n    {\r\n        Record memory rec = getRecord(_idxHash);\r\n        User memory callingUser = getUser();\r\n        AC memory AC_info = getACinfo(rec.assetClass);\r\n\r\n        require(\r\n            AC_info.custodyType == 1,\r\n            \"PA:IA: Contract not authorized for non-custodial assets\"\r\n        );\r\n        require((rec.rightsHolder != 0), \"PA:IA: Record does not exist\");\r\n        require(\r\n            callingUser.userType < 3,\r\n            \"PA:IA: User not authorized to reimport assets\"\r\n        );\r\n        require(\r\n            callingUser.authorizedAssetClass == rec.assetClass,\r\n            \"PA:IA: User not authorized to modify records in specified asset class\"\r\n        );\r\n        require(\r\n            (rec.assetStatus == 5) || (rec.assetStatus == 55) || (rec.assetStatus == 70),\r\n            \"PA:IA: Only Transferred or exported assets can be reimported\"\r\n        );\r\n        require(rec.assetStatus < 200, \"PA:IA: Record locked\");\r\n        //^^^^^^^checks^^^^^^^^^\r\n\r\n        if (rec.numberOfTransfers < 65335) {\r\n            rec.numberOfTransfers++;\r\n        }\r\n\r\n        rec.assetStatus = 0;\r\n        rec.rightsHolder = _rgtHash;\r\n        //^^^^^^^effects^^^^^^^^^\r\n\r\n        writeRecord(_idxHash, rec);\r\n\r\n        deductNewRecordCosts(rec.assetClass);\r\n\r\n        return rec.assetStatus;\r\n        //^^^^^^^interactions^^^^^^^^^\r\n    }\r\n}\r\n",
  "sourcePath": "C:\\Users\\drake\\OneDrive\\Documents\\DEV\\BulletProof\\PRUF_TRUFFLE\\contracts\\PRUF_app_065.sol",
  "compiler": {
    "name": "solc",
    "version": "0.6.9+commit.3e3065ac.Emscripten.clang"
  },
  "schemaVersion": "3.2.2",
  "updatedAt": "2020-07-15T15:48:26.565Z",
  "devdoc": {
    "methods": {
      "owner()": {
        "details": "Returns the address of the current owner."
      },
      "payments(address)": {
        "details": "Returns the payments owed to an address.",
        "params": {
          "dest": "The creditor's address."
        }
      },
      "renounceOwnership()": {
        "details": "Leaves the contract without owner. It will not be possible to call `onlyOwner` functions anymore. Can only be called by the current owner. NOTE: Renouncing ownership will leave the contract without an owner, thereby removing any functionality that is only available to the owner."
      },
      "transferOwnership(address)": {
        "details": "Transfers ownership of the contract to a new account (`newOwner`). Can only be called by the current owner."
      },
      "withdrawPayments(address)": {
        "details": "Withdraw accumulated payments, forwarding all gas to the recipient. Note that _any_ account can call this function, not just the `payee`. This means that contracts unaware of the `PullPayment` protocol can still receive funds this way, by having a separate account call {withdrawPayments}. WARNING: Forwarding all gas opens the door to reentrancy vulnerabilities. Make sure you trust the recipient, or are either following the checks-effects-interactions pattern or using {ReentrancyGuard}.",
        "params": {
          "payee": "Whose payments will be withdrawn."
        }
      }
    }
  },
  "userdoc": {
    "methods": {}
  }
}