{
  "contractName": "PRUF",
  "abi": [
    {
      "anonymous": false,
      "inputs": [
        {
          "indexed": true,
          "internalType": "address",
          "name": "previousOwner",
          "type": "address"
        },
        {
          "indexed": true,
          "internalType": "address",
          "name": "newOwner",
          "type": "address"
        }
      ],
      "name": "OwnershipTransferred",
      "type": "event"
    },
    {
      "anonymous": false,
      "inputs": [
        {
          "indexed": false,
          "internalType": "string",
          "name": "_msg",
          "type": "string"
        }
      ],
      "name": "REPORT",
      "type": "event"
    },
    {
      "inputs": [],
      "name": "OO_ResolveContractAddresses",
      "outputs": [],
      "stateMutability": "nonpayable",
      "type": "function"
    },
    {
      "inputs": [
        {
          "internalType": "address",
          "name": "_to",
          "type": "address"
        },
        {
          "internalType": "bytes32",
          "name": "_idxHash",
          "type": "bytes32"
        }
      ],
      "name": "OO_TX_AC_Token",
      "outputs": [],
      "stateMutability": "nonpayable",
      "type": "function"
    },
    {
      "inputs": [
        {
          "internalType": "address",
          "name": "_to",
          "type": "address"
        },
        {
          "internalType": "bytes32",
          "name": "_idxHash",
          "type": "bytes32"
        }
      ],
      "name": "OO_TX_asset_Token",
      "outputs": [],
      "stateMutability": "nonpayable",
      "type": "function"
    },
    {
      "inputs": [
        {
          "internalType": "address",
          "name": "_storageAddress",
          "type": "address"
        }
      ],
      "name": "OO_setStorageContract",
      "outputs": [],
      "stateMutability": "nonpayable",
      "type": "function"
    },
    {
      "inputs": [
        {
          "internalType": "address",
          "name": "",
          "type": "address"
        },
        {
          "internalType": "address",
          "name": "",
          "type": "address"
        },
        {
          "internalType": "uint256",
          "name": "",
          "type": "uint256"
        },
        {
          "internalType": "bytes",
          "name": "",
          "type": "bytes"
        }
      ],
      "name": "onERC721Received",
      "outputs": [
        {
          "internalType": "bytes4",
          "name": "",
          "type": "bytes4"
        }
      ],
      "stateMutability": "nonpayable",
      "type": "function"
    },
    {
      "inputs": [],
      "name": "owner",
      "outputs": [
        {
          "internalType": "address",
          "name": "",
          "type": "address"
        }
      ],
      "stateMutability": "view",
      "type": "function"
    },
    {
      "inputs": [
        {
          "internalType": "address",
          "name": "dest",
          "type": "address"
        }
      ],
      "name": "payments",
      "outputs": [
        {
          "internalType": "uint256",
          "name": "",
          "type": "uint256"
        }
      ],
      "stateMutability": "view",
      "type": "function"
    },
    {
      "inputs": [],
      "name": "renounceOwnership",
      "outputs": [],
      "stateMutability": "nonpayable",
      "type": "function"
    },
    {
      "inputs": [
        {
          "internalType": "address",
          "name": "newOwner",
          "type": "address"
        }
      ],
      "name": "transferOwnership",
      "outputs": [],
      "stateMutability": "nonpayable",
      "type": "function"
    },
    {
      "inputs": [
        {
          "internalType": "address payable",
          "name": "payee",
          "type": "address"
        }
      ],
      "name": "withdrawPayments",
      "outputs": [],
      "stateMutability": "nonpayable",
      "type": "function"
    },
    {
      "inputs": [],
      "name": "$withdraw",
      "outputs": [],
      "stateMutability": "payable",
      "type": "function"
    }
  ],
  "bytecode": "0x608060405234801561001057600080fd5b5060405161001d9061013c565b604051809103906000f080158015610039573d6000803e3d6000fd5b506000806101000a81548173ffffffffffffffffffffffffffffffffffffffff021916908373ffffffffffffffffffffffffffffffffffffffff16021790555060018081905550600061009061013460201b60201c565b905080600260006101000a81548173ffffffffffffffffffffffffffffffffffffffff021916908373ffffffffffffffffffffffffffffffffffffffff1602179055508073ffffffffffffffffffffffffffffffffffffffff16600073ffffffffffffffffffffffffffffffffffffffff167f8be0079c531659141344cd1fd0a4f28419497f9722a3daafe3b4186f6b6457e060405160405180910390a350610149565b600033905090565b610cd78061198983390190565b611831806101586000396000f3fe60806040526004361061009c5760003560e01c8063715018a611610064578063715018a6146102905780638da5cb5b146102a7578063b1d83c18146102fe578063d6b02ecf14610359578063e2982c21146103aa578063f2fde38b1461040f5761009c565b8063150b7a02146100a15780632cb741aa146101c357806331b3eb94146101cd578063466aafa41461021e5780634b9f23a414610279575b600080fd5b3480156100ad57600080fd5b5061016f600480360360808110156100c457600080fd5b81019080803573ffffffffffffffffffffffffffffffffffffffff169060200190929190803573ffffffffffffffffffffffffffffffffffffffff169060200190929190803590602001909291908035906020019064010000000081111561012b57600080fd5b82018360208201111561013d57600080fd5b8035906020019184600183028401116401000000008311171561015f57600080fd5b9091929391929390505050610460565b60405180827bffffffffffffffffffffffffffffffffffffffffffffffffffffffff19167bffffffffffffffffffffffffffffffffffffffffffffffffffffffff1916815260200191505060405180910390f35b6101cb610475565b005b3480156101d957600080fd5b5061021c600480360360208110156101f057600080fd5b81019080803573ffffffffffffffffffffffffffffffffffffffff169060200190929190505050610508565b005b34801561022a57600080fd5b506102776004803603604081101561024157600080fd5b81019080803573ffffffffffffffffffffffffffffffffffffffff169060200190929190803590602001909291905050506105c3565b005b34801561028557600080fd5b5061028e610817565b005b34801561029c57600080fd5b506102a5610f18565b005b3480156102b357600080fd5b506102bc6110a3565b604051808273ffffffffffffffffffffffffffffffffffffffff1673ffffffffffffffffffffffffffffffffffffffff16815260200191505060405180910390f35b34801561030a57600080fd5b506103576004803603604081101561032157600080fd5b81019080803573ffffffffffffffffffffffffffffffffffffffff169060200190929190803590602001909291905050506110cd565b005b34801561036557600080fd5b506103a86004803603602081101561037c57600080fd5b81019080803573ffffffffffffffffffffffffffffffffffffffff169060200190929190505050611321565b005b3480156103b657600080fd5b506103f9600480360360208110156103cd57600080fd5b81019080803573ffffffffffffffffffffffffffffffffffffffff1690602001909291905050506114b5565b6040518082815260200191505060405180910390f35b34801561041b57600080fd5b5061045e6004803603602081101561043257600080fd5b81019080803573ffffffffffffffffffffffffffffffffffffffff169060200190929190505050611597565b005b600063150b7a0260e01b905095945050505050565b600260015414156104ee576040517f08c379a000000000000000000000000000000000000000000000000000000000815260040180806020018281038252601f8152602001807f5265656e7472616e637947756172643a207265656e7472616e742063616c6c0081525060200191505060405180910390fd5b60026001819055506104ff33610508565b60018081905550565b6000809054906101000a900473ffffffffffffffffffffffffffffffffffffffff1673ffffffffffffffffffffffffffffffffffffffff166351cff8d9826040518263ffffffff1660e01b8152600401808273ffffffffffffffffffffffffffffffffffffffff1673ffffffffffffffffffffffffffffffffffffffff168152602001915050600060405180830381600087803b1580156105a857600080fd5b505af11580156105bc573d6000803e3d6000fd5b5050505050565b6105cb6117a7565b73ffffffffffffffffffffffffffffffffffffffff16600260009054906101000a900473ffffffffffffffffffffffffffffffffffffffff1673ffffffffffffffffffffffffffffffffffffffff161461068d576040517f08c379a00000000000000000000000000000000000000000000000000000000081526004018080602001828103825260208152602001807f4f776e61626c653a2063616c6c6572206973206e6f7420746865206f776e657281525060200191505060405180910390fd5b60026001541415610706576040517f08c379a000000000000000000000000000000000000000000000000000000000815260040180806020018281038252601f8152602001807f5265656e7472616e637947756172643a207265656e7472616e742063616c6c0081525060200191505060405180910390fd5b600260018190555060008160001c9050600960009054906101000a900473ffffffffffffffffffffffffffffffffffffffff1673ffffffffffffffffffffffffffffffffffffffff166342842e0e3085846040518463ffffffff1660e01b8152600401808473ffffffffffffffffffffffffffffffffffffffff1673ffffffffffffffffffffffffffffffffffffffff1681526020018373ffffffffffffffffffffffffffffffffffffffff1673ffffffffffffffffffffffffffffffffffffffff1681526020018281526020019350505050600060405180830381600087803b1580156107f357600080fd5b505af1158015610807573d6000803e3d6000fd5b5050505050600180819055505050565b60026001541415610890576040517f08c379a000000000000000000000000000000000000000000000000000000000815260040180806020018281038252601f8152602001807f5265656e7472616e637947756172643a207265656e7472616e742063616c6c0081525060200191505060405180910390fd5b60026001819055506108a06117a7565b73ffffffffffffffffffffffffffffffffffffffff16600260009054906101000a900473ffffffffffffffffffffffffffffffffffffffff1673ffffffffffffffffffffffffffffffffffffffff1614610962576040517f08c379a00000000000000000000000000000000000000000000000000000000081526004018080602001828103825260208152602001807f4f776e61626c653a2063616c6c6572206973206e6f7420746865206f776e657281525060200191505060405180910390fd5b600560009054906101000a900473ffffffffffffffffffffffffffffffffffffffff1673ffffffffffffffffffffffffffffffffffffffff1663c771a9826040518163ffffffff1660e01b815260040180806020018281038252600f8152602001807f6173736574436c617373546f6b656e0000000000000000000000000000000000815250602001915050602060405180830381600087803b158015610a0857600080fd5b505af1158015610a1c573d6000803e3d6000fd5b505050506040513d6020811015610a3257600080fd5b8101908080519060200190929190505050600a60006101000a81548173ffffffffffffffffffffffffffffffffffffffff021916908373ffffffffffffffffffffffffffffffffffffffff160217905550600a60009054906101000a900473ffffffffffffffffffffffffffffffffffffffff16600b60006101000a81548173ffffffffffffffffffffffffffffffffffffffff021916908373ffffffffffffffffffffffffffffffffffffffff160217905550600560009054906101000a900473ffffffffffffffffffffffffffffffffffffffff1673ffffffffffffffffffffffffffffffffffffffff1663c771a9826040518163ffffffff1660e01b815260040180806020018281038252600b8152602001807f505255465f41435f4d4752000000000000000000000000000000000000000000815250602001915050602060405180830381600087803b158015610b8c57600080fd5b505af1158015610ba0573d6000803e3d6000fd5b505050506040513d6020811015610bb657600080fd5b8101908080519060200190929190505050600660006101000a81548173ffffffffffffffffffffffffffffffffffffffff021916908373ffffffffffffffffffffffffffffffffffffffff160217905550600660009054906101000a900473ffffffffffffffffffffffffffffffffffffffff16600760006101000a81548173ffffffffffffffffffffffffffffffffffffffff021916908373ffffffffffffffffffffffffffffffffffffffff160217905550600560009054906101000a900473ffffffffffffffffffffffffffffffffffffffff1673ffffffffffffffffffffffffffffffffffffffff1663c771a9826040518163ffffffff1660e01b815260040180806020018281038252600a8152602001807f6173736574546f6b656e00000000000000000000000000000000000000000000815250602001915050602060405180830381600087803b158015610d1057600080fd5b505af1158015610d24573d6000803e3d6000fd5b505050506040513d6020811015610d3a57600080fd5b8101908080519060200190929190505050600860006101000a81548173ffffffffffffffffffffffffffffffffffffffff021916908373ffffffffffffffffffffffffffffffffffffffff160217905550600860009054906101000a900473ffffffffffffffffffffffffffffffffffffffff16600960006101000a81548173ffffffffffffffffffffffffffffffffffffffff021916908373ffffffffffffffffffffffffffffffffffffffff160217905550600560009054906101000a900473ffffffffffffffffffffffffffffffffffffffff1673ffffffffffffffffffffffffffffffffffffffff1663c771a9826040518163ffffffff1660e01b81526004018080602001828103825260088152602001807f505255465f415050000000000000000000000000000000000000000000000000815250602001915050602060405180830381600087803b158015610e9457600080fd5b505af1158015610ea8573d6000803e3d6000fd5b505050506040513d6020811015610ebe57600080fd5b8101908080519060200190929190505050600c60006101000a81548173ffffffffffffffffffffffffffffffffffffffff021916908373ffffffffffffffffffffffffffffffffffffffff16021790555060018081905550565b610f206117a7565b73ffffffffffffffffffffffffffffffffffffffff16600260009054906101000a900473ffffffffffffffffffffffffffffffffffffffff1673ffffffffffffffffffffffffffffffffffffffff1614610fe2576040517f08c379a00000000000000000000000000000000000000000000000000000000081526004018080602001828103825260208152602001807f4f776e61626c653a2063616c6c6572206973206e6f7420746865206f776e657281525060200191505060405180910390fd5b600073ffffffffffffffffffffffffffffffffffffffff16600260009054906101000a900473ffffffffffffffffffffffffffffffffffffffff1673ffffffffffffffffffffffffffffffffffffffff167f8be0079c531659141344cd1fd0a4f28419497f9722a3daafe3b4186f6b6457e060405160405180910390a36000600260006101000a81548173ffffffffffffffffffffffffffffffffffffffff021916908373ffffffffffffffffffffffffffffffffffffffff160217905550565b6000600260009054906101000a900473ffffffffffffffffffffffffffffffffffffffff16905090565b6110d56117a7565b73ffffffffffffffffffffffffffffffffffffffff16600260009054906101000a900473ffffffffffffffffffffffffffffffffffffffff1673ffffffffffffffffffffffffffffffffffffffff1614611197576040517f08c379a00000000000000000000000000000000000000000000000000000000081526004018080602001828103825260208152602001807f4f776e61626c653a2063616c6c6572206973206e6f7420746865206f776e657281525060200191505060405180910390fd5b60026001541415611210576040517f08c379a000000000000000000000000000000000000000000000000000000000815260040180806020018281038252601f8152602001807f5265656e7472616e637947756172643a207265656e7472616e742063616c6c0081525060200191505060405180910390fd5b600260018190555060008160001c9050600b60009054906101000a900473ffffffffffffffffffffffffffffffffffffffff1673ffffffffffffffffffffffffffffffffffffffff166342842e0e3085846040518463ffffffff1660e01b8152600401808473ffffffffffffffffffffffffffffffffffffffff1673ffffffffffffffffffffffffffffffffffffffff1681526020018373ffffffffffffffffffffffffffffffffffffffff1673ffffffffffffffffffffffffffffffffffffffff1681526020018281526020019350505050600060405180830381600087803b1580156112fd57600080fd5b505af1158015611311573d6000803e3d6000fd5b5050505050600180819055505050565b6113296117a7565b73ffffffffffffffffffffffffffffffffffffffff16600260009054906101000a900473ffffffffffffffffffffffffffffffffffffffff1673ffffffffffffffffffffffffffffffffffffffff16146113eb576040517f08c379a00000000000000000000000000000000000000000000000000000000081526004018080602001828103825260208152602001807f4f776e61626c653a2063616c6c6572206973206e6f7420746865206f776e657281525060200191505060405180910390fd5b600073ffffffffffffffffffffffffffffffffffffffff168173ffffffffffffffffffffffffffffffffffffffff161415611471576040517f08c379a00000000000000000000000000000000000000000000000000000000081526004018080602001828103825260268152602001806117d66026913960400191505060405180910390fd5b80600560006101000a81548173ffffffffffffffffffffffffffffffffffffffff021916908373ffffffffffffffffffffffffffffffffffffffff16021790555050565b60008060009054906101000a900473ffffffffffffffffffffffffffffffffffffffff1673ffffffffffffffffffffffffffffffffffffffff1663e3a9db1a836040518263ffffffff1660e01b8152600401808273ffffffffffffffffffffffffffffffffffffffff1673ffffffffffffffffffffffffffffffffffffffff16815260200191505060206040518083038186803b15801561155557600080fd5b505afa158015611569573d6000803e3d6000fd5b505050506040513d602081101561157f57600080fd5b81019080805190602001909291905050509050919050565b61159f6117a7565b73ffffffffffffffffffffffffffffffffffffffff16600260009054906101000a900473ffffffffffffffffffffffffffffffffffffffff1673ffffffffffffffffffffffffffffffffffffffff1614611661576040517f08c379a00000000000000000000000000000000000000000000000000000000081526004018080602001828103825260208152602001807f4f776e61626c653a2063616c6c6572206973206e6f7420746865206f776e657281525060200191505060405180910390fd5b600073ffffffffffffffffffffffffffffffffffffffff168173ffffffffffffffffffffffffffffffffffffffff1614156116e7576040517f08c379a00000000000000000000000000000000000000000000000000000000081526004018080602001828103825260268152602001806117b06026913960400191505060405180910390fd5b8073ffffffffffffffffffffffffffffffffffffffff16600260009054906101000a900473ffffffffffffffffffffffffffffffffffffffff1673ffffffffffffffffffffffffffffffffffffffff167f8be0079c531659141344cd1fd0a4f28419497f9722a3daafe3b4186f6b6457e060405160405180910390a380600260006101000a81548173ffffffffffffffffffffffffffffffffffffffff021916908373ffffffffffffffffffffffffffffffffffffffff16021790555050565b60003390509056fe4f776e61626c653a206e6577206f776e657220697320746865207a65726f206164647265737350433a5353433a2073746f7261676520616464726573732063616e6e6f74206265207a65726fa2646970667358221220dcfe686efd840972f75f363b5d688de75465918798365b46a79b11906c22164164736f6c63430006090033608060405234801561001057600080fd5b5060006100216100c460201b60201c565b9050806000806101000a81548173ffffffffffffffffffffffffffffffffffffffff021916908373ffffffffffffffffffffffffffffffffffffffff1602179055508073ffffffffffffffffffffffffffffffffffffffff16600073ffffffffffffffffffffffffffffffffffffffff167f8be0079c531659141344cd1fd0a4f28419497f9722a3daafe3b4186f6b6457e060405160405180910390a3506100cc565b600033905090565b610bfc806100db6000396000f3fe6080604052600436106100555760003560e01c806351cff8d91461005a578063715018a6146100ab5780638da5cb5b146100c2578063e3a9db1a14610119578063f2fde38b1461017e578063f340fa01146101cf575b600080fd5b34801561006657600080fd5b506100a96004803603602081101561007d57600080fd5b81019080803573ffffffffffffffffffffffffffffffffffffffff169060200190929190505050610213565b005b3480156100b757600080fd5b506100c06103e0565b005b3480156100ce57600080fd5b506100d7610568565b604051808273ffffffffffffffffffffffffffffffffffffffff1673ffffffffffffffffffffffffffffffffffffffff16815260200191505060405180910390f35b34801561012557600080fd5b506101686004803603602081101561013c57600080fd5b81019080803573ffffffffffffffffffffffffffffffffffffffff169060200190929190505050610591565b6040518082815260200191505060405180910390f35b34801561018a57600080fd5b506101cd600480360360208110156101a157600080fd5b81019080803573ffffffffffffffffffffffffffffffffffffffff1690602001909291905050506105da565b005b610211600480360360208110156101e557600080fd5b81019080803573ffffffffffffffffffffffffffffffffffffffff1690602001909291905050506107e7565b005b61021b61099c565b73ffffffffffffffffffffffffffffffffffffffff166000809054906101000a900473ffffffffffffffffffffffffffffffffffffffff1673ffffffffffffffffffffffffffffffffffffffff16146102dc576040517f08c379a00000000000000000000000000000000000000000000000000000000081526004018080602001828103825260208152602001807f4f776e61626c653a2063616c6c6572206973206e6f7420746865206f776e657281525060200191505060405180910390fd5b6000600160008373ffffffffffffffffffffffffffffffffffffffff1673ffffffffffffffffffffffffffffffffffffffff1681526020019081526020016000205490506000600160008473ffffffffffffffffffffffffffffffffffffffff1673ffffffffffffffffffffffffffffffffffffffff1681526020019081526020016000208190555061038e818373ffffffffffffffffffffffffffffffffffffffff166109a490919063ffffffff16565b8173ffffffffffffffffffffffffffffffffffffffff167f7084f5476618d8e60b11ef0d7d3f06914655adb8793e28ff7f018d4c76d505d5826040518082815260200191505060405180910390a25050565b6103e861099c565b73ffffffffffffffffffffffffffffffffffffffff166000809054906101000a900473ffffffffffffffffffffffffffffffffffffffff1673ffffffffffffffffffffffffffffffffffffffff16146104a9576040517f08c379a00000000000000000000000000000000000000000000000000000000081526004018080602001828103825260208152602001807f4f776e61626c653a2063616c6c6572206973206e6f7420746865206f776e657281525060200191505060405180910390fd5b600073ffffffffffffffffffffffffffffffffffffffff166000809054906101000a900473ffffffffffffffffffffffffffffffffffffffff1673ffffffffffffffffffffffffffffffffffffffff167f8be0079c531659141344cd1fd0a4f28419497f9722a3daafe3b4186f6b6457e060405160405180910390a360008060006101000a81548173ffffffffffffffffffffffffffffffffffffffff021916908373ffffffffffffffffffffffffffffffffffffffff160217905550565b60008060009054906101000a900473ffffffffffffffffffffffffffffffffffffffff16905090565b6000600160008373ffffffffffffffffffffffffffffffffffffffff1673ffffffffffffffffffffffffffffffffffffffff168152602001908152602001600020549050919050565b6105e261099c565b73ffffffffffffffffffffffffffffffffffffffff166000809054906101000a900473ffffffffffffffffffffffffffffffffffffffff1673ffffffffffffffffffffffffffffffffffffffff16146106a3576040517f08c379a00000000000000000000000000000000000000000000000000000000081526004018080602001828103825260208152602001807f4f776e61626c653a2063616c6c6572206973206e6f7420746865206f776e657281525060200191505060405180910390fd5b600073ffffffffffffffffffffffffffffffffffffffff168173ffffffffffffffffffffffffffffffffffffffff161415610729576040517f08c379a0000000000000000000000000000000000000000000000000000000008152600401808060200182810382526026815260200180610b676026913960400191505060405180910390fd5b8073ffffffffffffffffffffffffffffffffffffffff166000809054906101000a900473ffffffffffffffffffffffffffffffffffffffff1673ffffffffffffffffffffffffffffffffffffffff167f8be0079c531659141344cd1fd0a4f28419497f9722a3daafe3b4186f6b6457e060405160405180910390a3806000806101000a81548173ffffffffffffffffffffffffffffffffffffffff021916908373ffffffffffffffffffffffffffffffffffffffff16021790555050565b6107ef61099c565b73ffffffffffffffffffffffffffffffffffffffff166000809054906101000a900473ffffffffffffffffffffffffffffffffffffffff1673ffffffffffffffffffffffffffffffffffffffff16146108b0576040517f08c379a00000000000000000000000000000000000000000000000000000000081526004018080602001828103825260208152602001807f4f776e61626c653a2063616c6c6572206973206e6f7420746865206f776e657281525060200191505060405180910390fd5b600034905061090781600160008573ffffffffffffffffffffffffffffffffffffffff1673ffffffffffffffffffffffffffffffffffffffff16815260200190815260200160002054610ade90919063ffffffff16565b600160008473ffffffffffffffffffffffffffffffffffffffff1673ffffffffffffffffffffffffffffffffffffffff168152602001908152602001600020819055508173ffffffffffffffffffffffffffffffffffffffff167f2da466a7b24304f47e87fa2e1e5a81b9831ce54fec19055ce277ca2f39ba42c4826040518082815260200191505060405180910390a25050565b600033905090565b80471015610a1a576040517f08c379a000000000000000000000000000000000000000000000000000000000815260040180806020018281038252601d8152602001807f416464726573733a20696e73756666696369656e742062616c616e636500000081525060200191505060405180910390fd5b60008273ffffffffffffffffffffffffffffffffffffffff168260405180600001905060006040518083038185875af1925050503d8060008114610a7a576040519150601f19603f3d011682016040523d82523d6000602084013e610a7f565b606091505b5050905080610ad9576040517f08c379a000000000000000000000000000000000000000000000000000000000815260040180806020018281038252603a815260200180610b8d603a913960400191505060405180910390fd5b505050565b600080828401905083811015610b5c576040517f08c379a000000000000000000000000000000000000000000000000000000000815260040180806020018281038252601b8152602001807f536166654d6174683a206164646974696f6e206f766572666c6f77000000000081525060200191505060405180910390fd5b809150509291505056fe4f776e61626c653a206e6577206f776e657220697320746865207a65726f2061646472657373416464726573733a20756e61626c6520746f2073656e642076616c75652c20726563697069656e74206d61792068617665207265766572746564a26469706673582212201f63313109a1653954be0940e0a85ad69fed5eba0c6996501a3122a39d7cc38664736f6c63430006090033",
  "immutableReferences": {},
  "source": "/*-----------------------------------------------------------------\r\n *  TO DO\r\n * change costs struct to include deposit-cost and ??? to repace changeststus and remint\r\n*-----------------------------------------------------------------*/\r\n\r\n// SPDX-License-Identifier: UNLICENSED\r\npragma solidity ^0.6.7;\r\n\r\nimport \"./PRUF_interfaces_065.sol\";\r\nimport \"./Imports/PullPayment.sol\";\r\nimport \"./Imports/ReentrancyGuard.sol\";\r\nimport \"./PRUF_basic_065.sol\";\r\n\r\ncontract PRUF is PullPayment, PRUF_BASIC {\r\n\r\n    using SafeMath for uint256;\r\n    using SafeMath for uint16;\r\n    using SafeMath for uint8;\r\n\r\n    struct Costs {\r\n        uint256 newRecordCost; // Cost to create a new record\r\n        uint256 transferAssetCost; // Cost to transfer a record from known rights holder to a new one\r\n        uint256 createNoteCost; // Cost to add a static note to an asset\r\n        uint256 reMintRecordCost; // Extra\r\n        uint256 changeStatusCost; // Extra\r\n        uint256 forceModifyCost; // Cost to brute-force a record transfer\r\n        address paymentAddress; // 2nd-party fee beneficiary address\r\n    }\r\n\r\n    struct Invoice {\r\n        address rootAddress;\r\n        uint256 rootPrice;\r\n        address ACTHaddress;\r\n        uint256 ACTHprice;\r\n    }\r\n\r\n    /*\r\n     * @dev retrieves costs from Storage and returns Costs struct\r\n     */\r\n    function getCost(uint16 _assetClass) internal returns (Costs memory) {\r\n        //^^^^^^^checks^^^^^^^^^\r\n        Costs memory cost;\r\n        //^^^^^^^effects^^^^^^^^^\r\n        (\r\n            cost.newRecordCost,\r\n            cost.transferAssetCost,\r\n            cost.createNoteCost,\r\n            cost.reMintRecordCost,\r\n            cost.changeStatusCost,\r\n            cost.forceModifyCost,\r\n            cost.paymentAddress\r\n        ) = AssetClassTokenManagerContract.retrieveCosts(_assetClass);\r\n\r\n        return (cost);\r\n        //^^^^^^^interactions^^^^^^^^^\r\n    }\r\n\r\n    /*\r\n     * @dev Write a Record to Storage @ idxHash\r\n     */\r\n    function writeRecord(bytes32 _idxHash, Record memory _rec)\r\n        internal\r\n        isAuthorized(_idxHash)\r\n    {\r\n        //^^^^^^^checks^^^^^^^^^\r\n        bytes32 userHash = keccak256(abi.encodePacked(msg.sender)); // Get a userhash for authentication and recorder logging\r\n        //^^^^^^^effects^^^^^^^^^\r\n        Storage.modifyRecord(\r\n            userHash,\r\n            _idxHash,\r\n            _rec.rightsHolder,\r\n            _rec.assetStatus,\r\n            _rec.countDown,\r\n            _rec.forceModCount,\r\n            _rec.numberOfTransfers\r\n        ); // Send data and writehash to storage\r\n        //^^^^^^^interactions^^^^^^^^^\r\n    }\r\n\r\n    /*\r\n     * @dev Write an Ipfs Record to Storage @ idxHash\r\n     */\r\n    function writeRecordIpfs1(bytes32 _idxHash, Record memory _rec)\r\n        internal\r\n        isAuthorized(_idxHash)\r\n    {\r\n        //^^^^^^^checks^^^^^^^^^\r\n        bytes32 userHash = keccak256(abi.encodePacked(msg.sender)); // Get a userhash for authentication and recorder logging\r\n        //^^^^^^^effects^^^^^^^^^\r\n        Storage.modifyIpfs1(userHash, _idxHash, _rec.Ipfs1); // Send data to storage\r\n        //^^^^^^^interactions^^^^^^^^^\r\n    }\r\n\r\n    //--------------------------------------------------------------------------------------Storage Writing internal functions\r\n\r\n    function writeRecordIpfs2(bytes32 _idxHash, Record memory _rec)\r\n        internal\r\n        isAuthorized(_idxHash)\r\n    {\r\n        //^^^^^^^checks^^^^^^^^^\r\n        bytes32 userHash = keccak256(abi.encodePacked(msg.sender)); // Get a userhash for authentication and recorder logging\r\n        //^^^^^^^effects^^^^^^^^^\r\n        Storage.modifyIpfs2(userHash, _idxHash, _rec.Ipfs2); // Send data to storage\r\n        //^^^^^^^interactions^^^^^^^^^\r\n    }\r\n\r\n    function deductNewRecordCosts(uint16 _assetClass) internal {\r\n        //^^^^^^^checks^^^^^^^^^\r\n        Invoice memory pricing;\r\n        //^^^^^^^effects^^^^^^^^^\r\n        (\r\n            pricing.rootAddress,\r\n            pricing.rootPrice,\r\n            pricing.ACTHaddress,\r\n            pricing.ACTHprice\r\n        ) = AssetClassTokenManagerContract.getNewRecordCosts(_assetClass);\r\n        deductPayment(pricing);\r\n        //^^^^^^^interactions^^^^^^^^^\r\n    }\r\n\r\n    function deductTransferAssetCosts(uint16 _assetClass) internal {\r\n        //^^^^^^^checks^^^^^^^^^\r\n        Invoice memory pricing;\r\n        //^^^^^^^effects^^^^^^^^^\r\n        (\r\n            pricing.rootAddress,\r\n            pricing.rootPrice,\r\n            pricing.ACTHaddress,\r\n            pricing.ACTHprice\r\n        ) = AssetClassTokenManagerContract.getTransferAssetCosts(_assetClass);\r\n        deductPayment(pricing);\r\n        //^^^^^^^interactions^^^^^^^^^\r\n    }\r\n\r\n    function deductCreateNoteCosts(uint16 _assetClass) internal {\r\n        //^^^^^^^checks^^^^^^^^^\r\n        Invoice memory pricing;\r\n        //^^^^^^^effects^^^^^^^^^\r\n        (\r\n            pricing.rootAddress,\r\n            pricing.rootPrice,\r\n            pricing.ACTHaddress,\r\n            pricing.ACTHprice\r\n        ) = AssetClassTokenManagerContract.getCreateNoteCosts(_assetClass);\r\n        deductPayment(pricing);\r\n        //^^^^^^^interactions^^^^^^^^^\r\n    }\r\n\r\n    function deductReMintRecordCosts(uint16 _assetClass) internal {\r\n        //^^^^^^^checks^^^^^^^^^\r\n        Invoice memory pricing;\r\n        //^^^^^^^effects^^^^^^^^^\r\n        (\r\n            pricing.rootAddress,\r\n            pricing.rootPrice,\r\n            pricing.ACTHaddress,\r\n            pricing.ACTHprice\r\n        ) = AssetClassTokenManagerContract.getReMintRecordCosts(_assetClass);\r\n        deductPayment(pricing);\r\n        //^^^^^^^interactions^^^^^^^^^\r\n    }\r\n\r\n    function deductChangeStatusCosts(uint16 _assetClass) internal {\r\n        //^^^^^^^checks^^^^^^^^^\r\n        Invoice memory pricing;\r\n        //^^^^^^^effects^^^^^^^^^\r\n        (\r\n            pricing.rootAddress,\r\n            pricing.rootPrice,\r\n            pricing.ACTHaddress,\r\n            pricing.ACTHprice\r\n        ) = AssetClassTokenManagerContract.getChangeStatusCosts(_assetClass);\r\n        deductPayment(pricing);\r\n        //^^^^^^^interactions^^^^^^^^^\r\n    }\r\n\r\n    function deductForceModifyCosts(uint16 _assetClass) internal {\r\n        //^^^^^^^checks^^^^^^^^^\r\n        Invoice memory pricing;\r\n        //^^^^^^^effects^^^^^^^^^\r\n        (\r\n            pricing.rootAddress,\r\n            pricing.rootPrice,\r\n            pricing.ACTHaddress,\r\n            pricing.ACTHprice\r\n        ) = AssetClassTokenManagerContract.getForceModifyCosts(_assetClass);\r\n        deductPayment(pricing);\r\n        //^^^^^^^interactions^^^^^^^^^\r\n    }\r\n\r\n    //--------------------------------------------------------------PAYMENT FUNCTIONS\r\n    /*\r\n     * @dev Withdraws user's credit balance from contract\r\n     */\r\n    function $withdraw() external virtual payable nonReentrant {\r\n        //^^^^^^^checks^^^^^^^^^\r\n        withdrawPayments(msg.sender);\r\n        //^^^^^^^interactions^^^^^^^^^\r\n    }\r\n\r\n    /*\r\n     * @dev Deducts payment from transaction\r\n     */\r\n    function deductPayment(Invoice memory pricing) internal {\r\n        uint256 messageValue = msg.value;\r\n        uint256 change;\r\n        uint256 total = pricing.rootPrice.add(pricing.ACTHprice);\r\n        require(msg.value >= total, \"PC:DP: TX value too low.\");\r\n        //^^^^^^^checks^^^^^^^^^\r\n        change = messageValue.sub(total);\r\n        _asyncTransfer(pricing.rootAddress, pricing.rootPrice);\r\n        _asyncTransfer(pricing.ACTHaddress, pricing.ACTHprice);\r\n        _asyncTransfer(msg.sender, change);\r\n        //^^^^^^^interactions^^^^^^^^^\r\n    }\r\n}\r\n",
  "sourcePath": "C:\\Users\\drake\\OneDrive\\Documents\\DEV\\BulletProof\\PRUF_TRUFFLE\\contracts\\PRUF_core_065.sol",
  "compiler": {
    "name": "solc",
    "version": "0.6.9+commit.3e3065ac.Emscripten.clang"
  },
  "schemaVersion": "3.2.2",
  "updatedAt": "2020-07-15T15:48:26.590Z",
  "devdoc": {
    "methods": {
      "owner()": {
        "details": "Returns the address of the current owner."
      },
      "payments(address)": {
        "details": "Returns the payments owed to an address.",
        "params": {
          "dest": "The creditor's address."
        }
      },
      "renounceOwnership()": {
        "details": "Leaves the contract without owner. It will not be possible to call `onlyOwner` functions anymore. Can only be called by the current owner. NOTE: Renouncing ownership will leave the contract without an owner, thereby removing any functionality that is only available to the owner."
      },
      "transferOwnership(address)": {
        "details": "Transfers ownership of the contract to a new account (`newOwner`). Can only be called by the current owner."
      },
      "withdrawPayments(address)": {
        "details": "Withdraw accumulated payments, forwarding all gas to the recipient. Note that _any_ account can call this function, not just the `payee`. This means that contracts unaware of the `PullPayment` protocol can still receive funds this way, by having a separate account call {withdrawPayments}. WARNING: Forwarding all gas opens the door to reentrancy vulnerabilities. Make sure you trust the recipient, or are either following the checks-effects-interactions pattern or using {ReentrancyGuard}.",
        "params": {
          "payee": "Whose payments will be withdrawn."
        }
      }
    }
  },
  "userdoc": {
    "methods": {}
  }
}