{
  "contractName": "PullPaymentMock",
  "abi": [
    {
      "inputs": [],
      "stateMutability": "payable",
      "type": "constructor"
    },
    {
      "inputs": [
        {
          "internalType": "address",
          "name": "dest",
          "type": "address"
        }
      ],
      "name": "payments",
      "outputs": [
        {
          "internalType": "uint256",
          "name": "",
          "type": "uint256"
        }
      ],
      "stateMutability": "view",
      "type": "function"
    },
    {
      "inputs": [
        {
          "internalType": "address payable",
          "name": "payee",
          "type": "address"
        }
      ],
      "name": "withdrawPayments",
      "outputs": [],
      "stateMutability": "nonpayable",
      "type": "function"
    },
    {
      "inputs": [
        {
          "internalType": "address",
          "name": "dest",
          "type": "address"
        },
        {
          "internalType": "uint256",
          "name": "amount",
          "type": "uint256"
        }
      ],
      "name": "callTransfer",
      "outputs": [],
      "stateMutability": "nonpayable",
      "type": "function"
    }
  ],
  "bytecode": "0x608060405260405161001090610052565b604051809103906000f08015801561002c573d6000803e3d6000fd5b50600080546001600160a01b0319166001600160a01b039290921691909117905561005f565b61074f806102d483390190565b6102668061006e6000396000f3fe608060405234801561001057600080fd5b50600436106100415760003560e01c806331b3eb9414610046578063d44409911461006e578063e2982c211461009a575b600080fd5b61006c6004803603602081101561005c57600080fd5b50356001600160a01b03166100d2565b005b61006c6004803603604081101561008457600080fd5b506001600160a01b038135169060200135610138565b6100c0600480360360208110156100b057600080fd5b50356001600160a01b0316610146565b60408051918252519081900360200190f35b60008054604080516351cff8d960e01b81526001600160a01b038581166004830152915191909216926351cff8d9926024808201939182900301818387803b15801561011d57600080fd5b505af1158015610131573d6000803e3d6000fd5b5050505050565b61014282826101c6565b5050565b60008054604080516371d4ed8d60e11b81526001600160a01b0385811660048301529151919092169163e3a9db1a916024808301926020929190829003018186803b15801561019457600080fd5b505afa1580156101a8573d6000803e3d6000fd5b505050506040513d60208110156101be57600080fd5b505192915050565b600080546040805163f340fa0160e01b81526001600160a01b0386811660048301529151919092169263f340fa019285926024808301939282900301818588803b15801561021357600080fd5b505af1158015610227573d6000803e3d6000fd5b5050505050505056fea2646970667358221220c113284272aef56c4572ce4062aeb3dcf5cc96e5f6a6ca4ed1d8c8ce4649f7e364736f6c634300060c0033608060405234801561001057600080fd5b50600061001b61006a565b600080546001600160a01b0319166001600160a01b0383169081178255604051929350917f8be0079c531659141344cd1fd0a4f28419497f9722a3daafe3b4186f6b6457e0908290a35061006e565b3390565b6106d28061007d6000396000f3fe6080604052600436106100555760003560e01c806351cff8d91461005a578063715018a61461008f5780638da5cb5b146100a4578063e3a9db1a146100d5578063f2fde38b1461011a578063f340fa011461014d575b600080fd5b34801561006657600080fd5b5061008d6004803603602081101561007d57600080fd5b50356001600160a01b0316610173565b005b34801561009b57600080fd5b5061008d610236565b3480156100b057600080fd5b506100b96102d8565b604080516001600160a01b039092168252519081900360200190f35b3480156100e157600080fd5b50610108600480360360208110156100f857600080fd5b50356001600160a01b03166102e7565b60408051918252519081900360200190f35b34801561012657600080fd5b5061008d6004803603602081101561013d57600080fd5b50356001600160a01b0316610302565b61008d6004803603602081101561016357600080fd5b50356001600160a01b03166103fa565b61017b6104cd565b6000546001600160a01b039081169116146101cb576040805162461bcd60e51b8152602060048201819052602482015260008051602061067d833981519152604482015290519081900360640190fd5b6001600160a01b03811660008181526001602052604081208054919055906101f390826104d1565b6040805182815290516001600160a01b038416917f7084f5476618d8e60b11ef0d7d3f06914655adb8793e28ff7f018d4c76d505d5919081900360200190a25050565b61023e6104cd565b6000546001600160a01b0390811691161461028e576040805162461bcd60e51b8152602060048201819052602482015260008051602061067d833981519152604482015290519081900360640190fd5b600080546040516001600160a01b03909116907f8be0079c531659141344cd1fd0a4f28419497f9722a3daafe3b4186f6b6457e0908390a3600080546001600160a01b0319169055565b6000546001600160a01b031690565b6001600160a01b031660009081526001602052604090205490565b61030a6104cd565b6000546001600160a01b0390811691161461035a576040805162461bcd60e51b8152602060048201819052602482015260008051602061067d833981519152604482015290519081900360640190fd5b6001600160a01b03811661039f5760405162461bcd60e51b815260040180806020018281038252602681526020018061061d6026913960400191505060405180910390fd5b600080546040516001600160a01b03808516939216917f8be0079c531659141344cd1fd0a4f28419497f9722a3daafe3b4186f6b6457e091a3600080546001600160a01b0319166001600160a01b0392909216919091179055565b6104026104cd565b6000546001600160a01b03908116911614610452576040805162461bcd60e51b8152602060048201819052602482015260008051602061067d833981519152604482015290519081900360640190fd5b6001600160a01b038116600090815260016020526040902054349061047790826105bb565b6001600160a01b038316600081815260016020908152604091829020939093558051848152905191927f2da466a7b24304f47e87fa2e1e5a81b9831ce54fec19055ce277ca2f39ba42c492918290030190a25050565b3390565b80471015610526576040805162461bcd60e51b815260206004820152601d60248201527f416464726573733a20696e73756666696369656e742062616c616e6365000000604482015290519081900360640190fd5b6040516000906001600160a01b0384169083908381818185875af1925050503d8060008114610571576040519150601f19603f3d011682016040523d82523d6000602084013e610576565b606091505b50509050806105b65760405162461bcd60e51b815260040180806020018281038252603a815260200180610643603a913960400191505060405180910390fd5b505050565b600082820183811015610615576040805162461bcd60e51b815260206004820152601b60248201527f536166654d6174683a206164646974696f6e206f766572666c6f770000000000604482015290519081900360640190fd5b939250505056fe4f776e61626c653a206e6577206f776e657220697320746865207a65726f2061646472657373416464726573733a20756e61626c6520746f2073656e642076616c75652c20726563697069656e74206d617920686176652072657665727465644f776e61626c653a2063616c6c6572206973206e6f7420746865206f776e6572a26469706673582212207fe74ed40143357f7e7bc288ce853b295801b41a7b5ae07fa14d027368d9f76f64736f6c634300060c0033",
  "immutableReferences": {},
  "source": "// SPDX-License-Identifier: MIT\r\n\r\npragma solidity ^0.6.0;\r\n\r\nimport \"../payment/PullPayment.sol\";\r\n\r\n// mock class using PullPayment\r\ncontract PullPaymentMock is PullPayment {\r\n    constructor () public payable { }\r\n\r\n    // test helper function to call asyncTransfer\r\n    function callTransfer(address dest, uint256 amount) public {\r\n        _asyncTransfer(dest, amount);\r\n    }\r\n}\r\n",
  "sourcePath": "C:\\Users\\drake\\onedrive\\documents\\dev\\pruf\\PRUF_TRUFFLE\\contracts\\imports\\mocks\\PullPaymentMock.sol",
  "compiler": {
    "name": "solc",
    "version": "0.6.12+commit.27d51765.Emscripten.clang"
  },
  "schemaVersion": "3.2.2",
  "updatedAt": "2020-09-16T15:05:08.334Z",
  "devdoc": {
    "kind": "dev",
    "methods": {
      "payments(address)": {
        "details": "Returns the payments owed to an address.",
        "params": {
          "dest": "The creditor's address."
        }
      },
      "withdrawPayments(address)": {
        "details": "Withdraw accumulated payments, forwarding all gas to the recipient. Note that _any_ account can call this function, not just the `payee`. This means that contracts unaware of the `PullPayment` protocol can still receive funds this way, by having a separate account call {withdrawPayments}. WARNING: Forwarding all gas opens the door to reentrancy vulnerabilities. Make sure you trust the recipient, or are either following the checks-effects-interactions pattern or using {ReentrancyGuard}.",
        "params": {
          "payee": "Whose payments will be withdrawn."
        }
      }
    },
    "version": 1
  },
  "userdoc": {
    "kind": "user",
    "methods": {},
    "version": 1
  }
}