{
  "contractName": "PURCHASE",
  "abi": [
    {
      "anonymous": false,
      "inputs": [
        {
          "indexed": false,
          "internalType": "address",
          "name": "account",
          "type": "address"
        }
      ],
      "name": "Paused",
      "type": "event"
    },
    {
      "anonymous": false,
      "inputs": [
        {
          "indexed": false,
          "internalType": "string",
          "name": "_msg",
          "type": "string"
        }
      ],
      "name": "REPORT",
      "type": "event"
    },
    {
      "anonymous": false,
      "inputs": [
        {
          "indexed": true,
          "internalType": "bytes32",
          "name": "role",
          "type": "bytes32"
        },
        {
          "indexed": true,
          "internalType": "bytes32",
          "name": "previousAdminRole",
          "type": "bytes32"
        },
        {
          "indexed": true,
          "internalType": "bytes32",
          "name": "newAdminRole",
          "type": "bytes32"
        }
      ],
      "name": "RoleAdminChanged",
      "type": "event"
    },
    {
      "anonymous": false,
      "inputs": [
        {
          "indexed": true,
          "internalType": "bytes32",
          "name": "role",
          "type": "bytes32"
        },
        {
          "indexed": true,
          "internalType": "address",
          "name": "account",
          "type": "address"
        },
        {
          "indexed": true,
          "internalType": "address",
          "name": "sender",
          "type": "address"
        }
      ],
      "name": "RoleGranted",
      "type": "event"
    },
    {
      "anonymous": false,
      "inputs": [
        {
          "indexed": true,
          "internalType": "bytes32",
          "name": "role",
          "type": "bytes32"
        },
        {
          "indexed": true,
          "internalType": "address",
          "name": "account",
          "type": "address"
        },
        {
          "indexed": true,
          "internalType": "address",
          "name": "sender",
          "type": "address"
        }
      ],
      "name": "RoleRevoked",
      "type": "event"
    },
    {
      "anonymous": false,
      "inputs": [
        {
          "indexed": false,
          "internalType": "address",
          "name": "account",
          "type": "address"
        }
      ],
      "name": "Unpaused",
      "type": "event"
    },
    {
      "inputs": [],
      "name": "ASSET_TXFR_ROLE",
      "outputs": [
        {
          "internalType": "bytes32",
          "name": "",
          "type": "bytes32"
        }
      ],
      "stateMutability": "view",
      "type": "function"
    },
    {
      "inputs": [],
      "name": "CONTRACT_ADMIN_ROLE",
      "outputs": [
        {
          "internalType": "bytes32",
          "name": "",
          "type": "bytes32"
        }
      ],
      "stateMutability": "view",
      "type": "function"
    },
    {
      "inputs": [],
      "name": "DEFAULT_ADMIN_ROLE",
      "outputs": [
        {
          "internalType": "bytes32",
          "name": "",
          "type": "bytes32"
        }
      ],
      "stateMutability": "view",
      "type": "function"
    },
    {
      "inputs": [],
      "name": "OO_resolveContractAddresses",
      "outputs": [],
      "stateMutability": "nonpayable",
      "type": "function"
    },
    {
      "inputs": [
        {
          "internalType": "address",
          "name": "_storageAddress",
          "type": "address"
        }
      ],
      "name": "OO_setStorageContract",
      "outputs": [],
      "stateMutability": "nonpayable",
      "type": "function"
    },
    {
      "inputs": [
        {
          "internalType": "address",
          "name": "_to",
          "type": "address"
        },
        {
          "internalType": "uint256",
          "name": "_tokenID",
          "type": "uint256"
        }
      ],
      "name": "OO_transferACToken",
      "outputs": [],
      "stateMutability": "nonpayable",
      "type": "function"
    },
    {
      "inputs": [],
      "name": "PAUSER_ROLE",
      "outputs": [
        {
          "internalType": "bytes32",
          "name": "",
          "type": "bytes32"
        }
      ],
      "stateMutability": "view",
      "type": "function"
    },
    {
      "inputs": [
        {
          "internalType": "bytes32",
          "name": "role",
          "type": "bytes32"
        }
      ],
      "name": "getRoleAdmin",
      "outputs": [
        {
          "internalType": "bytes32",
          "name": "",
          "type": "bytes32"
        }
      ],
      "stateMutability": "view",
      "type": "function"
    },
    {
      "inputs": [
        {
          "internalType": "bytes32",
          "name": "role",
          "type": "bytes32"
        },
        {
          "internalType": "uint256",
          "name": "index",
          "type": "uint256"
        }
      ],
      "name": "getRoleMember",
      "outputs": [
        {
          "internalType": "address",
          "name": "",
          "type": "address"
        }
      ],
      "stateMutability": "view",
      "type": "function"
    },
    {
      "inputs": [
        {
          "internalType": "bytes32",
          "name": "role",
          "type": "bytes32"
        }
      ],
      "name": "getRoleMemberCount",
      "outputs": [
        {
          "internalType": "uint256",
          "name": "",
          "type": "uint256"
        }
      ],
      "stateMutability": "view",
      "type": "function"
    },
    {
      "inputs": [
        {
          "internalType": "bytes32",
          "name": "role",
          "type": "bytes32"
        },
        {
          "internalType": "address",
          "name": "account",
          "type": "address"
        }
      ],
      "name": "grantRole",
      "outputs": [],
      "stateMutability": "nonpayable",
      "type": "function"
    },
    {
      "inputs": [
        {
          "internalType": "bytes32",
          "name": "role",
          "type": "bytes32"
        },
        {
          "internalType": "address",
          "name": "account",
          "type": "address"
        }
      ],
      "name": "hasRole",
      "outputs": [
        {
          "internalType": "bool",
          "name": "",
          "type": "bool"
        }
      ],
      "stateMutability": "view",
      "type": "function"
    },
    {
      "inputs": [
        {
          "internalType": "address",
          "name": "",
          "type": "address"
        },
        {
          "internalType": "address",
          "name": "",
          "type": "address"
        },
        {
          "internalType": "uint256",
          "name": "",
          "type": "uint256"
        },
        {
          "internalType": "bytes",
          "name": "",
          "type": "bytes"
        }
      ],
      "name": "onERC721Received",
      "outputs": [
        {
          "internalType": "bytes4",
          "name": "",
          "type": "bytes4"
        }
      ],
      "stateMutability": "nonpayable",
      "type": "function"
    },
    {
      "inputs": [],
      "name": "pause",
      "outputs": [],
      "stateMutability": "nonpayable",
      "type": "function"
    },
    {
      "inputs": [],
      "name": "paused",
      "outputs": [
        {
          "internalType": "bool",
          "name": "",
          "type": "bool"
        }
      ],
      "stateMutability": "view",
      "type": "function"
    },
    {
      "inputs": [
        {
          "internalType": "bytes32",
          "name": "role",
          "type": "bytes32"
        },
        {
          "internalType": "address",
          "name": "account",
          "type": "address"
        }
      ],
      "name": "renounceRole",
      "outputs": [],
      "stateMutability": "nonpayable",
      "type": "function"
    },
    {
      "inputs": [
        {
          "internalType": "bytes32",
          "name": "role",
          "type": "bytes32"
        },
        {
          "internalType": "address",
          "name": "account",
          "type": "address"
        }
      ],
      "name": "revokeRole",
      "outputs": [],
      "stateMutability": "nonpayable",
      "type": "function"
    },
    {
      "inputs": [
        {
          "internalType": "address",
          "name": "_to",
          "type": "address"
        },
        {
          "internalType": "bytes32",
          "name": "_idxHash",
          "type": "bytes32"
        }
      ],
      "name": "transferAssetToken",
      "outputs": [],
      "stateMutability": "nonpayable",
      "type": "function"
    },
    {
      "inputs": [],
      "name": "unpause",
      "outputs": [],
      "stateMutability": "nonpayable",
      "type": "function"
    },
    {
      "inputs": [
        {
          "internalType": "bytes32",
          "name": "_idxHash",
          "type": "bytes32"
        }
      ],
      "name": "purchaseWithPRUF",
      "outputs": [],
      "stateMutability": "nonpayable",
      "type": "function"
    },
    {
      "inputs": [
        {
          "internalType": "bytes32",
          "name": "_idxHash",
          "type": "bytes32"
        },
        {
          "internalType": "uint120",
          "name": "_price",
          "type": "uint120"
        },
        {
          "internalType": "uint8",
          "name": "_currency",
          "type": "uint8"
        },
        {
          "internalType": "uint256",
          "name": "_setForSale",
          "type": "uint256"
        }
      ],
      "name": "_setPrice",
      "outputs": [],
      "stateMutability": "nonpayable",
      "type": "function"
    },
    {
      "inputs": [
        {
          "internalType": "bytes32",
          "name": "_idxHash",
          "type": "bytes32"
        }
      ],
      "name": "_clearPrice",
      "outputs": [],
      "stateMutability": "nonpayable",
      "type": "function"
    }
  ],
  "bytecode": "0x60806040523480156200001157600080fd5b50600160009081556002805460ff191690556200003890620000326200009c565b620000a0565b620000677f2ce8d04a9c35987429af538825cd2438cc5c5bb5dc427955f84daaa3ea105016620000326200009c565b620000967f65d7a28e3265b37a6474929f336521b332c1681b933f6cb9f3376673440d862a620000326200009c565b620001b2565b3390565b620000ac8282620000b0565b5050565b6000828152600160209081526040909120620000d7918390620014c36200012b821b17901c565b15620000ac57620000e76200009c565b6001600160a01b0316816001600160a01b0316837f2f8788117e7eff1d82e926ec794901d17c78024a50270940304540a733656f0d60405160405180910390a45050565b600062000142836001600160a01b0384166200014b565b90505b92915050565b60006200015983836200019a565b620001915750815460018181018455600084815260208082209093018490558454848252828601909352604090209190915562000145565b50600062000145565b60009081526001919091016020526040902054151590565b6129ed80620001c26000396000f3fe608060405234801561001057600080fd5b50600436106101425760003560e01c80639010d07c116100b8578063ca15c8731161007c578063ca15c87314610274578063d547741f14610287578063d6b02ecf1461029a578063e1c7f35e146102ad578063e63ab1e9146102c0578063e8b41653146102c857610142565b80639010d07c1461021357806391d148541461023357806392ba3da614610246578063a217fddf14610259578063bd310cfa1461026157610142565b80632f2ff15d1161010a5780632f2ff15d146101b557806336568abe146101c85780633f4ba83a146101db578063440e7a7e146101e35780635c975abb146101f65780638456cb591461020b57610142565b8063011486b8146101475780631429db5f1461015c578063150b7a021461017a5780631da033121461019a578063248a9ca3146101a2575b600080fd5b61015a610155366004611fb4565b6102d0565b005b610164610521565b6040516101719190612178565b60405180910390f35b61018d610188366004611e60565b610545565b60405161017191906121db565b610164610556565b6101646101b0366004611f6d565b610568565b61015a6101c3366004611f85565b610580565b61015a6101d6366004611f85565b6105c8565b61015a61060a565b61015a6101f1366004611efa565b61065c565b6101fe61073c565b604051610171919061216d565b61015a610745565b610226610221366004611ffb565b610795565b60405161017191906120d6565b6101fe610241366004611f85565b6107b6565b61015a610254366004611efa565b6107ce565b61016461089b565b61015a61026f366004611f6d565b6108a0565b610164610282366004611f6d565b610b45565b61015a610295366004611f85565b610b5c565b61015a6102a8366004611e21565b610b96565b61015a6102bb366004611f6d565b610c14565b610164610de9565b61015a610e0d565b600260005414156102fc5760405162461bcd60e51b81526004016102f3906127e4565b60405180910390fd5b600260005561030961073c565b156103265760405162461bcd60e51b81526004016102f39061257e565b83806103306114d8565b6009546040516331a9108f60e11b81526001600160a01b039283169290911690636352211e90610364908590600401612178565b602060405180830381600087803b15801561037e57600080fd5b505af1158015610392573d6000803e3d6000fd5b505050506040513d601f19601f820116820180604052508101906103b69190611e44565b6001600160a01b0316146103dc5760405162461bcd60e51b81526004016102f39061248c565b60006103e7876114dc565b90506103f681600001516115bf565b60ff16156104165760405162461bcd60e51b81526004016102f3906125fe565b6031816000015160ff16118061042d57508360aa14155b6104495760405162461bcd60e51b81526004016102f39061237c565b80516104549061160e565b60ff16156104745760405162461bcd60e51b81526004016102f390612410565b8460ff166002146104975760405162461bcd60e51b81526004016102f39061267b565b8360aa14156104ae57603381526104ae8782611642565b60035460405162de1ad960e41b81526001600160a01b0390911690630de1ad90906104e1908a908a908a906004016121b9565b600060405180830381600087803b1580156104fb57600080fd5b505af115801561050f573d6000803e3d6000fd5b50506001600055505050505050505050565b7f7f1e4e9f3d9ba0452a25cfef4cd4c6ffc86158d06ed2f585fa0093e12dec429c81565b630a85bd0160e11b95945050505050565b60008051602061299883398151915281565b6000818152600160205260409020600201545b919050565b60008281526001602052604090206002015461059e906102416114d8565b6105ba5760405162461bcd60e51b81526004016102f390612232565b6105c482826116ed565b5050565b6105d06114d8565b6001600160a01b0316816001600160a01b0316146106005760405162461bcd60e51b81526004016102f39061285d565b6105c48282611756565b6106367f65d7a28e3265b37a6474929f336521b332c1681b933f6cb9f3376673440d862a6102416114d8565b6106525760405162461bcd60e51b81526004016102f390612740565b61065a6117bf565b565b6002600054141561067f5760405162461bcd60e51b81526004016102f3906127e4565b60026000556106b07f7f1e4e9f3d9ba0452a25cfef4cd4c6ffc86158d06ed2f585fa0093e12dec429c6102416114d8565b6106cc5760405162461bcd60e51b81526004016102f3906125a8565b600954604051632142170760e11b815282916001600160a01b0316906342842e0e9061070090309087908690600401612116565b600060405180830381600087803b15801561071a57600080fd5b505af115801561072e573d6000803e3d6000fd5b505060016000555050505050565b60025460ff1690565b6107717f65d7a28e3265b37a6474929f336521b332c1681b933f6cb9f3376673440d862a6102416114d8565b61078d5760405162461bcd60e51b81526004016102f390612740565b61065a61182d565b60008281526001602052604081206107ad9083611888565b90505b92915050565b60008281526001602052604081206107ad9083611894565b6107e86000805160206129988339815191526102416114d8565b6108045760405162461bcd60e51b81526004016102f3906123ac565b600260005414156108275760405162461bcd60e51b81526004016102f3906127e4565b6002600055600b54604051632142170760e11b81526001600160a01b03909116906342842e0e9061086090309086908690600401612116565b600060405180830381600087803b15801561087a57600080fd5b505af115801561088e573d6000803e3d6000fd5b5050600160005550505050565b600081565b6108a861073c565b156108c55760405162461bcd60e51b81526004016102f39061257e565b60006108d0826114dc565b6003546040516343fa621160e01b81529192506001600160a01b0316906343fa621190610901908590600401612178565b604080518083038186803b15801561091857600080fd5b505afa15801561092c573d6000803e3d6000fd5b505050506040513d601f19601f82011682018060405250810190610950919061208e565b60ff166040808401919091526001600160781b0390911660e083015260095490516331a9108f60e11b815283916000916001600160a01b0390911690636352211e906109a0908590600401612178565b602060405180830381600087803b1580156109ba57600080fd5b505af11580156109ce573d6000803e3d6000fd5b505050506040513d601f19601f820116820180604052508101906109f29190611e44565b9050826000015160ff16603314610a1b5760405162461bcd60e51b81526004016102f3906126cf565b826040015160ff16600214610a425760405162461bcd60e51b81526004016102f390612521565b60e08301516001600160781b031615610ac5576007546001600160a01b0316639b30d1e9610a6e6114d8565b838660e001516040518463ffffffff1660e01b8152600401610a92939291906120ea565b600060405180830381600087803b158015610aac57600080fd5b505af1158015610ac0573d6000803e3d6000fd5b505050505b6009546001600160a01b0316630b3048bf82610adf6114d8565b856040518463ffffffff1660e01b8152600401610afe93929190612116565b600060405180830381600087803b158015610b1857600080fd5b505af1158015610b2c573d6000803e3d6000fd5b50505050610b3f836080015160026118a9565b50505050565b60008181526001602052604081206107b090611aa3565b600082815260016020526040902060020154610b7a906102416114d8565b6106005760405162461bcd60e51b81526004016102f3906124d1565b610bb06000805160206129988339815191526102416114d8565b610bcc5760405162461bcd60e51b81526004016102f3906123ac565b6001600160a01b038116610bf25760405162461bcd60e51b81526004016102f390612447565b600380546001600160a01b0319166001600160a01b0392909216919091179055565b60026000541415610c375760405162461bcd60e51b81526004016102f3906127e4565b6002600055610c4461073c565b15610c615760405162461bcd60e51b81526004016102f39061257e565b8080610c6b6114d8565b6009546040516331a9108f60e11b81526001600160a01b039283169290911690636352211e90610c9f908590600401612178565b602060405180830381600087803b158015610cb957600080fd5b505af1158015610ccd573d6000803e3d6000fd5b505050506040513d601f19601f82011682018060405250810190610cf19190611e44565b6001600160a01b031614610d175760405162461bcd60e51b81526004016102f39061248c565b6000610d22846114dc565b9050610d3181600001516115bf565b60ff1615610d515760405162461bcd60e51b81526004016102f3906122af565b8051610d5c9061160e565b60ff1615610d7c5760405162461bcd60e51b81526004016102f390612410565b6003546040516363d9fa7560e01b81526001600160a01b03909116906363d9fa7590610dac908790600401612178565b600060405180830381600087803b158015610dc657600080fd5b505af1158015610dda573d6000803e3d6000fd5b50506001600055505050505050565b7f65d7a28e3265b37a6474929f336521b332c1681b933f6cb9f3376673440d862a81565b60026000541415610e305760405162461bcd60e51b81526004016102f3906127e4565b6002600055610e4f6000805160206129988339815191526102416114d8565b610e6b5760405162461bcd60e51b81526004016102f3906123ac565b6003546040516363b8d4c160e11b81526001600160a01b039091169063c771a98290610e999060040161265b565b60206040518083038186803b158015610eb157600080fd5b505afa158015610ec5573d6000803e3d6000fd5b505050506040513d601f19601f82011682018060405250810190610ee99190611e44565b600a80546001600160a01b039283166001600160a01b03199182161791829055600b80549091169183169190911790556003546040516363b8d4c160e11b815291169063c771a98290610f3e9060040161283d565b60206040518083038186803b158015610f5657600080fd5b505afa158015610f6a573d6000803e3d6000fd5b505050506040513d601f19601f82011682018060405250810190610f8e9190611e44565b600480546001600160a01b039283166001600160a01b031991821617808355600580549092169084161790556003546040516363b8d4c160e11b815292169163c771a98291610fdd910161281b565b60206040518083038186803b158015610ff557600080fd5b505afa158015611009573d6000803e3d6000fd5b505050506040513d601f19601f8201168201806040525081019061102d9190611e44565b600680546001600160a01b039283166001600160a01b03199182161791829055600780549091169183169190911790556003546040516363b8d4c160e11b815291169063c771a98290611082906004016125df565b60206040518083038186803b15801561109a57600080fd5b505afa1580156110ae573d6000803e3d6000fd5b505050506040513d601f19601f820116820180604052508101906110d29190611e44565b600880546001600160a01b039283166001600160a01b03199182161791829055600980549091169183169190911790556003546040516363b8d4c160e11b815291169063c771a9829061112790600401612787565b60206040518083038186803b15801561113f57600080fd5b505afa158015611153573d6000803e3d6000fd5b505050506040513d601f19601f820116820180604052508101906111779190611e44565b600c80546001600160a01b039283166001600160a01b03199182161791829055600d80549091169183169190911790556003546040516363b8d4c160e11b815291169063c771a982906111cc906004016127a7565b60206040518083038186803b1580156111e457600080fd5b505afa1580156111f8573d6000803e3d6000fd5b505050506040513d601f19601f8201168201806040525081019061121c9190611e44565b600e80546001600160a01b039283166001600160a01b03199182161791829055600f80549091169183169190911790556003546040516363b8d4c160e11b815291169063c771a982906112719060040161235f565b60206040518083038186803b15801561128957600080fd5b505afa15801561129d573d6000803e3d6000fd5b505050506040513d601f19601f820116820180604052508101906112c19190611e44565b601280546001600160a01b039283166001600160a01b03199182161791829055601380549091169183169190911790556003546040516363b8d4c160e11b815291169063c771a98290611316906004016123f2565b60206040518083038186803b15801561132e57600080fd5b505afa158015611342573d6000803e3d6000fd5b505050506040513d601f19601f820116820180604052508101906113669190611e44565b601080546001600160a01b039283166001600160a01b03199182161791829055601180549091169183169190911790556003546040516363b8d4c160e11b815291169063c771a982906113bb90600401612720565b60206040518083038186803b1580156113d357600080fd5b505afa1580156113e7573d6000803e3d6000fd5b505050506040513d601f19601f8201168201806040525081019061140b9190611e44565b601480546001600160a01b0319166001600160a01b039283161790556003546040516363b8d4c160e11b815291169063c771a9829061144c906004016127c8565b60206040518083038186803b15801561146457600080fd5b505afa158015611478573d6000803e3d6000fd5b505050506040513d601f19601f8201168201806040525081019061149c9190611e44565b601780546001600160a01b0319166001600160a01b03929092169190911790556001600055565b60006107ad836001600160a01b038416611aae565b3390565b6114e4611d77565b6114ec611d77565b6003546040516338923cb160e21b81526000918291829182918291829182916001600160a01b03169063e248f2c490611529908d90600401612178565b60e06040518083038186803b15801561154157600080fd5b505afa158015611555573d6000803e3d6000fd5b505050506040513d601f19601f82011682018060405250810190611579919061201c565b6101408f019690965260ff9094168d5263ffffffff92831660808e015290821660a08d01521660c08b01526101008a015261012089015250959650505050505050919050565b60008160ff166005141580156115d957508160ff16603714155b80156115e957508160ff16604614155b80156115f957508160ff16603c14155b156116065750600061057b565b5060aa61057b565b60008160ff1660061415801561162857508160ff16603214155b80156115f957508160ff166038146116065750600061057b565b61164a61073c565b156116675760405162461bcd60e51b81526004016102f39061257e565b600354610140820151825160a0840151602085015160608601516040516331aeaa7f60e11b81526001600160a01b039096169563635d54fe956116b7958a95919490939192909190600401612181565b600060405180830381600087803b1580156116d157600080fd5b505af11580156116e5573d6000803e3d6000fd5b505050505050565b600082815260016020526040902061170590826114c3565b156105c4576117126114d8565b6001600160a01b0316816001600160a01b0316837f2f8788117e7eff1d82e926ec794901d17c78024a50270940304540a733656f0d60405160405180910390a45050565b600082815260016020526040902061176e9082611af8565b156105c45761177b6114d8565b6001600160a01b0316816001600160a01b0316837ff6391f5c32d9c69d2a47ea670b442974b53935d1edc7fd64eb21e047a839171b60405160405180910390a45050565b6117c761073c565b6117e35760405162461bcd60e51b81526004016102f390612281565b6002805460ff191690557f5db9ee0a495bf2e6ff9c91a7834c1ba4fdd244a5e8aa4e537bd38aeae4b073aa6118166114d8565b60405161182391906120d6565b60405180910390a1565b61183561073c565b156118525760405162461bcd60e51b81526004016102f39061257e565b6002805460ff191660011790557f62e78cea01bee320cd4e420270b5ea74000d11b0c9f74754ebdbfc544b05a2586118166114d8565b60006107ad8383611b0d565b60006107ad836001600160a01b038416611b66565b6118b161073c565b156118ce5760405162461bcd60e51b81526004016102f39061257e565b6118d6611dd3565b60055460405163042324e360e11b8152600091611972916064916001600160a01b03169063084649c69061190e9089906004016128ac565b60206040518083038186803b15801561192657600080fd5b505afa15801561193a573d6000803e3d6000fd5b505050506040513d601f19601f8201168201806040525081019061195e91906120bc565b63ffffffff16611b7e90919063ffffffff16565b905060648111156119955760405162461bcd60e51b81526004016102f39061230c565b60055460405163859f08db60e01b81526001600160a01b039091169063859f08db906119c790879087906004016128bd565b60806040518083038186803b1580156119df57600080fd5b505afa1580156119f3573d6000803e3d6000fd5b505050506040513d601f19601f82011682018060405250810190611a179190611f25565b606086018190526001600160a01b0391821660408701526020860192909252919091168352600090611a4a906064611b7e565b90506000611a588383611b8a565b90506000611a73828660600151611b9690919063ffffffff16565b606086018390526020860151909150611a8c9082611ba2565b6020860152611a9a85611bae565b50505050505050565b60006107b082611c56565b6000611aba8383611b66565b611af0575081546001818101845560008481526020808220909301849055845484825282860190935260409020919091556107b0565b5060006107b0565b60006107ad836001600160a01b038416611c5a565b81546000908210611b305760405162461bcd60e51b81526004016102f3906121f0565b826000018281548110611b5357634e487b7160e01b600052603260045260246000fd5b9060005260206000200154905092915050565b60009081526001919091016020526040902054151590565b60006107ad82846128ef565b60006107ad828461290f565b60006107ad828461292e565b60006107ad82846128d7565b611bb661073c565b15611bd35760405162461bcd60e51b81526004016102f39061257e565b6007546001600160a01b031663e60f0b98611bec6114d8565b83516020850151604080870151606088015191516001600160e01b031960e088901b168152611c21959493929060040161213a565b600060405180830381600087803b158015611c3b57600080fd5b505af1158015611c4f573d6000803e3d6000fd5b5050505050565b5490565b60008181526001830160205260408120548015611d6d576000611c7e60018361292e565b8554909150600090611c929060019061292e565b90506000866000018281548110611cb957634e487b7160e01b600052603260045260246000fd5b9060005260206000200154905080876000018481548110611cea57634e487b7160e01b600052603260045260246000fd5b600091825260209091200155611d018360016128d7565b60008281526001890160205260409020558654879080611d3157634e487b7160e01b600052603160045260246000fd5b600190038181906000526020600020016000905590558660010160008781526020019081526020016000206000905560019450505050506107b0565b60009150506107b0565b6040805161016081018252600080825260208201819052918101829052606081018290526080810182905260a0810182905260c0810182905260e081018290526101008101829052610120810182905261014081019190915290565b604051806080016040528060006001600160a01b031681526020016000815260200160006001600160a01b03168152602001600081525090565b805163ffffffff8116811461057b57600080fd5b600060208284031215611e32578081fd5b8135611e3d8161295b565b9392505050565b600060208284031215611e55578081fd5b8151611e3d8161295b565b600080600080600060808688031215611e77578081fd5b8535611e828161295b565b94506020860135611e928161295b565b935060408601359250606086013567ffffffffffffffff80821115611eb5578283fd5b818801915088601f830112611ec8578283fd5b813581811115611ed6578384fd5b896020828501011115611ee7578384fd5b9699959850939650602001949392505050565b60008060408385031215611f0c578182fd5b8235611f178161295b565b946020939093013593505050565b60008060008060808587031215611f3a578384fd5b8451611f458161295b565b602086015160408701519195509350611f5d8161295b565b6060959095015193969295505050565b600060208284031215611f7e578081fd5b5035919050565b60008060408385031215611f97578182fd5b823591506020830135611fa98161295b565b809150509250929050565b60008060008060808587031215611fc9578384fd5b843593506020850135611fdb81612973565b92506040850135611feb81612988565b9396929550929360600135925050565b6000806040838503121561200d578182fd5b50508035926020909101359150565b600080600080600080600060e0888a031215612036578182fd5b87519650602088015161204881612988565b955061205660408901611e0d565b945061206460608901611e0d565b935061207260808901611e0d565b925060a0880151915060c0880151905092959891949750929550565b600080604083850312156120a0578182fd5b82516120ab81612973565b6020840151909250611fa981612988565b6000602082840312156120cd578081fd5b6107ad82611e0d565b6001600160a01b0391909116815260200190565b6001600160a01b0393841681529190921660208201526001600160781b03909116604082015260600190565b6001600160a01b039384168152919092166020820152604081019190915260600190565b6001600160a01b039586168152938516602085015260408401929092529092166060820152608081019190915260a00190565b901515815260200190565b90815260200190565b958652602086019490945260ff928316604086015263ffffffff91909116606085015216608083015261ffff1660a082015260c00190565b9283526001600160781b0391909116602083015260ff16604082015260600190565b6001600160e01b031991909116815260200190565b60208082526022908201527f456e756d657261626c655365743a20696e646578206f7574206f6620626f756e604082015261647360f01b606082015260800190565b6020808252602f908201527f416363657373436f6e74726f6c3a2073656e646572206d75737420626520616e60408201526e0818591b5a5b881d1bc819dc985b9d608a1b606082015260800190565b60208082526014908201527314185d5cd8589b194e881b9bdd081c185d5cd95960621b604082015260600190565b6020808252603a908201527f453a4443205265636f726420696e20756e726567697374657265642c2065787060408201527f6f727465642c206f722064697363617264656420737461747573000000000000606082015260800190565b60208082526033908201527f50433a4453433a696e76616c696420646973636f756e742076616c756520666f6040820152723910383934b1b29031b0b631bab630ba34b7b760691b606082015260800190565b60208082526003908201526204150560ec1b604082015260600190565b6020808252601690820152750453a535020417373657420537461747573203c2035360541b604082015260600190565b60208082526026908201527f50414d3a4d4f443a206d757374206861766520434f4e54524143545f41444d496040820152654e5f524f4c4560d01b606082015260800190565b6020808252600490820152632921a62960e11b604082015260600190565b60208082526018908201527f453a5350205265636f726420697320696e20657363726f770000000000000000604082015260600190565b60208082526025908201527f423a5353433a2073746f7261676520616464726573732063616e6e6f74206265604082015264207a65726f60d81b606082015260800190565b60208082526025908201527f50503a4d4f442d49413a2043616c6c657220646f6573206e6f7420686f6c64206040820152643a37b5b2b760d91b606082015260800190565b60208082526030908201527f416363657373436f6e74726f6c3a2073656e646572206d75737420626520616e60408201526f2061646d696e20746f207265766f6b6560801b606082015260800190565b6020808252603d908201527f50503a50555243484153453a205061796d656e74206d75737420626520696e2060408201527f5052554620746f6b656e7320666f72207468697320636f6e7472616374000000606082015260800190565b60208082526010908201526f14185d5cd8589b194e881c185d5cd95960821b604082015260600190565b6020808252601e908201527f423a54583a4d75737420686176652041535345545f545846525f524f4c450000604082015260600190565b60208082526005908201526420afaa25a760d91b604082015260600190565b6020808252603a908201527f453a5350205265636f726420696e20756e726567697374657265642c2065787060408201527f6f727465642c206f722064697363617264656420737461747573000000000000606082015260800190565b60208082526006908201526520a1afaa25a760d11b604082015260600190565b60208082526034908201527f453a53503a205072696365206d75737420626520696e205052554620746f6b656040820152731b9cc8199bdc881d1a1a5cc818dbdb9d1c9858dd60621b606082015260800190565b60208082526031908201527f50503a50555243484153453a204d75737420626520696e207472616e736665726040820152707261626c6520737461747573202835312960781b606082015260800190565b6020808252600690820152654150505f4e4360d01b604082015260600190565b60208082526027908201527f41543a4d4f442d49413a43616c6c696e672061646472657373206973206e6f74604082015266103830bab9b2b960c91b606082015260800190565b60208082526006908201526524a22faa25a760d11b604082015260600190565b60208082526007908201526622a1a92fa6a3a960c91b604082015260600190565b60208082526002908201526104e560f41b604082015260600190565b6020808252601f908201527f5265656e7472616e637947756172643a207265656e7472616e742063616c6c00604082015260600190565b6020808252600890820152672aaa24a62faa25a760c11b604082015260600190565b60208082526006908201526520a1afa6a3a960d11b604082015260600190565b6020808252602f908201527f416363657373436f6e74726f6c3a2063616e206f6e6c792072656e6f756e636560408201526e103937b632b9903337b91039b2b63360891b606082015260800190565b63ffffffff91909116815260200190565b63ffffffff92909216825261ffff16602082015260400190565b600082198211156128ea576128ea612945565b500190565b60008261290a57634e487b7160e01b81526012600452602481fd5b500490565b600081600019048311821515161561292957612929612945565b500290565b60008282101561294057612940612945565b500390565b634e487b7160e01b600052601160045260246000fd5b6001600160a01b038116811461297057600080fd5b50565b6001600160781b038116811461297057600080fd5b60ff8116811461297057600080fdfe2ce8d04a9c35987429af538825cd2438cc5c5bb5dc427955f84daaa3ea105016a264697066735822122033e5a6a58a87da701125e953e16fcbf0a6f418657738449623f4f0604575af3064736f6c63430008000033",
  "immutableReferences": {},
  "source": "/*--------------------------------------------------------PRuF0.7.1\n__/\\\\\\\\\\\\\\\\\\\\\\\\\\ _____/\\\\\\\\\\\\\\\\\\ _______/\\\\../\\\\ ___/\\\\\\\\\\\\\\\\\\\\\\\\\\\\\\\n _\\/\\\\\\/////////\\\\\\ _/\\\\\\///////\\\\\\ ____\\//..\\//____\\/\\\\\\///////////__\n  _\\/\\\\\\.......\\/\\\\\\.\\/\\\\\\.....\\/\\\\\\ ________________\\/\\\\\\ ____________\n   _\\/\\\\\\\\\\\\\\\\\\\\\\\\\\/__\\/\\\\\\\\\\\\\\\\\\\\\\/_____/\\\\\\____/\\\\\\.\\/\\\\\\\\\\\\\\\\\\\\\\ ____\n    _\\/\\\\\\/////////____\\/\\\\\\//////\\\\\\ ___\\/\\\\\\___\\/\\\\\\.\\/\\\\\\///////______\n     _\\/\\\\\\ ____________\\/\\\\\\ ___\\//\\\\\\ __\\/\\\\\\___\\/\\\\\\.\\/\\\\\\ ____________\n      _\\/\\\\\\ ____________\\/\\\\\\ ____\\//\\\\\\ _\\/\\\\\\___\\/\\\\\\.\\/\\\\\\ ____________\n       _\\/\\\\\\ ____________\\/\\\\\\ _____\\//\\\\\\.\\//\\\\\\\\\\\\\\\\\\ _\\/\\\\\\ ____________\n        _\\/// _____________\\/// _______\\/// __\\///////// __\\/// _____________\n         *-------------------------------------------------------------------*/\n\n/*-----------------------------------------------------------------\n *  TO DO\n *\n *---------------------------------------------------------------*/\n\n// SPDX-License-Identifier: UNLICENSED\npragma solidity ^0.8.0;\n\nimport \"./PRUF_CORE.sol\";\n\ncontract PURCHASE is CORE {\n    /*\n     * @dev Verify user credentials\n     * Originating Address:\n     *      holds asset token at idxHash\n     */\n\n    modifier isAuthorized(bytes32 _idxHash) override {\n        uint256 tokenId = uint256(_idxHash);\n        require(\n            (A_TKN.ownerOf(tokenId) == _msgSender()), //_msgSender() is token holder\n            \"PP:MOD-IA: Caller does not hold token\"\n        );\n        _;\n    }\n\n    /*\n     * @dev Purchse an item in transferrable status with price and currency set to pruf\n     */\n    function purchaseWithPRUF(bytes32 _idxHash) //CTS:EXAMINE NO CHECK TO SEE IF PRICE IS SET?\n        external\n        whenNotPaused\n    //isAuthorized(_idxHash) //purchaser is not holder\n    {\n        Record memory rec = getRecord(_idxHash);\n        (rec.price, rec.currency) = STOR.getPriceData(_idxHash);\n\n        uint256 tokenId = uint256(_idxHash);\n        address assetHolder = A_TKN.ownerOf(tokenId);\n\n        require(\n            rec.assetStatus == 51,\n            \"PP:PURCHASE: Must be in transferrable status (51)\"\n        );\n        require( // CTS:REDUNDANT, THROWS IN _setPrice\n            rec.currency == 2,\n            \"PP:PURCHASE: Payment must be in PRUF tokens for this contract\"\n        );\n        //^^^^^^^checks^^^^^^^^^\n\n        // --- transfer the PRUF tokens\n        if (rec.price > 0) {\n            // allow for freeCycling\n            UTIL_TKN.trustedAgentTransfer(_msgSender(), assetHolder, rec.price);\n        }\n\n        // --- transfer the asset token\n        A_TKN.trustedAgentTransferFrom(assetHolder, _msgSender(), tokenId);\n\n        //^^^^^^^effects^^^^^^^^^\n\n        deductServiceCosts(rec.assetClass, 2);\n        //^^^^^^^interactions^^^^^^^^^\n    }\n\n    /*\n     * @dev set price and currency in rec.pricer rec.currency\n     */\n    function _setPrice(\n        bytes32 _idxHash,\n        uint120 _price,\n        uint8 _currency,\n        uint256 _setForSale // if 170 then change to transferrable\n    ) external nonReentrant whenNotPaused isAuthorized(_idxHash) {\n        Record memory rec = getRecord(_idxHash);\n\n        require(\n            needsImport(rec.assetStatus) == 0,\n            \"E:SP Record in unregistered, exported, or discarded status\"\n        );\n        require((rec.assetStatus > 49) || (_setForSale != 170) , \"E:SP Asset Status < 50\"); //CTS:EXAMINE Status < 50 not reachable with current contract structure, caller must hold token.\n        require(isEscrow(rec.assetStatus) == 0, \"E:SP Record is in escrow\");\n\n        require(\n            _currency == 2,\n            \"E:SP: Price must be in PRUF tokens for this contract\"\n        );\n        //^^^^^^^checks^^^^^^^^^\n        if (_setForSale == 170){\n            rec.assetStatus = 51;\n            writeRecord(_idxHash, rec);\n        }\n\n        STOR.setPrice(_idxHash, _price, _currency);\n        //^^^^^^^interactions^^^^^^^^^\n    }\n\n    /*\n     * @dev set price and currency in rec.pricer rec.currency\n     */\n    function _clearPrice(bytes32 _idxHash)\n        external\n        nonReentrant\n        whenNotPaused\n        isAuthorized(_idxHash)\n    {\n        Record memory rec = getRecord(_idxHash);\n\n        require(\n            needsImport(rec.assetStatus) == 0,\n            \"E:DC Record in unregistered, exported, or discarded status\"\n        );\n        require(isEscrow(rec.assetStatus) == 0, \"E:SP Record is in escrow\");\n        //^^^^^^^checks^^^^^^^^^\n\n        STOR.clearPrice(_idxHash);\n        //^^^^^^^interactions^^^^^^^^^\n    }\n}\n",
  "sourcePath": "C:/Users/User/Documents/DEV/PRUF/PRUF_TRUFFLE/contracts/PRUF_PURCHASE.sol",
  "compiler": {
    "name": "solc",
    "version": "0.8.0+commit.c7dfd78e.Emscripten.clang"
  },
  "schemaVersion": "3.3.3",
  "updatedAt": "2021-02-18T22:17:45.264Z",
  "devdoc": {
    "kind": "dev",
    "methods": {
      "getRoleAdmin(bytes32)": {
        "details": "Returns the admin role that controls `role`. See {grantRole} and {revokeRole}. To change a role's admin, use {_setRoleAdmin}."
      },
      "getRoleMember(bytes32,uint256)": {
        "details": "Returns one of the accounts that have `role`. `index` must be a value between 0 and {getRoleMemberCount}, non-inclusive. Role bearers are not sorted in any particular way, and their ordering may change at any point. WARNING: When using {getRoleMember} and {getRoleMemberCount}, make sure you perform all queries on the same block. See the following https://forum.openzeppelin.com/t/iterating-over-elements-on-enumerableset-in-openzeppelin-contracts/2296[forum post] for more information."
      },
      "getRoleMemberCount(bytes32)": {
        "details": "Returns the number of accounts that have `role`. Can be used together with {getRoleMember} to enumerate all bearers of a role."
      },
      "grantRole(bytes32,address)": {
        "details": "Grants `role` to `account`. If `account` had not been already granted `role`, emits a {RoleGranted} event. Requirements: - the caller must have ``role``'s admin role."
      },
      "hasRole(bytes32,address)": {
        "details": "Returns `true` if `account` has been granted `role`."
      },
      "pause()": {
        "details": "Triggers stopped state. (pausable)"
      },
      "paused()": {
        "details": "Returns true if the contract is paused, and false otherwise."
      },
      "renounceRole(bytes32,address)": {
        "details": "Revokes `role` from the calling account. Roles are often managed via {grantRole} and {revokeRole}: this function's purpose is to provide a mechanism for accounts to lose their privileges if they are compromised (such as when a trusted device is misplaced). If the calling account had been granted `role`, emits a {RoleRevoked} event. Requirements: - the caller must be `account`."
      },
      "revokeRole(bytes32,address)": {
        "details": "Revokes `role` from `account`. If `account` had been granted `role`, emits a {RoleRevoked} event. Requirements: - the caller must have ``role``'s admin role."
      },
      "unpause()": {
        "details": "Returns to normal state. (pausable)"
      }
    },
    "version": 1
  },
  "userdoc": {
    "kind": "user",
    "methods": {},
    "version": 1
  }
}