{
  "contractName": "RAVE",
  "abi": [
    {
      "inputs": [],
      "stateMutability": "nonpayable",
      "type": "constructor"
    },
    {
      "anonymous": false,
      "inputs": [
        {
          "indexed": false,
          "internalType": "address",
          "name": "account",
          "type": "address"
        }
      ],
      "name": "Paused",
      "type": "event"
    },
    {
      "anonymous": false,
      "inputs": [
        {
          "indexed": false,
          "internalType": "string",
          "name": "_msg",
          "type": "string"
        }
      ],
      "name": "REPORT",
      "type": "event"
    },
    {
      "anonymous": false,
      "inputs": [
        {
          "indexed": true,
          "internalType": "bytes32",
          "name": "role",
          "type": "bytes32"
        },
        {
          "indexed": true,
          "internalType": "bytes32",
          "name": "previousAdminRole",
          "type": "bytes32"
        },
        {
          "indexed": true,
          "internalType": "bytes32",
          "name": "newAdminRole",
          "type": "bytes32"
        }
      ],
      "name": "RoleAdminChanged",
      "type": "event"
    },
    {
      "anonymous": false,
      "inputs": [
        {
          "indexed": true,
          "internalType": "bytes32",
          "name": "role",
          "type": "bytes32"
        },
        {
          "indexed": true,
          "internalType": "address",
          "name": "account",
          "type": "address"
        },
        {
          "indexed": true,
          "internalType": "address",
          "name": "sender",
          "type": "address"
        }
      ],
      "name": "RoleGranted",
      "type": "event"
    },
    {
      "anonymous": false,
      "inputs": [
        {
          "indexed": true,
          "internalType": "bytes32",
          "name": "role",
          "type": "bytes32"
        },
        {
          "indexed": true,
          "internalType": "address",
          "name": "account",
          "type": "address"
        },
        {
          "indexed": true,
          "internalType": "address",
          "name": "sender",
          "type": "address"
        }
      ],
      "name": "RoleRevoked",
      "type": "event"
    },
    {
      "anonymous": false,
      "inputs": [
        {
          "indexed": false,
          "internalType": "address",
          "name": "account",
          "type": "address"
        }
      ],
      "name": "Unpaused",
      "type": "event"
    },
    {
      "inputs": [],
      "name": "ASSET_TXFR_ROLE",
      "outputs": [
        {
          "internalType": "bytes32",
          "name": "",
          "type": "bytes32"
        }
      ],
      "stateMutability": "view",
      "type": "function"
    },
    {
      "inputs": [],
      "name": "CONTRACT_ADMIN_ROLE",
      "outputs": [
        {
          "internalType": "bytes32",
          "name": "",
          "type": "bytes32"
        }
      ],
      "stateMutability": "view",
      "type": "function"
    },
    {
      "inputs": [],
      "name": "DAO_ROLE",
      "outputs": [
        {
          "internalType": "bytes32",
          "name": "",
          "type": "bytes32"
        }
      ],
      "stateMutability": "view",
      "type": "function"
    },
    {
      "inputs": [],
      "name": "DEFAULT_ADMIN_ROLE",
      "outputs": [
        {
          "internalType": "bytes32",
          "name": "",
          "type": "bytes32"
        }
      ],
      "stateMutability": "view",
      "type": "function"
    },
    {
      "inputs": [
        {
          "internalType": "address",
          "name": "_tokenContract",
          "type": "address"
        },
        {
          "internalType": "address",
          "name": "_to",
          "type": "address"
        },
        {
          "internalType": "uint256",
          "name": "_amount",
          "type": "uint256"
        }
      ],
      "name": "ERC20Transfer",
      "outputs": [],
      "stateMutability": "nonpayable",
      "type": "function"
    },
    {
      "inputs": [
        {
          "internalType": "address",
          "name": "_tokenContract",
          "type": "address"
        },
        {
          "internalType": "address",
          "name": "_to",
          "type": "address"
        },
        {
          "internalType": "uint256",
          "name": "_tokenID",
          "type": "uint256"
        }
      ],
      "name": "ERC721Transfer",
      "outputs": [],
      "stateMutability": "nonpayable",
      "type": "function"
    },
    {
      "inputs": [],
      "name": "PAUSER_ROLE",
      "outputs": [
        {
          "internalType": "bytes32",
          "name": "",
          "type": "bytes32"
        }
      ],
      "stateMutability": "view",
      "type": "function"
    },
    {
      "inputs": [
        {
          "internalType": "bytes32",
          "name": "role",
          "type": "bytes32"
        }
      ],
      "name": "getRoleAdmin",
      "outputs": [
        {
          "internalType": "bytes32",
          "name": "",
          "type": "bytes32"
        }
      ],
      "stateMutability": "view",
      "type": "function"
    },
    {
      "inputs": [
        {
          "internalType": "bytes32",
          "name": "role",
          "type": "bytes32"
        },
        {
          "internalType": "address",
          "name": "account",
          "type": "address"
        }
      ],
      "name": "grantRole",
      "outputs": [],
      "stateMutability": "nonpayable",
      "type": "function"
    },
    {
      "inputs": [
        {
          "internalType": "bytes32",
          "name": "role",
          "type": "bytes32"
        },
        {
          "internalType": "address",
          "name": "account",
          "type": "address"
        }
      ],
      "name": "hasRole",
      "outputs": [
        {
          "internalType": "bool",
          "name": "",
          "type": "bool"
        }
      ],
      "stateMutability": "view",
      "type": "function"
    },
    {
      "inputs": [
        {
          "internalType": "address",
          "name": "",
          "type": "address"
        },
        {
          "internalType": "address",
          "name": "",
          "type": "address"
        },
        {
          "internalType": "uint256",
          "name": "",
          "type": "uint256"
        },
        {
          "internalType": "bytes",
          "name": "",
          "type": "bytes"
        }
      ],
      "name": "onERC721Received",
      "outputs": [
        {
          "internalType": "bytes4",
          "name": "",
          "type": "bytes4"
        }
      ],
      "stateMutability": "nonpayable",
      "type": "function"
    },
    {
      "inputs": [],
      "name": "pause",
      "outputs": [],
      "stateMutability": "nonpayable",
      "type": "function"
    },
    {
      "inputs": [],
      "name": "paused",
      "outputs": [
        {
          "internalType": "bool",
          "name": "",
          "type": "bool"
        }
      ],
      "stateMutability": "view",
      "type": "function"
    },
    {
      "inputs": [
        {
          "internalType": "bytes32",
          "name": "role",
          "type": "bytes32"
        },
        {
          "internalType": "address",
          "name": "account",
          "type": "address"
        }
      ],
      "name": "renounceRole",
      "outputs": [],
      "stateMutability": "nonpayable",
      "type": "function"
    },
    {
      "inputs": [],
      "name": "resolveContractAddresses",
      "outputs": [],
      "stateMutability": "nonpayable",
      "type": "function"
    },
    {
      "inputs": [
        {
          "internalType": "bytes32",
          "name": "role",
          "type": "bytes32"
        },
        {
          "internalType": "address",
          "name": "account",
          "type": "address"
        }
      ],
      "name": "revokeRole",
      "outputs": [],
      "stateMutability": "nonpayable",
      "type": "function"
    },
    {
      "inputs": [
        {
          "internalType": "address",
          "name": "_storageAddress",
          "type": "address"
        }
      ],
      "name": "setStorageContract",
      "outputs": [],
      "stateMutability": "nonpayable",
      "type": "function"
    },
    {
      "inputs": [
        {
          "internalType": "bytes4",
          "name": "interfaceId",
          "type": "bytes4"
        }
      ],
      "name": "supportsInterface",
      "outputs": [
        {
          "internalType": "bool",
          "name": "",
          "type": "bool"
        }
      ],
      "stateMutability": "view",
      "type": "function"
    },
    {
      "inputs": [],
      "name": "unpause",
      "outputs": [],
      "stateMutability": "nonpayable",
      "type": "function"
    },
    {
      "inputs": [],
      "name": "bumpMe",
      "outputs": [],
      "stateMutability": "nonpayable",
      "type": "function"
    },
    {
      "inputs": [
        {
          "internalType": "string",
          "name": "_name",
          "type": "string"
        },
        {
          "internalType": "uint32",
          "name": "_nodeRoot",
          "type": "uint32"
        },
        {
          "internalType": "uint8",
          "name": "_custodyType",
          "type": "uint8"
        },
        {
          "internalType": "bytes32",
          "name": "_CAS1",
          "type": "bytes32"
        },
        {
          "internalType": "bytes32",
          "name": "_CAS2",
          "type": "bytes32"
        },
        {
          "internalType": "address",
          "name": "_mintNodeFor",
          "type": "address"
        }
      ],
      "name": "purchaseNode",
      "outputs": [
        {
          "internalType": "uint256",
          "name": "",
          "type": "uint256"
        }
      ],
      "stateMutability": "nonpayable",
      "type": "function"
    }
  ],
  "bytecode": "0x60806040523480156200001157600080fd5b50600160009081556002805460ff191690556200002f903362000097565b6200005b7f2ce8d04a9c35987429af538825cd2438cc5c5bb5dc427955f84daaa3ea1050163362000097565b620000877f65d7a28e3265b37a6474929f336521b332c1681b933f6cb9f3376673440d862a3362000097565b62000091620000a7565b620001cd565b620000a3828262000145565b5050565b60025460ff1615620000f25760405162461bcd60e51b815260206004820152601060248201526f14185d5cd8589b194e881c185d5cd95960821b604482015260640160405180910390fd5b6002805460ff191660011790557f62e78cea01bee320cd4e420270b5ea74000d11b0c9f74754ebdbfc544b05a258620001283390565b6040516001600160a01b03909116815260200160405180910390a1565b60008281526001602090815260408083206001600160a01b038516845290915290205460ff16620000a35760008281526001602081815260408084206001600160a01b0386168086529252808420805460ff19169093179092559051339285917f2f8788117e7eff1d82e926ec794901d17c78024a50270940304540a733656f0d9190a45050565b6119d380620001dd6000396000f3fe608060405234801561001057600080fd5b50600436106101375760003560e01c80638456cb59116100b8578063dc38b0a21161007c578063dc38b0a2146102a8578063e59fdd36146102bb578063e5f815dc146102ce578063e63ab1e9146102e1578063e9c2651814610308578063ee9c25c51461032f57600080fd5b80638456cb591461026a57806391d1485414610272578063968ef1fe14610285578063a217fddf1461028d578063d547741f1461029557600080fd5b80632f2ff15d116100ff5780632f2ff15d1461021c57806336568abe146102315780633f4ba83a146102445780635c975abb1461024c5780636e795c701461025757600080fd5b806301ffc9a71461013c5780631429db5f14610164578063150b7a02146101995780631da03312146101d1578063248a9ca3146101f8575b600080fd5b61014f61014a3660046115a6565b610337565b60405190151581526020015b60405180910390f35b61018b7f7f1e4e9f3d9ba0452a25cfef4cd4c6ffc86158d06ed2f585fa0093e12dec429c81565b60405190815260200161015b565b6101b86101a73660046114c8565b630a85bd0160e11b95945050505050565b6040516001600160e01b0319909116815260200161015b565b61018b7f2ce8d04a9c35987429af538825cd2438cc5c5bb5dc427955f84daaa3ea10501681565b61018b61020636600461155d565b6000908152600160208190526040909120015490565b61022f61022a366004611576565b61036e565b005b61022f61023f366004611576565b61039a565b61022f61041d565b60025460ff1661014f565b61018b6102653660046115d0565b61046d565b61022f610561565b61014f610280366004611576565b6105af565b61022f6105da565b61018b600081565b61022f6102a3366004611576565b6106ad565b61022f6102b636600461144d565b6106d4565b61022f6102c9366004611487565b610787565b61022f6102dc366004611487565b61087d565b61018b7f65d7a28e3265b37a6474929f336521b332c1681b933f6cb9f3376673440d862a81565b61018b7f3b5d4cc60d3ec3516ee8ae083bd60934f6eb2a6c54b1229985c41bfb092b260381565b61022f61095d565b60006001600160e01b03198216637965db0b60e01b148061036857506301ffc9a760e01b6001600160e01b03198316145b92915050565b6000828152600160208190526040909120015461038b8133611040565b61039583836110a4565b505050565b6001600160a01b038116331461040f5760405162461bcd60e51b815260206004820152602f60248201527f416363657373436f6e74726f6c3a2063616e206f6e6c792072656e6f756e636560448201526e103937b632b9903337b91039b2b63360891b60648201526084015b60405180910390fd5b610419828261110f565b5050565b6104477f65d7a28e3265b37a6474929f336521b332c1681b933f6cb9f3376673440d862a336105af565b6104635760405162461bcd60e51b81526004016104069061181e565b61046b611176565b565b6000600260005414156104925760405162461bcd60e51b81526004016104069061188e565b60026000556104a360025460ff1690565b156104c05760405162461bcd60e51b815260040161040690611864565b6005546040516306e795c760e41b81526000916001600160a01b031690636e795c70906104fd908c908c908c908c908c908c908c906004016116fd565b602060405180830381600087803b15801561051757600080fd5b505af115801561052b573d6000803e3d6000fd5b505050506040513d601f19601f8201168201806040525081019061054f919061166f565b60016000559998505050505050505050565b61058b7f65d7a28e3265b37a6474929f336521b332c1681b933f6cb9f3376673440d862a336105af565b6105a75760405162461bcd60e51b81526004016104069061181e565b61046b611209565b60009182526001602090815260408084206001600160a01b0393909316845291905290205460ff1690565b600260005414156105fd5760405162461bcd60e51b81526004016104069061188e565b600260005561060e60025460ff1690565b1561062b5760405162461bcd60e51b815260040161040690611864565b6009546001600160a01b03166340c10f19336040516001600160e01b031960e084901b1681526001600160a01b03909116600482015269021e19e0c9bab24000006024820152604401600060405180830381600087803b15801561068e57600080fd5b505af11580156106a2573d6000803e3d6000fd5b505060016000555050565b600082815260016020819052604090912001546106ca8133611040565b610395838361110f565b6106fe7f2ce8d04a9c35987429af538825cd2438cc5c5bb5dc427955f84daaa3ea105016336105af565b61071a5760405162461bcd60e51b815260040161040690611794565b6001600160a01b0381166107655760405162461bcd60e51b81526020600482015260126024820152710423a5353433a2041646472657373203d20360741b6044820152606401610406565b600380546001600160a01b0319166001600160a01b0392909216919091179055565b6107b17f7f1e4e9f3d9ba0452a25cfef4cd4c6ffc86158d06ed2f585fa0093e12dec429c336105af565b6107cd5760405162461bcd60e51b8152600401610406906117db565b600260005414156107f05760405162461bcd60e51b81526004016104069061188e565b60026000556040516323b872dd60e01b81523060048201526001600160a01b038381166024830152604482018390528416906323b872dd90606401602060405180830381600087803b15801561084557600080fd5b505af1158015610859573d6000803e3d6000fd5b505050506040513d601f19601f820116820180604052508101906106a2919061153b565b6108a77f7f1e4e9f3d9ba0452a25cfef4cd4c6ffc86158d06ed2f585fa0093e12dec429c336105af565b6108c35760405162461bcd60e51b8152600401610406906117db565b600260005414156108e65760405162461bcd60e51b81526004016104069061188e565b6002600055604051632142170760e11b81523060048201526001600160a01b038381166024830152604482018390528416906342842e0e90606401600060405180830381600087803b15801561093b57600080fd5b505af115801561094f573d6000803e3d6000fd5b505060016000555050505050565b600260005414156109805760405162461bcd60e51b81526004016104069061188e565b60026000556109af7f2ce8d04a9c35987429af538825cd2438cc5c5bb5dc427955f84daaa3ea105016336105af565b6109cb5760405162461bcd60e51b815260040161040690611794565b6003546040516363b8d4c160e11b81526020600482015260086024820152672727a222afaa25a760c11b60448201526001600160a01b039091169063c771a9829060640160206040518083038186803b158015610a2757600080fd5b505afa158015610a3b573d6000803e3d6000fd5b505050506040513d601f19601f82011682018060405250810190610a5f919061146a565b600c80546001600160a01b039283166001600160a01b03199182168117909255600d805490911690911790556003546040516363b8d4c160e11b81526020600482015260086024820152672727a222afa6a3a960c11b604482015291169063c771a9829060640160206040518083038186803b158015610ade57600080fd5b505afa158015610af2573d6000803e3d6000fd5b505050506040513d601f19601f82011682018060405250810190610b16919061146a565b600480546001600160a01b039283166001600160a01b031991821681178355600580549092161790556003546040516363b8d4c160e11b815292169163c771a98291610b8091016020808252600990820152682727a222afa9aa27a960b91b604082015260600190565b60206040518083038186803b158015610b9857600080fd5b505afa158015610bac573d6000803e3d6000fd5b505050506040513d601f19601f82011682018060405250810190610bd0919061146a565b600680546001600160a01b039283166001600160a01b031991821681179092556007805490911690911790556003546040516363b8d4c160e11b81526020600482015260086024820152672aaa24a62faa25a760c11b604482015291169063c771a9829060640160206040518083038186803b158015610c4f57600080fd5b505afa158015610c63573d6000803e3d6000fd5b505050506040513d601f19601f82011682018060405250810190610c87919061146a565b600880546001600160a01b039283166001600160a01b031991821681179092556009805490911690911790556003546040516363b8d4c160e11b815260206004820152600560248201526420afaa25a760d91b604482015291169063c771a9829060640160206040518083038186803b158015610d0357600080fd5b505afa158015610d17573d6000803e3d6000fd5b505050506040513d601f19601f82011682018060405250810190610d3b919061146a565b600a80546001600160a01b039283166001600160a01b03199182168117909255600b805490911690911790556003546040516363b8d4c160e11b815260206004820152600760248201526622a1a92fa6a3a960c91b604482015291169063c771a9829060640160206040518083038186803b158015610db957600080fd5b505afa158015610dcd573d6000803e3d6000fd5b505050506040513d601f19601f82011682018060405250810190610df1919061146a565b600e80546001600160a01b039283166001600160a01b03199182168117909255600f805490911690911790556003546040516363b8d4c160e11b815291169063c771a98290610e5a9060040160208082526003908201526204150560ec1b604082015260600190565b60206040518083038186803b158015610e7257600080fd5b505afa158015610e86573d6000803e3d6000fd5b505050506040513d601f19601f82011682018060405250810190610eaa919061146a565b601280546001600160a01b039283166001600160a01b031991821681179092556013805490911690911790556003546040516363b8d4c160e11b815291169063c771a98290610f14906004016020808252600490820152632921a62960e11b604082015260600190565b60206040518083038186803b158015610f2c57600080fd5b505afa158015610f40573d6000803e3d6000fd5b505050506040513d601f19601f82011682018060405250810190610f64919061146a565b601080546001600160a01b039283166001600160a01b031991821681179092556011805490911690911790556003546040516363b8d4c160e11b81526020600482015260066024820152654150505f4e4360d01b604482015291169063c771a9829060640160206040518083038186803b158015610fe157600080fd5b505afa158015610ff5573d6000803e3d6000fd5b505050506040513d601f19601f82011682018060405250810190611019919061146a565b601480546001600160a01b0319166001600160a01b03929092169190911790556001600055565b61104a82826105af565b61041957611062816001600160a01b03166014611261565b61106d836020611261565b60405160200161107e929190611688565b60408051601f198184030181529082905262461bcd60e51b825261040691600401611761565b6110ae82826105af565b6104195760008281526001602081815260408084206001600160a01b0386168086529252808420805460ff19169093179092559051339285917f2f8788117e7eff1d82e926ec794901d17c78024a50270940304540a733656f0d9190a45050565b61111982826105af565b156104195760008281526001602090815260408083206001600160a01b0385168085529252808320805460ff1916905551339285917ff6391f5c32d9c69d2a47ea670b442974b53935d1edc7fd64eb21e047a839171b9190a45050565b60025460ff166111bf5760405162461bcd60e51b815260206004820152601460248201527314185d5cd8589b194e881b9bdd081c185d5cd95960621b6044820152606401610406565b6002805460ff191690557f5db9ee0a495bf2e6ff9c91a7834c1ba4fdd244a5e8aa4e537bd38aeae4b073aa335b6040516001600160a01b03909116815260200160405180910390a1565b60025460ff161561122c5760405162461bcd60e51b815260040161040690611864565b6002805460ff191660011790557f62e78cea01bee320cd4e420270b5ea74000d11b0c9f74754ebdbfc544b05a2586111ec3390565b606060006112708360026118dd565b61127b9060026118c5565b67ffffffffffffffff8111156112935761129361196f565b6040519080825280601f01601f1916602001820160405280156112bd576020820181803683370190505b509050600360fc1b816000815181106112d8576112d8611959565b60200101906001600160f81b031916908160001a905350600f60fb1b8160018151811061130757611307611959565b60200101906001600160f81b031916908160001a905350600061132b8460026118dd565b6113369060016118c5565b90505b60018111156113ae576f181899199a1a9b1b9c1cb0b131b232b360811b85600f166010811061136a5761136a611959565b1a60f81b82828151811061138057611380611959565b60200101906001600160f81b031916908160001a90535060049490941c936113a78161192c565b9050611339565b5083156113fd5760405162461bcd60e51b815260206004820181905260248201527f537472696e67733a20686578206c656e67746820696e73756666696369656e746044820152606401610406565b9392505050565b60008083601f84011261141657600080fd5b50813567ffffffffffffffff81111561142e57600080fd5b60208301915083602082850101111561144657600080fd5b9250929050565b60006020828403121561145f57600080fd5b81356113fd81611985565b60006020828403121561147c57600080fd5b81516113fd81611985565b60008060006060848603121561149c57600080fd5b83356114a781611985565b925060208401356114b781611985565b929592945050506040919091013590565b6000806000806000608086880312156114e057600080fd5b85356114eb81611985565b945060208601356114fb81611985565b935060408601359250606086013567ffffffffffffffff81111561151e57600080fd5b61152a88828901611404565b969995985093965092949392505050565b60006020828403121561154d57600080fd5b815180151581146113fd57600080fd5b60006020828403121561156f57600080fd5b5035919050565b6000806040838503121561158957600080fd5b82359150602083013561159b81611985565b809150509250929050565b6000602082840312156115b857600080fd5b81356001600160e01b0319811681146113fd57600080fd5b600080600080600080600060c0888a0312156115eb57600080fd5b873567ffffffffffffffff81111561160257600080fd5b61160e8a828b01611404565b909850965050602088013563ffffffff8116811461162b57600080fd5b9450604088013560ff8116811461164157600080fd5b9350606088013592506080880135915060a088013561165f81611985565b8091505092959891949750929550565b60006020828403121561168157600080fd5b5051919050565b7f416363657373436f6e74726f6c3a206163636f756e74200000000000000000008152600083516116c08160178501602088016118fc565b7001034b99036b4b9b9b4b733903937b6329607d1b60179184019182015283516116f18160288401602088016118fc565b01602801949350505050565b60c081528660c0820152868860e0830137600060e088830181019190915263ffffffff96909616602082015260ff949094166040850152606084019290925260808301526001600160a01b031660a0820152601f909201601f191690910101919050565b60208152600082518060208401526117808160408501602087016118fc565b601f01601f19169190910160400192915050565b60208082526027908201527f423a4d4f443a2d4941444d2043616c6c65722021434f4e54524143545f41444d604082015266494e5f524f4c4560c81b606082015260800190565b60208082526023908201527f423a4d4f443a2d4941444d2043616c6c6572202141535345545f545846525f526040820152624f4c4560e81b606082015260800190565b60208082526026908201527f423a4d4f442d49503a43616c6c696e672061646472657373206973206e6f74206040820152653830bab9b2b960d11b606082015260800190565b60208082526010908201526f14185d5cd8589b194e881c185d5cd95960821b604082015260600190565b6020808252601f908201527f5265656e7472616e637947756172643a207265656e7472616e742063616c6c00604082015260600190565b600082198211156118d8576118d8611943565b500190565b60008160001904831182151516156118f7576118f7611943565b500290565b60005b838110156119175781810151838201526020016118ff565b83811115611926576000848401525b50505050565b60008161193b5761193b611943565b506000190190565b634e487b7160e01b600052601160045260246000fd5b634e487b7160e01b600052603260045260246000fd5b634e487b7160e01b600052604160045260246000fd5b6001600160a01b038116811461199a57600080fd5b5056fea2646970667358221220e6fc1c8251221c1b465d85400a84301c5b3f3aef99346b05b34683afa6b3b84564736f6c63430008070033",
  "immutableReferences": {},
  "source": "/*--------------------------------------------------------PRF0.8.8\n__/\\\\\\\\\\\\\\\\\\\\\\\\\\ _____/\\\\\\\\\\\\\\\\\\ _______/\\\\__/\\\\ ___/\\\\\\\\\\\\\\\\\\\\\\\\\\\\\\        \n__\\/\\\\\\/////////\\\\\\ _/\\\\\\///////\\\\\\ ____\\//__\\//____\\/\\\\\\///////////__       \n___\\/\\\\\\_______\\/\\\\\\_\\/\\\\\\_____\\/\\\\\\ ________________\\/\\\\\\ ____________      \n____\\/\\\\\\\\\\\\\\\\\\\\\\\\\\/__\\/\\\\\\\\\\\\\\\\\\\\\\/_____/\\\\\\____/\\\\\\_\\/\\\\\\\\\\\\\\\\\\\\\\ ____     \n_____\\/\\\\\\/////////____\\/\\\\\\//////\\\\\\ ___\\/\\\\\\___\\/\\\\\\_\\/\\\\\\///////______\n______\\/\\\\\\ ____________\\/\\\\\\ ___\\//\\\\\\ __\\/\\\\\\___\\/\\\\\\_\\/\\\\\\ ____________\n_______\\/\\\\\\ ____________\\/\\\\\\ ____\\//\\\\\\ _\\/\\\\\\___\\/\\\\\\_\\/\\\\\\ ____________\n________\\/\\\\\\ ____________\\/\\\\\\ _____\\//\\\\\\_\\//\\\\\\\\\\\\\\\\\\ _\\/\\\\\\ ____________\n_________\\/// _____________\\/// _______\\/// __\\///////// __\\/// _____________\n*---------------------------------------------------------------------------*/\n\n/**-----------------------------------------------------------------\n * PRUF PRUF_RAVE\n * Simple identity provider for minting new nodes and pruf like a Sheik.\n * DO NOT LAUNCH THIS CONTRACT ON MAINNET LOL \n *\n * CONTRACT MUST BE GIVEN ID_PROVIDER_ROLE IN NODE_MGR and MINTER_ROLE in UTIL_TKN\n -----------------------------------------------------------------*/\n\n// SPDX-License-Identifier: UNLICENSED\npragma solidity ^0.8.7;\n\nimport \"../Resources/PRUF_BASIC.sol\";\nimport \"../Imports/security/ReentrancyGuard.sol\";\n\ncontract RAVE is BASIC {\n    constructor() {\n        //THIS CONTRACT LAUNCHES PAUSED BY DEFAULT JUST IN CASE YOU ARE AN IDIOT\n        _pause();\n    }\n\n    function bumpMe() external nonReentrant whenNotPaused {\n        UTIL_TKN.mint(_msgSender(), 10000000000000000000000);\n    }\n\n    //--------------------------------------------External Functions--------------------------\n\n    /**\n     * @dev Burns (amount) tokens and mints a new Node token to the calling address\n     * @param _name - chosen name of node\n     * @param _nodeRoot - chosen root of node\n     * @param _custodyType - chosen custodyType of node (see docs)\n     * @param _CAS1 - any external data attatched to node 1/2\n     * @param _CAS2 - any external data attatched to node 2/2\n     */\n    function purchaseNode(\n        string calldata _name,\n        uint32 _nodeRoot,\n        uint8 _custodyType,\n        bytes32 _CAS1,\n        bytes32 _CAS2,\n        address _mintNodeFor\n    ) external nonReentrant whenNotPaused returns (uint256) {\n        //^^^^^^^checks^^^^^^^^^\n\n        uint256 mintedNode = NODE_MGR.purchaseNode(\n            _name,\n            _nodeRoot,\n            _custodyType,\n            _CAS1,\n            _CAS2,\n            _mintNodeFor\n        );\n\n        return mintedNode;\n        //^^^^^^^interactions^^^^^^^^^\n    }\n}\n",
  "sourcePath": "/Users/drake/Documents/DEV/PRUF/PRUF_TRUFFLE/contracts/Test/PRUF_RAVE.sol",
  "compiler": {
    "name": "solc",
    "version": "0.8.7+commit.e28d00a7.Emscripten.clang"
  },
  "schemaVersion": "3.4.3",
  "updatedAt": "2021-10-26T17:58:04.383Z",
  "devdoc": {
    "kind": "dev",
    "methods": {
      "ERC20Transfer(address,address,uint256)": {
        "details": "send an ERC20 token from this contract",
        "params": {
          "_amount": "amount to transfer",
          "_to": "destination",
          "_tokenContract": "Address of foreign token contract"
        }
      },
      "ERC721Transfer(address,address,uint256)": {
        "details": "send an ERC721 token from this contract",
        "params": {
          "_to": "destination",
          "_tokenContract": "Address of foreign token contract",
          "_tokenID": "Token ID"
        }
      },
      "getRoleAdmin(bytes32)": {
        "details": "Returns the admin role that controls `role`. See {grantRole} and {revokeRole}. To change a role's admin, use {_setRoleAdmin}."
      },
      "grantRole(bytes32,address)": {
        "details": "Grants `role` to `account`. If `account` had not been already granted `role`, emits a {RoleGranted} event. Requirements: - the caller must have ``role``'s admin role."
      },
      "hasRole(bytes32,address)": {
        "details": "Returns `true` if `account` has been granted `role`."
      },
      "onERC721Received(address,address,uint256,bytes)": {
        "details": "Compliance for erc721 reciever See OZ documentation"
      },
      "paused()": {
        "details": "Returns true if the contract is paused, and false otherwise."
      },
      "purchaseNode(string,uint32,uint8,bytes32,bytes32,address)": {
        "details": "Burns (amount) tokens and mints a new Node token to the calling address",
        "params": {
          "_CAS1": "- any external data attatched to node 1/2",
          "_CAS2": "- any external data attatched to node 2/2",
          "_custodyType": "- chosen custodyType of node (see docs)",
          "_name": "- chosen name of node",
          "_nodeRoot": "- chosen root of node"
        }
      },
      "renounceRole(bytes32,address)": {
        "details": "Revokes `role` from the calling account. Roles are often managed via {grantRole} and {revokeRole}: this function's purpose is to provide a mechanism for accounts to lose their privileges if they are compromised (such as when a trusted device is misplaced). If the calling account had been granted `role`, emits a {RoleRevoked} event. Requirements: - the caller must be `account`."
      },
      "resolveContractAddresses()": {
        "details": "Resolve contract addresses from STOR"
      },
      "revokeRole(bytes32,address)": {
        "details": "Revokes `role` from `account`. If `account` had been granted `role`, emits a {RoleRevoked} event. Requirements: - the caller must have ``role``'s admin role."
      },
      "setStorageContract(address)": {
        "details": "Set address of STOR contract to interface with",
        "params": {
          "_storageAddress": "address of PRUF_STOR"
        }
      },
      "supportsInterface(bytes4)": {
        "details": "See {IERC165-supportsInterface}."
      }
    },
    "version": 1
  },
  "userdoc": {
    "kind": "user",
    "methods": {},
    "version": 1
  }
}