{
  "contractName": "RCLR",
  "abi": [
    {
      "anonymous": false,
      "inputs": [
        {
          "indexed": true,
          "internalType": "address",
          "name": "previousOwner",
          "type": "address"
        },
        {
          "indexed": true,
          "internalType": "address",
          "name": "newOwner",
          "type": "address"
        }
      ],
      "name": "OwnershipTransferred",
      "type": "event"
    },
    {
      "anonymous": false,
      "inputs": [
        {
          "indexed": false,
          "internalType": "address",
          "name": "account",
          "type": "address"
        }
      ],
      "name": "Paused",
      "type": "event"
    },
    {
      "anonymous": false,
      "inputs": [
        {
          "indexed": false,
          "internalType": "string",
          "name": "_msg",
          "type": "string"
        }
      ],
      "name": "REPORT",
      "type": "event"
    },
    {
      "anonymous": false,
      "inputs": [
        {
          "indexed": false,
          "internalType": "address",
          "name": "account",
          "type": "address"
        }
      ],
      "name": "Unpaused",
      "type": "event"
    },
    {
      "inputs": [],
      "name": "$withdraw",
      "outputs": [],
      "stateMutability": "payable",
      "type": "function"
    },
    {
      "inputs": [],
      "name": "OO_pause",
      "outputs": [],
      "stateMutability": "nonpayable",
      "type": "function"
    },
    {
      "inputs": [],
      "name": "OO_resolveContractAddresses",
      "outputs": [],
      "stateMutability": "nonpayable",
      "type": "function"
    },
    {
      "inputs": [
        {
          "internalType": "address",
          "name": "_storageAddress",
          "type": "address"
        }
      ],
      "name": "OO_setStorageContract",
      "outputs": [],
      "stateMutability": "nonpayable",
      "type": "function"
    },
    {
      "inputs": [
        {
          "internalType": "address",
          "name": "_to",
          "type": "address"
        },
        {
          "internalType": "bytes32",
          "name": "_idxHash",
          "type": "bytes32"
        }
      ],
      "name": "OO_transferACToken",
      "outputs": [],
      "stateMutability": "nonpayable",
      "type": "function"
    },
    {
      "inputs": [],
      "name": "OO_unpause",
      "outputs": [],
      "stateMutability": "nonpayable",
      "type": "function"
    },
    {
      "inputs": [
        {
          "internalType": "address",
          "name": "",
          "type": "address"
        },
        {
          "internalType": "address",
          "name": "",
          "type": "address"
        },
        {
          "internalType": "uint256",
          "name": "",
          "type": "uint256"
        },
        {
          "internalType": "bytes",
          "name": "",
          "type": "bytes"
        }
      ],
      "name": "onERC721Received",
      "outputs": [
        {
          "internalType": "bytes4",
          "name": "",
          "type": "bytes4"
        }
      ],
      "stateMutability": "nonpayable",
      "type": "function"
    },
    {
      "inputs": [],
      "name": "owner",
      "outputs": [
        {
          "internalType": "address",
          "name": "",
          "type": "address"
        }
      ],
      "stateMutability": "view",
      "type": "function"
    },
    {
      "inputs": [],
      "name": "paused",
      "outputs": [
        {
          "internalType": "bool",
          "name": "",
          "type": "bool"
        }
      ],
      "stateMutability": "view",
      "type": "function"
    },
    {
      "inputs": [
        {
          "internalType": "address",
          "name": "dest",
          "type": "address"
        }
      ],
      "name": "payments",
      "outputs": [
        {
          "internalType": "uint256",
          "name": "",
          "type": "uint256"
        }
      ],
      "stateMutability": "view",
      "type": "function"
    },
    {
      "inputs": [],
      "name": "renounceOwnership",
      "outputs": [],
      "stateMutability": "nonpayable",
      "type": "function"
    },
    {
      "inputs": [
        {
          "internalType": "address",
          "name": "_to",
          "type": "address"
        },
        {
          "internalType": "bytes32",
          "name": "_idxHash",
          "type": "bytes32"
        }
      ],
      "name": "transferAssetToken",
      "outputs": [],
      "stateMutability": "nonpayable",
      "type": "function"
    },
    {
      "inputs": [
        {
          "internalType": "address",
          "name": "newOwner",
          "type": "address"
        }
      ],
      "name": "transferOwnership",
      "outputs": [],
      "stateMutability": "nonpayable",
      "type": "function"
    },
    {
      "inputs": [
        {
          "internalType": "address payable",
          "name": "payee",
          "type": "address"
        }
      ],
      "name": "withdrawPayments",
      "outputs": [],
      "stateMutability": "nonpayable",
      "type": "function"
    },
    {
      "inputs": [
        {
          "internalType": "bytes32",
          "name": "_idxHash",
          "type": "bytes32"
        }
      ],
      "name": "discard",
      "outputs": [],
      "stateMutability": "nonpayable",
      "type": "function"
    },
    {
      "inputs": [
        {
          "internalType": "bytes32",
          "name": "_idxHash",
          "type": "bytes32"
        },
        {
          "internalType": "bytes32",
          "name": "_rgtHash",
          "type": "bytes32"
        },
        {
          "internalType": "uint32",
          "name": "_assetClass",
          "type": "uint32"
        }
      ],
      "name": "$recycle",
      "outputs": [],
      "stateMutability": "payable",
      "type": "function"
    }
  ],
  "bytecode": "0x60806040523480156200001157600080fd5b506040516200002090620000d1565b604051809103906000f0801580156200003d573d6000803e3d6000fd5b50600080546001600160a01b0319166001600160a01b0392909216919091178155600180556200006c620000cd565b600280546001600160a01b0319166001600160a01b038316908117909155604051919250906000907f8be0079c531659141344cd1fd0a4f28419497f9722a3daafe3b4186f6b6457e0908290a3506002805460ff60a01b19169055620000df565b3390565b61074f806200260683390190565b61251780620000ef6000396000f3fe6080604052600436106100f35760003560e01c8063961e809b1161008a578063d6b02ecf11610059578063d6b02ecf14610353578063e2982c2114610386578063e8b41653146103cb578063f2fde38b146103e0576100f3565b8063961e809b146102c1578063b949535a146102d6578063c79b226e14610305578063cf2b6f661461033e576100f3565b80635c975abb116100c65780635c975abb14610228578063715018a61461025157806372cd7667146102665780638da5cb5b14610290576100f3565b8063150b7a02146100f85780632cb741aa146101b257806331b3eb94146101bc578063440e7a7e146101ef575b600080fd5b34801561010457600080fd5b506101956004803603608081101561011b57600080fd5b6001600160a01b0382358116926020810135909116916040820135919081019060808101606082013564010000000081111561015657600080fd5b82018360208201111561016857600080fd5b8035906020019184600183028401116401000000008311171561018a57600080fd5b509092509050610413565b604080516001600160e01b03199092168252519081900360200190f35b6101ba610424565b005b3480156101c857600080fd5b506101ba600480360360208110156101df57600080fd5b50356001600160a01b031661047e565b3480156101fb57600080fd5b506101ba6004803603604081101561021257600080fd5b506001600160a01b0381351690602001356104e4565b34801561023457600080fd5b5061023d61061a565b604080519115158252519081900360200190f35b34801561025d57600080fd5b506101ba61062a565b34801561027257600080fd5b506101ba6004803603602081101561028957600080fd5b50356106cc565b34801561029c57600080fd5b506102a5610888565b604080516001600160a01b039092168252519081900360200190f35b3480156102cd57600080fd5b506101ba610897565b6101ba600480360360608110156102ec57600080fd5b508035906020810135906040013563ffffffff166108f9565b34801561031157600080fd5b506101ba6004803603604081101561032857600080fd5b506001600160a01b038135169060200135610bfe565b34801561034a57600080fd5b506101ba610cff565b34801561035f57600080fd5b506101ba6004803603602081101561037657600080fd5b50356001600160a01b0316610d5f565b34801561039257600080fd5b506103b9600480360360208110156103a957600080fd5b50356001600160a01b0316610e1e565b60408051918252519081900360200190f35b3480156103d757600080fd5b506101ba610e9e565b3480156103ec57600080fd5b506101ba6004803603602081101561040357600080fd5b50356001600160a01b03166116d4565b630a85bd0160e11b95945050505050565b6002600154141561046a576040805162461bcd60e51b815260206004820152601f60248201526000805160206123e7833981519152604482015290519081900360640190fd5b60026001556104783361047e565b60018055565b60008054604080516351cff8d960e01b81526001600160a01b038581166004830152915191909216926351cff8d9926024808201939182900301818387803b1580156104c957600080fd5b505af11580156104dd573d6000803e3d6000fd5b5050505050565b6002600154141561052a576040805162461bcd60e51b815260206004820152601f60248201526000805160206123e7833981519152604482015290519081900360640190fd5b6002600155610537610888565b6001600160a01b0316336001600160a01b0316148061056057506019546001600160a01b031633145b61059b5760405162461bcd60e51b81526004018080602001828103825260268152602001806124bc6026913960400191505060405180910390fd5b600a5460408051632142170760e11b81523060048201526001600160a01b038581166024830152604482018590529151849392909216916342842e0e9160648082019260009290919082900301818387803b1580156105f957600080fd5b505af115801561060d573d6000803e3d6000fd5b5050600180555050505050565b600254600160a01b900460ff1690565b6106326117cd565b6002546001600160a01b03908116911614610682576040805162461bcd60e51b8152602060048201819052602482015260008051602061249c833981519152604482015290519081900360640190fd5b6002546040516000916001600160a01b0316907f8be0079c531659141344cd1fd0a4f28419497f9722a3daafe3b4186f6b6457e0908390a3600280546001600160a01b0319169055565b60026001541415610712576040805162461bcd60e51b815260206004820152601f60248201526000805160206123e7833981519152604482015290519081900360640190fd5b6002600181905554600160a01b900460ff1615610769576040805162461bcd60e51b815260206004820152601060248201526f14185d5cd8589b194e881c185d5cd95960821b604482015290519081900360640190fd5b61077161231c565b61077a826117d1565b6009549091506001600160a01b031633146107c65760405162461bcd60e51b81526004018080602001828103825260268152602001806124766026913960400191505060405180910390fd5b806000015160ff16603b14610822576040805162461bcd60e51b815260206004820181905260248201527f523a443a4d75737420626520696e2072656379636c61626c6520737461747573604482015290519081900360640190fd5b604080513360601b60208083019190915282518083036014018152603490920190925280519101206502de4135300042019061085c612368565b60ff81523360e082015261087385603c8486611953565b61087d8582611a27565b505060018055505050565b6002546001600160a01b031690565b61089f6117cd565b6002546001600160a01b039081169116146108ef576040805162461bcd60e51b8152602060048201819052602482015260008051602061249c833981519152604482015290519081900360640190fd5b6108f7611b50565b565b6002600154141561093f576040805162461bcd60e51b815260206004820152601f60248201526000805160206123e7833981519152604482015290519081900360640190fd5b6002600181905554600160a01b900460ff1615610996576040805162461bcd60e51b815260206004820152601060248201526f14185d5cd8589b194e881c185d5cd95960821b604482015290519081900360640190fd5b8261099f612368565b6109a885611bf8565b90506109b261231c565b6109bb866117d1565b9050846109f95760405162461bcd60e51b81526004018080602001828103825260248152602001806124526024913960400191505060405180910390fd5b806000015160ff16603c14610a55576040805162461bcd60e51b815260206004820152601760248201527f523a523a4173736574206e6f7420646973636172646564000000000000000000604482015290519081900360640190fd5b60c0810185905260aa6080820152600a54604080516354a19c2b60e01b815233600482015260248101869052606060448201526007606482015266707275662e696f60c81b608482015290516001600160a01b03909216916354a19c2b9160a4808201926020929091908290030181600087803b158015610ad557600080fd5b505af1158015610ae9573d6000803e3d6000fd5b505050506040513d6020811015610aff57600080fd5b505060105460408051633a38454b60e21b81526004810189905290516001600160a01b039092169163e8e1152c9160248082019260009290919082900301818387803b158015610b4e57600080fd5b505af1158015610b62573d6000803e3d6000fd5b5050600480546040805163315017c360e11b81529283018b905263ffffffff89166024840152516001600160a01b0390911693506362a02f869250604480830192600092919082900301818387803b158015610bbd57600080fd5b505af1158015610bd1573d6000803e3d6000fd5b5050603a835250610be490508682611cff565b610bf2848360e00151611dde565b50506001805550505050565b610c066117cd565b6002546001600160a01b03908116911614610c56576040805162461bcd60e51b8152602060048201819052602482015260008051602061249c833981519152604482015290519081900360640190fd5b60026001541415610c9c576040805162461bcd60e51b815260206004820152601f60248201526000805160206123e7833981519152604482015290519081900360640190fd5b6002600155600c5460408051632142170760e11b81523060048201526001600160a01b038581166024830152604482018590529151849392909216916342842e0e9160648082019260009290919082900301818387803b1580156105f957600080fd5b610d076117cd565b6002546001600160a01b03908116911614610d57576040805162461bcd60e51b8152602060048201819052602482015260008051602061249c833981519152604482015290519081900360640190fd5b6108f7611ef8565b610d676117cd565b6002546001600160a01b03908116911614610db7576040805162461bcd60e51b8152602060048201819052602482015260008051602061249c833981519152604482015290519081900360640190fd5b6001600160a01b038116610dfc5760405162461bcd60e51b815260040180806020018281038252602581526020018061242d6025913960400191505060405180910390fd5b600480546001600160a01b0319166001600160a01b0392909216919091179055565b60008054604080516371d4ed8d60e11b81526001600160a01b0385811660048301529151919092169163e3a9db1a916024808301926020929190829003018186803b158015610e6c57600080fd5b505afa158015610e80573d6000803e3d6000fd5b505050506040513d6020811015610e9657600080fd5b505192915050565b60026001541415610ee4576040805162461bcd60e51b815260206004820152601f60248201526000805160206123e7833981519152604482015290519081900360640190fd5b6002600155610ef16117cd565b6002546001600160a01b03908116911614610f41576040805162461bcd60e51b8152602060048201819052602482015260008051602061249c833981519152604482015290519081900360640190fd5b60048054604080516363b8d4c160e11b81526020938101849052600660248201526520a1afaa25a760d11b604482015290516001600160a01b039092169263c771a98292606480840193829003018186803b158015610f9f57600080fd5b505afa158015610fb3573d6000803e3d6000fd5b505050506040513d6020811015610fc957600080fd5b5051600b80546001600160a01b039283166001600160a01b03199182161791829055600c805490911691831691909117905560048054604080516363b8d4c160e11b81526020938101849052600660248201526520a1afa6a3a960d11b60448201529051919093169263c771a982926064808301939192829003018186803b15801561105457600080fd5b505afa158015611068573d6000803e3d6000fd5b505050506040513d602081101561107e57600080fd5b5051600580546001600160a01b039283166001600160a01b031991821617918290556006805490911691831691909117905560048054604080516363b8d4c160e11b8152602093810184905260086024820152672aaa24a62faa25a760c11b60448201529051919093169263c771a982926064808301939192829003018186803b15801561110b57600080fd5b505afa15801561111f573d6000803e3d6000fd5b505050506040513d602081101561113557600080fd5b5051600780546001600160a01b039283166001600160a01b031991821617918290556008805490911691831691909117905560048054604080516363b8d4c160e11b81526020938101849052600560248201526420afaa25a760d91b60448201529051919093169263c771a982926064808301939192829003018186803b1580156111bf57600080fd5b505afa1580156111d3573d6000803e3d6000fd5b505050506040513d60208110156111e957600080fd5b5051600980546001600160a01b039283166001600160a01b03199182161791829055600a805490911691831691909117905560048054604080516363b8d4c160e11b81526020938101849052600660248201526524a22faa25a760d11b60448201529051919093169263c771a982926064808301939192829003018186803b15801561127457600080fd5b505afa158015611288573d6000803e3d6000fd5b505050506040513d602081101561129e57600080fd5b5051600d80546001600160a01b039283166001600160a01b03199182161791829055600e805490911691831691909117905560048054604080516363b8d4c160e11b81526020938101849052600760248201526622a1a92fa6a3a960c91b60448201529051919093169263c771a982926064808301939192829003018186803b15801561132a57600080fd5b505afa15801561133e573d6000803e3d6000fd5b505050506040513d602081101561135457600080fd5b5051600f80546001600160a01b039283166001600160a01b031991821617918290556010805490911691831691909117905560048054604080516363b8d4c160e11b81526020938101849052600360248201526204150560ec1b60448201529051919093169263c771a982926064808301939192829003018186803b1580156113dc57600080fd5b505afa1580156113f0573d6000803e3d6000fd5b505050506040513d602081101561140657600080fd5b5051601380546001600160a01b039283166001600160a01b031991821617918290556014805490911691831691909117905560048054604080516363b8d4c160e11b815260208185018190526024820194909452632921a62960e11b60448201529051919093169263c771a982926064808301939192829003018186803b15801561149057600080fd5b505afa1580156114a4573d6000803e3d6000fd5b505050506040513d60208110156114ba57600080fd5b5051601180546001600160a01b039283166001600160a01b031991821617918290556012805490911691831691909117905560048054604080516363b8d4c160e11b8152602093810184905260066024820152654150505f4e4360d01b60448201529051919093169263c771a982926064808301939192829003018186803b15801561154557600080fd5b505afa158015611559573d6000803e3d6000fd5b505050506040513d602081101561156f57600080fd5b5051601580546001600160a01b0319166001600160a01b0392831617905560048054604080516363b8d4c160e11b81526020938101849052600260248201526104e560f41b60448201529051919093169263c771a982926064808301939192829003018186803b1580156115e257600080fd5b505afa1580156115f6573d6000803e3d6000fd5b505050506040513d602081101561160c57600080fd5b5051601980546001600160a01b0319166001600160a01b0392831617905560048054604080516363b8d4c160e11b81526020938101849052600660248201526553484152455360d01b60448201529051919093169263c771a982926064808301939192829003018186803b15801561168357600080fd5b505afa158015611697573d6000803e3d6000fd5b505050506040513d60208110156116ad57600080fd5b5051601780546001600160a01b0319166001600160a01b0390921691909117905560018055565b6116dc6117cd565b6002546001600160a01b0390811691161461172c576040805162461bcd60e51b8152602060048201819052602482015260008051602061249c833981519152604482015290519081900360640190fd5b6001600160a01b0381166117715760405162461bcd60e51b81526004018080602001828103825260268152602001806124076026913960400191505060405180910390fd5b6002546040516001600160a01b038084169216907f8be0079c531659141344cd1fd0a4f28419497f9722a3daafe3b4186f6b6457e090600090a3600280546001600160a01b0319166001600160a01b0392909216919091179055565b3390565b6117d961231c565b6117e161231c565b6000806000806000806000600460009054906101000a90046001600160a01b03166001600160a01b031663e248f2c48b6040518263ffffffff1660e01b81526004018082815260200191505060e06040518083038186803b15801561184557600080fd5b505afa158015611859573d6000803e3d6000fd5b505050506040513d60e081101561186f57600080fd5b81019080805190602001909291908051906020019092919080519060200190929190805190602001909291908051906020019092919080519060200190929190805190602001909291905050509650965096509650965096509650868860c001818152505085886000019060ff16908160ff168152505084886020019063ffffffff16908163ffffffff168152505083886040019063ffffffff16908163ffffffff168152505082886060019063ffffffff16908163ffffffff1681525050818860e001818152505080886101000181815250505050505050505080915050919050565b600254600160a01b900460ff16156119a5576040805162461bcd60e51b815260206004820152601060248201526f14185d5cd8589b194e881c185d5cd95960821b604482015290519081900360640190fd5b60105460408051637318462b60e11b81526004810187905260ff86166024820152604481018590526064810184905290516001600160a01b039092169163e6308c569160848082019260009290919082900301818387803b158015611a0957600080fd5b505af1158015611a1d573d6000803e3d6000fd5b5050505050505050565b600254600160a01b900460ff1615611a79576040805162461bcd60e51b815260206004820152601060248201526f14185d5cd8589b194e881c185d5cd95960821b604482015290519081900360640190fd5b601054815160208301516040808501516060860151608087015160a088015160c089015160e08a0151865163333c25e160e21b8152600481018d905260ff998a1660248201529789166044890152948816606488015296909216608486015261ffff90811660a48601521660c484015263ffffffff90931660e48301526001600160a01b0392831661010483015251919092169163ccf097849161012480830192600092919082900301818387803b158015611b3457600080fd5b505af1158015611b48573d6000803e3d6000fd5b505050505050565b600254600160a01b900460ff16611ba5576040805162461bcd60e51b815260206004820152601460248201527314185d5cd8589b194e881b9bdd081c185d5cd95960621b604482015290519081900360640190fd5b6002805460ff60a01b191690557f5db9ee0a495bf2e6ff9c91a7834c1ba4fdd244a5e8aa4e537bd38aeae4b073aa611bdb6117cd565b604080516001600160a01b039092168252519081900360200190a1565b611c00612368565b611c08612368565b601054604080516375855a5b60e01b81526004810186905290516001600160a01b03909216916375855a5b9160248082019261010092909190829003018186803b158015611c5557600080fd5b505afa158015611c69573d6000803e3d6000fd5b505050506040513d610100811015611c8057600080fd5b50805160208083015160408085015160608087015160808089015160a0808b015160c0808d015160e09d8e01516001600160a01b03169d8f019d909d5263ffffffff909c169b8d019b909b5261ffff9a8b16908c0152989098169789019790975260ff9687169088015285169086015283169084015216815292915050565b600254600160a01b900460ff1615611d51576040805162461bcd60e51b815260206004820152601060248201526f14185d5cd8589b194e881c185d5cd95960821b604482015290519081900360640190fd5b6004805460c0830151835160408086015160a0870151608088015183516331aeaa7f60e11b81529788018a9052602488019590955260ff909316604487015263ffffffff166064860152608485019190915260a4840191909152516001600160a01b039091169163635d54fe9160c480830192600092919082900301818387803b158015611b3457600080fd5b600254600160a01b900460ff1615611e30576040805162461bcd60e51b815260206004820152601060248201526f14185d5cd8589b194e881c185d5cd95960821b604482015290519081900360640190fd5b611e386123ac565b6006546040805163859f08db60e01b815263ffffffff861660048201526001602482015290516001600160a01b039092169163859f08db91604480820192608092909190829003018186803b158015611e9057600080fd5b505afa158015611ea4573d6000803e3d6000fd5b505050506040513d6080811015611eba57600080fd5b508051602080830151606093840151938501939093528301919091526001600160a01b03908116825282166040820152611ef381611f86565b505050565b600254600160a01b900460ff1615611f4a576040805162461bcd60e51b815260206004820152601060248201526f14185d5cd8589b194e881c185d5cd95960821b604482015290519081900360640190fd5b6002805460ff60a01b1916600160a01b1790557f62e78cea01bee320cd4e420270b5ea74000d11b0c9f74754ebdbfc544b05a258611bdb6117cd565b600254600160a01b900460ff1615611fd8576040805162461bcd60e51b815260206004820152601060248201526f14185d5cd8589b194e881c185d5cd95960821b604482015290519081900360640190fd5b60208101513490600090611fed9060046120d1565b9050600061200882856020015161211a90919063ffffffff16565b9050600061202d8560600151612027848661215c90919063ffffffff16565b9061215c565b905080341015612084576040805162461bcd60e51b815260206004820152601760248201527f433a44503a2054582076616c756520746f6f206c6f772e000000000000000000604482015290519081900360640190fd5b6000612090858361211a565b6017549091506120a9906001600160a01b0316856121b6565b85516120b590846121b6565b6120c7866040015187606001516121b6565b611b4833826121b6565b600061211383836040518060400160405280601a81526020017f536166654d6174683a206469766973696f6e206279207a65726f000000000000815250612220565b9392505050565b600061211383836040518060400160405280601e81526020017f536166654d6174683a207375627472616374696f6e206f766572666c6f7700008152506122c2565b600082820183811015612113576040805162461bcd60e51b815260206004820152601b60248201527f536166654d6174683a206164646974696f6e206f766572666c6f770000000000604482015290519081900360640190fd5b600080546040805163f340fa0160e01b81526001600160a01b0386811660048301529151919092169263f340fa019285926024808301939282900301818588803b15801561220357600080fd5b505af1158015612217573d6000803e3d6000fd5b50505050505050565b600081836122ac5760405162461bcd60e51b81526004018080602001828103825283818151815260200191508051906020019080838360005b83811015612271578181015183820152602001612259565b50505050905090810190601f16801561229e5780820380516001836020036101000a031916815260200191505b509250505060405180910390fd5b5060008385816122b857fe5b0495945050505050565b600081848411156123145760405162461bcd60e51b8152602060048201818152835160248401528351909283926044909101919085019080838360008315612271578181015183820152602001612259565b505050900390565b6040805161012081018252600080825260208201819052918101829052606081018290526080810182905260a0810182905260c0810182905260e0810182905261010081019190915290565b6040805161010081018252600080825260208201819052918101829052606081018290526080810182905260a0810182905260c0810182905260e081019190915290565b604051806080016040528060006001600160a01b031681526020016000815260200160006001600160a01b0316815260200160008152509056fe5265656e7472616e637947756172643a207265656e7472616e742063616c6c004f776e61626c653a206e6577206f776e657220697320746865207a65726f2061646472657373423a5353433a2073746f7261676520616464726573732063616e6e6f74206265207a65726f523a523a4e65772072696768747320686f6c6465722063616e6e6f74206265207a65726f523a443a43616c6c6572206973206e6f7420417373657420546f6b656e20436f6e74726163744f776e61626c653a2063616c6c6572206973206e6f7420746865206f776e6572423a54583a496e76616c69642063616c6c657220666f72207472616e7366657220746f6b656ea2646970667358221220fa0ad692a8183ef584e89646463176fe6c4288ef49dfc059077772af76282ea364736f6c634300060c0033608060405234801561001057600080fd5b50600061001b61006a565b600080546001600160a01b0319166001600160a01b0383169081178255604051929350917f8be0079c531659141344cd1fd0a4f28419497f9722a3daafe3b4186f6b6457e0908290a35061006e565b3390565b6106d28061007d6000396000f3fe6080604052600436106100555760003560e01c806351cff8d91461005a578063715018a61461008f5780638da5cb5b146100a4578063e3a9db1a146100d5578063f2fde38b1461011a578063f340fa011461014d575b600080fd5b34801561006657600080fd5b5061008d6004803603602081101561007d57600080fd5b50356001600160a01b0316610173565b005b34801561009b57600080fd5b5061008d610236565b3480156100b057600080fd5b506100b96102d8565b604080516001600160a01b039092168252519081900360200190f35b3480156100e157600080fd5b50610108600480360360208110156100f857600080fd5b50356001600160a01b03166102e7565b60408051918252519081900360200190f35b34801561012657600080fd5b5061008d6004803603602081101561013d57600080fd5b50356001600160a01b0316610302565b61008d6004803603602081101561016357600080fd5b50356001600160a01b03166103fa565b61017b6104cd565b6000546001600160a01b039081169116146101cb576040805162461bcd60e51b8152602060048201819052602482015260008051602061067d833981519152604482015290519081900360640190fd5b6001600160a01b03811660008181526001602052604081208054919055906101f390826104d1565b6040805182815290516001600160a01b038416917f7084f5476618d8e60b11ef0d7d3f06914655adb8793e28ff7f018d4c76d505d5919081900360200190a25050565b61023e6104cd565b6000546001600160a01b0390811691161461028e576040805162461bcd60e51b8152602060048201819052602482015260008051602061067d833981519152604482015290519081900360640190fd5b600080546040516001600160a01b03909116907f8be0079c531659141344cd1fd0a4f28419497f9722a3daafe3b4186f6b6457e0908390a3600080546001600160a01b0319169055565b6000546001600160a01b031690565b6001600160a01b031660009081526001602052604090205490565b61030a6104cd565b6000546001600160a01b0390811691161461035a576040805162461bcd60e51b8152602060048201819052602482015260008051602061067d833981519152604482015290519081900360640190fd5b6001600160a01b03811661039f5760405162461bcd60e51b815260040180806020018281038252602681526020018061061d6026913960400191505060405180910390fd5b600080546040516001600160a01b03808516939216917f8be0079c531659141344cd1fd0a4f28419497f9722a3daafe3b4186f6b6457e091a3600080546001600160a01b0319166001600160a01b0392909216919091179055565b6104026104cd565b6000546001600160a01b03908116911614610452576040805162461bcd60e51b8152602060048201819052602482015260008051602061067d833981519152604482015290519081900360640190fd5b6001600160a01b038116600090815260016020526040902054349061047790826105bb565b6001600160a01b038316600081815260016020908152604091829020939093558051848152905191927f2da466a7b24304f47e87fa2e1e5a81b9831ce54fec19055ce277ca2f39ba42c492918290030190a25050565b3390565b80471015610526576040805162461bcd60e51b815260206004820152601d60248201527f416464726573733a20696e73756666696369656e742062616c616e6365000000604482015290519081900360640190fd5b6040516000906001600160a01b0384169083908381818185875af1925050503d8060008114610571576040519150601f19603f3d011682016040523d82523d6000602084013e610576565b606091505b50509050806105b65760405162461bcd60e51b815260040180806020018281038252603a815260200180610643603a913960400191505060405180910390fd5b505050565b600082820183811015610615576040805162461bcd60e51b815260206004820152601b60248201527f536166654d6174683a206164646974696f6e206f766572666c6f770000000000604482015290519081900360640190fd5b939250505056fe4f776e61626c653a206e6577206f776e657220697320746865207a65726f2061646472657373416464726573733a20756e61626c6520746f2073656e642076616c75652c20726563697069656e74206d617920686176652072657665727465644f776e61626c653a2063616c6c6572206973206e6f7420746865206f776e6572a26469706673582212208d3549e28c6ba65df20af8bc7ec639e42a0a50794842b2da57f87b4ad416257964736f6c634300060c0033",
  "immutableReferences": {},
  "source": "/*-----------------------------------------------------------V0.7.0\n__/\\\\\\\\\\\\\\\\\\\\\\\\\\ _____/\\\\\\\\\\\\\\\\\\ _______/\\\\../\\\\ ___/\\\\\\\\\\\\\\\\\\\\\\\\\\\\\\\n _\\/\\\\\\/////////\\\\\\ _/\\\\\\///////\\\\\\ ____\\//..\\//____\\/\\\\\\///////////__\n  _\\/\\\\\\.......\\/\\\\\\.\\/\\\\\\.....\\/\\\\\\ ________________\\/\\\\\\ ____________\n   _\\/\\\\\\\\\\\\\\\\\\\\\\\\\\/__\\/\\\\\\\\\\\\\\\\\\\\\\/_____/\\\\\\____/\\\\\\.\\/\\\\\\\\\\\\\\\\\\\\\\ ____\n    _\\/\\\\\\/////////____\\/\\\\\\//////\\\\\\ ___\\/\\\\\\___\\/\\\\\\.\\/\\\\\\///////______\n     _\\/\\\\\\ ____________\\/\\\\\\ ___\\//\\\\\\ __\\/\\\\\\___\\/\\\\\\.\\/\\\\\\ ____________\n      _\\/\\\\\\ ____________\\/\\\\\\ ____\\//\\\\\\ _\\/\\\\\\___\\/\\\\\\.\\/\\\\\\ ____________\n       _\\/\\\\\\ ____________\\/\\\\\\ _____\\//\\\\\\.\\//\\\\\\\\\\\\\\\\\\ _\\/\\\\\\ ____________\n        _\\/// _____________\\/// _______\\/// __\\///////// __\\/// _____________\n         *-------------------------------------------------------------------*/\n\n/*-----------------------------------------------------------------\n *  TO DO\n *\n *---------------------------------------------------------------*/\n\n// SPDX-License-Identifier: UNLICENSED\npragma solidity ^0.6.7;\n\nimport \"./PRUF_ECR_CORE.sol\";\nimport \"./PRUF_CORE.sol\";\n\ncontract RCLR is ECR_CORE, CORE {\n    using SafeMath for uint256;\n\n    //--------------------------------------------External Functions--------------------------\n\n    /*\n     * @dev //gets item out of recycled status -- caller is assetToken contract\n     */\n    function discard(bytes32 _idxHash) external nonReentrant whenNotPaused {\n        Record memory rec = getRecord(_idxHash);\n\n        require(\n            msg.sender == A_TKN_Address,\n            \"R:D:Caller is not Asset Token Contract\"\n        );\n        require((rec.assetStatus == 59), \"R:D:Must be in recyclable status\");\n        //^^^^^^^checks^^^^^^^^^\n\n        uint256 escrowTime = block.timestamp + 3153600000000; //100,000 years in the FUTURE.........\n        bytes32 escrowOwnerHash = keccak256(abi.encodePacked(msg.sender));\n        escrowDataExtLight memory escrowDataLight;\n        escrowDataLight.escrowData = 255;\n        escrowDataLight.addr_1 = msg.sender;\n        //^^^^^^^effects^^^^^^^^^\n\n       _setEscrowData(\n            _idxHash,\n            60, //recycled status\n            escrowOwnerHash,\n            escrowTime\n        );\n\n        _setEscrowDataLight(\n            _idxHash,\n            escrowDataLight);\n        //^^^^^^^interactions^^^^^^^^^\n    }\n\n    /*\n     * @dev reutilize a recycled asset\n     */\n    function $recycle(\n        bytes32 _idxHash,\n        bytes32 _rgtHash,\n        uint32 _assetClass\n    ) external payable nonReentrant whenNotPaused {\n\n        uint256 tokenId = uint256(_idxHash);\n        escrowDataExtLight memory escrowDataLight = getEscrowDataLight(_idxHash);\n        Record memory rec = getRecord(_idxHash);\n\n        require(_rgtHash != 0, \"R:R:New rights holder cannot be zero\");\n\n        require(rec.assetStatus == 60, \"R:R:Asset not discarded\");\n        //^^^^^^^checks^^^^^^^^^\n\n        rec.rightsHolder = _rgtHash;\n        rec.incrementNumberOfTransfers = 170;\n        //^^^^^^^effects^^^^^^^^^^^^\n\n        A_TKN.mintAssetToken(msg.sender, tokenId, \"pruf.io\");\n        ECR_MGR.endEscrow(_idxHash);\n        STOR.changeAC(_idxHash, _assetClass);\n        rec.assetStatus = 58;\n        writeRecord(_idxHash, rec);\n        deductRecycleCosts(_assetClass, escrowDataLight.addr_1);\n        //^^^^^^^interactions^^^^^^^^^^^^\n    }\n}\n",
  "sourcePath": "/Users/cts/dev/PRUF/PRUF_TRUFFLE/contracts/PRUF_RCLR.sol",
  "compiler": {
    "name": "solc",
    "version": "0.6.12+commit.27d51765.Emscripten.clang"
  },
  "schemaVersion": "3.2.3",
  "updatedAt": "2020-09-22T21:30:52.919Z",
  "devdoc": {
    "kind": "dev",
    "methods": {
      "OO_pause()": {
        "details": "Triggers stopped state. (pausable)"
      },
      "OO_unpause()": {
        "details": "Returns to normal state. (pausable)"
      },
      "owner()": {
        "details": "Returns the address of the current owner."
      },
      "paused()": {
        "details": "Returns true if the contract is paused, and false otherwise."
      },
      "payments(address)": {
        "details": "Returns the payments owed to an address.",
        "params": {
          "dest": "The creditor's address."
        }
      },
      "renounceOwnership()": {
        "details": "Leaves the contract without owner. It will not be possible to call `onlyOwner` functions anymore. Can only be called by the current owner. NOTE: Renouncing ownership will leave the contract without an owner, thereby removing any functionality that is only available to the owner."
      },
      "transferOwnership(address)": {
        "details": "Transfers ownership of the contract to a new account (`newOwner`). Can only be called by the current owner."
      },
      "withdrawPayments(address)": {
        "details": "Withdraw accumulated payments, forwarding all gas to the recipient. Note that _any_ account can call this function, not just the `payee`. This means that contracts unaware of the `PullPayment` protocol can still receive funds this way, by having a separate account call {withdrawPayments}. WARNING: Forwarding all gas opens the door to reentrancy vulnerabilities. Make sure you trust the recipient, or are either following the checks-effects-interactions pattern or using {ReentrancyGuard}.",
        "params": {
          "payee": "Whose payments will be withdrawn."
        }
      }
    },
    "version": 1
  },
  "userdoc": {
    "kind": "user",
    "methods": {},
    "version": 1
  }
}