{
  "contractName": "RCLR",
  "abi": [
    {
      "anonymous": false,
      "inputs": [
        {
          "indexed": true,
          "internalType": "address",
          "name": "previousOwner",
          "type": "address"
        },
        {
          "indexed": true,
          "internalType": "address",
          "name": "newOwner",
          "type": "address"
        }
      ],
      "name": "OwnershipTransferred",
      "type": "event"
    },
    {
      "anonymous": false,
      "inputs": [
        {
          "indexed": false,
          "internalType": "address",
          "name": "account",
          "type": "address"
        }
      ],
      "name": "Paused",
      "type": "event"
    },
    {
      "anonymous": false,
      "inputs": [
        {
          "indexed": false,
          "internalType": "string",
          "name": "_msg",
          "type": "string"
        }
      ],
      "name": "REPORT",
      "type": "event"
    },
    {
      "anonymous": false,
      "inputs": [
        {
          "indexed": false,
          "internalType": "address",
          "name": "account",
          "type": "address"
        }
      ],
      "name": "Unpaused",
      "type": "event"
    },
    {
      "inputs": [],
      "name": "$withdraw",
      "outputs": [],
      "stateMutability": "payable",
      "type": "function"
    },
    {
      "inputs": [],
      "name": "OO_ResolveContractAddresses",
      "outputs": [],
      "stateMutability": "nonpayable",
      "type": "function"
    },
    {
      "inputs": [
        {
          "internalType": "address",
          "name": "_to",
          "type": "address"
        },
        {
          "internalType": "bytes32",
          "name": "_idxHash",
          "type": "bytes32"
        }
      ],
      "name": "OO_TX_AC_Token",
      "outputs": [],
      "stateMutability": "nonpayable",
      "type": "function"
    },
    {
      "inputs": [
        {
          "internalType": "address",
          "name": "_to",
          "type": "address"
        },
        {
          "internalType": "bytes32",
          "name": "_idxHash",
          "type": "bytes32"
        }
      ],
      "name": "OO_TX_asset_Token",
      "outputs": [],
      "stateMutability": "nonpayable",
      "type": "function"
    },
    {
      "inputs": [],
      "name": "OO_pause",
      "outputs": [],
      "stateMutability": "nonpayable",
      "type": "function"
    },
    {
      "inputs": [
        {
          "internalType": "address",
          "name": "_storageAddress",
          "type": "address"
        }
      ],
      "name": "OO_setStorageContract",
      "outputs": [],
      "stateMutability": "nonpayable",
      "type": "function"
    },
    {
      "inputs": [],
      "name": "OO_unpause",
      "outputs": [],
      "stateMutability": "nonpayable",
      "type": "function"
    },
    {
      "inputs": [
        {
          "internalType": "address",
          "name": "",
          "type": "address"
        },
        {
          "internalType": "address",
          "name": "",
          "type": "address"
        },
        {
          "internalType": "uint256",
          "name": "",
          "type": "uint256"
        },
        {
          "internalType": "bytes",
          "name": "",
          "type": "bytes"
        }
      ],
      "name": "onERC721Received",
      "outputs": [
        {
          "internalType": "bytes4",
          "name": "",
          "type": "bytes4"
        }
      ],
      "stateMutability": "nonpayable",
      "type": "function"
    },
    {
      "inputs": [],
      "name": "owner",
      "outputs": [
        {
          "internalType": "address",
          "name": "",
          "type": "address"
        }
      ],
      "stateMutability": "view",
      "type": "function"
    },
    {
      "inputs": [],
      "name": "paused",
      "outputs": [
        {
          "internalType": "bool",
          "name": "",
          "type": "bool"
        }
      ],
      "stateMutability": "view",
      "type": "function"
    },
    {
      "inputs": [
        {
          "internalType": "address",
          "name": "dest",
          "type": "address"
        }
      ],
      "name": "payments",
      "outputs": [
        {
          "internalType": "uint256",
          "name": "",
          "type": "uint256"
        }
      ],
      "stateMutability": "view",
      "type": "function"
    },
    {
      "inputs": [],
      "name": "renounceOwnership",
      "outputs": [],
      "stateMutability": "nonpayable",
      "type": "function"
    },
    {
      "inputs": [
        {
          "internalType": "address",
          "name": "newOwner",
          "type": "address"
        }
      ],
      "name": "transferOwnership",
      "outputs": [],
      "stateMutability": "nonpayable",
      "type": "function"
    },
    {
      "inputs": [
        {
          "internalType": "address payable",
          "name": "payee",
          "type": "address"
        }
      ],
      "name": "withdrawPayments",
      "outputs": [],
      "stateMutability": "nonpayable",
      "type": "function"
    },
    {
      "inputs": [
        {
          "internalType": "bytes32",
          "name": "_idxHash",
          "type": "bytes32"
        }
      ],
      "name": "discard",
      "outputs": [],
      "stateMutability": "nonpayable",
      "type": "function"
    },
    {
      "inputs": [
        {
          "internalType": "bytes32",
          "name": "_idxHash",
          "type": "bytes32"
        },
        {
          "internalType": "bytes32",
          "name": "_rgtHash",
          "type": "bytes32"
        },
        {
          "internalType": "uint16",
          "name": "_assetClass",
          "type": "uint16"
        }
      ],
      "name": "$recycle",
      "outputs": [],
      "stateMutability": "payable",
      "type": "function"
    }
  ],
  "bytecode": "0x60806040523480156200001157600080fd5b506040516200002090620000d1565b604051809103906000f0801580156200003d573d6000803e3d6000fd5b50600080546001600160a01b0319166001600160a01b0392909216919091178155600180556200006c620000cd565b600280546001600160a01b0319166001600160a01b038316908117909155604051919250906000907f8be0079c531659141344cd1fd0a4f28419497f9722a3daafe3b4186f6b6457e0908290a3506002805460ff60a01b19169055620000df565b3390565b61076480620024f883390190565b61240980620000ef6000396000f3fe6080604052600436106100f35760003560e01c80638da5cb5b1161008a578063d6b02ecf11610059578063d6b02ecf14610339578063e0013cf01461036c578063e2982c2114610399578063f2fde38b146103de576100f3565b80638da5cb5b146102a5578063961e809b146102d6578063b1d83c18146102eb578063cf2b6f6614610324576100f3565b80634b9f23a4116100c65780634b9f23a4146102285780635c975abb1461023d578063715018a61461026657806372cd76671461027b576100f3565b8063150b7a02146100f85780632cb741aa146101b257806331b3eb94146101bc578063466aafa4146101ef575b600080fd5b34801561010457600080fd5b506101956004803603608081101561011b57600080fd5b6001600160a01b0382358116926020810135909116916040820135919081019060808101606082013564010000000081111561015657600080fd5b82018360208201111561016857600080fd5b8035906020019184600183028401116401000000008311171561018a57600080fd5b509092509050610411565b604080516001600160e01b03199092168252519081900360200190f35b6101ba610422565b005b3480156101c857600080fd5b506101ba600480360360208110156101df57600080fd5b50356001600160a01b031661047c565b3480156101fb57600080fd5b506101ba6004803603604081101561021257600080fd5b506001600160a01b0381351690602001356104e2565b34801561023457600080fd5b506101ba610604565b34801561024957600080fd5b50610252610b78565b604080519115158252519081900360200190f35b34801561027257600080fd5b506101ba610b88565b34801561028757600080fd5b506101ba6004803603602081101561029e57600080fd5b5035610c2a565b3480156102b157600080fd5b506102ba610e98565b604080516001600160a01b039092168252519081900360200190f35b3480156102e257600080fd5b506101ba610ea7565b3480156102f757600080fd5b506101ba6004803603604081101561030e57600080fd5b506001600160a01b038135169060200135610f09565b34801561033057600080fd5b506101ba61100a565b34801561034557600080fd5b506101ba6004803603602081101561035c57600080fd5b50356001600160a01b031661106a565b6101ba6004803603606081101561038257600080fd5b508035906020810135906040013561ffff16611129565b3480156103a557600080fd5b506103cc600480360360208110156103bc57600080fd5b50356001600160a01b031661157c565b60408051918252519081900360200190f35b3480156103ea57600080fd5b506101ba6004803603602081101561040157600080fd5b50356001600160a01b03166115fc565b630a85bd0160e11b95945050505050565b60026001541415610468576040805162461bcd60e51b815260206004820152601f602482015260008051602061228e833981519152604482015290519081900360640190fd5b60026001556104763361047c565b60018055565b60008054604080516351cff8d960e01b81526001600160a01b038581166004830152915191909216926351cff8d9926024808201939182900301818387803b1580156104c757600080fd5b505af11580156104db573d6000803e3d6000fd5b5050505050565b6104ea6116f5565b6002546001600160a01b0390811691161461053a576040805162461bcd60e51b81526020600482018190526024820152600080516020612327833981519152604482015290519081900360640190fd5b60026001541415610580576040805162461bcd60e51b815260206004820152601f602482015260008051602061228e833981519152604482015290519081900360640190fd5b600260015560085460408051632142170760e11b81523060048201526001600160a01b038581166024830152604482018590529151849392909216916342842e0e9160648082019260009290919082900301818387803b1580156105e357600080fd5b505af11580156105f7573d6000803e3d6000fd5b5050600180555050505050565b6002600154141561064a576040805162461bcd60e51b815260206004820152601f602482015260008051602061228e833981519152604482015290519081900360640190fd5b60026001556106576116f5565b6002546001600160a01b039081169116146106a7576040805162461bcd60e51b81526020600482018190526024820152600080516020612327833981519152604482015290519081900360640190fd5b60048054604080516363b8d4c160e11b81526020938101849052600660248201526520a1afaa25a760d11b604482015290516001600160a01b039092169263c771a982926064808401938290030181600087803b15801561070757600080fd5b505af115801561071b573d6000803e3d6000fd5b505050506040513d602081101561073157600080fd5b5051600980546001600160a01b039283166001600160a01b03199182161791829055600a805490911691831691909117905560048054604080516363b8d4c160e11b81526020938101849052600660248201526520a1afa6a3a960d11b60448201529051919093169263c771a9829260648083019391928290030181600087803b1580156107be57600080fd5b505af11580156107d2573d6000803e3d6000fd5b505050506040513d60208110156107e857600080fd5b5051600580546001600160a01b039283166001600160a01b0319918216178083556006805490921690841617905560048054604080516363b8d4c160e11b8152602093810184905260248101949094526420afaa25a760d91b60448501525193169263c771a9829260648082019392918290030181600087803b15801561086e57600080fd5b505af1158015610882573d6000803e3d6000fd5b505050506040513d602081101561089857600080fd5b5051600780546001600160a01b039283166001600160a01b0319918216178083556008805490921690841617905560048054604080516363b8d4c160e11b8152602093810184905260248101949094526622a1a92fa6a3a960c91b60448501525193169263c771a9829260648082019392918290030181600087803b15801561092057600080fd5b505af1158015610934573d6000803e3d6000fd5b505050506040513d602081101561094a57600080fd5b5051600b80546001600160a01b039283166001600160a01b03199182161791829055600c805490911691831691909117905560048054604080516363b8d4c160e11b81526020938101849052600360248201526204150560ec1b60448201529051919093169263c771a9829260648083019391928290030181600087803b1580156109d457600080fd5b505af11580156109e8573d6000803e3d6000fd5b505050506040513d60208110156109fe57600080fd5b5051600f80546001600160a01b0319166001600160a01b0392831617905560048054604080516363b8d4c160e11b8152602093810184905260066024820152654150505f4e4360d01b60448201529051919093169263c771a9829260648083019391928290030181600087803b158015610a7757600080fd5b505af1158015610a8b573d6000803e3d6000fd5b505050506040513d6020811015610aa157600080fd5b5051601080546001600160a01b0319166001600160a01b0392831617905560048054604080516363b8d4c160e11b815260208185018190526024820194909452632921a62960e11b60448201529051919093169263c771a9829260648083019391928290030181600087803b158015610b1957600080fd5b505af1158015610b2d573d6000803e3d6000fd5b505050506040513d6020811015610b4357600080fd5b5051600d80546001600160a01b03199081166001600160a01b039384161791829055600e805492909316911617905560018055565b600254600160a01b900460ff1690565b610b906116f5565b6002546001600160a01b03908116911614610be0576040805162461bcd60e51b81526020600482018190526024820152600080516020612327833981519152604482015290519081900360640190fd5b6002546040516000916001600160a01b0316907f8be0079c531659141344cd1fd0a4f28419497f9722a3daafe3b4186f6b6457e0908390a3600280546001600160a01b0319169055565b60026001541415610c70576040805162461bcd60e51b815260206004820152601f602482015260008051602061228e833981519152604482015290519081900360640190fd5b6002600181905554600160a01b900460ff1615610cc7576040805162461bcd60e51b815260206004820152601060248201526f14185d5cd8589b194e881c185d5cd95960821b604482015290519081900360640190fd5b610ccf61215c565b610cd8826116f9565b6007549091506001600160a01b03163314610d245760405162461bcd60e51b815260040180806020018281038252602d8152602001806122d4602d913960400191505060405180910390fd5b8051610d77576040805162461bcd60e51b815260206004820152601960248201527f53453a205265636f726420646f6573206e6f7420657869737400000000000000604482015290519081900360640190fd5b806020015160ff16603b14610dbd5760405162461bcd60e51b81526004018080602001828103825260278152602001806123476027913960400191505060405180910390fd5b6040805133606081901b602080840191909152835160148185030181526034840180865281519190920120600c54633cbf00a160e21b90925260388401879052603c605885015260ff607885015260988401819052426502de413530000160b88501819052600060d8860181905260f886018190526101188601819052610138860194909452945190936001600160a01b039092169263f2fc028492610158808201939182900301818387803b158015610e7657600080fd5b505af1158015610e8a573d6000803e3d6000fd5b505060018055505050505050565b6002546001600160a01b031690565b610eaf6116f5565b6002546001600160a01b03908116911614610eff576040805162461bcd60e51b81526020600482018190526024820152600080516020612327833981519152604482015290519081900360640190fd5b610f076118a2565b565b610f116116f5565b6002546001600160a01b03908116911614610f61576040805162461bcd60e51b81526020600482018190526024820152600080516020612327833981519152604482015290519081900360640190fd5b60026001541415610fa7576040805162461bcd60e51b815260206004820152601f602482015260008051602061228e833981519152604482015290519081900360640190fd5b6002600155600a5460408051632142170760e11b81523060048201526001600160a01b038581166024830152604482018590529151849392909216916342842e0e9160648082019260009290919082900301818387803b1580156105e357600080fd5b6110126116f5565b6002546001600160a01b03908116911614611062576040805162461bcd60e51b81526020600482018190526024820152600080516020612327833981519152604482015290519081900360640190fd5b610f0761194a565b6110726116f5565b6002546001600160a01b039081169116146110c2576040805162461bcd60e51b81526020600482018190526024820152600080516020612327833981519152604482015290519081900360640190fd5b6001600160a01b0381166111075760405162461bcd60e51b81526004018080602001828103825260268152602001806123016026913960400191505060405180910390fd5b600480546001600160a01b0319166001600160a01b0392909216919091179055565b6002600154141561116f576040805162461bcd60e51b815260206004820152601f602482015260008051602061228e833981519152604482015290519081900360640190fd5b6002600181905554600160a01b900460ff16156111c6576040805162461bcd60e51b815260206004820152601060248201526f14185d5cd8589b194e881c185d5cd95960821b604482015290519081900360640190fd5b826111cf6121a8565b6111d8856119d8565b90506111e261215c565b6111eb866116f9565b90506111f56121ec565b6111fe85611b34565b90506112086121ec565b6112158360600151611b34565b905061121f61221b565b61122d308560600151611beb565b805190915060ff166112705760405162461bcd60e51b815260040180806020018281038252603481526020018061236e6034913960400191505060405180910390fd5b876112ac5760405162461bcd60e51b815260040180806020018281038252602181526020018061226d6021913960400191505060405180910390fd5b61ffff8716611302576040805162461bcd60e51b815260206004820152601f60248201527f50523a523a417373657420636c6173732063616e6e6f74206265207a65726f00604482015290519081900360640190fd5b816020015161ffff16836020015161ffff1614806113265750606084015161ffff16155b6113615760405162461bcd60e51b81526004018080602001828103825260328152602001806123a26032913960400191505060405180910390fd5b836020015160ff16603c146113bd576040805162461bcd60e51b815260206004820152601860248201527f50523a523a4173736574206e6f74206469736361726465640000000000000000604482015290519081900360640190fd5b87845261010084015161ff3761ffff90911610156113e6576101008401805160010161ffff1690525b600854604080516354a19c2b60e01b815233600482015260248101899052606060448201526007606482015266707275662e696f60c81b608482015290516001600160a01b03909216916354a19c2b9160a4808201926020929091908290030181600087803b15801561145857600080fd5b505af115801561146c573d6000803e3d6000fd5b505050506040513d602081101561148257600080fd5b5050600480546040805162d649d560e31b81529283018c905261ffff8a166024840152516001600160a01b03909116916306b24ea891604480830192600092919082900301818387803b1580156114d857600080fd5b505af11580156114ec573d6000803e3d6000fd5b5050600c5460408051633a38454b60e21b8152600481018e905290516001600160a01b03909216935063e8e1152c925060248082019260009290919082900301818387803b15801561153d57600080fd5b505af1158015611551573d6000803e3d6000fd5b5050505061155f8985611c9a565b61156d878660e00151611d95565b50506001805550505050505050565b60008054604080516371d4ed8d60e11b81526001600160a01b0385811660048301529151919092169163e3a9db1a916024808301926020929190829003018186803b1580156115ca57600080fd5b505afa1580156115de573d6000803e3d6000fd5b505050506040513d60208110156115f457600080fd5b505192915050565b6116046116f5565b6002546001600160a01b03908116911614611654576040805162461bcd60e51b81526020600482018190526024820152600080516020612327833981519152604482015290519081900360640190fd5b6001600160a01b0381166116995760405162461bcd60e51b81526004018080602001828103825260268152602001806122ae6026913960400191505060405180910390fd5b6002546040516001600160a01b038084169216907f8be0079c531659141344cd1fd0a4f28419497f9722a3daafe3b4186f6b6457e090600090a3600280546001600160a01b0319166001600160a01b0392909216919091179055565b3390565b61170161215c565b61170961215c565b6000806000806000806000806000600460009054906101000a90046001600160a01b03166001600160a01b031663e248f2c48d6040518263ffffffff1660e01b81526004018082815260200191505061012060405180830381600087803b15801561177357600080fd5b505af1158015611787573d6000803e3d6000fd5b505050506040513d61012081101561179e57600080fd5b81019080805190602001909291908051906020019092919080519060200190929190805190602001909291908051906020019092919080519060200190929190805190602001909291908051906020019092919080519060200190929190505050985098509850985098509850985098509850888a6000018181525050878a6020019060ff16908160ff1681525050868a6040019060ff16908160ff1681525050858a6060019061ffff16908161ffff1681525050848a6080018181525050838a60a0018181525050828a60c0018181525050818a60e0018181525050808a610100019061ffff16908161ffff168152505050505050505050505080915050919050565b600254600160a01b900460ff166118f7576040805162461bcd60e51b815260206004820152601460248201527314185d5cd8589b194e881b9bdd081c185d5cd95960621b604482015290519081900360640190fd5b6002805460ff60a01b191690557f5db9ee0a495bf2e6ff9c91a7834c1ba4fdd244a5e8aa4e537bd38aeae4b073aa61192d6116f5565b604080516001600160a01b039092168252519081900360200190a1565b600254600160a01b900460ff161561199c576040805162461bcd60e51b815260206004820152601060248201526f14185d5cd8589b194e881c185d5cd95960821b604482015290519081900360640190fd5b6002805460ff60a01b1916600160a01b1790557f62e78cea01bee320cd4e420270b5ea74000d11b0c9f74754ebdbfc544b05a25861192d6116f5565b6119e06121a8565b6119e86121a8565b600c5460408051630a3b3fe560e41b81526004810186905290516001600160a01b039092169163a3b3fe5091602480820192610100929091908290030181600087803b158015611a3757600080fd5b505af1158015611a4b573d6000803e3d6000fd5b505050506040513d610100811015611a6257600080fd5b81019080805190602001909291908051906020019092919080519060200190929190805190602001909291908051906020019092919080519060200190929190805190602001909291908051906020019092919050505088600001896020018a6040018b6060018c6080018d60a0018e60c0018f60e001886001600160a01b03166001600160a01b0316815250886001600160a01b03166001600160a01b031681525088815250888152508881525088815250888152508860ff1660ff16815250505050505050505080915050919050565b611b3c6121ec565b611b446121ec565b60065460408051634b09ab8160e11b815261ffff8616600482015290516001600160a01b03909216916396135702916024808201926060929091908290030181600087803b158015611b9557600080fd5b505af1158015611ba9573d6000803e3d6000fd5b505050506040513d6060811015611bbf57600080fd5b508051602080830151604093840151606086015260ff169284019290925261ffff169082015292915050565b611bf361221b565b611bfb61221b565b6004805460408051634f3f9fb160e11b81526001600160a01b038881169482019490945261ffff8716602482015281519390921692639e7f3f629260448082019392918290030181600087803b158015611c5457600080fd5b505af1158015611c68573d6000803e3d6000fd5b505050506040513d6040811015611c7e57600080fd5b5080516020918201519183019190915260ff1681529392505050565b600254600160a01b900460ff1615611cec576040805162461bcd60e51b815260206004820152601060248201526f14185d5cd8589b194e881c185d5cd95960821b604482015290519081900360640190fd5b6004805482516020840151608085015160408087015161010088015182516302ee483d60e11b81529788018a9052602488019590955260ff938416604488015260648701929092529116608485015261ffff90911660a4840152516001600160a01b03909116916305dc907a9160c480830192600092919082900301818387803b158015611d7957600080fd5b505af1158015611d8d573d6000803e3d6000fd5b505050505050565b600254600160a01b900460ff1615611de7576040805162461bcd60e51b815260206004820152601060248201526f14185d5cd8589b194e881c185d5cd95960821b604482015290519081900360640190fd5b611def612232565b60065460408051631e54e15b60e21b815261ffff8616600482015290516001600160a01b0390921691637953856c916024808201926080929091908290030181600087803b158015611e4057600080fd5b505af1158015611e54573d6000803e3d6000fd5b505050506040513d6080811015611e6a57600080fd5b508051602080830151606093840151938501939093528301919091526001600160a01b03908116825282166040820152611ea381611ea8565b505050565b600254600160a01b900460ff1615611efa576040805162461bcd60e51b815260206004820152601060248201526f14185d5cd8589b194e881c185d5cd95960821b604482015290519081900360640190fd5b6060810151602082015134916000918291611f1b919063ffffffff611fb816565b905080341015611f72576040805162461bcd60e51b815260206004820152601860248201527f50433a44503a2054582076616c756520746f6f206c6f772e0000000000000000604482015290519081900360640190fd5b611f82838263ffffffff61201916565b9150611f968460000151856020015161205b565b611fa88460400151856060015161205b565b611fb2338361205b565b50505050565b600082820183811015612012576040805162461bcd60e51b815260206004820152601b60248201527f536166654d6174683a206164646974696f6e206f766572666c6f770000000000604482015290519081900360640190fd5b9392505050565b600061201283836040518060400160405280601e81526020017f536166654d6174683a207375627472616374696f6e206f766572666c6f7700008152506120c5565b600080546040805163f340fa0160e01b81526001600160a01b0386811660048301529151919092169263f340fa019285926024808301939282900301818588803b1580156120a857600080fd5b505af11580156120bc573d6000803e3d6000fd5b50505050505050565b600081848411156121545760405162461bcd60e51b81526004018080602001828103825283818151815260200191508051906020019080838360005b83811015612119578181015183820152602001612101565b50505050905090810190601f1680156121465780820380516001836020036101000a031916815260200191505b509250505060405180910390fd5b505050900390565b6040805161012081018252600080825260208201819052918101829052606081018290526080810182905260a0810182905260c0810182905260e0810182905261010081019190915290565b6040805161010081018252600080825260208201819052918101829052606081018290526080810182905260a0810182905260c0810182905260e081019190915290565b604051806080016040528060608152602001600061ffff168152602001600060ff168152602001600081525090565b604080518082019091526000808252602082015290565b604051806080016040528060006001600160a01b031681526020016000815260200160006001600160a01b0316815260200160008152509056fe50523a523a52696768747320686f6c6465722063616e6e6f74206265207a65726f5265656e7472616e637947756172643a207265656e7472616e742063616c6c004f776e61626c653a206e6577206f776e657220697320746865207a65726f206164647265737350523a52656379636c653a43616c6c6572206973206e6f7420417373657420546f6b656e20436f6e747261637450423a5353433a2073746f7261676520616464726573732063616e6e6f74206265207a65726f4f776e61626c653a2063616c6c6572206973206e6f7420746865206f776e657250523a52656379636c653a4d75737420626520696e2072656379636c61626c6520737461747573504e503a4d533a20436f6e7472616374206e6f7420617574686f72697a656420666f72207468697320617373657420636c61737350523a523a43616e6e6f742072652d63726561746520617373657420696e206e657720726f6f74206173736574436c617373a26469706673582212203561a5d944bc4a303e531cf5b11d8f8776fd6a5998016fb004a52ee6e7d4172064736f6c63430006090033608060405234801561001057600080fd5b5060006100246001600160e01b0361007316565b600080546001600160a01b0319166001600160a01b0383169081178255604051929350917f8be0079c531659141344cd1fd0a4f28419497f9722a3daafe3b4186f6b6457e0908290a350610077565b3390565b6106de806100866000396000f3fe6080604052600436106100555760003560e01c806351cff8d91461005a578063715018a61461008f5780638da5cb5b146100a4578063e3a9db1a146100d5578063f2fde38b1461011a578063f340fa011461014d575b600080fd5b34801561006657600080fd5b5061008d6004803603602081101561007d57600080fd5b50356001600160a01b0316610173565b005b34801561009b57600080fd5b5061008d61023c565b3480156100b057600080fd5b506100b96102de565b604080516001600160a01b039092168252519081900360200190f35b3480156100e157600080fd5b50610108600480360360208110156100f857600080fd5b50356001600160a01b03166102ed565b60408051918252519081900360200190f35b34801561012657600080fd5b5061008d6004803603602081101561013d57600080fd5b50356001600160a01b0316610308565b61008d6004803603602081101561016357600080fd5b50356001600160a01b0316610400565b61017b6104d9565b6000546001600160a01b039081169116146101cb576040805162461bcd60e51b81526020600482018190526024820152600080516020610689833981519152604482015290519081900360640190fd5b6001600160a01b03811660008181526001602052604081208054919055906101f9908263ffffffff6104dd16565b6040805182815290516001600160a01b038416917f7084f5476618d8e60b11ef0d7d3f06914655adb8793e28ff7f018d4c76d505d5919081900360200190a25050565b6102446104d9565b6000546001600160a01b03908116911614610294576040805162461bcd60e51b81526020600482018190526024820152600080516020610689833981519152604482015290519081900360640190fd5b600080546040516001600160a01b03909116907f8be0079c531659141344cd1fd0a4f28419497f9722a3daafe3b4186f6b6457e0908390a3600080546001600160a01b0319169055565b6000546001600160a01b031690565b6001600160a01b031660009081526001602052604090205490565b6103106104d9565b6000546001600160a01b03908116911614610360576040805162461bcd60e51b81526020600482018190526024820152600080516020610689833981519152604482015290519081900360640190fd5b6001600160a01b0381166103a55760405162461bcd60e51b81526004018080602001828103825260268152602001806106296026913960400191505060405180910390fd5b600080546040516001600160a01b03808516939216917f8be0079c531659141344cd1fd0a4f28419497f9722a3daafe3b4186f6b6457e091a3600080546001600160a01b0319166001600160a01b0392909216919091179055565b6104086104d9565b6000546001600160a01b03908116911614610458576040805162461bcd60e51b81526020600482018190526024820152600080516020610689833981519152604482015290519081900360640190fd5b6001600160a01b0381166000908152600160205260409020543490610483908263ffffffff6105c716565b6001600160a01b038316600081815260016020908152604091829020939093558051848152905191927f2da466a7b24304f47e87fa2e1e5a81b9831ce54fec19055ce277ca2f39ba42c492918290030190a25050565b3390565b80471015610532576040805162461bcd60e51b815260206004820152601d60248201527f416464726573733a20696e73756666696369656e742062616c616e6365000000604482015290519081900360640190fd5b6040516000906001600160a01b0384169083908381818185875af1925050503d806000811461057d576040519150601f19603f3d011682016040523d82523d6000602084013e610582565b606091505b50509050806105c25760405162461bcd60e51b815260040180806020018281038252603a81526020018061064f603a913960400191505060405180910390fd5b505050565b600082820183811015610621576040805162461bcd60e51b815260206004820152601b60248201527f536166654d6174683a206164646974696f6e206f766572666c6f770000000000604482015290519081900360640190fd5b939250505056fe4f776e61626c653a206e6577206f776e657220697320746865207a65726f2061646472657373416464726573733a20756e61626c6520746f2073656e642076616c75652c20726563697069656e74206d617920686176652072657665727465644f776e61626c653a2063616c6c6572206973206e6f7420746865206f776e6572a2646970667358221220a00d6aa6d96b7e14cf44ef151b801d41a0d6f22be9568d55aded0e5dc41900ac64736f6c63430006090033",
  "source": "/*-----------------------------------------------------------V0.6.7\r\n__/\\\\\\\\\\\\\\\\\\\\\\\\\\ _____/\\\\\\\\\\\\\\\\\\ _______/\\\\../\\\\ ___/\\\\\\\\\\\\\\\\\\\\\\\\\\\\\\\r\n _\\/\\\\\\/////////\\\\\\ _/\\\\\\///////\\\\\\ ____\\//..\\//____\\/\\\\\\///////////__\r\n  _\\/\\\\\\.......\\/\\\\\\.\\/\\\\\\.....\\/\\\\\\ ________________\\/\\\\\\ ____________\r\n   _\\/\\\\\\\\\\\\\\\\\\\\\\\\\\/__\\/\\\\\\\\\\\\\\\\\\\\\\/_____/\\\\\\____/\\\\\\.\\/\\\\\\\\\\\\\\\\\\\\\\ ____\r\n    _\\/\\\\\\/////////____\\/\\\\\\//////\\\\\\ ___\\/\\\\\\___\\/\\\\\\.\\/\\\\\\///////______\r\n     _\\/\\\\\\ ____________\\/\\\\\\ ___\\//\\\\\\ __\\/\\\\\\___\\/\\\\\\.\\/\\\\\\ ____________\r\n      _\\/\\\\\\ ____________\\/\\\\\\ ____\\//\\\\\\ _\\/\\\\\\___\\/\\\\\\.\\/\\\\\\ ____________\r\n       _\\/\\\\\\ ____________\\/\\\\\\ _____\\//\\\\\\.\\//\\\\\\\\\\\\\\\\\\ _\\/\\\\\\ ____________\r\n        _\\/// _____________\\/// _______\\/// __\\///////// __\\/// _____________\r\n         *-------------------------------------------------------------------*/\r\n\r\n/*-----------------------------------------------------------------\r\n *  TO DO\r\n *\r\n *---------------------------------------------------------------*/\r\n\r\n// SPDX-License-Identifier: UNLICENSED\r\npragma solidity ^0.6.7;\r\n\r\nimport \"./PRUF_ECR_CORE.sol\";\r\nimport \"./PRUF_CORE.sol\";\r\n\r\ncontract RCLR is ECR_CORE, CORE {\r\n    using SafeMath for uint256;\r\n\r\n    //--------------------------------------------External Functions--------------------------\r\n\r\n    /*\r\n     * @dev //gets item out of recycled status -- caller is assetToken contract\r\n     */\r\n    function discard(bytes32 _idxHash) external nonReentrant whenNotPaused {\r\n        Record memory rec = getRecord(_idxHash);\r\n\r\n        require( // caller is assetToken contract\r\n            msg.sender == AssetTokenAddress,\r\n            \"PR:Recycle:Caller is not Asset Token Contract\"\r\n        );\r\n\r\n        require((rec.rightsHolder != 0), \"SE: Record does not exist\");\r\n        require(\r\n            (rec.assetStatus == 59),\r\n            \"PR:Recycle:Must be in recyclable status\"\r\n        );\r\n\r\n        //^^^^^^^checks^^^^^^^^^\r\n\r\n        uint256 escrowTime = now + 3153600000000; //100,000 years in the FUTURE.........\r\n        bytes32 escrowOwnerHash = keccak256(abi.encodePacked(msg.sender));\r\n        //^^^^^^^effects^^^^^^^^^\r\n\r\n        escrowMGRcontract.setEscrow(\r\n            _idxHash,\r\n            60, //recycled status\r\n            255, //escrow data 255 is recycled\r\n            escrowOwnerHash,\r\n            escrowTime,\r\n            0x0,\r\n            0x0,\r\n            address(0),\r\n            msg.sender\r\n        );\r\n        //^^^^^^^interactions^^^^^^^^^\r\n    }\r\n\r\n    /*\r\n     * @dev reutilize a recycled asset\r\n     */\r\n    function $recycle(\r\n        bytes32 _idxHash,\r\n        bytes32 _rgtHash,\r\n        uint16 _assetClass\r\n    ) external payable nonReentrant whenNotPaused {\r\n        //bytes32 senderHash = keccak256(abi.encodePacked(msg.sender));\r\n        uint256 tokenId = uint256(_idxHash);\r\n        escrowData memory escrow = getEscrowData(_idxHash);\r\n        Record memory rec = getRecord(_idxHash);\r\n        AC memory AC_info = getACinfo(_assetClass);\r\n        AC memory oldAC_info = getACinfo(rec.assetClass);\r\n        ContractDataHash memory contractInfo = getContractInfo(address(this),rec.assetClass);\r\n\r\n        require(\r\n            contractInfo.contractType > 0,\r\n            \"PNP:MS: Contract not authorized for this asset class\"\r\n        );\r\n        require(_rgtHash != 0, \"PR:R:Rights holder cannot be zero\");\r\n        require(_assetClass != 0, \"PR:R:Asset class cannot be zero\");\r\n        require( //if creating new record in new root and idxhash is identical, fail because its probably fraud\r\n            ((AC_info.assetClassRoot == oldAC_info.assetClassRoot) ||\r\n                (rec.assetClass == 0)),\r\n            \"PR:R:Cannot re-create asset in new root assetClass\"\r\n        );\r\n        require(rec.assetStatus == 60, \"PR:R:Asset not discarded\");\r\n        //^^^^^^^checks^^^^^^^^^\r\n\r\n        rec.rightsHolder = _rgtHash;\r\n        if (rec.numberOfTransfers < 65335) {\r\n            rec.numberOfTransfers++;\r\n        }\r\n        //^^^^^^^effects^^^^^^^^^^^^\r\n\r\n        AssetTokenContract.mintAssetToken(msg.sender, tokenId, \"pruf.io\");\r\n        Storage.changeAC(_idxHash, _assetClass);\r\n        escrowMGRcontract.endEscrow(_idxHash);\r\n        writeRecord(_idxHash, rec);\r\n        deductRecycleCosts(_assetClass, escrow.addr2);\r\n        //^^^^^^^interactions^^^^^^^^^^^^\r\n    }\r\n}\r\n",
  "sourcePath": "C:\\Users\\Blayde\\Documents\\ETHDEV\\bulletproof\\PRUF_TRUFFLE\\contracts\\PRUF_RCLR.sol",
  "compiler": {
    "name": "solc",
    "version": "0.6.9+commit.3e3065ac.Emscripten.clang"
  },
  "schemaVersion": "3.0.23",
  "updatedAt": "2020-08-03T20:49:50.732Z",
  "devdoc": {
    "methods": {
      "OO_pause()": {
        "details": "Triggers stopped state."
      },
      "OO_unpause()": {
        "details": "Returns to normal state."
      },
      "owner()": {
        "details": "Returns the address of the current owner."
      },
      "paused()": {
        "details": "Returns true if the contract is paused, and false otherwise."
      },
      "payments(address)": {
        "details": "Returns the payments owed to an address.",
        "params": {
          "dest": "The creditor's address."
        }
      },
      "renounceOwnership()": {
        "details": "Leaves the contract without owner. It will not be possible to call `onlyOwner` functions anymore. Can only be called by the current owner. NOTE: Renouncing ownership will leave the contract without an owner, thereby removing any functionality that is only available to the owner."
      },
      "transferOwnership(address)": {
        "details": "Transfers ownership of the contract to a new account (`newOwner`). Can only be called by the current owner."
      },
      "withdrawPayments(address)": {
        "details": "Withdraw accumulated payments, forwarding all gas to the recipient. Note that _any_ account can call this function, not just the `payee`. This means that contracts unaware of the `PullPayment` protocol can still receive funds this way, by having a separate account call {withdrawPayments}. WARNING: Forwarding all gas opens the door to reentrancy vulnerabilities. Make sure you trust the recipient, or are either following the checks-effects-interactions pattern or using {ReentrancyGuard}.",
        "params": {
          "payee": "Whose payments will be withdrawn."
        }
      }
    }
  },
  "userdoc": {
    "methods": {}
  }
}