{
  "contractName": "RCLR",
  "abi": [
    {
      "anonymous": false,
      "inputs": [
        {
          "indexed": false,
          "internalType": "address",
          "name": "account",
          "type": "address"
        }
      ],
      "name": "Paused",
      "type": "event"
    },
    {
      "anonymous": false,
      "inputs": [
        {
          "indexed": false,
          "internalType": "string",
          "name": "_msg",
          "type": "string"
        }
      ],
      "name": "REPORT",
      "type": "event"
    },
    {
      "anonymous": false,
      "inputs": [
        {
          "indexed": true,
          "internalType": "bytes32",
          "name": "role",
          "type": "bytes32"
        },
        {
          "indexed": true,
          "internalType": "bytes32",
          "name": "previousAdminRole",
          "type": "bytes32"
        },
        {
          "indexed": true,
          "internalType": "bytes32",
          "name": "newAdminRole",
          "type": "bytes32"
        }
      ],
      "name": "RoleAdminChanged",
      "type": "event"
    },
    {
      "anonymous": false,
      "inputs": [
        {
          "indexed": true,
          "internalType": "bytes32",
          "name": "role",
          "type": "bytes32"
        },
        {
          "indexed": true,
          "internalType": "address",
          "name": "account",
          "type": "address"
        },
        {
          "indexed": true,
          "internalType": "address",
          "name": "sender",
          "type": "address"
        }
      ],
      "name": "RoleGranted",
      "type": "event"
    },
    {
      "anonymous": false,
      "inputs": [
        {
          "indexed": true,
          "internalType": "bytes32",
          "name": "role",
          "type": "bytes32"
        },
        {
          "indexed": true,
          "internalType": "address",
          "name": "account",
          "type": "address"
        },
        {
          "indexed": true,
          "internalType": "address",
          "name": "sender",
          "type": "address"
        }
      ],
      "name": "RoleRevoked",
      "type": "event"
    },
    {
      "anonymous": false,
      "inputs": [
        {
          "indexed": false,
          "internalType": "address",
          "name": "account",
          "type": "address"
        }
      ],
      "name": "Unpaused",
      "type": "event"
    },
    {
      "inputs": [],
      "name": "ASSET_TXFR_ROLE",
      "outputs": [
        {
          "internalType": "bytes32",
          "name": "",
          "type": "bytes32"
        }
      ],
      "stateMutability": "view",
      "type": "function"
    },
    {
      "inputs": [],
      "name": "CONTRACT_ADMIN_ROLE",
      "outputs": [
        {
          "internalType": "bytes32",
          "name": "",
          "type": "bytes32"
        }
      ],
      "stateMutability": "view",
      "type": "function"
    },
    {
      "inputs": [],
      "name": "DAO_ROLE",
      "outputs": [
        {
          "internalType": "bytes32",
          "name": "",
          "type": "bytes32"
        }
      ],
      "stateMutability": "view",
      "type": "function"
    },
    {
      "inputs": [],
      "name": "DEFAULT_ADMIN_ROLE",
      "outputs": [
        {
          "internalType": "bytes32",
          "name": "",
          "type": "bytes32"
        }
      ],
      "stateMutability": "view",
      "type": "function"
    },
    {
      "inputs": [],
      "name": "DISCARD_ROLE",
      "outputs": [
        {
          "internalType": "bytes32",
          "name": "",
          "type": "bytes32"
        }
      ],
      "stateMutability": "view",
      "type": "function"
    },
    {
      "inputs": [
        {
          "internalType": "address",
          "name": "_tokenContract",
          "type": "address"
        },
        {
          "internalType": "address",
          "name": "_to",
          "type": "address"
        },
        {
          "internalType": "uint256",
          "name": "_amount",
          "type": "uint256"
        }
      ],
      "name": "ERC20Transfer",
      "outputs": [],
      "stateMutability": "nonpayable",
      "type": "function"
    },
    {
      "inputs": [
        {
          "internalType": "address",
          "name": "_tokenContract",
          "type": "address"
        },
        {
          "internalType": "address",
          "name": "_to",
          "type": "address"
        },
        {
          "internalType": "uint256",
          "name": "_tokenID",
          "type": "uint256"
        }
      ],
      "name": "ERC721Transfer",
      "outputs": [],
      "stateMutability": "nonpayable",
      "type": "function"
    },
    {
      "inputs": [],
      "name": "PAUSER_ROLE",
      "outputs": [
        {
          "internalType": "bytes32",
          "name": "",
          "type": "bytes32"
        }
      ],
      "stateMutability": "view",
      "type": "function"
    },
    {
      "inputs": [
        {
          "internalType": "bytes32",
          "name": "role",
          "type": "bytes32"
        }
      ],
      "name": "getRoleAdmin",
      "outputs": [
        {
          "internalType": "bytes32",
          "name": "",
          "type": "bytes32"
        }
      ],
      "stateMutability": "view",
      "type": "function"
    },
    {
      "inputs": [
        {
          "internalType": "bytes32",
          "name": "role",
          "type": "bytes32"
        },
        {
          "internalType": "address",
          "name": "account",
          "type": "address"
        }
      ],
      "name": "grantRole",
      "outputs": [],
      "stateMutability": "nonpayable",
      "type": "function"
    },
    {
      "inputs": [
        {
          "internalType": "bytes32",
          "name": "role",
          "type": "bytes32"
        },
        {
          "internalType": "address",
          "name": "account",
          "type": "address"
        }
      ],
      "name": "hasRole",
      "outputs": [
        {
          "internalType": "bool",
          "name": "",
          "type": "bool"
        }
      ],
      "stateMutability": "view",
      "type": "function"
    },
    {
      "inputs": [
        {
          "internalType": "address",
          "name": "",
          "type": "address"
        },
        {
          "internalType": "address",
          "name": "",
          "type": "address"
        },
        {
          "internalType": "uint256",
          "name": "",
          "type": "uint256"
        },
        {
          "internalType": "bytes",
          "name": "",
          "type": "bytes"
        }
      ],
      "name": "onERC721Received",
      "outputs": [
        {
          "internalType": "bytes4",
          "name": "",
          "type": "bytes4"
        }
      ],
      "stateMutability": "nonpayable",
      "type": "function"
    },
    {
      "inputs": [],
      "name": "pause",
      "outputs": [],
      "stateMutability": "nonpayable",
      "type": "function"
    },
    {
      "inputs": [],
      "name": "paused",
      "outputs": [
        {
          "internalType": "bool",
          "name": "",
          "type": "bool"
        }
      ],
      "stateMutability": "view",
      "type": "function"
    },
    {
      "inputs": [
        {
          "internalType": "bytes32",
          "name": "role",
          "type": "bytes32"
        },
        {
          "internalType": "address",
          "name": "account",
          "type": "address"
        }
      ],
      "name": "renounceRole",
      "outputs": [],
      "stateMutability": "nonpayable",
      "type": "function"
    },
    {
      "inputs": [],
      "name": "resolveContractAddresses",
      "outputs": [],
      "stateMutability": "nonpayable",
      "type": "function"
    },
    {
      "inputs": [
        {
          "internalType": "bytes32",
          "name": "role",
          "type": "bytes32"
        },
        {
          "internalType": "address",
          "name": "account",
          "type": "address"
        }
      ],
      "name": "revokeRole",
      "outputs": [],
      "stateMutability": "nonpayable",
      "type": "function"
    },
    {
      "inputs": [
        {
          "internalType": "address",
          "name": "_storageAddress",
          "type": "address"
        }
      ],
      "name": "setStorageContract",
      "outputs": [],
      "stateMutability": "nonpayable",
      "type": "function"
    },
    {
      "inputs": [
        {
          "internalType": "bytes4",
          "name": "interfaceId",
          "type": "bytes4"
        }
      ],
      "name": "supportsInterface",
      "outputs": [
        {
          "internalType": "bool",
          "name": "",
          "type": "bool"
        }
      ],
      "stateMutability": "view",
      "type": "function"
    },
    {
      "inputs": [],
      "name": "unpause",
      "outputs": [],
      "stateMutability": "nonpayable",
      "type": "function"
    },
    {
      "inputs": [
        {
          "internalType": "bytes32",
          "name": "_idxHash",
          "type": "bytes32"
        },
        {
          "internalType": "address",
          "name": "_sender",
          "type": "address"
        }
      ],
      "name": "discard",
      "outputs": [],
      "stateMutability": "nonpayable",
      "type": "function"
    },
    {
      "inputs": [
        {
          "internalType": "bytes32",
          "name": "_idxHash",
          "type": "bytes32"
        },
        {
          "internalType": "bytes32",
          "name": "_rgtHash",
          "type": "bytes32"
        },
        {
          "internalType": "string",
          "name": "_URIsuffix",
          "type": "string"
        }
      ],
      "name": "recycle",
      "outputs": [],
      "stateMutability": "nonpayable",
      "type": "function"
    }
  ],
  "bytecode": "0x60806040523480156200001157600080fd5b50600160009081556002805460ff191690556200002f90336200008d565b6200005b7f2ce8d04a9c35987429af538825cd2438cc5c5bb5dc427955f84daaa3ea105016336200008d565b620000877f65d7a28e3265b37a6474929f336521b332c1681b933f6cb9f3376673440d862a336200008d565b62000125565b6200009982826200009d565b5050565b60008281526001602090815260408083206001600160a01b038516845290915290205460ff16620000995760008281526001602081815260408084206001600160a01b0386168086529252808420805460ff19169093179092559051339285917f2f8788117e7eff1d82e926ec794901d17c78024a50270940304540a733656f0d9190a45050565b61254e80620001356000396000f3fe608060405234801561001057600080fd5b50600436106101425760003560e01c80638456cb59116100b8578063dc38b0a21161007c578063dc38b0a2146102e5578063e59fdd36146102f8578063e5f815dc1461030b578063e63ab1e91461031e578063e9c2651814610345578063ee9c25c51461036c57600080fd5b80638456cb591461029c57806391d14854146102a4578063a217fddf146102b7578063c4567714146102bf578063d547741f146102d257600080fd5b8063248a9ca31161010a578063248a9ca3146102185780632f2ff15d1461023c57806336568abe1461024f5780633f4ba83a1461026257806343ccc3381461026a5780635c975abb1461029157600080fd5b806301ffc9a7146101475780630f2d2c8c1461016f5780631429db5f14610184578063150b7a02146101b95780631da03312146101f1575b600080fd5b61015a610155366004611ec0565b610374565b60405190151581526020015b60405180910390f35b61018261017d366004611e18565b6103ab565b005b6101ab7f7f1e4e9f3d9ba0452a25cfef4cd4c6ffc86158d06ed2f585fa0093e12dec429c81565b604051908152602001610166565b6101d86101c7366004611d0e565b630a85bd0160e11b95945050505050565b6040516001600160e01b03199091168152602001610166565b6101ab7f2ce8d04a9c35987429af538825cd2438cc5c5bb5dc427955f84daaa3ea10501681565b6101ab610226366004611dcf565b6000908152600160208190526040909120015490565b61018261024a366004611de8565b6105e3565b61018261025d366004611de8565b61060f565b61018261068d565b6101ab7fbed75b8d27ed9153be88a4b503b3835ac34bdc744c3ed7039f660434e2b1f16281565b60025460ff1661015a565b6101826106dd565b61015a6102b2366004611de8565b61072b565b6101ab600081565b6101826102cd366004611de8565b610756565b6101826102e0366004611de8565b61090f565b6101826102f3366004611c93565b610936565b610182610306366004611ccd565b6109e9565b610182610319366004611ccd565b610aea565b6101ab7f65d7a28e3265b37a6474929f336521b332c1681b933f6cb9f3376673440d862a81565b6101ab7f3b5d4cc60d3ec3516ee8ae083bd60934f6eb2a6c54b1229985c41bfb092b260381565b610182610bca565b60006001600160e01b03198216637965db0b60e01b14806103a557506301ffc9a760e01b6001600160e01b03198316145b92915050565b600260005414156103d75760405162461bcd60e51b81526004016103ce90612379565b60405180910390fd5b60026000556103e860025460ff1690565b156104055760405162461bcd60e51b81526004016103ce9061234f565b826000610411826112ad565b9050600061041e8661133a565b90508461046d5760405162461bcd60e51b815260206004820152601d60248201527f523a523a204e65772072696768747320686f6c646572203d207a65726f00000060448201526064016103ce565b806000015160ff16603c146104c45760405162461bcd60e51b815260206004820152601860248201527f523a523a204173736574206e6f7420646973636172646564000000000000000060448201526064016103ce565b610160810185905260aa6040820152600b546001600160a01b03166354a19c2b3385876040518463ffffffff1660e01b8152600401610505939291906121a8565b602060405180830381600087803b15801561051f57600080fd5b505af1158015610533573d6000803e3d6000fd5b505050506040513d601f19601f8201168201806040525081019061055791906120ee565b50600f54604051633a38454b60e21b8152600481018890526001600160a01b039091169063e8e1152c90602401600060405180830381600087803b15801561059e57600080fd5b505af11580156105b2573d6000803e3d6000fd5b505050506105c881606001518360e00151611419565b603a81526105d68682611544565b5050600160005550505050565b600082815260016020819052604090912001546106008133611620565b61060a8383611684565b505050565b6001600160a01b038116331461067f5760405162461bcd60e51b815260206004820152602f60248201527f416363657373436f6e74726f6c3a2063616e206f6e6c792072656e6f756e636560448201526e103937b632b9903337b91039b2b63360891b60648201526084016103ce565b61068982826116ef565b5050565b6106b77f65d7a28e3265b37a6474929f336521b332c1681b933f6cb9f3376673440d862a3361072b565b6106d35760405162461bcd60e51b81526004016103ce90612309565b6106db611756565b565b6107077f65d7a28e3265b37a6474929f336521b332c1681b933f6cb9f3376673440d862a3361072b565b6107235760405162461bcd60e51b81526004016103ce90612309565b6106db6117e9565b60009182526001602090815260408084206001600160a01b0393909316845291905290205460ff1690565b600260005414156107795760405162461bcd60e51b81526004016103ce90612379565b600260005561078a60025460ff1690565b156107a75760405162461bcd60e51b81526004016103ce9061234f565b60006107b28361133a565b90506107de7fbed75b8d27ed9153be88a4b503b3835ac34bdc744c3ed7039f660434e2b1f1623361072b565b6108395760405162461bcd60e51b815260206004820152602660248201527f523a443a2043616c6c657220646f6573206e6f74206861766520444953434152604482015265445f524f4c4560d01b60648201526084016103ce565b806000015160ff16603b146108905760405162461bcd60e51b815260206004820181905260248201527f523a443a2041737365742021696e2072656379636c61626c652073746174757360448201526064016103ce565b60006108a142640757b12c0061240b565b6040516bffffffffffffffffffffffff193360601b1660208201529091506000906034016040516020818303038152906040528051906020012090506108e5611c13565b60ff81526001600160a01b03851660e082015261090586603c8486611841565b6105d686826118df565b6000828152600160208190526040909120015461092c8133611620565b61060a83836116ef565b6109607f2ce8d04a9c35987429af538825cd2438cc5c5bb5dc427955f84daaa3ea1050163361072b565b61097c5760405162461bcd60e51b81526004016103ce9061227f565b6001600160a01b0381166109c75760405162461bcd60e51b81526020600482015260126024820152710423a5353433a2041646472657373203d20360741b60448201526064016103ce565b600380546001600160a01b0319166001600160a01b0392909216919091179055565b610a137f7f1e4e9f3d9ba0452a25cfef4cd4c6ffc86158d06ed2f585fa0093e12dec429c3361072b565b610a2f5760405162461bcd60e51b81526004016103ce906122c6565b60026000541415610a525760405162461bcd60e51b81526004016103ce90612379565b60026000556040516323b872dd60e01b81523060048201526001600160a01b038381166024830152604482018390528416906323b872dd90606401602060405180830381600087803b158015610aa757600080fd5b505af1158015610abb573d6000803e3d6000fd5b505050506040513d601f19601f82011682018060405250810190610adf9190611dad565b505060016000555050565b610b147f7f1e4e9f3d9ba0452a25cfef4cd4c6ffc86158d06ed2f585fa0093e12dec429c3361072b565b610b305760405162461bcd60e51b81526004016103ce906122c6565b60026000541415610b535760405162461bcd60e51b81526004016103ce90612379565b6002600055604051632142170760e11b81523060048201526001600160a01b038381166024830152604482018390528416906342842e0e90606401600060405180830381600087803b158015610ba857600080fd5b505af1158015610bbc573d6000803e3d6000fd5b505060016000555050505050565b60026000541415610bed5760405162461bcd60e51b81526004016103ce90612379565b6002600055610c1c7f2ce8d04a9c35987429af538825cd2438cc5c5bb5dc427955f84daaa3ea1050163361072b565b610c385760405162461bcd60e51b81526004016103ce9061227f565b6003546040516363b8d4c160e11b81526020600482015260086024820152672727a222afaa25a760c11b60448201526001600160a01b039091169063c771a9829060640160206040518083038186803b158015610c9457600080fd5b505afa158015610ca8573d6000803e3d6000fd5b505050506040513d601f19601f82011682018060405250810190610ccc9190611cb0565b600c80546001600160a01b039283166001600160a01b03199182168117909255600d805490911690911790556003546040516363b8d4c160e11b81526020600482015260086024820152672727a222afa6a3a960c11b604482015291169063c771a9829060640160206040518083038186803b158015610d4b57600080fd5b505afa158015610d5f573d6000803e3d6000fd5b505050506040513d601f19601f82011682018060405250810190610d839190611cb0565b600480546001600160a01b039283166001600160a01b031991821681178355600580549092161790556003546040516363b8d4c160e11b815292169163c771a98291610ded91016020808252600990820152682727a222afa9aa27a960b91b604082015260600190565b60206040518083038186803b158015610e0557600080fd5b505afa158015610e19573d6000803e3d6000fd5b505050506040513d601f19601f82011682018060405250810190610e3d9190611cb0565b600680546001600160a01b039283166001600160a01b031991821681179092556007805490911690911790556003546040516363b8d4c160e11b81526020600482015260086024820152672aaa24a62faa25a760c11b604482015291169063c771a9829060640160206040518083038186803b158015610ebc57600080fd5b505afa158015610ed0573d6000803e3d6000fd5b505050506040513d601f19601f82011682018060405250810190610ef49190611cb0565b600880546001600160a01b039283166001600160a01b031991821681179092556009805490911690911790556003546040516363b8d4c160e11b815260206004820152600560248201526420afaa25a760d91b604482015291169063c771a9829060640160206040518083038186803b158015610f7057600080fd5b505afa158015610f84573d6000803e3d6000fd5b505050506040513d601f19601f82011682018060405250810190610fa89190611cb0565b600a80546001600160a01b039283166001600160a01b03199182168117909255600b805490911690911790556003546040516363b8d4c160e11b815260206004820152600760248201526622a1a92fa6a3a960c91b604482015291169063c771a9829060640160206040518083038186803b15801561102657600080fd5b505afa15801561103a573d6000803e3d6000fd5b505050506040513d601f19601f8201168201806040525081019061105e9190611cb0565b600e80546001600160a01b039283166001600160a01b03199182168117909255600f805490911690911790556003546040516363b8d4c160e11b815291169063c771a982906110c79060040160208082526003908201526204150560ec1b604082015260600190565b60206040518083038186803b1580156110df57600080fd5b505afa1580156110f3573d6000803e3d6000fd5b505050506040513d601f19601f820116820180604052508101906111179190611cb0565b601280546001600160a01b039283166001600160a01b031991821681179092556013805490911690911790556003546040516363b8d4c160e11b815291169063c771a98290611181906004016020808252600490820152632921a62960e11b604082015260600190565b60206040518083038186803b15801561119957600080fd5b505afa1580156111ad573d6000803e3d6000fd5b505050506040513d601f19601f820116820180604052508101906111d19190611cb0565b601080546001600160a01b039283166001600160a01b031991821681179092556011805490911690911790556003546040516363b8d4c160e11b81526020600482015260066024820152654150505f4e4360d01b604482015291169063c771a9829060640160206040518083038186803b15801561124e57600080fd5b505afa158015611262573d6000803e3d6000fd5b505050506040513d601f19601f820116820180604052508101906112869190611cb0565b601480546001600160a01b0319166001600160a01b03929092169190911790556001600055565b6112b5611c13565b600f546040516375855a5b60e01b8152600481018490526000916001600160a01b0316906375855a5b906024016101006040518083038186803b1580156112fb57600080fd5b505afa15801561130f573d6000803e3d6000fd5b505050506040513d601f19601f820116820180604052508101906113339190612023565b9392505050565b6040805161018081018252600080825260208201819052918101829052606081018290526080810182905260a0810182905260c0810182905260e081018290526101008101829052610120810182905261014081018290526101608101919091526003546040516338923cb160e21b8152600481018490526000916001600160a01b03169063e248f2c4906024016101806040518083038186803b1580156113e157600080fd5b505afa1580156113f5573d6000803e3d6000fd5b505050506040513d601f19601f820116820180604052508101906113339190611f5f565b60025460ff161561143c5760405162461bcd60e51b81526004016103ce9061234f565b604080516080810182526000808252602082018190529181018290526060810191909152600754604051638f44e52560e01b815263ffffffff85166004820152600160248201526000916001600160a01b031690638f44e5259060440160806040518083038186803b1580156114b157600080fd5b505afa1580156114c5573d6000803e3d6000fd5b505050506040513d601f19601f820116820180604052508101906114e99190611eea565b6001600160a01b0384168152606081015190925061150990600290612423565b905080826040015161151b919061240b565b60408301526060820151611530908290612464565b606083015261153e82611934565b50505050565b60025460ff16156115675760405162461bcd60e51b81526004016103ce9061234f565b6003546101608201518251608084015160a085015160208601516040808801519051631e21309760e11b8152600481018a9052602481019690965260ff948516604487015263ffffffff93841660648701529290911660848501529190911660a483015261ffff1660c48201526001600160a01b0390911690633c42612e9060e4015b600060405180830381600087803b15801561160457600080fd5b505af1158015611618573d6000803e3d6000fd5b505050505050565b61162a828261072b565b61068957611642816001600160a01b03166014611a77565b61164d836020611a77565b60405160200161165e929190612133565b60408051601f198184030181529082905262461bcd60e51b82526103ce9160040161226c565b61168e828261072b565b6106895760008281526001602081815260408084206001600160a01b0386168086529252808420805460ff19169093179092559051339285917f2f8788117e7eff1d82e926ec794901d17c78024a50270940304540a733656f0d9190a45050565b6116f9828261072b565b156106895760008281526001602090815260408083206001600160a01b0385168085529252808320805460ff1916905551339285917ff6391f5c32d9c69d2a47ea670b442974b53935d1edc7fd64eb21e047a839171b9190a45050565b60025460ff1661179f5760405162461bcd60e51b815260206004820152601460248201527314185d5cd8589b194e881b9bdd081c185d5cd95960621b60448201526064016103ce565b6002805460ff191690557f5db9ee0a495bf2e6ff9c91a7834c1ba4fdd244a5e8aa4e537bd38aeae4b073aa335b6040516001600160a01b03909116815260200160405180910390a1565b60025460ff161561180c5760405162461bcd60e51b81526004016103ce9061234f565b6002805460ff191660011790557f62e78cea01bee320cd4e420270b5ea74000d11b0c9f74754ebdbfc544b05a2586117cc3390565b60025460ff16156118645760405162461bcd60e51b81526004016103ce9061234f565b600f54604051637318462b60e11b81526004810186905260ff8516602482015260448101849052606481018390526001600160a01b039091169063e6308c5690608401600060405180830381600087803b1580156118c157600080fd5b505af11580156118d5573d6000803e3d6000fd5b5050505050505050565b60025460ff16156119025760405162461bcd60e51b81526004016103ce9061234f565b600f5460405163826cdff960e01b81526001600160a01b039091169063826cdff9906115ea90859085906004016121d8565b60025460ff16156119575760405162461bcd60e51b81526004016103ce9061234f565b80516001600160a01b03166119c05760405162461bcd60e51b815260206004820152602960248201527f433a44503a20726f6f74207061796d656e742061646472657373203d207a65726044820152686f206164647265737360b81b60648201526084016103ce565b60208101516001600160a01b03166119e35780516001600160a01b031660208201525b6009548151604080840151602085015160608601518351631cc1e17360e31b81523360048201526001600160a01b0395861660248201526044810193909352908416606483015260848201529051919092169163e60f0b989160a480830192600092919082900301818387803b158015611a5c57600080fd5b505af1158015611a70573d6000803e3d6000fd5b5050505050565b60606000611a86836002612445565b611a9190600261240b565b67ffffffffffffffff811115611aa957611aa96124ea565b6040519080825280601f01601f191660200182016040528015611ad3576020820181803683370190505b509050600360fc1b81600081518110611aee57611aee6124d4565b60200101906001600160f81b031916908160001a905350600f60fb1b81600181518110611b1d57611b1d6124d4565b60200101906001600160f81b031916908160001a9053506000611b41846002612445565b611b4c90600161240b565b90505b6001811115611bc4576f181899199a1a9b1b9c1cb0b131b232b360811b85600f1660108110611b8057611b806124d4565b1a60f81b828281518110611b9657611b966124d4565b60200101906001600160f81b031916908160001a90535060049490941c93611bbd816124a7565b9050611b4f565b5083156113335760405162461bcd60e51b815260206004820181905260248201527f537472696e67733a20686578206c656e67746820696e73756666696369656e7460448201526064016103ce565b6040805161010081018252600080825260208201819052918101829052606081018290526080810182905260a0810182905260c0810182905260e081019190915290565b805161ffff81168114611c6957600080fd5b919050565b805163ffffffff81168114611c6957600080fd5b805160ff81168114611c6957600080fd5b600060208284031215611ca557600080fd5b813561133381612500565b600060208284031215611cc257600080fd5b815161133381612500565b600080600060608486031215611ce257600080fd5b8335611ced81612500565b92506020840135611cfd81612500565b929592945050506040919091013590565b600080600080600060808688031215611d2657600080fd5b8535611d3181612500565b94506020860135611d4181612500565b935060408601359250606086013567ffffffffffffffff80821115611d6557600080fd5b818801915088601f830112611d7957600080fd5b813581811115611d8857600080fd5b896020828501011115611d9a57600080fd5b9699959850939650602001949392505050565b600060208284031215611dbf57600080fd5b8151801515811461133357600080fd5b600060208284031215611de157600080fd5b5035919050565b60008060408385031215611dfb57600080fd5b823591506020830135611e0d81612500565b809150509250929050565b600080600060608486031215611e2d57600080fd5b833592506020808501359250604085013567ffffffffffffffff80821115611e5457600080fd5b818701915087601f830112611e6857600080fd5b813581811115611e7a57611e7a6124ea565b611e8c601f8201601f191685016123da565b91508082528884828501011115611ea257600080fd5b80848401858401376000848284010152508093505050509250925092565b600060208284031215611ed257600080fd5b81356001600160e01b03198116811461133357600080fd5b600060808284031215611efc57600080fd5b6040516080810181811067ffffffffffffffff82111715611f1f57611f1f6124ea565b6040528251611f2d81612500565b81526020830151611f3d81612500565b6020820152604083810151908201526060928301519281019290925250919050565b60006101808284031215611f7257600080fd5b611f7a6123b0565b611f8383611c82565b8152611f9160208401611c82565b6020820152611fa260408401611c57565b6040820152611fb360608401611c6e565b6060820152611fc460808401611c6e565b6080820152611fd560a08401611c6e565b60a082015260c0838101519082015260e08084015190820152610100808401519082015261012080840151908201526101408084015190820152610160928301519281019290925250919050565b600061010080838503121561203757600080fd5b6040519081019067ffffffffffffffff8211818310171561205a5761205a6124ea565b8160405261206784611c82565b815261207560208501611c82565b602082015261208660408501611c82565b604082015261209760608501611c82565b60608201526120a860808501611c57565b60808201526120b960a08501611c57565b60a08201526120ca60c08501611c6e565b60c082015260e084015191506120df82612500565b60e08101919091529392505050565b60006020828403121561210057600080fd5b5051919050565b6000815180845261211f81602086016020860161247b565b601f01601f19169290920160200192915050565b7f416363657373436f6e74726f6c3a206163636f756e742000000000000000000081526000835161216b81601785016020880161247b565b7001034b99036b4b9b9b4b733903937b6329607d1b601791840191820152835161219c81602884016020880161247b565b01602801949350505050565b60018060a01b03841681528260208201526060604082015260006121cf6060830184612107565b95945050505050565b60006101208201905083825260ff835116602083015260ff602084015116604083015260ff6040840151166060830152606083015161221c608084018260ff169052565b50608083015161ffff811660a08401525060a083015161ffff811660c08401525060c083015163ffffffff811660e08401525060e08301516001600160a01b038116610100840152509392505050565b6020815260006113336020830184612107565b60208082526027908201527f423a4d4f443a2d4941444d2043616c6c65722021434f4e54524143545f41444d604082015266494e5f524f4c4560c81b606082015260800190565b60208082526023908201527f423a4d4f443a2d4941444d2043616c6c6572202141535345545f545846525f526040820152624f4c4560e81b606082015260800190565b60208082526026908201527f423a4d4f442d49503a43616c6c696e672061646472657373206973206e6f74206040820152653830bab9b2b960d11b606082015260800190565b60208082526010908201526f14185d5cd8589b194e881c185d5cd95960821b604082015260600190565b6020808252601f908201527f5265656e7472616e637947756172643a207265656e7472616e742063616c6c00604082015260600190565b604051610180810167ffffffffffffffff811182821017156123d4576123d46124ea565b60405290565b604051601f8201601f1916810167ffffffffffffffff81118282101715612403576124036124ea565b604052919050565b6000821982111561241e5761241e6124be565b500190565b60008261244057634e487b7160e01b600052601260045260246000fd5b500490565b600081600019048311821515161561245f5761245f6124be565b500290565b600082821015612476576124766124be565b500390565b60005b8381101561249657818101518382015260200161247e565b8381111561153e5750506000910152565b6000816124b6576124b66124be565b506000190190565b634e487b7160e01b600052601160045260246000fd5b634e487b7160e01b600052603260045260246000fd5b634e487b7160e01b600052604160045260246000fd5b6001600160a01b038116811461251557600080fd5b5056fea26469706673582212201bc7d0b960d730e22348ca2cc45de60e758022fa36958e46f173cdec7865eff164736f6c63430008070033",
  "immutableReferences": {},
  "source": "/*--------------------------------------------------------PRF0.8.7\n__/\\\\\\\\\\\\\\\\\\\\\\\\\\ _____/\\\\\\\\\\\\\\\\\\ _______/\\\\__/\\\\ ___/\\\\\\\\\\\\\\\\\\\\\\\\\\\\\\        \n__\\/\\\\\\/////////\\\\\\ _/\\\\\\///////\\\\\\ ____\\//__\\//____\\/\\\\\\///////////__       \n___\\/\\\\\\_______\\/\\\\\\_\\/\\\\\\_____\\/\\\\\\ ________________\\/\\\\\\ ____________      \n____\\/\\\\\\\\\\\\\\\\\\\\\\\\\\/__\\/\\\\\\\\\\\\\\\\\\\\\\/_____/\\\\\\____/\\\\\\_\\/\\\\\\\\\\\\\\\\\\\\\\ ____     \n_____\\/\\\\\\/////////____\\/\\\\\\//////\\\\\\ ___\\/\\\\\\___\\/\\\\\\_\\/\\\\\\///////______\n______\\/\\\\\\ ____________\\/\\\\\\ ___\\//\\\\\\ __\\/\\\\\\___\\/\\\\\\_\\/\\\\\\ ____________\n_______\\/\\\\\\ ____________\\/\\\\\\ ____\\//\\\\\\ _\\/\\\\\\___\\/\\\\\\_\\/\\\\\\ ____________\n________\\/\\\\\\ ____________\\/\\\\\\ _____\\//\\\\\\_\\//\\\\\\\\\\\\\\\\\\ _\\/\\\\\\ ____________\n_________\\/// _____________\\/// _______\\/// __\\///////// __\\/// _____________\n*---------------------------------------------------------------------------*/\n\n/*-----------------------------------------------------------------\n *  TO DO Examine . Import/export rules are different to allow multichain.\n *\n *---------------------------------------------------------------*/\n\n//RCLR allows discarded items to be re-onboarded to a new holder\n\n// SPDX-License-Identifier: UNLICENSED\npragma solidity ^0.8.7;\n\nimport \"../Resources/PRUF_ECR_CORE.sol\";\nimport \"../Resources/PRUF_CORE.sol\";\n\ncontract RCLR is ECR_CORE, CORE {\n    bytes32 public constant DISCARD_ROLE = keccak256(\"DISCARD_ROLE\");\n\n    //--------------------------------------------External Functions--------------------------\n\n    /**\n     * @dev discards item -- caller is assetToken contract\n     * @param _idxHash asset ID\n     * @param _sender discarder\n     * Caller Must have DISCARD_ROLE\n     */\n    function discard(bytes32 _idxHash, address _sender)\n        external\n        nonReentrant\n        whenNotPaused\n    {\n        Record memory rec = getRecord(_idxHash);\n\n        require(\n            hasRole(DISCARD_ROLE, _msgSender()),\n            \"R:D: Caller does not have DISCARD_ROLE\"\n        );\n        require(rec.assetStatus == 59, \"R:D: Asset !in recyclable status\");\n        //^^^^^^^checks^^^^^^^^^\n\n        uint256 escrowTime = block.timestamp + 31536000000; //1,000 years in the FUTURE.........\n        bytes32 escrowOwnerHash = keccak256(abi.encodePacked(_msgSender()));\n        escrowDataExtLight memory escrowDataLight;\n        escrowDataLight.escrowData = 255;\n        escrowDataLight.addr_1 = _sender;\n        //^^^^^^^effects^^^^^^^^^\n\n        _setEscrowData(\n            _idxHash,\n            60, //recycled status\n            escrowOwnerHash,\n            escrowTime\n        );\n        _setEscrowDataLight(_idxHash, escrowDataLight);\n        //^^^^^^^interactions^^^^^^^^^\n    }\n\n    /**\n     * @dev reutilize a recycled asset\n     * maybe describe the reqs in this one, back us up on the security\n     * @param _idxHash asset ID\n     * @param _rgtHash rights holder hash to set\n     * @param _URIsuffix //CTS:CHECK - where does this get the URI Suffix?\n     */\n    function recycle(bytes32 _idxHash, bytes32 _rgtHash, string memory _URIsuffix) \n        external\n        nonReentrant\n        whenNotPaused\n    {\n        uint256 tokenId = uint256(_idxHash);\n        escrowDataExtLight memory escrowDataLight = getEscrowDataLight(\n            _idxHash\n        );\n        Record memory rec = getRecord(_idxHash);\n\n        require(_rgtHash != 0, \"R:R: New rights holder = zero\");\n        require(rec.assetStatus == 60, \"R:R: Asset not discarded\");\n\n        //^^^^^^^checks^^^^^^^^^\n\n        rec.rightsHolder = _rgtHash;\n        rec.numberOfTransfers = 170;\n        //^^^^^^^effects^^^^^^^^^^^^\n\n        A_TKN.mintAssetToken(_msgSender(), tokenId, _URIsuffix); //only sends to caller. Noneed to mint to node, custodial does not recycle\n\n        ECR_MGR.endEscrow(_idxHash);\n        deductRecycleCosts(rec.node, escrowDataLight.addr_1);\n        rec.assetStatus = 58;\n        writeRecord(_idxHash, rec);\n        //^^^^^^^interactions^^^^^^^^^^^^\n    }\n\n}\n",
  "sourcePath": "/Users/drake/Documents/DEV/PRUF/PRUF_TRUFFLE/contracts/InProgress/PRUF_RCLR.sol",
  "compiler": {
    "name": "solc",
    "version": "0.8.7+commit.e28d00a7.Emscripten.clang"
  },
  "schemaVersion": "3.4.3",
  "updatedAt": "2021-10-26T17:58:04.085Z",
  "devdoc": {
    "kind": "dev",
    "methods": {
      "ERC20Transfer(address,address,uint256)": {
        "details": "send an ERC20 token from this contract",
        "params": {
          "_amount": "amount to transfer",
          "_to": "destination",
          "_tokenContract": "Address of foreign token contract"
        }
      },
      "ERC721Transfer(address,address,uint256)": {
        "details": "send an ERC721 token from this contract",
        "params": {
          "_to": "destination",
          "_tokenContract": "Address of foreign token contract",
          "_tokenID": "Token ID"
        }
      },
      "discard(bytes32,address)": {
        "details": "discards item -- caller is assetToken contract",
        "params": {
          "_idxHash": "asset ID",
          "_sender": "discarder Caller Must have DISCARD_ROLE"
        }
      },
      "getRoleAdmin(bytes32)": {
        "details": "Returns the admin role that controls `role`. See {grantRole} and {revokeRole}. To change a role's admin, use {_setRoleAdmin}."
      },
      "grantRole(bytes32,address)": {
        "details": "Grants `role` to `account`. If `account` had not been already granted `role`, emits a {RoleGranted} event. Requirements: - the caller must have ``role``'s admin role."
      },
      "hasRole(bytes32,address)": {
        "details": "Returns `true` if `account` has been granted `role`."
      },
      "onERC721Received(address,address,uint256,bytes)": {
        "details": "Compliance for erc721 reciever See OZ documentation"
      },
      "paused()": {
        "details": "Returns true if the contract is paused, and false otherwise."
      },
      "recycle(bytes32,bytes32,string)": {
        "details": "reutilize a recycled asset maybe describe the reqs in this one, back us up on the security",
        "params": {
          "_URIsuffix": "//CTS:CHECK - where does this get the URI Suffix?",
          "_idxHash": "asset ID",
          "_rgtHash": "rights holder hash to set"
        }
      },
      "renounceRole(bytes32,address)": {
        "details": "Revokes `role` from the calling account. Roles are often managed via {grantRole} and {revokeRole}: this function's purpose is to provide a mechanism for accounts to lose their privileges if they are compromised (such as when a trusted device is misplaced). If the calling account had been granted `role`, emits a {RoleRevoked} event. Requirements: - the caller must be `account`."
      },
      "resolveContractAddresses()": {
        "details": "Resolve contract addresses from STOR"
      },
      "revokeRole(bytes32,address)": {
        "details": "Revokes `role` from `account`. If `account` had been granted `role`, emits a {RoleRevoked} event. Requirements: - the caller must have ``role``'s admin role."
      },
      "setStorageContract(address)": {
        "details": "Set address of STOR contract to interface with",
        "params": {
          "_storageAddress": "address of PRUF_STOR"
        }
      },
      "supportsInterface(bytes4)": {
        "details": "See {IERC165-supportsInterface}."
      }
    },
    "version": 1
  },
  "userdoc": {
    "kind": "user",
    "methods": {},
    "version": 1
  }
}