{
  "contractName": "RCLR",
  "abi": [
    {
      "anonymous": false,
      "inputs": [
        {
          "indexed": false,
          "internalType": "address",
          "name": "account",
          "type": "address"
        }
      ],
      "name": "Paused",
      "type": "event"
    },
    {
      "anonymous": false,
      "inputs": [
        {
          "indexed": false,
          "internalType": "string",
          "name": "_msg",
          "type": "string"
        }
      ],
      "name": "REPORT",
      "type": "event"
    },
    {
      "anonymous": false,
      "inputs": [
        {
          "indexed": true,
          "internalType": "bytes32",
          "name": "role",
          "type": "bytes32"
        },
        {
          "indexed": true,
          "internalType": "bytes32",
          "name": "previousAdminRole",
          "type": "bytes32"
        },
        {
          "indexed": true,
          "internalType": "bytes32",
          "name": "newAdminRole",
          "type": "bytes32"
        }
      ],
      "name": "RoleAdminChanged",
      "type": "event"
    },
    {
      "anonymous": false,
      "inputs": [
        {
          "indexed": true,
          "internalType": "bytes32",
          "name": "role",
          "type": "bytes32"
        },
        {
          "indexed": true,
          "internalType": "address",
          "name": "account",
          "type": "address"
        },
        {
          "indexed": true,
          "internalType": "address",
          "name": "sender",
          "type": "address"
        }
      ],
      "name": "RoleGranted",
      "type": "event"
    },
    {
      "anonymous": false,
      "inputs": [
        {
          "indexed": true,
          "internalType": "bytes32",
          "name": "role",
          "type": "bytes32"
        },
        {
          "indexed": true,
          "internalType": "address",
          "name": "account",
          "type": "address"
        },
        {
          "indexed": true,
          "internalType": "address",
          "name": "sender",
          "type": "address"
        }
      ],
      "name": "RoleRevoked",
      "type": "event"
    },
    {
      "anonymous": false,
      "inputs": [
        {
          "indexed": false,
          "internalType": "address",
          "name": "account",
          "type": "address"
        }
      ],
      "name": "Unpaused",
      "type": "event"
    },
    {
      "inputs": [],
      "name": "ASSET_TXFR_ROLE",
      "outputs": [
        {
          "internalType": "bytes32",
          "name": "",
          "type": "bytes32"
        }
      ],
      "stateMutability": "view",
      "type": "function"
    },
    {
      "inputs": [],
      "name": "DEFAULT_ADMIN_ROLE",
      "outputs": [
        {
          "internalType": "bytes32",
          "name": "",
          "type": "bytes32"
        }
      ],
      "stateMutability": "view",
      "type": "function"
    },
    {
      "inputs": [],
      "name": "DISCARD_ROLE",
      "outputs": [
        {
          "internalType": "bytes32",
          "name": "",
          "type": "bytes32"
        }
      ],
      "stateMutability": "view",
      "type": "function"
    },
    {
      "inputs": [],
      "name": "OO_resolveContractAddresses",
      "outputs": [],
      "stateMutability": "nonpayable",
      "type": "function"
    },
    {
      "inputs": [
        {
          "internalType": "address",
          "name": "_storageAddress",
          "type": "address"
        }
      ],
      "name": "OO_setStorageContract",
      "outputs": [],
      "stateMutability": "nonpayable",
      "type": "function"
    },
    {
      "inputs": [
        {
          "internalType": "address",
          "name": "_to",
          "type": "address"
        },
        {
          "internalType": "bytes32",
          "name": "_idxHash",
          "type": "bytes32"
        }
      ],
      "name": "OO_transferACToken",
      "outputs": [],
      "stateMutability": "nonpayable",
      "type": "function"
    },
    {
      "inputs": [],
      "name": "PAUSER_ROLE",
      "outputs": [
        {
          "internalType": "bytes32",
          "name": "",
          "type": "bytes32"
        }
      ],
      "stateMutability": "view",
      "type": "function"
    },
    {
      "inputs": [
        {
          "internalType": "bytes32",
          "name": "role",
          "type": "bytes32"
        }
      ],
      "name": "getRoleAdmin",
      "outputs": [
        {
          "internalType": "bytes32",
          "name": "",
          "type": "bytes32"
        }
      ],
      "stateMutability": "view",
      "type": "function"
    },
    {
      "inputs": [
        {
          "internalType": "bytes32",
          "name": "role",
          "type": "bytes32"
        },
        {
          "internalType": "uint256",
          "name": "index",
          "type": "uint256"
        }
      ],
      "name": "getRoleMember",
      "outputs": [
        {
          "internalType": "address",
          "name": "",
          "type": "address"
        }
      ],
      "stateMutability": "view",
      "type": "function"
    },
    {
      "inputs": [
        {
          "internalType": "bytes32",
          "name": "role",
          "type": "bytes32"
        }
      ],
      "name": "getRoleMemberCount",
      "outputs": [
        {
          "internalType": "uint256",
          "name": "",
          "type": "uint256"
        }
      ],
      "stateMutability": "view",
      "type": "function"
    },
    {
      "inputs": [
        {
          "internalType": "bytes32",
          "name": "role",
          "type": "bytes32"
        },
        {
          "internalType": "address",
          "name": "account",
          "type": "address"
        }
      ],
      "name": "grantRole",
      "outputs": [],
      "stateMutability": "nonpayable",
      "type": "function"
    },
    {
      "inputs": [
        {
          "internalType": "bytes32",
          "name": "role",
          "type": "bytes32"
        },
        {
          "internalType": "address",
          "name": "account",
          "type": "address"
        }
      ],
      "name": "hasRole",
      "outputs": [
        {
          "internalType": "bool",
          "name": "",
          "type": "bool"
        }
      ],
      "stateMutability": "view",
      "type": "function"
    },
    {
      "inputs": [
        {
          "internalType": "address",
          "name": "",
          "type": "address"
        },
        {
          "internalType": "address",
          "name": "",
          "type": "address"
        },
        {
          "internalType": "uint256",
          "name": "",
          "type": "uint256"
        },
        {
          "internalType": "bytes",
          "name": "",
          "type": "bytes"
        }
      ],
      "name": "onERC721Received",
      "outputs": [
        {
          "internalType": "bytes4",
          "name": "",
          "type": "bytes4"
        }
      ],
      "stateMutability": "nonpayable",
      "type": "function"
    },
    {
      "inputs": [],
      "name": "pause",
      "outputs": [],
      "stateMutability": "nonpayable",
      "type": "function"
    },
    {
      "inputs": [],
      "name": "paused",
      "outputs": [
        {
          "internalType": "bool",
          "name": "",
          "type": "bool"
        }
      ],
      "stateMutability": "view",
      "type": "function"
    },
    {
      "inputs": [
        {
          "internalType": "bytes32",
          "name": "role",
          "type": "bytes32"
        },
        {
          "internalType": "address",
          "name": "account",
          "type": "address"
        }
      ],
      "name": "renounceRole",
      "outputs": [],
      "stateMutability": "nonpayable",
      "type": "function"
    },
    {
      "inputs": [
        {
          "internalType": "bytes32",
          "name": "role",
          "type": "bytes32"
        },
        {
          "internalType": "address",
          "name": "account",
          "type": "address"
        }
      ],
      "name": "revokeRole",
      "outputs": [],
      "stateMutability": "nonpayable",
      "type": "function"
    },
    {
      "inputs": [
        {
          "internalType": "address",
          "name": "_to",
          "type": "address"
        },
        {
          "internalType": "bytes32",
          "name": "_idxHash",
          "type": "bytes32"
        }
      ],
      "name": "transferAssetToken",
      "outputs": [],
      "stateMutability": "nonpayable",
      "type": "function"
    },
    {
      "inputs": [],
      "name": "unpause",
      "outputs": [],
      "stateMutability": "nonpayable",
      "type": "function"
    },
    {
      "inputs": [
        {
          "internalType": "bytes32",
          "name": "_idxHash",
          "type": "bytes32"
        },
        {
          "internalType": "address",
          "name": "_sender",
          "type": "address"
        }
      ],
      "name": "discard",
      "outputs": [],
      "stateMutability": "nonpayable",
      "type": "function"
    },
    {
      "inputs": [
        {
          "internalType": "bytes32",
          "name": "_idxHash",
          "type": "bytes32"
        },
        {
          "internalType": "bytes32",
          "name": "_rgtHash",
          "type": "bytes32"
        },
        {
          "internalType": "uint32",
          "name": "_assetClass",
          "type": "uint32"
        }
      ],
      "name": "$recycle",
      "outputs": [],
      "stateMutability": "nonpayable",
      "type": "function"
    }
  ],
  "bytecode": "0x60806040523480156200001157600080fd5b50600160009081556002805460ff191690556200003890620000326200006d565b62000071565b620000677f65d7a28e3265b37a6474929f336521b332c1681b933f6cb9f3376673440d862a620000326200006d565b62000183565b3390565b6200007d828262000081565b5050565b6000828152600160209081526040909120620000a8918390620016a6620000fc821b17901c565b156200007d57620000b86200006d565b6001600160a01b0316816001600160a01b0316837f2f8788117e7eff1d82e926ec794901d17c78024a50270940304540a733656f0d60405160405180910390a45050565b600062000113836001600160a01b0384166200011c565b90505b92915050565b60006200012a83836200016b565b620001625750815460018181018455600084815260208082209093018490558454848252828601909352604090209190915562000116565b50600062000116565b60009081526001919091016020526040902054151590565b61268280620001936000396000f3fe608060405234801561001057600080fd5b50600436106101375760003560e01c80639010d07c116100b8578063c79b226e1161007c578063c79b226e146103a8578063ca15c873146103d4578063d547741f146103f1578063d6b02ecf1461041d578063e63ab1e914610443578063e8b416531461044b57610137565b80639010d07c146102da57806391d1485414610319578063a217fddf14610345578063b949535a1461034d578063c45677141461037c57610137565b80633f4ba83a116100ff5780633f4ba83a1461027a57806343ccc33814610282578063440e7a7e1461028a5780635c975abb146102b65780638456cb59146102d257610137565b80631429db5f1461013c578063150b7a0214610156578063248a9ca3146102035780632f2ff15d1461022057806336568abe1461024e575b600080fd5b610144610453565b60408051918252519081900360200190f35b6101e66004803603608081101561016c57600080fd5b6001600160a01b038235811692602081013590911691604082013591908101906080810160608201356401000000008111156101a757600080fd5b8201836020820111156101b957600080fd5b803590602001918460018302840111640100000000831117156101db57600080fd5b509092509050610477565b604080516001600160e01b03199092168252519081900360200190f35b6101446004803603602081101561021957600080fd5b5035610488565b61024c6004803603604081101561023657600080fd5b50803590602001356001600160a01b031661049d565b005b61024c6004803603604081101561026457600080fd5b50803590602001356001600160a01b0316610509565b61024c61056a565b6101446105db565b61024c600480360360408110156102a057600080fd5b506001600160a01b0381351690602001356105ff565b6102be610747565b604080519115158252519081900360200190f35b61024c610750565b6102fd600480360360408110156102f057600080fd5b50803590602001356107bf565b604080516001600160a01b039092168252519081900360200190f35b6102be6004803603604081101561032f57600080fd5b50803590602001356001600160a01b03166107e0565b6101446107f8565b61024c6004803603606081101561036357600080fd5b508035906020810135906040013563ffffffff166107fd565b61024c6004803603604081101561039257600080fd5b50803590602001356001600160a01b0316610b10565b61024c600480360360408110156103be57600080fd5b506001600160a01b038135169060200135610cf5565b610144600480360360208110156103ea57600080fd5b5035610de5565b61024c6004803603604081101561040757600080fd5b50803590602001356001600160a01b0316610dfc565b61024c6004803603602081101561043357600080fd5b50356001600160a01b0316610e55565b610144610f04565b61024c610f28565b7f7f1e4e9f3d9ba0452a25cfef4cd4c6ffc86158d06ed2f585fa0093e12dec429c81565b630a85bd0160e11b95945050505050565b60009081526001602052604090206002015490565b6000828152600160205260409020600201546104c0906104bb6116bb565b6107e0565b6104fb5760405162461bcd60e51b815260040180806020018281038252602f8152602001806124e5602f913960400191505060405180910390fd5b61050582826116bf565b5050565b6105116116bb565b6001600160a01b0316816001600160a01b0316146105605760405162461bcd60e51b815260040180806020018281038252602f81526020018061261e602f913960400191505060405180910390fd5b6105058282611728565b6105967f65d7a28e3265b37a6474929f336521b332c1681b933f6cb9f3376673440d862a6104bb6116bb565b6105d15760405162461bcd60e51b81526004018080602001828103825260278152602001806125f76027913960400191505060405180910390fd5b6105d9611791565b565b7fbed75b8d27ed9153be88a4b503b3835ac34bdc744c3ed7039f660434e2b1f16281565b60026000541415610645576040805162461bcd60e51b815260206004820152601f6024820152600080516020612514833981519152604482015290519081900360640190fd5b60026000556106767f7f1e4e9f3d9ba0452a25cfef4cd4c6ffc86158d06ed2f585fa0093e12dec429c6104bb6116bb565b6106c7576040805162461bcd60e51b815260206004820152601e60248201527f423a54583a4d75737420686176652041535345545f545846525f524f4c450000604482015290519081900360640190fd5b60095460408051632142170760e11b81523060048201526001600160a01b038581166024830152604482018590529151849392909216916342842e0e9160648082019260009290919082900301818387803b15801561072557600080fd5b505af1158015610739573d6000803e3d6000fd5b505060016000555050505050565b60025460ff1690565b61077c7f65d7a28e3265b37a6474929f336521b332c1681b933f6cb9f3376673440d862a6104bb6116bb565b6107b75760405162461bcd60e51b81526004018080602001828103825260278152602001806125f76027913960400191505060405180910390fd5b6105d961182f565b60008281526001602052604081206107d790836118b0565b90505b92915050565b60008281526001602052604081206107d790836118bc565b600081565b60026000541415610843576040805162461bcd60e51b815260206004820152601f6024820152600080516020612514833981519152604482015290519081900360640190fd5b600260008190555460ff1615610893576040805162461bcd60e51b815260206004820152601060248201526f14185d5cd8589b194e881c185d5cd95960821b604482015290519081900360640190fd5b8261089c6123f8565b6108a5856118d1565b90506108af61243c565b6108b8866119d8565b9050846108f65760405162461bcd60e51b81526004018080602001828103825260248152602001806125596024913960400191505060405180910390fd5b806000015160ff16603c14610952576040805162461bcd60e51b815260206004820152601760248201527f523a523a4173736574206e6f7420646973636172646564000000000000000000604482015290519081900360640190fd5b60c0810185905260aa60808201526009546001600160a01b03166354a19c2b6109796116bb565b604080516001600160e01b031960e085901b1681526001600160a01b03909216600483015260248201879052606060448301526007606483015266707275662e696f60c81b60848301525160a48083019260209291908290030181600087803b1580156109e557600080fd5b505af11580156109f9573d6000803e3d6000fd5b505050506040513d6020811015610a0f57600080fd5b5050600f5460408051633a38454b60e21b81526004810189905290516001600160a01b039092169163e8e1152c9160248082019260009290919082900301818387803b158015610a5e57600080fd5b505af1158015610a72573d6000803e3d6000fd5b50506003546040805163315017c360e11b8152600481018b905263ffffffff8916602482015290516001600160a01b0390921693506362a02f86925060448082019260009290919082900301818387803b158015610acf57600080fd5b505af1158015610ae3573d6000803e3d6000fd5b50505050610af5848360e00151611b5a565b603a8152610b038682611ca7565b5050600160005550505050565b60026000541415610b56576040805162461bcd60e51b815260206004820152601f6024820152600080516020612514833981519152604482015290519081900360640190fd5b600260008190555460ff1615610ba6576040805162461bcd60e51b815260206004820152601060248201526f14185d5cd8589b194e881c185d5cd95960821b604482015290519081900360640190fd5b610bae61243c565b610bb7836119d8565b9050610be57fbed75b8d27ed9153be88a4b503b3835ac34bdc744c3ed7039f660434e2b1f1626104bb6116bb565b610c205760405162461bcd60e51b815260040180806020018281038252602581526020018061257d6025913960400191505060405180910390fd5b806000015160ff16603b14610c7c576040805162461bcd60e51b815260206004820181905260248201527f523a443a4d75737420626520696e2072656379636c61626c6520737461747573604482015290519081900360640190fd5b6502de4135300042016000610c8f6116bb565b60405160200180826001600160a01b031660601b8152601401915050604051602081830303815290604052805190602001209050610ccb6123f8565b60ff81526001600160a01b03851660e0820152610ceb86603c8486611d9b565b610b038682611e68565b610d0260006104bb6116bb565b610d3d5760405162461bcd60e51b81526004018080602001828103825260258152602001806125a26025913960400191505060405180910390fd5b60026000541415610d83576040805162461bcd60e51b815260206004820152601f6024820152600080516020612514833981519152604482015290519081900360640190fd5b60026000908155600b5460408051632142170760e11b81523060048201526001600160a01b038681166024830152604482018690529151859492909316926342842e0e9260648084019391929182900301818387803b15801561072557600080fd5b60008181526001602052604081206107da90611f6e565b600082815260016020526040902060020154610e1a906104bb6116bb565b6105605760405162461bcd60e51b81526004018080602001828103825260308152602001806125c76030913960400191505060405180910390fd5b610e6260006104bb6116bb565b610e9d5760405162461bcd60e51b81526004018080602001828103825260258152602001806125a26025913960400191505060405180910390fd5b6001600160a01b038116610ee25760405162461bcd60e51b81526004018080602001828103825260258152602001806125346025913960400191505060405180910390fd5b600380546001600160a01b0319166001600160a01b0392909216919091179055565b7f65d7a28e3265b37a6474929f336521b332c1681b933f6cb9f3376673440d862a81565b60026000541415610f6e576040805162461bcd60e51b815260206004820152601f6024820152600080516020612514833981519152604482015290519081900360640190fd5b60026000908155610f81906104bb6116bb565b610fbc5760405162461bcd60e51b81526004018080602001828103825260258152602001806125a26025913960400191505060405180910390fd5b600354604080516363b8d4c160e11b8152602060048201819052600660248301526520a1afaa25a760d11b604483015291516001600160a01b039093169263c771a98292606480840193919291829003018186803b15801561101d57600080fd5b505afa158015611031573d6000803e3d6000fd5b505050506040513d602081101561104757600080fd5b5051600a80546001600160a01b039283166001600160a01b03199182161791829055600b8054909116918316919091179055600354604080516363b8d4c160e11b8152602060048201819052600660248301526520a1afa6a3a960d11b60448301529151929093169263c771a9829260648083019392829003018186803b1580156110d157600080fd5b505afa1580156110e5573d6000803e3d6000fd5b505050506040513d60208110156110fb57600080fd5b5051600480546001600160a01b039283166001600160a01b03199182161780835560058054909216908416179055600354604080516363b8d4c160e11b8152602093810184905260086024820152672aaa24a62faa25a760c11b60448201529051919093169263c771a982926064808301939192829003018186803b15801561118357600080fd5b505afa158015611197573d6000803e3d6000fd5b505050506040513d60208110156111ad57600080fd5b5051600680546001600160a01b039283166001600160a01b0319918216179182905560078054909116918316919091179055600354604080516363b8d4c160e11b8152602060048201819052600560248301526420afaa25a760d91b60448301529151929093169263c771a9829260648083019392829003018186803b15801561123657600080fd5b505afa15801561124a573d6000803e3d6000fd5b505050506040513d602081101561126057600080fd5b5051600880546001600160a01b039283166001600160a01b0319918216179182905560098054909116918316919091179055600354604080516363b8d4c160e11b8152602060048201819052600660248301526524a22faa25a760d11b60448301529151929093169263c771a9829260648083019392829003018186803b1580156112ea57600080fd5b505afa1580156112fe573d6000803e3d6000fd5b505050506040513d602081101561131457600080fd5b5051600c80546001600160a01b039283166001600160a01b03199182161791829055600d8054909116918316919091179055600354604080516363b8d4c160e11b8152602060048201819052600760248301526622a1a92fa6a3a960c91b60448301529151929093169263c771a9829260648083019392829003018186803b15801561139f57600080fd5b505afa1580156113b3573d6000803e3d6000fd5b505050506040513d60208110156113c957600080fd5b5051600e80546001600160a01b039283166001600160a01b03199182161791829055600f805490911691831691909117905560038054604080516363b8d4c160e11b815260206004820181905260248201949094526204150560ec1b60448201529051919093169263c771a982926064808301939192829003018186803b15801561145357600080fd5b505afa158015611467573d6000803e3d6000fd5b505050506040513d602081101561147d57600080fd5b5051601280546001600160a01b039283166001600160a01b0319918216179182905560138054909116918316919091179055600354604080516363b8d4c160e11b8152602060048083018290526024830152632921a62960e11b60448301529151929093169263c771a9829260648083019392829003018186803b15801561150457600080fd5b505afa158015611518573d6000803e3d6000fd5b505050506040513d602081101561152e57600080fd5b5051601080546001600160a01b039283166001600160a01b0319918216179182905560118054909116918316919091179055600354604080516363b8d4c160e11b815260206004820181905260066024830152654150505f4e4360d01b60448301529151929093169263c771a9829260648083019392829003018186803b1580156115b857600080fd5b505afa1580156115cc573d6000803e3d6000fd5b505050506040513d60208110156115e257600080fd5b5051601480546001600160a01b0319166001600160a01b03928316179055600354604080516363b8d4c160e11b8152602060048201819052600260248301526104e560f41b60448301529151929093169263c771a9829260648083019392829003018186803b15801561165457600080fd5b505afa158015611668573d6000803e3d6000fd5b505050506040513d602081101561167e57600080fd5b5051601780546001600160a01b0319166001600160a01b039092169190911790556001600055565b60006107d7836001600160a01b038416611f79565b3390565b60008281526001602052604090206116d790826116a6565b15610505576116e46116bb565b6001600160a01b0316816001600160a01b0316837f2f8788117e7eff1d82e926ec794901d17c78024a50270940304540a733656f0d60405160405180910390a45050565b60008281526001602052604090206117409082611fc3565b156105055761174d6116bb565b6001600160a01b0316816001600160a01b0316837ff6391f5c32d9c69d2a47ea670b442974b53935d1edc7fd64eb21e047a839171b60405160405180910390a45050565b60025460ff166117df576040805162461bcd60e51b815260206004820152601460248201527314185d5cd8589b194e881b9bdd081c185d5cd95960621b604482015290519081900360640190fd5b6002805460ff191690557f5db9ee0a495bf2e6ff9c91a7834c1ba4fdd244a5e8aa4e537bd38aeae4b073aa6118126116bb565b604080516001600160a01b039092168252519081900360200190a1565b60025460ff161561187a576040805162461bcd60e51b815260206004820152601060248201526f14185d5cd8589b194e881c185d5cd95960821b604482015290519081900360640190fd5b6002805460ff191660011790557f62e78cea01bee320cd4e420270b5ea74000d11b0c9f74754ebdbfc544b05a2586118126116bb565b60006107d78383611fd8565b60006107d7836001600160a01b03841661203c565b6118d96123f8565b6118e16123f8565b600f54604080516375855a5b60e01b81526004810186905290516001600160a01b03909216916375855a5b9160248082019261010092909190829003018186803b15801561192e57600080fd5b505afa158015611942573d6000803e3d6000fd5b505050506040513d61010081101561195957600080fd5b50805160208083015160408085015160608087015160808089015160a0808b015160c0808d015160e09d8e01516001600160a01b03169d8f019d909d5263ffffffff909c169b8d019b909b5261ffff9a8b16908c0152989098169789019790975260ff9687169088015285169086015283169084015216815292915050565b6119e061243c565b6119e861243c565b6000806000806000806000600360009054906101000a90046001600160a01b03166001600160a01b031663e248f2c48b6040518263ffffffff1660e01b81526004018082815260200191505060e06040518083038186803b158015611a4c57600080fd5b505afa158015611a60573d6000803e3d6000fd5b505050506040513d60e0811015611a7657600080fd5b81019080805190602001909291908051906020019092919080519060200190929190805190602001909291908051906020019092919080519060200190929190805190602001909291905050509650965096509650965096509650868860c001818152505085886000019060ff16908160ff168152505084886020019063ffffffff16908163ffffffff168152505083886040019063ffffffff16908163ffffffff168152505082886060019063ffffffff16908163ffffffff1681525050818860e001818152505080886101000181815250505050505050505080915050919050565b60025460ff1615611ba5576040805162461bcd60e51b815260206004820152601060248201526f14185d5cd8589b194e881c185d5cd95960821b604482015290519081900360640190fd5b611bad612488565b6005546040805163859f08db60e01b815263ffffffff861660048201526001602482015290516000926001600160a01b03169163859f08db916044808301926080929190829003018186803b158015611c0557600080fd5b505afa158015611c19573d6000803e3d6000fd5b505050506040513d6080811015611c2f57600080fd5b506020808201516040808401516060948501519487018590526001600160a01b03908116918701919091529185015284168352611c6d906002612054565b6020830151909150611c7f9082612096565b60208301526060820151611c9390826120f0565b6060830152611ca182612132565b50505050565b60025460ff1615611cf2576040805162461bcd60e51b815260206004820152601060248201526f14185d5cd8589b194e881c185d5cd95960821b604482015290519081900360640190fd5b60035460c0820151825160408085015160a0860151608087015183516331aeaa7f60e11b8152600481018a9052602481019690965260ff909416604486015263ffffffff9091166064850152608484015260a4830191909152516001600160a01b039092169163635d54fe9160c48082019260009290919082900301818387803b158015611d7f57600080fd5b505af1158015611d93573d6000803e3d6000fd5b505050505050565b60025460ff1615611de6576040805162461bcd60e51b815260206004820152601060248201526f14185d5cd8589b194e881c185d5cd95960821b604482015290519081900360640190fd5b600f5460408051637318462b60e11b81526004810187905260ff86166024820152604481018590526064810184905290516001600160a01b039092169163e6308c569160848082019260009290919082900301818387803b158015611e4a57600080fd5b505af1158015611e5e573d6000803e3d6000fd5b5050505050505050565b60025460ff1615611eb3576040805162461bcd60e51b815260206004820152601060248201526f14185d5cd8589b194e881c185d5cd95960821b604482015290519081900360640190fd5b600f54815160208301516040808501516060860151608087015160a088015160c089015160e08a0151865163333c25e160e21b8152600481018d905260ff998a1660248201529789166044890152948816606488015296909216608486015261ffff90811660a48601521660c484015263ffffffff90931660e48301526001600160a01b0392831661010483015251919092169163ccf097849161012480830192600092919082900301818387803b158015611d7f57600080fd5b60006107da82612232565b6000611f85838361203c565b611fbb575081546001818101845560008481526020808220909301849055845484825282860190935260409020919091556107da565b5060006107da565b60006107d7836001600160a01b038416612236565b8154600090821061201a5760405162461bcd60e51b81526004018080602001828103825260228152602001806124c36022913960400191505060405180910390fd5b82600001828154811061202957fe5b9060005260206000200154905092915050565b60009081526001919091016020526040902054151590565b60006107d783836040518060400160405280601a81526020017f536166654d6174683a206469766973696f6e206279207a65726f0000000000008152506122fc565b6000828201838110156107d7576040805162461bcd60e51b815260206004820152601b60248201527f536166654d6174683a206164646974696f6e206f766572666c6f770000000000604482015290519081900360640190fd5b60006107d783836040518060400160405280601e81526020017f536166654d6174683a207375627472616374696f6e206f766572666c6f77000081525061239e565b60025460ff161561217d576040805162461bcd60e51b815260206004820152601060248201526f14185d5cd8589b194e881c185d5cd95960821b604482015290519081900360640190fd5b6007546001600160a01b031663e60f0b986121966116bb565b83600001518460200151856040015186606001516040518663ffffffff1660e01b815260040180866001600160a01b03168152602001856001600160a01b03168152602001848152602001836001600160a01b0316815260200182815260200195505050505050600060405180830381600087803b15801561221757600080fd5b505af115801561222b573d6000803e3d6000fd5b5050505050565b5490565b600081815260018301602052604081205480156122f2578354600019808301919081019060009087908390811061226957fe5b906000526020600020015490508087600001848154811061228657fe5b6000918252602080832090910192909255828152600189810190925260409020908401905586548790806122b657fe5b600190038181906000526020600020016000905590558660010160008781526020019081526020016000206000905560019450505050506107da565b60009150506107da565b600081836123885760405162461bcd60e51b81526004018080602001828103825283818151815260200191508051906020019080838360005b8381101561234d578181015183820152602001612335565b50505050905090810190601f16801561237a5780820380516001836020036101000a031916815260200191505b509250505060405180910390fd5b50600083858161239457fe5b0495945050505050565b600081848411156123f05760405162461bcd60e51b815260206004820181815283516024840152835190928392604490910191908501908083836000831561234d578181015183820152602001612335565b505050900390565b6040805161010081018252600080825260208201819052918101829052606081018290526080810182905260a0810182905260c0810182905260e081019190915290565b6040805161012081018252600080825260208201819052918101829052606081018290526080810182905260a0810182905260c0810182905260e0810182905261010081019190915290565b604051806080016040528060006001600160a01b031681526020016000815260200160006001600160a01b0316815260200160008152509056fe456e756d657261626c655365743a20696e646578206f7574206f6620626f756e6473416363657373436f6e74726f6c3a2073656e646572206d75737420626520616e2061646d696e20746f206772616e745265656e7472616e637947756172643a207265656e7472616e742063616c6c00423a5353433a2073746f7261676520616464726573732063616e6e6f74206265207a65726f523a523a4e65772072696768747320686f6c6465722063616e6e6f74206265207a65726f523a443a43616c6c657220646f6573206e6f74206861766520444953434152445f524f4c4550414d3a4d4f443a206d75737420686176652044454641554c545f41444d494e5f524f4c45416363657373436f6e74726f6c3a2073656e646572206d75737420626520616e2061646d696e20746f207265766f6b6541543a4d4f442d49413a43616c6c696e672061646472657373206973206e6f7420706175736572416363657373436f6e74726f6c3a2063616e206f6e6c792072656e6f756e636520726f6c657320666f722073656c66a2646970667358221220c30b2d9850308bd57d7fe116a0f3edc9f83c2fa25f505d4edc3ef59f93bd5a4f64736f6c634300060c0033",
  "immutableReferences": {},
  "source": "/*--------------------------------------------------------PRuF0.7.1\n__/\\\\\\\\\\\\\\\\\\\\\\\\\\ _____/\\\\\\\\\\\\\\\\\\ _______/\\\\../\\\\ ___/\\\\\\\\\\\\\\\\\\\\\\\\\\\\\\\n _\\/\\\\\\/////////\\\\\\ _/\\\\\\///////\\\\\\ ____\\//..\\//____\\/\\\\\\///////////__\n  _\\/\\\\\\.......\\/\\\\\\.\\/\\\\\\.....\\/\\\\\\ ________________\\/\\\\\\ ____________\n   _\\/\\\\\\\\\\\\\\\\\\\\\\\\\\/__\\/\\\\\\\\\\\\\\\\\\\\\\/_____/\\\\\\____/\\\\\\.\\/\\\\\\\\\\\\\\\\\\\\\\ ____\n    _\\/\\\\\\/////////____\\/\\\\\\//////\\\\\\ ___\\/\\\\\\___\\/\\\\\\.\\/\\\\\\///////______\n     _\\/\\\\\\ ____________\\/\\\\\\ ___\\//\\\\\\ __\\/\\\\\\___\\/\\\\\\.\\/\\\\\\ ____________\n      _\\/\\\\\\ ____________\\/\\\\\\ ____\\//\\\\\\ _\\/\\\\\\___\\/\\\\\\.\\/\\\\\\ ____________\n       _\\/\\\\\\ ____________\\/\\\\\\ _____\\//\\\\\\.\\//\\\\\\\\\\\\\\\\\\ _\\/\\\\\\ ____________\n        _\\/// _____________\\/// _______\\/// __\\///////// __\\/// _____________\n         *-------------------------------------------------------------------*/\n\n/*-----------------------------------------------------------------\n *  TO DO\n *\n *---------------------------------------------------------------*/\n\n// SPDX-License-Identifier: UNLICENSED\npragma solidity ^0.6.7;\n\nimport \"./PRUF_ECR_CORE.sol\";\nimport \"./PRUF_CORE.sol\";\n\ncontract RCLR is ECR_CORE, CORE {\n    using SafeMath for uint256;\n\n    bytes32 public constant DISCARD_ROLE = keccak256(\"DISCARD_ROLE\");\n\n    //--------------------------------------------External Functions--------------------------\n\n    /*\n     * @dev //gets item out of recycled status -- caller is assetToken contract\n     */\n    function discard(bytes32 _idxHash, address _sender) external nonReentrant whenNotPaused {\n        Record memory rec = getRecord(_idxHash);\n\n        require(\n            hasRole(DISCARD_ROLE, _msgSender()),\n            \"R:D:Caller does not have DISCARD_ROLE\"\n        );\n        require((rec.assetStatus == 59), \"R:D:Must be in recyclable status\");\n        //^^^^^^^checks^^^^^^^^^\n\n        uint256 escrowTime = block.timestamp + 3153600000000; //100,000 years in the FUTURE.........\n        bytes32 escrowOwnerHash = keccak256(abi.encodePacked(_msgSender()));\n        escrowDataExtLight memory escrowDataLight;\n        escrowDataLight.escrowData = 255;\n        escrowDataLight.addr_1 = _sender;\n        //^^^^^^^effects^^^^^^^^^\n\n        _setEscrowData(\n            _idxHash,\n            60, //recycled status\n            escrowOwnerHash,\n            escrowTime\n        );\n\n        _setEscrowDataLight(_idxHash, escrowDataLight);\n        //^^^^^^^interactions^^^^^^^^^\n    }\n\n    /*\n     * @dev reutilize a recycled asset\n     */\n    function $recycle(\n        bytes32 _idxHash,\n        bytes32 _rgtHash,\n        uint32 _assetClass\n    ) external nonReentrant whenNotPaused { \n        uint256 tokenId = uint256(_idxHash);\n        escrowDataExtLight memory escrowDataLight = getEscrowDataLight(\n            _idxHash\n        );\n        Record memory rec = getRecord(_idxHash);\n\n        require(_rgtHash != 0, \"R:R:New rights holder cannot be zero\");\n\n        require(rec.assetStatus == 60, \"R:R:Asset not discarded\");\n        //^^^^^^^checks^^^^^^^^^\n\n        rec.rightsHolder = _rgtHash;\n        rec.incrementNumberOfTransfers = 170;\n        //^^^^^^^effects^^^^^^^^^^^^\n        \n        A_TKN.mintAssetToken(_msgSender(), tokenId, \"pruf.io\");\n        ECR_MGR.endEscrow(_idxHash);\n        STOR.changeAC(_idxHash, _assetClass);\n        deductRecycleCosts(_assetClass, escrowDataLight.addr_1);\n        rec.assetStatus = 58;\n        writeRecord(_idxHash, rec);\n        //^^^^^^^interactions^^^^^^^^^^^^\n    }\n}\n",
  "sourcePath": "/Users/cts/dev/PRUF/PRUF_TRUFFLE/contracts/PRUF_RCLR.sol",
  "compiler": {
    "name": "solc",
    "version": "0.6.12+commit.27d51765.Emscripten.clang"
  },
  "schemaVersion": "3.2.3",
  "updatedAt": "2020-12-13T02:15:05.634Z",
  "devdoc": {
    "kind": "dev",
    "methods": {
      "getRoleAdmin(bytes32)": {
        "details": "Returns the admin role that controls `role`. See {grantRole} and {revokeRole}. To change a role's admin, use {_setRoleAdmin}."
      },
      "getRoleMember(bytes32,uint256)": {
        "details": "Returns one of the accounts that have `role`. `index` must be a value between 0 and {getRoleMemberCount}, non-inclusive. Role bearers are not sorted in any particular way, and their ordering may change at any point. WARNING: When using {getRoleMember} and {getRoleMemberCount}, make sure you perform all queries on the same block. See the following https://forum.openzeppelin.com/t/iterating-over-elements-on-enumerableset-in-openzeppelin-contracts/2296[forum post] for more information."
      },
      "getRoleMemberCount(bytes32)": {
        "details": "Returns the number of accounts that have `role`. Can be used together with {getRoleMember} to enumerate all bearers of a role."
      },
      "grantRole(bytes32,address)": {
        "details": "Grants `role` to `account`. If `account` had not been already granted `role`, emits a {RoleGranted} event. Requirements: - the caller must have ``role``'s admin role."
      },
      "hasRole(bytes32,address)": {
        "details": "Returns `true` if `account` has been granted `role`."
      },
      "pause()": {
        "details": "Triggers stopped state. (pausable)"
      },
      "paused()": {
        "details": "Returns true if the contract is paused, and false otherwise."
      },
      "renounceRole(bytes32,address)": {
        "details": "Revokes `role` from the calling account. Roles are often managed via {grantRole} and {revokeRole}: this function's purpose is to provide a mechanism for accounts to lose their privileges if they are compromised (such as when a trusted device is misplaced). If the calling account had been granted `role`, emits a {RoleRevoked} event. Requirements: - the caller must be `account`."
      },
      "revokeRole(bytes32,address)": {
        "details": "Revokes `role` from `account`. If `account` had been granted `role`, emits a {RoleRevoked} event. Requirements: - the caller must have ``role``'s admin role."
      },
      "unpause()": {
        "details": "Returns to normal state. (pausable)"
      }
    },
    "version": 1
  },
  "userdoc": {
    "kind": "user",
    "methods": {},
    "version": 1
  }
}