{
  "contractName": "REWARDS_VAULT",
  "abi": [
    {
      "inputs": [],
      "stateMutability": "nonpayable",
      "type": "constructor"
    },
    {
      "anonymous": false,
      "inputs": [
        {
          "indexed": false,
          "internalType": "address",
          "name": "account",
          "type": "address"
        }
      ],
      "name": "Paused",
      "type": "event"
    },
    {
      "anonymous": false,
      "inputs": [
        {
          "indexed": true,
          "internalType": "bytes32",
          "name": "role",
          "type": "bytes32"
        },
        {
          "indexed": true,
          "internalType": "bytes32",
          "name": "previousAdminRole",
          "type": "bytes32"
        },
        {
          "indexed": true,
          "internalType": "bytes32",
          "name": "newAdminRole",
          "type": "bytes32"
        }
      ],
      "name": "RoleAdminChanged",
      "type": "event"
    },
    {
      "anonymous": false,
      "inputs": [
        {
          "indexed": true,
          "internalType": "bytes32",
          "name": "role",
          "type": "bytes32"
        },
        {
          "indexed": true,
          "internalType": "address",
          "name": "account",
          "type": "address"
        },
        {
          "indexed": true,
          "internalType": "address",
          "name": "sender",
          "type": "address"
        }
      ],
      "name": "RoleGranted",
      "type": "event"
    },
    {
      "anonymous": false,
      "inputs": [
        {
          "indexed": true,
          "internalType": "bytes32",
          "name": "role",
          "type": "bytes32"
        },
        {
          "indexed": true,
          "internalType": "address",
          "name": "account",
          "type": "address"
        },
        {
          "indexed": true,
          "internalType": "address",
          "name": "sender",
          "type": "address"
        }
      ],
      "name": "RoleRevoked",
      "type": "event"
    },
    {
      "anonymous": false,
      "inputs": [
        {
          "indexed": false,
          "internalType": "address",
          "name": "account",
          "type": "address"
        }
      ],
      "name": "Unpaused",
      "type": "event"
    },
    {
      "inputs": [],
      "name": "CONTRACT_ADMIN_ROLE",
      "outputs": [
        {
          "internalType": "bytes32",
          "name": "",
          "type": "bytes32"
        }
      ],
      "stateMutability": "view",
      "type": "function"
    },
    {
      "inputs": [],
      "name": "DEFAULT_ADMIN_ROLE",
      "outputs": [
        {
          "internalType": "bytes32",
          "name": "",
          "type": "bytes32"
        }
      ],
      "stateMutability": "view",
      "type": "function"
    },
    {
      "inputs": [],
      "name": "PAUSER_ROLE",
      "outputs": [
        {
          "internalType": "bytes32",
          "name": "",
          "type": "bytes32"
        }
      ],
      "stateMutability": "view",
      "type": "function"
    },
    {
      "inputs": [],
      "name": "STAKE_PAYER_ROLE",
      "outputs": [
        {
          "internalType": "bytes32",
          "name": "",
          "type": "bytes32"
        }
      ],
      "stateMutability": "view",
      "type": "function"
    },
    {
      "inputs": [
        {
          "internalType": "bytes32",
          "name": "role",
          "type": "bytes32"
        }
      ],
      "name": "getRoleAdmin",
      "outputs": [
        {
          "internalType": "bytes32",
          "name": "",
          "type": "bytes32"
        }
      ],
      "stateMutability": "view",
      "type": "function"
    },
    {
      "inputs": [
        {
          "internalType": "bytes32",
          "name": "role",
          "type": "bytes32"
        },
        {
          "internalType": "address",
          "name": "account",
          "type": "address"
        }
      ],
      "name": "grantRole",
      "outputs": [],
      "stateMutability": "nonpayable",
      "type": "function"
    },
    {
      "inputs": [
        {
          "internalType": "bytes32",
          "name": "role",
          "type": "bytes32"
        },
        {
          "internalType": "address",
          "name": "account",
          "type": "address"
        }
      ],
      "name": "hasRole",
      "outputs": [
        {
          "internalType": "bool",
          "name": "",
          "type": "bool"
        }
      ],
      "stateMutability": "view",
      "type": "function"
    },
    {
      "inputs": [],
      "name": "paused",
      "outputs": [
        {
          "internalType": "bool",
          "name": "",
          "type": "bool"
        }
      ],
      "stateMutability": "view",
      "type": "function"
    },
    {
      "inputs": [
        {
          "internalType": "bytes32",
          "name": "role",
          "type": "bytes32"
        },
        {
          "internalType": "address",
          "name": "account",
          "type": "address"
        }
      ],
      "name": "renounceRole",
      "outputs": [],
      "stateMutability": "nonpayable",
      "type": "function"
    },
    {
      "inputs": [
        {
          "internalType": "bytes32",
          "name": "role",
          "type": "bytes32"
        },
        {
          "internalType": "address",
          "name": "account",
          "type": "address"
        }
      ],
      "name": "revokeRole",
      "outputs": [],
      "stateMutability": "nonpayable",
      "type": "function"
    },
    {
      "inputs": [
        {
          "internalType": "bytes4",
          "name": "interfaceId",
          "type": "bytes4"
        }
      ],
      "name": "supportsInterface",
      "outputs": [
        {
          "internalType": "bool",
          "name": "",
          "type": "bool"
        }
      ],
      "stateMutability": "view",
      "type": "function"
    },
    {
      "inputs": [
        {
          "internalType": "address",
          "name": "_utilAddress",
          "type": "address"
        },
        {
          "internalType": "address",
          "name": "_stakeAddress",
          "type": "address"
        }
      ],
      "name": "setTokenContracts",
      "outputs": [],
      "stateMutability": "nonpayable",
      "type": "function"
    },
    {
      "inputs": [
        {
          "internalType": "uint256",
          "name": "_tokenId",
          "type": "uint256"
        },
        {
          "internalType": "uint256",
          "name": "_amount",
          "type": "uint256"
        }
      ],
      "name": "payRewards",
      "outputs": [],
      "stateMutability": "nonpayable",
      "type": "function"
    },
    {
      "inputs": [],
      "name": "pause",
      "outputs": [],
      "stateMutability": "nonpayable",
      "type": "function"
    },
    {
      "inputs": [],
      "name": "unpause",
      "outputs": [],
      "stateMutability": "nonpayable",
      "type": "function"
    }
  ],
  "bytecode": "0x608060405234801561001057600080fd5b50600160009081556002805460ff1916905561002c9033610085565b6100567f2ce8d04a9c35987429af538825cd2438cc5c5bb5dc427955f84daaa3ea10501633610085565b6100807f65d7a28e3265b37a6474929f336521b332c1681b933f6cb9f3376673440d862a33610085565b61011a565b61008f8282610093565b5050565b60008281526001602090815260408083206001600160a01b038516845290915290205460ff1661008f5760008281526001602081815260408084206001600160a01b0386168086529252808420805460ff19169093179092559051339285917f2f8788117e7eff1d82e926ec794901d17c78024a50270940304540a733656f0d9190a45050565b610e4e806101296000396000f3fe608060405234801561001057600080fd5b50600436106100f55760003560e01c80637bbedf1211610097578063a217fddf11610066578063a217fddf1461020b578063d547741f14610213578063e63ab1e914610226578063e914b70c1461024d57600080fd5b80637bbedf12146101b65780638456cb59146101dd57806388af138b146101e557806391d14854146101f857600080fd5b80632f2ff15d116100d35780632f2ff15d1461017b57806336568abe146101905780633f4ba83a146101a35780635c975abb146101ab57600080fd5b806301ffc9a7146100fa5780631da0331214610122578063248a9ca314610157575b600080fd5b61010d610108366004610c4c565b610260565b60405190151581526020015b60405180910390f35b6101497f2ce8d04a9c35987429af538825cd2438cc5c5bb5dc427955f84daaa3ea10501681565b604051908152602001610119565b610149610165366004610c0e565b6000908152600160208190526040909120015490565b61018e610189366004610c27565b610297565b005b61018e61019e366004610c27565b6102c3565b61018e610346565b60025460ff1661010d565b6101497fea2071546f3776019ddbd612f64af2a13b2a9bcc7334c3cdc51ac60e2630e4c181565b61018e6103c6565b61018e6101f3366004610c76565b610444565b61010d610206366004610c27565b61067a565b610149600081565b61018e610221366004610c27565b6106a5565b6101497f65d7a28e3265b37a6474929f336521b332c1681b933f6cb9f3376673440d862a81565b61018e61025b366004610bb3565b6106cc565b60006001600160e01b03198216637965db0b60e01b148061029157506301ffc9a760e01b6001600160e01b03198316145b92915050565b600082815260016020819052604090912001546102b481336107af565b6102be8383610813565b505050565b6001600160a01b03811633146103385760405162461bcd60e51b815260206004820152602f60248201527f416363657373436f6e74726f6c3a2063616e206f6e6c792072656e6f756e636560448201526e103937b632b9903337b91039b2b63360891b60648201526084015b60405180910390fd5b610342828261087e565b5050565b6103707f65d7a28e3265b37a6474929f336521b332c1681b933f6cb9f3376673440d862a3361067a565b6103bc5760405162461bcd60e51b815260206004820152601e60248201527f52563a4d4f442d49503a2043616c6c657220215041555345525f524f4c450000604482015260640161032f565b6103c46108e5565b565b6103f07f65d7a28e3265b37a6474929f336521b332c1681b933f6cb9f3376673440d862a3361067a565b61043c5760405162461bcd60e51b815260206004820152601e60248201527f52563a4d4f442d49503a2043616c6c657220215041555345525f524f4c450000604482015260640161032f565b6103c4610978565b600260005414156104975760405162461bcd60e51b815260206004820152601f60248201527f5265656e7472616e637947756172643a207265656e7472616e742063616c6c00604482015260640161032f565b60026000556104a860025460ff1690565b156104e85760405162461bcd60e51b815260206004820152601060248201526f14185d5cd8589b194e881c185d5cd95960821b604482015260640161032f565b6105127fea2071546f3776019ddbd612f64af2a13b2a9bcc7334c3cdc51ac60e2630e4c13361067a565b61056a5760405162461bcd60e51b8152602060048201526024808201527f52563a4d4f442d4953503a2043616c6c657220215354414b455f50415945525f604482015263524f4c4560e01b606482015260840161032f565b6005546040516331a9108f60e11b8152600481018490526000916001600160a01b031690636352211e9060240160206040518083038186803b1580156105af57600080fd5b505afa1580156105c3573d6000803e3d6000fd5b505050506040513d601f19601f820116820180604052508101906105e79190610b96565b60035460405163a9059cbb60e01b81526001600160a01b0380841660048301526024820186905292935091169063a9059cbb90604401602060405180830381600087803b15801561063757600080fd5b505af115801561064b573d6000803e3d6000fd5b505050506040513d601f19601f8201168201806040525081019061066f9190610bec565b505060016000555050565b60009182526001602090815260408084206001600160a01b0393909316845291905290205460ff1690565b600082815260016020819052604090912001546106c281336107af565b6102be838361087e565b6106f67f2ce8d04a9c35987429af538825cd2438cc5c5bb5dc427955f84daaa3ea1050163361067a565b6107525760405162461bcd60e51b815260206004820152602760248201527f52563a4d4f443a2d4943412043616c6c65722021434f4e54524143545f41444d604482015266494e5f524f4c4560c81b606482015260840161032f565b60028054610100600160a81b0319166101006001600160a01b0394851681029190911791829055600380549190920484166001600160a01b0319918216179091556004805482169290931691821790925560058054909216179055565b6107b9828261067a565b610342576107d1816001600160a01b031660146109f3565b6107dc8360206109f3565b6040516020016107ed929190610c98565b60408051601f198184030181529082905262461bcd60e51b825261032f91600401610d0d565b61081d828261067a565b6103425760008281526001602081815260408084206001600160a01b0386168086529252808420805460ff19169093179092559051339285917f2f8788117e7eff1d82e926ec794901d17c78024a50270940304540a733656f0d9190a45050565b610888828261067a565b156103425760008281526001602090815260408083206001600160a01b0385168085529252808320805460ff1916905551339285917ff6391f5c32d9c69d2a47ea670b442974b53935d1edc7fd64eb21e047a839171b9190a45050565b60025460ff1661092e5760405162461bcd60e51b815260206004820152601460248201527314185d5cd8589b194e881b9bdd081c185d5cd95960621b604482015260640161032f565b6002805460ff191690557f5db9ee0a495bf2e6ff9c91a7834c1ba4fdd244a5e8aa4e537bd38aeae4b073aa335b6040516001600160a01b03909116815260200160405180910390a1565b60025460ff16156109be5760405162461bcd60e51b815260206004820152601060248201526f14185d5cd8589b194e881c185d5cd95960821b604482015260640161032f565b6002805460ff191660011790557f62e78cea01bee320cd4e420270b5ea74000d11b0c9f74754ebdbfc544b05a25861095b3390565b60606000610a02836002610d58565b610a0d906002610d40565b67ffffffffffffffff811115610a2557610a25610dea565b6040519080825280601f01601f191660200182016040528015610a4f576020820181803683370190505b509050600360fc1b81600081518110610a6a57610a6a610dd4565b60200101906001600160f81b031916908160001a905350600f60fb1b81600181518110610a9957610a99610dd4565b60200101906001600160f81b031916908160001a9053506000610abd846002610d58565b610ac8906001610d40565b90505b6001811115610b40576f181899199a1a9b1b9c1cb0b131b232b360811b85600f1660108110610afc57610afc610dd4565b1a60f81b828281518110610b1257610b12610dd4565b60200101906001600160f81b031916908160001a90535060049490941c93610b3981610da7565b9050610acb565b508315610b8f5760405162461bcd60e51b815260206004820181905260248201527f537472696e67733a20686578206c656e67746820696e73756666696369656e74604482015260640161032f565b9392505050565b600060208284031215610ba857600080fd5b8151610b8f81610e00565b60008060408385031215610bc657600080fd5b8235610bd181610e00565b91506020830135610be181610e00565b809150509250929050565b600060208284031215610bfe57600080fd5b81518015158114610b8f57600080fd5b600060208284031215610c2057600080fd5b5035919050565b60008060408385031215610c3a57600080fd5b823591506020830135610be181610e00565b600060208284031215610c5e57600080fd5b81356001600160e01b031981168114610b8f57600080fd5b60008060408385031215610c8957600080fd5b50508035926020909101359150565b7f416363657373436f6e74726f6c3a206163636f756e7420000000000000000000815260008351610cd0816017850160208801610d77565b7001034b99036b4b9b9b4b733903937b6329607d1b6017918401918201528351610d01816028840160208801610d77565b01602801949350505050565b6020815260008251806020840152610d2c816040850160208701610d77565b601f01601f19169190910160400192915050565b60008219821115610d5357610d53610dbe565b500190565b6000816000190483118215151615610d7257610d72610dbe565b500290565b60005b83811015610d92578181015183820152602001610d7a565b83811115610da1576000848401525b50505050565b600081610db657610db6610dbe565b506000190190565b634e487b7160e01b600052601160045260246000fd5b634e487b7160e01b600052603260045260246000fd5b634e487b7160e01b600052604160045260246000fd5b6001600160a01b0381168114610e1557600080fd5b5056fea2646970667358221220dd5a5fc20b6f84a0816653709c9a117b9fc5fdb4c2a133189fbc14a5a745a5fd64736f6c63430008070033",
  "immutableReferences": {},
  "source": "/*--------------------------------------------------------PRF0.8.7\n__/\\\\\\\\\\\\\\\\\\\\\\\\\\ _____/\\\\\\\\\\\\\\\\\\ _______/\\\\__/\\\\ ___/\\\\\\\\\\\\\\\\\\\\\\\\\\\\\\        \n__\\/\\\\\\/////////\\\\\\ _/\\\\\\///////\\\\\\ ____\\//__\\//____\\/\\\\\\///////////__       \n___\\/\\\\\\_______\\/\\\\\\_\\/\\\\\\_____\\/\\\\\\ ________________\\/\\\\\\ ____________      \n____\\/\\\\\\\\\\\\\\\\\\\\\\\\\\/__\\/\\\\\\\\\\\\\\\\\\\\\\/_____/\\\\\\____/\\\\\\_\\/\\\\\\\\\\\\\\\\\\\\\\ ____     \n_____\\/\\\\\\/////////____\\/\\\\\\//////\\\\\\ ___\\/\\\\\\___\\/\\\\\\_\\/\\\\\\///////______\n______\\/\\\\\\ ____________\\/\\\\\\ ___\\//\\\\\\ __\\/\\\\\\___\\/\\\\\\_\\/\\\\\\ ____________\n_______\\/\\\\\\ ____________\\/\\\\\\ ____\\//\\\\\\ _\\/\\\\\\___\\/\\\\\\_\\/\\\\\\ ____________\n________\\/\\\\\\ ____________\\/\\\\\\ _____\\//\\\\\\_\\//\\\\\\\\\\\\\\\\\\ _\\/\\\\\\ ____________\n_________\\/// _____________\\/// _______\\/// __\\///////// __\\/// _____________\n*---------------------------------------------------------------------------*/\n\n/**-----------------------------------------------------------------\n *PRUF Rewards Vault\n *Holds PRUF to send to stakers, funded by the team with the stake rewards amount as needed\n *---------------------------------------------------------------\n */\n\n// SPDX-License-Identifier: UNLICENSED\npragma solidity ^0.8.7;\n\nimport \"../Resources/RESOURCE_PRUF_INTERFACES.sol\";\nimport \"../Resources/RESOURCE_PRUF_TKN_INTERFACES.sol\";\nimport \"../Imports/access/AccessControl.sol\";\nimport \"../Imports/security/Pausable.sol\";\nimport \"../Imports/security/ReentrancyGuard.sol\";\nimport \"../Imports/token/ERC721/IERC721.sol\";\n\ncontract REWARDS_VAULT is ReentrancyGuard, AccessControl, Pausable {\n    bytes32 public constant CONTRACT_ADMIN_ROLE =\n        keccak256(\"CONTRACT_ADMIN_ROLE\");\n    bytes32 public constant PAUSER_ROLE = keccak256(\"PAUSER_ROLE\");\n    bytes32 public constant STAKE_PAYER_ROLE = keccak256(\"STAKE_PAYER_ROLE\");\n\n    address internal UTIL_TKN_Address;\n    UTIL_TKN_Interface internal UTIL_TKN;\n\n    address internal STAKE_TKN_Address;\n    STAKE_TKN_Interface internal STAKE_TKN;\n\n    constructor() {\n        _setupRole(DEFAULT_ADMIN_ROLE, _msgSender());\n        _setupRole(CONTRACT_ADMIN_ROLE, _msgSender());\n        _setupRole(PAUSER_ROLE, _msgSender());\n    }\n\n    // --------------------------------------Modifiers--------------------------------------------//\n\n    /**\n     * @dev Verify user credentials\n     * Originating Address:\n     *      Has CONTRACT_ADMIN_ROLE role\n     */\n    modifier isContractAdmin() {\n        require(\n            hasRole(CONTRACT_ADMIN_ROLE, _msgSender()),\n            \"RV:MOD:-ICA Caller !CONTRACT_ADMIN_ROLE\"\n        );\n        _;\n    }\n\n    /**\n     * @dev Verify user credentials\n     * Originating Address:\n     *      Has PAUSER_ROLE role\n     */\n    modifier isPauser() {\n        require(\n            hasRole(PAUSER_ROLE, _msgSender()),\n            \"RV:MOD-IP: Caller !PAUSER_ROLE\"\n        );\n        _;\n    }\n\n    /**\n     * @dev Verify user credentials\n     * Originating Address:\n     *      Has STAKE_PAYER_ROLE role\n     */\n    modifier isStakePayer() {\n        require(\n            hasRole(STAKE_PAYER_ROLE, _msgSender()),\n            \"RV:MOD-ISP: Caller !STAKE_PAYER_ROLE\"\n        );\n        _;\n    }\n\n    //--------------------------------------External functions--------------------------------------------//\n\n    /**\n     * @dev Set address of contracts to interface with\n     * @param _utilAddress address of UTIL_TKN\n     * @param _stakeAddress address of STAKE_TKN\n     */\n    function setTokenContracts(address _utilAddress, address _stakeAddress)\n        external\n        isContractAdmin\n    {\n        //^^^^^^^checks^^^^^^^^^\n\n        UTIL_TKN_Address = _utilAddress;\n        UTIL_TKN = UTIL_TKN_Interface(UTIL_TKN_Address);\n\n        STAKE_TKN_Address = _stakeAddress;\n        STAKE_TKN = STAKE_TKN_Interface(STAKE_TKN_Address);\n        //^^^^^^^effects^^^^^^^^^\n    }\n\n    /**\n     * @dev Sends (amount) pruf to ownerOf(tokenId)\n     * @param _tokenId - stake key token ID\n     * @param _amount - amount to pay to owner of (tokenId)\n     */\n    function payRewards(uint256 _tokenId, uint256 _amount)\n        external\n        nonReentrant\n        whenNotPaused\n        isStakePayer\n    {\n        //^^^^^^^checks^^^^^^^^^\n\n        address recipient = STAKE_TKN.ownerOf(_tokenId);\n        UTIL_TKN.transfer(recipient, _amount);\n        //^^^^^^^interactions^^^^^^^^\n    }\n\n    /**\n     * @dev Pauses contract.\n     *\n     * See {ERC721Pausable} and {Pausable-_pause}.\n     */\n    function pause() external isPauser {\n        _pause();\n    }\n\n    /**\n     * @dev Unpauses contract.\n     *\n     * See {ERC721Pausable} and {Pausable-_unpause}.\n     */\n    function unpause() external isPauser {\n        _unpause();\n    }\n}\n",
  "sourcePath": "/Users/drake/Documents/DEV/PRUF/PRUF_TRUFFLE/contracts/Released/PRUF_REWARDS_VAULT.sol",
  "compiler": {
    "name": "solc",
    "version": "0.8.7+commit.e28d00a7.Emscripten.clang"
  },
  "schemaVersion": "3.4.3",
  "updatedAt": "2021-10-26T17:58:04.226Z",
  "devdoc": {
    "kind": "dev",
    "methods": {
      "getRoleAdmin(bytes32)": {
        "details": "Returns the admin role that controls `role`. See {grantRole} and {revokeRole}. To change a role's admin, use {_setRoleAdmin}."
      },
      "grantRole(bytes32,address)": {
        "details": "Grants `role` to `account`. If `account` had not been already granted `role`, emits a {RoleGranted} event. Requirements: - the caller must have ``role``'s admin role."
      },
      "hasRole(bytes32,address)": {
        "details": "Returns `true` if `account` has been granted `role`."
      },
      "pause()": {
        "details": "Pauses contract. See {ERC721Pausable} and {Pausable-_pause}."
      },
      "paused()": {
        "details": "Returns true if the contract is paused, and false otherwise."
      },
      "payRewards(uint256,uint256)": {
        "details": "Sends (amount) pruf to ownerOf(tokenId)",
        "params": {
          "_amount": "- amount to pay to owner of (tokenId)",
          "_tokenId": "- stake key token ID"
        }
      },
      "renounceRole(bytes32,address)": {
        "details": "Revokes `role` from the calling account. Roles are often managed via {grantRole} and {revokeRole}: this function's purpose is to provide a mechanism for accounts to lose their privileges if they are compromised (such as when a trusted device is misplaced). If the calling account had been granted `role`, emits a {RoleRevoked} event. Requirements: - the caller must be `account`."
      },
      "revokeRole(bytes32,address)": {
        "details": "Revokes `role` from `account`. If `account` had been granted `role`, emits a {RoleRevoked} event. Requirements: - the caller must have ``role``'s admin role."
      },
      "setTokenContracts(address,address)": {
        "details": "Set address of contracts to interface with",
        "params": {
          "_stakeAddress": "address of STAKE_TKN",
          "_utilAddress": "address of UTIL_TKN"
        }
      },
      "supportsInterface(bytes4)": {
        "details": "See {IERC165-supportsInterface}."
      },
      "unpause()": {
        "details": "Unpauses contract. See {ERC721Pausable} and {Pausable-_unpause}."
      }
    },
    "version": 1
  },
  "userdoc": {
    "kind": "user",
    "methods": {},
    "version": 1
  }
}