{
  "contractName": "SafeCastMock",
  "abi": [
    {
      "inputs": [
        {
          "internalType": "int256",
          "name": "a",
          "type": "int256"
        }
      ],
      "name": "toUint256",
      "outputs": [
        {
          "internalType": "uint256",
          "name": "",
          "type": "uint256"
        }
      ],
      "stateMutability": "pure",
      "type": "function"
    },
    {
      "inputs": [
        {
          "internalType": "uint256",
          "name": "a",
          "type": "uint256"
        }
      ],
      "name": "toInt256",
      "outputs": [
        {
          "internalType": "int256",
          "name": "",
          "type": "int256"
        }
      ],
      "stateMutability": "pure",
      "type": "function"
    },
    {
      "inputs": [
        {
          "internalType": "uint256",
          "name": "a",
          "type": "uint256"
        }
      ],
      "name": "toUint128",
      "outputs": [
        {
          "internalType": "uint128",
          "name": "",
          "type": "uint128"
        }
      ],
      "stateMutability": "pure",
      "type": "function"
    },
    {
      "inputs": [
        {
          "internalType": "uint256",
          "name": "a",
          "type": "uint256"
        }
      ],
      "name": "toUint64",
      "outputs": [
        {
          "internalType": "uint64",
          "name": "",
          "type": "uint64"
        }
      ],
      "stateMutability": "pure",
      "type": "function"
    },
    {
      "inputs": [
        {
          "internalType": "uint256",
          "name": "a",
          "type": "uint256"
        }
      ],
      "name": "toUint32",
      "outputs": [
        {
          "internalType": "uint32",
          "name": "",
          "type": "uint32"
        }
      ],
      "stateMutability": "pure",
      "type": "function"
    },
    {
      "inputs": [
        {
          "internalType": "uint256",
          "name": "a",
          "type": "uint256"
        }
      ],
      "name": "toUint16",
      "outputs": [
        {
          "internalType": "uint16",
          "name": "",
          "type": "uint16"
        }
      ],
      "stateMutability": "pure",
      "type": "function"
    },
    {
      "inputs": [
        {
          "internalType": "uint256",
          "name": "a",
          "type": "uint256"
        }
      ],
      "name": "toUint8",
      "outputs": [
        {
          "internalType": "uint8",
          "name": "",
          "type": "uint8"
        }
      ],
      "stateMutability": "pure",
      "type": "function"
    },
    {
      "inputs": [
        {
          "internalType": "int256",
          "name": "a",
          "type": "int256"
        }
      ],
      "name": "toInt128",
      "outputs": [
        {
          "internalType": "int128",
          "name": "",
          "type": "int128"
        }
      ],
      "stateMutability": "pure",
      "type": "function"
    },
    {
      "inputs": [
        {
          "internalType": "int256",
          "name": "a",
          "type": "int256"
        }
      ],
      "name": "toInt64",
      "outputs": [
        {
          "internalType": "int64",
          "name": "",
          "type": "int64"
        }
      ],
      "stateMutability": "pure",
      "type": "function"
    },
    {
      "inputs": [
        {
          "internalType": "int256",
          "name": "a",
          "type": "int256"
        }
      ],
      "name": "toInt32",
      "outputs": [
        {
          "internalType": "int32",
          "name": "",
          "type": "int32"
        }
      ],
      "stateMutability": "pure",
      "type": "function"
    },
    {
      "inputs": [
        {
          "internalType": "int256",
          "name": "a",
          "type": "int256"
        }
      ],
      "name": "toInt16",
      "outputs": [
        {
          "internalType": "int16",
          "name": "",
          "type": "int16"
        }
      ],
      "stateMutability": "pure",
      "type": "function"
    },
    {
      "inputs": [
        {
          "internalType": "int256",
          "name": "a",
          "type": "int256"
        }
      ],
      "name": "toInt8",
      "outputs": [
        {
          "internalType": "int8",
          "name": "",
          "type": "int8"
        }
      ],
      "stateMutability": "pure",
      "type": "function"
    }
  ],
  "bytecode": "0x608060405234801561001057600080fd5b50610871806100206000396000f3fe608060405234801561001057600080fd5b50600436106100b45760003560e01c8063cf65b4d311610071578063cf65b4d314610206578063d6bd32aa1461023a578063dd2a03161461026e578063dfbe873b146102a2578063f136dc02146102d1578063fdcf791b14610305576100b4565b80630cc4681e146100b95780632665fad0146100ec578063809fdd33146101265780639374068f146101685780639c6f59be1461019c578063c8193255146101d0575b600080fd5b6100d6600480360360208110156100cf57600080fd5b5035610322565b6040805160ff9092168252519081900360200190f35b6101096004803603602081101561010257600080fd5b5035610333565b6040805167ffffffffffffffff9092168252519081900360200190f35b6101436004803603602081101561013c57600080fd5b503561033e565b604080516fffffffffffffffffffffffffffffffff9092168252519081900360200190f35b6101856004803603602081101561017e57600080fd5b5035610349565b6040805161ffff9092168252519081900360200190f35b6101b9600480360360208110156101b257600080fd5b5035610354565b6040805160039290920b8252519081900360200190f35b6101ed600480360360208110156101e657600080fd5b503561035f565b6040805163ffffffff9092168252519081900360200190f35b6102236004803603602081101561021c57600080fd5b503561036a565b6040805160019290920b8252519081900360200190f35b6102576004803603602081101561025057600080fd5b5035610375565b6040805160079290920b8252519081900360200190f35b61028b6004803603602081101561028457600080fd5b5035610380565b60408051600f9290920b8252519081900360200190f35b6102bf600480360360208110156102b857600080fd5b503561038b565b60408051918252519081900360200190f35b6102ee600480360360208110156102e757600080fd5b5035610396565b6040805160009290920b8252519081900360200190f35b6102bf6004803603602081101561031b57600080fd5b50356103a1565b600061032d826103ac565b92915050565b600061032d826103f2565b600061032d8261043b565b600061032d8261047f565b600061032d826104c2565b600061032d82610517565b600061032d8261055c565b600061032d826105ad565b600061032d8261060a565b600061032d8261066b565b600061032d826106af565b600061032d826106fe565b600061010082106103ee5760405162461bcd60e51b815260040180806020018281038252602581526020018061077c6025913960400191505060405180910390fd5b5090565b60006801000000000000000082106103ee5760405162461bcd60e51b81526004018080602001828103825260268152602001806107c86026913960400191505060405180910390fd5b6000600160801b82106103ee5760405162461bcd60e51b81526004018080602001828103825260278152602001806107a16027913960400191505060405180910390fd5b60006201000082106103ee5760405162461bcd60e51b81526004018080602001828103825260268152602001806107566026913960400191505060405180910390fd5b6000637fffffff1982121580156104dc5750638000000082125b6103ee5760405162461bcd60e51b81526004018080602001828103825260268152602001806107ee6026913960400191505060405180910390fd5b600064010000000082106103ee5760405162461bcd60e51b81526004018080602001828103825260268152602001806107ee6026913960400191505060405180910390fd5b6000617fff198212158015610572575061800082125b6103ee5760405162461bcd60e51b81526004018080602001828103825260268152602001806107566026913960400191505060405180910390fd5b6000677fffffffffffffff1982121580156105cf575067800000000000000082125b6103ee5760405162461bcd60e51b81526004018080602001828103825260268152602001806107c86026913960400191505060405180910390fd5b60006f7fffffffffffffffffffffffffffffff19821215801561063057506001607f1b82125b6103ee5760405162461bcd60e51b81526004018080602001828103825260278152602001806107a16027913960400191505060405180910390fd5b6000600160ff1b82106103ee5760405162461bcd60e51b81526004018080602001828103825260288152602001806108146028913960400191505060405180910390fd5b6000607f1982121580156106c35750608082125b6103ee5760405162461bcd60e51b815260040180806020018281038252602581526020018061077c6025913960400191505060405180910390fd5b6000808212156103ee576040805162461bcd60e51b815260206004820181905260248201527f53616665436173743a2076616c7565206d75737420626520706f736974697665604482015290519081900360640190fdfe53616665436173743a2076616c756520646f65736e27742066697420696e203136206269747353616665436173743a2076616c756520646f65736e27742066697420696e2038206269747353616665436173743a2076616c756520646f65736e27742066697420696e20313238206269747353616665436173743a2076616c756520646f65736e27742066697420696e203634206269747353616665436173743a2076616c756520646f65736e27742066697420696e203332206269747353616665436173743a2076616c756520646f65736e27742066697420696e20616e20696e74323536a2646970667358221220d301d7deda0dd98d0e4a6ccfcc4b4eef2828d2eb8b8f59c60fb870573f9afd5964736f6c634300060c0033",
  "immutableReferences": {},
  "source": "// SPDX-License-Identifier: MIT\n\npragma solidity ^0.6.0;\n\nimport \"../utils/SafeCast.sol\";\n\ncontract SafeCastMock {\n    using SafeCast for uint;\n    using SafeCast for int;\n\n    function toUint256(int a) public pure returns (uint256) {\n        return a.toUint256();\n    }\n\n    function toInt256(uint a) public pure returns (int256) {\n        return a.toInt256();\n    }\n\n    function toUint128(uint a) public pure returns (uint128) {\n        return a.toUint128();\n    }\n\n    function toUint64(uint a) public pure returns (uint64) {\n        return a.toUint64();\n    }\n\n    function toUint32(uint a) public pure returns (uint32) {\n        return a.toUint32();\n    }\n\n    function toUint16(uint a) public pure returns (uint16) {\n        return a.toUint16();\n    }\n\n    function toUint8(uint a) public pure returns (uint8) {\n        return a.toUint8();\n    }\n\n    function toInt128(int a) public pure returns (int128) {\n        return a.toInt128();\n    }\n\n    function toInt64(int a) public pure returns (int64) {\n        return a.toInt64();\n    }\n\n    function toInt32(int a) public pure returns (int32) {\n        return a.toInt32();\n    }\n\n    function toInt16(int a) public pure returns (int16) {\n        return a.toInt16();\n    }\n\n    function toInt8(int a) public pure returns (int8) {\n        return a.toInt8();\n    }\n}\n",
  "sourcePath": "/Users/cts/dev/PRUF/PRUF_TRUFFLE/contracts/Imports/mocks/SafeCastMock.sol",
  "compiler": {
    "name": "solc",
    "version": "0.6.12+commit.27d51765.Emscripten.clang"
  },
  "schemaVersion": "3.2.3",
  "updatedAt": "2020-09-22T21:30:52.159Z",
  "devdoc": {
    "kind": "dev",
    "methods": {},
    "version": 1
  },
  "userdoc": {
    "kind": "user",
    "methods": {},
    "version": 1
  }
}