{
  "contractName": "SHAR_TKN",
  "abi": [
    {
      "inputs": [],
      "stateMutability": "nonpayable",
      "type": "constructor"
    },
    {
      "anonymous": false,
      "inputs": [
        {
          "indexed": true,
          "internalType": "address",
          "name": "owner",
          "type": "address"
        },
        {
          "indexed": true,
          "internalType": "address",
          "name": "approved",
          "type": "address"
        },
        {
          "indexed": true,
          "internalType": "uint256",
          "name": "tokenId",
          "type": "uint256"
        }
      ],
      "name": "Approval",
      "type": "event"
    },
    {
      "anonymous": false,
      "inputs": [
        {
          "indexed": true,
          "internalType": "address",
          "name": "owner",
          "type": "address"
        },
        {
          "indexed": true,
          "internalType": "address",
          "name": "operator",
          "type": "address"
        },
        {
          "indexed": false,
          "internalType": "bool",
          "name": "approved",
          "type": "bool"
        }
      ],
      "name": "ApprovalForAll",
      "type": "event"
    },
    {
      "anonymous": false,
      "inputs": [
        {
          "indexed": true,
          "internalType": "address",
          "name": "previousOwner",
          "type": "address"
        },
        {
          "indexed": true,
          "internalType": "address",
          "name": "newOwner",
          "type": "address"
        }
      ],
      "name": "OwnershipTransferred",
      "type": "event"
    },
    {
      "anonymous": false,
      "inputs": [
        {
          "indexed": false,
          "internalType": "string",
          "name": "_msg",
          "type": "string"
        }
      ],
      "name": "REPORT",
      "type": "event"
    },
    {
      "anonymous": false,
      "inputs": [
        {
          "indexed": true,
          "internalType": "address",
          "name": "from",
          "type": "address"
        },
        {
          "indexed": true,
          "internalType": "address",
          "name": "to",
          "type": "address"
        },
        {
          "indexed": true,
          "internalType": "uint256",
          "name": "tokenId",
          "type": "uint256"
        }
      ],
      "name": "Transfer",
      "type": "event"
    },
    {
      "inputs": [
        {
          "internalType": "address",
          "name": "to",
          "type": "address"
        },
        {
          "internalType": "uint256",
          "name": "tokenId",
          "type": "uint256"
        }
      ],
      "name": "approve",
      "outputs": [],
      "stateMutability": "nonpayable",
      "type": "function"
    },
    {
      "inputs": [
        {
          "internalType": "address",
          "name": "owner",
          "type": "address"
        }
      ],
      "name": "balanceOf",
      "outputs": [
        {
          "internalType": "uint256",
          "name": "",
          "type": "uint256"
        }
      ],
      "stateMutability": "view",
      "type": "function"
    },
    {
      "inputs": [],
      "name": "baseURI",
      "outputs": [
        {
          "internalType": "string",
          "name": "",
          "type": "string"
        }
      ],
      "stateMutability": "view",
      "type": "function"
    },
    {
      "inputs": [
        {
          "internalType": "uint256",
          "name": "tokenId",
          "type": "uint256"
        }
      ],
      "name": "getApproved",
      "outputs": [
        {
          "internalType": "address",
          "name": "",
          "type": "address"
        }
      ],
      "stateMutability": "view",
      "type": "function"
    },
    {
      "inputs": [
        {
          "internalType": "address",
          "name": "owner",
          "type": "address"
        },
        {
          "internalType": "address",
          "name": "operator",
          "type": "address"
        }
      ],
      "name": "isApprovedForAll",
      "outputs": [
        {
          "internalType": "bool",
          "name": "",
          "type": "bool"
        }
      ],
      "stateMutability": "view",
      "type": "function"
    },
    {
      "inputs": [],
      "name": "name",
      "outputs": [
        {
          "internalType": "string",
          "name": "",
          "type": "string"
        }
      ],
      "stateMutability": "view",
      "type": "function"
    },
    {
      "inputs": [],
      "name": "owner",
      "outputs": [
        {
          "internalType": "address",
          "name": "",
          "type": "address"
        }
      ],
      "stateMutability": "view",
      "type": "function"
    },
    {
      "inputs": [
        {
          "internalType": "uint256",
          "name": "tokenId",
          "type": "uint256"
        }
      ],
      "name": "ownerOf",
      "outputs": [
        {
          "internalType": "address",
          "name": "",
          "type": "address"
        }
      ],
      "stateMutability": "view",
      "type": "function"
    },
    {
      "inputs": [],
      "name": "renounceOwnership",
      "outputs": [],
      "stateMutability": "nonpayable",
      "type": "function"
    },
    {
      "inputs": [
        {
          "internalType": "address",
          "name": "operator",
          "type": "address"
        },
        {
          "internalType": "bool",
          "name": "approved",
          "type": "bool"
        }
      ],
      "name": "setApprovalForAll",
      "outputs": [],
      "stateMutability": "nonpayable",
      "type": "function"
    },
    {
      "inputs": [
        {
          "internalType": "bytes4",
          "name": "interfaceId",
          "type": "bytes4"
        }
      ],
      "name": "supportsInterface",
      "outputs": [
        {
          "internalType": "bool",
          "name": "",
          "type": "bool"
        }
      ],
      "stateMutability": "view",
      "type": "function"
    },
    {
      "inputs": [],
      "name": "symbol",
      "outputs": [
        {
          "internalType": "string",
          "name": "",
          "type": "string"
        }
      ],
      "stateMutability": "view",
      "type": "function"
    },
    {
      "inputs": [
        {
          "internalType": "uint256",
          "name": "index",
          "type": "uint256"
        }
      ],
      "name": "tokenByIndex",
      "outputs": [
        {
          "internalType": "uint256",
          "name": "",
          "type": "uint256"
        }
      ],
      "stateMutability": "view",
      "type": "function"
    },
    {
      "inputs": [
        {
          "internalType": "address",
          "name": "owner",
          "type": "address"
        },
        {
          "internalType": "uint256",
          "name": "index",
          "type": "uint256"
        }
      ],
      "name": "tokenOfOwnerByIndex",
      "outputs": [
        {
          "internalType": "uint256",
          "name": "",
          "type": "uint256"
        }
      ],
      "stateMutability": "view",
      "type": "function"
    },
    {
      "inputs": [
        {
          "internalType": "uint256",
          "name": "tokenId",
          "type": "uint256"
        }
      ],
      "name": "tokenURI",
      "outputs": [
        {
          "internalType": "string",
          "name": "",
          "type": "string"
        }
      ],
      "stateMutability": "view",
      "type": "function"
    },
    {
      "inputs": [],
      "name": "totalSupply",
      "outputs": [
        {
          "internalType": "uint256",
          "name": "",
          "type": "uint256"
        }
      ],
      "stateMutability": "view",
      "type": "function"
    },
    {
      "inputs": [
        {
          "internalType": "address",
          "name": "newOwner",
          "type": "address"
        }
      ],
      "name": "transferOwnership",
      "outputs": [],
      "stateMutability": "nonpayable",
      "type": "function"
    },
    {
      "inputs": [
        {
          "internalType": "address",
          "name": "_recipientAddress",
          "type": "address"
        },
        {
          "internalType": "uint256",
          "name": "tokenId",
          "type": "uint256"
        }
      ],
      "name": "mintPRUF_SHARE",
      "outputs": [
        {
          "internalType": "uint256",
          "name": "",
          "type": "uint256"
        }
      ],
      "stateMutability": "nonpayable",
      "type": "function"
    },
    {
      "inputs": [
        {
          "internalType": "uint256",
          "name": "tokenId",
          "type": "uint256"
        },
        {
          "internalType": "string",
          "name": "_tokenURI",
          "type": "string"
        }
      ],
      "name": "setURI",
      "outputs": [
        {
          "internalType": "uint256",
          "name": "",
          "type": "uint256"
        }
      ],
      "stateMutability": "nonpayable",
      "type": "function"
    },
    {
      "inputs": [
        {
          "internalType": "uint256",
          "name": "tokenId",
          "type": "uint256"
        }
      ],
      "name": "tokenExists",
      "outputs": [
        {
          "internalType": "uint8",
          "name": "",
          "type": "uint8"
        }
      ],
      "stateMutability": "view",
      "type": "function"
    },
    {
      "inputs": [
        {
          "internalType": "address",
          "name": "from",
          "type": "address"
        },
        {
          "internalType": "address",
          "name": "to",
          "type": "address"
        },
        {
          "internalType": "uint256",
          "name": "tokenId",
          "type": "uint256"
        }
      ],
      "name": "transferFrom",
      "outputs": [],
      "stateMutability": "nonpayable",
      "type": "function"
    },
    {
      "inputs": [
        {
          "internalType": "address",
          "name": "from",
          "type": "address"
        },
        {
          "internalType": "address",
          "name": "to",
          "type": "address"
        },
        {
          "internalType": "uint256",
          "name": "tokenId",
          "type": "uint256"
        }
      ],
      "name": "safeTransferFrom",
      "outputs": [],
      "stateMutability": "nonpayable",
      "type": "function"
    },
    {
      "inputs": [
        {
          "internalType": "address",
          "name": "from",
          "type": "address"
        },
        {
          "internalType": "address",
          "name": "to",
          "type": "address"
        },
        {
          "internalType": "uint256",
          "name": "tokenId",
          "type": "uint256"
        },
        {
          "internalType": "bytes",
          "name": "_data",
          "type": "bytes"
        }
      ],
      "name": "safeTransferFrom",
      "outputs": [],
      "stateMutability": "nonpayable",
      "type": "function"
    }
  ],
  "bytecode": "0x60806040526064600b553480156200001657600080fd5b506040518060400160405280600e81526020016d282961de231024a2102a37b5b2b760911b8152506040518060400160405280600381526020016214125160ea1b81525060006200006c6200013260201b60201c565b600080546001600160a01b0319166001600160a01b0383169081178255604051929350917f8be0079c531659141344cd1fd0a4f28419497f9722a3daafe3b4186f6b6457e0908290a350620000c86301ffc9a760e01b62000136565b8151620000dd906007906020850190620001be565b508051620000f3906008906020840190620001be565b50620001066380ac58cd60e01b62000136565b62000118635b5e139f60e01b62000136565b6200012a63780e9d6360e01b62000136565b50506200025a565b3390565b6001600160e01b0319808216141562000196576040805162461bcd60e51b815260206004820152601c60248201527f4552433136353a20696e76616c696420696e7465726661636520696400000000604482015290519081900360640190fd5b6001600160e01b0319166000908152600160208190526040909120805460ff19169091179055565b828054600181600116156101000203166002900490600052602060002090601f016020900481019282601f106200020157805160ff191683800117855562000231565b8280016001018555821562000231579182015b828111156200023157825182559160200191906001019062000214565b506200023f92915062000243565b5090565b5b808211156200023f576000815560010162000244565b61227b806200026a6000396000f3fe608060405234801561001057600080fd5b506004361061014c5760003560e01c80636c0360eb116100c3578063a22cb4651161007c578063a22cb4651461044c578063b88d4fde1461047a578063c79685a214610540578063c87b56dd1461056c578063e985e9c514610589578063f2fde38b146105b75761014c565b80636c0360eb1461038f57806370a0823114610397578063715018a6146103bd578063862440e2146103c55780638da5cb5b1461043c57806395d89b41146104445761014c565b806318160ddd1161011557806318160ddd146102a357806323b872dd146102bd5780632f745c59146102f357806342842e0e1461031f5780634f6ccce7146103555780636352211e146103725761014c565b8062923f9e1461015157806301ffc9a71461018457806306fdde03146101bf578063081812fc1461023c578063095ea7b314610275575b600080fd5b61016e6004803603602081101561016757600080fd5b50356105dd565b6040805160ff9092168252519081900360200190f35b6101ab6004803603602081101561019a57600080fd5b50356001600160e01b0319166105fe565b604080519115158252519081900360200190f35b6101c761061d565b6040805160208082528351818301528351919283929083019185019080838360005b838110156102015781810151838201526020016101e9565b50505050905090810190601f16801561022e5780820380516001836020036101000a031916815260200191505b509250505060405180910390f35b6102596004803603602081101561025257600080fd5b50356106b3565b604080516001600160a01b039092168252519081900360200190f35b6102a16004803603604081101561028b57600080fd5b506001600160a01b038135169060200135610715565b005b6102ab6107f0565b60408051918252519081900360200190f35b6102a1600480360360608110156102d357600080fd5b506001600160a01b03813581169160208101359091169060400135610801565b6102ab6004803603604081101561030957600080fd5b506001600160a01b038135169060200135610858565b6102a16004803603606081101561033557600080fd5b506001600160a01b03813581169160208101359091169060400135610883565b6102ab6004803603602081101561036b57600080fd5b503561089e565b6102596004803603602081101561038857600080fd5b50356108b4565b6101c76108dc565b6102ab600480360360208110156103ad57600080fd5b50356001600160a01b031661093d565b6102a16109a5565b6102ab600480360360408110156103db57600080fd5b813591908101906040810160208201356401000000008111156103fd57600080fd5b82018360208201111561040f57600080fd5b8035906020019184600183028401116401000000008311171561043157600080fd5b509092509050610a59565b610259610af1565b6101c7610b00565b6102a16004803603604081101561046257600080fd5b506001600160a01b0381351690602001351515610b61565b6102a16004803603608081101561049057600080fd5b6001600160a01b038235811692602081013590911691604082013591908101906080810160608201356401000000008111156104cb57600080fd5b8201836020820111156104dd57600080fd5b803590602001918460018302840111640100000000831117156104ff57600080fd5b91908080601f016020809104026020016040519081016040528093929190818152602001838380828437600092019190915250929550610c66945050505050565b6102ab6004803603604081101561055657600080fd5b506001600160a01b038135169060200135610d09565b6101c76004803603602081101561058257600080fd5b5035610df1565b6101ab6004803603604081101561059f57600080fd5b506001600160a01b0381358116916020013516611098565b6102a1600480360360208110156105cd57600080fd5b50356001600160a01b03166110c6565b60006105e8826111d0565b156105f5575060aa6105f9565b5060005b919050565b6001600160e01b03191660009081526001602052604090205460ff1690565b60078054604080516020601f60026000196101006001881615020190951694909404938401819004810282018101909252828152606093909290918301828280156106a95780601f1061067e576101008083540402835291602001916106a9565b820191906000526020600020905b81548152906001019060200180831161068c57829003601f168201915b5050505050905090565b60006106be826111d0565b6106f95760405162461bcd60e51b815260040180806020018281038252602c8152602001806120de602c913960400191505060405180910390fd5b506000908152600560205260409020546001600160a01b031690565b6000610720826108b4565b9050806001600160a01b0316836001600160a01b031614156107735760405162461bcd60e51b81526004018080602001828103825260218152602001806121bf6021913960400191505060405180910390fd5b806001600160a01b03166107856111dd565b6001600160a01b031614806107a657506107a6816107a16111dd565b611098565b6107e15760405162461bcd60e51b81526004018080602001828103825260388152602001806120316038913960400191505060405180910390fd5b6107eb83836111e1565b505050565b60006107fc600361124f565b905090565b61081261080c6111dd565b8261125a565b61084d5760405162461bcd60e51b815260040180806020018281038252602f815260200180612217602f913960400191505060405180910390fd5b6107eb8383836112fe565b6001600160a01b038216600090815260026020526040812061087a908361144a565b90505b92915050565b6107eb83838360405180602001604052806000815250610c66565b6000806108ac600384611456565b509392505050565b600061087d826040518060600160405280602981526020016120936029913960039190611472565b600a8054604080516020601f60026000196101006001881615020190951694909404938401819004810282018101909252828152606093909290918301828280156106a95780601f1061067e576101008083540402835291602001916106a9565b60006001600160a01b0382166109845760405162461bcd60e51b815260040180806020018281038252602a815260200180612069602a913960400191505060405180910390fd5b6001600160a01b038216600090815260026020526040902061087d9061124f565b6109ad6111dd565b6000546001600160a01b03908116911614610a0f576040805162461bcd60e51b815260206004820181905260248201527f4f776e61626c653a2063616c6c6572206973206e6f7420746865206f776e6572604482015290519081900360640190fd5b600080546040516001600160a01b03909116907f8be0079c531659141344cd1fd0a4f28419497f9722a3daafe3b4186f6b6457e0908390a3600080546001600160a01b0319169055565b6000610a6c610a666111dd565b8561125a565b610aa75760405162461bcd60e51b815260040180806020018281038252602a815260200180611f7d602a913960400191505060405180910390fd5b610ae78484848080601f01602080910402602001604051908101604052809392919081815260200183838082843760009201919091525061147f92505050565b50825b9392505050565b6000546001600160a01b031690565b60088054604080516020601f60026000196101006001881615020190951694909404938401819004810282018101909252828152606093909290918301828280156106a95780601f1061067e576101008083540402835291602001916106a9565b610b696111dd565b6001600160a01b0316826001600160a01b03161415610bcf576040805162461bcd60e51b815260206004820152601960248201527f4552433732313a20617070726f766520746f2063616c6c657200000000000000604482015290519081900360640190fd5b8060066000610bdc6111dd565b6001600160a01b03908116825260208083019390935260409182016000908120918716808252919093529120805460ff191692151592909217909155610c206111dd565b6001600160a01b03167f17307eab39ab6107e8899845ad3d59bd9653f200f220920489ca2b5937696c318360405180821515815260200191505060405180910390a35050565b610c77610c716111dd565b8361125a565b610cb25760405162461bcd60e51b815260040180806020018281038252603181526020018061218e6031913960400191505060405180910390fd5b6001600160a01b038316610cf75760405162461bcd60e51b815260040180806020018281038252603a815260200180611ff7603a913960400191505060405180910390fd5b610d03848484846114e2565b50505050565b6000610d13610af1565b6001600160a01b0316336001600160a01b031614610d625760405162461bcd60e51b81526004018080602001828103825260378152602001806121e06037913960400191505060405180910390fd5b600b54610d6d6107f0565b1115610daa5760405162461bcd60e51b8152600401808060200182810382526032815260200180611f4b6032913960400191505060405180910390fd5b610db48383611534565b610deb826040518060400160405280601581526020017468747470733a2f2f707275662e696f2f534841524560581b81525061147f565b50919050565b6060610dfc826111d0565b610e375760405162461bcd60e51b815260040180806020018281038252602f81526020018061215f602f913960400191505060405180910390fd5b60008281526009602090815260409182902080548351601f6002600019610100600186161502019093169290920491820184900484028101840190945280845260609392830182828015610ecc5780601f10610ea157610100808354040283529160200191610ecc565b820191906000526020600020905b815481529060010190602001808311610eaf57829003601f168201915b5050600a5493945050505060026000196101006001841615020190911604610ef55790506105f9565b805115610fc657600a816040516020018083805460018160011615610100020316600290048015610f5d5780601f10610f3b576101008083540402835291820191610f5d565b820191906000526020600020905b815481529060010190602001808311610f49575b5050825160208401908083835b60208310610f895780518252601f199092019160209182019101610f6a565b6001836020036101000a038019825116818451168082178552505050505050905001925050506040516020818303038152906040529150506105f9565b600a610fd184611552565b604051602001808380546001816001161561010002031660029004801561102f5780601f1061100d57610100808354040283529182019161102f565b820191906000526020600020905b81548152906001019060200180831161101b575b5050825160208401908083835b6020831061105b5780518252601f19909201916020918201910161103c565b6001836020036101000a03801982511681845116808217855250505050505090500192505050604051602081830303815290604052915050919050565b6001600160a01b03918216600090815260066020908152604080832093909416825291909152205460ff1690565b6110ce6111dd565b6000546001600160a01b03908116911614611130576040805162461bcd60e51b815260206004820181905260248201527f4f776e61626c653a2063616c6c6572206973206e6f7420746865206f776e6572604482015290519081900360640190fd5b6001600160a01b0381166111755760405162461bcd60e51b8152600401808060200182810382526026815260200180611f256026913960400191505060405180910390fd5b600080546040516001600160a01b03808516939216917f8be0079c531659141344cd1fd0a4f28419497f9722a3daafe3b4186f6b6457e091a3600080546001600160a01b0319166001600160a01b0392909216919091179055565b600061087d60038361162d565b3390565b600081815260056020526040902080546001600160a01b0319166001600160a01b0384169081179091558190611216826108b4565b6001600160a01b03167f8c5be1e5ebec7d5bd14f71427d1e84f3dd0314c0f7b2291e5b200ac8c7c3b92560405160405180910390a45050565b600061087d82611639565b6000611265826111d0565b6112a05760405162461bcd60e51b815260040180806020018281038252602c815260200180611fcb602c913960400191505060405180910390fd5b60006112ab836108b4565b9050806001600160a01b0316846001600160a01b031614806112e65750836001600160a01b03166112db846106b3565b6001600160a01b0316145b806112f657506112f68185611098565b949350505050565b826001600160a01b0316611311826108b4565b6001600160a01b0316146113565760405162461bcd60e51b81526004018080602001828103825260298152602001806121366029913960400191505060405180910390fd5b6001600160a01b03821661139b5760405162461bcd60e51b8152600401808060200182810382526024815260200180611fa76024913960400191505060405180910390fd5b6113a68383836107eb565b6113b16000826111e1565b6001600160a01b03831660009081526002602052604090206113d3908261163d565b506001600160a01b03821660009081526002602052604090206113f69082611649565b5061140360038284611655565b5080826001600160a01b0316846001600160a01b03167fddf252ad1be2c89b69c2b068fc378daa952ba7f163c4a11628f55a4df523b3ef60405160405180910390a4505050565b600061087a838361166b565b600080808061146586866116cf565b9097909650945050505050565b60006112f684848461174a565b611488826111d0565b6114c35760405162461bcd60e51b815260040180806020018281038252602c81526020018061210a602c913960400191505060405180910390fd5b600082815260096020908152604090912082516107eb92840190611e3d565b6114ed8484846112fe565b6114f984848484611814565b610d035760405162461bcd60e51b8152600401808060200182810382526032815260200180611ef36032913960400191505060405180910390fd5b61154e82826040518060200160405280600081525061197c565b5050565b60608161157757506040805180820190915260018152600360fc1b60208201526105f9565b8160005b811561158f57600101600a8204915061157b565b60608167ffffffffffffffff811180156115a857600080fd5b506040519080825280601f01601f1916602001820160405280156115d3576020820181803683370190505b50859350905060001982015b831561162457600a840660300160f81b8282806001900393508151811061160257fe5b60200101906001600160f81b031916908160001a905350600a840493506115df565b50949350505050565b600061087a83836119ce565b5490565b600061087a83836119e6565b600061087a8383611aac565b60006112f684846001600160a01b038516611af6565b815460009082106116ad5760405162461bcd60e51b8152600401808060200182810382526022815260200180611ed16022913960400191505060405180910390fd5b8260000182815481106116bc57fe5b9060005260206000200154905092915050565b8154600090819083106117135760405162461bcd60e51b81526004018080602001828103825260228152602001806120bc6022913960400191505060405180910390fd5b600084600001848154811061172457fe5b906000526020600020906002020190508060000154816001015492509250509250929050565b600082815260018401602052604081205482816117e55760405162461bcd60e51b81526004018080602001828103825283818151815260200191508051906020019080838360005b838110156117aa578181015183820152602001611792565b50505050905090810190601f1680156117d75780820380516001836020036101000a031916815260200191505b509250505060405180910390fd5b508460000160018203815481106117f857fe5b9060005260206000209060020201600101549150509392505050565b6000611828846001600160a01b0316611b8d565b611834575060016112f6565b6060611942630a85bd0160e11b6118496111dd565b88878760405160240180856001600160a01b03168152602001846001600160a01b0316815260200183815260200180602001828103825283818151815260200191508051906020019080838360005b838110156118b0578181015183820152602001611898565b50505050905090810190601f1680156118dd5780820380516001836020036101000a031916815260200191505b5095505050505050604051602081830303815290604052906001600160e01b0319166020820180516001600160e01b038381831617835250505050604051806060016040528060328152602001611ef3603291396001600160a01b0388169190611b93565b9050600081806020019051602081101561195b57600080fd5b50516001600160e01b031916630a85bd0160e11b1492505050949350505050565b6119868383611ba2565b6119936000848484611814565b6107eb5760405162461bcd60e51b8152600401808060200182810382526032815260200180611ef36032913960400191505060405180910390fd5b60009081526001919091016020526040902054151590565b60008181526001830160205260408120548015611aa25783546000198083019190810190600090879083908110611a1957fe5b9060005260206000200154905080876000018481548110611a3657fe5b600091825260208083209091019290925582815260018981019092526040902090840190558654879080611a6657fe5b6001900381819060005260206000200160009055905586600101600087815260200190815260200160002060009055600194505050505061087d565b600091505061087d565b6000611ab883836119ce565b611aee5750815460018181018455600084815260208082209093018490558454848252828601909352604090209190915561087d565b50600061087d565b600082815260018401602052604081205480611b5b575050604080518082018252838152602080820184815286546001818101895560008981528481209551600290930290950191825591519082015586548684528188019092529290912055610aea565b82856000016001830381548110611b6e57fe5b9060005260206000209060020201600101819055506000915050610aea565b3b151590565b60606112f68484600085611cd0565b6001600160a01b038216611bfd576040805162461bcd60e51b815260206004820181905260248201527f4552433732313a206d696e7420746f20746865207a65726f2061646472657373604482015290519081900360640190fd5b611c06816111d0565b15611c58576040805162461bcd60e51b815260206004820152601c60248201527f4552433732313a20746f6b656e20616c7265616479206d696e74656400000000604482015290519081900360640190fd5b611c64600083836107eb565b6001600160a01b0382166000908152600260205260409020611c869082611649565b50611c9360038284611655565b5060405181906001600160a01b038416906000907fddf252ad1be2c89b69c2b068fc378daa952ba7f163c4a11628f55a4df523b3ef908290a45050565b6060611cdb85611b8d565b611d2c576040805162461bcd60e51b815260206004820152601d60248201527f416464726573733a2063616c6c20746f206e6f6e2d636f6e7472616374000000604482015290519081900360640190fd5b60006060866001600160a01b031685876040518082805190602001908083835b60208310611d6b5780518252601f199092019160209182019101611d4c565b6001836020036101000a03801982511681845116808217855250505050505090500191505060006040518083038185875af1925050503d8060008114611dcd576040519150601f19603f3d011682016040523d82523d6000602084013e611dd2565b606091505b50915091508115611de65791506112f69050565b805115611df65780518082602001fd5b60405162461bcd60e51b81526020600482018181528651602484015286518793919283926044019190850190808383600083156117aa578181015183820152602001611792565b828054600181600116156101000203166002900490600052602060002090601f016020900481019282601f10611e7e57805160ff1916838001178555611eab565b82800160010185558215611eab579182015b82811115611eab578251825591602001919060010190611e90565b50611eb7929150611ebb565b5090565b5b80821115611eb75760008155600101611ebc56fe456e756d657261626c655365743a20696e646578206f7574206f6620626f756e64734552433732313a207472616e7366657220746f206e6f6e20455243373231526563656976657220696d706c656d656e7465724f776e61626c653a206e6577206f776e657220697320746865207a65726f2061646472657373504944543a535552493a43616e6e6f74206d696e7420746f6b656e2e204d6178203130304b20534841524520746f6b656e73504944543a535552493a63616c6c6572206973206e6f74206f776e6572206e6f7220617070726f7665644552433732313a207472616e7366657220746f20746865207a65726f20616464726573734552433732313a206f70657261746f7220717565727920666f72206e6f6e6578697374656e7420746f6b656e41543a5354463a43616e6e6f74207472616e7366657220617373657420746f207a65726f20616464726573732e2055736520646973636172642e4552433732313a20617070726f76652063616c6c6572206973206e6f74206f776e6572206e6f7220617070726f76656420666f7220616c6c4552433732313a2062616c616e636520717565727920666f7220746865207a65726f20616464726573734552433732313a206f776e657220717565727920666f72206e6f6e6578697374656e7420746f6b656e456e756d657261626c654d61703a20696e646578206f7574206f6620626f756e64734552433732313a20617070726f76656420717565727920666f72206e6f6e6578697374656e7420746f6b656e4552433732314d657461646174613a2055524920736574206f66206e6f6e6578697374656e7420746f6b656e4552433732313a207472616e73666572206f6620746f6b656e2074686174206973206e6f74206f776e4552433732314d657461646174613a2055524920717565727920666f72206e6f6e6578697374656e7420746f6b656e41543a5354463a207472616e736665722063616c6c6572206973206e6f74206f776e6572206e6f7220617070726f7665644552433732313a20617070726f76616c20746f2063757272656e74206f776e6572504944543a4d4f442d49413a43616c6c696e67206164647265737320646f6573206e6f742062656c6f6e6720746f20616e2041646d696e41543a54463a7472616e736665722063616c6c6572206973206e6f74206f776e6572206e6f7220617070726f766564a2646970667358221220b4009156ec1e1fcebcafe31eda0a75a1714b992cd5c91c0fe7aa8008b9b1ce6664736f6c634300060c0033",
  "immutableReferences": {},
  "source": "/*-----------------------------------------------------------V0.7.0\n__/\\\\\\\\\\\\\\\\\\\\\\\\\\ _____/\\\\\\\\\\\\\\\\\\ _______/\\\\../\\\\ ___/\\\\\\\\\\\\\\\\\\\\\\\\\\\\\\\n _\\/\\\\\\/////////\\\\\\ _/\\\\\\///////\\\\\\ ____\\//..\\//____\\/\\\\\\///////////__\n  _\\/\\\\\\.......\\/\\\\\\.\\/\\\\\\.....\\/\\\\\\ ________________\\/\\\\\\ ____________\n   _\\/\\\\\\\\\\\\\\\\\\\\\\\\\\/__\\/\\\\\\\\\\\\\\\\\\\\\\/_____/\\\\\\____/\\\\\\.\\/\\\\\\\\\\\\\\\\\\\\\\ ____\n    _\\/\\\\\\/////////____\\/\\\\\\//////\\\\\\ ___\\/\\\\\\___\\/\\\\\\.\\/\\\\\\///////______\n     _\\/\\\\\\ ____________\\/\\\\\\ ___\\//\\\\\\ __\\/\\\\\\___\\/\\\\\\.\\/\\\\\\ ____________\n      _\\/\\\\\\ ____________\\/\\\\\\ ____\\//\\\\\\ _\\/\\\\\\___\\/\\\\\\.\\/\\\\\\ ____________\n       _\\/\\\\\\ ____________\\/\\\\\\ _____\\//\\\\\\.\\//\\\\\\\\\\\\\\\\\\ _\\/\\\\\\ ____________\n        _\\/// _____________\\/// _______\\/// __\\///////// __\\/// _____________\n         *-------------------------------------------------------------------*/\n\n/*-----------------------------------------------------------------\n *  TO DO\n *\n *---------------------------------------------------------------*/\n\n// SPDX-License-Identifier: UNLICENSED\npragma solidity ^0.6.7;\n\nimport \"./Imports/token/ERC721/ERC721.sol\";\nimport \"./Imports/access/Ownable.sol\";\nimport \"./PRUF_INTERFACES.sol\";\nimport \"./Imports/utils/ReentrancyGuard.sol\";\n\n\ncontract SHAR_TKN is Ownable, ERC721 {\n    constructor() public ERC721(\"PRF ID Token\", \"PID\") {}\n\n    event REPORT(string _msg);\n\n    uint256 private maxSupply =  100;  //set max supply (100000?)\n\n    modifier isAdmin() {\n        require(\n            (msg.sender == owner()),\n            \"PIDT:MOD-IA:Calling address does not belong to an Admin\"\n        );\n        _;\n    }\n\n    //----------------------Internal Admin functions / onlyowner or isAdmin----------------------//\n\n    /*\n     * @dev Mint new PRUF_ID token\n     */\n    function mintPRUF_SHARE(address _recipientAddress, uint256 tokenId)\n        external\n        isAdmin\n        returns (uint256)\n    {\n        require(\n            totalSupply() <= maxSupply,\n            \"PIDT:SURI:Cannot mint token. Max 100K SHARE tokens\"\n        );\n        //^^^^^^^checks^^^^^^^^^\n\n        //MAKE URI ASSET SPECIFIC- has to incorporate the token ID\n        _safeMint(_recipientAddress, tokenId);\n        _setTokenURI(tokenId, \"https://pruf.io/SHARE\");\n        return tokenId;\n        //^^^^^^^interactions^^^^^^^^^\n    }\n\n\n    /*\n     * @dev Set new token URI String\n     */\n    function setURI(uint256 tokenId, string calldata _tokenURI)\n        external\n        returns (uint256)\n    {\n        require(\n            _isApprovedOrOwner(_msgSender(), tokenId),\n            \"PIDT:SURI:caller is not owner nor approved\"\n        );\n        //^^^^^^^checks^^^^^^^^^\n\n        _setTokenURI(tokenId, _tokenURI);\n        return tokenId;\n        //^^^^^^^interactions^^^^^^^^^\n    }\n\n    /*\n     * @dev See if token exists\n     */\n    function tokenExists(uint256 tokenId) external view returns (uint8) {\n        if (_exists(tokenId)) {\n            return 170;\n        } else {\n            return 0;\n        }\n    }\n\n       /**\n     * @dev Transfers the ownership of a given token ID to another address.\n     * Usage of this method is discouraged, use {safeTransferFrom} whenever possible.\n     * Requires the msg.sender to be the owner, approved, or operator.\n     * @param from current owner of the token\n     * @param to address to receive the ownership of the given token ID\n     * @param tokenId uint256 ID of the token to be transferred\n     */\n    function transferFrom(\n        address from,\n        address to,\n        uint256 tokenId\n    ) public override {\n        \n        require(\n            _isApprovedOrOwner(_msgSender(), tokenId),\n            \"AT:TF:transfer caller is not owner nor approved\"\n        );\n        //^^^^^^^checks^^^^^^^^^\n\n        _transfer(from, to, tokenId);\n        //^^^^^^^interactions^^^^^^^^^\n    }\n\n    /**\n     * @dev Safely transfers the ownership of a given token ID to another address\n     * If the target address is a contract, it must implement {IERC721Receiver-onERC721Received},\n     * which is called upon a safe transfer, and return the magic value\n     * `bytes4(keccak256(\"onERC721Received(address,address,uint256,bytes)\"))`; otherwise,\n     * the transfer is reverted.\n     * Requires the msg.sender to be the owner, approved, or operator\n     * @param from current owner of the token\n     * @param to address to receive the ownership of the given token ID\n     * @param tokenId uint256 ID of the token to be transferred\n     */\n    function safeTransferFrom(\n        address from,\n        address to,\n        uint256 tokenId\n    ) public override {\n        //^^^^^^^checks^^^^^^^^^\n\n        safeTransferFrom(from, to, tokenId, \"\");\n        //^^^^^^^interactions^^^^^^^^^\n    }\n\n    /**\n     * @dev Safely transfers the ownership of a given token ID to another address\n     * If the target address is a contract, it must implement {IERC721Receiver-onERC721Received},\n     * which is called upon a safe transfer, and return the magic value\n     * `bytes4(keccak256(\"onERC721Received(address,address,uint256,bytes)\"))`; otherwise,\n     * the transfer is reverted.\n     * Requires the _msgSender() to be the owner, approved, or operator\n     * @param from current owner of the token\n     * @param to address to receive the ownership of the given token ID\n     * @param tokenId uint256 ID of the token to be transferred\n     * @param _data bytes data to send along with a safe transfer check\n     */\n    function safeTransferFrom(\n        address from,\n        address to,\n        uint256 tokenId,\n        bytes memory _data\n    ) public virtual override {\n        require(\n            _isApprovedOrOwner(_msgSender(), tokenId),\n            \"AT:STF: transfer caller is not owner nor approved\"\n        );\n        require(\n            to != address(0),\n            \"AT:STF:Cannot transfer asset to zero address. Use discard.\"\n        );\n\n        _safeTransfer(from, to, tokenId, _data);\n        //^^^^^^^interactions^^^^^^^^^\n    }\n}\n",
  "sourcePath": "/Users/cts/dev/PRUF/PRUF_TRUFFLE/contracts/PRUF_SHAR_TKN.sol",
  "compiler": {
    "name": "solc",
    "version": "0.6.12+commit.27d51765.Emscripten.clang"
  },
  "schemaVersion": "3.2.3",
  "updatedAt": "2020-09-22T21:30:52.929Z",
  "devdoc": {
    "kind": "dev",
    "methods": {
      "approve(address,uint256)": {
        "details": "See {IERC721-approve}."
      },
      "balanceOf(address)": {
        "details": "See {IERC721-balanceOf}."
      },
      "baseURI()": {
        "details": "Returns the base URI set via {_setBaseURI}. This will be automatically added as a prefix in {tokenURI} to each token's URI, or to the token ID if no specific URI is set for that token ID."
      },
      "getApproved(uint256)": {
        "details": "See {IERC721-getApproved}."
      },
      "isApprovedForAll(address,address)": {
        "details": "See {IERC721-isApprovedForAll}."
      },
      "name()": {
        "details": "See {IERC721Metadata-name}."
      },
      "owner()": {
        "details": "Returns the address of the current owner."
      },
      "ownerOf(uint256)": {
        "details": "See {IERC721-ownerOf}."
      },
      "renounceOwnership()": {
        "details": "Leaves the contract without owner. It will not be possible to call `onlyOwner` functions anymore. Can only be called by the current owner. NOTE: Renouncing ownership will leave the contract without an owner, thereby removing any functionality that is only available to the owner."
      },
      "safeTransferFrom(address,address,uint256)": {
        "details": "Safely transfers the ownership of a given token ID to another address If the target address is a contract, it must implement {IERC721Receiver-onERC721Received}, which is called upon a safe transfer, and return the magic value `bytes4(keccak256(\"onERC721Received(address,address,uint256,bytes)\"))`; otherwise, the transfer is reverted. Requires the msg.sender to be the owner, approved, or operator",
        "params": {
          "from": "current owner of the token",
          "to": "address to receive the ownership of the given token ID",
          "tokenId": "uint256 ID of the token to be transferred"
        }
      },
      "safeTransferFrom(address,address,uint256,bytes)": {
        "details": "Safely transfers the ownership of a given token ID to another address If the target address is a contract, it must implement {IERC721Receiver-onERC721Received}, which is called upon a safe transfer, and return the magic value `bytes4(keccak256(\"onERC721Received(address,address,uint256,bytes)\"))`; otherwise, the transfer is reverted. Requires the _msgSender() to be the owner, approved, or operator",
        "params": {
          "_data": "bytes data to send along with a safe transfer check",
          "from": "current owner of the token",
          "to": "address to receive the ownership of the given token ID",
          "tokenId": "uint256 ID of the token to be transferred"
        }
      },
      "setApprovalForAll(address,bool)": {
        "details": "See {IERC721-setApprovalForAll}."
      },
      "supportsInterface(bytes4)": {
        "details": "See {IERC165-supportsInterface}. Time complexity O(1), guaranteed to always use less than 30 000 gas."
      },
      "symbol()": {
        "details": "See {IERC721Metadata-symbol}."
      },
      "tokenByIndex(uint256)": {
        "details": "See {IERC721Enumerable-tokenByIndex}."
      },
      "tokenOfOwnerByIndex(address,uint256)": {
        "details": "See {IERC721Enumerable-tokenOfOwnerByIndex}."
      },
      "tokenURI(uint256)": {
        "details": "See {IERC721Metadata-tokenURI}."
      },
      "totalSupply()": {
        "details": "See {IERC721Enumerable-totalSupply}."
      },
      "transferFrom(address,address,uint256)": {
        "details": "Transfers the ownership of a given token ID to another address. Usage of this method is discouraged, use {safeTransferFrom} whenever possible. Requires the msg.sender to be the owner, approved, or operator.",
        "params": {
          "from": "current owner of the token",
          "to": "address to receive the ownership of the given token ID",
          "tokenId": "uint256 ID of the token to be transferred"
        }
      },
      "transferOwnership(address)": {
        "details": "Transfers ownership of the contract to a new account (`newOwner`). Can only be called by the current owner."
      }
    },
    "version": 1
  },
  "userdoc": {
    "kind": "user",
    "methods": {},
    "version": 1
  }
}