{
  "contractName": "SignedSafeMathMock",
  "abi": [
    {
      "inputs": [
        {
          "internalType": "int256",
          "name": "a",
          "type": "int256"
        },
        {
          "internalType": "int256",
          "name": "b",
          "type": "int256"
        }
      ],
      "name": "mul",
      "outputs": [
        {
          "internalType": "int256",
          "name": "",
          "type": "int256"
        }
      ],
      "stateMutability": "pure",
      "type": "function"
    },
    {
      "inputs": [
        {
          "internalType": "int256",
          "name": "a",
          "type": "int256"
        },
        {
          "internalType": "int256",
          "name": "b",
          "type": "int256"
        }
      ],
      "name": "div",
      "outputs": [
        {
          "internalType": "int256",
          "name": "",
          "type": "int256"
        }
      ],
      "stateMutability": "pure",
      "type": "function"
    },
    {
      "inputs": [
        {
          "internalType": "int256",
          "name": "a",
          "type": "int256"
        },
        {
          "internalType": "int256",
          "name": "b",
          "type": "int256"
        }
      ],
      "name": "sub",
      "outputs": [
        {
          "internalType": "int256",
          "name": "",
          "type": "int256"
        }
      ],
      "stateMutability": "pure",
      "type": "function"
    },
    {
      "inputs": [
        {
          "internalType": "int256",
          "name": "a",
          "type": "int256"
        },
        {
          "internalType": "int256",
          "name": "b",
          "type": "int256"
        }
      ],
      "name": "add",
      "outputs": [
        {
          "internalType": "int256",
          "name": "",
          "type": "int256"
        }
      ],
      "stateMutability": "pure",
      "type": "function"
    }
  ],
  "bytecode": "0x608060405234801561001057600080fd5b50610416806100206000396000f3fe608060405234801561001057600080fd5b506004361061004c5760003560e01c80634350913814610051578063a5f3c23b14610086578063adefc37b146100a9578063bbe93d91146100cc575b600080fd5b6100746004803603604081101561006757600080fd5b50803590602001356100ef565b60408051918252519081900360200190f35b6100746004803603604081101561009c57600080fd5b5080359060200135610104565b610074600480360360408110156100bf57600080fd5b5080359060200135610110565b610074600480360360408110156100e257600080fd5b508035906020013561011c565b60006100fb8383610128565b90505b92915050565b60006100fb83836101e0565b60006100fb8383610245565b60006100fb83836102aa565b60008161017c576040805162461bcd60e51b815260206004820181905260248201527f5369676e6564536166654d6174683a206469766973696f6e206279207a65726f604482015290519081900360640190fd5b816000191480156101905750600160ff1b83145b156101cc5760405162461bcd60e51b81526004018080602001828103825260218152602001806103756021913960400191505060405180910390fd5b60008284816101d757fe5b05949350505050565b60008282018183128015906101f55750838112155b8061020a575060008312801561020a57508381125b6100fb5760405162461bcd60e51b81526004018080602001828103825260218152602001806103546021913960400191505060405180910390fd5b600081830381831280159061025a5750838113155b8061026f575060008312801561026f57508381135b6100fb5760405162461bcd60e51b81526004018080602001828103825260248152602001806103bd6024913960400191505060405180910390fd5b6000826102b9575060006100fe565b826000191480156102cd5750600160ff1b82145b156103095760405162461bcd60e51b81526004018080602001828103825260278152602001806103966027913960400191505060405180910390fd5b8282028284828161031657fe5b05146100fb5760405162461bcd60e51b81526004018080602001828103825260278152602001806103966027913960400191505060405180910390fdfe5369676e6564536166654d6174683a206164646974696f6e206f766572666c6f775369676e6564536166654d6174683a206469766973696f6e206f766572666c6f775369676e6564536166654d6174683a206d756c7469706c69636174696f6e206f766572666c6f775369676e6564536166654d6174683a207375627472616374696f6e206f766572666c6f77a2646970667358221220f7de05e0d125a7ae4780e3f6e85c6ce906fa68e1289a9f75758049b53e84b70964736f6c634300060c0033",
  "immutableReferences": {},
  "source": "// SPDX-License-Identifier: MIT\r\n\r\npragma solidity ^0.6.0;\r\n\r\nimport \"../math/SignedSafeMath.sol\";\r\n\r\ncontract SignedSafeMathMock {\r\n    function mul(int256 a, int256 b) public pure returns (int256) {\r\n        return SignedSafeMath.mul(a, b);\r\n    }\r\n\r\n    function div(int256 a, int256 b) public pure returns (int256) {\r\n        return SignedSafeMath.div(a, b);\r\n    }\r\n\r\n    function sub(int256 a, int256 b) public pure returns (int256) {\r\n        return SignedSafeMath.sub(a, b);\r\n    }\r\n\r\n    function add(int256 a, int256 b) public pure returns (int256) {\r\n        return SignedSafeMath.add(a, b);\r\n    }\r\n}\r\n",
  "sourcePath": "C:\\Users\\drake\\onedrive\\documents\\dev\\pruf\\PRUF_TRUFFLE\\contracts\\imports\\mocks\\SignedSafeMathMock.sol",
  "compiler": {
    "name": "solc",
    "version": "0.6.12+commit.27d51765.Emscripten.clang"
  },
  "schemaVersion": "3.2.2",
  "updatedAt": "2020-09-16T15:05:08.365Z",
  "devdoc": {
    "kind": "dev",
    "methods": {},
    "version": 1
  },
  "userdoc": {
    "kind": "user",
    "methods": {},
    "version": 1
  }
}