{
  "contractName": "STAT201",
  "abi": [
    {
      "anonymous": false,
      "inputs": [
        {
          "indexed": false,
          "internalType": "address",
          "name": "account",
          "type": "address"
        }
      ],
      "name": "Paused",
      "type": "event"
    },
    {
      "anonymous": false,
      "inputs": [
        {
          "indexed": false,
          "internalType": "string",
          "name": "_msg",
          "type": "string"
        }
      ],
      "name": "REPORT",
      "type": "event"
    },
    {
      "anonymous": false,
      "inputs": [
        {
          "indexed": true,
          "internalType": "bytes32",
          "name": "role",
          "type": "bytes32"
        },
        {
          "indexed": true,
          "internalType": "bytes32",
          "name": "previousAdminRole",
          "type": "bytes32"
        },
        {
          "indexed": true,
          "internalType": "bytes32",
          "name": "newAdminRole",
          "type": "bytes32"
        }
      ],
      "name": "RoleAdminChanged",
      "type": "event"
    },
    {
      "anonymous": false,
      "inputs": [
        {
          "indexed": true,
          "internalType": "bytes32",
          "name": "role",
          "type": "bytes32"
        },
        {
          "indexed": true,
          "internalType": "address",
          "name": "account",
          "type": "address"
        },
        {
          "indexed": true,
          "internalType": "address",
          "name": "sender",
          "type": "address"
        }
      ],
      "name": "RoleGranted",
      "type": "event"
    },
    {
      "anonymous": false,
      "inputs": [
        {
          "indexed": true,
          "internalType": "bytes32",
          "name": "role",
          "type": "bytes32"
        },
        {
          "indexed": true,
          "internalType": "address",
          "name": "account",
          "type": "address"
        },
        {
          "indexed": true,
          "internalType": "address",
          "name": "sender",
          "type": "address"
        }
      ],
      "name": "RoleRevoked",
      "type": "event"
    },
    {
      "anonymous": false,
      "inputs": [
        {
          "indexed": false,
          "internalType": "address",
          "name": "account",
          "type": "address"
        }
      ],
      "name": "Unpaused",
      "type": "event"
    },
    {
      "inputs": [],
      "name": "ASSET_TXFR_ROLE",
      "outputs": [
        {
          "internalType": "bytes32",
          "name": "",
          "type": "bytes32"
        }
      ],
      "stateMutability": "view",
      "type": "function"
    },
    {
      "inputs": [],
      "name": "CONTRACT_ADMIN_ROLE",
      "outputs": [
        {
          "internalType": "bytes32",
          "name": "",
          "type": "bytes32"
        }
      ],
      "stateMutability": "view",
      "type": "function"
    },
    {
      "inputs": [],
      "name": "DAO_ROLE",
      "outputs": [
        {
          "internalType": "bytes32",
          "name": "",
          "type": "bytes32"
        }
      ],
      "stateMutability": "view",
      "type": "function"
    },
    {
      "inputs": [],
      "name": "DEFAULT_ADMIN_ROLE",
      "outputs": [
        {
          "internalType": "bytes32",
          "name": "",
          "type": "bytes32"
        }
      ],
      "stateMutability": "view",
      "type": "function"
    },
    {
      "inputs": [
        {
          "internalType": "address",
          "name": "_tokenContract",
          "type": "address"
        },
        {
          "internalType": "address",
          "name": "_to",
          "type": "address"
        },
        {
          "internalType": "uint256",
          "name": "_amount",
          "type": "uint256"
        }
      ],
      "name": "ERC20Transfer",
      "outputs": [],
      "stateMutability": "nonpayable",
      "type": "function"
    },
    {
      "inputs": [
        {
          "internalType": "address",
          "name": "_tokenContract",
          "type": "address"
        },
        {
          "internalType": "address",
          "name": "_to",
          "type": "address"
        },
        {
          "internalType": "uint256",
          "name": "_tokenID",
          "type": "uint256"
        }
      ],
      "name": "ERC721Transfer",
      "outputs": [],
      "stateMutability": "nonpayable",
      "type": "function"
    },
    {
      "inputs": [],
      "name": "PAUSER_ROLE",
      "outputs": [
        {
          "internalType": "bytes32",
          "name": "",
          "type": "bytes32"
        }
      ],
      "stateMutability": "view",
      "type": "function"
    },
    {
      "inputs": [
        {
          "internalType": "bytes32",
          "name": "role",
          "type": "bytes32"
        }
      ],
      "name": "getRoleAdmin",
      "outputs": [
        {
          "internalType": "bytes32",
          "name": "",
          "type": "bytes32"
        }
      ],
      "stateMutability": "view",
      "type": "function"
    },
    {
      "inputs": [
        {
          "internalType": "bytes32",
          "name": "role",
          "type": "bytes32"
        },
        {
          "internalType": "address",
          "name": "account",
          "type": "address"
        }
      ],
      "name": "grantRole",
      "outputs": [],
      "stateMutability": "nonpayable",
      "type": "function"
    },
    {
      "inputs": [
        {
          "internalType": "bytes32",
          "name": "role",
          "type": "bytes32"
        },
        {
          "internalType": "address",
          "name": "account",
          "type": "address"
        }
      ],
      "name": "hasRole",
      "outputs": [
        {
          "internalType": "bool",
          "name": "",
          "type": "bool"
        }
      ],
      "stateMutability": "view",
      "type": "function"
    },
    {
      "inputs": [
        {
          "internalType": "address",
          "name": "",
          "type": "address"
        },
        {
          "internalType": "address",
          "name": "",
          "type": "address"
        },
        {
          "internalType": "uint256",
          "name": "",
          "type": "uint256"
        },
        {
          "internalType": "bytes",
          "name": "",
          "type": "bytes"
        }
      ],
      "name": "onERC721Received",
      "outputs": [
        {
          "internalType": "bytes4",
          "name": "",
          "type": "bytes4"
        }
      ],
      "stateMutability": "nonpayable",
      "type": "function"
    },
    {
      "inputs": [],
      "name": "pause",
      "outputs": [],
      "stateMutability": "nonpayable",
      "type": "function"
    },
    {
      "inputs": [],
      "name": "paused",
      "outputs": [
        {
          "internalType": "bool",
          "name": "",
          "type": "bool"
        }
      ],
      "stateMutability": "view",
      "type": "function"
    },
    {
      "inputs": [
        {
          "internalType": "bytes32",
          "name": "role",
          "type": "bytes32"
        },
        {
          "internalType": "address",
          "name": "account",
          "type": "address"
        }
      ],
      "name": "renounceRole",
      "outputs": [],
      "stateMutability": "nonpayable",
      "type": "function"
    },
    {
      "inputs": [],
      "name": "resolveContractAddresses",
      "outputs": [],
      "stateMutability": "nonpayable",
      "type": "function"
    },
    {
      "inputs": [
        {
          "internalType": "bytes32",
          "name": "role",
          "type": "bytes32"
        },
        {
          "internalType": "address",
          "name": "account",
          "type": "address"
        }
      ],
      "name": "revokeRole",
      "outputs": [],
      "stateMutability": "nonpayable",
      "type": "function"
    },
    {
      "inputs": [
        {
          "internalType": "address",
          "name": "_storageAddress",
          "type": "address"
        }
      ],
      "name": "setStorageContract",
      "outputs": [],
      "stateMutability": "nonpayable",
      "type": "function"
    },
    {
      "inputs": [
        {
          "internalType": "bytes4",
          "name": "interfaceId",
          "type": "bytes4"
        }
      ],
      "name": "supportsInterface",
      "outputs": [
        {
          "internalType": "bool",
          "name": "",
          "type": "bool"
        }
      ],
      "stateMutability": "view",
      "type": "function"
    },
    {
      "inputs": [],
      "name": "unpause",
      "outputs": [],
      "stateMutability": "nonpayable",
      "type": "function"
    },
    {
      "inputs": [
        {
          "internalType": "bytes32",
          "name": "_idxHash",
          "type": "bytes32"
        }
      ],
      "name": "set201",
      "outputs": [],
      "stateMutability": "nonpayable",
      "type": "function"
    }
  ],
  "bytecode": "0x60806040523480156200001157600080fd5b50600160009081556002805460ff191690556200002f90336200008d565b6200005b7f2ce8d04a9c35987429af538825cd2438cc5c5bb5dc427955f84daaa3ea105016336200008d565b620000877f65d7a28e3265b37a6474929f336521b332c1681b933f6cb9f3376673440d862a336200008d565b62000125565b6200009982826200009d565b5050565b60008281526001602090815260408083206001600160a01b038516845290915290205460ff16620000995760008281526001602081815260408084206001600160a01b0386168086529252808420805460ff19169093179092559051339285917f2f8788117e7eff1d82e926ec794901d17c78024a50270940304540a733656f0d9190a45050565b611dfb80620001356000396000f3fe608060405234801561001057600080fd5b506004361061012c5760003560e01c806391d14854116100ad578063e5f815dc11610071578063e5f815dc14610296578063e63ab1e9146102a9578063e9c26518146102d0578063ee9c25c5146102f7578063fd3628c1146102ff57600080fd5b806391d1485414610242578063a217fddf14610255578063d547741f1461025d578063dc38b0a214610270578063e59fdd361461028357600080fd5b80632f2ff15d116100f45780632f2ff15d146101ff57806336568abe146102145780633f4ba83a146102275780635c975abb1461022f5780638456cb591461023a57600080fd5b806301ffc9a7146101315780631429db5f14610159578063150b7a021461018e5780631da03312146101c6578063248a9ca3146101db575b600080fd5b61014461013f36600461189e565b610312565b60405190151581526020015b60405180910390f35b6101807f7f1e4e9f3d9ba0452a25cfef4cd4c6ffc86158d06ed2f585fa0093e12dec429c81565b604051908152602001610150565b6101ad61019c366004611794565b630a85bd0160e11b95945050505050565b6040516001600160e01b03199091168152602001610150565b610180600080516020611da683398151915281565b6101806101e9366004611855565b6000908152600160208190526040909120015490565b61021261020d36600461186e565b610349565b005b61021261022236600461186e565b610375565b6102126103f8565b60025460ff16610144565b610212610448565b61014461025036600461186e565b610496565b610180600081565b61021261026b36600461186e565b6104c1565b61021261027e366004611719565b6104e8565b610212610291366004611753565b610589565b6102126102a4366004611753565b61068a565b6101807f65d7a28e3265b37a6474929f336521b332c1681b933f6cb9f3376673440d862a81565b6101807f3b5d4cc60d3ec3516ee8ae083bd60934f6eb2a6c54b1229985c41bfb092b260381565b61021261076a565b61021261030d366004611855565b610e3b565b60006001600160e01b03198216637965db0b60e01b148061034357506301ffc9a760e01b6001600160e01b03198316145b92915050565b600082815260016020819052604090912001546103668133610ff8565b610370838361105c565b505050565b6001600160a01b03811633146103ea5760405162461bcd60e51b815260206004820152602f60248201527f416363657373436f6e74726f6c3a2063616e206f6e6c792072656e6f756e636560448201526e103937b632b9903337b91039b2b63360891b60648201526084015b60405180910390fd5b6103f482826110c7565b5050565b6104227f65d7a28e3265b37a6474929f336521b332c1681b933f6cb9f3376673440d862a33610496565b61043e5760405162461bcd60e51b81526004016103e190611bd8565b61044661112e565b565b6104727f65d7a28e3265b37a6474929f336521b332c1681b933f6cb9f3376673440d862a33610496565b61048e5760405162461bcd60e51b81526004016103e190611bd8565b6104466111c1565b60009182526001602090815260408084206001600160a01b0393909316845291905290205460ff1690565b600082815260016020819052604090912001546104de8133610ff8565b61037083836110c7565b610500600080516020611da683398151915233610496565b61051c5760405162461bcd60e51b81526004016103e190611b4e565b6001600160a01b0381166105675760405162461bcd60e51b81526020600482015260126024820152710423a5353433a2041646472657373203d20360741b60448201526064016103e1565b600380546001600160a01b0319166001600160a01b0392909216919091179055565b6105b37f7f1e4e9f3d9ba0452a25cfef4cd4c6ffc86158d06ed2f585fa0093e12dec429c33610496565b6105cf5760405162461bcd60e51b81526004016103e190611b95565b600260005414156105f25760405162461bcd60e51b81526004016103e190611c48565b60026000556040516323b872dd60e01b81523060048201526001600160a01b038381166024830152604482018390528416906323b872dd90606401602060405180830381600087803b15801561064757600080fd5b505af115801561065b573d6000803e3d6000fd5b505050506040513d601f19601f8201168201806040525081019061067f9190611833565b505060016000555050565b6106b47f7f1e4e9f3d9ba0452a25cfef4cd4c6ffc86158d06ed2f585fa0093e12dec429c33610496565b6106d05760405162461bcd60e51b81526004016103e190611b95565b600260005414156106f35760405162461bcd60e51b81526004016103e190611c48565b6002600055604051632142170760e11b81523060048201526001600160a01b038381166024830152604482018390528416906342842e0e90606401600060405180830381600087803b15801561074857600080fd5b505af115801561075c573d6000803e3d6000fd5b505060016000555050505050565b6002600054141561078d5760405162461bcd60e51b81526004016103e190611c48565b60026000556107aa600080516020611da683398151915233610496565b6107c65760405162461bcd60e51b81526004016103e190611b4e565b6003546040516363b8d4c160e11b81526020600482015260086024820152672727a222afaa25a760c11b60448201526001600160a01b039091169063c771a9829060640160206040518083038186803b15801561082257600080fd5b505afa158015610836573d6000803e3d6000fd5b505050506040513d601f19601f8201168201806040525081019061085a9190611736565b600c80546001600160a01b039283166001600160a01b03199182168117909255600d805490911690911790556003546040516363b8d4c160e11b81526020600482015260086024820152672727a222afa6a3a960c11b604482015291169063c771a9829060640160206040518083038186803b1580156108d957600080fd5b505afa1580156108ed573d6000803e3d6000fd5b505050506040513d601f19601f820116820180604052508101906109119190611736565b600480546001600160a01b039283166001600160a01b031991821681178355600580549092161790556003546040516363b8d4c160e11b815292169163c771a9829161097b91016020808252600990820152682727a222afa9aa27a960b91b604082015260600190565b60206040518083038186803b15801561099357600080fd5b505afa1580156109a7573d6000803e3d6000fd5b505050506040513d601f19601f820116820180604052508101906109cb9190611736565b600680546001600160a01b039283166001600160a01b031991821681179092556007805490911690911790556003546040516363b8d4c160e11b81526020600482015260086024820152672aaa24a62faa25a760c11b604482015291169063c771a9829060640160206040518083038186803b158015610a4a57600080fd5b505afa158015610a5e573d6000803e3d6000fd5b505050506040513d601f19601f82011682018060405250810190610a829190611736565b600880546001600160a01b039283166001600160a01b031991821681179092556009805490911690911790556003546040516363b8d4c160e11b815260206004820152600560248201526420afaa25a760d91b604482015291169063c771a9829060640160206040518083038186803b158015610afe57600080fd5b505afa158015610b12573d6000803e3d6000fd5b505050506040513d601f19601f82011682018060405250810190610b369190611736565b600a80546001600160a01b039283166001600160a01b03199182168117909255600b805490911690911790556003546040516363b8d4c160e11b815260206004820152600760248201526622a1a92fa6a3a960c91b604482015291169063c771a9829060640160206040518083038186803b158015610bb457600080fd5b505afa158015610bc8573d6000803e3d6000fd5b505050506040513d601f19601f82011682018060405250810190610bec9190611736565b600e80546001600160a01b039283166001600160a01b03199182168117909255600f805490911690911790556003546040516363b8d4c160e11b815291169063c771a98290610c559060040160208082526003908201526204150560ec1b604082015260600190565b60206040518083038186803b158015610c6d57600080fd5b505afa158015610c81573d6000803e3d6000fd5b505050506040513d601f19601f82011682018060405250810190610ca59190611736565b601280546001600160a01b039283166001600160a01b031991821681179092556013805490911690911790556003546040516363b8d4c160e11b815291169063c771a98290610d0f906004016020808252600490820152632921a62960e11b604082015260600190565b60206040518083038186803b158015610d2757600080fd5b505afa158015610d3b573d6000803e3d6000fd5b505050506040513d601f19601f82011682018060405250810190610d5f9190611736565b601080546001600160a01b039283166001600160a01b031991821681179092556011805490911690911790556003546040516363b8d4c160e11b81526020600482015260066024820152654150505f4e4360d01b604482015291169063c771a9829060640160206040518083038186803b158015610ddc57600080fd5b505afa158015610df0573d6000803e3d6000fd5b505050506040513d601f19601f82011682018060405250810190610e149190611736565b601480546001600160a01b0319166001600160a01b03929092169190911790556001600055565b60026000541415610e5e5760405162461bcd60e51b81526004016103e190611c48565b6002600055610e6f60025460ff1690565b15610e8c5760405162461bcd60e51b81526004016103e190611c1e565b610ea4600080516020611da683398151915233610496565b610ec05760405162461bcd60e51b81526004016103e190611b4e565b6000610ecb82611219565b90506000610edc82606001516112ff565b6007546040828101519051632b46ee4d60e21b815260ff90911660048201529192506000916001600160a01b039091169063ad1bb9349060240160206040518083038186803b158015610f2e57600080fd5b505afa158015610f42573d6000803e3d6000fd5b505050506040513d601f19601f82011682018060405250810190610f669190611a8b565b60ff1690508015610fea5760405162461bcd60e51b815260206004820152604260248201527f533230313a3230313a205265636f7264206d757374206861766520616e20696e60448201527f76616c69642073746f72616765207479706520746f2073657420737461742032606482015261303160f01b608482015260a4016103e1565b60c9835261067f84846113d3565b6110028282610496565b6103f45761101a816001600160a01b031660146114ae565b6110258360206114ae565b604051602001611036929190611aa6565b60408051601f198184030181529082905262461bcd60e51b82526103e191600401611b1b565b6110668282610496565b6103f45760008281526001602081815260408084206001600160a01b0386168086529252808420805460ff19169093179092559051339285917f2f8788117e7eff1d82e926ec794901d17c78024a50270940304540a733656f0d9190a45050565b6110d18282610496565b156103f45760008281526001602090815260408083206001600160a01b0385168085529252808320805460ff1916905551339285917ff6391f5c32d9c69d2a47ea670b442974b53935d1edc7fd64eb21e047a839171b9190a45050565b60025460ff166111775760405162461bcd60e51b815260206004820152601460248201527314185d5cd8589b194e881b9bdd081c185d5cd95960621b60448201526064016103e1565b6002805460ff191690557f5db9ee0a495bf2e6ff9c91a7834c1ba4fdd244a5e8aa4e537bd38aeae4b073aa335b6040516001600160a01b03909116815260200160405180910390a1565b60025460ff16156111e45760405162461bcd60e51b81526004016103e190611c1e565b6002805460ff191660011790557f62e78cea01bee320cd4e420270b5ea74000d11b0c9f74754ebdbfc544b05a2586111a43390565b6040805161018081018252600080825260208201819052918101829052606081018290526080810182905260a0810182905260c0810182905260e081018290526101008101829052610120810182905261014081018290526101608101919091526003546040516338923cb160e21b8152600481018490526000916001600160a01b03169063e248f2c4906024016101806040518083038186803b1580156112c057600080fd5b505afa1580156112d4573d6000803e3d6000fd5b505050506040513d601f19601f820116820180604052508101906112f891906119c7565b9392505050565b604080516101408101825260008082526020820181905281830181905260608083018290526080830182905260a0830182905260c0830182905260e08301829052610100830191909152610120820152600754915163f45c157d60e01b815263ffffffff8416600482015290916001600160a01b03169063f45c157d9060240160006040518083038186803b15801561139757600080fd5b505afa1580156113ab573d6000803e3d6000fd5b505050506040513d6000823e601f3d908101601f1916820160405261034391908101906118c8565b60025460ff16156113f65760405162461bcd60e51b81526004016103e190611c1e565b6003546101608201518251608084015160a085015160208601516040808801519051631e21309760e11b8152600481018a9052602481019690965260ff948516604487015263ffffffff93841660648701529290911660848501529190911660a483015261ffff1660c48201526001600160a01b0390911690633c42612e9060e401600060405180830381600087803b15801561149257600080fd5b505af11580156114a6573d6000803e3d6000fd5b505050505050565b606060006114bd836002611ce5565b6114c8906002611ccd565b67ffffffffffffffff8111156114e0576114e0611d77565b6040519080825280601f01601f19166020018201604052801561150a576020820181803683370190505b509050600360fc1b8160008151811061152557611525611d61565b60200101906001600160f81b031916908160001a905350600f60fb1b8160018151811061155457611554611d61565b60200101906001600160f81b031916908160001a9053506000611578846002611ce5565b611583906001611ccd565b90505b60018111156115fb576f181899199a1a9b1b9c1cb0b131b232b360811b85600f16601081106115b7576115b7611d61565b1a60f81b8282815181106115cd576115cd611d61565b60200101906001600160f81b031916908160001a90535060049490941c936115f481611d34565b9050611586565b5083156112f85760405162461bcd60e51b815260206004820181905260248201527f537472696e67733a20686578206c656e67746820696e73756666696369656e7460448201526064016103e1565b805161165581611d8d565b919050565b600082601f83011261166b57600080fd5b815167ffffffffffffffff8082111561168657611686611d77565b604051601f8301601f19908116603f011681019082821181831017156116ae576116ae611d77565b816040528381528660208588010111156116c757600080fd5b6116d8846020830160208901611d04565b9695505050505050565b805161ffff8116811461165557600080fd5b805163ffffffff8116811461165557600080fd5b805160ff8116811461165557600080fd5b60006020828403121561172b57600080fd5b81356112f881611d8d565b60006020828403121561174857600080fd5b81516112f881611d8d565b60008060006060848603121561176857600080fd5b833561177381611d8d565b9250602084013561178381611d8d565b929592945050506040919091013590565b6000806000806000608086880312156117ac57600080fd5b85356117b781611d8d565b945060208601356117c781611d8d565b935060408601359250606086013567ffffffffffffffff808211156117eb57600080fd5b818801915088601f8301126117ff57600080fd5b81358181111561180e57600080fd5b89602082850101111561182057600080fd5b9699959850939650602001949392505050565b60006020828403121561184557600080fd5b815180151581146112f857600080fd5b60006020828403121561186757600080fd5b5035919050565b6000806040838503121561188157600080fd5b82359150602083013561189381611d8d565b809150509250929050565b6000602082840312156118b057600080fd5b81356001600160e01b0319811681146112f857600080fd5b6000602082840312156118da57600080fd5b815167ffffffffffffffff808211156118f257600080fd5b90830190610140828603121561190757600080fd5b61190f611c7f565b61191883611708565b815261192660208401611708565b602082015261193760408401611708565b604082015261194860608401611708565b6060820152611959608084016116f4565b608082015261196a60a084016116f4565b60a082015261197b60c0840161164a565b60c082015260e083015160e082015261010080840151818301525061012080840151838111156119aa57600080fd5b6119b68882870161165a565b918301919091525095945050505050565b600061018082840312156119da57600080fd5b6119e2611ca9565b6119eb83611708565b81526119f960208401611708565b6020820152611a0a604084016116e2565b6040820152611a1b606084016116f4565b6060820152611a2c608084016116f4565b6080820152611a3d60a084016116f4565b60a082015260c0838101519082015260e08084015190820152610100808401519082015261012080840151908201526101408084015190820152610160928301519281019290925250919050565b600060208284031215611a9d57600080fd5b6112f882611708565b7f416363657373436f6e74726f6c3a206163636f756e7420000000000000000000815260008351611ade816017850160208801611d04565b7001034b99036b4b9b9b4b733903937b6329607d1b6017918401918201528351611b0f816028840160208801611d04565b01602801949350505050565b6020815260008251806020840152611b3a816040850160208701611d04565b601f01601f19169190910160400192915050565b60208082526027908201527f423a4d4f443a2d4941444d2043616c6c65722021434f4e54524143545f41444d604082015266494e5f524f4c4560c81b606082015260800190565b60208082526023908201527f423a4d4f443a2d4941444d2043616c6c6572202141535345545f545846525f526040820152624f4c4560e81b606082015260800190565b60208082526026908201527f423a4d4f442d49503a43616c6c696e672061646472657373206973206e6f74206040820152653830bab9b2b960d11b606082015260800190565b60208082526010908201526f14185d5cd8589b194e881c185d5cd95960821b604082015260600190565b6020808252601f908201527f5265656e7472616e637947756172643a207265656e7472616e742063616c6c00604082015260600190565b604051610140810167ffffffffffffffff81118282101715611ca357611ca3611d77565b60405290565b604051610180810167ffffffffffffffff81118282101715611ca357611ca3611d77565b60008219821115611ce057611ce0611d4b565b500190565b6000816000190483118215151615611cff57611cff611d4b565b500290565b60005b83811015611d1f578181015183820152602001611d07565b83811115611d2e576000848401525b50505050565b600081611d4357611d43611d4b565b506000190190565b634e487b7160e01b600052601160045260246000fd5b634e487b7160e01b600052603260045260246000fd5b634e487b7160e01b600052604160045260246000fd5b6001600160a01b0381168114611da257600080fd5b5056fe2ce8d04a9c35987429af538825cd2438cc5c5bb5dc427955f84daaa3ea105016a26469706673582212201994e2a9c7287a67d04f2474eb8f4b0d814ed192c8a5594ac59841765101b67564736f6c63430008070033",
  "immutableReferences": {},
  "source": "/*--------------------------------------------------------PRF0.8.7\n__/\\\\\\\\\\\\\\\\\\\\\\\\\\ _____/\\\\\\\\\\\\\\\\\\ _______/\\\\__/\\\\ ___/\\\\\\\\\\\\\\\\\\\\\\\\\\\\\\        \n__\\/\\\\\\/////////\\\\\\ _/\\\\\\///////\\\\\\ ____\\//__\\//____\\/\\\\\\///////////__       \n___\\/\\\\\\_______\\/\\\\\\_\\/\\\\\\_____\\/\\\\\\ ________________\\/\\\\\\ ____________      \n____\\/\\\\\\\\\\\\\\\\\\\\\\\\\\/__\\/\\\\\\\\\\\\\\\\\\\\\\/_____/\\\\\\____/\\\\\\_\\/\\\\\\\\\\\\\\\\\\\\\\ ____     \n_____\\/\\\\\\/////////____\\/\\\\\\//////\\\\\\ ___\\/\\\\\\___\\/\\\\\\_\\/\\\\\\///////______\n______\\/\\\\\\ ____________\\/\\\\\\ ___\\//\\\\\\ __\\/\\\\\\___\\/\\\\\\_\\/\\\\\\ ____________\n_______\\/\\\\\\ ____________\\/\\\\\\ ____\\//\\\\\\ _\\/\\\\\\___\\/\\\\\\_\\/\\\\\\ ____________\n________\\/\\\\\\ ____________\\/\\\\\\ _____\\//\\\\\\_\\//\\\\\\\\\\\\\\\\\\ _\\/\\\\\\ ____________\n_________\\/// _____________\\/// _______\\/// __\\///////// __\\/// _____________\n*---------------------------------------------------------------------------*/\n\n/*-----------------------------------------------------------------\n *  TO DO\n * Sets asset status to 201 in the case that a storage provider becomes invalid, \n * to proviion for the rescuing of assets whose storage provider is no longer valid\n *---------------------------------------------------------------*/\n\n// SPDX-License-Identifier: UNLICENSED\npragma solidity ^0.8.7;\n\nimport \"../Resources/PRUF_CORE.sol\";\n\ncontract STAT201 is CORE {\n\n\n    /**\n     * @dev //Sets an item to reserved status 201 when called, if record links to an invalid storage type. Stat201 allows a rewrite of NonMutableStorage\n     * @param _idxHash asset ID of the asset being rescued \n     */\n    function set201(bytes32 _idxHash)\n        external\n        nonReentrant\n        whenNotPaused\n        isContractAdmin\n    {\n        Record memory rec = getRecord(_idxHash);\n        Node memory nodeInfo =getNodeinfo(rec.node);\n        uint256 storageProviderStatus = NODE_STOR.getStorageProviderStatus(nodeInfo.storageProvider);\n\n        require\n            (storageProviderStatus == 0,\n            \"S201:201: Record must have an invalid storage type to set stat 201\"\n        );\n        //^^^^^^^checks^^^^^^^^^\n        rec.assetStatus = 201;\n        //^^^^^^^effects^^^^^^^^^\n\n        writeRecord(_idxHash, rec);\n        //^^^^^^^interactions^^^^^^^^^\n        \n    }\n\n\n}\n",
  "sourcePath": "/Users/drake/Documents/DEV/PRUF/PRUF_TRUFFLE/contracts/Test/Stat201.sol",
  "compiler": {
    "name": "solc",
    "version": "0.8.7+commit.e28d00a7.Emscripten.clang"
  },
  "schemaVersion": "3.4.3",
  "updatedAt": "2021-10-26T17:58:04.386Z",
  "devdoc": {
    "kind": "dev",
    "methods": {
      "ERC20Transfer(address,address,uint256)": {
        "details": "send an ERC20 token from this contract",
        "params": {
          "_amount": "amount to transfer",
          "_to": "destination",
          "_tokenContract": "Address of foreign token contract"
        }
      },
      "ERC721Transfer(address,address,uint256)": {
        "details": "send an ERC721 token from this contract",
        "params": {
          "_to": "destination",
          "_tokenContract": "Address of foreign token contract",
          "_tokenID": "Token ID"
        }
      },
      "getRoleAdmin(bytes32)": {
        "details": "Returns the admin role that controls `role`. See {grantRole} and {revokeRole}. To change a role's admin, use {_setRoleAdmin}."
      },
      "grantRole(bytes32,address)": {
        "details": "Grants `role` to `account`. If `account` had not been already granted `role`, emits a {RoleGranted} event. Requirements: - the caller must have ``role``'s admin role."
      },
      "hasRole(bytes32,address)": {
        "details": "Returns `true` if `account` has been granted `role`."
      },
      "onERC721Received(address,address,uint256,bytes)": {
        "details": "Compliance for erc721 reciever See OZ documentation"
      },
      "paused()": {
        "details": "Returns true if the contract is paused, and false otherwise."
      },
      "renounceRole(bytes32,address)": {
        "details": "Revokes `role` from the calling account. Roles are often managed via {grantRole} and {revokeRole}: this function's purpose is to provide a mechanism for accounts to lose their privileges if they are compromised (such as when a trusted device is misplaced). If the calling account had been granted `role`, emits a {RoleRevoked} event. Requirements: - the caller must be `account`."
      },
      "resolveContractAddresses()": {
        "details": "Resolve contract addresses from STOR"
      },
      "revokeRole(bytes32,address)": {
        "details": "Revokes `role` from `account`. If `account` had been granted `role`, emits a {RoleRevoked} event. Requirements: - the caller must have ``role``'s admin role."
      },
      "set201(bytes32)": {
        "details": "//Sets an item to reserved status 201 when called, if record links to an invalid storage type. Stat201 allows a rewrite of NonMutableStorage",
        "params": {
          "_idxHash": "asset ID of the asset being rescued "
        }
      },
      "setStorageContract(address)": {
        "details": "Set address of STOR contract to interface with",
        "params": {
          "_storageAddress": "address of PRUF_STOR"
        }
      },
      "supportsInterface(bytes4)": {
        "details": "See {IERC165-supportsInterface}."
      }
    },
    "version": 1
  },
  "userdoc": {
    "kind": "user",
    "methods": {},
    "version": 1
  }
}