{
  "contractName": "STOR",
  "abi": [
    {
      "anonymous": false,
      "inputs": [
        {
          "indexed": true,
          "internalType": "address",
          "name": "previousOwner",
          "type": "address"
        },
        {
          "indexed": true,
          "internalType": "address",
          "name": "newOwner",
          "type": "address"
        }
      ],
      "name": "OwnershipTransferred",
      "type": "event"
    },
    {
      "anonymous": false,
      "inputs": [
        {
          "indexed": false,
          "internalType": "address",
          "name": "account",
          "type": "address"
        }
      ],
      "name": "Paused",
      "type": "event"
    },
    {
      "anonymous": false,
      "inputs": [
        {
          "indexed": false,
          "internalType": "string",
          "name": "_msg",
          "type": "string"
        },
        {
          "indexed": false,
          "internalType": "bytes32",
          "name": "b32",
          "type": "bytes32"
        }
      ],
      "name": "REPORT",
      "type": "event"
    },
    {
      "anonymous": false,
      "inputs": [
        {
          "indexed": false,
          "internalType": "address",
          "name": "account",
          "type": "address"
        }
      ],
      "name": "Unpaused",
      "type": "event"
    },
    {
      "inputs": [],
      "name": "owner",
      "outputs": [
        {
          "internalType": "address",
          "name": "",
          "type": "address"
        }
      ],
      "stateMutability": "view",
      "type": "function"
    },
    {
      "inputs": [],
      "name": "paused",
      "outputs": [
        {
          "internalType": "bool",
          "name": "",
          "type": "bool"
        }
      ],
      "stateMutability": "view",
      "type": "function"
    },
    {
      "inputs": [],
      "name": "renounceOwnership",
      "outputs": [],
      "stateMutability": "nonpayable",
      "type": "function"
    },
    {
      "inputs": [
        {
          "internalType": "address",
          "name": "newOwner",
          "type": "address"
        }
      ],
      "name": "transferOwnership",
      "outputs": [],
      "stateMutability": "nonpayable",
      "type": "function"
    },
    {
      "inputs": [],
      "name": "pause",
      "outputs": [],
      "stateMutability": "nonpayable",
      "type": "function"
    },
    {
      "inputs": [],
      "name": "unpause",
      "outputs": [],
      "stateMutability": "nonpayable",
      "type": "function"
    },
    {
      "inputs": [
        {
          "internalType": "string",
          "name": "_name",
          "type": "string"
        },
        {
          "internalType": "address",
          "name": "_addr",
          "type": "address"
        },
        {
          "internalType": "uint16",
          "name": "_assetClass",
          "type": "uint16"
        },
        {
          "internalType": "uint8",
          "name": "_contractAuthLevel",
          "type": "uint8"
        }
      ],
      "name": "OO_addContract",
      "outputs": [],
      "stateMutability": "nonpayable",
      "type": "function"
    },
    {
      "inputs": [
        {
          "internalType": "string",
          "name": "_name",
          "type": "string"
        },
        {
          "internalType": "uint16",
          "name": "_assetClass",
          "type": "uint16"
        },
        {
          "internalType": "uint8",
          "name": "_contractAuthLevel",
          "type": "uint8"
        }
      ],
      "name": "enableContractForAC",
      "outputs": [],
      "stateMutability": "nonpayable",
      "type": "function"
    },
    {
      "inputs": [
        {
          "internalType": "bytes32",
          "name": "_idxHash",
          "type": "bytes32"
        },
        {
          "internalType": "bytes32",
          "name": "_rgtHash",
          "type": "bytes32"
        },
        {
          "internalType": "uint16",
          "name": "_assetClass",
          "type": "uint16"
        },
        {
          "internalType": "uint256",
          "name": "_countDownStart",
          "type": "uint256"
        }
      ],
      "name": "newRecord",
      "outputs": [],
      "stateMutability": "nonpayable",
      "type": "function"
    },
    {
      "inputs": [
        {
          "internalType": "bytes32",
          "name": "_idxHash",
          "type": "bytes32"
        },
        {
          "internalType": "bytes32",
          "name": "_rgtHash",
          "type": "bytes32"
        },
        {
          "internalType": "uint8",
          "name": "_newAssetStatus",
          "type": "uint8"
        },
        {
          "internalType": "uint256",
          "name": "_countDown",
          "type": "uint256"
        },
        {
          "internalType": "uint8",
          "name": "_forceCount",
          "type": "uint8"
        },
        {
          "internalType": "uint16",
          "name": "_numberOfTransfers",
          "type": "uint16"
        }
      ],
      "name": "modifyRecord",
      "outputs": [],
      "stateMutability": "nonpayable",
      "type": "function"
    },
    {
      "inputs": [
        {
          "internalType": "bytes32",
          "name": "_idxHash",
          "type": "bytes32"
        },
        {
          "internalType": "uint16",
          "name": "_newAssetClass",
          "type": "uint16"
        }
      ],
      "name": "changeAC",
      "outputs": [],
      "stateMutability": "nonpayable",
      "type": "function"
    },
    {
      "inputs": [
        {
          "internalType": "bytes32",
          "name": "_idxHash",
          "type": "bytes32"
        },
        {
          "internalType": "uint8",
          "name": "_newAssetStatus",
          "type": "uint8"
        }
      ],
      "name": "setStolenOrLost",
      "outputs": [],
      "stateMutability": "nonpayable",
      "type": "function"
    },
    {
      "inputs": [
        {
          "internalType": "bytes32",
          "name": "_idxHash",
          "type": "bytes32"
        },
        {
          "internalType": "uint8",
          "name": "_newAssetStatus",
          "type": "uint8"
        },
        {
          "internalType": "bytes32",
          "name": "_contractNameHash",
          "type": "bytes32"
        }
      ],
      "name": "setEscrow",
      "outputs": [],
      "stateMutability": "nonpayable",
      "type": "function"
    },
    {
      "inputs": [
        {
          "internalType": "bytes32",
          "name": "_idxHash",
          "type": "bytes32"
        },
        {
          "internalType": "bytes32",
          "name": "_contractNameHash",
          "type": "bytes32"
        }
      ],
      "name": "endEscrow",
      "outputs": [],
      "stateMutability": "nonpayable",
      "type": "function"
    },
    {
      "inputs": [
        {
          "internalType": "bytes32",
          "name": "_idxHash",
          "type": "bytes32"
        },
        {
          "internalType": "bytes32",
          "name": "_Ipfs1",
          "type": "bytes32"
        }
      ],
      "name": "modifyIpfs1",
      "outputs": [],
      "stateMutability": "nonpayable",
      "type": "function"
    },
    {
      "inputs": [
        {
          "internalType": "bytes32",
          "name": "_idxHash",
          "type": "bytes32"
        },
        {
          "internalType": "bytes32",
          "name": "_Ipfs2",
          "type": "bytes32"
        }
      ],
      "name": "modifyIpfs2",
      "outputs": [],
      "stateMutability": "nonpayable",
      "type": "function"
    },
    {
      "inputs": [
        {
          "internalType": "bytes32",
          "name": "_idxHash",
          "type": "bytes32"
        }
      ],
      "name": "retrieveRecord",
      "outputs": [
        {
          "internalType": "bytes32",
          "name": "",
          "type": "bytes32"
        },
        {
          "internalType": "uint8",
          "name": "",
          "type": "uint8"
        },
        {
          "internalType": "uint8",
          "name": "",
          "type": "uint8"
        },
        {
          "internalType": "uint16",
          "name": "",
          "type": "uint16"
        },
        {
          "internalType": "uint256",
          "name": "",
          "type": "uint256"
        },
        {
          "internalType": "uint256",
          "name": "",
          "type": "uint256"
        },
        {
          "internalType": "bytes32",
          "name": "",
          "type": "bytes32"
        },
        {
          "internalType": "bytes32",
          "name": "",
          "type": "bytes32"
        },
        {
          "internalType": "uint16",
          "name": "",
          "type": "uint16"
        }
      ],
      "stateMutability": "view",
      "type": "function"
    },
    {
      "inputs": [
        {
          "internalType": "bytes32",
          "name": "_idxHash",
          "type": "bytes32"
        }
      ],
      "name": "retrieveShortRecord",
      "outputs": [
        {
          "internalType": "uint8",
          "name": "",
          "type": "uint8"
        },
        {
          "internalType": "uint8",
          "name": "",
          "type": "uint8"
        },
        {
          "internalType": "uint16",
          "name": "",
          "type": "uint16"
        },
        {
          "internalType": "uint256",
          "name": "",
          "type": "uint256"
        },
        {
          "internalType": "uint256",
          "name": "",
          "type": "uint256"
        },
        {
          "internalType": "bytes32",
          "name": "",
          "type": "bytes32"
        },
        {
          "internalType": "bytes32",
          "name": "",
          "type": "bytes32"
        },
        {
          "internalType": "uint16",
          "name": "",
          "type": "uint16"
        }
      ],
      "stateMutability": "view",
      "type": "function"
    },
    {
      "inputs": [
        {
          "internalType": "bytes32",
          "name": "_idxHash",
          "type": "bytes32"
        },
        {
          "internalType": "bytes32",
          "name": "_rgtHash",
          "type": "bytes32"
        }
      ],
      "name": "_verifyRightsHolder",
      "outputs": [
        {
          "internalType": "uint256",
          "name": "",
          "type": "uint256"
        }
      ],
      "stateMutability": "view",
      "type": "function"
    },
    {
      "inputs": [
        {
          "internalType": "bytes32",
          "name": "_idxHash",
          "type": "bytes32"
        },
        {
          "internalType": "bytes32",
          "name": "_rgtHash",
          "type": "bytes32"
        }
      ],
      "name": "blockchainVerifyRightsHolder",
      "outputs": [
        {
          "internalType": "uint8",
          "name": "",
          "type": "uint8"
        }
      ],
      "stateMutability": "nonpayable",
      "type": "function"
    },
    {
      "inputs": [
        {
          "internalType": "string",
          "name": "_name",
          "type": "string"
        }
      ],
      "name": "resolveContractAddress",
      "outputs": [
        {
          "internalType": "address",
          "name": "",
          "type": "address"
        }
      ],
      "stateMutability": "view",
      "type": "function"
    },
    {
      "inputs": [
        {
          "internalType": "address",
          "name": "_addr",
          "type": "address"
        },
        {
          "internalType": "uint16",
          "name": "_assetClass",
          "type": "uint16"
        }
      ],
      "name": "ContractAuthType",
      "outputs": [
        {
          "internalType": "uint8",
          "name": "",
          "type": "uint8"
        }
      ],
      "stateMutability": "view",
      "type": "function"
    },
    {
      "inputs": [
        {
          "internalType": "address",
          "name": "_addr",
          "type": "address"
        },
        {
          "internalType": "uint16",
          "name": "_assetClass",
          "type": "uint16"
        }
      ],
      "name": "ContractInfoHash",
      "outputs": [
        {
          "internalType": "uint8",
          "name": "",
          "type": "uint8"
        },
        {
          "internalType": "bytes32",
          "name": "",
          "type": "bytes32"
        }
      ],
      "stateMutability": "view",
      "type": "function"
    }
  ],
  "bytecode": "0x60806040523480156200001157600080fd5b506000620000276001600160e01b036200008516565b600080546001600160a01b0319166001600160a01b0383169081178255604051929350917f8be0079c531659141344cd1fd0a4f28419497f9722a3daafe3b4186f6b6457e0908290a350600180556002805460ff1916905562000089565b3390565b61503380620000996000396000f3fe608060405234801561001057600080fd5b506004361061014d5760003560e01c80638456cb59116100c3578063b05623ac1161007c578063b05623ac1461047b578063c771a98214610507578063d3dbdbda146105ad578063e248f2c4146105e2578063f22354a614610653578063f2fde38b146106795761014d565b80638456cb59146103765780638d9fc8721461037e5780638da5cb5b146103b75780639e7f3f62146103db578063a919304514610428578063aee219aa1461044b5761014d565b806345ae06351161011557806345ae06351461020e5780635c975abb1461023a5780636707f60814610256578063709c3b33146102be578063715018a61461033b57806373a71093146103435761014d565b806305dc907a1461015257806306b24ea8146101995780632e97876b146101c05780633f4ba83a146101e357806342cdc4a4146101eb575b600080fd5b610197600480360360c081101561016857600080fd5b50803590602081013590604081013560ff908116916060810135916080820135169060a0013561ffff1661069f565b005b610197600480360360408110156101af57600080fd5b508035906020013561ffff16610fcc565b610197600480360360408110156101d657600080fd5b5080359060200135611723565b610197611ae0565b6101976004803603604081101561020157600080fd5b5080359060200135611b42565b6101976004803603606081101561022457600080fd5b5080359060ff6020820135169060400135612226565b6102426127ae565b604080519115158252519081900360200190f35b6102736004803603602081101561026c57600080fd5b50356127b8565b6040805160ff998a16815297909816602088015261ffff958616878901526060870194909452608086019290925260a085015260c08401521660e08201529051908190036101000190f35b610197600480360360608110156102d457600080fd5b8101906020810181356401000000008111156102ef57600080fd5b82018360208201111561030157600080fd5b8035906020019184600183028401116401000000008311171561032357600080fd5b9193509150803561ffff16906020013560ff16612872565b6101976129ed565b6101976004803603608081101561035957600080fd5b5080359060208101359061ffff6040820135169060600135612a8f565b61019761315c565b6103a16004803603604081101561039457600080fd5b50803590602001356131bc565b6040805160ff9092168252519081900360200190f35b6103bf61327d565b604080516001600160a01b039092168252519081900360200190f35b61040b600480360360408110156103f157600080fd5b5080356001600160a01b0316906020013561ffff1661328c565b6040805160ff909316835260208301919091528051918290030190f35b6101976004803603604081101561043e57600080fd5b50803590602001356133d7565b6103a16004803603604081101561046157600080fd5b5080356001600160a01b0316906020013561ffff16613ab9565b6101976004803603608081101561049157600080fd5b8101906020810181356401000000008111156104ac57600080fd5b8201836020820111156104be57600080fd5b803590602001918460018302840111640100000000831117156104e057600080fd5b919350915080356001600160a01b031690602081013561ffff16906040013560ff16613b6e565b6103bf6004803603602081101561051d57600080fd5b81019060208101813564010000000081111561053857600080fd5b82018360208201111561054a57600080fd5b8035906020019184600183028401116401000000008311171561056c57600080fd5b91908080601f016020809104026020016040519081016040528093929190818152602001838380828437600092019190915250929550613df8945050505050565b6105d0600480360360408110156105c357600080fd5b5080359060200135613e6b565b60408051918252519081900360200190f35b6105ff600480360360208110156105f857600080fd5b5035613e91565b60408051998a5260ff98891660208b0152969097168887015261ffff9485166060890152608088019390935260a087019190915260c086015260e08501529190911661010083015251908190036101200190f35b6101976004803603604081101561066957600080fd5b508035906020013560ff1661427a565b6101976004803603602081101561068f57600080fd5b50356001600160a01b0316614a63565b600260015414156106e5576040805162461bcd60e51b815260206004820152601f6024820152600080516020614dfe833981519152604482015290519081900360640190fd5b600260018190555460ff1615610735576040805162461bcd60e51b815260206004820152601060248201526f14185d5cd8589b194e881c185d5cd95960821b604482015290519081900360640190fd5b6006600087815260200190815260200160002060010160029054906101000a900461ffff16600360046000336001600160a01b03166001600160a01b0316815260200190815260200160002060405180828054600181600116156101000203166002900480156107dc5780601f106107ba5761010080835404028352918201916107dc565b820191906000526020600020905b8154815290600101906020018083116107c8575b505092835250506040805191829003602090810190922061ffff84166000908152925290205460ff16600114806108bb5750600360046000336001600160a01b03166001600160a01b0316815260200190815260200160002060405180828054600181600116156101000203166002900480156108905780601f1061086e576101008083540402835291820191610890565b820191906000526020600020905b81548152906001019060200180831161087c575b50509283525050604080516020928190038301902061ffff84166000908152925290205460ff166002145b8061096e5750600360046000336001600160a01b03166001600160a01b0316815260200190815260200160002060405180828054600181600116156101000203166002900480156109435780601f10610921576101008083540402835291820191610943565b820191906000526020600020905b81548152906001019060200180831161092f575b50509283525050604080516020928190038301902061ffff84166000908152925290205460ff166003145b80610a215750600360046000336001600160a01b03166001600160a01b0316815260200190815260200160002060405180828054600181600116156101000203166002900480156109f65780601f106109d45761010080835404028352918201916109f6565b820191906000526020600020905b8154815290600101906020018083116109e2575b50509283525050604080516020928190038301902061ffff84166000908152925290205460ff166004145b610a5c5760405162461bcd60e51b8152600401808060200182810382526038815260200180614e676038913960400191505060405180910390fd5b6000878152600660205260409020548790610aac576040805162461bcd60e51b81526020600482015260176024820152600080516020614f4e833981519152604482015290519081900360640190fd5b600088815260066020819052604090912060010154899160ff90911614801590610aeb575060008181526006602052604090206001015460ff16603214155b8015610b0c575060008181526006602052604090206001015460ff16603814155b610b475760405162461bcd60e51b815260040180806020018281038252602b815260200180614f6e602b913960400191505060405180910390fd5b60008981526006602052604090206002015489908990881115610baa576040805162461bcd60e51b815260206004820152601660248201527550533a4d523a6e657720636f756e74446f776e202b2160501b604482015290519081900360640190fd5b60008281526006602052604090206001015460ff61010090910481169088161015610c1c576040805162461bcd60e51b815260206004820152601a60248201527f50533a4d523a6e657720666f7263654d6f64436f756e74202d21000000000000604482015290519081900360640190fd5b6000828152600660208190526040909120015461ffff9081169087161015610c8b576040805162461bcd60e51b815260206004820152601a60248201527f50533a4d523a6e6577207472616e73666572436f756e74202d21000000000000604482015290519081900360640190fd5b60c88960ff1610610ccd5760405162461bcd60e51b815260040180806020018281038252602d815260200180614f99602d913960400191505060405180910390fd5b610cd98960ff16614b5b565b60ff1615610d185760405162461bcd60e51b8152600401808060200182810382526038815260200180614ef66038913960400191505060405180910390fd5b60008281526006602052604090206001015460c860ff90911610610d79576040805162461bcd60e51b81526020600482015260136024820152721414ce93548e949150d3d491081313d0d2d151606a1b604482015290519081900360640190fd5b610d81614d19565b600660008d815260200190815260200160002060405180610120016040529081600082015481526020016001820160009054906101000a900460ff1660ff1660ff1681526020016001820160019054906101000a900460ff1660ff1660ff1681526020016001820160029054906101000a900461ffff1661ffff1661ffff168152602001600282015481526020016003820154815260200160048201548152602001600582015481526020016006820160009054906101000a900461ffff1661ffff1661ffff16815250509050818160000181815250508881608001818152505089816020019060ff16908160ff168152505087816040019060ff16908160ff16815250508681610100019061ffff16908161ffff168152505080600660008581526020019081526020016000206000820151816000015560208201518160010160006101000a81548160ff021916908360ff16021790555060408201518160010160016101000a81548160ff021916908360ff16021790555060608201518160010160026101000a81548161ffff021916908361ffff1602179055506080820151816002015560a0820151816003015560c0820151816004015560e082015181600501556101008201518160060160006101000a81548161ffff021916908361ffff160217905550905050600080516020614f2e8339815191528c60405180806020018381526020018281038252600c8152602001806b149958c8135bd91a599a595960a21b8152506020019250505060405180910390a150506001805550505050505050505050565b60026001541415611012576040805162461bcd60e51b815260206004820152601f6024820152600080516020614dfe833981519152604482015290519081900360640190fd5b600260018190555460ff1615611062576040805162461bcd60e51b815260206004820152601060248201526f14185d5cd8589b194e881c185d5cd95960821b604482015290519081900360640190fd5b6006600083815260200190815260200160002060010160029054906101000a900461ffff16600360046000336001600160a01b03166001600160a01b0316815260200190815260200160002060405180828054600181600116156101000203166002900480156111095780601f106110e7576101008083540402835291820191611109565b820191906000526020600020905b8154815290600101906020018083116110f5575b505092835250506040805191829003602090810190922061ffff84166000908152925290205460ff16600114806111e85750600360046000336001600160a01b03166001600160a01b0316815260200190815260200160002060405180828054600181600116156101000203166002900480156111bd5780601f1061119b5761010080835404028352918201916111bd565b820191906000526020600020905b8154815290600101906020018083116111a9575b50509283525050604080516020928190038301902061ffff84166000908152925290205460ff166002145b8061129b5750600360046000336001600160a01b03166001600160a01b0316815260200190815260200160002060405180828054600181600116156101000203166002900480156112705780601f1061124e576101008083540402835291820191611270565b820191906000526020600020905b81548152906001019060200180831161125c575b50509283525050604080516020928190038301902061ffff84166000908152925290205460ff166003145b8061134e5750600360046000336001600160a01b03166001600160a01b0316815260200190815260200160002060405180828054600181600116156101000203166002900480156113235780601f10611301576101008083540402835291820191611323565b820191906000526020600020905b81548152906001019060200180831161130f575b50509283525050604080516020928190038301902061ffff84166000908152925290205460ff166004145b6113895760405162461bcd60e51b8152600401808060200182810382526038815260200180614e676038913960400191505060405180910390fd5b60008381526006602052604090205483906113d9576040805162461bcd60e51b81526020600482015260176024820152600080516020614f4e833981519152604482015290519081900360640190fd5b600084815260066020819052604090912060010154859160ff90911614801590611418575060008181526006602052604090206001015460ff16603214155b8015611439575060008181526006602052604090206001015460ff16603814155b6114745760405162461bcd60e51b815260040180806020018281038252602b815260200180614f6e602b913960400191505060405180910390fd5b61147c614d19565b50600085815260066020818152604080842081516101208101835281548152600182015460ff808216838701526101008083049091168386015261ffff6201000090920482166060840181905260028501546080850152600385015460a085015260048086015460c0860152600586015460e08601529490970154821690830152600a54845163f9499f1960e01b8152918c16938201939093526024810195909552915191946001600160a01b039091169363f9499f1993604480830194919391928390030190829087803b15801561155457600080fd5b505af1158015611568573d6000803e3d6000fd5b505050506040513d602081101561157e57600080fd5b505160ff1660aa146115c15760405162461bcd60e51b8152600401808060200182810382526023815260200180614e446023913960400191505060405180910390fd5b60008681526006602052604090206001015460c860ff90911610611623576040805162461bcd60e51b81526020600482015260146024820152731414ce90d050ce949150d3d491081313d0d2d15160621b604482015290519081900360640190fd5b61ffff85811660608381019182526000898152600660208181526040928390208751815581880151600182018054868b0151985160ff1990911660ff9384161761ff0019166101009390991683029890981763ffff0000191662010000988a169890980297909717909655608080890151600283015560a0890151600383015560c0890151600483015560e08901516005830155958801519201805461ffff1916929096169190911790945580519384018a9052808452601384820152724368616e67656420417373657420436c61737360681b9184019190915251600080516020614f2e8339815191529281900390910190a150506001805550505050565b60026001541415611769576040805162461bcd60e51b815260206004820152601f6024820152600080516020614dfe833981519152604482015290519081900360640190fd5b600260018190555460ff16156117b9576040805162461bcd60e51b815260206004820152601060248201526f14185d5cd8589b194e881c185d5cd95960821b604482015290519081900360640190fd5b604080516622a1a92fa6a3a960c91b815260056007820152905190819003602701902054336001600160a01b039091161461183b576040805162461bcd60e51b815260206004820152601b60248201527f50533a49454d3a43616c6c6572206e6f7420657363726f774d67720000000000604482015290519081900360640190fd5b600082815260066020526040902054829061188b576040805162461bcd60e51b81526020600482015260176024820152600080516020614f4e833981519152604482015290519081900360640190fd5b6000838152600660205260409020600101546118a99060ff16614bae565b60ff1660aa14611900576040805162461bcd60e51b815260206004820152601a60248201527f50533a45453a4e6f7420696e20657363726f7720737461747573000000000000604482015290519081900360640190fd5b611908614d19565b5060008381526006602081815260409283902083516101208101855281548152600182015460ff8082169483018590526101008083049091169683019690965261ffff620100009091048116606083015260028301546080830152600383015460a0830152600483015460c0830152600583015460e08301529184015490911693810193909352141561199d57600760208201525b806020015160ff16603814156119b557603960208201525b806020015160ff16603214156119cd57603a60208201525b806020015160ff16603c14156119e557603a60208201525b6000848152600660208181526040928390208451815584820151600182018054878701516060808a015160ff1990931660ff9586161761ff0019166101009590921685029190911763ffff000019166201000061ffff9384160217909255608080890151600286015560a0890151600386015560c0890151600486015560e089015160058601559288015193909501805461ffff1916939095169290921790935583519182018790528382526019828501527f457363726f7720456e64656420627920636f6e74726163743a00000000000000908201529151600080516020614f2e8339815191529281900390910190a15050600180555050565b611ae8614bf6565b6000546001600160a01b03908116911614611b38576040805162461bcd60e51b81526020600482018190526024820152600080516020614ed6833981519152604482015290519081900360640190fd5b611b40614bfa565b565b60026001541415611b88576040805162461bcd60e51b815260206004820152601f6024820152600080516020614dfe833981519152604482015290519081900360640190fd5b600260018190555460ff1615611bd8576040805162461bcd60e51b815260206004820152601060248201526f14185d5cd8589b194e881c185d5cd95960821b604482015290519081900360640190fd5b6006600083815260200190815260200160002060010160029054906101000a900461ffff16600360046000336001600160a01b03166001600160a01b031681526020019081526020016000206040518082805460018160011615610100020316600290048015611c7f5780601f10611c5d576101008083540402835291820191611c7f565b820191906000526020600020905b815481529060010190602001808311611c6b575b505092835250506040805191829003602090810190922061ffff84166000908152925290205460ff1660011480611d5e5750600360046000336001600160a01b03166001600160a01b031681526020019081526020016000206040518082805460018160011615610100020316600290048015611d335780601f10611d11576101008083540402835291820191611d33565b820191906000526020600020905b815481529060010190602001808311611d1f575b50509283525050604080516020928190038301902061ffff84166000908152925290205460ff166002145b80611e115750600360046000336001600160a01b03166001600160a01b031681526020019081526020016000206040518082805460018160011615610100020316600290048015611de65780601f10611dc4576101008083540402835291820191611de6565b820191906000526020600020905b815481529060010190602001808311611dd2575b50509283525050604080516020928190038301902061ffff84166000908152925290205460ff166003145b80611ec45750600360046000336001600160a01b03166001600160a01b031681526020019081526020016000206040518082805460018160011615610100020316600290048015611e995780601f10611e77576101008083540402835291820191611e99565b820191906000526020600020905b815481529060010190602001808311611e85575b50509283525050604080516020928190038301902061ffff84166000908152925290205460ff166004145b611eff5760405162461bcd60e51b8152600401808060200182810382526038815260200180614e676038913960400191505060405180910390fd5b6000838152600660205260409020548390611f4f576040805162461bcd60e51b81526020600482015260176024820152600080516020614f4e833981519152604482015290519081900360640190fd5b600084815260066020819052604090912060010154859160ff90911614801590611f8e575060008181526006602052604090206001015460ff16603214155b8015611faf575060008181526006602052604090206001015460ff16603814155b611fea5760405162461bcd60e51b815260040180806020018281038252602b815260200180614f6e602b913960400191505060405180910390fd5b611ff2614d19565b5060008581526006602081815260409283902083516101208101855281548152600182015460ff808216948301949094526101008082049094169582019590955261ffff620100009095048516606082015260028201546080820152600382015460a0820152600482015460c08201819052600583015460e0830152919093015490931690820152908514156120cf576040805162461bcd60e51b815260206004820152601d60248201527f50533a4d49313a204e65772076616c75652073616d65206173206f6c64000000604482015290519081900360640190fd5b60008681526006602052604090206001015460c860ff90911610612131576040805162461bcd60e51b81526020600482015260146024820152731414ce93524c4e949150d3d491081313d0d2d15160621b604482015290519081900360640190fd5b60c081018581526000878152600660208181526040928390208551815581860151600182018054868901516060808b015160ff1990931660ff9586161761ff0019166101009590921685029190911763ffff000019166201000061ffff93841602179092556080808a0151600286015560a08a015160038601559751600485015560e089015160058501559188015192909401805461ffff19169290911691909117905582519081018a9052828152600e818401526d12541194cc481b5bd91a599a595960921b918101919091529051600080516020614f2e833981519152929181900390910190a150506001805550505050565b6002600154141561226c576040805162461bcd60e51b815260206004820152601f6024820152600080516020614dfe833981519152604482015290519081900360640190fd5b600260018190555460ff16156122bc576040805162461bcd60e51b815260206004820152601060248201526f14185d5cd8589b194e881c185d5cd95960821b604482015290519081900360640190fd5b604080516622a1a92fa6a3a960c91b815260056007820152905190819003602701902054336001600160a01b039091161461233e576040805162461bcd60e51b815260206004820152601b60248201527f50533a49454d3a43616c6c6572206e6f7420657363726f774d67720000000000604482015290519081900360640190fd5b600083815260066020526040902054839061238e576040805162461bcd60e51b81526020600482015260176024820152600080516020614f4e833981519152604482015290519081900360640190fd5b600084815260066020819052604090912060010154859160ff909116148015906123cd575060008181526006602052604090206001015460ff16603214155b80156123ee575060008181526006602052604090206001015460ff16603814155b6124295760405162461bcd60e51b815260040180806020018281038252602b815260200180614f6e602b913960400191505060405180910390fd5b6124358460ff16614bae565b60ff1660aa1461247c576040805162461bcd60e51b815260206004820152600d60248201526c50533a53453a2053746174757360981b604482015290519081900360640190fd5b60008581526006602052604090206001015461249a9060ff16614b5b565b60ff161580156124bf575060008581526006602052604090206001015460ff16600514155b80156124e0575060008581526006602052604090206001015460ff16603714155b612531576040805162461bcd60e51b815260206004820152601e60248201527f50533a53453a2043616e6e6f742062652073657420746f20657363726f770000604482015290519081900360640190fd5b60008581526006602052604090206001015461254f9060ff16614bae565b60ff16156125a4576040805162461bcd60e51b815260206004820152601760248201527f50533a53453a20496e20657363726f7720737461747573000000000000000000604482015290519081900360640190fd5b60008581526006602052604090206001015460c860ff90911610612605576040805162461bcd60e51b81526020600482015260136024820152721414ce94d14e949150d3d491081313d0d2d151606a1b604482015290519081900360640190fd5b61260d614d19565b5060008581526006602081815260409283902083516101208101855281548152600182015460ff8082169483019490945261010080820485169683019690965262010000900461ffff908116606083015260028301546080830152600383015460a0830152600483015460c0830152600583015460e083015291909301541692820192909252908516603c14156126a45760001981525b60ff858116602083810191825260008981526006808352604091829020865181559351600185018054848901516060808b015160ff19909316948a169490941761ff0019166101009190991681029890981763ffff000019166201000061ffff9283160217909155608080890151600288015560a0890151600388015560c0890151600488015560e089015160058801559688015195909201805461ffff19169590921694909417905580519182018890528082526017828201527f457363726f7720736574207375636365737366756c6c79000000000000000000928201929092529051600080516020614f2e833981519152929181900390910190a150506001805550505050565b60025460ff165b90565b6000806000806000806000806127cc614d19565b505050600096875250506006602081815260409687902087516101208101895281548152600182015460ff8082169483018590526101008083049091169a83018b905261ffff62010000909204821660608401819052600285015460808501819052600386015460a08601819052600487015460c08701819052600588015460e08801819052979099015490941692909401829052949b94995091975095509293509190565b600854604080516331a9108f60e11b815261ffff8516600482018190529151919233926001600160a01b0390911691636352211e916024808301926020929190829003018186803b1580156128c657600080fd5b505afa1580156128da573d6000803e3d6000fd5b505050506040513d60208110156128f057600080fd5b50516001600160a01b03161461294d576040805162461bcd60e51b815260206004820152601e60248201527f50533a41433a43616c6c6572206e6f74204143746f6b656e486f6c6465720000604482015290519081900360640190fd5b816003868660405180838380828437919091019485525050604080516020948190038501812061ffff8a166000908152908652829020805460ff191660ff978816179055948716938501939093525050808252601d828201527f416363657373436f6e74726c2064617461626173652061636365737321000000606083015251600080516020614f2e833981519152916080908290030190a15050505050565b6129f5614bf6565b6000546001600160a01b03908116911614612a45576040805162461bcd60e51b81526020600482018190526024820152600080516020614ed6833981519152604482015290519081900360640190fd5b600080546040516001600160a01b03909116907f8be0079c531659141344cd1fd0a4f28419497f9722a3daafe3b4186f6b6457e0908390a3600080546001600160a01b0319169055565b60026001541415612ad5576040805162461bcd60e51b815260206004820152601f6024820152600080516020614dfe833981519152604482015290519081900360640190fd5b600260018190555460ff1615612b25576040805162461bcd60e51b815260206004820152601060248201526f14185d5cd8589b194e881c185d5cd95960821b604482015290519081900360640190fd5b81600360046000336001600160a01b03166001600160a01b031681526020019081526020016000206040518082805460018160011615610100020316600290048015612ba85780601f10612b86576101008083540402835291820191612ba8565b820191906000526020600020905b815481529060010190602001808311612b94575b505092835250506040805191829003602090810190922061ffff84166000908152925290205460ff1660011480612c875750600360046000336001600160a01b03166001600160a01b031681526020019081526020016000206040518082805460018160011615610100020316600290048015612c5c5780601f10612c3a576101008083540402835291820191612c5c565b820191906000526020600020905b815481529060010190602001808311612c48575b50509283525050604080516020928190038301902061ffff84166000908152925290205460ff166002145b80612d3a5750600360046000336001600160a01b03166001600160a01b031681526020019081526020016000206040518082805460018160011615610100020316600290048015612d0f5780601f10612ced576101008083540402835291820191612d0f565b820191906000526020600020905b815481529060010190602001808311612cfb575b50509283525050604080516020928190038301902061ffff84166000908152925290205460ff166003145b80612ded5750600360046000336001600160a01b03166001600160a01b031681526020019081526020016000206040518082805460018160011615610100020316600290048015612dc25780601f10612da0576101008083540402835291820191612dc2565b820191906000526020600020905b815481529060010190602001808311612dae575b50509283525050604080516020928190038301902061ffff84166000908152925290205460ff166004145b612e285760405162461bcd60e51b8152600401808060200182810382526038815260200180614e676038913960400191505060405180910390fd5b60008581526006602052604090206001015460ff16603c1415612e7c5760405162461bcd60e51b8152600401808060200182810382526037815260200180614e9f6037913960400191505060405180910390fd5b60008581526006602052604090205415612edd576040805162461bcd60e51b815260206004820152601860248201527f50533a4e523a52656320616c7265616479206578697374730000000000000000604482015290519081900360640190fd5b83612f2f576040805162461bcd60e51b815260206004820152601960248201527f50533a4e523a5247542063616e6e6f7420626520626c616e6b00000000000000604482015290519081900360640190fd5b61ffff8316612f85576040805162461bcd60e51b815260206004820152601960248201527f50413a4e523a2021417373657420636c617373207a65726f2000000000000000604482015290519081900360640190fd5b612f8d614d19565b600360046000336001600160a01b03166001600160a01b03168152602001908152602001600020604051808280546001816001161561010002031660029004801561300f5780601f10612fed57610100808354040283529182019161300f565b820191906000526020600020905b815481529060010190602001808311612ffb575b505092835250506040805191829003602090810190922061ffff87166000908152925290205460ff166001141561304c5760006020820152613054565b603360208201525b61ffff848116606083810191825260a0840186815260808086018881528a875260008c8152600660208181526040928390208a518155818b0151600182018054868e01519b5160ff1990911660ff9384161761ff00191661010093909c1683029b909b1763ffff00001916620100009b8d169b909b029a909a17909955935160028501559451600384015560c0890151600484015560e089015160058401559588015191909501805461ffff1916919096161790945582519081018a9052828152600f818401526e13995dc81c9958c818dc99585d1959608a1b918101919091529051600080516020614f2e833981519152929181900390910190a150506001805550505050565b613164614bf6565b6000546001600160a01b039081169116146131b4576040805162461bcd60e51b81526020600482018190526024820152600080516020614ed6833981519152604482015290519081900360640190fd5b611b40614c98565b60008281526006602052604081205482141561322757604080516020810185905281815260168183015275149958dbdc99081b585d18da0818dbdb999a5c9b595960521b60608201529051600080516020614f2e8339815191529181900360800190a15060aa613277565b6040805160208101859052818152601581830152740a4cac6dee4c840c8decae640dcdee840dac2e8c6d605b1b60608201529051600080516020614f2e8339815191529181900360800190a15060005b92915050565b6000546001600160a01b031690565b600080600360046000866001600160a01b03166001600160a01b0316815260200190815260200160002060405180828054600181600116156101000203166002900480156133115780601f106132ef576101008083540402835291820191613311565b820191906000526020600020905b8154815290600101906020018083116132fd575b50509283525050604080516020928190038301812061ffff87166000908152908452828120546001600160a01b038916825260048552929020805460ff909316939092910190819083906002610100600183161502600019019091160480156133b15780601f1061338f5761010080835404028352918201916133b1565b820191906000526020600020905b81548152906001019060200180831161339d575b505091505060405160208183030381529060405280519060200120915091509250929050565b6002600154141561341d576040805162461bcd60e51b815260206004820152601f6024820152600080516020614dfe833981519152604482015290519081900360640190fd5b600260018190555460ff161561346d576040805162461bcd60e51b815260206004820152601060248201526f14185d5cd8589b194e881c185d5cd95960821b604482015290519081900360640190fd5b6006600083815260200190815260200160002060010160029054906101000a900461ffff16600360046000336001600160a01b03166001600160a01b0316815260200190815260200160002060405180828054600181600116156101000203166002900480156135145780601f106134f2576101008083540402835291820191613514565b820191906000526020600020905b815481529060010190602001808311613500575b505092835250506040805191829003602090810190922061ffff84166000908152925290205460ff16600114806135f35750600360046000336001600160a01b03166001600160a01b0316815260200190815260200160002060405180828054600181600116156101000203166002900480156135c85780601f106135a65761010080835404028352918201916135c8565b820191906000526020600020905b8154815290600101906020018083116135b4575b50509283525050604080516020928190038301902061ffff84166000908152925290205460ff166002145b806136a65750600360046000336001600160a01b03166001600160a01b03168152602001908152602001600020604051808280546001816001161561010002031660029004801561367b5780601f1061365957610100808354040283529182019161367b565b820191906000526020600020905b815481529060010190602001808311613667575b50509283525050604080516020928190038301902061ffff84166000908152925290205460ff166003145b806137595750600360046000336001600160a01b03166001600160a01b03168152602001908152602001600020604051808280546001816001161561010002031660029004801561372e5780601f1061370c57610100808354040283529182019161372e565b820191906000526020600020905b81548152906001019060200180831161371a575b50509283525050604080516020928190038301902061ffff84166000908152925290205460ff166004145b6137945760405162461bcd60e51b8152600401808060200182810382526038815260200180614e676038913960400191505060405180910390fd5b60008381526006602052604090205483906137e4576040805162461bcd60e51b81526020600482015260176024820152600080516020614f4e833981519152604482015290519081900360640190fd5b600084815260066020819052604090912060010154859160ff90911614801590613823575060008181526006602052604090206001015460ff16603214155b8015613844575060008181526006602052604090206001015460ff16603814155b61387f5760405162461bcd60e51b815260040180806020018281038252602b815260200180614f6e602b913960400191505060405180910390fd5b613887614d19565b5060008581526006602081815260409283902083516101208101855281548152600182015460ff808216948301949094526101008082049094169582019590955261ffff620100009095048516606082015260028201546080820152600382015460a0820152600482015460c0820152600582015460e082018190529190930154909316908201529015613962576040805162461bcd60e51b815260206004820152601e60248201527f50533a4d49323a2043616e6e6f74206f76657277726974652049504653320000604482015290519081900360640190fd5b60008681526006602052604090206001015460c860ff909116106139c4576040805162461bcd60e51b81526020600482015260146024820152731414ce93524c8e949150d3d491081313d0d2d15160621b604482015290519081900360640190fd5b60e081018581526000878152600660208181526040928390208551815581860151600182018054868901516060808b015160ff1990931660ff9586161761ff0019166101009590921685029190911763ffff000019166201000061ffff93841602179092556080808a0151600286015560a08a0151600386015560c08a01516004860155975160058501559188015192909401805461ffff19169290911691909117905582519081018a9052828152600e818401526d12541194cc881b5bd91a599a595960921b918101919091529051600080516020614f2e833981519152929181900390910190a150506001805550505050565b6000600360046000856001600160a01b03166001600160a01b031681526020019081526020016000206040518082805460018160011615610100020316600290048015613b3d5780601f10613b1b576101008083540402835291820191613b3d565b820191906000526020600020905b815481529060010190602001808311613b29575b505092835250506040805191829003602090810190922061ffff85166000908152925290205460ff16905092915050565b613b76614bf6565b6000546001600160a01b03908116911614613bc6576040805162461bcd60e51b81526020600482018190526024820152600080516020614ed6833981519152604482015290519081900360640190fd5b61ffff82161580613bdc57508161ffff1661ffff145b613c2d576040805162461bcd60e51b815260206004820152601860248201527f50533a41433a204143206e6f742030206f722036353533350000000000000000604482015290519081900360640190fd5b60048160ff161115613c86576040805162461bcd60e51b815260206004820152601860248201527f50533a41433a20496e76616c6964207573657220747970650000000000000000604482015290519081900360640190fd5b806003868660405180838380828437919091019485525050604080516020948190038501812061ffff8916600090815295529320805460ff191660ff9590951694909417909355508491506005908790879080838380828437919091019485525050604080516020948190038501902080546001600160a01b0319166001600160a01b0396871617905593871660009081526004909352505020613d2b908686614d65565b50604080516520a1afaa25a760d11b8152600560068083018290528351928390036026908101842054600880546001600160a01b03199081166001600160a01b03938416179091556520a1afa6a3a960d11b86529285019390935284519384900301832054600a8054909216921691909117905560ff83166020820152818152601d818301527f416363657373436f6e74726c206461746162617365206163636573732100000060608201529051600080516020614f2e8339815191529181900360800190a15050505050565b60006005826040518082805190602001908083835b60208310613e2c5780518252601f199092019160209182019101613e0d565b51815160209384036101000a60001901801990921691161790529201948552506040519384900301909220546001600160a01b0316925050505b919050565b600082815260066020526040812054821415613e89575060aa613277565b506000613277565b6000806000806000806000806000600660008b815260200190815260200160002060010160029054906101000a900461ffff16600360046000336001600160a01b03166001600160a01b031681526020019081526020016000206040518082805460018160011615610100020316600290048015613f465780601f10613f24576101008083540402835291820191613f46565b820191906000526020600020905b815481529060010190602001808311613f32575b505092835250506040805191829003602090810190922061ffff84166000908152925290205460ff16600114806140255750600360046000336001600160a01b03166001600160a01b031681526020019081526020016000206040518082805460018160011615610100020316600290048015613ffa5780601f10613fd8576101008083540402835291820191613ffa565b820191906000526020600020905b815481529060010190602001808311613fe6575b50509283525050604080516020928190038301902061ffff84166000908152925290205460ff166002145b806140d85750600360046000336001600160a01b03166001600160a01b0316815260200190815260200160002060405180828054600181600116156101000203166002900480156140ad5780601f1061408b5761010080835404028352918201916140ad565b820191906000526020600020905b815481529060010190602001808311614099575b50509283525050604080516020928190038301902061ffff84166000908152925290205460ff166003145b8061418b5750600360046000336001600160a01b03166001600160a01b0316815260200190815260200160002060405180828054600181600116156101000203166002900480156141605780601f1061413e576101008083540402835291820191614160565b820191906000526020600020905b81548152906001019060200180831161414c575b50509283525050604080516020928190038301902061ffff84166000908152925290205460ff166004145b6141c65760405162461bcd60e51b8152600401808060200182810382526038815260200180614e676038913960400191505060405180910390fd5b6141ce614d19565b5050506000988952505060066020818152604098899020895161012081018b528154808252600183015460ff8082169584018690526101008083049091169d84018e905261ffff62010000909204821660608501819052600286015460808601819052600387015460a08701819052600488015460c08801819052600589015460e0890181905298909a015490941692909501829052929e959d9c50919a509198509096509294509250565b600260015414156142c0576040805162461bcd60e51b815260206004820152601f6024820152600080516020614dfe833981519152604482015290519081900360640190fd5b60026001819055506006600083815260200190815260200160002060010160029054906101000a900461ffff16600360046000336001600160a01b03166001600160a01b03168152602001908152602001600020604051808280546001816001161561010002031660029004801561436f5780601f1061434d57610100808354040283529182019161436f565b820191906000526020600020905b81548152906001019060200180831161435b575b505092835250506040805191829003602090810190922061ffff84166000908152925290205460ff166001148061444e5750600360046000336001600160a01b03166001600160a01b0316815260200190815260200160002060405180828054600181600116156101000203166002900480156144235780601f10614401576101008083540402835291820191614423565b820191906000526020600020905b81548152906001019060200180831161440f575b50509283525050604080516020928190038301902061ffff84166000908152925290205460ff166002145b806145015750600360046000336001600160a01b03166001600160a01b0316815260200190815260200160002060405180828054600181600116156101000203166002900480156144d65780601f106144b45761010080835404028352918201916144d6565b820191906000526020600020905b8154815290600101906020018083116144c2575b50509283525050604080516020928190038301902061ffff84166000908152925290205460ff166003145b806145b45750600360046000336001600160a01b03166001600160a01b0316815260200190815260200160002060405180828054600181600116156101000203166002900480156145895780601f10614567576101008083540402835291820191614589565b820191906000526020600020905b815481529060010190602001808311614575575b50509283525050604080516020928190038301902061ffff84166000908152925290205460ff166004145b6145ef5760405162461bcd60e51b8152600401808060200182810382526038815260200180614e676038913960400191505060405180910390fd5b60025460ff161561463a576040805162461bcd60e51b815260206004820152601060248201526f14185d5cd8589b194e881c185d5cd95960821b604482015290519081900360640190fd5b600083815260066020526040902054839061468a576040805162461bcd60e51b81526020600482015260176024820152600080516020614f4e833981519152604482015290519081900360640190fd5b6146968360ff16614b5b565b60ff1660aa146146e6576040805162461bcd60e51b815260206004820152601660248201527550533a53534c3a4d7573742073657420746f204c2f5360501b604482015290519081900360640190fd5b60008481526006602052604090206001015460ff16600514801590614720575060008481526006602052604090206001015460ff16603214155b8015614741575060008481526006602052604090206001015460ff16603714155b61477c5760405162461bcd60e51b8152600401808060200182810382526038815260200180614fc66038913960400191505060405180910390fd5b60008481526006602052604090206001015460c860ff909116106147de576040805162461bcd60e51b81526020600482015260146024820152731414ce94d4d30e949150d3d491081313d0d2d15160621b604482015290519081900360640190fd5b6147e6614d19565b6006600086815260200190815260200160002060405180610120016040529081600082015481526020016001820160009054906101000a900460ff1660ff1660ff1681526020016001820160019054906101000a900460ff1660ff1660ff1681526020016001820160029054906101000a900461ffff1661ffff1661ffff168152602001600282015481526020016003820154815260200160048201548152602001600582015481526020016006820160009054906101000a900461ffff1661ffff1661ffff1681525050905083816020019060ff16908160ff168152505080600660008781526020019081526020016000206000820151816000015560208201518160010160006101000a81548160ff021916908360ff16021790555060408201518160010160016101000a81548160ff021916908360ff16021790555060608201518160010160026101000a81548161ffff021916908361ffff1602179055506080820151816002015560a0820151816003015560c0820151816004015560e082015181600501556101008201518160060160006101000a81548161ffff021916908361ffff1602179055509050508360ff16600314806149ac57508360ff166035145b15614a0a5760408051602081018790528181526018818301527f537461747573206368616e67656420746f2053544f4c454e000000000000000060608201529051600080516020614f2e8339815191529181900360800190a1614a58565b60408051602081018790528181526016818301527514dd185d1d5cc818da185b99d959081d1bc81313d4d560521b60608201529051600080516020614f2e8339815191529181900360800190a15b505060018055505050565b614a6b614bf6565b6000546001600160a01b03908116911614614abb576040805162461bcd60e51b81526020600482018190526024820152600080516020614ed6833981519152604482015290519081900360640190fd5b6001600160a01b038116614b005760405162461bcd60e51b8152600401808060200182810382526026815260200180614e1e6026913960400191505060405180910390fd5b600080546040516001600160a01b03808516939216917f8be0079c531659141344cd1fd0a4f28419497f9722a3daafe3b4186f6b6457e091a3600080546001600160a01b0319166001600160a01b0392909216919091179055565b60008161ffff16600314158015614b7757508161ffff16600414155b8015614b8857508161ffff16603514155b8015614b9957508161ffff16603614155b15614ba657506000613e66565b5060aa613e66565b60008161ffff16600614158015614bca57508161ffff16603214155b8015614bdb57508161ffff16603c14155b8015614b9957508161ffff16603814614ba657506000613e66565b3390565b60025460ff16614c48576040805162461bcd60e51b815260206004820152601460248201527314185d5cd8589b194e881b9bdd081c185d5cd95960621b604482015290519081900360640190fd5b6002805460ff191690557f5db9ee0a495bf2e6ff9c91a7834c1ba4fdd244a5e8aa4e537bd38aeae4b073aa614c7b614bf6565b604080516001600160a01b039092168252519081900360200190a1565b60025460ff1615614ce3576040805162461bcd60e51b815260206004820152601060248201526f14185d5cd8589b194e881c185d5cd95960821b604482015290519081900360640190fd5b6002805460ff191660011790557f62e78cea01bee320cd4e420270b5ea74000d11b0c9f74754ebdbfc544b05a258614c7b614bf6565b6040805161012081018252600080825260208201819052918101829052606081018290526080810182905260a0810182905260c0810182905260e0810182905261010081019190915290565b828054600181600116156101000203166002900490600052602060002090601f016020900481019282601f10614da65782800160ff19823516178555614dd3565b82800160010185558215614dd3579182015b82811115614dd3578235825591602001919060010190614db8565b50614ddf929150614de3565b5090565b6127b591905b80821115614ddf5760008155600101614de956fe5265656e7472616e637947756172643a207265656e7472616e742063616c6c004f776e61626c653a206e6577206f776e657220697320746865207a65726f206164647265737350533a4341433a43616e6e6f74206368616e676520414320746f206e657720726f6f7450533a49413a436f6e7472616374206e6f7420617574686f72697a6564206f7220696d70726f7065726c79207065726d697373696f6e656450533a4e523a41737365742069732072656379636c65642e2055736520545f505255465f4150502072656379636c6520696e73746561644f776e61626c653a2063616c6c6572206973206e6f7420746865206f776e657250533a4d523a4d757374207573652073746f6c656e4f724c6f737420746f20736574206c6f7374206f722073746f6c656e207374617475737ee222c270bf2c8f2543ede7193d45d48eac904e416dc38e4604373d183eefbb50533a453a72656320646f6573206e6f7420657869737400000000000000000050533a4e453a726563206d6f642070726f686962207768696c65206c6f636b656420696e20657363726f7750533a4d523a6173736574537461747573203e203139392063616e6e6f7420626520736574206279207573657250533a53534c3a54786672206f7220657363726f77206c6f636b65642061737365742063616e6e6f742062652073657420746f204c2f532ea26469706673582212203645ba3eac8b5809384fe5a2601adf4f6c930b7b38aa20ff8bb6c0314e8f1be664736f6c63430006090033",
  "source": "/*-----------------------------------------------------------V0.6.7\r\n__/\\\\\\\\\\\\\\\\\\\\\\\\\\ _____/\\\\\\\\\\\\\\\\\\ _______/\\\\../\\\\ ___/\\\\\\\\\\\\\\\\\\\\\\\\\\\\\\\r\n _\\/\\\\\\/////////\\\\\\ _/\\\\\\///////\\\\\\ ____\\//..\\//____\\/\\\\\\///////////__\r\n  _\\/\\\\\\.......\\/\\\\\\.\\/\\\\\\.....\\/\\\\\\ ________________\\/\\\\\\ ____________\r\n   _\\/\\\\\\\\\\\\\\\\\\\\\\\\\\/__\\/\\\\\\\\\\\\\\\\\\\\\\/_____/\\\\\\____/\\\\\\.\\/\\\\\\\\\\\\\\\\\\\\\\ ____\r\n    _\\/\\\\\\/////////____\\/\\\\\\//////\\\\\\ ___\\/\\\\\\___\\/\\\\\\.\\/\\\\\\///////______\r\n     _\\/\\\\\\ ____________\\/\\\\\\ ___\\//\\\\\\ __\\/\\\\\\___\\/\\\\\\.\\/\\\\\\ ____________\r\n      _\\/\\\\\\ ____________\\/\\\\\\ ____\\//\\\\\\ _\\/\\\\\\___\\/\\\\\\.\\/\\\\\\ ____________\r\n       _\\/\\\\\\ ____________\\/\\\\\\ _____\\//\\\\\\.\\//\\\\\\\\\\\\\\\\\\ _\\/\\\\\\ ____________\r\n        _\\/// _____________\\/// _______\\/// __\\///////// __\\/// _____________\r\n         *-------------------------------------------------------------------*/\r\n\r\n/*-----------------------------------------------------------------\r\n *  TO DO\r\n *\r\n *---------------------------------------------------------------*/\r\n\r\n/*-----------------------------------------------------------------\r\n * IMPORTANT NOTE : DO NOT REMOVE FROM CODE:\r\n *      Verification of rgtHash in curated, custodial classes are not secure beyond the honorable intentions\r\n * of authorized recorders. All blockchain info is readable, so a bad actor could trivially obtain a copy of the\r\n * correct rgtHash on chain. This \"stumbling block\" measure is in place primarily to keep honest people honest, and\r\n * to require an actual, malicious effort to bypass security rather than a little copy-paste. Actual decentralized\r\n * security is provided with tokenized assets, which do not rely on the coercive trust relationship that creates the\r\n * incentive for recorders not to engage in malicious practices.\r\n *-----------------------------------------------------------------*/\r\n\r\n// SPDX-License-Identifier: UNLICENSED\r\npragma solidity ^0.6.7;\r\n\r\nimport \"./PRUF_INTERFACES.sol\";\r\nimport \"./Imports/Ownable.sol\";\r\nimport \"./Imports/Pausable.sol\";\r\nimport \"./Imports/SafeMath.sol\";\r\nimport \"./Imports/ReentrancyGuard.sol\";\r\n\r\ncontract STOR is Ownable, ReentrancyGuard, Pausable {\r\n    struct Record {\r\n        bytes32 rightsHolder; // KEK256 Registered owner\r\n        uint8 assetStatus; // Status - Transferrable, locked, in transfer, stolen, lost, etc.\r\n        uint8 forceModCount; // Number of times asset has been forceModded.\r\n        uint16 assetClass; // Type of asset\r\n        uint256 countDown; // Variable that can only be dencreased from countDownStart\r\n        uint256 countDownStart; // Starting point for countdown variable (set once)\r\n        bytes32 Ipfs1; // Publically viewable asset description\r\n        bytes32 Ipfs2; // Publically viewable immutable notes\r\n        uint16 numberOfTransfers; //number of transfers and forcemods\r\n    }\r\n\r\n    mapping(string => mapping(uint16 => uint8)) internal contractInfo;\r\n    mapping(address => string) private contractAddressToName; // Authorized contract addresses, indexed by address, with auth level 0-255\r\n    mapping(string => address) private contractNameToAddress; // Authorized contract addresses, indexed by name\r\n\r\n    mapping(bytes32 => Record) private database; // Main Data Storage\r\n\r\n    address private AssetClassTokenAddress;\r\n    AC_TKN_Interface private AssetClassTokenContract; //erc721_token prototype initialization\r\n\r\n    address internal AssetClassTokenManagerAddress;\r\n    AC_MGR_Interface internal AssetClassTokenManagerContract; // Set up external contract interface\r\n\r\n    //----------------------------------------------Modifiers----------------------------------------------//\r\n\r\n    /*\r\n     * @dev Verify user credentials\r\n     *\r\n     * Originating Address:\r\n     *      Exists in registeredUsers as a usertype 1 or 9\r\n     *      Is authorized for asset class\r\n     */\r\n    modifier isAuthorized(uint16 _assetClass) {\r\n        require(\r\n            (contractInfo[contractAddressToName[msg.sender]][_assetClass] == 1) ||\r\n                (contractInfo[contractAddressToName[msg.sender]][_assetClass] == 2) ||\r\n                (contractInfo[contractAddressToName[msg.sender]][_assetClass] == 3) ||\r\n                (contractInfo[contractAddressToName[msg.sender]][_assetClass] == 4),\r\n            \"PS:IA:Contract not authorized or improperly permissioned\"\r\n        );\r\n        _;\r\n    }\r\n\r\n    /*\r\n     * @dev Check record _idxHash exists and is not locked\r\n     */\r\n    modifier notEscrow(bytes32 _idxHash) {\r\n        require(\r\n            ((database[_idxHash].assetStatus != 6) &&\r\n                (database[_idxHash].assetStatus != 50) &&\r\n                (database[_idxHash].assetStatus != 56)),\r\n            \"PS:NE:rec mod prohib while locked in escrow\"\r\n        );\r\n        _;\r\n    }\r\n\r\n    /*\r\n     * @dev Check record exists in database\r\n     */\r\n    modifier exists(bytes32 _idxHash) {\r\n        require(\r\n            database[_idxHash].rightsHolder != 0,\r\n            \"PS:E:rec does not exist\"\r\n        );\r\n        _;\r\n    }\r\n\r\n    /*\r\n     * @dev Check to see if contract adress is registered to PRUF_escrowMGR\r\n     */\r\n    modifier isEscrowManager() {\r\n        require(\r\n            msg.sender == contractNameToAddress[\"ECR_MGR\"],\r\n            \"PS:IEM:Caller not escrowMgr\"\r\n        );\r\n        _;\r\n    }\r\n\r\n    // /*\r\n    //  * @dev Check to see if contract adress is registered to PRUF_AC_MGR\r\n    //  */\r\n    // modifier isACmanager() {\r\n    //     require(\r\n    //         msg.sender == contractNameToAddress[\"AC_MGR\"],\r\n    //         \"PS:IEM:Caller not AC Mgr\"\r\n    //     );\r\n    //     _;\r\n    // }\r\n\r\n    function isLostOrStolen(uint16 _assetStatus) private pure returns (uint8) {\r\n        if (\r\n            (_assetStatus != 3) &&\r\n            (_assetStatus != 4) &&\r\n            (_assetStatus != 53) &&\r\n            (_assetStatus != 54)\r\n        ) {\r\n            return 0;\r\n        } else {\r\n            return 170;\r\n        }\r\n    }\r\n\r\n    function isEscrow(uint16 _assetStatus) private pure returns (uint8) {\r\n        if (\r\n            (_assetStatus != 6) &&\r\n            (_assetStatus != 50) &&\r\n            (_assetStatus != 60) &&\r\n            (_assetStatus != 56)\r\n        ) {\r\n            return 0;\r\n        } else {\r\n            return 170;\r\n        }\r\n    }\r\n\r\n    //-----------------------------------------------Events------------------------------------------------//\r\n\r\n    event REPORT(string _msg, bytes32 b32);\r\n\r\n    //--------------------------------Internal Admin functions / onlyowner or isAdmin---------------------------------//\r\n\r\n    /**\r\n     * @dev Triggers stopped state.\r\n     *\r\n     */\r\n    function pause() external onlyOwner {\r\n        _pause();\r\n    }\r\n\r\n    /**\r\n     * @dev Returns to normal state.\r\n     */\r\n    function unpause() external onlyOwner {\r\n        _unpause();\r\n    }\r\n\r\n    /*\r\n     * @dev Authorize / Deauthorize / Authorize ADRESSES permitted to make record modifications, per AssetClass\r\n     */\r\n    function OO_addContract(\r\n        string calldata _name,\r\n        address _addr,\r\n        uint16 _assetClass,\r\n        uint8 _contractAuthLevel\r\n    ) external onlyOwner {\r\n        require(\r\n            (_assetClass == 0) || (_assetClass == 65535),\r\n            \"PS:AC: AC not 0 or 65535\"\r\n        );\r\n\r\n        require(_contractAuthLevel <= 4, \"PS:AC: Invalid user type\");\r\n        //^^^^^^^checks^^^^^^^^^\r\n\r\n        contractInfo[_name][_assetClass] = _contractAuthLevel;\r\n        contractNameToAddress[_name] = _addr;\r\n        contractAddressToName[_addr] = _name;\r\n\r\n        AssetClassTokenContract = AC_TKN_Interface(\r\n            contractNameToAddress[\"AC_TKN\"]\r\n        );\r\n        AssetClassTokenManagerContract = AC_MGR_Interface(\r\n            contractNameToAddress[\"AC_MGR\"]\r\n        );\r\n        //^^^^^^^effects^^^^^^^^^\r\n\r\n        emit REPORT(\r\n            \"AccessContrl database access!\",\r\n            bytes32(uint256(_contractAuthLevel))\r\n        ); //report access to the internal user database\r\n        //^^^^^^^interactions^^^^^^^^^\r\n    }\r\n\r\n    /*\r\n     * @dev Authorize / Deauthorize / Authorize contract Names permitted to make record modifications, per AssetClass\r\n     */\r\n    function enableContractForAC(\r\n        string calldata _name,\r\n        uint16 _assetClass,\r\n        uint8 _contractAuthLevel\r\n    ) external {\r\n        uint256 assetClass256 = uint256(_assetClass);\r\n        require(\r\n            AssetClassTokenContract.ownerOf(assetClass256) == msg.sender,\r\n            \"PS:AC:Caller not ACtokenHolder\"\r\n        );\r\n\r\n        //^^^^^^^checks^^^^^^^^^\r\n\r\n        contractInfo[_name][_assetClass] = _contractAuthLevel;\r\n        //^^^^^^^effects^^^^^^^^^\r\n\r\n        emit REPORT(\r\n            \"AccessContrl database access!\",\r\n            bytes32(uint256(_contractAuthLevel))\r\n        ); //report access to the internal user database\r\n        //^^^^^^^interactions^^^^^^^^^\r\n    }\r\n\r\n    //--------------------------------External \"write\" contract functions / authuser---------------------------------//\r\n\r\n    /*\r\n     * @dev Make a new record in the database  *read fullHash, write rightsHolder, recorders, assetClass,countDownStart --new_record\r\n     */\r\n    function newRecord(\r\n        bytes32 _idxHash,\r\n        bytes32 _rgtHash,\r\n        uint16 _assetClass,\r\n        uint256 _countDownStart\r\n    ) external nonReentrant whenNotPaused isAuthorized(_assetClass) {\r\n        require(\r\n            database[_idxHash].assetStatus != 60,\r\n            \"PS:NR:Asset is recycled. Use T_PRUF_APP recycle instead\"\r\n        );\r\n        require(\r\n            database[_idxHash].rightsHolder == 0,\r\n            \"PS:NR:Rec already exists\"\r\n        );\r\n        require(_rgtHash != 0, \"PS:NR:RGT cannot be blank\");\r\n        require(_assetClass != 0, \"PA:NR: !Asset class zero \");\r\n        //^^^^^^^checks^^^^^^^^^\r\n\r\n        Record memory rec;\r\n\r\n        if (contractInfo[contractAddressToName[msg.sender]][_assetClass] == 1) {\r\n            rec.assetStatus = 0;\r\n        } else {\r\n            rec.assetStatus = 51;\r\n        }\r\n\r\n        rec.assetClass = _assetClass;\r\n        rec.countDownStart = _countDownStart;\r\n        rec.countDown = _countDownStart;\r\n        rec.rightsHolder = _rgtHash;\r\n\r\n        database[_idxHash] = rec;\r\n        //^^^^^^^effects^^^^^^^^^\r\n\r\n        emit REPORT(\"New rec created\", _idxHash);\r\n        //^^^^^^^interactions^^^^^^^^^\r\n    }\r\n\r\n    /*\r\n     * @dev Modify a record in the database  *read fullHash, write rightsHolder, update recorder, assetClass,countDown update recorder....\r\n     */\r\n    function modifyRecord(\r\n        bytes32 _idxHash,\r\n        bytes32 _rgtHash,\r\n        uint8 _newAssetStatus,\r\n        uint256 _countDown,\r\n        uint8 _forceCount,\r\n        uint16 _numberOfTransfers\r\n    )\r\n        external\r\n        nonReentrant\r\n        whenNotPaused\r\n        isAuthorized(database[_idxHash].assetClass)\r\n        exists(_idxHash)\r\n        notEscrow(_idxHash)\r\n    {\r\n        bytes32 idxHash = _idxHash; //stack saving\r\n        bytes32 rgtHash = _rgtHash;\r\n\r\n        require( //prohibit increasing the countdown value\r\n            _countDown <= database[idxHash].countDown,\r\n            \"PS:MR:new countDown +!\"\r\n        );\r\n        require(\r\n            _forceCount >= database[idxHash].forceModCount,\r\n            \"PS:MR:new forceModCount -!\"\r\n        );\r\n        require(\r\n            _numberOfTransfers >= database[idxHash].numberOfTransfers,\r\n            \"PS:MR:new transferCount -!\"\r\n        );\r\n        require(\r\n            _newAssetStatus < 200,\r\n            \"PS:MR:assetStatus > 199 cannot be set by user\"\r\n        );\r\n        require(\r\n            isLostOrStolen(_newAssetStatus) == 0,\r\n            \"PS:MR:Must use stolenOrLost to set lost or stolen status\"\r\n        );\r\n        require(\r\n            database[idxHash].assetStatus < 200,\r\n            \"PS:MR:RECORD LOCKED\"\r\n        );\r\n        //^^^^^^^checks^^^^^^^^^\r\n\r\n        Record memory rec = database[_idxHash];\r\n        rec.rightsHolder = rgtHash;\r\n        rec.countDown = _countDown;\r\n        rec.assetStatus = _newAssetStatus;\r\n        rec.forceModCount = _forceCount;\r\n        rec.numberOfTransfers = _numberOfTransfers;\r\n\r\n        database[idxHash] = rec;\r\n        //^^^^^^^effects^^^^^^^^^\r\n\r\n        emit REPORT(\"Rec Modified\", _idxHash);\r\n        //^^^^^^^interactions^^^^^^^^^\r\n    }\r\n\r\n    /*\r\n     * @dev Change asset class of an asset\r\n     */\r\n    function changeAC(bytes32 _idxHash, uint16 _newAssetClass)\r\n        external\r\n        nonReentrant\r\n        whenNotPaused\r\n        isAuthorized(database[_idxHash].assetClass)\r\n        exists(_idxHash)\r\n        notEscrow(_idxHash)\r\n    {\r\n        Record memory rec = database[_idxHash];\r\n\r\n        require(\r\n            AssetClassTokenManagerContract.isSameRootAC(\r\n                _newAssetClass,\r\n                rec.assetClass\r\n            ) == 170,\r\n            \"PS:CAC:Cannot change AC to new root\"\r\n        );\r\n        require(\r\n            database[_idxHash].assetStatus < 200,\r\n            \"PS:CAC:RECORD LOCKED\"\r\n        );\r\n        //^^^^^^^checks^^^^^^^^^\r\n\r\n        rec.assetClass = _newAssetClass;\r\n        database[_idxHash] = rec;\r\n        //^^^^^^^effects^^^^^^^^^\r\n\r\n        emit REPORT(\"Changed Asset Class\", _idxHash);\r\n        //^^^^^^^interactions^^^^^^^^^\r\n    }\r\n\r\n    /*\r\n     * @dev Set an asset tot stolen or lost. Allows narrow modification of status 6/12 assets, normally locked\r\n     */\r\n    function setStolenOrLost(bytes32 _idxHash, uint8 _newAssetStatus)\r\n        external\r\n        nonReentrant\r\n        isAuthorized(database[_idxHash].assetClass)\r\n        whenNotPaused\r\n        exists(_idxHash)\r\n    {\r\n        require(\r\n            isLostOrStolen(_newAssetStatus) == 170,\r\n            \"PS:SSL:Must set to L/S\"\r\n        );\r\n        require(\r\n            (database[_idxHash].assetStatus != 5) &&\r\n                (database[_idxHash].assetStatus != 50) &&\r\n                (database[_idxHash].assetStatus != 55),\r\n            \"PS:SSL:Txfr or escrow locked asset cannot be set to L/S.\"\r\n        );\r\n        require(\r\n            database[_idxHash].assetStatus < 200,\r\n            \"PS:SSL:RECORD LOCKED\"\r\n        );\r\n        //^^^^^^^checks^^^^^^^^^\r\n\r\n        Record memory rec = database[_idxHash];\r\n        rec.assetStatus = _newAssetStatus;\r\n        database[_idxHash] = rec;\r\n        //^^^^^^^effects^^^^^^^^^\r\n\r\n        if ((_newAssetStatus == 3) || (_newAssetStatus == 53)) {\r\n            emit REPORT(\"Status changed to STOLEN\", _idxHash);\r\n        } else {\r\n            emit REPORT(\"Status changed to LOST\", _idxHash);\r\n        }\r\n        //^^^^^^^interactions^^^^^^^^^\r\n    }\r\n\r\n    /*\r\n     * @dev Set an asset to escrow status (6/50/56). Sets timelock for unix timestamp of escrow end.\r\n     */\r\n    function setEscrow(\r\n        bytes32 _idxHash,\r\n        uint8 _newAssetStatus,\r\n        bytes32 _contractNameHash\r\n    )\r\n        external\r\n        nonReentrant\r\n        whenNotPaused\r\n        isEscrowManager\r\n        exists(_idxHash)\r\n        notEscrow(_idxHash)\r\n    {\r\n        require(isEscrow(_newAssetStatus) == 170, \"PS:SE: Status\");\r\n        require(\r\n            (isLostOrStolen(database[_idxHash].assetStatus) == 0) &&\r\n                (database[_idxHash].assetStatus != 5) &&\r\n                (database[_idxHash].assetStatus != 55),\r\n            \"PS:SE: Cannot be set to escrow\"\r\n        );\r\n        require(\r\n            isEscrow(database[_idxHash].assetStatus) == 0,\r\n            \"PS:SE: In escrow status\"\r\n        );\r\n        require(\r\n            database[_idxHash].assetStatus < 200,\r\n            \"PS:SE:RECORD LOCKED\"\r\n        );\r\n        //^^^^^^^checks^^^^^^^^^\r\n\r\n        Record memory rec = database[_idxHash];\r\n\r\n        if (_newAssetStatus == 60) {\r\n            rec\r\n                .rightsHolder = 0xFFFFFFFFFFFFFFFFFFFFFFFFFFFFFFFFFFFFFFFFFFFFFFFFFFFFFFFFFFFFFFFF;\r\n        }\r\n        rec.assetStatus = _newAssetStatus;\r\n        database[_idxHash] = rec;\r\n        //^^^^^^^effects^^^^^^^^^\r\n        emit REPORT(\"Escrow set successfully\", _contractNameHash);\r\n        //^^^^^^^interactions^^^^^^^^^\r\n    }\r\n\r\n    /*\r\n     * @dev remove an asset from escrow status\r\n     */\r\n    function endEscrow(bytes32 _idxHash, bytes32 _contractNameHash)\r\n        external\r\n        nonReentrant\r\n        whenNotPaused\r\n        isEscrowManager\r\n        exists(_idxHash)\r\n    {\r\n        require(\r\n            isEscrow(database[_idxHash].assetStatus) == 170,\r\n            \"PS:EE:Not in escrow status\"\r\n        );\r\n        //^^^^^^^checks^^^^^^^^^\r\n        Record memory rec = database[_idxHash];\r\n\r\n        if (rec.assetStatus == 6) {\r\n            rec.assetStatus = 7;\r\n        }\r\n        if (rec.assetStatus == 56) {\r\n            rec.assetStatus = 57;\r\n        }\r\n        if (rec.assetStatus == 50) {\r\n            rec.assetStatus = 58;\r\n        }\r\n        if (rec.assetStatus == 60) {\r\n            rec.assetStatus = 58;\r\n        }\r\n\r\n        database[_idxHash] = rec;\r\n        //^^^^^^^effects^^^^^^^^^\r\n        emit REPORT(\"Escrow Ended by contract:\", _contractNameHash);\r\n        //^^^^^^^interactions^^^^^^^^^\r\n    }\r\n\r\n    /*\r\n     * @dev Modify record Ipfs1 data\r\n     */\r\n    function modifyIpfs1(bytes32 _idxHash, bytes32 _Ipfs1)\r\n        external\r\n        nonReentrant\r\n        whenNotPaused\r\n        isAuthorized(database[_idxHash].assetClass)\r\n        exists(_idxHash)\r\n        notEscrow(_idxHash)\r\n    {\r\n        Record memory rec = database[_idxHash];\r\n\r\n        require((rec.Ipfs1 != _Ipfs1), \"PS:MI1: New value same as old\");\r\n        require(\r\n            database[_idxHash].assetStatus < 200,\r\n            \"PS:MI1:RECORD LOCKED\"\r\n        );\r\n        //^^^^^^^checks^^^^^^^^^\r\n\r\n        rec.Ipfs1 = _Ipfs1;\r\n\r\n        database[_idxHash] = rec;\r\n        //^^^^^^^effects^^^^^^^^^\r\n        emit REPORT(\"IPFS1 modified\", _idxHash);\r\n        //^^^^^^^interactions^^^^^^^^^\r\n    }\r\n\r\n    function modifyIpfs2(\r\n        //bytes32 _userHash,\r\n        bytes32 _idxHash,\r\n        bytes32 _Ipfs2\r\n    )\r\n        external\r\n        nonReentrant\r\n        whenNotPaused\r\n        isAuthorized(database[_idxHash].assetClass)\r\n        exists(_idxHash)\r\n        notEscrow(_idxHash)\r\n    {\r\n        Record memory rec = database[_idxHash];\r\n\r\n        require((rec.Ipfs2 == 0), \"PS:MI2: Cannot overwrite IPFS2\");\r\n        require(\r\n            database[_idxHash].assetStatus < 200,\r\n            \"PS:MI2:RECORD LOCKED\"\r\n        );\r\n        //^^^^^^^checks^^^^^^^^^\r\n\r\n        rec.Ipfs2 = _Ipfs2;\r\n\r\n        database[_idxHash] = rec;\r\n        //^^^^^^^effects^^^^^^^^^\r\n\r\n        emit REPORT(\"IPFS2 modified\", _idxHash);\r\n        //^^^^^^^interactions^^^^^^^^^\r\n    }\r\n\r\n    //--------------------------------External READ ONLY contract functions / authuser---------------------------------//\r\n    /*\r\n     * @dev return a complete record from the database\r\n     */\r\n    function retrieveRecord(bytes32 _idxHash)\r\n        external\r\n        view\r\n        isAuthorized(database[_idxHash].assetClass)\r\n        returns (\r\n            //bytes32,\r\n            //bytes32,\r\n            bytes32,\r\n            uint8,\r\n            uint8,\r\n            uint16,\r\n            uint256,\r\n            uint256,\r\n            bytes32,\r\n            bytes32,\r\n            uint16\r\n        )\r\n    {\r\n        Record memory rec = database[_idxHash];\r\n\r\n        //  if (\r\n        //      (rec.assetStatus == 3) ||\r\n        //      (rec.assetStatus == 4) ||\r\n        //      (rec.assetStatus == 53) ||\r\n        //      (rec.assetStatus == 54)\r\n        //  ) {\r\n        //      emit REPORT_B32(\"Lost or stolen record queried\", _idxHash);\r\n        //  }\r\n\r\n        return (\r\n            rec.rightsHolder,\r\n            rec.assetStatus,\r\n            rec.forceModCount,\r\n            rec.assetClass,\r\n            rec.countDown,\r\n            rec.countDownStart,\r\n            rec.Ipfs1,\r\n            rec.Ipfs2,\r\n            rec.numberOfTransfers\r\n        );\r\n        //^^^^^^^interactions^^^^^^^^^\r\n    }\r\n\r\n    function retrieveShortRecord(bytes32 _idxHash)\r\n        external\r\n        view\r\n        returns (\r\n            uint8,\r\n            uint8,\r\n            uint16,\r\n            uint256,\r\n            uint256,\r\n            bytes32,\r\n            bytes32,\r\n            uint16\r\n        )\r\n    {\r\n        Record memory rec = database[_idxHash];\r\n\r\n        //  if (\r\n        //      (rec.assetStatus == 3) ||\r\n        //      (rec.assetStatus == 4) ||\r\n        //      (rec.assetStatus == 53) ||\r\n        //      (rec.assetStatus == 54)\r\n        //  ) {\r\n        //      emit REPORT_B32(\"Lost or stolen record queried\", _idxHash);\r\n        //  }\r\n\r\n        return (\r\n            rec.assetStatus,\r\n            rec.forceModCount,\r\n            rec.assetClass,\r\n            rec.countDown,\r\n            rec.countDownStart,\r\n            rec.Ipfs1,\r\n            rec.Ipfs2,\r\n            rec.numberOfTransfers\r\n        );\r\n        //^^^^^^^interactions^^^^^^^^^\r\n    }\r\n\r\n    /*\r\n     * @dev Compare record.rightsholder with supplied bytes32 rightsholder\r\n     */\r\n    function _verifyRightsHolder(bytes32 _idxHash, bytes32 _rgtHash)\r\n        external\r\n        view\r\n        returns (uint256)\r\n    {\r\n        if (_rgtHash == database[_idxHash].rightsHolder) {\r\n            return 170;\r\n        } else {\r\n            return 0;\r\n        }\r\n        //^^^^^^^checks/interactions^^^^^^^^^\r\n    }\r\n\r\n    /*\r\n     * @dev Compare record.rightsholder with supplied bytes32 rightsholder (writes in blockchain)\r\n     */\r\n    function blockchainVerifyRightsHolder(bytes32 _idxHash, bytes32 _rgtHash)\r\n        external\r\n        returns (uint8)\r\n    {\r\n        if (_rgtHash == database[_idxHash].rightsHolder) {\r\n            emit REPORT(\"Record match confirmed\", _idxHash);\r\n            return 170;\r\n        } else {\r\n            emit REPORT(\"Record does not match\", _idxHash);\r\n            return 0;\r\n        }\r\n        //^^^^^^^checks/interactions^^^^^^^^^\r\n    }\r\n\r\n    /*\r\n     * @dev //returns the address of a contract with name _name. This is for web3 implementations to find the right contract to interact with\r\n     * example :  Frontend = ****** so web 3 first asks storage where to find frontend, then calls for frontend functions.\r\n     */\r\n    function resolveContractAddress(string memory _name)\r\n        external\r\n        view\r\n        returns (address)\r\n    {\r\n        return contractNameToAddress[_name];\r\n        //^^^^^^^interactions^^^^^^^^^\r\n    }\r\n\r\n    /*\r\n     * @dev //returns the contract type of a contract with address _addr.\r\n     */\r\n    function ContractAuthType(address _addr, uint16 _assetClass)\r\n        external\r\n        view\r\n        returns (uint8)\r\n    {\r\n        return contractInfo[contractAddressToName[_addr]][_assetClass];\r\n        //^^^^^^^interactions^^^^^^^^^\r\n    }\r\n\r\n    /*\r\n     * @dev //returns the contract type of a contract with address _addr.\r\n     */\r\n    function ContractInfoHash(address _addr, uint16 _assetClass)\r\n        external\r\n        view\r\n        returns (uint8, bytes32)\r\n    {\r\n        return (\r\n            contractInfo[contractAddressToName[_addr]][_assetClass],\r\n            keccak256(abi.encodePacked(contractAddressToName[_addr]))\r\n        );\r\n        //^^^^^^^interactions^^^^^^^^^\r\n    }\r\n\r\n    //-----------------------------------------------Private functions------------------------------------------------//\r\n}\r\n",
  "sourcePath": "C:\\Users\\Blayde\\Documents\\ETHDEV\\bulletproof\\PRUF_TRUFFLE\\contracts\\PRUF_STOR.sol",
  "compiler": {
    "name": "solc",
    "version": "0.6.9+commit.3e3065ac.Emscripten.clang"
  },
  "schemaVersion": "3.0.23",
  "updatedAt": "2020-08-04T15:47:59.923Z",
  "devdoc": {
    "methods": {
      "owner()": {
        "details": "Returns the address of the current owner."
      },
      "pause()": {
        "details": "Triggers stopped state."
      },
      "paused()": {
        "details": "Returns true if the contract is paused, and false otherwise."
      },
      "renounceOwnership()": {
        "details": "Leaves the contract without owner. It will not be possible to call `onlyOwner` functions anymore. Can only be called by the current owner. NOTE: Renouncing ownership will leave the contract without an owner, thereby removing any functionality that is only available to the owner."
      },
      "transferOwnership(address)": {
        "details": "Transfers ownership of the contract to a new account (`newOwner`). Can only be called by the current owner."
      },
      "unpause()": {
        "details": "Returns to normal state."
      }
    }
  },
  "userdoc": {
    "methods": {}
  }
}