{
  "contractName": "STOR",
  "abi": [
    {
      "anonymous": false,
      "inputs": [
        {
          "indexed": true,
          "internalType": "address",
          "name": "previousOwner",
          "type": "address"
        },
        {
          "indexed": true,
          "internalType": "address",
          "name": "newOwner",
          "type": "address"
        }
      ],
      "name": "OwnershipTransferred",
      "type": "event"
    },
    {
      "anonymous": false,
      "inputs": [
        {
          "indexed": false,
          "internalType": "address",
          "name": "account",
          "type": "address"
        }
      ],
      "name": "Paused",
      "type": "event"
    },
    {
      "anonymous": false,
      "inputs": [
        {
          "indexed": false,
          "internalType": "string",
          "name": "_msg",
          "type": "string"
        },
        {
          "indexed": false,
          "internalType": "bytes32",
          "name": "b32",
          "type": "bytes32"
        }
      ],
      "name": "REPORT",
      "type": "event"
    },
    {
      "anonymous": false,
      "inputs": [
        {
          "indexed": false,
          "internalType": "address",
          "name": "account",
          "type": "address"
        }
      ],
      "name": "Unpaused",
      "type": "event"
    },
    {
      "inputs": [],
      "name": "owner",
      "outputs": [
        {
          "internalType": "address",
          "name": "",
          "type": "address"
        }
      ],
      "stateMutability": "view",
      "type": "function"
    },
    {
      "inputs": [],
      "name": "paused",
      "outputs": [
        {
          "internalType": "bool",
          "name": "",
          "type": "bool"
        }
      ],
      "stateMutability": "view",
      "type": "function"
    },
    {
      "inputs": [],
      "name": "renounceOwnership",
      "outputs": [],
      "stateMutability": "nonpayable",
      "type": "function"
    },
    {
      "inputs": [
        {
          "internalType": "address",
          "name": "newOwner",
          "type": "address"
        }
      ],
      "name": "transferOwnership",
      "outputs": [],
      "stateMutability": "nonpayable",
      "type": "function"
    },
    {
      "inputs": [],
      "name": "pause",
      "outputs": [],
      "stateMutability": "nonpayable",
      "type": "function"
    },
    {
      "inputs": [],
      "name": "unpause",
      "outputs": [],
      "stateMutability": "nonpayable",
      "type": "function"
    },
    {
      "inputs": [
        {
          "internalType": "string",
          "name": "_name",
          "type": "string"
        },
        {
          "internalType": "address",
          "name": "_addr",
          "type": "address"
        },
        {
          "internalType": "uint8",
          "name": "_contractAuthLevel",
          "type": "uint8"
        }
      ],
      "name": "OO_addContract",
      "outputs": [],
      "stateMutability": "nonpayable",
      "type": "function"
    },
    {
      "inputs": [
        {
          "internalType": "bytes32",
          "name": "_idxHash",
          "type": "bytes32"
        },
        {
          "internalType": "bytes32",
          "name": "_rgtHash",
          "type": "bytes32"
        },
        {
          "internalType": "uint16",
          "name": "_assetClass",
          "type": "uint16"
        },
        {
          "internalType": "uint256",
          "name": "_countDownStart",
          "type": "uint256"
        }
      ],
      "name": "newRecord",
      "outputs": [],
      "stateMutability": "nonpayable",
      "type": "function"
    },
    {
      "inputs": [
        {
          "internalType": "bytes32",
          "name": "_idxHash",
          "type": "bytes32"
        },
        {
          "internalType": "bytes32",
          "name": "_rgtHash",
          "type": "bytes32"
        },
        {
          "internalType": "uint8",
          "name": "_newAssetStatus",
          "type": "uint8"
        },
        {
          "internalType": "uint256",
          "name": "_countDown",
          "type": "uint256"
        },
        {
          "internalType": "uint8",
          "name": "_forceCount",
          "type": "uint8"
        },
        {
          "internalType": "uint16",
          "name": "_numberOfTransfers",
          "type": "uint16"
        }
      ],
      "name": "modifyRecord",
      "outputs": [],
      "stateMutability": "nonpayable",
      "type": "function"
    },
    {
      "inputs": [
        {
          "internalType": "bytes32",
          "name": "_idxHash",
          "type": "bytes32"
        },
        {
          "internalType": "uint16",
          "name": "_newAssetClass",
          "type": "uint16"
        }
      ],
      "name": "changeAC",
      "outputs": [],
      "stateMutability": "nonpayable",
      "type": "function"
    },
    {
      "inputs": [
        {
          "internalType": "bytes32",
          "name": "_idxHash",
          "type": "bytes32"
        },
        {
          "internalType": "uint8",
          "name": "_newAssetStatus",
          "type": "uint8"
        }
      ],
      "name": "setStolenOrLost",
      "outputs": [],
      "stateMutability": "nonpayable",
      "type": "function"
    },
    {
      "inputs": [
        {
          "internalType": "bytes32",
          "name": "_idxHash",
          "type": "bytes32"
        },
        {
          "internalType": "uint8",
          "name": "_newAssetStatus",
          "type": "uint8"
        },
        {
          "internalType": "bytes32",
          "name": "_contractNameHash",
          "type": "bytes32"
        }
      ],
      "name": "setEscrow",
      "outputs": [],
      "stateMutability": "nonpayable",
      "type": "function"
    },
    {
      "inputs": [
        {
          "internalType": "bytes32",
          "name": "_idxHash",
          "type": "bytes32"
        },
        {
          "internalType": "bytes32",
          "name": "_contractNameHash",
          "type": "bytes32"
        }
      ],
      "name": "endEscrow",
      "outputs": [],
      "stateMutability": "nonpayable",
      "type": "function"
    },
    {
      "inputs": [
        {
          "internalType": "bytes32",
          "name": "_idxHash",
          "type": "bytes32"
        },
        {
          "internalType": "bytes32",
          "name": "_Ipfs1",
          "type": "bytes32"
        }
      ],
      "name": "modifyIpfs1",
      "outputs": [],
      "stateMutability": "nonpayable",
      "type": "function"
    },
    {
      "inputs": [
        {
          "internalType": "bytes32",
          "name": "_idxHash",
          "type": "bytes32"
        },
        {
          "internalType": "bytes32",
          "name": "_Ipfs2",
          "type": "bytes32"
        }
      ],
      "name": "modifyIpfs2",
      "outputs": [],
      "stateMutability": "nonpayable",
      "type": "function"
    },
    {
      "inputs": [
        {
          "internalType": "bytes32",
          "name": "_idxHash",
          "type": "bytes32"
        }
      ],
      "name": "retrieveRecord",
      "outputs": [
        {
          "internalType": "bytes32",
          "name": "",
          "type": "bytes32"
        },
        {
          "internalType": "uint8",
          "name": "",
          "type": "uint8"
        },
        {
          "internalType": "uint8",
          "name": "",
          "type": "uint8"
        },
        {
          "internalType": "uint16",
          "name": "",
          "type": "uint16"
        },
        {
          "internalType": "uint256",
          "name": "",
          "type": "uint256"
        },
        {
          "internalType": "uint256",
          "name": "",
          "type": "uint256"
        },
        {
          "internalType": "bytes32",
          "name": "",
          "type": "bytes32"
        },
        {
          "internalType": "bytes32",
          "name": "",
          "type": "bytes32"
        },
        {
          "internalType": "uint16",
          "name": "",
          "type": "uint16"
        }
      ],
      "stateMutability": "view",
      "type": "function"
    },
    {
      "inputs": [
        {
          "internalType": "bytes32",
          "name": "_idxHash",
          "type": "bytes32"
        }
      ],
      "name": "retrieveShortRecord",
      "outputs": [
        {
          "internalType": "uint8",
          "name": "",
          "type": "uint8"
        },
        {
          "internalType": "uint8",
          "name": "",
          "type": "uint8"
        },
        {
          "internalType": "uint16",
          "name": "",
          "type": "uint16"
        },
        {
          "internalType": "uint256",
          "name": "",
          "type": "uint256"
        },
        {
          "internalType": "uint256",
          "name": "",
          "type": "uint256"
        },
        {
          "internalType": "bytes32",
          "name": "",
          "type": "bytes32"
        },
        {
          "internalType": "bytes32",
          "name": "",
          "type": "bytes32"
        },
        {
          "internalType": "uint16",
          "name": "",
          "type": "uint16"
        }
      ],
      "stateMutability": "view",
      "type": "function"
    },
    {
      "inputs": [
        {
          "internalType": "bytes32",
          "name": "_idxHash",
          "type": "bytes32"
        },
        {
          "internalType": "bytes32",
          "name": "_rgtHash",
          "type": "bytes32"
        }
      ],
      "name": "_verifyRightsHolder",
      "outputs": [
        {
          "internalType": "uint256",
          "name": "",
          "type": "uint256"
        }
      ],
      "stateMutability": "view",
      "type": "function"
    },
    {
      "inputs": [
        {
          "internalType": "bytes32",
          "name": "_idxHash",
          "type": "bytes32"
        },
        {
          "internalType": "bytes32",
          "name": "_rgtHash",
          "type": "bytes32"
        }
      ],
      "name": "blockchainVerifyRightsHolder",
      "outputs": [
        {
          "internalType": "uint8",
          "name": "",
          "type": "uint8"
        }
      ],
      "stateMutability": "nonpayable",
      "type": "function"
    },
    {
      "inputs": [
        {
          "internalType": "string",
          "name": "_name",
          "type": "string"
        }
      ],
      "name": "resolveContractAddress",
      "outputs": [
        {
          "internalType": "address",
          "name": "",
          "type": "address"
        }
      ],
      "stateMutability": "view",
      "type": "function"
    },
    {
      "inputs": [
        {
          "internalType": "address",
          "name": "_addr",
          "type": "address"
        }
      ],
      "name": "ContractAuthType",
      "outputs": [
        {
          "internalType": "uint8",
          "name": "",
          "type": "uint8"
        }
      ],
      "stateMutability": "view",
      "type": "function"
    },
    {
      "inputs": [
        {
          "internalType": "address",
          "name": "_addr",
          "type": "address"
        }
      ],
      "name": "ContractInfoHash",
      "outputs": [
        {
          "internalType": "uint8",
          "name": "",
          "type": "uint8"
        },
        {
          "internalType": "bytes32",
          "name": "",
          "type": "bytes32"
        }
      ],
      "stateMutability": "view",
      "type": "function"
    }
  ],
  "bytecode": "0x60806040523480156200001157600080fd5b506000620000276001600160e01b036200008516565b600080546001600160a01b0319166001600160a01b0383169081178255604051929350917f8be0079c531659141344cd1fd0a4f28419497f9722a3daafe3b4186f6b6457e0908290a350600180556002805460ff1916905562000089565b3390565b61382080620000996000396000f3fe608060405234801561001057600080fd5b50600436106101425760003560e01c80638456cb59116100b8578063c771a9821161007c578063c771a9821461043b578063d3dbdbda146104e1578063e248f2c414610516578063e59f444614610587578063f22354a6146105ad578063f2fde38b146105d357610142565b80638456cb59146103705780638d9fc872146103785780638da5cb5b146103b1578063a02259cd146103d5578063a91930451461041857610142565b806345ae06351161010a57806345ae063514610203578063528721151461022f5780635c975abb146102b15780636707f608146102cd578063715018a61461033557806373a710931461033d57610142565b806305dc907a1461014757806306b24ea81461018e5780632e97876b146101b55780633f4ba83a146101d857806342cdc4a4146101e0575b600080fd5b61018c600480360360c081101561015d57600080fd5b50803590602081013590604081013560ff908116916060810135916080820135169060a0013561ffff166105f9565b005b61018c600480360360408110156101a457600080fd5b508035906020013561ffff16610c42565b61018c600480360360408110156101cb57600080fd5b50803590602001356110bc565b61018c611485565b61018c600480360360408110156101f657600080fd5b50803590602001356114e7565b61018c6004803603606081101561021957600080fd5b5080359060ff60208201351690604001356118e9565b61018c6004803603606081101561024557600080fd5b81019060208101813564010000000081111561026057600080fd5b82018360208201111561027257600080fd5b8035906020019184600183028401116401000000008311171561029457600080fd5b919350915080356001600160a01b0316906020013560ff16611e1b565b6102b9611fff565b604080519115158252519081900360200190f35b6102ea600480360360208110156102e357600080fd5b5035612009565b6040805160ff998a16815297909816602088015261ffff958616878901526060870194909452608086019290925260a085015260c08401521660e08201529051908190036101000190f35b61018c6120c3565b61018c6004803603608081101561035357600080fd5b5080359060208101359061ffff6040820135169060600135612165565b61018c61253f565b61039b6004803603604081101561038e57600080fd5b508035906020013561259f565b6040805160ff9092168252519081900360200190f35b6103b9612660565b604080516001600160a01b039092168252519081900360200190f35b6103fb600480360360208110156103eb57600080fd5b50356001600160a01b031661266f565b6040805160ff909316835260208301919091528051918290030190f35b61018c6004803603604081101561042e57600080fd5b5080359060200135612724565b6103b96004803603602081101561045157600080fd5b81019060208101813564010000000081111561046c57600080fd5b82018360208201111561047e57600080fd5b803590602001918460018302840111640100000000831117156104a057600080fd5b91908080601f016020809104026020016040519081016040528093929190818152602001838380828437600092019190915250929550612b26945050505050565b610504600480360360408110156104f757600080fd5b5080359060200135612b99565b60408051918252519081900360200190f35b6105336004803603602081101561052c57600080fd5b5035612bbf565b60408051998a5260ff98891660208b0152969097168887015261ffff9485166060890152608088019390935260a087019190915260c086015260e08501529190911661010083015251908190036101200190f35b61039b6004803603602081101561059d57600080fd5b50356001600160a01b0316612d2c565b61018c600480360360408110156105c357600080fd5b508035906020013560ff16612d4a565b61018c600480360360208110156105e957600080fd5b50356001600160a01b0316613250565b6002600154141561063f576040805162461bcd60e51b815260206004820152601f60248201526000805160206135eb833981519152604482015290519081900360640190fd5b600260018190555460ff161561068f576040805162461bcd60e51b815260206004820152601060248201526f14185d5cd8589b194e881c185d5cd95960821b604482015290519081900360640190fd5b3360009081526003602052604090205460ff16600114806106c257503360009081526003602052604090205460ff166002145b806106e057503360009081526003602081905260409091205460ff16145b806106fd57503360009081526003602052604090205460ff166004145b6107385760405162461bcd60e51b81526004018080602001828103825260388152602001806136546038913960400191505060405180910390fd5b6000868152600560205260409020548690610788576040805162461bcd60e51b8152602060048201526017602482015260008051602061373b833981519152604482015290519081900360640190fd5b600087815260056020526040902060010154879060ff166006148015906107c4575060008181526005602052604090206001015460ff16603214155b80156107e5575060008181526005602052604090206001015460ff16603814155b6108205760405162461bcd60e51b815260040180806020018281038252602b81526020018061375b602b913960400191505060405180910390fd5b60008881526005602052604090206002015488908890871115610883576040805162461bcd60e51b815260206004820152601660248201527550533a4d523a6e657720636f756e74446f776e202b2160501b604482015290519081900360640190fd5b60008281526005602052604090206001015460ff610100909104811690871610156108f5576040805162461bcd60e51b815260206004820152601a60248201527f50533a4d523a6e657720666f7263654d6f64436f756e74202d21000000000000604482015290519081900360640190fd5b60008281526005602052604090206006015461ffff9081169086161015610963576040805162461bcd60e51b815260206004820152601a60248201527f50533a4d523a6e6577207472616e73666572436f756e74202d21000000000000604482015290519081900360640190fd5b60c88860ff16106109a55760405162461bcd60e51b815260040180806020018281038252602d815260200180613786602d913960400191505060405180910390fd5b6109b18860ff16613348565b60ff16156109f05760405162461bcd60e51b81526004018080602001828103825260388152602001806136e36038913960400191505060405180910390fd5b6109f8613506565b600560008c815260200190815260200160002060405180610120016040529081600082015481526020016001820160009054906101000a900460ff1660ff1660ff1681526020016001820160019054906101000a900460ff1660ff1660ff1681526020016001820160029054906101000a900461ffff1661ffff1661ffff168152602001600282015481526020016003820154815260200160048201548152602001600582015481526020016006820160009054906101000a900461ffff1661ffff1661ffff16815250509050818160000181815250508781608001818152505088816020019060ff16908160ff168152505086816040019060ff16908160ff16815250508581610100019061ffff16908161ffff168152505080600560008581526020019081526020016000206000820151816000015560208201518160010160006101000a81548160ff021916908360ff16021790555060408201518160010160016101000a81548160ff021916908360ff16021790555060608201518160010160026101000a81548161ffff021916908361ffff1602179055506080820151816002015560a0820151816003015560c0820151816004015560e082015181600501556101008201518160060160006101000a81548161ffff021916908361ffff16021790555090505060008051602061371b8339815191528b60405180806020018381526020018281038252600c8152602001806b149958c8135bd91a599a595960a21b8152506020019250505060405180910390a1505060018055505050505050505050565b60026001541415610c88576040805162461bcd60e51b815260206004820152601f60248201526000805160206135eb833981519152604482015290519081900360640190fd5b600260018190555460ff1615610cd8576040805162461bcd60e51b815260206004820152601060248201526f14185d5cd8589b194e881c185d5cd95960821b604482015290519081900360640190fd5b3360009081526003602052604090205460ff1660011480610d0b57503360009081526003602052604090205460ff166002145b80610d2957503360009081526003602081905260409091205460ff16145b80610d4657503360009081526003602052604090205460ff166004145b610d815760405162461bcd60e51b81526004018080602001828103825260388152602001806136546038913960400191505060405180910390fd5b6000828152600560205260409020548290610dd1576040805162461bcd60e51b8152602060048201526017602482015260008051602061373b833981519152604482015290519081900360640190fd5b600083815260056020526040902060010154839060ff16600614801590610e0d575060008181526005602052604090206001015460ff16603214155b8015610e2e575060008181526005602052604090206001015460ff16603814155b610e695760405162461bcd60e51b815260040180806020018281038252602b81526020018061375b602b913960400191505060405180910390fd5b610e71613506565b50600084815260056020818152604080842081516101208101835281548152600182015460ff808216838701526101008083049091168386015261ffff6201000090920482166060840181905260028501546080850152600385015460a085015260048086015460c08601529785015460e0850152600690940154821690830152600954845163f9499f1960e01b8152918b16968201969096526024810192909252915191946001600160a01b039094169363f9499f199360448084019491939192918390030190829087803b158015610f4a57600080fd5b505af1158015610f5e573d6000803e3d6000fd5b505050506040513d6020811015610f7457600080fd5b505160ff1660aa14610fb75760405162461bcd60e51b81526004018080602001828103825260238152602001806136316023913960400191505060405180910390fd5b61ffff84811660608381019182526000888152600560208181526040928390208751815581880151600182018054868b0151985160ff1990911660ff9384161761ff0019166101009390991683029890981763ffff0000191662010000988a169890980297909717909655608080890151600283015560a0890151600383015560c0890151600483015560e089015193820193909355948701516006909501805461ffff191695909616949094179094558051928301899052808352601383820152724368616e67656420417373657420436c61737360681b918301919091525160008051602061371b833981519152929181900390910190a1505060018055505050565b60026001541415611102576040805162461bcd60e51b815260206004820152601f60248201526000805160206135eb833981519152604482015290519081900360640190fd5b600260018190555460ff1615611152576040805162461bcd60e51b815260206004820152601060248201526f14185d5cd8589b194e881c185d5cd95960821b604482015290519081900360640190fd5b604080516d28292aa32fb2b9b1b937bba6a3a960911b81526004600e820152905190819003602e01902054336001600160a01b03909116146111db576040805162461bcd60e51b815260206004820152601b60248201527f50533a49454d3a43616c6c6572206e6f7420657363726f774d67720000000000604482015290519081900360640190fd5b600082815260056020526040902054829061122b576040805162461bcd60e51b8152602060048201526017602482015260008051602061373b833981519152604482015290519081900360640190fd5b6000838152600560205260409020600101546112499060ff1661339b565b60ff1660aa146112a0576040805162461bcd60e51b815260206004820152601a60248201527f50533a45453a4e6f7420696e20657363726f7720737461747573000000000000604482015290519081900360640190fd5b6112a8613506565b5060008381526005602081815260409283902083516101208101855281548152600182015460ff8082169483018590526101008083049091169683019690965261ffff620100009091048116606083015260028301546080830152600383015460a0830152600483015460c08301529382015460e0820152600691820154909316938301939093529091141561134057600760208201525b806020015160ff166038141561135857603960208201525b806020015160ff166032141561137057603a60208201525b806020015160ff16603c141561138857603a60208201525b6000848152600560208181526040928390208451815584820151600182018054878701516060808a015160ff1990931660ff9586161761ff0019166101009590921685029190911763ffff000019166201000061ffff9384160217909255608080890151600286015560a0890151600386015560c0890151600486015560e089015196850196909655918701516006909301805461ffff19169390921692909217905583519182018790528382526019828501527f457363726f7720456e64656420627920636f6e74726163743a0000000000000090820152915160008051602061371b8339815191529281900390910190a15050600180555050565b61148d6133e3565b6000546001600160a01b039081169116146114dd576040805162461bcd60e51b815260206004820181905260248201526000805160206136c3833981519152604482015290519081900360640190fd5b6114e56133e7565b565b6002600154141561152d576040805162461bcd60e51b815260206004820152601f60248201526000805160206135eb833981519152604482015290519081900360640190fd5b600260018190555460ff161561157d576040805162461bcd60e51b815260206004820152601060248201526f14185d5cd8589b194e881c185d5cd95960821b604482015290519081900360640190fd5b3360009081526003602052604090205460ff16600114806115b057503360009081526003602052604090205460ff166002145b806115ce57503360009081526003602081905260409091205460ff16145b806115eb57503360009081526003602052604090205460ff166004145b6116265760405162461bcd60e51b81526004018080602001828103825260388152602001806136546038913960400191505060405180910390fd5b6000828152600560205260409020548290611676576040805162461bcd60e51b8152602060048201526017602482015260008051602061373b833981519152604482015290519081900360640190fd5b600083815260056020526040902060010154839060ff166006148015906116b2575060008181526005602052604090206001015460ff16603214155b80156116d3575060008181526005602052604090206001015460ff16603814155b61170e5760405162461bcd60e51b815260040180806020018281038252602b81526020018061375b602b913960400191505060405180910390fd5b611716613506565b5060008481526005602081815260409283902083516101208101855281548152600182015460ff80821694830194909452610100808204909416958201959095526201000090940461ffff908116606086015260028201546080860152600382015460a0860152600482015460c086018190529382015460e086015260069091015416908301528414156117f1576040805162461bcd60e51b815260206004820152601d60248201527f50533a4d49313a204e65772076616c75652073616d65206173206f6c64000000604482015290519081900360640190fd5b60c081018481526000868152600560208181526040928390208551815581860151600182018054868901516060808b015160ff1990931660ff9586161761ff0019166101009590921685029190911763ffff000019166201000061ffff93841602179092556080808a0151600286015560a08a015160038601559751600485015560e089015195840195909555908701516006909201805461ffff191692909416919091179092558251908101899052828152600e818401526d12541194cc481b5bd91a599a595960921b91810191909152905160008051602061371b833981519152929181900390910190a1505060018055505050565b6002600154141561192f576040805162461bcd60e51b815260206004820152601f60248201526000805160206135eb833981519152604482015290519081900360640190fd5b600260018190555460ff161561197f576040805162461bcd60e51b815260206004820152601060248201526f14185d5cd8589b194e881c185d5cd95960821b604482015290519081900360640190fd5b604080516d28292aa32fb2b9b1b937bba6a3a960911b81526004600e820152905190819003602e01902054336001600160a01b0390911614611a08576040805162461bcd60e51b815260206004820152601b60248201527f50533a49454d3a43616c6c6572206e6f7420657363726f774d67720000000000604482015290519081900360640190fd5b6000838152600560205260409020548390611a58576040805162461bcd60e51b8152602060048201526017602482015260008051602061373b833981519152604482015290519081900360640190fd5b600084815260056020526040902060010154849060ff16600614801590611a94575060008181526005602052604090206001015460ff16603214155b8015611ab5575060008181526005602052604090206001015460ff16603814155b611af05760405162461bcd60e51b815260040180806020018281038252602b81526020018061375b602b913960400191505060405180910390fd5b611afc8460ff1661339b565b60ff1660aa14611b43576040805162461bcd60e51b815260206004820152600d60248201526c50533a53453a2053746174757360981b604482015290519081900360640190fd5b600085815260056020526040902060010154611b619060ff16613348565b60ff16158015611b87575060008581526005602081905260409091206001015460ff1614155b8015611ba8575060008581526005602052604090206001015460ff16603714155b611bf9576040805162461bcd60e51b815260206004820152601e60248201527f50533a53453a2043616e6e6f742062652073657420746f20657363726f770000604482015290519081900360640190fd5b600085815260056020526040902060010154611c179060ff1661339b565b60ff1615611c6c576040805162461bcd60e51b815260206004820152601760248201527f50533a53453a20496e20657363726f7720737461747573000000000000000000604482015290519081900360640190fd5b611c74613506565b5060008581526005602081815260409283902083516101208101855281548152600182015460ff8082169483019490945261010080820485169683019690965262010000900461ffff908116606083015260028301546080830152600383015460a0830152600483015460c08301529382015460e082015260069091015490921692820192909252908516603c1415611d0d5760001981525b60ff858116602083810191825260008981526005808352604091829020865181559351600185018054848901516060808b015160ff19909316948a169490941761ff0019166101009190991681029890981763ffff000019166201000061ffff9283160217909155608080890151600288015560a0890151600388015560c0890151600488015560e089015193870193909355958701516006909501805461ffff1916959096169490941790945580519182018890528082526017828201527f457363726f7720736574207375636365737366756c6c7900000000000000000092820192909252905160008051602061371b833981519152929181900390910190a150506001805550505050565b611e236133e3565b6000546001600160a01b03908116911614611e73576040805162461bcd60e51b815260206004820181905260248201526000805160206136c3833981519152604482015290519081900360640190fd5b60048160ff161115611ecc576040805162461bcd60e51b815260206004820152601860248201527f50533a41433a20496e76616c6964207573657220747970650000000000000000604482015290519081900360640190fd5b6001600160a01b0382166000908152600360205260409020805460ff191660ff8316178155611eff906001018585613552565b50816004858560405180838380828437919091019485525050604080516020948190038501812080546001600160a01b03199081166001600160a01b03988916179091556520a1afaa25a760d11b8252600460068084018290528451602694819003850181205460078054918c169186169190911790556520a1afa6a3a960d11b815290810191909152835190819003909201822054600980549190981691161790955560ff8616938501939093525050808252601d828201527f416363657373436f6e74726c206461746162617365206163636573732100000060608301525160008051602061371b833981519152916080908290030190a150505050565b60025460ff165b90565b60008060008060008060008061201d613506565b505050600096875250506005602081815260409687902087516101208101895281548152600182015460ff8082169483018590526101008083049091169a83018b905261ffff62010000909204821660608401819052600285015460808501819052600386015460a08601819052600487015460c087018190529887015460e0870181905260069097015490941692909401829052949b94995091975095509293509190565b6120cb6133e3565b6000546001600160a01b0390811691161461211b576040805162461bcd60e51b815260206004820181905260248201526000805160206136c3833981519152604482015290519081900360640190fd5b600080546040516001600160a01b03909116907f8be0079c531659141344cd1fd0a4f28419497f9722a3daafe3b4186f6b6457e0908390a3600080546001600160a01b0319169055565b600260015414156121ab576040805162461bcd60e51b815260206004820152601f60248201526000805160206135eb833981519152604482015290519081900360640190fd5b600260018190555460ff16156121fb576040805162461bcd60e51b815260206004820152601060248201526f14185d5cd8589b194e881c185d5cd95960821b604482015290519081900360640190fd5b3360009081526003602052604090205460ff166001148061222e57503360009081526003602052604090205460ff166002145b8061224c57503360009081526003602081905260409091205460ff16145b8061226957503360009081526003602052604090205460ff166004145b6122a45760405162461bcd60e51b81526004018080602001828103825260388152602001806136546038913960400191505060405180910390fd5b60008481526005602052604090206001015460ff16603c14156122f85760405162461bcd60e51b815260040180806020018281038252603781526020018061368c6037913960400191505060405180910390fd5b60008481526005602052604090205415612359576040805162461bcd60e51b815260206004820152601860248201527f50533a4e523a52656320616c7265616479206578697374730000000000000000604482015290519081900360640190fd5b826123ab576040805162461bcd60e51b815260206004820152601960248201527f50533a4e523a5247542063616e6e6f7420626520626c616e6b00000000000000604482015290519081900360640190fd5b61ffff8216612401576040805162461bcd60e51b815260206004820152601960248201527f50413a4e523a2021417373657420636c617373207a65726f2000000000000000604482015290519081900360640190fd5b612409613506565b3360009081526003602052604090205460ff16600114156124305760006020820152612438565b603360208201525b61ffff838116606083810191825260a08401858152608080860187815289875260008b8152600560208181526040928390208a518155818b0151600182018054868e01519b5160ff1990911660ff9384161761ff00191661010093909c1683029b909b1763ffff00001916620100009b8d169b909b029a909a17909955935160028501559451600384015560c0890151600484015560e089015190830155948701516006909101805461ffff191691909616179094558251908101899052828152600f818401526e13995dc81c9958c818dc99585d1959608a1b91810191909152905160008051602061371b833981519152929181900390910190a1505060018055505050565b6125476133e3565b6000546001600160a01b03908116911614612597576040805162461bcd60e51b815260206004820181905260248201526000805160206136c3833981519152604482015290519081900360640190fd5b6114e5613485565b60008281526005602052604081205482141561260a57604080516020810185905281815260168183015275149958dbdc99081b585d18da0818dbdb999a5c9b595960521b6060820152905160008051602061371b8339815191529181900360800190a15060aa61265a565b6040805160208101859052818152601581830152740a4cac6dee4c840c8decae640dcdee840dac2e8c6d605b1b6060820152905160008051602061371b8339815191529181900360800190a15060005b92915050565b6000546001600160a01b031690565b6001600160a01b03811660009081526003602090815260408083208054915160019182018054869560ff90951694919392909101918291849160026000199183161561010002919091019091160480156127005780601f106126de576101008083540402835291820191612700565b820191906000526020600020905b8154815290600101906020018083116126ec575b50509150506040516020818303038152906040528051906020012091509150915091565b6002600154141561276a576040805162461bcd60e51b815260206004820152601f60248201526000805160206135eb833981519152604482015290519081900360640190fd5b600260018190555460ff16156127ba576040805162461bcd60e51b815260206004820152601060248201526f14185d5cd8589b194e881c185d5cd95960821b604482015290519081900360640190fd5b3360009081526003602052604090205460ff16600114806127ed57503360009081526003602052604090205460ff166002145b8061280b57503360009081526003602081905260409091205460ff16145b8061282857503360009081526003602052604090205460ff166004145b6128635760405162461bcd60e51b81526004018080602001828103825260388152602001806136546038913960400191505060405180910390fd5b60008281526005602052604090205482906128b3576040805162461bcd60e51b8152602060048201526017602482015260008051602061373b833981519152604482015290519081900360640190fd5b600083815260056020526040902060010154839060ff166006148015906128ef575060008181526005602052604090206001015460ff16603214155b8015612910575060008181526005602052604090206001015460ff16603814155b61294b5760405162461bcd60e51b815260040180806020018281038252602b81526020018061375b602b913960400191505060405180910390fd5b612953613506565b5060008481526005602081815260409283902083516101208101855281548152600182015460ff808216948301949094526101008082049094169582019590955261ffff620100009095048516606082015260028201546080820152600382015460a0820152600482015460c08201529281015460e08401819052600690910154909316908201529015612a2e576040805162461bcd60e51b815260206004820152601e60248201527f50533a4d49323a2043616e6e6f74206f76657277726974652049504653320000604482015290519081900360640190fd5b60e081018481526000868152600560208181526040928390208551815581860151600182018054868901516060808b015160ff1990931660ff9586161761ff0019166101009590921685029190911763ffff000019166201000061ffff93841602179092556080808a0151600286015560a08a0151600386015560c08a01516004860155975195840195909555908701516006909201805461ffff191692909416919091179092558251908101899052828152600e818401526d12541194cc881b5bd91a599a595960921b91810191909152905160008051602061371b833981519152929181900390910190a1505060018055505050565b60006004826040518082805190602001908083835b60208310612b5a5780518252601f199092019160209182019101612b3b565b51815160209384036101000a60001901801990921691161790529201948552506040519384900301909220546001600160a01b0316925050505b919050565b600082815260056020526040812054821415612bb7575060aa61265a565b50600061265a565b336000908152600360205260408120548190819081908190819081908190819060ff1660011480612c0257503360009081526003602052604090205460ff166002145b80612c2057503360009081526003602081905260409091205460ff16145b80612c3d57503360009081526003602052604090205460ff166004145b612c785760405162461bcd60e51b81526004018080602001828103825260388152602001806136546038913960400191505060405180910390fd5b612c80613506565b5050506000978852505060056020818152604097889020885161012081018a528154808252600183015460ff8082169584018690526101008083049091169c84018d90526201000090910461ffff90811660608501819052600286015460808601819052600387015460a08701819052600488015460c088018190529988015460e0880181905260069098015490931693909501839052929d959c9b5091995091975095509293509190565b6001600160a01b031660009081526003602052604090205460ff1690565b60026001541415612d90576040805162461bcd60e51b815260206004820152601f60248201526000805160206135eb833981519152604482015290519081900360640190fd5b600260019081553360009081526003602052604090205460ff161480612dc857503360009081526003602052604090205460ff166002145b80612de657503360009081526003602081905260409091205460ff16145b80612e0357503360009081526003602052604090205460ff166004145b612e3e5760405162461bcd60e51b81526004018080602001828103825260388152602001806136546038913960400191505060405180910390fd5b60025460ff1615612e89576040805162461bcd60e51b815260206004820152601060248201526f14185d5cd8589b194e881c185d5cd95960821b604482015290519081900360640190fd5b6000828152600560205260409020548290612ed9576040805162461bcd60e51b8152602060048201526017602482015260008051602061373b833981519152604482015290519081900360640190fd5b612ee58260ff16613348565b60ff1660aa14612f35576040805162461bcd60e51b815260206004820152601660248201527550533a53534c3a4d7573742073657420746f204c2f5360501b604482015290519081900360640190fd5b60008381526005602081905260409091206001015460ff1614801590612f70575060008381526005602052604090206001015460ff16603214155b8015612f91575060008381526005602052604090206001015460ff16603714155b612fcc5760405162461bcd60e51b81526004018080602001828103825260388152602001806137b36038913960400191505060405180910390fd5b612fd4613506565b6005600085815260200190815260200160002060405180610120016040529081600082015481526020016001820160009054906101000a900460ff1660ff1660ff1681526020016001820160019054906101000a900460ff1660ff1660ff1681526020016001820160029054906101000a900461ffff1661ffff1661ffff168152602001600282015481526020016003820154815260200160048201548152602001600582015481526020016006820160009054906101000a900461ffff1661ffff1661ffff1681525050905082816020019060ff16908160ff168152505080600560008681526020019081526020016000206000820151816000015560208201518160010160006101000a81548160ff021916908360ff16021790555060408201518160010160016101000a81548160ff021916908360ff16021790555060608201518160010160026101000a81548161ffff021916908361ffff1602179055506080820151816002015560a0820151816003015560c0820151816004015560e082015181600501556101008201518160060160006101000a81548161ffff021916908361ffff1602179055509050508260ff166003148061319a57508260ff166035145b156131f85760408051602081018690528181526018818301527f537461747573206368616e67656420746f2053544f4c454e00000000000000006060820152905160008051602061371b8339815191529181900360800190a1613246565b60408051602081018690528181526016818301527514dd185d1d5cc818da185b99d959081d1bc81313d4d560521b6060820152905160008051602061371b8339815191529181900360800190a15b5050600180555050565b6132586133e3565b6000546001600160a01b039081169116146132a8576040805162461bcd60e51b815260206004820181905260248201526000805160206136c3833981519152604482015290519081900360640190fd5b6001600160a01b0381166132ed5760405162461bcd60e51b815260040180806020018281038252602681526020018061360b6026913960400191505060405180910390fd5b600080546040516001600160a01b03808516939216917f8be0079c531659141344cd1fd0a4f28419497f9722a3daafe3b4186f6b6457e091a3600080546001600160a01b0319166001600160a01b0392909216919091179055565b60008161ffff1660031415801561336457508161ffff16600414155b801561337557508161ffff16603514155b801561338657508161ffff16603614155b1561339357506000612b94565b5060aa612b94565b60008161ffff166006141580156133b757508161ffff16603214155b80156133c857508161ffff16603c14155b801561338657508161ffff1660381461339357506000612b94565b3390565b60025460ff16613435576040805162461bcd60e51b815260206004820152601460248201527314185d5cd8589b194e881b9bdd081c185d5cd95960621b604482015290519081900360640190fd5b6002805460ff191690557f5db9ee0a495bf2e6ff9c91a7834c1ba4fdd244a5e8aa4e537bd38aeae4b073aa6134686133e3565b604080516001600160a01b039092168252519081900360200190a1565b60025460ff16156134d0576040805162461bcd60e51b815260206004820152601060248201526f14185d5cd8589b194e881c185d5cd95960821b604482015290519081900360640190fd5b6002805460ff191660011790557f62e78cea01bee320cd4e420270b5ea74000d11b0c9f74754ebdbfc544b05a2586134686133e3565b6040805161012081018252600080825260208201819052918101829052606081018290526080810182905260a0810182905260c0810182905260e0810182905261010081019190915290565b828054600181600116156101000203166002900490600052602060002090601f016020900481019282601f106135935782800160ff198235161785556135c0565b828001600101855582156135c0579182015b828111156135c05782358255916020019190600101906135a5565b506135cc9291506135d0565b5090565b61200691905b808211156135cc57600081556001016135d656fe5265656e7472616e637947756172643a207265656e7472616e742063616c6c004f776e61626c653a206e6577206f776e657220697320746865207a65726f206164647265737350533a4341433a43616e6e6f74206368616e676520414320746f206e657720726f6f7450533a49413a436f6e7472616374206e6f7420617574686f72697a6564206f7220696d70726f7065726c79207065726d697373696f6e656450533a4e523a41737365742069732072656379636c65642e2055736520545f505255465f4150502072656379636c6520696e73746561644f776e61626c653a2063616c6c6572206973206e6f7420746865206f776e657250533a4d523a4d757374207573652073746f6c656e4f724c6f737420746f20736574206c6f7374206f722073746f6c656e207374617475737ee222c270bf2c8f2543ede7193d45d48eac904e416dc38e4604373d183eefbb50533a453a72656320646f6573206e6f7420657869737400000000000000000050533a4e453a726563206d6f642070726f686962207768696c65206c6f636b656420696e20657363726f7750533a4d523a6173736574537461747573203e203139392063616e6e6f7420626520736574206279207573657250533a53534c3a54786672206f7220657363726f77206c6f636b65642061737365742063616e6e6f742062652073657420746f204c2f532ea264697066735822122007731281ee453a33d350c7eef648bd01441568f075284e16f5ab34cadb35a38064736f6c63430006090033",
  "immutableReferences": {},
  "source": "/*-----------------------------------------------------------V0.6.7\r\n__/\\\\\\\\\\\\\\\\\\\\\\\\\\ _____/\\\\\\\\\\\\\\\\\\ _______/\\\\../\\\\ ___/\\\\\\\\\\\\\\\\\\\\\\\\\\\\\\\r\n _\\/\\\\\\/////////\\\\\\ _/\\\\\\///////\\\\\\ ____\\//..\\//____\\/\\\\\\///////////__\r\n  _\\/\\\\\\.......\\/\\\\\\.\\/\\\\\\.....\\/\\\\\\ ________________\\/\\\\\\ ____________\r\n   _\\/\\\\\\\\\\\\\\\\\\\\\\\\\\/__\\/\\\\\\\\\\\\\\\\\\\\\\/_____/\\\\\\____/\\\\\\.\\/\\\\\\\\\\\\\\\\\\\\\\ ____\r\n    _\\/\\\\\\/////////____\\/\\\\\\//////\\\\\\ ___\\/\\\\\\___\\/\\\\\\.\\/\\\\\\///////______\r\n     _\\/\\\\\\ ____________\\/\\\\\\ ___\\//\\\\\\ __\\/\\\\\\___\\/\\\\\\.\\/\\\\\\ ____________\r\n      _\\/\\\\\\ ____________\\/\\\\\\ ____\\//\\\\\\ _\\/\\\\\\___\\/\\\\\\.\\/\\\\\\ ____________\r\n       _\\/\\\\\\ ____________\\/\\\\\\ _____\\//\\\\\\.\\//\\\\\\\\\\\\\\\\\\ _\\/\\\\\\ ____________\r\n        _\\/// _____________\\/// _______\\/// __\\///////// __\\/// _____________\r\n         *-------------------------------------------------------------------*/\r\n\r\n/*-----------------------------------------------------------------\r\n *  TO DO\r\n *\r\n *---------------------------------------------------------------*/\r\n\r\n/*-----------------------------------------------------------------\r\n * IMPORTANT NOTE : DO NOT REMOVE FROM CODE:\r\n *      Verification of rgtHash in curated, custodial classes are not secure beyond the honorable intentions\r\n * of authorized recorders. All blockchain info is readable, so a bad actor could trivially obtain a copy of the\r\n * correct rgtHash on chain. This \"stumbling block\" measure is in place primarily to keep honest people honest, and\r\n * to require an actual, malicious effort to bypass security rather than a little copy-paste. Actual decentralized\r\n * security is provided with tokenized assets, which do not rely on the coercive trust relationship that creates the\r\n * incentive for recorders not to engage in malicious practices.\r\n *-----------------------------------------------------------------*/\r\n\r\n// SPDX-License-Identifier: UNLICENSED\r\npragma solidity ^0.6.7;\r\n\r\nimport \"./PRUF_INTERFACES.sol\";\r\nimport \"./Imports/Ownable.sol\";\r\nimport \"./Imports/Pausable.sol\";\r\nimport \"./Imports/SafeMath.sol\";\r\nimport \"./Imports/ReentrancyGuard.sol\";\r\n\r\ncontract STOR is Ownable, ReentrancyGuard, Pausable {\r\n    struct Record {\r\n        bytes32 rightsHolder; // KEK256 Registered owner\r\n        uint8 assetStatus; // Status - Transferrable, locked, in transfer, stolen, lost, etc.\r\n        uint8 forceModCount; // Number of times asset has been forceModded.\r\n        uint16 assetClass; // Type of asset\r\n        uint256 countDown; // Variable that can only be dencreased from countDownStart\r\n        uint256 countDownStart; // Starting point for countdown variable (set once)\r\n        bytes32 Ipfs1; // Publically viewable asset description\r\n        bytes32 Ipfs2; // Publically viewable immutable notes\r\n        uint16 numberOfTransfers; //number of transfers and forcemods\r\n    }\r\n\r\n    struct Contracts {\r\n        uint8 contractType; // Auth Level / type\r\n        string name; // Contract Name\r\n    }\r\n\r\n    mapping(address => Contracts) private contractInfo; // Authorized contract addresses, indexed by address, with auth level 0-255\r\n    mapping(string => address) private contractNameToAddress; // Authorized contract addresses, indexed by name\r\n    mapping(bytes32 => Record) private database; // Main Data Storage\r\n\r\n    address private AssetClassTokenAddress;\r\n    AC_TKN_Interface private AssetClassTokenContract; //erc721_token prototype initialization\r\n\r\n    address internal AssetClassTokenManagerAddress;\r\n    AC_MGR_Interface internal AssetClassTokenManagerContract; // Set up external contract interface\r\n\r\n    //----------------------------------------------Modifiers----------------------------------------------//\r\n\r\n    /*\r\n     * @dev Verify user credentials\r\n     *\r\n     * Originating Address:\r\n     *      Exists in registeredUsers as a usertype 1 or 9\r\n     *      Is authorized for asset class\r\n     */\r\n    modifier isAuthorized() {\r\n        require(\r\n            (contractInfo[msg.sender].contractType == 1) ||\r\n                (contractInfo[msg.sender].contractType == 2) ||\r\n                (contractInfo[msg.sender].contractType == 3) ||\r\n                (contractInfo[msg.sender].contractType == 4),\r\n            \"PS:IA:Contract not authorized or improperly permissioned\"\r\n        );\r\n        _;\r\n    }\r\n\r\n    /*\r\n     * @dev Check record _idxHash exists and is not locked\r\n     */\r\n    modifier notEscrow(bytes32 _idxHash) {\r\n        require(\r\n            ((database[_idxHash].assetStatus != 6) &&\r\n                (database[_idxHash].assetStatus != 50) &&\r\n                (database[_idxHash].assetStatus != 56)),\r\n            \"PS:NE:rec mod prohib while locked in escrow\"\r\n        );\r\n        _;\r\n    }\r\n\r\n    /*\r\n     * @dev Check record exists in database\r\n     */\r\n    modifier exists(bytes32 _idxHash) {\r\n        require(\r\n            database[_idxHash].rightsHolder != 0,\r\n            \"PS:E:rec does not exist\"\r\n        );\r\n        _;\r\n    }\r\n\r\n    /*\r\n     * @dev Check to see if contract adress is registered to PRUF_escrowMGR\r\n     */\r\n    modifier isEscrowManager() {\r\n        require(\r\n            msg.sender == contractNameToAddress[\"PRUF_escrowMGR\"],\r\n            \"PS:IEM:Caller not escrowMgr\"\r\n        );\r\n        _;\r\n    }\r\n\r\n    function isLostOrStolen(uint16 _assetStatus) private pure returns (uint8) {\r\n        if (\r\n            (_assetStatus != 3) &&\r\n            (_assetStatus != 4) &&\r\n            (_assetStatus != 53) &&\r\n            (_assetStatus != 54)\r\n        ) {\r\n            return 0;\r\n        } else {\r\n            return 170;\r\n        }\r\n    }\r\n\r\n    function isEscrow(uint16 _assetStatus) private pure returns (uint8) {\r\n        if (\r\n            (_assetStatus != 6) &&\r\n            (_assetStatus != 50) &&\r\n            (_assetStatus != 60) &&\r\n            (_assetStatus != 56)\r\n        ) {\r\n            return 0;\r\n        } else {\r\n            return 170;\r\n        }\r\n    }\r\n\r\n    //-----------------------------------------------Events------------------------------------------------//\r\n\r\n    event REPORT(string _msg, bytes32 b32);\r\n\r\n    //--------------------------------Internal Admin functions / onlyowner or isAdmin---------------------------------//\r\n\r\n    /**\r\n     * @dev Triggers stopped state.\r\n     *\r\n     */\r\n    function pause() external onlyOwner {\r\n        _pause();\r\n    }\r\n\r\n    /**\r\n     * @dev Returns to normal state.\r\n     */\r\n    function unpause() external onlyOwner {\r\n        _unpause();\r\n    }\r\n\r\n    /*\r\n     * @dev Authorize / Deauthorize / Authorize ADRESSES permitted to make record modifications\r\n     */\r\n    function OO_addContract(\r\n        string calldata _name,\r\n        address _addr,\r\n        uint8 _contractAuthLevel\r\n    ) external onlyOwner {\r\n        require(_contractAuthLevel <= 4, \"PS:AC: Invalid user type\");\r\n        //^^^^^^^checks^^^^^^^^^\r\n\r\n        contractInfo[_addr].contractType = _contractAuthLevel;\r\n        contractInfo[_addr].name = _name;\r\n        contractNameToAddress[_name] = _addr;\r\n\r\n        AssetClassTokenContract = AC_TKN_Interface(\r\n            contractNameToAddress[\"AC_TKN\"]\r\n        );\r\n        AssetClassTokenManagerContract = AC_MGR_Interface(\r\n            contractNameToAddress[\"AC_MGR\"]\r\n        );\r\n        //^^^^^^^effects^^^^^^^^^\r\n\r\n        emit REPORT(\r\n            \"AccessContrl database access!\",\r\n            bytes32(uint256(_contractAuthLevel))\r\n        ); //report access to the internal user database\r\n        //^^^^^^^interactions^^^^^^^^^\r\n    }\r\n\r\n    //--------------------------------External \"write\" contract functions / authuser---------------------------------//\r\n\r\n    /*\r\n     * @dev Make a new record in the database  *read fullHash, write rightsHolder, recorders, assetClass,countDownStart --new_record\r\n     */\r\n    function newRecord(\r\n        bytes32 _idxHash,\r\n        bytes32 _rgtHash,\r\n        uint16 _assetClass,\r\n        uint256 _countDownStart\r\n    ) external nonReentrant whenNotPaused isAuthorized {\r\n        require(\r\n            database[_idxHash].assetStatus != 60,\r\n            \"PS:NR:Asset is recycled. Use T_PRUF_APP recycle instead\"\r\n        );\r\n        require(\r\n            database[_idxHash].rightsHolder == 0,\r\n            \"PS:NR:Rec already exists\"\r\n        );\r\n        require(_rgtHash != 0, \"PS:NR:RGT cannot be blank\");\r\n        require(_assetClass != 0, \"PA:NR: !Asset class zero \");\r\n        //^^^^^^^checks^^^^^^^^^\r\n\r\n        Record memory rec;\r\n\r\n        if (contractInfo[msg.sender].contractType == 1) {\r\n            rec.assetStatus = 0;\r\n        } else {\r\n            rec.assetStatus = 51;\r\n        }\r\n\r\n        rec.assetClass = _assetClass;\r\n        rec.countDownStart = _countDownStart;\r\n        rec.countDown = _countDownStart;\r\n        rec.rightsHolder = _rgtHash;\r\n\r\n        database[_idxHash] = rec;\r\n        //^^^^^^^effects^^^^^^^^^\r\n\r\n        emit REPORT(\"New rec created\", _idxHash);\r\n        //^^^^^^^interactions^^^^^^^^^\r\n    }\r\n\r\n    /*\r\n     * @dev Modify a record in the database  *read fullHash, write rightsHolder, update recorder, assetClass,countDown update recorder....\r\n     */\r\n    function modifyRecord(\r\n        bytes32 _idxHash,\r\n        bytes32 _rgtHash,\r\n        uint8 _newAssetStatus,\r\n        uint256 _countDown,\r\n        uint8 _forceCount,\r\n        uint16 _numberOfTransfers\r\n    )\r\n        external\r\n        nonReentrant\r\n        whenNotPaused\r\n        isAuthorized\r\n        exists(_idxHash)\r\n        notEscrow(_idxHash)\r\n    {\r\n        bytes32 idxHash = _idxHash; //stack saving\r\n        bytes32 rgtHash = _rgtHash;\r\n\r\n        require( //prohibit increasing the countdown value\r\n            _countDown <= database[idxHash].countDown,\r\n            \"PS:MR:new countDown +!\"\r\n        );\r\n        require(\r\n            _forceCount >= database[idxHash].forceModCount,\r\n            \"PS:MR:new forceModCount -!\"\r\n        );\r\n        require(\r\n            _numberOfTransfers >= database[idxHash].numberOfTransfers,\r\n            \"PS:MR:new transferCount -!\"\r\n        );\r\n        require(\r\n            _newAssetStatus < 200,\r\n            \"PS:MR:assetStatus > 199 cannot be set by user\"\r\n        );\r\n        require(\r\n            isLostOrStolen(_newAssetStatus) == 0,\r\n            \"PS:MR:Must use stolenOrLost to set lost or stolen status\"\r\n        );\r\n        //^^^^^^^checks^^^^^^^^^\r\n\r\n        Record memory rec = database[_idxHash];\r\n        rec.rightsHolder = rgtHash;\r\n        rec.countDown = _countDown;\r\n        rec.assetStatus = _newAssetStatus;\r\n        rec.forceModCount = _forceCount;\r\n        rec.numberOfTransfers = _numberOfTransfers;\r\n\r\n        database[idxHash] = rec;\r\n        //^^^^^^^effects^^^^^^^^^\r\n\r\n        emit REPORT(\"Rec Modified\", _idxHash);\r\n        //^^^^^^^interactions^^^^^^^^^\r\n    }\r\n\r\n    /*\r\n     * @dev Change asset class of an asset\r\n     */\r\n    function changeAC(bytes32 _idxHash, uint16 _newAssetClass)\r\n        external\r\n        nonReentrant\r\n        whenNotPaused\r\n        isAuthorized\r\n        exists(_idxHash)\r\n        notEscrow(_idxHash)\r\n    {\r\n        Record memory rec = database[_idxHash];\r\n\r\n        require(\r\n            AssetClassTokenManagerContract.isSameRootAC(\r\n                _newAssetClass,\r\n                rec.assetClass\r\n            ) == 170,\r\n            \"PS:CAC:Cannot change AC to new root\"\r\n        );\r\n        //^^^^^^^checks^^^^^^^^^\r\n\r\n        rec.assetClass = _newAssetClass;\r\n        database[_idxHash] = rec;\r\n        //^^^^^^^effects^^^^^^^^^\r\n\r\n        emit REPORT(\"Changed Asset Class\", _idxHash);\r\n        //^^^^^^^interactions^^^^^^^^^\r\n    }\r\n\r\n    /*\r\n     * @dev Set an asset tot stolen or lost. Allows narrow modification of status 6/12 assets, normally locked\r\n     */\r\n    function setStolenOrLost(bytes32 _idxHash, uint8 _newAssetStatus)\r\n        external\r\n        nonReentrant\r\n        isAuthorized\r\n        whenNotPaused\r\n        exists(_idxHash)\r\n    {\r\n        require(\r\n            isLostOrStolen(_newAssetStatus) == 170,\r\n            \"PS:SSL:Must set to L/S\"\r\n        );\r\n        require(\r\n            (database[_idxHash].assetStatus != 5) &&\r\n                (database[_idxHash].assetStatus != 50) &&\r\n                (database[_idxHash].assetStatus != 55),\r\n            \"PS:SSL:Txfr or escrow locked asset cannot be set to L/S.\"\r\n        );\r\n        //^^^^^^^checks^^^^^^^^^\r\n\r\n        Record memory rec = database[_idxHash];\r\n        rec.assetStatus = _newAssetStatus;\r\n        database[_idxHash] = rec;\r\n        //^^^^^^^effects^^^^^^^^^\r\n\r\n        if ((_newAssetStatus == 3) || (_newAssetStatus == 53)) {\r\n            emit REPORT(\"Status changed to STOLEN\", _idxHash);\r\n        } else {\r\n            emit REPORT(\"Status changed to LOST\", _idxHash);\r\n        }\r\n        //^^^^^^^interactions^^^^^^^^^\r\n    }\r\n\r\n    /*\r\n     * @dev Set an asset to escrow status (6/50/56). Sets timelock for unix timestamp of escrow end.\r\n     */\r\n    function setEscrow(\r\n        bytes32 _idxHash,\r\n        uint8 _newAssetStatus,\r\n        bytes32 _contractNameHash\r\n    )\r\n        external\r\n        nonReentrant\r\n        whenNotPaused\r\n        isEscrowManager\r\n        exists(_idxHash)\r\n        notEscrow(_idxHash)\r\n    {\r\n        require(isEscrow(_newAssetStatus) == 170, \"PS:SE: Status\");\r\n        require(\r\n            (isLostOrStolen(database[_idxHash].assetStatus) == 0) &&\r\n                (database[_idxHash].assetStatus != 5) &&\r\n                (database[_idxHash].assetStatus != 55),\r\n            \"PS:SE: Cannot be set to escrow\"\r\n        );\r\n        require(\r\n            isEscrow(database[_idxHash].assetStatus) == 0,\r\n            \"PS:SE: In escrow status\"\r\n        );\r\n        //^^^^^^^checks^^^^^^^^^\r\n\r\n        Record memory rec = database[_idxHash];\r\n\r\n        if (_newAssetStatus == 60) {\r\n            rec\r\n                .rightsHolder = 0xFFFFFFFFFFFFFFFFFFFFFFFFFFFFFFFFFFFFFFFFFFFFFFFFFFFFFFFFFFFFFFFF;\r\n        }\r\n        rec.assetStatus = _newAssetStatus;\r\n        database[_idxHash] = rec;\r\n        //^^^^^^^effects^^^^^^^^^\r\n        emit REPORT(\"Escrow set successfully\", _contractNameHash);\r\n        //^^^^^^^interactions^^^^^^^^^\r\n    }\r\n\r\n    /*\r\n     * @dev remove an asset from escrow status\r\n     */\r\n    function endEscrow(bytes32 _idxHash, bytes32 _contractNameHash)\r\n        external\r\n        nonReentrant\r\n        whenNotPaused\r\n        isEscrowManager\r\n        exists(_idxHash)\r\n    {\r\n        require(\r\n            isEscrow(database[_idxHash].assetStatus) == 170,\r\n            \"PS:EE:Not in escrow status\"\r\n        );\r\n        //^^^^^^^checks^^^^^^^^^\r\n        Record memory rec = database[_idxHash];\r\n\r\n        if (rec.assetStatus == 6) {\r\n            rec.assetStatus = 7;\r\n        }\r\n        if (rec.assetStatus == 56) {\r\n            rec.assetStatus = 57;\r\n        }\r\n        if (rec.assetStatus == 50) {\r\n            rec.assetStatus = 58;\r\n        }\r\n        if (rec.assetStatus == 60) {\r\n            rec.assetStatus = 58;\r\n        }\r\n\r\n        database[_idxHash] = rec;\r\n        //^^^^^^^effects^^^^^^^^^\r\n        emit REPORT(\"Escrow Ended by contract:\", _contractNameHash);\r\n        //^^^^^^^interactions^^^^^^^^^\r\n    }\r\n\r\n    /*\r\n     * @dev Modify record Ipfs1 data\r\n     */\r\n    function modifyIpfs1(bytes32 _idxHash, bytes32 _Ipfs1)\r\n        external\r\n        nonReentrant\r\n        whenNotPaused\r\n        isAuthorized\r\n        exists(_idxHash)\r\n        notEscrow(_idxHash)\r\n    {\r\n        Record memory rec = database[_idxHash];\r\n\r\n        require((rec.Ipfs1 != _Ipfs1), \"PS:MI1: New value same as old\");\r\n        //^^^^^^^checks^^^^^^^^^\r\n\r\n        rec.Ipfs1 = _Ipfs1;\r\n\r\n        database[_idxHash] = rec;\r\n        //^^^^^^^effects^^^^^^^^^\r\n        emit REPORT(\"IPFS1 modified\", _idxHash);\r\n        //^^^^^^^interactions^^^^^^^^^\r\n    }\r\n\r\n    function modifyIpfs2(\r\n        //bytes32 _userHash,\r\n        bytes32 _idxHash,\r\n        bytes32 _Ipfs2\r\n    )\r\n        external\r\n        nonReentrant\r\n        whenNotPaused\r\n        isAuthorized\r\n        exists(_idxHash)\r\n        notEscrow(_idxHash)\r\n    {\r\n        Record memory rec = database[_idxHash];\r\n\r\n        require((rec.Ipfs2 == 0), \"PS:MI2: Cannot overwrite IPFS2\");\r\n        //^^^^^^^checks^^^^^^^^^\r\n\r\n        rec.Ipfs2 = _Ipfs2;\r\n\r\n        database[_idxHash] = rec;\r\n        //^^^^^^^effects^^^^^^^^^\r\n\r\n        emit REPORT(\"IPFS2 modified\", _idxHash);\r\n        //^^^^^^^interactions^^^^^^^^^\r\n    }\r\n\r\n    //--------------------------------External READ ONLY contract functions / authuser---------------------------------//\r\n    /*\r\n     * @dev return a complete record from the database\r\n     */\r\n    function retrieveRecord(bytes32 _idxHash)\r\n        external\r\n        view\r\n        isAuthorized\r\n        returns (\r\n            //bytes32,\r\n            //bytes32,\r\n            bytes32,\r\n            uint8,\r\n            uint8,\r\n            uint16,\r\n            uint256,\r\n            uint256,\r\n            bytes32,\r\n            bytes32,\r\n            uint16\r\n        )\r\n    {\r\n        Record memory rec = database[_idxHash];\r\n\r\n        //  if (\r\n        //      (rec.assetStatus == 3) ||\r\n        //      (rec.assetStatus == 4) ||\r\n        //      (rec.assetStatus == 53) ||\r\n        //      (rec.assetStatus == 54)\r\n        //  ) {\r\n        //      emit REPORT_B32(\"Lost or stolen record queried\", _idxHash);\r\n        //  }\r\n\r\n        return (\r\n            rec.rightsHolder,\r\n            rec.assetStatus,\r\n            rec.forceModCount,\r\n            rec.assetClass,\r\n            rec.countDown,\r\n            rec.countDownStart,\r\n            rec.Ipfs1,\r\n            rec.Ipfs2,\r\n            rec.numberOfTransfers\r\n        );\r\n        //^^^^^^^interactions^^^^^^^^^\r\n    }\r\n\r\n    function retrieveShortRecord(bytes32 _idxHash)\r\n        external\r\n        view\r\n        returns (\r\n            uint8,\r\n            uint8,\r\n            uint16,\r\n            uint256,\r\n            uint256,\r\n            bytes32,\r\n            bytes32,\r\n            uint16\r\n        )\r\n    {\r\n        Record memory rec = database[_idxHash];\r\n\r\n        //  if (\r\n        //      (rec.assetStatus == 3) ||\r\n        //      (rec.assetStatus == 4) ||\r\n        //      (rec.assetStatus == 53) ||\r\n        //      (rec.assetStatus == 54)\r\n        //  ) {\r\n        //      emit REPORT_B32(\"Lost or stolen record queried\", _idxHash);\r\n        //  }\r\n\r\n        return (\r\n            rec.assetStatus,\r\n            rec.forceModCount,\r\n            rec.assetClass,\r\n            rec.countDown,\r\n            rec.countDownStart,\r\n            rec.Ipfs1,\r\n            rec.Ipfs2,\r\n            rec.numberOfTransfers\r\n        );\r\n        //^^^^^^^interactions^^^^^^^^^\r\n    }\r\n\r\n    /*\r\n     * @dev Compare record.rightsholder with supplied bytes32 rightsholder\r\n     */\r\n    function _verifyRightsHolder(bytes32 _idxHash, bytes32 _rgtHash)\r\n        external\r\n        view\r\n        returns (uint256)\r\n    {\r\n        if (_rgtHash == database[_idxHash].rightsHolder) {\r\n            return 170;\r\n        } else {\r\n            return 0;\r\n        }\r\n        //^^^^^^^checks/interactions^^^^^^^^^\r\n    }\r\n\r\n    /*\r\n     * @dev Compare record.rightsholder with supplied bytes32 rightsholder (writes in blockchain)\r\n     */\r\n    function blockchainVerifyRightsHolder(bytes32 _idxHash, bytes32 _rgtHash)\r\n        external\r\n        returns (uint8)\r\n    {\r\n        if (_rgtHash == database[_idxHash].rightsHolder) {\r\n            emit REPORT(\"Record match confirmed\", _idxHash);\r\n            return 170;\r\n        } else {\r\n            emit REPORT(\"Record does not match\", _idxHash);\r\n            return 0;\r\n        }\r\n        //^^^^^^^checks/interactions^^^^^^^^^\r\n    }\r\n\r\n    /*\r\n     * @dev //returns the address of a contract with name _name. This is for web3 implementations to find the right contract to interact with\r\n     * example :  Frontend = ****** so web 3 first asks storage where to find frontend, then calls for frontend functions.\r\n     */\r\n    function resolveContractAddress(string memory _name)\r\n        external\r\n        view\r\n        returns (address)\r\n    {\r\n        return contractNameToAddress[_name];\r\n        //^^^^^^^interactions^^^^^^^^^\r\n    }\r\n\r\n    /*\r\n     * @dev //returns the contract type of a contract with address _addr.\r\n     */\r\n    function ContractAuthType(address _addr) external view returns (uint8) {\r\n        return contractInfo[_addr].contractType;\r\n        //^^^^^^^interactions^^^^^^^^^\r\n    }\r\n\r\n    /*\r\n     * @dev //returns the contract type of a contract with address _addr.\r\n     */\r\n    function ContractInfoHash(address _addr)\r\n        external\r\n        view\r\n        returns (uint8, bytes32)\r\n    {\r\n        return (\r\n            contractInfo[_addr].contractType,\r\n            keccak256(abi.encodePacked(contractInfo[_addr].name))\r\n        );\r\n        //^^^^^^^interactions^^^^^^^^^\r\n    }\r\n\r\n    //-----------------------------------------------Private functions------------------------------------------------//\r\n}\r\n",
  "sourcePath": "C:\\Users\\drake\\onedrive\\documents\\dev\\pruf\\pruf_truffle\\contracts\\PRUF_STOR.sol",
  "compiler": {
    "name": "solc",
    "version": "0.6.9+commit.3e3065ac.Emscripten.clang"
  },
  "schemaVersion": "3.2.2",
  "updatedAt": "2020-07-28T16:53:37.298Z",
  "devdoc": {
    "methods": {
      "owner()": {
        "details": "Returns the address of the current owner."
      },
      "pause()": {
        "details": "Triggers stopped state."
      },
      "paused()": {
        "details": "Returns true if the contract is paused, and false otherwise."
      },
      "renounceOwnership()": {
        "details": "Leaves the contract without owner. It will not be possible to call `onlyOwner` functions anymore. Can only be called by the current owner. NOTE: Renouncing ownership will leave the contract without an owner, thereby removing any functionality that is only available to the owner."
      },
      "transferOwnership(address)": {
        "details": "Transfers ownership of the contract to a new account (`newOwner`). Can only be called by the current owner."
      },
      "unpause()": {
        "details": "Returns to normal state."
      }
    }
  },
  "userdoc": {
    "methods": {}
  }
}