{
  "contractName": "STOR",
  "abi": [
    {
      "inputs": [],
      "stateMutability": "nonpayable",
      "type": "constructor"
    },
    {
      "anonymous": false,
      "inputs": [
        {
          "indexed": false,
          "internalType": "address",
          "name": "account",
          "type": "address"
        }
      ],
      "name": "Paused",
      "type": "event"
    },
    {
      "anonymous": false,
      "inputs": [
        {
          "indexed": false,
          "internalType": "string",
          "name": "_msg",
          "type": "string"
        },
        {
          "indexed": false,
          "internalType": "bytes32",
          "name": "b32",
          "type": "bytes32"
        }
      ],
      "name": "REPORT",
      "type": "event"
    },
    {
      "anonymous": false,
      "inputs": [
        {
          "indexed": true,
          "internalType": "bytes32",
          "name": "role",
          "type": "bytes32"
        },
        {
          "indexed": true,
          "internalType": "bytes32",
          "name": "previousAdminRole",
          "type": "bytes32"
        },
        {
          "indexed": true,
          "internalType": "bytes32",
          "name": "newAdminRole",
          "type": "bytes32"
        }
      ],
      "name": "RoleAdminChanged",
      "type": "event"
    },
    {
      "anonymous": false,
      "inputs": [
        {
          "indexed": true,
          "internalType": "bytes32",
          "name": "role",
          "type": "bytes32"
        },
        {
          "indexed": true,
          "internalType": "address",
          "name": "account",
          "type": "address"
        },
        {
          "indexed": true,
          "internalType": "address",
          "name": "sender",
          "type": "address"
        }
      ],
      "name": "RoleGranted",
      "type": "event"
    },
    {
      "anonymous": false,
      "inputs": [
        {
          "indexed": true,
          "internalType": "bytes32",
          "name": "role",
          "type": "bytes32"
        },
        {
          "indexed": true,
          "internalType": "address",
          "name": "account",
          "type": "address"
        },
        {
          "indexed": true,
          "internalType": "address",
          "name": "sender",
          "type": "address"
        }
      ],
      "name": "RoleRevoked",
      "type": "event"
    },
    {
      "anonymous": false,
      "inputs": [
        {
          "indexed": false,
          "internalType": "address",
          "name": "account",
          "type": "address"
        }
      ],
      "name": "Unpaused",
      "type": "event"
    },
    {
      "inputs": [],
      "name": "B320xF_",
      "outputs": [
        {
          "internalType": "bytes32",
          "name": "",
          "type": "bytes32"
        }
      ],
      "stateMutability": "view",
      "type": "function"
    },
    {
      "inputs": [],
      "name": "CONTRACT_ADMIN_ROLE",
      "outputs": [
        {
          "internalType": "bytes32",
          "name": "",
          "type": "bytes32"
        }
      ],
      "stateMutability": "view",
      "type": "function"
    },
    {
      "inputs": [],
      "name": "DEFAULT_ADMIN_ROLE",
      "outputs": [
        {
          "internalType": "bytes32",
          "name": "",
          "type": "bytes32"
        }
      ],
      "stateMutability": "view",
      "type": "function"
    },
    {
      "inputs": [],
      "name": "PAUSER_ROLE",
      "outputs": [
        {
          "internalType": "bytes32",
          "name": "",
          "type": "bytes32"
        }
      ],
      "stateMutability": "view",
      "type": "function"
    },
    {
      "inputs": [
        {
          "internalType": "bytes32",
          "name": "role",
          "type": "bytes32"
        }
      ],
      "name": "getRoleAdmin",
      "outputs": [
        {
          "internalType": "bytes32",
          "name": "",
          "type": "bytes32"
        }
      ],
      "stateMutability": "view",
      "type": "function"
    },
    {
      "inputs": [
        {
          "internalType": "bytes32",
          "name": "role",
          "type": "bytes32"
        },
        {
          "internalType": "uint256",
          "name": "index",
          "type": "uint256"
        }
      ],
      "name": "getRoleMember",
      "outputs": [
        {
          "internalType": "address",
          "name": "",
          "type": "address"
        }
      ],
      "stateMutability": "view",
      "type": "function"
    },
    {
      "inputs": [
        {
          "internalType": "bytes32",
          "name": "role",
          "type": "bytes32"
        }
      ],
      "name": "getRoleMemberCount",
      "outputs": [
        {
          "internalType": "uint256",
          "name": "",
          "type": "uint256"
        }
      ],
      "stateMutability": "view",
      "type": "function"
    },
    {
      "inputs": [
        {
          "internalType": "bytes32",
          "name": "role",
          "type": "bytes32"
        },
        {
          "internalType": "address",
          "name": "account",
          "type": "address"
        }
      ],
      "name": "grantRole",
      "outputs": [],
      "stateMutability": "nonpayable",
      "type": "function"
    },
    {
      "inputs": [
        {
          "internalType": "bytes32",
          "name": "role",
          "type": "bytes32"
        },
        {
          "internalType": "address",
          "name": "account",
          "type": "address"
        }
      ],
      "name": "hasRole",
      "outputs": [
        {
          "internalType": "bool",
          "name": "",
          "type": "bool"
        }
      ],
      "stateMutability": "view",
      "type": "function"
    },
    {
      "inputs": [],
      "name": "paused",
      "outputs": [
        {
          "internalType": "bool",
          "name": "",
          "type": "bool"
        }
      ],
      "stateMutability": "view",
      "type": "function"
    },
    {
      "inputs": [
        {
          "internalType": "bytes32",
          "name": "role",
          "type": "bytes32"
        },
        {
          "internalType": "address",
          "name": "account",
          "type": "address"
        }
      ],
      "name": "renounceRole",
      "outputs": [],
      "stateMutability": "nonpayable",
      "type": "function"
    },
    {
      "inputs": [
        {
          "internalType": "bytes32",
          "name": "role",
          "type": "bytes32"
        },
        {
          "internalType": "address",
          "name": "account",
          "type": "address"
        }
      ],
      "name": "revokeRole",
      "outputs": [],
      "stateMutability": "nonpayable",
      "type": "function"
    },
    {
      "inputs": [],
      "name": "pause",
      "outputs": [],
      "stateMutability": "nonpayable",
      "type": "function"
    },
    {
      "inputs": [],
      "name": "unpause",
      "outputs": [],
      "stateMutability": "nonpayable",
      "type": "function"
    },
    {
      "inputs": [
        {
          "internalType": "string",
          "name": "_name",
          "type": "string"
        },
        {
          "internalType": "address",
          "name": "_addr",
          "type": "address"
        },
        {
          "internalType": "uint32",
          "name": "_assetClass",
          "type": "uint32"
        },
        {
          "internalType": "uint8",
          "name": "_contractAuthLevel",
          "type": "uint8"
        }
      ],
      "name": "OO_addContract",
      "outputs": [],
      "stateMutability": "nonpayable",
      "type": "function"
    },
    {
      "inputs": [
        {
          "internalType": "string",
          "name": "_name",
          "type": "string"
        },
        {
          "internalType": "uint32",
          "name": "_assetClass",
          "type": "uint32"
        },
        {
          "internalType": "uint8",
          "name": "_contractAuthLevel",
          "type": "uint8"
        }
      ],
      "name": "enableContractForAC",
      "outputs": [],
      "stateMutability": "nonpayable",
      "type": "function"
    },
    {
      "inputs": [
        {
          "internalType": "bytes32",
          "name": "_idxHash",
          "type": "bytes32"
        },
        {
          "internalType": "bytes32",
          "name": "_rgtHash",
          "type": "bytes32"
        },
        {
          "internalType": "uint32",
          "name": "_assetClass",
          "type": "uint32"
        },
        {
          "internalType": "uint32",
          "name": "_countDownStart",
          "type": "uint32"
        }
      ],
      "name": "newRecord",
      "outputs": [],
      "stateMutability": "nonpayable",
      "type": "function"
    },
    {
      "inputs": [
        {
          "internalType": "bytes32",
          "name": "_idxHash",
          "type": "bytes32"
        },
        {
          "internalType": "bytes32",
          "name": "_rgtHash",
          "type": "bytes32"
        },
        {
          "internalType": "uint8",
          "name": "_newAssetStatus",
          "type": "uint8"
        },
        {
          "internalType": "uint32",
          "name": "_countDown",
          "type": "uint32"
        },
        {
          "internalType": "uint256",
          "name": "_incrementForceModCount",
          "type": "uint256"
        },
        {
          "internalType": "uint256",
          "name": "_incrementNumberOfTransfers",
          "type": "uint256"
        }
      ],
      "name": "modifyRecord",
      "outputs": [],
      "stateMutability": "nonpayable",
      "type": "function"
    },
    {
      "inputs": [
        {
          "internalType": "bytes32",
          "name": "_idxHash",
          "type": "bytes32"
        },
        {
          "internalType": "uint32",
          "name": "_newAssetClass",
          "type": "uint32"
        }
      ],
      "name": "changeAC",
      "outputs": [],
      "stateMutability": "nonpayable",
      "type": "function"
    },
    {
      "inputs": [
        {
          "internalType": "bytes32",
          "name": "_idxHash",
          "type": "bytes32"
        },
        {
          "internalType": "uint8",
          "name": "_newAssetStatus",
          "type": "uint8"
        }
      ],
      "name": "setStolenOrLost",
      "outputs": [],
      "stateMutability": "nonpayable",
      "type": "function"
    },
    {
      "inputs": [
        {
          "internalType": "bytes32",
          "name": "_idxHash",
          "type": "bytes32"
        },
        {
          "internalType": "uint8",
          "name": "_newAssetStatus",
          "type": "uint8"
        }
      ],
      "name": "setEscrow",
      "outputs": [],
      "stateMutability": "nonpayable",
      "type": "function"
    },
    {
      "inputs": [
        {
          "internalType": "bytes32",
          "name": "_idxHash",
          "type": "bytes32"
        }
      ],
      "name": "endEscrow",
      "outputs": [],
      "stateMutability": "nonpayable",
      "type": "function"
    },
    {
      "inputs": [
        {
          "internalType": "bytes32",
          "name": "_idxHash",
          "type": "bytes32"
        },
        {
          "internalType": "uint120",
          "name": "_price",
          "type": "uint120"
        },
        {
          "internalType": "uint8",
          "name": "_currency",
          "type": "uint8"
        }
      ],
      "name": "setPrice",
      "outputs": [],
      "stateMutability": "nonpayable",
      "type": "function"
    },
    {
      "inputs": [
        {
          "internalType": "bytes32",
          "name": "_idxHash",
          "type": "bytes32"
        }
      ],
      "name": "clearPrice",
      "outputs": [],
      "stateMutability": "nonpayable",
      "type": "function"
    },
    {
      "inputs": [
        {
          "internalType": "bytes32",
          "name": "_idxHash",
          "type": "bytes32"
        },
        {
          "internalType": "bytes32",
          "name": "_Ipfs1",
          "type": "bytes32"
        }
      ],
      "name": "modifyIpfs1",
      "outputs": [],
      "stateMutability": "nonpayable",
      "type": "function"
    },
    {
      "inputs": [
        {
          "internalType": "bytes32",
          "name": "_idxHash",
          "type": "bytes32"
        },
        {
          "internalType": "bytes32",
          "name": "_Ipfs2",
          "type": "bytes32"
        }
      ],
      "name": "modifyIpfs2",
      "outputs": [],
      "stateMutability": "nonpayable",
      "type": "function"
    },
    {
      "inputs": [
        {
          "internalType": "bytes32",
          "name": "_idxHash",
          "type": "bytes32"
        }
      ],
      "name": "retrieveRecord",
      "outputs": [
        {
          "internalType": "bytes32",
          "name": "",
          "type": "bytes32"
        },
        {
          "internalType": "uint8",
          "name": "",
          "type": "uint8"
        },
        {
          "internalType": "uint32",
          "name": "",
          "type": "uint32"
        },
        {
          "internalType": "uint32",
          "name": "",
          "type": "uint32"
        },
        {
          "internalType": "uint32",
          "name": "",
          "type": "uint32"
        },
        {
          "internalType": "bytes32",
          "name": "",
          "type": "bytes32"
        },
        {
          "internalType": "bytes32",
          "name": "",
          "type": "bytes32"
        }
      ],
      "stateMutability": "view",
      "type": "function"
    },
    {
      "inputs": [
        {
          "internalType": "bytes32",
          "name": "_idxHash",
          "type": "bytes32"
        }
      ],
      "name": "retrieveShortRecord",
      "outputs": [
        {
          "internalType": "uint8",
          "name": "",
          "type": "uint8"
        },
        {
          "internalType": "uint8",
          "name": "",
          "type": "uint8"
        },
        {
          "internalType": "uint32",
          "name": "",
          "type": "uint32"
        },
        {
          "internalType": "uint32",
          "name": "",
          "type": "uint32"
        },
        {
          "internalType": "uint32",
          "name": "",
          "type": "uint32"
        },
        {
          "internalType": "bytes32",
          "name": "",
          "type": "bytes32"
        },
        {
          "internalType": "bytes32",
          "name": "",
          "type": "bytes32"
        },
        {
          "internalType": "uint16",
          "name": "",
          "type": "uint16"
        }
      ],
      "stateMutability": "view",
      "type": "function"
    },
    {
      "inputs": [
        {
          "internalType": "bytes32",
          "name": "_idxHash",
          "type": "bytes32"
        }
      ],
      "name": "getPriceData",
      "outputs": [
        {
          "internalType": "uint120",
          "name": "",
          "type": "uint120"
        },
        {
          "internalType": "uint8",
          "name": "",
          "type": "uint8"
        }
      ],
      "stateMutability": "view",
      "type": "function"
    },
    {
      "inputs": [
        {
          "internalType": "bytes32",
          "name": "_idxHash",
          "type": "bytes32"
        },
        {
          "internalType": "bytes32",
          "name": "_rgtHash",
          "type": "bytes32"
        }
      ],
      "name": "_verifyRightsHolder",
      "outputs": [
        {
          "internalType": "uint256",
          "name": "",
          "type": "uint256"
        }
      ],
      "stateMutability": "view",
      "type": "function"
    },
    {
      "inputs": [
        {
          "internalType": "bytes32",
          "name": "_idxHash",
          "type": "bytes32"
        },
        {
          "internalType": "bytes32",
          "name": "_rgtHash",
          "type": "bytes32"
        }
      ],
      "name": "blockchainVerifyRightsHolder",
      "outputs": [
        {
          "internalType": "uint256",
          "name": "",
          "type": "uint256"
        }
      ],
      "stateMutability": "nonpayable",
      "type": "function"
    },
    {
      "inputs": [
        {
          "internalType": "string",
          "name": "_name",
          "type": "string"
        }
      ],
      "name": "resolveContractAddress",
      "outputs": [
        {
          "internalType": "address",
          "name": "",
          "type": "address"
        }
      ],
      "stateMutability": "view",
      "type": "function"
    },
    {
      "inputs": [
        {
          "internalType": "address",
          "name": "_addr",
          "type": "address"
        },
        {
          "internalType": "uint32",
          "name": "_assetClass",
          "type": "uint32"
        }
      ],
      "name": "ContractInfoHash",
      "outputs": [
        {
          "internalType": "uint8",
          "name": "",
          "type": "uint8"
        },
        {
          "internalType": "bytes32",
          "name": "",
          "type": "bytes32"
        }
      ],
      "stateMutability": "view",
      "type": "function"
    }
  ],
  "bytecode": "0x60806040523480156200001157600080fd5b50600180556002805460ff19169055620000366000620000306200009a565b6200009e565b620000657f2ce8d04a9c35987429af538825cd2438cc5c5bb5dc427955f84daaa3ea105016620000306200009a565b620000947f65d7a28e3265b37a6474929f336521b332c1681b933f6cb9f3376673440d862a620000306200009a565b620001ae565b3390565b620000aa8282620000ae565b5050565b600082815260208181526040909120620000d39183906200351c62000127821b17901c565b15620000aa57620000e36200009a565b6001600160a01b0316816001600160a01b0316837f2f8788117e7eff1d82e926ec794901d17c78024a50270940304540a733656f0d60405160405180910390a45050565b60006200013e836001600160a01b03841662000147565b90505b92915050565b600062000155838362000196565b6200018d5750815460018181018455600084815260208082209093018490558454848252828601909352604090209190915562000141565b50600062000141565b60009081526001919091016020526040902054151590565b61496d80620001be6000396000f3fe608060405234801561001057600080fd5b50600436106101fb5760003560e01c806379514e5b1161011a578063ca15c873116100ad578063e248f2c41161007c578063e248f2c414610434578063e63ab1e91461045a578063e8e1152c14610462578063f22354a614610475578063f76b6ac514610488576101fb565b8063ca15c873146103da578063d3dbdbda146103ed578063d547741f14610400578063df9f693614610413576101fb565b806391d14854116100e957806391d1485414610399578063a217fddf146103ac578063a9193045146103b4578063c771a982146103c7576101fb565b806379514e5b1461034b5780638456cb591461035e5780638d9fc872146103665780639010d07c14610379576101fb565b806342cdc4a41161019257806362a02f861161016157806362a02f86146102eb578063635d54fe146102fe57806363d9fa75146103115780636707f60814610324576101fb565b806342cdc4a41461028f57806343fa6211146102a25780635afc3cb4146102c35780635c975abb146102d6576101fb565b80633530d114116101ce5780633530d1141461025957806336568abe1461026c5780633b21fd681461027f5780633f4ba83a14610287576101fb565b80630de1ad90146102005780631da0331214610215578063248a9ca3146102335780632f2ff15d14610246575b600080fd5b61021361020e366004613c3b565b61049b565b005b61021d61084c565b60405161022a9190613f08565b60405180910390f35b61021d610241366004613b35565b610870565b610213610254366004613b4d565b610888565b610213610267366004613b9d565b6108d0565b61021361027a366004613b4d565b610c90565b61021d610cd2565b610213610cd8565b61021361029d366004613b7c565b610d2a565b6102b56102b0366004613b35565b61110f565b60405161022a929190614777565b6102136102d1366004613ca9565b61113c565b6102de611523565b60405161022a9190613efd565b6102136102f9366004613c87565b61152c565b61021361030c366004613be2565b6119d1565b61021361031f366004613b35565b611e7d565b610337610332366004613b35565b612225565b60405161022a9897969594939291906147ce565b610213610359366004613d0d565b6122fe565b6102136124ad565b61021d610374366004613b7c565b6124fd565b61038c610387366004613b7c565b612572565b60405161022a9190613ee9565b6102de6103a7366004613b4d565b612591565b61021d6125a9565b6102136103c2366004613b7c565b6125ae565b61038c6103d5366004613ccd565b6129bc565b61021d6103e8366004613b35565b6129f1565b61021d6103fb366004613b7c565b612a08565b61021361040e366004613b4d565b612a31565b610426610421366004613b01565b612a6b565b60405161022a9291906147bb565b610447610442366004613b35565b612aff565b60405161022a9796959493929190613f11565b61021d612c80565b610213610470366004613b35565b612ca4565b610213610483366004613ca9565b613025565b610213610496366004613d86565b6133fd565b600260015414156104c75760405162461bcd60e51b81526004016104be90614661565b60405180910390fd5b60026001556104d4611523565b156104f15760405162461bcd60e51b81526004016104be906142bd565b6000838152600660205260409020548390600160281b900463ffffffff1661052b5760405162461bcd60e51b81526004016104be90614565565b60008481526006602090815260408083205433845260049092528083209051600160281b90920463ffffffff16929160039161056691613e17565b908152604080516020928190038301902063ffffffff85166000908152925290205460ff169050801580159061059f575060058160ff16105b806105ad57508060ff16600a145b6105c95760405162461bcd60e51b81526004016104be9061413e565b600086815260066020908152604091829020825161016081018452815460ff8082168084526101008084048316968501969096526201000083049091169583019590955261ffff6301000000820416606083015263ffffffff600160281b820481166080840152600160481b8204811660a0840152600160681b82041660c08301526001600160781b03600160881b9091041660e08201526001820154928101929092526002810154610120830152600301546101408201529061068c90613531565b60ff16156106ac5760405162461bcd60e51b81526004016104be9061438c565b858160e001906001600160781b031690816001600160781b03168152505084816040019060ff16908160ff1681525050806006600089815260200190815260200160002060008201518160000160006101000a81548160ff021916908360ff16021790555060208201518160000160016101000a81548160ff021916908360ff16021790555060408201518160000160026101000a81548160ff021916908360ff16021790555060608201518160000160036101000a81548161ffff021916908361ffff16021790555060808201518160000160056101000a81548163ffffffff021916908363ffffffff16021790555060a08201518160000160096101000a81548163ffffffff021916908363ffffffff16021790555060c082015181600001600d6101000a81548163ffffffff021916908363ffffffff16021790555060e08201518160000160116101000a8154816001600160781b0302191690836001600160781b031602179055506101008201518160010155610120820151816002015561014082015181600301559050505050505060018081905550505050565b7f2ce8d04a9c35987429af538825cd2438cc5c5bb5dc427955f84daaa3ea10501681565b6000818152602081905260409020600201545b919050565b6000828152602081905260409020600201546108a6906103a7613560565b6108c25760405162461bcd60e51b81526004016104be90613f8e565b6108cc8282613564565b5050565b600260015414156108f35760405162461bcd60e51b81526004016104be90614661565b6002600155610900611523565b1561091d5760405162461bcd60e51b81526004016104be906142bd565b33600090815260046020526040808220905184929160039161093f9190613e17565b908152604080516020928190038301902063ffffffff85166000908152925290205460ff1690508015801590610978575060058160ff16105b8061098657508060ff16600a145b6109a25760405162461bcd60e51b81526004016104be9061413e565b60008681526006602052604090205460ff16603c14156109d45760405162461bcd60e51b81526004016104be9061459c565b600086815260066020526040902054600160281b900463ffffffff1615610a0d5760405162461bcd60e51b81526004016104be906142e7565b84610a2a5760405162461bcd60e51b81526004016104be90614297565b63ffffffff8416610a4d5760405162461bcd60e51b81526004016104be9061463c565b610a5561399c565b600360046000610a63613560565b6001600160a01b03166001600160a01b03168152602001908152602001600020604051610a909190613e17565b9081526040805191829003602090810190922063ffffffff88166000908152925290205460ff1660011415610ac85760008152610acd565b603381525b84816080019063ffffffff16908163ffffffff1681525050838160c0019063ffffffff16908163ffffffff1681525050838160a0019063ffffffff16908163ffffffff16815250508581610140018181525050806006600089815260200190815260200160002060008201518160000160006101000a81548160ff021916908360ff16021790555060208201518160000160016101000a81548160ff021916908360ff16021790555060408201518160000160026101000a81548160ff021916908360ff16021790555060608201518160000160036101000a81548161ffff021916908361ffff16021790555060808201518160000160056101000a81548163ffffffff021916908363ffffffff16021790555060a08201518160000160096101000a81548163ffffffff021916908363ffffffff16021790555060c082015181600001600d6101000a81548163ffffffff021916908363ffffffff16021790555060e08201518160000160116101000a8154816001600160781b0302191690836001600160781b031602179055506101008201518160010155610120820151816002015561014082015181600301559050505050506001808190555050505050565b610c98613560565b6001600160a01b0316816001600160a01b031614610cc85760405162461bcd60e51b81526004016104be906146f9565b6108cc82826135cd565b60001981565b610d047f65d7a28e3265b37a6474929f336521b332c1681b933f6cb9f3376673440d862a6103a7613560565b610d205760405162461bcd60e51b81526004016104be90614355565b610d28613636565b565b60026001541415610d4d5760405162461bcd60e51b81526004016104be90614661565b6002600155610d5a611523565b15610d775760405162461bcd60e51b81526004016104be906142bd565b6000828152600660205260409020548290600160281b900463ffffffff16610db15760405162461bcd60e51b81526004016104be90614565565b60008381526006602090815260408083205433845260049092528083209051600160281b90920463ffffffff169291600391610dec91613e17565b908152604080516020928190038301902063ffffffff85166000908152925290205460ff1690508015801590610e25575060058160ff16105b80610e3357508060ff16600a145b610e4f5760405162461bcd60e51b81526004016104be9061413e565b6000858152600660205260409020548590610e6c9060ff166136a4565b60ff1615610e8c5760405162461bcd60e51b81526004016104be9061446c565b600086815260066020908152604091829020825161016081018452815460ff8082168084526101008084048316968501969096526201000083049091169583019590955261ffff6301000000820416606083015263ffffffff600160281b820481166080840152600160481b8204811660a0840152600160681b82041660c08301526001600160781b03600160881b9091041660e082015260018201549281019290925260028101546101208301526003015461014082015290610f4f90613531565b60ff1615610f6f5760405162461bcd60e51b81526004016104be90614610565b858161010001511415610f945760405162461bcd60e51b81526004016104be90614411565b8581610100018181525050806006600089815260200190815260200160002060008201518160000160006101000a81548160ff021916908360ff16021790555060208201518160000160016101000a81548160ff021916908360ff16021790555060408201518160000160026101000a81548160ff021916908360ff16021790555060608201518160000160036101000a81548161ffff021916908361ffff16021790555060808201518160000160056101000a81548163ffffffff021916908363ffffffff16021790555060a08201518160000160096101000a81548163ffffffff021916908363ffffffff16021790555060c082015181600001600d6101000a81548163ffffffff021916908363ffffffff16021790555060e08201518160000160116101000a8154816001600160781b0302191690836001600160781b031602179055506101008201518160010155610120820151816002015561014082015181600301559050505050505050600180819055505050565b600090815260066020526040902054600160881b81046001600160781b0316916201000090910460ff1690565b6002600154141561115f5760405162461bcd60e51b81526004016104be90614661565b600260015561116c611523565b156111895760405162461bcd60e51b81526004016104be906142bd565b600560405161119790613ec4565b908152604051908190036020019020546001600160a01b03166111b8613560565b6001600160a01b0316146111de5760405162461bcd60e51b81526004016104be9061431e565b6000828152600660205260409020548290600160281b900463ffffffff166112185760405162461bcd60e51b81526004016104be90614565565b60008381526006602052604090205483906112359060ff166136a4565b60ff16156112555760405162461bcd60e51b81526004016104be9061446c565b600084815260066020908152604091829020825161016081018452815460ff808216835261010080830482169584019590955262010000820416948201949094526301000000840461ffff166060820152600160281b840463ffffffff9081166080830152600160481b8504811660a0830152600160681b85041660c0820152600160881b9093046001600160781b031660e0840152600181015491830191909152600281015461012083015260030154610140820152611315846136a4565b60ff1660aa146113375760405162461bcd60e51b81526004016104be906145e1565b8051611342906136e8565b60ff16156113625760405162461bcd60e51b81526004016104be906141ef565b805161136d90613531565b60ff161561138d5760405162461bcd60e51b81526004016104be90614610565b8360ff16603c14156113a3576000196101408201525b83816000019060ff16908160ff1681525050806006600087815260200190815260200160002060008201518160000160006101000a81548160ff021916908360ff16021790555060208201518160000160016101000a81548160ff021916908360ff16021790555060408201518160000160026101000a81548160ff021916908360ff16021790555060608201518160000160036101000a81548161ffff021916908361ffff16021790555060808201518160000160056101000a81548163ffffffff021916908363ffffffff16021790555060a08201518160000160096101000a81548163ffffffff021916908363ffffffff16021790555060c082015181600001600d6101000a81548163ffffffff021916908363ffffffff16021790555060e08201518160000160116101000a8154816001600160781b0302191690836001600160781b03160217905550610100820151816001015561012082015181600201556101408201518160030155905050505050600180819055505050565b60025460ff1690565b6002600154141561154f5760405162461bcd60e51b81526004016104be90614661565b600260015561155c611523565b156115795760405162461bcd60e51b81526004016104be906142bd565b6000828152600660205260409020548290600160281b900463ffffffff166115b35760405162461bcd60e51b81526004016104be90614565565b60008381526006602052604090205483906115d09060ff166136a4565b60ff16156115f05760405162461bcd60e51b81526004016104be9061446c565b33600090815260046020526040808220905182916003916116119190613e17565b908152604080516020928190038301902063ffffffff85166000908152925290205460ff169050801580159061164a575060058160ff16105b8061165857508060ff16600a145b6116745760405162461bcd60e51b81526004016104be9061413e565b600086815260066020908152604091829020825161016081018452815460ff808216835261010080830482169584019590955262010000820416948201949094526301000000840461ffff166060820152600160281b840463ffffffff9081166080830152600160481b8504811660a0830152600160681b8504811660c0830152600160881b9094046001600160781b031660e082015260018201549281019290925260028101546101208301526003015461014082015290861661174b5760405162461bcd60e51b81526004016104be90614748565b600a546080820151604051639852fdeb60e01b81526001600160a01b0390921691639852fdeb91611781918a91906004016147a4565b60206040518083038186803b15801561179957600080fd5b505afa1580156117ad573d6000803e3d6000fd5b505050506040513d601f19601f820116820180604052508101906117d19190613deb565b60ff1660aa146117f35760405162461bcd60e51b81526004016104be90614107565b80516117fe906136e8565b60ff161561181e5760405162461bcd60e51b81526004016104be90614173565b805161182990613531565b60ff16156118495760405162461bcd60e51b81526004016104be90614441565b85816080019063ffffffff16908163ffffffff1681525050806006600089815260200190815260200160002060008201518160000160006101000a81548160ff021916908360ff16021790555060208201518160000160016101000a81548160ff021916908360ff16021790555060408201518160000160026101000a81548160ff021916908360ff16021790555060608201518160000160036101000a81548161ffff021916908361ffff16021790555060808201518160000160056101000a81548163ffffffff021916908363ffffffff16021790555060a08201518160000160096101000a81548163ffffffff021916908363ffffffff16021790555060c082015181600001600d6101000a81548163ffffffff021916908363ffffffff16021790555060e08201518160000160116101000a8154816001600160781b0302191690836001600160781b031602179055506101008201518160010155610120820151816002015561014082015181600301559050505050505050600180819055505050565b600260015414156119f45760405162461bcd60e51b81526004016104be90614661565b6002600155611a01611523565b15611a1e5760405162461bcd60e51b81526004016104be906142bd565b6000868152600660205260409020548690600160281b900463ffffffff16611a585760405162461bcd60e51b81526004016104be90614565565b60008781526006602090815260408083205433845260049092528083209051600160281b90920463ffffffff169291600391611a9391613e17565b908152604080516020928190038301902063ffffffff85166000908152925290205460ff1690508015801590611acc575060058160ff16105b80611ada57508060ff16600a145b611af65760405162461bcd60e51b81526004016104be9061413e565b6000898152600660205260409020548990611b139060ff166136a4565b60ff1615611b335760405162461bcd60e51b81526004016104be9061446c565b60008a815260066020908152604091829020825161016081018452815460ff808216835261010080830482169584019590955262010000820416948201949094526301000000840461ffff166060820152600160281b840463ffffffff9081166080830152600160481b8504811660a08301819052600160681b8604821660c0840152600160881b9095046001600160781b031660e08301526001830154938201939093526002820154610120820152600390910154610140820152918c918a161115611c125760405162461bcd60e51b81526004016104be906143e6565b611c1b8a6136e8565b60ff1615611c3b5760405162461bcd60e51b81526004016104be9061400b565b611c448a6136a4565b60ff1615611c645760405162461bcd60e51b81526004016104be906140dc565b8a611c815760405162461bcd60e51b81526004016104be906144a3565b61014082018b905263ffffffff891660a083015260ff8a16825260aa88148015611cb2575060ff826020015160ff16105b15611cd0576020820151611cc7906001614863565b60ff1660208301525b8660aa148015611ce9575061ffff826060015161ffff16105b15611d08576060820151611cfe906001614825565b61ffff1660608301525b816006600083815260200190815260200160002060008201518160000160006101000a81548160ff021916908360ff16021790555060208201518160000160016101000a81548160ff021916908360ff16021790555060408201518160000160026101000a81548160ff021916908360ff16021790555060608201518160000160036101000a81548161ffff021916908361ffff16021790555060808201518160000160056101000a81548163ffffffff021916908363ffffffff16021790555060a08201518160000160096101000a81548163ffffffff021916908363ffffffff16021790555060c082015181600001600d6101000a81548163ffffffff021916908363ffffffff16021790555060e08201518160000160116101000a8154816001600160781b0302191690836001600160781b0316021790555061010082015181600101556101208201518160020155610140820151816003015590505050505050505060018081905550505050505050565b60026001541415611ea05760405162461bcd60e51b81526004016104be90614661565b6002600155611ead611523565b15611eca5760405162461bcd60e51b81526004016104be906142bd565b6000818152600660205260409020548190600160281b900463ffffffff16611f045760405162461bcd60e51b81526004016104be90614565565b60008281526006602090815260408083205433845260049092528083209051600160281b90920463ffffffff169291600391611f3f91613e17565b908152604080516020928190038301902063ffffffff85166000908152925290205460ff1690508015801590611f78575060058160ff16105b80611f8657508060ff16600a145b611fa25760405162461bcd60e51b81526004016104be9061413e565b600084815260066020908152604091829020825161016081018452815460ff8082168084526101008084048316968501969096526201000083049091169583019590955261ffff6301000000820416606083015263ffffffff600160281b820481166080840152600160481b8204811660a0840152600160681b82041660c08301526001600160781b03600160881b9091041660e08201526001820154928101929092526002810154610120830152600301546101408201529061206590613531565b60ff16156120855760405162461bcd60e51b81526004016104be90614036565b60008160e001906001600160781b031690816001600160781b0316815250506000816040019060ff16908160ff1681525050806006600087815260200190815260200160002060008201518160000160006101000a81548160ff021916908360ff16021790555060208201518160000160016101000a81548160ff021916908360ff16021790555060408201518160000160026101000a81548160ff021916908360ff16021790555060608201518160000160036101000a81548161ffff021916908361ffff16021790555060808201518160000160056101000a81548163ffffffff021916908363ffffffff16021790555060a08201518160000160096101000a81548163ffffffff021916908363ffffffff16021790555060c082015181600001600d6101000a81548163ffffffff021916908363ffffffff16021790555060e08201518160000160116101000a8154816001600160781b0302191690836001600160781b03160217905550610100820151816001015561012082015181600201556101408201518160030155905050505050506001808190555050565b600090815260066020908152604091829020825161016081018452815460ff8082168084526101008084048316968501879052620100008404909216968401969096526301000000820461ffff1660608401819052600160281b830463ffffffff90811660808601819052600160481b8504821660a08701819052600160681b860490921660c08701819052600160881b9095046001600160781b031660e08701526001870154938601849052600287015461012087018190526003909701546101409096019590955296979596939593949293919291565b61232a7f2ce8d04a9c35987429af538825cd2438cc5c5bb5dc427955f84daaa3ea1050166103a7613560565b6123465760405162461bcd60e51b81526004016104be90614096565b63ffffffff82161561236a5760405162461bcd60e51b81526004016104be9061453d565b806003868660405161237d929190613e07565b908152604080516020928190038301812063ffffffff8716600090815293529120805460ff191660ff939093169290921790915583906005906123c39088908890613e07565b908152604080516020928190038301902080546001600160a01b0319166001600160a01b0394851617905591851660009081526004909152206124079086866139f8565b50600560405161241690613eb2565b90815260405190819003602001812054600880546001600160a01b0319166001600160a01b0390921691909117905560059061245190613ed7565b90815260405190819003602001812054600a80546001600160a01b0319166001600160a01b039092169190911790556000805160206149188339815191529061249e9060ff84169061419c565b60405180910390a15050505050565b6124d97f65d7a28e3265b37a6474929f336521b332c1681b933f6cb9f3376673440d862a6103a7613560565b6124f55760405162461bcd60e51b81526004016104be90614355565b610d2861372c565b600082815260066020526040812060030154821415612543576000805160206149188339815191528360405161253391906146c8565b60405180910390a15060aa61256c565b600080516020614918833981519152836040516125609190614698565b60405180910390a15060005b92915050565b600082815260208190526040812061258a9083613787565b9392505050565b600082815260208190526040812061258a9083613793565b600081565b600260015414156125d15760405162461bcd60e51b81526004016104be90614661565b60026001556125de611523565b156125fb5760405162461bcd60e51b81526004016104be906142bd565b6000828152600660205260409020548290600160281b900463ffffffff166126355760405162461bcd60e51b81526004016104be90614565565b60008381526006602090815260408083205433845260049092528083209051600160281b90920463ffffffff16929160039161267091613e17565b908152604080516020928190038301902063ffffffff85166000908152925290205460ff16905080158015906126a9575060058160ff16105b806126b757508060ff16600a145b6126d35760405162461bcd60e51b81526004016104be9061413e565b60008581526006602052604090205485906126f09060ff166136a4565b60ff16156127105760405162461bcd60e51b81526004016104be9061446c565b600086815260066020908152604091829020825161016081018452815460ff8082168084526101008084048316968501969096526201000083049091169583019590955261ffff6301000000820416606083015263ffffffff600160281b820481166080840152600160481b8204811660a0840152600160681b82041660c08301526001600160781b03600160881b9091041660e0820152600182015492810192909252600281015461012083015260030154610140820152906127d3906136e8565b60ff16156127f35760405162461bcd60e51b81526004016104be906141ef565b80516127fe90613531565b60ff161561281e5760405162461bcd60e51b81526004016104be906141c2565b610120810151156128415760405162461bcd60e51b81526004016104be90614268565b8581610120018181525050806006600089815260200190815260200160002060008201518160000160006101000a81548160ff021916908360ff16021790555060208201518160000160016101000a81548160ff021916908360ff16021790555060408201518160000160026101000a81548160ff021916908360ff16021790555060608201518160000160036101000a81548161ffff021916908361ffff16021790555060808201518160000160056101000a81548163ffffffff021916908363ffffffff16021790555060a08201518160000160096101000a81548163ffffffff021916908363ffffffff16021790555060c082015181600001600d6101000a81548163ffffffff021916908363ffffffff16021790555060e08201518160000160116101000a8154816001600160781b0302191690836001600160781b031602179055506101008201518160010155610120820151816002015561014082015181600301559050505050505050600180819055505050565b6000600583836040516129d0929190613e07565b908152604051908190036020019020546001600160a01b0316905092915050565b600081815260208190526040812061256c906137a8565b600082815260066020526040812060030154821415612a29575060aa61256c565b50600061256c565b600082815260208190526040902060020154612a4f906103a7613560565b610cc85760405162461bcd60e51b81526004016104be90614218565b6001600160a01b03821660009081526004602052604080822090518291600391612a959190613e17565b908152604080516020928190038301812063ffffffff87166000908152908452828120546001600160a01b03891682526004855292902060ff90921692612add929101613e17565b60405160208183030381529060405280519060200120915091505b9250929050565b6000806000806000806000806000600360046000336001600160a01b03166001600160a01b03168152602001908152602001600020604051612b419190613e17565b908152604080516020928190038301902063ffffffff85166000908152925290205460ff1690508015801590612b7a575060058160ff16105b80612b8857508060ff16600a145b612ba45760405162461bcd60e51b81526004016104be9061413e565b5050506000968752505060066020908152604095869020865161016081018852815460ff808216808452610100808404831696850196909652620100008304909116998301999099526301000000810461ffff166060830152600160281b810463ffffffff90811660808401819052600160481b8304821660a08501819052600160681b840490921660c08501819052600160881b9093046001600160781b031660e0850152600185015495840186905260028501546101208501819052600390950154610140909401849052929a9298509650945091925090565b7f65d7a28e3265b37a6474929f336521b332c1681b933f6cb9f3376673440d862a81565b60026001541415612cc75760405162461bcd60e51b81526004016104be90614661565b6002600155612cd4611523565b15612cf15760405162461bcd60e51b81526004016104be906142bd565b6005604051612cff90613ec4565b908152604051908190036020019020546001600160a01b0316612d20613560565b6001600160a01b031614612d465760405162461bcd60e51b81526004016104be9061431e565b6000818152600660205260409020548190600160281b900463ffffffff16612d805760405162461bcd60e51b81526004016104be90614565565b600082815260066020908152604091829020825161016081018452815460ff8082168084526101008084048316968501969096526201000083049091169583019590955261ffff6301000000820416606083015263ffffffff600160281b820481166080840152600160481b8204811660a0840152600160681b82041660c08301526001600160781b03600160881b9091041660e082015260018201549281019290925260028101546101208301526003015461014082015290612e43906136a4565b60ff1660aa14612e655760405162461bcd60e51b81526004016104be906144ce565b806000015160ff1660061415612e7a57600781525b806000015160ff1660381415612e8f57603981525b806000015160ff1660321415612ea457603a81525b806000015160ff16603c1415612eb957603a81525b806006600085815260200190815260200160002060008201518160000160006101000a81548160ff021916908360ff16021790555060208201518160000160016101000a81548160ff021916908360ff16021790555060408201518160000160026101000a81548160ff021916908360ff16021790555060608201518160000160036101000a81548161ffff021916908361ffff16021790555060808201518160000160056101000a81548163ffffffff021916908363ffffffff16021790555060a08201518160000160096101000a81548163ffffffff021916908363ffffffff16021790555060c082015181600001600d6101000a81548163ffffffff021916908363ffffffff16021790555060e08201518160000160116101000a8154816001600160781b0302191690836001600160781b0316021790555061010082015181600101556101208201518160020155610140820151816003015590505050506001808190555050565b600260015414156130485760405162461bcd60e51b81526004016104be90614661565b6002600155613055611523565b156130725760405162461bcd60e51b81526004016104be906142bd565b6000828152600660205260409020548290600160281b900463ffffffff166130ac5760405162461bcd60e51b81526004016104be90614565565b60008381526006602090815260408083205433845260049092528083209051600160281b90920463ffffffff1692916003916130e791613e17565b908152604080516020928190038301902063ffffffff85166000908152925290205460ff1690508015801590613120575060058160ff16105b8061312e57508060ff16600a145b61314a5760405162461bcd60e51b81526004016104be9061413e565b600085815260066020908152604091829020825161016081018452815460ff808216835261010080830482169584019590955262010000820416948201949094526301000000840461ffff166060820152600160281b840463ffffffff9081166080830152600160481b8504811660a0830152600160681b85041660c0820152600160881b9093046001600160781b031660e084015260018101549183019190915260028101546101208301526003015461014082015261320a856136e8565b60ff1660aa1461322c5760405162461bcd60e51b81526004016104be906143b7565b806000015160ff1660051415801561324c5750806000015160ff16603214155b80156132605750806000015160ff16603714155b61327c5760405162461bcd60e51b81526004016104be906144f7565b84816000019060ff16908160ff1681525050806006600088815260200190815260200160002060008201518160000160006101000a81548160ff021916908360ff16021790555060208201518160000160016101000a81548160ff021916908360ff16021790555060408201518160000160026101000a81548160ff021916908360ff16021790555060608201518160000160036101000a81548161ffff021916908361ffff16021790555060808201518160000160056101000a81548163ffffffff021916908363ffffffff16021790555060a08201518160000160096101000a81548163ffffffff021916908363ffffffff16021790555060c082015181600001600d6101000a81548163ffffffff021916908363ffffffff16021790555060e08201518160000160116101000a8154816001600160781b0302191690836001600160781b0316021790555061010082015181600101556101208201518160020155610140820151816003015590505050505050600180819055505050565b613405613560565b6008546040516331a9108f60e11b81526001600160a01b039283169290911690636352211e90613439908690600401614793565b60206040518083038186803b15801561345157600080fd5b505afa158015613465573d6000803e3d6000fd5b505050506040513d601f19601f820116820180604052508101906134899190613ae5565b6001600160a01b0316146134af5760405162461bcd60e51b81526004016104be90614061565b80600385856040516134c2929190613e07565b908152604080516020928190038301812063ffffffff8716600090815293529120805460ff191660ff9384161790556000805160206149188339815191529161350e919084169061419c565b60405180910390a150505050565b600061258a836001600160a01b0384166137b3565b60008160ff1660051415801561354b57508160ff16603714155b1561355857506000610883565b5060aa610883565b3390565b600082815260208190526040902061357c908261351c565b156108cc57613589613560565b6001600160a01b0316816001600160a01b0316837f2f8788117e7eff1d82e926ec794901d17c78024a50270940304540a733656f0d60405160405180910390a45050565b60008281526020819052604090206135e590826137f5565b156108cc576135f2613560565b6001600160a01b0316816001600160a01b0316837ff6391f5c32d9c69d2a47ea670b442974b53935d1edc7fd64eb21e047a839171b60405160405180910390a45050565b61363e611523565b61365a5760405162461bcd60e51b81526004016104be90613fdd565b6002805460ff191690557f5db9ee0a495bf2e6ff9c91a7834c1ba4fdd244a5e8aa4e537bd38aeae4b073aa61368d613560565b60405161369a9190613ee9565b60405180910390a1565b60008160ff166006141580156136be57508160ff16603214155b80156136ce57508160ff16603c14155b801561354b57508160ff1660381461355857506000610883565b60008160ff1660031415801561370257508160ff16600414155b801561371257508160ff16603514155b801561354b57508160ff1660361461355857506000610883565b613734611523565b156137515760405162461bcd60e51b81526004016104be906142bd565b6002805460ff191660011790557f62e78cea01bee320cd4e420270b5ea74000d11b0c9f74754ebdbfc544b05a25861368d613560565b600061258a838361380a565b600061258a836001600160a01b038416613863565b600061256c8261387b565b60006137bf8383613863565b612a295750815460018181018455600084815260208082209093018490558454848252828601909352604090209190915561256c565b600061258a836001600160a01b03841661387f565b8154600090821061382d5760405162461bcd60e51b81526004016104be90613f4c565b82600001828154811061385057634e487b7160e01b600052603260045260246000fd5b9060005260206000200154905092915050565b60009081526001919091016020526040902054151590565b5490565b600081815260018301602052604081205480156139925760006138a3600183614888565b85549091506000906138b790600190614888565b905060008660000182815481106138de57634e487b7160e01b600052603260045260246000fd5b906000526020600020015490508087600001848154811061390f57634e487b7160e01b600052603260045260246000fd5b60009182526020909120015561392683600161484b565b6000828152600189016020526040902055865487908061395657634e487b7160e01b600052603160045260246000fd5b6001900381819060005260206000200160009055905586600101600087815260200190815260200160002060009055600194505050505061256c565b600091505061256c565b6040805161016081018252600080825260208201819052918101829052606081018290526080810182905260a0810182905260c0810182905260e081018290526101008101829052610120810182905261014081019190915290565b828054613a049061489f565b90600052602060002090601f016020900481019282613a265760008555613a6c565b82601f10613a3f5782800160ff19823516178555613a6c565b82800160010185558215613a6c579182015b82811115613a6c578235825591602001919060010190613a51565b50613a78929150613a7c565b5090565b5b80821115613a785760008155600101613a7d565b60008083601f840112613aa2578182fd5b50813567ffffffffffffffff811115613ab9578182fd5b602083019150836020828501011115612af857600080fd5b803563ffffffff8116811461088357600080fd5b600060208284031215613af6578081fd5b815161258a816148f0565b60008060408385031215613b13578081fd5b8235613b1e816148f0565b9150613b2c60208401613ad1565b90509250929050565b600060208284031215613b46578081fd5b5035919050565b60008060408385031215613b5f578182fd5b823591506020830135613b71816148f0565b809150509250929050565b60008060408385031215613b8e578182fd5b50508035926020909101359150565b60008060008060808587031215613bb2578182fd5b8435935060208501359250613bc960408601613ad1565b9150613bd760608601613ad1565b905092959194509250565b60008060008060008060c08789031215613bfa578182fd5b86359550602087013594506040870135613c1381614908565b9350613c2160608801613ad1565b92506080870135915060a087013590509295509295509295565b600080600060608486031215613c4f578283fd5b8335925060208401356001600160781b0381168114613c6c578283fd5b91506040840135613c7c81614908565b809150509250925092565b60008060408385031215613c99578182fd5b82359150613b2c60208401613ad1565b60008060408385031215613cbb578182fd5b823591506020830135613b7181614908565b60008060208385031215613cdf578182fd5b823567ffffffffffffffff811115613cf5578283fd5b613d0185828601613a91565b90969095509350505050565b600080600080600060808688031215613d24578283fd5b853567ffffffffffffffff811115613d3a578384fd5b613d4688828901613a91565b9096509450506020860135613d5a816148f0565b9250613d6860408701613ad1565b91506060860135613d7881614908565b809150509295509295909350565b60008060008060608587031215613d9b578182fd5b843567ffffffffffffffff811115613db1578283fd5b613dbd87828801613a91565b9095509350613dd0905060208601613ad1565b91506040850135613de081614908565b939692955090935050565b600060208284031215613dfc578081fd5b815161258a81614908565b6000828483379101908152919050565b8154600090819060028104600180831680613e3357607f831692505b6020808410821415613e5357634e487b7160e01b87526022600452602487fd5b818015613e675760018114613e7857613ea4565b60ff19861689528489019650613ea4565b613e818a614819565b885b86811015613e9c5781548b820152908501908301613e83565b505084890196505b509498975050505050505050565b6520a1afaa25a760d11b815260060190565b6622a1a92fa6a3a960c91b815260070190565b6520a1afa6a3a960d11b815260060190565b6001600160a01b0391909116815260200190565b901515815260200190565b90815260200190565b96875260ff95909516602087015263ffffffff93841660408701529183166060860152909116608084015260a083015260c082015260e00190565b60208082526022908201527f456e756d657261626c655365743a20696e646578206f7574206f6620626f756e604082015261647360f01b606082015260800190565b6020808252602f908201527f416363657373436f6e74726f6c3a2073656e646572206d75737420626520616e60408201526e0818591b5a5b881d1bc819dc985b9d608a1b606082015260800190565b60208082526014908201527314185d5cd8589b194e881b9bdd081c185d5cd95960621b604082015260600190565b602080825260119082015270533a4d523a4d75737420757365204c2f5360781b604082015260600190565b60208082526011908201527014ce90d40e88151e199c9908185cdcd95d607a1b604082015260600190565b6020808252818101527f533a45434641433a43616c6c6572206e6f74204143746f6b656e486f6c646572604082015260600190565b60208082526026908201527f50414d3a4d4f443a206d757374206861766520434f4e54524143545f41444d496040820152654e5f524f4c4560d01b606082015260800190565b602080825260119082015270299d26a91d26bab9ba103ab9b29022a1a960791b604082015260600190565b6020808252601f908201527f533a4341433a43616e6e6f74206d6f6420414320746f206e657720726f6f7400604082015260600190565b6020808252818101527f533a4d4f442d49413a436f6e7472616374206e6f7420617574686f72697a6564604082015260600190565b6020808252600f908201526e14ce90d050ce930bd4c8185cdcd95d608a1b604082015260600190565b6040808252600490820152634143444160e01b6060820152602081019190915260800190565b60208082526013908201527214ce93524c8e88151e199c990b88185cdcd95d606a1b604082015260600190565b6020808252600f908201526e14ce93524c8e930bd4c8185cdcd95d608a1b604082015260600190565b60208082526030908201527f416363657373436f6e74726f6c3a2073656e646572206d75737420626520616e60408201526f2061646d696e20746f207265766f6b6560801b606082015260800190565b602080825260159082015274299d26a4991d10109037bb32b93bb934ba3290249960591b604082015260600190565b6020808252600c908201526b0533a4e523a524754203d20360a41b604082015260600190565b60208082526010908201526f14185d5cd8589b194e881c185d5cd95960821b604082015260600190565b60208082526017908201527f533a4e523a52656320616c726561647920657869737473000000000000000000604082015260600190565b6020808252601c908201527f533a4d4f442d49454d3a43616c6c6572206e6f74204543525f4d475200000000604082015260600190565b6020808252601e908201527f50414d3a4d4f443a206d7573742068617665205041555345525f524f4c450000604082015260600190565b60208082526011908201527014ce94d40e88151e199c9908185cdcd95d607a1b604082015260600190565b602080825260159082015274533a53534c3a4d7573742073657420746f204c2f5360581b604082015260600190565b602080825260119082015270533a4d523a636f756e74446f776e202b2160781b604082015260600190565b60208082526016908201527514ce93524c4e8813995dc81d985b1d59480f481bdb1960521b604082015260600190565b60208082526011908201527014ce90d050ce951e199c9908185cdcd95d607a1b604082015260600190565b6020808252601a908201527f533a4d4f442d4e453a726563206c6f636b656420696e20656372000000000000604082015260600190565b6020808252601190820152700533a4d523a2072677448617368203d203607c1b604082015260600190565b6020808252600f908201526e14ce91514e88481958dc881cdd185d608a1b604082015260600190565b60208082526026908201527f533a53534c3a54786672206f72206563722d6c6f636b656420617373657420216040820152651e902617a99760d11b606082015260800190565b6020808252600e908201526d0533a41433a204143206e6f7420360941b604082015260600190565b6020808252601a908201527f533a4d4f442d453a72656320646f6573206e6f74206578697374000000000000604082015260600190565b60208082526025908201527f533a4e523a41737365742064697363617264656420757365204150505f4e43206040820152641c98de58db60da1b606082015260800190565b602080825260159082015274299d29a29d1039ba30ba1036bab9ba101e9032b1b960591b604082015260600190565b60208082526012908201527114ce93524c8e88151e199c9908185cdcd95d60721b604082015260600190565b6020808252600b908201526a0533a4e523a4143203d20360ac1b604082015260600190565b6020808252601f908201527f5265656e7472616e637947756172643a207265656e7472616e742063616c6c00604082015260600190565b6040808252600e908201526d088decae640dcdee840dac2e8c6d60931b6060820152602081019190915260800190565b6040808252600f908201526e13585d18da0818dbdb999a5c9b5959608a1b6060820152602081019190915260800190565b6020808252602f908201527f416363657373436f6e74726f6c3a2063616e206f6e6c792072656e6f756e636560408201526e103937b632b9903337b91039b2b63360891b606082015260800190565b6020808252601590820152740533a4341433a43616e6e6f74207365742041432d3605c1b604082015260600190565b6001600160781b0392909216825260ff16602082015260400190565b63ffffffff91909116815260200190565b63ffffffff92831681529116602082015260400190565b60ff929092168252602082015260400190565b60ff988916815296909716602087015263ffffffff948516604087015292841660608601529216608084015260a083019190915260c082015261ffff90911660e08201526101000190565b60009081526020902090565b600061ffff808316818516808303821115614842576148426148da565b01949350505050565b6000821982111561485e5761485e6148da565b500190565b600060ff821660ff84168060ff03821115614880576148806148da565b019392505050565b60008282101561489a5761489a6148da565b500390565b6002810460018216806148b357607f821691505b602082108114156148d457634e487b7160e01b600052602260045260246000fd5b50919050565b634e487b7160e01b600052601160045260246000fd5b6001600160a01b038116811461490557600080fd5b50565b60ff8116811461490557600080fdfe7ee222c270bf2c8f2543ede7193d45d48eac904e416dc38e4604373d183eefbba26469706673582212207818ffb7d28a258312c9bc0536505df4f319a17eac75b11e45b683959818471864736f6c63430008000033",
  "immutableReferences": {},
  "source": "/*--------------------------------------------------------PRuF0.7.1\n__/\\\\\\\\\\\\\\\\\\\\\\\\\\ _____/\\\\\\\\\\\\\\\\\\ _______/\\\\../\\\\ ___/\\\\\\\\\\\\\\\\\\\\\\\\\\\\\\\n _\\/\\\\\\/////////\\\\\\ _/\\\\\\///////\\\\\\ ____\\//..\\//____\\/\\\\\\///////////__\n  _\\/\\\\\\.......\\/\\\\\\.\\/\\\\\\.....\\/\\\\\\ ________________\\/\\\\\\ ____________\n   _\\/\\\\\\\\\\\\\\\\\\\\\\\\\\/__\\/\\\\\\\\\\\\\\\\\\\\\\/_____/\\\\\\____/\\\\\\.\\/\\\\\\\\\\\\\\\\\\\\\\ ____\n    _\\/\\\\\\/////////____\\/\\\\\\//////\\\\\\ ___\\/\\\\\\___\\/\\\\\\.\\/\\\\\\///////______\n     _\\/\\\\\\ ____________\\/\\\\\\ ___\\//\\\\\\ __\\/\\\\\\___\\/\\\\\\.\\/\\\\\\ ____________\n      _\\/\\\\\\ ____________\\/\\\\\\ ____\\//\\\\\\ _\\/\\\\\\___\\/\\\\\\.\\/\\\\\\ ____________\n       _\\/\\\\\\ ____________\\/\\\\\\ _____\\//\\\\\\.\\//\\\\\\\\\\\\\\\\\\ _\\/\\\\\\ ____________\n        _\\/// _____________\\/// _______\\/// __\\///////// __\\/// _____________\n         *-------------------------------------------------------------------*/\n\n/*-----------------------------------------------------------------\n *  TO DO\n *\n *---------------------------------------------------------------*/\n\n/*-----------------------------------------------------------------\n *  PRUF STOR  is the primary data repository for the PRUF system. No direct user writes are permitted in STOR, all data must come from explicitly approved contracts.\n *  PRUF STOR  stores records in a map of Records, foreward and reverse name resolution for approved contracts, as well as contract authorization data.\n *---------------------------------------------------------------*/\n\n/*-----------------------------------------------------------------\n * IMPORTANT NOTE : DO NOT REMOVE FROM CODE:\n *      Verification of rgtHash in curated, custodial classes are not secure beyond the honorable intentions\n * of authorized recorders. All blockchain info is readable, so a bad actor could trivially obtain a copy of the\n * correct rgtHash on chain. This \"stumbling block\" measure is in place primarily to keep honest people honest, and\n * to require an actual, malicious effort to bypass security rather than a little copy-paste. Actual decentralized\n * security is provided with tokenized assets, which do not rely on the coercive trust relationship that creates the\n * incentive for recorders not to engage in malicious practices.\n *-----------------------------------------------------------------*/\n\n// SPDX-License-Identifier: UNLICENSED\npragma solidity ^0.8.0;\n\nimport \"./PRUF_INTERFACES.sol\";\nimport \"./Imports/access/AccessControl.sol\";\nimport \"./Imports/utils/Pausable.sol\";\nimport \"./Imports/math/SafeMath.sol\";\nimport \"./Imports/utils/ReentrancyGuard.sol\";\n\ncontract STOR is AccessControl, ReentrancyGuard, Pausable {\n    bytes32 public constant PAUSER_ROLE = keccak256(\"PAUSER_ROLE\");\n    bytes32 public constant CONTRACT_ADMIN_ROLE =\n        keccak256(\"CONTRACT_ADMIN_ROLE\");\n\n    bytes32 public constant B320xF_ =\n        0xFFFFFFFFFFFFFFFFFFFFFFFFFFFFFFFFFFFFFFFFFFFFFFFFFFFFFFFFFFFFFFFF;\n\n    struct Record {\n        uint8 assetStatus; // Status - Transferrable, locked, in transfer, stolen, lost, etc.\n        uint8 forceModCount; // Number of times asset has been forceModded.\n        uint8 currency; //currency for price information (0=not for sale, 1=ETH, 2=PRUF, 3=DAI, 4=WBTC.... )\n        uint16 numberOfTransfers; //number of transfers and forcemods\n        uint32 assetClass; // Type of asset\n        uint32 countDown; // Variable that can only be dencreased from countDownStart\n        uint32 countDownStart; // Starting point for countdown variable (set once)\n        uint120 price; //price set for items offered for sale\n        bytes32 Ipfs1; // Publically viewable asset description\n        bytes32 Ipfs2; // Publically viewable immutable notes\n        bytes32 rightsHolder; // KEK256 Registered owner\n    }\n\n    mapping(string => mapping(uint32 => uint8)) internal contractInfo; // name=>AC=>authorization level\n    mapping(address => string) private contractAddressToName; // Authorized contract addresses, indexed by address, with auth level 0-255\n    mapping(string => address) private contractNameToAddress; // Authorized contract addresses, indexed by name\n\n    mapping(bytes32 => Record) private database; // Main Data Storage\n\n    address private AC_TKN_Address;\n    AC_TKN_Interface private AC_TKN; //erc721_token prototype initialization\n\n    address internal AC_MGR_Address;\n    AC_MGR_Interface internal AC_MGR; // Set up external contract interface for AC_MGR\n\n    constructor() {\n        _setupRole(DEFAULT_ADMIN_ROLE, _msgSender());\n        _setupRole(CONTRACT_ADMIN_ROLE, _msgSender());\n        _setupRole(PAUSER_ROLE, _msgSender());\n    }\n\n    //----------------------------------------------Modifiers----------------------------------------------//\n\n    /*\n     * @dev Verify user credentials\n     * Originating Address:\n     *      is admin\n     */\n    modifier isAdmin() {\n        require(\n            hasRole(CONTRACT_ADMIN_ROLE, _msgSender()),\n            \"PAM:MOD: must have CONTRACT_ADMIN_ROLE\"\n        );\n        _;\n    }\n\n    /*\n     * @dev Verify user credentials\n     * Originating Address:\n     *      is Pauser\n     */\n    modifier isPauser() {\n        require(\n            hasRole(PAUSER_ROLE, _msgSender()),\n            \"PAM:MOD: must have PAUSER_ROLE\"\n        );\n        _;\n    }\n\n    /*\n     * @dev Verify user credentials\n     *\n     * Originating Address is authorized for asset class\n     */\n    modifier isAuthorized(uint32 _assetClass) {\n        uint8 auth =\n            contractInfo[contractAddressToName[msg.sender]][_assetClass];\n        require(\n            ((auth > 0) && (auth < 5)) || (auth == 10),\n            \"S:MOD-IA:Contract not authorized\"\n        );\n        _;\n    }\n\n    /*\n     * @dev Check record _idxHash is not in escrow\n     */\n    modifier notEscrow(bytes32 _idxHash) {\n        require(\n            isEscrow(database[_idxHash].assetStatus) == 0,\n            \"S:MOD-NE:rec locked in ecr\"\n        );\n        _;\n    }\n\n    /*\n     * @dev Check record _idxHash exists in database\n     */\n    modifier exists(bytes32 _idxHash) {\n        require(\n            database[_idxHash].assetClass != 0,\n            \"S:MOD-E:rec does not exist\"\n        );\n        _;\n    }\n\n    /*\n     * @dev Check to see if contract address resolves to ECR_MGR\n     */\n    modifier isEscrowManager() {\n        require(\n            _msgSender() == contractNameToAddress[\"ECR_MGR\"],\n            \"S:MOD-IEM:Caller not ECR_MGR\"\n        );\n        _;\n    }\n\n    /*\n     * @dev Check to see a status matches lost or stolen status\n     */\n    function isLostOrStolen(uint8 _assetStatus) private pure returns (uint8) {\n        if (\n            (_assetStatus != 3) &&\n            (_assetStatus != 4) &&\n            (_assetStatus != 53) &&\n            (_assetStatus != 54)\n        ) {\n            return 0;\n        } else {\n            return 170;\n        }\n    }\n\n    /*\n     * @dev Check to see a status matches transferred status\n     */\n    function isTransferred(uint8 _assetStatus) private pure returns (uint8) {\n        if ((_assetStatus != 5) && (_assetStatus != 55)) {\n            return 0;\n        } else {\n            return 170;\n        }\n    }\n\n    /*\n     * @dev Check to see a status matches escrow status\n     */\n    function isEscrow(uint8 _assetStatus) private pure returns (uint8) {\n        if (\n            (_assetStatus != 6) &&\n            (_assetStatus != 50) &&\n            (_assetStatus != 60) &&\n            (_assetStatus != 56)\n        ) {\n            return 0;\n        } else {\n            return 170;\n        }\n    }\n\n    //-----------------------------------------------Events------------------------------------------------//\n\n    event REPORT(string _msg, bytes32 b32);\n\n    //--------------------------------Internal Admin functions / isAdmin---------------------------------//\n\n    /*\n     * @dev Triggers stopped state. (pausable)\n     */\n    function pause() external isPauser {\n        _pause();\n    }\n\n    /*\n     * @dev Returns to normal state. (pausable)\n     */\n    function unpause() external isPauser {\n        _unpause();\n    }\n\n    /*\n     * @dev Authorize / Deauthorize / Authorize ADRESSES permitted to make record modifications, per AssetClass\n     * populates contract name resolution and data mappings\n     */\n    function OO_addContract(\n        string calldata _name,\n        address _addr,\n        uint32 _assetClass,\n        uint8 _contractAuthLevel\n    ) external isAdmin {\n        require(_assetClass == 0, \"S:AC: AC not 0\");\n        //require(_contractAuthLevel <= 10, \"S:AC: Invalid auth lv\");\n        //^^^^^^^checks^^^^^^^^^\n\n        contractInfo[_name][_assetClass] = _contractAuthLevel; //does not pose an partial record overwrite risk\n        contractNameToAddress[_name] = _addr; //does not pose an partial record overwrite risk\n        contractAddressToName[_addr] = _name; //does not pose an partial record overwrite risk\n\n        AC_TKN = AC_TKN_Interface(contractNameToAddress[\"AC_TKN\"]);\n        AC_MGR = AC_MGR_Interface(contractNameToAddress[\"AC_MGR\"]);\n        //^^^^^^^effects^^^^^^^^^\n\n        emit REPORT(\"ACDA\", bytes32(uint256(_contractAuthLevel))); //report access to the internal user database\n        //^^^^^^^interactions^^^^^^^^^\n    }\n\n    /*\n     * @dev Authorize / Deauthorize / Authorize contract NAMES permitted to make record modifications, per AssetClass\n     * allows ACtokenHolder to auithorize or deauthorize specific contracts to work within their asset class\n     */\n    function enableContractForAC(\n        string calldata _name,\n        uint32 _assetClass,\n        uint8 _contractAuthLevel\n    ) external {\n        require(\n            AC_TKN.ownerOf(_assetClass) == _msgSender(),\n            \"S:ECFAC:Caller not ACtokenHolder\"\n        );\n\n        //^^^^^^^checks^^^^^^^^^\n\n        contractInfo[_name][_assetClass] = _contractAuthLevel; //does not pose an partial record overwrite risk\n        //^^^^^^^effects^^^^^^^^^\n\n        emit REPORT(\"ACDA\", bytes32(uint256(_contractAuthLevel))); //report access to the internal user database\n        //^^^^^^^interactions^^^^^^^^^\n    }\n\n    //--------------------------------External \"write\" contract functions / authuser---------------------------------//\n\n    /*\n     * @dev Make a new record, writing to the 'database' mapping with basic initial asset data\n     */\n    function newRecord(\n        bytes32 _idxHash,\n        bytes32 _rgtHash,\n        uint32 _assetClass,\n        uint32 _countDownStart\n    )\n        external\n        nonReentrant\n        whenNotPaused\n        isAuthorized(_assetClass) //calling contract must be authorized in relevant assetClass\n    {\n        require(\n            database[_idxHash].assetStatus != 60,\n            \"S:NR:Asset discarded use APP_NC rcycl\"\n        );\n        require(database[_idxHash].assetClass == 0, \"S:NR:Rec already exists\");\n        require(_rgtHash != 0, \"S:NR:RGT = 0\");\n        require(_assetClass != 0, \"S:NR:AC = 0\");\n        //^^^^^^^checks^^^^^^^^^\n\n        Record memory rec;\n\n        if (\n            contractInfo[contractAddressToName[_msgSender()]][_assetClass] == 1\n        ) {\n            rec.assetStatus = 0;\n        } else {\n            rec.assetStatus = 51;\n        }\n\n        rec.assetClass = _assetClass;\n        rec.countDownStart = _countDownStart;\n        rec.countDown = _countDownStart;\n        rec.rightsHolder = _rgtHash;\n\n        database[_idxHash] = rec;\n        //^^^^^^^effects^^^^^^^^^\n\n        //emit REPORT(\"NEW REC\", _idxHash);\n        //^^^^^^^interactions^^^^^^^^^\n    }\n\n    /*\n     * @dev Modify a record, writing to the 'database' mapping with updates to multiple fields\n     */\n    function modifyRecord(\n        bytes32 _idxHash,\n        bytes32 _rgtHash,\n        uint8 _newAssetStatus,\n        uint32 _countDown,\n        uint256 _incrementForceModCount,\n        uint256 _incrementNumberOfTransfers\n    )\n        external\n        nonReentrant\n        whenNotPaused\n        exists(_idxHash) //asset must exist in 'database'\n        isAuthorized(database[_idxHash].assetClass) //calling contract must be authorized in relevant assetClass\n        notEscrow(_idxHash) // asset must not be held in escrow status\n    {\n        Record memory rec = database[_idxHash];\n        bytes32 idxHash = _idxHash; //stack saving\n\n        require(_countDown <= rec.countDown, \"S:MR:countDown +!\"); //prohibit increasing the countdown value  //REDUNDANT, THROWS IN SAFEMATH\n        require(isLostOrStolen(_newAssetStatus) == 0, \"S:MR:Must use L/S\");\n        require(isEscrow(_newAssetStatus) == 0, \"S:MR:Must use ECR\");\n        // require(\n        //     (_newAssetStatus != 7) &&\n        //         (_newAssetStatus != 57) &&\n        //         (_newAssetStatus != 58),\n        //     \"S:MR: Stat Rsrvd\"\n        // );\n        require(_rgtHash != 0, \"S:MR: rgtHash = 0\");\n        //^^^^^^^checks^^^^^^^^^\n\n        rec.rightsHolder = _rgtHash;\n        rec.countDown = _countDown;\n        rec.assetStatus = _newAssetStatus;\n\n        if ((_incrementForceModCount == 170) && (rec.forceModCount < 255)) {\n            rec.forceModCount = rec.forceModCount + 1;\n        }\n        if (\n            (_incrementNumberOfTransfers == 170) &&\n            (rec.numberOfTransfers < 65535)\n        ) {\n            rec.numberOfTransfers = rec.numberOfTransfers + 1;\n        }\n\n        database[idxHash] = rec;\n        //^^^^^^^effects^^^^^^^^^\n\n        //emit REPORT(\"REC MOD\", _idxHash);\n        //^^^^^^^interactions^^^^^^^^^\n    }\n\n    /*\n     * @dev Change asset class of an asset - writes to assetClass in the 'Record' struct of the 'database' at _idxHash\n     */\n    function changeAC(bytes32 _idxHash, uint32 _newAssetClass)\n        external\n        nonReentrant\n        whenNotPaused\n        exists(_idxHash) //asset must exist in 'database'\n        notEscrow(_idxHash) // asset must not be held in escrow status\n        isAuthorized(0) //is an authorized contract, Asset class nonspecific\n    {\n        Record memory rec = database[_idxHash];\n\n        require(_newAssetClass != 0, \"S:CAC:Cannot set AC-0\");\n        require( //require new assetClass is in the same root as old assetClass\n            AC_MGR.isSameRootAC(_newAssetClass, rec.assetClass) == 170,\n            \"S:CAC:Cannot mod AC to new root\"\n        );\n        require((isLostOrStolen(rec.assetStatus) == 0), \"S:CAC:L/S asset\"); //asset cannot be in lost or stolen status\n        require((isTransferred(rec.assetStatus) == 0), \"S:CAC:Txfrd asset\"); //asset cannot be in transferred status\n        //^^^^^^^checks^^^^^^^^^\n\n        rec.assetClass = _newAssetClass;\n        database[_idxHash] = rec;\n        //^^^^^^^effects^^^^^^^^^\n\n        //emit REPORT(\"UPD AC\", _idxHash);\n        //^^^^^^^interactions^^^^^^^^^\n    }\n\n    /*\n     * @dev Set an asset to stolen or lost. Allows narrow modification of status 6/12 assets, normally locked\n     */\n    function setStolenOrLost(bytes32 _idxHash, uint8 _newAssetStatus)\n        external\n        nonReentrant\n        whenNotPaused\n        exists(_idxHash) //asset must exist in 'database'\n        isAuthorized(database[_idxHash].assetClass) //calling contract must be authorized in relevant assetClass\n    {\n        Record memory rec = database[_idxHash];\n\n        require(\n            isLostOrStolen(_newAssetStatus) == 170, //proposed new status must be L/S status\n            \"S:SSL:Must set to L/S\"\n        );\n        require( //asset cannot be set l/s if in transferred or locked escrow status\n            (rec.assetStatus != 5) &&\n                (rec.assetStatus != 50) &&\n                (rec.assetStatus != 55), //STATE UNREACHABLE TO SET TO STAT 55 IN CURRENT CONTRACTS\n            \"S:SSL:Txfr or ecr-locked asset != L/S.\"\n        );\n        //^^^^^^^checks^^^^^^^^^\n\n        rec.assetStatus = _newAssetStatus;\n        database[_idxHash] = rec;\n        //^^^^^^^effects^^^^^^^^^\n\n        // if ((_newAssetStatus == 3) || (_newAssetStatus == 53)) {\n        //     emit REPORT(\"STOLEN\", _idxHash);\n        // } else {\n        //     emit REPORT(\"LOST\", _idxHash);\n        // }\n        //^^^^^^^interactions^^^^^^^^^\n    }\n\n    /*\n     * @dev Set an asset to escrow locked status (6/50/56).\n     */\n    function setEscrow(bytes32 _idxHash, uint8 _newAssetStatus)\n        external\n        nonReentrant\n        whenNotPaused\n        isEscrowManager\n        exists(_idxHash) //asset must exist in 'database'\n        notEscrow(_idxHash) // asset must not be held in escrow status\n    {\n        Record memory rec = database[_idxHash];\n        require(isEscrow(_newAssetStatus) == 170, \"S:SE: stat must = ecr\"); //proposed new status must be an escrow status\n        require((isLostOrStolen(rec.assetStatus) == 0), \"S:MI2:L/S asset\"); //asset cannot be in lost or stolen status\n        require((isTransferred(rec.assetStatus) == 0), \"S:MI2: Txfrd asset\"); //asset cannot be in transferred status\n        //^^^^^^^checks^^^^^^^^^\n\n        if (_newAssetStatus == 60) {\n            //if setting to \"escrow\" status, set rgt to 0xFFF_\n            rec.rightsHolder = B320xF_;\n        }\n\n        rec.assetStatus = _newAssetStatus;\n        database[_idxHash] = rec;\n        //^^^^^^^effects^^^^^^^^^\n        //emit REPORT(\"ECR SET\", _idxHash);\n        //^^^^^^^interactions^^^^^^^^^\n    }\n\n    /*\n     * @dev remove an asset from escrow status. Implicitly trusts escrowManager ECR_MGR contract\n     */\n    function endEscrow(bytes32 _idxHash)\n        external\n        nonReentrant\n        whenNotPaused\n        isEscrowManager //calling contract must be ECR_MGR\n        exists(_idxHash) //asset must exist in 'database'  //CTS:EXAMINE REDUNDANT THROWS IN ECR_MGR WITH \"Asset not in escrow status\"\n    {\n        Record memory rec = database[_idxHash];\n        require(isEscrow(rec.assetStatus) == 170, \"S:EE:! ecr stat\"); //asset must be in an escrow status  //CTS:EXAMINE REDUNDANT THROWS IN ECR_MGR WITH \"Asset not in escrow status\"\n        //^^^^^^^checks^^^^^^^^^\n\n        if (rec.assetStatus == 6) {\n            rec.assetStatus = 7;\n        }\n        if (rec.assetStatus == 56) {\n            rec.assetStatus = 57;\n        }\n        if (rec.assetStatus == 50) {\n            rec.assetStatus = 58;\n        }\n        if (rec.assetStatus == 60) {\n            rec.assetStatus = 58;\n        }\n\n        database[_idxHash] = rec;\n        //^^^^^^^effects^^^^^^^^^\n        //emit REPORT(\"ECR END:\", _idxHash);\n        //^^^^^^^interactions^^^^^^^^^\n    }\n\n    /*\n     * @dev Modify record sale price and currency data\n     */\n    function setPrice(\n        bytes32 _idxHash,\n        uint120 _price,\n        uint8 _currency\n    )\n        external\n        nonReentrant\n        whenNotPaused\n        exists(_idxHash) //asset must exist in 'database' // CTS:EXAMINE REDUNDANT THROWS IN PURCHASE, UNREACHABLE WITH CURRENT CONTRACTS\n        isAuthorized(database[_idxHash].assetClass) //calling contract must be authorized in relevant assetClass\n    //notEscrow(_idxHash) // asset must not be held in escrow status\n    {\n        Record memory rec = database[_idxHash];\n        require((isTransferred(rec.assetStatus) == 0), \"S:SP: Txfrd asset\"); // CTS:EXAMINE REDUNDANT THROWS IN PURCHASE, UNREACHABLE WITH CURRENT CONTRACTS\n        //require(isEscrow(rec.assetStatus) == 0, \"S:SP: Escrowed asset\");\n        //^^^^^^^checks^^^^^^^^^\n\n        rec.price = _price;\n        rec.currency = _currency;\n\n        database[_idxHash] = rec;\n        //^^^^^^^effects^^^^^^^^^\n\n        //emit REPORT(\"Price mod\", _idxHash);\n        //^^^^^^^interactions^^^^^^^^^\n    }\n\n    /*\n     * @dev set record sale price and currency data to zero\n     */\n    function clearPrice(bytes32 _idxHash)\n        external\n        nonReentrant\n        whenNotPaused\n        exists(_idxHash) //asset must exist in 'database' // CTS:EXAMINE REDUNDANT THROWS IN PURCHASE, UNREACHABLE WITH CURRENT CONTRACTS\n        isAuthorized(database[_idxHash].assetClass) //calling contract must be authorized in relevant assetClass\n    //notEscrow(_idxHash) // asset must not be held in escrow status\n    {\n        Record memory rec = database[_idxHash];\n        require((isTransferred(rec.assetStatus) == 0), \"S:CP: Txfrd asset\"); // CTS:EXAMINE REDUNDANT THROWS IN PURCHASE, UNREACHABLE WITH CURRENT CONTRACTS\n        //require(isEscrow(rec.assetStatus) == 0, \"S:CP: Escrowed asset\");\n        //^^^^^^^checks^^^^^^^^^\n\n        rec.price = 0;\n        rec.currency = 0;\n\n        database[_idxHash] = rec;\n        //^^^^^^^effects^^^^^^^^^\n\n        //emit REPORT(\"Price mod\", _idxHash);\n        //^^^^^^^interactions^^^^^^^^^\n    }\n\n    /*\n     * @dev Modify record Ipfs1 data\n     */\n    function modifyIpfs1(bytes32 _idxHash, bytes32 _Ipfs1)\n        external\n        nonReentrant\n        whenNotPaused\n        exists(_idxHash) //asset must exist in 'database'\n        isAuthorized(database[_idxHash].assetClass) //calling contract must be authorized in relevant assetClass\n        notEscrow(_idxHash) // asset must not be held in escrow status\n    {\n        Record memory rec = database[_idxHash];\n        require((isTransferred(rec.assetStatus) == 0), \"S:MI2: Txfrd asset\"); //STAT UNREACHABLE\n\n        require((rec.Ipfs1 != _Ipfs1), \"S:MI1: New value = old\");\n        //^^^^^^^checks^^^^^^^^^\n\n        rec.Ipfs1 = _Ipfs1;\n\n        database[_idxHash] = rec;\n        //^^^^^^^effects^^^^^^^^^\n        //emit REPORT(\"I1 mod\", _idxHash);\n        //^^^^^^^interactions^^^^^^^^^\n    }\n\n    function modifyIpfs2(\n        //bytes32 _userHash,\n        bytes32 _idxHash,\n        bytes32 _Ipfs2\n    )\n        external\n        nonReentrant\n        whenNotPaused\n        exists(_idxHash) //asset must exist in 'database'\n        isAuthorized(database[_idxHash].assetClass) //calling contract must be authorized in relevant assetClass\n        notEscrow(_idxHash) // asset must not be held in escrow status\n    {\n        Record memory rec = database[_idxHash];\n        require((isLostOrStolen(rec.assetStatus) == 0), \"S:MI2:L/S asset\"); //asset cannot be in lost or stolen status\n        require((isTransferred(rec.assetStatus) == 0), \"S:MI2: Txfrd. asset\"); //asset cannot be in transferred status\n\n        require((rec.Ipfs2 == 0), \"S:MI2: ! overwrite I2\"); //IPFS2 record is immutable after first write\n        //^^^^^^^checks^^^^^^^^^\n\n        rec.Ipfs2 = _Ipfs2;\n\n        database[_idxHash] = rec;\n        //^^^^^^^effects^^^^^^^^^\n\n        //emit REPORT(\"I2 mod\", _idxHash);\n        //^^^^^^^interactions^^^^^^^^^\n    }\n\n    //--------------------------------External READ ONLY contract functions / authuser---------------------------------//\n    /*\n     * @dev return a record from the database, including rgt\n     */\n    function retrieveRecord(bytes32 _idxHash)\n        external\n        view\n        isAuthorized(0) //is an authorized contract, Asset class nonspecific\n        returns (\n            bytes32,\n            uint8,\n            uint32,\n            uint32,\n            uint32,\n            bytes32,\n            bytes32\n        )\n    {\n        Record memory rec = database[_idxHash];\n\n        //  if (\n        //      (rec.assetStatus == 3) ||\n        //      (rec.assetStatus == 4) ||\n        //      (rec.assetStatus == 53) ||\n        //      (rec.assetStatus == 54)\n        //  ) {\n        //      emit REPORT(\"Lost or stolen record queried\", _idxHash);\n        //  }\n\n        return (\n            rec.rightsHolder,\n            rec.assetStatus,\n            rec.assetClass,\n            rec.countDown,\n            rec.countDownStart,\n            rec.Ipfs1,\n            rec.Ipfs2\n        );\n        //^^^^^^^interactions^^^^^^^^^\n    }\n\n    /*\n     * @dev return a record from the database w/o rgt\n     */\n    function retrieveShortRecord(bytes32 _idxHash)\n        external\n        view\n        returns (\n            uint8,\n            uint8,\n            uint32,\n            uint32,\n            uint32,\n            bytes32,\n            bytes32,\n            uint16\n        )\n    {\n        Record memory rec = database[_idxHash];\n\n        //  if (\n        //      (rec.assetStatus == 3) ||\n        //      (rec.assetStatus == 4) ||\n        //      (rec.assetStatus == 53) ||\n        //      (rec.assetStatus == 54)\n        //  ) {\n        //      emit REPORT(\"Lost or stolen record queried\", _idxHash);\n        //  }\n\n        return (\n            rec.assetStatus,\n            rec.forceModCount,\n            rec.assetClass,\n            rec.countDown,\n            rec.countDownStart,\n            rec.Ipfs1,\n            rec.Ipfs2,\n            rec.numberOfTransfers\n        );\n        //^^^^^^^interactions^^^^^^^^^\n    }\n\n    /*\n     * @dev return the pricing and currency data from a record\n     */\n    function getPriceData(bytes32 _idxHash)\n        external\n        view\n        returns (uint120, uint8)\n    {\n        return (database[_idxHash].price, database[_idxHash].currency);\n        //^^^^^^^interactions^^^^^^^^^\n    }\n\n    /*\n     * @dev Compare record.rightsholder with supplied bytes32 rightsholder\n     * return 170 if matches, 0 if not\n     */\n    function _verifyRightsHolder(bytes32 _idxHash, bytes32 _rgtHash)\n        external\n        view\n        returns (uint256)\n    {\n        if (_rgtHash == database[_idxHash].rightsHolder) {\n            return 170;\n        } else {\n            return 0;\n        }\n        //^^^^^^^checks/interactions^^^^^^^^^\n    }\n\n    /*\n     * @dev Compare record.rightsholder with supplied bytes32 rightsholder (writes an emit in blockchain for independant verification)\n     */\n    function blockchainVerifyRightsHolder(bytes32 _idxHash, bytes32 _rgtHash)\n        external\n        returns (uint256)\n    {\n        if (_rgtHash == database[_idxHash].rightsHolder) {\n            emit REPORT(\"Match confirmed\", _idxHash);\n            return 170;\n        } else {\n            emit REPORT(\"Does not match\", _idxHash);\n            return 0;\n        }\n        //^^^^^^^checks/interactions^^^^^^^^^\n    }\n\n    /*\n     * @dev //returns the address of a contract with name _name. This is for web3 implementations to find the right contract to interact with\n     * example :  Frontend = ****** so web 3 first asks storage where to find frontend, then calls for frontend functions.\n     */\n    function resolveContractAddress(string calldata _name)\n        external\n        view\n        returns (address)\n    {\n        return contractNameToAddress[_name];\n        //^^^^^^^interactions^^^^^^^^^\n    }\n\n    /*\n     * @dev //returns the contract type of a contract with address _addr.\n     */\n    function ContractInfoHash(address _addr, uint32 _assetClass)\n        external\n        view\n        returns (uint8, bytes32)\n    {\n        return (\n            contractInfo[contractAddressToName[_addr]][_assetClass],\n            keccak256(abi.encodePacked(contractAddressToName[_addr]))\n        );\n        //^^^^^^^interactions^^^^^^^^^\n    }\n}\n",
  "sourcePath": "C:/Users/User/Documents/DEV/PRUF/PRUF_TRUFFLE/contracts/PRUF_STOR.sol",
  "compiler": {
    "name": "solc",
    "version": "0.8.0+commit.c7dfd78e.Emscripten.clang"
  },
  "schemaVersion": "3.3.3",
  "updatedAt": "2021-02-18T22:17:45.385Z",
  "devdoc": {
    "kind": "dev",
    "methods": {
      "getRoleAdmin(bytes32)": {
        "details": "Returns the admin role that controls `role`. See {grantRole} and {revokeRole}. To change a role's admin, use {_setRoleAdmin}."
      },
      "getRoleMember(bytes32,uint256)": {
        "details": "Returns one of the accounts that have `role`. `index` must be a value between 0 and {getRoleMemberCount}, non-inclusive. Role bearers are not sorted in any particular way, and their ordering may change at any point. WARNING: When using {getRoleMember} and {getRoleMemberCount}, make sure you perform all queries on the same block. See the following https://forum.openzeppelin.com/t/iterating-over-elements-on-enumerableset-in-openzeppelin-contracts/2296[forum post] for more information."
      },
      "getRoleMemberCount(bytes32)": {
        "details": "Returns the number of accounts that have `role`. Can be used together with {getRoleMember} to enumerate all bearers of a role."
      },
      "grantRole(bytes32,address)": {
        "details": "Grants `role` to `account`. If `account` had not been already granted `role`, emits a {RoleGranted} event. Requirements: - the caller must have ``role``'s admin role."
      },
      "hasRole(bytes32,address)": {
        "details": "Returns `true` if `account` has been granted `role`."
      },
      "paused()": {
        "details": "Returns true if the contract is paused, and false otherwise."
      },
      "renounceRole(bytes32,address)": {
        "details": "Revokes `role` from the calling account. Roles are often managed via {grantRole} and {revokeRole}: this function's purpose is to provide a mechanism for accounts to lose their privileges if they are compromised (such as when a trusted device is misplaced). If the calling account had been granted `role`, emits a {RoleRevoked} event. Requirements: - the caller must be `account`."
      },
      "revokeRole(bytes32,address)": {
        "details": "Revokes `role` from `account`. If `account` had been granted `role`, emits a {RoleRevoked} event. Requirements: - the caller must have ``role``'s admin role."
      }
    },
    "version": 1
  },
  "userdoc": {
    "kind": "user",
    "methods": {},
    "version": 1
  }
}