{
  "contractName": "UD_721",
  "abi": [
    {
      "inputs": [],
      "stateMutability": "nonpayable",
      "type": "constructor"
    },
    {
      "anonymous": false,
      "inputs": [
        {
          "indexed": false,
          "internalType": "address",
          "name": "account",
          "type": "address"
        }
      ],
      "name": "Paused",
      "type": "event"
    },
    {
      "anonymous": false,
      "inputs": [
        {
          "indexed": false,
          "internalType": "string",
          "name": "_msg",
          "type": "string"
        }
      ],
      "name": "REPORT",
      "type": "event"
    },
    {
      "anonymous": false,
      "inputs": [
        {
          "indexed": true,
          "internalType": "bytes32",
          "name": "role",
          "type": "bytes32"
        },
        {
          "indexed": true,
          "internalType": "bytes32",
          "name": "previousAdminRole",
          "type": "bytes32"
        },
        {
          "indexed": true,
          "internalType": "bytes32",
          "name": "newAdminRole",
          "type": "bytes32"
        }
      ],
      "name": "RoleAdminChanged",
      "type": "event"
    },
    {
      "anonymous": false,
      "inputs": [
        {
          "indexed": true,
          "internalType": "bytes32",
          "name": "role",
          "type": "bytes32"
        },
        {
          "indexed": true,
          "internalType": "address",
          "name": "account",
          "type": "address"
        },
        {
          "indexed": true,
          "internalType": "address",
          "name": "sender",
          "type": "address"
        }
      ],
      "name": "RoleGranted",
      "type": "event"
    },
    {
      "anonymous": false,
      "inputs": [
        {
          "indexed": true,
          "internalType": "bytes32",
          "name": "role",
          "type": "bytes32"
        },
        {
          "indexed": true,
          "internalType": "address",
          "name": "account",
          "type": "address"
        },
        {
          "indexed": true,
          "internalType": "address",
          "name": "sender",
          "type": "address"
        }
      ],
      "name": "RoleRevoked",
      "type": "event"
    },
    {
      "anonymous": false,
      "inputs": [
        {
          "indexed": false,
          "internalType": "address",
          "name": "account",
          "type": "address"
        }
      ],
      "name": "Unpaused",
      "type": "event"
    },
    {
      "inputs": [],
      "name": "ASSET_TXFR_ROLE",
      "outputs": [
        {
          "internalType": "bytes32",
          "name": "",
          "type": "bytes32"
        }
      ],
      "stateMutability": "view",
      "type": "function"
    },
    {
      "inputs": [],
      "name": "CONTRACT_ADMIN_ROLE",
      "outputs": [
        {
          "internalType": "bytes32",
          "name": "",
          "type": "bytes32"
        }
      ],
      "stateMutability": "view",
      "type": "function"
    },
    {
      "inputs": [],
      "name": "DAO_ROLE",
      "outputs": [
        {
          "internalType": "bytes32",
          "name": "",
          "type": "bytes32"
        }
      ],
      "stateMutability": "view",
      "type": "function"
    },
    {
      "inputs": [],
      "name": "DEFAULT_ADMIN_ROLE",
      "outputs": [
        {
          "internalType": "bytes32",
          "name": "",
          "type": "bytes32"
        }
      ],
      "stateMutability": "view",
      "type": "function"
    },
    {
      "inputs": [
        {
          "internalType": "address",
          "name": "_tokenContract",
          "type": "address"
        },
        {
          "internalType": "address",
          "name": "_to",
          "type": "address"
        },
        {
          "internalType": "uint256",
          "name": "_amount",
          "type": "uint256"
        }
      ],
      "name": "ERC20Transfer",
      "outputs": [],
      "stateMutability": "nonpayable",
      "type": "function"
    },
    {
      "inputs": [
        {
          "internalType": "address",
          "name": "_tokenContract",
          "type": "address"
        },
        {
          "internalType": "address",
          "name": "_to",
          "type": "address"
        },
        {
          "internalType": "uint256",
          "name": "_tokenID",
          "type": "uint256"
        }
      ],
      "name": "ERC721Transfer",
      "outputs": [],
      "stateMutability": "nonpayable",
      "type": "function"
    },
    {
      "inputs": [],
      "name": "NODE_MINTER_ROLE",
      "outputs": [
        {
          "internalType": "bytes32",
          "name": "",
          "type": "bytes32"
        }
      ],
      "stateMutability": "view",
      "type": "function"
    },
    {
      "inputs": [],
      "name": "PAUSER_ROLE",
      "outputs": [
        {
          "internalType": "bytes32",
          "name": "",
          "type": "bytes32"
        }
      ],
      "stateMutability": "view",
      "type": "function"
    },
    {
      "inputs": [],
      "name": "UD_token_address",
      "outputs": [
        {
          "internalType": "address",
          "name": "",
          "type": "address"
        }
      ],
      "stateMutability": "view",
      "type": "function"
    },
    {
      "inputs": [
        {
          "internalType": "bytes32",
          "name": "role",
          "type": "bytes32"
        }
      ],
      "name": "getRoleAdmin",
      "outputs": [
        {
          "internalType": "bytes32",
          "name": "",
          "type": "bytes32"
        }
      ],
      "stateMutability": "view",
      "type": "function"
    },
    {
      "inputs": [
        {
          "internalType": "bytes32",
          "name": "role",
          "type": "bytes32"
        },
        {
          "internalType": "address",
          "name": "account",
          "type": "address"
        }
      ],
      "name": "grantRole",
      "outputs": [],
      "stateMutability": "nonpayable",
      "type": "function"
    },
    {
      "inputs": [
        {
          "internalType": "bytes32",
          "name": "role",
          "type": "bytes32"
        },
        {
          "internalType": "address",
          "name": "account",
          "type": "address"
        }
      ],
      "name": "hasRole",
      "outputs": [
        {
          "internalType": "bool",
          "name": "",
          "type": "bool"
        }
      ],
      "stateMutability": "view",
      "type": "function"
    },
    {
      "inputs": [
        {
          "internalType": "address",
          "name": "",
          "type": "address"
        },
        {
          "internalType": "address",
          "name": "",
          "type": "address"
        },
        {
          "internalType": "uint256",
          "name": "",
          "type": "uint256"
        },
        {
          "internalType": "bytes",
          "name": "",
          "type": "bytes"
        }
      ],
      "name": "onERC721Received",
      "outputs": [
        {
          "internalType": "bytes4",
          "name": "",
          "type": "bytes4"
        }
      ],
      "stateMutability": "nonpayable",
      "type": "function"
    },
    {
      "inputs": [],
      "name": "pause",
      "outputs": [],
      "stateMutability": "nonpayable",
      "type": "function"
    },
    {
      "inputs": [],
      "name": "paused",
      "outputs": [
        {
          "internalType": "bool",
          "name": "",
          "type": "bool"
        }
      ],
      "stateMutability": "view",
      "type": "function"
    },
    {
      "inputs": [
        {
          "internalType": "bytes32",
          "name": "role",
          "type": "bytes32"
        },
        {
          "internalType": "address",
          "name": "account",
          "type": "address"
        }
      ],
      "name": "renounceRole",
      "outputs": [],
      "stateMutability": "nonpayable",
      "type": "function"
    },
    {
      "inputs": [],
      "name": "resolveContractAddresses",
      "outputs": [],
      "stateMutability": "nonpayable",
      "type": "function"
    },
    {
      "inputs": [
        {
          "internalType": "bytes32",
          "name": "role",
          "type": "bytes32"
        },
        {
          "internalType": "address",
          "name": "account",
          "type": "address"
        }
      ],
      "name": "revokeRole",
      "outputs": [],
      "stateMutability": "nonpayable",
      "type": "function"
    },
    {
      "inputs": [
        {
          "internalType": "address",
          "name": "_storageAddress",
          "type": "address"
        }
      ],
      "name": "setStorageContract",
      "outputs": [],
      "stateMutability": "nonpayable",
      "type": "function"
    },
    {
      "inputs": [
        {
          "internalType": "bytes4",
          "name": "interfaceId",
          "type": "bytes4"
        }
      ],
      "name": "supportsInterface",
      "outputs": [
        {
          "internalType": "bool",
          "name": "",
          "type": "bool"
        }
      ],
      "stateMutability": "view",
      "type": "function"
    },
    {
      "inputs": [],
      "name": "unpause",
      "outputs": [],
      "stateMutability": "nonpayable",
      "type": "function"
    },
    {
      "inputs": [
        {
          "internalType": "address",
          "name": "_erc721Address",
          "type": "address"
        }
      ],
      "name": "setUnstoppableDomainsTokenContract",
      "outputs": [],
      "stateMutability": "nonpayable",
      "type": "function"
    },
    {
      "inputs": [
        {
          "internalType": "string",
          "name": "_domain",
          "type": "string"
        },
        {
          "internalType": "string",
          "name": "_tld",
          "type": "string"
        },
        {
          "internalType": "uint32",
          "name": "_nodeRoot",
          "type": "uint32"
        },
        {
          "internalType": "uint8",
          "name": "_custodyType",
          "type": "uint8"
        },
        {
          "internalType": "bytes32",
          "name": "_CAS1",
          "type": "bytes32"
        },
        {
          "internalType": "bytes32",
          "name": "_CAS2",
          "type": "bytes32"
        }
      ],
      "name": "purchaseNode",
      "outputs": [
        {
          "internalType": "uint256",
          "name": "",
          "type": "uint256"
        }
      ],
      "stateMutability": "nonpayable",
      "type": "function"
    },
    {
      "inputs": [
        {
          "internalType": "uint32",
          "name": "_node",
          "type": "uint32"
        },
        {
          "internalType": "bytes32",
          "name": "_addrHash",
          "type": "bytes32"
        },
        {
          "internalType": "uint8",
          "name": "_userType",
          "type": "uint8"
        }
      ],
      "name": "addUser",
      "outputs": [],
      "stateMutability": "nonpayable",
      "type": "function"
    },
    {
      "inputs": [
        {
          "internalType": "uint32",
          "name": "_thisNode",
          "type": "uint32"
        },
        {
          "internalType": "uint32",
          "name": "_otherNode",
          "type": "uint32"
        },
        {
          "internalType": "uint256",
          "name": "_newStatus",
          "type": "uint256"
        }
      ],
      "name": "updateImportStatus",
      "outputs": [],
      "stateMutability": "nonpayable",
      "type": "function"
    },
    {
      "inputs": [
        {
          "internalType": "uint32",
          "name": "_node",
          "type": "uint32"
        },
        {
          "internalType": "bytes32",
          "name": "_CAS1",
          "type": "bytes32"
        },
        {
          "internalType": "bytes32",
          "name": "_CAS2",
          "type": "bytes32"
        }
      ],
      "name": "updateNodeCAS",
      "outputs": [],
      "stateMutability": "nonpayable",
      "type": "function"
    },
    {
      "inputs": [
        {
          "internalType": "uint32",
          "name": "_node",
          "type": "uint32"
        },
        {
          "internalType": "uint16",
          "name": "_service",
          "type": "uint16"
        },
        {
          "internalType": "uint256",
          "name": "_serviceCost",
          "type": "uint256"
        },
        {
          "internalType": "address",
          "name": "_paymentAddress",
          "type": "address"
        }
      ],
      "name": "setOperationCosts",
      "outputs": [],
      "stateMutability": "nonpayable",
      "type": "function"
    },
    {
      "inputs": [
        {
          "internalType": "uint32",
          "name": "_node",
          "type": "uint32"
        },
        {
          "internalType": "uint8",
          "name": "_managementType",
          "type": "uint8"
        },
        {
          "internalType": "uint8",
          "name": "_storageProvider",
          "type": "uint8"
        },
        {
          "internalType": "address",
          "name": "_refAddress",
          "type": "address"
        },
        {
          "internalType": "uint8",
          "name": "_switches",
          "type": "uint8"
        }
      ],
      "name": "setNonMutableData",
      "outputs": [],
      "stateMutability": "nonpayable",
      "type": "function"
    },
    {
      "inputs": [
        {
          "internalType": "uint32",
          "name": "_node",
          "type": "uint32"
        },
        {
          "internalType": "uint8",
          "name": "_u8a",
          "type": "uint8"
        },
        {
          "internalType": "uint8",
          "name": "_u8b",
          "type": "uint8"
        },
        {
          "internalType": "uint16",
          "name": "_u16c",
          "type": "uint16"
        },
        {
          "internalType": "uint32",
          "name": "_u32d",
          "type": "uint32"
        },
        {
          "internalType": "uint32",
          "name": "_u32e",
          "type": "uint32"
        }
      ],
      "name": "setExtendedNodeData",
      "outputs": [],
      "stateMutability": "nonpayable",
      "type": "function"
    },
    {
      "inputs": [
        {
          "internalType": "string",
          "name": "_domain",
          "type": "string"
        },
        {
          "internalType": "string",
          "name": "_tld",
          "type": "string"
        }
      ],
      "name": "getTokenIdFromDomain",
      "outputs": [
        {
          "internalType": "uint256",
          "name": "",
          "type": "uint256"
        }
      ],
      "stateMutability": "pure",
      "type": "function"
    }
  ],
  "bytecode": "0x60806040523480156200001157600080fd5b50600160009081556002805460ff191690556200002f9033620000b9565b6200005b7f2ce8d04a9c35987429af538825cd2438cc5c5bb5dc427955f84daaa3ea10501633620000b9565b620000877f65d7a28e3265b37a6474929f336521b332c1681b933f6cb9f3376673440d862a33620000b9565b620000b37f90219b46dbbd825260da66c7f6411a53b1623387f4978b89820057b1efbf195733620000b9565b62000151565b620000c58282620000c9565b5050565b60008281526001602090815260408083206001600160a01b038516845290915290205460ff16620000c55760008281526001602081815260408084206001600160a01b0386168086529252808420805460ff19169093179092559051339285917f2f8788117e7eff1d82e926ec794901d17c78024a50270940304540a733656f0d9190a45050565b61381c80620001616000396000f3fe608060405234801561001057600080fd5b50600436106101da5760003560e01c8063a217fddf11610104578063dc38b0a2116100a2578063e63ab1e911610071578063e63ab1e914610441578063e9c2651814610468578063ee9c25c51461048f578063ff49f27a1461049757600080fd5b8063dc38b0a2146103f5578063e1361da414610408578063e59fdd361461041b578063e5f815dc1461042e57600080fd5b8063c3fa29bb116100de578063c3fa29bb14610395578063c94c2a9d146103a8578063d07a197d146103bb578063d547741f146103e257600080fd5b8063a217fddf14610367578063a85759d51461036f578063c359e4231461038257600080fd5b806336568abe1161017c5780636ffbdfad1161014b5780636ffbdfad1461030e5780638456cb591461032157806390ad6b861461032957806391d148541461035457600080fd5b806336568abe146102d55780633f4ba83a146102e857806343d3949b146102f05780635c975abb1461030357600080fd5b80631da03312116101b85780631da0331214610274578063248a9ca31461028957806327eabc71146102ad5780632f2ff15d146102c057600080fd5b806301ffc9a7146101df5780631429db5f14610207578063150b7a021461023c575b600080fd5b6101f26101ed366004612dd3565b6104aa565b60405190151581526020015b60405180910390f35b61022e7f7f1e4e9f3d9ba0452a25cfef4cd4c6ffc86158d06ed2f585fa0093e12dec429c81565b6040519081526020016101fe565b61025b61024a366004612cf5565b630a85bd0160e11b95945050505050565b6040516001600160e01b031990911681526020016101fe565b61022e6000805160206137c783398151915281565b61022e610297366004612d8a565b6000908152600160208190526040909120015490565b61022e6102bb366004612dfd565b6104e1565b6102d36102ce366004612da3565b6107fc565b005b6102d36102e3366004612da3565b610828565b6102d36108a6565b6102d36102fe366004612c7a565b6108f6565b60025460ff166101f2565b6102d361031c36600461310d565b6109a1565b6102d3610cb2565b60175461033c906001600160a01b031681565b6040516001600160a01b0390911681526020016101fe565b6101f2610362366004612da3565b610d00565b61022e600081565b6102d361037d36600461314f565b610d2b565b6102d36103903660046130d8565b611045565b6102d36103a3366004613243565b61131e565b6102d36103b63660046131a2565b61164c565b61022e7f90219b46dbbd825260da66c7f6411a53b1623387f4978b89820057b1efbf195781565b6102d36103f0366004612da3565b611926565b6102d3610403366004612c7a565b61194d565b6102d36104163660046131d2565b6119ee565b6102d3610429366004612cb4565b611d12565b6102d361043c366004612cb4565b611e13565b61022e7f65d7a28e3265b37a6474929f336521b332c1681b933f6cb9f3376673440d862a81565b61022e7f3b5d4cc60d3ec3516ee8ae083bd60934f6eb2a6c54b1229985c41bfb092b260381565b6102d3611ef3565b61022e6104a5366004612ea4565b6125c4565b60006001600160e01b03198216637965db0b60e01b14806104db57506301ffc9a760e01b6001600160e01b03198316145b92915050565b60006002600054141561050f5760405162461bcd60e51b815260040161050690613603565b60405180910390fd5b600260005561052060025460ff1690565b1561053d5760405162461bcd60e51b815260040161050690613565565b60006105b28a8a8080601f01602080910402602001604051908101604052809392919081815260200183838082843760009201919091525050604080516020601f8e018190048102820181019092528c815292508c91508b90819084018382808284376000920191909152506125c492505050565b9050336016546040516331a9108f60e11b8152600481018490526001600160a01b039283169290911690636352211e9060240160206040518083038186803b1580156105fd57600080fd5b505afa158015610611573d6000803e3d6000fd5b505050506040513d601f19601f820116820180604052508101906106359190612c97565b6001600160a01b0316146106b3576040805162461bcd60e51b81526020600482015260248101919091527f55444e423a504e3a537570706c696564206e6f6465206e616d6520646f65732060448201527f6e6f74206d6174636820746f6b656e49442068656c642062792063616c6c65726064820152608401610506565b60008a8a8a8a6040516020016106cc94939291906132f1565b60408051601f19818403018152908290526005546306e795c760e41b83529092506000916001600160a01b0390911690636e795c709061071a9085908c908c908c908c9033906004016133f1565b602060405180830381600087803b15801561073457600080fd5b505af1158015610748573d6000803e3d6000fd5b505050506040513d601f19601f8201168201806040525081019061076c91906130bb565b60055460175460405163f3fe4cbb60e01b815263ffffffff841660048201526001600160a01b03918216602482015260448101879052929350169063f3fe4cbb90606401600060405180830381600087803b1580156107ca57600080fd5b505af11580156107de573d6000803e3d6000fd5b50506001600055505063ffffffff169b9a5050505050505050505050565b6000828152600160208190526040909120015461081981336126d7565b610823838361273b565b505050565b6001600160a01b03811633146108985760405162461bcd60e51b815260206004820152602f60248201527f416363657373436f6e74726f6c3a2063616e206f6e6c792072656e6f756e636560448201526e103937b632b9903337b91039b2b63360891b6064820152608401610506565b6108a282826127a6565b5050565b6108d07f65d7a28e3265b37a6474929f336521b332c1681b933f6cb9f3376673440d862a33610d00565b6108ec5760405162461bcd60e51b81526004016105069061351f565b6108f461280d565b565b61090e6000805160206137c783398151915233610d00565b61092a5760405162461bcd60e51b81526004016105069061343f565b6001600160a01b0381166109755760405162461bcd60e51b81526020600482015260126024820152710423a5353433a2041646472657373203d20360741b6044820152606401610506565b601780546001600160a01b039092166001600160a01b0319928316811790915560168054909216179055565b60025460ff16156109c45760405162461bcd60e51b815260040161050690613565565b8233600d546040516331a9108f60e11b815263ffffffff841660048201526001600160a01b039283169290911690636352211e9060240160206040518083038186803b158015610a1357600080fd5b505afa158015610a27573d6000803e3d6000fd5b505050506040513d601f19601f82011682018060405250810190610a4b9190612c97565b6001600160a01b031614610a715760405162461bcd60e51b8152600401610506906134c9565b6000610a7c826128a0565b600754604051639edaf4a760e01b815263ffffffff851660048201529192506000916001600160a01b0390911690639edaf4a79060240160e06040518083038186803b158015610acb57600080fd5b505afa158015610adf573d6000803e3d6000fd5b505050506040513d601f19601f82011682018060405250810190610b039190612f08565b90508060a001516001600160a01b0316636352211e8260c001516040518263ffffffff1660e01b8152600401610b3b91815260200190565b60206040518083038186803b158015610b5357600080fd5b505afa158015610b67573d6000803e3d6000fd5b505050506040513d601f19601f82011682018060405250810190610b8b9190612c97565b600d546040516331a9108f60e11b815263ffffffff861660048201526001600160a01b039283169290911690636352211e9060240160206040518083038186803b158015610bd857600080fd5b505afa158015610bec573d6000803e3d6000fd5b505050506040513d601f19601f82011682018060405250810190610c109190612c97565b6001600160a01b031614610c365760405162461bcd60e51b81526004016105069061358f565b600554604051636ffbdfad60e01b815263ffffffff881660048201526024810187905260ff861660448201526001600160a01b0390911690636ffbdfad906064015b600060405180830381600087803b158015610c9257600080fd5b505af1158015610ca6573d6000803e3d6000fd5b50505050505050505050565b610cdc7f65d7a28e3265b37a6474929f336521b332c1681b933f6cb9f3376673440d862a33610d00565b610cf85760405162461bcd60e51b81526004016105069061351f565b6108f4612974565b60009182526001602090815260408084206001600160a01b0393909316845291905290205460ff1690565b60025460ff1615610d4e5760405162461bcd60e51b815260040161050690613565565b8333600d546040516331a9108f60e11b815263ffffffff841660048201526001600160a01b039283169290911690636352211e9060240160206040518083038186803b158015610d9d57600080fd5b505afa158015610db1573d6000803e3d6000fd5b505050506040513d601f19601f82011682018060405250810190610dd59190612c97565b6001600160a01b031614610dfb5760405162461bcd60e51b8152600401610506906134c9565b6000610e06826128a0565b600754604051639edaf4a760e01b815263ffffffff851660048201529192506000916001600160a01b0390911690639edaf4a79060240160e06040518083038186803b158015610e5557600080fd5b505afa158015610e69573d6000803e3d6000fd5b505050506040513d601f19601f82011682018060405250810190610e8d9190612f08565b90508060a001516001600160a01b0316636352211e8260c001516040518263ffffffff1660e01b8152600401610ec591815260200190565b60206040518083038186803b158015610edd57600080fd5b505afa158015610ef1573d6000803e3d6000fd5b505050506040513d601f19601f82011682018060405250810190610f159190612c97565b600d546040516331a9108f60e11b815263ffffffff861660048201526001600160a01b039283169290911690636352211e9060240160206040518083038186803b158015610f6257600080fd5b505afa158015610f76573d6000803e3d6000fd5b505050506040513d601f19601f82011682018060405250810190610f9a9190612c97565b6001600160a01b031614610fc05760405162461bcd60e51b81526004016105069061358f565b60075460405163a85759d560e01b815263ffffffff8916600482015261ffff88166024820152604481018790526001600160a01b0386811660648301529091169063a85759d590608401600060405180830381600087803b15801561102457600080fd5b505af1158015611038573d6000803e3d6000fd5b5050505050505050505050565b60025460ff16156110685760405162461bcd60e51b815260040161050690613565565b8233600d546040516331a9108f60e11b815263ffffffff841660048201526001600160a01b039283169290911690636352211e9060240160206040518083038186803b1580156110b757600080fd5b505afa1580156110cb573d6000803e3d6000fd5b505050506040513d601f19601f820116820180604052508101906110ef9190612c97565b6001600160a01b0316146111155760405162461bcd60e51b8152600401610506906134c9565b6000611120826128a0565b600754604051639edaf4a760e01b815263ffffffff851660048201529192506000916001600160a01b0390911690639edaf4a79060240160e06040518083038186803b15801561116f57600080fd5b505afa158015611183573d6000803e3d6000fd5b505050506040513d601f19601f820116820180604052508101906111a79190612f08565b90508060a001516001600160a01b0316636352211e8260c001516040518263ffffffff1660e01b81526004016111df91815260200190565b60206040518083038186803b1580156111f757600080fd5b505afa15801561120b573d6000803e3d6000fd5b505050506040513d601f19601f8201168201806040525081019061122f9190612c97565b600d546040516331a9108f60e11b815263ffffffff861660048201526001600160a01b039283169290911690636352211e9060240160206040518083038186803b15801561127c57600080fd5b505afa158015611290573d6000803e3d6000fd5b505050506040513d601f19601f820116820180604052508101906112b49190612c97565b6001600160a01b0316146112da5760405162461bcd60e51b81526004016105069061358f565b60075460405163c359e42360e01b815263ffffffff8816600482015260248101879052604481018690526001600160a01b039091169063c359e42390606401610c78565b60025460ff16156113415760405162461bcd60e51b815260040161050690613565565b8533600d546040516331a9108f60e11b815263ffffffff841660048201526001600160a01b039283169290911690636352211e9060240160206040518083038186803b15801561139057600080fd5b505afa1580156113a4573d6000803e3d6000fd5b505050506040513d601f19601f820116820180604052508101906113c89190612c97565b6001600160a01b0316146113ee5760405162461bcd60e51b8152600401610506906134c9565b60006113f9826128a0565b600754604051639edaf4a760e01b815263ffffffff851660048201529192506000916001600160a01b0390911690639edaf4a79060240160e06040518083038186803b15801561144857600080fd5b505afa15801561145c573d6000803e3d6000fd5b505050506040513d601f19601f820116820180604052508101906114809190612f08565b90508060a001516001600160a01b0316636352211e8260c001516040518263ffffffff1660e01b81526004016114b891815260200190565b60206040518083038186803b1580156114d057600080fd5b505afa1580156114e4573d6000803e3d6000fd5b505050506040513d601f19601f820116820180604052508101906115089190612c97565b600d546040516331a9108f60e11b815263ffffffff861660048201526001600160a01b039283169290911690636352211e9060240160206040518083038186803b15801561155557600080fd5b505afa158015611569573d6000803e3d6000fd5b505050506040513d601f19601f8201168201806040525081019061158d9190612c97565b6001600160a01b0316146115b35760405162461bcd60e51b81526004016105069061358f565b60075460405163c3fa29bb60e01b815263ffffffff808c16600483015260ff808c1660248401528a16604483015261ffff891660648301528088166084830152861660a48201526001600160a01b039091169063c3fa29bb9060c401600060405180830381600087803b15801561162957600080fd5b505af115801561163d573d6000803e3d6000fd5b50505050505050505050505050565b60025460ff161561166f5760405162461bcd60e51b815260040161050690613565565b8233600d546040516331a9108f60e11b815263ffffffff841660048201526001600160a01b039283169290911690636352211e9060240160206040518083038186803b1580156116be57600080fd5b505afa1580156116d2573d6000803e3d6000fd5b505050506040513d601f19601f820116820180604052508101906116f69190612c97565b6001600160a01b03161461171c5760405162461bcd60e51b8152600401610506906134c9565b6000611727826128a0565b600754604051639edaf4a760e01b815263ffffffff851660048201529192506000916001600160a01b0390911690639edaf4a79060240160e06040518083038186803b15801561177657600080fd5b505afa15801561178a573d6000803e3d6000fd5b505050506040513d601f19601f820116820180604052508101906117ae9190612f08565b90508060a001516001600160a01b0316636352211e8260c001516040518263ffffffff1660e01b81526004016117e691815260200190565b60206040518083038186803b1580156117fe57600080fd5b505afa158015611812573d6000803e3d6000fd5b505050506040513d601f19601f820116820180604052508101906118369190612c97565b600d546040516331a9108f60e11b815263ffffffff861660048201526001600160a01b039283169290911690636352211e9060240160206040518083038186803b15801561188357600080fd5b505afa158015611897573d6000803e3d6000fd5b505050506040513d601f19601f820116820180604052508101906118bb9190612c97565b6001600160a01b0316146118e15760405162461bcd60e51b81526004016105069061358f565b60075460405163c94c2a9d60e01b815263ffffffff808916600483015287166024820152604481018690526001600160a01b039091169063c94c2a9d90606401610c78565b6000828152600160208190526040909120015461194381336126d7565b61082383836127a6565b6119656000805160206137c783398151915233610d00565b6119815760405162461bcd60e51b81526004016105069061343f565b6001600160a01b0381166119cc5760405162461bcd60e51b81526020600482015260126024820152710423a5353433a2041646472657373203d20360741b6044820152606401610506565b600380546001600160a01b0319166001600160a01b0392909216919091179055565b60025460ff1615611a115760405162461bcd60e51b815260040161050690613565565b8433600d546040516331a9108f60e11b815263ffffffff841660048201526001600160a01b039283169290911690636352211e9060240160206040518083038186803b158015611a6057600080fd5b505afa158015611a74573d6000803e3d6000fd5b505050506040513d601f19601f82011682018060405250810190611a989190612c97565b6001600160a01b031614611abe5760405162461bcd60e51b8152600401610506906134c9565b6000611ac9826128a0565b600754604051639edaf4a760e01b815263ffffffff851660048201529192506000916001600160a01b0390911690639edaf4a79060240160e06040518083038186803b158015611b1857600080fd5b505afa158015611b2c573d6000803e3d6000fd5b505050506040513d601f19601f82011682018060405250810190611b509190612f08565b90508060a001516001600160a01b0316636352211e8260c001516040518263ffffffff1660e01b8152600401611b8891815260200190565b60206040518083038186803b158015611ba057600080fd5b505afa158015611bb4573d6000803e3d6000fd5b505050506040513d601f19601f82011682018060405250810190611bd89190612c97565b600d546040516331a9108f60e11b815263ffffffff861660048201526001600160a01b039283169290911690636352211e9060240160206040518083038186803b158015611c2557600080fd5b505afa158015611c39573d6000803e3d6000fd5b505050506040513d601f19601f82011682018060405250810190611c5d9190612c97565b6001600160a01b031614611c835760405162461bcd60e51b81526004016105069061358f565b60075460405163384d876960e21b815263ffffffff8a16600482015260ff808a16602483015280891660448301526001600160a01b03888116606484015290871660848301529091169063e1361da49060a401600060405180830381600087803b158015611cf057600080fd5b505af1158015611d04573d6000803e3d6000fd5b505050505050505050505050565b611d3c7f7f1e4e9f3d9ba0452a25cfef4cd4c6ffc86158d06ed2f585fa0093e12dec429c33610d00565b611d585760405162461bcd60e51b815260040161050690613486565b60026000541415611d7b5760405162461bcd60e51b815260040161050690613603565b60026000556040516323b872dd60e01b81523060048201526001600160a01b038381166024830152604482018390528416906323b872dd90606401602060405180830381600087803b158015611dd057600080fd5b505af1158015611de4573d6000803e3d6000fd5b505050506040513d601f19601f82011682018060405250810190611e089190612d68565b505060016000555050565b611e3d7f7f1e4e9f3d9ba0452a25cfef4cd4c6ffc86158d06ed2f585fa0093e12dec429c33610d00565b611e595760405162461bcd60e51b815260040161050690613486565b60026000541415611e7c5760405162461bcd60e51b815260040161050690613603565b6002600055604051632142170760e11b81523060048201526001600160a01b038381166024830152604482018390528416906342842e0e90606401600060405180830381600087803b158015611ed157600080fd5b505af1158015611ee5573d6000803e3d6000fd5b505060016000555050505050565b60026000541415611f165760405162461bcd60e51b815260040161050690613603565b6002600055611f336000805160206137c783398151915233610d00565b611f4f5760405162461bcd60e51b81526004016105069061343f565b6003546040516363b8d4c160e11b81526020600482015260086024820152672727a222afaa25a760c11b60448201526001600160a01b039091169063c771a9829060640160206040518083038186803b158015611fab57600080fd5b505afa158015611fbf573d6000803e3d6000fd5b505050506040513d601f19601f82011682018060405250810190611fe39190612c97565b600c80546001600160a01b039283166001600160a01b03199182168117909255600d805490911690911790556003546040516363b8d4c160e11b81526020600482015260086024820152672727a222afa6a3a960c11b604482015291169063c771a9829060640160206040518083038186803b15801561206257600080fd5b505afa158015612076573d6000803e3d6000fd5b505050506040513d601f19601f8201168201806040525081019061209a9190612c97565b600480546001600160a01b039283166001600160a01b031991821681178355600580549092161790556003546040516363b8d4c160e11b815292169163c771a9829161210491016020808252600990820152682727a222afa9aa27a960b91b604082015260600190565b60206040518083038186803b15801561211c57600080fd5b505afa158015612130573d6000803e3d6000fd5b505050506040513d601f19601f820116820180604052508101906121549190612c97565b600680546001600160a01b039283166001600160a01b031991821681179092556007805490911690911790556003546040516363b8d4c160e11b81526020600482015260086024820152672aaa24a62faa25a760c11b604482015291169063c771a9829060640160206040518083038186803b1580156121d357600080fd5b505afa1580156121e7573d6000803e3d6000fd5b505050506040513d601f19601f8201168201806040525081019061220b9190612c97565b600880546001600160a01b039283166001600160a01b031991821681179092556009805490911690911790556003546040516363b8d4c160e11b815260206004820152600560248201526420afaa25a760d91b604482015291169063c771a9829060640160206040518083038186803b15801561228757600080fd5b505afa15801561229b573d6000803e3d6000fd5b505050506040513d601f19601f820116820180604052508101906122bf9190612c97565b600a80546001600160a01b039283166001600160a01b03199182168117909255600b805490911690911790556003546040516363b8d4c160e11b815260206004820152600760248201526622a1a92fa6a3a960c91b604482015291169063c771a9829060640160206040518083038186803b15801561233d57600080fd5b505afa158015612351573d6000803e3d6000fd5b505050506040513d601f19601f820116820180604052508101906123759190612c97565b600e80546001600160a01b039283166001600160a01b03199182168117909255600f805490911690911790556003546040516363b8d4c160e11b815291169063c771a982906123de9060040160208082526003908201526204150560ec1b604082015260600190565b60206040518083038186803b1580156123f657600080fd5b505afa15801561240a573d6000803e3d6000fd5b505050506040513d601f19601f8201168201806040525081019061242e9190612c97565b601280546001600160a01b039283166001600160a01b031991821681179092556013805490911690911790556003546040516363b8d4c160e11b815291169063c771a98290612498906004016020808252600490820152632921a62960e11b604082015260600190565b60206040518083038186803b1580156124b057600080fd5b505afa1580156124c4573d6000803e3d6000fd5b505050506040513d601f19601f820116820180604052508101906124e89190612c97565b601080546001600160a01b039283166001600160a01b031991821681179092556011805490911690911790556003546040516363b8d4c160e11b81526020600482015260066024820152654150505f4e4360d01b604482015291169063c771a9829060640160206040518083038186803b15801561256557600080fd5b505afa158015612579573d6000803e3d6000fd5b505050506040513d601f19601f8201168201806040525081019061259d9190612c97565b601480546001600160a01b0319166001600160a01b03929092169190911790556001600055565b60405160009081906125dc908590859060200161333a565b604051602081830303815290604052516000146126d0578083604051602001612605919061331e565b60405160208183030381529060405280519060200120604051602001612635929190918252602082015260400190565b6040516020818303038152906040528051906020012090508360405160200161265e919061331e565b604051602081830303815290604052516000146126d0578084604051602001612687919061331e565b604051602081830303815290604052805190602001206040516020016126b7929190918252602082015260400190565b6040516020818303038152906040528051906020012090505b9392505050565b6126e18282610d00565b6108a2576126f9816001600160a01b031660146129cc565b6127048360206129cc565b604051602001612715929190613369565b60408051601f198184030181529082905262461bcd60e51b8252610506916004016133de565b6127458282610d00565b6108a25760008281526001602081815260408084206001600160a01b0386168086529252808420805460ff19169093179092559051339285917f2f8788117e7eff1d82e926ec794901d17c78024a50270940304540a733656f0d9190a45050565b6127b08282610d00565b156108a25760008281526001602090815260408083206001600160a01b0385168085529252808320805460ff1916905551339285917ff6391f5c32d9c69d2a47ea670b442974b53935d1edc7fd64eb21e047a839171b9190a45050565b60025460ff166128565760405162461bcd60e51b815260206004820152601460248201527314185d5cd8589b194e881b9bdd081c185d5cd95960621b6044820152606401610506565b6002805460ff191690557f5db9ee0a495bf2e6ff9c91a7834c1ba4fdd244a5e8aa4e537bd38aeae4b073aa335b6040516001600160a01b03909116815260200160405180910390a1565b604080516101408101825260008082526020820181905281830181905260608083018290526080830182905260a0830182905260c0830182905260e08301829052610100830191909152610120820152600754915163f45c157d60e01b815263ffffffff8416600482015290916001600160a01b03169063f45c157d9060240160006040518083038186803b15801561293857600080fd5b505afa15801561294c573d6000803e3d6000fd5b505050506040513d6000823e601f3d908101601f191682016040526104db9190810190612fbc565b60025460ff16156129975760405162461bcd60e51b815260040161050690613565565b6002805460ff191660011790557f62e78cea01bee320cd4e420270b5ea74000d11b0c9f74754ebdbfc544b05a2586128833390565b606060006129db8360026136d5565b6129e69060026136bd565b67ffffffffffffffff8111156129fe576129fe613767565b6040519080825280601f01601f191660200182016040528015612a28576020820181803683370190505b509050600360fc1b81600081518110612a4357612a43613751565b60200101906001600160f81b031916908160001a905350600f60fb1b81600181518110612a7257612a72613751565b60200101906001600160f81b031916908160001a9053506000612a968460026136d5565b612aa19060016136bd565b90505b6001811115612b19576f181899199a1a9b1b9c1cb0b131b232b360811b85600f1660108110612ad557612ad5613751565b1a60f81b828281518110612aeb57612aeb613751565b60200101906001600160f81b031916908160001a90535060049490941c93612b1281613724565b9050612aa4565b5083156126d05760405162461bcd60e51b815260206004820181905260248201527f537472696e67733a20686578206c656e67746820696e73756666696369656e746044820152606401610506565b8051612b738161377d565b919050565b60008083601f840112612b8a57600080fd5b50813567ffffffffffffffff811115612ba257600080fd5b602083019150836020828501011115612bba57600080fd5b9250929050565b600082601f830112612bd257600080fd5b8135612be5612be082613695565b613664565b818152846020838601011115612bfa57600080fd5b816020850160208301376000918101602001919091529392505050565b600082601f830112612c2857600080fd5b8151612c36612be082613695565b818152846020838601011115612c4b57600080fd5b612c5c8260208301602087016136f4565b949350505050565b8051612b73816137a5565b8051612b73816137b7565b600060208284031215612c8c57600080fd5b81356126d08161377d565b600060208284031215612ca957600080fd5b81516126d08161377d565b600080600060608486031215612cc957600080fd5b8335612cd48161377d565b92506020840135612ce48161377d565b929592945050506040919091013590565b600080600080600060808688031215612d0d57600080fd5b8535612d188161377d565b94506020860135612d288161377d565b935060408601359250606086013567ffffffffffffffff811115612d4b57600080fd5b612d5788828901612b78565b969995985093965092949392505050565b600060208284031215612d7a57600080fd5b815180151581146126d057600080fd5b600060208284031215612d9c57600080fd5b5035919050565b60008060408385031215612db657600080fd5b823591506020830135612dc88161377d565b809150509250929050565b600060208284031215612de557600080fd5b81356001600160e01b0319811681146126d057600080fd5b60008060008060008060008060c0898b031215612e1957600080fd5b883567ffffffffffffffff80821115612e3157600080fd5b612e3d8c838d01612b78565b909a50985060208b0135915080821115612e5657600080fd5b50612e638b828c01612b78565b9097509550506040890135612e77816137a5565b93506060890135612e87816137b7565b979a969950949793969295929450505060808201359160a0013590565b60008060408385031215612eb757600080fd5b823567ffffffffffffffff80821115612ecf57600080fd5b612edb86838701612bc1565b93506020850135915080821115612ef157600080fd5b50612efe85828601612bc1565b9150509250929050565b600060e08284031215612f1a57600080fd5b60405160e0810181811067ffffffffffffffff82111715612f3d57612f3d613767565b6040528251612f4b816137b7565b81526020830151612f5b816137b7565b60208201526040830151612f6e81613795565b60408201526060830151612f81816137a5565b6060820152612f9260808401612c64565b6080820152612fa360a08401612b68565b60a082015260c083015160c08201528091505092915050565b600060208284031215612fce57600080fd5b815167ffffffffffffffff80821115612fe657600080fd5b908301906101408286031215612ffb57600080fd5b61300361363a565b61300c83612c6f565b815261301a60208401612c6f565b602082015261302b60408401612c6f565b604082015261303c60608401612c6f565b606082015261304d60808401612c64565b608082015261305e60a08401612c64565b60a082015261306f60c08401612b68565b60c082015260e083015160e0820152610100808401518183015250610120808401518381111561309e57600080fd5b6130aa88828701612c17565b918301919091525095945050505050565b6000602082840312156130cd57600080fd5b81516126d0816137a5565b6000806000606084860312156130ed57600080fd5b83356130f8816137a5565b95602085013595506040909401359392505050565b60008060006060848603121561312257600080fd5b833561312d816137a5565b9250602084013591506040840135613144816137b7565b809150509250925092565b6000806000806080858703121561316557600080fd5b8435613170816137a5565b9350602085013561318081613795565b92506040850135915060608501356131978161377d565b939692955090935050565b6000806000606084860312156131b757600080fd5b83356131c2816137a5565b92506020840135612ce4816137a5565b600080600080600060a086880312156131ea57600080fd5b85356131f5816137a5565b94506020860135613205816137b7565b93506040860135613215816137b7565b925060608601356132258161377d565b91506080860135613235816137b7565b809150509295509295909350565b60008060008060008060c0878903121561325c57600080fd5b8635613267816137a5565b95506020870135613277816137b7565b94506040870135613287816137b7565b9350606087013561329781613795565b925060808701356132a7816137a5565b915060a08701356132b7816137a5565b809150509295509295509295565b600081518084526132dd8160208601602086016136f4565b601f01601f19169290920160200192915050565b83858237601760f91b81850190815260009083856001830137600093016001019283525090949350505050565b600082516133308184602087016136f4565b9190910192915050565b6000835161334c8184602088016136f4565b8351908301906133608183602088016136f4565b01949350505050565b7f416363657373436f6e74726f6c3a206163636f756e74200000000000000000008152600083516133a18160178501602088016136f4565b7001034b99036b4b9b9b4b733903937b6329607d1b60179184019182015283516133d28160288401602088016136f4565b01602801949350505050565b6020815260006126d060208301846132c5565b60c08152600061340460c08301896132c5565b63ffffffff9790971660208301525060ff949094166040850152606084019290925260808301526001600160a01b031660a090910152919050565b60208082526027908201527f423a4d4f443a2d4941444d2043616c6c65722021434f4e54524143545f41444d604082015266494e5f524f4c4560c81b606082015260800190565b60208082526023908201527f423a4d4f443a2d4941444d2043616c6c6572202141535345545f545846525f526040820152624f4c4560e81b606082015260800190565b60208082526036908201527f4e4d3a4d4f442d494e4841484952543a205f6d736753656e646572282920646f60408201527532b9903737ba103437b632103737b232903a37b5b2b760511b606082015260800190565b60208082526026908201527f423a4d4f442d49503a43616c6c696e672061646472657373206973206e6f74206040820152653830bab9b2b960d11b606082015260800190565b60208082526010908201526f14185d5cd8589b194e881c185d5cd95960821b604082015260600190565b6020808252604e908201527f4e4d3a4d4f442d494e4841484952543a204e6f646520616e6420726f6f74206f60408201527f66206964656e7469747920617265207365706172617465642e2046756e63746960608201526d1bdb881a5cc8191a5cd8589b195960921b608082015260a00190565b6020808252601f908201527f5265656e7472616e637947756172643a207265656e7472616e742063616c6c00604082015260600190565b604051610140810167ffffffffffffffff8111828210171561365e5761365e613767565b60405290565b604051601f8201601f1916810167ffffffffffffffff8111828210171561368d5761368d613767565b604052919050565b600067ffffffffffffffff8211156136af576136af613767565b50601f01601f191660200190565b600082198211156136d0576136d061373b565b500190565b60008160001904831182151516156136ef576136ef61373b565b500290565b60005b8381101561370f5781810151838201526020016136f7565b8381111561371e576000848401525b50505050565b6000816137335761373361373b565b506000190190565b634e487b7160e01b600052601160045260246000fd5b634e487b7160e01b600052603260045260246000fd5b634e487b7160e01b600052604160045260246000fd5b6001600160a01b038116811461379257600080fd5b50565b61ffff8116811461379257600080fd5b63ffffffff8116811461379257600080fd5b60ff8116811461379257600080fdfe2ce8d04a9c35987429af538825cd2438cc5c5bb5dc427955f84daaa3ea105016a264697066735822122046a1554bbce0c03fb5ea28b4a01e3b408dfc186baa19fb23f06e4aa92407d7c364736f6c63430008070033",
  "immutableReferences": {},
  "source": "/*--------------------------------------------------------PRF0.9.0\n__/\\\\\\\\\\\\\\\\\\\\\\\\\\ _____/\\\\\\\\\\\\\\\\\\ _______/\\\\__/\\\\ ___/\\\\\\\\\\\\\\\\\\\\\\\\\\\\\\        \n__\\/\\\\\\/////////\\\\\\ _/\\\\\\///////\\\\\\ ____\\//__\\//____\\/\\\\\\///////////__       \n___\\/\\\\\\_______\\/\\\\\\_\\/\\\\\\_____\\/\\\\\\ ________________\\/\\\\\\ ____________      \n____\\/\\\\\\\\\\\\\\\\\\\\\\\\\\/__\\/\\\\\\\\\\\\\\\\\\\\\\/_____/\\\\\\____/\\\\\\_\\/\\\\\\\\\\\\\\\\\\\\\\ ____     \n_____\\/\\\\\\/////////____\\/\\\\\\//////\\\\\\ ___\\/\\\\\\___\\/\\\\\\_\\/\\\\\\///////______\n______\\/\\\\\\ ____________\\/\\\\\\ ___\\//\\\\\\ __\\/\\\\\\___\\/\\\\\\_\\/\\\\\\ ____________\n_______\\/\\\\\\ ____________\\/\\\\\\ ____\\//\\\\\\ _\\/\\\\\\___\\/\\\\\\_\\/\\\\\\ ____________\n________\\/\\\\\\ ____________\\/\\\\\\ _____\\//\\\\\\_\\//\\\\\\\\\\\\\\\\\\ _\\/\\\\\\ ____________\n_________\\/// _____________\\/// _______\\/// __\\///////// __\\/// _____________\n*---------------------------------------------------------------------------*/\n\n/**-----------------------------------------------------------------\n * PRUF UD_NODES\n * Identity provider for minting new nodes using posession of corresponding 721 token for verification.\n *\n * !!!! CONTRACT MUST BE GIVEN ID_PROVIDER_ROLE IN NODE_MGR !!!!\n *\n *\n * STATEMENT OF TERMS OF SERVICE (TOS):\n * User agrees not to intentionally claim any namespace that is a recognized or registered brand name, trade mark,\n * or other Intellectual property not belonging to the user, and agrees to voluntarily remove any name or brand found to be\n * infringing from any record that the user controls, within 30 days of notification. If notification is not possible or\n * there is no response to notification, the user agrees that the name record may be changed without their permission or cooperation.\n * Use of this software constitutes consent to the terms above.\n -----------------------------------------------------------------*/\n\n// SPDX-License-Identifier: UNLICENSED\npragma solidity 0.8.7;\n\nimport \"../Resources/PRUF_BASIC.sol\";\nimport \"../Imports/security/ReentrancyGuard.sol\";\n\ncontract UD_721 is BASIC {\n    bytes32 public constant NODE_MINTER_ROLE = keccak256(\"NODE_MINTER_ROLE\");\n    bytes32 private constant B320X =\n        0x0000000000000000000000000000000000000000000000000000000000000000;\n\n    constructor() {\n        _setupRole(NODE_MINTER_ROLE, _msgSender());\n    }\n\n    //address internal TOKEN_Address;\n    IERC721 internal UD_TOKEN_CONTRACT;\n    address public UD_token_address;\n\n    //--------------------------------------------Modifiers--------------------------\n\n    /**\n     * @dev Verify caller holds Nodetoken of passed node and holds verifying token if applicable (bit6=1)\n     * @param _node - node for which caller is queried for ownership\n     */\n    modifier isNodeHolderAndHasIdRootToken(uint32 _node) {\n        require(\n            (NODE_TKN.ownerOf(_node) == _msgSender()),\n            \"NM:MOD-INHAHIRT: _msgSender() does not hold node token\"\n        );\n        Node memory nodeInfo = getNodeinfo(_node);\n        ExtendedNodeData memory extendedNodeInfo = NODE_STOR\n            .getExtendedNodeData(_node);\n\n        require(\n            (NODE_TKN.ownerOf(_node) ==\n                IERC721(extendedNodeInfo.idProviderAddr).ownerOf(\n                    extendedNodeInfo.idProviderTokenId\n                )), // if switch6 = 1 verify that IDroot token and Node token are held in the same address\n            \"NM:MOD-INHAHIRT: Node and root of identity are separated. Function is disabled\"\n        );\n        _;\n    }\n\n    //--------------------------------------------External Functions--------------------------\n\n    /**\n     * @dev Set address of STOR contract to interface with\n     * @param _erc721Address address of token contract to interface with\n     */\n    function setUnstoppableDomainsTokenContract(address _erc721Address)\n        external\n        virtual\n        isContractAdmin\n    {\n        require(_erc721Address != address(0), \"B:SSC: Address = 0\");\n        //^^^^^^^checks^^^^^^^^^\n        UD_token_address = _erc721Address;\n        UD_TOKEN_CONTRACT = IERC721(_erc721Address);\n        //^^^^^^^effects^^^^^^^^^\n    }\n\n    /**\n     * @dev Burns (amount) tokens and mints a new Node token to the calling address\n     * @param _domain - chosen domain of node\n     * @param _tld - chosen tld of node\n     * @param _nodeRoot - chosen root of node\n     * @param _custodyType - chosen custodyType of node (see docs)\n     * @param _CAS1 - any external data attatched to node 1/2\n     * @param _CAS2 - any external data attatched to node 2/2\n     */\n    function purchaseNode(\n        string calldata _domain,\n        string calldata _tld,\n        uint32 _nodeRoot,\n        uint8 _custodyType,\n        bytes32 _CAS1,\n        bytes32 _CAS2\n    ) external nonReentrant whenNotPaused returns (uint256) {\n        uint256 tokenId = getTokenIdFromDomain(_domain, _tld);\n\n        require( //throws if caller does not hod the appropriate UD token\n            UD_TOKEN_CONTRACT.ownerOf(tokenId) == _msgSender(),\n            \"UDNB:PN:Supplied node name does not match tokenID held by caller\"\n        );\n        //^^^^^^^checks^^^^^^^^^\n\n        string memory nodeName = string(abi.encodePacked(_domain, \".\", _tld));\n\n        uint32 mintedNode = NODE_MGR.purchaseNode( \n            nodeName,\n            _nodeRoot,\n            _custodyType,\n            _CAS1,\n            _CAS2,\n            _msgSender()\n        );\n\n        // write UD contract, tokenId of UD domain token to node extended data\n        NODE_MGR.setExternalIdToken(\n            mintedNode, \n            UD_token_address,\n            tokenId\n        );\n\n        return mintedNode;\n        //^^^^^^^interactions^^^^^^^^^\n    }\n\n    /**\n     * @dev Authorize / Deauthorize users for an address be permitted to make record modifications\n     * @dev only useful for custody types that designate user adresses (type1...)\n     * @param _node - node that user is being authorized in\n     * @param _addrHash - hash of address belonging to user being authorized\n     * @param _userType - authority level for user (see docs)\n     */\n    function addUser(\n        uint32 _node,\n        bytes32 _addrHash,\n        uint8 _userType\n    ) external whenNotPaused isNodeHolderAndHasIdRootToken(_node) {\n        //^^^^^^^checks^^^^^^^^^\n\n        NODE_MGR.addUser(_node, _addrHash, _userType);\n        //^^^^^^^interactions^^^^^^^^^\n    }\n\n    /**\n     * @dev Set import status for foreign nodes\n     * @param _thisNode - node to dis/allow importing into\n     * @param _otherNode - node to be imported\n     * @param _newStatus - importability status (0=not importable, 1=importable >1 =????)\n     */\n    function updateImportStatus(\n        uint32 _thisNode,\n        uint32 _otherNode,\n        uint256 _newStatus\n    ) external whenNotPaused isNodeHolderAndHasIdRootToken(_thisNode) {\n        NODE_STOR.updateImportStatus(_thisNode, _otherNode, _newStatus);\n    }\n\n    /**\n     * @dev Modifies an node Node content adressable storage data pointer\n     * @param _node - node being modified\n     * @param _CAS1 - any external data attatched to node 1/2\n     * @param _CAS2 - any external data attatched to node 2/2\n     */\n    function updateNodeCAS(\n        uint32 _node,\n        bytes32 _CAS1,\n        bytes32 _CAS2\n    ) external whenNotPaused isNodeHolderAndHasIdRootToken(_node) {\n        //^^^^^^^checks^^^^^^^^^\n\n        NODE_STOR.updateNodeCAS(_node, _CAS1, _CAS2);\n        //^^^^^^^interactions^^^^^^^^^\n    }\n\n    /**\n     * @dev Set function costs and payment address per Node, in PRUF(18 decimals)\n     * @param _node - node to set service costs\n     * @param _service - service type being modified (see service types in ZZ_PRUF_DOCS)\n     * @param _serviceCost - 18 decimal fee in PRUF associated with specified service\n     * @param _paymentAddress - address to have _serviceCost paid to\n     */\n    function setOperationCosts(\n        uint32 _node,\n        uint16 _service,\n        uint256 _serviceCost,\n        address _paymentAddress\n    ) external whenNotPaused isNodeHolderAndHasIdRootToken(_node) {\n        //^^^^^^^checks^^^^^^^^^\n\n        NODE_STOR.setOperationCosts(\n            _node,\n            _service,\n            _serviceCost,\n            _paymentAddress\n        );\n        //^^^^^^^effects^^^^^^^^^\n    }\n\n    /**\n     * @dev Configure the immutable data in an Node one time\n     * @param _node - node being modified\n     * @param _managementType - managementType of node (see docs)\n     * @param _storageProvider - storageProvider of node (see docs)\n     * @param _refAddress - address permanently tied to node\n     */\n    function setNonMutableData(\n        uint32 _node,\n        uint8 _managementType,\n        uint8 _storageProvider,\n        address _refAddress,\n        uint8 _switches\n    ) external whenNotPaused isNodeHolderAndHasIdRootToken(_node) {\n        NODE_STOR.setNonMutableData(\n            _node,\n            _managementType,\n            _storageProvider,\n            _refAddress,\n            _switches\n        );\n    }\n\n    /**\n     * @dev extended node data setter\n     * @param _node - node being configured\n     * @param _u8a ExtendedNodeData\n     * @param _u8b ExtendedNodeData\n     * @param _u16c ExtendedNodeData\n     * @param _u32d ExtendedNodeData\n     * @param _u32e ExtendedNodeData\n     */\n    function setExtendedNodeData(\n        uint32 _node,\n        uint8 _u8a,\n        uint8 _u8b,\n        uint16 _u16c,\n        uint32 _u32d,\n        uint32 _u32e\n    ) external whenNotPaused isNodeHolderAndHasIdRootToken(_node) {\n        NODE_STOR.setExtendedNodeData(_node, _u8a, _u8b, _u16c, _u32d, _u32e);\n    }\n\n    function getTokenIdFromDomain(string memory _domain, string memory _tld)\n        public\n        pure\n        returns (uint256)\n    {\n        bytes32 namehash = 0;\n        if (bytes(abi.encodePacked(_domain, _tld)).length != 0) {\n            namehash = keccak256(\n                abi.encodePacked(namehash, keccak256(abi.encodePacked(_tld)))\n            );\n\n            if (bytes(abi.encodePacked(_domain)).length != 0) {\n                namehash = keccak256(\n                    abi.encodePacked(\n                        namehash,\n                        keccak256(abi.encodePacked(_domain))\n                    )\n                );\n            }\n        }\n        return uint256(namehash);\n    }\n}\n",
  "sourcePath": "/Users/drake/Documents/DEV/PRUF/PRUF_TRUFFLE/contracts/Test/PRUF_NODE_BLDR.sol",
  "compiler": {
    "name": "solc",
    "version": "0.8.7+commit.e28d00a7.Emscripten.clang"
  },
  "schemaVersion": "3.4.3",
  "updatedAt": "2022-04-27T15:21:40.390Z",
  "devdoc": {
    "kind": "dev",
    "methods": {
      "ERC20Transfer(address,address,uint256)": {
        "details": "send an ERC20 token from this contract",
        "params": {
          "_amount": "amount to transfer",
          "_to": "destination",
          "_tokenContract": "Address of foreign token contract"
        }
      },
      "ERC721Transfer(address,address,uint256)": {
        "details": "send an ERC721 token from this contract",
        "params": {
          "_to": "destination",
          "_tokenContract": "Address of foreign token contract",
          "_tokenID": "Token ID"
        }
      },
      "addUser(uint32,bytes32,uint8)": {
        "details": "Authorize / Deauthorize users for an address be permitted to make record modificationsonly useful for custody types that designate user adresses (type1...)",
        "params": {
          "_addrHash": "- hash of address belonging to user being authorized",
          "_node": "- node that user is being authorized in",
          "_userType": "- authority level for user (see docs)"
        }
      },
      "getRoleAdmin(bytes32)": {
        "details": "Returns the admin role that controls `role`. See {grantRole} and {revokeRole}. To change a role's admin, use {_setRoleAdmin}."
      },
      "grantRole(bytes32,address)": {
        "details": "Grants `role` to `account`. If `account` had not been already granted `role`, emits a {RoleGranted} event. Requirements: - the caller must have ``role``'s admin role."
      },
      "hasRole(bytes32,address)": {
        "details": "Returns `true` if `account` has been granted `role`."
      },
      "onERC721Received(address,address,uint256,bytes)": {
        "details": "Compliance for erc721 reciever See OZ documentation"
      },
      "paused()": {
        "details": "Returns true if the contract is paused, and false otherwise."
      },
      "purchaseNode(string,string,uint32,uint8,bytes32,bytes32)": {
        "details": "Burns (amount) tokens and mints a new Node token to the calling address",
        "params": {
          "_CAS1": "- any external data attatched to node 1/2",
          "_CAS2": "- any external data attatched to node 2/2",
          "_custodyType": "- chosen custodyType of node (see docs)",
          "_domain": "- chosen domain of node",
          "_nodeRoot": "- chosen root of node",
          "_tld": "- chosen tld of node"
        }
      },
      "renounceRole(bytes32,address)": {
        "details": "Revokes `role` from the calling account. Roles are often managed via {grantRole} and {revokeRole}: this function's purpose is to provide a mechanism for accounts to lose their privileges if they are compromised (such as when a trusted device is misplaced). If the calling account had been granted `role`, emits a {RoleRevoked} event. Requirements: - the caller must be `account`."
      },
      "resolveContractAddresses()": {
        "details": "Resolve contract addresses from STOR"
      },
      "revokeRole(bytes32,address)": {
        "details": "Revokes `role` from `account`. If `account` had been granted `role`, emits a {RoleRevoked} event. Requirements: - the caller must have ``role``'s admin role."
      },
      "setExtendedNodeData(uint32,uint8,uint8,uint16,uint32,uint32)": {
        "details": "extended node data setter",
        "params": {
          "_node": "- node being configured",
          "_u16c": "ExtendedNodeData",
          "_u32d": "ExtendedNodeData",
          "_u32e": "ExtendedNodeData",
          "_u8a": "ExtendedNodeData",
          "_u8b": "ExtendedNodeData"
        }
      },
      "setNonMutableData(uint32,uint8,uint8,address,uint8)": {
        "details": "Configure the immutable data in an Node one time",
        "params": {
          "_managementType": "- managementType of node (see docs)",
          "_node": "- node being modified",
          "_refAddress": "- address permanently tied to node",
          "_storageProvider": "- storageProvider of node (see docs)"
        }
      },
      "setOperationCosts(uint32,uint16,uint256,address)": {
        "details": "Set function costs and payment address per Node, in PRUF(18 decimals)",
        "params": {
          "_node": "- node to set service costs",
          "_paymentAddress": "- address to have _serviceCost paid to",
          "_service": "- service type being modified (see service types in ZZ_PRUF_DOCS)",
          "_serviceCost": "- 18 decimal fee in PRUF associated with specified service"
        }
      },
      "setStorageContract(address)": {
        "details": "Set address of STOR contract to interface with",
        "params": {
          "_storageAddress": "address of PRUF_STOR"
        }
      },
      "setUnstoppableDomainsTokenContract(address)": {
        "details": "Set address of STOR contract to interface with",
        "params": {
          "_erc721Address": "address of token contract to interface with"
        }
      },
      "supportsInterface(bytes4)": {
        "details": "See {IERC165-supportsInterface}."
      },
      "updateImportStatus(uint32,uint32,uint256)": {
        "details": "Set import status for foreign nodes",
        "params": {
          "_newStatus": "- importability status (0=not importable, 1=importable >1 =????)",
          "_otherNode": "- node to be imported",
          "_thisNode": "- node to dis/allow importing into"
        }
      },
      "updateNodeCAS(uint32,bytes32,bytes32)": {
        "details": "Modifies an node Node content adressable storage data pointer",
        "params": {
          "_CAS1": "- any external data attatched to node 1/2",
          "_CAS2": "- any external data attatched to node 2/2",
          "_node": "- node being modified"
        }
      }
    },
    "version": 1
  },
  "userdoc": {
    "kind": "user",
    "methods": {},
    "version": 1
  }
}