{
  "contractName": "UTIL_TKN",
  "abi": [
    {
      "inputs": [],
      "stateMutability": "nonpayable",
      "type": "constructor"
    },
    {
      "anonymous": false,
      "inputs": [
        {
          "indexed": true,
          "internalType": "address",
          "name": "owner",
          "type": "address"
        },
        {
          "indexed": true,
          "internalType": "address",
          "name": "spender",
          "type": "address"
        },
        {
          "indexed": false,
          "internalType": "uint256",
          "name": "value",
          "type": "uint256"
        }
      ],
      "name": "Approval",
      "type": "event"
    },
    {
      "anonymous": false,
      "inputs": [
        {
          "indexed": false,
          "internalType": "address",
          "name": "account",
          "type": "address"
        }
      ],
      "name": "Paused",
      "type": "event"
    },
    {
      "anonymous": false,
      "inputs": [
        {
          "indexed": true,
          "internalType": "bytes32",
          "name": "role",
          "type": "bytes32"
        },
        {
          "indexed": true,
          "internalType": "bytes32",
          "name": "previousAdminRole",
          "type": "bytes32"
        },
        {
          "indexed": true,
          "internalType": "bytes32",
          "name": "newAdminRole",
          "type": "bytes32"
        }
      ],
      "name": "RoleAdminChanged",
      "type": "event"
    },
    {
      "anonymous": false,
      "inputs": [
        {
          "indexed": true,
          "internalType": "bytes32",
          "name": "role",
          "type": "bytes32"
        },
        {
          "indexed": true,
          "internalType": "address",
          "name": "account",
          "type": "address"
        },
        {
          "indexed": true,
          "internalType": "address",
          "name": "sender",
          "type": "address"
        }
      ],
      "name": "RoleGranted",
      "type": "event"
    },
    {
      "anonymous": false,
      "inputs": [
        {
          "indexed": true,
          "internalType": "bytes32",
          "name": "role",
          "type": "bytes32"
        },
        {
          "indexed": true,
          "internalType": "address",
          "name": "account",
          "type": "address"
        },
        {
          "indexed": true,
          "internalType": "address",
          "name": "sender",
          "type": "address"
        }
      ],
      "name": "RoleRevoked",
      "type": "event"
    },
    {
      "anonymous": false,
      "inputs": [
        {
          "indexed": false,
          "internalType": "uint256",
          "name": "id",
          "type": "uint256"
        }
      ],
      "name": "Snapshot",
      "type": "event"
    },
    {
      "anonymous": false,
      "inputs": [
        {
          "indexed": true,
          "internalType": "address",
          "name": "from",
          "type": "address"
        },
        {
          "indexed": true,
          "internalType": "address",
          "name": "to",
          "type": "address"
        },
        {
          "indexed": false,
          "internalType": "uint256",
          "name": "value",
          "type": "uint256"
        }
      ],
      "name": "Transfer",
      "type": "event"
    },
    {
      "anonymous": false,
      "inputs": [
        {
          "indexed": false,
          "internalType": "address",
          "name": "account",
          "type": "address"
        }
      ],
      "name": "Unpaused",
      "type": "event"
    },
    {
      "inputs": [],
      "name": "CONTRACT_ADMIN_ROLE",
      "outputs": [
        {
          "internalType": "bytes32",
          "name": "",
          "type": "bytes32"
        }
      ],
      "stateMutability": "view",
      "type": "function"
    },
    {
      "inputs": [],
      "name": "DEFAULT_ADMIN_ROLE",
      "outputs": [
        {
          "internalType": "bytes32",
          "name": "",
          "type": "bytes32"
        }
      ],
      "stateMutability": "view",
      "type": "function"
    },
    {
      "inputs": [],
      "name": "MINTER_ROLE",
      "outputs": [
        {
          "internalType": "bytes32",
          "name": "",
          "type": "bytes32"
        }
      ],
      "stateMutability": "view",
      "type": "function"
    },
    {
      "inputs": [],
      "name": "PAUSER_ROLE",
      "outputs": [
        {
          "internalType": "bytes32",
          "name": "",
          "type": "bytes32"
        }
      ],
      "stateMutability": "view",
      "type": "function"
    },
    {
      "inputs": [],
      "name": "PAYABLE_ROLE",
      "outputs": [
        {
          "internalType": "bytes32",
          "name": "",
          "type": "bytes32"
        }
      ],
      "stateMutability": "view",
      "type": "function"
    },
    {
      "inputs": [],
      "name": "SNAPSHOT_ROLE",
      "outputs": [
        {
          "internalType": "bytes32",
          "name": "",
          "type": "bytes32"
        }
      ],
      "stateMutability": "view",
      "type": "function"
    },
    {
      "inputs": [],
      "name": "TRUSTED_AGENT_ROLE",
      "outputs": [
        {
          "internalType": "bytes32",
          "name": "",
          "type": "bytes32"
        }
      ],
      "stateMutability": "view",
      "type": "function"
    },
    {
      "inputs": [
        {
          "internalType": "address",
          "name": "owner",
          "type": "address"
        },
        {
          "internalType": "address",
          "name": "spender",
          "type": "address"
        }
      ],
      "name": "allowance",
      "outputs": [
        {
          "internalType": "uint256",
          "name": "",
          "type": "uint256"
        }
      ],
      "stateMutability": "view",
      "type": "function"
    },
    {
      "inputs": [
        {
          "internalType": "address",
          "name": "spender",
          "type": "address"
        },
        {
          "internalType": "uint256",
          "name": "amount",
          "type": "uint256"
        }
      ],
      "name": "approve",
      "outputs": [
        {
          "internalType": "bool",
          "name": "",
          "type": "bool"
        }
      ],
      "stateMutability": "nonpayable",
      "type": "function"
    },
    {
      "inputs": [
        {
          "internalType": "address",
          "name": "account",
          "type": "address"
        }
      ],
      "name": "balanceOf",
      "outputs": [
        {
          "internalType": "uint256",
          "name": "",
          "type": "uint256"
        }
      ],
      "stateMutability": "view",
      "type": "function"
    },
    {
      "inputs": [
        {
          "internalType": "address",
          "name": "account",
          "type": "address"
        },
        {
          "internalType": "uint256",
          "name": "snapshotId",
          "type": "uint256"
        }
      ],
      "name": "balanceOfAt",
      "outputs": [
        {
          "internalType": "uint256",
          "name": "",
          "type": "uint256"
        }
      ],
      "stateMutability": "view",
      "type": "function"
    },
    {
      "inputs": [
        {
          "internalType": "uint256",
          "name": "amount",
          "type": "uint256"
        }
      ],
      "name": "burn",
      "outputs": [],
      "stateMutability": "nonpayable",
      "type": "function"
    },
    {
      "inputs": [
        {
          "internalType": "address",
          "name": "account",
          "type": "address"
        },
        {
          "internalType": "uint256",
          "name": "amount",
          "type": "uint256"
        }
      ],
      "name": "burnFrom",
      "outputs": [],
      "stateMutability": "nonpayable",
      "type": "function"
    },
    {
      "inputs": [],
      "name": "decimals",
      "outputs": [
        {
          "internalType": "uint8",
          "name": "",
          "type": "uint8"
        }
      ],
      "stateMutability": "view",
      "type": "function"
    },
    {
      "inputs": [
        {
          "internalType": "address",
          "name": "spender",
          "type": "address"
        },
        {
          "internalType": "uint256",
          "name": "subtractedValue",
          "type": "uint256"
        }
      ],
      "name": "decreaseAllowance",
      "outputs": [
        {
          "internalType": "bool",
          "name": "",
          "type": "bool"
        }
      ],
      "stateMutability": "nonpayable",
      "type": "function"
    },
    {
      "inputs": [
        {
          "internalType": "bytes32",
          "name": "role",
          "type": "bytes32"
        }
      ],
      "name": "getRoleAdmin",
      "outputs": [
        {
          "internalType": "bytes32",
          "name": "",
          "type": "bytes32"
        }
      ],
      "stateMutability": "view",
      "type": "function"
    },
    {
      "inputs": [
        {
          "internalType": "bytes32",
          "name": "role",
          "type": "bytes32"
        },
        {
          "internalType": "uint256",
          "name": "index",
          "type": "uint256"
        }
      ],
      "name": "getRoleMember",
      "outputs": [
        {
          "internalType": "address",
          "name": "",
          "type": "address"
        }
      ],
      "stateMutability": "view",
      "type": "function"
    },
    {
      "inputs": [
        {
          "internalType": "bytes32",
          "name": "role",
          "type": "bytes32"
        }
      ],
      "name": "getRoleMemberCount",
      "outputs": [
        {
          "internalType": "uint256",
          "name": "",
          "type": "uint256"
        }
      ],
      "stateMutability": "view",
      "type": "function"
    },
    {
      "inputs": [
        {
          "internalType": "bytes32",
          "name": "role",
          "type": "bytes32"
        },
        {
          "internalType": "address",
          "name": "account",
          "type": "address"
        }
      ],
      "name": "grantRole",
      "outputs": [],
      "stateMutability": "nonpayable",
      "type": "function"
    },
    {
      "inputs": [
        {
          "internalType": "bytes32",
          "name": "role",
          "type": "bytes32"
        },
        {
          "internalType": "address",
          "name": "account",
          "type": "address"
        }
      ],
      "name": "hasRole",
      "outputs": [
        {
          "internalType": "bool",
          "name": "",
          "type": "bool"
        }
      ],
      "stateMutability": "view",
      "type": "function"
    },
    {
      "inputs": [
        {
          "internalType": "address",
          "name": "spender",
          "type": "address"
        },
        {
          "internalType": "uint256",
          "name": "addedValue",
          "type": "uint256"
        }
      ],
      "name": "increaseAllowance",
      "outputs": [
        {
          "internalType": "bool",
          "name": "",
          "type": "bool"
        }
      ],
      "stateMutability": "nonpayable",
      "type": "function"
    },
    {
      "inputs": [],
      "name": "name",
      "outputs": [
        {
          "internalType": "string",
          "name": "",
          "type": "string"
        }
      ],
      "stateMutability": "view",
      "type": "function"
    },
    {
      "inputs": [],
      "name": "paused",
      "outputs": [
        {
          "internalType": "bool",
          "name": "",
          "type": "bool"
        }
      ],
      "stateMutability": "view",
      "type": "function"
    },
    {
      "inputs": [
        {
          "internalType": "bytes32",
          "name": "role",
          "type": "bytes32"
        },
        {
          "internalType": "address",
          "name": "account",
          "type": "address"
        }
      ],
      "name": "renounceRole",
      "outputs": [],
      "stateMutability": "nonpayable",
      "type": "function"
    },
    {
      "inputs": [
        {
          "internalType": "bytes32",
          "name": "role",
          "type": "bytes32"
        },
        {
          "internalType": "address",
          "name": "account",
          "type": "address"
        }
      ],
      "name": "revokeRole",
      "outputs": [],
      "stateMutability": "nonpayable",
      "type": "function"
    },
    {
      "inputs": [],
      "name": "symbol",
      "outputs": [
        {
          "internalType": "string",
          "name": "",
          "type": "string"
        }
      ],
      "stateMutability": "view",
      "type": "function"
    },
    {
      "inputs": [],
      "name": "totalSupply",
      "outputs": [
        {
          "internalType": "uint256",
          "name": "",
          "type": "uint256"
        }
      ],
      "stateMutability": "view",
      "type": "function"
    },
    {
      "inputs": [
        {
          "internalType": "uint256",
          "name": "snapshotId",
          "type": "uint256"
        }
      ],
      "name": "totalSupplyAt",
      "outputs": [
        {
          "internalType": "uint256",
          "name": "",
          "type": "uint256"
        }
      ],
      "stateMutability": "view",
      "type": "function"
    },
    {
      "inputs": [
        {
          "internalType": "address",
          "name": "recipient",
          "type": "address"
        },
        {
          "internalType": "uint256",
          "name": "amount",
          "type": "uint256"
        }
      ],
      "name": "transfer",
      "outputs": [
        {
          "internalType": "bool",
          "name": "",
          "type": "bool"
        }
      ],
      "stateMutability": "nonpayable",
      "type": "function"
    },
    {
      "inputs": [
        {
          "internalType": "address",
          "name": "sender",
          "type": "address"
        },
        {
          "internalType": "address",
          "name": "recipient",
          "type": "address"
        },
        {
          "internalType": "uint256",
          "name": "amount",
          "type": "uint256"
        }
      ],
      "name": "transferFrom",
      "outputs": [
        {
          "internalType": "bool",
          "name": "",
          "type": "bool"
        }
      ],
      "stateMutability": "nonpayable",
      "type": "function"
    },
    {
      "inputs": [
        {
          "internalType": "uint256",
          "name": "_key",
          "type": "uint256"
        }
      ],
      "name": "adminKillTrustedAgent",
      "outputs": [],
      "stateMutability": "nonpayable",
      "type": "function"
    },
    {
      "inputs": [],
      "name": "setColdWallet",
      "outputs": [],
      "stateMutability": "nonpayable",
      "type": "function"
    },
    {
      "inputs": [],
      "name": "unSetColdWallet",
      "outputs": [],
      "stateMutability": "nonpayable",
      "type": "function"
    },
    {
      "inputs": [
        {
          "internalType": "address",
          "name": "_addr",
          "type": "address"
        }
      ],
      "name": "isColdWallet",
      "outputs": [
        {
          "internalType": "uint256",
          "name": "",
          "type": "uint256"
        }
      ],
      "stateMutability": "view",
      "type": "function"
    },
    {
      "inputs": [
        {
          "internalType": "address",
          "name": "_paymentAddress",
          "type": "address"
        }
      ],
      "name": "AdminSetSharesAddress",
      "outputs": [],
      "stateMutability": "nonpayable",
      "type": "function"
    },
    {
      "inputs": [
        {
          "internalType": "address",
          "name": "_senderAddress",
          "type": "address"
        },
        {
          "internalType": "address",
          "name": "_rootAddress",
          "type": "address"
        },
        {
          "internalType": "uint256",
          "name": "_rootPrice",
          "type": "uint256"
        },
        {
          "internalType": "address",
          "name": "_ACTHaddress",
          "type": "address"
        },
        {
          "internalType": "uint256",
          "name": "_ACTHprice",
          "type": "uint256"
        }
      ],
      "name": "payForService",
      "outputs": [],
      "stateMutability": "nonpayable",
      "type": "function"
    },
    {
      "inputs": [
        {
          "internalType": "address",
          "name": "_addr",
          "type": "address"
        },
        {
          "internalType": "uint256",
          "name": "_amount",
          "type": "uint256"
        }
      ],
      "name": "trustedAgentBurn",
      "outputs": [],
      "stateMutability": "nonpayable",
      "type": "function"
    },
    {
      "inputs": [
        {
          "internalType": "address",
          "name": "_from",
          "type": "address"
        },
        {
          "internalType": "address",
          "name": "_to",
          "type": "address"
        },
        {
          "internalType": "uint256",
          "name": "_amount",
          "type": "uint256"
        }
      ],
      "name": "trustedAgentTransfer",
      "outputs": [],
      "stateMutability": "nonpayable",
      "type": "function"
    },
    {
      "inputs": [],
      "name": "takeSnapshot",
      "outputs": [
        {
          "internalType": "uint256",
          "name": "",
          "type": "uint256"
        }
      ],
      "stateMutability": "nonpayable",
      "type": "function"
    },
    {
      "inputs": [
        {
          "internalType": "address",
          "name": "to",
          "type": "address"
        },
        {
          "internalType": "uint256",
          "name": "_amount",
          "type": "uint256"
        }
      ],
      "name": "mint",
      "outputs": [],
      "stateMutability": "nonpayable",
      "type": "function"
    },
    {
      "inputs": [],
      "name": "pause",
      "outputs": [],
      "stateMutability": "nonpayable",
      "type": "function"
    },
    {
      "inputs": [],
      "name": "unpause",
      "outputs": [],
      "stateMutability": "nonpayable",
      "type": "function"
    },
    {
      "inputs": [],
      "name": "cap",
      "outputs": [
        {
          "internalType": "uint256",
          "name": "",
          "type": "uint256"
        }
      ],
      "stateMutability": "view",
      "type": "function"
    }
  ],
  "bytecode": "0x60806040526b0cecb8f27f4200f3a0000000600b55600c80546001600160a01b03191690556001600d553480156200003657600080fd5b506040518060400160405280600c81526020016b50525546204e6574776f726b60a01b8152506040518060400160405280600481526020016328292aa360e11b81525081600490805190602001906200009192919062000271565b508051620000a790600590602084019062000271565b50506006805460ff1916905550620000ca6000620000c46200015d565b62000161565b620000f97f2ce8d04a9c35987429af538825cd2438cc5c5bb5dc427955f84daaa3ea105016620000c46200015d565b620001287f9f2df0fed2c77648de5860a4cc508cd0818c85b8b8a1ab4ceeef8d981c8956a6620000c46200015d565b620001577f65d7a28e3265b37a6474929f336521b332c1681b933f6cb9f3376673440d862a620000c46200015d565b62000354565b3390565b6200016d828262000171565b5050565b6000828152602081815260409091206200019691839062000fa0620001ea821b17901c565b156200016d57620001a66200015d565b6001600160a01b0316816001600160a01b0316837f2f8788117e7eff1d82e926ec794901d17c78024a50270940304540a733656f0d60405160405180910390a45050565b600062000201836001600160a01b0384166200020a565b90505b92915050565b600062000218838362000259565b620002505750815460018181018455600084815260208082209093018490558454848252828601909352604090209190915562000204565b50600062000204565b60009081526001919091016020526040902054151590565b8280546200027f9062000317565b90600052602060002090601f016020900481019282620002a35760008555620002ee565b82601f10620002be57805160ff1916838001178555620002ee565b82800160010185558215620002ee579182015b82811115620002ee578251825591602001919060010190620002d1565b50620002fc92915062000300565b5090565b5b80821115620002fc576000815560010162000301565b6002810460018216806200032c57607f821691505b602082108114156200034e57634e487b7160e01b600052602260045260246000fd5b50919050565b6127af80620003646000396000f3fe608060405234801561001057600080fd5b50600436106102695760003560e01c806370a0823111610151578063a9059cbb116100c3578063ca15c87311610087578063ca15c873146104c9578063d5391393146104dc578063d547741f146104e4578063dd62ed3e146104f7578063e60f0b981461050a578063e63ab1e91461051d57610269565b8063a9059cbb1461048b578063ac4162531461049e578063adfcaae0146104b1578063b3b0af6c146104b9578063b3d3d37e146104c157610269565b806395d89b411161011557806395d89b411461043a578063981b24d014610442578063992a7176146104555780639b30d1e91461045d578063a217fddf14610470578063a457c2d71461047857610269565b806370a08231146103d957806379cc6790146103ec5780638456cb59146103ff5780639010d07c1461040757806391d148541461042757610269565b8063355274ea116101ea57806342966c68116101ae57806342966c681461037d5780634ac3c31b146103905780634ee2cd7e146103a357806350c7a35c146103b65780635c975abb146103c95780637028e2cd146103d157610269565b8063355274ea1461033457806336568abe1461033c578063395093511461034f5780633f4ba83a1461036257806340c10f191461036a57610269565b806323b872dd1161023157806323b872dd146102de578063248a9ca3146102f15780632670d216146103045780632f2ff15d1461030c578063313ce5671461031f57610269565b806306fdde031461026e578063095ea7b31461028c578063113e6c0c146102ac57806318160ddd146102c15780631da03312146102d6575b600080fd5b610276610525565b6040516102839190611cb5565b60405180910390f35b61029f61029a366004611c09565b6105b7565b6040516102839190611ca1565b6102bf6102ba366004611c32565b6105d5565b005b6102c9610638565b6040516102839190611cac565b6102c961063e565b61029f6102ec366004611b7a565b610662565b6102c96102ff366004611c32565b6106f9565b6102bf610711565b6102bf61031a366004611c4a565b61073b565b610327610783565b604051610283919061268d565b6102c9610788565b6102bf61034a366004611c4a565b61078e565b61029f61035d366004611c09565b6107d0565b6102bf61081f565b6102bf610378366004611c09565b61085f565b6102bf61038b366004611c32565b6108b1565b6102c961039e366004611b2e565b6108c2565b6102c96103b1366004611c09565b6108dd565b6102bf6103c4366004611b2e565b610926565b61029f6109b6565b6102c96109bf565b6102c96103e7366004611b2e565b6109e3565b6102bf6103fa366004611c09565b6109fe565b6102bf610a53565b61041a610415366004611c6c565b610a91565b6040516102839190611c8d565b61029f610435366004611c4a565b610ab0565b610276610ac8565b6102c9610450366004611c32565b610ad7565b6102c9610b07565b6102bf61046b366004611b7a565b610b2b565b6102c9610bd6565b61029f610486366004611c09565b610bdb565b61029f610499366004611c09565b610c56565b6102bf6104ac366004611c09565b610c6a565b6102bf610d14565b6102c9610d22565b6102c9610d46565b6102c96104d7366004611c32565b610d9d565b6102c9610db4565b6102bf6104f2366004611c4a565b610dd8565b6102c9610505366004611b48565b610e12565b6102bf610518366004611bb5565b610e3d565b6102c9610f8e565b606060048054610534906126de565b80601f0160208091040260200160405190810160405280929190818152602001828054610560906126de565b80156105ad5780601f10610582576101008083540402835291602001916105ad565b820191906000526020600020905b81548152906001019060200180831161059057829003601f168201915b5050505050905090565b60006105cb6105c4610fb5565b8484610fb9565b5060015b92915050565b6106017f2ce8d04a9c35987429af538825cd2438cc5c5bb5dc427955f84daaa3ea105016610435610fb5565b6106265760405162461bcd60e51b815260040161061d90611ff9565b60405180910390fd5b8060aa1415610635576000600d555b50565b60035490565b7f2ce8d04a9c35987429af538825cd2438cc5c5bb5dc427955f84daaa3ea10501681565b600061066f84848461106d565b6001600160a01b038416600090815260026020526040812081610690610fb5565b6001600160a01b03166001600160a01b03168152602001908152602001600020549050828110156106d35760405162461bcd60e51b815260040161061d906122a0565b6106ee856106df610fb5565b6106e986856126c7565b610fb9565b506001949350505050565b6000818152602081905260409020600201545b919050565b6000600e600061071f610fb5565b6001600160a01b03168152602081019190915260400160002055565b60008281526020819052604090206002015461075990610435610fb5565b6107755760405162461bcd60e51b815260040161061d90611e21565b61077f8282611195565b5050565b601290565b600b5490565b610796610fb5565b6001600160a01b0316816001600160a01b0316146107c65760405162461bcd60e51b815260040161061d90612607565b61077f82826111fe565b60006105cb6107dd610fb5565b8484600260006107eb610fb5565b6001600160a01b03908116825260208083019390935260409182016000908120918b16815292529020546106e9919061269b565b61083960008051602061275a833981519152610435610fb5565b6108555760405162461bcd60e51b815260040161061d90612221565b61085d611267565b565b61088b7f9f2df0fed2c77648de5860a4cc508cd0818c85b8b8a1ab4ceeef8d981c8956a6610435610fb5565b6108a75760405162461bcd60e51b815260040161061d9061249a565b61077f82826112d5565b6106356108bc610fb5565b82611395565b6001600160a01b03166000908152600e602052604090205490565b6001600160a01b03821660009081526007602052604081208190819061090490859061147b565b915091508161091b57610916856109e3565b61091d565b805b95945050505050565b6109527f2ce8d04a9c35987429af538825cd2438cc5c5bb5dc427955f84daaa3ea105016610435610fb5565b61096e5760405162461bcd60e51b815260040161061d90611ff9565b6001600160a01b0381166109945760405162461bcd60e51b815260040161061d90612258565b600c80546001600160a01b0319166001600160a01b0392909216919091179055565b60065460ff1690565b7f5fdbd35e8da83ee755d5e62a539e5ed7f47126abede0b8b10f9ea43dc6eed07f81565b6001600160a01b031660009081526001602052604090205490565b6000610a0c83610505610fb5565b905081811015610a2e5760405162461bcd60e51b815260040161061d90612399565b610a4483610a3a610fb5565b6106e985856126c7565b610a4e8383611395565b505050565b610a6d60008051602061275a833981519152610435610fb5565b610a895760405162461bcd60e51b815260040161061d90612221565b61085d611529565b6000828152602081905260408120610aa99083611584565b9392505050565b6000828152602081905260408120610aa99083611590565b606060058054610534906126de565b6000806000610ae784600861147b565b9150915081610afd57610af8610638565b610aff565b805b949350505050565b7feeed90ae47cd1f23b88ce446295f1ca23c5e4f5b894addbe83563fd27494e29481565b610b577feeed90ae47cd1f23b88ce446295f1ca23c5e4f5b894addbe83563fd27494e294610435610fb5565b610b735760405162461bcd60e51b815260040161061d9061257c565b600d54600114610b955760405162461bcd60e51b815260040161061d90612040565b6001600160a01b0383166000908152600e602052604090205415610bcb5760405162461bcd60e51b815260040161061d90611fa5565b610a4e83838361106d565b600081565b60008060026000610bea610fb5565b6001600160a01b0390811682526020808301939093526040918201600090812091881681529252902054905082811015610c365760405162461bcd60e51b815260040161061d906125c2565b610c4c610c41610fb5565b856106e986856126c7565b5060019392505050565b60006105cb610c63610fb5565b848461106d565b610c967feeed90ae47cd1f23b88ce446295f1ca23c5e4f5b894addbe83563fd27494e294610435610fb5565b610cb25760405162461bcd60e51b815260040161061d9061257c565b600d54600114610cd45760405162461bcd60e51b815260040161061d90612040565b6001600160a01b0382166000908152600e602052604090205415610d0a5760405162461bcd60e51b815260040161061d906122e8565b61077f8282611395565b60aa600e600061071f610fb5565b7fcdbada398fb3ae55c788123a0c3c0ccb8e69fee2e6b780278b89300b4fc80c9081565b6000610d747f5fdbd35e8da83ee755d5e62a539e5ed7f47126abede0b8b10f9ea43dc6eed07f610435610fb5565b610d905760405162461bcd60e51b815260040161061d906121b8565b610d986115a5565b905090565b60008181526020819052604081206105cf906115fb565b7f9f2df0fed2c77648de5860a4cc508cd0818c85b8b8a1ab4ceeef8d981c8956a681565b600082815260208190526040902060020154610df690610435610fb5565b6107c65760405162461bcd60e51b815260040161061d9061213e565b6001600160a01b03918216600090815260026020908152604080832093909416825291909152205490565b610e697fcdbada398fb3ae55c788123a0c3c0ccb8e69fee2e6b780278b89300b4fc80c90610435610fb5565b610e855760405162461bcd60e51b815260040161061d90612109565b600d54600114610ea75760405162461bcd60e51b815260040161061d90611e9e565b6001600160a01b0385166000908152600e602052604090205415610edd5760405162461bcd60e51b815260040161061d90611d3f565b610ee78382611606565b610ef0866109e3565b1015610f0e5760405162461bcd60e51b815260040161061d906124d1565b600c546001600160a01b0316610f3957610f2985858561106d565b610f3485838361106d565b610f87565b6000610f46846004611612565b90506000610f54858361161e565b9050610f6187878361106d565b600c54610f799088906001600160a01b03168461106d565b610f8487858561106d565b50505b5050505050565b60008051602061275a83398151915281565b6000610aa9836001600160a01b03841661162a565b3390565b6001600160a01b038316610fdf5760405162461bcd60e51b815260040161061d90612508565b6001600160a01b0382166110055760405162461bcd60e51b815260040161061d90611f63565b6001600160a01b0380841660008181526002602090815260408083209487168084529490915290819020849055517f8c5be1e5ebec7d5bd14f71427d1e84f3dd0314c0f7b2291e5b200ac8c7c3b92590611060908590611cac565b60405180910390a3505050565b6001600160a01b0383166110935760405162461bcd60e51b815260040161061d9061241e565b6001600160a01b0382166110b95760405162461bcd60e51b815260040161061d90611dde565b6110c4838383611674565b6001600160a01b038316600090815260016020526040902054818110156110fd5760405162461bcd60e51b815260040161061d906120c3565b61110782826126c7565b6001600160a01b03808616600090815260016020526040808220939093559085168152908120805484929061113d90849061269b565b92505081905550826001600160a01b0316846001600160a01b03167fddf252ad1be2c89b69c2b068fc378daa952ba7f163c4a11628f55a4df523b3ef846040516111879190611cac565b60405180910390a350505050565b60008281526020819052604090206111ad9082610fa0565b1561077f576111ba610fb5565b6001600160a01b0316816001600160a01b0316837f2f8788117e7eff1d82e926ec794901d17c78024a50270940304540a733656f0d60405160405180910390a45050565b60008281526020819052604090206112169082611705565b1561077f57611223610fb5565b6001600160a01b0316816001600160a01b0316837ff6391f5c32d9c69d2a47ea670b442974b53935d1edc7fd64eb21e047a839171b60405160405180910390a45050565b61126f6109b6565b61128b5760405162461bcd60e51b815260040161061d90611e70565b6006805460ff191690557f5db9ee0a495bf2e6ff9c91a7834c1ba4fdd244a5e8aa4e537bd38aeae4b073aa6112be610fb5565b6040516112cb9190611c8d565b60405180910390a1565b6001600160a01b0382166112fb5760405162461bcd60e51b815260040161061d90612656565b61130760008383611674565b8060036000828254611319919061269b565b90915550506001600160a01b0382166000908152600160205260408120805483929061134690849061269b565b90915550506040516001600160a01b038316906000907fddf252ad1be2c89b69c2b068fc378daa952ba7f163c4a11628f55a4df523b3ef90611389908590611cac565b60405180910390a35050565b6001600160a01b0382166113bb5760405162461bcd60e51b815260040161061d906123dd565b6113c782600083611674565b6001600160a01b038216600090815260016020526040902054818110156114005760405162461bcd60e51b815260040161061d90611f21565b61140a82826126c7565b6001600160a01b038416600090815260016020526040812091909155600380548492906114389084906126c7565b90915550506040516000906001600160a01b038516907fddf252ad1be2c89b69c2b068fc378daa952ba7f163c4a11628f55a4df523b3ef90611060908690611cac565b6000806000841161149e5760405162461bcd60e51b815260040161061d9061254c565b6114a8600a61171a565b8411156114c75760405162461bcd60e51b815260040161061d90611d08565b60006114d3848661171e565b84549091508114156114ec576000809250925050611522565b600184600101828154811061151157634e487b7160e01b600052603260045260246000fd5b906000526020600020015492509250505b9250929050565b6115316109b6565b1561154e5760405162461bcd60e51b815260040161061d9061218e565b6006805460ff191660011790557f62e78cea01bee320cd4e420270b5ea74000d11b0c9f74754ebdbfc544b05a2586112be610fb5565b6000610aa983836117fd565b6000610aa9836001600160a01b038416611856565b60006115b1600a61186e565b60006115bd600a61171a565b90507f8030e83b04d87bef53480e26263266d6ca66863aa8506aca6f2559d18aa1cb67816040516115ee9190611cac565b60405180910390a1905090565b60006105cf8261171a565b6000610aa9828461269b565b6000610aa982846126b3565b6000610aa982846126c7565b60006116368383611856565b61166c575081546001818101845560008481526020808220909301849055845484825282860190935260409020919091556105cf565b5060006105cf565b61167f838383611877565b6116876109b6565b15806116a857506116a860008051602061275a833981519152610435610fb5565b6116c45760405162461bcd60e51b815260040161061d9061233c565b6001600160a01b038316610a4e57600b546116e7826116e1610638565b90611606565b1115610a4e5760405162461bcd60e51b815260040161061d90612463565b6000610aa9836001600160a01b0384166118cf565b5490565b815460009061172f575060006105cf565b82546000905b8082101561179957600061174983836119ec565b90508486828154811061176c57634e487b7160e01b600052603260045260246000fd5b9060005260206000200154111561178557809150611793565b61179081600161269b565b92505b50611735565b6000821180156117dc575083856117b16001856126c7565b815481106117cf57634e487b7160e01b600052603260045260246000fd5b9060005260206000200154145b156117f5576117ec6001836126c7565b925050506105cf565b5090506105cf565b815460009082106118205760405162461bcd60e51b815260040161061d90611d9c565b82600001828154811061184357634e487b7160e01b600052603260045260246000fd5b9060005260206000200154905092915050565b60009081526001919091016020526040902054151590565b80546001019055565b611882838383610a4e565b6001600160a01b0383166118a65761189982611a43565b6118a1611a6d565b610a4e565b6001600160a01b0382166118bd5761189983611a43565b6118c683611a43565b610a4e82611a43565b600081815260018301602052604081205480156119e25760006118f36001836126c7565b8554909150600090611907906001906126c7565b9050600086600001828154811061192e57634e487b7160e01b600052603260045260246000fd5b906000526020600020015490508087600001848154811061195f57634e487b7160e01b600052603260045260246000fd5b60009182526020909120015561197683600161269b565b600082815260018901602052604090205586548790806119a657634e487b7160e01b600052603160045260246000fd5b600190038181906000526020600020016000905590558660010160008781526020019081526020016000206000905560019450505050506105cf565b60009150506105cf565b600060026119fa8184612719565b611a05600286612719565b611a0f919061269b565b611a1991906126b3565b611a246002846126b3565b611a2f6002866126b3565b611a39919061269b565b610aa9919061269b565b6001600160a01b038116600090815260076020526040902061063590611a68836109e3565b611a7a565b61085d6008611a68610638565b6000611a86600a61171a565b905080611a9284611ac6565b1015610a4e578254600180820185556000858152602080822090930193909355938401805494850181558252902090910155565b8054600090611ad75750600061070c565b81548290611ae7906001906126c7565b81548110611b0557634e487b7160e01b600052603260045260246000fd5b9060005260206000200154905061070c565b80356001600160a01b038116811461070c57600080fd5b600060208284031215611b3f578081fd5b610aa982611b17565b60008060408385031215611b5a578081fd5b611b6383611b17565b9150611b7160208401611b17565b90509250929050565b600080600060608486031215611b8e578081fd5b611b9784611b17565b9250611ba560208501611b17565b9150604084013590509250925092565b600080600080600060a08688031215611bcc578081fd5b611bd586611b17565b9450611be360208701611b17565b935060408601359250611bf860608701611b17565b949793965091946080013592915050565b60008060408385031215611c1b578182fd5b611c2483611b17565b946020939093013593505050565b600060208284031215611c43578081fd5b5035919050565b60008060408385031215611c5c578182fd5b82359150611b7160208401611b17565b60008060408385031215611c7e578182fd5b50508035926020909101359150565b6001600160a01b0391909116815260200190565b901515815260200190565b90815260200190565b6000602080835283518082850152825b81811015611ce157858101830151858201604001528201611cc5565b81811115611cf25783604083870101525b50601f01601f1916929092016040019392505050565b6020808252601d908201527f4552433230536e617073686f743a206e6f6e6578697374656e74206964000000604082015260600190565b6020808252603c908201527f505275463a5046533a20436f6c642057616c6c6574202d20547275737465642060408201527f70617961626c652066756e6374696f6e732070726f6869626974656400000000606082015260800190565b60208082526022908201527f456e756d657261626c655365743a20696e646578206f7574206f6620626f756e604082015261647360f01b606082015260800190565b60208082526023908201527f45524332303a207472616e7366657220746f20746865207a65726f206164647260408201526265737360e81b606082015260800190565b6020808252602f908201527f416363657373436f6e74726f6c3a2073656e646572206d75737420626520616e60408201526e0818591b5a5b881d1bc819dc985b9d608a1b606082015260800190565b60208082526014908201527314185d5cd8589b194e881b9bdd081c185d5cd95960621b604082015260600190565b6020808252605e908201527f505275463a4d4f443a20547275737465642050617961626c652046756e63746960408201527f6f6e207065726d616e656e746c792064697361626c6564202d2075736520616c60608201527f6c6f77616e6365202f207472616e7366657246726f6d207061747465726e0000608082015260a00190565b60208082526022908201527f45524332303a206275726e20616d6f756e7420657863656564732062616c616e604082015261636560f01b606082015260800190565b60208082526022908201527f45524332303a20617070726f766520746f20746865207a65726f206164647265604082015261737360f01b606082015260800190565b60208082526034908201527f505275463a5441543a20436f6c642057616c6c6574202d205472757374656420604082015273199d5b98dd1a5bdb9cc81c1c9bda1a589a5d195960621b606082015260800190565b60208082526027908201527f505275463a4d4f443a206d757374206861766520434f4e54524143545f41444d604082015266494e5f524f4c4560c81b606082015260800190565b6020808252605c908201527f505275463a4d4f443a2054727573746564204167656e742066756e6374696f6e60408201527f207065726d616e656e746c792064697361626c6564202d2075736520616c6c6f60608201527f77616e6365202f207472616e7366657246726f6d207061747465726e00000000608082015260a00190565b60208082526026908201527f45524332303a207472616e7366657220616d6f756e7420657863656564732062604082015265616c616e636560d01b606082015260800190565b6020808252818101527f505275463a4d4f443a206d75737420686176652050415941424c455f524f4c45604082015260600190565b60208082526030908201527f416363657373436f6e74726f6c3a2073656e646572206d75737420626520616e60408201526f2061646d696e20746f207265766f6b6560801b606082015260800190565b60208082526010908201526f14185d5cd8589b194e881c185d5cd95960821b604082015260600190565b60208082526043908201527f45524332305072657365744d696e7465725061757365723a206d75737420686160408201527f766520736e617073686f7420726f6c6520746f2074616b65206120736e6170736060820152621a1bdd60ea1b608082015260a00190565b6020808252601f908201527f505275463a4d4f443a206d7573742068617665205041555345525f524f4c4500604082015260600190565b60208082526028908201527f505275463a5353413a207061796d656e7420616464726573732063616e6e6f74604082015267206265207a65726f60c01b606082015260800190565b60208082526028908201527f45524332303a207472616e7366657220616d6f756e74206578636565647320616040820152676c6c6f77616e636560c01b606082015260800190565b60208082526034908201527f505275463a42524e3a20436f6c642057616c6c6574202d205472757374656420604082015273199d5b98dd1a5bdb9cc81c1c9bda1a589a5d195960621b606082015260800190565b6020808252603b908201527f45524332305061757361626c653a2066756e6374696f6e20756e617661696c6260408201527f6c65207768696c6520636f6e7472616374206973207061757365640000000000606082015260800190565b60208082526024908201527f45524332303a206275726e20616d6f756e74206578636565647320616c6c6f77604082015263616e636560e01b606082015260800190565b60208082526021908201527f45524332303a206275726e2066726f6d20746865207a65726f206164647265736040820152607360f81b606082015260800190565b60208082526025908201527f45524332303a207472616e736665722066726f6d20746865207a65726f206164604082015264647265737360d81b606082015260800190565b60208082526019908201527f45524332304361707065643a2063617020657863656564656400000000000000604082015260600190565b6020808252601f908201527f505275463a4d4f443a206d7573742068617665204d494e5445525f524f4c4500604082015260600190565b6020808252601e908201527f505275463a5046533a20696e73756666696369656e742062616c616e63650000604082015260600190565b60208082526024908201527f45524332303a20617070726f76652066726f6d20746865207a65726f206164646040820152637265737360e01b606082015260800190565b60208082526016908201527504552433230536e617073686f743a20696420697320360541b604082015260600190565b60208082526026908201527f505275463a4d4f443a206d757374206861766520545255535445445f4147454e604082015265545f524f4c4560d01b606082015260800190565b60208082526025908201527f45524332303a2064656372656173656420616c6c6f77616e63652062656c6f77604082015264207a65726f60d81b606082015260800190565b6020808252602f908201527f416363657373436f6e74726f6c3a2063616e206f6e6c792072656e6f756e636560408201526e103937b632b9903337b91039b2b63360891b606082015260800190565b6020808252601f908201527f45524332303a206d696e7420746f20746865207a65726f206164647265737300604082015260600190565b60ff91909116815260200190565b600082198211156126ae576126ae61272d565b500190565b6000826126c2576126c2612743565b500490565b6000828210156126d9576126d961272d565b500390565b6002810460018216806126f257607f821691505b6020821081141561271357634e487b7160e01b600052602260045260246000fd5b50919050565b60008261272857612728612743565b500690565b634e487b7160e01b600052601160045260246000fd5b634e487b7160e01b600052601260045260246000fdfe65d7a28e3265b37a6474929f336521b332c1681b933f6cb9f3376673440d862aa264697066735822122092f5a67cc2beed7ceab8fc6da52319813303d26a486b49a3bbb18b6c7c387e7d64736f6c63430008000033",
  "immutableReferences": {},
  "source": "/*--------------------------------------------------------PRuF0.7.1\n__/\\\\\\\\\\\\\\\\\\\\\\\\\\ _____/\\\\\\\\\\\\\\\\\\ _______/\\\\../\\\\ ___/\\\\\\\\\\\\\\\\\\\\\\\\\\\\\\\n _\\/\\\\\\/////////\\\\\\ _/\\\\\\///////\\\\\\ ____\\//..\\//____\\/\\\\\\///////////__\n  _\\/\\\\\\.......\\/\\\\\\.\\/\\\\\\.....\\/\\\\\\ ________________\\/\\\\\\ ____________\n   _\\/\\\\\\\\\\\\\\\\\\\\\\\\\\/__\\/\\\\\\\\\\\\\\\\\\\\\\/_____/\\\\\\____/\\\\\\.\\/\\\\\\\\\\\\\\\\\\\\\\ ____\n    _\\/\\\\\\/////////____\\/\\\\\\//////\\\\\\ ___\\/\\\\\\___\\/\\\\\\.\\/\\\\\\///////______\n     _\\/\\\\\\ ____________\\/\\\\\\ ___\\//\\\\\\ __\\/\\\\\\___\\/\\\\\\.\\/\\\\\\ ____________\n      _\\/\\\\\\ ____________\\/\\\\\\ ____\\//\\\\\\ _\\/\\\\\\___\\/\\\\\\.\\/\\\\\\ ____________\n       _\\/\\\\\\ ____________\\/\\\\\\ _____\\//\\\\\\.\\//\\\\\\\\\\\\\\\\\\ _\\/\\\\\\ ____________\n        _\\/// _____________\\/// _______\\/// __\\///////// __\\/// _____________\n         *-------------------------------------------------------------------*/\n\n/*-----------------------------------------------------------------\n *  TO DO\n * sharesShare is 0.25 share of root costs- when we transition networks this should be rewritten to become a variable share.\n *-----------------------------------------------------------------\n * PRUF UTILITY TOKEN CONTRACT\n *---------------------------------------------------------------*/\n\n// SPDX-License-Identifier: UNLICENSED\n\npragma solidity ^0.8.0;\n\nimport \"./PRUF_INTERFACES.sol\";\nimport \"./Imports/access/AccessControl.sol\";\nimport \"./Imports/token/ERC20/ERC20Burnable.sol\";\nimport \"./Imports/utils/Pausable.sol\";\nimport \"./Imports/math/SafeMath.sol\";\nimport \"./Imports/token/ERC20/ERC20Snapshot.sol\";\n\n/**\n * @dev {ERC20} token, including:\n *\n *  - ability for holders to burn (destroy) their tokens\n *  - a MINTER_ROLE that allows for token minting (creation)\n *  - a PAUSER_ROLE that allows to stop all token transfers\n *  - a SNAPSHOT_ROLE that allows to take snapshots\n *  - a PAYABLE_ROLE role that allows authorized addresses to invoke the token splitting payment function (all paybale contracts)\n *  - a TRUSTED_AGENT_ROLE role that allows authorized addresses to transfer and burn tokens (AC_MGR)\n\n\n\n\n *\n * This contract uses {AccessControl} to lock permissioned functions using the\n * different roles - head to its documentation for details.\n *\n * The account that deploys the contract will be granted the minter and pauser\n * roles, as well as the default admin role, which will let it grant both minter\n * and pauser roles to other accounts.\n */\ncontract UTIL_TKN is\n    Context,\n    AccessControl,\n    ERC20Burnable,\n    Pausable,\n    ERC20Snapshot\n{\n    bytes32 public constant CONTRACT_ADMIN_ROLE = keccak256(\"CONTRACT_ADMIN_ROLE\");\n    bytes32 public constant MINTER_ROLE = keccak256(\"MINTER_ROLE\");\n    bytes32 public constant PAUSER_ROLE = keccak256(\"PAUSER_ROLE\");\n    bytes32 public constant SNAPSHOT_ROLE = keccak256(\"SNAPSHOT_ROLE\");\n    bytes32 public constant PAYABLE_ROLE = keccak256(\"PAYABLE_ROLE\");\n    bytes32 public constant TRUSTED_AGENT_ROLE = keccak256(\n        \"TRUSTED_AGENT_ROLE\"\n    );\n\n    using SafeMath for uint256;\n\n    uint256 private _cap = 4000000000000000000000000000; //4billion max supply\n\n    address private sharesAddress = address(0);\n\n    struct Invoice {\n        //invoice struct to facilitate payment messaging in-contract\n        address rootAddress;\n        uint256 rootPrice;\n        address ACTHaddress;\n        uint256 ACTHprice;\n    }\n\n    uint256 trustedAgentEnabled = 1;\n\n    mapping(address => uint256) private coldWallet;\n\n    /**\n     * @dev Grants `DEFAULT_ADMIN_ROLE`, `CONTRACT_ADMIN_ROLE`, `MINTER_ROLE` and `PAUSER_ROLE` to the\n     * account that deploys the contract.\n     *\n     * See {ERC20-constructor}.\n     */\n    constructor() ERC20(\"PRUF Network\", \"PRUF\") {\n        _setupRole(DEFAULT_ADMIN_ROLE, _msgSender());\n        _setupRole(CONTRACT_ADMIN_ROLE, _msgSender());\n        _setupRole(MINTER_ROLE, _msgSender());\n        _setupRole(PAUSER_ROLE, _msgSender());\n    }\n\n    //------------------------------------------------------------------------MODIFIERS\n\n    /*\n     * @dev Verify user credentials\n     * Originating Address:\n     *      is Admin\n     */\n    modifier isAdmin() {\n        require(\n            hasRole(CONTRACT_ADMIN_ROLE, _msgSender()),\n            \"PRuF:MOD: must have CONTRACT_ADMIN_ROLE\"\n        );\n        _;\n    }\n\n    /*\n     * @dev Verify user credentials\n     * Originating Address:\n     *      is Pauser\n     */\n    modifier isPauser() {\n        require(\n            hasRole(PAUSER_ROLE, _msgSender()),\n            \"PRuF:MOD: must have PAUSER_ROLE\"\n        );\n        _;\n    }\n\n    /*\n     * @dev Verify user credentials\n     * Originating Address:\n     *      is Minter\n     */\n    modifier isMinter() {\n        require(\n            hasRole(MINTER_ROLE, _msgSender()),\n            \"PRuF:MOD: must have MINTER_ROLE\"\n        );\n        _;\n    }\n\n    /*\n     * @dev Verify user credentials\n     * Originating Address:\n     *      is Payable in PRuF\n     */\n    modifier isPayable() {\n        require(\n            hasRole(PAYABLE_ROLE, _msgSender()),\n            \"PRuF:MOD: must have PAYABLE_ROLE\"\n        );\n        require(\n            trustedAgentEnabled == 1,\n            \"PRuF:MOD: Trusted Payable Function permanently disabled - use allowance / transferFrom pattern\"\n        );\n        _;\n    }\n\n    /*\n     * @dev Verify user credentials\n     * Originating Address:\n     *      is Trusted Agent\n     */\n    modifier isTrustedAgent() {\n        require(\n            hasRole(TRUSTED_AGENT_ROLE, _msgSender()),\n            \"PRuF:MOD: must have TRUSTED_AGENT_ROLE\"\n        );\n        require(\n            trustedAgentEnabled == 1,\n            \"PRuF:MOD: Trusted Agent function permanently disabled - use allowance / transferFrom pattern\"\n        );\n        _;\n    }\n\n    /*\n     * @dev ----------------------------------------PERMANANTLY !!!  Kills trusted agent and payable functions\n     * this will break the functionality of current payment mechanisms.\n     *\n     * The workaround for this is to create an allowance for pruf contracts for a single or multiple payments,\n     * either ahead of time \"loading up your PRUF account\" or on demand with an operation. On demand will use quite a bit more gas.\n     * \"preloading\" should be pretty gas efficient, but will add an extra step to the workflow, requiring users to have sufficient\n     * PRuF \"banked\" in an allowance for use in the system.\n     *\n     */\n    function adminKillTrustedAgent(uint256 _key) external isAdmin {\n        if (_key == 170) {\n            trustedAgentEnabled = 0; //-------------------THIS IS A PERMANENT ACTION AND CANNOT BE UNDONE\n        }\n    }\n\n    /*\n     * @dev Set calling wallet to a \"cold Wallet\" that cannot be manipulated by TRUSTED_AGENT or PAYABLE permissioned functions\n     * WALLET ADDRESSES SET TO \"Cold\" DO NOT WORK WITH TRUSTED_AGENT FUNCTIONS and must be unset from cold before it can interact with\n     * contract functions.\n     */\n    function setColdWallet() external {\n        coldWallet[_msgSender()] = 170;\n    }\n\n    /*\n     * @dev un-set calling wallet to a \"cold Wallet\", enabling manipulation by TRUSTED_AGENT and PAYABLE permissioned functions\n     * WALLET ADDRESSES SET TO \"Cold\" DO NOT WORK WITH TRUSTED_AGENT FUNCTIONS and must be unset from cold before it can interact with\n     * contract functions.\n     */\n    function unSetColdWallet() external {\n        coldWallet[_msgSender()] = 0;\n    }\n\n    /*\n     * @dev return an adresses \"cold wallet\" status\n     * WALLET ADDRESSES SET TO \"Cold\" DO NOT WORK WITH TRUSTED_AGENT FUNCTIONS\n     */\n    function isColdWallet(address _addr) external view returns (uint256) {\n        return coldWallet[_addr];\n    }\n\n    /*\n     * @dev Set address of SHARES payment contract. by default contract will use root address instead if set to zero.\n     */\n    function AdminSetSharesAddress(address _paymentAddress) external isAdmin {\n        require(\n            _paymentAddress != address(0),\n            \"PRuF:SSA: payment address cannot be zero\"\n        );\n\n        //^^^^^^^checks^^^^^^^^^\n\n        sharesAddress = _paymentAddress;\n        //^^^^^^^effects^^^^^^^^^\n    }\n\n    /*\n     * @dev Deducts token payment from transaction\n     */\n    function payForService(\n        address _senderAddress,\n        address _rootAddress,\n        uint256 _rootPrice,\n        address _ACTHaddress,\n        uint256 _ACTHprice\n    ) external isPayable {\n        require(\n            coldWallet[_senderAddress] == 0,\n            \"PRuF:PFS: Cold Wallet - Trusted payable functions prohibited\"\n        );\n        require( //redundant? throws on transfer?\n            balanceOf(_senderAddress) >= _rootPrice.add(_ACTHprice),\n            \"PRuF:PFS: insufficient balance\"\n        );\n        //^^^^^^^checks^^^^^^^^^\n\n        if (sharesAddress == address(0)) {\n            //IF SHARES ADDRESS IS NOT SET\n            _transfer(_senderAddress, _rootAddress, _rootPrice);\n            _transfer(_senderAddress, _ACTHaddress, _ACTHprice);\n        } else {\n            //IF SHARES ADDRESS IS SET\n            uint256 sharesShare = _rootPrice.div(uint256(4)); // sharesShare is 0.25 share of root costs when we transition networks this should be a variable share.\n            uint256 rootShare = _rootPrice.sub(sharesShare); // adjust root price to be root price - 0.25 share\n\n            _transfer(_senderAddress, _rootAddress, rootShare);\n            _transfer(_senderAddress, sharesAddress, sharesShare);\n            _transfer(_senderAddress, _ACTHaddress, _ACTHprice);\n        }\n        //^^^^^^^effects / interactions^^^^^^^^^\n    }\n\n    /*\n     * @dev arbitrary burn (requires TRUSTED_AGENT_ROLE)   ****USE WITH CAUTION\n     */\n    function trustedAgentBurn(address _addr, uint256 _amount)\n        external\n        isTrustedAgent\n    {\n        require(\n            coldWallet[_addr] == 0,\n            \"PRuF:BRN: Cold Wallet - Trusted functions prohibited\"\n        );\n        //^^^^^^^checks^^^^^^^^^\n        _burn(_addr, _amount);\n        //^^^^^^^effects^^^^^^^^^\n    }\n\n    /*\n     * @dev arbitrary transfer (requires TRUSTED_AGENT_ROLE)   ****USE WITH CAUTION\n     */\n    function trustedAgentTransfer(\n        address _from,\n        address _to,\n        uint256 _amount\n    ) external isTrustedAgent {\n        require(\n            coldWallet[_from] == 0,\n            \"PRuF:TAT: Cold Wallet - Trusted functions prohibited\"\n        );\n        //^^^^^^^checks^^^^^^^^^\n        _transfer(_from, _to, _amount);\n        //^^^^^^^effects^^^^^^^^^\n    }\n\n    /*\n     * @dev Take a balance snapshot, returns snapshot ID\n     */\n    function takeSnapshot() external returns (uint256) {\n        require(\n            hasRole(SNAPSHOT_ROLE, _msgSender()),\n            \"ERC20PresetMinterPauser: must have snapshot role to take a snapshot\"\n        );\n        return _snapshot();\n    }\n\n    /**\n     * @dev Creates `_amount` new tokens for `to`.\n     *\n     * See {ERC20-_mint}.\n     *\n     * Requirements:\n     *\n     * - the caller must have the `MINTER_ROLE`.\n     */\n    function mint(address to, uint256 _amount) public virtual {\n        require(\n            hasRole(MINTER_ROLE, _msgSender()),\n            \"PRuF:MOD: must have MINTER_ROLE\"\n        );\n        //^^^^^^^checks^^^^^^^^^\n\n        _mint(to, _amount);\n        //^^^^^^^interactions^^^^^^^^^\n    }\n\n    /**\n     * @dev Pauses all token transfers.\n     *\n     * See {ERC20Pausable} and {Pausable-_pause}.\n     *\n     * Requirements:\n     *\n     * - the caller must have the `PAUSER_ROLE`.\n     */\n    function pause() public virtual isPauser {\n        //^^^^^^^checks^^^^^^^^^\n        _pause();\n        //^^^^^^^effects^^^^^^^^\n    }\n\n    /**\n     * @dev Unpauses all token transfers.\n     *\n     * See {ERC20Pausable} and {Pausable-_unpause}.\n     *\n     * Requirements:\n     *\n     * - the caller must have the `PAUSER_ROLE`.\n     */\n    function unpause() public virtual isPauser {\n        //^^^^^^^checks^^^^^^^^^\n        _unpause();\n        //^^^^^^^effects^^^^^^^^\n    }\n\n    /**\n     * @dev Returns the cap on the token's total supply.\n     */\n    function cap() public view returns (uint256) {\n        return _cap;\n    }\n\n    /**\n     * @dev all paused functions are blocked here, unless caller has \"pauser\" role\n     */\n    function _beforeTokenTransfer(\n        address from,\n        address to,\n        uint256 amount\n    ) internal virtual override(ERC20, ERC20Snapshot) {\n        super._beforeTokenTransfer(from, to, amount);\n\n        require(\n            (!paused()) || hasRole(PAUSER_ROLE, _msgSender()),\n            \"ERC20Pausable: function unavailble while contract is paused\"\n        );\n        if (from == address(0)) {\n            // When minting tokens\n            require(\n                totalSupply().add(amount) <= _cap,\n                \"ERC20Capped: cap exceeded\"\n            );\n        }\n    }\n}\n",
  "sourcePath": "C:/Users/User/Documents/DEV/PRUF/PRUF_TRUFFLE/contracts/PRUF_UTIL_TKN.sol",
  "compiler": {
    "name": "solc",
    "version": "0.8.0+commit.c7dfd78e.Emscripten.clang"
  },
  "schemaVersion": "3.3.3",
  "updatedAt": "2021-02-18T22:17:45.473Z",
  "devdoc": {
    "details": "{ERC20} token, including:  - ability for holders to burn (destroy) their tokens  - a MINTER_ROLE that allows for token minting (creation)  - a PAUSER_ROLE that allows to stop all token transfers  - a SNAPSHOT_ROLE that allows to take snapshots  - a PAYABLE_ROLE role that allows authorized addresses to invoke the token splitting payment function (all paybale contracts)  - a TRUSTED_AGENT_ROLE role that allows authorized addresses to transfer and burn tokens (AC_MGR) This contract uses {AccessControl} to lock permissioned functions using the different roles - head to its documentation for details. The account that deploys the contract will be granted the minter and pauser roles, as well as the default admin role, which will let it grant both minter and pauser roles to other accounts.",
    "kind": "dev",
    "methods": {
      "allowance(address,address)": {
        "details": "See {IERC20-allowance}."
      },
      "approve(address,uint256)": {
        "details": "See {IERC20-approve}. Requirements: - `spender` cannot be the zero address."
      },
      "balanceOf(address)": {
        "details": "See {IERC20-balanceOf}."
      },
      "balanceOfAt(address,uint256)": {
        "details": "Retrieves the balance of `account` at the time `snapshotId` was created."
      },
      "burn(uint256)": {
        "details": "Destroys `amount` tokens from the caller. See {ERC20-_burn}."
      },
      "burnFrom(address,uint256)": {
        "details": "Destroys `amount` tokens from `account`, deducting from the caller's allowance. See {ERC20-_burn} and {ERC20-allowance}. Requirements: - the caller must have allowance for ``accounts``'s tokens of at least `amount`."
      },
      "cap()": {
        "details": "Returns the cap on the token's total supply."
      },
      "constructor": {
        "details": "Grants `DEFAULT_ADMIN_ROLE`, `CONTRACT_ADMIN_ROLE`, `MINTER_ROLE` and `PAUSER_ROLE` to the account that deploys the contract. See {ERC20-constructor}."
      },
      "decimals()": {
        "details": "Returns the number of decimals used to get its user representation. For example, if `decimals` equals `2`, a balance of `505` tokens should be displayed to a user as `5,05` (`505 / 10 ** 2`). Tokens usually opt for a value of 18, imitating the relationship between Ether and Wei. This is the value {ERC20} uses, unless this function is overloaded; NOTE: This information is only used for _display_ purposes: it in no way affects any of the arithmetic of the contract, including {IERC20-balanceOf} and {IERC20-transfer}."
      },
      "decreaseAllowance(address,uint256)": {
        "details": "Atomically decreases the allowance granted to `spender` by the caller. This is an alternative to {approve} that can be used as a mitigation for problems described in {IERC20-approve}. Emits an {Approval} event indicating the updated allowance. Requirements: - `spender` cannot be the zero address. - `spender` must have allowance for the caller of at least `subtractedValue`."
      },
      "getRoleAdmin(bytes32)": {
        "details": "Returns the admin role that controls `role`. See {grantRole} and {revokeRole}. To change a role's admin, use {_setRoleAdmin}."
      },
      "getRoleMember(bytes32,uint256)": {
        "details": "Returns one of the accounts that have `role`. `index` must be a value between 0 and {getRoleMemberCount}, non-inclusive. Role bearers are not sorted in any particular way, and their ordering may change at any point. WARNING: When using {getRoleMember} and {getRoleMemberCount}, make sure you perform all queries on the same block. See the following https://forum.openzeppelin.com/t/iterating-over-elements-on-enumerableset-in-openzeppelin-contracts/2296[forum post] for more information."
      },
      "getRoleMemberCount(bytes32)": {
        "details": "Returns the number of accounts that have `role`. Can be used together with {getRoleMember} to enumerate all bearers of a role."
      },
      "grantRole(bytes32,address)": {
        "details": "Grants `role` to `account`. If `account` had not been already granted `role`, emits a {RoleGranted} event. Requirements: - the caller must have ``role``'s admin role."
      },
      "hasRole(bytes32,address)": {
        "details": "Returns `true` if `account` has been granted `role`."
      },
      "increaseAllowance(address,uint256)": {
        "details": "Atomically increases the allowance granted to `spender` by the caller. This is an alternative to {approve} that can be used as a mitigation for problems described in {IERC20-approve}. Emits an {Approval} event indicating the updated allowance. Requirements: - `spender` cannot be the zero address."
      },
      "mint(address,uint256)": {
        "details": "Creates `_amount` new tokens for `to`. See {ERC20-_mint}. Requirements: - the caller must have the `MINTER_ROLE`."
      },
      "name()": {
        "details": "Returns the name of the token."
      },
      "pause()": {
        "details": "Pauses all token transfers. See {ERC20Pausable} and {Pausable-_pause}. Requirements: - the caller must have the `PAUSER_ROLE`."
      },
      "paused()": {
        "details": "Returns true if the contract is paused, and false otherwise."
      },
      "renounceRole(bytes32,address)": {
        "details": "Revokes `role` from the calling account. Roles are often managed via {grantRole} and {revokeRole}: this function's purpose is to provide a mechanism for accounts to lose their privileges if they are compromised (such as when a trusted device is misplaced). If the calling account had been granted `role`, emits a {RoleRevoked} event. Requirements: - the caller must be `account`."
      },
      "revokeRole(bytes32,address)": {
        "details": "Revokes `role` from `account`. If `account` had been granted `role`, emits a {RoleRevoked} event. Requirements: - the caller must have ``role``'s admin role."
      },
      "symbol()": {
        "details": "Returns the symbol of the token, usually a shorter version of the name."
      },
      "totalSupply()": {
        "details": "See {IERC20-totalSupply}."
      },
      "totalSupplyAt(uint256)": {
        "details": "Retrieves the total supply at the time `snapshotId` was created."
      },
      "transfer(address,uint256)": {
        "details": "See {IERC20-transfer}. Requirements: - `recipient` cannot be the zero address. - the caller must have a balance of at least `amount`."
      },
      "transferFrom(address,address,uint256)": {
        "details": "See {IERC20-transferFrom}. Emits an {Approval} event indicating the updated allowance. This is not required by the EIP. See the note at the beginning of {ERC20}. Requirements: - `sender` and `recipient` cannot be the zero address. - `sender` must have a balance of at least `amount`. - the caller must have allowance for ``sender``'s tokens of at least `amount`."
      },
      "unpause()": {
        "details": "Unpauses all token transfers. See {ERC20Pausable} and {Pausable-_unpause}. Requirements: - the caller must have the `PAUSER_ROLE`."
      }
    },
    "version": 1
  },
  "userdoc": {
    "kind": "user",
    "methods": {},
    "version": 1
  }
}