{
  "contractName": "VERIFY",
  "abi": [
    {
      "anonymous": false,
      "inputs": [
        {
          "indexed": false,
          "internalType": "address",
          "name": "account",
          "type": "address"
        }
      ],
      "name": "Paused",
      "type": "event"
    },
    {
      "anonymous": false,
      "inputs": [
        {
          "indexed": false,
          "internalType": "string",
          "name": "_msg",
          "type": "string"
        }
      ],
      "name": "REPORT",
      "type": "event"
    },
    {
      "anonymous": false,
      "inputs": [
        {
          "indexed": true,
          "internalType": "bytes32",
          "name": "role",
          "type": "bytes32"
        },
        {
          "indexed": true,
          "internalType": "bytes32",
          "name": "previousAdminRole",
          "type": "bytes32"
        },
        {
          "indexed": true,
          "internalType": "bytes32",
          "name": "newAdminRole",
          "type": "bytes32"
        }
      ],
      "name": "RoleAdminChanged",
      "type": "event"
    },
    {
      "anonymous": false,
      "inputs": [
        {
          "indexed": true,
          "internalType": "bytes32",
          "name": "role",
          "type": "bytes32"
        },
        {
          "indexed": true,
          "internalType": "address",
          "name": "account",
          "type": "address"
        },
        {
          "indexed": true,
          "internalType": "address",
          "name": "sender",
          "type": "address"
        }
      ],
      "name": "RoleGranted",
      "type": "event"
    },
    {
      "anonymous": false,
      "inputs": [
        {
          "indexed": true,
          "internalType": "bytes32",
          "name": "role",
          "type": "bytes32"
        },
        {
          "indexed": true,
          "internalType": "address",
          "name": "account",
          "type": "address"
        },
        {
          "indexed": true,
          "internalType": "address",
          "name": "sender",
          "type": "address"
        }
      ],
      "name": "RoleRevoked",
      "type": "event"
    },
    {
      "anonymous": false,
      "inputs": [
        {
          "indexed": false,
          "internalType": "address",
          "name": "account",
          "type": "address"
        }
      ],
      "name": "Unpaused",
      "type": "event"
    },
    {
      "inputs": [],
      "name": "ASSET_TXFR_ROLE",
      "outputs": [
        {
          "internalType": "bytes32",
          "name": "",
          "type": "bytes32"
        }
      ],
      "stateMutability": "view",
      "type": "function"
    },
    {
      "inputs": [],
      "name": "DEFAULT_ADMIN_ROLE",
      "outputs": [
        {
          "internalType": "bytes32",
          "name": "",
          "type": "bytes32"
        }
      ],
      "stateMutability": "view",
      "type": "function"
    },
    {
      "inputs": [],
      "name": "OO_resolveContractAddresses",
      "outputs": [],
      "stateMutability": "nonpayable",
      "type": "function"
    },
    {
      "inputs": [
        {
          "internalType": "address",
          "name": "_storageAddress",
          "type": "address"
        }
      ],
      "name": "OO_setStorageContract",
      "outputs": [],
      "stateMutability": "nonpayable",
      "type": "function"
    },
    {
      "inputs": [
        {
          "internalType": "address",
          "name": "_to",
          "type": "address"
        },
        {
          "internalType": "bytes32",
          "name": "_idxHash",
          "type": "bytes32"
        }
      ],
      "name": "OO_transferACToken",
      "outputs": [],
      "stateMutability": "nonpayable",
      "type": "function"
    },
    {
      "inputs": [],
      "name": "PAUSER_ROLE",
      "outputs": [
        {
          "internalType": "bytes32",
          "name": "",
          "type": "bytes32"
        }
      ],
      "stateMutability": "view",
      "type": "function"
    },
    {
      "inputs": [
        {
          "internalType": "bytes32",
          "name": "role",
          "type": "bytes32"
        }
      ],
      "name": "getRoleAdmin",
      "outputs": [
        {
          "internalType": "bytes32",
          "name": "",
          "type": "bytes32"
        }
      ],
      "stateMutability": "view",
      "type": "function"
    },
    {
      "inputs": [
        {
          "internalType": "bytes32",
          "name": "role",
          "type": "bytes32"
        },
        {
          "internalType": "uint256",
          "name": "index",
          "type": "uint256"
        }
      ],
      "name": "getRoleMember",
      "outputs": [
        {
          "internalType": "address",
          "name": "",
          "type": "address"
        }
      ],
      "stateMutability": "view",
      "type": "function"
    },
    {
      "inputs": [
        {
          "internalType": "bytes32",
          "name": "role",
          "type": "bytes32"
        }
      ],
      "name": "getRoleMemberCount",
      "outputs": [
        {
          "internalType": "uint256",
          "name": "",
          "type": "uint256"
        }
      ],
      "stateMutability": "view",
      "type": "function"
    },
    {
      "inputs": [
        {
          "internalType": "bytes32",
          "name": "role",
          "type": "bytes32"
        },
        {
          "internalType": "address",
          "name": "account",
          "type": "address"
        }
      ],
      "name": "grantRole",
      "outputs": [],
      "stateMutability": "nonpayable",
      "type": "function"
    },
    {
      "inputs": [
        {
          "internalType": "bytes32",
          "name": "role",
          "type": "bytes32"
        },
        {
          "internalType": "address",
          "name": "account",
          "type": "address"
        }
      ],
      "name": "hasRole",
      "outputs": [
        {
          "internalType": "bool",
          "name": "",
          "type": "bool"
        }
      ],
      "stateMutability": "view",
      "type": "function"
    },
    {
      "inputs": [
        {
          "internalType": "address",
          "name": "",
          "type": "address"
        },
        {
          "internalType": "address",
          "name": "",
          "type": "address"
        },
        {
          "internalType": "uint256",
          "name": "",
          "type": "uint256"
        },
        {
          "internalType": "bytes",
          "name": "",
          "type": "bytes"
        }
      ],
      "name": "onERC721Received",
      "outputs": [
        {
          "internalType": "bytes4",
          "name": "",
          "type": "bytes4"
        }
      ],
      "stateMutability": "nonpayable",
      "type": "function"
    },
    {
      "inputs": [],
      "name": "pause",
      "outputs": [],
      "stateMutability": "nonpayable",
      "type": "function"
    },
    {
      "inputs": [],
      "name": "paused",
      "outputs": [
        {
          "internalType": "bool",
          "name": "",
          "type": "bool"
        }
      ],
      "stateMutability": "view",
      "type": "function"
    },
    {
      "inputs": [
        {
          "internalType": "bytes32",
          "name": "role",
          "type": "bytes32"
        },
        {
          "internalType": "address",
          "name": "account",
          "type": "address"
        }
      ],
      "name": "renounceRole",
      "outputs": [],
      "stateMutability": "nonpayable",
      "type": "function"
    },
    {
      "inputs": [
        {
          "internalType": "bytes32",
          "name": "role",
          "type": "bytes32"
        },
        {
          "internalType": "address",
          "name": "account",
          "type": "address"
        }
      ],
      "name": "revokeRole",
      "outputs": [],
      "stateMutability": "nonpayable",
      "type": "function"
    },
    {
      "inputs": [
        {
          "internalType": "address",
          "name": "_to",
          "type": "address"
        },
        {
          "internalType": "bytes32",
          "name": "_idxHash",
          "type": "bytes32"
        }
      ],
      "name": "transferAssetToken",
      "outputs": [],
      "stateMutability": "nonpayable",
      "type": "function"
    },
    {
      "inputs": [],
      "name": "unpause",
      "outputs": [],
      "stateMutability": "nonpayable",
      "type": "function"
    },
    {
      "inputs": [
        {
          "internalType": "bytes32",
          "name": "_idxHash",
          "type": "bytes32"
        },
        {
          "internalType": "uint8",
          "name": "_verified",
          "type": "uint8"
        },
        {
          "internalType": "uint32",
          "name": "_assetClass",
          "type": "uint32"
        }
      ],
      "name": "authorizeTokenForVerify",
      "outputs": [],
      "stateMutability": "nonpayable",
      "type": "function"
    },
    {
      "inputs": [
        {
          "internalType": "bytes32",
          "name": "_idxHash",
          "type": "bytes32"
        },
        {
          "internalType": "bytes32",
          "name": "_itemHash",
          "type": "bytes32"
        },
        {
          "internalType": "uint32",
          "name": "maxCollisions",
          "type": "uint32"
        }
      ],
      "name": "safePutIn",
      "outputs": [
        {
          "internalType": "uint256",
          "name": "",
          "type": "uint256"
        }
      ],
      "stateMutability": "nonpayable",
      "type": "function"
    },
    {
      "inputs": [
        {
          "internalType": "bytes32",
          "name": "_idxHash",
          "type": "bytes32"
        },
        {
          "internalType": "bytes32",
          "name": "_itemHash",
          "type": "bytes32"
        }
      ],
      "name": "putIn",
      "outputs": [
        {
          "internalType": "uint256",
          "name": "",
          "type": "uint256"
        }
      ],
      "stateMutability": "nonpayable",
      "type": "function"
    },
    {
      "inputs": [
        {
          "internalType": "bytes32",
          "name": "_idxHash",
          "type": "bytes32"
        },
        {
          "internalType": "bytes32",
          "name": "_itemHash",
          "type": "bytes32"
        }
      ],
      "name": "takeOut",
      "outputs": [
        {
          "internalType": "uint256",
          "name": "",
          "type": "uint256"
        }
      ],
      "stateMutability": "nonpayable",
      "type": "function"
    },
    {
      "inputs": [
        {
          "internalType": "bytes32",
          "name": "_idxHash",
          "type": "bytes32"
        },
        {
          "internalType": "bytes32",
          "name": "_newIdxHash",
          "type": "bytes32"
        },
        {
          "internalType": "bytes32",
          "name": "_itemHash",
          "type": "bytes32"
        }
      ],
      "name": "transfer",
      "outputs": [
        {
          "internalType": "uint256",
          "name": "",
          "type": "uint256"
        }
      ],
      "stateMutability": "nonpayable",
      "type": "function"
    },
    {
      "inputs": [
        {
          "internalType": "bytes32",
          "name": "_idxHash",
          "type": "bytes32"
        },
        {
          "internalType": "bytes32",
          "name": "_itemHash",
          "type": "bytes32"
        }
      ],
      "name": "adminMarkCounterfeit",
      "outputs": [
        {
          "internalType": "uint256",
          "name": "",
          "type": "uint256"
        }
      ],
      "stateMutability": "nonpayable",
      "type": "function"
    },
    {
      "inputs": [
        {
          "internalType": "bytes32",
          "name": "_idxHash",
          "type": "bytes32"
        },
        {
          "internalType": "bytes32",
          "name": "_itemHash",
          "type": "bytes32"
        },
        {
          "internalType": "uint8",
          "name": "_status",
          "type": "uint8"
        },
        {
          "internalType": "uint32",
          "name": "_value",
          "type": "uint32"
        }
      ],
      "name": "markItem",
      "outputs": [
        {
          "internalType": "uint256",
          "name": "",
          "type": "uint256"
        }
      ],
      "stateMutability": "nonpayable",
      "type": "function"
    },
    {
      "inputs": [
        {
          "internalType": "bytes32",
          "name": "_itemHash",
          "type": "bytes32"
        }
      ],
      "name": "getItemData",
      "outputs": [
        {
          "internalType": "bytes32",
          "name": "",
          "type": "bytes32"
        },
        {
          "internalType": "uint8",
          "name": "",
          "type": "uint8"
        },
        {
          "internalType": "uint32",
          "name": "",
          "type": "uint32"
        },
        {
          "internalType": "uint32",
          "name": "",
          "type": "uint32"
        }
      ],
      "stateMutability": "view",
      "type": "function"
    }
  ],
  "bytecode": "0x60806040523480156200001157600080fd5b50600160009081556002805460ff191690556200003890620000326200006d565b62000071565b620000677f65d7a28e3265b37a6474929f336521b332c1681b933f6cb9f3376673440d862a620000326200006d565b62000183565b3390565b6200007d828262000081565b5050565b6000828152600160209081526040909120620000a8918390620022dc620000fc821b17901c565b156200007d57620000b86200006d565b6001600160a01b0316816001600160a01b0316837f2f8788117e7eff1d82e926ec794901d17c78024a50270940304540a733656f0d60405160405180910390a45050565b600062000113836001600160a01b0384166200011c565b90505b92915050565b60006200012a83836200016b565b620001625750815460018181018455600084815260208082209093018490558454848252828601909352604090209190915562000116565b50600062000116565b60009081526001919091016020526040902054151590565b612caf80620001936000396000f3fe608060405234801561001057600080fd5b506004361061018e5760003560e01c80638ea465ae116100de578063d4db5e9311610097578063d6b02ecf11610071578063d6b02ecf1461053c578063d8ec195814610562578063e63ab1e9146105ad578063e8b41653146105b55761018e565b8063d4db5e93146104b5578063d547741f146104ed578063d5acdd96146105195761018e565b80638ea465ae146103d65780639010d07c146103f957806391d1485414610438578063a217fddf14610464578063c79b226e1461046c578063ca15c873146104985761018e565b80633f4ba83a1161014b57806362ae1fab1161012557806362ae1fab146103445780637ff753ce1461037357806380c15e11146103a55780638456cb59146103ce5761018e565b80633f4ba83a146102f4578063440e7a7e146102fc5780635c975abb146103285761018e565b80631429db5f14610193578063150b7a02146101ad578063248a9ca31461025a5780632f2ff15d14610277578063337bb16d146102a557806336568abe146102c8575b600080fd5b61019b6105bd565b60408051918252519081900360200190f35b61023d600480360360808110156101c357600080fd5b6001600160a01b038235811692602081013590911691604082013591908101906080810160608201356401000000008111156101fe57600080fd5b82018360208201111561021057600080fd5b8035906020019184600183028401116401000000008311171561023257600080fd5b5090925090506105e1565b604080516001600160e01b03199092168252519081900360200190f35b61019b6004803603602081101561027057600080fd5b50356105f2565b6102a36004803603604081101561028d57600080fd5b50803590602001356001600160a01b0316610607565b005b61019b600480360360408110156102bb57600080fd5b5080359060200135610673565b6102a3600480360360408110156102de57600080fd5b50803590602001356001600160a01b03166108ba565b6102a361091b565b6102a36004803603604081101561031257600080fd5b506001600160a01b03813516906020013561098c565b610330610ae6565b604080519115158252519081900360200190f35b61019b6004803603606081101561035a57600080fd5b508035906020810135906040013563ffffffff16610aef565b6102a36004803603606081101561038957600080fd5b50803590602081013560ff16906040013563ffffffff16610d50565b61019b600480360360608110156103bb57600080fd5b5080359060208101359060400135610f13565b6102a3611276565b61019b600480360360408110156103ec57600080fd5b50803590602001356112e5565b61041c6004803603604081101561040f57600080fd5b5080359060200135611473565b604080516001600160a01b039092168252519081900360200190f35b6103306004803603604081101561044e57600080fd5b50803590602001356001600160a01b0316611494565b61019b6114ac565b6102a36004803603604081101561048257600080fd5b506001600160a01b0381351690602001356114b1565b61019b600480360360208110156104ae57600080fd5b50356115b3565b61019b600480360360808110156104cb57600080fd5b50803590602081013590604081013560ff16906060013563ffffffff166115ca565b6102a36004803603604081101561050357600080fd5b50803590602001356001600160a01b03166117df565b61019b6004803603604081101561052f57600080fd5b5080359060200135611838565b6102a36004803603602081101561055257600080fd5b50356001600160a01b0316611a3d565b61057f6004803603602081101561057857600080fd5b5035611aec565b6040805194855260ff909316602085015263ffffffff91821684840152166060830152519081900360800190f35b61019b611b28565b6102a3611b4c565b7f7f1e4e9f3d9ba0452a25cfef4cd4c6ffc86158d06ed2f585fa0093e12dec429c81565b630a85bd0160e11b95945050505050565b60009081526001602052604090206002015490565b60008281526001602052604090206002015461062a906106256122f1565b611494565b6106655760405162461bcd60e51b815260040180806020018281038252602f8152602001806129b3602f913960400191505060405180910390fd5b61066f82826122f5565b5050565b6000828061067f6122f1565b600954604080516331a9108f60e11b81526004810185905290516001600160a01b039384169390921691636352211e916024808201926020929091908290030181600087803b1580156106d157600080fd5b505af11580156106e5573d6000803e3d6000fd5b505050506040513d60208110156106fb57600080fd5b50516001600160a01b0316146107425760405162461bcd60e51b8152600401808060200182810382526035815260200180612a096035913960400191505060405180910390fd5b6000828152601a602052604090205460ff1661078f5760405162461bcd60e51b815260040180806020018281038252603a815260200180612bb3603a913960400191505060405180910390fd5b6000848152601860205260409020548514156107dc5760405162461bcd60e51b8152600401808060200182810382526022815260200180612a636022913960400191505060405180910390fd5b60008481526019602052604090205460ff16600314156107ff57600392506108b2565b60008481526019602052604090205460ff166002141561082257600292506108b2565b6000848152601860205260409020541561089c5760008481526019602052604090205463ffffffff600160281b909104811610156108935760008481526019602052604090208054600163ffffffff600160281b808404821692909201160268ffffffff0000000000199091161790555b600092506108b2565b600084815260186020526040902085905560aa92505b505092915050565b6108c26122f1565b6001600160a01b0316816001600160a01b0316146109115760405162461bcd60e51b815260040180806020018281038252602f815260200180612c4b602f913960400191505060405180910390fd5b61066f828261235e565b6109477f65d7a28e3265b37a6474929f336521b332c1681b933f6cb9f3376673440d862a6106256122f1565b6109825760405162461bcd60e51b8152600401808060200182810382526027815260200180612c246027913960400191505060405180910390fd5b61098a6123c7565b565b600260005414156109e4576040805162461bcd60e51b815260206004820152601f60248201527f5265656e7472616e637947756172643a207265656e7472616e742063616c6c00604482015290519081900360640190fd5b6002600055610a157f7f1e4e9f3d9ba0452a25cfef4cd4c6ffc86158d06ed2f585fa0093e12dec429c6106256122f1565b610a66576040805162461bcd60e51b815260206004820152601e60248201527f423a54583a4d75737420686176652041535345545f545846525f524f4c450000604482015290519081900360640190fd5b60095460408051632142170760e11b81523060048201526001600160a01b038581166024830152604482018590529151849392909216916342842e0e9160648082019260009290919082900301818387803b158015610ac457600080fd5b505af1158015610ad8573d6000803e3d6000fd5b505060016000555050505050565b60025460ff1690565b60008380610afb6122f1565b600954604080516331a9108f60e11b81526004810185905290516001600160a01b039384169390921691636352211e916024808201926020929091908290030181600087803b158015610b4d57600080fd5b505af1158015610b61573d6000803e3d6000fd5b505050506040513d6020811015610b7757600080fd5b50516001600160a01b031614610bbe5760405162461bcd60e51b8152600401808060200182810382526035815260200180612a096035913960400191505060405180910390fd5b6000828152601a602052604090205460ff16610c0b5760405162461bcd60e51b815260040180806020018281038252603a815260200180612bb3603a913960400191505060405180910390fd5b600085815260186020526040902054861415610c585760405162461bcd60e51b8152600401808060200182810382526022815260200180612a636022913960400191505060405180910390fd5b60008581526019602052604090205460ff1615610c885760008581526019602052604090205460ff169250610d47565b60008581526019602052604090205463ffffffff808616600160281b909204161115610cb75760649250610d47565b60008581526018602052604090205415610d315760008581526019602052604090205463ffffffff600160281b90910481161015610d285760008581526019602052604090208054600163ffffffff600160281b808404821692909201160268ffffffff0000000000199091161790555b60009250610d47565b600085815260186020526040902086905560aa92505b50509392505050565b610d5861290f565b610d6182612465565b9050610d6b612944565b610d748561253b565b9050610d7e6122f1565b600b54604080516331a9108f60e11b815263ffffffff8716600482015290516001600160a01b039384169390921691636352211e91602480820192602092909190829003018186803b158015610dd357600080fd5b505afa158015610de7573d6000803e3d6000fd5b505050506040513d6020811015610dfd57600080fd5b50516001600160a01b031614610e445760405162461bcd60e51b81526004018080602001828103825260278152602001806129e26027913960400191505060405180910390fd5b816040015160ff16600414610ea0576040805162461bcd60e51b815260206004820152601f60248201527f5646593a415446563a204143206e6f742056455249465920656e61626c656400604482015290519081900360640190fd5b8263ffffffff16816020015163ffffffff1614610eee5760405162461bcd60e51b8152600401808060200182810382526037815260200180612bed6037913960400191505060405180910390fd5b5050506000918252601a6020526040909120805460ff191660ff909216919091179055565b60008380610f1f6122f1565b600954604080516331a9108f60e11b81526004810185905290516001600160a01b039384169390921691636352211e916024808201926020929091908290030181600087803b158015610f7157600080fd5b505af1158015610f85573d6000803e3d6000fd5b505050506040513d6020811015610f9b57600080fd5b50516001600160a01b031614610fe25760405162461bcd60e51b8152600401808060200182810382526035815260200180612a096035913960400191505060405180910390fd5b6000828152601a602052604090205460ff1661102f5760405162461bcd60e51b815260040180806020018281038252603a815260200180612bb3603a913960400191505060405180910390fd5b611037612944565b6110408761253b565b905061104a612944565b6110538761253b565b60008781526018602052604090205490915088146110b8576040805162461bcd60e51b815260206004820152601e60248201527f5646593a544f3a6974656d206e6f742068656c642062792063616c6c65720000604482015290519081900360640190fd5b6005546020808401518382015160408051639852fdeb60e01b815263ffffffff9384166004820152929091166024830152516001600160a01b0390931692639852fdeb92604480840193919291829003018186803b15801561111957600080fd5b505afa15801561112d573d6000803e3d6000fd5b505050506040513d602081101561114357600080fd5b505160ff1660aa146111865760405162461bcd60e51b8152600401808060200182810382526031815260200180612b116031913960400191505060405180910390fd5b60008681526019602052604090205460ff16600214156111ed576040805162461bcd60e51b815260206004820152601e60248201527f5646593a50493a6974656d206d61726b656420636f756e746572666569740000604482015290519081900360640190fd5b60008681526019602052604090205460ff16600314801590611221575060008681526019602052604090205460ff16600414155b61125c5760405162461bcd60e51b8152600401808060200182810382526029815260200180612b8a6029913960400191505060405180910390fd5b50505060009283525050601860205260409020555060aa90565b6112a27f65d7a28e3265b37a6474929f336521b332c1681b933f6cb9f3376673440d862a6106256122f1565b6112dd5760405162461bcd60e51b8152600401808060200182810382526027815260200180612c246027913960400191505060405180910390fd5b61098a6126bd565b600082806112f16122f1565b600954604080516331a9108f60e11b81526004810185905290516001600160a01b039384169390921691636352211e916024808201926020929091908290030181600087803b15801561134357600080fd5b505af1158015611357573d6000803e3d6000fd5b505050506040513d602081101561136d57600080fd5b50516001600160a01b0316146113b45760405162461bcd60e51b8152600401808060200182810382526035815260200180612a096035913960400191505060405180910390fd5b6000828152601a602052604090205460ff166114015760405162461bcd60e51b815260040180806020018281038252603a815260200180612bb3603a913960400191505060405180910390fd5b6000858152601a602052604090205460ff166003146114515760405162461bcd60e51b8152600401808060200182810382526048815260200180612b426048913960600191505060405180910390fd5b5050506000908152601960205260409020805460ff191660021790555060aa90565b600082815260016020526040812061148b908361273e565b90505b92915050565b600082815260016020526040812061148b908361274a565b600081565b6114be60006106256122f1565b6114f95760405162461bcd60e51b8152600401808060200182810382526025815260200180612a856025913960400191505060405180910390fd5b60026000541415611551576040805162461bcd60e51b815260206004820152601f60248201527f5265656e7472616e637947756172643a207265656e7472616e742063616c6c00604482015290519081900360640190fd5b60026000908155600b5460408051632142170760e11b81523060048201526001600160a01b038681166024830152604482018690529151859492909316926342842e0e9260648084019391929182900301818387803b158015610ac457600080fd5b600081815260016020526040812061148e9061275f565b600084806115d66122f1565b600954604080516331a9108f60e11b81526004810185905290516001600160a01b039384169390921691636352211e916024808201926020929091908290030181600087803b15801561162857600080fd5b505af115801561163c573d6000803e3d6000fd5b505050506040513d602081101561165257600080fd5b50516001600160a01b0316146116995760405162461bcd60e51b8152600401808060200182810382526035815260200180612a096035913960400191505060405180910390fd5b6000828152601a602052604090205460ff166116e65760405162461bcd60e51b815260040180806020018281038252603a815260200180612bb3603a913960400191505060405180910390fd5b6000878152601a6020526040902054600260ff909116116117385760405162461bcd60e51b8152600401808060200182810382526037815260200180612ada6037913960400191505060405180910390fd5b600086815260186020526040902054871461179a576040805162461bcd60e51b815260206004820152601e60248201527f5646593a4d493a6974656d206e6f742068656c642062792063616c6c65720000604482015290519081900360640190fd5b6000868152601960205260409020805463ffffffff86166101000264ffffffff001960ff891660ff19909316929092179190911617905560aa92505050949350505050565b6000828152600160205260409020600201546117fd906106256122f1565b6109115760405162461bcd60e51b8152600401808060200182810382526030815260200180612aaa6030913960400191505060405180910390fd5b600082806118446122f1565b600954604080516331a9108f60e11b81526004810185905290516001600160a01b039384169390921691636352211e916024808201926020929091908290030181600087803b15801561189657600080fd5b505af11580156118aa573d6000803e3d6000fd5b505050506040513d60208110156118c057600080fd5b50516001600160a01b0316146119075760405162461bcd60e51b8152600401808060200182810382526035815260200180612a096035913960400191505060405180910390fd5b6000828152601a602052604090205460ff166119545760405162461bcd60e51b815260040180806020018281038252603a815260200180612bb3603a913960400191505060405180910390fd5b60008481526018602052604090205485146119b6576040805162461bcd60e51b815260206004820152601e60248201527f5646593a544f3a6974656d206e6f742068656c642062792063616c6c65720000604482015290519081900360640190fd5b60008481526019602052604090205460ff166003148015906119ea575060008481526019602052604090205460ff16600414155b611a255760405162461bcd60e51b8152600401808060200182810382526029815260200180612b8a6029913960400191505060405180910390fd5b5050506000908152601860205260408120555060aa90565b611a4a60006106256122f1565b611a855760405162461bcd60e51b8152600401808060200182810382526025815260200180612a856025913960400191505060405180910390fd5b6001600160a01b038116611aca5760405162461bcd60e51b8152600401808060200182810382526025815260200180612a3e6025913960400191505060405180910390fd5b600380546001600160a01b0319166001600160a01b0392909216919091179055565b60008181526018602090815260408083205460199092529091205460ff81169063ffffffff6101008204811691600160281b9004169193509193565b7f65d7a28e3265b37a6474929f336521b332c1681b933f6cb9f3376673440d862a81565b60026000541415611ba4576040805162461bcd60e51b815260206004820152601f60248201527f5265656e7472616e637947756172643a207265656e7472616e742063616c6c00604482015290519081900360640190fd5b60026000908155611bb7906106256122f1565b611bf25760405162461bcd60e51b8152600401808060200182810382526025815260200180612a856025913960400191505060405180910390fd5b600354604080516363b8d4c160e11b8152602060048201819052600660248301526520a1afaa25a760d11b604483015291516001600160a01b039093169263c771a98292606480840193919291829003018186803b158015611c5357600080fd5b505afa158015611c67573d6000803e3d6000fd5b505050506040513d6020811015611c7d57600080fd5b5051600a80546001600160a01b039283166001600160a01b03199182161791829055600b8054909116918316919091179055600354604080516363b8d4c160e11b8152602060048201819052600660248301526520a1afa6a3a960d11b60448301529151929093169263c771a9829260648083019392829003018186803b158015611d0757600080fd5b505afa158015611d1b573d6000803e3d6000fd5b505050506040513d6020811015611d3157600080fd5b5051600480546001600160a01b039283166001600160a01b03199182161780835560058054909216908416179055600354604080516363b8d4c160e11b8152602093810184905260086024820152672aaa24a62faa25a760c11b60448201529051919093169263c771a982926064808301939192829003018186803b158015611db957600080fd5b505afa158015611dcd573d6000803e3d6000fd5b505050506040513d6020811015611de357600080fd5b5051600680546001600160a01b039283166001600160a01b0319918216179182905560078054909116918316919091179055600354604080516363b8d4c160e11b8152602060048201819052600560248301526420afaa25a760d91b60448301529151929093169263c771a9829260648083019392829003018186803b158015611e6c57600080fd5b505afa158015611e80573d6000803e3d6000fd5b505050506040513d6020811015611e9657600080fd5b5051600880546001600160a01b039283166001600160a01b0319918216179182905560098054909116918316919091179055600354604080516363b8d4c160e11b8152602060048201819052600660248301526524a22faa25a760d11b60448301529151929093169263c771a9829260648083019392829003018186803b158015611f2057600080fd5b505afa158015611f34573d6000803e3d6000fd5b505050506040513d6020811015611f4a57600080fd5b5051600c80546001600160a01b039283166001600160a01b03199182161791829055600d8054909116918316919091179055600354604080516363b8d4c160e11b8152602060048201819052600760248301526622a1a92fa6a3a960c91b60448301529151929093169263c771a9829260648083019392829003018186803b158015611fd557600080fd5b505afa158015611fe9573d6000803e3d6000fd5b505050506040513d6020811015611fff57600080fd5b5051600e80546001600160a01b039283166001600160a01b03199182161791829055600f805490911691831691909117905560038054604080516363b8d4c160e11b815260206004820181905260248201949094526204150560ec1b60448201529051919093169263c771a982926064808301939192829003018186803b15801561208957600080fd5b505afa15801561209d573d6000803e3d6000fd5b505050506040513d60208110156120b357600080fd5b5051601280546001600160a01b039283166001600160a01b0319918216179182905560138054909116918316919091179055600354604080516363b8d4c160e11b8152602060048083018290526024830152632921a62960e11b60448301529151929093169263c771a9829260648083019392829003018186803b15801561213a57600080fd5b505afa15801561214e573d6000803e3d6000fd5b505050506040513d602081101561216457600080fd5b5051601080546001600160a01b039283166001600160a01b0319918216179182905560118054909116918316919091179055600354604080516363b8d4c160e11b815260206004820181905260066024830152654150505f4e4360d01b60448301529151929093169263c771a9829260648083019392829003018186803b1580156121ee57600080fd5b505afa158015612202573d6000803e3d6000fd5b505050506040513d602081101561221857600080fd5b5051601480546001600160a01b0319166001600160a01b03928316179055600354604080516363b8d4c160e11b8152602060048201819052600260248301526104e560f41b60448301529151929093169263c771a9829260648083019392829003018186803b15801561228a57600080fd5b505afa15801561229e573d6000803e3d6000fd5b505050506040513d60208110156122b457600080fd5b5051601780546001600160a01b0319166001600160a01b039092169190911790556001600055565b600061148b836001600160a01b03841661276a565b3390565b600082815260016020526040902061230d90826122dc565b1561066f5761231a6122f1565b6001600160a01b0316816001600160a01b0316837f2f8788117e7eff1d82e926ec794901d17c78024a50270940304540a733656f0d60405160405180910390a45050565b600082815260016020526040902061237690826127b4565b1561066f576123836122f1565b6001600160a01b0316816001600160a01b0316837ff6391f5c32d9c69d2a47ea670b442974b53935d1edc7fd64eb21e047a839171b60405160405180910390a45050565b60025460ff16612415576040805162461bcd60e51b815260206004820152601460248201527314185d5cd8589b194e881b9bdd081c185d5cd95960621b604482015290519081900360640190fd5b6002805460ff191690557f5db9ee0a495bf2e6ff9c91a7834c1ba4fdd244a5e8aa4e537bd38aeae4b073aa6124486122f1565b604080516001600160a01b039092168252519081900360200190a1565b61246d61290f565b61247561290f565b60055460408051630f24350160e41b815263ffffffff8616600482015290516001600160a01b039092169163f24350109160248082019260a092909190829003018186803b1580156124c657600080fd5b505afa1580156124da573d6000803e3d6000fd5b505050506040513d60a08110156124f057600080fd5b50805160208083015160408085015160608087015160809788015160a08a015263ffffffff908116978901979097529086169087015260ff9091169085015291169082015292915050565b612543612944565b61254b612944565b6000806000806000806000600360009054906101000a90046001600160a01b03166001600160a01b031663e248f2c48b6040518263ffffffff1660e01b81526004018082815260200191505060e06040518083038186803b1580156125af57600080fd5b505afa1580156125c3573d6000803e3d6000fd5b505050506040513d60e08110156125d957600080fd5b81019080805190602001909291908051906020019092919080519060200190929190805190602001909291908051906020019092919080519060200190929190805190602001909291905050509650965096509650965096509650868860c001818152505085886000019060ff16908160ff168152505084886020019063ffffffff16908163ffffffff168152505083886040019063ffffffff16908163ffffffff168152505082886060019063ffffffff16908163ffffffff1681525050818860e001818152505080886101000181815250505050505050505080915050919050565b60025460ff1615612708576040805162461bcd60e51b815260206004820152601060248201526f14185d5cd8589b194e881c185d5cd95960821b604482015290519081900360640190fd5b6002805460ff191660011790557f62e78cea01bee320cd4e420270b5ea74000d11b0c9f74754ebdbfc544b05a2586124486122f1565b600061148b83836127c9565b600061148b836001600160a01b03841661282d565b600061148e82612845565b6000612776838361282d565b6127ac5750815460018181018455600084815260208082209093018490558454848252828601909352604090209190915561148e565b50600061148e565b600061148b836001600160a01b038416612849565b8154600090821061280b5760405162461bcd60e51b81526004018080602001828103825260228152602001806129916022913960400191505060405180910390fd5b82600001828154811061281a57fe5b9060005260206000200154905092915050565b60009081526001919091016020526040902054151590565b5490565b60008181526001830160205260408120548015612905578354600019808301919081019060009087908390811061287c57fe5b906000526020600020015490508087600001848154811061289957fe5b6000918252602080832090910192909255828152600189810190925260409020908401905586548790806128c957fe5b6001900381819060005260206000200160009055905586600101600087815260200190815260200160002060009055600194505050505061148e565b600091505061148e565b6040805160c081018252606080825260006020830181905292820183905281018290526080810182905260a081019190915290565b6040805161012081018252600080825260208201819052918101829052606081018290526080810182905260a0810182905260c0810182905260e081018290526101008101919091529056fe456e756d657261626c655365743a20696e646578206f7574206f6620626f756e6473416363657373436f6e74726f6c3a2073656e646572206d75737420626520616e2061646d696e20746f206772616e745646593a415446563a2063616c6c657220646f6573206e6f7420686f6c6420414320746f6b656e5646593a4d4f442d49413a2043616c6c657220646f6573206e6f7420686f6c642076657269667920656e61626c656420746f6b656e423a5353433a2073746f7261676520616464726573732063616e6e6f74206265207a65726f5646593a50493a6974656d20616c72656164792068656c642062792063616c6c657250414d3a4d4f443a206d75737420686176652044454641554c545f41444d494e5f524f4c45416363657373436f6e74726f6c3a2073656e646572206d75737420626520616e2061646d696e20746f207265766f6b655646593a4d493a2043616c6c6572206e6f7420617574686f72697a65642061732061207665726966696564207573657220283e3d2033295646593a544f3a57616c6c6574206973206e6f7420696e207468652073616d6520617373657420636c61737320726f6f745646593a4d493a2043616c6c6572206e6f7420617574686f72697a656420617320612061646d696e2075736572202874797065332920696e2074686520617373657420636c6173735646593a543a4974656d20534e206973206d61726b6564206173206c6f7374206f722073746f6c656e5646593a4d4f442d49413a20546f6b656e20494458206e6f74206c697374656420696e2056455249465920617070726f76656420746f6b656e735646593a415446563a204143206f6620417373657420546f6b656e20646f6573206e6f74206d6174636820737570706c6965642041432041543a4d4f442d49413a43616c6c696e672061646472657373206973206e6f7420706175736572416363657373436f6e74726f6c3a2063616e206f6e6c792072656e6f756e636520726f6c657320666f722073656c66a2646970667358221220ee52736e53fc767958bbecf7e20e1e797fd0c4ea622cd092a7b956fd17580a3e64736f6c634300060c0033",
  "immutableReferences": {},
  "source": "/*--------------------------------------------------------PRuF0.7.1\n__/\\\\\\\\\\\\\\\\\\\\\\\\\\ _____/\\\\\\\\\\\\\\\\\\ _______/\\\\../\\\\ ___/\\\\\\\\\\\\\\\\\\\\\\\\\\\\\\\n _\\/\\\\\\/////////\\\\\\ _/\\\\\\///////\\\\\\ ____\\//..\\//____\\/\\\\\\///////////__\n  _\\/\\\\\\.......\\/\\\\\\.\\/\\\\\\.....\\/\\\\\\ ________________\\/\\\\\\ ____________\n   _\\/\\\\\\\\\\\\\\\\\\\\\\\\\\/__\\/\\\\\\\\\\\\\\\\\\\\\\/_____/\\\\\\____/\\\\\\.\\/\\\\\\\\\\\\\\\\\\\\\\ ____\n    _\\/\\\\\\/////////____\\/\\\\\\//////\\\\\\ ___\\/\\\\\\___\\/\\\\\\.\\/\\\\\\///////______\n     _\\/\\\\\\ ____________\\/\\\\\\ ___\\//\\\\\\ __\\/\\\\\\___\\/\\\\\\.\\/\\\\\\ ____________\n      _\\/\\\\\\ ____________\\/\\\\\\ ____\\//\\\\\\ _\\/\\\\\\___\\/\\\\\\.\\/\\\\\\ ____________\n       _\\/\\\\\\ ____________\\/\\\\\\ _____\\//\\\\\\.\\//\\\\\\\\\\\\\\\\\\ _\\/\\\\\\ ____________\n        _\\/// _____________\\/// _______\\/// __\\///////// __\\/// _____________\n         *-------------------------------------------------------------------*/\n\n/*-----------------------------------------------------------------\n *  TO DO\n *\n/*-----------------------------------------------------------------\n * only tokenHolder can put items \"in pouch\" \n * only trusted entities can take items \"out\"\n * only pouchholder can mark item status, auth as user type 1+ in asset class\n * joe public can check only?\n * statuses:\n *\n * 0 = no status; clean\n * 1 = items with this SN are questionable (found an item that is apparently not real) --settable/clearable by type 2-3 user\n * 2 = items with this SN are counterfeit (original, authentic item recovered (and held/destroyed), or SN does not officially exist) --settable/clearable by type 3 user\n * 3 = this item SN was stolen --settable/clearable by type 2-3 user\n * 4 = this item SN was lost --settable/clearable by type 2-3 user\n * 5 = this item SN is in process --settable by type 2-3 user - clearable by type 3 user \n * 6 =\n *\n * usertypes are indicated in idxAuthInVerify[_idxHash] \n * 0 not authorized\n * 1 basic auth\n * 2 priveledged level auth\n * 3 admin level auth\n *---------------------------------------------------------------*/\n\n// SPDX-License-Identifier: UNLICENSED\npragma solidity ^0.6.7;\n\nimport \"./PRUF_CORE.sol\";\nimport \"./PRUF_INTERFACES.sol\";\n\ncontract VERIFY is CORE {\n    using SafeMath for uint256;\n\n    struct ItemData {\n        uint8 status; //Item status (suspect, counterfeit, stolen, lost, etc) type 3+ user\n        uint32 value; //denomination, if applicable\n        uint32 collisions; //number of times the item was attempted to be \"locked\" when held\n        //room here for more data for 32 bytes!\n    }\n\n    mapping(bytes32 => bytes32) private items; // itemHash -> idxHash of the owning wallet\n    mapping(bytes32 => ItemData) private itemData; //itemhash -> itemdata\n\n    mapping(bytes32 => uint8) private idxAuthInVerify; //idxHash -> verification level\n\n    /**\n     * Requires:\n     *      the caller must posess Asset token _idxhash\n     *      Asset Token must be set to value = 1 in  idxAuthInVerify\n     */\n    modifier isAuthorized(bytes32 _idxHash) override {\n        //checks to see if caller holds the wallet token (asset token minted as a wallet)\n        uint256 tokenId = uint256(_idxHash);\n\n        require(\n            (A_TKN.ownerOf(tokenId) == _msgSender()), // ||\n            \"VFY:MOD-IA: Caller does not hold verify enabled token\"\n        );\n        require(\n            (idxAuthInVerify[_idxHash] > 0),\n            \"VFY:MOD-IA: Token IDX not listed in VERIFY approved tokens\" //must be auth or \"1\"\n        );\n        _;\n    }\n\n    /*\n     * @dev:authorize an asset token _idxHash as a wallet token in verify\n     *      the caller must posess AC token for given asset Class (reverts)\n     *      AC must be VERIFY custody type (4) (reverts)\n     *      AC of Asset token to be approved must be of the same assetClass as the held ACtoken (reverts)\n     */\n    function authorizeTokenForVerify(\n        bytes32 _idxHash,\n        uint8 _verified, //0 for not verify authorized, 1 for admin level auth, 2 for priveledged level auth and 3 = basic verify authorization\n        uint32 _assetClass\n    ) external {\n        AC memory ACdata = getACinfo(_assetClass);\n        Record memory rec = getRecord(_idxHash);\n\n        require(\n            AC_TKN.ownerOf(uint256(_assetClass)) == _msgSender(),\n            \"VFY:ATFV: caller does not hold AC token\"\n        );\n        require(ACdata.custodyType == 4, \"VFY:ATFV: AC not VERIFY enabled\");\n        require(\n            rec.assetClass == _assetClass,\n            \"VFY:ATFV: AC of Asset Token does not match supplied AC \"\n        );\n        //^^^^^^^checks^^^^^^^^^\n\n        idxAuthInVerify[_idxHash] = _verified;\n        //^^^^^^^effects^^^^^^^^^\n    }\n\n    /*\n     * @dev:Put an item into the (_idxHash) VERIFY wallet, with maximum assurances\n     *      the caller must posess Asset token, must pass isAuth (reverts)\n     *      item cannot already be registered as \"in\" the callers wallet (reverts)\n     *      itemData.status must be 0 (clean) (returns status)\n     *      Item collisions cannot exceed maxCollisions (returns 100)\n     *      If item is marked as held in another wallet, collisions++ (return 0)     \n     *      If item is not marked as held, it will be listed as held \"in\" the callers wallet (return 170)\n     */\n    function safePutIn(\n        bytes32 _idxHash,\n        bytes32 _itemHash,\n        uint32 maxCollisions\n    ) external isAuthorized(_idxHash) returns (uint256) {\n        require( //check to see if held by _idxHash\n            items[_itemHash] != _idxHash,\n            \"VFY:PI:item already held by caller\"\n        );\n        //^^^^^^^checks^^^^^^^^^\n\n        if (itemData[_itemHash].status != 0) {\n            //if status is not \"clean\" (0) return the status\n            return itemData[_itemHash].status;\n        }\n\n        if (itemData[_itemHash].collisions > maxCollisions) {\n            //if status is not \"clean\" (0) return the status\n            return 100; //return 100 if max collisions exceeded\n        }\n\n        if (items[_itemHash] != 0) {\n            if (itemData[_itemHash].collisions < 4294967295)\n                itemData[_itemHash].collisions++;\n            return 0;\n        } else {\n            items[_itemHash] = _idxHash; // put item _asset into wallet _idxHash\\\n            return 170;\n        }\n        //^^^^^^^effects / interactions^^^^^^^^^\n    }\n\n    /*\n     * @dev:Put an item into the (_idxHash) verify wallet\n     *      the caller must posess Asset token, must pass isAuth (reverts)\n     *      item cannot already be registered as \"in\" the callers wallet (reverts)\n     *      if status is stolen return 3\n     *      if status is counterfeit return 2\n     *      If item is marked as held in another wallet, collisions++ (return 0)\n     *      If item is not marked as held, it will be listed as held \"in\" the callers wallet (return 170)\n     */\n    function putIn(bytes32 _idxHash, bytes32 _itemHash)\n        external\n        isAuthorized(_idxHash)\n        returns (uint256)\n    {\n        require( //check to see if held by _idxHash\n            items[_itemHash] != _idxHash,\n            \"VFY:PI:item already held by caller\"\n        );\n        //^^^^^^^checks^^^^^^^^^\n\n        if (itemData[_itemHash].status == 3) {\n            //if status is stolen return 3\n            return 3;\n        }\n\n        if (itemData[_itemHash].status == 2) {\n            //if status is counterfeit return 2\n            return 2;\n        }\n\n        if (items[_itemHash] != 0) {\n            if (itemData[_itemHash].collisions < 4294967295)\n                itemData[_itemHash].collisions++;\n            return 0;\n        } else {\n            items[_itemHash] = _idxHash; // put item _asset into wallet _idxHash\\\n            return 170;\n        }\n        //^^^^^^^effects / interactions^^^^^^^^^\n    }\n\n    /*\n     * @dev:Take an item out of the (_idxHash) verify wallet\n     *      the caller must posess Asset token, must pass isAuth (reverts)\n     *      item must be registered as \"in\" the callers wallet (reverts)\n     *      must not be lost/stolen (reverts)\n     */\n    function takeOut(bytes32 _idxHash, bytes32 _itemHash)\n        external\n        isAuthorized(_idxHash)\n        returns (uint256)\n    {\n        require(items[_itemHash] == _idxHash, \"VFY:TO:item not held by caller\"); //check to see if held by _idxHash\n        require(\n            (itemData[_itemHash].status != 3) &&\n                (itemData[_itemHash].status != 4),\n            \"VFY:T:Item SN is marked as lost or stolen\"\n        );\n        //^^^^^^^checks^^^^^^^^^\n\n        delete items[_itemHash]; // release item _asset\n        //^^^^^^^effects^^^^^^^^^\n\n        return 170;\n        //^^^^^^^interactions^^^^^^^^^\n    }\n\n    /*\n     * @dev:Transfer an item out of one (_idxHash) verify wallet into another\n     *      the caller must posess Asset token, must pass isAuth (reverts)\n     *      item must be registered as \"in\" the callers wallet (reverts)\n     *      item must not be lost/stolen (reverts)\n     *      destination wallet must be in same asset class as sending wallet (reverts)\n     */\n    function transfer(\n        //IS THIS A TERRIBLE IDEA? EXAMINE\n        bytes32 _idxHash,\n        bytes32 _newIdxHash,\n        bytes32 _itemHash\n    ) external isAuthorized(_idxHash) returns (uint256) {\n        Record memory rec = getRecord(_idxHash);\n        Record memory newRec = getRecord(_newIdxHash);\n\n        require(items[_itemHash] == _idxHash, \"VFY:TO:item not held by caller\"); //check to see if held by _idxHash\n        require( //must move to same asset class root\n            AC_MGR.isSameRootAC(rec.assetClass, newRec.assetClass) == 170,\n            \"VFY:TO:Wallet is not in the same asset class root\"\n        );\n        require(\n            itemData[_itemHash].status != 2,\n            \"VFY:PI:item marked counterfeit\"\n        ); //check to see if item status is clean\n        require(\n            (itemData[_itemHash].status != 3) &&\n                (itemData[_itemHash].status != 4),\n            \"VFY:T:Item SN is marked as lost or stolen\"\n        );\n        //^^^^^^^checks^^^^^^^^^\n\n        items[_itemHash] = _newIdxHash; // transfer item _asset\n        //^^^^^^^effects^^^^^^^^^\n\n        return 170;\n        //^^^^^^^interactions^^^^^^^^^\n    }\n\n    /*\n     * @dev:Mark an item conterfeit . Admin function, user marks conterfeit regardless of who holds it\n     *      the caller must posess Asset token authorized at userlevel 3\n     */\n    function adminMarkCounterfeit(\n        bytes32 _idxHash,\n        bytes32 _itemHash\n    ) external isAuthorized(_idxHash) returns (uint256) {\n        require(\n            idxAuthInVerify[_idxHash] == 3, //token is auth amdmin\n            \"VFY:MI: Caller not authorized as a admin user (type3) in the asset class\"\n        );\n        //^^^^^^^checks^^^^^^^^^\n\n        itemData[_itemHash].status = 2;\n        //^^^^^^^effects^^^^^^^^^\n\n        return 170;\n        //^^^^^^^interactions^^^^^^^^^\n    }\n\n    /*\n     * @dev:Mark an item with a status (see docs at top of contract)\n     *      the caller must posess Asset token, must pass isAuth and user must be auth as a 3 in that AC (reverts)\n     *      item must be listed as \"in\" the callers wallet (reverts)\n     *      Other than that, unrestricted power to change ststus of held items\n     */\n    function markItem(\n        bytes32 _idxHash,\n        bytes32 _itemHash,\n        uint8 _status,\n        uint32 _value\n    ) external isAuthorized(_idxHash) returns (uint256) {\n        require(                                                             \n            idxAuthInVerify[_idxHash] > 2, //token is auth privelidged+\n            \"VFY:MI: Caller not authorized as a verified user (>= 3)\"\n        );\n\n        require(items[_itemHash] == _idxHash, \"VFY:MI:item not held by caller\"); //check to see if held by _idxHash\n        //^^^^^^^checks^^^^^^^^^\n\n        itemData[_itemHash].status = _status;\n        itemData[_itemHash].value = _value;\n        //^^^^^^^effects^^^^^^^^^\n\n        return 170;\n        //^^^^^^^interactions^^^^^^^^^\n    }\n\n    /*\n     * @dev:Retrieve data about an item\n     * unrestricted access\n     */\n    function getItemData(bytes32 _itemHash)\n        external\n        view\n        returns (\n            bytes32,\n            uint8,\n            uint32,\n            uint32\n        )\n    {\n        return (\n            items[_itemHash], //holding _idxHash, if any\n            itemData[_itemHash].status, //item status\n            itemData[_itemHash].value, //value field (example 10 for 10USD bill)\n            itemData[_itemHash].collisions //number of collisions on this serial number\n        );\n    }\n}\n\n/*-----------------------------------------------------------------\n *  TESTING\n *\n/*-----------------------------------------------------------------\n Make a 2 Verify AC's (custody type 4)\n make 2 assets in each new AC (1,2) (3,4)\n verify all 4 Assets as pruf verify wallets | 1 = 1 | 2 = 1 | 3 = 2 | 4 = 3 |\n\n put an item A in wallet 1 (should succeed)\n put an item B in wallet 1 (should succeed)\n try to put item A in wallet 2 (should fail) -- item already held, collision ++\n take item A out of wallet 1 (should succeed)\n put item A in wallet 2 (should succeed) \n transfer item A to wallet 3 (should fail)  -- non matching asset class\n transfer item A to wallet 1 (should succeed)\n take item A out of wallet 1 (should succeed)\n safePutIn item A to wallet 2 with collision threshold at 1 (should succeed)\n put item A to wallet 1 (should fail) -- item already held, collision ++\n take item A out of wallet 1 (should fail) -- not held in wallet\n take item A out of wallet 2 (should succeed)\n safePutIn item A to wallet 2 with collision threshold at 1 (should Fail) -- excess collisions\n safePutIn item A to wallet 3 with collision threshold at 2 (should succeed)\n transfer item A to wallet 1 (should fail) -- non matching asset class\n transfer item A to wallet 4 (should succeed)\n\n\n AdminMark item A as counterfeit (2) (should succeed)\n transfer item A to wallet 3 (should fail) -- counterfeit\n\n mark item A as in process (5)  (should succeed)\n transfer item A to wallet 3 (should succeed)\n\n mark item A as counterfeit (2) (should fail) -- not auth\n mark item A as lost (4) (should fail) -- in process\n take item A out of wallet 3 (should succeed)\n\n safePutIn item A to wallet 4 with collision threshold at 2 (should Fail) -- not clean\n PutIn item A to wallet 4 (should succeed)\n mark item A as clean (0) (should succeed)\n safePutIn item A to wallet 1 with collision threshold at 1 (should Fail) -- excess collisions\n safePutIn item A to wallet 1 with collision threshold at 2 (should succeed)\n PutIn item B to wallet 4 (should fail) -- item already held, collision ++\n take item B out of wallet 1 (should succeed)\n\n retrieve both items. \n item A should be status 0, collisions 2\n item B should be status 0, collisions 1\n\n\n * 0 = no status; clean\n * 1 = items with this SN are questionable (found an item that is apparently not real)\n * 2 = items with this SN are counterfeit (original, authentic item recovered (and held/destroyed), or SN does not officially exist) (SUPER AUTH ONLY)\n * 3 = this item SN was stolen\n * 4 = this item SN was lost\n * 5 = this item SN is in process\n * 6 =\n *\n * usertypes are indicated in idxAuthInVerify[_idxHash] \n * 0 not authorized\n * 1 basic auth\n * 2 priveledged level auth\n * 3 admin level auth\n *---------------------------------------------------------------*/\n",
  "sourcePath": "/Users/cts/dev/PRUF/PRUF_TRUFFLE/contracts/PRUF_VERIFY.sol",
  "compiler": {
    "name": "solc",
    "version": "0.6.12+commit.27d51765.Emscripten.clang"
  },
  "schemaVersion": "3.2.3",
  "updatedAt": "2020-12-13T01:45:41.991Z",
  "devdoc": {
    "kind": "dev",
    "methods": {
      "getRoleAdmin(bytes32)": {
        "details": "Returns the admin role that controls `role`. See {grantRole} and {revokeRole}. To change a role's admin, use {_setRoleAdmin}."
      },
      "getRoleMember(bytes32,uint256)": {
        "details": "Returns one of the accounts that have `role`. `index` must be a value between 0 and {getRoleMemberCount}, non-inclusive. Role bearers are not sorted in any particular way, and their ordering may change at any point. WARNING: When using {getRoleMember} and {getRoleMemberCount}, make sure you perform all queries on the same block. See the following https://forum.openzeppelin.com/t/iterating-over-elements-on-enumerableset-in-openzeppelin-contracts/2296[forum post] for more information."
      },
      "getRoleMemberCount(bytes32)": {
        "details": "Returns the number of accounts that have `role`. Can be used together with {getRoleMember} to enumerate all bearers of a role."
      },
      "grantRole(bytes32,address)": {
        "details": "Grants `role` to `account`. If `account` had not been already granted `role`, emits a {RoleGranted} event. Requirements: - the caller must have ``role``'s admin role."
      },
      "hasRole(bytes32,address)": {
        "details": "Returns `true` if `account` has been granted `role`."
      },
      "pause()": {
        "details": "Triggers stopped state. (pausable)"
      },
      "paused()": {
        "details": "Returns true if the contract is paused, and false otherwise."
      },
      "renounceRole(bytes32,address)": {
        "details": "Revokes `role` from the calling account. Roles are often managed via {grantRole} and {revokeRole}: this function's purpose is to provide a mechanism for accounts to lose their privileges if they are compromised (such as when a trusted device is misplaced). If the calling account had been granted `role`, emits a {RoleRevoked} event. Requirements: - the caller must be `account`."
      },
      "revokeRole(bytes32,address)": {
        "details": "Revokes `role` from `account`. If `account` had been granted `role`, emits a {RoleRevoked} event. Requirements: - the caller must have ``role``'s admin role."
      },
      "unpause()": {
        "details": "Returns to normal state. (pausable)"
      }
    },
    "version": 1
  },
  "userdoc": {
    "kind": "user",
    "methods": {},
    "version": 1
  }
}