{
  "contractName": "VERIFY",
  "abi": [
    {
      "anonymous": false,
      "inputs": [
        {
          "indexed": false,
          "internalType": "address",
          "name": "account",
          "type": "address"
        }
      ],
      "name": "Paused",
      "type": "event"
    },
    {
      "anonymous": false,
      "inputs": [
        {
          "indexed": false,
          "internalType": "string",
          "name": "_msg",
          "type": "string"
        }
      ],
      "name": "REPORT",
      "type": "event"
    },
    {
      "anonymous": false,
      "inputs": [
        {
          "indexed": true,
          "internalType": "bytes32",
          "name": "role",
          "type": "bytes32"
        },
        {
          "indexed": true,
          "internalType": "bytes32",
          "name": "previousAdminRole",
          "type": "bytes32"
        },
        {
          "indexed": true,
          "internalType": "bytes32",
          "name": "newAdminRole",
          "type": "bytes32"
        }
      ],
      "name": "RoleAdminChanged",
      "type": "event"
    },
    {
      "anonymous": false,
      "inputs": [
        {
          "indexed": true,
          "internalType": "bytes32",
          "name": "role",
          "type": "bytes32"
        },
        {
          "indexed": true,
          "internalType": "address",
          "name": "account",
          "type": "address"
        },
        {
          "indexed": true,
          "internalType": "address",
          "name": "sender",
          "type": "address"
        }
      ],
      "name": "RoleGranted",
      "type": "event"
    },
    {
      "anonymous": false,
      "inputs": [
        {
          "indexed": true,
          "internalType": "bytes32",
          "name": "role",
          "type": "bytes32"
        },
        {
          "indexed": true,
          "internalType": "address",
          "name": "account",
          "type": "address"
        },
        {
          "indexed": true,
          "internalType": "address",
          "name": "sender",
          "type": "address"
        }
      ],
      "name": "RoleRevoked",
      "type": "event"
    },
    {
      "anonymous": false,
      "inputs": [
        {
          "indexed": false,
          "internalType": "address",
          "name": "account",
          "type": "address"
        }
      ],
      "name": "Unpaused",
      "type": "event"
    },
    {
      "inputs": [],
      "name": "ASSET_TXFR_ROLE",
      "outputs": [
        {
          "internalType": "bytes32",
          "name": "",
          "type": "bytes32"
        }
      ],
      "stateMutability": "view",
      "type": "function"
    },
    {
      "inputs": [],
      "name": "CONTRACT_ADMIN_ROLE",
      "outputs": [
        {
          "internalType": "bytes32",
          "name": "",
          "type": "bytes32"
        }
      ],
      "stateMutability": "view",
      "type": "function"
    },
    {
      "inputs": [],
      "name": "DAO_ROLE",
      "outputs": [
        {
          "internalType": "bytes32",
          "name": "",
          "type": "bytes32"
        }
      ],
      "stateMutability": "view",
      "type": "function"
    },
    {
      "inputs": [],
      "name": "DEFAULT_ADMIN_ROLE",
      "outputs": [
        {
          "internalType": "bytes32",
          "name": "",
          "type": "bytes32"
        }
      ],
      "stateMutability": "view",
      "type": "function"
    },
    {
      "inputs": [
        {
          "internalType": "address",
          "name": "_tokenContract",
          "type": "address"
        },
        {
          "internalType": "address",
          "name": "_to",
          "type": "address"
        },
        {
          "internalType": "uint256",
          "name": "_amount",
          "type": "uint256"
        }
      ],
      "name": "ERC20Transfer",
      "outputs": [],
      "stateMutability": "nonpayable",
      "type": "function"
    },
    {
      "inputs": [
        {
          "internalType": "address",
          "name": "_tokenContract",
          "type": "address"
        },
        {
          "internalType": "address",
          "name": "_to",
          "type": "address"
        },
        {
          "internalType": "uint256",
          "name": "_tokenID",
          "type": "uint256"
        }
      ],
      "name": "ERC721Transfer",
      "outputs": [],
      "stateMutability": "nonpayable",
      "type": "function"
    },
    {
      "inputs": [],
      "name": "PAUSER_ROLE",
      "outputs": [
        {
          "internalType": "bytes32",
          "name": "",
          "type": "bytes32"
        }
      ],
      "stateMutability": "view",
      "type": "function"
    },
    {
      "inputs": [
        {
          "internalType": "bytes32",
          "name": "role",
          "type": "bytes32"
        }
      ],
      "name": "getRoleAdmin",
      "outputs": [
        {
          "internalType": "bytes32",
          "name": "",
          "type": "bytes32"
        }
      ],
      "stateMutability": "view",
      "type": "function"
    },
    {
      "inputs": [
        {
          "internalType": "bytes32",
          "name": "role",
          "type": "bytes32"
        },
        {
          "internalType": "address",
          "name": "account",
          "type": "address"
        }
      ],
      "name": "grantRole",
      "outputs": [],
      "stateMutability": "nonpayable",
      "type": "function"
    },
    {
      "inputs": [
        {
          "internalType": "bytes32",
          "name": "role",
          "type": "bytes32"
        },
        {
          "internalType": "address",
          "name": "account",
          "type": "address"
        }
      ],
      "name": "hasRole",
      "outputs": [
        {
          "internalType": "bool",
          "name": "",
          "type": "bool"
        }
      ],
      "stateMutability": "view",
      "type": "function"
    },
    {
      "inputs": [
        {
          "internalType": "address",
          "name": "",
          "type": "address"
        },
        {
          "internalType": "address",
          "name": "",
          "type": "address"
        },
        {
          "internalType": "uint256",
          "name": "",
          "type": "uint256"
        },
        {
          "internalType": "bytes",
          "name": "",
          "type": "bytes"
        }
      ],
      "name": "onERC721Received",
      "outputs": [
        {
          "internalType": "bytes4",
          "name": "",
          "type": "bytes4"
        }
      ],
      "stateMutability": "nonpayable",
      "type": "function"
    },
    {
      "inputs": [],
      "name": "pause",
      "outputs": [],
      "stateMutability": "nonpayable",
      "type": "function"
    },
    {
      "inputs": [],
      "name": "paused",
      "outputs": [
        {
          "internalType": "bool",
          "name": "",
          "type": "bool"
        }
      ],
      "stateMutability": "view",
      "type": "function"
    },
    {
      "inputs": [
        {
          "internalType": "bytes32",
          "name": "role",
          "type": "bytes32"
        },
        {
          "internalType": "address",
          "name": "account",
          "type": "address"
        }
      ],
      "name": "renounceRole",
      "outputs": [],
      "stateMutability": "nonpayable",
      "type": "function"
    },
    {
      "inputs": [],
      "name": "resolveContractAddresses",
      "outputs": [],
      "stateMutability": "nonpayable",
      "type": "function"
    },
    {
      "inputs": [
        {
          "internalType": "bytes32",
          "name": "role",
          "type": "bytes32"
        },
        {
          "internalType": "address",
          "name": "account",
          "type": "address"
        }
      ],
      "name": "revokeRole",
      "outputs": [],
      "stateMutability": "nonpayable",
      "type": "function"
    },
    {
      "inputs": [
        {
          "internalType": "address",
          "name": "_storageAddress",
          "type": "address"
        }
      ],
      "name": "setStorageContract",
      "outputs": [],
      "stateMutability": "nonpayable",
      "type": "function"
    },
    {
      "inputs": [
        {
          "internalType": "bytes4",
          "name": "interfaceId",
          "type": "bytes4"
        }
      ],
      "name": "supportsInterface",
      "outputs": [
        {
          "internalType": "bool",
          "name": "",
          "type": "bool"
        }
      ],
      "stateMutability": "view",
      "type": "function"
    },
    {
      "inputs": [],
      "name": "unpause",
      "outputs": [],
      "stateMutability": "nonpayable",
      "type": "function"
    },
    {
      "inputs": [
        {
          "internalType": "bytes32",
          "name": "_idxHash",
          "type": "bytes32"
        },
        {
          "internalType": "uint8",
          "name": "_verified",
          "type": "uint8"
        },
        {
          "internalType": "uint32",
          "name": "_node",
          "type": "uint32"
        }
      ],
      "name": "authorizeTokenForVerify",
      "outputs": [],
      "stateMutability": "nonpayable",
      "type": "function"
    },
    {
      "inputs": [
        {
          "internalType": "bytes32",
          "name": "_idxHash",
          "type": "bytes32"
        },
        {
          "internalType": "bytes32",
          "name": "_itemHash",
          "type": "bytes32"
        },
        {
          "internalType": "uint32",
          "name": "maxCollisions",
          "type": "uint32"
        }
      ],
      "name": "safePutIn",
      "outputs": [
        {
          "internalType": "uint256",
          "name": "",
          "type": "uint256"
        }
      ],
      "stateMutability": "nonpayable",
      "type": "function"
    },
    {
      "inputs": [
        {
          "internalType": "bytes32",
          "name": "_idxHash",
          "type": "bytes32"
        },
        {
          "internalType": "bytes32",
          "name": "_itemHash",
          "type": "bytes32"
        }
      ],
      "name": "putIn",
      "outputs": [
        {
          "internalType": "uint256",
          "name": "",
          "type": "uint256"
        }
      ],
      "stateMutability": "nonpayable",
      "type": "function"
    },
    {
      "inputs": [
        {
          "internalType": "bytes32",
          "name": "_idxHash",
          "type": "bytes32"
        },
        {
          "internalType": "bytes32",
          "name": "_itemHash",
          "type": "bytes32"
        }
      ],
      "name": "takeOut",
      "outputs": [
        {
          "internalType": "uint256",
          "name": "",
          "type": "uint256"
        }
      ],
      "stateMutability": "nonpayable",
      "type": "function"
    },
    {
      "inputs": [
        {
          "internalType": "bytes32",
          "name": "_idxHash",
          "type": "bytes32"
        },
        {
          "internalType": "bytes32",
          "name": "_newIdxHash",
          "type": "bytes32"
        },
        {
          "internalType": "bytes32",
          "name": "_itemHash",
          "type": "bytes32"
        }
      ],
      "name": "transfer",
      "outputs": [
        {
          "internalType": "uint256",
          "name": "",
          "type": "uint256"
        }
      ],
      "stateMutability": "nonpayable",
      "type": "function"
    },
    {
      "inputs": [
        {
          "internalType": "bytes32",
          "name": "_idxHash",
          "type": "bytes32"
        },
        {
          "internalType": "bytes32",
          "name": "_itemHash",
          "type": "bytes32"
        }
      ],
      "name": "markCounterfeit",
      "outputs": [
        {
          "internalType": "uint256",
          "name": "",
          "type": "uint256"
        }
      ],
      "stateMutability": "nonpayable",
      "type": "function"
    },
    {
      "inputs": [
        {
          "internalType": "bytes32",
          "name": "_idxHash",
          "type": "bytes32"
        },
        {
          "internalType": "bytes32",
          "name": "_itemHash",
          "type": "bytes32"
        },
        {
          "internalType": "uint8",
          "name": "_status",
          "type": "uint8"
        },
        {
          "internalType": "uint32",
          "name": "_value",
          "type": "uint32"
        }
      ],
      "name": "markItem",
      "outputs": [
        {
          "internalType": "uint256",
          "name": "",
          "type": "uint256"
        }
      ],
      "stateMutability": "nonpayable",
      "type": "function"
    },
    {
      "inputs": [
        {
          "internalType": "bytes32",
          "name": "_itemHash",
          "type": "bytes32"
        }
      ],
      "name": "getItemData",
      "outputs": [
        {
          "internalType": "bytes32",
          "name": "",
          "type": "bytes32"
        },
        {
          "internalType": "uint8",
          "name": "",
          "type": "uint8"
        },
        {
          "internalType": "uint32",
          "name": "",
          "type": "uint32"
        },
        {
          "internalType": "uint32",
          "name": "",
          "type": "uint32"
        }
      ],
      "stateMutability": "view",
      "type": "function"
    }
  ],
  "bytecode": "0x60806040523480156200001157600080fd5b50600160009081556002805460ff191690556200002f90336200008d565b6200005b7f2ce8d04a9c35987429af538825cd2438cc5c5bb5dc427955f84daaa3ea105016336200008d565b620000877f65d7a28e3265b37a6474929f336521b332c1681b933f6cb9f3376673440d862a336200008d565b62000125565b6200009982826200009d565b5050565b60008281526001602090815260408083206001600160a01b038516845290915290205460ff16620000995760008281526001602081815260408084206001600160a01b0386168086529252808420805460ff19169093179092559051339285917f2f8788117e7eff1d82e926ec794901d17c78024a50270940304540a733656f0d9190a45050565b612e2080620001356000396000f3fe608060405234801561001057600080fd5b50600436106101a95760003560e01c806380c15e11116100f9578063d8ec195811610097578063e5f815dc11610071578063e5f815dc14610422578063e63ab1e914610435578063e9c265181461045c578063ee9c25c51461048357600080fd5b8063d8ec195814610384578063dc38b0a2146103fc578063e59fdd361461040f57600080fd5b8063a217fddf116100d3578063a217fddf14610343578063d4db5e931461034b578063d547741f1461035e578063d5acdd961461037157600080fd5b806380c15e11146103155780638456cb591461032857806391d148541461033057600080fd5b80632f2ff15d116101665780633f4ba83a116101405780633f4ba83a146102dc5780635c975abb146102e457806362ae1fab146102ef5780637ff753ce1461030257600080fd5b80632f2ff15d146102a1578063337bb16d146102b657806336568abe146102c957600080fd5b806301ffc9a7146101ae57806313552137146101d65780631429db5f146101f7578063150b7a021461021e5780631da0331214610256578063248a9ca31461027d575b600080fd5b6101c16101bc366004612814565b61048b565b60405190151581526020015b60405180910390f35b6101e96101e436600461270c565b6104c2565b6040519081526020016101cd565b6101e97f7f1e4e9f3d9ba0452a25cfef4cd4c6ffc86158d06ed2f585fa0093e12dec429c81565b61023d61022c366004612602565b630a85bd0160e11b95945050505050565b6040516001600160e01b031990911681526020016101cd565b6101e97f2ce8d04a9c35987429af538825cd2438cc5c5bb5dc427955f84daaa3ea10501681565b6101e961028b3660046126c3565b6000908152600160208190526040909120015490565b6102b46102af3660046126dc565b610653565b005b6101e96102c436600461270c565b61067f565b6102b46102d73660046126dc565b6108ae565b6102b461092c565b60025460ff166101c1565b6101e96102fd36600461275a565b61097c565b6102b46103103660046127dd565b610bc9565b6101e961032336600461272e565b610ddc565b6102b4611136565b6101c161033e3660046126dc565b611184565b6101e9600081565b6101e9610359366004612793565b6111af565b6102b461036c3660046126dc565b6113ab565b6101e961037f36600461270c565b6113d2565b6103ce6103923660046126c3565b60008181526016602090815260408083205460179092529091205460ff81169063ffffffff6101008204811691600160281b9004169193509193565b6040805194855260ff909316602085015263ffffffff918216928401929092521660608201526080016101cd565b6102b461040a366004612587565b6115b6565b6102b461041d3660046125c1565b611669565b6102b46104303660046125c1565b61176a565b6101e97f65d7a28e3265b37a6474929f336521b332c1681b933f6cb9f3376673440d862a81565b6101e97f3b5d4cc60d3ec3516ee8ae083bd60934f6eb2a6c54b1229985c41bfb092b260381565b6102b461184a565b60006001600160e01b03198216637965db0b60e01b14806104bc57506301ffc9a760e01b6001600160e01b03198316145b92915050565b6000828033600b546040516331a9108f60e11b8152600481018490526001600160a01b039283169290911690636352211e90602401602060405180830381600087803b15801561051157600080fd5b505af1158015610525573d6000803e3d6000fd5b505050506040513d601f19601f8201168201806040525081019061054991906125a4565b6001600160a01b0316146105785760405162461bcd60e51b815260040161056f90612ac6565b60405180910390fd5b60008281526018602052604090205460ff166105a65760405162461bcd60e51b815260040161056f90612beb565b60008581526018602052604090205460ff1660031461062d5760405162461bcd60e51b815260206004820152603e60248201527f5646593a414d433a2043616c6c6572206e6f7420617574686f72697a6564206160448201527f7320612061646d696e2075736572202874797065332920696e206e6f64650000606482015260840161056f565b6000848152601760205260409020805460ff1916600217905560aa92505b505092915050565b600082815260016020819052604090912001546106708133611f2d565b61067a8383611f91565b505050565b6000828033600b546040516331a9108f60e11b8152600481018490526001600160a01b039283169290911690636352211e90602401602060405180830381600087803b1580156106ce57600080fd5b505af11580156106e2573d6000803e3d6000fd5b505050506040513d601f19601f8201168201806040525081019061070691906125a4565b6001600160a01b03161461072c5760405162461bcd60e51b815260040161056f90612ac6565b60008281526018602052604090205460ff1661075a5760405162461bcd60e51b815260040161056f90612beb565b6000848152601660205260409020548514156107c45760405162461bcd60e51b815260206004820152602360248201527f5646593a50493a204974656d20616c72656164792068656c642062792063616c6044820152623632b960e91b606482015260840161056f565b60008481526017602052604090205460ff16600314156107e7576003925061064b565b60008481526017602052604090205460ff166002141561080a576002925061064b565b600084815260166020526040902054156108945760008481526017602052604090205463ffffffff600160281b9091048116101561088b5760008481526017602052604090208054600160281b900463ffffffff1690600561086b83612d4b565b91906101000a81548163ffffffff021916908363ffffffff160217905550505b6000925061064b565b600084815260166020526040902085905560aa925061064b565b6001600160a01b038116331461091e5760405162461bcd60e51b815260206004820152602f60248201527f416363657373436f6e74726f6c3a2063616e206f6e6c792072656e6f756e636560448201526e103937b632b9903337b91039b2b63360891b606482015260840161056f565b6109288282611ffc565b5050565b6109567f65d7a28e3265b37a6474929f336521b332c1681b933f6cb9f3376673440d862a33611184565b6109725760405162461bcd60e51b815260040161056f90612ba5565b61097a612063565b565b6000838033600b546040516331a9108f60e11b8152600481018490526001600160a01b039283169290911690636352211e90602401602060405180830381600087803b1580156109cb57600080fd5b505af11580156109df573d6000803e3d6000fd5b505050506040513d601f19601f82011682018060405250810190610a0391906125a4565b6001600160a01b031614610a295760405162461bcd60e51b815260040161056f90612ac6565b60008281526018602052604090205460ff16610a575760405162461bcd60e51b815260040161056f90612beb565b600085815260166020526040902054861415610ac15760405162461bcd60e51b8152602060048201526024808201527f5646593a5350493a204974656d20616c72656164792068656c64206279206361604482015263363632b960e11b606482015260840161056f565b60008581526017602052604090205460ff1615610af15760008581526017602052604090205460ff169250610bc0565b60008581526017602052604090205463ffffffff808616600160281b909204161115610b205760649250610bc0565b60008581526016602052604090205415610baa5760008581526017602052604090205463ffffffff600160281b90910481161015610ba15760008581526017602052604090208054600160281b900463ffffffff16906005610b8183612d4b565b91906101000a81548163ffffffff021916908363ffffffff160217905550505b60009250610bc0565b600085815260166020526040902086905560aa92505b50509392505050565b6000610bd4826120f6565b90506000610be1856121ca565b905033600d546040516331a9108f60e11b815263ffffffff861660048201526001600160a01b039283169290911690636352211e9060240160206040518083038186803b158015610c3157600080fd5b505afa158015610c45573d6000803e3d6000fd5b505050506040513d601f19601f82011682018060405250810190610c6991906125a4565b6001600160a01b031614610cd15760405162461bcd60e51b815260206004820152602960248201527f5646593a415446563a2063616c6c657220646f6573206e6f7420686f6c64206e60448201526837b232903a37b5b2b760b91b606482015260840161056f565b816000015160ff16600414610d325760405162461bcd60e51b815260206004820152602160248201527f5646593a415446563a206e6f6465206e6f742056455249465920656e61626c656044820152601960fa1b606482015260840161056f565b8263ffffffff16816060015163ffffffff1614610db75760405162461bcd60e51b815260206004820152603b60248201527f5646593a415446563a206e6f6465206f6620417373657420546f6b656e20646f60448201527f6573206e6f74206d6174636820737570706c696564206e6f6465200000000000606482015260840161056f565b505050600091825260186020526040909120805460ff191660ff909216919091179055565b6000838033600b546040516331a9108f60e11b8152600481018490526001600160a01b039283169290911690636352211e90602401602060405180830381600087803b158015610e2b57600080fd5b505af1158015610e3f573d6000803e3d6000fd5b505050506040513d601f19601f82011682018060405250810190610e6391906125a4565b6001600160a01b031614610e895760405162461bcd60e51b815260040161056f90612ac6565b60008281526018602052604090205460ff16610eb75760405162461bcd60e51b815260040161056f90612beb565b6000610ec2876121ca565b90506000610ecf876121ca565b6000878152601660205260409020549091508814610f2f5760405162461bcd60e51b815260206004820152601e60248201527f5646593a543a204974656d206e6f742068656c642062792063616c6c65720000604482015260640161056f565b60075460608381015190830151604051635deacebd60e01b815263ffffffff9283166004820152911660248201526001600160a01b0390911690635deacebd9060440160206040518083038186803b158015610f8a57600080fd5b505afa158015610f9e573d6000803e3d6000fd5b505050506040513d601f19601f82011682018060405250810190610fc29190612a01565b60ff1660aa146110275760405162461bcd60e51b815260206004820152602a60248201527f5646593a543a2057616c6c6574206973206e6f7420696e207468652073616d65604482015269081b9bd919481c9bdbdd60b21b606482015260840161056f565b60008681526017602052604090205460ff16600214156110895760405162461bcd60e51b815260206004820152601e60248201527f5646593a543a204974656d206d61726b656420636f756e746572666569740000604482015260640161056f565b60008681526017602052604090205460ff166003148015906110bd575060008681526017602052604090205460ff16600414155b61111c5760405162461bcd60e51b815260206004820152602a60248201527f5646593a543a204974656d20534e206973206d61726b6564206173206c6f73746044820152691037b91039ba37b632b760b11b606482015260840161056f565b50505060009283525050601660205260409020555060aa90565b6111607f65d7a28e3265b37a6474929f336521b332c1681b933f6cb9f3376673440d862a33611184565b61117c5760405162461bcd60e51b815260040161056f90612ba5565b61097a6122b0565b60009182526001602090815260408084206001600160a01b0393909316845291905290205460ff1690565b6000848033600b546040516331a9108f60e11b8152600481018490526001600160a01b039283169290911690636352211e90602401602060405180830381600087803b1580156111fe57600080fd5b505af1158015611212573d6000803e3d6000fd5b505050506040513d601f19601f8201168201806040525081019061123691906125a4565b6001600160a01b03161461125c5760405162461bcd60e51b815260040161056f90612ac6565b60008281526018602052604090205460ff1661128a5760405162461bcd60e51b815260040161056f90612beb565b600087815260186020526040902054600260ff909116116113135760405162461bcd60e51b815260206004820152603760248201527f5646593a4d493a2043616c6c6572206e6f7420617574686f72697a656420617360448201527f2061207665726966696564207573657220283e3d203329000000000000000000606482015260840161056f565b60008681526016602052604090205487146113705760405162461bcd60e51b815260206004820152601f60248201527f5646593a4d493a204974656d206e6f742068656c642062792063616c6c657200604482015260640161056f565b6000868152601760205260409020805463ffffffff86166101000264ffffffffff1990911660ff88161717905560aa92505050949350505050565b600082815260016020819052604090912001546113c88133611f2d565b61067a8383611ffc565b6000828033600b546040516331a9108f60e11b8152600481018490526001600160a01b039283169290911690636352211e90602401602060405180830381600087803b15801561142157600080fd5b505af1158015611435573d6000803e3d6000fd5b505050506040513d601f19601f8201168201806040525081019061145991906125a4565b6001600160a01b03161461147f5760405162461bcd60e51b815260040161056f90612ac6565b60008281526018602052604090205460ff166114ad5760405162461bcd60e51b815260040161056f90612beb565b600084815260166020526040902054851461150a5760405162461bcd60e51b815260206004820152601f60248201527f5646593a544f3a204974656d206e6f742068656c642062792063616c6c657200604482015260640161056f565b60008481526017602052604090205460ff1660031480159061153e575060008481526017602052604090205460ff16600414155b61159e5760405162461bcd60e51b815260206004820152602b60248201527f5646593a544f3a204974656d20534e206973206d61726b6564206173206c6f7360448201526a3a1037b91039ba37b632b760a91b606482015260840161056f565b5050506000908152601660205260408120555060aa90565b6115e07f2ce8d04a9c35987429af538825cd2438cc5c5bb5dc427955f84daaa3ea10501633611184565b6115fc5760405162461bcd60e51b815260040161056f90612b1b565b6001600160a01b0381166116475760405162461bcd60e51b81526020600482015260126024820152710423a5353433a2041646472657373203d20360741b604482015260640161056f565b600380546001600160a01b0319166001600160a01b0392909216919091179055565b6116937f7f1e4e9f3d9ba0452a25cfef4cd4c6ffc86158d06ed2f585fa0093e12dec429c33611184565b6116af5760405162461bcd60e51b815260040161056f90612b62565b600260005414156116d25760405162461bcd60e51b815260040161056f90612c48565b60026000556040516323b872dd60e01b81523060048201526001600160a01b038381166024830152604482018390528416906323b872dd90606401602060405180830381600087803b15801561172757600080fd5b505af115801561173b573d6000803e3d6000fd5b505050506040513d601f19601f8201168201806040525081019061175f91906126a1565b505060016000555050565b6117947f7f1e4e9f3d9ba0452a25cfef4cd4c6ffc86158d06ed2f585fa0093e12dec429c33611184565b6117b05760405162461bcd60e51b815260040161056f90612b62565b600260005414156117d35760405162461bcd60e51b815260040161056f90612c48565b6002600055604051632142170760e11b81523060048201526001600160a01b038381166024830152604482018390528416906342842e0e90606401600060405180830381600087803b15801561182857600080fd5b505af115801561183c573d6000803e3d6000fd5b505060016000555050505050565b6002600054141561186d5760405162461bcd60e51b815260040161056f90612c48565b600260005561189c7f2ce8d04a9c35987429af538825cd2438cc5c5bb5dc427955f84daaa3ea10501633611184565b6118b85760405162461bcd60e51b815260040161056f90612b1b565b6003546040516363b8d4c160e11b81526020600482015260086024820152672727a222afaa25a760c11b60448201526001600160a01b039091169063c771a9829060640160206040518083038186803b15801561191457600080fd5b505afa158015611928573d6000803e3d6000fd5b505050506040513d601f19601f8201168201806040525081019061194c91906125a4565b600c80546001600160a01b039283166001600160a01b03199182168117909255600d805490911690911790556003546040516363b8d4c160e11b81526020600482015260086024820152672727a222afa6a3a960c11b604482015291169063c771a9829060640160206040518083038186803b1580156119cb57600080fd5b505afa1580156119df573d6000803e3d6000fd5b505050506040513d601f19601f82011682018060405250810190611a0391906125a4565b600480546001600160a01b039283166001600160a01b031991821681178355600580549092161790556003546040516363b8d4c160e11b815292169163c771a98291611a6d91016020808252600990820152682727a222afa9aa27a960b91b604082015260600190565b60206040518083038186803b158015611a8557600080fd5b505afa158015611a99573d6000803e3d6000fd5b505050506040513d601f19601f82011682018060405250810190611abd91906125a4565b600680546001600160a01b039283166001600160a01b031991821681179092556007805490911690911790556003546040516363b8d4c160e11b81526020600482015260086024820152672aaa24a62faa25a760c11b604482015291169063c771a9829060640160206040518083038186803b158015611b3c57600080fd5b505afa158015611b50573d6000803e3d6000fd5b505050506040513d601f19601f82011682018060405250810190611b7491906125a4565b600880546001600160a01b039283166001600160a01b031991821681179092556009805490911690911790556003546040516363b8d4c160e11b815260206004820152600560248201526420afaa25a760d91b604482015291169063c771a9829060640160206040518083038186803b158015611bf057600080fd5b505afa158015611c04573d6000803e3d6000fd5b505050506040513d601f19601f82011682018060405250810190611c2891906125a4565b600a80546001600160a01b039283166001600160a01b03199182168117909255600b805490911690911790556003546040516363b8d4c160e11b815260206004820152600760248201526622a1a92fa6a3a960c91b604482015291169063c771a9829060640160206040518083038186803b158015611ca657600080fd5b505afa158015611cba573d6000803e3d6000fd5b505050506040513d601f19601f82011682018060405250810190611cde91906125a4565b600e80546001600160a01b039283166001600160a01b03199182168117909255600f805490911690911790556003546040516363b8d4c160e11b815291169063c771a98290611d479060040160208082526003908201526204150560ec1b604082015260600190565b60206040518083038186803b158015611d5f57600080fd5b505afa158015611d73573d6000803e3d6000fd5b505050506040513d601f19601f82011682018060405250810190611d9791906125a4565b601280546001600160a01b039283166001600160a01b031991821681179092556013805490911690911790556003546040516363b8d4c160e11b815291169063c771a98290611e01906004016020808252600490820152632921a62960e11b604082015260600190565b60206040518083038186803b158015611e1957600080fd5b505afa158015611e2d573d6000803e3d6000fd5b505050506040513d601f19601f82011682018060405250810190611e5191906125a4565b601080546001600160a01b039283166001600160a01b031991821681179092556011805490911690911790556003546040516363b8d4c160e11b81526020600482015260066024820152654150505f4e4360d01b604482015291169063c771a9829060640160206040518083038186803b158015611ece57600080fd5b505afa158015611ee2573d6000803e3d6000fd5b505050506040513d601f19601f82011682018060405250810190611f0691906125a4565b601480546001600160a01b0319166001600160a01b03929092169190911790556001600055565b611f378282611184565b61092857611f4f816001600160a01b0316601461232b565b611f5a83602061232b565b604051602001611f6b929190612a1e565b60408051601f198184030181529082905262461bcd60e51b825261056f91600401612a93565b611f9b8282611184565b6109285760008281526001602081815260408084206001600160a01b0386168086529252808420805460ff19169093179092559051339285917f2f8788117e7eff1d82e926ec794901d17c78024a50270940304540a733656f0d9190a45050565b6120068282611184565b156109285760008281526001602090815260408083206001600160a01b0385168085529252808320805460ff1916905551339285917ff6391f5c32d9c69d2a47ea670b442974b53935d1edc7fd64eb21e047a839171b9190a45050565b60025460ff166120ac5760405162461bcd60e51b815260206004820152601460248201527314185d5cd8589b194e881b9bdd081c185d5cd95960621b604482015260640161056f565b6002805460ff191690557f5db9ee0a495bf2e6ff9c91a7834c1ba4fdd244a5e8aa4e537bd38aeae4b073aa335b6040516001600160a01b03909116815260200160405180910390a1565b604080516101408101825260008082526020820181905281830181905260608083018290526080830182905260a0830182905260c0830182905260e08301829052610100830191909152610120820152600754915163f45c157d60e01b815263ffffffff8416600482015290916001600160a01b03169063f45c157d9060240160006040518083038186803b15801561218e57600080fd5b505afa1580156121a2573d6000803e3d6000fd5b505050506040513d6000823e601f3d908101601f191682016040526104bc919081019061283e565b6040805161018081018252600080825260208201819052918101829052606081018290526080810182905260a0810182905260c0810182905260e081018290526101008101829052610120810182905261014081018290526101608101919091526003546040516338923cb160e21b8152600481018490526000916001600160a01b03169063e248f2c4906024016101806040518083038186803b15801561227157600080fd5b505afa158015612285573d6000803e3d6000fd5b505050506040513d601f19601f820116820180604052508101906122a9919061293d565b9392505050565b60025460ff16156122f65760405162461bcd60e51b815260206004820152601060248201526f14185d5cd8589b194e881c185d5cd95960821b604482015260640161056f565b6002805460ff191660011790557f62e78cea01bee320cd4e420270b5ea74000d11b0c9f74754ebdbfc544b05a2586120d93390565b6060600061233a836002612ce5565b612345906002612ccd565b67ffffffffffffffff81111561235d5761235d612d9b565b6040519080825280601f01601f191660200182016040528015612387576020820181803683370190505b509050600360fc1b816000815181106123a2576123a2612d85565b60200101906001600160f81b031916908160001a905350600f60fb1b816001815181106123d1576123d1612d85565b60200101906001600160f81b031916908160001a90535060006123f5846002612ce5565b612400906001612ccd565b90505b6001811115612478576f181899199a1a9b1b9c1cb0b131b232b360811b85600f166010811061243457612434612d85565b1a60f81b82828151811061244a5761244a612d85565b60200101906001600160f81b031916908160001a90535060049490941c9361247181612d34565b9050612403565b5083156122a95760405162461bcd60e51b815260206004820181905260248201527f537472696e67733a20686578206c656e67746820696e73756666696369656e74604482015260640161056f565b80516124d281612db1565b919050565b600082601f8301126124e857600080fd5b815167ffffffffffffffff8082111561250357612503612d9b565b604051601f8301601f19908116603f0116810190828211818310171561252b5761252b612d9b565b8160405283815286602085880101111561254457600080fd5b612555846020830160208901612d04565b9695505050505050565b805161ffff811681146124d257600080fd5b80516124d281612dc9565b80516124d281612ddb565b60006020828403121561259957600080fd5b81356122a981612db1565b6000602082840312156125b657600080fd5b81516122a981612db1565b6000806000606084860312156125d657600080fd5b83356125e181612db1565b925060208401356125f181612db1565b929592945050506040919091013590565b60008060008060006080868803121561261a57600080fd5b853561262581612db1565b9450602086013561263581612db1565b935060408601359250606086013567ffffffffffffffff8082111561265957600080fd5b818801915088601f83011261266d57600080fd5b81358181111561267c57600080fd5b89602082850101111561268e57600080fd5b9699959850939650602001949392505050565b6000602082840312156126b357600080fd5b815180151581146122a957600080fd5b6000602082840312156126d557600080fd5b5035919050565b600080604083850312156126ef57600080fd5b82359150602083013561270181612db1565b809150509250929050565b6000806040838503121561271f57600080fd5b50508035926020909101359150565b60008060006060848603121561274357600080fd5b505081359360208301359350604090920135919050565b60008060006060848603121561276f57600080fd5b8335925060208401359150604084013561278881612dc9565b809150509250925092565b600080600080608085870312156127a957600080fd5b843593506020850135925060408501356127c281612ddb565b915060608501356127d281612dc9565b939692955090935050565b6000806000606084860312156127f257600080fd5b83359250602084013561280481612ddb565b9150604084013561278881612dc9565b60006020828403121561282657600080fd5b81356001600160e01b0319811681146122a957600080fd5b60006020828403121561285057600080fd5b815167ffffffffffffffff8082111561286857600080fd5b90830190610140828603121561287d57600080fd5b612885612c7f565b61288e8361257c565b815261289c6020840161257c565b60208201526128ad6040840161257c565b60408201526128be6060840161257c565b60608201526128cf60808401612571565b60808201526128e060a08401612571565b60a08201526128f160c084016124c7565b60c082015260e083015160e0820152610100808401518183015250610120808401518381111561292057600080fd5b61292c888287016124d7565b918301919091525095945050505050565b6000610180828403121561295057600080fd5b612958612ca9565b6129618361257c565b815261296f6020840161257c565b60208201526129806040840161255f565b604082015261299160608401612571565b60608201526129a260808401612571565b60808201526129b360a08401612571565b60a082015260c0838101519082015260e08084015190820152610100808401519082015261012080840151908201526101408084015190820152610160928301519281019290925250919050565b600060208284031215612a1357600080fd5b81516122a981612ddb565b7f416363657373436f6e74726f6c3a206163636f756e7420000000000000000000815260008351612a56816017850160208801612d04565b7001034b99036b4b9b9b4b733903937b6329607d1b6017918401918201528351612a87816028840160208801612d04565b01602801949350505050565b6020815260008251806020840152612ab2816040850160208701612d04565b601f01601f19169190910160400192915050565b60208082526035908201527f5646593a4d4f442d49413a2043616c6c657220646f6573206e6f7420686f6c64604082015274103b32b934b33c9032b730b13632b2103a37b5b2b760591b606082015260800190565b60208082526027908201527f423a4d4f443a2d4941444d2043616c6c65722021434f4e54524143545f41444d604082015266494e5f524f4c4560c81b606082015260800190565b60208082526023908201527f423a4d4f443a2d4941444d2043616c6c6572202141535345545f545846525f526040820152624f4c4560e81b606082015260800190565b60208082526026908201527f423a4d4f442d49503a43616c6c696e672061646472657373206973206e6f74206040820152653830bab9b2b960d11b606082015260800190565b6020808252603a908201527f5646593a4d4f442d49413a20546f6b656e20494458206e6f74206c697374656460408201527f20696e2056455249465920617070726f76656420746f6b656e73000000000000606082015260800190565b6020808252601f908201527f5265656e7472616e637947756172643a207265656e7472616e742063616c6c00604082015260600190565b604051610140810167ffffffffffffffff81118282101715612ca357612ca3612d9b565b60405290565b604051610180810167ffffffffffffffff81118282101715612ca357612ca3612d9b565b60008219821115612ce057612ce0612d6f565b500190565b6000816000190483118215151615612cff57612cff612d6f565b500290565b60005b83811015612d1f578181015183820152602001612d07565b83811115612d2e576000848401525b50505050565b600081612d4357612d43612d6f565b506000190190565b600063ffffffff80831681811415612d6557612d65612d6f565b6001019392505050565b634e487b7160e01b600052601160045260246000fd5b634e487b7160e01b600052603260045260246000fd5b634e487b7160e01b600052604160045260246000fd5b6001600160a01b0381168114612dc657600080fd5b50565b63ffffffff81168114612dc657600080fd5b60ff81168114612dc657600080fdfea2646970667358221220c055adf76420aca136cefc84c05a7247ef7b00578b9222c7ced3d91f94f5e67664736f6c63430008070033",
  "immutableReferences": {},
  "source": "/*--------------------------------------------------------PRF0.8.7\n__/\\\\\\\\\\\\\\\\\\\\\\\\\\ _____/\\\\\\\\\\\\\\\\\\ _______/\\\\__/\\\\ ___/\\\\\\\\\\\\\\\\\\\\\\\\\\\\\\        \n__\\/\\\\\\/////////\\\\\\ _/\\\\\\///////\\\\\\ ____\\//__\\//____\\/\\\\\\///////////__       \n___\\/\\\\\\_______\\/\\\\\\_\\/\\\\\\_____\\/\\\\\\ ________________\\/\\\\\\ ____________      \n____\\/\\\\\\\\\\\\\\\\\\\\\\\\\\/__\\/\\\\\\\\\\\\\\\\\\\\\\/_____/\\\\\\____/\\\\\\_\\/\\\\\\\\\\\\\\\\\\\\\\ ____     \n_____\\/\\\\\\/////////____\\/\\\\\\//////\\\\\\ ___\\/\\\\\\___\\/\\\\\\_\\/\\\\\\///////______\n______\\/\\\\\\ ____________\\/\\\\\\ ___\\//\\\\\\ __\\/\\\\\\___\\/\\\\\\_\\/\\\\\\ ____________\n_______\\/\\\\\\ ____________\\/\\\\\\ ____\\//\\\\\\ _\\/\\\\\\___\\/\\\\\\_\\/\\\\\\ ____________\n________\\/\\\\\\ ____________\\/\\\\\\ _____\\//\\\\\\_\\//\\\\\\\\\\\\\\\\\\ _\\/\\\\\\ ____________\n_________\\/// _____________\\/// _______\\/// __\\///////// __\\/// _____________\n*---------------------------------------------------------------------------*/\n\n/*-----------------------------------------------------------------\n *  TO DO\n *\n/*-----------------------------------------------------------------\n * only tokenHolder can put items \"in pouch\" \n * only trusted entities can take items \"out\"\n * only pouchholder can mark item status, auth as user type 1+ in node\n * joe public can check only?\n * statuses:\n *\n * 0 = no status; clean\n * 1 = items with this SN are questionable (found an item that is apparently not real) --settable/clearable by type 2-3 user\n * 2 = items with this SN are counterfeit (original, authentic item recovered (and held/destroyed), or SN does not officially exist) --settable/clearable by type 3 user\n * 3 = this item SN was stolen --settable/clearable by type 2-3 user\n * 4 = this item SN was lost --settable/clearable by type 2-3 user\n * 5 = this item SN is in process --settable by type 2-3 user - clearable by type 3 user \n * 6 =\n *\n * usertypes are indicated in idxAuthInVerify[_idxHash] \n * 0 not authorized\n * 1 basic auth\n * 2 priveledged level auth\n * 3 admin level auth\n *---------------------------------------------------------------*/\n\n// SPDX-License-Identifier: UNLICENSED\npragma solidity 0.8.7;\n\nimport \"../Resources/PRUF_CORE.sol\";\n\n//import \"../Resources/RESOURCE_PRUF_INTERFACES.sol\";\n\ncontract VERIFY is CORE {\n    struct ItemData {\n        uint8 status; //Item status (suspect, counterfeit, stolen, lost, etc) type 3+ user\n        uint32 value; //denomination, if applicable\n        uint32 collisions; //number of times the item was attempted to be \"locked\" when held\n        //room here for more data for 32 bytes!\n    }\n\n    mapping(bytes32 => bytes32) private items; // itemHash -> idxHash of the owning wallet\n    mapping(bytes32 => ItemData) private itemData; //itemhash -> itemdata\n\n    mapping(bytes32 => uint8) private idxAuthInVerify; //idxHash -> verification level\n\n    /**\n     * Requires:\n     *      the caller must posess Asset token _idxhash\n     *      Asset Token must be set to value = 1 in  idxAuthInVerify\n     */\n    modifier isAuthorized(bytes32 _idxHash) override {\n        //checks to see if caller holds the wallet token (asset token minted as a wallet)\n        uint256 tokenId = uint256(_idxHash);\n\n        require(\n            (A_TKN.ownerOf(tokenId) == _msgSender()), // ||\n            \"VFY:MOD-IA: Caller does not hold verify enabled token\"\n        );\n        require(\n            (idxAuthInVerify[_idxHash] > 0),\n            \"VFY:MOD-IA: Token IDX not listed in VERIFY approved tokens\" //must be auth or \"1\"\n        );\n        _;\n    }\n\n    /*\n     * @dev:authorize an asset token _idxHash as a wallet token in verify\n     *      the caller must posess node token for given Node (reverts)\n     *      node must be VERIFY custody type (4) (reverts)\n     *      node of Asset token to be approved must be of the same node as the held NodeToken (reverts)\n     */\n    function authorizeTokenForVerify(\n        bytes32 _idxHash,\n        uint8 _verified, //0 for not verify authorized, 1 for admin level auth, 2 for priveledged level auth and 3 = basic verify authorization\n        uint32 _node\n    ) external {\n        Node memory ACdata = getNodeinfo(_node);\n        Record memory rec = getRecord(_idxHash);\n\n        require(\n            NODE_TKN.ownerOf(uint256(_node)) == _msgSender(),\n            \"VFY:ATFV: caller does not hold node token\"\n        );\n        require(ACdata.custodyType == 4, \"VFY:ATFV: node not VERIFY enabled\");\n        require(\n            rec.node == _node,\n            \"VFY:ATFV: node of Asset Token does not match supplied node \"\n        );\n        //^^^^^^^checks^^^^^^^^^\n\n        idxAuthInVerify[_idxHash] = _verified;\n        //^^^^^^^effects^^^^^^^^^\n    }\n\n    /*\n     * @dev:Put an item into the (_idxHash) VERIFY wallet, with maximum assurances\n     *      the caller must posess Asset token, must pass isAuth (reverts)\n     *      item cannot already be registered as \"in\" the callers wallet (reverts)\n     *      itemData.status must be 0 (clean) (returns status)\n     *      Item collisions cannot exceed maxCollisions (returns 100)\n     *      If item is marked as held in another wallet, collisions++ return 0\n     *      If item is not marked as held, it will be listed as held \"in\" the callers wallet (return 170)\n     */\n    function safePutIn(\n        bytes32 _idxHash,\n        bytes32 _itemHash,\n        uint32 maxCollisions\n    ) external isAuthorized(_idxHash) returns (uint256) {\n        require( //check to see if held by _idxHash\n            items[_itemHash] != _idxHash,\n            \"VFY:SPI: Item already held by caller\"\n        );\n        //^^^^^^^checks^^^^^^^^^\n\n        if (itemData[_itemHash].status != 0) {\n            //if status is not \"clean\" (0) return the status\n            return itemData[_itemHash].status;\n        }\n\n        if (itemData[_itemHash].collisions > maxCollisions) {\n            //if status is not \"clean\" (0) return the status\n            return 100; //return 100 if max collisions exceeded\n        }\n\n        if (items[_itemHash] != 0) {\n            if (itemData[_itemHash].collisions < 4294967295)\n                itemData[_itemHash].collisions++;\n            return 0;\n        } else {\n            items[_itemHash] = _idxHash; // put item _asset into wallet _idxHash\\\n            return 170;\n        }\n        //^^^^^^^effects / interactions^^^^^^^^^\n    }\n\n    /*\n     * @dev:Put an item into the (_idxHash) verify wallet\n     *      the caller must posess Asset token, must pass isAuth (reverts)\n     *      item cannot already be registered as \"in\" the callers wallet (reverts)\n     *      if status is stolen return 3\n     *      if status is counterfeit return 2\n     *      If item is marked as held in another wallet, collisions++ return 0\n     *      If item is not marked as held, it will be listed as held \"in\" the callers wallet (return 170)\n     */\n    function putIn(bytes32 _idxHash, bytes32 _itemHash)\n        external\n        isAuthorized(_idxHash)\n        returns (uint256)\n    {\n        require( //check to see if held by _idxHash\n            items[_itemHash] != _idxHash,\n            \"VFY:PI: Item already held by caller\"\n        );\n        //^^^^^^^checks^^^^^^^^^\n\n        if (itemData[_itemHash].status == 3) {\n            //if status is stolen return 3\n            return 3;\n        }\n\n        if (itemData[_itemHash].status == 2) {\n            //if status is counterfeit return 2\n            return 2;\n        }\n\n        if (items[_itemHash] != 0) {\n            if (itemData[_itemHash].collisions < 4294967295)\n                itemData[_itemHash].collisions++;\n            return 0;\n        } else {\n            items[_itemHash] = _idxHash; // put item _asset into wallet _idxHash\\\n            return 170;\n        }\n        //^^^^^^^effects / interactions^^^^^^^^^\n    }\n\n    /*\n     * @dev:Take an item out of the (_idxHash) verify wallet\n     *      the caller must posess Asset token, must pass isAuth (reverts)\n     *      item must be registered as \"in\" the callers wallet (reverts)\n     *      must not be lost/stolen (reverts)\n     */\n    function takeOut(bytes32 _idxHash, bytes32 _itemHash)\n        external\n        isAuthorized(_idxHash)\n        returns (uint256)\n    {\n        require(\n            items[_itemHash] == _idxHash,\n            \"VFY:TO: Item not held by caller\"\n        ); //check to see if held by _idxHash\n        require(\n            (itemData[_itemHash].status != 3) &&\n                (itemData[_itemHash].status != 4),\n            \"VFY:TO: Item SN is marked as lost or stolen\"\n        );\n        //^^^^^^^checks^^^^^^^^^\n\n        delete items[_itemHash]; // release item _asset\n        //^^^^^^^effects^^^^^^^^^\n\n        return 170;\n        //^^^^^^^interactions^^^^^^^^^\n    }\n\n    /*\n     * @dev:Transfer an item out of one (_idxHash) verify wallet into another\n     *      the caller must posess Asset token, must pass isAuth (reverts)\n     *      item must be registered as \"in\" the callers wallet (reverts)\n     *      item must not be lost/stolen (reverts)\n     *      destination wallet must be in same node as sending wallet (reverts)\n     */\n    function transfer(\n        //IS THIS A TERRIBLE IDEA? EXAMINE\n        bytes32 _idxHash,\n        bytes32 _newIdxHash,\n        bytes32 _itemHash\n    ) external isAuthorized(_idxHash) returns (uint256) {\n        Record memory rec = getRecord(_idxHash);\n        Record memory newRec = getRecord(_newIdxHash);\n\n        require(items[_itemHash] == _idxHash, \"VFY:T: Item not held by caller\"); //check to see if held by _idxHash\n        require( //must move to same node root\n            NODE_STOR.isSameRootNode(rec.node, newRec.node) == 170,\n            \"VFY:T: Wallet is not in the same node root\"\n        );\n        require(\n            itemData[_itemHash].status != 2,\n            \"VFY:T: Item marked counterfeit\"\n        ); //check to see if item status is clean\n        require(\n            (itemData[_itemHash].status != 3) &&\n                (itemData[_itemHash].status != 4),\n            \"VFY:T: Item SN is marked as lost or stolen\"\n        );\n        //^^^^^^^checks^^^^^^^^^\n\n        items[_itemHash] = _newIdxHash; // transfer item _asset\n        //^^^^^^^effects^^^^^^^^^\n\n        return 170;\n        //^^^^^^^interactions^^^^^^^^^\n    }\n\n    /*\n     * @dev:Mark an item conterfeit . Admin function, user marks conterfeit regardless of who holds it\n     *      the caller must posess Asset token authorized at userlevel 3\n     */\n    function markCounterfeit(bytes32 _idxHash, bytes32 _itemHash)\n        external\n        isAuthorized(_idxHash)\n        returns (uint256)\n    {\n        require(\n            idxAuthInVerify[_idxHash] == 3, //token is auth amdmin\n            \"VFY:AMC: Caller not authorized as a admin user (type3) in node\"\n        );\n        //^^^^^^^checks^^^^^^^^^\n\n        itemData[_itemHash].status = 2;\n        //^^^^^^^effects^^^^^^^^^\n\n        return 170;\n        //^^^^^^^interactions^^^^^^^^^\n    }\n\n    /*\n     * @dev:Mark an item with a status (see docs at top of contract)\n     *      the caller must posess Asset token, must pass isAuth and user must be auth as a 3 in that node (reverts)\n     *      item must be listed as \"in\" the callers wallet (reverts)\n     *      Other than that, unrestricted power to change ststus of held items\n     */\n    function markItem(\n        bytes32 _idxHash,\n        bytes32 _itemHash,\n        uint8 _status,\n        uint32 _value\n    ) external isAuthorized(_idxHash) returns (uint256) {\n        require(\n            idxAuthInVerify[_idxHash] > 2, //token is auth privelidged+\n            \"VFY:MI: Caller not authorized as a verified user (>= 3)\"\n        );\n\n        require(\n            items[_itemHash] == _idxHash,\n            \"VFY:MI: Item not held by caller\"\n        ); //check to see if held by _idxHash\n        //^^^^^^^checks^^^^^^^^^\n\n        itemData[_itemHash].status = _status;\n        itemData[_itemHash].value = _value;\n        //^^^^^^^effects^^^^^^^^^\n\n        return 170;\n        //^^^^^^^interactions^^^^^^^^^\n    }\n\n    /*\n     * @dev:Retrieve data about an item\n     * unrestricted access\n     */\n    function getItemData(bytes32 _itemHash)\n        external\n        view\n        returns (\n            bytes32,\n            uint8,\n            uint32,\n            uint32\n        )\n    {\n        return (\n            items[_itemHash], //holding _idxHash, if any\n            itemData[_itemHash].status, //item status\n            itemData[_itemHash].value, //value field (example 10 for 10USD bill)\n            itemData[_itemHash].collisions //number of collisions on this serial number\n        );\n    }\n}\n\n/*-----------------------------------------------------------------\n *  TESTING\n *\n/*-----------------------------------------------------------------\n Make a 2 Verify node's (custody type 4)\n make 2 assets in each new node (1,2) (3,4)\n verify all 4 Assets as pruf verify wallets | 1 = 1 | 2 = 1 | 3 = 2 | 4 = 3 |\n\n put an item A in wallet 1 (should succeed)\n put an item B in wallet 1 (should succeed)\n try to put item A in wallet 2 (should fail) -- item already held, collision ++\n take item A out of wallet 1 (should succeed)\n put item A in wallet 2 (should succeed) \n transfer item A to wallet 3 (should fail)  -- non matching node\n transfer item A to wallet 1 (should succeed)\n take item A out of wallet 1 (should succeed)\n safePutIn item A to wallet 2 with collision threshold at 1 (should succeed)\n put item A to wallet 1 (should fail) -- item already held, collision ++\n take item A out of wallet 1 (should fail) -- not held in wallet\n take item A out of wallet 2 (should succeed)\n safePutIn item A to wallet 2 with collision threshold at 1 (should Fail) -- excess collisions\n safePutIn item A to wallet 3 with collision threshold at 2 (should succeed)\n transfer item A to wallet 1 (should fail) -- non matching node\n transfer item A to wallet 4 (should succeed)\n\n\n AdminMark item A as counterfeit (2) (should succeed)\n transfer item A to wallet 3 (should fail) -- counterfeit\n\n mark item A as in process (5)  (should succeed)\n transfer item A to wallet 3 (should succeed)\n\n mark item A as counterfeit (2) (should fail) -- not auth\n mark item A as lost (4) (should fail) -- in process\n take item A out of wallet 3 (should succeed)\n\n safePutIn item A to wallet 4 with collision threshold at 2 (should Fail) -- not clean\n PutIn item A to wallet 4 (should succeed)\n mark item A as clean (0) (should succeed)\n safePutIn item A to wallet 1 with collision threshold at 1 (should Fail) -- excess collisions\n safePutIn item A to wallet 1 with collision threshold at 2 (should succeed)\n PutIn item B to wallet 4 (should fail) -- item already held, collision ++\n take item B out of wallet 1 (should succeed)\n\n retrieve both items. \n item A should be status 0, collisions 2\n item B should be status 0, collisions 1\n\n\n * 0 = no status; clean\n * 1 = items with this SN are questionable (found an item that is apparently not real)\n * 2 = items with this SN are counterfeit (original, authentic item recovered (and held/destroyed), or SN does not officially exist) (SUPER AUTH ONLY)\n * 3 = this item SN was stolen\n * 4 = this item SN was lost\n * 5 = this item SN is in process\n * 6 =\n *\n * usertypes are indicated in idxAuthInVerify[_idxHash] \n * 0 not authorized\n * 1 basic auth\n * 2 priveledged level auth\n * 3 admin level auth\n *---------------------------------------------------------------*/\n",
  "sourcePath": "/Users/drake/Documents/DEV/PRUF/PRUF_TRUFFLE/contracts/InProgress/PRUF_VERIFY.sol",
  "compiler": {
    "name": "solc",
    "version": "0.8.7+commit.e28d00a7.Emscripten.clang"
  },
  "schemaVersion": "3.4.3",
  "updatedAt": "2022-04-27T15:21:40.171Z",
  "devdoc": {
    "kind": "dev",
    "methods": {
      "ERC20Transfer(address,address,uint256)": {
        "details": "send an ERC20 token from this contract",
        "params": {
          "_amount": "amount to transfer",
          "_to": "destination",
          "_tokenContract": "Address of foreign token contract"
        }
      },
      "ERC721Transfer(address,address,uint256)": {
        "details": "send an ERC721 token from this contract",
        "params": {
          "_to": "destination",
          "_tokenContract": "Address of foreign token contract",
          "_tokenID": "Token ID"
        }
      },
      "getRoleAdmin(bytes32)": {
        "details": "Returns the admin role that controls `role`. See {grantRole} and {revokeRole}. To change a role's admin, use {_setRoleAdmin}."
      },
      "grantRole(bytes32,address)": {
        "details": "Grants `role` to `account`. If `account` had not been already granted `role`, emits a {RoleGranted} event. Requirements: - the caller must have ``role``'s admin role."
      },
      "hasRole(bytes32,address)": {
        "details": "Returns `true` if `account` has been granted `role`."
      },
      "onERC721Received(address,address,uint256,bytes)": {
        "details": "Compliance for erc721 reciever See OZ documentation"
      },
      "paused()": {
        "details": "Returns true if the contract is paused, and false otherwise."
      },
      "renounceRole(bytes32,address)": {
        "details": "Revokes `role` from the calling account. Roles are often managed via {grantRole} and {revokeRole}: this function's purpose is to provide a mechanism for accounts to lose their privileges if they are compromised (such as when a trusted device is misplaced). If the calling account had been granted `role`, emits a {RoleRevoked} event. Requirements: - the caller must be `account`."
      },
      "resolveContractAddresses()": {
        "details": "Resolve contract addresses from STOR"
      },
      "revokeRole(bytes32,address)": {
        "details": "Revokes `role` from `account`. If `account` had been granted `role`, emits a {RoleRevoked} event. Requirements: - the caller must have ``role``'s admin role."
      },
      "setStorageContract(address)": {
        "details": "Set address of STOR contract to interface with",
        "params": {
          "_storageAddress": "address of PRUF_STOR"
        }
      },
      "supportsInterface(bytes4)": {
        "details": "See {IERC165-supportsInterface}."
      }
    },
    "version": 1
  },
  "userdoc": {
    "kind": "user",
    "methods": {},
    "version": 1
  }
}