{
  "contractName": "WRAP",
  "abi": [
    {
      "anonymous": false,
      "inputs": [
        {
          "indexed": false,
          "internalType": "address",
          "name": "account",
          "type": "address"
        }
      ],
      "name": "Paused",
      "type": "event"
    },
    {
      "anonymous": false,
      "inputs": [
        {
          "indexed": false,
          "internalType": "string",
          "name": "_msg",
          "type": "string"
        }
      ],
      "name": "REPORT",
      "type": "event"
    },
    {
      "anonymous": false,
      "inputs": [
        {
          "indexed": true,
          "internalType": "bytes32",
          "name": "role",
          "type": "bytes32"
        },
        {
          "indexed": true,
          "internalType": "bytes32",
          "name": "previousAdminRole",
          "type": "bytes32"
        },
        {
          "indexed": true,
          "internalType": "bytes32",
          "name": "newAdminRole",
          "type": "bytes32"
        }
      ],
      "name": "RoleAdminChanged",
      "type": "event"
    },
    {
      "anonymous": false,
      "inputs": [
        {
          "indexed": true,
          "internalType": "bytes32",
          "name": "role",
          "type": "bytes32"
        },
        {
          "indexed": true,
          "internalType": "address",
          "name": "account",
          "type": "address"
        },
        {
          "indexed": true,
          "internalType": "address",
          "name": "sender",
          "type": "address"
        }
      ],
      "name": "RoleGranted",
      "type": "event"
    },
    {
      "anonymous": false,
      "inputs": [
        {
          "indexed": true,
          "internalType": "bytes32",
          "name": "role",
          "type": "bytes32"
        },
        {
          "indexed": true,
          "internalType": "address",
          "name": "account",
          "type": "address"
        },
        {
          "indexed": true,
          "internalType": "address",
          "name": "sender",
          "type": "address"
        }
      ],
      "name": "RoleRevoked",
      "type": "event"
    },
    {
      "anonymous": false,
      "inputs": [
        {
          "indexed": false,
          "internalType": "address",
          "name": "account",
          "type": "address"
        }
      ],
      "name": "Unpaused",
      "type": "event"
    },
    {
      "inputs": [],
      "name": "ASSET_TXFR_ROLE",
      "outputs": [
        {
          "internalType": "bytes32",
          "name": "",
          "type": "bytes32"
        }
      ],
      "stateMutability": "view",
      "type": "function"
    },
    {
      "inputs": [],
      "name": "CONTRACT_ADMIN_ROLE",
      "outputs": [
        {
          "internalType": "bytes32",
          "name": "",
          "type": "bytes32"
        }
      ],
      "stateMutability": "view",
      "type": "function"
    },
    {
      "inputs": [],
      "name": "DAO_ROLE",
      "outputs": [
        {
          "internalType": "bytes32",
          "name": "",
          "type": "bytes32"
        }
      ],
      "stateMutability": "view",
      "type": "function"
    },
    {
      "inputs": [],
      "name": "DEFAULT_ADMIN_ROLE",
      "outputs": [
        {
          "internalType": "bytes32",
          "name": "",
          "type": "bytes32"
        }
      ],
      "stateMutability": "view",
      "type": "function"
    },
    {
      "inputs": [
        {
          "internalType": "address",
          "name": "_tokenContract",
          "type": "address"
        },
        {
          "internalType": "address",
          "name": "_to",
          "type": "address"
        },
        {
          "internalType": "uint256",
          "name": "_amount",
          "type": "uint256"
        }
      ],
      "name": "ERC20Transfer",
      "outputs": [],
      "stateMutability": "nonpayable",
      "type": "function"
    },
    {
      "inputs": [
        {
          "internalType": "address",
          "name": "_tokenContract",
          "type": "address"
        },
        {
          "internalType": "address",
          "name": "_to",
          "type": "address"
        },
        {
          "internalType": "uint256",
          "name": "_tokenID",
          "type": "uint256"
        }
      ],
      "name": "ERC721Transfer",
      "outputs": [],
      "stateMutability": "nonpayable",
      "type": "function"
    },
    {
      "inputs": [],
      "name": "PAUSER_ROLE",
      "outputs": [
        {
          "internalType": "bytes32",
          "name": "",
          "type": "bytes32"
        }
      ],
      "stateMutability": "view",
      "type": "function"
    },
    {
      "inputs": [
        {
          "internalType": "bytes32",
          "name": "role",
          "type": "bytes32"
        }
      ],
      "name": "getRoleAdmin",
      "outputs": [
        {
          "internalType": "bytes32",
          "name": "",
          "type": "bytes32"
        }
      ],
      "stateMutability": "view",
      "type": "function"
    },
    {
      "inputs": [
        {
          "internalType": "bytes32",
          "name": "role",
          "type": "bytes32"
        },
        {
          "internalType": "address",
          "name": "account",
          "type": "address"
        }
      ],
      "name": "grantRole",
      "outputs": [],
      "stateMutability": "nonpayable",
      "type": "function"
    },
    {
      "inputs": [
        {
          "internalType": "bytes32",
          "name": "role",
          "type": "bytes32"
        },
        {
          "internalType": "address",
          "name": "account",
          "type": "address"
        }
      ],
      "name": "hasRole",
      "outputs": [
        {
          "internalType": "bool",
          "name": "",
          "type": "bool"
        }
      ],
      "stateMutability": "view",
      "type": "function"
    },
    {
      "inputs": [
        {
          "internalType": "address",
          "name": "",
          "type": "address"
        },
        {
          "internalType": "address",
          "name": "",
          "type": "address"
        },
        {
          "internalType": "uint256",
          "name": "",
          "type": "uint256"
        },
        {
          "internalType": "bytes",
          "name": "",
          "type": "bytes"
        }
      ],
      "name": "onERC721Received",
      "outputs": [
        {
          "internalType": "bytes4",
          "name": "",
          "type": "bytes4"
        }
      ],
      "stateMutability": "nonpayable",
      "type": "function"
    },
    {
      "inputs": [],
      "name": "pause",
      "outputs": [],
      "stateMutability": "nonpayable",
      "type": "function"
    },
    {
      "inputs": [],
      "name": "paused",
      "outputs": [
        {
          "internalType": "bool",
          "name": "",
          "type": "bool"
        }
      ],
      "stateMutability": "view",
      "type": "function"
    },
    {
      "inputs": [
        {
          "internalType": "bytes32",
          "name": "role",
          "type": "bytes32"
        },
        {
          "internalType": "address",
          "name": "account",
          "type": "address"
        }
      ],
      "name": "renounceRole",
      "outputs": [],
      "stateMutability": "nonpayable",
      "type": "function"
    },
    {
      "inputs": [],
      "name": "resolveContractAddresses",
      "outputs": [],
      "stateMutability": "nonpayable",
      "type": "function"
    },
    {
      "inputs": [
        {
          "internalType": "bytes32",
          "name": "role",
          "type": "bytes32"
        },
        {
          "internalType": "address",
          "name": "account",
          "type": "address"
        }
      ],
      "name": "revokeRole",
      "outputs": [],
      "stateMutability": "nonpayable",
      "type": "function"
    },
    {
      "inputs": [
        {
          "internalType": "address",
          "name": "_storageAddress",
          "type": "address"
        }
      ],
      "name": "setStorageContract",
      "outputs": [],
      "stateMutability": "nonpayable",
      "type": "function"
    },
    {
      "inputs": [
        {
          "internalType": "bytes4",
          "name": "interfaceId",
          "type": "bytes4"
        }
      ],
      "name": "supportsInterface",
      "outputs": [
        {
          "internalType": "bool",
          "name": "",
          "type": "bool"
        }
      ],
      "stateMutability": "view",
      "type": "function"
    },
    {
      "inputs": [],
      "name": "unpause",
      "outputs": [],
      "stateMutability": "nonpayable",
      "type": "function"
    },
    {
      "inputs": [
        {
          "internalType": "uint256",
          "name": "_foreignTokenID",
          "type": "uint256"
        },
        {
          "internalType": "address",
          "name": "_foreignTokenContract",
          "type": "address"
        },
        {
          "internalType": "bytes32",
          "name": "_rgtHash",
          "type": "bytes32"
        },
        {
          "internalType": "uint32",
          "name": "_node",
          "type": "uint32"
        },
        {
          "internalType": "uint32",
          "name": "_countDownStart",
          "type": "uint32"
        }
      ],
      "name": "wrap721",
      "outputs": [],
      "stateMutability": "nonpayable",
      "type": "function"
    },
    {
      "inputs": [
        {
          "internalType": "uint256",
          "name": "_tokenId",
          "type": "uint256"
        }
      ],
      "name": "unWrap721",
      "outputs": [],
      "stateMutability": "nonpayable",
      "type": "function"
    },
    {
      "inputs": [
        {
          "internalType": "uint256",
          "name": "_tokenId",
          "type": "uint256"
        }
      ],
      "name": "getCoreTokenInfo",
      "outputs": [
        {
          "internalType": "address",
          "name": "",
          "type": "address"
        },
        {
          "internalType": "uint256",
          "name": "",
          "type": "uint256"
        }
      ],
      "stateMutability": "view",
      "type": "function"
    }
  ],
  "bytecode": "0x60806040523480156200001157600080fd5b50600160009081556002805460ff191690556200002f90336200008d565b6200005b7f2ce8d04a9c35987429af538825cd2438cc5c5bb5dc427955f84daaa3ea105016336200008d565b620000877f65d7a28e3265b37a6474929f336521b332c1681b933f6cb9f3376673440d862a336200008d565b62000125565b6200009982826200009d565b5050565b60008281526001602090815260408083206001600160a01b038516845290915290205460ff16620000995760008281526001602081815260408084206001600160a01b0386168086529252808420805460ff19169093179092559051339285917f2f8788117e7eff1d82e926ec794901d17c78024a50270940304540a733656f0d9190a45050565b6134b580620001356000396000f3fe608060405234801561001057600080fd5b50600436106101425760003560e01c806391d14854116100b8578063dc38b0a21161007c578063dc38b0a2146102f0578063e59fdd3614610303578063e5f815dc14610316578063e63ab1e914610329578063e9c2651814610350578063ee9c25c51461037757600080fd5b806391d148541461029c578063a217fddf146102af578063af7cb17f146102b7578063c0c070a1146102ca578063d547741f146102dd57600080fd5b8063248a9ca31161010a578063248a9ca3146102355780632f2ff15d1461025957806336568abe1461026e5780633f4ba83a146102815780635c975abb146102895780638456cb591461029457600080fd5b806301ffc9a7146101475780630796a1b01461016f5780631429db5f146101a1578063150b7a02146101d65780631da033121461020e575b600080fd5b61015a610155366004612c6b565b61037f565b60405190151581526020015b60405180910390f35b61018261017d366004612c22565b6103b6565b604080516001600160a01b039093168352602083019190915201610166565b6101c87f7f1e4e9f3d9ba0452a25cfef4cd4c6ffc86158d06ed2f585fa0093e12dec429c81565b604051908152602001610166565b6101f56101e4366004612b61565b630a85bd0160e11b95945050505050565b6040516001600160e01b03199091168152602001610166565b6101c87f2ce8d04a9c35987429af538825cd2438cc5c5bb5dc427955f84daaa3ea10501681565b6101c8610243366004612c22565b6000908152600160208190526040909120015490565b61026c610267366004612c3b565b610461565b005b61026c61027c366004612c3b565b61048d565b61026c61050b565b60025460ff1661015a565b61026c61055b565b61015a6102aa366004612c3b565b6105a9565b6101c8600081565b61026c6102c5366004612c22565b6105d4565b61026c6102d8366004612fd4565b610916565b61026c6102eb366004612c3b565b610c5c565b61026c6102fe366004612ae6565b610c83565b61026c610311366004612b20565b610d36565b61026c610324366004612b20565b610e37565b6101c87f65d7a28e3265b37a6474929f336521b332c1681b933f6cb9f3376673440d862a81565b6101c87f3b5d4cc60d3ec3516ee8ae083bd60934f6eb2a6c54b1229985c41bfb092b260381565b61026c610f17565b60006001600160e01b03198216637965db0b60e01b14806103b057506301ffc9a760e01b6001600160e01b03198316145b92915050565b60008181526017602052604081206001015481906001600160a01b031661043c5760405162461bcd60e51b815260206004820152602f60248201527f573a4743543a746f6b656e496420646f6573206e6f7420726566657220746f2060448201526e30903bb930b83832b2103a37b5b2b760891b60648201526084015b60405180910390fd5b50506000908152601760205260409020600181015490546001600160a01b0390911691565b6000828152600160208190526040909120015461047e81336115fa565b610488838361165e565b505050565b6001600160a01b03811633146104fd5760405162461bcd60e51b815260206004820152602f60248201527f416363657373436f6e74726f6c3a2063616e206f6e6c792072656e6f756e636560448201526e103937b632b9903337b91039b2b63360891b6064820152608401610433565b61050782826116c9565b5050565b6105357f65d7a28e3265b37a6474929f336521b332c1681b933f6cb9f3376673440d862a336105a9565b6105515760405162461bcd60e51b8152600401610433906131f5565b610559611730565b565b6105857f65d7a28e3265b37a6474929f336521b332c1681b933f6cb9f3376673440d862a336105a9565b6105a15760405162461bcd60e51b8152600401610433906131f5565b6105596117c3565b60009182526001602090815260408084206001600160a01b0393909316845291905290205460ff1690565b600260005414156105f75760405162461bcd60e51b8152600401610433906132b4565b600260005561060860025460ff1690565b156106255760405162461bcd60e51b81526004016104339061323b565b600a5481906001600160a01b0316336040516331a9108f60e11b8152600481018490526001600160a01b0391821691831690636352211e9060240160206040518083038186803b15801561067857600080fd5b505afa15801561068c573d6000803e3d6000fd5b505050506040513d601f19601f820116820180604052508101906106b09190612b03565b6001600160a01b0316146106d65760405162461bcd60e51b815260040161043390613265565b8260006106e28261181b565b905060006106f38260600151611901565b60008781526017602052604090206001810154905482519293506001600160a01b039091169160ff1660051461076b5760405162461bcd60e51b815260206004820152601b60248201527f573a55573a204e6f64652e637573746f64795479706520213d203500000000006044820152606401610433565b816001600160a01b03168360c001516001600160a01b0316148061079a575060c08301516001600160a01b0316155b61080c5760405162461bcd60e51b815260206004820152603f60248201527f573a55573a204e6f646520657874656e6465642064617461206d75737420626560448201527f20273027206f722045524337323120636f6e74726163742061646472657373006064820152608401610433565b836000015160ff166033146108735760405162461bcd60e51b815260206004820152602760248201527f573a55573a204173736574206e6f7420696e207472616e736665727261626c656044820152662073746174757360c81b6064820152608401610433565b600088815260176020526040808220918255600190910180546001600160a01b0319169055600b549051631a15a12f60e31b8152600481018a90526001600160a01b039091169063d0ad097890602401600060405180830381600087803b1580156108dd57600080fd5b505af11580156108f1573d6000803e3d6000fd5b5050505061090782306109013390565b8461198e565b50506001600055505050505050565b600260005414156109395760405162461bcd60e51b8152600401610433906132b4565b600260005561094a60025460ff1690565b156109675760405162461bcd60e51b81526004016104339061323b565b8484336040516331a9108f60e11b8152600481018490526001600160a01b0391821691831690636352211e9060240160206040518083038186803b1580156109ae57600080fd5b505afa1580156109c2573d6000803e3d6000fd5b505050506040513d601f19601f820116820180604052508101906109e69190612b03565b6001600160a01b031614610a0c5760405162461bcd60e51b815260040161043390613265565b60008787604051602001610a3c92919091825260601b6bffffffffffffffffffffffff1916602082015260340190565b60408051601f1981840301815290829052805160209091012063c87b56dd60e01b8252600482018a905291506000906001600160a01b0389169063c87b56dd90602401600060405180830381600087803b158015610a9957600080fd5b505af1158015610aad573d6000803e3d6000fd5b505050506040513d6000823e601f3d908101601f19168201604052610ad59190810190612c95565b90506000610ae287611901565b8051909150839060ff16600514610b585760405162461bcd60e51b815260206004820152603460248201527f573a573a637573746f647954797065206d75737420626520352028777261707060448201527365642f6465636f7261746564206572633732312960601b6064820152608401610433565b896001600160a01b03168260c001516001600160a01b03161480610b87575060c08201516001600160a01b0316155b610bf95760405162461bcd60e51b815260206004820152603b60248201527f573a573a7265666572656e636541646472657373206d7573742062652027302760448201527f206f722045524337323120636f6e7472616374206164647265737300000000006064820152608401610433565b60008181526017602052604090208b815560010180546001600160a01b0319166001600160a01b038c16179055610c328a33308e61198e565b610c3f848a8a8a876119fe565b610c4a886001611d84565b50506001600055505050505050505050565b60008281526001602081905260409091200154610c7981336115fa565b61048883836116c9565b610cad7f2ce8d04a9c35987429af538825cd2438cc5c5bb5dc427955f84daaa3ea105016336105a9565b610cc95760405162461bcd60e51b81526004016104339061316b565b6001600160a01b038116610d145760405162461bcd60e51b81526020600482015260126024820152710423a5353433a2041646472657373203d20360741b6044820152606401610433565b600380546001600160a01b0319166001600160a01b0392909216919091179055565b610d607f7f1e4e9f3d9ba0452a25cfef4cd4c6ffc86158d06ed2f585fa0093e12dec429c336105a9565b610d7c5760405162461bcd60e51b8152600401610433906131b2565b60026000541415610d9f5760405162461bcd60e51b8152600401610433906132b4565b60026000556040516323b872dd60e01b81523060048201526001600160a01b038381166024830152604482018390528416906323b872dd90606401602060405180830381600087803b158015610df457600080fd5b505af1158015610e08573d6000803e3d6000fd5b505050506040513d601f19601f82011682018060405250810190610e2c9190612c00565b505060016000555050565b610e617f7f1e4e9f3d9ba0452a25cfef4cd4c6ffc86158d06ed2f585fa0093e12dec429c336105a9565b610e7d5760405162461bcd60e51b8152600401610433906131b2565b60026000541415610ea05760405162461bcd60e51b8152600401610433906132b4565b6002600055604051632142170760e11b81523060048201526001600160a01b038381166024830152604482018390528416906342842e0e90606401600060405180830381600087803b158015610ef557600080fd5b505af1158015610f09573d6000803e3d6000fd5b505060016000555050505050565b60026000541415610f3a5760405162461bcd60e51b8152600401610433906132b4565b6002600055610f697f2ce8d04a9c35987429af538825cd2438cc5c5bb5dc427955f84daaa3ea105016336105a9565b610f855760405162461bcd60e51b81526004016104339061316b565b6003546040516363b8d4c160e11b81526020600482015260086024820152672727a222afaa25a760c11b60448201526001600160a01b039091169063c771a9829060640160206040518083038186803b158015610fe157600080fd5b505afa158015610ff5573d6000803e3d6000fd5b505050506040513d601f19601f820116820180604052508101906110199190612b03565b600c80546001600160a01b039283166001600160a01b03199182168117909255600d805490911690911790556003546040516363b8d4c160e11b81526020600482015260086024820152672727a222afa6a3a960c11b604482015291169063c771a9829060640160206040518083038186803b15801561109857600080fd5b505afa1580156110ac573d6000803e3d6000fd5b505050506040513d601f19601f820116820180604052508101906110d09190612b03565b600480546001600160a01b039283166001600160a01b031991821681178355600580549092161790556003546040516363b8d4c160e11b815292169163c771a9829161113a91016020808252600990820152682727a222afa9aa27a960b91b604082015260600190565b60206040518083038186803b15801561115257600080fd5b505afa158015611166573d6000803e3d6000fd5b505050506040513d601f19601f8201168201806040525081019061118a9190612b03565b600680546001600160a01b039283166001600160a01b031991821681179092556007805490911690911790556003546040516363b8d4c160e11b81526020600482015260086024820152672aaa24a62faa25a760c11b604482015291169063c771a9829060640160206040518083038186803b15801561120957600080fd5b505afa15801561121d573d6000803e3d6000fd5b505050506040513d601f19601f820116820180604052508101906112419190612b03565b600880546001600160a01b039283166001600160a01b031991821681179092556009805490911690911790556003546040516363b8d4c160e11b815260206004820152600560248201526420afaa25a760d91b604482015291169063c771a9829060640160206040518083038186803b1580156112bd57600080fd5b505afa1580156112d1573d6000803e3d6000fd5b505050506040513d601f19601f820116820180604052508101906112f59190612b03565b600a80546001600160a01b039283166001600160a01b03199182168117909255600b805490911690911790556003546040516363b8d4c160e11b815260206004820152600760248201526622a1a92fa6a3a960c91b604482015291169063c771a9829060640160206040518083038186803b15801561137357600080fd5b505afa158015611387573d6000803e3d6000fd5b505050506040513d601f19601f820116820180604052508101906113ab9190612b03565b600e80546001600160a01b039283166001600160a01b03199182168117909255600f805490911690911790556003546040516363b8d4c160e11b815291169063c771a982906114149060040160208082526003908201526204150560ec1b604082015260600190565b60206040518083038186803b15801561142c57600080fd5b505afa158015611440573d6000803e3d6000fd5b505050506040513d601f19601f820116820180604052508101906114649190612b03565b601280546001600160a01b039283166001600160a01b031991821681179092556013805490911690911790556003546040516363b8d4c160e11b815291169063c771a982906114ce906004016020808252600490820152632921a62960e11b604082015260600190565b60206040518083038186803b1580156114e657600080fd5b505afa1580156114fa573d6000803e3d6000fd5b505050506040513d601f19601f8201168201806040525081019061151e9190612b03565b601080546001600160a01b039283166001600160a01b031991821681179092556011805490911690911790556003546040516363b8d4c160e11b81526020600482015260066024820152654150505f4e4360d01b604482015291169063c771a9829060640160206040518083038186803b15801561159b57600080fd5b505afa1580156115af573d6000803e3d6000fd5b505050506040513d601f19601f820116820180604052508101906115d39190612b03565b601480546001600160a01b0319166001600160a01b03929092169190911790556001600055565b61160482826105a9565b6105075761161c816001600160a01b03166014611fa0565b611627836020611fa0565b6040516020016116389291906130b3565b60408051601f198184030181529082905262461bcd60e51b825261043391600401613158565b61166882826105a9565b6105075760008281526001602081815260408084206001600160a01b0386168086529252808420805460ff19169093179092559051339285917f2f8788117e7eff1d82e926ec794901d17c78024a50270940304540a733656f0d9190a45050565b6116d382826105a9565b156105075760008281526001602090815260408083206001600160a01b0385168085529252808320805460ff1916905551339285917ff6391f5c32d9c69d2a47ea670b442974b53935d1edc7fd64eb21e047a839171b9190a45050565b60025460ff166117795760405162461bcd60e51b815260206004820152601460248201527314185d5cd8589b194e881b9bdd081c185d5cd95960621b6044820152606401610433565b6002805460ff191690557f5db9ee0a495bf2e6ff9c91a7834c1ba4fdd244a5e8aa4e537bd38aeae4b073aa335b6040516001600160a01b03909116815260200160405180910390a1565b60025460ff16156117e65760405162461bcd60e51b81526004016104339061323b565b6002805460ff191660011790557f62e78cea01bee320cd4e420270b5ea74000d11b0c9f74754ebdbfc544b05a2586117a63390565b6040805161018081018252600080825260208201819052918101829052606081018290526080810182905260a0810182905260c0810182905260e081018290526101008101829052610120810182905261014081018290526101608101919091526003546040516338923cb160e21b8152600481018490526000916001600160a01b03169063e248f2c4906024016101806040518083038186803b1580156118c257600080fd5b505afa1580156118d6573d6000803e3d6000fd5b505050506040513d601f19601f820116820180604052508101906118fa9190612ef7565b9392505050565b6119096129cf565b60075460405163f45c157d60e01b815263ffffffff841660048201526001600160a01b039091169063f45c157d9060240160006040518083038186803b15801561195257600080fd5b505afa158015611966573d6000803e3d6000fd5b505050506040513d6000823e601f3d908101601f191682016040526103b09190810190612df8565b6040516323b872dd60e01b81526001600160a01b0384811660048301528381166024830152604482018390528516906323b872dd90606401600060405180830381600087803b1580156119e057600080fd5b505af11580156119f4573d6000803e3d6000fd5b5050505050505050565b60008584604051602001611a2992919091825260e01b6001600160e01b031916602082015260240190565b604051602081830303815290604052805190602001209050600082604051602001611a549190613097565b60408051601f1981840301815291905280516020909101209050816000611a7a8761213c565b600b5460405162491fcf60e11b8152600481018590529192506001600160a01b03169062923f9e9060240160206040518083038186803b158015611abd57600080fd5b505afa158015611ad1573d6000803e3d6000fd5b505050506040513d601f19601f82011682018060405250810190611af59190612fbb565b15611b425760405162461bcd60e51b815260206004820181905260248201527f573a43523a20417373657420746f6b656e20616c7265616479206578697374736044820152606401610433565b600754604051636ece1f4360e01b815263ffffffff89166004820152600860248201526000916001600160a01b031690636ece1f439060440160206040518083038186803b158015611b9357600080fd5b505afa158015611ba7573d6000803e3d6000fd5b505050506040513d601f19601f82011682018060405250810190611bcb9190612fbb565b611c5757600d546040516331a9108f60e11b815263ffffffff8a1660048201526001600160a01b0390911690636352211e9060240160206040518083038186803b158015611c1857600080fd5b505afa158015611c2c573d6000803e3d6000fd5b505050506040513d601f19601f82011682018060405250810190611c509190612b03565b9050611c71565b816000015160ff1660011415611c6e575030611c71565b50335b600b546040516354a19c2b60e01b81526001600160a01b03909116906354a19c2b90611ca590849087908b90600401613128565b602060405180830381600087803b158015611cbf57600080fd5b505af1158015611cd3573d6000803e3d6000fd5b505050506040513d601f19601f82011682018060405250810190611cf79190612fbb565b5060035460405163a85d2bef60e01b815260048101879052602481018b90526044810186905263ffffffff808b166064830152891660848201526001600160a01b039091169063a85d2bef9060a401600060405180830381600087803b158015611d6057600080fd5b505af1158015611d74573d6000803e3d6000fd5b5050505050505050505050505050565b60025460ff1615611da75760405162461bcd60e51b81526004016104339061323b565b600754604051631f70958f60e31b815263ffffffff841660048201526000916064916001600160a01b039091169063fb84ac789060240160206040518083038186803b158015611df657600080fd5b505afa158015611e0a573d6000803e3d6000fd5b505050506040513d601f19601f82011682018060405250810190611e2e9190613033565b63ffffffff16611e3e9190613351565b90506064811115611eac5760405162461bcd60e51b815260206004820152603260248201527f433a4453433a696e76616c696420646973636f756e742076616c756520666f7260448201527110383934b1b29031b0b631bab630ba34b7b760711b6064820152608401610433565b600754604051638f44e52560e01b815263ffffffff8516600482015261ffff841660248201526000916001600160a01b031690638f44e5259060440160806040518083038186803b158015611f0057600080fd5b505afa158015611f14573d6000803e3d6000fd5b505050506040513d601f19601f82011682018060405250810190611f389190612d83565b9050600060648260600151611f4d9190613351565b90506000611f5b8285613373565b90506000818460600151611f6f9190613392565b606085018390526040850151909150611f89908290613339565b6040850152611f97846127e5565b50505050505050565b60606000611faf836002613373565b611fba906002613339565b67ffffffffffffffff811115611fd257611fd261343f565b6040519080825280601f01601f191660200182016040528015611ffc576020820181803683370190505b509050600360fc1b8160008151811061201757612017613429565b60200101906001600160f81b031916908160001a905350600f60fb1b8160018151811061204657612046613429565b60200101906001600160f81b031916908160001a905350600061206a846002613373565b612075906001613339565b90505b60018111156120ed576f181899199a1a9b1b9c1cb0b131b232b360811b85600f16601081106120a9576120a9613429565b1a60f81b8282815181106120bf576120bf613429565b60200101906001600160f81b031916908160001a90535060049490941c936120e6816133fc565b9050612078565b5083156118fa5760405162461bcd60e51b815260206004820181905260248201527f537472696e67733a20686578206c656e67746820696e73756666696369656e746044820152606401610433565b6121446129cf565b61214d82611901565b9050806000015160ff16600314156121cd5760405162461bcd60e51b815260206004820152603a60248201527f433a474e495741433a43616e6e6f742063726561746520617373657420696e2060448201527f6120726f6f74206e6f64652028637573746f64795479706533290000000000006064820152608401610433565b60075460208201516040516376faa3cb60e11b815260ff90911660048201526000916001600160a01b03169063edf547969060240160206040518083038186803b15801561221a57600080fd5b505afa15801561222e573d6000803e3d6000fd5b505050506040513d601f19601f820116820180604052508101906122529190613050565b60ff16116122ac5760405162461bcd60e51b815260206004820152602160248201527f433a474e495741433a20496e76616c6964206d616e6167656d656e74207479706044820152606560f81b6064820152608401610433565b602081015160ff1661230b5760405162461bcd60e51b815260206004820152602260248201527f433a474e495741433a2043616e6e6f74206d696e7420696e20726f6f74206e6f604482015261646560f01b6064820152608401610433565b806020015160ff1660ff14156123895760405162461bcd60e51b815260206004820152603760248201527f433a474e495741433a2043616e6e6f74206d696e74207769746820756e70726f60448201527f766973696f6e6564206f72206c6f636b6564206e6f64650000000000000000006064820152608401610433565b61239881606001516007612928565b158061246757506007546040516bffffffffffffffffffffffff193360601b1660208201526001600160a01b0390911690639d2c7cee9060340160408051601f198184030181529082905280516020909101206001600160e01b031960e084901b168252600482015263ffffffff8516602482015260440160206040518083038186803b15801561242857600080fd5b505afa15801561243c573d6000803e3d6000fd5b505050506040513d601f19601f820116820180604052508101906124609190613050565b60ff166001145b6124bf5760405162461bcd60e51b8152602060048201526024808201527f433a474e495741433a2043616c6c6572206e6f7420617574686f72697a6564206044820152633ab9b2b960e11b6064820152608401610433565b6124ce81606001516007612928565b60011480612568575033600d546040516331a9108f60e11b815263ffffffff851660048201526001600160a01b039283169290911690636352211e9060240160206040518083038186803b15801561252557600080fd5b505afa158015612539573d6000803e3d6000fd5b505050506040513d601f19601f8201168201806040525081019061255d9190612b03565b6001600160a01b0316145b6125ac5760405162461bcd60e51b8152602060048201526015602482015274086748e9c92ae8286744086c2d8d8cae440429ca89605b1b6044820152606401610433565b6125bb81606001516006612928565b600114156127e057600754604051639edaf4a760e01b815263ffffffff841660048201526000916001600160a01b031690639edaf4a79060240160e06040518083038186803b15801561260d57600080fd5b505afa158015612621573d6000803e3d6000fd5b505050506040513d601f19601f820116820180604052508101906126459190612cd2565b90508060a001516001600160a01b0316636352211e8260c001516040518263ffffffff1660e01b815260040161267d91815260200190565b60206040518083038186803b15801561269557600080fd5b505afa1580156126a9573d6000803e3d6000fd5b505050506040513d601f19601f820116820180604052508101906126cd9190612b03565b600d546040516331a9108f60e11b815263ffffffff861660048201526001600160a01b039283169290911690636352211e9060240160206040518083038186803b15801561271a57600080fd5b505afa15801561272e573d6000803e3d6000fd5b505050506040513d601f19601f820116820180604052508101906127529190612b03565b6001600160a01b0316146127de5760405162461bcd60e51b815260206004820152604760248201527f433a474e495741433a204e6f646520616e6420726f6f74206f66206964656e7460448201527f6974792061726520736561706172617465642e204d696e74696e6720697320646064820152661a5cd8589b195960ca1b608482015260a401610433565b505b919050565b60025460ff16156128085760405162461bcd60e51b81526004016104339061323b565b80516001600160a01b03166128715760405162461bcd60e51b815260206004820152602960248201527f433a44503a20726f6f74207061796d656e742061646472657373203d207a65726044820152686f206164647265737360b81b6064820152608401610433565b60208101516001600160a01b03166128945780516001600160a01b031660208201525b6009548151604080840151602085015160608601518351631cc1e17360e31b81523360048201526001600160a01b0395861660248201526044810193909352908416606483015260848201529051919092169163e60f0b989160a480830192600092919082900301818387803b15801561290d57600080fd5b505af1158015612921573d6000803e3d6000fd5b5050505050565b6000808260ff1611801561293f575060098260ff16105b6129a05760405162461bcd60e51b815260206004820152602c60248201527f4e533a4753413a2062697420706f736974696f6e206d7573742062652062657460448201526b0eecacadc406240c2dcc840760a31b6064820152608401610433565b60006129ad6001846133a9565b60ff166001901b8460ff161611156129c7575060016103b0565b5060006103b0565b604080516101408101825260008082526020820181905291810182905260608082018390526080820183905260a0820183905260c0820183905260e0820183905261010082019290925261012081019190915290565b80516127e081613455565b600082601f830112612a4157600080fd5b815167ffffffffffffffff80821115612a5c57612a5c61343f565b604051601f8301601f19908116603f01168101908282118183101715612a8457612a8461343f565b81604052838152866020858801011115612a9d57600080fd5b612aae8460208301602089016133cc565b9695505050505050565b805161ffff811681146127e057600080fd5b80516127e08161346d565b805160ff811681146127e057600080fd5b600060208284031215612af857600080fd5b81356118fa81613455565b600060208284031215612b1557600080fd5b81516118fa81613455565b600080600060608486031215612b3557600080fd5b8335612b4081613455565b92506020840135612b5081613455565b929592945050506040919091013590565b600080600080600060808688031215612b7957600080fd5b8535612b8481613455565b94506020860135612b9481613455565b935060408601359250606086013567ffffffffffffffff80821115612bb857600080fd5b818801915088601f830112612bcc57600080fd5b813581811115612bdb57600080fd5b896020828501011115612bed57600080fd5b9699959850939650602001949392505050565b600060208284031215612c1257600080fd5b815180151581146118fa57600080fd5b600060208284031215612c3457600080fd5b5035919050565b60008060408385031215612c4e57600080fd5b823591506020830135612c6081613455565b809150509250929050565b600060208284031215612c7d57600080fd5b81356001600160e01b0319811681146118fa57600080fd5b600060208284031215612ca757600080fd5b815167ffffffffffffffff811115612cbe57600080fd5b612cca84828501612a30565b949350505050565b600060e08284031215612ce457600080fd5b60405160e0810181811067ffffffffffffffff82111715612d0757612d0761343f565b604052612d1383612ad5565b8152612d2160208401612ad5565b6020820152612d3260408401612ab8565b60408201526060830151612d458161346d565b60608201526080830151612d588161346d565b608082015260a0830151612d6b81613455565b60a082015260c0928301519281019290925250919050565b600060808284031215612d9557600080fd5b6040516080810181811067ffffffffffffffff82111715612db857612db861343f565b6040528251612dc681613455565b81526020830151612dd681613455565b6020820152604083810151908201526060928301519281019290925250919050565b600060208284031215612e0a57600080fd5b815167ffffffffffffffff80821115612e2257600080fd5b908301906101408286031215612e3757600080fd5b612e3f6132eb565b612e4883612ad5565b8152612e5660208401612ad5565b6020820152612e6760408401612ad5565b6040820152612e7860608401612ad5565b6060820152612e8960808401612aca565b6080820152612e9a60a08401612aca565b60a0820152612eab60c08401612a25565b60c082015260e083015160e08201526101008084015181830152506101208084015183811115612eda57600080fd5b612ee688828701612a30565b918301919091525095945050505050565b60006101808284031215612f0a57600080fd5b612f12613315565b612f1b83612ad5565b8152612f2960208401612ad5565b6020820152612f3a60408401612ab8565b6040820152612f4b60608401612aca565b6060820152612f5c60808401612aca565b6080820152612f6d60a08401612aca565b60a082015260c0838101519082015260e08084015190820152610100808401519082015261012080840151908201526101408084015190820152610160928301519281019290925250919050565b600060208284031215612fcd57600080fd5b5051919050565b600080600080600060a08688031215612fec57600080fd5b853594506020860135612ffe81613455565b93506040860135925060608601356130158161346d565b915060808601356130258161346d565b809150509295509295909350565b60006020828403121561304557600080fd5b81516118fa8161346d565b60006020828403121561306257600080fd5b6118fa82612ad5565b600081518084526130838160208601602086016133cc565b601f01601f19169290920160200192915050565b600082516130a98184602087016133cc565b9190910192915050565b7f416363657373436f6e74726f6c3a206163636f756e74200000000000000000008152600083516130eb8160178501602088016133cc565b7001034b99036b4b9b9b4b733903937b6329607d1b601791840191820152835161311c8160288401602088016133cc565b01602801949350505050565b60018060a01b038416815282602082015260606040820152600061314f606083018461306b565b95945050505050565b6020815260006118fa602083018461306b565b60208082526027908201527f423a4d4f443a2d4941444d2043616c6c65722021434f4e54524143545f41444d604082015266494e5f524f4c4560c81b606082015260800190565b60208082526023908201527f423a4d4f443a2d4941444d2043616c6c6572202141535345545f545846525f526040820152624f4c4560e81b606082015260800190565b60208082526026908201527f423a4d4f442d49503a43616c6c696e672061646472657373206973206e6f74206040820152653830bab9b2b960d11b606082015260800190565b60208082526010908201526f14185d5cd8589b194e881c185d5cd95960821b604082015260600190565b6020808252602f908201527f573a4d4f442d4954483a2043616c6c657220646f6573206e6f7420686f6c642060408201526e39b832b1b4b334b2b2103a37b5b2b760891b606082015260800190565b6020808252601f908201527f5265656e7472616e637947756172643a207265656e7472616e742063616c6c00604082015260600190565b604051610140810167ffffffffffffffff8111828210171561330f5761330f61343f565b60405290565b604051610180810167ffffffffffffffff8111828210171561330f5761330f61343f565b6000821982111561334c5761334c613413565b500190565b60008261336e57634e487b7160e01b600052601260045260246000fd5b500490565b600081600019048311821515161561338d5761338d613413565b500290565b6000828210156133a4576133a4613413565b500390565b600060ff821660ff8416808210156133c3576133c3613413565b90039392505050565b60005b838110156133e75781810151838201526020016133cf565b838111156133f6576000848401525b50505050565b60008161340b5761340b613413565b506000190190565b634e487b7160e01b600052601160045260246000fd5b634e487b7160e01b600052603260045260246000fd5b634e487b7160e01b600052604160045260246000fd5b6001600160a01b038116811461346a57600080fd5b50565b63ffffffff8116811461346a57600080fdfea26469706673582212208c1d5f9517af83788053ce0a31913be6602657d8b06ad6fd6c8da31fac04a5d664736f6c63430008070033",
  "immutableReferences": {},
  "source": "/**--------------------------------------------------------PRF0.8.7\n__/\\\\\\\\\\\\\\\\\\\\\\\\\\ _____/\\\\\\\\\\\\\\\\\\ _______/\\\\__/\\\\ ___/\\\\\\\\\\\\\\\\\\\\\\\\\\\\\\        \n__\\/\\\\\\/////////\\\\\\ _/\\\\\\///////\\\\\\ ____\\//__\\//____\\/\\\\\\///////////__       \n___\\/\\\\\\_______\\/\\\\\\_\\/\\\\\\_____\\/\\\\\\ ________________\\/\\\\\\ ____________      \n____\\/\\\\\\\\\\\\\\\\\\\\\\\\\\/__\\/\\\\\\\\\\\\\\\\\\\\\\/_____/\\\\\\____/\\\\\\_\\/\\\\\\\\\\\\\\\\\\\\\\ ____     \n_____\\/\\\\\\/////////____\\/\\\\\\//////\\\\\\ ___\\/\\\\\\___\\/\\\\\\_\\/\\\\\\///////______\n______\\/\\\\\\ ____________\\/\\\\\\ ___\\//\\\\\\ __\\/\\\\\\___\\/\\\\\\_\\/\\\\\\ ____________\n_______\\/\\\\\\ ____________\\/\\\\\\ ____\\//\\\\\\ _\\/\\\\\\___\\/\\\\\\_\\/\\\\\\ ____________\n________\\/\\\\\\ ____________\\/\\\\\\ _____\\//\\\\\\_\\//\\\\\\\\\\\\\\\\\\ _\\/\\\\\\ ____________\n_________\\/// _____________\\/// _______\\/// __\\///////// __\\/// _____________\n*---------------------------------------------------------------------------*/\n\n/**-----------------------------------------------------------------\n *  TO DO ---\n *\n *-----------------------------------------------------------------\n * Wraps and unwraps ERC721 compliant tokens in a PRUF Asset token\n *  MUST BE TRUSTED AGENT IN A_TKN\n *----------------------------------------------------------------*/\n\n// SPDX-License-Identifier: UNLICENSED\npragma solidity ^0.8.7;\n\nimport \"../Resources/PRUF_CORE.sol\";\n\ncontract WRAP is CORE {\n    struct WrappedToken {\n        uint256 tokenID;\n        address tokenContract;\n    }\n\n    mapping(uint256 => WrappedToken) private wrapped; // pruf tokenID -> original TokenID, ContractAddress\n\n    /**\n     * @dev Verify user credentials\n     * @param _tokenId tokenID of token\n     * @param _tokenContract Contract to check\n     * Originating Address:\n     *    require that user holds token @ ID-Contract\n     */\n    modifier isTokenHolder(uint256 _tokenId, address _tokenContract) {\n        require(\n            (IERC721(_tokenContract).ownerOf(_tokenId) == _msgSender()),\n            \"W:MOD-ITH: Caller does not hold specified token\"\n        );\n        _;\n    }\n\n    //--------------------------------------------External Functions--------------------------\n\n    /**\n     * @dev Wraps a token, takes original from caller\n     * @param _foreignTokenID tokenID of token to wrap\n     * @param _foreignTokenContract contract address for token to wrap\n     * @param _rgtHash - hash of rightsholder information created by frontend inputs\n     * @param _node - node the asset will be created in\n     * @param _countDownStart - decremental counter for an assets lifecycle\n     * Prerequisite: contract authorized for token txfr\n     * Takes original 721\n     * Makes a pruf record (exists?) if so does not change\n     * Mints a pruf token to caller (exists?) if so ???????\n     * Node.custodyType must be 5 (wrapped/decorated erc721) / enabled for contract address\n     * referenceAddress must be '0' or ERC721 contract address\n     * //CTS:CHECK THIS LOGIC OVERALL\n     */\n    function wrap721(\n        uint256 _foreignTokenID,\n        address _foreignTokenContract,\n        bytes32 _rgtHash,\n        uint32 _node,\n        uint32 _countDownStart ///DPS:TEST\n    )\n        external\n        nonReentrant\n        whenNotPaused\n        isTokenHolder(_foreignTokenID, _foreignTokenContract) // without this, the dark forest gets it!\n    {\n        bytes32 idxHash = keccak256(\n            abi.encodePacked(_foreignTokenID, _foreignTokenContract)\n        );\n        string memory URIsuffix = IERC721(_foreignTokenContract).tokenURI(\n            _foreignTokenID\n        );\n        //bytes32 URIhash = keccak256(abi.encodePacked(URIsuffix));\n\n        //Record memory rec = getRecord(idxHash);\n        Node memory nodeInfo = getNodeinfo(_node);\n\n        uint256 newTokenId = uint256(idxHash);\n\n        require(\n            nodeInfo.custodyType == 5,\n            \"W:W:custodyType must be 5 (wrapped/decorated erc721)\"\n        );\n        require(\n            (nodeInfo.referenceAddress == _foreignTokenContract) ||\n                (nodeInfo.referenceAddress == address(0)),\n            \"W:W:referenceAddress must be '0' or ERC721 contract address\"\n        );\n        //^^^^^^^checks^^^^^^^^^\n\n        wrapped[newTokenId].tokenID = _foreignTokenID;\n        wrapped[newTokenId].tokenContract = _foreignTokenContract;\n        //^^^^^^^effects^^^^^^^^^\n\n        foreignTransfer(\n            _foreignTokenContract,\n            _msgSender(),\n            address(this),\n            _foreignTokenID\n        ); // move token to this contract\n\n        createRecord(idxHash, _rgtHash, _node, _countDownStart, URIsuffix); //URI PRefix set to null for wrapped assets\n\n        deductServiceCosts(_node, 1);\n        //^^^^^^^interactions^^^^^^^^^\n    }\n\n    /**\n     * @dev Unwraps a token, returns original to caller\n     * @param _tokenId tokenID of PRUF token being unwrapped\n     * burns pruf asset from caller wallet\n     * Sends original 721 to caller\n     */\n    function unWrap721(uint256 _tokenId)\n        external\n        nonReentrant\n        whenNotPaused\n        isTokenHolder(_tokenId, A_TKN_Address) //caller holds the wrapped token\n    {\n        bytes32 idxHash = bytes32(_tokenId);\n        Record memory rec = getRecord(idxHash);\n        Node memory nodeInfo = getNodeinfo(rec.node);\n        address foreignTokenContract = wrapped[_tokenId].tokenContract;\n        uint256 foreignTokenID = wrapped[_tokenId].tokenID;\n\n        require(nodeInfo.custodyType == 5, \"W:UW: Node.custodyType != 5\");\n        require(\n            (nodeInfo.referenceAddress == foreignTokenContract) ||\n                (nodeInfo.referenceAddress == address(0)),\n            \"W:UW: Node extended data must be '0' or ERC721 contract address\"\n        );\n        require(\n            rec.assetStatus == 51,\n            \"W:UW: Asset not in transferrable status\"\n        );\n        //^^^^^^^checks^^^^^^^^^\n        delete wrapped[_tokenId];\n        A_TKN.trustedAgentBurn(_tokenId);\n\n        foreignTransfer(\n            foreignTokenContract,\n            address(this),\n            _msgSender(),\n            foreignTokenID\n        );\n\n        //^^^^^^^interactions^^^^^^^^^\n    }\n\n    /**\n     * @dev reveals core tokenContract address and token ID for a wrapped token.\n     * @param _tokenId tokenID of PRUF token being inspected\n     * Returns tokenContractAddress, tokenId of wrapped token //DPS:TEST\n     */\n    function getCoreTokenInfo(uint256 _tokenId)\n        external\n        view\n        returns (address, uint256)\n    {\n        require(\n            wrapped[_tokenId].tokenContract != address(0),\n            \"W:GCT:tokenId does not refer to a wrapped token\"\n        );\n        //^^^^^^^checks^^^^^^^^^\n\n        return (wrapped[_tokenId].tokenContract, wrapped[_tokenId].tokenID);\n        //^^^^^^^interactions^^^^^^^^^\n    }\n\n    /**\n     * @dev transfer a foreign token\n     * @param _tokenContract Address of foreign token contract\n     * @param _from origin\n     * @param _to destination\n     * @param _tokenId Token ID\n     */\n    function foreignTransfer(\n        address _tokenContract,\n        address _from,\n        address _to,\n        uint256 _tokenId\n    ) internal {\n        IERC721(_tokenContract).transferFrom(_from, _to, _tokenId);\n        //^^^^^^^interactions^^^^^^^^^\n    }\n\n    /** //DPS:CHECK\n     * @dev create a Record in Storage @ idxHash (SETTER)\n     * @param _idxRaw Asset ID\n     * @param _rgtHash Hash or user data\n     * @param _node Node ID\n     * @param _countDownStart Initial counter value\n     * @param _URIsuffix URI suffix string\n     * Asset token already exists\n     * depending on custody type/management type, caller ID token or address myst be authorized\n     */\n    function createRecord(\n        bytes32 _idxRaw,\n        bytes32 _rgtHash,\n        uint32 _node,\n        uint32 _countDownStart,\n        string memory _URIsuffix\n    ) internal override {\n        bytes32 idxHash = keccak256(abi.encodePacked(_idxRaw, _node)); //hash idxRaw with node to get idxHash DPS:TEST\n        bytes32 URIhash = keccak256(abi.encodePacked(_URIsuffix));\n        uint256 tokenId = uint256(idxHash);\n        Node memory nodeInfo = getNodeinfoWithMinterCheck(_node);\n\n        require(\n            A_TKN.tokenExists(tokenId) == 0,\n            \"W:CR: Asset token already exists\"\n        );\n        //^^^^^^^checks^^^^^^^^^\n\n        address recipient;\n        if (NODE_STOR.getSwitchAt(_node, 8) == 0) {\n            //if switch at bit 2 is not set, set the mint to address to the node holder\n            recipient = NODE_TKN.ownerOf(_node);\n        } else if (nodeInfo.custodyType == 1) {\n            //if switch at bit 2 is set, and and the custody type is 1, send the token to this cointract.\n            recipient = address(this);\n        } else {\n            //if switch at bit 2 is set, and and the custody type is not 1, send the token to the caller.\n            recipient = _msgSender();\n        }\n        A_TKN.mintAssetToken(recipient, tokenId, _URIsuffix);\n\n        STOR.newRecord(idxHash, _rgtHash, URIhash, _node, _countDownStart);\n        //^^^^^^^interactions^^^^^^^^^\n    }\n}\n",
  "sourcePath": "/Users/drake/Documents/DEV/PRUF/PRUF_TRUFFLE/contracts/InProgress/PRUF_WRAP.sol",
  "compiler": {
    "name": "solc",
    "version": "0.8.7+commit.e28d00a7.Emscripten.clang"
  },
  "schemaVersion": "3.4.3",
  "updatedAt": "2021-10-26T17:58:04.112Z",
  "devdoc": {
    "kind": "dev",
    "methods": {
      "ERC20Transfer(address,address,uint256)": {
        "details": "send an ERC20 token from this contract",
        "params": {
          "_amount": "amount to transfer",
          "_to": "destination",
          "_tokenContract": "Address of foreign token contract"
        }
      },
      "ERC721Transfer(address,address,uint256)": {
        "details": "send an ERC721 token from this contract",
        "params": {
          "_to": "destination",
          "_tokenContract": "Address of foreign token contract",
          "_tokenID": "Token ID"
        }
      },
      "getCoreTokenInfo(uint256)": {
        "details": "reveals core tokenContract address and token ID for a wrapped token.",
        "params": {
          "_tokenId": "tokenID of PRUF token being inspected Returns tokenContractAddress, tokenId of wrapped token //DPS:TEST"
        }
      },
      "getRoleAdmin(bytes32)": {
        "details": "Returns the admin role that controls `role`. See {grantRole} and {revokeRole}. To change a role's admin, use {_setRoleAdmin}."
      },
      "grantRole(bytes32,address)": {
        "details": "Grants `role` to `account`. If `account` had not been already granted `role`, emits a {RoleGranted} event. Requirements: - the caller must have ``role``'s admin role."
      },
      "hasRole(bytes32,address)": {
        "details": "Returns `true` if `account` has been granted `role`."
      },
      "onERC721Received(address,address,uint256,bytes)": {
        "details": "Compliance for erc721 reciever See OZ documentation"
      },
      "paused()": {
        "details": "Returns true if the contract is paused, and false otherwise."
      },
      "renounceRole(bytes32,address)": {
        "details": "Revokes `role` from the calling account. Roles are often managed via {grantRole} and {revokeRole}: this function's purpose is to provide a mechanism for accounts to lose their privileges if they are compromised (such as when a trusted device is misplaced). If the calling account had been granted `role`, emits a {RoleRevoked} event. Requirements: - the caller must be `account`."
      },
      "resolveContractAddresses()": {
        "details": "Resolve contract addresses from STOR"
      },
      "revokeRole(bytes32,address)": {
        "details": "Revokes `role` from `account`. If `account` had been granted `role`, emits a {RoleRevoked} event. Requirements: - the caller must have ``role``'s admin role."
      },
      "setStorageContract(address)": {
        "details": "Set address of STOR contract to interface with",
        "params": {
          "_storageAddress": "address of PRUF_STOR"
        }
      },
      "supportsInterface(bytes4)": {
        "details": "See {IERC165-supportsInterface}."
      },
      "unWrap721(uint256)": {
        "details": "Unwraps a token, returns original to caller",
        "params": {
          "_tokenId": "tokenID of PRUF token being unwrapped burns pruf asset from caller wallet Sends original 721 to caller"
        }
      },
      "wrap721(uint256,address,bytes32,uint32,uint32)": {
        "details": "Wraps a token, takes original from caller",
        "params": {
          "_countDownStart": "- decremental counter for an assets lifecycle Prerequisite: contract authorized for token txfr Takes original 721 Makes a pruf record (exists?) if so does not change Mints a pruf token to caller (exists?) if so ??????? Node.custodyType must be 5 (wrapped/decorated erc721) / enabled for contract address referenceAddress must be '0' or ERC721 contract address //CTS:CHECK THIS LOGIC OVERALL",
          "_foreignTokenContract": "contract address for token to wrap",
          "_foreignTokenID": "tokenID of token to wrap",
          "_node": "- node the asset will be created in",
          "_rgtHash": "- hash of rightsholder information created by frontend inputs"
        }
      }
    },
    "version": 1
  },
  "userdoc": {
    "kind": "user",
    "methods": {},
    "version": 1
  }
}