{
	"data": {
		"bytecode": {
			"linkReferences": {},
			"object": "608060405260016012553480156200001657600080fd5b50604080518082018252601081526f28292aa31020b9b9b2ba102a37b5b2b760811b6020808301918252835180850190945260048452631414905560e21b908401526001600055815191929162000070916003916200024b565b508051620000869060049060208401906200024b565b5050600d805460ff1916905550620000a0600033620000fe565b620000cc7f2ce8d04a9c35987429af538825cd2438cc5c5bb5dc427955f84daaa3ea10501633620000fe565b620000f87f65d7a28e3265b37a6474929f336521b332c1681b933f6cb9f3376673440d862a33620000fe565b6200032e565b6200011582826200014160201b6200244d1760201c565b60008281526002602090815260409091206200013c9183906200245762000151821b17901c565b505050565b6200014d828262000171565b5050565b600062000168836001600160a01b038416620001f9565b90505b92915050565b60008281526001602090815260408083206001600160a01b038516845290915290205460ff166200014d5760008281526001602081815260408084206001600160a01b0386168086529252808420805460ff19169093179092559051339285917f2f8788117e7eff1d82e926ec794901d17c78024a50270940304540a733656f0d9190a45050565b600081815260018301602052604081205462000242575081546001818101845560008481526020808220909301849055845484825282860190935260409020919091556200016b565b5060006200016b565b8280546200025990620002f1565b90600052602060002090601f0160209004810192826200027d5760008555620002c8565b82601f106200029857805160ff1916838001178555620002c8565b82800160010185558215620002c8579182015b82811115620002c8578251825591602001919060010190620002ab565b50620002d6929150620002da565b5090565b5b80821115620002d65760008155600101620002db565b600181811c908216806200030657607f821691505b602082108114156200032857634e487b7160e01b600052602260045260246000fd5b50919050565b614636806200033e6000396000f3fe608060405234801561001057600080fd5b50600436106102d55760003560e01c806370a0823111610182578063c87b56dd116100e9578063d547741f116100a2578063e63ab1e91161007c578063e63ab1e914610687578063e985e9c5146106ae578063e9c26518146106ea578063ee9c25c51461071157600080fd5b8063d547741f1461064e578063d6cf1df114610661578063dc38b0a21461067457600080fd5b8063c87b56dd146105c8578063ca15c873146105db578063cb6815fa146105ee578063cf0b969f14610601578063d0ad097814610614578063d53913931461062757600080fd5b806395d89b411161013b57806395d89b4114610563578063992a71761461056b578063a217fddf14610592578063a22cb4651461059a578063adfcaae0146105ad578063b88d4fde146105b557600080fd5b806370a08231146104fc5780637e8f2b0c1461050f5780638456cb5914610522578063862440e21461052a5780639010d07c1461053d57806391d148541461055057600080fd5b80632f745c591161024157806342966c68116101fa5780634f6ccce7116101d45780634f6ccce7146104b857806354a19c2b146104cb5780635c975abb146104de5780636352211e146104e957600080fd5b806342966c6814610469578063430c20811461047c5780634ac3c31b1461048f57600080fd5b80632f745c591461040c57806336568abe1461041f5780633b21fd68146104325780633bae7d511461043b5780633f4ba83a1461044e57806342842e0e1461045657600080fd5b806318160ddd1161029357806318160ddd1461038b5780631da033121461039357806323b872dd146103ba578063248a9ca3146103cd5780632670d216146103f15780632f2ff15d146103f957600080fd5b8062923f9e146102da57806301ffc9a71461030057806306fdde0314610323578063081812fc14610338578063095ea7b3146103635780630b3048bf14610378575b600080fd5b6102ed6102e8366004613a37565b610719565b6040519081526020015b60405180910390f35b61031361030e366004613a66565b61073e565b60405190151581526020016102f7565b61032b61074f565b6040516102f79190613adb565b61034b610346366004613a37565b6107e1565b6040516001600160a01b0390911681526020016102f7565b610376610371366004613b03565b61086e565b005b610376610386366004613b2f565b610984565b600b546102ed565b6102ed7f2ce8d04a9c35987429af538825cd2438cc5c5bb5dc427955f84daaa3ea10501681565b6103766103c8366004613b2f565b610b18565b6102ed6103db366004613a37565b6000908152600160208190526040909120015490565b610376610c24565b610376610407366004613b70565b610c47565b6102ed61041a366004613b03565b610c69565b61037661042d366004613b70565b610cff565b6102ed60001981565b610376610449366004613bf8565b610d21565b610376610dba565b610376610464366004613b2f565b610e3a565b610376610477366004613a37565b610e55565b61037661048a366004613b03565b610ed0565b6102ed61049d366004613c4d565b6001600160a01b031660009081526013602052604090205490565b6102ed6104c6366004613a37565b610f2a565b6102ed6104d9366004613d65565b610fbd565b600d5460ff16610313565b61034b6104f7366004613a37565b61109b565b6102ed61050a366004613c4d565b611112565b61037661051d366004613a37565b611199565b6103766112d0565b6102ed610538366004613dd2565b61134e565b61034b61054b366004613e05565b61160d565b61031361055e366004613b70565b61162c565b61032b611657565b6102ed7feeed90ae47cd1f23b88ce446295f1ca23c5e4f5b894addbe83563fd27494e29481565b6102ed600081565b6103766105a8366004613e27565b611666565b61037661172b565b6103766105c3366004613e5a565b611737565b61032b6105d6366004613a37565b611a13565b6102ed6105e9366004613a37565b611cb7565b61032b6105fc366004613eec565b611cce565b61037661060f366004613a37565b611e08565b610376610622366004613a37565b611e8f565b6102ed7f9f2df0fed2c77648de5860a4cc508cd0818c85b8b8a1ab4ceeef8d981c8956a681565b61037661065c366004613b70565b611faf565b61032b61066f366004613f09565b611fb9565b610376610682366004613c4d565b61205f565b6102ed7f65d7a28e3265b37a6474929f336521b332c1681b933f6cb9f3376673440d862a81565b6103136106bc366004613f26565b6001600160a01b03918216600090815260086020908152604080832093909416825291909152205460ff1690565b6102ed7f3b5d4cc60d3ec3516ee8ae083bd60934f6eb2a6c54b1229985c41bfb092b260381565b61037661211d565b60006107248261246c565b15610731575060aa919050565b506000919050565b919050565b600061074982612489565b92915050565b60606003805461075e90613f54565b80601f016020809104026020016040519081016040528092919081815260200182805461078a90613f54565b80156107d75780601f106107ac576101008083540402835291602001916107d7565b820191906000526020600020905b8154815290600101906020018083116107ba57829003601f168201915b5050505050905090565b60006107ec8261246c565b6108525760405162461bcd60e51b815260206004820152602c60248201527f4552433732313a20617070726f76656420717565727920666f72206e6f6e657860448201526b34b9ba32b73a103a37b5b2b760a11b60648201526084015b60405180910390fd5b506000908152600760205260409020546001600160a01b031690565b60006108798261109b565b9050806001600160a01b0316836001600160a01b031614156108e75760405162461bcd60e51b815260206004820152602160248201527f4552433732313a20617070726f76616c20746f2063757272656e74206f776e656044820152603960f91b6064820152608401610849565b336001600160a01b0382161480610903575061090381336106bc565b6109755760405162461bcd60e51b815260206004820152603860248201527f4552433732313a20617070726f76652063616c6c6572206973206e6f74206f7760448201527f6e6572206e6f7220617070726f76656420666f7220616c6c00000000000000006064820152608401610849565b61097f83836124ae565b505050565b600260005414156109a75760405162461bcd60e51b815260040161084990613f8f565b60026000556109d67feeed90ae47cd1f23b88ce446295f1ca23c5e4f5b894addbe83563fd27494e2943361162c565b6109f25760405162461bcd60e51b815260040161084990613fc6565b601254600114610a145760405162461bcd60e51b81526004016108499061400d565b806000610a208261251c565b9050806000015160ff16603314610a8b5760405162461bcd60e51b815260206004820152602960248201527f41543a544154463a4173736574206e6f7420696e207472616e736665727261626044820152686c652073746174757360b81b6064820152608401610849565b610a9761049d8461109b565b60aa1415610ae75760405162461bcd60e51b815260206004820152601d60248201527f41543a544154463a486f6c64657220697320636f6c642057616c6c65740000006044820152606401610849565b60aa6040820152600019610160820152610b0182826125fb565b610b0c8585856126d6565b50506001600055505050565b60026000541415610b3b5760405162461bcd60e51b815260040161084990613f8f565b600260009081558190610b4d8261251c565b9050610b593384612881565b610bbd5760405162461bcd60e51b815260206004820152602f60248201527f41543a54463a5472616e736665722063616c6c6572206973206e6f74206f776e60448201526e195c881b9bdc88185c1c1c9bdd9959608a1b6064820152608401610849565b806000015160ff16603314610ae75760405162461bcd60e51b815260206004820152602760248201527f41543a54463a4173736574206e6f7420696e207472616e736665727261626c656044820152662073746174757360c81b6064820152608401610849565b6000601381335b6001600160a01b03168152602081019190915260400160002055565b610c51828261296b565b600082815260026020526040902061097f9082612457565b6000610c7483611112565b8210610cd65760405162461bcd60e51b815260206004820152602b60248201527f455243373231456e756d657261626c653a206f776e657220696e646578206f7560448201526a74206f6620626f756e647360a81b6064820152608401610849565b506001600160a01b03919091166000908152600960209081526040808320938352929052205490565b610d098282612992565b600082815260026020526040902061097f9082612a0c565b610d4b7f3b5d4cc60d3ec3516ee8ae083bd60934f6eb2a6c54b1229985c41bfb092b26033361162c565b610d975760405162461bcd60e51b815260206004820152601d60248201527f4e533a4d4f442d49443a204d75737420686176652044414f5f524f4c450000006044820152606401610849565b60ff83166000908152600f60205260409020610db49083836138f0565b50505050565b610de47f65d7a28e3265b37a6474929f336521b332c1681b933f6cb9f3376673440d862a3361162c565b610e305760405162461bcd60e51b815260206004820152601f60248201527f41543a55503a2043616c6c65722021686176652070617573657220726f6c65006044820152606401610849565b610e38612a21565b565b61097f83838360405180602001604052806000815250611737565b610e5f3382612881565b610ec45760405162461bcd60e51b815260206004820152603060248201527f4552433732314275726e61626c653a2063616c6c6572206973206e6f74206f7760448201526f1b995c881b9bdc88185c1c1c9bdd995960821b6064820152608401610849565b610ecd81612ab4565b50565b610eda8282612881565b610f265760405162461bcd60e51b815260206004820152601d60248201527f41543a49414f4f3a4e6f7420617070726f766564206f72206f776e65720000006044820152606401610849565b5050565b6000610f35600b5490565b8210610f985760405162461bcd60e51b815260206004820152602c60248201527f455243373231456e756d657261626c653a20676c6f62616c20696e646578206f60448201526b7574206f6620626f756e647360a01b6064820152608401610849565b600b8281548110610fab57610fab614090565b90600052602060002001549050919050565b6000610fe97f9f2df0fed2c77648de5860a4cc508cd0818c85b8b8a1ab4ceeef8d981c8956a63361162c565b6110535760405162461bcd60e51b815260206004820152603560248201527f41543a4d4f442d494d3a43616c6c696e67206164647265737320646f6573206e60448201527437ba103132b637b733903a3790309036b4b73a32b960591b6064820152608401610849565b600260005414156110765760405162461bcd60e51b815260040161084990613f8f565b60026000556110858484612af4565b61108f8383612b0e565b50506001600055919050565b6000818152600560205260408120546001600160a01b0316806107495760405162461bcd60e51b815260206004820152602960248201527f4552433732313a206f776e657220717565727920666f72206e6f6e657869737460448201526832b73a103a37b5b2b760b91b6064820152608401610849565b60006001600160a01b03821661117d5760405162461bcd60e51b815260206004820152602a60248201527f4552433732313a2062616c616e636520717565727920666f7220746865207a65604482015269726f206164647265737360b01b6064820152608401610849565b506001600160a01b031660009081526006602052604090205490565b600260005414156111bc5760405162461bcd60e51b815260040161084990613f8f565b6002600055600d5460ff16156111e45760405162461bcd60e51b8152600401610849906140a6565b806111ef3383612881565b61124c5760405162461bcd60e51b815260206004820152602860248201527f41543a443a5472616e736665722063616c6c657220216f776e6572206e6f7220604482015267185c1c1c9bdd995960c21b6064820152608401610849565b601a546001600160a01b031663c456771482336040516001600160e01b031960e085901b16815260048101929092526001600160a01b03166024820152604401600060405180830381600087803b1580156112a657600080fd5b505af11580156112ba573d6000803e3d6000fd5b505050506112c782612ab4565b50506001600055565b6112fa7f65d7a28e3265b37a6474929f336521b332c1681b933f6cb9f3376673440d862a3361162c565b6113465760405162461bcd60e51b815260206004820152601e60248201527f41543a503a2043616c6c65722021686176652070617573657220726f6c6500006044820152606401610849565b610e38612b8e565b6000838161135b8261251c565b9050806000015160ff1660c9146113b45760405162461bcd60e51b815260206004820152601b60248201527f41543a53553a205265636f72642073746174757320213d2032303100000000006044820152606401610849565b33601d5460608301516040516331a9108f60e11b815263ffffffff90911660048201526001600160a01b039283169290911690636352211e9060240160206040518083038186803b15801561140857600080fd5b505afa15801561141c573d6000803e3d6000fd5b505050506040513d601f19601f8201168201806040525081019061144091906140db565b6001600160a01b031614806115215750601c546040516bffffffffffffffffffffffff193360601b1660208201526001600160a01b0390911690639d2c7cee906034016040516020818303038152906040528051906020012083606001516040518363ffffffff1660e01b81526004016114ca92919091825263ffffffff16602082015260400190565b60206040518083038186803b1580156114e257600080fd5b505afa1580156114f6573d6000803e3d6000fd5b505050506040513d601f19601f8201168201806040525081019061151a9190614103565b60ff166064145b61156d5760405162461bcd60e51b815260206004820152601f60248201527f41543a53553a43616c6c657220214e5448206f7220617574686f72697a6564006044820152606401610849565b6115773387612881565b6115c35760405162461bcd60e51b815260206004820181905260248201527f41543a53553a43616c6c657220216f776e6572206e6f7220617070726f7665646044820152606401610849565b6116038686868080601f016020809104026020016040519081016040528093929190818152602001838380828437600092019190915250612b0e92505050565b5093949350505050565b60008281526002602052604081206116259083612be6565b9392505050565b60009182526001602090815260408084206001600160a01b0393909316845291905290205460ff1690565b60606004805461075e90613f54565b6001600160a01b0382163314156116bf5760405162461bcd60e51b815260206004820152601960248201527f4552433732313a20617070726f766520746f2063616c6c6572000000000000006044820152606401610849565b3360008181526008602090815260408083206001600160a01b03871680855290835292819020805460ff191686151590811790915590519081529192917f17307eab39ab6107e8899845ad3d59bd9653f200f220920489ca2b5937696c31910160405180910390a35050565b60aa6013600033610c2b565b6002600054141561175a5760405162461bcd60e51b815260040161084990613f8f565b60026000908155829061176c8261251c565b601954604051636fcfb49b60e11b81526001600160a01b0388811660048301526000602483018190529394509091169063df9f693690604401604080518083038186803b1580156117bc57600080fd5b505afa1580156117d0573d6000803e3d6000fd5b505050506040513d601f19601f820116820180604052508101906117f49190614120565b5090506118013386612881565b6118605760405162461bcd60e51b815260206004820152602a60248201527f41543a5354463a5472616e736665722063616c6c657220216f776e6572206e6f6044820152691c88185c1c1c9bdd995960b21b6064820152608401610849565b816000015160ff16604614158061187a575060008160ff16115b6118ec5760405162461bcd60e51b815260206004820152603a60248201527f41543a5354463a43616e6e6f742073656e64207374617475732037302061737360448201527f657420746f20756e617574686f72697a656420616464726573730000000000006064820152608401610849565b816000015160ff16603314806119095750816000015160ff166046145b6119635760405162461bcd60e51b815260206004820152602560248201527f41543a5354463a41737365742021696e207472616e736665727261626c652073604482015264746174757360d81b6064820152608401610849565b6001600160a01b0386166119df5760405162461bcd60e51b815260206004820152603a60248201527f41543a5354463a43616e6e6f74207472616e7366657220617373657420746f2060448201527f7a65726f20616464726573732e2055736520646973636172642e0000000000006064820152608401610849565b60aa60408301526000196101608301526119f983836125fb565b611a0587878787612bf2565b505060016000555050505050565b6060611a1e8261246c565b611a795760405162461bcd60e51b815260206004820152602660248201527f41543a54553a2055524920717565727920666f72206e6f6e6578697374656e74604482015265103a37b5b2b760d11b6064820152608401610849565b6000611a848361251c565b601c54606082015160405163f45c157d60e01b815263ffffffff90911660048201529192506000916001600160a01b039091169063f45c157d9060240160006040518083038186803b158015611ad957600080fd5b505afa158015611aed573d6000803e3d6000fd5b505050506040513d6000823e601f3d908101601f19168201604052611b15919081019061419e565b6000858152600e6020526040812080549293509091611b3390613f54565b80601f0160208091040260200160405190810160405280929190818152602001828054611b5f90613f54565b8015611bac5780601f10611b8157610100808354040283529160200191611bac565b820191906000526020600020905b815481529060010190602001808311611b8f57829003601f168201915b505050505090506000600f6000846040015160ff1660ff1681526020019081526020016000208054611bdd90613f54565b80601f0160208091040260200160405190810160405280929190818152602001828054611c0990613f54565b8015611c565780601f10611c2b57610100808354040283529160200191611c56565b820191906000526020600020905b815481529060010190602001808311611c3957829003601f168201915b50505050509050805160001415611c705750949350505050565b815115611ca4578082604051602001611c8a92919061429d565b604051602081830303815290604052945050505050919050565b611cad86612c25565b9695505050505050565b600081815260026020526040812061074990612cef565b601c5460405163f45c157d60e01b815263ffffffff831660048201526060916000916001600160a01b039091169063f45c157d9060240160006040518083038186803b158015611d1d57600080fd5b505afa158015611d31573d6000803e3d6000fd5b505050506040513d6000823e601f3d908101601f19168201604052611d59919081019061419e565b60408082015160ff81166000908152600f6020529190912080549293509091611d8190613f54565b80601f0160208091040260200160405190810160405280929190818152602001828054611dad90613f54565b8015611dfa5780601f10611dcf57610100808354040283529160200191611dfa565b820191906000526020600020905b815481529060010190602001808311611ddd57829003601f168201915b505050505092505050919050565b611e327f3b5d4cc60d3ec3516ee8ae083bd60934f6eb2a6c54b1229985c41bfb092b26033361162c565b611e7e5760405162461bcd60e51b815260206004820152601d60248201527f4e533a4d4f442d49443a204d75737420686176652044414f5f524f4c450000006044820152606401610849565b8060aa1415610ecd57600060125550565b60026000541415611eb25760405162461bcd60e51b815260040161084990613f8f565b6002600055600d5460ff1615611eda5760405162461bcd60e51b8152600401610849906140a6565b611f047feeed90ae47cd1f23b88ce446295f1ca23c5e4f5b894addbe83563fd27494e2943361162c565b611f205760405162461bcd60e51b815260040161084990613fc6565b601254600114611f425760405162461bcd60e51b81526004016108499061400d565b611f4e61049d8261109b565b60aa1415611f9e5760405162461bcd60e51b815260206004820152601c60248201527f41543a5441423a486f6c64657220697320636f6c642057616c6c6574000000006044820152606401610849565b611fa781612ab4565b506001600055565b610d098282612cf9565b60ff81166000908152600f60205260409020805460609190611fda90613f54565b80601f016020809104026020016040519081016040528092919081815260200182805461200690613f54565b80156120535780601f1061202857610100808354040283529160200191612053565b820191906000526020600020905b81548152906001019060200180831161203657829003601f168201915b50505050509050919050565b6120897f2ce8d04a9c35987429af538825cd2438cc5c5bb5dc427955f84daaa3ea1050163361162c565b6120a55760405162461bcd60e51b8152600401610849906142cc565b6001600160a01b0381166120fb5760405162461bcd60e51b815260206004820152601a60248201527f41543a5353433a53746f726167652061646472657373203d20300000000000006044820152606401610849565b601980546001600160a01b0319166001600160a01b0392909216919091179055565b6121477f2ce8d04a9c35987429af538825cd2438cc5c5bb5dc427955f84daaa3ea1050163361162c565b6121635760405162461bcd60e51b8152600401610849906142cc565b6019546040516363b8d4c160e11b81526001600160a01b039091169063c771a982906121aa906004016020808252600490820152632921a62960e11b604082015260600190565b60206040518083038186803b1580156121c257600080fd5b505afa1580156121d6573d6000803e3d6000fd5b505050506040513d601f19601f820116820180604052508101906121fa91906140db565b601580546001600160a01b039283166001600160a01b03199182168117909255601a805490911690911790556019546040516363b8d4c160e11b81526020600482015260086024820152672727a222afa6a3a960c11b604482015291169063c771a9829060640160206040518083038186803b15801561227957600080fd5b505afa15801561228d573d6000803e3d6000fd5b505050506040513d601f19601f820116820180604052508101906122b191906140db565b601680546001600160a01b039283166001600160a01b03199182168117909255601b805490911690911790556019546040516363b8d4c160e11b81526020600482015260096024820152682727a222afa9aa27a960b91b604482015291169063c771a9829060640160206040518083038186803b15801561233157600080fd5b505afa158015612345573d6000803e3d6000fd5b505050506040513d601f19601f8201168201806040525081019061236991906140db565b601780546001600160a01b039283166001600160a01b03199182168117909255601c805490911690911790556019546040516363b8d4c160e11b81526020600482015260086024820152672727a222afaa25a760c11b604482015291169063c771a9829060640160206040518083038186803b1580156123e857600080fd5b505afa1580156123fc573d6000803e3d6000fd5b505050506040513d601f19601f8201168201806040525081019061242091906140db565b601880546001600160a01b03929092166001600160a01b03199283168117909155601d8054909216179055565b610f268282612d20565b6000611625836001600160a01b038416612d8b565b6000908152600560205260409020546001600160a01b0316151590565b60006001600160e01b0319821663780e9d6360e01b1480610749575061074982612dda565b600081815260076020526040902080546001600160a01b0319166001600160a01b03841690811790915581906124e38261109b565b6001600160a01b03167f8c5be1e5ebec7d5bd14f71427d1e84f3dd0314c0f7b2291e5b200ac8c7c3b92560405160405180910390a45050565b6040805161018081018252600080825260208201819052918101829052606081018290526080810182905260a0810182905260c0810182905260e081018290526101008101829052610120810182905261014081018290526101608101919091526019546040516338923cb160e21b8152600481018490526000916001600160a01b03169063e248f2c4906024016101806040518083038186803b1580156125c357600080fd5b505afa1580156125d7573d6000803e3d6000fd5b505050506040513d601f19601f82011682018060405250810190611625919061433b565b600d5460ff161561261e5760405162461bcd60e51b8152600401610849906140a6565b6019546101608201518251608084015160a085015160208601516040808801519051631e21309760e11b8152600481018a9052602481019690965260ff948516604487015263ffffffff93841660648701529290911660848501529190911660a483015261ffff1660c48201526001600160a01b0390911690633c42612e9060e401600060405180830381600087803b1580156126ba57600080fd5b505af11580156126ce573d6000803e3d6000fd5b505050505050565b826001600160a01b03166126e98261109b565b6001600160a01b0316146127515760405162461bcd60e51b815260206004820152602960248201527f4552433732313a207472616e73666572206f6620746f6b656e2074686174206960448201526839903737ba1037bbb760b91b6064820152608401610849565b6001600160a01b0382166127b35760405162461bcd60e51b8152602060048201526024808201527f4552433732313a207472616e7366657220746f20746865207a65726f206164646044820152637265737360e01b6064820152608401610849565b6127be838383612e1a565b6127c96000826124ae565b6001600160a01b03831660009081526006602052604081208054600192906127f2908490614415565b90915550506001600160a01b038216600090815260066020526040812080546001929061282090849061442c565b909155505060008181526005602052604080822080546001600160a01b0319166001600160a01b0386811691821790925591518493918716917fddf252ad1be2c89b69c2b068fc378daa952ba7f163c4a11628f55a4df523b3ef91a4505050565b600061288c8261246c565b6128ed5760405162461bcd60e51b815260206004820152602c60248201527f4552433732313a206f70657261746f7220717565727920666f72206e6f6e657860448201526b34b9ba32b73a103a37b5b2b760a11b6064820152608401610849565b60006128f88361109b565b9050806001600160a01b0316846001600160a01b031614806129335750836001600160a01b0316612928846107e1565b6001600160a01b0316145b8061296357506001600160a01b0380821660009081526008602090815260408083209388168352929052205460ff165b949350505050565b600082815260016020819052604090912001546129888133612e25565b61097f8383612d20565b6001600160a01b0381163314612a025760405162461bcd60e51b815260206004820152602f60248201527f416363657373436f6e74726f6c3a2063616e206f6e6c792072656e6f756e636560448201526e103937b632b9903337b91039b2b63360891b6064820152608401610849565b610f268282612e89565b6000611625836001600160a01b038416612ef0565b600d5460ff16612a6a5760405162461bcd60e51b815260206004820152601460248201527314185d5cd8589b194e881b9bdd081c185d5cd95960621b6044820152606401610849565b600d805460ff191690557f5db9ee0a495bf2e6ff9c91a7834c1ba4fdd244a5e8aa4e537bd38aeae4b073aa335b6040516001600160a01b03909116815260200160405180910390a1565b612abd81612fe3565b6000818152600e602052604090208054612ad690613f54565b159050610ecd576000818152600e60205260408120610ecd91613974565b610f2682826040518060200160405280600081525061308a565b612b178261246c565b612b6f5760405162461bcd60e51b8152602060048201526024808201527f41543a5354553a2055524920736574206f66206e6f6e6578697374656e74207460448201526337b5b2b760e11b6064820152608401610849565b6000828152600e60209081526040909120825161097f928401906139ae565b600d5460ff1615612bb15760405162461bcd60e51b8152600401610849906140a6565b600d805460ff191660011790557f62e78cea01bee320cd4e420270b5ea74000d11b0c9f74754ebdbfc544b05a258612a973390565b600061162583836130bd565b612bfd8484846126d6565b612c09848484846130e7565b610db45760405162461bcd60e51b815260040161084990614444565b6060612c308261246c565b612c945760405162461bcd60e51b815260206004820152602f60248201527f4552433732314d657461646174613a2055524920717565727920666f72206e6f60448201526e3732bc34b9ba32b73a103a37b5b2b760891b6064820152608401610849565b6000612c9e6131f4565b90506000815111612cbe5760405180602001604052806000815250611625565b80612cc884613203565b604051602001612cd992919061429d565b6040516020818303038152906040529392505050565b6000610749825490565b60008281526001602081905260409091200154612d168133612e25565b61097f8383612e89565b612d2a828261162c565b610f265760008281526001602081815260408084206001600160a01b0386168086529252808420805460ff19169093179092559051339285917f2f8788117e7eff1d82e926ec794901d17c78024a50270940304540a733656f0d9190a45050565b6000818152600183016020526040812054612dd257508154600181810184556000848152602080822090930184905584548482528286019093526040902091909155610749565b506000610749565b60006001600160e01b031982166380ac58cd60e01b1480612e0b57506001600160e01b03198216635b5e139f60e01b145b80610749575061074982613301565b61097f838383613326565b612e2f828261162c565b610f2657612e47816001600160a01b03166014613398565b612e52836020613398565b604051602001612e63929190614496565b60408051601f198184030181529082905262461bcd60e51b825261084991600401613adb565b612e93828261162c565b15610f265760008281526001602090815260408083206001600160a01b0385168085529252808320805460ff1916905551339285917ff6391f5c32d9c69d2a47ea670b442974b53935d1edc7fd64eb21e047a839171b9190a45050565b60008181526001830160205260408120548015612fd9576000612f14600183614415565b8554909150600090612f2890600190614415565b9050818114612f8d576000866000018281548110612f4857612f48614090565b9060005260206000200154905080876000018481548110612f6b57612f6b614090565b6000918252602080832090910192909255918252600188019052604090208390555b8554869080612f9e57612f9e61450b565b600190038181906000526020600020016000905590558560010160008681526020019081526020016000206000905560019350505050610749565b6000915050610749565b6000612fee8261109b565b9050612ffc81600084612e1a565b6130076000836124ae565b6001600160a01b0381166000908152600660205260408120805460019290613030908490614415565b909155505060008281526005602052604080822080546001600160a01b0319169055518391906001600160a01b038416907fddf252ad1be2c89b69c2b068fc378daa952ba7f163c4a11628f55a4df523b3ef908390a45050565b6130948383613534565b6130a160008484846130e7565b61097f5760405162461bcd60e51b815260040161084990614444565b60008260000182815481106130d4576130d4614090565b9060005260206000200154905092915050565b60006001600160a01b0384163b156131e957604051630a85bd0160e11b81526001600160a01b0385169063150b7a029061312b903390899088908890600401614521565b602060405180830381600087803b15801561314557600080fd5b505af1925050508015613175575060408051601f3d908101601f1916820190925261317291810190614554565b60015b6131cf573d8080156131a3576040519150601f19603f3d011682016040523d82523d6000602084013e6131a8565b606091505b5080516131c75760405162461bcd60e51b815260040161084990614444565b805181602001fd5b6001600160e01b031916630a85bd0160e11b149050612963565b506001949350505050565b60606011805461075e90613f54565b6060816132275750506040805180820190915260018152600360fc1b602082015290565b8160005b8115613251578061323b81614571565b915061324a9050600a836145a2565b915061322b565b60008167ffffffffffffffff81111561326c5761326c613c6a565b6040519080825280601f01601f191660200182016040528015613296576020820181803683370190505b5090505b8415612963576132ab600183614415565b91506132b8600a866145b6565b6132c390603061442c565b60f81b8183815181106132d8576132d8614090565b60200101906001600160f81b031916908160001a9053506132fa600a866145a2565b945061329a565b60006001600160e01b03198216635a05180f60e01b1480610749575061074982613673565b6133318383836136a8565b600d5460ff161561097f5760405162461bcd60e51b815260206004820152602b60248201527f4552433732315061757361626c653a20746f6b656e207472616e73666572207760448201526a1a1a5b19481c185d5cd95960aa1b6064820152608401610849565b606060006133a78360026145ca565b6133b290600261442c565b67ffffffffffffffff8111156133ca576133ca613c6a565b6040519080825280601f01601f1916602001820160405280156133f4576020820181803683370190505b509050600360fc1b8160008151811061340f5761340f614090565b60200101906001600160f81b031916908160001a905350600f60fb1b8160018151811061343e5761343e614090565b60200101906001600160f81b031916908160001a90535060006134628460026145ca565b61346d90600161442c565b90505b60018111156134e5576f181899199a1a9b1b9c1cb0b131b232b360811b85600f16601081106134a1576134a1614090565b1a60f81b8282815181106134b7576134b7614090565b60200101906001600160f81b031916908160001a90535060049490941c936134de816145e9565b9050613470565b5083156116255760405162461bcd60e51b815260206004820181905260248201527f537472696e67733a20686578206c656e67746820696e73756666696369656e746044820152606401610849565b6001600160a01b03821661358a5760405162461bcd60e51b815260206004820181905260248201527f4552433732313a206d696e7420746f20746865207a65726f20616464726573736044820152606401610849565b6135938161246c565b156135e05760405162461bcd60e51b815260206004820152601c60248201527f4552433732313a20746f6b656e20616c7265616479206d696e746564000000006044820152606401610849565b6135ec60008383612e1a565b6001600160a01b038216600090815260066020526040812080546001929061361590849061442c565b909155505060008181526005602052604080822080546001600160a01b0319166001600160a01b03861690811790915590518392907fddf252ad1be2c89b69c2b068fc378daa952ba7f163c4a11628f55a4df523b3ef908290a45050565b60006001600160e01b03198216637965db0b60e01b148061074957506301ffc9a760e01b6001600160e01b0319831614610749565b6001600160a01b038316613703576136fe81600b80546000838152600c60205260408120829055600182018355919091527f0175b7a638427703f0dbe7bb9bbf987a2551717b34e79f33b5b1008d1fa01db90155565b613726565b816001600160a01b0316836001600160a01b031614613726576137268382613760565b6001600160a01b03821661373d5761097f816137fd565b826001600160a01b0316826001600160a01b03161461097f5761097f82826138ac565b6000600161376d84611112565b6137779190614415565b6000838152600a60205260409020549091508082146137ca576001600160a01b03841660009081526009602090815260408083208584528252808320548484528184208190558352600a90915290208190555b506000918252600a602090815260408084208490556001600160a01b039094168352600981528383209183525290812055565b600b5460009061380f90600190614415565b6000838152600c6020526040812054600b805493945090928490811061383757613837614090565b9060005260206000200154905080600b838154811061385857613858614090565b6000918252602080832090910192909255828152600c9091526040808220849055858252812055600b8054806138905761389061450b565b6001900381819060005260206000200160009055905550505050565b60006138b783611112565b6001600160a01b0390931660009081526009602090815260408083208684528252808320859055938252600a9052919091209190915550565b8280546138fc90613f54565b90600052602060002090601f01602090048101928261391e5760008555613964565b82601f106139375782800160ff19823516178555613964565b82800160010185558215613964579182015b82811115613964578235825591602001919060010190613949565b50613970929150613a22565b5090565b50805461398090613f54565b6000825580601f10613990575050565b601f016020900490600052602060002090810190610ecd9190613a22565b8280546139ba90613f54565b90600052602060002090601f0160209004810192826139dc5760008555613964565b82601f106139f557805160ff1916838001178555613964565b82800160010185558215613964579182015b82811115613964578251825591602001919060010190613a07565b5b808211156139705760008155600101613a23565b600060208284031215613a4957600080fd5b5035919050565b6001600160e01b031981168114610ecd57600080fd5b600060208284031215613a7857600080fd5b813561162581613a50565b60005b83811015613a9e578181015183820152602001613a86565b83811115610db45750506000910152565b60008151808452613ac7816020860160208601613a83565b601f01601f19169290920160200192915050565b6020815260006116256020830184613aaf565b6001600160a01b0381168114610ecd57600080fd5b60008060408385031215613b1657600080fd5b8235613b2181613aee565b946020939093013593505050565b600080600060608486031215613b4457600080fd5b8335613b4f81613aee565b92506020840135613b5f81613aee565b929592945050506040919091013590565b60008060408385031215613b8357600080fd5b823591506020830135613b9581613aee565b809150509250929050565b60ff81168114610ecd57600080fd5b60008083601f840112613bc157600080fd5b50813567ffffffffffffffff811115613bd957600080fd5b602083019150836020828501011115613bf157600080fd5b9250929050565b600080600060408486031215613c0d57600080fd5b8335613c1881613ba0565b9250602084013567ffffffffffffffff811115613c3457600080fd5b613c4086828701613baf565b9497909650939450505050565b600060208284031215613c5f57600080fd5b813561162581613aee565b634e487b7160e01b600052604160045260246000fd5b604051610140810167ffffffffffffffff81118282101715613ca457613ca4613c6a565b60405290565b604051610180810167ffffffffffffffff81118282101715613ca457613ca4613c6a565b604051601f8201601f1916810167ffffffffffffffff81118282101715613cf757613cf7613c6a565b604052919050565b600067ffffffffffffffff821115613d1957613d19613c6a565b50601f01601f191660200190565b6000613d3a613d3584613cff565b613cce565b9050828152838383011115613d4e57600080fd5b828260208301376000602084830101529392505050565b600080600060608486031215613d7a57600080fd5b8335613d8581613aee565b925060208401359150604084013567ffffffffffffffff811115613da857600080fd5b8401601f81018613613db957600080fd5b613dc886823560208401613d27565b9150509250925092565b600080600060408486031215613de757600080fd5b83359250602084013567ffffffffffffffff811115613c3457600080fd5b60008060408385031215613e1857600080fd5b50508035926020909101359150565b60008060408385031215613e3a57600080fd5b8235613e4581613aee565b915060208301358015158114613b9557600080fd5b60008060008060808587031215613e7057600080fd5b8435613e7b81613aee565b93506020850135613e8b81613aee565b925060408501359150606085013567ffffffffffffffff811115613eae57600080fd5b8501601f81018713613ebf57600080fd5b613ece87823560208401613d27565b91505092959194509250565b63ffffffff81168114610ecd57600080fd5b600060208284031215613efe57600080fd5b813561162581613eda565b600060208284031215613f1b57600080fd5b813561162581613ba0565b60008060408385031215613f3957600080fd5b8235613f4481613aee565b91506020830135613b9581613aee565b600181811c90821680613f6857607f821691505b60208210811415613f8957634e487b7160e01b600052602260045260246000fd5b50919050565b6020808252601f908201527f5265656e7472616e637947756172643a207265656e7472616e742063616c6c00604082015260600190565b60208082526027908201527f41543a4d4f442d4954413a4d757374206861766520545255535445445f4147456040820152664e545f524f4c4560c81b606082015260800190565b6020808252605d908201527f41543a4d4f442d4954413a54727573746564204167656e742066756e6374696f60408201527f6e207065726d616e656e746c792064697361626c6564202d2075736520616c6c60608201527f6f77616e6365202f207472616e7366657246726f6d207061747465726e000000608082015260a00190565b634e487b7160e01b600052603260045260246000fd5b60208082526010908201526f14185d5cd8589b194e881c185d5cd95960821b604082015260600190565b805161073981613aee565b6000602082840312156140ed57600080fd5b815161162581613aee565b805161073981613ba0565b60006020828403121561411557600080fd5b815161162581613ba0565b6000806040838503121561413357600080fd5b825161413e81613ba0565b6020939093015192949293505050565b805161073981613eda565b600082601f83011261416a57600080fd5b8151614178613d3582613cff565b81815284602083860101111561418d57600080fd5b612963826020830160208701613a83565b6000602082840312156141b057600080fd5b815167ffffffffffffffff808211156141c857600080fd5b9083019061014082860312156141dd57600080fd5b6141e5613c80565b6141ee836140f8565b81526141fc602084016140f8565b602082015261420d604084016140f8565b604082015261421e606084016140f8565b606082015261422f6080840161414e565b608082015261424060a0840161414e565b60a082015261425160c084016140d0565b60c082015260e083015160e0820152610100808401518183015250610120808401518381111561428057600080fd5b61428c88828701614159565b918301919091525095945050505050565b600083516142af818460208801613a83565b8351908301906142c3818360208801613a83565b01949350505050565b6020808252603e908201527f41543a4d4f442d4943413a43616c6c696e67206164647265737320646f65732060408201527f6e6f742062656c6f6e6720746f206120636f6e74726163742061646d696e0000606082015260800190565b805161ffff8116811461073957600080fd5b6000610180828403121561434e57600080fd5b614356613caa565b61435f836140f8565b815261436d602084016140f8565b602082015261437e60408401614329565b604082015261438f6060840161414e565b60608201526143a06080840161414e565b60808201526143b160a0840161414e565b60a082015260c0838101519082015260e08084015190820152610100808401519082015261012080840151908201526101408084015190820152610160928301519281019290925250919050565b634e487b7160e01b600052601160045260246000fd5b600082821015614427576144276143ff565b500390565b6000821982111561443f5761443f6143ff565b500190565b60208082526032908201527f4552433732313a207472616e7366657220746f206e6f6e20455243373231526560408201527131b2b4bb32b91034b6b83632b6b2b73a32b960711b606082015260800190565b7f416363657373436f6e74726f6c3a206163636f756e74200000000000000000008152600083516144ce816017850160208801613a83565b7001034b99036b4b9b9b4b733903937b6329607d1b60179184019182015283516144ff816028840160208801613a83565b01602801949350505050565b634e487b7160e01b600052603160045260246000fd5b6001600160a01b0385811682528416602082015260408101839052608060608201819052600090611cad90830184613aaf565b60006020828403121561456657600080fd5b815161162581613a50565b6000600019821415614585576145856143ff565b5060010190565b634e487b7160e01b600052601260045260246000fd5b6000826145b1576145b161458c565b500490565b6000826145c5576145c561458c565b500690565b60008160001904831182151516156145e4576145e46143ff565b500290565b6000816145f8576145f86143ff565b50600019019056fea264697066735822122032834ad5dbe2a69497214a6a6ee2bac62dd79bb35781b58416dffc579df4e42964736f6c63430008090033",
			"opcodes": "PUSH1 0x80 PUSH1 0x40 MSTORE PUSH1 0x1 PUSH1 0x12 SSTORE CALLVALUE DUP1 ISZERO PUSH3 0x16 JUMPI PUSH1 0x0 DUP1 REVERT JUMPDEST POP PUSH1 0x40 DUP1 MLOAD DUP1 DUP3 ADD DUP3 MSTORE PUSH1 0x10 DUP2 MSTORE PUSH16 0x28292AA31020B9B9B2BA102A37B5B2B7 PUSH1 0x81 SHL PUSH1 0x20 DUP1 DUP4 ADD SWAP2 DUP3 MSTORE DUP4 MLOAD DUP1 DUP6 ADD SWAP1 SWAP5 MSTORE PUSH1 0x4 DUP5 MSTORE PUSH4 0x14149055 PUSH1 0xE2 SHL SWAP1 DUP5 ADD MSTORE PUSH1 0x1 PUSH1 0x0 SSTORE DUP2 MLOAD SWAP2 SWAP3 SWAP2 PUSH3 0x70 SWAP2 PUSH1 0x3 SWAP2 PUSH3 0x24B JUMP JUMPDEST POP DUP1 MLOAD PUSH3 0x86 SWAP1 PUSH1 0x4 SWAP1 PUSH1 0x20 DUP5 ADD SWAP1 PUSH3 0x24B JUMP JUMPDEST POP POP PUSH1 0xD DUP1 SLOAD PUSH1 0xFF NOT AND SWAP1 SSTORE POP PUSH3 0xA0 PUSH1 0x0 CALLER PUSH3 0xFE JUMP JUMPDEST PUSH3 0xCC PUSH32 0x2CE8D04A9C35987429AF538825CD2438CC5C5BB5DC427955F84DAAA3EA105016 CALLER PUSH3 0xFE JUMP JUMPDEST PUSH3 0xF8 PUSH32 0x65D7A28E3265B37A6474929F336521B332C1681B933F6CB9F3376673440D862A CALLER PUSH3 0xFE JUMP JUMPDEST PUSH3 0x32E JUMP JUMPDEST PUSH3 0x115 DUP3 DUP3 PUSH3 0x141 PUSH1 0x20 SHL PUSH3 0x244D OR PUSH1 0x20 SHR JUMP JUMPDEST PUSH1 0x0 DUP3 DUP2 MSTORE PUSH1 0x2 PUSH1 0x20 SWAP1 DUP2 MSTORE PUSH1 0x40 SWAP1 SWAP2 KECCAK256 PUSH3 0x13C SWAP2 DUP4 SWAP1 PUSH3 0x2457 PUSH3 0x151 DUP3 SHL OR SWAP1 SHR JUMP JUMPDEST POP POP POP JUMP JUMPDEST PUSH3 0x14D DUP3 DUP3 PUSH3 0x171 JUMP JUMPDEST POP POP JUMP JUMPDEST PUSH1 0x0 PUSH3 0x168 DUP4 PUSH1 0x1 PUSH1 0x1 PUSH1 0xA0 SHL SUB DUP5 AND PUSH3 0x1F9 JUMP JUMPDEST SWAP1 POP JUMPDEST SWAP3 SWAP2 POP POP JUMP JUMPDEST PUSH1 0x0 DUP3 DUP2 MSTORE PUSH1 0x1 PUSH1 0x20 SWAP1 DUP2 MSTORE PUSH1 0x40 DUP1 DUP4 KECCAK256 PUSH1 0x1 PUSH1 0x1 PUSH1 0xA0 SHL SUB DUP6 AND DUP5 MSTORE SWAP1 SWAP2 MSTORE SWAP1 KECCAK256 SLOAD PUSH1 0xFF AND PUSH3 0x14D JUMPI PUSH1 0x0 DUP3 DUP2 MSTORE PUSH1 0x1 PUSH1 0x20 DUP2 DUP2 MSTORE PUSH1 0x40 DUP1 DUP5 KECCAK256 PUSH1 0x1 PUSH1 0x1 PUSH1 0xA0 SHL SUB DUP7 AND DUP1 DUP7 MSTORE SWAP3 MSTORE DUP1 DUP5 KECCAK256 DUP1 SLOAD PUSH1 0xFF NOT AND SWAP1 SWAP4 OR SWAP1 SWAP3 SSTORE SWAP1 MLOAD CALLER SWAP3 DUP6 SWAP2 PUSH32 0x2F8788117E7EFF1D82E926EC794901D17C78024A50270940304540A733656F0D SWAP2 SWAP1 LOG4 POP POP JUMP JUMPDEST PUSH1 0x0 DUP2 DUP2 MSTORE PUSH1 0x1 DUP4 ADD PUSH1 0x20 MSTORE PUSH1 0x40 DUP2 KECCAK256 SLOAD PUSH3 0x242 JUMPI POP DUP2 SLOAD PUSH1 0x1 DUP2 DUP2 ADD DUP5 SSTORE PUSH1 0x0 DUP5 DUP2 MSTORE PUSH1 0x20 DUP1 DUP3 KECCAK256 SWAP1 SWAP4 ADD DUP5 SWAP1 SSTORE DUP5 SLOAD DUP5 DUP3 MSTORE DUP3 DUP7 ADD SWAP1 SWAP4 MSTORE PUSH1 0x40 SWAP1 KECCAK256 SWAP2 SWAP1 SWAP2 SSTORE PUSH3 0x16B JUMP JUMPDEST POP PUSH1 0x0 PUSH3 0x16B JUMP JUMPDEST DUP3 DUP1 SLOAD PUSH3 0x259 SWAP1 PUSH3 0x2F1 JUMP JUMPDEST SWAP1 PUSH1 0x0 MSTORE PUSH1 0x20 PUSH1 0x0 KECCAK256 SWAP1 PUSH1 0x1F ADD PUSH1 0x20 SWAP1 DIV DUP2 ADD SWAP3 DUP3 PUSH3 0x27D JUMPI PUSH1 0x0 DUP6 SSTORE PUSH3 0x2C8 JUMP JUMPDEST DUP3 PUSH1 0x1F LT PUSH3 0x298 JUMPI DUP1 MLOAD PUSH1 0xFF NOT AND DUP4 DUP1 ADD OR DUP6 SSTORE PUSH3 0x2C8 JUMP JUMPDEST DUP3 DUP1 ADD PUSH1 0x1 ADD DUP6 SSTORE DUP3 ISZERO PUSH3 0x2C8 JUMPI SWAP2 DUP3 ADD JUMPDEST DUP3 DUP2 GT ISZERO PUSH3 0x2C8 JUMPI DUP3 MLOAD DUP3 SSTORE SWAP2 PUSH1 0x20 ADD SWAP2 SWAP1 PUSH1 0x1 ADD SWAP1 PUSH3 0x2AB JUMP JUMPDEST POP PUSH3 0x2D6 SWAP3 SWAP2 POP PUSH3 0x2DA JUMP JUMPDEST POP SWAP1 JUMP JUMPDEST JUMPDEST DUP1 DUP3 GT ISZERO PUSH3 0x2D6 JUMPI PUSH1 0x0 DUP2 SSTORE PUSH1 0x1 ADD PUSH3 0x2DB JUMP JUMPDEST PUSH1 0x1 DUP2 DUP2 SHR SWAP1 DUP3 AND DUP1 PUSH3 0x306 JUMPI PUSH1 0x7F DUP3 AND SWAP2 POP JUMPDEST PUSH1 0x20 DUP3 LT DUP2 EQ ISZERO PUSH3 0x328 JUMPI PUSH4 0x4E487B71 PUSH1 0xE0 SHL PUSH1 0x0 MSTORE PUSH1 0x22 PUSH1 0x4 MSTORE PUSH1 0x24 PUSH1 0x0 REVERT JUMPDEST POP SWAP2 SWAP1 POP JUMP JUMPDEST PUSH2 0x4636 DUP1 PUSH3 0x33E PUSH1 0x0 CODECOPY PUSH1 0x0 RETURN INVALID PUSH1 0x80 PUSH1 0x40 MSTORE CALLVALUE DUP1 ISZERO PUSH2 0x10 JUMPI PUSH1 0x0 DUP1 REVERT JUMPDEST POP PUSH1 0x4 CALLDATASIZE LT PUSH2 0x2D5 JUMPI PUSH1 0x0 CALLDATALOAD PUSH1 0xE0 SHR DUP1 PUSH4 0x70A08231 GT PUSH2 0x182 JUMPI DUP1 PUSH4 0xC87B56DD GT PUSH2 0xE9 JUMPI DUP1 PUSH4 0xD547741F GT PUSH2 0xA2 JUMPI DUP1 PUSH4 0xE63AB1E9 GT PUSH2 0x7C JUMPI DUP1 PUSH4 0xE63AB1E9 EQ PUSH2 0x687 JUMPI DUP1 PUSH4 0xE985E9C5 EQ PUSH2 0x6AE JUMPI DUP1 PUSH4 0xE9C26518 EQ PUSH2 0x6EA JUMPI DUP1 PUSH4 0xEE9C25C5 EQ PUSH2 0x711 JUMPI PUSH1 0x0 DUP1 REVERT JUMPDEST DUP1 PUSH4 0xD547741F EQ PUSH2 0x64E JUMPI DUP1 PUSH4 0xD6CF1DF1 EQ PUSH2 0x661 JUMPI DUP1 PUSH4 0xDC38B0A2 EQ PUSH2 0x674 JUMPI PUSH1 0x0 DUP1 REVERT JUMPDEST DUP1 PUSH4 0xC87B56DD EQ PUSH2 0x5C8 JUMPI DUP1 PUSH4 0xCA15C873 EQ PUSH2 0x5DB JUMPI DUP1 PUSH4 0xCB6815FA EQ PUSH2 0x5EE JUMPI DUP1 PUSH4 0xCF0B969F EQ PUSH2 0x601 JUMPI DUP1 PUSH4 0xD0AD0978 EQ PUSH2 0x614 JUMPI DUP1 PUSH4 0xD5391393 EQ PUSH2 0x627 JUMPI PUSH1 0x0 DUP1 REVERT JUMPDEST DUP1 PUSH4 0x95D89B41 GT PUSH2 0x13B JUMPI DUP1 PUSH4 0x95D89B41 EQ PUSH2 0x563 JUMPI DUP1 PUSH4 0x992A7176 EQ PUSH2 0x56B JUMPI DUP1 PUSH4 0xA217FDDF EQ PUSH2 0x592 JUMPI DUP1 PUSH4 0xA22CB465 EQ PUSH2 0x59A JUMPI DUP1 PUSH4 0xADFCAAE0 EQ PUSH2 0x5AD JUMPI DUP1 PUSH4 0xB88D4FDE EQ PUSH2 0x5B5 JUMPI PUSH1 0x0 DUP1 REVERT JUMPDEST DUP1 PUSH4 0x70A08231 EQ PUSH2 0x4FC JUMPI DUP1 PUSH4 0x7E8F2B0C EQ PUSH2 0x50F JUMPI DUP1 PUSH4 0x8456CB59 EQ PUSH2 0x522 JUMPI DUP1 PUSH4 0x862440E2 EQ PUSH2 0x52A JUMPI DUP1 PUSH4 0x9010D07C EQ PUSH2 0x53D JUMPI DUP1 PUSH4 0x91D14854 EQ PUSH2 0x550 JUMPI PUSH1 0x0 DUP1 REVERT JUMPDEST DUP1 PUSH4 0x2F745C59 GT PUSH2 0x241 JUMPI DUP1 PUSH4 0x42966C68 GT PUSH2 0x1FA JUMPI DUP1 PUSH4 0x4F6CCCE7 GT PUSH2 0x1D4 JUMPI DUP1 PUSH4 0x4F6CCCE7 EQ PUSH2 0x4B8 JUMPI DUP1 PUSH4 0x54A19C2B EQ PUSH2 0x4CB JUMPI DUP1 PUSH4 0x5C975ABB EQ PUSH2 0x4DE JUMPI DUP1 PUSH4 0x6352211E EQ PUSH2 0x4E9 JUMPI PUSH1 0x0 DUP1 REVERT JUMPDEST DUP1 PUSH4 0x42966C68 EQ PUSH2 0x469 JUMPI DUP1 PUSH4 0x430C2081 EQ PUSH2 0x47C JUMPI DUP1 PUSH4 0x4AC3C31B EQ PUSH2 0x48F JUMPI PUSH1 0x0 DUP1 REVERT JUMPDEST DUP1 PUSH4 0x2F745C59 EQ PUSH2 0x40C JUMPI DUP1 PUSH4 0x36568ABE EQ PUSH2 0x41F JUMPI DUP1 PUSH4 0x3B21FD68 EQ PUSH2 0x432 JUMPI DUP1 PUSH4 0x3BAE7D51 EQ PUSH2 0x43B JUMPI DUP1 PUSH4 0x3F4BA83A EQ PUSH2 0x44E JUMPI DUP1 PUSH4 0x42842E0E EQ PUSH2 0x456 JUMPI PUSH1 0x0 DUP1 REVERT JUMPDEST DUP1 PUSH4 0x18160DDD GT PUSH2 0x293 JUMPI DUP1 PUSH4 0x18160DDD EQ PUSH2 0x38B JUMPI DUP1 PUSH4 0x1DA03312 EQ PUSH2 0x393 JUMPI DUP1 PUSH4 0x23B872DD EQ PUSH2 0x3BA JUMPI DUP1 PUSH4 0x248A9CA3 EQ PUSH2 0x3CD JUMPI DUP1 PUSH4 0x2670D216 EQ PUSH2 0x3F1 JUMPI DUP1 PUSH4 0x2F2FF15D EQ PUSH2 0x3F9 JUMPI PUSH1 0x0 DUP1 REVERT JUMPDEST DUP1 PUSH3 0x923F9E EQ PUSH2 0x2DA JUMPI DUP1 PUSH4 0x1FFC9A7 EQ PUSH2 0x300 JUMPI DUP1 PUSH4 0x6FDDE03 EQ PUSH2 0x323 JUMPI DUP1 PUSH4 0x81812FC EQ PUSH2 0x338 JUMPI DUP1 PUSH4 0x95EA7B3 EQ PUSH2 0x363 JUMPI DUP1 PUSH4 0xB3048BF EQ PUSH2 0x378 JUMPI JUMPDEST PUSH1 0x0 DUP1 REVERT JUMPDEST PUSH2 0x2ED PUSH2 0x2E8 CALLDATASIZE PUSH1 0x4 PUSH2 0x3A37 JUMP JUMPDEST PUSH2 0x719 JUMP JUMPDEST PUSH1 0x40 MLOAD SWAP1 DUP2 MSTORE PUSH1 0x20 ADD JUMPDEST PUSH1 0x40 MLOAD DUP1 SWAP2 SUB SWAP1 RETURN JUMPDEST PUSH2 0x313 PUSH2 0x30E CALLDATASIZE PUSH1 0x4 PUSH2 0x3A66 JUMP JUMPDEST PUSH2 0x73E JUMP JUMPDEST PUSH1 0x40 MLOAD SWAP1 ISZERO ISZERO DUP2 MSTORE PUSH1 0x20 ADD PUSH2 0x2F7 JUMP JUMPDEST PUSH2 0x32B PUSH2 0x74F JUMP JUMPDEST PUSH1 0x40 MLOAD PUSH2 0x2F7 SWAP2 SWAP1 PUSH2 0x3ADB JUMP JUMPDEST PUSH2 0x34B PUSH2 0x346 CALLDATASIZE PUSH1 0x4 PUSH2 0x3A37 JUMP JUMPDEST PUSH2 0x7E1 JUMP JUMPDEST PUSH1 0x40 MLOAD PUSH1 0x1 PUSH1 0x1 PUSH1 0xA0 SHL SUB SWAP1 SWAP2 AND DUP2 MSTORE PUSH1 0x20 ADD PUSH2 0x2F7 JUMP JUMPDEST PUSH2 0x376 PUSH2 0x371 CALLDATASIZE PUSH1 0x4 PUSH2 0x3B03 JUMP JUMPDEST PUSH2 0x86E JUMP JUMPDEST STOP JUMPDEST PUSH2 0x376 PUSH2 0x386 CALLDATASIZE PUSH1 0x4 PUSH2 0x3B2F JUMP JUMPDEST PUSH2 0x984 JUMP JUMPDEST PUSH1 0xB SLOAD PUSH2 0x2ED JUMP JUMPDEST PUSH2 0x2ED PUSH32 0x2CE8D04A9C35987429AF538825CD2438CC5C5BB5DC427955F84DAAA3EA105016 DUP2 JUMP JUMPDEST PUSH2 0x376 PUSH2 0x3C8 CALLDATASIZE PUSH1 0x4 PUSH2 0x3B2F JUMP JUMPDEST PUSH2 0xB18 JUMP JUMPDEST PUSH2 0x2ED PUSH2 0x3DB CALLDATASIZE PUSH1 0x4 PUSH2 0x3A37 JUMP JUMPDEST PUSH1 0x0 SWAP1 DUP2 MSTORE PUSH1 0x1 PUSH1 0x20 DUP2 SWAP1 MSTORE PUSH1 0x40 SWAP1 SWAP2 KECCAK256 ADD SLOAD SWAP1 JUMP JUMPDEST PUSH2 0x376 PUSH2 0xC24 JUMP JUMPDEST PUSH2 0x376 PUSH2 0x407 CALLDATASIZE PUSH1 0x4 PUSH2 0x3B70 JUMP JUMPDEST PUSH2 0xC47 JUMP JUMPDEST PUSH2 0x2ED PUSH2 0x41A CALLDATASIZE PUSH1 0x4 PUSH2 0x3B03 JUMP JUMPDEST PUSH2 0xC69 JUMP JUMPDEST PUSH2 0x376 PUSH2 0x42D CALLDATASIZE PUSH1 0x4 PUSH2 0x3B70 JUMP JUMPDEST PUSH2 0xCFF JUMP JUMPDEST PUSH2 0x2ED PUSH1 0x0 NOT DUP2 JUMP JUMPDEST PUSH2 0x376 PUSH2 0x449 CALLDATASIZE PUSH1 0x4 PUSH2 0x3BF8 JUMP JUMPDEST PUSH2 0xD21 JUMP JUMPDEST PUSH2 0x376 PUSH2 0xDBA JUMP JUMPDEST PUSH2 0x376 PUSH2 0x464 CALLDATASIZE PUSH1 0x4 PUSH2 0x3B2F JUMP JUMPDEST PUSH2 0xE3A JUMP JUMPDEST PUSH2 0x376 PUSH2 0x477 CALLDATASIZE PUSH1 0x4 PUSH2 0x3A37 JUMP JUMPDEST PUSH2 0xE55 JUMP JUMPDEST PUSH2 0x376 PUSH2 0x48A CALLDATASIZE PUSH1 0x4 PUSH2 0x3B03 JUMP JUMPDEST PUSH2 0xED0 JUMP JUMPDEST PUSH2 0x2ED PUSH2 0x49D CALLDATASIZE PUSH1 0x4 PUSH2 0x3C4D JUMP JUMPDEST PUSH1 0x1 PUSH1 0x1 PUSH1 0xA0 SHL SUB AND PUSH1 0x0 SWAP1 DUP2 MSTORE PUSH1 0x13 PUSH1 0x20 MSTORE PUSH1 0x40 SWAP1 KECCAK256 SLOAD SWAP1 JUMP JUMPDEST PUSH2 0x2ED PUSH2 0x4C6 CALLDATASIZE PUSH1 0x4 PUSH2 0x3A37 JUMP JUMPDEST PUSH2 0xF2A JUMP JUMPDEST PUSH2 0x2ED PUSH2 0x4D9 CALLDATASIZE PUSH1 0x4 PUSH2 0x3D65 JUMP JUMPDEST PUSH2 0xFBD JUMP JUMPDEST PUSH1 0xD SLOAD PUSH1 0xFF AND PUSH2 0x313 JUMP JUMPDEST PUSH2 0x34B PUSH2 0x4F7 CALLDATASIZE PUSH1 0x4 PUSH2 0x3A37 JUMP JUMPDEST PUSH2 0x109B JUMP JUMPDEST PUSH2 0x2ED PUSH2 0x50A CALLDATASIZE PUSH1 0x4 PUSH2 0x3C4D JUMP JUMPDEST PUSH2 0x1112 JUMP JUMPDEST PUSH2 0x376 PUSH2 0x51D CALLDATASIZE PUSH1 0x4 PUSH2 0x3A37 JUMP JUMPDEST PUSH2 0x1199 JUMP JUMPDEST PUSH2 0x376 PUSH2 0x12D0 JUMP JUMPDEST PUSH2 0x2ED PUSH2 0x538 CALLDATASIZE PUSH1 0x4 PUSH2 0x3DD2 JUMP JUMPDEST PUSH2 0x134E JUMP JUMPDEST PUSH2 0x34B PUSH2 0x54B CALLDATASIZE PUSH1 0x4 PUSH2 0x3E05 JUMP JUMPDEST PUSH2 0x160D JUMP JUMPDEST PUSH2 0x313 PUSH2 0x55E CALLDATASIZE PUSH1 0x4 PUSH2 0x3B70 JUMP JUMPDEST PUSH2 0x162C JUMP JUMPDEST PUSH2 0x32B PUSH2 0x1657 JUMP JUMPDEST PUSH2 0x2ED PUSH32 0xEEED90AE47CD1F23B88CE446295F1CA23C5E4F5B894ADDBE83563FD27494E294 DUP2 JUMP JUMPDEST PUSH2 0x2ED PUSH1 0x0 DUP2 JUMP JUMPDEST PUSH2 0x376 PUSH2 0x5A8 CALLDATASIZE PUSH1 0x4 PUSH2 0x3E27 JUMP JUMPDEST PUSH2 0x1666 JUMP JUMPDEST PUSH2 0x376 PUSH2 0x172B JUMP JUMPDEST PUSH2 0x376 PUSH2 0x5C3 CALLDATASIZE PUSH1 0x4 PUSH2 0x3E5A JUMP JUMPDEST PUSH2 0x1737 JUMP JUMPDEST PUSH2 0x32B PUSH2 0x5D6 CALLDATASIZE PUSH1 0x4 PUSH2 0x3A37 JUMP JUMPDEST PUSH2 0x1A13 JUMP JUMPDEST PUSH2 0x2ED PUSH2 0x5E9 CALLDATASIZE PUSH1 0x4 PUSH2 0x3A37 JUMP JUMPDEST PUSH2 0x1CB7 JUMP JUMPDEST PUSH2 0x32B PUSH2 0x5FC CALLDATASIZE PUSH1 0x4 PUSH2 0x3EEC JUMP JUMPDEST PUSH2 0x1CCE JUMP JUMPDEST PUSH2 0x376 PUSH2 0x60F CALLDATASIZE PUSH1 0x4 PUSH2 0x3A37 JUMP JUMPDEST PUSH2 0x1E08 JUMP JUMPDEST PUSH2 0x376 PUSH2 0x622 CALLDATASIZE PUSH1 0x4 PUSH2 0x3A37 JUMP JUMPDEST PUSH2 0x1E8F JUMP JUMPDEST PUSH2 0x2ED PUSH32 0x9F2DF0FED2C77648DE5860A4CC508CD0818C85B8B8A1AB4CEEEF8D981C8956A6 DUP2 JUMP JUMPDEST PUSH2 0x376 PUSH2 0x65C CALLDATASIZE PUSH1 0x4 PUSH2 0x3B70 JUMP JUMPDEST PUSH2 0x1FAF JUMP JUMPDEST PUSH2 0x32B PUSH2 0x66F CALLDATASIZE PUSH1 0x4 PUSH2 0x3F09 JUMP JUMPDEST PUSH2 0x1FB9 JUMP JUMPDEST PUSH2 0x376 PUSH2 0x682 CALLDATASIZE PUSH1 0x4 PUSH2 0x3C4D JUMP JUMPDEST PUSH2 0x205F JUMP JUMPDEST PUSH2 0x2ED PUSH32 0x65D7A28E3265B37A6474929F336521B332C1681B933F6CB9F3376673440D862A DUP2 JUMP JUMPDEST PUSH2 0x313 PUSH2 0x6BC CALLDATASIZE PUSH1 0x4 PUSH2 0x3F26 JUMP JUMPDEST PUSH1 0x1 PUSH1 0x1 PUSH1 0xA0 SHL SUB SWAP2 DUP3 AND PUSH1 0x0 SWAP1 DUP2 MSTORE PUSH1 0x8 PUSH1 0x20 SWAP1 DUP2 MSTORE PUSH1 0x40 DUP1 DUP4 KECCAK256 SWAP4 SWAP1 SWAP5 AND DUP3 MSTORE SWAP2 SWAP1 SWAP2 MSTORE KECCAK256 SLOAD PUSH1 0xFF AND SWAP1 JUMP JUMPDEST PUSH2 0x2ED PUSH32 0x3B5D4CC60D3EC3516EE8AE083BD60934F6EB2A6C54B1229985C41BFB092B2603 DUP2 JUMP JUMPDEST PUSH2 0x376 PUSH2 0x211D JUMP JUMPDEST PUSH1 0x0 PUSH2 0x724 DUP3 PUSH2 0x246C JUMP JUMPDEST ISZERO PUSH2 0x731 JUMPI POP PUSH1 0xAA SWAP2 SWAP1 POP JUMP JUMPDEST POP PUSH1 0x0 SWAP2 SWAP1 POP JUMP JUMPDEST SWAP2 SWAP1 POP JUMP JUMPDEST PUSH1 0x0 PUSH2 0x749 DUP3 PUSH2 0x2489 JUMP JUMPDEST SWAP3 SWAP2 POP POP JUMP JUMPDEST PUSH1 0x60 PUSH1 0x3 DUP1 SLOAD PUSH2 0x75E SWAP1 PUSH2 0x3F54 JUMP JUMPDEST DUP1 PUSH1 0x1F ADD PUSH1 0x20 DUP1 SWAP2 DIV MUL PUSH1 0x20 ADD PUSH1 0x40 MLOAD SWAP1 DUP2 ADD PUSH1 0x40 MSTORE DUP1 SWAP3 SWAP2 SWAP1 DUP2 DUP2 MSTORE PUSH1 0x20 ADD DUP3 DUP1 SLOAD PUSH2 0x78A SWAP1 PUSH2 0x3F54 JUMP JUMPDEST DUP1 ISZERO PUSH2 0x7D7 JUMPI DUP1 PUSH1 0x1F LT PUSH2 0x7AC JUMPI PUSH2 0x100 DUP1 DUP4 SLOAD DIV MUL DUP4 MSTORE SWAP2 PUSH1 0x20 ADD SWAP2 PUSH2 0x7D7 JUMP JUMPDEST DUP3 ADD SWAP2 SWAP1 PUSH1 0x0 MSTORE PUSH1 0x20 PUSH1 0x0 KECCAK256 SWAP1 JUMPDEST DUP2 SLOAD DUP2 MSTORE SWAP1 PUSH1 0x1 ADD SWAP1 PUSH1 0x20 ADD DUP1 DUP4 GT PUSH2 0x7BA JUMPI DUP3 SWAP1 SUB PUSH1 0x1F AND DUP3 ADD SWAP2 JUMPDEST POP POP POP POP POP SWAP1 POP SWAP1 JUMP JUMPDEST PUSH1 0x0 PUSH2 0x7EC DUP3 PUSH2 0x246C JUMP JUMPDEST PUSH2 0x852 JUMPI PUSH1 0x40 MLOAD PUSH3 0x461BCD PUSH1 0xE5 SHL DUP2 MSTORE PUSH1 0x20 PUSH1 0x4 DUP3 ADD MSTORE PUSH1 0x2C PUSH1 0x24 DUP3 ADD MSTORE PUSH32 0x4552433732313A20617070726F76656420717565727920666F72206E6F6E6578 PUSH1 0x44 DUP3 ADD MSTORE PUSH12 0x34B9BA32B73A103A37B5B2B7 PUSH1 0xA1 SHL PUSH1 0x64 DUP3 ADD MSTORE PUSH1 0x84 ADD JUMPDEST PUSH1 0x40 MLOAD DUP1 SWAP2 SUB SWAP1 REVERT JUMPDEST POP PUSH1 0x0 SWAP1 DUP2 MSTORE PUSH1 0x7 PUSH1 0x20 MSTORE PUSH1 0x40 SWAP1 KECCAK256 SLOAD PUSH1 0x1 PUSH1 0x1 PUSH1 0xA0 SHL SUB AND SWAP1 JUMP JUMPDEST PUSH1 0x0 PUSH2 0x879 DUP3 PUSH2 0x109B JUMP JUMPDEST SWAP1 POP DUP1 PUSH1 0x1 PUSH1 0x1 PUSH1 0xA0 SHL SUB AND DUP4 PUSH1 0x1 PUSH1 0x1 PUSH1 0xA0 SHL SUB AND EQ ISZERO PUSH2 0x8E7 JUMPI PUSH1 0x40 MLOAD PUSH3 0x461BCD PUSH1 0xE5 SHL DUP2 MSTORE PUSH1 0x20 PUSH1 0x4 DUP3 ADD MSTORE PUSH1 0x21 PUSH1 0x24 DUP3 ADD MSTORE PUSH32 0x4552433732313A20617070726F76616C20746F2063757272656E74206F776E65 PUSH1 0x44 DUP3 ADD MSTORE PUSH1 0x39 PUSH1 0xF9 SHL PUSH1 0x64 DUP3 ADD MSTORE PUSH1 0x84 ADD PUSH2 0x849 JUMP JUMPDEST CALLER PUSH1 0x1 PUSH1 0x1 PUSH1 0xA0 SHL SUB DUP3 AND EQ DUP1 PUSH2 0x903 JUMPI POP PUSH2 0x903 DUP2 CALLER PUSH2 0x6BC JUMP JUMPDEST PUSH2 0x975 JUMPI PUSH1 0x40 MLOAD PUSH3 0x461BCD PUSH1 0xE5 SHL DUP2 MSTORE PUSH1 0x20 PUSH1 0x4 DUP3 ADD MSTORE PUSH1 0x38 PUSH1 0x24 DUP3 ADD MSTORE PUSH32 0x4552433732313A20617070726F76652063616C6C6572206973206E6F74206F77 PUSH1 0x44 DUP3 ADD MSTORE PUSH32 0x6E6572206E6F7220617070726F76656420666F7220616C6C0000000000000000 PUSH1 0x64 DUP3 ADD MSTORE PUSH1 0x84 ADD PUSH2 0x849 JUMP JUMPDEST PUSH2 0x97F DUP4 DUP4 PUSH2 0x24AE JUMP JUMPDEST POP POP POP JUMP JUMPDEST PUSH1 0x2 PUSH1 0x0 SLOAD EQ ISZERO PUSH2 0x9A7 JUMPI PUSH1 0x40 MLOAD PUSH3 0x461BCD PUSH1 0xE5 SHL DUP2 MSTORE PUSH1 0x4 ADD PUSH2 0x849 SWAP1 PUSH2 0x3F8F JUMP JUMPDEST PUSH1 0x2 PUSH1 0x0 SSTORE PUSH2 0x9D6 PUSH32 0xEEED90AE47CD1F23B88CE446295F1CA23C5E4F5B894ADDBE83563FD27494E294 CALLER PUSH2 0x162C JUMP JUMPDEST PUSH2 0x9F2 JUMPI PUSH1 0x40 MLOAD PUSH3 0x461BCD PUSH1 0xE5 SHL DUP2 MSTORE PUSH1 0x4 ADD PUSH2 0x849 SWAP1 PUSH2 0x3FC6 JUMP JUMPDEST PUSH1 0x12 SLOAD PUSH1 0x1 EQ PUSH2 0xA14 JUMPI PUSH1 0x40 MLOAD PUSH3 0x461BCD PUSH1 0xE5 SHL DUP2 MSTORE PUSH1 0x4 ADD PUSH2 0x849 SWAP1 PUSH2 0x400D JUMP JUMPDEST DUP1 PUSH1 0x0 PUSH2 0xA20 DUP3 PUSH2 0x251C JUMP JUMPDEST SWAP1 POP DUP1 PUSH1 0x0 ADD MLOAD PUSH1 0xFF AND PUSH1 0x33 EQ PUSH2 0xA8B JUMPI PUSH1 0x40 MLOAD PUSH3 0x461BCD PUSH1 0xE5 SHL DUP2 MSTORE PUSH1 0x20 PUSH1 0x4 DUP3 ADD MSTORE PUSH1 0x29 PUSH1 0x24 DUP3 ADD MSTORE PUSH32 0x41543A544154463A4173736574206E6F7420696E207472616E73666572726162 PUSH1 0x44 DUP3 ADD MSTORE PUSH9 0x6C6520737461747573 PUSH1 0xB8 SHL PUSH1 0x64 DUP3 ADD MSTORE PUSH1 0x84 ADD PUSH2 0x849 JUMP JUMPDEST PUSH2 0xA97 PUSH2 0x49D DUP5 PUSH2 0x109B JUMP JUMPDEST PUSH1 0xAA EQ ISZERO PUSH2 0xAE7 JUMPI PUSH1 0x40 MLOAD PUSH3 0x461BCD PUSH1 0xE5 SHL DUP2 MSTORE PUSH1 0x20 PUSH1 0x4 DUP3 ADD MSTORE PUSH1 0x1D PUSH1 0x24 DUP3 ADD MSTORE PUSH32 0x41543A544154463A486F6C64657220697320636F6C642057616C6C6574000000 PUSH1 0x44 DUP3 ADD MSTORE PUSH1 0x64 ADD PUSH2 0x849 JUMP JUMPDEST PUSH1 0xAA PUSH1 0x40 DUP3 ADD MSTORE PUSH1 0x0 NOT PUSH2 0x160 DUP3 ADD MSTORE PUSH2 0xB01 DUP3 DUP3 PUSH2 0x25FB JUMP JUMPDEST PUSH2 0xB0C DUP6 DUP6 DUP6 PUSH2 0x26D6 JUMP JUMPDEST POP POP PUSH1 0x1 PUSH1 0x0 SSTORE POP POP POP JUMP JUMPDEST PUSH1 0x2 PUSH1 0x0 SLOAD EQ ISZERO PUSH2 0xB3B JUMPI PUSH1 0x40 MLOAD PUSH3 0x461BCD PUSH1 0xE5 SHL DUP2 MSTORE PUSH1 0x4 ADD PUSH2 0x849 SWAP1 PUSH2 0x3F8F JUMP JUMPDEST PUSH1 0x2 PUSH1 0x0 SWAP1 DUP2 SSTORE DUP2 SWAP1 PUSH2 0xB4D DUP3 PUSH2 0x251C JUMP JUMPDEST SWAP1 POP PUSH2 0xB59 CALLER DUP5 PUSH2 0x2881 JUMP JUMPDEST PUSH2 0xBBD JUMPI PUSH1 0x40 MLOAD PUSH3 0x461BCD PUSH1 0xE5 SHL DUP2 MSTORE PUSH1 0x20 PUSH1 0x4 DUP3 ADD MSTORE PUSH1 0x2F PUSH1 0x24 DUP3 ADD MSTORE PUSH32 0x41543A54463A5472616E736665722063616C6C6572206973206E6F74206F776E PUSH1 0x44 DUP3 ADD MSTORE PUSH15 0x195C881B9BDC88185C1C1C9BDD9959 PUSH1 0x8A SHL PUSH1 0x64 DUP3 ADD MSTORE PUSH1 0x84 ADD PUSH2 0x849 JUMP JUMPDEST DUP1 PUSH1 0x0 ADD MLOAD PUSH1 0xFF AND PUSH1 0x33 EQ PUSH2 0xAE7 JUMPI PUSH1 0x40 MLOAD PUSH3 0x461BCD PUSH1 0xE5 SHL DUP2 MSTORE PUSH1 0x20 PUSH1 0x4 DUP3 ADD MSTORE PUSH1 0x27 PUSH1 0x24 DUP3 ADD MSTORE PUSH32 0x41543A54463A4173736574206E6F7420696E207472616E736665727261626C65 PUSH1 0x44 DUP3 ADD MSTORE PUSH7 0x20737461747573 PUSH1 0xC8 SHL PUSH1 0x64 DUP3 ADD MSTORE PUSH1 0x84 ADD PUSH2 0x849 JUMP JUMPDEST PUSH1 0x0 PUSH1 0x13 DUP2 CALLER JUMPDEST PUSH1 0x1 PUSH1 0x1 PUSH1 0xA0 SHL SUB AND DUP2 MSTORE PUSH1 0x20 DUP2 ADD SWAP2 SWAP1 SWAP2 MSTORE PUSH1 0x40 ADD PUSH1 0x0 KECCAK256 SSTORE JUMP JUMPDEST PUSH2 0xC51 DUP3 DUP3 PUSH2 0x296B JUMP JUMPDEST PUSH1 0x0 DUP3 DUP2 MSTORE PUSH1 0x2 PUSH1 0x20 MSTORE PUSH1 0x40 SWAP1 KECCAK256 PUSH2 0x97F SWAP1 DUP3 PUSH2 0x2457 JUMP JUMPDEST PUSH1 0x0 PUSH2 0xC74 DUP4 PUSH2 0x1112 JUMP JUMPDEST DUP3 LT PUSH2 0xCD6 JUMPI PUSH1 0x40 MLOAD PUSH3 0x461BCD PUSH1 0xE5 SHL DUP2 MSTORE PUSH1 0x20 PUSH1 0x4 DUP3 ADD MSTORE PUSH1 0x2B PUSH1 0x24 DUP3 ADD MSTORE PUSH32 0x455243373231456E756D657261626C653A206F776E657220696E646578206F75 PUSH1 0x44 DUP3 ADD MSTORE PUSH11 0x74206F6620626F756E6473 PUSH1 0xA8 SHL PUSH1 0x64 DUP3 ADD MSTORE PUSH1 0x84 ADD PUSH2 0x849 JUMP JUMPDEST POP PUSH1 0x1 PUSH1 0x1 PUSH1 0xA0 SHL SUB SWAP2 SWAP1 SWAP2 AND PUSH1 0x0 SWAP1 DUP2 MSTORE PUSH1 0x9 PUSH1 0x20 SWAP1 DUP2 MSTORE PUSH1 0x40 DUP1 DUP4 KECCAK256 SWAP4 DUP4 MSTORE SWAP3 SWAP1 MSTORE KECCAK256 SLOAD SWAP1 JUMP JUMPDEST PUSH2 0xD09 DUP3 DUP3 PUSH2 0x2992 JUMP JUMPDEST PUSH1 0x0 DUP3 DUP2 MSTORE PUSH1 0x2 PUSH1 0x20 MSTORE PUSH1 0x40 SWAP1 KECCAK256 PUSH2 0x97F SWAP1 DUP3 PUSH2 0x2A0C JUMP JUMPDEST PUSH2 0xD4B PUSH32 0x3B5D4CC60D3EC3516EE8AE083BD60934F6EB2A6C54B1229985C41BFB092B2603 CALLER PUSH2 0x162C JUMP JUMPDEST PUSH2 0xD97 JUMPI PUSH1 0x40 MLOAD PUSH3 0x461BCD PUSH1 0xE5 SHL DUP2 MSTORE PUSH1 0x20 PUSH1 0x4 DUP3 ADD MSTORE PUSH1 0x1D PUSH1 0x24 DUP3 ADD MSTORE PUSH32 0x4E533A4D4F442D49443A204D75737420686176652044414F5F524F4C45000000 PUSH1 0x44 DUP3 ADD MSTORE PUSH1 0x64 ADD PUSH2 0x849 JUMP JUMPDEST PUSH1 0xFF DUP4 AND PUSH1 0x0 SWAP1 DUP2 MSTORE PUSH1 0xF PUSH1 0x20 MSTORE PUSH1 0x40 SWAP1 KECCAK256 PUSH2 0xDB4 SWAP1 DUP4 DUP4 PUSH2 0x38F0 JUMP JUMPDEST POP POP POP POP JUMP JUMPDEST PUSH2 0xDE4 PUSH32 0x65D7A28E3265B37A6474929F336521B332C1681B933F6CB9F3376673440D862A CALLER PUSH2 0x162C JUMP JUMPDEST PUSH2 0xE30 JUMPI PUSH1 0x40 MLOAD PUSH3 0x461BCD PUSH1 0xE5 SHL DUP2 MSTORE PUSH1 0x20 PUSH1 0x4 DUP3 ADD MSTORE PUSH1 0x1F PUSH1 0x24 DUP3 ADD MSTORE PUSH32 0x41543A55503A2043616C6C65722021686176652070617573657220726F6C6500 PUSH1 0x44 DUP3 ADD MSTORE PUSH1 0x64 ADD PUSH2 0x849 JUMP JUMPDEST PUSH2 0xE38 PUSH2 0x2A21 JUMP JUMPDEST JUMP JUMPDEST PUSH2 0x97F DUP4 DUP4 DUP4 PUSH1 0x40 MLOAD DUP1 PUSH1 0x20 ADD PUSH1 0x40 MSTORE DUP1 PUSH1 0x0 DUP2 MSTORE POP PUSH2 0x1737 JUMP JUMPDEST PUSH2 0xE5F CALLER DUP3 PUSH2 0x2881 JUMP JUMPDEST PUSH2 0xEC4 JUMPI PUSH1 0x40 MLOAD PUSH3 0x461BCD PUSH1 0xE5 SHL DUP2 MSTORE PUSH1 0x20 PUSH1 0x4 DUP3 ADD MSTORE PUSH1 0x30 PUSH1 0x24 DUP3 ADD MSTORE PUSH32 0x4552433732314275726E61626C653A2063616C6C6572206973206E6F74206F77 PUSH1 0x44 DUP3 ADD MSTORE PUSH16 0x1B995C881B9BDC88185C1C1C9BDD9959 PUSH1 0x82 SHL PUSH1 0x64 DUP3 ADD MSTORE PUSH1 0x84 ADD PUSH2 0x849 JUMP JUMPDEST PUSH2 0xECD DUP2 PUSH2 0x2AB4 JUMP JUMPDEST POP JUMP JUMPDEST PUSH2 0xEDA DUP3 DUP3 PUSH2 0x2881 JUMP JUMPDEST PUSH2 0xF26 JUMPI PUSH1 0x40 MLOAD PUSH3 0x461BCD PUSH1 0xE5 SHL DUP2 MSTORE PUSH1 0x20 PUSH1 0x4 DUP3 ADD MSTORE PUSH1 0x1D PUSH1 0x24 DUP3 ADD MSTORE PUSH32 0x41543A49414F4F3A4E6F7420617070726F766564206F72206F776E6572000000 PUSH1 0x44 DUP3 ADD MSTORE PUSH1 0x64 ADD PUSH2 0x849 JUMP JUMPDEST POP POP JUMP JUMPDEST PUSH1 0x0 PUSH2 0xF35 PUSH1 0xB SLOAD SWAP1 JUMP JUMPDEST DUP3 LT PUSH2 0xF98 JUMPI PUSH1 0x40 MLOAD PUSH3 0x461BCD PUSH1 0xE5 SHL DUP2 MSTORE PUSH1 0x20 PUSH1 0x4 DUP3 ADD MSTORE PUSH1 0x2C PUSH1 0x24 DUP3 ADD MSTORE PUSH32 0x455243373231456E756D657261626C653A20676C6F62616C20696E646578206F PUSH1 0x44 DUP3 ADD MSTORE PUSH12 0x7574206F6620626F756E6473 PUSH1 0xA0 SHL PUSH1 0x64 DUP3 ADD MSTORE PUSH1 0x84 ADD PUSH2 0x849 JUMP JUMPDEST PUSH1 0xB DUP3 DUP2 SLOAD DUP2 LT PUSH2 0xFAB JUMPI PUSH2 0xFAB PUSH2 0x4090 JUMP JUMPDEST SWAP1 PUSH1 0x0 MSTORE PUSH1 0x20 PUSH1 0x0 KECCAK256 ADD SLOAD SWAP1 POP SWAP2 SWAP1 POP JUMP JUMPDEST PUSH1 0x0 PUSH2 0xFE9 PUSH32 0x9F2DF0FED2C77648DE5860A4CC508CD0818C85B8B8A1AB4CEEEF8D981C8956A6 CALLER PUSH2 0x162C JUMP JUMPDEST PUSH2 0x1053 JUMPI PUSH1 0x40 MLOAD PUSH3 0x461BCD PUSH1 0xE5 SHL DUP2 MSTORE PUSH1 0x20 PUSH1 0x4 DUP3 ADD MSTORE PUSH1 0x35 PUSH1 0x24 DUP3 ADD MSTORE PUSH32 0x41543A4D4F442D494D3A43616C6C696E67206164647265737320646F6573206E PUSH1 0x44 DUP3 ADD MSTORE PUSH21 0x37BA103132B637B733903A3790309036B4B73A32B9 PUSH1 0x59 SHL PUSH1 0x64 DUP3 ADD MSTORE PUSH1 0x84 ADD PUSH2 0x849 JUMP JUMPDEST PUSH1 0x2 PUSH1 0x0 SLOAD EQ ISZERO PUSH2 0x1076 JUMPI PUSH1 0x40 MLOAD PUSH3 0x461BCD PUSH1 0xE5 SHL DUP2 MSTORE PUSH1 0x4 ADD PUSH2 0x849 SWAP1 PUSH2 0x3F8F JUMP JUMPDEST PUSH1 0x2 PUSH1 0x0 SSTORE PUSH2 0x1085 DUP5 DUP5 PUSH2 0x2AF4 JUMP JUMPDEST PUSH2 0x108F DUP4 DUP4 PUSH2 0x2B0E JUMP JUMPDEST POP POP PUSH1 0x1 PUSH1 0x0 SSTORE SWAP2 SWAP1 POP JUMP JUMPDEST PUSH1 0x0 DUP2 DUP2 MSTORE PUSH1 0x5 PUSH1 0x20 MSTORE PUSH1 0x40 DUP2 KECCAK256 SLOAD PUSH1 0x1 PUSH1 0x1 PUSH1 0xA0 SHL SUB AND DUP1 PUSH2 0x749 JUMPI PUSH1 0x40 MLOAD PUSH3 0x461BCD PUSH1 0xE5 SHL DUP2 MSTORE PUSH1 0x20 PUSH1 0x4 DUP3 ADD MSTORE PUSH1 0x29 PUSH1 0x24 DUP3 ADD MSTORE PUSH32 0x4552433732313A206F776E657220717565727920666F72206E6F6E6578697374 PUSH1 0x44 DUP3 ADD MSTORE PUSH9 0x32B73A103A37B5B2B7 PUSH1 0xB9 SHL PUSH1 0x64 DUP3 ADD MSTORE PUSH1 0x84 ADD PUSH2 0x849 JUMP JUMPDEST PUSH1 0x0 PUSH1 0x1 PUSH1 0x1 PUSH1 0xA0 SHL SUB DUP3 AND PUSH2 0x117D JUMPI PUSH1 0x40 MLOAD PUSH3 0x461BCD PUSH1 0xE5 SHL DUP2 MSTORE PUSH1 0x20 PUSH1 0x4 DUP3 ADD MSTORE PUSH1 0x2A PUSH1 0x24 DUP3 ADD MSTORE PUSH32 0x4552433732313A2062616C616E636520717565727920666F7220746865207A65 PUSH1 0x44 DUP3 ADD MSTORE PUSH10 0x726F2061646472657373 PUSH1 0xB0 SHL PUSH1 0x64 DUP3 ADD MSTORE PUSH1 0x84 ADD PUSH2 0x849 JUMP JUMPDEST POP PUSH1 0x1 PUSH1 0x1 PUSH1 0xA0 SHL SUB AND PUSH1 0x0 SWAP1 DUP2 MSTORE PUSH1 0x6 PUSH1 0x20 MSTORE PUSH1 0x40 SWAP1 KECCAK256 SLOAD SWAP1 JUMP JUMPDEST PUSH1 0x2 PUSH1 0x0 SLOAD EQ ISZERO PUSH2 0x11BC JUMPI PUSH1 0x40 MLOAD PUSH3 0x461BCD PUSH1 0xE5 SHL DUP2 MSTORE PUSH1 0x4 ADD PUSH2 0x849 SWAP1 PUSH2 0x3F8F JUMP JUMPDEST PUSH1 0x2 PUSH1 0x0 SSTORE PUSH1 0xD SLOAD PUSH1 0xFF AND ISZERO PUSH2 0x11E4 JUMPI PUSH1 0x40 MLOAD PUSH3 0x461BCD PUSH1 0xE5 SHL DUP2 MSTORE PUSH1 0x4 ADD PUSH2 0x849 SWAP1 PUSH2 0x40A6 JUMP JUMPDEST DUP1 PUSH2 0x11EF CALLER DUP4 PUSH2 0x2881 JUMP JUMPDEST PUSH2 0x124C JUMPI PUSH1 0x40 MLOAD PUSH3 0x461BCD PUSH1 0xE5 SHL DUP2 MSTORE PUSH1 0x20 PUSH1 0x4 DUP3 ADD MSTORE PUSH1 0x28 PUSH1 0x24 DUP3 ADD MSTORE PUSH32 0x41543A443A5472616E736665722063616C6C657220216F776E6572206E6F7220 PUSH1 0x44 DUP3 ADD MSTORE PUSH8 0x185C1C1C9BDD9959 PUSH1 0xC2 SHL PUSH1 0x64 DUP3 ADD MSTORE PUSH1 0x84 ADD PUSH2 0x849 JUMP JUMPDEST PUSH1 0x1A SLOAD PUSH1 0x1 PUSH1 0x1 PUSH1 0xA0 SHL SUB AND PUSH4 0xC4567714 DUP3 CALLER PUSH1 0x40 MLOAD PUSH1 0x1 PUSH1 0x1 PUSH1 0xE0 SHL SUB NOT PUSH1 0xE0 DUP6 SWAP1 SHL AND DUP2 MSTORE PUSH1 0x4 DUP2 ADD SWAP3 SWAP1 SWAP3 MSTORE PUSH1 0x1 PUSH1 0x1 PUSH1 0xA0 SHL SUB AND PUSH1 0x24 DUP3 ADD MSTORE PUSH1 0x44 ADD PUSH1 0x0 PUSH1 0x40 MLOAD DUP1 DUP4 SUB DUP2 PUSH1 0x0 DUP8 DUP1 EXTCODESIZE ISZERO DUP1 ISZERO PUSH2 0x12A6 JUMPI PUSH1 0x0 DUP1 REVERT JUMPDEST POP GAS CALL ISZERO DUP1 ISZERO PUSH2 0x12BA JUMPI RETURNDATASIZE PUSH1 0x0 DUP1 RETURNDATACOPY RETURNDATASIZE PUSH1 0x0 REVERT JUMPDEST POP POP POP POP PUSH2 0x12C7 DUP3 PUSH2 0x2AB4 JUMP JUMPDEST POP POP PUSH1 0x1 PUSH1 0x0 SSTORE JUMP JUMPDEST PUSH2 0x12FA PUSH32 0x65D7A28E3265B37A6474929F336521B332C1681B933F6CB9F3376673440D862A CALLER PUSH2 0x162C JUMP JUMPDEST PUSH2 0x1346 JUMPI PUSH1 0x40 MLOAD PUSH3 0x461BCD PUSH1 0xE5 SHL DUP2 MSTORE PUSH1 0x20 PUSH1 0x4 DUP3 ADD MSTORE PUSH1 0x1E PUSH1 0x24 DUP3 ADD MSTORE PUSH32 0x41543A503A2043616C6C65722021686176652070617573657220726F6C650000 PUSH1 0x44 DUP3 ADD MSTORE PUSH1 0x64 ADD PUSH2 0x849 JUMP JUMPDEST PUSH2 0xE38 PUSH2 0x2B8E JUMP JUMPDEST PUSH1 0x0 DUP4 DUP2 PUSH2 0x135B DUP3 PUSH2 0x251C JUMP JUMPDEST SWAP1 POP DUP1 PUSH1 0x0 ADD MLOAD PUSH1 0xFF AND PUSH1 0xC9 EQ PUSH2 0x13B4 JUMPI PUSH1 0x40 MLOAD PUSH3 0x461BCD PUSH1 0xE5 SHL DUP2 MSTORE PUSH1 0x20 PUSH1 0x4 DUP3 ADD MSTORE PUSH1 0x1B PUSH1 0x24 DUP3 ADD MSTORE PUSH32 0x41543A53553A205265636F72642073746174757320213D203230310000000000 PUSH1 0x44 DUP3 ADD MSTORE PUSH1 0x64 ADD PUSH2 0x849 JUMP JUMPDEST CALLER PUSH1 0x1D SLOAD PUSH1 0x60 DUP4 ADD MLOAD PUSH1 0x40 MLOAD PUSH4 0x31A9108F PUSH1 0xE1 SHL DUP2 MSTORE PUSH4 0xFFFFFFFF SWAP1 SWAP2 AND PUSH1 0x4 DUP3 ADD MSTORE PUSH1 0x1 PUSH1 0x1 PUSH1 0xA0 SHL SUB SWAP3 DUP4 AND SWAP3 SWAP1 SWAP2 AND SWAP1 PUSH4 0x6352211E SWAP1 PUSH1 0x24 ADD PUSH1 0x20 PUSH1 0x40 MLOAD DUP1 DUP4 SUB DUP2 DUP7 DUP1 EXTCODESIZE ISZERO DUP1 ISZERO PUSH2 0x1408 JUMPI PUSH1 0x0 DUP1 REVERT JUMPDEST POP GAS STATICCALL ISZERO DUP1 ISZERO PUSH2 0x141C JUMPI RETURNDATASIZE PUSH1 0x0 DUP1 RETURNDATACOPY RETURNDATASIZE PUSH1 0x0 REVERT JUMPDEST POP POP POP POP PUSH1 0x40 MLOAD RETURNDATASIZE PUSH1 0x1F NOT PUSH1 0x1F DUP3 ADD AND DUP3 ADD DUP1 PUSH1 0x40 MSTORE POP DUP2 ADD SWAP1 PUSH2 0x1440 SWAP2 SWAP1 PUSH2 0x40DB JUMP JUMPDEST PUSH1 0x1 PUSH1 0x1 PUSH1 0xA0 SHL SUB AND EQ DUP1 PUSH2 0x1521 JUMPI POP PUSH1 0x1C SLOAD PUSH1 0x40 MLOAD PUSH12 0xFFFFFFFFFFFFFFFFFFFFFFFF NOT CALLER PUSH1 0x60 SHL AND PUSH1 0x20 DUP3 ADD MSTORE PUSH1 0x1 PUSH1 0x1 PUSH1 0xA0 SHL SUB SWAP1 SWAP2 AND SWAP1 PUSH4 0x9D2C7CEE SWAP1 PUSH1 0x34 ADD PUSH1 0x40 MLOAD PUSH1 0x20 DUP2 DUP4 SUB SUB DUP2 MSTORE SWAP1 PUSH1 0x40 MSTORE DUP1 MLOAD SWAP1 PUSH1 0x20 ADD KECCAK256 DUP4 PUSH1 0x60 ADD MLOAD PUSH1 0x40 MLOAD DUP4 PUSH4 0xFFFFFFFF AND PUSH1 0xE0 SHL DUP2 MSTORE PUSH1 0x4 ADD PUSH2 0x14CA SWAP3 SWAP2 SWAP1 SWAP2 DUP3 MSTORE PUSH4 0xFFFFFFFF AND PUSH1 0x20 DUP3 ADD MSTORE PUSH1 0x40 ADD SWAP1 JUMP JUMPDEST PUSH1 0x20 PUSH1 0x40 MLOAD DUP1 DUP4 SUB DUP2 DUP7 DUP1 EXTCODESIZE ISZERO DUP1 ISZERO PUSH2 0x14E2 JUMPI PUSH1 0x0 DUP1 REVERT JUMPDEST POP GAS STATICCALL ISZERO DUP1 ISZERO PUSH2 0x14F6 JUMPI RETURNDATASIZE PUSH1 0x0 DUP1 RETURNDATACOPY RETURNDATASIZE PUSH1 0x0 REVERT JUMPDEST POP POP POP POP PUSH1 0x40 MLOAD RETURNDATASIZE PUSH1 0x1F NOT PUSH1 0x1F DUP3 ADD AND DUP3 ADD DUP1 PUSH1 0x40 MSTORE POP DUP2 ADD SWAP1 PUSH2 0x151A SWAP2 SWAP1 PUSH2 0x4103 JUMP JUMPDEST PUSH1 0xFF AND PUSH1 0x64 EQ JUMPDEST PUSH2 0x156D JUMPI PUSH1 0x40 MLOAD PUSH3 0x461BCD PUSH1 0xE5 SHL DUP2 MSTORE PUSH1 0x20 PUSH1 0x4 DUP3 ADD MSTORE PUSH1 0x1F PUSH1 0x24 DUP3 ADD MSTORE PUSH32 0x41543A53553A43616C6C657220214E5448206F7220617574686F72697A656400 PUSH1 0x44 DUP3 ADD MSTORE PUSH1 0x64 ADD PUSH2 0x849 JUMP JUMPDEST PUSH2 0x1577 CALLER DUP8 PUSH2 0x2881 JUMP JUMPDEST PUSH2 0x15C3 JUMPI PUSH1 0x40 MLOAD PUSH3 0x461BCD PUSH1 0xE5 SHL DUP2 MSTORE PUSH1 0x20 PUSH1 0x4 DUP3 ADD DUP2 SWAP1 MSTORE PUSH1 0x24 DUP3 ADD MSTORE PUSH32 0x41543A53553A43616C6C657220216F776E6572206E6F7220617070726F766564 PUSH1 0x44 DUP3 ADD MSTORE PUSH1 0x64 ADD PUSH2 0x849 JUMP JUMPDEST PUSH2 0x1603 DUP7 DUP7 DUP7 DUP1 DUP1 PUSH1 0x1F ADD PUSH1 0x20 DUP1 SWAP2 DIV MUL PUSH1 0x20 ADD PUSH1 0x40 MLOAD SWAP1 DUP2 ADD PUSH1 0x40 MSTORE DUP1 SWAP4 SWAP3 SWAP2 SWAP1 DUP2 DUP2 MSTORE PUSH1 0x20 ADD DUP4 DUP4 DUP1 DUP3 DUP5 CALLDATACOPY PUSH1 0x0 SWAP3 ADD SWAP2 SWAP1 SWAP2 MSTORE POP PUSH2 0x2B0E SWAP3 POP POP POP JUMP JUMPDEST POP SWAP4 SWAP5 SWAP4 POP POP POP POP JUMP JUMPDEST PUSH1 0x0 DUP3 DUP2 MSTORE PUSH1 0x2 PUSH1 0x20 MSTORE PUSH1 0x40 DUP2 KECCAK256 PUSH2 0x1625 SWAP1 DUP4 PUSH2 0x2BE6 JUMP JUMPDEST SWAP4 SWAP3 POP POP POP JUMP JUMPDEST PUSH1 0x0 SWAP2 DUP3 MSTORE PUSH1 0x1 PUSH1 0x20 SWAP1 DUP2 MSTORE PUSH1 0x40 DUP1 DUP5 KECCAK256 PUSH1 0x1 PUSH1 0x1 PUSH1 0xA0 SHL SUB SWAP4 SWAP1 SWAP4 AND DUP5 MSTORE SWAP2 SWAP1 MSTORE SWAP1 KECCAK256 SLOAD PUSH1 0xFF AND SWAP1 JUMP JUMPDEST PUSH1 0x60 PUSH1 0x4 DUP1 SLOAD PUSH2 0x75E SWAP1 PUSH2 0x3F54 JUMP JUMPDEST PUSH1 0x1 PUSH1 0x1 PUSH1 0xA0 SHL SUB DUP3 AND CALLER EQ ISZERO PUSH2 0x16BF JUMPI PUSH1 0x40 MLOAD PUSH3 0x461BCD PUSH1 0xE5 SHL DUP2 MSTORE PUSH1 0x20 PUSH1 0x4 DUP3 ADD MSTORE PUSH1 0x19 PUSH1 0x24 DUP3 ADD MSTORE PUSH32 0x4552433732313A20617070726F766520746F2063616C6C657200000000000000 PUSH1 0x44 DUP3 ADD MSTORE PUSH1 0x64 ADD PUSH2 0x849 JUMP JUMPDEST CALLER PUSH1 0x0 DUP2 DUP2 MSTORE PUSH1 0x8 PUSH1 0x20 SWAP1 DUP2 MSTORE PUSH1 0x40 DUP1 DUP4 KECCAK256 PUSH1 0x1 PUSH1 0x1 PUSH1 0xA0 SHL SUB DUP8 AND DUP1 DUP6 MSTORE SWAP1 DUP4 MSTORE SWAP3 DUP2 SWAP1 KECCAK256 DUP1 SLOAD PUSH1 0xFF NOT AND DUP7 ISZERO ISZERO SWAP1 DUP2 OR SWAP1 SWAP2 SSTORE SWAP1 MLOAD SWAP1 DUP2 MSTORE SWAP2 SWAP3 SWAP2 PUSH32 0x17307EAB39AB6107E8899845AD3D59BD9653F200F220920489CA2B5937696C31 SWAP2 ADD PUSH1 0x40 MLOAD DUP1 SWAP2 SUB SWAP1 LOG3 POP POP JUMP JUMPDEST PUSH1 0xAA PUSH1 0x13 PUSH1 0x0 CALLER PUSH2 0xC2B JUMP JUMPDEST PUSH1 0x2 PUSH1 0x0 SLOAD EQ ISZERO PUSH2 0x175A JUMPI PUSH1 0x40 MLOAD PUSH3 0x461BCD PUSH1 0xE5 SHL DUP2 MSTORE PUSH1 0x4 ADD PUSH2 0x849 SWAP1 PUSH2 0x3F8F JUMP JUMPDEST PUSH1 0x2 PUSH1 0x0 SWAP1 DUP2 SSTORE DUP3 SWAP1 PUSH2 0x176C DUP3 PUSH2 0x251C JUMP JUMPDEST PUSH1 0x19 SLOAD PUSH1 0x40 MLOAD PUSH4 0x6FCFB49B PUSH1 0xE1 SHL DUP2 MSTORE PUSH1 0x1 PUSH1 0x1 PUSH1 0xA0 SHL SUB DUP9 DUP2 AND PUSH1 0x4 DUP4 ADD MSTORE PUSH1 0x0 PUSH1 0x24 DUP4 ADD DUP2 SWAP1 MSTORE SWAP4 SWAP5 POP SWAP1 SWAP2 AND SWAP1 PUSH4 0xDF9F6936 SWAP1 PUSH1 0x44 ADD PUSH1 0x40 DUP1 MLOAD DUP1 DUP4 SUB DUP2 DUP7 DUP1 EXTCODESIZE ISZERO DUP1 ISZERO PUSH2 0x17BC JUMPI PUSH1 0x0 DUP1 REVERT JUMPDEST POP GAS STATICCALL ISZERO DUP1 ISZERO PUSH2 0x17D0 JUMPI RETURNDATASIZE PUSH1 0x0 DUP1 RETURNDATACOPY RETURNDATASIZE PUSH1 0x0 REVERT JUMPDEST POP POP POP POP PUSH1 0x40 MLOAD RETURNDATASIZE PUSH1 0x1F NOT PUSH1 0x1F DUP3 ADD AND DUP3 ADD DUP1 PUSH1 0x40 MSTORE POP DUP2 ADD SWAP1 PUSH2 0x17F4 SWAP2 SWAP1 PUSH2 0x4120 JUMP JUMPDEST POP SWAP1 POP PUSH2 0x1801 CALLER DUP7 PUSH2 0x2881 JUMP JUMPDEST PUSH2 0x1860 JUMPI PUSH1 0x40 MLOAD PUSH3 0x461BCD PUSH1 0xE5 SHL DUP2 MSTORE PUSH1 0x20 PUSH1 0x4 DUP3 ADD MSTORE PUSH1 0x2A PUSH1 0x24 DUP3 ADD MSTORE PUSH32 0x41543A5354463A5472616E736665722063616C6C657220216F776E6572206E6F PUSH1 0x44 DUP3 ADD MSTORE PUSH10 0x1C88185C1C1C9BDD9959 PUSH1 0xB2 SHL PUSH1 0x64 DUP3 ADD MSTORE PUSH1 0x84 ADD PUSH2 0x849 JUMP JUMPDEST DUP2 PUSH1 0x0 ADD MLOAD PUSH1 0xFF AND PUSH1 0x46 EQ ISZERO DUP1 PUSH2 0x187A JUMPI POP PUSH1 0x0 DUP2 PUSH1 0xFF AND GT JUMPDEST PUSH2 0x18EC JUMPI PUSH1 0x40 MLOAD PUSH3 0x461BCD PUSH1 0xE5 SHL DUP2 MSTORE PUSH1 0x20 PUSH1 0x4 DUP3 ADD MSTORE PUSH1 0x3A PUSH1 0x24 DUP3 ADD MSTORE PUSH32 0x41543A5354463A43616E6E6F742073656E642073746174757320373020617373 PUSH1 0x44 DUP3 ADD MSTORE PUSH32 0x657420746F20756E617574686F72697A65642061646472657373000000000000 PUSH1 0x64 DUP3 ADD MSTORE PUSH1 0x84 ADD PUSH2 0x849 JUMP JUMPDEST DUP2 PUSH1 0x0 ADD MLOAD PUSH1 0xFF AND PUSH1 0x33 EQ DUP1 PUSH2 0x1909 JUMPI POP DUP2 PUSH1 0x0 ADD MLOAD PUSH1 0xFF AND PUSH1 0x46 EQ JUMPDEST PUSH2 0x1963 JUMPI PUSH1 0x40 MLOAD PUSH3 0x461BCD PUSH1 0xE5 SHL DUP2 MSTORE PUSH1 0x20 PUSH1 0x4 DUP3 ADD MSTORE PUSH1 0x25 PUSH1 0x24 DUP3 ADD MSTORE PUSH32 0x41543A5354463A41737365742021696E207472616E736665727261626C652073 PUSH1 0x44 DUP3 ADD MSTORE PUSH5 0x7461747573 PUSH1 0xD8 SHL PUSH1 0x64 DUP3 ADD MSTORE PUSH1 0x84 ADD PUSH2 0x849 JUMP JUMPDEST PUSH1 0x1 PUSH1 0x1 PUSH1 0xA0 SHL SUB DUP7 AND PUSH2 0x19DF JUMPI PUSH1 0x40 MLOAD PUSH3 0x461BCD PUSH1 0xE5 SHL DUP2 MSTORE PUSH1 0x20 PUSH1 0x4 DUP3 ADD MSTORE PUSH1 0x3A PUSH1 0x24 DUP3 ADD MSTORE PUSH32 0x41543A5354463A43616E6E6F74207472616E7366657220617373657420746F20 PUSH1 0x44 DUP3 ADD MSTORE PUSH32 0x7A65726F20616464726573732E2055736520646973636172642E000000000000 PUSH1 0x64 DUP3 ADD MSTORE PUSH1 0x84 ADD PUSH2 0x849 JUMP JUMPDEST PUSH1 0xAA PUSH1 0x40 DUP4 ADD MSTORE PUSH1 0x0 NOT PUSH2 0x160 DUP4 ADD MSTORE PUSH2 0x19F9 DUP4 DUP4 PUSH2 0x25FB JUMP JUMPDEST PUSH2 0x1A05 DUP8 DUP8 DUP8 DUP8 PUSH2 0x2BF2 JUMP JUMPDEST POP POP PUSH1 0x1 PUSH1 0x0 SSTORE POP POP POP POP POP JUMP JUMPDEST PUSH1 0x60 PUSH2 0x1A1E DUP3 PUSH2 0x246C JUMP JUMPDEST PUSH2 0x1A79 JUMPI PUSH1 0x40 MLOAD PUSH3 0x461BCD PUSH1 0xE5 SHL DUP2 MSTORE PUSH1 0x20 PUSH1 0x4 DUP3 ADD MSTORE PUSH1 0x26 PUSH1 0x24 DUP3 ADD MSTORE PUSH32 0x41543A54553A2055524920717565727920666F72206E6F6E6578697374656E74 PUSH1 0x44 DUP3 ADD MSTORE PUSH6 0x103A37B5B2B7 PUSH1 0xD1 SHL PUSH1 0x64 DUP3 ADD MSTORE PUSH1 0x84 ADD PUSH2 0x849 JUMP JUMPDEST PUSH1 0x0 PUSH2 0x1A84 DUP4 PUSH2 0x251C JUMP JUMPDEST PUSH1 0x1C SLOAD PUSH1 0x60 DUP3 ADD MLOAD PUSH1 0x40 MLOAD PUSH4 0xF45C157D PUSH1 0xE0 SHL DUP2 MSTORE PUSH4 0xFFFFFFFF SWAP1 SWAP2 AND PUSH1 0x4 DUP3 ADD MSTORE SWAP2 SWAP3 POP PUSH1 0x0 SWAP2 PUSH1 0x1 PUSH1 0x1 PUSH1 0xA0 SHL SUB SWAP1 SWAP2 AND SWAP1 PUSH4 0xF45C157D SWAP1 PUSH1 0x24 ADD PUSH1 0x0 PUSH1 0x40 MLOAD DUP1 DUP4 SUB DUP2 DUP7 DUP1 EXTCODESIZE ISZERO DUP1 ISZERO PUSH2 0x1AD9 JUMPI PUSH1 0x0 DUP1 REVERT JUMPDEST POP GAS STATICCALL ISZERO DUP1 ISZERO PUSH2 0x1AED JUMPI RETURNDATASIZE PUSH1 0x0 DUP1 RETURNDATACOPY RETURNDATASIZE PUSH1 0x0 REVERT JUMPDEST POP POP POP POP PUSH1 0x40 MLOAD RETURNDATASIZE PUSH1 0x0 DUP3 RETURNDATACOPY PUSH1 0x1F RETURNDATASIZE SWAP1 DUP2 ADD PUSH1 0x1F NOT AND DUP3 ADD PUSH1 0x40 MSTORE PUSH2 0x1B15 SWAP2 SWAP1 DUP2 ADD SWAP1 PUSH2 0x419E JUMP JUMPDEST PUSH1 0x0 DUP6 DUP2 MSTORE PUSH1 0xE PUSH1 0x20 MSTORE PUSH1 0x40 DUP2 KECCAK256 DUP1 SLOAD SWAP3 SWAP4 POP SWAP1 SWAP2 PUSH2 0x1B33 SWAP1 PUSH2 0x3F54 JUMP JUMPDEST DUP1 PUSH1 0x1F ADD PUSH1 0x20 DUP1 SWAP2 DIV MUL PUSH1 0x20 ADD PUSH1 0x40 MLOAD SWAP1 DUP2 ADD PUSH1 0x40 MSTORE DUP1 SWAP3 SWAP2 SWAP1 DUP2 DUP2 MSTORE PUSH1 0x20 ADD DUP3 DUP1 SLOAD PUSH2 0x1B5F SWAP1 PUSH2 0x3F54 JUMP JUMPDEST DUP1 ISZERO PUSH2 0x1BAC JUMPI DUP1 PUSH1 0x1F LT PUSH2 0x1B81 JUMPI PUSH2 0x100 DUP1 DUP4 SLOAD DIV MUL DUP4 MSTORE SWAP2 PUSH1 0x20 ADD SWAP2 PUSH2 0x1BAC JUMP JUMPDEST DUP3 ADD SWAP2 SWAP1 PUSH1 0x0 MSTORE PUSH1 0x20 PUSH1 0x0 KECCAK256 SWAP1 JUMPDEST DUP2 SLOAD DUP2 MSTORE SWAP1 PUSH1 0x1 ADD SWAP1 PUSH1 0x20 ADD DUP1 DUP4 GT PUSH2 0x1B8F JUMPI DUP3 SWAP1 SUB PUSH1 0x1F AND DUP3 ADD SWAP2 JUMPDEST POP POP POP POP POP SWAP1 POP PUSH1 0x0 PUSH1 0xF PUSH1 0x0 DUP5 PUSH1 0x40 ADD MLOAD PUSH1 0xFF AND PUSH1 0xFF AND DUP2 MSTORE PUSH1 0x20 ADD SWAP1 DUP2 MSTORE PUSH1 0x20 ADD PUSH1 0x0 KECCAK256 DUP1 SLOAD PUSH2 0x1BDD SWAP1 PUSH2 0x3F54 JUMP JUMPDEST DUP1 PUSH1 0x1F ADD PUSH1 0x20 DUP1 SWAP2 DIV MUL PUSH1 0x20 ADD PUSH1 0x40 MLOAD SWAP1 DUP2 ADD PUSH1 0x40 MSTORE DUP1 SWAP3 SWAP2 SWAP1 DUP2 DUP2 MSTORE PUSH1 0x20 ADD DUP3 DUP1 SLOAD PUSH2 0x1C09 SWAP1 PUSH2 0x3F54 JUMP JUMPDEST DUP1 ISZERO PUSH2 0x1C56 JUMPI DUP1 PUSH1 0x1F LT PUSH2 0x1C2B JUMPI PUSH2 0x100 DUP1 DUP4 SLOAD DIV MUL DUP4 MSTORE SWAP2 PUSH1 0x20 ADD SWAP2 PUSH2 0x1C56 JUMP JUMPDEST DUP3 ADD SWAP2 SWAP1 PUSH1 0x0 MSTORE PUSH1 0x20 PUSH1 0x0 KECCAK256 SWAP1 JUMPDEST DUP2 SLOAD DUP2 MSTORE SWAP1 PUSH1 0x1 ADD SWAP1 PUSH1 0x20 ADD DUP1 DUP4 GT PUSH2 0x1C39 JUMPI DUP3 SWAP1 SUB PUSH1 0x1F AND DUP3 ADD SWAP2 JUMPDEST POP POP POP POP POP SWAP1 POP DUP1 MLOAD PUSH1 0x0 EQ ISZERO PUSH2 0x1C70 JUMPI POP SWAP5 SWAP4 POP POP POP POP JUMP JUMPDEST DUP2 MLOAD ISZERO PUSH2 0x1CA4 JUMPI DUP1 DUP3 PUSH1 0x40 MLOAD PUSH1 0x20 ADD PUSH2 0x1C8A SWAP3 SWAP2 SWAP1 PUSH2 0x429D JUMP JUMPDEST PUSH1 0x40 MLOAD PUSH1 0x20 DUP2 DUP4 SUB SUB DUP2 MSTORE SWAP1 PUSH1 0x40 MSTORE SWAP5 POP POP POP POP POP SWAP2 SWAP1 POP JUMP JUMPDEST PUSH2 0x1CAD DUP7 PUSH2 0x2C25 JUMP JUMPDEST SWAP7 SWAP6 POP POP POP POP POP POP JUMP JUMPDEST PUSH1 0x0 DUP2 DUP2 MSTORE PUSH1 0x2 PUSH1 0x20 MSTORE PUSH1 0x40 DUP2 KECCAK256 PUSH2 0x749 SWAP1 PUSH2 0x2CEF JUMP JUMPDEST PUSH1 0x1C SLOAD PUSH1 0x40 MLOAD PUSH4 0xF45C157D PUSH1 0xE0 SHL DUP2 MSTORE PUSH4 0xFFFFFFFF DUP4 AND PUSH1 0x4 DUP3 ADD MSTORE PUSH1 0x60 SWAP2 PUSH1 0x0 SWAP2 PUSH1 0x1 PUSH1 0x1 PUSH1 0xA0 SHL SUB SWAP1 SWAP2 AND SWAP1 PUSH4 0xF45C157D SWAP1 PUSH1 0x24 ADD PUSH1 0x0 PUSH1 0x40 MLOAD DUP1 DUP4 SUB DUP2 DUP7 DUP1 EXTCODESIZE ISZERO DUP1 ISZERO PUSH2 0x1D1D JUMPI PUSH1 0x0 DUP1 REVERT JUMPDEST POP GAS STATICCALL ISZERO DUP1 ISZERO PUSH2 0x1D31 JUMPI RETURNDATASIZE PUSH1 0x0 DUP1 RETURNDATACOPY RETURNDATASIZE PUSH1 0x0 REVERT JUMPDEST POP POP POP POP PUSH1 0x40 MLOAD RETURNDATASIZE PUSH1 0x0 DUP3 RETURNDATACOPY PUSH1 0x1F RETURNDATASIZE SWAP1 DUP2 ADD PUSH1 0x1F NOT AND DUP3 ADD PUSH1 0x40 MSTORE PUSH2 0x1D59 SWAP2 SWAP1 DUP2 ADD SWAP1 PUSH2 0x419E JUMP JUMPDEST PUSH1 0x40 DUP1 DUP3 ADD MLOAD PUSH1 0xFF DUP2 AND PUSH1 0x0 SWAP1 DUP2 MSTORE PUSH1 0xF PUSH1 0x20 MSTORE SWAP2 SWAP1 SWAP2 KECCAK256 DUP1 SLOAD SWAP3 SWAP4 POP SWAP1 SWAP2 PUSH2 0x1D81 SWAP1 PUSH2 0x3F54 JUMP JUMPDEST DUP1 PUSH1 0x1F ADD PUSH1 0x20 DUP1 SWAP2 DIV MUL PUSH1 0x20 ADD PUSH1 0x40 MLOAD SWAP1 DUP2 ADD PUSH1 0x40 MSTORE DUP1 SWAP3 SWAP2 SWAP1 DUP2 DUP2 MSTORE PUSH1 0x20 ADD DUP3 DUP1 SLOAD PUSH2 0x1DAD SWAP1 PUSH2 0x3F54 JUMP JUMPDEST DUP1 ISZERO PUSH2 0x1DFA JUMPI DUP1 PUSH1 0x1F LT PUSH2 0x1DCF JUMPI PUSH2 0x100 DUP1 DUP4 SLOAD DIV MUL DUP4 MSTORE SWAP2 PUSH1 0x20 ADD SWAP2 PUSH2 0x1DFA JUMP JUMPDEST DUP3 ADD SWAP2 SWAP1 PUSH1 0x0 MSTORE PUSH1 0x20 PUSH1 0x0 KECCAK256 SWAP1 JUMPDEST DUP2 SLOAD DUP2 MSTORE SWAP1 PUSH1 0x1 ADD SWAP1 PUSH1 0x20 ADD DUP1 DUP4 GT PUSH2 0x1DDD JUMPI DUP3 SWAP1 SUB PUSH1 0x1F AND DUP3 ADD SWAP2 JUMPDEST POP POP POP POP POP SWAP3 POP POP POP SWAP2 SWAP1 POP JUMP JUMPDEST PUSH2 0x1E32 PUSH32 0x3B5D4CC60D3EC3516EE8AE083BD60934F6EB2A6C54B1229985C41BFB092B2603 CALLER PUSH2 0x162C JUMP JUMPDEST PUSH2 0x1E7E JUMPI PUSH1 0x40 MLOAD PUSH3 0x461BCD PUSH1 0xE5 SHL DUP2 MSTORE PUSH1 0x20 PUSH1 0x4 DUP3 ADD MSTORE PUSH1 0x1D PUSH1 0x24 DUP3 ADD MSTORE PUSH32 0x4E533A4D4F442D49443A204D75737420686176652044414F5F524F4C45000000 PUSH1 0x44 DUP3 ADD MSTORE PUSH1 0x64 ADD PUSH2 0x849 JUMP JUMPDEST DUP1 PUSH1 0xAA EQ ISZERO PUSH2 0xECD JUMPI PUSH1 0x0 PUSH1 0x12 SSTORE POP JUMP JUMPDEST PUSH1 0x2 PUSH1 0x0 SLOAD EQ ISZERO PUSH2 0x1EB2 JUMPI PUSH1 0x40 MLOAD PUSH3 0x461BCD PUSH1 0xE5 SHL DUP2 MSTORE PUSH1 0x4 ADD PUSH2 0x849 SWAP1 PUSH2 0x3F8F JUMP JUMPDEST PUSH1 0x2 PUSH1 0x0 SSTORE PUSH1 0xD SLOAD PUSH1 0xFF AND ISZERO PUSH2 0x1EDA JUMPI PUSH1 0x40 MLOAD PUSH3 0x461BCD PUSH1 0xE5 SHL DUP2 MSTORE PUSH1 0x4 ADD PUSH2 0x849 SWAP1 PUSH2 0x40A6 JUMP JUMPDEST PUSH2 0x1F04 PUSH32 0xEEED90AE47CD1F23B88CE446295F1CA23C5E4F5B894ADDBE83563FD27494E294 CALLER PUSH2 0x162C JUMP JUMPDEST PUSH2 0x1F20 JUMPI PUSH1 0x40 MLOAD PUSH3 0x461BCD PUSH1 0xE5 SHL DUP2 MSTORE PUSH1 0x4 ADD PUSH2 0x849 SWAP1 PUSH2 0x3FC6 JUMP JUMPDEST PUSH1 0x12 SLOAD PUSH1 0x1 EQ PUSH2 0x1F42 JUMPI PUSH1 0x40 MLOAD PUSH3 0x461BCD PUSH1 0xE5 SHL DUP2 MSTORE PUSH1 0x4 ADD PUSH2 0x849 SWAP1 PUSH2 0x400D JUMP JUMPDEST PUSH2 0x1F4E PUSH2 0x49D DUP3 PUSH2 0x109B JUMP JUMPDEST PUSH1 0xAA EQ ISZERO PUSH2 0x1F9E JUMPI PUSH1 0x40 MLOAD PUSH3 0x461BCD PUSH1 0xE5 SHL DUP2 MSTORE PUSH1 0x20 PUSH1 0x4 DUP3 ADD MSTORE PUSH1 0x1C PUSH1 0x24 DUP3 ADD MSTORE PUSH32 0x41543A5441423A486F6C64657220697320636F6C642057616C6C657400000000 PUSH1 0x44 DUP3 ADD MSTORE PUSH1 0x64 ADD PUSH2 0x849 JUMP JUMPDEST PUSH2 0x1FA7 DUP2 PUSH2 0x2AB4 JUMP JUMPDEST POP PUSH1 0x1 PUSH1 0x0 SSTORE JUMP JUMPDEST PUSH2 0xD09 DUP3 DUP3 PUSH2 0x2CF9 JUMP JUMPDEST PUSH1 0xFF DUP2 AND PUSH1 0x0 SWAP1 DUP2 MSTORE PUSH1 0xF PUSH1 0x20 MSTORE PUSH1 0x40 SWAP1 KECCAK256 DUP1 SLOAD PUSH1 0x60 SWAP2 SWAP1 PUSH2 0x1FDA SWAP1 PUSH2 0x3F54 JUMP JUMPDEST DUP1 PUSH1 0x1F ADD PUSH1 0x20 DUP1 SWAP2 DIV MUL PUSH1 0x20 ADD PUSH1 0x40 MLOAD SWAP1 DUP2 ADD PUSH1 0x40 MSTORE DUP1 SWAP3 SWAP2 SWAP1 DUP2 DUP2 MSTORE PUSH1 0x20 ADD DUP3 DUP1 SLOAD PUSH2 0x2006 SWAP1 PUSH2 0x3F54 JUMP JUMPDEST DUP1 ISZERO PUSH2 0x2053 JUMPI DUP1 PUSH1 0x1F LT PUSH2 0x2028 JUMPI PUSH2 0x100 DUP1 DUP4 SLOAD DIV MUL DUP4 MSTORE SWAP2 PUSH1 0x20 ADD SWAP2 PUSH2 0x2053 JUMP JUMPDEST DUP3 ADD SWAP2 SWAP1 PUSH1 0x0 MSTORE PUSH1 0x20 PUSH1 0x0 KECCAK256 SWAP1 JUMPDEST DUP2 SLOAD DUP2 MSTORE SWAP1 PUSH1 0x1 ADD SWAP1 PUSH1 0x20 ADD DUP1 DUP4 GT PUSH2 0x2036 JUMPI DUP3 SWAP1 SUB PUSH1 0x1F AND DUP3 ADD SWAP2 JUMPDEST POP POP POP POP POP SWAP1 POP SWAP2 SWAP1 POP JUMP JUMPDEST PUSH2 0x2089 PUSH32 0x2CE8D04A9C35987429AF538825CD2438CC5C5BB5DC427955F84DAAA3EA105016 CALLER PUSH2 0x162C JUMP JUMPDEST PUSH2 0x20A5 JUMPI PUSH1 0x40 MLOAD PUSH3 0x461BCD PUSH1 0xE5 SHL DUP2 MSTORE PUSH1 0x4 ADD PUSH2 0x849 SWAP1 PUSH2 0x42CC JUMP JUMPDEST PUSH1 0x1 PUSH1 0x1 PUSH1 0xA0 SHL SUB DUP2 AND PUSH2 0x20FB JUMPI PUSH1 0x40 MLOAD PUSH3 0x461BCD PUSH1 0xE5 SHL DUP2 MSTORE PUSH1 0x20 PUSH1 0x4 DUP3 ADD MSTORE PUSH1 0x1A PUSH1 0x24 DUP3 ADD MSTORE PUSH32 0x41543A5353433A53746F726167652061646472657373203D2030000000000000 PUSH1 0x44 DUP3 ADD MSTORE PUSH1 0x64 ADD PUSH2 0x849 JUMP JUMPDEST PUSH1 0x19 DUP1 SLOAD PUSH1 0x1 PUSH1 0x1 PUSH1 0xA0 SHL SUB NOT AND PUSH1 0x1 PUSH1 0x1 PUSH1 0xA0 SHL SUB SWAP3 SWAP1 SWAP3 AND SWAP2 SWAP1 SWAP2 OR SWAP1 SSTORE JUMP JUMPDEST PUSH2 0x2147 PUSH32 0x2CE8D04A9C35987429AF538825CD2438CC5C5BB5DC427955F84DAAA3EA105016 CALLER PUSH2 0x162C JUMP JUMPDEST PUSH2 0x2163 JUMPI PUSH1 0x40 MLOAD PUSH3 0x461BCD PUSH1 0xE5 SHL DUP2 MSTORE PUSH1 0x4 ADD PUSH2 0x849 SWAP1 PUSH2 0x42CC JUMP JUMPDEST PUSH1 0x19 SLOAD PUSH1 0x40 MLOAD PUSH4 0x63B8D4C1 PUSH1 0xE1 SHL DUP2 MSTORE PUSH1 0x1 PUSH1 0x1 PUSH1 0xA0 SHL SUB SWAP1 SWAP2 AND SWAP1 PUSH4 0xC771A982 SWAP1 PUSH2 0x21AA SWAP1 PUSH1 0x4 ADD PUSH1 0x20 DUP1 DUP3 MSTORE PUSH1 0x4 SWAP1 DUP3 ADD MSTORE PUSH4 0x2921A629 PUSH1 0xE1 SHL PUSH1 0x40 DUP3 ADD MSTORE PUSH1 0x60 ADD SWAP1 JUMP JUMPDEST PUSH1 0x20 PUSH1 0x40 MLOAD DUP1 DUP4 SUB DUP2 DUP7 DUP1 EXTCODESIZE ISZERO DUP1 ISZERO PUSH2 0x21C2 JUMPI PUSH1 0x0 DUP1 REVERT JUMPDEST POP GAS STATICCALL ISZERO DUP1 ISZERO PUSH2 0x21D6 JUMPI RETURNDATASIZE PUSH1 0x0 DUP1 RETURNDATACOPY RETURNDATASIZE PUSH1 0x0 REVERT JUMPDEST POP POP POP POP PUSH1 0x40 MLOAD RETURNDATASIZE PUSH1 0x1F NOT PUSH1 0x1F DUP3 ADD AND DUP3 ADD DUP1 PUSH1 0x40 MSTORE POP DUP2 ADD SWAP1 PUSH2 0x21FA SWAP2 SWAP1 PUSH2 0x40DB JUMP JUMPDEST PUSH1 0x15 DUP1 SLOAD PUSH1 0x1 PUSH1 0x1 PUSH1 0xA0 SHL SUB SWAP3 DUP4 AND PUSH1 0x1 PUSH1 0x1 PUSH1 0xA0 SHL SUB NOT SWAP2 DUP3 AND DUP2 OR SWAP1 SWAP3 SSTORE PUSH1 0x1A DUP1 SLOAD SWAP1 SWAP2 AND SWAP1 SWAP2 OR SWAP1 SSTORE PUSH1 0x19 SLOAD PUSH1 0x40 MLOAD PUSH4 0x63B8D4C1 PUSH1 0xE1 SHL DUP2 MSTORE PUSH1 0x20 PUSH1 0x4 DUP3 ADD MSTORE PUSH1 0x8 PUSH1 0x24 DUP3 ADD MSTORE PUSH8 0x2727A222AFA6A3A9 PUSH1 0xC1 SHL PUSH1 0x44 DUP3 ADD MSTORE SWAP2 AND SWAP1 PUSH4 0xC771A982 SWAP1 PUSH1 0x64 ADD PUSH1 0x20 PUSH1 0x40 MLOAD DUP1 DUP4 SUB DUP2 DUP7 DUP1 EXTCODESIZE ISZERO DUP1 ISZERO PUSH2 0x2279 JUMPI PUSH1 0x0 DUP1 REVERT JUMPDEST POP GAS STATICCALL ISZERO DUP1 ISZERO PUSH2 0x228D JUMPI RETURNDATASIZE PUSH1 0x0 DUP1 RETURNDATACOPY RETURNDATASIZE PUSH1 0x0 REVERT JUMPDEST POP POP POP POP PUSH1 0x40 MLOAD RETURNDATASIZE PUSH1 0x1F NOT PUSH1 0x1F DUP3 ADD AND DUP3 ADD DUP1 PUSH1 0x40 MSTORE POP DUP2 ADD SWAP1 PUSH2 0x22B1 SWAP2 SWAP1 PUSH2 0x40DB JUMP JUMPDEST PUSH1 0x16 DUP1 SLOAD PUSH1 0x1 PUSH1 0x1 PUSH1 0xA0 SHL SUB SWAP3 DUP4 AND PUSH1 0x1 PUSH1 0x1 PUSH1 0xA0 SHL SUB NOT SWAP2 DUP3 AND DUP2 OR SWAP1 SWAP3 SSTORE PUSH1 0x1B DUP1 SLOAD SWAP1 SWAP2 AND SWAP1 SWAP2 OR SWAP1 SSTORE PUSH1 0x19 SLOAD PUSH1 0x40 MLOAD PUSH4 0x63B8D4C1 PUSH1 0xE1 SHL DUP2 MSTORE PUSH1 0x20 PUSH1 0x4 DUP3 ADD MSTORE PUSH1 0x9 PUSH1 0x24 DUP3 ADD MSTORE PUSH9 0x2727A222AFA9AA27A9 PUSH1 0xB9 SHL PUSH1 0x44 DUP3 ADD MSTORE SWAP2 AND SWAP1 PUSH4 0xC771A982 SWAP1 PUSH1 0x64 ADD PUSH1 0x20 PUSH1 0x40 MLOAD DUP1 DUP4 SUB DUP2 DUP7 DUP1 EXTCODESIZE ISZERO DUP1 ISZERO PUSH2 0x2331 JUMPI PUSH1 0x0 DUP1 REVERT JUMPDEST POP GAS STATICCALL ISZERO DUP1 ISZERO PUSH2 0x2345 JUMPI RETURNDATASIZE PUSH1 0x0 DUP1 RETURNDATACOPY RETURNDATASIZE PUSH1 0x0 REVERT JUMPDEST POP POP POP POP PUSH1 0x40 MLOAD RETURNDATASIZE PUSH1 0x1F NOT PUSH1 0x1F DUP3 ADD AND DUP3 ADD DUP1 PUSH1 0x40 MSTORE POP DUP2 ADD SWAP1 PUSH2 0x2369 SWAP2 SWAP1 PUSH2 0x40DB JUMP JUMPDEST PUSH1 0x17 DUP1 SLOAD PUSH1 0x1 PUSH1 0x1 PUSH1 0xA0 SHL SUB SWAP3 DUP4 AND PUSH1 0x1 PUSH1 0x1 PUSH1 0xA0 SHL SUB NOT SWAP2 DUP3 AND DUP2 OR SWAP1 SWAP3 SSTORE PUSH1 0x1C DUP1 SLOAD SWAP1 SWAP2 AND SWAP1 SWAP2 OR SWAP1 SSTORE PUSH1 0x19 SLOAD PUSH1 0x40 MLOAD PUSH4 0x63B8D4C1 PUSH1 0xE1 SHL DUP2 MSTORE PUSH1 0x20 PUSH1 0x4 DUP3 ADD MSTORE PUSH1 0x8 PUSH1 0x24 DUP3 ADD MSTORE PUSH8 0x2727A222AFAA25A7 PUSH1 0xC1 SHL PUSH1 0x44 DUP3 ADD MSTORE SWAP2 AND SWAP1 PUSH4 0xC771A982 SWAP1 PUSH1 0x64 ADD PUSH1 0x20 PUSH1 0x40 MLOAD DUP1 DUP4 SUB DUP2 DUP7 DUP1 EXTCODESIZE ISZERO DUP1 ISZERO PUSH2 0x23E8 JUMPI PUSH1 0x0 DUP1 REVERT JUMPDEST POP GAS STATICCALL ISZERO DUP1 ISZERO PUSH2 0x23FC JUMPI RETURNDATASIZE PUSH1 0x0 DUP1 RETURNDATACOPY RETURNDATASIZE PUSH1 0x0 REVERT JUMPDEST POP POP POP POP PUSH1 0x40 MLOAD RETURNDATASIZE PUSH1 0x1F NOT PUSH1 0x1F DUP3 ADD AND DUP3 ADD DUP1 PUSH1 0x40 MSTORE POP DUP2 ADD SWAP1 PUSH2 0x2420 SWAP2 SWAP1 PUSH2 0x40DB JUMP JUMPDEST PUSH1 0x18 DUP1 SLOAD PUSH1 0x1 PUSH1 0x1 PUSH1 0xA0 SHL SUB SWAP3 SWAP1 SWAP3 AND PUSH1 0x1 PUSH1 0x1 PUSH1 0xA0 SHL SUB NOT SWAP3 DUP4 AND DUP2 OR SWAP1 SWAP2 SSTORE PUSH1 0x1D DUP1 SLOAD SWAP1 SWAP3 AND OR SWAP1 SSTORE JUMP JUMPDEST PUSH2 0xF26 DUP3 DUP3 PUSH2 0x2D20 JUMP JUMPDEST PUSH1 0x0 PUSH2 0x1625 DUP4 PUSH1 0x1 PUSH1 0x1 PUSH1 0xA0 SHL SUB DUP5 AND PUSH2 0x2D8B JUMP JUMPDEST PUSH1 0x0 SWAP1 DUP2 MSTORE PUSH1 0x5 PUSH1 0x20 MSTORE PUSH1 0x40 SWAP1 KECCAK256 SLOAD PUSH1 0x1 PUSH1 0x1 PUSH1 0xA0 SHL SUB AND ISZERO ISZERO SWAP1 JUMP JUMPDEST PUSH1 0x0 PUSH1 0x1 PUSH1 0x1 PUSH1 0xE0 SHL SUB NOT DUP3 AND PUSH4 0x780E9D63 PUSH1 0xE0 SHL EQ DUP1 PUSH2 0x749 JUMPI POP PUSH2 0x749 DUP3 PUSH2 0x2DDA JUMP JUMPDEST PUSH1 0x0 DUP2 DUP2 MSTORE PUSH1 0x7 PUSH1 0x20 MSTORE PUSH1 0x40 SWAP1 KECCAK256 DUP1 SLOAD PUSH1 0x1 PUSH1 0x1 PUSH1 0xA0 SHL SUB NOT AND PUSH1 0x1 PUSH1 0x1 PUSH1 0xA0 SHL SUB DUP5 AND SWAP1 DUP2 OR SWAP1 SWAP2 SSTORE DUP2 SWAP1 PUSH2 0x24E3 DUP3 PUSH2 0x109B JUMP JUMPDEST PUSH1 0x1 PUSH1 0x1 PUSH1 0xA0 SHL SUB AND PUSH32 0x8C5BE1E5EBEC7D5BD14F71427D1E84F3DD0314C0F7B2291E5B200AC8C7C3B925 PUSH1 0x40 MLOAD PUSH1 0x40 MLOAD DUP1 SWAP2 SUB SWAP1 LOG4 POP POP JUMP JUMPDEST PUSH1 0x40 DUP1 MLOAD PUSH2 0x180 DUP2 ADD DUP3 MSTORE PUSH1 0x0 DUP1 DUP3 MSTORE PUSH1 0x20 DUP3 ADD DUP2 SWAP1 MSTORE SWAP2 DUP2 ADD DUP3 SWAP1 MSTORE PUSH1 0x60 DUP2 ADD DUP3 SWAP1 MSTORE PUSH1 0x80 DUP2 ADD DUP3 SWAP1 MSTORE PUSH1 0xA0 DUP2 ADD DUP3 SWAP1 MSTORE PUSH1 0xC0 DUP2 ADD DUP3 SWAP1 MSTORE PUSH1 0xE0 DUP2 ADD DUP3 SWAP1 MSTORE PUSH2 0x100 DUP2 ADD DUP3 SWAP1 MSTORE PUSH2 0x120 DUP2 ADD DUP3 SWAP1 MSTORE PUSH2 0x140 DUP2 ADD DUP3 SWAP1 MSTORE PUSH2 0x160 DUP2 ADD SWAP2 SWAP1 SWAP2 MSTORE PUSH1 0x19 SLOAD PUSH1 0x40 MLOAD PUSH4 0x38923CB1 PUSH1 0xE2 SHL DUP2 MSTORE PUSH1 0x4 DUP2 ADD DUP5 SWAP1 MSTORE PUSH1 0x0 SWAP2 PUSH1 0x1 PUSH1 0x1 PUSH1 0xA0 SHL SUB AND SWAP1 PUSH4 0xE248F2C4 SWAP1 PUSH1 0x24 ADD PUSH2 0x180 PUSH1 0x40 MLOAD DUP1 DUP4 SUB DUP2 DUP7 DUP1 EXTCODESIZE ISZERO DUP1 ISZERO PUSH2 0x25C3 JUMPI PUSH1 0x0 DUP1 REVERT JUMPDEST POP GAS STATICCALL ISZERO DUP1 ISZERO PUSH2 0x25D7 JUMPI RETURNDATASIZE PUSH1 0x0 DUP1 RETURNDATACOPY RETURNDATASIZE PUSH1 0x0 REVERT JUMPDEST POP POP POP POP PUSH1 0x40 MLOAD RETURNDATASIZE PUSH1 0x1F NOT PUSH1 0x1F DUP3 ADD AND DUP3 ADD DUP1 PUSH1 0x40 MSTORE POP DUP2 ADD SWAP1 PUSH2 0x1625 SWAP2 SWAP1 PUSH2 0x433B JUMP JUMPDEST PUSH1 0xD SLOAD PUSH1 0xFF AND ISZERO PUSH2 0x261E JUMPI PUSH1 0x40 MLOAD PUSH3 0x461BCD PUSH1 0xE5 SHL DUP2 MSTORE PUSH1 0x4 ADD PUSH2 0x849 SWAP1 PUSH2 0x40A6 JUMP JUMPDEST PUSH1 0x19 SLOAD PUSH2 0x160 DUP3 ADD MLOAD DUP3 MLOAD PUSH1 0x80 DUP5 ADD MLOAD PUSH1 0xA0 DUP6 ADD MLOAD PUSH1 0x20 DUP7 ADD MLOAD PUSH1 0x40 DUP1 DUP9 ADD MLOAD SWAP1 MLOAD PUSH4 0x1E213097 PUSH1 0xE1 SHL DUP2 MSTORE PUSH1 0x4 DUP2 ADD DUP11 SWAP1 MSTORE PUSH1 0x24 DUP2 ADD SWAP7 SWAP1 SWAP7 MSTORE PUSH1 0xFF SWAP5 DUP6 AND PUSH1 0x44 DUP8 ADD MSTORE PUSH4 0xFFFFFFFF SWAP4 DUP5 AND PUSH1 0x64 DUP8 ADD MSTORE SWAP3 SWAP1 SWAP2 AND PUSH1 0x84 DUP6 ADD MSTORE SWAP2 SWAP1 SWAP2 AND PUSH1 0xA4 DUP4 ADD MSTORE PUSH2 0xFFFF AND PUSH1 0xC4 DUP3 ADD MSTORE PUSH1 0x1 PUSH1 0x1 PUSH1 0xA0 SHL SUB SWAP1 SWAP2 AND SWAP1 PUSH4 0x3C42612E SWAP1 PUSH1 0xE4 ADD PUSH1 0x0 PUSH1 0x40 MLOAD DUP1 DUP4 SUB DUP2 PUSH1 0x0 DUP8 DUP1 EXTCODESIZE ISZERO DUP1 ISZERO PUSH2 0x26BA JUMPI PUSH1 0x0 DUP1 REVERT JUMPDEST POP GAS CALL ISZERO DUP1 ISZERO PUSH2 0x26CE JUMPI RETURNDATASIZE PUSH1 0x0 DUP1 RETURNDATACOPY RETURNDATASIZE PUSH1 0x0 REVERT JUMPDEST POP POP POP POP POP POP JUMP JUMPDEST DUP3 PUSH1 0x1 PUSH1 0x1 PUSH1 0xA0 SHL SUB AND PUSH2 0x26E9 DUP3 PUSH2 0x109B JUMP JUMPDEST PUSH1 0x1 PUSH1 0x1 PUSH1 0xA0 SHL SUB AND EQ PUSH2 0x2751 JUMPI PUSH1 0x40 MLOAD PUSH3 0x461BCD PUSH1 0xE5 SHL DUP2 MSTORE PUSH1 0x20 PUSH1 0x4 DUP3 ADD MSTORE PUSH1 0x29 PUSH1 0x24 DUP3 ADD MSTORE PUSH32 0x4552433732313A207472616E73666572206F6620746F6B656E20746861742069 PUSH1 0x44 DUP3 ADD MSTORE PUSH9 0x39903737BA1037BBB7 PUSH1 0xB9 SHL PUSH1 0x64 DUP3 ADD MSTORE PUSH1 0x84 ADD PUSH2 0x849 JUMP JUMPDEST PUSH1 0x1 PUSH1 0x1 PUSH1 0xA0 SHL SUB DUP3 AND PUSH2 0x27B3 JUMPI PUSH1 0x40 MLOAD PUSH3 0x461BCD PUSH1 0xE5 SHL DUP2 MSTORE PUSH1 0x20 PUSH1 0x4 DUP3 ADD MSTORE PUSH1 0x24 DUP1 DUP3 ADD MSTORE PUSH32 0x4552433732313A207472616E7366657220746F20746865207A65726F20616464 PUSH1 0x44 DUP3 ADD MSTORE PUSH4 0x72657373 PUSH1 0xE0 SHL PUSH1 0x64 DUP3 ADD MSTORE PUSH1 0x84 ADD PUSH2 0x849 JUMP JUMPDEST PUSH2 0x27BE DUP4 DUP4 DUP4 PUSH2 0x2E1A JUMP JUMPDEST PUSH2 0x27C9 PUSH1 0x0 DUP3 PUSH2 0x24AE JUMP JUMPDEST PUSH1 0x1 PUSH1 0x1 PUSH1 0xA0 SHL SUB DUP4 AND PUSH1 0x0 SWAP1 DUP2 MSTORE PUSH1 0x6 PUSH1 0x20 MSTORE PUSH1 0x40 DUP2 KECCAK256 DUP1 SLOAD PUSH1 0x1 SWAP3 SWAP1 PUSH2 0x27F2 SWAP1 DUP5 SWAP1 PUSH2 0x4415 JUMP JUMPDEST SWAP1 SWAP2 SSTORE POP POP PUSH1 0x1 PUSH1 0x1 PUSH1 0xA0 SHL SUB DUP3 AND PUSH1 0x0 SWAP1 DUP2 MSTORE PUSH1 0x6 PUSH1 0x20 MSTORE PUSH1 0x40 DUP2 KECCAK256 DUP1 SLOAD PUSH1 0x1 SWAP3 SWAP1 PUSH2 0x2820 SWAP1 DUP5 SWAP1 PUSH2 0x442C JUMP JUMPDEST SWAP1 SWAP2 SSTORE POP POP PUSH1 0x0 DUP2 DUP2 MSTORE PUSH1 0x5 PUSH1 0x20 MSTORE PUSH1 0x40 DUP1 DUP3 KECCAK256 DUP1 SLOAD PUSH1 0x1 PUSH1 0x1 PUSH1 0xA0 SHL SUB NOT AND PUSH1 0x1 PUSH1 0x1 PUSH1 0xA0 SHL SUB DUP7 DUP2 AND SWAP2 DUP3 OR SWAP1 SWAP3 SSTORE SWAP2 MLOAD DUP5 SWAP4 SWAP2 DUP8 AND SWAP2 PUSH32 0xDDF252AD1BE2C89B69C2B068FC378DAA952BA7F163C4A11628F55A4DF523B3EF SWAP2 LOG4 POP POP POP JUMP JUMPDEST PUSH1 0x0 PUSH2 0x288C DUP3 PUSH2 0x246C JUMP JUMPDEST PUSH2 0x28ED JUMPI PUSH1 0x40 MLOAD PUSH3 0x461BCD PUSH1 0xE5 SHL DUP2 MSTORE PUSH1 0x20 PUSH1 0x4 DUP3 ADD MSTORE PUSH1 0x2C PUSH1 0x24 DUP3 ADD MSTORE PUSH32 0x4552433732313A206F70657261746F7220717565727920666F72206E6F6E6578 PUSH1 0x44 DUP3 ADD MSTORE PUSH12 0x34B9BA32B73A103A37B5B2B7 PUSH1 0xA1 SHL PUSH1 0x64 DUP3 ADD MSTORE PUSH1 0x84 ADD PUSH2 0x849 JUMP JUMPDEST PUSH1 0x0 PUSH2 0x28F8 DUP4 PUSH2 0x109B JUMP JUMPDEST SWAP1 POP DUP1 PUSH1 0x1 PUSH1 0x1 PUSH1 0xA0 SHL SUB AND DUP5 PUSH1 0x1 PUSH1 0x1 PUSH1 0xA0 SHL SUB AND EQ DUP1 PUSH2 0x2933 JUMPI POP DUP4 PUSH1 0x1 PUSH1 0x1 PUSH1 0xA0 SHL SUB AND PUSH2 0x2928 DUP5 PUSH2 0x7E1 JUMP JUMPDEST PUSH1 0x1 PUSH1 0x1 PUSH1 0xA0 SHL SUB AND EQ JUMPDEST DUP1 PUSH2 0x2963 JUMPI POP PUSH1 0x1 PUSH1 0x1 PUSH1 0xA0 SHL SUB DUP1 DUP3 AND PUSH1 0x0 SWAP1 DUP2 MSTORE PUSH1 0x8 PUSH1 0x20 SWAP1 DUP2 MSTORE PUSH1 0x40 DUP1 DUP4 KECCAK256 SWAP4 DUP9 AND DUP4 MSTORE SWAP3 SWAP1 MSTORE KECCAK256 SLOAD PUSH1 0xFF AND JUMPDEST SWAP5 SWAP4 POP POP POP POP JUMP JUMPDEST PUSH1 0x0 DUP3 DUP2 MSTORE PUSH1 0x1 PUSH1 0x20 DUP2 SWAP1 MSTORE PUSH1 0x40 SWAP1 SWAP2 KECCAK256 ADD SLOAD PUSH2 0x2988 DUP2 CALLER PUSH2 0x2E25 JUMP JUMPDEST PUSH2 0x97F DUP4 DUP4 PUSH2 0x2D20 JUMP JUMPDEST PUSH1 0x1 PUSH1 0x1 PUSH1 0xA0 SHL SUB DUP2 AND CALLER EQ PUSH2 0x2A02 JUMPI PUSH1 0x40 MLOAD PUSH3 0x461BCD PUSH1 0xE5 SHL DUP2 MSTORE PUSH1 0x20 PUSH1 0x4 DUP3 ADD MSTORE PUSH1 0x2F PUSH1 0x24 DUP3 ADD MSTORE PUSH32 0x416363657373436F6E74726F6C3A2063616E206F6E6C792072656E6F756E6365 PUSH1 0x44 DUP3 ADD MSTORE PUSH15 0x103937B632B9903337B91039B2B633 PUSH1 0x89 SHL PUSH1 0x64 DUP3 ADD MSTORE PUSH1 0x84 ADD PUSH2 0x849 JUMP JUMPDEST PUSH2 0xF26 DUP3 DUP3 PUSH2 0x2E89 JUMP JUMPDEST PUSH1 0x0 PUSH2 0x1625 DUP4 PUSH1 0x1 PUSH1 0x1 PUSH1 0xA0 SHL SUB DUP5 AND PUSH2 0x2EF0 JUMP JUMPDEST PUSH1 0xD SLOAD PUSH1 0xFF AND PUSH2 0x2A6A JUMPI PUSH1 0x40 MLOAD PUSH3 0x461BCD PUSH1 0xE5 SHL DUP2 MSTORE PUSH1 0x20 PUSH1 0x4 DUP3 ADD MSTORE PUSH1 0x14 PUSH1 0x24 DUP3 ADD MSTORE PUSH20 0x14185D5CD8589B194E881B9BDD081C185D5CD959 PUSH1 0x62 SHL PUSH1 0x44 DUP3 ADD MSTORE PUSH1 0x64 ADD PUSH2 0x849 JUMP JUMPDEST PUSH1 0xD DUP1 SLOAD PUSH1 0xFF NOT AND SWAP1 SSTORE PUSH32 0x5DB9EE0A495BF2E6FF9C91A7834C1BA4FDD244A5E8AA4E537BD38AEAE4B073AA CALLER JUMPDEST PUSH1 0x40 MLOAD PUSH1 0x1 PUSH1 0x1 PUSH1 0xA0 SHL SUB SWAP1 SWAP2 AND DUP2 MSTORE PUSH1 0x20 ADD PUSH1 0x40 MLOAD DUP1 SWAP2 SUB SWAP1 LOG1 JUMP JUMPDEST PUSH2 0x2ABD DUP2 PUSH2 0x2FE3 JUMP JUMPDEST PUSH1 0x0 DUP2 DUP2 MSTORE PUSH1 0xE PUSH1 0x20 MSTORE PUSH1 0x40 SWAP1 KECCAK256 DUP1 SLOAD PUSH2 0x2AD6 SWAP1 PUSH2 0x3F54 JUMP JUMPDEST ISZERO SWAP1 POP PUSH2 0xECD JUMPI PUSH1 0x0 DUP2 DUP2 MSTORE PUSH1 0xE PUSH1 0x20 MSTORE PUSH1 0x40 DUP2 KECCAK256 PUSH2 0xECD SWAP2 PUSH2 0x3974 JUMP JUMPDEST PUSH2 0xF26 DUP3 DUP3 PUSH1 0x40 MLOAD DUP1 PUSH1 0x20 ADD PUSH1 0x40 MSTORE DUP1 PUSH1 0x0 DUP2 MSTORE POP PUSH2 0x308A JUMP JUMPDEST PUSH2 0x2B17 DUP3 PUSH2 0x246C JUMP JUMPDEST PUSH2 0x2B6F JUMPI PUSH1 0x40 MLOAD PUSH3 0x461BCD PUSH1 0xE5 SHL DUP2 MSTORE PUSH1 0x20 PUSH1 0x4 DUP3 ADD MSTORE PUSH1 0x24 DUP1 DUP3 ADD MSTORE PUSH32 0x41543A5354553A2055524920736574206F66206E6F6E6578697374656E742074 PUSH1 0x44 DUP3 ADD MSTORE PUSH4 0x37B5B2B7 PUSH1 0xE1 SHL PUSH1 0x64 DUP3 ADD MSTORE PUSH1 0x84 ADD PUSH2 0x849 JUMP JUMPDEST PUSH1 0x0 DUP3 DUP2 MSTORE PUSH1 0xE PUSH1 0x20 SWAP1 DUP2 MSTORE PUSH1 0x40 SWAP1 SWAP2 KECCAK256 DUP3 MLOAD PUSH2 0x97F SWAP3 DUP5 ADD SWAP1 PUSH2 0x39AE JUMP JUMPDEST PUSH1 0xD SLOAD PUSH1 0xFF AND ISZERO PUSH2 0x2BB1 JUMPI PUSH1 0x40 MLOAD PUSH3 0x461BCD PUSH1 0xE5 SHL DUP2 MSTORE PUSH1 0x4 ADD PUSH2 0x849 SWAP1 PUSH2 0x40A6 JUMP JUMPDEST PUSH1 0xD DUP1 SLOAD PUSH1 0xFF NOT AND PUSH1 0x1 OR SWAP1 SSTORE PUSH32 0x62E78CEA01BEE320CD4E420270B5EA74000D11B0C9F74754EBDBFC544B05A258 PUSH2 0x2A97 CALLER SWAP1 JUMP JUMPDEST PUSH1 0x0 PUSH2 0x1625 DUP4 DUP4 PUSH2 0x30BD JUMP JUMPDEST PUSH2 0x2BFD DUP5 DUP5 DUP5 PUSH2 0x26D6 JUMP JUMPDEST PUSH2 0x2C09 DUP5 DUP5 DUP5 DUP5 PUSH2 0x30E7 JUMP JUMPDEST PUSH2 0xDB4 JUMPI PUSH1 0x40 MLOAD PUSH3 0x461BCD PUSH1 0xE5 SHL DUP2 MSTORE PUSH1 0x4 ADD PUSH2 0x849 SWAP1 PUSH2 0x4444 JUMP JUMPDEST PUSH1 0x60 PUSH2 0x2C30 DUP3 PUSH2 0x246C JUMP JUMPDEST PUSH2 0x2C94 JUMPI PUSH1 0x40 MLOAD PUSH3 0x461BCD PUSH1 0xE5 SHL DUP2 MSTORE PUSH1 0x20 PUSH1 0x4 DUP3 ADD MSTORE PUSH1 0x2F PUSH1 0x24 DUP3 ADD MSTORE PUSH32 0x4552433732314D657461646174613A2055524920717565727920666F72206E6F PUSH1 0x44 DUP3 ADD MSTORE PUSH15 0x3732BC34B9BA32B73A103A37B5B2B7 PUSH1 0x89 SHL PUSH1 0x64 DUP3 ADD MSTORE PUSH1 0x84 ADD PUSH2 0x849 JUMP JUMPDEST PUSH1 0x0 PUSH2 0x2C9E PUSH2 0x31F4 JUMP JUMPDEST SWAP1 POP PUSH1 0x0 DUP2 MLOAD GT PUSH2 0x2CBE JUMPI PUSH1 0x40 MLOAD DUP1 PUSH1 0x20 ADD PUSH1 0x40 MSTORE DUP1 PUSH1 0x0 DUP2 MSTORE POP PUSH2 0x1625 JUMP JUMPDEST DUP1 PUSH2 0x2CC8 DUP5 PUSH2 0x3203 JUMP JUMPDEST PUSH1 0x40 MLOAD PUSH1 0x20 ADD PUSH2 0x2CD9 SWAP3 SWAP2 SWAP1 PUSH2 0x429D JUMP JUMPDEST PUSH1 0x40 MLOAD PUSH1 0x20 DUP2 DUP4 SUB SUB DUP2 MSTORE SWAP1 PUSH1 0x40 MSTORE SWAP4 SWAP3 POP POP POP JUMP JUMPDEST PUSH1 0x0 PUSH2 0x749 DUP3 SLOAD SWAP1 JUMP JUMPDEST PUSH1 0x0 DUP3 DUP2 MSTORE PUSH1 0x1 PUSH1 0x20 DUP2 SWAP1 MSTORE PUSH1 0x40 SWAP1 SWAP2 KECCAK256 ADD SLOAD PUSH2 0x2D16 DUP2 CALLER PUSH2 0x2E25 JUMP JUMPDEST PUSH2 0x97F DUP4 DUP4 PUSH2 0x2E89 JUMP JUMPDEST PUSH2 0x2D2A DUP3 DUP3 PUSH2 0x162C JUMP JUMPDEST PUSH2 0xF26 JUMPI PUSH1 0x0 DUP3 DUP2 MSTORE PUSH1 0x1 PUSH1 0x20 DUP2 DUP2 MSTORE PUSH1 0x40 DUP1 DUP5 KECCAK256 PUSH1 0x1 PUSH1 0x1 PUSH1 0xA0 SHL SUB DUP7 AND DUP1 DUP7 MSTORE SWAP3 MSTORE DUP1 DUP5 KECCAK256 DUP1 SLOAD PUSH1 0xFF NOT AND SWAP1 SWAP4 OR SWAP1 SWAP3 SSTORE SWAP1 MLOAD CALLER SWAP3 DUP6 SWAP2 PUSH32 0x2F8788117E7EFF1D82E926EC794901D17C78024A50270940304540A733656F0D SWAP2 SWAP1 LOG4 POP POP JUMP JUMPDEST PUSH1 0x0 DUP2 DUP2 MSTORE PUSH1 0x1 DUP4 ADD PUSH1 0x20 MSTORE PUSH1 0x40 DUP2 KECCAK256 SLOAD PUSH2 0x2DD2 JUMPI POP DUP2 SLOAD PUSH1 0x1 DUP2 DUP2 ADD DUP5 SSTORE PUSH1 0x0 DUP5 DUP2 MSTORE PUSH1 0x20 DUP1 DUP3 KECCAK256 SWAP1 SWAP4 ADD DUP5 SWAP1 SSTORE DUP5 SLOAD DUP5 DUP3 MSTORE DUP3 DUP7 ADD SWAP1 SWAP4 MSTORE PUSH1 0x40 SWAP1 KECCAK256 SWAP2 SWAP1 SWAP2 SSTORE PUSH2 0x749 JUMP JUMPDEST POP PUSH1 0x0 PUSH2 0x749 JUMP JUMPDEST PUSH1 0x0 PUSH1 0x1 PUSH1 0x1 PUSH1 0xE0 SHL SUB NOT DUP3 AND PUSH4 0x80AC58CD PUSH1 0xE0 SHL EQ DUP1 PUSH2 0x2E0B JUMPI POP PUSH1 0x1 PUSH1 0x1 PUSH1 0xE0 SHL SUB NOT DUP3 AND PUSH4 0x5B5E139F PUSH1 0xE0 SHL EQ JUMPDEST DUP1 PUSH2 0x749 JUMPI POP PUSH2 0x749 DUP3 PUSH2 0x3301 JUMP JUMPDEST PUSH2 0x97F DUP4 DUP4 DUP4 PUSH2 0x3326 JUMP JUMPDEST PUSH2 0x2E2F DUP3 DUP3 PUSH2 0x162C JUMP JUMPDEST PUSH2 0xF26 JUMPI PUSH2 0x2E47 DUP2 PUSH1 0x1 PUSH1 0x1 PUSH1 0xA0 SHL SUB AND PUSH1 0x14 PUSH2 0x3398 JUMP JUMPDEST PUSH2 0x2E52 DUP4 PUSH1 0x20 PUSH2 0x3398 JUMP JUMPDEST PUSH1 0x40 MLOAD PUSH1 0x20 ADD PUSH2 0x2E63 SWAP3 SWAP2 SWAP1 PUSH2 0x4496 JUMP JUMPDEST PUSH1 0x40 DUP1 MLOAD PUSH1 0x1F NOT DUP2 DUP5 SUB ADD DUP2 MSTORE SWAP1 DUP3 SWAP1 MSTORE PUSH3 0x461BCD PUSH1 0xE5 SHL DUP3 MSTORE PUSH2 0x849 SWAP2 PUSH1 0x4 ADD PUSH2 0x3ADB JUMP JUMPDEST PUSH2 0x2E93 DUP3 DUP3 PUSH2 0x162C JUMP JUMPDEST ISZERO PUSH2 0xF26 JUMPI PUSH1 0x0 DUP3 DUP2 MSTORE PUSH1 0x1 PUSH1 0x20 SWAP1 DUP2 MSTORE PUSH1 0x40 DUP1 DUP4 KECCAK256 PUSH1 0x1 PUSH1 0x1 PUSH1 0xA0 SHL SUB DUP6 AND DUP1 DUP6 MSTORE SWAP3 MSTORE DUP1 DUP4 KECCAK256 DUP1 SLOAD PUSH1 0xFF NOT AND SWAP1 SSTORE MLOAD CALLER SWAP3 DUP6 SWAP2 PUSH32 0xF6391F5C32D9C69D2A47EA670B442974B53935D1EDC7FD64EB21E047A839171B SWAP2 SWAP1 LOG4 POP POP JUMP JUMPDEST PUSH1 0x0 DUP2 DUP2 MSTORE PUSH1 0x1 DUP4 ADD PUSH1 0x20 MSTORE PUSH1 0x40 DUP2 KECCAK256 SLOAD DUP1 ISZERO PUSH2 0x2FD9 JUMPI PUSH1 0x0 PUSH2 0x2F14 PUSH1 0x1 DUP4 PUSH2 0x4415 JUMP JUMPDEST DUP6 SLOAD SWAP1 SWAP2 POP PUSH1 0x0 SWAP1 PUSH2 0x2F28 SWAP1 PUSH1 0x1 SWAP1 PUSH2 0x4415 JUMP JUMPDEST SWAP1 POP DUP2 DUP2 EQ PUSH2 0x2F8D JUMPI PUSH1 0x0 DUP7 PUSH1 0x0 ADD DUP3 DUP2 SLOAD DUP2 LT PUSH2 0x2F48 JUMPI PUSH2 0x2F48 PUSH2 0x4090 JUMP JUMPDEST SWAP1 PUSH1 0x0 MSTORE PUSH1 0x20 PUSH1 0x0 KECCAK256 ADD SLOAD SWAP1 POP DUP1 DUP8 PUSH1 0x0 ADD DUP5 DUP2 SLOAD DUP2 LT PUSH2 0x2F6B JUMPI PUSH2 0x2F6B PUSH2 0x4090 JUMP JUMPDEST PUSH1 0x0 SWAP2 DUP3 MSTORE PUSH1 0x20 DUP1 DUP4 KECCAK256 SWAP1 SWAP2 ADD SWAP3 SWAP1 SWAP3 SSTORE SWAP2 DUP3 MSTORE PUSH1 0x1 DUP9 ADD SWAP1 MSTORE PUSH1 0x40 SWAP1 KECCAK256 DUP4 SWAP1 SSTORE JUMPDEST DUP6 SLOAD DUP7 SWAP1 DUP1 PUSH2 0x2F9E JUMPI PUSH2 0x2F9E PUSH2 0x450B JUMP JUMPDEST PUSH1 0x1 SWAP1 SUB DUP2 DUP2 SWAP1 PUSH1 0x0 MSTORE PUSH1 0x20 PUSH1 0x0 KECCAK256 ADD PUSH1 0x0 SWAP1 SSTORE SWAP1 SSTORE DUP6 PUSH1 0x1 ADD PUSH1 0x0 DUP7 DUP2 MSTORE PUSH1 0x20 ADD SWAP1 DUP2 MSTORE PUSH1 0x20 ADD PUSH1 0x0 KECCAK256 PUSH1 0x0 SWAP1 SSTORE PUSH1 0x1 SWAP4 POP POP POP POP PUSH2 0x749 JUMP JUMPDEST PUSH1 0x0 SWAP2 POP POP PUSH2 0x749 JUMP JUMPDEST PUSH1 0x0 PUSH2 0x2FEE DUP3 PUSH2 0x109B JUMP JUMPDEST SWAP1 POP PUSH2 0x2FFC DUP2 PUSH1 0x0 DUP5 PUSH2 0x2E1A JUMP JUMPDEST PUSH2 0x3007 PUSH1 0x0 DUP4 PUSH2 0x24AE JUMP JUMPDEST PUSH1 0x1 PUSH1 0x1 PUSH1 0xA0 SHL SUB DUP2 AND PUSH1 0x0 SWAP1 DUP2 MSTORE PUSH1 0x6 PUSH1 0x20 MSTORE PUSH1 0x40 DUP2 KECCAK256 DUP1 SLOAD PUSH1 0x1 SWAP3 SWAP1 PUSH2 0x3030 SWAP1 DUP5 SWAP1 PUSH2 0x4415 JUMP JUMPDEST SWAP1 SWAP2 SSTORE POP POP PUSH1 0x0 DUP3 DUP2 MSTORE PUSH1 0x5 PUSH1 0x20 MSTORE PUSH1 0x40 DUP1 DUP3 KECCAK256 DUP1 SLOAD PUSH1 0x1 PUSH1 0x1 PUSH1 0xA0 SHL SUB NOT AND SWAP1 SSTORE MLOAD DUP4 SWAP2 SWAP1 PUSH1 0x1 PUSH1 0x1 PUSH1 0xA0 SHL SUB DUP5 AND SWAP1 PUSH32 0xDDF252AD1BE2C89B69C2B068FC378DAA952BA7F163C4A11628F55A4DF523B3EF SWAP1 DUP4 SWAP1 LOG4 POP POP JUMP JUMPDEST PUSH2 0x3094 DUP4 DUP4 PUSH2 0x3534 JUMP JUMPDEST PUSH2 0x30A1 PUSH1 0x0 DUP5 DUP5 DUP5 PUSH2 0x30E7 JUMP JUMPDEST PUSH2 0x97F JUMPI PUSH1 0x40 MLOAD PUSH3 0x461BCD PUSH1 0xE5 SHL DUP2 MSTORE PUSH1 0x4 ADD PUSH2 0x849 SWAP1 PUSH2 0x4444 JUMP JUMPDEST PUSH1 0x0 DUP3 PUSH1 0x0 ADD DUP3 DUP2 SLOAD DUP2 LT PUSH2 0x30D4 JUMPI PUSH2 0x30D4 PUSH2 0x4090 JUMP JUMPDEST SWAP1 PUSH1 0x0 MSTORE PUSH1 0x20 PUSH1 0x0 KECCAK256 ADD SLOAD SWAP1 POP SWAP3 SWAP2 POP POP JUMP JUMPDEST PUSH1 0x0 PUSH1 0x1 PUSH1 0x1 PUSH1 0xA0 SHL SUB DUP5 AND EXTCODESIZE ISZERO PUSH2 0x31E9 JUMPI PUSH1 0x40 MLOAD PUSH4 0xA85BD01 PUSH1 0xE1 SHL DUP2 MSTORE PUSH1 0x1 PUSH1 0x1 PUSH1 0xA0 SHL SUB DUP6 AND SWAP1 PUSH4 0x150B7A02 SWAP1 PUSH2 0x312B SWAP1 CALLER SWAP1 DUP10 SWAP1 DUP9 SWAP1 DUP9 SWAP1 PUSH1 0x4 ADD PUSH2 0x4521 JUMP JUMPDEST PUSH1 0x20 PUSH1 0x40 MLOAD DUP1 DUP4 SUB DUP2 PUSH1 0x0 DUP8 DUP1 EXTCODESIZE ISZERO DUP1 ISZERO PUSH2 0x3145 JUMPI PUSH1 0x0 DUP1 REVERT JUMPDEST POP GAS CALL SWAP3 POP POP POP DUP1 ISZERO PUSH2 0x3175 JUMPI POP PUSH1 0x40 DUP1 MLOAD PUSH1 0x1F RETURNDATASIZE SWAP1 DUP2 ADD PUSH1 0x1F NOT AND DUP3 ADD SWAP1 SWAP3 MSTORE PUSH2 0x3172 SWAP2 DUP2 ADD SWAP1 PUSH2 0x4554 JUMP JUMPDEST PUSH1 0x1 JUMPDEST PUSH2 0x31CF JUMPI RETURNDATASIZE DUP1 DUP1 ISZERO PUSH2 0x31A3 JUMPI PUSH1 0x40 MLOAD SWAP2 POP PUSH1 0x1F NOT PUSH1 0x3F RETURNDATASIZE ADD AND DUP3 ADD PUSH1 0x40 MSTORE RETURNDATASIZE DUP3 MSTORE RETURNDATASIZE PUSH1 0x0 PUSH1 0x20 DUP5 ADD RETURNDATACOPY PUSH2 0x31A8 JUMP JUMPDEST PUSH1 0x60 SWAP2 POP JUMPDEST POP DUP1 MLOAD PUSH2 0x31C7 JUMPI PUSH1 0x40 MLOAD PUSH3 0x461BCD PUSH1 0xE5 SHL DUP2 MSTORE PUSH1 0x4 ADD PUSH2 0x849 SWAP1 PUSH2 0x4444 JUMP JUMPDEST DUP1 MLOAD DUP2 PUSH1 0x20 ADD REVERT JUMPDEST PUSH1 0x1 PUSH1 0x1 PUSH1 0xE0 SHL SUB NOT AND PUSH4 0xA85BD01 PUSH1 0xE1 SHL EQ SWAP1 POP PUSH2 0x2963 JUMP JUMPDEST POP PUSH1 0x1 SWAP5 SWAP4 POP POP POP POP JUMP JUMPDEST PUSH1 0x60 PUSH1 0x11 DUP1 SLOAD PUSH2 0x75E SWAP1 PUSH2 0x3F54 JUMP JUMPDEST PUSH1 0x60 DUP2 PUSH2 0x3227 JUMPI POP POP PUSH1 0x40 DUP1 MLOAD DUP1 DUP3 ADD SWAP1 SWAP2 MSTORE PUSH1 0x1 DUP2 MSTORE PUSH1 0x3 PUSH1 0xFC SHL PUSH1 0x20 DUP3 ADD MSTORE SWAP1 JUMP JUMPDEST DUP2 PUSH1 0x0 JUMPDEST DUP2 ISZERO PUSH2 0x3251 JUMPI DUP1 PUSH2 0x323B DUP2 PUSH2 0x4571 JUMP JUMPDEST SWAP2 POP PUSH2 0x324A SWAP1 POP PUSH1 0xA DUP4 PUSH2 0x45A2 JUMP JUMPDEST SWAP2 POP PUSH2 0x322B JUMP JUMPDEST PUSH1 0x0 DUP2 PUSH8 0xFFFFFFFFFFFFFFFF DUP2 GT ISZERO PUSH2 0x326C JUMPI PUSH2 0x326C PUSH2 0x3C6A JUMP JUMPDEST PUSH1 0x40 MLOAD SWAP1 DUP1 DUP3 MSTORE DUP1 PUSH1 0x1F ADD PUSH1 0x1F NOT AND PUSH1 0x20 ADD DUP3 ADD PUSH1 0x40 MSTORE DUP1 ISZERO PUSH2 0x3296 JUMPI PUSH1 0x20 DUP3 ADD DUP2 DUP1 CALLDATASIZE DUP4 CALLDATACOPY ADD SWAP1 POP JUMPDEST POP SWAP1 POP JUMPDEST DUP5 ISZERO PUSH2 0x2963 JUMPI PUSH2 0x32AB PUSH1 0x1 DUP4 PUSH2 0x4415 JUMP JUMPDEST SWAP2 POP PUSH2 0x32B8 PUSH1 0xA DUP7 PUSH2 0x45B6 JUMP JUMPDEST PUSH2 0x32C3 SWAP1 PUSH1 0x30 PUSH2 0x442C JUMP JUMPDEST PUSH1 0xF8 SHL DUP2 DUP4 DUP2 MLOAD DUP2 LT PUSH2 0x32D8 JUMPI PUSH2 0x32D8 PUSH2 0x4090 JUMP JUMPDEST PUSH1 0x20 ADD ADD SWAP1 PUSH1 0x1 PUSH1 0x1 PUSH1 0xF8 SHL SUB NOT AND SWAP1 DUP2 PUSH1 0x0 BYTE SWAP1 MSTORE8 POP PUSH2 0x32FA PUSH1 0xA DUP7 PUSH2 0x45A2 JUMP JUMPDEST SWAP5 POP PUSH2 0x329A JUMP JUMPDEST PUSH1 0x0 PUSH1 0x1 PUSH1 0x1 PUSH1 0xE0 SHL SUB NOT DUP3 AND PUSH4 0x5A05180F PUSH1 0xE0 SHL EQ DUP1 PUSH2 0x749 JUMPI POP PUSH2 0x749 DUP3 PUSH2 0x3673 JUMP JUMPDEST PUSH2 0x3331 DUP4 DUP4 DUP4 PUSH2 0x36A8 JUMP JUMPDEST PUSH1 0xD SLOAD PUSH1 0xFF AND ISZERO PUSH2 0x97F JUMPI PUSH1 0x40 MLOAD PUSH3 0x461BCD PUSH1 0xE5 SHL DUP2 MSTORE PUSH1 0x20 PUSH1 0x4 DUP3 ADD MSTORE PUSH1 0x2B PUSH1 0x24 DUP3 ADD MSTORE PUSH32 0x4552433732315061757361626C653A20746F6B656E207472616E736665722077 PUSH1 0x44 DUP3 ADD MSTORE PUSH11 0x1A1A5B19481C185D5CD959 PUSH1 0xAA SHL PUSH1 0x64 DUP3 ADD MSTORE PUSH1 0x84 ADD PUSH2 0x849 JUMP JUMPDEST PUSH1 0x60 PUSH1 0x0 PUSH2 0x33A7 DUP4 PUSH1 0x2 PUSH2 0x45CA JUMP JUMPDEST PUSH2 0x33B2 SWAP1 PUSH1 0x2 PUSH2 0x442C JUMP JUMPDEST PUSH8 0xFFFFFFFFFFFFFFFF DUP2 GT ISZERO PUSH2 0x33CA JUMPI PUSH2 0x33CA PUSH2 0x3C6A JUMP JUMPDEST PUSH1 0x40 MLOAD SWAP1 DUP1 DUP3 MSTORE DUP1 PUSH1 0x1F ADD PUSH1 0x1F NOT AND PUSH1 0x20 ADD DUP3 ADD PUSH1 0x40 MSTORE DUP1 ISZERO PUSH2 0x33F4 JUMPI PUSH1 0x20 DUP3 ADD DUP2 DUP1 CALLDATASIZE DUP4 CALLDATACOPY ADD SWAP1 POP JUMPDEST POP SWAP1 POP PUSH1 0x3 PUSH1 0xFC SHL DUP2 PUSH1 0x0 DUP2 MLOAD DUP2 LT PUSH2 0x340F JUMPI PUSH2 0x340F PUSH2 0x4090 JUMP JUMPDEST PUSH1 0x20 ADD ADD SWAP1 PUSH1 0x1 PUSH1 0x1 PUSH1 0xF8 SHL SUB NOT AND SWAP1 DUP2 PUSH1 0x0 BYTE SWAP1 MSTORE8 POP PUSH1 0xF PUSH1 0xFB SHL DUP2 PUSH1 0x1 DUP2 MLOAD DUP2 LT PUSH2 0x343E JUMPI PUSH2 0x343E PUSH2 0x4090 JUMP JUMPDEST PUSH1 0x20 ADD ADD SWAP1 PUSH1 0x1 PUSH1 0x1 PUSH1 0xF8 SHL SUB NOT AND SWAP1 DUP2 PUSH1 0x0 BYTE SWAP1 MSTORE8 POP PUSH1 0x0 PUSH2 0x3462 DUP5 PUSH1 0x2 PUSH2 0x45CA JUMP JUMPDEST PUSH2 0x346D SWAP1 PUSH1 0x1 PUSH2 0x442C JUMP JUMPDEST SWAP1 POP JUMPDEST PUSH1 0x1 DUP2 GT ISZERO PUSH2 0x34E5 JUMPI PUSH16 0x181899199A1A9B1B9C1CB0B131B232B3 PUSH1 0x81 SHL DUP6 PUSH1 0xF AND PUSH1 0x10 DUP2 LT PUSH2 0x34A1 JUMPI PUSH2 0x34A1 PUSH2 0x4090 JUMP JUMPDEST BYTE PUSH1 0xF8 SHL DUP3 DUP3 DUP2 MLOAD DUP2 LT PUSH2 0x34B7 JUMPI PUSH2 0x34B7 PUSH2 0x4090 JUMP JUMPDEST PUSH1 0x20 ADD ADD SWAP1 PUSH1 0x1 PUSH1 0x1 PUSH1 0xF8 SHL SUB NOT AND SWAP1 DUP2 PUSH1 0x0 BYTE SWAP1 MSTORE8 POP PUSH1 0x4 SWAP5 SWAP1 SWAP5 SHR SWAP4 PUSH2 0x34DE DUP2 PUSH2 0x45E9 JUMP JUMPDEST SWAP1 POP PUSH2 0x3470 JUMP JUMPDEST POP DUP4 ISZERO PUSH2 0x1625 JUMPI PUSH1 0x40 MLOAD PUSH3 0x461BCD PUSH1 0xE5 SHL DUP2 MSTORE PUSH1 0x20 PUSH1 0x4 DUP3 ADD DUP2 SWAP1 MSTORE PUSH1 0x24 DUP3 ADD MSTORE PUSH32 0x537472696E67733A20686578206C656E67746820696E73756666696369656E74 PUSH1 0x44 DUP3 ADD MSTORE PUSH1 0x64 ADD PUSH2 0x849 JUMP JUMPDEST PUSH1 0x1 PUSH1 0x1 PUSH1 0xA0 SHL SUB DUP3 AND PUSH2 0x358A JUMPI PUSH1 0x40 MLOAD PUSH3 0x461BCD PUSH1 0xE5 SHL DUP2 MSTORE PUSH1 0x20 PUSH1 0x4 DUP3 ADD DUP2 SWAP1 MSTORE PUSH1 0x24 DUP3 ADD MSTORE PUSH32 0x4552433732313A206D696E7420746F20746865207A65726F2061646472657373 PUSH1 0x44 DUP3 ADD MSTORE PUSH1 0x64 ADD PUSH2 0x849 JUMP JUMPDEST PUSH2 0x3593 DUP2 PUSH2 0x246C JUMP JUMPDEST ISZERO PUSH2 0x35E0 JUMPI PUSH1 0x40 MLOAD PUSH3 0x461BCD PUSH1 0xE5 SHL DUP2 MSTORE PUSH1 0x20 PUSH1 0x4 DUP3 ADD MSTORE PUSH1 0x1C PUSH1 0x24 DUP3 ADD MSTORE PUSH32 0x4552433732313A20746F6B656E20616C7265616479206D696E74656400000000 PUSH1 0x44 DUP3 ADD MSTORE PUSH1 0x64 ADD PUSH2 0x849 JUMP JUMPDEST PUSH2 0x35EC PUSH1 0x0 DUP4 DUP4 PUSH2 0x2E1A JUMP JUMPDEST PUSH1 0x1 PUSH1 0x1 PUSH1 0xA0 SHL SUB DUP3 AND PUSH1 0x0 SWAP1 DUP2 MSTORE PUSH1 0x6 PUSH1 0x20 MSTORE PUSH1 0x40 DUP2 KECCAK256 DUP1 SLOAD PUSH1 0x1 SWAP3 SWAP1 PUSH2 0x3615 SWAP1 DUP5 SWAP1 PUSH2 0x442C JUMP JUMPDEST SWAP1 SWAP2 SSTORE POP POP PUSH1 0x0 DUP2 DUP2 MSTORE PUSH1 0x5 PUSH1 0x20 MSTORE PUSH1 0x40 DUP1 DUP3 KECCAK256 DUP1 SLOAD PUSH1 0x1 PUSH1 0x1 PUSH1 0xA0 SHL SUB NOT AND PUSH1 0x1 PUSH1 0x1 PUSH1 0xA0 SHL SUB DUP7 AND SWAP1 DUP2 OR SWAP1 SWAP2 SSTORE SWAP1 MLOAD DUP4 SWAP3 SWAP1 PUSH32 0xDDF252AD1BE2C89B69C2B068FC378DAA952BA7F163C4A11628F55A4DF523B3EF SWAP1 DUP3 SWAP1 LOG4 POP POP JUMP JUMPDEST PUSH1 0x0 PUSH1 0x1 PUSH1 0x1 PUSH1 0xE0 SHL SUB NOT DUP3 AND PUSH4 0x7965DB0B PUSH1 0xE0 SHL EQ DUP1 PUSH2 0x749 JUMPI POP PUSH4 0x1FFC9A7 PUSH1 0xE0 SHL PUSH1 0x1 PUSH1 0x1 PUSH1 0xE0 SHL SUB NOT DUP4 AND EQ PUSH2 0x749 JUMP JUMPDEST PUSH1 0x1 PUSH1 0x1 PUSH1 0xA0 SHL SUB DUP4 AND PUSH2 0x3703 JUMPI PUSH2 0x36FE DUP2 PUSH1 0xB DUP1 SLOAD PUSH1 0x0 DUP4 DUP2 MSTORE PUSH1 0xC PUSH1 0x20 MSTORE PUSH1 0x40 DUP2 KECCAK256 DUP3 SWAP1 SSTORE PUSH1 0x1 DUP3 ADD DUP4 SSTORE SWAP2 SWAP1 SWAP2 MSTORE PUSH32 0x175B7A638427703F0DBE7BB9BBF987A2551717B34E79F33B5B1008D1FA01DB9 ADD SSTORE JUMP JUMPDEST PUSH2 0x3726 JUMP JUMPDEST DUP2 PUSH1 0x1 PUSH1 0x1 PUSH1 0xA0 SHL SUB AND DUP4 PUSH1 0x1 PUSH1 0x1 PUSH1 0xA0 SHL SUB AND EQ PUSH2 0x3726 JUMPI PUSH2 0x3726 DUP4 DUP3 PUSH2 0x3760 JUMP JUMPDEST PUSH1 0x1 PUSH1 0x1 PUSH1 0xA0 SHL SUB DUP3 AND PUSH2 0x373D JUMPI PUSH2 0x97F DUP2 PUSH2 0x37FD JUMP JUMPDEST DUP3 PUSH1 0x1 PUSH1 0x1 PUSH1 0xA0 SHL SUB AND DUP3 PUSH1 0x1 PUSH1 0x1 PUSH1 0xA0 SHL SUB AND EQ PUSH2 0x97F JUMPI PUSH2 0x97F DUP3 DUP3 PUSH2 0x38AC JUMP JUMPDEST PUSH1 0x0 PUSH1 0x1 PUSH2 0x376D DUP5 PUSH2 0x1112 JUMP JUMPDEST PUSH2 0x3777 SWAP2 SWAP1 PUSH2 0x4415 JUMP JUMPDEST PUSH1 0x0 DUP4 DUP2 MSTORE PUSH1 0xA PUSH1 0x20 MSTORE PUSH1 0x40 SWAP1 KECCAK256 SLOAD SWAP1 SWAP2 POP DUP1 DUP3 EQ PUSH2 0x37CA JUMPI PUSH1 0x1 PUSH1 0x1 PUSH1 0xA0 SHL SUB DUP5 AND PUSH1 0x0 SWAP1 DUP2 MSTORE PUSH1 0x9 PUSH1 0x20 SWAP1 DUP2 MSTORE PUSH1 0x40 DUP1 DUP4 KECCAK256 DUP6 DUP5 MSTORE DUP3 MSTORE DUP1 DUP4 KECCAK256 SLOAD DUP5 DUP5 MSTORE DUP2 DUP5 KECCAK256 DUP2 SWAP1 SSTORE DUP4 MSTORE PUSH1 0xA SWAP1 SWAP2 MSTORE SWAP1 KECCAK256 DUP2 SWAP1 SSTORE JUMPDEST POP PUSH1 0x0 SWAP2 DUP3 MSTORE PUSH1 0xA PUSH1 0x20 SWAP1 DUP2 MSTORE PUSH1 0x40 DUP1 DUP5 KECCAK256 DUP5 SWAP1 SSTORE PUSH1 0x1 PUSH1 0x1 PUSH1 0xA0 SHL SUB SWAP1 SWAP5 AND DUP4 MSTORE PUSH1 0x9 DUP2 MSTORE DUP4 DUP4 KECCAK256 SWAP2 DUP4 MSTORE MSTORE SWAP1 DUP2 KECCAK256 SSTORE JUMP JUMPDEST PUSH1 0xB SLOAD PUSH1 0x0 SWAP1 PUSH2 0x380F SWAP1 PUSH1 0x1 SWAP1 PUSH2 0x4415 JUMP JUMPDEST PUSH1 0x0 DUP4 DUP2 MSTORE PUSH1 0xC PUSH1 0x20 MSTORE PUSH1 0x40 DUP2 KECCAK256 SLOAD PUSH1 0xB DUP1 SLOAD SWAP4 SWAP5 POP SWAP1 SWAP3 DUP5 SWAP1 DUP2 LT PUSH2 0x3837 JUMPI PUSH2 0x3837 PUSH2 0x4090 JUMP JUMPDEST SWAP1 PUSH1 0x0 MSTORE PUSH1 0x20 PUSH1 0x0 KECCAK256 ADD SLOAD SWAP1 POP DUP1 PUSH1 0xB DUP4 DUP2 SLOAD DUP2 LT PUSH2 0x3858 JUMPI PUSH2 0x3858 PUSH2 0x4090 JUMP JUMPDEST PUSH1 0x0 SWAP2 DUP3 MSTORE PUSH1 0x20 DUP1 DUP4 KECCAK256 SWAP1 SWAP2 ADD SWAP3 SWAP1 SWAP3 SSTORE DUP3 DUP2 MSTORE PUSH1 0xC SWAP1 SWAP2 MSTORE PUSH1 0x40 DUP1 DUP3 KECCAK256 DUP5 SWAP1 SSTORE DUP6 DUP3 MSTORE DUP2 KECCAK256 SSTORE PUSH1 0xB DUP1 SLOAD DUP1 PUSH2 0x3890 JUMPI PUSH2 0x3890 PUSH2 0x450B JUMP JUMPDEST PUSH1 0x1 SWAP1 SUB DUP2 DUP2 SWAP1 PUSH1 0x0 MSTORE PUSH1 0x20 PUSH1 0x0 KECCAK256 ADD PUSH1 0x0 SWAP1 SSTORE SWAP1 SSTORE POP POP POP POP JUMP JUMPDEST PUSH1 0x0 PUSH2 0x38B7 DUP4 PUSH2 0x1112 JUMP JUMPDEST PUSH1 0x1 PUSH1 0x1 PUSH1 0xA0 SHL SUB SWAP1 SWAP4 AND PUSH1 0x0 SWAP1 DUP2 MSTORE PUSH1 0x9 PUSH1 0x20 SWAP1 DUP2 MSTORE PUSH1 0x40 DUP1 DUP4 KECCAK256 DUP7 DUP5 MSTORE DUP3 MSTORE DUP1 DUP4 KECCAK256 DUP6 SWAP1 SSTORE SWAP4 DUP3 MSTORE PUSH1 0xA SWAP1 MSTORE SWAP2 SWAP1 SWAP2 KECCAK256 SWAP2 SWAP1 SWAP2 SSTORE POP JUMP JUMPDEST DUP3 DUP1 SLOAD PUSH2 0x38FC SWAP1 PUSH2 0x3F54 JUMP JUMPDEST SWAP1 PUSH1 0x0 MSTORE PUSH1 0x20 PUSH1 0x0 KECCAK256 SWAP1 PUSH1 0x1F ADD PUSH1 0x20 SWAP1 DIV DUP2 ADD SWAP3 DUP3 PUSH2 0x391E JUMPI PUSH1 0x0 DUP6 SSTORE PUSH2 0x3964 JUMP JUMPDEST DUP3 PUSH1 0x1F LT PUSH2 0x3937 JUMPI DUP3 DUP1 ADD PUSH1 0xFF NOT DUP3 CALLDATALOAD AND OR DUP6 SSTORE PUSH2 0x3964 JUMP JUMPDEST DUP3 DUP1 ADD PUSH1 0x1 ADD DUP6 SSTORE DUP3 ISZERO PUSH2 0x3964 JUMPI SWAP2 DUP3 ADD JUMPDEST DUP3 DUP2 GT ISZERO PUSH2 0x3964 JUMPI DUP3 CALLDATALOAD DUP3 SSTORE SWAP2 PUSH1 0x20 ADD SWAP2 SWAP1 PUSH1 0x1 ADD SWAP1 PUSH2 0x3949 JUMP JUMPDEST POP PUSH2 0x3970 SWAP3 SWAP2 POP PUSH2 0x3A22 JUMP JUMPDEST POP SWAP1 JUMP JUMPDEST POP DUP1 SLOAD PUSH2 0x3980 SWAP1 PUSH2 0x3F54 JUMP JUMPDEST PUSH1 0x0 DUP3 SSTORE DUP1 PUSH1 0x1F LT PUSH2 0x3990 JUMPI POP POP JUMP JUMPDEST PUSH1 0x1F ADD PUSH1 0x20 SWAP1 DIV SWAP1 PUSH1 0x0 MSTORE PUSH1 0x20 PUSH1 0x0 KECCAK256 SWAP1 DUP2 ADD SWAP1 PUSH2 0xECD SWAP2 SWAP1 PUSH2 0x3A22 JUMP JUMPDEST DUP3 DUP1 SLOAD PUSH2 0x39BA SWAP1 PUSH2 0x3F54 JUMP JUMPDEST SWAP1 PUSH1 0x0 MSTORE PUSH1 0x20 PUSH1 0x0 KECCAK256 SWAP1 PUSH1 0x1F ADD PUSH1 0x20 SWAP1 DIV DUP2 ADD SWAP3 DUP3 PUSH2 0x39DC JUMPI PUSH1 0x0 DUP6 SSTORE PUSH2 0x3964 JUMP JUMPDEST DUP3 PUSH1 0x1F LT PUSH2 0x39F5 JUMPI DUP1 MLOAD PUSH1 0xFF NOT AND DUP4 DUP1 ADD OR DUP6 SSTORE PUSH2 0x3964 JUMP JUMPDEST DUP3 DUP1 ADD PUSH1 0x1 ADD DUP6 SSTORE DUP3 ISZERO PUSH2 0x3964 JUMPI SWAP2 DUP3 ADD JUMPDEST DUP3 DUP2 GT ISZERO PUSH2 0x3964 JUMPI DUP3 MLOAD DUP3 SSTORE SWAP2 PUSH1 0x20 ADD SWAP2 SWAP1 PUSH1 0x1 ADD SWAP1 PUSH2 0x3A07 JUMP JUMPDEST JUMPDEST DUP1 DUP3 GT ISZERO PUSH2 0x3970 JUMPI PUSH1 0x0 DUP2 SSTORE PUSH1 0x1 ADD PUSH2 0x3A23 JUMP JUMPDEST PUSH1 0x0 PUSH1 0x20 DUP3 DUP5 SUB SLT ISZERO PUSH2 0x3A49 JUMPI PUSH1 0x0 DUP1 REVERT JUMPDEST POP CALLDATALOAD SWAP2 SWAP1 POP JUMP JUMPDEST PUSH1 0x1 PUSH1 0x1 PUSH1 0xE0 SHL SUB NOT DUP2 AND DUP2 EQ PUSH2 0xECD JUMPI PUSH1 0x0 DUP1 REVERT JUMPDEST PUSH1 0x0 PUSH1 0x20 DUP3 DUP5 SUB SLT ISZERO PUSH2 0x3A78 JUMPI PUSH1 0x0 DUP1 REVERT JUMPDEST DUP2 CALLDATALOAD PUSH2 0x1625 DUP2 PUSH2 0x3A50 JUMP JUMPDEST PUSH1 0x0 JUMPDEST DUP4 DUP2 LT ISZERO PUSH2 0x3A9E JUMPI DUP2 DUP2 ADD MLOAD DUP4 DUP3 ADD MSTORE PUSH1 0x20 ADD PUSH2 0x3A86 JUMP JUMPDEST DUP4 DUP2 GT ISZERO PUSH2 0xDB4 JUMPI POP POP PUSH1 0x0 SWAP2 ADD MSTORE JUMP JUMPDEST PUSH1 0x0 DUP2 MLOAD DUP1 DUP5 MSTORE PUSH2 0x3AC7 DUP2 PUSH1 0x20 DUP7 ADD PUSH1 0x20 DUP7 ADD PUSH2 0x3A83 JUMP JUMPDEST PUSH1 0x1F ADD PUSH1 0x1F NOT AND SWAP3 SWAP1 SWAP3 ADD PUSH1 0x20 ADD SWAP3 SWAP2 POP POP JUMP JUMPDEST PUSH1 0x20 DUP2 MSTORE PUSH1 0x0 PUSH2 0x1625 PUSH1 0x20 DUP4 ADD DUP5 PUSH2 0x3AAF JUMP JUMPDEST PUSH1 0x1 PUSH1 0x1 PUSH1 0xA0 SHL SUB DUP2 AND DUP2 EQ PUSH2 0xECD JUMPI PUSH1 0x0 DUP1 REVERT JUMPDEST PUSH1 0x0 DUP1 PUSH1 0x40 DUP4 DUP6 SUB SLT ISZERO PUSH2 0x3B16 JUMPI PUSH1 0x0 DUP1 REVERT JUMPDEST DUP3 CALLDATALOAD PUSH2 0x3B21 DUP2 PUSH2 0x3AEE JUMP JUMPDEST SWAP5 PUSH1 0x20 SWAP4 SWAP1 SWAP4 ADD CALLDATALOAD SWAP4 POP POP POP JUMP JUMPDEST PUSH1 0x0 DUP1 PUSH1 0x0 PUSH1 0x60 DUP5 DUP7 SUB SLT ISZERO PUSH2 0x3B44 JUMPI PUSH1 0x0 DUP1 REVERT JUMPDEST DUP4 CALLDATALOAD PUSH2 0x3B4F DUP2 PUSH2 0x3AEE JUMP JUMPDEST SWAP3 POP PUSH1 0x20 DUP5 ADD CALLDATALOAD PUSH2 0x3B5F DUP2 PUSH2 0x3AEE JUMP JUMPDEST SWAP3 SWAP6 SWAP3 SWAP5 POP POP POP PUSH1 0x40 SWAP2 SWAP1 SWAP2 ADD CALLDATALOAD SWAP1 JUMP JUMPDEST PUSH1 0x0 DUP1 PUSH1 0x40 DUP4 DUP6 SUB SLT ISZERO PUSH2 0x3B83 JUMPI PUSH1 0x0 DUP1 REVERT JUMPDEST DUP3 CALLDATALOAD SWAP2 POP PUSH1 0x20 DUP4 ADD CALLDATALOAD PUSH2 0x3B95 DUP2 PUSH2 0x3AEE JUMP JUMPDEST DUP1 SWAP2 POP POP SWAP3 POP SWAP3 SWAP1 POP JUMP JUMPDEST PUSH1 0xFF DUP2 AND DUP2 EQ PUSH2 0xECD JUMPI PUSH1 0x0 DUP1 REVERT JUMPDEST PUSH1 0x0 DUP1 DUP4 PUSH1 0x1F DUP5 ADD SLT PUSH2 0x3BC1 JUMPI PUSH1 0x0 DUP1 REVERT JUMPDEST POP DUP2 CALLDATALOAD PUSH8 0xFFFFFFFFFFFFFFFF DUP2 GT ISZERO PUSH2 0x3BD9 JUMPI PUSH1 0x0 DUP1 REVERT JUMPDEST PUSH1 0x20 DUP4 ADD SWAP2 POP DUP4 PUSH1 0x20 DUP3 DUP6 ADD ADD GT ISZERO PUSH2 0x3BF1 JUMPI PUSH1 0x0 DUP1 REVERT JUMPDEST SWAP3 POP SWAP3 SWAP1 POP JUMP JUMPDEST PUSH1 0x0 DUP1 PUSH1 0x0 PUSH1 0x40 DUP5 DUP7 SUB SLT ISZERO PUSH2 0x3C0D JUMPI PUSH1 0x0 DUP1 REVERT JUMPDEST DUP4 CALLDATALOAD PUSH2 0x3C18 DUP2 PUSH2 0x3BA0 JUMP JUMPDEST SWAP3 POP PUSH1 0x20 DUP5 ADD CALLDATALOAD PUSH8 0xFFFFFFFFFFFFFFFF DUP2 GT ISZERO PUSH2 0x3C34 JUMPI PUSH1 0x0 DUP1 REVERT JUMPDEST PUSH2 0x3C40 DUP7 DUP3 DUP8 ADD PUSH2 0x3BAF JUMP JUMPDEST SWAP5 SWAP8 SWAP1 SWAP7 POP SWAP4 SWAP5 POP POP POP POP JUMP JUMPDEST PUSH1 0x0 PUSH1 0x20 DUP3 DUP5 SUB SLT ISZERO PUSH2 0x3C5F JUMPI PUSH1 0x0 DUP1 REVERT JUMPDEST DUP2 CALLDATALOAD PUSH2 0x1625 DUP2 PUSH2 0x3AEE JUMP JUMPDEST PUSH4 0x4E487B71 PUSH1 0xE0 SHL PUSH1 0x0 MSTORE PUSH1 0x41 PUSH1 0x4 MSTORE PUSH1 0x24 PUSH1 0x0 REVERT JUMPDEST PUSH1 0x40 MLOAD PUSH2 0x140 DUP2 ADD PUSH8 0xFFFFFFFFFFFFFFFF DUP2 GT DUP3 DUP3 LT OR ISZERO PUSH2 0x3CA4 JUMPI PUSH2 0x3CA4 PUSH2 0x3C6A JUMP JUMPDEST PUSH1 0x40 MSTORE SWAP1 JUMP JUMPDEST PUSH1 0x40 MLOAD PUSH2 0x180 DUP2 ADD PUSH8 0xFFFFFFFFFFFFFFFF DUP2 GT DUP3 DUP3 LT OR ISZERO PUSH2 0x3CA4 JUMPI PUSH2 0x3CA4 PUSH2 0x3C6A JUMP JUMPDEST PUSH1 0x40 MLOAD PUSH1 0x1F DUP3 ADD PUSH1 0x1F NOT AND DUP2 ADD PUSH8 0xFFFFFFFFFFFFFFFF DUP2 GT DUP3 DUP3 LT OR ISZERO PUSH2 0x3CF7 JUMPI PUSH2 0x3CF7 PUSH2 0x3C6A JUMP JUMPDEST PUSH1 0x40 MSTORE SWAP2 SWAP1 POP JUMP JUMPDEST PUSH1 0x0 PUSH8 0xFFFFFFFFFFFFFFFF DUP3 GT ISZERO PUSH2 0x3D19 JUMPI PUSH2 0x3D19 PUSH2 0x3C6A JUMP JUMPDEST POP PUSH1 0x1F ADD PUSH1 0x1F NOT AND PUSH1 0x20 ADD SWAP1 JUMP JUMPDEST PUSH1 0x0 PUSH2 0x3D3A PUSH2 0x3D35 DUP5 PUSH2 0x3CFF JUMP JUMPDEST PUSH2 0x3CCE JUMP JUMPDEST SWAP1 POP DUP3 DUP2 MSTORE DUP4 DUP4 DUP4 ADD GT ISZERO PUSH2 0x3D4E JUMPI PUSH1 0x0 DUP1 REVERT JUMPDEST DUP3 DUP3 PUSH1 0x20 DUP4 ADD CALLDATACOPY PUSH1 0x0 PUSH1 0x20 DUP5 DUP4 ADD ADD MSTORE SWAP4 SWAP3 POP POP POP JUMP JUMPDEST PUSH1 0x0 DUP1 PUSH1 0x0 PUSH1 0x60 DUP5 DUP7 SUB SLT ISZERO PUSH2 0x3D7A JUMPI PUSH1 0x0 DUP1 REVERT JUMPDEST DUP4 CALLDATALOAD PUSH2 0x3D85 DUP2 PUSH2 0x3AEE JUMP JUMPDEST SWAP3 POP PUSH1 0x20 DUP5 ADD CALLDATALOAD SWAP2 POP PUSH1 0x40 DUP5 ADD CALLDATALOAD PUSH8 0xFFFFFFFFFFFFFFFF DUP2 GT ISZERO PUSH2 0x3DA8 JUMPI PUSH1 0x0 DUP1 REVERT JUMPDEST DUP5 ADD PUSH1 0x1F DUP2 ADD DUP7 SGT PUSH2 0x3DB9 JUMPI PUSH1 0x0 DUP1 REVERT JUMPDEST PUSH2 0x3DC8 DUP7 DUP3 CALLDATALOAD PUSH1 0x20 DUP5 ADD PUSH2 0x3D27 JUMP JUMPDEST SWAP2 POP POP SWAP3 POP SWAP3 POP SWAP3 JUMP JUMPDEST PUSH1 0x0 DUP1 PUSH1 0x0 PUSH1 0x40 DUP5 DUP7 SUB SLT ISZERO PUSH2 0x3DE7 JUMPI PUSH1 0x0 DUP1 REVERT JUMPDEST DUP4 CALLDATALOAD SWAP3 POP PUSH1 0x20 DUP5 ADD CALLDATALOAD PUSH8 0xFFFFFFFFFFFFFFFF DUP2 GT ISZERO PUSH2 0x3C34 JUMPI PUSH1 0x0 DUP1 REVERT JUMPDEST PUSH1 0x0 DUP1 PUSH1 0x40 DUP4 DUP6 SUB SLT ISZERO PUSH2 0x3E18 JUMPI PUSH1 0x0 DUP1 REVERT JUMPDEST POP POP DUP1 CALLDATALOAD SWAP3 PUSH1 0x20 SWAP1 SWAP2 ADD CALLDATALOAD SWAP2 POP JUMP JUMPDEST PUSH1 0x0 DUP1 PUSH1 0x40 DUP4 DUP6 SUB SLT ISZERO PUSH2 0x3E3A JUMPI PUSH1 0x0 DUP1 REVERT JUMPDEST DUP3 CALLDATALOAD PUSH2 0x3E45 DUP2 PUSH2 0x3AEE JUMP JUMPDEST SWAP2 POP PUSH1 0x20 DUP4 ADD CALLDATALOAD DUP1 ISZERO ISZERO DUP2 EQ PUSH2 0x3B95 JUMPI PUSH1 0x0 DUP1 REVERT JUMPDEST PUSH1 0x0 DUP1 PUSH1 0x0 DUP1 PUSH1 0x80 DUP6 DUP8 SUB SLT ISZERO PUSH2 0x3E70 JUMPI PUSH1 0x0 DUP1 REVERT JUMPDEST DUP5 CALLDATALOAD PUSH2 0x3E7B DUP2 PUSH2 0x3AEE JUMP JUMPDEST SWAP4 POP PUSH1 0x20 DUP6 ADD CALLDATALOAD PUSH2 0x3E8B DUP2 PUSH2 0x3AEE JUMP JUMPDEST SWAP3 POP PUSH1 0x40 DUP6 ADD CALLDATALOAD SWAP2 POP PUSH1 0x60 DUP6 ADD CALLDATALOAD PUSH8 0xFFFFFFFFFFFFFFFF DUP2 GT ISZERO PUSH2 0x3EAE JUMPI PUSH1 0x0 DUP1 REVERT JUMPDEST DUP6 ADD PUSH1 0x1F DUP2 ADD DUP8 SGT PUSH2 0x3EBF JUMPI PUSH1 0x0 DUP1 REVERT JUMPDEST PUSH2 0x3ECE DUP8 DUP3 CALLDATALOAD PUSH1 0x20 DUP5 ADD PUSH2 0x3D27 JUMP JUMPDEST SWAP2 POP POP SWAP3 SWAP6 SWAP2 SWAP5 POP SWAP3 POP JUMP JUMPDEST PUSH4 0xFFFFFFFF DUP2 AND DUP2 EQ PUSH2 0xECD JUMPI PUSH1 0x0 DUP1 REVERT JUMPDEST PUSH1 0x0 PUSH1 0x20 DUP3 DUP5 SUB SLT ISZERO PUSH2 0x3EFE JUMPI PUSH1 0x0 DUP1 REVERT JUMPDEST DUP2 CALLDATALOAD PUSH2 0x1625 DUP2 PUSH2 0x3EDA JUMP JUMPDEST PUSH1 0x0 PUSH1 0x20 DUP3 DUP5 SUB SLT ISZERO PUSH2 0x3F1B JUMPI PUSH1 0x0 DUP1 REVERT JUMPDEST DUP2 CALLDATALOAD PUSH2 0x1625 DUP2 PUSH2 0x3BA0 JUMP JUMPDEST PUSH1 0x0 DUP1 PUSH1 0x40 DUP4 DUP6 SUB SLT ISZERO PUSH2 0x3F39 JUMPI PUSH1 0x0 DUP1 REVERT JUMPDEST DUP3 CALLDATALOAD PUSH2 0x3F44 DUP2 PUSH2 0x3AEE JUMP JUMPDEST SWAP2 POP PUSH1 0x20 DUP4 ADD CALLDATALOAD PUSH2 0x3B95 DUP2 PUSH2 0x3AEE JUMP JUMPDEST PUSH1 0x1 DUP2 DUP2 SHR SWAP1 DUP3 AND DUP1 PUSH2 0x3F68 JUMPI PUSH1 0x7F DUP3 AND SWAP2 POP JUMPDEST PUSH1 0x20 DUP3 LT DUP2 EQ ISZERO PUSH2 0x3F89 JUMPI PUSH4 0x4E487B71 PUSH1 0xE0 SHL PUSH1 0x0 MSTORE PUSH1 0x22 PUSH1 0x4 MSTORE PUSH1 0x24 PUSH1 0x0 REVERT JUMPDEST POP SWAP2 SWAP1 POP JUMP JUMPDEST PUSH1 0x20 DUP1 DUP3 MSTORE PUSH1 0x1F SWAP1 DUP3 ADD MSTORE PUSH32 0x5265656E7472616E637947756172643A207265656E7472616E742063616C6C00 PUSH1 0x40 DUP3 ADD MSTORE PUSH1 0x60 ADD SWAP1 JUMP JUMPDEST PUSH1 0x20 DUP1 DUP3 MSTORE PUSH1 0x27 SWAP1 DUP3 ADD MSTORE PUSH32 0x41543A4D4F442D4954413A4D757374206861766520545255535445445F414745 PUSH1 0x40 DUP3 ADD MSTORE PUSH7 0x4E545F524F4C45 PUSH1 0xC8 SHL PUSH1 0x60 DUP3 ADD MSTORE PUSH1 0x80 ADD SWAP1 JUMP JUMPDEST PUSH1 0x20 DUP1 DUP3 MSTORE PUSH1 0x5D SWAP1 DUP3 ADD MSTORE PUSH32 0x41543A4D4F442D4954413A54727573746564204167656E742066756E6374696F PUSH1 0x40 DUP3 ADD MSTORE PUSH32 0x6E207065726D616E656E746C792064697361626C6564202D2075736520616C6C PUSH1 0x60 DUP3 ADD MSTORE PUSH32 0x6F77616E6365202F207472616E7366657246726F6D207061747465726E000000 PUSH1 0x80 DUP3 ADD MSTORE PUSH1 0xA0 ADD SWAP1 JUMP JUMPDEST PUSH4 0x4E487B71 PUSH1 0xE0 SHL PUSH1 0x0 MSTORE PUSH1 0x32 PUSH1 0x4 MSTORE PUSH1 0x24 PUSH1 0x0 REVERT JUMPDEST PUSH1 0x20 DUP1 DUP3 MSTORE PUSH1 0x10 SWAP1 DUP3 ADD MSTORE PUSH16 0x14185D5CD8589B194E881C185D5CD959 PUSH1 0x82 SHL PUSH1 0x40 DUP3 ADD MSTORE PUSH1 0x60 ADD SWAP1 JUMP JUMPDEST DUP1 MLOAD PUSH2 0x739 DUP2 PUSH2 0x3AEE JUMP JUMPDEST PUSH1 0x0 PUSH1 0x20 DUP3 DUP5 SUB SLT ISZERO PUSH2 0x40ED JUMPI PUSH1 0x0 DUP1 REVERT JUMPDEST DUP2 MLOAD PUSH2 0x1625 DUP2 PUSH2 0x3AEE JUMP JUMPDEST DUP1 MLOAD PUSH2 0x739 DUP2 PUSH2 0x3BA0 JUMP JUMPDEST PUSH1 0x0 PUSH1 0x20 DUP3 DUP5 SUB SLT ISZERO PUSH2 0x4115 JUMPI PUSH1 0x0 DUP1 REVERT JUMPDEST DUP2 MLOAD PUSH2 0x1625 DUP2 PUSH2 0x3BA0 JUMP JUMPDEST PUSH1 0x0 DUP1 PUSH1 0x40 DUP4 DUP6 SUB SLT ISZERO PUSH2 0x4133 JUMPI PUSH1 0x0 DUP1 REVERT JUMPDEST DUP3 MLOAD PUSH2 0x413E DUP2 PUSH2 0x3BA0 JUMP JUMPDEST PUSH1 0x20 SWAP4 SWAP1 SWAP4 ADD MLOAD SWAP3 SWAP5 SWAP3 SWAP4 POP POP POP JUMP JUMPDEST DUP1 MLOAD PUSH2 0x739 DUP2 PUSH2 0x3EDA JUMP JUMPDEST PUSH1 0x0 DUP3 PUSH1 0x1F DUP4 ADD SLT PUSH2 0x416A JUMPI PUSH1 0x0 DUP1 REVERT JUMPDEST DUP2 MLOAD PUSH2 0x4178 PUSH2 0x3D35 DUP3 PUSH2 0x3CFF JUMP JUMPDEST DUP2 DUP2 MSTORE DUP5 PUSH1 0x20 DUP4 DUP7 ADD ADD GT ISZERO PUSH2 0x418D JUMPI PUSH1 0x0 DUP1 REVERT JUMPDEST PUSH2 0x2963 DUP3 PUSH1 0x20 DUP4 ADD PUSH1 0x20 DUP8 ADD PUSH2 0x3A83 JUMP JUMPDEST PUSH1 0x0 PUSH1 0x20 DUP3 DUP5 SUB SLT ISZERO PUSH2 0x41B0 JUMPI PUSH1 0x0 DUP1 REVERT JUMPDEST DUP2 MLOAD PUSH8 0xFFFFFFFFFFFFFFFF DUP1 DUP3 GT ISZERO PUSH2 0x41C8 JUMPI PUSH1 0x0 DUP1 REVERT JUMPDEST SWAP1 DUP4 ADD SWAP1 PUSH2 0x140 DUP3 DUP7 SUB SLT ISZERO PUSH2 0x41DD JUMPI PUSH1 0x0 DUP1 REVERT JUMPDEST PUSH2 0x41E5 PUSH2 0x3C80 JUMP JUMPDEST PUSH2 0x41EE DUP4 PUSH2 0x40F8 JUMP JUMPDEST DUP2 MSTORE PUSH2 0x41FC PUSH1 0x20 DUP5 ADD PUSH2 0x40F8 JUMP JUMPDEST PUSH1 0x20 DUP3 ADD MSTORE PUSH2 0x420D PUSH1 0x40 DUP5 ADD PUSH2 0x40F8 JUMP JUMPDEST PUSH1 0x40 DUP3 ADD MSTORE PUSH2 0x421E PUSH1 0x60 DUP5 ADD PUSH2 0x40F8 JUMP JUMPDEST PUSH1 0x60 DUP3 ADD MSTORE PUSH2 0x422F PUSH1 0x80 DUP5 ADD PUSH2 0x414E JUMP JUMPDEST PUSH1 0x80 DUP3 ADD MSTORE PUSH2 0x4240 PUSH1 0xA0 DUP5 ADD PUSH2 0x414E JUMP JUMPDEST PUSH1 0xA0 DUP3 ADD MSTORE PUSH2 0x4251 PUSH1 0xC0 DUP5 ADD PUSH2 0x40D0 JUMP JUMPDEST PUSH1 0xC0 DUP3 ADD MSTORE PUSH1 0xE0 DUP4 ADD MLOAD PUSH1 0xE0 DUP3 ADD MSTORE PUSH2 0x100 DUP1 DUP5 ADD MLOAD DUP2 DUP4 ADD MSTORE POP PUSH2 0x120 DUP1 DUP5 ADD MLOAD DUP4 DUP2 GT ISZERO PUSH2 0x4280 JUMPI PUSH1 0x0 DUP1 REVERT JUMPDEST PUSH2 0x428C DUP9 DUP3 DUP8 ADD PUSH2 0x4159 JUMP JUMPDEST SWAP2 DUP4 ADD SWAP2 SWAP1 SWAP2 MSTORE POP SWAP6 SWAP5 POP POP POP POP POP JUMP JUMPDEST PUSH1 0x0 DUP4 MLOAD PUSH2 0x42AF DUP2 DUP5 PUSH1 0x20 DUP9 ADD PUSH2 0x3A83 JUMP JUMPDEST DUP4 MLOAD SWAP1 DUP4 ADD SWAP1 PUSH2 0x42C3 DUP2 DUP4 PUSH1 0x20 DUP9 ADD PUSH2 0x3A83 JUMP JUMPDEST ADD SWAP5 SWAP4 POP POP POP POP JUMP JUMPDEST PUSH1 0x20 DUP1 DUP3 MSTORE PUSH1 0x3E SWAP1 DUP3 ADD MSTORE PUSH32 0x41543A4D4F442D4943413A43616C6C696E67206164647265737320646F657320 PUSH1 0x40 DUP3 ADD MSTORE PUSH32 0x6E6F742062656C6F6E6720746F206120636F6E74726163742061646D696E0000 PUSH1 0x60 DUP3 ADD MSTORE PUSH1 0x80 ADD SWAP1 JUMP JUMPDEST DUP1 MLOAD PUSH2 0xFFFF DUP2 AND DUP2 EQ PUSH2 0x739 JUMPI PUSH1 0x0 DUP1 REVERT JUMPDEST PUSH1 0x0 PUSH2 0x180 DUP3 DUP5 SUB SLT ISZERO PUSH2 0x434E JUMPI PUSH1 0x0 DUP1 REVERT JUMPDEST PUSH2 0x4356 PUSH2 0x3CAA JUMP JUMPDEST PUSH2 0x435F DUP4 PUSH2 0x40F8 JUMP JUMPDEST DUP2 MSTORE PUSH2 0x436D PUSH1 0x20 DUP5 ADD PUSH2 0x40F8 JUMP JUMPDEST PUSH1 0x20 DUP3 ADD MSTORE PUSH2 0x437E PUSH1 0x40 DUP5 ADD PUSH2 0x4329 JUMP JUMPDEST PUSH1 0x40 DUP3 ADD MSTORE PUSH2 0x438F PUSH1 0x60 DUP5 ADD PUSH2 0x414E JUMP JUMPDEST PUSH1 0x60 DUP3 ADD MSTORE PUSH2 0x43A0 PUSH1 0x80 DUP5 ADD PUSH2 0x414E JUMP JUMPDEST PUSH1 0x80 DUP3 ADD MSTORE PUSH2 0x43B1 PUSH1 0xA0 DUP5 ADD PUSH2 0x414E JUMP JUMPDEST PUSH1 0xA0 DUP3 ADD MSTORE PUSH1 0xC0 DUP4 DUP2 ADD MLOAD SWAP1 DUP3 ADD MSTORE PUSH1 0xE0 DUP1 DUP5 ADD MLOAD SWAP1 DUP3 ADD MSTORE PUSH2 0x100 DUP1 DUP5 ADD MLOAD SWAP1 DUP3 ADD MSTORE PUSH2 0x120 DUP1 DUP5 ADD MLOAD SWAP1 DUP3 ADD MSTORE PUSH2 0x140 DUP1 DUP5 ADD MLOAD SWAP1 DUP3 ADD MSTORE PUSH2 0x160 SWAP3 DUP4 ADD MLOAD SWAP3 DUP2 ADD SWAP3 SWAP1 SWAP3 MSTORE POP SWAP2 SWAP1 POP JUMP JUMPDEST PUSH4 0x4E487B71 PUSH1 0xE0 SHL PUSH1 0x0 MSTORE PUSH1 0x11 PUSH1 0x4 MSTORE PUSH1 0x24 PUSH1 0x0 REVERT JUMPDEST PUSH1 0x0 DUP3 DUP3 LT ISZERO PUSH2 0x4427 JUMPI PUSH2 0x4427 PUSH2 0x43FF JUMP JUMPDEST POP SUB SWAP1 JUMP JUMPDEST PUSH1 0x0 DUP3 NOT DUP3 GT ISZERO PUSH2 0x443F JUMPI PUSH2 0x443F PUSH2 0x43FF JUMP JUMPDEST POP ADD SWAP1 JUMP JUMPDEST PUSH1 0x20 DUP1 DUP3 MSTORE PUSH1 0x32 SWAP1 DUP3 ADD MSTORE PUSH32 0x4552433732313A207472616E7366657220746F206E6F6E204552433732315265 PUSH1 0x40 DUP3 ADD MSTORE PUSH18 0x31B2B4BB32B91034B6B83632B6B2B73A32B9 PUSH1 0x71 SHL PUSH1 0x60 DUP3 ADD MSTORE PUSH1 0x80 ADD SWAP1 JUMP JUMPDEST PUSH32 0x416363657373436F6E74726F6C3A206163636F756E7420000000000000000000 DUP2 MSTORE PUSH1 0x0 DUP4 MLOAD PUSH2 0x44CE DUP2 PUSH1 0x17 DUP6 ADD PUSH1 0x20 DUP9 ADD PUSH2 0x3A83 JUMP JUMPDEST PUSH17 0x1034B99036B4B9B9B4B733903937B6329 PUSH1 0x7D SHL PUSH1 0x17 SWAP2 DUP5 ADD SWAP2 DUP3 ADD MSTORE DUP4 MLOAD PUSH2 0x44FF DUP2 PUSH1 0x28 DUP5 ADD PUSH1 0x20 DUP9 ADD PUSH2 0x3A83 JUMP JUMPDEST ADD PUSH1 0x28 ADD SWAP5 SWAP4 POP POP POP POP JUMP JUMPDEST PUSH4 0x4E487B71 PUSH1 0xE0 SHL PUSH1 0x0 MSTORE PUSH1 0x31 PUSH1 0x4 MSTORE PUSH1 0x24 PUSH1 0x0 REVERT JUMPDEST PUSH1 0x1 PUSH1 0x1 PUSH1 0xA0 SHL SUB DUP6 DUP2 AND DUP3 MSTORE DUP5 AND PUSH1 0x20 DUP3 ADD MSTORE PUSH1 0x40 DUP2 ADD DUP4 SWAP1 MSTORE PUSH1 0x80 PUSH1 0x60 DUP3 ADD DUP2 SWAP1 MSTORE PUSH1 0x0 SWAP1 PUSH2 0x1CAD SWAP1 DUP4 ADD DUP5 PUSH2 0x3AAF JUMP JUMPDEST PUSH1 0x0 PUSH1 0x20 DUP3 DUP5 SUB SLT ISZERO PUSH2 0x4566 JUMPI PUSH1 0x0 DUP1 REVERT JUMPDEST DUP2 MLOAD PUSH2 0x1625 DUP2 PUSH2 0x3A50 JUMP JUMPDEST PUSH1 0x0 PUSH1 0x0 NOT DUP3 EQ ISZERO PUSH2 0x4585 JUMPI PUSH2 0x4585 PUSH2 0x43FF JUMP JUMPDEST POP PUSH1 0x1 ADD SWAP1 JUMP JUMPDEST PUSH4 0x4E487B71 PUSH1 0xE0 SHL PUSH1 0x0 MSTORE PUSH1 0x12 PUSH1 0x4 MSTORE PUSH1 0x24 PUSH1 0x0 REVERT JUMPDEST PUSH1 0x0 DUP3 PUSH2 0x45B1 JUMPI PUSH2 0x45B1 PUSH2 0x458C JUMP JUMPDEST POP DIV SWAP1 JUMP JUMPDEST PUSH1 0x0 DUP3 PUSH2 0x45C5 JUMPI PUSH2 0x45C5 PUSH2 0x458C JUMP JUMPDEST POP MOD SWAP1 JUMP JUMPDEST PUSH1 0x0 DUP2 PUSH1 0x0 NOT DIV DUP4 GT DUP3 ISZERO ISZERO AND ISZERO PUSH2 0x45E4 JUMPI PUSH2 0x45E4 PUSH2 0x43FF JUMP JUMPDEST POP MUL SWAP1 JUMP JUMPDEST PUSH1 0x0 DUP2 PUSH2 0x45F8 JUMPI PUSH2 0x45F8 PUSH2 0x43FF JUMP JUMPDEST POP PUSH1 0x0 NOT ADD SWAP1 JUMP INVALID LOG2 PUSH5 0x6970667358 0x22 SLT KECCAK256 ORIGIN DUP4 0x4A 0xD5 0xDB 0xE2 0xA6 SWAP5 SWAP8 0x21 0x4A PUSH11 0x6EE2BAC62DD79BB35781B5 DUP5 AND 0xDF 0xFC JUMPI SWAP14 DELEGATECALL 0xE4 0x29 PUSH5 0x736F6C6343 STOP ADDMOD MULMOD STOP CALLER "
		},
		"gasEstimates": {
			"creation": {
				"codeDepositCost": "3594800",
				"executionCost": "infinite",
				"totalCost": "infinite"
			},
			"external": {
				"B320xF_()": "277",
				"CONTRACT_ADMIN_ROLE()": "252",
				"DAO_ROLE()": "294",
				"DEFAULT_ADMIN_ROLE()": "273",
				"MINTER_ROLE()": "339",
				"PAUSER_ROLE()": "250",
				"TRUSTED_AGENT_ROLE()": "251",
				"approve(address,uint256)": "infinite",
				"balanceOf(address)": "2618",
				"burn(uint256)": "infinite",
				"discard(uint256)": "infinite",
				"getApproved(uint256)": "4844",
				"getBaseURIbyForNode(uint32)": "infinite",
				"getBaseURIforStorageType(uint8)": "infinite",
				"getRoleAdmin(bytes32)": "2551",
				"getRoleMember(bytes32,uint256)": "infinite",
				"getRoleMemberCount(bytes32)": "infinite",
				"grantRole(bytes32,address)": "infinite",
				"hasRole(bytes32,address)": "2820",
				"isApprovedForAll(address,address)": "infinite",
				"isApprovedOrOwner(address,uint256)": "infinite",
				"isColdWallet(address)": "2632",
				"killTrustedAgent(uint256)": "7682",
				"mintAssetToken(address,uint256,string)": "infinite",
				"name()": "infinite",
				"ownerOf(uint256)": "2689",
				"pause()": "30017",
				"paused()": "2415",
				"renounceRole(bytes32,address)": "infinite",
				"resolveContractAddresses()": "infinite",
				"revokeRole(bytes32,address)": "infinite",
				"safeTransferFrom(address,address,uint256)": "infinite",
				"safeTransferFrom(address,address,uint256,bytes)": "infinite",
				"setApprovalForAll(address,bool)": "26733",
				"setBaseURIforStorageType(uint8,string)": "infinite",
				"setColdWallet()": "22496",
				"setStorageContract(address)": "27028",
				"setURI(uint256,string)": "infinite",
				"supportsInterface(bytes4)": "infinite",
				"symbol()": "infinite",
				"tokenByIndex(uint256)": "6771",
				"tokenExists(uint256)": "2570",
				"tokenOfOwnerByIndex(address,uint256)": "4959",
				"tokenURI(uint256)": "infinite",
				"totalSupply()": "2327",
				"transferFrom(address,address,uint256)": "infinite",
				"trustedAgentBurn(uint256)": "infinite",
				"trustedAgentTransferFrom(address,address,uint256)": "infinite",
				"unSetColdWallet()": "5386",
				"unpause()": "30038"
			},
			"internal": {
				"_baseURI()": "infinite",
				"_beforeTokenTransfer(address,address,uint256)": "infinite",
				"_burn(uint256)": "infinite",
				"_setTokenURI(uint256,string memory)": "infinite",
				"getRecord(bytes32)": "infinite",
				"writeRecord(bytes32,struct Record memory)": "infinite"
			}
		},
		"methodIdentifiers": {
			"B320xF_()": "3b21fd68",
			"CONTRACT_ADMIN_ROLE()": "1da03312",
			"DAO_ROLE()": "e9c26518",
			"DEFAULT_ADMIN_ROLE()": "a217fddf",
			"MINTER_ROLE()": "d5391393",
			"PAUSER_ROLE()": "e63ab1e9",
			"TRUSTED_AGENT_ROLE()": "992a7176",
			"approve(address,uint256)": "095ea7b3",
			"balanceOf(address)": "70a08231",
			"burn(uint256)": "42966c68",
			"discard(uint256)": "7e8f2b0c",
			"getApproved(uint256)": "081812fc",
			"getBaseURIbyForNode(uint32)": "cb6815fa",
			"getBaseURIforStorageType(uint8)": "d6cf1df1",
			"getRoleAdmin(bytes32)": "248a9ca3",
			"getRoleMember(bytes32,uint256)": "9010d07c",
			"getRoleMemberCount(bytes32)": "ca15c873",
			"grantRole(bytes32,address)": "2f2ff15d",
			"hasRole(bytes32,address)": "91d14854",
			"isApprovedForAll(address,address)": "e985e9c5",
			"isApprovedOrOwner(address,uint256)": "430c2081",
			"isColdWallet(address)": "4ac3c31b",
			"killTrustedAgent(uint256)": "cf0b969f",
			"mintAssetToken(address,uint256,string)": "54a19c2b",
			"name()": "06fdde03",
			"ownerOf(uint256)": "6352211e",
			"pause()": "8456cb59",
			"paused()": "5c975abb",
			"renounceRole(bytes32,address)": "36568abe",
			"resolveContractAddresses()": "ee9c25c5",
			"revokeRole(bytes32,address)": "d547741f",
			"safeTransferFrom(address,address,uint256)": "42842e0e",
			"safeTransferFrom(address,address,uint256,bytes)": "b88d4fde",
			"setApprovalForAll(address,bool)": "a22cb465",
			"setBaseURIforStorageType(uint8,string)": "3bae7d51",
			"setColdWallet()": "adfcaae0",
			"setStorageContract(address)": "dc38b0a2",
			"setURI(uint256,string)": "862440e2",
			"supportsInterface(bytes4)": "01ffc9a7",
			"symbol()": "95d89b41",
			"tokenByIndex(uint256)": "4f6ccce7",
			"tokenExists(uint256)": "00923f9e",
			"tokenOfOwnerByIndex(address,uint256)": "2f745c59",
			"tokenURI(uint256)": "c87b56dd",
			"totalSupply()": "18160ddd",
			"transferFrom(address,address,uint256)": "23b872dd",
			"trustedAgentBurn(uint256)": "d0ad0978",
			"trustedAgentTransferFrom(address,address,uint256)": "0b3048bf",
			"unSetColdWallet()": "2670d216",
			"unpause()": "3f4ba83a"
		}
	},
	"abi": [
		{
			"inputs": [],
			"stateMutability": "nonpayable",
			"type": "constructor"
		},
		{
			"anonymous": false,
			"inputs": [
				{
					"indexed": true,
					"internalType": "address",
					"name": "owner",
					"type": "address"
				},
				{
					"indexed": true,
					"internalType": "address",
					"name": "approved",
					"type": "address"
				},
				{
					"indexed": true,
					"internalType": "uint256",
					"name": "tokenId",
					"type": "uint256"
				}
			],
			"name": "Approval",
			"type": "event"
		},
		{
			"anonymous": false,
			"inputs": [
				{
					"indexed": true,
					"internalType": "address",
					"name": "owner",
					"type": "address"
				},
				{
					"indexed": true,
					"internalType": "address",
					"name": "operator",
					"type": "address"
				},
				{
					"indexed": false,
					"internalType": "bool",
					"name": "approved",
					"type": "bool"
				}
			],
			"name": "ApprovalForAll",
			"type": "event"
		},
		{
			"anonymous": false,
			"inputs": [
				{
					"indexed": false,
					"internalType": "address",
					"name": "account",
					"type": "address"
				}
			],
			"name": "Paused",
			"type": "event"
		},
		{
			"anonymous": false,
			"inputs": [
				{
					"indexed": true,
					"internalType": "bytes32",
					"name": "role",
					"type": "bytes32"
				},
				{
					"indexed": true,
					"internalType": "bytes32",
					"name": "previousAdminRole",
					"type": "bytes32"
				},
				{
					"indexed": true,
					"internalType": "bytes32",
					"name": "newAdminRole",
					"type": "bytes32"
				}
			],
			"name": "RoleAdminChanged",
			"type": "event"
		},
		{
			"anonymous": false,
			"inputs": [
				{
					"indexed": true,
					"internalType": "bytes32",
					"name": "role",
					"type": "bytes32"
				},
				{
					"indexed": true,
					"internalType": "address",
					"name": "account",
					"type": "address"
				},
				{
					"indexed": true,
					"internalType": "address",
					"name": "sender",
					"type": "address"
				}
			],
			"name": "RoleGranted",
			"type": "event"
		},
		{
			"anonymous": false,
			"inputs": [
				{
					"indexed": true,
					"internalType": "bytes32",
					"name": "role",
					"type": "bytes32"
				},
				{
					"indexed": true,
					"internalType": "address",
					"name": "account",
					"type": "address"
				},
				{
					"indexed": true,
					"internalType": "address",
					"name": "sender",
					"type": "address"
				}
			],
			"name": "RoleRevoked",
			"type": "event"
		},
		{
			"anonymous": false,
			"inputs": [
				{
					"indexed": true,
					"internalType": "address",
					"name": "from",
					"type": "address"
				},
				{
					"indexed": true,
					"internalType": "address",
					"name": "to",
					"type": "address"
				},
				{
					"indexed": true,
					"internalType": "uint256",
					"name": "tokenId",
					"type": "uint256"
				}
			],
			"name": "Transfer",
			"type": "event"
		},
		{
			"anonymous": false,
			"inputs": [
				{
					"indexed": false,
					"internalType": "address",
					"name": "account",
					"type": "address"
				}
			],
			"name": "Unpaused",
			"type": "event"
		},
		{
			"inputs": [],
			"name": "B320xF_",
			"outputs": [
				{
					"internalType": "bytes32",
					"name": "",
					"type": "bytes32"
				}
			],
			"stateMutability": "view",
			"type": "function"
		},
		{
			"inputs": [],
			"name": "CONTRACT_ADMIN_ROLE",
			"outputs": [
				{
					"internalType": "bytes32",
					"name": "",
					"type": "bytes32"
				}
			],
			"stateMutability": "view",
			"type": "function"
		},
		{
			"inputs": [],
			"name": "DAO_ROLE",
			"outputs": [
				{
					"internalType": "bytes32",
					"name": "",
					"type": "bytes32"
				}
			],
			"stateMutability": "view",
			"type": "function"
		},
		{
			"inputs": [],
			"name": "DEFAULT_ADMIN_ROLE",
			"outputs": [
				{
					"internalType": "bytes32",
					"name": "",
					"type": "bytes32"
				}
			],
			"stateMutability": "view",
			"type": "function"
		},
		{
			"inputs": [],
			"name": "MINTER_ROLE",
			"outputs": [
				{
					"internalType": "bytes32",
					"name": "",
					"type": "bytes32"
				}
			],
			"stateMutability": "view",
			"type": "function"
		},
		{
			"inputs": [],
			"name": "PAUSER_ROLE",
			"outputs": [
				{
					"internalType": "bytes32",
					"name": "",
					"type": "bytes32"
				}
			],
			"stateMutability": "view",
			"type": "function"
		},
		{
			"inputs": [],
			"name": "TRUSTED_AGENT_ROLE",
			"outputs": [
				{
					"internalType": "bytes32",
					"name": "",
					"type": "bytes32"
				}
			],
			"stateMutability": "view",
			"type": "function"
		},
		{
			"inputs": [
				{
					"internalType": "address",
					"name": "to",
					"type": "address"
				},
				{
					"internalType": "uint256",
					"name": "tokenId",
					"type": "uint256"
				}
			],
			"name": "approve",
			"outputs": [],
			"stateMutability": "nonpayable",
			"type": "function"
		},
		{
			"inputs": [
				{
					"internalType": "address",
					"name": "owner",
					"type": "address"
				}
			],
			"name": "balanceOf",
			"outputs": [
				{
					"internalType": "uint256",
					"name": "",
					"type": "uint256"
				}
			],
			"stateMutability": "view",
			"type": "function"
		},
		{
			"inputs": [
				{
					"internalType": "uint256",
					"name": "tokenId",
					"type": "uint256"
				}
			],
			"name": "burn",
			"outputs": [],
			"stateMutability": "nonpayable",
			"type": "function"
		},
		{
			"inputs": [
				{
					"internalType": "uint256",
					"name": "_tokenId",
					"type": "uint256"
				}
			],
			"name": "discard",
			"outputs": [],
			"stateMutability": "nonpayable",
			"type": "function"
		},
		{
			"inputs": [
				{
					"internalType": "uint256",
					"name": "tokenId",
					"type": "uint256"
				}
			],
			"name": "getApproved",
			"outputs": [
				{
					"internalType": "address",
					"name": "",
					"type": "address"
				}
			],
			"stateMutability": "view",
			"type": "function"
		},
		{
			"inputs": [
				{
					"internalType": "uint32",
					"name": "_node",
					"type": "uint32"
				}
			],
			"name": "getBaseURIbyForNode",
			"outputs": [
				{
					"internalType": "string",
					"name": "",
					"type": "string"
				}
			],
			"stateMutability": "view",
			"type": "function"
		},
		{
			"inputs": [
				{
					"internalType": "uint8",
					"name": "_storageProvider",
					"type": "uint8"
				}
			],
			"name": "getBaseURIforStorageType",
			"outputs": [
				{
					"internalType": "string",
					"name": "",
					"type": "string"
				}
			],
			"stateMutability": "view",
			"type": "function"
		},
		{
			"inputs": [
				{
					"internalType": "bytes32",
					"name": "role",
					"type": "bytes32"
				}
			],
			"name": "getRoleAdmin",
			"outputs": [
				{
					"internalType": "bytes32",
					"name": "",
					"type": "bytes32"
				}
			],
			"stateMutability": "view",
			"type": "function"
		},
		{
			"inputs": [
				{
					"internalType": "bytes32",
					"name": "role",
					"type": "bytes32"
				},
				{
					"internalType": "uint256",
					"name": "index",
					"type": "uint256"
				}
			],
			"name": "getRoleMember",
			"outputs": [
				{
					"internalType": "address",
					"name": "",
					"type": "address"
				}
			],
			"stateMutability": "view",
			"type": "function"
		},
		{
			"inputs": [
				{
					"internalType": "bytes32",
					"name": "role",
					"type": "bytes32"
				}
			],
			"name": "getRoleMemberCount",
			"outputs": [
				{
					"internalType": "uint256",
					"name": "",
					"type": "uint256"
				}
			],
			"stateMutability": "view",
			"type": "function"
		},
		{
			"inputs": [
				{
					"internalType": "bytes32",
					"name": "role",
					"type": "bytes32"
				},
				{
					"internalType": "address",
					"name": "account",
					"type": "address"
				}
			],
			"name": "grantRole",
			"outputs": [],
			"stateMutability": "nonpayable",
			"type": "function"
		},
		{
			"inputs": [
				{
					"internalType": "bytes32",
					"name": "role",
					"type": "bytes32"
				},
				{
					"internalType": "address",
					"name": "account",
					"type": "address"
				}
			],
			"name": "hasRole",
			"outputs": [
				{
					"internalType": "bool",
					"name": "",
					"type": "bool"
				}
			],
			"stateMutability": "view",
			"type": "function"
		},
		{
			"inputs": [
				{
					"internalType": "address",
					"name": "owner",
					"type": "address"
				},
				{
					"internalType": "address",
					"name": "operator",
					"type": "address"
				}
			],
			"name": "isApprovedForAll",
			"outputs": [
				{
					"internalType": "bool",
					"name": "",
					"type": "bool"
				}
			],
			"stateMutability": "view",
			"type": "function"
		},
		{
			"inputs": [
				{
					"internalType": "address",
					"name": "_addr",
					"type": "address"
				},
				{
					"internalType": "uint256",
					"name": "_tokenId",
					"type": "uint256"
				}
			],
			"name": "isApprovedOrOwner",
			"outputs": [],
			"stateMutability": "view",
			"type": "function"
		},
		{
			"inputs": [
				{
					"internalType": "address",
					"name": "_addr",
					"type": "address"
				}
			],
			"name": "isColdWallet",
			"outputs": [
				{
					"internalType": "uint256",
					"name": "",
					"type": "uint256"
				}
			],
			"stateMutability": "view",
			"type": "function"
		},
		{
			"inputs": [
				{
					"internalType": "uint256",
					"name": "_key",
					"type": "uint256"
				}
			],
			"name": "killTrustedAgent",
			"outputs": [],
			"stateMutability": "nonpayable",
			"type": "function"
		},
		{
			"inputs": [
				{
					"internalType": "address",
					"name": "_recipientAddress",
					"type": "address"
				},
				{
					"internalType": "uint256",
					"name": "_tokenId",
					"type": "uint256"
				},
				{
					"internalType": "string",
					"name": "_URIsuffix",
					"type": "string"
				}
			],
			"name": "mintAssetToken",
			"outputs": [
				{
					"internalType": "uint256",
					"name": "",
					"type": "uint256"
				}
			],
			"stateMutability": "nonpayable",
			"type": "function"
		},
		{
			"inputs": [],
			"name": "name",
			"outputs": [
				{
					"internalType": "string",
					"name": "",
					"type": "string"
				}
			],
			"stateMutability": "view",
			"type": "function"
		},
		{
			"inputs": [
				{
					"internalType": "uint256",
					"name": "tokenId",
					"type": "uint256"
				}
			],
			"name": "ownerOf",
			"outputs": [
				{
					"internalType": "address",
					"name": "",
					"type": "address"
				}
			],
			"stateMutability": "view",
			"type": "function"
		},
		{
			"inputs": [],
			"name": "pause",
			"outputs": [],
			"stateMutability": "nonpayable",
			"type": "function"
		},
		{
			"inputs": [],
			"name": "paused",
			"outputs": [
				{
					"internalType": "bool",
					"name": "",
					"type": "bool"
				}
			],
			"stateMutability": "view",
			"type": "function"
		},
		{
			"inputs": [
				{
					"internalType": "bytes32",
					"name": "role",
					"type": "bytes32"
				},
				{
					"internalType": "address",
					"name": "account",
					"type": "address"
				}
			],
			"name": "renounceRole",
			"outputs": [],
			"stateMutability": "nonpayable",
			"type": "function"
		},
		{
			"inputs": [],
			"name": "resolveContractAddresses",
			"outputs": [],
			"stateMutability": "nonpayable",
			"type": "function"
		},
		{
			"inputs": [
				{
					"internalType": "bytes32",
					"name": "role",
					"type": "bytes32"
				},
				{
					"internalType": "address",
					"name": "account",
					"type": "address"
				}
			],
			"name": "revokeRole",
			"outputs": [],
			"stateMutability": "nonpayable",
			"type": "function"
		},
		{
			"inputs": [
				{
					"internalType": "address",
					"name": "_from",
					"type": "address"
				},
				{
					"internalType": "address",
					"name": "_to",
					"type": "address"
				},
				{
					"internalType": "uint256",
					"name": "_tokenId",
					"type": "uint256"
				}
			],
			"name": "safeTransferFrom",
			"outputs": [],
			"stateMutability": "nonpayable",
			"type": "function"
		},
		{
			"inputs": [
				{
					"internalType": "address",
					"name": "_from",
					"type": "address"
				},
				{
					"internalType": "address",
					"name": "_to",
					"type": "address"
				},
				{
					"internalType": "uint256",
					"name": "_tokenId",
					"type": "uint256"
				},
				{
					"internalType": "bytes",
					"name": "_data",
					"type": "bytes"
				}
			],
			"name": "safeTransferFrom",
			"outputs": [],
			"stateMutability": "nonpayable",
			"type": "function"
		},
		{
			"inputs": [
				{
					"internalType": "address",
					"name": "operator",
					"type": "address"
				},
				{
					"internalType": "bool",
					"name": "approved",
					"type": "bool"
				}
			],
			"name": "setApprovalForAll",
			"outputs": [],
			"stateMutability": "nonpayable",
			"type": "function"
		},
		{
			"inputs": [
				{
					"internalType": "uint8",
					"name": "_storageProvider",
					"type": "uint8"
				},
				{
					"internalType": "string",
					"name": "_URI",
					"type": "string"
				}
			],
			"name": "setBaseURIforStorageType",
			"outputs": [],
			"stateMutability": "nonpayable",
			"type": "function"
		},
		{
			"inputs": [],
			"name": "setColdWallet",
			"outputs": [],
			"stateMutability": "nonpayable",
			"type": "function"
		},
		{
			"inputs": [
				{
					"internalType": "address",
					"name": "_storageAddress",
					"type": "address"
				}
			],
			"name": "setStorageContract",
			"outputs": [],
			"stateMutability": "nonpayable",
			"type": "function"
		},
		{
			"inputs": [
				{
					"internalType": "uint256",
					"name": "_tokenId",
					"type": "uint256"
				},
				{
					"internalType": "string",
					"name": "_tokenURI",
					"type": "string"
				}
			],
			"name": "setURI",
			"outputs": [
				{
					"internalType": "uint256",
					"name": "",
					"type": "uint256"
				}
			],
			"stateMutability": "nonpayable",
			"type": "function"
		},
		{
			"inputs": [
				{
					"internalType": "bytes4",
					"name": "interfaceId",
					"type": "bytes4"
				}
			],
			"name": "supportsInterface",
			"outputs": [
				{
					"internalType": "bool",
					"name": "",
					"type": "bool"
				}
			],
			"stateMutability": "view",
			"type": "function"
		},
		{
			"inputs": [],
			"name": "symbol",
			"outputs": [
				{
					"internalType": "string",
					"name": "",
					"type": "string"
				}
			],
			"stateMutability": "view",
			"type": "function"
		},
		{
			"inputs": [
				{
					"internalType": "uint256",
					"name": "index",
					"type": "uint256"
				}
			],
			"name": "tokenByIndex",
			"outputs": [
				{
					"internalType": "uint256",
					"name": "",
					"type": "uint256"
				}
			],
			"stateMutability": "view",
			"type": "function"
		},
		{
			"inputs": [
				{
					"internalType": "uint256",
					"name": "tokenId",
					"type": "uint256"
				}
			],
			"name": "tokenExists",
			"outputs": [
				{
					"internalType": "uint256",
					"name": "",
					"type": "uint256"
				}
			],
			"stateMutability": "view",
			"type": "function"
		},
		{
			"inputs": [
				{
					"internalType": "address",
					"name": "owner",
					"type": "address"
				},
				{
					"internalType": "uint256",
					"name": "index",
					"type": "uint256"
				}
			],
			"name": "tokenOfOwnerByIndex",
			"outputs": [
				{
					"internalType": "uint256",
					"name": "",
					"type": "uint256"
				}
			],
			"stateMutability": "view",
			"type": "function"
		},
		{
			"inputs": [
				{
					"internalType": "uint256",
					"name": "tokenId",
					"type": "uint256"
				}
			],
			"name": "tokenURI",
			"outputs": [
				{
					"internalType": "string",
					"name": "",
					"type": "string"
				}
			],
			"stateMutability": "view",
			"type": "function"
		},
		{
			"inputs": [],
			"name": "totalSupply",
			"outputs": [
				{
					"internalType": "uint256",
					"name": "",
					"type": "uint256"
				}
			],
			"stateMutability": "view",
			"type": "function"
		},
		{
			"inputs": [
				{
					"internalType": "address",
					"name": "_from",
					"type": "address"
				},
				{
					"internalType": "address",
					"name": "_to",
					"type": "address"
				},
				{
					"internalType": "uint256",
					"name": "_tokenId",
					"type": "uint256"
				}
			],
			"name": "transferFrom",
			"outputs": [],
			"stateMutability": "nonpayable",
			"type": "function"
		},
		{
			"inputs": [
				{
					"internalType": "uint256",
					"name": "_tokenId",
					"type": "uint256"
				}
			],
			"name": "trustedAgentBurn",
			"outputs": [],
			"stateMutability": "nonpayable",
			"type": "function"
		},
		{
			"inputs": [
				{
					"internalType": "address",
					"name": "_from",
					"type": "address"
				},
				{
					"internalType": "address",
					"name": "_to",
					"type": "address"
				},
				{
					"internalType": "uint256",
					"name": "_tokenId",
					"type": "uint256"
				}
			],
			"name": "trustedAgentTransferFrom",
			"outputs": [],
			"stateMutability": "nonpayable",
			"type": "function"
		},
		{
			"inputs": [],
			"name": "unSetColdWallet",
			"outputs": [],
			"stateMutability": "nonpayable",
			"type": "function"
		},
		{
			"inputs": [],
			"name": "unpause",
			"outputs": [],
			"stateMutability": "nonpayable",
			"type": "function"
		}
	]
}