{
	"data": {
		"bytecode": {
			"linkReferences": {},
			"object": "608060405260016011553480156200001657600080fd5b506040518060400160405280601081526020017f5052554620417373657420546f6b656e000000000000000000000000000000008152506040518060400160405280600481526020017f505241540000000000000000000000000000000000000000000000000000000081525060016000819055508160039080519060200190620000a39291906200041d565b508060049080519060200190620000bc9291906200041d565b5050506000600d60006101000a81548160ff021916908315150217905550620000fe6000801b620000f26200018660201b60201c565b6200018e60201b60201c565b6200013f7f2ce8d04a9c35987429af538825cd2438cc5c5bb5dc427955f84daaa3ea105016620001336200018660201b60201c565b6200018e60201b60201c565b620001807f65d7a28e3265b37a6474929f336521b332c1681b933f6cb9f3376673440d862a620001746200018660201b60201c565b6200018e60201b60201c565b62000532565b600033905090565b620001a58282620001d660201b620029821760201c565b620001d18160026000858152602001908152602001600020620001ec60201b620029901790919060201c565b505050565b620001e882826200022460201b60201c565b5050565b60006200021c836000018373ffffffffffffffffffffffffffffffffffffffff1660001b6200031560201b60201c565b905092915050565b6200023682826200038f60201b60201c565b6200031157600180600084815260200190815260200160002060000160008373ffffffffffffffffffffffffffffffffffffffff1673ffffffffffffffffffffffffffffffffffffffff16815260200190815260200160002060006101000a81548160ff021916908315150217905550620002b66200018660201b60201c565b73ffffffffffffffffffffffffffffffffffffffff168173ffffffffffffffffffffffffffffffffffffffff16837f2f8788117e7eff1d82e926ec794901d17c78024a50270940304540a733656f0d60405160405180910390a45b5050565b6000620003298383620003fa60201b60201c565b6200038457826000018290806001815401808255809150506001900390600052602060002001600090919091909150558260000180549050836001016000848152602001908152602001600020819055506001905062000389565b600090505b92915050565b60006001600084815260200190815260200160002060000160008373ffffffffffffffffffffffffffffffffffffffff1673ffffffffffffffffffffffffffffffffffffffff16815260200190815260200160002060009054906101000a900460ff16905092915050565b600080836001016000848152602001908152602001600020541415905092915050565b8280546200042b90620004fc565b90600052602060002090601f0160209004810192826200044f57600085556200049b565b82601f106200046a57805160ff19168380011785556200049b565b828001600101855582156200049b579182015b828111156200049a5782518255916020019190600101906200047d565b5b509050620004aa9190620004ae565b5090565b5b80821115620004c9576000816000905550600101620004af565b5090565b7f4e487b7100000000000000000000000000000000000000000000000000000000600052602260045260246000fd5b600060028204905060018216806200051557607f821691505b602082108114156200052c576200052b620004cd565b5b50919050565b61743b80620005426000396000f3fe608060405234801561001057600080fd5b506004361061027e5760003560e01c806370a082311161015c578063b88d4fde116100ce578063d539139311610087578063d5391393146107bb578063d547741f146107d9578063dc38b0a2146107f5578063e63ab1e914610811578063e985e9c51461082f578063ee9c25c51461085f5761027e565b8063b88d4fde146106d7578063c87b56dd146106f3578063ca15c87314610723578063cc1e381814610753578063cf0b969f14610783578063d0ad09781461079f5761027e565b806391d148541161012057806391d148541461062757806395d89b4114610657578063992a717614610675578063a217fddf14610693578063a22cb465146106b1578063adfcaae0146106cd5761027e565b806370a08231146105715780637e8f2b0c146105a15780638456cb59146105bd578063862440e2146105c75780639010d07c146105f75761027e565b80632f2ff15d116101f557806342842e0e116101b957806342842e0e1461048b57806342966c68146104a75780634ac3c31b146104c35780634f6ccce7146104f35780635c975abb146105235780636352211e146105415761027e565b80632f2ff15d146103fb5780632f745c591461041757806336568abe146104475780633b21fd68146104635780633f4ba83a146104815761027e565b80630b3048bf116102475780630b3048bf1461034d57806318160ddd146103695780631da033121461038757806323b872dd146103a5578063248a9ca3146103c15780632670d216146103f15761027e565b8062923f9e1461028357806301ffc9a7146102b357806306fdde03146102e3578063081812fc14610301578063095ea7b314610331575b600080fd5b61029d60048036038101906102989190614a8f565b610869565b6040516102aa9190614acb565b60405180910390f35b6102cd60048036038101906102c89190614b3e565b61088c565b6040516102da9190614b86565b60405180910390f35b6102eb61089e565b6040516102f89190614c3a565b60405180910390f35b61031b60048036038101906103169190614a8f565b610930565b6040516103289190614c9d565b60405180910390f35b61034b60048036038101906103469190614ce4565b6109b5565b005b61036760048036038101906103629190614d24565b610acd565b005b610371610cea565b60405161037e9190614acb565b60405180910390f35b61038f610cf7565b60405161039c9190614d90565b60405180910390f35b6103bf60048036038101906103ba9190614d24565b610d1b565b005b6103db60048036038101906103d69190614dd7565b610e7f565b6040516103e89190614d90565b60405180910390f35b6103f9610e9f565b005b61041560048036038101906104109190614e04565b610eed565b005b610431600480360381019061042c9190614ce4565b610f21565b60405161043e9190614acb565b60405180910390f35b610461600480360381019061045c9190614e04565b610fc6565b005b61046b610ffa565b6040516104789190614d90565b60405180910390f35b610489611021565b005b6104a560048036038101906104a09190614d24565b61109b565b005b6104c160048036038101906104bc9190614a8f565b6110bb565b005b6104dd60048036038101906104d89190614e44565b611117565b6040516104ea9190614acb565b60405180910390f35b61050d60048036038101906105089190614a8f565b611160565b60405161051a9190614acb565b60405180910390f35b61052b6111d1565b6040516105389190614b86565b60405180910390f35b61055b60048036038101906105569190614a8f565b6111e8565b6040516105689190614c9d565b60405180910390f35b61058b60048036038101906105869190614e44565b61129a565b6040516105989190614acb565b60405180910390f35b6105bb60048036038101906105b69190614a8f565b611352565b005b6105c56114eb565b005b6105e160048036038101906105dc9190614ed6565b611565565b6040516105ee9190614acb565b60405180910390f35b610611600480360381019061060c9190614f36565b611855565b60405161061e9190614c9d565b60405180910390f35b610641600480360381019061063c9190614e04565b611884565b60405161064e9190614b86565b60405180910390f35b61065f6118ef565b60405161066c9190614c3a565b60405180910390f35b61067d611981565b60405161068a9190614d90565b60405180910390f35b61069b6119a5565b6040516106a89190614d90565b60405180910390f35b6106cb60048036038101906106c69190614fa2565b6119ac565b005b6106d5611b2d565b005b6106f160048036038101906106ec9190615112565b611b7b565b005b61070d60048036038101906107089190614a8f565b611e6f565b60405161071a9190614c3a565b60405180910390f35b61073d60048036038101906107389190614dd7565b611fc1565b60405161074a9190614acb565b60405180910390f35b61076d60048036038101906107689190614ce4565b611fe5565b60405161077a9190614acb565b60405180910390f35b61079d60048036038101906107989190614a8f565b6120c0565b005b6107b960048036038101906107b49190614a8f565b612145565b005b6107c36122f8565b6040516107d09190614d90565b60405180910390f35b6107f360048036038101906107ee9190614e04565b61231c565b005b61080f600480360381019061080a9190614e44565b612350565b005b610819612474565b6040516108269190614d90565b60405180910390f35b61084960048036038101906108449190615195565b612498565b6040516108569190614b86565b60405180910390f35b61086761252c565b005b6000610874826129c0565b156108825760aa9050610887565b600090505b919050565b600061089782612a2c565b9050919050565b6060600380546108ad90615204565b80601f01602080910402602001604051908101604052809291908181526020018280546108d990615204565b80156109265780601f106108fb57610100808354040283529160200191610926565b820191906000526020600020905b81548152906001019060200180831161090957829003601f168201915b5050505050905090565b600061093b826129c0565b61097a576040517f08c379a0000000000000000000000000000000000000000000000000000000008152600401610971906152a8565b60405180910390fd5b6007600083815260200190815260200160002060009054906101000a900473ffffffffffffffffffffffffffffffffffffffff169050919050565b60006109c0826111e8565b90508073ffffffffffffffffffffffffffffffffffffffff168373ffffffffffffffffffffffffffffffffffffffff161415610a31576040517f08c379a0000000000000000000000000000000000000000000000000000000008152600401610a289061533a565b60405180910390fd5b8073ffffffffffffffffffffffffffffffffffffffff16610a50612aa6565b73ffffffffffffffffffffffffffffffffffffffff161480610a7f5750610a7e81610a79612aa6565b612498565b5b610abe576040517f08c379a0000000000000000000000000000000000000000000000000000000008152600401610ab5906153cc565b60405180910390fd5b610ac88383612aae565b505050565b60026000541415610b13576040517f08c379a0000000000000000000000000000000000000000000000000000000008152600401610b0a90615438565b60405180910390fd5b6002600081905550610b4c7feeed90ae47cd1f23b88ce446295f1ca23c5e4f5b894addbe83563fd27494e294610b47612aa6565b611884565b610b8b576040517f08c379a0000000000000000000000000000000000000000000000000000000008152600401610b82906154ca565b60405180910390fd5b600160115414610bd0576040517f08c379a0000000000000000000000000000000000000000000000000000000008152600401610bc790615582565b60405180910390fd5b60008160001b90506000610be382612b67565b90506033816000015160ff1614610c2f576040517f08c379a0000000000000000000000000000000000000000000000000000000008152600401610c2690615614565b60405180910390fd5b60aa610c42610c3d856111e8565b611117565b1415610c83576040517f08c379a0000000000000000000000000000000000000000000000000000000008152600401610c7a90615680565b60405180910390fd5b60aa816040019061ffff16908161ffff16815250507fffffffffffffffffffffffffffffffffffffffffffffffffffffffffffffffff60001b81610140018181525050610cd08282612c28565b610cdb858585612d26565b50506001600081905550505050565b6000600b80549050905090565b7f2ce8d04a9c35987429af538825cd2438cc5c5bb5dc427955f84daaa3ea10501681565b60026000541415610d61576040517f08c379a0000000000000000000000000000000000000000000000000000000008152600401610d5890615438565b60405180910390fd5b600260008190555060008160001b90506000610d7c82612b67565b9050610d8f610d89612aa6565b84612f82565b610dce576040517f08c379a0000000000000000000000000000000000000000000000000000000008152600401610dc590615712565b60405180910390fd5b6033816000015160ff1614610e18576040517f08c379a0000000000000000000000000000000000000000000000000000000008152600401610e0f906157a4565b60405180910390fd5b60aa816040019061ffff16908161ffff16815250507fffffffffffffffffffffffffffffffffffffffffffffffffffffffffffffffff60001b81610140018181525050610e658282612c28565b610e70858585612d26565b50506001600081905550505050565b600060016000838152602001908152602001600020600101549050919050565b600060126000610ead612aa6565b73ffffffffffffffffffffffffffffffffffffffff1673ffffffffffffffffffffffffffffffffffffffff16815260200190815260200160002081905550565b610ef78282613060565b610f1c816002600085815260200190815260200160002061299090919063ffffffff16565b505050565b6000610f2c8361129a565b8210610f6d576040517f08c379a0000000000000000000000000000000000000000000000000000000008152600401610f6490615836565b60405180910390fd5b600960008473ffffffffffffffffffffffffffffffffffffffff1673ffffffffffffffffffffffffffffffffffffffff168152602001908152602001600020600083815260200190815260200160002054905092915050565b610fd08282613089565b610ff5816002600085815260200190815260200160002061310c90919063ffffffff16565b505050565b7fffffffffffffffffffffffffffffffffffffffffffffffffffffffffffffffff60001b81565b6110527f65d7a28e3265b37a6474929f336521b332c1681b933f6cb9f3376673440d862a61104d612aa6565b611884565b611091576040517f08c379a0000000000000000000000000000000000000000000000000000000008152600401611088906158a2565b60405180910390fd5b61109961313c565b565b6110b683838360405180602001604052806000815250611b7b565b505050565b6110cc6110c6612aa6565b82612f82565b61110b576040517f08c379a000000000000000000000000000000000000000000000000000000000815260040161110290615934565b60405180910390fd5b611114816131de565b50565b6000601260008373ffffffffffffffffffffffffffffffffffffffff1673ffffffffffffffffffffffffffffffffffffffff168152602001908152602001600020549050919050565b600061116a610cea565b82106111ab576040517f08c379a00000000000000000000000000000000000000000000000000000000081526004016111a2906159c6565b60405180910390fd5b600b82815481106111bf576111be6159e6565b5b90600052602060002001549050919050565b6000600d60009054906101000a900460ff16905090565b6000806005600084815260200190815260200160002060009054906101000a900473ffffffffffffffffffffffffffffffffffffffff169050600073ffffffffffffffffffffffffffffffffffffffff168173ffffffffffffffffffffffffffffffffffffffff161415611291576040517f08c379a000000000000000000000000000000000000000000000000000000000815260040161128890615a87565b60405180910390fd5b80915050919050565b60008073ffffffffffffffffffffffffffffffffffffffff168273ffffffffffffffffffffffffffffffffffffffff16141561130b576040517f08c379a000000000000000000000000000000000000000000000000000000000815260040161130290615b19565b60405180910390fd5b600660008373ffffffffffffffffffffffffffffffffffffffff1673ffffffffffffffffffffffffffffffffffffffff168152602001908152602001600020549050919050565b60026000541415611398576040517f08c379a000000000000000000000000000000000000000000000000000000000815260040161138f90615438565b60405180910390fd5b60026000819055506113a86111d1565b156113e8576040517f08c379a00000000000000000000000000000000000000000000000000000000081526004016113df90615b85565b60405180910390fd5b60008160001b90506114016113fb612aa6565b83612f82565b611440576040517f08c379a000000000000000000000000000000000000000000000000000000000815260040161143790615c17565b60405180910390fd5b601860009054906101000a900473ffffffffffffffffffffffffffffffffffffffff1673ffffffffffffffffffffffffffffffffffffffff1663c456771482611487612aa6565b6040518363ffffffff1660e01b81526004016114a4929190615c37565b600060405180830381600087803b1580156114be57600080fd5b505af11580156114d2573d6000803e3d6000fd5b505050506114df826131de565b50600160008190555050565b61151c7f65d7a28e3265b37a6474929f336521b332c1681b933f6cb9f3376673440d862a611517612aa6565b611884565b61155b576040517f08c379a000000000000000000000000000000000000000000000000000000000815260040161155290615cac565b60405180910390fd5b611563613231565b565b6000808460001b9050600061157982612b67565b90506001601960009054906101000a900473ffffffffffffffffffffffffffffffffffffffff1673ffffffffffffffffffffffffffffffffffffffff16636ece1f43836060015160016040518363ffffffff1660e01b81526004016115df929190615d3d565b60206040518083038186803b1580156115f757600080fd5b505afa15801561160b573d6000803e3d6000fd5b505050506040513d601f19601f8201168201806040525081019061162f9190615d7b565b14156117ab57600061164087611e6f565b90506000815114611686576040517f08c379a000000000000000000000000000000000000000000000000000000000815260040161167d90615df4565b60405180910390fd5b61168e612aa6565b73ffffffffffffffffffffffffffffffffffffffff16601a60009054906101000a900473ffffffffffffffffffffffffffffffffffffffff1673ffffffffffffffffffffffffffffffffffffffff16636352211e84606001516040518263ffffffff1660e01b81526004016117039190615e45565b60206040518083038186803b15801561171b57600080fd5b505afa15801561172f573d6000803e3d6000fd5b505050506040513d601f19601f820116820180604052508101906117539190615e75565b73ffffffffffffffffffffffffffffffffffffffff16146117a9576040517f08c379a00000000000000000000000000000000000000000000000000000000081526004016117a090615eee565b60405180910390fd5b505b6117bc6117b6612aa6565b87612f82565b6117fb576040517f08c379a00000000000000000000000000000000000000000000000000000000081526004016117f290615f5a565b60405180910390fd5b6118498686868080601f016020809104026020016040519081016040528093929190818152602001838380828437600081840152601f19601f820116905080830192505050505050506132d4565b85925050509392505050565b600061187c826002600086815260200190815260200160002061334890919063ffffffff16565b905092915050565b60006001600084815260200190815260200160002060000160008373ffffffffffffffffffffffffffffffffffffffff1673ffffffffffffffffffffffffffffffffffffffff16815260200190815260200160002060009054906101000a900460ff16905092915050565b6060600480546118fe90615204565b80601f016020809104026020016040519081016040528092919081815260200182805461192a90615204565b80156119775780601f1061194c57610100808354040283529160200191611977565b820191906000526020600020905b81548152906001019060200180831161195a57829003601f168201915b5050505050905090565b7feeed90ae47cd1f23b88ce446295f1ca23c5e4f5b894addbe83563fd27494e29481565b6000801b81565b6119b4612aa6565b73ffffffffffffffffffffffffffffffffffffffff168273ffffffffffffffffffffffffffffffffffffffff161415611a22576040517f08c379a0000000000000000000000000000000000000000000000000000000008152600401611a1990615fc6565b60405180910390fd5b8060086000611a2f612aa6565b73ffffffffffffffffffffffffffffffffffffffff1673ffffffffffffffffffffffffffffffffffffffff16815260200190815260200160002060008473ffffffffffffffffffffffffffffffffffffffff1673ffffffffffffffffffffffffffffffffffffffff16815260200190815260200160002060006101000a81548160ff0219169083151502179055508173ffffffffffffffffffffffffffffffffffffffff16611adc612aa6565b73ffffffffffffffffffffffffffffffffffffffff167f17307eab39ab6107e8899845ad3d59bd9653f200f220920489ca2b5937696c3183604051611b219190614b86565b60405180910390a35050565b60aa60126000611b3b612aa6565b73ffffffffffffffffffffffffffffffffffffffff1673ffffffffffffffffffffffffffffffffffffffff16815260200190815260200160002081905550565b60026000541415611bc1576040517f08c379a0000000000000000000000000000000000000000000000000000000008152600401611bb890615438565b60405180910390fd5b600260008190555060008260001b90506000611bdc82612b67565b90506000601760009054906101000a900473ffffffffffffffffffffffffffffffffffffffff1673ffffffffffffffffffffffffffffffffffffffff1663df9f69368760006040518363ffffffff1660e01b8152600401611c3e929190616021565b604080518083038186803b158015611c5557600080fd5b505afa158015611c69573d6000803e3d6000fd5b505050506040513d601f19601f82011682018060405250810190611c8d919061608b565b509050611ca1611c9b612aa6565b86612f82565b611ce0576040517f08c379a0000000000000000000000000000000000000000000000000000000008152600401611cd79061613d565b60405180910390fd5b6046826000015160ff16141580611cfa575060008160ff16115b611d39576040517f08c379a0000000000000000000000000000000000000000000000000000000008152600401611d30906161cf565b60405180910390fd5b6033826000015160ff161480611d5657506046826000015160ff16145b611d95576040517f08c379a0000000000000000000000000000000000000000000000000000000008152600401611d8c90616261565b60405180910390fd5b600073ffffffffffffffffffffffffffffffffffffffff168673ffffffffffffffffffffffffffffffffffffffff161415611e05576040517f08c379a0000000000000000000000000000000000000000000000000000000008152600401611dfc906162f3565b60405180910390fd5b60aa826040019061ffff16908161ffff16815250507fffffffffffffffffffffffffffffffffffffffffffffffffffffffffffffffff60001b82610140018181525050611e528383612c28565b611e5e87878787613362565b505050600160008190555050505050565b6060611e7a826129c0565b611eb9576040517f08c379a0000000000000000000000000000000000000000000000000000000008152600401611eb090616385565b60405180910390fd5b6000600e60008481526020019081526020016000208054611ed990615204565b80601f0160208091040260200160405190810160405280929190818152602001828054611f0590615204565b8015611f525780601f10611f2757610100808354040283529160200191611f52565b820191906000526020600020905b815481529060010190602001808311611f3557829003601f168201915b505050505090506000611f636133be565b9050600081511415611f79578192505050611fbc565b600082511115611fae578082604051602001611f969291906163e1565b60405160208183030381529060405292505050611fbc565b611fb784613450565b925050505b919050565b6000611fde600260008481526020019081526020016000206134f7565b9050919050565b60006120187f9f2df0fed2c77648de5860a4cc508cd0818c85b8b8a1ab4ceeef8d981c8956a6612013612aa6565b611884565b612057576040517f08c379a000000000000000000000000000000000000000000000000000000000815260040161204e90616477565b60405180910390fd5b6002600054141561209d576040517f08c379a000000000000000000000000000000000000000000000000000000000815260040161209490615438565b60405180910390fd5b60026000819055506120af838361350c565b819050600160008190555092915050565b6120f17f2ce8d04a9c35987429af538825cd2438cc5c5bb5dc427955f84daaa3ea1050166120ec612aa6565b611884565b612130576040517f08c379a000000000000000000000000000000000000000000000000000000000815260040161212790616509565b60405180910390fd5b60aa8114156121425760006011819055505b50565b6002600054141561218b576040517f08c379a000000000000000000000000000000000000000000000000000000000815260040161218290615438565b60405180910390fd5b600260008190555061219b6111d1565b156121db576040517f08c379a00000000000000000000000000000000000000000000000000000000081526004016121d290615b85565b60405180910390fd5b61220c7feeed90ae47cd1f23b88ce446295f1ca23c5e4f5b894addbe83563fd27494e294612207612aa6565b611884565b61224b576040517f08c379a0000000000000000000000000000000000000000000000000000000008152600401612242906154ca565b60405180910390fd5b600160115414612290576040517f08c379a000000000000000000000000000000000000000000000000000000000815260040161228790615582565b60405180910390fd5b60aa6122a361229e836111e8565b611117565b14156122e4576040517f08c379a00000000000000000000000000000000000000000000000000000000081526004016122db90616575565b60405180910390fd5b6122ed816131de565b600160008190555050565b7f9f2df0fed2c77648de5860a4cc508cd0818c85b8b8a1ab4ceeef8d981c8956a681565b612326828261352a565b61234b816002600085815260200190815260200160002061310c90919063ffffffff16565b505050565b6123817f2ce8d04a9c35987429af538825cd2438cc5c5bb5dc427955f84daaa3ea10501661237c612aa6565b611884565b6123c0576040517f08c379a00000000000000000000000000000000000000000000000000000000081526004016123b790616509565b60405180910390fd5b600073ffffffffffffffffffffffffffffffffffffffff168173ffffffffffffffffffffffffffffffffffffffff161415612430576040517f08c379a0000000000000000000000000000000000000000000000000000000008152600401612427906165e1565b60405180910390fd5b80601760006101000a81548173ffffffffffffffffffffffffffffffffffffffff021916908373ffffffffffffffffffffffffffffffffffffffff16021790555050565b7f65d7a28e3265b37a6474929f336521b332c1681b933f6cb9f3376673440d862a81565b6000600860008473ffffffffffffffffffffffffffffffffffffffff1673ffffffffffffffffffffffffffffffffffffffff16815260200190815260200160002060008373ffffffffffffffffffffffffffffffffffffffff1673ffffffffffffffffffffffffffffffffffffffff16815260200190815260200160002060009054906101000a900460ff16905092915050565b61255d7f2ce8d04a9c35987429af538825cd2438cc5c5bb5dc427955f84daaa3ea105016612558612aa6565b611884565b61259c576040517f08c379a000000000000000000000000000000000000000000000000000000000815260040161259390616509565b60405180910390fd5b601760009054906101000a900473ffffffffffffffffffffffffffffffffffffffff1673ffffffffffffffffffffffffffffffffffffffff1663c771a9826040518163ffffffff1660e01b81526004016125f59061664d565b60206040518083038186803b15801561260d57600080fd5b505afa158015612621573d6000803e3d6000fd5b505050506040513d601f19601f820116820180604052508101906126459190615e75565b601460006101000a81548173ffffffffffffffffffffffffffffffffffffffff021916908373ffffffffffffffffffffffffffffffffffffffff160217905550601460009054906101000a900473ffffffffffffffffffffffffffffffffffffffff16601860006101000a81548173ffffffffffffffffffffffffffffffffffffffff021916908373ffffffffffffffffffffffffffffffffffffffff160217905550601760009054906101000a900473ffffffffffffffffffffffffffffffffffffffff1673ffffffffffffffffffffffffffffffffffffffff1663c771a9826040518163ffffffff1660e01b8152600401612741906166b9565b60206040518083038186803b15801561275957600080fd5b505afa15801561276d573d6000803e3d6000fd5b505050506040513d601f19601f820116820180604052508101906127919190615e75565b601560006101000a81548173ffffffffffffffffffffffffffffffffffffffff021916908373ffffffffffffffffffffffffffffffffffffffff160217905550601560009054906101000a900473ffffffffffffffffffffffffffffffffffffffff16601960006101000a81548173ffffffffffffffffffffffffffffffffffffffff021916908373ffffffffffffffffffffffffffffffffffffffff160217905550601760009054906101000a900473ffffffffffffffffffffffffffffffffffffffff1673ffffffffffffffffffffffffffffffffffffffff1663c771a9826040518163ffffffff1660e01b815260040161288d90616725565b60206040518083038186803b1580156128a557600080fd5b505afa1580156128b9573d6000803e3d6000fd5b505050506040513d601f19601f820116820180604052508101906128dd9190615e75565b601660006101000a81548173ffffffffffffffffffffffffffffffffffffffff021916908373ffffffffffffffffffffffffffffffffffffffff160217905550601660009054906101000a900473ffffffffffffffffffffffffffffffffffffffff16601a60006101000a81548173ffffffffffffffffffffffffffffffffffffffff021916908373ffffffffffffffffffffffffffffffffffffffff160217905550565b61298c8282613553565b5050565b60006129b8836000018373ffffffffffffffffffffffffffffffffffffffff1660001b613633565b905092915050565b60008073ffffffffffffffffffffffffffffffffffffffff166005600084815260200190815260200160002060009054906101000a900473ffffffffffffffffffffffffffffffffffffffff1673ffffffffffffffffffffffffffffffffffffffff1614159050919050565b60007f780e9d63000000000000000000000000000000000000000000000000000000007bffffffffffffffffffffffffffffffffffffffffffffffffffffffff1916827bffffffffffffffffffffffffffffffffffffffffffffffffffffffff19161480612a9f5750612a9e826136a3565b5b9050919050565b600033905090565b816007600083815260200190815260200160002060006101000a81548173ffffffffffffffffffffffffffffffffffffffff021916908373ffffffffffffffffffffffffffffffffffffffff160217905550808273ffffffffffffffffffffffffffffffffffffffff16612b21836111e8565b73ffffffffffffffffffffffffffffffffffffffff167f8c5be1e5ebec7d5bd14f71427d1e84f3dd0314c0f7b2291e5b200ac8c7c3b92560405160405180910390a45050565b612b6f6148dd565b6000601760009054906101000a900473ffffffffffffffffffffffffffffffffffffffff1673ffffffffffffffffffffffffffffffffffffffff1663e248f2c4846040518263ffffffff1660e01b8152600401612bcc9190614d90565b6101606040518083038186803b158015612be557600080fd5b505afa158015612bf9573d6000803e3d6000fd5b505050506040513d601f19601f82011682018060405250810190612c1d91906168bc565b905080915050919050565b612c306111d1565b15612c70576040517f08c379a0000000000000000000000000000000000000000000000000000000008152600401612c6790615b85565b60405180910390fd5b601760009054906101000a900473ffffffffffffffffffffffffffffffffffffffff1673ffffffffffffffffffffffffffffffffffffffff16633c42612e83836101400151846000015185608001518660a00151876020015188604001516040518863ffffffff1660e01b8152600401612cf0979695949392919061695b565b600060405180830381600087803b158015612d0a57600080fd5b505af1158015612d1e573d6000803e3d6000fd5b505050505050565b8273ffffffffffffffffffffffffffffffffffffffff16612d46826111e8565b73ffffffffffffffffffffffffffffffffffffffff1614612d9c576040517f08c379a0000000000000000000000000000000000000000000000000000000008152600401612d9390616a3c565b60405180910390fd5b600073ffffffffffffffffffffffffffffffffffffffff168273ffffffffffffffffffffffffffffffffffffffff161415612e0c576040517f08c379a0000000000000000000000000000000000000000000000000000000008152600401612e0390616ace565b60405180910390fd5b612e17838383613785565b612e22600082612aae565b6001600660008573ffffffffffffffffffffffffffffffffffffffff1673ffffffffffffffffffffffffffffffffffffffff1681526020019081526020016000206000828254612e729190616b1d565b925050819055506001600660008473ffffffffffffffffffffffffffffffffffffffff1673ffffffffffffffffffffffffffffffffffffffff1681526020019081526020016000206000828254612ec99190616b51565b92505081905550816005600083815260200190815260200160002060006101000a81548173ffffffffffffffffffffffffffffffffffffffff021916908373ffffffffffffffffffffffffffffffffffffffff160217905550808273ffffffffffffffffffffffffffffffffffffffff168473ffffffffffffffffffffffffffffffffffffffff167fddf252ad1be2c89b69c2b068fc378daa952ba7f163c4a11628f55a4df523b3ef60405160405180910390a4505050565b6000612f8d826129c0565b612fcc576040517f08c379a0000000000000000000000000000000000000000000000000000000008152600401612fc390616c19565b60405180910390fd5b6000612fd7836111e8565b90508073ffffffffffffffffffffffffffffffffffffffff168473ffffffffffffffffffffffffffffffffffffffff16148061304657508373ffffffffffffffffffffffffffffffffffffffff1661302e84610930565b73ffffffffffffffffffffffffffffffffffffffff16145b8061305757506130568185612498565b5b91505092915050565b61306982610e7f565b61307a81613075612aa6565b613795565b6130848383613553565b505050565b613091612aa6565b73ffffffffffffffffffffffffffffffffffffffff168173ffffffffffffffffffffffffffffffffffffffff16146130fe576040517f08c379a00000000000000000000000000000000000000000000000000000000081526004016130f590616cab565b60405180910390fd5b6131088282613832565b5050565b6000613134836000018373ffffffffffffffffffffffffffffffffffffffff1660001b613914565b905092915050565b6131446111d1565b613183576040517f08c379a000000000000000000000000000000000000000000000000000000000815260040161317a90616d17565b60405180910390fd5b6000600d60006101000a81548160ff0219169083151502179055507f5db9ee0a495bf2e6ff9c91a7834c1ba4fdd244a5e8aa4e537bd38aeae4b073aa6131c7612aa6565b6040516131d49190614c9d565b60405180910390a1565b6131e781613a28565b6000600e6000838152602001908152602001600020805461320790615204565b90501461322e57600e6000828152602001908152602001600020600061322d9190614962565b5b50565b6132396111d1565b15613279576040517f08c379a000000000000000000000000000000000000000000000000000000000815260040161327090615b85565b60405180910390fd5b6001600d60006101000a81548160ff0219169083151502179055507f62e78cea01bee320cd4e420270b5ea74000d11b0c9f74754ebdbfc544b05a2586132bd612aa6565b6040516132ca9190614c9d565b60405180910390a1565b6132dd826129c0565b61331c576040517f08c379a000000000000000000000000000000000000000000000000000000000815260040161331390616da9565b60405180910390fd5b80600e600084815260200190815260200160002090805190602001906133439291906149a2565b505050565b60006133578360000183613b39565b60001c905092915050565b61336d848484612d26565b61337984848484613b64565b6133b8576040517f08c379a00000000000000000000000000000000000000000000000000000000081526004016133af90616e3b565b60405180910390fd5b50505050565b6060601080546133cd90615204565b80601f01602080910402602001604051908101604052809291908181526020018280546133f990615204565b80156134465780601f1061341b57610100808354040283529160200191613446565b820191906000526020600020905b81548152906001019060200180831161342957829003601f168201915b5050505050905090565b606061345b826129c0565b61349a576040517f08c379a000000000000000000000000000000000000000000000000000000000815260040161349190616ecd565b60405180910390fd5b60006134a46133be565b905060008151116134c457604051806020016040528060008152506134ef565b806134ce84613cfb565b6040516020016134df9291906163e1565b6040516020818303038152906040525b915050919050565b600061350582600001613e5c565b9050919050565b613526828260405180602001604052806000815250613e6d565b5050565b61353382610e7f565b6135448161353f612aa6565b613795565b61354e8383613832565b505050565b61355d8282611884565b61362f57600180600084815260200190815260200160002060000160008373ffffffffffffffffffffffffffffffffffffffff1673ffffffffffffffffffffffffffffffffffffffff16815260200190815260200160002060006101000a81548160ff0219169083151502179055506135d4612aa6565b73ffffffffffffffffffffffffffffffffffffffff168173ffffffffffffffffffffffffffffffffffffffff16837f2f8788117e7eff1d82e926ec794901d17c78024a50270940304540a733656f0d60405160405180910390a45b5050565b600061363f8383613ec8565b61369857826000018290806001815401808255809150506001900390600052602060002001600090919091909150558260000180549050836001016000848152602001908152602001600020819055506001905061369d565b600090505b92915050565b60007f80ac58cd000000000000000000000000000000000000000000000000000000007bffffffffffffffffffffffffffffffffffffffffffffffffffffffff1916827bffffffffffffffffffffffffffffffffffffffffffffffffffffffff1916148061376e57507f5b5e139f000000000000000000000000000000000000000000000000000000007bffffffffffffffffffffffffffffffffffffffffffffffffffffffff1916827bffffffffffffffffffffffffffffffffffffffffffffffffffffffff1916145b8061377e575061377d82613eeb565b5b9050919050565b613790838383613f65565b505050565b61379f8282611884565b61382e576137c48173ffffffffffffffffffffffffffffffffffffffff166014613fbd565b6137d28360001c6020613fbd565b6040516020016137e3929190616f85565b6040516020818303038152906040526040517f08c379a00000000000000000000000000000000000000000000000000000000081526004016138259190614c3a565b60405180910390fd5b5050565b61383c8282611884565b156139105760006001600084815260200190815260200160002060000160008373ffffffffffffffffffffffffffffffffffffffff1673ffffffffffffffffffffffffffffffffffffffff16815260200190815260200160002060006101000a81548160ff0219169083151502179055506138b5612aa6565b73ffffffffffffffffffffffffffffffffffffffff168173ffffffffffffffffffffffffffffffffffffffff16837ff6391f5c32d9c69d2a47ea670b442974b53935d1edc7fd64eb21e047a839171b60405160405180910390a45b5050565b60008083600101600084815260200190815260200160002054905060008114613a1c5760006001826139469190616b1d565b905060006001866000018054905061395e9190616b1d565b90508181146139cd57600086600001828154811061397f5761397e6159e6565b5b90600052602060002001549050808760000184815481106139a3576139a26159e6565b5b90600052602060002001819055508387600101600083815260200190815260200160002081905550505b856000018054806139e1576139e0616fbf565b5b600190038181906000526020600020016000905590558560010160008681526020019081526020016000206000905560019350505050613a22565b60009150505b92915050565b6000613a33826111e8565b9050613a4181600084613785565b613a4c600083612aae565b6001600660008373ffffffffffffffffffffffffffffffffffffffff1673ffffffffffffffffffffffffffffffffffffffff1681526020019081526020016000206000828254613a9c9190616b1d565b925050819055506005600083815260200190815260200160002060006101000a81549073ffffffffffffffffffffffffffffffffffffffff021916905581600073ffffffffffffffffffffffffffffffffffffffff168273ffffffffffffffffffffffffffffffffffffffff167fddf252ad1be2c89b69c2b068fc378daa952ba7f163c4a11628f55a4df523b3ef60405160405180910390a45050565b6000826000018281548110613b5157613b506159e6565b5b9060005260206000200154905092915050565b6000613b858473ffffffffffffffffffffffffffffffffffffffff166141f9565b15613cee578373ffffffffffffffffffffffffffffffffffffffff1663150b7a02613bae612aa6565b8786866040518563ffffffff1660e01b8152600401613bd09493929190617043565b602060405180830381600087803b158015613bea57600080fd5b505af1925050508015613c1b57506040513d601f19601f82011682018060405250810190613c1891906170a4565b60015b613c9e573d8060008114613c4b576040519150601f19603f3d011682016040523d82523d6000602084013e613c50565b606091505b50600081511415613c96576040517f08c379a0000000000000000000000000000000000000000000000000000000008152600401613c8d90616e3b565b60405180910390fd5b805181602001fd5b63150b7a0260e01b7bffffffffffffffffffffffffffffffffffffffffffffffffffffffff1916817bffffffffffffffffffffffffffffffffffffffffffffffffffffffff191614915050613cf3565b600190505b949350505050565b60606000821415613d43576040518060400160405280600181526020017f30000000000000000000000000000000000000000000000000000000000000008152509050613e57565b600082905060005b60008214613d75578080613d5e906170d1565b915050600a82613d6e9190617149565b9150613d4b565b60008167ffffffffffffffff811115613d9157613d90614fe7565b5b6040519080825280601f01601f191660200182016040528015613dc35781602001600182028036833780820191505090505b5090505b60008514613e5057600182613ddc9190616b1d565b9150600a85613deb919061717a565b6030613df79190616b51565b60f81b818381518110613e0d57613e0c6159e6565b5b60200101907effffffffffffffffffffffffffffffffffffffffffffffffffffffffffffff1916908160001a905350600a85613e499190617149565b9450613dc7565b8093505050505b919050565b600081600001805490509050919050565b613e77838361420c565b613e846000848484613b64565b613ec3576040517f08c379a0000000000000000000000000000000000000000000000000000000008152600401613eba90616e3b565b60405180910390fd5b505050565b600080836001016000848152602001908152602001600020541415905092915050565b60007f5a05180f000000000000000000000000000000000000000000000000000000007bffffffffffffffffffffffffffffffffffffffffffffffffffffffff1916827bffffffffffffffffffffffffffffffffffffffffffffffffffffffff19161480613f5e5750613f5d826143da565b5b9050919050565b613f70838383614454565b613f786111d1565b15613fb8576040517f08c379a0000000000000000000000000000000000000000000000000000000008152600401613faf9061721d565b60405180910390fd5b505050565b606060006002836002613fd0919061723d565b613fda9190616b51565b67ffffffffffffffff811115613ff357613ff2614fe7565b5b6040519080825280601f01601f1916602001820160405280156140255781602001600182028036833780820191505090505b5090507f30000000000000000000000000000000000000000000000000000000000000008160008151811061405d5761405c6159e6565b5b60200101907effffffffffffffffffffffffffffffffffffffffffffffffffffffffffffff1916908160001a9053507f7800000000000000000000000000000000000000000000000000000000000000816001815181106140c1576140c06159e6565b5b60200101907effffffffffffffffffffffffffffffffffffffffffffffffffffffffffffff1916908160001a90535060006001846002614101919061723d565b61410b9190616b51565b90505b60018111156141ab577f3031323334353637383961626364656600000000000000000000000000000000600f86166010811061414d5761414c6159e6565b5b1a60f81b828281518110614164576141636159e6565b5b60200101907effffffffffffffffffffffffffffffffffffffffffffffffffffffffffffff1916908160001a905350600485901c9450806141a490617297565b905061410e565b50600084146141ef576040517f08c379a00000000000000000000000000000000000000000000000000000000081526004016141e69061730d565b60405180910390fd5b8091505092915050565b600080823b905060008111915050919050565b600073ffffffffffffffffffffffffffffffffffffffff168273ffffffffffffffffffffffffffffffffffffffff16141561427c576040517f08c379a000000000000000000000000000000000000000000000000000000000815260040161427390617379565b60405180910390fd5b614285816129c0565b156142c5576040517f08c379a00000000000000000000000000000000000000000000000000000000081526004016142bc906173e5565b60405180910390fd5b6142d160008383613785565b6001600660008473ffffffffffffffffffffffffffffffffffffffff1673ffffffffffffffffffffffffffffffffffffffff16815260200190815260200160002060008282546143219190616b51565b92505081905550816005600083815260200190815260200160002060006101000a81548173ffffffffffffffffffffffffffffffffffffffff021916908373ffffffffffffffffffffffffffffffffffffffff160217905550808273ffffffffffffffffffffffffffffffffffffffff16600073ffffffffffffffffffffffffffffffffffffffff167fddf252ad1be2c89b69c2b068fc378daa952ba7f163c4a11628f55a4df523b3ef60405160405180910390a45050565b60007f7965db0b000000000000000000000000000000000000000000000000000000007bffffffffffffffffffffffffffffffffffffffffffffffffffffffff1916827bffffffffffffffffffffffffffffffffffffffffffffffffffffffff1916148061444d575061444c82614568565b5b9050919050565b61445f8383836145d2565b600073ffffffffffffffffffffffffffffffffffffffff168373ffffffffffffffffffffffffffffffffffffffff1614156144a25761449d816145d7565b6144e1565b8173ffffffffffffffffffffffffffffffffffffffff168373ffffffffffffffffffffffffffffffffffffffff16146144e0576144df8382614620565b5b5b600073ffffffffffffffffffffffffffffffffffffffff168273ffffffffffffffffffffffffffffffffffffffff1614156145245761451f8161478d565b614563565b8273ffffffffffffffffffffffffffffffffffffffff168273ffffffffffffffffffffffffffffffffffffffff161461456257614561828261485e565b5b5b505050565b60007f01ffc9a7000000000000000000000000000000000000000000000000000000007bffffffffffffffffffffffffffffffffffffffffffffffffffffffff1916827bffffffffffffffffffffffffffffffffffffffffffffffffffffffff1916149050919050565b505050565b600b80549050600c600083815260200190815260200160002081905550600b81908060018154018082558091505060019003906000526020600020016000909190919091505550565b6000600161462d8461129a565b6146379190616b1d565b90506000600a600084815260200190815260200160002054905081811461471c576000600960008673ffffffffffffffffffffffffffffffffffffffff1673ffffffffffffffffffffffffffffffffffffffff168152602001908152602001600020600084815260200190815260200160002054905080600960008773ffffffffffffffffffffffffffffffffffffffff1673ffffffffffffffffffffffffffffffffffffffff16815260200190815260200160002060008481526020019081526020016000208190555081600a600083815260200190815260200160002081905550505b600a600084815260200190815260200160002060009055600960008573ffffffffffffffffffffffffffffffffffffffff1673ffffffffffffffffffffffffffffffffffffffff16815260200190815260200160002060008381526020019081526020016000206000905550505050565b60006001600b805490506147a19190616b1d565b90506000600c60008481526020019081526020016000205490506000600b83815481106147d1576147d06159e6565b5b9060005260206000200154905080600b83815481106147f3576147f26159e6565b5b906000526020600020018190555081600c600083815260200190815260200160002081905550600c600085815260200190815260200160002060009055600b80548061484257614841616fbf565b5b6001900381819060005260206000200160009055905550505050565b60006148698361129a565b905081600960008573ffffffffffffffffffffffffffffffffffffffff1673ffffffffffffffffffffffffffffffffffffffff16815260200190815260200160002060008381526020019081526020016000208190555080600a600084815260200190815260200160002081905550505050565b604051806101600160405280600060ff168152602001600060ff168152602001600061ffff168152602001600063ffffffff168152602001600063ffffffff168152602001600063ffffffff16815260200160008019168152602001600080191681526020016000801916815260200160008019168152602001600080191681525090565b50805461496e90615204565b6000825580601f10614980575061499f565b601f01602090049060005260206000209081019061499e9190614a28565b5b50565b8280546149ae90615204565b90600052602060002090601f0160209004810192826149d05760008555614a17565b82601f106149e957805160ff1916838001178555614a17565b82800160010185558215614a17579182015b82811115614a165782518255916020019190600101906149fb565b5b509050614a249190614a28565b5090565b5b80821115614a41576000816000905550600101614a29565b5090565b6000604051905090565b600080fd5b600080fd5b6000819050919050565b614a6c81614a59565b8114614a7757600080fd5b50565b600081359050614a8981614a63565b92915050565b600060208284031215614aa557614aa4614a4f565b5b6000614ab384828501614a7a565b91505092915050565b614ac581614a59565b82525050565b6000602082019050614ae06000830184614abc565b92915050565b60007fffffffff0000000000000000000000000000000000000000000000000000000082169050919050565b614b1b81614ae6565b8114614b2657600080fd5b50565b600081359050614b3881614b12565b92915050565b600060208284031215614b5457614b53614a4f565b5b6000614b6284828501614b29565b91505092915050565b60008115159050919050565b614b8081614b6b565b82525050565b6000602082019050614b9b6000830184614b77565b92915050565b600081519050919050565b600082825260208201905092915050565b60005b83811015614bdb578082015181840152602081019050614bc0565b83811115614bea576000848401525b50505050565b6000601f19601f8301169050919050565b6000614c0c82614ba1565b614c168185614bac565b9350614c26818560208601614bbd565b614c2f81614bf0565b840191505092915050565b60006020820190508181036000830152614c548184614c01565b905092915050565b600073ffffffffffffffffffffffffffffffffffffffff82169050919050565b6000614c8782614c5c565b9050919050565b614c9781614c7c565b82525050565b6000602082019050614cb26000830184614c8e565b92915050565b614cc181614c7c565b8114614ccc57600080fd5b50565b600081359050614cde81614cb8565b92915050565b60008060408385031215614cfb57614cfa614a4f565b5b6000614d0985828601614ccf565b9250506020614d1a85828601614a7a565b9150509250929050565b600080600060608486031215614d3d57614d3c614a4f565b5b6000614d4b86828701614ccf565b9350506020614d5c86828701614ccf565b9250506040614d6d86828701614a7a565b9150509250925092565b6000819050919050565b614d8a81614d77565b82525050565b6000602082019050614da56000830184614d81565b92915050565b614db481614d77565b8114614dbf57600080fd5b50565b600081359050614dd181614dab565b92915050565b600060208284031215614ded57614dec614a4f565b5b6000614dfb84828501614dc2565b91505092915050565b60008060408385031215614e1b57614e1a614a4f565b5b6000614e2985828601614dc2565b9250506020614e3a85828601614ccf565b9150509250929050565b600060208284031215614e5a57614e59614a4f565b5b6000614e6884828501614ccf565b91505092915050565b600080fd5b600080fd5b600080fd5b60008083601f840112614e9657614e95614e71565b5b8235905067ffffffffffffffff811115614eb357614eb2614e76565b5b602083019150836001820283011115614ecf57614ece614e7b565b5b9250929050565b600080600060408486031215614eef57614eee614a4f565b5b6000614efd86828701614a7a565b935050602084013567ffffffffffffffff811115614f1e57614f1d614a54565b5b614f2a86828701614e80565b92509250509250925092565b60008060408385031215614f4d57614f4c614a4f565b5b6000614f5b85828601614dc2565b9250506020614f6c85828601614a7a565b9150509250929050565b614f7f81614b6b565b8114614f8a57600080fd5b50565b600081359050614f9c81614f76565b92915050565b60008060408385031215614fb957614fb8614a4f565b5b6000614fc785828601614ccf565b9250506020614fd885828601614f8d565b9150509250929050565b600080fd5b7f4e487b7100000000000000000000000000000000000000000000000000000000600052604160045260246000fd5b61501f82614bf0565b810181811067ffffffffffffffff8211171561503e5761503d614fe7565b5b80604052505050565b6000615051614a45565b905061505d8282615016565b919050565b600067ffffffffffffffff82111561507d5761507c614fe7565b5b61508682614bf0565b9050602081019050919050565b82818337600083830152505050565b60006150b56150b084615062565b615047565b9050828152602081018484840111156150d1576150d0614fe2565b5b6150dc848285615093565b509392505050565b600082601f8301126150f9576150f8614e71565b5b81356151098482602086016150a2565b91505092915050565b6000806000806080858703121561512c5761512b614a4f565b5b600061513a87828801614ccf565b945050602061514b87828801614ccf565b935050604061515c87828801614a7a565b925050606085013567ffffffffffffffff81111561517d5761517c614a54565b5b615189878288016150e4565b91505092959194509250565b600080604083850312156151ac576151ab614a4f565b5b60006151ba85828601614ccf565b92505060206151cb85828601614ccf565b9150509250929050565b7f4e487b7100000000000000000000000000000000000000000000000000000000600052602260045260246000fd5b6000600282049050600182168061521c57607f821691505b602082108114156152305761522f6151d5565b5b50919050565b7f4552433732313a20617070726f76656420717565727920666f72206e6f6e657860008201527f697374656e7420746f6b656e0000000000000000000000000000000000000000602082015250565b6000615292602c83614bac565b915061529d82615236565b604082019050919050565b600060208201905081810360008301526152c181615285565b9050919050565b7f4552433732313a20617070726f76616c20746f2063757272656e74206f776e6560008201527f7200000000000000000000000000000000000000000000000000000000000000602082015250565b6000615324602183614bac565b915061532f826152c8565b604082019050919050565b6000602082019050818103600083015261535381615317565b9050919050565b7f4552433732313a20617070726f76652063616c6c6572206973206e6f74206f7760008201527f6e6572206e6f7220617070726f76656420666f7220616c6c0000000000000000602082015250565b60006153b6603883614bac565b91506153c18261535a565b604082019050919050565b600060208201905081810360008301526153e5816153a9565b9050919050565b7f5265656e7472616e637947756172643a207265656e7472616e742063616c6c00600082015250565b6000615422601f83614bac565b915061542d826153ec565b602082019050919050565b6000602082019050818103600083015261545181615415565b9050919050565b7f41543a4d4f442d4954413a4d757374206861766520545255535445445f41474560008201527f4e545f524f4c4500000000000000000000000000000000000000000000000000602082015250565b60006154b4602783614bac565b91506154bf82615458565b604082019050919050565b600060208201905081810360008301526154e3816154a7565b9050919050565b7f41543a4d4f442d4954413a54727573746564204167656e742066756e6374696f60008201527f6e207065726d616e656e746c792064697361626c6564202d2075736520616c6c60208201527f6f77616e6365202f207472616e7366657246726f6d207061747465726e000000604082015250565b600061556c605d83614bac565b9150615577826154ea565b606082019050919050565b6000602082019050818103600083015261559b8161555f565b9050919050565b7f41543a544154463a4173736574206e6f7420696e207472616e7366657272616260008201527f6c65207374617475730000000000000000000000000000000000000000000000602082015250565b60006155fe602983614bac565b9150615609826155a2565b604082019050919050565b6000602082019050818103600083015261562d816155f1565b9050919050565b7f41543a544154463a486f6c64657220697320636f6c642057616c6c6574000000600082015250565b600061566a601d83614bac565b915061567582615634565b602082019050919050565b600060208201905081810360008301526156998161565d565b9050919050565b7f41543a54463a5472616e736665722063616c6c6572206973206e6f74206f776e60008201527f6572206e6f7220617070726f7665640000000000000000000000000000000000602082015250565b60006156fc602f83614bac565b9150615707826156a0565b604082019050919050565b6000602082019050818103600083015261572b816156ef565b9050919050565b7f41543a54463a4173736574206e6f7420696e207472616e736665727261626c6560008201527f2073746174757300000000000000000000000000000000000000000000000000602082015250565b600061578e602783614bac565b915061579982615732565b604082019050919050565b600060208201905081810360008301526157bd81615781565b9050919050565b7f455243373231456e756d657261626c653a206f776e657220696e646578206f7560008201527f74206f6620626f756e6473000000000000000000000000000000000000000000602082015250565b6000615820602b83614bac565b915061582b826157c4565b604082019050919050565b6000602082019050818103600083015261584f81615813565b9050919050565b7f41543a55503a2043616c6c65722021686176652070617573657220726f6c6500600082015250565b600061588c601f83614bac565b915061589782615856565b602082019050919050565b600060208201905081810360008301526158bb8161587f565b9050919050565b7f4552433732314275726e61626c653a2063616c6c6572206973206e6f74206f7760008201527f6e6572206e6f7220617070726f76656400000000000000000000000000000000602082015250565b600061591e603083614bac565b9150615929826158c2565b604082019050919050565b6000602082019050818103600083015261594d81615911565b9050919050565b7f455243373231456e756d657261626c653a20676c6f62616c20696e646578206f60008201527f7574206f6620626f756e64730000000000000000000000000000000000000000602082015250565b60006159b0602c83614bac565b91506159bb82615954565b604082019050919050565b600060208201905081810360008301526159df816159a3565b9050919050565b7f4e487b7100000000000000000000000000000000000000000000000000000000600052603260045260246000fd5b7f4552433732313a206f776e657220717565727920666f72206e6f6e657869737460008201527f656e7420746f6b656e0000000000000000000000000000000000000000000000602082015250565b6000615a71602983614bac565b9150615a7c82615a15565b604082019050919050565b60006020820190508181036000830152615aa081615a64565b9050919050565b7f4552433732313a2062616c616e636520717565727920666f7220746865207a6560008201527f726f206164647265737300000000000000000000000000000000000000000000602082015250565b6000615b03602a83614bac565b9150615b0e82615aa7565b604082019050919050565b60006020820190508181036000830152615b3281615af6565b9050919050565b7f5061757361626c653a2070617573656400000000000000000000000000000000600082015250565b6000615b6f601083614bac565b9150615b7a82615b39565b602082019050919050565b60006020820190508181036000830152615b9e81615b62565b9050919050565b7f41543a443a5472616e736665722063616c6c657220216f776e6572206e6f722060008201527f617070726f766564000000000000000000000000000000000000000000000000602082015250565b6000615c01602883614bac565b9150615c0c82615ba5565b604082019050919050565b60006020820190508181036000830152615c3081615bf4565b9050919050565b6000604082019050615c4c6000830185614d81565b615c596020830184614c8e565b9392505050565b7f41543a503a2043616c6c65722021686176652070617573657220726f6c650000600082015250565b6000615c96601e83614bac565b9150615ca182615c60565b602082019050919050565b60006020820190508181036000830152615cc581615c89565b9050919050565b600063ffffffff82169050919050565b615ce581615ccc565b82525050565b6000819050919050565b600060ff82169050919050565b6000819050919050565b6000615d27615d22615d1d84615ceb565b615d02565b615cf5565b9050919050565b615d3781615d0c565b82525050565b6000604082019050615d526000830185615cdc565b615d5f6020830184615d2e565b9392505050565b600081519050615d7581614a63565b92915050565b600060208284031215615d9157615d90614a4f565b5b6000615d9f84828501615d66565b91505092915050565b7f41543a53553a555249206973207365742c20616e6420696d6d757461626c6500600082015250565b6000615dde601f83614bac565b9150615de982615da8565b602082019050919050565b60006020820190508181036000830152615e0d81615dd1565b9050919050565b6000615e2f615e2a615e2584615ccc565b615d02565b614a59565b9050919050565b615e3f81615e14565b82525050565b6000602082019050615e5a6000830184615e36565b92915050565b600081519050615e6f81614cb8565b92915050565b600060208284031215615e8b57615e8a614a4f565b5b6000615e9984828501615e60565b91505092915050565b7f41543a53553a43616c6c657220214e5448000000000000000000000000000000600082015250565b6000615ed8601183614bac565b9150615ee382615ea2565b602082019050919050565b60006020820190508181036000830152615f0781615ecb565b9050919050565b7f41543a53553a43616c6c657220216f776e6572206e6f7220617070726f766564600082015250565b6000615f44602083614bac565b9150615f4f82615f0e565b602082019050919050565b60006020820190508181036000830152615f7381615f37565b9050919050565b7f4552433732313a20617070726f766520746f2063616c6c657200000000000000600082015250565b6000615fb0601983614bac565b9150615fbb82615f7a565b602082019050919050565b60006020820190508181036000830152615fdf81615fa3565b9050919050565b6000819050919050565b600061600b61600661600184615fe6565b615d02565b615ccc565b9050919050565b61601b81615ff0565b82525050565b60006040820190506160366000830185614c8e565b6160436020830184616012565b9392505050565b61605381615cf5565b811461605e57600080fd5b50565b6000815190506160708161604a565b92915050565b60008151905061608581614dab565b92915050565b600080604083850312156160a2576160a1614a4f565b5b60006160b085828601616061565b92505060206160c185828601616076565b9150509250929050565b7f41543a5354463a5472616e736665722063616c6c657220216f776e6572206e6f60008201527f7220617070726f76656400000000000000000000000000000000000000000000602082015250565b6000616127602a83614bac565b9150616132826160cb565b604082019050919050565b600060208201905081810360008301526161568161611a565b9050919050565b7f41543a5354463a43616e6e6f742073656e64207374617475732037302061737360008201527f657420746f20756e617574686f72697a65642061646472657373000000000000602082015250565b60006161b9603a83614bac565b91506161c48261615d565b604082019050919050565b600060208201905081810360008301526161e8816161ac565b9050919050565b7f41543a5354463a41737365742021696e207472616e736665727261626c65207360008201527f7461747573000000000000000000000000000000000000000000000000000000602082015250565b600061624b602583614bac565b9150616256826161ef565b604082019050919050565b6000602082019050818103600083015261627a8161623e565b9050919050565b7f41543a5354463a43616e6e6f74207472616e7366657220617373657420746f2060008201527f7a65726f20616464726573732e2055736520646973636172642e000000000000602082015250565b60006162dd603a83614bac565b91506162e882616281565b604082019050919050565b6000602082019050818103600083015261630c816162d0565b9050919050565b7f41543a54553a2055524920717565727920666f72206e6f6e6578697374656e7460008201527f20746f6b656e0000000000000000000000000000000000000000000000000000602082015250565b600061636f602683614bac565b915061637a82616313565b604082019050919050565b6000602082019050818103600083015261639e81616362565b9050919050565b600081905092915050565b60006163bb82614ba1565b6163c581856163a5565b93506163d5818560208601614bbd565b80840191505092915050565b60006163ed82856163b0565b91506163f982846163b0565b91508190509392505050565b7f41543a4d4f442d494d3a43616c6c696e67206164647265737320646f6573206e60008201527f6f742062656c6f6e6720746f2061206d696e7465720000000000000000000000602082015250565b6000616461603583614bac565b915061646c82616405565b604082019050919050565b6000602082019050818103600083015261649081616454565b9050919050565b7f41543a4d4f442d4943413a43616c6c696e67206164647265737320646f65732060008201527f6e6f742062656c6f6e6720746f206120636f6e74726163742061646d696e0000602082015250565b60006164f3603e83614bac565b91506164fe82616497565b604082019050919050565b60006020820190508181036000830152616522816164e6565b9050919050565b7f41543a5441423a486f6c64657220697320636f6c642057616c6c657400000000600082015250565b600061655f601c83614bac565b915061656a82616529565b602082019050919050565b6000602082019050818103600083015261658e81616552565b9050919050565b7f41543a5353433a53746f726167652061646472657373203d2030000000000000600082015250565b60006165cb601a83614bac565b91506165d682616595565b602082019050919050565b600060208201905081810360008301526165fa816165be565b9050919050565b7f52434c5200000000000000000000000000000000000000000000000000000000600082015250565b6000616637600483614bac565b915061664282616601565b602082019050919050565b600060208201905081810360008301526166668161662a565b9050919050565b7f4e4f44455f4d4752000000000000000000000000000000000000000000000000600082015250565b60006166a3600883614bac565b91506166ae8261666d565b602082019050919050565b600060208201905081810360008301526166d281616696565b9050919050565b7f4e4f44455f544b4e000000000000000000000000000000000000000000000000600082015250565b600061670f600883614bac565b915061671a826166d9565b602082019050919050565b6000602082019050818103600083015261673e81616702565b9050919050565b600080fd5b600061ffff82169050919050565b6167618161674a565b811461676c57600080fd5b50565b60008151905061677e81616758565b92915050565b61678d81615ccc565b811461679857600080fd5b50565b6000815190506167aa81616784565b92915050565b600061016082840312156167c7576167c6616745565b5b6167d2610160615047565b905060006167e284828501616061565b60008301525060206167f684828501616061565b602083015250604061680a8482850161676f565b604083015250606061681e8482850161679b565b60608301525060806168328482850161679b565b60808301525060a06168468482850161679b565b60a08301525060c061685a84828501616076565b60c08301525060e061686e84828501616076565b60e08301525061010061688384828501616076565b6101008301525061012061689984828501616076565b610120830152506101406168af84828501616076565b6101408301525092915050565b600061016082840312156168d3576168d2614a4f565b5b60006168e1848285016167b0565b91505092915050565b6168f381615cf5565b82525050565b600061691461690f61690a84615cf5565b615d02565b614a59565b9050919050565b616924816168f9565b82525050565b600061694561694061693b8461674a565b615d02565b614a59565b9050919050565b6169558161692a565b82525050565b600060e082019050616970600083018a614d81565b61697d6020830189614d81565b61698a60408301886168ea565b6169976060830187615cdc565b6169a46080830186615cdc565b6169b160a083018561691b565b6169be60c083018461694c565b98975050505050505050565b7f4552433732313a207472616e73666572206f6620746f6b656e2074686174206960008201527f73206e6f74206f776e0000000000000000000000000000000000000000000000602082015250565b6000616a26602983614bac565b9150616a31826169ca565b604082019050919050565b60006020820190508181036000830152616a5581616a19565b9050919050565b7f4552433732313a207472616e7366657220746f20746865207a65726f2061646460008201527f7265737300000000000000000000000000000000000000000000000000000000602082015250565b6000616ab8602483614bac565b9150616ac382616a5c565b604082019050919050565b60006020820190508181036000830152616ae781616aab565b9050919050565b7f4e487b7100000000000000000000000000000000000000000000000000000000600052601160045260246000fd5b6000616b2882614a59565b9150616b3383614a59565b925082821015616b4657616b45616aee565b5b828203905092915050565b6000616b5c82614a59565b9150616b6783614a59565b9250827fffffffffffffffffffffffffffffffffffffffffffffffffffffffffffffffff03821115616b9c57616b9b616aee565b5b828201905092915050565b7f4552433732313a206f70657261746f7220717565727920666f72206e6f6e657860008201527f697374656e7420746f6b656e0000000000000000000000000000000000000000602082015250565b6000616c03602c83614bac565b9150616c0e82616ba7565b604082019050919050565b60006020820190508181036000830152616c3281616bf6565b9050919050565b7f416363657373436f6e74726f6c3a2063616e206f6e6c792072656e6f756e636560008201527f20726f6c657320666f722073656c660000000000000000000000000000000000602082015250565b6000616c95602f83614bac565b9150616ca082616c39565b604082019050919050565b60006020820190508181036000830152616cc481616c88565b9050919050565b7f5061757361626c653a206e6f7420706175736564000000000000000000000000600082015250565b6000616d01601483614bac565b9150616d0c82616ccb565b602082019050919050565b60006020820190508181036000830152616d3081616cf4565b9050919050565b7f41543a5354553a2055524920736574206f66206e6f6e6578697374656e74207460008201527f6f6b656e00000000000000000000000000000000000000000000000000000000602082015250565b6000616d93602483614bac565b9150616d9e82616d37565b604082019050919050565b60006020820190508181036000830152616dc281616d86565b9050919050565b7f4552433732313a207472616e7366657220746f206e6f6e20455243373231526560008201527f63656976657220696d706c656d656e7465720000000000000000000000000000602082015250565b6000616e25603283614bac565b9150616e3082616dc9565b604082019050919050565b60006020820190508181036000830152616e5481616e18565b9050919050565b7f4552433732314d657461646174613a2055524920717565727920666f72206e6f60008201527f6e6578697374656e7420746f6b656e0000000000000000000000000000000000602082015250565b6000616eb7602f83614bac565b9150616ec282616e5b565b604082019050919050565b60006020820190508181036000830152616ee681616eaa565b9050919050565b7f416363657373436f6e74726f6c3a206163636f756e7420000000000000000000600082015250565b6000616f236017836163a5565b9150616f2e82616eed565b601782019050919050565b7f206973206d697373696e6720726f6c6520000000000000000000000000000000600082015250565b6000616f6f6011836163a5565b9150616f7a82616f39565b601182019050919050565b6000616f9082616f16565b9150616f9c82856163b0565b9150616fa782616f62565b9150616fb382846163b0565b91508190509392505050565b7f4e487b7100000000000000000000000000000000000000000000000000000000600052603160045260246000fd5b600081519050919050565b600082825260208201905092915050565b600061701582616fee565b61701f8185616ff9565b935061702f818560208601614bbd565b61703881614bf0565b840191505092915050565b60006080820190506170586000830187614c8e565b6170656020830186614c8e565b6170726040830185614abc565b8181036060830152617084818461700a565b905095945050505050565b60008151905061709e81614b12565b92915050565b6000602082840312156170ba576170b9614a4f565b5b60006170c88482850161708f565b91505092915050565b60006170dc82614a59565b91507fffffffffffffffffffffffffffffffffffffffffffffffffffffffffffffffff82141561710f5761710e616aee565b5b600182019050919050565b7f4e487b7100000000000000000000000000000000000000000000000000000000600052601260045260246000fd5b600061715482614a59565b915061715f83614a59565b92508261716f5761716e61711a565b5b828204905092915050565b600061718582614a59565b915061719083614a59565b9250826171a05761719f61711a565b5b828206905092915050565b7f4552433732315061757361626c653a20746f6b656e207472616e73666572207760008201527f68696c6520706175736564000000000000000000000000000000000000000000602082015250565b6000617207602b83614bac565b9150617212826171ab565b604082019050919050565b60006020820190508181036000830152617236816171fa565b9050919050565b600061724882614a59565b915061725383614a59565b9250817fffffffffffffffffffffffffffffffffffffffffffffffffffffffffffffffff048311821515161561728c5761728b616aee565b5b828202905092915050565b60006172a282614a59565b915060008214156172b6576172b5616aee565b5b600182039050919050565b7f537472696e67733a20686578206c656e67746820696e73756666696369656e74600082015250565b60006172f7602083614bac565b9150617302826172c1565b602082019050919050565b60006020820190508181036000830152617326816172ea565b9050919050565b7f4552433732313a206d696e7420746f20746865207a65726f2061646472657373600082015250565b6000617363602083614bac565b915061736e8261732d565b602082019050919050565b6000602082019050818103600083015261739281617356565b9050919050565b7f4552433732313a20746f6b656e20616c7265616479206d696e74656400000000600082015250565b60006173cf601c83614bac565b91506173da82617399565b602082019050919050565b600060208201905081810360008301526173fe816173c2565b905091905056fea2646970667358221220fcfd5f9c09346623a302eb5de7f05683f0dc222c3d95951d57168272b68439d664736f6c63430008090033",
			"opcodes": "PUSH1 0x80 PUSH1 0x40 MSTORE PUSH1 0x1 PUSH1 0x11 SSTORE CALLVALUE DUP1 ISZERO PUSH3 0x16 JUMPI PUSH1 0x0 DUP1 REVERT JUMPDEST POP PUSH1 0x40 MLOAD DUP1 PUSH1 0x40 ADD PUSH1 0x40 MSTORE DUP1 PUSH1 0x10 DUP2 MSTORE PUSH1 0x20 ADD PUSH32 0x5052554620417373657420546F6B656E00000000000000000000000000000000 DUP2 MSTORE POP PUSH1 0x40 MLOAD DUP1 PUSH1 0x40 ADD PUSH1 0x40 MSTORE DUP1 PUSH1 0x4 DUP2 MSTORE PUSH1 0x20 ADD PUSH32 0x5052415400000000000000000000000000000000000000000000000000000000 DUP2 MSTORE POP PUSH1 0x1 PUSH1 0x0 DUP2 SWAP1 SSTORE POP DUP2 PUSH1 0x3 SWAP1 DUP1 MLOAD SWAP1 PUSH1 0x20 ADD SWAP1 PUSH3 0xA3 SWAP3 SWAP2 SWAP1 PUSH3 0x41D JUMP JUMPDEST POP DUP1 PUSH1 0x4 SWAP1 DUP1 MLOAD SWAP1 PUSH1 0x20 ADD SWAP1 PUSH3 0xBC SWAP3 SWAP2 SWAP1 PUSH3 0x41D JUMP JUMPDEST POP POP POP PUSH1 0x0 PUSH1 0xD PUSH1 0x0 PUSH2 0x100 EXP DUP2 SLOAD DUP2 PUSH1 0xFF MUL NOT AND SWAP1 DUP4 ISZERO ISZERO MUL OR SWAP1 SSTORE POP PUSH3 0xFE PUSH1 0x0 DUP1 SHL PUSH3 0xF2 PUSH3 0x186 PUSH1 0x20 SHL PUSH1 0x20 SHR JUMP JUMPDEST PUSH3 0x18E PUSH1 0x20 SHL PUSH1 0x20 SHR JUMP JUMPDEST PUSH3 0x13F PUSH32 0x2CE8D04A9C35987429AF538825CD2438CC5C5BB5DC427955F84DAAA3EA105016 PUSH3 0x133 PUSH3 0x186 PUSH1 0x20 SHL PUSH1 0x20 SHR JUMP JUMPDEST PUSH3 0x18E PUSH1 0x20 SHL PUSH1 0x20 SHR JUMP JUMPDEST PUSH3 0x180 PUSH32 0x65D7A28E3265B37A6474929F336521B332C1681B933F6CB9F3376673440D862A PUSH3 0x174 PUSH3 0x186 PUSH1 0x20 SHL PUSH1 0x20 SHR JUMP JUMPDEST PUSH3 0x18E PUSH1 0x20 SHL PUSH1 0x20 SHR JUMP JUMPDEST PUSH3 0x532 JUMP JUMPDEST PUSH1 0x0 CALLER SWAP1 POP SWAP1 JUMP JUMPDEST PUSH3 0x1A5 DUP3 DUP3 PUSH3 0x1D6 PUSH1 0x20 SHL PUSH3 0x2982 OR PUSH1 0x20 SHR JUMP JUMPDEST PUSH3 0x1D1 DUP2 PUSH1 0x2 PUSH1 0x0 DUP6 DUP2 MSTORE PUSH1 0x20 ADD SWAP1 DUP2 MSTORE PUSH1 0x20 ADD PUSH1 0x0 KECCAK256 PUSH3 0x1EC PUSH1 0x20 SHL PUSH3 0x2990 OR SWAP1 SWAP2 SWAP1 PUSH1 0x20 SHR JUMP JUMPDEST POP POP POP JUMP JUMPDEST PUSH3 0x1E8 DUP3 DUP3 PUSH3 0x224 PUSH1 0x20 SHL PUSH1 0x20 SHR JUMP JUMPDEST POP POP JUMP JUMPDEST PUSH1 0x0 PUSH3 0x21C DUP4 PUSH1 0x0 ADD DUP4 PUSH20 0xFFFFFFFFFFFFFFFFFFFFFFFFFFFFFFFFFFFFFFFF AND PUSH1 0x0 SHL PUSH3 0x315 PUSH1 0x20 SHL PUSH1 0x20 SHR JUMP JUMPDEST SWAP1 POP SWAP3 SWAP2 POP POP JUMP JUMPDEST PUSH3 0x236 DUP3 DUP3 PUSH3 0x38F PUSH1 0x20 SHL PUSH1 0x20 SHR JUMP JUMPDEST PUSH3 0x311 JUMPI PUSH1 0x1 DUP1 PUSH1 0x0 DUP5 DUP2 MSTORE PUSH1 0x20 ADD SWAP1 DUP2 MSTORE PUSH1 0x20 ADD PUSH1 0x0 KECCAK256 PUSH1 0x0 ADD PUSH1 0x0 DUP4 PUSH20 0xFFFFFFFFFFFFFFFFFFFFFFFFFFFFFFFFFFFFFFFF AND PUSH20 0xFFFFFFFFFFFFFFFFFFFFFFFFFFFFFFFFFFFFFFFF AND DUP2 MSTORE PUSH1 0x20 ADD SWAP1 DUP2 MSTORE PUSH1 0x20 ADD PUSH1 0x0 KECCAK256 PUSH1 0x0 PUSH2 0x100 EXP DUP2 SLOAD DUP2 PUSH1 0xFF MUL NOT AND SWAP1 DUP4 ISZERO ISZERO MUL OR SWAP1 SSTORE POP PUSH3 0x2B6 PUSH3 0x186 PUSH1 0x20 SHL PUSH1 0x20 SHR JUMP JUMPDEST PUSH20 0xFFFFFFFFFFFFFFFFFFFFFFFFFFFFFFFFFFFFFFFF AND DUP2 PUSH20 0xFFFFFFFFFFFFFFFFFFFFFFFFFFFFFFFFFFFFFFFF AND DUP4 PUSH32 0x2F8788117E7EFF1D82E926EC794901D17C78024A50270940304540A733656F0D PUSH1 0x40 MLOAD PUSH1 0x40 MLOAD DUP1 SWAP2 SUB SWAP1 LOG4 JUMPDEST POP POP JUMP JUMPDEST PUSH1 0x0 PUSH3 0x329 DUP4 DUP4 PUSH3 0x3FA PUSH1 0x20 SHL PUSH1 0x20 SHR JUMP JUMPDEST PUSH3 0x384 JUMPI DUP3 PUSH1 0x0 ADD DUP3 SWAP1 DUP1 PUSH1 0x1 DUP2 SLOAD ADD DUP1 DUP3 SSTORE DUP1 SWAP2 POP POP PUSH1 0x1 SWAP1 SUB SWAP1 PUSH1 0x0 MSTORE PUSH1 0x20 PUSH1 0x0 KECCAK256 ADD PUSH1 0x0 SWAP1 SWAP2 SWAP1 SWAP2 SWAP1 SWAP2 POP SSTORE DUP3 PUSH1 0x0 ADD DUP1 SLOAD SWAP1 POP DUP4 PUSH1 0x1 ADD PUSH1 0x0 DUP5 DUP2 MSTORE PUSH1 0x20 ADD SWAP1 DUP2 MSTORE PUSH1 0x20 ADD PUSH1 0x0 KECCAK256 DUP2 SWAP1 SSTORE POP PUSH1 0x1 SWAP1 POP PUSH3 0x389 JUMP JUMPDEST PUSH1 0x0 SWAP1 POP JUMPDEST SWAP3 SWAP2 POP POP JUMP JUMPDEST PUSH1 0x0 PUSH1 0x1 PUSH1 0x0 DUP5 DUP2 MSTORE PUSH1 0x20 ADD SWAP1 DUP2 MSTORE PUSH1 0x20 ADD PUSH1 0x0 KECCAK256 PUSH1 0x0 ADD PUSH1 0x0 DUP4 PUSH20 0xFFFFFFFFFFFFFFFFFFFFFFFFFFFFFFFFFFFFFFFF AND PUSH20 0xFFFFFFFFFFFFFFFFFFFFFFFFFFFFFFFFFFFFFFFF AND DUP2 MSTORE PUSH1 0x20 ADD SWAP1 DUP2 MSTORE PUSH1 0x20 ADD PUSH1 0x0 KECCAK256 PUSH1 0x0 SWAP1 SLOAD SWAP1 PUSH2 0x100 EXP SWAP1 DIV PUSH1 0xFF AND SWAP1 POP SWAP3 SWAP2 POP POP JUMP JUMPDEST PUSH1 0x0 DUP1 DUP4 PUSH1 0x1 ADD PUSH1 0x0 DUP5 DUP2 MSTORE PUSH1 0x20 ADD SWAP1 DUP2 MSTORE PUSH1 0x20 ADD PUSH1 0x0 KECCAK256 SLOAD EQ ISZERO SWAP1 POP SWAP3 SWAP2 POP POP JUMP JUMPDEST DUP3 DUP1 SLOAD PUSH3 0x42B SWAP1 PUSH3 0x4FC JUMP JUMPDEST SWAP1 PUSH1 0x0 MSTORE PUSH1 0x20 PUSH1 0x0 KECCAK256 SWAP1 PUSH1 0x1F ADD PUSH1 0x20 SWAP1 DIV DUP2 ADD SWAP3 DUP3 PUSH3 0x44F JUMPI PUSH1 0x0 DUP6 SSTORE PUSH3 0x49B JUMP JUMPDEST DUP3 PUSH1 0x1F LT PUSH3 0x46A JUMPI DUP1 MLOAD PUSH1 0xFF NOT AND DUP4 DUP1 ADD OR DUP6 SSTORE PUSH3 0x49B JUMP JUMPDEST DUP3 DUP1 ADD PUSH1 0x1 ADD DUP6 SSTORE DUP3 ISZERO PUSH3 0x49B JUMPI SWAP2 DUP3 ADD JUMPDEST DUP3 DUP2 GT ISZERO PUSH3 0x49A JUMPI DUP3 MLOAD DUP3 SSTORE SWAP2 PUSH1 0x20 ADD SWAP2 SWAP1 PUSH1 0x1 ADD SWAP1 PUSH3 0x47D JUMP JUMPDEST JUMPDEST POP SWAP1 POP PUSH3 0x4AA SWAP2 SWAP1 PUSH3 0x4AE JUMP JUMPDEST POP SWAP1 JUMP JUMPDEST JUMPDEST DUP1 DUP3 GT ISZERO PUSH3 0x4C9 JUMPI PUSH1 0x0 DUP2 PUSH1 0x0 SWAP1 SSTORE POP PUSH1 0x1 ADD PUSH3 0x4AF JUMP JUMPDEST POP SWAP1 JUMP JUMPDEST PUSH32 0x4E487B7100000000000000000000000000000000000000000000000000000000 PUSH1 0x0 MSTORE PUSH1 0x22 PUSH1 0x4 MSTORE PUSH1 0x24 PUSH1 0x0 REVERT JUMPDEST PUSH1 0x0 PUSH1 0x2 DUP3 DIV SWAP1 POP PUSH1 0x1 DUP3 AND DUP1 PUSH3 0x515 JUMPI PUSH1 0x7F DUP3 AND SWAP2 POP JUMPDEST PUSH1 0x20 DUP3 LT DUP2 EQ ISZERO PUSH3 0x52C JUMPI PUSH3 0x52B PUSH3 0x4CD JUMP JUMPDEST JUMPDEST POP SWAP2 SWAP1 POP JUMP JUMPDEST PUSH2 0x743B DUP1 PUSH3 0x542 PUSH1 0x0 CODECOPY PUSH1 0x0 RETURN INVALID PUSH1 0x80 PUSH1 0x40 MSTORE CALLVALUE DUP1 ISZERO PUSH2 0x10 JUMPI PUSH1 0x0 DUP1 REVERT JUMPDEST POP PUSH1 0x4 CALLDATASIZE LT PUSH2 0x27E JUMPI PUSH1 0x0 CALLDATALOAD PUSH1 0xE0 SHR DUP1 PUSH4 0x70A08231 GT PUSH2 0x15C JUMPI DUP1 PUSH4 0xB88D4FDE GT PUSH2 0xCE JUMPI DUP1 PUSH4 0xD5391393 GT PUSH2 0x87 JUMPI DUP1 PUSH4 0xD5391393 EQ PUSH2 0x7BB JUMPI DUP1 PUSH4 0xD547741F EQ PUSH2 0x7D9 JUMPI DUP1 PUSH4 0xDC38B0A2 EQ PUSH2 0x7F5 JUMPI DUP1 PUSH4 0xE63AB1E9 EQ PUSH2 0x811 JUMPI DUP1 PUSH4 0xE985E9C5 EQ PUSH2 0x82F JUMPI DUP1 PUSH4 0xEE9C25C5 EQ PUSH2 0x85F JUMPI PUSH2 0x27E JUMP JUMPDEST DUP1 PUSH4 0xB88D4FDE EQ PUSH2 0x6D7 JUMPI DUP1 PUSH4 0xC87B56DD EQ PUSH2 0x6F3 JUMPI DUP1 PUSH4 0xCA15C873 EQ PUSH2 0x723 JUMPI DUP1 PUSH4 0xCC1E3818 EQ PUSH2 0x753 JUMPI DUP1 PUSH4 0xCF0B969F EQ PUSH2 0x783 JUMPI DUP1 PUSH4 0xD0AD0978 EQ PUSH2 0x79F JUMPI PUSH2 0x27E JUMP JUMPDEST DUP1 PUSH4 0x91D14854 GT PUSH2 0x120 JUMPI DUP1 PUSH4 0x91D14854 EQ PUSH2 0x627 JUMPI DUP1 PUSH4 0x95D89B41 EQ PUSH2 0x657 JUMPI DUP1 PUSH4 0x992A7176 EQ PUSH2 0x675 JUMPI DUP1 PUSH4 0xA217FDDF EQ PUSH2 0x693 JUMPI DUP1 PUSH4 0xA22CB465 EQ PUSH2 0x6B1 JUMPI DUP1 PUSH4 0xADFCAAE0 EQ PUSH2 0x6CD JUMPI PUSH2 0x27E JUMP JUMPDEST DUP1 PUSH4 0x70A08231 EQ PUSH2 0x571 JUMPI DUP1 PUSH4 0x7E8F2B0C EQ PUSH2 0x5A1 JUMPI DUP1 PUSH4 0x8456CB59 EQ PUSH2 0x5BD JUMPI DUP1 PUSH4 0x862440E2 EQ PUSH2 0x5C7 JUMPI DUP1 PUSH4 0x9010D07C EQ PUSH2 0x5F7 JUMPI PUSH2 0x27E JUMP JUMPDEST DUP1 PUSH4 0x2F2FF15D GT PUSH2 0x1F5 JUMPI DUP1 PUSH4 0x42842E0E GT PUSH2 0x1B9 JUMPI DUP1 PUSH4 0x42842E0E EQ PUSH2 0x48B JUMPI DUP1 PUSH4 0x42966C68 EQ PUSH2 0x4A7 JUMPI DUP1 PUSH4 0x4AC3C31B EQ PUSH2 0x4C3 JUMPI DUP1 PUSH4 0x4F6CCCE7 EQ PUSH2 0x4F3 JUMPI DUP1 PUSH4 0x5C975ABB EQ PUSH2 0x523 JUMPI DUP1 PUSH4 0x6352211E EQ PUSH2 0x541 JUMPI PUSH2 0x27E JUMP JUMPDEST DUP1 PUSH4 0x2F2FF15D EQ PUSH2 0x3FB JUMPI DUP1 PUSH4 0x2F745C59 EQ PUSH2 0x417 JUMPI DUP1 PUSH4 0x36568ABE EQ PUSH2 0x447 JUMPI DUP1 PUSH4 0x3B21FD68 EQ PUSH2 0x463 JUMPI DUP1 PUSH4 0x3F4BA83A EQ PUSH2 0x481 JUMPI PUSH2 0x27E JUMP JUMPDEST DUP1 PUSH4 0xB3048BF GT PUSH2 0x247 JUMPI DUP1 PUSH4 0xB3048BF EQ PUSH2 0x34D JUMPI DUP1 PUSH4 0x18160DDD EQ PUSH2 0x369 JUMPI DUP1 PUSH4 0x1DA03312 EQ PUSH2 0x387 JUMPI DUP1 PUSH4 0x23B872DD EQ PUSH2 0x3A5 JUMPI DUP1 PUSH4 0x248A9CA3 EQ PUSH2 0x3C1 JUMPI DUP1 PUSH4 0x2670D216 EQ PUSH2 0x3F1 JUMPI PUSH2 0x27E JUMP JUMPDEST DUP1 PUSH3 0x923F9E EQ PUSH2 0x283 JUMPI DUP1 PUSH4 0x1FFC9A7 EQ PUSH2 0x2B3 JUMPI DUP1 PUSH4 0x6FDDE03 EQ PUSH2 0x2E3 JUMPI DUP1 PUSH4 0x81812FC EQ PUSH2 0x301 JUMPI DUP1 PUSH4 0x95EA7B3 EQ PUSH2 0x331 JUMPI JUMPDEST PUSH1 0x0 DUP1 REVERT JUMPDEST PUSH2 0x29D PUSH1 0x4 DUP1 CALLDATASIZE SUB DUP2 ADD SWAP1 PUSH2 0x298 SWAP2 SWAP1 PUSH2 0x4A8F JUMP JUMPDEST PUSH2 0x869 JUMP JUMPDEST PUSH1 0x40 MLOAD PUSH2 0x2AA SWAP2 SWAP1 PUSH2 0x4ACB JUMP JUMPDEST PUSH1 0x40 MLOAD DUP1 SWAP2 SUB SWAP1 RETURN JUMPDEST PUSH2 0x2CD PUSH1 0x4 DUP1 CALLDATASIZE SUB DUP2 ADD SWAP1 PUSH2 0x2C8 SWAP2 SWAP1 PUSH2 0x4B3E JUMP JUMPDEST PUSH2 0x88C JUMP JUMPDEST PUSH1 0x40 MLOAD PUSH2 0x2DA SWAP2 SWAP1 PUSH2 0x4B86 JUMP JUMPDEST PUSH1 0x40 MLOAD DUP1 SWAP2 SUB SWAP1 RETURN JUMPDEST PUSH2 0x2EB PUSH2 0x89E JUMP JUMPDEST PUSH1 0x40 MLOAD PUSH2 0x2F8 SWAP2 SWAP1 PUSH2 0x4C3A JUMP JUMPDEST PUSH1 0x40 MLOAD DUP1 SWAP2 SUB SWAP1 RETURN JUMPDEST PUSH2 0x31B PUSH1 0x4 DUP1 CALLDATASIZE SUB DUP2 ADD SWAP1 PUSH2 0x316 SWAP2 SWAP1 PUSH2 0x4A8F JUMP JUMPDEST PUSH2 0x930 JUMP JUMPDEST PUSH1 0x40 MLOAD PUSH2 0x328 SWAP2 SWAP1 PUSH2 0x4C9D JUMP JUMPDEST PUSH1 0x40 MLOAD DUP1 SWAP2 SUB SWAP1 RETURN JUMPDEST PUSH2 0x34B PUSH1 0x4 DUP1 CALLDATASIZE SUB DUP2 ADD SWAP1 PUSH2 0x346 SWAP2 SWAP1 PUSH2 0x4CE4 JUMP JUMPDEST PUSH2 0x9B5 JUMP JUMPDEST STOP JUMPDEST PUSH2 0x367 PUSH1 0x4 DUP1 CALLDATASIZE SUB DUP2 ADD SWAP1 PUSH2 0x362 SWAP2 SWAP1 PUSH2 0x4D24 JUMP JUMPDEST PUSH2 0xACD JUMP JUMPDEST STOP JUMPDEST PUSH2 0x371 PUSH2 0xCEA JUMP JUMPDEST PUSH1 0x40 MLOAD PUSH2 0x37E SWAP2 SWAP1 PUSH2 0x4ACB JUMP JUMPDEST PUSH1 0x40 MLOAD DUP1 SWAP2 SUB SWAP1 RETURN JUMPDEST PUSH2 0x38F PUSH2 0xCF7 JUMP JUMPDEST PUSH1 0x40 MLOAD PUSH2 0x39C SWAP2 SWAP1 PUSH2 0x4D90 JUMP JUMPDEST PUSH1 0x40 MLOAD DUP1 SWAP2 SUB SWAP1 RETURN JUMPDEST PUSH2 0x3BF PUSH1 0x4 DUP1 CALLDATASIZE SUB DUP2 ADD SWAP1 PUSH2 0x3BA SWAP2 SWAP1 PUSH2 0x4D24 JUMP JUMPDEST PUSH2 0xD1B JUMP JUMPDEST STOP JUMPDEST PUSH2 0x3DB PUSH1 0x4 DUP1 CALLDATASIZE SUB DUP2 ADD SWAP1 PUSH2 0x3D6 SWAP2 SWAP1 PUSH2 0x4DD7 JUMP JUMPDEST PUSH2 0xE7F JUMP JUMPDEST PUSH1 0x40 MLOAD PUSH2 0x3E8 SWAP2 SWAP1 PUSH2 0x4D90 JUMP JUMPDEST PUSH1 0x40 MLOAD DUP1 SWAP2 SUB SWAP1 RETURN JUMPDEST PUSH2 0x3F9 PUSH2 0xE9F JUMP JUMPDEST STOP JUMPDEST PUSH2 0x415 PUSH1 0x4 DUP1 CALLDATASIZE SUB DUP2 ADD SWAP1 PUSH2 0x410 SWAP2 SWAP1 PUSH2 0x4E04 JUMP JUMPDEST PUSH2 0xEED JUMP JUMPDEST STOP JUMPDEST PUSH2 0x431 PUSH1 0x4 DUP1 CALLDATASIZE SUB DUP2 ADD SWAP1 PUSH2 0x42C SWAP2 SWAP1 PUSH2 0x4CE4 JUMP JUMPDEST PUSH2 0xF21 JUMP JUMPDEST PUSH1 0x40 MLOAD PUSH2 0x43E SWAP2 SWAP1 PUSH2 0x4ACB JUMP JUMPDEST PUSH1 0x40 MLOAD DUP1 SWAP2 SUB SWAP1 RETURN JUMPDEST PUSH2 0x461 PUSH1 0x4 DUP1 CALLDATASIZE SUB DUP2 ADD SWAP1 PUSH2 0x45C SWAP2 SWAP1 PUSH2 0x4E04 JUMP JUMPDEST PUSH2 0xFC6 JUMP JUMPDEST STOP JUMPDEST PUSH2 0x46B PUSH2 0xFFA JUMP JUMPDEST PUSH1 0x40 MLOAD PUSH2 0x478 SWAP2 SWAP1 PUSH2 0x4D90 JUMP JUMPDEST PUSH1 0x40 MLOAD DUP1 SWAP2 SUB SWAP1 RETURN JUMPDEST PUSH2 0x489 PUSH2 0x1021 JUMP JUMPDEST STOP JUMPDEST PUSH2 0x4A5 PUSH1 0x4 DUP1 CALLDATASIZE SUB DUP2 ADD SWAP1 PUSH2 0x4A0 SWAP2 SWAP1 PUSH2 0x4D24 JUMP JUMPDEST PUSH2 0x109B JUMP JUMPDEST STOP JUMPDEST PUSH2 0x4C1 PUSH1 0x4 DUP1 CALLDATASIZE SUB DUP2 ADD SWAP1 PUSH2 0x4BC SWAP2 SWAP1 PUSH2 0x4A8F JUMP JUMPDEST PUSH2 0x10BB JUMP JUMPDEST STOP JUMPDEST PUSH2 0x4DD PUSH1 0x4 DUP1 CALLDATASIZE SUB DUP2 ADD SWAP1 PUSH2 0x4D8 SWAP2 SWAP1 PUSH2 0x4E44 JUMP JUMPDEST PUSH2 0x1117 JUMP JUMPDEST PUSH1 0x40 MLOAD PUSH2 0x4EA SWAP2 SWAP1 PUSH2 0x4ACB JUMP JUMPDEST PUSH1 0x40 MLOAD DUP1 SWAP2 SUB SWAP1 RETURN JUMPDEST PUSH2 0x50D PUSH1 0x4 DUP1 CALLDATASIZE SUB DUP2 ADD SWAP1 PUSH2 0x508 SWAP2 SWAP1 PUSH2 0x4A8F JUMP JUMPDEST PUSH2 0x1160 JUMP JUMPDEST PUSH1 0x40 MLOAD PUSH2 0x51A SWAP2 SWAP1 PUSH2 0x4ACB JUMP JUMPDEST PUSH1 0x40 MLOAD DUP1 SWAP2 SUB SWAP1 RETURN JUMPDEST PUSH2 0x52B PUSH2 0x11D1 JUMP JUMPDEST PUSH1 0x40 MLOAD PUSH2 0x538 SWAP2 SWAP1 PUSH2 0x4B86 JUMP JUMPDEST PUSH1 0x40 MLOAD DUP1 SWAP2 SUB SWAP1 RETURN JUMPDEST PUSH2 0x55B PUSH1 0x4 DUP1 CALLDATASIZE SUB DUP2 ADD SWAP1 PUSH2 0x556 SWAP2 SWAP1 PUSH2 0x4A8F JUMP JUMPDEST PUSH2 0x11E8 JUMP JUMPDEST PUSH1 0x40 MLOAD PUSH2 0x568 SWAP2 SWAP1 PUSH2 0x4C9D JUMP JUMPDEST PUSH1 0x40 MLOAD DUP1 SWAP2 SUB SWAP1 RETURN JUMPDEST PUSH2 0x58B PUSH1 0x4 DUP1 CALLDATASIZE SUB DUP2 ADD SWAP1 PUSH2 0x586 SWAP2 SWAP1 PUSH2 0x4E44 JUMP JUMPDEST PUSH2 0x129A JUMP JUMPDEST PUSH1 0x40 MLOAD PUSH2 0x598 SWAP2 SWAP1 PUSH2 0x4ACB JUMP JUMPDEST PUSH1 0x40 MLOAD DUP1 SWAP2 SUB SWAP1 RETURN JUMPDEST PUSH2 0x5BB PUSH1 0x4 DUP1 CALLDATASIZE SUB DUP2 ADD SWAP1 PUSH2 0x5B6 SWAP2 SWAP1 PUSH2 0x4A8F JUMP JUMPDEST PUSH2 0x1352 JUMP JUMPDEST STOP JUMPDEST PUSH2 0x5C5 PUSH2 0x14EB JUMP JUMPDEST STOP JUMPDEST PUSH2 0x5E1 PUSH1 0x4 DUP1 CALLDATASIZE SUB DUP2 ADD SWAP1 PUSH2 0x5DC SWAP2 SWAP1 PUSH2 0x4ED6 JUMP JUMPDEST PUSH2 0x1565 JUMP JUMPDEST PUSH1 0x40 MLOAD PUSH2 0x5EE SWAP2 SWAP1 PUSH2 0x4ACB JUMP JUMPDEST PUSH1 0x40 MLOAD DUP1 SWAP2 SUB SWAP1 RETURN JUMPDEST PUSH2 0x611 PUSH1 0x4 DUP1 CALLDATASIZE SUB DUP2 ADD SWAP1 PUSH2 0x60C SWAP2 SWAP1 PUSH2 0x4F36 JUMP JUMPDEST PUSH2 0x1855 JUMP JUMPDEST PUSH1 0x40 MLOAD PUSH2 0x61E SWAP2 SWAP1 PUSH2 0x4C9D JUMP JUMPDEST PUSH1 0x40 MLOAD DUP1 SWAP2 SUB SWAP1 RETURN JUMPDEST PUSH2 0x641 PUSH1 0x4 DUP1 CALLDATASIZE SUB DUP2 ADD SWAP1 PUSH2 0x63C SWAP2 SWAP1 PUSH2 0x4E04 JUMP JUMPDEST PUSH2 0x1884 JUMP JUMPDEST PUSH1 0x40 MLOAD PUSH2 0x64E SWAP2 SWAP1 PUSH2 0x4B86 JUMP JUMPDEST PUSH1 0x40 MLOAD DUP1 SWAP2 SUB SWAP1 RETURN JUMPDEST PUSH2 0x65F PUSH2 0x18EF JUMP JUMPDEST PUSH1 0x40 MLOAD PUSH2 0x66C SWAP2 SWAP1 PUSH2 0x4C3A JUMP JUMPDEST PUSH1 0x40 MLOAD DUP1 SWAP2 SUB SWAP1 RETURN JUMPDEST PUSH2 0x67D PUSH2 0x1981 JUMP JUMPDEST PUSH1 0x40 MLOAD PUSH2 0x68A SWAP2 SWAP1 PUSH2 0x4D90 JUMP JUMPDEST PUSH1 0x40 MLOAD DUP1 SWAP2 SUB SWAP1 RETURN JUMPDEST PUSH2 0x69B PUSH2 0x19A5 JUMP JUMPDEST PUSH1 0x40 MLOAD PUSH2 0x6A8 SWAP2 SWAP1 PUSH2 0x4D90 JUMP JUMPDEST PUSH1 0x40 MLOAD DUP1 SWAP2 SUB SWAP1 RETURN JUMPDEST PUSH2 0x6CB PUSH1 0x4 DUP1 CALLDATASIZE SUB DUP2 ADD SWAP1 PUSH2 0x6C6 SWAP2 SWAP1 PUSH2 0x4FA2 JUMP JUMPDEST PUSH2 0x19AC JUMP JUMPDEST STOP JUMPDEST PUSH2 0x6D5 PUSH2 0x1B2D JUMP JUMPDEST STOP JUMPDEST PUSH2 0x6F1 PUSH1 0x4 DUP1 CALLDATASIZE SUB DUP2 ADD SWAP1 PUSH2 0x6EC SWAP2 SWAP1 PUSH2 0x5112 JUMP JUMPDEST PUSH2 0x1B7B JUMP JUMPDEST STOP JUMPDEST PUSH2 0x70D PUSH1 0x4 DUP1 CALLDATASIZE SUB DUP2 ADD SWAP1 PUSH2 0x708 SWAP2 SWAP1 PUSH2 0x4A8F JUMP JUMPDEST PUSH2 0x1E6F JUMP JUMPDEST PUSH1 0x40 MLOAD PUSH2 0x71A SWAP2 SWAP1 PUSH2 0x4C3A JUMP JUMPDEST PUSH1 0x40 MLOAD DUP1 SWAP2 SUB SWAP1 RETURN JUMPDEST PUSH2 0x73D PUSH1 0x4 DUP1 CALLDATASIZE SUB DUP2 ADD SWAP1 PUSH2 0x738 SWAP2 SWAP1 PUSH2 0x4DD7 JUMP JUMPDEST PUSH2 0x1FC1 JUMP JUMPDEST PUSH1 0x40 MLOAD PUSH2 0x74A SWAP2 SWAP1 PUSH2 0x4ACB JUMP JUMPDEST PUSH1 0x40 MLOAD DUP1 SWAP2 SUB SWAP1 RETURN JUMPDEST PUSH2 0x76D PUSH1 0x4 DUP1 CALLDATASIZE SUB DUP2 ADD SWAP1 PUSH2 0x768 SWAP2 SWAP1 PUSH2 0x4CE4 JUMP JUMPDEST PUSH2 0x1FE5 JUMP JUMPDEST PUSH1 0x40 MLOAD PUSH2 0x77A SWAP2 SWAP1 PUSH2 0x4ACB JUMP JUMPDEST PUSH1 0x40 MLOAD DUP1 SWAP2 SUB SWAP1 RETURN JUMPDEST PUSH2 0x79D PUSH1 0x4 DUP1 CALLDATASIZE SUB DUP2 ADD SWAP1 PUSH2 0x798 SWAP2 SWAP1 PUSH2 0x4A8F JUMP JUMPDEST PUSH2 0x20C0 JUMP JUMPDEST STOP JUMPDEST PUSH2 0x7B9 PUSH1 0x4 DUP1 CALLDATASIZE SUB DUP2 ADD SWAP1 PUSH2 0x7B4 SWAP2 SWAP1 PUSH2 0x4A8F JUMP JUMPDEST PUSH2 0x2145 JUMP JUMPDEST STOP JUMPDEST PUSH2 0x7C3 PUSH2 0x22F8 JUMP JUMPDEST PUSH1 0x40 MLOAD PUSH2 0x7D0 SWAP2 SWAP1 PUSH2 0x4D90 JUMP JUMPDEST PUSH1 0x40 MLOAD DUP1 SWAP2 SUB SWAP1 RETURN JUMPDEST PUSH2 0x7F3 PUSH1 0x4 DUP1 CALLDATASIZE SUB DUP2 ADD SWAP1 PUSH2 0x7EE SWAP2 SWAP1 PUSH2 0x4E04 JUMP JUMPDEST PUSH2 0x231C JUMP JUMPDEST STOP JUMPDEST PUSH2 0x80F PUSH1 0x4 DUP1 CALLDATASIZE SUB DUP2 ADD SWAP1 PUSH2 0x80A SWAP2 SWAP1 PUSH2 0x4E44 JUMP JUMPDEST PUSH2 0x2350 JUMP JUMPDEST STOP JUMPDEST PUSH2 0x819 PUSH2 0x2474 JUMP JUMPDEST PUSH1 0x40 MLOAD PUSH2 0x826 SWAP2 SWAP1 PUSH2 0x4D90 JUMP JUMPDEST PUSH1 0x40 MLOAD DUP1 SWAP2 SUB SWAP1 RETURN JUMPDEST PUSH2 0x849 PUSH1 0x4 DUP1 CALLDATASIZE SUB DUP2 ADD SWAP1 PUSH2 0x844 SWAP2 SWAP1 PUSH2 0x5195 JUMP JUMPDEST PUSH2 0x2498 JUMP JUMPDEST PUSH1 0x40 MLOAD PUSH2 0x856 SWAP2 SWAP1 PUSH2 0x4B86 JUMP JUMPDEST PUSH1 0x40 MLOAD DUP1 SWAP2 SUB SWAP1 RETURN JUMPDEST PUSH2 0x867 PUSH2 0x252C JUMP JUMPDEST STOP JUMPDEST PUSH1 0x0 PUSH2 0x874 DUP3 PUSH2 0x29C0 JUMP JUMPDEST ISZERO PUSH2 0x882 JUMPI PUSH1 0xAA SWAP1 POP PUSH2 0x887 JUMP JUMPDEST PUSH1 0x0 SWAP1 POP JUMPDEST SWAP2 SWAP1 POP JUMP JUMPDEST PUSH1 0x0 PUSH2 0x897 DUP3 PUSH2 0x2A2C JUMP JUMPDEST SWAP1 POP SWAP2 SWAP1 POP JUMP JUMPDEST PUSH1 0x60 PUSH1 0x3 DUP1 SLOAD PUSH2 0x8AD SWAP1 PUSH2 0x5204 JUMP JUMPDEST DUP1 PUSH1 0x1F ADD PUSH1 0x20 DUP1 SWAP2 DIV MUL PUSH1 0x20 ADD PUSH1 0x40 MLOAD SWAP1 DUP2 ADD PUSH1 0x40 MSTORE DUP1 SWAP3 SWAP2 SWAP1 DUP2 DUP2 MSTORE PUSH1 0x20 ADD DUP3 DUP1 SLOAD PUSH2 0x8D9 SWAP1 PUSH2 0x5204 JUMP JUMPDEST DUP1 ISZERO PUSH2 0x926 JUMPI DUP1 PUSH1 0x1F LT PUSH2 0x8FB JUMPI PUSH2 0x100 DUP1 DUP4 SLOAD DIV MUL DUP4 MSTORE SWAP2 PUSH1 0x20 ADD SWAP2 PUSH2 0x926 JUMP JUMPDEST DUP3 ADD SWAP2 SWAP1 PUSH1 0x0 MSTORE PUSH1 0x20 PUSH1 0x0 KECCAK256 SWAP1 JUMPDEST DUP2 SLOAD DUP2 MSTORE SWAP1 PUSH1 0x1 ADD SWAP1 PUSH1 0x20 ADD DUP1 DUP4 GT PUSH2 0x909 JUMPI DUP3 SWAP1 SUB PUSH1 0x1F AND DUP3 ADD SWAP2 JUMPDEST POP POP POP POP POP SWAP1 POP SWAP1 JUMP JUMPDEST PUSH1 0x0 PUSH2 0x93B DUP3 PUSH2 0x29C0 JUMP JUMPDEST PUSH2 0x97A JUMPI PUSH1 0x40 MLOAD PUSH32 0x8C379A000000000000000000000000000000000000000000000000000000000 DUP2 MSTORE PUSH1 0x4 ADD PUSH2 0x971 SWAP1 PUSH2 0x52A8 JUMP JUMPDEST PUSH1 0x40 MLOAD DUP1 SWAP2 SUB SWAP1 REVERT JUMPDEST PUSH1 0x7 PUSH1 0x0 DUP4 DUP2 MSTORE PUSH1 0x20 ADD SWAP1 DUP2 MSTORE PUSH1 0x20 ADD PUSH1 0x0 KECCAK256 PUSH1 0x0 SWAP1 SLOAD SWAP1 PUSH2 0x100 EXP SWAP1 DIV PUSH20 0xFFFFFFFFFFFFFFFFFFFFFFFFFFFFFFFFFFFFFFFF AND SWAP1 POP SWAP2 SWAP1 POP JUMP JUMPDEST PUSH1 0x0 PUSH2 0x9C0 DUP3 PUSH2 0x11E8 JUMP JUMPDEST SWAP1 POP DUP1 PUSH20 0xFFFFFFFFFFFFFFFFFFFFFFFFFFFFFFFFFFFFFFFF AND DUP4 PUSH20 0xFFFFFFFFFFFFFFFFFFFFFFFFFFFFFFFFFFFFFFFF AND EQ ISZERO PUSH2 0xA31 JUMPI PUSH1 0x40 MLOAD PUSH32 0x8C379A000000000000000000000000000000000000000000000000000000000 DUP2 MSTORE PUSH1 0x4 ADD PUSH2 0xA28 SWAP1 PUSH2 0x533A JUMP JUMPDEST PUSH1 0x40 MLOAD DUP1 SWAP2 SUB SWAP1 REVERT JUMPDEST DUP1 PUSH20 0xFFFFFFFFFFFFFFFFFFFFFFFFFFFFFFFFFFFFFFFF AND PUSH2 0xA50 PUSH2 0x2AA6 JUMP JUMPDEST PUSH20 0xFFFFFFFFFFFFFFFFFFFFFFFFFFFFFFFFFFFFFFFF AND EQ DUP1 PUSH2 0xA7F JUMPI POP PUSH2 0xA7E DUP2 PUSH2 0xA79 PUSH2 0x2AA6 JUMP JUMPDEST PUSH2 0x2498 JUMP JUMPDEST JUMPDEST PUSH2 0xABE JUMPI PUSH1 0x40 MLOAD PUSH32 0x8C379A000000000000000000000000000000000000000000000000000000000 DUP2 MSTORE PUSH1 0x4 ADD PUSH2 0xAB5 SWAP1 PUSH2 0x53CC JUMP JUMPDEST PUSH1 0x40 MLOAD DUP1 SWAP2 SUB SWAP1 REVERT JUMPDEST PUSH2 0xAC8 DUP4 DUP4 PUSH2 0x2AAE JUMP JUMPDEST POP POP POP JUMP JUMPDEST PUSH1 0x2 PUSH1 0x0 SLOAD EQ ISZERO PUSH2 0xB13 JUMPI PUSH1 0x40 MLOAD PUSH32 0x8C379A000000000000000000000000000000000000000000000000000000000 DUP2 MSTORE PUSH1 0x4 ADD PUSH2 0xB0A SWAP1 PUSH2 0x5438 JUMP JUMPDEST PUSH1 0x40 MLOAD DUP1 SWAP2 SUB SWAP1 REVERT JUMPDEST PUSH1 0x2 PUSH1 0x0 DUP2 SWAP1 SSTORE POP PUSH2 0xB4C PUSH32 0xEEED90AE47CD1F23B88CE446295F1CA23C5E4F5B894ADDBE83563FD27494E294 PUSH2 0xB47 PUSH2 0x2AA6 JUMP JUMPDEST PUSH2 0x1884 JUMP JUMPDEST PUSH2 0xB8B JUMPI PUSH1 0x40 MLOAD PUSH32 0x8C379A000000000000000000000000000000000000000000000000000000000 DUP2 MSTORE PUSH1 0x4 ADD PUSH2 0xB82 SWAP1 PUSH2 0x54CA JUMP JUMPDEST PUSH1 0x40 MLOAD DUP1 SWAP2 SUB SWAP1 REVERT JUMPDEST PUSH1 0x1 PUSH1 0x11 SLOAD EQ PUSH2 0xBD0 JUMPI PUSH1 0x40 MLOAD PUSH32 0x8C379A000000000000000000000000000000000000000000000000000000000 DUP2 MSTORE PUSH1 0x4 ADD PUSH2 0xBC7 SWAP1 PUSH2 0x5582 JUMP JUMPDEST PUSH1 0x40 MLOAD DUP1 SWAP2 SUB SWAP1 REVERT JUMPDEST PUSH1 0x0 DUP2 PUSH1 0x0 SHL SWAP1 POP PUSH1 0x0 PUSH2 0xBE3 DUP3 PUSH2 0x2B67 JUMP JUMPDEST SWAP1 POP PUSH1 0x33 DUP2 PUSH1 0x0 ADD MLOAD PUSH1 0xFF AND EQ PUSH2 0xC2F JUMPI PUSH1 0x40 MLOAD PUSH32 0x8C379A000000000000000000000000000000000000000000000000000000000 DUP2 MSTORE PUSH1 0x4 ADD PUSH2 0xC26 SWAP1 PUSH2 0x5614 JUMP JUMPDEST PUSH1 0x40 MLOAD DUP1 SWAP2 SUB SWAP1 REVERT JUMPDEST PUSH1 0xAA PUSH2 0xC42 PUSH2 0xC3D DUP6 PUSH2 0x11E8 JUMP JUMPDEST PUSH2 0x1117 JUMP JUMPDEST EQ ISZERO PUSH2 0xC83 JUMPI PUSH1 0x40 MLOAD PUSH32 0x8C379A000000000000000000000000000000000000000000000000000000000 DUP2 MSTORE PUSH1 0x4 ADD PUSH2 0xC7A SWAP1 PUSH2 0x5680 JUMP JUMPDEST PUSH1 0x40 MLOAD DUP1 SWAP2 SUB SWAP1 REVERT JUMPDEST PUSH1 0xAA DUP2 PUSH1 0x40 ADD SWAP1 PUSH2 0xFFFF AND SWAP1 DUP2 PUSH2 0xFFFF AND DUP2 MSTORE POP POP PUSH32 0xFFFFFFFFFFFFFFFFFFFFFFFFFFFFFFFFFFFFFFFFFFFFFFFFFFFFFFFFFFFFFFFF PUSH1 0x0 SHL DUP2 PUSH2 0x140 ADD DUP2 DUP2 MSTORE POP POP PUSH2 0xCD0 DUP3 DUP3 PUSH2 0x2C28 JUMP JUMPDEST PUSH2 0xCDB DUP6 DUP6 DUP6 PUSH2 0x2D26 JUMP JUMPDEST POP POP PUSH1 0x1 PUSH1 0x0 DUP2 SWAP1 SSTORE POP POP POP POP JUMP JUMPDEST PUSH1 0x0 PUSH1 0xB DUP1 SLOAD SWAP1 POP SWAP1 POP SWAP1 JUMP JUMPDEST PUSH32 0x2CE8D04A9C35987429AF538825CD2438CC5C5BB5DC427955F84DAAA3EA105016 DUP2 JUMP JUMPDEST PUSH1 0x2 PUSH1 0x0 SLOAD EQ ISZERO PUSH2 0xD61 JUMPI PUSH1 0x40 MLOAD PUSH32 0x8C379A000000000000000000000000000000000000000000000000000000000 DUP2 MSTORE PUSH1 0x4 ADD PUSH2 0xD58 SWAP1 PUSH2 0x5438 JUMP JUMPDEST PUSH1 0x40 MLOAD DUP1 SWAP2 SUB SWAP1 REVERT JUMPDEST PUSH1 0x2 PUSH1 0x0 DUP2 SWAP1 SSTORE POP PUSH1 0x0 DUP2 PUSH1 0x0 SHL SWAP1 POP PUSH1 0x0 PUSH2 0xD7C DUP3 PUSH2 0x2B67 JUMP JUMPDEST SWAP1 POP PUSH2 0xD8F PUSH2 0xD89 PUSH2 0x2AA6 JUMP JUMPDEST DUP5 PUSH2 0x2F82 JUMP JUMPDEST PUSH2 0xDCE JUMPI PUSH1 0x40 MLOAD PUSH32 0x8C379A000000000000000000000000000000000000000000000000000000000 DUP2 MSTORE PUSH1 0x4 ADD PUSH2 0xDC5 SWAP1 PUSH2 0x5712 JUMP JUMPDEST PUSH1 0x40 MLOAD DUP1 SWAP2 SUB SWAP1 REVERT JUMPDEST PUSH1 0x33 DUP2 PUSH1 0x0 ADD MLOAD PUSH1 0xFF AND EQ PUSH2 0xE18 JUMPI PUSH1 0x40 MLOAD PUSH32 0x8C379A000000000000000000000000000000000000000000000000000000000 DUP2 MSTORE PUSH1 0x4 ADD PUSH2 0xE0F SWAP1 PUSH2 0x57A4 JUMP JUMPDEST PUSH1 0x40 MLOAD DUP1 SWAP2 SUB SWAP1 REVERT JUMPDEST PUSH1 0xAA DUP2 PUSH1 0x40 ADD SWAP1 PUSH2 0xFFFF AND SWAP1 DUP2 PUSH2 0xFFFF AND DUP2 MSTORE POP POP PUSH32 0xFFFFFFFFFFFFFFFFFFFFFFFFFFFFFFFFFFFFFFFFFFFFFFFFFFFFFFFFFFFFFFFF PUSH1 0x0 SHL DUP2 PUSH2 0x140 ADD DUP2 DUP2 MSTORE POP POP PUSH2 0xE65 DUP3 DUP3 PUSH2 0x2C28 JUMP JUMPDEST PUSH2 0xE70 DUP6 DUP6 DUP6 PUSH2 0x2D26 JUMP JUMPDEST POP POP PUSH1 0x1 PUSH1 0x0 DUP2 SWAP1 SSTORE POP POP POP POP JUMP JUMPDEST PUSH1 0x0 PUSH1 0x1 PUSH1 0x0 DUP4 DUP2 MSTORE PUSH1 0x20 ADD SWAP1 DUP2 MSTORE PUSH1 0x20 ADD PUSH1 0x0 KECCAK256 PUSH1 0x1 ADD SLOAD SWAP1 POP SWAP2 SWAP1 POP JUMP JUMPDEST PUSH1 0x0 PUSH1 0x12 PUSH1 0x0 PUSH2 0xEAD PUSH2 0x2AA6 JUMP JUMPDEST PUSH20 0xFFFFFFFFFFFFFFFFFFFFFFFFFFFFFFFFFFFFFFFF AND PUSH20 0xFFFFFFFFFFFFFFFFFFFFFFFFFFFFFFFFFFFFFFFF AND DUP2 MSTORE PUSH1 0x20 ADD SWAP1 DUP2 MSTORE PUSH1 0x20 ADD PUSH1 0x0 KECCAK256 DUP2 SWAP1 SSTORE POP JUMP JUMPDEST PUSH2 0xEF7 DUP3 DUP3 PUSH2 0x3060 JUMP JUMPDEST PUSH2 0xF1C DUP2 PUSH1 0x2 PUSH1 0x0 DUP6 DUP2 MSTORE PUSH1 0x20 ADD SWAP1 DUP2 MSTORE PUSH1 0x20 ADD PUSH1 0x0 KECCAK256 PUSH2 0x2990 SWAP1 SWAP2 SWAP1 PUSH4 0xFFFFFFFF AND JUMP JUMPDEST POP POP POP JUMP JUMPDEST PUSH1 0x0 PUSH2 0xF2C DUP4 PUSH2 0x129A JUMP JUMPDEST DUP3 LT PUSH2 0xF6D JUMPI PUSH1 0x40 MLOAD PUSH32 0x8C379A000000000000000000000000000000000000000000000000000000000 DUP2 MSTORE PUSH1 0x4 ADD PUSH2 0xF64 SWAP1 PUSH2 0x5836 JUMP JUMPDEST PUSH1 0x40 MLOAD DUP1 SWAP2 SUB SWAP1 REVERT JUMPDEST PUSH1 0x9 PUSH1 0x0 DUP5 PUSH20 0xFFFFFFFFFFFFFFFFFFFFFFFFFFFFFFFFFFFFFFFF AND PUSH20 0xFFFFFFFFFFFFFFFFFFFFFFFFFFFFFFFFFFFFFFFF AND DUP2 MSTORE PUSH1 0x20 ADD SWAP1 DUP2 MSTORE PUSH1 0x20 ADD PUSH1 0x0 KECCAK256 PUSH1 0x0 DUP4 DUP2 MSTORE PUSH1 0x20 ADD SWAP1 DUP2 MSTORE PUSH1 0x20 ADD PUSH1 0x0 KECCAK256 SLOAD SWAP1 POP SWAP3 SWAP2 POP POP JUMP JUMPDEST PUSH2 0xFD0 DUP3 DUP3 PUSH2 0x3089 JUMP JUMPDEST PUSH2 0xFF5 DUP2 PUSH1 0x2 PUSH1 0x0 DUP6 DUP2 MSTORE PUSH1 0x20 ADD SWAP1 DUP2 MSTORE PUSH1 0x20 ADD PUSH1 0x0 KECCAK256 PUSH2 0x310C SWAP1 SWAP2 SWAP1 PUSH4 0xFFFFFFFF AND JUMP JUMPDEST POP POP POP JUMP JUMPDEST PUSH32 0xFFFFFFFFFFFFFFFFFFFFFFFFFFFFFFFFFFFFFFFFFFFFFFFFFFFFFFFFFFFFFFFF PUSH1 0x0 SHL DUP2 JUMP JUMPDEST PUSH2 0x1052 PUSH32 0x65D7A28E3265B37A6474929F336521B332C1681B933F6CB9F3376673440D862A PUSH2 0x104D PUSH2 0x2AA6 JUMP JUMPDEST PUSH2 0x1884 JUMP JUMPDEST PUSH2 0x1091 JUMPI PUSH1 0x40 MLOAD PUSH32 0x8C379A000000000000000000000000000000000000000000000000000000000 DUP2 MSTORE PUSH1 0x4 ADD PUSH2 0x1088 SWAP1 PUSH2 0x58A2 JUMP JUMPDEST PUSH1 0x40 MLOAD DUP1 SWAP2 SUB SWAP1 REVERT JUMPDEST PUSH2 0x1099 PUSH2 0x313C JUMP JUMPDEST JUMP JUMPDEST PUSH2 0x10B6 DUP4 DUP4 DUP4 PUSH1 0x40 MLOAD DUP1 PUSH1 0x20 ADD PUSH1 0x40 MSTORE DUP1 PUSH1 0x0 DUP2 MSTORE POP PUSH2 0x1B7B JUMP JUMPDEST POP POP POP JUMP JUMPDEST PUSH2 0x10CC PUSH2 0x10C6 PUSH2 0x2AA6 JUMP JUMPDEST DUP3 PUSH2 0x2F82 JUMP JUMPDEST PUSH2 0x110B JUMPI PUSH1 0x40 MLOAD PUSH32 0x8C379A000000000000000000000000000000000000000000000000000000000 DUP2 MSTORE PUSH1 0x4 ADD PUSH2 0x1102 SWAP1 PUSH2 0x5934 JUMP JUMPDEST PUSH1 0x40 MLOAD DUP1 SWAP2 SUB SWAP1 REVERT JUMPDEST PUSH2 0x1114 DUP2 PUSH2 0x31DE JUMP JUMPDEST POP JUMP JUMPDEST PUSH1 0x0 PUSH1 0x12 PUSH1 0x0 DUP4 PUSH20 0xFFFFFFFFFFFFFFFFFFFFFFFFFFFFFFFFFFFFFFFF AND PUSH20 0xFFFFFFFFFFFFFFFFFFFFFFFFFFFFFFFFFFFFFFFF AND DUP2 MSTORE PUSH1 0x20 ADD SWAP1 DUP2 MSTORE PUSH1 0x20 ADD PUSH1 0x0 KECCAK256 SLOAD SWAP1 POP SWAP2 SWAP1 POP JUMP JUMPDEST PUSH1 0x0 PUSH2 0x116A PUSH2 0xCEA JUMP JUMPDEST DUP3 LT PUSH2 0x11AB JUMPI PUSH1 0x40 MLOAD PUSH32 0x8C379A000000000000000000000000000000000000000000000000000000000 DUP2 MSTORE PUSH1 0x4 ADD PUSH2 0x11A2 SWAP1 PUSH2 0x59C6 JUMP JUMPDEST PUSH1 0x40 MLOAD DUP1 SWAP2 SUB SWAP1 REVERT JUMPDEST PUSH1 0xB DUP3 DUP2 SLOAD DUP2 LT PUSH2 0x11BF JUMPI PUSH2 0x11BE PUSH2 0x59E6 JUMP JUMPDEST JUMPDEST SWAP1 PUSH1 0x0 MSTORE PUSH1 0x20 PUSH1 0x0 KECCAK256 ADD SLOAD SWAP1 POP SWAP2 SWAP1 POP JUMP JUMPDEST PUSH1 0x0 PUSH1 0xD PUSH1 0x0 SWAP1 SLOAD SWAP1 PUSH2 0x100 EXP SWAP1 DIV PUSH1 0xFF AND SWAP1 POP SWAP1 JUMP JUMPDEST PUSH1 0x0 DUP1 PUSH1 0x5 PUSH1 0x0 DUP5 DUP2 MSTORE PUSH1 0x20 ADD SWAP1 DUP2 MSTORE PUSH1 0x20 ADD PUSH1 0x0 KECCAK256 PUSH1 0x0 SWAP1 SLOAD SWAP1 PUSH2 0x100 EXP SWAP1 DIV PUSH20 0xFFFFFFFFFFFFFFFFFFFFFFFFFFFFFFFFFFFFFFFF AND SWAP1 POP PUSH1 0x0 PUSH20 0xFFFFFFFFFFFFFFFFFFFFFFFFFFFFFFFFFFFFFFFF AND DUP2 PUSH20 0xFFFFFFFFFFFFFFFFFFFFFFFFFFFFFFFFFFFFFFFF AND EQ ISZERO PUSH2 0x1291 JUMPI PUSH1 0x40 MLOAD PUSH32 0x8C379A000000000000000000000000000000000000000000000000000000000 DUP2 MSTORE PUSH1 0x4 ADD PUSH2 0x1288 SWAP1 PUSH2 0x5A87 JUMP JUMPDEST PUSH1 0x40 MLOAD DUP1 SWAP2 SUB SWAP1 REVERT JUMPDEST DUP1 SWAP2 POP POP SWAP2 SWAP1 POP JUMP JUMPDEST PUSH1 0x0 DUP1 PUSH20 0xFFFFFFFFFFFFFFFFFFFFFFFFFFFFFFFFFFFFFFFF AND DUP3 PUSH20 0xFFFFFFFFFFFFFFFFFFFFFFFFFFFFFFFFFFFFFFFF AND EQ ISZERO PUSH2 0x130B JUMPI PUSH1 0x40 MLOAD PUSH32 0x8C379A000000000000000000000000000000000000000000000000000000000 DUP2 MSTORE PUSH1 0x4 ADD PUSH2 0x1302 SWAP1 PUSH2 0x5B19 JUMP JUMPDEST PUSH1 0x40 MLOAD DUP1 SWAP2 SUB SWAP1 REVERT JUMPDEST PUSH1 0x6 PUSH1 0x0 DUP4 PUSH20 0xFFFFFFFFFFFFFFFFFFFFFFFFFFFFFFFFFFFFFFFF AND PUSH20 0xFFFFFFFFFFFFFFFFFFFFFFFFFFFFFFFFFFFFFFFF AND DUP2 MSTORE PUSH1 0x20 ADD SWAP1 DUP2 MSTORE PUSH1 0x20 ADD PUSH1 0x0 KECCAK256 SLOAD SWAP1 POP SWAP2 SWAP1 POP JUMP JUMPDEST PUSH1 0x2 PUSH1 0x0 SLOAD EQ ISZERO PUSH2 0x1398 JUMPI PUSH1 0x40 MLOAD PUSH32 0x8C379A000000000000000000000000000000000000000000000000000000000 DUP2 MSTORE PUSH1 0x4 ADD PUSH2 0x138F SWAP1 PUSH2 0x5438 JUMP JUMPDEST PUSH1 0x40 MLOAD DUP1 SWAP2 SUB SWAP1 REVERT JUMPDEST PUSH1 0x2 PUSH1 0x0 DUP2 SWAP1 SSTORE POP PUSH2 0x13A8 PUSH2 0x11D1 JUMP JUMPDEST ISZERO PUSH2 0x13E8 JUMPI PUSH1 0x40 MLOAD PUSH32 0x8C379A000000000000000000000000000000000000000000000000000000000 DUP2 MSTORE PUSH1 0x4 ADD PUSH2 0x13DF SWAP1 PUSH2 0x5B85 JUMP JUMPDEST PUSH1 0x40 MLOAD DUP1 SWAP2 SUB SWAP1 REVERT JUMPDEST PUSH1 0x0 DUP2 PUSH1 0x0 SHL SWAP1 POP PUSH2 0x1401 PUSH2 0x13FB PUSH2 0x2AA6 JUMP JUMPDEST DUP4 PUSH2 0x2F82 JUMP JUMPDEST PUSH2 0x1440 JUMPI PUSH1 0x40 MLOAD PUSH32 0x8C379A000000000000000000000000000000000000000000000000000000000 DUP2 MSTORE PUSH1 0x4 ADD PUSH2 0x1437 SWAP1 PUSH2 0x5C17 JUMP JUMPDEST PUSH1 0x40 MLOAD DUP1 SWAP2 SUB SWAP1 REVERT JUMPDEST PUSH1 0x18 PUSH1 0x0 SWAP1 SLOAD SWAP1 PUSH2 0x100 EXP SWAP1 DIV PUSH20 0xFFFFFFFFFFFFFFFFFFFFFFFFFFFFFFFFFFFFFFFF AND PUSH20 0xFFFFFFFFFFFFFFFFFFFFFFFFFFFFFFFFFFFFFFFF AND PUSH4 0xC4567714 DUP3 PUSH2 0x1487 PUSH2 0x2AA6 JUMP JUMPDEST PUSH1 0x40 MLOAD DUP4 PUSH4 0xFFFFFFFF AND PUSH1 0xE0 SHL DUP2 MSTORE PUSH1 0x4 ADD PUSH2 0x14A4 SWAP3 SWAP2 SWAP1 PUSH2 0x5C37 JUMP JUMPDEST PUSH1 0x0 PUSH1 0x40 MLOAD DUP1 DUP4 SUB DUP2 PUSH1 0x0 DUP8 DUP1 EXTCODESIZE ISZERO DUP1 ISZERO PUSH2 0x14BE JUMPI PUSH1 0x0 DUP1 REVERT JUMPDEST POP GAS CALL ISZERO DUP1 ISZERO PUSH2 0x14D2 JUMPI RETURNDATASIZE PUSH1 0x0 DUP1 RETURNDATACOPY RETURNDATASIZE PUSH1 0x0 REVERT JUMPDEST POP POP POP POP PUSH2 0x14DF DUP3 PUSH2 0x31DE JUMP JUMPDEST POP PUSH1 0x1 PUSH1 0x0 DUP2 SWAP1 SSTORE POP POP JUMP JUMPDEST PUSH2 0x151C PUSH32 0x65D7A28E3265B37A6474929F336521B332C1681B933F6CB9F3376673440D862A PUSH2 0x1517 PUSH2 0x2AA6 JUMP JUMPDEST PUSH2 0x1884 JUMP JUMPDEST PUSH2 0x155B JUMPI PUSH1 0x40 MLOAD PUSH32 0x8C379A000000000000000000000000000000000000000000000000000000000 DUP2 MSTORE PUSH1 0x4 ADD PUSH2 0x1552 SWAP1 PUSH2 0x5CAC JUMP JUMPDEST PUSH1 0x40 MLOAD DUP1 SWAP2 SUB SWAP1 REVERT JUMPDEST PUSH2 0x1563 PUSH2 0x3231 JUMP JUMPDEST JUMP JUMPDEST PUSH1 0x0 DUP1 DUP5 PUSH1 0x0 SHL SWAP1 POP PUSH1 0x0 PUSH2 0x1579 DUP3 PUSH2 0x2B67 JUMP JUMPDEST SWAP1 POP PUSH1 0x1 PUSH1 0x19 PUSH1 0x0 SWAP1 SLOAD SWAP1 PUSH2 0x100 EXP SWAP1 DIV PUSH20 0xFFFFFFFFFFFFFFFFFFFFFFFFFFFFFFFFFFFFFFFF AND PUSH20 0xFFFFFFFFFFFFFFFFFFFFFFFFFFFFFFFFFFFFFFFF AND PUSH4 0x6ECE1F43 DUP4 PUSH1 0x60 ADD MLOAD PUSH1 0x1 PUSH1 0x40 MLOAD DUP4 PUSH4 0xFFFFFFFF AND PUSH1 0xE0 SHL DUP2 MSTORE PUSH1 0x4 ADD PUSH2 0x15DF SWAP3 SWAP2 SWAP1 PUSH2 0x5D3D JUMP JUMPDEST PUSH1 0x20 PUSH1 0x40 MLOAD DUP1 DUP4 SUB DUP2 DUP7 DUP1 EXTCODESIZE ISZERO DUP1 ISZERO PUSH2 0x15F7 JUMPI PUSH1 0x0 DUP1 REVERT JUMPDEST POP GAS STATICCALL ISZERO DUP1 ISZERO PUSH2 0x160B JUMPI RETURNDATASIZE PUSH1 0x0 DUP1 RETURNDATACOPY RETURNDATASIZE PUSH1 0x0 REVERT JUMPDEST POP POP POP POP PUSH1 0x40 MLOAD RETURNDATASIZE PUSH1 0x1F NOT PUSH1 0x1F DUP3 ADD AND DUP3 ADD DUP1 PUSH1 0x40 MSTORE POP DUP2 ADD SWAP1 PUSH2 0x162F SWAP2 SWAP1 PUSH2 0x5D7B JUMP JUMPDEST EQ ISZERO PUSH2 0x17AB JUMPI PUSH1 0x0 PUSH2 0x1640 DUP8 PUSH2 0x1E6F JUMP JUMPDEST SWAP1 POP PUSH1 0x0 DUP2 MLOAD EQ PUSH2 0x1686 JUMPI PUSH1 0x40 MLOAD PUSH32 0x8C379A000000000000000000000000000000000000000000000000000000000 DUP2 MSTORE PUSH1 0x4 ADD PUSH2 0x167D SWAP1 PUSH2 0x5DF4 JUMP JUMPDEST PUSH1 0x40 MLOAD DUP1 SWAP2 SUB SWAP1 REVERT JUMPDEST PUSH2 0x168E PUSH2 0x2AA6 JUMP JUMPDEST PUSH20 0xFFFFFFFFFFFFFFFFFFFFFFFFFFFFFFFFFFFFFFFF AND PUSH1 0x1A PUSH1 0x0 SWAP1 SLOAD SWAP1 PUSH2 0x100 EXP SWAP1 DIV PUSH20 0xFFFFFFFFFFFFFFFFFFFFFFFFFFFFFFFFFFFFFFFF AND PUSH20 0xFFFFFFFFFFFFFFFFFFFFFFFFFFFFFFFFFFFFFFFF AND PUSH4 0x6352211E DUP5 PUSH1 0x60 ADD MLOAD PUSH1 0x40 MLOAD DUP3 PUSH4 0xFFFFFFFF AND PUSH1 0xE0 SHL DUP2 MSTORE PUSH1 0x4 ADD PUSH2 0x1703 SWAP2 SWAP1 PUSH2 0x5E45 JUMP JUMPDEST PUSH1 0x20 PUSH1 0x40 MLOAD DUP1 DUP4 SUB DUP2 DUP7 DUP1 EXTCODESIZE ISZERO DUP1 ISZERO PUSH2 0x171B JUMPI PUSH1 0x0 DUP1 REVERT JUMPDEST POP GAS STATICCALL ISZERO DUP1 ISZERO PUSH2 0x172F JUMPI RETURNDATASIZE PUSH1 0x0 DUP1 RETURNDATACOPY RETURNDATASIZE PUSH1 0x0 REVERT JUMPDEST POP POP POP POP PUSH1 0x40 MLOAD RETURNDATASIZE PUSH1 0x1F NOT PUSH1 0x1F DUP3 ADD AND DUP3 ADD DUP1 PUSH1 0x40 MSTORE POP DUP2 ADD SWAP1 PUSH2 0x1753 SWAP2 SWAP1 PUSH2 0x5E75 JUMP JUMPDEST PUSH20 0xFFFFFFFFFFFFFFFFFFFFFFFFFFFFFFFFFFFFFFFF AND EQ PUSH2 0x17A9 JUMPI PUSH1 0x40 MLOAD PUSH32 0x8C379A000000000000000000000000000000000000000000000000000000000 DUP2 MSTORE PUSH1 0x4 ADD PUSH2 0x17A0 SWAP1 PUSH2 0x5EEE JUMP JUMPDEST PUSH1 0x40 MLOAD DUP1 SWAP2 SUB SWAP1 REVERT JUMPDEST POP JUMPDEST PUSH2 0x17BC PUSH2 0x17B6 PUSH2 0x2AA6 JUMP JUMPDEST DUP8 PUSH2 0x2F82 JUMP JUMPDEST PUSH2 0x17FB JUMPI PUSH1 0x40 MLOAD PUSH32 0x8C379A000000000000000000000000000000000000000000000000000000000 DUP2 MSTORE PUSH1 0x4 ADD PUSH2 0x17F2 SWAP1 PUSH2 0x5F5A JUMP JUMPDEST PUSH1 0x40 MLOAD DUP1 SWAP2 SUB SWAP1 REVERT JUMPDEST PUSH2 0x1849 DUP7 DUP7 DUP7 DUP1 DUP1 PUSH1 0x1F ADD PUSH1 0x20 DUP1 SWAP2 DIV MUL PUSH1 0x20 ADD PUSH1 0x40 MLOAD SWAP1 DUP2 ADD PUSH1 0x40 MSTORE DUP1 SWAP4 SWAP3 SWAP2 SWAP1 DUP2 DUP2 MSTORE PUSH1 0x20 ADD DUP4 DUP4 DUP1 DUP3 DUP5 CALLDATACOPY PUSH1 0x0 DUP2 DUP5 ADD MSTORE PUSH1 0x1F NOT PUSH1 0x1F DUP3 ADD AND SWAP1 POP DUP1 DUP4 ADD SWAP3 POP POP POP POP POP POP POP PUSH2 0x32D4 JUMP JUMPDEST DUP6 SWAP3 POP POP POP SWAP4 SWAP3 POP POP POP JUMP JUMPDEST PUSH1 0x0 PUSH2 0x187C DUP3 PUSH1 0x2 PUSH1 0x0 DUP7 DUP2 MSTORE PUSH1 0x20 ADD SWAP1 DUP2 MSTORE PUSH1 0x20 ADD PUSH1 0x0 KECCAK256 PUSH2 0x3348 SWAP1 SWAP2 SWAP1 PUSH4 0xFFFFFFFF AND JUMP JUMPDEST SWAP1 POP SWAP3 SWAP2 POP POP JUMP JUMPDEST PUSH1 0x0 PUSH1 0x1 PUSH1 0x0 DUP5 DUP2 MSTORE PUSH1 0x20 ADD SWAP1 DUP2 MSTORE PUSH1 0x20 ADD PUSH1 0x0 KECCAK256 PUSH1 0x0 ADD PUSH1 0x0 DUP4 PUSH20 0xFFFFFFFFFFFFFFFFFFFFFFFFFFFFFFFFFFFFFFFF AND PUSH20 0xFFFFFFFFFFFFFFFFFFFFFFFFFFFFFFFFFFFFFFFF AND DUP2 MSTORE PUSH1 0x20 ADD SWAP1 DUP2 MSTORE PUSH1 0x20 ADD PUSH1 0x0 KECCAK256 PUSH1 0x0 SWAP1 SLOAD SWAP1 PUSH2 0x100 EXP SWAP1 DIV PUSH1 0xFF AND SWAP1 POP SWAP3 SWAP2 POP POP JUMP JUMPDEST PUSH1 0x60 PUSH1 0x4 DUP1 SLOAD PUSH2 0x18FE SWAP1 PUSH2 0x5204 JUMP JUMPDEST DUP1 PUSH1 0x1F ADD PUSH1 0x20 DUP1 SWAP2 DIV MUL PUSH1 0x20 ADD PUSH1 0x40 MLOAD SWAP1 DUP2 ADD PUSH1 0x40 MSTORE DUP1 SWAP3 SWAP2 SWAP1 DUP2 DUP2 MSTORE PUSH1 0x20 ADD DUP3 DUP1 SLOAD PUSH2 0x192A SWAP1 PUSH2 0x5204 JUMP JUMPDEST DUP1 ISZERO PUSH2 0x1977 JUMPI DUP1 PUSH1 0x1F LT PUSH2 0x194C JUMPI PUSH2 0x100 DUP1 DUP4 SLOAD DIV MUL DUP4 MSTORE SWAP2 PUSH1 0x20 ADD SWAP2 PUSH2 0x1977 JUMP JUMPDEST DUP3 ADD SWAP2 SWAP1 PUSH1 0x0 MSTORE PUSH1 0x20 PUSH1 0x0 KECCAK256 SWAP1 JUMPDEST DUP2 SLOAD DUP2 MSTORE SWAP1 PUSH1 0x1 ADD SWAP1 PUSH1 0x20 ADD DUP1 DUP4 GT PUSH2 0x195A JUMPI DUP3 SWAP1 SUB PUSH1 0x1F AND DUP3 ADD SWAP2 JUMPDEST POP POP POP POP POP SWAP1 POP SWAP1 JUMP JUMPDEST PUSH32 0xEEED90AE47CD1F23B88CE446295F1CA23C5E4F5B894ADDBE83563FD27494E294 DUP2 JUMP JUMPDEST PUSH1 0x0 DUP1 SHL DUP2 JUMP JUMPDEST PUSH2 0x19B4 PUSH2 0x2AA6 JUMP JUMPDEST PUSH20 0xFFFFFFFFFFFFFFFFFFFFFFFFFFFFFFFFFFFFFFFF AND DUP3 PUSH20 0xFFFFFFFFFFFFFFFFFFFFFFFFFFFFFFFFFFFFFFFF AND EQ ISZERO PUSH2 0x1A22 JUMPI PUSH1 0x40 MLOAD PUSH32 0x8C379A000000000000000000000000000000000000000000000000000000000 DUP2 MSTORE PUSH1 0x4 ADD PUSH2 0x1A19 SWAP1 PUSH2 0x5FC6 JUMP JUMPDEST PUSH1 0x40 MLOAD DUP1 SWAP2 SUB SWAP1 REVERT JUMPDEST DUP1 PUSH1 0x8 PUSH1 0x0 PUSH2 0x1A2F PUSH2 0x2AA6 JUMP JUMPDEST PUSH20 0xFFFFFFFFFFFFFFFFFFFFFFFFFFFFFFFFFFFFFFFF AND PUSH20 0xFFFFFFFFFFFFFFFFFFFFFFFFFFFFFFFFFFFFFFFF AND DUP2 MSTORE PUSH1 0x20 ADD SWAP1 DUP2 MSTORE PUSH1 0x20 ADD PUSH1 0x0 KECCAK256 PUSH1 0x0 DUP5 PUSH20 0xFFFFFFFFFFFFFFFFFFFFFFFFFFFFFFFFFFFFFFFF AND PUSH20 0xFFFFFFFFFFFFFFFFFFFFFFFFFFFFFFFFFFFFFFFF AND DUP2 MSTORE PUSH1 0x20 ADD SWAP1 DUP2 MSTORE PUSH1 0x20 ADD PUSH1 0x0 KECCAK256 PUSH1 0x0 PUSH2 0x100 EXP DUP2 SLOAD DUP2 PUSH1 0xFF MUL NOT AND SWAP1 DUP4 ISZERO ISZERO MUL OR SWAP1 SSTORE POP DUP2 PUSH20 0xFFFFFFFFFFFFFFFFFFFFFFFFFFFFFFFFFFFFFFFF AND PUSH2 0x1ADC PUSH2 0x2AA6 JUMP JUMPDEST PUSH20 0xFFFFFFFFFFFFFFFFFFFFFFFFFFFFFFFFFFFFFFFF AND PUSH32 0x17307EAB39AB6107E8899845AD3D59BD9653F200F220920489CA2B5937696C31 DUP4 PUSH1 0x40 MLOAD PUSH2 0x1B21 SWAP2 SWAP1 PUSH2 0x4B86 JUMP JUMPDEST PUSH1 0x40 MLOAD DUP1 SWAP2 SUB SWAP1 LOG3 POP POP JUMP JUMPDEST PUSH1 0xAA PUSH1 0x12 PUSH1 0x0 PUSH2 0x1B3B PUSH2 0x2AA6 JUMP JUMPDEST PUSH20 0xFFFFFFFFFFFFFFFFFFFFFFFFFFFFFFFFFFFFFFFF AND PUSH20 0xFFFFFFFFFFFFFFFFFFFFFFFFFFFFFFFFFFFFFFFF AND DUP2 MSTORE PUSH1 0x20 ADD SWAP1 DUP2 MSTORE PUSH1 0x20 ADD PUSH1 0x0 KECCAK256 DUP2 SWAP1 SSTORE POP JUMP JUMPDEST PUSH1 0x2 PUSH1 0x0 SLOAD EQ ISZERO PUSH2 0x1BC1 JUMPI PUSH1 0x40 MLOAD PUSH32 0x8C379A000000000000000000000000000000000000000000000000000000000 DUP2 MSTORE PUSH1 0x4 ADD PUSH2 0x1BB8 SWAP1 PUSH2 0x5438 JUMP JUMPDEST PUSH1 0x40 MLOAD DUP1 SWAP2 SUB SWAP1 REVERT JUMPDEST PUSH1 0x2 PUSH1 0x0 DUP2 SWAP1 SSTORE POP PUSH1 0x0 DUP3 PUSH1 0x0 SHL SWAP1 POP PUSH1 0x0 PUSH2 0x1BDC DUP3 PUSH2 0x2B67 JUMP JUMPDEST SWAP1 POP PUSH1 0x0 PUSH1 0x17 PUSH1 0x0 SWAP1 SLOAD SWAP1 PUSH2 0x100 EXP SWAP1 DIV PUSH20 0xFFFFFFFFFFFFFFFFFFFFFFFFFFFFFFFFFFFFFFFF AND PUSH20 0xFFFFFFFFFFFFFFFFFFFFFFFFFFFFFFFFFFFFFFFF AND PUSH4 0xDF9F6936 DUP8 PUSH1 0x0 PUSH1 0x40 MLOAD DUP4 PUSH4 0xFFFFFFFF AND PUSH1 0xE0 SHL DUP2 MSTORE PUSH1 0x4 ADD PUSH2 0x1C3E SWAP3 SWAP2 SWAP1 PUSH2 0x6021 JUMP JUMPDEST PUSH1 0x40 DUP1 MLOAD DUP1 DUP4 SUB DUP2 DUP7 DUP1 EXTCODESIZE ISZERO DUP1 ISZERO PUSH2 0x1C55 JUMPI PUSH1 0x0 DUP1 REVERT JUMPDEST POP GAS STATICCALL ISZERO DUP1 ISZERO PUSH2 0x1C69 JUMPI RETURNDATASIZE PUSH1 0x0 DUP1 RETURNDATACOPY RETURNDATASIZE PUSH1 0x0 REVERT JUMPDEST POP POP POP POP PUSH1 0x40 MLOAD RETURNDATASIZE PUSH1 0x1F NOT PUSH1 0x1F DUP3 ADD AND DUP3 ADD DUP1 PUSH1 0x40 MSTORE POP DUP2 ADD SWAP1 PUSH2 0x1C8D SWAP2 SWAP1 PUSH2 0x608B JUMP JUMPDEST POP SWAP1 POP PUSH2 0x1CA1 PUSH2 0x1C9B PUSH2 0x2AA6 JUMP JUMPDEST DUP7 PUSH2 0x2F82 JUMP JUMPDEST PUSH2 0x1CE0 JUMPI PUSH1 0x40 MLOAD PUSH32 0x8C379A000000000000000000000000000000000000000000000000000000000 DUP2 MSTORE PUSH1 0x4 ADD PUSH2 0x1CD7 SWAP1 PUSH2 0x613D JUMP JUMPDEST PUSH1 0x40 MLOAD DUP1 SWAP2 SUB SWAP1 REVERT JUMPDEST PUSH1 0x46 DUP3 PUSH1 0x0 ADD MLOAD PUSH1 0xFF AND EQ ISZERO DUP1 PUSH2 0x1CFA JUMPI POP PUSH1 0x0 DUP2 PUSH1 0xFF AND GT JUMPDEST PUSH2 0x1D39 JUMPI PUSH1 0x40 MLOAD PUSH32 0x8C379A000000000000000000000000000000000000000000000000000000000 DUP2 MSTORE PUSH1 0x4 ADD PUSH2 0x1D30 SWAP1 PUSH2 0x61CF JUMP JUMPDEST PUSH1 0x40 MLOAD DUP1 SWAP2 SUB SWAP1 REVERT JUMPDEST PUSH1 0x33 DUP3 PUSH1 0x0 ADD MLOAD PUSH1 0xFF AND EQ DUP1 PUSH2 0x1D56 JUMPI POP PUSH1 0x46 DUP3 PUSH1 0x0 ADD MLOAD PUSH1 0xFF AND EQ JUMPDEST PUSH2 0x1D95 JUMPI PUSH1 0x40 MLOAD PUSH32 0x8C379A000000000000000000000000000000000000000000000000000000000 DUP2 MSTORE PUSH1 0x4 ADD PUSH2 0x1D8C SWAP1 PUSH2 0x6261 JUMP JUMPDEST PUSH1 0x40 MLOAD DUP1 SWAP2 SUB SWAP1 REVERT JUMPDEST PUSH1 0x0 PUSH20 0xFFFFFFFFFFFFFFFFFFFFFFFFFFFFFFFFFFFFFFFF AND DUP7 PUSH20 0xFFFFFFFFFFFFFFFFFFFFFFFFFFFFFFFFFFFFFFFF AND EQ ISZERO PUSH2 0x1E05 JUMPI PUSH1 0x40 MLOAD PUSH32 0x8C379A000000000000000000000000000000000000000000000000000000000 DUP2 MSTORE PUSH1 0x4 ADD PUSH2 0x1DFC SWAP1 PUSH2 0x62F3 JUMP JUMPDEST PUSH1 0x40 MLOAD DUP1 SWAP2 SUB SWAP1 REVERT JUMPDEST PUSH1 0xAA DUP3 PUSH1 0x40 ADD SWAP1 PUSH2 0xFFFF AND SWAP1 DUP2 PUSH2 0xFFFF AND DUP2 MSTORE POP POP PUSH32 0xFFFFFFFFFFFFFFFFFFFFFFFFFFFFFFFFFFFFFFFFFFFFFFFFFFFFFFFFFFFFFFFF PUSH1 0x0 SHL DUP3 PUSH2 0x140 ADD DUP2 DUP2 MSTORE POP POP PUSH2 0x1E52 DUP4 DUP4 PUSH2 0x2C28 JUMP JUMPDEST PUSH2 0x1E5E DUP8 DUP8 DUP8 DUP8 PUSH2 0x3362 JUMP JUMPDEST POP POP POP PUSH1 0x1 PUSH1 0x0 DUP2 SWAP1 SSTORE POP POP POP POP POP JUMP JUMPDEST PUSH1 0x60 PUSH2 0x1E7A DUP3 PUSH2 0x29C0 JUMP JUMPDEST PUSH2 0x1EB9 JUMPI PUSH1 0x40 MLOAD PUSH32 0x8C379A000000000000000000000000000000000000000000000000000000000 DUP2 MSTORE PUSH1 0x4 ADD PUSH2 0x1EB0 SWAP1 PUSH2 0x6385 JUMP JUMPDEST PUSH1 0x40 MLOAD DUP1 SWAP2 SUB SWAP1 REVERT JUMPDEST PUSH1 0x0 PUSH1 0xE PUSH1 0x0 DUP5 DUP2 MSTORE PUSH1 0x20 ADD SWAP1 DUP2 MSTORE PUSH1 0x20 ADD PUSH1 0x0 KECCAK256 DUP1 SLOAD PUSH2 0x1ED9 SWAP1 PUSH2 0x5204 JUMP JUMPDEST DUP1 PUSH1 0x1F ADD PUSH1 0x20 DUP1 SWAP2 DIV MUL PUSH1 0x20 ADD PUSH1 0x40 MLOAD SWAP1 DUP2 ADD PUSH1 0x40 MSTORE DUP1 SWAP3 SWAP2 SWAP1 DUP2 DUP2 MSTORE PUSH1 0x20 ADD DUP3 DUP1 SLOAD PUSH2 0x1F05 SWAP1 PUSH2 0x5204 JUMP JUMPDEST DUP1 ISZERO PUSH2 0x1F52 JUMPI DUP1 PUSH1 0x1F LT PUSH2 0x1F27 JUMPI PUSH2 0x100 DUP1 DUP4 SLOAD DIV MUL DUP4 MSTORE SWAP2 PUSH1 0x20 ADD SWAP2 PUSH2 0x1F52 JUMP JUMPDEST DUP3 ADD SWAP2 SWAP1 PUSH1 0x0 MSTORE PUSH1 0x20 PUSH1 0x0 KECCAK256 SWAP1 JUMPDEST DUP2 SLOAD DUP2 MSTORE SWAP1 PUSH1 0x1 ADD SWAP1 PUSH1 0x20 ADD DUP1 DUP4 GT PUSH2 0x1F35 JUMPI DUP3 SWAP1 SUB PUSH1 0x1F AND DUP3 ADD SWAP2 JUMPDEST POP POP POP POP POP SWAP1 POP PUSH1 0x0 PUSH2 0x1F63 PUSH2 0x33BE JUMP JUMPDEST SWAP1 POP PUSH1 0x0 DUP2 MLOAD EQ ISZERO PUSH2 0x1F79 JUMPI DUP2 SWAP3 POP POP POP PUSH2 0x1FBC JUMP JUMPDEST PUSH1 0x0 DUP3 MLOAD GT ISZERO PUSH2 0x1FAE JUMPI DUP1 DUP3 PUSH1 0x40 MLOAD PUSH1 0x20 ADD PUSH2 0x1F96 SWAP3 SWAP2 SWAP1 PUSH2 0x63E1 JUMP JUMPDEST PUSH1 0x40 MLOAD PUSH1 0x20 DUP2 DUP4 SUB SUB DUP2 MSTORE SWAP1 PUSH1 0x40 MSTORE SWAP3 POP POP POP PUSH2 0x1FBC JUMP JUMPDEST PUSH2 0x1FB7 DUP5 PUSH2 0x3450 JUMP JUMPDEST SWAP3 POP POP POP JUMPDEST SWAP2 SWAP1 POP JUMP JUMPDEST PUSH1 0x0 PUSH2 0x1FDE PUSH1 0x2 PUSH1 0x0 DUP5 DUP2 MSTORE PUSH1 0x20 ADD SWAP1 DUP2 MSTORE PUSH1 0x20 ADD PUSH1 0x0 KECCAK256 PUSH2 0x34F7 JUMP JUMPDEST SWAP1 POP SWAP2 SWAP1 POP JUMP JUMPDEST PUSH1 0x0 PUSH2 0x2018 PUSH32 0x9F2DF0FED2C77648DE5860A4CC508CD0818C85B8B8A1AB4CEEEF8D981C8956A6 PUSH2 0x2013 PUSH2 0x2AA6 JUMP JUMPDEST PUSH2 0x1884 JUMP JUMPDEST PUSH2 0x2057 JUMPI PUSH1 0x40 MLOAD PUSH32 0x8C379A000000000000000000000000000000000000000000000000000000000 DUP2 MSTORE PUSH1 0x4 ADD PUSH2 0x204E SWAP1 PUSH2 0x6477 JUMP JUMPDEST PUSH1 0x40 MLOAD DUP1 SWAP2 SUB SWAP1 REVERT JUMPDEST PUSH1 0x2 PUSH1 0x0 SLOAD EQ ISZERO PUSH2 0x209D JUMPI PUSH1 0x40 MLOAD PUSH32 0x8C379A000000000000000000000000000000000000000000000000000000000 DUP2 MSTORE PUSH1 0x4 ADD PUSH2 0x2094 SWAP1 PUSH2 0x5438 JUMP JUMPDEST PUSH1 0x40 MLOAD DUP1 SWAP2 SUB SWAP1 REVERT JUMPDEST PUSH1 0x2 PUSH1 0x0 DUP2 SWAP1 SSTORE POP PUSH2 0x20AF DUP4 DUP4 PUSH2 0x350C JUMP JUMPDEST DUP2 SWAP1 POP PUSH1 0x1 PUSH1 0x0 DUP2 SWAP1 SSTORE POP SWAP3 SWAP2 POP POP JUMP JUMPDEST PUSH2 0x20F1 PUSH32 0x2CE8D04A9C35987429AF538825CD2438CC5C5BB5DC427955F84DAAA3EA105016 PUSH2 0x20EC PUSH2 0x2AA6 JUMP JUMPDEST PUSH2 0x1884 JUMP JUMPDEST PUSH2 0x2130 JUMPI PUSH1 0x40 MLOAD PUSH32 0x8C379A000000000000000000000000000000000000000000000000000000000 DUP2 MSTORE PUSH1 0x4 ADD PUSH2 0x2127 SWAP1 PUSH2 0x6509 JUMP JUMPDEST PUSH1 0x40 MLOAD DUP1 SWAP2 SUB SWAP1 REVERT JUMPDEST PUSH1 0xAA DUP2 EQ ISZERO PUSH2 0x2142 JUMPI PUSH1 0x0 PUSH1 0x11 DUP2 SWAP1 SSTORE POP JUMPDEST POP JUMP JUMPDEST PUSH1 0x2 PUSH1 0x0 SLOAD EQ ISZERO PUSH2 0x218B JUMPI PUSH1 0x40 MLOAD PUSH32 0x8C379A000000000000000000000000000000000000000000000000000000000 DUP2 MSTORE PUSH1 0x4 ADD PUSH2 0x2182 SWAP1 PUSH2 0x5438 JUMP JUMPDEST PUSH1 0x40 MLOAD DUP1 SWAP2 SUB SWAP1 REVERT JUMPDEST PUSH1 0x2 PUSH1 0x0 DUP2 SWAP1 SSTORE POP PUSH2 0x219B PUSH2 0x11D1 JUMP JUMPDEST ISZERO PUSH2 0x21DB JUMPI PUSH1 0x40 MLOAD PUSH32 0x8C379A000000000000000000000000000000000000000000000000000000000 DUP2 MSTORE PUSH1 0x4 ADD PUSH2 0x21D2 SWAP1 PUSH2 0x5B85 JUMP JUMPDEST PUSH1 0x40 MLOAD DUP1 SWAP2 SUB SWAP1 REVERT JUMPDEST PUSH2 0x220C PUSH32 0xEEED90AE47CD1F23B88CE446295F1CA23C5E4F5B894ADDBE83563FD27494E294 PUSH2 0x2207 PUSH2 0x2AA6 JUMP JUMPDEST PUSH2 0x1884 JUMP JUMPDEST PUSH2 0x224B JUMPI PUSH1 0x40 MLOAD PUSH32 0x8C379A000000000000000000000000000000000000000000000000000000000 DUP2 MSTORE PUSH1 0x4 ADD PUSH2 0x2242 SWAP1 PUSH2 0x54CA JUMP JUMPDEST PUSH1 0x40 MLOAD DUP1 SWAP2 SUB SWAP1 REVERT JUMPDEST PUSH1 0x1 PUSH1 0x11 SLOAD EQ PUSH2 0x2290 JUMPI PUSH1 0x40 MLOAD PUSH32 0x8C379A000000000000000000000000000000000000000000000000000000000 DUP2 MSTORE PUSH1 0x4 ADD PUSH2 0x2287 SWAP1 PUSH2 0x5582 JUMP JUMPDEST PUSH1 0x40 MLOAD DUP1 SWAP2 SUB SWAP1 REVERT JUMPDEST PUSH1 0xAA PUSH2 0x22A3 PUSH2 0x229E DUP4 PUSH2 0x11E8 JUMP JUMPDEST PUSH2 0x1117 JUMP JUMPDEST EQ ISZERO PUSH2 0x22E4 JUMPI PUSH1 0x40 MLOAD PUSH32 0x8C379A000000000000000000000000000000000000000000000000000000000 DUP2 MSTORE PUSH1 0x4 ADD PUSH2 0x22DB SWAP1 PUSH2 0x6575 JUMP JUMPDEST PUSH1 0x40 MLOAD DUP1 SWAP2 SUB SWAP1 REVERT JUMPDEST PUSH2 0x22ED DUP2 PUSH2 0x31DE JUMP JUMPDEST PUSH1 0x1 PUSH1 0x0 DUP2 SWAP1 SSTORE POP POP JUMP JUMPDEST PUSH32 0x9F2DF0FED2C77648DE5860A4CC508CD0818C85B8B8A1AB4CEEEF8D981C8956A6 DUP2 JUMP JUMPDEST PUSH2 0x2326 DUP3 DUP3 PUSH2 0x352A JUMP JUMPDEST PUSH2 0x234B DUP2 PUSH1 0x2 PUSH1 0x0 DUP6 DUP2 MSTORE PUSH1 0x20 ADD SWAP1 DUP2 MSTORE PUSH1 0x20 ADD PUSH1 0x0 KECCAK256 PUSH2 0x310C SWAP1 SWAP2 SWAP1 PUSH4 0xFFFFFFFF AND JUMP JUMPDEST POP POP POP JUMP JUMPDEST PUSH2 0x2381 PUSH32 0x2CE8D04A9C35987429AF538825CD2438CC5C5BB5DC427955F84DAAA3EA105016 PUSH2 0x237C PUSH2 0x2AA6 JUMP JUMPDEST PUSH2 0x1884 JUMP JUMPDEST PUSH2 0x23C0 JUMPI PUSH1 0x40 MLOAD PUSH32 0x8C379A000000000000000000000000000000000000000000000000000000000 DUP2 MSTORE PUSH1 0x4 ADD PUSH2 0x23B7 SWAP1 PUSH2 0x6509 JUMP JUMPDEST PUSH1 0x40 MLOAD DUP1 SWAP2 SUB SWAP1 REVERT JUMPDEST PUSH1 0x0 PUSH20 0xFFFFFFFFFFFFFFFFFFFFFFFFFFFFFFFFFFFFFFFF AND DUP2 PUSH20 0xFFFFFFFFFFFFFFFFFFFFFFFFFFFFFFFFFFFFFFFF AND EQ ISZERO PUSH2 0x2430 JUMPI PUSH1 0x40 MLOAD PUSH32 0x8C379A000000000000000000000000000000000000000000000000000000000 DUP2 MSTORE PUSH1 0x4 ADD PUSH2 0x2427 SWAP1 PUSH2 0x65E1 JUMP JUMPDEST PUSH1 0x40 MLOAD DUP1 SWAP2 SUB SWAP1 REVERT JUMPDEST DUP1 PUSH1 0x17 PUSH1 0x0 PUSH2 0x100 EXP DUP2 SLOAD DUP2 PUSH20 0xFFFFFFFFFFFFFFFFFFFFFFFFFFFFFFFFFFFFFFFF MUL NOT AND SWAP1 DUP4 PUSH20 0xFFFFFFFFFFFFFFFFFFFFFFFFFFFFFFFFFFFFFFFF AND MUL OR SWAP1 SSTORE POP POP JUMP JUMPDEST PUSH32 0x65D7A28E3265B37A6474929F336521B332C1681B933F6CB9F3376673440D862A DUP2 JUMP JUMPDEST PUSH1 0x0 PUSH1 0x8 PUSH1 0x0 DUP5 PUSH20 0xFFFFFFFFFFFFFFFFFFFFFFFFFFFFFFFFFFFFFFFF AND PUSH20 0xFFFFFFFFFFFFFFFFFFFFFFFFFFFFFFFFFFFFFFFF AND DUP2 MSTORE PUSH1 0x20 ADD SWAP1 DUP2 MSTORE PUSH1 0x20 ADD PUSH1 0x0 KECCAK256 PUSH1 0x0 DUP4 PUSH20 0xFFFFFFFFFFFFFFFFFFFFFFFFFFFFFFFFFFFFFFFF AND PUSH20 0xFFFFFFFFFFFFFFFFFFFFFFFFFFFFFFFFFFFFFFFF AND DUP2 MSTORE PUSH1 0x20 ADD SWAP1 DUP2 MSTORE PUSH1 0x20 ADD PUSH1 0x0 KECCAK256 PUSH1 0x0 SWAP1 SLOAD SWAP1 PUSH2 0x100 EXP SWAP1 DIV PUSH1 0xFF AND SWAP1 POP SWAP3 SWAP2 POP POP JUMP JUMPDEST PUSH2 0x255D PUSH32 0x2CE8D04A9C35987429AF538825CD2438CC5C5BB5DC427955F84DAAA3EA105016 PUSH2 0x2558 PUSH2 0x2AA6 JUMP JUMPDEST PUSH2 0x1884 JUMP JUMPDEST PUSH2 0x259C JUMPI PUSH1 0x40 MLOAD PUSH32 0x8C379A000000000000000000000000000000000000000000000000000000000 DUP2 MSTORE PUSH1 0x4 ADD PUSH2 0x2593 SWAP1 PUSH2 0x6509 JUMP JUMPDEST PUSH1 0x40 MLOAD DUP1 SWAP2 SUB SWAP1 REVERT JUMPDEST PUSH1 0x17 PUSH1 0x0 SWAP1 SLOAD SWAP1 PUSH2 0x100 EXP SWAP1 DIV PUSH20 0xFFFFFFFFFFFFFFFFFFFFFFFFFFFFFFFFFFFFFFFF AND PUSH20 0xFFFFFFFFFFFFFFFFFFFFFFFFFFFFFFFFFFFFFFFF AND PUSH4 0xC771A982 PUSH1 0x40 MLOAD DUP2 PUSH4 0xFFFFFFFF AND PUSH1 0xE0 SHL DUP2 MSTORE PUSH1 0x4 ADD PUSH2 0x25F5 SWAP1 PUSH2 0x664D JUMP JUMPDEST PUSH1 0x20 PUSH1 0x40 MLOAD DUP1 DUP4 SUB DUP2 DUP7 DUP1 EXTCODESIZE ISZERO DUP1 ISZERO PUSH2 0x260D JUMPI PUSH1 0x0 DUP1 REVERT JUMPDEST POP GAS STATICCALL ISZERO DUP1 ISZERO PUSH2 0x2621 JUMPI RETURNDATASIZE PUSH1 0x0 DUP1 RETURNDATACOPY RETURNDATASIZE PUSH1 0x0 REVERT JUMPDEST POP POP POP POP PUSH1 0x40 MLOAD RETURNDATASIZE PUSH1 0x1F NOT PUSH1 0x1F DUP3 ADD AND DUP3 ADD DUP1 PUSH1 0x40 MSTORE POP DUP2 ADD SWAP1 PUSH2 0x2645 SWAP2 SWAP1 PUSH2 0x5E75 JUMP JUMPDEST PUSH1 0x14 PUSH1 0x0 PUSH2 0x100 EXP DUP2 SLOAD DUP2 PUSH20 0xFFFFFFFFFFFFFFFFFFFFFFFFFFFFFFFFFFFFFFFF MUL NOT AND SWAP1 DUP4 PUSH20 0xFFFFFFFFFFFFFFFFFFFFFFFFFFFFFFFFFFFFFFFF AND MUL OR SWAP1 SSTORE POP PUSH1 0x14 PUSH1 0x0 SWAP1 SLOAD SWAP1 PUSH2 0x100 EXP SWAP1 DIV PUSH20 0xFFFFFFFFFFFFFFFFFFFFFFFFFFFFFFFFFFFFFFFF AND PUSH1 0x18 PUSH1 0x0 PUSH2 0x100 EXP DUP2 SLOAD DUP2 PUSH20 0xFFFFFFFFFFFFFFFFFFFFFFFFFFFFFFFFFFFFFFFF MUL NOT AND SWAP1 DUP4 PUSH20 0xFFFFFFFFFFFFFFFFFFFFFFFFFFFFFFFFFFFFFFFF AND MUL OR SWAP1 SSTORE POP PUSH1 0x17 PUSH1 0x0 SWAP1 SLOAD SWAP1 PUSH2 0x100 EXP SWAP1 DIV PUSH20 0xFFFFFFFFFFFFFFFFFFFFFFFFFFFFFFFFFFFFFFFF AND PUSH20 0xFFFFFFFFFFFFFFFFFFFFFFFFFFFFFFFFFFFFFFFF AND PUSH4 0xC771A982 PUSH1 0x40 MLOAD DUP2 PUSH4 0xFFFFFFFF AND PUSH1 0xE0 SHL DUP2 MSTORE PUSH1 0x4 ADD PUSH2 0x2741 SWAP1 PUSH2 0x66B9 JUMP JUMPDEST PUSH1 0x20 PUSH1 0x40 MLOAD DUP1 DUP4 SUB DUP2 DUP7 DUP1 EXTCODESIZE ISZERO DUP1 ISZERO PUSH2 0x2759 JUMPI PUSH1 0x0 DUP1 REVERT JUMPDEST POP GAS STATICCALL ISZERO DUP1 ISZERO PUSH2 0x276D JUMPI RETURNDATASIZE PUSH1 0x0 DUP1 RETURNDATACOPY RETURNDATASIZE PUSH1 0x0 REVERT JUMPDEST POP POP POP POP PUSH1 0x40 MLOAD RETURNDATASIZE PUSH1 0x1F NOT PUSH1 0x1F DUP3 ADD AND DUP3 ADD DUP1 PUSH1 0x40 MSTORE POP DUP2 ADD SWAP1 PUSH2 0x2791 SWAP2 SWAP1 PUSH2 0x5E75 JUMP JUMPDEST PUSH1 0x15 PUSH1 0x0 PUSH2 0x100 EXP DUP2 SLOAD DUP2 PUSH20 0xFFFFFFFFFFFFFFFFFFFFFFFFFFFFFFFFFFFFFFFF MUL NOT AND SWAP1 DUP4 PUSH20 0xFFFFFFFFFFFFFFFFFFFFFFFFFFFFFFFFFFFFFFFF AND MUL OR SWAP1 SSTORE POP PUSH1 0x15 PUSH1 0x0 SWAP1 SLOAD SWAP1 PUSH2 0x100 EXP SWAP1 DIV PUSH20 0xFFFFFFFFFFFFFFFFFFFFFFFFFFFFFFFFFFFFFFFF AND PUSH1 0x19 PUSH1 0x0 PUSH2 0x100 EXP DUP2 SLOAD DUP2 PUSH20 0xFFFFFFFFFFFFFFFFFFFFFFFFFFFFFFFFFFFFFFFF MUL NOT AND SWAP1 DUP4 PUSH20 0xFFFFFFFFFFFFFFFFFFFFFFFFFFFFFFFFFFFFFFFF AND MUL OR SWAP1 SSTORE POP PUSH1 0x17 PUSH1 0x0 SWAP1 SLOAD SWAP1 PUSH2 0x100 EXP SWAP1 DIV PUSH20 0xFFFFFFFFFFFFFFFFFFFFFFFFFFFFFFFFFFFFFFFF AND PUSH20 0xFFFFFFFFFFFFFFFFFFFFFFFFFFFFFFFFFFFFFFFF AND PUSH4 0xC771A982 PUSH1 0x40 MLOAD DUP2 PUSH4 0xFFFFFFFF AND PUSH1 0xE0 SHL DUP2 MSTORE PUSH1 0x4 ADD PUSH2 0x288D SWAP1 PUSH2 0x6725 JUMP JUMPDEST PUSH1 0x20 PUSH1 0x40 MLOAD DUP1 DUP4 SUB DUP2 DUP7 DUP1 EXTCODESIZE ISZERO DUP1 ISZERO PUSH2 0x28A5 JUMPI PUSH1 0x0 DUP1 REVERT JUMPDEST POP GAS STATICCALL ISZERO DUP1 ISZERO PUSH2 0x28B9 JUMPI RETURNDATASIZE PUSH1 0x0 DUP1 RETURNDATACOPY RETURNDATASIZE PUSH1 0x0 REVERT JUMPDEST POP POP POP POP PUSH1 0x40 MLOAD RETURNDATASIZE PUSH1 0x1F NOT PUSH1 0x1F DUP3 ADD AND DUP3 ADD DUP1 PUSH1 0x40 MSTORE POP DUP2 ADD SWAP1 PUSH2 0x28DD SWAP2 SWAP1 PUSH2 0x5E75 JUMP JUMPDEST PUSH1 0x16 PUSH1 0x0 PUSH2 0x100 EXP DUP2 SLOAD DUP2 PUSH20 0xFFFFFFFFFFFFFFFFFFFFFFFFFFFFFFFFFFFFFFFF MUL NOT AND SWAP1 DUP4 PUSH20 0xFFFFFFFFFFFFFFFFFFFFFFFFFFFFFFFFFFFFFFFF AND MUL OR SWAP1 SSTORE POP PUSH1 0x16 PUSH1 0x0 SWAP1 SLOAD SWAP1 PUSH2 0x100 EXP SWAP1 DIV PUSH20 0xFFFFFFFFFFFFFFFFFFFFFFFFFFFFFFFFFFFFFFFF AND PUSH1 0x1A PUSH1 0x0 PUSH2 0x100 EXP DUP2 SLOAD DUP2 PUSH20 0xFFFFFFFFFFFFFFFFFFFFFFFFFFFFFFFFFFFFFFFF MUL NOT AND SWAP1 DUP4 PUSH20 0xFFFFFFFFFFFFFFFFFFFFFFFFFFFFFFFFFFFFFFFF AND MUL OR SWAP1 SSTORE POP JUMP JUMPDEST PUSH2 0x298C DUP3 DUP3 PUSH2 0x3553 JUMP JUMPDEST POP POP JUMP JUMPDEST PUSH1 0x0 PUSH2 0x29B8 DUP4 PUSH1 0x0 ADD DUP4 PUSH20 0xFFFFFFFFFFFFFFFFFFFFFFFFFFFFFFFFFFFFFFFF AND PUSH1 0x0 SHL PUSH2 0x3633 JUMP JUMPDEST SWAP1 POP SWAP3 SWAP2 POP POP JUMP JUMPDEST PUSH1 0x0 DUP1 PUSH20 0xFFFFFFFFFFFFFFFFFFFFFFFFFFFFFFFFFFFFFFFF AND PUSH1 0x5 PUSH1 0x0 DUP5 DUP2 MSTORE PUSH1 0x20 ADD SWAP1 DUP2 MSTORE PUSH1 0x20 ADD PUSH1 0x0 KECCAK256 PUSH1 0x0 SWAP1 SLOAD SWAP1 PUSH2 0x100 EXP SWAP1 DIV PUSH20 0xFFFFFFFFFFFFFFFFFFFFFFFFFFFFFFFFFFFFFFFF AND PUSH20 0xFFFFFFFFFFFFFFFFFFFFFFFFFFFFFFFFFFFFFFFF AND EQ ISZERO SWAP1 POP SWAP2 SWAP1 POP JUMP JUMPDEST PUSH1 0x0 PUSH32 0x780E9D6300000000000000000000000000000000000000000000000000000000 PUSH28 0xFFFFFFFFFFFFFFFFFFFFFFFFFFFFFFFFFFFFFFFFFFFFFFFFFFFFFFFF NOT AND DUP3 PUSH28 0xFFFFFFFFFFFFFFFFFFFFFFFFFFFFFFFFFFFFFFFFFFFFFFFFFFFFFFFF NOT AND EQ DUP1 PUSH2 0x2A9F JUMPI POP PUSH2 0x2A9E DUP3 PUSH2 0x36A3 JUMP JUMPDEST JUMPDEST SWAP1 POP SWAP2 SWAP1 POP JUMP JUMPDEST PUSH1 0x0 CALLER SWAP1 POP SWAP1 JUMP JUMPDEST DUP2 PUSH1 0x7 PUSH1 0x0 DUP4 DUP2 MSTORE PUSH1 0x20 ADD SWAP1 DUP2 MSTORE PUSH1 0x20 ADD PUSH1 0x0 KECCAK256 PUSH1 0x0 PUSH2 0x100 EXP DUP2 SLOAD DUP2 PUSH20 0xFFFFFFFFFFFFFFFFFFFFFFFFFFFFFFFFFFFFFFFF MUL NOT AND SWAP1 DUP4 PUSH20 0xFFFFFFFFFFFFFFFFFFFFFFFFFFFFFFFFFFFFFFFF AND MUL OR SWAP1 SSTORE POP DUP1 DUP3 PUSH20 0xFFFFFFFFFFFFFFFFFFFFFFFFFFFFFFFFFFFFFFFF AND PUSH2 0x2B21 DUP4 PUSH2 0x11E8 JUMP JUMPDEST PUSH20 0xFFFFFFFFFFFFFFFFFFFFFFFFFFFFFFFFFFFFFFFF AND PUSH32 0x8C5BE1E5EBEC7D5BD14F71427D1E84F3DD0314C0F7B2291E5B200AC8C7C3B925 PUSH1 0x40 MLOAD PUSH1 0x40 MLOAD DUP1 SWAP2 SUB SWAP1 LOG4 POP POP JUMP JUMPDEST PUSH2 0x2B6F PUSH2 0x48DD JUMP JUMPDEST PUSH1 0x0 PUSH1 0x17 PUSH1 0x0 SWAP1 SLOAD SWAP1 PUSH2 0x100 EXP SWAP1 DIV PUSH20 0xFFFFFFFFFFFFFFFFFFFFFFFFFFFFFFFFFFFFFFFF AND PUSH20 0xFFFFFFFFFFFFFFFFFFFFFFFFFFFFFFFFFFFFFFFF AND PUSH4 0xE248F2C4 DUP5 PUSH1 0x40 MLOAD DUP3 PUSH4 0xFFFFFFFF AND PUSH1 0xE0 SHL DUP2 MSTORE PUSH1 0x4 ADD PUSH2 0x2BCC SWAP2 SWAP1 PUSH2 0x4D90 JUMP JUMPDEST PUSH2 0x160 PUSH1 0x40 MLOAD DUP1 DUP4 SUB DUP2 DUP7 DUP1 EXTCODESIZE ISZERO DUP1 ISZERO PUSH2 0x2BE5 JUMPI PUSH1 0x0 DUP1 REVERT JUMPDEST POP GAS STATICCALL ISZERO DUP1 ISZERO PUSH2 0x2BF9 JUMPI RETURNDATASIZE PUSH1 0x0 DUP1 RETURNDATACOPY RETURNDATASIZE PUSH1 0x0 REVERT JUMPDEST POP POP POP POP PUSH1 0x40 MLOAD RETURNDATASIZE PUSH1 0x1F NOT PUSH1 0x1F DUP3 ADD AND DUP3 ADD DUP1 PUSH1 0x40 MSTORE POP DUP2 ADD SWAP1 PUSH2 0x2C1D SWAP2 SWAP1 PUSH2 0x68BC JUMP JUMPDEST SWAP1 POP DUP1 SWAP2 POP POP SWAP2 SWAP1 POP JUMP JUMPDEST PUSH2 0x2C30 PUSH2 0x11D1 JUMP JUMPDEST ISZERO PUSH2 0x2C70 JUMPI PUSH1 0x40 MLOAD PUSH32 0x8C379A000000000000000000000000000000000000000000000000000000000 DUP2 MSTORE PUSH1 0x4 ADD PUSH2 0x2C67 SWAP1 PUSH2 0x5B85 JUMP JUMPDEST PUSH1 0x40 MLOAD DUP1 SWAP2 SUB SWAP1 REVERT JUMPDEST PUSH1 0x17 PUSH1 0x0 SWAP1 SLOAD SWAP1 PUSH2 0x100 EXP SWAP1 DIV PUSH20 0xFFFFFFFFFFFFFFFFFFFFFFFFFFFFFFFFFFFFFFFF AND PUSH20 0xFFFFFFFFFFFFFFFFFFFFFFFFFFFFFFFFFFFFFFFF AND PUSH4 0x3C42612E DUP4 DUP4 PUSH2 0x140 ADD MLOAD DUP5 PUSH1 0x0 ADD MLOAD DUP6 PUSH1 0x80 ADD MLOAD DUP7 PUSH1 0xA0 ADD MLOAD DUP8 PUSH1 0x20 ADD MLOAD DUP9 PUSH1 0x40 ADD MLOAD PUSH1 0x40 MLOAD DUP9 PUSH4 0xFFFFFFFF AND PUSH1 0xE0 SHL DUP2 MSTORE PUSH1 0x4 ADD PUSH2 0x2CF0 SWAP8 SWAP7 SWAP6 SWAP5 SWAP4 SWAP3 SWAP2 SWAP1 PUSH2 0x695B JUMP JUMPDEST PUSH1 0x0 PUSH1 0x40 MLOAD DUP1 DUP4 SUB DUP2 PUSH1 0x0 DUP8 DUP1 EXTCODESIZE ISZERO DUP1 ISZERO PUSH2 0x2D0A JUMPI PUSH1 0x0 DUP1 REVERT JUMPDEST POP GAS CALL ISZERO DUP1 ISZERO PUSH2 0x2D1E JUMPI RETURNDATASIZE PUSH1 0x0 DUP1 RETURNDATACOPY RETURNDATASIZE PUSH1 0x0 REVERT JUMPDEST POP POP POP POP POP POP JUMP JUMPDEST DUP3 PUSH20 0xFFFFFFFFFFFFFFFFFFFFFFFFFFFFFFFFFFFFFFFF AND PUSH2 0x2D46 DUP3 PUSH2 0x11E8 JUMP JUMPDEST PUSH20 0xFFFFFFFFFFFFFFFFFFFFFFFFFFFFFFFFFFFFFFFF AND EQ PUSH2 0x2D9C JUMPI PUSH1 0x40 MLOAD PUSH32 0x8C379A000000000000000000000000000000000000000000000000000000000 DUP2 MSTORE PUSH1 0x4 ADD PUSH2 0x2D93 SWAP1 PUSH2 0x6A3C JUMP JUMPDEST PUSH1 0x40 MLOAD DUP1 SWAP2 SUB SWAP1 REVERT JUMPDEST PUSH1 0x0 PUSH20 0xFFFFFFFFFFFFFFFFFFFFFFFFFFFFFFFFFFFFFFFF AND DUP3 PUSH20 0xFFFFFFFFFFFFFFFFFFFFFFFFFFFFFFFFFFFFFFFF AND EQ ISZERO PUSH2 0x2E0C JUMPI PUSH1 0x40 MLOAD PUSH32 0x8C379A000000000000000000000000000000000000000000000000000000000 DUP2 MSTORE PUSH1 0x4 ADD PUSH2 0x2E03 SWAP1 PUSH2 0x6ACE JUMP JUMPDEST PUSH1 0x40 MLOAD DUP1 SWAP2 SUB SWAP1 REVERT JUMPDEST PUSH2 0x2E17 DUP4 DUP4 DUP4 PUSH2 0x3785 JUMP JUMPDEST PUSH2 0x2E22 PUSH1 0x0 DUP3 PUSH2 0x2AAE JUMP JUMPDEST PUSH1 0x1 PUSH1 0x6 PUSH1 0x0 DUP6 PUSH20 0xFFFFFFFFFFFFFFFFFFFFFFFFFFFFFFFFFFFFFFFF AND PUSH20 0xFFFFFFFFFFFFFFFFFFFFFFFFFFFFFFFFFFFFFFFF AND DUP2 MSTORE PUSH1 0x20 ADD SWAP1 DUP2 MSTORE PUSH1 0x20 ADD PUSH1 0x0 KECCAK256 PUSH1 0x0 DUP3 DUP3 SLOAD PUSH2 0x2E72 SWAP2 SWAP1 PUSH2 0x6B1D JUMP JUMPDEST SWAP3 POP POP DUP2 SWAP1 SSTORE POP PUSH1 0x1 PUSH1 0x6 PUSH1 0x0 DUP5 PUSH20 0xFFFFFFFFFFFFFFFFFFFFFFFFFFFFFFFFFFFFFFFF AND PUSH20 0xFFFFFFFFFFFFFFFFFFFFFFFFFFFFFFFFFFFFFFFF AND DUP2 MSTORE PUSH1 0x20 ADD SWAP1 DUP2 MSTORE PUSH1 0x20 ADD PUSH1 0x0 KECCAK256 PUSH1 0x0 DUP3 DUP3 SLOAD PUSH2 0x2EC9 SWAP2 SWAP1 PUSH2 0x6B51 JUMP JUMPDEST SWAP3 POP POP DUP2 SWAP1 SSTORE POP DUP2 PUSH1 0x5 PUSH1 0x0 DUP4 DUP2 MSTORE PUSH1 0x20 ADD SWAP1 DUP2 MSTORE PUSH1 0x20 ADD PUSH1 0x0 KECCAK256 PUSH1 0x0 PUSH2 0x100 EXP DUP2 SLOAD DUP2 PUSH20 0xFFFFFFFFFFFFFFFFFFFFFFFFFFFFFFFFFFFFFFFF MUL NOT AND SWAP1 DUP4 PUSH20 0xFFFFFFFFFFFFFFFFFFFFFFFFFFFFFFFFFFFFFFFF AND MUL OR SWAP1 SSTORE POP DUP1 DUP3 PUSH20 0xFFFFFFFFFFFFFFFFFFFFFFFFFFFFFFFFFFFFFFFF AND DUP5 PUSH20 0xFFFFFFFFFFFFFFFFFFFFFFFFFFFFFFFFFFFFFFFF AND PUSH32 0xDDF252AD1BE2C89B69C2B068FC378DAA952BA7F163C4A11628F55A4DF523B3EF PUSH1 0x40 MLOAD PUSH1 0x40 MLOAD DUP1 SWAP2 SUB SWAP1 LOG4 POP POP POP JUMP JUMPDEST PUSH1 0x0 PUSH2 0x2F8D DUP3 PUSH2 0x29C0 JUMP JUMPDEST PUSH2 0x2FCC JUMPI PUSH1 0x40 MLOAD PUSH32 0x8C379A000000000000000000000000000000000000000000000000000000000 DUP2 MSTORE PUSH1 0x4 ADD PUSH2 0x2FC3 SWAP1 PUSH2 0x6C19 JUMP JUMPDEST PUSH1 0x40 MLOAD DUP1 SWAP2 SUB SWAP1 REVERT JUMPDEST PUSH1 0x0 PUSH2 0x2FD7 DUP4 PUSH2 0x11E8 JUMP JUMPDEST SWAP1 POP DUP1 PUSH20 0xFFFFFFFFFFFFFFFFFFFFFFFFFFFFFFFFFFFFFFFF AND DUP5 PUSH20 0xFFFFFFFFFFFFFFFFFFFFFFFFFFFFFFFFFFFFFFFF AND EQ DUP1 PUSH2 0x3046 JUMPI POP DUP4 PUSH20 0xFFFFFFFFFFFFFFFFFFFFFFFFFFFFFFFFFFFFFFFF AND PUSH2 0x302E DUP5 PUSH2 0x930 JUMP JUMPDEST PUSH20 0xFFFFFFFFFFFFFFFFFFFFFFFFFFFFFFFFFFFFFFFF AND EQ JUMPDEST DUP1 PUSH2 0x3057 JUMPI POP PUSH2 0x3056 DUP2 DUP6 PUSH2 0x2498 JUMP JUMPDEST JUMPDEST SWAP2 POP POP SWAP3 SWAP2 POP POP JUMP JUMPDEST PUSH2 0x3069 DUP3 PUSH2 0xE7F JUMP JUMPDEST PUSH2 0x307A DUP2 PUSH2 0x3075 PUSH2 0x2AA6 JUMP JUMPDEST PUSH2 0x3795 JUMP JUMPDEST PUSH2 0x3084 DUP4 DUP4 PUSH2 0x3553 JUMP JUMPDEST POP POP POP JUMP JUMPDEST PUSH2 0x3091 PUSH2 0x2AA6 JUMP JUMPDEST PUSH20 0xFFFFFFFFFFFFFFFFFFFFFFFFFFFFFFFFFFFFFFFF AND DUP2 PUSH20 0xFFFFFFFFFFFFFFFFFFFFFFFFFFFFFFFFFFFFFFFF AND EQ PUSH2 0x30FE JUMPI PUSH1 0x40 MLOAD PUSH32 0x8C379A000000000000000000000000000000000000000000000000000000000 DUP2 MSTORE PUSH1 0x4 ADD PUSH2 0x30F5 SWAP1 PUSH2 0x6CAB JUMP JUMPDEST PUSH1 0x40 MLOAD DUP1 SWAP2 SUB SWAP1 REVERT JUMPDEST PUSH2 0x3108 DUP3 DUP3 PUSH2 0x3832 JUMP JUMPDEST POP POP JUMP JUMPDEST PUSH1 0x0 PUSH2 0x3134 DUP4 PUSH1 0x0 ADD DUP4 PUSH20 0xFFFFFFFFFFFFFFFFFFFFFFFFFFFFFFFFFFFFFFFF AND PUSH1 0x0 SHL PUSH2 0x3914 JUMP JUMPDEST SWAP1 POP SWAP3 SWAP2 POP POP JUMP JUMPDEST PUSH2 0x3144 PUSH2 0x11D1 JUMP JUMPDEST PUSH2 0x3183 JUMPI PUSH1 0x40 MLOAD PUSH32 0x8C379A000000000000000000000000000000000000000000000000000000000 DUP2 MSTORE PUSH1 0x4 ADD PUSH2 0x317A SWAP1 PUSH2 0x6D17 JUMP JUMPDEST PUSH1 0x40 MLOAD DUP1 SWAP2 SUB SWAP1 REVERT JUMPDEST PUSH1 0x0 PUSH1 0xD PUSH1 0x0 PUSH2 0x100 EXP DUP2 SLOAD DUP2 PUSH1 0xFF MUL NOT AND SWAP1 DUP4 ISZERO ISZERO MUL OR SWAP1 SSTORE POP PUSH32 0x5DB9EE0A495BF2E6FF9C91A7834C1BA4FDD244A5E8AA4E537BD38AEAE4B073AA PUSH2 0x31C7 PUSH2 0x2AA6 JUMP JUMPDEST PUSH1 0x40 MLOAD PUSH2 0x31D4 SWAP2 SWAP1 PUSH2 0x4C9D JUMP JUMPDEST PUSH1 0x40 MLOAD DUP1 SWAP2 SUB SWAP1 LOG1 JUMP JUMPDEST PUSH2 0x31E7 DUP2 PUSH2 0x3A28 JUMP JUMPDEST PUSH1 0x0 PUSH1 0xE PUSH1 0x0 DUP4 DUP2 MSTORE PUSH1 0x20 ADD SWAP1 DUP2 MSTORE PUSH1 0x20 ADD PUSH1 0x0 KECCAK256 DUP1 SLOAD PUSH2 0x3207 SWAP1 PUSH2 0x5204 JUMP JUMPDEST SWAP1 POP EQ PUSH2 0x322E JUMPI PUSH1 0xE PUSH1 0x0 DUP3 DUP2 MSTORE PUSH1 0x20 ADD SWAP1 DUP2 MSTORE PUSH1 0x20 ADD PUSH1 0x0 KECCAK256 PUSH1 0x0 PUSH2 0x322D SWAP2 SWAP1 PUSH2 0x4962 JUMP JUMPDEST JUMPDEST POP JUMP JUMPDEST PUSH2 0x3239 PUSH2 0x11D1 JUMP JUMPDEST ISZERO PUSH2 0x3279 JUMPI PUSH1 0x40 MLOAD PUSH32 0x8C379A000000000000000000000000000000000000000000000000000000000 DUP2 MSTORE PUSH1 0x4 ADD PUSH2 0x3270 SWAP1 PUSH2 0x5B85 JUMP JUMPDEST PUSH1 0x40 MLOAD DUP1 SWAP2 SUB SWAP1 REVERT JUMPDEST PUSH1 0x1 PUSH1 0xD PUSH1 0x0 PUSH2 0x100 EXP DUP2 SLOAD DUP2 PUSH1 0xFF MUL NOT AND SWAP1 DUP4 ISZERO ISZERO MUL OR SWAP1 SSTORE POP PUSH32 0x62E78CEA01BEE320CD4E420270B5EA74000D11B0C9F74754EBDBFC544B05A258 PUSH2 0x32BD PUSH2 0x2AA6 JUMP JUMPDEST PUSH1 0x40 MLOAD PUSH2 0x32CA SWAP2 SWAP1 PUSH2 0x4C9D JUMP JUMPDEST PUSH1 0x40 MLOAD DUP1 SWAP2 SUB SWAP1 LOG1 JUMP JUMPDEST PUSH2 0x32DD DUP3 PUSH2 0x29C0 JUMP JUMPDEST PUSH2 0x331C JUMPI PUSH1 0x40 MLOAD PUSH32 0x8C379A000000000000000000000000000000000000000000000000000000000 DUP2 MSTORE PUSH1 0x4 ADD PUSH2 0x3313 SWAP1 PUSH2 0x6DA9 JUMP JUMPDEST PUSH1 0x40 MLOAD DUP1 SWAP2 SUB SWAP1 REVERT JUMPDEST DUP1 PUSH1 0xE PUSH1 0x0 DUP5 DUP2 MSTORE PUSH1 0x20 ADD SWAP1 DUP2 MSTORE PUSH1 0x20 ADD PUSH1 0x0 KECCAK256 SWAP1 DUP1 MLOAD SWAP1 PUSH1 0x20 ADD SWAP1 PUSH2 0x3343 SWAP3 SWAP2 SWAP1 PUSH2 0x49A2 JUMP JUMPDEST POP POP POP JUMP JUMPDEST PUSH1 0x0 PUSH2 0x3357 DUP4 PUSH1 0x0 ADD DUP4 PUSH2 0x3B39 JUMP JUMPDEST PUSH1 0x0 SHR SWAP1 POP SWAP3 SWAP2 POP POP JUMP JUMPDEST PUSH2 0x336D DUP5 DUP5 DUP5 PUSH2 0x2D26 JUMP JUMPDEST PUSH2 0x3379 DUP5 DUP5 DUP5 DUP5 PUSH2 0x3B64 JUMP JUMPDEST PUSH2 0x33B8 JUMPI PUSH1 0x40 MLOAD PUSH32 0x8C379A000000000000000000000000000000000000000000000000000000000 DUP2 MSTORE PUSH1 0x4 ADD PUSH2 0x33AF SWAP1 PUSH2 0x6E3B JUMP JUMPDEST PUSH1 0x40 MLOAD DUP1 SWAP2 SUB SWAP1 REVERT JUMPDEST POP POP POP POP JUMP JUMPDEST PUSH1 0x60 PUSH1 0x10 DUP1 SLOAD PUSH2 0x33CD SWAP1 PUSH2 0x5204 JUMP JUMPDEST DUP1 PUSH1 0x1F ADD PUSH1 0x20 DUP1 SWAP2 DIV MUL PUSH1 0x20 ADD PUSH1 0x40 MLOAD SWAP1 DUP2 ADD PUSH1 0x40 MSTORE DUP1 SWAP3 SWAP2 SWAP1 DUP2 DUP2 MSTORE PUSH1 0x20 ADD DUP3 DUP1 SLOAD PUSH2 0x33F9 SWAP1 PUSH2 0x5204 JUMP JUMPDEST DUP1 ISZERO PUSH2 0x3446 JUMPI DUP1 PUSH1 0x1F LT PUSH2 0x341B JUMPI PUSH2 0x100 DUP1 DUP4 SLOAD DIV MUL DUP4 MSTORE SWAP2 PUSH1 0x20 ADD SWAP2 PUSH2 0x3446 JUMP JUMPDEST DUP3 ADD SWAP2 SWAP1 PUSH1 0x0 MSTORE PUSH1 0x20 PUSH1 0x0 KECCAK256 SWAP1 JUMPDEST DUP2 SLOAD DUP2 MSTORE SWAP1 PUSH1 0x1 ADD SWAP1 PUSH1 0x20 ADD DUP1 DUP4 GT PUSH2 0x3429 JUMPI DUP3 SWAP1 SUB PUSH1 0x1F AND DUP3 ADD SWAP2 JUMPDEST POP POP POP POP POP SWAP1 POP SWAP1 JUMP JUMPDEST PUSH1 0x60 PUSH2 0x345B DUP3 PUSH2 0x29C0 JUMP JUMPDEST PUSH2 0x349A JUMPI PUSH1 0x40 MLOAD PUSH32 0x8C379A000000000000000000000000000000000000000000000000000000000 DUP2 MSTORE PUSH1 0x4 ADD PUSH2 0x3491 SWAP1 PUSH2 0x6ECD JUMP JUMPDEST PUSH1 0x40 MLOAD DUP1 SWAP2 SUB SWAP1 REVERT JUMPDEST PUSH1 0x0 PUSH2 0x34A4 PUSH2 0x33BE JUMP JUMPDEST SWAP1 POP PUSH1 0x0 DUP2 MLOAD GT PUSH2 0x34C4 JUMPI PUSH1 0x40 MLOAD DUP1 PUSH1 0x20 ADD PUSH1 0x40 MSTORE DUP1 PUSH1 0x0 DUP2 MSTORE POP PUSH2 0x34EF JUMP JUMPDEST DUP1 PUSH2 0x34CE DUP5 PUSH2 0x3CFB JUMP JUMPDEST PUSH1 0x40 MLOAD PUSH1 0x20 ADD PUSH2 0x34DF SWAP3 SWAP2 SWAP1 PUSH2 0x63E1 JUMP JUMPDEST PUSH1 0x40 MLOAD PUSH1 0x20 DUP2 DUP4 SUB SUB DUP2 MSTORE SWAP1 PUSH1 0x40 MSTORE JUMPDEST SWAP2 POP POP SWAP2 SWAP1 POP JUMP JUMPDEST PUSH1 0x0 PUSH2 0x3505 DUP3 PUSH1 0x0 ADD PUSH2 0x3E5C JUMP JUMPDEST SWAP1 POP SWAP2 SWAP1 POP JUMP JUMPDEST PUSH2 0x3526 DUP3 DUP3 PUSH1 0x40 MLOAD DUP1 PUSH1 0x20 ADD PUSH1 0x40 MSTORE DUP1 PUSH1 0x0 DUP2 MSTORE POP PUSH2 0x3E6D JUMP JUMPDEST POP POP JUMP JUMPDEST PUSH2 0x3533 DUP3 PUSH2 0xE7F JUMP JUMPDEST PUSH2 0x3544 DUP2 PUSH2 0x353F PUSH2 0x2AA6 JUMP JUMPDEST PUSH2 0x3795 JUMP JUMPDEST PUSH2 0x354E DUP4 DUP4 PUSH2 0x3832 JUMP JUMPDEST POP POP POP JUMP JUMPDEST PUSH2 0x355D DUP3 DUP3 PUSH2 0x1884 JUMP JUMPDEST PUSH2 0x362F JUMPI PUSH1 0x1 DUP1 PUSH1 0x0 DUP5 DUP2 MSTORE PUSH1 0x20 ADD SWAP1 DUP2 MSTORE PUSH1 0x20 ADD PUSH1 0x0 KECCAK256 PUSH1 0x0 ADD PUSH1 0x0 DUP4 PUSH20 0xFFFFFFFFFFFFFFFFFFFFFFFFFFFFFFFFFFFFFFFF AND PUSH20 0xFFFFFFFFFFFFFFFFFFFFFFFFFFFFFFFFFFFFFFFF AND DUP2 MSTORE PUSH1 0x20 ADD SWAP1 DUP2 MSTORE PUSH1 0x20 ADD PUSH1 0x0 KECCAK256 PUSH1 0x0 PUSH2 0x100 EXP DUP2 SLOAD DUP2 PUSH1 0xFF MUL NOT AND SWAP1 DUP4 ISZERO ISZERO MUL OR SWAP1 SSTORE POP PUSH2 0x35D4 PUSH2 0x2AA6 JUMP JUMPDEST PUSH20 0xFFFFFFFFFFFFFFFFFFFFFFFFFFFFFFFFFFFFFFFF AND DUP2 PUSH20 0xFFFFFFFFFFFFFFFFFFFFFFFFFFFFFFFFFFFFFFFF AND DUP4 PUSH32 0x2F8788117E7EFF1D82E926EC794901D17C78024A50270940304540A733656F0D PUSH1 0x40 MLOAD PUSH1 0x40 MLOAD DUP1 SWAP2 SUB SWAP1 LOG4 JUMPDEST POP POP JUMP JUMPDEST PUSH1 0x0 PUSH2 0x363F DUP4 DUP4 PUSH2 0x3EC8 JUMP JUMPDEST PUSH2 0x3698 JUMPI DUP3 PUSH1 0x0 ADD DUP3 SWAP1 DUP1 PUSH1 0x1 DUP2 SLOAD ADD DUP1 DUP3 SSTORE DUP1 SWAP2 POP POP PUSH1 0x1 SWAP1 SUB SWAP1 PUSH1 0x0 MSTORE PUSH1 0x20 PUSH1 0x0 KECCAK256 ADD PUSH1 0x0 SWAP1 SWAP2 SWAP1 SWAP2 SWAP1 SWAP2 POP SSTORE DUP3 PUSH1 0x0 ADD DUP1 SLOAD SWAP1 POP DUP4 PUSH1 0x1 ADD PUSH1 0x0 DUP5 DUP2 MSTORE PUSH1 0x20 ADD SWAP1 DUP2 MSTORE PUSH1 0x20 ADD PUSH1 0x0 KECCAK256 DUP2 SWAP1 SSTORE POP PUSH1 0x1 SWAP1 POP PUSH2 0x369D JUMP JUMPDEST PUSH1 0x0 SWAP1 POP JUMPDEST SWAP3 SWAP2 POP POP JUMP JUMPDEST PUSH1 0x0 PUSH32 0x80AC58CD00000000000000000000000000000000000000000000000000000000 PUSH28 0xFFFFFFFFFFFFFFFFFFFFFFFFFFFFFFFFFFFFFFFFFFFFFFFFFFFFFFFF NOT AND DUP3 PUSH28 0xFFFFFFFFFFFFFFFFFFFFFFFFFFFFFFFFFFFFFFFFFFFFFFFFFFFFFFFF NOT AND EQ DUP1 PUSH2 0x376E JUMPI POP PUSH32 0x5B5E139F00000000000000000000000000000000000000000000000000000000 PUSH28 0xFFFFFFFFFFFFFFFFFFFFFFFFFFFFFFFFFFFFFFFFFFFFFFFFFFFFFFFF NOT AND DUP3 PUSH28 0xFFFFFFFFFFFFFFFFFFFFFFFFFFFFFFFFFFFFFFFFFFFFFFFFFFFFFFFF NOT AND EQ JUMPDEST DUP1 PUSH2 0x377E JUMPI POP PUSH2 0x377D DUP3 PUSH2 0x3EEB JUMP JUMPDEST JUMPDEST SWAP1 POP SWAP2 SWAP1 POP JUMP JUMPDEST PUSH2 0x3790 DUP4 DUP4 DUP4 PUSH2 0x3F65 JUMP JUMPDEST POP POP POP JUMP JUMPDEST PUSH2 0x379F DUP3 DUP3 PUSH2 0x1884 JUMP JUMPDEST PUSH2 0x382E JUMPI PUSH2 0x37C4 DUP2 PUSH20 0xFFFFFFFFFFFFFFFFFFFFFFFFFFFFFFFFFFFFFFFF AND PUSH1 0x14 PUSH2 0x3FBD JUMP JUMPDEST PUSH2 0x37D2 DUP4 PUSH1 0x0 SHR PUSH1 0x20 PUSH2 0x3FBD JUMP JUMPDEST PUSH1 0x40 MLOAD PUSH1 0x20 ADD PUSH2 0x37E3 SWAP3 SWAP2 SWAP1 PUSH2 0x6F85 JUMP JUMPDEST PUSH1 0x40 MLOAD PUSH1 0x20 DUP2 DUP4 SUB SUB DUP2 MSTORE SWAP1 PUSH1 0x40 MSTORE PUSH1 0x40 MLOAD PUSH32 0x8C379A000000000000000000000000000000000000000000000000000000000 DUP2 MSTORE PUSH1 0x4 ADD PUSH2 0x3825 SWAP2 SWAP1 PUSH2 0x4C3A JUMP JUMPDEST PUSH1 0x40 MLOAD DUP1 SWAP2 SUB SWAP1 REVERT JUMPDEST POP POP JUMP JUMPDEST PUSH2 0x383C DUP3 DUP3 PUSH2 0x1884 JUMP JUMPDEST ISZERO PUSH2 0x3910 JUMPI PUSH1 0x0 PUSH1 0x1 PUSH1 0x0 DUP5 DUP2 MSTORE PUSH1 0x20 ADD SWAP1 DUP2 MSTORE PUSH1 0x20 ADD PUSH1 0x0 KECCAK256 PUSH1 0x0 ADD PUSH1 0x0 DUP4 PUSH20 0xFFFFFFFFFFFFFFFFFFFFFFFFFFFFFFFFFFFFFFFF AND PUSH20 0xFFFFFFFFFFFFFFFFFFFFFFFFFFFFFFFFFFFFFFFF AND DUP2 MSTORE PUSH1 0x20 ADD SWAP1 DUP2 MSTORE PUSH1 0x20 ADD PUSH1 0x0 KECCAK256 PUSH1 0x0 PUSH2 0x100 EXP DUP2 SLOAD DUP2 PUSH1 0xFF MUL NOT AND SWAP1 DUP4 ISZERO ISZERO MUL OR SWAP1 SSTORE POP PUSH2 0x38B5 PUSH2 0x2AA6 JUMP JUMPDEST PUSH20 0xFFFFFFFFFFFFFFFFFFFFFFFFFFFFFFFFFFFFFFFF AND DUP2 PUSH20 0xFFFFFFFFFFFFFFFFFFFFFFFFFFFFFFFFFFFFFFFF AND DUP4 PUSH32 0xF6391F5C32D9C69D2A47EA670B442974B53935D1EDC7FD64EB21E047A839171B PUSH1 0x40 MLOAD PUSH1 0x40 MLOAD DUP1 SWAP2 SUB SWAP1 LOG4 JUMPDEST POP POP JUMP JUMPDEST PUSH1 0x0 DUP1 DUP4 PUSH1 0x1 ADD PUSH1 0x0 DUP5 DUP2 MSTORE PUSH1 0x20 ADD SWAP1 DUP2 MSTORE PUSH1 0x20 ADD PUSH1 0x0 KECCAK256 SLOAD SWAP1 POP PUSH1 0x0 DUP2 EQ PUSH2 0x3A1C JUMPI PUSH1 0x0 PUSH1 0x1 DUP3 PUSH2 0x3946 SWAP2 SWAP1 PUSH2 0x6B1D JUMP JUMPDEST SWAP1 POP PUSH1 0x0 PUSH1 0x1 DUP7 PUSH1 0x0 ADD DUP1 SLOAD SWAP1 POP PUSH2 0x395E SWAP2 SWAP1 PUSH2 0x6B1D JUMP JUMPDEST SWAP1 POP DUP2 DUP2 EQ PUSH2 0x39CD JUMPI PUSH1 0x0 DUP7 PUSH1 0x0 ADD DUP3 DUP2 SLOAD DUP2 LT PUSH2 0x397F JUMPI PUSH2 0x397E PUSH2 0x59E6 JUMP JUMPDEST JUMPDEST SWAP1 PUSH1 0x0 MSTORE PUSH1 0x20 PUSH1 0x0 KECCAK256 ADD SLOAD SWAP1 POP DUP1 DUP8 PUSH1 0x0 ADD DUP5 DUP2 SLOAD DUP2 LT PUSH2 0x39A3 JUMPI PUSH2 0x39A2 PUSH2 0x59E6 JUMP JUMPDEST JUMPDEST SWAP1 PUSH1 0x0 MSTORE PUSH1 0x20 PUSH1 0x0 KECCAK256 ADD DUP2 SWAP1 SSTORE POP DUP4 DUP8 PUSH1 0x1 ADD PUSH1 0x0 DUP4 DUP2 MSTORE PUSH1 0x20 ADD SWAP1 DUP2 MSTORE PUSH1 0x20 ADD PUSH1 0x0 KECCAK256 DUP2 SWAP1 SSTORE POP POP JUMPDEST DUP6 PUSH1 0x0 ADD DUP1 SLOAD DUP1 PUSH2 0x39E1 JUMPI PUSH2 0x39E0 PUSH2 0x6FBF JUMP JUMPDEST JUMPDEST PUSH1 0x1 SWAP1 SUB DUP2 DUP2 SWAP1 PUSH1 0x0 MSTORE PUSH1 0x20 PUSH1 0x0 KECCAK256 ADD PUSH1 0x0 SWAP1 SSTORE SWAP1 SSTORE DUP6 PUSH1 0x1 ADD PUSH1 0x0 DUP7 DUP2 MSTORE PUSH1 0x20 ADD SWAP1 DUP2 MSTORE PUSH1 0x20 ADD PUSH1 0x0 KECCAK256 PUSH1 0x0 SWAP1 SSTORE PUSH1 0x1 SWAP4 POP POP POP POP PUSH2 0x3A22 JUMP JUMPDEST PUSH1 0x0 SWAP2 POP POP JUMPDEST SWAP3 SWAP2 POP POP JUMP JUMPDEST PUSH1 0x0 PUSH2 0x3A33 DUP3 PUSH2 0x11E8 JUMP JUMPDEST SWAP1 POP PUSH2 0x3A41 DUP2 PUSH1 0x0 DUP5 PUSH2 0x3785 JUMP JUMPDEST PUSH2 0x3A4C PUSH1 0x0 DUP4 PUSH2 0x2AAE JUMP JUMPDEST PUSH1 0x1 PUSH1 0x6 PUSH1 0x0 DUP4 PUSH20 0xFFFFFFFFFFFFFFFFFFFFFFFFFFFFFFFFFFFFFFFF AND PUSH20 0xFFFFFFFFFFFFFFFFFFFFFFFFFFFFFFFFFFFFFFFF AND DUP2 MSTORE PUSH1 0x20 ADD SWAP1 DUP2 MSTORE PUSH1 0x20 ADD PUSH1 0x0 KECCAK256 PUSH1 0x0 DUP3 DUP3 SLOAD PUSH2 0x3A9C SWAP2 SWAP1 PUSH2 0x6B1D JUMP JUMPDEST SWAP3 POP POP DUP2 SWAP1 SSTORE POP PUSH1 0x5 PUSH1 0x0 DUP4 DUP2 MSTORE PUSH1 0x20 ADD SWAP1 DUP2 MSTORE PUSH1 0x20 ADD PUSH1 0x0 KECCAK256 PUSH1 0x0 PUSH2 0x100 EXP DUP2 SLOAD SWAP1 PUSH20 0xFFFFFFFFFFFFFFFFFFFFFFFFFFFFFFFFFFFFFFFF MUL NOT AND SWAP1 SSTORE DUP2 PUSH1 0x0 PUSH20 0xFFFFFFFFFFFFFFFFFFFFFFFFFFFFFFFFFFFFFFFF AND DUP3 PUSH20 0xFFFFFFFFFFFFFFFFFFFFFFFFFFFFFFFFFFFFFFFF AND PUSH32 0xDDF252AD1BE2C89B69C2B068FC378DAA952BA7F163C4A11628F55A4DF523B3EF PUSH1 0x40 MLOAD PUSH1 0x40 MLOAD DUP1 SWAP2 SUB SWAP1 LOG4 POP POP JUMP JUMPDEST PUSH1 0x0 DUP3 PUSH1 0x0 ADD DUP3 DUP2 SLOAD DUP2 LT PUSH2 0x3B51 JUMPI PUSH2 0x3B50 PUSH2 0x59E6 JUMP JUMPDEST JUMPDEST SWAP1 PUSH1 0x0 MSTORE PUSH1 0x20 PUSH1 0x0 KECCAK256 ADD SLOAD SWAP1 POP SWAP3 SWAP2 POP POP JUMP JUMPDEST PUSH1 0x0 PUSH2 0x3B85 DUP5 PUSH20 0xFFFFFFFFFFFFFFFFFFFFFFFFFFFFFFFFFFFFFFFF AND PUSH2 0x41F9 JUMP JUMPDEST ISZERO PUSH2 0x3CEE JUMPI DUP4 PUSH20 0xFFFFFFFFFFFFFFFFFFFFFFFFFFFFFFFFFFFFFFFF AND PUSH4 0x150B7A02 PUSH2 0x3BAE PUSH2 0x2AA6 JUMP JUMPDEST DUP8 DUP7 DUP7 PUSH1 0x40 MLOAD DUP6 PUSH4 0xFFFFFFFF AND PUSH1 0xE0 SHL DUP2 MSTORE PUSH1 0x4 ADD PUSH2 0x3BD0 SWAP5 SWAP4 SWAP3 SWAP2 SWAP1 PUSH2 0x7043 JUMP JUMPDEST PUSH1 0x20 PUSH1 0x40 MLOAD DUP1 DUP4 SUB DUP2 PUSH1 0x0 DUP8 DUP1 EXTCODESIZE ISZERO DUP1 ISZERO PUSH2 0x3BEA JUMPI PUSH1 0x0 DUP1 REVERT JUMPDEST POP GAS CALL SWAP3 POP POP POP DUP1 ISZERO PUSH2 0x3C1B JUMPI POP PUSH1 0x40 MLOAD RETURNDATASIZE PUSH1 0x1F NOT PUSH1 0x1F DUP3 ADD AND DUP3 ADD DUP1 PUSH1 0x40 MSTORE POP DUP2 ADD SWAP1 PUSH2 0x3C18 SWAP2 SWAP1 PUSH2 0x70A4 JUMP JUMPDEST PUSH1 0x1 JUMPDEST PUSH2 0x3C9E JUMPI RETURNDATASIZE DUP1 PUSH1 0x0 DUP2 EQ PUSH2 0x3C4B JUMPI PUSH1 0x40 MLOAD SWAP2 POP PUSH1 0x1F NOT PUSH1 0x3F RETURNDATASIZE ADD AND DUP3 ADD PUSH1 0x40 MSTORE RETURNDATASIZE DUP3 MSTORE RETURNDATASIZE PUSH1 0x0 PUSH1 0x20 DUP5 ADD RETURNDATACOPY PUSH2 0x3C50 JUMP JUMPDEST PUSH1 0x60 SWAP2 POP JUMPDEST POP PUSH1 0x0 DUP2 MLOAD EQ ISZERO PUSH2 0x3C96 JUMPI PUSH1 0x40 MLOAD PUSH32 0x8C379A000000000000000000000000000000000000000000000000000000000 DUP2 MSTORE PUSH1 0x4 ADD PUSH2 0x3C8D SWAP1 PUSH2 0x6E3B JUMP JUMPDEST PUSH1 0x40 MLOAD DUP1 SWAP2 SUB SWAP1 REVERT JUMPDEST DUP1 MLOAD DUP2 PUSH1 0x20 ADD REVERT JUMPDEST PUSH4 0x150B7A02 PUSH1 0xE0 SHL PUSH28 0xFFFFFFFFFFFFFFFFFFFFFFFFFFFFFFFFFFFFFFFFFFFFFFFFFFFFFFFF NOT AND DUP2 PUSH28 0xFFFFFFFFFFFFFFFFFFFFFFFFFFFFFFFFFFFFFFFFFFFFFFFFFFFFFFFF NOT AND EQ SWAP2 POP POP PUSH2 0x3CF3 JUMP JUMPDEST PUSH1 0x1 SWAP1 POP JUMPDEST SWAP5 SWAP4 POP POP POP POP JUMP JUMPDEST PUSH1 0x60 PUSH1 0x0 DUP3 EQ ISZERO PUSH2 0x3D43 JUMPI PUSH1 0x40 MLOAD DUP1 PUSH1 0x40 ADD PUSH1 0x40 MSTORE DUP1 PUSH1 0x1 DUP2 MSTORE PUSH1 0x20 ADD PUSH32 0x3000000000000000000000000000000000000000000000000000000000000000 DUP2 MSTORE POP SWAP1 POP PUSH2 0x3E57 JUMP JUMPDEST PUSH1 0x0 DUP3 SWAP1 POP PUSH1 0x0 JUMPDEST PUSH1 0x0 DUP3 EQ PUSH2 0x3D75 JUMPI DUP1 DUP1 PUSH2 0x3D5E SWAP1 PUSH2 0x70D1 JUMP JUMPDEST SWAP2 POP POP PUSH1 0xA DUP3 PUSH2 0x3D6E SWAP2 SWAP1 PUSH2 0x7149 JUMP JUMPDEST SWAP2 POP PUSH2 0x3D4B JUMP JUMPDEST PUSH1 0x0 DUP2 PUSH8 0xFFFFFFFFFFFFFFFF DUP2 GT ISZERO PUSH2 0x3D91 JUMPI PUSH2 0x3D90 PUSH2 0x4FE7 JUMP JUMPDEST JUMPDEST PUSH1 0x40 MLOAD SWAP1 DUP1 DUP3 MSTORE DUP1 PUSH1 0x1F ADD PUSH1 0x1F NOT AND PUSH1 0x20 ADD DUP3 ADD PUSH1 0x40 MSTORE DUP1 ISZERO PUSH2 0x3DC3 JUMPI DUP2 PUSH1 0x20 ADD PUSH1 0x1 DUP3 MUL DUP1 CALLDATASIZE DUP4 CALLDATACOPY DUP1 DUP3 ADD SWAP2 POP POP SWAP1 POP JUMPDEST POP SWAP1 POP JUMPDEST PUSH1 0x0 DUP6 EQ PUSH2 0x3E50 JUMPI PUSH1 0x1 DUP3 PUSH2 0x3DDC SWAP2 SWAP1 PUSH2 0x6B1D JUMP JUMPDEST SWAP2 POP PUSH1 0xA DUP6 PUSH2 0x3DEB SWAP2 SWAP1 PUSH2 0x717A JUMP JUMPDEST PUSH1 0x30 PUSH2 0x3DF7 SWAP2 SWAP1 PUSH2 0x6B51 JUMP JUMPDEST PUSH1 0xF8 SHL DUP2 DUP4 DUP2 MLOAD DUP2 LT PUSH2 0x3E0D JUMPI PUSH2 0x3E0C PUSH2 0x59E6 JUMP JUMPDEST JUMPDEST PUSH1 0x20 ADD ADD SWAP1 PUSH31 0xFFFFFFFFFFFFFFFFFFFFFFFFFFFFFFFFFFFFFFFFFFFFFFFFFFFFFFFFFFFFFF NOT AND SWAP1 DUP2 PUSH1 0x0 BYTE SWAP1 MSTORE8 POP PUSH1 0xA DUP6 PUSH2 0x3E49 SWAP2 SWAP1 PUSH2 0x7149 JUMP JUMPDEST SWAP5 POP PUSH2 0x3DC7 JUMP JUMPDEST DUP1 SWAP4 POP POP POP POP JUMPDEST SWAP2 SWAP1 POP JUMP JUMPDEST PUSH1 0x0 DUP2 PUSH1 0x0 ADD DUP1 SLOAD SWAP1 POP SWAP1 POP SWAP2 SWAP1 POP JUMP JUMPDEST PUSH2 0x3E77 DUP4 DUP4 PUSH2 0x420C JUMP JUMPDEST PUSH2 0x3E84 PUSH1 0x0 DUP5 DUP5 DUP5 PUSH2 0x3B64 JUMP JUMPDEST PUSH2 0x3EC3 JUMPI PUSH1 0x40 MLOAD PUSH32 0x8C379A000000000000000000000000000000000000000000000000000000000 DUP2 MSTORE PUSH1 0x4 ADD PUSH2 0x3EBA SWAP1 PUSH2 0x6E3B JUMP JUMPDEST PUSH1 0x40 MLOAD DUP1 SWAP2 SUB SWAP1 REVERT JUMPDEST POP POP POP JUMP JUMPDEST PUSH1 0x0 DUP1 DUP4 PUSH1 0x1 ADD PUSH1 0x0 DUP5 DUP2 MSTORE PUSH1 0x20 ADD SWAP1 DUP2 MSTORE PUSH1 0x20 ADD PUSH1 0x0 KECCAK256 SLOAD EQ ISZERO SWAP1 POP SWAP3 SWAP2 POP POP JUMP JUMPDEST PUSH1 0x0 PUSH32 0x5A05180F00000000000000000000000000000000000000000000000000000000 PUSH28 0xFFFFFFFFFFFFFFFFFFFFFFFFFFFFFFFFFFFFFFFFFFFFFFFFFFFFFFFF NOT AND DUP3 PUSH28 0xFFFFFFFFFFFFFFFFFFFFFFFFFFFFFFFFFFFFFFFFFFFFFFFFFFFFFFFF NOT AND EQ DUP1 PUSH2 0x3F5E JUMPI POP PUSH2 0x3F5D DUP3 PUSH2 0x43DA JUMP JUMPDEST JUMPDEST SWAP1 POP SWAP2 SWAP1 POP JUMP JUMPDEST PUSH2 0x3F70 DUP4 DUP4 DUP4 PUSH2 0x4454 JUMP JUMPDEST PUSH2 0x3F78 PUSH2 0x11D1 JUMP JUMPDEST ISZERO PUSH2 0x3FB8 JUMPI PUSH1 0x40 MLOAD PUSH32 0x8C379A000000000000000000000000000000000000000000000000000000000 DUP2 MSTORE PUSH1 0x4 ADD PUSH2 0x3FAF SWAP1 PUSH2 0x721D JUMP JUMPDEST PUSH1 0x40 MLOAD DUP1 SWAP2 SUB SWAP1 REVERT JUMPDEST POP POP POP JUMP JUMPDEST PUSH1 0x60 PUSH1 0x0 PUSH1 0x2 DUP4 PUSH1 0x2 PUSH2 0x3FD0 SWAP2 SWAP1 PUSH2 0x723D JUMP JUMPDEST PUSH2 0x3FDA SWAP2 SWAP1 PUSH2 0x6B51 JUMP JUMPDEST PUSH8 0xFFFFFFFFFFFFFFFF DUP2 GT ISZERO PUSH2 0x3FF3 JUMPI PUSH2 0x3FF2 PUSH2 0x4FE7 JUMP JUMPDEST JUMPDEST PUSH1 0x40 MLOAD SWAP1 DUP1 DUP3 MSTORE DUP1 PUSH1 0x1F ADD PUSH1 0x1F NOT AND PUSH1 0x20 ADD DUP3 ADD PUSH1 0x40 MSTORE DUP1 ISZERO PUSH2 0x4025 JUMPI DUP2 PUSH1 0x20 ADD PUSH1 0x1 DUP3 MUL DUP1 CALLDATASIZE DUP4 CALLDATACOPY DUP1 DUP3 ADD SWAP2 POP POP SWAP1 POP JUMPDEST POP SWAP1 POP PUSH32 0x3000000000000000000000000000000000000000000000000000000000000000 DUP2 PUSH1 0x0 DUP2 MLOAD DUP2 LT PUSH2 0x405D JUMPI PUSH2 0x405C PUSH2 0x59E6 JUMP JUMPDEST JUMPDEST PUSH1 0x20 ADD ADD SWAP1 PUSH31 0xFFFFFFFFFFFFFFFFFFFFFFFFFFFFFFFFFFFFFFFFFFFFFFFFFFFFFFFFFFFFFF NOT AND SWAP1 DUP2 PUSH1 0x0 BYTE SWAP1 MSTORE8 POP PUSH32 0x7800000000000000000000000000000000000000000000000000000000000000 DUP2 PUSH1 0x1 DUP2 MLOAD DUP2 LT PUSH2 0x40C1 JUMPI PUSH2 0x40C0 PUSH2 0x59E6 JUMP JUMPDEST JUMPDEST PUSH1 0x20 ADD ADD SWAP1 PUSH31 0xFFFFFFFFFFFFFFFFFFFFFFFFFFFFFFFFFFFFFFFFFFFFFFFFFFFFFFFFFFFFFF NOT AND SWAP1 DUP2 PUSH1 0x0 BYTE SWAP1 MSTORE8 POP PUSH1 0x0 PUSH1 0x1 DUP5 PUSH1 0x2 PUSH2 0x4101 SWAP2 SWAP1 PUSH2 0x723D JUMP JUMPDEST PUSH2 0x410B SWAP2 SWAP1 PUSH2 0x6B51 JUMP JUMPDEST SWAP1 POP JUMPDEST PUSH1 0x1 DUP2 GT ISZERO PUSH2 0x41AB JUMPI PUSH32 0x3031323334353637383961626364656600000000000000000000000000000000 PUSH1 0xF DUP7 AND PUSH1 0x10 DUP2 LT PUSH2 0x414D JUMPI PUSH2 0x414C PUSH2 0x59E6 JUMP JUMPDEST JUMPDEST BYTE PUSH1 0xF8 SHL DUP3 DUP3 DUP2 MLOAD DUP2 LT PUSH2 0x4164 JUMPI PUSH2 0x4163 PUSH2 0x59E6 JUMP JUMPDEST JUMPDEST PUSH1 0x20 ADD ADD SWAP1 PUSH31 0xFFFFFFFFFFFFFFFFFFFFFFFFFFFFFFFFFFFFFFFFFFFFFFFFFFFFFFFFFFFFFF NOT AND SWAP1 DUP2 PUSH1 0x0 BYTE SWAP1 MSTORE8 POP PUSH1 0x4 DUP6 SWAP1 SHR SWAP5 POP DUP1 PUSH2 0x41A4 SWAP1 PUSH2 0x7297 JUMP JUMPDEST SWAP1 POP PUSH2 0x410E JUMP JUMPDEST POP PUSH1 0x0 DUP5 EQ PUSH2 0x41EF JUMPI PUSH1 0x40 MLOAD PUSH32 0x8C379A000000000000000000000000000000000000000000000000000000000 DUP2 MSTORE PUSH1 0x4 ADD PUSH2 0x41E6 SWAP1 PUSH2 0x730D JUMP JUMPDEST PUSH1 0x40 MLOAD DUP1 SWAP2 SUB SWAP1 REVERT JUMPDEST DUP1 SWAP2 POP POP SWAP3 SWAP2 POP POP JUMP JUMPDEST PUSH1 0x0 DUP1 DUP3 EXTCODESIZE SWAP1 POP PUSH1 0x0 DUP2 GT SWAP2 POP POP SWAP2 SWAP1 POP JUMP JUMPDEST PUSH1 0x0 PUSH20 0xFFFFFFFFFFFFFFFFFFFFFFFFFFFFFFFFFFFFFFFF AND DUP3 PUSH20 0xFFFFFFFFFFFFFFFFFFFFFFFFFFFFFFFFFFFFFFFF AND EQ ISZERO PUSH2 0x427C JUMPI PUSH1 0x40 MLOAD PUSH32 0x8C379A000000000000000000000000000000000000000000000000000000000 DUP2 MSTORE PUSH1 0x4 ADD PUSH2 0x4273 SWAP1 PUSH2 0x7379 JUMP JUMPDEST PUSH1 0x40 MLOAD DUP1 SWAP2 SUB SWAP1 REVERT JUMPDEST PUSH2 0x4285 DUP2 PUSH2 0x29C0 JUMP JUMPDEST ISZERO PUSH2 0x42C5 JUMPI PUSH1 0x40 MLOAD PUSH32 0x8C379A000000000000000000000000000000000000000000000000000000000 DUP2 MSTORE PUSH1 0x4 ADD PUSH2 0x42BC SWAP1 PUSH2 0x73E5 JUMP JUMPDEST PUSH1 0x40 MLOAD DUP1 SWAP2 SUB SWAP1 REVERT JUMPDEST PUSH2 0x42D1 PUSH1 0x0 DUP4 DUP4 PUSH2 0x3785 JUMP JUMPDEST PUSH1 0x1 PUSH1 0x6 PUSH1 0x0 DUP5 PUSH20 0xFFFFFFFFFFFFFFFFFFFFFFFFFFFFFFFFFFFFFFFF AND PUSH20 0xFFFFFFFFFFFFFFFFFFFFFFFFFFFFFFFFFFFFFFFF AND DUP2 MSTORE PUSH1 0x20 ADD SWAP1 DUP2 MSTORE PUSH1 0x20 ADD PUSH1 0x0 KECCAK256 PUSH1 0x0 DUP3 DUP3 SLOAD PUSH2 0x4321 SWAP2 SWAP1 PUSH2 0x6B51 JUMP JUMPDEST SWAP3 POP POP DUP2 SWAP1 SSTORE POP DUP2 PUSH1 0x5 PUSH1 0x0 DUP4 DUP2 MSTORE PUSH1 0x20 ADD SWAP1 DUP2 MSTORE PUSH1 0x20 ADD PUSH1 0x0 KECCAK256 PUSH1 0x0 PUSH2 0x100 EXP DUP2 SLOAD DUP2 PUSH20 0xFFFFFFFFFFFFFFFFFFFFFFFFFFFFFFFFFFFFFFFF MUL NOT AND SWAP1 DUP4 PUSH20 0xFFFFFFFFFFFFFFFFFFFFFFFFFFFFFFFFFFFFFFFF AND MUL OR SWAP1 SSTORE POP DUP1 DUP3 PUSH20 0xFFFFFFFFFFFFFFFFFFFFFFFFFFFFFFFFFFFFFFFF AND PUSH1 0x0 PUSH20 0xFFFFFFFFFFFFFFFFFFFFFFFFFFFFFFFFFFFFFFFF AND PUSH32 0xDDF252AD1BE2C89B69C2B068FC378DAA952BA7F163C4A11628F55A4DF523B3EF PUSH1 0x40 MLOAD PUSH1 0x40 MLOAD DUP1 SWAP2 SUB SWAP1 LOG4 POP POP JUMP JUMPDEST PUSH1 0x0 PUSH32 0x7965DB0B00000000000000000000000000000000000000000000000000000000 PUSH28 0xFFFFFFFFFFFFFFFFFFFFFFFFFFFFFFFFFFFFFFFFFFFFFFFFFFFFFFFF NOT AND DUP3 PUSH28 0xFFFFFFFFFFFFFFFFFFFFFFFFFFFFFFFFFFFFFFFFFFFFFFFFFFFFFFFF NOT AND EQ DUP1 PUSH2 0x444D JUMPI POP PUSH2 0x444C DUP3 PUSH2 0x4568 JUMP JUMPDEST JUMPDEST SWAP1 POP SWAP2 SWAP1 POP JUMP JUMPDEST PUSH2 0x445F DUP4 DUP4 DUP4 PUSH2 0x45D2 JUMP JUMPDEST PUSH1 0x0 PUSH20 0xFFFFFFFFFFFFFFFFFFFFFFFFFFFFFFFFFFFFFFFF AND DUP4 PUSH20 0xFFFFFFFFFFFFFFFFFFFFFFFFFFFFFFFFFFFFFFFF AND EQ ISZERO PUSH2 0x44A2 JUMPI PUSH2 0x449D DUP2 PUSH2 0x45D7 JUMP JUMPDEST PUSH2 0x44E1 JUMP JUMPDEST DUP2 PUSH20 0xFFFFFFFFFFFFFFFFFFFFFFFFFFFFFFFFFFFFFFFF AND DUP4 PUSH20 0xFFFFFFFFFFFFFFFFFFFFFFFFFFFFFFFFFFFFFFFF AND EQ PUSH2 0x44E0 JUMPI PUSH2 0x44DF DUP4 DUP3 PUSH2 0x4620 JUMP JUMPDEST JUMPDEST JUMPDEST PUSH1 0x0 PUSH20 0xFFFFFFFFFFFFFFFFFFFFFFFFFFFFFFFFFFFFFFFF AND DUP3 PUSH20 0xFFFFFFFFFFFFFFFFFFFFFFFFFFFFFFFFFFFFFFFF AND EQ ISZERO PUSH2 0x4524 JUMPI PUSH2 0x451F DUP2 PUSH2 0x478D JUMP JUMPDEST PUSH2 0x4563 JUMP JUMPDEST DUP3 PUSH20 0xFFFFFFFFFFFFFFFFFFFFFFFFFFFFFFFFFFFFFFFF AND DUP3 PUSH20 0xFFFFFFFFFFFFFFFFFFFFFFFFFFFFFFFFFFFFFFFF AND EQ PUSH2 0x4562 JUMPI PUSH2 0x4561 DUP3 DUP3 PUSH2 0x485E JUMP JUMPDEST JUMPDEST JUMPDEST POP POP POP JUMP JUMPDEST PUSH1 0x0 PUSH32 0x1FFC9A700000000000000000000000000000000000000000000000000000000 PUSH28 0xFFFFFFFFFFFFFFFFFFFFFFFFFFFFFFFFFFFFFFFFFFFFFFFFFFFFFFFF NOT AND DUP3 PUSH28 0xFFFFFFFFFFFFFFFFFFFFFFFFFFFFFFFFFFFFFFFFFFFFFFFFFFFFFFFF NOT AND EQ SWAP1 POP SWAP2 SWAP1 POP JUMP JUMPDEST POP POP POP JUMP JUMPDEST PUSH1 0xB DUP1 SLOAD SWAP1 POP PUSH1 0xC PUSH1 0x0 DUP4 DUP2 MSTORE PUSH1 0x20 ADD SWAP1 DUP2 MSTORE PUSH1 0x20 ADD PUSH1 0x0 KECCAK256 DUP2 SWAP1 SSTORE POP PUSH1 0xB DUP2 SWAP1 DUP1 PUSH1 0x1 DUP2 SLOAD ADD DUP1 DUP3 SSTORE DUP1 SWAP2 POP POP PUSH1 0x1 SWAP1 SUB SWAP1 PUSH1 0x0 MSTORE PUSH1 0x20 PUSH1 0x0 KECCAK256 ADD PUSH1 0x0 SWAP1 SWAP2 SWAP1 SWAP2 SWAP1 SWAP2 POP SSTORE POP JUMP JUMPDEST PUSH1 0x0 PUSH1 0x1 PUSH2 0x462D DUP5 PUSH2 0x129A JUMP JUMPDEST PUSH2 0x4637 SWAP2 SWAP1 PUSH2 0x6B1D JUMP JUMPDEST SWAP1 POP PUSH1 0x0 PUSH1 0xA PUSH1 0x0 DUP5 DUP2 MSTORE PUSH1 0x20 ADD SWAP1 DUP2 MSTORE PUSH1 0x20 ADD PUSH1 0x0 KECCAK256 SLOAD SWAP1 POP DUP2 DUP2 EQ PUSH2 0x471C JUMPI PUSH1 0x0 PUSH1 0x9 PUSH1 0x0 DUP7 PUSH20 0xFFFFFFFFFFFFFFFFFFFFFFFFFFFFFFFFFFFFFFFF AND PUSH20 0xFFFFFFFFFFFFFFFFFFFFFFFFFFFFFFFFFFFFFFFF AND DUP2 MSTORE PUSH1 0x20 ADD SWAP1 DUP2 MSTORE PUSH1 0x20 ADD PUSH1 0x0 KECCAK256 PUSH1 0x0 DUP5 DUP2 MSTORE PUSH1 0x20 ADD SWAP1 DUP2 MSTORE PUSH1 0x20 ADD PUSH1 0x0 KECCAK256 SLOAD SWAP1 POP DUP1 PUSH1 0x9 PUSH1 0x0 DUP8 PUSH20 0xFFFFFFFFFFFFFFFFFFFFFFFFFFFFFFFFFFFFFFFF AND PUSH20 0xFFFFFFFFFFFFFFFFFFFFFFFFFFFFFFFFFFFFFFFF AND DUP2 MSTORE PUSH1 0x20 ADD SWAP1 DUP2 MSTORE PUSH1 0x20 ADD PUSH1 0x0 KECCAK256 PUSH1 0x0 DUP5 DUP2 MSTORE PUSH1 0x20 ADD SWAP1 DUP2 MSTORE PUSH1 0x20 ADD PUSH1 0x0 KECCAK256 DUP2 SWAP1 SSTORE POP DUP2 PUSH1 0xA PUSH1 0x0 DUP4 DUP2 MSTORE PUSH1 0x20 ADD SWAP1 DUP2 MSTORE PUSH1 0x20 ADD PUSH1 0x0 KECCAK256 DUP2 SWAP1 SSTORE POP POP JUMPDEST PUSH1 0xA PUSH1 0x0 DUP5 DUP2 MSTORE PUSH1 0x20 ADD SWAP1 DUP2 MSTORE PUSH1 0x20 ADD PUSH1 0x0 KECCAK256 PUSH1 0x0 SWAP1 SSTORE PUSH1 0x9 PUSH1 0x0 DUP6 PUSH20 0xFFFFFFFFFFFFFFFFFFFFFFFFFFFFFFFFFFFFFFFF AND PUSH20 0xFFFFFFFFFFFFFFFFFFFFFFFFFFFFFFFFFFFFFFFF AND DUP2 MSTORE PUSH1 0x20 ADD SWAP1 DUP2 MSTORE PUSH1 0x20 ADD PUSH1 0x0 KECCAK256 PUSH1 0x0 DUP4 DUP2 MSTORE PUSH1 0x20 ADD SWAP1 DUP2 MSTORE PUSH1 0x20 ADD PUSH1 0x0 KECCAK256 PUSH1 0x0 SWAP1 SSTORE POP POP POP POP JUMP JUMPDEST PUSH1 0x0 PUSH1 0x1 PUSH1 0xB DUP1 SLOAD SWAP1 POP PUSH2 0x47A1 SWAP2 SWAP1 PUSH2 0x6B1D JUMP JUMPDEST SWAP1 POP PUSH1 0x0 PUSH1 0xC PUSH1 0x0 DUP5 DUP2 MSTORE PUSH1 0x20 ADD SWAP1 DUP2 MSTORE PUSH1 0x20 ADD PUSH1 0x0 KECCAK256 SLOAD SWAP1 POP PUSH1 0x0 PUSH1 0xB DUP4 DUP2 SLOAD DUP2 LT PUSH2 0x47D1 JUMPI PUSH2 0x47D0 PUSH2 0x59E6 JUMP JUMPDEST JUMPDEST SWAP1 PUSH1 0x0 MSTORE PUSH1 0x20 PUSH1 0x0 KECCAK256 ADD SLOAD SWAP1 POP DUP1 PUSH1 0xB DUP4 DUP2 SLOAD DUP2 LT PUSH2 0x47F3 JUMPI PUSH2 0x47F2 PUSH2 0x59E6 JUMP JUMPDEST JUMPDEST SWAP1 PUSH1 0x0 MSTORE PUSH1 0x20 PUSH1 0x0 KECCAK256 ADD DUP2 SWAP1 SSTORE POP DUP2 PUSH1 0xC PUSH1 0x0 DUP4 DUP2 MSTORE PUSH1 0x20 ADD SWAP1 DUP2 MSTORE PUSH1 0x20 ADD PUSH1 0x0 KECCAK256 DUP2 SWAP1 SSTORE POP PUSH1 0xC PUSH1 0x0 DUP6 DUP2 MSTORE PUSH1 0x20 ADD SWAP1 DUP2 MSTORE PUSH1 0x20 ADD PUSH1 0x0 KECCAK256 PUSH1 0x0 SWAP1 SSTORE PUSH1 0xB DUP1 SLOAD DUP1 PUSH2 0x4842 JUMPI PUSH2 0x4841 PUSH2 0x6FBF JUMP JUMPDEST JUMPDEST PUSH1 0x1 SWAP1 SUB DUP2 DUP2 SWAP1 PUSH1 0x0 MSTORE PUSH1 0x20 PUSH1 0x0 KECCAK256 ADD PUSH1 0x0 SWAP1 SSTORE SWAP1 SSTORE POP POP POP POP JUMP JUMPDEST PUSH1 0x0 PUSH2 0x4869 DUP4 PUSH2 0x129A JUMP JUMPDEST SWAP1 POP DUP2 PUSH1 0x9 PUSH1 0x0 DUP6 PUSH20 0xFFFFFFFFFFFFFFFFFFFFFFFFFFFFFFFFFFFFFFFF AND PUSH20 0xFFFFFFFFFFFFFFFFFFFFFFFFFFFFFFFFFFFFFFFF AND DUP2 MSTORE PUSH1 0x20 ADD SWAP1 DUP2 MSTORE PUSH1 0x20 ADD PUSH1 0x0 KECCAK256 PUSH1 0x0 DUP4 DUP2 MSTORE PUSH1 0x20 ADD SWAP1 DUP2 MSTORE PUSH1 0x20 ADD PUSH1 0x0 KECCAK256 DUP2 SWAP1 SSTORE POP DUP1 PUSH1 0xA PUSH1 0x0 DUP5 DUP2 MSTORE PUSH1 0x20 ADD SWAP1 DUP2 MSTORE PUSH1 0x20 ADD PUSH1 0x0 KECCAK256 DUP2 SWAP1 SSTORE POP POP POP POP JUMP JUMPDEST PUSH1 0x40 MLOAD DUP1 PUSH2 0x160 ADD PUSH1 0x40 MSTORE DUP1 PUSH1 0x0 PUSH1 0xFF AND DUP2 MSTORE PUSH1 0x20 ADD PUSH1 0x0 PUSH1 0xFF AND DUP2 MSTORE PUSH1 0x20 ADD PUSH1 0x0 PUSH2 0xFFFF AND DUP2 MSTORE PUSH1 0x20 ADD PUSH1 0x0 PUSH4 0xFFFFFFFF AND DUP2 MSTORE PUSH1 0x20 ADD PUSH1 0x0 PUSH4 0xFFFFFFFF AND DUP2 MSTORE PUSH1 0x20 ADD PUSH1 0x0 PUSH4 0xFFFFFFFF AND DUP2 MSTORE PUSH1 0x20 ADD PUSH1 0x0 DUP1 NOT AND DUP2 MSTORE PUSH1 0x20 ADD PUSH1 0x0 DUP1 NOT AND DUP2 MSTORE PUSH1 0x20 ADD PUSH1 0x0 DUP1 NOT AND DUP2 MSTORE PUSH1 0x20 ADD PUSH1 0x0 DUP1 NOT AND DUP2 MSTORE PUSH1 0x20 ADD PUSH1 0x0 DUP1 NOT AND DUP2 MSTORE POP SWAP1 JUMP JUMPDEST POP DUP1 SLOAD PUSH2 0x496E SWAP1 PUSH2 0x5204 JUMP JUMPDEST PUSH1 0x0 DUP3 SSTORE DUP1 PUSH1 0x1F LT PUSH2 0x4980 JUMPI POP PUSH2 0x499F JUMP JUMPDEST PUSH1 0x1F ADD PUSH1 0x20 SWAP1 DIV SWAP1 PUSH1 0x0 MSTORE PUSH1 0x20 PUSH1 0x0 KECCAK256 SWAP1 DUP2 ADD SWAP1 PUSH2 0x499E SWAP2 SWAP1 PUSH2 0x4A28 JUMP JUMPDEST JUMPDEST POP JUMP JUMPDEST DUP3 DUP1 SLOAD PUSH2 0x49AE SWAP1 PUSH2 0x5204 JUMP JUMPDEST SWAP1 PUSH1 0x0 MSTORE PUSH1 0x20 PUSH1 0x0 KECCAK256 SWAP1 PUSH1 0x1F ADD PUSH1 0x20 SWAP1 DIV DUP2 ADD SWAP3 DUP3 PUSH2 0x49D0 JUMPI PUSH1 0x0 DUP6 SSTORE PUSH2 0x4A17 JUMP JUMPDEST DUP3 PUSH1 0x1F LT PUSH2 0x49E9 JUMPI DUP1 MLOAD PUSH1 0xFF NOT AND DUP4 DUP1 ADD OR DUP6 SSTORE PUSH2 0x4A17 JUMP JUMPDEST DUP3 DUP1 ADD PUSH1 0x1 ADD DUP6 SSTORE DUP3 ISZERO PUSH2 0x4A17 JUMPI SWAP2 DUP3 ADD JUMPDEST DUP3 DUP2 GT ISZERO PUSH2 0x4A16 JUMPI DUP3 MLOAD DUP3 SSTORE SWAP2 PUSH1 0x20 ADD SWAP2 SWAP1 PUSH1 0x1 ADD SWAP1 PUSH2 0x49FB JUMP JUMPDEST JUMPDEST POP SWAP1 POP PUSH2 0x4A24 SWAP2 SWAP1 PUSH2 0x4A28 JUMP JUMPDEST POP SWAP1 JUMP JUMPDEST JUMPDEST DUP1 DUP3 GT ISZERO PUSH2 0x4A41 JUMPI PUSH1 0x0 DUP2 PUSH1 0x0 SWAP1 SSTORE POP PUSH1 0x1 ADD PUSH2 0x4A29 JUMP JUMPDEST POP SWAP1 JUMP JUMPDEST PUSH1 0x0 PUSH1 0x40 MLOAD SWAP1 POP SWAP1 JUMP JUMPDEST PUSH1 0x0 DUP1 REVERT JUMPDEST PUSH1 0x0 DUP1 REVERT JUMPDEST PUSH1 0x0 DUP2 SWAP1 POP SWAP2 SWAP1 POP JUMP JUMPDEST PUSH2 0x4A6C DUP2 PUSH2 0x4A59 JUMP JUMPDEST DUP2 EQ PUSH2 0x4A77 JUMPI PUSH1 0x0 DUP1 REVERT JUMPDEST POP JUMP JUMPDEST PUSH1 0x0 DUP2 CALLDATALOAD SWAP1 POP PUSH2 0x4A89 DUP2 PUSH2 0x4A63 JUMP JUMPDEST SWAP3 SWAP2 POP POP JUMP JUMPDEST PUSH1 0x0 PUSH1 0x20 DUP3 DUP5 SUB SLT ISZERO PUSH2 0x4AA5 JUMPI PUSH2 0x4AA4 PUSH2 0x4A4F JUMP JUMPDEST JUMPDEST PUSH1 0x0 PUSH2 0x4AB3 DUP5 DUP3 DUP6 ADD PUSH2 0x4A7A JUMP JUMPDEST SWAP2 POP POP SWAP3 SWAP2 POP POP JUMP JUMPDEST PUSH2 0x4AC5 DUP2 PUSH2 0x4A59 JUMP JUMPDEST DUP3 MSTORE POP POP JUMP JUMPDEST PUSH1 0x0 PUSH1 0x20 DUP3 ADD SWAP1 POP PUSH2 0x4AE0 PUSH1 0x0 DUP4 ADD DUP5 PUSH2 0x4ABC JUMP JUMPDEST SWAP3 SWAP2 POP POP JUMP JUMPDEST PUSH1 0x0 PUSH32 0xFFFFFFFF00000000000000000000000000000000000000000000000000000000 DUP3 AND SWAP1 POP SWAP2 SWAP1 POP JUMP JUMPDEST PUSH2 0x4B1B DUP2 PUSH2 0x4AE6 JUMP JUMPDEST DUP2 EQ PUSH2 0x4B26 JUMPI PUSH1 0x0 DUP1 REVERT JUMPDEST POP JUMP JUMPDEST PUSH1 0x0 DUP2 CALLDATALOAD SWAP1 POP PUSH2 0x4B38 DUP2 PUSH2 0x4B12 JUMP JUMPDEST SWAP3 SWAP2 POP POP JUMP JUMPDEST PUSH1 0x0 PUSH1 0x20 DUP3 DUP5 SUB SLT ISZERO PUSH2 0x4B54 JUMPI PUSH2 0x4B53 PUSH2 0x4A4F JUMP JUMPDEST JUMPDEST PUSH1 0x0 PUSH2 0x4B62 DUP5 DUP3 DUP6 ADD PUSH2 0x4B29 JUMP JUMPDEST SWAP2 POP POP SWAP3 SWAP2 POP POP JUMP JUMPDEST PUSH1 0x0 DUP2 ISZERO ISZERO SWAP1 POP SWAP2 SWAP1 POP JUMP JUMPDEST PUSH2 0x4B80 DUP2 PUSH2 0x4B6B JUMP JUMPDEST DUP3 MSTORE POP POP JUMP JUMPDEST PUSH1 0x0 PUSH1 0x20 DUP3 ADD SWAP1 POP PUSH2 0x4B9B PUSH1 0x0 DUP4 ADD DUP5 PUSH2 0x4B77 JUMP JUMPDEST SWAP3 SWAP2 POP POP JUMP JUMPDEST PUSH1 0x0 DUP2 MLOAD SWAP1 POP SWAP2 SWAP1 POP JUMP JUMPDEST PUSH1 0x0 DUP3 DUP3 MSTORE PUSH1 0x20 DUP3 ADD SWAP1 POP SWAP3 SWAP2 POP POP JUMP JUMPDEST PUSH1 0x0 JUMPDEST DUP4 DUP2 LT ISZERO PUSH2 0x4BDB JUMPI DUP1 DUP3 ADD MLOAD DUP2 DUP5 ADD MSTORE PUSH1 0x20 DUP2 ADD SWAP1 POP PUSH2 0x4BC0 JUMP JUMPDEST DUP4 DUP2 GT ISZERO PUSH2 0x4BEA JUMPI PUSH1 0x0 DUP5 DUP5 ADD MSTORE JUMPDEST POP POP POP POP JUMP JUMPDEST PUSH1 0x0 PUSH1 0x1F NOT PUSH1 0x1F DUP4 ADD AND SWAP1 POP SWAP2 SWAP1 POP JUMP JUMPDEST PUSH1 0x0 PUSH2 0x4C0C DUP3 PUSH2 0x4BA1 JUMP JUMPDEST PUSH2 0x4C16 DUP2 DUP6 PUSH2 0x4BAC JUMP JUMPDEST SWAP4 POP PUSH2 0x4C26 DUP2 DUP6 PUSH1 0x20 DUP7 ADD PUSH2 0x4BBD JUMP JUMPDEST PUSH2 0x4C2F DUP2 PUSH2 0x4BF0 JUMP JUMPDEST DUP5 ADD SWAP2 POP POP SWAP3 SWAP2 POP POP JUMP JUMPDEST PUSH1 0x0 PUSH1 0x20 DUP3 ADD SWAP1 POP DUP2 DUP2 SUB PUSH1 0x0 DUP4 ADD MSTORE PUSH2 0x4C54 DUP2 DUP5 PUSH2 0x4C01 JUMP JUMPDEST SWAP1 POP SWAP3 SWAP2 POP POP JUMP JUMPDEST PUSH1 0x0 PUSH20 0xFFFFFFFFFFFFFFFFFFFFFFFFFFFFFFFFFFFFFFFF DUP3 AND SWAP1 POP SWAP2 SWAP1 POP JUMP JUMPDEST PUSH1 0x0 PUSH2 0x4C87 DUP3 PUSH2 0x4C5C JUMP JUMPDEST SWAP1 POP SWAP2 SWAP1 POP JUMP JUMPDEST PUSH2 0x4C97 DUP2 PUSH2 0x4C7C JUMP JUMPDEST DUP3 MSTORE POP POP JUMP JUMPDEST PUSH1 0x0 PUSH1 0x20 DUP3 ADD SWAP1 POP PUSH2 0x4CB2 PUSH1 0x0 DUP4 ADD DUP5 PUSH2 0x4C8E JUMP JUMPDEST SWAP3 SWAP2 POP POP JUMP JUMPDEST PUSH2 0x4CC1 DUP2 PUSH2 0x4C7C JUMP JUMPDEST DUP2 EQ PUSH2 0x4CCC JUMPI PUSH1 0x0 DUP1 REVERT JUMPDEST POP JUMP JUMPDEST PUSH1 0x0 DUP2 CALLDATALOAD SWAP1 POP PUSH2 0x4CDE DUP2 PUSH2 0x4CB8 JUMP JUMPDEST SWAP3 SWAP2 POP POP JUMP JUMPDEST PUSH1 0x0 DUP1 PUSH1 0x40 DUP4 DUP6 SUB SLT ISZERO PUSH2 0x4CFB JUMPI PUSH2 0x4CFA PUSH2 0x4A4F JUMP JUMPDEST JUMPDEST PUSH1 0x0 PUSH2 0x4D09 DUP6 DUP3 DUP7 ADD PUSH2 0x4CCF JUMP JUMPDEST SWAP3 POP POP PUSH1 0x20 PUSH2 0x4D1A DUP6 DUP3 DUP7 ADD PUSH2 0x4A7A JUMP JUMPDEST SWAP2 POP POP SWAP3 POP SWAP3 SWAP1 POP JUMP JUMPDEST PUSH1 0x0 DUP1 PUSH1 0x0 PUSH1 0x60 DUP5 DUP7 SUB SLT ISZERO PUSH2 0x4D3D JUMPI PUSH2 0x4D3C PUSH2 0x4A4F JUMP JUMPDEST JUMPDEST PUSH1 0x0 PUSH2 0x4D4B DUP7 DUP3 DUP8 ADD PUSH2 0x4CCF JUMP JUMPDEST SWAP4 POP POP PUSH1 0x20 PUSH2 0x4D5C DUP7 DUP3 DUP8 ADD PUSH2 0x4CCF JUMP JUMPDEST SWAP3 POP POP PUSH1 0x40 PUSH2 0x4D6D DUP7 DUP3 DUP8 ADD PUSH2 0x4A7A JUMP JUMPDEST SWAP2 POP POP SWAP3 POP SWAP3 POP SWAP3 JUMP JUMPDEST PUSH1 0x0 DUP2 SWAP1 POP SWAP2 SWAP1 POP JUMP JUMPDEST PUSH2 0x4D8A DUP2 PUSH2 0x4D77 JUMP JUMPDEST DUP3 MSTORE POP POP JUMP JUMPDEST PUSH1 0x0 PUSH1 0x20 DUP3 ADD SWAP1 POP PUSH2 0x4DA5 PUSH1 0x0 DUP4 ADD DUP5 PUSH2 0x4D81 JUMP JUMPDEST SWAP3 SWAP2 POP POP JUMP JUMPDEST PUSH2 0x4DB4 DUP2 PUSH2 0x4D77 JUMP JUMPDEST DUP2 EQ PUSH2 0x4DBF JUMPI PUSH1 0x0 DUP1 REVERT JUMPDEST POP JUMP JUMPDEST PUSH1 0x0 DUP2 CALLDATALOAD SWAP1 POP PUSH2 0x4DD1 DUP2 PUSH2 0x4DAB JUMP JUMPDEST SWAP3 SWAP2 POP POP JUMP JUMPDEST PUSH1 0x0 PUSH1 0x20 DUP3 DUP5 SUB SLT ISZERO PUSH2 0x4DED JUMPI PUSH2 0x4DEC PUSH2 0x4A4F JUMP JUMPDEST JUMPDEST PUSH1 0x0 PUSH2 0x4DFB DUP5 DUP3 DUP6 ADD PUSH2 0x4DC2 JUMP JUMPDEST SWAP2 POP POP SWAP3 SWAP2 POP POP JUMP JUMPDEST PUSH1 0x0 DUP1 PUSH1 0x40 DUP4 DUP6 SUB SLT ISZERO PUSH2 0x4E1B JUMPI PUSH2 0x4E1A PUSH2 0x4A4F JUMP JUMPDEST JUMPDEST PUSH1 0x0 PUSH2 0x4E29 DUP6 DUP3 DUP7 ADD PUSH2 0x4DC2 JUMP JUMPDEST SWAP3 POP POP PUSH1 0x20 PUSH2 0x4E3A DUP6 DUP3 DUP7 ADD PUSH2 0x4CCF JUMP JUMPDEST SWAP2 POP POP SWAP3 POP SWAP3 SWAP1 POP JUMP JUMPDEST PUSH1 0x0 PUSH1 0x20 DUP3 DUP5 SUB SLT ISZERO PUSH2 0x4E5A JUMPI PUSH2 0x4E59 PUSH2 0x4A4F JUMP JUMPDEST JUMPDEST PUSH1 0x0 PUSH2 0x4E68 DUP5 DUP3 DUP6 ADD PUSH2 0x4CCF JUMP JUMPDEST SWAP2 POP POP SWAP3 SWAP2 POP POP JUMP JUMPDEST PUSH1 0x0 DUP1 REVERT JUMPDEST PUSH1 0x0 DUP1 REVERT JUMPDEST PUSH1 0x0 DUP1 REVERT JUMPDEST PUSH1 0x0 DUP1 DUP4 PUSH1 0x1F DUP5 ADD SLT PUSH2 0x4E96 JUMPI PUSH2 0x4E95 PUSH2 0x4E71 JUMP JUMPDEST JUMPDEST DUP3 CALLDATALOAD SWAP1 POP PUSH8 0xFFFFFFFFFFFFFFFF DUP2 GT ISZERO PUSH2 0x4EB3 JUMPI PUSH2 0x4EB2 PUSH2 0x4E76 JUMP JUMPDEST JUMPDEST PUSH1 0x20 DUP4 ADD SWAP2 POP DUP4 PUSH1 0x1 DUP3 MUL DUP4 ADD GT ISZERO PUSH2 0x4ECF JUMPI PUSH2 0x4ECE PUSH2 0x4E7B JUMP JUMPDEST JUMPDEST SWAP3 POP SWAP3 SWAP1 POP JUMP JUMPDEST PUSH1 0x0 DUP1 PUSH1 0x0 PUSH1 0x40 DUP5 DUP7 SUB SLT ISZERO PUSH2 0x4EEF JUMPI PUSH2 0x4EEE PUSH2 0x4A4F JUMP JUMPDEST JUMPDEST PUSH1 0x0 PUSH2 0x4EFD DUP7 DUP3 DUP8 ADD PUSH2 0x4A7A JUMP JUMPDEST SWAP4 POP POP PUSH1 0x20 DUP5 ADD CALLDATALOAD PUSH8 0xFFFFFFFFFFFFFFFF DUP2 GT ISZERO PUSH2 0x4F1E JUMPI PUSH2 0x4F1D PUSH2 0x4A54 JUMP JUMPDEST JUMPDEST PUSH2 0x4F2A DUP7 DUP3 DUP8 ADD PUSH2 0x4E80 JUMP JUMPDEST SWAP3 POP SWAP3 POP POP SWAP3 POP SWAP3 POP SWAP3 JUMP JUMPDEST PUSH1 0x0 DUP1 PUSH1 0x40 DUP4 DUP6 SUB SLT ISZERO PUSH2 0x4F4D JUMPI PUSH2 0x4F4C PUSH2 0x4A4F JUMP JUMPDEST JUMPDEST PUSH1 0x0 PUSH2 0x4F5B DUP6 DUP3 DUP7 ADD PUSH2 0x4DC2 JUMP JUMPDEST SWAP3 POP POP PUSH1 0x20 PUSH2 0x4F6C DUP6 DUP3 DUP7 ADD PUSH2 0x4A7A JUMP JUMPDEST SWAP2 POP POP SWAP3 POP SWAP3 SWAP1 POP JUMP JUMPDEST PUSH2 0x4F7F DUP2 PUSH2 0x4B6B JUMP JUMPDEST DUP2 EQ PUSH2 0x4F8A JUMPI PUSH1 0x0 DUP1 REVERT JUMPDEST POP JUMP JUMPDEST PUSH1 0x0 DUP2 CALLDATALOAD SWAP1 POP PUSH2 0x4F9C DUP2 PUSH2 0x4F76 JUMP JUMPDEST SWAP3 SWAP2 POP POP JUMP JUMPDEST PUSH1 0x0 DUP1 PUSH1 0x40 DUP4 DUP6 SUB SLT ISZERO PUSH2 0x4FB9 JUMPI PUSH2 0x4FB8 PUSH2 0x4A4F JUMP JUMPDEST JUMPDEST PUSH1 0x0 PUSH2 0x4FC7 DUP6 DUP3 DUP7 ADD PUSH2 0x4CCF JUMP JUMPDEST SWAP3 POP POP PUSH1 0x20 PUSH2 0x4FD8 DUP6 DUP3 DUP7 ADD PUSH2 0x4F8D JUMP JUMPDEST SWAP2 POP POP SWAP3 POP SWAP3 SWAP1 POP JUMP JUMPDEST PUSH1 0x0 DUP1 REVERT JUMPDEST PUSH32 0x4E487B7100000000000000000000000000000000000000000000000000000000 PUSH1 0x0 MSTORE PUSH1 0x41 PUSH1 0x4 MSTORE PUSH1 0x24 PUSH1 0x0 REVERT JUMPDEST PUSH2 0x501F DUP3 PUSH2 0x4BF0 JUMP JUMPDEST DUP2 ADD DUP2 DUP2 LT PUSH8 0xFFFFFFFFFFFFFFFF DUP3 GT OR ISZERO PUSH2 0x503E JUMPI PUSH2 0x503D PUSH2 0x4FE7 JUMP JUMPDEST JUMPDEST DUP1 PUSH1 0x40 MSTORE POP POP POP JUMP JUMPDEST PUSH1 0x0 PUSH2 0x5051 PUSH2 0x4A45 JUMP JUMPDEST SWAP1 POP PUSH2 0x505D DUP3 DUP3 PUSH2 0x5016 JUMP JUMPDEST SWAP2 SWAP1 POP JUMP JUMPDEST PUSH1 0x0 PUSH8 0xFFFFFFFFFFFFFFFF DUP3 GT ISZERO PUSH2 0x507D JUMPI PUSH2 0x507C PUSH2 0x4FE7 JUMP JUMPDEST JUMPDEST PUSH2 0x5086 DUP3 PUSH2 0x4BF0 JUMP JUMPDEST SWAP1 POP PUSH1 0x20 DUP2 ADD SWAP1 POP SWAP2 SWAP1 POP JUMP JUMPDEST DUP3 DUP2 DUP4 CALLDATACOPY PUSH1 0x0 DUP4 DUP4 ADD MSTORE POP POP POP JUMP JUMPDEST PUSH1 0x0 PUSH2 0x50B5 PUSH2 0x50B0 DUP5 PUSH2 0x5062 JUMP JUMPDEST PUSH2 0x5047 JUMP JUMPDEST SWAP1 POP DUP3 DUP2 MSTORE PUSH1 0x20 DUP2 ADD DUP5 DUP5 DUP5 ADD GT ISZERO PUSH2 0x50D1 JUMPI PUSH2 0x50D0 PUSH2 0x4FE2 JUMP JUMPDEST JUMPDEST PUSH2 0x50DC DUP5 DUP3 DUP6 PUSH2 0x5093 JUMP JUMPDEST POP SWAP4 SWAP3 POP POP POP JUMP JUMPDEST PUSH1 0x0 DUP3 PUSH1 0x1F DUP4 ADD SLT PUSH2 0x50F9 JUMPI PUSH2 0x50F8 PUSH2 0x4E71 JUMP JUMPDEST JUMPDEST DUP2 CALLDATALOAD PUSH2 0x5109 DUP5 DUP3 PUSH1 0x20 DUP7 ADD PUSH2 0x50A2 JUMP JUMPDEST SWAP2 POP POP SWAP3 SWAP2 POP POP JUMP JUMPDEST PUSH1 0x0 DUP1 PUSH1 0x0 DUP1 PUSH1 0x80 DUP6 DUP8 SUB SLT ISZERO PUSH2 0x512C JUMPI PUSH2 0x512B PUSH2 0x4A4F JUMP JUMPDEST JUMPDEST PUSH1 0x0 PUSH2 0x513A DUP8 DUP3 DUP9 ADD PUSH2 0x4CCF JUMP JUMPDEST SWAP5 POP POP PUSH1 0x20 PUSH2 0x514B DUP8 DUP3 DUP9 ADD PUSH2 0x4CCF JUMP JUMPDEST SWAP4 POP POP PUSH1 0x40 PUSH2 0x515C DUP8 DUP3 DUP9 ADD PUSH2 0x4A7A JUMP JUMPDEST SWAP3 POP POP PUSH1 0x60 DUP6 ADD CALLDATALOAD PUSH8 0xFFFFFFFFFFFFFFFF DUP2 GT ISZERO PUSH2 0x517D JUMPI PUSH2 0x517C PUSH2 0x4A54 JUMP JUMPDEST JUMPDEST PUSH2 0x5189 DUP8 DUP3 DUP9 ADD PUSH2 0x50E4 JUMP JUMPDEST SWAP2 POP POP SWAP3 SWAP6 SWAP2 SWAP5 POP SWAP3 POP JUMP JUMPDEST PUSH1 0x0 DUP1 PUSH1 0x40 DUP4 DUP6 SUB SLT ISZERO PUSH2 0x51AC JUMPI PUSH2 0x51AB PUSH2 0x4A4F JUMP JUMPDEST JUMPDEST PUSH1 0x0 PUSH2 0x51BA DUP6 DUP3 DUP7 ADD PUSH2 0x4CCF JUMP JUMPDEST SWAP3 POP POP PUSH1 0x20 PUSH2 0x51CB DUP6 DUP3 DUP7 ADD PUSH2 0x4CCF JUMP JUMPDEST SWAP2 POP POP SWAP3 POP SWAP3 SWAP1 POP JUMP JUMPDEST PUSH32 0x4E487B7100000000000000000000000000000000000000000000000000000000 PUSH1 0x0 MSTORE PUSH1 0x22 PUSH1 0x4 MSTORE PUSH1 0x24 PUSH1 0x0 REVERT JUMPDEST PUSH1 0x0 PUSH1 0x2 DUP3 DIV SWAP1 POP PUSH1 0x1 DUP3 AND DUP1 PUSH2 0x521C JUMPI PUSH1 0x7F DUP3 AND SWAP2 POP JUMPDEST PUSH1 0x20 DUP3 LT DUP2 EQ ISZERO PUSH2 0x5230 JUMPI PUSH2 0x522F PUSH2 0x51D5 JUMP JUMPDEST JUMPDEST POP SWAP2 SWAP1 POP JUMP JUMPDEST PUSH32 0x4552433732313A20617070726F76656420717565727920666F72206E6F6E6578 PUSH1 0x0 DUP3 ADD MSTORE PUSH32 0x697374656E7420746F6B656E0000000000000000000000000000000000000000 PUSH1 0x20 DUP3 ADD MSTORE POP JUMP JUMPDEST PUSH1 0x0 PUSH2 0x5292 PUSH1 0x2C DUP4 PUSH2 0x4BAC JUMP JUMPDEST SWAP2 POP PUSH2 0x529D DUP3 PUSH2 0x5236 JUMP JUMPDEST PUSH1 0x40 DUP3 ADD SWAP1 POP SWAP2 SWAP1 POP JUMP JUMPDEST PUSH1 0x0 PUSH1 0x20 DUP3 ADD SWAP1 POP DUP2 DUP2 SUB PUSH1 0x0 DUP4 ADD MSTORE PUSH2 0x52C1 DUP2 PUSH2 0x5285 JUMP JUMPDEST SWAP1 POP SWAP2 SWAP1 POP JUMP JUMPDEST PUSH32 0x4552433732313A20617070726F76616C20746F2063757272656E74206F776E65 PUSH1 0x0 DUP3 ADD MSTORE PUSH32 0x7200000000000000000000000000000000000000000000000000000000000000 PUSH1 0x20 DUP3 ADD MSTORE POP JUMP JUMPDEST PUSH1 0x0 PUSH2 0x5324 PUSH1 0x21 DUP4 PUSH2 0x4BAC JUMP JUMPDEST SWAP2 POP PUSH2 0x532F DUP3 PUSH2 0x52C8 JUMP JUMPDEST PUSH1 0x40 DUP3 ADD SWAP1 POP SWAP2 SWAP1 POP JUMP JUMPDEST PUSH1 0x0 PUSH1 0x20 DUP3 ADD SWAP1 POP DUP2 DUP2 SUB PUSH1 0x0 DUP4 ADD MSTORE PUSH2 0x5353 DUP2 PUSH2 0x5317 JUMP JUMPDEST SWAP1 POP SWAP2 SWAP1 POP JUMP JUMPDEST PUSH32 0x4552433732313A20617070726F76652063616C6C6572206973206E6F74206F77 PUSH1 0x0 DUP3 ADD MSTORE PUSH32 0x6E6572206E6F7220617070726F76656420666F7220616C6C0000000000000000 PUSH1 0x20 DUP3 ADD MSTORE POP JUMP JUMPDEST PUSH1 0x0 PUSH2 0x53B6 PUSH1 0x38 DUP4 PUSH2 0x4BAC JUMP JUMPDEST SWAP2 POP PUSH2 0x53C1 DUP3 PUSH2 0x535A JUMP JUMPDEST PUSH1 0x40 DUP3 ADD SWAP1 POP SWAP2 SWAP1 POP JUMP JUMPDEST PUSH1 0x0 PUSH1 0x20 DUP3 ADD SWAP1 POP DUP2 DUP2 SUB PUSH1 0x0 DUP4 ADD MSTORE PUSH2 0x53E5 DUP2 PUSH2 0x53A9 JUMP JUMPDEST SWAP1 POP SWAP2 SWAP1 POP JUMP JUMPDEST PUSH32 0x5265656E7472616E637947756172643A207265656E7472616E742063616C6C00 PUSH1 0x0 DUP3 ADD MSTORE POP JUMP JUMPDEST PUSH1 0x0 PUSH2 0x5422 PUSH1 0x1F DUP4 PUSH2 0x4BAC JUMP JUMPDEST SWAP2 POP PUSH2 0x542D DUP3 PUSH2 0x53EC JUMP JUMPDEST PUSH1 0x20 DUP3 ADD SWAP1 POP SWAP2 SWAP1 POP JUMP JUMPDEST PUSH1 0x0 PUSH1 0x20 DUP3 ADD SWAP1 POP DUP2 DUP2 SUB PUSH1 0x0 DUP4 ADD MSTORE PUSH2 0x5451 DUP2 PUSH2 0x5415 JUMP JUMPDEST SWAP1 POP SWAP2 SWAP1 POP JUMP JUMPDEST PUSH32 0x41543A4D4F442D4954413A4D757374206861766520545255535445445F414745 PUSH1 0x0 DUP3 ADD MSTORE PUSH32 0x4E545F524F4C4500000000000000000000000000000000000000000000000000 PUSH1 0x20 DUP3 ADD MSTORE POP JUMP JUMPDEST PUSH1 0x0 PUSH2 0x54B4 PUSH1 0x27 DUP4 PUSH2 0x4BAC JUMP JUMPDEST SWAP2 POP PUSH2 0x54BF DUP3 PUSH2 0x5458 JUMP JUMPDEST PUSH1 0x40 DUP3 ADD SWAP1 POP SWAP2 SWAP1 POP JUMP JUMPDEST PUSH1 0x0 PUSH1 0x20 DUP3 ADD SWAP1 POP DUP2 DUP2 SUB PUSH1 0x0 DUP4 ADD MSTORE PUSH2 0x54E3 DUP2 PUSH2 0x54A7 JUMP JUMPDEST SWAP1 POP SWAP2 SWAP1 POP JUMP JUMPDEST PUSH32 0x41543A4D4F442D4954413A54727573746564204167656E742066756E6374696F PUSH1 0x0 DUP3 ADD MSTORE PUSH32 0x6E207065726D616E656E746C792064697361626C6564202D2075736520616C6C PUSH1 0x20 DUP3 ADD MSTORE PUSH32 0x6F77616E6365202F207472616E7366657246726F6D207061747465726E000000 PUSH1 0x40 DUP3 ADD MSTORE POP JUMP JUMPDEST PUSH1 0x0 PUSH2 0x556C PUSH1 0x5D DUP4 PUSH2 0x4BAC JUMP JUMPDEST SWAP2 POP PUSH2 0x5577 DUP3 PUSH2 0x54EA JUMP JUMPDEST PUSH1 0x60 DUP3 ADD SWAP1 POP SWAP2 SWAP1 POP JUMP JUMPDEST PUSH1 0x0 PUSH1 0x20 DUP3 ADD SWAP1 POP DUP2 DUP2 SUB PUSH1 0x0 DUP4 ADD MSTORE PUSH2 0x559B DUP2 PUSH2 0x555F JUMP JUMPDEST SWAP1 POP SWAP2 SWAP1 POP JUMP JUMPDEST PUSH32 0x41543A544154463A4173736574206E6F7420696E207472616E73666572726162 PUSH1 0x0 DUP3 ADD MSTORE PUSH32 0x6C65207374617475730000000000000000000000000000000000000000000000 PUSH1 0x20 DUP3 ADD MSTORE POP JUMP JUMPDEST PUSH1 0x0 PUSH2 0x55FE PUSH1 0x29 DUP4 PUSH2 0x4BAC JUMP JUMPDEST SWAP2 POP PUSH2 0x5609 DUP3 PUSH2 0x55A2 JUMP JUMPDEST PUSH1 0x40 DUP3 ADD SWAP1 POP SWAP2 SWAP1 POP JUMP JUMPDEST PUSH1 0x0 PUSH1 0x20 DUP3 ADD SWAP1 POP DUP2 DUP2 SUB PUSH1 0x0 DUP4 ADD MSTORE PUSH2 0x562D DUP2 PUSH2 0x55F1 JUMP JUMPDEST SWAP1 POP SWAP2 SWAP1 POP JUMP JUMPDEST PUSH32 0x41543A544154463A486F6C64657220697320636F6C642057616C6C6574000000 PUSH1 0x0 DUP3 ADD MSTORE POP JUMP JUMPDEST PUSH1 0x0 PUSH2 0x566A PUSH1 0x1D DUP4 PUSH2 0x4BAC JUMP JUMPDEST SWAP2 POP PUSH2 0x5675 DUP3 PUSH2 0x5634 JUMP JUMPDEST PUSH1 0x20 DUP3 ADD SWAP1 POP SWAP2 SWAP1 POP JUMP JUMPDEST PUSH1 0x0 PUSH1 0x20 DUP3 ADD SWAP1 POP DUP2 DUP2 SUB PUSH1 0x0 DUP4 ADD MSTORE PUSH2 0x5699 DUP2 PUSH2 0x565D JUMP JUMPDEST SWAP1 POP SWAP2 SWAP1 POP JUMP JUMPDEST PUSH32 0x41543A54463A5472616E736665722063616C6C6572206973206E6F74206F776E PUSH1 0x0 DUP3 ADD MSTORE PUSH32 0x6572206E6F7220617070726F7665640000000000000000000000000000000000 PUSH1 0x20 DUP3 ADD MSTORE POP JUMP JUMPDEST PUSH1 0x0 PUSH2 0x56FC PUSH1 0x2F DUP4 PUSH2 0x4BAC JUMP JUMPDEST SWAP2 POP PUSH2 0x5707 DUP3 PUSH2 0x56A0 JUMP JUMPDEST PUSH1 0x40 DUP3 ADD SWAP1 POP SWAP2 SWAP1 POP JUMP JUMPDEST PUSH1 0x0 PUSH1 0x20 DUP3 ADD SWAP1 POP DUP2 DUP2 SUB PUSH1 0x0 DUP4 ADD MSTORE PUSH2 0x572B DUP2 PUSH2 0x56EF JUMP JUMPDEST SWAP1 POP SWAP2 SWAP1 POP JUMP JUMPDEST PUSH32 0x41543A54463A4173736574206E6F7420696E207472616E736665727261626C65 PUSH1 0x0 DUP3 ADD MSTORE PUSH32 0x2073746174757300000000000000000000000000000000000000000000000000 PUSH1 0x20 DUP3 ADD MSTORE POP JUMP JUMPDEST PUSH1 0x0 PUSH2 0x578E PUSH1 0x27 DUP4 PUSH2 0x4BAC JUMP JUMPDEST SWAP2 POP PUSH2 0x5799 DUP3 PUSH2 0x5732 JUMP JUMPDEST PUSH1 0x40 DUP3 ADD SWAP1 POP SWAP2 SWAP1 POP JUMP JUMPDEST PUSH1 0x0 PUSH1 0x20 DUP3 ADD SWAP1 POP DUP2 DUP2 SUB PUSH1 0x0 DUP4 ADD MSTORE PUSH2 0x57BD DUP2 PUSH2 0x5781 JUMP JUMPDEST SWAP1 POP SWAP2 SWAP1 POP JUMP JUMPDEST PUSH32 0x455243373231456E756D657261626C653A206F776E657220696E646578206F75 PUSH1 0x0 DUP3 ADD MSTORE PUSH32 0x74206F6620626F756E6473000000000000000000000000000000000000000000 PUSH1 0x20 DUP3 ADD MSTORE POP JUMP JUMPDEST PUSH1 0x0 PUSH2 0x5820 PUSH1 0x2B DUP4 PUSH2 0x4BAC JUMP JUMPDEST SWAP2 POP PUSH2 0x582B DUP3 PUSH2 0x57C4 JUMP JUMPDEST PUSH1 0x40 DUP3 ADD SWAP1 POP SWAP2 SWAP1 POP JUMP JUMPDEST PUSH1 0x0 PUSH1 0x20 DUP3 ADD SWAP1 POP DUP2 DUP2 SUB PUSH1 0x0 DUP4 ADD MSTORE PUSH2 0x584F DUP2 PUSH2 0x5813 JUMP JUMPDEST SWAP1 POP SWAP2 SWAP1 POP JUMP JUMPDEST PUSH32 0x41543A55503A2043616C6C65722021686176652070617573657220726F6C6500 PUSH1 0x0 DUP3 ADD MSTORE POP JUMP JUMPDEST PUSH1 0x0 PUSH2 0x588C PUSH1 0x1F DUP4 PUSH2 0x4BAC JUMP JUMPDEST SWAP2 POP PUSH2 0x5897 DUP3 PUSH2 0x5856 JUMP JUMPDEST PUSH1 0x20 DUP3 ADD SWAP1 POP SWAP2 SWAP1 POP JUMP JUMPDEST PUSH1 0x0 PUSH1 0x20 DUP3 ADD SWAP1 POP DUP2 DUP2 SUB PUSH1 0x0 DUP4 ADD MSTORE PUSH2 0x58BB DUP2 PUSH2 0x587F JUMP JUMPDEST SWAP1 POP SWAP2 SWAP1 POP JUMP JUMPDEST PUSH32 0x4552433732314275726E61626C653A2063616C6C6572206973206E6F74206F77 PUSH1 0x0 DUP3 ADD MSTORE PUSH32 0x6E6572206E6F7220617070726F76656400000000000000000000000000000000 PUSH1 0x20 DUP3 ADD MSTORE POP JUMP JUMPDEST PUSH1 0x0 PUSH2 0x591E PUSH1 0x30 DUP4 PUSH2 0x4BAC JUMP JUMPDEST SWAP2 POP PUSH2 0x5929 DUP3 PUSH2 0x58C2 JUMP JUMPDEST PUSH1 0x40 DUP3 ADD SWAP1 POP SWAP2 SWAP1 POP JUMP JUMPDEST PUSH1 0x0 PUSH1 0x20 DUP3 ADD SWAP1 POP DUP2 DUP2 SUB PUSH1 0x0 DUP4 ADD MSTORE PUSH2 0x594D DUP2 PUSH2 0x5911 JUMP JUMPDEST SWAP1 POP SWAP2 SWAP1 POP JUMP JUMPDEST PUSH32 0x455243373231456E756D657261626C653A20676C6F62616C20696E646578206F PUSH1 0x0 DUP3 ADD MSTORE PUSH32 0x7574206F6620626F756E64730000000000000000000000000000000000000000 PUSH1 0x20 DUP3 ADD MSTORE POP JUMP JUMPDEST PUSH1 0x0 PUSH2 0x59B0 PUSH1 0x2C DUP4 PUSH2 0x4BAC JUMP JUMPDEST SWAP2 POP PUSH2 0x59BB DUP3 PUSH2 0x5954 JUMP JUMPDEST PUSH1 0x40 DUP3 ADD SWAP1 POP SWAP2 SWAP1 POP JUMP JUMPDEST PUSH1 0x0 PUSH1 0x20 DUP3 ADD SWAP1 POP DUP2 DUP2 SUB PUSH1 0x0 DUP4 ADD MSTORE PUSH2 0x59DF DUP2 PUSH2 0x59A3 JUMP JUMPDEST SWAP1 POP SWAP2 SWAP1 POP JUMP JUMPDEST PUSH32 0x4E487B7100000000000000000000000000000000000000000000000000000000 PUSH1 0x0 MSTORE PUSH1 0x32 PUSH1 0x4 MSTORE PUSH1 0x24 PUSH1 0x0 REVERT JUMPDEST PUSH32 0x4552433732313A206F776E657220717565727920666F72206E6F6E6578697374 PUSH1 0x0 DUP3 ADD MSTORE PUSH32 0x656E7420746F6B656E0000000000000000000000000000000000000000000000 PUSH1 0x20 DUP3 ADD MSTORE POP JUMP JUMPDEST PUSH1 0x0 PUSH2 0x5A71 PUSH1 0x29 DUP4 PUSH2 0x4BAC JUMP JUMPDEST SWAP2 POP PUSH2 0x5A7C DUP3 PUSH2 0x5A15 JUMP JUMPDEST PUSH1 0x40 DUP3 ADD SWAP1 POP SWAP2 SWAP1 POP JUMP JUMPDEST PUSH1 0x0 PUSH1 0x20 DUP3 ADD SWAP1 POP DUP2 DUP2 SUB PUSH1 0x0 DUP4 ADD MSTORE PUSH2 0x5AA0 DUP2 PUSH2 0x5A64 JUMP JUMPDEST SWAP1 POP SWAP2 SWAP1 POP JUMP JUMPDEST PUSH32 0x4552433732313A2062616C616E636520717565727920666F7220746865207A65 PUSH1 0x0 DUP3 ADD MSTORE PUSH32 0x726F206164647265737300000000000000000000000000000000000000000000 PUSH1 0x20 DUP3 ADD MSTORE POP JUMP JUMPDEST PUSH1 0x0 PUSH2 0x5B03 PUSH1 0x2A DUP4 PUSH2 0x4BAC JUMP JUMPDEST SWAP2 POP PUSH2 0x5B0E DUP3 PUSH2 0x5AA7 JUMP JUMPDEST PUSH1 0x40 DUP3 ADD SWAP1 POP SWAP2 SWAP1 POP JUMP JUMPDEST PUSH1 0x0 PUSH1 0x20 DUP3 ADD SWAP1 POP DUP2 DUP2 SUB PUSH1 0x0 DUP4 ADD MSTORE PUSH2 0x5B32 DUP2 PUSH2 0x5AF6 JUMP JUMPDEST SWAP1 POP SWAP2 SWAP1 POP JUMP JUMPDEST PUSH32 0x5061757361626C653A2070617573656400000000000000000000000000000000 PUSH1 0x0 DUP3 ADD MSTORE POP JUMP JUMPDEST PUSH1 0x0 PUSH2 0x5B6F PUSH1 0x10 DUP4 PUSH2 0x4BAC JUMP JUMPDEST SWAP2 POP PUSH2 0x5B7A DUP3 PUSH2 0x5B39 JUMP JUMPDEST PUSH1 0x20 DUP3 ADD SWAP1 POP SWAP2 SWAP1 POP JUMP JUMPDEST PUSH1 0x0 PUSH1 0x20 DUP3 ADD SWAP1 POP DUP2 DUP2 SUB PUSH1 0x0 DUP4 ADD MSTORE PUSH2 0x5B9E DUP2 PUSH2 0x5B62 JUMP JUMPDEST SWAP1 POP SWAP2 SWAP1 POP JUMP JUMPDEST PUSH32 0x41543A443A5472616E736665722063616C6C657220216F776E6572206E6F7220 PUSH1 0x0 DUP3 ADD MSTORE PUSH32 0x617070726F766564000000000000000000000000000000000000000000000000 PUSH1 0x20 DUP3 ADD MSTORE POP JUMP JUMPDEST PUSH1 0x0 PUSH2 0x5C01 PUSH1 0x28 DUP4 PUSH2 0x4BAC JUMP JUMPDEST SWAP2 POP PUSH2 0x5C0C DUP3 PUSH2 0x5BA5 JUMP JUMPDEST PUSH1 0x40 DUP3 ADD SWAP1 POP SWAP2 SWAP1 POP JUMP JUMPDEST PUSH1 0x0 PUSH1 0x20 DUP3 ADD SWAP1 POP DUP2 DUP2 SUB PUSH1 0x0 DUP4 ADD MSTORE PUSH2 0x5C30 DUP2 PUSH2 0x5BF4 JUMP JUMPDEST SWAP1 POP SWAP2 SWAP1 POP JUMP JUMPDEST PUSH1 0x0 PUSH1 0x40 DUP3 ADD SWAP1 POP PUSH2 0x5C4C PUSH1 0x0 DUP4 ADD DUP6 PUSH2 0x4D81 JUMP JUMPDEST PUSH2 0x5C59 PUSH1 0x20 DUP4 ADD DUP5 PUSH2 0x4C8E JUMP JUMPDEST SWAP4 SWAP3 POP POP POP JUMP JUMPDEST PUSH32 0x41543A503A2043616C6C65722021686176652070617573657220726F6C650000 PUSH1 0x0 DUP3 ADD MSTORE POP JUMP JUMPDEST PUSH1 0x0 PUSH2 0x5C96 PUSH1 0x1E DUP4 PUSH2 0x4BAC JUMP JUMPDEST SWAP2 POP PUSH2 0x5CA1 DUP3 PUSH2 0x5C60 JUMP JUMPDEST PUSH1 0x20 DUP3 ADD SWAP1 POP SWAP2 SWAP1 POP JUMP JUMPDEST PUSH1 0x0 PUSH1 0x20 DUP3 ADD SWAP1 POP DUP2 DUP2 SUB PUSH1 0x0 DUP4 ADD MSTORE PUSH2 0x5CC5 DUP2 PUSH2 0x5C89 JUMP JUMPDEST SWAP1 POP SWAP2 SWAP1 POP JUMP JUMPDEST PUSH1 0x0 PUSH4 0xFFFFFFFF DUP3 AND SWAP1 POP SWAP2 SWAP1 POP JUMP JUMPDEST PUSH2 0x5CE5 DUP2 PUSH2 0x5CCC JUMP JUMPDEST DUP3 MSTORE POP POP JUMP JUMPDEST PUSH1 0x0 DUP2 SWAP1 POP SWAP2 SWAP1 POP JUMP JUMPDEST PUSH1 0x0 PUSH1 0xFF DUP3 AND SWAP1 POP SWAP2 SWAP1 POP JUMP JUMPDEST PUSH1 0x0 DUP2 SWAP1 POP SWAP2 SWAP1 POP JUMP JUMPDEST PUSH1 0x0 PUSH2 0x5D27 PUSH2 0x5D22 PUSH2 0x5D1D DUP5 PUSH2 0x5CEB JUMP JUMPDEST PUSH2 0x5D02 JUMP JUMPDEST PUSH2 0x5CF5 JUMP JUMPDEST SWAP1 POP SWAP2 SWAP1 POP JUMP JUMPDEST PUSH2 0x5D37 DUP2 PUSH2 0x5D0C JUMP JUMPDEST DUP3 MSTORE POP POP JUMP JUMPDEST PUSH1 0x0 PUSH1 0x40 DUP3 ADD SWAP1 POP PUSH2 0x5D52 PUSH1 0x0 DUP4 ADD DUP6 PUSH2 0x5CDC JUMP JUMPDEST PUSH2 0x5D5F PUSH1 0x20 DUP4 ADD DUP5 PUSH2 0x5D2E JUMP JUMPDEST SWAP4 SWAP3 POP POP POP JUMP JUMPDEST PUSH1 0x0 DUP2 MLOAD SWAP1 POP PUSH2 0x5D75 DUP2 PUSH2 0x4A63 JUMP JUMPDEST SWAP3 SWAP2 POP POP JUMP JUMPDEST PUSH1 0x0 PUSH1 0x20 DUP3 DUP5 SUB SLT ISZERO PUSH2 0x5D91 JUMPI PUSH2 0x5D90 PUSH2 0x4A4F JUMP JUMPDEST JUMPDEST PUSH1 0x0 PUSH2 0x5D9F DUP5 DUP3 DUP6 ADD PUSH2 0x5D66 JUMP JUMPDEST SWAP2 POP POP SWAP3 SWAP2 POP POP JUMP JUMPDEST PUSH32 0x41543A53553A555249206973207365742C20616E6420696D6D757461626C6500 PUSH1 0x0 DUP3 ADD MSTORE POP JUMP JUMPDEST PUSH1 0x0 PUSH2 0x5DDE PUSH1 0x1F DUP4 PUSH2 0x4BAC JUMP JUMPDEST SWAP2 POP PUSH2 0x5DE9 DUP3 PUSH2 0x5DA8 JUMP JUMPDEST PUSH1 0x20 DUP3 ADD SWAP1 POP SWAP2 SWAP1 POP JUMP JUMPDEST PUSH1 0x0 PUSH1 0x20 DUP3 ADD SWAP1 POP DUP2 DUP2 SUB PUSH1 0x0 DUP4 ADD MSTORE PUSH2 0x5E0D DUP2 PUSH2 0x5DD1 JUMP JUMPDEST SWAP1 POP SWAP2 SWAP1 POP JUMP JUMPDEST PUSH1 0x0 PUSH2 0x5E2F PUSH2 0x5E2A PUSH2 0x5E25 DUP5 PUSH2 0x5CCC JUMP JUMPDEST PUSH2 0x5D02 JUMP JUMPDEST PUSH2 0x4A59 JUMP JUMPDEST SWAP1 POP SWAP2 SWAP1 POP JUMP JUMPDEST PUSH2 0x5E3F DUP2 PUSH2 0x5E14 JUMP JUMPDEST DUP3 MSTORE POP POP JUMP JUMPDEST PUSH1 0x0 PUSH1 0x20 DUP3 ADD SWAP1 POP PUSH2 0x5E5A PUSH1 0x0 DUP4 ADD DUP5 PUSH2 0x5E36 JUMP JUMPDEST SWAP3 SWAP2 POP POP JUMP JUMPDEST PUSH1 0x0 DUP2 MLOAD SWAP1 POP PUSH2 0x5E6F DUP2 PUSH2 0x4CB8 JUMP JUMPDEST SWAP3 SWAP2 POP POP JUMP JUMPDEST PUSH1 0x0 PUSH1 0x20 DUP3 DUP5 SUB SLT ISZERO PUSH2 0x5E8B JUMPI PUSH2 0x5E8A PUSH2 0x4A4F JUMP JUMPDEST JUMPDEST PUSH1 0x0 PUSH2 0x5E99 DUP5 DUP3 DUP6 ADD PUSH2 0x5E60 JUMP JUMPDEST SWAP2 POP POP SWAP3 SWAP2 POP POP JUMP JUMPDEST PUSH32 0x41543A53553A43616C6C657220214E5448000000000000000000000000000000 PUSH1 0x0 DUP3 ADD MSTORE POP JUMP JUMPDEST PUSH1 0x0 PUSH2 0x5ED8 PUSH1 0x11 DUP4 PUSH2 0x4BAC JUMP JUMPDEST SWAP2 POP PUSH2 0x5EE3 DUP3 PUSH2 0x5EA2 JUMP JUMPDEST PUSH1 0x20 DUP3 ADD SWAP1 POP SWAP2 SWAP1 POP JUMP JUMPDEST PUSH1 0x0 PUSH1 0x20 DUP3 ADD SWAP1 POP DUP2 DUP2 SUB PUSH1 0x0 DUP4 ADD MSTORE PUSH2 0x5F07 DUP2 PUSH2 0x5ECB JUMP JUMPDEST SWAP1 POP SWAP2 SWAP1 POP JUMP JUMPDEST PUSH32 0x41543A53553A43616C6C657220216F776E6572206E6F7220617070726F766564 PUSH1 0x0 DUP3 ADD MSTORE POP JUMP JUMPDEST PUSH1 0x0 PUSH2 0x5F44 PUSH1 0x20 DUP4 PUSH2 0x4BAC JUMP JUMPDEST SWAP2 POP PUSH2 0x5F4F DUP3 PUSH2 0x5F0E JUMP JUMPDEST PUSH1 0x20 DUP3 ADD SWAP1 POP SWAP2 SWAP1 POP JUMP JUMPDEST PUSH1 0x0 PUSH1 0x20 DUP3 ADD SWAP1 POP DUP2 DUP2 SUB PUSH1 0x0 DUP4 ADD MSTORE PUSH2 0x5F73 DUP2 PUSH2 0x5F37 JUMP JUMPDEST SWAP1 POP SWAP2 SWAP1 POP JUMP JUMPDEST PUSH32 0x4552433732313A20617070726F766520746F2063616C6C657200000000000000 PUSH1 0x0 DUP3 ADD MSTORE POP JUMP JUMPDEST PUSH1 0x0 PUSH2 0x5FB0 PUSH1 0x19 DUP4 PUSH2 0x4BAC JUMP JUMPDEST SWAP2 POP PUSH2 0x5FBB DUP3 PUSH2 0x5F7A JUMP JUMPDEST PUSH1 0x20 DUP3 ADD SWAP1 POP SWAP2 SWAP1 POP JUMP JUMPDEST PUSH1 0x0 PUSH1 0x20 DUP3 ADD SWAP1 POP DUP2 DUP2 SUB PUSH1 0x0 DUP4 ADD MSTORE PUSH2 0x5FDF DUP2 PUSH2 0x5FA3 JUMP JUMPDEST SWAP1 POP SWAP2 SWAP1 POP JUMP JUMPDEST PUSH1 0x0 DUP2 SWAP1 POP SWAP2 SWAP1 POP JUMP JUMPDEST PUSH1 0x0 PUSH2 0x600B PUSH2 0x6006 PUSH2 0x6001 DUP5 PUSH2 0x5FE6 JUMP JUMPDEST PUSH2 0x5D02 JUMP JUMPDEST PUSH2 0x5CCC JUMP JUMPDEST SWAP1 POP SWAP2 SWAP1 POP JUMP JUMPDEST PUSH2 0x601B DUP2 PUSH2 0x5FF0 JUMP JUMPDEST DUP3 MSTORE POP POP JUMP JUMPDEST PUSH1 0x0 PUSH1 0x40 DUP3 ADD SWAP1 POP PUSH2 0x6036 PUSH1 0x0 DUP4 ADD DUP6 PUSH2 0x4C8E JUMP JUMPDEST PUSH2 0x6043 PUSH1 0x20 DUP4 ADD DUP5 PUSH2 0x6012 JUMP JUMPDEST SWAP4 SWAP3 POP POP POP JUMP JUMPDEST PUSH2 0x6053 DUP2 PUSH2 0x5CF5 JUMP JUMPDEST DUP2 EQ PUSH2 0x605E JUMPI PUSH1 0x0 DUP1 REVERT JUMPDEST POP JUMP JUMPDEST PUSH1 0x0 DUP2 MLOAD SWAP1 POP PUSH2 0x6070 DUP2 PUSH2 0x604A JUMP JUMPDEST SWAP3 SWAP2 POP POP JUMP JUMPDEST PUSH1 0x0 DUP2 MLOAD SWAP1 POP PUSH2 0x6085 DUP2 PUSH2 0x4DAB JUMP JUMPDEST SWAP3 SWAP2 POP POP JUMP JUMPDEST PUSH1 0x0 DUP1 PUSH1 0x40 DUP4 DUP6 SUB SLT ISZERO PUSH2 0x60A2 JUMPI PUSH2 0x60A1 PUSH2 0x4A4F JUMP JUMPDEST JUMPDEST PUSH1 0x0 PUSH2 0x60B0 DUP6 DUP3 DUP7 ADD PUSH2 0x6061 JUMP JUMPDEST SWAP3 POP POP PUSH1 0x20 PUSH2 0x60C1 DUP6 DUP3 DUP7 ADD PUSH2 0x6076 JUMP JUMPDEST SWAP2 POP POP SWAP3 POP SWAP3 SWAP1 POP JUMP JUMPDEST PUSH32 0x41543A5354463A5472616E736665722063616C6C657220216F776E6572206E6F PUSH1 0x0 DUP3 ADD MSTORE PUSH32 0x7220617070726F76656400000000000000000000000000000000000000000000 PUSH1 0x20 DUP3 ADD MSTORE POP JUMP JUMPDEST PUSH1 0x0 PUSH2 0x6127 PUSH1 0x2A DUP4 PUSH2 0x4BAC JUMP JUMPDEST SWAP2 POP PUSH2 0x6132 DUP3 PUSH2 0x60CB JUMP JUMPDEST PUSH1 0x40 DUP3 ADD SWAP1 POP SWAP2 SWAP1 POP JUMP JUMPDEST PUSH1 0x0 PUSH1 0x20 DUP3 ADD SWAP1 POP DUP2 DUP2 SUB PUSH1 0x0 DUP4 ADD MSTORE PUSH2 0x6156 DUP2 PUSH2 0x611A JUMP JUMPDEST SWAP1 POP SWAP2 SWAP1 POP JUMP JUMPDEST PUSH32 0x41543A5354463A43616E6E6F742073656E642073746174757320373020617373 PUSH1 0x0 DUP3 ADD MSTORE PUSH32 0x657420746F20756E617574686F72697A65642061646472657373000000000000 PUSH1 0x20 DUP3 ADD MSTORE POP JUMP JUMPDEST PUSH1 0x0 PUSH2 0x61B9 PUSH1 0x3A DUP4 PUSH2 0x4BAC JUMP JUMPDEST SWAP2 POP PUSH2 0x61C4 DUP3 PUSH2 0x615D JUMP JUMPDEST PUSH1 0x40 DUP3 ADD SWAP1 POP SWAP2 SWAP1 POP JUMP JUMPDEST PUSH1 0x0 PUSH1 0x20 DUP3 ADD SWAP1 POP DUP2 DUP2 SUB PUSH1 0x0 DUP4 ADD MSTORE PUSH2 0x61E8 DUP2 PUSH2 0x61AC JUMP JUMPDEST SWAP1 POP SWAP2 SWAP1 POP JUMP JUMPDEST PUSH32 0x41543A5354463A41737365742021696E207472616E736665727261626C652073 PUSH1 0x0 DUP3 ADD MSTORE PUSH32 0x7461747573000000000000000000000000000000000000000000000000000000 PUSH1 0x20 DUP3 ADD MSTORE POP JUMP JUMPDEST PUSH1 0x0 PUSH2 0x624B PUSH1 0x25 DUP4 PUSH2 0x4BAC JUMP JUMPDEST SWAP2 POP PUSH2 0x6256 DUP3 PUSH2 0x61EF JUMP JUMPDEST PUSH1 0x40 DUP3 ADD SWAP1 POP SWAP2 SWAP1 POP JUMP JUMPDEST PUSH1 0x0 PUSH1 0x20 DUP3 ADD SWAP1 POP DUP2 DUP2 SUB PUSH1 0x0 DUP4 ADD MSTORE PUSH2 0x627A DUP2 PUSH2 0x623E JUMP JUMPDEST SWAP1 POP SWAP2 SWAP1 POP JUMP JUMPDEST PUSH32 0x41543A5354463A43616E6E6F74207472616E7366657220617373657420746F20 PUSH1 0x0 DUP3 ADD MSTORE PUSH32 0x7A65726F20616464726573732E2055736520646973636172642E000000000000 PUSH1 0x20 DUP3 ADD MSTORE POP JUMP JUMPDEST PUSH1 0x0 PUSH2 0x62DD PUSH1 0x3A DUP4 PUSH2 0x4BAC JUMP JUMPDEST SWAP2 POP PUSH2 0x62E8 DUP3 PUSH2 0x6281 JUMP JUMPDEST PUSH1 0x40 DUP3 ADD SWAP1 POP SWAP2 SWAP1 POP JUMP JUMPDEST PUSH1 0x0 PUSH1 0x20 DUP3 ADD SWAP1 POP DUP2 DUP2 SUB PUSH1 0x0 DUP4 ADD MSTORE PUSH2 0x630C DUP2 PUSH2 0x62D0 JUMP JUMPDEST SWAP1 POP SWAP2 SWAP1 POP JUMP JUMPDEST PUSH32 0x41543A54553A2055524920717565727920666F72206E6F6E6578697374656E74 PUSH1 0x0 DUP3 ADD MSTORE PUSH32 0x20746F6B656E0000000000000000000000000000000000000000000000000000 PUSH1 0x20 DUP3 ADD MSTORE POP JUMP JUMPDEST PUSH1 0x0 PUSH2 0x636F PUSH1 0x26 DUP4 PUSH2 0x4BAC JUMP JUMPDEST SWAP2 POP PUSH2 0x637A DUP3 PUSH2 0x6313 JUMP JUMPDEST PUSH1 0x40 DUP3 ADD SWAP1 POP SWAP2 SWAP1 POP JUMP JUMPDEST PUSH1 0x0 PUSH1 0x20 DUP3 ADD SWAP1 POP DUP2 DUP2 SUB PUSH1 0x0 DUP4 ADD MSTORE PUSH2 0x639E DUP2 PUSH2 0x6362 JUMP JUMPDEST SWAP1 POP SWAP2 SWAP1 POP JUMP JUMPDEST PUSH1 0x0 DUP2 SWAP1 POP SWAP3 SWAP2 POP POP JUMP JUMPDEST PUSH1 0x0 PUSH2 0x63BB DUP3 PUSH2 0x4BA1 JUMP JUMPDEST PUSH2 0x63C5 DUP2 DUP6 PUSH2 0x63A5 JUMP JUMPDEST SWAP4 POP PUSH2 0x63D5 DUP2 DUP6 PUSH1 0x20 DUP7 ADD PUSH2 0x4BBD JUMP JUMPDEST DUP1 DUP5 ADD SWAP2 POP POP SWAP3 SWAP2 POP POP JUMP JUMPDEST PUSH1 0x0 PUSH2 0x63ED DUP3 DUP6 PUSH2 0x63B0 JUMP JUMPDEST SWAP2 POP PUSH2 0x63F9 DUP3 DUP5 PUSH2 0x63B0 JUMP JUMPDEST SWAP2 POP DUP2 SWAP1 POP SWAP4 SWAP3 POP POP POP JUMP JUMPDEST PUSH32 0x41543A4D4F442D494D3A43616C6C696E67206164647265737320646F6573206E PUSH1 0x0 DUP3 ADD MSTORE PUSH32 0x6F742062656C6F6E6720746F2061206D696E7465720000000000000000000000 PUSH1 0x20 DUP3 ADD MSTORE POP JUMP JUMPDEST PUSH1 0x0 PUSH2 0x6461 PUSH1 0x35 DUP4 PUSH2 0x4BAC JUMP JUMPDEST SWAP2 POP PUSH2 0x646C DUP3 PUSH2 0x6405 JUMP JUMPDEST PUSH1 0x40 DUP3 ADD SWAP1 POP SWAP2 SWAP1 POP JUMP JUMPDEST PUSH1 0x0 PUSH1 0x20 DUP3 ADD SWAP1 POP DUP2 DUP2 SUB PUSH1 0x0 DUP4 ADD MSTORE PUSH2 0x6490 DUP2 PUSH2 0x6454 JUMP JUMPDEST SWAP1 POP SWAP2 SWAP1 POP JUMP JUMPDEST PUSH32 0x41543A4D4F442D4943413A43616C6C696E67206164647265737320646F657320 PUSH1 0x0 DUP3 ADD MSTORE PUSH32 0x6E6F742062656C6F6E6720746F206120636F6E74726163742061646D696E0000 PUSH1 0x20 DUP3 ADD MSTORE POP JUMP JUMPDEST PUSH1 0x0 PUSH2 0x64F3 PUSH1 0x3E DUP4 PUSH2 0x4BAC JUMP JUMPDEST SWAP2 POP PUSH2 0x64FE DUP3 PUSH2 0x6497 JUMP JUMPDEST PUSH1 0x40 DUP3 ADD SWAP1 POP SWAP2 SWAP1 POP JUMP JUMPDEST PUSH1 0x0 PUSH1 0x20 DUP3 ADD SWAP1 POP DUP2 DUP2 SUB PUSH1 0x0 DUP4 ADD MSTORE PUSH2 0x6522 DUP2 PUSH2 0x64E6 JUMP JUMPDEST SWAP1 POP SWAP2 SWAP1 POP JUMP JUMPDEST PUSH32 0x41543A5441423A486F6C64657220697320636F6C642057616C6C657400000000 PUSH1 0x0 DUP3 ADD MSTORE POP JUMP JUMPDEST PUSH1 0x0 PUSH2 0x655F PUSH1 0x1C DUP4 PUSH2 0x4BAC JUMP JUMPDEST SWAP2 POP PUSH2 0x656A DUP3 PUSH2 0x6529 JUMP JUMPDEST PUSH1 0x20 DUP3 ADD SWAP1 POP SWAP2 SWAP1 POP JUMP JUMPDEST PUSH1 0x0 PUSH1 0x20 DUP3 ADD SWAP1 POP DUP2 DUP2 SUB PUSH1 0x0 DUP4 ADD MSTORE PUSH2 0x658E DUP2 PUSH2 0x6552 JUMP JUMPDEST SWAP1 POP SWAP2 SWAP1 POP JUMP JUMPDEST PUSH32 0x41543A5353433A53746F726167652061646472657373203D2030000000000000 PUSH1 0x0 DUP3 ADD MSTORE POP JUMP JUMPDEST PUSH1 0x0 PUSH2 0x65CB PUSH1 0x1A DUP4 PUSH2 0x4BAC JUMP JUMPDEST SWAP2 POP PUSH2 0x65D6 DUP3 PUSH2 0x6595 JUMP JUMPDEST PUSH1 0x20 DUP3 ADD SWAP1 POP SWAP2 SWAP1 POP JUMP JUMPDEST PUSH1 0x0 PUSH1 0x20 DUP3 ADD SWAP1 POP DUP2 DUP2 SUB PUSH1 0x0 DUP4 ADD MSTORE PUSH2 0x65FA DUP2 PUSH2 0x65BE JUMP JUMPDEST SWAP1 POP SWAP2 SWAP1 POP JUMP JUMPDEST PUSH32 0x52434C5200000000000000000000000000000000000000000000000000000000 PUSH1 0x0 DUP3 ADD MSTORE POP JUMP JUMPDEST PUSH1 0x0 PUSH2 0x6637 PUSH1 0x4 DUP4 PUSH2 0x4BAC JUMP JUMPDEST SWAP2 POP PUSH2 0x6642 DUP3 PUSH2 0x6601 JUMP JUMPDEST PUSH1 0x20 DUP3 ADD SWAP1 POP SWAP2 SWAP1 POP JUMP JUMPDEST PUSH1 0x0 PUSH1 0x20 DUP3 ADD SWAP1 POP DUP2 DUP2 SUB PUSH1 0x0 DUP4 ADD MSTORE PUSH2 0x6666 DUP2 PUSH2 0x662A JUMP JUMPDEST SWAP1 POP SWAP2 SWAP1 POP JUMP JUMPDEST PUSH32 0x4E4F44455F4D4752000000000000000000000000000000000000000000000000 PUSH1 0x0 DUP3 ADD MSTORE POP JUMP JUMPDEST PUSH1 0x0 PUSH2 0x66A3 PUSH1 0x8 DUP4 PUSH2 0x4BAC JUMP JUMPDEST SWAP2 POP PUSH2 0x66AE DUP3 PUSH2 0x666D JUMP JUMPDEST PUSH1 0x20 DUP3 ADD SWAP1 POP SWAP2 SWAP1 POP JUMP JUMPDEST PUSH1 0x0 PUSH1 0x20 DUP3 ADD SWAP1 POP DUP2 DUP2 SUB PUSH1 0x0 DUP4 ADD MSTORE PUSH2 0x66D2 DUP2 PUSH2 0x6696 JUMP JUMPDEST SWAP1 POP SWAP2 SWAP1 POP JUMP JUMPDEST PUSH32 0x4E4F44455F544B4E000000000000000000000000000000000000000000000000 PUSH1 0x0 DUP3 ADD MSTORE POP JUMP JUMPDEST PUSH1 0x0 PUSH2 0x670F PUSH1 0x8 DUP4 PUSH2 0x4BAC JUMP JUMPDEST SWAP2 POP PUSH2 0x671A DUP3 PUSH2 0x66D9 JUMP JUMPDEST PUSH1 0x20 DUP3 ADD SWAP1 POP SWAP2 SWAP1 POP JUMP JUMPDEST PUSH1 0x0 PUSH1 0x20 DUP3 ADD SWAP1 POP DUP2 DUP2 SUB PUSH1 0x0 DUP4 ADD MSTORE PUSH2 0x673E DUP2 PUSH2 0x6702 JUMP JUMPDEST SWAP1 POP SWAP2 SWAP1 POP JUMP JUMPDEST PUSH1 0x0 DUP1 REVERT JUMPDEST PUSH1 0x0 PUSH2 0xFFFF DUP3 AND SWAP1 POP SWAP2 SWAP1 POP JUMP JUMPDEST PUSH2 0x6761 DUP2 PUSH2 0x674A JUMP JUMPDEST DUP2 EQ PUSH2 0x676C JUMPI PUSH1 0x0 DUP1 REVERT JUMPDEST POP JUMP JUMPDEST PUSH1 0x0 DUP2 MLOAD SWAP1 POP PUSH2 0x677E DUP2 PUSH2 0x6758 JUMP JUMPDEST SWAP3 SWAP2 POP POP JUMP JUMPDEST PUSH2 0x678D DUP2 PUSH2 0x5CCC JUMP JUMPDEST DUP2 EQ PUSH2 0x6798 JUMPI PUSH1 0x0 DUP1 REVERT JUMPDEST POP JUMP JUMPDEST PUSH1 0x0 DUP2 MLOAD SWAP1 POP PUSH2 0x67AA DUP2 PUSH2 0x6784 JUMP JUMPDEST SWAP3 SWAP2 POP POP JUMP JUMPDEST PUSH1 0x0 PUSH2 0x160 DUP3 DUP5 SUB SLT ISZERO PUSH2 0x67C7 JUMPI PUSH2 0x67C6 PUSH2 0x6745 JUMP JUMPDEST JUMPDEST PUSH2 0x67D2 PUSH2 0x160 PUSH2 0x5047 JUMP JUMPDEST SWAP1 POP PUSH1 0x0 PUSH2 0x67E2 DUP5 DUP3 DUP6 ADD PUSH2 0x6061 JUMP JUMPDEST PUSH1 0x0 DUP4 ADD MSTORE POP PUSH1 0x20 PUSH2 0x67F6 DUP5 DUP3 DUP6 ADD PUSH2 0x6061 JUMP JUMPDEST PUSH1 0x20 DUP4 ADD MSTORE POP PUSH1 0x40 PUSH2 0x680A DUP5 DUP3 DUP6 ADD PUSH2 0x676F JUMP JUMPDEST PUSH1 0x40 DUP4 ADD MSTORE POP PUSH1 0x60 PUSH2 0x681E DUP5 DUP3 DUP6 ADD PUSH2 0x679B JUMP JUMPDEST PUSH1 0x60 DUP4 ADD MSTORE POP PUSH1 0x80 PUSH2 0x6832 DUP5 DUP3 DUP6 ADD PUSH2 0x679B JUMP JUMPDEST PUSH1 0x80 DUP4 ADD MSTORE POP PUSH1 0xA0 PUSH2 0x6846 DUP5 DUP3 DUP6 ADD PUSH2 0x679B JUMP JUMPDEST PUSH1 0xA0 DUP4 ADD MSTORE POP PUSH1 0xC0 PUSH2 0x685A DUP5 DUP3 DUP6 ADD PUSH2 0x6076 JUMP JUMPDEST PUSH1 0xC0 DUP4 ADD MSTORE POP PUSH1 0xE0 PUSH2 0x686E DUP5 DUP3 DUP6 ADD PUSH2 0x6076 JUMP JUMPDEST PUSH1 0xE0 DUP4 ADD MSTORE POP PUSH2 0x100 PUSH2 0x6883 DUP5 DUP3 DUP6 ADD PUSH2 0x6076 JUMP JUMPDEST PUSH2 0x100 DUP4 ADD MSTORE POP PUSH2 0x120 PUSH2 0x6899 DUP5 DUP3 DUP6 ADD PUSH2 0x6076 JUMP JUMPDEST PUSH2 0x120 DUP4 ADD MSTORE POP PUSH2 0x140 PUSH2 0x68AF DUP5 DUP3 DUP6 ADD PUSH2 0x6076 JUMP JUMPDEST PUSH2 0x140 DUP4 ADD MSTORE POP SWAP3 SWAP2 POP POP JUMP JUMPDEST PUSH1 0x0 PUSH2 0x160 DUP3 DUP5 SUB SLT ISZERO PUSH2 0x68D3 JUMPI PUSH2 0x68D2 PUSH2 0x4A4F JUMP JUMPDEST JUMPDEST PUSH1 0x0 PUSH2 0x68E1 DUP5 DUP3 DUP6 ADD PUSH2 0x67B0 JUMP JUMPDEST SWAP2 POP POP SWAP3 SWAP2 POP POP JUMP JUMPDEST PUSH2 0x68F3 DUP2 PUSH2 0x5CF5 JUMP JUMPDEST DUP3 MSTORE POP POP JUMP JUMPDEST PUSH1 0x0 PUSH2 0x6914 PUSH2 0x690F PUSH2 0x690A DUP5 PUSH2 0x5CF5 JUMP JUMPDEST PUSH2 0x5D02 JUMP JUMPDEST PUSH2 0x4A59 JUMP JUMPDEST SWAP1 POP SWAP2 SWAP1 POP JUMP JUMPDEST PUSH2 0x6924 DUP2 PUSH2 0x68F9 JUMP JUMPDEST DUP3 MSTORE POP POP JUMP JUMPDEST PUSH1 0x0 PUSH2 0x6945 PUSH2 0x6940 PUSH2 0x693B DUP5 PUSH2 0x674A JUMP JUMPDEST PUSH2 0x5D02 JUMP JUMPDEST PUSH2 0x4A59 JUMP JUMPDEST SWAP1 POP SWAP2 SWAP1 POP JUMP JUMPDEST PUSH2 0x6955 DUP2 PUSH2 0x692A JUMP JUMPDEST DUP3 MSTORE POP POP JUMP JUMPDEST PUSH1 0x0 PUSH1 0xE0 DUP3 ADD SWAP1 POP PUSH2 0x6970 PUSH1 0x0 DUP4 ADD DUP11 PUSH2 0x4D81 JUMP JUMPDEST PUSH2 0x697D PUSH1 0x20 DUP4 ADD DUP10 PUSH2 0x4D81 JUMP JUMPDEST PUSH2 0x698A PUSH1 0x40 DUP4 ADD DUP9 PUSH2 0x68EA JUMP JUMPDEST PUSH2 0x6997 PUSH1 0x60 DUP4 ADD DUP8 PUSH2 0x5CDC JUMP JUMPDEST PUSH2 0x69A4 PUSH1 0x80 DUP4 ADD DUP7 PUSH2 0x5CDC JUMP JUMPDEST PUSH2 0x69B1 PUSH1 0xA0 DUP4 ADD DUP6 PUSH2 0x691B JUMP JUMPDEST PUSH2 0x69BE PUSH1 0xC0 DUP4 ADD DUP5 PUSH2 0x694C JUMP JUMPDEST SWAP9 SWAP8 POP POP POP POP POP POP POP POP JUMP JUMPDEST PUSH32 0x4552433732313A207472616E73666572206F6620746F6B656E20746861742069 PUSH1 0x0 DUP3 ADD MSTORE PUSH32 0x73206E6F74206F776E0000000000000000000000000000000000000000000000 PUSH1 0x20 DUP3 ADD MSTORE POP JUMP JUMPDEST PUSH1 0x0 PUSH2 0x6A26 PUSH1 0x29 DUP4 PUSH2 0x4BAC JUMP JUMPDEST SWAP2 POP PUSH2 0x6A31 DUP3 PUSH2 0x69CA JUMP JUMPDEST PUSH1 0x40 DUP3 ADD SWAP1 POP SWAP2 SWAP1 POP JUMP JUMPDEST PUSH1 0x0 PUSH1 0x20 DUP3 ADD SWAP1 POP DUP2 DUP2 SUB PUSH1 0x0 DUP4 ADD MSTORE PUSH2 0x6A55 DUP2 PUSH2 0x6A19 JUMP JUMPDEST SWAP1 POP SWAP2 SWAP1 POP JUMP JUMPDEST PUSH32 0x4552433732313A207472616E7366657220746F20746865207A65726F20616464 PUSH1 0x0 DUP3 ADD MSTORE PUSH32 0x7265737300000000000000000000000000000000000000000000000000000000 PUSH1 0x20 DUP3 ADD MSTORE POP JUMP JUMPDEST PUSH1 0x0 PUSH2 0x6AB8 PUSH1 0x24 DUP4 PUSH2 0x4BAC JUMP JUMPDEST SWAP2 POP PUSH2 0x6AC3 DUP3 PUSH2 0x6A5C JUMP JUMPDEST PUSH1 0x40 DUP3 ADD SWAP1 POP SWAP2 SWAP1 POP JUMP JUMPDEST PUSH1 0x0 PUSH1 0x20 DUP3 ADD SWAP1 POP DUP2 DUP2 SUB PUSH1 0x0 DUP4 ADD MSTORE PUSH2 0x6AE7 DUP2 PUSH2 0x6AAB JUMP JUMPDEST SWAP1 POP SWAP2 SWAP1 POP JUMP JUMPDEST PUSH32 0x4E487B7100000000000000000000000000000000000000000000000000000000 PUSH1 0x0 MSTORE PUSH1 0x11 PUSH1 0x4 MSTORE PUSH1 0x24 PUSH1 0x0 REVERT JUMPDEST PUSH1 0x0 PUSH2 0x6B28 DUP3 PUSH2 0x4A59 JUMP JUMPDEST SWAP2 POP PUSH2 0x6B33 DUP4 PUSH2 0x4A59 JUMP JUMPDEST SWAP3 POP DUP3 DUP3 LT ISZERO PUSH2 0x6B46 JUMPI PUSH2 0x6B45 PUSH2 0x6AEE JUMP JUMPDEST JUMPDEST DUP3 DUP3 SUB SWAP1 POP SWAP3 SWAP2 POP POP JUMP JUMPDEST PUSH1 0x0 PUSH2 0x6B5C DUP3 PUSH2 0x4A59 JUMP JUMPDEST SWAP2 POP PUSH2 0x6B67 DUP4 PUSH2 0x4A59 JUMP JUMPDEST SWAP3 POP DUP3 PUSH32 0xFFFFFFFFFFFFFFFFFFFFFFFFFFFFFFFFFFFFFFFFFFFFFFFFFFFFFFFFFFFFFFFF SUB DUP3 GT ISZERO PUSH2 0x6B9C JUMPI PUSH2 0x6B9B PUSH2 0x6AEE JUMP JUMPDEST JUMPDEST DUP3 DUP3 ADD SWAP1 POP SWAP3 SWAP2 POP POP JUMP JUMPDEST PUSH32 0x4552433732313A206F70657261746F7220717565727920666F72206E6F6E6578 PUSH1 0x0 DUP3 ADD MSTORE PUSH32 0x697374656E7420746F6B656E0000000000000000000000000000000000000000 PUSH1 0x20 DUP3 ADD MSTORE POP JUMP JUMPDEST PUSH1 0x0 PUSH2 0x6C03 PUSH1 0x2C DUP4 PUSH2 0x4BAC JUMP JUMPDEST SWAP2 POP PUSH2 0x6C0E DUP3 PUSH2 0x6BA7 JUMP JUMPDEST PUSH1 0x40 DUP3 ADD SWAP1 POP SWAP2 SWAP1 POP JUMP JUMPDEST PUSH1 0x0 PUSH1 0x20 DUP3 ADD SWAP1 POP DUP2 DUP2 SUB PUSH1 0x0 DUP4 ADD MSTORE PUSH2 0x6C32 DUP2 PUSH2 0x6BF6 JUMP JUMPDEST SWAP1 POP SWAP2 SWAP1 POP JUMP JUMPDEST PUSH32 0x416363657373436F6E74726F6C3A2063616E206F6E6C792072656E6F756E6365 PUSH1 0x0 DUP3 ADD MSTORE PUSH32 0x20726F6C657320666F722073656C660000000000000000000000000000000000 PUSH1 0x20 DUP3 ADD MSTORE POP JUMP JUMPDEST PUSH1 0x0 PUSH2 0x6C95 PUSH1 0x2F DUP4 PUSH2 0x4BAC JUMP JUMPDEST SWAP2 POP PUSH2 0x6CA0 DUP3 PUSH2 0x6C39 JUMP JUMPDEST PUSH1 0x40 DUP3 ADD SWAP1 POP SWAP2 SWAP1 POP JUMP JUMPDEST PUSH1 0x0 PUSH1 0x20 DUP3 ADD SWAP1 POP DUP2 DUP2 SUB PUSH1 0x0 DUP4 ADD MSTORE PUSH2 0x6CC4 DUP2 PUSH2 0x6C88 JUMP JUMPDEST SWAP1 POP SWAP2 SWAP1 POP JUMP JUMPDEST PUSH32 0x5061757361626C653A206E6F7420706175736564000000000000000000000000 PUSH1 0x0 DUP3 ADD MSTORE POP JUMP JUMPDEST PUSH1 0x0 PUSH2 0x6D01 PUSH1 0x14 DUP4 PUSH2 0x4BAC JUMP JUMPDEST SWAP2 POP PUSH2 0x6D0C DUP3 PUSH2 0x6CCB JUMP JUMPDEST PUSH1 0x20 DUP3 ADD SWAP1 POP SWAP2 SWAP1 POP JUMP JUMPDEST PUSH1 0x0 PUSH1 0x20 DUP3 ADD SWAP1 POP DUP2 DUP2 SUB PUSH1 0x0 DUP4 ADD MSTORE PUSH2 0x6D30 DUP2 PUSH2 0x6CF4 JUMP JUMPDEST SWAP1 POP SWAP2 SWAP1 POP JUMP JUMPDEST PUSH32 0x41543A5354553A2055524920736574206F66206E6F6E6578697374656E742074 PUSH1 0x0 DUP3 ADD MSTORE PUSH32 0x6F6B656E00000000000000000000000000000000000000000000000000000000 PUSH1 0x20 DUP3 ADD MSTORE POP JUMP JUMPDEST PUSH1 0x0 PUSH2 0x6D93 PUSH1 0x24 DUP4 PUSH2 0x4BAC JUMP JUMPDEST SWAP2 POP PUSH2 0x6D9E DUP3 PUSH2 0x6D37 JUMP JUMPDEST PUSH1 0x40 DUP3 ADD SWAP1 POP SWAP2 SWAP1 POP JUMP JUMPDEST PUSH1 0x0 PUSH1 0x20 DUP3 ADD SWAP1 POP DUP2 DUP2 SUB PUSH1 0x0 DUP4 ADD MSTORE PUSH2 0x6DC2 DUP2 PUSH2 0x6D86 JUMP JUMPDEST SWAP1 POP SWAP2 SWAP1 POP JUMP JUMPDEST PUSH32 0x4552433732313A207472616E7366657220746F206E6F6E204552433732315265 PUSH1 0x0 DUP3 ADD MSTORE PUSH32 0x63656976657220696D706C656D656E7465720000000000000000000000000000 PUSH1 0x20 DUP3 ADD MSTORE POP JUMP JUMPDEST PUSH1 0x0 PUSH2 0x6E25 PUSH1 0x32 DUP4 PUSH2 0x4BAC JUMP JUMPDEST SWAP2 POP PUSH2 0x6E30 DUP3 PUSH2 0x6DC9 JUMP JUMPDEST PUSH1 0x40 DUP3 ADD SWAP1 POP SWAP2 SWAP1 POP JUMP JUMPDEST PUSH1 0x0 PUSH1 0x20 DUP3 ADD SWAP1 POP DUP2 DUP2 SUB PUSH1 0x0 DUP4 ADD MSTORE PUSH2 0x6E54 DUP2 PUSH2 0x6E18 JUMP JUMPDEST SWAP1 POP SWAP2 SWAP1 POP JUMP JUMPDEST PUSH32 0x4552433732314D657461646174613A2055524920717565727920666F72206E6F PUSH1 0x0 DUP3 ADD MSTORE PUSH32 0x6E6578697374656E7420746F6B656E0000000000000000000000000000000000 PUSH1 0x20 DUP3 ADD MSTORE POP JUMP JUMPDEST PUSH1 0x0 PUSH2 0x6EB7 PUSH1 0x2F DUP4 PUSH2 0x4BAC JUMP JUMPDEST SWAP2 POP PUSH2 0x6EC2 DUP3 PUSH2 0x6E5B JUMP JUMPDEST PUSH1 0x40 DUP3 ADD SWAP1 POP SWAP2 SWAP1 POP JUMP JUMPDEST PUSH1 0x0 PUSH1 0x20 DUP3 ADD SWAP1 POP DUP2 DUP2 SUB PUSH1 0x0 DUP4 ADD MSTORE PUSH2 0x6EE6 DUP2 PUSH2 0x6EAA JUMP JUMPDEST SWAP1 POP SWAP2 SWAP1 POP JUMP JUMPDEST PUSH32 0x416363657373436F6E74726F6C3A206163636F756E7420000000000000000000 PUSH1 0x0 DUP3 ADD MSTORE POP JUMP JUMPDEST PUSH1 0x0 PUSH2 0x6F23 PUSH1 0x17 DUP4 PUSH2 0x63A5 JUMP JUMPDEST SWAP2 POP PUSH2 0x6F2E DUP3 PUSH2 0x6EED JUMP JUMPDEST PUSH1 0x17 DUP3 ADD SWAP1 POP SWAP2 SWAP1 POP JUMP JUMPDEST PUSH32 0x206973206D697373696E6720726F6C6520000000000000000000000000000000 PUSH1 0x0 DUP3 ADD MSTORE POP JUMP JUMPDEST PUSH1 0x0 PUSH2 0x6F6F PUSH1 0x11 DUP4 PUSH2 0x63A5 JUMP JUMPDEST SWAP2 POP PUSH2 0x6F7A DUP3 PUSH2 0x6F39 JUMP JUMPDEST PUSH1 0x11 DUP3 ADD SWAP1 POP SWAP2 SWAP1 POP JUMP JUMPDEST PUSH1 0x0 PUSH2 0x6F90 DUP3 PUSH2 0x6F16 JUMP JUMPDEST SWAP2 POP PUSH2 0x6F9C DUP3 DUP6 PUSH2 0x63B0 JUMP JUMPDEST SWAP2 POP PUSH2 0x6FA7 DUP3 PUSH2 0x6F62 JUMP JUMPDEST SWAP2 POP PUSH2 0x6FB3 DUP3 DUP5 PUSH2 0x63B0 JUMP JUMPDEST SWAP2 POP DUP2 SWAP1 POP SWAP4 SWAP3 POP POP POP JUMP JUMPDEST PUSH32 0x4E487B7100000000000000000000000000000000000000000000000000000000 PUSH1 0x0 MSTORE PUSH1 0x31 PUSH1 0x4 MSTORE PUSH1 0x24 PUSH1 0x0 REVERT JUMPDEST PUSH1 0x0 DUP2 MLOAD SWAP1 POP SWAP2 SWAP1 POP JUMP JUMPDEST PUSH1 0x0 DUP3 DUP3 MSTORE PUSH1 0x20 DUP3 ADD SWAP1 POP SWAP3 SWAP2 POP POP JUMP JUMPDEST PUSH1 0x0 PUSH2 0x7015 DUP3 PUSH2 0x6FEE JUMP JUMPDEST PUSH2 0x701F DUP2 DUP6 PUSH2 0x6FF9 JUMP JUMPDEST SWAP4 POP PUSH2 0x702F DUP2 DUP6 PUSH1 0x20 DUP7 ADD PUSH2 0x4BBD JUMP JUMPDEST PUSH2 0x7038 DUP2 PUSH2 0x4BF0 JUMP JUMPDEST DUP5 ADD SWAP2 POP POP SWAP3 SWAP2 POP POP JUMP JUMPDEST PUSH1 0x0 PUSH1 0x80 DUP3 ADD SWAP1 POP PUSH2 0x7058 PUSH1 0x0 DUP4 ADD DUP8 PUSH2 0x4C8E JUMP JUMPDEST PUSH2 0x7065 PUSH1 0x20 DUP4 ADD DUP7 PUSH2 0x4C8E JUMP JUMPDEST PUSH2 0x7072 PUSH1 0x40 DUP4 ADD DUP6 PUSH2 0x4ABC JUMP JUMPDEST DUP2 DUP2 SUB PUSH1 0x60 DUP4 ADD MSTORE PUSH2 0x7084 DUP2 DUP5 PUSH2 0x700A JUMP JUMPDEST SWAP1 POP SWAP6 SWAP5 POP POP POP POP POP JUMP JUMPDEST PUSH1 0x0 DUP2 MLOAD SWAP1 POP PUSH2 0x709E DUP2 PUSH2 0x4B12 JUMP JUMPDEST SWAP3 SWAP2 POP POP JUMP JUMPDEST PUSH1 0x0 PUSH1 0x20 DUP3 DUP5 SUB SLT ISZERO PUSH2 0x70BA JUMPI PUSH2 0x70B9 PUSH2 0x4A4F JUMP JUMPDEST JUMPDEST PUSH1 0x0 PUSH2 0x70C8 DUP5 DUP3 DUP6 ADD PUSH2 0x708F JUMP JUMPDEST SWAP2 POP POP SWAP3 SWAP2 POP POP JUMP JUMPDEST PUSH1 0x0 PUSH2 0x70DC DUP3 PUSH2 0x4A59 JUMP JUMPDEST SWAP2 POP PUSH32 0xFFFFFFFFFFFFFFFFFFFFFFFFFFFFFFFFFFFFFFFFFFFFFFFFFFFFFFFFFFFFFFFF DUP3 EQ ISZERO PUSH2 0x710F JUMPI PUSH2 0x710E PUSH2 0x6AEE JUMP JUMPDEST JUMPDEST PUSH1 0x1 DUP3 ADD SWAP1 POP SWAP2 SWAP1 POP JUMP JUMPDEST PUSH32 0x4E487B7100000000000000000000000000000000000000000000000000000000 PUSH1 0x0 MSTORE PUSH1 0x12 PUSH1 0x4 MSTORE PUSH1 0x24 PUSH1 0x0 REVERT JUMPDEST PUSH1 0x0 PUSH2 0x7154 DUP3 PUSH2 0x4A59 JUMP JUMPDEST SWAP2 POP PUSH2 0x715F DUP4 PUSH2 0x4A59 JUMP JUMPDEST SWAP3 POP DUP3 PUSH2 0x716F JUMPI PUSH2 0x716E PUSH2 0x711A JUMP JUMPDEST JUMPDEST DUP3 DUP3 DIV SWAP1 POP SWAP3 SWAP2 POP POP JUMP JUMPDEST PUSH1 0x0 PUSH2 0x7185 DUP3 PUSH2 0x4A59 JUMP JUMPDEST SWAP2 POP PUSH2 0x7190 DUP4 PUSH2 0x4A59 JUMP JUMPDEST SWAP3 POP DUP3 PUSH2 0x71A0 JUMPI PUSH2 0x719F PUSH2 0x711A JUMP JUMPDEST JUMPDEST DUP3 DUP3 MOD SWAP1 POP SWAP3 SWAP2 POP POP JUMP JUMPDEST PUSH32 0x4552433732315061757361626C653A20746F6B656E207472616E736665722077 PUSH1 0x0 DUP3 ADD MSTORE PUSH32 0x68696C6520706175736564000000000000000000000000000000000000000000 PUSH1 0x20 DUP3 ADD MSTORE POP JUMP JUMPDEST PUSH1 0x0 PUSH2 0x7207 PUSH1 0x2B DUP4 PUSH2 0x4BAC JUMP JUMPDEST SWAP2 POP PUSH2 0x7212 DUP3 PUSH2 0x71AB JUMP JUMPDEST PUSH1 0x40 DUP3 ADD SWAP1 POP SWAP2 SWAP1 POP JUMP JUMPDEST PUSH1 0x0 PUSH1 0x20 DUP3 ADD SWAP1 POP DUP2 DUP2 SUB PUSH1 0x0 DUP4 ADD MSTORE PUSH2 0x7236 DUP2 PUSH2 0x71FA JUMP JUMPDEST SWAP1 POP SWAP2 SWAP1 POP JUMP JUMPDEST PUSH1 0x0 PUSH2 0x7248 DUP3 PUSH2 0x4A59 JUMP JUMPDEST SWAP2 POP PUSH2 0x7253 DUP4 PUSH2 0x4A59 JUMP JUMPDEST SWAP3 POP DUP2 PUSH32 0xFFFFFFFFFFFFFFFFFFFFFFFFFFFFFFFFFFFFFFFFFFFFFFFFFFFFFFFFFFFFFFFF DIV DUP4 GT DUP3 ISZERO ISZERO AND ISZERO PUSH2 0x728C JUMPI PUSH2 0x728B PUSH2 0x6AEE JUMP JUMPDEST JUMPDEST DUP3 DUP3 MUL SWAP1 POP SWAP3 SWAP2 POP POP JUMP JUMPDEST PUSH1 0x0 PUSH2 0x72A2 DUP3 PUSH2 0x4A59 JUMP JUMPDEST SWAP2 POP PUSH1 0x0 DUP3 EQ ISZERO PUSH2 0x72B6 JUMPI PUSH2 0x72B5 PUSH2 0x6AEE JUMP JUMPDEST JUMPDEST PUSH1 0x1 DUP3 SUB SWAP1 POP SWAP2 SWAP1 POP JUMP JUMPDEST PUSH32 0x537472696E67733A20686578206C656E67746820696E73756666696369656E74 PUSH1 0x0 DUP3 ADD MSTORE POP JUMP JUMPDEST PUSH1 0x0 PUSH2 0x72F7 PUSH1 0x20 DUP4 PUSH2 0x4BAC JUMP JUMPDEST SWAP2 POP PUSH2 0x7302 DUP3 PUSH2 0x72C1 JUMP JUMPDEST PUSH1 0x20 DUP3 ADD SWAP1 POP SWAP2 SWAP1 POP JUMP JUMPDEST PUSH1 0x0 PUSH1 0x20 DUP3 ADD SWAP1 POP DUP2 DUP2 SUB PUSH1 0x0 DUP4 ADD MSTORE PUSH2 0x7326 DUP2 PUSH2 0x72EA JUMP JUMPDEST SWAP1 POP SWAP2 SWAP1 POP JUMP JUMPDEST PUSH32 0x4552433732313A206D696E7420746F20746865207A65726F2061646472657373 PUSH1 0x0 DUP3 ADD MSTORE POP JUMP JUMPDEST PUSH1 0x0 PUSH2 0x7363 PUSH1 0x20 DUP4 PUSH2 0x4BAC JUMP JUMPDEST SWAP2 POP PUSH2 0x736E DUP3 PUSH2 0x732D JUMP JUMPDEST PUSH1 0x20 DUP3 ADD SWAP1 POP SWAP2 SWAP1 POP JUMP JUMPDEST PUSH1 0x0 PUSH1 0x20 DUP3 ADD SWAP1 POP DUP2 DUP2 SUB PUSH1 0x0 DUP4 ADD MSTORE PUSH2 0x7392 DUP2 PUSH2 0x7356 JUMP JUMPDEST SWAP1 POP SWAP2 SWAP1 POP JUMP JUMPDEST PUSH32 0x4552433732313A20746F6B656E20616C7265616479206D696E74656400000000 PUSH1 0x0 DUP3 ADD MSTORE POP JUMP JUMPDEST PUSH1 0x0 PUSH2 0x73CF PUSH1 0x1C DUP4 PUSH2 0x4BAC JUMP JUMPDEST SWAP2 POP PUSH2 0x73DA DUP3 PUSH2 0x7399 JUMP JUMPDEST PUSH1 0x20 DUP3 ADD SWAP1 POP SWAP2 SWAP1 POP JUMP JUMPDEST PUSH1 0x0 PUSH1 0x20 DUP3 ADD SWAP1 POP DUP2 DUP2 SUB PUSH1 0x0 DUP4 ADD MSTORE PUSH2 0x73FE DUP2 PUSH2 0x73C2 JUMP JUMPDEST SWAP1 POP SWAP2 SWAP1 POP JUMP INVALID LOG2 PUSH5 0x6970667358 0x22 SLT KECCAK256 0xFC REVERT 0x5F SWAP13 MULMOD CALLVALUE PUSH7 0x23A302EB5DE7F0 JUMP DUP4 CREATE 0xDC 0x22 0x2C RETURNDATASIZE SWAP6 SWAP6 SAR JUMPI AND DUP3 PUSH19 0xB68439D664736F6C6343000809003300000000 "
		},
		"gasEstimates": {
			"creation": {
				"codeDepositCost": "5951000",
				"executionCost": "infinite",
				"totalCost": "infinite"
			},
			"external": {
				"B320xF_()": "447",
				"CONTRACT_ADMIN_ROLE()": "419",
				"DEFAULT_ADMIN_ROLE()": "446",
				"MINTER_ROLE()": "373",
				"PAUSER_ROLE()": "439",
				"TRUSTED_AGENT_ROLE()": "418",
				"approve(address,uint256)": "infinite",
				"balanceOf(address)": "2925",
				"burn(uint256)": "infinite",
				"discard(uint256)": "infinite",
				"getApproved(uint256)": "5273",
				"getRoleAdmin(bytes32)": "infinite",
				"getRoleMember(bytes32,uint256)": "infinite",
				"getRoleMemberCount(bytes32)": "2975",
				"grantRole(bytes32,address)": "infinite",
				"hasRole(bytes32,address)": "3185",
				"isApprovedForAll(address,address)": "infinite",
				"isColdWallet(address)": "2930",
				"killTrustedAgent(uint256)": "7988",
				"mintAssetToken(address,uint256)": "infinite",
				"name()": "infinite",
				"ownerOf(uint256)": "3132",
				"pause()": "infinite",
				"paused()": "2612",
				"renounceRole(bytes32,address)": "infinite",
				"resolveContractAddresses()": "infinite",
				"revokeRole(bytes32,address)": "infinite",
				"safeTransferFrom(address,address,uint256)": "infinite",
				"safeTransferFrom(address,address,uint256,bytes)": "infinite",
				"setApprovalForAll(address,bool)": "infinite",
				"setColdWallet()": "22537",
				"setStorageContract(address)": "27257",
				"setURI(uint256,string)": "infinite",
				"supportsInterface(bytes4)": "1152",
				"symbol()": "infinite",
				"tokenByIndex(uint256)": "infinite",
				"tokenExists(uint256)": "infinite",
				"tokenOfOwnerByIndex(address,uint256)": "infinite",
				"tokenURI(uint256)": "infinite",
				"totalSupply()": "2513",
				"transferFrom(address,address,uint256)": "infinite",
				"trustedAgentBurn(uint256)": "infinite",
				"trustedAgentTransferFrom(address,address,uint256)": "infinite",
				"unSetColdWallet()": "5438",
				"unpause()": "infinite"
			},
			"internal": {
				"_baseURI()": "infinite",
				"_beforeTokenTransfer(address,address,uint256)": "infinite",
				"_burn(uint256)": "infinite",
				"_setTokenURI(uint256,string memory)": "infinite",
				"getRecord(bytes32)": "infinite",
				"writeRecord(bytes32,struct Record memory)": "infinite"
			}
		},
		"methodIdentifiers": {
			"B320xF_()": "3b21fd68",
			"CONTRACT_ADMIN_ROLE()": "1da03312",
			"DEFAULT_ADMIN_ROLE()": "a217fddf",
			"MINTER_ROLE()": "d5391393",
			"PAUSER_ROLE()": "e63ab1e9",
			"TRUSTED_AGENT_ROLE()": "992a7176",
			"approve(address,uint256)": "095ea7b3",
			"balanceOf(address)": "70a08231",
			"burn(uint256)": "42966c68",
			"discard(uint256)": "7e8f2b0c",
			"getApproved(uint256)": "081812fc",
			"getRoleAdmin(bytes32)": "248a9ca3",
			"getRoleMember(bytes32,uint256)": "9010d07c",
			"getRoleMemberCount(bytes32)": "ca15c873",
			"grantRole(bytes32,address)": "2f2ff15d",
			"hasRole(bytes32,address)": "91d14854",
			"isApprovedForAll(address,address)": "e985e9c5",
			"isColdWallet(address)": "4ac3c31b",
			"killTrustedAgent(uint256)": "cf0b969f",
			"mintAssetToken(address,uint256)": "cc1e3818",
			"name()": "06fdde03",
			"ownerOf(uint256)": "6352211e",
			"pause()": "8456cb59",
			"paused()": "5c975abb",
			"renounceRole(bytes32,address)": "36568abe",
			"resolveContractAddresses()": "ee9c25c5",
			"revokeRole(bytes32,address)": "d547741f",
			"safeTransferFrom(address,address,uint256)": "42842e0e",
			"safeTransferFrom(address,address,uint256,bytes)": "b88d4fde",
			"setApprovalForAll(address,bool)": "a22cb465",
			"setColdWallet()": "adfcaae0",
			"setStorageContract(address)": "dc38b0a2",
			"setURI(uint256,string)": "862440e2",
			"supportsInterface(bytes4)": "01ffc9a7",
			"symbol()": "95d89b41",
			"tokenByIndex(uint256)": "4f6ccce7",
			"tokenExists(uint256)": "00923f9e",
			"tokenOfOwnerByIndex(address,uint256)": "2f745c59",
			"tokenURI(uint256)": "c87b56dd",
			"totalSupply()": "18160ddd",
			"transferFrom(address,address,uint256)": "23b872dd",
			"trustedAgentBurn(uint256)": "d0ad0978",
			"trustedAgentTransferFrom(address,address,uint256)": "0b3048bf",
			"unSetColdWallet()": "2670d216",
			"unpause()": "3f4ba83a"
		}
	},
	"abi": [
		{
			"inputs": [],
			"stateMutability": "nonpayable",
			"type": "constructor"
		},
		{
			"anonymous": false,
			"inputs": [
				{
					"indexed": true,
					"internalType": "address",
					"name": "owner",
					"type": "address"
				},
				{
					"indexed": true,
					"internalType": "address",
					"name": "approved",
					"type": "address"
				},
				{
					"indexed": true,
					"internalType": "uint256",
					"name": "tokenId",
					"type": "uint256"
				}
			],
			"name": "Approval",
			"type": "event"
		},
		{
			"anonymous": false,
			"inputs": [
				{
					"indexed": true,
					"internalType": "address",
					"name": "owner",
					"type": "address"
				},
				{
					"indexed": true,
					"internalType": "address",
					"name": "operator",
					"type": "address"
				},
				{
					"indexed": false,
					"internalType": "bool",
					"name": "approved",
					"type": "bool"
				}
			],
			"name": "ApprovalForAll",
			"type": "event"
		},
		{
			"anonymous": false,
			"inputs": [
				{
					"indexed": false,
					"internalType": "address",
					"name": "account",
					"type": "address"
				}
			],
			"name": "Paused",
			"type": "event"
		},
		{
			"anonymous": false,
			"inputs": [
				{
					"indexed": true,
					"internalType": "bytes32",
					"name": "role",
					"type": "bytes32"
				},
				{
					"indexed": true,
					"internalType": "bytes32",
					"name": "previousAdminRole",
					"type": "bytes32"
				},
				{
					"indexed": true,
					"internalType": "bytes32",
					"name": "newAdminRole",
					"type": "bytes32"
				}
			],
			"name": "RoleAdminChanged",
			"type": "event"
		},
		{
			"anonymous": false,
			"inputs": [
				{
					"indexed": true,
					"internalType": "bytes32",
					"name": "role",
					"type": "bytes32"
				},
				{
					"indexed": true,
					"internalType": "address",
					"name": "account",
					"type": "address"
				},
				{
					"indexed": true,
					"internalType": "address",
					"name": "sender",
					"type": "address"
				}
			],
			"name": "RoleGranted",
			"type": "event"
		},
		{
			"anonymous": false,
			"inputs": [
				{
					"indexed": true,
					"internalType": "bytes32",
					"name": "role",
					"type": "bytes32"
				},
				{
					"indexed": true,
					"internalType": "address",
					"name": "account",
					"type": "address"
				},
				{
					"indexed": true,
					"internalType": "address",
					"name": "sender",
					"type": "address"
				}
			],
			"name": "RoleRevoked",
			"type": "event"
		},
		{
			"anonymous": false,
			"inputs": [
				{
					"indexed": true,
					"internalType": "address",
					"name": "from",
					"type": "address"
				},
				{
					"indexed": true,
					"internalType": "address",
					"name": "to",
					"type": "address"
				},
				{
					"indexed": true,
					"internalType": "uint256",
					"name": "tokenId",
					"type": "uint256"
				}
			],
			"name": "Transfer",
			"type": "event"
		},
		{
			"anonymous": false,
			"inputs": [
				{
					"indexed": false,
					"internalType": "address",
					"name": "account",
					"type": "address"
				}
			],
			"name": "Unpaused",
			"type": "event"
		},
		{
			"inputs": [],
			"name": "B320xF_",
			"outputs": [
				{
					"internalType": "bytes32",
					"name": "",
					"type": "bytes32"
				}
			],
			"stateMutability": "view",
			"type": "function"
		},
		{
			"inputs": [],
			"name": "CONTRACT_ADMIN_ROLE",
			"outputs": [
				{
					"internalType": "bytes32",
					"name": "",
					"type": "bytes32"
				}
			],
			"stateMutability": "view",
			"type": "function"
		},
		{
			"inputs": [],
			"name": "DEFAULT_ADMIN_ROLE",
			"outputs": [
				{
					"internalType": "bytes32",
					"name": "",
					"type": "bytes32"
				}
			],
			"stateMutability": "view",
			"type": "function"
		},
		{
			"inputs": [],
			"name": "MINTER_ROLE",
			"outputs": [
				{
					"internalType": "bytes32",
					"name": "",
					"type": "bytes32"
				}
			],
			"stateMutability": "view",
			"type": "function"
		},
		{
			"inputs": [],
			"name": "PAUSER_ROLE",
			"outputs": [
				{
					"internalType": "bytes32",
					"name": "",
					"type": "bytes32"
				}
			],
			"stateMutability": "view",
			"type": "function"
		},
		{
			"inputs": [],
			"name": "TRUSTED_AGENT_ROLE",
			"outputs": [
				{
					"internalType": "bytes32",
					"name": "",
					"type": "bytes32"
				}
			],
			"stateMutability": "view",
			"type": "function"
		},
		{
			"inputs": [
				{
					"internalType": "address",
					"name": "to",
					"type": "address"
				},
				{
					"internalType": "uint256",
					"name": "tokenId",
					"type": "uint256"
				}
			],
			"name": "approve",
			"outputs": [],
			"stateMutability": "nonpayable",
			"type": "function"
		},
		{
			"inputs": [
				{
					"internalType": "address",
					"name": "owner",
					"type": "address"
				}
			],
			"name": "balanceOf",
			"outputs": [
				{
					"internalType": "uint256",
					"name": "",
					"type": "uint256"
				}
			],
			"stateMutability": "view",
			"type": "function"
		},
		{
			"inputs": [
				{
					"internalType": "uint256",
					"name": "tokenId",
					"type": "uint256"
				}
			],
			"name": "burn",
			"outputs": [],
			"stateMutability": "nonpayable",
			"type": "function"
		},
		{
			"inputs": [
				{
					"internalType": "uint256",
					"name": "_tokenId",
					"type": "uint256"
				}
			],
			"name": "discard",
			"outputs": [],
			"stateMutability": "nonpayable",
			"type": "function"
		},
		{
			"inputs": [
				{
					"internalType": "uint256",
					"name": "tokenId",
					"type": "uint256"
				}
			],
			"name": "getApproved",
			"outputs": [
				{
					"internalType": "address",
					"name": "",
					"type": "address"
				}
			],
			"stateMutability": "view",
			"type": "function"
		},
		{
			"inputs": [
				{
					"internalType": "bytes32",
					"name": "role",
					"type": "bytes32"
				}
			],
			"name": "getRoleAdmin",
			"outputs": [
				{
					"internalType": "bytes32",
					"name": "",
					"type": "bytes32"
				}
			],
			"stateMutability": "view",
			"type": "function"
		},
		{
			"inputs": [
				{
					"internalType": "bytes32",
					"name": "role",
					"type": "bytes32"
				},
				{
					"internalType": "uint256",
					"name": "index",
					"type": "uint256"
				}
			],
			"name": "getRoleMember",
			"outputs": [
				{
					"internalType": "address",
					"name": "",
					"type": "address"
				}
			],
			"stateMutability": "view",
			"type": "function"
		},
		{
			"inputs": [
				{
					"internalType": "bytes32",
					"name": "role",
					"type": "bytes32"
				}
			],
			"name": "getRoleMemberCount",
			"outputs": [
				{
					"internalType": "uint256",
					"name": "",
					"type": "uint256"
				}
			],
			"stateMutability": "view",
			"type": "function"
		},
		{
			"inputs": [
				{
					"internalType": "bytes32",
					"name": "role",
					"type": "bytes32"
				},
				{
					"internalType": "address",
					"name": "account",
					"type": "address"
				}
			],
			"name": "grantRole",
			"outputs": [],
			"stateMutability": "nonpayable",
			"type": "function"
		},
		{
			"inputs": [
				{
					"internalType": "bytes32",
					"name": "role",
					"type": "bytes32"
				},
				{
					"internalType": "address",
					"name": "account",
					"type": "address"
				}
			],
			"name": "hasRole",
			"outputs": [
				{
					"internalType": "bool",
					"name": "",
					"type": "bool"
				}
			],
			"stateMutability": "view",
			"type": "function"
		},
		{
			"inputs": [
				{
					"internalType": "address",
					"name": "owner",
					"type": "address"
				},
				{
					"internalType": "address",
					"name": "operator",
					"type": "address"
				}
			],
			"name": "isApprovedForAll",
			"outputs": [
				{
					"internalType": "bool",
					"name": "",
					"type": "bool"
				}
			],
			"stateMutability": "view",
			"type": "function"
		},
		{
			"inputs": [
				{
					"internalType": "address",
					"name": "_addr",
					"type": "address"
				}
			],
			"name": "isColdWallet",
			"outputs": [
				{
					"internalType": "uint256",
					"name": "",
					"type": "uint256"
				}
			],
			"stateMutability": "view",
			"type": "function"
		},
		{
			"inputs": [
				{
					"internalType": "uint256",
					"name": "_key",
					"type": "uint256"
				}
			],
			"name": "killTrustedAgent",
			"outputs": [],
			"stateMutability": "nonpayable",
			"type": "function"
		},
		{
			"inputs": [
				{
					"internalType": "address",
					"name": "_recipientAddress",
					"type": "address"
				},
				{
					"internalType": "uint256",
					"name": "_tokenId",
					"type": "uint256"
				}
			],
			"name": "mintAssetToken",
			"outputs": [
				{
					"internalType": "uint256",
					"name": "",
					"type": "uint256"
				}
			],
			"stateMutability": "nonpayable",
			"type": "function"
		},
		{
			"inputs": [],
			"name": "name",
			"outputs": [
				{
					"internalType": "string",
					"name": "",
					"type": "string"
				}
			],
			"stateMutability": "view",
			"type": "function"
		},
		{
			"inputs": [
				{
					"internalType": "uint256",
					"name": "tokenId",
					"type": "uint256"
				}
			],
			"name": "ownerOf",
			"outputs": [
				{
					"internalType": "address",
					"name": "",
					"type": "address"
				}
			],
			"stateMutability": "view",
			"type": "function"
		},
		{
			"inputs": [],
			"name": "pause",
			"outputs": [],
			"stateMutability": "nonpayable",
			"type": "function"
		},
		{
			"inputs": [],
			"name": "paused",
			"outputs": [
				{
					"internalType": "bool",
					"name": "",
					"type": "bool"
				}
			],
			"stateMutability": "view",
			"type": "function"
		},
		{
			"inputs": [
				{
					"internalType": "bytes32",
					"name": "role",
					"type": "bytes32"
				},
				{
					"internalType": "address",
					"name": "account",
					"type": "address"
				}
			],
			"name": "renounceRole",
			"outputs": [],
			"stateMutability": "nonpayable",
			"type": "function"
		},
		{
			"inputs": [],
			"name": "resolveContractAddresses",
			"outputs": [],
			"stateMutability": "nonpayable",
			"type": "function"
		},
		{
			"inputs": [
				{
					"internalType": "bytes32",
					"name": "role",
					"type": "bytes32"
				},
				{
					"internalType": "address",
					"name": "account",
					"type": "address"
				}
			],
			"name": "revokeRole",
			"outputs": [],
			"stateMutability": "nonpayable",
			"type": "function"
		},
		{
			"inputs": [
				{
					"internalType": "address",
					"name": "_from",
					"type": "address"
				},
				{
					"internalType": "address",
					"name": "_to",
					"type": "address"
				},
				{
					"internalType": "uint256",
					"name": "_tokenId",
					"type": "uint256"
				}
			],
			"name": "safeTransferFrom",
			"outputs": [],
			"stateMutability": "nonpayable",
			"type": "function"
		},
		{
			"inputs": [
				{
					"internalType": "address",
					"name": "_from",
					"type": "address"
				},
				{
					"internalType": "address",
					"name": "_to",
					"type": "address"
				},
				{
					"internalType": "uint256",
					"name": "_tokenId",
					"type": "uint256"
				},
				{
					"internalType": "bytes",
					"name": "_data",
					"type": "bytes"
				}
			],
			"name": "safeTransferFrom",
			"outputs": [],
			"stateMutability": "nonpayable",
			"type": "function"
		},
		{
			"inputs": [
				{
					"internalType": "address",
					"name": "operator",
					"type": "address"
				},
				{
					"internalType": "bool",
					"name": "approved",
					"type": "bool"
				}
			],
			"name": "setApprovalForAll",
			"outputs": [],
			"stateMutability": "nonpayable",
			"type": "function"
		},
		{
			"inputs": [],
			"name": "setColdWallet",
			"outputs": [],
			"stateMutability": "nonpayable",
			"type": "function"
		},
		{
			"inputs": [
				{
					"internalType": "address",
					"name": "_storageAddress",
					"type": "address"
				}
			],
			"name": "setStorageContract",
			"outputs": [],
			"stateMutability": "nonpayable",
			"type": "function"
		},
		{
			"inputs": [
				{
					"internalType": "uint256",
					"name": "_tokenId",
					"type": "uint256"
				},
				{
					"internalType": "string",
					"name": "_tokenURI",
					"type": "string"
				}
			],
			"name": "setURI",
			"outputs": [
				{
					"internalType": "uint256",
					"name": "",
					"type": "uint256"
				}
			],
			"stateMutability": "nonpayable",
			"type": "function"
		},
		{
			"inputs": [
				{
					"internalType": "bytes4",
					"name": "interfaceId",
					"type": "bytes4"
				}
			],
			"name": "supportsInterface",
			"outputs": [
				{
					"internalType": "bool",
					"name": "",
					"type": "bool"
				}
			],
			"stateMutability": "view",
			"type": "function"
		},
		{
			"inputs": [],
			"name": "symbol",
			"outputs": [
				{
					"internalType": "string",
					"name": "",
					"type": "string"
				}
			],
			"stateMutability": "view",
			"type": "function"
		},
		{
			"inputs": [
				{
					"internalType": "uint256",
					"name": "index",
					"type": "uint256"
				}
			],
			"name": "tokenByIndex",
			"outputs": [
				{
					"internalType": "uint256",
					"name": "",
					"type": "uint256"
				}
			],
			"stateMutability": "view",
			"type": "function"
		},
		{
			"inputs": [
				{
					"internalType": "uint256",
					"name": "tokenId",
					"type": "uint256"
				}
			],
			"name": "tokenExists",
			"outputs": [
				{
					"internalType": "uint256",
					"name": "",
					"type": "uint256"
				}
			],
			"stateMutability": "view",
			"type": "function"
		},
		{
			"inputs": [
				{
					"internalType": "address",
					"name": "owner",
					"type": "address"
				},
				{
					"internalType": "uint256",
					"name": "index",
					"type": "uint256"
				}
			],
			"name": "tokenOfOwnerByIndex",
			"outputs": [
				{
					"internalType": "uint256",
					"name": "",
					"type": "uint256"
				}
			],
			"stateMutability": "view",
			"type": "function"
		},
		{
			"inputs": [
				{
					"internalType": "uint256",
					"name": "tokenId",
					"type": "uint256"
				}
			],
			"name": "tokenURI",
			"outputs": [
				{
					"internalType": "string",
					"name": "",
					"type": "string"
				}
			],
			"stateMutability": "view",
			"type": "function"
		},
		{
			"inputs": [],
			"name": "totalSupply",
			"outputs": [
				{
					"internalType": "uint256",
					"name": "",
					"type": "uint256"
				}
			],
			"stateMutability": "view",
			"type": "function"
		},
		{
			"inputs": [
				{
					"internalType": "address",
					"name": "_from",
					"type": "address"
				},
				{
					"internalType": "address",
					"name": "_to",
					"type": "address"
				},
				{
					"internalType": "uint256",
					"name": "_tokenId",
					"type": "uint256"
				}
			],
			"name": "transferFrom",
			"outputs": [],
			"stateMutability": "nonpayable",
			"type": "function"
		},
		{
			"inputs": [
				{
					"internalType": "uint256",
					"name": "_tokenId",
					"type": "uint256"
				}
			],
			"name": "trustedAgentBurn",
			"outputs": [],
			"stateMutability": "nonpayable",
			"type": "function"
		},
		{
			"inputs": [
				{
					"internalType": "address",
					"name": "_from",
					"type": "address"
				},
				{
					"internalType": "address",
					"name": "_to",
					"type": "address"
				},
				{
					"internalType": "uint256",
					"name": "_tokenId",
					"type": "uint256"
				}
			],
			"name": "trustedAgentTransferFrom",
			"outputs": [],
			"stateMutability": "nonpayable",
			"type": "function"
		},
		{
			"inputs": [],
			"name": "unSetColdWallet",
			"outputs": [],
			"stateMutability": "nonpayable",
			"type": "function"
		},
		{
			"inputs": [],
			"name": "unpause",
			"outputs": [],
			"stateMutability": "nonpayable",
			"type": "function"
		}
	]
}