{
	"data": {
		"bytecode": {
			"linkReferences": {},
			"object": "608060405260016011553480156200001657600080fd5b50604080518082018252600f81526e28292aa3102737b232902a37b5b2b760891b6020808301918252835180850190945260048452632829232760e11b90840152600160005581519192916200006f916003916200021e565b508051620000859060049060208401906200021e565b5050600d805460ff19169055506200009f600033620000d1565b620000cb7f65d7a28e3265b37a6474929f336521b332c1681b933f6cb9f3376673440d862a33620000d1565b62000301565b620000e882826200011460201b62000f8b1760201c565b60008281526002602090815260409091206200010f91839062000f9962000124821b17901c565b505050565b62000120828262000144565b5050565b60006200013b836001600160a01b038416620001cc565b90505b92915050565b60008281526001602090815260408083206001600160a01b038516845290915290205460ff16620001205760008281526001602081815260408084206001600160a01b0386168086529252808420805460ff19169093179092559051339285917f2f8788117e7eff1d82e926ec794901d17c78024a50270940304540a733656f0d9190a45050565b600081815260018301602052604081205462000215575081546001818101845560008481526020808220909301849055845484825282860190935260409020919091556200013e565b5060006200013e565b8280546200022c90620002c4565b90600052602060002090601f0160209004810192826200025057600085556200029b565b82601f106200026b57805160ff19168380011785556200029b565b828001600101855582156200029b579182015b828111156200029b5782518255916020019190600101906200027e565b50620002a9929150620002ad565b5090565b5b80821115620002a95760008155600101620002ae565b600181811c90821680620002d957607f821691505b60208210811415620002fb57634e487b7160e01b600052602260045260246000fd5b50919050565b61297e80620003116000396000f3fe608060405234801561001057600080fd5b50600436106101fa5760003560e01c80635c975abb1161011a578063a22cb465116100ad578063d53913931161007c578063d539139314610424578063d547741f1461044b578063e63ab1e91461045e578063e985e9c514610485578063e9c26518146104c157600080fd5b8063a22cb465146103d8578063b88d4fde146103eb578063c87b56dd146103fe578063ca15c8731461041157600080fd5b80639010d07c116100e95780639010d07c146103a257806391d14854146103b557806395d89b41146103c8578063a217fddf146103d057600080fd5b80635c975abb146103695780636352211e1461037457806370a08231146103875780638456cb591461039a57600080fd5b806327da435e116101925780633f4ba83a116101615780633f4ba83a1461032857806342842e0e1461033057806342966c68146103435780634f6ccce71461035657600080fd5b806327da435e146102dc5780632f2ff15d146102ef5780632f745c591461030257806336568abe1461031557600080fd5b8063095ea7b3116101ce578063095ea7b31461028857806318160ddd1461029d57806323b872dd146102a5578063248a9ca3146102b857600080fd5b8062923f9e146101ff57806301ffc9a71461022557806306fdde0314610248578063081812fc1461025d575b600080fd5b61021261020d3660046122f0565b6104e8565b6040519081526020015b60405180910390f35b61023861023336600461231f565b61050d565b604051901515815260200161021c565b61025061051e565b60405161021c9190612394565b61027061026b3660046122f0565b6105b0565b6040516001600160a01b03909116815260200161021c565b61029b6102963660046123be565b61063d565b005b600b54610212565b61029b6102b33660046123e8565b610753565b6102126102c63660046122f0565b6000908152600160208190526040909120015490565b6102126102ea366004612424565b610785565b61029b6102fd3660046124ab565b6108b7565b6102126103103660046123be565b6108d9565b61029b6103233660046124ab565b61096f565b61029b610991565b61029b61033e3660046123e8565b610a11565b61029b6103513660046122f0565b610a2c565b6102126103643660046122f0565b610aa6565b600d5460ff16610238565b6102706103823660046122f0565b610b39565b6102126103953660046124d7565b610bb0565b61029b610c37565b6102706103b03660046124f2565b610cb5565b6102386103c33660046124ab565b610cd4565b610250610cff565b610212600081565b61029b6103e6366004612514565b610d0e565b61029b6103f9366004612566565b610dd3565b61025061040c3660046122f0565b610e0b565b61021261041f3660046122f0565b610f6a565b6102127f9f2df0fed2c77648de5860a4cc508cd0818c85b8b8a1ab4ceeef8d981c8956a681565b61029b6104593660046124ab565b610f81565b6102127f65d7a28e3265b37a6474929f336521b332c1681b933f6cb9f3376673440d862a81565b610238610493366004612642565b6001600160a01b03918216600090815260086020908152604080832093909416825291909152205460ff1690565b6102127f3b5d4cc60d3ec3516ee8ae083bd60934f6eb2a6c54b1229985c41bfb092b260381565b60006104f382610fae565b15610500575060aa919050565b506000919050565b919050565b600061051882610fcb565b92915050565b60606003805461052d9061266c565b80601f01602080910402602001604051908101604052809291908181526020018280546105599061266c565b80156105a65780601f1061057b576101008083540402835291602001916105a6565b820191906000526020600020905b81548152906001019060200180831161058957829003601f168201915b5050505050905090565b60006105bb82610fae565b6106215760405162461bcd60e51b815260206004820152602c60248201527f4552433732313a20617070726f76656420717565727920666f72206e6f6e657860448201526b34b9ba32b73a103a37b5b2b760a11b60648201526084015b60405180910390fd5b506000908152600760205260409020546001600160a01b031690565b600061064882610b39565b9050806001600160a01b0316836001600160a01b031614156106b65760405162461bcd60e51b815260206004820152602160248201527f4552433732313a20617070726f76616c20746f2063757272656e74206f776e656044820152603960f91b6064820152608401610618565b336001600160a01b03821614806106d257506106d28133610493565b6107445760405162461bcd60e51b815260206004820152603860248201527f4552433732313a20617070726f76652063616c6c6572206973206e6f74206f7760448201527f6e6572206e6f7220617070726f76656420666f7220616c6c00000000000000006064820152608401610618565b61074e8383610ff0565b505050565b61075e335b8261105e565b61077a5760405162461bcd60e51b8152600401610618906126a7565b61074e838383611144565b60006107b17f9f2df0fed2c77648de5860a4cc508cd0818c85b8b8a1ab4ceeef8d981c8956a633610cd4565b6108085760405162461bcd60e51b815260206004820152602260248201527f41543a4d4f442d494d3a2043616c6c696e67206164647265737320216d696e7460448201526132b960f11b6064820152608401610618565b6002600054141561085b5760405162461bcd60e51b815260206004820152601f60248201527f5265656e7472616e637947756172643a207265656e7472616e742063616c6c006044820152606401610618565b600260005561086a85856112ef565b6108aa8484848080601f01602080910402602001604051908101604052809392919081815260200183838082843760009201919091525061130992505050565b5050600160005550919050565b6108c18282611389565b600082815260026020526040902061074e9082610f99565b60006108e483610bb0565b82106109465760405162461bcd60e51b815260206004820152602b60248201527f455243373231456e756d657261626c653a206f776e657220696e646578206f7560448201526a74206f6620626f756e647360a81b6064820152608401610618565b506001600160a01b03919091166000908152600960209081526040808320938352929052205490565b61097982826113b0565b600082815260026020526040902061074e908261142a565b6109bb7f65d7a28e3265b37a6474929f336521b332c1681b933f6cb9f3376673440d862a33610cd4565b610a075760405162461bcd60e51b815260206004820152601f60248201527f4e543a55503a2043616c6c65722021686176652070617573657220726f6c65006044820152606401610618565b610a0f61143f565b565b61074e83838360405180602001604052806000815250610dd3565b610a3533610758565b610a9a5760405162461bcd60e51b815260206004820152603060248201527f4552433732314275726e61626c653a2063616c6c6572206973206e6f74206f7760448201526f1b995c881b9bdc88185c1c1c9bdd995960821b6064820152608401610618565b610aa3816114d2565b50565b6000610ab1600b5490565b8210610b145760405162461bcd60e51b815260206004820152602c60248201527f455243373231456e756d657261626c653a20676c6f62616c20696e646578206f60448201526b7574206f6620626f756e647360a01b6064820152608401610618565b600b8281548110610b2757610b276126f8565b90600052602060002001549050919050565b6000818152600560205260408120546001600160a01b0316806105185760405162461bcd60e51b815260206004820152602960248201527f4552433732313a206f776e657220717565727920666f72206e6f6e657869737460448201526832b73a103a37b5b2b760b91b6064820152608401610618565b60006001600160a01b038216610c1b5760405162461bcd60e51b815260206004820152602a60248201527f4552433732313a2062616c616e636520717565727920666f7220746865207a65604482015269726f206164647265737360b01b6064820152608401610618565b506001600160a01b031660009081526006602052604090205490565b610c617f65d7a28e3265b37a6474929f336521b332c1681b933f6cb9f3376673440d862a33610cd4565b610cad5760405162461bcd60e51b815260206004820152601e60248201527f4e543a503a2043616c6c65722021686176652070617573657220726f6c6500006044820152606401610618565b610a0f611579565b6000828152600260205260408120610ccd90836115f4565b9392505050565b60009182526001602090815260408084206001600160a01b0393909316845291905290205460ff1690565b60606004805461052d9061266c565b6001600160a01b038216331415610d675760405162461bcd60e51b815260206004820152601960248201527f4552433732313a20617070726f766520746f2063616c6c6572000000000000006044820152606401610618565b3360008181526008602090815260408083206001600160a01b03871680855290835292819020805460ff191686151590811790915590519081529192917f17307eab39ab6107e8899845ad3d59bd9653f200f220920489ca2b5937696c31910160405180910390a35050565b610ddd338361105e565b610df95760405162461bcd60e51b8152600401610618906126a7565b610e0584848484611600565b50505050565b6060610e1682610fae565b610e715760405162461bcd60e51b815260206004820152602660248201527f4e543a54553a2055524920717565727920666f72206e6f6e6578697374656e74604482015265103a37b5b2b760d11b6064820152608401610618565b6000828152600e602052604081208054610e8a9061266c565b80601f0160208091040260200160405190810160405280929190818152602001828054610eb69061266c565b8015610f035780601f10610ed857610100808354040283529160200191610f03565b820191906000526020600020905b815481529060010190602001808311610ee657829003601f168201915b505050505090506000610f14611633565b9050805160001415610f27575092915050565b815115610f59578082604051602001610f4192919061270e565b60405160208183030381529060405292505050919050565b610f6284611642565b949350505050565b60008181526002602052604081206105189061170c565b6109798282611716565b610f95828261173d565b5050565b6000610ccd836001600160a01b0384166117a8565b6000908152600560205260409020546001600160a01b0316151590565b60006001600160e01b0319821663780e9d6360e01b14806105185750610518826117f7565b600081815260076020526040902080546001600160a01b0319166001600160a01b038416908117909155819061102582610b39565b6001600160a01b03167f8c5be1e5ebec7d5bd14f71427d1e84f3dd0314c0f7b2291e5b200ac8c7c3b92560405160405180910390a45050565b600061106982610fae565b6110ca5760405162461bcd60e51b815260206004820152602c60248201527f4552433732313a206f70657261746f7220717565727920666f72206e6f6e657860448201526b34b9ba32b73a103a37b5b2b760a11b6064820152608401610618565b60006110d583610b39565b9050806001600160a01b0316846001600160a01b031614806111105750836001600160a01b0316611105846105b0565b6001600160a01b0316145b80610f6257506001600160a01b0380821660009081526008602090815260408083209388168352929052205460ff16610f62565b826001600160a01b031661115782610b39565b6001600160a01b0316146111bf5760405162461bcd60e51b815260206004820152602960248201527f4552433732313a207472616e73666572206f6620746f6b656e2074686174206960448201526839903737ba1037bbb760b91b6064820152608401610618565b6001600160a01b0382166112215760405162461bcd60e51b8152602060048201526024808201527f4552433732313a207472616e7366657220746f20746865207a65726f206164646044820152637265737360e01b6064820152608401610618565b61122c838383611837565b611237600082610ff0565b6001600160a01b0383166000908152600660205260408120805460019290611260908490612753565b90915550506001600160a01b038216600090815260066020526040812080546001929061128e90849061276a565b909155505060008181526005602052604080822080546001600160a01b0319166001600160a01b0386811691821790925591518493918716917fddf252ad1be2c89b69c2b068fc378daa952ba7f163c4a11628f55a4df523b3ef91a4505050565b610f95828260405180602001604052806000815250611842565b61131282610fae565b61136a5760405162461bcd60e51b8152602060048201526024808201527f4e543a5354553a2055524920736574206f66206e6f6e6578697374656e74207460448201526337b5b2b760e11b6064820152608401610618565b6000828152600e60209081526040909120825161074e92840190612257565b600082815260016020819052604090912001546113a68133611875565b61074e838361173d565b6001600160a01b03811633146114205760405162461bcd60e51b815260206004820152602f60248201527f416363657373436f6e74726f6c3a2063616e206f6e6c792072656e6f756e636560448201526e103937b632b9903337b91039b2b63360891b6064820152608401610618565b610f9582826118d9565b6000610ccd836001600160a01b038416611940565b600d5460ff166114885760405162461bcd60e51b815260206004820152601460248201527314185d5cd8589b194e881b9bdd081c185d5cd95960621b6044820152606401610618565b600d805460ff191690557f5db9ee0a495bf2e6ff9c91a7834c1ba4fdd244a5e8aa4e537bd38aeae4b073aa335b6040516001600160a01b03909116815260200160405180910390a1565b60006114dd82610b39565b90506114eb81600084611837565b6114f6600083610ff0565b6001600160a01b038116600090815260066020526040812080546001929061151f908490612753565b909155505060008281526005602052604080822080546001600160a01b0319169055518391906001600160a01b038416907fddf252ad1be2c89b69c2b068fc378daa952ba7f163c4a11628f55a4df523b3ef908390a45050565b600d5460ff16156115bf5760405162461bcd60e51b815260206004820152601060248201526f14185d5cd8589b194e881c185d5cd95960821b6044820152606401610618565b600d805460ff191660011790557f62e78cea01bee320cd4e420270b5ea74000d11b0c9f74754ebdbfc544b05a2586114b53390565b6000610ccd8383611a33565b61160b848484611144565b61161784848484611a5d565b610e055760405162461bcd60e51b815260040161061890612782565b60606010805461052d9061266c565b606061164d82610fae565b6116b15760405162461bcd60e51b815260206004820152602f60248201527f4552433732314d657461646174613a2055524920717565727920666f72206e6f60448201526e3732bc34b9ba32b73a103a37b5b2b760891b6064820152608401610618565b60006116bb611633565b905060008151116116db5760405180602001604052806000815250610ccd565b806116e584611b6a565b6040516020016116f692919061270e565b6040516020818303038152906040529392505050565b6000610518825490565b600082815260016020819052604090912001546117338133611875565b61074e83836118d9565b6117478282610cd4565b610f955760008281526001602081815260408084206001600160a01b0386168086529252808420805460ff19169093179092559051339285917f2f8788117e7eff1d82e926ec794901d17c78024a50270940304540a733656f0d9190a45050565b60008181526001830160205260408120546117ef57508154600181810184556000848152602080822090930184905584548482528286019093526040902091909155610518565b506000610518565b60006001600160e01b031982166380ac58cd60e01b148061182857506001600160e01b03198216635b5e139f60e01b145b80610518575061051882611c68565b61074e838383611c8d565b61184c8383611cff565b6118596000848484611a5d565b61074e5760405162461bcd60e51b815260040161061890612782565b61187f8282610cd4565b610f9557611897816001600160a01b03166014611e3e565b6118a2836020611e3e565b6040516020016118b39291906127d4565b60408051601f198184030181529082905262461bcd60e51b825261061891600401612394565b6118e38282610cd4565b15610f955760008281526001602090815260408083206001600160a01b0385168085529252808320805460ff1916905551339285917ff6391f5c32d9c69d2a47ea670b442974b53935d1edc7fd64eb21e047a839171b9190a45050565b60008181526001830160205260408120548015611a29576000611964600183612753565b855490915060009061197890600190612753565b90508181146119dd576000866000018281548110611998576119986126f8565b90600052602060002001549050808760000184815481106119bb576119bb6126f8565b6000918252602080832090910192909255918252600188019052604090208390555b85548690806119ee576119ee612849565b600190038181906000526020600020016000905590558560010160008681526020019081526020016000206000905560019350505050610518565b6000915050610518565b6000826000018281548110611a4a57611a4a6126f8565b9060005260206000200154905092915050565b60006001600160a01b0384163b15611b5f57604051630a85bd0160e11b81526001600160a01b0385169063150b7a0290611aa190339089908890889060040161285f565b602060405180830381600087803b158015611abb57600080fd5b505af1925050508015611aeb575060408051601f3d908101601f19168201909252611ae89181019061289c565b60015b611b45573d808015611b19576040519150601f19603f3d011682016040523d82523d6000602084013e611b1e565b606091505b508051611b3d5760405162461bcd60e51b815260040161061890612782565b805181602001fd5b6001600160e01b031916630a85bd0160e11b149050610f62565b506001949350505050565b606081611b8e5750506040805180820190915260018152600360fc1b602082015290565b8160005b8115611bb85780611ba2816128b9565b9150611bb19050600a836128ea565b9150611b92565b60008167ffffffffffffffff811115611bd357611bd3612550565b6040519080825280601f01601f191660200182016040528015611bfd576020820181803683370190505b5090505b8415610f6257611c12600183612753565b9150611c1f600a866128fe565b611c2a90603061276a565b60f81b818381518110611c3f57611c3f6126f8565b60200101906001600160f81b031916908160001a905350611c61600a866128ea565b9450611c01565b60006001600160e01b03198216635a05180f60e01b1480610518575061051882611fda565b611c9883838361200f565b600d5460ff161561074e5760405162461bcd60e51b815260206004820152602b60248201527f4552433732315061757361626c653a20746f6b656e207472616e73666572207760448201526a1a1a5b19481c185d5cd95960aa1b6064820152608401610618565b6001600160a01b038216611d555760405162461bcd60e51b815260206004820181905260248201527f4552433732313a206d696e7420746f20746865207a65726f20616464726573736044820152606401610618565b611d5e81610fae565b15611dab5760405162461bcd60e51b815260206004820152601c60248201527f4552433732313a20746f6b656e20616c7265616479206d696e746564000000006044820152606401610618565b611db760008383611837565b6001600160a01b0382166000908152600660205260408120805460019290611de090849061276a565b909155505060008181526005602052604080822080546001600160a01b0319166001600160a01b03861690811790915590518392907fddf252ad1be2c89b69c2b068fc378daa952ba7f163c4a11628f55a4df523b3ef908290a45050565b60606000611e4d836002612912565b611e5890600261276a565b67ffffffffffffffff811115611e7057611e70612550565b6040519080825280601f01601f191660200182016040528015611e9a576020820181803683370190505b509050600360fc1b81600081518110611eb557611eb56126f8565b60200101906001600160f81b031916908160001a905350600f60fb1b81600181518110611ee457611ee46126f8565b60200101906001600160f81b031916908160001a9053506000611f08846002612912565b611f1390600161276a565b90505b6001811115611f8b576f181899199a1a9b1b9c1cb0b131b232b360811b85600f1660108110611f4757611f476126f8565b1a60f81b828281518110611f5d57611f5d6126f8565b60200101906001600160f81b031916908160001a90535060049490941c93611f8481612931565b9050611f16565b508315610ccd5760405162461bcd60e51b815260206004820181905260248201527f537472696e67733a20686578206c656e67746820696e73756666696369656e746044820152606401610618565b60006001600160e01b03198216637965db0b60e01b148061051857506301ffc9a760e01b6001600160e01b0319831614610518565b6001600160a01b03831661206a5761206581600b80546000838152600c60205260408120829055600182018355919091527f0175b7a638427703f0dbe7bb9bbf987a2551717b34e79f33b5b1008d1fa01db90155565b61208d565b816001600160a01b0316836001600160a01b03161461208d5761208d83826120c7565b6001600160a01b0382166120a45761074e81612164565b826001600160a01b0316826001600160a01b03161461074e5761074e8282612213565b600060016120d484610bb0565b6120de9190612753565b6000838152600a6020526040902054909150808214612131576001600160a01b03841660009081526009602090815260408083208584528252808320548484528184208190558352600a90915290208190555b506000918252600a602090815260408084208490556001600160a01b039094168352600981528383209183525290812055565b600b5460009061217690600190612753565b6000838152600c6020526040812054600b805493945090928490811061219e5761219e6126f8565b9060005260206000200154905080600b83815481106121bf576121bf6126f8565b6000918252602080832090910192909255828152600c9091526040808220849055858252812055600b8054806121f7576121f7612849565b6001900381819060005260206000200160009055905550505050565b600061221e83610bb0565b6001600160a01b0390931660009081526009602090815260408083208684528252808320859055938252600a9052919091209190915550565b8280546122639061266c565b90600052602060002090601f01602090048101928261228557600085556122cb565b82601f1061229e57805160ff19168380011785556122cb565b828001600101855582156122cb579182015b828111156122cb5782518255916020019190600101906122b0565b506122d79291506122db565b5090565b5b808211156122d757600081556001016122dc565b60006020828403121561230257600080fd5b5035919050565b6001600160e01b031981168114610aa357600080fd5b60006020828403121561233157600080fd5b8135610ccd81612309565b60005b8381101561235757818101518382015260200161233f565b83811115610e055750506000910152565b6000815180845261238081602086016020860161233c565b601f01601f19169290920160200192915050565b602081526000610ccd6020830184612368565b80356001600160a01b038116811461050857600080fd5b600080604083850312156123d157600080fd5b6123da836123a7565b946020939093013593505050565b6000806000606084860312156123fd57600080fd5b612406846123a7565b9250612414602085016123a7565b9150604084013590509250925092565b6000806000806060858703121561243a57600080fd5b612443856123a7565b935060208501359250604085013567ffffffffffffffff8082111561246757600080fd5b818701915087601f83011261247b57600080fd5b81358181111561248a57600080fd5b88602082850101111561249c57600080fd5b95989497505060200194505050565b600080604083850312156124be57600080fd5b823591506124ce602084016123a7565b90509250929050565b6000602082840312156124e957600080fd5b610ccd826123a7565b6000806040838503121561250557600080fd5b50508035926020909101359150565b6000806040838503121561252757600080fd5b612530836123a7565b91506020830135801515811461254557600080fd5b809150509250929050565b634e487b7160e01b600052604160045260246000fd5b6000806000806080858703121561257c57600080fd5b612585856123a7565b9350612593602086016123a7565b925060408501359150606085013567ffffffffffffffff808211156125b757600080fd5b818701915087601f8301126125cb57600080fd5b8135818111156125dd576125dd612550565b604051601f8201601f19908116603f0116810190838211818310171561260557612605612550565b816040528281528a602084870101111561261e57600080fd5b82602086016020830137600060208483010152809550505050505092959194509250565b6000806040838503121561265557600080fd5b61265e836123a7565b91506124ce602084016123a7565b600181811c9082168061268057607f821691505b602082108114156126a157634e487b7160e01b600052602260045260246000fd5b50919050565b60208082526031908201527f4552433732313a207472616e736665722063616c6c6572206973206e6f74206f6040820152701ddb995c881b9bdc88185c1c1c9bdd9959607a1b606082015260800190565b634e487b7160e01b600052603260045260246000fd5b6000835161272081846020880161233c565b83519083019061273481836020880161233c565b01949350505050565b634e487b7160e01b600052601160045260246000fd5b6000828210156127655761276561273d565b500390565b6000821982111561277d5761277d61273d565b500190565b60208082526032908201527f4552433732313a207472616e7366657220746f206e6f6e20455243373231526560408201527131b2b4bb32b91034b6b83632b6b2b73a32b960711b606082015260800190565b7f416363657373436f6e74726f6c3a206163636f756e742000000000000000000081526000835161280c81601785016020880161233c565b7001034b99036b4b9b9b4b733903937b6329607d1b601791840191820152835161283d81602884016020880161233c565b01602801949350505050565b634e487b7160e01b600052603160045260246000fd5b6001600160a01b038581168252841660208201526040810183905260806060820181905260009061289290830184612368565b9695505050505050565b6000602082840312156128ae57600080fd5b8151610ccd81612309565b60006000198214156128cd576128cd61273d565b5060010190565b634e487b7160e01b600052601260045260246000fd5b6000826128f9576128f96128d4565b500490565b60008261290d5761290d6128d4565b500690565b600081600019048311821515161561292c5761292c61273d565b500290565b6000816129405761294061273d565b50600019019056fea26469706673582212208b3329694f65f46414769b11b17b8bc637668bff91a79fa80d5f91ebce16ffd564736f6c63430008090033",
			"opcodes": "PUSH1 0x80 PUSH1 0x40 MSTORE PUSH1 0x1 PUSH1 0x11 SSTORE CALLVALUE DUP1 ISZERO PUSH3 0x16 JUMPI PUSH1 0x0 DUP1 REVERT JUMPDEST POP PUSH1 0x40 DUP1 MLOAD DUP1 DUP3 ADD DUP3 MSTORE PUSH1 0xF DUP2 MSTORE PUSH15 0x28292AA3102737B232902A37B5B2B7 PUSH1 0x89 SHL PUSH1 0x20 DUP1 DUP4 ADD SWAP2 DUP3 MSTORE DUP4 MLOAD DUP1 DUP6 ADD SWAP1 SWAP5 MSTORE PUSH1 0x4 DUP5 MSTORE PUSH4 0x28292327 PUSH1 0xE1 SHL SWAP1 DUP5 ADD MSTORE PUSH1 0x1 PUSH1 0x0 SSTORE DUP2 MLOAD SWAP2 SWAP3 SWAP2 PUSH3 0x6F SWAP2 PUSH1 0x3 SWAP2 PUSH3 0x21E JUMP JUMPDEST POP DUP1 MLOAD PUSH3 0x85 SWAP1 PUSH1 0x4 SWAP1 PUSH1 0x20 DUP5 ADD SWAP1 PUSH3 0x21E JUMP JUMPDEST POP POP PUSH1 0xD DUP1 SLOAD PUSH1 0xFF NOT AND SWAP1 SSTORE POP PUSH3 0x9F PUSH1 0x0 CALLER PUSH3 0xD1 JUMP JUMPDEST PUSH3 0xCB PUSH32 0x65D7A28E3265B37A6474929F336521B332C1681B933F6CB9F3376673440D862A CALLER PUSH3 0xD1 JUMP JUMPDEST PUSH3 0x301 JUMP JUMPDEST PUSH3 0xE8 DUP3 DUP3 PUSH3 0x114 PUSH1 0x20 SHL PUSH3 0xF8B OR PUSH1 0x20 SHR JUMP JUMPDEST PUSH1 0x0 DUP3 DUP2 MSTORE PUSH1 0x2 PUSH1 0x20 SWAP1 DUP2 MSTORE PUSH1 0x40 SWAP1 SWAP2 KECCAK256 PUSH3 0x10F SWAP2 DUP4 SWAP1 PUSH3 0xF99 PUSH3 0x124 DUP3 SHL OR SWAP1 SHR JUMP JUMPDEST POP POP POP JUMP JUMPDEST PUSH3 0x120 DUP3 DUP3 PUSH3 0x144 JUMP JUMPDEST POP POP JUMP JUMPDEST PUSH1 0x0 PUSH3 0x13B DUP4 PUSH1 0x1 PUSH1 0x1 PUSH1 0xA0 SHL SUB DUP5 AND PUSH3 0x1CC JUMP JUMPDEST SWAP1 POP JUMPDEST SWAP3 SWAP2 POP POP JUMP JUMPDEST PUSH1 0x0 DUP3 DUP2 MSTORE PUSH1 0x1 PUSH1 0x20 SWAP1 DUP2 MSTORE PUSH1 0x40 DUP1 DUP4 KECCAK256 PUSH1 0x1 PUSH1 0x1 PUSH1 0xA0 SHL SUB DUP6 AND DUP5 MSTORE SWAP1 SWAP2 MSTORE SWAP1 KECCAK256 SLOAD PUSH1 0xFF AND PUSH3 0x120 JUMPI PUSH1 0x0 DUP3 DUP2 MSTORE PUSH1 0x1 PUSH1 0x20 DUP2 DUP2 MSTORE PUSH1 0x40 DUP1 DUP5 KECCAK256 PUSH1 0x1 PUSH1 0x1 PUSH1 0xA0 SHL SUB DUP7 AND DUP1 DUP7 MSTORE SWAP3 MSTORE DUP1 DUP5 KECCAK256 DUP1 SLOAD PUSH1 0xFF NOT AND SWAP1 SWAP4 OR SWAP1 SWAP3 SSTORE SWAP1 MLOAD CALLER SWAP3 DUP6 SWAP2 PUSH32 0x2F8788117E7EFF1D82E926EC794901D17C78024A50270940304540A733656F0D SWAP2 SWAP1 LOG4 POP POP JUMP JUMPDEST PUSH1 0x0 DUP2 DUP2 MSTORE PUSH1 0x1 DUP4 ADD PUSH1 0x20 MSTORE PUSH1 0x40 DUP2 KECCAK256 SLOAD PUSH3 0x215 JUMPI POP DUP2 SLOAD PUSH1 0x1 DUP2 DUP2 ADD DUP5 SSTORE PUSH1 0x0 DUP5 DUP2 MSTORE PUSH1 0x20 DUP1 DUP3 KECCAK256 SWAP1 SWAP4 ADD DUP5 SWAP1 SSTORE DUP5 SLOAD DUP5 DUP3 MSTORE DUP3 DUP7 ADD SWAP1 SWAP4 MSTORE PUSH1 0x40 SWAP1 KECCAK256 SWAP2 SWAP1 SWAP2 SSTORE PUSH3 0x13E JUMP JUMPDEST POP PUSH1 0x0 PUSH3 0x13E JUMP JUMPDEST DUP3 DUP1 SLOAD PUSH3 0x22C SWAP1 PUSH3 0x2C4 JUMP JUMPDEST SWAP1 PUSH1 0x0 MSTORE PUSH1 0x20 PUSH1 0x0 KECCAK256 SWAP1 PUSH1 0x1F ADD PUSH1 0x20 SWAP1 DIV DUP2 ADD SWAP3 DUP3 PUSH3 0x250 JUMPI PUSH1 0x0 DUP6 SSTORE PUSH3 0x29B JUMP JUMPDEST DUP3 PUSH1 0x1F LT PUSH3 0x26B JUMPI DUP1 MLOAD PUSH1 0xFF NOT AND DUP4 DUP1 ADD OR DUP6 SSTORE PUSH3 0x29B JUMP JUMPDEST DUP3 DUP1 ADD PUSH1 0x1 ADD DUP6 SSTORE DUP3 ISZERO PUSH3 0x29B JUMPI SWAP2 DUP3 ADD JUMPDEST DUP3 DUP2 GT ISZERO PUSH3 0x29B JUMPI DUP3 MLOAD DUP3 SSTORE SWAP2 PUSH1 0x20 ADD SWAP2 SWAP1 PUSH1 0x1 ADD SWAP1 PUSH3 0x27E JUMP JUMPDEST POP PUSH3 0x2A9 SWAP3 SWAP2 POP PUSH3 0x2AD JUMP JUMPDEST POP SWAP1 JUMP JUMPDEST JUMPDEST DUP1 DUP3 GT ISZERO PUSH3 0x2A9 JUMPI PUSH1 0x0 DUP2 SSTORE PUSH1 0x1 ADD PUSH3 0x2AE JUMP JUMPDEST PUSH1 0x1 DUP2 DUP2 SHR SWAP1 DUP3 AND DUP1 PUSH3 0x2D9 JUMPI PUSH1 0x7F DUP3 AND SWAP2 POP JUMPDEST PUSH1 0x20 DUP3 LT DUP2 EQ ISZERO PUSH3 0x2FB JUMPI PUSH4 0x4E487B71 PUSH1 0xE0 SHL PUSH1 0x0 MSTORE PUSH1 0x22 PUSH1 0x4 MSTORE PUSH1 0x24 PUSH1 0x0 REVERT JUMPDEST POP SWAP2 SWAP1 POP JUMP JUMPDEST PUSH2 0x297E DUP1 PUSH3 0x311 PUSH1 0x0 CODECOPY PUSH1 0x0 RETURN INVALID PUSH1 0x80 PUSH1 0x40 MSTORE CALLVALUE DUP1 ISZERO PUSH2 0x10 JUMPI PUSH1 0x0 DUP1 REVERT JUMPDEST POP PUSH1 0x4 CALLDATASIZE LT PUSH2 0x1FA JUMPI PUSH1 0x0 CALLDATALOAD PUSH1 0xE0 SHR DUP1 PUSH4 0x5C975ABB GT PUSH2 0x11A JUMPI DUP1 PUSH4 0xA22CB465 GT PUSH2 0xAD JUMPI DUP1 PUSH4 0xD5391393 GT PUSH2 0x7C JUMPI DUP1 PUSH4 0xD5391393 EQ PUSH2 0x424 JUMPI DUP1 PUSH4 0xD547741F EQ PUSH2 0x44B JUMPI DUP1 PUSH4 0xE63AB1E9 EQ PUSH2 0x45E JUMPI DUP1 PUSH4 0xE985E9C5 EQ PUSH2 0x485 JUMPI DUP1 PUSH4 0xE9C26518 EQ PUSH2 0x4C1 JUMPI PUSH1 0x0 DUP1 REVERT JUMPDEST DUP1 PUSH4 0xA22CB465 EQ PUSH2 0x3D8 JUMPI DUP1 PUSH4 0xB88D4FDE EQ PUSH2 0x3EB JUMPI DUP1 PUSH4 0xC87B56DD EQ PUSH2 0x3FE JUMPI DUP1 PUSH4 0xCA15C873 EQ PUSH2 0x411 JUMPI PUSH1 0x0 DUP1 REVERT JUMPDEST DUP1 PUSH4 0x9010D07C GT PUSH2 0xE9 JUMPI DUP1 PUSH4 0x9010D07C EQ PUSH2 0x3A2 JUMPI DUP1 PUSH4 0x91D14854 EQ PUSH2 0x3B5 JUMPI DUP1 PUSH4 0x95D89B41 EQ PUSH2 0x3C8 JUMPI DUP1 PUSH4 0xA217FDDF EQ PUSH2 0x3D0 JUMPI PUSH1 0x0 DUP1 REVERT JUMPDEST DUP1 PUSH4 0x5C975ABB EQ PUSH2 0x369 JUMPI DUP1 PUSH4 0x6352211E EQ PUSH2 0x374 JUMPI DUP1 PUSH4 0x70A08231 EQ PUSH2 0x387 JUMPI DUP1 PUSH4 0x8456CB59 EQ PUSH2 0x39A JUMPI PUSH1 0x0 DUP1 REVERT JUMPDEST DUP1 PUSH4 0x27DA435E GT PUSH2 0x192 JUMPI DUP1 PUSH4 0x3F4BA83A GT PUSH2 0x161 JUMPI DUP1 PUSH4 0x3F4BA83A EQ PUSH2 0x328 JUMPI DUP1 PUSH4 0x42842E0E EQ PUSH2 0x330 JUMPI DUP1 PUSH4 0x42966C68 EQ PUSH2 0x343 JUMPI DUP1 PUSH4 0x4F6CCCE7 EQ PUSH2 0x356 JUMPI PUSH1 0x0 DUP1 REVERT JUMPDEST DUP1 PUSH4 0x27DA435E EQ PUSH2 0x2DC JUMPI DUP1 PUSH4 0x2F2FF15D EQ PUSH2 0x2EF JUMPI DUP1 PUSH4 0x2F745C59 EQ PUSH2 0x302 JUMPI DUP1 PUSH4 0x36568ABE EQ PUSH2 0x315 JUMPI PUSH1 0x0 DUP1 REVERT JUMPDEST DUP1 PUSH4 0x95EA7B3 GT PUSH2 0x1CE JUMPI DUP1 PUSH4 0x95EA7B3 EQ PUSH2 0x288 JUMPI DUP1 PUSH4 0x18160DDD EQ PUSH2 0x29D JUMPI DUP1 PUSH4 0x23B872DD EQ PUSH2 0x2A5 JUMPI DUP1 PUSH4 0x248A9CA3 EQ PUSH2 0x2B8 JUMPI PUSH1 0x0 DUP1 REVERT JUMPDEST DUP1 PUSH3 0x923F9E EQ PUSH2 0x1FF JUMPI DUP1 PUSH4 0x1FFC9A7 EQ PUSH2 0x225 JUMPI DUP1 PUSH4 0x6FDDE03 EQ PUSH2 0x248 JUMPI DUP1 PUSH4 0x81812FC EQ PUSH2 0x25D JUMPI JUMPDEST PUSH1 0x0 DUP1 REVERT JUMPDEST PUSH2 0x212 PUSH2 0x20D CALLDATASIZE PUSH1 0x4 PUSH2 0x22F0 JUMP JUMPDEST PUSH2 0x4E8 JUMP JUMPDEST PUSH1 0x40 MLOAD SWAP1 DUP2 MSTORE PUSH1 0x20 ADD JUMPDEST PUSH1 0x40 MLOAD DUP1 SWAP2 SUB SWAP1 RETURN JUMPDEST PUSH2 0x238 PUSH2 0x233 CALLDATASIZE PUSH1 0x4 PUSH2 0x231F JUMP JUMPDEST PUSH2 0x50D JUMP JUMPDEST PUSH1 0x40 MLOAD SWAP1 ISZERO ISZERO DUP2 MSTORE PUSH1 0x20 ADD PUSH2 0x21C JUMP JUMPDEST PUSH2 0x250 PUSH2 0x51E JUMP JUMPDEST PUSH1 0x40 MLOAD PUSH2 0x21C SWAP2 SWAP1 PUSH2 0x2394 JUMP JUMPDEST PUSH2 0x270 PUSH2 0x26B CALLDATASIZE PUSH1 0x4 PUSH2 0x22F0 JUMP JUMPDEST PUSH2 0x5B0 JUMP JUMPDEST PUSH1 0x40 MLOAD PUSH1 0x1 PUSH1 0x1 PUSH1 0xA0 SHL SUB SWAP1 SWAP2 AND DUP2 MSTORE PUSH1 0x20 ADD PUSH2 0x21C JUMP JUMPDEST PUSH2 0x29B PUSH2 0x296 CALLDATASIZE PUSH1 0x4 PUSH2 0x23BE JUMP JUMPDEST PUSH2 0x63D JUMP JUMPDEST STOP JUMPDEST PUSH1 0xB SLOAD PUSH2 0x212 JUMP JUMPDEST PUSH2 0x29B PUSH2 0x2B3 CALLDATASIZE PUSH1 0x4 PUSH2 0x23E8 JUMP JUMPDEST PUSH2 0x753 JUMP JUMPDEST PUSH2 0x212 PUSH2 0x2C6 CALLDATASIZE PUSH1 0x4 PUSH2 0x22F0 JUMP JUMPDEST PUSH1 0x0 SWAP1 DUP2 MSTORE PUSH1 0x1 PUSH1 0x20 DUP2 SWAP1 MSTORE PUSH1 0x40 SWAP1 SWAP2 KECCAK256 ADD SLOAD SWAP1 JUMP JUMPDEST PUSH2 0x212 PUSH2 0x2EA CALLDATASIZE PUSH1 0x4 PUSH2 0x2424 JUMP JUMPDEST PUSH2 0x785 JUMP JUMPDEST PUSH2 0x29B PUSH2 0x2FD CALLDATASIZE PUSH1 0x4 PUSH2 0x24AB JUMP JUMPDEST PUSH2 0x8B7 JUMP JUMPDEST PUSH2 0x212 PUSH2 0x310 CALLDATASIZE PUSH1 0x4 PUSH2 0x23BE JUMP JUMPDEST PUSH2 0x8D9 JUMP JUMPDEST PUSH2 0x29B PUSH2 0x323 CALLDATASIZE PUSH1 0x4 PUSH2 0x24AB JUMP JUMPDEST PUSH2 0x96F JUMP JUMPDEST PUSH2 0x29B PUSH2 0x991 JUMP JUMPDEST PUSH2 0x29B PUSH2 0x33E CALLDATASIZE PUSH1 0x4 PUSH2 0x23E8 JUMP JUMPDEST PUSH2 0xA11 JUMP JUMPDEST PUSH2 0x29B PUSH2 0x351 CALLDATASIZE PUSH1 0x4 PUSH2 0x22F0 JUMP JUMPDEST PUSH2 0xA2C JUMP JUMPDEST PUSH2 0x212 PUSH2 0x364 CALLDATASIZE PUSH1 0x4 PUSH2 0x22F0 JUMP JUMPDEST PUSH2 0xAA6 JUMP JUMPDEST PUSH1 0xD SLOAD PUSH1 0xFF AND PUSH2 0x238 JUMP JUMPDEST PUSH2 0x270 PUSH2 0x382 CALLDATASIZE PUSH1 0x4 PUSH2 0x22F0 JUMP JUMPDEST PUSH2 0xB39 JUMP JUMPDEST PUSH2 0x212 PUSH2 0x395 CALLDATASIZE PUSH1 0x4 PUSH2 0x24D7 JUMP JUMPDEST PUSH2 0xBB0 JUMP JUMPDEST PUSH2 0x29B PUSH2 0xC37 JUMP JUMPDEST PUSH2 0x270 PUSH2 0x3B0 CALLDATASIZE PUSH1 0x4 PUSH2 0x24F2 JUMP JUMPDEST PUSH2 0xCB5 JUMP JUMPDEST PUSH2 0x238 PUSH2 0x3C3 CALLDATASIZE PUSH1 0x4 PUSH2 0x24AB JUMP JUMPDEST PUSH2 0xCD4 JUMP JUMPDEST PUSH2 0x250 PUSH2 0xCFF JUMP JUMPDEST PUSH2 0x212 PUSH1 0x0 DUP2 JUMP JUMPDEST PUSH2 0x29B PUSH2 0x3E6 CALLDATASIZE PUSH1 0x4 PUSH2 0x2514 JUMP JUMPDEST PUSH2 0xD0E JUMP JUMPDEST PUSH2 0x29B PUSH2 0x3F9 CALLDATASIZE PUSH1 0x4 PUSH2 0x2566 JUMP JUMPDEST PUSH2 0xDD3 JUMP JUMPDEST PUSH2 0x250 PUSH2 0x40C CALLDATASIZE PUSH1 0x4 PUSH2 0x22F0 JUMP JUMPDEST PUSH2 0xE0B JUMP JUMPDEST PUSH2 0x212 PUSH2 0x41F CALLDATASIZE PUSH1 0x4 PUSH2 0x22F0 JUMP JUMPDEST PUSH2 0xF6A JUMP JUMPDEST PUSH2 0x212 PUSH32 0x9F2DF0FED2C77648DE5860A4CC508CD0818C85B8B8A1AB4CEEEF8D981C8956A6 DUP2 JUMP JUMPDEST PUSH2 0x29B PUSH2 0x459 CALLDATASIZE PUSH1 0x4 PUSH2 0x24AB JUMP JUMPDEST PUSH2 0xF81 JUMP JUMPDEST PUSH2 0x212 PUSH32 0x65D7A28E3265B37A6474929F336521B332C1681B933F6CB9F3376673440D862A DUP2 JUMP JUMPDEST PUSH2 0x238 PUSH2 0x493 CALLDATASIZE PUSH1 0x4 PUSH2 0x2642 JUMP JUMPDEST PUSH1 0x1 PUSH1 0x1 PUSH1 0xA0 SHL SUB SWAP2 DUP3 AND PUSH1 0x0 SWAP1 DUP2 MSTORE PUSH1 0x8 PUSH1 0x20 SWAP1 DUP2 MSTORE PUSH1 0x40 DUP1 DUP4 KECCAK256 SWAP4 SWAP1 SWAP5 AND DUP3 MSTORE SWAP2 SWAP1 SWAP2 MSTORE KECCAK256 SLOAD PUSH1 0xFF AND SWAP1 JUMP JUMPDEST PUSH2 0x212 PUSH32 0x3B5D4CC60D3EC3516EE8AE083BD60934F6EB2A6C54B1229985C41BFB092B2603 DUP2 JUMP JUMPDEST PUSH1 0x0 PUSH2 0x4F3 DUP3 PUSH2 0xFAE JUMP JUMPDEST ISZERO PUSH2 0x500 JUMPI POP PUSH1 0xAA SWAP2 SWAP1 POP JUMP JUMPDEST POP PUSH1 0x0 SWAP2 SWAP1 POP JUMP JUMPDEST SWAP2 SWAP1 POP JUMP JUMPDEST PUSH1 0x0 PUSH2 0x518 DUP3 PUSH2 0xFCB JUMP JUMPDEST SWAP3 SWAP2 POP POP JUMP JUMPDEST PUSH1 0x60 PUSH1 0x3 DUP1 SLOAD PUSH2 0x52D SWAP1 PUSH2 0x266C JUMP JUMPDEST DUP1 PUSH1 0x1F ADD PUSH1 0x20 DUP1 SWAP2 DIV MUL PUSH1 0x20 ADD PUSH1 0x40 MLOAD SWAP1 DUP2 ADD PUSH1 0x40 MSTORE DUP1 SWAP3 SWAP2 SWAP1 DUP2 DUP2 MSTORE PUSH1 0x20 ADD DUP3 DUP1 SLOAD PUSH2 0x559 SWAP1 PUSH2 0x266C JUMP JUMPDEST DUP1 ISZERO PUSH2 0x5A6 JUMPI DUP1 PUSH1 0x1F LT PUSH2 0x57B JUMPI PUSH2 0x100 DUP1 DUP4 SLOAD DIV MUL DUP4 MSTORE SWAP2 PUSH1 0x20 ADD SWAP2 PUSH2 0x5A6 JUMP JUMPDEST DUP3 ADD SWAP2 SWAP1 PUSH1 0x0 MSTORE PUSH1 0x20 PUSH1 0x0 KECCAK256 SWAP1 JUMPDEST DUP2 SLOAD DUP2 MSTORE SWAP1 PUSH1 0x1 ADD SWAP1 PUSH1 0x20 ADD DUP1 DUP4 GT PUSH2 0x589 JUMPI DUP3 SWAP1 SUB PUSH1 0x1F AND DUP3 ADD SWAP2 JUMPDEST POP POP POP POP POP SWAP1 POP SWAP1 JUMP JUMPDEST PUSH1 0x0 PUSH2 0x5BB DUP3 PUSH2 0xFAE JUMP JUMPDEST PUSH2 0x621 JUMPI PUSH1 0x40 MLOAD PUSH3 0x461BCD PUSH1 0xE5 SHL DUP2 MSTORE PUSH1 0x20 PUSH1 0x4 DUP3 ADD MSTORE PUSH1 0x2C PUSH1 0x24 DUP3 ADD MSTORE PUSH32 0x4552433732313A20617070726F76656420717565727920666F72206E6F6E6578 PUSH1 0x44 DUP3 ADD MSTORE PUSH12 0x34B9BA32B73A103A37B5B2B7 PUSH1 0xA1 SHL PUSH1 0x64 DUP3 ADD MSTORE PUSH1 0x84 ADD JUMPDEST PUSH1 0x40 MLOAD DUP1 SWAP2 SUB SWAP1 REVERT JUMPDEST POP PUSH1 0x0 SWAP1 DUP2 MSTORE PUSH1 0x7 PUSH1 0x20 MSTORE PUSH1 0x40 SWAP1 KECCAK256 SLOAD PUSH1 0x1 PUSH1 0x1 PUSH1 0xA0 SHL SUB AND SWAP1 JUMP JUMPDEST PUSH1 0x0 PUSH2 0x648 DUP3 PUSH2 0xB39 JUMP JUMPDEST SWAP1 POP DUP1 PUSH1 0x1 PUSH1 0x1 PUSH1 0xA0 SHL SUB AND DUP4 PUSH1 0x1 PUSH1 0x1 PUSH1 0xA0 SHL SUB AND EQ ISZERO PUSH2 0x6B6 JUMPI PUSH1 0x40 MLOAD PUSH3 0x461BCD PUSH1 0xE5 SHL DUP2 MSTORE PUSH1 0x20 PUSH1 0x4 DUP3 ADD MSTORE PUSH1 0x21 PUSH1 0x24 DUP3 ADD MSTORE PUSH32 0x4552433732313A20617070726F76616C20746F2063757272656E74206F776E65 PUSH1 0x44 DUP3 ADD MSTORE PUSH1 0x39 PUSH1 0xF9 SHL PUSH1 0x64 DUP3 ADD MSTORE PUSH1 0x84 ADD PUSH2 0x618 JUMP JUMPDEST CALLER PUSH1 0x1 PUSH1 0x1 PUSH1 0xA0 SHL SUB DUP3 AND EQ DUP1 PUSH2 0x6D2 JUMPI POP PUSH2 0x6D2 DUP2 CALLER PUSH2 0x493 JUMP JUMPDEST PUSH2 0x744 JUMPI PUSH1 0x40 MLOAD PUSH3 0x461BCD PUSH1 0xE5 SHL DUP2 MSTORE PUSH1 0x20 PUSH1 0x4 DUP3 ADD MSTORE PUSH1 0x38 PUSH1 0x24 DUP3 ADD MSTORE PUSH32 0x4552433732313A20617070726F76652063616C6C6572206973206E6F74206F77 PUSH1 0x44 DUP3 ADD MSTORE PUSH32 0x6E6572206E6F7220617070726F76656420666F7220616C6C0000000000000000 PUSH1 0x64 DUP3 ADD MSTORE PUSH1 0x84 ADD PUSH2 0x618 JUMP JUMPDEST PUSH2 0x74E DUP4 DUP4 PUSH2 0xFF0 JUMP JUMPDEST POP POP POP JUMP JUMPDEST PUSH2 0x75E CALLER JUMPDEST DUP3 PUSH2 0x105E JUMP JUMPDEST PUSH2 0x77A JUMPI PUSH1 0x40 MLOAD PUSH3 0x461BCD PUSH1 0xE5 SHL DUP2 MSTORE PUSH1 0x4 ADD PUSH2 0x618 SWAP1 PUSH2 0x26A7 JUMP JUMPDEST PUSH2 0x74E DUP4 DUP4 DUP4 PUSH2 0x1144 JUMP JUMPDEST PUSH1 0x0 PUSH2 0x7B1 PUSH32 0x9F2DF0FED2C77648DE5860A4CC508CD0818C85B8B8A1AB4CEEEF8D981C8956A6 CALLER PUSH2 0xCD4 JUMP JUMPDEST PUSH2 0x808 JUMPI PUSH1 0x40 MLOAD PUSH3 0x461BCD PUSH1 0xE5 SHL DUP2 MSTORE PUSH1 0x20 PUSH1 0x4 DUP3 ADD MSTORE PUSH1 0x22 PUSH1 0x24 DUP3 ADD MSTORE PUSH32 0x41543A4D4F442D494D3A2043616C6C696E67206164647265737320216D696E74 PUSH1 0x44 DUP3 ADD MSTORE PUSH2 0x32B9 PUSH1 0xF1 SHL PUSH1 0x64 DUP3 ADD MSTORE PUSH1 0x84 ADD PUSH2 0x618 JUMP JUMPDEST PUSH1 0x2 PUSH1 0x0 SLOAD EQ ISZERO PUSH2 0x85B JUMPI PUSH1 0x40 MLOAD PUSH3 0x461BCD PUSH1 0xE5 SHL DUP2 MSTORE PUSH1 0x20 PUSH1 0x4 DUP3 ADD MSTORE PUSH1 0x1F PUSH1 0x24 DUP3 ADD MSTORE PUSH32 0x5265656E7472616E637947756172643A207265656E7472616E742063616C6C00 PUSH1 0x44 DUP3 ADD MSTORE PUSH1 0x64 ADD PUSH2 0x618 JUMP JUMPDEST PUSH1 0x2 PUSH1 0x0 SSTORE PUSH2 0x86A DUP6 DUP6 PUSH2 0x12EF JUMP JUMPDEST PUSH2 0x8AA DUP5 DUP5 DUP5 DUP1 DUP1 PUSH1 0x1F ADD PUSH1 0x20 DUP1 SWAP2 DIV MUL PUSH1 0x20 ADD PUSH1 0x40 MLOAD SWAP1 DUP2 ADD PUSH1 0x40 MSTORE DUP1 SWAP4 SWAP3 SWAP2 SWAP1 DUP2 DUP2 MSTORE PUSH1 0x20 ADD DUP4 DUP4 DUP1 DUP3 DUP5 CALLDATACOPY PUSH1 0x0 SWAP3 ADD SWAP2 SWAP1 SWAP2 MSTORE POP PUSH2 0x1309 SWAP3 POP POP POP JUMP JUMPDEST POP POP PUSH1 0x1 PUSH1 0x0 SSTORE POP SWAP2 SWAP1 POP JUMP JUMPDEST PUSH2 0x8C1 DUP3 DUP3 PUSH2 0x1389 JUMP JUMPDEST PUSH1 0x0 DUP3 DUP2 MSTORE PUSH1 0x2 PUSH1 0x20 MSTORE PUSH1 0x40 SWAP1 KECCAK256 PUSH2 0x74E SWAP1 DUP3 PUSH2 0xF99 JUMP JUMPDEST PUSH1 0x0 PUSH2 0x8E4 DUP4 PUSH2 0xBB0 JUMP JUMPDEST DUP3 LT PUSH2 0x946 JUMPI PUSH1 0x40 MLOAD PUSH3 0x461BCD PUSH1 0xE5 SHL DUP2 MSTORE PUSH1 0x20 PUSH1 0x4 DUP3 ADD MSTORE PUSH1 0x2B PUSH1 0x24 DUP3 ADD MSTORE PUSH32 0x455243373231456E756D657261626C653A206F776E657220696E646578206F75 PUSH1 0x44 DUP3 ADD MSTORE PUSH11 0x74206F6620626F756E6473 PUSH1 0xA8 SHL PUSH1 0x64 DUP3 ADD MSTORE PUSH1 0x84 ADD PUSH2 0x618 JUMP JUMPDEST POP PUSH1 0x1 PUSH1 0x1 PUSH1 0xA0 SHL SUB SWAP2 SWAP1 SWAP2 AND PUSH1 0x0 SWAP1 DUP2 MSTORE PUSH1 0x9 PUSH1 0x20 SWAP1 DUP2 MSTORE PUSH1 0x40 DUP1 DUP4 KECCAK256 SWAP4 DUP4 MSTORE SWAP3 SWAP1 MSTORE KECCAK256 SLOAD SWAP1 JUMP JUMPDEST PUSH2 0x979 DUP3 DUP3 PUSH2 0x13B0 JUMP JUMPDEST PUSH1 0x0 DUP3 DUP2 MSTORE PUSH1 0x2 PUSH1 0x20 MSTORE PUSH1 0x40 SWAP1 KECCAK256 PUSH2 0x74E SWAP1 DUP3 PUSH2 0x142A JUMP JUMPDEST PUSH2 0x9BB PUSH32 0x65D7A28E3265B37A6474929F336521B332C1681B933F6CB9F3376673440D862A CALLER PUSH2 0xCD4 JUMP JUMPDEST PUSH2 0xA07 JUMPI PUSH1 0x40 MLOAD PUSH3 0x461BCD PUSH1 0xE5 SHL DUP2 MSTORE PUSH1 0x20 PUSH1 0x4 DUP3 ADD MSTORE PUSH1 0x1F PUSH1 0x24 DUP3 ADD MSTORE PUSH32 0x4E543A55503A2043616C6C65722021686176652070617573657220726F6C6500 PUSH1 0x44 DUP3 ADD MSTORE PUSH1 0x64 ADD PUSH2 0x618 JUMP JUMPDEST PUSH2 0xA0F PUSH2 0x143F JUMP JUMPDEST JUMP JUMPDEST PUSH2 0x74E DUP4 DUP4 DUP4 PUSH1 0x40 MLOAD DUP1 PUSH1 0x20 ADD PUSH1 0x40 MSTORE DUP1 PUSH1 0x0 DUP2 MSTORE POP PUSH2 0xDD3 JUMP JUMPDEST PUSH2 0xA35 CALLER PUSH2 0x758 JUMP JUMPDEST PUSH2 0xA9A JUMPI PUSH1 0x40 MLOAD PUSH3 0x461BCD PUSH1 0xE5 SHL DUP2 MSTORE PUSH1 0x20 PUSH1 0x4 DUP3 ADD MSTORE PUSH1 0x30 PUSH1 0x24 DUP3 ADD MSTORE PUSH32 0x4552433732314275726E61626C653A2063616C6C6572206973206E6F74206F77 PUSH1 0x44 DUP3 ADD MSTORE PUSH16 0x1B995C881B9BDC88185C1C1C9BDD9959 PUSH1 0x82 SHL PUSH1 0x64 DUP3 ADD MSTORE PUSH1 0x84 ADD PUSH2 0x618 JUMP JUMPDEST PUSH2 0xAA3 DUP2 PUSH2 0x14D2 JUMP JUMPDEST POP JUMP JUMPDEST PUSH1 0x0 PUSH2 0xAB1 PUSH1 0xB SLOAD SWAP1 JUMP JUMPDEST DUP3 LT PUSH2 0xB14 JUMPI PUSH1 0x40 MLOAD PUSH3 0x461BCD PUSH1 0xE5 SHL DUP2 MSTORE PUSH1 0x20 PUSH1 0x4 DUP3 ADD MSTORE PUSH1 0x2C PUSH1 0x24 DUP3 ADD MSTORE PUSH32 0x455243373231456E756D657261626C653A20676C6F62616C20696E646578206F PUSH1 0x44 DUP3 ADD MSTORE PUSH12 0x7574206F6620626F756E6473 PUSH1 0xA0 SHL PUSH1 0x64 DUP3 ADD MSTORE PUSH1 0x84 ADD PUSH2 0x618 JUMP JUMPDEST PUSH1 0xB DUP3 DUP2 SLOAD DUP2 LT PUSH2 0xB27 JUMPI PUSH2 0xB27 PUSH2 0x26F8 JUMP JUMPDEST SWAP1 PUSH1 0x0 MSTORE PUSH1 0x20 PUSH1 0x0 KECCAK256 ADD SLOAD SWAP1 POP SWAP2 SWAP1 POP JUMP JUMPDEST PUSH1 0x0 DUP2 DUP2 MSTORE PUSH1 0x5 PUSH1 0x20 MSTORE PUSH1 0x40 DUP2 KECCAK256 SLOAD PUSH1 0x1 PUSH1 0x1 PUSH1 0xA0 SHL SUB AND DUP1 PUSH2 0x518 JUMPI PUSH1 0x40 MLOAD PUSH3 0x461BCD PUSH1 0xE5 SHL DUP2 MSTORE PUSH1 0x20 PUSH1 0x4 DUP3 ADD MSTORE PUSH1 0x29 PUSH1 0x24 DUP3 ADD MSTORE PUSH32 0x4552433732313A206F776E657220717565727920666F72206E6F6E6578697374 PUSH1 0x44 DUP3 ADD MSTORE PUSH9 0x32B73A103A37B5B2B7 PUSH1 0xB9 SHL PUSH1 0x64 DUP3 ADD MSTORE PUSH1 0x84 ADD PUSH2 0x618 JUMP JUMPDEST PUSH1 0x0 PUSH1 0x1 PUSH1 0x1 PUSH1 0xA0 SHL SUB DUP3 AND PUSH2 0xC1B JUMPI PUSH1 0x40 MLOAD PUSH3 0x461BCD PUSH1 0xE5 SHL DUP2 MSTORE PUSH1 0x20 PUSH1 0x4 DUP3 ADD MSTORE PUSH1 0x2A PUSH1 0x24 DUP3 ADD MSTORE PUSH32 0x4552433732313A2062616C616E636520717565727920666F7220746865207A65 PUSH1 0x44 DUP3 ADD MSTORE PUSH10 0x726F2061646472657373 PUSH1 0xB0 SHL PUSH1 0x64 DUP3 ADD MSTORE PUSH1 0x84 ADD PUSH2 0x618 JUMP JUMPDEST POP PUSH1 0x1 PUSH1 0x1 PUSH1 0xA0 SHL SUB AND PUSH1 0x0 SWAP1 DUP2 MSTORE PUSH1 0x6 PUSH1 0x20 MSTORE PUSH1 0x40 SWAP1 KECCAK256 SLOAD SWAP1 JUMP JUMPDEST PUSH2 0xC61 PUSH32 0x65D7A28E3265B37A6474929F336521B332C1681B933F6CB9F3376673440D862A CALLER PUSH2 0xCD4 JUMP JUMPDEST PUSH2 0xCAD JUMPI PUSH1 0x40 MLOAD PUSH3 0x461BCD PUSH1 0xE5 SHL DUP2 MSTORE PUSH1 0x20 PUSH1 0x4 DUP3 ADD MSTORE PUSH1 0x1E PUSH1 0x24 DUP3 ADD MSTORE PUSH32 0x4E543A503A2043616C6C65722021686176652070617573657220726F6C650000 PUSH1 0x44 DUP3 ADD MSTORE PUSH1 0x64 ADD PUSH2 0x618 JUMP JUMPDEST PUSH2 0xA0F PUSH2 0x1579 JUMP JUMPDEST PUSH1 0x0 DUP3 DUP2 MSTORE PUSH1 0x2 PUSH1 0x20 MSTORE PUSH1 0x40 DUP2 KECCAK256 PUSH2 0xCCD SWAP1 DUP4 PUSH2 0x15F4 JUMP JUMPDEST SWAP4 SWAP3 POP POP POP JUMP JUMPDEST PUSH1 0x0 SWAP2 DUP3 MSTORE PUSH1 0x1 PUSH1 0x20 SWAP1 DUP2 MSTORE PUSH1 0x40 DUP1 DUP5 KECCAK256 PUSH1 0x1 PUSH1 0x1 PUSH1 0xA0 SHL SUB SWAP4 SWAP1 SWAP4 AND DUP5 MSTORE SWAP2 SWAP1 MSTORE SWAP1 KECCAK256 SLOAD PUSH1 0xFF AND SWAP1 JUMP JUMPDEST PUSH1 0x60 PUSH1 0x4 DUP1 SLOAD PUSH2 0x52D SWAP1 PUSH2 0x266C JUMP JUMPDEST PUSH1 0x1 PUSH1 0x1 PUSH1 0xA0 SHL SUB DUP3 AND CALLER EQ ISZERO PUSH2 0xD67 JUMPI PUSH1 0x40 MLOAD PUSH3 0x461BCD PUSH1 0xE5 SHL DUP2 MSTORE PUSH1 0x20 PUSH1 0x4 DUP3 ADD MSTORE PUSH1 0x19 PUSH1 0x24 DUP3 ADD MSTORE PUSH32 0x4552433732313A20617070726F766520746F2063616C6C657200000000000000 PUSH1 0x44 DUP3 ADD MSTORE PUSH1 0x64 ADD PUSH2 0x618 JUMP JUMPDEST CALLER PUSH1 0x0 DUP2 DUP2 MSTORE PUSH1 0x8 PUSH1 0x20 SWAP1 DUP2 MSTORE PUSH1 0x40 DUP1 DUP4 KECCAK256 PUSH1 0x1 PUSH1 0x1 PUSH1 0xA0 SHL SUB DUP8 AND DUP1 DUP6 MSTORE SWAP1 DUP4 MSTORE SWAP3 DUP2 SWAP1 KECCAK256 DUP1 SLOAD PUSH1 0xFF NOT AND DUP7 ISZERO ISZERO SWAP1 DUP2 OR SWAP1 SWAP2 SSTORE SWAP1 MLOAD SWAP1 DUP2 MSTORE SWAP2 SWAP3 SWAP2 PUSH32 0x17307EAB39AB6107E8899845AD3D59BD9653F200F220920489CA2B5937696C31 SWAP2 ADD PUSH1 0x40 MLOAD DUP1 SWAP2 SUB SWAP1 LOG3 POP POP JUMP JUMPDEST PUSH2 0xDDD CALLER DUP4 PUSH2 0x105E JUMP JUMPDEST PUSH2 0xDF9 JUMPI PUSH1 0x40 MLOAD PUSH3 0x461BCD PUSH1 0xE5 SHL DUP2 MSTORE PUSH1 0x4 ADD PUSH2 0x618 SWAP1 PUSH2 0x26A7 JUMP JUMPDEST PUSH2 0xE05 DUP5 DUP5 DUP5 DUP5 PUSH2 0x1600 JUMP JUMPDEST POP POP POP POP JUMP JUMPDEST PUSH1 0x60 PUSH2 0xE16 DUP3 PUSH2 0xFAE JUMP JUMPDEST PUSH2 0xE71 JUMPI PUSH1 0x40 MLOAD PUSH3 0x461BCD PUSH1 0xE5 SHL DUP2 MSTORE PUSH1 0x20 PUSH1 0x4 DUP3 ADD MSTORE PUSH1 0x26 PUSH1 0x24 DUP3 ADD MSTORE PUSH32 0x4E543A54553A2055524920717565727920666F72206E6F6E6578697374656E74 PUSH1 0x44 DUP3 ADD MSTORE PUSH6 0x103A37B5B2B7 PUSH1 0xD1 SHL PUSH1 0x64 DUP3 ADD MSTORE PUSH1 0x84 ADD PUSH2 0x618 JUMP JUMPDEST PUSH1 0x0 DUP3 DUP2 MSTORE PUSH1 0xE PUSH1 0x20 MSTORE PUSH1 0x40 DUP2 KECCAK256 DUP1 SLOAD PUSH2 0xE8A SWAP1 PUSH2 0x266C JUMP JUMPDEST DUP1 PUSH1 0x1F ADD PUSH1 0x20 DUP1 SWAP2 DIV MUL PUSH1 0x20 ADD PUSH1 0x40 MLOAD SWAP1 DUP2 ADD PUSH1 0x40 MSTORE DUP1 SWAP3 SWAP2 SWAP1 DUP2 DUP2 MSTORE PUSH1 0x20 ADD DUP3 DUP1 SLOAD PUSH2 0xEB6 SWAP1 PUSH2 0x266C JUMP JUMPDEST DUP1 ISZERO PUSH2 0xF03 JUMPI DUP1 PUSH1 0x1F LT PUSH2 0xED8 JUMPI PUSH2 0x100 DUP1 DUP4 SLOAD DIV MUL DUP4 MSTORE SWAP2 PUSH1 0x20 ADD SWAP2 PUSH2 0xF03 JUMP JUMPDEST DUP3 ADD SWAP2 SWAP1 PUSH1 0x0 MSTORE PUSH1 0x20 PUSH1 0x0 KECCAK256 SWAP1 JUMPDEST DUP2 SLOAD DUP2 MSTORE SWAP1 PUSH1 0x1 ADD SWAP1 PUSH1 0x20 ADD DUP1 DUP4 GT PUSH2 0xEE6 JUMPI DUP3 SWAP1 SUB PUSH1 0x1F AND DUP3 ADD SWAP2 JUMPDEST POP POP POP POP POP SWAP1 POP PUSH1 0x0 PUSH2 0xF14 PUSH2 0x1633 JUMP JUMPDEST SWAP1 POP DUP1 MLOAD PUSH1 0x0 EQ ISZERO PUSH2 0xF27 JUMPI POP SWAP3 SWAP2 POP POP JUMP JUMPDEST DUP2 MLOAD ISZERO PUSH2 0xF59 JUMPI DUP1 DUP3 PUSH1 0x40 MLOAD PUSH1 0x20 ADD PUSH2 0xF41 SWAP3 SWAP2 SWAP1 PUSH2 0x270E JUMP JUMPDEST PUSH1 0x40 MLOAD PUSH1 0x20 DUP2 DUP4 SUB SUB DUP2 MSTORE SWAP1 PUSH1 0x40 MSTORE SWAP3 POP POP POP SWAP2 SWAP1 POP JUMP JUMPDEST PUSH2 0xF62 DUP5 PUSH2 0x1642 JUMP JUMPDEST SWAP5 SWAP4 POP POP POP POP JUMP JUMPDEST PUSH1 0x0 DUP2 DUP2 MSTORE PUSH1 0x2 PUSH1 0x20 MSTORE PUSH1 0x40 DUP2 KECCAK256 PUSH2 0x518 SWAP1 PUSH2 0x170C JUMP JUMPDEST PUSH2 0x979 DUP3 DUP3 PUSH2 0x1716 JUMP JUMPDEST PUSH2 0xF95 DUP3 DUP3 PUSH2 0x173D JUMP JUMPDEST POP POP JUMP JUMPDEST PUSH1 0x0 PUSH2 0xCCD DUP4 PUSH1 0x1 PUSH1 0x1 PUSH1 0xA0 SHL SUB DUP5 AND PUSH2 0x17A8 JUMP JUMPDEST PUSH1 0x0 SWAP1 DUP2 MSTORE PUSH1 0x5 PUSH1 0x20 MSTORE PUSH1 0x40 SWAP1 KECCAK256 SLOAD PUSH1 0x1 PUSH1 0x1 PUSH1 0xA0 SHL SUB AND ISZERO ISZERO SWAP1 JUMP JUMPDEST PUSH1 0x0 PUSH1 0x1 PUSH1 0x1 PUSH1 0xE0 SHL SUB NOT DUP3 AND PUSH4 0x780E9D63 PUSH1 0xE0 SHL EQ DUP1 PUSH2 0x518 JUMPI POP PUSH2 0x518 DUP3 PUSH2 0x17F7 JUMP JUMPDEST PUSH1 0x0 DUP2 DUP2 MSTORE PUSH1 0x7 PUSH1 0x20 MSTORE PUSH1 0x40 SWAP1 KECCAK256 DUP1 SLOAD PUSH1 0x1 PUSH1 0x1 PUSH1 0xA0 SHL SUB NOT AND PUSH1 0x1 PUSH1 0x1 PUSH1 0xA0 SHL SUB DUP5 AND SWAP1 DUP2 OR SWAP1 SWAP2 SSTORE DUP2 SWAP1 PUSH2 0x1025 DUP3 PUSH2 0xB39 JUMP JUMPDEST PUSH1 0x1 PUSH1 0x1 PUSH1 0xA0 SHL SUB AND PUSH32 0x8C5BE1E5EBEC7D5BD14F71427D1E84F3DD0314C0F7B2291E5B200AC8C7C3B925 PUSH1 0x40 MLOAD PUSH1 0x40 MLOAD DUP1 SWAP2 SUB SWAP1 LOG4 POP POP JUMP JUMPDEST PUSH1 0x0 PUSH2 0x1069 DUP3 PUSH2 0xFAE JUMP JUMPDEST PUSH2 0x10CA JUMPI PUSH1 0x40 MLOAD PUSH3 0x461BCD PUSH1 0xE5 SHL DUP2 MSTORE PUSH1 0x20 PUSH1 0x4 DUP3 ADD MSTORE PUSH1 0x2C PUSH1 0x24 DUP3 ADD MSTORE PUSH32 0x4552433732313A206F70657261746F7220717565727920666F72206E6F6E6578 PUSH1 0x44 DUP3 ADD MSTORE PUSH12 0x34B9BA32B73A103A37B5B2B7 PUSH1 0xA1 SHL PUSH1 0x64 DUP3 ADD MSTORE PUSH1 0x84 ADD PUSH2 0x618 JUMP JUMPDEST PUSH1 0x0 PUSH2 0x10D5 DUP4 PUSH2 0xB39 JUMP JUMPDEST SWAP1 POP DUP1 PUSH1 0x1 PUSH1 0x1 PUSH1 0xA0 SHL SUB AND DUP5 PUSH1 0x1 PUSH1 0x1 PUSH1 0xA0 SHL SUB AND EQ DUP1 PUSH2 0x1110 JUMPI POP DUP4 PUSH1 0x1 PUSH1 0x1 PUSH1 0xA0 SHL SUB AND PUSH2 0x1105 DUP5 PUSH2 0x5B0 JUMP JUMPDEST PUSH1 0x1 PUSH1 0x1 PUSH1 0xA0 SHL SUB AND EQ JUMPDEST DUP1 PUSH2 0xF62 JUMPI POP PUSH1 0x1 PUSH1 0x1 PUSH1 0xA0 SHL SUB DUP1 DUP3 AND PUSH1 0x0 SWAP1 DUP2 MSTORE PUSH1 0x8 PUSH1 0x20 SWAP1 DUP2 MSTORE PUSH1 0x40 DUP1 DUP4 KECCAK256 SWAP4 DUP9 AND DUP4 MSTORE SWAP3 SWAP1 MSTORE KECCAK256 SLOAD PUSH1 0xFF AND PUSH2 0xF62 JUMP JUMPDEST DUP3 PUSH1 0x1 PUSH1 0x1 PUSH1 0xA0 SHL SUB AND PUSH2 0x1157 DUP3 PUSH2 0xB39 JUMP JUMPDEST PUSH1 0x1 PUSH1 0x1 PUSH1 0xA0 SHL SUB AND EQ PUSH2 0x11BF JUMPI PUSH1 0x40 MLOAD PUSH3 0x461BCD PUSH1 0xE5 SHL DUP2 MSTORE PUSH1 0x20 PUSH1 0x4 DUP3 ADD MSTORE PUSH1 0x29 PUSH1 0x24 DUP3 ADD MSTORE PUSH32 0x4552433732313A207472616E73666572206F6620746F6B656E20746861742069 PUSH1 0x44 DUP3 ADD MSTORE PUSH9 0x39903737BA1037BBB7 PUSH1 0xB9 SHL PUSH1 0x64 DUP3 ADD MSTORE PUSH1 0x84 ADD PUSH2 0x618 JUMP JUMPDEST PUSH1 0x1 PUSH1 0x1 PUSH1 0xA0 SHL SUB DUP3 AND PUSH2 0x1221 JUMPI PUSH1 0x40 MLOAD PUSH3 0x461BCD PUSH1 0xE5 SHL DUP2 MSTORE PUSH1 0x20 PUSH1 0x4 DUP3 ADD MSTORE PUSH1 0x24 DUP1 DUP3 ADD MSTORE PUSH32 0x4552433732313A207472616E7366657220746F20746865207A65726F20616464 PUSH1 0x44 DUP3 ADD MSTORE PUSH4 0x72657373 PUSH1 0xE0 SHL PUSH1 0x64 DUP3 ADD MSTORE PUSH1 0x84 ADD PUSH2 0x618 JUMP JUMPDEST PUSH2 0x122C DUP4 DUP4 DUP4 PUSH2 0x1837 JUMP JUMPDEST PUSH2 0x1237 PUSH1 0x0 DUP3 PUSH2 0xFF0 JUMP JUMPDEST PUSH1 0x1 PUSH1 0x1 PUSH1 0xA0 SHL SUB DUP4 AND PUSH1 0x0 SWAP1 DUP2 MSTORE PUSH1 0x6 PUSH1 0x20 MSTORE PUSH1 0x40 DUP2 KECCAK256 DUP1 SLOAD PUSH1 0x1 SWAP3 SWAP1 PUSH2 0x1260 SWAP1 DUP5 SWAP1 PUSH2 0x2753 JUMP JUMPDEST SWAP1 SWAP2 SSTORE POP POP PUSH1 0x1 PUSH1 0x1 PUSH1 0xA0 SHL SUB DUP3 AND PUSH1 0x0 SWAP1 DUP2 MSTORE PUSH1 0x6 PUSH1 0x20 MSTORE PUSH1 0x40 DUP2 KECCAK256 DUP1 SLOAD PUSH1 0x1 SWAP3 SWAP1 PUSH2 0x128E SWAP1 DUP5 SWAP1 PUSH2 0x276A JUMP JUMPDEST SWAP1 SWAP2 SSTORE POP POP PUSH1 0x0 DUP2 DUP2 MSTORE PUSH1 0x5 PUSH1 0x20 MSTORE PUSH1 0x40 DUP1 DUP3 KECCAK256 DUP1 SLOAD PUSH1 0x1 PUSH1 0x1 PUSH1 0xA0 SHL SUB NOT AND PUSH1 0x1 PUSH1 0x1 PUSH1 0xA0 SHL SUB DUP7 DUP2 AND SWAP2 DUP3 OR SWAP1 SWAP3 SSTORE SWAP2 MLOAD DUP5 SWAP4 SWAP2 DUP8 AND SWAP2 PUSH32 0xDDF252AD1BE2C89B69C2B068FC378DAA952BA7F163C4A11628F55A4DF523B3EF SWAP2 LOG4 POP POP POP JUMP JUMPDEST PUSH2 0xF95 DUP3 DUP3 PUSH1 0x40 MLOAD DUP1 PUSH1 0x20 ADD PUSH1 0x40 MSTORE DUP1 PUSH1 0x0 DUP2 MSTORE POP PUSH2 0x1842 JUMP JUMPDEST PUSH2 0x1312 DUP3 PUSH2 0xFAE JUMP JUMPDEST PUSH2 0x136A JUMPI PUSH1 0x40 MLOAD PUSH3 0x461BCD PUSH1 0xE5 SHL DUP2 MSTORE PUSH1 0x20 PUSH1 0x4 DUP3 ADD MSTORE PUSH1 0x24 DUP1 DUP3 ADD MSTORE PUSH32 0x4E543A5354553A2055524920736574206F66206E6F6E6578697374656E742074 PUSH1 0x44 DUP3 ADD MSTORE PUSH4 0x37B5B2B7 PUSH1 0xE1 SHL PUSH1 0x64 DUP3 ADD MSTORE PUSH1 0x84 ADD PUSH2 0x618 JUMP JUMPDEST PUSH1 0x0 DUP3 DUP2 MSTORE PUSH1 0xE PUSH1 0x20 SWAP1 DUP2 MSTORE PUSH1 0x40 SWAP1 SWAP2 KECCAK256 DUP3 MLOAD PUSH2 0x74E SWAP3 DUP5 ADD SWAP1 PUSH2 0x2257 JUMP JUMPDEST PUSH1 0x0 DUP3 DUP2 MSTORE PUSH1 0x1 PUSH1 0x20 DUP2 SWAP1 MSTORE PUSH1 0x40 SWAP1 SWAP2 KECCAK256 ADD SLOAD PUSH2 0x13A6 DUP2 CALLER PUSH2 0x1875 JUMP JUMPDEST PUSH2 0x74E DUP4 DUP4 PUSH2 0x173D JUMP JUMPDEST PUSH1 0x1 PUSH1 0x1 PUSH1 0xA0 SHL SUB DUP2 AND CALLER EQ PUSH2 0x1420 JUMPI PUSH1 0x40 MLOAD PUSH3 0x461BCD PUSH1 0xE5 SHL DUP2 MSTORE PUSH1 0x20 PUSH1 0x4 DUP3 ADD MSTORE PUSH1 0x2F PUSH1 0x24 DUP3 ADD MSTORE PUSH32 0x416363657373436F6E74726F6C3A2063616E206F6E6C792072656E6F756E6365 PUSH1 0x44 DUP3 ADD MSTORE PUSH15 0x103937B632B9903337B91039B2B633 PUSH1 0x89 SHL PUSH1 0x64 DUP3 ADD MSTORE PUSH1 0x84 ADD PUSH2 0x618 JUMP JUMPDEST PUSH2 0xF95 DUP3 DUP3 PUSH2 0x18D9 JUMP JUMPDEST PUSH1 0x0 PUSH2 0xCCD DUP4 PUSH1 0x1 PUSH1 0x1 PUSH1 0xA0 SHL SUB DUP5 AND PUSH2 0x1940 JUMP JUMPDEST PUSH1 0xD SLOAD PUSH1 0xFF AND PUSH2 0x1488 JUMPI PUSH1 0x40 MLOAD PUSH3 0x461BCD PUSH1 0xE5 SHL DUP2 MSTORE PUSH1 0x20 PUSH1 0x4 DUP3 ADD MSTORE PUSH1 0x14 PUSH1 0x24 DUP3 ADD MSTORE PUSH20 0x14185D5CD8589B194E881B9BDD081C185D5CD959 PUSH1 0x62 SHL PUSH1 0x44 DUP3 ADD MSTORE PUSH1 0x64 ADD PUSH2 0x618 JUMP JUMPDEST PUSH1 0xD DUP1 SLOAD PUSH1 0xFF NOT AND SWAP1 SSTORE PUSH32 0x5DB9EE0A495BF2E6FF9C91A7834C1BA4FDD244A5E8AA4E537BD38AEAE4B073AA CALLER JUMPDEST PUSH1 0x40 MLOAD PUSH1 0x1 PUSH1 0x1 PUSH1 0xA0 SHL SUB SWAP1 SWAP2 AND DUP2 MSTORE PUSH1 0x20 ADD PUSH1 0x40 MLOAD DUP1 SWAP2 SUB SWAP1 LOG1 JUMP JUMPDEST PUSH1 0x0 PUSH2 0x14DD DUP3 PUSH2 0xB39 JUMP JUMPDEST SWAP1 POP PUSH2 0x14EB DUP2 PUSH1 0x0 DUP5 PUSH2 0x1837 JUMP JUMPDEST PUSH2 0x14F6 PUSH1 0x0 DUP4 PUSH2 0xFF0 JUMP JUMPDEST PUSH1 0x1 PUSH1 0x1 PUSH1 0xA0 SHL SUB DUP2 AND PUSH1 0x0 SWAP1 DUP2 MSTORE PUSH1 0x6 PUSH1 0x20 MSTORE PUSH1 0x40 DUP2 KECCAK256 DUP1 SLOAD PUSH1 0x1 SWAP3 SWAP1 PUSH2 0x151F SWAP1 DUP5 SWAP1 PUSH2 0x2753 JUMP JUMPDEST SWAP1 SWAP2 SSTORE POP POP PUSH1 0x0 DUP3 DUP2 MSTORE PUSH1 0x5 PUSH1 0x20 MSTORE PUSH1 0x40 DUP1 DUP3 KECCAK256 DUP1 SLOAD PUSH1 0x1 PUSH1 0x1 PUSH1 0xA0 SHL SUB NOT AND SWAP1 SSTORE MLOAD DUP4 SWAP2 SWAP1 PUSH1 0x1 PUSH1 0x1 PUSH1 0xA0 SHL SUB DUP5 AND SWAP1 PUSH32 0xDDF252AD1BE2C89B69C2B068FC378DAA952BA7F163C4A11628F55A4DF523B3EF SWAP1 DUP4 SWAP1 LOG4 POP POP JUMP JUMPDEST PUSH1 0xD SLOAD PUSH1 0xFF AND ISZERO PUSH2 0x15BF JUMPI PUSH1 0x40 MLOAD PUSH3 0x461BCD PUSH1 0xE5 SHL DUP2 MSTORE PUSH1 0x20 PUSH1 0x4 DUP3 ADD MSTORE PUSH1 0x10 PUSH1 0x24 DUP3 ADD MSTORE PUSH16 0x14185D5CD8589B194E881C185D5CD959 PUSH1 0x82 SHL PUSH1 0x44 DUP3 ADD MSTORE PUSH1 0x64 ADD PUSH2 0x618 JUMP JUMPDEST PUSH1 0xD DUP1 SLOAD PUSH1 0xFF NOT AND PUSH1 0x1 OR SWAP1 SSTORE PUSH32 0x62E78CEA01BEE320CD4E420270B5EA74000D11B0C9F74754EBDBFC544B05A258 PUSH2 0x14B5 CALLER SWAP1 JUMP JUMPDEST PUSH1 0x0 PUSH2 0xCCD DUP4 DUP4 PUSH2 0x1A33 JUMP JUMPDEST PUSH2 0x160B DUP5 DUP5 DUP5 PUSH2 0x1144 JUMP JUMPDEST PUSH2 0x1617 DUP5 DUP5 DUP5 DUP5 PUSH2 0x1A5D JUMP JUMPDEST PUSH2 0xE05 JUMPI PUSH1 0x40 MLOAD PUSH3 0x461BCD PUSH1 0xE5 SHL DUP2 MSTORE PUSH1 0x4 ADD PUSH2 0x618 SWAP1 PUSH2 0x2782 JUMP JUMPDEST PUSH1 0x60 PUSH1 0x10 DUP1 SLOAD PUSH2 0x52D SWAP1 PUSH2 0x266C JUMP JUMPDEST PUSH1 0x60 PUSH2 0x164D DUP3 PUSH2 0xFAE JUMP JUMPDEST PUSH2 0x16B1 JUMPI PUSH1 0x40 MLOAD PUSH3 0x461BCD PUSH1 0xE5 SHL DUP2 MSTORE PUSH1 0x20 PUSH1 0x4 DUP3 ADD MSTORE PUSH1 0x2F PUSH1 0x24 DUP3 ADD MSTORE PUSH32 0x4552433732314D657461646174613A2055524920717565727920666F72206E6F PUSH1 0x44 DUP3 ADD MSTORE PUSH15 0x3732BC34B9BA32B73A103A37B5B2B7 PUSH1 0x89 SHL PUSH1 0x64 DUP3 ADD MSTORE PUSH1 0x84 ADD PUSH2 0x618 JUMP JUMPDEST PUSH1 0x0 PUSH2 0x16BB PUSH2 0x1633 JUMP JUMPDEST SWAP1 POP PUSH1 0x0 DUP2 MLOAD GT PUSH2 0x16DB JUMPI PUSH1 0x40 MLOAD DUP1 PUSH1 0x20 ADD PUSH1 0x40 MSTORE DUP1 PUSH1 0x0 DUP2 MSTORE POP PUSH2 0xCCD JUMP JUMPDEST DUP1 PUSH2 0x16E5 DUP5 PUSH2 0x1B6A JUMP JUMPDEST PUSH1 0x40 MLOAD PUSH1 0x20 ADD PUSH2 0x16F6 SWAP3 SWAP2 SWAP1 PUSH2 0x270E JUMP JUMPDEST PUSH1 0x40 MLOAD PUSH1 0x20 DUP2 DUP4 SUB SUB DUP2 MSTORE SWAP1 PUSH1 0x40 MSTORE SWAP4 SWAP3 POP POP POP JUMP JUMPDEST PUSH1 0x0 PUSH2 0x518 DUP3 SLOAD SWAP1 JUMP JUMPDEST PUSH1 0x0 DUP3 DUP2 MSTORE PUSH1 0x1 PUSH1 0x20 DUP2 SWAP1 MSTORE PUSH1 0x40 SWAP1 SWAP2 KECCAK256 ADD SLOAD PUSH2 0x1733 DUP2 CALLER PUSH2 0x1875 JUMP JUMPDEST PUSH2 0x74E DUP4 DUP4 PUSH2 0x18D9 JUMP JUMPDEST PUSH2 0x1747 DUP3 DUP3 PUSH2 0xCD4 JUMP JUMPDEST PUSH2 0xF95 JUMPI PUSH1 0x0 DUP3 DUP2 MSTORE PUSH1 0x1 PUSH1 0x20 DUP2 DUP2 MSTORE PUSH1 0x40 DUP1 DUP5 KECCAK256 PUSH1 0x1 PUSH1 0x1 PUSH1 0xA0 SHL SUB DUP7 AND DUP1 DUP7 MSTORE SWAP3 MSTORE DUP1 DUP5 KECCAK256 DUP1 SLOAD PUSH1 0xFF NOT AND SWAP1 SWAP4 OR SWAP1 SWAP3 SSTORE SWAP1 MLOAD CALLER SWAP3 DUP6 SWAP2 PUSH32 0x2F8788117E7EFF1D82E926EC794901D17C78024A50270940304540A733656F0D SWAP2 SWAP1 LOG4 POP POP JUMP JUMPDEST PUSH1 0x0 DUP2 DUP2 MSTORE PUSH1 0x1 DUP4 ADD PUSH1 0x20 MSTORE PUSH1 0x40 DUP2 KECCAK256 SLOAD PUSH2 0x17EF JUMPI POP DUP2 SLOAD PUSH1 0x1 DUP2 DUP2 ADD DUP5 SSTORE PUSH1 0x0 DUP5 DUP2 MSTORE PUSH1 0x20 DUP1 DUP3 KECCAK256 SWAP1 SWAP4 ADD DUP5 SWAP1 SSTORE DUP5 SLOAD DUP5 DUP3 MSTORE DUP3 DUP7 ADD SWAP1 SWAP4 MSTORE PUSH1 0x40 SWAP1 KECCAK256 SWAP2 SWAP1 SWAP2 SSTORE PUSH2 0x518 JUMP JUMPDEST POP PUSH1 0x0 PUSH2 0x518 JUMP JUMPDEST PUSH1 0x0 PUSH1 0x1 PUSH1 0x1 PUSH1 0xE0 SHL SUB NOT DUP3 AND PUSH4 0x80AC58CD PUSH1 0xE0 SHL EQ DUP1 PUSH2 0x1828 JUMPI POP PUSH1 0x1 PUSH1 0x1 PUSH1 0xE0 SHL SUB NOT DUP3 AND PUSH4 0x5B5E139F PUSH1 0xE0 SHL EQ JUMPDEST DUP1 PUSH2 0x518 JUMPI POP PUSH2 0x518 DUP3 PUSH2 0x1C68 JUMP JUMPDEST PUSH2 0x74E DUP4 DUP4 DUP4 PUSH2 0x1C8D JUMP JUMPDEST PUSH2 0x184C DUP4 DUP4 PUSH2 0x1CFF JUMP JUMPDEST PUSH2 0x1859 PUSH1 0x0 DUP5 DUP5 DUP5 PUSH2 0x1A5D JUMP JUMPDEST PUSH2 0x74E JUMPI PUSH1 0x40 MLOAD PUSH3 0x461BCD PUSH1 0xE5 SHL DUP2 MSTORE PUSH1 0x4 ADD PUSH2 0x618 SWAP1 PUSH2 0x2782 JUMP JUMPDEST PUSH2 0x187F DUP3 DUP3 PUSH2 0xCD4 JUMP JUMPDEST PUSH2 0xF95 JUMPI PUSH2 0x1897 DUP2 PUSH1 0x1 PUSH1 0x1 PUSH1 0xA0 SHL SUB AND PUSH1 0x14 PUSH2 0x1E3E JUMP JUMPDEST PUSH2 0x18A2 DUP4 PUSH1 0x20 PUSH2 0x1E3E JUMP JUMPDEST PUSH1 0x40 MLOAD PUSH1 0x20 ADD PUSH2 0x18B3 SWAP3 SWAP2 SWAP1 PUSH2 0x27D4 JUMP JUMPDEST PUSH1 0x40 DUP1 MLOAD PUSH1 0x1F NOT DUP2 DUP5 SUB ADD DUP2 MSTORE SWAP1 DUP3 SWAP1 MSTORE PUSH3 0x461BCD PUSH1 0xE5 SHL DUP3 MSTORE PUSH2 0x618 SWAP2 PUSH1 0x4 ADD PUSH2 0x2394 JUMP JUMPDEST PUSH2 0x18E3 DUP3 DUP3 PUSH2 0xCD4 JUMP JUMPDEST ISZERO PUSH2 0xF95 JUMPI PUSH1 0x0 DUP3 DUP2 MSTORE PUSH1 0x1 PUSH1 0x20 SWAP1 DUP2 MSTORE PUSH1 0x40 DUP1 DUP4 KECCAK256 PUSH1 0x1 PUSH1 0x1 PUSH1 0xA0 SHL SUB DUP6 AND DUP1 DUP6 MSTORE SWAP3 MSTORE DUP1 DUP4 KECCAK256 DUP1 SLOAD PUSH1 0xFF NOT AND SWAP1 SSTORE MLOAD CALLER SWAP3 DUP6 SWAP2 PUSH32 0xF6391F5C32D9C69D2A47EA670B442974B53935D1EDC7FD64EB21E047A839171B SWAP2 SWAP1 LOG4 POP POP JUMP JUMPDEST PUSH1 0x0 DUP2 DUP2 MSTORE PUSH1 0x1 DUP4 ADD PUSH1 0x20 MSTORE PUSH1 0x40 DUP2 KECCAK256 SLOAD DUP1 ISZERO PUSH2 0x1A29 JUMPI PUSH1 0x0 PUSH2 0x1964 PUSH1 0x1 DUP4 PUSH2 0x2753 JUMP JUMPDEST DUP6 SLOAD SWAP1 SWAP2 POP PUSH1 0x0 SWAP1 PUSH2 0x1978 SWAP1 PUSH1 0x1 SWAP1 PUSH2 0x2753 JUMP JUMPDEST SWAP1 POP DUP2 DUP2 EQ PUSH2 0x19DD JUMPI PUSH1 0x0 DUP7 PUSH1 0x0 ADD DUP3 DUP2 SLOAD DUP2 LT PUSH2 0x1998 JUMPI PUSH2 0x1998 PUSH2 0x26F8 JUMP JUMPDEST SWAP1 PUSH1 0x0 MSTORE PUSH1 0x20 PUSH1 0x0 KECCAK256 ADD SLOAD SWAP1 POP DUP1 DUP8 PUSH1 0x0 ADD DUP5 DUP2 SLOAD DUP2 LT PUSH2 0x19BB JUMPI PUSH2 0x19BB PUSH2 0x26F8 JUMP JUMPDEST PUSH1 0x0 SWAP2 DUP3 MSTORE PUSH1 0x20 DUP1 DUP4 KECCAK256 SWAP1 SWAP2 ADD SWAP3 SWAP1 SWAP3 SSTORE SWAP2 DUP3 MSTORE PUSH1 0x1 DUP9 ADD SWAP1 MSTORE PUSH1 0x40 SWAP1 KECCAK256 DUP4 SWAP1 SSTORE JUMPDEST DUP6 SLOAD DUP7 SWAP1 DUP1 PUSH2 0x19EE JUMPI PUSH2 0x19EE PUSH2 0x2849 JUMP JUMPDEST PUSH1 0x1 SWAP1 SUB DUP2 DUP2 SWAP1 PUSH1 0x0 MSTORE PUSH1 0x20 PUSH1 0x0 KECCAK256 ADD PUSH1 0x0 SWAP1 SSTORE SWAP1 SSTORE DUP6 PUSH1 0x1 ADD PUSH1 0x0 DUP7 DUP2 MSTORE PUSH1 0x20 ADD SWAP1 DUP2 MSTORE PUSH1 0x20 ADD PUSH1 0x0 KECCAK256 PUSH1 0x0 SWAP1 SSTORE PUSH1 0x1 SWAP4 POP POP POP POP PUSH2 0x518 JUMP JUMPDEST PUSH1 0x0 SWAP2 POP POP PUSH2 0x518 JUMP JUMPDEST PUSH1 0x0 DUP3 PUSH1 0x0 ADD DUP3 DUP2 SLOAD DUP2 LT PUSH2 0x1A4A JUMPI PUSH2 0x1A4A PUSH2 0x26F8 JUMP JUMPDEST SWAP1 PUSH1 0x0 MSTORE PUSH1 0x20 PUSH1 0x0 KECCAK256 ADD SLOAD SWAP1 POP SWAP3 SWAP2 POP POP JUMP JUMPDEST PUSH1 0x0 PUSH1 0x1 PUSH1 0x1 PUSH1 0xA0 SHL SUB DUP5 AND EXTCODESIZE ISZERO PUSH2 0x1B5F JUMPI PUSH1 0x40 MLOAD PUSH4 0xA85BD01 PUSH1 0xE1 SHL DUP2 MSTORE PUSH1 0x1 PUSH1 0x1 PUSH1 0xA0 SHL SUB DUP6 AND SWAP1 PUSH4 0x150B7A02 SWAP1 PUSH2 0x1AA1 SWAP1 CALLER SWAP1 DUP10 SWAP1 DUP9 SWAP1 DUP9 SWAP1 PUSH1 0x4 ADD PUSH2 0x285F JUMP JUMPDEST PUSH1 0x20 PUSH1 0x40 MLOAD DUP1 DUP4 SUB DUP2 PUSH1 0x0 DUP8 DUP1 EXTCODESIZE ISZERO DUP1 ISZERO PUSH2 0x1ABB JUMPI PUSH1 0x0 DUP1 REVERT JUMPDEST POP GAS CALL SWAP3 POP POP POP DUP1 ISZERO PUSH2 0x1AEB JUMPI POP PUSH1 0x40 DUP1 MLOAD PUSH1 0x1F RETURNDATASIZE SWAP1 DUP2 ADD PUSH1 0x1F NOT AND DUP3 ADD SWAP1 SWAP3 MSTORE PUSH2 0x1AE8 SWAP2 DUP2 ADD SWAP1 PUSH2 0x289C JUMP JUMPDEST PUSH1 0x1 JUMPDEST PUSH2 0x1B45 JUMPI RETURNDATASIZE DUP1 DUP1 ISZERO PUSH2 0x1B19 JUMPI PUSH1 0x40 MLOAD SWAP2 POP PUSH1 0x1F NOT PUSH1 0x3F RETURNDATASIZE ADD AND DUP3 ADD PUSH1 0x40 MSTORE RETURNDATASIZE DUP3 MSTORE RETURNDATASIZE PUSH1 0x0 PUSH1 0x20 DUP5 ADD RETURNDATACOPY PUSH2 0x1B1E JUMP JUMPDEST PUSH1 0x60 SWAP2 POP JUMPDEST POP DUP1 MLOAD PUSH2 0x1B3D JUMPI PUSH1 0x40 MLOAD PUSH3 0x461BCD PUSH1 0xE5 SHL DUP2 MSTORE PUSH1 0x4 ADD PUSH2 0x618 SWAP1 PUSH2 0x2782 JUMP JUMPDEST DUP1 MLOAD DUP2 PUSH1 0x20 ADD REVERT JUMPDEST PUSH1 0x1 PUSH1 0x1 PUSH1 0xE0 SHL SUB NOT AND PUSH4 0xA85BD01 PUSH1 0xE1 SHL EQ SWAP1 POP PUSH2 0xF62 JUMP JUMPDEST POP PUSH1 0x1 SWAP5 SWAP4 POP POP POP POP JUMP JUMPDEST PUSH1 0x60 DUP2 PUSH2 0x1B8E JUMPI POP POP PUSH1 0x40 DUP1 MLOAD DUP1 DUP3 ADD SWAP1 SWAP2 MSTORE PUSH1 0x1 DUP2 MSTORE PUSH1 0x3 PUSH1 0xFC SHL PUSH1 0x20 DUP3 ADD MSTORE SWAP1 JUMP JUMPDEST DUP2 PUSH1 0x0 JUMPDEST DUP2 ISZERO PUSH2 0x1BB8 JUMPI DUP1 PUSH2 0x1BA2 DUP2 PUSH2 0x28B9 JUMP JUMPDEST SWAP2 POP PUSH2 0x1BB1 SWAP1 POP PUSH1 0xA DUP4 PUSH2 0x28EA JUMP JUMPDEST SWAP2 POP PUSH2 0x1B92 JUMP JUMPDEST PUSH1 0x0 DUP2 PUSH8 0xFFFFFFFFFFFFFFFF DUP2 GT ISZERO PUSH2 0x1BD3 JUMPI PUSH2 0x1BD3 PUSH2 0x2550 JUMP JUMPDEST PUSH1 0x40 MLOAD SWAP1 DUP1 DUP3 MSTORE DUP1 PUSH1 0x1F ADD PUSH1 0x1F NOT AND PUSH1 0x20 ADD DUP3 ADD PUSH1 0x40 MSTORE DUP1 ISZERO PUSH2 0x1BFD JUMPI PUSH1 0x20 DUP3 ADD DUP2 DUP1 CALLDATASIZE DUP4 CALLDATACOPY ADD SWAP1 POP JUMPDEST POP SWAP1 POP JUMPDEST DUP5 ISZERO PUSH2 0xF62 JUMPI PUSH2 0x1C12 PUSH1 0x1 DUP4 PUSH2 0x2753 JUMP JUMPDEST SWAP2 POP PUSH2 0x1C1F PUSH1 0xA DUP7 PUSH2 0x28FE JUMP JUMPDEST PUSH2 0x1C2A SWAP1 PUSH1 0x30 PUSH2 0x276A JUMP JUMPDEST PUSH1 0xF8 SHL DUP2 DUP4 DUP2 MLOAD DUP2 LT PUSH2 0x1C3F JUMPI PUSH2 0x1C3F PUSH2 0x26F8 JUMP JUMPDEST PUSH1 0x20 ADD ADD SWAP1 PUSH1 0x1 PUSH1 0x1 PUSH1 0xF8 SHL SUB NOT AND SWAP1 DUP2 PUSH1 0x0 BYTE SWAP1 MSTORE8 POP PUSH2 0x1C61 PUSH1 0xA DUP7 PUSH2 0x28EA JUMP JUMPDEST SWAP5 POP PUSH2 0x1C01 JUMP JUMPDEST PUSH1 0x0 PUSH1 0x1 PUSH1 0x1 PUSH1 0xE0 SHL SUB NOT DUP3 AND PUSH4 0x5A05180F PUSH1 0xE0 SHL EQ DUP1 PUSH2 0x518 JUMPI POP PUSH2 0x518 DUP3 PUSH2 0x1FDA JUMP JUMPDEST PUSH2 0x1C98 DUP4 DUP4 DUP4 PUSH2 0x200F JUMP JUMPDEST PUSH1 0xD SLOAD PUSH1 0xFF AND ISZERO PUSH2 0x74E JUMPI PUSH1 0x40 MLOAD PUSH3 0x461BCD PUSH1 0xE5 SHL DUP2 MSTORE PUSH1 0x20 PUSH1 0x4 DUP3 ADD MSTORE PUSH1 0x2B PUSH1 0x24 DUP3 ADD MSTORE PUSH32 0x4552433732315061757361626C653A20746F6B656E207472616E736665722077 PUSH1 0x44 DUP3 ADD MSTORE PUSH11 0x1A1A5B19481C185D5CD959 PUSH1 0xAA SHL PUSH1 0x64 DUP3 ADD MSTORE PUSH1 0x84 ADD PUSH2 0x618 JUMP JUMPDEST PUSH1 0x1 PUSH1 0x1 PUSH1 0xA0 SHL SUB DUP3 AND PUSH2 0x1D55 JUMPI PUSH1 0x40 MLOAD PUSH3 0x461BCD PUSH1 0xE5 SHL DUP2 MSTORE PUSH1 0x20 PUSH1 0x4 DUP3 ADD DUP2 SWAP1 MSTORE PUSH1 0x24 DUP3 ADD MSTORE PUSH32 0x4552433732313A206D696E7420746F20746865207A65726F2061646472657373 PUSH1 0x44 DUP3 ADD MSTORE PUSH1 0x64 ADD PUSH2 0x618 JUMP JUMPDEST PUSH2 0x1D5E DUP2 PUSH2 0xFAE JUMP JUMPDEST ISZERO PUSH2 0x1DAB JUMPI PUSH1 0x40 MLOAD PUSH3 0x461BCD PUSH1 0xE5 SHL DUP2 MSTORE PUSH1 0x20 PUSH1 0x4 DUP3 ADD MSTORE PUSH1 0x1C PUSH1 0x24 DUP3 ADD MSTORE PUSH32 0x4552433732313A20746F6B656E20616C7265616479206D696E74656400000000 PUSH1 0x44 DUP3 ADD MSTORE PUSH1 0x64 ADD PUSH2 0x618 JUMP JUMPDEST PUSH2 0x1DB7 PUSH1 0x0 DUP4 DUP4 PUSH2 0x1837 JUMP JUMPDEST PUSH1 0x1 PUSH1 0x1 PUSH1 0xA0 SHL SUB DUP3 AND PUSH1 0x0 SWAP1 DUP2 MSTORE PUSH1 0x6 PUSH1 0x20 MSTORE PUSH1 0x40 DUP2 KECCAK256 DUP1 SLOAD PUSH1 0x1 SWAP3 SWAP1 PUSH2 0x1DE0 SWAP1 DUP5 SWAP1 PUSH2 0x276A JUMP JUMPDEST SWAP1 SWAP2 SSTORE POP POP PUSH1 0x0 DUP2 DUP2 MSTORE PUSH1 0x5 PUSH1 0x20 MSTORE PUSH1 0x40 DUP1 DUP3 KECCAK256 DUP1 SLOAD PUSH1 0x1 PUSH1 0x1 PUSH1 0xA0 SHL SUB NOT AND PUSH1 0x1 PUSH1 0x1 PUSH1 0xA0 SHL SUB DUP7 AND SWAP1 DUP2 OR SWAP1 SWAP2 SSTORE SWAP1 MLOAD DUP4 SWAP3 SWAP1 PUSH32 0xDDF252AD1BE2C89B69C2B068FC378DAA952BA7F163C4A11628F55A4DF523B3EF SWAP1 DUP3 SWAP1 LOG4 POP POP JUMP JUMPDEST PUSH1 0x60 PUSH1 0x0 PUSH2 0x1E4D DUP4 PUSH1 0x2 PUSH2 0x2912 JUMP JUMPDEST PUSH2 0x1E58 SWAP1 PUSH1 0x2 PUSH2 0x276A JUMP JUMPDEST PUSH8 0xFFFFFFFFFFFFFFFF DUP2 GT ISZERO PUSH2 0x1E70 JUMPI PUSH2 0x1E70 PUSH2 0x2550 JUMP JUMPDEST PUSH1 0x40 MLOAD SWAP1 DUP1 DUP3 MSTORE DUP1 PUSH1 0x1F ADD PUSH1 0x1F NOT AND PUSH1 0x20 ADD DUP3 ADD PUSH1 0x40 MSTORE DUP1 ISZERO PUSH2 0x1E9A JUMPI PUSH1 0x20 DUP3 ADD DUP2 DUP1 CALLDATASIZE DUP4 CALLDATACOPY ADD SWAP1 POP JUMPDEST POP SWAP1 POP PUSH1 0x3 PUSH1 0xFC SHL DUP2 PUSH1 0x0 DUP2 MLOAD DUP2 LT PUSH2 0x1EB5 JUMPI PUSH2 0x1EB5 PUSH2 0x26F8 JUMP JUMPDEST PUSH1 0x20 ADD ADD SWAP1 PUSH1 0x1 PUSH1 0x1 PUSH1 0xF8 SHL SUB NOT AND SWAP1 DUP2 PUSH1 0x0 BYTE SWAP1 MSTORE8 POP PUSH1 0xF PUSH1 0xFB SHL DUP2 PUSH1 0x1 DUP2 MLOAD DUP2 LT PUSH2 0x1EE4 JUMPI PUSH2 0x1EE4 PUSH2 0x26F8 JUMP JUMPDEST PUSH1 0x20 ADD ADD SWAP1 PUSH1 0x1 PUSH1 0x1 PUSH1 0xF8 SHL SUB NOT AND SWAP1 DUP2 PUSH1 0x0 BYTE SWAP1 MSTORE8 POP PUSH1 0x0 PUSH2 0x1F08 DUP5 PUSH1 0x2 PUSH2 0x2912 JUMP JUMPDEST PUSH2 0x1F13 SWAP1 PUSH1 0x1 PUSH2 0x276A JUMP JUMPDEST SWAP1 POP JUMPDEST PUSH1 0x1 DUP2 GT ISZERO PUSH2 0x1F8B JUMPI PUSH16 0x181899199A1A9B1B9C1CB0B131B232B3 PUSH1 0x81 SHL DUP6 PUSH1 0xF AND PUSH1 0x10 DUP2 LT PUSH2 0x1F47 JUMPI PUSH2 0x1F47 PUSH2 0x26F8 JUMP JUMPDEST BYTE PUSH1 0xF8 SHL DUP3 DUP3 DUP2 MLOAD DUP2 LT PUSH2 0x1F5D JUMPI PUSH2 0x1F5D PUSH2 0x26F8 JUMP JUMPDEST PUSH1 0x20 ADD ADD SWAP1 PUSH1 0x1 PUSH1 0x1 PUSH1 0xF8 SHL SUB NOT AND SWAP1 DUP2 PUSH1 0x0 BYTE SWAP1 MSTORE8 POP PUSH1 0x4 SWAP5 SWAP1 SWAP5 SHR SWAP4 PUSH2 0x1F84 DUP2 PUSH2 0x2931 JUMP JUMPDEST SWAP1 POP PUSH2 0x1F16 JUMP JUMPDEST POP DUP4 ISZERO PUSH2 0xCCD JUMPI PUSH1 0x40 MLOAD PUSH3 0x461BCD PUSH1 0xE5 SHL DUP2 MSTORE PUSH1 0x20 PUSH1 0x4 DUP3 ADD DUP2 SWAP1 MSTORE PUSH1 0x24 DUP3 ADD MSTORE PUSH32 0x537472696E67733A20686578206C656E67746820696E73756666696369656E74 PUSH1 0x44 DUP3 ADD MSTORE PUSH1 0x64 ADD PUSH2 0x618 JUMP JUMPDEST PUSH1 0x0 PUSH1 0x1 PUSH1 0x1 PUSH1 0xE0 SHL SUB NOT DUP3 AND PUSH4 0x7965DB0B PUSH1 0xE0 SHL EQ DUP1 PUSH2 0x518 JUMPI POP PUSH4 0x1FFC9A7 PUSH1 0xE0 SHL PUSH1 0x1 PUSH1 0x1 PUSH1 0xE0 SHL SUB NOT DUP4 AND EQ PUSH2 0x518 JUMP JUMPDEST PUSH1 0x1 PUSH1 0x1 PUSH1 0xA0 SHL SUB DUP4 AND PUSH2 0x206A JUMPI PUSH2 0x2065 DUP2 PUSH1 0xB DUP1 SLOAD PUSH1 0x0 DUP4 DUP2 MSTORE PUSH1 0xC PUSH1 0x20 MSTORE PUSH1 0x40 DUP2 KECCAK256 DUP3 SWAP1 SSTORE PUSH1 0x1 DUP3 ADD DUP4 SSTORE SWAP2 SWAP1 SWAP2 MSTORE PUSH32 0x175B7A638427703F0DBE7BB9BBF987A2551717B34E79F33B5B1008D1FA01DB9 ADD SSTORE JUMP JUMPDEST PUSH2 0x208D JUMP JUMPDEST DUP2 PUSH1 0x1 PUSH1 0x1 PUSH1 0xA0 SHL SUB AND DUP4 PUSH1 0x1 PUSH1 0x1 PUSH1 0xA0 SHL SUB AND EQ PUSH2 0x208D JUMPI PUSH2 0x208D DUP4 DUP3 PUSH2 0x20C7 JUMP JUMPDEST PUSH1 0x1 PUSH1 0x1 PUSH1 0xA0 SHL SUB DUP3 AND PUSH2 0x20A4 JUMPI PUSH2 0x74E DUP2 PUSH2 0x2164 JUMP JUMPDEST DUP3 PUSH1 0x1 PUSH1 0x1 PUSH1 0xA0 SHL SUB AND DUP3 PUSH1 0x1 PUSH1 0x1 PUSH1 0xA0 SHL SUB AND EQ PUSH2 0x74E JUMPI PUSH2 0x74E DUP3 DUP3 PUSH2 0x2213 JUMP JUMPDEST PUSH1 0x0 PUSH1 0x1 PUSH2 0x20D4 DUP5 PUSH2 0xBB0 JUMP JUMPDEST PUSH2 0x20DE SWAP2 SWAP1 PUSH2 0x2753 JUMP JUMPDEST PUSH1 0x0 DUP4 DUP2 MSTORE PUSH1 0xA PUSH1 0x20 MSTORE PUSH1 0x40 SWAP1 KECCAK256 SLOAD SWAP1 SWAP2 POP DUP1 DUP3 EQ PUSH2 0x2131 JUMPI PUSH1 0x1 PUSH1 0x1 PUSH1 0xA0 SHL SUB DUP5 AND PUSH1 0x0 SWAP1 DUP2 MSTORE PUSH1 0x9 PUSH1 0x20 SWAP1 DUP2 MSTORE PUSH1 0x40 DUP1 DUP4 KECCAK256 DUP6 DUP5 MSTORE DUP3 MSTORE DUP1 DUP4 KECCAK256 SLOAD DUP5 DUP5 MSTORE DUP2 DUP5 KECCAK256 DUP2 SWAP1 SSTORE DUP4 MSTORE PUSH1 0xA SWAP1 SWAP2 MSTORE SWAP1 KECCAK256 DUP2 SWAP1 SSTORE JUMPDEST POP PUSH1 0x0 SWAP2 DUP3 MSTORE PUSH1 0xA PUSH1 0x20 SWAP1 DUP2 MSTORE PUSH1 0x40 DUP1 DUP5 KECCAK256 DUP5 SWAP1 SSTORE PUSH1 0x1 PUSH1 0x1 PUSH1 0xA0 SHL SUB SWAP1 SWAP5 AND DUP4 MSTORE PUSH1 0x9 DUP2 MSTORE DUP4 DUP4 KECCAK256 SWAP2 DUP4 MSTORE MSTORE SWAP1 DUP2 KECCAK256 SSTORE JUMP JUMPDEST PUSH1 0xB SLOAD PUSH1 0x0 SWAP1 PUSH2 0x2176 SWAP1 PUSH1 0x1 SWAP1 PUSH2 0x2753 JUMP JUMPDEST PUSH1 0x0 DUP4 DUP2 MSTORE PUSH1 0xC PUSH1 0x20 MSTORE PUSH1 0x40 DUP2 KECCAK256 SLOAD PUSH1 0xB DUP1 SLOAD SWAP4 SWAP5 POP SWAP1 SWAP3 DUP5 SWAP1 DUP2 LT PUSH2 0x219E JUMPI PUSH2 0x219E PUSH2 0x26F8 JUMP JUMPDEST SWAP1 PUSH1 0x0 MSTORE PUSH1 0x20 PUSH1 0x0 KECCAK256 ADD SLOAD SWAP1 POP DUP1 PUSH1 0xB DUP4 DUP2 SLOAD DUP2 LT PUSH2 0x21BF JUMPI PUSH2 0x21BF PUSH2 0x26F8 JUMP JUMPDEST PUSH1 0x0 SWAP2 DUP3 MSTORE PUSH1 0x20 DUP1 DUP4 KECCAK256 SWAP1 SWAP2 ADD SWAP3 SWAP1 SWAP3 SSTORE DUP3 DUP2 MSTORE PUSH1 0xC SWAP1 SWAP2 MSTORE PUSH1 0x40 DUP1 DUP3 KECCAK256 DUP5 SWAP1 SSTORE DUP6 DUP3 MSTORE DUP2 KECCAK256 SSTORE PUSH1 0xB DUP1 SLOAD DUP1 PUSH2 0x21F7 JUMPI PUSH2 0x21F7 PUSH2 0x2849 JUMP JUMPDEST PUSH1 0x1 SWAP1 SUB DUP2 DUP2 SWAP1 PUSH1 0x0 MSTORE PUSH1 0x20 PUSH1 0x0 KECCAK256 ADD PUSH1 0x0 SWAP1 SSTORE SWAP1 SSTORE POP POP POP POP JUMP JUMPDEST PUSH1 0x0 PUSH2 0x221E DUP4 PUSH2 0xBB0 JUMP JUMPDEST PUSH1 0x1 PUSH1 0x1 PUSH1 0xA0 SHL SUB SWAP1 SWAP4 AND PUSH1 0x0 SWAP1 DUP2 MSTORE PUSH1 0x9 PUSH1 0x20 SWAP1 DUP2 MSTORE PUSH1 0x40 DUP1 DUP4 KECCAK256 DUP7 DUP5 MSTORE DUP3 MSTORE DUP1 DUP4 KECCAK256 DUP6 SWAP1 SSTORE SWAP4 DUP3 MSTORE PUSH1 0xA SWAP1 MSTORE SWAP2 SWAP1 SWAP2 KECCAK256 SWAP2 SWAP1 SWAP2 SSTORE POP JUMP JUMPDEST DUP3 DUP1 SLOAD PUSH2 0x2263 SWAP1 PUSH2 0x266C JUMP JUMPDEST SWAP1 PUSH1 0x0 MSTORE PUSH1 0x20 PUSH1 0x0 KECCAK256 SWAP1 PUSH1 0x1F ADD PUSH1 0x20 SWAP1 DIV DUP2 ADD SWAP3 DUP3 PUSH2 0x2285 JUMPI PUSH1 0x0 DUP6 SSTORE PUSH2 0x22CB JUMP JUMPDEST DUP3 PUSH1 0x1F LT PUSH2 0x229E JUMPI DUP1 MLOAD PUSH1 0xFF NOT AND DUP4 DUP1 ADD OR DUP6 SSTORE PUSH2 0x22CB JUMP JUMPDEST DUP3 DUP1 ADD PUSH1 0x1 ADD DUP6 SSTORE DUP3 ISZERO PUSH2 0x22CB JUMPI SWAP2 DUP3 ADD JUMPDEST DUP3 DUP2 GT ISZERO PUSH2 0x22CB JUMPI DUP3 MLOAD DUP3 SSTORE SWAP2 PUSH1 0x20 ADD SWAP2 SWAP1 PUSH1 0x1 ADD SWAP1 PUSH2 0x22B0 JUMP JUMPDEST POP PUSH2 0x22D7 SWAP3 SWAP2 POP PUSH2 0x22DB JUMP JUMPDEST POP SWAP1 JUMP JUMPDEST JUMPDEST DUP1 DUP3 GT ISZERO PUSH2 0x22D7 JUMPI PUSH1 0x0 DUP2 SSTORE PUSH1 0x1 ADD PUSH2 0x22DC JUMP JUMPDEST PUSH1 0x0 PUSH1 0x20 DUP3 DUP5 SUB SLT ISZERO PUSH2 0x2302 JUMPI PUSH1 0x0 DUP1 REVERT JUMPDEST POP CALLDATALOAD SWAP2 SWAP1 POP JUMP JUMPDEST PUSH1 0x1 PUSH1 0x1 PUSH1 0xE0 SHL SUB NOT DUP2 AND DUP2 EQ PUSH2 0xAA3 JUMPI PUSH1 0x0 DUP1 REVERT JUMPDEST PUSH1 0x0 PUSH1 0x20 DUP3 DUP5 SUB SLT ISZERO PUSH2 0x2331 JUMPI PUSH1 0x0 DUP1 REVERT JUMPDEST DUP2 CALLDATALOAD PUSH2 0xCCD DUP2 PUSH2 0x2309 JUMP JUMPDEST PUSH1 0x0 JUMPDEST DUP4 DUP2 LT ISZERO PUSH2 0x2357 JUMPI DUP2 DUP2 ADD MLOAD DUP4 DUP3 ADD MSTORE PUSH1 0x20 ADD PUSH2 0x233F JUMP JUMPDEST DUP4 DUP2 GT ISZERO PUSH2 0xE05 JUMPI POP POP PUSH1 0x0 SWAP2 ADD MSTORE JUMP JUMPDEST PUSH1 0x0 DUP2 MLOAD DUP1 DUP5 MSTORE PUSH2 0x2380 DUP2 PUSH1 0x20 DUP7 ADD PUSH1 0x20 DUP7 ADD PUSH2 0x233C JUMP JUMPDEST PUSH1 0x1F ADD PUSH1 0x1F NOT AND SWAP3 SWAP1 SWAP3 ADD PUSH1 0x20 ADD SWAP3 SWAP2 POP POP JUMP JUMPDEST PUSH1 0x20 DUP2 MSTORE PUSH1 0x0 PUSH2 0xCCD PUSH1 0x20 DUP4 ADD DUP5 PUSH2 0x2368 JUMP JUMPDEST DUP1 CALLDATALOAD PUSH1 0x1 PUSH1 0x1 PUSH1 0xA0 SHL SUB DUP2 AND DUP2 EQ PUSH2 0x508 JUMPI PUSH1 0x0 DUP1 REVERT JUMPDEST PUSH1 0x0 DUP1 PUSH1 0x40 DUP4 DUP6 SUB SLT ISZERO PUSH2 0x23D1 JUMPI PUSH1 0x0 DUP1 REVERT JUMPDEST PUSH2 0x23DA DUP4 PUSH2 0x23A7 JUMP JUMPDEST SWAP5 PUSH1 0x20 SWAP4 SWAP1 SWAP4 ADD CALLDATALOAD SWAP4 POP POP POP JUMP JUMPDEST PUSH1 0x0 DUP1 PUSH1 0x0 PUSH1 0x60 DUP5 DUP7 SUB SLT ISZERO PUSH2 0x23FD JUMPI PUSH1 0x0 DUP1 REVERT JUMPDEST PUSH2 0x2406 DUP5 PUSH2 0x23A7 JUMP JUMPDEST SWAP3 POP PUSH2 0x2414 PUSH1 0x20 DUP6 ADD PUSH2 0x23A7 JUMP JUMPDEST SWAP2 POP PUSH1 0x40 DUP5 ADD CALLDATALOAD SWAP1 POP SWAP3 POP SWAP3 POP SWAP3 JUMP JUMPDEST PUSH1 0x0 DUP1 PUSH1 0x0 DUP1 PUSH1 0x60 DUP6 DUP8 SUB SLT ISZERO PUSH2 0x243A JUMPI PUSH1 0x0 DUP1 REVERT JUMPDEST PUSH2 0x2443 DUP6 PUSH2 0x23A7 JUMP JUMPDEST SWAP4 POP PUSH1 0x20 DUP6 ADD CALLDATALOAD SWAP3 POP PUSH1 0x40 DUP6 ADD CALLDATALOAD PUSH8 0xFFFFFFFFFFFFFFFF DUP1 DUP3 GT ISZERO PUSH2 0x2467 JUMPI PUSH1 0x0 DUP1 REVERT JUMPDEST DUP2 DUP8 ADD SWAP2 POP DUP8 PUSH1 0x1F DUP4 ADD SLT PUSH2 0x247B JUMPI PUSH1 0x0 DUP1 REVERT JUMPDEST DUP2 CALLDATALOAD DUP2 DUP2 GT ISZERO PUSH2 0x248A JUMPI PUSH1 0x0 DUP1 REVERT JUMPDEST DUP9 PUSH1 0x20 DUP3 DUP6 ADD ADD GT ISZERO PUSH2 0x249C JUMPI PUSH1 0x0 DUP1 REVERT JUMPDEST SWAP6 SWAP9 SWAP5 SWAP8 POP POP PUSH1 0x20 ADD SWAP5 POP POP POP JUMP JUMPDEST PUSH1 0x0 DUP1 PUSH1 0x40 DUP4 DUP6 SUB SLT ISZERO PUSH2 0x24BE JUMPI PUSH1 0x0 DUP1 REVERT JUMPDEST DUP3 CALLDATALOAD SWAP2 POP PUSH2 0x24CE PUSH1 0x20 DUP5 ADD PUSH2 0x23A7 JUMP JUMPDEST SWAP1 POP SWAP3 POP SWAP3 SWAP1 POP JUMP JUMPDEST PUSH1 0x0 PUSH1 0x20 DUP3 DUP5 SUB SLT ISZERO PUSH2 0x24E9 JUMPI PUSH1 0x0 DUP1 REVERT JUMPDEST PUSH2 0xCCD DUP3 PUSH2 0x23A7 JUMP JUMPDEST PUSH1 0x0 DUP1 PUSH1 0x40 DUP4 DUP6 SUB SLT ISZERO PUSH2 0x2505 JUMPI PUSH1 0x0 DUP1 REVERT JUMPDEST POP POP DUP1 CALLDATALOAD SWAP3 PUSH1 0x20 SWAP1 SWAP2 ADD CALLDATALOAD SWAP2 POP JUMP JUMPDEST PUSH1 0x0 DUP1 PUSH1 0x40 DUP4 DUP6 SUB SLT ISZERO PUSH2 0x2527 JUMPI PUSH1 0x0 DUP1 REVERT JUMPDEST PUSH2 0x2530 DUP4 PUSH2 0x23A7 JUMP JUMPDEST SWAP2 POP PUSH1 0x20 DUP4 ADD CALLDATALOAD DUP1 ISZERO ISZERO DUP2 EQ PUSH2 0x2545 JUMPI PUSH1 0x0 DUP1 REVERT JUMPDEST DUP1 SWAP2 POP POP SWAP3 POP SWAP3 SWAP1 POP JUMP JUMPDEST PUSH4 0x4E487B71 PUSH1 0xE0 SHL PUSH1 0x0 MSTORE PUSH1 0x41 PUSH1 0x4 MSTORE PUSH1 0x24 PUSH1 0x0 REVERT JUMPDEST PUSH1 0x0 DUP1 PUSH1 0x0 DUP1 PUSH1 0x80 DUP6 DUP8 SUB SLT ISZERO PUSH2 0x257C JUMPI PUSH1 0x0 DUP1 REVERT JUMPDEST PUSH2 0x2585 DUP6 PUSH2 0x23A7 JUMP JUMPDEST SWAP4 POP PUSH2 0x2593 PUSH1 0x20 DUP7 ADD PUSH2 0x23A7 JUMP JUMPDEST SWAP3 POP PUSH1 0x40 DUP6 ADD CALLDATALOAD SWAP2 POP PUSH1 0x60 DUP6 ADD CALLDATALOAD PUSH8 0xFFFFFFFFFFFFFFFF DUP1 DUP3 GT ISZERO PUSH2 0x25B7 JUMPI PUSH1 0x0 DUP1 REVERT JUMPDEST DUP2 DUP8 ADD SWAP2 POP DUP8 PUSH1 0x1F DUP4 ADD SLT PUSH2 0x25CB JUMPI PUSH1 0x0 DUP1 REVERT JUMPDEST DUP2 CALLDATALOAD DUP2 DUP2 GT ISZERO PUSH2 0x25DD JUMPI PUSH2 0x25DD PUSH2 0x2550 JUMP JUMPDEST PUSH1 0x40 MLOAD PUSH1 0x1F DUP3 ADD PUSH1 0x1F NOT SWAP1 DUP2 AND PUSH1 0x3F ADD AND DUP2 ADD SWAP1 DUP4 DUP3 GT DUP2 DUP4 LT OR ISZERO PUSH2 0x2605 JUMPI PUSH2 0x2605 PUSH2 0x2550 JUMP JUMPDEST DUP2 PUSH1 0x40 MSTORE DUP3 DUP2 MSTORE DUP11 PUSH1 0x20 DUP5 DUP8 ADD ADD GT ISZERO PUSH2 0x261E JUMPI PUSH1 0x0 DUP1 REVERT JUMPDEST DUP3 PUSH1 0x20 DUP7 ADD PUSH1 0x20 DUP4 ADD CALLDATACOPY PUSH1 0x0 PUSH1 0x20 DUP5 DUP4 ADD ADD MSTORE DUP1 SWAP6 POP POP POP POP POP POP SWAP3 SWAP6 SWAP2 SWAP5 POP SWAP3 POP JUMP JUMPDEST PUSH1 0x0 DUP1 PUSH1 0x40 DUP4 DUP6 SUB SLT ISZERO PUSH2 0x2655 JUMPI PUSH1 0x0 DUP1 REVERT JUMPDEST PUSH2 0x265E DUP4 PUSH2 0x23A7 JUMP JUMPDEST SWAP2 POP PUSH2 0x24CE PUSH1 0x20 DUP5 ADD PUSH2 0x23A7 JUMP JUMPDEST PUSH1 0x1 DUP2 DUP2 SHR SWAP1 DUP3 AND DUP1 PUSH2 0x2680 JUMPI PUSH1 0x7F DUP3 AND SWAP2 POP JUMPDEST PUSH1 0x20 DUP3 LT DUP2 EQ ISZERO PUSH2 0x26A1 JUMPI PUSH4 0x4E487B71 PUSH1 0xE0 SHL PUSH1 0x0 MSTORE PUSH1 0x22 PUSH1 0x4 MSTORE PUSH1 0x24 PUSH1 0x0 REVERT JUMPDEST POP SWAP2 SWAP1 POP JUMP JUMPDEST PUSH1 0x20 DUP1 DUP3 MSTORE PUSH1 0x31 SWAP1 DUP3 ADD MSTORE PUSH32 0x4552433732313A207472616E736665722063616C6C6572206973206E6F74206F PUSH1 0x40 DUP3 ADD MSTORE PUSH17 0x1DDB995C881B9BDC88185C1C1C9BDD9959 PUSH1 0x7A SHL PUSH1 0x60 DUP3 ADD MSTORE PUSH1 0x80 ADD SWAP1 JUMP JUMPDEST PUSH4 0x4E487B71 PUSH1 0xE0 SHL PUSH1 0x0 MSTORE PUSH1 0x32 PUSH1 0x4 MSTORE PUSH1 0x24 PUSH1 0x0 REVERT JUMPDEST PUSH1 0x0 DUP4 MLOAD PUSH2 0x2720 DUP2 DUP5 PUSH1 0x20 DUP9 ADD PUSH2 0x233C JUMP JUMPDEST DUP4 MLOAD SWAP1 DUP4 ADD SWAP1 PUSH2 0x2734 DUP2 DUP4 PUSH1 0x20 DUP9 ADD PUSH2 0x233C JUMP JUMPDEST ADD SWAP5 SWAP4 POP POP POP POP JUMP JUMPDEST PUSH4 0x4E487B71 PUSH1 0xE0 SHL PUSH1 0x0 MSTORE PUSH1 0x11 PUSH1 0x4 MSTORE PUSH1 0x24 PUSH1 0x0 REVERT JUMPDEST PUSH1 0x0 DUP3 DUP3 LT ISZERO PUSH2 0x2765 JUMPI PUSH2 0x2765 PUSH2 0x273D JUMP JUMPDEST POP SUB SWAP1 JUMP JUMPDEST PUSH1 0x0 DUP3 NOT DUP3 GT ISZERO PUSH2 0x277D JUMPI PUSH2 0x277D PUSH2 0x273D JUMP JUMPDEST POP ADD SWAP1 JUMP JUMPDEST PUSH1 0x20 DUP1 DUP3 MSTORE PUSH1 0x32 SWAP1 DUP3 ADD MSTORE PUSH32 0x4552433732313A207472616E7366657220746F206E6F6E204552433732315265 PUSH1 0x40 DUP3 ADD MSTORE PUSH18 0x31B2B4BB32B91034B6B83632B6B2B73A32B9 PUSH1 0x71 SHL PUSH1 0x60 DUP3 ADD MSTORE PUSH1 0x80 ADD SWAP1 JUMP JUMPDEST PUSH32 0x416363657373436F6E74726F6C3A206163636F756E7420000000000000000000 DUP2 MSTORE PUSH1 0x0 DUP4 MLOAD PUSH2 0x280C DUP2 PUSH1 0x17 DUP6 ADD PUSH1 0x20 DUP9 ADD PUSH2 0x233C JUMP JUMPDEST PUSH17 0x1034B99036B4B9B9B4B733903937B6329 PUSH1 0x7D SHL PUSH1 0x17 SWAP2 DUP5 ADD SWAP2 DUP3 ADD MSTORE DUP4 MLOAD PUSH2 0x283D DUP2 PUSH1 0x28 DUP5 ADD PUSH1 0x20 DUP9 ADD PUSH2 0x233C JUMP JUMPDEST ADD PUSH1 0x28 ADD SWAP5 SWAP4 POP POP POP POP JUMP JUMPDEST PUSH4 0x4E487B71 PUSH1 0xE0 SHL PUSH1 0x0 MSTORE PUSH1 0x31 PUSH1 0x4 MSTORE PUSH1 0x24 PUSH1 0x0 REVERT JUMPDEST PUSH1 0x1 PUSH1 0x1 PUSH1 0xA0 SHL SUB DUP6 DUP2 AND DUP3 MSTORE DUP5 AND PUSH1 0x20 DUP3 ADD MSTORE PUSH1 0x40 DUP2 ADD DUP4 SWAP1 MSTORE PUSH1 0x80 PUSH1 0x60 DUP3 ADD DUP2 SWAP1 MSTORE PUSH1 0x0 SWAP1 PUSH2 0x2892 SWAP1 DUP4 ADD DUP5 PUSH2 0x2368 JUMP JUMPDEST SWAP7 SWAP6 POP POP POP POP POP POP JUMP JUMPDEST PUSH1 0x0 PUSH1 0x20 DUP3 DUP5 SUB SLT ISZERO PUSH2 0x28AE JUMPI PUSH1 0x0 DUP1 REVERT JUMPDEST DUP2 MLOAD PUSH2 0xCCD DUP2 PUSH2 0x2309 JUMP JUMPDEST PUSH1 0x0 PUSH1 0x0 NOT DUP3 EQ ISZERO PUSH2 0x28CD JUMPI PUSH2 0x28CD PUSH2 0x273D JUMP JUMPDEST POP PUSH1 0x1 ADD SWAP1 JUMP JUMPDEST PUSH4 0x4E487B71 PUSH1 0xE0 SHL PUSH1 0x0 MSTORE PUSH1 0x12 PUSH1 0x4 MSTORE PUSH1 0x24 PUSH1 0x0 REVERT JUMPDEST PUSH1 0x0 DUP3 PUSH2 0x28F9 JUMPI PUSH2 0x28F9 PUSH2 0x28D4 JUMP JUMPDEST POP DIV SWAP1 JUMP JUMPDEST PUSH1 0x0 DUP3 PUSH2 0x290D JUMPI PUSH2 0x290D PUSH2 0x28D4 JUMP JUMPDEST POP MOD SWAP1 JUMP JUMPDEST PUSH1 0x0 DUP2 PUSH1 0x0 NOT DIV DUP4 GT DUP3 ISZERO ISZERO AND ISZERO PUSH2 0x292C JUMPI PUSH2 0x292C PUSH2 0x273D JUMP JUMPDEST POP MUL SWAP1 JUMP JUMPDEST PUSH1 0x0 DUP2 PUSH2 0x2940 JUMPI PUSH2 0x2940 PUSH2 0x273D JUMP JUMPDEST POP PUSH1 0x0 NOT ADD SWAP1 JUMP INVALID LOG2 PUSH5 0x6970667358 0x22 SLT KECCAK256 DUP12 CALLER 0x29 PUSH10 0x4F65F46414769B11B17B DUP12 0xC6 CALLDATACOPY PUSH7 0x8BFF91A79FA80D 0x5F SWAP2 0xEB 0xCE AND SELFDESTRUCT 0xD5 PUSH5 0x736F6C6343 STOP ADDMOD MULMOD STOP CALLER "
		},
		"gasEstimates": {
			"creation": {
				"codeDepositCost": "2124400",
				"executionCost": "infinite",
				"totalCost": "infinite"
			},
			"external": {
				"DAO_ROLE()": "316",
				"DEFAULT_ADMIN_ROLE()": "295",
				"MINTER_ROLE()": "228",
				"PAUSER_ROLE()": "272",
				"approve(address,uint256)": "infinite",
				"balanceOf(address)": "2668",
				"burn(uint256)": "infinite",
				"getApproved(uint256)": "4844",
				"getRoleAdmin(bytes32)": "2551",
				"getRoleMember(bytes32,uint256)": "infinite",
				"getRoleMemberCount(bytes32)": "infinite",
				"grantRole(bytes32,address)": "infinite",
				"hasRole(bytes32,address)": "2732",
				"isApprovedForAll(address,address)": "infinite",
				"mintNodeToken(address,uint256,string)": "infinite",
				"name()": "infinite",
				"ownerOf(uint256)": "2624",
				"pause()": "30039",
				"paused()": "2350",
				"renounceRole(bytes32,address)": "infinite",
				"revokeRole(bytes32,address)": "infinite",
				"safeTransferFrom(address,address,uint256)": "infinite",
				"safeTransferFrom(address,address,uint256,bytes)": "infinite",
				"setApprovalForAll(address,bool)": "26673",
				"supportsInterface(bytes4)": "infinite",
				"symbol()": "infinite",
				"tokenByIndex(uint256)": "6815",
				"tokenExists(uint256)": "2570",
				"tokenOfOwnerByIndex(address,uint256)": "5009",
				"tokenURI(uint256)": "infinite",
				"totalSupply()": "2349",
				"transferFrom(address,address,uint256)": "infinite",
				"unpause()": "29949"
			},
			"internal": {
				"_baseURI()": "infinite",
				"_beforeTokenTransfer(address,address,uint256)": "infinite",
				"_setTokenURI(uint256,string memory)": "infinite"
			}
		},
		"methodIdentifiers": {
			"DAO_ROLE()": "e9c26518",
			"DEFAULT_ADMIN_ROLE()": "a217fddf",
			"MINTER_ROLE()": "d5391393",
			"PAUSER_ROLE()": "e63ab1e9",
			"approve(address,uint256)": "095ea7b3",
			"balanceOf(address)": "70a08231",
			"burn(uint256)": "42966c68",
			"getApproved(uint256)": "081812fc",
			"getRoleAdmin(bytes32)": "248a9ca3",
			"getRoleMember(bytes32,uint256)": "9010d07c",
			"getRoleMemberCount(bytes32)": "ca15c873",
			"grantRole(bytes32,address)": "2f2ff15d",
			"hasRole(bytes32,address)": "91d14854",
			"isApprovedForAll(address,address)": "e985e9c5",
			"mintNodeToken(address,uint256,string)": "27da435e",
			"name()": "06fdde03",
			"ownerOf(uint256)": "6352211e",
			"pause()": "8456cb59",
			"paused()": "5c975abb",
			"renounceRole(bytes32,address)": "36568abe",
			"revokeRole(bytes32,address)": "d547741f",
			"safeTransferFrom(address,address,uint256)": "42842e0e",
			"safeTransferFrom(address,address,uint256,bytes)": "b88d4fde",
			"setApprovalForAll(address,bool)": "a22cb465",
			"supportsInterface(bytes4)": "01ffc9a7",
			"symbol()": "95d89b41",
			"tokenByIndex(uint256)": "4f6ccce7",
			"tokenExists(uint256)": "00923f9e",
			"tokenOfOwnerByIndex(address,uint256)": "2f745c59",
			"tokenURI(uint256)": "c87b56dd",
			"totalSupply()": "18160ddd",
			"transferFrom(address,address,uint256)": "23b872dd",
			"unpause()": "3f4ba83a"
		}
	},
	"abi": [
		{
			"inputs": [],
			"stateMutability": "nonpayable",
			"type": "constructor"
		},
		{
			"anonymous": false,
			"inputs": [
				{
					"indexed": true,
					"internalType": "address",
					"name": "owner",
					"type": "address"
				},
				{
					"indexed": true,
					"internalType": "address",
					"name": "approved",
					"type": "address"
				},
				{
					"indexed": true,
					"internalType": "uint256",
					"name": "tokenId",
					"type": "uint256"
				}
			],
			"name": "Approval",
			"type": "event"
		},
		{
			"anonymous": false,
			"inputs": [
				{
					"indexed": true,
					"internalType": "address",
					"name": "owner",
					"type": "address"
				},
				{
					"indexed": true,
					"internalType": "address",
					"name": "operator",
					"type": "address"
				},
				{
					"indexed": false,
					"internalType": "bool",
					"name": "approved",
					"type": "bool"
				}
			],
			"name": "ApprovalForAll",
			"type": "event"
		},
		{
			"anonymous": false,
			"inputs": [
				{
					"indexed": false,
					"internalType": "address",
					"name": "account",
					"type": "address"
				}
			],
			"name": "Paused",
			"type": "event"
		},
		{
			"anonymous": false,
			"inputs": [
				{
					"indexed": true,
					"internalType": "bytes32",
					"name": "role",
					"type": "bytes32"
				},
				{
					"indexed": true,
					"internalType": "bytes32",
					"name": "previousAdminRole",
					"type": "bytes32"
				},
				{
					"indexed": true,
					"internalType": "bytes32",
					"name": "newAdminRole",
					"type": "bytes32"
				}
			],
			"name": "RoleAdminChanged",
			"type": "event"
		},
		{
			"anonymous": false,
			"inputs": [
				{
					"indexed": true,
					"internalType": "bytes32",
					"name": "role",
					"type": "bytes32"
				},
				{
					"indexed": true,
					"internalType": "address",
					"name": "account",
					"type": "address"
				},
				{
					"indexed": true,
					"internalType": "address",
					"name": "sender",
					"type": "address"
				}
			],
			"name": "RoleGranted",
			"type": "event"
		},
		{
			"anonymous": false,
			"inputs": [
				{
					"indexed": true,
					"internalType": "bytes32",
					"name": "role",
					"type": "bytes32"
				},
				{
					"indexed": true,
					"internalType": "address",
					"name": "account",
					"type": "address"
				},
				{
					"indexed": true,
					"internalType": "address",
					"name": "sender",
					"type": "address"
				}
			],
			"name": "RoleRevoked",
			"type": "event"
		},
		{
			"anonymous": false,
			"inputs": [
				{
					"indexed": true,
					"internalType": "address",
					"name": "from",
					"type": "address"
				},
				{
					"indexed": true,
					"internalType": "address",
					"name": "to",
					"type": "address"
				},
				{
					"indexed": true,
					"internalType": "uint256",
					"name": "tokenId",
					"type": "uint256"
				}
			],
			"name": "Transfer",
			"type": "event"
		},
		{
			"anonymous": false,
			"inputs": [
				{
					"indexed": false,
					"internalType": "address",
					"name": "account",
					"type": "address"
				}
			],
			"name": "Unpaused",
			"type": "event"
		},
		{
			"inputs": [],
			"name": "DAO_ROLE",
			"outputs": [
				{
					"internalType": "bytes32",
					"name": "",
					"type": "bytes32"
				}
			],
			"stateMutability": "view",
			"type": "function"
		},
		{
			"inputs": [],
			"name": "DEFAULT_ADMIN_ROLE",
			"outputs": [
				{
					"internalType": "bytes32",
					"name": "",
					"type": "bytes32"
				}
			],
			"stateMutability": "view",
			"type": "function"
		},
		{
			"inputs": [],
			"name": "MINTER_ROLE",
			"outputs": [
				{
					"internalType": "bytes32",
					"name": "",
					"type": "bytes32"
				}
			],
			"stateMutability": "view",
			"type": "function"
		},
		{
			"inputs": [],
			"name": "PAUSER_ROLE",
			"outputs": [
				{
					"internalType": "bytes32",
					"name": "",
					"type": "bytes32"
				}
			],
			"stateMutability": "view",
			"type": "function"
		},
		{
			"inputs": [
				{
					"internalType": "address",
					"name": "to",
					"type": "address"
				},
				{
					"internalType": "uint256",
					"name": "tokenId",
					"type": "uint256"
				}
			],
			"name": "approve",
			"outputs": [],
			"stateMutability": "nonpayable",
			"type": "function"
		},
		{
			"inputs": [
				{
					"internalType": "address",
					"name": "owner",
					"type": "address"
				}
			],
			"name": "balanceOf",
			"outputs": [
				{
					"internalType": "uint256",
					"name": "",
					"type": "uint256"
				}
			],
			"stateMutability": "view",
			"type": "function"
		},
		{
			"inputs": [
				{
					"internalType": "uint256",
					"name": "tokenId",
					"type": "uint256"
				}
			],
			"name": "burn",
			"outputs": [],
			"stateMutability": "nonpayable",
			"type": "function"
		},
		{
			"inputs": [
				{
					"internalType": "uint256",
					"name": "tokenId",
					"type": "uint256"
				}
			],
			"name": "getApproved",
			"outputs": [
				{
					"internalType": "address",
					"name": "",
					"type": "address"
				}
			],
			"stateMutability": "view",
			"type": "function"
		},
		{
			"inputs": [
				{
					"internalType": "bytes32",
					"name": "role",
					"type": "bytes32"
				}
			],
			"name": "getRoleAdmin",
			"outputs": [
				{
					"internalType": "bytes32",
					"name": "",
					"type": "bytes32"
				}
			],
			"stateMutability": "view",
			"type": "function"
		},
		{
			"inputs": [
				{
					"internalType": "bytes32",
					"name": "role",
					"type": "bytes32"
				},
				{
					"internalType": "uint256",
					"name": "index",
					"type": "uint256"
				}
			],
			"name": "getRoleMember",
			"outputs": [
				{
					"internalType": "address",
					"name": "",
					"type": "address"
				}
			],
			"stateMutability": "view",
			"type": "function"
		},
		{
			"inputs": [
				{
					"internalType": "bytes32",
					"name": "role",
					"type": "bytes32"
				}
			],
			"name": "getRoleMemberCount",
			"outputs": [
				{
					"internalType": "uint256",
					"name": "",
					"type": "uint256"
				}
			],
			"stateMutability": "view",
			"type": "function"
		},
		{
			"inputs": [
				{
					"internalType": "bytes32",
					"name": "role",
					"type": "bytes32"
				},
				{
					"internalType": "address",
					"name": "account",
					"type": "address"
				}
			],
			"name": "grantRole",
			"outputs": [],
			"stateMutability": "nonpayable",
			"type": "function"
		},
		{
			"inputs": [
				{
					"internalType": "bytes32",
					"name": "role",
					"type": "bytes32"
				},
				{
					"internalType": "address",
					"name": "account",
					"type": "address"
				}
			],
			"name": "hasRole",
			"outputs": [
				{
					"internalType": "bool",
					"name": "",
					"type": "bool"
				}
			],
			"stateMutability": "view",
			"type": "function"
		},
		{
			"inputs": [
				{
					"internalType": "address",
					"name": "owner",
					"type": "address"
				},
				{
					"internalType": "address",
					"name": "operator",
					"type": "address"
				}
			],
			"name": "isApprovedForAll",
			"outputs": [
				{
					"internalType": "bool",
					"name": "",
					"type": "bool"
				}
			],
			"stateMutability": "view",
			"type": "function"
		},
		{
			"inputs": [
				{
					"internalType": "address",
					"name": "_recipientAddress",
					"type": "address"
				},
				{
					"internalType": "uint256",
					"name": "_tokenId",
					"type": "uint256"
				},
				{
					"internalType": "string",
					"name": "_tokenURI",
					"type": "string"
				}
			],
			"name": "mintNodeToken",
			"outputs": [
				{
					"internalType": "uint256",
					"name": "",
					"type": "uint256"
				}
			],
			"stateMutability": "nonpayable",
			"type": "function"
		},
		{
			"inputs": [],
			"name": "name",
			"outputs": [
				{
					"internalType": "string",
					"name": "",
					"type": "string"
				}
			],
			"stateMutability": "view",
			"type": "function"
		},
		{
			"inputs": [
				{
					"internalType": "uint256",
					"name": "tokenId",
					"type": "uint256"
				}
			],
			"name": "ownerOf",
			"outputs": [
				{
					"internalType": "address",
					"name": "",
					"type": "address"
				}
			],
			"stateMutability": "view",
			"type": "function"
		},
		{
			"inputs": [],
			"name": "pause",
			"outputs": [],
			"stateMutability": "nonpayable",
			"type": "function"
		},
		{
			"inputs": [],
			"name": "paused",
			"outputs": [
				{
					"internalType": "bool",
					"name": "",
					"type": "bool"
				}
			],
			"stateMutability": "view",
			"type": "function"
		},
		{
			"inputs": [
				{
					"internalType": "bytes32",
					"name": "role",
					"type": "bytes32"
				},
				{
					"internalType": "address",
					"name": "account",
					"type": "address"
				}
			],
			"name": "renounceRole",
			"outputs": [],
			"stateMutability": "nonpayable",
			"type": "function"
		},
		{
			"inputs": [
				{
					"internalType": "bytes32",
					"name": "role",
					"type": "bytes32"
				},
				{
					"internalType": "address",
					"name": "account",
					"type": "address"
				}
			],
			"name": "revokeRole",
			"outputs": [],
			"stateMutability": "nonpayable",
			"type": "function"
		},
		{
			"inputs": [
				{
					"internalType": "address",
					"name": "from",
					"type": "address"
				},
				{
					"internalType": "address",
					"name": "to",
					"type": "address"
				},
				{
					"internalType": "uint256",
					"name": "tokenId",
					"type": "uint256"
				}
			],
			"name": "safeTransferFrom",
			"outputs": [],
			"stateMutability": "nonpayable",
			"type": "function"
		},
		{
			"inputs": [
				{
					"internalType": "address",
					"name": "from",
					"type": "address"
				},
				{
					"internalType": "address",
					"name": "to",
					"type": "address"
				},
				{
					"internalType": "uint256",
					"name": "tokenId",
					"type": "uint256"
				},
				{
					"internalType": "bytes",
					"name": "_data",
					"type": "bytes"
				}
			],
			"name": "safeTransferFrom",
			"outputs": [],
			"stateMutability": "nonpayable",
			"type": "function"
		},
		{
			"inputs": [
				{
					"internalType": "address",
					"name": "operator",
					"type": "address"
				},
				{
					"internalType": "bool",
					"name": "approved",
					"type": "bool"
				}
			],
			"name": "setApprovalForAll",
			"outputs": [],
			"stateMutability": "nonpayable",
			"type": "function"
		},
		{
			"inputs": [
				{
					"internalType": "bytes4",
					"name": "interfaceId",
					"type": "bytes4"
				}
			],
			"name": "supportsInterface",
			"outputs": [
				{
					"internalType": "bool",
					"name": "",
					"type": "bool"
				}
			],
			"stateMutability": "view",
			"type": "function"
		},
		{
			"inputs": [],
			"name": "symbol",
			"outputs": [
				{
					"internalType": "string",
					"name": "",
					"type": "string"
				}
			],
			"stateMutability": "view",
			"type": "function"
		},
		{
			"inputs": [
				{
					"internalType": "uint256",
					"name": "index",
					"type": "uint256"
				}
			],
			"name": "tokenByIndex",
			"outputs": [
				{
					"internalType": "uint256",
					"name": "",
					"type": "uint256"
				}
			],
			"stateMutability": "view",
			"type": "function"
		},
		{
			"inputs": [
				{
					"internalType": "uint256",
					"name": "tokenId",
					"type": "uint256"
				}
			],
			"name": "tokenExists",
			"outputs": [
				{
					"internalType": "uint256",
					"name": "",
					"type": "uint256"
				}
			],
			"stateMutability": "view",
			"type": "function"
		},
		{
			"inputs": [
				{
					"internalType": "address",
					"name": "owner",
					"type": "address"
				},
				{
					"internalType": "uint256",
					"name": "index",
					"type": "uint256"
				}
			],
			"name": "tokenOfOwnerByIndex",
			"outputs": [
				{
					"internalType": "uint256",
					"name": "",
					"type": "uint256"
				}
			],
			"stateMutability": "view",
			"type": "function"
		},
		{
			"inputs": [
				{
					"internalType": "uint256",
					"name": "tokenId",
					"type": "uint256"
				}
			],
			"name": "tokenURI",
			"outputs": [
				{
					"internalType": "string",
					"name": "",
					"type": "string"
				}
			],
			"stateMutability": "view",
			"type": "function"
		},
		{
			"inputs": [],
			"name": "totalSupply",
			"outputs": [
				{
					"internalType": "uint256",
					"name": "",
					"type": "uint256"
				}
			],
			"stateMutability": "view",
			"type": "function"
		},
		{
			"inputs": [
				{
					"internalType": "address",
					"name": "from",
					"type": "address"
				},
				{
					"internalType": "address",
					"name": "to",
					"type": "address"
				},
				{
					"internalType": "uint256",
					"name": "tokenId",
					"type": "uint256"
				}
			],
			"name": "transferFrom",
			"outputs": [],
			"stateMutability": "nonpayable",
			"type": "function"
		},
		{
			"inputs": [],
			"name": "unpause",
			"outputs": [],
			"stateMutability": "nonpayable",
			"type": "function"
		}
	]
}